VERSION E05

PL6.E3A0      #001=TOU$REPLACE File=TOU$REPLACE.:E05TSI                          WED 07/30/97 06:50 Page:1
        1        1        /*M* TOU$REPLACE     DEckfile Editor Routine String Replacement */
        2        2        /*T***********************************************************/
        3        3        /*T*                                                         */
        4        4        /*T* Copyright (c) Bull HN Information Systems Inc., 1997    */
        5        5        /*T*                                                         */
        6        6        /*T***********************************************************/
        7        7
        8        8        /*X* PLM=3,DCI=6,SQB=N,PRB=N,DTI=5,ENI=0,AND=Y,ECI=0,CSU=3,DIN=3,
        9        9             CTI=8,CRM=109,CRT=1,NLB=N,NTB=Y,MCL=110 */
       10       10
       11       11        /*P*  NAME:        TOU$REPLACE
       12       12              AUTHORS:     D. Augustine
       13       13                           S. Sheppard
       14       14              PURPOSE:     DEckfile Editor Routine String Replacement
       15       15              DESCRIPTION: Error messages and general information messages are
       16       16                           fetched from the msg data base as string constants.
       17       17                           However, many of  these  messages  contain variable
       18       18                           fields whose values must be plugged in before being
       19       19                           printed. Such fields are stored in the original msg
       20       20                           as ~strings. This procedure accepts a message which
       21       21                           contains ~strings and  replaces the  ~strings  with
       22       22                           the correct values.
       23       23              REFERENCE:   CP-6 Release C0L0
       24       24              LAST UPDATE: 09/29/83
       25       25        */
       26       26        %EJECT ;
PL6.E3A0      #001=TOU$REPLACE File=TOU$REPLACE.:E05TSI                          WED 07/30/97 06:50 Page:2
       27       27        /*F*  NAME:        TOU$REPLACE
       28       28              DESCRIPTION: Procedure Nesting Hierarchy
       29       29
       30       30              TOU$REPLACE: procedure (MSG, MSG_LGTH)
       31       31                 SELECT_LETTER: procedure
       32       32                    SUB_FOR_LETTER_A: procedure
       33       33                    SUB_FOR_LETTER_B: procedure
       34       34                    SUB_FOR_LETTER_C: procedure
       35       35                    SUB_FOR_LETTER_D: procedure
       36       36                    SUB_FOR_LETTER_E: procedure
       37       37                    SUB_FOR_LETTER_F: procedure
       38       38                    SUB_FOR_LETTER_G: procedure
       39       39                    SUB_FOR_LETTER_H: procedure
       40       40                    SUB_FOR_LETTER_I: procedure
       41       41                    SUB_FOR_LETTER_J: procedure
       42       42                    SUB_FOR_LETTER_L: procedure
       43       43                    SUB_FOR_LETTER_M: procedure
       44       44                    SUB_FOR_LETTER_O: procedure
       45       45                    SUB_FOR_LETTER_P: procedure
       46       46                    SUB_FOR_LETTER_R: procedure
       47       47                    SUB_FOR_LETTER_S: procedure
       48       48                    SUB_FOR_LETTER_T: procedure
       49       49                    SUB_FOR_LETTER_W: procedure
       50       50                    SUB_FOR_LETTER_X: procedure
       51       51                    SUB_FOR_LETTER_Y: procedure
       52       52                    SUB_FOR_LETTER_Z: procedure
       53       53                 BINARY_2_ASCII: procedure (SIZE, BINARY)
       54       54                 MCA_2_ASCII: procedure (SIZE, BINARY)
       55       55        */
       56       56        %EJECT ;
PL6.E3A0      #001=TOU$REPLACE File=TOU$REPLACE.:E05TSI                          WED 07/30/97 06:50 Page:3
       57       57        /*F*  NAME:        TOU$REPLACE
       58       58              AUTHORS:     D. Augustine
       59       59                           S. Sheppard
       60       60              SUMMARY:     Replacement Strings
       61       61
       62       62              --------   ------------  -------------------
       63       63              Original   Replace Size  Variable Referenced
       64       64              --------   ------------  -------------------
       65       65              ~A             3         'BOS' 'GMAP' 'Level6' 'MPC'
       66       66                                       (CASE OBJECT.BCD.ASSEMBLER)
       67       67              ~ARS           6         IFAD_ARS#-1
       68       68              ~BLK           6         BLOCK.BSN
       69       69              ~BLS           4         BLOCK_SEQ
       70       70              ~BCZ           6         BLOCK.BCW.SIZE
       71       71              ~BSZ           6         BLOCK.CONTROL
       72       72              ~BCT           6         OBJECT.BINARY_COUNT
       73       73              ~CAT          23         CATALOG_KEY.DATA
       74       74              ~CD            6         CATALOG_DATA.DECK#
       75       75              ~CLAS          5         'ITR' 'FW' 'MDR'
       76       76                                       (case OBJECT.BCD.CLASS)
       77       77              ~CLS           4         OBJECT.BCD.CLASS
       78       78              ~COL           4         CUR#+1
       79       79              ~CUR           4         CUR#
       80       80              ~DATE          6         OBJECT.BCD.DATE
       81       81              ~DECK          6         OBJECT.DECK#
       82       82              ~DF_FID        40        DUP.DF.FID
       83       83              ~EC            6         CATALOG_DATA.ENTRY_COUNT
       84       84              ~EM            6         MASTER_ENTRY_KEY.ENTRY#
       85       85              ~EN            6         CATALOG_ENTRY_KEY.ENTRY#
       86       86              ~ENT          23         OBJECT_KEY.DATA
       87       87              ~FN            3         FILE_FILE
       88       88              ~FM            3         FILE_FILE - 1
       89       89              ~F2            3         SUBCATALOG_DATA.IFAD_FN
       90       90              ~GECAL         6         OBJECT.BCD.GECALL
       91       91              ~HLGDATE        8        LOG_B.ACCESSES.DATE(LOG#)
       92       92              ~HLGTIME       11        LOG_B.ACCESSES.TIME(LOG#)
       93       93              ~HLGCATALOG    21        LOG_B.ACCESSES.CATALOG(LOG#)
PL6.E3A0      #001=TOU$REPLACE File=TOU$REPLACE.:E05TSI                          WED 07/30/97 06:50 Page:4
       94       94              ~HLGDECK       23        LOG_B.ACCESSES.DECK(LOG#)
       95       95              ~HLGIFAD       40        LOG_B.ACCESSES.IFAD(LOG#)
       96       96              ~ID            6         ID.ID
       97       97              ~IMX           4         DUP.IFAD.IMU_NUMBER
       98       98              ~J             2         DUP.IFAD.DRIVE_NUMBER
       99       99              ~IMAGE       6-80        DUP.ERROR_IMAGE
      100      100              ~IMBLK        80         DUP.ERROR_IMAGE
      101      101              ~IFAD_FID      40        DUP.IFAD.FID
      102      102              ~LBL           4         OBJECT.BCD.LBL
      103      103              ~LIB           6         OBJECT.BCD.LIBRARY
      104      104              ~LOAD          5         'RELOC' 'PROG' 'DATA'
      105      105                                       (case OBJECT.BCD.LOAD_TYPE)
      106      106              ~LTIME        11         CURRENT.TIME (long time)
      107      107              ~LDATE         8         CURRENT.DATE
      108      108              ~MSZ           6         OBJECT.LOAD_SIZE
      109      109              ~MODEL         6         OBJECT.BCD.MODEL
      110      110              ~OBJ          110        OBJECT.BCD_
      111      111              ~PAGE          5         DUP.CURRENT_PAGE#
      112      112              ~PATCH        80         BCD_B(CUR#)
      113      113              ~R             2         ID.REV.LEVEL
      114      114              ~REVIS         2         ID.REVISION
      115      115              ~RCW          12         BCD_ASCII(RCW_OCTAL(CUR#))
      116      116              ~RU           10         B_VERSION
      117      117              ~RLINK         6         TOU$DEER.LINK_DATE.ASCII
      118      118              ~SE            4         'PACT' 'COLT' 'MOLT' 'SOLT' 'POLT'
      119      119                                       (case OBJECT.BCD.CLASS)
      120      120              ~SI            40        SUBCATALOG_DATA.IFAD_FID
      121      121              ~TYP           4         OBJECT.BCD.LOAD_TYPE
      122      122              ~TIME          5         CURRENT.TIME (time)
      123      123              ~TCT           6         OBJECT.TOTAL_COUNT
      124      124              ~WD1           6         BLOCK_OFFSET+1
      125      125              ~WSN           94        CUSTOMER.SITE_NAME#.C
      126      126              ~WSI           6         CUSTOMER.SITE_ID#
      127      127              ~WIR           6         REVISION_B.VERSION
      128      128              ~XTI            8        DISKETTE_HEADER.TITLE
      129      129              ~XUI            8        DISKETTE_HEADER.UNIQUE_ID
      130      130              ~XDS            6        DISKETTE_HEADER.DIR_SIZE
PL6.E3A0      #001=TOU$REPLACE File=TOU$REPLACE.:E05TSI                          WED 07/30/97 06:50 Page:5
      131      131              ~XCN            8        DISKETTE_HEADER.CONFIG_NAME
      132      132              ~XET            4        DISKETTE_HEADER.EQUIP_TYPE
      133      133              ~XIN           12        DISKETTE_HEADER.IPI_NUM
      134      134              ~XDN           12        DISKETTE_HEADER.DISK_DWG_NUM
      135      135              ~XPT            3        DISKETTE_HEADER.IPI_NUM.PRD_NUM_TAB
      136      136              ~XXX            1        DISKETTE_HEADER.X_OF_N.X
      137      137              ~XXN            1        DISKETTE_HEADER.X_OF_N.N
      138      138              ~YPN            8        DIRECTORY_ENTRY.PATH_NAME
      139      139              ~YFS            6        DIRECTORY_ENTRY.FILE_SIZE
      140      140              ~ZMT            4        DISKETTE_FILE.MODULE_TYPE
      141      141              ~ZET            4        DISKETTE_FILE.EQUIP_TYPE
      142      142              ~ZUN            8        DISKETTE_FILE.UNIQUE_NAME
      143      143              ~ZDN           12        DISKETTE_FILE.MOD_DWG_NUM
      144      144              ~ZTD            6        DISKETTE_FILE.TTL_DATE
      145      145              ~ZPR            4        DISKETTE_FILE.PGM_REV
      146      146              ~ZDT            4        DISKETTE_FILE.DISK_TAB
      147      147              ~ZRT            4        DISKETTE_FILE.LD_CTL.REC_TYPE
      148      148              --------   ------------  -------------------
      149      149
      150      150        */
      151      151        %EJECT ;
PL6.E3A0      #001=TOU$REPLACE File=TOU$REPLACE.:E05TSI                          WED 07/30/97 06:50 Page:6
      152      152        TOU$REPLACE: PROC (MSG, MSG_LGTH) ;
      153      153
      154      154        /* Include Files */
      155      155
      156      156           %INCLUDE B_ERRORS_C;
      157     1283           %INCLUDE CP_6;
      158     6842           %INCLUDE CP_6_SUBS;
      159     7382           %INCLUDE TOU_DEER_M ;
      160     8793
      161     8794        /* Parameters */
      162     8795
      163     8796    1      DCL MSG                        CHAR (MSG_LGTH) CALIGNED ;
      164     8797    1      DCL MSG_LGTH                   UBIN WORD ALIGNED ;
      165     8798
      166     8799        /* Macros */
      167     8800
      168     8801           %DUP (STCLASS = SYMREF) ;
      169     8944           %CATALOG_DATA (STCLASS = SYMREF) ;
      170     8958           %CATALOG_ENTRY_KEY (STCLASS = SYMREF) ;
      171     8972           %CATALOG_KEY (STCLASS = SYMREF) ;
      172     8986           %DKEND (STCLASS = SYMREF) ;
      173     9010           %LOG_B (STCLASS = "BASED (DUP.LOG_V.PTR$)") ;
      174     9036           %MASTER_ENTRY_KEY (STCLASS = SYMREF) ;
      175     9050           %MCA_B (STCLASS = "BASED (DUP.BINARY_V.PTR$)") ;
      176     9120           %OBJECT (STCLASS = SYMREF) ;
      177     9183           %OBJECT_KEY (STCLASS = SYMREF) ;
      178     9196           %BCD_B (STCLASS = "BASED (DUP.BCD_V.PTR$)") ;
      179     9208           %SUBCATALOG_DATA (STCLASS = SYMREF) ;
      180     9221           %REVISION_B (STCLASS = SYMREF) ;
      181     9242           %TOU$DEER (STCLASS = SYMREF) ;
      182     9256           %EJECT ;
PL6.E3A0      #001=TOU$REPLACE File=TOU$REPLACE.:E05TSI                          WED 07/30/97 06:50 Page:7
      183     9257        /* Variables */
      184     9258
      185     9259    1      DCL BCD_ASCII_TABLE CHAR (64) CALIGNED SYMREF;
      186     9260    1      DCL BCD_ASCII (0:63) REDEF BCD_ASCII_TABLE CHAR (1) CALIGNED ;
      187     9261
      188     9262    1      DCL 1 BLOCK        SYMREF,
      189     9263    1            2 CONTROL        UBIN WORD ALIGNED,
      190     9264    1            2 OFFSET         UBIN WORD ALIGNED,
      191     9265    1            2 BSN            UBIN WORD ALIGNED,
      192     9266    1            2 BCW,
      193     9267    1              3 BSN          UBIN HALF UNAL,
      194     9268    1              3 SIZE         UBIN HALF UNAL,
      195     9269    1            2 DATA,
      196     9270    1              3 RCW,
      197     9271    1                4 SIZE       UBIN HALF UNAL,
      198     9272    1                4 FILE_MARK  BIT  (6)  UNAL,
      199     9273    1                4 *          UBIN (12) UNAL,
      200     9274    1              3 DATA (0:317) UBIN WORD ALIGNED;
      201     9275
      202     9276    1      DCL BLOCK_SEQ CHAR (4) SYMREF ALIGNED;
      203     9277
      204     9278    1      DCL FILE_FILE UBIN WORD SYMREF ALIGNED;
      205     9279
      206     9280    1      DCL 1 ID SYMREF CALIGNED,
      207     9281    1            2 ID      CHAR (6) UNAL,
      208     9282    1            2 REVISION CHAR (6) UNAL,
      209     9283    1            2 REV REDEF REVISION UNAL,
      210     9284    1              3 *     CHAR (4) UNAL,
      211     9285    1              3 LEVEL CHAR (2) UNAL,
      212     9286    1            2 USAGE   CHAR (6) UNAL;
      213     9287           %EJECT ;
PL6.E3A0      #001=TOU$REPLACE File=TOU$REPLACE.:E05TSI                          WED 07/30/97 06:50 Page:8
      214     9288    1      DCL IFAD_ARS# UBIN WORD SYMREF ALIGNED ;
      215     9289
      216     9290    1      DCL CUR#   UBIN WORD SYMREF ALIGNED;
      217     9291    1      DCL LOG#   UBIN WORD SYMREF ALIGNED;
      218     9292
      219     9293    1      DCL 1 RCW SYMREF ALIGNED,
      220     9294    1            2 SIZE        UBIN HALF UNAL,
      221     9295    1            2 FILE_MARK   BIT  (6)  UNAL,
      222     9296    1            2 MEDIA_CODE  UBIN (6) UNAL,
      223     9297    1            2 REPORT_CODE UBIN (6) UNAL;
      224     9298    1      DCL RCW_OCTAL (0:11) REDEF RCW UBIN (3) UNAL;
      225     9299    1      DCL R_START UBIN WORD ALIGNED;
      226     9300           %EJECT;
PL6.E3A0      #001=TOU$REPLACE File=TOU$REPLACE.:E05TSI                          WED 07/30/97 06:50 Page:9
      227     9301        /* ********************
      228     9302           ********************
      229     9303           **  Main Program  **
      230     9304           ********************
      231     9305           ******************** */
      232     9306
      233     9307    1      CALL INDEX (R_START, '~', MSG, 0) ;
      234     9308    2      DO WHILE (R_START < MSG_LGTH);
      235     9309    2         CALL SELECT_LETTER ;
      236     9310    2         CALL INDEX (R_START, '~', MSG, R_START+1) ;
      237     9311    2      END /* WHILE */ ;
      238     9312    1      RETURN;
      239     9313
      240     9314        /* ********************
      241     9315           ********************
      242     9316           **  End Of  Main  **
      243     9317           ********************
      244     9318           ******************** */
      245     9319        %EJECT ;
PL6.E3A0      #001=TOU$REPLACE File=TOU$REPLACE.:E05TSI                          WED 07/30/97 06:50 Page:10
      246     9320    1   SELECT_LETTER: PROC ;
      247     9321
      248     9322        /* Code */
      249     9323
      250     9324    3      DO SELECT (SUBSTR (MSG, R_START + 1, 1)) ;
      251     9325    3         SELECT ('A') ;
      252     9326    3         CALL SUB_FOR_LETTER_A ;
      253     9327    3         SELECT ('B') ;
      254     9328    3         CALL SUB_FOR_LETTER_B ;
      255     9329    3         SELECT ('C') ;
      256     9330    3         CALL SUB_FOR_LETTER_C ;
      257     9331    3         SELECT ('D') ;
      258     9332    3         CALL SUB_FOR_LETTER_D ;
      259     9333    3         SELECT ('E') ;
      260     9334    3         CALL SUB_FOR_LETTER_E ;
      261     9335    3         SELECT ('F') ;
      262     9336    3         CALL SUB_FOR_LETTER_F ;
      263     9337    3         SELECT ('G') ;
      264     9338    3         CALL SUB_FOR_LETTER_G ;
      265     9339    3         SELECT ('H') ;
      266     9340    3         CALL SUB_FOR_LETTER_H ;
      267     9341    3         SELECT ('I') ;
      268     9342    3         CALL SUB_FOR_LETTER_I ;
      269     9343    3         SELECT ('J') ;
      270     9344    3         CALL SUB_FOR_LETTER_J ;
      271     9345    3         SELECT ('L') ;
      272     9346    3         CALL SUB_FOR_LETTER_L ;
      273     9347    3         SELECT ('M') ;
      274     9348    3         CALL SUB_FOR_LETTER_M ;
      275     9349                 %EJECT ;
PL6.E3A0      #001=TOU$REPLACE File=TOU$REPLACE.:E05TSI                          WED 07/30/97 06:50 Page:11
      276     9350    3         SELECT ('O') ;
      277     9351    3         CALL SUB_FOR_LETTER_O ;
      278     9352    3         SELECT ('P') ;
      279     9353    3         CALL SUB_FOR_LETTER_P ;
      280     9354    3         SELECT ('R') ;
      281     9355    3         CALL SUB_FOR_LETTER_R ;
      282     9356    3         SELECT ('S') ;
      283     9357    3         CALL SUB_FOR_LETTER_S ;
      284     9358    3         SELECT ('T') ;
      285     9359    3         CALL SUB_FOR_LETTER_T ;
      286     9360    3         SELECT ('W') ;
      287     9361    3         CALL SUB_FOR_LETTER_W ;
      288     9362    3         SELECT ('X') ;
      289     9363    3         CALL SUB_FOR_LETTER_X ;
      290     9364    3         SELECT ('Y') ;
      291     9365    3         CALL SUB_FOR_LETTER_Y ;
      292     9366    3         SELECT ('Z') ;
      293     9367    3         CALL SUB_FOR_LETTER_Z ;
      294     9368    3      END /* SELECT */ ;
      295     9369    2      RETURN ;
      296     9370
      297     9371        /* END SELECT_LETTER */
      298     9372        %EJECT ;
PL6.E3A0      #001=TOU$REPLACE File=TOU$REPLACE.:E05TSI                          WED 07/30/97 06:50 Page:12
      299     9373    2   SUB_FOR_LETTER_A: PROC ;
      300     9374
      301     9375        /* Code */
      302     9376
      303     9377    3      IF SUBSTR (MSG, R_START, 3) = '~A '
      304     9378    4      THEN DO SELECT (OBJECT.BCD.ASSEMBLER) ;
      305     9379    4              SELECT ('B') ;
      306     9380    4              CALL INSERT (MSG, R_START, 6, 'BOS') ;
      307     9381    4              SELECT ('G') ;
      308     9382    4              CALL INSERT (MSG, R_START, 6, 'GMAP') ;
      309     9383    4              SELECT ('L') ;
      310     9384    4              CALL INSERT (MSG, R_START, 6, 'Level6') ;
      311     9385    4              SELECT ('M') ;
      312     9386    4              CALL INSERT (MSG, R_START, 6, 'MPC') ;
      313     9387    4              SELECT ('P', '.') ;
      314     9388    4              CALL INSERT (MSG, R_START, 6, 'PLM') ;
      315     9389    4              SELECT ('N') ;
      316     9390    4              CALL INSERT (MSG, R_START, 6, 'None') ;
      317     9391    4           END /* THEN SELECT */ ;
      318     9392    3      ELSE CALL BINARY_2_ASCII (6, IFAD_ARS# - 1); /* ~ARS */
      319     9393    3      RETURN ;
      320     9394
      321     9395    3   END SUB_FOR_LETTER_A ;
      322     9396        %EJECT ;
PL6.E3A0      #001=TOU$REPLACE File=TOU$REPLACE.:E05TSI                          WED 07/30/97 06:50 Page:13
      323     9397    2   SUB_FOR_LETTER_B: PROC ;
      324     9398
      325     9399        /* Code */
      326     9400
      327     9401    3      IF SUBSTR (MSG, R_START, 4) = '~BLK'
      328     9402    3      THEN CALL BINARY_2_ASCII (6, BLOCK.BSN);
      329     9403    3      ELSE IF SUBSTR (MSG, R_START, 4) = '~BLS'
      330     9404    3         THEN CALL INSERT (MSG, R_START, 4, BLOCK_SEQ);
      331     9405    3         ELSE IF SUBSTR (MSG, R_START, 4) = '~BCZ'
      332     9406    3            THEN CALL BINARY_2_ASCII (6, BINBIT (BLOCK.BCW.SIZE, 36)) ;
      333     9407    3            ELSE IF SUBSTR (MSG, R_START, 4) = '~BCT'
      334     9408    3               THEN CALL BINARY_2_ASCII (6, BINBIT (OBJECT.BINARY_COUNT, 36)) ;
      335     9409    3               ELSE CALL BINARY_2_ASCII (6, BLOCK.CONTROL); /* ~BSZ */
      336     9410    3      RETURN ;
      337     9411
      338     9412    3   END SUB_FOR_LETTER_B ;
      339     9413        %EJECT ;
PL6.E3A0      #001=TOU$REPLACE File=TOU$REPLACE.:E05TSI                          WED 07/30/97 06:50 Page:14
      340     9414    2   SUB_FOR_LETTER_C: PROC ;
      341     9415
      342     9416        /* Code */
      343     9417
      344     9418    4      DO SELECT (SUBSTR (MSG, R_START, 5)) ;
      345     9419    4         SELECT ('~CAT ') ;
      346     9420    4         CALL INSERT (MSG, R_START, 21, CATALOG_KEY.DATA) ;
      347     9421    4         SELECT ('~CD  ') ;
      348     9422    4         CALL BINARY_2_ASCII (6, BINBIT (CATALOG_DATA.DECK#, 36));
      349     9423    4         SELECT ('~CLAS') ;
      350     9424    5         DO SELECT (OBJECT.BCD.CLASS) ;
      351     9425    5            SELECT ('I') ;
      352     9426    5            CALL INSERT (MSG, R_START, 5, 'ITR');
      353     9427    5            SELECT ('F', 'N', 'H') ;
      354     9428    5            IF OBJECT.BCD.LIBRARY = 'HNIOA0'
      355     9429    5            THEN CALL INSERT (MSG, R_START, 5, 'NIO');
      356     9430    5            ELSE CALL INSERT (MSG, R_START, 5, 'FW') ;
      357     9431    5            SELECT (ELSE) ;
      358     9432    5         CALL INSERT (MSG, R_START, 5, 'MDR');
      359     9433    5         END /* SELECT */ ;
      360     9434    4      SELECT ('~CLS ') ;
      361     9435    4      CALL INSERT (MSG, R_START, 4, OBJECT.BCD.CLASS);
      362     9436    4      SELECT ('~COL ') ;
      363     9437    4      CALL BINARY_2_ASCII (4, CUR# + 1);
      364     9438    4      SELECT ('~CUR ') ;
      365     9439    4      CALL BINARY_2_ASCII (4, CUR#) ;
      366     9440    4      END /* SELECT */ ;
      367     9441    3      RETURN ;
      368     9442
      369     9443    3   END SUB_FOR_LETTER_C ;
      370     9444        %EJECT ;
PL6.E3A0      #001=TOU$REPLACE File=TOU$REPLACE.:E05TSI                          WED 07/30/97 06:50 Page:15
      371     9445    2   SUB_FOR_LETTER_D: PROC ;
      372     9446
      373     9447        /* Code */
      374     9448
      375     9449    3      IF SUBSTR (MSG, R_START, 5) = '~DATE'
      376     9450    3      THEN CALL INSERT (MSG, R_START, 6, OBJECT.BCD.DATE);
      377     9451    3      ELSE IF SUBSTR (MSG, R_START, 5) = '~DECK'
      378     9452    3         THEN CALL BINARY_2_ASCII (6, BINBIT (OBJECT.DECK#, 36));
      379     9453    3         ELSE CALL INSERT (MSG, R_START, 40, DUP.DF.FID) ; /* ~DF_FID */
      380     9454    3      RETURN ;
      381     9455
      382     9456    3   END SUB_FOR_LETTER_D ;
      383     9457        %EJECT ;
PL6.E3A0      #001=TOU$REPLACE File=TOU$REPLACE.:E05TSI                          WED 07/30/97 06:50 Page:16
      384     9458    2   SUB_FOR_LETTER_E: PROC ;
      385     9459
      386     9460        /* Code */
      387     9461
      388     9462    3      IF SUBSTR (MSG, R_START, 3) = '~EC'
      389     9463    3      THEN CALL BINARY_2_ASCII (6, BINBIT (CATALOG_DATA.ENTRY_COUNT, 36));
      390     9464    3      ELSE IF SUBSTR (MSG, R_START, 3) = '~EM'
      391     9465    3         THEN CALL BINARY_2_ASCII (6, BINBIT (MASTER_ENTRY_KEY.ENTRY#, 36));
      392     9466    3         ELSE IF SUBSTR (MSG, R_START, 4) = '~EN '
      393     9467    3            THEN CALL BINARY_2_ASCII (6, BINBIT (CATALOG_ENTRY_KEY.ENTRY#, 36));
      394     9468    3            ELSE CALL INSERT (MSG, R_START, 23, OBJECT_KEY.DATA) ; /* ~ENT */
      395     9469    3      RETURN ;
      396     9470
      397     9471    3   END SUB_FOR_LETTER_E ;
      398     9472        %EJECT ;
PL6.E3A0      #001=TOU$REPLACE File=TOU$REPLACE.:E05TSI                          WED 07/30/97 06:50 Page:17
      399     9473    2   SUB_FOR_LETTER_F: PROC ;
      400     9474
      401     9475        /* Code */
      402     9476
      403     9477    4      DO SELECT (SUBSTR (MSG, R_START, 3)) ;
      404     9478    4         SELECT ('~FN') ;
      405     9479    4         CALL BINARY_2_ASCII (3, FILE_FILE) ;
      406     9480    4         SELECT ('~FM') ;
      407     9481    4         CALL BINARY_2_ASCII (3, FILE_FILE - 1) ;
      408     9482    4         SELECT ('~F2') ;
      409     9483    4         CALL INSERT (MSG, R_START, 12, SUBCATALOG_DATA.IFAD_FN) ;
      410     9484    4      END /* SELECT */ ;
      411     9485    3      RETURN ;
      412     9486
      413     9487    3   END SUB_FOR_LETTER_F ;
      414     9488        %EJECT ;
PL6.E3A0      #001=TOU$REPLACE File=TOU$REPLACE.:E05TSI                          WED 07/30/97 06:50 Page:18
      415     9489    2   SUB_FOR_LETTER_G: PROC ;
      416     9490
      417     9491        /* Code */
      418     9492
      419     9493    3      CALL INSERT (MSG, R_START, 6, OBJECT.BCD.GECALL); /* ~GECAL */
      420     9494    3      RETURN ;
      421     9495
      422     9496    3   END SUB_FOR_LETTER_G ;
      423     9497        %EJECT ;
PL6.E3A0      #001=TOU$REPLACE File=TOU$REPLACE.:E05TSI                          WED 07/30/97 06:50 Page:19
      424     9498    2   SUB_FOR_LETTER_H: PROC ;
      425     9499
      426     9500        /* Code */
      427     9501
      428     9502    3      IF SUBSTR (MSG, R_START, 8) = '~HLGDATE'
      429     9503    3      THEN CALL INSERT (MSG, R_START, 8, LOG_B.ACCESSES.DATE(LOG#)) ;
      430     9504    3      ELSE IF SUBSTR (MSG, R_START, 8) = '~HLGTIME'
      431     9505    3         THEN CALL INSERT (MSG, R_START, 11, LOG_B.ACCESSES.TIME(LOG#)) ;
      432     9506    3         ELSE IF SUBSTR (MSG, R_START, 11) = '~HLGCATALOG'
      433     9507    3            THEN CALL INSERT (MSG, R_START, 21, LOG_B.ACCESSES.CATALOG(LOG#)) ;
      434     9508    3            ELSE IF SUBSTR (MSG, R_START, 8) = '~HLGDECK'
      435     9509    3               THEN CALL INSERT (MSG, R_START, 23, LOG_B.ACCESSES.DECK(LOG#)) ;
      436     9510    3               ELSE CALL INSERT (MSG, R_START, 40, LOG_B.ACCESSES.IFAD(LOG#)) ;
      437     9511    3      RETURN ;
      438     9512
      439     9513    3   END SUB_FOR_LETTER_H ;
      440     9514        %EJECT ;
PL6.E3A0      #001=TOU$REPLACE File=TOU$REPLACE.:E05TSI                          WED 07/30/97 06:50 Page:20
      441     9515    2   SUB_FOR_LETTER_I: PROC ;
      442     9516
      443     9517    3      DCL BLANK    UBIN WORD ALIGNED ;
      444     9518    3      DCL LGTH     UBIN WORD ALIGNED ;
      445     9519
      446     9520        /* Code */
      447     9521
      448     9522    3      IF SUBSTR (MSG, R_START, 3) = '~ID'
      449     9523    3      THEN CALL INSERT (MSG, R_START, 6, ID.ID);
      450     9524    3      ELSE IF SUBSTR (MSG, R_START, 9) = '~IFAD_FID'
      451     9525    3         THEN CALL INSERT (MSG, R_START, 40, DUP.IFAD.FID) ;
      452     9526    3         ELSE IF SUBSTR (MSG, R_START, 4) = '~IMX'
      453     9527    3            THEN CALL BINARY_2_ASCII (4, DUP.IFAD.IMU_NUMBER) ;
      454     9528    3            ELSE IF SUBSTR (MSG, R_START, 6) = '~IMBLK'
      455     9529    3               THEN CALL INSERT (MSG, R_START, 80, DUP.ERROR_IMAGE) ;
      456     9530    4               ELSE DO ; /* ~IMAGE */
      457     9531    4                       CALL INDEX (BLANK, ' ', DUP.ERROR_IMAGE, 0) ;
      458     9532    4                       LGTH = MAXIMUM (BLANK, 6) ;
      459     9533    4                       CALL INSERT (MSG, R_START, LGTH, DUP.ERROR_IMAGE) ;
      460     9534    4                    END /* ELSE */ ;
      461     9535    3      RETURN ;
      462     9536
      463     9537    3   END SUB_FOR_LETTER_I ;
      464     9538        %EJECT ;
PL6.E3A0      #001=TOU$REPLACE File=TOU$REPLACE.:E05TSI                          WED 07/30/97 06:50 Page:21
      465     9539    2   SUB_FOR_LETTER_J: PROC ;
      466     9540
      467     9541        /* Code */
      468     9542
      469     9543    3      CALL INSERT (MSG, R_START, 2, DUP.IFAD.DRIVE_NUMBER) ;
      470     9544    3      RETURN ;
      471     9545
      472     9546    3   END SUB_FOR_LETTER_J ;
      473     9547        %EJECT ;
PL6.E3A0      #001=TOU$REPLACE File=TOU$REPLACE.:E05TSI                          WED 07/30/97 06:50 Page:22
      474     9548    2   SUB_FOR_LETTER_L: PROC ;
      475     9549
      476     9550    3      DCL 1 CURRENT STATIC,
      477     9551    3            2 DATE  CHAR (8) CALIGNED,
      478     9552    3            2 TIME  CHAR (11) CALIGNED ;
      479     9553           %FPT_TIME (FPTN = CURRENT_TIME,
      480     9554                      DEST = LOCAL,
      481     9555                      DATE = CURRENT.DATE,
      482     9556                      TIME = CURRENT.TIME) ;
      483     9575
      484     9576        /* Code */
      485     9577
      486     9578    3      IF SUBSTR (MSG, R_START, 4) = '~LBL'
      487     9579    3      THEN CALL INSERT (MSG, R_START, 4, OBJECT.BCD.LBL);
      488     9580    3      ELSE IF SUBSTR (MSG, R_START, 4) = '~LIB'
      489     9581    3         THEN CALL INSERT (MSG, R_START, 6, OBJECT.BCD.LIBRARY);
      490     9582    3         ELSE IF SUBSTR (MSG, R_START, 5) = '~LOAD'
      491     9583    3            THEN IF OBJECT.BCD.LOAD_TYPE = 'R'
      492     9584    3               THEN CALL INSERT (MSG, R_START, 5, 'RELOC');
      493     9585    3               ELSE IF OBJECT.BCD.LOAD_TYPE = 'P'
      494     9586    3                  THEN CALL INSERT (MSG, R_START, 5, 'PROG');
      495     9587    3                  ELSE CALL INSERT (MSG, R_START, 5, 'DATA') ;
      496     9588    4            ELSE DO ;
      497     9589    4                    CALL M$TIME (CURRENT_TIME) ;
      498     9590    4                    IF SUBSTR (MSG, R_START, 6) = '~LTIME'
      499     9591    4                    THEN CALL INSERT (MSG, R_START, 11, CURRENT.TIME) ;
      500     9592    4                    ELSE CALL INSERT (MSG, R_START,  8, CURRENT.DATE) ;
      501     9593    4                 END /* ELSE */ ;
      502     9594    3      RETURN ;
      503     9595
      504     9596    3   END SUB_FOR_LETTER_L ;
      505     9597        %EJECT ;
PL6.E3A0      #001=TOU$REPLACE File=TOU$REPLACE.:E05TSI                          WED 07/30/97 06:50 Page:23
      506     9598    2   SUB_FOR_LETTER_M: PROC ;
      507     9599
      508     9600        /* Code */
      509     9601
      510     9602    3      IF SUBSTR (MSG, R_START, 4) = '~MSZ'
      511     9603    3      THEN CALL BINARY_2_ASCII (6, BINBIT (OBJECT.LOAD_SIZE, 36)) ;
      512     9604    3      ELSE CALL INSERT (MSG, R_START, 6, OBJECT.BCD.MODEL); /* ~MODEL */
      513     9605    3      RETURN ;
      514     9606
      515     9607    3   END SUB_FOR_LETTER_M ;
      516     9608        %EJECT ;
PL6.E3A0      #001=TOU$REPLACE File=TOU$REPLACE.:E05TSI                          WED 07/30/97 06:50 Page:24
      517     9609    2   SUB_FOR_LETTER_O: PROC ;
      518     9610
      519     9611        /* Code */
      520     9612
      521     9613           /* ~OBJ */
      522     9614    3      CALL INSERT (MSG, R_START, 80, OBJECT.BCD_) ;
      523     9615    3      RETURN ;
      524     9616
      525     9617    3   END SUB_FOR_LETTER_O ;
      526     9618        %EJECT ;
PL6.E3A0      #001=TOU$REPLACE File=TOU$REPLACE.:E05TSI                          WED 07/30/97 06:50 Page:25
      527     9619    2   SUB_FOR_LETTER_P: PROC ;
      528     9620
      529     9621        /* Code */
      530     9622
      531     9623    3      IF SUBSTR (MSG, R_START, 5) = '~PAGE'
      532     9624    3      THEN CALL BINARY_2_ASCII (6, DUP.CURRENT_PAGE#) ;
      533     9625    3      ELSE CALL INSERT (MSG, R_START, 80, BCD_B(CUR#)); /* ~PATCH */
      534     9626    3      RETURN ;
      535     9627
      536     9628    3   END SUB_FOR_LETTER_P ;
      537     9629        %EJECT ;
PL6.E3A0      #001=TOU$REPLACE File=TOU$REPLACE.:E05TSI                          WED 07/30/97 06:50 Page:26
      538     9630    2   SUB_FOR_LETTER_R: PROC ;
      539     9631
      540     9632    3      DCL 1 B_VERSION                SYMREF,
      541     9633    3            2 LGTH                     UBIN BYTE  UNAL,
      542     9634    3            2 TEXT                     CHAR (10) CALIGNED ;
      543     9635
      544     9636        /* Code */
      545     9637
      546     9638    3      IF SUBSTR (MSG, R_START, 3) = '~R '
      547     9639    3      THEN CALL INSERT (MSG, R_START, 2, ID.REV.LEVEL);
      548     9640    3      ELSE IF SUBSTR (MSG, R_START, 4) = '~RCW'
      549     9641    4         THEN DO CUR# = 0 TO 11;
      550     9642    4                 CALL INSERT (MSG, R_START + CUR#, 1, BCD_ASCII(RCW_OCTAL(CUR#)));
      551     9643    4              END /* THEN DO */ ;
      552     9644    3         ELSE IF SUBSTR (MSG, R_START, 3) = '~RU'
      553     9645    3            THEN CALL INSERT (MSG, R_START, B_VERSION.LGTH, B_VERSION.TEXT) ;
      554     9646    3            ELSE IF SUBSTR (MSG, R_START, 6) = '~RLINK'
      555     9647    3               THEN CALL INSERT (MSG, R_START, 6, TOU$DEER.LINK_DATE.ASCII ) ;
      556     9648    3               ELSE CALL INSERT (MSG, R_START, 6, ID.REVISION) ; /* ~REVIS */
      557     9649    3      RETURN ;
      558     9650
      559     9651    3   END SUB_FOR_LETTER_R ;
      560     9652        %EJECT ;
PL6.E3A0      #001=TOU$REPLACE File=TOU$REPLACE.:E05TSI                          WED 07/30/97 06:50 Page:27
      561     9653    2   SUB_FOR_LETTER_S: PROC ;
      562     9654
      563     9655        /* Code */
      564     9656
      565     9657    3      IF SUBSTR (MSG, R_START, 3) = '~SE'
      566     9658    4      THEN DO SELECT (OBJECT.BCD.CLASS) ;
      567     9659    4              SELECT ('A') ;
      568     9660    4              CALL INSERT (MSG, R_START, 4, 'PACT');
      569     9661    4              SELECT ('C') ;
      570     9662    4              CALL INSERT (MSG, R_START, 4, 'COLT');
      571     9663    4              SELECT ('M') ;
      572     9664    4              CALL INSERT (MSG, R_START, 4, 'MOLT');
      573     9665    4              SELECT ('P') ;
      574     9666    4              CALL INSERT (MSG, R_START, 4, 'POLT');
      575     9667    4              SELECT ('S') ;
      576     9668    4              CALL INSERT (MSG, R_START, 4, 'SOLT');
      577     9669    4              SELECT ('U') ;
      578     9670    4              CALL INSERT (MSG, R_START, 4, 'UTIL') ;
      579     9671    4              SELECT ('H', 'F') ;
      580     9672    4              CALL INSERT (MSG, R_START, 4, 'MCA ') ;
      581     9673    4           END /* THEN SELECT */ ;
      582     9674    3      ELSE CALL INSERT (MSG, R_START, 40, SUBCATALOG_DATA.IFAD_FID) ; /* ~SI */
      583     9675    3      RETURN ;
      584     9676
      585     9677    3   END SUB_FOR_LETTER_S ;
      586     9678        %EJECT ;
PL6.E3A0      #001=TOU$REPLACE File=TOU$REPLACE.:E05TSI                          WED 07/30/97 06:50 Page:28
      587     9679    2   SUB_FOR_LETTER_T: PROC ;
      588     9680
      589     9681    3      DCL 1 CURRENT   STATIC,
      590     9682    3            2 TIME                   CHAR (11) CALIGNED ;
      591     9683           %FPT_TIME (FPTN = CURRENT_TIME,
      592     9684                      DEST = LOCAL,
      593     9685                      TIME = CURRENT.TIME) ;
      594     9704
      595     9705        /* Code */
      596     9706
      597     9707    3      IF SUBSTR (MSG, R_START, 4) = '~TYP'
      598     9708    3      THEN CALL INSERT (MSG, R_START, 4, OBJECT.BCD.LOAD_TYPE) ;
      599     9709    3      ELSE IF SUBSTR (MSG, R_START, 4) = '~TCT'
      600     9710    3         THEN CALL BINARY_2_ASCII (6, BINBIT (OBJECT.TOTAL_COUNT, 36)) ;
      601     9711    4         ELSE DO ; /* ~TIME */
      602     9712    4                 CALL M$TIME (CURRENT_TIME) ;
      603     9713    4                 CALL INSERT (MSG, R_START, 5, CURRENT.TIME) ;
      604     9714    4              END /* ELSE */ ;
      605     9715    3      RETURN ;
      606     9716
      607     9717    3   END SUB_FOR_LETTER_T ;
      608     9718        %EJECT ;
PL6.E3A0      #001=TOU$REPLACE File=TOU$REPLACE.:E05TSI                          WED 07/30/97 06:50 Page:29
      609     9719    2   SUB_FOR_LETTER_W: PROC ;
      610     9720
      611     9721        /* Code */
      612     9722
      613     9723    4      DO SELECT (SUBSTR (MSG, R_START, 4)) ;
      614     9724    4         SELECT ('~WD1') ;
      615     9725    4         CALL BINARY_2_ASCII (6, BLOCK.OFFSET + 1);
      616     9726    4         SELECT ('~WIR') ;
      617     9727    4         CALL INSERT (MSG, R_START, 6, REVISION_B.VERSION) ;
      618     9728    4         SELECT ('~WSN') ;
      619     9729    4         CALL INSERT (MSG, R_START, DUP.SITE_NAME.LGTH, DUP.SITE_NAME.TEXT) ;
      620     9730    4         SELECT ('~WSI') ;
      621     9731    4         CALL INSERT (MSG, R_START, 6, DUP.SITE_ID) ;
      622     9732    4      END /* SELECT */ ;
      623     9733    3      RETURN ;
      624     9734
      625     9735    3   END SUB_FOR_LETTER_W ;
      626     9736        %EJECT ;
PL6.E3A0      #001=TOU$REPLACE File=TOU$REPLACE.:E05TSI                          WED 07/30/97 06:50 Page:30
      627     9737    2   SUB_FOR_LETTER_X: PROC ;
      628     9738
      629     9739    3      DCL PTR$    PTR ALIGNED ;
      630     9740           %DISKETTE_HEADER (STCLASS = "BASED (PTR$)") ;
      631     9776
      632     9777        /* Code */
      633     9778
      634     9779    3      PTR$ = ADDR (MCA_B.DISKETTE_HEADER.DATA) ;
      635     9780    4      DO SELECT (SUBSTR (MSG, R_START, 4)) ;
      636     9781    4         SELECT ('~XTI') ;
      637     9782    4         CALL INSERT (MSG, R_START, 8, DISKETTE_HEADER.TITLE) ;
      638     9783    4         SELECT ('~XUI') ;
      639     9784    4         CALL INSERT (MSG, R_START, 8, DISKETTE_HEADER.UNIQUE_ID) ;
      640     9785    4         SELECT ('~XDS') ;
      641     9786    4         CALL MCA_2_ASCII (6, BINBIT (DISKETTE_HEADER.DIR_SIZE, 36)) ;
      642     9787    4         SELECT ('~XCN') ;
      643     9788    4         CALL INSERT (MSG, R_START, 8, DISKETTE_HEADER.CONFIG_NAME) ;
      644     9789    4         SELECT ('~XET') ;
      645     9790    4         CALL INSERT (MSG, R_START, 4, DISKETTE_HEADER.EQUIP_TYPE) ;
      646     9791    4         SELECT ('~XIN') ;
      647     9792    4         CALL INSERT (MSG, R_START, 12, DISKETTE_HEADER.IPI_NUM_) ;
      648     9793    4         SELECT ('~XDN') ;
      649     9794    4         CALL INSERT (MSG, R_START, 12, DISKETTE_HEADER.DISK_DWG_NUM) ;
      650     9795    4         SELECT ('~XPT') ;
      651     9796    4         CALL INSERT (MSG, R_START, 3, DISKETTE_HEADER.IPI_NUM.PRD_NUM_TAB) ;
      652     9797    4         SELECT ('~XXX') ;
      653     9798    4         CALL INSERT (MSG, R_START, 1, DISKETTE_HEADER.X_OF_N.X);
      654     9799    4         SELECT ('~XXN') ;
      655     9800    4         CALL INSERT (MSG, R_START, 1, DISKETTE_HEADER.X_OF_N.N) ;
      656     9801    4      END /* SELECT */ ;
      657     9802    3      RETURN ;
      658     9803
      659     9804    3   END SUB_FOR_LETTER_X ;
      660     9805        %EJECT ;
PL6.E3A0      #001=TOU$REPLACE File=TOU$REPLACE.:E05TSI                          WED 07/30/97 06:50 Page:31
      661     9806    2   SUB_FOR_LETTER_Y: PROC ;
      662     9807
      663     9808    3      DCL PTR$    PTR ALIGNED ;
      664     9809           %DIRECTORY_ENTRY (STCLASS = "BASED (PTR$)") ;
      665     9836
      666     9837        /* Code */
      667     9838
      668     9839    3      PTR$ = ADDR (MCA_B.DIRECTORY.CURRENT) ;
      669     9840    4      DO SELECT (SUBSTR (MSG, R_START, 4)) ;
      670     9841    4         SELECT ('~YPN') ;
      671     9842    4         CALL INSERT (MSG, R_START, 8, DIRECTORY_ENTRY.PATH_NAME) ;
      672     9843    4         SELECT ('~YFS') ;
      673     9844    4         CALL MCA_2_ASCII (6, BINBIT (DIRECTORY_ENTRY.FILE_SIZE, 36)) ;
      674     9845    4      END /* SELECT */ ;
      675     9846    3      RETURN ;
      676     9847
      677     9848    3   END SUB_FOR_LETTER_Y ;
      678     9849        %EJECT ;
PL6.E3A0      #001=TOU$REPLACE File=TOU$REPLACE.:E05TSI                          WED 07/30/97 06:50 Page:32
      679     9850    2   SUB_FOR_LETTER_Z: PROC ;
      680     9851
      681     9852    3      DCL PTR$    PTR ALIGNED ;
      682     9853           %DISKETTE_FILE (STCLASS = "BASED (PTR$)") ;
      683     9895
      684     9896        /* Code */
      685     9897
      686     9898    3      PTR$ = ADDR (MCA_B.FILE.DATA) ;
      687     9899    4      DO SELECT (SUBSTR (MSG, R_START, 4)) ;
      688     9900    4         SELECT ('~ZMT') ;
      689     9901    4         CALL INSERT (MSG, R_START, 4, DISKETTE_FILE.HDR.MODULE_TYPE) ;
      690     9902    4         SELECT ('~ZET') ;
      691     9903    4         CALL INSERT (MSG, R_START, 4, DISKETTE_FILE.HDR.EQUIP_TYPE) ;
      692     9904    4         SELECT ('~ZUN') ;
      693     9905    4         CALL INSERT (MSG, R_START, 8, DISKETTE_FILE.HDR.UNIQUE_NAME) ;
      694     9906    4         SELECT ('~ZDN') ;
      695     9907    4         CALL INSERT (MSG, R_START, 12, DISKETTE_FILE.HDR.MOD_DWG_NUM) ;
      696     9908    4         SELECT ('~ZTD') ;
      697     9909    4         CALL INSERT (MSG, R_START, 6, DISKETTE_FILE.HDR.TTL_DATE) ;
      698     9910    4         SELECT ('~ZPR') ;
      699     9911    4         CALL INSERT (MSG, R_START, 4, DISKETTE_FILE.HDR.PGM_REV) ;
      700     9912    4         SELECT ('~ZDT') ;
      701     9913    4         CALL BINARY_2_ASCII (4, BINBIT (DISKETTE_FILE.HDR.DISK_TAB, 36)) ;
      702     9914    4         SELECT ('~ZRT') ;
      703     9915    4         CALL BINARY_2_ASCII (4, BINBIT (DISKETTE_FILE.LD_CTL.REC_TYPE, 36)) ;
      704     9916    4      END /* SELECT */ ;
      705     9917    3      RETURN ;
      706     9918
      707     9919    3   END SUB_FOR_LETTER_Z ;
      708     9920    2   END SELECT_LETTER ;
      709     9921        %EJECT ;
PL6.E3A0      #001=TOU$REPLACE File=TOU$REPLACE.:E05TSI                          WED 07/30/97 06:50 Page:33
      710     9922    1   BINARY_2_ASCII: PROC (SIZE, BINARY) ;
      711     9923
      712     9924    2      DCL BINARY  UBIN WORD     ALIGNED;
      713     9925    2      DCL M       UBIN WORD     ALIGNED;
      714     9926    2      DCL SIZE    UBIN WORD     ALIGNED;
      715     9927    2      DCL STRING  CHAR (8)    ALIGNED;
      716     9928    2      DCL STRING_CHAR (0:7) REDEF STRING CHAR (1) UNAL;
      717     9929
      718     9930        /* Code */
      719     9931
      720     9932    2      CALL BINCHAR (STRING, BINARY) ;
      721     9933    2      M = 0;
      722     9934    3      DO WHILE (STRING_CHAR(M) = '0' & M < 7);
      723     9935    3         STRING_CHAR(M) = ' ';
      724     9936    3         M = M + 1;
      725     9937    3      END /* WHILE */ ;
      726     9938    2      CALL INSERT (MSG, R_START, SIZE, SUBSTR (STRING, 8 - SIZE)) ;
      727     9939    2      RETURN;
      728     9940
      729     9941    2   END BINARY_2_ASCII;
      730     9942        %EJECT ;
PL6.E3A0      #001=TOU$REPLACE File=TOU$REPLACE.:E05TSI                          WED 07/30/97 06:50 Page:34
      731     9943    1   MCA_2_ASCII: PROC (SIZE, BINARY) ;
      732     9944
      733     9945    2      DCL BINARY  UBIN WORD ALIGNED;
      734     9946    2      DCL TEMP_   UBIN WORD ALIGNED ;
      735     9947    2      DCL 1 TEMP REDEF TEMP_ ALIGNED,
      736     9948    2            2 *   UBIN (18) UNAL,
      737     9949    2            2 U   UBIN (10) UNAL,
      738     9950    2            2 L   UBIN (8)  UNAL ;
      739     9951    2      DCL M       UBIN WORD ALIGNED;
      740     9952    2      DCL SIZE    UBIN WORD ALIGNED;
      741     9953    2      DCL STRING  CHAR (8)  ALIGNED;
      742     9954    2      DCL STRING_CHAR (0:7) REDEF STRING CHAR (1) CALIGNED ;
      743     9955
      744     9956        /* Code */
      745     9957
      746     9958    2      TEMP_ = BINARY ;
      747     9959    2      TEMP.U = TEMP.U / 2 ;
      748     9960    2      CALL BINCHAR (STRING, TEMP_) ;
      749     9961    2      M = 0;
      750     9962    3      DO WHILE (STRING_CHAR(M) = '0' & M < 7);
      751     9963    3         STRING_CHAR(M) = ' ';
      752     9964    3         M = M + 1;
      753     9965    3      END /* WHILE */ ;
      754     9966    2      CALL INSERT (MSG, R_START, SIZE, SUBSTR (STRING, 8 - SIZE)) ;
      755     9967    2      RETURN;
      756     9968
      757     9969    2   END MCA_2_ASCII;
      758     9970    1   END TOU$REPLACE;

PL6.E3A0      #001=TOU$REPLACE File=TOU$REPLACE.:E05TSI                          WED 07/30/97 06:50 Page:35
--  Include file information  --

   TOU_DEER_M.:E05TOU  is referenced.
   CP_6_SUBS.:E05TOU  is referenced.
   CP_6_C.:E05TOU  is referenced.
   CP_6.:E05TOU  cannot be made into a system file and is referenced.
   B_ERRORS_C.:E05TOU  is referenced.
      No diagnostics issued in procedure TOU$REPLACE.

   Procedure TOU$REPLACE requires 1484 words for executable code.
   Procedure TOU$REPLACE requires 54 words of local(AUTO) storage.

    No errors detected in file TOU$REPLACE.:E05TSI    .

PL6.E3A0      #001=TOU$REPLACE File=TOU$REPLACE.:E05TSI                          WED 07/30/97 06:50 Page:36

 Object Unit name= TOU$REPLACE                                File name= TOU$REPLACE.:E05TOU
 UTS= JUL 30 '97 06:50:53.64 WED                              Compiler= PL-6/E31         Sev=      00
 SharedLib= :SHARED_SYSTEM                                    Alt SharedLib=


    ****  Control sections  ****

 Sect   Type Bound  Init  Size OctSiz  Section name(segment info)
    0   DCB   even  none     0      0  M$UC
    1   Data  even  none    34     42  TOU$REPLACE
    2  RoData even  UTS    108    154  TOU$REPLACE
    3   Proc  even  none  1484   2714  TOU$REPLACE
    4  RoData even  none    32     40  TOU$REPLACE

    ****  Entry defs  ****

                              Check   Calling
                             calling  sequence
  Sect OctLoc Primary Altret sequence   type   Parms  Name
     3      0   yes            yes      Std        2  TOU$REPLACE

  ****  Entry refs  ****

         Check        Calling
        calling       sequence
Altret sequence SRef   type   Args  Name
                       nStd      0 X66_AUTO_2
                       nStd      0 X66_ARET
                       Std       0 B_CONSPOOL_D
PL6.E3A0      #001=TOU$REPLACE File=TOU$REPLACE.:E05TSI                          WED 07/30/97 06:50 Page:37

  ****  Data refs  ****

  Flags:  r = read only, s = secondary
Flgs Name                             Flgs Name                             Flgs Name
     M$UC                                  DUP                                   CATALOG_DATA
     CATALOG_ENTRY_KEY                     CATALOG_KEY                           DKEND
     MASTER_ENTRY_KEY                      OBJECT                                OBJECT_KEY
     SUBCATALOG_DATA                       REVISION_B                            TOU$DEER
     BCD_ASCII_TABLE                       BLOCK                                 BLOCK_SEQ
     FILE_FILE                             ID                                    IFAD_ARS#
     CUR#                                  LOG#                                  RCW
     B_VERSION                             B_VECTNIL

  ****  Segment refs  ****

  Flags:  r = read only, s = secondary
Flgs Name                             Flgs Name                             Flgs Name
     ISSID                                 NULLSID
PL6.E3A0      #001=TOU$REPLACE File=TOU$REPLACE.:E05TSI                          WED 07/30/97 06:50 Page:38


        1        1        /*M* TOU$REPLACE     DEckfile Editor Routine String Replacement */
        2        2        /*T***********************************************************/
        3        3        /*T*                                                         */
        4        4        /*T* Copyright (c) Bull HN Information Systems Inc., 1997    */
        5        5        /*T*                                                         */
        6        6        /*T***********************************************************/
        7        7
        8        8        /*X* PLM=3,DCI=6,SQB=N,PRB=N,DTI=5,ENI=0,AND=Y,ECI=0,CSU=3,DIN=3,
        9        9             CTI=8,CRM=109,CRT=1,NLB=N,NTB=Y,MCL=110 */
       10       10
       11       11        /*P*  NAME:        TOU$REPLACE
       12       12              AUTHORS:     D. Augustine
       13       13                           S. Sheppard
       14       14              PURPOSE:     DEckfile Editor Routine String Replacement
       15       15              DESCRIPTION: Error messages and general information messages are
       16       16                           fetched from the msg data base as string constants.
       17       17                           However, many of  these  messages  contain variable
       18       18                           fields whose values must be plugged in before being
       19       19                           printed. Such fields are stored in the original msg
       20       20                           as ~strings. This procedure accepts a message which
       21       21                           contains ~strings and  replaces the  ~strings  with
       22       22                           the correct values.
       23       23              REFERENCE:   CP-6 Release C0L0
       24       24              LAST UPDATE: 09/29/83
       25       25        */
       26       26        %EJECT ;
PL6.E3A0      #001=TOU$REPLACE File=TOU$REPLACE.:E05TSI                          WED 07/30/97 06:50 Page:39
       27       27        /*F*  NAME:        TOU$REPLACE
       28       28              DESCRIPTION: Procedure Nesting Hierarchy
       29       29
       30       30              TOU$REPLACE: procedure (MSG, MSG_LGTH)
       31       31                 SELECT_LETTER: procedure
       32       32                    SUB_FOR_LETTER_A: procedure
       33       33                    SUB_FOR_LETTER_B: procedure
       34       34                    SUB_FOR_LETTER_C: procedure
       35       35                    SUB_FOR_LETTER_D: procedure
       36       36                    SUB_FOR_LETTER_E: procedure
       37       37                    SUB_FOR_LETTER_F: procedure
       38       38                    SUB_FOR_LETTER_G: procedure
       39       39                    SUB_FOR_LETTER_H: procedure
       40       40                    SUB_FOR_LETTER_I: procedure
       41       41                    SUB_FOR_LETTER_J: procedure
       42       42                    SUB_FOR_LETTER_L: procedure
       43       43                    SUB_FOR_LETTER_M: procedure
       44       44                    SUB_FOR_LETTER_O: procedure
       45       45                    SUB_FOR_LETTER_P: procedure
       46       46                    SUB_FOR_LETTER_R: procedure
       47       47                    SUB_FOR_LETTER_S: procedure
       48       48                    SUB_FOR_LETTER_T: procedure
       49       49                    SUB_FOR_LETTER_W: procedure
       50       50                    SUB_FOR_LETTER_X: procedure
       51       51                    SUB_FOR_LETTER_Y: procedure
       52       52                    SUB_FOR_LETTER_Z: procedure
       53       53                 BINARY_2_ASCII: procedure (SIZE, BINARY)
       54       54                 MCA_2_ASCII: procedure (SIZE, BINARY)
       55       55        */
       56       56        %EJECT ;
PL6.E3A0      #001=TOU$REPLACE File=TOU$REPLACE.:E05TSI                          WED 07/30/97 06:50 Page:40
       57       57        /*F*  NAME:        TOU$REPLACE
       58       58              AUTHORS:     D. Augustine
       59       59                           S. Sheppard
       60       60              SUMMARY:     Replacement Strings
       61       61
       62       62              --------   ------------  -------------------
       63       63              Original   Replace Size  Variable Referenced
       64       64              --------   ------------  -------------------
       65       65              ~A             3         'BOS' 'GMAP' 'Level6' 'MPC'
       66       66                                       (CASE OBJECT.BCD.ASSEMBLER)
       67       67              ~ARS           6         IFAD_ARS#-1
       68       68              ~BLK           6         BLOCK.BSN
       69       69              ~BLS           4         BLOCK_SEQ
       70       70              ~BCZ           6         BLOCK.BCW.SIZE
       71       71              ~BSZ           6         BLOCK.CONTROL
       72       72              ~BCT           6         OBJECT.BINARY_COUNT
       73       73              ~CAT          23         CATALOG_KEY.DATA
       74       74              ~CD            6         CATALOG_DATA.DECK#
       75       75              ~CLAS          5         'ITR' 'FW' 'MDR'
       76       76                                       (case OBJECT.BCD.CLASS)
       77       77              ~CLS           4         OBJECT.BCD.CLASS
       78       78              ~COL           4         CUR#+1
       79       79              ~CUR           4         CUR#
       80       80              ~DATE          6         OBJECT.BCD.DATE
       81       81              ~DECK          6         OBJECT.DECK#
       82       82              ~DF_FID        40        DUP.DF.FID
       83       83              ~EC            6         CATALOG_DATA.ENTRY_COUNT
       84       84              ~EM            6         MASTER_ENTRY_KEY.ENTRY#
       85       85              ~EN            6         CATALOG_ENTRY_KEY.ENTRY#
       86       86              ~ENT          23         OBJECT_KEY.DATA
       87       87              ~FN            3         FILE_FILE
       88       88              ~FM            3         FILE_FILE - 1
       89       89              ~F2            3         SUBCATALOG_DATA.IFAD_FN
       90       90              ~GECAL         6         OBJECT.BCD.GECALL
       91       91              ~HLGDATE        8        LOG_B.ACCESSES.DATE(LOG#)
       92       92              ~HLGTIME       11        LOG_B.ACCESSES.TIME(LOG#)
       93       93              ~HLGCATALOG    21        LOG_B.ACCESSES.CATALOG(LOG#)
PL6.E3A0      #001=TOU$REPLACE File=TOU$REPLACE.:E05TSI                          WED 07/30/97 06:50 Page:41
       94       94              ~HLGDECK       23        LOG_B.ACCESSES.DECK(LOG#)
       95       95              ~HLGIFAD       40        LOG_B.ACCESSES.IFAD(LOG#)
       96       96              ~ID            6         ID.ID
       97       97              ~IMX           4         DUP.IFAD.IMU_NUMBER
       98       98              ~J             2         DUP.IFAD.DRIVE_NUMBER
       99       99              ~IMAGE       6-80        DUP.ERROR_IMAGE
      100      100              ~IMBLK        80         DUP.ERROR_IMAGE
      101      101              ~IFAD_FID      40        DUP.IFAD.FID
      102      102              ~LBL           4         OBJECT.BCD.LBL
      103      103              ~LIB           6         OBJECT.BCD.LIBRARY
      104      104              ~LOAD          5         'RELOC' 'PROG' 'DATA'
      105      105                                       (case OBJECT.BCD.LOAD_TYPE)
      106      106              ~LTIME        11         CURRENT.TIME (long time)
      107      107              ~LDATE         8         CURRENT.DATE
      108      108              ~MSZ           6         OBJECT.LOAD_SIZE
      109      109              ~MODEL         6         OBJECT.BCD.MODEL
      110      110              ~OBJ          110        OBJECT.BCD_
      111      111              ~PAGE          5         DUP.CURRENT_PAGE#
      112      112              ~PATCH        80         BCD_B(CUR#)
      113      113              ~R             2         ID.REV.LEVEL
      114      114              ~REVIS         2         ID.REVISION
      115      115              ~RCW          12         BCD_ASCII(RCW_OCTAL(CUR#))
      116      116              ~RU           10         B_VERSION
      117      117              ~RLINK         6         TOU$DEER.LINK_DATE.ASCII
      118      118              ~SE            4         'PACT' 'COLT' 'MOLT' 'SOLT' 'POLT'
      119      119                                       (case OBJECT.BCD.CLASS)
      120      120              ~SI            40        SUBCATALOG_DATA.IFAD_FID
      121      121              ~TYP           4         OBJECT.BCD.LOAD_TYPE
      122      122              ~TIME          5         CURRENT.TIME (time)
      123      123              ~TCT           6         OBJECT.TOTAL_COUNT
      124      124              ~WD1           6         BLOCK_OFFSET+1
      125      125              ~WSN           94        CUSTOMER.SITE_NAME#.C
      126      126              ~WSI           6         CUSTOMER.SITE_ID#
      127      127              ~WIR           6         REVISION_B.VERSION
      128      128              ~XTI            8        DISKETTE_HEADER.TITLE
      129      129              ~XUI            8        DISKETTE_HEADER.UNIQUE_ID
      130      130              ~XDS            6        DISKETTE_HEADER.DIR_SIZE
PL6.E3A0      #001=TOU$REPLACE File=TOU$REPLACE.:E05TSI                          WED 07/30/97 06:50 Page:42
      131      131              ~XCN            8        DISKETTE_HEADER.CONFIG_NAME
      132      132              ~XET            4        DISKETTE_HEADER.EQUIP_TYPE
      133      133              ~XIN           12        DISKETTE_HEADER.IPI_NUM
      134      134              ~XDN           12        DISKETTE_HEADER.DISK_DWG_NUM
      135      135              ~XPT            3        DISKETTE_HEADER.IPI_NUM.PRD_NUM_TAB
      136      136              ~XXX            1        DISKETTE_HEADER.X_OF_N.X
      137      137              ~XXN            1        DISKETTE_HEADER.X_OF_N.N
      138      138              ~YPN            8        DIRECTORY_ENTRY.PATH_NAME
      139      139              ~YFS            6        DIRECTORY_ENTRY.FILE_SIZE
      140      140              ~ZMT            4        DISKETTE_FILE.MODULE_TYPE
      141      141              ~ZET            4        DISKETTE_FILE.EQUIP_TYPE
      142      142              ~ZUN            8        DISKETTE_FILE.UNIQUE_NAME
      143      143              ~ZDN           12        DISKETTE_FILE.MOD_DWG_NUM
      144      144              ~ZTD            6        DISKETTE_FILE.TTL_DATE
      145      145              ~ZPR            4        DISKETTE_FILE.PGM_REV
      146      146              ~ZDT            4        DISKETTE_FILE.DISK_TAB
      147      147              ~ZRT            4        DISKETTE_FILE.LD_CTL.REC_TYPE
      148      148              --------   ------------  -------------------
      149      149
      150      150        */
      151      151        %EJECT ;
PL6.E3A0      #001=TOU$REPLACE File=TOU$REPLACE.:E05TSI                          WED 07/30/97 06:50 Page:43
      152      152        TOU$REPLACE: PROC (MSG, MSG_LGTH) ;

    152  3 000000   000000 700200 xent  TOU$REPLACE  TSX0  ! X66_AUTO_2
         3 000001   000066 000002                    ZERO    54,2

      153      153
      154      154        /* Include Files */
      155      155
      156      156           %INCLUDE B_ERRORS_C;
      157     1283           %INCLUDE CP_6;
      158     6842           %INCLUDE CP_6_SUBS;
      159     7382           %INCLUDE TOU_DEER_M ;
      160     8793
      161     8794        /* Parameters */
      162     8795
      163     8796    1      DCL MSG                        CHAR (MSG_LGTH) CALIGNED ;
      164     8797    1      DCL MSG_LGTH                   UBIN WORD ALIGNED ;
      165     8798
      166     8799        /* Macros */
      167     8800
      168     8801           %DUP (STCLASS = SYMREF) ;
      169     8944           %CATALOG_DATA (STCLASS = SYMREF) ;
      170     8958           %CATALOG_ENTRY_KEY (STCLASS = SYMREF) ;
      171     8972           %CATALOG_KEY (STCLASS = SYMREF) ;
      172     8986           %DKEND (STCLASS = SYMREF) ;
      173     9010           %LOG_B (STCLASS = "BASED (DUP.LOG_V.PTR$)") ;
      174     9036           %MASTER_ENTRY_KEY (STCLASS = SYMREF) ;
      175     9050           %MCA_B (STCLASS = "BASED (DUP.BINARY_V.PTR$)") ;
      176     9120           %OBJECT (STCLASS = SYMREF) ;
      177     9183           %OBJECT_KEY (STCLASS = SYMREF) ;
      178     9196           %BCD_B (STCLASS = "BASED (DUP.BCD_V.PTR$)") ;
      179     9208           %SUBCATALOG_DATA (STCLASS = SYMREF) ;
      180     9221           %REVISION_B (STCLASS = SYMREF) ;
      181     9242           %TOU$DEER (STCLASS = SYMREF) ;
      182     9256           %EJECT ;
PL6.E3A0      #001=TOU$REPLACE File=TOU$REPLACE.:E05TSI                          WED 07/30/97 06:50 Page:44
      183     9257        /* Variables */
      184     9258
      185     9259    1      DCL BCD_ASCII_TABLE CHAR (64) CALIGNED SYMREF;
      186     9260    1      DCL BCD_ASCII (0:63) REDEF BCD_ASCII_TABLE CHAR (1) CALIGNED ;
      187     9261
      188     9262    1      DCL 1 BLOCK        SYMREF,
      189     9263    1            2 CONTROL        UBIN WORD ALIGNED,
      190     9264    1            2 OFFSET         UBIN WORD ALIGNED,
      191     9265    1            2 BSN            UBIN WORD ALIGNED,
      192     9266    1            2 BCW,
      193     9267    1              3 BSN          UBIN HALF UNAL,
      194     9268    1              3 SIZE         UBIN HALF UNAL,
      195     9269    1            2 DATA,
      196     9270    1              3 RCW,
      197     9271    1                4 SIZE       UBIN HALF UNAL,
      198     9272    1                4 FILE_MARK  BIT  (6)  UNAL,
      199     9273    1                4 *          UBIN (12) UNAL,
      200     9274    1              3 DATA (0:317) UBIN WORD ALIGNED;
      201     9275
      202     9276    1      DCL BLOCK_SEQ CHAR (4) SYMREF ALIGNED;
      203     9277
      204     9278    1      DCL FILE_FILE UBIN WORD SYMREF ALIGNED;
      205     9279
      206     9280    1      DCL 1 ID SYMREF CALIGNED,
      207     9281    1            2 ID      CHAR (6) UNAL,
      208     9282    1            2 REVISION CHAR (6) UNAL,
      209     9283    1            2 REV REDEF REVISION UNAL,
      210     9284    1              3 *     CHAR (4) UNAL,
      211     9285    1              3 LEVEL CHAR (2) UNAL,
      212     9286    1            2 USAGE   CHAR (6) UNAL;
      213     9287           %EJECT ;
PL6.E3A0      #001=TOU$REPLACE File=TOU$REPLACE.:E05TSI                          WED 07/30/97 06:50 Page:45
      214     9288    1      DCL IFAD_ARS# UBIN WORD SYMREF ALIGNED ;
      215     9289
      216     9290    1      DCL CUR#   UBIN WORD SYMREF ALIGNED;
      217     9291    1      DCL LOG#   UBIN WORD SYMREF ALIGNED;
      218     9292
      219     9293    1      DCL 1 RCW SYMREF ALIGNED,
      220     9294    1            2 SIZE        UBIN HALF UNAL,
      221     9295    1            2 FILE_MARK   BIT  (6)  UNAL,
      222     9296    1            2 MEDIA_CODE  UBIN (6) UNAL,
      223     9297    1            2 REPORT_CODE UBIN (6) UNAL;
      224     9298    1      DCL RCW_OCTAL (0:11) REDEF RCW UBIN (3) UNAL;
      225     9299    1      DCL R_START UBIN WORD ALIGNED;
      226     9300           %EJECT;
PL6.E3A0      #001=TOU$REPLACE File=TOU$REPLACE.:E05TSI                          WED 07/30/97 06:50 Page:46
      227     9301        /* ********************
      228     9302           ********************
      229     9303           **  Main Program  **
      230     9304           ********************
      231     9305           ******************** */
      232     9306
      233     9307    1      CALL INDEX (R_START, '~', MSG, 0) ;

   9307  3 000002   200004 470500                    LDP0    @MSG_LGTH,,AUTO
         3 000003   000000 720100                    LXL0    0,,PR0
         3 000004   200003 471500                    LDP1    @MSG,,AUTO
         3 000005   000000 124540                    SCM     mask='000'O
         3 000006   100000 000010                    ADSC9   0,,PR1                   cn=0,n=*X0
         3 000007   000000 000001 4                  ADSC9   0                        cn=0,n=1
         3 000010   200005 000100                    ARG     R_START,,AUTO

      234     9308    2      DO WHILE (R_START < MSG_LGTH);

   9308  3 000011   200005 236100                    LDQ     R_START,,AUTO
         3 000012   000000 116100                    CMPQ    0,,PR0
         3 000013   000040 603000 3                  TRC     s:9312

      235     9309    2         CALL SELECT_LETTER ;

   9309  3 000014   000041 701000 3                  TSX1    SELECT_LETTER
         3 000015   000000 011000                    NOP     0

      236     9310    2         CALL INDEX (R_START, '~', MSG, R_START+1) ;

   9310  3 000016   200004 470500                    LDP0    @MSG_LGTH,,AUTO
         3 000017   000000 720100                    LXL0    0,,PR0
         3 000020   000000 636010                    EAQ     0,X0
         3 000021   000022 772000                    QRL     18
         3 000022   200005 136100                    SBLQ    R_START,,AUTO
         3 000023   777777 621006                    EAX1    -1,QL
         3 000024   200005 236100                    LDQ     R_START,,AUTO
         3 000025   000001 036007                    ADLQ    1,DL
PL6.E3A0      #001=TOU$REPLACE File=TOU$REPLACE.:E05TSI                          WED 07/30/97 06:50 Page:47
         3 000026   200003 471500                    LDP1    @MSG,,AUTO
         3 000027   200005 235100                    LDA     R_START,,AUTO
         3 000030   000000 124545                    SCM     mask='000'O
         3 000031   100000 200011                    ADSC9   0,A,PR1                  cn=1,n=*X1
         3 000032   000000 000001 4                  ADSC9   0                        cn=0,n=1
         3 000033   200005 000100                    ARG     R_START,,AUTO
         3 000034   200005 056100                    ASQ     R_START,,AUTO

      237     9311    2      END /* WHILE */ ;

   9311  3 000035   200005 236100                    LDQ     R_START,,AUTO
         3 000036   000000 116100                    CMPQ    0,,PR0
         3 000037   000014 602000 3                  TNC     s:9309

      238     9312    1      RETURN;

   9312  3 000040   000000 702200 xent               TSX2  ! X66_ARET

      239     9313
      240     9314        /* ********************
      241     9315           ********************
      242     9316           **  End Of  Main  **
      243     9317           ********************
      244     9318           ******************** */
      245     9319        %EJECT ;
PL6.E3A0      #001=TOU$REPLACE File=TOU$REPLACE.:E05TSI                          WED 07/30/97 06:50 Page:48
      246     9320    1   SELECT_LETTER: PROC ;

   9320  3 000041   200006 741300       SELECT_LETT* STX1  ! R_START+1,,AUTO

      247     9321
      248     9322        /* Code */
      249     9323
      250     9324    3      DO SELECT (SUBSTR (MSG, R_START + 1, 1)) ;

   9324  3 000042   200004 470500                    LDP0    @MSG_LGTH,,AUTO
         3 000043   000000 720100                    LXL0    0,,PR0
         3 000044   200003 471500                    LDP1    @MSG,,AUTO
         3 000045   200005 235100                    LDA     R_START,,AUTO
         3 000046   040000 106505                    CMPC    fill='040'O
         3 000047   100000 200001                    ADSC9   0,A,PR1                  cn=1,n=1
         3 000050   000001 000001 4                  ADSC9   1                        cn=0,n=1
         3 000051   000154 602000 3                  TNC     s:9324+74
         3 000052   000247 600000 3                  TZE     s:9340
         3 000053   040000 106505                    CMPC    fill='040'O
         3 000054   100000 200001                    ADSC9   0,A,PR1                  cn=1,n=1
         3 000055   000002 000001 4                  ADSC9   2                        cn=0,n=1
         3 000056   000111 602000 3                  TNC     s:9324+39
         3 000057   000277 600000 3                  TZE     s:9357
         3 000060   040000 106505                    CMPC    fill='040'O
         3 000061   100000 200001                    ADSC9   0,A,PR1                  cn=1,n=1
         3 000062   000003 000001 4                  ADSC9   3                        cn=0,n=1
         3 000063   000104 602000 3                  TNC     s:9324+34
         3 000064   000305 600000 3                  TZE     s:9361
         3 000065   040000 106505                    CMPC    fill='040'O
         3 000066   100000 200001                    ADSC9   0,A,PR1                  cn=1,n=1
         3 000067   000004 000001 4                  ADSC9   4                        cn=0,n=1
         3 000070   000077 602000 3                  TNC     s:9324+29
         3 000071   000313 600000 3                  TZE     s:9365
         3 000072   040000 106505                    CMPC    fill='040'O
         3 000073   100000 200001                    ADSC9   0,A,PR1                  cn=1,n=1
         3 000074   000005 000001 4                  ADSC9   5                        cn=0,n=1
         3 000075   000320 601000 3                  TNZ     s:9369
PL6.E3A0      #001=TOU$REPLACE File=TOU$REPLACE.:E05TSI                          WED 07/30/97 06:50 Page:49
         3 000076   000316 710000 3                  TRA     s:9367
         3 000077   040000 106505                    CMPC    fill='040'O
         3 000100   100000 200001                    ADSC9   0,A,PR1                  cn=1,n=1
         3 000101   000006 000001 4                  ADSC9   6                        cn=0,n=1
         3 000102   000320 601000 3                  TNZ     s:9369
         3 000103   000310 710000 3                  TRA     s:9363
         3 000104   040000 106505                    CMPC    fill='040'O
         3 000105   100000 200001                    ADSC9   0,A,PR1                  cn=1,n=1
         3 000106   000007 000001 4                  ADSC9   7                        cn=0,n=1
         3 000107   000320 601000 3                  TNZ     s:9369
         3 000110   000302 710000 3                  TRA     s:9359
         3 000111   040000 106505                    CMPC    fill='040'O
         3 000112   100000 200001                    ADSC9   0,A,PR1                  cn=1,n=1
         3 000113   000010 000001 4                  ADSC9   8                        cn=0,n=1
         3 000114   000135 602000 3                  TNC     s:9324+59
         3 000115   000263 600000 3                  TZE     s:9348
         3 000116   040000 106505                    CMPC    fill='040'O
         3 000117   100000 200001                    ADSC9   0,A,PR1                  cn=1,n=1
         3 000120   000011 000001 4                  ADSC9   9                        cn=0,n=1
         3 000121   000130 602000 3                  TNC     s:9324+54
         3 000122   000271 600000 3                  TZE     s:9353
         3 000123   040000 106505                    CMPC    fill='040'O
         3 000124   100000 200001                    ADSC9   0,A,PR1                  cn=1,n=1
         3 000125   000012 000001 4                  ADSC9   10                       cn=0,n=1
         3 000126   000320 601000 3                  TNZ     s:9369
         3 000127   000274 710000 3                  TRA     s:9355
         3 000130   040000 106505                    CMPC    fill='040'O
         3 000131   100000 200001                    ADSC9   0,A,PR1                  cn=1,n=1
         3 000132   000013 000001 4                  ADSC9   11                       cn=0,n=1
         3 000133   000320 601000 3                  TNZ     s:9369
         3 000134   000266 710000 3                  TRA     s:9351
         3 000135   040000 106505                    CMPC    fill='040'O
         3 000136   100000 200001                    ADSC9   0,A,PR1                  cn=1,n=1
         3 000137   000014 000001 4                  ADSC9   12                       cn=0,n=1
         3 000140   000147 602000 3                  TNC     s:9324+69
         3 000141   000255 600000 3                  TZE     s:9344
         3 000142   040000 106505                    CMPC    fill='040'O
PL6.E3A0      #001=TOU$REPLACE File=TOU$REPLACE.:E05TSI                          WED 07/30/97 06:50 Page:50
         3 000143   100000 200001                    ADSC9   0,A,PR1                  cn=1,n=1
         3 000144   000015 000001 4                  ADSC9   13                       cn=0,n=1
         3 000145   000320 601000 3                  TNZ     s:9369
         3 000146   000260 710000 3                  TRA     s:9346
         3 000147   040000 106505                    CMPC    fill='040'O
         3 000150   100000 200001                    ADSC9   0,A,PR1                  cn=1,n=1
         3 000151   000016 000001 4                  ADSC9   14                       cn=0,n=1
         3 000152   000320 601000 3                  TNZ     s:9369
         3 000153   000252 710000 3                  TRA     s:9342
         3 000154   040000 106505                    CMPC    fill='040'O
         3 000155   100000 200001                    ADSC9   0,A,PR1                  cn=1,n=1
         3 000156   000017 000001 4                  ADSC9   15                       cn=0,n=1
         3 000157   000202 602000 3                  TNC     s:9324+96
         3 000160   000233 600000 3                  TZE     s:9332
         3 000161   040000 106505                    CMPC    fill='040'O
         3 000162   100000 200001                    ADSC9   0,A,PR1                  cn=1,n=1
         3 000163   000020 000001 4                  ADSC9   16                       cn=0,n=1
         3 000164   000173 602000 3                  TNC     s:9324+89
         3 000165   000241 600000 3                  TZE     s:9336
         3 000166   040000 106505                    CMPC    fill='040'O
         3 000167   100000 200001                    ADSC9   0,A,PR1                  cn=1,n=1
         3 000170   000021 000001 4                  ADSC9   17                       cn=0,n=1
         3 000171   000320 601000 3                  TNZ     s:9369
         3 000172   000244 710000 3                  TRA     s:9338
         3 000173   200003 470500                    LDP0    @MSG,,AUTO
         3 000174   200005 235100                    LDA     R_START,,AUTO
         3 000175   040000 106505                    CMPC    fill='040'O
         3 000176   000000 200001                    ADSC9   0,A,PR0                  cn=1,n=1
         3 000177   000022 000001 4                  ADSC9   18                       cn=0,n=1
         3 000200   000320 601000 3                  TNZ     s:9369
         3 000201   000236 710000 3                  TRA     s:9334
         3 000202   200003 470500                    LDP0    @MSG,,AUTO
         3 000203   040000 106505                    CMPC    fill='040'O
         3 000204   000000 200001                    ADSC9   0,A,PR0                  cn=1,n=1
         3 000205   000023 000001 4                  ADSC9   19                       cn=0,n=1
         3 000206   000215 602000 3                  TNC     s:9324+107
         3 000207   000225 600000 3                  TZE     s:9328
PL6.E3A0      #001=TOU$REPLACE File=TOU$REPLACE.:E05TSI                          WED 07/30/97 06:50 Page:51
         3 000210   040000 106505                    CMPC    fill='040'O
         3 000211   000000 200001                    ADSC9   0,A,PR0                  cn=1,n=1
         3 000212   000024 000001 4                  ADSC9   20                       cn=0,n=1
         3 000213   000320 601000 3                  TNZ     s:9369
         3 000214   000230 710000 3                  TRA     s:9330
         3 000215   040000 106505                    CMPC    fill='040'O
         3 000216   000000 200001                    ADSC9   0,A,PR0                  cn=1,n=1
         3 000217   000025 000001 4                  ADSC9   21                       cn=0,n=1
         3 000220   000320 601000 3                  TNZ     s:9369
         3 000221   000222 710000 3                  TRA     s:9326

      251     9325    3         SELECT ('A') ;

      252     9326    3         CALL SUB_FOR_LETTER_A ;

   9326  3 000222   000322 701000 3                  TSX1    SUB_FOR_LETTER_A
         3 000223   000000 011000                    NOP     0
         3 000224   000320 710000 3                  TRA     s:9369

      253     9327    3         SELECT ('B') ;

      254     9328    3         CALL SUB_FOR_LETTER_B ;

   9328  3 000225   000457 701000 3                  TSX1    SUB_FOR_LETTER_B
         3 000226   000000 011000                    NOP     0
         3 000227   000320 710000 3                  TRA     s:9369

      255     9329    3         SELECT ('C') ;

      256     9330    3         CALL SUB_FOR_LETTER_C ;

   9330  3 000230   000553 701000 3                  TSX1    SUB_FOR_LETTER_C
         3 000231   000000 011000                    NOP     0
         3 000232   000320 710000 3                  TRA     s:9369

      257     9331    3         SELECT ('D') ;

PL6.E3A0      #001=TOU$REPLACE File=TOU$REPLACE.:E05TSI                          WED 07/30/97 06:50 Page:52
      258     9332    3         CALL SUB_FOR_LETTER_D ;

   9332  3 000233   000740 701000 3                  TSX1    SUB_FOR_LETTER_D
         3 000234   000000 011000                    NOP     0
         3 000235   000320 710000 3                  TRA     s:9369

      259     9333    3         SELECT ('E') ;

      260     9334    3         CALL SUB_FOR_LETTER_E ;

   9334  3 000236   001000 701000 3                  TSX1    SUB_FOR_LETTER_E
         3 000237   000000 011000                    NOP     0
         3 000240   000320 710000 3                  TRA     s:9369

      261     9335    3         SELECT ('F') ;

      262     9336    3         CALL SUB_FOR_LETTER_F ;

   9336  3 000241   001070 701000 3                  TSX1    SUB_FOR_LETTER_F
         3 000242   000000 011000                    NOP     0
         3 000243   000320 710000 3                  TRA     s:9369

      263     9337    3         SELECT ('G') ;

      264     9338    3         CALL SUB_FOR_LETTER_G ;

   9338  3 000244   001142 701000 3                  TSX1    SUB_FOR_LETTER_G
         3 000245   000000 011000                    NOP     0
         3 000246   000320 710000 3                  TRA     s:9369

      265     9339    3         SELECT ('H') ;

      266     9340    3         CALL SUB_FOR_LETTER_H ;

   9340  3 000247   001154 701000 3                  TSX1    SUB_FOR_LETTER_H
         3 000250   000000 011000                    NOP     0
         3 000251   000320 710000 3                  TRA     s:9369
PL6.E3A0      #001=TOU$REPLACE File=TOU$REPLACE.:E05TSI                          WED 07/30/97 06:50 Page:53

      267     9341    3         SELECT ('I') ;

      268     9342    3         CALL SUB_FOR_LETTER_I ;

   9342  3 000252   001252 701000 3                  TSX1    SUB_FOR_LETTER_I
         3 000253   000000 011000                    NOP     0
         3 000254   000320 710000 3                  TRA     s:9369

      269     9343    3         SELECT ('J') ;

      270     9344    3         CALL SUB_FOR_LETTER_J ;

   9344  3 000255   001341 701000 3                  TSX1    SUB_FOR_LETTER_J
         3 000256   000000 011000                    NOP     0
         3 000257   000320 710000 3                  TRA     s:9369

      271     9345    3         SELECT ('L') ;

      272     9346    3         CALL SUB_FOR_LETTER_L ;

   9346  3 000260   001353 701000 3                  TSX1    SUB_FOR_LETTER_L
         3 000261   000000 011000                    NOP     0
         3 000262   000320 710000 3                  TRA     s:9369

      273     9347    3         SELECT ('M') ;

      274     9348    3         CALL SUB_FOR_LETTER_M ;

   9348  3 000263   001454 701000 3                  TSX1    SUB_FOR_LETTER_M
         3 000264   000000 011000                    NOP     0
         3 000265   000320 710000 3                  TRA     s:9369

      275     9349                 %EJECT ;
PL6.E3A0      #001=TOU$REPLACE File=TOU$REPLACE.:E05TSI                          WED 07/30/97 06:50 Page:54
      276     9350    3         SELECT ('O') ;

      277     9351    3         CALL SUB_FOR_LETTER_O ;

   9351  3 000266   001504 701000 3                  TSX1    SUB_FOR_LETTER_O
         3 000267   000000 011000                    NOP     0
         3 000270   000320 710000 3                  TRA     s:9369

      278     9352    3         SELECT ('P') ;

      279     9353    3         CALL SUB_FOR_LETTER_P ;

   9353  3 000271   001516 701000 3                  TSX1    SUB_FOR_LETTER_P
         3 000272   000000 011000                    NOP     0
         3 000273   000320 710000 3                  TRA     s:9369

      280     9354    3         SELECT ('R') ;

      281     9355    3         CALL SUB_FOR_LETTER_R ;

   9355  3 000274   001547 701000 3                  TSX1    SUB_FOR_LETTER_R
         3 000275   000000 011000                    NOP     0
         3 000276   000320 710000 3                  TRA     s:9369

      282     9356    3         SELECT ('S') ;

      283     9357    3         CALL SUB_FOR_LETTER_S ;

   9357  3 000277   001647 701000 3                  TSX1    SUB_FOR_LETTER_S
         3 000300   000000 011000                    NOP     0
         3 000301   000320 710000 3                  TRA     s:9369

      284     9358    3         SELECT ('T') ;

      285     9359    3         CALL SUB_FOR_LETTER_T ;

   9359  3 000302   002005 701000 3                  TSX1    SUB_FOR_LETTER_T
PL6.E3A0      #001=TOU$REPLACE File=TOU$REPLACE.:E05TSI                          WED 07/30/97 06:50 Page:55
         3 000303   000000 011000                    NOP     0
         3 000304   000320 710000 3                  TRA     s:9369

      286     9360    3         SELECT ('W') ;

      287     9361    3         CALL SUB_FOR_LETTER_W ;

   9361  3 000305   002054 701000 3                  TSX1    SUB_FOR_LETTER_W
         3 000306   000000 011000                    NOP     0
         3 000307   000320 710000 3                  TRA     s:9369

      288     9362    3         SELECT ('X') ;

      289     9363    3         CALL SUB_FOR_LETTER_X ;

   9363  3 000310   002140 701000 3                  TSX1    SUB_FOR_LETTER_X
         3 000311   000000 011000                    NOP     0
         3 000312   000320 710000 3                  TRA     s:9369

      290     9364    3         SELECT ('Y') ;

      291     9365    3         CALL SUB_FOR_LETTER_Y ;

   9365  3 000313   002325 701000 3                  TSX1    SUB_FOR_LETTER_Y
         3 000314   000000 011000                    NOP     0
         3 000315   000320 710000 3                  TRA     s:9369

      292     9366    3         SELECT ('Z') ;

      293     9367    3         CALL SUB_FOR_LETTER_Z ;

   9367  3 000316   002373 701000 3                  TSX1    SUB_FOR_LETTER_Z
         3 000317   000000 011000                    NOP     0

      294     9368    3      END /* SELECT */ ;

      295     9369    2      RETURN ;
PL6.E3A0      #001=TOU$REPLACE File=TOU$REPLACE.:E05TSI                          WED 07/30/97 06:50 Page:56

   9369  3 000320   200006 221300                    LDX1  ! R_START+1,,AUTO
         3 000321   000001 702211                    TSX2  ! 1,X1

      296     9370
      297     9371        /* END SELECT_LETTER */
      298     9372        %EJECT ;
PL6.E3A0      #001=TOU$REPLACE File=TOU$REPLACE.:E05TSI                          WED 07/30/97 06:50 Page:57
      299     9373    2   SUB_FOR_LETTER_A: PROC ;

   9373  3 000322   200010 741300       SUB_FOR_LET* STX1  ! R_START+3,,AUTO

      300     9374
      301     9375        /* Code */
      302     9376
      303     9377    3      IF SUBSTR (MSG, R_START, 3) = '~A '

   9377  3 000323   200004 470500                    LDP0    @MSG_LGTH,,AUTO
         3 000324   000000 720100                    LXL0    0,,PR0
         3 000325   200003 471500                    LDP1    @MSG,,AUTO
         3 000326   200005 235100                    LDA     R_START,,AUTO
         3 000327   040000 106505                    CMPC    fill='040'O
         3 000330   100000 000003                    ADSC9   0,A,PR1                  cn=0,n=3
         3 000331   000000 000003 2                  ADSC9   0                        cn=0,n=3
         3 000332   000444 601000 3                  TNZ     s:9392

      304     9378    4      THEN DO SELECT (OBJECT.BCD.ASSEMBLER) ;

   9378  3 000333   000016 236000 xsym               LDQ     OBJECT+14
         3 000334   000777 376007                    ANQ     511,DL
         3 000335   000107 116007                    CMPQ    71,DL
         3 000336   000376 602000 3                  TNC     s:9378+35
         3 000337   000016 236000 xsym               LDQ     OBJECT+14
         3 000340   000777 376007                    ANQ     511,DL
         3 000341   000107 116007                    CMPQ    71,DL
         3 000342   000420 600000 3                  TZE     s:9382
         3 000343   000016 236000 xsym               LDQ     OBJECT+14
         3 000344   000777 376007                    ANQ     511,DL
         3 000345   000115 116007                    CMPQ    77,DL
         3 000346   000371 602000 3                  TNC     s:9378+30
         3 000347   000016 236000 xsym               LDQ     OBJECT+14
         3 000350   000777 376007                    ANQ     511,DL
         3 000351   000115 116007                    CMPQ    77,DL
         3 000352   000430 600000 3                  TZE     s:9386
         3 000353   000016 236000 xsym               LDQ     OBJECT+14
PL6.E3A0      #001=TOU$REPLACE File=TOU$REPLACE.:E05TSI                          WED 07/30/97 06:50 Page:58
         3 000354   000777 376007                    ANQ     511,DL
         3 000355   000120 116007                    CMPQ    80,DL
         3 000356   000364 602000 3                  TNC     s:9378+25
         3 000357   000016 236000 xsym               LDQ     OBJECT+14
         3 000360   000777 376007                    ANQ     511,DL
         3 000361   000120 116007                    CMPQ    80,DL
         3 000362   000434 600000 3                  TZE     s:9388
         3 000363   000455 710000 3                  TRA     s:9393
         3 000364   000016 236000 xsym               LDQ     OBJECT+14
         3 000365   000777 376007                    ANQ     511,DL
         3 000366   000116 116007                    CMPQ    78,DL
         3 000367   000455 601000 3                  TNZ     s:9393
         3 000370   000440 710000 3                  TRA     s:9390
         3 000371   000016 236000 xsym               LDQ     OBJECT+14
         3 000372   000777 376007                    ANQ     511,DL
         3 000373   000114 116007                    CMPQ    76,DL
         3 000374   000455 601000 3                  TNZ     s:9393
         3 000375   000424 710000 3                  TRA     s:9384
         3 000376   000016 236000 xsym               LDQ     OBJECT+14
         3 000377   000777 376007                    ANQ     511,DL
         3 000400   000102 116007                    CMPQ    66,DL
         3 000401   000407 602000 3                  TNC     s:9378+44
         3 000402   000016 236000 xsym               LDQ     OBJECT+14
         3 000403   000777 376007                    ANQ     511,DL
         3 000404   000102 116007                    CMPQ    66,DL
         3 000405   000414 600000 3                  TZE     s:9380
         3 000406   000455 710000 3                  TRA     s:9393
         3 000407   000016 236000 xsym               LDQ     OBJECT+14
         3 000410   000777 376007                    ANQ     511,DL
         3 000411   000056 116007                    CMPQ    46,DL
         3 000412   000455 601000 3                  TNZ     s:9393
         3 000413   000434 710000 3                  TRA     s:9388

      305     9379    4              SELECT ('B') ;

      306     9380    4              CALL INSERT (MSG, R_START, 6, 'BOS') ;

PL6.E3A0      #001=TOU$REPLACE File=TOU$REPLACE.:E05TSI                          WED 07/30/97 06:50 Page:59
   9380  3 000414   040105 100400                    MLR     fill='040'O
         3 000415   000001 000003 2                  ADSC9   1                        cn=0,n=3
         3 000416   100000 000006                    ADSC9   0,A,PR1                  cn=0,n=6
         3 000417   000455 710000 3                  TRA     s:9393

      307     9381    4              SELECT ('G') ;

      308     9382    4              CALL INSERT (MSG, R_START, 6, 'GMAP') ;

   9382  3 000420   040105 100400                    MLR     fill='040'O
         3 000421   000002 000004 2                  ADSC9   2                        cn=0,n=4
         3 000422   100000 000006                    ADSC9   0,A,PR1                  cn=0,n=6
         3 000423   000455 710000 3                  TRA     s:9393

      309     9383    4              SELECT ('L') ;

      310     9384    4              CALL INSERT (MSG, R_START, 6, 'Level6') ;

   9384  3 000424   040105 100400                    MLR     fill='040'O
         3 000425   000003 000006 2                  ADSC9   3                        cn=0,n=6
         3 000426   100000 000006                    ADSC9   0,A,PR1                  cn=0,n=6
         3 000427   000455 710000 3                  TRA     s:9393

      311     9385    4              SELECT ('M') ;

      312     9386    4              CALL INSERT (MSG, R_START, 6, 'MPC') ;

   9386  3 000430   040105 100400                    MLR     fill='040'O
         3 000431   000005 000003 2                  ADSC9   5                        cn=0,n=3
         3 000432   100000 000006                    ADSC9   0,A,PR1                  cn=0,n=6
         3 000433   000455 710000 3                  TRA     s:9393

      313     9387    4              SELECT ('P', '.') ;

      314     9388    4              CALL INSERT (MSG, R_START, 6, 'PLM') ;

   9388  3 000434   040105 100400                    MLR     fill='040'O
PL6.E3A0      #001=TOU$REPLACE File=TOU$REPLACE.:E05TSI                          WED 07/30/97 06:50 Page:60
         3 000435   000006 000003 2                  ADSC9   6                        cn=0,n=3
         3 000436   100000 000006                    ADSC9   0,A,PR1                  cn=0,n=6
         3 000437   000455 710000 3                  TRA     s:9393

      315     9389    4              SELECT ('N') ;

      316     9390    4              CALL INSERT (MSG, R_START, 6, 'None') ;

   9390  3 000440   040105 100400                    MLR     fill='040'O
         3 000441   000007 000004 2                  ADSC9   7                        cn=0,n=4
         3 000442   100000 000006                    ADSC9   0,A,PR1                  cn=0,n=6

      317     9391    4           END /* THEN SELECT */ ;

   9391  3 000443   000455 710000 3                  TRA     s:9393

      318     9392    3      ELSE CALL BINARY_2_ASCII (6, IFAD_ARS# - 1); /* ~ARS */

   9392  3 000444   000000 236000 xsym               LDQ     IFAD_ARS#
         3 000445   000001 136007                    SBLQ    1,DL
         3 000446   200024 756100                    STQ     STRING+4,,AUTO
         3 000447   200024 633500                    EPPR3   STRING+4,,AUTO
         3 000450   200016 453500                    STP3    TEMP_+1,,AUTO
         3 000451   000026 236000 4                  LDQ     22
         3 000452   200015 756100                    STQ     @BINARY+1,,AUTO
         3 000453   002544 701000 3                  TSX1    BINARY_2_ASCII
         3 000454   000000 011000                    NOP     0

      319     9393    3      RETURN ;

   9393  3 000455   200010 221300                    LDX1  ! R_START+3,,AUTO
         3 000456   000001 702211                    TSX2  ! 1,X1

      320     9394
      321     9395    3   END SUB_FOR_LETTER_A ;
      322     9396        %EJECT ;
PL6.E3A0      #001=TOU$REPLACE File=TOU$REPLACE.:E05TSI                          WED 07/30/97 06:50 Page:61
      323     9397    2   SUB_FOR_LETTER_B: PROC ;

   9397  3 000457   200010 741300       SUB_FOR_LET* STX1  ! R_START+3,,AUTO

      324     9398
      325     9399        /* Code */
      326     9400
      327     9401    3      IF SUBSTR (MSG, R_START, 4) = '~BLK'

   9401  3 000460   200004 470500                    LDP0    @MSG_LGTH,,AUTO
         3 000461   000000 720100                    LXL0    0,,PR0
         3 000462   200003 471500                    LDP1    @MSG,,AUTO
         3 000463   200005 235100                    LDA     R_START,,AUTO
         3 000464   040000 106505                    CMPC    fill='040'O
         3 000465   100000 000004                    ADSC9   0,A,PR1                  cn=0,n=4
         3 000466   000010 000004 2                  ADSC9   8                        cn=0,n=4
         3 000467   000477 601000 3                  TNZ     s:9403

      328     9402    3      THEN CALL BINARY_2_ASCII (6, BLOCK.BSN);

   9402  3 000470   000027 236000 4                  LDQ     23
         3 000471   200016 756100                    STQ     TEMP_+1,,AUTO
         3 000472   000026 236000 4                  LDQ     22
         3 000473   200015 756100                    STQ     @BINARY+1,,AUTO
         3 000474   002544 701000 3                  TSX1    BINARY_2_ASCII
         3 000475   000000 011000                    NOP     0
         3 000476   000551 710000 3                  TRA     s:9410

      329     9403    3      ELSE IF SUBSTR (MSG, R_START, 4) = '~BLS'

   9403  3 000477   040000 106505                    CMPC    fill='040'O
         3 000500   100000 000004                    ADSC9   0,A,PR1                  cn=0,n=4
         3 000501   000011 000004 2                  ADSC9   9                        cn=0,n=4
         3 000502   000507 601000 3                  TNZ     s:9405

      330     9404    3         THEN CALL INSERT (MSG, R_START, 4, BLOCK_SEQ);

PL6.E3A0      #001=TOU$REPLACE File=TOU$REPLACE.:E05TSI                          WED 07/30/97 06:50 Page:62
   9404  3 000503   040105 100400                    MLR     fill='040'O
         3 000504   000000 000004 xsym               ADSC9   BLOCK_SEQ                cn=0,n=4
         3 000505   100000 000004                    ADSC9   0,A,PR1                  cn=0,n=4
         3 000506   000551 710000 3                  TRA     s:9410

      331     9405    3         ELSE IF SUBSTR (MSG, R_START, 4) = '~BCZ'

   9405  3 000507   040000 106505                    CMPC    fill='040'O
         3 000510   100000 000004                    ADSC9   0,A,PR1                  cn=0,n=4
         3 000511   000012 000004 2                  ADSC9   10                       cn=0,n=4
         3 000512   000525 601000 3                  TNZ     s:9407

      332     9406    3            THEN CALL BINARY_2_ASCII (6, BINBIT (BLOCK.BCW.SIZE, 36)) ;

   9406  3 000513   000003 236000 xsym               LDQ     BLOCK+3
         3 000514   777777 376007                    ANQ     -1,DL
         3 000515   200026 756100                    STQ     STRING+6,,AUTO
         3 000516   200026 633500                    EPPR3   STRING+6,,AUTO
         3 000517   200016 453500                    STP3    TEMP_+1,,AUTO
         3 000520   000026 236000 4                  LDQ     22
         3 000521   200015 756100                    STQ     @BINARY+1,,AUTO
         3 000522   002544 701000 3                  TSX1    BINARY_2_ASCII
         3 000523   000000 011000                    NOP     0
         3 000524   000551 710000 3                  TRA     s:9410

      333     9407    3            ELSE IF SUBSTR (MSG, R_START, 4) = '~BCT'

   9407  3 000525   040000 106505                    CMPC    fill='040'O
         3 000526   100000 000004                    ADSC9   0,A,PR1                  cn=0,n=4
         3 000527   000013 000004 2                  ADSC9   11                       cn=0,n=4
         3 000530   000543 601000 3                  TNZ     s:9409

      334     9408    3               THEN CALL BINARY_2_ASCII (6, BINBIT (OBJECT.BINARY_COUNT, 36)) ;

   9408  3 000531   000024 236000 xsym               LDQ     OBJECT+20
         3 000532   777777 376007                    ANQ     -1,DL
         3 000533   200030 756100                    STQ     STRING+8,,AUTO
PL6.E3A0      #001=TOU$REPLACE File=TOU$REPLACE.:E05TSI                          WED 07/30/97 06:50 Page:63
         3 000534   200030 633500                    EPPR3   STRING+8,,AUTO
         3 000535   200016 453500                    STP3    TEMP_+1,,AUTO
         3 000536   000026 236000 4                  LDQ     22
         3 000537   200015 756100                    STQ     @BINARY+1,,AUTO
         3 000540   002544 701000 3                  TSX1    BINARY_2_ASCII
         3 000541   000000 011000                    NOP     0
         3 000542   000551 710000 3                  TRA     s:9410

      335     9409    3               ELSE CALL BINARY_2_ASCII (6, BLOCK.CONTROL); /* ~BSZ */

   9409  3 000543   000030 236000 4                  LDQ     24
         3 000544   200016 756100                    STQ     TEMP_+1,,AUTO
         3 000545   000026 236000 4                  LDQ     22
         3 000546   200015 756100                    STQ     @BINARY+1,,AUTO
         3 000547   002544 701000 3                  TSX1    BINARY_2_ASCII
         3 000550   000000 011000                    NOP     0

      336     9410    3      RETURN ;

   9410  3 000551   200010 221300                    LDX1  ! R_START+3,,AUTO
         3 000552   000001 702211                    TSX2  ! 1,X1

      337     9411
      338     9412    3   END SUB_FOR_LETTER_B ;
      339     9413        %EJECT ;
PL6.E3A0      #001=TOU$REPLACE File=TOU$REPLACE.:E05TSI                          WED 07/30/97 06:50 Page:64
      340     9414    2   SUB_FOR_LETTER_C: PROC ;

   9414  3 000553   200010 741300       SUB_FOR_LET* STX1  ! R_START+3,,AUTO

      341     9415
      342     9416        /* Code */
      343     9417
      344     9418    4      DO SELECT (SUBSTR (MSG, R_START, 5)) ;

   9418  3 000554   200004 470500                    LDP0    @MSG_LGTH,,AUTO
         3 000555   000000 720100                    LXL0    0,,PR0
         3 000556   200003 471500                    LDP1    @MSG,,AUTO
         3 000557   200005 235100                    LDA     R_START,,AUTO
         3 000560   040000 106505                    CMPC    fill='040'O
         3 000561   100000 000005                    ADSC9   0,A,PR1                  cn=0,n=5
         3 000562   000014 000005 2                  ADSC9   12                       cn=0,n=5
         3 000563   000577 602000 3                  TNC     s:9418+19
         3 000564   000712 600000 3                  TZE     s:9435
         3 000565   040000 106505                    CMPC    fill='040'O
         3 000566   100000 000005                    ADSC9   0,A,PR1                  cn=0,n=5
         3 000567   000016 000005 2                  ADSC9   14                       cn=0,n=5
         3 000570   000736 602000 3                  TNC     s:9441
         3 000571   000716 600000 3                  TZE     s:9437
         3 000572   040000 106505                    CMPC    fill='040'O
         3 000573   100000 000005                    ADSC9   0,A,PR1                  cn=0,n=5
         3 000574   000020 000005 2                  ADSC9   16                       cn=0,n=5
         3 000575   000736 601000 3                  TNZ     s:9441
         3 000576   000730 710000 3                  TRA     s:9439
         3 000577   040000 106505                    CMPC    fill='040'O
         3 000600   100000 000005                    ADSC9   0,A,PR1                  cn=0,n=5
         3 000601   000022 000005 2                  ADSC9   18                       cn=0,n=5
         3 000602   000611 602000 3                  TNC     s:9418+29
         3 000603   000622 600000 3                  TZE     s:9422
         3 000604   040000 106505                    CMPC    fill='040'O
         3 000605   100000 000005                    ADSC9   0,A,PR1                  cn=0,n=5
         3 000606   000024 000005 2                  ADSC9   20                       cn=0,n=5
         3 000607   000736 601000 3                  TNZ     s:9441
PL6.E3A0      #001=TOU$REPLACE File=TOU$REPLACE.:E05TSI                          WED 07/30/97 06:50 Page:65
         3 000610   000634 710000 3                  TRA     s:9424
         3 000611   040000 106505                    CMPC    fill='040'O
         3 000612   100000 000005                    ADSC9   0,A,PR1                  cn=0,n=5
         3 000613   000026 000005 2                  ADSC9   22                       cn=0,n=5
         3 000614   000736 601000 3                  TNZ     s:9441
         3 000615   000616 710000 3                  TRA     s:9420

      345     9419    4         SELECT ('~CAT ') ;

      346     9420    4         CALL INSERT (MSG, R_START, 21, CATALOG_KEY.DATA) ;

   9420  3 000616   040105 100400                    MLR     fill='040'O
         3 000617   000000 200025 xsym               ADSC9   CATALOG_KEY              cn=1,n=21
         3 000620   100000 000025                    ADSC9   0,A,PR1                  cn=0,n=21
         3 000621   000736 710000 3                  TRA     s:9441

      347     9421    4         SELECT ('~CD  ') ;

      348     9422    4         CALL BINARY_2_ASCII (6, BINBIT (CATALOG_DATA.DECK#, 36));

   9422  3 000622   000000 236000 xsym               LDQ     CATALOG_DATA
         3 000623   000022 772000                    QRL     18
         3 000624   200032 756100                    STQ     STRING+10,,AUTO
         3 000625   200032 633500                    EPPR3   STRING+10,,AUTO
         3 000626   200016 453500                    STP3    TEMP_+1,,AUTO
         3 000627   000026 236000 4                  LDQ     22
         3 000630   200015 756100                    STQ     @BINARY+1,,AUTO
         3 000631   002544 701000 3                  TSX1    BINARY_2_ASCII
         3 000632   000000 011000                    NOP     0
         3 000633   000736 710000 3                  TRA     s:9441

      349     9423    4         SELECT ('~CLAS') ;

      350     9424    5         DO SELECT (OBJECT.BCD.CLASS) ;

   9424  3 000634   000005 236000 xsym               LDQ     OBJECT+5
         3 000635   777000 376007                    ANQ     -512,DL
PL6.E3A0      #001=TOU$REPLACE File=TOU$REPLACE.:E05TSI                          WED 07/30/97 06:50 Page:66
         3 000636   111000 116007                    CMPQ    37376,DL
         3 000637   000651 602000 3                  TNC     s:9424+13
         3 000640   000005 236000 xsym               LDQ     OBJECT+5
         3 000641   777000 376007                    ANQ     -512,DL
         3 000642   111000 116007                    CMPQ    37376,DL
         3 000643   000666 600000 3                  TZE     s:9426
         3 000644   000005 236000 xsym               LDQ     OBJECT+5
         3 000645   777000 376007                    ANQ     -512,DL
         3 000646   116000 116007                    CMPQ    39936,DL
         3 000647   000706 601000 3                  TNZ     s:9432
         3 000650   000672 710000 3                  TRA     s:9428
         3 000651   000005 236000 xsym               LDQ     OBJECT+5
         3 000652   777000 376007                    ANQ     -512,DL
         3 000653   106000 116007                    CMPQ    35840,DL
         3 000654   000706 602000 3                  TNC     s:9432
         3 000655   000005 236000 xsym               LDQ     OBJECT+5
         3 000656   777000 376007                    ANQ     -512,DL
         3 000657   106000 116007                    CMPQ    35840,DL
         3 000660   000672 600000 3                  TZE     s:9428
         3 000661   000005 236000 xsym               LDQ     OBJECT+5
         3 000662   777000 376007                    ANQ     -512,DL
         3 000663   110000 116007                    CMPQ    36864,DL
         3 000664   000706 601000 3                  TNZ     s:9432
         3 000665   000672 710000 3                  TRA     s:9428

      351     9425    5            SELECT ('I') ;

      352     9426    5            CALL INSERT (MSG, R_START, 5, 'ITR');

   9426  3 000666   040105 100400                    MLR     fill='040'O
         3 000667   000030 000003 2                  ADSC9   24                       cn=0,n=3
         3 000670   100000 000005                    ADSC9   0,A,PR1                  cn=0,n=5
         3 000671   000736 710000 3                  TRA     s:9441

      353     9427    5            SELECT ('F', 'N', 'H') ;

      354     9428    5            IF OBJECT.BCD.LIBRARY = 'HNIOA0'
PL6.E3A0      #001=TOU$REPLACE File=TOU$REPLACE.:E05TSI                          WED 07/30/97 06:50 Page:67

   9428  3 000672   040000 106400                    CMPC    fill='040'O
         3 000673   000003 600006 xsym               ADSC9   OBJECT+3                 cn=3,n=6
         3 000674   000031 000006 2                  ADSC9   25                       cn=0,n=6
         3 000675   000702 601000 3                  TNZ     s:9430

      355     9429    5            THEN CALL INSERT (MSG, R_START, 5, 'NIO');

   9429  3 000676   040105 100400                    MLR     fill='040'O
         3 000677   000033 000003 2                  ADSC9   27                       cn=0,n=3
         3 000700   100000 000005                    ADSC9   0,A,PR1                  cn=0,n=5
         3 000701   000736 710000 3                  TRA     s:9441

      356     9430    5            ELSE CALL INSERT (MSG, R_START, 5, 'FW') ;

   9430  3 000702   040105 100400                    MLR     fill='040'O
         3 000703   000034 000002 2                  ADSC9   28                       cn=0,n=2
         3 000704   100000 000005                    ADSC9   0,A,PR1                  cn=0,n=5
         3 000705   000736 710000 3                  TRA     s:9441

      357     9431    5            SELECT (ELSE) ;

      358     9432    5         CALL INSERT (MSG, R_START, 5, 'MDR');

   9432  3 000706   040105 100400                    MLR     fill='040'O
         3 000707   000035 000003 2                  ADSC9   29                       cn=0,n=3
         3 000710   100000 000005                    ADSC9   0,A,PR1                  cn=0,n=5

      359     9433    5         END /* SELECT */ ;

   9433  3 000711   000736 710000 3                  TRA     s:9441

      360     9434    4      SELECT ('~CLS ') ;

      361     9435    4      CALL INSERT (MSG, R_START, 4, OBJECT.BCD.CLASS);

   9435  3 000712   040105 100400                    MLR     fill='040'O
PL6.E3A0      #001=TOU$REPLACE File=TOU$REPLACE.:E05TSI                          WED 07/30/97 06:50 Page:68
         3 000713   000005 400001 xsym               ADSC9   OBJECT+5                 cn=2,n=1
         3 000714   100000 000004                    ADSC9   0,A,PR1                  cn=0,n=4
         3 000715   000736 710000 3                  TRA     s:9441

      362     9436    4      SELECT ('~COL ') ;

      363     9437    4      CALL BINARY_2_ASCII (4, CUR# + 1);

   9437  3 000716   000000 236000 xsym               LDQ     CUR#
         3 000717   000001 036007                    ADLQ    1,DL
         3 000720   200034 756100                    STQ     STRING+12,,AUTO
         3 000721   200034 633500                    EPPR3   STRING+12,,AUTO
         3 000722   200016 453500                    STP3    TEMP_+1,,AUTO
         3 000723   000031 236000 4                  LDQ     25
         3 000724   200015 756100                    STQ     @BINARY+1,,AUTO
         3 000725   002544 701000 3                  TSX1    BINARY_2_ASCII
         3 000726   000000 011000                    NOP     0
         3 000727   000736 710000 3                  TRA     s:9441

      364     9438    4      SELECT ('~CUR ') ;

      365     9439    4      CALL BINARY_2_ASCII (4, CUR#) ;

   9439  3 000730   000032 236000 4                  LDQ     26
         3 000731   200016 756100                    STQ     TEMP_+1,,AUTO
         3 000732   000031 236000 4                  LDQ     25
         3 000733   200015 756100                    STQ     @BINARY+1,,AUTO
         3 000734   002544 701000 3                  TSX1    BINARY_2_ASCII
         3 000735   000000 011000                    NOP     0

      366     9440    4      END /* SELECT */ ;

      367     9441    3      RETURN ;

   9441  3 000736   200010 221300                    LDX1  ! R_START+3,,AUTO
         3 000737   000001 702211                    TSX2  ! 1,X1

PL6.E3A0      #001=TOU$REPLACE File=TOU$REPLACE.:E05TSI                          WED 07/30/97 06:50 Page:69
      368     9442
      369     9443    3   END SUB_FOR_LETTER_C ;
      370     9444        %EJECT ;
PL6.E3A0      #001=TOU$REPLACE File=TOU$REPLACE.:E05TSI                          WED 07/30/97 06:50 Page:70
      371     9445    2   SUB_FOR_LETTER_D: PROC ;

   9445  3 000740   200010 741300       SUB_FOR_LET* STX1  ! R_START+3,,AUTO

      372     9446
      373     9447        /* Code */
      374     9448
      375     9449    3      IF SUBSTR (MSG, R_START, 5) = '~DATE'

   9449  3 000741   200004 470500                    LDP0    @MSG_LGTH,,AUTO
         3 000742   000000 720100                    LXL0    0,,PR0
         3 000743   200003 471500                    LDP1    @MSG,,AUTO
         3 000744   200005 235100                    LDA     R_START,,AUTO
         3 000745   040000 106505                    CMPC    fill='040'O
         3 000746   100000 000005                    ADSC9   0,A,PR1                  cn=0,n=5
         3 000747   000036 000005 2                  ADSC9   30                       cn=0,n=5
         3 000750   000755 601000 3                  TNZ     s:9451

      376     9450    3      THEN CALL INSERT (MSG, R_START, 6, OBJECT.BCD.DATE);

   9450  3 000751   040105 100400                    MLR     fill='040'O
         3 000752   000020 400006 xsym               ADSC9   OBJECT+16                cn=2,n=6
         3 000753   100000 000006                    ADSC9   0,A,PR1                  cn=0,n=6
         3 000754   000776 710000 3                  TRA     s:9454

      377     9451    3      ELSE IF SUBSTR (MSG, R_START, 5) = '~DECK'

   9451  3 000755   040000 106505                    CMPC    fill='040'O
         3 000756   100000 000005                    ADSC9   0,A,PR1                  cn=0,n=5
         3 000757   000040 000005 2                  ADSC9   32                       cn=0,n=5
         3 000760   000773 601000 3                  TNZ     s:9453

      378     9452    3         THEN CALL BINARY_2_ASCII (6, BINBIT (OBJECT.DECK#, 36));

   9452  3 000761   000024 236000 xsym               LDQ     OBJECT+20
         3 000762   000022 772000                    QRL     18
         3 000763   200036 756100                    STQ     STRING+14,,AUTO
PL6.E3A0      #001=TOU$REPLACE File=TOU$REPLACE.:E05TSI                          WED 07/30/97 06:50 Page:71
         3 000764   200036 633500                    EPPR3   STRING+14,,AUTO
         3 000765   200016 453500                    STP3    TEMP_+1,,AUTO
         3 000766   000026 236000 4                  LDQ     22
         3 000767   200015 756100                    STQ     @BINARY+1,,AUTO
         3 000770   002544 701000 3                  TSX1    BINARY_2_ASCII
         3 000771   000000 011000                    NOP     0
         3 000772   000776 710000 3                  TRA     s:9454

      379     9453    3         ELSE CALL INSERT (MSG, R_START, 40, DUP.DF.FID) ; /* ~DF_FID */

   9453  3 000773   040105 100400                    MLR     fill='040'O
         3 000774   000107 000050 xsym               ADSC9   DUP+71                   cn=0,n=40
         3 000775   100000 000050                    ADSC9   0,A,PR1                  cn=0,n=40

      380     9454    3      RETURN ;

   9454  3 000776   200010 221300                    LDX1  ! R_START+3,,AUTO
         3 000777   000001 702211                    TSX2  ! 1,X1

      381     9455
      382     9456    3   END SUB_FOR_LETTER_D ;
      383     9457        %EJECT ;
PL6.E3A0      #001=TOU$REPLACE File=TOU$REPLACE.:E05TSI                          WED 07/30/97 06:50 Page:72
      384     9458    2   SUB_FOR_LETTER_E: PROC ;

   9458  3 001000   200010 741300       SUB_FOR_LET* STX1  ! R_START+3,,AUTO

      385     9459
      386     9460        /* Code */
      387     9461
      388     9462    3      IF SUBSTR (MSG, R_START, 3) = '~EC'

   9462  3 001001   200004 470500                    LDP0    @MSG_LGTH,,AUTO
         3 001002   000000 720100                    LXL0    0,,PR0
         3 001003   200003 471500                    LDP1    @MSG,,AUTO
         3 001004   200005 235100                    LDA     R_START,,AUTO
         3 001005   040000 106505                    CMPC    fill='040'O
         3 001006   100000 000003                    ADSC9   0,A,PR1                  cn=0,n=3
         3 001007   000042 000003 2                  ADSC9   34                       cn=0,n=3
         3 001010   001023 601000 3                  TNZ     s:9464

      389     9463    3      THEN CALL BINARY_2_ASCII (6, BINBIT (CATALOG_DATA.ENTRY_COUNT, 36));

   9463  3 001011   000000 236000 xsym               LDQ     CATALOG_DATA
         3 001012   777777 376007                    ANQ     -1,DL
         3 001013   200040 756100                    STQ     STRING+16,,AUTO
         3 001014   200040 633500                    EPPR3   STRING+16,,AUTO
         3 001015   200016 453500                    STP3    TEMP_+1,,AUTO
         3 001016   000026 236000 4                  LDQ     22
         3 001017   200015 756100                    STQ     @BINARY+1,,AUTO
         3 001020   002544 701000 3                  TSX1    BINARY_2_ASCII
         3 001021   000000 011000                    NOP     0
         3 001022   001066 710000 3                  TRA     s:9469

      390     9464    3      ELSE IF SUBSTR (MSG, R_START, 3) = '~EM'

   9464  3 001023   040000 106505                    CMPC    fill='040'O
         3 001024   100000 000003                    ADSC9   0,A,PR1                  cn=0,n=3
         3 001025   000043 000003 2                  ADSC9   35                       cn=0,n=3
         3 001026   001043 601000 3                  TNZ     s:9466
PL6.E3A0      #001=TOU$REPLACE File=TOU$REPLACE.:E05TSI                          WED 07/30/97 06:50 Page:73

      391     9465    3         THEN CALL BINARY_2_ASCII (6, BINBIT (MASTER_ENTRY_KEY.ENTRY#, 36));

   9465  3 001027   000000 235000 xsym               LDA     MASTER_ENTRY_KEY
         3 001030   000001 236000 xsym               LDQ     MASTER_ENTRY_KEY+1
         3 001031   000033 773000                    LRL     27
         3 001032   777777 376007                    ANQ     -1,DL
         3 001033   200042 756100                    STQ     STRING+18,,AUTO
         3 001034   200042 633500                    EPPR3   STRING+18,,AUTO
         3 001035   200016 453500                    STP3    TEMP_+1,,AUTO
         3 001036   000026 236000 4                  LDQ     22
         3 001037   200015 756100                    STQ     @BINARY+1,,AUTO
         3 001040   002544 701000 3                  TSX1    BINARY_2_ASCII
         3 001041   000000 011000                    NOP     0
         3 001042   001066 710000 3                  TRA     s:9469

      392     9466    3         ELSE IF SUBSTR (MSG, R_START, 4) = '~EN '

   9466  3 001043   040000 106505                    CMPC    fill='040'O
         3 001044   100000 000004                    ADSC9   0,A,PR1                  cn=0,n=4
         3 001045   000044 000004 2                  ADSC9   36                       cn=0,n=4
         3 001046   001063 601000 3                  TNZ     s:9468

      393     9467    3            THEN CALL BINARY_2_ASCII (6, BINBIT (CATALOG_ENTRY_KEY.ENTRY#, 36));

   9467  3 001047   000000 235000 xsym               LDA     CATALOG_ENTRY_KEY
         3 001050   000001 236000 xsym               LDQ     CATALOG_ENTRY_KEY+1
         3 001051   000033 773000                    LRL     27
         3 001052   777777 376007                    ANQ     -1,DL
         3 001053   200044 756100                    STQ     STRING+20,,AUTO
         3 001054   200044 633500                    EPPR3   STRING+20,,AUTO
         3 001055   200016 453500                    STP3    TEMP_+1,,AUTO
         3 001056   000026 236000 4                  LDQ     22
         3 001057   200015 756100                    STQ     @BINARY+1,,AUTO
         3 001060   002544 701000 3                  TSX1    BINARY_2_ASCII
         3 001061   000000 011000                    NOP     0
         3 001062   001066 710000 3                  TRA     s:9469
PL6.E3A0      #001=TOU$REPLACE File=TOU$REPLACE.:E05TSI                          WED 07/30/97 06:50 Page:74

      394     9468    3            ELSE CALL INSERT (MSG, R_START, 23, OBJECT_KEY.DATA) ; /* ~ENT */

   9468  3 001063   040105 100400                    MLR     fill='040'O
         3 001064   000000 200027 xsym               ADSC9   OBJECT_KEY               cn=1,n=23
         3 001065   100000 000027                    ADSC9   0,A,PR1                  cn=0,n=23

      395     9469    3      RETURN ;

   9469  3 001066   200010 221300                    LDX1  ! R_START+3,,AUTO
         3 001067   000001 702211                    TSX2  ! 1,X1

      396     9470
      397     9471    3   END SUB_FOR_LETTER_E ;
      398     9472        %EJECT ;
PL6.E3A0      #001=TOU$REPLACE File=TOU$REPLACE.:E05TSI                          WED 07/30/97 06:50 Page:75
      399     9473    2   SUB_FOR_LETTER_F: PROC ;

   9473  3 001070   200010 741300       SUB_FOR_LET* STX1  ! R_START+3,,AUTO

      400     9474
      401     9475        /* Code */
      402     9476
      403     9477    4      DO SELECT (SUBSTR (MSG, R_START, 3)) ;

   9477  3 001071   200004 470500                    LDP0    @MSG_LGTH,,AUTO
         3 001072   000000 720100                    LXL0    0,,PR0
         3 001073   200003 471500                    LDP1    @MSG,,AUTO
         3 001074   200005 235100                    LDA     R_START,,AUTO
         3 001075   040000 106505                    CMPC    fill='040'O
         3 001076   100000 000003                    ADSC9   0,A,PR1                  cn=0,n=3
         3 001077   000045 000003 2                  ADSC9   37                       cn=0,n=3
         3 001100   001107 602000 3                  TNC     s:9477+14
         3 001101   001123 600000 3                  TZE     s:9481
         3 001102   040000 106505                    CMPC    fill='040'O
         3 001103   100000 000003                    ADSC9   0,A,PR1                  cn=0,n=3
         3 001104   000046 000003 2                  ADSC9   38                       cn=0,n=3
         3 001105   001140 601000 3                  TNZ     s:9485
         3 001106   001114 710000 3                  TRA     s:9479
         3 001107   040000 106505                    CMPC    fill='040'O
         3 001110   100000 000003                    ADSC9   0,A,PR1                  cn=0,n=3
         3 001111   000047 000003 2                  ADSC9   39                       cn=0,n=3
         3 001112   001140 601000 3                  TNZ     s:9485
         3 001113   001135 710000 3                  TRA     s:9483

      404     9478    4         SELECT ('~FN') ;

      405     9479    4         CALL BINARY_2_ASCII (3, FILE_FILE) ;

   9479  3 001114   000033 236000 4                  LDQ     27
         3 001115   200016 756100                    STQ     TEMP_+1,,AUTO
         3 001116   000034 236000 4                  LDQ     28
         3 001117   200015 756100                    STQ     @BINARY+1,,AUTO
PL6.E3A0      #001=TOU$REPLACE File=TOU$REPLACE.:E05TSI                          WED 07/30/97 06:50 Page:76
         3 001120   002544 701000 3                  TSX1    BINARY_2_ASCII
         3 001121   000000 011000                    NOP     0
         3 001122   001140 710000 3                  TRA     s:9485

      406     9480    4         SELECT ('~FM') ;

      407     9481    4         CALL BINARY_2_ASCII (3, FILE_FILE - 1) ;

   9481  3 001123   000000 236000 xsym               LDQ     FILE_FILE
         3 001124   000001 136007                    SBLQ    1,DL
         3 001125   200046 756100                    STQ     STRING+22,,AUTO
         3 001126   200046 633500                    EPPR3   STRING+22,,AUTO
         3 001127   200016 453500                    STP3    TEMP_+1,,AUTO
         3 001130   000034 236000 4                  LDQ     28
         3 001131   200015 756100                    STQ     @BINARY+1,,AUTO
         3 001132   002544 701000 3                  TSX1    BINARY_2_ASCII
         3 001133   000000 011000                    NOP     0
         3 001134   001140 710000 3                  TRA     s:9485

      408     9482    4         SELECT ('~F2') ;

      409     9483    4         CALL INSERT (MSG, R_START, 12, SUBCATALOG_DATA.IFAD_FN) ;

   9483  3 001135   040105 100400                    MLR     fill='040'O
         3 001136   000012 000014 xsym               ADSC9   SUBCATALOG_DATA+10       cn=0,n=12
         3 001137   100000 000014                    ADSC9   0,A,PR1                  cn=0,n=12

      410     9484    4      END /* SELECT */ ;

      411     9485    3      RETURN ;

   9485  3 001140   200010 221300                    LDX1  ! R_START+3,,AUTO
         3 001141   000001 702211                    TSX2  ! 1,X1

      412     9486
      413     9487    3   END SUB_FOR_LETTER_F ;
      414     9488        %EJECT ;
PL6.E3A0      #001=TOU$REPLACE File=TOU$REPLACE.:E05TSI                          WED 07/30/97 06:50 Page:77
      415     9489    2   SUB_FOR_LETTER_G: PROC ;

   9489  3 001142   200010 741300       SUB_FOR_LET* STX1  ! R_START+3,,AUTO

      416     9490
      417     9491        /* Code */
      418     9492
      419     9493    3      CALL INSERT (MSG, R_START, 6, OBJECT.BCD.GECALL); /* ~GECAL */

   9493  3 001143   200004 470500                    LDP0    @MSG_LGTH,,AUTO
         3 001144   000000 720100                    LXL0    0,,PR0
         3 001145   200003 471500                    LDP1    @MSG,,AUTO
         3 001146   200005 235100                    LDA     R_START,,AUTO
         3 001147   040105 100400                    MLR     fill='040'O
         3 001150   000017 000006 xsym               ADSC9   OBJECT+15                cn=0,n=6
         3 001151   100000 000006                    ADSC9   0,A,PR1                  cn=0,n=6

      420     9494    3      RETURN ;

   9494  3 001152   200010 221300                    LDX1  ! R_START+3,,AUTO
         3 001153   000001 702211                    TSX2  ! 1,X1

      421     9495
      422     9496    3   END SUB_FOR_LETTER_G ;
      423     9497        %EJECT ;
PL6.E3A0      #001=TOU$REPLACE File=TOU$REPLACE.:E05TSI                          WED 07/30/97 06:50 Page:78
      424     9498    2   SUB_FOR_LETTER_H: PROC ;

   9498  3 001154   200010 741300       SUB_FOR_LET* STX1  ! R_START+3,,AUTO

      425     9499
      426     9500        /* Code */
      427     9501
      428     9502    3      IF SUBSTR (MSG, R_START, 8) = '~HLGDATE'

   9502  3 001155   200004 470500                    LDP0    @MSG_LGTH,,AUTO
         3 001156   000000 720100                    LXL0    0,,PR0
         3 001157   200003 471500                    LDP1    @MSG,,AUTO
         3 001160   200005 235100                    LDA     R_START,,AUTO
         3 001161   040000 106505                    CMPC    fill='040'O
         3 001162   100000 000010                    ADSC9   0,A,PR1                  cn=0,n=8
         3 001163   000050 000010 2                  ADSC9   40                       cn=0,n=8
         3 001164   001175 601000 3                  TNZ     s:9504

      429     9503    3      THEN CALL INSERT (MSG, R_START, 8, LOG_B.ACCESSES.DATE(LOG#)) ;

   9503  3 001165   000000 236000 xsym               LDQ     LOG#
         3 001166   000150 402007                    MPY     104,DL
         3 001167   000137 473400 xsym               LDP3    DUP+95
         3 001170   200005 235100                    LDA     R_START,,AUTO
         3 001171   040105 100506                    MLR     fill='040'O
         3 001172   300000 400010                    ADSC9   0,Q,PR3                  cn=2,n=8
         3 001173   100000 000010                    ADSC9   0,A,PR1                  cn=0,n=8
         3 001174   001250 710000 3                  TRA     s:9511

      430     9504    3      ELSE IF SUBSTR (MSG, R_START, 8) = '~HLGTIME'

   9504  3 001175   040000 106505                    CMPC    fill='040'O
         3 001176   100000 000010                    ADSC9   0,A,PR1                  cn=0,n=8
         3 001177   000052 000010 2                  ADSC9   42                       cn=0,n=8
         3 001200   001211 601000 3                  TNZ     s:9506

      431     9505    3         THEN CALL INSERT (MSG, R_START, 11, LOG_B.ACCESSES.TIME(LOG#)) ;
PL6.E3A0      #001=TOU$REPLACE File=TOU$REPLACE.:E05TSI                          WED 07/30/97 06:50 Page:79

   9505  3 001201   000000 236000 xsym               LDQ     LOG#
         3 001202   000150 402007                    MPY     104,DL
         3 001203   000137 473400 xsym               LDP3    DUP+95
         3 001204   200005 235100                    LDA     R_START,,AUTO
         3 001205   040105 100506                    MLR     fill='040'O
         3 001206   300002 400013                    ADSC9   2,Q,PR3                  cn=2,n=11
         3 001207   100000 000013                    ADSC9   0,A,PR1                  cn=0,n=11
         3 001210   001250 710000 3                  TRA     s:9511

      432     9506    3         ELSE IF SUBSTR (MSG, R_START, 11) = '~HLGCATALOG'

   9506  3 001211   040000 106505                    CMPC    fill='040'O
         3 001212   100000 000013                    ADSC9   0,A,PR1                  cn=0,n=11
         3 001213   000054 000013 2                  ADSC9   44                       cn=0,n=11
         3 001214   001225 601000 3                  TNZ     s:9508

      433     9507    3            THEN CALL INSERT (MSG, R_START, 21, LOG_B.ACCESSES.CATALOG(LOG#)) ;

   9507  3 001215   000000 236000 xsym               LDQ     LOG#
         3 001216   000150 402007                    MPY     104,DL
         3 001217   000137 473400 xsym               LDP3    DUP+95
         3 001220   200005 235100                    LDA     R_START,,AUTO
         3 001221   040105 100506                    MLR     fill='040'O
         3 001222   300005 200025                    ADSC9   5,Q,PR3                  cn=1,n=21
         3 001223   100000 000025                    ADSC9   0,A,PR1                  cn=0,n=21
         3 001224   001250 710000 3                  TRA     s:9511

      434     9508    3            ELSE IF SUBSTR (MSG, R_START, 8) = '~HLGDECK'

   9508  3 001225   040000 106505                    CMPC    fill='040'O
         3 001226   100000 000010                    ADSC9   0,A,PR1                  cn=0,n=8
         3 001227   000057 000010 2                  ADSC9   47                       cn=0,n=8
         3 001230   001241 601000 3                  TNZ     s:9510

      435     9509    3               THEN CALL INSERT (MSG, R_START, 23, LOG_B.ACCESSES.DECK(LOG#)) ;

PL6.E3A0      #001=TOU$REPLACE File=TOU$REPLACE.:E05TSI                          WED 07/30/97 06:50 Page:80
   9509  3 001231   000000 236000 xsym               LDQ     LOG#
         3 001232   000150 402007                    MPY     104,DL
         3 001233   000137 473400 xsym               LDP3    DUP+95
         3 001234   200005 235100                    LDA     R_START,,AUTO
         3 001235   040105 100506                    MLR     fill='040'O
         3 001236   300012 400027                    ADSC9   10,Q,PR3                 cn=2,n=23
         3 001237   100000 000027                    ADSC9   0,A,PR1                  cn=0,n=23
         3 001240   001250 710000 3                  TRA     s:9511

      436     9510    3               ELSE CALL INSERT (MSG, R_START, 40, LOG_B.ACCESSES.IFAD(LOG#)) ;

   9510  3 001241   000000 236000 xsym               LDQ     LOG#
         3 001242   000150 402007                    MPY     104,DL
         3 001243   000137 473400 xsym               LDP3    DUP+95
         3 001244   200005 235100                    LDA     R_START,,AUTO
         3 001245   040105 100506                    MLR     fill='040'O
         3 001246   300020 200050                    ADSC9   16,Q,PR3                 cn=1,n=40
         3 001247   100000 000050                    ADSC9   0,A,PR1                  cn=0,n=40

      437     9511    3      RETURN ;

   9511  3 001250   200010 221300                    LDX1  ! R_START+3,,AUTO
         3 001251   000001 702211                    TSX2  ! 1,X1

      438     9512
      439     9513    3   END SUB_FOR_LETTER_H ;
      440     9514        %EJECT ;
PL6.E3A0      #001=TOU$REPLACE File=TOU$REPLACE.:E05TSI                          WED 07/30/97 06:50 Page:81
      441     9515    2   SUB_FOR_LETTER_I: PROC ;

   9515  3 001252   200010 741300       SUB_FOR_LET* STX1  ! R_START+3,,AUTO

      442     9516
      443     9517    3      DCL BLANK    UBIN WORD ALIGNED ;
      444     9518    3      DCL LGTH     UBIN WORD ALIGNED ;
      445     9519
      446     9520        /* Code */
      447     9521
      448     9522    3      IF SUBSTR (MSG, R_START, 3) = '~ID'

   9522  3 001253   200004 470500                    LDP0    @MSG_LGTH,,AUTO
         3 001254   000000 720100                    LXL0    0,,PR0
         3 001255   200003 471500                    LDP1    @MSG,,AUTO
         3 001256   200005 235100                    LDA     R_START,,AUTO
         3 001257   040000 106505                    CMPC    fill='040'O
         3 001260   100000 000003                    ADSC9   0,A,PR1                  cn=0,n=3
         3 001261   000061 000003 2                  ADSC9   49                       cn=0,n=3
         3 001262   001267 601000 3                  TNZ     s:9524

      449     9523    3      THEN CALL INSERT (MSG, R_START, 6, ID.ID);

   9523  3 001263   040105 100400                    MLR     fill='040'O
         3 001264   000000 000006 xsym               ADSC9   ID                       cn=0,n=6
         3 001265   100000 000006                    ADSC9   0,A,PR1                  cn=0,n=6
         3 001266   001337 710000 3                  TRA     s:9535

      450     9524    3      ELSE IF SUBSTR (MSG, R_START, 9) = '~IFAD_FID'

   9524  3 001267   040000 106505                    CMPC    fill='040'O
         3 001270   100000 000011                    ADSC9   0,A,PR1                  cn=0,n=9
         3 001271   000062 000011 2                  ADSC9   50                       cn=0,n=9
         3 001272   001277 601000 3                  TNZ     s:9526

      451     9525    3         THEN CALL INSERT (MSG, R_START, 40, DUP.IFAD.FID) ;

PL6.E3A0      #001=TOU$REPLACE File=TOU$REPLACE.:E05TSI                          WED 07/30/97 06:50 Page:82
   9525  3 001273   040105 100400                    MLR     fill='040'O
         3 001274   000063 200050 xsym               ADSC9   DUP+51                   cn=1,n=40
         3 001275   100000 000050                    ADSC9   0,A,PR1                  cn=0,n=40
         3 001276   001337 710000 3                  TRA     s:9535

      452     9526    3         ELSE IF SUBSTR (MSG, R_START, 4) = '~IMX'

   9526  3 001277   040000 106505                    CMPC    fill='040'O
         3 001300   100000 000004                    ADSC9   0,A,PR1                  cn=0,n=4
         3 001301   000065 000004 2                  ADSC9   53                       cn=0,n=4
         3 001302   001312 601000 3                  TNZ     s:9528

      453     9527    3            THEN CALL BINARY_2_ASCII (4, DUP.IFAD.IMU_NUMBER) ;

   9527  3 001303   000035 236000 4                  LDQ     29
         3 001304   200016 756100                    STQ     TEMP_+1,,AUTO
         3 001305   000031 236000 4                  LDQ     25
         3 001306   200015 756100                    STQ     @BINARY+1,,AUTO
         3 001307   002544 701000 3                  TSX1    BINARY_2_ASCII
         3 001310   000000 011000                    NOP     0
         3 001311   001337 710000 3                  TRA     s:9535

      454     9528    3            ELSE IF SUBSTR (MSG, R_START, 6) = '~IMBLK'

   9528  3 001312   040000 106505                    CMPC    fill='040'O
         3 001313   100000 000006                    ADSC9   0,A,PR1                  cn=0,n=6
         3 001314   000066 000006 2                  ADSC9   54                       cn=0,n=6
         3 001315   001322 601000 3                  TNZ     s:9531

      455     9529    3               THEN CALL INSERT (MSG, R_START, 80, DUP.ERROR_IMAGE) ;

   9529  3 001316   040105 100400                    MLR     fill='040'O
         3 001317   000032 000120 xsym               ADSC9   DUP+26                   cn=0,n=80
         3 001320   100000 000120                    ADSC9   0,A,PR1                  cn=0,n=80
         3 001321   001337 710000 3                  TRA     s:9535

      456     9530    4               ELSE DO ; /* ~IMAGE */
PL6.E3A0      #001=TOU$REPLACE File=TOU$REPLACE.:E05TSI                          WED 07/30/97 06:50 Page:83

      457     9531    4                       CALL INDEX (BLANK, ' ', DUP.ERROR_IMAGE, 0) ;

   9531  3 001322   000000 124400                    SCM     mask='000'O
         3 001323   000032 000120 xsym               ADSC9   DUP+26                   cn=0,n=80
         3 001324   000035 000001 xsym               ADSC9   B_VECTNIL+29             cn=0,n=1
         3 001325   200011 000100                    ARG     BLANK,,AUTO

      458     9532    4                       LGTH = MAXIMUM (BLANK, 6) ;

   9532  3 001326   000006 236007                    LDQ     6,DL
         3 001327   200011 116100                    CMPQ    BLANK,,AUTO
         3 001330   001332 603000 3                  TRC     s:9532+4
         3 001331   200011 236100                    LDQ     BLANK,,AUTO
         3 001332   200012 756100                    STQ     LGTH,,AUTO

      459     9533    4                       CALL INSERT (MSG, R_START, LGTH, DUP.ERROR_IMAGE) ;

   9533  3 001333   000000 622006                    EAX2    0,QL
         3 001334   040145 100400                    MLR     fill='040'O
         3 001335   000032 000120 xsym               ADSC9   DUP+26                   cn=0,n=80
         3 001336   100000 000012                    ADSC9   0,A,PR1                  cn=0,n=*X2

      460     9534    4                    END /* ELSE */ ;

      461     9535    3      RETURN ;

   9535  3 001337   200010 221300                    LDX1  ! R_START+3,,AUTO
         3 001340   000001 702211                    TSX2  ! 1,X1

      462     9536
      463     9537    3   END SUB_FOR_LETTER_I ;
      464     9538        %EJECT ;
PL6.E3A0      #001=TOU$REPLACE File=TOU$REPLACE.:E05TSI                          WED 07/30/97 06:50 Page:84
      465     9539    2   SUB_FOR_LETTER_J: PROC ;

   9539  3 001341   200010 741300       SUB_FOR_LET* STX1  ! R_START+3,,AUTO

      466     9540
      467     9541        /* Code */
      468     9542
      469     9543    3      CALL INSERT (MSG, R_START, 2, DUP.IFAD.DRIVE_NUMBER) ;

   9543  3 001342   200004 470500                    LDP0    @MSG_LGTH,,AUTO
         3 001343   000000 720100                    LXL0    0,,PR0
         3 001344   200003 471500                    LDP1    @MSG,,AUTO
         3 001345   200005 235100                    LDA     R_START,,AUTO
         3 001346   040105 100400                    MLR     fill='040'O
         3 001347   000063 000001 xsym               ADSC9   DUP+51                   cn=0,n=1
         3 001350   100000 000002                    ADSC9   0,A,PR1                  cn=0,n=2

      470     9544    3      RETURN ;

   9544  3 001351   200010 221300                    LDX1  ! R_START+3,,AUTO
         3 001352   000001 702211                    TSX2  ! 1,X1

      471     9545
      472     9546    3   END SUB_FOR_LETTER_J ;
      473     9547        %EJECT ;
PL6.E3A0      #001=TOU$REPLACE File=TOU$REPLACE.:E05TSI                          WED 07/30/97 06:50 Page:85
      474     9548    2   SUB_FOR_LETTER_L: PROC ;

   9548  3 001353   200010 741300       SUB_FOR_LET* STX1  ! R_START+3,,AUTO

      475     9549
      476     9550    3      DCL 1 CURRENT STATIC,
      477     9551    3            2 DATE  CHAR (8) CALIGNED,
      478     9552    3            2 TIME  CHAR (11) CALIGNED ;
      479     9553           %FPT_TIME (FPTN = CURRENT_TIME,
      480     9554                      DEST = LOCAL,
      481     9555                      DATE = CURRENT.DATE,
      482     9556                      TIME = CURRENT.TIME) ;
      483     9575
      484     9576        /* Code */
      485     9577
      486     9578    3      IF SUBSTR (MSG, R_START, 4) = '~LBL'

   9578  3 001354   200004 470500                    LDP0    @MSG_LGTH,,AUTO
         3 001355   000000 720100                    LXL0    0,,PR0
         3 001356   200003 471500                    LDP1    @MSG,,AUTO
         3 001357   200005 235100                    LDA     R_START,,AUTO
         3 001360   040000 106505                    CMPC    fill='040'O
         3 001361   100000 000004                    ADSC9   0,A,PR1                  cn=0,n=4
         3 001362   000070 000004 2                  ADSC9   56                       cn=0,n=4
         3 001363   001370 601000 3                  TNZ     s:9580

      487     9579    3      THEN CALL INSERT (MSG, R_START, 4, OBJECT.BCD.LBL);

   9579  3 001364   040105 100400                    MLR     fill='040'O
         3 001365   000022 000004 xsym               ADSC9   OBJECT+18                cn=0,n=4
         3 001366   100000 000004                    ADSC9   0,A,PR1                  cn=0,n=4
         3 001367   001452 710000 3                  TRA     s:9594

      488     9580    3      ELSE IF SUBSTR (MSG, R_START, 4) = '~LIB'

   9580  3 001370   040000 106505                    CMPC    fill='040'O
         3 001371   100000 000004                    ADSC9   0,A,PR1                  cn=0,n=4
PL6.E3A0      #001=TOU$REPLACE File=TOU$REPLACE.:E05TSI                          WED 07/30/97 06:50 Page:86
         3 001372   000071 000004 2                  ADSC9   57                       cn=0,n=4
         3 001373   001400 601000 3                  TNZ     s:9582

      489     9581    3         THEN CALL INSERT (MSG, R_START, 6, OBJECT.BCD.LIBRARY);

   9581  3 001374   040105 100400                    MLR     fill='040'O
         3 001375   000003 600006 xsym               ADSC9   OBJECT+3                 cn=3,n=6
         3 001376   100000 000006                    ADSC9   0,A,PR1                  cn=0,n=6
         3 001377   001452 710000 3                  TRA     s:9594

      490     9582    3         ELSE IF SUBSTR (MSG, R_START, 5) = '~LOAD'

   9582  3 001400   040000 106505                    CMPC    fill='040'O
         3 001401   100000 000005                    ADSC9   0,A,PR1                  cn=0,n=5
         3 001402   000072 000005 2                  ADSC9   58                       cn=0,n=5
         3 001403   001430 601000 3                  TNZ     s:9589

      491     9583    3            THEN IF OBJECT.BCD.LOAD_TYPE = 'R'

   9583  3 001404   000005 236000 xsym               LDQ     OBJECT+5
         3 001405   000777 376003                    ANQ     511,DU
         3 001406   000122 116003                    CMPQ    82,DU
         3 001407   001414 601000 3                  TNZ     s:9585

      492     9584    3               THEN CALL INSERT (MSG, R_START, 5, 'RELOC');

   9584  3 001410   040105 100400                    MLR     fill='040'O
         3 001411   000074 000005 2                  ADSC9   60                       cn=0,n=5
         3 001412   100000 000005                    ADSC9   0,A,PR1                  cn=0,n=5
         3 001413   001452 710000 3                  TRA     s:9594

      493     9585    3               ELSE IF OBJECT.BCD.LOAD_TYPE = 'P'

   9585  3 001414   000005 236000 xsym               LDQ     OBJECT+5
         3 001415   000777 376003                    ANQ     511,DU
         3 001416   000120 116003                    CMPQ    80,DU
         3 001417   001424 601000 3                  TNZ     s:9587
PL6.E3A0      #001=TOU$REPLACE File=TOU$REPLACE.:E05TSI                          WED 07/30/97 06:50 Page:87

      494     9586    3                  THEN CALL INSERT (MSG, R_START, 5, 'PROG');

   9586  3 001420   040105 100400                    MLR     fill='040'O
         3 001421   000076 000004 2                  ADSC9   62                       cn=0,n=4
         3 001422   100000 000005                    ADSC9   0,A,PR1                  cn=0,n=5
         3 001423   001452 710000 3                  TRA     s:9594

      495     9587    3                  ELSE CALL INSERT (MSG, R_START, 5, 'DATA') ;

   9587  3 001424   040105 100400                    MLR     fill='040'O
         3 001425   000077 000004 2                  ADSC9   63                       cn=0,n=4
         3 001426   100000 000005                    ADSC9   0,A,PR1                  cn=0,n=5
         3 001427   001452 710000 3                  TRA     s:9594

      496     9588    4            ELSE DO ;

      497     9589    4                    CALL M$TIME (CURRENT_TIME) ;

   9589  3 001430   000006 630400 1                  EPPR0   CURRENT_TIME
         3 001431   020004 713400                    CLIMB   8196
         3 001432   402000 401760                    pmme    nvectors=5

      498     9590    4                    IF SUBSTR (MSG, R_START, 6) = '~LTIME'

   9590  3 001433   200004 470500                    LDP0    @MSG_LGTH,,AUTO
         3 001434   000000 720100                    LXL0    0,,PR0
         3 001435   200003 471500                    LDP1    @MSG,,AUTO
         3 001436   200005 235100                    LDA     R_START,,AUTO
         3 001437   040000 106505                    CMPC    fill='040'O
         3 001440   100000 000006                    ADSC9   0,A,PR1                  cn=0,n=6
         3 001441   000100 000006 2                  ADSC9   64                       cn=0,n=6
         3 001442   001447 601000 3                  TNZ     s:9592

      499     9591    4                    THEN CALL INSERT (MSG, R_START, 11, CURRENT.TIME) ;

   9591  3 001443   040105 100400                    MLR     fill='040'O
PL6.E3A0      #001=TOU$REPLACE File=TOU$REPLACE.:E05TSI                          WED 07/30/97 06:50 Page:88
         3 001444   000002 000013 1                  ADSC9   CURRENT+2                cn=0,n=11
         3 001445   100000 000013                    ADSC9   0,A,PR1                  cn=0,n=11
         3 001446   001452 710000 3                  TRA     s:9594

      500     9592    4                    ELSE CALL INSERT (MSG, R_START,  8, CURRENT.DATE) ;

   9592  3 001447   040105 100400                    MLR     fill='040'O
         3 001450   000000 000010 1                  ADSC9   CURRENT                  cn=0,n=8
         3 001451   100000 000010                    ADSC9   0,A,PR1                  cn=0,n=8

      501     9593    4                 END /* ELSE */ ;

      502     9594    3      RETURN ;

   9594  3 001452   200010 221300                    LDX1  ! R_START+3,,AUTO
         3 001453   000001 702211                    TSX2  ! 1,X1

      503     9595
      504     9596    3   END SUB_FOR_LETTER_L ;
      505     9597        %EJECT ;
PL6.E3A0      #001=TOU$REPLACE File=TOU$REPLACE.:E05TSI                          WED 07/30/97 06:50 Page:89
      506     9598    2   SUB_FOR_LETTER_M: PROC ;

   9598  3 001454   200010 741300       SUB_FOR_LET* STX1  ! R_START+3,,AUTO

      507     9599
      508     9600        /* Code */
      509     9601
      510     9602    3      IF SUBSTR (MSG, R_START, 4) = '~MSZ'

   9602  3 001455   200004 470500                    LDP0    @MSG_LGTH,,AUTO
         3 001456   000000 720100                    LXL0    0,,PR0
         3 001457   200003 471500                    LDP1    @MSG,,AUTO
         3 001460   200005 235100                    LDA     R_START,,AUTO
         3 001461   040000 106505                    CMPC    fill='040'O
         3 001462   100000 000004                    ADSC9   0,A,PR1                  cn=0,n=4
         3 001463   000102 000004 2                  ADSC9   66                       cn=0,n=4
         3 001464   001477 601000 3                  TNZ     s:9604

      511     9603    3      THEN CALL BINARY_2_ASCII (6, BINBIT (OBJECT.LOAD_SIZE, 36)) ;

   9603  3 001465   000025 236000 xsym               LDQ     OBJECT+21
         3 001466   777777 376007                    ANQ     -1,DL
         3 001467   200050 756100                    STQ     STRING+24,,AUTO
         3 001470   200050 633500                    EPPR3   STRING+24,,AUTO
         3 001471   200016 453500                    STP3    TEMP_+1,,AUTO
         3 001472   000026 236000 4                  LDQ     22
         3 001473   200015 756100                    STQ     @BINARY+1,,AUTO
         3 001474   002544 701000 3                  TSX1    BINARY_2_ASCII
         3 001475   000000 011000                    NOP     0
         3 001476   001502 710000 3                  TRA     s:9605

      512     9604    3      ELSE CALL INSERT (MSG, R_START, 6, OBJECT.BCD.MODEL); /* ~MODEL */

   9604  3 001477   040105 100400                    MLR     fill='040'O
         3 001500   000012 400006 xsym               ADSC9   OBJECT+10                cn=2,n=6
         3 001501   100000 000006                    ADSC9   0,A,PR1                  cn=0,n=6

PL6.E3A0      #001=TOU$REPLACE File=TOU$REPLACE.:E05TSI                          WED 07/30/97 06:50 Page:90
      513     9605    3      RETURN ;

   9605  3 001502   200010 221300                    LDX1  ! R_START+3,,AUTO
         3 001503   000001 702211                    TSX2  ! 1,X1

      514     9606
      515     9607    3   END SUB_FOR_LETTER_M ;
      516     9608        %EJECT ;
PL6.E3A0      #001=TOU$REPLACE File=TOU$REPLACE.:E05TSI                          WED 07/30/97 06:50 Page:91
      517     9609    2   SUB_FOR_LETTER_O: PROC ;

   9609  3 001504   200010 741300       SUB_FOR_LET* STX1  ! R_START+3,,AUTO

      518     9610
      519     9611        /* Code */
      520     9612
      521     9613           /* ~OBJ */
      522     9614    3      CALL INSERT (MSG, R_START, 80, OBJECT.BCD_) ;

   9614  3 001505   200004 470500                    LDP0    @MSG_LGTH,,AUTO
         3 001506   000000 720100                    LXL0    0,,PR0
         3 001507   200003 471500                    LDP1    @MSG,,AUTO
         3 001510   200005 235100                    LDA     R_START,,AUTO
         3 001511   040105 100400                    MLR     fill='040'O
         3 001512   000000 000120 xsym               ADSC9   OBJECT                   cn=0,n=80
         3 001513   100000 000120                    ADSC9   0,A,PR1                  cn=0,n=80

      523     9615    3      RETURN ;

   9615  3 001514   200010 221300                    LDX1  ! R_START+3,,AUTO
         3 001515   000001 702211                    TSX2  ! 1,X1

      524     9616
      525     9617    3   END SUB_FOR_LETTER_O ;
      526     9618        %EJECT ;
PL6.E3A0      #001=TOU$REPLACE File=TOU$REPLACE.:E05TSI                          WED 07/30/97 06:50 Page:92
      527     9619    2   SUB_FOR_LETTER_P: PROC ;

   9619  3 001516   200010 741300       SUB_FOR_LET* STX1  ! R_START+3,,AUTO

      528     9620
      529     9621        /* Code */
      530     9622
      531     9623    3      IF SUBSTR (MSG, R_START, 5) = '~PAGE'

   9623  3 001517   200004 470500                    LDP0    @MSG_LGTH,,AUTO
         3 001520   000000 720100                    LXL0    0,,PR0
         3 001521   200003 471500                    LDP1    @MSG,,AUTO
         3 001522   200005 235100                    LDA     R_START,,AUTO
         3 001523   040000 106505                    CMPC    fill='040'O
         3 001524   100000 000005                    ADSC9   0,A,PR1                  cn=0,n=5
         3 001525   000103 000005 2                  ADSC9   67                       cn=0,n=5
         3 001526   001536 601000 3                  TNZ     s:9625

      532     9624    3      THEN CALL BINARY_2_ASCII (6, DUP.CURRENT_PAGE#) ;

   9624  3 001527   000036 236000 4                  LDQ     30
         3 001530   200016 756100                    STQ     TEMP_+1,,AUTO
         3 001531   000026 236000 4                  LDQ     22
         3 001532   200015 756100                    STQ     @BINARY+1,,AUTO
         3 001533   002544 701000 3                  TSX1    BINARY_2_ASCII
         3 001534   000000 011000                    NOP     0
         3 001535   001545 710000 3                  TRA     s:9626

      533     9625    3      ELSE CALL INSERT (MSG, R_START, 80, BCD_B(CUR#)); /* ~PATCH */

   9625  3 001536   000000 236000 xsym               LDQ     CUR#
         3 001537   000124 402007                    MPY     84,DL
         3 001540   000103 473400 xsym               LDP3    DUP+67
         3 001541   200005 235100                    LDA     R_START,,AUTO
         3 001542   040105 100506                    MLR     fill='040'O
         3 001543   300000 000120                    ADSC9   0,Q,PR3                  cn=0,n=80
         3 001544   100000 000120                    ADSC9   0,A,PR1                  cn=0,n=80
PL6.E3A0      #001=TOU$REPLACE File=TOU$REPLACE.:E05TSI                          WED 07/30/97 06:50 Page:93

      534     9626    3      RETURN ;

   9626  3 001545   200010 221300                    LDX1  ! R_START+3,,AUTO
         3 001546   000001 702211                    TSX2  ! 1,X1

      535     9627
      536     9628    3   END SUB_FOR_LETTER_P ;
      537     9629        %EJECT ;
PL6.E3A0      #001=TOU$REPLACE File=TOU$REPLACE.:E05TSI                          WED 07/30/97 06:50 Page:94
      538     9630    2   SUB_FOR_LETTER_R: PROC ;

   9630  3 001547   200010 741300       SUB_FOR_LET* STX1  ! R_START+3,,AUTO

      539     9631
      540     9632    3      DCL 1 B_VERSION                SYMREF,
      541     9633    3            2 LGTH                     UBIN BYTE  UNAL,
      542     9634    3            2 TEXT                     CHAR (10) CALIGNED ;
      543     9635
      544     9636        /* Code */
      545     9637
      546     9638    3      IF SUBSTR (MSG, R_START, 3) = '~R '

   9638  3 001550   200004 470500                    LDP0    @MSG_LGTH,,AUTO
         3 001551   000000 720100                    LXL0    0,,PR0
         3 001552   200003 471500                    LDP1    @MSG,,AUTO
         3 001553   200005 235100                    LDA     R_START,,AUTO
         3 001554   040000 106505                    CMPC    fill='040'O
         3 001555   100000 000003                    ADSC9   0,A,PR1                  cn=0,n=3
         3 001556   000105 000003 2                  ADSC9   69                       cn=0,n=3
         3 001557   001564 601000 3                  TNZ     s:9640

      547     9639    3      THEN CALL INSERT (MSG, R_START, 2, ID.REV.LEVEL);

   9639  3 001560   040105 100400                    MLR     fill='040'O
         3 001561   000002 400002 xsym               ADSC9   ID+2                     cn=2,n=2
         3 001562   100000 000002                    ADSC9   0,A,PR1                  cn=0,n=2
         3 001563   001645 710000 3                  TRA     s:9649

      548     9640    3      ELSE IF SUBSTR (MSG, R_START, 4) = '~RCW'

   9640  3 001564   040000 106505                    CMPC    fill='040'O
         3 001565   100000 000004                    ADSC9   0,A,PR1                  cn=0,n=4
         3 001566   000106 000004 2                  ADSC9   70                       cn=0,n=4
         3 001567   001617 601000 3                  TNZ     s:9644

      549     9641    4         THEN DO CUR# = 0 TO 11;
PL6.E3A0      #001=TOU$REPLACE File=TOU$REPLACE.:E05TSI                          WED 07/30/97 06:50 Page:95

   9641  3 001570   000000 450000 xsym               STZ     CUR#

      550     9642    4                 CALL INSERT (MSG, R_START + CUR#, 1, BCD_ASCII(RCW_OCTAL(CUR#)));

   9642  3 001571   200004 470500                    LDP0    @MSG_LGTH,,AUTO
         3 001572   000000 720100                    LXL0    0,,PR0
         3 001573   200005 236100                    LDQ     R_START,,AUTO
         3 001574   000000 036000 xsym               ADLQ    CUR#
         3 001575   200023 756100                    STQ     STRING+3,,AUTO
         3 001576   000000 236000 xsym               LDQ     CUR#
         3 001577   000003 402007                    MPY     3,DL
         3 001600   003100 061406                    CSR     bolr='003'O
         3 001601   000000 000003 xsym               BDSC    RCW,Q                    by=0,bit=0,n=3
         3 001602   200022 000044                    BDSC    STRING+2,,AUTO           by=0,bit=0,n=36
         3 001603   200022 236100                    LDQ     STRING+2,,AUTO
         3 001604   200003 471500                    LDP1    @MSG,,AUTO
         3 001605   200023 235100                    LDA     STRING+3,,AUTO
         3 001606   040105 100406                    MLR     fill='040'O
         3 001607   000000 000001 xsym               ADSC9   BCD_ASCII_TABLE,Q        cn=0,n=1
         3 001610   100000 000001                    ADSC9   0,A,PR1                  cn=0,n=1

      551     9643    4              END /* THEN DO */ ;

   9643  3 001611   000000 235000 xsym               LDA     CUR#
         3 001612   000001 035007                    ADLA    1,DL
         3 001613   000000 755000 xsym               STA     CUR#
         3 001614   000014 115007                    CMPA    12,DL
         3 001615   001571 602000 3                  TNC     s:9642
         3 001616   001645 710000 3                  TRA     s:9649

      552     9644    3         ELSE IF SUBSTR (MSG, R_START, 3) = '~RU'

   9644  3 001617   040000 106505                    CMPC    fill='040'O
         3 001620   100000 000003                    ADSC9   0,A,PR1                  cn=0,n=3
         3 001621   000107 000003 2                  ADSC9   71                       cn=0,n=3
         3 001622   001632 601000 3                  TNZ     s:9646
PL6.E3A0      #001=TOU$REPLACE File=TOU$REPLACE.:E05TSI                          WED 07/30/97 06:50 Page:96

      553     9645    3            THEN CALL INSERT (MSG, R_START, B_VERSION.LGTH, B_VERSION.TEXT) ;

   9645  3 001623   000000 236000 xsym               LDQ     B_VERSION
         3 001624   000033 772000                    QRL     27
         3 001625   000000 622006                    EAX2    0,QL
         3 001626   040145 100400                    MLR     fill='040'O
         3 001627   000000 200012 xsym               ADSC9   B_VERSION                cn=1,n=10
         3 001630   100000 000012                    ADSC9   0,A,PR1                  cn=0,n=*X2
         3 001631   001645 710000 3                  TRA     s:9649

      554     9646    3            ELSE IF SUBSTR (MSG, R_START, 6) = '~RLINK'

   9646  3 001632   040000 106505                    CMPC    fill='040'O
         3 001633   100000 000006                    ADSC9   0,A,PR1                  cn=0,n=6
         3 001634   000110 000006 2                  ADSC9   72                       cn=0,n=6
         3 001635   001642 601000 3                  TNZ     s:9648

      555     9647    3               THEN CALL INSERT (MSG, R_START, 6, TOU$DEER.LINK_DATE.ASCII ) ;

   9647  3 001636   040105 100400                    MLR     fill='040'O
         3 001637   000000 000006 xsym               ADSC9   TOU$DEER                 cn=0,n=6
         3 001640   100000 000006                    ADSC9   0,A,PR1                  cn=0,n=6
         3 001641   001645 710000 3                  TRA     s:9649

      556     9648    3               ELSE CALL INSERT (MSG, R_START, 6, ID.REVISION) ; /* ~REVIS */

   9648  3 001642   040105 100400                    MLR     fill='040'O
         3 001643   000001 400006 xsym               ADSC9   ID+1                     cn=2,n=6
         3 001644   100000 000006                    ADSC9   0,A,PR1                  cn=0,n=6

      557     9649    3      RETURN ;

   9649  3 001645   200010 221300                    LDX1  ! R_START+3,,AUTO
         3 001646   000001 702211                    TSX2  ! 1,X1

      558     9650
PL6.E3A0      #001=TOU$REPLACE File=TOU$REPLACE.:E05TSI                          WED 07/30/97 06:50 Page:97
      559     9651    3   END SUB_FOR_LETTER_R ;
      560     9652        %EJECT ;
PL6.E3A0      #001=TOU$REPLACE File=TOU$REPLACE.:E05TSI                          WED 07/30/97 06:50 Page:98
      561     9653    2   SUB_FOR_LETTER_S: PROC ;

   9653  3 001647   200010 741300       SUB_FOR_LET* STX1  ! R_START+3,,AUTO

      562     9654
      563     9655        /* Code */
      564     9656
      565     9657    3      IF SUBSTR (MSG, R_START, 3) = '~SE'

   9657  3 001650   200004 470500                    LDP0    @MSG_LGTH,,AUTO
         3 001651   000000 720100                    LXL0    0,,PR0
         3 001652   200003 471500                    LDP1    @MSG,,AUTO
         3 001653   200005 235100                    LDA     R_START,,AUTO
         3 001654   040000 106505                    CMPC    fill='040'O
         3 001655   100000 000003                    ADSC9   0,A,PR1                  cn=0,n=3
         3 001656   000112 000003 2                  ADSC9   74                       cn=0,n=3
         3 001657   002000 601000 3                  TNZ     s:9674

      566     9658    4      THEN DO SELECT (OBJECT.BCD.CLASS) ;

   9658  3 001660   000005 236000 xsym               LDQ     OBJECT+5
         3 001661   777000 376007                    ANQ     -512,DL
         3 001662   120000 116007                    CMPQ    40960,DL
         3 001663   001705 602000 3                  TNC     s:9658+21
         3 001664   000005 236000 xsym               LDQ     OBJECT+5
         3 001665   777000 376007                    ANQ     -512,DL
         3 001666   120000 116007                    CMPQ    40960,DL
         3 001667   001760 600000 3                  TZE     s:9666
         3 001670   000005 236000 xsym               LDQ     OBJECT+5
         3 001671   777000 376007                    ANQ     -512,DL
         3 001672   123000 116007                    CMPQ    42496,DL
         3 001673   002003 602000 3                  TNC     s:9675
         3 001674   000005 236000 xsym               LDQ     OBJECT+5
         3 001675   777000 376007                    ANQ     -512,DL
         3 001676   123000 116007                    CMPQ    42496,DL
         3 001677   001764 600000 3                  TZE     s:9668
         3 001700   000005 236000 xsym               LDQ     OBJECT+5
PL6.E3A0      #001=TOU$REPLACE File=TOU$REPLACE.:E05TSI                          WED 07/30/97 06:50 Page:99
         3 001701   777000 376007                    ANQ     -512,DL
         3 001702   125000 116007                    CMPQ    43520,DL
         3 001703   002003 601000 3                  TNZ     s:9675
         3 001704   001770 710000 3                  TRA     s:9670
         3 001705   000005 236000 xsym               LDQ     OBJECT+5
         3 001706   777000 376007                    ANQ     -512,DL
         3 001707   103000 116007                    CMPQ    34304,DL
         3 001710   001737 602000 3                  TNC     s:9658+47
         3 001711   000005 236000 xsym               LDQ     OBJECT+5
         3 001712   777000 376007                    ANQ     -512,DL
         3 001713   103000 116007                    CMPQ    34304,DL
         3 001714   001750 600000 3                  TZE     s:9662
         3 001715   000005 236000 xsym               LDQ     OBJECT+5
         3 001716   777000 376007                    ANQ     -512,DL
         3 001717   110000 116007                    CMPQ    36864,DL
         3 001720   001732 602000 3                  TNC     s:9658+42
         3 001721   000005 236000 xsym               LDQ     OBJECT+5
         3 001722   777000 376007                    ANQ     -512,DL
         3 001723   110000 116007                    CMPQ    36864,DL
         3 001724   001774 600000 3                  TZE     s:9672
         3 001725   000005 236000 xsym               LDQ     OBJECT+5
         3 001726   777000 376007                    ANQ     -512,DL
         3 001727   115000 116007                    CMPQ    39424,DL
         3 001730   002003 601000 3                  TNZ     s:9675
         3 001731   001754 710000 3                  TRA     s:9664
         3 001732   000005 236000 xsym               LDQ     OBJECT+5
         3 001733   777000 376007                    ANQ     -512,DL
         3 001734   106000 116007                    CMPQ    35840,DL
         3 001735   002003 601000 3                  TNZ     s:9675
         3 001736   001774 710000 3                  TRA     s:9672
         3 001737   000005 236000 xsym               LDQ     OBJECT+5
         3 001740   777000 376007                    ANQ     -512,DL
         3 001741   101000 116007                    CMPQ    33280,DL
         3 001742   002003 601000 3                  TNZ     s:9675
         3 001743   001744 710000 3                  TRA     s:9660

      567     9659    4              SELECT ('A') ;
PL6.E3A0      #001=TOU$REPLACE File=TOU$REPLACE.:E05TSI                          WED 07/30/97 06:50 Page:100

      568     9660    4              CALL INSERT (MSG, R_START, 4, 'PACT');

   9660  3 001744   040105 100400                    MLR     fill='040'O
         3 001745   000113 000004 2                  ADSC9   75                       cn=0,n=4
         3 001746   100000 000004                    ADSC9   0,A,PR1                  cn=0,n=4
         3 001747   002003 710000 3                  TRA     s:9675

      569     9661    4              SELECT ('C') ;

      570     9662    4              CALL INSERT (MSG, R_START, 4, 'COLT');

   9662  3 001750   040105 100400                    MLR     fill='040'O
         3 001751   000114 000004 2                  ADSC9   76                       cn=0,n=4
         3 001752   100000 000004                    ADSC9   0,A,PR1                  cn=0,n=4
         3 001753   002003 710000 3                  TRA     s:9675

      571     9663    4              SELECT ('M') ;

      572     9664    4              CALL INSERT (MSG, R_START, 4, 'MOLT');

   9664  3 001754   040105 100400                    MLR     fill='040'O
         3 001755   000115 000004 2                  ADSC9   77                       cn=0,n=4
         3 001756   100000 000004                    ADSC9   0,A,PR1                  cn=0,n=4
         3 001757   002003 710000 3                  TRA     s:9675

      573     9665    4              SELECT ('P') ;

      574     9666    4              CALL INSERT (MSG, R_START, 4, 'POLT');

   9666  3 001760   040105 100400                    MLR     fill='040'O
         3 001761   000116 000004 2                  ADSC9   78                       cn=0,n=4
         3 001762   100000 000004                    ADSC9   0,A,PR1                  cn=0,n=4
         3 001763   002003 710000 3                  TRA     s:9675

      575     9667    4              SELECT ('S') ;

PL6.E3A0      #001=TOU$REPLACE File=TOU$REPLACE.:E05TSI                          WED 07/30/97 06:50 Page:101
      576     9668    4              CALL INSERT (MSG, R_START, 4, 'SOLT');

   9668  3 001764   040105 100400                    MLR     fill='040'O
         3 001765   000117 000004 2                  ADSC9   79                       cn=0,n=4
         3 001766   100000 000004                    ADSC9   0,A,PR1                  cn=0,n=4
         3 001767   002003 710000 3                  TRA     s:9675

      577     9669    4              SELECT ('U') ;

      578     9670    4              CALL INSERT (MSG, R_START, 4, 'UTIL') ;

   9670  3 001770   040105 100400                    MLR     fill='040'O
         3 001771   000120 000004 2                  ADSC9   80                       cn=0,n=4
         3 001772   100000 000004                    ADSC9   0,A,PR1                  cn=0,n=4
         3 001773   002003 710000 3                  TRA     s:9675

      579     9671    4              SELECT ('H', 'F') ;

      580     9672    4              CALL INSERT (MSG, R_START, 4, 'MCA ') ;

   9672  3 001774   040105 100400                    MLR     fill='040'O
         3 001775   000121 000004 2                  ADSC9   81                       cn=0,n=4
         3 001776   100000 000004                    ADSC9   0,A,PR1                  cn=0,n=4

      581     9673    4           END /* THEN SELECT */ ;

   9673  3 001777   002003 710000 3                  TRA     s:9675

      582     9674    3      ELSE CALL INSERT (MSG, R_START, 40, SUBCATALOG_DATA.IFAD_FID) ; /* ~SI */

   9674  3 002000   040105 100400                    MLR     fill='040'O
         3 002001   000000 000050 xsym               ADSC9   SUBCATALOG_DATA          cn=0,n=40
         3 002002   100000 000050                    ADSC9   0,A,PR1                  cn=0,n=40

      583     9675    3      RETURN ;

   9675  3 002003   200010 221300                    LDX1  ! R_START+3,,AUTO
PL6.E3A0      #001=TOU$REPLACE File=TOU$REPLACE.:E05TSI                          WED 07/30/97 06:50 Page:102
         3 002004   000001 702211                    TSX2  ! 1,X1

      584     9676
      585     9677    3   END SUB_FOR_LETTER_S ;
      586     9678        %EJECT ;
PL6.E3A0      #001=TOU$REPLACE File=TOU$REPLACE.:E05TSI                          WED 07/30/97 06:50 Page:103
      587     9679    2   SUB_FOR_LETTER_T: PROC ;

   9679  3 002005   200010 741300       SUB_FOR_LET* STX1  ! R_START+3,,AUTO

      588     9680
      589     9681    3      DCL 1 CURRENT   STATIC,
      590     9682    3            2 TIME                   CHAR (11) CALIGNED ;
      591     9683           %FPT_TIME (FPTN = CURRENT_TIME,
      592     9684                      DEST = LOCAL,
      593     9685                      TIME = CURRENT.TIME) ;
      594     9704
      595     9705        /* Code */
      596     9706
      597     9707    3      IF SUBSTR (MSG, R_START, 4) = '~TYP'

   9707  3 002006   200004 470500                    LDP0    @MSG_LGTH,,AUTO
         3 002007   000000 720100                    LXL0    0,,PR0
         3 002010   200003 471500                    LDP1    @MSG,,AUTO
         3 002011   200005 235100                    LDA     R_START,,AUTO
         3 002012   040000 106505                    CMPC    fill='040'O
         3 002013   100000 000004                    ADSC9   0,A,PR1                  cn=0,n=4
         3 002014   000122 000004 2                  ADSC9   82                       cn=0,n=4
         3 002015   002022 601000 3                  TNZ     s:9709

      598     9708    3      THEN CALL INSERT (MSG, R_START, 4, OBJECT.BCD.LOAD_TYPE) ;

   9708  3 002016   040105 100400                    MLR     fill='040'O
         3 002017   000005 200001 xsym               ADSC9   OBJECT+5                 cn=1,n=1
         3 002020   100000 000004                    ADSC9   0,A,PR1                  cn=0,n=4
         3 002021   002052 710000 3                  TRA     s:9715

      599     9709    3      ELSE IF SUBSTR (MSG, R_START, 4) = '~TCT'

   9709  3 002022   040000 106505                    CMPC    fill='040'O
         3 002023   100000 000004                    ADSC9   0,A,PR1                  cn=0,n=4
         3 002024   000123 000004 2                  ADSC9   83                       cn=0,n=4
         3 002025   002040 601000 3                  TNZ     s:9712
PL6.E3A0      #001=TOU$REPLACE File=TOU$REPLACE.:E05TSI                          WED 07/30/97 06:50 Page:104

      600     9710    3         THEN CALL BINARY_2_ASCII (6, BINBIT (OBJECT.TOTAL_COUNT, 36)) ;

   9710  3 002026   000025 236000 xsym               LDQ     OBJECT+21
         3 002027   000022 772000                    QRL     18
         3 002030   200052 756100                    STQ     STRING+26,,AUTO
         3 002031   200052 633500                    EPPR3   STRING+26,,AUTO
         3 002032   200016 453500                    STP3    TEMP_+1,,AUTO
         3 002033   000026 236000 4                  LDQ     22
         3 002034   200015 756100                    STQ     @BINARY+1,,AUTO
         3 002035   002544 701000 3                  TSX1    BINARY_2_ASCII
         3 002036   000000 011000                    NOP     0
         3 002037   002052 710000 3                  TRA     s:9715

      601     9711    4         ELSE DO ; /* ~TIME */

      602     9712    4                 CALL M$TIME (CURRENT_TIME) ;

   9712  3 002040   000026 630400 1                  EPPR0   CURRENT_TIME
         3 002041   020004 713400                    CLIMB   8196
         3 002042   402000 401760                    pmme    nvectors=5

      603     9713    4                 CALL INSERT (MSG, R_START, 5, CURRENT.TIME) ;

   9713  3 002043   200004 470500                    LDP0    @MSG_LGTH,,AUTO
         3 002044   000000 720100                    LXL0    0,,PR0
         3 002045   200003 471500                    LDP1    @MSG,,AUTO
         3 002046   200005 235100                    LDA     R_START,,AUTO
         3 002047   040105 100400                    MLR     fill='040'O
         3 002050   000022 000005 1                  ADSC9   CURRENT                  cn=0,n=5
         3 002051   100000 000005                    ADSC9   0,A,PR1                  cn=0,n=5

      604     9714    4              END /* ELSE */ ;

      605     9715    3      RETURN ;

   9715  3 002052   200010 221300                    LDX1  ! R_START+3,,AUTO
PL6.E3A0      #001=TOU$REPLACE File=TOU$REPLACE.:E05TSI                          WED 07/30/97 06:50 Page:105
         3 002053   000001 702211                    TSX2  ! 1,X1

      606     9716
      607     9717    3   END SUB_FOR_LETTER_T ;
      608     9718        %EJECT ;
PL6.E3A0      #001=TOU$REPLACE File=TOU$REPLACE.:E05TSI                          WED 07/30/97 06:50 Page:106
      609     9719    2   SUB_FOR_LETTER_W: PROC ;

   9719  3 002054   200010 741300       SUB_FOR_LET* STX1  ! R_START+3,,AUTO

      610     9720
      611     9721        /* Code */
      612     9722
      613     9723    4      DO SELECT (SUBSTR (MSG, R_START, 4)) ;

   9723  3 002055   200004 470500                    LDP0    @MSG_LGTH,,AUTO
         3 002056   000000 720100                    LXL0    0,,PR0
         3 002057   200003 471500                    LDP1    @MSG,,AUTO
         3 002060   200005 235100                    LDA     R_START,,AUTO
         3 002061   040000 106505                    CMPC    fill='040'O
         3 002062   100000 000004                    ADSC9   0,A,PR1                  cn=0,n=4
         3 002063   000124 000004 2                  ADSC9   84                       cn=0,n=4
         3 002064   002101 602000 3                  TNC     s:9723+20
         3 002065   002120 600000 3                  TZE     s:9727
         3 002066   040000 106505                    CMPC    fill='040'O
         3 002067   100000 000004                    ADSC9   0,A,PR1                  cn=0,n=4
         3 002070   000125 000004 2                  ADSC9   85                       cn=0,n=4
         3 002071   002074 602000 3                  TNC     s:9723+15
         3 002072   002124 600000 3                  TZE     s:9729
         3 002073   002136 710000 3                  TRA     s:9733
         3 002074   040000 106505                    CMPC    fill='040'O
         3 002075   100000 000004                    ADSC9   0,A,PR1                  cn=0,n=4
         3 002076   000126 000004 2                  ADSC9   86                       cn=0,n=4
         3 002077   002136 601000 3                  TNZ     s:9733
         3 002100   002133 710000 3                  TRA     s:9731
         3 002101   040000 106505                    CMPC    fill='040'O
         3 002102   100000 000004                    ADSC9   0,A,PR1                  cn=0,n=4
         3 002103   000127 000004 2                  ADSC9   87                       cn=0,n=4
         3 002104   002136 601000 3                  TNZ     s:9733
         3 002105   002106 710000 3                  TRA     s:9725

      614     9724    4         SELECT ('~WD1') ;

PL6.E3A0      #001=TOU$REPLACE File=TOU$REPLACE.:E05TSI                          WED 07/30/97 06:50 Page:107
      615     9725    4         CALL BINARY_2_ASCII (6, BLOCK.OFFSET + 1);

   9725  3 002106   000001 236000 xsym               LDQ     BLOCK+1
         3 002107   000001 036007                    ADLQ    1,DL
         3 002110   200054 756100                    STQ     STRING+28,,AUTO
         3 002111   200054 633500                    EPPR3   STRING+28,,AUTO
         3 002112   200016 453500                    STP3    TEMP_+1,,AUTO
         3 002113   000026 236000 4                  LDQ     22
         3 002114   200015 756100                    STQ     @BINARY+1,,AUTO
         3 002115   002544 701000 3                  TSX1    BINARY_2_ASCII
         3 002116   000000 011000                    NOP     0
         3 002117   002136 710000 3                  TRA     s:9733

      616     9726    4         SELECT ('~WIR') ;

      617     9727    4         CALL INSERT (MSG, R_START, 6, REVISION_B.VERSION) ;

   9727  3 002120   040105 100400                    MLR     fill='040'O
         3 002121   000000 000006 xsym               ADSC9   REVISION_B               cn=0,n=6
         3 002122   100000 000006                    ADSC9   0,A,PR1                  cn=0,n=6
         3 002123   002136 710000 3                  TRA     s:9733

      618     9728    4         SELECT ('~WSN') ;

      619     9729    4         CALL INSERT (MSG, R_START, DUP.SITE_NAME.LGTH, DUP.SITE_NAME.TEXT) ;

   9729  3 002124   000160 236000 xsym               LDQ     DUP+112
         3 002125   000033 772000                    QRL     27
         3 002126   000000 622006                    EAX2    0,QL
         3 002127   040145 100400                    MLR     fill='040'O
         3 002130   000160 200167 xsym               ADSC9   DUP+112                  cn=1,n=119
         3 002131   100000 000012                    ADSC9   0,A,PR1                  cn=0,n=*X2
         3 002132   002136 710000 3                  TRA     s:9733

      620     9730    4         SELECT ('~WSI') ;

      621     9731    4         CALL INSERT (MSG, R_START, 6, DUP.SITE_ID) ;
PL6.E3A0      #001=TOU$REPLACE File=TOU$REPLACE.:E05TSI                          WED 07/30/97 06:50 Page:108

   9731  3 002133   040105 100400                    MLR     fill='040'O
         3 002134   000216 000006 xsym               ADSC9   DUP+142                  cn=0,n=6
         3 002135   100000 000006                    ADSC9   0,A,PR1                  cn=0,n=6

      622     9732    4      END /* SELECT */ ;

      623     9733    3      RETURN ;

   9733  3 002136   200010 221300                    LDX1  ! R_START+3,,AUTO
         3 002137   000001 702211                    TSX2  ! 1,X1

      624     9734
      625     9735    3   END SUB_FOR_LETTER_W ;
      626     9736        %EJECT ;
PL6.E3A0      #001=TOU$REPLACE File=TOU$REPLACE.:E05TSI                          WED 07/30/97 06:50 Page:109
      627     9737    2   SUB_FOR_LETTER_X: PROC ;

   9737  3 002140   200010 741300       SUB_FOR_LET* STX1  ! R_START+3,,AUTO

      628     9738
      629     9739    3      DCL PTR$    PTR ALIGNED ;
      630     9740           %DISKETTE_HEADER (STCLASS = "BASED (PTR$)") ;
      631     9776
      632     9777        /* Code */
      633     9778
      634     9779    3      PTR$ = ADDR (MCA_B.DISKETTE_HEADER.DATA) ;

   9779  3 002141   000101 236000 xsym               LDQ     DUP+65
         3 002142   000036 036003                    ADLQ    30,DU
         3 002143   200011 756100                    STQ     PTR$,,AUTO

      635     9780    4      DO SELECT (SUBSTR (MSG, R_START, 4)) ;

   9780  3 002144   200004 470500                    LDP0    @MSG_LGTH,,AUTO
         3 002145   000000 720100                    LXL0    0,,PR0
         3 002146   200003 471500                    LDP1    @MSG,,AUTO
         3 002147   200005 235100                    LDA     R_START,,AUTO
         3 002150   040000 106505                    CMPC    fill='040'O
         3 002151   100000 000004                    ADSC9   0,A,PR1                  cn=0,n=4
         3 002152   000130 000004 2                  ADSC9   88                       cn=0,n=4
         3 002153   002213 602000 3                  TNC     s:9780+39
         3 002154   002266 600000 3                  TZE     s:9790
         3 002155   040000 106505                    CMPC    fill='040'O
         3 002156   100000 000004                    ADSC9   0,A,PR1                  cn=0,n=4
         3 002157   000131 000004 2                  ADSC9   89                       cn=0,n=4
         3 002160   002201 602000 3                  TNC     s:9780+29
         3 002161   002232 600000 3                  TZE     s:9782
         3 002162   040000 106505                    CMPC    fill='040'O
         3 002163   100000 000004                    ADSC9   0,A,PR1                  cn=0,n=4
         3 002164   000132 000004 2                  ADSC9   90                       cn=0,n=4
         3 002165   002174 602000 3                  TNC     s:9780+24
         3 002166   002317 600000 3                  TZE     s:9800
PL6.E3A0      #001=TOU$REPLACE File=TOU$REPLACE.:E05TSI                          WED 07/30/97 06:50 Page:110
         3 002167   040000 106505                    CMPC    fill='040'O
         3 002170   100000 000004                    ADSC9   0,A,PR1                  cn=0,n=4
         3 002171   000133 000004 2                  ADSC9   91                       cn=0,n=4
         3 002172   002323 601000 3                  TNZ     s:9802
         3 002173   002312 710000 3                  TRA     s:9798
         3 002174   040000 106505                    CMPC    fill='040'O
         3 002175   100000 000004                    ADSC9   0,A,PR1                  cn=0,n=4
         3 002176   000134 000004 2                  ADSC9   92                       cn=0,n=4
         3 002177   002323 601000 3                  TNZ     s:9802
         3 002200   002237 710000 3                  TRA     s:9784
         3 002201   040000 106505                    CMPC    fill='040'O
         3 002202   100000 000004                    ADSC9   0,A,PR1                  cn=0,n=4
         3 002203   000135 000004 2                  ADSC9   93                       cn=0,n=4
         3 002204   002323 602000 3                  TNC     s:9802
         3 002205   002273 600000 3                  TZE     s:9792
         3 002206   040000 106505                    CMPC    fill='040'O
         3 002207   100000 000004                    ADSC9   0,A,PR1                  cn=0,n=4
         3 002210   000136 000004 2                  ADSC9   94                       cn=0,n=4
         3 002211   002323 601000 3                  TNZ     s:9802
         3 002212   002305 710000 3                  TRA     s:9796
         3 002213   040000 106505                    CMPC    fill='040'O
         3 002214   100000 000004                    ADSC9   0,A,PR1                  cn=0,n=4
         3 002215   000137 000004 2                  ADSC9   95                       cn=0,n=4
         3 002216   002225 602000 3                  TNC     s:9780+49
         3 002217   002300 600000 3                  TZE     s:9794
         3 002220   040000 106505                    CMPC    fill='040'O
         3 002221   100000 000004                    ADSC9   0,A,PR1                  cn=0,n=4
         3 002222   000140 000004 2                  ADSC9   96                       cn=0,n=4
         3 002223   002323 601000 3                  TNZ     s:9802
         3 002224   002244 710000 3                  TRA     s:9786
         3 002225   040000 106505                    CMPC    fill='040'O
         3 002226   100000 000004                    ADSC9   0,A,PR1                  cn=0,n=4
         3 002227   000141 000004 2                  ADSC9   97                       cn=0,n=4
         3 002230   002323 601000 3                  TNZ     s:9802
         3 002231   002261 710000 3                  TRA     s:9788

      636     9781    4         SELECT ('~XTI') ;
PL6.E3A0      #001=TOU$REPLACE File=TOU$REPLACE.:E05TSI                          WED 07/30/97 06:50 Page:111

      637     9782    4         CALL INSERT (MSG, R_START, 8, DISKETTE_HEADER.TITLE) ;

   9782  3 002232   200011 473500                    LDP3    PTR$,,AUTO
         3 002233   040105 100500                    MLR     fill='040'O
         3 002234   300015 600010                    ADSC9   13,,PR3                  cn=3,n=8
         3 002235   100000 000010                    ADSC9   0,A,PR1                  cn=0,n=8
         3 002236   002323 710000 3                  TRA     s:9802

      638     9783    4         SELECT ('~XUI') ;

      639     9784    4         CALL INSERT (MSG, R_START, 8, DISKETTE_HEADER.UNIQUE_ID) ;

   9784  3 002237   200011 473500                    LDP3    PTR$,,AUTO
         3 002240   040105 100500                    MLR     fill='040'O
         3 002241   300017 600010                    ADSC9   15,,PR3                  cn=3,n=8
         3 002242   100000 000010                    ADSC9   0,A,PR1                  cn=0,n=8
         3 002243   002323 710000 3                  TRA     s:9802

      640     9785    4         SELECT ('~XDS') ;

      641     9786    4         CALL MCA_2_ASCII (6, BINBIT (DISKETTE_HEADER.DIR_SIZE, 36)) ;

   9786  3 002244   200011 473500                    LDP3    PTR$,,AUTO
         3 002245   000100 101500                    MRL     fill='000'O
         3 002246   300027 200002                    ADSC9   23,,PR3                  cn=1,n=2
         3 002247   200022 000004                    ADSC9   STRING+2,,AUTO           cn=0,n=4
         3 002250   200022 236100                    LDQ     STRING+2,,AUTO
         3 002251   200056 756100                    STQ     STRING+30,,AUTO
         3 002252   200056 634500                    EPPR4   STRING+30,,AUTO
         3 002253   200014 454500                    STP4    @SIZE+1,,AUTO
         3 002254   000026 236000 4                  LDQ     22
         3 002255   200013 756100                    STQ     LGTH+1,,AUTO
         3 002256   002623 701000 3                  TSX1    MCA_2_ASCII
         3 002257   000000 011000                    NOP     0
         3 002260   002323 710000 3                  TRA     s:9802

PL6.E3A0      #001=TOU$REPLACE File=TOU$REPLACE.:E05TSI                          WED 07/30/97 06:50 Page:112
      642     9787    4         SELECT ('~XCN') ;

      643     9788    4         CALL INSERT (MSG, R_START, 8, DISKETTE_HEADER.CONFIG_NAME) ;

   9788  3 002261   200011 473500                    LDP3    PTR$,,AUTO
         3 002262   040105 100500                    MLR     fill='040'O
         3 002263   300027 600010                    ADSC9   23,,PR3                  cn=3,n=8
         3 002264   100000 000010                    ADSC9   0,A,PR1                  cn=0,n=8
         3 002265   002323 710000 3                  TRA     s:9802

      644     9789    4         SELECT ('~XET') ;

      645     9790    4         CALL INSERT (MSG, R_START, 4, DISKETTE_HEADER.EQUIP_TYPE) ;

   9790  3 002266   200011 473500                    LDP3    PTR$,,AUTO
         3 002267   040105 100500                    MLR     fill='040'O
         3 002270   300032 400004                    ADSC9   26,,PR3                  cn=2,n=4
         3 002271   100000 000004                    ADSC9   0,A,PR1                  cn=0,n=4
         3 002272   002323 710000 3                  TRA     s:9802

      646     9791    4         SELECT ('~XIN') ;

      647     9792    4         CALL INSERT (MSG, R_START, 12, DISKETTE_HEADER.IPI_NUM_) ;

   9792  3 002273   200011 473500                    LDP3    PTR$,,AUTO
         3 002274   040105 100500                    MLR     fill='040'O
         3 002275   300033 400014                    ADSC9   27,,PR3                  cn=2,n=12
         3 002276   100000 000014                    ADSC9   0,A,PR1                  cn=0,n=12
         3 002277   002323 710000 3                  TRA     s:9802

      648     9793    4         SELECT ('~XDN') ;

      649     9794    4         CALL INSERT (MSG, R_START, 12, DISKETTE_HEADER.DISK_DWG_NUM) ;

   9794  3 002300   200011 473500                    LDP3    PTR$,,AUTO
         3 002301   040105 100500                    MLR     fill='040'O
         3 002302   300036 400014                    ADSC9   30,,PR3                  cn=2,n=12
PL6.E3A0      #001=TOU$REPLACE File=TOU$REPLACE.:E05TSI                          WED 07/30/97 06:50 Page:113
         3 002303   100000 000014                    ADSC9   0,A,PR1                  cn=0,n=12
         3 002304   002323 710000 3                  TRA     s:9802

      650     9795    4         SELECT ('~XPT') ;

      651     9796    4         CALL INSERT (MSG, R_START, 3, DISKETTE_HEADER.IPI_NUM.PRD_NUM_TAB) ;

   9796  3 002305   200011 473500                    LDP3    PTR$,,AUTO
         3 002306   040105 100500                    MLR     fill='040'O
         3 002307   300035 600003                    ADSC9   29,,PR3                  cn=3,n=3
         3 002310   100000 000003                    ADSC9   0,A,PR1                  cn=0,n=3
         3 002311   002323 710000 3                  TRA     s:9802

      652     9797    4         SELECT ('~XXX') ;

      653     9798    4         CALL INSERT (MSG, R_START, 1, DISKETTE_HEADER.X_OF_N.X);

   9798  3 002312   200011 473500                    LDP3    PTR$,,AUTO
         3 002313   040105 100500                    MLR     fill='040'O
         3 002314   300041 400001                    ADSC9   33,,PR3                  cn=2,n=1
         3 002315   100000 000001                    ADSC9   0,A,PR1                  cn=0,n=1
         3 002316   002323 710000 3                  TRA     s:9802

      654     9799    4         SELECT ('~XXN') ;

      655     9800    4         CALL INSERT (MSG, R_START, 1, DISKETTE_HEADER.X_OF_N.N) ;

   9800  3 002317   200011 473500                    LDP3    PTR$,,AUTO
         3 002320   040105 100500                    MLR     fill='040'O
         3 002321   300041 600001                    ADSC9   33,,PR3                  cn=3,n=1
         3 002322   100000 000001                    ADSC9   0,A,PR1                  cn=0,n=1

      656     9801    4      END /* SELECT */ ;

      657     9802    3      RETURN ;

   9802  3 002323   200010 221300                    LDX1  ! R_START+3,,AUTO
PL6.E3A0      #001=TOU$REPLACE File=TOU$REPLACE.:E05TSI                          WED 07/30/97 06:50 Page:114
         3 002324   000001 702211                    TSX2  ! 1,X1

      658     9803
      659     9804    3   END SUB_FOR_LETTER_X ;
      660     9805        %EJECT ;
PL6.E3A0      #001=TOU$REPLACE File=TOU$REPLACE.:E05TSI                          WED 07/30/97 06:50 Page:115
      661     9806    2   SUB_FOR_LETTER_Y: PROC ;

   9806  3 002325   200010 741300       SUB_FOR_LET* STX1  ! R_START+3,,AUTO

      662     9807
      663     9808    3      DCL PTR$    PTR ALIGNED ;
      664     9809           %DIRECTORY_ENTRY (STCLASS = "BASED (PTR$)") ;
      665     9836
      666     9837        /* Code */
      667     9838
      668     9839    3      PTR$ = ADDR (MCA_B.DIRECTORY.CURRENT) ;

   9839  3 002326   000101 236000 xsym               LDQ     DUP+65
         3 002327   001311 036003                    ADLQ    713,DU
         3 002330   200011 756100                    STQ     PTR$,,AUTO

      669     9840    4      DO SELECT (SUBSTR (MSG, R_START, 4)) ;

   9840  3 002331   200004 470500                    LDP0    @MSG_LGTH,,AUTO
         3 002332   000000 720100                    LXL0    0,,PR0
         3 002333   200003 471500                    LDP1    @MSG,,AUTO
         3 002334   200005 235100                    LDA     R_START,,AUTO
         3 002335   040000 106505                    CMPC    fill='040'O
         3 002336   100000 000004                    ADSC9   0,A,PR1                  cn=0,n=4
         3 002337   000142 000004 2                  ADSC9   98                       cn=0,n=4
         3 002340   002343 602000 3                  TNC     s:9840+10
         3 002341   002350 600000 3                  TZE     s:9842
         3 002342   002371 710000 3                  TRA     s:9846
         3 002343   040000 106505                    CMPC    fill='040'O
         3 002344   100000 000004                    ADSC9   0,A,PR1                  cn=0,n=4
         3 002345   000143 000004 2                  ADSC9   99                       cn=0,n=4
         3 002346   002371 601000 3                  TNZ     s:9846
         3 002347   002355 710000 3                  TRA     s:9844

      670     9841    4         SELECT ('~YPN') ;

      671     9842    4         CALL INSERT (MSG, R_START, 8, DIRECTORY_ENTRY.PATH_NAME) ;
PL6.E3A0      #001=TOU$REPLACE File=TOU$REPLACE.:E05TSI                          WED 07/30/97 06:50 Page:116

   9842  3 002350   200011 473500                    LDP3    PTR$,,AUTO
         3 002351   040105 100500                    MLR     fill='040'O
         3 002352   300000 000010                    ADSC9   0,,PR3                   cn=0,n=8
         3 002353   100000 000010                    ADSC9   0,A,PR1                  cn=0,n=8
         3 002354   002371 710000 3                  TRA     s:9846

      672     9843    4         SELECT ('~YFS') ;

      673     9844    4         CALL MCA_2_ASCII (6, BINBIT (DIRECTORY_ENTRY.FILE_SIZE, 36)) ;

   9844  3 002355   200011 473500                    LDP3    PTR$,,AUTO
         3 002356   000100 101500                    MRL     fill='000'O
         3 002357   300002 400002                    ADSC9   2,,PR3                   cn=2,n=2
         3 002360   200022 000004                    ADSC9   STRING+2,,AUTO           cn=0,n=4
         3 002361   200022 236100                    LDQ     STRING+2,,AUTO
         3 002362   200060 756100                    STQ     STRING+32,,AUTO
         3 002363   200060 634500                    EPPR4   STRING+32,,AUTO
         3 002364   200014 454500                    STP4    @SIZE+1,,AUTO
         3 002365   000026 236000 4                  LDQ     22
         3 002366   200013 756100                    STQ     LGTH+1,,AUTO
         3 002367   002623 701000 3                  TSX1    MCA_2_ASCII
         3 002370   000000 011000                    NOP     0

      674     9845    4      END /* SELECT */ ;

      675     9846    3      RETURN ;

   9846  3 002371   200010 221300                    LDX1  ! R_START+3,,AUTO
         3 002372   000001 702211                    TSX2  ! 1,X1

      676     9847
      677     9848    3   END SUB_FOR_LETTER_Y ;
      678     9849        %EJECT ;
PL6.E3A0      #001=TOU$REPLACE File=TOU$REPLACE.:E05TSI                          WED 07/30/97 06:50 Page:117
      679     9850    2   SUB_FOR_LETTER_Z: PROC ;

   9850  3 002373   200010 741300       SUB_FOR_LET* STX1  ! R_START+3,,AUTO

      680     9851
      681     9852    3      DCL PTR$    PTR ALIGNED ;
      682     9853           %DISKETTE_FILE (STCLASS = "BASED (PTR$)") ;
      683     9895
      684     9896        /* Code */
      685     9897
      686     9898    3      PTR$ = ADDR (MCA_B.FILE.DATA) ;

   9898  3 002374   000101 236000 xsym               LDQ     DUP+65
         3 002375   001325 036003                    ADLQ    725,DU
         3 002376   200011 756100                    STQ     PTR$,,AUTO

      687     9899    4      DO SELECT (SUBSTR (MSG, R_START, 4)) ;

   9899  3 002377   200004 470500                    LDP0    @MSG_LGTH,,AUTO
         3 002400   000000 720100                    LXL0    0,,PR0
         3 002401   200003 471500                    LDP1    @MSG,,AUTO
         3 002402   200005 235100                    LDA     R_START,,AUTO
         3 002403   040000 106505                    CMPC    fill='040'O
         3 002404   100000 000004                    ADSC9   0,A,PR1                  cn=0,n=4
         3 002405   000144 000004 2                  ADSC9   100                      cn=0,n=4
         3 002406   002434 602000 3                  TNC     s:9899+29
         3 002407   002453 600000 3                  TZE     s:9901
         3 002410   040000 106505                    CMPC    fill='040'O
         3 002411   100000 000004                    ADSC9   0,A,PR1                  cn=0,n=4
         3 002412   000145 000004 2                  ADSC9   101                      cn=0,n=4
         3 002413   002422 602000 3                  TNC     s:9899+19
         3 002414   002477 600000 3                  TZE     s:9909
         3 002415   040000 106505                    CMPC    fill='040'O
         3 002416   100000 000004                    ADSC9   0,A,PR1                  cn=0,n=4
         3 002417   000146 000004 2                  ADSC9   102                      cn=0,n=4
         3 002420   002542 601000 3                  TNZ     s:9917
         3 002421   002465 710000 3                  TRA     s:9905
PL6.E3A0      #001=TOU$REPLACE File=TOU$REPLACE.:E05TSI                          WED 07/30/97 06:50 Page:118
         3 002422   040000 106505                    CMPC    fill='040'O
         3 002423   100000 000004                    ADSC9   0,A,PR1                  cn=0,n=4
         3 002424   000147 000004 2                  ADSC9   103                      cn=0,n=4
         3 002425   002542 602000 3                  TNC     s:9917
         3 002426   002504 600000 3                  TZE     s:9911
         3 002427   040000 106505                    CMPC    fill='040'O
         3 002430   100000 000004                    ADSC9   0,A,PR1                  cn=0,n=4
         3 002431   000150 000004 2                  ADSC9   104                      cn=0,n=4
         3 002432   002542 601000 3                  TNZ     s:9917
         3 002433   002526 710000 3                  TRA     s:9915
         3 002434   040000 106505                    CMPC    fill='040'O
         3 002435   100000 000004                    ADSC9   0,A,PR1                  cn=0,n=4
         3 002436   000151 000004 2                  ADSC9   105                      cn=0,n=4
         3 002437   002446 602000 3                  TNC     s:9899+39
         3 002440   002511 600000 3                  TZE     s:9913
         3 002441   040000 106505                    CMPC    fill='040'O
         3 002442   100000 000004                    ADSC9   0,A,PR1                  cn=0,n=4
         3 002443   000152 000004 2                  ADSC9   106                      cn=0,n=4
         3 002444   002542 601000 3                  TNZ     s:9917
         3 002445   002460 710000 3                  TRA     s:9903
         3 002446   040000 106505                    CMPC    fill='040'O
         3 002447   100000 000004                    ADSC9   0,A,PR1                  cn=0,n=4
         3 002450   000153 000004 2                  ADSC9   107                      cn=0,n=4
         3 002451   002542 601000 3                  TNZ     s:9917
         3 002452   002472 710000 3                  TRA     s:9907

      688     9900    4         SELECT ('~ZMT') ;

      689     9901    4         CALL INSERT (MSG, R_START, 4, DISKETTE_FILE.HDR.MODULE_TYPE) ;

   9901  3 002453   200011 473500                    LDP3    PTR$,,AUTO
         3 002454   040105 100500                    MLR     fill='040'O
         3 002455   300000 000004                    ADSC9   0,,PR3                   cn=0,n=4
         3 002456   100000 000004                    ADSC9   0,A,PR1                  cn=0,n=4
         3 002457   002542 710000 3                  TRA     s:9917

      690     9902    4         SELECT ('~ZET') ;
PL6.E3A0      #001=TOU$REPLACE File=TOU$REPLACE.:E05TSI                          WED 07/30/97 06:50 Page:119

      691     9903    4         CALL INSERT (MSG, R_START, 4, DISKETTE_FILE.HDR.EQUIP_TYPE) ;

   9903  3 002460   200011 473500                    LDP3    PTR$,,AUTO
         3 002461   040105 100500                    MLR     fill='040'O
         3 002462   300001 000004                    ADSC9   1,,PR3                   cn=0,n=4
         3 002463   100000 000004                    ADSC9   0,A,PR1                  cn=0,n=4
         3 002464   002542 710000 3                  TRA     s:9917

      692     9904    4         SELECT ('~ZUN') ;

      693     9905    4         CALL INSERT (MSG, R_START, 8, DISKETTE_FILE.HDR.UNIQUE_NAME) ;

   9905  3 002465   200011 473500                    LDP3    PTR$,,AUTO
         3 002466   040105 100500                    MLR     fill='040'O
         3 002467   300002 000010                    ADSC9   2,,PR3                   cn=0,n=8
         3 002470   100000 000010                    ADSC9   0,A,PR1                  cn=0,n=8
         3 002471   002542 710000 3                  TRA     s:9917

      694     9906    4         SELECT ('~ZDN') ;

      695     9907    4         CALL INSERT (MSG, R_START, 12, DISKETTE_FILE.HDR.MOD_DWG_NUM) ;

   9907  3 002472   200011 473500                    LDP3    PTR$,,AUTO
         3 002473   040105 100500                    MLR     fill='040'O
         3 002474   300004 000014                    ADSC9   4,,PR3                   cn=0,n=12
         3 002475   100000 000014                    ADSC9   0,A,PR1                  cn=0,n=12
         3 002476   002542 710000 3                  TRA     s:9917

      696     9908    4         SELECT ('~ZTD') ;

      697     9909    4         CALL INSERT (MSG, R_START, 6, DISKETTE_FILE.HDR.TTL_DATE) ;

   9909  3 002477   200011 473500                    LDP3    PTR$,,AUTO
         3 002500   040105 100500                    MLR     fill='040'O
         3 002501   300007 000006                    ADSC9   7,,PR3                   cn=0,n=6
         3 002502   100000 000006                    ADSC9   0,A,PR1                  cn=0,n=6
PL6.E3A0      #001=TOU$REPLACE File=TOU$REPLACE.:E05TSI                          WED 07/30/97 06:50 Page:120
         3 002503   002542 710000 3                  TRA     s:9917

      698     9910    4         SELECT ('~ZPR') ;

      699     9911    4         CALL INSERT (MSG, R_START, 4, DISKETTE_FILE.HDR.PGM_REV) ;

   9911  3 002504   200011 473500                    LDP3    PTR$,,AUTO
         3 002505   040105 100500                    MLR     fill='040'O
         3 002506   300010 400001                    ADSC9   8,,PR3                   cn=2,n=1
         3 002507   100000 000004                    ADSC9   0,A,PR1                  cn=0,n=4
         3 002510   002542 710000 3                  TRA     s:9917

      700     9912    4         SELECT ('~ZDT') ;

      701     9913    4         CALL BINARY_2_ASCII (4, BINBIT (DISKETTE_FILE.HDR.DISK_TAB, 36)) ;

   9913  3 002511   200011 473500                    LDP3    PTR$,,AUTO
         3 002512   000100 101500                    MRL     fill='000'O
         3 002513   300010 600001                    ADSC9   8,,PR3                   cn=3,n=1
         3 002514   200022 000004                    ADSC9   STRING+2,,AUTO           cn=0,n=4
         3 002515   200022 236100                    LDQ     STRING+2,,AUTO
         3 002516   200062 756100                    STQ     STRING+34,,AUTO
         3 002517   200062 634500                    EPPR4   STRING+34,,AUTO
         3 002520   200016 454500                    STP4    TEMP_+1,,AUTO
         3 002521   000031 236000 4                  LDQ     25
         3 002522   200015 756100                    STQ     @BINARY+1,,AUTO
         3 002523   002544 701000 3                  TSX1    BINARY_2_ASCII
         3 002524   000000 011000                    NOP     0
         3 002525   002542 710000 3                  TRA     s:9917

      702     9914    4         SELECT ('~ZRT') ;

      703     9915    4         CALL BINARY_2_ASCII (4, BINBIT (DISKETTE_FILE.LD_CTL.REC_TYPE, 36)) ;

   9915  3 002526   200011 473500                    LDP3    PTR$,,AUTO
         3 002527   000100 101500                    MRL     fill='000'O
         3 002530   300100 000001                    ADSC9   64,,PR3                  cn=0,n=1
PL6.E3A0      #001=TOU$REPLACE File=TOU$REPLACE.:E05TSI                          WED 07/30/97 06:50 Page:121
         3 002531   200022 000004                    ADSC9   STRING+2,,AUTO           cn=0,n=4
         3 002532   200022 236100                    LDQ     STRING+2,,AUTO
         3 002533   200064 756100                    STQ     STRING+36,,AUTO
         3 002534   200064 634500                    EPPR4   STRING+36,,AUTO
         3 002535   200016 454500                    STP4    TEMP_+1,,AUTO
         3 002536   000031 236000 4                  LDQ     25
         3 002537   200015 756100                    STQ     @BINARY+1,,AUTO
         3 002540   002544 701000 3                  TSX1    BINARY_2_ASCII
         3 002541   000000 011000                    NOP     0

      704     9916    4      END /* SELECT */ ;

      705     9917    3      RETURN ;

   9917  3 002542   200010 221300                    LDX1  ! R_START+3,,AUTO
         3 002543   000001 702211                    TSX2  ! 1,X1

      706     9918
      707     9919    3   END SUB_FOR_LETTER_Z ;
      708     9920    2   END SELECT_LETTER ;
      709     9921        %EJECT ;
PL6.E3A0      #001=TOU$REPLACE File=TOU$REPLACE.:E05TSI                          WED 07/30/97 06:50 Page:122
      710     9922    1   BINARY_2_ASCII: PROC (SIZE, BINARY) ;

   9922  3 002544   200014 741300       BINARY_2_AS* STX1  ! @SIZE+1,,AUTO

      711     9923
      712     9924    2      DCL BINARY  UBIN WORD     ALIGNED;
      713     9925    2      DCL M       UBIN WORD     ALIGNED;
      714     9926    2      DCL SIZE    UBIN WORD     ALIGNED;
      715     9927    2      DCL STRING  CHAR (8)    ALIGNED;
      716     9928    2      DCL STRING_CHAR (0:7) REDEF STRING CHAR (1) UNAL;
      717     9929
      718     9930        /* Code */
      719     9931
      720     9932    2      CALL BINCHAR (STRING, BINARY) ;

   9932  3 002545   200016 470500                    LDP0    @BINARY,,AUTO
         3 002546   000000 235100                    LDA     0,,PR0
         3 002547   000044 773000                    LRL     36
         3 002550   200022 757100                    STAQ    STRING+2,,AUTO
         3 002551   000100 301500                    BTD
         3 002552   200022 000010                    NDSC9   STRING+2,,AUTO           cn=0,s=lsgnf,sf=0,n=8
         3 002553   200020 030010                    NDSC9   STRING,,AUTO             cn=0,s=nosgn,sf=0,n=8

      721     9933    2      M = 0;

   9933  3 002554   200017 450100                    STZ     M,,AUTO

      722     9934    3      DO WHILE (STRING_CHAR(M) = '0' & M < 7);

   9934  3 002555   002564 710000 3                  TRA     s:9937

      723     9935    3         STRING_CHAR(M) = ' ';

   9935  3 002556   200017 235100                    LDA     M,,AUTO
         3 002557   040105 100400                    MLR     fill='040'O
         3 002560   000035 000001 xsym               ADSC9   B_VECTNIL+29             cn=0,n=1
         3 002561   200020 000001                    ADSC9   STRING,A,AUTO            cn=0,n=1
PL6.E3A0      #001=TOU$REPLACE File=TOU$REPLACE.:E05TSI                          WED 07/30/97 06:50 Page:123

      724     9936    3         M = M + 1;

   9936  3 002562   000001 035007                    ADLA    1,DL
         3 002563   200017 755100                    STA     M,,AUTO

      725     9937    3      END /* WHILE */ ;

   9937  3 002564   400000 220003                    LDX0    -131072,DU
         3 002565   200017 235100                    LDA     M,,AUTO
         3 002566   040000 106505                    CMPC    fill='040'O
         3 002567   200020 000001                    ADSC9   STRING,A,AUTO            cn=0,n=1
         3 002570   000037 000001 4                  ADSC9   31                       cn=0,n=1
         3 002571   002573 600000 3                  TZE     s:9937+7
         3 002572   000000 220003                    LDX0    0,DU
         3 002573   400000 221003                    LDX1    -131072,DU
         3 002574   000007 115007                    CMPA    7,DL
         3 002575   002577 602000 3                  TNC     s:9937+11
         3 002576   000000 221003                    LDX1    0,DU
         3 002577   000000 636011                    EAQ     0,X1
         3 002600   200022 756100                    STQ     STRING+2,,AUTO
         3 002601   000000 636010                    EAQ     0,X0
         3 002602   200022 376100                    ANQ     STRING+2,,AUTO
         3 002603   002556 601000 3                  TNZ     s:9935

      726     9938    2      CALL INSERT (MSG, R_START, SIZE, SUBSTR (STRING, 8 - SIZE)) ;

   9938  3 002604   200004 470500                    LDP0    @MSG_LGTH,,AUTO
         3 002605   000000 720100                    LXL0    0,,PR0
         3 002606   200015 471500                    LDP1    @SIZE,,AUTO
         3 002607   100000 235100                    LDA     0,,PR1
         3 002610   100000 721100                    LXL1    0,,PR1
         3 002611   100000 722100                    LXL2    0,,PR1
         3 002612   000027 675000 xsym               ERA     B_VECTNIL+23
         3 002613   000001 035007                    ADLA    1,DL
         3 002614   200003 473500                    LDP3    @MSG,,AUTO
         3 002615   200005 236100                    LDQ     R_START,,AUTO
PL6.E3A0      #001=TOU$REPLACE File=TOU$REPLACE.:E05TSI                          WED 07/30/97 06:50 Page:124
         3 002616   040146 100545                    MLR     fill='040'O
         3 002617   200022 000011                    ADSC9   STRING+2,A,AUTO          cn=0,n=*X1
         3 002620   300000 000012                    ADSC9   0,Q,PR3                  cn=0,n=*X2

      727     9939    2      RETURN;

   9939  3 002621   200014 221300                    LDX1  ! @SIZE+1,,AUTO
         3 002622   000001 702211                    TSX2  ! 1,X1

      728     9940
      729     9941    2   END BINARY_2_ASCII;
      730     9942        %EJECT ;
PL6.E3A0      #001=TOU$REPLACE File=TOU$REPLACE.:E05TSI                          WED 07/30/97 06:50 Page:125
      731     9943    1   MCA_2_ASCII: PROC (SIZE, BINARY) ;

   9943  3 002623   200012 741300       MCA_2_ASCII  STX1  ! LGTH,,AUTO

      732     9944
      733     9945    2      DCL BINARY  UBIN WORD ALIGNED;
      734     9946    2      DCL TEMP_   UBIN WORD ALIGNED ;
      735     9947    2      DCL 1 TEMP REDEF TEMP_ ALIGNED,
      736     9948    2            2 *   UBIN (18) UNAL,
      737     9949    2            2 U   UBIN (10) UNAL,
      738     9950    2            2 L   UBIN (8)  UNAL ;
      739     9951    2      DCL M       UBIN WORD ALIGNED;
      740     9952    2      DCL SIZE    UBIN WORD ALIGNED;
      741     9953    2      DCL STRING  CHAR (8)  ALIGNED;
      742     9954    2      DCL STRING_CHAR (0:7) REDEF STRING CHAR (1) CALIGNED ;
      743     9955
      744     9956        /* Code */
      745     9957
      746     9958    2      TEMP_ = BINARY ;

   9958  3 002624   200014 470500                    LDP0    @BINARY,,AUTO
         3 002625   000000 235100                    LDA     0,,PR0
         3 002626   200015 755100                    STA     TEMP_,,AUTO

      747     9959    2      TEMP.U = TEMP.U / 2 ;

   9959  3 002627   200015 236100                    LDQ     TEMP_,,AUTO
         3 002630   000010 772000                    QRL     8
         3 002631   001777 376007                    ANQ     1023,DL
         3 002632   000001 772000                    QRL     1
         3 002633   000010 736000                    QLS     8
         3 002634   200015 676100                    ERQ     TEMP_,,AUTO
         3 002635   777400 376007                    ANQ     -256,DL
         3 002636   200015 656100                    ERSQ    TEMP_,,AUTO

      748     9960    2      CALL BINCHAR (STRING, TEMP_) ;

PL6.E3A0      #001=TOU$REPLACE File=TOU$REPLACE.:E05TSI                          WED 07/30/97 06:50 Page:126
   9960  3 002637   200015 236100                    LDQ     TEMP_,,AUTO
         3 002640   000000 235003                    LDA     0,DU
         3 002641   200022 757100                    STAQ    STRING+2,,AUTO
         3 002642   000100 301500                    BTD
         3 002643   200022 000010                    NDSC9   STRING+2,,AUTO           cn=0,s=lsgnf,sf=0,n=8
         3 002644   200017 030010                    NDSC9   STRING,,AUTO             cn=0,s=nosgn,sf=0,n=8

      749     9961    2      M = 0;

   9961  3 002645   200016 450100                    STZ     M,,AUTO

      750     9962    3      DO WHILE (STRING_CHAR(M) = '0' & M < 7);

   9962  3 002646   002655 710000 3                  TRA     s:9965

      751     9963    3         STRING_CHAR(M) = ' ';

   9963  3 002647   200016 235100                    LDA     M,,AUTO
         3 002650   040105 100400                    MLR     fill='040'O
         3 002651   000035 000001 xsym               ADSC9   B_VECTNIL+29             cn=0,n=1
         3 002652   200017 000001                    ADSC9   STRING,A,AUTO            cn=0,n=1

      752     9964    3         M = M + 1;

   9964  3 002653   000001 035007                    ADLA    1,DL
         3 002654   200016 755100                    STA     M,,AUTO

      753     9965    3      END /* WHILE */ ;

   9965  3 002655   400000 220003                    LDX0    -131072,DU
         3 002656   200016 235100                    LDA     M,,AUTO
         3 002657   040000 106505                    CMPC    fill='040'O
         3 002660   200017 000001                    ADSC9   STRING,A,AUTO            cn=0,n=1
         3 002661   000037 000001 4                  ADSC9   31                       cn=0,n=1
         3 002662   002664 600000 3                  TZE     s:9965+7
         3 002663   000000 220003                    LDX0    0,DU
         3 002664   400000 221003                    LDX1    -131072,DU
PL6.E3A0      #001=TOU$REPLACE File=TOU$REPLACE.:E05TSI                          WED 07/30/97 06:50 Page:127
         3 002665   000007 115007                    CMPA    7,DL
         3 002666   002670 602000 3                  TNC     s:9965+11
         3 002667   000000 221003                    LDX1    0,DU
         3 002670   000000 636011                    EAQ     0,X1
         3 002671   200022 756100                    STQ     STRING+2,,AUTO
         3 002672   000000 636010                    EAQ     0,X0
         3 002673   200022 376100                    ANQ     STRING+2,,AUTO
         3 002674   002647 601000 3                  TNZ     s:9963

      754     9966    2      CALL INSERT (MSG, R_START, SIZE, SUBSTR (STRING, 8 - SIZE)) ;

   9966  3 002675   200004 470500                    LDP0    @MSG_LGTH,,AUTO
         3 002676   000000 720100                    LXL0    0,,PR0
         3 002677   200013 471500                    LDP1    @SIZE,,AUTO
         3 002700   100000 235100                    LDA     0,,PR1
         3 002701   100000 721100                    LXL1    0,,PR1
         3 002702   100000 722100                    LXL2    0,,PR1
         3 002703   000027 675000 xsym               ERA     B_VECTNIL+23
         3 002704   000001 035007                    ADLA    1,DL
         3 002705   200003 473500                    LDP3    @MSG,,AUTO
         3 002706   200005 236100                    LDQ     R_START,,AUTO
         3 002707   040146 100545                    MLR     fill='040'O
         3 002710   200021 000011                    ADSC9   STRING+1,A,AUTO          cn=0,n=*X1
         3 002711   300000 000012                    ADSC9   0,Q,PR3                  cn=0,n=*X2

      755     9967    2      RETURN;

   9967  3 002712   200012 221300                    LDX1  ! LGTH,,AUTO
         3 002713   000001 702211                    TSX2  ! 1,X1

CURRENT
 Sect OctLoc
   1     000   ****** ******   ****** ******   ****** ******   ****** ******    ................

CURRENT_TIME
 Sect OctLoc
   1     006   000001 777640   000020 006000   000001 777640   000000 006000    ................
PL6.E3A0      #001=TOU$REPLACE File=TOU$REPLACE.:E05TSI                          WED 07/30/97 06:50 Page:128
   1     012   000002 577640   000002 006000   000000 177640   000000 006014    ................
   1     016   000000 177640   000000 006014   000003 000000   ****** ******    ................

CURRENT_TIME
 Sect OctLoc
   1     026   000001 777640   000040 006000   000000 177640   000000 006014    ..... ..........
   1     032   000002 577640   000022 006000   000000 177640   000000 006014    ................
   1     036   000000 177640   000000 006014   000003 000000   ****** ******    ................

(unnamed)
 Sect OctLoc
   2     000   176101 040040   102117 123040   107115 101120   114145 166145    ~A  BOS GMAPLeve
   2     004   154066 040040   115120 103040   120114 115040   116157 156145    l6  MPC PLM None
   2     010   176102 114113   176102 114123   176102 103132   176102 103124    ~BLK~BLS~BCZ~BCT
   2     014   176103 114123   040040 040040   176103 117114   040040 040040    ~CLS    ~COL
   2     020   176103 125122   040040 040040   176103 104040   040040 040040    ~CUR    ~CD
   2     024   176103 114101   123040 040040   176103 101124   040040 040040    ~CLAS   ~CAT
   2     030   111124 122040   110116 111117   101060 040040   116111 117040    ITR HNIOA0  NIO
   2     034   106127 040040   115104 122040   176104 101124   105040 040040    FW  MDR ~DATE
   2     040   176104 105103   113040 040040   176105 103040   176105 115040    ~DECK   ~EC ~EM
   2     044   176105 116040   176106 115040   176106 116040   176106 062040    ~EN ~FM ~FN ~F2
   2     050   176110 114107   104101 124105   176110 114107   124111 115105    ~HLGDATE~HLGTIME
   2     054   176110 114107   103101 124101   114117 107040   176110 114107    ~HLGCATALOG ~HLG
   2     060   104105 103113   176111 104040   176111 106101   104137 106111    DECK~ID ~IFAD_FI
   2     064   104040 040040   176111 115130   176111 115102   114113 040040    D   ~IMX~IMBLK
   2     070   176114 102114   176114 111102   176114 117101   104040 040040    ~LBL~LIB~LOAD
   2     074   122105 114117   103040 040040   120122 117107   104101 124101    RELOC   PROGDATA
   2     100   176114 124111   115105 040040   176115 123132   176120 101107    ~LTIME  ~MSZ~PAG
   2     104   105040 040040   176122 040040   176122 103127   176122 125040    E   ~R  ~RCW~RU
   2     110   176122 114111   116113 040040   176123 105040   120101 103124    ~RLINK  ~SE PACT
   2     114   103117 114124   115117 114124   120117 114124   123117 114124    COLTMOLTPOLTSOLT
   2     120   125124 111114   115103 101040   176124 131120   176124 103124    UTILMCA ~TYP~TCT
   2     124   176127 111122   176127 123116   176127 123111   176127 104061    ~WIR~WSN~WSI~WD1
   2     130   176130 105124   176130 124111   176130 130116   176130 130130    ~XET~XTI~XXN~XXX
   2     134   176130 125111   176130 111116   176130 120124   176130 104116    ~XUI~XIN~XPT~XDN
   2     140   176130 104123   176130 103116   176131 120116   176131 106123    ~XDS~XCN~YPN~YFS
   2     144   176132 115124   176132 124104   176132 125116   176132 120122    ~ZMT~ZTD~ZUN~ZPR
PL6.E3A0      #001=TOU$REPLACE File=TOU$REPLACE.:E05TSI                          WED 07/30/97 06:50 Page:129
   2     150   176132 122124   176132 104124   176132 105124   176132 104116    ~ZRT~ZDT~ZET~ZDN

(unnamed)
 Sect OctLoc
   4     000   176040 040040   110040 040040   123040 040040   127040 040040    ~   H   S   W
   4     004   131040 040040   132040 040040   130040 040040   124040 040040    Y   Z   X   T
   4     010   115040 040040   120040 040040   122040 040040   117040 040040    M   P   R   O
   4     014   112040 040040   114040 040040   111040 040040   104040 040040    J   L   I   D
   4     020   106040 040040   107040 040040   105040 040040   102040 040040    F   G   E   B
   4     024   103040 040040   101040 040040   000010 006000   000002 006000    C   A   ........
   4     030   000000 006000   000006 006000   000000 006000   000000 006000    ................
   4     034   000005 006000   000062 006000   000027 006000   060040 040040    .....2......0
      756     9968
      757     9969    2   END MCA_2_ASCII;
      758     9970    1   END TOU$REPLACE;

PL6.E3A0      #001=TOU$REPLACE File=TOU$REPLACE.:E05TSI                          WED 07/30/97 06:50 Page:130
--  Include file information  --

   TOU_DEER_M.:E05TOU  is referenced.
   CP_6_SUBS.:E05TOU  is referenced.
   CP_6_C.:E05TOU  is referenced.
   CP_6.:E05TOU  cannot be made into a system file and is referenced.
   B_ERRORS_C.:E05TOU  is referenced.
      No diagnostics issued in procedure TOU$REPLACE.
PL6.E3A0      #001=TOU$REPLACE File=TOU$REPLACE.:E05TSI                          WED 07/30/97 06:50 Page:131

 **** Procedure blocks ****

LB#    Line#s    #stmts #vars Sect# OctLoc  P A C   NP Lvl/name
  0   152-  9970    326    93     3      0  y   y    2   1 TOU$REPLACE
  1  9320-  9920    299     0     3     41  y   y    0     2 SELECT_LETTER
  2  9373-  9395     18     0     3    322  y   y    0      3 SUB_FOR_LETTER_A
  3  9397-  9412     11     0     3    457  y   y    0      3 SUB_FOR_LETTER_B
  4  9414-  9443     25     0     3    553  y   y    0      3 SUB_FOR_LETTER_C
  5  9445-  9456      7     0     3    740  y   y    0      3 SUB_FOR_LETTER_D
  6  9458-  9471      9     0     3   1000  y   y    0      3 SUB_FOR_LETTER_E
  7  9473-  9487     10     0     3   1070  y   y    0      3 SUB_FOR_LETTER_F
  8  9489-  9496      3     0     3   1142  y   y    0      3 SUB_FOR_LETTER_G
  9  9498-  9513     11     0     3   1154  y   y    0      3 SUB_FOR_LETTER_H
 10  9515-  9537     15     2     3   1252  y   y    0      3 SUB_FOR_LETTER_I
 11  9539-  9546      3     0     3   1341  y   y    0      3 SUB_FOR_LETTER_J
 12  9548-  9596     18     5     3   1353  y   y    0      3 SUB_FOR_LETTER_L
 13  9598-  9607      5     0     3   1454  y   y    0      3 SUB_FOR_LETTER_M
 14  9609-  9617      3     0     3   1504  y   y    0      3 SUB_FOR_LETTER_O
 15  9619-  9628      5     0     3   1516  y   y    0      3 SUB_FOR_LETTER_P
 16  9630-  9651     13     3     3   1547  y   y    0      3 SUB_FOR_LETTER_R
 17  9653-  9677     20     0     3   1647  y   y    0      3 SUB_FOR_LETTER_S
 18  9679-  9717     10     4     3   2005  y   y    0      3 SUB_FOR_LETTER_T
 19  9719-  9735     12     0     3   2054  y   y    0      3 SUB_FOR_LETTER_W
 20  9737-  9804     25    14     3   2140  y   y    0      3 SUB_FOR_LETTER_X
 21  9806-  9848      9     4     3   2325  y   y    0      3 SUB_FOR_LETTER_Y
 22  9850-  9919     21    12     3   2373  y   y    0      3 SUB_FOR_LETTER_Z
 23  9922-  9941      9     7     3   2544  y   y    2     2 BINARY_2_ASCII
 24  9943-  9969     11    10     3   2623  y   y    2     2 MCA_2_ASCII
PL6.E3A0      #001=TOU$REPLACE File=TOU$REPLACE.:E05TSI                          WED 07/30/97 06:50 Page:132

    **** Executable statements  ****

  Exec cost Stmt Sec OctLoc Type   LB Label              Exec cost Stmt Sec OctLoc Type   LB Label

             152   3      0 Proc    0                        $$$$  9307   3      2 IntCal  0
            9308   3     11 DoWhil  0                              9309   3     14 Call    0
   $$$$$$$  9310   3     16 IntCal  0                              9311   3     35 EndWhi  0
            9312   3     40 Return  0                              9320   3     41 Proc    1
$$$$$$$$$$  9324   3     42 Do Sel  1                              9325   3    222 Select  1
            9326   3    222 Call    1                              9327   3    225 Select  1
            9328   3    225 Call    1                              9329   3    230 Select  1
            9330   3    230 Call    1                              9331   3    233 Select  1
            9332   3    233 Call    1                              9333   3    236 Select  1
            9334   3    236 Call    1                              9335   3    241 Select  1
            9336   3    241 Call    1                              9337   3    244 Select  1
            9338   3    244 Call    1                              9339   3    247 Select  1
            9340   3    247 Call    1                              9341   3    252 Select  1
            9342   3    252 Call    1                              9343   3    255 Select  1
            9344   3    255 Call    1                              9345   3    260 Select  1
            9346   3    260 Call    1                              9347   3    263 Select  1
            9348   3    263 Call    1                              9350   3    266 Select  1
            9351   3    266 Call    1                              9352   3    271 Select  1
            9353   3    271 Call    1                              9354   3    274 Select  1
            9355   3    274 Call    1                              9356   3    277 Select  1
            9357   3    277 Call    1                              9358   3    302 Select  1
            9359   3    302 Call    1                              9360   3    305 Select  1
            9361   3    305 Call    1                              9362   3    310 Select  1
            9363   3    310 Call    1                              9364   3    313 Select  1
            9365   3    313 Call    1                              9366   3    316 Select  1
            9367   3    316 Call    1                              9368   3    320 EndSel  1
            9369   3    320 Return  1                              9373   3    322 Proc    2
       $$$  9377   3    323 If      2                  $$$$$$$$$$  9378   3    333 Do Sel  2
            9379   3    414 Select  2                              9380   3    414 IntCal  2
            9381   3    420 Select  2                              9382   3    420 IntCal  2
            9383   3    424 Select  2                              9384   3    424 IntCal  2
            9385   3    430 Select  2                              9386   3    430 IntCal  2
            9387   3    434 Select  2                              9388   3    434 IntCal  2
PL6.E3A0      #001=TOU$REPLACE File=TOU$REPLACE.:E05TSI                          WED 07/30/97 06:50 Page:133
            9389   3    440 Select  2                              9390   3    440 IntCal  2
            9391   3    443 EndSel  2                          $$  9392   3    444 Call    2
            9393   3    455 Return  2                              9397   3    457 Proc    3
       $$$  9401   3    460 If      3                           $  9402   3    470 Call    3
            9403   3    477 If      3                              9404   3    503 IntCal  3
            9405   3    507 If      3                          $$  9406   3    513 Call    3
            9407   3    525 If      3                          $$  9408   3    531 Call    3
         $  9409   3    543 Call    3                              9410   3    551 Return  3
            9414   3    553 Proc    4                  $$$$$$$$$$  9418   3    554 Do Sel  4
            9419   3    616 Select  4                              9420   3    616 IntCal  4
            9421   3    622 Select  4                         $$$  9422   3    622 Call    4
            9423   3    634 Select  4                     $$$$$$$  9424   3    634 Do Sel  4
            9425   3    666 Select  4                              9426   3    666 IntCal  4
            9427   3    672 Select  4                              9428   3    672 If      4
            9429   3    676 IntCal  4                              9430   3    702 IntCal  4
            9431   3    706 Select  4                              9432   3    706 IntCal  4
            9433   3    711 EndSel  4                              9434   3    712 Select  4
            9435   3    712 IntCal  4                              9436   3    716 Select  4
        $$  9437   3    716 Call    4                              9438   3    730 Select  4
         $  9439   3    730 Call    4                              9440   3    736 EndSel  4
            9441   3    736 Return  4                              9445   3    740 Proc    5
       $$$  9449   3    741 If      5                              9450   3    751 IntCal  5
            9451   3    755 If      5                         $$$  9452   3    761 Call    5
            9453   3    773 IntCal  5                              9454   3    776 Return  5
            9458   3   1000 Proc    6                         $$$  9462   3   1001 If      6
        $$  9463   3   1011 Call    6                              9464   3   1023 If      6
       $$$  9465   3   1027 Call    6                              9466   3   1043 If      6
       $$$  9467   3   1047 Call    6                              9468   3   1063 IntCal  6
            9469   3   1066 Return  6                              9473   3   1070 Proc    7
  $$$$$$$$  9477   3   1071 Do Sel  7                              9478   3   1114 Select  7
         $  9479   3   1114 Call    7                              9480   3   1123 Select  7
        $$  9481   3   1123 Call    7                              9482   3   1135 Select  7
            9483   3   1135 IntCal  7                              9484   3   1140 EndSel  7
            9485   3   1140 Return  7                              9489   3   1142 Proc    8
       $$$  9493   3   1143 IntCal  8                              9494   3   1152 Return  8
            9498   3   1154 Proc    9                         $$$  9502   3   1155 If      9
      $$$$  9503   3   1165 IntCal  9                              9504   3   1175 If      9
PL6.E3A0      #001=TOU$REPLACE File=TOU$REPLACE.:E05TSI                          WED 07/30/97 06:50 Page:134
      $$$$  9505   3   1201 IntCal  9                              9506   3   1211 If      9
      $$$$  9507   3   1215 IntCal  9                              9508   3   1225 If      9
      $$$$  9509   3   1231 IntCal  9                        $$$$  9510   3   1241 IntCal  9
            9511   3   1250 Return  9                              9515   3   1252 Proc   10
       $$$  9522   3   1253 If     10                              9523   3   1263 IntCal 10
            9524   3   1267 If     10                              9525   3   1273 IntCal 10
            9526   3   1277 If     10                           $  9527   3   1303 Call   10
            9528   3   1312 If     10                              9529   3   1316 IntCal 10
            9530   3   1322 Do     10                          $$  9531   3   1322 IntCal 10
            9532   3   1326 Assign 10                              9533   3   1333 IntCal 10
            9534   3   1337 EndDo  10                              9535   3   1337 Return 10
            9539   3   1341 Proc   11                         $$$  9543   3   1342 IntCal 11
            9544   3   1351 Return 11                              9548   3   1353 Proc   12
       $$$  9578   3   1354 If     12                              9579   3   1364 IntCal 12
            9580   3   1370 If     12                              9581   3   1374 IntCal 12
            9582   3   1400 If     12                              9583   3   1404 If     12
            9584   3   1410 IntCal 12                              9585   3   1414 If     12
            9586   3   1420 IntCal 12                              9587   3   1424 IntCal 12
            9588   3   1430 Do     12                  $$$$$$$$$$  9589   3   1430 MonCal 12
       $$$  9590   3   1433 If     12                              9591   3   1443 IntCal 12
            9592   3   1447 IntCal 12                              9593   3   1452 EndDo  12
            9594   3   1452 Return 12                              9598   3   1454 Proc   13
       $$$  9602   3   1455 If     13                          $$  9603   3   1465 Call   13
            9604   3   1477 IntCal 13                              9605   3   1502 Return 13
            9609   3   1504 Proc   14                         $$$  9614   3   1505 IntCal 14
            9615   3   1514 Return 14                              9619   3   1516 Proc   15
       $$$  9623   3   1517 If     15                           $  9624   3   1527 Call   15
      $$$$  9625   3   1536 IntCal 15                              9626   3   1545 Return 15
            9630   3   1547 Proc   16                         $$$  9638   3   1550 If     16
            9639   3   1560 IntCal 16                              9640   3   1564 If     16
            9641   3   1570 DoIndx 16                  $$$$$$$$$$  9642   3   1571 IntCal 16
         $  9643   3   1611 EndInd 16                              9644   3   1617 If     16
         $  9645   3   1623 IntCal 16                              9646   3   1632 If     16
            9647   3   1636 IntCal 16                              9648   3   1642 IntCal 16
            9649   3   1645 Return 16                              9653   3   1647 Proc   17
       $$$  9657   3   1650 If     17                  $$$$$$$$$$  9658   3   1660 Do Sel 17
            9659   3   1744 Select 17                              9660   3   1744 IntCal 17
PL6.E3A0      #001=TOU$REPLACE File=TOU$REPLACE.:E05TSI                          WED 07/30/97 06:50 Page:135
            9661   3   1750 Select 17                              9662   3   1750 IntCal 17
            9663   3   1754 Select 17                              9664   3   1754 IntCal 17
            9665   3   1760 Select 17                              9666   3   1760 IntCal 17
            9667   3   1764 Select 17                              9668   3   1764 IntCal 17
            9669   3   1770 Select 17                              9670   3   1770 IntCal 17
            9671   3   1774 Select 17                              9672   3   1774 IntCal 17
            9673   3   1777 EndSel 17                              9674   3   2000 IntCal 17
            9675   3   2003 Return 17                              9679   3   2005 Proc   18
       $$$  9707   3   2006 If     18                              9708   3   2016 IntCal 18
            9709   3   2022 If     18                         $$$  9710   3   2026 Call   18
            9711   3   2040 Do     18                  $$$$$$$$$$  9712   3   2040 MonCal 18
       $$$  9713   3   2043 IntCal 18                              9714   3   2052 EndDo  18
            9715   3   2052 Return 18                              9719   3   2054 Proc   19
$$$$$$$$$$  9723   3   2055 Do Sel 19                              9724   3   2106 Select 19
        $$  9725   3   2106 Call   19                              9726   3   2120 Select 19
            9727   3   2120 IntCal 19                              9728   3   2124 Select 19
         $  9729   3   2124 IntCal 19                              9730   3   2133 Select 19
            9731   3   2133 IntCal 19                              9732   3   2136 EndSel 19
            9733   3   2136 Return 19                              9737   3   2140 Proc   20
            9779   3   2141 Assign 20                  $$$$$$$$$$  9780   3   2144 Do Sel 20
            9781   3   2232 Select 20                          $$  9782   3   2232 IntCal 20
            9783   3   2237 Select 20                          $$  9784   3   2237 IntCal 20
            9785   3   2244 Select 20                       $$$$$  9786   3   2244 Call   20
            9787   3   2261 Select 20                          $$  9788   3   2261 IntCal 20
            9789   3   2266 Select 20                          $$  9790   3   2266 IntCal 20
            9791   3   2273 Select 20                          $$  9792   3   2273 IntCal 20
            9793   3   2300 Select 20                          $$  9794   3   2300 IntCal 20
            9795   3   2305 Select 20                          $$  9796   3   2305 IntCal 20
            9797   3   2312 Select 20                          $$  9798   3   2312 IntCal 20
            9799   3   2317 Select 20                           $  9800   3   2317 IntCal 20
            9801   3   2323 EndSel 20                              9802   3   2323 Return 20
            9806   3   2325 Proc   21                              9839   3   2326 Assign 21
   $$$$$$$  9840   3   2331 Do Sel 21                              9841   3   2350 Select 21
        $$  9842   3   2350 IntCal 21                              9843   3   2355 Select 21
     $$$$$  9844   3   2355 Call   21                              9845   3   2371 EndSel 21
            9846   3   2371 Return 21                              9850   3   2373 Proc   22
            9898   3   2374 Assign 22                  $$$$$$$$$$  9899   3   2377 Do Sel 22
PL6.E3A0      #001=TOU$REPLACE File=TOU$REPLACE.:E05TSI                          WED 07/30/97 06:50 Page:136
            9900   3   2453 Select 22                          $$  9901   3   2453 IntCal 22
            9902   3   2460 Select 22                          $$  9903   3   2460 IntCal 22
            9904   3   2465 Select 22                          $$  9905   3   2465 IntCal 22
            9906   3   2472 Select 22                          $$  9907   3   2472 IntCal 22
            9908   3   2477 Select 22                          $$  9909   3   2477 IntCal 22
            9910   3   2504 Select 22                          $$  9911   3   2504 IntCal 22
            9912   3   2511 Select 22                       $$$$$  9913   3   2511 Call   22
            9914   3   2526 Select 22                       $$$$$  9915   3   2526 Call   22
            9916   3   2542 EndSel 22                              9917   3   2542 Return 22
            9922   3   2544 Proc   23                   $$$$$$$$$  9932   3   2545 IntCal 23
            9933   3   2554 Assign 23                              9934   3   2555 DoWhil 23
            9935   3   2556 Assign 23                              9936   3   2562 Assign 23
      $$$$  9937   3   2564 EndWhi 23                      $$$$$$  9938   3   2604 IntCal 23
            9939   3   2621 Return 23                              9943   3   2623 Proc   24
            9958   3   2624 Assign 24                          $$  9959   3   2627 Assign 24
  $$$$$$$$  9960   3   2637 IntCal 24                              9961   3   2645 Assign 24
            9962   3   2646 DoWhil 24                              9963   3   2647 Assign 24
            9964   3   2653 Assign 24                        $$$$  9965   3   2655 EndWhi 24
    $$$$$$  9966   3   2675 IntCal 24                              9967   3   2712 Return 24


  **** Statement type totals  ****

    12 Assign    45 Call       2 MonCal    34 If        25 Return    79 IntCal
    10 Do Sel    10 EndSel    70 Select     1 DoIndx     3 DoWhil     3 Do
     1 EndInd     3 EndWhi     3 EndDo     25 Proc

 # major stmts=  291 Code/major= 5.09 # stmts=  326 Code/stmt= 4.55  Point total=105.1
 Cost/major stmt=  5.1 Cost/stmt=  4.6 Total cost=   1507.4

   0-4  $$$$$$$$$$$$$$$$$$$$$$$$$$$$$$$$$$$$$$$$$$$$$$$$$$$$$$$$$$$$$$$
   4-6  $$$$
   6-8  $$$$$$$$$$
  8-10  $$$$$$$$$
 10-12  $$$
 12-14  $
 14-16
PL6.E3A0      #001=TOU$REPLACE File=TOU$REPLACE.:E05TSI                          WED 07/30/97 06:50 Page:137
 16-18  $
 18-20
 20-22
 22-??  $$$$
PL6.E3A0      #001=TOU$REPLACE File=TOU$REPLACE.:E05TSI                          WED 07/30/97 06:50 Page:138

 **** Variables and constants ****

  ****  Section 001  Data  TOU$REPLACE

  ****  Structures  ****
OctLoc.c.b A Datatyp(siz) R M Lvl/name

     0-0-0/c STRC(171)   r     1 CURRENT
     0-0-0/c CHAR(8)     r         2 DATE
     2-0-0/c CHAR(11)    r         2 TIME

    22-0-0/c STRC(99)    r     1 CURRENT
    22-0-0/c CHAR(11)    r         2 TIME

     6-0-0/d STRC(432)   r     1 CURRENT_TIME
    20-0-0/d STRC        r         2 V

    26-0-0/d STRC(432)   r     1 CURRENT_TIME
    40-0-0/d STRC        r         2 V


  ****  Auto variables  ****

  ****  Scalars and arrays  ****
OctLoc.c.b A Datatyp(siz) R M Lvl/name                 OctLoc.c.b A Datatyp(siz) R M Lvl/name

    16-0-0/w PTR         r     1 @BINARY                   14-0-0/w PTR         r     1 @BINARY
     3-0-0/w PTR         r     1 @MSG                       4-0-0/w PTR         r     1 @MSG_LGTH
    15-0-0/w PTR         r     1 @SIZE                     13-0-0/w PTR         r     1 @SIZE
    *0-0-0/w UBIN        r     1 BINARY                    *0-0-0/w UBIN        r     1 BINARY
    11-0-0/w UBIN        r     1 BLANK                     12-0-0/w UBIN        r     1 LGTH
    17-0-0/w UBIN        r     1 M                         16-0-0/w UBIN        r     1 M
    *0-0-0/c ACHR        r     1 MSG                       *0-0-0/w UBIN        r     1 MSG_LGTH
    11-0-0/w PTR         r     1 PTR$                      11-0-0/w PTR         r     1 PTR$
    11-0-0/w PTR         r     1 PTR$                       5-0-0/w UBIN        r     1 R_START
    *0-0-0/w UBIN        r     1 SIZE                      *0-0-0/w UBIN        r     1 SIZE
    20-0-0/w CHAR(8)     r     1 STRING                    17-0-0/w CHAR(8)     r     1 STRING
PL6.E3A0      #001=TOU$REPLACE File=TOU$REPLACE.:E05TSI                          WED 07/30/97 06:50 Page:139
    20-0-0/w CHAR        r     1 STRING_CHAR(0:7)
    17-0-0/w CHAR        r     1 STRING_CHAR(0:7)
    15-0-0/w UBIN        r     1 TEMP_

  ****  Structures  ****
OctLoc.c.b A Datatyp(siz) R M Lvl/name

    15-0-0/w STRC        r     1 TEMP
    15-2-0/b UBIN(10)    r         2 U


  ****  SYMREF variables  ****

  ****  Scalars and arrays  ****
OctLoc.c.b A Datatyp(siz) R M Lvl/name                 OctLoc.c.b A Datatyp(siz) R M Lvl/name

     0-0-0/c CHAR        r     1 BCD_ASCII(0:63)
     0-0-0/c CHAR(64)    r     1 BCD_ASCII_TABLE            0-0-0/w CHAR(4)     r     1 BLOCK_SEQ
     0-0-0/w UBIN        r     1 CUR#                       0-0-0/w UBIN        r     1 FILE_FILE
     0-0-0/w UBIN        r     1 IFAD_ARS#                  0-0-0/w UBIN        r     1 LOG#
     0-0-0/w STRC        r     1 RCW
     0-0-0/w UBIN(3)     r     1 RCW_OCTAL(0:11)

  ****  Structures  ****
OctLoc.c.b A Datatyp(siz) R M Lvl/name

     0-0-0/w STRC(11628) r     1 BLOCK
     0-0-0/w UBIN        r         2 CONTROL
     1-0-0/w UBIN        r         2 OFFSET
     2-0-0/w UBIN        r         2 BSN
     3-0-0/b STRC        r         2 BCW
     3-2-0/b UBIN(18)    r          3 SIZE

     0-0-0/c STRC(99)    r     1 B_VERSION
     0-0-0/b UBIN(9)     r         2 LGTH
     0-1-0/c CHAR(10)    r         2 TEXT

PL6.E3A0      #001=TOU$REPLACE File=TOU$REPLACE.:E05TSI                          WED 07/30/97 06:50 Page:140
     0-0-0/w STRC(72)    r     1 CATALOG_DATA
     0-0-0/b UBIN(18)    r         2 DECK#
     0-2-0/b UBIN(18)    r         2 ENTRY_COUNT

     0-0-0/c STRC(45)    r     1 CATALOG_ENTRY_KEY
     0-3-0/b UBIN(18)    r         2 ENTRY#

     0-0-0/w STRC(216)   r     1 CATALOG_KEY
     0-1-0/c CHAR(21)    r         2 DATA

     0-0-0/d STRC(5220)  r     1 DUP
    27-0-0/w UBIN        r         2 CURRENT_PAGE#
    32-0-0/c CHAR(80)    r         2 ERROR_IMAGE
    57-0-0/w STRC(576)   r         2 IFAD
    62-0-0/w UBIN        r          3 IMU_NUMBER
    63-0-0/c CHAR        r          3 DRIVE_NUMBER
    63-1-0/c CHAR(40)    r          3 FID
   100-0-0/d STRC(72)    r         2 BINARY_V
   101-0-0/b PTR         r          3 PTR$
   102-0-0/d STRC(72)    r         2 BCD_V
   103-0-0/b PTR         r          3 PTR$
   104-0-0/w STRC(504)   r         2 DF
   107-0-0/c CHAR(40)    r          3 FID
   136-0-0/d STRC(72)    r         2 LOG_V
   137-0-0/b PTR         r          3 PTR$
   160-0-0/c STRC(1080)  r         2 SITE_NAME
   160-0-0/c UBIN(9)     r          3 LGTH
   160-1-0/c CHAR(119)   r          3 TEXT
   216-0-0/c CHAR(6)     r         2 SITE_ID

     0-0-0/c STRC(162)   r     1 ID
     0-0-0/c CHAR(6)     r         2 ID
     1-2-0/c CHAR(6)     r         2 REVISION
     1-2-0/c STRC(54)    r         2 REV
     2-2-0/c CHAR(2)     r          3 LEVEL

     0-0-0/c STRC(45)    r     1 MASTER_ENTRY_KEY
PL6.E3A0      #001=TOU$REPLACE File=TOU$REPLACE.:E05TSI                          WED 07/30/97 06:50 Page:141
     0-3-0/b UBIN(18)    r         2 ENTRY#

     0-0-0/w STRC(864)   r     1 OBJECT
     0-0-0/w STRC(720)   r         2 BCD
     3-3-0/c CHAR(6)     r          3 LIBRARY
     5-1-0/c CHAR        r          3 LOAD_TYPE
     5-2-0/c CHAR        r          3 CLASS
    12-2-0/c CHAR(6)     r          3 MODEL
    16-3-0/c CHAR        r          3 ASSEMBLER
    17-0-0/c CHAR(6)     r          3 GECALL
    20-2-0/c CHAR(6)     r          3 DATE
    22-0-0/c CHAR(4)     r          3 LBL
     0-0-0/w CHAR(80)    r         2 BCD_
    24-0-0/b UBIN(18)    r         2 DECK#
    24-2-0/b UBIN(18)    r         2 BINARY_COUNT
    25-0-0/b UBIN(18)    r         2 TOTAL_COUNT
    25-2-0/b UBIN(18)    r         2 LOAD_SIZE

     0-0-0/w STRC(216)   r     1 OBJECT_KEY
     0-1-0/c CHAR(23)    r         2 DATA

     0-0-0/c STRC(189)   r     1 REVISION_B
     0-0-0/c CHAR(6)     r         2 VERSION

     0-0-0/c STRC(468)   r     1 SUBCATALOG_DATA
     0-0-0/c CHAR(40)    r         2 IFAD_FID
    12-0-0/c CHAR(12)    r         2 IFAD_FN

     0-0-0/c STRC(126)   r     1 TOU$DEER
     0-0-0/c STRC(54)    r         2 LINK_DATE
     0-0-0/c CHAR(6)     r          3 ASCII


  ****  BASED and DCB variables  ****

  ****  Scalars and arrays  ****
OctLoc.c.b A Datatyp(siz) R M Lvl/name                 OctLoc.c.b A Datatyp(siz) R M Lvl/name
PL6.E3A0      #001=TOU$REPLACE File=TOU$REPLACE.:E05TSI                          WED 07/30/97 06:50 Page:142

     0-0-0/c CHAR(84)    r     1 BCD_B(0:199)

  ****  Structures  ****
OctLoc.c.b A Datatyp(siz) R M Lvl/name

     0-0-0/c STRC(144)   r     1 DIRECTORY_ENTRY
     0-0-0/c CHAR(8)     r         2 PATH_NAME
     2-2-0/b UBIN(18)    r         2 FILE_SIZE

     0-0-0/c STRC(65536) r     1 DISKETTE_FILE
     0-0-0/c STRC(2304)  r         2 HDR
     0-0-0/c CHAR(4)     r          3 MODULE_TYPE
     1-0-0/c CHAR(4)     r          3 EQUIP_TYPE
     2-0-0/c CHAR(8)     r          3 UNIQUE_NAME
     4-0-0/c CHAR(12)    r          3 MOD_DWG_NUM
     7-0-0/c CHAR(6)     r          3 TTL_DATE
    10-2-0/c CHAR        r          3 PGM_REV
    10-3-0/b UBIN(9)     r          3 DISK_TAB
   100-0-0/c STRC(2304)  r         2 LD_CTL
   100-0-0/b UBIN(9)     r          3 REC_TYPE

     0-0-0/c STRC(1224)  r     1 DISKETTE_HEADER
    15-3-0/c CHAR(8)     r         2 TITLE
    17-3-0/c CHAR(8)     r         2 UNIQUE_ID
    27-1-0/b UBIN(18)    r         2 DIR_SIZE
    27-3-0/c CHAR(8)     r         2 CONFIG_NAME
    32-2-0/c CHAR(4)     r         2 EQUIP_TYPE
    33-2-0/c STRC(108)   r         2 IPI_NUM
    35-3-0/c CHAR(3)     r          3 PRD_NUM_TAB
    33-2-0/c CHAR(12)    r         2 IPI_NUM_
    36-2-0/c CHAR(12)    r         2 DISK_DWG_NUM
    41-2-0/c STRC(18)    r         2 X_OF_N
    41-2-0/c CHAR        r          3 X
    41-3-0/c CHAR        r          3 N

     0-0-0/c STRC(18665) r     1 LOG_B
PL6.E3A0      #001=TOU$REPLACE File=TOU$REPLACE.:E05TSI                          WED 07/30/97 06:50 Page:143
     0-1-0/c STRC(936)   r         2 ACCESSES(0:299)
     0-2-0/c CHAR(8)     r          3 DATE
     2-2-0/c CHAR(11)    r          3 TIME
     5-1-0/c CHAR(21)    r          3 CATALOG
    12-2-0/c CHAR(23)    r          3 DECK
    20-1-0/c CHAR(40)    r          3 IFAD

     0-0-0/d STRC)       r     1 MCA_B
    26-0-0/w STRC(1512)  r         2 DISKETTE_HEADER
    36-0-0/c CHAR(136)   r          3 DATA
   100-0-0/w STRC(23508) r         2 DIRECTORY
  1311-0-0/c CHAR(16)    r          3 CURRENT
  1315-0-0/w STRC(65896) r         2 FILE
  1325-0-0/c STRC(65536) r          3 DATA


   Procedure TOU$REPLACE requires 1484 words for executable code.
   Procedure TOU$REPLACE requires 54 words of local(AUTO) storage.

    No errors detected in file TOU$REPLACE.:E05TSI    .
PL6.E3A0      #001=TOU$REPLACE File=TOU$REPLACE.:E05TSI                          WED 07/30/97 06:50 Page:144
          *** CROSS REFERENCE LISTING ***
**     DENOTES     IDENTIFIER DEFINITION
<<                 IDENTIFIER'S VALUE SET
>>                 IDENTIFIER'S VALUE USED
<>                 IDENTIFIER SET AND/OR USED
--                 IDENTIFIER REFERENCED
PL6.E3A0      #001=TOU$REPLACE File=TOU$REPLACE.:E05TSI                          WED 07/30/97 06:50 Page:145
          MINI XREF LISTING

BCD_ASCII
      9260**DCL      9642>>CALLBLT
BCD_ASCII_TABLE
      9259**DCL      9260--REDEF
BCD_B
      9205**DCL      9625>>CALLBLT
BINARY IN PROCEDURE BINARY_2_ASCII
      9924**DCL      9922--PROC     9932>>CALLBLT
BINARY IN PROCEDURE MCA_2_ASCII
      9945**DCL      9943--PROC     9958>>ASSIGN
BINARY_2_ASCII
      9922**PROC     9392--CALL     9402--CALL     9406--CALL     9408--CALL     9409--CALL     9422--CALL
      9437--CALL     9439--CALL     9452--CALL     9463--CALL     9465--CALL     9467--CALL     9479--CALL
      9481--CALL     9527--CALL     9603--CALL     9624--CALL     9710--CALL     9725--CALL     9913--CALL
      9915--CALL
BLANK IN PROCEDURE SUB_FOR_LETTER_I
      9517**DCL      9531<<CALLBLT  9532>>ASSIGN
BLOCK.BCW.SIZE
      9268**DCL      9406>>CALL
BLOCK.BSN
      9265**DCL      9402<>CALL
BLOCK.CONTROL
      9263**DCL      9409<>CALL
BLOCK.OFFSET
      9264**DCL      9725>>CALL
BLOCK_SEQ
      9276**DCL      9404>>CALLBLT
B_VERSION.LGTH IN PROCEDURE SUB_FOR_LETTER_R
      9633**DCL      9645>>CALLBLT
B_VERSION.TEXT IN PROCEDURE SUB_FOR_LETTER_R
      9634**DCL      9645>>CALLBLT
CATALOG_DATA.DECK#
PL6.E3A0      #001=TOU$REPLACE File=TOU$REPLACE.:E05TSI                          WED 07/30/97 06:50 Page:146
      8954**DCL      9422>>CALL
CATALOG_DATA.ENTRY_COUNT
      8955**DCL      9463>>CALL
CATALOG_ENTRY_KEY.ENTRY#
      8970**DCL      9467>>CALL
CATALOG_KEY.DATA
      8983**DCL      9420>>CALLBLT
CUR#
      9290**DCL      9437>>CALL     9439<>CALL     9625>>CALLBLT  9641<<DOINDEX  9642>>CALLBLT  9642>>CALLBLT
CURRENT.DATE IN PROCEDURE SUB_FOR_LETTER_L
      9551**DCL      9567--DCLINIT  9568--DCLINIT  9592>>CALLBLT
CURRENT.TIME IN PROCEDURE SUB_FOR_LETTER_L
      9552**DCL      9569--DCLINIT  9570--DCLINIT  9591>>CALLBLT
CURRENT.TIME IN PROCEDURE SUB_FOR_LETTER_T
      9682**DCL      9698--DCLINIT  9699--DCLINIT  9713>>CALLBLT
CURRENT_TIME IN PROCEDURE SUB_FOR_LETTER_L
      9567**DCL      9589<>CALL
CURRENT_TIME.V IN PROCEDURE SUB_FOR_LETTER_L
      9571**DCL      9567--DCLINIT
CURRENT_TIME IN PROCEDURE SUB_FOR_LETTER_T
      9696**DCL      9712<>CALL
CURRENT_TIME.V IN PROCEDURE SUB_FOR_LETTER_T
      9700**DCL      9696--DCLINIT
DIRECTORY_ENTRY.ATTRIBUTES_ IN PROCEDURE SUB_FOR_LETTER_Y
      9828**DCL      9830--REDEF
DIRECTORY_ENTRY.FILE_SIZE IN PROCEDURE SUB_FOR_LETTER_Y
      9824**DCL      9844>>CALL
DIRECTORY_ENTRY.PATH_NAME IN PROCEDURE SUB_FOR_LETTER_Y
      9819**DCL      9821--REDEF    9842>>CALLBLT
DISKETTE_FILE.HDR.DISK_TAB IN PROCEDURE SUB_FOR_LETTER_Z
      9870**DCL      9913>>CALL
DISKETTE_FILE.HDR.EQUIP_TYPE IN PROCEDURE SUB_FOR_LETTER_Z
      9865**DCL      9903>>CALLBLT
DISKETTE_FILE.HDR.MODULE_TYPE IN PROCEDURE SUB_FOR_LETTER_Z
      9864**DCL      9901>>CALLBLT
DISKETTE_FILE.HDR.MOD_DWG_NUM IN PROCEDURE SUB_FOR_LETTER_Z
PL6.E3A0      #001=TOU$REPLACE File=TOU$REPLACE.:E05TSI                          WED 07/30/97 06:50 Page:147
      9867**DCL      9907>>CALLBLT
DISKETTE_FILE.HDR.PGM_REV IN PROCEDURE SUB_FOR_LETTER_Z
      9869**DCL      9911>>CALLBLT
DISKETTE_FILE.HDR.TTL_DATE IN PROCEDURE SUB_FOR_LETTER_Z
      9868**DCL      9909>>CALLBLT
DISKETTE_FILE.HDR.UNIQUE_NAME IN PROCEDURE SUB_FOR_LETTER_Z
      9866**DCL      9905>>CALLBLT
DISKETTE_FILE.LD_CTL.REC_TYPE IN PROCEDURE SUB_FOR_LETTER_Z
      9874**DCL      9915>>CALL
DISKETTE_HEADER.CONFIG_NAME IN PROCEDURE SUB_FOR_LETTER_X
      9761**DCL      9788>>CALLBLT
DISKETTE_HEADER.DIR_SIZE IN PROCEDURE SUB_FOR_LETTER_X
      9760**DCL      9786>>CALL
DISKETTE_HEADER.DISK_DWG_NUM IN PROCEDURE SUB_FOR_LETTER_X
      9770**DCL      9794>>CALLBLT
DISKETTE_HEADER.EQUIP_TYPE IN PROCEDURE SUB_FOR_LETTER_X
      9765**DCL      9790>>CALLBLT
DISKETTE_HEADER.IPI_NUM IN PROCEDURE SUB_FOR_LETTER_X
      9766**DCL      9769--REDEF
DISKETTE_HEADER.IPI_NUM.PRD_NUM_TAB IN PROCEDURE SUB_FOR_LETTER_X
      9768**DCL      9796>>CALLBLT
DISKETTE_HEADER.IPI_NUM_ IN PROCEDURE SUB_FOR_LETTER_X
      9769**DCL      9792>>CALLBLT
DISKETTE_HEADER.TITLE IN PROCEDURE SUB_FOR_LETTER_X
      9751**DCL      9782>>CALLBLT
DISKETTE_HEADER.UNIQUE_ID IN PROCEDURE SUB_FOR_LETTER_X
      9752**DCL      9784>>CALLBLT
DISKETTE_HEADER.X_OF_N IN PROCEDURE SUB_FOR_LETTER_X
      9771**DCL      9774--REDEF
DISKETTE_HEADER.X_OF_N.N IN PROCEDURE SUB_FOR_LETTER_X
      9773**DCL      9800>>CALLBLT
DISKETTE_HEADER.X_OF_N.X IN PROCEDURE SUB_FOR_LETTER_X
      9772**DCL      9798>>CALLBLT
DKEND
      8995**DCL      9008--REDEF
DKEND.BCD
PL6.E3A0      #001=TOU$REPLACE File=TOU$REPLACE.:E05TSI                          WED 07/30/97 06:50 Page:148
      8996**DCL      9006--REDEF
DUP.BCD_V.PTR$
      8884**DCL      9205--IMP-PTR  9625>>CALLBLT
DUP.BINARY_V.PTR$
      8879**DCL      9059--IMP-PTR  9779>>ASSIGN   9839>>ASSIGN   9898>>ASSIGN
DUP.CURRENT_PAGE#
      8844**DCL      9624<>CALL
DUP.DF.FID
      8898**DCL      9453>>CALLBLT
DUP.ERROR_IMAGE
      8850**DCL      9529>>CALLBLT  9531>>CALLBLT  9533>>CALLBLT
DUP.IFAD.DRIVE_NUMBER
      8870**DCL      9543>>CALLBLT
DUP.IFAD.FID
      8872**DCL      9525>>CALLBLT
DUP.IFAD.IMU_NUMBER
      8868**DCL      9527<>CALL
DUP.LOG_V
      8910**DCL      8915--REDEF
DUP.LOG_V.PTR$
      8913**DCL      9019--IMP-PTR  9503>>CALLBLT  9505>>CALLBLT  9507>>CALLBLT  9509>>CALLBLT  9510>>CALLBLT
DUP.SITE_ID
      8939**DCL      9731>>CALLBLT
DUP.SITE_NAME.LGTH
      8935**DCL      9729>>CALLBLT
DUP.SITE_NAME.TEXT
      8937**DCL      9729>>CALLBLT
FILE_FILE
      9278**DCL      9479<>CALL     9481>>CALL
ID.ID
      9281**DCL      9523>>CALLBLT
ID.REV.LEVEL
      9285**DCL      9639>>CALLBLT
ID.REVISION
      9282**DCL      9283--REDEF    9648>>CALLBLT
IFAD_ARS#
PL6.E3A0      #001=TOU$REPLACE File=TOU$REPLACE.:E05TSI                          WED 07/30/97 06:50 Page:149
      9288**DCL      9392>>CALL
LGTH IN PROCEDURE SUB_FOR_LETTER_I
      9518**DCL      9532<<ASSIGN   9533>>CALLBLT
LOG#
      9291**DCL      9503>>CALLBLT  9505>>CALLBLT  9507>>CALLBLT  9509>>CALLBLT  9510>>CALLBLT
LOG_B.ACCESSES.CATALOG
      9029**DCL      9507>>CALLBLT
LOG_B.ACCESSES.DATE
      9025**DCL      9503>>CALLBLT
LOG_B.ACCESSES.DECK
      9031**DCL      9509>>CALLBLT
LOG_B.ACCESSES.IFAD
      9033**DCL      9510>>CALLBLT
LOG_B.ACCESSES.TIME
      9027**DCL      9505>>CALLBLT
M IN PROCEDURE BINARY_2_ASCII
      9925**DCL      9933<<ASSIGN   9934>>DOWHILE  9934>>DOWHILE  9935>>ASSIGN   9936<<ASSIGN   9936>>ASSIGN
M IN PROCEDURE MCA_2_ASCII
      9951**DCL      9961<<ASSIGN   9962>>DOWHILE  9962>>DOWHILE  9963>>ASSIGN   9964<<ASSIGN   9964>>ASSIGN
M$TIME
      6837**DCL-ENT  9589--CALL     9712--CALL
MASTER_ENTRY_KEY.ENTRY#
      9048**DCL      9465>>CALL
MCA_2_ASCII
      9943**PROC     9786--CALL     9844--CALL
MCA_B.CONFIG.DATA
      9114**DCL      9115--REDEF
MCA_B.DIRECTORY.CURRENT
      9098**DCL      9839--ASSIGN
MCA_B.DISKETTE_HEADER.DATA
      9092**DCL      9779--ASSIGN
MCA_B.FILE.DATA
      9101**DCL      9898--ASSIGN
MSG
      8796**DCL       152--PROC     9307>>CALLBLT  9310>>CALLBLT  9324>>DOSELCT  9377>>IF       9380<<CALLBLT
      9382<<CALLBLT  9384<<CALLBLT  9386<<CALLBLT  9388<<CALLBLT  9390<<CALLBLT  9401>>IF       9403>>IF
PL6.E3A0      #001=TOU$REPLACE File=TOU$REPLACE.:E05TSI                          WED 07/30/97 06:50 Page:150
      9404<<CALLBLT  9405>>IF       9407>>IF       9418>>DOSELCT  9420<<CALLBLT  9426<<CALLBLT  9429<<CALLBLT
      9430<<CALLBLT  9432<<CALLBLT  9435<<CALLBLT  9449>>IF       9450<<CALLBLT  9451>>IF       9453<<CALLBLT
      9462>>IF       9464>>IF       9466>>IF       9468<<CALLBLT  9477>>DOSELCT  9483<<CALLBLT  9493<<CALLBLT
      9502>>IF       9503<<CALLBLT  9504>>IF       9505<<CALLBLT  9506>>IF       9507<<CALLBLT  9508>>IF
      9509<<CALLBLT  9510<<CALLBLT  9522>>IF       9523<<CALLBLT  9524>>IF       9525<<CALLBLT  9526>>IF
      9528>>IF       9529<<CALLBLT  9533<<CALLBLT  9543<<CALLBLT  9578>>IF       9579<<CALLBLT  9580>>IF
      9581<<CALLBLT  9582>>IF       9584<<CALLBLT  9586<<CALLBLT  9587<<CALLBLT  9590>>IF       9591<<CALLBLT
      9592<<CALLBLT  9602>>IF       9604<<CALLBLT  9614<<CALLBLT  9623>>IF       9625<<CALLBLT  9638>>IF
      9639<<CALLBLT  9640>>IF       9642<<CALLBLT  9644>>IF       9645<<CALLBLT  9646>>IF       9647<<CALLBLT
      9648<<CALLBLT  9657>>IF       9660<<CALLBLT  9662<<CALLBLT  9664<<CALLBLT  9666<<CALLBLT  9668<<CALLBLT
      9670<<CALLBLT  9672<<CALLBLT  9674<<CALLBLT  9707>>IF       9708<<CALLBLT  9709>>IF       9713<<CALLBLT
      9723>>DOSELCT  9727<<CALLBLT  9729<<CALLBLT  9731<<CALLBLT  9780>>DOSELCT  9782<<CALLBLT  9784<<CALLBLT
      9788<<CALLBLT  9790<<CALLBLT  9792<<CALLBLT  9794<<CALLBLT  9796<<CALLBLT  9798<<CALLBLT  9800<<CALLBLT
      9840>>DOSELCT  9842<<CALLBLT  9899>>DOSELCT  9901<<CALLBLT  9903<<CALLBLT  9905<<CALLBLT  9907<<CALLBLT
      9909<<CALLBLT  9911<<CALLBLT  9938<<CALLBLT  9966<<CALLBLT
MSG_LGTH
      8797**DCL       152--PROC     8796--IMP-SIZ  9307>>CALLBLT  9308>>DOWHILE  9310>>CALLBLT  9324>>DOSELCT
      9377>>IF       9380>>CALLBLT  9382>>CALLBLT  9384>>CALLBLT  9386>>CALLBLT  9388>>CALLBLT  9390>>CALLBLT
      9401>>IF       9403>>IF       9404>>CALLBLT  9405>>IF       9407>>IF       9418>>DOSELCT  9420>>CALLBLT
      9426>>CALLBLT  9429>>CALLBLT  9430>>CALLBLT  9432>>CALLBLT  9435>>CALLBLT  9449>>IF       9450>>CALLBLT
      9451>>IF       9453>>CALLBLT  9462>>IF       9464>>IF       9466>>IF       9468>>CALLBLT  9477>>DOSELCT
      9483>>CALLBLT  9493>>CALLBLT  9502>>IF       9503>>CALLBLT  9504>>IF       9505>>CALLBLT  9506>>IF
      9507>>CALLBLT  9508>>IF       9509>>CALLBLT  9510>>CALLBLT  9522>>IF       9523>>CALLBLT  9524>>IF
      9525>>CALLBLT  9526>>IF       9528>>IF       9529>>CALLBLT  9533>>CALLBLT  9543>>CALLBLT  9578>>IF
      9579>>CALLBLT  9580>>IF       9581>>CALLBLT  9582>>IF       9584>>CALLBLT  9586>>CALLBLT  9587>>CALLBLT
      9590>>IF       9591>>CALLBLT  9592>>CALLBLT  9602>>IF       9604>>CALLBLT  9614>>CALLBLT  9623>>IF
      9625>>CALLBLT  9638>>IF       9639>>CALLBLT  9640>>IF       9642>>CALLBLT  9644>>IF       9645>>CALLBLT
      9646>>IF       9647>>CALLBLT  9648>>CALLBLT  9657>>IF       9660>>CALLBLT  9662>>CALLBLT  9664>>CALLBLT
      9666>>CALLBLT  9668>>CALLBLT  9670>>CALLBLT  9672>>CALLBLT  9674>>CALLBLT  9707>>IF       9708>>CALLBLT
      9709>>IF       9713>>CALLBLT  9723>>DOSELCT  9727>>CALLBLT  9729>>CALLBLT  9731>>CALLBLT  9780>>DOSELCT
      9782>>CALLBLT  9784>>CALLBLT  9788>>CALLBLT  9790>>CALLBLT  9792>>CALLBLT  9794>>CALLBLT  9796>>CALLBLT
      9798>>CALLBLT  9800>>CALLBLT  9840>>DOSELCT  9842>>CALLBLT  9899>>DOSELCT  9901>>CALLBLT  9903>>CALLBLT
      9905>>CALLBLT  9907>>CALLBLT  9909>>CALLBLT  9911>>CALLBLT  9938>>CALLBLT  9966>>CALLBLT
OBJECT.BCD
      9130**DCL      9152--REDEF    9175--REDEF
OBJECT.BCD.ASSEMBLER
PL6.E3A0      #001=TOU$REPLACE File=TOU$REPLACE.:E05TSI                          WED 07/30/97 06:50 Page:151
      9147**DCL      9378>>DOSELCT
OBJECT.BCD.CLASS
      9135**DCL      9424>>DOSELCT  9435>>CALLBLT  9658>>DOSELCT
OBJECT.BCD.DATE
      9149**DCL      9450>>CALLBLT
OBJECT.BCD.GECALL
      9148**DCL      9493>>CALLBLT
OBJECT.BCD.LBL
      9150**DCL      9579>>CALLBLT
OBJECT.BCD.LIBRARY
      9133**DCL      9428>>IF       9581>>CALLBLT
OBJECT.BCD.LOAD_TYPE
      9134**DCL      9583>>IF       9585>>IF       9708>>CALLBLT
OBJECT.BCD.MODEL
      9144**DCL      9604>>CALLBLT
OBJECT.BCD_
      9175**DCL      9614>>CALLBLT
OBJECT.BINARY_COUNT
      9177**DCL      9408>>CALL
OBJECT.DECK#
      9176**DCL      9452>>CALL
OBJECT.LOAD_SIZE
      9179**DCL      9603>>CALL
OBJECT.NIO_BCD.X_OF_N
      9163**DCL      9168--REDEF
OBJECT.TOTAL_COUNT
      9178**DCL      9710>>CALL
OBJECT_KEY.DATA
      9194**DCL      9468>>CALLBLT
PTR$ IN PROCEDURE SUB_FOR_LETTER_X
      9739**DCL      9749--IMP-PTR  9779<<ASSIGN   9782>>CALLBLT  9784>>CALLBLT  9786>>CALL     9788>>CALLBLT
      9790>>CALLBLT  9792>>CALLBLT  9794>>CALLBLT  9796>>CALLBLT  9798>>CALLBLT  9800>>CALLBLT
PTR$ IN PROCEDURE SUB_FOR_LETTER_Y
      9808**DCL      9818--IMP-PTR  9839<<ASSIGN   9842>>CALLBLT  9844>>CALL
PTR$ IN PROCEDURE SUB_FOR_LETTER_Z
      9852**DCL      9862--IMP-PTR  9898<<ASSIGN   9901>>CALLBLT  9903>>CALLBLT  9905>>CALLBLT  9907>>CALLBLT
PL6.E3A0      #001=TOU$REPLACE File=TOU$REPLACE.:E05TSI                          WED 07/30/97 06:50 Page:152
      9909>>CALLBLT  9911>>CALLBLT  9913>>CALL     9915>>CALL
RCW
      9293**DCL      9298--REDEF
RCW_OCTAL
      9298**DCL      9642>>CALLBLT
REVISION_B.MASK
      9233**DCL      9235--REDEF
REVISION_B.VERSION
      9231**DCL      9727>>CALLBLT
R_START
      9299**DCL      9307<<CALLBLT  9308>>DOWHILE  9310<<CALLBLT  9310>>CALLBLT  9324>>DOSELCT  9377>>IF
      9380>>CALLBLT  9382>>CALLBLT  9384>>CALLBLT  9386>>CALLBLT  9388>>CALLBLT  9390>>CALLBLT  9401>>IF
      9403>>IF       9404>>CALLBLT  9405>>IF       9407>>IF       9418>>DOSELCT  9420>>CALLBLT  9426>>CALLBLT
      9429>>CALLBLT  9430>>CALLBLT  9432>>CALLBLT  9435>>CALLBLT  9449>>IF       9450>>CALLBLT  9451>>IF
      9453>>CALLBLT  9462>>IF       9464>>IF       9466>>IF       9468>>CALLBLT  9477>>DOSELCT  9483>>CALLBLT
      9493>>CALLBLT  9502>>IF       9503>>CALLBLT  9504>>IF       9505>>CALLBLT  9506>>IF       9507>>CALLBLT
      9508>>IF       9509>>CALLBLT  9510>>CALLBLT  9522>>IF       9523>>CALLBLT  9524>>IF       9525>>CALLBLT
      9526>>IF       9528>>IF       9529>>CALLBLT  9533>>CALLBLT  9543>>CALLBLT  9578>>IF       9579>>CALLBLT
      9580>>IF       9581>>CALLBLT  9582>>IF       9584>>CALLBLT  9586>>CALLBLT  9587>>CALLBLT  9590>>IF
      9591>>CALLBLT  9592>>CALLBLT  9602>>IF       9604>>CALLBLT  9614>>CALLBLT  9623>>IF       9625>>CALLBLT
      9638>>IF       9639>>CALLBLT  9640>>IF       9642>>CALLBLT  9644>>IF       9645>>CALLBLT  9646>>IF
      9647>>CALLBLT  9648>>CALLBLT  9657>>IF       9660>>CALLBLT  9662>>CALLBLT  9664>>CALLBLT  9666>>CALLBLT
      9668>>CALLBLT  9670>>CALLBLT  9672>>CALLBLT  9674>>CALLBLT  9707>>IF       9708>>CALLBLT  9709>>IF
      9713>>CALLBLT  9723>>DOSELCT  9727>>CALLBLT  9729>>CALLBLT  9731>>CALLBLT  9780>>DOSELCT  9782>>CALLBLT
      9784>>CALLBLT  9788>>CALLBLT  9790>>CALLBLT  9792>>CALLBLT  9794>>CALLBLT  9796>>CALLBLT  9798>>CALLBLT
      9800>>CALLBLT  9840>>DOSELCT  9842>>CALLBLT  9899>>DOSELCT  9901>>CALLBLT  9903>>CALLBLT  9905>>CALLBLT
      9907>>CALLBLT  9909>>CALLBLT  9911>>CALLBLT  9938>>CALLBLT  9966>>CALLBLT
SELECT_LETTER
      9320**PROC     9309--CALL
SIZE IN PROCEDURE BINARY_2_ASCII
      9926**DCL      9922--PROC     9938>>CALLBLT  9938>>CALLBLT
SIZE IN PROCEDURE MCA_2_ASCII
      9952**DCL      9943--PROC     9966>>CALLBLT  9966>>CALLBLT
STRING IN PROCEDURE BINARY_2_ASCII
      9927**DCL      9928--REDEF    9932<<CALLBLT  9938>>CALLBLT
STRING IN PROCEDURE MCA_2_ASCII
PL6.E3A0      #001=TOU$REPLACE File=TOU$REPLACE.:E05TSI                          WED 07/30/97 06:50 Page:153
      9953**DCL      9954--REDEF    9960<<CALLBLT  9966>>CALLBLT
STRING_CHAR IN PROCEDURE BINARY_2_ASCII
      9928**DCL      9934>>DOWHILE  9935<<ASSIGN
STRING_CHAR IN PROCEDURE MCA_2_ASCII
      9954**DCL      9962>>DOWHILE  9963<<ASSIGN
SUBCATALOG_DATA.IFAD_FID
      9218**DCL      9674>>CALLBLT
SUBCATALOG_DATA.IFAD_FN
      9219**DCL      9483>>CALLBLT
SUB_FOR_LETTER_A IN PROCEDURE SELECT_LETTER
      9373**PROC     9326--CALL
SUB_FOR_LETTER_B IN PROCEDURE SELECT_LETTER
      9397**PROC     9328--CALL
SUB_FOR_LETTER_C IN PROCEDURE SELECT_LETTER
      9414**PROC     9330--CALL
SUB_FOR_LETTER_D IN PROCEDURE SELECT_LETTER
      9445**PROC     9332--CALL
SUB_FOR_LETTER_E IN PROCEDURE SELECT_LETTER
      9458**PROC     9334--CALL
SUB_FOR_LETTER_F IN PROCEDURE SELECT_LETTER
      9473**PROC     9336--CALL
SUB_FOR_LETTER_G IN PROCEDURE SELECT_LETTER
      9489**PROC     9338--CALL
SUB_FOR_LETTER_H IN PROCEDURE SELECT_LETTER
      9498**PROC     9340--CALL
SUB_FOR_LETTER_I IN PROCEDURE SELECT_LETTER
      9515**PROC     9342--CALL
SUB_FOR_LETTER_J IN PROCEDURE SELECT_LETTER
      9539**PROC     9344--CALL
SUB_FOR_LETTER_L IN PROCEDURE SELECT_LETTER
      9548**PROC     9346--CALL
SUB_FOR_LETTER_M IN PROCEDURE SELECT_LETTER
      9598**PROC     9348--CALL
SUB_FOR_LETTER_O IN PROCEDURE SELECT_LETTER
      9609**PROC     9351--CALL
SUB_FOR_LETTER_P IN PROCEDURE SELECT_LETTER
PL6.E3A0      #001=TOU$REPLACE File=TOU$REPLACE.:E05TSI                          WED 07/30/97 06:50 Page:154
      9619**PROC     9353--CALL
SUB_FOR_LETTER_R IN PROCEDURE SELECT_LETTER
      9630**PROC     9355--CALL
SUB_FOR_LETTER_S IN PROCEDURE SELECT_LETTER
      9653**PROC     9357--CALL
SUB_FOR_LETTER_T IN PROCEDURE SELECT_LETTER
      9679**PROC     9359--CALL
SUB_FOR_LETTER_W IN PROCEDURE SELECT_LETTER
      9719**PROC     9361--CALL
SUB_FOR_LETTER_X IN PROCEDURE SELECT_LETTER
      9737**PROC     9363--CALL
SUB_FOR_LETTER_Y IN PROCEDURE SELECT_LETTER
      9806**PROC     9365--CALL
SUB_FOR_LETTER_Z IN PROCEDURE SELECT_LETTER
      9850**PROC     9367--CALL
TEMP.U IN PROCEDURE MCA_2_ASCII
      9949**DCL      9959<<ASSIGN   9959>>ASSIGN
TEMP_ IN PROCEDURE MCA_2_ASCII
      9946**DCL      9947--REDEF    9958<<ASSIGN   9960>>CALLBLT
TOU$DEER.LINK_DATE.ASCII
      9253**DCL      9647>>CALLBLT
PL6.E3A0      #001=TOU$REPLACE File=TOU$REPLACE.:E05TSI                          WED 07/30/97 06:50 Page:155
              *** CROSS REFERENCE LISTING ***
    **     DENOTES     IDENTIFIER DEFINITION
    <<                 IDENTIFIER'S VALUE SET
    >>                 IDENTIFIER'S VALUE USED
    <>                 IDENTIFIER SET AND/OR USED
    --                 IDENTIFIER REFERENCED
PL6.E3A0      #001=TOU$REPLACE File=TOU$REPLACE.:E05TSI                          WED 07/30/97 06:50 Page:156
              FULL UREF LISTING

BLOCK
      9262**DCL
BLOCK.BCW
      9266**DCL
BLOCK.BCW.BSN
      9267**DCL
BLOCK.DATA
      9269**DCL
BLOCK.DATA.DATA
      9274**DCL
BLOCK.DATA.RCW
      9270**DCL
BLOCK.DATA.RCW.FILE_MARK
      9272**DCL
BLOCK.DATA.RCW.SIZE
      9271**DCL
B_VERSION IN PROCEDURE SUB_FOR_LETTER_R
      9632**DCL
CATALOG_DATA
      8953**DCL
CATALOG_DATA.RFU
      8956**DCL
CATALOG_ENTRY_KEY
      8967**DCL
CATALOG_ENTRY_KEY.DECK#
      8969**DCL
CATALOG_ENTRY_KEY.SIZE
      8968**DCL
CATALOG_KEY
      8981**DCL
CATALOG_KEY.DECK#
      8984**DCL
PL6.E3A0      #001=TOU$REPLACE File=TOU$REPLACE.:E05TSI                          WED 07/30/97 06:50 Page:157
CATALOG_KEY.SIZE
      8982**DCL
CURRENT IN PROCEDURE SUB_FOR_LETTER_L
      9550**DCL
CURRENT IN PROCEDURE SUB_FOR_LETTER_T
      9681**DCL
CURRENT_TIME.DATE_ IN PROCEDURE SUB_FOR_LETTER_L
      9567**DCL
CURRENT_TIME.DATE_.BOUND IN PROCEDURE SUB_FOR_LETTER_L
      9567**DCL
CURRENT_TIME.DATE_.DATE$ IN PROCEDURE SUB_FOR_LETTER_L
      9568**DCL
CURRENT_TIME.DAY_ IN PROCEDURE SUB_FOR_LETTER_L
      9570**DCL
CURRENT_TIME.TIME_ IN PROCEDURE SUB_FOR_LETTER_L
      9569**DCL
CURRENT_TIME.TIME_.BOUND IN PROCEDURE SUB_FOR_LETTER_L
      9569**DCL
CURRENT_TIME.TIME_.TIME$ IN PROCEDURE SUB_FOR_LETTER_L
      9570**DCL
CURRENT_TIME.TSTAMP_ IN PROCEDURE SUB_FOR_LETTER_L
      9570**DCL
CURRENT_TIME.V.DEST# IN PROCEDURE SUB_FOR_LETTER_L
      9571**DCL
CURRENT_TIME.V.DEST_BASIS# IN PROCEDURE SUB_FOR_LETTER_L
      9572**DCL
CURRENT_TIME.V.SOURCE# IN PROCEDURE SUB_FOR_LETTER_L
      9571**DCL
CURRENT_TIME.V.SOURCE_BASIS# IN PROCEDURE SUB_FOR_LETTER_L
      9572**DCL
CURRENT_TIME.V_ IN PROCEDURE SUB_FOR_LETTER_L
      9567**DCL
CURRENT_TIME.DATE_ IN PROCEDURE SUB_FOR_LETTER_T
      9696**DCL
CURRENT_TIME.DATE_.BOUND IN PROCEDURE SUB_FOR_LETTER_T
      9696**DCL
PL6.E3A0      #001=TOU$REPLACE File=TOU$REPLACE.:E05TSI                          WED 07/30/97 06:50 Page:158
CURRENT_TIME.DATE_.DATE$ IN PROCEDURE SUB_FOR_LETTER_T
      9697**DCL
CURRENT_TIME.DAY_ IN PROCEDURE SUB_FOR_LETTER_T
      9699**DCL
CURRENT_TIME.TIME_ IN PROCEDURE SUB_FOR_LETTER_T
      9698**DCL
CURRENT_TIME.TIME_.BOUND IN PROCEDURE SUB_FOR_LETTER_T
      9698**DCL
CURRENT_TIME.TIME_.TIME$ IN PROCEDURE SUB_FOR_LETTER_T
      9699**DCL
CURRENT_TIME.TSTAMP_ IN PROCEDURE SUB_FOR_LETTER_T
      9699**DCL
CURRENT_TIME.V.DEST# IN PROCEDURE SUB_FOR_LETTER_T
      9700**DCL
CURRENT_TIME.V.DEST_BASIS# IN PROCEDURE SUB_FOR_LETTER_T
      9701**DCL
CURRENT_TIME.V.SOURCE# IN PROCEDURE SUB_FOR_LETTER_T
      9700**DCL
CURRENT_TIME.V.SOURCE_BASIS# IN PROCEDURE SUB_FOR_LETTER_T
      9701**DCL
CURRENT_TIME.V_ IN PROCEDURE SUB_FOR_LETTER_T
      9696**DCL
DIRECTORY_ENTRY IN PROCEDURE SUB_FOR_LETTER_Y
      9818**DCL
DIRECTORY_ENTRY.ATTRIBUTES IN PROCEDURE SUB_FOR_LETTER_Y
      9830**DCL
DIRECTORY_ENTRY.ATTRIBUTES.LSB IN PROCEDURE SUB_FOR_LETTER_Y
      9832**DCL
DIRECTORY_ENTRY.PATH_NULL IN PROCEDURE SUB_FOR_LETTER_Y
      9821**DCL
DIRECTORY_ENTRY.SECTOR_ADDR IN PROCEDURE SUB_FOR_LETTER_Y
      9822**DCL
DISKETTE_FILE IN PROCEDURE SUB_FOR_LETTER_Z
      9862**DCL
DISKETTE_FILE.HDR IN PROCEDURE SUB_FOR_LETTER_Z
      9863**DCL
PL6.E3A0      #001=TOU$REPLACE File=TOU$REPLACE.:E05TSI                          WED 07/30/97 06:50 Page:159
DISKETTE_FILE.HDR.HEADER_LGTH IN PROCEDURE SUB_FOR_LETTER_Z
      9871**DCL
DISKETTE_FILE.LD_CTL IN PROCEDURE SUB_FOR_LETTER_Z
      9873**DCL
DISKETTE_FILE.LD_CTL.CODE_TYPE IN PROCEDURE SUB_FOR_LETTER_Z
      9876**DCL
DISKETTE_FILE.LD_CTL.DIR_ENTRIES IN PROCEDURE SUB_FOR_LETTER_Z
      9877**DCL
DISKETTE_FILE.LD_CTL.EXEC_CS IN PROCEDURE SUB_FOR_LETTER_Z
      9880**DCL
DISKETTE_FILE.LD_CTL.EXEC_IP IN PROCEDURE SUB_FOR_LETTER_Z
      9881**DCL
DISKETTE_FILE.LD_CTL.FRAME IN PROCEDURE SUB_FOR_LETTER_Z
      9884**DCL
DISKETTE_FILE.LD_CTL.FRAME.ADR_LOWER IN PROCEDURE SUB_FOR_LETTER_Z
      9887**DCL
DISKETTE_FILE.LD_CTL.FRAME.ADR_UPPER IN PROCEDURE SUB_FOR_LETTER_Z
      9885**DCL
DISKETTE_FILE.LD_CTL.FRAME.SIZE IN PROCEDURE SUB_FOR_LETTER_Z
      9889**DCL
DISKETTE_FILE.LD_CTL.FRAME_COUNT IN PROCEDURE SUB_FOR_LETTER_Z
      9883**DCL
DISKETTE_FILE.LD_CTL.LD_CTL_CKSUM IN PROCEDURE SUB_FOR_LETTER_Z
      9882**DCL
DISKETTE_FILE.LD_CTL.NEXT_ALTER IN PROCEDURE SUB_FOR_LETTER_Z
      9879**DCL
DISKETTE_FILE.LD_CTL.REC_LEN IN PROCEDURE SUB_FOR_LETTER_Z
      9875**DCL
DISKETTE_FILE.SECTORS IN PROCEDURE SUB_FOR_LETTER_Z
      9892**DCL
DISKETTE_HEADER IN PROCEDURE SUB_FOR_LETTER_X
      9749**DCL
DISKETTE_HEADER.CPR IN PROCEDURE SUB_FOR_LETTER_X
      9750**DCL
DISKETTE_HEADER.DATE_CHANGED IN PROCEDURE SUB_FOR_LETTER_X
      9754**DCL
PL6.E3A0      #001=TOU$REPLACE File=TOU$REPLACE.:E05TSI                          WED 07/30/97 06:50 Page:160
DISKETTE_HEADER.DATE_CREATED IN PROCEDURE SUB_FOR_LETTER_X
      9753**DCL
DISKETTE_HEADER.DIR_ADR IN PROCEDURE SUB_FOR_LETTER_X
      9758**DCL
DISKETTE_HEADER.DISK_TYPE IN PROCEDURE SUB_FOR_LETTER_X
      9763**DCL
DISKETTE_HEADER.IPI_NUM.IPI_NUM_VAL IN PROCEDURE SUB_FOR_LETTER_X
      9767**DCL
DISKETTE_HEADER.SPACE_ADR IN PROCEDURE SUB_FOR_LETTER_X
      9755**DCL
DISKETTE_HEADER.SPACE_SIZE IN PROCEDURE SUB_FOR_LETTER_X
      9757**DCL
DISKETTE_HEADER.X_OF_N_ IN PROCEDURE SUB_FOR_LETTER_X
      9774**DCL
DKEND.BCD.CONTROL
      8997**DCL
DKEND.BCD.DATE
      9002**DCL
DKEND.BCD.LBL
      9004**DCL
DKEND.BCD.MOD_DATE
      9001**DCL
DKEND.BCD.REVISION
      9003**DCL
DKEND.BCD.SEQ
      9005**DCL
DKEND.BCD.TTL_DATE
      9000**DCL
DKEND.BCD.TYPE
      8998**DCL
DKEND.BCD_
      9006**DCL
DKEND.CHECKSUM
      9007**DCL
DKEND_
      9008**DCL
PL6.E3A0      #001=TOU$REPLACE File=TOU$REPLACE.:E05TSI                          WED 07/30/97 06:50 Page:161
DUP
      8810**DCL
DUP.BATCH_MODE
      8812**DCL
DUP.BCD_V
      8881**DCL
DUP.BINARY_V
      8876**DCL
DUP.BOTTOM_LINE#
      8848**DCL
DUP.BREAK_DISABLED
      8930**DCL
DUP.BREAK_RETURN
      8932**DCL
DUP.BREAK_TERMINATE
      8928**DCL
DUP.CMD$
      8828**DCL
DUP.CPU_TYPE
      8941**DCL
DUP.CURRENT_LINE#
      8846**DCL
DUP.DF
      8887**DCL
DUP.DF.CLOSE_TYPE
      8896**DCL
DUP.DF.ENTERED
      8888**DCL
DUP.DF.FID_LGTH
      8900**DCL
DUP.DF.NO_EXIST
      8890**DCL
DUP.DF.OPEN_TYPE
      8894**DCL
DUP.DF.REPORT_ERROR
      8892**DCL
PL6.E3A0      #001=TOU$REPLACE File=TOU$REPLACE.:E05TSI                          WED 07/30/97 06:50 Page:162
DUP.DS_V
      8821**DCL
DUP.FAULT_ERROR
      8816**DCL
DUP.FORCE_NEW_PAGE
      8852**DCL
DUP.HDR_CODE
      8833**DCL
DUP.HOLD_AREA
      8923**DCL
DUP.HOLD_AREA_LGTH
      8925**DCL
DUP.IFAD
      8855**DCL
DUP.IFAD.CONFIG_TAB
      8864**DCL
DUP.IFAD.DEVICE_INPUT
      8860**DCL
DUP.IFAD.ENTERED
      8858**DCL
DUP.IFAD.FID_LGTH
      8874**DCL
DUP.IFAD.IMU_TAB
      8862**DCL
DUP.IFAD.ME_ALLOWED
      8856**DCL
DUP.IFAD.NUM_VOLUMES
      8866**DCL
DUP.LINE_VFC
      8842**DCL
DUP.LOG
      8903**DCL
DUP.LOG.CATALOG
      8906**DCL
DUP.LOG.DECK
      8908**DCL
PL6.E3A0      #001=TOU$REPLACE File=TOU$REPLACE.:E05TSI                          WED 07/30/97 06:50 Page:163
DUP.LOG.TYPE
      8904**DCL
DUP.LOG_V_
      8915**DCL
DUP.MSG_CODE
      8831**DCL
DUP.MSG_V
      8837**DCL
DUP.MSG_V.PTR$
      8840**DCL
DUP.NUM_LINES
      8835**DCL
DUP.NUM_WORDS
      8819**DCL
DUP.PROCESS_COMPLETE
      8814**DCL
DUP.RESPONSE
      8824**DCL
DUP.RESPONSE_LGTH
      8826**DCL
DUP.SITE_NAME
      8934**DCL
DUP.TEMP
      8917**DCL
DUP.TEMP.CLOSE_TYPE
      8920**DCL
DUP.TEMP.OPEN_TYPE
      8918**DCL
ID
      9280**DCL
ID.REV
      9283**DCL
ID.USAGE
      9286**DCL
LOG_B
      9019**DCL
PL6.E3A0      #001=TOU$REPLACE File=TOU$REPLACE.:E05TSI                          WED 07/30/97 06:50 Page:164
LOG_B.ACCESSES
      9022**DCL
LOG_B.ACCESSES.TYPE
      9023**DCL
LOG_B.COUNT
      9020**DCL
M$ACCT
      6787**DCL-ENT
M$ACTIVATE
      6790**DCL-ENT
M$ALIB
      6783**DCL-ENT
M$ASUSER
      6785**DCL-ENT
M$ATTACH
      6792**DCL-ENT
M$BADPP
      6810**DCL-ENT
M$CGCTL
      6791**DCL-ENT
M$CGINFO
      6791**DCL-ENT
M$CHECK
      6772**DCL-ENT
M$CHGUNIT
      6830**DCL-ENT
M$CLOSE
      6770**DCL-ENT
M$CLRSTK
      6828**DCL-ENT
M$CMDVAR
      6839**DCL-ENT
M$CONFIG
      6800**DCL-ENT
M$CORRES
      6775**DCL-ENT
PL6.E3A0      #001=TOU$REPLACE File=TOU$REPLACE.:E05TSI                          WED 07/30/97 06:50 Page:165
M$CPEXIT
      6784**DCL-ENT
M$CVM
      6808**DCL-ENT
M$CVOL
      6773**DCL-ENT
M$DCLFLD
      6800**DCL-ENT
M$DEACTIVATE
      6790**DCL-ENT
M$DELREC
      6772**DCL-ENT
M$DEQ
      6837**DCL-ENT
M$DETACH
      6792**DCL-ENT
M$DEVICE
      6774**DCL-ENT
M$DISPLAY
      6837**DCL-ENT
M$DISPRES
      6777**DCL-ENT
M$DLIB
      6783**DCL-ENT
M$DRIBBLE
      6800**DCL-ENT
M$DRTN
      6828**DCL-ENT
M$DSUSER
      6785**DCL-ENT
M$ENQ
      6836**DCL-ENT
M$EOM
      6795**DCL-ENT
M$ERASE
      6801**DCL-ENT
PL6.E3A0      #001=TOU$REPLACE File=TOU$REPLACE.:E05TSI                          WED 07/30/97 06:50 Page:166
M$ERR
      6782**DCL-ENT
M$ERRMSG
      6833**DCL-ENT
M$EVENT
      6825**DCL-ENT
M$EXHUME
      6834**DCL-ENT
M$EXIT
      6782**DCL-ENT
M$EXTEND
      6774**DCL-ENT
M$FDP
      6806**DCL-ENT
M$FDS
      6805**DCL-ENT
M$FEBOOT
      6798**DCL-ENT
M$FECTL
      6799**DCL-ENT
M$FEDUMP
      6798**DCL-ENT
M$FID
      6833**DCL-ENT
M$FINDPROC
      6787**DCL-ENT
M$FSUSER
      6785**DCL-ENT
M$FVP
      6807**DCL-ENT
M$FWCG
      6791**DCL-ENT
M$GBPL
      6811**DCL-ENT
M$GDDL
      6807**DCL-ENT
PL6.E3A0      #001=TOU$REPLACE File=TOU$REPLACE.:E05TSI                          WED 07/30/97 06:50 Page:167
M$GDP
      6806**DCL-ENT
M$GDS
      6805**DCL-ENT
M$GETDCB
      6776**DCL-ENT
M$GETMOUSE
      6816**DCL-ENT
M$GETPM
      6817**DCL-ENT
M$GJOB
      6835**DCL-ENT
M$GLINEATTR
      6795**DCL-ENT
M$GOODPP
      6810**DCL-ENT
M$GPLATEN
      6803**DCL-ENT
M$GPROMPT
      6802**DCL-ENT
M$GTRMATTR
      6796**DCL-ENT
M$GTRMCTL
      6794**DCL-ENT
M$GTRMTAB
      6797**DCL-ENT
M$GVP
      6806**DCL-ENT
M$HELP
      6833**DCL-ENT
M$INT
      6825**DCL-ENT
M$INTRTN
      6786**DCL-ENT
M$IOQ
      6821**DCL-ENT
PL6.E3A0      #001=TOU$REPLACE File=TOU$REPLACE.:E05TSI                          WED 07/30/97 06:50 Page:168
M$JOBSTATS
      6835**DCL-ENT
M$KEYIN
      6775**DCL-ENT
M$LDEV
      6770**DCL-ENT
M$LDTRC
      6783**DCL-ENT
M$LIMIT
      6776**DCL-ENT
M$LINES
      6775**DCL-ENT
M$LINK
      6782**DCL-ENT
M$MADMUCK
      6778**DCL-ENT
M$MAKUSER
      6809**DCL-ENT
M$MBS
      6777**DCL-ENT
M$MDFFLD
      6801**DCL-ENT
M$MERC
      6826**DCL-ENT
M$MERCS
      6827**DCL-ENT
M$MIRROR
      6821**DCL-ENT
M$MONINFO
      6838**DCL-ENT
M$MPL
      6811**DCL-ENT
M$NODEINFO
      6802**DCL-ENT
M$NXTUSR
      6836**DCL-ENT
PL6.E3A0      #001=TOU$REPLACE File=TOU$REPLACE.:E05TSI                          WED 07/30/97 06:50 Page:169
M$OCMSG
      6834**DCL-ENT
M$OLAY
      6782**DCL-ENT
M$OPEN
      6770**DCL-ENT
M$PAS
      6811**DCL-ENT
M$PATHCON
      6834**DCL-ENT
M$PDS
      6805**DCL-ENT
M$PFIL
      6772**DCL-ENT
M$PLATEN
      6796**DCL-ENT
M$PRECORD
      6774**DCL-ENT
M$PROCNAME
      6787**DCL-ENT
M$PROFILE
      6798**DCL-ENT
M$PROMPT
      6794**DCL-ENT
M$RACST
      6778**DCL-ENT
M$RDSYSLOG
      6819**DCL-ENT
M$READ
      6771**DCL-ENT
M$RELDCB
      6776**DCL-ENT
M$RELRES
      6777**DCL-ENT
M$RELSTARF
      6779**DCL-ENT
PL6.E3A0      #001=TOU$REPLACE File=TOU$REPLACE.:E05TSI                          WED 07/30/97 06:50 Page:170
M$REM
      6779**DCL-ENT
M$RENV
      6826**DCL-ENT
M$REQUIRE
      6778**DCL-ENT
M$RETRY
      6827**DCL-ENT
M$RETRYS
      6827**DCL-ENT
M$REW
      6773**DCL-ENT
M$RLSFLD
      6801**DCL-ENT
M$RPRIV
      6829**DCL-ENT
M$RSPP
      6808**DCL-ENT
M$RSWITCH
      6830**DCL-ENT
M$RUE
      6836**DCL-ENT
M$SAD
      6809**DCL-ENT
M$SAVE
      6785**DCL-ENT
M$SCON
      6786**DCL-ENT
M$SCREECH
      6784**DCL-ENT
M$SENV
      6826**DCL-ENT
M$SETFMA
      6770**DCL-ENT
M$SETFP
      6799**DCL-ENT
PL6.E3A0      #001=TOU$REPLACE File=TOU$REPLACE.:E05TSI                          WED 07/30/97 06:50 Page:171
M$SINPUT
      6797**DCL-ENT
M$SLCFLD
      6802**DCL-ENT
M$SMOUSE
      6816**DCL-ENT
M$SMPRT
      6808**DCL-ENT
M$SPRIV
      6829**DCL-ENT
M$SSC
      6809**DCL-ENT
M$SSWITCH
      6829**DCL-ENT
M$STATE
      6838**DCL-ENT
M$STD
      6810**DCL-ENT
M$STIMER
      6824**DCL-ENT
M$STLPP
      6807**DCL-ENT
M$STRAP
      6824**DCL-ENT
M$STRMATTR
      6796**DCL-ENT
M$STRMCTL
      6794**DCL-ENT
M$STRMTAB
      6797**DCL-ENT
M$SYMBIO
      6835**DCL-ENT
M$SYSCON
      6821**DCL-ENT
M$SYSID
      6839**DCL-ENT
PL6.E3A0      #001=TOU$REPLACE File=TOU$REPLACE.:E05TSI                          WED 07/30/97 06:50 Page:172
M$TDCLOSE
      6820**DCL-ENT
M$TDIO
      6820**DCL-ENT
M$TDOPEN
      6819**DCL-ENT
M$TDREQCPU
      6820**DCL-ENT
M$TEMPWROC
      6814**DCL-ENT
M$TRAP
      6824**DCL-ENT
M$TRMISC
      6799**DCL-ENT
M$TRMPRG
      6795**DCL-ENT
M$TRTN
      6828**DCL-ENT
M$TRUNC
      6771**DCL-ENT
M$TTIMER
      6824**DCL-ENT
M$UC
      6794**DCL
M$UMPL
      6811**DCL-ENT
M$UNFID
      6833**DCL-ENT
M$UNLATCH
      6790**DCL-ENT
M$UNSHARE
      6787**DCL-ENT
M$USRFIELD
      6830**DCL-ENT
M$VIRTUAL
      6805**DCL-ENT
PL6.E3A0      #001=TOU$REPLACE File=TOU$REPLACE.:E05TSI                          WED 07/30/97 06:50 Page:173
M$WAIT
      6828**DCL-ENT
M$WEOF
      6773**DCL-ENT
M$WRITE
      6771**DCL-ENT
M$WRSYSLOG
      6819**DCL-ENT
M$XCON
      6825**DCL-ENT
M$XCONRTN
      6786**DCL-ENT
M$XEQTIME
      6838**DCL-ENT
M$XFLUSH
      6779**DCL-ENT
M$XMOUSE
      6816**DCL-ENT
M$XXX
      6782**DCL-ENT
M$YC
      6784**DCL-ENT
MASTER_ENTRY_KEY
      9045**DCL
MASTER_ENTRY_KEY.DECK#
      9047**DCL
MASTER_ENTRY_KEY.SIZE
      9046**DCL
MCA_B
      9059**DCL
MCA_B.COMMAND
      9069**DCL
MCA_B.COMMAND.DATA
      9071**DCL
MCA_B.COMMAND.HDR_BLK
      9070**DCL
PL6.E3A0      #001=TOU$REPLACE File=TOU$REPLACE.:E05TSI                          WED 07/30/97 06:50 Page:174
MCA_B.CONFIG
      9112**DCL
MCA_B.CONFIG.DATA1
      9115**DCL
MCA_B.CONFIG.DATA1.NUMTAB
      9117**DCL
MCA_B.CONFIG.HDR_BLK
      9113**DCL
MCA_B.DCW_LIST
      9060**DCL
MCA_B.DCW_LIST.DCW1
      9062**DCL
MCA_B.DCW_LIST.DCW1.ADDRESS
      9063**DCL
MCA_B.DCW_LIST.DCW1.COUNT
      9064**DCL
MCA_B.DCW_LIST.DCW2
      9066**DCL
MCA_B.DCW_LIST.DCW2.ADDRESS
      9067**DCL
MCA_B.DCW_LIST.DCW2.COUNT
      9068**DCL
MCA_B.DCW_LIST.IDCW1
      9061**DCL
MCA_B.DCW_LIST.IDCW2
      9065**DCL
MCA_B.DIRECTORY
      9093**DCL
MCA_B.DIRECTORY.DATA
      9095**DCL
MCA_B.DIRECTORY.HDR_BLK
      9094**DCL
MCA_B.DIRECTORY.SIZE
      9097**DCL
MCA_B.DISKETTE_HEADER
      9090**DCL
PL6.E3A0      #001=TOU$REPLACE File=TOU$REPLACE.:E05TSI                          WED 07/30/97 06:50 Page:175
MCA_B.DISKETTE_HEADER.HDR_BLK
      9091**DCL
MCA_B.DUMMY_BUFFER
      9108**DCL
MCA_B.DUMMY_BUFFER.DATA_WORDS
      9110**DCL
MCA_B.DUMMY_BUFFER.HDR_BLK
      9109**DCL
MCA_B.FILE
      9099**DCL
MCA_B.FILE.BYTES_READ
      9107**DCL
MCA_B.FILE.DATA.HDR
      9102**DCL
MCA_B.FILE.DATA.LD_CTL
      9103**DCL
MCA_B.FILE.DATA.SECTORS
      9104**DCL
MCA_B.FILE.HDR_BLK
      9100**DCL
MCA_B.FILE.SIZE
      9106**DCL
MCA_B.STATUS
      9072**DCL
MCA_B.STATUS.ADAPTER
      9084**DCL
MCA_B.STATUS.IIOC
      9089**DCL
MCA_B.STATUS.INITIATE
      9082**DCL
MCA_B.STATUS.MAJOR
      9075**DCL
MCA_B.STATUS.MARKER
      9080**DCL
MCA_B.STATUS.ODD_WORD
      9079**DCL
PL6.E3A0      #001=TOU$REPLACE File=TOU$REPLACE.:E05TSI                          WED 07/30/97 06:50 Page:176
MCA_B.STATUS.POWER
      9074**DCL
MCA_B.STATUS.RESIDUE
      9088**DCL
MCA_B.STATUS.SUB
      9076**DCL
MCA_B.STATUS.SUB.RDP
      9077**DCL
MCA_B.STATUS.SUB.VALUE
      9078**DCL
MCA_B.STATUS.TERMINATE
      9073**DCL
MCA_B.STATUS.TERM_POS
      9087**DCL
MCA_B.STATUS.WAS_R_W
      9086**DCL
OBJECT
      9129**DCL
OBJECT.BCD.CONTROL
      9131**DCL
OBJECT.BCD.DONT_APPLY
      9136**DCL
OBJECT.BCD.DONT_APPLY.CP6
      9138**DCL
OBJECT.BCD.DONT_APPLY.DPS8000
      9141**DCL
OBJECT.BCD.DONT_APPLY.DPS90
      9140**DCL
OBJECT.BCD.FILENAME
      9145**DCL
OBJECT.BCD.SEQ
      9151**DCL
OBJECT.BCD.TYPE
      9132**DCL
OBJECT.CHECKSUM
      9181**DCL
PL6.E3A0      #001=TOU$REPLACE File=TOU$REPLACE.:E05TSI                          WED 07/30/97 06:50 Page:177
OBJECT.DECK_CHECKSUM
      9180**DCL
OBJECT.NIO_BCD
      9152**DCL
OBJECT.NIO_BCD.ASSEMBLER
      9169**DCL
OBJECT.NIO_BCD.CLASS
      9157**DCL
OBJECT.NIO_BCD.CONTROL
      9153**DCL
OBJECT.NIO_BCD.DATA
      9159**DCL
OBJECT.NIO_BCD.EQUIP_TYPE
      9161**DCL
OBJECT.NIO_BCD.FILE_NAME
      9162**DCL
OBJECT.NIO_BCD.LBL
      9173**DCL
OBJECT.NIO_BCD.LIBRARY
      9155**DCL
OBJECT.NIO_BCD.LOAD_TYPE
      9156**DCL
OBJECT.NIO_BCD.PRD_NUM_TAB
      9170**DCL
OBJECT.NIO_BCD.PRG_NUM_TAB
      9171**DCL
OBJECT.NIO_BCD.SEQ
      9174**DCL
OBJECT.NIO_BCD.TYPE
      9154**DCL
OBJECT.NIO_BCD.X_OF_N.N
      9167**DCL
OBJECT.NIO_BCD.X_OF_N.X
      9165**DCL
OBJECT.NIO_BCD.X_OF_N_
      9168**DCL
PL6.E3A0      #001=TOU$REPLACE File=TOU$REPLACE.:E05TSI                          WED 07/30/97 06:50 Page:178
OBJECT_KEY
      9192**DCL
OBJECT_KEY.SIZE
      9193**DCL
RCW.FILE_MARK
      9295**DCL
RCW.MEDIA_CODE
      9296**DCL
RCW.REPORT_CODE
      9297**DCL
RCW.SIZE
      9294**DCL
REVISION_B
      9230**DCL
REVISION_B.DEER
      9239**DCL
REVISION_B.MAINTENANCE
      9235**DCL
REVISION_B.MAINTENANCE.CONTRACT
      9237**DCL
SUBCATALOG_DATA
      9217**DCL
TEMP IN PROCEDURE MCA_2_ASCII
      9947**DCL
TEMP.L IN PROCEDURE MCA_2_ASCII
      9950**DCL
TOU$DEER
      9251**DCL
TOU$DEER.LINK_DATE
      9252**DCL
TOU$DEER.LINK_TIME
      9254**DCL
TOU$REPLACE
       152**PROC
