VERSION E05

PL6.E3A0      #001=TSE$ERROR File=TSE$ERROR.:E05TSI                              WED 07/30/97 06:53 Page:1
        1        1        /*M*     TSE$ERROR - ERROR MESSAGE REPORTER FOR SYSCON    */
        2        2        /*T***********************************************************/
        3        3        /*T*                                                         */
        4        4        /*T* Copyright (c) Bull HN Information Systems Inc., 1997    */
        5        5        /*T*                                                         */
        6        6        /*T***********************************************************/
        7        7        /*X*/
        8        8        TSE$ERROR: PROC (ERR#,FULLCODE) ALTRET;
        9        9        /**/
       10       10        /**********************************************************************/
       11       11        /*   PARAMETERS   PARAMETERS   PARAMETERS   PARAMETERS   PARAMETERS   */
       12       12        /**********************************************************************/
       13       13    1   DCL ERR# UBIN(36);
       14       14    1   DCL FULLCODE BIT(36) ALIGNED;
       15       15        /**/
       16       16        /*********************************************************************/
       17       17        /*   INCLUDE FILES   INCLUDE FILES   INCLUDE FILES   INCLUDE FILES   */
       18       18        /*********************************************************************/
       19       19        %INCLUDE CP_6;
       20      100        /**/
       21      101        %B$TCB;
       22      104        %B$ALT;
       23      112        %FPT_EXIT (STCLASS=SYMREF);
       24      127        /**/
       25      128    1   DCL XUR$ERRMSG ENTRY(7) ALTRET;
       26      129        /**/
       27      130    1   DCL 1 ERR_CODE SYMREF,
       28      131    1         2 FCG_MID BIT(18) UNAL,
       29      132    1         2 MON BIT(1) UNAL,
       30      133    1         2 ERR# UBIN(14) UNAL,
       31      134    1         2 SEV UBIN(3) UNAL;
       32      135    1   DCL 1 SUB_BUF_1 SYMREF,
       33      136    1         2 COUNT UBIN(9) UNAL,
       34      137    1         2 TEXT CHAR(31) UNAL;
       35      138    1   DCL 1 SUB_BUF_2 SYMREF,
       36      139    1         2 COUNT UBIN(9) UNAL,
       37      140    1         2 TEXT CHAR(31) UNAL;
PL6.E3A0      #001=TSE$ERROR File=TSE$ERROR.:E05TSI                              WED 07/30/97 06:53 Page:2
       38      141    1   DCL 1 SUB_BUF_3 SYMREF,
       39      142    1         2 COUNT UBIN(9) UNAL,
       40      143    1         2 TEXT CHAR(31) UNAL;
       41      144        /**/
       42      145    1   DCL B$TCB$ PTR SYMREF;
       43      146        /**/
       44      147        %EJECT;
PL6.E3A0      #001=TSE$ERROR File=TSE$ERROR.:E05TSI                              WED 07/30/97 06:53 Page:3
       45      148    1         IF ADDR(ERR#) = ADDR(NIL) THEN GOTO DEF;
       46      149    1        IF ((ERR#<218) OR (ERR#>229)) AND ERR#~=255 AND ERR#~=257 THEN FPT_EXIT.V.
               149                 STEPCC# = 4;
       47      150    1        ERR_CODE = '242323000000'O;
       48      151    1        IF ERR# = 0 THEN
       49      152    1   DEF:         ERR_CODE = B$TCB$->B$TCB.ALT$->B$ALT.ERR;
       50      153    1           ELSE ERR_CODE.ERR# = ERR#;
       51      154    1         IF ADDR(FULLCODE) ~= ADDR(NIL) THEN ERR_CODE = FULLCODE;
       52      155    1        CALL XUR$ERRMSG(ERR_CODE,,,VECTOR(SUB_BUF_1),VECTOR(SUB_BUF_2),VECTOR(SUB_BUF_3
               155                 ));
       53      156    1        RETURN;
       54      157    1   END TSE$ERROR;

PL6.E3A0      #001=TSE$ERROR File=TSE$ERROR.:E05TSI                              WED 07/30/97 06:53 Page:4
--  Include file information  --

   CP_6.:E05TOU  cannot be made into a system file and is referenced.
   B$JIT_C.:E05TOU  was found in the system file and is never referenced.
   CP_6_C.:E05TOU  was found in the system file and is referenced.
      No diagnostics issued in procedure TSE$ERROR.

   Procedure TSE$ERROR requires 50 words for executable code.
   Procedure TSE$ERROR requires 12 words of local(AUTO) storage.

    No errors detected in file TSE$ERROR.:E05TSI    .

PL6.E3A0      #001=TSE$ERROR File=TSE$ERROR.:E05TSI                              WED 07/30/97 06:53 Page:5

 Object Unit name= TSE$ERROR                                  File name= TSE$ERROR.:E05TOU
 UTS= JUL 30 '97 06:53:24.40 WED                              Compiler= PL-6/E31         Sev=      00
 SharedLib= :SHARED_SYSTEM                                    Alt SharedLib=


    ****  Control sections  ****

 Sect   Type Bound  Init  Size OctSiz  Section name(segment info)
    0   DCB   even  none     0      0  M$UC
    1  RoData even  UTS      1      1  TSE$ERROR
    2   Proc  even  none    50     62  TSE$ERROR
    3  RoData even  none    10     12  TSE$ERROR

    ****  Entry defs  ****

                              Check   Calling
                             calling  sequence
  Sect OctLoc Primary Altret sequence   type   Parms  Name
     2      0   yes    yes     yes      Std        2  TSE$ERROR

  ****  Entry refs  ****

         Check        Calling
        calling       sequence
Altret sequence SRef   type   Args  Name
 yes     yes           Std       7 XUR$ERRMSG
                       nStd      0 X66_AUTO_2
                       Std       0 B_CONSPOOL_D
                       nStd      0 X66_ARET
PL6.E3A0      #001=TSE$ERROR File=TSE$ERROR.:E05TSI                              WED 07/30/97 06:53 Page:6

  ****  Data refs  ****

  Flags:  r = read only, s = secondary
Flgs Name                             Flgs Name                             Flgs Name
     M$UC                                  FPT_EXIT                              ERR_CODE
     SUB_BUF_1                             SUB_BUF_2                             SUB_BUF_3
     B$TCB$                                B_VECTNIL

  ****  Segment refs  ****

  Flags:  r = read only, s = secondary
Flgs Name                             Flgs Name                             Flgs Name
     ISSID
PL6.E3A0      #001=TSE$ERROR File=TSE$ERROR.:E05TSI                              WED 07/30/97 06:53 Page:7


        1        1        /*M*     TSE$ERROR - ERROR MESSAGE REPORTER FOR SYSCON    */
        2        2        /*T***********************************************************/
        3        3        /*T*                                                         */
        4        4        /*T* Copyright (c) Bull HN Information Systems Inc., 1997    */
        5        5        /*T*                                                         */
        6        6        /*T***********************************************************/
        7        7        /*X*/
        8        8        TSE$ERROR: PROC (ERR#,FULLCODE) ALTRET;

      8  2 000000   000000 700200 xent  TSE$ERROR    TSX0  ! X66_AUTO_2
         2 000001   000014 000002                    ZERO    12,2

        9        9        /**/
       10       10        /**********************************************************************/
       11       11        /*   PARAMETERS   PARAMETERS   PARAMETERS   PARAMETERS   PARAMETERS   */
       12       12        /**********************************************************************/
       13       13    1   DCL ERR# UBIN(36);
       14       14    1   DCL FULLCODE BIT(36) ALIGNED;
       15       15        /**/
       16       16        /*********************************************************************/
       17       17        /*   INCLUDE FILES   INCLUDE FILES   INCLUDE FILES   INCLUDE FILES   */
       18       18        /*********************************************************************/
       19       19        %INCLUDE CP_6;
       20      100        /**/
       21      101        %B$TCB;
       22      104        %B$ALT;
       23      112        %FPT_EXIT (STCLASS=SYMREF);
       24      127        /**/
       25      128    1   DCL XUR$ERRMSG ENTRY(7) ALTRET;
       26      129        /**/
       27      130    1   DCL 1 ERR_CODE SYMREF,
       28      131    1         2 FCG_MID BIT(18) UNAL,
       29      132    1         2 MON BIT(1) UNAL,
       30      133    1         2 ERR# UBIN(14) UNAL,
       31      134    1         2 SEV UBIN(3) UNAL;
       32      135    1   DCL 1 SUB_BUF_1 SYMREF,
PL6.E3A0      #001=TSE$ERROR File=TSE$ERROR.:E05TSI                              WED 07/30/97 06:53 Page:8
       33      136    1         2 COUNT UBIN(9) UNAL,
       34      137    1         2 TEXT CHAR(31) UNAL;
       35      138    1   DCL 1 SUB_BUF_2 SYMREF,
       36      139    1         2 COUNT UBIN(9) UNAL,
       37      140    1         2 TEXT CHAR(31) UNAL;
       38      141    1   DCL 1 SUB_BUF_3 SYMREF,
       39      142    1         2 COUNT UBIN(9) UNAL,
       40      143    1         2 TEXT CHAR(31) UNAL;
       41      144        /**/
       42      145    1   DCL B$TCB$ PTR SYMREF;
       43      146        /**/
       44      147        %EJECT;
PL6.E3A0      #001=TSE$ERROR File=TSE$ERROR.:E05TSI                              WED 07/30/97 06:53 Page:9
       45      148    1         IF ADDR(ERR#) = ADDR(NIL) THEN GOTO DEF;

    148  2 000002   200003 236100                    LDQ     @ERR#,,AUTO
         2 000003   000001 116000 xsym               CMPQ    B_VECTNIL+1
         2 000004   000025 600000 2                  TZE     DEF

       46      149    1        IF ((ERR#<218) OR (ERR#>229)) AND ERR#~=255 AND ERR#~=257 THEN FPT_EXIT.V.
               149                 STEPCC# = 4;

    149  2 000005   200003 470500                    LDP0    @ERR#,,AUTO
         2 000006   000000 235100                    LDA     0,,PR0
         2 000007   000332 115007                    CMPA    218,DL
         2 000010   000013 602000 2                  TNC     s:149+6
         2 000011   000346 115007                    CMPA    230,DL
         2 000012   000021 602000 2                  TNC     s:150
         2 000013   000377 115007                    CMPA    255,DL
         2 000014   000021 600000 2                  TZE     s:150
         2 000015   000401 115007                    CMPA    257,DL
         2 000016   000021 600000 2                  TZE     s:150

    149  2 000017   004000 236003                    LDQ     2048,DU
         2 000020   000004 552040 xsym               STBQ    FPT_EXIT+4,'40'O

       47      150    1        ERR_CODE = '242323000000'O;

    150  2 000021   000000 236000 1                  LDQ     0
         2 000022   000000 756000 xsym               STQ     ERR_CODE

       48      151    1        IF ERR# = 0 THEN

    151  2 000023   000000 235100                    LDA     0,,PR0
         2 000024   000032 601000 2                  TNZ     s:153

       49      152    1   DEF:         ERR_CODE = B$TCB$->B$TCB.ALT$->B$ALT.ERR;

    152  2 000025   000000 470400 xsym  DEF          LDP0    B$TCB$
         2 000026   000000 471500                    LDP1    0,,PR0
PL6.E3A0      #001=TSE$ERROR File=TSE$ERROR.:E05TSI                              WED 07/30/97 06:53 Page:10
         2 000027   100102 236100                    LDQ     66,,PR1
         2 000030   000000 756000 xsym               STQ     ERR_CODE
         2 000031   000037 710000 2                  TRA     s:154

       50      153    1           ELSE ERR_CODE.ERR# = ERR#;

    153  2 000032   000000 236100                    LDQ     0,,PR0
         2 000033   000003 736000                    QLS     3
         2 000034   000000 676000 xsym               ERQ     ERR_CODE
         2 000035   377770 376007                    ANQ     131064,DL
         2 000036   000000 656000 xsym               ERSQ    ERR_CODE

       51      154    1         IF ADDR(FULLCODE) ~= ADDR(NIL) THEN ERR_CODE = FULLCODE;

    154  2 000037   200004 236100                    LDQ     @FULLCODE,,AUTO
         2 000040   000001 116000 xsym               CMPQ    B_VECTNIL+1
         2 000041   000045 600000 2                  TZE     s:155

    154  2 000042   200004 470500                    LDP0    @FULLCODE,,AUTO
         2 000043   000000 236100                    LDQ     0,,PR0
         2 000044   000000 756000 xsym               STQ     ERR_CODE

       52      155    1       CALL XUR$ERRMSG(ERR_CODE,,,VECTOR(SUB_BUF_1),VECTOR(SUB_BUF_2),VECTOR(SUB_BUF_3
               155                 ));

    155  2 000045   000006 237000 3                  LDAQ    6
         2 000046   200012 757100                    STAQ    @FULLCODE+6,,AUTO
         2 000047   000010 236000 3                  LDQ     8
         2 000050   000001 235000 xsym               LDA     B_VECTNIL+1
         2 000051   200010 757100                    STAQ    @FULLCODE+4,,AUTO
         2 000052   000001 236000 xsym               LDQ     B_VECTNIL+1
         2 000053   000011 235000 3                  LDA     9
         2 000054   200006 757100                    STAQ    @FULLCODE+2,,AUTO
         2 000055   200006 630500                    EPPR0   @FULLCODE+2,,AUTO
         2 000056   000024 631400 xsym               EPPR1   B_VECTNIL+20
         2 000057   000000 701000 xent               TSX1    XUR$ERRMSG
         2 000060   000000 011000                    NOP     0
PL6.E3A0      #001=TSE$ERROR File=TSE$ERROR.:E05TSI                              WED 07/30/97 06:53 Page:11

       53      156    1        RETURN;

    156  2 000061   000000 702200 xent               TSX2  ! X66_ARET
       54      157    1   END TSE$ERROR;

PL6.E3A0      #001=TSE$ERROR File=TSE$ERROR.:E05TSI                              WED 07/30/97 06:53 Page:12
--  Include file information  --

   CP_6.:E05TOU  cannot be made into a system file and is referenced.
   B$JIT_C.:E05TOU  was found in the system file and is never referenced.
   CP_6_C.:E05TOU  was found in the system file and is referenced.
      No diagnostics issued in procedure TSE$ERROR.
PL6.E3A0      #001=TSE$ERROR File=TSE$ERROR.:E05TSI                              WED 07/30/97 06:53 Page:13

 **** Variables and constants ****

  ****  Auto variables  ****

  ****  Scalars and arrays  ****
OctLoc.c.b A Datatyp(siz) R M Lvl/name                 OctLoc.c.b A Datatyp(siz) R M Lvl/name

     3-0-0/w PTR         r     1 @ERR#                      4-0-0/w PTR         r     1 @FULLCODE
    *0-0-0/w UBIN        r     1 ERR#                      *0-0-0/w BIT         r     1 FULLCODE

  ****  SYMREF variables  ****

  ****  Scalars and arrays  ****
OctLoc.c.b A Datatyp(siz) R M Lvl/name                 OctLoc.c.b A Datatyp(siz) R M Lvl/name

     0-0-0/w PTR         r     1 B$TCB$                     0-0-0/b STRC        r     1 ERR_CODE
     0-0-0/d STRC(216)   r     1 FPT_EXIT                   0-0-0/c STRC(288)   r     1 SUB_BUF_1
     0-0-0/c STRC(288)   r     1 SUB_BUF_2                  0-0-0/c STRC(288)   r     1 SUB_BUF_3

  ****  BASED and DCB variables  ****

  ****  Scalars and arrays  ****
OctLoc.c.b A Datatyp(siz) R M Lvl/name                 OctLoc.c.b A Datatyp(siz) R M Lvl/name

     0-0-0/w STRC(2448)  r     1 B$ALT                      0-0-0/w STRC(144)   r     1 B$TCB


   Procedure TSE$ERROR requires 50 words for executable code.
   Procedure TSE$ERROR requires 12 words of local(AUTO) storage.

    No errors detected in file TSE$ERROR.:E05TSI    .
PL6.E3A0      #001=TSE$ERROR File=TSE$ERROR.:E05TSI                              WED 07/30/97 06:53 Page:14
          *** CROSS REFERENCE LISTING ***
**     DENOTES     IDENTIFIER DEFINITION
<<                 IDENTIFIER'S VALUE SET
>>                 IDENTIFIER'S VALUE USED
<>                 IDENTIFIER SET AND/OR USED
--                 IDENTIFIER REFERENCED
PL6.E3A0      #001=TSE$ERROR File=TSE$ERROR.:E05TSI                              WED 07/30/97 06:53 Page:15
          MINI XREF LISTING

B$ALT.CODE
       106**DCL       106--REDEF     107--REDEF     107--REDEF
B$ALT.ERR
       107**DCL       152>>ASSIGN
B$ALT.ERR.ERR#
       108**DCL       108--REDEF
B$ALT.EVID
       107**DCL       107--REDEF     107--REDEF
B$TCB.ALT$
       102**DCL       152>>ASSIGN
B$TCB$
       145**DCL       152>>ASSIGN
DEF
       152**LABEL     148--GOTO
ERR#
        13**DCL         8--PROC      148--IF        149>>IF        149>>IF        149>>IF        149>>IF
       151>>IF        153>>ASSIGN
ERR_CODE
       130**DCL       150<<ASSIGN    152<<ASSIGN    154<<ASSIGN    155<>CALL
ERR_CODE.ERR#
       133**DCL       153<<ASSIGN
FPT_EXIT.V.STEPCC#
       124**DCL       124--REDEF     149<<ASSIGN
FULLCODE
        14**DCL         8--PROC      154--IF        154>>ASSIGN
SUB_BUF_1
       135**DCL       155--CALL
SUB_BUF_2
       138**DCL       155--CALL
SUB_BUF_3
       141**DCL       155--CALL
XUR$ERRMSG
PL6.E3A0      #001=TSE$ERROR File=TSE$ERROR.:E05TSI                              WED 07/30/97 06:53 Page:16
       128**DCL-ENT   155--CALL
