VERSION E05

PL6.E3A0      #001=UDE$FPTCHK File=UDE$FPTCHK.:E05TSI                            WED 07/30/97 06:56 Page:1
        1        1        /*M*   FPTCHK  DO POST MORTEM CHECK AFTER TRAP IN MON SERVICE */
        2        2        /*T***********************************************************/
        3        3        /*T*                                                         */
        4        4        /*T* Copyright (c) Bull HN Information Systems Inc., 1997    */
        5        5        /*T*                                                         */
        6        6        /*T***********************************************************/
        7        7        UDE$FPTCHK: PROC(SCODE);
        8        8        %INCLUDE CP_6_SUBS;
        9      548        %INCLUDE F$CP6V_C;
       10      774        %INCLUDE F$DCB;
       11      823        %FPT$READ_V;
       12      830        %FPT$PRECORD_V;
       13      835    1   DCL 1 SCODE ALIGNED,
       14      836    1         2 FCG BIT(12) UNAL,
       15      837    1         2 MID BIT(6) UNAL,
       16      838    1         2 CODE UBIN(15) UNAL,
       17      839    1         2 SEV UBIN(3) UNAL;
       18      840        /*
       19      841        */
       20      842        %MACRO FPT (C=0 , N=0);
       21      843             2 * UBIN(27) UNAL INIT(%(C*512+N)),
       22      844        %MEND;
       23      845        %MACRO VEC (MAND (YES=1,NO=0) = 0,
       24      846             BND (BY=0,WD=3,DW=7) = 0,
       25      847             WRIT (YES=1,NO=0) = 0,
       26      848             SIZ = 8);
       27      849             2 * UBIN HALF UNAL INIT(%(MAND*131072+BND*16384+WRIT*8192+SIZ)),
       28      850        %MEND;
       29      851        /*
       30      852        */
       31      853        %SUB SNLIST=8180;
       32      854        %SUB PSEUDLIST=8181;
       33      855        %SUB PRESLIST=8182;
       34      856        %SUB RPSNLIST=8183;
       35      857        %SUB KEYRD=8184;
       36      858        %SUB KEYWR=8185;
       37      859        %SUB KEYPR=8186;
PL6.E3A0      #001=UDE$FPTCHK File=UDE$FPTCHK.:E05TSI                            WED 07/30/97 06:56 Page:2
       38      860        %SUB KEYDEL=8187;
       39      861        /*
       40      862        */
       41      863        %SUB CASESN=0;
       42      864        %SUB CASEPSEUD=1;
       43      865        %SUB CASEPRES=2;
       44      866        %SUB CASERPSN=3;
       45      867        %SUB CASERD=4;
       46      868        %SUB CASEWR=5;
       47      869        %SUB CASEPR=6;
       48      870        %SUB CASEDEL=7;
       49      871        /*
       50      872        */
       51      873    1   DCL 1 UDE_FPTTBL CONSTANT SYMDEF,
       52      874                                                /*EXIT*/
       53      875        %FPT (C=1,N=2);
       54      878        %VEC (BND=DW);
       55      881        %VEC (BND=DW,SIZ=4);
       56      884                                                /*ERR*/
       57      885        %FPT (C=2,N=2);
       58      888        %VEC (BND=DW);
       59      891        %VEC (BND=DW,SIZ=4);
       60      894                                                /*XXX*/
       61      895        %FPT (C=3,N=2);
       62      898        %VEC (BND=DW);
       63      901        %VEC (BND=DW,SIZ=4);
       64      904                                                /*OLAY*/
       65      905        %FPT (C=4,N=2);
       66      908        %VEC (MAND=YES,SIZ=0);
       67      911        %VEC (MAND=YES,BND=DW);
       68      914                                                /*LINK*/
       69      915        %FPT (C=5,N=6);
       70      918        %VEC (MAND=YES,SIZ=0);
       71      921        %VEC ;
       72      924        %VEC ;
       73      927        %VEC (SIZ=6);
       74      930        %VEC (SIZ=0);
PL6.E3A0      #001=UDE$FPTCHK File=UDE$FPTCHK.:E05TSI                            WED 07/30/97 06:56 Page:3
       75      933        %VEC (SIZ=1);
       76      936                                                /*LDTRC*/
       77      937        %FPT (C=6,N=6);
       78      940        %VEC (MAND=YES,SIZ=0);
       79      943        %VEC ;
       80      946        %VEC ;
       81      949        %VEC (SIZ=6);
       82      952        %VEC (SIZ=0);
       83      955        %VEC (SIZ=1);
       84      958                                                /*ALIB*/
       85      959        %FPT (C=7,N=4);
       86      962        %VEC (SIZ=0,MAND=YES);
       87      965        %VEC (SIZ=1);
       88      968        %VEC (SIZ=1,WRIT=YES);
       89      971        %VEC (MAND=YES,BND=DW);
       90      974                                                /*DLIB*/
       91      975        %FPT (C=8,N=1);
       92      978        %VEC (MAND=YES,SIZ=0);
       93      981                                                /*YC*/
       94      982        %FPT (C=9,N=2);
       95      985        %VEC (MAND=YES,SIZ=1);
       96      988        %VEC (MAND=YES,BND=DW);
       97      991                                                /*CPEXIT*/
       98      992        %FPT (C=10,N=6);
       99      995        %VEC (SIZ=0);
      100      998        %VEC ;
      101     1001        %VEC ;
      102     1004        %VEC (SIZ=6);
      103     1007        %VEC (SIZ=0);
      104     1010        %VEC (MAND=YES,BND=DW);
      105     1013                                                /*SCREECH*/
      106     1014        %FPT (C=11,N=3);
      107     1017        %VEC (MAND=YES,BND=DW);
      108     1020        %VEC (BND=DW,SIZ=4);
      109     1023        %VEC (WRIT=YES,SIZ=0);
      110     1026                                                /*FSUSER=12*/
      111     1027                                                /*ASUSER=13*/
PL6.E3A0      #001=UDE$FPTCHK File=UDE$FPTCHK.:E05TSI                            WED 07/30/97 06:56 Page:4
      112     1028                                                /*DSUSER=14*/
      113     1029                                                /*SAVE*/
      114     1030        %FPT (C=15,N=4);
      115     1033        %VEC (MAND=YES,SIZ=0);
      116     1036        %VEC ;
      117     1039        %VEC ;
      118     1042        %VEC (SIZ=6);
      119     1045                                                /*SCON*/
      120     1046        %FPT (C=16,N=1);
      121     1049        %VEC (MAND=YES,BND=DW);
      122     1052                                                /*INTRTN=17*/
      123     1053                                                /*XCONRTN*/
      124     1054        %FPT (C=18,N=2);
      125     1057        %VEC (BND=DW);
      126     1060        %VEC (BND=DW,SIZ=4);
      127     1063                                                /*PROCNAME*/
      128     1064        %FPT (C=19,N=5);
      129     1067        %VEC (BND=DW,WRIT=YES,SIZ=32);
      130     1070        %VEC (BND=DW,WRIT=YES,SIZ=32);
      131     1073        %VEC (BND=DW,WRIT=YES,SIZ=32);
      132     1076        %VEC (BND=DW,WRIT=YES,SIZ=32);
      133     1079        %VEC (BND=DW,WRIT=YES,SIZ=32);
      134     1082                                                /*FINDPROC*/
      135     1083        %FPT(C=20,N=5);
      136     1086        %VEC (MAND=YES,BND=DW);
      137     1089        %VEC (MAND=YES,BND=DW,SIZ=32,WRIT=YES);
      138     1092        %VEC (BND=DW,WRIT=YES);
      139     1095        %VEC (BND=DW,WRIT=YES);
      140     1098        %VEC (BND=DW,WRIT=YES);
      141     1101                                                /* UNSHARE*/
      142     1102        %FPT(C=21,N=1);
      143     1105        %VEC (MAND=YES,BND=DW);
      144     1108                                                /*ACCT*/
      145     1109        %FPT (C=22,N=5);
      146     1112        %VEC (MAND=YES,BND=DW);
      147     1115        %VEC (BND=BY,SIZ=0,WRIT=YES);
      148     1118        %VEC (BND=WD,SIZ=4,WRIT=YES,MAND=YES);
PL6.E3A0      #001=UDE$FPTCHK File=UDE$FPTCHK.:E05TSI                            WED 07/30/97 06:56 Page:5
      149     1121        %VEC (BND=BY,SIZ=0);
      150     1124        %VEC (BND=WD);
      151     1127        %EJECT;
PL6.E3A0      #001=UDE$FPTCHK File=UDE$FPTCHK.:E05TSI                            WED 07/30/97 06:56 Page:6
      152     1128                                                /*STIMER*/
      153     1129        %FPT (C=4096,N=1);
      154     1132        %VEC (MAND=YES,BND=DW);
      155     1135                                                /*EVENT*/
      156     1136        %FPT (C=4097,N=1);
      157     1139        %VEC (MAND=YES,BND=DW);
      158     1142                                                /*INT*/
      159     1143        %FPT (C=4098,N=1);
      160     1146        %VEC (MAND=YES,BND=DW);
      161     1149                                                /*XCON*/
      162     1150        %FPT (C=4099,N=2);
      163     1153        %VEC (MAND=YES,BND=DW);
      164     1156        %VEC (BND=WD,SIZ=12,WRIT=YES);
      165     1159                                                /*TRAP*/
      166     1160        %FPT (C=4100,N=2);
      167     1163        %VEC (MAND=YES,BND=DW,SIZ=24);
      168     1166        %VEC (BND=DW,SIZ=24,WRIT=YES);
      169     1169                                                /*STRAP*/
      170     1170        %FPT (C=4101,N=1);
      171     1173        %VEC (MAND=YES,BND=DW);
      172     1176                                                /*TTIMER*/
      173     1177        %FPT (C=4102,N=2);
      174     1180        %VEC (MAND=YES,BND=DW);
      175     1183        %VEC (MAND=YES,BND=WD);
      176     1186                                                /*MERC*/
      177     1187        %FPT (C=4103,N=1);
      178     1190        %VEC (BND=WD,SIZ=4);
      179     1193                                                /*RETRY*/
      180     1194        %FPT (C=4104,N=2);
      181     1197        %VEC (BND=DW,SIZ=32);
      182     1200        %VEC (BND=DW,SIZ=32);
      183     1203                                                /*SENV=4105*/
      184     1204                                                /*TRTN*/
      185     1205        %FPT (C=4106,N=3);
      186     1208        %VEC (BND=DW,SIZ=32);
      187     1211        %VEC (BND=DW,SIZ=32);
      188     1214        %VEC (MAND=YES,BND=DW);
PL6.E3A0      #001=UDE$FPTCHK File=UDE$FPTCHK.:E05TSI                            WED 07/30/97 06:56 Page:7
      189     1217                                                /*CLRSTK*/
      190     1218        %FPT (C=4107,N=1);
      191     1221        %VEC (BND=DW);
      192     1224                                                /*MERCS*/
      193     1225        %FPT (C=4108,N=1);
      194     1228        %VEC (BND=WD,SIZ=4);
      195     1231                                                /*RETRYS*/
      196     1232        %FPT (C=4109,N=2);
      197     1235        %VEC (BND=DW,SIZ=32);
      198     1238        %VEC (BND=DW,SIZ=32);
      199     1241                                                /*RENV=4110*/
      200     1242                                                /*DRTN*/
      201     1243        %FPT (C=4111,N=5);
      202     1246        %VEC (BND=DW,SIZ=32);
      203     1249        %VEC (BND=DW,SIZ=32);
      204     1252        %VEC (MAND=YES,BND=DW,SIZ=16);
      205     1255        %VEC (BND=DW,SIZ=16);
      206     1258        %VEC (BND=DW,SIZ=60);
      207     1261        %EJECT;
PL6.E3A0      #001=UDE$FPTCHK File=UDE$FPTCHK.:E05TSI                            WED 07/30/97 06:56 Page:8
      208     1262                                                /*ERRMSG*/
      209     1263        %FPT (C=8192,N=11);
      210     1266        %VEC (MAND=YES,BND=DW,SIZ=16);
      211     1269        %VEC (MAND=YES,BND=WD,SIZ=4);
      212     1272        %VEC (MAND=YES,SIZ=120,WRIT=YES);
      213     1275        %VEC (SIZ=0);
      214     1278        %VEC ;
      215     1281        %VEC ;
      216     1284        %VEC (SIZ=0);
      217     1287        %VEC (SIZ=0);
      218     1290        %VEC (SIZ=0);
      219     1293        %VEC (WRIT=YES,SIZ=16,BND=DW);
      220     1296        %VEC (BND=WD,SIZ=4);
      221     1299                                                /*FID*/
      222     1300        %FPT (C=8193,N=10);
      223     1303        %VEC (MAND=YES,BND=DW);
      224     1306        %VEC (MAND=YES,SIZ=1);
      225     1309        %VEC (SIZ=2,WRIT=YES);
      226     1312        %VEC (WRIT=YES);
      227     1315        %VEC (WRIT=YES);
      228     1318        %VEC (WRIT=YES,SIZ=SNLIST,BND=WD);
      229     1321        %VEC (WRIT=YES);
      230     1324        %VEC (MAND=YES,SIZ=1,WRIT=YES);
      231     1327        %VEC (SIZ=4,WRIT=YES);
      232     1330        %VEC (WRIT=YES,BND=DW);
      233     1333                                                /*ENQ*/
      234     1334        %FPT (C=8194,N=3);
      235     1337        %VEC (MAND=YES,SIZ=16,BND=DW);
      236     1340        %VEC (MAND=YES,SIZ=0);
      237     1343        %VEC (SIZ=4,BND=WD,WRIT=YES);
      238     1346                                                /*DEQ*/
      239     1347        %FPT (C=8195,N=3);
      240     1350        %VEC (MAND=YES,BND=DW);
      241     1353        %VEC (SIZ=0);
      242     1356        %VEC (SIZ=4,BND=WD);
      243     1359                                                /*TIME*/
      244     1360        %FPT (C=8196,N=5);
PL6.E3A0      #001=UDE$FPTCHK File=UDE$FPTCHK.:E05TSI                            WED 07/30/97 06:56 Page:9
      245     1363        %VEC (MAND=YES,BND=DW);
      246     1366        %VEC (SIZ=12,WRIT=YES);
      247     1369        %VEC (SIZ=12,WRIT=YES);
      248     1372        %VEC (SIZ=4,WRIT=YES);
      249     1375        %VEC (SIZ=4,WRIT=YES,BND=WD);
      250     1378                                                /*NXTUSR*/
      251     1379        %FPT (C=8197,N=1);
      252     1382        %VEC (WRIT=YES,BND=DW,SIZ=16,MAND=YES);
      253     1385                                                /*WAIT*/
      254     1386        %FPT (C=8198,N=2);
      255     1389        %VEC (MAND=YES,BND=DW);
      256     1392        %VEC (MAND=YES,BND=WD,SIZ=4,WRIT=YES);
      257     1395                                                /*DISPLAY*/
      258     1396        %FPT (C=8199,N=1);
      259     1399        %VEC (MAND=YES,SIZ=12,BND=DW,WRIT=YES);
      260     1402                                                /*STATE*/
      261     1403        %FPT (C=8200,N=2);
      262     1406        %VEC (MAND=YES,SIZ=8,BND=DW);
      263     1409        %VEC (MAND=YES,SIZ=16,BND=WD,WRIT=YES);
      264     1412                                                /*XEQTIME*/
      265     1413        %FPT (C=8201,N=1);
      266     1416        %VEC (MAND=YES,SIZ=16,BND=DW,WRIT=YES);
      267     1419                                                /*SPRIV*/
      268     1420        %FPT (C=8202,N=1);
      269     1423        %VEC (MAND=YES,BND=DW);
      270     1426                                                /*RPRIV*/
      271     1427        %FPT (C=8203,N=1);
      272     1430        %VEC (MAND=YES,BND=DW);
      273     1433                                                /*SSWITCH*/
      274     1434        %FPT (C=8204,N=1);
      275     1437        %VEC (MAND=YES,BND=DW);
      276     1440                                                /*RSWITCH*/
      277     1441        %FPT (C=8205,N=1);
      278     1444        %VEC (MAND=YES,BND=DW);
      279     1447                                                /*CHGUNIT*/
      280     1448        %FPT (C=8206,N=1);
      281     1451        %VEC (MAND=YES,BND=DW,SIZ=16);
PL6.E3A0      #001=UDE$FPTCHK File=UDE$FPTCHK.:E05TSI                            WED 07/30/97 06:56 Page:10
      282     1454                                                /*USRFIELD*/
      283     1455        %FPT (C=8207,N=1);
      284     1458        %VEC (MAND=YES,BND=DW,SIZ=16);
      285     1461                                                /*RUE*/
      286     1462        %FPT (C=8208,N=1);
      287     1465        %VEC (MAND=YES,BND=DW);
      288     1468                                                /*UNFID*/
      289     1469        %FPT (C=8209,N=10);
      290     1472        %VEC (MAND=YES,BND=DW);
      291     1475        %VEC (SIZ=0,MAND=YES,WRIT=YES);
      292     1478        %VEC (SIZ=0);
      293     1481        %VEC ;
      294     1484        %VEC ;
      295     1487        %VEC (BND=WD,SIZ=SNLIST);
      296     1490        %VEC ;
      297     1493        %VEC (SIZ=1);
      298     1496        %VEC (SIZ=4);
      299     1499        %VEC (BND=WD,WRIT=YES,SIZ=4);
      300     1502                                                /*GJOB*/
      301     1503        %FPT (C=8210,N=6);
      302     1506        %VEC (MAND=YES,BND=DW,SIZ=8);
      303     1509        %VEC (MAND=NO,SIZ=8);
      304     1512        %VEC (MAND=NO,SIZ=0);
      305     1515        %VEC (MAND=NO,SIZ=8);
      306     1518        %VEC (MAND=NO,SIZ=1);
      307     1521        %VEC (MAND=NO,BND=DW,SIZ=8,WRIT=YES);
      308     1524                                                /*MONINFO*/
      309     1525        %FPT (C=8211,N=6);
      310     1528        %VEC (BND=WD,SIZ=248,WRIT=YES);
      311     1531        %VEC (BND=WD,SIZ=56,WRIT=YES);
      312     1534        %VEC (BND=WD,SIZ=52,WRIT=YES);
      313     1537        %VEC (BND=WD,SIZ=128,WRIT=YES);
      314     1540        %VEC (BND=WD,SIZ=4);
      315     1543        %VEC (BND=WD,SIZ=120,WRIT=YES);
      316     1546                                                /*HELP*/
      317     1547        %FPT (C=8212,N=8);
      318     1550        %VEC (MAND=YES,BND=DW,SIZ=16);
PL6.E3A0      #001=UDE$FPTCHK File=UDE$FPTCHK.:E05TSI                            WED 07/30/97 06:56 Page:11
      319     1553        %VEC (SIZ=0);
      320     1556        %VEC (SIZ=0);
      321     1559        %VEC (MAND=YES,SIZ=79,WRIT=YES);
      322     1562        %VEC (SIZ=0);
      323     1565        %VEC ;
      324     1568        %VEC ;
      325     1571        %VEC (BND=DW,SIZ=56);
      326     1574                                                /*CMDVAR*/
      327     1575        %FPT (C=8213,N=6);
      328     1578        %VEC (MAND=YES,BND=DW,SIZ=8);
      329     1581        %VEC (MAND=YES,SIZ=0);
      330     1584        %VEC (SIZ=0,WRIT=YES);
      331     1587        %VEC (SIZ=0);
      332     1590        %VEC ;
      333     1593        %VEC (BND=WD,SIZ=SNLIST);
      334     1596                                                /*SYSID*/
      335     1597        %FPT (C=8214,N=2);
      336     1600        %VEC (MAND=YES,BND=DW);
      337     1603        %VEC (MAND=NO,BND=WD,WRIT=YES,SIZ=4);
      338     1606        %EJECT;
PL6.E3A0      #001=UDE$FPTCHK File=UDE$FPTCHK.:E05TSI                            WED 07/30/97 06:56 Page:12
      339     1607                                                /*MAKUSER*/
      340     1608        %FPT (C=12288,N=1);
      341     1611        %VEC (SIZ=12,BND=DW,MAND=YES);
      342     1614                                                /*GDS*/
      343     1615        %FPT (C=12289,N=2);
      344     1618        %VEC (MAND=YES,BND=DW);
      345     1621        %VEC (BND=DW,MAND=YES,WRIT=YES);
      346     1624                                                /*FDS*/
      347     1625        %FPT (C=12290,N=2);
      348     1628        %VEC (MAND=YES,BND=DW);
      349     1631        %VEC (BND=DW,MAND=YES,WRIT=YES);
      350     1634                                                /*GDP*/
      351     1635        %FPT (C=12291,N=2);
      352     1638        %VEC (MAND=YES,BND=DW);
      353     1641        %VEC (BND=DW,WRIT=YES);
      354     1644                                                /*FDP*/
      355     1645        %FPT (C=12292,N=2);
      356     1648        %VEC (MAND=YES,BND=DW);
      357     1651        %VEC (BND=DW,WRIT=YES);
      358     1654                                                /*GVP*/
      359     1655        %FPT (C=12293,N=1);
      360     1658        %VEC (MAND=YES,BND=DW);
      361     1661                                                /*FVP*/
      362     1662        %FPT (C=12294,N=1);
      363     1665        %VEC (MAND=YES,BND=DW);
      364     1668                                                /*STLPP*/
      365     1669        %FPT (C=12295,N=1);
      366     1672        %VEC (MAND=YES,BND=DW,SIZ=4,WRIT=YES);
      367     1675                                                /*RSPP*/
      368     1676        %FPT (C=12296,N=1);
      369     1679        %VEC (MAND=YES,BND=DW,SIZ=4);
      370     1682                                                /*CVM*/
      371     1683        %FPT (C=12297,N=1);
      372     1686        %VEC (MAND=YES,BND=DW,SIZ=16);
      373     1689                                                /*SMPRT*/
      374     1690        %FPT (C=12298,N=1);
      375     1693        %VEC (MAND=YES,BND=DW);
PL6.E3A0      #001=UDE$FPTCHK File=UDE$FPTCHK.:E05TSI                            WED 07/30/97 06:56 Page:13
      376     1696                                                /*SSC*/
      377     1697        %FPT (C=12299,N=1);
      378     1700        %VEC (MAND=YES,BND=DW);
      379     1703                                                /*GDDL*/
      380     1704        %FPT (C=12300,N=1);
      381     1707        %VEC (MAND=YES,SIZ=12,WRIT=YES,BND=DW);
      382     1710                                                /*SAD*/
      383     1711        %FPT (C=12301,N=1);
      384     1714        %VEC (MAND=YES,BND=DW);
      385     1717                                                /*STD*/
      386     1718        %FPT (C=12302,N=2);
      387     1721        %VEC (MAND=YES,BND=DW);
      388     1724        %VEC (MAND=YES);
      389     1727                                                /*BADPP*/
      390     1728        %FPT (C=12303,N=1);
      391     1731        %VEC (MAND=YES,BND=DW);
      392     1734                                                /*GOODPP*/
      393     1735        %FPT (C=12304,N=1);
      394     1738        %VEC (MAND=YES,BND=DW);
      395     1741                                                /*GBPL*/
      396     1742        %FPT (C=12305,N=2);
      397     1745        %VEC (MAND=YES,BND=DW);
      398     1748        %VEC (MAND=YES,BND=DW,WRIT=YES);
      399     1751                                                /*MPL*/
      400     1752        %FPT (C=12306,N=1);
      401     1755        %VEC (MAND=YES,BND=WD);
      402     1758                                                /*UMPL*/
      403     1759        %FPT (C=12307,N=1);
      404     1762        %VEC (MAND=YES,BND=WD);
      405     1765                                                /*PDS*/
      406     1766        %FPT (C=12308,N=2);
      407     1769        %VEC (MAND=YES,BND=DW,WRIT=YES);
      408     1772        %VEC (MAND=YES,BND=DW,WRIT=YES);
      409     1775                                                /*PAS*/
      410     1776        %FPT (C=12309,N=1);
      411     1779        %VEC (MAND=NO,BND=DW,WRIT=NO);
      412     1782                                                /*VIRTUAL*/
PL6.E3A0      #001=UDE$FPTCHK File=UDE$FPTCHK.:E05TSI                            WED 07/30/97 06:56 Page:14
      413     1783        %FPT (C=12310,N=3);
      414     1786        %VEC (MAND=YES,BND=DW,WRIT=NO);
      415     1789        %VEC (SIZ=48);
      416     1792        %VEC (SIZ=48,WRIT=YES);
      417     1795        %EJECT;
PL6.E3A0      #001=UDE$FPTCHK File=UDE$FPTCHK.:E05TSI                            WED 07/30/97 06:56 Page:15
      418     1796                                                /*READ*/
      419     1797        %FPT (C=16384,N=4);
      420     1800        %VEC (MAND=YES,BND=DW,SIZ=16);
      421     1803        %VEC (SIZ=KEYRD);
      422     1806        %VEC (SIZ=1,WRIT=YES);
      423     1809        %VEC (SIZ=4,BND=WD);
      424     1812                                                /*WRITE*/
      425     1813        %FPT (C=16385,N=4);
      426     1816        %VEC (MAND=YES,BND=DW,SIZ=16);
      427     1819        %VEC (SIZ=KEYWR);
      428     1822        %VEC (SIZ=1);
      429     1825        %VEC (SIZ=4,BND=WD);
      430     1828                                                /*DELREC*/
      431     1829        %FPT (C=16386,N=4);
      432     1832        %VEC (MAND=YES,BND=DW);
      433     1835        %VEC (SIZ=KEYDEL);
      434     1838        %VEC (SIZ=KEYDEL);
      435     1841        %VEC (SIZ=8,BND=WD,WRIT=YES);
      436     1844                                                /*PRECORD*/
      437     1845        %FPT (C=16387,N=3);
      438     1848        %VEC (MAND=YES,BND=DW);
      439     1851        %VEC (SIZ=KEYPR);
      440     1854        %VEC (SIZ=4,BND=WD,WRIT=YES);
      441     1857                                                /*PFIL*/
      442     1858        %FPT (C=16388,N=1);
      443     1861        %VEC (MAND=YES,BND=DW);
      444     1864                                                /*EXTEND*/
      445     1865        %FPT (C=16389,N=1);
      446     1868        %VEC (MAND=YES,BND=DW);
      447     1871                                                /*REW*/
      448     1872        %FPT (C=16390,N=1);
      449     1875        %VEC (MAND=YES,BND=DW);
      450     1878                                                /*WEOF*/
      451     1879        %FPT (C=16391,N=1);
      452     1882        %VEC (MAND=YES,BND=DW);
      453     1885        %EJECT;
PL6.E3A0      #001=UDE$FPTCHK File=UDE$FPTCHK.:E05TSI                            WED 07/30/97 06:56 Page:16
      454     1886                                                /*OPEN*/
      455     1887        %FPT (C=20480,N=18);
      456     1890        %VEC (MAND=YES,BND=DW,SIZ=80);
      457     1893        %VEC (SIZ=SNLIST,BND=WD);
      458     1896        %VEC (SIZ=4,BND=WD,WRIT=YES);
      459     1899        %VEC (SIZ=0);
      460     1902        %VEC ;
      461     1905        %VEC (SIZ=4);
      462     1908        %VEC (SIZ=4);
      463     1911        %VEC (SIZ=4);
      464     1914        %VEC (SIZ=4);
      465     1917        %VEC (SIZ=4);
      466     1920        %VEC ;
      467     1923        %VEC (SIZ=4,BND=WD);
      468     1926        %VEC (SIZ=4,WRIT=YES,BND=WD);
      469     1929        %VEC ;
      470     1932        %VEC (SIZ=32);
      471     1935        %VEC (SIZ=5);
      472     1938        %VEC (SIZ=12);
      473     1941        %VEC (SIZ=48,BND=WD);
      474     1944                                                /*CLOSE*/
      475     1945        %FPT (C=20481,N=13);
      476     1948        %VEC (SIZ=16,MAND=YES,BND=DW);
      477     1951        %VEC (SIZ=SNLIST,BND=WD);
      478     1954        %VEC (SIZ=4,BND=WD,WRIT=YES);
      479     1957        %VEC (SIZ=0);
      480     1960        %VEC ;
      481     1963        %VEC (SIZ=4);
      482     1966        %VEC (SIZ=4);
      483     1969        %VEC (SIZ=4);
      484     1972        %VEC (SIZ=4);
      485     1975        %VEC (SIZ=4);
      486     1978        %VEC ;
      487     1981        %VEC (BND=WD,SIZ=4);
      488     1984        %VEC (SIZ=4,BND=WD);
      489     1987                                                /*CHECK*/
      490     1988        %FPT (C=20482,N=1);
PL6.E3A0      #001=UDE$FPTCHK File=UDE$FPTCHK.:E05TSI                            WED 07/30/97 06:56 Page:17
      491     1991        %VEC (MAND=YES,BND=DW);
      492     1994                                                /*TRUNC*/
      493     1995        %FPT (C=20483,N=1);
      494     1998        %VEC (MAND=YES,BND=DW);
      495     2001                                                /*CVOL*/
      496     2002        %FPT (C=20484,N=3);
      497     2005        %VEC (MAND=YES,BND=DW);
      498     2008        %VEC (SIZ=4,BND=WD,WRIT=YES);
      499     2011        %VEC (SIZ=4,BND=WD,WRIT=YES);
      500     2014                                                /*LINES*/
      501     2015        %FPT (C=20485,N=2);
      502     2018        %VEC (MAND=YES,BND=DW);
      503     2021        %VEC (BND=DW,WRIT=YES);
      504     2024                                                /*DEVICE*/
      505     2025        %FPT (C=20486,N=3);
      506     2028        %VEC (MAND=YES,BND=DW,SIZ=16);
      507     2031        %VEC (SIZ=32);
      508     2034        %VEC (BND=DW,SIZ=5);
      509     2037        %EJECT;
PL6.E3A0      #001=UDE$FPTCHK File=UDE$FPTCHK.:E05TSI                            WED 07/30/97 06:56 Page:18
      510     2038                                                /*CORRES*/
      511     2039        %FPT (C=24576,N=1);
      512     2042        %VEC (MAND=YES,BND=DW);
      513     2045                                                /*SETFMA*/
      514     2046        %FPT (C=24577,N=2);
      515     2049        %VEC (SIZ=1);
      516     2052        %VEC (SIZ=1);
      517     2055                                                /*GETDCB*/
      518     2056        %FPT (C=24578,N=3);
      519     2059        %VEC (MAND=YES,BND=DW);
      520     2062        %VEC (SIZ=0);
      521     2065        %VEC (SIZ=4,WRIT=YES);
      522     2068                                                /*RELDCB*/
      523     2069        %FPT (C=24579,N=1);
      524     2072        %VEC (MAND=YES,BND=DW);
      525     2075                                                /*LDEV*/
      526     2076        %FPT (C=24580,N=7);
      527     2079        %VEC (MAND=YES,BND=DW,SIZ=24);
      528     2082        %VEC (SIZ=32);
      529     2085        %VEC (SIZ=5);
      530     2088        %VEC ;
      531     2091        %VEC (SIZ=12);
      532     2094        %VEC (SIZ=32);
      533     2097        %VEC (SIZ=64);
      534     2100                                                /*MADMUCK*/
      535     2101        %FPT (C=24581,N=3);
      536     2104        %VEC (MAND=YES,BND=DW);
      537     2107        %VEC (MAND=YES);
      538     2110        %VEC (BND=DW,SIZ=SNLIST);
      539     2113                                                /*REM*/
      540     2114        %FPT (C=24582,N=1);
      541     2117        %VEC (MAND=YES,BND=DW);
      542     2120                                                /*XFLUSH=24583*/
      543     2121                                                /*RELSTARF*/
      544     2122        %FPT (C=24584,N=2);
      545     2125        %VEC (MAND=YES,BND=DW,SIZ=752);
      546     2128        %VEC ;
PL6.E3A0      #001=UDE$FPTCHK File=UDE$FPTCHK.:E05TSI                            WED 07/30/97 06:56 Page:19
      547     2131        %EJECT;
PL6.E3A0      #001=UDE$FPTCHK File=UDE$FPTCHK.:E05TSI                            WED 07/30/97 06:56 Page:20
      548     2132                                                /*RDERLOG*/
      549     2133        %FPT (C=28672,N=1);
      550     2136        %VEC (MAND=YES,BND=WD,SIZ=2048,WRIT=YES);
      551     2139                                                /*WRERLOG*/
      552     2140        %FPT (C=28673,N=2);
      553     2143        %VEC (MAND=YES,BND=DW,SIZ=16);
      554     2146        %VEC (MAND=YES,BND=WD,SIZ=4);
      555     2149                                                /*TDOPEN*/
      556     2150        %FPT (C=28674,N=4);
      557     2153        %VEC (MAND=YES,BND=DW,SIZ=16);
      558     2156        %VEC ;
      559     2159        %VEC ;
      560     2162        %VEC ;
      561     2165                                                /*TDCLOSE*/
      562     2166        %FPT (C=28675,N=1);
      563     2169        %VEC (MAND=YES,BND=DW);
      564     2172                                                /*TDIO*/
      565     2173        %FPT (C=28676,N=3);
      566     2176        %VEC (MAND=YES,BND=DW,SIZ=16);
      567     2179        %VEC (MAND=YES,BND=WD,SIZ=4);
      568     2182        %VEC (MAND=YES,BND=DW,SIZ=8);
      569     2185                                                /*TDREQ*/
      570     2186        %FPT (C=28677,N=1);
      571     2189        %VEC (MAND=YES,BND=DW,SIZ=16);
      572     2192                                                /*IOQ*/
      573     2193        %FPT (C=28678,N=2);
      574     2196        %VEC (MAND=YES,BND=DW,SIZ=16);
      575     2199        %VEC (BND=DW,WRIT=YES,SIZ=4);
      576     2202                                                /*SYSCON*/
      577     2203        %FPT (C=28679,N=2);
      578     2206        %VEC (MAND=YES,BND=DW,SIZ=16);
      579     2209        %VEC (BND=DW,WRIT=YES);
      580     2212                                                /*MIRROR*/
      581     2213        %FPT (C=28680,N=1);
      582     2216        %VEC (MAND=YES,BND=DW,SIZ=16);
      583     2219        %EJECT;
PL6.E3A0      #001=UDE$FPTCHK File=UDE$FPTCHK.:E05TSI                            WED 07/30/97 06:56 Page:21
      584     2220                                                /*ACTIVATE*/
      585     2221        %FPT (C=32768,N=4);
      586     2224        %VEC (MAND=YES,SIZ=32,BND=DW);
      587     2227        %VEC (MAND=YES,SIZ=32,BND=WD);
      588     2230        %VEC (MAND=NO,SIZ=32,BND=WD);
      589     2233        %VEC (SIZ=1);
      590     2236                                                /*DEACTIVATE*/
      591     2237        %FPT (C=32769,N=4);
      592     2240        %VEC (MAND=YES,SIZ=32,BND=DW);
      593     2243        %VEC (MAND=YES,SIZ=32,BND=WD);
      594     2246        %VEC (SIZ=1);
      595     2249        %VEC (SIZ=1);
      596     2252                                                /*UNLATCH*/
      597     2253        %FPT (C=32770,N=3);
      598     2256        %VEC (MAND=YES,BND=DW);
      599     2259        %VEC ;
      600     2262        %VEC ;
      601     2265                                                /*CGCTL*/
      602     2266        %FPT (C=32771,N=20);
      603     2269        %VEC (MAND=YES,BND=DW,SIZ=40);
      604     2272        %VEC ;
      605     2275        %VEC ;
      606     2278        %VEC (SIZ=80,BND=WD);
      607     2281        %VEC (SIZ=48,BND=WD);
      608     2284        %VEC ;
      609     2287        %VEC ;
      610     2290        %VEC (SIZ=32,BND=WD);
      611     2293        %VEC ;
      612     2296        %VEC ;
      613     2299        %VEC ;
      614     2302        %VEC ;
      615     2305        %VEC ;
      616     2308        %VEC ;
      617     2311        %VEC ;
      618     2314        %VEC ;
      619     2317        %VEC ;
      620     2320        %VEC ;
PL6.E3A0      #001=UDE$FPTCHK File=UDE$FPTCHK.:E05TSI                            WED 07/30/97 06:56 Page:22
      621     2323        %VEC ;
      622     2326        %VEC ;
      623     2329                                                /*CGINFO*/
      624     2330        %FPT (C=32772,N=20);
      625     2333        %VEC (MAND=YES,BND=DW);
      626     2336        %VEC (WRIT=YES);
      627     2339        %VEC (WRIT=YES);
      628     2342        %VEC (WRIT=YES,SIZ=80,BND=WD);/*CGCP*/
      629     2345        %VEC (WRIT=YES,SIZ=48,BND=WD);/*SETSTA*/
      630     2348        %VEC (WRIT=YES,SIZ=72,BND=WD);/*CGSTATS*/
      631     2351        %VEC (WRIT=YES);
      632     2354        %VEC (WRIT=YES);
      633     2357        %VEC (WRIT=YES,SIZ=32,BND=WD);/*STATION*/
      634     2360        %VEC ;
      635     2363        %VEC ;
      636     2366        %VEC ;
      637     2369        %VEC ;
      638     2372        %VEC ;
      639     2375        %VEC ;
      640     2378        %VEC ;
      641     2381        %VEC ;
      642     2384        %VEC ;
      643     2387        %VEC ;
      644     2390        %VEC ;
      645     2393
      646     2394                                                /*FWCG*/
      647     2395        %FPT (C=32773,N=14);
      648     2398        %VEC (MAND=YES,BND=DW);
      649     2401        %VEC ;
      650     2404        %VEC ;
      651     2407        %VEC ;
      652     2410        %VEC ;
      653     2413        %VEC ;
      654     2416        %VEC ;
      655     2419        %VEC ;
      656     2422        %VEC ;
      657     2425        %VEC ;
PL6.E3A0      #001=UDE$FPTCHK File=UDE$FPTCHK.:E05TSI                            WED 07/30/97 06:56 Page:23
      658     2428        %VEC ;
      659     2431        %VEC ;
      660     2434        %VEC ;
      661     2437        %VEC ;
      662     2440
      663     2441                                                /*ATTACH*/
      664     2442        %FPT (C=32774,N=2);
      665     2445        %VEC (MAND=YES,BND=DW);
      666     2448        %VEC (MAND=YES,SIZ=34);
      667     2451
      668     2452                                                /*DETACH*/
      669     2453        %FPT (C=32775,N=2);
      670     2456        %VEC (MAND=YES,BND=DW);
      671     2459        %VEC (SIZ=34);
      672     2462        %EJECT;
PL6.E3A0      #001=UDE$FPTCHK File=UDE$FPTCHK.:E05TSI                            WED 07/30/97 06:56 Page:24
      673     2463                                                /*TEMPWROC*/
      674     2464        %FPT (C=36864,N=3);
      675     2467        %VEC (MAND=YES,BND=DW,WRIT=YES);
      676     2470        %VEC (MAND=YES,SIZ=1);
      677     2473        %VEC (WRIT=YES,SIZ=1);
      678     2476        %EJECT;
PL6.E3A0      #001=UDE$FPTCHK File=UDE$FPTCHK.:E05TSI                            WED 07/30/97 06:56 Page:25
      679     2477                                                /*KEYIN*/
      680     2478        %FPT (C=40960,N=4);
      681     2481        %VEC (MAND=YES,BND=DW,SIZ=24);
      682     2484        %VEC (SIZ=1);
      683     2487        %VEC (SIZ=1,WRIT=YES);
      684     2490        %VEC (BND=DW,SIZ=4);
      685     2493                                                /*OCMSG*/
      686     2494        %FPT (C=40961,N=3);
      687     2497        %VEC (MAND=YES,BND=DW,SIZ=16);
      688     2500        %VEC (SIZ=1);
      689     2503        %VEC (SIZ=1);
      690     2506        %EJECT;
PL6.E3A0      #001=UDE$FPTCHK File=UDE$FPTCHK.:E05TSI                            WED 07/30/97 06:56 Page:26
      691     2507                                                /*PATHCON*/
      692     2508        %FPT (C=45056,N=3);
      693     2511        %VEC (MAND=YES,BND=WD,SIZ=1);
      694     2514        %VEC (MAND=YES,BND=WD,SIZ=4,WRIT=YES);
      695     2517        %VEC (SIZ=1);
      696     2520        %EJECT;
PL6.E3A0      #001=UDE$FPTCHK File=UDE$FPTCHK.:E05TSI                            WED 07/30/97 06:56 Page:27
      697     2521                                                /*SSTATE=49152*/
      698     2522                                                /*XSTATE=49153*/
      699     2523                                                /*GETSTATE*/
      700     2524        %FPT (C=49154,N=1);
      701     2527        %VEC (MAND=YES,BND=WD,SIZ=4100);
      702     2530                                                /*SMOUSE*/
      703     2531        %FPT (C=49155,N=1);
      704     2534        %VEC (BND=DW);
      705     2537                                                /*XMOUSE=49156*/
      706     2538                                                /*GETMOUSE*/
      707     2539        %FPT (C=49157,N=1);
      708     2542        %VEC (MAND=YES,BND=WD,SIZ=4100);
      709     2545                                                /*GETPM*/
      710     2546        %FPT (C=49158,N=1);
      711     2549        %VEC (MAND=YES,BND=WD,SIZ=4096);
      712     2552                                                /*FEPDATA*/
      713     2553        %FPT (C=49159,N=2);
      714     2556        %VEC (MAND=YES,BND=DW);
      715     2559        %VEC (MAND=YES,BND=WD,SIZ=4096);
      716     2562        %EJECT;
PL6.E3A0      #001=UDE$FPTCHK File=UDE$FPTCHK.:E05TSI                            WED 07/30/97 06:56 Page:28
      717     2563                                                /*LIMIT*/
      718     2564        %FPT (C=53248,N=6);
      719     2567        %VEC (MAND=YES,BND=DW,SIZ=24);
      720     2570        %VEC (BND=DW,SIZ=PSEUDLIST);
      721     2573        %VEC (BND=DW,SIZ=PRESLIST,WRIT=YES);
      722     2576        %VEC (BND=DW,SIZ=RPSNLIST);
      723     2579        %VEC ;
      724     2582        %VEC ;
      725     2585                                                /*MBS*/
      726     2586        %FPT (C=53249,N=6);
      727     2589        %VEC (MAND=YES,BND=DW,SIZ=24);
      728     2592        %VEC (BND=DW,SIZ=PSEUDLIST,WRIT=YES);
      729     2595        %VEC (BND=DW,SIZ=PRESLIST,WRIT=YES);
      730     2598        %VEC (BND=DW,SIZ=RPSNLIST,WRIT=YES);
      731     2601        %VEC ;
      732     2604        %VEC ;
      733     2607                                                /*DISPRES*/
      734     2608        %FPT (C=53250,N=6);
      735     2611        %VEC (MAND=YES,BND=DW,SIZ=24);
      736     2614        %VEC (BND=DW,SIZ=PSEUDLIST,WRIT=YES);
      737     2617        %VEC (BND=DW,SIZ=PRESLIST,WRIT=YES);
      738     2620        %VEC (BND=DW,SIZ=RPSNLIST,WRIT=YES);
      739     2623        %VEC ;
      740     2626        %VEC ;
      741     2629                                                /*RELRES*/
      742     2630        %FPT (C=53251,N=6);
      743     2633        %VEC (MAND=YES,BND=DW,SIZ=24);
      744     2636        %VEC (BND=DW,SIZ=PSEUDLIST,WRIT=YES);
      745     2639        %VEC (BND=DW,SIZ=PRESLIST,WRIT=YES);
      746     2642        %VEC (BND=DW,SIZ=RPSNLIST,WRIT=YES);
      747     2645        %VEC ;
      748     2648        %VEC ;
      749     2651                                                /*REQUIRE*/
      750     2652        %FPT (C=53252,N=6);
      751     2655        %VEC (MAND=YES,BND=DW,SIZ=24);
      752     2658        %VEC (MAND=YES,BND=DW,SIZ=PSEUDLIST);
      753     2661        %VEC (BND=DW,SIZ=PRESLIST);
PL6.E3A0      #001=UDE$FPTCHK File=UDE$FPTCHK.:E05TSI                            WED 07/30/97 06:56 Page:29
      754     2664        %VEC (BND=DW,SIZ=RPSNLIST);
      755     2667        %VEC ;
      756     2670        %VEC ;
      757     2673                                                /*RACST=53253*/
      758     2674        %EJECT;
PL6.E3A0      #001=UDE$FPTCHK File=UDE$FPTCHK.:E05TSI                            WED 07/30/97 06:56 Page:30
      759     2675                                                /*STRMCTL*/
      760     2676        %FPT (C=57344,N=3);
      761     2679        %VEC (MAND=YES,BND=DW);
      762     2682        %VEC ;
      763     2685        %VEC (MAND=YES,BND=DW,SIZ=16);
      764     2688                                                /*GTRMCTL*/
      765     2689        %FPT (C=57345,N=3);
      766     2692        %VEC (MAND=YES,BND=DW);
      767     2695        %VEC ;
      768     2698        %VEC (MAND=YES,BND=DW,WRIT=YES,SIZ=16);
      769     2701                                                /*PROMPT*/
      770     2702        %FPT (C=57346,N=3);
      771     2705        %VEC (MAND=YES,BND=DW,SIZ=16);
      772     2708        %VEC ;
      773     2711        %VEC (MAND=YES,SIZ=1);
      774     2714                                                /*EOM*/
      775     2715        %FPT (C=57347,N=3);
      776     2718        %VEC (MAND=YES,BND=DW,SIZ=16);
      777     2721        %VEC ;
      778     2724        %VEC (SIZ=32);
      779     2727                                                /*TRMPRG*/
      780     2728        %FPT (C=57348,N=2);
      781     2731        %VEC (MAND=YES,BND=DW,SIZ=16);
      782     2734        %VEC ;
      783     2737                                                /*GLINEATTR*/
      784     2738        %FPT (C=57349,N=3);
      785     2741        %VEC (MAND=YES,BND=DW);
      786     2744        %VEC ;
      787     2747        %VEC (MAND=YES,BND=DW,WRIT=YES,SIZ=64);
      788     2750                                                /*STRMATTR*/
      789     2751        %FPT (C=57350,N=3);
      790     2754        %VEC (MAND=YES,BND=DW);
      791     2757        %VEC ;
      792     2760        %VEC (MAND=YES,BND=DW,SIZ=40);
      793     2763                                                /*GTRMATTR*/
      794     2764        %FPT (C=57351,N=3);
      795     2767        %VEC (MAND=YES,BND=DW);
PL6.E3A0      #001=UDE$FPTCHK File=UDE$FPTCHK.:E05TSI                            WED 07/30/97 06:56 Page:31
      796     2770        %VEC ;
      797     2773        %VEC (MAND=YES,BND=DW,WRIT=YES,SIZ=40);
      798     2776                                                /*PLATEN*/
      799     2777        %FPT (C=57352,N=3);
      800     2780        %VEC (MAND=YES,BND=DW);
      801     2783        %VEC ;
      802     2786        %VEC (MAND=YES,BND=DW,SIZ=16);
      803     2789                                                /*STRMTAB*/
      804     2790        %FPT (C=57353,N=3);
      805     2793        %VEC (MAND=YES,BND=DW);
      806     2796        %VEC ;
      807     2799        %VEC (MAND=YES,SIZ=1);
      808     2802                                                /*GTRMTAB*/
      809     2803        %FPT (C=57354,N=3);
      810     2806        %VEC (MAND=YES,BND=DW);
      811     2809        %VEC ;
      812     2812        %VEC (MAND=YES,WRIT=YES,SIZ=1);
      813     2815                                                /*SINPUT*/
      814     2816        %FPT (C=57355,N=3);
      815     2819        %VEC (MAND=YES,BND=DW);
      816     2822        %VEC ;
      817     2825        %VEC (MAND=NO,SIZ=1);
      818     2828                                                /*PROFILE*/
      819     2829        %FPT (C=57356,N=4);
      820     2832        %VEC (MAND=YES,BND=DW);
      821     2835        %VEC ;
      822     2838        %VEC (MAND=YES,SIZ=0);
      823     2841        %VEC (MAND=YES,WRIT=YES,BND=WD,SIZ=1);
      824     2844                                                /*FEBOOT*/
      825     2845        %FPT (C=57357,N=3);
      826     2848        %VEC (MAND=YES,BND=DW,SIZ=16);
      827     2851        %VEC (MAND=YES,WRIT=YES,SIZ=1);
      828     2854        %VEC (MAND=YES,WRIT=YES,SIZ=1);
      829     2857                                                /*FEDUMP*/
      830     2858        %FPT (C=57358,N=3);
      831     2861        %VEC (MAND=YES,BND=DW,SIZ=16);
      832     2864        %VEC (MAND=YES,WRIT=YES,SIZ=1);
PL6.E3A0      #001=UDE$FPTCHK File=UDE$FPTCHK.:E05TSI                            WED 07/30/97 06:56 Page:32
      833     2867        %VEC (MAND=YES,WRIT=YES,SIZ=1);
      834     2870                                                /*FECTL*/
      835     2871        %FPT (C=57359,N=3);
      836     2874        %VEC (MAND=YES,BND=DW,SIZ=16);
      837     2877        %VEC (SIZ=1);
      838     2880        %VEC (SIZ=1);
      839     2883                                                /*TRMISC*/
      840     2884        %FPT (C=57360,N=2);
      841     2887        %VEC (MAND=YES,BND=DW);
      842     2890        %VEC ;
      843     2893                                                /*SETFP*/
      844     2894        %FPT (C=57361,N=4);
      845     2897        %VEC (MAND=YES,BND=DW);
      846     2900        %VEC (MAND=YES,BND=DW);
      847     2903        %VEC ;
      848     2906        %VEC ;
      849     2909                                                /*DRIBBLE*/
      850     2910        %FPT (C=57362,N=1);
      851     2913        %VEC (MAND=YES,BND=DW);
      852     2916                                                /*CONFIG*/
      853     2917        %FPT (C=57363,N=3);
      854     2920        %VEC (MAND=YES,BND=DW,SIZ=8);
      855     2923        %VEC ;
      856     2926        %VEC (WRIT=YES,SIZ=16);
      857     2929                                                /*DCLFLD*/
      858     2930        %FPT (C=57364,N=4);
      859     2933        %VEC (MAND=YES,SIZ=16,BND=DW);
      860     2936        %VEC ;
      861     2939        %VEC ;
      862     2942        %VEC (MAND=YES,SIZ=8,BND=WD);
      863     2945                                                /*ERASE*/
      864     2946        %FPT (C=57365,N=3);
      865     2949        %VEC (MAND=YES,SIZ=8,BND=DW);
      866     2952        %VEC;
      867     2955        %VEC ;
      868     2958                                                /*MDFFLD*/
      869     2959        %FPT (C=57366,N=5);
PL6.E3A0      #001=UDE$FPTCHK File=UDE$FPTCHK.:E05TSI                            WED 07/30/97 06:56 Page:33
      870     2962        %VEC (MAND=YES,SIZ=8,BND=DW);
      871     2965        %VEC ;
      872     2968        %VEC (SIZ=1);
      873     2971        %VEC (SIZ=1);
      874     2974        %VEC (MAND=YES,SIZ=8,BND=WD);
      875     2977                                                /*RLSFLD*/
      876     2978        %FPT (C=57367,N=3);
      877     2981        %VEC (MAND=YES,SIZ=8,BND=DW);
      878     2984        %VEC ;
      879     2987        %VEC ;
      880     2990                                                /*SLCFLD*/
      881     2991        %FPT (C=57368,N=3);
      882     2994        %VEC (MAND=YES,SIZ=8,BND=DW);
      883     2997        %VEC;
      884     3000        %VEC;
      885     3003                                                /*NODEINFO*/
      886     3004        %FPT (C=57369,N=2);
      887     3007        %VEC (MAND=YES,SIZ=16,BND=DW);
      888     3010        %VEC (MAND=YES,SIZ=24,BND=DW,WRIT=YES);
      889     3013                                                /*GPROMPT*/
      890     3014        %FPT (C=57370,N=3);
      891     3017        %VEC (MAND=YES,BND=DW,SIZ=16,WRIT=YES);
      892     3020        %VEC;
      893     3023        %VEC (MAND=YES,SIZ=3,WRIT=YES);
      894     3026                                                /*GPLATEN*/
      895     3027        %FPT (C=57371,N=3);
      896     3030        %VEC (MAND=YES,BND=DW,SIZ=7,WRIT=NO);
      897     3033        %VEC;
      898     3036        %VEC (MAND=YES,SIZ=7,WRIT=YES);
      899     3039        %EJECT;
PL6.E3A0      #001=UDE$FPTCHK File=UDE$FPTCHK.:E05TSI                            WED 07/30/97 06:56 Page:34
      900     3040                                                /*SYMBIO*/
      901     3041        %FPT (C=61440,N=8);
      902     3044        %VEC (MAND=YES,BND=DW,SIZ=24);
      903     3047        %VEC ;
      904     3050        %VEC ;
      905     3053        %VEC ;
      906     3056        %VEC ;
      907     3059        %VEC ;
      908     3062        %VEC ;
      909     3065        %VEC ;
      910     3068                                                /*JOBSTATS*/
      911     3069        %FPT (C=61441,N=12);
      912     3072        %VEC (MAND=YES,BND=DW,SIZ=48);
      913     3075        %VEC ;
      914     3078        %VEC (WRIT=YES);
      915     3081        %VEC (BND=DW,SIZ=80);
      916     3084        %VEC (SIZ=32);
      917     3087        %VEC ;
      918     3090        %VEC (BND=DW,WRIT=YES);
      919     3093        %VEC (BND=DW,WRIT=YES);
      920     3096        %VEC ;
      921     3099        %VEC ;
      922     3102        %VEC ;
      923     3105        %VEC ;
      924     3108    1        2 * SBIN(27) UNAL INIT(-1);
      925     3109        %EJECT;
PL6.E3A0      #001=UDE$FPTCHK File=UDE$FPTCHK.:E05TSI                            WED 07/30/97 06:56 Page:35
      926     3110    1   DCL 1 PMME ,
      927     3111    1            2 CODE UBIN HALF UNAL,
      928     3112    1            2 NPARM UBIN BYTE UNAL;
      929     3113    1   DCL PMMEC REDEF PMME CHAR(3);
      930     3114    1   DCL PMMEB CHAR(3) BASED(PMME$);
      931     3115    1   DCL 1 PARM,
      932     3116    1            2 MAND BIT(1),
      933     3117    1            2 BND BIT(3),
      934     3118    1            2 WRIT BIT(1),
      935     3119    1            2 SIZ UBIN(13) UNAL;
      936     3120    1   DCL 1 PARMC REDEF PARM CHAR(2);
      937     3121    1   DCL 1 PARMB CHAR(2) BASED(PMME$);
      938     3122    1   DCL TXTC CHAR(1) BASED(PNO$);
      939     3123    1   DCL SNSIZE UBIN BASED(PNO$);
      940     3124    1   DCL SCRFLG BIT(1);
      941     3125        /*
      942     3126        */
      943     3127    1   DCL IRM$FPTCHECK ENTRY(1);
      944     3128    1   DCL HFF$GETCLNUP ENTRY(2) ALTRET;
      945     3129    1   DCL HFF$NILERASE ENTRY(1) ALTRET;
      946     3130    1   DCL HFF$RET_PS_DESC ENTRY(2) ALTRET;
      947     3131    1   DCL HFF$DSIZ ENTRY(2) ALTRET;
      948     3132    1   DCL HFF$CHKDBRK ENTRY(1) ALTRET;
      949     3133    1   DCL HFF$PTPRES ENTRY(1) ALTRET;
      950     3134    1   DCL UDB$PMMEXIT ENTRY;
      951     3135    1   DCL B$PS0$ PTR SYMREF;
      952     3136    1   DCL FPTCODE UBIN;
      953     3137    1   DCL FPTCODE1 SBIN;
      954     3138    1   DCL 1 FPTCODE2 REDEF FPTCODE1,
      955     3139    1         2 * BIT(1),
      956     3140    1         2 X UBIN(17) UNAL,
      957     3141    1         2 * BIT(18);
      958     3142    1   DCL CLNUP EPTR;
      959     3143    1   DCL PMME$ PTR;
      960     3144    1   DCL CODE UBIN;
      961     3145    1   DCL NPARM SBIN;
      962     3146    1   DCL PNO SBIN;
PL6.E3A0      #001=UDE$FPTCHK File=UDE$FPTCHK.:E05TSI                            WED 07/30/97 06:56 Page:36
      963     3147    1   DCL PNO$ REDEF PNO PTR;
      964     3148    1   DCL ORG UBIN;
      965     3149    1   DCL KEYL UBIN;
      966     3150    1   DCL SIZ UBIN;
      967     3151    1   DCL 1 DESC DALIGNED,
      968     3152    1         2 SIZ UBIN(20) UNAL,
      969     3153    1         2 READ BIT(1),
      970     3154    1         2 WRIT BIT(1),
      971     3155    1         2 * BIT(14),
      972     3156    1         2 BASE UBIN(36),
      973     3157    1         2 BAS REDEF BASE,
      974     3158    1           3 WSQ BIT(2),
      975     3159    1           3 * BIT(31),
      976     3160    1           3 BND BIT(3);
      977     3161    1   DCL B$UPT$ PTR SYMREF;
      978     3162    1   DCL 1 MAPW(0:0) BASED(B$UPT$) ALIGNED,
      979     3163    1         2 PP UBIN HALF UNAL,
      980     3164    1         2 SOFT UBIN(10) UNAL,
      981     3165    1         2 * BIT(2),
      982     3166    1         2 PR BIT(1),
      983     3167    1         2 WR BIT(1),
      984     3168    1         2 HK BIT(1),
      985     3169    1         2 IO BIT(1),
      986     3170    1         2 MODIF BIT(1),
      987     3171    1         2 ACC BIT(1);
      988     3172    1   DCL 1 SC_UDE420 SYMREF ALIGNED,
      989     3173    1         2 FCG BIT(12) UNAL,
      990     3174    1         2 MID BIT(6) UNAL,
      991     3175    1         2 CODE UBIN(15) UNAL,
      992     3176    1         2 SEV UBIN(3) UNAL;
      993     3177    1   DCL B$JIT$ PTR SYMREF;
      994     3178        %INCLUDE B$JIT_C;
      995     3492        %B$JIT0;
      996     3581        %U$JIT1X;
      997     3584        %M$JIT2X;
      998     3587        %F$JIT3;
      999     3592        %A$JIT6X;
PL6.E3A0      #001=UDE$FPTCHK File=UDE$FPTCHK.:E05TSI                            WED 07/30/97 06:56 Page:37
     1000     3595        %EJECT;
PL6.E3A0      #001=UDE$FPTCHK File=UDE$FPTCHK.:E05TSI                            WED 07/30/97 06:56 Page:38
     1001     3596    1      SC_UDE420.CODE=SCODE.CODE;
     1002     3597    1      SCRFLG = '0'B;
     1003     3598    1      CALL HFF$GETCLNUP (CLNUP , FPTCODE1) ALTRET (SCR1);
     1004     3599    2      DO WHILE ('0'B);
     1005     3600    2   SCR1: SCRFLG = '1'B;
     1006     3601    2         END;
     1007     3602    1      FPTCODE=FPTCODE2.X;
     1008     3603    1      PMME$=ADDR(UDE_FPTTBL);
     1009     3604    1   NXPMME: PMMEC=PMMEB;
     1010     3605    1      CODE=PMME.CODE;
     1011     3606    1      NPARM=PMME.NPARM;
     1012     3607    1      PMME$=PINCRB(PMME$,SIZEB(PMME));
     1013     3608    1      IF CODE>=131071
     1014     3609    2      THEN DO;
     1015     3610    2   SCR:    ;
     1016     3611    2           CALL IRM$FPTCHECK(SC_UDE420);
     1017     3612        /*S*   SCREECH_CODE: UDE-S$MPMMEFLT
     1018     3613               TYPE: SUA
     1019     3614               MESSAGE: Monitor fault while in PMME processing.
     1020     3615               REMARKS: The monitor has trapped while in PMME processing
     1021     3616                        and the FPT Checker (UDE$FPTCHK) has detected no
     1022     3617                        errors in the parameters supplied by the user via
     1023     3618                        the Parameter Stack.
     1024     3619                        Note that the S$MPMMEFLT code will have been
     1025     3620                        replaced by the Fault Handler screech code.
     1026     3621                        If the actual S$MPMMEFLT Screech Code (420)
     1027     3622                        is ever reported the system is in real trouble
     1028     3623                        and a full screech is imminent.
     1029     3624         */
     1030     3625    2           END;
     1031     3626    1      IF CODE=FPTCODE
     1032     3627    2      THEN DO;
     1033     3628    2           PNO=0;
     1034     3629    3           DO WHILE (PNO<NPARM);
     1035     3630    3                PARMC=PARMB;
     1036     3631    3                CODE=PARM.SIZ-SNLIST;
     1037     3632    3                CALL HFF$RET_PS_DESC (PNO , DESC) ALTRET(NOPARM);
PL6.E3A0      #001=UDE$FPTCHK File=UDE$FPTCHK.:E05TSI                            WED 07/30/97 06:56 Page:39
     1038     3633    3                IF DESC.BAS.WSQ THEN GOTO BADPARM;
     1039     3634    3                IF PARM.WRIT
     1040     3635    3                THEN
     1041     3636    3                      CALL HFF$CHKDBRK (PNO) ALTRET (BADPARM);
     1042     3637    3                ELSE
     1043     3638    3                     CALL HFF$PTPRES(PNO) ALTRET(BADPARM);
     1044     3639    3                IF (DESC.BAS.BND&PARM.BND)~='0'O
     1045     3640    3                THEN GOTO BADPARM;
     1046     3641        %EJECT;
PL6.E3A0      #001=UDE$FPTCHK File=UDE$FPTCHK.:E05TSI                            WED 07/30/97 06:56 Page:40
     1047     3642    4   SPECIAL:     DO CASE (CODE);
     1048     3643    4                 CASE(CASESN);
     1049     3644                                                /* SERIAL NUMBER LIST                 */
     1050     3645    4                   IF DESC.SIZ<3
     1051     3646    4                   THEN GOTO BADPARM;
     1052     3647    4                   IF DESC.SIZ<SNSIZE*6+3
     1053     3648    4                   THEN GOTO BADPARM;
     1054     3649    4                 CASE(CASEPSEUD);
     1055     3650    4                   IF DESC.SIZ<3
     1056     3651    4                   THEN GOTO BADPARM;
     1057     3652    4                   CODE=SNSIZE*12+16;
     1058     3653    4   CHKDW:          CODE=((CODE+7)/8)*8-1;
     1059     3654    4                   IF DESC.SIZ<CODE
     1060     3655    4                   THEN GOTO BADPARM;
     1061     3656    4                 CASE(CASEPRES,CASERPSN);
     1062     3657    4                   IF DESC.SIZ<3
     1063     3658    4                   THEN GOTO BADPARM;
     1064     3659    4                   CODE=SNSIZE*16+8;
     1065     3660    4                   GOTO CHKDW;
     1066     3661        %EJECT;
PL6.E3A0      #001=UDE$FPTCHK File=UDE$FPTCHK.:E05TSI                            WED 07/30/97 06:56 Page:41
     1067     3662    4                 CASE(CASERD);
     1068     3663    4                    CALL SETKEY;
     1069     3664    4                    IF B$PS0$->FPT$READ_V.KEYS OR B$PS0$->FPT$READ_V.KEYR
     1070     3665    5                    THEN DO;
     1071     3666    5                       IF B$PS0$->FPT$READ_V.KEYR
     1072     3667    5                       THEN PARM.WRIT='1'B;
     1073     3668    6   RDKEY:              DO CASE(ORG);
     1074     3669    6                         CASE(%KEYED#);
     1075     3670    6                          IF PARM.WRIT = '1'B
     1076     3671    6                          THEN
     1077     3672    6                            CALL HFF$CHKDBRK (PNO) ALTRET (BADPARM);
     1078     3673    6                          IF SIZ=0 OR SIZ<=ASCBIN(TXTC)
     1079     3674    6                          THEN GOTO BADPARM;
     1080     3675    6                         CASE(%INDEXED#, %SE#, %IREL#);
     1081     3676    6                          IF SIZ<KEYL
     1082     3677    6                          THEN GOTO BADPARM;
     1083     3678    6                         CASE(%RANDOM#,%IDS#,%RELATIVE#,%CONSEC#);
     1084     3679    6                          IF SIZ<4
     1085     3680    6                          THEN GOTO BADPARM;
     1086     3681    6                         CASE(%FORM#,%TERMINAL#);
     1087     3682    6                          IF SIZ<2
     1088     3683    6                          THEN GOTO BADPARM;
     1089     3684    6                         CASE(ELSE);
     1090     3685    6                          GOTO NXPARM;
     1091     3686    6                       END;
     1092     3687    5                       IF PARM.WRIT
     1093     3688    5                      THEN
     1094     3689    5                         CALL HFF$CHKDBRK (PNO) ALTRET (BADPARM);
     1095     3690    5                       ELSE CALL HFF$PTPRES(PNO) ALTRET(BADPARM);
     1096     3691    5                    END;
     1097     3692    4                 CASE(CASEWR);
     1098     3693    4                    CALL SETKEY;
     1099     3694    4                    IF SIZ>0
     1100     3695    4                    THEN
     1101     3696    5   WRKEY:           DO CASE(ORG);
     1102     3697    5                      CASE(%KEYED#);
     1103     3698    5                       IF SIZ<=ASCBIN(TXTC)
PL6.E3A0      #001=UDE$FPTCHK File=UDE$FPTCHK.:E05TSI                            WED 07/30/97 06:56 Page:42
     1104     3699    5                       THEN GOTO BADPARM;
     1105     3700    5                      CASE(%RELATIVE#);
     1106     3701    5                       IF SIZ<4
     1107     3702    5                       THEN GOTO BADPARM;
     1108     3703    5                      CASE(%RANDOM#,%IDS#);
     1109     3704    5                       IF SIZ<4
     1110     3705    5                       THEN GOTO BADPARM;
     1111     3706    5   CHKRNDBUF:          CALL HFF$NILERASE (2) ALTRET (NXPARM);
     1112     3707    5                       CALL HFF$CHKDBRK (2) ALTRET (BADPARM);
     1113     3708    5                      CASE(ELSE);
     1114     3709    5                    END;
     1115     3710    4                    ELSE
     1116     3711    4                      IF ORG = %RANDOM# OR ORG = %IDS#
     1117     3712    4                      THEN
     1118     3713    4                        GOTO CHKRNDBUF;
     1119     3714    4                 CASE(CASEPR);
     1120     3715    4                    CALL SETKEY;
     1121     3716    4                    IF (NOT B$PS0$->FPT$PRECORD_V.BOF AND
     1122     3717    4                       NOT B$PS0$->FPT$PRECORD_V.EOF AND
     1123     3718    4                       B$PS0$->FPT$PRECORD_V.KEYS) OR
     1124     3719    4                       B$PS0$->FPT$PRECORD_V.KEYR
     1125     3720    5                    THEN DO;
     1126     3721    5                       IF B$PS0$->FPT$PRECORD_V.KEYR
     1127     3722    5                       THEN PARM.WRIT='1'B;
     1128     3723    5                       GOTO RDKEY;
     1129     3724    5                    END;
     1130     3725    4                 CASE(CASEDEL);
     1131     3726    4                    CALL SETKEY;
     1132     3727    4                    IF SIZ>0
     1133     3728    4                    THEN IF ORG=%INDEXED# OR ORG=%IREL#
     1134     3729    4                       THEN IF SIZ<KEYL
     1135     3730    4                          THEN GOTO BADPARM;
     1136     3731    4                          ELSE;
     1137     3732    4                       ELSE GOTO WRKEY;
     1138     3733    4                 CASE(ELSE);
     1139     3734    4                   IF PARM.SIZ=0
     1140     3735    4                   THEN
PL6.E3A0      #001=UDE$FPTCHK File=UDE$FPTCHK.:E05TSI                            WED 07/30/97 06:56 Page:43
     1141     3736    4                        IF DESC.SIZ<ASCBIN(TXTC)
     1142     3737    4                        THEN GOTO BADPARM;
     1143     3738    4                        ELSE ;
     1144     3739    4                   ELSE
     1145     3740    4                        IF DESC.SIZ+1<PARM.SIZ
     1146     3741    4                        THEN GOTO BADPARM;
     1147     3742    4                 END;
     1148     3743    3                 GOTO NXPARM;
     1149     3744    3   NOPARM:      IF PARM.MAND
     1150     3745    3                THEN GOTO BADPARM;
     1151     3746    4                DO CASE (CODE);
     1152     3747    4                 CASE(CASERD,CASEWR,CASEPR,CASEDEL);
     1153     3748    4                    GOTO SPECIAL;
     1154     3749    4                 CASE (ELSE);
     1155     3750    4                 END;
     1156     3751    3   NXPARM:      PMME$=PINCRB(PMME$,SIZEB(PARM));
     1157     3752    3                PNO=PNO+1;
     1158     3753    3                END;
     1159     3754    2           GOTO SCR;
     1160     3755    2   BADPARM: B$JIT.ERR=SC_UDE420;
     1161     3756    2           B$JIT.ERR.CODE=420+PNO;
     1162     3757    2           IF SCRFLG THEN GOTO SCR;
     1163     3758    2           CALL CLNUP(PNO) ALTRET(SCR);
     1164     3759    2           END;
     1165     3760    1      PMME$=PINCRB(PMME$,NPARM*SIZEB(PARM));
     1166     3761    1      GOTO NXPMME;
     1167     3762    1   SETKEY: PROC;
     1168     3763    2      ORG=B$JIT.DCB$->F$DCB.ORG;
     1169     3764    2      KEYL=B$JIT.DCB$->F$DCB.KEYL;
     1170     3765    2      SIZ=0;
     1171     3766    2      CALL HFF$PTPRES(PNO) ALTRET (NOSIZ);
     1172     3767    2      CALL HFF$DSIZ (PNO , SIZ);
     1173     3768    2   NOSIZ: RETURN;
     1174     3769    2   END SETKEY;
     1175     3770        %EJECT;
PL6.E3A0      #001=UDE$FPTCHK File=UDE$FPTCHK.:E05TSI                            WED 07/30/97 06:56 Page:44
     1176     3771        /*E*   ERROR:   -E$BADVECT0-0
     1177     3772               MESSAGE: Access to or alignment of data via FPT vector 0 is incorrect.
     1178     3773        */
     1179     3774        /*E*   ERROR:   -E$BADVECT1-0
     1180     3775               MESSAGE: Access to or alignment of data via FPT vector 1 is incorrect.
     1181     3776        */
     1182     3777        /*E*   ERROR:   -E$BADVECT2-E
     1183     3778               MESSAGE: Access to or alignment of data via FPT vector 2 is incorrect.
     1184     3779        */
     1185     3780        /*E*   ERROR:   -E$BADVECT3-E
     1186     3781               MESSAGE: Access to or alignment of data via FPT vector 3 is incorrect.
     1187     3782        */
     1188     3783        /*E*   ERROR:   -E$BADVECT4-E
     1189     3784               MESSAGE: Access to or alignment of data via FPT vector 4 is incorrect.
     1190     3785        */
     1191     3786        /*E*   ERROR:   -E$BADVECT5-E
     1192     3787               MESSAGE: Access to or alignment of data via FPT vector 5 is incorrect.
     1193     3788        */
     1194     3789        /*E*   ERROR:   -E$BADVECT6-E
     1195     3790               MESSAGE: Access to or alignment of data via FPT vector 6 is incorrect.
     1196     3791        */
     1197     3792        /*E*   ERROR:   -E$BADVECT7-E
     1198     3793               MESSAGE: Access to or alignment of data via FPT vector 7 is incorrect.
     1199     3794        */
     1200     3795        /*E*   ERROR:   -E$BADVECT8-E
     1201     3796               MESSAGE: Access to or alignment of data via FPT vector 8 is incorrect.
     1202     3797        */
     1203     3798        /*E*   ERROR:   -E$BADVECT9-E
     1204     3799               MESSAGE: Access to or alignment of data via FPT vector 9 is incorrect.
     1205     3800        */
     1206     3801        /*E*   ERROR:   -E$BADVECT10-E
     1207     3802               MESSAGE: Access to or alignment of data via FPT vector 10 is incorrect.
     1208     3803        */
     1209     3804        /*E*   ERROR:   -E$BADVECT11-E
     1210     3805               MESSAGE: Access to or alignment of data via FPT vector 11 is incorrect.
     1211     3806        */
     1212     3807        /*E*   ERROR:   -E$BADVECT12-E
PL6.E3A0      #001=UDE$FPTCHK File=UDE$FPTCHK.:E05TSI                            WED 07/30/97 06:56 Page:45
     1213     3808               MESSAGE: Access to or alignment of data via FPT vector 12 is incorrect.
     1214     3809        */
     1215     3810        /*E*   ERROR:   -E$BADVECT13-E
     1216     3811               MESSAGE: Access to or alignment of data via FPT vector 13 is incorrect.
     1217     3812        */
     1218     3813        /*E*   ERROR:   -E$BADVECT14-E
     1219     3814               MESSAGE: Access to or alignment of data via FPT vector 14 is incorrect.
     1220     3815        */
     1221     3816        /*E*   ERROR:   -E$BADVECT15-E
     1222     3817               MESSAGE: Access to or alignment of data via FPT vector 15 is incorrect.
     1223     3818        */
     1224     3819        /*E*   ERROR:   -E$BADVECT16-E
     1225     3820               MESSAGE: Access to or alignment of data via FPT vector 16 is incorrect.
     1226     3821        */
     1227     3822        /*E*   ERROR:   -E$BADVECT17-E
     1228     3823               MESSAGE: Access to or alignment of data via FPT vector 17 is incorrect.
     1229     3824        */
     1230     3825    1   END;

PL6.E3A0      #001=UDE$FPTCHK File=UDE$FPTCHK.:E05TSI                            WED 07/30/97 06:56 Page:46
--  Include file information  --

   B$JIT_C.:E05TOU  is referenced.
   F$DCB.:E05TOU  cannot be made into a system file and is referenced.
   F$CP6V_C.:E05TOU  is referenced.
   CP_6_SUBS.:E05TOU  is referenced.
      No diagnostics issued in procedure UDE$FPTCHK.

   Procedure UDE$FPTCHK requires 414 words for executable code.
   Procedure UDE$FPTCHK requires 24 words of local(AUTO) storage.

    No errors detected in file UDE$FPTCHK.:E05TSI    .

PL6.E3A0      #001=UDE$FPTCHK File=UDE$FPTCHK.:E05TSI                            WED 07/30/97 06:56 Page:47

 Object Unit name= UDE$FPTCHK                                 File name= UDE$FPTCHK.:E05TOU
 UTS= JUL 30 '97 06:56:30.28 WED                              Compiler= PL-6/E31         Sev=      00
 SharedLib= :SHARED_SYSTEM                                    Alt SharedLib=


    ****  Control sections  ****

 Sect   Type Bound  Init  Size OctSiz  Section name(segment info)
    0  RoData even  UTS    382    576  UDE$FPTCHK
    1   Proc  even  none   414    636  UDE$FPTCHK
    2  RoData even  none     3      3  UDE$FPTCHK

    ****  Entry defs  ****

                              Check   Calling
                             calling  sequence
  Sect OctLoc Primary Altret sequence   type   Parms  Name
     1      0   yes            yes      Std        1  UDE$FPTCHK

  ****  Data defs  ****

 Sect OctLoc  Name                           Sect OctLoc  Name
    0      0  UDE_FPTTBL
PL6.E3A0      #001=UDE$FPTCHK File=UDE$FPTCHK.:E05TSI                            WED 07/30/97 06:56 Page:48

  ****  Entry refs  ****

         Check        Calling
        calling       sequence
Altret sequence SRef   type   Args  Name
 yes     yes           Std       2 HFF$GETCLNUP
         yes           Std       1 IRM$FPTCHECK
 yes     yes           Std       1 HFF$NILERASE
 yes     yes           Std       1 HFF$CHKDBRK
 yes     yes           Std       2 HFF$RET_PS_DESC
 yes     yes           Std       1 HFF$PTPRES
 yes     yes           Std       2 HFF$DSIZ
                       nStd      0 X66_AUTO_1
                       Std       0 B_CONSPOOL_D

  ****  Data refs  ****

  Flags:  r = read only, s = secondary
Flgs Name                             Flgs Name                             Flgs Name
     B$PS0$                                B$UPT$                                SC_UDE420
     B$JIT$                                B_VECTNIL

  ****  Segment refs  ****

  Flags:  r = read only, s = secondary
Flgs Name                             Flgs Name                             Flgs Name
     ISSID
PL6.E3A0      #001=UDE$FPTCHK File=UDE$FPTCHK.:E05TSI                            WED 07/30/97 06:56 Page:49


        1        1        /*M*   FPTCHK  DO POST MORTEM CHECK AFTER TRAP IN MON SERVICE */
        2        2        /*T***********************************************************/
        3        3        /*T*                                                         */
        4        4        /*T* Copyright (c) Bull HN Information Systems Inc., 1997    */
        5        5        /*T*                                                         */
        6        6        /*T***********************************************************/
        7        7        UDE$FPTCHK: PROC(SCODE);

      7  1 000000   000000 700200 xent  UDE$FPTCHK   TSX0  ! X66_AUTO_1
         1 000001   000030 000001                    ZERO    24,1

        8        8        %INCLUDE CP_6_SUBS;
        9      548        %INCLUDE F$CP6V_C;
       10      774        %INCLUDE F$DCB;
       11      823        %FPT$READ_V;
       12      830        %FPT$PRECORD_V;
       13      835    1   DCL 1 SCODE ALIGNED,
       14      836    1         2 FCG BIT(12) UNAL,
       15      837    1         2 MID BIT(6) UNAL,
       16      838    1         2 CODE UBIN(15) UNAL,
       17      839    1         2 SEV UBIN(3) UNAL;
       18      840        /*
       19      841        */
       20      842        %MACRO FPT (C=0 , N=0);
       21      843             2 * UBIN(27) UNAL INIT(%(C*512+N)),
       22      844        %MEND;
       23      845        %MACRO VEC (MAND (YES=1,NO=0) = 0,
       24      846             BND (BY=0,WD=3,DW=7) = 0,
       25      847             WRIT (YES=1,NO=0) = 0,
       26      848             SIZ = 8);
       27      849             2 * UBIN HALF UNAL INIT(%(MAND*131072+BND*16384+WRIT*8192+SIZ)),
       28      850        %MEND;
       29      851        /*
       30      852        */
       31      853        %SUB SNLIST=8180;
       32      854        %SUB PSEUDLIST=8181;
PL6.E3A0      #001=UDE$FPTCHK File=UDE$FPTCHK.:E05TSI                            WED 07/30/97 06:56 Page:50
       33      855        %SUB PRESLIST=8182;
       34      856        %SUB RPSNLIST=8183;
       35      857        %SUB KEYRD=8184;
       36      858        %SUB KEYWR=8185;
       37      859        %SUB KEYPR=8186;
       38      860        %SUB KEYDEL=8187;
       39      861        /*
       40      862        */
       41      863        %SUB CASESN=0;
       42      864        %SUB CASEPSEUD=1;
       43      865        %SUB CASEPRES=2;
       44      866        %SUB CASERPSN=3;
       45      867        %SUB CASERD=4;
       46      868        %SUB CASEWR=5;
       47      869        %SUB CASEPR=6;
       48      870        %SUB CASEDEL=7;
       49      871        /*
       50      872        */
       51      873    1   DCL 1 UDE_FPTTBL CONSTANT SYMDEF,
       52      874                                                /*EXIT*/
       53      875        %FPT (C=1,N=2);
       54      878        %VEC (BND=DW);
       55      881        %VEC (BND=DW,SIZ=4);
       56      884                                                /*ERR*/
       57      885        %FPT (C=2,N=2);
       58      888        %VEC (BND=DW);
       59      891        %VEC (BND=DW,SIZ=4);
       60      894                                                /*XXX*/
       61      895        %FPT (C=3,N=2);
       62      898        %VEC (BND=DW);
       63      901        %VEC (BND=DW,SIZ=4);
       64      904                                                /*OLAY*/
       65      905        %FPT (C=4,N=2);
       66      908        %VEC (MAND=YES,SIZ=0);
       67      911        %VEC (MAND=YES,BND=DW);
       68      914                                                /*LINK*/
       69      915        %FPT (C=5,N=6);
PL6.E3A0      #001=UDE$FPTCHK File=UDE$FPTCHK.:E05TSI                            WED 07/30/97 06:56 Page:51
       70      918        %VEC (MAND=YES,SIZ=0);
       71      921        %VEC ;
       72      924        %VEC ;
       73      927        %VEC (SIZ=6);
       74      930        %VEC (SIZ=0);
       75      933        %VEC (SIZ=1);
       76      936                                                /*LDTRC*/
       77      937        %FPT (C=6,N=6);
       78      940        %VEC (MAND=YES,SIZ=0);
       79      943        %VEC ;
       80      946        %VEC ;
       81      949        %VEC (SIZ=6);
       82      952        %VEC (SIZ=0);
       83      955        %VEC (SIZ=1);
       84      958                                                /*ALIB*/
       85      959        %FPT (C=7,N=4);
       86      962        %VEC (SIZ=0,MAND=YES);
       87      965        %VEC (SIZ=1);
       88      968        %VEC (SIZ=1,WRIT=YES);
       89      971        %VEC (MAND=YES,BND=DW);
       90      974                                                /*DLIB*/
       91      975        %FPT (C=8,N=1);
       92      978        %VEC (MAND=YES,SIZ=0);
       93      981                                                /*YC*/
       94      982        %FPT (C=9,N=2);
       95      985        %VEC (MAND=YES,SIZ=1);
       96      988        %VEC (MAND=YES,BND=DW);
       97      991                                                /*CPEXIT*/
       98      992        %FPT (C=10,N=6);
       99      995        %VEC (SIZ=0);
      100      998        %VEC ;
      101     1001        %VEC ;
      102     1004        %VEC (SIZ=6);
      103     1007        %VEC (SIZ=0);
      104     1010        %VEC (MAND=YES,BND=DW);
      105     1013                                                /*SCREECH*/
      106     1014        %FPT (C=11,N=3);
PL6.E3A0      #001=UDE$FPTCHK File=UDE$FPTCHK.:E05TSI                            WED 07/30/97 06:56 Page:52
      107     1017        %VEC (MAND=YES,BND=DW);
      108     1020        %VEC (BND=DW,SIZ=4);
      109     1023        %VEC (WRIT=YES,SIZ=0);
      110     1026                                                /*FSUSER=12*/
      111     1027                                                /*ASUSER=13*/
      112     1028                                                /*DSUSER=14*/
      113     1029                                                /*SAVE*/
      114     1030        %FPT (C=15,N=4);
      115     1033        %VEC (MAND=YES,SIZ=0);
      116     1036        %VEC ;
      117     1039        %VEC ;
      118     1042        %VEC (SIZ=6);
      119     1045                                                /*SCON*/
      120     1046        %FPT (C=16,N=1);
      121     1049        %VEC (MAND=YES,BND=DW);
      122     1052                                                /*INTRTN=17*/
      123     1053                                                /*XCONRTN*/
      124     1054        %FPT (C=18,N=2);
      125     1057        %VEC (BND=DW);
      126     1060        %VEC (BND=DW,SIZ=4);
      127     1063                                                /*PROCNAME*/
      128     1064        %FPT (C=19,N=5);
      129     1067        %VEC (BND=DW,WRIT=YES,SIZ=32);
      130     1070        %VEC (BND=DW,WRIT=YES,SIZ=32);
      131     1073        %VEC (BND=DW,WRIT=YES,SIZ=32);
      132     1076        %VEC (BND=DW,WRIT=YES,SIZ=32);
      133     1079        %VEC (BND=DW,WRIT=YES,SIZ=32);
      134     1082                                                /*FINDPROC*/
      135     1083        %FPT(C=20,N=5);
      136     1086        %VEC (MAND=YES,BND=DW);
      137     1089        %VEC (MAND=YES,BND=DW,SIZ=32,WRIT=YES);
      138     1092        %VEC (BND=DW,WRIT=YES);
      139     1095        %VEC (BND=DW,WRIT=YES);
      140     1098        %VEC (BND=DW,WRIT=YES);
      141     1101                                                /* UNSHARE*/
      142     1102        %FPT(C=21,N=1);
      143     1105        %VEC (MAND=YES,BND=DW);
PL6.E3A0      #001=UDE$FPTCHK File=UDE$FPTCHK.:E05TSI                            WED 07/30/97 06:56 Page:53
      144     1108                                                /*ACCT*/
      145     1109        %FPT (C=22,N=5);
      146     1112        %VEC (MAND=YES,BND=DW);
      147     1115        %VEC (BND=BY,SIZ=0,WRIT=YES);
      148     1118        %VEC (BND=WD,SIZ=4,WRIT=YES,MAND=YES);
      149     1121        %VEC (BND=BY,SIZ=0);
      150     1124        %VEC (BND=WD);
      151     1127        %EJECT;
PL6.E3A0      #001=UDE$FPTCHK File=UDE$FPTCHK.:E05TSI                            WED 07/30/97 06:56 Page:54
      152     1128                                                /*STIMER*/
      153     1129        %FPT (C=4096,N=1);
      154     1132        %VEC (MAND=YES,BND=DW);
      155     1135                                                /*EVENT*/
      156     1136        %FPT (C=4097,N=1);
      157     1139        %VEC (MAND=YES,BND=DW);
      158     1142                                                /*INT*/
      159     1143        %FPT (C=4098,N=1);
      160     1146        %VEC (MAND=YES,BND=DW);
      161     1149                                                /*XCON*/
      162     1150        %FPT (C=4099,N=2);
      163     1153        %VEC (MAND=YES,BND=DW);
      164     1156        %VEC (BND=WD,SIZ=12,WRIT=YES);
      165     1159                                                /*TRAP*/
      166     1160        %FPT (C=4100,N=2);
      167     1163        %VEC (MAND=YES,BND=DW,SIZ=24);
      168     1166        %VEC (BND=DW,SIZ=24,WRIT=YES);
      169     1169                                                /*STRAP*/
      170     1170        %FPT (C=4101,N=1);
      171     1173        %VEC (MAND=YES,BND=DW);
      172     1176                                                /*TTIMER*/
      173     1177        %FPT (C=4102,N=2);
      174     1180        %VEC (MAND=YES,BND=DW);
      175     1183        %VEC (MAND=YES,BND=WD);
      176     1186                                                /*MERC*/
      177     1187        %FPT (C=4103,N=1);
      178     1190        %VEC (BND=WD,SIZ=4);
      179     1193                                                /*RETRY*/
      180     1194        %FPT (C=4104,N=2);
      181     1197        %VEC (BND=DW,SIZ=32);
      182     1200        %VEC (BND=DW,SIZ=32);
      183     1203                                                /*SENV=4105*/
      184     1204                                                /*TRTN*/
      185     1205        %FPT (C=4106,N=3);
      186     1208        %VEC (BND=DW,SIZ=32);
      187     1211        %VEC (BND=DW,SIZ=32);
      188     1214        %VEC (MAND=YES,BND=DW);
PL6.E3A0      #001=UDE$FPTCHK File=UDE$FPTCHK.:E05TSI                            WED 07/30/97 06:56 Page:55
      189     1217                                                /*CLRSTK*/
      190     1218        %FPT (C=4107,N=1);
      191     1221        %VEC (BND=DW);
      192     1224                                                /*MERCS*/
      193     1225        %FPT (C=4108,N=1);
      194     1228        %VEC (BND=WD,SIZ=4);
      195     1231                                                /*RETRYS*/
      196     1232        %FPT (C=4109,N=2);
      197     1235        %VEC (BND=DW,SIZ=32);
      198     1238        %VEC (BND=DW,SIZ=32);
      199     1241                                                /*RENV=4110*/
      200     1242                                                /*DRTN*/
      201     1243        %FPT (C=4111,N=5);
      202     1246        %VEC (BND=DW,SIZ=32);
      203     1249        %VEC (BND=DW,SIZ=32);
      204     1252        %VEC (MAND=YES,BND=DW,SIZ=16);
      205     1255        %VEC (BND=DW,SIZ=16);
      206     1258        %VEC (BND=DW,SIZ=60);
      207     1261        %EJECT;
PL6.E3A0      #001=UDE$FPTCHK File=UDE$FPTCHK.:E05TSI                            WED 07/30/97 06:56 Page:56
      208     1262                                                /*ERRMSG*/
      209     1263        %FPT (C=8192,N=11);
      210     1266        %VEC (MAND=YES,BND=DW,SIZ=16);
      211     1269        %VEC (MAND=YES,BND=WD,SIZ=4);
      212     1272        %VEC (MAND=YES,SIZ=120,WRIT=YES);
      213     1275        %VEC (SIZ=0);
      214     1278        %VEC ;
      215     1281        %VEC ;
      216     1284        %VEC (SIZ=0);
      217     1287        %VEC (SIZ=0);
      218     1290        %VEC (SIZ=0);
      219     1293        %VEC (WRIT=YES,SIZ=16,BND=DW);
      220     1296        %VEC (BND=WD,SIZ=4);
      221     1299                                                /*FID*/
      222     1300        %FPT (C=8193,N=10);
      223     1303        %VEC (MAND=YES,BND=DW);
      224     1306        %VEC (MAND=YES,SIZ=1);
      225     1309        %VEC (SIZ=2,WRIT=YES);
      226     1312        %VEC (WRIT=YES);
      227     1315        %VEC (WRIT=YES);
      228     1318        %VEC (WRIT=YES,SIZ=SNLIST,BND=WD);
      229     1321        %VEC (WRIT=YES);
      230     1324        %VEC (MAND=YES,SIZ=1,WRIT=YES);
      231     1327        %VEC (SIZ=4,WRIT=YES);
      232     1330        %VEC (WRIT=YES,BND=DW);
      233     1333                                                /*ENQ*/
      234     1334        %FPT (C=8194,N=3);
      235     1337        %VEC (MAND=YES,SIZ=16,BND=DW);
      236     1340        %VEC (MAND=YES,SIZ=0);
      237     1343        %VEC (SIZ=4,BND=WD,WRIT=YES);
      238     1346                                                /*DEQ*/
      239     1347        %FPT (C=8195,N=3);
      240     1350        %VEC (MAND=YES,BND=DW);
      241     1353        %VEC (SIZ=0);
      242     1356        %VEC (SIZ=4,BND=WD);
      243     1359                                                /*TIME*/
      244     1360        %FPT (C=8196,N=5);
PL6.E3A0      #001=UDE$FPTCHK File=UDE$FPTCHK.:E05TSI                            WED 07/30/97 06:56 Page:57
      245     1363        %VEC (MAND=YES,BND=DW);
      246     1366        %VEC (SIZ=12,WRIT=YES);
      247     1369        %VEC (SIZ=12,WRIT=YES);
      248     1372        %VEC (SIZ=4,WRIT=YES);
      249     1375        %VEC (SIZ=4,WRIT=YES,BND=WD);
      250     1378                                                /*NXTUSR*/
      251     1379        %FPT (C=8197,N=1);
      252     1382        %VEC (WRIT=YES,BND=DW,SIZ=16,MAND=YES);
      253     1385                                                /*WAIT*/
      254     1386        %FPT (C=8198,N=2);
      255     1389        %VEC (MAND=YES,BND=DW);
      256     1392        %VEC (MAND=YES,BND=WD,SIZ=4,WRIT=YES);
      257     1395                                                /*DISPLAY*/
      258     1396        %FPT (C=8199,N=1);
      259     1399        %VEC (MAND=YES,SIZ=12,BND=DW,WRIT=YES);
      260     1402                                                /*STATE*/
      261     1403        %FPT (C=8200,N=2);
      262     1406        %VEC (MAND=YES,SIZ=8,BND=DW);
      263     1409        %VEC (MAND=YES,SIZ=16,BND=WD,WRIT=YES);
      264     1412                                                /*XEQTIME*/
      265     1413        %FPT (C=8201,N=1);
      266     1416        %VEC (MAND=YES,SIZ=16,BND=DW,WRIT=YES);
      267     1419                                                /*SPRIV*/
      268     1420        %FPT (C=8202,N=1);
      269     1423        %VEC (MAND=YES,BND=DW);
      270     1426                                                /*RPRIV*/
      271     1427        %FPT (C=8203,N=1);
      272     1430        %VEC (MAND=YES,BND=DW);
      273     1433                                                /*SSWITCH*/
      274     1434        %FPT (C=8204,N=1);
      275     1437        %VEC (MAND=YES,BND=DW);
      276     1440                                                /*RSWITCH*/
      277     1441        %FPT (C=8205,N=1);
      278     1444        %VEC (MAND=YES,BND=DW);
      279     1447                                                /*CHGUNIT*/
      280     1448        %FPT (C=8206,N=1);
      281     1451        %VEC (MAND=YES,BND=DW,SIZ=16);
PL6.E3A0      #001=UDE$FPTCHK File=UDE$FPTCHK.:E05TSI                            WED 07/30/97 06:56 Page:58
      282     1454                                                /*USRFIELD*/
      283     1455        %FPT (C=8207,N=1);
      284     1458        %VEC (MAND=YES,BND=DW,SIZ=16);
      285     1461                                                /*RUE*/
      286     1462        %FPT (C=8208,N=1);
      287     1465        %VEC (MAND=YES,BND=DW);
      288     1468                                                /*UNFID*/
      289     1469        %FPT (C=8209,N=10);
      290     1472        %VEC (MAND=YES,BND=DW);
      291     1475        %VEC (SIZ=0,MAND=YES,WRIT=YES);
      292     1478        %VEC (SIZ=0);
      293     1481        %VEC ;
      294     1484        %VEC ;
      295     1487        %VEC (BND=WD,SIZ=SNLIST);
      296     1490        %VEC ;
      297     1493        %VEC (SIZ=1);
      298     1496        %VEC (SIZ=4);
      299     1499        %VEC (BND=WD,WRIT=YES,SIZ=4);
      300     1502                                                /*GJOB*/
      301     1503        %FPT (C=8210,N=6);
      302     1506        %VEC (MAND=YES,BND=DW,SIZ=8);
      303     1509        %VEC (MAND=NO,SIZ=8);
      304     1512        %VEC (MAND=NO,SIZ=0);
      305     1515        %VEC (MAND=NO,SIZ=8);
      306     1518        %VEC (MAND=NO,SIZ=1);
      307     1521        %VEC (MAND=NO,BND=DW,SIZ=8,WRIT=YES);
      308     1524                                                /*MONINFO*/
      309     1525        %FPT (C=8211,N=6);
      310     1528        %VEC (BND=WD,SIZ=248,WRIT=YES);
      311     1531        %VEC (BND=WD,SIZ=56,WRIT=YES);
      312     1534        %VEC (BND=WD,SIZ=52,WRIT=YES);
      313     1537        %VEC (BND=WD,SIZ=128,WRIT=YES);
      314     1540        %VEC (BND=WD,SIZ=4);
      315     1543        %VEC (BND=WD,SIZ=120,WRIT=YES);
      316     1546                                                /*HELP*/
      317     1547        %FPT (C=8212,N=8);
      318     1550        %VEC (MAND=YES,BND=DW,SIZ=16);
PL6.E3A0      #001=UDE$FPTCHK File=UDE$FPTCHK.:E05TSI                            WED 07/30/97 06:56 Page:59
      319     1553        %VEC (SIZ=0);
      320     1556        %VEC (SIZ=0);
      321     1559        %VEC (MAND=YES,SIZ=79,WRIT=YES);
      322     1562        %VEC (SIZ=0);
      323     1565        %VEC ;
      324     1568        %VEC ;
      325     1571        %VEC (BND=DW,SIZ=56);
      326     1574                                                /*CMDVAR*/
      327     1575        %FPT (C=8213,N=6);
      328     1578        %VEC (MAND=YES,BND=DW,SIZ=8);
      329     1581        %VEC (MAND=YES,SIZ=0);
      330     1584        %VEC (SIZ=0,WRIT=YES);
      331     1587        %VEC (SIZ=0);
      332     1590        %VEC ;
      333     1593        %VEC (BND=WD,SIZ=SNLIST);
      334     1596                                                /*SYSID*/
      335     1597        %FPT (C=8214,N=2);
      336     1600        %VEC (MAND=YES,BND=DW);
      337     1603        %VEC (MAND=NO,BND=WD,WRIT=YES,SIZ=4);
      338     1606        %EJECT;
PL6.E3A0      #001=UDE$FPTCHK File=UDE$FPTCHK.:E05TSI                            WED 07/30/97 06:56 Page:60
      339     1607                                                /*MAKUSER*/
      340     1608        %FPT (C=12288,N=1);
      341     1611        %VEC (SIZ=12,BND=DW,MAND=YES);
      342     1614                                                /*GDS*/
      343     1615        %FPT (C=12289,N=2);
      344     1618        %VEC (MAND=YES,BND=DW);
      345     1621        %VEC (BND=DW,MAND=YES,WRIT=YES);
      346     1624                                                /*FDS*/
      347     1625        %FPT (C=12290,N=2);
      348     1628        %VEC (MAND=YES,BND=DW);
      349     1631        %VEC (BND=DW,MAND=YES,WRIT=YES);
      350     1634                                                /*GDP*/
      351     1635        %FPT (C=12291,N=2);
      352     1638        %VEC (MAND=YES,BND=DW);
      353     1641        %VEC (BND=DW,WRIT=YES);
      354     1644                                                /*FDP*/
      355     1645        %FPT (C=12292,N=2);
      356     1648        %VEC (MAND=YES,BND=DW);
      357     1651        %VEC (BND=DW,WRIT=YES);
      358     1654                                                /*GVP*/
      359     1655        %FPT (C=12293,N=1);
      360     1658        %VEC (MAND=YES,BND=DW);
      361     1661                                                /*FVP*/
      362     1662        %FPT (C=12294,N=1);
      363     1665        %VEC (MAND=YES,BND=DW);
      364     1668                                                /*STLPP*/
      365     1669        %FPT (C=12295,N=1);
      366     1672        %VEC (MAND=YES,BND=DW,SIZ=4,WRIT=YES);
      367     1675                                                /*RSPP*/
      368     1676        %FPT (C=12296,N=1);
      369     1679        %VEC (MAND=YES,BND=DW,SIZ=4);
      370     1682                                                /*CVM*/
      371     1683        %FPT (C=12297,N=1);
      372     1686        %VEC (MAND=YES,BND=DW,SIZ=16);
      373     1689                                                /*SMPRT*/
      374     1690        %FPT (C=12298,N=1);
      375     1693        %VEC (MAND=YES,BND=DW);
PL6.E3A0      #001=UDE$FPTCHK File=UDE$FPTCHK.:E05TSI                            WED 07/30/97 06:56 Page:61
      376     1696                                                /*SSC*/
      377     1697        %FPT (C=12299,N=1);
      378     1700        %VEC (MAND=YES,BND=DW);
      379     1703                                                /*GDDL*/
      380     1704        %FPT (C=12300,N=1);
      381     1707        %VEC (MAND=YES,SIZ=12,WRIT=YES,BND=DW);
      382     1710                                                /*SAD*/
      383     1711        %FPT (C=12301,N=1);
      384     1714        %VEC (MAND=YES,BND=DW);
      385     1717                                                /*STD*/
      386     1718        %FPT (C=12302,N=2);
      387     1721        %VEC (MAND=YES,BND=DW);
      388     1724        %VEC (MAND=YES);
      389     1727                                                /*BADPP*/
      390     1728        %FPT (C=12303,N=1);
      391     1731        %VEC (MAND=YES,BND=DW);
      392     1734                                                /*GOODPP*/
      393     1735        %FPT (C=12304,N=1);
      394     1738        %VEC (MAND=YES,BND=DW);
      395     1741                                                /*GBPL*/
      396     1742        %FPT (C=12305,N=2);
      397     1745        %VEC (MAND=YES,BND=DW);
      398     1748        %VEC (MAND=YES,BND=DW,WRIT=YES);
      399     1751                                                /*MPL*/
      400     1752        %FPT (C=12306,N=1);
      401     1755        %VEC (MAND=YES,BND=WD);
      402     1758                                                /*UMPL*/
      403     1759        %FPT (C=12307,N=1);
      404     1762        %VEC (MAND=YES,BND=WD);
      405     1765                                                /*PDS*/
      406     1766        %FPT (C=12308,N=2);
      407     1769        %VEC (MAND=YES,BND=DW,WRIT=YES);
      408     1772        %VEC (MAND=YES,BND=DW,WRIT=YES);
      409     1775                                                /*PAS*/
      410     1776        %FPT (C=12309,N=1);
      411     1779        %VEC (MAND=NO,BND=DW,WRIT=NO);
      412     1782                                                /*VIRTUAL*/
PL6.E3A0      #001=UDE$FPTCHK File=UDE$FPTCHK.:E05TSI                            WED 07/30/97 06:56 Page:62
      413     1783        %FPT (C=12310,N=3);
      414     1786        %VEC (MAND=YES,BND=DW,WRIT=NO);
      415     1789        %VEC (SIZ=48);
      416     1792        %VEC (SIZ=48,WRIT=YES);
      417     1795        %EJECT;
PL6.E3A0      #001=UDE$FPTCHK File=UDE$FPTCHK.:E05TSI                            WED 07/30/97 06:56 Page:63
      418     1796                                                /*READ*/
      419     1797        %FPT (C=16384,N=4);
      420     1800        %VEC (MAND=YES,BND=DW,SIZ=16);
      421     1803        %VEC (SIZ=KEYRD);
      422     1806        %VEC (SIZ=1,WRIT=YES);
      423     1809        %VEC (SIZ=4,BND=WD);
      424     1812                                                /*WRITE*/
      425     1813        %FPT (C=16385,N=4);
      426     1816        %VEC (MAND=YES,BND=DW,SIZ=16);
      427     1819        %VEC (SIZ=KEYWR);
      428     1822        %VEC (SIZ=1);
      429     1825        %VEC (SIZ=4,BND=WD);
      430     1828                                                /*DELREC*/
      431     1829        %FPT (C=16386,N=4);
      432     1832        %VEC (MAND=YES,BND=DW);
      433     1835        %VEC (SIZ=KEYDEL);
      434     1838        %VEC (SIZ=KEYDEL);
      435     1841        %VEC (SIZ=8,BND=WD,WRIT=YES);
      436     1844                                                /*PRECORD*/
      437     1845        %FPT (C=16387,N=3);
      438     1848        %VEC (MAND=YES,BND=DW);
      439     1851        %VEC (SIZ=KEYPR);
      440     1854        %VEC (SIZ=4,BND=WD,WRIT=YES);
      441     1857                                                /*PFIL*/
      442     1858        %FPT (C=16388,N=1);
      443     1861        %VEC (MAND=YES,BND=DW);
      444     1864                                                /*EXTEND*/
      445     1865        %FPT (C=16389,N=1);
      446     1868        %VEC (MAND=YES,BND=DW);
      447     1871                                                /*REW*/
      448     1872        %FPT (C=16390,N=1);
      449     1875        %VEC (MAND=YES,BND=DW);
      450     1878                                                /*WEOF*/
      451     1879        %FPT (C=16391,N=1);
      452     1882        %VEC (MAND=YES,BND=DW);
      453     1885        %EJECT;
PL6.E3A0      #001=UDE$FPTCHK File=UDE$FPTCHK.:E05TSI                            WED 07/30/97 06:56 Page:64
      454     1886                                                /*OPEN*/
      455     1887        %FPT (C=20480,N=18);
      456     1890        %VEC (MAND=YES,BND=DW,SIZ=80);
      457     1893        %VEC (SIZ=SNLIST,BND=WD);
      458     1896        %VEC (SIZ=4,BND=WD,WRIT=YES);
      459     1899        %VEC (SIZ=0);
      460     1902        %VEC ;
      461     1905        %VEC (SIZ=4);
      462     1908        %VEC (SIZ=4);
      463     1911        %VEC (SIZ=4);
      464     1914        %VEC (SIZ=4);
      465     1917        %VEC (SIZ=4);
      466     1920        %VEC ;
      467     1923        %VEC (SIZ=4,BND=WD);
      468     1926        %VEC (SIZ=4,WRIT=YES,BND=WD);
      469     1929        %VEC ;
      470     1932        %VEC (SIZ=32);
      471     1935        %VEC (SIZ=5);
      472     1938        %VEC (SIZ=12);
      473     1941        %VEC (SIZ=48,BND=WD);
      474     1944                                                /*CLOSE*/
      475     1945        %FPT (C=20481,N=13);
      476     1948        %VEC (SIZ=16,MAND=YES,BND=DW);
      477     1951        %VEC (SIZ=SNLIST,BND=WD);
      478     1954        %VEC (SIZ=4,BND=WD,WRIT=YES);
      479     1957        %VEC (SIZ=0);
      480     1960        %VEC ;
      481     1963        %VEC (SIZ=4);
      482     1966        %VEC (SIZ=4);
      483     1969        %VEC (SIZ=4);
      484     1972        %VEC (SIZ=4);
      485     1975        %VEC (SIZ=4);
      486     1978        %VEC ;
      487     1981        %VEC (BND=WD,SIZ=4);
      488     1984        %VEC (SIZ=4,BND=WD);
      489     1987                                                /*CHECK*/
      490     1988        %FPT (C=20482,N=1);
PL6.E3A0      #001=UDE$FPTCHK File=UDE$FPTCHK.:E05TSI                            WED 07/30/97 06:56 Page:65
      491     1991        %VEC (MAND=YES,BND=DW);
      492     1994                                                /*TRUNC*/
      493     1995        %FPT (C=20483,N=1);
      494     1998        %VEC (MAND=YES,BND=DW);
      495     2001                                                /*CVOL*/
      496     2002        %FPT (C=20484,N=3);
      497     2005        %VEC (MAND=YES,BND=DW);
      498     2008        %VEC (SIZ=4,BND=WD,WRIT=YES);
      499     2011        %VEC (SIZ=4,BND=WD,WRIT=YES);
      500     2014                                                /*LINES*/
      501     2015        %FPT (C=20485,N=2);
      502     2018        %VEC (MAND=YES,BND=DW);
      503     2021        %VEC (BND=DW,WRIT=YES);
      504     2024                                                /*DEVICE*/
      505     2025        %FPT (C=20486,N=3);
      506     2028        %VEC (MAND=YES,BND=DW,SIZ=16);
      507     2031        %VEC (SIZ=32);
      508     2034        %VEC (BND=DW,SIZ=5);
      509     2037        %EJECT;
PL6.E3A0      #001=UDE$FPTCHK File=UDE$FPTCHK.:E05TSI                            WED 07/30/97 06:56 Page:66
      510     2038                                                /*CORRES*/
      511     2039        %FPT (C=24576,N=1);
      512     2042        %VEC (MAND=YES,BND=DW);
      513     2045                                                /*SETFMA*/
      514     2046        %FPT (C=24577,N=2);
      515     2049        %VEC (SIZ=1);
      516     2052        %VEC (SIZ=1);
      517     2055                                                /*GETDCB*/
      518     2056        %FPT (C=24578,N=3);
      519     2059        %VEC (MAND=YES,BND=DW);
      520     2062        %VEC (SIZ=0);
      521     2065        %VEC (SIZ=4,WRIT=YES);
      522     2068                                                /*RELDCB*/
      523     2069        %FPT (C=24579,N=1);
      524     2072        %VEC (MAND=YES,BND=DW);
      525     2075                                                /*LDEV*/
      526     2076        %FPT (C=24580,N=7);
      527     2079        %VEC (MAND=YES,BND=DW,SIZ=24);
      528     2082        %VEC (SIZ=32);
      529     2085        %VEC (SIZ=5);
      530     2088        %VEC ;
      531     2091        %VEC (SIZ=12);
      532     2094        %VEC (SIZ=32);
      533     2097        %VEC (SIZ=64);
      534     2100                                                /*MADMUCK*/
      535     2101        %FPT (C=24581,N=3);
      536     2104        %VEC (MAND=YES,BND=DW);
      537     2107        %VEC (MAND=YES);
      538     2110        %VEC (BND=DW,SIZ=SNLIST);
      539     2113                                                /*REM*/
      540     2114        %FPT (C=24582,N=1);
      541     2117        %VEC (MAND=YES,BND=DW);
      542     2120                                                /*XFLUSH=24583*/
      543     2121                                                /*RELSTARF*/
      544     2122        %FPT (C=24584,N=2);
      545     2125        %VEC (MAND=YES,BND=DW,SIZ=752);
      546     2128        %VEC ;
PL6.E3A0      #001=UDE$FPTCHK File=UDE$FPTCHK.:E05TSI                            WED 07/30/97 06:56 Page:67
      547     2131        %EJECT;
PL6.E3A0      #001=UDE$FPTCHK File=UDE$FPTCHK.:E05TSI                            WED 07/30/97 06:56 Page:68
      548     2132                                                /*RDERLOG*/
      549     2133        %FPT (C=28672,N=1);
      550     2136        %VEC (MAND=YES,BND=WD,SIZ=2048,WRIT=YES);
      551     2139                                                /*WRERLOG*/
      552     2140        %FPT (C=28673,N=2);
      553     2143        %VEC (MAND=YES,BND=DW,SIZ=16);
      554     2146        %VEC (MAND=YES,BND=WD,SIZ=4);
      555     2149                                                /*TDOPEN*/
      556     2150        %FPT (C=28674,N=4);
      557     2153        %VEC (MAND=YES,BND=DW,SIZ=16);
      558     2156        %VEC ;
      559     2159        %VEC ;
      560     2162        %VEC ;
      561     2165                                                /*TDCLOSE*/
      562     2166        %FPT (C=28675,N=1);
      563     2169        %VEC (MAND=YES,BND=DW);
      564     2172                                                /*TDIO*/
      565     2173        %FPT (C=28676,N=3);
      566     2176        %VEC (MAND=YES,BND=DW,SIZ=16);
      567     2179        %VEC (MAND=YES,BND=WD,SIZ=4);
      568     2182        %VEC (MAND=YES,BND=DW,SIZ=8);
      569     2185                                                /*TDREQ*/
      570     2186        %FPT (C=28677,N=1);
      571     2189        %VEC (MAND=YES,BND=DW,SIZ=16);
      572     2192                                                /*IOQ*/
      573     2193        %FPT (C=28678,N=2);
      574     2196        %VEC (MAND=YES,BND=DW,SIZ=16);
      575     2199        %VEC (BND=DW,WRIT=YES,SIZ=4);
      576     2202                                                /*SYSCON*/
      577     2203        %FPT (C=28679,N=2);
      578     2206        %VEC (MAND=YES,BND=DW,SIZ=16);
      579     2209        %VEC (BND=DW,WRIT=YES);
      580     2212                                                /*MIRROR*/
      581     2213        %FPT (C=28680,N=1);
      582     2216        %VEC (MAND=YES,BND=DW,SIZ=16);
      583     2219        %EJECT;
PL6.E3A0      #001=UDE$FPTCHK File=UDE$FPTCHK.:E05TSI                            WED 07/30/97 06:56 Page:69
      584     2220                                                /*ACTIVATE*/
      585     2221        %FPT (C=32768,N=4);
      586     2224        %VEC (MAND=YES,SIZ=32,BND=DW);
      587     2227        %VEC (MAND=YES,SIZ=32,BND=WD);
      588     2230        %VEC (MAND=NO,SIZ=32,BND=WD);
      589     2233        %VEC (SIZ=1);
      590     2236                                                /*DEACTIVATE*/
      591     2237        %FPT (C=32769,N=4);
      592     2240        %VEC (MAND=YES,SIZ=32,BND=DW);
      593     2243        %VEC (MAND=YES,SIZ=32,BND=WD);
      594     2246        %VEC (SIZ=1);
      595     2249        %VEC (SIZ=1);
      596     2252                                                /*UNLATCH*/
      597     2253        %FPT (C=32770,N=3);
      598     2256        %VEC (MAND=YES,BND=DW);
      599     2259        %VEC ;
      600     2262        %VEC ;
      601     2265                                                /*CGCTL*/
      602     2266        %FPT (C=32771,N=20);
      603     2269        %VEC (MAND=YES,BND=DW,SIZ=40);
      604     2272        %VEC ;
      605     2275        %VEC ;
      606     2278        %VEC (SIZ=80,BND=WD);
      607     2281        %VEC (SIZ=48,BND=WD);
      608     2284        %VEC ;
      609     2287        %VEC ;
      610     2290        %VEC (SIZ=32,BND=WD);
      611     2293        %VEC ;
      612     2296        %VEC ;
      613     2299        %VEC ;
      614     2302        %VEC ;
      615     2305        %VEC ;
      616     2308        %VEC ;
      617     2311        %VEC ;
      618     2314        %VEC ;
      619     2317        %VEC ;
      620     2320        %VEC ;
PL6.E3A0      #001=UDE$FPTCHK File=UDE$FPTCHK.:E05TSI                            WED 07/30/97 06:56 Page:70
      621     2323        %VEC ;
      622     2326        %VEC ;
      623     2329                                                /*CGINFO*/
      624     2330        %FPT (C=32772,N=20);
      625     2333        %VEC (MAND=YES,BND=DW);
      626     2336        %VEC (WRIT=YES);
      627     2339        %VEC (WRIT=YES);
      628     2342        %VEC (WRIT=YES,SIZ=80,BND=WD);/*CGCP*/
      629     2345        %VEC (WRIT=YES,SIZ=48,BND=WD);/*SETSTA*/
      630     2348        %VEC (WRIT=YES,SIZ=72,BND=WD);/*CGSTATS*/
      631     2351        %VEC (WRIT=YES);
      632     2354        %VEC (WRIT=YES);
      633     2357        %VEC (WRIT=YES,SIZ=32,BND=WD);/*STATION*/
      634     2360        %VEC ;
      635     2363        %VEC ;
      636     2366        %VEC ;
      637     2369        %VEC ;
      638     2372        %VEC ;
      639     2375        %VEC ;
      640     2378        %VEC ;
      641     2381        %VEC ;
      642     2384        %VEC ;
      643     2387        %VEC ;
      644     2390        %VEC ;
      645     2393
      646     2394                                                /*FWCG*/
      647     2395        %FPT (C=32773,N=14);
      648     2398        %VEC (MAND=YES,BND=DW);
      649     2401        %VEC ;
      650     2404        %VEC ;
      651     2407        %VEC ;
      652     2410        %VEC ;
      653     2413        %VEC ;
      654     2416        %VEC ;
      655     2419        %VEC ;
      656     2422        %VEC ;
      657     2425        %VEC ;
PL6.E3A0      #001=UDE$FPTCHK File=UDE$FPTCHK.:E05TSI                            WED 07/30/97 06:56 Page:71
      658     2428        %VEC ;
      659     2431        %VEC ;
      660     2434        %VEC ;
      661     2437        %VEC ;
      662     2440
      663     2441                                                /*ATTACH*/
      664     2442        %FPT (C=32774,N=2);
      665     2445        %VEC (MAND=YES,BND=DW);
      666     2448        %VEC (MAND=YES,SIZ=34);
      667     2451
      668     2452                                                /*DETACH*/
      669     2453        %FPT (C=32775,N=2);
      670     2456        %VEC (MAND=YES,BND=DW);
      671     2459        %VEC (SIZ=34);
      672     2462        %EJECT;
PL6.E3A0      #001=UDE$FPTCHK File=UDE$FPTCHK.:E05TSI                            WED 07/30/97 06:56 Page:72
      673     2463                                                /*TEMPWROC*/
      674     2464        %FPT (C=36864,N=3);
      675     2467        %VEC (MAND=YES,BND=DW,WRIT=YES);
      676     2470        %VEC (MAND=YES,SIZ=1);
      677     2473        %VEC (WRIT=YES,SIZ=1);
      678     2476        %EJECT;
PL6.E3A0      #001=UDE$FPTCHK File=UDE$FPTCHK.:E05TSI                            WED 07/30/97 06:56 Page:73
      679     2477                                                /*KEYIN*/
      680     2478        %FPT (C=40960,N=4);
      681     2481        %VEC (MAND=YES,BND=DW,SIZ=24);
      682     2484        %VEC (SIZ=1);
      683     2487        %VEC (SIZ=1,WRIT=YES);
      684     2490        %VEC (BND=DW,SIZ=4);
      685     2493                                                /*OCMSG*/
      686     2494        %FPT (C=40961,N=3);
      687     2497        %VEC (MAND=YES,BND=DW,SIZ=16);
      688     2500        %VEC (SIZ=1);
      689     2503        %VEC (SIZ=1);
      690     2506        %EJECT;
PL6.E3A0      #001=UDE$FPTCHK File=UDE$FPTCHK.:E05TSI                            WED 07/30/97 06:56 Page:74
      691     2507                                                /*PATHCON*/
      692     2508        %FPT (C=45056,N=3);
      693     2511        %VEC (MAND=YES,BND=WD,SIZ=1);
      694     2514        %VEC (MAND=YES,BND=WD,SIZ=4,WRIT=YES);
      695     2517        %VEC (SIZ=1);
      696     2520        %EJECT;
PL6.E3A0      #001=UDE$FPTCHK File=UDE$FPTCHK.:E05TSI                            WED 07/30/97 06:56 Page:75
      697     2521                                                /*SSTATE=49152*/
      698     2522                                                /*XSTATE=49153*/
      699     2523                                                /*GETSTATE*/
      700     2524        %FPT (C=49154,N=1);
      701     2527        %VEC (MAND=YES,BND=WD,SIZ=4100);
      702     2530                                                /*SMOUSE*/
      703     2531        %FPT (C=49155,N=1);
      704     2534        %VEC (BND=DW);
      705     2537                                                /*XMOUSE=49156*/
      706     2538                                                /*GETMOUSE*/
      707     2539        %FPT (C=49157,N=1);
      708     2542        %VEC (MAND=YES,BND=WD,SIZ=4100);
      709     2545                                                /*GETPM*/
      710     2546        %FPT (C=49158,N=1);
      711     2549        %VEC (MAND=YES,BND=WD,SIZ=4096);
      712     2552                                                /*FEPDATA*/
      713     2553        %FPT (C=49159,N=2);
      714     2556        %VEC (MAND=YES,BND=DW);
      715     2559        %VEC (MAND=YES,BND=WD,SIZ=4096);
      716     2562        %EJECT;
PL6.E3A0      #001=UDE$FPTCHK File=UDE$FPTCHK.:E05TSI                            WED 07/30/97 06:56 Page:76
      717     2563                                                /*LIMIT*/
      718     2564        %FPT (C=53248,N=6);
      719     2567        %VEC (MAND=YES,BND=DW,SIZ=24);
      720     2570        %VEC (BND=DW,SIZ=PSEUDLIST);
      721     2573        %VEC (BND=DW,SIZ=PRESLIST,WRIT=YES);
      722     2576        %VEC (BND=DW,SIZ=RPSNLIST);
      723     2579        %VEC ;
      724     2582        %VEC ;
      725     2585                                                /*MBS*/
      726     2586        %FPT (C=53249,N=6);
      727     2589        %VEC (MAND=YES,BND=DW,SIZ=24);
      728     2592        %VEC (BND=DW,SIZ=PSEUDLIST,WRIT=YES);
      729     2595        %VEC (BND=DW,SIZ=PRESLIST,WRIT=YES);
      730     2598        %VEC (BND=DW,SIZ=RPSNLIST,WRIT=YES);
      731     2601        %VEC ;
      732     2604        %VEC ;
      733     2607                                                /*DISPRES*/
      734     2608        %FPT (C=53250,N=6);
      735     2611        %VEC (MAND=YES,BND=DW,SIZ=24);
      736     2614        %VEC (BND=DW,SIZ=PSEUDLIST,WRIT=YES);
      737     2617        %VEC (BND=DW,SIZ=PRESLIST,WRIT=YES);
      738     2620        %VEC (BND=DW,SIZ=RPSNLIST,WRIT=YES);
      739     2623        %VEC ;
      740     2626        %VEC ;
      741     2629                                                /*RELRES*/
      742     2630        %FPT (C=53251,N=6);
      743     2633        %VEC (MAND=YES,BND=DW,SIZ=24);
      744     2636        %VEC (BND=DW,SIZ=PSEUDLIST,WRIT=YES);
      745     2639        %VEC (BND=DW,SIZ=PRESLIST,WRIT=YES);
      746     2642        %VEC (BND=DW,SIZ=RPSNLIST,WRIT=YES);
      747     2645        %VEC ;
      748     2648        %VEC ;
      749     2651                                                /*REQUIRE*/
      750     2652        %FPT (C=53252,N=6);
      751     2655        %VEC (MAND=YES,BND=DW,SIZ=24);
      752     2658        %VEC (MAND=YES,BND=DW,SIZ=PSEUDLIST);
      753     2661        %VEC (BND=DW,SIZ=PRESLIST);
PL6.E3A0      #001=UDE$FPTCHK File=UDE$FPTCHK.:E05TSI                            WED 07/30/97 06:56 Page:77
      754     2664        %VEC (BND=DW,SIZ=RPSNLIST);
      755     2667        %VEC ;
      756     2670        %VEC ;
      757     2673                                                /*RACST=53253*/
      758     2674        %EJECT;
PL6.E3A0      #001=UDE$FPTCHK File=UDE$FPTCHK.:E05TSI                            WED 07/30/97 06:56 Page:78
      759     2675                                                /*STRMCTL*/
      760     2676        %FPT (C=57344,N=3);
      761     2679        %VEC (MAND=YES,BND=DW);
      762     2682        %VEC ;
      763     2685        %VEC (MAND=YES,BND=DW,SIZ=16);
      764     2688                                                /*GTRMCTL*/
      765     2689        %FPT (C=57345,N=3);
      766     2692        %VEC (MAND=YES,BND=DW);
      767     2695        %VEC ;
      768     2698        %VEC (MAND=YES,BND=DW,WRIT=YES,SIZ=16);
      769     2701                                                /*PROMPT*/
      770     2702        %FPT (C=57346,N=3);
      771     2705        %VEC (MAND=YES,BND=DW,SIZ=16);
      772     2708        %VEC ;
      773     2711        %VEC (MAND=YES,SIZ=1);
      774     2714                                                /*EOM*/
      775     2715        %FPT (C=57347,N=3);
      776     2718        %VEC (MAND=YES,BND=DW,SIZ=16);
      777     2721        %VEC ;
      778     2724        %VEC (SIZ=32);
      779     2727                                                /*TRMPRG*/
      780     2728        %FPT (C=57348,N=2);
      781     2731        %VEC (MAND=YES,BND=DW,SIZ=16);
      782     2734        %VEC ;
      783     2737                                                /*GLINEATTR*/
      784     2738        %FPT (C=57349,N=3);
      785     2741        %VEC (MAND=YES,BND=DW);
      786     2744        %VEC ;
      787     2747        %VEC (MAND=YES,BND=DW,WRIT=YES,SIZ=64);
      788     2750                                                /*STRMATTR*/
      789     2751        %FPT (C=57350,N=3);
      790     2754        %VEC (MAND=YES,BND=DW);
      791     2757        %VEC ;
      792     2760        %VEC (MAND=YES,BND=DW,SIZ=40);
      793     2763                                                /*GTRMATTR*/
      794     2764        %FPT (C=57351,N=3);
      795     2767        %VEC (MAND=YES,BND=DW);
PL6.E3A0      #001=UDE$FPTCHK File=UDE$FPTCHK.:E05TSI                            WED 07/30/97 06:56 Page:79
      796     2770        %VEC ;
      797     2773        %VEC (MAND=YES,BND=DW,WRIT=YES,SIZ=40);
      798     2776                                                /*PLATEN*/
      799     2777        %FPT (C=57352,N=3);
      800     2780        %VEC (MAND=YES,BND=DW);
      801     2783        %VEC ;
      802     2786        %VEC (MAND=YES,BND=DW,SIZ=16);
      803     2789                                                /*STRMTAB*/
      804     2790        %FPT (C=57353,N=3);
      805     2793        %VEC (MAND=YES,BND=DW);
      806     2796        %VEC ;
      807     2799        %VEC (MAND=YES,SIZ=1);
      808     2802                                                /*GTRMTAB*/
      809     2803        %FPT (C=57354,N=3);
      810     2806        %VEC (MAND=YES,BND=DW);
      811     2809        %VEC ;
      812     2812        %VEC (MAND=YES,WRIT=YES,SIZ=1);
      813     2815                                                /*SINPUT*/
      814     2816        %FPT (C=57355,N=3);
      815     2819        %VEC (MAND=YES,BND=DW);
      816     2822        %VEC ;
      817     2825        %VEC (MAND=NO,SIZ=1);
      818     2828                                                /*PROFILE*/
      819     2829        %FPT (C=57356,N=4);
      820     2832        %VEC (MAND=YES,BND=DW);
      821     2835        %VEC ;
      822     2838        %VEC (MAND=YES,SIZ=0);
      823     2841        %VEC (MAND=YES,WRIT=YES,BND=WD,SIZ=1);
      824     2844                                                /*FEBOOT*/
      825     2845        %FPT (C=57357,N=3);
      826     2848        %VEC (MAND=YES,BND=DW,SIZ=16);
      827     2851        %VEC (MAND=YES,WRIT=YES,SIZ=1);
      828     2854        %VEC (MAND=YES,WRIT=YES,SIZ=1);
      829     2857                                                /*FEDUMP*/
      830     2858        %FPT (C=57358,N=3);
      831     2861        %VEC (MAND=YES,BND=DW,SIZ=16);
      832     2864        %VEC (MAND=YES,WRIT=YES,SIZ=1);
PL6.E3A0      #001=UDE$FPTCHK File=UDE$FPTCHK.:E05TSI                            WED 07/30/97 06:56 Page:80
      833     2867        %VEC (MAND=YES,WRIT=YES,SIZ=1);
      834     2870                                                /*FECTL*/
      835     2871        %FPT (C=57359,N=3);
      836     2874        %VEC (MAND=YES,BND=DW,SIZ=16);
      837     2877        %VEC (SIZ=1);
      838     2880        %VEC (SIZ=1);
      839     2883                                                /*TRMISC*/
      840     2884        %FPT (C=57360,N=2);
      841     2887        %VEC (MAND=YES,BND=DW);
      842     2890        %VEC ;
      843     2893                                                /*SETFP*/
      844     2894        %FPT (C=57361,N=4);
      845     2897        %VEC (MAND=YES,BND=DW);
      846     2900        %VEC (MAND=YES,BND=DW);
      847     2903        %VEC ;
      848     2906        %VEC ;
      849     2909                                                /*DRIBBLE*/
      850     2910        %FPT (C=57362,N=1);
      851     2913        %VEC (MAND=YES,BND=DW);
      852     2916                                                /*CONFIG*/
      853     2917        %FPT (C=57363,N=3);
      854     2920        %VEC (MAND=YES,BND=DW,SIZ=8);
      855     2923        %VEC ;
      856     2926        %VEC (WRIT=YES,SIZ=16);
      857     2929                                                /*DCLFLD*/
      858     2930        %FPT (C=57364,N=4);
      859     2933        %VEC (MAND=YES,SIZ=16,BND=DW);
      860     2936        %VEC ;
      861     2939        %VEC ;
      862     2942        %VEC (MAND=YES,SIZ=8,BND=WD);
      863     2945                                                /*ERASE*/
      864     2946        %FPT (C=57365,N=3);
      865     2949        %VEC (MAND=YES,SIZ=8,BND=DW);
      866     2952        %VEC;
      867     2955        %VEC ;
      868     2958                                                /*MDFFLD*/
      869     2959        %FPT (C=57366,N=5);
PL6.E3A0      #001=UDE$FPTCHK File=UDE$FPTCHK.:E05TSI                            WED 07/30/97 06:56 Page:81
      870     2962        %VEC (MAND=YES,SIZ=8,BND=DW);
      871     2965        %VEC ;
      872     2968        %VEC (SIZ=1);
      873     2971        %VEC (SIZ=1);
      874     2974        %VEC (MAND=YES,SIZ=8,BND=WD);
      875     2977                                                /*RLSFLD*/
      876     2978        %FPT (C=57367,N=3);
      877     2981        %VEC (MAND=YES,SIZ=8,BND=DW);
      878     2984        %VEC ;
      879     2987        %VEC ;
      880     2990                                                /*SLCFLD*/
      881     2991        %FPT (C=57368,N=3);
      882     2994        %VEC (MAND=YES,SIZ=8,BND=DW);
      883     2997        %VEC;
      884     3000        %VEC;
      885     3003                                                /*NODEINFO*/
      886     3004        %FPT (C=57369,N=2);
      887     3007        %VEC (MAND=YES,SIZ=16,BND=DW);
      888     3010        %VEC (MAND=YES,SIZ=24,BND=DW,WRIT=YES);
      889     3013                                                /*GPROMPT*/
      890     3014        %FPT (C=57370,N=3);
      891     3017        %VEC (MAND=YES,BND=DW,SIZ=16,WRIT=YES);
      892     3020        %VEC;
      893     3023        %VEC (MAND=YES,SIZ=3,WRIT=YES);
      894     3026                                                /*GPLATEN*/
      895     3027        %FPT (C=57371,N=3);
      896     3030        %VEC (MAND=YES,BND=DW,SIZ=7,WRIT=NO);
      897     3033        %VEC;
      898     3036        %VEC (MAND=YES,SIZ=7,WRIT=YES);
      899     3039        %EJECT;
PL6.E3A0      #001=UDE$FPTCHK File=UDE$FPTCHK.:E05TSI                            WED 07/30/97 06:56 Page:82
      900     3040                                                /*SYMBIO*/
      901     3041        %FPT (C=61440,N=8);
      902     3044        %VEC (MAND=YES,BND=DW,SIZ=24);
      903     3047        %VEC ;
      904     3050        %VEC ;
      905     3053        %VEC ;
      906     3056        %VEC ;
      907     3059        %VEC ;
      908     3062        %VEC ;
      909     3065        %VEC ;
      910     3068                                                /*JOBSTATS*/
      911     3069        %FPT (C=61441,N=12);
      912     3072        %VEC (MAND=YES,BND=DW,SIZ=48);
      913     3075        %VEC ;
      914     3078        %VEC (WRIT=YES);
      915     3081        %VEC (BND=DW,SIZ=80);
      916     3084        %VEC (SIZ=32);
      917     3087        %VEC ;
      918     3090        %VEC (BND=DW,WRIT=YES);
      919     3093        %VEC (BND=DW,WRIT=YES);
      920     3096        %VEC ;
      921     3099        %VEC ;
      922     3102        %VEC ;
      923     3105        %VEC ;
      924     3108    1        2 * SBIN(27) UNAL INIT(-1);
      925     3109        %EJECT;
PL6.E3A0      #001=UDE$FPTCHK File=UDE$FPTCHK.:E05TSI                            WED 07/30/97 06:56 Page:83
      926     3110    1   DCL 1 PMME ,
      927     3111    1            2 CODE UBIN HALF UNAL,
      928     3112    1            2 NPARM UBIN BYTE UNAL;
      929     3113    1   DCL PMMEC REDEF PMME CHAR(3);
      930     3114    1   DCL PMMEB CHAR(3) BASED(PMME$);
      931     3115    1   DCL 1 PARM,
      932     3116    1            2 MAND BIT(1),
      933     3117    1            2 BND BIT(3),
      934     3118    1            2 WRIT BIT(1),
      935     3119    1            2 SIZ UBIN(13) UNAL;
      936     3120    1   DCL 1 PARMC REDEF PARM CHAR(2);
      937     3121    1   DCL 1 PARMB CHAR(2) BASED(PMME$);
      938     3122    1   DCL TXTC CHAR(1) BASED(PNO$);
      939     3123    1   DCL SNSIZE UBIN BASED(PNO$);
      940     3124    1   DCL SCRFLG BIT(1);
      941     3125        /*
      942     3126        */
      943     3127    1   DCL IRM$FPTCHECK ENTRY(1);
      944     3128    1   DCL HFF$GETCLNUP ENTRY(2) ALTRET;
      945     3129    1   DCL HFF$NILERASE ENTRY(1) ALTRET;
      946     3130    1   DCL HFF$RET_PS_DESC ENTRY(2) ALTRET;
      947     3131    1   DCL HFF$DSIZ ENTRY(2) ALTRET;
      948     3132    1   DCL HFF$CHKDBRK ENTRY(1) ALTRET;
      949     3133    1   DCL HFF$PTPRES ENTRY(1) ALTRET;
      950     3134    1   DCL UDB$PMMEXIT ENTRY;
      951     3135    1   DCL B$PS0$ PTR SYMREF;
      952     3136    1   DCL FPTCODE UBIN;
      953     3137    1   DCL FPTCODE1 SBIN;
      954     3138    1   DCL 1 FPTCODE2 REDEF FPTCODE1,
      955     3139    1         2 * BIT(1),
      956     3140    1         2 X UBIN(17) UNAL,
      957     3141    1         2 * BIT(18);
      958     3142    1   DCL CLNUP EPTR;
      959     3143    1   DCL PMME$ PTR;
      960     3144    1   DCL CODE UBIN;
      961     3145    1   DCL NPARM SBIN;
      962     3146    1   DCL PNO SBIN;
PL6.E3A0      #001=UDE$FPTCHK File=UDE$FPTCHK.:E05TSI                            WED 07/30/97 06:56 Page:84
      963     3147    1   DCL PNO$ REDEF PNO PTR;
      964     3148    1   DCL ORG UBIN;
      965     3149    1   DCL KEYL UBIN;
      966     3150    1   DCL SIZ UBIN;
      967     3151    1   DCL 1 DESC DALIGNED,
      968     3152    1         2 SIZ UBIN(20) UNAL,
      969     3153    1         2 READ BIT(1),
      970     3154    1         2 WRIT BIT(1),
      971     3155    1         2 * BIT(14),
      972     3156    1         2 BASE UBIN(36),
      973     3157    1         2 BAS REDEF BASE,
      974     3158    1           3 WSQ BIT(2),
      975     3159    1           3 * BIT(31),
      976     3160    1           3 BND BIT(3);
      977     3161    1   DCL B$UPT$ PTR SYMREF;
      978     3162    1   DCL 1 MAPW(0:0) BASED(B$UPT$) ALIGNED,
      979     3163    1         2 PP UBIN HALF UNAL,
      980     3164    1         2 SOFT UBIN(10) UNAL,
      981     3165    1         2 * BIT(2),
      982     3166    1         2 PR BIT(1),
      983     3167    1         2 WR BIT(1),
      984     3168    1         2 HK BIT(1),
      985     3169    1         2 IO BIT(1),
      986     3170    1         2 MODIF BIT(1),
      987     3171    1         2 ACC BIT(1);
      988     3172    1   DCL 1 SC_UDE420 SYMREF ALIGNED,
      989     3173    1         2 FCG BIT(12) UNAL,
      990     3174    1         2 MID BIT(6) UNAL,
      991     3175    1         2 CODE UBIN(15) UNAL,
      992     3176    1         2 SEV UBIN(3) UNAL;
      993     3177    1   DCL B$JIT$ PTR SYMREF;
      994     3178        %INCLUDE B$JIT_C;
      995     3492        %B$JIT0;
      996     3581        %U$JIT1X;
      997     3584        %M$JIT2X;
      998     3587        %F$JIT3;
      999     3592        %A$JIT6X;
PL6.E3A0      #001=UDE$FPTCHK File=UDE$FPTCHK.:E05TSI                            WED 07/30/97 06:56 Page:85
     1000     3595        %EJECT;
PL6.E3A0      #001=UDE$FPTCHK File=UDE$FPTCHK.:E05TSI                            WED 07/30/97 06:56 Page:86
     1001     3596    1      SC_UDE420.CODE=SCODE.CODE;

   3596  1 000002   200003 470500                    LDP0    @SCODE,,AUTO
         1 000003   000000 236100                    LDQ     0,,PR0
         1 000004   000000 676000 xsym               ERQ     SC_UDE420
         1 000005   777770 376007                    ANQ     -8,DL
         1 000006   000000 656000 xsym               ERSQ    SC_UDE420

     1002     3597    1      SCRFLG = '0'B;

   3597  1 000007   200006 450100                    STZ     SCRFLG,,AUTO

     1003     3598    1      CALL HFF$GETCLNUP (CLNUP , FPTCODE1) ALTRET (SCR1);

   3598  1 000010   200010 631500                    EPPR1   FPTCODE1,,AUTO
         1 000011   200027 451500                    STP1    DESC+5,,AUTO
         1 000012   200011 633500                    EPPR3   CLNUP,,AUTO
         1 000013   200026 453500                    STP3    DESC+4,,AUTO
         1 000014   200026 630500                    EPPR0   DESC+4,,AUTO
         1 000015   000020 631400 xsym               EPPR1   B_VECTNIL+16
         1 000016   000000 701000 xent               TSX1    HFF$GETCLNUP
         1 000017   000021 702000 1                  TSX2    SCR1

     1004     3599    2      DO WHILE ('0'B);

   3599  1 000020   000023 710000 1                  TRA     s:3602

     1005     3600    2   SCR1: SCRFLG = '1'B;

   3600  1 000021   400000 236003       SCR1         LDQ     -131072,DU
         1 000022   200006 756100                    STQ     SCRFLG,,AUTO

     1006     3601    2         END;

     1007     3602    1      FPTCODE=FPTCODE2.X;

   3602  1 000023   200010 236100                    LDQ     FPTCODE1,,AUTO
PL6.E3A0      #001=UDE$FPTCHK File=UDE$FPTCHK.:E05TSI                            WED 07/30/97 06:56 Page:87
         1 000024   000022 772000                    QRL     18
         1 000025   377777 376007                    ANQ     131071,DL
         1 000026   200007 756100                    STQ     FPTCODE,,AUTO

     1008     3603    1      PMME$=ADDR(UDE_FPTTBL);

   3603  1 000027   000000 236000 2                  LDQ     0
         1 000030   200012 756100                    STQ     PMME$,,AUTO

     1009     3604    1   NXPMME: PMMEC=PMMEB;

   3604  1 000031   200012 470500       NXPMME       LDP0    PMME$,,AUTO
         1 000032   040100 100500                    MLR     fill='040'O
         1 000033   000000 000003                    ADSC9   0,,PR0                   cn=0,n=3
         1 000034   200004 000003                    ADSC9   PMME,,AUTO               cn=0,n=3

     1010     3605    1      CODE=PMME.CODE;

   3605  1 000035   200004 235100                    LDA     PMME,,AUTO
         1 000036   000022 771000                    ARL     18
         1 000037   200013 755100                    STA     CODE,,AUTO

     1011     3606    1      NPARM=PMME.NPARM;

   3606  1 000040   200004 236100                    LDQ     PMME,,AUTO
         1 000041   000011 772000                    QRL     9
         1 000042   000777 376007                    ANQ     511,DL
         1 000043   200014 756100                    STQ     NPARM,,AUTO

     1012     3607    1      PMME$=PINCRB(PMME$,SIZEB(PMME));

   3607  1 000044   200012 236100                    LDQ     PMME$,,AUTO
         1 000045   600000 036007                    ADLQ    -65536,DL
         1 000046   200012 756100                    STQ     PMME$,,AUTO

     1013     3608    1      IF CODE>=131071

PL6.E3A0      #001=UDE$FPTCHK File=UDE$FPTCHK.:E05TSI                            WED 07/30/97 06:56 Page:88
   3608  1 000047   377777 115007                    CMPA    131071,DL
         1 000050   000055 602000 1                  TNC     s:3626

     1014     3609    2      THEN DO;

   3603  1 000051                       SCR          null
     1015     3610    2   SCR:    ;
     1016     3611    2           CALL IRM$FPTCHECK(SC_UDE420);

   3611  1 000051   000001 630400 2                  EPPR0   1
         1 000052   000017 631400 xsym               EPPR1   B_VECTNIL+15
         1 000053   000000 701000 xent               TSX1    IRM$FPTCHECK
         1 000054   000000 011000                    NOP     0

     1017     3612        /*S*   SCREECH_CODE: UDE-S$MPMMEFLT
     1018     3613               TYPE: SUA
     1019     3614               MESSAGE: Monitor fault while in PMME processing.
     1020     3615               REMARKS: The monitor has trapped while in PMME processing
     1021     3616                        and the FPT Checker (UDE$FPTCHK) has detected no
     1022     3617                        errors in the parameters supplied by the user via
     1023     3618                        the Parameter Stack.
     1024     3619                        Note that the S$MPMMEFLT code will have been
     1025     3620                        replaced by the Fault Handler screech code.
     1026     3621                        If the actual S$MPMMEFLT Screech Code (420)
     1027     3622                        is ever reported the system is in real trouble
     1028     3623                        and a full screech is imminent.
     1029     3624         */
     1030     3625    2           END;

     1031     3626    1      IF CODE=FPTCODE

   3626  1 000055   200013 236100                    LDQ     CODE,,AUTO
         1 000056   200007 116100                    CMPQ    FPTCODE,,AUTO
         1 000057   000576 601000 1                  TNZ     s:3760

     1032     3627    2      THEN DO;

PL6.E3A0      #001=UDE$FPTCHK File=UDE$FPTCHK.:E05TSI                            WED 07/30/97 06:56 Page:89
     1033     3628    2           PNO=0;

   3628  1 000060   200015 450100                    STZ     PNO,,AUTO

     1034     3629    3           DO WHILE (PNO<NPARM);

   3629  1 000061   200015 236100                    LDQ     PNO,,AUTO
         1 000062   200014 116100                    CMPQ    NPARM,,AUTO
         1 000063   000553 605000 1                  TPL     s:3754

     1035     3630    3                PARMC=PARMB;

   3630  1 000064   200012 470500                    LDP0    PMME$,,AUTO
         1 000065   040100 100500                    MLR     fill='040'O
         1 000066   000000 000002                    ADSC9   0,,PR0                   cn=0,n=2
         1 000067   200005 000002                    ADSC9   PARM,,AUTO               cn=0,n=2

     1036     3631    3                CODE=PARM.SIZ-SNLIST;

   3631  1 000070   200005 236100                    LDQ     PARM,,AUTO
         1 000071   000022 772000                    QRL     18
         1 000072   017777 376007                    ANQ     8191,DL
         1 000073   017764 136007                    SBLQ    8180,DL
         1 000074   200013 756100                    STQ     CODE,,AUTO

     1037     3632    3                CALL HFF$RET_PS_DESC (PNO , DESC) ALTRET(NOPARM);

   3632  1 000075   200022 631500                    EPPR1   DESC,,AUTO
         1 000076   200027 451500                    STP1    DESC+5,,AUTO
         1 000077   200015 633500                    EPPR3   PNO,,AUTO
         1 000100   200026 453500                    STP3    DESC+4,,AUTO
         1 000101   200026 630500                    EPPR0   DESC+4,,AUTO
         1 000102   000020 631400 xsym               EPPR1   B_VECTNIL+16
         1 000103   000000 701000 xent               TSX1    HFF$RET_PS_DESC
         1 000104   000530 702000 1                  TSX2    NOPARM

     1038     3633    3                IF DESC.BAS.WSQ THEN GOTO BADPARM;
PL6.E3A0      #001=UDE$FPTCHK File=UDE$FPTCHK.:E05TSI                            WED 07/30/97 06:56 Page:90

   3633  1 000105   200023 236100                    LDQ     DESC+1,,AUTO
         1 000106   600000 316003                    CANQ    -65536,DU
         1 000107   000554 601000 1                  TNZ     BADPARM

     1039     3634    3                IF PARM.WRIT

   3634  1 000110   200005 236100                    LDQ     PARM,,AUTO
         1 000111   020000 316003                    CANQ    8192,DU
         1 000112   000122 600000 1                  TZE     s:3638

     1040     3635    3                THEN
     1041     3636    3                      CALL HFF$CHKDBRK (PNO) ALTRET (BADPARM);

   3636  1 000113   200015 630500                    EPPR0   PNO,,AUTO
         1 000114   200026 450500                    STP0    DESC+4,,AUTO
         1 000115   200026 630500                    EPPR0   DESC+4,,AUTO
         1 000116   000017 631400 xsym               EPPR1   B_VECTNIL+15
         1 000117   000000 701000 xent               TSX1    HFF$CHKDBRK
         1 000120   000554 702000 1                  TSX2    BADPARM
         1 000121   000130 710000 1                  TRA     s:3639

     1042     3637    3                ELSE
     1043     3638    3                     CALL HFF$PTPRES(PNO) ALTRET(BADPARM);

   3638  1 000122   200015 630500                    EPPR0   PNO,,AUTO
         1 000123   200026 450500                    STP0    DESC+4,,AUTO
         1 000124   200026 630500                    EPPR0   DESC+4,,AUTO
         1 000125   000017 631400 xsym               EPPR1   B_VECTNIL+15
         1 000126   000000 701000 xent               TSX1    HFF$PTPRES
         1 000127   000554 702000 1                  TSX2    BADPARM

     1044     3639    3                IF (DESC.BAS.BND&PARM.BND)~='0'O

   3639  1 000130   200005 236100                    LDQ     PARM,,AUTO
         1 000131   000001 736000                    QLS     1
         1 000132   700000 376003                    ANQ     -32768,DU
PL6.E3A0      #001=UDE$FPTCHK File=UDE$FPTCHK.:E05TSI                            WED 07/30/97 06:56 Page:91
         1 000133   200026 756100                    STQ     DESC+4,,AUTO
         1 000134   200023 236100                    LDQ     DESC+1,,AUTO
         1 000135   000041 736000                    QLS     33
         1 000136   200026 376100                    ANQ     DESC+4,,AUTO
         1 000137   000554 601000 1                  TNZ     BADPARM

     1045     3640    3                THEN GOTO BADPARM;
     1046     3641        %EJECT;
PL6.E3A0      #001=UDE$FPTCHK File=UDE$FPTCHK.:E05TSI                            WED 07/30/97 06:56 Page:92
     1047     3642    4   SPECIAL:     DO CASE (CODE);

   3642  1 000140   200013 235100       SPECIAL      LDA     CODE,,AUTO
         1 000141   000010 115007                    CMPA    8,DL
         1 000142   000144 602005 1                  TNC     SPECIAL+4,AL
         1 000143   000500 710000 1                  TRA     s:3734
         1 000144   000154 710000 1                  TRA     s:3645
         1 000145   000172 710000 1                  TRA     s:3650
         1 000146   000216 710000 1                  TRA     s:3657
         1 000147   000216 710000 1                  TRA     s:3657
         1 000150   000230 710000 1                  TRA     s:3663
         1 000151   000363 710000 1                  TRA     s:3693
         1 000152   000442 710000 1                  TRA     s:3715
         1 000153   000463 710000 1                  TRA     s:3726

     1048     3643    4                 CASE(CASESN);

     1049     3644                                                /* SERIAL NUMBER LIST                 */
     1050     3645    4                   IF DESC.SIZ<3

   3645  1 000154   200022 236100                    LDQ     DESC,,AUTO
         1 000155   000034 376000 xsym               ANQ     B_VECTNIL+28
         1 000156   600000 116007                    CMPQ    -65536,DL
         1 000157   000554 602000 1                  TNC     BADPARM

     1051     3646    4                   THEN GOTO BADPARM;
     1052     3647    4                   IF DESC.SIZ<SNSIZE*6+3

   3647  1 000160   200015 470500                    LDP0    PNO,,AUTO
         1 000161   000000 236100                    LDQ     0,,PR0
         1 000162   000006 402007                    MPY     6,DL
         1 000163   000003 036007                    ADLQ    3,DL
         1 000164   200026 756100                    STQ     DESC+4,,AUTO
         1 000165   200022 236100                    LDQ     DESC,,AUTO
         1 000166   000020 772000                    QRL     16
         1 000167   200026 116100                    CMPQ    DESC+4,,AUTO
         1 000170   000554 602000 1                  TNC     BADPARM
PL6.E3A0      #001=UDE$FPTCHK File=UDE$FPTCHK.:E05TSI                            WED 07/30/97 06:56 Page:93
         1 000171   000527 710000 1                  TRA     s:3743

     1053     3648    4                   THEN GOTO BADPARM;
     1054     3649    4                 CASE(CASEPSEUD);

     1055     3650    4                   IF DESC.SIZ<3

   3650  1 000172   200022 236100                    LDQ     DESC,,AUTO
         1 000173   000034 376000 xsym               ANQ     B_VECTNIL+28
         1 000174   600000 116007                    CMPQ    -65536,DL
         1 000175   000554 602000 1                  TNC     BADPARM

     1056     3651    4                   THEN GOTO BADPARM;
     1057     3652    4                   CODE=SNSIZE*12+16;

   3652  1 000176   200015 470500                    LDP0    PNO,,AUTO
         1 000177   000000 236100                    LDQ     0,,PR0
         1 000200   000014 402007                    MPY     12,DL
         1 000201   000020 036007                    ADLQ    16,DL
         1 000202   200013 756100                    STQ     CODE,,AUTO

     1058     3653    4   CHKDW:          CODE=((CODE+7)/8)*8-1;

   3653  1 000203   200013 236100       CHKDW        LDQ     CODE,,AUTO
         1 000204   000007 036007                    ADLQ    7,DL
         1 000205   000003 772000                    QRL     3
         1 000206   000003 736000                    QLS     3
         1 000207   000001 136007                    SBLQ    1,DL
         1 000210   200013 756100                    STQ     CODE,,AUTO

     1059     3654    4                   IF DESC.SIZ<CODE

   3654  1 000211   200022 236100                    LDQ     DESC,,AUTO
         1 000212   000020 772000                    QRL     16
         1 000213   200013 116100                    CMPQ    CODE,,AUTO
         1 000214   000554 602000 1                  TNC     BADPARM
         1 000215   000527 710000 1                  TRA     s:3743
PL6.E3A0      #001=UDE$FPTCHK File=UDE$FPTCHK.:E05TSI                            WED 07/30/97 06:56 Page:94

     1060     3655    4                   THEN GOTO BADPARM;
     1061     3656    4                 CASE(CASEPRES,CASERPSN);

     1062     3657    4                   IF DESC.SIZ<3

   3657  1 000216   200022 236100                    LDQ     DESC,,AUTO
         1 000217   000034 376000 xsym               ANQ     B_VECTNIL+28
         1 000220   600000 116007                    CMPQ    -65536,DL
         1 000221   000554 602000 1                  TNC     BADPARM

     1063     3658    4                   THEN GOTO BADPARM;
     1064     3659    4                   CODE=SNSIZE*16+8;

   3659  1 000222   200015 470500                    LDP0    PNO,,AUTO
         1 000223   000000 235100                    LDA     0,,PR0
         1 000224   000004 735000                    ALS     4
         1 000225   000010 035007                    ADLA    8,DL
         1 000226   200013 755100                    STA     CODE,,AUTO

     1065     3660    4                   GOTO CHKDW;

   3660  1 000227   000203 710000 1                  TRA     CHKDW

     1066     3661        %EJECT;
PL6.E3A0      #001=UDE$FPTCHK File=UDE$FPTCHK.:E05TSI                            WED 07/30/97 06:56 Page:95
     1067     3662    4                 CASE(CASERD);

     1068     3663    4                    CALL SETKEY;

   3663  1 000230   000603 701000 1                  TSX1    SETKEY
         1 000231   000000 011000                    NOP     0

     1069     3664    4                    IF B$PS0$->FPT$READ_V.KEYS OR B$PS0$->FPT$READ_V.KEYR

   3664  1 000232   000000 470400 xsym               LDP0    B$PS0$
         1 000233   000000 236100                    LDQ     0,,PR0
         1 000234   200000 316007                    CANQ    65536,DL
         1 000235   000240 601000 1                  TNZ     s:3666
         1 000236   100000 316007                    CANQ    32768,DL
         1 000237   000527 600000 1                  TZE     s:3743

     1070     3665    5                    THEN DO;

     1071     3666    5                       IF B$PS0$->FPT$READ_V.KEYR

   3666  1 000240   100000 316007                    CANQ    32768,DL
         1 000241   000244 600000 1                  TZE     RDKEY

     1072     3667    5                       THEN PARM.WRIT='1'B;

   3667  1 000242   020000 236003                    LDQ     8192,DU
         1 000243   200005 256100                    ORSQ    PARM,,AUTO

     1073     3668    6   RDKEY:              DO CASE(ORG);

   3668  1 000244   200016 235100       RDKEY        LDA     ORG,,AUTO
         1 000245   000032 115007                    CMPA    26,DL
         1 000246   000250 602005 1                  TNC     RDKEY+4,AL
         1 000247   000341 710000 1                  TRA     s:3685
         1 000250   000341 710000 1                  TRA     s:3685
         1 000251   000331 710000 1                  TRA     s:3679
         1 000252   000302 710000 1                  TRA     s:3670
PL6.E3A0      #001=UDE$FPTCHK File=UDE$FPTCHK.:E05TSI                            WED 07/30/97 06:56 Page:96
         1 000253   000331 710000 1                  TRA     s:3679
         1 000254   000341 710000 1                  TRA     s:3685
         1 000255   000331 710000 1                  TRA     s:3679
         1 000256   000325 710000 1                  TRA     s:3676
         1 000257   000331 710000 1                  TRA     s:3679
         1 000260   000335 710000 1                  TRA     s:3682
         1 000261   000341 710000 1                  TRA     s:3685
         1 000262   000341 710000 1                  TRA     s:3685
         1 000263   000341 710000 1                  TRA     s:3685
         1 000264   000341 710000 1                  TRA     s:3685
         1 000265   000325 710000 1                  TRA     s:3676
         1 000266   000341 710000 1                  TRA     s:3685
         1 000267   000341 710000 1                  TRA     s:3685
         1 000270   000341 710000 1                  TRA     s:3685
         1 000271   000341 710000 1                  TRA     s:3685
         1 000272   000341 710000 1                  TRA     s:3685
         1 000273   000341 710000 1                  TRA     s:3685
         1 000274   000341 710000 1                  TRA     s:3685
         1 000275   000341 710000 1                  TRA     s:3685
         1 000276   000341 710000 1                  TRA     s:3685
         1 000277   000325 710000 1                  TRA     s:3676
         1 000300   000341 710000 1                  TRA     s:3685
         1 000301   000335 710000 1                  TRA     s:3682

     1074     3669    6                         CASE(%KEYED#);

     1075     3670    6                          IF PARM.WRIT = '1'B

   3670  1 000302   200005 236100                    LDQ     PARM,,AUTO
         1 000303   020000 316003                    CANQ    8192,DU
         1 000304   000313 600000 1                  TZE     s:3673

     1076     3671    6                          THEN
     1077     3672    6                            CALL HFF$CHKDBRK (PNO) ALTRET (BADPARM);

   3672  1 000305   200015 630500                    EPPR0   PNO,,AUTO
         1 000306   200026 450500                    STP0    DESC+4,,AUTO
PL6.E3A0      #001=UDE$FPTCHK File=UDE$FPTCHK.:E05TSI                            WED 07/30/97 06:56 Page:97
         1 000307   200026 630500                    EPPR0   DESC+4,,AUTO
         1 000310   000017 631400 xsym               EPPR1   B_VECTNIL+15
         1 000311   000000 701000 xent               TSX1    HFF$CHKDBRK
         1 000312   000554 702000 1                  TSX2    BADPARM

     1078     3673    6                          IF SIZ=0 OR SIZ<=ASCBIN(TXTC)

   3673  1 000313   200020 235100                    LDA     SIZ,,AUTO
         1 000314   000554 600000 1                  TZE     BADPARM
         1 000315   200015 470500                    LDP0    PNO,,AUTO
         1 000316   000100 101500                    MRL     fill='000'O
         1 000317   000000 000001                    ADSC9   0,,PR0                   cn=0,n=1
         1 000320   200026 000004                    ADSC9   DESC+4,,AUTO             cn=0,n=4
         1 000321   200026 236100                    LDQ     DESC+4,,AUTO
         1 000322   200020 116100                    CMPQ    SIZ,,AUTO
         1 000323   000554 603000 1                  TRC     BADPARM
         1 000324   000342 710000 1                  TRA     s:3687

     1079     3674    6                          THEN GOTO BADPARM;
     1080     3675    6                         CASE(%INDEXED#, %SE#, %IREL#);

     1081     3676    6                          IF SIZ<KEYL

   3676  1 000325   200020 236100                    LDQ     SIZ,,AUTO
         1 000326   200017 116100                    CMPQ    KEYL,,AUTO
         1 000327   000554 602000 1                  TNC     BADPARM
         1 000330   000342 710000 1                  TRA     s:3687

     1082     3677    6                          THEN GOTO BADPARM;
     1083     3678    6                         CASE(%RANDOM#,%IDS#,%RELATIVE#,%CONSEC#);

     1084     3679    6                          IF SIZ<4

   3679  1 000331   200020 236100                    LDQ     SIZ,,AUTO
         1 000332   000004 116007                    CMPQ    4,DL
         1 000333   000554 602000 1                  TNC     BADPARM
         1 000334   000342 710000 1                  TRA     s:3687
PL6.E3A0      #001=UDE$FPTCHK File=UDE$FPTCHK.:E05TSI                            WED 07/30/97 06:56 Page:98

     1085     3680    6                          THEN GOTO BADPARM;
     1086     3681    6                         CASE(%FORM#,%TERMINAL#);

     1087     3682    6                          IF SIZ<2

   3682  1 000335   200020 236100                    LDQ     SIZ,,AUTO
         1 000336   000002 116007                    CMPQ    2,DL
         1 000337   000554 602000 1                  TNC     BADPARM
         1 000340   000342 710000 1                  TRA     s:3687

     1088     3683    6                          THEN GOTO BADPARM;
     1089     3684    6                         CASE(ELSE);

     1090     3685    6                          GOTO NXPARM;

   3685  1 000341   000544 710000 1                  TRA     NXPARM

     1091     3686    6                       END;

     1092     3687    5                       IF PARM.WRIT

   3687  1 000342   200005 236100                    LDQ     PARM,,AUTO
         1 000343   020000 316003                    CANQ    8192,DU
         1 000344   000354 600000 1                  TZE     s:3690

     1093     3688    5                      THEN
     1094     3689    5                         CALL HFF$CHKDBRK (PNO) ALTRET (BADPARM);

   3689  1 000345   200015 630500                    EPPR0   PNO,,AUTO
         1 000346   200026 450500                    STP0    DESC+4,,AUTO
         1 000347   200026 630500                    EPPR0   DESC+4,,AUTO
         1 000350   000017 631400 xsym               EPPR1   B_VECTNIL+15
         1 000351   000000 701000 xent               TSX1    HFF$CHKDBRK
         1 000352   000554 702000 1                  TSX2    BADPARM
         1 000353   000527 710000 1                  TRA     s:3743

PL6.E3A0      #001=UDE$FPTCHK File=UDE$FPTCHK.:E05TSI                            WED 07/30/97 06:56 Page:99
     1095     3690    5                       ELSE CALL HFF$PTPRES(PNO) ALTRET(BADPARM);

   3690  1 000354   200015 630500                    EPPR0   PNO,,AUTO
         1 000355   200026 450500                    STP0    DESC+4,,AUTO
         1 000356   200026 630500                    EPPR0   DESC+4,,AUTO
         1 000357   000017 631400 xsym               EPPR1   B_VECTNIL+15
         1 000360   000000 701000 xent               TSX1    HFF$PTPRES
         1 000361   000554 702000 1                  TSX2    BADPARM

     1096     3691    5                    END;

   3691  1 000362   000527 710000 1                  TRA     s:3743

     1097     3692    4                 CASE(CASEWR);

     1098     3693    4                    CALL SETKEY;

   3693  1 000363   000603 701000 1                  TSX1    SETKEY
         1 000364   000000 011000                    NOP     0

     1099     3694    4                    IF SIZ>0

   3694  1 000365   200020 235100                    LDA     SIZ,,AUTO
         1 000366   000434 600000 1                  TZE     s:3711

     1100     3695    4                    THEN
     1101     3696    5   WRKEY:           DO CASE(ORG);

   3696  1 000367   200016 235100       WRKEY        LDA     ORG,,AUTO
         1 000370   000010 115007                    CMPA    8,DL
         1 000371   000373 602005 1                  TNC     WRKEY+4,AL
         1 000372   000527 710000 1                  TRA     s:3743
         1 000373   000433 710000 1                  TRA     s:3709
         1 000374   000433 710000 1                  TRA     s:3709
         1 000375   000403 710000 1                  TRA     s:3698
         1 000376   000417 710000 1                  TRA     s:3704
         1 000377   000433 710000 1                  TRA     s:3709
PL6.E3A0      #001=UDE$FPTCHK File=UDE$FPTCHK.:E05TSI                            WED 07/30/97 06:56 Page:100
         1 000400   000413 710000 1                  TRA     s:3701
         1 000401   000433 710000 1                  TRA     s:3709
         1 000402   000417 710000 1                  TRA     s:3704

     1102     3697    5                      CASE(%KEYED#);

     1103     3698    5                       IF SIZ<=ASCBIN(TXTC)

   3698  1 000403   200015 470500                    LDP0    PNO,,AUTO
         1 000404   000100 101500                    MRL     fill='000'O
         1 000405   000000 000001                    ADSC9   0,,PR0                   cn=0,n=1
         1 000406   200026 000004                    ADSC9   DESC+4,,AUTO             cn=0,n=4
         1 000407   200026 236100                    LDQ     DESC+4,,AUTO
         1 000410   200020 116100                    CMPQ    SIZ,,AUTO
         1 000411   000554 603000 1                  TRC     BADPARM
         1 000412   000527 710000 1                  TRA     s:3743

     1104     3699    5                       THEN GOTO BADPARM;
     1105     3700    5                      CASE(%RELATIVE#);

     1106     3701    5                       IF SIZ<4

   3701  1 000413   200020 236100                    LDQ     SIZ,,AUTO
         1 000414   000004 116007                    CMPQ    4,DL
         1 000415   000554 602000 1                  TNC     BADPARM
         1 000416   000527 710000 1                  TRA     s:3743

     1107     3702    5                       THEN GOTO BADPARM;
     1108     3703    5                      CASE(%RANDOM#,%IDS#);

     1109     3704    5                       IF SIZ<4

   3704  1 000417   200020 236100                    LDQ     SIZ,,AUTO
         1 000420   000004 116007                    CMPQ    4,DL
         1 000421   000554 602000 1                  TNC     BADPARM

     1110     3705    5                       THEN GOTO BADPARM;
PL6.E3A0      #001=UDE$FPTCHK File=UDE$FPTCHK.:E05TSI                            WED 07/30/97 06:56 Page:101
     1111     3706    5   CHKRNDBUF:          CALL HFF$NILERASE (2) ALTRET (NXPARM);

   3706  1 000422   000002 630400 2     CHKRNDBUF    EPPR0   2
         1 000423   000017 631400 xsym               EPPR1   B_VECTNIL+15
         1 000424   000000 701000 xent               TSX1    HFF$NILERASE
         1 000425   000544 702000 1                  TSX2    NXPARM

     1112     3707    5                       CALL HFF$CHKDBRK (2) ALTRET (BADPARM);

   3707  1 000426   000002 630400 2                  EPPR0   2
         1 000427   000017 631400 xsym               EPPR1   B_VECTNIL+15
         1 000430   000000 701000 xent               TSX1    HFF$CHKDBRK
         1 000431   000554 702000 1                  TSX2    BADPARM
         1 000432   000527 710000 1                  TRA     s:3743

     1113     3708    5                      CASE(ELSE);

     1114     3709    5                    END;

   3709  1 000433   000527 710000 1                  TRA     s:3743

     1115     3710    4                    ELSE
     1116     3711    4                      IF ORG = %RANDOM# OR ORG = %IDS#

   3711  1 000434   200016 236100                    LDQ     ORG,,AUTO
         1 000435   000003 116007                    CMPQ    3,DL
         1 000436   000422 600000 1                  TZE     CHKRNDBUF
         1 000437   000007 116007                    CMPQ    7,DL
         1 000440   000422 600000 1                  TZE     CHKRNDBUF
         1 000441   000527 710000 1                  TRA     s:3743

     1117     3712    4                      THEN
     1118     3713    4                        GOTO CHKRNDBUF;
     1119     3714    4                 CASE(CASEPR);

     1120     3715    4                    CALL SETKEY;

PL6.E3A0      #001=UDE$FPTCHK File=UDE$FPTCHK.:E05TSI                            WED 07/30/97 06:56 Page:102
   3715  1 000442   000603 701000 1                  TSX1    SETKEY
         1 000443   000000 011000                    NOP     0

     1121     3716    4                    IF (NOT B$PS0$->FPT$PRECORD_V.BOF AND

   3716  1 000444   000000 470400 xsym               LDP0    B$PS0$
         1 000445   000000 236100                    LDQ     0,,PR0
         1 000446   020000 316007                    CANQ    8192,DL
         1 000447   000454 601000 1                  TNZ     s:3716+8
         1 000450   010000 316007                    CANQ    4096,DL
         1 000451   000454 601000 1                  TNZ     s:3716+8
         1 000452   400000 316007                    CANQ    -131072,DL
         1 000453   000456 601000 1                  TNZ     s:3721
         1 000454   200000 316007                    CANQ    65536,DL
         1 000455   000527 600000 1                  TZE     s:3743

     1122     3717    4                       NOT B$PS0$->FPT$PRECORD_V.EOF AND
     1123     3718    4                       B$PS0$->FPT$PRECORD_V.KEYS) OR
     1124     3719    4                       B$PS0$->FPT$PRECORD_V.KEYR
     1125     3720    5                    THEN DO;

     1126     3721    5                       IF B$PS0$->FPT$PRECORD_V.KEYR

   3721  1 000456   200000 316007                    CANQ    65536,DL
         1 000457   000462 600000 1                  TZE     s:3723

     1127     3722    5                       THEN PARM.WRIT='1'B;

   3722  1 000460   020000 236003                    LDQ     8192,DU
         1 000461   200005 256100                    ORSQ    PARM,,AUTO

     1128     3723    5                       GOTO RDKEY;

   3723  1 000462   000244 710000 1                  TRA     RDKEY

     1129     3724    5                    END;
     1130     3725    4                 CASE(CASEDEL);
PL6.E3A0      #001=UDE$FPTCHK File=UDE$FPTCHK.:E05TSI                            WED 07/30/97 06:56 Page:103

     1131     3726    4                    CALL SETKEY;

   3726  1 000463   000603 701000 1                  TSX1    SETKEY
         1 000464   000000 011000                    NOP     0

     1132     3727    4                    IF SIZ>0

   3727  1 000465   200020 235100                    LDA     SIZ,,AUTO
         1 000466   000527 600000 1                  TZE     s:3743

     1133     3728    4                    THEN IF ORG=%INDEXED# OR ORG=%IREL#

   3728  1 000467   200016 236100                    LDQ     ORG,,AUTO
         1 000470   000006 116007                    CMPQ    6,DL
         1 000471   000474 600000 1                  TZE     s:3729
         1 000472   000015 116007                    CMPQ    13,DL
         1 000473   000367 601000 1                  TNZ     WRKEY

     1134     3729    4                       THEN IF SIZ<KEYL

   3729  1 000474   200020 236100                    LDQ     SIZ,,AUTO
         1 000475   200017 116100                    CMPQ    KEYL,,AUTO
         1 000476   000554 602000 1                  TNC     BADPARM
         1 000477   000527 710000 1                  TRA     s:3743

     1135     3730    4                          THEN GOTO BADPARM;
     1136     3731    4                          ELSE;
     1137     3732    4                       ELSE GOTO WRKEY;
     1138     3733    4                 CASE(ELSE);

     1139     3734    4                   IF PARM.SIZ=0

   3734  1 000500   200005 236100                    LDQ     PARM,,AUTO
         1 000501   017777 316003                    CANQ    8191,DU
         1 000502   000516 601000 1                  TNZ     s:3740

PL6.E3A0      #001=UDE$FPTCHK File=UDE$FPTCHK.:E05TSI                            WED 07/30/97 06:56 Page:104
     1140     3735    4                   THEN
     1141     3736    4                        IF DESC.SIZ<ASCBIN(TXTC)

   3736  1 000503   200015 470500                    LDP0    PNO,,AUTO
         1 000504   000100 101500                    MRL     fill='000'O
         1 000505   000000 000001                    ADSC9   0,,PR0                   cn=0,n=1
         1 000506   200026 000004                    ADSC9   DESC+4,,AUTO             cn=0,n=4
         1 000507   200026 236100                    LDQ     DESC+4,,AUTO
         1 000510   200027 756100                    STQ     DESC+5,,AUTO
         1 000511   200022 236100                    LDQ     DESC,,AUTO
         1 000512   000020 772000                    QRL     16
         1 000513   200027 116100                    CMPQ    DESC+5,,AUTO
         1 000514   000554 602000 1                  TNC     BADPARM
         1 000515   000527 710000 1                  TRA     s:3743

     1142     3737    4                        THEN GOTO BADPARM;
     1143     3738    4                        ELSE ;
     1144     3739    4                   ELSE
     1145     3740    4                        IF DESC.SIZ+1<PARM.SIZ

   3740  1 000516   200005 236100                    LDQ     PARM,,AUTO
         1 000517   000022 772000                    QRL     18
         1 000520   017777 376007                    ANQ     8191,DL
         1 000521   200026 756100                    STQ     DESC+4,,AUTO
         1 000522   200022 236100                    LDQ     DESC,,AUTO
         1 000523   000020 772000                    QRL     16
         1 000524   000001 036007                    ADLQ    1,DL
         1 000525   200026 116100                    CMPQ    DESC+4,,AUTO
         1 000526   000554 604000 1                  TMI     BADPARM

     1146     3741    4                        THEN GOTO BADPARM;
     1147     3742    4                 END;

     1148     3743    3                 GOTO NXPARM;

   3743  1 000527   000544 710000 1                  TRA     NXPARM

PL6.E3A0      #001=UDE$FPTCHK File=UDE$FPTCHK.:E05TSI                            WED 07/30/97 06:56 Page:105
     1149     3744    3   NOPARM:      IF PARM.MAND

   3744  1 000530   200005 234100       NOPARM       SZN     PARM,,AUTO
         1 000531   000554 604000 1                  TMI     BADPARM

     1150     3745    3                THEN GOTO BADPARM;
     1151     3746    4                DO CASE (CODE);

   3746  1 000532   200013 235100                    LDA     CODE,,AUTO
         1 000533   000004 135007                    SBLA    4,DL
         1 000534   000004 115007                    CMPA    4,DL
         1 000535   000537 602005 1                  TNC     s:3746+5,AL
         1 000536   000544 710000 1                  TRA     NXPARM
         1 000537   000543 710000 1                  TRA     s:3748
         1 000540   000543 710000 1                  TRA     s:3748
         1 000541   000543 710000 1                  TRA     s:3748
         1 000542   000543 710000 1                  TRA     s:3748

     1152     3747    4                 CASE(CASERD,CASEWR,CASEPR,CASEDEL);

     1153     3748    4                    GOTO SPECIAL;

   3748  1 000543   000140 710000 1                  TRA     SPECIAL

     1154     3749    4                 CASE (ELSE);

     1155     3750    4                 END;

     1156     3751    3   NXPARM:      PMME$=PINCRB(PMME$,SIZEB(PARM));

   3751  1 000544   200012 236100       NXPARM       LDQ     PMME$,,AUTO
         1 000545   400000 036007                    ADLQ    -131072,DL
         1 000546   200012 756100                    STQ     PMME$,,AUTO

     1157     3752    3                PNO=PNO+1;

   3752  1 000547   200015 054100                    AOS     PNO,,AUTO
PL6.E3A0      #001=UDE$FPTCHK File=UDE$FPTCHK.:E05TSI                            WED 07/30/97 06:56 Page:106

     1158     3753    3                END;

   3753  1 000550   200015 236100                    LDQ     PNO,,AUTO
         1 000551   200014 116100                    CMPQ    NPARM,,AUTO
         1 000552   000064 604000 1                  TMI     s:3630

     1159     3754    2           GOTO SCR;

   3754  1 000553   000051 710000 1                  TRA     SCR

     1160     3755    2   BADPARM: B$JIT.ERR=SC_UDE420;

   3755  1 000554   000000 236000 xsym  BADPARM      LDQ     SC_UDE420
         1 000555   000000 470400 xsym               LDP0    B$JIT$
         1 000556   000012 756100                    STQ     10,,PR0

     1161     3756    2           B$JIT.ERR.CODE=420+PNO;

   3756  1 000557   200015 236100                    LDQ     PNO,,AUTO
         1 000560   000644 036007                    ADLQ    420,DL
         1 000561   000003 736000                    QLS     3
         1 000562   000012 676100                    ERQ     10,,PR0
         1 000563   377770 376007                    ANQ     131064,DL
         1 000564   000012 656100                    ERSQ    10,,PR0

     1162     3757    2           IF SCRFLG THEN GOTO SCR;

   3757  1 000565   200006 234100                    SZN     SCRFLG,,AUTO
         1 000566   000051 604000 1                  TMI     SCR

     1163     3758    2           CALL CLNUP(PNO) ALTRET(SCR);

   3758  1 000567   200015 631500                    EPPR1   PNO,,AUTO
         1 000570   200026 451500                    STP1    DESC+4,,AUTO
         1 000571   200026 630500                    EPPR0   DESC+4,,AUTO
         1 000572   200011 220100                    LDX0    CLNUP,,AUTO
PL6.E3A0      #001=UDE$FPTCHK File=UDE$FPTCHK.:E05TSI                            WED 07/30/97 06:56 Page:107
         1 000573   000017 631400 xsym               EPPR1   B_VECTNIL+15
         1 000574   000000 701010                    TSX1    0,X0
         1 000575   000051 702000 1                  TSX2    SCR

     1164     3759    2           END;

     1165     3760    1      PMME$=PINCRB(PMME$,NPARM*SIZEB(PARM));

   3760  1 000576   200014 236100                    LDQ     NPARM,,AUTO
         1 000577   000021 736000                    QLS     17
         1 000600   200012 036100                    ADLQ    PMME$,,AUTO
         1 000601   200012 756100                    STQ     PMME$,,AUTO

     1166     3761    1      GOTO NXPMME;

   3761  1 000602   000031 710000 1                  TRA     NXPMME

     1167     3762    1   SETKEY: PROC;

   3762  1 000603   200024 741300       SETKEY       STX1  ! DESC+2,,AUTO

     1168     3763    2      ORG=B$JIT.DCB$->F$DCB.ORG;

   3763  1 000604   000000 470400 xsym               LDP0    B$JIT$
         1 000605   000232 471500                    LDP1    154,,PR0
         1 000606   100032 236100                    LDQ     26,,PR1
         1 000607   000033 772000                    QRL     27
         1 000610   200016 756100                    STQ     ORG,,AUTO

     1169     3764    2      KEYL=B$JIT.DCB$->F$DCB.KEYL;

   3764  1 000611   100036 236100                    LDQ     30,,PR1
         1 000612   000011 772000                    QRL     9
         1 000613   000777 376007                    ANQ     511,DL
         1 000614   200017 756100                    STQ     KEYL,,AUTO

     1170     3765    2      SIZ=0;
PL6.E3A0      #001=UDE$FPTCHK File=UDE$FPTCHK.:E05TSI                            WED 07/30/97 06:56 Page:108

   3765  1 000615   200020 450100                    STZ     SIZ,,AUTO

     1171     3766    2      CALL HFF$PTPRES(PNO) ALTRET (NOSIZ);

   3766  1 000616   200015 633500                    EPPR3   PNO,,AUTO
         1 000617   200026 453500                    STP3    DESC+4,,AUTO
         1 000620   200026 630500                    EPPR0   DESC+4,,AUTO
         1 000621   000017 631400 xsym               EPPR1   B_VECTNIL+15
         1 000622   000000 701000 xent               TSX1    HFF$PTPRES
         1 000623   000634 702000 1                  TSX2    NOSIZ

     1172     3767    2      CALL HFF$DSIZ (PNO , SIZ);

   3767  1 000624   200020 630500                    EPPR0   SIZ,,AUTO
         1 000625   200027 450500                    STP0    DESC+5,,AUTO
         1 000626   200015 631500                    EPPR1   PNO,,AUTO
         1 000627   200026 451500                    STP1    DESC+4,,AUTO
         1 000630   200026 630500                    EPPR0   DESC+4,,AUTO
         1 000631   000020 631400 xsym               EPPR1   B_VECTNIL+16
         1 000632   000000 701000 xent               TSX1    HFF$DSIZ
         1 000633   000000 011000                    NOP     0

     1173     3768    2   NOSIZ: RETURN;

   3768  1 000634   200024 221300       NOSIZ        LDX1  ! DESC+2,,AUTO
         1 000635   000001 702211                    TSX2  ! 1,X1

UDE_FPTTBL
 Sect OctLoc
   0     000   000001 002340   010340 004000   002002 340010   340004 000003    ................
   0     004   002340 010340   004000 004002   400000 740010   000005 006400    ................
   0     010   000000 010000   010000 006000   000000 001000   006006 400000    ................
   0     014   000010 000010   000006 000000   000001 000007   004400 000000    ................
   0     020   001020 001740   010000 010001   400000 000011   002400 001740    ................
   0     024   010000 012006   000000 000010   000010 000006   000000 740010    ................
   0     030   000013 003740   010340 004020   000000 017004   400000 000010    ................
PL6.E3A0      #001=UDE$FPTCHK File=UDE$FPTCHK.:E05TSI                            WED 07/30/97 06:56 Page:109
   0     034   000010 000006   000020 001740   010000 022002   340010 340004    ................
   0     040   000023 005360   040360 040360   040360 040360   040000 024005    .... . . . . ...
   0     044   740010 760040   360010 360010   360010 000025   001740 010000    ... ............
   0     050   026005 740010   020000 560004   000000 140010   010000 001740    ..........`.....
   0     054   010010 001001   740010 010002   001740 010010   003002 740010    ................
   0     060   160014 010004   002740 030360   030010 005001   740010 010006    p...............
   0     064   002740 010540   010010 007001   140004 010010   002340 040340    ........`..... .
   0     070   040010 012003   340040 340040   740010 010013   001340 010010     .... . ........
   0     074   014001 140004   010015 002340   040340 040010   017005 340040    ..`..... . ....
   0     100   340040 740020   340020 340074   020000 013740   020540 004420    . .....<........
   0     104   170000 000000   010000 010000   000000 000000   000360 020140    x..............`
   0     110   004020 001012   740010 400001   020002 020010   020010 177764    ................
   0     114   020010 420001   020004 360010   020002 003740   020400 000160    ...............p
   0     120   004020 003003   740010 000000   140004 020004   005740 010020    ........`.......
   0     124   014020 014020   004160 004020   005001 760020   020006 002740    .....p..........
   0     130   010560 004020   007001 760014   020010 002740   010560 020020    ................
   0     134   011001 760020   020012 001740   010020 013001   740010 020014    ................
   0     140   001740 010020   015001 740010   020016 001740   020020 017001    ................
   0     144   740020 020020   001740 010020   021012 740010   420000 000000    ................
   0     150   000010 000010   157764 000010   000001 000004   160004 020022    ....o.......p...
   0     154   006740 010000   010000 000000   010000 001360   010020 023006    ................
   0     160   160370 160070   160064 160200   140004 160170   020024 010740    p.p8p4p.`.px....
   0     164   020000 000000   000420 117000   000000 010000   010340 070020    ......O.......8.
   0     170   025006 740010   400000 020000   000000 000010   157764 020026    ............o...
   0     174   002740 010160   004030 000001   740014 030001   002740 010760    ...p............
   0     200   010030 002002   740010 760010   030003 002740   010360 010030    ................
   0     204   004002 740010   360010 030005   001740 010030   006001 740010    ................
   0     210   030007 001760   004030 010001   740004 030011   001740 020030    ................
   0     214   012001 740010   030013 001740   010030 014001   760014 030015    ................
   0     220   001740 010030   016002 740010   400010 030017   001740 010030    ................
   0     224   020001 740010   030021 002740   010760 010030   022001 540010    ................
   0     230   030023 001540   010030 024002   760010 760010   030025 001340    ................
   0     234   010030 026003   740010 000060   020060 040000   004740 020017    .......0.0 .....
   0     240   770020 001140   004040 001004   740020 017771   000001 140004    ...`. ........`.
   0     244   040002 004740   010017 773017   773160 010040   003003 740010     ........p. ....
   0     250   017772 160004   040004 001740   010040 005001   740010 040006    ..p. .... .... .
   0     254   001740 010040   007001 740010   050000 022740   120157 764160    ... ....(...Po.p
PL6.E3A0      #001=UDE$FPTCHK File=UDE$FPTCHK.:E05TSI                            WED 07/30/97 06:56 Page:110
   0     260   004000 000000   010000 004000   004000 004000   004000 004000    ................
   0     264   010140 004160   004000 010000   040000 005000   014140 060050    .`.p.... ....`0(
   0     270   001015 740020   157764 160004   000000 000010   000004 000004    ....o.p.........
   0     274   000004 000004   000004 000010   140004 140004   050002 001740    ........`.`.(...
   0     300   010050 003001   740010 050004   003740 010160   004160 004050    .(....(....p.p.(
   0     304   005002 740010   360010 050006   003740 020000   040340 005060    ......(..... ..0
   0     310   000001 740010   060001 002000   001000 001060   002003 740010    ....0......0....
   0     314   000000 020004   060003 001740   010060 004007   740030 000040    ....0....0.....
   0     320   000005 000010   000014 000040   000100 060005   003740 010400    ....... .@0.....
   0     324   010357 764060   006001 740010   060010 002741   360000 010070    ...0....0......8
   0     330   000001 564000   070001 002740   020540 004070   002004 740020    ....8......8....
   0     334   000010 000010   000010 070003   001740 010070   004003 740020    ......8....8....
   0     340   540004 740010   070005 001740   020070 006002   740020 360004    ....8....8......
   0     344   070007 002740   020360 010070   010001 740020   100000 004740    8......8....@...
   0     350   040540 040140   040000 001100   001004 740040   540040 000001     . ` ..@... . ..
   0     354   000001 100002   003740 010000   010000 010100   003024 740050    ..@........@...(
   0     360   000010 000010   140120 140060   000010 000010   140040 000010    ....`P`0....` ..
   0     364   000010 000010   000010 000010   000010 000010   000010 000010    ................
   0     370   000010 000010   000010 100004   024740 010020   010020 010160    ......@........p
   0     374   120160 060160   110020 010020   010160 040000   010000 010000    Pp0pH....p .....
   0     400   010000 010000   010000 010000   010000 010000   010000 010000    ................
   0     404   010100 005016   740010 000010   000010 000010   000010 000010    .@..............
   0     410   000010 000010   000010 000010   000010 000010   000010 000010    ................
   0     414   100006 002740   010400 042100   007002 740010   000042 110000    @....."@....."H.
   0     420   003760 010400   001020 001120   000004 740030   000001 020001    .......P........
   0     424   340004 120001   003740 020000   001000 001130   000003 540001    ..P........X....
   0     430   560004 000001   140002 001550   004140 003001   340010 140005    ....`....`....`.
   0     434   001550 004140   006001 550000   140007 002740   010550 000150    ...`....`......h
   0     440   000006 740030   357765 377766   357767 000010   000010 150001    ..............h.
   0     444   006740 030377   765377 766377   767000 010000   010150 002006    .............h..
   0     450   740030 377765   377766 377767   000010 000010   150003 006740    ............h...
   0     454   030377 765377   766377 767000   010000 010150   004006 740030    ...........h....
   0     460   757765 357766   357767 000010   000010 160000   003740 010000    ..........p.....
   0     464   010740 020160   001003 740010   000010 760020   160002 003740    ...p........p...
   0     470   020000 010400   001160 003003   740020 000010   000040 160004    .....p....... p.
   0     474   002740 020000   010160 005003   740010 000010   760100 160006    .....p.......@p.
   0     500   003740 010000   010740 050160   007003 740010   000010 760050    ......(p.......(
PL6.E3A0      #001=UDE$FPTCHK File=UDE$FPTCHK.:E05TSI                            WED 07/30/97 06:56 Page:111
   0     504   160010 003740   010000 010740   020160 011003   740010 000010    p........p......
   0     510   400001 160012   003740 010000   010420 001160   013003 740010    ..p........p....
   0     514   000010 000001   160014 004740   010000 010400   000560 001160    ....p..........p
   0     520   015003 740020   420001 420001   160016 003740   020420 001420    ........p.......
   0     524   001160 017003   740020 000001   000001 160020   002740 010000    .p........p.....
   0     530   010160 021004   740010 740010   000010 000010   160022 001740    .p..........p...
   0     534   010160 023003   740010 000010   020020 160024   004740 020000    .p........p.....
   0     540   010000 010540   010160 025003   740010 000010   000010 160026    .....p........p.
   0     544   005740 010000   010000 001000   001540 010160   027003 740010    ...........p....
   0     550   000010 000010   160030 003740   010000 010000   010160 031002    ....p........p..
   0     554   740020 760030   160032 003760   020000 010420   003160 033003    ....p........p..
   0     560   740007 000010   420007 170000   010740 030000   010000 010000    ......x.........
   0     564   010000 010000   010000 010000   010170 001014   740060 000010    .........x...0..
   0     570   020010 340120   000040 000010   360010 360010   000010 000010    ...P. ..........
   0     574   000010 000010   777777 777***                                    ........

(unnamed)
 Sect OctLoc
   2     000   000000 006000   000000 006000   000004 006000                    ............
     1174     3769    2   END SETKEY;
     1175     3770        %EJECT;
PL6.E3A0      #001=UDE$FPTCHK File=UDE$FPTCHK.:E05TSI                            WED 07/30/97 06:56 Page:112
     1176     3771        /*E*   ERROR:   -E$BADVECT0-0
     1177     3772               MESSAGE: Access to or alignment of data via FPT vector 0 is incorrect.
     1178     3773        */
     1179     3774        /*E*   ERROR:   -E$BADVECT1-0
     1180     3775               MESSAGE: Access to or alignment of data via FPT vector 1 is incorrect.
     1181     3776        */
     1182     3777        /*E*   ERROR:   -E$BADVECT2-E
     1183     3778               MESSAGE: Access to or alignment of data via FPT vector 2 is incorrect.
     1184     3779        */
     1185     3780        /*E*   ERROR:   -E$BADVECT3-E
     1186     3781               MESSAGE: Access to or alignment of data via FPT vector 3 is incorrect.
     1187     3782        */
     1188     3783        /*E*   ERROR:   -E$BADVECT4-E
     1189     3784               MESSAGE: Access to or alignment of data via FPT vector 4 is incorrect.
     1190     3785        */
     1191     3786        /*E*   ERROR:   -E$BADVECT5-E
     1192     3787               MESSAGE: Access to or alignment of data via FPT vector 5 is incorrect.
     1193     3788        */
     1194     3789        /*E*   ERROR:   -E$BADVECT6-E
     1195     3790               MESSAGE: Access to or alignment of data via FPT vector 6 is incorrect.
     1196     3791        */
     1197     3792        /*E*   ERROR:   -E$BADVECT7-E
     1198     3793               MESSAGE: Access to or alignment of data via FPT vector 7 is incorrect.
     1199     3794        */
     1200     3795        /*E*   ERROR:   -E$BADVECT8-E
     1201     3796               MESSAGE: Access to or alignment of data via FPT vector 8 is incorrect.
     1202     3797        */
     1203     3798        /*E*   ERROR:   -E$BADVECT9-E
     1204     3799               MESSAGE: Access to or alignment of data via FPT vector 9 is incorrect.
     1205     3800        */
     1206     3801        /*E*   ERROR:   -E$BADVECT10-E
     1207     3802               MESSAGE: Access to or alignment of data via FPT vector 10 is incorrect.
     1208     3803        */
     1209     3804        /*E*   ERROR:   -E$BADVECT11-E
     1210     3805               MESSAGE: Access to or alignment of data via FPT vector 11 is incorrect.
     1211     3806        */
     1212     3807        /*E*   ERROR:   -E$BADVECT12-E
PL6.E3A0      #001=UDE$FPTCHK File=UDE$FPTCHK.:E05TSI                            WED 07/30/97 06:56 Page:113
     1213     3808               MESSAGE: Access to or alignment of data via FPT vector 12 is incorrect.
     1214     3809        */
     1215     3810        /*E*   ERROR:   -E$BADVECT13-E
     1216     3811               MESSAGE: Access to or alignment of data via FPT vector 13 is incorrect.
     1217     3812        */
     1218     3813        /*E*   ERROR:   -E$BADVECT14-E
     1219     3814               MESSAGE: Access to or alignment of data via FPT vector 14 is incorrect.
     1220     3815        */
     1221     3816        /*E*   ERROR:   -E$BADVECT15-E
     1222     3817               MESSAGE: Access to or alignment of data via FPT vector 15 is incorrect.
     1223     3818        */
     1224     3819        /*E*   ERROR:   -E$BADVECT16-E
     1225     3820               MESSAGE: Access to or alignment of data via FPT vector 16 is incorrect.
     1226     3821        */
     1227     3822        /*E*   ERROR:   -E$BADVECT17-E
     1228     3823               MESSAGE: Access to or alignment of data via FPT vector 17 is incorrect.
     1229     3824        */
     1230     3825    1   END;

PL6.E3A0      #001=UDE$FPTCHK File=UDE$FPTCHK.:E05TSI                            WED 07/30/97 06:56 Page:114
--  Include file information  --

   B$JIT_C.:E05TOU  is referenced.
   F$DCB.:E05TOU  cannot be made into a system file and is referenced.
   F$CP6V_C.:E05TOU  is referenced.
   CP_6_SUBS.:E05TOU  is referenced.
      No diagnostics issued in procedure UDE$FPTCHK.
PL6.E3A0      #001=UDE$FPTCHK File=UDE$FPTCHK.:E05TSI                            WED 07/30/97 06:56 Page:115

 **** Variables and constants ****

  ****  Section 000 RoData UDE$FPTCHK

  ****  Scalars and arrays  ****
OctLoc.c.b A Datatyp(siz) R M Lvl/name                 OctLoc.c.b A Datatyp(siz) R M Lvl/name

     0-0-0/b STRC(13743) r     1 UDE_FPTTBL

  ****  Auto variables  ****

  ****  Scalars and arrays  ****
OctLoc.c.b A Datatyp(siz) R M Lvl/name                 OctLoc.c.b A Datatyp(siz) R M Lvl/name

     3-0-0/w PTR         r     1 @SCODE                    11-0-0/w EPTR        r     1 CLNUP
    13-0-0/w UBIN        r     1 CODE                      22-0-0/d STRC(72)    r     1 DESC
     7-0-0/w UBIN        r     1 FPTCODE                   10-0-0/w SBIN        r     1 FPTCODE1
    10-0-0/w STRC        r     1 FPTCODE2                  17-0-0/w UBIN        r     1 KEYL
    14-0-0/w SBIN        r     1 NPARM                     16-0-0/w UBIN        r     1 ORG
     5-0-0/b STRC(18)    r     1 PARM                       5-0-0/c CHAR(2)     r     1 PARMC
     4-0-0/b STRC(27)    r     1 PMME                      12-0-0/w PTR         r     1 PMME$
     4-0-0/c CHAR(3)     r     1 PMMEC                     15-0-0/w SBIN        r     1 PNO
    15-0-0/w PTR         r     1 PNO$                      *0-0-0/w STRC        r     1 SCODE
     6-0-0/b BIT         r     1 SCRFLG                    20-0-0/w UBIN        r     1 SIZ

  ****  SYMREF variables  ****

  ****  Scalars and arrays  ****
OctLoc.c.b A Datatyp(siz) R M Lvl/name                 OctLoc.c.b A Datatyp(siz) R M Lvl/name

     0-0-0/w PTR         r     1 B$JIT$                     0-0-0/w PTR         r     1 B$PS0$
     0-0-0/w PTR         r     1 B$UPT$                     0-0-0/w STRC        r     1 SC_UDE420

  ****  BASED and DCB variables  ****

  ****  Scalars and arrays  ****
OctLoc.c.b A Datatyp(siz) R M Lvl/name                 OctLoc.c.b A Datatyp(siz) R M Lvl/name
PL6.E3A0      #001=UDE$FPTCHK File=UDE$FPTCHK.:E05TSI                            WED 07/30/97 06:56 Page:116

     0-0-0/d STRC(7560)  r     1 B$JIT                      0-0-0/d ASTR(3528)  r     1 F$DCB
     0-0-0/d STRC(108)   r     1 FPT$PRECORD_V              0-0-0/d STRC(216)   r     1 FPT$READ_V
     0-0-0/c CHAR(2)     r     1 PARMB                      0-0-0/c CHAR(3)     r     1 PMMEB
     0-0-0/w UBIN        r     1 SNSIZE                     0-0-0/c CHAR        r     1 TXTC


   Procedure UDE$FPTCHK requires 414 words for executable code.
   Procedure UDE$FPTCHK requires 24 words of local(AUTO) storage.

    No errors detected in file UDE$FPTCHK.:E05TSI    .
PL6.E3A0      #001=UDE$FPTCHK File=UDE$FPTCHK.:E05TSI                            WED 07/30/97 06:56 Page:117
          *** CROSS REFERENCE LISTING ***
**     DENOTES     IDENTIFIER DEFINITION
<<                 IDENTIFIER'S VALUE SET
>>                 IDENTIFIER'S VALUE USED
<>                 IDENTIFIER SET AND/OR USED
--                 IDENTIFIER REFERENCED
PL6.E3A0      #001=UDE$FPTCHK File=UDE$FPTCHK.:E05TSI                            WED 07/30/97 06:56 Page:118
          MINI XREF LISTING

B$JIT.DCB$
      3588**DCL      3763>>ASSIGN   3764>>ASSIGN
B$JIT.ERR
      3498**DCL      3755<<ASSIGN
B$JIT.ERR.CODE
      3499**DCL      3756<<ASSIGN
B$JIT.ERR.MID
      3499**DCL      3499--REDEF
B$JIT$
      3177**DCL      3493--IMP-PTR  3755>>ASSIGN   3756>>ASSIGN   3763>>ASSIGN   3764>>ASSIGN
B$PS0$
      3135**DCL      3664>>IF       3664>>IF       3666>>IF       3716>>IF       3716>>IF       3716>>IF
      3716>>IF       3721>>IF
B$UPT$
      3161**DCL      3162--IMP-PTR
BADPARM
      3755**LABEL    3633--GOTO     3636--CALLALT  3638--CALLALT  3640--GOTO     3646--GOTO     3648--GOTO
      3651--GOTO     3655--GOTO     3658--GOTO     3672--CALLALT  3674--GOTO     3677--GOTO     3680--GOTO
      3683--GOTO     3689--CALLALT  3690--CALLALT  3699--GOTO     3702--GOTO     3705--GOTO     3707--CALLALT
      3730--GOTO     3737--GOTO     3741--GOTO     3745--GOTO
CHKDW
      3653**LABEL    3660--GOTO
CHKRNDBUF
      3706**LABEL    3713--GOTO
CLNUP
      3142**DCL      3598<>CALL     3758>>CALL
CODE
      3144**DCL      3605<<ASSIGN   3608>>IF       3626>>IF       3631<<ASSIGN   3642>>DOCASE   3652<<ASSIGN
      3653<<ASSIGN   3653>>ASSIGN   3654>>IF       3659<<ASSIGN   3746>>DOCASE
DESC
      3151**DCL      3632<>CALL
DESC.BAS.BND
PL6.E3A0      #001=UDE$FPTCHK File=UDE$FPTCHK.:E05TSI                            WED 07/30/97 06:56 Page:119
      3160**DCL      3639>>IF
DESC.BAS.WSQ
      3158**DCL      3633>>IF
DESC.BASE
      3156**DCL      3157--REDEF
DESC.SIZ
      3152**DCL      3645>>IF       3647>>IF       3650>>IF       3654>>IF       3657>>IF       3736>>IF
      3740>>IF
F$DCB.ACTPOS
       800**DCL       800--REDEF
F$DCB.ARS
       775**DCL       775--REDEF
F$DCB.ATTR
       793**DCL       794--REDEF
F$DCB.BORROW
       808**DCL       808--REDEF     808--REDEF     808--REDEF
F$DCB.DCBNAME.L
       822**DCL       822--IMP-SIZ
F$DCB.EOMCHAR
       779**DCL       779--REDEF
F$DCB.FLDID
       803**DCL       803--REDEF
F$DCB.FORM$
       797**DCL       797--REDEF
F$DCB.FSECT
       813**DCL       813--REDEF
F$DCB.FSN
       790**DCL       790--REDEF     790--REDEF     791--REDEF
F$DCB.HEADER$
       796**DCL       796--REDEF
F$DCB.IXTNSIZE
       794**DCL       794--REDEF
F$DCB.KEYL
       792**DCL      3764>>ASSIGN
F$DCB.LASTSTA$
       784**DCL       784--REDEF
PL6.E3A0      #001=UDE$FPTCHK File=UDE$FPTCHK.:E05TSI                            WED 07/30/97 06:56 Page:120
F$DCB.LVL
       809**DCL       809--REDEF
F$DCB.NAME.C
       784**DCL       784--REDEF
F$DCB.NOEOF
       805**DCL       805--REDEF
F$DCB.NRECS
       795**DCL       795--REDEF
F$DCB.NRECX
       814**DCL       814--REDEF
F$DCB.OHDR
       806**DCL       806--REDEF
F$DCB.ORG
       789**DCL       789--REDEF    3763>>ASSIGN
F$DCB.PRECNO
       812**DCL       812--REDEF
F$DCB.RCSZ
       817**DCL       817--REDEF
F$DCB.RES
       785**DCL       785--REDEF
F$DCB.SETX
       797**DCL       797--REDEF
F$DCB.TAB$
       796**DCL       797--REDEF
F$DCB.TDA
       811**DCL       811--REDEF
F$DCB.WSN
       786**DCL       786--REDEF
FPT$PRECORD_V.BOF
       831**DCL      3716>>IF
FPT$PRECORD_V.EOF
       831**DCL      3716>>IF
FPT$PRECORD_V.KEYR
       831**DCL      3716>>IF       3721>>IF
FPT$PRECORD_V.KEYS
       831**DCL      3716>>IF
PL6.E3A0      #001=UDE$FPTCHK File=UDE$FPTCHK.:E05TSI                            WED 07/30/97 06:56 Page:121
FPT$READ_V.DVBYTE.REREAD
       826**DCL       827--REDEF
FPT$READ_V.INDX
       826**DCL       826--REDEF
FPT$READ_V.KEYR
       824**DCL      3664>>IF       3666>>IF
FPT$READ_V.KEYS
       824**DCL      3664>>IF
FPTCODE
      3136**DCL      3602<<ASSIGN   3626>>IF
FPTCODE1
      3137**DCL      3138--REDEF    3598<>CALL
FPTCODE2.X
      3140**DCL      3602>>ASSIGN
HFF$CHKDBRK
      3132**DCL-ENT  3636--CALL     3672--CALL     3689--CALL     3707--CALL
HFF$DSIZ
      3131**DCL-ENT  3767--CALL
HFF$GETCLNUP
      3128**DCL-ENT  3598--CALL
HFF$NILERASE
      3129**DCL-ENT  3706--CALL
HFF$PTPRES
      3133**DCL-ENT  3638--CALL     3690--CALL     3766--CALL
HFF$RET_PS_DESC
      3130**DCL-ENT  3632--CALL
IRM$FPTCHECK
      3127**DCL-ENT  3611--CALL
KEYL
      3149**DCL      3676>>IF       3729>>IF       3764<<ASSIGN
NOPARM
      3744**LABEL    3632--CALLALT
NOSIZ IN PROCEDURE SETKEY
      3768**LABEL    3766--CALLALT
NPARM
      3145**DCL      3606<<ASSIGN   3629>>DOWHILE  3760>>ASSIGN
PL6.E3A0      #001=UDE$FPTCHK File=UDE$FPTCHK.:E05TSI                            WED 07/30/97 06:56 Page:122
NXPARM
      3751**LABEL    3685--GOTO     3706--CALLALT  3743--GOTO
NXPMME
      3604**LABEL    3761--GOTO
ORG
      3148**DCL      3668>>DOCASE   3696>>DOCASE   3711>>IF       3711>>IF       3728>>IF       3728>>IF
      3763<<ASSIGN
PARM
      3115**DCL      3120--REDEF    3751--ASSIGN   3760--ASSIGN
PARM.BND
      3117**DCL      3639>>IF
PARM.MAND
      3116**DCL      3744>>IF
PARM.SIZ
      3119**DCL      3631>>ASSIGN   3734>>IF       3740>>IF
PARM.WRIT
      3118**DCL      3634>>IF       3667<<ASSIGN   3670>>IF       3687>>IF       3722<<ASSIGN
PARMB
      3121**DCL      3630>>ASSIGN
PARMC
      3120**DCL      3630<<ASSIGN
PMME
      3110**DCL      3113--REDEF    3607--ASSIGN
PMME.CODE
      3111**DCL      3605>>ASSIGN
PMME.NPARM
      3112**DCL      3606>>ASSIGN
PMME$
      3143**DCL      3114--IMP-PTR  3121--IMP-PTR  3603<<ASSIGN   3604>>ASSIGN   3607<<ASSIGN   3607>>ASSIGN
      3630>>ASSIGN   3751<<ASSIGN   3751>>ASSIGN   3760<<ASSIGN   3760>>ASSIGN
PMMEB
      3114**DCL      3604>>ASSIGN
PMMEC
      3113**DCL      3604<<ASSIGN
PNO
      3146**DCL      3147--REDEF    3628<<ASSIGN   3629>>DOWHILE  3632<>CALL     3636<>CALL     3638<>CALL
PL6.E3A0      #001=UDE$FPTCHK File=UDE$FPTCHK.:E05TSI                            WED 07/30/97 06:56 Page:123
      3672<>CALL     3689<>CALL     3690<>CALL     3752<<ASSIGN   3752>>ASSIGN   3756>>ASSIGN   3758<>CALL
      3766<>CALL     3767<>CALL
PNO$
      3147**DCL      3122--IMP-PTR  3123--IMP-PTR  3647>>IF       3652>>ASSIGN   3659>>ASSIGN   3673>>IF
      3698>>IF       3736>>IF
RDKEY
      3668**LABEL    3723--GOTO
SCODE
       835**DCL         7--PROC
SCODE.CODE
       838**DCL      3596>>ASSIGN
SCR
      3603**LABEL    3754--GOTO     3757--GOTO     3758--CALLALT
SCR1
      3600**LABEL    3598--CALLALT
SCRFLG
      3124**DCL      3597<<ASSIGN   3600<<ASSIGN   3757>>IF
SC_UDE420
      3172**DCL      3611<>CALL     3755>>ASSIGN
SC_UDE420.CODE
      3175**DCL      3596<<ASSIGN
SETKEY
      3762**PROC     3663--CALL     3693--CALL     3715--CALL     3726--CALL
SIZ
      3150**DCL      3673>>IF       3673>>IF       3676>>IF       3679>>IF       3682>>IF       3694>>IF
      3698>>IF       3701>>IF       3704>>IF       3727>>IF       3729>>IF       3765<<ASSIGN   3767<>CALL
SNSIZE
      3123**DCL      3647>>IF       3652>>ASSIGN   3659>>ASSIGN
SPECIAL
      3642**LABEL    3748--GOTO
TXTC
      3122**DCL      3673>>IF       3698>>IF       3736>>IF
UDE_FPTTBL
       873**DCL      3603--ASSIGN
WRKEY
      3696**LABEL    3732--GOTO
