PL6.E3A0      #002=UEP$SAVLDT File=UEP$PMME.:E05TSI                              WED 07/30/97 06:59 Page:250
     1524        1        /*T***********************************************************/
     1525        2        /*T*                                                         */
     1526        3        /*T* Copyright (c) Bull HN Information Systems Inc., 1997    */
     1527        4        /*T*                                                         */
     1528        5        /*T***********************************************************/
     1529        6        /*F*     NAME:    UEP$SAVLDT
     1530        7                 PURPOSE:  To inspect a TCB frame following M$EXIT or M$TRTN
     1531        8                           to determine if SAVE or LDTRC should now be honored.
     1532        9
     1533       10        */
     1534       11        UEP$SAVLDT: PROC ALTRET;
     1535       12
     1536       13        %INCLUDE B$ROSEG;
     1537       76        %INCLUDE B_MAGIC_C;
     1538      194        %INCLUDE B_MACROS_C;
     1539      305        %T01DESCR (NAME=B$$DESCR);
     1540      313        %INCLUDE B_ULSMAC_C;
     1541     1422        %INCLUDE J$JIT_C;
     1542     1935        %INCLUDE UE_CP6;
     1543     2626        %INCLUDE B$SS;
     1544     2805
     1545     2806                                                /* AUTO Storage                       */
     1546     2807        %B$SVLDT (FPTN=B@SVLDT,STCLASS= ,PARONLY=YES);
     1547     2848
     1548     2849    1   DCL STK$ PTR;
     1549     2850    1   DCL TECCB(0:3) BIT(9);
     1550     2851    1   DCL TEMPIC UBIN(18);
     1551     2852    1   DCL T$ PTR;
     1552     2853    1   DCL I SBIN;
     1553     2854    1   DCL BAD_SAVE_F SBIN;
     1554     2855
     1555     2856                                                /* External Procedures                */
     1556     2857    1   DCL JLL$LDTRC ENTRY(5) ALTRET;
     1557     2858    1   DCL JQS$SAVE ENTRY(4) ALTRET;
     1558     2859    1   DCL JSE$ABORTM ENTRY;
     1559     2860    1   DCL UDN$MAGIC ENTRY;
     1560     2861    1   DCL UEP$CLEARONE ENTRY(3) ALTRET;
PL6.E3A0      #002=UEP$SAVLDT File=UEP$PMME.:E05TSI                              WED 07/30/97 06:59 Page:251
     1561     2862
     1562     2863                                                /* External Data                      */
     1563     2864        %B_MPT (FPTN=B_MPT,STCLASS=SYMREF);
     1564     2957    1   DCL B$JIT$ PTR SYMREF;
     1565     2958    1   DCL B$ROSEG$ PTR SYMREF;
     1566     2959
     1567     2960                                                /* BASED Structures                   */
     1568     2961        %B$SVLDT (FPTN=B$SVLDT,STCLASS=BASED,PARONLY=YES);
     1569     3002        %B$SVLDT (FPTN=B$SCON, STCLASS="BASED(STK$)", FULL=YES);
     1570     3043
     1571     3044    1   DCL 1 FTCB BASED ALIGNED,
     1572     3045    1         2 * PTR,
     1573     3046    1         2 CRFR SBIN HALF UNAL;
     1574     3047
     1575     3048        %B$ECCB;
     1576     3056        %B$TCB;
     1577     3059        %B$EXCFR (STCLASS="BASED(STK$)");
     1578     3077        %B$XCON (STCLASS="BASED(STK$)");
     1579     3087
     1580     3088                                                /* String Substitutions               */
     1581     3089        %SUB NAME$=B@SVLDT.P0$;
     1582     3090        %SUB ACCT$=B@SVLDT.P1$;
     1583     3091        %SUB PASS$=B@SVLDT.P2$;
     1584     3092        %SUB PSID$=B@SVLDT.P3$;
     1585     3093        %SUB CMD_DSCR$=B@SVLDT.P4$;
     1586     3094
     1587     3095        %SUB_EXC;
     1588     3142        %SUB_ECCDELTA;
     1589     3179        %SUB B$TCB=B_MPT.TCB$->B$TCB;
     1590     3180        %SUB B$SS=B_MPT.SS$->B$SS;
     1591     3181        %SUB B$JIT=B$JIT$->B$JIT;
     1592     3182        %SUB B$ROSEG=B$ROSEG$->B$ROSEG;
     1593     3183        %EJECT;
PL6.E3A0      #002=UEP$SAVLDT File=UEP$PMME.:E05TSI                              WED 07/30/97 06:59 Page:252
     1594     3184    1      CALL UDN$MAGIC;
     1595     3185
     1596     3186        /*   Make sure that there is a frame on the TCB and that it is
     1597     3187             either XCON or SVLDT.  Also make sure its not a different
     1598     3188             flavor of xcon frame.
     1599     3189        */
     1600     3190    1      IF B_MPT.TCBDESC$->B$$DESCR.BOUND = 0 THEN ALTRETURN;
     1601     3191    1      IF B$TCB.CURRSZ = 0 THEN ALTRETURN;
     1602     3192
     1603     3193    1      STK$=PINCRW(B_MPT.TCB$,B_MPT.TCB$->FTCB.CRFR);
     1604     3194
     1605     3195    1      IF (B$EXCFR.ECC ~= %ECC_XCON#) AND (B$EXCFR.ECC ~= %ECC_SAVLDT#)
     1606     3196    1      THEN ALTRETURN;
     1607     3197
     1608     3198    1      IF NOT(B$XCON.CECCB & %SVL_ECCB#) THEN ALTRETURN;
     1609     3199
     1610     3200        /*    Move the parameters of LINK/LDTRC or SAVE to AUTO.
     1611     3201        */
     1612     3202    1      T$ = ADDR(B$SCON.P0$);
     1613     3203    1      B@SVLDT = T$->B$SVLDT;
     1614     3204
     1615     3205    1      IF NAME$ ~= ADDR(NIL)
     1616     3206    1      THEN NAME$ = ADDR(B@SVLDT.FNAME);
     1617     3207
     1618     3208    1      IF ACCT$ ~= ADDR(NIL)
     1619     3209    1      THEN ACCT$ = ADDR(B@SVLDT.ACCT);
     1620     3210
     1621     3211    1      IF PASS$ ~= ADDR(NIL)
     1622     3212    1      THEN PASS$ = ADDR(B@SVLDT.PASS);
     1623     3213
     1624     3214    1      IF PSID$ ~= ADDR(NIL)
     1625     3215    1      THEN PSID$ = ADDR(B@SVLDT.PSID);
     1626     3216
     1627     3217    1      IF CMD_DSCR$ ~= ADDR(NIL)
     1628     3218    1      THEN CMD_DSCR$ = ADDR(B@SVLDT.CMD_DSCR);
     1629     3219
     1630     3220
PL6.E3A0      #002=UEP$SAVLDT File=UEP$PMME.:E05TSI                              WED 07/30/97 06:59 Page:253
     1631     3221
     1632     3222
     1633     3223        /*   If this is SAVE, reset the "xcon complete" bit
     1634     3224             in all the ECCBs and remember the current ECCB flags
     1635     3225             less the save flag so they may be restored later.
     1636     3226        */
     1637     3227    1      IF (B$JIT.SVLDTF & %SVL_SAVE#)
     1638     3228    2      THEN DO;
     1639     3229    3           DO I=0 TO 3;
     1640     3230    3                T$=ADDR(B$ROSEG.ECCB(I));
     1641     3231    3                T$->B$ECCB.XCONF.SVLDT='0'B;
     1642     3232    3                TECCB(I)=(T$->B$ECCB.XCONF &~%SVL_SAVE#);
     1643     3233    3                END;
     1644     3234
     1645     3235        /*   Make a SAVE xcon frame look like GET exit control frame.
     1646     3236        */
     1647     3237    2           IF B$EXCFR.ECC=%ECC_XCON#
     1648     3238    3           THEN DO;
     1649     3239
     1650     3240        /*    If xcon was in progress at the time of the SAVE, make the
     1651     3241              GET frame look like xcon already in progress.
     1652     3242        */
     1653     3243    3                IF (B$XCON.ECCB.PROG)
     1654     3244    4                THEN DO;
     1655     3245    4                     B$XCON.ECCB= B_MPT.ECCB$->B$ECCB.XCONF;
     1656     3246    4                     B$XCON.CECCB='001'O/*get*/;
     1657     3247    4                     END;
     1658     3248        /*   If xcon not in progress for the save, make the GET frame look
     1659     3249             like the imitial entry to exit control.
     1660     3250        */
     1661     3251    4                ELSE DO;
     1662     3252    4                     B$XCON.ECCB=(B_MPT.ECCB$->B$ECCB.XCONF &~'400'O)/*prog*/;
     1663     3253    4                     B$XCON.CECCB='401'O/*prog and get*/;
     1664     3254    4                     END;
     1665     3255
     1666     3256        /*   Mark the ECCB xcon flags "in progress for GET".
     1667     3257        */
PL6.E3A0      #002=UEP$SAVLDT File=UEP$PMME.:E05TSI                              WED 07/30/97 06:59 Page:254
     1668     3258    3                B_MPT.ECCB$->B$ECCB.XCONF='401'O;
     1669     3259
     1670     3260        /*   Reset the IC is Safe Store to the user's xcon routine.
     1671     3261             Reset any M$TRTN ALTRET bit in the real Safe Store frame.
     1672     3262        */
     1673     3263    3                B$SS.IC=B_MPT.ECCB$->B$ECCB.XCON;
     1674     3264    3                B$SS.FPT.ALT='0'B;
     1675     3265    3                END /*do if XCON*/;
     1676     3266
     1677     3267        /*   Remember the address to return to (XCON if SCON set,
     1678     3268             current value from Safe Store IC if not).
     1679     3269        */
     1680     3270    2           TEMPIC = B$SS.IC;
     1681     3271
     1682     3272
     1683     3273        /*    If not delayed for user xcon, clear the SAVLDT frame off the TCB.
     1684     3274        */
     1685     3275    2           IF B$EXCFR.ECC=%ECC_SAVLDT#
     1686     3276    3           THEN DO;
     1687     3277    3                I=0;
     1688     3278    3                CALL UEP$CLEARONE(I,STK$);
     1689     3279    3                END;
     1690     3280
     1691     3281        /*   If SAVEing following user XCON, remember the M$EXIT or M$TRTN
     1692     3282             ALTRET specification in case something goes wrong.
     1693     3283        */
     1694     3284    2           ELSE B$SS.FPT.ALT=B$SCON.SUBC.ALTBIT;
     1695     3285
     1696     3286
     1697     3287        /*   Now, really do the SAVE.
     1698     3288        */
     1699     3289    2           BAD_SAVE_F = 0;;
     1700     3290    2           CALL JQS$SAVE(NAME$,ACCT$,PASS$,PSID$)
     1701     3291    3           WHENALTRETURN DO;
     1702     3292    3                BAD_SAVE_F = 1;
     1703     3293    3                END;
     1704     3294
PL6.E3A0      #002=UEP$SAVLDT File=UEP$PMME.:E05TSI                              WED 07/30/97 06:59 Page:255
     1705     3295        /*   Restore the ECCB LIMIT and CL3 flags in case returning; ie. to M$TRTN.
     1706     3296        */
     1707     3297    3           DO I=0 TO 3;
     1708     3298    3                T$=ADDR(B$ROSEG.ECCB(I));
     1709     3299    3                T$->B$ECCB.XCONF=(T$->B$ECCB.XCONF | TECCB(I));
     1710     3300    3                END;
     1711     3301
     1712     3302        /*   If no errors on the SAVE, set the "simulated get" xcon bit in
     1713     3303             the ECCB and return to JSE$EXITS.
     1714     3304        */
     1715     3305    2           IF BAD_SAVE_F = 0
     1716     3306    3           THEN DO;
     1717     3307    3                IF (B$JIT.JUNK & %JJ_SCON#)
     1718     3308    3                THEN B$XCON.CECCB.SGET = '1'B;
     1719     3309    3                RETURN;
     1720     3310    3                END;
     1721     3311
     1722     3312        /*   If there were errors doing the SAVE, clear the SAVE xcon
     1723     3313             frame of the TCB and clear any SAVE or GET bits in the user's
     1724     3314             ECCB xcon flags.
     1725     3315        */
     1726     3316    3           ELSE DO;
     1727     3317    3                IF (B$JIT.JUNK & %JJ_SCON#)
     1728     3318    4                THEN DO;
     1729     3319    4                     TEMPIC=B$EXCFR.IC;
     1730     3320    4                     CALL UEP$CLEARONE(0,STK$);
     1731     3321    4                     END;
     1732     3322    3                B_MPT.ECCB$->B$ECCB.XCONF=TECCB(0);
     1733     3323    3                B$SS.IC=TEMPIC;
     1734     3324    3                RETURN;
     1735     3325    3                END;
     1736     3326    2           END /*do if SAVE*/;
     1737     3327
     1738     3328
     1739     3329
     1740     3330        /*   If this is M$LDTRC, call JLL$LDTRC to do it now.
     1741     3331             JLL will only return if an error occurs, in which case we
PL6.E3A0      #002=UEP$SAVLDT File=UEP$PMME.:E05TSI                              WED 07/30/97 06:59 Page:256
     1742     3332             must abort the user.
     1743     3333        */
     1744     3334    2      ELSE DO;
     1745     3335    2           CALL JLL$LDTRC(NAME$,ACCT$,PASS$,PSID$,CMD_DSCR$) ALTRET(BAD_LNK);
     1746     3336    2   BAD_LNK: ;
     1747     3337    2           B$JIT.SVLDTF=(B$JIT.SVLDTF & %SVL_DIC#);
     1748     3338    2           CALL JSE$ABORTM;
     1749     3339    2           END;
     1750     3340    1   END UEP$SAVLDT;

PL6.E3A0      #002=UEP$SAVLDT File=UEP$PMME.:E05TSI                              WED 07/30/97 06:59 Page:257
--  Include file information  --

   B$SS.:E05TOU  cannot be made into a system file and is referenced.
   UE_CP6.:E05TOU  is referenced.
   B$JIT_C.:E05TOU  is referenced.
   J$JIT_C.:E05TOU  cannot be made into a system file and is referenced.
   B_ULSMAC_C.:E05TOU  is referenced.
   B_MACROS_C.:E05TOU  is referenced.
   B_MAGIC_C.:E05TOU  is referenced.
   B$ROSEG.:E05TOU  cannot be made into a system file and is referenced.
      No diagnostics issued in procedure UEP$SAVLDT.

   Procedure UEP$SAVLDT requires 236 words for executable code.
   Procedure UEP$SAVLDT requires 36 words of local(AUTO) storage.

    No errors detected in file UEP$PMME.:E05TSI    .

PL6.E3A0      #002=UEP$SAVLDT File=UEP$PMME.:E05TSI                              WED 07/30/97 06:59 Page:258

 Object Unit name= UEP$SAVLDT                                 File name= UEP$PMME.:E05TOU
 UTS= JUL 30 '97 06:59:01.12 WED                              Compiler= PL-6/E31         Sev=      00
 SharedLib= :SHARED_SYSTEM                                    Alt SharedLib=


    ****  Control sections  ****

 Sect   Type Bound  Init  Size OctSiz  Section name(segment info)
    0   Proc  even  none   236    354  UEP$SAVLDT
    1  RoData even  none     2      2  UEP$SAVLDT

    ****  Entry defs  ****

                              Check   Calling
                             calling  sequence
  Sect OctLoc Primary Altret sequence   type   Parms  Name
     0      0   yes    yes     yes      Std        0  UEP$SAVLDT

  ****  Entry refs  ****

         Check        Calling
        calling       sequence
Altret sequence SRef   type   Args  Name
         yes           Std       0 UDN$MAGIC
 yes     yes           Std       3 UEP$CLEARONE
 yes     yes           Std       4 JQS$SAVE
 yes     yes           Std       5 JLL$LDTRC
         yes           Std       0 JSE$ABORTM
                       nStd      0 X66_AUTO_0
                       Std       0 B_CONSPOOL_D
                       nStd      0 X66_AALT
                       nStd      0 X66_ARET
PL6.E3A0      #002=UEP$SAVLDT File=UEP$PMME.:E05TSI                              WED 07/30/97 06:59 Page:259

  ****  Data refs  ****

  Flags:  r = read only, s = secondary
Flgs Name                             Flgs Name                             Flgs Name
     B_MPT                                 B$JIT$                                B$ROSEG$
     B_VECTNIL

  ****  Segment refs  ****

  Flags:  r = read only, s = secondary
Flgs Name                             Flgs Name                             Flgs Name
     ISSID
PL6.E3A0      #002=UEP$SAVLDT File=UEP$PMME.:E05TSI                              WED 07/30/97 06:59 Page:260


     1524        1        /*T***********************************************************/
     1525        2        /*T*                                                         */
     1526        3        /*T* Copyright (c) Bull HN Information Systems Inc., 1997    */
     1527        4        /*T*                                                         */
     1528        5        /*T***********************************************************/
     1529        6        /*F*     NAME:    UEP$SAVLDT
     1530        7                 PURPOSE:  To inspect a TCB frame following M$EXIT or M$TRTN
     1531        8                           to determine if SAVE or LDTRC should now be honored.
     1532        9
     1533       10        */
     1534       11        UEP$SAVLDT: PROC ALTRET;

     11  0 000000   000000 700200 xent  UEP$SAVLDT   TSX0  ! X66_AUTO_0
         0 000001   000044 000000                    ZERO    36,0

     1535       12
     1536       13        %INCLUDE B$ROSEG;
     1537       76        %INCLUDE B_MAGIC_C;
     1538      194        %INCLUDE B_MACROS_C;
     1539      305        %T01DESCR (NAME=B$$DESCR);
     1540      313        %INCLUDE B_ULSMAC_C;
     1541     1422        %INCLUDE J$JIT_C;
     1542     1935        %INCLUDE UE_CP6;
     1543     2626        %INCLUDE B$SS;
     1544     2805
     1545     2806                                                /* AUTO Storage                       */
     1546     2807        %B$SVLDT (FPTN=B@SVLDT,STCLASS= ,PARONLY=YES);
     1547     2848
     1548     2849    1   DCL STK$ PTR;
     1549     2850    1   DCL TECCB(0:3) BIT(9);
     1550     2851    1   DCL TEMPIC UBIN(18);
     1551     2852    1   DCL T$ PTR;
     1552     2853    1   DCL I SBIN;
     1553     2854    1   DCL BAD_SAVE_F SBIN;
     1554     2855
     1555     2856                                                /* External Procedures                */
PL6.E3A0      #002=UEP$SAVLDT File=UEP$PMME.:E05TSI                              WED 07/30/97 06:59 Page:261
     1556     2857    1   DCL JLL$LDTRC ENTRY(5) ALTRET;
     1557     2858    1   DCL JQS$SAVE ENTRY(4) ALTRET;
     1558     2859    1   DCL JSE$ABORTM ENTRY;
     1559     2860    1   DCL UDN$MAGIC ENTRY;
     1560     2861    1   DCL UEP$CLEARONE ENTRY(3) ALTRET;
     1561     2862
     1562     2863                                                /* External Data                      */
     1563     2864        %B_MPT (FPTN=B_MPT,STCLASS=SYMREF);
     1564     2957    1   DCL B$JIT$ PTR SYMREF;
     1565     2958    1   DCL B$ROSEG$ PTR SYMREF;
     1566     2959
     1567     2960                                                /* BASED Structures                   */
     1568     2961        %B$SVLDT (FPTN=B$SVLDT,STCLASS=BASED,PARONLY=YES);
     1569     3002        %B$SVLDT (FPTN=B$SCON, STCLASS="BASED(STK$)", FULL=YES);
     1570     3043
     1571     3044    1   DCL 1 FTCB BASED ALIGNED,
     1572     3045    1         2 * PTR,
     1573     3046    1         2 CRFR SBIN HALF UNAL;
     1574     3047
     1575     3048        %B$ECCB;
     1576     3056        %B$TCB;
     1577     3059        %B$EXCFR (STCLASS="BASED(STK$)");
     1578     3077        %B$XCON (STCLASS="BASED(STK$)");
     1579     3087
     1580     3088                                                /* String Substitutions               */
     1581     3089        %SUB NAME$=B@SVLDT.P0$;
     1582     3090        %SUB ACCT$=B@SVLDT.P1$;
     1583     3091        %SUB PASS$=B@SVLDT.P2$;
     1584     3092        %SUB PSID$=B@SVLDT.P3$;
     1585     3093        %SUB CMD_DSCR$=B@SVLDT.P4$;
     1586     3094
     1587     3095        %SUB_EXC;
     1588     3142        %SUB_ECCDELTA;
     1589     3179        %SUB B$TCB=B_MPT.TCB$->B$TCB;
     1590     3180        %SUB B$SS=B_MPT.SS$->B$SS;
     1591     3181        %SUB B$JIT=B$JIT$->B$JIT;
     1592     3182        %SUB B$ROSEG=B$ROSEG$->B$ROSEG;
PL6.E3A0      #002=UEP$SAVLDT File=UEP$PMME.:E05TSI                              WED 07/30/97 06:59 Page:262
     1593     3183        %EJECT;
PL6.E3A0      #002=UEP$SAVLDT File=UEP$PMME.:E05TSI                              WED 07/30/97 06:59 Page:263
     1594     3184    1      CALL UDN$MAGIC;

   3184  0 000002   000002 631400 xsym               EPPR1   B_VECTNIL+2
         0 000003   000000 701000 xent               TSX1    UDN$MAGIC
         0 000004   000000 011000                    NOP     0

     1595     3185
     1596     3186        /*   Make sure that there is a frame on the TCB and that it is
     1597     3187             either XCON or SVLDT.  Also make sure its not a different
     1598     3188             flavor of xcon frame.
     1599     3189        */
     1600     3190    1      IF B_MPT.TCBDESC$->B$$DESCR.BOUND = 0 THEN ALTRETURN;

   3190  0 000005   000012 470400 xsym               LDP0    B_MPT+10
         0 000006   000000 236100                    LDQ     0,,PR0
         0 000007   000034 316000 xsym               CANQ    B_VECTNIL+28
         0 000010   000012 601000 0                  TNZ     s:3191

   3190  0 000011   000000 702200 xent               TSX2  ! X66_AALT

     1601     3191    1      IF B$TCB.CURRSZ = 0 THEN ALTRETURN;

   3191  0 000012   000004 471400 xsym               LDP1    B_MPT+4
         0 000013   100002 720100                    LXL0    2,,PR1
         0 000014   000016 601000 0                  TNZ     s:3193

   3191  0 000015   000000 702200 xent               TSX2  ! X66_AALT

     1602     3192
     1603     3193    1      STK$=PINCRW(B_MPT.TCB$,B_MPT.TCB$->FTCB.CRFR);

   3193  0 000016   100001 221100                    LDX1    1,,PR1
         0 000017   000000 636011                    EAQ     0,X1
         0 000020   000004 036000 xsym               ADLQ    B_MPT+4
         0 000021   200030 756100                    STQ     STK$,,AUTO

     1604     3194
PL6.E3A0      #002=UEP$SAVLDT File=UEP$PMME.:E05TSI                              WED 07/30/97 06:59 Page:264
     1605     3195    1      IF (B$EXCFR.ECC ~= %ECC_XCON#) AND (B$EXCFR.ECC ~= %ECC_SAVLDT#)

   3195  0 000022   200030 473500                    LDP3    STK$,,AUTO
         0 000023   300000 720100                    LXL0    0,,PR3
         0 000024   000003 100003                    CMPX0   3,DU
         0 000025   000031 600000 0                  TZE     s:3198
         0 000026   000136 100003                    CMPX0   94,DU
         0 000027   000031 600000 0                  TZE     s:3198

     1606     3196    1      THEN ALTRETURN;

   3196  0 000030   000000 702200 xent               TSX2  ! X66_AALT

     1607     3197
     1608     3198    1      IF NOT(B$XCON.CECCB & %SVL_ECCB#) THEN ALTRETURN;

   3198  0 000031   300100 236100                    LDQ     64,,PR3
         0 000032   777000 376003                    ANQ     -512,DU
         0 000033   016000 376003                    ANQ     7168,DU
         0 000034   000036 601000 0                  TNZ     s:3202

   3198  0 000035   000000 702200 xent               TSX2  ! X66_AALT

     1609     3199
     1610     3200        /*    Move the parameters of LINK/LDTRC or SAVE to AUTO.
     1611     3201        */
     1612     3202    1      T$ = ADDR(B$SCON.P0$);

   3202  0 000036   200030 236100                    LDQ     STK$,,AUTO
         0 000037   000104 036003                    ADLQ    68,DU
         0 000040   200033 756100                    STQ     T$,,AUTO

     1613     3203    1      B@SVLDT = T$->B$SVLDT;

   3203  0 000041   200033 474500                    LDP4    T$,,AUTO
         0 000042   000100 100500                    MLR     fill='000'O
         0 000043   400000 000124                    ADSC9   0,,PR4                   cn=0,n=84
PL6.E3A0      #002=UEP$SAVLDT File=UEP$PMME.:E05TSI                              WED 07/30/97 06:59 Page:265
         0 000044   200003 000124                    ADSC9   B@SVLDT,,AUTO            cn=0,n=84

     1614     3204
     1615     3205    1      IF NAME$ ~= ADDR(NIL)

   3205  0 000045   200003 236100                    LDQ     B@SVLDT,,AUTO
         0 000046   000001 116000 xsym               CMPQ    B_VECTNIL+1
         0 000047   000052 600000 0                  TZE     s:3208

     1616     3206    1      THEN NAME$ = ADDR(B@SVLDT.FNAME);

   3206  0 000050   200010 635500                    EPPR5   B@SVLDT+5,,AUTO
         0 000051   200003 455500                    STP5    B@SVLDT,,AUTO

     1617     3207
     1618     3208    1      IF ACCT$ ~= ADDR(NIL)

   3208  0 000052   200004 236100                    LDQ     B@SVLDT+1,,AUTO
         0 000053   000001 116000 xsym               CMPQ    B_VECTNIL+1
         0 000054   000057 600000 0                  TZE     s:3211

     1619     3209    1      THEN ACCT$ = ADDR(B@SVLDT.ACCT);

   3209  0 000055   200020 635500                    EPPR5   B@SVLDT+13,,AUTO
         0 000056   200004 455500                    STP5    B@SVLDT+1,,AUTO

     1620     3210
     1621     3211    1      IF PASS$ ~= ADDR(NIL)

   3211  0 000057   200005 236100                    LDQ     B@SVLDT+2,,AUTO
         0 000060   000001 116000 xsym               CMPQ    B_VECTNIL+1
         0 000061   000064 600000 0                  TZE     s:3214

     1622     3212    1      THEN PASS$ = ADDR(B@SVLDT.PASS);

   3212  0 000062   200022 635500                    EPPR5   B@SVLDT+15,,AUTO
         0 000063   200005 455500                    STP5    B@SVLDT+2,,AUTO
PL6.E3A0      #002=UEP$SAVLDT File=UEP$PMME.:E05TSI                              WED 07/30/97 06:59 Page:266

     1623     3213
     1624     3214    1      IF PSID$ ~= ADDR(NIL)

   3214  0 000064   200006 236100                    LDQ     B@SVLDT+3,,AUTO
         0 000065   000001 116000 xsym               CMPQ    B_VECTNIL+1
         0 000066   000071 600000 0                  TZE     s:3217

     1625     3215    1      THEN PSID$ = ADDR(B@SVLDT.PSID);

   3215  0 000067   200024 635500                    EPPR5   B@SVLDT+17,,AUTO
         0 000070   200006 455500                    STP5    B@SVLDT+3,,AUTO

     1626     3216
     1627     3217    1      IF CMD_DSCR$ ~= ADDR(NIL)

   3217  0 000071   200007 236100                    LDQ     B@SVLDT+4,,AUTO
         0 000072   000001 116000 xsym               CMPQ    B_VECTNIL+1
         0 000073   000076 600000 0                  TZE     s:3227

     1628     3218    1      THEN CMD_DSCR$ = ADDR(B@SVLDT.CMD_DSCR);

   3218  0 000074   200026 635500                    EPPR5   B@SVLDT+19,,AUTO
         0 000075   200007 455500                    STP5    B@SVLDT+4,,AUTO

     1629     3219
     1630     3220
     1631     3221
     1632     3222
     1633     3223        /*   If this is SAVE, reset the "xcon complete" bit
     1634     3224             in all the ECCBs and remember the current ECCB flags
     1635     3225             less the save flag so they may be restored later.
     1636     3226        */
     1637     3227    1      IF (B$JIT.SVLDTF & %SVL_SAVE#)

   3227  0 000076   000000 475400 xsym               LDP5    B$JIT$
         0 000077   500316 236100                    LDQ     206,,PR5
PL6.E3A0      #002=UEP$SAVLDT File=UEP$PMME.:E05TSI                              WED 07/30/97 06:59 Page:267
         0 000100   000033 736000                    QLS     27
         0 000101   006000 376003                    ANQ     3072,DU
         0 000102   000324 600000 0                  TZE     s:3335

     1638     3228    2      THEN DO;

     1639     3229    3           DO I=0 TO 3;

   3229  0 000103   200034 450100                    STZ     I,,AUTO

     1640     3230    3                T$=ADDR(B$ROSEG.ECCB(I));

   3230  0 000104   200034 236100                    LDQ     I,,AUTO
         0 000105   000006 402003                    MPY     6,DU
         0 000106   000024 036003                    ADLQ    20,DU
         0 000107   000000 036000 xsym               ADLQ    B$ROSEG$
         0 000110   200033 756100                    STQ     T$,,AUTO

     1641     3231    3                T$->B$ECCB.XCONF.SVLDT='0'B;

   3231  0 000111   200033 470500                    LDP0    T$,,AUTO
         0 000112   000000 236000 1                  LDQ     0
         0 000113   000004 356100                    ANSQ    4,,PR0

     1642     3232    3                TECCB(I)=(T$->B$ECCB.XCONF &~%SVL_SAVE#);

   3232  0 000114   000004 236100                    LDQ     4,,PR0
         0 000115   000011 736000                    QLS     9
         0 000116   777000 376003                    ANQ     -512,DU
         0 000117   771000 376003                    ANQ     -3584,DU
         0 000120   200036 756100                    STQ     BAD_SAVE_F+1,,AUTO
         0 000121   200034 235100                    LDA     I,,AUTO
         0 000122   000105 100500                    MLR     fill='000'O
         0 000123   200036 000004                    ADSC9   BAD_SAVE_F+1,,AUTO       cn=0,n=4
         0 000124   200031 000001                    ADSC9   TECCB,A,AUTO             cn=0,n=1

     1643     3233    3                END;
PL6.E3A0      #002=UEP$SAVLDT File=UEP$PMME.:E05TSI                              WED 07/30/97 06:59 Page:268

   3233  0 000125   200034 054100                    AOS     I,,AUTO
         0 000126   200034 235100                    LDA     I,,AUTO
         0 000127   000003 115007                    CMPA    3,DL
         0 000130   000104 604400 0                  TMOZ    s:3230

     1644     3234
     1645     3235        /*   Make a SAVE xcon frame look like GET exit control frame.
     1646     3236        */
     1647     3237    2           IF B$EXCFR.ECC=%ECC_XCON#

   3237  0 000131   200030 471500                    LDP1    STK$,,AUTO
         0 000132   100000 720100                    LXL0    0,,PR1
         0 000133   000003 100003                    CMPX0   3,DU
         0 000134   000170 601000 0                  TNZ     s:3270

     1648     3238    3           THEN DO;

     1649     3239
     1650     3240        /*    If xcon was in progress at the time of the SAVE, make the
     1651     3241              GET frame look like xcon already in progress.
     1652     3242        */
     1653     3243    3                IF (B$XCON.ECCB.PROG)

   3243  0 000135   100101 236100                    LDQ     65,,PR1
         0 000136   000400 316007                    CANQ    256,DL
         0 000137   000147 600000 0                  TZE     s:3252

     1654     3244    4                THEN DO;

     1655     3245    4                     B$XCON.ECCB= B_MPT.ECCB$->B$ECCB.XCONF;

   3245  0 000140   000005 473400 xsym               LDP3    B_MPT+5
         0 000141   300004 236100                    LDQ     4,,PR3
         0 000142   000022 772000                    QRL     18
         0 000143   100101 552104                    STBQ    65,'04'O,PR1

PL6.E3A0      #002=UEP$SAVLDT File=UEP$PMME.:E05TSI                              WED 07/30/97 06:59 Page:269
     1656     3246    4                     B$XCON.CECCB='001'O/*get*/;

   3246  0 000144   001000 236003                    LDQ     512,DU
         0 000145   100100 552140                    STBQ    64,'40'O,PR1

     1657     3247    4                     END;

   3247  0 000146   000160 710000 0                  TRA     s:3258

     1658     3248        /*   If xcon not in progress for the save, make the GET frame look
     1659     3249             like the imitial entry to exit control.
     1660     3250        */
     1661     3251    4                ELSE DO;

     1662     3252    4                     B$XCON.ECCB=(B_MPT.ECCB$->B$ECCB.XCONF &~'400'O)/*prog*/;

   3252  0 000147   000005 473400 xsym               LDP3    B_MPT+5
         0 000150   300004 236100                    LDQ     4,,PR3
         0 000151   000011 736000                    QLS     9
         0 000152   777000 376003                    ANQ     -512,DU
         0 000153   377000 376003                    ANQ     130560,DU
         0 000154   000033 772000                    QRL     27
         0 000155   100101 552104                    STBQ    65,'04'O,PR1

     1663     3253    4                     B$XCON.CECCB='401'O/*prog and get*/;

   3253  0 000156   401000 236003                    LDQ     -130560,DU
         0 000157   100100 552140                    STBQ    64,'40'O,PR1

     1664     3254    4                     END;

     1665     3255
     1666     3256        /*   Mark the ECCB xcon flags "in progress for GET".
     1667     3257        */
     1668     3258    3                B_MPT.ECCB$->B$ECCB.XCONF='401'O;

   3258  0 000160   000401 236003                    LDQ     257,DU
PL6.E3A0      #002=UEP$SAVLDT File=UEP$PMME.:E05TSI                              WED 07/30/97 06:59 Page:270
         0 000161   300004 552120                    STBQ    4,'20'O,PR3

     1669     3259
     1670     3260        /*   Reset the IC is Safe Store to the user's xcon routine.
     1671     3261             Reset any M$TRTN ALTRET bit in the real Safe Store frame.
     1672     3262        */
     1673     3263    3                B$SS.IC=B_MPT.ECCB$->B$ECCB.XCON;

   3263  0 000162   000005 471400 xsym               LDP1    B_MPT+5
         0 000163   100001 720100                    LXL0    1,,PR1
         0 000164   000000 473400 xsym               LDP3    B_MPT
         0 000165   300004 740100                    STX0    4,,PR3

     1674     3264    3                B$SS.FPT.ALT='0'B;

   3264  0 000166   000031 236000 xsym               LDQ     B_VECTNIL+25
         0 000167   300001 356100                    ANSQ    1,,PR3

     1675     3265    3                END /*do if XCON*/;

     1676     3266
     1677     3267        /*   Remember the address to return to (XCON if SCON set,
     1678     3268             current value from Safe Store IC if not).
     1679     3269        */
     1680     3270    2           TEMPIC = B$SS.IC;

   3270  0 000170   000000 471400 xsym               LDP1    B_MPT
         0 000171   100004 220100                    LDX0    4,,PR1
         0 000172   200032 740100                    STX0    TEMPIC,,AUTO

     1681     3271
     1682     3272
     1683     3273        /*    If not delayed for user xcon, clear the SAVLDT frame off the TCB.
     1684     3274        */
     1685     3275    2           IF B$EXCFR.ECC=%ECC_SAVLDT#

   3275  0 000173   200030 473500                    LDP3    STK$,,AUTO
PL6.E3A0      #002=UEP$SAVLDT File=UEP$PMME.:E05TSI                              WED 07/30/97 06:59 Page:271
         0 000174   300000 721100                    LXL1    0,,PR3
         0 000175   000136 101003                    CMPX1   94,DU
         0 000176   000211 601000 0                  TNZ     s:3284

     1686     3276    3           THEN DO;

     1687     3277    3                I=0;

   3277  0 000177   200034 450100                    STZ     I,,AUTO

     1688     3278    3                CALL UEP$CLEARONE(I,STK$);

   3278  0 000200   200030 634500                    EPPR4   STK$,,AUTO
         0 000201   200037 454500                    STP4    BAD_SAVE_F+2,,AUTO
         0 000202   200034 635500                    EPPR5   I,,AUTO
         0 000203   200036 455500                    STP5    BAD_SAVE_F+1,,AUTO
         0 000204   200036 630500                    EPPR0   BAD_SAVE_F+1,,AUTO
         0 000205   000020 631400 xsym               EPPR1   B_VECTNIL+16
         0 000206   000000 701000 xent               TSX1    UEP$CLEARONE
         0 000207   000000 011000                    NOP     0

     1689     3279    3                END;

   3279  0 000210   000216 710000 0                  TRA     s:3289

     1690     3280
     1691     3281        /*   If SAVEing following user XCON, remember the M$EXIT or M$TRTN
     1692     3282             ALTRET specification in case something goes wrong.
     1693     3283        */
     1694     3284    2           ELSE B$SS.FPT.ALT=B$SCON.SUBC.ALTBIT;

   3284  0 000211   300100 236100                    LDQ     64,,PR3
         0 000212   000011 736000                    QLS     9
         0 000213   100001 676100                    ERQ     1,,PR1
         0 000214   400000 376003                    ANQ     -131072,DU
         0 000215   100001 656100                    ERSQ    1,,PR1

PL6.E3A0      #002=UEP$SAVLDT File=UEP$PMME.:E05TSI                              WED 07/30/97 06:59 Page:272
     1695     3285
     1696     3286
     1697     3287        /*   Now, really do the SAVE.
     1698     3288        */
     1699     3289    2           BAD_SAVE_F = 0;;

   3289  0 000216   200035 450100                    STZ     BAD_SAVE_F,,AUTO

     1700     3290    2           CALL JQS$SAVE(NAME$,ACCT$,PASS$,PSID$)

   3290  0 000217   200006 630500                    EPPR0   B@SVLDT+3,,AUTO
         0 000220   200041 450500                    STP0    BAD_SAVE_F+4,,AUTO
         0 000221   200005 631500                    EPPR1   B@SVLDT+2,,AUTO
         0 000222   200040 451500                    STP1    BAD_SAVE_F+3,,AUTO
         0 000223   200004 633500                    EPPR3   B@SVLDT+1,,AUTO
         0 000224   200037 453500                    STP3    BAD_SAVE_F+2,,AUTO
         0 000225   200003 634500                    EPPR4   B@SVLDT,,AUTO
         0 000226   200036 454500                    STP4    BAD_SAVE_F+1,,AUTO
         0 000227   200036 630500                    EPPR0   BAD_SAVE_F+1,,AUTO
         0 000230   000022 631400 xsym               EPPR1   B_VECTNIL+18
         0 000231   000000 701000 xent               TSX1    JQS$SAVE
         0 000232   000234 702000 0                  TSX2    s:3292
         0 000233   000236 710000 0                  TRA     s:3297

     1701     3291    3           WHENALTRETURN DO;

     1702     3292    3                BAD_SAVE_F = 1;

   3292  0 000234   000001 235007                    LDA     1,DL
         0 000235   200035 755100                    STA     BAD_SAVE_F,,AUTO

     1703     3293    3                END;

     1704     3294
     1705     3295        /*   Restore the ECCB LIMIT and CL3 flags in case returning; ie. to M$TRTN.
     1706     3296        */
     1707     3297    3           DO I=0 TO 3;
PL6.E3A0      #002=UEP$SAVLDT File=UEP$PMME.:E05TSI                              WED 07/30/97 06:59 Page:273

   3297  0 000236   200034 450100                    STZ     I,,AUTO

     1708     3298    3                T$=ADDR(B$ROSEG.ECCB(I));

   3298  0 000237   200034 236100                    LDQ     I,,AUTO
         0 000240   000006 402003                    MPY     6,DU
         0 000241   000024 036003                    ADLQ    20,DU
         0 000242   000000 036000 xsym               ADLQ    B$ROSEG$
         0 000243   200033 756100                    STQ     T$,,AUTO

     1709     3299    3                T$->B$ECCB.XCONF=(T$->B$ECCB.XCONF | TECCB(I));

   3299  0 000244   200034 235100                    LDA     I,,AUTO
         0 000245   000100 100505                    MLR     fill='000'O
         0 000246   200031 000001                    ADSC9   TECCB,A,AUTO             cn=0,n=1
         0 000247   200036 000004                    ADSC9   BAD_SAVE_F+1,,AUTO       cn=0,n=4
         0 000250   200033 470500                    LDP0    T$,,AUTO
         0 000251   000004 236100                    LDQ     4,,PR0
         0 000252   000011 736000                    QLS     9
         0 000253   777000 376003                    ANQ     -512,DU
         0 000254   200036 276100                    ORQ     BAD_SAVE_F+1,,AUTO
         0 000255   000011 772000                    QRL     9
         0 000256   000004 552120                    STBQ    4,'20'O,PR0

     1710     3300    3                END;

   3300  0 000257   200034 054100                    AOS     I,,AUTO
         0 000260   200034 235100                    LDA     I,,AUTO
         0 000261   000003 115007                    CMPA    3,DL
         0 000262   000237 604400 0                  TMOZ    s:3298

     1711     3301
     1712     3302        /*   If no errors on the SAVE, set the "simulated get" xcon bit in
     1713     3303             the ECCB and return to JSE$EXITS.
     1714     3304        */
     1715     3305    2           IF BAD_SAVE_F = 0
PL6.E3A0      #002=UEP$SAVLDT File=UEP$PMME.:E05TSI                              WED 07/30/97 06:59 Page:274

   3305  0 000263   200035 236100                    LDQ     BAD_SAVE_F,,AUTO
         0 000264   000275 601000 0                  TNZ     s:3317

     1716     3306    3           THEN DO;

     1717     3307    3                IF (B$JIT.JUNK & %JJ_SCON#)

   3307  0 000265   000000 471400 xsym               LDP1    B$JIT$
         0 000266   100315 220100                    LDX0    205,,PR1
         0 000267   100000 360003                    ANX0    32768,DU
         0 000270   000274 600000 0                  TZE     s:3309

     1718     3308    3                THEN B$XCON.CECCB.SGET = '1'B;

   3308  0 000271   200030 473500                    LDP3    STK$,,AUTO
         0 000272   020000 236003                    LDQ     8192,DU
         0 000273   300100 256100                    ORSQ    64,,PR3

     1719     3309    3                RETURN;

   3309  0 000274   000000 702200 xent               TSX2  ! X66_ARET

     1720     3310    3                END;
     1721     3311
     1722     3312        /*   If there were errors doing the SAVE, clear the SAVE xcon
     1723     3313             frame of the TCB and clear any SAVE or GET bits in the user's
     1724     3314             ECCB xcon flags.
     1725     3315        */
     1726     3316    3           ELSE DO;

     1727     3317    3                IF (B$JIT.JUNK & %JJ_SCON#)

   3317  0 000275   000000 471400 xsym               LDP1    B$JIT$
         0 000276   100315 220100                    LDX0    205,,PR1
         0 000277   100000 360003                    ANX0    32768,DU
         0 000300   000314 600000 0                  TZE     s:3322
PL6.E3A0      #002=UEP$SAVLDT File=UEP$PMME.:E05TSI                              WED 07/30/97 06:59 Page:275

     1728     3318    4                THEN DO;

     1729     3319    4                     TEMPIC=B$EXCFR.IC;

   3319  0 000301   200030 473500                    LDP3    STK$,,AUTO
         0 000302   300004 220100                    LDX0    4,,PR3
         0 000303   200032 740100                    STX0    TEMPIC,,AUTO

     1730     3320    4                     CALL UEP$CLEARONE(0,STK$);

   3320  0 000304   200030 634500                    EPPR4   STK$,,AUTO
         0 000305   200037 454500                    STP4    BAD_SAVE_F+2,,AUTO
         0 000306   000001 236000 1                  LDQ     1
         0 000307   200036 756100                    STQ     BAD_SAVE_F+1,,AUTO
         0 000310   200036 630500                    EPPR0   BAD_SAVE_F+1,,AUTO
         0 000311   000020 631400 xsym               EPPR1   B_VECTNIL+16
         0 000312   000000 701000 xent               TSX1    UEP$CLEARONE
         0 000313   000000 011000                    NOP     0

     1731     3321    4                     END;

     1732     3322    3                B_MPT.ECCB$->B$ECCB.XCONF=TECCB(0);

   3322  0 000314   000005 470400 xsym               LDP0    B_MPT+5
         0 000315   200031 236100                    LDQ     TECCB,,AUTO
         0 000316   000011 772000                    QRL     9
         0 000317   000004 552120                    STBQ    4,'20'O,PR0

     1733     3323    3                B$SS.IC=TEMPIC;

   3323  0 000320   200032 220100                    LDX0    TEMPIC,,AUTO
         0 000321   000000 470400 xsym               LDP0    B_MPT
         0 000322   000004 740100                    STX0    4,,PR0

     1734     3324    3                RETURN;

PL6.E3A0      #002=UEP$SAVLDT File=UEP$PMME.:E05TSI                              WED 07/30/97 06:59 Page:276
   3324  0 000323   000000 702200 xent               TSX2  ! X66_ARET

     1735     3325    3                END;
     1736     3326    2           END /*do if SAVE*/;
     1737     3327
     1738     3328
     1739     3329
     1740     3330        /*   If this is M$LDTRC, call JLL$LDTRC to do it now.
     1741     3331             JLL will only return if an error occurs, in which case we
     1742     3332             must abort the user.
     1743     3333        */
     1744     3334    2      ELSE DO;

     1745     3335    2           CALL JLL$LDTRC(NAME$,ACCT$,PASS$,PSID$,CMD_DSCR$) ALTRET(BAD_LNK);

   3335  0 000324   200007 636500                    EPPR6   B@SVLDT+4,,AUTO
         0 000325   200042 456500                    STP6    BAD_SAVE_F+5,,AUTO
         0 000326   200006 637500                    EPPR7   B@SVLDT+3,,AUTO
         0 000327   200041 457500                    STP7    BAD_SAVE_F+4,,AUTO
         0 000330   200005 630500                    EPPR0   B@SVLDT+2,,AUTO
         0 000331   200040 450500                    STP0    BAD_SAVE_F+3,,AUTO
         0 000332   200004 630500                    EPPR0   B@SVLDT+1,,AUTO
         0 000333   200037 450500                    STP0    BAD_SAVE_F+2,,AUTO
         0 000334   200003 630500                    EPPR0   B@SVLDT,,AUTO
         0 000335   200036 450500                    STP0    BAD_SAVE_F+1,,AUTO
         0 000336   200036 630500                    EPPR0   BAD_SAVE_F+1,,AUTO
         0 000337   000023 631400 xsym               EPPR1   B_VECTNIL+19
         0 000340   000000 701000 xent               TSX1    JLL$LDTRC
         0 000341   000342 702000 0                  TSX2    BAD_LNK

   3335  0 000342                       BAD_LNK      null
     1746     3336    2   BAD_LNK: ;
     1747     3337    2           B$JIT.SVLDTF=(B$JIT.SVLDTF & %SVL_DIC#);

   3337  0 000342   000000 470400 xsym               LDP0    B$JIT$
         0 000343   000316 236100                    LDQ     206,,PR0
         0 000344   000033 736000                    QLS     27
PL6.E3A0      #002=UEP$SAVLDT File=UEP$PMME.:E05TSI                              WED 07/30/97 06:59 Page:277
         0 000345   200000 376003                    ANQ     65536,DU
         0 000346   000033 772000                    QRL     27
         0 000347   000316 552104                    STBQ    206,'04'O,PR0

     1748     3338    2           CALL JSE$ABORTM;

   3338  0 000350   000002 631400 xsym               EPPR1   B_VECTNIL+2
         0 000351   000000 701000 xent               TSX1    JSE$ABORTM
         0 000352   000000 011000                    NOP     0

     1749     3339    2           END;

     1750     3340    1   END UEP$SAVLDT;

   3340  0 000353   000000 702200 xent               TSX2  ! X66_ARET

(unnamed)
 Sect OctLoc
   1     000   777757 777777   000002 006000                                    ........

PL6.E3A0      #002=UEP$SAVLDT File=UEP$PMME.:E05TSI                              WED 07/30/97 06:59 Page:278
--  Include file information  --

   B$SS.:E05TOU  cannot be made into a system file and is referenced.
   UE_CP6.:E05TOU  is referenced.
   B$JIT_C.:E05TOU  is referenced.
   J$JIT_C.:E05TOU  cannot be made into a system file and is referenced.
   B_ULSMAC_C.:E05TOU  is referenced.
   B_MACROS_C.:E05TOU  is referenced.
   B_MAGIC_C.:E05TOU  is referenced.
   B$ROSEG.:E05TOU  cannot be made into a system file and is referenced.
      No diagnostics issued in procedure UEP$SAVLDT.
PL6.E3A0      #002=UEP$SAVLDT File=UEP$PMME.:E05TSI                              WED 07/30/97 06:59 Page:279

 **** Variables and constants ****

  ****  Auto variables  ****

  ****  Scalars and arrays  ****
OctLoc.c.b A Datatyp(siz) R M Lvl/name                 OctLoc.c.b A Datatyp(siz) R M Lvl/name

     3-0-0/w STRC(756)   r     1 B@SVLDT                   35-0-0/w SBIN        r     1 BAD_SAVE_F
    34-0-0/w SBIN        r     1 I                         30-0-0/w PTR         r     1 STK$
    33-0-0/w PTR         r     1 T$                        31-0-0/b BIT (9)     r     1 TECCB(0:3)
    32-0-0/w UBIN(18)    r     1 TEMPIC

  ****  SYMREF variables  ****

  ****  Scalars and arrays  ****
OctLoc.c.b A Datatyp(siz) R M Lvl/name                 OctLoc.c.b A Datatyp(siz) R M Lvl/name

     0-0-0/w PTR         r     1 B$JIT$                     0-0-0/w PTR         r     1 B$ROSEG$
     0-0-0/d STRC(432)   r     1 B_MPT

  ****  BASED and DCB variables  ****

  ****  Scalars and arrays  ****
OctLoc.c.b A Datatyp(siz) R M Lvl/name                 OctLoc.c.b A Datatyp(siz) R M Lvl/name

     0-0-0/w STRC(72)    r     1 B$$DESCR                   0-0-0/w STRC(180)   r     1 B$ECCB
     0-0-0/w STRC(2448)  r     1 B$EXCFR                    0-0-0/d STRC(8856)  r     1 B$JIT
     0-0-0/d STRC(3024)  r     1 B$ROSEG                    0-0-0/w STRC(3204)  r     1 B$SCON
     0-0-0/d STRC(2304)  r     1 B$SS                       0-0-0/w STRC(756)   r     1 B$SVLDT
     0-0-0/w STRC(144)   r     1 B$TCB                      0-0-0/w STRC(2448)  r     1 B$XCON
     0-0-0/w STRC(54)    r     1 FTCB


   Procedure UEP$SAVLDT requires 236 words for executable code.
   Procedure UEP$SAVLDT requires 36 words of local(AUTO) storage.
PL6.E3A0      #002=UEP$SAVLDT File=UEP$PMME.:E05TSI                              WED 07/30/97 06:59 Page:280

    No errors detected in file UEP$PMME.:E05TSI    .
PL6.E3A0      #002=UEP$SAVLDT File=UEP$PMME.:E05TSI                              WED 07/30/97 06:59 Page:281
          *** CROSS REFERENCE LISTING ***
**     DENOTES     IDENTIFIER DEFINITION
<<                 IDENTIFIER'S VALUE SET
>>                 IDENTIFIER'S VALUE USED
<>                 IDENTIFIER SET AND/OR USED
--                 IDENTIFIER REFERENCED
PL6.E3A0      #002=UEP$SAVLDT File=UEP$PMME.:E05TSI                              WED 07/30/97 06:59 Page:282
          MINI XREF LISTING

B$$DESCR.BOUND
       307**DCL      3190>>IF
B$ECCB.XCON
      3049**DCL      3263>>ASSIGN
B$ECCB.XCONF
      3051**DCL      3232>>ASSIGN   3245>>ASSIGN   3252>>ASSIGN   3258<<ASSIGN   3299<<ASSIGN   3299>>ASSIGN
      3322<<ASSIGN
B$ECCB.XCONF.SVLDT
      3052**DCL      3231<<ASSIGN
B$EXCFR.ASL
      3060**DCL      3060--REDEF
B$EXCFR.ECC
      3060**DCL      3195>>IF       3195>>IF       3237>>IF       3275>>IF
B$EXCFR.ERR.ERR#
      3074**DCL      3074--REDEF
B$EXCFR.EVID
      3073**DCL      3073--REDEF    3074--REDEF
B$EXCFR.IC
      3061**DCL      3319>>ASSIGN
B$EXCFR.IR
      3061**DCL      3061--REDEF
B$EXCFR.PREVSZ
      3060**DCL      3060--REDEF
B$EXCFR.SUBC
      3072**DCL      3072--REDEF    3073--REDEF    3073--REDEF
B$JIT.ERR.MID
      1750**DCL      1750--REDEF
B$JIT.JUNK
      1866**DCL      3307>>IF       3317>>IF
B$JIT.SVLDTF
      1907**DCL      3227>>IF       3337<<ASSIGN   3337>>ASSIGN
B$JIT$
PL6.E3A0      #002=UEP$SAVLDT File=UEP$PMME.:E05TSI                              WED 07/30/97 06:59 Page:283
      2957**DCL      1744--IMP-PTR  3227>>IF       3307>>IF       3317>>IF       3337>>ASSIGN   3337>>ASSIGN
B$ROSEG.ECCB
        30**DCL      3230--ASSIGN   3298--ASSIGN
B$ROSEG$
      2958**DCL      3230>>ASSIGN   3298>>ASSIGN
B$SCON.ACCT$
      3017**DCL      3017--REDEF
B$SCON.CMD_DSCR$
      3018**DCL      3018--REDEF    3018--REDEF
B$SCON.ECCS
      3013**DCL      3013--REDEF
B$SCON.FNAME.TXT
      3018**DCL      3018--REDEF
B$SCON.NAME$
      3017**DCL      3017--REDEF
B$SCON.P0$
      3017**DCL      3202--ASSIGN
B$SCON.PASS$
      3017**DCL      3017--REDEF
B$SCON.PSID$
      3017**DCL      3017--REDEF
B$SCON.SUBC.ALTBIT
      3013**DCL      3284>>ASSIGN
B$SS.FPT.ALT
      2638**DCL      3264<<ASSIGN   3284<<ASSIGN
B$SS.IC
      2645**DCL      3263<<ASSIGN   3270>>ASSIGN   3323<<ASSIGN
B$SS.RVA
      2678**DCL      2679--REDEF
B$SVLDT
      2966**DCL      3203>>ASSIGN
B$SVLDT.ACCT$
      2976**DCL      2976--REDEF
B$SVLDT.CMD_DSCR$
      2977**DCL      2977--REDEF    2977--REDEF
B$SVLDT.FNAME.TXT
PL6.E3A0      #002=UEP$SAVLDT File=UEP$PMME.:E05TSI                              WED 07/30/97 06:59 Page:284
      2977**DCL      2977--REDEF
B$SVLDT.NAME$
      2976**DCL      2976--REDEF
B$SVLDT.PASS$
      2976**DCL      2976--REDEF
B$SVLDT.PSID$
      2976**DCL      2976--REDEF
B$TCB.CURRSZ
      3057**DCL      3191>>IF
B$XCON.CECCB
      3078**DCL      3198>>IF       3246<<ASSIGN   3253<<ASSIGN
B$XCON.CECCB.SGET
      3078**DCL      3308<<ASSIGN
B$XCON.ECCB
      3083**DCL      3245<<ASSIGN   3252<<ASSIGN
B$XCON.ECCB.PROG
      3083**DCL      3243>>IF
B$XCON.ERR.ERR#
      3084**DCL      3084--REDEF
B$XCON.LIMIT.MEM
      3082**DCL      3082--REDEF
B@SVLDT
      2812**DCL      3203<<ASSIGN
B@SVLDT.ACCT
      2824**DCL      3209--ASSIGN
B@SVLDT.ACCT$
      2822**DCL      2822--REDEF
B@SVLDT.CMD_DSCR
      2841**DCL      3218--ASSIGN
B@SVLDT.CMD_DSCR$
      2823**DCL      2823--REDEF    2823--REDEF
B@SVLDT.FNAME
      2823**DCL      3206--ASSIGN
B@SVLDT.FNAME.TXT
      2823**DCL      2823--REDEF
B@SVLDT.NAME$
PL6.E3A0      #002=UEP$SAVLDT File=UEP$PMME.:E05TSI                              WED 07/30/97 06:59 Page:285
      2822**DCL      2822--REDEF
B@SVLDT.P0$
      2822**DCL      3205>>IF       3206<<ASSIGN   3290<>CALL     3335<>CALL
B@SVLDT.P1$
      2822**DCL      3208>>IF       3209<<ASSIGN   3290<>CALL     3335<>CALL
B@SVLDT.P2$
      2822**DCL      3211>>IF       3212<<ASSIGN   3290<>CALL     3335<>CALL
B@SVLDT.P3$
      2822**DCL      3214>>IF       3215<<ASSIGN   3290<>CALL     3335<>CALL
B@SVLDT.P4$
      2823**DCL      3217>>IF       3218<<ASSIGN   3335<>CALL
B@SVLDT.PASS
      2824**DCL      3212--ASSIGN
B@SVLDT.PASS$
      2822**DCL      2822--REDEF
B@SVLDT.PSID
      2824**DCL      3215--ASSIGN
B@SVLDT.PSID$
      2822**DCL      2822--REDEF
BAD_LNK
      3335**LABEL    3335--CALLALT
BAD_SAVE_F
      2854**DCL      3289<<ASSIGN   3292<<ASSIGN   3305>>IF
B_MPT.AS
      2900**DCL      2903--REDEF
B_MPT.ASDESC
      2932**DCL      2936--REDEF
B_MPT.ECCB
      2915**DCL      2918--REDEF
B_MPT.ECCB$
      2918**DCL      3245>>ASSIGN   3252>>ASSIGN   3258>>ASSIGN   3263>>ASSIGN   3322>>ASSIGN
B_MPT.ECCBDESC
      2950**DCL      2954--REDEF
B_MPT.LS
      2895**DCL      2898--REDEF
B_MPT.LSDESC
PL6.E3A0      #002=UEP$SAVLDT File=UEP$PMME.:E05TSI                              WED 07/30/97 06:59 Page:286
      2926**DCL      2930--REDEF
B_MPT.PS
      2905**DCL      2908--REDEF
B_MPT.PSDESC
      2938**DCL      2942--REDEF
B_MPT.SS
      2890**DCL      2893--REDEF
B_MPT.SS$
      2893**DCL      3263>>ASSIGN   3264>>ASSIGN   3270>>ASSIGN   3284>>ASSIGN   3323>>ASSIGN
B_MPT.SSDESC
      2920**DCL      2924--REDEF
B_MPT.TCB
      2910**DCL      2913--REDEF
B_MPT.TCB$
      2913**DCL      3191>>IF       3193>>ASSIGN   3193>>ASSIGN
B_MPT.TCBDESC
      2944**DCL      2948--REDEF
B_MPT.TCBDESC$
      2948**DCL      3190>>IF
FTCB.CRFR
      3046**DCL      3193>>ASSIGN
I
      2853**DCL      3229<<DOINDEX  3230>>ASSIGN   3232>>ASSIGN   3277<<ASSIGN   3278<>CALL     3297<<DOINDEX
      3298>>ASSIGN   3299>>ASSIGN
JLL$LDTRC
      2857**DCL-ENT  3335--CALL
JQS$SAVE
      2858**DCL-ENT  3290--CALL
JSE$ABORTM
      2859**DCL-ENT  3338--CALL
STK$
      2849**DCL      3007--IMP-PTR  3060--IMP-PTR  3078--IMP-PTR  3193<<ASSIGN   3195>>IF       3195>>IF
      3198>>IF       3202>>ASSIGN   3237>>IF       3243>>IF       3245>>ASSIGN   3246>>ASSIGN   3252>>ASSIGN
      3253>>ASSIGN   3275>>IF       3278<>CALL     3284>>ASSIGN   3308>>ASSIGN   3319>>ASSIGN   3320<>CALL
T$
      2852**DCL      3202<<ASSIGN   3203>>ASSIGN   3230<<ASSIGN   3231>>ASSIGN   3232>>ASSIGN   3298<<ASSIGN
PL6.E3A0      #002=UEP$SAVLDT File=UEP$PMME.:E05TSI                              WED 07/30/97 06:59 Page:287
      3299>>ASSIGN   3299>>ASSIGN
TECCB
      2850**DCL      3232<<ASSIGN   3299>>ASSIGN   3322>>ASSIGN
TEMPIC
      2851**DCL      3270<<ASSIGN   3319<<ASSIGN   3323>>ASSIGN
UDN$MAGIC
      2860**DCL-ENT  3184--CALL
UEP$CLEARONE
      2861**DCL-ENT  3278--CALL     3320--CALL
