PL6.E3A0      #003=UMT$MONINFO File=UMT$TIME.:E05TSI                             WED 07/30/97 07:02 Page:171
      887        1        /*T***********************************************************/
      888        2        /*T*                                                         */
      889        3        /*T* Copyright (c) Bull HN Information Systems Inc., 1997    */
      890        4        /*T*                                                         */
      891        5        /*T***********************************************************/
      892        6        UMT$MONINFO: PROC;
      893        7        %INCLUDE UM_CP6;
      894      859        %VLR_SITEINFO (FPTN=B_SITEINFO,STCLASS=SYMREF);
      895      878        %VLR_SITEINFO (FPTN=VLR_SITEINFO,STCLASS="BASED(B$PS0$)");
      896      897        %VLR_MONINFO (FPTN=B_MONINFO,STCLASS=SYMREF);
      897      915        %VLR_MONINFO (FPTN=VLR_MONINFO,STCLASS="BASED(B$PS1$)");
      898      933        %VLR_MONPTRS (FPTN=B_MONPTRS,STCLASS=SYMREF);
      899      948        %VLR_MONPTRS (FPTN=VLR_MONPTRS,STCLASS="BASED(B$PS2$)");
      900      963        %VLR_SYMBINFO (FPTN=FO_SYMBINFO,STCLASS=SYMREF);
      901      979        %VLR_SYMBINFO (FPTN=VLR_SYMBINFO,STCLASS="BASED(B$PS3$)");
      902      995        /**/
      903      996        %INCLUDE MM_DATA_R;
      904     1516        %INCLUDE FM_CACHE_R;
      905     1528        %INCLUDE UMT_CNTRL_R;
      906     1537        %INCLUDE B$JIT;
      907     2140    1   DCL B$JIT$ PTR SYMREF;
      908     2141    1   DCL FT_PROT SBIN SYMREF;
      909     2142        /**/
      910     2143    1   DCL SP_INFO BIT(36) CONSTANT SYMDEF INIT('777777777777'O);
      911     2144    1   DCL B$AWORD BIT(36) BASED ALIGNED;
      912     2145    1   DCL PRIV BIT(36);
      913     2146        /**/
      914     2147    1   DCL B$PS0$ PTR SYMREF;
      915     2148    1   DCL B$PS1$ PTR SYMREF;
      916     2149    1   DCL B$PS2$ PTR SYMREF;
      917     2150    1   DCL B$PS3$ PTR SYMREF;
      918     2151    1   DCL B$PS4$ PTR SYMREF;
      919     2152    1   DCL B$PS5$ PTR SYMREF;
      920     2153    1   DCL 1 K_HEADER SYMREF,
      921     2154    1          2 CNT UBIN BYTE UNAL,
      922     2155    1          2 TEXT CHAR(K_HEADER.CNT) UNAL;
      923     2156    1   DCL 1 HEADER BASED(B$PS5$),
PL6.E3A0      #003=UMT$MONINFO File=UMT$TIME.:E05TSI                             WED 07/30/97 07:02 Page:172
      924     2157    1          2 CNT UBIN BYTE UNAL,
      925     2158    1          2 TEXT CHAR(K_HEADER.CNT) UNAL;
      926     2159        /**/
      927     2160    1   DCL HFF$NILERASE ENTRY(1) ALTRET;
      928     2161    1   DCL HFF$WRITE1 ENTRY(1) ALTRET;
      929     2162        /**/
      930     2163        %INCLUDE J_ERRSET_C;
      931     2183        %INCLUDE UD_ERRORS_C;
      932     2225        %INCLUDE UD_SEV_C;
      933     2239        %ERRCODE (NAME=ENOTAUTH,FCG#='2515'O,MID#='24'O,COD#=%E$NOTAUTH);
      934     2247        %ERRCODE (NAME=ENOTPURCHASED,FCG#='0000'O,MID#='00'O,COD#=%E$NOTPURCHASED,SEV#=
              2247            SEV_CONT#);
      935     2255        /**/
      936     2256        %EJECT;
PL6.E3A0      #003=UMT$MONINFO File=UMT$TIME.:E05TSI                             WED 07/30/97 07:02 Page:173
      937     2257    1        PRIV = B$JIT.PRIV.ACTIVE & (%PR_SPCLMM#|%PR_EXMM#);
      938     2258    1        CALL HFF$NILERASE(B$PS0$) ALTRET(NO_SITEINFO);
      939     2259    1        B_SITEINFO.ANSPROT#=FT_PROT;
      940     2260    1        B_SITEINFO.TIMEZONE#=UMT_TIMEZONE;
      941     2261    1        B_SITEINFO.UTC_OFFSET#=UMT_UTC_OFFSET;
      942     2262    1        VLR_SITEINFO=B_SITEINFO;
      943     2263
      944     2264    1   NO_SITEINFO: ;
      945     2265
      946     2266    1        CALL HFF$NILERASE(B$PS1$) ALTRET(NO_MONINFO);
      947     2267    1        IF NOT PRIV THEN GOTO NOT_PRIV;
      948     2268    1        B_MONINFO.ACORE# = MM_FPPC + MM_AUTO + MM_CGQD.FPPC + FMC_CACHEPGCNT;
      949     2269    1        B_MONINFO.PCORE#=MM_PCORE - MM_GAPSZ;
      950     2270    1        VLR_MONINFO=B_MONINFO;
      951     2271
      952     2272    1   NO_MONINFO: ;
      953     2273
      954     2274    1        CALL HFF$NILERASE(B$PS2$) ALTRET(NO_MONPTRS);
      955     2275    1        IF NOT PRIV THEN GOTO NOT_PRIV;
      956     2276    1        VLR_MONPTRS=B_MONPTRS;
      957     2277
      958     2278    1   NO_MONPTRS: ;
      959     2279
      960     2280    1        CALL HFF$NILERASE(B$PS3$) ALTRET(NO_SYMBINFO);
      961     2281    1        IF NOT PRIV THEN GOTO NOT_PRIV;
      962     2282    1        VLR_SYMBINFO=FO_SYMBINFO;
      963     2283
      964     2284    1   NO_SYMBINFO: ;
      965     2285
      966     2286    1        CALL HFF$NILERASE(B$PS4$) ALTRET(NO_SPINFO);
      967     2287    1        IF (B$PS4$->B$AWORD & SP_INFO) ~= B$PS4$->B$AWORD
      968     2288    1        THEN B$JIT.ERR=ENOTPURCHASED;
      969     2289
      970     2290        /*E*    ERROR: -E$NOTPURCHASED-0
      971     2291         MESSAGE: That separately priced software has not been purchased by your installatio
              2291        n.
      972     2292        */
PL6.E3A0      #003=UMT$MONINFO File=UMT$TIME.:E05TSI                             WED 07/30/97 07:02 Page:174
      973     2293
      974     2294    1        CALL HFF$WRITE1(B$PS4$) ALTRET(NO_SPINFO);
      975     2295    1        B$PS4$->B$AWORD = (B$PS4$->B$AWORD & SP_INFO);
      976     2296
      977     2297    1   NO_SPINFO: ;
      978     2298
      979     2299
      980     2300    2        CALL HFF$NILERASE(B$PS5$) WHENRETURN DO;
      981     2301    2           HEADER = K_HEADER;
      982     2302    2           END;
      983     2303
      984     2304    1        RETURN;
      985     2305        /**/
      986     2306    1   NOT_PRIV: ;
      987     2307    1        B$JIT.ERR=ENOTAUTH;
      988     2308        /*E*    ERROR:      UMT-E$NOTAUTH
      989     2309                MESSAGE:    Insufficient privilege for this PMME.
      990     2310        */
      991     2311    1        RETURN;
      992     2312    1   END UMT$MONINFO;

PL6.E3A0      #003=UMT$MONINFO File=UMT$TIME.:E05TSI                             WED 07/30/97 07:02 Page:175
--  Include file information  --

   UD_SEV_C.:E05TOU  is referenced.
   UD_ERRORS_C.:E05TOU  is referenced.
   J_ERRSET_C.:E05TOU  is referenced.
   B$JIT_C.:E05TOU  is referenced.
   B$JIT.:E05TOU  cannot be made into a system file and is referenced.
   UMT_CNTRL_R.:E05TOU  cannot be made into a system file and is referenced.
   FM_CACHE_R.:E05TOU  cannot be made into a system file and is referenced.
   MM_MACRO_M.:E05TOU  is referenced.
   B_STRINGS_C.:E05TOU  is referenced.
   MM$SYSGEN.:E05TOU  is referenced.
   M_INFO_C.:E05TOU  is referenced.
   MM_DATA_R.:E05TOU  cannot be made into a system file and is referenced.
   UM_CP6.:E05TOU  is referenced.
      No diagnostics issued in procedure UMT$MONINFO.

   Procedure UMT$MONINFO requires 95 words for executable code.
   Procedure UMT$MONINFO requires 4 words of local(AUTO) storage.

    No errors detected in file UMT$TIME.:E05TSI    .

PL6.E3A0      #003=UMT$MONINFO File=UMT$TIME.:E05TSI                             WED 07/30/97 07:02 Page:176

 Object Unit name= UMT$MONINFO                                File name= UMT$TIME.:E05TOU
 UTS= JUL 30 '97 07:02:24.12 WED                              Compiler= PL-6/E31         Sev=      00
 SharedLib= :SHARED_SYSTEM                                    Alt SharedLib=


    ****  Control sections  ****

 Sect   Type Bound  Init  Size OctSiz  Section name(segment info)
    0  RoData even  UTS      3      3  UMT$MONINFO
    1   Proc  even  none    95    137  UMT$MONINFO
    2  RoData even  none     6      6  UMT$MONINFO

    ****  Entry defs  ****

                              Check   Calling
                             calling  sequence
  Sect OctLoc Primary Altret sequence   type   Parms  Name
     1      0   yes            yes      Std        0  UMT$MONINFO

  ****  Data defs  ****

 Sect OctLoc  Name                           Sect OctLoc  Name
    0      0  SP_INFO

  ****  Entry refs  ****

         Check        Calling
        calling       sequence
Altret sequence SRef   type   Args  Name
 yes     yes           Std       1 HFF$NILERASE
 yes     yes           Std       1 HFF$WRITE1
                       Std       0 B_CONSPOOL_D
                       nStd      0 X66_AUTO_0
                       nStd      0 X66_ARET
PL6.E3A0      #003=UMT$MONINFO File=UMT$TIME.:E05TSI                             WED 07/30/97 07:02 Page:177

  ****  Data refs  ****

  Flags:  r = read only, s = secondary
Flgs Name                             Flgs Name                             Flgs Name
     B_SITEINFO                            B_MONINFO                             B_MONPTRS
     FO_SYMBINFO                           MM_FPPC                               MM_AUTO
r    MM_BYP$                               MM_PCORE                              MM_GAPSZ
     MM_CGQD                               FMC_CACHEPGCNT                        FMC_CACHEPGCNT$
     UMT_TIMEZONE                          UMT_UTC_OFFSET                        B$JIT$
     FT_PROT                               B$PS0$                                B$PS1$
     B$PS2$                                B$PS3$                                B$PS4$
     B$PS5$                                K_HEADER                              B_VECTNIL

  ****  Segment refs  ****

  Flags:  r = read only, s = secondary
Flgs Name                             Flgs Name                             Flgs Name
     ISSID
PL6.E3A0      #003=UMT$MONINFO File=UMT$TIME.:E05TSI                             WED 07/30/97 07:02 Page:178


      887        1        /*T***********************************************************/
      888        2        /*T*                                                         */
      889        3        /*T* Copyright (c) Bull HN Information Systems Inc., 1997    */
      890        4        /*T*                                                         */
      891        5        /*T***********************************************************/
      892        6        UMT$MONINFO: PROC;

      6  1 000000   000000 700200 xent  UMT$MONINFO  TSX0  ! X66_AUTO_0
         1 000001   000004 000000                    ZERO    4,0

      893        7        %INCLUDE UM_CP6;
      894      859        %VLR_SITEINFO (FPTN=B_SITEINFO,STCLASS=SYMREF);
      895      878        %VLR_SITEINFO (FPTN=VLR_SITEINFO,STCLASS="BASED(B$PS0$)");
      896      897        %VLR_MONINFO (FPTN=B_MONINFO,STCLASS=SYMREF);
      897      915        %VLR_MONINFO (FPTN=VLR_MONINFO,STCLASS="BASED(B$PS1$)");
      898      933        %VLR_MONPTRS (FPTN=B_MONPTRS,STCLASS=SYMREF);
      899      948        %VLR_MONPTRS (FPTN=VLR_MONPTRS,STCLASS="BASED(B$PS2$)");
      900      963        %VLR_SYMBINFO (FPTN=FO_SYMBINFO,STCLASS=SYMREF);
      901      979        %VLR_SYMBINFO (FPTN=VLR_SYMBINFO,STCLASS="BASED(B$PS3$)");
      902      995        /**/
      903      996        %INCLUDE MM_DATA_R;
      904     1516        %INCLUDE FM_CACHE_R;
      905     1528        %INCLUDE UMT_CNTRL_R;
      906     1537        %INCLUDE B$JIT;
      907     2140    1   DCL B$JIT$ PTR SYMREF;
      908     2141    1   DCL FT_PROT SBIN SYMREF;
      909     2142        /**/
      910     2143    1   DCL SP_INFO BIT(36) CONSTANT SYMDEF INIT('777777777777'O);
      911     2144    1   DCL B$AWORD BIT(36) BASED ALIGNED;
      912     2145    1   DCL PRIV BIT(36);
      913     2146        /**/
      914     2147    1   DCL B$PS0$ PTR SYMREF;
      915     2148    1   DCL B$PS1$ PTR SYMREF;
      916     2149    1   DCL B$PS2$ PTR SYMREF;
      917     2150    1   DCL B$PS3$ PTR SYMREF;
      918     2151    1   DCL B$PS4$ PTR SYMREF;
PL6.E3A0      #003=UMT$MONINFO File=UMT$TIME.:E05TSI                             WED 07/30/97 07:02 Page:179
      919     2152    1   DCL B$PS5$ PTR SYMREF;
      920     2153    1   DCL 1 K_HEADER SYMREF,
      921     2154    1          2 CNT UBIN BYTE UNAL,
      922     2155    1          2 TEXT CHAR(K_HEADER.CNT) UNAL;
      923     2156    1   DCL 1 HEADER BASED(B$PS5$),
      924     2157    1          2 CNT UBIN BYTE UNAL,
      925     2158    1          2 TEXT CHAR(K_HEADER.CNT) UNAL;
      926     2159        /**/
      927     2160    1   DCL HFF$NILERASE ENTRY(1) ALTRET;
      928     2161    1   DCL HFF$WRITE1 ENTRY(1) ALTRET;
      929     2162        /**/
      930     2163        %INCLUDE J_ERRSET_C;
      931     2183        %INCLUDE UD_ERRORS_C;
      932     2225        %INCLUDE UD_SEV_C;
      933     2239        %ERRCODE (NAME=ENOTAUTH,FCG#='2515'O,MID#='24'O,COD#=%E$NOTAUTH);
      934     2247        %ERRCODE (NAME=ENOTPURCHASED,FCG#='0000'O,MID#='00'O,COD#=%E$NOTPURCHASED,SEV#=
              2247            SEV_CONT#);
      935     2255        /**/
      936     2256        %EJECT;
PL6.E3A0      #003=UMT$MONINFO File=UMT$TIME.:E05TSI                             WED 07/30/97 07:02 Page:180
      937     2257    1        PRIV = B$JIT.PRIV.ACTIVE & (%PR_SPCLMM#|%PR_EXMM#);

   2257  1 000002   000003 236000 xsym               LDQ     B_VECTNIL+3
         1 000003   000004 276000 xsym               ORQ     B_VECTNIL+4
         1 000004   000000 470400 xsym               LDP0    B$JIT$
         1 000005   000013 376100                    ANQ     11,,PR0
         1 000006   200003 756100                    STQ     PRIV,,AUTO

      938     2258    1        CALL HFF$NILERASE(B$PS0$) ALTRET(NO_SITEINFO);

   2258  1 000007   000000 630400 2                  EPPR0   0
         1 000010   000017 631400 xsym               EPPR1   B_VECTNIL+15
         1 000011   000000 701000 xent               TSX1    HFF$NILERASE
         1 000012   000025 702000 1                  TSX2    NO_SITEINFO

      939     2259    1        B_SITEINFO.ANSPROT#=FT_PROT;

   2259  1 000013   000000 235000 xsym               LDA     FT_PROT
         1 000014   000063 755000 xsym               STA     B_SITEINFO+51

      940     2260    1        B_SITEINFO.TIMEZONE#=UMT_TIMEZONE;

   2260  1 000015   000000 236000 xsym               LDQ     UMT_TIMEZONE
         1 000016   000071 756000 xsym               STQ     B_SITEINFO+57

      941     2261    1        B_SITEINFO.UTC_OFFSET#=UMT_UTC_OFFSET;

   2261  1 000017   000000 235000 xsym               LDA     UMT_UTC_OFFSET
         1 000020   000072 755000 xsym               STA     B_SITEINFO+58

      942     2262    1        VLR_SITEINFO=B_SITEINFO;

   2262  1 000021   000000 470400 xsym               LDP0    B$PS0$
         1 000022   000100 100400                    MLR     fill='000'O
         1 000023   000000 000370 xsym               ADSC9   B_SITEINFO               cn=0,n=248
         1 000024   000000 000370                    ADSC9   0,,PR0                   cn=0,n=248

PL6.E3A0      #003=UMT$MONINFO File=UMT$TIME.:E05TSI                             WED 07/30/97 07:02 Page:181
   2262  1 000025                       NO_SITEINFO  null
      943     2263
      944     2264    1   NO_SITEINFO: ;
      945     2265
      946     2266    1        CALL HFF$NILERASE(B$PS1$) ALTRET(NO_MONINFO);

   2266  1 000025   000001 630400 2                  EPPR0   1
         1 000026   000017 631400 xsym               EPPR1   B_VECTNIL+15
         1 000027   000000 701000 xent               TSX1    HFF$NILERASE
         1 000030   000047 702000 1                  TSX2    NO_MONINFO

      947     2267    1        IF NOT PRIV THEN GOTO NOT_PRIV;

   2267  1 000031   200003 235100                    LDA     PRIV,,AUTO
         1 000032   000133 600000 1                  TZE     NOT_PRIV

      948     2268    1        B_MONINFO.ACORE# = MM_FPPC + MM_AUTO + MM_CGQD.FPPC + FMC_CACHEPGCNT;

   2268  1 000033   000000 236000 xsym               LDQ     MM_FPPC
         1 000034   000000 036000 xsym               ADLQ    MM_AUTO
         1 000035   000000 036000 xsym               ADLQ    MM_CGQD
         1 000036   000000 036000 xsym               ADLQ    FMC_CACHEPGCNT
         1 000037   000003 756000 xsym               STQ     B_MONINFO+3

      949     2269    1        B_MONINFO.PCORE#=MM_PCORE - MM_GAPSZ;

   2269  1 000040   000000 236000 xsym               LDQ     MM_PCORE
         1 000041   000000 136000 xsym               SBLQ    MM_GAPSZ
         1 000042   000004 756000 xsym               STQ     B_MONINFO+4

      950     2270    1        VLR_MONINFO=B_MONINFO;

   2270  1 000043   000000 470400 xsym               LDP0    B$PS1$
         1 000044   000100 100400                    MLR     fill='000'O
         1 000045   000000 000074 xsym               ADSC9   B_MONINFO                cn=0,n=60
         1 000046   000000 000074                    ADSC9   0,,PR0                   cn=0,n=60

PL6.E3A0      #003=UMT$MONINFO File=UMT$TIME.:E05TSI                             WED 07/30/97 07:02 Page:182
   2270  1 000047                       NO_MONINFO   null
      951     2271
      952     2272    1   NO_MONINFO: ;
      953     2273
      954     2274    1        CALL HFF$NILERASE(B$PS2$) ALTRET(NO_MONPTRS);

   2274  1 000047   000002 630400 2                  EPPR0   2
         1 000050   000017 631400 xsym               EPPR1   B_VECTNIL+15
         1 000051   000000 701000 xent               TSX1    HFF$NILERASE
         1 000052   000061 702000 1                  TSX2    NO_MONPTRS

      955     2275    1        IF NOT PRIV THEN GOTO NOT_PRIV;

   2275  1 000053   200003 235100                    LDA     PRIV,,AUTO
         1 000054   000133 600000 1                  TZE     NOT_PRIV

      956     2276    1        VLR_MONPTRS=B_MONPTRS;

   2276  1 000055   000000 470400 xsym               LDP0    B$PS2$
         1 000056   000100 100400                    MLR     fill='000'O
         1 000057   000000 000064 xsym               ADSC9   B_MONPTRS                cn=0,n=52
         1 000060   000000 000064                    ADSC9   0,,PR0                   cn=0,n=52

   2276  1 000061                       NO_MONPTRS   null
      957     2277
      958     2278    1   NO_MONPTRS: ;
      959     2279
      960     2280    1        CALL HFF$NILERASE(B$PS3$) ALTRET(NO_SYMBINFO);

   2280  1 000061   000003 630400 2                  EPPR0   3
         1 000062   000017 631400 xsym               EPPR1   B_VECTNIL+15
         1 000063   000000 701000 xent               TSX1    HFF$NILERASE
         1 000064   000073 702000 1                  TSX2    NO_SYMBINFO

      961     2281    1        IF NOT PRIV THEN GOTO NOT_PRIV;

   2281  1 000065   200003 235100                    LDA     PRIV,,AUTO
PL6.E3A0      #003=UMT$MONINFO File=UMT$TIME.:E05TSI                             WED 07/30/97 07:02 Page:183
         1 000066   000133 600000 1                  TZE     NOT_PRIV

      962     2282    1        VLR_SYMBINFO=FO_SYMBINFO;

   2282  1 000067   000000 470400 xsym               LDP0    B$PS3$
         1 000070   000100 100400                    MLR     fill='000'O
         1 000071   000000 000200 xsym               ADSC9   FO_SYMBINFO              cn=0,n=128
         1 000072   000000 000200                    ADSC9   0,,PR0                   cn=0,n=128

   2282  1 000073                       NO_SYMBINFO  null
      963     2283
      964     2284    1   NO_SYMBINFO: ;
      965     2285
      966     2286    1        CALL HFF$NILERASE(B$PS4$) ALTRET(NO_SPINFO);

   2286  1 000073   000004 630400 2                  EPPR0   4
         1 000074   000017 631400 xsym               EPPR1   B_VECTNIL+15
         1 000075   000000 701000 xent               TSX1    HFF$NILERASE
         1 000076   000117 702000 1                  TSX2    NO_SPINFO

      967     2287    1        IF (B$PS4$->B$AWORD & SP_INFO) ~= B$PS4$->B$AWORD

   2287  1 000077   000000 470400 xsym               LDP0    B$PS4$
         1 000100   000000 236100                    LDQ     0,,PR0
         1 000101   000000 376000 0                  ANQ     SP_INFO
         1 000102   000000 116100                    CMPQ    0,,PR0
         1 000103   000107 600000 1                  TZE     s:2294

      968     2288    1        THEN B$JIT.ERR=ENOTPURCHASED;

   2288  1 000104   000002 236000 0                  LDQ     ENOTPURCHASED
         1 000105   000000 471400 xsym               LDP1    B$JIT$
         1 000106   100012 756100                    STQ     10,,PR1

      969     2289
      970     2290        /*E*    ERROR: -E$NOTPURCHASED-0
      971     2291        MESSAGE: That separately priced software has not been purchased by your installatio
PL6.E3A0      #003=UMT$MONINFO File=UMT$TIME.:E05TSI                             WED 07/30/97 07:02 Page:184
              2291        n.
      972     2292        */
      973     2293
      974     2294    1        CALL HFF$WRITE1(B$PS4$) ALTRET(NO_SPINFO);

   2294  1 000107   000004 630400 2                  EPPR0   4
         1 000110   000017 631400 xsym               EPPR1   B_VECTNIL+15
         1 000111   000000 701000 xent               TSX1    HFF$WRITE1
         1 000112   000117 702000 1                  TSX2    NO_SPINFO

      975     2295    1        B$PS4$->B$AWORD = (B$PS4$->B$AWORD & SP_INFO);

   2295  1 000113   000000 470400 xsym               LDP0    B$PS4$
         1 000114   000000 236100                    LDQ     0,,PR0
         1 000115   000000 376000 0                  ANQ     SP_INFO
         1 000116   000000 756100                    STQ     0,,PR0

   2295  1 000117                       NO_SPINFO    null
      976     2296
      977     2297    1   NO_SPINFO: ;
      978     2298
      979     2299
      980     2300    2        CALL HFF$NILERASE(B$PS5$) WHENRETURN DO;

   2300  1 000117   000005 630400 2                  EPPR0   5
         1 000120   000017 631400 xsym               EPPR1   B_VECTNIL+15
         1 000121   000000 701000 xent               TSX1    HFF$NILERASE
         1 000122   000132 702000 1                  TSX2    s:2304

      981     2301    2           HEADER = K_HEADER;

   2301  1 000123   000000 236000 xsym               LDQ     K_HEADER
         1 000124   000033 772000                    QRL     27
         1 000125   000001 620006                    EAX0    1,QL
         1 000126   000000 470400 xsym               LDP0    B$PS5$
         1 000127   000140 100440                    MLR     fill='000'O
         1 000130   000000 000010 xsym               ADSC9   K_HEADER                 cn=0,n=*X0
PL6.E3A0      #003=UMT$MONINFO File=UMT$TIME.:E05TSI                             WED 07/30/97 07:02 Page:185
         1 000131   000000 000010                    ADSC9   0,,PR0                   cn=0,n=*X0

      982     2302    2           END;

      983     2303
      984     2304    1        RETURN;

   2304  1 000132   000000 702200 xent               TSX2  ! X66_ARET

   2295  1 000133                       NOT_PRIV     null
      985     2305        /**/
      986     2306    1   NOT_PRIV: ;
      987     2307    1        B$JIT.ERR=ENOTAUTH;

   2307  1 000133   000001 236000 0                  LDQ     ENOTAUTH
         1 000134   000000 470400 xsym               LDP0    B$JIT$
         1 000135   000012 756100                    STQ     10,,PR0

      988     2308        /*E*    ERROR:      UMT-E$NOTAUTH
      989     2309                MESSAGE:    Insufficient privilege for this PMME.
      990     2310        */
      991     2311    1        RETURN;

   2311  1 000136   000000 702200 xent               TSX2  ! X66_ARET

SP_INFO
 Sect OctLoc
   0     000   777777 777777                                                    ....

ENOTAUTH
 Sect OctLoc
   0     001   251524 406254                                                    ....

ENOTPURCHASED
 Sect OctLoc
   0     002   000000 407010                                                    ....

PL6.E3A0      #003=UMT$MONINFO File=UMT$TIME.:E05TSI                             WED 07/30/97 07:02 Page:186
(unnamed)
 Sect OctLoc
   2     000   000000 006000   000000 006000   000000 006000   000000 006000    ................
   2     004   000000 006000   000000 006000                                    ........
      992     2312    1   END UMT$MONINFO;

PL6.E3A0      #003=UMT$MONINFO File=UMT$TIME.:E05TSI                             WED 07/30/97 07:02 Page:187
--  Include file information  --

   UD_SEV_C.:E05TOU  is referenced.
   UD_ERRORS_C.:E05TOU  is referenced.
   J_ERRSET_C.:E05TOU  is referenced.
   B$JIT_C.:E05TOU  is referenced.
   B$JIT.:E05TOU  cannot be made into a system file and is referenced.
   UMT_CNTRL_R.:E05TOU  cannot be made into a system file and is referenced.
   FM_CACHE_R.:E05TOU  cannot be made into a system file and is referenced.
   MM_MACRO_M.:E05TOU  is referenced.
   B_STRINGS_C.:E05TOU  is referenced.
   MM$SYSGEN.:E05TOU  is referenced.
   M_INFO_C.:E05TOU  is referenced.
   MM_DATA_R.:E05TOU  cannot be made into a system file and is referenced.
   UM_CP6.:E05TOU  is referenced.
      No diagnostics issued in procedure UMT$MONINFO.
PL6.E3A0      #003=UMT$MONINFO File=UMT$TIME.:E05TSI                             WED 07/30/97 07:02 Page:188

 **** Variables and constants ****

  ****  Section 000 RoData UMT$MONINFO

  ****  Scalars and arrays  ****
OctLoc.c.b A Datatyp(siz) R M Lvl/name                 OctLoc.c.b A Datatyp(siz) R M Lvl/name

     1-0-0/b STRC        r     1 ENOTAUTH                   2-0-0/b STRC        r     1 ENOTPURCHASED
     0-0-0/b BIT         r     1 SP_INFO

  ****  Auto variables  ****

  ****  Scalars and arrays  ****
OctLoc.c.b A Datatyp(siz) R M Lvl/name                 OctLoc.c.b A Datatyp(siz) R M Lvl/name

     3-0-0/b BIT         r     1 PRIV

  ****  SYMREF variables  ****

  ****  Scalars and arrays  ****
OctLoc.c.b A Datatyp(siz) R M Lvl/name                 OctLoc.c.b A Datatyp(siz) R M Lvl/name

     0-0-0/w PTR         r     1 B$JIT$                     0-0-0/w PTR         r     1 B$PS0$
     0-0-0/w PTR         r     1 B$PS1$                     0-0-0/w PTR         r     1 B$PS2$
     0-0-0/w PTR         r     1 B$PS3$                     0-0-0/w PTR         r     1 B$PS4$
     0-0-0/w PTR         r     1 B$PS5$                     0-0-0/d STRC(540)   r     1 B_MONINFO
     0-0-0/d STRC(468)   r     1 B_MONPTRS                  0-0-0/d STRC(2232)  r     1 B_SITEINFO
     0-0-0/w SBIN        r     1 FMC_CACHEPGCNT             0-0-0/w PTR         r     1 FMC_CACHEPGCNT$
     0-0-0/w STRC(1152)  r     1 FO_SYMBINFO                0-0-0/w SBIN        r     1 FT_PROT
     0-0-0/c ASTR(9)     r     1 K_HEADER                   0-0-0/w SBIN        r     1 MM_AUTO
     0-0-0/w PTR         r     1 MM_BYP$                    0-0-0/w STRC(288)   r     1 MM_CGQD
     0-0-0/w SBIN        r     1 MM_FPPC                    0-0-0/w SBIN        r     1 MM_GAPSZ
     0-0-0/w SBIN        r     1 MM_PCORE                   0-0-0/c CHAR(4)     r     1 UMT_TIMEZONE
     0-0-0/w SBIN        r     1 UMT_UTC_OFFSET

  ****  BASED and DCB variables  ****

PL6.E3A0      #003=UMT$MONINFO File=UMT$TIME.:E05TSI                             WED 07/30/97 07:02 Page:189
  ****  Scalars and arrays  ****
OctLoc.c.b A Datatyp(siz) R M Lvl/name                 OctLoc.c.b A Datatyp(siz) R M Lvl/name

     0-0-0/w BIT         r     1 B$AWORD                    0-0-0/d STRC(8856)  r     1 B$JIT
     0-0-0/c ASTR(9)     r     1 HEADER                     0-0-0/d STRC(540)   r     1 VLR_MONINFO
     0-0-0/d STRC(468)   r     1 VLR_MONPTRS                0-0-0/d STRC(2232)  r     1 VLR_SITEINFO
     0-0-0/w STRC(1152)  r     1 VLR_SYMBINFO


   Procedure UMT$MONINFO requires 95 words for executable code.
   Procedure UMT$MONINFO requires 4 words of local(AUTO) storage.

    No errors detected in file UMT$TIME.:E05TSI    .
PL6.E3A0      #003=UMT$MONINFO File=UMT$TIME.:E05TSI                             WED 07/30/97 07:02 Page:190
          *** CROSS REFERENCE LISTING ***
**     DENOTES     IDENTIFIER DEFINITION
<<                 IDENTIFIER'S VALUE SET
>>                 IDENTIFIER'S VALUE USED
<>                 IDENTIFIER SET AND/OR USED
--                 IDENTIFIER REFERENCED
PL6.E3A0      #003=UMT$MONINFO File=UMT$TIME.:E05TSI                             WED 07/30/97 07:02 Page:191
          MINI XREF LISTING

B$AWORD
      2144**DCL      2287>>IF       2287>>IF       2295<<ASSIGN   2295>>ASSIGN
B$JIT.CPFLAGS1.SLEAZE
      1958**DCL      1958--REDEF
B$JIT.ERR
      1864**DCL      2288<<ASSIGN   2307<<ASSIGN
B$JIT.ERR.MID
      1865**DCL      1865--REDEF
B$JIT.JRESPEAK
      2026**DCL      2027--REDEF
B$JIT.ORIGINATOR_PORT.FROM_CR
      2135**DCL      2135--REDEF    2136--REDEF
B$JIT.PNR
      2039**DCL      2039--REDEF
B$JIT.PRIV.ACTIVE
      1865**DCL      2257>>ASSIGN
B$JIT.TSLINE
      2133**DCL      2134--REDEF
B$JIT$
      2140**DCL      1859--IMP-PTR  2257>>ASSIGN   2288>>ASSIGN   2307>>ASSIGN
B$PS0$
      2147**DCL       889--IMP-PTR  2258<>CALL     2262>>ASSIGN
B$PS1$
      2148**DCL       926--IMP-PTR  2266<>CALL     2270>>ASSIGN
B$PS2$
      2149**DCL       959--IMP-PTR  2274<>CALL     2276>>ASSIGN
B$PS3$
      2150**DCL       990--IMP-PTR  2280<>CALL     2282>>ASSIGN
B$PS4$
      2151**DCL      2286<>CALL     2287>>IF       2287>>IF       2294<>CALL     2295>>ASSIGN   2295>>ASSIGN
B$PS5$
      2152**DCL      2156--IMP-PTR  2300<>CALL     2301>>ASSIGN
PL6.E3A0      #003=UMT$MONINFO File=UMT$TIME.:E05TSI                             WED 07/30/97 07:02 Page:192
B_MONINFO
       908**DCL      2270>>ASSIGN
B_MONINFO.ACORE#
       909**DCL      2268<<ASSIGN
B_MONINFO.PCORE#
       909**DCL      2269<<ASSIGN
B_MONPTRS
       944**DCL      2276>>ASSIGN
B_SITEINFO
       870**DCL      2262>>ASSIGN
B_SITEINFO.ANSPROT#
       872**DCL      2259<<ASSIGN
B_SITEINFO.TIMEZONE#
       875**DCL      2260<<ASSIGN
B_SITEINFO.UTC_OFFSET#
       876**DCL      2261<<ASSIGN
ENOTAUTH
      2240**DCL      2307>>ASSIGN
ENOTPURCHASED
      2248**DCL      2288>>ASSIGN
FMC_CACHEPGCNT
      1525**DCL      2268>>ASSIGN
FMC_CACHEPGCNT$
      1525**DCL      1525--IMP-PTR  1525--REDEF
FO_SYMBINFO
       974**DCL      2282>>ASSIGN
FT_PROT
      2141**DCL      2259>>ASSIGN
HEADER
      2156**DCL      2301<<ASSIGN
HFF$NILERASE
      2160**DCL-ENT  2258--CALL     2266--CALL     2274--CALL     2280--CALL     2286--CALL     2300--CALL
HFF$WRITE1
      2161**DCL-ENT  2294--CALL
K_HEADER
      2153**DCL      2301>>ASSIGN
PL6.E3A0      #003=UMT$MONINFO File=UMT$TIME.:E05TSI                             WED 07/30/97 07:02 Page:193
K_HEADER.CNT
      2154**DCL      2155--IMP-SIZ  2158--IMP-SIZ  2301>>ASSIGN   2301>>ASSIGN
MM$DESC.BOUND
      1467**DCL      1468--REDEF
MM$DESC.FLGS
      1468**DCL      1468--REDEF
MM$PPUT.USER#
      1456**DCL      1456--REDEF
MM_AUTO
      1386**DCL      2268>>ASSIGN
MM_BYP$
      1387**DCL      1387--IMP-PTR
MM_CGQD.FPPC
      1409**DCL      2268>>ASSIGN
MM_FPPC
      1384**DCL      2268>>ASSIGN
MM_GAPSZ
      1389**DCL      2269>>ASSIGN
MM_PCORE
      1389**DCL      2269>>ASSIGN
NOT_PRIV
      2295**LABEL    2267--GOTO     2275--GOTO     2281--GOTO
NO_MONINFO
      2270**LABEL    2266--CALLALT
NO_MONPTRS
      2276**LABEL    2274--CALLALT
NO_SITEINFO
      2262**LABEL    2258--CALLALT
NO_SPINFO
      2295**LABEL    2286--CALLALT  2294--CALLALT
NO_SYMBINFO
      2282**LABEL    2280--CALLALT
PRIV
      2145**DCL      2257<<ASSIGN   2267>>IF       2275>>IF       2281>>IF
SP_INFO
      2143**DCL      2287>>IF       2295>>ASSIGN
PL6.E3A0      #003=UMT$MONINFO File=UMT$TIME.:E05TSI                             WED 07/30/97 07:02 Page:194
UMT_TIMEZONE
      1536**DCL      2260>>ASSIGN
UMT_UTC_OFFSET
      1536**DCL      2261>>ASSIGN
VLR_MONINFO
       926**DCL      2270<<ASSIGN
VLR_MONPTRS
       959**DCL      2276<<ASSIGN
VLR_SITEINFO
       889**DCL      2262<<ASSIGN
VLR_SYMBINFO
       990**DCL      2282<<ASSIGN
