VERSION E05

PL6.E3A0      #001=UQ_DATA_D File=UQ_DATA_D.:E05TSI                              WED 07/30/97 07:03 Page:1
        1        1        /*M* UQ_DATA_D ENQ/DEQ Data structures               */
        2        2        /*T***********************************************************/
        3        3        /*T*                                                         */
        4        4        /*T* Copyright (c) Bull HN Information Systems Inc., 1997    */
        5        5        /*T*                                                         */
        6        6        /*T***********************************************************/
        7        7        UQ_DATA_D:PROC;
        8        8    1   DCL 1 U_AVAIL_INIT CONSTANT SYMDEF,
        9        9    1         2 TYPE UBIN(9)UNAL INIT(0),2 * BIT(27)INIT('0'B);
       10       10    1   DCL 1 U_QID_INIT CONSTANT SYMDEF,
       11       11    1         2 TYPE UBIN(9)UNAL INIT(24),2 * BIT(27)INIT('0'B);
       12       12    1   DCL 1 U_RNAME1_INIT CONSTANT SYMDEF,
       13       13    1         2 TYPE UBIN(9)UNAL INIT(32),2 * BIT(27)INIT('0'B);
       14       14    1   DCL 1 U_RNAME2_INIT CONSTANT SYMDEF,
       15       15    1         2 TYPE UBIN(9)UNAL INIT(33),2 * BIT(27)INIT('0'B);
       16       16    1   DCL 1 U_RNAME3_INIT CONSTANT SYMDEF,
       17       17    1         2 TYPE UBIN(9)UNAL INIT(34),2 * BIT(27)INIT('0'B);
       18       18    1   DCL 1 U_QENTRY_INIT CONSTANT SYMDEF,
       19       19    1         2 TYPE UBIN(9)UNAL INIT(40),2 * BIT(27)INIT('0'B);
       20       20    1   DCL 1 U_BASE CONSTANT SYMDEF,           /* POINTER TO BASE OF ENQ/DEQ DATA    */
       21       21    1         2 PAGE# UBIN(8) UNAL INIT(0),
       22       22    1         2 WORD# UBIN(10) UNAL INIT(0),
       23       23    1         2 BYTE# UBIN(2) UNAL INIT(0),
       24       24    1         2 BIT# UBIN(4) UNAL INIT(0),
       25       25    1         2 SEGID BIT(12)INIT('6006'O);
       26       26    1   DCL U_BASE$ REDEF U_BASE PTR;           /* POINTER TO BASE OF ENQ/DEQ DATA    */
       27       27    1   DCL U_LOCK BIT(72) STATIC SYMDEF DALIGNED INIT('1'B);
       28       28    1   END UQ_DATA_D;

PL6.E3A0      #001=UQ_DATA_D File=UQ_DATA_D.:E05TSI                              WED 07/30/97 07:03 Page:2
      No diagnostics issued in procedure UQ_DATA_D.

   No code generated for procedure UQ_DATA_D .
   Procedure UQ_DATA_D requires 4 words of local(AUTO) storage.

    No errors detected in file UQ_DATA_D.:E05TSI    .

PL6.E3A0      #001=UQ_DATA_D File=UQ_DATA_D.:E05TSI                              WED 07/30/97 07:03 Page:3

 Object Unit name= UQ_DATA_D                                  File name= UQ_DATA_D.:E05TOU
 UTS= JUL 30 '97 07:03:58.84 WED                              Compiler= PL-6/E31         Sev=      00
 SharedLib= :SHARED_SYSTEM                                    Alt SharedLib=


    ****  Control sections  ****

 Sect   Type Bound  Init  Size OctSiz  Section name(segment info)
    0  RoData even  UTS      7      7  UQ_DATA_D
    1   Data  even  none     2      2  UQ_DATA_D
    2   Proc  even  none     0      0  UQ_DATA_D

    ****  Entry defs  ****

                              Check   Calling
                             calling  sequence
  Sect OctLoc Primary Altret sequence   type   Parms  Name
     2      0   yes            yes     ~proc       0  UQ_DATA_D

  ****  Data defs  ****

 Sect OctLoc  Name                           Sect OctLoc  Name
    0      0  U_AVAIL_INIT                       0      1  U_QID_INIT
    0      2  U_RNAME1_INIT                      0      3  U_RNAME2_INIT
    0      4  U_RNAME3_INIT                      0      5  U_QENTRY_INIT
    0      6  U_BASE                             1      0  U_LOCK
PL6.E3A0      #001=UQ_DATA_D File=UQ_DATA_D.:E05TSI                              WED 07/30/97 07:03 Page:4


(unnamed)
 Sect OctLoc
   0     000   000000 000000   030000 000000   040000 000000   041000 000000    ........ ...!...
   0     004   042000 000000   050000 000000   000000 006006                    "...(.......

(unnamed)
 Sect OctLoc
   1     000   400000 000000   000000 000000                                    ........
        1        1        /*M* UQ_DATA_D ENQ/DEQ Data structures               */
        2        2        /*T***********************************************************/
        3        3        /*T*                                                         */
        4        4        /*T* Copyright (c) Bull HN Information Systems Inc., 1997    */
        5        5        /*T*                                                         */
        6        6        /*T***********************************************************/
        7        7        UQ_DATA_D:PROC;
        8        8    1   DCL 1 U_AVAIL_INIT CONSTANT SYMDEF,
        9        9    1         2 TYPE UBIN(9)UNAL INIT(0),2 * BIT(27)INIT('0'B);
       10       10    1   DCL 1 U_QID_INIT CONSTANT SYMDEF,
       11       11    1         2 TYPE UBIN(9)UNAL INIT(24),2 * BIT(27)INIT('0'B);
       12       12    1   DCL 1 U_RNAME1_INIT CONSTANT SYMDEF,
       13       13    1         2 TYPE UBIN(9)UNAL INIT(32),2 * BIT(27)INIT('0'B);
       14       14    1   DCL 1 U_RNAME2_INIT CONSTANT SYMDEF,
       15       15    1         2 TYPE UBIN(9)UNAL INIT(33),2 * BIT(27)INIT('0'B);
       16       16    1   DCL 1 U_RNAME3_INIT CONSTANT SYMDEF,
       17       17    1         2 TYPE UBIN(9)UNAL INIT(34),2 * BIT(27)INIT('0'B);
       18       18    1   DCL 1 U_QENTRY_INIT CONSTANT SYMDEF,
       19       19    1         2 TYPE UBIN(9)UNAL INIT(40),2 * BIT(27)INIT('0'B);
       20       20    1   DCL 1 U_BASE CONSTANT SYMDEF,           /* POINTER TO BASE OF ENQ/DEQ DATA    */
       21       21    1         2 PAGE# UBIN(8) UNAL INIT(0),
       22       22    1         2 WORD# UBIN(10) UNAL INIT(0),
       23       23    1         2 BYTE# UBIN(2) UNAL INIT(0),
       24       24    1         2 BIT# UBIN(4) UNAL INIT(0),
       25       25    1         2 SEGID BIT(12)INIT('6006'O);
       26       26    1   DCL U_BASE$ REDEF U_BASE PTR;           /* POINTER TO BASE OF ENQ/DEQ DATA    */
       27       27    1   DCL U_LOCK BIT(72) STATIC SYMDEF DALIGNED INIT('1'B);
       28       28    1   END UQ_DATA_D;
PL6.E3A0      #001=UQ_DATA_D File=UQ_DATA_D.:E05TSI                              WED 07/30/97 07:03 Page:5

PL6.E3A0      #001=UQ_DATA_D File=UQ_DATA_D.:E05TSI                              WED 07/30/97 07:03 Page:6
      No diagnostics issued in procedure UQ_DATA_D.
PL6.E3A0      #001=UQ_DATA_D File=UQ_DATA_D.:E05TSI                              WED 07/30/97 07:03 Page:7

 **** Variables and constants ****


   No code generated for procedure UQ_DATA_D .
   Procedure UQ_DATA_D requires 4 words of local(AUTO) storage.

    No errors detected in file UQ_DATA_D.:E05TSI    .
PL6.E3A0      #001=UQ_DATA_D File=UQ_DATA_D.:E05TSI                              WED 07/30/97 07:03 Page:8
          *** CROSS REFERENCE LISTING ***
**     DENOTES     IDENTIFIER DEFINITION
<<                 IDENTIFIER'S VALUE SET
>>                 IDENTIFIER'S VALUE USED
<>                 IDENTIFIER SET AND/OR USED
--                 IDENTIFIER REFERENCED
PL6.E3A0      #001=UQ_DATA_D File=UQ_DATA_D.:E05TSI                              WED 07/30/97 07:03 Page:9
          MINI XREF LISTING

U_BASE
        20**DCL        26--REDEF
