VERSION E05

PL6.E3A0      #001=UQ_SCRCH_D File=UQ_SCRCH_D.:E05TSI                            WED 07/30/97 07:04 Page:1
        1        1        /*M* ENQ/DEQ screech code data.                                    */
        2        2        /*T***********************************************************/
        3        3        /*T*                                                         */
        4        4        /*T* Copyright (c) Bull HN Information Systems Inc., 1997    */
        5        5        /*T*                                                         */
        6        6        /*T***********************************************************/
        7        7        UQ_SCRCH_D: PROC;
        8        8        %INCLUDE UQ_SCODE_C;
        9       18        %INCLUDE JS_CP6;
       10      436        /**/
       11      437        /**/
       12      438        %VLP_SCREECH(STCLASS=CONSTANT SYMDEF,FPTN=SC_MMERR,
       13      439                CODE=%S$MMERR,
       14      440                FCG=UQ,
       15      441                MID=C);
       16      511        %VLP_SUA(STCLASS=CONSTANT SYMDEF,FPTN=SC_FSERR,
       17      512                CODE=%S$FSERR,
       18      513                FCG=UQ,
       19      514                MID=B,
       20      515                CFUS=YES,ENQ=YES);
       21      585        %VLP_SCREECH(STCLASS=CONSTANT SYMDEF,FPTN=SC_EQERR_B,
       22      586                CODE=%S$EQERR,
       23      587                FCG=UQ,
       24      588                MID=B);
       25      658        %VLP_SUA(STCLASS=CONSTANT SYMDEF,FPTN=SC_EQMEM,
       26      659                CODE=%S$MMERR,
       27      660                FCG=UQ,
       28      661                CFUS=YES, ENQ=YES,
       29      662                MID=B);
       30      732    1   END UQ_SCRCH_D;

PL6.E3A0      #001=UQ_SCRCH_D File=UQ_SCRCH_D.:E05TSI                            WED 07/30/97 07:04 Page:2
--  Include file information  --

   JS_CP6.:E05TOU  is referenced.
   UQ_SCODE_C.:E05TOU  is referenced.
      No diagnostics issued in procedure UQ_SCRCH_D.

   No code generated for procedure UQ_SCRCH_D .
   Procedure UQ_SCRCH_D requires 4 words of local(AUTO) storage.

    No errors detected in file UQ_SCRCH_D.:E05TSI    .

PL6.E3A0      #001=UQ_SCRCH_D File=UQ_SCRCH_D.:E05TSI                            WED 07/30/97 07:04 Page:3

 Object Unit name= UQ_SCRCH_D                                 File name= UQ_SCRCH_D.:E05TOU
 UTS= JUL 30 '97 07:04:09.08 WED                              Compiler= PL-6/E31         Sev=      00
 SharedLib= :SHARED_SYSTEM                                    Alt SharedLib=


    ****  Control sections  ****

 Sect   Type Bound  Init  Size OctSiz  Section name(segment info)
    0  RoData even  UTS      8     10  UQ_SCRCH_D
    1   Proc  even  none     0      0  UQ_SCRCH_D

    ****  Entry defs  ****

                              Check   Calling
                             calling  sequence
  Sect OctLoc Primary Altret sequence   type   Parms  Name
     1      0   yes            yes     ~proc       0  UQ_SCRCH_D

  ****  Data defs  ****

 Sect OctLoc  Name                           Sect OctLoc  Name
    0      0  SC_MMERR                           0      2  SC_FSERR
    0      4  SC_EQERR_B                         0      6  SC_EQMEM
PL6.E3A0      #001=UQ_SCRCH_D File=UQ_SCRCH_D.:E05TSI                            WED 07/30/97 07:04 Page:4


(unnamed)
 Sect OctLoc
   0     000   252103 402027   777776 177760   252102 402036   240060 107760    .C.......B...0G.
   0     004   252102 402057   777776 177760   252102 402026   240060 107760    .B./.....B...0G.
        1        1        /*M* ENQ/DEQ screech code data.                                    */
        2        2        /*T***********************************************************/
        3        3        /*T*                                                         */
        4        4        /*T* Copyright (c) Bull HN Information Systems Inc., 1997    */
        5        5        /*T*                                                         */
        6        6        /*T***********************************************************/
        7        7        UQ_SCRCH_D: PROC;
        8        8        %INCLUDE UQ_SCODE_C;
        9       18        %INCLUDE JS_CP6;
       10      436        /**/
       11      437        /**/
       12      438        %VLP_SCREECH(STCLASS=CONSTANT SYMDEF,FPTN=SC_MMERR,
       13      439                CODE=%S$MMERR,
       14      440                FCG=UQ,
       15      441                MID=C);
       16      511        %VLP_SUA(STCLASS=CONSTANT SYMDEF,FPTN=SC_FSERR,
       17      512                CODE=%S$FSERR,
       18      513                FCG=UQ,
       19      514                MID=B,
       20      515                CFUS=YES,ENQ=YES);
       21      585        %VLP_SCREECH(STCLASS=CONSTANT SYMDEF,FPTN=SC_EQERR_B,
       22      586                CODE=%S$EQERR,
       23      587                FCG=UQ,
       24      588                MID=B);
       25      658        %VLP_SUA(STCLASS=CONSTANT SYMDEF,FPTN=SC_EQMEM,
       26      659                CODE=%S$MMERR,
       27      660                FCG=UQ,
       28      661                CFUS=YES, ENQ=YES,
       29      662                MID=B);
       30      732    1   END UQ_SCRCH_D;

PL6.E3A0      #001=UQ_SCRCH_D File=UQ_SCRCH_D.:E05TSI                            WED 07/30/97 07:04 Page:5
--  Include file information  --

   JS_CP6.:E05TOU  is referenced.
   UQ_SCODE_C.:E05TOU  is referenced.
      No diagnostics issued in procedure UQ_SCRCH_D.
PL6.E3A0      #001=UQ_SCRCH_D File=UQ_SCRCH_D.:E05TSI                            WED 07/30/97 07:04 Page:6

 **** Variables and constants ****


   No code generated for procedure UQ_SCRCH_D .
   Procedure UQ_SCRCH_D requires 4 words of local(AUTO) storage.

    No errors detected in file UQ_SCRCH_D.:E05TSI    .
PL6.E3A0      #001=UQ_SCRCH_D File=UQ_SCRCH_D.:E05TSI                            WED 07/30/97 07:04 Page:7
          *** CROSS REFERENCE LISTING ***
**     DENOTES     IDENTIFIER DEFINITION
<<                 IDENTIFIER'S VALUE SET
>>                 IDENTIFIER'S VALUE USED
<>                 IDENTIFIER SET AND/OR USED
--                 IDENTIFIER REFERENCED
PL6.E3A0      #001=UQ_SCRCH_D File=UQ_SCRCH_D.:E05TSI                            WED 07/30/97 07:04 Page:8
          MINI XREF LISTING

