VERSION E05

PL6.E3A0      #001=VEM$MASTER File=VEM$MASTER.:E05TSI                            WED 07/30/97 07:08 Page:1
        1        1        /*M*     VEM$MASTER - MASTER EXECUTIVE AND EXECUTION ROUTINES FOR EDIT */
        2        2        /*T***********************************************************/
        3        3        /*T*                                                         */
        4        4        /*T* Copyright (c) Bull HN Information Systems Inc., 1997    */
        5        5        /*T*                                                         */
        6        6        /*T***********************************************************/
        7        7        /*X* DMR,PLM=5,IND=3,CTI=3,SDI=3,MCL=10,CSI=0,ECI=0 */
        8        8        VEM$MASTER: PROC;
        9        9        /**/
       10       10        /*********************************************************************/
       11       11        /*   INCLUDE FILES   INCLUDE FILES   INCLUDE FILES   INCLUDE FILES   */
       12       12        /*********************************************************************/
       13       13        /**/
       14       14        %INCLUDE VE_SUBS_C;
       15      208        %INCLUDE VE_PERR_C;
       16      425        /**/
       17      426        /*****************************************************************/
       18      427        /*   AUTO DATA   AUTO DATA   AUTO DATA   AUTO DATA   AUTO DATA   */
       19      428        /*****************************************************************/
       20      429    1   DCL I UBIN(36);
       21      430        /**********************************************************************/
       22      431        /*   BASED DATA   BASED DATA   BASED DATA   BASED DATA   BASED DATA   */
       23      432        /**********************************************************************/
       24      433    1   DCL 1 CMD_CNTRLWD BASED ALIGNED,        /* CONTROL WORD FOR CMD_TBL ENTRIES   */
       25      434    1          2 FLAGS,
       26      435    1             3 ENDCT BIT(1) UNAL,          /* LAST ENTRY                         */
       27      436    1             3 * BIT(17) UNAL,
       28      437    1          2 OFFSET UBIN(9) UNAL,           /* NUM. OF WORDS TO NEXT ENTRY        */
       29      438    1          2 CMD_CODE UBIN(9) UNAL;         /* CODE FOR THIS COMMAND              */
       30      439    1   DCL 1 IF_CMD_TBL BASED ALIGNED,
       31      440    1          2 * BIT(36) UNAL,
       32      441    1          2 LO_CLMN UBIN WORD UNAL,
       33      442    1          2 HI_CLMN UBIN WORD UNAL,
       34      443    1          2 SSE(0:0),
       35      444    1             3 FLAGS,
       36      445    1                4 CLMNFLAG BIT(1) UNAL,
       37      446    1                4 NOTFLAG BIT(1) UNAL,
PL6.E3A0      #001=VEM$MASTER File=VEM$MASTER.:E05TSI                            WED 07/30/97 07:08 Page:2
       38      447    1                4 ANDFLAG BIT(1) UNAL,
       39      448    1                4 ORFLAG BIT(1) UNAL,
       40      449    1                4 EORFLAG BIT(1) UNAL,
       41      450    1                4 * BIT(13) UNAL,
       42      451    1             3 J SBIN HALF UNAL,
       43      452    1             3 PTR$ PTR UNAL;
       44      453    1   DCL 1 IN_CMD_TBL BASED ALIGNED,         /*IN,IP,IS,RN,DE,AD,RR,CL CMDS        */
       45      454    1          2 * BIT(36) UNAL,
       46      455    1          2 LO_SEQNUM UBIN(36) UNAL,
       47      456    1          2 HI_SEQNUM UBIN(36) UNAL,
       48      457    1          2 START_SPEC UBIN(36) UNAL,      /* DID USER SPECIFY A START */
       49      458    1          2 COLUMN SBIN WORD UNAL;
       50      459        %EJECT;
PL6.E3A0      #001=VEM$MASTER File=VEM$MASTER.:E05TSI                            WED 07/30/97 07:08 Page:3
       51      460        /***********************************************************************/
       52      461        /*    ENTRY DCLS   ENTRY DCLS   ENTRY DCLS   ENTRY DCLS   ENTRY DCLS   */
       53      462        /**********************************************************************/
       54      463        /**/
       55      464    1   DCL VEX$FIND_MATCH ENTRY(4) ALTRET;
       56      465        /**/
       57      466        /* FILE COMMANDS */
       58      467        /**/
       59      468    1   DCL VEF$EXEC_BP ENTRY;
       60      469    1   DCL VEF$EXEC_BUILD ENTRY;
       61      470    1   DCL VEF$EXEC_COPY ENTRY;
       62      471    1   DCL VEF$EXEC_CR ENTRY;
       63      472    1   DCL VEF$EXEC_DELETE ENTRY;
       64      473    1   DCL VEF$EXEC_DIR ENTRY;
       65      474    1   DCL VEF$EXEC_EDIT ENTRY;
       66      475    1   DCL VEF$EXEC_END ENTRY;
       67      476    1   DCL VEF$EXEC_MERGE ENTRY;
       68      477    1   DCL VEF$EXEC_ROUND ENTRY;
       69      478    1   DCL VEF$EXEC_RP ENTRY;
       70      479    1   DCL VEF$EXEC_STATUS ENTRY;
       71      480    1   DCL VEF$EXEC_TA ENTRY;
       72      481    1   DCL VEF$EXEC_TABC ENTRY;
       73      482    1   DCL VEF$EXEC_TABX ENTRY;
       74      483    1   DCL VEF$EXEC_TYPE ENTRY;
       75      484    1   DCL VEF$EXEC_QM ENTRY;
       76      485    1   DCL VEF$EXEC_QM2 ENTRY;
       77      486    1   DCL VEF$EXEC_VE ENTRY;
       78      487        /**/
       79      488        /* HELP COMMAND */
       80      489        /**/
       81      490    1   DCL VEH$HELP ENTRY;
       82      491        /**/
       83      492        /* RECORD COMMANDS */
       84      493        /**/
       85      494    1   DCL VER$EXEC_AD ENTRY;
       86      495    1   DCL VER$EXEC_CM ENTRY;
       87      496    1   DCL VER$EXEC_DE ENTRY;
PL6.E3A0      #001=VEM$MASTER File=VEM$MASTER.:E05TSI                            WED 07/30/97 07:08 Page:4
       88      497    1   DCL VER$EXEC_FD ENTRY;
       89      498    1   DCL VER$EXEC_FS ENTRY;
       90      499    1   DCL VER$EXEC_IN ENTRY;
       91      500    1   DCL VER$EXEC_MK ENTRY;
       92      501    1   DCL VER$EXEC_NEWLINE ENTRY;
       93      502    1   DCL VER$EXEC_OL ENTRY;
       94      503    1   DCL VER$EXEC_RN ENTRY;
       95      504    1   DCL VER$EXEC_RR ENTRY;
       96      505    1   DCL VER$EXEC_TC ENTRY;
       97      506    1   DCL VER$EXEC_TN ENTRY;
       98      507    1   DCL VER$EXEC_TS ENTRY;
       99      508    1   DCL VER$EXEC_TY ENTRY;
      100      509    1   DCL VER$EXEC_UPARROW ENTRY;
      101      510        /**/
      102      511        /* INTRA-RECORD COMMANDS */
      103      512        /**/
      104      513    1   DCL VEI$EXEC_A ENTRY ALTRET;
      105      514    1   DCL VEI$EXEC_CP ENTRY ALTRET;           /* VEI$EXEC_CP REALLY ALTRETS         */
      106      515    1   DCL VEI$EXEC_D ENTRY ALTRET;
      107      516    1   DCL VEI$EXEC_E ENTRY ALTRET;
      108      517    1   DCL VEI$EXEC_EI ENTRY ALTRET;
      109      518    1   DCL VEI$EXEC_EL ENTRY ALTRET;
      110      519    1   DCL VEI$EXEC_F ENTRY ALTRET;
      111      520    1   DCL VEI$EXEC_JU ENTRY ALTRET;
      112      521    1   DCL VEI$EXEC_L ENTRY ALTRET;
      113      522    1   DCL VEI$EXEC_NO ENTRY ALTRET;
      114      523    1   DCL VEI$EXEC_P ENTRY ALTRET;
      115      524    1   DCL VEI$EXEC_QR ENTRY ALTRET;
      116      525    1   DCL VEI$EXEC_R ENTRY ALTRET;
      117      526    1   DCL VEI$EXEC_RF ENTRY ALTRET;
      118      527    1   DCL VEI$EXEC_RL ENTRY ALTRET;           /* VEI$EXEC_RL REALLY ALTRETS         */
      119      528    1   DCL VEI$EXEC_S ENTRY ALTRET;
      120      529    1   DCL VEI$EXEC_TX ENTRY ALTRET;
      121      530        %EJECT;
PL6.E3A0      #001=VEM$MASTER File=VEM$MASTER.:E05TSI                            WED 07/30/97 07:08 Page:5
      122      531        /*****************************************************************/
      123      532        /*   SYMREFS   SYMREFS   SYMREFS   SYMREFS   SYMREFS   SYMREFS   */
      124      533        /*****************************************************************/
      125      534        /**/
      126      535        %INCLUDE VE_FLAGS_R;
      127      586        %INCLUDE B$TABLES_C;
      128      694        %B$SR_NON_BLANK;
      129      698        /**/
      130      699    1   DCL MATCH_CLMN UBIN(36) SYMREF;         /* COLUMN OF START OF STRING          */
      131      700    1   DCL CMD_CODE UBIN(36) SYMREF;           /* CODE FOR CURRENT COMMAND           */
      132      701    1   DCL IF_LEVEL UBIN WORD SYMREF;          /* IF PROCESSING                      */
      133      702    1   DCL CMD$ PTR SYMREF;                    /* POINTER TO RUN CMD_TBL             */
      134      703    1   DCL CMD_BASE$ PTR SYMREF;
      135      704    1   DCL LO_EXEC_CLMN UBIN(36) SYMREF;       /* LOW LIMIT OF CHANGEABLE RANGE      */
      136      705    1   DCL HI_EXEC_CLMN UBIN(36) SYMREF;       /* HIGH LIMIT OF CHANGEABLE RANGE     */
      137      706    1   DCL REC_SIZE UBIN(36) SYMREF;           /* CHARACTER COUNT OF REC_BUF         */
      138      707    1   DCL REC_BUF CHAR(PC_RECSIZE#) SYMREF;
      139      708        %EJECT;
PL6.E3A0      #001=VEM$MASTER File=VEM$MASTER.:E05TSI                            WED 07/30/97 07:08 Page:6
      140      709        /*****************************************************************************/
      141      710        /*   PROCEDURE   PROCEDURE   PROCEDURE   PROCEDURE   PROCEDURE   PROCEDURE   */
      142      711        /*****************************************************************************/
      143      712        /**/
      144      713    1        CMD$ = CMD_BASE$;
      145      714        /**/
      146      715    2        DO WHILE (CMD$ -> CMD_CNTRLWD.FLAGS.ENDCT =FALSE); /* LOOP THRU ALL COMMANDS */
      147      716    2           CMD_CODE = CMD$ -> CMD_CNTRLWD.CMD_CODE;
      148      717        /**/
      149      718    2   IF_TEST:
      150      719    3           IF (CMD_CODE = IFCMD) THEN DO;
      151      720    3              CALL IF_SSE_CHECK ALTRET(IF_FAIL);
      152      721    3              CMD$ = PINCRW(CMD$,CMD$ -> CMD_CNTRLWD.OFFSET);
      153      722    3              IF (CMD$ -> CMD_CNTRLWD.FLAGS.ENDCT = TRUE) THEN GOTO EXEC_CP_ALT;
      154      723    3              CMD_CODE = CMD$ -> CMD_CNTRLWD.CMD_CODE;
      155      724    3              GOTO IF_TEST;
      156      725    3              END;
      157      726        /**/
      158      727    3           DO CASE (CMD_CODE);
      159      728        /**/
      160      729    3           CASE (BPCMD);
      161      730    3              CALL VEF$EXEC_BP;
      162      731    3           CASE (BUILDCMD);
      163      732    3              CALL VEF$EXEC_BUILD;
      164      733    3           CASE (COPYCMD);
      165      734    3              CALL VEF$EXEC_COPY;
      166      735    3           CASE (CRCMD);
      167      736    3              CALL VEF$EXEC_CR;
      168      737    3           CASE (DELETECMD);
      169      738    3              CALL VEF$EXEC_DELETE;
      170      739    3           CASE (DIRCMD);
      171      740    3              CALL VEF$EXEC_DIR;
      172      741    3           CASE (EDITCMD,EXAMINECMD);
      173      742    3              CALL VEF$EXEC_EDIT;
      174      743    3           CASE (ENDCMD,XCMD);
      175      744    3              CALL VEF$EXEC_END;
      176      745    3           CASE (MERGECMD) ;
PL6.E3A0      #001=VEM$MASTER File=VEM$MASTER.:E05TSI                            WED 07/30/97 07:08 Page:7
      177      746    3              CALL VEF$EXEC_MERGE;
      178      747    3           CASE (ROUNDCMD);
      179      748    3              CALL VEF$EXEC_ROUND;
      180      749    3           CASE (RPCMD);
      181      750    3              CALL VEF$EXEC_RP;
      182      751    3           CASE (STATUSCMD);
      183      752    3              CALL VEF$EXEC_STATUS;
      184      753    3           CASE (TACMD);
      185      754    3              CALL VEF$EXEC_TA;
      186      755    3           CASE (TABCCMD);
      187      756    3              CALL VEF$EXEC_TABC;
      188      757    3           CASE (TABXCMD);
      189      758    3              CALL VEF$EXEC_TABX;
      190      759    3           CASE (TYPECMD);
      191      760    3              CALL VEF$EXEC_TYPE;
      192      761    3           CASE (QMCMD);
      193      762    3              CALL VEF$EXEC_QM;
      194      763    3           CASE (QM2CMD);
      195      764    3              CALL VEF$EXEC_QM2;
      196      765    3           CASE (VECMD);
      197      766    3              CALL VEF$EXEC_VE;
      198      767        /**/
      199      768        /**/
      200      769    3           CASE (HELPCMD);
      201      770    3              CALL VEH$HELP;
      202      771        /**/
      203      772        /**/
      204      773    3           CASE (ADCMD);
      205      774    3              CALL VER$EXEC_AD;
      206      775    3           CASE (CMCMD,CTCMD);
      207      776    3              CALL VER$EXEC_CM;
      208      777    3           CASE (DECMD);
      209      778    3              CALL VER$EXEC_DE;
      210      779    3           CASE (FDCMD);
      211      780    3              CALL VER$EXEC_FD;
      212      781    3           CASE (FSCMD);
      213      782    3              CALL VER$EXEC_FS;
PL6.E3A0      #001=VEM$MASTER File=VEM$MASTER.:E05TSI                            WED 07/30/97 07:08 Page:8
      214      783    3           CASE (INCMD,IPCMD,ISCMD,IACMD,IBCMD,APCMD);
      215      784    3              CALL VER$EXEC_IN;
      216      785    3           CASE (MKCMD,MDCMD,MKPCMD,MDPCMD);
      217      786    3              CALL VER$EXEC_MK;
      218      787    3           CASE (NEWLINECMD);
      219      788    3              CALL VER$EXEC_NEWLINE;
      220      789    3           CASE (OLCMD);
      221      790    3              CALL VER$EXEC_OL;
      222      791    3           CASE (RNCMD);
      223      792    3              CALL VER$EXEC_RN;
      224      793    3           CASE (RRCMD);
      225      794    3              CALL VER$EXEC_RR;
      226      795    3           CASE (TCCMD);
      227      796    3              CALL VER$EXEC_TC;
      228      797    3           CASE (TNCMD,TPCMD);
      229      798    3              CALL VER$EXEC_TN;
      230      799    3           CASE (TSCMD);
      231      800    3              CALL VER$EXEC_TS;
      232      801    3           CASE (TYCMD,FTCMD,INTTYCMD);
      233      802    3              CALL VER$EXEC_TY;
      234      803    3           CASE (CLCMD) ;
      235      804    3              LO_EXEC_CLMN = CMD$ -> IN_CMD_TBL.LO_SEQNUM ;
      236      805    3              HI_EXEC_CLMN = CMD$ -> IN_CMD_TBL.HI_SEQNUM ;
      237      806    3           CASE (UPARROWCMD);
      238      807    3              CALL VER$EXEC_UPARROW;
      239      808        /**/
      240      809        /**/
      241      810    3           CASE (ACMD);
      242      811    3              CALL VEI$EXEC_A;
      243      812    3           CASE (CPCMD,CICMD);
      244      813    3              CALL VEI$EXEC_CP ALTRET (EXEC_CP_ALT);
      245      814    3           CASE (DCMD);
      246      815    3              CALL VEI$EXEC_D;
      247      816    3           CASE (ECMD,OCMD);
      248      817    3              CALL VEI$EXEC_E;
      249      818    3           CASE (EICMD);
      250      819    3              CALL VEI$EXEC_EI;
PL6.E3A0      #001=VEM$MASTER File=VEM$MASTER.:E05TSI                            WED 07/30/97 07:08 Page:9
      251      820    3           CASE (ELCMD);
      252      821    3              CALL VEI$EXEC_EL;
      253      822    3           CASE (FCMD);
      254      823    3              CALL VEI$EXEC_F;
      255      824    3           CASE (JUCMD);
      256      825    3              CALL VEI$EXEC_JU;
      257      826    3           CASE (LCMD);
      258      827    3              CALL VEI$EXEC_L;
      259      828    3           CASE (NOCMD);
      260      829    3              CALL VEI$EXEC_NO;
      261      830    3           CASE (PCMD);
      262      831    3              CALL VEI$EXEC_P;
      263      832    3           CASE (QRCMD);
      264      833    3              CALL VEI$EXEC_QR;
      265      834    3           CASE (RCMD);
      266      835    3              CALL VEI$EXEC_R;
      267      836    3           CASE (RFCMD);
      268      837    3              CALL VEI$EXEC_RF;
      269      838    3           CASE (RLCMD);
      270      839    3              CALL VEI$EXEC_RL ALTRET (IF_TEST); /* ALTRET TO REPEAT          */
      271      840    3           CASE (SCMD);
      272      841    3              CALL VEI$EXEC_S;
      273      842    3           CASE (TXCMD);
      274      843    3              CALL VEI$EXEC_TX;
      275      844        /**/
      276      845    3           END;                            /***/
      277      846        /**/
      278      847    2   NEXT_CMD:
      279      848    2           CMD$ = PINCRW (CMD$,CMD$ -> CMD_CNTRLWD.OFFSET); /* LINK TO NEXT   */
      280      849    2           END;
      281      850        /**/
      282      851    1   EXEC_CP_ALT:
      283      852    1        CMD$ = CMD_BASE$;
      284      853    2        IF (FLAGS.RLFLAG) THEN DO;
      285      854    2           FLAGS.TXFLAG = TRUE;
      286      855    2           FLAGS.RLFLAG = FALSE;
      287      856    2           END;
PL6.E3A0      #001=VEM$MASTER File=VEM$MASTER.:E05TSI                            WED 07/30/97 07:08 Page:10
      288      857    1        RETURN;
      289      858        /**/
      290      859    1   IF_FAIL:
      291      860    1        CMD$ = PINCRW(CMD$,CMD$ -> CMD_CNTRLWD.OFFSET);
      292      861    1        IF_LEVEL = 1;
      293      862        /**/
      294      863    2        DO WHILE (CMD$ -> CMD_CNTRLWD.FLAGS.ENDCT =  FALSE);
      295      864    2           CMD_CODE = CMD$ -> CMD_CNTRLWD.CMD_CODE;
      296      865    2           IF (CMD_CODE = IFCMD) THEN IF_LEVEL = IF_LEVEL + 1; /* NESTED      */
      297      866    3           ELSE IF (CMD_CODE = EICMD) THEN DO; /* END IF                      */
      298      867    3                 IF_LEVEL = IF_LEVEL - 1;
      299      868    3                 IF (IF_LEVEL = 0) THEN GOTO NEXT_CMD;
      300      869    3                 END;
      301      870    3              ELSE IF (CMD_CODE = ELCMD)AND(IF_LEVEL = 1) THEN DO; /* PROCESS ELSE */
      302      871    3                    CMD_CODE = IFCMD;
      303      872    3                    GOTO IF_TEST;
      304      873    3                    END;
      305      874    2           CMD$ = PINCRW(CMD$,CMD$ -> CMD_CNTRLWD.OFFSET);
      306      875    2           END;
      307      876        /**/
      308      877    2        IF (FLAGS.RLFLAG) THEN DO;
      309      878    2           FLAGS.TXFLAG = TRUE;
      310      879    2           FLAGS.RLFLAG = FALSE;
      311      880    2           END;
      312      881        /**/
      313      882    1        RETURN;
      314      883        /**/
      315      884        %EJECT;
PL6.E3A0      #001=VEM$MASTER File=VEM$MASTER.:E05TSI                            WED 07/30/97 07:08 Page:11
      316      885        /**/
      317      886    1   IF_SSE_CHECK: PROC ALTRET;
      318      887        /**/
      319      888    2   DCL 1 STR_FLGS,
      320      889    2          2 CLMNFLAG BIT(1) UNAL,
      321      890    2          2 NOTFLAG BIT(1) UNAL,
      322      891    2          2 ANDFLAG BIT(1) UNAL,
      323      892    2          2 ORFLAG BIT(1) UNAL,
      324      893    2          2 EORFLAG BIT(1) UNAL,
      325      894    2          2 * BIT(13) UNAL;
      326      895    2   DCL IF_EVAL BIT(1) AUTO;
      327      896        /**/
      328      897    2        IF (CMD$ -> IF_CMD_TBL.SSE.PTR$(0) = ADDR(NIL)) THEN RETURN;
      329      898        /**/
      330      899    2        IF_LEVEL = 0;
      331      900    2        IF_EVAL = FALSE;
      332      901        /**/
      333      902    2   IF_SSE_1:
      334      903    2        STR_FLGS = CMD$ -> IF_CMD_TBL.SSE.FLAGS(IF_LEVEL);
      335      904    2        IF ((IF_EVAL) AND (STR_FLGS.ORFLAG)) THEN GOTO IF_SSE_NEXT;
      336      905    2        IF ((~IF_EVAL) AND (STR_FLGS.ANDFLAG)) THEN GOTO IF_SSE_NEXT;
      337      906        /**/
      338      907    2        CALL VEX$FIND_MATCH(ADDR(CMD$ -> IF_CMD_TBL.SSE(IF_LEVEL)),
      339      908    2           CMD$ -> IF_CMD_TBL.LO_CLMN,CMD$ -> IF_CMD_TBL.HI_CLMN,
      340      909    2           MATCH_CLMN) ALTRET(IF_SSE_2);
      341      910                                                /* MATCHING STRING IS PRESENT         */
      342      911    2        IF ((~IF_EVAL) AND
      343      912    2           (((STR_FLGS.ORFLAG) OR (STR_FLGS.EORFLAG)) AND (~STR_FLGS.NOTFLAG)))
      344      913    2        THEN IF_EVAL = TRUE;
      345      914        /**/
      346      915    2        ELSE IF ((IF_EVAL) AND
      347      916    2              ((STR_FLGS.ANDFLAG) AND (STR_FLGS.NOTFLAG)) OR
      348      917    2              ((STR_FLGS.EORFLAG) AND (~STR_FLGS.NOTFLAG)))
      349      918    2           THEN IF_EVAL = FALSE;
      350      919        /**/
      351      920    2        GOTO IF_SSE_NEXT;
      352      921        /**/                                    /* MATCHING STRING NOT FOUND          */
PL6.E3A0      #001=VEM$MASTER File=VEM$MASTER.:E05TSI                            WED 07/30/97 07:08 Page:12
      353      922    2   IF_SSE_2:
      354      923    2        IF ((~IF_EVAL) AND
      355      924    2           ((STR_FLGS.NOTFLAG)  AND ((STR_FLGS.ORFLAG) OR (STR_FLGS.EORFLAG))))
      356      925    2        THEN IF_EVAL = TRUE;
      357      926        /**/
      358      927    2        ELSE IF ((IF_EVAL) AND
      359      928    2              (((STR_FLGS.ANDFLAG) AND (~STR_FLGS.NOTFLAG)) OR
      360      929    2              ((STR_FLGS.EORFLAG) AND (STR_FLGS.NOTFLAG))))
      361      930    2           THEN IF_EVAL = FALSE;
      362      931        /**/
      363      932    2   IF_SSE_NEXT:
      364      933    2        IF_LEVEL = IF_LEVEL + 1;
      365      934    3        IF (CMD$ -> IF_CMD_TBL.SSE.PTR$(IF_LEVEL) = ADDR(NIL)) THEN DO;
      366      935    3           CALL SEARCHR(REC_SIZE, I, B$SR_NON_BLANK, REC_BUF, REC_SIZE) ;
      367      936    3           REC_SIZE = REC_SIZE + 1 ;
      368      937    3           IF (IF_EVAL) THEN RETURN;
      369      938    3           ELSE ALTRETURN;
      370      939    3           END;
      371      940        /**/
      372      941    2        GOTO IF_SSE_1;
      373      942        /**/
      374      943    2   END;
      375      944    1   END;                                    /* END VEM$MASTER                     */

PL6.E3A0      #001=VEM$MASTER File=VEM$MASTER.:E05TSI                            WED 07/30/97 07:08 Page:13
--  Include file information  --

   B$TABLES_C.:E05TOU  cannot be made into a system file and is referenced.
   VE_FLAGS_R.:E05TOU  cannot be made into a system file and is referenced.
   VE_PERR_C.:E05TOU  is referenced.
   VE_SUBS_C.:E05TOU  is referenced.
      No diagnostics issued in procedure VEM$MASTER.

   Procedure VEM$MASTER requires 543 words for executable code.
   Procedure VEM$MASTER requires 14 words of local(AUTO) storage.

    No errors detected in file VEM$MASTER.:E05TSI    .

PL6.E3A0      #001=VEM$MASTER File=VEM$MASTER.:E05TSI                            WED 07/30/97 07:08 Page:14

 Object Unit name= VEM$MASTER                                 File name= VEM$MASTER.:E05TOU
 UTS= JUL 30 '97 07:08:52.52 WED                              Compiler= PL-6/E31         Sev=      00
 SharedLib= :SHARED_SYSTEM                                    Alt SharedLib=


    ****  Control sections  ****

 Sect   Type Bound  Init  Size OctSiz  Section name(segment info)
    0   Proc  even  none   543   1037  VEM$MASTER
    1  RoData even  none     2      2  VEM$MASTER

    ****  Entry defs  ****

                              Check   Calling
                             calling  sequence
  Sect OctLoc Primary Altret sequence   type   Parms  Name
     0      0   yes            yes      Std        0  VEM$MASTER

  ****  Entry refs  ****

         Check        Calling
        calling       sequence
Altret sequence SRef   type   Args  Name
         yes          ~proc      0 B_POINTER
         yes           Std       0 VEF$EXEC_TYPE
         yes           Std       0 VER$EXEC_CM
 yes     yes           Std       0 VEI$EXEC_QR
 yes     yes           Std       0 VEI$EXEC_R
         yes           Std       0 VER$EXEC_FS
         yes           Std       0 VER$EXEC_TC
         yes           Std       0 VER$EXEC_NEWLINE
 yes     yes           Std       0 VEI$EXEC_TX
         yes           Std       0 VEF$EXEC_COPY
         yes           Std       0 VEF$EXEC_DIR
         yes           Std       0 VEF$EXEC_TA
         yes           Std       0 VEF$EXEC_QM
         yes           Std       0 VEF$EXEC_VE
PL6.E3A0      #001=VEM$MASTER File=VEM$MASTER.:E05TSI                            WED 07/30/97 07:08 Page:15
         yes           Std       0 VER$EXEC_MK
 yes     yes           Std       0 VEI$EXEC_CP
 yes     yes           Std       0 VEI$EXEC_NO
         yes           Std       0 VER$EXEC_DE
 yes     yes           Std       0 VEI$EXEC_EL
         yes           Std       0 VER$EXEC_IN
         yes           Std       0 VER$EXEC_TN
         yes           Std       0 VER$EXEC_TS
 yes     yes           Std       0 VEI$EXEC_RF
 yes     yes           Std       0 VEI$EXEC_D
 yes     yes           Std       0 VEI$EXEC_F
 yes     yes           Std       0 VEI$EXEC_JU
         yes           Std       0 VEH$HELP
         yes           Std       0 VEF$EXEC_BP
         yes           Std       0 VEF$EXEC_DELETE
         yes           Std       0 VEF$EXEC_EDIT
         yes           Std       0 VEF$EXEC_TABX
         yes           Std       0 VEF$EXEC_RP
         yes           Std       0 VER$EXEC_AD
         yes           Std       0 VEF$EXEC_ROUND
 yes     yes           Std       0 VEI$EXEC_A
         yes           Std       0 VEF$EXEC_STATUS
         yes           Std       0 VER$EXEC_OL
 yes     yes           Std       0 VEI$EXEC_S
         yes           Std       0 VER$EXEC_UPARROW
         yes           Std       0 VEF$EXEC_BUILD
         yes           Std       0 VEF$EXEC_CR
         yes           Std       0 VEF$EXEC_MERGE
         yes           Std       0 VEF$EXEC_QM2
 yes     yes           Std       0 VEI$EXEC_RL
         yes           Std       0 VER$EXEC_RR
 yes     yes           Std       0 VEI$EXEC_L
         yes           Std       0 VEF$EXEC_END
         yes           Std       0 VER$EXEC_FD
 yes     yes           Std       0 VEI$EXEC_EI
         yes           Std       0 VEF$EXEC_TABC
         yes           Std       0 VER$EXEC_TY
PL6.E3A0      #001=VEM$MASTER File=VEM$MASTER.:E05TSI                            WED 07/30/97 07:08 Page:16
         yes           Std       0 VER$EXEC_RN
 yes     yes           Std       0 VEI$EXEC_E
 yes     yes           Std       0 VEI$EXEC_P
 yes     yes           Std       4 VEX$FIND_MATCH
                       nStd      0 X66_AUTO_0
                       Std       0 B_CONSPOOL_D
                       nStd      0 X66_ARET

  ****  Data refs  ****

  Flags:  r = read only, s = secondary
Flgs Name                             Flgs Name                             Flgs Name
     FLAGS                            r    B$SR_NON_BLANK$                       MATCH_CLMN
     CMD_CODE                              IF_LEVEL                              CMD$
     CMD_BASE$                             LO_EXEC_CLMN                          HI_EXEC_CLMN
     REC_SIZE                              REC_BUF                               B_VECTNIL

  ****  Segment refs  ****

  Flags:  r = read only, s = secondary
Flgs Name                             Flgs Name                             Flgs Name
     ISSID
PL6.E3A0      #001=VEM$MASTER File=VEM$MASTER.:E05TSI                            WED 07/30/97 07:08 Page:17


        1        1        /*M*     VEM$MASTER - MASTER EXECUTIVE AND EXECUTION ROUTINES FOR EDIT */
        2        2        /*T***********************************************************/
        3        3        /*T*                                                         */
        4        4        /*T* Copyright (c) Bull HN Information Systems Inc., 1997    */
        5        5        /*T*                                                         */
        6        6        /*T***********************************************************/
        7        7        /*X* DMR,PLM=5,IND=3,CTI=3,SDI=3,MCL=10,CSI=0,ECI=0 */
        8        8        VEM$MASTER: PROC;

      8  0 000000   000000 700200 xent  VEM$MASTER   TSX0  ! X66_AUTO_0
         0 000001   000016 000000                    ZERO    14,0

        9        9        /**/
       10       10        /*********************************************************************/
       11       11        /*   INCLUDE FILES   INCLUDE FILES   INCLUDE FILES   INCLUDE FILES   */
       12       12        /*********************************************************************/
       13       13        /**/
       14       14        %INCLUDE VE_SUBS_C;
       15      208        %INCLUDE VE_PERR_C;
       16      425        /**/
       17      426        /*****************************************************************/
       18      427        /*   AUTO DATA   AUTO DATA   AUTO DATA   AUTO DATA   AUTO DATA   */
       19      428        /*****************************************************************/
       20      429    1   DCL I UBIN(36);
       21      430        /**********************************************************************/
       22      431        /*   BASED DATA   BASED DATA   BASED DATA   BASED DATA   BASED DATA   */
       23      432        /**********************************************************************/
       24      433    1   DCL 1 CMD_CNTRLWD BASED ALIGNED,        /* CONTROL WORD FOR CMD_TBL ENTRIES   */
       25      434    1          2 FLAGS,
       26      435    1             3 ENDCT BIT(1) UNAL,          /* LAST ENTRY                         */
       27      436    1             3 * BIT(17) UNAL,
       28      437    1          2 OFFSET UBIN(9) UNAL,           /* NUM. OF WORDS TO NEXT ENTRY        */
       29      438    1          2 CMD_CODE UBIN(9) UNAL;         /* CODE FOR THIS COMMAND              */
       30      439    1   DCL 1 IF_CMD_TBL BASED ALIGNED,
       31      440    1          2 * BIT(36) UNAL,
       32      441    1          2 LO_CLMN UBIN WORD UNAL,
PL6.E3A0      #001=VEM$MASTER File=VEM$MASTER.:E05TSI                            WED 07/30/97 07:08 Page:18
       33      442    1          2 HI_CLMN UBIN WORD UNAL,
       34      443    1          2 SSE(0:0),
       35      444    1             3 FLAGS,
       36      445    1                4 CLMNFLAG BIT(1) UNAL,
       37      446    1                4 NOTFLAG BIT(1) UNAL,
       38      447    1                4 ANDFLAG BIT(1) UNAL,
       39      448    1                4 ORFLAG BIT(1) UNAL,
       40      449    1                4 EORFLAG BIT(1) UNAL,
       41      450    1                4 * BIT(13) UNAL,
       42      451    1             3 J SBIN HALF UNAL,
       43      452    1             3 PTR$ PTR UNAL;
       44      453    1   DCL 1 IN_CMD_TBL BASED ALIGNED,         /*IN,IP,IS,RN,DE,AD,RR,CL CMDS        */
       45      454    1          2 * BIT(36) UNAL,
       46      455    1          2 LO_SEQNUM UBIN(36) UNAL,
       47      456    1          2 HI_SEQNUM UBIN(36) UNAL,
       48      457    1          2 START_SPEC UBIN(36) UNAL,      /* DID USER SPECIFY A START */
       49      458    1          2 COLUMN SBIN WORD UNAL;
       50      459        %EJECT;
PL6.E3A0      #001=VEM$MASTER File=VEM$MASTER.:E05TSI                            WED 07/30/97 07:08 Page:19
       51      460        /***********************************************************************/
       52      461        /*    ENTRY DCLS   ENTRY DCLS   ENTRY DCLS   ENTRY DCLS   ENTRY DCLS   */
       53      462        /**********************************************************************/
       54      463        /**/
       55      464    1   DCL VEX$FIND_MATCH ENTRY(4) ALTRET;
       56      465        /**/
       57      466        /* FILE COMMANDS */
       58      467        /**/
       59      468    1   DCL VEF$EXEC_BP ENTRY;
       60      469    1   DCL VEF$EXEC_BUILD ENTRY;
       61      470    1   DCL VEF$EXEC_COPY ENTRY;
       62      471    1   DCL VEF$EXEC_CR ENTRY;
       63      472    1   DCL VEF$EXEC_DELETE ENTRY;
       64      473    1   DCL VEF$EXEC_DIR ENTRY;
       65      474    1   DCL VEF$EXEC_EDIT ENTRY;
       66      475    1   DCL VEF$EXEC_END ENTRY;
       67      476    1   DCL VEF$EXEC_MERGE ENTRY;
       68      477    1   DCL VEF$EXEC_ROUND ENTRY;
       69      478    1   DCL VEF$EXEC_RP ENTRY;
       70      479    1   DCL VEF$EXEC_STATUS ENTRY;
       71      480    1   DCL VEF$EXEC_TA ENTRY;
       72      481    1   DCL VEF$EXEC_TABC ENTRY;
       73      482    1   DCL VEF$EXEC_TABX ENTRY;
       74      483    1   DCL VEF$EXEC_TYPE ENTRY;
       75      484    1   DCL VEF$EXEC_QM ENTRY;
       76      485    1   DCL VEF$EXEC_QM2 ENTRY;
       77      486    1   DCL VEF$EXEC_VE ENTRY;
       78      487        /**/
       79      488        /* HELP COMMAND */
       80      489        /**/
       81      490    1   DCL VEH$HELP ENTRY;
       82      491        /**/
       83      492        /* RECORD COMMANDS */
       84      493        /**/
       85      494    1   DCL VER$EXEC_AD ENTRY;
       86      495    1   DCL VER$EXEC_CM ENTRY;
       87      496    1   DCL VER$EXEC_DE ENTRY;
PL6.E3A0      #001=VEM$MASTER File=VEM$MASTER.:E05TSI                            WED 07/30/97 07:08 Page:20
       88      497    1   DCL VER$EXEC_FD ENTRY;
       89      498    1   DCL VER$EXEC_FS ENTRY;
       90      499    1   DCL VER$EXEC_IN ENTRY;
       91      500    1   DCL VER$EXEC_MK ENTRY;
       92      501    1   DCL VER$EXEC_NEWLINE ENTRY;
       93      502    1   DCL VER$EXEC_OL ENTRY;
       94      503    1   DCL VER$EXEC_RN ENTRY;
       95      504    1   DCL VER$EXEC_RR ENTRY;
       96      505    1   DCL VER$EXEC_TC ENTRY;
       97      506    1   DCL VER$EXEC_TN ENTRY;
       98      507    1   DCL VER$EXEC_TS ENTRY;
       99      508    1   DCL VER$EXEC_TY ENTRY;
      100      509    1   DCL VER$EXEC_UPARROW ENTRY;
      101      510        /**/
      102      511        /* INTRA-RECORD COMMANDS */
      103      512        /**/
      104      513    1   DCL VEI$EXEC_A ENTRY ALTRET;
      105      514    1   DCL VEI$EXEC_CP ENTRY ALTRET;           /* VEI$EXEC_CP REALLY ALTRETS         */
      106      515    1   DCL VEI$EXEC_D ENTRY ALTRET;
      107      516    1   DCL VEI$EXEC_E ENTRY ALTRET;
      108      517    1   DCL VEI$EXEC_EI ENTRY ALTRET;
      109      518    1   DCL VEI$EXEC_EL ENTRY ALTRET;
      110      519    1   DCL VEI$EXEC_F ENTRY ALTRET;
      111      520    1   DCL VEI$EXEC_JU ENTRY ALTRET;
      112      521    1   DCL VEI$EXEC_L ENTRY ALTRET;
      113      522    1   DCL VEI$EXEC_NO ENTRY ALTRET;
      114      523    1   DCL VEI$EXEC_P ENTRY ALTRET;
      115      524    1   DCL VEI$EXEC_QR ENTRY ALTRET;
      116      525    1   DCL VEI$EXEC_R ENTRY ALTRET;
      117      526    1   DCL VEI$EXEC_RF ENTRY ALTRET;
      118      527    1   DCL VEI$EXEC_RL ENTRY ALTRET;           /* VEI$EXEC_RL REALLY ALTRETS         */
      119      528    1   DCL VEI$EXEC_S ENTRY ALTRET;
      120      529    1   DCL VEI$EXEC_TX ENTRY ALTRET;
      121      530        %EJECT;
PL6.E3A0      #001=VEM$MASTER File=VEM$MASTER.:E05TSI                            WED 07/30/97 07:08 Page:21
      122      531        /*****************************************************************/
      123      532        /*   SYMREFS   SYMREFS   SYMREFS   SYMREFS   SYMREFS   SYMREFS   */
      124      533        /*****************************************************************/
      125      534        /**/
      126      535        %INCLUDE VE_FLAGS_R;
      127      586        %INCLUDE B$TABLES_C;
      128      694        %B$SR_NON_BLANK;
      129      698        /**/
      130      699    1   DCL MATCH_CLMN UBIN(36) SYMREF;         /* COLUMN OF START OF STRING          */
      131      700    1   DCL CMD_CODE UBIN(36) SYMREF;           /* CODE FOR CURRENT COMMAND           */
      132      701    1   DCL IF_LEVEL UBIN WORD SYMREF;          /* IF PROCESSING                      */
      133      702    1   DCL CMD$ PTR SYMREF;                    /* POINTER TO RUN CMD_TBL             */
      134      703    1   DCL CMD_BASE$ PTR SYMREF;
      135      704    1   DCL LO_EXEC_CLMN UBIN(36) SYMREF;       /* LOW LIMIT OF CHANGEABLE RANGE      */
      136      705    1   DCL HI_EXEC_CLMN UBIN(36) SYMREF;       /* HIGH LIMIT OF CHANGEABLE RANGE     */
      137      706    1   DCL REC_SIZE UBIN(36) SYMREF;           /* CHARACTER COUNT OF REC_BUF         */
      138      707    1   DCL REC_BUF CHAR(PC_RECSIZE#) SYMREF;
      139      708        %EJECT;
PL6.E3A0      #001=VEM$MASTER File=VEM$MASTER.:E05TSI                            WED 07/30/97 07:08 Page:22
      140      709        /*****************************************************************************/
      141      710        /*   PROCEDURE   PROCEDURE   PROCEDURE   PROCEDURE   PROCEDURE   PROCEDURE   */
      142      711        /*****************************************************************************/
      143      712        /**/
      144      713    1        CMD$ = CMD_BASE$;

    713  0 000002   000000 236000 xsym               LDQ     CMD_BASE$
         0 000003   000000 756000 xsym               STQ     CMD$

      145      714        /**/
      146      715    2       DO WHILE (CMD$ -> CMD_CNTRLWD.FLAGS.ENDCT =FALSE); /* LOOP THRU ALL COMMANDS */

    715  0 000004   000000 470400 xsym               LDP0    CMD$
         0 000005   000000 234100                    SZN     0,,PR0
         0 000006   000523 604000 0                  TMI     EXEC_CP_ALT

      147      716    2           CMD_CODE = CMD$ -> CMD_CNTRLWD.CMD_CODE;

    716  0 000007   000000 470400 xsym               LDP0    CMD$
         0 000010   000000 236100                    LDQ     0,,PR0
         0 000011   000777 376007                    ANQ     511,DL
         0 000012   000000 756000 xsym               STQ     CMD_CODE

      148      717        /**/
      149      718    2   IF_TEST:
      150      719    3           IF (CMD_CODE = IFCMD) THEN DO;

    719  0 000013   000000 235000 xsym  IF_TEST      LDA     CMD_CODE
         0 000014   000107 115007                    CMPA    71,DL
         0 000015   000036 601000 0                  TNZ     s:727

      151      720    3              CALL IF_SSE_CHECK ALTRET(IF_FAIL);

    720  0 000016   000623 701000 0                  TSX1    IF_SSE_CHECK
         0 000017   000535 702000 0                  TSX2    IF_FAIL

      152      721    3              CMD$ = PINCRW(CMD$,CMD$ -> CMD_CNTRLWD.OFFSET);
PL6.E3A0      #001=VEM$MASTER File=VEM$MASTER.:E05TSI                            WED 07/30/97 07:08 Page:23

    721  0 000020   000000 470400 xsym               LDP0    CMD$
         0 000021   000000 236100                    LDQ     0,,PR0
         0 000022   000011 772000                    QRL     9
         0 000023   000777 376007                    ANQ     511,DL
         0 000024   000022 736000                    QLS     18
         0 000025   000000 036000 xsym               ADLQ    CMD$
         0 000026   000000 756000 xsym               STQ     CMD$

      153      722    3              IF (CMD$ -> CMD_CNTRLWD.FLAGS.ENDCT = TRUE) THEN GOTO EXEC_CP_ALT;

    722  0 000027   000000 470400 xsym               LDP0    CMD$
         0 000030   000000 234100                    SZN     0,,PR0
         0 000031   000523 604000 0                  TMI     EXEC_CP_ALT

      154      723    3              CMD_CODE = CMD$ -> CMD_CNTRLWD.CMD_CODE;

    723  0 000032   000000 236100                    LDQ     0,,PR0
         0 000033   000777 376007                    ANQ     511,DL
         0 000034   000000 756000 xsym               STQ     CMD_CODE

      155      724    3              GOTO IF_TEST;

    724  0 000035   000013 710000 0                  TRA     IF_TEST

      156      725    3              END;
      157      726        /**/
      158      727    3           DO CASE (CMD_CODE);

    727  0 000036   000117 115007                    CMPA    79,DL
         0 000037   000041 602005 0                  TNC     s:727+3,AL
         0 000040   000511 710000 0                  TRA     NEXT_CMD
         0 000041   000511 710000 0                  TRA     NEXT_CMD
         0 000042   000274 710000 0                  TRA     s:770
         0 000043   000214 710000 0                  TRA     s:744
         0 000044   000214 710000 0                  TRA     s:744
         0 000045   000260 710000 0                  TRA     s:762
PL6.E3A0      #001=VEM$MASTER File=VEM$MASTER.:E05TSI                            WED 07/30/97 07:08 Page:24
         0 000046   000264 710000 0                  TRA     s:764
         0 000047   000254 710000 0                  TRA     s:760
         0 000050   000511 710000 0                  TRA     NEXT_CMD
         0 000051   000234 710000 0                  TRA     s:752
         0 000052   000160 710000 0                  TRA     s:730
         0 000053   000174 710000 0                  TRA     s:736
         0 000054   000230 710000 0                  TRA     s:750
         0 000055   000250 710000 0                  TRA     s:758
         0 000056   000240 710000 0                  TRA     s:754
         0 000057   000374 710000 0                  TRA     s:804
         0 000060   000244 710000 0                  TRA     s:756
         0 000061   000270 710000 0                  TRA     s:766
         0 000062   000204 710000 0                  TRA     s:740
         0 000063   000511 710000 0                  TRA     NEXT_CMD
         0 000064   000511 710000 0                  TRA     NEXT_CMD
         0 000065   000511 710000 0                  TRA     NEXT_CMD
         0 000066   000224 710000 0                  TRA     s:748
         0 000067   000210 710000 0                  TRA     s:742
         0 000070   000164 710000 0                  TRA     s:732
         0 000071   000170 710000 0                  TRA     s:734
         0 000072   000200 710000 0                  TRA     s:738
         0 000073   000220 710000 0                  TRA     s:746
         0 000074   000511 710000 0                  TRA     NEXT_CMD
         0 000075   000511 710000 0                  TRA     NEXT_CMD
         0 000076   000370 710000 0                  TRA     s:802
         0 000077   000320 710000 0                  TRA     s:782
         0 000100   000314 710000 0                  TRA     s:780
         0 000101   000330 710000 0                  TRA     s:786
         0 000102   000330 710000 0                  TRA     s:786
         0 000103   000330 710000 0                  TRA     s:786
         0 000104   000330 710000 0                  TRA     s:786
         0 000105   000304 710000 0                  TRA     s:776
         0 000106   000304 710000 0                  TRA     s:776
         0 000107   000324 710000 0                  TRA     s:784
         0 000110   000324 710000 0                  TRA     s:784
         0 000111   000324 710000 0                  TRA     s:784
         0 000112   000324 710000 0                  TRA     s:784
PL6.E3A0      #001=VEM$MASTER File=VEM$MASTER.:E05TSI                            WED 07/30/97 07:08 Page:25
         0 000113   000324 710000 0                  TRA     s:784
         0 000114   000324 710000 0                  TRA     s:784
         0 000115   000344 710000 0                  TRA     s:792
         0 000116   000360 710000 0                  TRA     s:798
         0 000117   000360 710000 0                  TRA     s:798
         0 000120   000340 710000 0                  TRA     s:790
         0 000121   000402 710000 0                  TRA     s:807
         0 000122   000210 710000 0                  TRA     s:742
         0 000123   000370 710000 0                  TRA     s:802
         0 000124   000364 710000 0                  TRA     s:800
         0 000125   000354 710000 0                  TRA     s:796
         0 000126   000506 710000 0                  TRA     s:843
         0 000127   000310 710000 0                  TRA     s:778
         0 000130   000300 710000 0                  TRA     s:774
         0 000131   000350 710000 0                  TRA     s:794
         0 000132   000442 710000 0                  TRA     s:825
         0 000133   000472 710000 0                  TRA     s:837
         0 000134   000452 710000 0                  TRA     s:829
         0 000135   000406 710000 0                  TRA     s:811
         0 000136   000422 710000 0                  TRA     s:817
         0 000137   000422 710000 0                  TRA     s:817
         0 000140   000436 710000 0                  TRA     s:823
         0 000141   000456 710000 0                  TRA     s:831
         0 000142   000502 710000 0                  TRA     s:841
         0 000143   000416 710000 0                  TRA     s:815
         0 000144   000466 710000 0                  TRA     s:835
         0 000145   000446 710000 0                  TRA     s:827
         0 000146   000334 710000 0                  TRA     s:788
         0 000147   000511 710000 0                  TRA     NEXT_CMD
         0 000150   000511 710000 0                  TRA     NEXT_CMD
         0 000151   000426 710000 0                  TRA     s:819
         0 000152   000432 710000 0                  TRA     s:821
         0 000153   000476 710000 0                  TRA     s:839
         0 000154   000462 710000 0                  TRA     s:833
         0 000155   000412 710000 0                  TRA     s:813
         0 000156   000412 710000 0                  TRA     s:813
         0 000157   000370 710000 0                  TRA     s:802
PL6.E3A0      #001=VEM$MASTER File=VEM$MASTER.:E05TSI                            WED 07/30/97 07:08 Page:26

      159      728        /**/
      160      729    3           CASE (BPCMD);

      161      730    3              CALL VEF$EXEC_BP;

    730  0 000160   000002 631400 xsym               EPPR1   B_VECTNIL+2
         0 000161   000000 701000 xent               TSX1    VEF$EXEC_BP
         0 000162   000000 011000                    NOP     0
         0 000163   000511 710000 0                  TRA     NEXT_CMD

      162      731    3           CASE (BUILDCMD);

      163      732    3              CALL VEF$EXEC_BUILD;

    732  0 000164   000002 631400 xsym               EPPR1   B_VECTNIL+2
         0 000165   000000 701000 xent               TSX1    VEF$EXEC_BUILD
         0 000166   000000 011000                    NOP     0
         0 000167   000511 710000 0                  TRA     NEXT_CMD

      164      733    3           CASE (COPYCMD);

      165      734    3              CALL VEF$EXEC_COPY;

    734  0 000170   000002 631400 xsym               EPPR1   B_VECTNIL+2
         0 000171   000000 701000 xent               TSX1    VEF$EXEC_COPY
         0 000172   000000 011000                    NOP     0
         0 000173   000511 710000 0                  TRA     NEXT_CMD

      166      735    3           CASE (CRCMD);

      167      736    3              CALL VEF$EXEC_CR;

    736  0 000174   000002 631400 xsym               EPPR1   B_VECTNIL+2
         0 000175   000000 701000 xent               TSX1    VEF$EXEC_CR
         0 000176   000000 011000                    NOP     0
         0 000177   000511 710000 0                  TRA     NEXT_CMD
PL6.E3A0      #001=VEM$MASTER File=VEM$MASTER.:E05TSI                            WED 07/30/97 07:08 Page:27

      168      737    3           CASE (DELETECMD);

      169      738    3              CALL VEF$EXEC_DELETE;

    738  0 000200   000002 631400 xsym               EPPR1   B_VECTNIL+2
         0 000201   000000 701000 xent               TSX1    VEF$EXEC_DELETE
         0 000202   000000 011000                    NOP     0
         0 000203   000511 710000 0                  TRA     NEXT_CMD

      170      739    3           CASE (DIRCMD);

      171      740    3              CALL VEF$EXEC_DIR;

    740  0 000204   000002 631400 xsym               EPPR1   B_VECTNIL+2
         0 000205   000000 701000 xent               TSX1    VEF$EXEC_DIR
         0 000206   000000 011000                    NOP     0
         0 000207   000511 710000 0                  TRA     NEXT_CMD

      172      741    3           CASE (EDITCMD,EXAMINECMD);

      173      742    3              CALL VEF$EXEC_EDIT;

    742  0 000210   000002 631400 xsym               EPPR1   B_VECTNIL+2
         0 000211   000000 701000 xent               TSX1    VEF$EXEC_EDIT
         0 000212   000000 011000                    NOP     0
         0 000213   000511 710000 0                  TRA     NEXT_CMD

      174      743    3           CASE (ENDCMD,XCMD);

      175      744    3              CALL VEF$EXEC_END;

    744  0 000214   000002 631400 xsym               EPPR1   B_VECTNIL+2
         0 000215   000000 701000 xent               TSX1    VEF$EXEC_END
         0 000216   000000 011000                    NOP     0
         0 000217   000511 710000 0                  TRA     NEXT_CMD

PL6.E3A0      #001=VEM$MASTER File=VEM$MASTER.:E05TSI                            WED 07/30/97 07:08 Page:28
      176      745    3           CASE (MERGECMD) ;

      177      746    3              CALL VEF$EXEC_MERGE;

    746  0 000220   000002 631400 xsym               EPPR1   B_VECTNIL+2
         0 000221   000000 701000 xent               TSX1    VEF$EXEC_MERGE
         0 000222   000000 011000                    NOP     0
         0 000223   000511 710000 0                  TRA     NEXT_CMD

      178      747    3           CASE (ROUNDCMD);

      179      748    3              CALL VEF$EXEC_ROUND;

    748  0 000224   000002 631400 xsym               EPPR1   B_VECTNIL+2
         0 000225   000000 701000 xent               TSX1    VEF$EXEC_ROUND
         0 000226   000000 011000                    NOP     0
         0 000227   000511 710000 0                  TRA     NEXT_CMD

      180      749    3           CASE (RPCMD);

      181      750    3              CALL VEF$EXEC_RP;

    750  0 000230   000002 631400 xsym               EPPR1   B_VECTNIL+2
         0 000231   000000 701000 xent               TSX1    VEF$EXEC_RP
         0 000232   000000 011000                    NOP     0
         0 000233   000511 710000 0                  TRA     NEXT_CMD

      182      751    3           CASE (STATUSCMD);

      183      752    3              CALL VEF$EXEC_STATUS;

    752  0 000234   000002 631400 xsym               EPPR1   B_VECTNIL+2
         0 000235   000000 701000 xent               TSX1    VEF$EXEC_STATUS
         0 000236   000000 011000                    NOP     0
         0 000237   000511 710000 0                  TRA     NEXT_CMD

      184      753    3           CASE (TACMD);
PL6.E3A0      #001=VEM$MASTER File=VEM$MASTER.:E05TSI                            WED 07/30/97 07:08 Page:29

      185      754    3              CALL VEF$EXEC_TA;

    754  0 000240   000002 631400 xsym               EPPR1   B_VECTNIL+2
         0 000241   000000 701000 xent               TSX1    VEF$EXEC_TA
         0 000242   000000 011000                    NOP     0
         0 000243   000511 710000 0                  TRA     NEXT_CMD

      186      755    3           CASE (TABCCMD);

      187      756    3              CALL VEF$EXEC_TABC;

    756  0 000244   000002 631400 xsym               EPPR1   B_VECTNIL+2
         0 000245   000000 701000 xent               TSX1    VEF$EXEC_TABC
         0 000246   000000 011000                    NOP     0
         0 000247   000511 710000 0                  TRA     NEXT_CMD

      188      757    3           CASE (TABXCMD);

      189      758    3              CALL VEF$EXEC_TABX;

    758  0 000250   000002 631400 xsym               EPPR1   B_VECTNIL+2
         0 000251   000000 701000 xent               TSX1    VEF$EXEC_TABX
         0 000252   000000 011000                    NOP     0
         0 000253   000511 710000 0                  TRA     NEXT_CMD

      190      759    3           CASE (TYPECMD);

      191      760    3              CALL VEF$EXEC_TYPE;

    760  0 000254   000002 631400 xsym               EPPR1   B_VECTNIL+2
         0 000255   000000 701000 xent               TSX1    VEF$EXEC_TYPE
         0 000256   000000 011000                    NOP     0
         0 000257   000511 710000 0                  TRA     NEXT_CMD

      192      761    3           CASE (QMCMD);

PL6.E3A0      #001=VEM$MASTER File=VEM$MASTER.:E05TSI                            WED 07/30/97 07:08 Page:30
      193      762    3              CALL VEF$EXEC_QM;

    762  0 000260   000002 631400 xsym               EPPR1   B_VECTNIL+2
         0 000261   000000 701000 xent               TSX1    VEF$EXEC_QM
         0 000262   000000 011000                    NOP     0
         0 000263   000511 710000 0                  TRA     NEXT_CMD

      194      763    3           CASE (QM2CMD);

      195      764    3              CALL VEF$EXEC_QM2;

    764  0 000264   000002 631400 xsym               EPPR1   B_VECTNIL+2
         0 000265   000000 701000 xent               TSX1    VEF$EXEC_QM2
         0 000266   000000 011000                    NOP     0
         0 000267   000511 710000 0                  TRA     NEXT_CMD

      196      765    3           CASE (VECMD);

      197      766    3              CALL VEF$EXEC_VE;

    766  0 000270   000002 631400 xsym               EPPR1   B_VECTNIL+2
         0 000271   000000 701000 xent               TSX1    VEF$EXEC_VE
         0 000272   000000 011000                    NOP     0
         0 000273   000511 710000 0                  TRA     NEXT_CMD

      198      767        /**/
      199      768        /**/
      200      769    3           CASE (HELPCMD);

      201      770    3              CALL VEH$HELP;

    770  0 000274   000002 631400 xsym               EPPR1   B_VECTNIL+2
         0 000275   000000 701000 xent               TSX1    VEH$HELP
         0 000276   000000 011000                    NOP     0
         0 000277   000511 710000 0                  TRA     NEXT_CMD

      202      771        /**/
PL6.E3A0      #001=VEM$MASTER File=VEM$MASTER.:E05TSI                            WED 07/30/97 07:08 Page:31
      203      772        /**/
      204      773    3           CASE (ADCMD);

      205      774    3              CALL VER$EXEC_AD;

    774  0 000300   000002 631400 xsym               EPPR1   B_VECTNIL+2
         0 000301   000000 701000 xent               TSX1    VER$EXEC_AD
         0 000302   000000 011000                    NOP     0
         0 000303   000511 710000 0                  TRA     NEXT_CMD

      206      775    3           CASE (CMCMD,CTCMD);

      207      776    3              CALL VER$EXEC_CM;

    776  0 000304   000002 631400 xsym               EPPR1   B_VECTNIL+2
         0 000305   000000 701000 xent               TSX1    VER$EXEC_CM
         0 000306   000000 011000                    NOP     0
         0 000307   000511 710000 0                  TRA     NEXT_CMD

      208      777    3           CASE (DECMD);

      209      778    3              CALL VER$EXEC_DE;

    778  0 000310   000002 631400 xsym               EPPR1   B_VECTNIL+2
         0 000311   000000 701000 xent               TSX1    VER$EXEC_DE
         0 000312   000000 011000                    NOP     0
         0 000313   000511 710000 0                  TRA     NEXT_CMD

      210      779    3           CASE (FDCMD);

      211      780    3              CALL VER$EXEC_FD;

    780  0 000314   000002 631400 xsym               EPPR1   B_VECTNIL+2
         0 000315   000000 701000 xent               TSX1    VER$EXEC_FD
         0 000316   000000 011000                    NOP     0
         0 000317   000511 710000 0                  TRA     NEXT_CMD

PL6.E3A0      #001=VEM$MASTER File=VEM$MASTER.:E05TSI                            WED 07/30/97 07:08 Page:32
      212      781    3           CASE (FSCMD);

      213      782    3              CALL VER$EXEC_FS;

    782  0 000320   000002 631400 xsym               EPPR1   B_VECTNIL+2
         0 000321   000000 701000 xent               TSX1    VER$EXEC_FS
         0 000322   000000 011000                    NOP     0
         0 000323   000511 710000 0                  TRA     NEXT_CMD

      214      783    3           CASE (INCMD,IPCMD,ISCMD,IACMD,IBCMD,APCMD);

      215      784    3              CALL VER$EXEC_IN;

    784  0 000324   000002 631400 xsym               EPPR1   B_VECTNIL+2
         0 000325   000000 701000 xent               TSX1    VER$EXEC_IN
         0 000326   000000 011000                    NOP     0
         0 000327   000511 710000 0                  TRA     NEXT_CMD

      216      785    3           CASE (MKCMD,MDCMD,MKPCMD,MDPCMD);

      217      786    3              CALL VER$EXEC_MK;

    786  0 000330   000002 631400 xsym               EPPR1   B_VECTNIL+2
         0 000331   000000 701000 xent               TSX1    VER$EXEC_MK
         0 000332   000000 011000                    NOP     0
         0 000333   000511 710000 0                  TRA     NEXT_CMD

      218      787    3           CASE (NEWLINECMD);

      219      788    3              CALL VER$EXEC_NEWLINE;

    788  0 000334   000002 631400 xsym               EPPR1   B_VECTNIL+2
         0 000335   000000 701000 xent               TSX1    VER$EXEC_NEWLINE
         0 000336   000000 011000                    NOP     0
         0 000337   000511 710000 0                  TRA     NEXT_CMD

      220      789    3           CASE (OLCMD);
PL6.E3A0      #001=VEM$MASTER File=VEM$MASTER.:E05TSI                            WED 07/30/97 07:08 Page:33

      221      790    3              CALL VER$EXEC_OL;

    790  0 000340   000002 631400 xsym               EPPR1   B_VECTNIL+2
         0 000341   000000 701000 xent               TSX1    VER$EXEC_OL
         0 000342   000000 011000                    NOP     0
         0 000343   000511 710000 0                  TRA     NEXT_CMD

      222      791    3           CASE (RNCMD);

      223      792    3              CALL VER$EXEC_RN;

    792  0 000344   000002 631400 xsym               EPPR1   B_VECTNIL+2
         0 000345   000000 701000 xent               TSX1    VER$EXEC_RN
         0 000346   000000 011000                    NOP     0
         0 000347   000511 710000 0                  TRA     NEXT_CMD

      224      793    3           CASE (RRCMD);

      225      794    3              CALL VER$EXEC_RR;

    794  0 000350   000002 631400 xsym               EPPR1   B_VECTNIL+2
         0 000351   000000 701000 xent               TSX1    VER$EXEC_RR
         0 000352   000000 011000                    NOP     0
         0 000353   000511 710000 0                  TRA     NEXT_CMD

      226      795    3           CASE (TCCMD);

      227      796    3              CALL VER$EXEC_TC;

    796  0 000354   000002 631400 xsym               EPPR1   B_VECTNIL+2
         0 000355   000000 701000 xent               TSX1    VER$EXEC_TC
         0 000356   000000 011000                    NOP     0
         0 000357   000511 710000 0                  TRA     NEXT_CMD

      228      797    3           CASE (TNCMD,TPCMD);

PL6.E3A0      #001=VEM$MASTER File=VEM$MASTER.:E05TSI                            WED 07/30/97 07:08 Page:34
      229      798    3              CALL VER$EXEC_TN;

    798  0 000360   000002 631400 xsym               EPPR1   B_VECTNIL+2
         0 000361   000000 701000 xent               TSX1    VER$EXEC_TN
         0 000362   000000 011000                    NOP     0
         0 000363   000511 710000 0                  TRA     NEXT_CMD

      230      799    3           CASE (TSCMD);

      231      800    3              CALL VER$EXEC_TS;

    800  0 000364   000002 631400 xsym               EPPR1   B_VECTNIL+2
         0 000365   000000 701000 xent               TSX1    VER$EXEC_TS
         0 000366   000000 011000                    NOP     0
         0 000367   000511 710000 0                  TRA     NEXT_CMD

      232      801    3           CASE (TYCMD,FTCMD,INTTYCMD);

      233      802    3              CALL VER$EXEC_TY;

    802  0 000370   000002 631400 xsym               EPPR1   B_VECTNIL+2
         0 000371   000000 701000 xent               TSX1    VER$EXEC_TY
         0 000372   000000 011000                    NOP     0
         0 000373   000511 710000 0                  TRA     NEXT_CMD

      234      803    3           CASE (CLCMD) ;

      235      804    3              LO_EXEC_CLMN = CMD$ -> IN_CMD_TBL.LO_SEQNUM ;

    804  0 000374   000000 470400 xsym               LDP0    CMD$
         0 000375   000001 235100                    LDA     1,,PR0
         0 000376   000000 755000 xsym               STA     LO_EXEC_CLMN

      236      805    3              HI_EXEC_CLMN = CMD$ -> IN_CMD_TBL.HI_SEQNUM ;

    805  0 000377   000002 235100                    LDA     2,,PR0
         0 000400   000000 755000 xsym               STA     HI_EXEC_CLMN
PL6.E3A0      #001=VEM$MASTER File=VEM$MASTER.:E05TSI                            WED 07/30/97 07:08 Page:35
         0 000401   000511 710000 0                  TRA     NEXT_CMD

      237      806    3           CASE (UPARROWCMD);

      238      807    3              CALL VER$EXEC_UPARROW;

    807  0 000402   000002 631400 xsym               EPPR1   B_VECTNIL+2
         0 000403   000000 701000 xent               TSX1    VER$EXEC_UPARROW
         0 000404   000000 011000                    NOP     0
         0 000405   000511 710000 0                  TRA     NEXT_CMD

      239      808        /**/
      240      809        /**/
      241      810    3           CASE (ACMD);

      242      811    3              CALL VEI$EXEC_A;

    811  0 000406   000002 631400 xsym               EPPR1   B_VECTNIL+2
         0 000407   000000 701000 xent               TSX1    VEI$EXEC_A
         0 000410   000000 011000                    NOP     0
         0 000411   000511 710000 0                  TRA     NEXT_CMD

      243      812    3           CASE (CPCMD,CICMD);

      244      813    3              CALL VEI$EXEC_CP ALTRET (EXEC_CP_ALT);

    813  0 000412   000002 631400 xsym               EPPR1   B_VECTNIL+2
         0 000413   000000 701000 xent               TSX1    VEI$EXEC_CP
         0 000414   000523 702000 0                  TSX2    EXEC_CP_ALT
         0 000415   000511 710000 0                  TRA     NEXT_CMD

      245      814    3           CASE (DCMD);

      246      815    3              CALL VEI$EXEC_D;

    815  0 000416   000002 631400 xsym               EPPR1   B_VECTNIL+2
         0 000417   000000 701000 xent               TSX1    VEI$EXEC_D
PL6.E3A0      #001=VEM$MASTER File=VEM$MASTER.:E05TSI                            WED 07/30/97 07:08 Page:36
         0 000420   000000 011000                    NOP     0
         0 000421   000511 710000 0                  TRA     NEXT_CMD

      247      816    3           CASE (ECMD,OCMD);

      248      817    3              CALL VEI$EXEC_E;

    817  0 000422   000002 631400 xsym               EPPR1   B_VECTNIL+2
         0 000423   000000 701000 xent               TSX1    VEI$EXEC_E
         0 000424   000000 011000                    NOP     0
         0 000425   000511 710000 0                  TRA     NEXT_CMD

      249      818    3           CASE (EICMD);

      250      819    3              CALL VEI$EXEC_EI;

    819  0 000426   000002 631400 xsym               EPPR1   B_VECTNIL+2
         0 000427   000000 701000 xent               TSX1    VEI$EXEC_EI
         0 000430   000000 011000                    NOP     0
         0 000431   000511 710000 0                  TRA     NEXT_CMD

      251      820    3           CASE (ELCMD);

      252      821    3              CALL VEI$EXEC_EL;

    821  0 000432   000002 631400 xsym               EPPR1   B_VECTNIL+2
         0 000433   000000 701000 xent               TSX1    VEI$EXEC_EL
         0 000434   000000 011000                    NOP     0
         0 000435   000511 710000 0                  TRA     NEXT_CMD

      253      822    3           CASE (FCMD);

      254      823    3              CALL VEI$EXEC_F;

    823  0 000436   000002 631400 xsym               EPPR1   B_VECTNIL+2
         0 000437   000000 701000 xent               TSX1    VEI$EXEC_F
         0 000440   000000 011000                    NOP     0
PL6.E3A0      #001=VEM$MASTER File=VEM$MASTER.:E05TSI                            WED 07/30/97 07:08 Page:37
         0 000441   000511 710000 0                  TRA     NEXT_CMD

      255      824    3           CASE (JUCMD);

      256      825    3              CALL VEI$EXEC_JU;

    825  0 000442   000002 631400 xsym               EPPR1   B_VECTNIL+2
         0 000443   000000 701000 xent               TSX1    VEI$EXEC_JU
         0 000444   000000 011000                    NOP     0
         0 000445   000511 710000 0                  TRA     NEXT_CMD

      257      826    3           CASE (LCMD);

      258      827    3              CALL VEI$EXEC_L;

    827  0 000446   000002 631400 xsym               EPPR1   B_VECTNIL+2
         0 000447   000000 701000 xent               TSX1    VEI$EXEC_L
         0 000450   000000 011000                    NOP     0
         0 000451   000511 710000 0                  TRA     NEXT_CMD

      259      828    3           CASE (NOCMD);

      260      829    3              CALL VEI$EXEC_NO;

    829  0 000452   000002 631400 xsym               EPPR1   B_VECTNIL+2
         0 000453   000000 701000 xent               TSX1    VEI$EXEC_NO
         0 000454   000000 011000                    NOP     0
         0 000455   000511 710000 0                  TRA     NEXT_CMD

      261      830    3           CASE (PCMD);

      262      831    3              CALL VEI$EXEC_P;

    831  0 000456   000002 631400 xsym               EPPR1   B_VECTNIL+2
         0 000457   000000 701000 xent               TSX1    VEI$EXEC_P
         0 000460   000000 011000                    NOP     0
         0 000461   000511 710000 0                  TRA     NEXT_CMD
PL6.E3A0      #001=VEM$MASTER File=VEM$MASTER.:E05TSI                            WED 07/30/97 07:08 Page:38

      263      832    3           CASE (QRCMD);

      264      833    3              CALL VEI$EXEC_QR;

    833  0 000462   000002 631400 xsym               EPPR1   B_VECTNIL+2
         0 000463   000000 701000 xent               TSX1    VEI$EXEC_QR
         0 000464   000000 011000                    NOP     0
         0 000465   000511 710000 0                  TRA     NEXT_CMD

      265      834    3           CASE (RCMD);

      266      835    3              CALL VEI$EXEC_R;

    835  0 000466   000002 631400 xsym               EPPR1   B_VECTNIL+2
         0 000467   000000 701000 xent               TSX1    VEI$EXEC_R
         0 000470   000000 011000                    NOP     0
         0 000471   000511 710000 0                  TRA     NEXT_CMD

      267      836    3           CASE (RFCMD);

      268      837    3              CALL VEI$EXEC_RF;

    837  0 000472   000002 631400 xsym               EPPR1   B_VECTNIL+2
         0 000473   000000 701000 xent               TSX1    VEI$EXEC_RF
         0 000474   000000 011000                    NOP     0
         0 000475   000511 710000 0                  TRA     NEXT_CMD

      269      838    3           CASE (RLCMD);

      270      839    3              CALL VEI$EXEC_RL ALTRET (IF_TEST); /* ALTRET TO REPEAT          */

    839  0 000476   000002 631400 xsym               EPPR1   B_VECTNIL+2
         0 000477   000000 701000 xent               TSX1    VEI$EXEC_RL
         0 000500   000013 702000 0                  TSX2    IF_TEST
         0 000501   000511 710000 0                  TRA     NEXT_CMD

PL6.E3A0      #001=VEM$MASTER File=VEM$MASTER.:E05TSI                            WED 07/30/97 07:08 Page:39
      271      840    3           CASE (SCMD);

      272      841    3              CALL VEI$EXEC_S;

    841  0 000502   000002 631400 xsym               EPPR1   B_VECTNIL+2
         0 000503   000000 701000 xent               TSX1    VEI$EXEC_S
         0 000504   000000 011000                    NOP     0
         0 000505   000511 710000 0                  TRA     NEXT_CMD

      273      842    3           CASE (TXCMD);

      274      843    3              CALL VEI$EXEC_TX;

    843  0 000506   000002 631400 xsym               EPPR1   B_VECTNIL+2
         0 000507   000000 701000 xent               TSX1    VEI$EXEC_TX
         0 000510   000000 011000                    NOP     0

      275      844        /**/
      276      845    3           END;                            /***/

      277      846        /**/
      278      847    2   NEXT_CMD:
      279      848    2           CMD$ = PINCRW (CMD$,CMD$ -> CMD_CNTRLWD.OFFSET); /* LINK TO NEXT   */

    848  0 000511   000000 470400 xsym  NEXT_CMD     LDP0    CMD$
         0 000512   000000 236100                    LDQ     0,,PR0
         0 000513   000011 772000                    QRL     9
         0 000514   000777 376007                    ANQ     511,DL
         0 000515   000022 736000                    QLS     18
         0 000516   000000 036000 xsym               ADLQ    CMD$
         0 000517   000000 756000 xsym               STQ     CMD$

      280      849    2           END;

    849  0 000520   000000 470400 xsym               LDP0    CMD$
         0 000521   000000 234100                    SZN     0,,PR0
         0 000522   000007 605000 0                  TPL     s:716
PL6.E3A0      #001=VEM$MASTER File=VEM$MASTER.:E05TSI                            WED 07/30/97 07:08 Page:40

      281      850        /**/
      282      851    1   EXEC_CP_ALT:
      283      852    1        CMD$ = CMD_BASE$;

    852  0 000523   000000 236000 xsym  EXEC_CP_ALT  LDQ     CMD_BASE$
         0 000524   000000 756000 xsym               STQ     CMD$

      284      853    2        IF (FLAGS.RLFLAG) THEN DO;

    853  0 000525   000000 236000 xsym               LDQ     FLAGS
         0 000526   004000 316007                    CANQ    2048,DL
         0 000527   000534 600000 0                  TZE     s:857

      285      854    2           FLAGS.TXFLAG = TRUE;

    854  0 000530   000040 236003                    LDQ     32,DU
         0 000531   000000 256000 xsym               ORSQ    FLAGS

      286      855    2           FLAGS.RLFLAG = FALSE;

    855  0 000532   000000 236000 1                  LDQ     0
         0 000533   000000 356000 xsym               ANSQ    FLAGS

      287      856    2           END;

      288      857    1        RETURN;

    857  0 000534   000000 702200 xent               TSX2  ! X66_ARET

      289      858        /**/
      290      859    1   IF_FAIL:
      291      860    1        CMD$ = PINCRW(CMD$,CMD$ -> CMD_CNTRLWD.OFFSET);

    860  0 000535   000000 470400 xsym  IF_FAIL      LDP0    CMD$
         0 000536   000000 236100                    LDQ     0,,PR0
         0 000537   000011 772000                    QRL     9
PL6.E3A0      #001=VEM$MASTER File=VEM$MASTER.:E05TSI                            WED 07/30/97 07:08 Page:41
         0 000540   000777 376007                    ANQ     511,DL
         0 000541   000022 736000                    QLS     18
         0 000542   000000 036000 xsym               ADLQ    CMD$
         0 000543   000000 756000 xsym               STQ     CMD$

      292      861    1        IF_LEVEL = 1;

    861  0 000544   000001 235007                    LDA     1,DL
         0 000545   000000 755000 xsym               STA     IF_LEVEL

      293      862        /**/
      294      863    2        DO WHILE (CMD$ -> CMD_CNTRLWD.FLAGS.ENDCT =  FALSE);

    863  0 000546   000000 470400 xsym               LDP0    CMD$
         0 000547   000000 234100                    SZN     0,,PR0
         0 000550   000613 604000 0                  TMI     s:877

      295      864    2           CMD_CODE = CMD$ -> CMD_CNTRLWD.CMD_CODE;

    864  0 000551   000000 470400 xsym               LDP0    CMD$
         0 000552   000000 236100                    LDQ     0,,PR0
         0 000553   000777 376007                    ANQ     511,DL
         0 000554   000000 756000 xsym               STQ     CMD_CODE

      296      865    2           IF (CMD_CODE = IFCMD) THEN IF_LEVEL = IF_LEVEL + 1; /* NESTED      */

    865  0 000555   000107 116007                    CMPQ    71,DL
         0 000556   000563 601000 0                  TNZ     s:866

    865  0 000557   000000 235000 xsym               LDA     IF_LEVEL
         0 000560   000001 035007                    ADLA    1,DL
         0 000561   000000 755000 xsym               STA     IF_LEVEL
         0 000562   000602 710000 0                  TRA     s:874

      297      866    3           ELSE IF (CMD_CODE = EICMD) THEN DO; /* END IF                      */

    866  0 000563   000110 116007                    CMPQ    72,DL
PL6.E3A0      #001=VEM$MASTER File=VEM$MASTER.:E05TSI                            WED 07/30/97 07:08 Page:42
         0 000564   000572 601000 0                  TNZ     s:870

      298      867    3                 IF_LEVEL = IF_LEVEL - 1;

    867  0 000565   000000 235000 xsym               LDA     IF_LEVEL
         0 000566   000001 135007                    SBLA    1,DL
         0 000567   000000 755000 xsym               STA     IF_LEVEL

      299      868    3                 IF (IF_LEVEL = 0) THEN GOTO NEXT_CMD;

    868  0 000570   000511 600000 0                  TZE     NEXT_CMD

      300      869    3                 END;

    869  0 000571   000602 710000 0                  TRA     s:874

      301      870    3              ELSE IF (CMD_CODE = ELCMD)AND(IF_LEVEL = 1) THEN DO; /* PROCESS ELSE */

    870  0 000572   000111 116007                    CMPQ    73,DL
         0 000573   000602 601000 0                  TNZ     s:874
         0 000574   000000 235000 xsym               LDA     IF_LEVEL
         0 000575   000001 115007                    CMPA    1,DL
         0 000576   000602 601000 0                  TNZ     s:874

      302      871    3                    CMD_CODE = IFCMD;

    871  0 000577   000107 235007                    LDA     71,DL
         0 000600   000000 755000 xsym               STA     CMD_CODE

      303      872    3                    GOTO IF_TEST;

    872  0 000601   000013 710000 0                  TRA     IF_TEST

      304      873    3                    END;
      305      874    2           CMD$ = PINCRW(CMD$,CMD$ -> CMD_CNTRLWD.OFFSET);

    874  0 000602   000000 236100                    LDQ     0,,PR0
PL6.E3A0      #001=VEM$MASTER File=VEM$MASTER.:E05TSI                            WED 07/30/97 07:08 Page:43
         0 000603   000011 772000                    QRL     9
         0 000604   000777 376007                    ANQ     511,DL
         0 000605   000022 736000                    QLS     18
         0 000606   000000 036000 xsym               ADLQ    CMD$
         0 000607   000000 756000 xsym               STQ     CMD$

      306      875    2           END;

    875  0 000610   000000 470400 xsym               LDP0    CMD$
         0 000611   000000 234100                    SZN     0,,PR0
         0 000612   000551 605000 0                  TPL     s:864

      307      876        /**/
      308      877    2        IF (FLAGS.RLFLAG) THEN DO;

    877  0 000613   000000 236000 xsym               LDQ     FLAGS
         0 000614   004000 316007                    CANQ    2048,DL
         0 000615   000622 600000 0                  TZE     s:882

      309      878    2           FLAGS.TXFLAG = TRUE;

    878  0 000616   000040 236003                    LDQ     32,DU
         0 000617   000000 256000 xsym               ORSQ    FLAGS

      310      879    2           FLAGS.RLFLAG = FALSE;

    879  0 000620   000000 236000 1                  LDQ     0
         0 000621   000000 356000 xsym               ANSQ    FLAGS

      311      880    2           END;

      312      881        /**/
      313      882    1        RETURN;

    882  0 000622   000000 702200 xent               TSX2  ! X66_ARET

      314      883        /**/
PL6.E3A0      #001=VEM$MASTER File=VEM$MASTER.:E05TSI                            WED 07/30/97 07:08 Page:44
      315      884        %EJECT;
PL6.E3A0      #001=VEM$MASTER File=VEM$MASTER.:E05TSI                            WED 07/30/97 07:08 Page:45
      316      885        /**/
      317      886    1   IF_SSE_CHECK: PROC ALTRET;

    886  0 000623   200004 741300       IF_SSE_CHECK STX1  ! I+1,,AUTO

      318      887        /**/
      319      888    2   DCL 1 STR_FLGS,
      320      889    2          2 CLMNFLAG BIT(1) UNAL,
      321      890    2          2 NOTFLAG BIT(1) UNAL,
      322      891    2          2 ANDFLAG BIT(1) UNAL,
      323      892    2          2 ORFLAG BIT(1) UNAL,
      324      893    2          2 EORFLAG BIT(1) UNAL,
      325      894    2          2 * BIT(13) UNAL;
      326      895    2   DCL IF_EVAL BIT(1) AUTO;
      327      896        /**/
      328      897    2        IF (CMD$ -> IF_CMD_TBL.SSE.PTR$(0) = ADDR(NIL)) THEN RETURN;

    897  0 000624   000000 470400 xsym               LDP0    CMD$
         0 000625   000004 236100                    LDQ     4,,PR0
         0 000626   000001 116000 xsym               CMPQ    B_VECTNIL+1
         0 000627   000631 601000 0                  TNZ     s:899

    897  0 000630   000001 702211                    TSX2  ! 1,X1

      329      898        /**/
      330      899    2        IF_LEVEL = 0;

    899  0 000631   000000 450000 xsym               STZ     IF_LEVEL

      331      900    2        IF_EVAL = FALSE;

    900  0 000632   200006 450100                    STZ     IF_EVAL,,AUTO

      332      901        /**/
      333      902    2   IF_SSE_1:
      334      903    2        STR_FLGS = CMD$ -> IF_CMD_TBL.SSE.FLAGS(IF_LEVEL);

PL6.E3A0      #001=VEM$MASTER File=VEM$MASTER.:E05TSI                            WED 07/30/97 07:08 Page:46
    903  0 000633   000000 235000 xsym  IF_SSE_1     LDA     IF_LEVEL
         0 000634   000001 735000                    ALS     1
         0 000635   000000 470400 xsym               LDP0    CMD$
         0 000636   000003 220105                    LDX0    3,AL,PR0
         0 000637   200005 740100                    STX0    STR_FLGS,,AUTO

      335      904    2        IF ((IF_EVAL) AND (STR_FLGS.ORFLAG)) THEN GOTO IF_SSE_NEXT;

    904  0 000640   200006 234100                    SZN     IF_EVAL,,AUTO
         0 000641   000645 605000 0                  TPL     s:905
         0 000642   200005 236100                    LDQ     STR_FLGS,,AUTO
         0 000643   040000 316003                    CANQ    16384,DU
         0 000644   000777 601000 0                  TNZ     IF_SSE_NEXT

      336      905    2        IF ((~IF_EVAL) AND (STR_FLGS.ANDFLAG)) THEN GOTO IF_SSE_NEXT;

    905  0 000645   200006 236100                    LDQ     IF_EVAL,,AUTO
         0 000646   400000 376003                    ANQ     -131072,DU
         0 000647   400000 676003                    ERQ     -131072,DU
         0 000650   000654 600000 0                  TZE     s:907
         0 000651   200005 236100                    LDQ     STR_FLGS,,AUTO
         0 000652   100000 316003                    CANQ    32768,DU
         0 000653   000777 601000 0                  TNZ     IF_SSE_NEXT

      337      906        /**/
      338      907    2        CALL VEX$FIND_MATCH(ADDR(CMD$ -> IF_CMD_TBL.SSE(IF_LEVEL)),

    907  0 000654   000000 236000 xsym               LDQ     IF_LEVEL
         0 000655   000023 736000                    QLS     19
         0 000656   000003 036003                    ADLQ    3,DU
         0 000657   000000 036000 xsym               ADLQ    CMD$
         0 000660   200010 756100                    STQ     IF_EVAL+2,,AUTO
         0 000661   000001 236000 1                  LDQ     1
         0 000662   200015 756100                    STQ     IF_EVAL+7,,AUTO
         0 000663   000000 236000 xsym               LDQ     CMD$
         0 000664   000002 036003                    ADLQ    2,DU
         0 000665   200014 756100                    STQ     IF_EVAL+6,,AUTO
PL6.E3A0      #001=VEM$MASTER File=VEM$MASTER.:E05TSI                            WED 07/30/97 07:08 Page:47
         0 000666   000000 236000 xsym               LDQ     CMD$
         0 000667   000001 036003                    ADLQ    1,DU
         0 000670   200013 756100                    STQ     IF_EVAL+5,,AUTO
         0 000671   200010 631500                    EPPR1   IF_EVAL+2,,AUTO
         0 000672   200012 451500                    STP1    IF_EVAL+4,,AUTO
         0 000673   200012 630500                    EPPR0   IF_EVAL+4,,AUTO
         0 000674   000022 631400 xsym               EPPR1   B_VECTNIL+18
         0 000675   000000 701000 xent               TSX1    VEX$FIND_MATCH
         0 000676   000741 702000 0                  TSX2    IF_SSE_2

      339      908    2           CMD$ -> IF_CMD_TBL.LO_CLMN,CMD$ -> IF_CMD_TBL.HI_CLMN,
      340      909    2           MATCH_CLMN) ALTRET(IF_SSE_2);
      341      910                                                /* MATCHING STRING IS PRESENT         */
      342      911    2        IF ((~IF_EVAL) AND

    911  0 000677   200006 236100                    LDQ     IF_EVAL,,AUTO
         0 000700   400000 376003                    ANQ     -131072,DU
         0 000701   400000 676003                    ERQ     -131072,DU
         0 000702   000720 600000 0                  TZE     s:915
         0 000703   200005 236100                    LDQ     STR_FLGS,,AUTO
         0 000704   040000 316003                    CANQ    16384,DU
         0 000705   000710 601000 0                  TNZ     s:911+9
         0 000706   020000 316003                    CANQ    8192,DU
         0 000707   000720 600000 0                  TZE     s:915
         0 000710   200005 236100                    LDQ     STR_FLGS,,AUTO
         0 000711   000001 736000                    QLS     1
         0 000712   400000 376003                    ANQ     -131072,DU
         0 000713   400000 676003                    ERQ     -131072,DU
         0 000714   000720 600000 0                  TZE     s:915

      343      912    2           (((STR_FLGS.ORFLAG) OR (STR_FLGS.EORFLAG)) AND (~STR_FLGS.NOTFLAG)))
      344      913    2        THEN IF_EVAL = TRUE;

    913  0 000715   400000 236003                    LDQ     -131072,DU
         0 000716   200006 756100                    STQ     IF_EVAL,,AUTO
         0 000717   000740 710000 0                  TRA     s:920

PL6.E3A0      #001=VEM$MASTER File=VEM$MASTER.:E05TSI                            WED 07/30/97 07:08 Page:48
      345      914        /**/
      346      915    2        ELSE IF ((IF_EVAL) AND

    915  0 000720   200006 234100                    SZN     IF_EVAL,,AUTO
         0 000721   000727 605000 0                  TPL     s:915+7
         0 000722   200005 236100                    LDQ     STR_FLGS,,AUTO
         0 000723   100000 316003                    CANQ    32768,DU
         0 000724   000727 600000 0                  TZE     s:915+7
         0 000725   200000 316003                    CANQ    65536,DU
         0 000726   000737 601000 0                  TNZ     s:918
         0 000727   200005 236100                    LDQ     STR_FLGS,,AUTO
         0 000730   020000 316003                    CANQ    8192,DU
         0 000731   000740 600000 0                  TZE     s:920
         0 000732   200005 236100                    LDQ     STR_FLGS,,AUTO
         0 000733   000001 736000                    QLS     1
         0 000734   400000 376003                    ANQ     -131072,DU
         0 000735   400000 676003                    ERQ     -131072,DU
         0 000736   000740 600000 0                  TZE     s:920

      347      916    2              ((STR_FLGS.ANDFLAG) AND (STR_FLGS.NOTFLAG)) OR
      348      917    2              ((STR_FLGS.EORFLAG) AND (~STR_FLGS.NOTFLAG)))
      349      918    2           THEN IF_EVAL = FALSE;

    918  0 000737   200006 450100                    STZ     IF_EVAL,,AUTO

      350      919        /**/
      351      920    2        GOTO IF_SSE_NEXT;

    920  0 000740   000777 710000 0                  TRA     IF_SSE_NEXT

      352      921        /**/                                    /* MATCHING STRING NOT FOUND          */
      353      922    2   IF_SSE_2:
      354      923    2        IF ((~IF_EVAL) AND

    923  0 000741   200006 236100       IF_SSE_2     LDQ     IF_EVAL,,AUTO
         0 000742   400000 376003                    ANQ     -131072,DU
         0 000743   400000 676003                    ERQ     -131072,DU
PL6.E3A0      #001=VEM$MASTER File=VEM$MASTER.:E05TSI                            WED 07/30/97 07:08 Page:49
         0 000744   000757 600000 0                  TZE     s:927
         0 000745   200005 236100                    LDQ     STR_FLGS,,AUTO
         0 000746   200000 316003                    CANQ    65536,DU
         0 000747   000757 600000 0                  TZE     s:927
         0 000750   040000 316003                    CANQ    16384,DU
         0 000751   000754 601000 0                  TNZ     s:925
         0 000752   020000 316003                    CANQ    8192,DU
         0 000753   000757 600000 0                  TZE     s:927

      355      924    2           ((STR_FLGS.NOTFLAG)  AND ((STR_FLGS.ORFLAG) OR (STR_FLGS.EORFLAG))))
      356      925    2        THEN IF_EVAL = TRUE;

    925  0 000754   400000 236003                    LDQ     -131072,DU
         0 000755   200006 756100                    STQ     IF_EVAL,,AUTO
         0 000756   000777 710000 0                  TRA     IF_SSE_NEXT

      357      926        /**/
      358      927    2        ELSE IF ((IF_EVAL) AND

    927  0 000757   200006 234100                    SZN     IF_EVAL,,AUTO
         0 000760   000777 605000 0                  TPL     IF_SSE_NEXT
         0 000761   200005 236100                    LDQ     STR_FLGS,,AUTO
         0 000762   100000 316003                    CANQ    32768,DU
         0 000763   000771 600000 0                  TZE     s:927+10
         0 000764   200005 236100                    LDQ     STR_FLGS,,AUTO
         0 000765   000001 736000                    QLS     1
         0 000766   400000 376003                    ANQ     -131072,DU
         0 000767   400000 676003                    ERQ     -131072,DU
         0 000770   000776 601000 0                  TNZ     s:930
         0 000771   200005 236100                    LDQ     STR_FLGS,,AUTO
         0 000772   020000 316003                    CANQ    8192,DU
         0 000773   000777 600000 0                  TZE     IF_SSE_NEXT
         0 000774   200000 316003                    CANQ    65536,DU
         0 000775   000777 600000 0                  TZE     IF_SSE_NEXT

      359      928    2              (((STR_FLGS.ANDFLAG) AND (~STR_FLGS.NOTFLAG)) OR
      360      929    2              ((STR_FLGS.EORFLAG) AND (STR_FLGS.NOTFLAG))))
PL6.E3A0      #001=VEM$MASTER File=VEM$MASTER.:E05TSI                            WED 07/30/97 07:08 Page:50
      361      930    2           THEN IF_EVAL = FALSE;

    930  0 000776   200006 450100                    STZ     IF_EVAL,,AUTO

      362      931        /**/
      363      932    2   IF_SSE_NEXT:
      364      933    2        IF_LEVEL = IF_LEVEL + 1;

    933  0 000777   000000 235000 xsym  IF_SSE_NEXT  LDA     IF_LEVEL
         0 001000   000001 035007                    ADLA    1,DL
         0 001001   000000 755000 xsym               STA     IF_LEVEL

      365      934    3        IF (CMD$ -> IF_CMD_TBL.SSE.PTR$(IF_LEVEL) = ADDR(NIL)) THEN DO;

    934  0 001002   000001 735000                    ALS     1
         0 001003   000000 470400 xsym               LDP0    CMD$
         0 001004   000004 236105                    LDQ     4,AL,PR0
         0 001005   000001 116000 xsym               CMPQ    B_VECTNIL+1
         0 001006   001036 601000 0                  TNZ     s:941

      366      935    3           CALL SEARCHR(REC_SIZE, I, B$SR_NON_BLANK, REC_BUF, REC_SIZE) ;

    935  0 001007   000000 236000 xsym               LDQ     REC_SIZE
         0 001010   000000 471400 xsym               LDP1    B$SR_NON_BLANK$
         0 001011   000000 620006                    EAX0    0,QL
         0 001012   000000 165440                    TCTR
         0 001013   000000 000010 xsym               ADSC9   REC_BUF                  cn=0,n=*X0
         0 001014   100000 000100                    ARG     0,,PR1
         0 001015   000000 000000 xsym               ARG     REC_SIZE
         0 001016   000000 235000 xsym               LDA     REC_SIZE
         0 001017   000033 771000                    ARL     27
         0 001020   200003 755100                    STA     I,,AUTO
         0 001021   000000 551040 xsym               STBA    REC_SIZE,'40'O
         0 001022   001025 606400 0                  TTN     s:936
         0 001023   000000 054000 xsym               AOS     REC_SIZE
         0 001024   000000 156000 xsym               SSQ     REC_SIZE

PL6.E3A0      #001=VEM$MASTER File=VEM$MASTER.:E05TSI                            WED 07/30/97 07:08 Page:51
      367      936    3           REC_SIZE = REC_SIZE + 1 ;

    936  0 001025   000000 236000 xsym               LDQ     REC_SIZE
         0 001026   000001 036007                    ADLQ    1,DL
         0 001027   000000 756000 xsym               STQ     REC_SIZE

      368      937    3           IF (IF_EVAL) THEN RETURN;

    937  0 001030   200006 234100                    SZN     IF_EVAL,,AUTO
         0 001031   001034 605000 0                  TPL     s:938

    937  0 001032   200004 221300                    LDX1  ! I+1,,AUTO
         0 001033   000001 702211                    TSX2  ! 1,X1

      369      938    3           ELSE ALTRETURN;

    938  0 001034   200004 221300                    LDX1  ! I+1,,AUTO
         0 001035   000000 702211                    TSX2  ! 0,X1

      370      939    3           END;
      371      940        /**/
      372      941    2        GOTO IF_SSE_1;

    941  0 001036   000633 710000 0                  TRA     IF_SSE_1
      373      942        /**/
      374      943    2   END;
      375      944    1   END;                                    /* END VEM$MASTER                     */

PL6.E3A0      #001=VEM$MASTER File=VEM$MASTER.:E05TSI                            WED 07/30/97 07:08 Page:52
--  Include file information  --

   B$TABLES_C.:E05TOU  cannot be made into a system file and is referenced.
   VE_FLAGS_R.:E05TOU  cannot be made into a system file and is referenced.
   VE_PERR_C.:E05TOU  is referenced.
   VE_SUBS_C.:E05TOU  is referenced.
      No diagnostics issued in procedure VEM$MASTER.
PL6.E3A0      #001=VEM$MASTER File=VEM$MASTER.:E05TSI                            WED 07/30/97 07:08 Page:53

 **** Variables and constants ****

  ****  Auto variables  ****

  ****  Scalars and arrays  ****
OctLoc.c.b A Datatyp(siz) R M Lvl/name                 OctLoc.c.b A Datatyp(siz) R M Lvl/name

     3-0-0/w UBIN        r     1 I                          6-0-0/b BIT         r     1 IF_EVAL
     5-0-0/b STRC(18)    r     1 STR_FLGS

  ****  SYMREF variables  ****

  ****  Scalars and arrays  ****
OctLoc.c.b A Datatyp(siz) R M Lvl/name                 OctLoc.c.b A Datatyp(siz) R M Lvl/name

     0-0-0/w PTR         r     1 B$SR_NON_BLANK$            0-0-0/w PTR         r     1 CMD$
     0-0-0/w PTR         r     1 CMD_BASE$                  0-0-0/w UBIN        r     1 CMD_CODE
     0-0-0/b STRC(72)    r     1 FLAGS                      0-0-0/w UBIN        r     1 HI_EXEC_CLMN
     0-0-0/w UBIN        r     1 IF_LEVEL                   0-0-0/w UBIN        r     1 LO_EXEC_CLMN
     0-0-0/w UBIN        r     1 MATCH_CLMN                 0-0-0/c CHAR(1024)  r     1 REC_BUF
     0-0-0/w UBIN        r     1 REC_SIZE

  ****  BASED and DCB variables  ****

  ****  Scalars and arrays  ****
OctLoc.c.b A Datatyp(siz) R M Lvl/name                 OctLoc.c.b A Datatyp(siz) R M Lvl/name

     0-0-0/d STRC(4608)  r     1 B$SR_NON_BLANK             0-0-0/w STRC        r     1 CMD_CNTRLWD
     0-0-0/w STRC(180)   r     1 IF_CMD_TBL                 0-0-0/w STRC(180)   r     1 IN_CMD_TBL


   Procedure VEM$MASTER requires 543 words for executable code.
   Procedure VEM$MASTER requires 14 words of local(AUTO) storage.

    No errors detected in file VEM$MASTER.:E05TSI    .
PL6.E3A0      #001=VEM$MASTER File=VEM$MASTER.:E05TSI                            WED 07/30/97 07:08 Page:54
          *** CROSS REFERENCE LISTING ***
**     DENOTES     IDENTIFIER DEFINITION
<<                 IDENTIFIER'S VALUE SET
>>                 IDENTIFIER'S VALUE USED
<>                 IDENTIFIER SET AND/OR USED
--                 IDENTIFIER REFERENCED
PL6.E3A0      #001=VEM$MASTER File=VEM$MASTER.:E05TSI                            WED 07/30/97 07:08 Page:55
          MINI XREF LISTING

B$SR_NON_BLANK
       696**DCL       935>>CALLBLT
B$SR_NON_BLANK$
       695**DCL       696--IMP-PTR   935>>CALLBLT
CMD$
       702**DCL       713<<ASSIGN    715>>DOWHILE   716>>ASSIGN    721<<ASSIGN    721>>ASSIGN    721>>ASSIGN
       722>>IF        723>>ASSIGN    804>>ASSIGN    805>>ASSIGN    848<<ASSIGN    848>>ASSIGN    848>>ASSIGN
       852<<ASSIGN    860<<ASSIGN    860>>ASSIGN    860>>ASSIGN    863>>DOWHILE   864>>ASSIGN    874<<ASSIGN
       874>>ASSIGN    874>>ASSIGN    897>>IF        903>>ASSIGN    907>>CALL      907>>CALL      907>>CALL
       934>>IF
CMD_BASE$
       703**DCL       713>>ASSIGN    852>>ASSIGN
CMD_CNTRLWD.CMD_CODE
       438**DCL       716>>ASSIGN    723>>ASSIGN    864>>ASSIGN
CMD_CNTRLWD.FLAGS.ENDCT
       435**DCL       715>>DOWHILE   722>>IF        863>>DOWHILE
CMD_CNTRLWD.OFFSET
       437**DCL       721>>ASSIGN    848>>ASSIGN    860>>ASSIGN    874>>ASSIGN
CMD_CODE
       700**DCL       716<<ASSIGN    719>>IF        723<<ASSIGN    727>>DOCASE    864<<ASSIGN    865>>IF
       866>>IF        870>>IF        871<<ASSIGN
EXEC_CP_ALT
       852**LABEL     722--GOTO      813--CALLALT
FLAGS.RLFLAG
       568**DCL       853>>IF        855<<ASSIGN    877>>IF        879<<ASSIGN
FLAGS.TXFLAG
       556**DCL       854<<ASSIGN    878<<ASSIGN
HI_EXEC_CLMN
       705**DCL       805<<ASSIGN
I
       429**DCL       935<<CALLBLT
IF_CMD_TBL.HI_CLMN
PL6.E3A0      #001=VEM$MASTER File=VEM$MASTER.:E05TSI                            WED 07/30/97 07:08 Page:56
       442**DCL       907<>CALL
IF_CMD_TBL.LO_CLMN
       441**DCL       907<>CALL
IF_CMD_TBL.SSE
       443**DCL       907--CALL
IF_CMD_TBL.SSE.FLAGS
       444**DCL       903>>ASSIGN
IF_CMD_TBL.SSE.PTR$
       452**DCL       897>>IF        934>>IF
IF_EVAL IN PROCEDURE IF_SSE_CHECK
       895**DCL       900<<ASSIGN    904>>IF        905>>IF        911>>IF        913<<ASSIGN    915>>IF
       918<<ASSIGN    923>>IF        925<<ASSIGN    927>>IF        930<<ASSIGN    937>>IF
IF_FAIL
       860**LABEL     720--CALLALT
IF_LEVEL
       701**DCL       861<<ASSIGN    865<<ASSIGN    865>>ASSIGN    867<<ASSIGN    867>>ASSIGN    868>>IF
       870>>IF        899<<ASSIGN    903>>ASSIGN    907>>CALL      933<<ASSIGN    933>>ASSIGN    934>>IF
IF_SSE_1 IN PROCEDURE IF_SSE_CHECK
       903**LABEL     941--GOTO
IF_SSE_2 IN PROCEDURE IF_SSE_CHECK
       923**LABEL     907--CALLALT
IF_SSE_CHECK
       886**PROC      720--CALL
IF_SSE_NEXT IN PROCEDURE IF_SSE_CHECK
       933**LABEL     904--GOTO      905--GOTO      920--GOTO
IF_TEST
       719**LABEL     724--GOTO      839--CALLALT   872--GOTO
IN_CMD_TBL.HI_SEQNUM
       456**DCL       805>>ASSIGN
IN_CMD_TBL.LO_SEQNUM
       455**DCL       804>>ASSIGN
LO_EXEC_CLMN
       704**DCL       804<<ASSIGN
MATCH_CLMN
       699**DCL       907<>CALL
NEXT_CMD
PL6.E3A0      #001=VEM$MASTER File=VEM$MASTER.:E05TSI                            WED 07/30/97 07:08 Page:57
       848**LABEL     868--GOTO
REC_BUF
       707**DCL       935>>CALLBLT
REC_SIZE
       706**DCL       935<<CALLBLT   935>>CALLBLT   936<<ASSIGN    936>>ASSIGN
STR_FLGS IN PROCEDURE IF_SSE_CHECK
       888**DCL       903<<ASSIGN
STR_FLGS.ANDFLAG IN PROCEDURE IF_SSE_CHECK
       891**DCL       905>>IF        915>>IF        927>>IF
STR_FLGS.EORFLAG IN PROCEDURE IF_SSE_CHECK
       893**DCL       911>>IF        915>>IF        923>>IF        927>>IF
STR_FLGS.NOTFLAG IN PROCEDURE IF_SSE_CHECK
       890**DCL       911>>IF        915>>IF        915>>IF        923>>IF        927>>IF        927>>IF
STR_FLGS.ORFLAG IN PROCEDURE IF_SSE_CHECK
       892**DCL       904>>IF        911>>IF        923>>IF
VEF$EXEC_BP
       468**DCL-ENT   730--CALL
VEF$EXEC_BUILD
       469**DCL-ENT   732--CALL
VEF$EXEC_COPY
       470**DCL-ENT   734--CALL
VEF$EXEC_CR
       471**DCL-ENT   736--CALL
VEF$EXEC_DELETE
       472**DCL-ENT   738--CALL
VEF$EXEC_DIR
       473**DCL-ENT   740--CALL
VEF$EXEC_EDIT
       474**DCL-ENT   742--CALL
VEF$EXEC_END
       475**DCL-ENT   744--CALL
VEF$EXEC_MERGE
       476**DCL-ENT   746--CALL
VEF$EXEC_QM
       484**DCL-ENT   762--CALL
VEF$EXEC_QM2
PL6.E3A0      #001=VEM$MASTER File=VEM$MASTER.:E05TSI                            WED 07/30/97 07:08 Page:58
       485**DCL-ENT   764--CALL
VEF$EXEC_ROUND
       477**DCL-ENT   748--CALL
VEF$EXEC_RP
       478**DCL-ENT   750--CALL
VEF$EXEC_STATUS
       479**DCL-ENT   752--CALL
VEF$EXEC_TA
       480**DCL-ENT   754--CALL
VEF$EXEC_TABC
       481**DCL-ENT   756--CALL
VEF$EXEC_TABX
       482**DCL-ENT   758--CALL
VEF$EXEC_TYPE
       483**DCL-ENT   760--CALL
VEF$EXEC_VE
       486**DCL-ENT   766--CALL
VEH$HELP
       490**DCL-ENT   770--CALL
VEI$EXEC_A
       513**DCL-ENT   811--CALL
VEI$EXEC_CP
       514**DCL-ENT   813--CALL
VEI$EXEC_D
       515**DCL-ENT   815--CALL
VEI$EXEC_E
       516**DCL-ENT   817--CALL
VEI$EXEC_EI
       517**DCL-ENT   819--CALL
VEI$EXEC_EL
       518**DCL-ENT   821--CALL
VEI$EXEC_F
       519**DCL-ENT   823--CALL
VEI$EXEC_JU
       520**DCL-ENT   825--CALL
VEI$EXEC_L
PL6.E3A0      #001=VEM$MASTER File=VEM$MASTER.:E05TSI                            WED 07/30/97 07:08 Page:59
       521**DCL-ENT   827--CALL
VEI$EXEC_NO
       522**DCL-ENT   829--CALL
VEI$EXEC_P
       523**DCL-ENT   831--CALL
VEI$EXEC_QR
       524**DCL-ENT   833--CALL
VEI$EXEC_R
       525**DCL-ENT   835--CALL
VEI$EXEC_RF
       526**DCL-ENT   837--CALL
VEI$EXEC_RL
       527**DCL-ENT   839--CALL
VEI$EXEC_S
       528**DCL-ENT   841--CALL
VEI$EXEC_TX
       529**DCL-ENT   843--CALL
VER$EXEC_AD
       494**DCL-ENT   774--CALL
VER$EXEC_CM
       495**DCL-ENT   776--CALL
VER$EXEC_DE
       496**DCL-ENT   778--CALL
VER$EXEC_FD
       497**DCL-ENT   780--CALL
VER$EXEC_FS
       498**DCL-ENT   782--CALL
VER$EXEC_IN
       499**DCL-ENT   784--CALL
VER$EXEC_MK
       500**DCL-ENT   786--CALL
VER$EXEC_NEWLINE
       501**DCL-ENT   788--CALL
VER$EXEC_OL
       502**DCL-ENT   790--CALL
VER$EXEC_RN
PL6.E3A0      #001=VEM$MASTER File=VEM$MASTER.:E05TSI                            WED 07/30/97 07:08 Page:60
       503**DCL-ENT   792--CALL
VER$EXEC_RR
       504**DCL-ENT   794--CALL
VER$EXEC_TC
       505**DCL-ENT   796--CALL
VER$EXEC_TN
       506**DCL-ENT   798--CALL
VER$EXEC_TS
       507**DCL-ENT   800--CALL
VER$EXEC_TY
       508**DCL-ENT   802--CALL
VER$EXEC_UPARROW
       509**DCL-ENT   807--CALL
VEX$FIND_MATCH
       464**DCL-ENT   907--CALL
