VERSION E05

PL6.E3A0      #001=VEX$CHECK_FIRST File=VEX$CHECK_FIRST.:E05TSI                  WED 07/30/97 07:11 Page:1
        1        1        /*M*    VEX$CHECK_FIRST - SEE IF COMMAND IS FIRST ON THE COMMAND LINE */
        2        2        /*T***********************************************************/
        3        3        /*T*                                                         */
        4        4        /*T* Copyright (c) Bull HN Information Systems Inc., 1997    */
        5        5        /*T*                                                         */
        6        6        /*T***********************************************************/
        7        7        /*X*/
        8        8        /**/
        9        9        VEX$CHECK_FIRST: PROC ALTRET;
       10       10        /**/
       11       11        /*F*     NAME:     VEX$CHECK_FIRST
       12       12                 PURPOSE:  TO CHECK THE FIRST COMMAND FLAG AND ALTRETURN IF
       13       13                           NOT SET. VEX$CHECK_FIRST ALSO SETS FLAGS.NOCOMPCMD
       14       14                           TO INDICATE THAT THIS MUST BE THE LAST COMMAND.  */
       15       15        /**/
       16       16        /*D*     NAME:     VEX$CHECK_FIRST
       17       17                 PARAMETERS: NONE
       18       18                 DESCRIPTION: FLAGS.FIRSTCMD IS TESTED AND IF NOT SET THEN
       19       19                           AN ALTRETURN IS MADE TO THE CALLER. IF SET THEN
       20       20                           FLAGS.NOCOMPCMD TO ALSO SET BEFORE A NORMAL RETURN
       21       21                           IS MADE.                                */
       22       22        /*****************************************************************/
       23       23        /*   SYMREFS   SYMREFS   SYMREFS   SYMREFS   SYMREFS   SYMREFS   */
       24       24        /*****************************************************************/
       25       25        /**/
       26       26        %INCLUDE VE_FLAGS_R;
       27       77        /**/
       28       78    1   DCL VEX$ERROR ENTRY(2) ALTRET;
       29       79        %INCLUDE VE_SUBS_C;
       30      273        %INCLUDE VE_PERR_C;
       31      490        /**/
       32      491        /*****************************************************************************/
       33      492        /*   PROCEDURE   PROCEDURE   PROCEDURE   PROCEDURE   PROCEDURE   PROCEDURE   */
       34      493        /*****************************************************************************/
       35      494    2           IF (~FLAGS.FIRSTCMD) THEN DO;
       36      495    2              CALL VEX$ERROR(E$E_NOTCOMP,3);
       37      496        /**/
PL6.E3A0      #001=VEX$CHECK_FIRST File=VEX$CHECK_FIRST.:E05TSI                  WED 07/30/97 07:11 Page:2
       38      497        /*E*     ERROR:    VEE-E$E_NOTCOMP-0
       39      498                 DESCRIPTION: A command that must be first on the command
       40      499                           line is not.
       41      500        */
       42      501    2              ALTRETURN;
       43      502    2              END;
       44      503    1           FLAGS.NOCOMPCMD = TRUE;
       45      504    1           RETURN;
       46      505    1   END;

PL6.E3A0      #001=VEX$CHECK_FIRST File=VEX$CHECK_FIRST.:E05TSI                  WED 07/30/97 07:11 Page:3
--  Include file information  --

   VE_PERR_C.:E05TOU  is referenced.
   VE_SUBS_C.:E05TOU  is referenced.
   VE_FLAGS_R.:E05TOU  cannot be made into a system file and is referenced.
      No diagnostics issued in procedure VEX$CHECK_FIRST.

   Procedure VEX$CHECK_FIRST requires 15 words for executable code.
   Procedure VEX$CHECK_FIRST requires 4 words of local(AUTO) storage.

    No errors detected in file VEX$CHECK_FIRST.:E05TSI    .

PL6.E3A0      #001=VEX$CHECK_FIRST File=VEX$CHECK_FIRST.:E05TSI                  WED 07/30/97 07:11 Page:4

 Object Unit name= VEX$CHECK_FIRST                            File name= VEX$CHECK_FIRST.:E05TOU
 UTS= JUL 30 '97 07:11:04.84 WED                              Compiler= PL-6/E31         Sev=      00
 SharedLib= :SHARED_SYSTEM                                    Alt SharedLib=


    ****  Control sections  ****

 Sect   Type Bound  Init  Size OctSiz  Section name(segment info)
    0   Proc  even  none    15     17  VEX$CHECK_FIRST
    1  RoData even  none     3      3  VEX$CHECK_FIRST

    ****  Entry defs  ****

                              Check   Calling
                             calling  sequence
  Sect OctLoc Primary Altret sequence   type   Parms  Name
     0      0   yes    yes     yes      Std        0  VEX$CHECK_FIRST

  ****  Entry refs  ****

         Check        Calling
        calling       sequence
Altret sequence SRef   type   Args  Name
 yes     yes           Std       2 VEX$ERROR
                       nStd      0 X66_AUTO_0
                       Std       0 B_CONSPOOL_D
                       nStd      0 X66_AALT
                       nStd      0 X66_ARET

  ****  Data refs  ****

  Flags:  r = read only, s = secondary
Flgs Name                             Flgs Name                             Flgs Name
     FLAGS                                 B_VECTNIL
PL6.E3A0      #001=VEX$CHECK_FIRST File=VEX$CHECK_FIRST.:E05TSI                  WED 07/30/97 07:11 Page:5

  ****  Segment refs  ****

  Flags:  r = read only, s = secondary
Flgs Name                             Flgs Name                             Flgs Name
     ISSID
PL6.E3A0      #001=VEX$CHECK_FIRST File=VEX$CHECK_FIRST.:E05TSI                  WED 07/30/97 07:11 Page:6


        1        1        /*M*    VEX$CHECK_FIRST - SEE IF COMMAND IS FIRST ON THE COMMAND LINE */
        2        2        /*T***********************************************************/
        3        3        /*T*                                                         */
        4        4        /*T* Copyright (c) Bull HN Information Systems Inc., 1997    */
        5        5        /*T*                                                         */
        6        6        /*T***********************************************************/
        7        7        /*X*/
        8        8        /**/
        9        9        VEX$CHECK_FIRST: PROC ALTRET;

      9  0 000000   000000 700200 xent  VEX$CHECK_F* TSX0  ! X66_AUTO_0
         0 000001   000004 000000                    ZERO    4,0

       10       10        /**/
       11       11        /*F*     NAME:     VEX$CHECK_FIRST
       12       12                 PURPOSE:  TO CHECK THE FIRST COMMAND FLAG AND ALTRETURN IF
       13       13                           NOT SET. VEX$CHECK_FIRST ALSO SETS FLAGS.NOCOMPCMD
       14       14                           TO INDICATE THAT THIS MUST BE THE LAST COMMAND.  */
       15       15        /**/
       16       16        /*D*     NAME:     VEX$CHECK_FIRST
       17       17                 PARAMETERS: NONE
       18       18                 DESCRIPTION: FLAGS.FIRSTCMD IS TESTED AND IF NOT SET THEN
       19       19                           AN ALTRETURN IS MADE TO THE CALLER. IF SET THEN
       20       20                           FLAGS.NOCOMPCMD TO ALSO SET BEFORE A NORMAL RETURN
       21       21                           IS MADE.                                */
       22       22        /*****************************************************************/
       23       23        /*   SYMREFS   SYMREFS   SYMREFS   SYMREFS   SYMREFS   SYMREFS   */
       24       24        /*****************************************************************/
       25       25        /**/
       26       26        %INCLUDE VE_FLAGS_R;
       27       77        /**/
       28       78    1   DCL VEX$ERROR ENTRY(2) ALTRET;
       29       79        %INCLUDE VE_SUBS_C;
       30      273        %INCLUDE VE_PERR_C;
       31      490        /**/
       32      491        /*****************************************************************************/
PL6.E3A0      #001=VEX$CHECK_FIRST File=VEX$CHECK_FIRST.:E05TSI                  WED 07/30/97 07:11 Page:7
       33      492        /*   PROCEDURE   PROCEDURE   PROCEDURE   PROCEDURE   PROCEDURE   PROCEDURE   */
       34      493        /*****************************************************************************/
       35      494    2           IF (~FLAGS.FIRSTCMD) THEN DO;

    494  0 000002   000000 236000 xsym               LDQ     FLAGS
         0 000003   000017 736000                    QLS     15
         0 000004   400000 376003                    ANQ     -131072,DU
         0 000005   400000 676003                    ERQ     -131072,DU
         0 000006   000014 600000 0                  TZE     s:503

       36      495    2              CALL VEX$ERROR(E$E_NOTCOMP,3);

    495  0 000007   000001 630400 1                  EPPR0   1
         0 000010   000020 631400 xsym               EPPR1   B_VECTNIL+16
         0 000011   000000 701000 xent               TSX1    VEX$ERROR
         0 000012   000000 011000                    NOP     0

       37      496        /**/
       38      497        /*E*     ERROR:    VEE-E$E_NOTCOMP-0
       39      498                 DESCRIPTION: A command that must be first on the command
       40      499                           line is not.
       41      500        */
       42      501    2              ALTRETURN;

    501  0 000013   000000 702200 xent               TSX2  ! X66_AALT

       43      502    2              END;
       44      503    1           FLAGS.NOCOMPCMD = TRUE;

    503  0 000014   000010 236003                    LDQ     8,DU
         0 000015   000000 256000 xsym               ORSQ    FLAGS

       45      504    1           RETURN;

    504  0 000016   000000 702200 xent               TSX2  ! X66_ARET
       46      505    1   END;

PL6.E3A0      #001=VEX$CHECK_FIRST File=VEX$CHECK_FIRST.:E05TSI                  WED 07/30/97 07:11 Page:8
--  Include file information  --

   VE_PERR_C.:E05TOU  is referenced.
   VE_SUBS_C.:E05TOU  is referenced.
   VE_FLAGS_R.:E05TOU  cannot be made into a system file and is referenced.
      No diagnostics issued in procedure VEX$CHECK_FIRST.
PL6.E3A0      #001=VEX$CHECK_FIRST File=VEX$CHECK_FIRST.:E05TSI                  WED 07/30/97 07:11 Page:9

 **** Variables and constants ****

  ****  SYMREF variables  ****

  ****  Scalars and arrays  ****
OctLoc.c.b A Datatyp(siz) R M Lvl/name                 OctLoc.c.b A Datatyp(siz) R M Lvl/name

     0-0-0/b STRC(72)    r     1 FLAGS


   Procedure VEX$CHECK_FIRST requires 15 words for executable code.
   Procedure VEX$CHECK_FIRST requires 4 words of local(AUTO) storage.

    No errors detected in file VEX$CHECK_FIRST.:E05TSI    .
PL6.E3A0      #001=VEX$CHECK_FIRST File=VEX$CHECK_FIRST.:E05TSI                  WED 07/30/97 07:11 Page:10
          *** CROSS REFERENCE LISTING ***
**     DENOTES     IDENTIFIER DEFINITION
<<                 IDENTIFIER'S VALUE SET
>>                 IDENTIFIER'S VALUE USED
<>                 IDENTIFIER SET AND/OR USED
--                 IDENTIFIER REFERENCED
PL6.E3A0      #001=VEX$CHECK_FIRST File=VEX$CHECK_FIRST.:E05TSI                  WED 07/30/97 07:11 Page:11
          MINI XREF LISTING

FLAGS.FIRSTCMD
        50**DCL       494>>IF
FLAGS.NOCOMPCMD
        49**DCL       503<<ASSIGN
VEX$ERROR
        78**DCL-ENT   495--CALL
