VERSION E05

PL6.E3A0      #001=VEX$CLMN_DFLT File=VEX$CLMN_DFLT.:E05TSI                      WED 07/30/97 07:11 Page:1
        1        1        /*M*    VEX$CLMN_DFLT - SET EDIT SELECT RANGE TO DEFAULT */
        2        2        /*T***********************************************************/
        3        3        /*T*                                                         */
        4        4        /*T* Copyright (c) Bull HN Information Systems Inc., 1997    */
        5        5        /*T*                                                         */
        6        6        /*T***********************************************************/
        7        7        /*X*/
        8        8        VEX$CLMN_DFLT: PROC;
        9        9        /**/
       10       10        /*F*     NAME:     VEX$CLMN_DFLT
       11       11                 PURPOSE:  TO SET THE COLUMN DELIMITING CELLS AND THE STRING
       12       12                           SELECTION CRITERIA TO THEIR DEFAULT VALUES.   */
       13       13        /**/
       14       14        /*D*     NAME:     VEX$CLMN_DFLT
       15       15                 PARAMETERS: NONE
       16       16                 DESCRIPTION: THE CELLS DELIMITING THE EXECUTION AND SEARCH
       17       17                           RANGES ARE SET TO THE DEFAULT VALUES OF THE WHOLE RECORD.
       18       18                           THE WHOLE RECORD IS REPRESENTED BY THE VALUES ZERO(0)
       19       19                           TO MAX_CLMN - 1. THEN THE STRING SELECTION EXPRESSION
       20       20                           IS SET TO ITS DEFAULT OF NONE.          */
       21       21        /**/
       22       22        /*****************************************************************/
       23       23        /*   SYMREFS   SYMREFS   SYMREFS   SYMREFS   SYMREFS   SYMREFS   */
       24       24        /*****************************************************************/
       25       25    1   DCL LO_SRCH_CLMN UBIN(36) SYMREF;
       26       26    1   DCL HI_SRCH_CLMN UBIN(36) SYMREF;
       27       27    1   DCL LO_EXEC_CLMN UBIN(36) SYMREF;
       28       28    1   DCL HI_EXEC_CLMN UBIN(36) SYMREF;
       29       29    1   DCL MAX_CLMN UBIN(36) SYMREF;
       30       30    1   DCL SSE$ PTR SYMREF;
       31       31    1   DCL SSE_INIT$ PTR SYMREF;
       32       32        /**/
       33       33        /**********************************************************************/
       34       34        /*   BASED DATA   BASED DATA   BASED DATA   BASED DATA   BASED DATA   */
       35       35        /**********************************************************************/
       36       36    1   DCL 1 SSE$PARAM BASED ALIGNED,          /*SSE TABLE ENTRY                     */
       37       37    1         2 FLAGS,
PL6.E3A0      #001=VEX$CLMN_DFLT File=VEX$CLMN_DFLT.:E05TSI                      WED 07/30/97 07:11 Page:2
       38       38    1           3 CLMNFLAG BIT(1) UNAL,                      /* IF TRUE NEXT WORD IS CLMN#
       39       39                                                                   ELSE PTR$ */
       40       40    1           3 NOTFLAG BIT(1) UNAL,          /* LOG. OP. IS NOT                    */
       41       41    1           3 ANDFLAG BIT(1) UNAL,          /* LOG. OP. IS AND                    */
       42       42    1           3 ORFLAG BIT(1) UNAL,           /* LOG. OP. IS OR                     */
       43       43    1           3 EORFLAG BIT(1) UNAL,          /* LOG. OP. IS EOR*/
       44       44    1           3 * BIT(13) UNAL,
       45       45    1         2 J SBIN HALF UNAL,               /* OCCURANCE NUMBER                   */
       46       46    1         2 PTR$ PTR UNAL,                  /* POINTER TO STRING                  */
       47       47    1         2 CLMN# REDEF PTR$ UBIN(36) UNAL;
       48       48        /*****************************************************************************/
       49       49        /*   PROCEDURE   PROCEDURE   PROCEDURE   PROCEDURE   PROCEDURE   PROCEDURE   */
       50       50        /*****************************************************************************/
       51       51    1           LO_SRCH_CLMN = 0;
       52       52    1           HI_SRCH_CLMN = MAX_CLMN - 1;
       53       53    1           LO_EXEC_CLMN = 0;
       54       54    1           HI_EXEC_CLMN = MAX_CLMN - 1;
       55       55    1           SSE$ = SSE_INIT$;
       56       56    1           SSE$ -> SSE$PARAM.PTR$ = ADDR(NIL); /* RESET SSE                      */
       57       57    1           RETURN;
       58       58    1   END;

PL6.E3A0      #001=VEX$CLMN_DFLT File=VEX$CLMN_DFLT.:E05TSI                      WED 07/30/97 07:11 Page:3
      No diagnostics issued in procedure VEX$CLMN_DFLT.

   Procedure VEX$CLMN_DFLT requires 14 words for executable code.
   Procedure VEX$CLMN_DFLT requires 4 words of local(AUTO) storage.

    No errors detected in file VEX$CLMN_DFLT.:E05TSI    .

PL6.E3A0      #001=VEX$CLMN_DFLT File=VEX$CLMN_DFLT.:E05TSI                      WED 07/30/97 07:11 Page:4

 Object Unit name= VEX$CLMN_DFLT                              File name= VEX$CLMN_DFLT.:E05TOU
 UTS= JUL 30 '97 07:11:24.56 WED                              Compiler= PL-6/E31         Sev=      00
 SharedLib= :SHARED_SYSTEM                                    Alt SharedLib=


    ****  Control sections  ****

 Sect   Type Bound  Init  Size OctSiz  Section name(segment info)
    0   Proc  even  none    14     16  VEX$CLMN_DFLT

    ****  Entry defs  ****

                              Check   Calling
                             calling  sequence
  Sect OctLoc Primary Altret sequence   type   Parms  Name
     0      0   yes            yes      Std        0  VEX$CLMN_DFLT

  ****  Entry refs  ****

         Check        Calling
        calling       sequence
Altret sequence SRef   type   Args  Name
                       nStd      0 X66_AUTO_0
                       Std       0 B_CONSPOOL_D
                       nStd      0 X66_ARET

  ****  Data refs  ****

  Flags:  r = read only, s = secondary
Flgs Name                             Flgs Name                             Flgs Name
     LO_SRCH_CLMN                          HI_SRCH_CLMN                          LO_EXEC_CLMN
     HI_EXEC_CLMN                          MAX_CLMN                              SSE$
     SSE_INIT$                             B_VECTNIL
PL6.E3A0      #001=VEX$CLMN_DFLT File=VEX$CLMN_DFLT.:E05TSI                      WED 07/30/97 07:11 Page:5


        1        1        /*M*    VEX$CLMN_DFLT - SET EDIT SELECT RANGE TO DEFAULT */
        2        2        /*T***********************************************************/
        3        3        /*T*                                                         */
        4        4        /*T* Copyright (c) Bull HN Information Systems Inc., 1997    */
        5        5        /*T*                                                         */
        6        6        /*T***********************************************************/
        7        7        /*X*/
        8        8        VEX$CLMN_DFLT: PROC;

      8  0 000000   000000 700200 xent  VEX$CLMN_DF* TSX0  ! X66_AUTO_0
         0 000001   000004 000000                    ZERO    4,0

        9        9        /**/
       10       10        /*F*     NAME:     VEX$CLMN_DFLT
       11       11                 PURPOSE:  TO SET THE COLUMN DELIMITING CELLS AND THE STRING
       12       12                           SELECTION CRITERIA TO THEIR DEFAULT VALUES.   */
       13       13        /**/
       14       14        /*D*     NAME:     VEX$CLMN_DFLT
       15       15                 PARAMETERS: NONE
       16       16                 DESCRIPTION: THE CELLS DELIMITING THE EXECUTION AND SEARCH
       17       17                           RANGES ARE SET TO THE DEFAULT VALUES OF THE WHOLE RECORD.
       18       18                           THE WHOLE RECORD IS REPRESENTED BY THE VALUES ZERO(0)
       19       19                           TO MAX_CLMN - 1. THEN THE STRING SELECTION EXPRESSION
       20       20                           IS SET TO ITS DEFAULT OF NONE.          */
       21       21        /**/
       22       22        /*****************************************************************/
       23       23        /*   SYMREFS   SYMREFS   SYMREFS   SYMREFS   SYMREFS   SYMREFS   */
       24       24        /*****************************************************************/
       25       25    1   DCL LO_SRCH_CLMN UBIN(36) SYMREF;
       26       26    1   DCL HI_SRCH_CLMN UBIN(36) SYMREF;
       27       27    1   DCL LO_EXEC_CLMN UBIN(36) SYMREF;
       28       28    1   DCL HI_EXEC_CLMN UBIN(36) SYMREF;
       29       29    1   DCL MAX_CLMN UBIN(36) SYMREF;
       30       30    1   DCL SSE$ PTR SYMREF;
       31       31    1   DCL SSE_INIT$ PTR SYMREF;
       32       32        /**/
PL6.E3A0      #001=VEX$CLMN_DFLT File=VEX$CLMN_DFLT.:E05TSI                      WED 07/30/97 07:11 Page:6
       33       33        /**********************************************************************/
       34       34        /*   BASED DATA   BASED DATA   BASED DATA   BASED DATA   BASED DATA   */
       35       35        /**********************************************************************/
       36       36    1   DCL 1 SSE$PARAM BASED ALIGNED,          /*SSE TABLE ENTRY                     */
       37       37    1         2 FLAGS,
       38       38    1           3 CLMNFLAG BIT(1) UNAL,                      /* IF TRUE NEXT WORD IS CLMN#
       39       39                                                                   ELSE PTR$ */
       40       40    1           3 NOTFLAG BIT(1) UNAL,          /* LOG. OP. IS NOT                    */
       41       41    1           3 ANDFLAG BIT(1) UNAL,          /* LOG. OP. IS AND                    */
       42       42    1           3 ORFLAG BIT(1) UNAL,           /* LOG. OP. IS OR                     */
       43       43    1           3 EORFLAG BIT(1) UNAL,          /* LOG. OP. IS EOR*/
       44       44    1           3 * BIT(13) UNAL,
       45       45    1         2 J SBIN HALF UNAL,               /* OCCURANCE NUMBER                   */
       46       46    1         2 PTR$ PTR UNAL,                  /* POINTER TO STRING                  */
       47       47    1         2 CLMN# REDEF PTR$ UBIN(36) UNAL;
       48       48        /*****************************************************************************/
       49       49        /*   PROCEDURE   PROCEDURE   PROCEDURE   PROCEDURE   PROCEDURE   PROCEDURE   */
       50       50        /*****************************************************************************/
       51       51    1           LO_SRCH_CLMN = 0;

     51  0 000002   000000 450000 xsym               STZ     LO_SRCH_CLMN

       52       52    1           HI_SRCH_CLMN = MAX_CLMN - 1;

     52  0 000003   000000 235000 xsym               LDA     MAX_CLMN
         0 000004   000001 135007                    SBLA    1,DL
         0 000005   000000 755000 xsym               STA     HI_SRCH_CLMN

       53       53    1           LO_EXEC_CLMN = 0;

     53  0 000006   000000 450000 xsym               STZ     LO_EXEC_CLMN

       54       54    1           HI_EXEC_CLMN = MAX_CLMN - 1;

     54  0 000007   000000 755000 xsym               STA     HI_EXEC_CLMN

       55       55    1           SSE$ = SSE_INIT$;
PL6.E3A0      #001=VEX$CLMN_DFLT File=VEX$CLMN_DFLT.:E05TSI                      WED 07/30/97 07:11 Page:7

     55  0 000010   000000 236000 xsym               LDQ     SSE_INIT$
         0 000011   000000 756000 xsym               STQ     SSE$

       56       56    1           SSE$ -> SSE$PARAM.PTR$ = ADDR(NIL); /* RESET SSE                      */

     56  0 000012   000001 236000 xsym               LDQ     B_VECTNIL+1
         0 000013   000000 470400 xsym               LDP0    SSE$
         0 000014   000001 756100                    STQ     1,,PR0

       57       57    1           RETURN;

     57  0 000015   000000 702200 xent               TSX2  ! X66_ARET
       58       58    1   END;

PL6.E3A0      #001=VEX$CLMN_DFLT File=VEX$CLMN_DFLT.:E05TSI                      WED 07/30/97 07:11 Page:8
      No diagnostics issued in procedure VEX$CLMN_DFLT.
PL6.E3A0      #001=VEX$CLMN_DFLT File=VEX$CLMN_DFLT.:E05TSI                      WED 07/30/97 07:11 Page:9

 **** Variables and constants ****

  ****  SYMREF variables  ****

  ****  Scalars and arrays  ****
OctLoc.c.b A Datatyp(siz) R M Lvl/name                 OctLoc.c.b A Datatyp(siz) R M Lvl/name

     0-0-0/w UBIN        r     1 HI_EXEC_CLMN               0-0-0/w UBIN        r     1 HI_SRCH_CLMN
     0-0-0/w UBIN        r     1 LO_EXEC_CLMN               0-0-0/w UBIN        r     1 LO_SRCH_CLMN
     0-0-0/w UBIN        r     1 MAX_CLMN                   0-0-0/w PTR         r     1 SSE$
     0-0-0/w PTR         r     1 SSE_INIT$

  ****  BASED and DCB variables  ****

  ****  Scalars and arrays  ****
OctLoc.c.b A Datatyp(siz) R M Lvl/name                 OctLoc.c.b A Datatyp(siz) R M Lvl/name

     0-0-0/w STRC(72)    r     1 SSE$PARAM


   Procedure VEX$CLMN_DFLT requires 14 words for executable code.
   Procedure VEX$CLMN_DFLT requires 4 words of local(AUTO) storage.

    No errors detected in file VEX$CLMN_DFLT.:E05TSI    .
PL6.E3A0      #001=VEX$CLMN_DFLT File=VEX$CLMN_DFLT.:E05TSI                      WED 07/30/97 07:11 Page:10
          *** CROSS REFERENCE LISTING ***
**     DENOTES     IDENTIFIER DEFINITION
<<                 IDENTIFIER'S VALUE SET
>>                 IDENTIFIER'S VALUE USED
<>                 IDENTIFIER SET AND/OR USED
--                 IDENTIFIER REFERENCED
PL6.E3A0      #001=VEX$CLMN_DFLT File=VEX$CLMN_DFLT.:E05TSI                      WED 07/30/97 07:11 Page:11
          MINI XREF LISTING

HI_EXEC_CLMN
        28**DCL        54<<ASSIGN
HI_SRCH_CLMN
        26**DCL        52<<ASSIGN
LO_EXEC_CLMN
        27**DCL        53<<ASSIGN
LO_SRCH_CLMN
        25**DCL        51<<ASSIGN
MAX_CLMN
        29**DCL        52>>ASSIGN     54>>ASSIGN
SSE$
        30**DCL        55<<ASSIGN     56>>ASSIGN
SSE$PARAM.PTR$
        46**DCL        47--REDEF      56<<ASSIGN
SSE_INIT$
        31**DCL        55>>ASSIGN
