VERSION E05

PL6.E3A0      #001=VEX$DELREC File=VEX$DELREC.:E05TSI                            WED 07/30/97 07:11 Page:1
        1        1        /*M*    VEX$DELREC - EDIT ROUTINE TO DELETE A RECORD */
        2        2        /*T***********************************************************/
        3        3        /*T*                                                         */
        4        4        /*T* Copyright (c) Bull HN Information Systems Inc., 1997    */
        5        5        /*T*                                                         */
        6        6        /*T***********************************************************/
        7        7        /*X*/
        8        8        VEX$DELREC: PROC(DCB#,DELKEY,HI_DELKEY) ALTRET;
        9        9        /**/
       10       10        /*F*     NAME:     VEX$DELREC
       11       11                 PURPOSE:  TO DELETE A RECORD OR RANGE OF RECORDS FROM THE EDIT FILE */
       12       12        /**/
       13       13        /*D*     NAME:     VEX$DELREC
       14       14                 PARAMETERS: DCB# - DCB TO DELETE RECORD THROUGH
       15       15                           DELKEY - LOWEST (OR ONLY) RECORD TO BE DELETED
       16       16                           HI_DELKEY - HIGHEST RECORD TO BE DELETED
       17       17                 DESCRIPTION: DCB#, DELKEY, AND HI_DELKEY ARE SET IN THE FPT AND
       18       18                           A CALL IS MADE TO M$DELREC TO DELETE THE RECORDS. IF
       19       19                           ANY ERROR IS ENCOUNTERED THEN AN ALTRETURN IS MADE
       20       20                           OTHERWISE VEX$DELREC RETURNS NORMALLY    */
       21       21        /**/
       22       22        /**********************************************************************/
       23       23        /*   PARAMETERS   PARAMETERS   PARAMETERS   PARAMETERS   PARAMETERS   */
       24       24        /**********************************************************************/
       25       25    1   DCL DCB# UBIN(36);
       26       26    1   DCL DELKEY CHAR(64);
       27       27    1   DCL 1 READ_E_KEY REDEF DELKEY ,
       28       28    1         2 KEY UBIN WORD ,
       29       29    1         2 * CHAR(60) ;
       30       30    1   DCL HI_DELKEY CHAR(64);
       31       31    1   DCL 1 HI_E_DELKEY REDEF HI_DELKEY ,
       32       32    1         2 KEY UBIN WORD ,
       33       33    1         2 * CHAR(60) ;
       34       34        /**/
       35       35        /***************************************************************************/
       36       36        /*   STATIC DATA   STATIC DATA   STATIC DATA   STATIC DATA   STATIC DATA   */
       37       37        /***************************************************************************/
PL6.E3A0      #001=VEX$DELREC File=VEX$DELREC.:E05TSI                            WED 07/30/97 07:11 Page:2
       38       38    1   DCL DEL_KEY CHAR(64) ;
       39       39    1   DCL 1 DEL_E_KEY REDEF DEL_KEY ,
       40       40    1         2 KEY UBIN WORD ,
       41       41    1         2 * CHAR(60) ;
       42       42    1   DCL HI_DEL_KEY CHAR(64) ;
       43       43    1   DCL 1 HI_DEL_E_KEY REDEF HI_DEL_KEY ,
       44       44    1         2 KEY UBIN WORD ,
       45       45    1         2 * CHAR(60) ;
       46       46        /**/
       47       47        /*********************************************************************/
       48       48        /*   INCLUDE FILES   INCLUDE FILES   INCLUDE FILES   INCLUDE FILES   */
       49       49        /*********************************************************************/
       50       50        %PLIST;
       51       51        %INCLUDE   CP_6;
       52      132        %INCLUDE B_ERRORS_C;
       53     1259        %B$TCB;
       54     1262        %B$ALT;
       55     1270        %INCLUDE   VE_SUBS_C;
       56     1464        %INCLUDE VE_PERR_C;
       57     1681        %INCLUDE   F$DCB;
       58     1730        /********************************************************************/
       59     1731        /*   FPTS   FPTS   FPTS   FPTS   FPTS   FPTS   FPTS   FPTS   FPTS   */
       60     1732        /********************************************************************/
       61     1733        %FPT_DELREC   (FPTN = DELREC_FPT, STCLASS = "");
       62     1752        /**/
       63     1753        /*****************************************************************/
       64     1754        /*   SYMREFS   SYMREFS   SYMREFS   SYMREFS   SYMREFS   SYMREFS   */
       65     1755        /*****************************************************************/
       66     1756        /**/
       67     1757        %INCLUDE VE_FLAGS_R;
       68     1808        /**/
       69     1809    1   DCL Y003 UBIN WORD SYMREF;
       70     1810    1   DCL B$TCB$ PTR SYMREF;
       71     1811    1   DCL M$FILE_NUM UBIN(36) SYMREF;
       72     1812        /**/
       73     1813    1   DCL VEX$ERROR ENTRY(2) ALTRET;
       74     1814        /*****************************************************************************/
PL6.E3A0      #001=VEX$DELREC File=VEX$DELREC.:E05TSI                            WED 07/30/97 07:11 Page:3
       75     1815        /*   PROCEDURE   PROCEDURE   PROCEDURE   PROCEDURE   PROCEDURE   PROCEDURE   */
       76     1816        /*****************************************************************************/
       77     1817    2           IF ((FLAGS.CONSEC_MODE)AND(DCB# = M$FILE_NUM)) THEN DO;
       78     1818    2              CALL VEX$ERROR(E$E_NOTKEYED,3); /* CANT DELETE FROM UNKEYED        */
       79     1819    2              ALTRETURN;
       80     1820    2              END;
       81     1821        /**/
       82     1822    1           DELREC_FPT.KEY_ = VECTOR (DEL_KEY);
       83     1823    1           DELREC_FPT.V_ = VECTOR (DELREC_FPT.V);
       84     1824    1           IF ((FLAGS.REL_MODE)AND(DCB# = M$FILE_NUM)) THEN
       85     1825    1              DEL_E_KEY.KEY = (READ_E_KEY.KEY-Y003)/1000;
       86     1826    1           ELSE DEL_KEY = DELKEY;
       87     1827    1           IF (HI_E_DELKEY.KEY = 0)
       88     1828    1           THEN
       89     1829    1              DELREC_FPT.LKEY_ = VECTOR (NIL);
       90     1830    2           ELSE DO;
       91     1831    2              DELREC_FPT.LKEY_ = VECTOR (HI_DEL_KEY);
       92     1832    2              IF ((FLAGS.REL_MODE)AND(DCB# = M$FILE_NUM)) THEN
       93     1833    2                 HI_DEL_E_KEY.KEY = (HI_E_DELKEY.KEY-Y003)/1000;
       94     1834    2              ELSE HI_DEL_KEY = HI_DELKEY;
       95     1835    2              END;
       96     1836    1           DELREC_FPT.V.DCB# = DCB#;
       97     1837    1           DELREC_FPT.IDBUF_ = VECTOR(NIL) ;
       98     1838    1           DELREC_FPT.V.BRK# = '1'B ;
       99     1839    1           CALL M$DELREC(DELREC_FPT) ALTRET (DELREC_ALT);
      100     1840    1           FLAGS.EXISTS = TRUE;
      101     1841    1           RETURN;
      102     1842        /**/
      103     1843    1   DELREC_ALT:
      104     1844    2           IF (B$TCB$ -> B$TCB.ALT$ -> B$ALT.ERR.ERR# = %E$NOKEY) THEN DO;
      105     1845    2              FLAGS.EXISTS = FALSE;
      106     1846    2              IF FLAGS.BADKEY
      107     1847    3               THEN DO ;
      108     1848    3                 CALL VEX$ERROR(E$E_UNABLE2DELBADKEY,3) ;
      109     1849    3                 ALTRETURN ;
      110     1850    3                 END ; /* THEN DO */
      111     1851        /**/
PL6.E3A0      #001=VEX$DELREC File=VEX$DELREC.:E05TSI                            WED 07/30/97 07:11 Page:4
      112     1852        /*E*     ERROR:    VEE-E$E_UNABLE2DELBADKEY-0
      113     1853                 MESSAGE:  Unable to delete <BADKEY> records.
      114     1854                 DESCRIPTION: EDIT is unable to delete non-EDIT keyed records.
      115     1855        */
      116     1856    2              RETURN;
      117     1857    2              END;
      118     1858    1           CALL VEX$ERROR(0,3);
      119     1859    1           ALTRETURN;
      120     1860    1   END;

PL6.E3A0      #001=VEX$DELREC File=VEX$DELREC.:E05TSI                            WED 07/30/97 07:11 Page:5
--  Include file information  --

   VE_FLAGS_R.:E05TOU  cannot be made into a system file and is referenced.
   F$DCB.:E05TOU  cannot be made into a system file and is referenced.
   VE_PERR_C.:E05TOU  is referenced.
   VE_SUBS_C.:E05TOU  is referenced.
   B_ERRORS_C.:E05TOU  is referenced.
   CP_6.:E05TOU  cannot be made into a system file and is referenced.
   B$JIT_C.:E05TOU  was found in the system file and is never referenced.
   CP_6_C.:E05TOU  was found in the system file and is referenced.
      No diagnostics issued in procedure VEX$DELREC.

   Procedure VEX$DELREC requires 103 words for executable code.
   Procedure VEX$DELREC requires 50 words of local(AUTO) storage.

    No errors detected in file VEX$DELREC.:E05TSI    .

PL6.E3A0      #001=VEX$DELREC File=VEX$DELREC.:E05TSI                            WED 07/30/97 07:11 Page:6

 Object Unit name= VEX$DELREC                                 File name= VEX$DELREC.:E05TOU
 UTS= JUL 30 '97 07:11:45.52 WED                              Compiler= PL-6/E31         Sev=      00
 SharedLib= :SHARED_SYSTEM                                    Alt SharedLib=


    ****  Control sections  ****

 Sect   Type Bound  Init  Size OctSiz  Section name(segment info)
    0   DCB   even  none     0      0  M$UC
    1   Proc  even  none   103    147  VEX$DELREC
    2  RoData even  none    13     15  VEX$DELREC

    ****  Entry defs  ****

                              Check   Calling
                             calling  sequence
  Sect OctLoc Primary Altret sequence   type   Parms  Name
     1      0   yes    yes     yes      Std        3  VEX$DELREC

  ****  Entry refs  ****

         Check        Calling
        calling       sequence
Altret sequence SRef   type   Args  Name
 yes     yes           Std       2 VEX$ERROR
                       nStd      0 X66_AUTO_3
                       Std       0 B_CONSPOOL_D
                       nStd      0 X66_AALT
                       nStd      0 X66_ARET

  ****  Data refs  ****

  Flags:  r = read only, s = secondary
Flgs Name                             Flgs Name                             Flgs Name
     M$UC                                  FLAGS                                 Y003
     B$TCB$                                M$FILE_NUM                            B_VECTNIL
PL6.E3A0      #001=VEX$DELREC File=VEX$DELREC.:E05TSI                            WED 07/30/97 07:11 Page:7

  ****  Segment refs  ****

  Flags:  r = read only, s = secondary
Flgs Name                             Flgs Name                             Flgs Name
     NULLSID                               ISSID
PL6.E3A0      #001=VEX$DELREC File=VEX$DELREC.:E05TSI                            WED 07/30/97 07:11 Page:8


        1        1        /*M*    VEX$DELREC - EDIT ROUTINE TO DELETE A RECORD */
        2        2        /*T***********************************************************/
        3        3        /*T*                                                         */
        4        4        /*T* Copyright (c) Bull HN Information Systems Inc., 1997    */
        5        5        /*T*                                                         */
        6        6        /*T***********************************************************/
        7        7        /*X*/
        8        8        VEX$DELREC: PROC(DCB#,DELKEY,HI_DELKEY) ALTRET;

      8  1 000000   000000 700200 xent  VEX$DELREC   TSX0  ! X66_AUTO_3
         1 000001   000062 000003                    ZERO    50,3

        9        9        /**/
       10       10        /*F*     NAME:     VEX$DELREC
       11       11                 PURPOSE:  TO DELETE A RECORD OR RANGE OF RECORDS FROM THE EDIT FILE */
       12       12        /**/
       13       13        /*D*     NAME:     VEX$DELREC
       14       14                 PARAMETERS: DCB# - DCB TO DELETE RECORD THROUGH
       15       15                           DELKEY - LOWEST (OR ONLY) RECORD TO BE DELETED
       16       16                           HI_DELKEY - HIGHEST RECORD TO BE DELETED
       17       17                 DESCRIPTION: DCB#, DELKEY, AND HI_DELKEY ARE SET IN THE FPT AND
       18       18                           A CALL IS MADE TO M$DELREC TO DELETE THE RECORDS. IF
       19       19                           ANY ERROR IS ENCOUNTERED THEN AN ALTRETURN IS MADE
       20       20                           OTHERWISE VEX$DELREC RETURNS NORMALLY    */
       21       21        /**/
       22       22        /**********************************************************************/
       23       23        /*   PARAMETERS   PARAMETERS   PARAMETERS   PARAMETERS   PARAMETERS   */
       24       24        /**********************************************************************/
       25       25    1   DCL DCB# UBIN(36);
       26       26    1   DCL DELKEY CHAR(64);
       27       27    1   DCL 1 READ_E_KEY REDEF DELKEY ,
       28       28    1         2 KEY UBIN WORD ,
       29       29    1         2 * CHAR(60) ;
       30       30    1   DCL HI_DELKEY CHAR(64);
       31       31    1   DCL 1 HI_E_DELKEY REDEF HI_DELKEY ,
       32       32    1         2 KEY UBIN WORD ,
PL6.E3A0      #001=VEX$DELREC File=VEX$DELREC.:E05TSI                            WED 07/30/97 07:11 Page:9
       33       33    1         2 * CHAR(60) ;
       34       34        /**/
       35       35        /***************************************************************************/
       36       36        /*   STATIC DATA   STATIC DATA   STATIC DATA   STATIC DATA   STATIC DATA   */
       37       37        /***************************************************************************/
       38       38    1   DCL DEL_KEY CHAR(64) ;
       39       39    1   DCL 1 DEL_E_KEY REDEF DEL_KEY ,
       40       40    1         2 KEY UBIN WORD ,
       41       41    1         2 * CHAR(60) ;
       42       42    1   DCL HI_DEL_KEY CHAR(64) ;
       43       43    1   DCL 1 HI_DEL_E_KEY REDEF HI_DEL_KEY ,
       44       44    1         2 KEY UBIN WORD ,
       45       45    1         2 * CHAR(60) ;
       46       46        /**/
       47       47        /*********************************************************************/
       48       48        /*   INCLUDE FILES   INCLUDE FILES   INCLUDE FILES   INCLUDE FILES   */
       49       49        /*********************************************************************/
       50       50        %PLIST;
       51       51        %INCLUDE   CP_6;
       52      132        %INCLUDE B_ERRORS_C;
       53     1259        %B$TCB;
       54     1262        %B$ALT;
       55     1270        %INCLUDE   VE_SUBS_C;
       56     1464        %INCLUDE VE_PERR_C;
       57     1681        %INCLUDE   F$DCB;
       58     1730        /********************************************************************/
       59     1731        /*   FPTS   FPTS   FPTS   FPTS   FPTS   FPTS   FPTS   FPTS   FPTS   */
       60     1732        /********************************************************************/
       61     1733        %FPT_DELREC   (FPTN = DELREC_FPT, STCLASS = "");
       62     1752        /**/
       63     1753        /*****************************************************************/
       64     1754        /*   SYMREFS   SYMREFS   SYMREFS   SYMREFS   SYMREFS   SYMREFS   */
       65     1755        /*****************************************************************/
       66     1756        /**/
       67     1757        %INCLUDE VE_FLAGS_R;
       68     1808        /**/
       69     1809    1   DCL Y003 UBIN WORD SYMREF;
PL6.E3A0      #001=VEX$DELREC File=VEX$DELREC.:E05TSI                            WED 07/30/97 07:11 Page:10
       70     1810    1   DCL B$TCB$ PTR SYMREF;
       71     1811    1   DCL M$FILE_NUM UBIN(36) SYMREF;
       72     1812        /**/
       73     1813    1   DCL VEX$ERROR ENTRY(2) ALTRET;
       74     1814        /*****************************************************************************/
       75     1815        /*   PROCEDURE   PROCEDURE   PROCEDURE   PROCEDURE   PROCEDURE   PROCEDURE   */
       76     1816        /*****************************************************************************/
       77     1817    2           IF ((FLAGS.CONSEC_MODE)AND(DCB# = M$FILE_NUM)) THEN DO;

   1817  1 000002   000000 236000 xsym               LDQ     FLAGS
         1 000003   002000 316003                    CANQ    1024,DU
         1 000004   000016 600000 1                  TZE     s:1822
         1 000005   200003 470500                    LDP0    @DCB#,,AUTO
         1 000006   000000 236100                    LDQ     0,,PR0
         1 000007   000000 116000 xsym               CMPQ    M$FILE_NUM
         1 000010   000016 601000 1                  TNZ     s:1822

       78     1818    2              CALL VEX$ERROR(E$E_NOTKEYED,3); /* CANT DELETE FROM UNKEYED        */

   1818  1 000011   000001 630400 2                  EPPR0   1
         1 000012   000020 631400 xsym               EPPR1   B_VECTNIL+16
         1 000013   000000 701000 xent               TSX1    VEX$ERROR
         1 000014   000000 011000                    NOP     0

       79     1819    2              ALTRETURN;

   1819  1 000015   000000 702200 xent               TSX2  ! X66_AALT

       80     1820    2              END;
       81     1821        /**/
       82     1822    1           DELREC_FPT.KEY_ = VECTOR (DEL_KEY);

   1822  1 000016   000003 235000 2                  LDA     3
         1 000017   200060 452500                    STP2    DELREC_FPT+10,,AUTO
         1 000020   200060 236100                    LDQ     DELREC_FPT+10,,AUTO
         1 000021   000006 036003                    ADLQ    6,DU
         1 000022   200050 757100                    STAQ    DELREC_FPT+2,,AUTO
PL6.E3A0      #001=VEX$DELREC File=VEX$DELREC.:E05TSI                            WED 07/30/97 07:11 Page:11

       83     1823    1           DELREC_FPT.V_ = VECTOR (DELREC_FPT.V);

   1823  1 000023   000004 235000 2                  LDA     4
         1 000024   200060 452500                    STP2    DELREC_FPT+10,,AUTO
         1 000025   200060 236100                    LDQ     DELREC_FPT+10,,AUTO
         1 000026   000056 036003                    ADLQ    46,DU
         1 000027   200046 757100                    STAQ    DELREC_FPT,,AUTO

       84     1824    1           IF ((FLAGS.REL_MODE)AND(DCB# = M$FILE_NUM)) THEN

   1824  1 000030   000000 236000 xsym               LDQ     FLAGS
         1 000031   400000 316007                    CANQ    -131072,DL
         1 000032   000045 600000 1                  TZE     s:1826
         1 000033   200003 470500                    LDP0    @DCB#,,AUTO
         1 000034   000000 236100                    LDQ     0,,PR0
         1 000035   000000 116000 xsym               CMPQ    M$FILE_NUM
         1 000036   000045 601000 1                  TNZ     s:1826

       85     1825    1              DEL_E_KEY.KEY = (READ_E_KEY.KEY-Y003)/1000;

   1825  1 000037   200004 471500                    LDP1    @DELKEY,,AUTO
         1 000040   100000 236100                    LDQ     0,,PR1
         1 000041   000000 136000 xsym               SBLQ    Y003
         1 000042   001750 506007                    DIV     1000,DL
         1 000043   200006 756100                    STQ     DEL_KEY,,AUTO
         1 000044   000051 710000 1                  TRA     s:1827

       86     1826    1           ELSE DEL_KEY = DELKEY;

   1826  1 000045   200004 470500                    LDP0    @DELKEY,,AUTO
         1 000046   040100 100500                    MLR     fill='040'O
         1 000047   000000 000100                    ADSC9   0,,PR0                   cn=0,n=64
         1 000050   200006 000100                    ADSC9   DEL_KEY,,AUTO            cn=0,n=64

       87     1827    1           IF (HI_E_DELKEY.KEY = 0)

PL6.E3A0      #001=VEX$DELREC File=VEX$DELREC.:E05TSI                            WED 07/30/97 07:11 Page:12
   1827  1 000051   200005 470500                    LDP0    @HI_DELKEY,,AUTO
         1 000052   000000 235100                    LDA     0,,PR0
         1 000053   000057 601000 1                  TNZ     s:1831

       88     1828    1           THEN
       89     1829    1              DELREC_FPT.LKEY_ = VECTOR (NIL);

   1829  1 000054   000006 237000 2                  LDAQ    6
         1 000055   200052 757100                    STAQ    DELREC_FPT+4,,AUTO
         1 000056   000103 710000 1                  TRA     s:1836

       90     1830    2           ELSE DO;

       91     1831    2              DELREC_FPT.LKEY_ = VECTOR (HI_DEL_KEY);

   1831  1 000057   000003 235000 2                  LDA     3
         1 000060   200060 452500                    STP2    DELREC_FPT+10,,AUTO
         1 000061   200060 236100                    LDQ     DELREC_FPT+10,,AUTO
         1 000062   000026 036003                    ADLQ    22,DU
         1 000063   200052 757100                    STAQ    DELREC_FPT+4,,AUTO

       92     1832    2              IF ((FLAGS.REL_MODE)AND(DCB# = M$FILE_NUM)) THEN

   1832  1 000064   000000 236000 xsym               LDQ     FLAGS
         1 000065   400000 316007                    CANQ    -131072,DL
         1 000066   000100 600000 1                  TZE     s:1834
         1 000067   200003 471500                    LDP1    @DCB#,,AUTO
         1 000070   100000 236100                    LDQ     0,,PR1
         1 000071   000000 116000 xsym               CMPQ    M$FILE_NUM
         1 000072   000100 601000 1                  TNZ     s:1834

       93     1833    2                 HI_DEL_E_KEY.KEY = (HI_E_DELKEY.KEY-Y003)/1000;

   1833  1 000073   000000 236100                    LDQ     0,,PR0
         1 000074   000000 136000 xsym               SBLQ    Y003
         1 000075   001750 506007                    DIV     1000,DL
         1 000076   200026 756100                    STQ     HI_DEL_KEY,,AUTO
PL6.E3A0      #001=VEX$DELREC File=VEX$DELREC.:E05TSI                            WED 07/30/97 07:11 Page:13
         1 000077   000103 710000 1                  TRA     s:1836

       94     1834    2              ELSE HI_DEL_KEY = HI_DELKEY;

   1834  1 000100   040100 100500                    MLR     fill='040'O
         1 000101   000000 000100                    ADSC9   0,,PR0                   cn=0,n=64
         1 000102   200026 000100                    ADSC9   HI_DEL_KEY,,AUTO         cn=0,n=64

       95     1835    2              END;

       96     1836    1           DELREC_FPT.V.DCB# = DCB#;

   1836  1 000103   200003 471500                    LDP1    @DCB#,,AUTO
         1 000104   100000 720100                    LXL0    0,,PR1
         1 000105   200056 740100                    STX0    DELREC_FPT+8,,AUTO

       97     1837    1           DELREC_FPT.IDBUF_ = VECTOR(NIL) ;

   1837  1 000106   000006 237000 2                  LDAQ    6
         1 000107   200054 757100                    STAQ    DELREC_FPT+6,,AUTO

       98     1838    1           DELREC_FPT.V.BRK# = '1'B ;

   1838  1 000110   200000 236007                    LDQ     65536,DL
         1 000111   200057 256100                    ORSQ    DELREC_FPT+9,,AUTO

       99     1839    1           CALL M$DELREC(DELREC_FPT) ALTRET (DELREC_ALT);

   1839  1 000112   200046 630500                    EPPR0   DELREC_FPT,,AUTO
         1 000113   440002 713400                    CLIMB   alt,+16386
         1 000114   401400 401760                    pmme    nvectors=4
         1 000115   000121 702000 1                  TSX2    DELREC_ALT

      100     1840    1           FLAGS.EXISTS = TRUE;

   1840  1 000116   020000 236003                    LDQ     8192,DU
         1 000117   000000 256000 xsym               ORSQ    FLAGS
PL6.E3A0      #001=VEX$DELREC File=VEX$DELREC.:E05TSI                            WED 07/30/97 07:11 Page:14

      101     1841    1           RETURN;

   1841  1 000120   000000 702200 xent               TSX2  ! X66_ARET

      102     1842        /**/
      103     1843    1   DELREC_ALT:
      104     1844    2           IF (B$TCB$ -> B$TCB.ALT$ -> B$ALT.ERR.ERR# = %E$NOKEY) THEN DO;

   1844  1 000121   000000 470400 xsym  DELREC_ALT   LDP0    B$TCB$
         1 000122   000000 471500                    LDP1    0,,PR0
         1 000123   100102 236100                    LDQ     66,,PR1
         1 000124   377770 376007                    ANQ     131064,DL
         1 000125   001020 116007                    CMPQ    528,DL
         1 000126   000142 601000 1                  TNZ     s:1858

      105     1845    2              FLAGS.EXISTS = FALSE;

   1845  1 000127   000005 236000 2                  LDQ     5
         1 000130   000000 356000 xsym               ANSQ    FLAGS

      106     1846    2              IF FLAGS.BADKEY

   1846  1 000131   000001 236000 xsym               LDQ     FLAGS+1
         1 000132   200000 316003                    CANQ    65536,DU
         1 000133   000141 600000 1                  TZE     s:1856

      107     1847    3               THEN DO ;

      108     1848    3                 CALL VEX$ERROR(E$E_UNABLE2DELBADKEY,3) ;

   1848  1 000134   000011 630400 2                  EPPR0   9
         1 000135   000020 631400 xsym               EPPR1   B_VECTNIL+16
         1 000136   000000 701000 xent               TSX1    VEX$ERROR
         1 000137   000000 011000                    NOP     0

      109     1849    3                 ALTRETURN ;
PL6.E3A0      #001=VEX$DELREC File=VEX$DELREC.:E05TSI                            WED 07/30/97 07:11 Page:15

   1849  1 000140   000000 702200 xent               TSX2  ! X66_AALT

      110     1850    3                 END ; /* THEN DO */
      111     1851        /**/
      112     1852        /*E*     ERROR:    VEE-E$E_UNABLE2DELBADKEY-0
      113     1853                 MESSAGE:  Unable to delete <BADKEY> records.
      114     1854                 DESCRIPTION: EDIT is unable to delete non-EDIT keyed records.
      115     1855        */
      116     1856    2              RETURN;

   1856  1 000141   000000 702200 xent               TSX2  ! X66_ARET

      117     1857    2              END;
      118     1858    1           CALL VEX$ERROR(0,3);

   1858  1 000142   000013 630400 2                  EPPR0   11
         1 000143   000020 631400 xsym               EPPR1   B_VECTNIL+16
         1 000144   000000 701000 xent               TSX1    VEX$ERROR
         1 000145   000000 011000                    NOP     0

      119     1859    1           ALTRETURN;

   1859  1 000146   000000 702200 xent               TSX2  ! X66_AALT
      120     1860    1   END;

PL6.E3A0      #001=VEX$DELREC File=VEX$DELREC.:E05TSI                            WED 07/30/97 07:11 Page:16
--  Include file information  --

   VE_FLAGS_R.:E05TOU  cannot be made into a system file and is referenced.
   F$DCB.:E05TOU  cannot be made into a system file and is referenced.
   VE_PERR_C.:E05TOU  is referenced.
   VE_SUBS_C.:E05TOU  is referenced.
   B_ERRORS_C.:E05TOU  is referenced.
   CP_6.:E05TOU  cannot be made into a system file and is referenced.
   B$JIT_C.:E05TOU  was found in the system file and is never referenced.
   CP_6_C.:E05TOU  was found in the system file and is referenced.
      No diagnostics issued in procedure VEX$DELREC.
PL6.E3A0      #001=VEX$DELREC File=VEX$DELREC.:E05TSI                            WED 07/30/97 07:11 Page:17

 **** Variables and constants ****

  ****  Auto variables  ****

  ****  Scalars and arrays  ****
OctLoc.c.b A Datatyp(siz) R M Lvl/name                 OctLoc.c.b A Datatyp(siz) R M Lvl/name

     3-0-0/w PTR         r     1 @DCB#                      4-0-0/w PTR         r     1 @DELKEY
     5-0-0/w PTR         r     1 @HI_DELKEY                *0-0-0/w UBIN        r     1 DCB#
    *0-0-0/w CHAR(64)    r     1 DELKEY                    46-0-0/d STRC(360)   r     1 DELREC_FPT
     6-0-0/w STRC(576)   r     1 DEL_E_KEY                  6-0-0/w CHAR(64)    r     1 DEL_KEY
    *0-0-0/w CHAR(64)    r     1 HI_DELKEY                 26-0-0/w STRC(576)   r     1 HI_DEL_E_KEY
    26-0-0/w CHAR(64)    r     1 HI_DEL_KEY                *0-0-0/w STRC(576)   r     1 HI_E_DELKEY
    *0-0-0/w STRC(576)   r     1 READ_E_KEY

  ****  SYMREF variables  ****

  ****  Scalars and arrays  ****
OctLoc.c.b A Datatyp(siz) R M Lvl/name                 OctLoc.c.b A Datatyp(siz) R M Lvl/name

     0-0-0/w PTR         r     1 B$TCB$                     0-0-0/b STRC(72)    r     1 FLAGS
     0-0-0/w UBIN        r     1 M$FILE_NUM                 0-0-0/w UBIN        r     1 Y003

  ****  BASED and DCB variables  ****

  ****  Scalars and arrays  ****
OctLoc.c.b A Datatyp(siz) R M Lvl/name                 OctLoc.c.b A Datatyp(siz) R M Lvl/name

     0-0-0/w STRC(2448)  r     1 B$ALT                      0-0-0/w STRC(144)   r     1 B$TCB
     0-0-0/d ASTR(3528)  r     1 F$DCB


   Procedure VEX$DELREC requires 103 words for executable code.
   Procedure VEX$DELREC requires 50 words of local(AUTO) storage.
PL6.E3A0      #001=VEX$DELREC File=VEX$DELREC.:E05TSI                            WED 07/30/97 07:11 Page:18

    No errors detected in file VEX$DELREC.:E05TSI    .
PL6.E3A0      #001=VEX$DELREC File=VEX$DELREC.:E05TSI                            WED 07/30/97 07:11 Page:19
          *** CROSS REFERENCE LISTING ***
**     DENOTES     IDENTIFIER DEFINITION
<<                 IDENTIFIER'S VALUE SET
>>                 IDENTIFIER'S VALUE USED
<>                 IDENTIFIER SET AND/OR USED
--                 IDENTIFIER REFERENCED
PL6.E3A0      #001=VEX$DELREC File=VEX$DELREC.:E05TSI                            WED 07/30/97 07:11 Page:20
          MINI XREF LISTING

B$ALT.CODE
      1264**DCL      1264--REDEF    1265--REDEF    1265--REDEF
B$ALT.ERR.ERR#
      1266**DCL      1266--REDEF    1844>>IF
B$ALT.EVID
      1265**DCL      1265--REDEF    1265--REDEF
B$TCB.ALT$
      1260**DCL      1844>>IF
B$TCB$
      1810**DCL      1844>>IF
DCB#
        25**DCL         8--PROC     1817>>IF       1824>>IF       1832>>IF       1836>>ASSIGN
DELKEY
        26**DCL         8--PROC       27--REDEF    1826>>ASSIGN
DELREC_ALT
      1844**LABEL    1839--CALLALT
DELREC_FPT
      1744**DCL      1839<>CALL
DELREC_FPT.IDBUF_
      1747**DCL      1837<<ASSIGN
DELREC_FPT.KEY_
      1744**DCL      1822<<ASSIGN
DELREC_FPT.LKEY_
      1746**DCL      1829<<ASSIGN   1831<<ASSIGN
DELREC_FPT.V
      1747**DCL      1823--ASSIGN
DELREC_FPT.V.BRK#
      1749**DCL      1838<<ASSIGN
DELREC_FPT.V.DCB#
      1748**DCL      1836<<ASSIGN
DELREC_FPT.V_
      1744**DCL      1823<<ASSIGN
PL6.E3A0      #001=VEX$DELREC File=VEX$DELREC.:E05TSI                            WED 07/30/97 07:11 Page:21
DEL_E_KEY.KEY
        40**DCL      1825<<ASSIGN
DEL_KEY
        38**DCL        39--REDEF    1822--ASSIGN   1826<<ASSIGN
F$DCB.ACTPOS
      1707**DCL      1707--REDEF
F$DCB.ARS
      1682**DCL      1682--REDEF
F$DCB.ATTR
      1700**DCL      1701--REDEF
F$DCB.BORROW
      1715**DCL      1715--REDEF    1715--REDEF    1715--REDEF
F$DCB.DCBNAME.L
      1729**DCL      1729--IMP-SIZ
F$DCB.EOMCHAR
      1686**DCL      1686--REDEF
F$DCB.FLDID
      1710**DCL      1710--REDEF
F$DCB.FORM$
      1704**DCL      1704--REDEF
F$DCB.FSECT
      1720**DCL      1720--REDEF
F$DCB.FSN
      1697**DCL      1697--REDEF    1697--REDEF    1698--REDEF
F$DCB.HEADER$
      1703**DCL      1703--REDEF
F$DCB.IXTNSIZE
      1701**DCL      1701--REDEF
F$DCB.LASTSTA$
      1691**DCL      1691--REDEF
F$DCB.LVL
      1716**DCL      1716--REDEF
F$DCB.NAME.C
      1691**DCL      1691--REDEF
F$DCB.NOEOF
      1712**DCL      1712--REDEF
PL6.E3A0      #001=VEX$DELREC File=VEX$DELREC.:E05TSI                            WED 07/30/97 07:11 Page:22
F$DCB.NRECS
      1702**DCL      1702--REDEF
F$DCB.NRECX
      1721**DCL      1721--REDEF
F$DCB.OHDR
      1713**DCL      1713--REDEF
F$DCB.ORG
      1696**DCL      1696--REDEF
F$DCB.PRECNO
      1719**DCL      1719--REDEF
F$DCB.RCSZ
      1724**DCL      1724--REDEF
F$DCB.RES
      1692**DCL      1692--REDEF
F$DCB.SETX
      1704**DCL      1704--REDEF
F$DCB.TAB$
      1703**DCL      1704--REDEF
F$DCB.TDA
      1718**DCL      1718--REDEF
F$DCB.WSN
      1693**DCL      1693--REDEF
FLAGS.BADKEY
      1803**DCL      1846>>IF
FLAGS.CONSEC_MODE
      1773**DCL      1817>>IF
FLAGS.EXISTS
      1770**DCL      1840<<ASSIGN   1845<<ASSIGN
FLAGS.REL_MODE
      1784**DCL      1824>>IF       1832>>IF
HI_DELKEY
        30**DCL         8--PROC       31--REDEF    1834>>ASSIGN
HI_DEL_E_KEY.KEY
        44**DCL      1833<<ASSIGN
HI_DEL_KEY
        42**DCL        43--REDEF    1831--ASSIGN   1834<<ASSIGN
PL6.E3A0      #001=VEX$DELREC File=VEX$DELREC.:E05TSI                            WED 07/30/97 07:11 Page:23
HI_E_DELKEY.KEY
        32**DCL      1827>>IF       1833>>ASSIGN
M$DELREC
        62**DCL-ENT  1839--CALL
M$FILE_NUM
      1811**DCL      1817>>IF       1824>>IF       1832>>IF
READ_E_KEY.KEY
        28**DCL      1825>>ASSIGN
VEX$ERROR
      1813**DCL-ENT  1818--CALL     1848--CALL     1858--CALL
Y003
      1809**DCL      1825>>ASSIGN   1833>>ASSIGN
