VERSION E05

PL6.E3A0      #001=VEX$FIELD_LEFT File=VEX$FIELD_LEFT.:E05TSI                    WED 07/30/97 07:12 Page:1
        1        1        /*M*    VEX$FIELD_LEFT - MOVE A TEXT FIELD LEFT IN A RECORD FOR EDIT */
        2        2        /*T***********************************************************/
        3        3        /*T*                                                         */
        4        4        /*T* Copyright (c) Bull HN Information Systems Inc., 1997    */
        5        5        /*T*                                                         */
        6        6        /*T***********************************************************/
        7        7        /*X* DMR,PLM=5,IND=3,CTI=3,SDI=3,MCL=10,CSI=0,ECI=0 */
        8        8        VEX$FIELD_LEFT: PROC(CLMN,MOVE#,COUNT);
        9        9        /**/
       10       10        /*F*     NAME:     VEX$FIELD_LEFT
       11       11                 PURPOSE:  VEX$FIELD_LEFT WILL SHIFT THE TEXT FIELD CONTAINING
       12       12                           A GIVEN COLUMN TO THE LEFT BY A GIVEN AMOUNT. THE
       13       13                           HOLE THAT IS CREATED WILL BE BLANK FILLED.      */
       14       14        /**/
       15       15        /*D*     NAME:     VEX$FIELD_LEFT
       16       16                 PARAMETERS: CLMN - STARTING COLUMN OF THE FIELD THAT IS TO BE
       17       17                                SHIFTED.
       18       18                           MOVE# - NUMBER OF COLUMNS TO BE SHIFTED LEFT
       19       19                           COUNT - LENGTH OF USER SPECIFIED STRING
       20       20                 DESCRIPTION: IF THE MOVE# IS LARGER THAN THE CLMN THEN DATA WILL
       21       21                           BE LOST OFF OF THE LEFT EDGE OF THE RECORD. THE USER IS
       22       22                           INFORMED OF THIS 'UNDERFLOW'. A SEARCH IS THEN MADE
       23       23                           FOR THE END OF THE FIELD TO BE SHIFTED, THAT IS THE
       24       24                           FIRST BLANK AFTER CLMN OR THE END OF THE RECORD
       25       25                           WHICH IS IN REC_BUF. THIS TEXT FIELD IS THEN MOVED
       26       26                           LEFT IN REC_BUF THE SPECIFIED AMOUNT AND THE HOLE
       27       27                           THAT IS CREATED IS BLANK FILLED. VEX$FIELD_LEFT ALWAYS
       28       28                           RETURNS NORMALLY TO THE USER.          */
       29       29        /**/
       30       30        /**/
       31       31        /**********************************************************************/
       32       32        /*   PARAMETERS   PARAMETERS   PARAMETERS   PARAMETERS   PARAMETERS   */
       33       33        /**********************************************************************/
       34       34    1   DCL CLMN UBIN(36);
       35       35    1   DCL MOVE# UBIN(36);
       36       36    1   DCL COUNT UBIN(36);
       37       37        /*****************************************************************/
PL6.E3A0      #001=VEX$FIELD_LEFT File=VEX$FIELD_LEFT.:E05TSI                    WED 07/30/97 07:12 Page:2
       38       38        /*   AUTO DATA   AUTO DATA   AUTO DATA   AUTO DATA   AUTO DATA   */
       39       39        /*****************************************************************/
       40       40    1   DCL FL_CLMN UBIN(36);
       41       41    1   DCL BLANK_CLMN UBIN(36);
       42       42        /*****************************************************************/
       43       43        /*   SYMREFS   SYMREFS   SYMREFS   SYMREFS   SYMREFS   SYMREFS   */
       44       44        /*****************************************************************/
       45       45        %INCLUDE VE_SUBS_C;
       46      239        %INCLUDE VE_PERR_C;
       47      456        /**/
       48      457        %INCLUDE VE_FLAGS_R;
       49      508        /**/
       50      509    1   DCL REC_BUF CHAR(PC_RECSIZE#) SYMREF;
       51      510    1   DCL REC_SIZE UBIN(36) SYMREF;
       52      511    1   DCL BLANKS CHAR(4)   SYMREF;
       53      512    1   DCL VEX$ERROR ENTRY(2) ALTRET;
       54      513        /*****************************************************************************/
       55      514        /*   PROCEDURE   PROCEDURE   PROCEDURE   PROCEDURE   PROCEDURE   PROCEDURE   */
       56      515        /*****************************************************************************/
       57      516    1        FL_CLMN = CLMN;                    /* SAVE PARAMETER                     */
       58      517        /**/
       59      518    1        CALL INDEX(BLANK_CLMN,' ',SUBSTR(REC_BUF,0,REC_SIZE),FL_CLMN + COUNT)
       60      519    1           ALTRET (LAST_FIELD);
       61      520        /**/
       62      521    1   FIELD_LEFT_1:
       63      522    2        IF (FL_CLMN < MOVE#) THEN DO;      /* UNDERFLOW                          */
       64      523    3           IF (~FLAGS.UNDRFLOWMSG) THEN DO;
       65      524    3              CALL VEX$ERROR(E$E_UNDRFLOW,2);
       66      525    3              FLAGS.UNDRFLOWMSG = TRUE;
       67      526    3              END;
       68      527    2           IF (BLANK_CLMN < MOVE#) THEN MOVE# = BLANK_CLMN; /* ONLY MOVE FIELD */
       69      528    2           FL_CLMN = MOVE#;
       70      529    2           END;
       71      530        /**/
       72      531        /*E*     ERROR:    VEE-E$E_UNDRFLOW-0
       73      532                 MESSAGE:  Underflow
       74      533                 MESSAGE1: Some characters have been lost off of the left
PL6.E3A0      #001=VEX$FIELD_LEFT File=VEX$FIELD_LEFT.:E05TSI                    WED 07/30/97 07:12 Page:3
       75      534                           end of the record
       76      535                 DESCRIPTION: A shifting operation has caused some characters to
       77      536                           slide off of the left edge of the record.
       78      537        */
       79      538        /**/
       80      539    1        CALL INSERT(REC_BUF,FL_CLMN-MOVE#,BLANK_CLMN-FL_CLMN,
       81      540    1           SUBSTR(REC_BUF,FL_CLMN,BLANK_CLMN-FL_CLMN));
       82      541    1        CALL INSERT(REC_BUF,BLANK_CLMN-MOVE#,MOVE#,BLANKS);
       83      542    1        IF (BLANK_CLMN = REC_SIZE) THEN REC_SIZE = REC_SIZE - MOVE#;
       84      543    1        RETURN;
       85      544        /**/
       86      545    1   LAST_FIELD:
       87      546    1        BLANK_CLMN = REC_SIZE;
       88      547    1        GOTO FIELD_LEFT_1;
       89      548    1   END;                                    /* END VEX$FIELD_LEFT                 */

PL6.E3A0      #001=VEX$FIELD_LEFT File=VEX$FIELD_LEFT.:E05TSI                    WED 07/30/97 07:12 Page:4
--  Include file information  --

   VE_FLAGS_R.:E05TOU  cannot be made into a system file and is referenced.
   VE_PERR_C.:E05TOU  is referenced.
   VE_SUBS_C.:E05TOU  is referenced.
      No diagnostics issued in procedure VEX$FIELD_LEFT.

   Procedure VEX$FIELD_LEFT requires 75 words for executable code.
   Procedure VEX$FIELD_LEFT requires 12 words of local(AUTO) storage.

    No errors detected in file VEX$FIELD_LEFT.:E05TSI    .

PL6.E3A0      #001=VEX$FIELD_LEFT File=VEX$FIELD_LEFT.:E05TSI                    WED 07/30/97 07:12 Page:5

 Object Unit name= VEX$FIELD_LEFT                             File name= VEX$FIELD_LEFT.:E05TOU
 UTS= JUL 30 '97 07:12:16.32 WED                              Compiler= PL-6/E31         Sev=      00
 SharedLib= :SHARED_SYSTEM                                    Alt SharedLib=


    ****  Control sections  ****

 Sect   Type Bound  Init  Size OctSiz  Section name(segment info)
    0   Proc  even  none    75    113  VEX$FIELD_LEFT
    1  RoData even  none     3      3  VEX$FIELD_LEFT

    ****  Entry defs  ****

                              Check   Calling
                             calling  sequence
  Sect OctLoc Primary Altret sequence   type   Parms  Name
     0      0   yes            yes      Std        3  VEX$FIELD_LEFT

  ****  Entry refs  ****

         Check        Calling
        calling       sequence
Altret sequence SRef   type   Args  Name
 yes     yes           Std       2 VEX$ERROR
                       nStd      0 X66_AUTO_3
                       Std       0 B_CONSPOOL_D
                       nStd      0 X66_ARET

  ****  Data refs  ****

  Flags:  r = read only, s = secondary
Flgs Name                             Flgs Name                             Flgs Name
     FLAGS                                 REC_BUF                               REC_SIZE
     BLANKS                                B_VECTNIL
PL6.E3A0      #001=VEX$FIELD_LEFT File=VEX$FIELD_LEFT.:E05TSI                    WED 07/30/97 07:12 Page:6

  ****  Segment refs  ****

  Flags:  r = read only, s = secondary
Flgs Name                             Flgs Name                             Flgs Name
     ISSID
PL6.E3A0      #001=VEX$FIELD_LEFT File=VEX$FIELD_LEFT.:E05TSI                    WED 07/30/97 07:12 Page:7


        1        1        /*M*    VEX$FIELD_LEFT - MOVE A TEXT FIELD LEFT IN A RECORD FOR EDIT */
        2        2        /*T***********************************************************/
        3        3        /*T*                                                         */
        4        4        /*T* Copyright (c) Bull HN Information Systems Inc., 1997    */
        5        5        /*T*                                                         */
        6        6        /*T***********************************************************/
        7        7        /*X* DMR,PLM=5,IND=3,CTI=3,SDI=3,MCL=10,CSI=0,ECI=0 */
        8        8        VEX$FIELD_LEFT: PROC(CLMN,MOVE#,COUNT);

      8  0 000000   000000 700200 xent  VEX$FIELD_L* TSX0  ! X66_AUTO_3
         0 000001   000014 000003                    ZERO    12,3

        9        9        /**/
       10       10        /*F*     NAME:     VEX$FIELD_LEFT
       11       11                 PURPOSE:  VEX$FIELD_LEFT WILL SHIFT THE TEXT FIELD CONTAINING
       12       12                           A GIVEN COLUMN TO THE LEFT BY A GIVEN AMOUNT. THE
       13       13                           HOLE THAT IS CREATED WILL BE BLANK FILLED.      */
       14       14        /**/
       15       15        /*D*     NAME:     VEX$FIELD_LEFT
       16       16                 PARAMETERS: CLMN - STARTING COLUMN OF THE FIELD THAT IS TO BE
       17       17                                SHIFTED.
       18       18                           MOVE# - NUMBER OF COLUMNS TO BE SHIFTED LEFT
       19       19                           COUNT - LENGTH OF USER SPECIFIED STRING
       20       20                 DESCRIPTION: IF THE MOVE# IS LARGER THAN THE CLMN THEN DATA WILL
       21       21                           BE LOST OFF OF THE LEFT EDGE OF THE RECORD. THE USER IS
       22       22                           INFORMED OF THIS 'UNDERFLOW'. A SEARCH IS THEN MADE
       23       23                           FOR THE END OF THE FIELD TO BE SHIFTED, THAT IS THE
       24       24                           FIRST BLANK AFTER CLMN OR THE END OF THE RECORD
       25       25                           WHICH IS IN REC_BUF. THIS TEXT FIELD IS THEN MOVED
       26       26                           LEFT IN REC_BUF THE SPECIFIED AMOUNT AND THE HOLE
       27       27                           THAT IS CREATED IS BLANK FILLED. VEX$FIELD_LEFT ALWAYS
       28       28                           RETURNS NORMALLY TO THE USER.          */
       29       29        /**/
       30       30        /**/
       31       31        /**********************************************************************/
       32       32        /*   PARAMETERS   PARAMETERS   PARAMETERS   PARAMETERS   PARAMETERS   */
PL6.E3A0      #001=VEX$FIELD_LEFT File=VEX$FIELD_LEFT.:E05TSI                    WED 07/30/97 07:12 Page:8
       33       33        /**********************************************************************/
       34       34    1   DCL CLMN UBIN(36);
       35       35    1   DCL MOVE# UBIN(36);
       36       36    1   DCL COUNT UBIN(36);
       37       37        /*****************************************************************/
       38       38        /*   AUTO DATA   AUTO DATA   AUTO DATA   AUTO DATA   AUTO DATA   */
       39       39        /*****************************************************************/
       40       40    1   DCL FL_CLMN UBIN(36);
       41       41    1   DCL BLANK_CLMN UBIN(36);
       42       42        /*****************************************************************/
       43       43        /*   SYMREFS   SYMREFS   SYMREFS   SYMREFS   SYMREFS   SYMREFS   */
       44       44        /*****************************************************************/
       45       45        %INCLUDE VE_SUBS_C;
       46      239        %INCLUDE VE_PERR_C;
       47      456        /**/
       48      457        %INCLUDE VE_FLAGS_R;
       49      508        /**/
       50      509    1   DCL REC_BUF CHAR(PC_RECSIZE#) SYMREF;
       51      510    1   DCL REC_SIZE UBIN(36) SYMREF;
       52      511    1   DCL BLANKS CHAR(4)   SYMREF;
       53      512    1   DCL VEX$ERROR ENTRY(2) ALTRET;
       54      513        /*****************************************************************************/
       55      514        /*   PROCEDURE   PROCEDURE   PROCEDURE   PROCEDURE   PROCEDURE   PROCEDURE   */
       56      515        /*****************************************************************************/
       57      516    1        FL_CLMN = CLMN;                    /* SAVE PARAMETER                     */

    516  0 000002   200003 470500                    LDP0    @CLMN,,AUTO
         0 000003   000000 235100                    LDA     0,,PR0
         0 000004   200006 755100                    STA     FL_CLMN,,AUTO

       58      517        /**/
       59      518    1        CALL INDEX(BLANK_CLMN,' ',SUBSTR(REC_BUF,0,REC_SIZE),FL_CLMN + COUNT)

    518  0 000005   200005 471500                    LDP1    @COUNT,,AUTO
         0 000006   200006 236100                    LDQ     FL_CLMN,,AUTO
         0 000007   100000 036100                    ADLQ    0,,PR1
         0 000010   200010 756100                    STQ     BLANK_CLMN+1,,AUTO
PL6.E3A0      #001=VEX$FIELD_LEFT File=VEX$FIELD_LEFT.:E05TSI                    WED 07/30/97 07:12 Page:9
         0 000011   200011 756100                    STQ     BLANK_CLMN+2,,AUTO
         0 000012   000000 236000 xsym               LDQ     REC_SIZE
         0 000013   200010 136100                    SBLQ    BLANK_CLMN+1,,AUTO
         0 000014   200012 756100                    STQ     BLANK_CLMN+3,,AUTO
         0 000015   200011 236100                    LDQ     BLANK_CLMN+2,,AUTO
         0 000016   200012 720100                    LXL0    BLANK_CLMN+3,,AUTO
         0 000017   200011 235100                    LDA     BLANK_CLMN+2,,AUTO
         0 000020   000000 124445                    SCM     mask='000'O
         0 000021   000000 000010 xsym               ADSC9   REC_BUF,A                cn=0,n=*X0
         0 000022   000035 000001 xsym               ADSC9   B_VECTNIL+29             cn=0,n=1
         0 000023   200007 000100                    ARG     BLANK_CLMN,,AUTO
         0 000024   200007 056100                    ASQ     BLANK_CLMN,,AUTO
         0 000025   000110 606400 0                  TTN     LAST_FIELD

       60      519    1           ALTRET (LAST_FIELD);
       61      520        /**/
       62      521    1   FIELD_LEFT_1:
       63      522    2        IF (FL_CLMN < MOVE#) THEN DO;      /* UNDERFLOW                          */

    522  0 000026   200004 470500       FIELD_LEFT_1 LDP0    @MOVE#,,AUTO
         0 000027   200006 236100                    LDQ     FL_CLMN,,AUTO
         0 000030   000000 116100                    CMPQ    0,,PR0
         0 000031   000054 603000 0                  TRC     s:539

       64      523    3           IF (~FLAGS.UNDRFLOWMSG) THEN DO;

    523  0 000032   000000 236000 xsym               LDQ     FLAGS
         0 000033   000024 736000                    QLS     20
         0 000034   400000 376003                    ANQ     -131072,DU
         0 000035   400000 676003                    ERQ     -131072,DU
         0 000036   000045 600000 0                  TZE     s:527

       65      524    3              CALL VEX$ERROR(E$E_UNDRFLOW,2);

    524  0 000037   000001 630400 1                  EPPR0   1
         0 000040   000020 631400 xsym               EPPR1   B_VECTNIL+16
         0 000041   000000 701000 xent               TSX1    VEX$ERROR
PL6.E3A0      #001=VEX$FIELD_LEFT File=VEX$FIELD_LEFT.:E05TSI                    WED 07/30/97 07:12 Page:10
         0 000042   000000 011000                    NOP     0

       66      525    3              FLAGS.UNDRFLOWMSG = TRUE;

    525  0 000043   100000 236007                    LDQ     32768,DL
         0 000044   000000 256000 xsym               ORSQ    FLAGS

       67      526    3              END;

       68      527    2           IF (BLANK_CLMN < MOVE#) THEN MOVE# = BLANK_CLMN; /* ONLY MOVE FIELD */

    527  0 000045   200004 470500                    LDP0    @MOVE#,,AUTO
         0 000046   200007 236100                    LDQ     BLANK_CLMN,,AUTO
         0 000047   000000 116100                    CMPQ    0,,PR0
         0 000050   000052 603000 0                  TRC     s:528

    527  0 000051   000000 756100                    STQ     0,,PR0

       69      528    2           FL_CLMN = MOVE#;

    528  0 000052   000000 235100                    LDA     0,,PR0
         0 000053   200006 755100                    STA     FL_CLMN,,AUTO

       70      529    2           END;

       71      530        /**/
       72      531        /*E*     ERROR:    VEE-E$E_UNDRFLOW-0
       73      532                 MESSAGE:  Underflow
       74      533                 MESSAGE1: Some characters have been lost off of the left
       75      534                           end of the record
       76      535                 DESCRIPTION: A shifting operation has caused some characters to
       77      536                           slide off of the left edge of the record.
       78      537        */
       79      538        /**/
       80      539    1        CALL INSERT(REC_BUF,FL_CLMN-MOVE#,BLANK_CLMN-FL_CLMN,

    539  0 000054   200006 236100                    LDQ     FL_CLMN,,AUTO
PL6.E3A0      #001=VEX$FIELD_LEFT File=VEX$FIELD_LEFT.:E05TSI                    WED 07/30/97 07:12 Page:11
         0 000055   000000 136100                    SBLQ    0,,PR0
         0 000056   200010 756100                    STQ     BLANK_CLMN+1,,AUTO
         0 000057   200007 236100                    LDQ     BLANK_CLMN,,AUTO
         0 000060   200006 136100                    SBLQ    FL_CLMN,,AUTO
         0 000061   200011 756100                    STQ     BLANK_CLMN+2,,AUTO
         0 000062   200007 236100                    LDQ     BLANK_CLMN,,AUTO
         0 000063   200006 136100                    SBLQ    FL_CLMN,,AUTO
         0 000064   000000 620006                    EAX0    0,QL
         0 000065   200006 235100                    LDA     FL_CLMN,,AUTO
         0 000066   200011 721100                    LXL1    BLANK_CLMN+2,,AUTO
         0 000067   200010 236100                    LDQ     BLANK_CLMN+1,,AUTO
         0 000070   040046 100445                    MLR     fill='040'O
         0 000071   000000 000010 xsym               ADSC9   REC_BUF,A                cn=0,n=*X0
         0 000072   000000 000011 xsym               ADSC9   REC_BUF,Q                cn=0,n=*X1

       81      540    1           SUBSTR(REC_BUF,FL_CLMN,BLANK_CLMN-FL_CLMN));
       82      541    1        CALL INSERT(REC_BUF,BLANK_CLMN-MOVE#,MOVE#,BLANKS);

    541  0 000073   200007 236100                    LDQ     BLANK_CLMN,,AUTO
         0 000074   000000 136100                    SBLQ    0,,PR0
         0 000075   000000 720100                    LXL0    0,,PR0
         0 000076   040046 100400                    MLR     fill='040'O
         0 000077   000000 000004 xsym               ADSC9   BLANKS                   cn=0,n=4
         0 000100   000000 000010 xsym               ADSC9   REC_BUF,Q                cn=0,n=*X0

       83      542    1        IF (BLANK_CLMN = REC_SIZE) THEN REC_SIZE = REC_SIZE - MOVE#;

    542  0 000101   200007 236100                    LDQ     BLANK_CLMN,,AUTO
         0 000102   000000 116000 xsym               CMPQ    REC_SIZE
         0 000103   000107 601000 0                  TNZ     s:543

    542  0 000104   000000 236000 xsym               LDQ     REC_SIZE
         0 000105   000000 136100                    SBLQ    0,,PR0
         0 000106   000000 756000 xsym               STQ     REC_SIZE

       84      543    1        RETURN;

PL6.E3A0      #001=VEX$FIELD_LEFT File=VEX$FIELD_LEFT.:E05TSI                    WED 07/30/97 07:12 Page:12
    543  0 000107   000000 702200 xent               TSX2  ! X66_ARET

       85      544        /**/
       86      545    1   LAST_FIELD:
       87      546    1        BLANK_CLMN = REC_SIZE;

    546  0 000110   000000 235000 xsym  LAST_FIELD   LDA     REC_SIZE
         0 000111   200007 755100                    STA     BLANK_CLMN,,AUTO

       88      547    1        GOTO FIELD_LEFT_1;

    547  0 000112   000026 710000 0                  TRA     FIELD_LEFT_1
       89      548    1   END;                                    /* END VEX$FIELD_LEFT                 */

PL6.E3A0      #001=VEX$FIELD_LEFT File=VEX$FIELD_LEFT.:E05TSI                    WED 07/30/97 07:12 Page:13
--  Include file information  --

   VE_FLAGS_R.:E05TOU  cannot be made into a system file and is referenced.
   VE_PERR_C.:E05TOU  is referenced.
   VE_SUBS_C.:E05TOU  is referenced.
      No diagnostics issued in procedure VEX$FIELD_LEFT.
PL6.E3A0      #001=VEX$FIELD_LEFT File=VEX$FIELD_LEFT.:E05TSI                    WED 07/30/97 07:12 Page:14

 **** Variables and constants ****

  ****  Auto variables  ****

  ****  Scalars and arrays  ****
OctLoc.c.b A Datatyp(siz) R M Lvl/name                 OctLoc.c.b A Datatyp(siz) R M Lvl/name

     3-0-0/w PTR         r     1 @CLMN                      5-0-0/w PTR         r     1 @COUNT
     4-0-0/w PTR         r     1 @MOVE#                     7-0-0/w UBIN        r     1 BLANK_CLMN
    *0-0-0/w UBIN        r     1 CLMN                      *0-0-0/w UBIN        r     1 COUNT
     6-0-0/w UBIN        r     1 FL_CLMN                   *0-0-0/w UBIN        r     1 MOVE#

  ****  SYMREF variables  ****

  ****  Scalars and arrays  ****
OctLoc.c.b A Datatyp(siz) R M Lvl/name                 OctLoc.c.b A Datatyp(siz) R M Lvl/name

     0-0-0/c CHAR(4)     r     1 BLANKS                     0-0-0/b STRC(72)    r     1 FLAGS
     0-0-0/c CHAR(1024)  r     1 REC_BUF                    0-0-0/w UBIN        r     1 REC_SIZE


   Procedure VEX$FIELD_LEFT requires 75 words for executable code.
   Procedure VEX$FIELD_LEFT requires 12 words of local(AUTO) storage.

    No errors detected in file VEX$FIELD_LEFT.:E05TSI    .
PL6.E3A0      #001=VEX$FIELD_LEFT File=VEX$FIELD_LEFT.:E05TSI                    WED 07/30/97 07:12 Page:15
          *** CROSS REFERENCE LISTING ***
**     DENOTES     IDENTIFIER DEFINITION
<<                 IDENTIFIER'S VALUE SET
>>                 IDENTIFIER'S VALUE USED
<>                 IDENTIFIER SET AND/OR USED
--                 IDENTIFIER REFERENCED
PL6.E3A0      #001=VEX$FIELD_LEFT File=VEX$FIELD_LEFT.:E05TSI                    WED 07/30/97 07:12 Page:16
          MINI XREF LISTING

BLANKS
       511**DCL       541>>CALLBLT
BLANK_CLMN
        41**DCL       518<<CALLBLT   527>>IF        527>>ASSIGN    539>>CALLBLT   539>>CALLBLT   541>>CALLBLT
       542>>IF        546<<ASSIGN
CLMN
        34**DCL         8--PROC      516>>ASSIGN
COUNT
        36**DCL         8--PROC      518>>CALLBLT
FIELD_LEFT_1
       522**LABEL     547--GOTO
FLAGS.UNDRFLOWMSG
       486**DCL       523>>IF        525<<ASSIGN
FL_CLMN
        40**DCL       516<<ASSIGN    518>>CALLBLT   522>>IF        528<<ASSIGN    539>>CALLBLT   539>>CALLBLT
       539>>CALLBLT   539>>CALLBLT
LAST_FIELD
       546**LABEL     518--CALLALT
MOVE#
        35**DCL         8--PROC      522>>IF        527>>IF        527<<ASSIGN    528>>ASSIGN    539>>CALLBLT
       541>>CALLBLT   541>>CALLBLT   542>>ASSIGN
REC_BUF
       509**DCL       518>>CALLBLT   539<<CALLBLT   539>>CALLBLT   541<<CALLBLT
REC_SIZE
       510**DCL       518>>CALLBLT   542>>IF        542<<ASSIGN    542>>ASSIGN    546>>ASSIGN
VEX$ERROR
       512**DCL-ENT   524--CALL
