VERSION E05

PL6.E3A0      #001=VEX$SET_PROMPT File=VEX$SET_PROMPT.:E05TSI                    WED 07/30/97 07:16 Page:1
        1        1        /*M*    VEX$SET_PROMPT - SET PROMPT FOR EDIT READS */
        2        2        /*T***********************************************************/
        3        3        /*T*                                                         */
        4        4        /*T* Copyright (c) Bull HN Information Systems Inc., 1997    */
        5        5        /*T*                                                         */
        6        6        /*T***********************************************************/
        7        7        /*X*/
        8        8        VEX$SET_PROMPT: PROC(PR_TYPE);
        9        9        /**/
       10       10        /*F*     NAME:     VEX$SET_PROMPT
       11       11                 PURPUSE:  To set the prompt that EDIT will use when reading
       12       12                           input from the user.          */
       13       13        /*D*     NAME:     VEX$SET_PROMPT
       14       14                 PARAMETERS:    PR_TYPE - Indicates which prompt is requested.
       15       15                           Possible prompts are:
       16       16                                1) Single asterisk
       17       17                                2) Double asterisk
       18       18                                3) period
       19       19                                4) Sequence number
       20       20                                5) NULL
       21       21                                6) GREATER THAN ASTERISK
       22       22                                7) D GREATER THAN
       23       23                                8) S GREATER THAN
       24       24                                9) DICTIONARY
       25       25                               10) SYNONYM
       26       26                               11) TOPIC
       27       27                               12) COLON BLANK
       28       28                 DESCRIPTION: VEX$SET_PROMPT simply sets the prompt to the
       29       29                           characters requested and returns.       */
       30       30        /**/
       31       31        /**********************************************************************/
       32       32        /*   PARAMETERS   PARAMETERS   PARAMETERS   PARAMETERS   PARAMETERS   */
       33       33        /**********************************************************************/
       34       34        /**/
       35       35    1   DCL PR_TYPE UBIN WORD;
       36       36        /**/
       37       37        /*********************************************************************/
PL6.E3A0      #001=VEX$SET_PROMPT File=VEX$SET_PROMPT.:E05TSI                    WED 07/30/97 07:16 Page:2
       38       38        /*   INCLUDE FILES   INCLUDE FILES   INCLUDE FILES   INCLUDE FILES   */
       39       39        /*********************************************************************/
       40       40        /**/
       41       41        %INCLUDE VE_SUBS_C;
       42      235        %INCLUDE CP_6;
       43      316        /**/
       44      317        /********************************************************************/
       45      318        /*   FPTS   FPTS   FPTS   FPTS   FPTS   FPTS   FPTS   FPTS   FPTS   */
       46      319        /********************************************************************/
       47      320        /**/
       48      321        %FPT_PROMPT (FPTN = PROMPT_FPT , STCLASS = "");
       49      349        %FPT_PROMPT (FPTN = PROMPT_FPT_C , STCLASS = CONSTANT);
       50      377        /**/
       51      378        /***************************************************************************/
       52      379        /*   STATIC DATA   STATIC DATA   STATIC DATA   STATIC DATA   STATIC DATA   */
       53      380        /***************************************************************************/
       54      381        /**/
       55      382    1   DCL SINGLE_AST CHAR(1) SYMREF;
       56      383    1   DCL DOUBLE_AST CHAR(2) CONSTANT INIT('**');
       57      384    1   DCL PERIOD CHAR(1) CONSTANT INIT('.');
       58      385    1   DCL NULL CHAR(1) CONSTANT INIT(BINASC(0));
       59      386    1   DCL GTAST CHAR(2) SYMREF;
       60      387        /**/
       61      388    1   DCL SEQ_TEXT_BUF CHAR(9) SYMREF;
       62      389        /*****************************************************************/
       63      390        /*   AUTO DATA   AUTO DATA   AUTO DATA   AUTO DATA   AUTO DATA   */
       64      391        /*****************************************************************/
       65      392        /**/
       66      393    1   DCL PROMPT_BUF CHAR(10);
       67      394        %EJECT;
PL6.E3A0      #001=VEX$SET_PROMPT File=VEX$SET_PROMPT.:E05TSI                    WED 07/30/97 07:16 Page:3
       68      395        /*****************************************************************/
       69      396        /*   PROCEDURE   PROCEDURE   PROCEDURE   PROCEDURE   PROCEDURE   */
       70      397        /*****************************************************************/
       71      398    1           PROMPT_FPT = PROMPT_FPT_C;
       72      399    2           DO CASE(PR_TYPE);
       73      400    2            CASE (PR_1AST);
       74      401    2              PROMPT_FPT.PROMPT_ = VECTOR(SINGLE_AST);
       75      402    2            CASE (PR_2AST);
       76      403    2              PROMPT_FPT.PROMPT_ = VECTOR(DOUBLE_AST);
       77      404    2            CASE (PR_PERIOD);
       78      405    2              PROMPT_FPT.PROMPT_ = VECTOR(PERIOD);
       79      406    2            CASE (PR_SEQNUM);
       80      407    2              PROMPT_FPT.PROMPT_ = VECTOR(PROMPT_BUF);
       81      408    2              PROMPT_BUF = SEQ_TEXT_BUF;
       82      409    2            CASE(PR_NULL);
       83      410    2              PROMPT_FPT.PROMPT_ = VECTOR(NULL);
       84      411    2            CASE(PR_GTAST);
       85      412    2              PROMPT_FPT.PROMPT_ = VECTOR(GTAST);
       86      413    2            END;
       87      414        /**/
       88      415    1           CALL M$PROMPT(PROMPT_FPT);
       89      416    1           RETURN;
       90      417    1   END;

PL6.E3A0      #001=VEX$SET_PROMPT File=VEX$SET_PROMPT.:E05TSI                    WED 07/30/97 07:16 Page:4
--  Include file information  --

   CP_6.:E05TOU  cannot be made into a system file and is referenced.
   VE_SUBS_C.:E05TOU  is referenced.
   B$JIT_C.:E05TOU  was found in the system file and is never referenced.
   CP_6_C.:E05TOU  was found in the system file and is referenced.
      No diagnostics issued in procedure VEX$SET_PROMPT.

   Procedure VEX$SET_PROMPT requires 44 words for executable code.
   Procedure VEX$SET_PROMPT requires 20 words of local(AUTO) storage.

    No errors detected in file VEX$SET_PROMPT.:E05TSI    .

PL6.E3A0      #001=VEX$SET_PROMPT File=VEX$SET_PROMPT.:E05TSI                    WED 07/30/97 07:16 Page:5

 Object Unit name= VEX$SET_PROMPT                             File name= VEX$SET_PROMPT.:E05TOU
 UTS= JUL 30 '97 07:16:29.48 WED                              Compiler= PL-6/E31         Sev=      00
 SharedLib= :SHARED_SYSTEM                                    Alt SharedLib=


    ****  Control sections  ****

 Sect   Type Bound  Init  Size OctSiz  Section name(segment info)
    0   DCB   even  none     0      0  M$UC
    1  RoData even  UTS     13     15  VEX$SET_PROMPT
    2   Proc  even  none    44     54  VEX$SET_PROMPT
    3  RoData even  none    12     14  VEX$SET_PROMPT

    ****  Entry defs  ****

                              Check   Calling
                             calling  sequence
  Sect OctLoc Primary Altret sequence   type   Parms  Name
     2      0   yes            yes      Std        1  VEX$SET_PROMPT

  ****  Entry refs  ****

         Check        Calling
        calling       sequence
Altret sequence SRef   type   Args  Name
                       nStd      0 X66_AUTO_1
                       nStd      0 X66_ARET

  ****  Data refs  ****

  Flags:  r = read only, s = secondary
Flgs Name                             Flgs Name                             Flgs Name
     M$UC                                  SINGLE_AST                            GTAST
     SEQ_TEXT_BUF
PL6.E3A0      #001=VEX$SET_PROMPT File=VEX$SET_PROMPT.:E05TSI                    WED 07/30/97 07:16 Page:6

  ****  Segment refs  ****

  Flags:  r = read only, s = secondary
Flgs Name                             Flgs Name                             Flgs Name
     ISSID                                 NULLSID
PL6.E3A0      #001=VEX$SET_PROMPT File=VEX$SET_PROMPT.:E05TSI                    WED 07/30/97 07:16 Page:7


        1        1        /*M*    VEX$SET_PROMPT - SET PROMPT FOR EDIT READS */
        2        2        /*T***********************************************************/
        3        3        /*T*                                                         */
        4        4        /*T* Copyright (c) Bull HN Information Systems Inc., 1997    */
        5        5        /*T*                                                         */
        6        6        /*T***********************************************************/
        7        7        /*X*/
        8        8        VEX$SET_PROMPT: PROC(PR_TYPE);

      8  2 000000   000000 700200 xent  VEX$SET_PRO* TSX0  ! X66_AUTO_1
         2 000001   000024 000001                    ZERO    20,1

        9        9        /**/
       10       10        /*F*     NAME:     VEX$SET_PROMPT
       11       11                 PURPUSE:  To set the prompt that EDIT will use when reading
       12       12                           input from the user.          */
       13       13        /*D*     NAME:     VEX$SET_PROMPT
       14       14                 PARAMETERS:    PR_TYPE - Indicates which prompt is requested.
       15       15                           Possible prompts are:
       16       16                                1) Single asterisk
       17       17                                2) Double asterisk
       18       18                                3) period
       19       19                                4) Sequence number
       20       20                                5) NULL
       21       21                                6) GREATER THAN ASTERISK
       22       22                                7) D GREATER THAN
       23       23                                8) S GREATER THAN
       24       24                                9) DICTIONARY
       25       25                               10) SYNONYM
       26       26                               11) TOPIC
       27       27                               12) COLON BLANK
       28       28                 DESCRIPTION: VEX$SET_PROMPT simply sets the prompt to the
       29       29                           characters requested and returns.       */
       30       30        /**/
       31       31        /**********************************************************************/
       32       32        /*   PARAMETERS   PARAMETERS   PARAMETERS   PARAMETERS   PARAMETERS   */
PL6.E3A0      #001=VEX$SET_PROMPT File=VEX$SET_PROMPT.:E05TSI                    WED 07/30/97 07:16 Page:8
       33       33        /**********************************************************************/
       34       34        /**/
       35       35    1   DCL PR_TYPE UBIN WORD;
       36       36        /**/
       37       37        /*********************************************************************/
       38       38        /*   INCLUDE FILES   INCLUDE FILES   INCLUDE FILES   INCLUDE FILES   */
       39       39        /*********************************************************************/
       40       40        /**/
       41       41        %INCLUDE VE_SUBS_C;
       42      235        %INCLUDE CP_6;
       43      316        /**/
       44      317        /********************************************************************/
       45      318        /*   FPTS   FPTS   FPTS   FPTS   FPTS   FPTS   FPTS   FPTS   FPTS   */
       46      319        /********************************************************************/
       47      320        /**/
       48      321        %FPT_PROMPT (FPTN = PROMPT_FPT , STCLASS = "");
       49      349        %FPT_PROMPT (FPTN = PROMPT_FPT_C , STCLASS = CONSTANT);
       50      377        /**/
       51      378        /***************************************************************************/
       52      379        /*   STATIC DATA   STATIC DATA   STATIC DATA   STATIC DATA   STATIC DATA   */
       53      380        /***************************************************************************/
       54      381        /**/
       55      382    1   DCL SINGLE_AST CHAR(1) SYMREF;
       56      383    1   DCL DOUBLE_AST CHAR(2) CONSTANT INIT('**');
       57      384    1   DCL PERIOD CHAR(1) CONSTANT INIT('.');
       58      385    1   DCL NULL CHAR(1) CONSTANT INIT(BINASC(0));
       59      386    1   DCL GTAST CHAR(2) SYMREF;
       60      387        /**/
       61      388    1   DCL SEQ_TEXT_BUF CHAR(9) SYMREF;
       62      389        /*****************************************************************/
       63      390        /*   AUTO DATA   AUTO DATA   AUTO DATA   AUTO DATA   AUTO DATA   */
       64      391        /*****************************************************************/
       65      392        /**/
       66      393    1   DCL PROMPT_BUF CHAR(10);
       67      394        %EJECT;
PL6.E3A0      #001=VEX$SET_PROMPT File=VEX$SET_PROMPT.:E05TSI                    WED 07/30/97 07:16 Page:9
       68      395        /*****************************************************************/
       69      396        /*   PROCEDURE   PROCEDURE   PROCEDURE   PROCEDURE   PROCEDURE   */
       70      397        /*****************************************************************/
       71      398    1           PROMPT_FPT = PROMPT_FPT_C;

    398  2 000002   000100 100400                    MLR     fill='000'O
         2 000003   000000 000050 1                  ADSC9   PROMPT_FPT_C             cn=0,n=40
         2 000004   200004 000050                    ADSC9   PROMPT_FPT,,AUTO         cn=0,n=40

       72      399    2           DO CASE(PR_TYPE);

    399  2 000005   200003 470500                    LDP0    @PR_TYPE,,AUTO
         2 000006   000000 235100                    LDA     0,,PR0
         2 000007   000007 115007                    CMPA    7,DL
         2 000010   000012 602005 2                  TNC     s:399+5,AL
         2 000011   000050 710000 2                  TRA     s:415
         2 000012   000050 710000 2                  TRA     s:415
         2 000013   000021 710000 2                  TRA     s:401
         2 000014   000024 710000 2                  TRA     s:403
         2 000015   000027 710000 2                  TRA     s:405
         2 000016   000032 710000 2                  TRA     s:407
         2 000017   000043 710000 2                  TRA     s:410
         2 000020   000046 710000 2                  TRA     s:412

       73      400    2            CASE (PR_1AST);

       74      401    2              PROMPT_FPT.PROMPT_ = VECTOR(SINGLE_AST);

    401  2 000021   000000 237000 3                  LDAQ    0
         2 000022   200010 757100                    STAQ    PROMPT_FPT+4,,AUTO
         2 000023   000050 710000 2                  TRA     s:415

       75      402    2            CASE (PR_2AST);

       76      403    2              PROMPT_FPT.PROMPT_ = VECTOR(DOUBLE_AST);

    403  2 000024   000002 237000 3                  LDAQ    2
PL6.E3A0      #001=VEX$SET_PROMPT File=VEX$SET_PROMPT.:E05TSI                    WED 07/30/97 07:16 Page:10
         2 000025   200010 757100                    STAQ    PROMPT_FPT+4,,AUTO
         2 000026   000050 710000 2                  TRA     s:415

       77      404    2            CASE (PR_PERIOD);

       78      405    2              PROMPT_FPT.PROMPT_ = VECTOR(PERIOD);

    405  2 000027   000004 237000 3                  LDAQ    4
         2 000030   200010 757100                    STAQ    PROMPT_FPT+4,,AUTO
         2 000031   000050 710000 2                  TRA     s:415

       79      406    2            CASE (PR_SEQNUM);

       80      407    2              PROMPT_FPT.PROMPT_ = VECTOR(PROMPT_BUF);

    407  2 000032   000006 235000 3                  LDA     6
         2 000033   200022 452500                    STP2    PROMPT_BUF+4,,AUTO
         2 000034   200022 236100                    LDQ     PROMPT_BUF+4,,AUTO
         2 000035   000016 036003                    ADLQ    14,DU
         2 000036   200010 757100                    STAQ    PROMPT_FPT+4,,AUTO

       81      408    2              PROMPT_BUF = SEQ_TEXT_BUF;

    408  2 000037   040100 100400                    MLR     fill='040'O
         2 000040   000000 000011 xsym               ADSC9   SEQ_TEXT_BUF             cn=0,n=9
         2 000041   200016 000012                    ADSC9   PROMPT_BUF,,AUTO         cn=0,n=10
         2 000042   000050 710000 2                  TRA     s:415

       82      409    2            CASE(PR_NULL);

       83      410    2              PROMPT_FPT.PROMPT_ = VECTOR(NULL);

    410  2 000043   000010 237000 3                  LDAQ    8
         2 000044   200010 757100                    STAQ    PROMPT_FPT+4,,AUTO
         2 000045   000050 710000 2                  TRA     s:415

       84      411    2            CASE(PR_GTAST);
PL6.E3A0      #001=VEX$SET_PROMPT File=VEX$SET_PROMPT.:E05TSI                    WED 07/30/97 07:16 Page:11

       85      412    2              PROMPT_FPT.PROMPT_ = VECTOR(GTAST);

    412  2 000046   000012 237000 3                  LDAQ    10
         2 000047   200010 757100                    STAQ    PROMPT_FPT+4,,AUTO

       86      413    2            END;

       87      414        /**/
       88      415    1           CALL M$PROMPT(PROMPT_FPT);

    415  2 000050   200004 630500                    EPPR0   PROMPT_FPT,,AUTO
         2 000051   160002 713400                    CLIMB   57346
         2 000052   401000 401760                    pmme    nvectors=3

       89      416    1           RETURN;

    416  2 000053   000000 702200 xent               TSX2  ! X66_ARET
       90      417    1   END;

PL6.E3A0      #001=VEX$SET_PROMPT File=VEX$SET_PROMPT.:E05TSI                    WED 07/30/97 07:16 Page:12
--  Include file information  --

   CP_6.:E05TOU  cannot be made into a system file and is referenced.
   VE_SUBS_C.:E05TOU  is referenced.
   B$JIT_C.:E05TOU  was found in the system file and is never referenced.
   CP_6_C.:E05TOU  was found in the system file and is referenced.
      No diagnostics issued in procedure VEX$SET_PROMPT.
PL6.E3A0      #001=VEX$SET_PROMPT File=VEX$SET_PROMPT.:E05TSI                    WED 07/30/97 07:16 Page:13

 **** Variables and constants ****

  ****  Section 001 RoData VEX$SET_PROMPT

  ****  Scalars and arrays  ****
OctLoc.c.b A Datatyp(siz) R M Lvl/name                 OctLoc.c.b A Datatyp(siz) R M Lvl/name

    12-0-0/c CHAR(2)     r     1 DOUBLE_AST                14-0-0/c CHAR        r     1 NULL
    13-0-0/c CHAR        r     1 PERIOD                     0-0-0/d STRC(360)   r     1 PROMPT_FPT_C

  ****  Auto variables  ****

  ****  Scalars and arrays  ****
OctLoc.c.b A Datatyp(siz) R M Lvl/name                 OctLoc.c.b A Datatyp(siz) R M Lvl/name

     3-0-0/w PTR         r     1 @PR_TYPE                  16-0-0/c CHAR(10)    r     1 PROMPT_BUF
     4-0-0/d STRC(360)   r     1 PROMPT_FPT                *0-0-0/w UBIN        r     1 PR_TYPE

  ****  SYMREF variables  ****

  ****  Scalars and arrays  ****
OctLoc.c.b A Datatyp(siz) R M Lvl/name                 OctLoc.c.b A Datatyp(siz) R M Lvl/name

     0-0-0/c CHAR(2)     r     1 GTAST                      0-0-0/c CHAR(9)     r     1 SEQ_TEXT_BUF
     0-0-0/c CHAR        r     1 SINGLE_AST

  ****  BASED and DCB variables  ****

  ****  Scalars and arrays  ****
OctLoc.c.b A Datatyp(siz) R M Lvl/name                 OctLoc.c.b A Datatyp(siz) R M Lvl/name

     0-0-0N  NULL        r     1 M$UC


   Procedure VEX$SET_PROMPT requires 44 words for executable code.
   Procedure VEX$SET_PROMPT requires 20 words of local(AUTO) storage.
PL6.E3A0      #001=VEX$SET_PROMPT File=VEX$SET_PROMPT.:E05TSI                    WED 07/30/97 07:16 Page:14

    No errors detected in file VEX$SET_PROMPT.:E05TSI    .
PL6.E3A0      #001=VEX$SET_PROMPT File=VEX$SET_PROMPT.:E05TSI                    WED 07/30/97 07:16 Page:15
          *** CROSS REFERENCE LISTING ***
**     DENOTES     IDENTIFIER DEFINITION
<<                 IDENTIFIER'S VALUE SET
>>                 IDENTIFIER'S VALUE USED
<>                 IDENTIFIER SET AND/OR USED
--                 IDENTIFIER REFERENCED
PL6.E3A0      #001=VEX$SET_PROMPT File=VEX$SET_PROMPT.:E05TSI                    WED 07/30/97 07:16 Page:16
          MINI XREF LISTING

DOUBLE_AST
       383**DCL       403--ASSIGN
GTAST
       386**DCL       412--ASSIGN
M$PROMPT
       268**DCL-ENT   415--CALL
NULL
       385**DCL       410--ASSIGN
PERIOD
       384**DCL       405--ASSIGN
PROMPT_BUF
       393**DCL       407--ASSIGN    408<<ASSIGN
PROMPT_FPT
       337**DCL       398<<ASSIGN    415<>CALL
PROMPT_FPT.PROMPT_
       343**DCL       401<<ASSIGN    403<<ASSIGN    405<<ASSIGN    407<<ASSIGN    410<<ASSIGN    412<<ASSIGN
PROMPT_FPT_C
       365**DCL       398>>ASSIGN
PROMPT_FPT_C.V
       373**DCL       367--DCLINIT
PR_TYPE
        35**DCL         8--PROC      399>>DOCASE
SEQ_TEXT_BUF
       388**DCL       408>>ASSIGN
SINGLE_AST
       382**DCL       401--ASSIGN
