VERSION E05

PL6.E3A0      #001=VEX$SET_SUB_BUF File=VEX$SET_SUB_BUF.:E05TSI                  WED 07/30/97 07:16 Page:1
        1        1        /*M*    VEX$SET_SUB_BUF - SET TEXT INTO M$ERRMSG SUB. BUFFERS FOR EDIT */
        2        2        /*T***********************************************************/
        3        3        /*T*                                                         */
        4        4        /*T* Copyright (c) Bull HN Information Systems Inc., 1997    */
        5        5        /*T*                                                         */
        6        6        /*T***********************************************************/
        7        7        /*X*/
        8        8        VEX$SET_SUB_BUF: PROC (SUB_BUF,NUMBER);
        9        9        /**/
       10       10        /*F*     NAME:     VEX$SET_SUB_BUF
       11       11                 PURPOSE:  TO CONVERT A BINARY NUMBER TO TEXTC FORM TO BE
       12       12                           SUBSTITUTED INTO A MESSAGE.             */
       13       13        /**/
       14       14        /*D*     NAME:     VEX$SET_SUB_BUF
       15       15                 PARAMETERS: SUB_BUF - TEXTC BUFFER TO BE SET UP
       16       16                           NUMBER - UBIN NUMBER TO BE CONVERTED
       17       17                 DESCRIPTION: BINCHAR IS CALLED TO CONVERT BINARY TO TEXT
       18       18                           THEN LEADING ZEROS ARE STRIPPED AND THE COUNT
       19       19                           ADDED.                                  */
       20       20        /**/
       21       21        /**********************************************************************/
       22       22        /*   PARAMETERS   PARAMETERS   PARAMETERS   PARAMETERS   PARAMETERS   */
       23       23        /**********************************************************************/
       24       24    1   DCL 1 SUB_BUF,
       25       25    1         2 COUNT UBIN(9) UNAL,
       26       26    1         2 TEXT CHAR(31) UNAL,
       27       27    1         2 TEXTARRAY(0:30) REDEF TEXT CHAR(1) UNAL;
       28       28    1   DCL NUMBER UBIN(36);
       29       29        /**/
       30       30        /*****************************************************************/
       31       31        /*   AUTO DATA   AUTO DATA   AUTO DATA   AUTO DATA   AUTO DATA   */
       32       32        /*****************************************************************/
       33       33    1   DCL I UBIN(36);
       34       34        /*****************************************************************************/
       35       35        /*   PROCEDURE   PROCEDURE   PROCEDURE   PROCEDURE   PROCEDURE   PROCEDURE   */
       36       36        /*****************************************************************************/
       37       37        /**/
PL6.E3A0      #001=VEX$SET_SUB_BUF File=VEX$SET_SUB_BUF.:E05TSI                  WED 07/30/97 07:16 Page:2
       38       38    1           CALL BINCHAR (SUB_BUF.TEXT,NUMBER);
       39       39        /**/
       40       40    1           I = 0;
       41       41    2           DO WHILE ((I < 30) AND (SUB_BUF.TEXTARRAY(I) = '0')); /* SKIP ZERO    */
       42       42    2              I = I + 1;
       43       43    2              END;
       44       44        /**/
       45       45    1           SUB_BUF.TEXT = SUBSTR(SUB_BUF.TEXT,I,31-I);
       46       46    1           SUB_BUF.COUNT = 31-I;
       47       47    1           RETURN;
       48       48    1   END;

PL6.E3A0      #001=VEX$SET_SUB_BUF File=VEX$SET_SUB_BUF.:E05TSI                  WED 07/30/97 07:16 Page:3
      No diagnostics issued in procedure VEX$SET_SUB_BUF.

   Procedure VEX$SET_SUB_BUF requires 36 words for executable code.
   Procedure VEX$SET_SUB_BUF requires 8 words of local(AUTO) storage.

    No errors detected in file VEX$SET_SUB_BUF.:E05TSI    .

PL6.E3A0      #001=VEX$SET_SUB_BUF File=VEX$SET_SUB_BUF.:E05TSI                  WED 07/30/97 07:16 Page:4

 Object Unit name= VEX$SET_SUB_BUF                            File name= VEX$SET_SUB_BUF.:E05TOU
 UTS= JUL 30 '97 07:16:53.48 WED                              Compiler= PL-6/E31         Sev=      00
 SharedLib= :SHARED_SYSTEM                                    Alt SharedLib=


    ****  Control sections  ****

 Sect   Type Bound  Init  Size OctSiz  Section name(segment info)
    0   Proc  even  none    36     44  VEX$SET_SUB_BUF
    1  RoData even  none     1      1  VEX$SET_SUB_BUF

    ****  Entry defs  ****

                              Check   Calling
                             calling  sequence
  Sect OctLoc Primary Altret sequence   type   Parms  Name
     0      0   yes            yes      Std        2  VEX$SET_SUB_BUF

  ****  Entry refs  ****

         Check        Calling
        calling       sequence
Altret sequence SRef   type   Args  Name
                       nStd      0 X66_AUTO_2
                       nStd      0 X66_ARET
PL6.E3A0      #001=VEX$SET_SUB_BUF File=VEX$SET_SUB_BUF.:E05TSI                  WED 07/30/97 07:16 Page:5


        1        1        /*M*    VEX$SET_SUB_BUF - SET TEXT INTO M$ERRMSG SUB. BUFFERS FOR EDIT */
        2        2        /*T***********************************************************/
        3        3        /*T*                                                         */
        4        4        /*T* Copyright (c) Bull HN Information Systems Inc., 1997    */
        5        5        /*T*                                                         */
        6        6        /*T***********************************************************/
        7        7        /*X*/
        8        8        VEX$SET_SUB_BUF: PROC (SUB_BUF,NUMBER);

      8  0 000000   000000 700200 xent  VEX$SET_SUB* TSX0  ! X66_AUTO_2
         0 000001   000010 000002                    ZERO    8,2

        9        9        /**/
       10       10        /*F*     NAME:     VEX$SET_SUB_BUF
       11       11                 PURPOSE:  TO CONVERT A BINARY NUMBER TO TEXTC FORM TO BE
       12       12                           SUBSTITUTED INTO A MESSAGE.             */
       13       13        /**/
       14       14        /*D*     NAME:     VEX$SET_SUB_BUF
       15       15                 PARAMETERS: SUB_BUF - TEXTC BUFFER TO BE SET UP
       16       16                           NUMBER - UBIN NUMBER TO BE CONVERTED
       17       17                 DESCRIPTION: BINCHAR IS CALLED TO CONVERT BINARY TO TEXT
       18       18                           THEN LEADING ZEROS ARE STRIPPED AND THE COUNT
       19       19                           ADDED.                                  */
       20       20        /**/
       21       21        /**********************************************************************/
       22       22        /*   PARAMETERS   PARAMETERS   PARAMETERS   PARAMETERS   PARAMETERS   */
       23       23        /**********************************************************************/
       24       24    1   DCL 1 SUB_BUF,
       25       25    1         2 COUNT UBIN(9) UNAL,
       26       26    1         2 TEXT CHAR(31) UNAL,
       27       27    1         2 TEXTARRAY(0:30) REDEF TEXT CHAR(1) UNAL;
       28       28    1   DCL NUMBER UBIN(36);
       29       29        /**/
       30       30        /*****************************************************************/
       31       31        /*   AUTO DATA   AUTO DATA   AUTO DATA   AUTO DATA   AUTO DATA   */
       32       32        /*****************************************************************/
PL6.E3A0      #001=VEX$SET_SUB_BUF File=VEX$SET_SUB_BUF.:E05TSI                  WED 07/30/97 07:16 Page:6
       33       33    1   DCL I UBIN(36);
       34       34        /*****************************************************************************/
       35       35        /*   PROCEDURE   PROCEDURE   PROCEDURE   PROCEDURE   PROCEDURE   PROCEDURE   */
       36       36        /*****************************************************************************/
       37       37        /**/
       38       38    1           CALL BINCHAR (SUB_BUF.TEXT,NUMBER);

     38  0 000002   200004 470500                    LDP0    @NUMBER,,AUTO
         0 000003   000000 235100                    LDA     0,,PR0
         0 000004   000044 773000                    LRL     36
         0 000005   200006 757100                    STAQ    I+1,,AUTO
         0 000006   200003 471500                    LDP1    @SUB_BUF,,AUTO
         0 000007   000100 301500                    BTD
         0 000010   200006 000010                    NDSC9   I+1,,AUTO                cn=0,s=lsgnf,sf=0,n=8
         0 000011   100000 230037                    NDSC9   0,,PR1                   cn=1,s=nosgn,sf=0,n=31

       39       39        /**/
       40       40    1           I = 0;

     40  0 000012   200005 450100                    STZ     I,,AUTO

       41       41    2           DO WHILE ((I < 30) AND (SUB_BUF.TEXTARRAY(I) = '0')); /* SKIP ZERO    */

     41  0 000013   000017 710000 0                  TRA     s:43

       42       42    2              I = I + 1;

     42  0 000014   200005 235100                    LDA     I,,AUTO
         0 000015   000001 035007                    ADLA    1,DL
         0 000016   200005 755100                    STA     I,,AUTO

       43       43    2              END;

     43  0 000017   200005 235100                    LDA     I,,AUTO
         0 000020   000036 115007                    CMPA    30,DL
         0 000021   000027 603000 0                  TRC     s:45
         0 000022   200003 470500                    LDP0    @SUB_BUF,,AUTO
PL6.E3A0      #001=VEX$SET_SUB_BUF File=VEX$SET_SUB_BUF.:E05TSI                  WED 07/30/97 07:16 Page:7
         0 000023   040000 106505                    CMPC    fill='040'O
         0 000024   000000 200001                    ADSC9   0,A,PR0                  cn=1,n=1
         0 000025   000000 000001 1                  ADSC9   0                        cn=0,n=1
         0 000026   000014 600000 0                  TZE     s:42

       44       44        /**/
       45       45    1           SUB_BUF.TEXT = SUBSTR(SUB_BUF.TEXT,I,31-I);

     45  0 000027   777740 620005                    EAX0    -32,AL
         0 000030   777777 660003                    ERX0    -1,DU
         0 000031   200003 470500                    LDP0    @SUB_BUF,,AUTO
         0 000032   040100 100545                    MLR     fill='040'O
         0 000033   000000 200010                    ADSC9   0,A,PR0                  cn=1,n=*X0
         0 000034   000000 200037                    ADSC9   0,,PR0                   cn=1,n=31

       46       46    1           SUB_BUF.COUNT = 31-I;

     46  0 000035   000037 236007                    LDQ     31,DL
         0 000036   200005 136100                    SBLQ    I,,AUTO
         0 000037   200006 756100                    STQ     I+1,,AUTO
         0 000040   000100 101500                    MRL     fill='000'O
         0 000041   200006 000004                    ADSC9   I+1,,AUTO                cn=0,n=4
         0 000042   000000 000001                    ADSC9   0,,PR0                   cn=0,n=1

       47       47    1           RETURN;

     47  0 000043   000000 702200 xent               TSX2  ! X66_ARET
       48       48    1   END;

PL6.E3A0      #001=VEX$SET_SUB_BUF File=VEX$SET_SUB_BUF.:E05TSI                  WED 07/30/97 07:16 Page:8
      No diagnostics issued in procedure VEX$SET_SUB_BUF.
PL6.E3A0      #001=VEX$SET_SUB_BUF File=VEX$SET_SUB_BUF.:E05TSI                  WED 07/30/97 07:16 Page:9

 **** Variables and constants ****

  ****  Auto variables  ****

  ****  Scalars and arrays  ****
OctLoc.c.b A Datatyp(siz) R M Lvl/name                 OctLoc.c.b A Datatyp(siz) R M Lvl/name

     4-0-0/w PTR         r     1 @NUMBER                    3-0-0/w PTR         r     1 @SUB_BUF
     5-0-0/w UBIN        r     1 I                         *0-0-0/w UBIN        r     1 NUMBER
    *0-0-0/c STRC(288)   r     1 SUB_BUF


   Procedure VEX$SET_SUB_BUF requires 36 words for executable code.
   Procedure VEX$SET_SUB_BUF requires 8 words of local(AUTO) storage.

    No errors detected in file VEX$SET_SUB_BUF.:E05TSI    .
PL6.E3A0      #001=VEX$SET_SUB_BUF File=VEX$SET_SUB_BUF.:E05TSI                  WED 07/30/97 07:16 Page:10
          *** CROSS REFERENCE LISTING ***
**     DENOTES     IDENTIFIER DEFINITION
<<                 IDENTIFIER'S VALUE SET
>>                 IDENTIFIER'S VALUE USED
<>                 IDENTIFIER SET AND/OR USED
--                 IDENTIFIER REFERENCED
PL6.E3A0      #001=VEX$SET_SUB_BUF File=VEX$SET_SUB_BUF.:E05TSI                  WED 07/30/97 07:16 Page:11
          MINI XREF LISTING

I
        33**DCL        40<<ASSIGN     41>>DOWHILE    41>>DOWHILE    42<<ASSIGN     42>>ASSIGN     45>>ASSIGN
        45>>ASSIGN     46>>ASSIGN
NUMBER
        28**DCL         8--PROC       38>>CALLBLT
SUB_BUF
        24**DCL         8--PROC
SUB_BUF.COUNT
        25**DCL        46<<ASSIGN
SUB_BUF.TEXT
        26**DCL        27--REDEF      38<<CALLBLT    45<<ASSIGN     45>>ASSIGN
SUB_BUF.TEXTARRAY
        27**DCL        41>>DOWHILE
