VERSION E05

PL6.E3A0      #001=VEX$STR_TEXT_INCR File=VEX$STR_TEXT_INCR.:E05TSI              WED 07/30/97 07:16 Page:1
        1        1        /*M*    VEX$STR_TEXT_INCR - MANIPULATE PTR TO EDIT SAVED TEXT STRING AREA */
        2        2        /*T***********************************************************/
        3        3        /*T*                                                         */
        4        4        /*T* Copyright (c) Bull HN Information Systems Inc., 1997    */
        5        5        /*T*                                                         */
        6        6        /*T***********************************************************/
        7        7        /*X* DMR,PLM=5,IND=3,CTI=3,SDI=3,MCL=10,CSI=0,ECI=0 */
        8        8        VEX$STR_TEXT_INCR: PROC(INCR) ALTRET;
        9        9        /**/
       10       10        /**********************************************************************/
       11       11        /*   PARAMETERS   PARAMETERS   PARAMETERS   PARAMETERS   PARAMETERS   */
       12       12        /**********************************************************************/
       13       13    1   DCL INCR UBIN WORD;
       14       14        /**/
       15       15        /*********************************************************************/
       16       16        /*   INCLUDE FILES   INCLUDE FILES   INCLUDE FILES   INCLUDE FILES   */
       17       17        /*********************************************************************/
       18       18        %INCLUDE   CP_6;
       19       99        %INCLUDE VE_PERR_C;
       20      316        %INCLUDE VE_SUBS_C;
       21      510        %INCLUDE XU_MACRO_C;
       22     3616        /********************************************************************/
       23     3617        /*   FPTS   FPTS   FPTS   FPTS   FPTS   FPTS   FPTS   FPTS   FPTS   */
       24     3618        /********************************************************************/
       25     3619        %FPT_GDS (FPTN = GDS_FPT, STCLASS = CONSTANT,
       26     3620                  RESULTS = DS_RESULTS,
       27     3621                  SEGSIZE = 1024);
       28     3637        %P_PCB (STCLASS = SYMREF);
       29     3836        /*****************************************************************/
       30     3837        /*   SYMREFS   SYMREFS   SYMREFS   SYMREFS   SYMREFS   SYMREFS   */
       31     3838        /*****************************************************************/
       32     3839    1   DCL 1 DS_RESULTS SYMREF,
       33     3840    1          2 * BIT(36) UNAL,
       34     3841    1          2 PTR$ PTR UNAL;
       35     3842    1   DCL STR_TEXT$ PTR SYMREF;
       36     3843    1   DCL STR_TEXT_END$ PTR SYMREF;
       37     3844    1   DCL STR_TEXT_HEAD$ PTR SYMREF;
PL6.E3A0      #001=VEX$STR_TEXT_INCR File=VEX$STR_TEXT_INCR.:E05TSI              WED 07/30/97 07:16 Page:2
       38     3845    1   DCL CMDBUF$ PTR SYMREF;
       39     3846    1   DCL CMDBUF_BASE$ PTR SYMREF;
       40     3847    1   DCL CMDBUF_END$ PTR SYMREF;
       41     3848    1   DCL CMD$ PTR SYMREF;
       42     3849    1   DCL CMD_BASE$ PTR SYMREF;
       43     3850    1   DCL CMD_END$ PTR SYMREF;
       44     3851    1   DCL P$ (0:8) PTR CONSTANT INIT(
       45     3852    1            ADDR (P_PCB.WKSZ),
       46     3853    1            ADDR (STR_TEXT_END$),
       47     3854    1            ADDR (P_PCB.WORK$),
       48     3855    1            ADDR (CMDBUF$),
       49     3856    1            ADDR (CMDBUF_BASE$),
       50     3857    1            ADDR (CMDBUF_END$),
       51     3858    1            ADDR (CMD$),
       52     3859    1            ADDR (CMD_BASE$),
       53     3860    1            ADDR (CMD_END$) );
       54     3861    1   DCL INC (0:8) UBIN CONSTANT INIT(
       55     3862    1            100 , 412 , 412 , 512 , 512 , 924 , 924 , 924 , 1024 );
       56     3863    1   DCL 1 OFFS BASED ALIGNED,
       57     3864    1          2 S UBIN HALF UNAL,
       58     3865    1          2 * UBIN HALF UNAL;
       59     3866    1   DCL I UBIN;
       60     3867    1   DCL VEX$ERROR ENTRY(2) ALTRET;
       61     3868        /*****************************************************************************/
       62     3869        /*   PROCEDURE   PROCEDURE   PROCEDURE   PROCEDURE   PROCEDURE   PROCEDURE   */
       63     3870        /*****************************************************************************/
       64     3871        /**/
       65     3872    1        STR_TEXT$ = PINCRW(STR_TEXT$,INCR);
       66     3873        /**/
       67     3874    2        IF (POFFC(STR_TEXT_END$,STR_TEXT$) < PC_RECSIZE#) THEN DO;
       68     3875    2           CALL VEX$XPAND ALTRET(NOMEM);
       69     3876    2           END;
       70     3877    1        RETURN;
       71     3878        /**/
       72     3879    1   NOMEM:
       73     3880    1        CALL VEX$ERROR(E$E_NOSTRMEM,3);
       74     3881    1        ALTRETURN;
PL6.E3A0      #001=VEX$STR_TEXT_INCR File=VEX$STR_TEXT_INCR.:E05TSI              WED 07/30/97 07:16 Page:3
       75     3882        /**/
       76     3883        /*E*    ERROR:   VEE-E$E_NOSTRMEM-0
       77     3884                MESSAGE: Unable to get memory to process this command.
       78     3885                DESCRIPTION: CAN'T GET MEMORY TO HOLD STRING */
       79     3886        /**/
       80     3887    1   VEX$XPAND: ENTRY ALTRET;
       81     3888    1        DS_RESULTS.PTR$ = P_PCB.WORK$;
       82     3889    1        CALL M$GDS (GDS_FPT) ALTRET (NOMORE);
       83     3890    2        DO I = 0 TO 8;
       84     3891    2           P$(I) -> OFFS.S = P$(I) -> OFFS.S + INC(I);
       85     3892    2           END;
       86     3893    1        I = P_PCB.WKSZ / 100;
       87     3894    1        CALL MOVER (924,100);
       88     3895    1        CALL MOVER (512,412);
       89     3896    1        CALL MOVER (412,100);
       90     3897    1        RETURN;
       91     3898    1   NOMORE: ALTRETURN;
       92     3899        /**/
       93     3900    1   MOVER: PROC (BAS , SIZ);
       94     3901    2   DCL BAS SBIN;
       95     3902    2   DCL SIZ UBIN;
       96     3903    2   DCL FROM$ PTR;
       97     3904    2   DCL TO$ PTR;
       98     3905    2   DCL WDS (0:0) BIT(72) DALIGNED BASED;
       99     3906    2   DCL J UBIN;
      100     3907        /**/
      101     3908
      102     3909    2        TO$ = PINCRW (STR_TEXT_HEAD$ , I * BAS);
      103     3910    2        FROM$ = PINCRW (TO$ , -BAS);
      104     3911    2        J = (SIZ * I - SIZ) / 2;
      105     3912    3        DO WHILE (J > 0);
      106     3913    3           J = J - 1;
      107     3914    3           TO$ -> WDS(J) = FROM$ -> WDS(J);
      108     3915    3           END;
      109     3916    2        RETURN;
      110     3917    2   END MOVER;
      111     3918    1   END;
PL6.E3A0      #001=VEX$STR_TEXT_INCR File=VEX$STR_TEXT_INCR.:E05TSI              WED 07/30/97 07:16 Page:4

PL6.E3A0      #001=VEX$STR_TEXT_INCR File=VEX$STR_TEXT_INCR.:E05TSI              WED 07/30/97 07:16 Page:5
--  Include file information  --

   XU_MACRO_C.:E05TOU  is referenced.
   VE_SUBS_C.:E05TOU  is referenced.
   VE_PERR_C.:E05TOU  is referenced.
   CP_6.:E05TOU  cannot be made into a system file and is referenced.
   B$JIT_C.:E05TOU  was found in the system file and is never referenced.
   CP_6_C.:E05TOU  was found in the system file and is referenced.
      No diagnostics issued in procedure VEX$STR_TEXT_INCR.

   Procedure VEX$STR_TEXT_INCR requires 103 words for executable code.
   Procedure VEX$STR_TEXT_INCR requires 14 words of local(AUTO) storage.

    No errors detected in file VEX$STR_TEXT_INCR.:E05TSI    .

PL6.E3A0      #001=VEX$STR_TEXT_INCR File=VEX$STR_TEXT_INCR.:E05TSI              WED 07/30/97 07:16 Page:6

 Object Unit name= VEX$STR_TEXT_INCR                          File name= VEX$STR_TEXT_INCR.:E05TOU
 UTS= JUL 30 '97 07:16:56.80 WED                              Compiler= PL-6/E31         Sev=      00
 SharedLib= :SHARED_SYSTEM                                    Alt SharedLib=


    ****  Control sections  ****

 Sect   Type Bound  Init  Size OctSiz  Section name(segment info)
    0   DCB   even  none     0      0  M$UC
    1  RoData even  UTS     24     30  VEX$STR_TEXT_INCR
    2   Proc  even  none   103    147  VEX$STR_TEXT_INCR
    3  RoData even  none    11     13  VEX$STR_TEXT_INCR

    ****  Entry defs  ****

                              Check   Calling
                             calling  sequence
  Sect OctLoc Primary Altret sequence   type   Parms  Name
     2      0   yes    yes     yes      Std        1  VEX$STR_TEXT_INCR
     2     30          yes     yes      Std        0  VEX$XPAND

  ****  Entry refs  ****

         Check        Calling
        calling       sequence
Altret sequence SRef   type   Args  Name
 yes     yes           Std       2 VEX$ERROR
                       nStd      0 X66_AUTO_1
                       Std       0 B_CONSPOOL_D
                       nStd      0 X66_ARET
                       nStd      0 X66_AALT
PL6.E3A0      #001=VEX$STR_TEXT_INCR File=VEX$STR_TEXT_INCR.:E05TSI              WED 07/30/97 07:16 Page:7

  ****  Data refs  ****

  Flags:  r = read only, s = secondary
Flgs Name                             Flgs Name                             Flgs Name
     M$UC                                  P_PCB                                 DS_RESULTS
     STR_TEXT$                             STR_TEXT_END$                         STR_TEXT_HEAD$
     CMDBUF$                               CMDBUF_BASE$                          CMDBUF_END$
     CMD$                                  CMD_BASE$                             CMD_END$
     B_VECTNIL

  ****  Segment refs  ****

  Flags:  r = read only, s = secondary
Flgs Name                             Flgs Name                             Flgs Name
     ISSID
PL6.E3A0      #001=VEX$STR_TEXT_INCR File=VEX$STR_TEXT_INCR.:E05TSI              WED 07/30/97 07:16 Page:8


        1        1        /*M*    VEX$STR_TEXT_INCR - MANIPULATE PTR TO EDIT SAVED TEXT STRING AREA */
        2        2        /*T***********************************************************/
        3        3        /*T*                                                         */
        4        4        /*T* Copyright (c) Bull HN Information Systems Inc., 1997    */
        5        5        /*T*                                                         */
        6        6        /*T***********************************************************/
        7        7        /*X* DMR,PLM=5,IND=3,CTI=3,SDI=3,MCL=10,CSI=0,ECI=0 */
        8        8        VEX$STR_TEXT_INCR: PROC(INCR) ALTRET;

      8  2 000000   000000 700200 xent  VEX$STR_TEX* TSX0  ! X66_AUTO_1
         2 000001   000016 000001                    ZERO    14,1

        9        9        /**/
       10       10        /**********************************************************************/
       11       11        /*   PARAMETERS   PARAMETERS   PARAMETERS   PARAMETERS   PARAMETERS   */
       12       12        /**********************************************************************/
       13       13    1   DCL INCR UBIN WORD;
       14       14        /**/
       15       15        /*********************************************************************/
       16       16        /*   INCLUDE FILES   INCLUDE FILES   INCLUDE FILES   INCLUDE FILES   */
       17       17        /*********************************************************************/
       18       18        %INCLUDE   CP_6;
       19       99        %INCLUDE VE_PERR_C;
       20      316        %INCLUDE VE_SUBS_C;
       21      510        %INCLUDE XU_MACRO_C;
       22     3616        /********************************************************************/
       23     3617        /*   FPTS   FPTS   FPTS   FPTS   FPTS   FPTS   FPTS   FPTS   FPTS   */
       24     3618        /********************************************************************/
       25     3619        %FPT_GDS (FPTN = GDS_FPT, STCLASS = CONSTANT,
       26     3620                  RESULTS = DS_RESULTS,
       27     3621                  SEGSIZE = 1024);
       28     3637        %P_PCB (STCLASS = SYMREF);
       29     3836        /*****************************************************************/
       30     3837        /*   SYMREFS   SYMREFS   SYMREFS   SYMREFS   SYMREFS   SYMREFS   */
       31     3838        /*****************************************************************/
       32     3839    1   DCL 1 DS_RESULTS SYMREF,
PL6.E3A0      #001=VEX$STR_TEXT_INCR File=VEX$STR_TEXT_INCR.:E05TSI              WED 07/30/97 07:16 Page:9
       33     3840    1          2 * BIT(36) UNAL,
       34     3841    1          2 PTR$ PTR UNAL;
       35     3842    1   DCL STR_TEXT$ PTR SYMREF;
       36     3843    1   DCL STR_TEXT_END$ PTR SYMREF;
       37     3844    1   DCL STR_TEXT_HEAD$ PTR SYMREF;
       38     3845    1   DCL CMDBUF$ PTR SYMREF;
       39     3846    1   DCL CMDBUF_BASE$ PTR SYMREF;
       40     3847    1   DCL CMDBUF_END$ PTR SYMREF;
       41     3848    1   DCL CMD$ PTR SYMREF;
       42     3849    1   DCL CMD_BASE$ PTR SYMREF;
       43     3850    1   DCL CMD_END$ PTR SYMREF;
       44     3851    1   DCL P$ (0:8) PTR CONSTANT INIT(
       45     3852    1            ADDR (P_PCB.WKSZ),
       46     3853    1            ADDR (STR_TEXT_END$),
       47     3854    1            ADDR (P_PCB.WORK$),
       48     3855    1            ADDR (CMDBUF$),
       49     3856    1            ADDR (CMDBUF_BASE$),
       50     3857    1            ADDR (CMDBUF_END$),
       51     3858    1            ADDR (CMD$),
       52     3859    1            ADDR (CMD_BASE$),
       53     3860    1            ADDR (CMD_END$) );
       54     3861    1   DCL INC (0:8) UBIN CONSTANT INIT(
       55     3862    1            100 , 412 , 412 , 512 , 512 , 924 , 924 , 924 , 1024 );
       56     3863    1   DCL 1 OFFS BASED ALIGNED,
       57     3864    1          2 S UBIN HALF UNAL,
       58     3865    1          2 * UBIN HALF UNAL;
       59     3866    1   DCL I UBIN;
       60     3867    1   DCL VEX$ERROR ENTRY(2) ALTRET;
       61     3868        /*****************************************************************************/
       62     3869        /*   PROCEDURE   PROCEDURE   PROCEDURE   PROCEDURE   PROCEDURE   PROCEDURE   */
       63     3870        /*****************************************************************************/
       64     3871        /**/
       65     3872    1        STR_TEXT$ = PINCRW(STR_TEXT$,INCR);

   3872  2 000002   200003 470500                    LDP0    @INCR,,AUTO
         2 000003   000000 720100                    LXL0    0,,PR0
         2 000004   000000 636010                    EAQ     0,X0
PL6.E3A0      #001=VEX$STR_TEXT_INCR File=VEX$STR_TEXT_INCR.:E05TSI              WED 07/30/97 07:16 Page:10
         2 000005   000000 036000 xsym               ADLQ    STR_TEXT$
         2 000006   000000 756000 xsym               STQ     STR_TEXT$

       66     3873        /**/
       67     3874    2        IF (POFFC(STR_TEXT_END$,STR_TEXT$) < PC_RECSIZE#) THEN DO;

   3874  2 000007   000000 236000 xsym               LDQ     STR_TEXT$
         2 000010   000020 772000                    QRL     16
         2 000011   200014 756100                    STQ     J+1,,AUTO
         2 000012   000000 236000 xsym               LDQ     STR_TEXT_END$
         2 000013   000020 772000                    QRL     16
         2 000014   200014 136100                    SBLQ    J+1,,AUTO
         2 000015   002000 116007                    CMPQ    1024,DL
         2 000016   000022 605000 2                  TPL     s:3877

       68     3875    2           CALL VEX$XPAND ALTRET(NOMEM);

   3875  2 000017   000002 631400 xsym               EPPR1   B_VECTNIL+2
         2 000020   000030 701000 2                  TSX1    s:3887
         2 000021   000023 702000 2                  TSX2    NOMEM

       69     3876    2           END;

       70     3877    1        RETURN;

   3877  2 000022   000000 702200 xent               TSX2  ! X66_ARET

       71     3878        /**/
       72     3879    1   NOMEM:
       73     3880    1        CALL VEX$ERROR(E$E_NOSTRMEM,3);

   3880  2 000023   000001 630400 3     NOMEM        EPPR0   1
         2 000024   000020 631400 xsym               EPPR1   B_VECTNIL+16
         2 000025   000000 701000 xent               TSX1    VEX$ERROR
         2 000026   000000 011000                    NOP     0

       74     3881    1        ALTRETURN;
PL6.E3A0      #001=VEX$STR_TEXT_INCR File=VEX$STR_TEXT_INCR.:E05TSI              WED 07/30/97 07:16 Page:11

   3881  2 000027   000000 702200 xent               TSX2  ! X66_AALT

       75     3882        /**/
       76     3883        /*E*    ERROR:   VEE-E$E_NOSTRMEM-0
       77     3884                MESSAGE: Unable to get memory to process this command.
       78     3885                DESCRIPTION: CAN'T GET MEMORY TO HOLD STRING */
       79     3886        /**/
       80     3887    1   VEX$XPAND: ENTRY ALTRET;

   3887  2 000030   000000 700200 xent  VEX$XPAND    TSX0  ! X66_AUTO_1
         2 000031   000016 000001                    ZERO    14,1

       81     3888    1        DS_RESULTS.PTR$ = P_PCB.WORK$;

   3888  2 000032   000002 236000 xsym               LDQ     P_PCB+2
         2 000033   000001 756000 xsym               STQ     DS_RESULTS+1

       82     3889    1        CALL M$GDS (GDS_FPT) ALTRET (NOMORE);

   3889  2 000034   000000 630400 1                  EPPR0   GDS_FPT
         2 000035   430001 713400                    CLIMB   alt,gds
         2 000036   400400 401760                    pmme    nvectors=2
         2 000037   000104 702000 2                  TSX2    NOMORE

       83     3890    2        DO I = 0 TO 8;

   3890  2 000040   200004 450100                    STZ     I,,AUTO

       84     3891    2           P$(I) -> OFFS.S = P$(I) -> OFFS.S + INC(I);

   3891  2 000041   200004 720100                    LXL0    I,,AUTO
         2 000042   000006 470410 1                  LDP0    P$,X0
         2 000043   000000 236100                    LDQ     0,,PR0
         2 000044   000022 772000                    QRL     18
         2 000045   000017 036010 1                  ADLQ    INC,X0
         2 000046   000000 621006                    EAX1    0,QL
PL6.E3A0      #001=VEX$STR_TEXT_INCR File=VEX$STR_TEXT_INCR.:E05TSI              WED 07/30/97 07:16 Page:12
         2 000047   000000 741100                    STX1    0,,PR0

       85     3892    2           END;

   3892  2 000050   200004 235100                    LDA     I,,AUTO
         2 000051   000001 035007                    ADLA    1,DL
         2 000052   200004 755100                    STA     I,,AUTO
         2 000053   000011 115007                    CMPA    9,DL
         2 000054   000041 602000 2                  TNC     s:3891

       86     3893    1        I = P_PCB.WKSZ / 100;

   3893  2 000055   000005 236000 xsym               LDQ     P_PCB+5
         2 000056   000022 772000                    QRL     18
         2 000057   000144 506007                    DIV     100,DL
         2 000060   200004 756100                    STQ     I,,AUTO

       87     3894    1        CALL MOVER (924,100);

   3894  2 000061   000005 236000 3                  LDQ     5
         2 000062   200010 756100                    STQ     @BAS+1,,AUTO
         2 000063   000006 236000 3                  LDQ     6
         2 000064   200007 756100                    STQ     I+3,,AUTO
         2 000065   000105 701000 2                  TSX1    MOVER
         2 000066   000000 011000                    NOP     0

       88     3895    1        CALL MOVER (512,412);

   3895  2 000067   000011 236000 3                  LDQ     9
         2 000070   200010 756100                    STQ     @BAS+1,,AUTO
         2 000071   000012 236000 3                  LDQ     10
         2 000072   200007 756100                    STQ     I+3,,AUTO
         2 000073   000105 701000 2                  TSX1    MOVER
         2 000074   000000 011000                    NOP     0

       89     3896    1        CALL MOVER (412,100);

PL6.E3A0      #001=VEX$STR_TEXT_INCR File=VEX$STR_TEXT_INCR.:E05TSI              WED 07/30/97 07:16 Page:13
   3896  2 000075   000005 236000 3                  LDQ     5
         2 000076   200010 756100                    STQ     @BAS+1,,AUTO
         2 000077   000011 236000 3                  LDQ     9
         2 000100   200007 756100                    STQ     I+3,,AUTO
         2 000101   000105 701000 2                  TSX1    MOVER
         2 000102   000000 011000                    NOP     0

       90     3897    1        RETURN;

   3897  2 000103   000000 702200 xent               TSX2  ! X66_ARET

       91     3898    1   NOMORE: ALTRETURN;

   3898  2 000104   000000 702200 xent  NOMORE       TSX2  ! X66_AALT

       92     3899        /**/
       93     3900    1   MOVER: PROC (BAS , SIZ);

   3900  2 000105   200006 741300       MOVER        STX1  ! I+2,,AUTO

       94     3901    2   DCL BAS SBIN;
       95     3902    2   DCL SIZ UBIN;
       96     3903    2   DCL FROM$ PTR;
       97     3904    2   DCL TO$ PTR;
       98     3905    2   DCL WDS (0:0) BIT(72) DALIGNED BASED;
       99     3906    2   DCL J UBIN;
      100     3907        /**/
      101     3908
      102     3909    2        TO$ = PINCRW (STR_TEXT_HEAD$ , I * BAS);

   3909  2 000106   200007 470500                    LDP0    @BAS,,AUTO
         2 000107   200004 236100                    LDQ     I,,AUTO
         2 000110   000000 402100                    MPY     0,,PR0
         2 000111   000022 736000                    QLS     18
         2 000112   000000 036000 xsym               ADLQ    STR_TEXT_HEAD$
         2 000113   200012 756100                    STQ     TO$,,AUTO

PL6.E3A0      #001=VEX$STR_TEXT_INCR File=VEX$STR_TEXT_INCR.:E05TSI              WED 07/30/97 07:16 Page:14
      103     3910    2        FROM$ = PINCRW (TO$ , -BAS);

   3910  2 000114   000000 236100                    LDQ     0,,PR0
         2 000115   000022 736000                    QLS     18
         2 000116   000027 676000 xsym               ERQ     B_VECTNIL+23
         2 000117   000001 036007                    ADLQ    1,DL
         2 000120   200012 036100                    ADLQ    TO$,,AUTO
         2 000121   200011 756100                    STQ     FROM$,,AUTO

      104     3911    2        J = (SIZ * I - SIZ) / 2;

   3911  2 000122   200010 471500                    LDP1    @SIZ,,AUTO
         2 000123   100000 236100                    LDQ     0,,PR1
         2 000124   200004 402100                    MPY     I,,AUTO
         2 000125   100000 136100                    SBLQ    0,,PR1
         2 000126   000002 506007                    DIV     2,DL
         2 000127   200013 756100                    STQ     J,,AUTO

      105     3912    3        DO WHILE (J > 0);

   3912  2 000130   000000 116003                    CMPQ    0,DU
         2 000131   000145 600000 2                  TZE     s:3916

      106     3913    3           J = J - 1;

   3913  2 000132   200013 235100                    LDA     J,,AUTO
         2 000133   000001 135007                    SBLA    1,DL
         2 000134   200013 755100                    STA     J,,AUTO

      107     3914    3           TO$ -> WDS(J) = FROM$ -> WDS(J);

   3914  2 000135   000001 735000                    ALS     1
         2 000136   200011 470500                    LDP0    FROM$,,AUTO
         2 000137   000000 620005                    EAX0    0,AL
         2 000140   000000 237105                    LDAQ    0,AL,PR0
         2 000141   200012 471500                    LDP1    TO$,,AUTO
         2 000142   100000 757110                    STAQ    0,X0,PR1
PL6.E3A0      #001=VEX$STR_TEXT_INCR File=VEX$STR_TEXT_INCR.:E05TSI              WED 07/30/97 07:16 Page:15

      108     3915    3           END;

   3915  2 000143   200013 235100                    LDA     J,,AUTO
         2 000144   000132 601000 2                  TNZ     s:3913

      109     3916    2        RETURN;

   3916  2 000145   200006 221300                    LDX1  ! I+2,,AUTO
         2 000146   000001 702211                    TSX2  ! 1,X1
      110     3917    2   END MOVER;
      111     3918    1   END;

PL6.E3A0      #001=VEX$STR_TEXT_INCR File=VEX$STR_TEXT_INCR.:E05TSI              WED 07/30/97 07:16 Page:16
--  Include file information  --

   XU_MACRO_C.:E05TOU  is referenced.
   VE_SUBS_C.:E05TOU  is referenced.
   VE_PERR_C.:E05TOU  is referenced.
   CP_6.:E05TOU  cannot be made into a system file and is referenced.
   B$JIT_C.:E05TOU  was found in the system file and is never referenced.
   CP_6_C.:E05TOU  was found in the system file and is referenced.
      No diagnostics issued in procedure VEX$STR_TEXT_INCR.
PL6.E3A0      #001=VEX$STR_TEXT_INCR File=VEX$STR_TEXT_INCR.:E05TSI              WED 07/30/97 07:16 Page:17

 **** Variables and constants ****

  ****  Section 001 RoData VEX$STR_TEXT_INCR

  ****  Scalars and arrays  ****
OctLoc.c.b A Datatyp(siz) R M Lvl/name                 OctLoc.c.b A Datatyp(siz) R M Lvl/name

     0-0-0/d STRC(216)   r     1 GDS_FPT                   17-0-0/w UBIN        r     1 INC(0:8)
     6-0-0/w PTR         r     1 P$(0:8)

  ****  Auto variables  ****

  ****  Scalars and arrays  ****
OctLoc.c.b A Datatyp(siz) R M Lvl/name                 OctLoc.c.b A Datatyp(siz) R M Lvl/name

     7-0-0/w PTR         r     1 @BAS                       3-0-0/w PTR         r     1 @INCR
    10-0-0/w PTR         r     1 @SIZ                      *0-0-0/w SBIN        r     1 BAS
    11-0-0/w PTR         r     1 FROM$                      4-0-0/w UBIN        r     1 I
    *0-0-0/w UBIN        r     1 INCR                      13-0-0/w UBIN        r     1 J
    *0-0-0/w UBIN        r     1 SIZ                       12-0-0/w PTR         r     1 TO$

  ****  SYMREF variables  ****

  ****  Scalars and arrays  ****
OctLoc.c.b A Datatyp(siz) R M Lvl/name                 OctLoc.c.b A Datatyp(siz) R M Lvl/name

     0-0-0/w PTR         r     1 CMD$                       0-0-0/w PTR         r     1 CMDBUF$
     0-0-0/w PTR         r     1 CMDBUF_BASE$               0-0-0/w PTR         r     1 CMDBUF_END$
     0-0-0/w PTR         r     1 CMD_BASE$                  0-0-0/w PTR         r     1 CMD_END$
     0-0-0/b STRC(72)    r     1 DS_RESULTS                 0-0-0/w STRC(504)   r     1 P_PCB
     0-0-0/w PTR         r     1 STR_TEXT$                  0-0-0/w PTR         r     1 STR_TEXT_END$
     0-0-0/w PTR         r     1 STR_TEXT_HEAD$

  ****  BASED and DCB variables  ****

  ****  Scalars and arrays  ****
OctLoc.c.b A Datatyp(siz) R M Lvl/name                 OctLoc.c.b A Datatyp(siz) R M Lvl/name
PL6.E3A0      #001=VEX$STR_TEXT_INCR File=VEX$STR_TEXT_INCR.:E05TSI              WED 07/30/97 07:16 Page:18

     0-0-0/w STRC        r     1 OFFS                       0-0-0/d BIT (72)    r     1 WDS(0:0)


   Procedure VEX$STR_TEXT_INCR requires 103 words for executable code.
   Procedure VEX$STR_TEXT_INCR requires 14 words of local(AUTO) storage.

    No errors detected in file VEX$STR_TEXT_INCR.:E05TSI    .
PL6.E3A0      #001=VEX$STR_TEXT_INCR File=VEX$STR_TEXT_INCR.:E05TSI              WED 07/30/97 07:16 Page:19
          *** CROSS REFERENCE LISTING ***
**     DENOTES     IDENTIFIER DEFINITION
<<                 IDENTIFIER'S VALUE SET
>>                 IDENTIFIER'S VALUE USED
<>                 IDENTIFIER SET AND/OR USED
--                 IDENTIFIER REFERENCED
PL6.E3A0      #001=VEX$STR_TEXT_INCR File=VEX$STR_TEXT_INCR.:E05TSI              WED 07/30/97 07:16 Page:20
          MINI XREF LISTING

BAS IN PROCEDURE MOVER
      3901**DCL      3900--PROC     3909>>ASSIGN   3910>>ASSIGN
CMD$
      3848**DCL      3858--DCLINIT
CMDBUF$
      3845**DCL      3855--DCLINIT
CMDBUF_BASE$
      3846**DCL      3856--DCLINIT
CMDBUF_END$
      3847**DCL      3857--DCLINIT
CMD_BASE$
      3849**DCL      3859--DCLINIT
CMD_END$
      3850**DCL      3860--DCLINIT
DS_RESULTS
      3839**DCL      3632--DCLINIT
DS_RESULTS.PTR$
      3841**DCL      3888<<ASSIGN
FROM$ IN PROCEDURE MOVER
      3903**DCL      3910<<ASSIGN   3914>>ASSIGN
GDS_FPT
      3632**DCL      3889<>CALL
GDS_FPT.V
      3632**DCL      3632--DCLINIT
I
      3866**DCL      3890<<DOINDEX  3891>>ASSIGN   3891>>ASSIGN   3891>>ASSIGN   3893<<ASSIGN   3909>>ASSIGN
      3911>>ASSIGN
INC
      3861**DCL      3891>>ASSIGN
INCR
        13**DCL         8--PROC     3872>>ASSIGN
J IN PROCEDURE MOVER
PL6.E3A0      #001=VEX$STR_TEXT_INCR File=VEX$STR_TEXT_INCR.:E05TSI              WED 07/30/97 07:16 Page:21
      3906**DCL      3911<<ASSIGN   3912>>DOWHILE  3913<<ASSIGN   3913>>ASSIGN   3914>>ASSIGN   3914>>ASSIGN
M$GDS
        62**DCL-ENT  3889--CALL
MOVER
      3900**PROC     3894--CALL     3895--CALL     3896--CALL
NOMEM
      3880**LABEL    3875--CALLALT
NOMORE
      3898**LABEL    3889--CALLALT
OFFS.S
      3864**DCL      3891<<ASSIGN   3891>>ASSIGN
P$
      3851**DCL      3891>>ASSIGN   3891>>ASSIGN
P_PCB.WKSZ
      3685**DCL      3852--DCLINIT  3893>>ASSIGN
P_PCB.WORK$
      3664**DCL      3854--DCLINIT  3888>>ASSIGN
SIZ IN PROCEDURE MOVER
      3902**DCL      3900--PROC     3911>>ASSIGN   3911>>ASSIGN
STR_TEXT$
      3842**DCL      3872<<ASSIGN   3872>>ASSIGN   3874>>IF
STR_TEXT_END$
      3843**DCL      3853--DCLINIT  3874>>IF
STR_TEXT_HEAD$
      3844**DCL      3909>>ASSIGN
TO$ IN PROCEDURE MOVER
      3904**DCL      3909<<ASSIGN   3910>>ASSIGN   3914>>ASSIGN
VEX$ERROR
      3867**DCL-ENT  3880--CALL
VEX$XPAND
      3887**ENTRY    3875--CALL
WDS IN PROCEDURE MOVER
      3905**DCL      3914<<ASSIGN   3914>>ASSIGN
