VERSION E05

PL6.E3A0      #001=VEX$XPARSE_ENT File=VEX$XPARSE_ENT.:E05TSI                    WED 07/30/97 07:17 Page:1
        1        1        /*M*    VEX$XPARSE_ENT - ENTRY FOR EDIT X$PARSE SUCESS/FAIL PROCESSING */
        2        2        /*T***********************************************************/
        3        3        /*T*                                                         */
        4        4        /*T* Copyright (c) Bull HN Information Systems Inc., 1997    */
        5        5        /*T*                                                         */
        6        6        /*T***********************************************************/
        7        7        /*X*/
        8        8        VEX$XPARSE_ENT: PROC(XU_PARAM);
        9        9        /**/
       10       10        /*********************************************************************/
       11       11        /*   INCLUDE FILES   INCLUDE FILES   INCLUDE FILES   INCLUDE FILES   */
       12       12        /*********************************************************************/
       13       13        /**/
       14       14        %INCLUDE XU_SUBS_C;
       15      106        %INCLUDE VE_SUBS_C;
       16      300        %INCLUDE XU_MACRO_C;
       17     3406        /**/
       18     3407        /**********************************************************************/
       19     3408        /*   PARAMETERS   PARAMETERS   PARAMETERS   PARAMETERS   PARAMETERS   */
       20     3409        /**********************************************************************/
       21     3410        /**/
       22     3411        %PARSE$PARAM (NAME=XU_PARAM);
       23     3492        %P_PCB (STCLASS=BASED);
       24     3691        /**/
       25     3692        /*****************************************************************/
       26     3693        /*   SYMREFS   SYMREFS   SYMREFS   SYMREFS   SYMREFS   SYMREFS   */
       27     3694        /*****************************************************************/
       28     3695        /**/
       29     3696    1   DCL LAST_CMD UBIN(36) SYMREF;
       30     3697    1   DCL SAVED_CMD UBIN(36) SYMREF;
       31     3698        /*****************************************************************/
       32     3699        /*   PROCEDURE   PROCEDURE   PROCEDURE   PROCEDURE   PROCEDURE   */
       33     3700        /*****************************************************************/
       34     3701    2           IF (XU_PARAM.TYPE = %SUCC#) THEN DO;
       35     3702    2              IF (XU_PARAM.CODE = PC_SEMICOLON) THEN
       36     3703    2                  XU_PARAM.PCB$->P_PCB.CONTINUE = '1'B;
       37     3704    2               ELSE
PL6.E3A0      #001=VEX$XPARSE_ENT File=VEX$XPARSE_ENT.:E05TSI                    WED 07/30/97 07:17 Page:2
       38     3705    2              IF (XU_PARAM.CODE = QMCMD)OR(XU_PARAM.CODE = QM2CMD) THEN
       39     3706    2                 LAST_CMD = SAVED_CMD;
       40     3707    2              ELSE LAST_CMD = XU_PARAM.CODE;
       41     3708    2              END;
       42     3709    1           RETURN;
       43     3710    1   END;
       44     3711        %EOD;

PL6.E3A0      #001=VEX$XPARSE_ENT File=VEX$XPARSE_ENT.:E05TSI                    WED 07/30/97 07:17 Page:3
--  Include file information  --

   XU_MACRO_C.:E05TOU  is referenced.
   VE_SUBS_C.:E05TOU  is referenced.
   XU_SUBS_C.:E05TOU  is referenced.
      No diagnostics issued in procedure VEX$XPARSE_ENT.

   Procedure VEX$XPARSE_ENT requires 25 words for executable code.
   Procedure VEX$XPARSE_ENT requires 4 words of local(AUTO) storage.

PL6.E3A0      #001=VEX$XPARSE_ENT File=VEX$XPARSE_ENT.:E05TSI                    WED 07/30/97 07:17 Page:4

 Object Unit name= VEX$XPARSE_ENT                             File name= VEX$XPARSE_ENT.:E05TOU
 UTS= JUL 30 '97 07:17:41.36 WED                              Compiler= PL-6/E31         Sev=      00
 SharedLib= :SHARED_SYSTEM                                    Alt SharedLib=


    ****  Control sections  ****

 Sect   Type Bound  Init  Size OctSiz  Section name(segment info)
    0   Proc  even  none    25     31  VEX$XPARSE_ENT

    ****  Entry defs  ****

                              Check   Calling
                             calling  sequence
  Sect OctLoc Primary Altret sequence   type   Parms  Name
     0      0   yes            yes      Std        1  VEX$XPARSE_ENT

  ****  Entry refs  ****

         Check        Calling
        calling       sequence
Altret sequence SRef   type   Args  Name
                       nStd      0 X66_AUTO_1
                       nStd      0 X66_ARET

  ****  Data refs  ****

  Flags:  r = read only, s = secondary
Flgs Name                             Flgs Name                             Flgs Name
     LAST_CMD                              SAVED_CMD
PL6.E3A0      #001=VEX$XPARSE_ENT File=VEX$XPARSE_ENT.:E05TSI                    WED 07/30/97 07:17 Page:5


        1        1        /*M*    VEX$XPARSE_ENT - ENTRY FOR EDIT X$PARSE SUCESS/FAIL PROCESSING */
        2        2        /*T***********************************************************/
        3        3        /*T*                                                         */
        4        4        /*T* Copyright (c) Bull HN Information Systems Inc., 1997    */
        5        5        /*T*                                                         */
        6        6        /*T***********************************************************/
        7        7        /*X*/
        8        8        VEX$XPARSE_ENT: PROC(XU_PARAM);

      8  0 000000   000000 700200 xent  VEX$XPARSE_* TSX0  ! X66_AUTO_1
         0 000001   000004 000001                    ZERO    4,1

        9        9        /**/
       10       10        /*********************************************************************/
       11       11        /*   INCLUDE FILES   INCLUDE FILES   INCLUDE FILES   INCLUDE FILES   */
       12       12        /*********************************************************************/
       13       13        /**/
       14       14        %INCLUDE XU_SUBS_C;
       15      106        %INCLUDE VE_SUBS_C;
       16      300        %INCLUDE XU_MACRO_C;
       17     3406        /**/
       18     3407        /**********************************************************************/
       19     3408        /*   PARAMETERS   PARAMETERS   PARAMETERS   PARAMETERS   PARAMETERS   */
       20     3409        /**********************************************************************/
       21     3410        /**/
       22     3411        %PARSE$PARAM (NAME=XU_PARAM);
       23     3492        %P_PCB (STCLASS=BASED);
       24     3691        /**/
       25     3692        /*****************************************************************/
       26     3693        /*   SYMREFS   SYMREFS   SYMREFS   SYMREFS   SYMREFS   SYMREFS   */
       27     3694        /*****************************************************************/
       28     3695        /**/
       29     3696    1   DCL LAST_CMD UBIN(36) SYMREF;
       30     3697    1   DCL SAVED_CMD UBIN(36) SYMREF;
       31     3698        /*****************************************************************/
       32     3699        /*   PROCEDURE   PROCEDURE   PROCEDURE   PROCEDURE   PROCEDURE   */
PL6.E3A0      #001=VEX$XPARSE_ENT File=VEX$XPARSE_ENT.:E05TSI                    WED 07/30/97 07:17 Page:6
       33     3700        /*****************************************************************/
       34     3701    2           IF (XU_PARAM.TYPE = %SUCC#) THEN DO;

   3701  0 000002   200003 470500                    LDP0    @XU_PARAM,,AUTO
         0 000003   000000 236100                    LDQ     0,,PR0
         0 000004   777000 376003                    ANQ     -512,DU
         0 000005   002000 116003                    CMPQ    1024,DU
         0 000006   000030 601000 0                  TNZ     s:3709

       35     3702    2              IF (XU_PARAM.CODE = PC_SEMICOLON) THEN

   3702  0 000007   000000 720100                    LXL0    0,,PR0
         0 000010   000215 100003                    CMPX0   141,DU
         0 000011   000016 601000 0                  TNZ     s:3705

       36     3703    2                  XU_PARAM.PCB$->P_PCB.CONTINUE = '1'B;

   3703  0 000012   000005 471500                    LDP1    5,,PR0
         0 000013   200000 236007                    LDQ     65536,DL
         0 000014   100005 256100                    ORSQ    5,,PR1
         0 000015   000030 710000 0                  TRA     s:3709

       37     3704    2               ELSE
       38     3705    2              IF (XU_PARAM.CODE = QMCMD)OR(XU_PARAM.CODE = QM2CMD) THEN

   3705  0 000016   000004 100003                    CMPX0   4,DU
         0 000017   000022 600000 0                  TZE     s:3706
         0 000020   000005 100003                    CMPX0   5,DU
         0 000021   000025 601000 0                  TNZ     s:3707

       39     3706    2                 LAST_CMD = SAVED_CMD;

   3706  0 000022   000000 235000 xsym               LDA     SAVED_CMD
         0 000023   000000 755000 xsym               STA     LAST_CMD
         0 000024   000030 710000 0                  TRA     s:3709

       40     3707    2              ELSE LAST_CMD = XU_PARAM.CODE;
PL6.E3A0      #001=VEX$XPARSE_ENT File=VEX$XPARSE_ENT.:E05TSI                    WED 07/30/97 07:17 Page:7

   3707  0 000025   000000 236100                    LDQ     0,,PR0
         0 000026   777777 376007                    ANQ     -1,DL
         0 000027   000000 756000 xsym               STQ     LAST_CMD

       41     3708    2              END;

       42     3709    1           RETURN;

   3709  0 000030   000000 702200 xent               TSX2  ! X66_ARET
       43     3710    1   END;
       44     3711        %EOD;

PL6.E3A0      #001=VEX$XPARSE_ENT File=VEX$XPARSE_ENT.:E05TSI                    WED 07/30/97 07:17 Page:8
--  Include file information  --

   XU_MACRO_C.:E05TOU  is referenced.
   VE_SUBS_C.:E05TOU  is referenced.
   XU_SUBS_C.:E05TOU  is referenced.
      No diagnostics issued in procedure VEX$XPARSE_ENT.
PL6.E3A0      #001=VEX$XPARSE_ENT File=VEX$XPARSE_ENT.:E05TSI                    WED 07/30/97 07:17 Page:9

 **** Variables and constants ****

  ****  Auto variables  ****

  ****  Scalars and arrays  ****
OctLoc.c.b A Datatyp(siz) R M Lvl/name                 OctLoc.c.b A Datatyp(siz) R M Lvl/name

     3-0-0/w PTR         r     1 @XU_PARAM                 *0-0-0/w STRC(270)   r     1 XU_PARAM

  ****  SYMREF variables  ****

  ****  Scalars and arrays  ****
OctLoc.c.b A Datatyp(siz) R M Lvl/name                 OctLoc.c.b A Datatyp(siz) R M Lvl/name

     0-0-0/w UBIN        r     1 LAST_CMD                   0-0-0/w UBIN        r     1 SAVED_CMD

  ****  BASED and DCB variables  ****

  ****  Scalars and arrays  ****
OctLoc.c.b A Datatyp(siz) R M Lvl/name                 OctLoc.c.b A Datatyp(siz) R M Lvl/name

     0-0-0/w STRC(504)   r     1 P_PCB


   Procedure VEX$XPARSE_ENT requires 25 words for executable code.
   Procedure VEX$XPARSE_ENT requires 4 words of local(AUTO) storage.
PL6.E3A0      #001=VEX$XPARSE_ENT File=VEX$XPARSE_ENT.:E05TSI                    WED 07/30/97 07:17 Page:10
          *** CROSS REFERENCE LISTING ***
**     DENOTES     IDENTIFIER DEFINITION
<<                 IDENTIFIER'S VALUE SET
>>                 IDENTIFIER'S VALUE USED
<>                 IDENTIFIER SET AND/OR USED
--                 IDENTIFIER REFERENCED
PL6.E3A0      #001=VEX$XPARSE_ENT File=VEX$XPARSE_ENT.:E05TSI                    WED 07/30/97 07:17 Page:11
          MINI XREF LISTING

LAST_CMD
      3696**DCL      3706<<ASSIGN   3707<<ASSIGN
P_PCB.CONTINUE
      3551**DCL      3703<<ASSIGN
SAVED_CMD
      3697**DCL      3706>>ASSIGN
XU_PARAM
      3430**DCL         8--PROC
XU_PARAM.CODE
      3451**DCL      3702>>IF       3705>>IF       3705>>IF       3707>>ASSIGN
XU_PARAM.PCB$
      3474**DCL      3703>>ASSIGN
XU_PARAM.TYPE
      3431**DCL      3701>>IF

PL6.E3A0      #002=CMD_CONTINUE File=VEX$XPARSE_ENT.:E05TSI                      WED 07/30/97 07:17 Page:12
       45        1        /*T***********************************************************/
       46        2        /*T*                                                         */
       47        3        /*T* Copyright (c) Bull HN Information Systems Inc., 1997    */
       48        4        /*T*                                                         */
       49        5        /*T***********************************************************/
       50        6        CMD_CONTINUE:  PROC(XUG$GETCMD_,XU_PARAM);
       51        7
       52        8        /* This routine is called from XUG when Command line ends with a ';' */
       53        9
       54       10        %INCLUDE CP_6;
       55     5569        %INCLUDE XU_MACRO_C;
       56     8675        %INCLUDE XU_PERR_C;
       57     8866        %INCLUDE XU_SUBS_C;
       58     8958        %INCLUDE XUG_ENTRY;
       59     8989        %INCLUDE B_ERRORS_C;
       60    10116
       61    10117        %XUG_GETCMD (NAME=XUG$GETCMD_,STCLASS="");
       62    10455        %PARSE$PARAM (NAME=XU_PARAM,STCLASS="");
       63    10536        %P_PCB (STCLASS=BASED);
       64    10735
       65    10736    1   DCL GTAST CHAR(2) SYMREF;
       66    10737    1   DCL CMD$BUF CHAR(1024) CALIGNED BASED;
       67    10738
       68    10739    1     SUBSTR(XU_PARAM.PCB$->P_PCB.TEXT$->CMD$BUF,XU_PARAM.CHARPOS,4) = ';   ' ;
       69    10740    1     XU_PARAM.PCB$->P_PCB.CONTINUE = '0'B;
       70    10741    1     XUG$GETCMD_.PROMPT_ = VECTOR(GTAST);
       71    10742    1   END;

PL6.E3A0      #002=CMD_CONTINUE File=VEX$XPARSE_ENT.:E05TSI                      WED 07/30/97 07:17 Page:13
--  Include file information  --

   B_ERRORS_C.:E05TOU  is referenced.
   XUG_ENTRY.:E05TOU  cannot be made into a system file and is referenced.
   XU_SUBS_C.:E05TOU  is referenced.
   XU_PERR_C.:E05TOU  is referenced.
   XU_MACRO_C.:E05TOU  is referenced.
   CP_6_C.:E05TOU  is referenced.
   CP_6.:E05TOU  cannot be made into a system file and is referenced.
      No diagnostics issued in procedure CMD_CONTINUE.

   Procedure CMD_CONTINUE requires 17 words for executable code.
   Procedure CMD_CONTINUE requires 6 words of local(AUTO) storage.

    No errors detected in file VEX$XPARSE_ENT.:E05TSI    .

PL6.E3A0      #002=CMD_CONTINUE File=VEX$XPARSE_ENT.:E05TSI                      WED 07/30/97 07:17 Page:14

 Object Unit name= CMD_CONTINUE                               File name= VEX$XPARSE_ENT.:E05TOU
 UTS= JUL 30 '97 07:17:55.56 WED                              Compiler= PL-6/E31         Sev=      00
 SharedLib= :SHARED_SYSTEM                                    Alt SharedLib=


    ****  Control sections  ****

 Sect   Type Bound  Init  Size OctSiz  Section name(segment info)
    0   DCB   even  none     0      0  M$UC
    1  RoData even  UTS      1      1  CMD_CONTINUE
    2   Proc  even  none    17     21  CMD_CONTINUE
    3  RoData even  none     4      4  CMD_CONTINUE

    ****  Entry defs  ****

                              Check   Calling
                             calling  sequence
  Sect OctLoc Primary Altret sequence   type   Parms  Name
     2      0   yes            yes      Std        2  CMD_CONTINUE

  ****  Entry refs  ****

         Check        Calling
        calling       sequence
Altret sequence SRef   type   Args  Name
                       nStd      0 X66_AUTO_2
                       nStd      0 X66_ARET

  ****  Data refs  ****

  Flags:  r = read only, s = secondary
Flgs Name                             Flgs Name                             Flgs Name
     M$UC                                  GTAST
PL6.E3A0      #002=CMD_CONTINUE File=VEX$XPARSE_ENT.:E05TSI                      WED 07/30/97 07:17 Page:15

  ****  Segment refs  ****

  Flags:  r = read only, s = secondary
Flgs Name                             Flgs Name                             Flgs Name
     ISSID
PL6.E3A0      #002=CMD_CONTINUE File=VEX$XPARSE_ENT.:E05TSI                      WED 07/30/97 07:17 Page:16


       45        1        /*T***********************************************************/
       46        2        /*T*                                                         */
       47        3        /*T* Copyright (c) Bull HN Information Systems Inc., 1997    */
       48        4        /*T*                                                         */
       49        5        /*T***********************************************************/
       50        6        CMD_CONTINUE:  PROC(XUG$GETCMD_,XU_PARAM);

      6  2 000000   000000 700200 xent  CMD_CONTINUE TSX0  ! X66_AUTO_2
         2 000001   000006 000002                    ZERO    6,2

       51        7
       52        8        /* This routine is called from XUG when Command line ends with a ';' */
       53        9
       54       10        %INCLUDE CP_6;
       55     5569        %INCLUDE XU_MACRO_C;
       56     8675        %INCLUDE XU_PERR_C;
       57     8866        %INCLUDE XU_SUBS_C;
       58     8958        %INCLUDE XUG_ENTRY;
       59     8989        %INCLUDE B_ERRORS_C;
       60    10116
       61    10117        %XUG_GETCMD (NAME=XUG$GETCMD_,STCLASS="");
       62    10455        %PARSE$PARAM (NAME=XU_PARAM,STCLASS="");
       63    10536        %P_PCB (STCLASS=BASED);
       64    10735
       65    10736    1   DCL GTAST CHAR(2) SYMREF;
       66    10737    1   DCL CMD$BUF CHAR(1024) CALIGNED BASED;
       67    10738
       68    10739    1     SUBSTR(XU_PARAM.PCB$->P_PCB.TEXT$->CMD$BUF,XU_PARAM.CHARPOS,4) = ';   ' ;

  10739  2 000002   200004 470500                    LDP0    @XU_PARAM,,AUTO
         2 000003   000005 471500                    LDP1    5,,PR0
         2 000004   100000 473500                    LDP3    0,,PR1
         2 000005   000004 235100                    LDA     4,,PR0
         2 000006   040105 100400                    MLR     fill='040'O
         2 000007   000000 000004 1                  ADSC9   0                        cn=0,n=4
         2 000010   300000 000004                    ADSC9   0,A,PR3                  cn=0,n=4
PL6.E3A0      #002=CMD_CONTINUE File=VEX$XPARSE_ENT.:E05TSI                      WED 07/30/97 07:17 Page:17

       69    10740    1     XU_PARAM.PCB$->P_PCB.CONTINUE = '0'B;

  10740  2 000011   000005 471500                    LDP1    5,,PR0
         2 000012   000000 236000 3                  LDQ     0
         2 000013   100005 356100                    ANSQ    5,,PR1

       70    10741    1     XUG$GETCMD_.PROMPT_ = VECTOR(GTAST);

  10741  2 000014   200003 471500                    LDP1    @XUG$GETCMD_,,AUTO
         2 000015   000002 237000 3                  LDAQ    2
         2 000016   100025 755100                    STA     21,,PR1
         2 000017   100026 756100                    STQ     22,,PR1

       71    10742    1   END;

  10742  2 000020   000000 702200 xent               TSX2  ! X66_ARET

PL6.E3A0      #002=CMD_CONTINUE File=VEX$XPARSE_ENT.:E05TSI                      WED 07/30/97 07:17 Page:18
--  Include file information  --

   B_ERRORS_C.:E05TOU  is referenced.
   XUG_ENTRY.:E05TOU  cannot be made into a system file and is referenced.
   XU_SUBS_C.:E05TOU  is referenced.
   XU_PERR_C.:E05TOU  is referenced.
   XU_MACRO_C.:E05TOU  is referenced.
   CP_6_C.:E05TOU  is referenced.
   CP_6.:E05TOU  cannot be made into a system file and is referenced.
      No diagnostics issued in procedure CMD_CONTINUE.
PL6.E3A0      #002=CMD_CONTINUE File=VEX$XPARSE_ENT.:E05TSI                      WED 07/30/97 07:17 Page:19

 **** Variables and constants ****

  ****  Auto variables  ****

  ****  Scalars and arrays  ****
OctLoc.c.b A Datatyp(siz) R M Lvl/name                 OctLoc.c.b A Datatyp(siz) R M Lvl/name

     3-0-0/w PTR         r     1 @XUG$GETCMD_               4-0-0/w PTR         r     1 @XU_PARAM
    *0-0-0/d STRC(1512)  r     1 XUG$GETCMD_               *0-0-0/w STRC(270)   r     1 XU_PARAM

  ****  SYMREF variables  ****

  ****  Scalars and arrays  ****
OctLoc.c.b A Datatyp(siz) R M Lvl/name                 OctLoc.c.b A Datatyp(siz) R M Lvl/name

     0-0-0/c CHAR(2)     r     1 GTAST

  ****  BASED and DCB variables  ****

  ****  Scalars and arrays  ****
OctLoc.c.b A Datatyp(siz) R M Lvl/name                 OctLoc.c.b A Datatyp(siz) R M Lvl/name

     0-0-0/c CHAR(1024)  r     1 CMD$BUF                    0-0-0/w STRC(504)   r     1 P_PCB


   Procedure CMD_CONTINUE requires 17 words for executable code.
   Procedure CMD_CONTINUE requires 6 words of local(AUTO) storage.

    No errors detected in file VEX$XPARSE_ENT.:E05TSI    .
PL6.E3A0      #002=CMD_CONTINUE File=VEX$XPARSE_ENT.:E05TSI                      WED 07/30/97 07:17 Page:20
          *** CROSS REFERENCE LISTING ***
**     DENOTES     IDENTIFIER DEFINITION
<<                 IDENTIFIER'S VALUE SET
>>                 IDENTIFIER'S VALUE USED
<>                 IDENTIFIER SET AND/OR USED
--                 IDENTIFIER REFERENCED
PL6.E3A0      #002=CMD_CONTINUE File=VEX$XPARSE_ENT.:E05TSI                      WED 07/30/97 07:17 Page:21
          MINI XREF LISTING

CMD$BUF
     10737**DCL     10739<<ASSIGN
GTAST
     10736**DCL     10741--ASSIGN
P_PCB.CONTINUE
     10595**DCL     10740<<ASSIGN
P_PCB.TEXT$
     10555**DCL     10739>>ASSIGN
XUG$GETCMD_
     10130**DCL         6--PROC
XUG$GETCMD_.OUT$
     10135**DCL     10141--REDEF
XUG$GETCMD_.PROMPT_
     10339**DCL     10741<<ASSIGN
XU_PARAM
     10474**DCL         6--PROC
XU_PARAM.CHARPOS
     10512**DCL     10739>>ASSIGN
XU_PARAM.PCB$
     10518**DCL     10739>>ASSIGN  10740>>ASSIGN
