VERSION E05

PL6.E3A0      #001=VPC$CALL_OPEN File=VPC$SETOUT.:E05TSI                         WED 07/30/97 07:19 Page:1
        1        1        /*M* VPC$SETOUT Set up and open output file                                   */
        2        2        /*T***********************************************************/
        3        3        /*T*                                                         */
        4        4        /*T* Copyright (c) Bull HN Information Systems Inc., 1997    */
        5        5        /*T*                                                         */
        6        6        /*T***********************************************************/
        7        7        /*X* DTI=1,THI=1  */
        8        8        /* Next available error code = 95 by 1  */
        9        9        /*  ALSO AVAILABLE:  NONE  */
       10       10        VPC$CALL_OPEN: PROC(FPT_OPEN) ALTRET;
       11       11        /*D* NAME: VPC$CALL_OPEN
       12       12             CALL: CALL VPC$CALL_OPEN(FPT_OPEN);
       13       13             DESCRIPTION: This procedure will do an OPEN using the passed FPT.
       14       14                          If it is suitable for FSFA, WRITE_MODE will be set
       15       15                          to 1.  Otherwise it'll be 0.
       16       16        */
       17       17        /**/
       18       18        /*  INCLUDE FILES  */
       19       19        /**/
       20       20        %INCLUDE VP_DATA_R;
       21     7007        /**/
       22     7008        /*  Parameters  */
       23     7009        /**/
       24     7010        %FPT_OPEN(FPTN = FPT_OPEN,
       25     7011                  STCLASS = " ");
       26     7120        %FPT_OPEN(FPTN=FPT_OPEN_SETUP_EO,STCLASS=" ");
       27     7229        /**/
       28     7230        /*  Based Structures  */
       29     7231        /**/
       30     7232        %B$ALT;
       31     7240        %FPT_CLOSE(FPTN = FPT_CLOSE,
       32     7241                   STCLASS = "BASED(CLOSE$)");
       33     7283        %B$TCB;
       34     7286        /**/
       35     7287        /*  Local Storage  */
       36     7288        /**/
       37     7289    1   DCL CLOSE$ PTR;
PL6.E3A0      #001=VPC$CALL_OPEN File=VPC$SETOUT.:E05TSI                         WED 07/30/97 07:19 Page:2
       38     7290        /**/
       39     7291        /* Next available error code = 250 (by 10s)   */
       40     7292        /**/
       41     7293    1   DCL VPD$GET_BUF ENTRY(2) ALTRET;
       42     7294    1   DCL VPD$REL_BUF ENTRY(2) ALTRET;
       43     7295    1   DCL XSA$OPEN ENTRY(2) ALTRET;
       44     7296    1   DCL XSA$CLOSE ENTRY(2) ALTRET;
       45     7297        /**/
       46     7298    1           IF FPT_OPEN.V.OPER.TEST#        /* TEST OPEN                          */
       47     7299    1             OR FPT_OPEN.V.INITZ.REASSIGN# /* or AMR specified                   */
       48     7300    1             OR NOT CMD_MASK & '34'O       /* Not COPYs                          */
       49     7301    1             OR OCB.CRPT ~= 0              /* Encryption                         */
       50     7302    1             OR OCB.BIN = 2                /* BINary                             */
       51     7303    1             OR OCB.TRANS = 2              /* TRANSparent                        */
       52     7304    1            THEN                           /* Unsuitable for FSFA routines       */
       53     7305    1              GOTO PMME_OPEN;
       54     7306        /**/
       55     7307    1           CALL VPD$GET_BUF(OKBUF_PTR$,1024) ALTRET(PMME_OPEN);
       56     7308    1           OFSFA_PARAM.KBUF_.BUF$ = OKBUF_PTR$;
       57     7309    1           OFSFA_PARAM.KBUF_.BOUND = 1024 * 4 -1;
       58     7310        /**/
       59     7311    1           OBBUF_WSIZE = 1024 * 5;
       60     7312    1           CALL VPD$GET_BUF(OBBUF_PTR$,OBBUF_WSIZE) ALTRET(PMME_OPEN);
       61     7313    1           OFSFA_PARAM.BBUF_.BUF$ = OBBUF_PTR$;
       62     7314    1           OFSFA_PARAM.BBUF_.BOUND = OBBUF_WSIZE * 4 -1;
       63     7315        /**/
       64     7316    1           CALL XSA$OPEN(FPT_OPEN,OFSFA_PARAM) ALTRET(FSFA_ALT);
       65     7317        /**/
       66     7318    1           IF OFSFA_PARAM.ORG = 0
       67     7319    1            THEN                           /* Unsuitable for FSFA                */
       68     7320    2            DO;
       69     7321    2               WRITE_MODE = 0;
       70     7322    2               CALL CLEANUP;
       71     7323    2               END;
       72     7324    1            ELSE                           /* FSFA must be used                  */
       73     7325    2            DO;
       74     7326    2               WRITE_MODE = 1;
PL6.E3A0      #001=VPC$CALL_OPEN File=VPC$SETOUT.:E05TSI                         WED 07/30/97 07:19 Page:3
       75     7327    2               IF OFSFA_PARAM.ORG = %CONSEC#
       76     7328    2                THEN                       /* KBUF isn't needed                  */
       77     7329    2                  CALL VPD$REL_BUF(OKBUF_PTR$,1024); /* Release it               */
       78     7330    2               END;
       79     7331    1           RETURN;
       80     7332        /**/
       81     7333    1   PMME_OPEN:
       82     7334    1           CALL CLEANUP;                   /* Cleanup after FSFA attempt         */
       83     7335    2           IF FPT_OPEN.V.INITZ.REASSIGN# THEN DO; /* AMR specified               */
       84     7336    2               FPT_OPEN_SETUP_EO = FPT_OPEN; /* Get all options given to PCL     */
       85     7337    2               FPT_OPEN_SETUP_EO.V_=VECTOR(FPT_OPEN_SETUP_EO.V);
       86     7338    2               FPT_OPEN_SETUP_EO.V.SETDCB#='1'B;
       87     7339    2               FPT_OPEN_SETUP_EO.V.INITZ.REASSIGN#='0'B;
       88     7340    2               FPT_OPEN_SETUP_EO.V.OPER.TEST#='1'B;
       89     7341    2               CALL M$OPEN(FPT_OPEN_SETUP_EO) ALTRET(PMME_ALT);
              7341                        /* Put PCL's options/defaults into DCB */
       90     7342    2               FPT_OPEN = FPT_OPEN_OUT_SAVE; /* Startout with a fresh FPT        */
       91     7343    2               FPT_OPEN.V_=VECTOR(FPT_OPEN.V);
       92     7344    2               FPT_OPEN.V.INITZ.REASSIGN#='1'B;
              7344                        /* and merge in the stuff on the !SET */
       93     7345    2               FPT_OPEN.V.DCB# = FPT_OPEN_SETUP_EO.V.DCB#;
       94     7346    2               END;
       95     7347    1           CALL M$OPEN (FPT_OPEN) ALTRET(PMME_ALT);
       96     7348    1           WRITE_MODE = 0;
       97     7349    1           RETURN;
       98     7350        /**/
       99     7351    1   VPC$CALL_CLOSE: ENTRY(FPT_OPEN) ALTRET;
      100     7352    1           CLOSE$ = ADDR(FPT_OPEN);        /* PL-6 KLUDGE                        */
      101     7353    1           IF NOT CMD_MASK & '34'O         /* Not COPYs                          */
      102     7354    1            THEN                           /* Don't trust WRITE_MODE             */
      103     7355    1              GOTO PMME_CLOSE;
      104     7356    2           DO CASE(WRITE_MODE);
      105     7357    2            CASE(0);                       /* Normal PMME                        */
      106     7358    2   PMME_CLOSE: CALL M$CLOSE(FPT_CLOSE) ALTRET(PMME_ALT);
      107     7359    2            CASE(1);                       /* FSFA routines                      */
      108     7360    2              CALL XSA$CLOSE(FPT_CLOSE,OFSFA_PARAM) ALTRET(FSFA_ALT);
      109     7361    2              CALL CLEANUP;
PL6.E3A0      #001=VPC$CALL_OPEN File=VPC$SETOUT.:E05TSI                         WED 07/30/97 07:19 Page:4
      110     7362    2            END;                           /* END CASE                           */
      111     7363    1           RETURN;
      112     7364        /**/
      113     7365    1   PMME_ALT:
      114     7366    1           OUTPUT_ERR = B$TCB$ -> B$TCB.ALT$ -> B$ALT.ERR;
      115     7367    1           ALTRETURN;
      116     7368        /**/
      117     7369    1   FSFA_ALT:
      118     7370    1           OUTPUT_ERR = OFSFA_PARAM.ERR;
      119     7371    1           CALL CLEANUP;
      120     7372    1           ALTRETURN;
      121     7373        /**/
      122     7374    1   CLEANUP: PROC;
      123     7375    2           IF OKBUF_PTR$ ~= ADDR(NIL)
      124     7376    2            THEN                           /* Key buffer leftover                */
      125     7377    2              CALL VPD$REL_BUF(OKBUF_PTR$,1024);
      126     7378        /**/
      127     7379    2           IF OBBUF_PTR$ ~= ADDR(NIL)
      128     7380    2            THEN                           /* Data buffer leftover               */
      129     7381    2              CALL VPD$REL_BUF(OBBUF_PTR$,OBBUF_WSIZE);
      130     7382        /**/
      131     7383    2           RETURN;
      132     7384        /**/
      133     7385    2   END CLEANUP;
      134     7386        /**/
      135     7387    1   END VPC$CALL_OPEN;
      136     7388        %EOD;

PL6.E3A0      #001=VPC$CALL_OPEN File=VPC$SETOUT.:E05TSI                         WED 07/30/97 07:19 Page:5
--  Include file information  --

   B_MICROPS_C.:E05TOU  is referenced.
   XU_MACRO_C.:E05TOU  is referenced.
   VP_MACRO_C.:E05TOU  is referenced.
   XS_MACRO_C.:E05TOU  is referenced.
   VP_PERR_C.:E05TOU  is referenced.
   CP_6_SUBS.:E05TOU  is referenced.
   CP_6.:E05TOU  cannot be made into a system file and is referenced.
   VP_DATA_R.:E05TOU  cannot be made into a system file and is referenced.
   B$JIT_C.:E05TOU  was found in the system file and is never referenced.
   CP_6_C.:E05TOU  was found in the system file and is referenced.
      No diagnostics issued in procedure VPC$CALL_OPEN.

   Procedure VPC$CALL_OPEN requires 171 words for executable code.
   Procedure VPC$CALL_OPEN requires 68 words of local(AUTO) storage.

PL6.E3A0      #001=VPC$CALL_OPEN File=VPC$SETOUT.:E05TSI                         WED 07/30/97 07:19 Page:6

 Object Unit name= VPC$CALL_OPEN                              File name= VPC$SETOUT.:E05TOU
 UTS= JUL 30 '97 07:19:39.92 WED                              Compiler= PL-6/E31         Sev=      00
 SharedLib= :SHARED_SYSTEM                                    Alt SharedLib=


    ****  Control sections  ****

 Sect   Type Bound  Init  Size OctSiz  Section name(segment info)
    0   DCB   even  none     0      0  M$UC
    1   DCB   even  none     0      0  M$EI
    2   DCB   even  none     0      0  M$EO
    3   DCB   even  none     0      0  M$EO1
    4   DCB   even  none     0      0  M$ME
    5   DCB   even  none     0      0  M$SI
    6   DCB   even  none     0      0  M$READFILE
    7   DCB   even  none     0      0  M$DO
    8   DCB   even  none     0      0  M$STD1
    9   DCB   even  none     0      0  M$SORT1
   10   Proc  even  none   171    253  VPC$CALL_OPEN
   11  RoData even  none    11     13  VPC$CALL_OPEN

    ****  Entry defs  ****

                              Check   Calling
                             calling  sequence
  Sect OctLoc Primary Altret sequence   type   Parms  Name
    10      0   yes    yes     yes      Std        1  VPC$CALL_OPEN
    10    161          yes     yes      Std        1  VPC$CALL_CLOSE
PL6.E3A0      #001=VPC$CALL_OPEN File=VPC$SETOUT.:E05TSI                         WED 07/30/97 07:19 Page:7

  ****  Entry refs  ****

         Check        Calling
        calling       sequence
Altret sequence SRef   type   Args  Name
 yes     yes           Std       2 VPD$GET_BUF
 yes     yes           Std       2 VPD$REL_BUF
 yes     yes           Std       2 XSA$OPEN
 yes     yes           Std       2 XSA$CLOSE
                       nStd      0 X66_AUTO_1
                       Std       0 B_CONSPOOL_D
                       nStd      0 X66_ARET
                       nStd      0 X66_AALT

  ****  Data refs  ****

  Flags:  r = read only, s = secondary
Flgs Name                             Flgs Name                             Flgs Name
     M$UC                                  OUTPUT_ERR                            BREAK_LOC
     BREAK_MESSAGE_REPORTER                CMD_MASK                              SPEC_BUF
     OCB                                   IN_RES                                WRITE_MODE
     OBBUF_PTR$                            OBBUF_WSIZE                           OKBUF_PTR$
     OFSFA_PARAM                           M$EI                                  M$EO
     M$EO1                                 M$ME                                  M$SI
     M$READFILE                            M$DO                                  M$STD1
     M$SORT1                               B$TCB$                                FPT_OPEN_OUT_SAVE
     B_VECTNIL

  ****  Segment refs  ****

  Flags:  r = read only, s = secondary
Flgs Name                             Flgs Name                             Flgs Name
     ISSID
PL6.E3A0      #001=VPC$CALL_OPEN File=VPC$SETOUT.:E05TSI                         WED 07/30/97 07:19 Page:8


        1        1        /*M* VPC$SETOUT Set up and open output file                                   */
        2        2        /*T***********************************************************/
        3        3        /*T*                                                         */
        4        4        /*T* Copyright (c) Bull HN Information Systems Inc., 1997    */
        5        5        /*T*                                                         */
        6        6        /*T***********************************************************/
        7        7        /*X* DTI=1,THI=1  */
        8        8        /* Next available error code = 95 by 1  */
        9        9        /*  ALSO AVAILABLE:  NONE  */
       10       10        VPC$CALL_OPEN: PROC(FPT_OPEN) ALTRET;

     10 10 000000   000000 700200 xent  VPC$CALL_OP* TSX0  ! X66_AUTO_1
        10 000001   000104 000001                    ZERO    68,1

       11       11        /*D* NAME: VPC$CALL_OPEN
       12       12             CALL: CALL VPC$CALL_OPEN(FPT_OPEN);
       13       13             DESCRIPTION: This procedure will do an OPEN using the passed FPT.
       14       14                          If it is suitable for FSFA, WRITE_MODE will be set
       15       15                          to 1.  Otherwise it'll be 0.
       16       16        */
       17       17        /**/
       18       18        /*  INCLUDE FILES  */
       19       19        /**/
       20       20        %INCLUDE VP_DATA_R;
       21     7007        /**/
       22     7008        /*  Parameters  */
       23     7009        /**/
       24     7010        %FPT_OPEN(FPTN = FPT_OPEN,
       25     7011                  STCLASS = " ");
       26     7120        %FPT_OPEN(FPTN=FPT_OPEN_SETUP_EO,STCLASS=" ");
       27     7229        /**/
       28     7230        /*  Based Structures  */
       29     7231        /**/
       30     7232        %B$ALT;
       31     7240        %FPT_CLOSE(FPTN = FPT_CLOSE,
       32     7241                   STCLASS = "BASED(CLOSE$)");
PL6.E3A0      #001=VPC$CALL_OPEN File=VPC$SETOUT.:E05TSI                         WED 07/30/97 07:19 Page:9
       33     7283        %B$TCB;
       34     7286        /**/
       35     7287        /*  Local Storage  */
       36     7288        /**/
       37     7289    1   DCL CLOSE$ PTR;
       38     7290        /**/
       39     7291        /* Next available error code = 250 (by 10s)   */
       40     7292        /**/
       41     7293    1   DCL VPD$GET_BUF ENTRY(2) ALTRET;
       42     7294    1   DCL VPD$REL_BUF ENTRY(2) ALTRET;
       43     7295    1   DCL XSA$OPEN ENTRY(2) ALTRET;
       44     7296    1   DCL XSA$CLOSE ENTRY(2) ALTRET;
       45     7297        /**/
       46     7298    1           IF FPT_OPEN.V.OPER.TEST#        /* TEST OPEN                          */

   7298 10 000002   200003 470500                    LDP0    @FPT_OPEN,,AUTO
        10 000003   000044 236100                    LDQ     36,,PR0
        10 000004   020000 316007                    CANQ    8192,DL
        10 000005   000110 601000 10                 TNZ     PMME_OPEN
        10 000006   200000 316007                    CANQ    65536,DL
        10 000007   000110 601000 10                 TNZ     PMME_OPEN
        10 000010   000100 100400                    MLR     fill='000'O
        10 000011   000000 000010 xsym               ADSC9   CMD_MASK                 cn=0,n=8
        10 000012   200102 000010                    ADSC9   CLOSE$+4,,AUTO           cn=0,n=8
        10 000013   200102 237100                    LDAQ    CLOSE$+4,,AUTO
        10 000014   000000 377000 11                 ANAQ    0
        10 000015   000110 600000 10                 TZE     PMME_OPEN
        10 000016   000002 235000 xsym               LDA     OCB+2
        10 000017   000110 601000 10                 TNZ     PMME_OPEN
        10 000020   000016 236000 xsym               LDQ     OCB+14
        10 000021   000002 116007                    CMPQ    2,DL
        10 000022   000110 600000 10                 TZE     PMME_OPEN
        10 000023   000017 235000 xsym               LDA     OCB+15
        10 000024   000002 115007                    CMPA    2,DL
        10 000025   000110 600000 10                 TZE     PMME_OPEN

       47     7299    1             OR FPT_OPEN.V.INITZ.REASSIGN# /* or AMR specified                   */
PL6.E3A0      #001=VPC$CALL_OPEN File=VPC$SETOUT.:E05TSI                         WED 07/30/97 07:19 Page:10
       48     7300    1             OR NOT CMD_MASK & '34'O       /* Not COPYs                          */
       49     7301    1             OR OCB.CRPT ~= 0              /* Encryption                         */
       50     7302    1             OR OCB.BIN = 2                /* BINary                             */
       51     7303    1             OR OCB.TRANS = 2              /* TRANSparent                        */
       52     7304    1            THEN                           /* Unsuitable for FSFA routines       */
       53     7305    1              GOTO PMME_OPEN;
       54     7306        /**/
       55     7307    1           CALL VPD$GET_BUF(OKBUF_PTR$,1024) ALTRET(PMME_OPEN);

   7307 10 000026   000003 630400 11                 EPPR0   3
        10 000027   000020 631400 xsym               EPPR1   B_VECTNIL+16
        10 000030   000000 701000 xent               TSX1    VPD$GET_BUF
        10 000031   000110 702000 10                 TSX2    PMME_OPEN

       56     7308    1           OFSFA_PARAM.KBUF_.BUF$ = OKBUF_PTR$;

   7308 10 000032   000000 236000 xsym               LDQ     OKBUF_PTR$
        10 000033   000003 756000 xsym               STQ     OFSFA_PARAM+3

       57     7309    1           OFSFA_PARAM.KBUF_.BOUND = 1024 * 4 -1;

   7309 10 000034   000002 236000 xsym               LDQ     OFSFA_PARAM+2
        10 000035   177777 376007                    ANQ     65535,DL
        10 000036   000005 276000 11                 ORQ     5
        10 000037   000002 756000 xsym               STQ     OFSFA_PARAM+2

       58     7310        /**/
       59     7311    1           OBBUF_WSIZE = 1024 * 5;

   7311 10 000040   012000 235007                    LDA     5120,DL
        10 000041   000000 755000 xsym               STA     OBBUF_WSIZE

       60     7312    1           CALL VPD$GET_BUF(OBBUF_PTR$,OBBUF_WSIZE) ALTRET(PMME_OPEN);

   7312 10 000042   000006 630400 11                 EPPR0   6
        10 000043   000020 631400 xsym               EPPR1   B_VECTNIL+16
        10 000044   000000 701000 xent               TSX1    VPD$GET_BUF
PL6.E3A0      #001=VPC$CALL_OPEN File=VPC$SETOUT.:E05TSI                         WED 07/30/97 07:19 Page:11
        10 000045   000110 702000 10                 TSX2    PMME_OPEN

       61     7313    1           OFSFA_PARAM.BBUF_.BUF$ = OBBUF_PTR$;

   7313 10 000046   000000 236000 xsym               LDQ     OBBUF_PTR$
        10 000047   000005 756000 xsym               STQ     OFSFA_PARAM+5

       62     7314    1           OFSFA_PARAM.BBUF_.BOUND = OBBUF_WSIZE * 4 -1;

   7314 10 000050   000000 236000 xsym               LDQ     OBBUF_WSIZE
        10 000051   000002 736000                    QLS     2
        10 000052   000001 136007                    SBLQ    1,DL
        10 000053   000020 736000                    QLS     16
        10 000054   000004 676000 xsym               ERQ     OFSFA_PARAM+4
        10 000055   000034 376000 xsym               ANQ     B_VECTNIL+28
        10 000056   000004 656000 xsym               ERSQ    OFSFA_PARAM+4

       63     7315        /**/
       64     7316    1           CALL XSA$OPEN(FPT_OPEN,OFSFA_PARAM) ALTRET(FSFA_ALT);

   7316 10 000057   000010 236000 11                 LDQ     8
        10 000060   200003 235100                    LDA     @FPT_OPEN,,AUTO
        10 000061   200102 757100                    STAQ    CLOSE$+4,,AUTO
        10 000062   200102 630500                    EPPR0   CLOSE$+4,,AUTO
        10 000063   000020 631400 xsym               EPPR1   B_VECTNIL+16
        10 000064   000000 701000 xent               TSX1    XSA$OPEN
        10 000065   000225 702000 10                 TSX2    FSFA_ALT

       65     7317        /**/
       66     7318    1           IF OFSFA_PARAM.ORG = 0

   7318 10 000066   000014 236000 xsym               LDQ     OFSFA_PARAM+12
        10 000067   000777 316003                    CANQ    511,DU
        10 000070   000075 601000 10                 TNZ     s:7326

       67     7319    1            THEN                           /* Unsuitable for FSFA                */
       68     7320    2            DO;
PL6.E3A0      #001=VPC$CALL_OPEN File=VPC$SETOUT.:E05TSI                         WED 07/30/97 07:19 Page:12

       69     7321    2               WRITE_MODE = 0;

   7321 10 000071   000000 450000 xsym               STZ     WRITE_MODE

       70     7322    2               CALL CLEANUP;

   7322 10 000072   000232 701000 10                 TSX1    CLEANUP
        10 000073   000000 011000                    NOP     0

       71     7323    2               END;

   7323 10 000074   000107 710000 10                 TRA     s:7331

       72     7324    1            ELSE                           /* FSFA must be used                  */
       73     7325    2            DO;

       74     7326    2               WRITE_MODE = 1;

   7326 10 000075   000001 235007                    LDA     1,DL
        10 000076   000000 755000 xsym               STA     WRITE_MODE

       75     7327    2               IF OFSFA_PARAM.ORG = %CONSEC#

   7327 10 000077   000014 236000 xsym               LDQ     OFSFA_PARAM+12
        10 000100   000777 376003                    ANQ     511,DU
        10 000101   000001 116003                    CMPQ    1,DU
        10 000102   000107 601000 10                 TNZ     s:7331

       76     7328    2                THEN                       /* KBUF isn't needed                  */
       77     7329    2                  CALL VPD$REL_BUF(OKBUF_PTR$,1024); /* Release it               */

   7329 10 000103   000003 630400 11                 EPPR0   3
        10 000104   000020 631400 xsym               EPPR1   B_VECTNIL+16
        10 000105   000000 701000 xent               TSX1    VPD$REL_BUF
        10 000106   000000 011000                    NOP     0

PL6.E3A0      #001=VPC$CALL_OPEN File=VPC$SETOUT.:E05TSI                         WED 07/30/97 07:19 Page:13
       78     7330    2               END;

       79     7331    1           RETURN;

   7331 10 000107   000000 702200 xent               TSX2  ! X66_ARET

       80     7332        /**/
       81     7333    1   PMME_OPEN:
       82     7334    1           CALL CLEANUP;                   /* Cleanup after FSFA attempt         */

   7334 10 000110   000232 701000 10    PMME_OPEN    TSX1    CLEANUP
        10 000111   000000 011000                    NOP     0

       83     7335    2           IF FPT_OPEN.V.INITZ.REASSIGN# THEN DO; /* AMR specified               */

   7335 10 000112   200003 470500                    LDP0    @FPT_OPEN,,AUTO
        10 000113   000044 236100                    LDQ     36,,PR0
        10 000114   200000 316007                    CANQ    65536,DL
        10 000115   000154 600000 10                 TZE     s:7347

       84     7336    2               FPT_OPEN_SETUP_EO = FPT_OPEN; /* Get all options given to PCL     */

   7336 10 000116   000100 100500                    MLR     fill='000'O
        10 000117   000000 000350                    ADSC9   0,,PR0                   cn=0,n=232
        10 000120   200004 000350                    ADSC9   FPT_OPEN_SETUP_EO,,AUTO  cn=0,n=232

       85     7337    2               FPT_OPEN_SETUP_EO.V_=VECTOR(FPT_OPEN_SETUP_EO.V);

   7337 10 000121   000011 235000 11                 LDA     9
        10 000122   200102 452500                    STP2    CLOSE$+4,,AUTO
        10 000123   200102 236100                    LDQ     CLOSE$+4,,AUTO
        10 000124   000050 036003                    ADLQ    40,DU
        10 000125   200004 757100                    STAQ    FPT_OPEN_SETUP_EO,,AUTO

       86     7338    2               FPT_OPEN_SETUP_EO.V.SETDCB#='1'B;

   7338 10 000126   100000 236007                    LDQ     32768,DL
PL6.E3A0      #001=VPC$CALL_OPEN File=VPC$SETOUT.:E05TSI                         WED 07/30/97 07:19 Page:14
        10 000127   200050 256100                    ORSQ    FPT_OPEN_SETUP_EO+36,,AUTO

       87     7339    2               FPT_OPEN_SETUP_EO.V.INITZ.REASSIGN#='0'B;

   7339 10 000130   000012 236000 11                 LDQ     10
        10 000131   200050 356100                    ANSQ    FPT_OPEN_SETUP_EO+36,,AUTO

       88     7340    2               FPT_OPEN_SETUP_EO.V.OPER.TEST#='1'B;

   7340 10 000132   020000 236007                    LDQ     8192,DL
        10 000133   200050 256100                    ORSQ    FPT_OPEN_SETUP_EO+36,,AUTO

       89     7341    2               CALL M$OPEN(FPT_OPEN_SETUP_EO) ALTRET(PMME_ALT);
              7341                        /* Put PCL's options/defaults into DCB */

   7341 10 000134   200004 630500                    EPPR0   FPT_OPEN_SETUP_EO,,AUTO
        10 000135   450000 713400                    CLIMB   alt,open
        10 000136   410400 401760                    pmme    nvectors=18
        10 000137   000220 702000 10                 TSX2    PMME_ALT

       90     7342    2               FPT_OPEN = FPT_OPEN_OUT_SAVE; /* Startout with a fresh FPT        */

   7342 10 000140   200003 470500                    LDP0    @FPT_OPEN,,AUTO
        10 000141   000100 100400                    MLR     fill='000'O
        10 000142   000000 000350 xsym               ADSC9   FPT_OPEN_OUT_SAVE        cn=0,n=232
        10 000143   000000 000350                    ADSC9   0,,PR0                   cn=0,n=232

       91     7343    2               FPT_OPEN.V_=VECTOR(FPT_OPEN.V);

   7343 10 000144   000011 235000 11                 LDA     9
        10 000145   200003 236100                    LDQ     @FPT_OPEN,,AUTO
        10 000146   000044 036003                    ADLQ    36,DU
        10 000147   000000 757100                    STAQ    0,,PR0

       92     7344    2               FPT_OPEN.V.INITZ.REASSIGN#='1'B;
              7344                        /* and merge in the stuff on the !SET */

PL6.E3A0      #001=VPC$CALL_OPEN File=VPC$SETOUT.:E05TSI                         WED 07/30/97 07:19 Page:15
   7344 10 000150   200000 236007                    LDQ     65536,DL
        10 000151   000044 256100                    ORSQ    36,,PR0

       93     7345    2               FPT_OPEN.V.DCB# = FPT_OPEN_SETUP_EO.V.DCB#;

   7345 10 000152   200050 220100                    LDX0    FPT_OPEN_SETUP_EO+36,,AUTO
        10 000153   000044 740100                    STX0    36,,PR0

       94     7346    2               END;

       95     7347    1           CALL M$OPEN (FPT_OPEN) ALTRET(PMME_ALT);

   7347 10 000154   450000 713400                    CLIMB   alt,open
        10 000155   410400 401760                    pmme    nvectors=18
        10 000156   000220 702000 10                 TSX2    PMME_ALT

       96     7348    1           WRITE_MODE = 0;

   7348 10 000157   000000 450000 xsym               STZ     WRITE_MODE

       97     7349    1           RETURN;

   7349 10 000160   000000 702200 xent               TSX2  ! X66_ARET

       98     7350        /**/
       99     7351    1   VPC$CALL_CLOSE: ENTRY(FPT_OPEN) ALTRET;

   7351 10 000161   000000 700200 xent  VPC$CALL_CL* TSX0  ! X66_AUTO_1
        10 000162   000104 000001                    ZERO    68,1

      100     7352    1           CLOSE$ = ADDR(FPT_OPEN);        /* PL-6 KLUDGE                        */

   7352 10 000163   200003 236100                    LDQ     @FPT_OPEN,,AUTO
        10 000164   200076 756100                    STQ     CLOSE$,,AUTO

      101     7353    1           IF NOT CMD_MASK & '34'O         /* Not COPYs                          */

PL6.E3A0      #001=VPC$CALL_OPEN File=VPC$SETOUT.:E05TSI                         WED 07/30/97 07:19 Page:16
   7353 10 000165   000100 100400                    MLR     fill='000'O
        10 000166   000000 000010 xsym               ADSC9   CMD_MASK                 cn=0,n=8
        10 000167   200102 000010                    ADSC9   CLOSE$+4,,AUTO           cn=0,n=8
        10 000170   200102 237100                    LDAQ    CLOSE$+4,,AUTO
        10 000171   000000 377000 11                 ANAQ    0
        10 000172   000201 600000 10                 TZE     PMME_CLOSE

      102     7354    1            THEN                           /* Don't trust WRITE_MODE             */
      103     7355    1              GOTO PMME_CLOSE;
      104     7356    2           DO CASE(WRITE_MODE);

   7356 10 000173   000000 235000 xsym               LDA     WRITE_MODE
        10 000174   000002 115007                    CMPA    2,DL
        10 000175   000177 602005 10                 TNC     s:7356+4,AL
        10 000176   000217 710000 10                 TRA     s:7363
        10 000177   000201 710000 10                 TRA     PMME_CLOSE
        10 000200   000206 710000 10                 TRA     s:7360

      105     7357    2            CASE(0);                       /* Normal PMME                        */

      106     7358    2   PMME_CLOSE: CALL M$CLOSE(FPT_CLOSE) ALTRET(PMME_ALT);

   7358 10 000201   200076 470500       PMME_CLOSE   LDP0    CLOSE$,,AUTO
        10 000202   450001 713400                    CLIMB   alt,close
        10 000203   406000 401760                    pmme    nvectors=13
        10 000204   000220 702000 10                 TSX2    PMME_ALT
        10 000205   000217 710000 10                 TRA     s:7363

      107     7359    2            CASE(1);                       /* FSFA routines                      */

      108     7360    2              CALL XSA$CLOSE(FPT_CLOSE,OFSFA_PARAM) ALTRET(FSFA_ALT);

   7360 10 000206   000010 236000 11                 LDQ     8
        10 000207   200076 235100                    LDA     CLOSE$,,AUTO
        10 000210   200102 757100                    STAQ    CLOSE$+4,,AUTO
        10 000211   200102 630500                    EPPR0   CLOSE$+4,,AUTO
        10 000212   000020 631400 xsym               EPPR1   B_VECTNIL+16
PL6.E3A0      #001=VPC$CALL_OPEN File=VPC$SETOUT.:E05TSI                         WED 07/30/97 07:19 Page:17
        10 000213   000000 701000 xent               TSX1    XSA$CLOSE
        10 000214   000225 702000 10                 TSX2    FSFA_ALT

      109     7361    2              CALL CLEANUP;

   7361 10 000215   000232 701000 10                 TSX1    CLEANUP
        10 000216   000000 011000                    NOP     0

      110     7362    2            END;                           /* END CASE                           */

      111     7363    1           RETURN;

   7363 10 000217   000000 702200 xent               TSX2  ! X66_ARET

      112     7364        /**/
      113     7365    1   PMME_ALT:
      114     7366    1           OUTPUT_ERR = B$TCB$ -> B$TCB.ALT$ -> B$ALT.ERR;

   7366 10 000220   000000 470400 xsym  PMME_ALT     LDP0    B$TCB$
        10 000221   000000 471500                    LDP1    0,,PR0
        10 000222   100102 236100                    LDQ     66,,PR1
        10 000223   000000 756000 xsym               STQ     OUTPUT_ERR

      115     7367    1           ALTRETURN;

   7367 10 000224   000000 702200 xent               TSX2  ! X66_AALT

      116     7368        /**/
      117     7369    1   FSFA_ALT:
      118     7370    1           OUTPUT_ERR = OFSFA_PARAM.ERR;

   7370 10 000225   000001 236000 xsym  FSFA_ALT     LDQ     OFSFA_PARAM+1
        10 000226   000000 756000 xsym               STQ     OUTPUT_ERR

      119     7371    1           CALL CLEANUP;

   7371 10 000227   000232 701000 10                 TSX1    CLEANUP
PL6.E3A0      #001=VPC$CALL_OPEN File=VPC$SETOUT.:E05TSI                         WED 07/30/97 07:19 Page:18
        10 000230   000000 011000                    NOP     0

      120     7372    1           ALTRETURN;

   7372 10 000231   000000 702200 xent               TSX2  ! X66_AALT

      121     7373        /**/
      122     7374    1   CLEANUP: PROC;

   7374 10 000232   200100 741300       CLEANUP      STX1  ! CLOSE$+2,,AUTO

      123     7375    2           IF OKBUF_PTR$ ~= ADDR(NIL)

   7375 10 000233   000000 236000 xsym               LDQ     OKBUF_PTR$
        10 000234   000001 116000 xsym               CMPQ    B_VECTNIL+1
        10 000235   000242 600000 10                 TZE     s:7379

      124     7376    2            THEN                           /* Key buffer leftover                */
      125     7377    2              CALL VPD$REL_BUF(OKBUF_PTR$,1024);

   7377 10 000236   000003 630400 11                 EPPR0   3
        10 000237   000020 631400 xsym               EPPR1   B_VECTNIL+16
        10 000240   000000 701000 xent               TSX1    VPD$REL_BUF
        10 000241   000000 011000                    NOP     0

      126     7378        /**/
      127     7379    2           IF OBBUF_PTR$ ~= ADDR(NIL)

   7379 10 000242   000000 236000 xsym               LDQ     OBBUF_PTR$
        10 000243   000001 116000 xsym               CMPQ    B_VECTNIL+1
        10 000244   000251 600000 10                 TZE     s:7383

      128     7380    2            THEN                           /* Data buffer leftover               */
      129     7381    2              CALL VPD$REL_BUF(OBBUF_PTR$,OBBUF_WSIZE);

   7381 10 000245   000006 630400 11                 EPPR0   6
        10 000246   000020 631400 xsym               EPPR1   B_VECTNIL+16
PL6.E3A0      #001=VPC$CALL_OPEN File=VPC$SETOUT.:E05TSI                         WED 07/30/97 07:19 Page:19
        10 000247   000000 701000 xent               TSX1    VPD$REL_BUF
        10 000250   000000 011000                    NOP     0

      130     7382        /**/
      131     7383    2           RETURN;

   7383 10 000251   200100 221300                    LDX1  ! CLOSE$+2,,AUTO
        10 000252   000001 702211                    TSX2  ! 1,X1
      132     7384        /**/
      133     7385    2   END CLEANUP;
      134     7386        /**/
      135     7387    1   END VPC$CALL_OPEN;
      136     7388        %EOD;

PL6.E3A0      #001=VPC$CALL_OPEN File=VPC$SETOUT.:E05TSI                         WED 07/30/97 07:19 Page:20
--  Include file information  --

   B_MICROPS_C.:E05TOU  is referenced.
   XU_MACRO_C.:E05TOU  is referenced.
   VP_MACRO_C.:E05TOU  is referenced.
   XS_MACRO_C.:E05TOU  is referenced.
   VP_PERR_C.:E05TOU  is referenced.
   CP_6_SUBS.:E05TOU  is referenced.
   CP_6.:E05TOU  cannot be made into a system file and is referenced.
   VP_DATA_R.:E05TOU  cannot be made into a system file and is referenced.
   B$JIT_C.:E05TOU  was found in the system file and is never referenced.
   CP_6_C.:E05TOU  was found in the system file and is referenced.
      No diagnostics issued in procedure VPC$CALL_OPEN.
PL6.E3A0      #001=VPC$CALL_OPEN File=VPC$SETOUT.:E05TSI                         WED 07/30/97 07:19 Page:21

 **** Variables and constants ****

  ****  Auto variables  ****

  ****  Scalars and arrays  ****
OctLoc.c.b A Datatyp(siz) R M Lvl/name                 OctLoc.c.b A Datatyp(siz) R M Lvl/name

     3-0-0/w PTR         r     1 @FPT_OPEN                 76-0-0/w PTR         r     1 CLOSE$
    *0-0-0/d STRC(2088)  r     1 FPT_OPEN                   4-0-0/d STRC(2088)  r     1 FPT_OPEN_SETUP_EO

  ****  SYMREF variables  ****

  ****  Scalars and arrays  ****
OctLoc.c.b A Datatyp(siz) R M Lvl/name                 OctLoc.c.b A Datatyp(siz) R M Lvl/name

     0-0-0/w PTR         r     1 B$TCB$
     0-0-0/w EPTR        r     1 BREAK_MESSAGE_REPORTER
     0-0-0/b BIT         r     1 CMD_MASK(0:71)
     0-0-0/d STRC(2088)  r     1 FPT_OPEN_OUT_SAVE          0-0-0/w PTR         r     1 OBBUF_PTR$
     0-0-0/w SBIN        r     1 OBBUF_WSIZE                0-0-0/d STRC(6840)  r     1 OCB
     0-0-0/d STRC(504)   r     1 OFSFA_PARAM                0-0-0/w PTR         r     1 OKBUF_PTR$
     0-0-0/w STRC        r     1 OUTPUT_ERR                 0-0-0/w SBIN        r     1 WRITE_MODE

  ****  BASED and DCB variables  ****

  ****  Scalars and arrays  ****
OctLoc.c.b A Datatyp(siz) R M Lvl/name                 OctLoc.c.b A Datatyp(siz) R M Lvl/name

     0-0-0/w STRC(2448)  r     1 B$ALT                      0-0-0/w STRC(144)   r     1 B$TCB
     0-0-0/d STRC(1080)  r     1 FPT_CLOSE


   Procedure VPC$CALL_OPEN requires 171 words for executable code.
   Procedure VPC$CALL_OPEN requires 68 words of local(AUTO) storage.
PL6.E3A0      #001=VPC$CALL_OPEN File=VPC$SETOUT.:E05TSI                         WED 07/30/97 07:19 Page:22
          *** CROSS REFERENCE LISTING ***
**     DENOTES     IDENTIFIER DEFINITION
<<                 IDENTIFIER'S VALUE SET
>>                 IDENTIFIER'S VALUE USED
<>                 IDENTIFIER SET AND/OR USED
--                 IDENTIFIER REFERENCED
PL6.E3A0      #001=VPC$CALL_OPEN File=VPC$SETOUT.:E05TSI                         WED 07/30/97 07:19 Page:23
          MINI XREF LISTING

B$ALT.CODE
      7234**DCL      7234--REDEF    7235--REDEF    7235--REDEF
B$ALT.ERR
      7235**DCL      7366>>ASSIGN
B$ALT.ERR.ERR#
      7236**DCL      7236--REDEF
B$ALT.EVID
      7235**DCL      7235--REDEF    7235--REDEF
B$TCB.ALT$
      7284**DCL      7366>>ASSIGN
B$TCB$
      5992**DCL      7366>>ASSIGN
BREAK_LOC
      5227**DCL      5227--REDEF
CLEANUP
      7374**PROC     7322--CALL     7334--CALL     7361--CALL     7371--CALL
CLOSE$
      7289**DCL      7264--IMP-PTR  7352<<ASSIGN   7358>>CALL     7360>>CALL
CMD_MASK
      5229**DCL      7298>>IF       7353>>IF
DEF_ICB.FID.STRING
      5825**DCL      5826--REDEF
DEV_ICB.FID.STRING
      5711**DCL      5712--REDEF
EI_KEY.KEY
      5923**DCL      5923--REDEF    5923--REDEF    5923--REDEF
EO_OCB.TYPE
      5423**DCL      5424--REDEF
FPT_CLOSE
      7264**DCL      7358<>CALL     7360<>CALL
FPT_CLOSE.SN_
      7264**DCL      7264--REDEF
PL6.E3A0      #001=VPC$CALL_OPEN File=VPC$SETOUT.:E05TSI                         WED 07/30/97 07:19 Page:24
FPT_CLOSE.UTL_
      7265**DCL      7265--REDEF
FPT_CLOSE.V.EXPIRE#
      7279**DCL      7279--REDEF
FPT_CLOSE.V.TYPE#
      7277**DCL      7277--REDEF
FPT_CLOSE.V.XTNSIZE#
      7274**DCL      7274--REDEF    7276--REDEF
FPT_CLOSE_EI.SN_
      6764**DCL      6764--REDEF
FPT_CLOSE_EI.UTL_
      6765**DCL      6765--REDEF
FPT_CLOSE_EI.V.EXPIRE#
      6779**DCL      6779--REDEF
FPT_CLOSE_EI.V.TYPE#
      6777**DCL      6777--REDEF
FPT_CLOSE_EI.V.XTNSIZE#
      6774**DCL      6774--REDEF    6776--REDEF
FPT_CLOSE_PTL.SN_
      6890**DCL      6890--REDEF
FPT_CLOSE_PTL.UTL_
      6891**DCL      6891--REDEF
FPT_CLOSE_PTL.V.EXPIRE#
      6905**DCL      6905--REDEF
FPT_CLOSE_PTL.V.TYPE#
      6903**DCL      6903--REDEF
FPT_CLOSE_PTL.V.XTNSIZE#
      6900**DCL      6900--REDEF    6902--REDEF
FPT_CLOSE_READ.SN_
      6806**DCL      6806--REDEF
FPT_CLOSE_READ.UTL_
      6807**DCL      6807--REDEF
FPT_CLOSE_READ.V.EXPIRE#
      6821**DCL      6821--REDEF
FPT_CLOSE_READ.V.TYPE#
      6819**DCL      6819--REDEF
PL6.E3A0      #001=VPC$CALL_OPEN File=VPC$SETOUT.:E05TSI                         WED 07/30/97 07:19 Page:25
FPT_CLOSE_READ.V.XTNSIZE#
      6816**DCL      6816--REDEF    6818--REDEF
FPT_CLOSE_SI.SN_
      6974**DCL      6974--REDEF
FPT_CLOSE_SI.UTL_
      6975**DCL      6975--REDEF
FPT_CLOSE_SI.V.EXPIRE#
      6989**DCL      6989--REDEF
FPT_CLOSE_SI.V.TYPE#
      6987**DCL      6987--REDEF
FPT_CLOSE_SI.V.XTNSIZE#
      6984**DCL      6984--REDEF    6986--REDEF
FPT_CLOSE_STD.SN_
      6932**DCL      6932--REDEF
FPT_CLOSE_STD.UTL_
      6933**DCL      6933--REDEF
FPT_CLOSE_STD.V.EXPIRE#
      6947**DCL      6947--REDEF
FPT_CLOSE_STD.V.TYPE#
      6945**DCL      6945--REDEF
FPT_CLOSE_STD.V.XTNSIZE#
      6942**DCL      6942--REDEF    6944--REDEF
FPT_CLSEI_FT.SN_
      6848**DCL      6848--REDEF
FPT_CLSEI_FT.UTL_
      6849**DCL      6849--REDEF
FPT_CLSEI_FT.V.EXPIRE#
      6863**DCL      6863--REDEF
FPT_CLSEI_FT.V.TYPE#
      6861**DCL      6861--REDEF
FPT_CLSEI_FT.V.XTNSIZE#
      6858**DCL      6858--REDEF    6860--REDEF
FPT_OPEN
      7076**DCL        10--PROC     7316<>CALL     7336>>ASSIGN   7342<<ASSIGN   7347<>CALL     7351--ENTRY
      7352--ASSIGN
FPT_OPEN.ACSVEH_
PL6.E3A0      #001=VPC$CALL_OPEN File=VPC$SETOUT.:E05TSI                         WED 07/30/97 07:19 Page:26
      7078**DCL      7079--REDEF
FPT_OPEN.ALTKEYS_
      7084**DCL      7085--REDEF    7085--REDEF
FPT_OPEN.HDR_
      7083**DCL      7084--REDEF
FPT_OPEN.TAB_
      7082**DCL      7083--REDEF
FPT_OPEN.UHL_
      7076**DCL      7077--REDEF    7077--REDEF
FPT_OPEN.V
      7085**DCL      7343--ASSIGN
FPT_OPEN.V.DCB#
      7085**DCL      7345<<ASSIGN
FPT_OPEN.V.FSN#
      7116**DCL      7116--REDEF    7116--REDEF
FPT_OPEN.V.INITZ.REASSIGN#
      7086**DCL      7298>>IF       7335>>IF       7344<<ASSIGN
FPT_OPEN.V.OPER.TEST#
      7087**DCL      7298>>IF
FPT_OPEN.V_
      7076**DCL      7343<<ASSIGN
FPT_OPEN.WSN_
      7082**DCL      7082--REDEF
FPT_OPEN_EI.ACSVEH_
      6419**DCL      6420--REDEF
FPT_OPEN_EI.ALTKEYS_
      6425**DCL      6426--REDEF    6426--REDEF
FPT_OPEN_EI.HDR_
      6424**DCL      6425--REDEF
FPT_OPEN_EI.TAB_
      6423**DCL      6424--REDEF
FPT_OPEN_EI.UHL_
      6417**DCL      6418--REDEF    6418--REDEF
FPT_OPEN_EI.V.FSN#
      6457**DCL      6457--REDEF    6457--REDEF
FPT_OPEN_EI.WSN_
PL6.E3A0      #001=VPC$CALL_OPEN File=VPC$SETOUT.:E05TSI                         WED 07/30/97 07:19 Page:27
      6423**DCL      6423--REDEF
FPT_OPEN_EI_SAVE.ACSVEH_
      6528**DCL      6529--REDEF
FPT_OPEN_EI_SAVE.ALTKEYS_
      6534**DCL      6535--REDEF    6535--REDEF
FPT_OPEN_EI_SAVE.HDR_
      6533**DCL      6534--REDEF
FPT_OPEN_EI_SAVE.TAB_
      6532**DCL      6533--REDEF
FPT_OPEN_EI_SAVE.UHL_
      6526**DCL      6527--REDEF    6527--REDEF
FPT_OPEN_EI_SAVE.V.FSN#
      6566**DCL      6566--REDEF    6566--REDEF
FPT_OPEN_EI_SAVE.WSN_
      6532**DCL      6532--REDEF
FPT_OPEN_OUT.ACSVEH_
      6310**DCL      6311--REDEF
FPT_OPEN_OUT.ALTKEYS_
      6316**DCL      6317--REDEF    6317--REDEF
FPT_OPEN_OUT.HDR_
      6315**DCL      6316--REDEF
FPT_OPEN_OUT.TAB_
      6314**DCL      6315--REDEF
FPT_OPEN_OUT.UHL_
      6308**DCL      6309--REDEF    6309--REDEF
FPT_OPEN_OUT.V.FSN#
      6348**DCL      6348--REDEF    6348--REDEF
FPT_OPEN_OUT.WSN_
      6314**DCL      6314--REDEF
FPT_OPEN_OUT_SAVE
      6199**DCL      7342>>ASSIGN
FPT_OPEN_OUT_SAVE.ACSVEH_
      6201**DCL      6202--REDEF
FPT_OPEN_OUT_SAVE.ALTKEYS_
      6207**DCL      6208--REDEF    6208--REDEF
FPT_OPEN_OUT_SAVE.HDR_
PL6.E3A0      #001=VPC$CALL_OPEN File=VPC$SETOUT.:E05TSI                         WED 07/30/97 07:19 Page:28
      6206**DCL      6207--REDEF
FPT_OPEN_OUT_SAVE.TAB_
      6205**DCL      6206--REDEF
FPT_OPEN_OUT_SAVE.UHL_
      6199**DCL      6200--REDEF    6200--REDEF
FPT_OPEN_OUT_SAVE.V.FSN#
      6239**DCL      6239--REDEF    6239--REDEF
FPT_OPEN_OUT_SAVE.WSN_
      6205**DCL      6205--REDEF
FPT_OPEN_SETUP_EO
      7185**DCL      7336<<ASSIGN   7341<>CALL
FPT_OPEN_SETUP_EO.ACSVEH_
      7187**DCL      7188--REDEF
FPT_OPEN_SETUP_EO.ALTKEYS_
      7193**DCL      7194--REDEF    7194--REDEF
FPT_OPEN_SETUP_EO.HDR_
      7192**DCL      7193--REDEF
FPT_OPEN_SETUP_EO.TAB_
      7191**DCL      7192--REDEF
FPT_OPEN_SETUP_EO.UHL_
      7185**DCL      7186--REDEF    7186--REDEF
FPT_OPEN_SETUP_EO.V
      7194**DCL      7337--ASSIGN
FPT_OPEN_SETUP_EO.V.DCB#
      7194**DCL      7345>>ASSIGN
FPT_OPEN_SETUP_EO.V.FSN#
      7225**DCL      7225--REDEF    7225--REDEF
FPT_OPEN_SETUP_EO.V.INITZ.REASSIGN#
      7195**DCL      7339<<ASSIGN
FPT_OPEN_SETUP_EO.V.OPER.TEST#
      7196**DCL      7340<<ASSIGN
FPT_OPEN_SETUP_EO.V.SETDCB#
      7195**DCL      7338<<ASSIGN
FPT_OPEN_SETUP_EO.V_
      7185**DCL      7337<<ASSIGN
FPT_OPEN_SETUP_EO.WSN_
PL6.E3A0      #001=VPC$CALL_OPEN File=VPC$SETOUT.:E05TSI                         WED 07/30/97 07:19 Page:29
      7191**DCL      7191--REDEF
FPT_READ_STD.STATION_
      6629**DCL      6630--REDEF
FPT_READ_STD.V.DVBYTE.REREAD#
      6641**DCL      6641--REDEF
FPT_READ_STD.V.INDX#
      6639**DCL      6639--REDEF
FPT_READ_UC.STATION_
      6590**DCL      6591--REDEF
FPT_READ_UC.V.DVBYTE.REREAD#
      6602**DCL      6602--REDEF
FPT_READ_UC.V.INDX#
      6600**DCL      6600--REDEF
FPT_WRITE_ME.STATION_
      6698**DCL      6698--REDEF
FPT_WRITE_ME.V.DVBYTE.VFC#
      6705**DCL      6705--REDEF
FPT_WRITE_OUT.STATION_
      6729**DCL      6729--REDEF
FPT_WRITE_OUT.V.DVBYTE.VFC#
      6736**DCL      6736--REDEF
FPT_WRITE_UC.STATION_
      6667**DCL      6667--REDEF
FPT_WRITE_UC.V.DVBYTE.VFC#
      6674**DCL      6674--REDEF
FROM_SN.SN
      5573**DCL      5574--REDEF
FSFA_ALT
      7370**LABEL    7316--CALLALT  7360--CALLALT
GETCMD.OUT$
      4780**DCL      4786--REDEF
ICB.FID.STRING
      5597**DCL      5598--REDEF
IFSFA_PARAM.EOMCHAR#
      5952**DCL      5953--REDEF
IFSFA_PARAM.SIG1
PL6.E3A0      #001=VPC$CALL_OPEN File=VPC$SETOUT.:E05TSI                         WED 07/30/97 07:19 Page:30
      5946**DCL      5946--REDEF
IFSFA_PARAM.SIG2
      5946**DCL      5947--REDEF
IN_RES
      5519**DCL      5519--REDEF
IN_SN.SN
      5535**DCL      5536--REDEF
M$CLOSE
        37**DCL-ENT  7358--CALL
M$OPEN
        37**DCL-ENT  7341--CALL     7347--CALL
OBBUF_PTR$
      5926**DCL      7312<>CALL     7313>>ASSIGN   7379>>IF       7381<>CALL
OBBUF_WSIZE
      5927**DCL      7311<<ASSIGN   7312<>CALL     7314>>ASSIGN   7381<>CALL
OCB.BIN
      5253**DCL      7298>>IF
OCB.CRPT
      5238**DCL      7298>>IF
OCB.TRANS
      5254**DCL      7298>>IF
OCB.TYPE
      5281**DCL      5282--REDEF
OFSFA_PARAM
      5966**DCL      7316<>CALL     7360<>CALL
OFSFA_PARAM.BBUF_.BOUND
      5974**DCL      7314<<ASSIGN
OFSFA_PARAM.BBUF_.BUF$
      5975**DCL      7313<<ASSIGN
OFSFA_PARAM.EOMCHAR#
      5982**DCL      5983--REDEF
OFSFA_PARAM.ERR
      5970**DCL      7370>>ASSIGN
OFSFA_PARAM.KBUF_.BOUND
      5972**DCL      7309<<ASSIGN
OFSFA_PARAM.KBUF_.BUF$
PL6.E3A0      #001=VPC$CALL_OPEN File=VPC$SETOUT.:E05TSI                         WED 07/30/97 07:19 Page:31
      5973**DCL      7308<<ASSIGN
OFSFA_PARAM.ORG
      5981**DCL      7318>>IF       7327>>IF
OFSFA_PARAM.SIG1
      5976**DCL      5976--REDEF
OFSFA_PARAM.SIG2
      5976**DCL      5977--REDEF
OKBUF_PTR$
      5927**DCL      7307<>CALL     7308>>ASSIGN   7329<>CALL     7375>>IF       7377<>CALL
OUTPUT_ERR
      5157**DCL      7366<<ASSIGN   7370<<ASSIGN
OUT_SN.SN
      5553**DCL      5554--REDEF
PMME_ALT
      7366**LABEL    7341--CALLALT  7347--CALLALT  7358--CALLALT
PMME_CLOSE
      7358**LABEL    7355--GOTO
PMME_OPEN
      7334**LABEL    7305--GOTO     7307--CALLALT  7312--CALLALT
SPEC_BUF
      5231**DCL      5231--REDEF
VPD$GET_BUF
      7293**DCL-ENT  7307--CALL     7312--CALL
VPD$REL_BUF
      7294**DCL-ENT  7329--CALL     7377--CALL     7381--CALL
WRITE_MODE
      5926**DCL      7321<<ASSIGN   7326<<ASSIGN   7348<<ASSIGN   7356>>DOCASE
XSA$CLOSE
      7296**DCL-ENT  7360--CALL
XSA$OPEN
      7295**DCL-ENT  7316--CALL

