PL6.E3A0      #027=VPD$PROCESS_DATE File=VPD$UTIL.:E05TSI                        WED 07/30/97 07:54 Page:655
     2479        1        /*T***********************************************************/
     2480        2        /*T*                                                         */
     2481        3        /*T* Copyright (c) Bull HN Information Systems Inc., 1997    */
     2482        4        /*T*                                                         */
     2483        5        /*T***********************************************************/
     2484        6        VPD$PROCESS_DATE: PROC (DATE$,DATE_TYPE,RET_UTS,ROUND_CODE) ALTRET;
     2485        7        /*I* NAME: VPD$PROCESS_DATE
     2486        8             PURPOSE: To process a date node returned by the parser.
     2487        9           CALL: CALL VPD$PROCESS_DATE(DATE$,DATE_TYPE,RET_UTS,ROUND_CODE) ALTRET(BAD_DATE);
     2488       10             DESCRIPTION: The node pointed to by DATE$ is examined for TYPE and
     2489       11                          is then converted to a UTS value.  Valid TYPES are:
     2490       12                          DATE_TYPE    meaning
     2491       13                          ---------    -------
     2492       14                              1        positive 'ddd' displacement
     2493       15                              2        today's date.
     2494       16                              3        NEVER.  Does not return a value in RET_UTS.
     2495       17                              4        today's date.
     2496       18                              5        negative -'ddd' displacement
     2497       19                              6        specific 'dd/dd/dd' date
     2498       20                          All returned values EXCEPT #4 are truncated to the
     2499       21                          beginning of the day.
     2500       22
     2501       23                          If any problems are encountered in date processing,
     2502       24                          the procedure takes the ALTRETURN with DATE_TYPE = 0
     2503       25                          and RET_UTS = 0.
     2504       26
     2505       27                         ROUND_CODE indicates the type of rounding that was
     2506       28                         performed on the date (and should be performed on
     2507       29                         any date used for comparison).
     2508       30                             0 - rounded down to beginning of day
     2509       31                             1 - unaltered UTS
     2510       32
     2511       33                          This proc is used by VPF$SRCLST, VPC$SETOUT....
     2512       34        */
     2513       35        %EJECT;
PL6.E3A0      #027=VPD$PROCESS_DATE File=VPD$UTIL.:E05TSI                        WED 07/30/97 07:54 Page:656
     2514       36        /**/
     2515       37        /*  INCLUDES  */
     2516       38        /**/
     2517       39        %INCLUDE VP_DATA_R;
     2518     7026        %INCLUDE XUD_UTS_M;
     2519     7108        %XUD$UTS_ENTRIES;
     2520     7140        %XUD_UTS_EQU;
     2521     7151        /**/
     2522     7152        /*  PARAPETERS  */
     2523     7153        /**/
     2524     7154    1   DCL RET_UTS UBIN WORD;                  /* PARAMETER for UTS time return      */
     2525     7155    1   DCL DATE$ PTR;                          /* PARAMETER pointing to DATE node    */
     2526     7156    1   DCL DATE_TYPE UBIN;                     /* Return variable for type of DATE   */
     2527     7157    1   DCL ROUND_CODE UBIN;                    /* Return variable for rounding type  */
     2528     7158        /**/
     2529     7159        /*  BASED DATA  */
     2530     7160        /**/
     2531     7161        %PARSE$OUT(NAME = OUT$BLK,STCLASS = BASED);
     2532     7206        %PARSE$SYM(NAME = OUT$SYM,STCLASS = BASED);
     2533     7244    1   DCL 1 TEXT$C BASED,
     2534     7245    1         2 LEN UBIN BYTE UNAL,
     2535     7246    1         2 STRING CHAR(TEXT$C.LEN);
     2536     7247        /**/
     2537     7248        /*  ENTRY DCLS  */
     2538     7249        /**/
     2539     7250    1   DCL VPD$TEXTC_CHARBIN ENTRY(4) ALTRET;
     2540     7251        /**/
     2541     7252        /*   %EQU'S   */
     2542     7253        /**/
     2543     7254        %EQU MAX_SBIN_DAYS# = 15907;            /* MAX # OF DAYS THAT FITS IN SBIN    */
     2544     7255        /**/
     2545     7256        /*  LOCAL STATIC  */
     2546     7257        /**/
     2547     7258    1   DCL TO_RET_UTS UBIN WORD STATIC;        /* Local copy of RET_UTS              */
     2548     7259    1   DCL TMP UBIN STATIC;
     2549     7260    1   DCL DATE# CHAR(8) STATIC;
     2550     7261    1   DCL DAYS# SBIN WORD STATIC;
PL6.E3A0      #027=VPD$PROCESS_DATE File=VPD$UTIL.:E05TSI                        WED 07/30/97 07:54 Page:657
     2551     7262        %FPT_TIME(FPTN = FPT_MAKE_UTS,
     2552     7263                  STCLASS = STATIC,
     2553     7264                  SOURCE = LOCAL,
     2554     7265                  DATE = DATE#,
     2555     7266                  DEST = UTS,
     2556     7267                  TSTAMP = TO_RET_UTS);
     2557     7286        /**/
     2558     7287    1           DATE_TYPE = DATE$ -> OUT$BLK.CODE;
     2559     7288    2           DO CASE(DATE_TYPE);
     2560     7289    2            CASE(1,5);                     /* + or -  displacement               */
     2561     7290    2              CALL VPD$TEXTC_CHARBIN(DAYS#,
     2562     7291    2                DATE$ -> OUT$BLK.SUBLK$(0) -> OUT$BLK.SUBLK$(0),
     2563     7292    2                %MAX_SBIN_DAYS#) ALTRET (BAD_DATE);
     2564     7293    2              IF DATE_TYPE = 1
     2565     7294    2               THEN                        /* '+' Increment                      */
     2566     7295    2                 CALL XUD$UTS_ADJ_25TH (TO_RET_UTS, NOW_UTS, DAYS#*%UTS_25TH_DAY#)
              7295                          ALTRET (BAD_DATE);
     2567     7296    2               ELSE                        /* '-' Increment                      */
     2568     7297    2                 CALL XUD$UTS_ADJ_25TH(TO_RET_UTS, NOW_UTS, -DAYS#*%UTS_25TH_DAY#)
              7297                          ALTRET (BAD_DATE);
     2569     7298    2            CASE(2);                       /* TODAY                              */
     2570     7299    2              TO_RET_UTS = NOW_UTS;        /* Get current UTS time               */
     2571     7300    2            CASE(3);                       /* NEVER                              */
     2572     7301    2              TO_RET_UTS = 0;              /* DO NOTHING FOR 'NEVER'             */
     2573     7302    2            CASE(4);                       /* NOW                                */
     2574     7303    2              TO_RET_UTS = NOW_UTS;        /* Get current UTS time               */
     2575     7304    2            CASE(6);                       /* Specific dd/dd/dd date             */
     2576     7305    2              CALL CONCAT(DATE#,
     2577     7306    2                DATE$ -> OUT$BLK.SUBLK$(0) ->
     2578     7307    2                OUT$BLK.SUBLK$(0) ->
     2579     7308    2                TEXT$C.STRING,
     2580     7309    2                '/',
     2581     7310    2                DATE$ -> OUT$BLK.SUBLK$(1) ->
     2582     7311    2                OUT$BLK.SUBLK$(0) ->
     2583     7312    2                TEXT$C.STRING,
     2584     7313    2                '/',
     2585     7314    2                DATE$ -> OUT$BLK.SUBLK$(2) ->
PL6.E3A0      #027=VPD$PROCESS_DATE File=VPD$UTIL.:E05TSI                        WED 07/30/97 07:54 Page:658
     2586     7315    2                OUT$BLK.SUBLK$(0) ->
     2587     7316    2                TEXT$C.STRING);
     2588     7317    2              CALL M$TIME(FPT_MAKE_UTS) ALTRET(BAD_DATE);
     2589     7318    2            END;                           /* END CASE                           */
     2590     7319    1           RET_UTS = TO_RET_UTS;
     2591     7320    1           IF DATE_TYPE = 4                /* NOW                                */
     2592     7321    1            THEN
     2593     7322    1              ROUND_CODE = 1;              /* No truncation                      */
     2594     7323    1            ELSE
     2595     7324    1              ROUND_CODE = 0;              /* Truncate to beginning of day       */
     2596     7325        /**/
     2597     7326    1   VPD$ROUND_DATE: ENTRY(DATE$,DATE_TYPE,RET_UTS,ROUND_CODE) ALTRET;
     2598     7327        /**/
     2599     7328    2           DO CASE(ROUND_CODE);
     2600     7329    2            CASE(0);                       /* Truncate to beginning of day       */
     2601     7330    2              CALL XUD$UTS_DIFF_25TH(TMP,RET_UTS,0);
     2602     7331    2              TMP = (TMP/%UTS_25TH_DAY#) * %UTS_25TH_DAY#;
              7331                       /* truncate to beginning of day */
     2603     7332    2              CALL XUD$UTS_ADJ_25TH (RET_UTS,0,TMP);
     2604     7333    2            CASE(1);                       /* Leave it alone!                    */
     2605     7334    2              ;
     2606     7335    2            END;
     2607     7336        /**/
     2608     7337    1           RETURN;
     2609     7338
     2610     7339    1   BAD_DATE: RET_UTS = 0;                  /* Error, return a date of zero       */
     2611     7340    1           DATE_TYPE = 0;
     2612     7341    1           ALTRETURN;
     2613     7342
     2614     7343    1   END VPD$PROCESS_DATE;
     2615     7344        %EOD;

PL6.E3A0      #027=VPD$PROCESS_DATE File=VPD$UTIL.:E05TSI                        WED 07/30/97 07:54 Page:659
--  Include file information  --

   XUD_UTS_M.:E05TOU  is referenced.
   B_MICROPS_C.:E05TOU  is referenced.
   XU_MACRO_C.:E05TOU  is referenced.
   VP_MACRO_C.:E05TOU  is referenced.
   XS_MACRO_C.:E05TOU  is referenced.
   VP_PERR_C.:E05TOU  is referenced.
   CP_6_SUBS.:E05TOU  is referenced.
   CP_6.:E05TOU  cannot be made into a system file and is referenced.
   VP_DATA_R.:E05TOU  cannot be made into a system file and is referenced.
   B$JIT_C.:E05TOU  was found in the system file and is never referenced.
   CP_6_C.:E05TOU  was found in the system file and is referenced.
      No diagnostics issued in procedure VPD$PROCESS_DATE.

   Procedure VPD$PROCESS_DATE requires 201 words for executable code.
   Procedure VPD$PROCESS_DATE requires 16 words of local(AUTO) storage.

PL6.E3A0      #027=VPD$PROCESS_DATE File=VPD$UTIL.:E05TSI                        WED 07/30/97 07:54 Page:660

 Object Unit name= VPD$PROCESS_DATE                           File name= VPD$UTIL.:E05TOU
 UTS= JUL 30 '97 07:54:46.80 WED                              Compiler= PL-6/E31         Sev=      00
 SharedLib= :SHARED_SYSTEM                                    Alt SharedLib=


    ****  Control sections  ****

 Sect   Type Bound  Init  Size OctSiz  Section name(segment info)
    0   DCB   even  none     0      0  M$UC
    1   DCB   even  none     0      0  M$EI
    2   DCB   even  none     0      0  M$EO
    3   DCB   even  none     0      0  M$EO1
    4   DCB   even  none     0      0  M$ME
    5   DCB   even  none     0      0  M$SI
    6   DCB   even  none     0      0  M$READFILE
    7   DCB   even  none     0      0  M$DO
    8   DCB   even  none     0      0  M$STD1
    9   DCB   even  none     0      0  M$SORT1
   10   Data  even  none    18     22  VPD$PROCESS_DATE
   11   Proc  even  none   201    311  VPD$PROCESS_DATE
   12  RoData even  none    10     12  VPD$PROCESS_DATE

    ****  Entry defs  ****

                              Check   Calling
                             calling  sequence
  Sect OctLoc Primary Altret sequence   type   Parms  Name
    11      0   yes    yes     yes      Std        4  VPD$PROCESS_DATE
    11    243          yes     yes      Std        4  VPD$ROUND_DATE
PL6.E3A0      #027=VPD$PROCESS_DATE File=VPD$UTIL.:E05TSI                        WED 07/30/97 07:54 Page:661

  ****  Entry refs  ****

         Check        Calling
        calling       sequence
Altret sequence SRef   type   Args  Name
 yes     yes           Std       4 VPD$TEXTC_CHARBIN
 yes     yes           Std       3 XUD$UTS_ADJ_25TH
 yes     yes           Std       3 XUD$UTS_DIFF_25TH
                       nStd      0 X66_AUTO_4
                       Std       0 B_CONSPOOL_D
                       nStd      0 X66_ARET
                       nStd      0 X66_AALT

  ****  Data refs  ****

  Flags:  r = read only, s = secondary
Flgs Name                             Flgs Name                             Flgs Name
     M$UC                                  NOW_UTS                               BREAK_LOC
     BREAK_MESSAGE_REPORTER                SPEC_BUF                              IN_RES
     M$EI                                  M$EO                                  M$EO1
     M$ME                                  M$SI                                  M$READFILE
     M$DO                                  M$STD1                                M$SORT1
     B_VECTNIL

  ****  Segment refs  ****

  Flags:  r = read only, s = secondary
Flgs Name                             Flgs Name                             Flgs Name
     ISSID                                 NULLSID
PL6.E3A0      #027=VPD$PROCESS_DATE File=VPD$UTIL.:E05TSI                        WED 07/30/97 07:54 Page:662


     2479        1        /*T***********************************************************/
     2480        2        /*T*                                                         */
     2481        3        /*T* Copyright (c) Bull HN Information Systems Inc., 1997    */
     2482        4        /*T*                                                         */
     2483        5        /*T***********************************************************/
     2484        6        VPD$PROCESS_DATE: PROC (DATE$,DATE_TYPE,RET_UTS,ROUND_CODE) ALTRET;

      6 11 000000   000000 700200 xent  VPD$PROCESS* TSX0  ! X66_AUTO_4
        11 000001   000020 000004                    ZERO    16,4

     2485        7        /*I* NAME: VPD$PROCESS_DATE
     2486        8             PURPOSE: To process a date node returned by the parser.
     2487        9          CALL: CALL VPD$PROCESS_DATE(DATE$,DATE_TYPE,RET_UTS,ROUND_CODE) ALTRET(BAD_DATE);
     2488       10             DESCRIPTION: The node pointed to by DATE$ is examined for TYPE and
     2489       11                          is then converted to a UTS value.  Valid TYPES are:
     2490       12                          DATE_TYPE    meaning
     2491       13                          ---------    -------
     2492       14                              1        positive 'ddd' displacement
     2493       15                              2        today's date.
     2494       16                              3        NEVER.  Does not return a value in RET_UTS.
     2495       17                              4        today's date.
     2496       18                              5        negative -'ddd' displacement
     2497       19                              6        specific 'dd/dd/dd' date
     2498       20                          All returned values EXCEPT #4 are truncated to the
     2499       21                          beginning of the day.
     2500       22
     2501       23                          If any problems are encountered in date processing,
     2502       24                          the procedure takes the ALTRETURN with DATE_TYPE = 0
     2503       25                          and RET_UTS = 0.
     2504       26
     2505       27                         ROUND_CODE indicates the type of rounding that was
     2506       28                         performed on the date (and should be performed on
     2507       29                         any date used for comparison).
     2508       30                             0 - rounded down to beginning of day
     2509       31                             1 - unaltered UTS
     2510       32
PL6.E3A0      #027=VPD$PROCESS_DATE File=VPD$UTIL.:E05TSI                        WED 07/30/97 07:54 Page:663
     2511       33                          This proc is used by VPF$SRCLST, VPC$SETOUT....
     2512       34        */
     2513       35        %EJECT;
PL6.E3A0      #027=VPD$PROCESS_DATE File=VPD$UTIL.:E05TSI                        WED 07/30/97 07:54 Page:664
     2514       36        /**/
     2515       37        /*  INCLUDES  */
     2516       38        /**/
     2517       39        %INCLUDE VP_DATA_R;
     2518     7026        %INCLUDE XUD_UTS_M;
     2519     7108        %XUD$UTS_ENTRIES;
     2520     7140        %XUD_UTS_EQU;
     2521     7151        /**/
     2522     7152        /*  PARAPETERS  */
     2523     7153        /**/
     2524     7154    1   DCL RET_UTS UBIN WORD;                  /* PARAMETER for UTS time return      */
     2525     7155    1   DCL DATE$ PTR;                          /* PARAMETER pointing to DATE node    */
     2526     7156    1   DCL DATE_TYPE UBIN;                     /* Return variable for type of DATE   */
     2527     7157    1   DCL ROUND_CODE UBIN;                    /* Return variable for rounding type  */
     2528     7158        /**/
     2529     7159        /*  BASED DATA  */
     2530     7160        /**/
     2531     7161        %PARSE$OUT(NAME = OUT$BLK,STCLASS = BASED);
     2532     7206        %PARSE$SYM(NAME = OUT$SYM,STCLASS = BASED);
     2533     7244    1   DCL 1 TEXT$C BASED,
     2534     7245    1         2 LEN UBIN BYTE UNAL,
     2535     7246    1         2 STRING CHAR(TEXT$C.LEN);
     2536     7247        /**/
     2537     7248        /*  ENTRY DCLS  */
     2538     7249        /**/
     2539     7250    1   DCL VPD$TEXTC_CHARBIN ENTRY(4) ALTRET;
     2540     7251        /**/
     2541     7252        /*   %EQU'S   */
     2542     7253        /**/
     2543     7254        %EQU MAX_SBIN_DAYS# = 15907;            /* MAX # OF DAYS THAT FITS IN SBIN    */
     2544     7255        /**/
     2545     7256        /*  LOCAL STATIC  */
     2546     7257        /**/
     2547     7258    1   DCL TO_RET_UTS UBIN WORD STATIC;        /* Local copy of RET_UTS              */
     2548     7259    1   DCL TMP UBIN STATIC;
     2549     7260    1   DCL DATE# CHAR(8) STATIC;
     2550     7261    1   DCL DAYS# SBIN WORD STATIC;
PL6.E3A0      #027=VPD$PROCESS_DATE File=VPD$UTIL.:E05TSI                        WED 07/30/97 07:54 Page:665
     2551     7262        %FPT_TIME(FPTN = FPT_MAKE_UTS,
     2552     7263                  STCLASS = STATIC,
     2553     7264                  SOURCE = LOCAL,
     2554     7265                  DATE = DATE#,
     2555     7266                  DEST = UTS,
     2556     7267                  TSTAMP = TO_RET_UTS);
     2557     7286        /**/
     2558     7287    1           DATE_TYPE = DATE$ -> OUT$BLK.CODE;

   7287 11 000002   200003 470500                    LDP0    @DATE$,,AUTO
        11 000003   000000 471500                    LDP1    0,,PR0
        11 000004   100000 236100                    LDQ     0,,PR1
        11 000005   777777 376007                    ANQ     -1,DL
        11 000006   200004 473500                    LDP3    @DATE_TYPE,,AUTO
        11 000007   300000 756100                    STQ     0,,PR3

     2559     7288    2           DO CASE(DATE_TYPE);

   7288 11 000010   000007 116007                    CMPQ    7,DL
        11 000011   000013 602006 11                 TNC     s:7288+3,QL
        11 000012   000225 710000 11                 TRA     s:7319
        11 000013   000225 710000 11                 TRA     s:7319
        11 000014   000022 710000 11                 TRA     s:7290
        11 000015   000077 710000 11                 TRA     s:7299
        11 000016   000102 710000 11                 TRA     s:7301
        11 000017   000104 710000 11                 TRA     s:7303
        11 000020   000022 710000 11                 TRA     s:7290
        11 000021   000107 710000 11                 TRA     s:7305

     2560     7289    2            CASE(1,5);                     /* + or -  displacement               */

     2561     7290    2              CALL VPD$TEXTC_CHARBIN(DAYS#,

   7290 11 000022   000000 471500                    LDP1    0,,PR0
        11 000023   100003 474500                    LDP4    3,,PR1
        11 000024   000001 236000 12                 LDQ     1
        11 000025   200012 756100                    STQ     @ROUND_CODE+4,,AUTO
PL6.E3A0      #027=VPD$PROCESS_DATE File=VPD$UTIL.:E05TSI                        WED 07/30/97 07:54 Page:666
        11 000026   400003 631500                    EPPR1   3,,PR4
        11 000027   200011 451500                    STP1    @ROUND_CODE+3,,AUTO
        11 000030   000002 236000 12                 LDQ     2
        11 000031   200010 756100                    STQ     @ROUND_CODE+2,,AUTO
        11 000032   200010 630500                    EPPR0   @ROUND_CODE+2,,AUTO
        11 000033   000021 631400 xsym               EPPR1   B_VECTNIL+17
        11 000034   000000 701000 xent               TSX1    VPD$TEXTC_CHARBIN
        11 000035   000304 702000 11                 TSX2    BAD_DATE

     2562     7291    2                DATE$ -> OUT$BLK.SUBLK$(0) -> OUT$BLK.SUBLK$(0),
     2563     7292    2                %MAX_SBIN_DAYS#) ALTRET (BAD_DATE);
     2564     7293    2              IF DATE_TYPE = 1

   7293 11 000036   200004 470500                    LDP0    @DATE_TYPE,,AUTO
        11 000037   000000 235100                    LDA     0,,PR0
        11 000040   000001 115007                    CMPA    1,DL
        11 000041   000060 601000 11                 TNZ     s:7297

     2565     7294    2               THEN                        /* '+' Increment                      */
     2566     7295    2                 CALL XUD$UTS_ADJ_25TH (TO_RET_UTS, NOW_UTS, DAYS#*%UTS_25TH_DAY#)
              7295                          ALTRET (BAD_DATE);

   7295 11 000042   000004 236000 10                 LDQ     DAYS#
        11 000043   000003 402000 12                 MPY     3
        11 000044   200010 756100                    STQ     @ROUND_CODE+2,,AUTO
        11 000045   200010 631500                    EPPR1   @ROUND_CODE+2,,AUTO
        11 000046   200013 451500                    STP1    @ROUND_CODE+5,,AUTO
        11 000047   000004 236000 12                 LDQ     4
        11 000050   200012 756100                    STQ     @ROUND_CODE+4,,AUTO
        11 000051   000005 236000 12                 LDQ     5
        11 000052   200011 756100                    STQ     @ROUND_CODE+3,,AUTO
        11 000053   200011 630500                    EPPR0   @ROUND_CODE+3,,AUTO
        11 000054   000021 631400 xsym               EPPR1   B_VECTNIL+17
        11 000055   000000 701000 xent               TSX1    XUD$UTS_ADJ_25TH
        11 000056   000304 702000 11                 TSX2    BAD_DATE
        11 000057   000225 710000 11                 TRA     s:7319

PL6.E3A0      #027=VPD$PROCESS_DATE File=VPD$UTIL.:E05TSI                        WED 07/30/97 07:54 Page:667
     2567     7296    2               ELSE                        /* '-' Increment                      */
     2568     7297    2                 CALL XUD$UTS_ADJ_25TH(TO_RET_UTS, NOW_UTS, -DAYS#*%UTS_25TH_DAY#)
              7297                          ALTRET (BAD_DATE);

   7297 11 000060   000000 236003                    LDQ     0,DU
        11 000061   000004 136000 10                 SBLQ    DAYS#
        11 000062   000003 402000 12                 MPY     3
        11 000063   200010 756100                    STQ     @ROUND_CODE+2,,AUTO
        11 000064   200010 631500                    EPPR1   @ROUND_CODE+2,,AUTO
        11 000065   200013 451500                    STP1    @ROUND_CODE+5,,AUTO
        11 000066   000004 236000 12                 LDQ     4
        11 000067   200012 756100                    STQ     @ROUND_CODE+4,,AUTO
        11 000070   000005 236000 12                 LDQ     5
        11 000071   200011 756100                    STQ     @ROUND_CODE+3,,AUTO
        11 000072   200011 630500                    EPPR0   @ROUND_CODE+3,,AUTO
        11 000073   000021 631400 xsym               EPPR1   B_VECTNIL+17
        11 000074   000000 701000 xent               TSX1    XUD$UTS_ADJ_25TH
        11 000075   000304 702000 11                 TSX2    BAD_DATE
        11 000076   000225 710000 11                 TRA     s:7319

     2569     7298    2            CASE(2);                       /* TODAY                              */

     2570     7299    2              TO_RET_UTS = NOW_UTS;        /* Get current UTS time               */

   7299 11 000077   000000 235000 xsym               LDA     NOW_UTS
        11 000100   000000 755000 10                 STA     TO_RET_UTS
        11 000101   000225 710000 11                 TRA     s:7319

     2571     7300    2            CASE(3);                       /* NEVER                              */

     2572     7301    2              TO_RET_UTS = 0;              /* DO NOTHING FOR 'NEVER'             */

   7301 11 000102   000000 450000 10                 STZ     TO_RET_UTS
        11 000103   000225 710000 11                 TRA     s:7319

     2573     7302    2            CASE(4);                       /* NOW                                */

PL6.E3A0      #027=VPD$PROCESS_DATE File=VPD$UTIL.:E05TSI                        WED 07/30/97 07:54 Page:668
     2574     7303    2              TO_RET_UTS = NOW_UTS;        /* Get current UTS time               */

   7303 11 000104   000000 235000 xsym               LDA     NOW_UTS
        11 000105   000000 755000 10                 STA     TO_RET_UTS
        11 000106   000225 710000 11                 TRA     s:7319

     2575     7304    2            CASE(6);                       /* Specific dd/dd/dd date             */

     2576     7305    2              CALL CONCAT(DATE#,

   7305 11 000107   000000 471500                    LDP1    0,,PR0
        11 000110   100003 474500                    LDP4    3,,PR1
        11 000111   400003 475500                    LDP5    3,,PR4
        11 000112   000100 101500                    MRL     fill='000'O
        11 000113   500000 000001                    ADSC9   0,,PR5                   cn=0,n=1
        11 000114   200010 000002                    ADSC9   @ROUND_CODE+2,,AUTO      cn=0,n=2
        11 000115   200010 220100                    LDX0    @ROUND_CODE+2,,AUTO
        11 000116   000000 471500                    LDP1    0,,PR0
        11 000117   100004 474500                    LDP4    4,,PR1
        11 000120   400003 476500                    LDP6    3,,PR4
        11 000121   000100 101500                    MRL     fill='000'O
        11 000122   600000 000001                    ADSC9   0,,PR6                   cn=0,n=1
        11 000123   200011 000002                    ADSC9   @ROUND_CODE+3,,AUTO      cn=0,n=2
        11 000124   200011 221100                    LDX1    @ROUND_CODE+3,,AUTO
        11 000125   000000 471500                    LDP1    0,,PR0
        11 000126   100005 474500                    LDP4    5,,PR1
        11 000127   400003 477500                    LDP7    3,,PR4
        11 000130   000100 101500                    MRL     fill='000'O
        11 000131   700000 000001                    ADSC9   0,,PR7                   cn=0,n=1
        11 000132   200012 000002                    ADSC9   @ROUND_CODE+4,,AUTO      cn=0,n=2
        11 000133   200012 222100                    LDX2    @ROUND_CODE+4,,AUTO
        11 000134   040000 100540                    MLR     fill='040'O
        11 000135   500000 200010                    ADSC9   0,,PR5                   cn=1,n=*X0
        11 000136   000002 000010 10                 ADSC9   DATE#                    cn=0,n=8
        11 000137   000000 636010                    EAQ     0,X0
        11 000140   000022 772000                    QRL     18
        11 000141   000010 116007                    CMPQ    8,DL
PL6.E3A0      #027=VPD$PROCESS_DATE File=VPD$UTIL.:E05TSI                        WED 07/30/97 07:54 Page:669
        11 000142   000221 603000 11                 TRC     s:7317
        11 000143   200013 740100                    STX0    @ROUND_CODE+5,,AUTO
        11 000144   777767 620010                    EAX0    -9,X0
        11 000145   777777 660003                    ERX0    -1,DU
        11 000146   200013 235100                    LDA     @ROUND_CODE+5,,AUTO
        11 000147   000022 771000                    ARL     18
        11 000150   040045 100400                    MLR     fill='040'O
        11 000151   000006 000001 12                 ADSC9   6                        cn=0,n=1
        11 000152   000002 000010 10                 ADSC9   DATE#,A                  cn=0,n=*X0
        11 000153   200013 236100                    LDQ     @ROUND_CODE+5,,AUTO
        11 000154   000022 772000                    QRL     18
        11 000155   000007 116007                    CMPQ    7,DL
        11 000156   000221 603000 11                 TRC     s:7317
        11 000157   777770 620006                    EAX0    -8,QL
        11 000160   777777 660003                    ERX0    -1,DU
        11 000161   040046 100540                    MLR     fill='040'O
        11 000162   600000 200011                    ADSC9   0,,PR6                   cn=1,n=*X1
        11 000163   000002 200010 10                 ADSC9   DATE#,Q                  cn=1,n=*X0
        11 000164   000000 635011                    EAA     0,X1
        11 000165   000022 771000                    ARL     18
        11 000166   200014 755100                    STA     @ROUND_CODE+6,,AUTO
        11 000167   200014 036100                    ADLQ    @ROUND_CODE+6,,AUTO
        11 000170   000007 116007                    CMPQ    7,DL
        11 000171   000221 603000 11                 TRC     s:7317
        11 000172   000000 635011                    EAA     0,X1
        11 000173   000022 771000                    ARL     18
        11 000174   200015 755100                    STA     @ROUND_CODE+7,,AUTO
        11 000175   200016 756100                    STQ     @ROUND_CODE+8,,AUTO
        11 000176   200013 236100                    LDQ     @ROUND_CODE+5,,AUTO
        11 000177   000022 772000                    QRL     18
        11 000200   200015 036100                    ADLQ    @ROUND_CODE+7,,AUTO
        11 000201   200016 723100                    LXL3    @ROUND_CODE+8,,AUTO
        11 000202   777770 623013                    EAX3    -8,X3
        11 000203   777777 663003                    ERX3    -1,DU
        11 000204   040046 100400                    MLR     fill='040'O
        11 000205   000006 000001 12                 ADSC9   6                        cn=0,n=1
        11 000206   000002 200013 10                 ADSC9   DATE#,Q                  cn=1,n=*X3
PL6.E3A0      #027=VPD$PROCESS_DATE File=VPD$UTIL.:E05TSI                        WED 07/30/97 07:54 Page:670
        11 000207   200017 756100                    STQ     @ROUND_CODE+9,,AUTO
        11 000210   200016 236100                    LDQ     @ROUND_CODE+8,,AUTO
        11 000211   000006 116007                    CMPQ    6,DL
        11 000212   000221 603000 11                 TRC     s:7317
        11 000213   777771 624006                    EAX4    -7,QL
        11 000214   777777 664003                    ERX4    -1,DU
        11 000215   200017 235100                    LDA     @ROUND_CODE+9,,AUTO
        11 000216   040045 100540                    MLR     fill='040'O
        11 000217   700000 200012                    ADSC9   0,,PR7                   cn=1,n=*X2
        11 000220   000002 400014 10                 ADSC9   DATE#,A                  cn=2,n=*X4

     2577     7306    2                DATE$ -> OUT$BLK.SUBLK$(0) ->
     2578     7307    2                OUT$BLK.SUBLK$(0) ->
     2579     7308    2                TEXT$C.STRING,
     2580     7309    2                '/',
     2581     7310    2                DATE$ -> OUT$BLK.SUBLK$(1) ->
     2582     7311    2                OUT$BLK.SUBLK$(0) ->
     2583     7312    2                TEXT$C.STRING,
     2584     7313    2                '/',
     2585     7314    2                DATE$ -> OUT$BLK.SUBLK$(2) ->
     2586     7315    2                OUT$BLK.SUBLK$(0) ->
     2587     7316    2                TEXT$C.STRING);
     2588     7317    2              CALL M$TIME(FPT_MAKE_UTS) ALTRET(BAD_DATE);

   7317 11 000221   000006 630400 10                 EPPR0   FPT_MAKE_UTS
        11 000222   420004 713400                    CLIMB   alt,+8196
        11 000223   402000 401760                    pmme    nvectors=5
        11 000224   000304 702000 11                 TSX2    BAD_DATE

     2589     7318    2            END;                           /* END CASE                           */

     2590     7319    1           RET_UTS = TO_RET_UTS;

   7319 11 000225   200005 470500                    LDP0    @RET_UTS,,AUTO
        11 000226   000000 235000 10                 LDA     TO_RET_UTS
        11 000227   000000 755100                    STA     0,,PR0

PL6.E3A0      #027=VPD$PROCESS_DATE File=VPD$UTIL.:E05TSI                        WED 07/30/97 07:54 Page:671
     2591     7320    1           IF DATE_TYPE = 4                /* NOW                                */

   7320 11 000230   200004 471500                    LDP1    @DATE_TYPE,,AUTO
        11 000231   100000 235100                    LDA     0,,PR1
        11 000232   000004 115007                    CMPA    4,DL
        11 000233   000240 601000 11                 TNZ     s:7324

     2592     7321    1            THEN
     2593     7322    1              ROUND_CODE = 1;              /* No truncation                      */

   7322 11 000234   000001 236007                    LDQ     1,DL
        11 000235   200006 473500                    LDP3    @ROUND_CODE,,AUTO
        11 000236   300000 756100                    STQ     0,,PR3
        11 000237   000242 710000 11                 TRA     s:7324+2

     2594     7323    1            ELSE
     2595     7324    1              ROUND_CODE = 0;              /* Truncate to beginning of day       */

   7324 11 000240   200006 473500                    LDP3    @ROUND_CODE,,AUTO
        11 000241   300000 450100                    STZ     0,,PR3
        11 000242   000245 710000 11                 TRA     s:7328

     2596     7325        /**/
     2597     7326    1   VPD$ROUND_DATE: ENTRY(DATE$,DATE_TYPE,RET_UTS,ROUND_CODE) ALTRET;

   7326 11 000243   000000 700200 xent  VPD$ROUND_D* TSX0  ! X66_AUTO_4
        11 000244   000020 000004                    ZERO    16,4

     2598     7327        /**/
     2599     7328    2           DO CASE(ROUND_CODE);

   7328 11 000245   200006 470500                    LDP0    @ROUND_CODE,,AUTO
        11 000246   000000 235100                    LDA     0,,PR0
        11 000247   000001 115007                    CMPA    1,DL
        11 000250   000252 602005 11                 TNC     s:7328+5,AL
        11 000251   000303 710000 11                 TRA     s:7337
        11 000252   000253 710000 11                 TRA     s:7330
PL6.E3A0      #027=VPD$PROCESS_DATE File=VPD$UTIL.:E05TSI                        WED 07/30/97 07:54 Page:672

     2600     7329    2            CASE(0);                       /* Truncate to beginning of day       */

     2601     7330    2              CALL XUD$UTS_DIFF_25TH(TMP,RET_UTS,0);

   7330 11 000253   000007 236000 12                 LDQ     7
        11 000254   200012 756100                    STQ     @ROUND_CODE+4,,AUTO
        11 000255   200005 236100                    LDQ     @RET_UTS,,AUTO
        11 000256   000010 235000 12                 LDA     8
        11 000257   200010 757100                    STAQ    @ROUND_CODE+2,,AUTO
        11 000260   200010 630500                    EPPR0   @ROUND_CODE+2,,AUTO
        11 000261   000021 631400 xsym               EPPR1   B_VECTNIL+17
        11 000262   000000 701000 xent               TSX1    XUD$UTS_DIFF_25TH
        11 000263   000000 011000                    NOP     0

     2602     7331    2              TMP = (TMP/%UTS_25TH_DAY#) * %UTS_25TH_DAY#;
              7331                       /* truncate to beginning of day */

   7331 11 000264   000001 236000 10                 LDQ     TMP
        11 000265   000001 772000                    QRL     1
        11 000266   000011 506000 12                 DIV     9
        11 000267   000003 402000 12                 MPY     3
        11 000270   000001 756000 10                 STQ     TMP

     2603     7332    2              CALL XUD$UTS_ADJ_25TH (RET_UTS,0,TMP);

   7332 11 000271   000010 236000 12                 LDQ     8
        11 000272   200012 756100                    STQ     @ROUND_CODE+4,,AUTO
        11 000273   000007 236000 12                 LDQ     7
        11 000274   200005 235100                    LDA     @RET_UTS,,AUTO
        11 000275   200010 757100                    STAQ    @ROUND_CODE+2,,AUTO
        11 000276   200010 630500                    EPPR0   @ROUND_CODE+2,,AUTO
        11 000277   000021 631400 xsym               EPPR1   B_VECTNIL+17
        11 000300   000000 701000 xent               TSX1    XUD$UTS_ADJ_25TH
        11 000301   000000 011000                    NOP     0
        11 000302   000303 710000 11                 TRA     s:7337

PL6.E3A0      #027=VPD$PROCESS_DATE File=VPD$UTIL.:E05TSI                        WED 07/30/97 07:54 Page:673
     2604     7333    2            CASE(1);                       /* Leave it alone!                    */

     2605     7334    2              ;
     2606     7335    2            END;

     2607     7336        /**/
     2608     7337    1           RETURN;

   7337 11 000303   000000 702200 xent               TSX2  ! X66_ARET

     2609     7338
     2610     7339    1   BAD_DATE: RET_UTS = 0;                  /* Error, return a date of zero       */

   7339 11 000304   200005 470500       BAD_DATE     LDP0    @RET_UTS,,AUTO
        11 000305   000000 450100                    STZ     0,,PR0

     2611     7340    1           DATE_TYPE = 0;

   7340 11 000306   200004 471500                    LDP1    @DATE_TYPE,,AUTO
        11 000307   100000 450100                    STZ     0,,PR1

     2612     7341    1           ALTRETURN;

   7341 11 000310   000000 702200 xent               TSX2  ! X66_AALT
     2613     7342
     2614     7343    1   END VPD$PROCESS_DATE;
     2615     7344        %EOD;

PL6.E3A0      #027=VPD$PROCESS_DATE File=VPD$UTIL.:E05TSI                        WED 07/30/97 07:54 Page:674
--  Include file information  --

   XUD_UTS_M.:E05TOU  is referenced.
   B_MICROPS_C.:E05TOU  is referenced.
   XU_MACRO_C.:E05TOU  is referenced.
   VP_MACRO_C.:E05TOU  is referenced.
   XS_MACRO_C.:E05TOU  is referenced.
   VP_PERR_C.:E05TOU  is referenced.
   CP_6_SUBS.:E05TOU  is referenced.
   CP_6.:E05TOU  cannot be made into a system file and is referenced.
   VP_DATA_R.:E05TOU  cannot be made into a system file and is referenced.
   B$JIT_C.:E05TOU  was found in the system file and is never referenced.
   CP_6_C.:E05TOU  was found in the system file and is referenced.
      No diagnostics issued in procedure VPD$PROCESS_DATE.
PL6.E3A0      #027=VPD$PROCESS_DATE File=VPD$UTIL.:E05TSI                        WED 07/30/97 07:54 Page:675

 **** Variables and constants ****

  ****  Section 010  Data  VPD$PROCESS_DATE

  ****  Scalars and arrays  ****
OctLoc.c.b A Datatyp(siz) R M Lvl/name                 OctLoc.c.b A Datatyp(siz) R M Lvl/name

     2-0-0/c CHAR(8)     r     1 DATE#                      4-0-0/w SBIN        r     1 DAYS#
     6-0-0/d STRC(432)   r     1 FPT_MAKE_UTS               1-0-0/w UBIN        r     1 TMP
     0-0-0/w UBIN        r     1 TO_RET_UTS

  ****  Auto variables  ****

  ****  Scalars and arrays  ****
OctLoc.c.b A Datatyp(siz) R M Lvl/name                 OctLoc.c.b A Datatyp(siz) R M Lvl/name

     3-0-0/w PTR         r     1 @DATE$                     4-0-0/w PTR         r     1 @DATE_TYPE
     5-0-0/w PTR         r     1 @RET_UTS                   6-0-0/w PTR         r     1 @ROUND_CODE
    *0-0-0/w PTR         r     1 DATE$                     *0-0-0/w UBIN        r     1 DATE_TYPE
    *0-0-0/w UBIN        r     1 RET_UTS                   *0-0-0/w UBIN        r     1 ROUND_CODE

  ****  SYMREF variables  ****

  ****  Scalars and arrays  ****
OctLoc.c.b A Datatyp(siz) R M Lvl/name                 OctLoc.c.b A Datatyp(siz) R M Lvl/name

     0-0-0/w EPTR        r     1 BREAK_MESSAGE_REPORTER
     0-0-0/w UBIN        r     1 NOW_UTS

  ****  BASED and DCB variables  ****

  ****  Scalars and arrays  ****
OctLoc.c.b A Datatyp(siz) R M Lvl/name                 OctLoc.c.b A Datatyp(siz) R M Lvl/name

     0-0-0/w STRC(144)   r     1 OUT$BLK                    0-0-0/w ASTR(153)   r     1 OUT$SYM
     0-0-0/c ASTR(9)     r     1 TEXT$C

PL6.E3A0      #027=VPD$PROCESS_DATE File=VPD$UTIL.:E05TSI                        WED 07/30/97 07:54 Page:676

   Procedure VPD$PROCESS_DATE requires 201 words for executable code.
   Procedure VPD$PROCESS_DATE requires 16 words of local(AUTO) storage.
PL6.E3A0      #027=VPD$PROCESS_DATE File=VPD$UTIL.:E05TSI                        WED 07/30/97 07:54 Page:677
          *** CROSS REFERENCE LISTING ***
**     DENOTES     IDENTIFIER DEFINITION
<<                 IDENTIFIER'S VALUE SET
>>                 IDENTIFIER'S VALUE USED
<>                 IDENTIFIER SET AND/OR USED
--                 IDENTIFIER REFERENCED
PL6.E3A0      #027=VPD$PROCESS_DATE File=VPD$UTIL.:E05TSI                        WED 07/30/97 07:54 Page:678
          MINI XREF LISTING

BAD_DATE
      7339**LABEL    7290--CALLALT  7295--CALLALT  7297--CALLALT  7317--CALLALT
BREAK_LOC
      5246**DCL      5246--REDEF
DATE#
      7260**DCL      7278--DCLINIT  7279--DCLINIT  7305<<CALLBLT
DATE$
      7155**DCL         6--PROC     7287>>ASSIGN   7290>>CALL     7305>>CALLBLT  7305>>CALLBLT  7305>>CALLBLT
      7305>>CALLBLT  7305>>CALLBLT  7305>>CALLBLT  7326--ENTRY
DATE_TYPE
      7156**DCL         6--PROC     7287<<ASSIGN   7288>>DOCASE   7293>>IF       7320>>IF       7326--ENTRY
      7340<<ASSIGN
DAYS#
      7261**DCL      7290<>CALL     7295>>CALL     7297>>CALL
DEF_ICB.FID.STRING
      5844**DCL      5845--REDEF
DEV_ICB.FID.STRING
      5730**DCL      5731--REDEF
EI_KEY.KEY
      5942**DCL      5942--REDEF    5942--REDEF    5942--REDEF
EO_OCB.TYPE
      5442**DCL      5443--REDEF
FPT_CLOSE_EI.SN_
      6783**DCL      6783--REDEF
FPT_CLOSE_EI.UTL_
      6784**DCL      6784--REDEF
FPT_CLOSE_EI.V.EXPIRE#
      6798**DCL      6798--REDEF
FPT_CLOSE_EI.V.TYPE#
      6796**DCL      6796--REDEF
FPT_CLOSE_EI.V.XTNSIZE#
      6793**DCL      6793--REDEF    6795--REDEF
PL6.E3A0      #027=VPD$PROCESS_DATE File=VPD$UTIL.:E05TSI                        WED 07/30/97 07:54 Page:679
FPT_CLOSE_PTL.SN_
      6909**DCL      6909--REDEF
FPT_CLOSE_PTL.UTL_
      6910**DCL      6910--REDEF
FPT_CLOSE_PTL.V.EXPIRE#
      6924**DCL      6924--REDEF
FPT_CLOSE_PTL.V.TYPE#
      6922**DCL      6922--REDEF
FPT_CLOSE_PTL.V.XTNSIZE#
      6919**DCL      6919--REDEF    6921--REDEF
FPT_CLOSE_READ.SN_
      6825**DCL      6825--REDEF
FPT_CLOSE_READ.UTL_
      6826**DCL      6826--REDEF
FPT_CLOSE_READ.V.EXPIRE#
      6840**DCL      6840--REDEF
FPT_CLOSE_READ.V.TYPE#
      6838**DCL      6838--REDEF
FPT_CLOSE_READ.V.XTNSIZE#
      6835**DCL      6835--REDEF    6837--REDEF
FPT_CLOSE_SI.SN_
      6993**DCL      6993--REDEF
FPT_CLOSE_SI.UTL_
      6994**DCL      6994--REDEF
FPT_CLOSE_SI.V.EXPIRE#
      7008**DCL      7008--REDEF
FPT_CLOSE_SI.V.TYPE#
      7006**DCL      7006--REDEF
FPT_CLOSE_SI.V.XTNSIZE#
      7003**DCL      7003--REDEF    7005--REDEF
FPT_CLOSE_STD.SN_
      6951**DCL      6951--REDEF
FPT_CLOSE_STD.UTL_
      6952**DCL      6952--REDEF
FPT_CLOSE_STD.V.EXPIRE#
      6966**DCL      6966--REDEF
PL6.E3A0      #027=VPD$PROCESS_DATE File=VPD$UTIL.:E05TSI                        WED 07/30/97 07:54 Page:680
FPT_CLOSE_STD.V.TYPE#
      6964**DCL      6964--REDEF
FPT_CLOSE_STD.V.XTNSIZE#
      6961**DCL      6961--REDEF    6963--REDEF
FPT_CLSEI_FT.SN_
      6867**DCL      6867--REDEF
FPT_CLSEI_FT.UTL_
      6868**DCL      6868--REDEF
FPT_CLSEI_FT.V.EXPIRE#
      6882**DCL      6882--REDEF
FPT_CLSEI_FT.V.TYPE#
      6880**DCL      6880--REDEF
FPT_CLSEI_FT.V.XTNSIZE#
      6877**DCL      6877--REDEF    6879--REDEF
FPT_MAKE_UTS
      7278**DCL      7317<>CALL
FPT_MAKE_UTS.V
      7282**DCL      7278--DCLINIT
FPT_OPEN_EI.ACSVEH_
      6438**DCL      6439--REDEF
FPT_OPEN_EI.ALTKEYS_
      6444**DCL      6445--REDEF    6445--REDEF
FPT_OPEN_EI.HDR_
      6443**DCL      6444--REDEF
FPT_OPEN_EI.TAB_
      6442**DCL      6443--REDEF
FPT_OPEN_EI.UHL_
      6436**DCL      6437--REDEF    6437--REDEF
FPT_OPEN_EI.V.FSN#
      6476**DCL      6476--REDEF    6476--REDEF
FPT_OPEN_EI.WSN_
      6442**DCL      6442--REDEF
FPT_OPEN_EI_SAVE.ACSVEH_
      6547**DCL      6548--REDEF
FPT_OPEN_EI_SAVE.ALTKEYS_
      6553**DCL      6554--REDEF    6554--REDEF
PL6.E3A0      #027=VPD$PROCESS_DATE File=VPD$UTIL.:E05TSI                        WED 07/30/97 07:54 Page:681
FPT_OPEN_EI_SAVE.HDR_
      6552**DCL      6553--REDEF
FPT_OPEN_EI_SAVE.TAB_
      6551**DCL      6552--REDEF
FPT_OPEN_EI_SAVE.UHL_
      6545**DCL      6546--REDEF    6546--REDEF
FPT_OPEN_EI_SAVE.V.FSN#
      6585**DCL      6585--REDEF    6585--REDEF
FPT_OPEN_EI_SAVE.WSN_
      6551**DCL      6551--REDEF
FPT_OPEN_OUT.ACSVEH_
      6329**DCL      6330--REDEF
FPT_OPEN_OUT.ALTKEYS_
      6335**DCL      6336--REDEF    6336--REDEF
FPT_OPEN_OUT.HDR_
      6334**DCL      6335--REDEF
FPT_OPEN_OUT.TAB_
      6333**DCL      6334--REDEF
FPT_OPEN_OUT.UHL_
      6327**DCL      6328--REDEF    6328--REDEF
FPT_OPEN_OUT.V.FSN#
      6367**DCL      6367--REDEF    6367--REDEF
FPT_OPEN_OUT.WSN_
      6333**DCL      6333--REDEF
FPT_OPEN_OUT_SAVE.ACSVEH_
      6220**DCL      6221--REDEF
FPT_OPEN_OUT_SAVE.ALTKEYS_
      6226**DCL      6227--REDEF    6227--REDEF
FPT_OPEN_OUT_SAVE.HDR_
      6225**DCL      6226--REDEF
FPT_OPEN_OUT_SAVE.TAB_
      6224**DCL      6225--REDEF
FPT_OPEN_OUT_SAVE.UHL_
      6218**DCL      6219--REDEF    6219--REDEF
FPT_OPEN_OUT_SAVE.V.FSN#
      6258**DCL      6258--REDEF    6258--REDEF
PL6.E3A0      #027=VPD$PROCESS_DATE File=VPD$UTIL.:E05TSI                        WED 07/30/97 07:54 Page:682
FPT_OPEN_OUT_SAVE.WSN_
      6224**DCL      6224--REDEF
FPT_READ_STD.STATION_
      6648**DCL      6649--REDEF
FPT_READ_STD.V.DVBYTE.REREAD#
      6660**DCL      6660--REDEF
FPT_READ_STD.V.INDX#
      6658**DCL      6658--REDEF
FPT_READ_UC.STATION_
      6609**DCL      6610--REDEF
FPT_READ_UC.V.DVBYTE.REREAD#
      6621**DCL      6621--REDEF
FPT_READ_UC.V.INDX#
      6619**DCL      6619--REDEF
FPT_WRITE_ME.STATION_
      6717**DCL      6717--REDEF
FPT_WRITE_ME.V.DVBYTE.VFC#
      6724**DCL      6724--REDEF
FPT_WRITE_OUT.STATION_
      6748**DCL      6748--REDEF
FPT_WRITE_OUT.V.DVBYTE.VFC#
      6755**DCL      6755--REDEF
FPT_WRITE_UC.STATION_
      6686**DCL      6686--REDEF
FPT_WRITE_UC.V.DVBYTE.VFC#
      6693**DCL      6693--REDEF
FROM_SN.SN
      5592**DCL      5593--REDEF
GETCMD.OUT$
      4799**DCL      4805--REDEF
ICB.FID.STRING
      5616**DCL      5617--REDEF
IFSFA_PARAM.EOMCHAR#
      5971**DCL      5972--REDEF
IFSFA_PARAM.SIG1
      5965**DCL      5965--REDEF
PL6.E3A0      #027=VPD$PROCESS_DATE File=VPD$UTIL.:E05TSI                        WED 07/30/97 07:54 Page:683
IFSFA_PARAM.SIG2
      5965**DCL      5966--REDEF
IN_RES
      5538**DCL      5538--REDEF
IN_SN.SN
      5554**DCL      5555--REDEF
M$TIME
       123**DCL-ENT  7317--CALL
NOW_UTS
      5245**DCL      7295<>CALL     7297<>CALL     7299>>ASSIGN   7303>>ASSIGN
OCB.TYPE
      5300**DCL      5301--REDEF
OFSFA_PARAM.EOMCHAR#
      6001**DCL      6002--REDEF
OFSFA_PARAM.SIG1
      5995**DCL      5995--REDEF
OFSFA_PARAM.SIG2
      5995**DCL      5996--REDEF
OUT$BLK.CODE
      7175**DCL      7287>>ASSIGN
OUT$BLK.SUBLK$
      7200**DCL      7290>>CALL     7290<>CALL     7305>>CALLBLT  7305>>CALLBLT  7305>>CALLBLT  7305>>CALLBLT
      7305>>CALLBLT  7305>>CALLBLT  7305>>CALLBLT  7305>>CALLBLT  7305>>CALLBLT  7305>>CALLBLT  7305>>CALLBLT
      7305>>CALLBLT
OUT$SYM.COUNT
      7236**DCL      7239--IMP-SIZ
OUT_SN.SN
      5572**DCL      5573--REDEF
RET_UTS
      7154**DCL         6--PROC     7319<<ASSIGN   7326--ENTRY    7330<>CALL     7332<>CALL     7339<<ASSIGN
ROUND_CODE
      7157**DCL         6--PROC     7322<<ASSIGN   7324<<ASSIGN   7326--ENTRY    7328>>DOCASE
SPEC_BUF
      5250**DCL      5250--REDEF
TEXT$C.LEN
      7245**DCL      7246--IMP-SIZ  7305>>CALLBLT  7305>>CALLBLT  7305>>CALLBLT
PL6.E3A0      #027=VPD$PROCESS_DATE File=VPD$UTIL.:E05TSI                        WED 07/30/97 07:54 Page:684
TEXT$C.STRING
      7246**DCL      7305>>CALLBLT  7305>>CALLBLT  7305>>CALLBLT
TMP
      7259**DCL      7330<>CALL     7331<<ASSIGN   7331>>ASSIGN   7332<>CALL
TO_RET_UTS
      7258**DCL      7282--DCLINIT  7295<>CALL     7297<>CALL     7299<<ASSIGN   7301<<ASSIGN   7303<<ASSIGN
      7319>>ASSIGN
VPD$TEXTC_CHARBIN
      7250**DCL-ENT  7290--CALL
XUD$UTS_ADJ_25TH
      7133**DCL-ENT  7295--CALL     7297--CALL     7332--CALL
XUD$UTS_DIFF_25TH
      7121**DCL-ENT  7330--CALL

PL6.E3A0      #028=VPD$TEXTC_CHARBIN File=VPD$UTIL.:E05TSI                       WED 07/30/97 07:57 Page:685
     2616        1        /*T***********************************************************/
     2617        2        /*T*                                                         */
     2618        3        /*T* Copyright (c) Bull HN Information Systems Inc., 1997    */
     2619        4        /*T*                                                         */
     2620        5        /*T***********************************************************/
     2621        6        VPD$TEXTC_CHARBIN: PROC(BIN_NUM,TEXTC$,MAX_NUM,SIGN_FIELD_) ALTRET;
     2622        7        /*D* NAME: VPD$TEXTC_CHARBIN
     2623        8             CALL: CALL VPD$TEXTC_CHARBIN(BIN_NUM,TEXTC$,MAX_NUM,SIGN_FIELD_);
     2624        9             DESCRIPTION: This procedure takes a pointer to a TEXTC structure
     2625       10                          and performs a CHARBIN on it with a UBIN WORD destination.
     2626       11                          If the TEXTC string contains a number which is either
     2627       12                          larger than 2^36 -1 or a passed limit, this procedure
     2628       13                          ALTRETURNS.
     2629       14
     2630       15                          BIN_NUM = UBIN WORD receiving field
     2631       16                          TEXTC$ = PTR to the TEXTC representation of the number
     2632       17                          MAX_NUM = UBIN WORD for highest allowable number
     2633       18                          MAX_NUM = UBIN WORD for highest allowable number
     2634       19                          SIGN_FIELD_ = SBIN WORD (OPTIONAL).  Returns 1 if
     2635       20                            the sign character was absent or '+'.  A -1 is
     2636       21                            returned for a sign of '-'.
     2637       22        */
     2638       23        /**/
     2639       24        /*  PARAMETERS  */
     2640       25        /**/
     2641       26    1   DCL BIN_NUM UBIN WORD ALIGNED;
     2642       27    1   DCL TEXTC$ PTR;
     2643       28    1   DCL MAX_NUM UBIN WORD;
     2644       29    1   DCL SIGN_FIELD_ SBIN WORD;
     2645       30    1   DCL I SBIN WORD;
     2646       31        /**/
     2647       32        /*  BASED DATA  */
     2648       33        /**/
     2649       34    1   DCL NUM$TEXT CHAR(NUM_LEN) BASED(NUM$);
     2650       35    1   DCL 1 TEXT$C BASED,
     2651       36    1         2 LEN UBIN BYTE UNAL,
     2652       37    1         2 STRING CHAR(TEXT$C.LEN);
PL6.E3A0      #028=VPD$TEXTC_CHARBIN File=VPD$UTIL.:E05TSI                       WED 07/30/97 07:57 Page:686
     2653       38        /**/
     2654       39        /*  LOCAL AUTO  */
     2655       40        /**/
     2656       41    1   DCL SIGN_FIELD SBIN WORD;
     2657       42    1   DCL NUM_LEN SBIN WORD;
     2658       43    1   DCL NUM$ PTR;
     2659       44        /**/
     2660       45    1           NUM_LEN = TEXTC$ -> TEXT$C.LEN;
     2661       46    1           NUM$ = PINCRC(TEXTC$,1);
     2662       47        /**/
     2663       48    1           SIGN_FIELD = 1;
     2664       49    1           IF SUBSTR(NUM$TEXT,0,1) = '-'
     2665       50    1            THEN
     2666       51    2            DO;
     2667       52    2               SIGN_FIELD = -1;
     2668       53    2               GOTO GOT_SIGN;
     2669       54    2               END;
     2670       55    1           IF SUBSTR(NUM$TEXT,0,1) = '+'
     2671       56    1            THEN
     2672       57    2            DO;
     2673       58    2   GOT_SIGN:   NUM_LEN = NUM_LEN -1;
     2674       59    2               NUM$ = PINCRC(NUM$,1);
     2675       60    2               END;
     2676       61    1           CALL INDEX(I,'+',NUM$TEXT);
     2677       62    1           IF I < NUM_LEN
     2678       63    1            THEN
     2679       64    1              GOTO BAD_NUM;
     2680       65    1           CALL INDEX(I,'-',NUM$TEXT);
     2681       66    1           IF I < NUM_LEN
     2682       67    1            THEN
     2683       68    1              GOTO BAD_NUM;
     2684       69        /**/
     2685       70    1           IF NUM_LEN > 11
     2686       71    1             OR (NUM_LEN = 11 AND NUM$TEXT > '68719476735')
     2687       72    1            THEN
     2688       73    1              GOTO BAD_NUM;
     2689       74    1           CALL CHARBIN(BIN_NUM,NUM$TEXT);
PL6.E3A0      #028=VPD$TEXTC_CHARBIN File=VPD$UTIL.:E05TSI                       WED 07/30/97 07:57 Page:687
     2690       75        /**/
     2691       76    1           IF ADDR(SIGN_FIELD_) ~= ADDR(NIL)
     2692       77    1            THEN
     2693       78    1              SIGN_FIELD_ = SIGN_FIELD;
     2694       79    1           IF BIN_NUM>MAX_NUM
     2695       80    1            THEN
     2696       81    1              GOTO BAD_NUM;
     2697       82    1           RETURN;
     2698       83        /**/
     2699       84    1   BAD_NUM: ;
     2700       85    1           ALTRETURN;
     2701       86        /**/
     2702       87    1   END VPD$TEXTC_CHARBIN;
     2703       88        %EOD;

PL6.E3A0      #028=VPD$TEXTC_CHARBIN File=VPD$UTIL.:E05TSI                       WED 07/30/97 07:57 Page:688
--  Include file information  --

   B$JIT_C.:E05TOU  was found in the system file and is never referenced.
   CP_6_C.:E05TOU  was found in the system file and is never referenced.
      No diagnostics issued in procedure VPD$TEXTC_CHARBIN.

   Procedure VPD$TEXTC_CHARBIN requires 71 words for executable code.
   Procedure VPD$TEXTC_CHARBIN requires 14 words of local(AUTO) storage.

PL6.E3A0      #028=VPD$TEXTC_CHARBIN File=VPD$UTIL.:E05TSI                       WED 07/30/97 07:57 Page:689

 Object Unit name= VPD$TEXTC_CHARBIN                          File name= VPD$UTIL.:E05TOU
 UTS= JUL 30 '97 07:57:02.56 WED                              Compiler= PL-6/E31         Sev=      00
 SharedLib= :SHARED_SYSTEM                                    Alt SharedLib=


    ****  Control sections  ****

 Sect   Type Bound  Init  Size OctSiz  Section name(segment info)
    0  RoData even  UTS      3      3  VPD$TEXTC_CHARBIN
    1   Proc  even  none    71    107  VPD$TEXTC_CHARBIN
    2  RoData even  none     2      2  VPD$TEXTC_CHARBIN

    ****  Entry defs  ****

                              Check   Calling
                             calling  sequence
  Sect OctLoc Primary Altret sequence   type   Parms  Name
     1      0   yes    yes     yes      Std        4  VPD$TEXTC_CHARBIN

  ****  Entry refs  ****

         Check        Calling
        calling       sequence
Altret sequence SRef   type   Args  Name
                       nStd      0 X66_AUTO_4
                       Std       0 B_CONSPOOL_D
                       nStd      0 X66_ARET
                       nStd      0 X66_AALT

  ****  Data refs  ****

  Flags:  r = read only, s = secondary
Flgs Name                             Flgs Name                             Flgs Name
     B_VECTNIL
PL6.E3A0      #028=VPD$TEXTC_CHARBIN File=VPD$UTIL.:E05TSI                       WED 07/30/97 07:57 Page:690


     2616        1        /*T***********************************************************/
     2617        2        /*T*                                                         */
     2618        3        /*T* Copyright (c) Bull HN Information Systems Inc., 1997    */
     2619        4        /*T*                                                         */
     2620        5        /*T***********************************************************/
     2621        6        VPD$TEXTC_CHARBIN: PROC(BIN_NUM,TEXTC$,MAX_NUM,SIGN_FIELD_) ALTRET;

      6  1 000000   000000 700200 xent  VPD$TEXTC_C* TSX0  ! X66_AUTO_4
         1 000001   000016 000004                    ZERO    14,4

     2622        7        /*D* NAME: VPD$TEXTC_CHARBIN
     2623        8             CALL: CALL VPD$TEXTC_CHARBIN(BIN_NUM,TEXTC$,MAX_NUM,SIGN_FIELD_);
     2624        9             DESCRIPTION: This procedure takes a pointer to a TEXTC structure
     2625       10                          and performs a CHARBIN on it with a UBIN WORD destination.
     2626       11                          If the TEXTC string contains a number which is either
     2627       12                          larger than 2^36 -1 or a passed limit, this procedure
     2628       13                          ALTRETURNS.
     2629       14
     2630       15                          BIN_NUM = UBIN WORD receiving field
     2631       16                          TEXTC$ = PTR to the TEXTC representation of the number
     2632       17                          MAX_NUM = UBIN WORD for highest allowable number
     2633       18                          MAX_NUM = UBIN WORD for highest allowable number
     2634       19                          SIGN_FIELD_ = SBIN WORD (OPTIONAL).  Returns 1 if
     2635       20                            the sign character was absent or '+'.  A -1 is
     2636       21                            returned for a sign of '-'.
     2637       22        */
     2638       23        /**/
     2639       24        /*  PARAMETERS  */
     2640       25        /**/
     2641       26    1   DCL BIN_NUM UBIN WORD ALIGNED;
     2642       27    1   DCL TEXTC$ PTR;
     2643       28    1   DCL MAX_NUM UBIN WORD;
     2644       29    1   DCL SIGN_FIELD_ SBIN WORD;
     2645       30    1   DCL I SBIN WORD;
     2646       31        /**/
     2647       32        /*  BASED DATA  */
PL6.E3A0      #028=VPD$TEXTC_CHARBIN File=VPD$UTIL.:E05TSI                       WED 07/30/97 07:57 Page:691
     2648       33        /**/
     2649       34    1   DCL NUM$TEXT CHAR(NUM_LEN) BASED(NUM$);
     2650       35    1   DCL 1 TEXT$C BASED,
     2651       36    1         2 LEN UBIN BYTE UNAL,
     2652       37    1         2 STRING CHAR(TEXT$C.LEN);
     2653       38        /**/
     2654       39        /*  LOCAL AUTO  */
     2655       40        /**/
     2656       41    1   DCL SIGN_FIELD SBIN WORD;
     2657       42    1   DCL NUM_LEN SBIN WORD;
     2658       43    1   DCL NUM$ PTR;
     2659       44        /**/
     2660       45    1           NUM_LEN = TEXTC$ -> TEXT$C.LEN;

     45  1 000002   200004 470500                    LDP0    @TEXTC$,,AUTO
         1 000003   000000 471500                    LDP1    0,,PR0
         1 000004   000100 101500                    MRL     fill='000'O
         1 000005   100000 000001                    ADSC9   0,,PR1                   cn=0,n=1
         1 000006   200011 000004                    ADSC9   NUM_LEN,,AUTO            cn=0,n=4

     2661       46    1           NUM$ = PINCRC(TEXTC$,1);

     46  1 000007   000000 236100                    LDQ     0,,PR0
         1 000010   200000 036007                    ADLQ    65536,DL
         1 000011   200012 756100                    STQ     NUM$,,AUTO

     2662       47        /**/
     2663       48    1           SIGN_FIELD = 1;

     48  1 000012   000001 235007                    LDA     1,DL
         1 000013   200010 755100                    STA     SIGN_FIELD,,AUTO

     2664       49    1           IF SUBSTR(NUM$TEXT,0,1) = '-'

     49  1 000014   200012 473500                    LDP3    NUM$,,AUTO
         1 000015   040000 106500                    CMPC    fill='040'O
         1 000016   300000 000001                    ADSC9   0,,PR3                   cn=0,n=1
PL6.E3A0      #028=VPD$TEXTC_CHARBIN File=VPD$UTIL.:E05TSI                       WED 07/30/97 07:57 Page:692
         1 000017   000000 000001 2                  ADSC9   0                        cn=0,n=1
         1 000020   000024 601000 1                  TNZ     s:55

     2665       50    1            THEN
     2666       51    2            DO;

     2667       52    2               SIGN_FIELD = -1;

     52  1 000021   000001 335007                    LCA     1,DL
         1 000022   200010 755100                    STA     SIGN_FIELD,,AUTO

     2668       53    2               GOTO GOT_SIGN;

     53  1 000023   000030 710000 1                  TRA     GOT_SIGN

     2669       54    2               END;
     2670       55    1           IF SUBSTR(NUM$TEXT,0,1) = '+'

     55  1 000024   040000 106500                    CMPC    fill='040'O
         1 000025   300000 000001                    ADSC9   0,,PR3                   cn=0,n=1
         1 000026   000001 000001 2                  ADSC9   1                        cn=0,n=1
         1 000027   000035 601000 1                  TNZ     s:61

     2671       56    1            THEN
     2672       57    2            DO;

     2673       58    2   GOT_SIGN:   NUM_LEN = NUM_LEN -1;

     58  1 000030   000001 336007       GOT_SIGN     LCQ     1,DL
         1 000031   200011 056100                    ASQ     NUM_LEN,,AUTO

     2674       59    2               NUM$ = PINCRC(NUM$,1);

     59  1 000032   200012 236100                    LDQ     NUM$,,AUTO
         1 000033   200000 036007                    ADLQ    65536,DL
         1 000034   200012 756100                    STQ     NUM$,,AUTO

PL6.E3A0      #028=VPD$TEXTC_CHARBIN File=VPD$UTIL.:E05TSI                       WED 07/30/97 07:57 Page:693
     2675       60    2               END;

     2676       61    1           CALL INDEX(I,'+',NUM$TEXT);

     61  1 000035   200012 473500                    LDP3    NUM$,,AUTO
         1 000036   200011 720100                    LXL0    NUM_LEN,,AUTO
         1 000037   000000 124540                    SCM     mask='000'O
         1 000040   300000 000010                    ADSC9   0,,PR3                   cn=0,n=*X0
         1 000041   000001 000001 2                  ADSC9   1                        cn=0,n=1
         1 000042   200007 000100                    ARG     I,,AUTO

     2677       62    1           IF I < NUM_LEN

     62  1 000043   200007 236100                    LDQ     I,,AUTO
         1 000044   200011 116100                    CMPQ    NUM_LEN,,AUTO
         1 000045   000106 604000 1                  TMI     BAD_NUM

     2678       63    1            THEN
     2679       64    1              GOTO BAD_NUM;
     2680       65    1           CALL INDEX(I,'-',NUM$TEXT);

     65  1 000046   000000 124540                    SCM     mask='000'O
         1 000047   300000 000010                    ADSC9   0,,PR3                   cn=0,n=*X0
         1 000050   000000 000001 2                  ADSC9   0                        cn=0,n=1
         1 000051   200007 000100                    ARG     I,,AUTO

     2681       66    1           IF I < NUM_LEN

     66  1 000052   200007 236100                    LDQ     I,,AUTO
         1 000053   200011 116100                    CMPQ    NUM_LEN,,AUTO
         1 000054   000106 604000 1                  TMI     BAD_NUM

     2682       67    1            THEN
     2683       68    1              GOTO BAD_NUM;
     2684       69        /**/
     2685       70    1           IF NUM_LEN > 11

PL6.E3A0      #028=VPD$TEXTC_CHARBIN File=VPD$UTIL.:E05TSI                       WED 07/30/97 07:57 Page:694
     70  1 000055   200011 235100                    LDA     NUM_LEN,,AUTO
         1 000056   000013 115007                    CMPA    11,DL
         1 000057   000106 605400 1                  TPNZ    BAD_NUM
         1 000060   000065 601000 1                  TNZ     s:74
         1 000061   040140 106400                    CMPC    fill='040'O
         1 000062   000000 000013 0                  ADSC9   0                        cn=0,n=11
         1 000063   300000 000010                    ADSC9   0,,PR3                   cn=0,n=*X0
         1 000064   000106 602000 1                  TNC     BAD_NUM

     2686       71    1             OR (NUM_LEN = 11 AND NUM$TEXT > '68719476735')
     2687       72    1            THEN
     2688       73    1              GOTO BAD_NUM;
     2689       74    1           CALL CHARBIN(BIN_NUM,NUM$TEXT);

     74  1 000065   000100 305540                    DTB
         1 000066   300000 030010                    NDSC9   0,,PR3                   cn=0,s=nosgn,sf=0,n=*X0
         1 000067   200014 000010                    NDSC9   NUM$+2,,AUTO             cn=0,s=lsgnf,sf=0,n=8
         1 000070   200003 471500                    LDP1    @BIN_NUM,,AUTO
         1 000071   200015 235100                    LDA     NUM$+3,,AUTO
         1 000072   100000 755100                    STA     0,,PR1

     2690       75        /**/
     2691       76    1           IF ADDR(SIGN_FIELD_) ~= ADDR(NIL)

     76  1 000073   200006 236100                    LDQ     @SIGN_FIELD_,,AUTO
         1 000074   000001 116000 xsym               CMPQ    B_VECTNIL+1
         1 000075   000101 600000 1                  TZE     s:79

     2692       77    1            THEN
     2693       78    1              SIGN_FIELD_ = SIGN_FIELD;

     78  1 000076   200006 474500                    LDP4    @SIGN_FIELD_,,AUTO
         1 000077   200010 235100                    LDA     SIGN_FIELD,,AUTO
         1 000100   400000 755100                    STA     0,,PR4

     2694       79    1           IF BIN_NUM>MAX_NUM

PL6.E3A0      #028=VPD$TEXTC_CHARBIN File=VPD$UTIL.:E05TSI                       WED 07/30/97 07:57 Page:695
     79  1 000101   200005 474500                    LDP4    @MAX_NUM,,AUTO
         1 000102   400000 236100                    LDQ     0,,PR4
         1 000103   100000 116100                    CMPQ    0,,PR1
         1 000104   000106 602000 1                  TNC     BAD_NUM

     2695       80    1            THEN
     2696       81    1              GOTO BAD_NUM;
     2697       82    1           RETURN;

     82  1 000105   000000 702200 xent               TSX2  ! X66_ARET

     79  1 000106                       BAD_NUM      null
     2698       83        /**/
     2699       84    1   BAD_NUM: ;
     2700       85    1           ALTRETURN;

     85  1 000106   000000 702200 xent               TSX2  ! X66_AALT
     2701       86        /**/
     2702       87    1   END VPD$TEXTC_CHARBIN;
     2703       88        %EOD;

PL6.E3A0      #028=VPD$TEXTC_CHARBIN File=VPD$UTIL.:E05TSI                       WED 07/30/97 07:57 Page:696
--  Include file information  --

   B$JIT_C.:E05TOU  was found in the system file and is never referenced.
   CP_6_C.:E05TOU  was found in the system file and is never referenced.
      No diagnostics issued in procedure VPD$TEXTC_CHARBIN.
PL6.E3A0      #028=VPD$TEXTC_CHARBIN File=VPD$UTIL.:E05TSI                       WED 07/30/97 07:57 Page:697

 **** Variables and constants ****

  ****  Auto variables  ****

  ****  Scalars and arrays  ****
OctLoc.c.b A Datatyp(siz) R M Lvl/name                 OctLoc.c.b A Datatyp(siz) R M Lvl/name

     3-0-0/w PTR         r     1 @BIN_NUM                   5-0-0/w PTR         r     1 @MAX_NUM
     6-0-0/w PTR         r     1 @SIGN_FIELD_               4-0-0/w PTR         r     1 @TEXTC$
    *0-0-0/w UBIN        r     1 BIN_NUM                    7-0-0/w SBIN        r     1 I
    *0-0-0/w UBIN        r     1 MAX_NUM                   12-0-0/w PTR         r     1 NUM$
    11-0-0/w SBIN        r     1 NUM_LEN                   10-0-0/w SBIN        r     1 SIGN_FIELD
    *0-0-0/w SBIN        r     1 SIGN_FIELD_               *0-0-0/w PTR         r     1 TEXTC$

  ****  BASED and DCB variables  ****

  ****  Scalars and arrays  ****
OctLoc.c.b A Datatyp(siz) R M Lvl/name                 OctLoc.c.b A Datatyp(siz) R M Lvl/name

     0-0-0/c ACHR        r     1 NUM$TEXT                   0-0-0/c ASTR(9)     r     1 TEXT$C


   Procedure VPD$TEXTC_CHARBIN requires 71 words for executable code.
   Procedure VPD$TEXTC_CHARBIN requires 14 words of local(AUTO) storage.
PL6.E3A0      #028=VPD$TEXTC_CHARBIN File=VPD$UTIL.:E05TSI                       WED 07/30/97 07:57 Page:698
          *** CROSS REFERENCE LISTING ***
**     DENOTES     IDENTIFIER DEFINITION
<<                 IDENTIFIER'S VALUE SET
>>                 IDENTIFIER'S VALUE USED
<>                 IDENTIFIER SET AND/OR USED
--                 IDENTIFIER REFERENCED
PL6.E3A0      #028=VPD$TEXTC_CHARBIN File=VPD$UTIL.:E05TSI                       WED 07/30/97 07:57 Page:699
          MINI XREF LISTING

BAD_NUM
        79**LABEL      64--GOTO       68--GOTO       73--GOTO       81--GOTO
BIN_NUM
        26**DCL         6--PROC       74<<CALLBLT    79>>IF
GOT_SIGN
        58**LABEL      53--GOTO
I
        30**DCL        61<<CALLBLT    62>>IF         65<<CALLBLT    66>>IF
MAX_NUM
        28**DCL         6--PROC       79>>IF
NUM$
        43**DCL        34--IMP-PTR    46<<ASSIGN     49>>IF         55>>IF         59<<ASSIGN     59>>ASSIGN
        61>>CALLBLT    65>>CALLBLT    70>>IF         74>>CALLBLT
NUM$TEXT
        34**DCL        49>>IF         55>>IF         61>>CALLBLT    65>>CALLBLT    70>>IF         74>>CALLBLT
NUM_LEN
        42**DCL        34--IMP-SIZ    45<<ASSIGN     49>>IF         55>>IF         58<<ASSIGN     58>>ASSIGN
        61>>CALLBLT    62>>IF         65>>CALLBLT    66>>IF         70>>IF         70>>IF         70>>IF
        74>>CALLBLT
SIGN_FIELD
        41**DCL        48<<ASSIGN     52<<ASSIGN     78>>ASSIGN
SIGN_FIELD_
        29**DCL         6--PROC       76--IF         78<<ASSIGN
TEXT$C.LEN
        36**DCL        37--IMP-SIZ    45>>ASSIGN
TEXTC$
        27**DCL         6--PROC       45>>ASSIGN     46>>ASSIGN

PL6.E3A0      #029=VPD$U$ File=VPD$UTIL.:E05TSI                                  WED 07/30/97 07:57 Page:700
     2704        1        /*T***********************************************************/
     2705        2        /*T*                                                         */
     2706        3        /*T* Copyright (c) Bull HN Information Systems Inc., 1997    */
     2707        4        /*T*                                                         */
     2708        5        /*T***********************************************************/
     2709        6        VPD$U$: PROC(PARSE_PARAM);
     2710        7        /*D* NAME: VPD$U$
     2711        8             CALL: CALL VPD$U$(PARSE_PARAM);
     2712        9                    where PARSE_PARAM is a structure defined by macro PARSE$PARAM.
     2713       10             DESCRIPTION: This procedure is called by X$PARSE for various functions
     2714       11                          and special conditions.
     2715       12        */
     2716       13        %INCLUDE XU_SUBS_C;
     2717      105        %INCLUDE VP_DATA_R;
     2718     7092        %PARSE$PARAM(NAME  = PARSE_PARAM,STCLASS=);
     2719     7173        %PARSE$OUT(NAME = OUT$BLK,STCLASS = BASED);
     2720     7218        %PARSE$SYM(NAME = OUT$SYM,STCLASS = BASED);
     2721     7256    1   DCL KEYWORD_LEN SBIN WORD STATIC;
     2722     7257    1   DCL VPD$GET_INPUT ENTRY(1);
     2723     7258    2           DO SELECT(PARSE_PARAM.TYPE);
     2724     7259    2              SELECT(%INPUT#);             /* Input line needs continuation      */
     2725     7260    2              CALL VPD$GET_INPUT(PARSE_PARAM.CHARPOS);
     2726     7261    2              SELECT(%SUCC#);              /* Successfully parsed a verb!        */
     2727     7262    2              HELP_ERR_CODE.CODE = VP$OFFERHELP; /* Offer him HELP on a '?'      */
     2728     7263    2              HELP_KEYWORD.NAME# = SUBSTR(PARSE_IN_BUF,0);
     2729     7264    2              CALL INDEX(KEYWORD_LEN,' ',HELP_KEYWORD.NAME#);
     2730     7265    2              HELP_KEYWORD.L# = KEYWORD_LEN;
     2731     7266    2              SUCCESS_NODE = '1'B;
     2732     7267    2              SELECT(%PRE#);               /* Before parsing a chunk of text     */
     2733     7268    2              END;
     2734     7269    1           RETURN;
     2735     7270    1   END VPD$U$;
     2736     7271        %EOD;

PL6.E3A0      #029=VPD$U$ File=VPD$UTIL.:E05TSI                                  WED 07/30/97 07:57 Page:701
--  Include file information  --

   B_MICROPS_C.:E05TOU  is referenced.
   XU_MACRO_C.:E05TOU  is referenced.
   VP_MACRO_C.:E05TOU  is referenced.
   XS_MACRO_C.:E05TOU  is referenced.
   VP_PERR_C.:E05TOU  is referenced.
   CP_6_SUBS.:E05TOU  is referenced.
   CP_6.:E05TOU  cannot be made into a system file and is referenced.
   VP_DATA_R.:E05TOU  cannot be made into a system file and is referenced.
   XU_SUBS_C.:E05TOU  is referenced.
   B$JIT_C.:E05TOU  was found in the system file and is never referenced.
   CP_6_C.:E05TOU  was found in the system file and is referenced.
      No diagnostics issued in procedure VPD$U$.

   Procedure VPD$U$ requires 43 words for executable code.
   Procedure VPD$U$ requires 6 words of local(AUTO) storage.

PL6.E3A0      #029=VPD$U$ File=VPD$UTIL.:E05TSI                                  WED 07/30/97 07:57 Page:702

 Object Unit name= VPD$U$                                     File name= VPD$UTIL.:E05TOU
 UTS= JUL 30 '97 07:57:13.52 WED                              Compiler= PL-6/E31         Sev=      00
 SharedLib= :SHARED_SYSTEM                                    Alt SharedLib=


    ****  Control sections  ****

 Sect   Type Bound  Init  Size OctSiz  Section name(segment info)
    0   DCB   even  none     0      0  M$UC
    1   DCB   even  none     0      0  M$EI
    2   DCB   even  none     0      0  M$EO
    3   DCB   even  none     0      0  M$EO1
    4   DCB   even  none     0      0  M$ME
    5   DCB   even  none     0      0  M$SI
    6   DCB   even  none     0      0  M$READFILE
    7   DCB   even  none     0      0  M$DO
    8   DCB   even  none     0      0  M$STD1
    9   DCB   even  none     0      0  M$SORT1
   10   Data  even  none     1      1  VPD$U$
   11   Proc  even  none    43     53  VPD$U$
   12  RoData even  none     1      1  VPD$U$

    ****  Entry defs  ****

                              Check   Calling
                             calling  sequence
  Sect OctLoc Primary Altret sequence   type   Parms  Name
    11      0   yes            yes      Std        1  VPD$U$
PL6.E3A0      #029=VPD$U$ File=VPD$UTIL.:E05TSI                                  WED 07/30/97 07:57 Page:703

  ****  Entry refs  ****

         Check        Calling
        calling       sequence
Altret sequence SRef   type   Args  Name
         yes           Std       1 VPD$GET_INPUT
                       nStd      0 X66_AUTO_1
                       Std       0 B_CONSPOOL_D
                       nStd      0 X66_ARET

  ****  Data refs  ****

  Flags:  r = read only, s = secondary
Flgs Name                             Flgs Name                             Flgs Name
     M$UC                                  PARSE_IN_BUF                          SUCCESS_NODE
     HELP_ERR_CODE                         HELP_KEYWORD                          BREAK_LOC
     BREAK_MESSAGE_REPORTER                SPEC_BUF                              IN_RES
     M$EI                                  M$EO                                  M$EO1
     M$ME                                  M$SI                                  M$READFILE
     M$DO                                  M$STD1                                M$SORT1
     B_VECTNIL
PL6.E3A0      #029=VPD$U$ File=VPD$UTIL.:E05TSI                                  WED 07/30/97 07:57 Page:704


     2704        1        /*T***********************************************************/
     2705        2        /*T*                                                         */
     2706        3        /*T* Copyright (c) Bull HN Information Systems Inc., 1997    */
     2707        4        /*T*                                                         */
     2708        5        /*T***********************************************************/
     2709        6        VPD$U$: PROC(PARSE_PARAM);

      6 11 000000   000000 700200 xent  VPD$U$       TSX0  ! X66_AUTO_1
        11 000001   000006 000001                    ZERO    6,1

     2710        7        /*D* NAME: VPD$U$
     2711        8             CALL: CALL VPD$U$(PARSE_PARAM);
     2712        9                    where PARSE_PARAM is a structure defined by macro PARSE$PARAM.
     2713       10             DESCRIPTION: This procedure is called by X$PARSE for various functions
     2714       11                          and special conditions.
     2715       12        */
     2716       13        %INCLUDE XU_SUBS_C;
     2717      105        %INCLUDE VP_DATA_R;
     2718     7092        %PARSE$PARAM(NAME  = PARSE_PARAM,STCLASS=);
     2719     7173        %PARSE$OUT(NAME = OUT$BLK,STCLASS = BASED);
     2720     7218        %PARSE$SYM(NAME = OUT$SYM,STCLASS = BASED);
     2721     7256    1   DCL KEYWORD_LEN SBIN WORD STATIC;
     2722     7257    1   DCL VPD$GET_INPUT ENTRY(1);
     2723     7258    2           DO SELECT(PARSE_PARAM.TYPE);

   7258 11 000002   200003 470500                    LDP0    @PARSE_PARAM,,AUTO
        11 000003   000000 236100                    LDQ     0,,PR0
        11 000004   000033 772000                    QRL     27
        11 000005   000002 116007                    CMPQ    2,DL
        11 000006   000014 602000 11                 TNC     s:7258+10
        11 000007   000031 600000 11                 TZE     s:7262
        11 000010   000033 736000                    QLS     27
        11 000011   004000 116003                    CMPQ    2048,DU
        11 000012   000052 601000 11                 TNZ     s:7269
        11 000013   000021 710000 11                 TRA     s:7260
        11 000014   000000 236100                    LDQ     0,,PR0
PL6.E3A0      #029=VPD$U$ File=VPD$UTIL.:E05TSI                                  WED 07/30/97 07:57 Page:705
        11 000015   777000 376003                    ANQ     -512,DU
        11 000016   001000 116003                    CMPQ    512,DU
        11 000017   000052 601000 11                 TNZ     s:7269
        11 000020   000052 710000 11                 TRA     s:7269

     2724     7259    2              SELECT(%INPUT#);             /* Input line needs continuation      */

     2725     7260    2              CALL VPD$GET_INPUT(PARSE_PARAM.CHARPOS);

   7260 11 000021   200003 236100                    LDQ     @PARSE_PARAM,,AUTO
        11 000022   000004 036003                    ADLQ    4,DU
        11 000023   200004 756100                    STQ     @PARSE_PARAM+1,,AUTO
        11 000024   200004 630500                    EPPR0   @PARSE_PARAM+1,,AUTO
        11 000025   000017 631400 xsym               EPPR1   B_VECTNIL+15
        11 000026   000000 701000 xent               TSX1    VPD$GET_INPUT
        11 000027   000000 011000                    NOP     0
        11 000030   000052 710000 11                 TRA     s:7269

     2726     7261    2              SELECT(%SUCC#);              /* Successfully parsed a verb!        */

     2727     7262    2              HELP_ERR_CODE.CODE = VP$OFFERHELP; /* Offer him HELP on a '?'      */

   7262 11 000031   000000 236000 xsym               LDQ     HELP_ERR_CODE
        11 000032   000000 376000 12                 ANQ     0
        11 000033   012720 276007                    ORQ     5584,DL
        11 000034   000000 756000 xsym               STQ     HELP_ERR_CODE

     2728     7263    2              HELP_KEYWORD.NAME# = SUBSTR(PARSE_IN_BUF,0);

   7263 11 000035   040000 100400                    MLR     fill='040'O
        11 000036   000000 000037 xsym               ADSC9   PARSE_IN_BUF             cn=0,n=31
        11 000037   000000 200037 xsym               ADSC9   HELP_KEYWORD             cn=1,n=31

     2729     7264    2              CALL INDEX(KEYWORD_LEN,' ',HELP_KEYWORD.NAME#);

   7264 11 000040   000000 124400                    SCM     mask='000'O
        11 000041   000000 200037 xsym               ADSC9   HELP_KEYWORD             cn=1,n=31
PL6.E3A0      #029=VPD$U$ File=VPD$UTIL.:E05TSI                                  WED 07/30/97 07:57 Page:706
        11 000042   000035 000001 xsym               ADSC9   B_VECTNIL+29             cn=0,n=1
        11 000043   000000 000000 10                 ARG     KEYWORD_LEN

     2730     7265    2              HELP_KEYWORD.L# = KEYWORD_LEN;

   7265 11 000044   000000 236000 10                 LDQ     KEYWORD_LEN
        11 000045   000033 736000                    QLS     27
        11 000046   000000 552040 xsym               STBQ    HELP_KEYWORD,'40'O

     2731     7266    2              SUCCESS_NODE = '1'B;

   7266 11 000047   400000 236003                    LDQ     -131072,DU
        11 000050   000000 756000 xsym               STQ     SUCCESS_NODE
        11 000051   000052 710000 11                 TRA     s:7269

     2732     7267    2              SELECT(%PRE#);               /* Before parsing a chunk of text     */

     2733     7268    2              END;

     2734     7269    1           RETURN;

   7269 11 000052   000000 702200 xent               TSX2  ! X66_ARET
     2735     7270    1   END VPD$U$;
     2736     7271        %EOD;

PL6.E3A0      #029=VPD$U$ File=VPD$UTIL.:E05TSI                                  WED 07/30/97 07:57 Page:707
--  Include file information  --

   B_MICROPS_C.:E05TOU  is referenced.
   XU_MACRO_C.:E05TOU  is referenced.
   VP_MACRO_C.:E05TOU  is referenced.
   XS_MACRO_C.:E05TOU  is referenced.
   VP_PERR_C.:E05TOU  is referenced.
   CP_6_SUBS.:E05TOU  is referenced.
   CP_6.:E05TOU  cannot be made into a system file and is referenced.
   VP_DATA_R.:E05TOU  cannot be made into a system file and is referenced.
   XU_SUBS_C.:E05TOU  is referenced.
   B$JIT_C.:E05TOU  was found in the system file and is never referenced.
   CP_6_C.:E05TOU  was found in the system file and is referenced.
      No diagnostics issued in procedure VPD$U$.
PL6.E3A0      #029=VPD$U$ File=VPD$UTIL.:E05TSI                                  WED 07/30/97 07:57 Page:708

 **** Variables and constants ****

  ****  Section 010  Data  VPD$U$

  ****  Scalars and arrays  ****
OctLoc.c.b A Datatyp(siz) R M Lvl/name                 OctLoc.c.b A Datatyp(siz) R M Lvl/name

     0-0-0/w SBIN        r     1 KEYWORD_LEN

  ****  Auto variables  ****

  ****  Scalars and arrays  ****
OctLoc.c.b A Datatyp(siz) R M Lvl/name                 OctLoc.c.b A Datatyp(siz) R M Lvl/name

     3-0-0/w PTR         r     1 @PARSE_PARAM              *0-0-0/w STRC(270)   r     1 PARSE_PARAM

  ****  SYMREF variables  ****

  ****  Scalars and arrays  ****
OctLoc.c.b A Datatyp(siz) R M Lvl/name                 OctLoc.c.b A Datatyp(siz) R M Lvl/name

     0-0-0/w EPTR        r     1 BREAK_MESSAGE_REPORTER
     0-0-0/b STRC        r     1 HELP_ERR_CODE              0-0-0/c STRC(288)   r     1 HELP_KEYWORD
     0-0-0/c CHAR(1024)  r     1 PARSE_IN_BUF               0-0-0/b BIT         r     1 SUCCESS_NODE

  ****  BASED and DCB variables  ****

  ****  Scalars and arrays  ****
OctLoc.c.b A Datatyp(siz) R M Lvl/name                 OctLoc.c.b A Datatyp(siz) R M Lvl/name

     0-0-0/w ASTR(153)   r     1 OUT$SYM


   Procedure VPD$U$ requires 43 words for executable code.
   Procedure VPD$U$ requires 6 words of local(AUTO) storage.
PL6.E3A0      #029=VPD$U$ File=VPD$UTIL.:E05TSI                                  WED 07/30/97 07:57 Page:709
          *** CROSS REFERENCE LISTING ***
**     DENOTES     IDENTIFIER DEFINITION
<<                 IDENTIFIER'S VALUE SET
>>                 IDENTIFIER'S VALUE USED
<>                 IDENTIFIER SET AND/OR USED
--                 IDENTIFIER REFERENCED
PL6.E3A0      #029=VPD$U$ File=VPD$UTIL.:E05TSI                                  WED 07/30/97 07:57 Page:710
          MINI XREF LISTING

BREAK_LOC
      5312**DCL      5312--REDEF
DEF_ICB.FID.STRING
      5910**DCL      5911--REDEF
DEV_ICB.FID.STRING
      5796**DCL      5797--REDEF
EI_KEY.KEY
      6008**DCL      6008--REDEF    6008--REDEF    6008--REDEF
EO_OCB.TYPE
      5508**DCL      5509--REDEF
FPT_CLOSE_EI.SN_
      6849**DCL      6849--REDEF
FPT_CLOSE_EI.UTL_
      6850**DCL      6850--REDEF
FPT_CLOSE_EI.V.EXPIRE#
      6864**DCL      6864--REDEF
FPT_CLOSE_EI.V.TYPE#
      6862**DCL      6862--REDEF
FPT_CLOSE_EI.V.XTNSIZE#
      6859**DCL      6859--REDEF    6861--REDEF
FPT_CLOSE_PTL.SN_
      6975**DCL      6975--REDEF
FPT_CLOSE_PTL.UTL_
      6976**DCL      6976--REDEF
FPT_CLOSE_PTL.V.EXPIRE#
      6990**DCL      6990--REDEF
FPT_CLOSE_PTL.V.TYPE#
      6988**DCL      6988--REDEF
FPT_CLOSE_PTL.V.XTNSIZE#
      6985**DCL      6985--REDEF    6987--REDEF
FPT_CLOSE_READ.SN_
      6891**DCL      6891--REDEF
PL6.E3A0      #029=VPD$U$ File=VPD$UTIL.:E05TSI                                  WED 07/30/97 07:57 Page:711
FPT_CLOSE_READ.UTL_
      6892**DCL      6892--REDEF
FPT_CLOSE_READ.V.EXPIRE#
      6906**DCL      6906--REDEF
FPT_CLOSE_READ.V.TYPE#
      6904**DCL      6904--REDEF
FPT_CLOSE_READ.V.XTNSIZE#
      6901**DCL      6901--REDEF    6903--REDEF
FPT_CLOSE_SI.SN_
      7059**DCL      7059--REDEF
FPT_CLOSE_SI.UTL_
      7060**DCL      7060--REDEF
FPT_CLOSE_SI.V.EXPIRE#
      7074**DCL      7074--REDEF
FPT_CLOSE_SI.V.TYPE#
      7072**DCL      7072--REDEF
FPT_CLOSE_SI.V.XTNSIZE#
      7069**DCL      7069--REDEF    7071--REDEF
FPT_CLOSE_STD.SN_
      7017**DCL      7017--REDEF
FPT_CLOSE_STD.UTL_
      7018**DCL      7018--REDEF
FPT_CLOSE_STD.V.EXPIRE#
      7032**DCL      7032--REDEF
FPT_CLOSE_STD.V.TYPE#
      7030**DCL      7030--REDEF
FPT_CLOSE_STD.V.XTNSIZE#
      7027**DCL      7027--REDEF    7029--REDEF
FPT_CLSEI_FT.SN_
      6933**DCL      6933--REDEF
FPT_CLSEI_FT.UTL_
      6934**DCL      6934--REDEF
FPT_CLSEI_FT.V.EXPIRE#
      6948**DCL      6948--REDEF
FPT_CLSEI_FT.V.TYPE#
      6946**DCL      6946--REDEF
PL6.E3A0      #029=VPD$U$ File=VPD$UTIL.:E05TSI                                  WED 07/30/97 07:57 Page:712
FPT_CLSEI_FT.V.XTNSIZE#
      6943**DCL      6943--REDEF    6945--REDEF
FPT_OPEN_EI.ACSVEH_
      6504**DCL      6505--REDEF
FPT_OPEN_EI.ALTKEYS_
      6510**DCL      6511--REDEF    6511--REDEF
FPT_OPEN_EI.HDR_
      6509**DCL      6510--REDEF
FPT_OPEN_EI.TAB_
      6508**DCL      6509--REDEF
FPT_OPEN_EI.UHL_
      6502**DCL      6503--REDEF    6503--REDEF
FPT_OPEN_EI.V.FSN#
      6542**DCL      6542--REDEF    6542--REDEF
FPT_OPEN_EI.WSN_
      6508**DCL      6508--REDEF
FPT_OPEN_EI_SAVE.ACSVEH_
      6613**DCL      6614--REDEF
FPT_OPEN_EI_SAVE.ALTKEYS_
      6619**DCL      6620--REDEF    6620--REDEF
FPT_OPEN_EI_SAVE.HDR_
      6618**DCL      6619--REDEF
FPT_OPEN_EI_SAVE.TAB_
      6617**DCL      6618--REDEF
FPT_OPEN_EI_SAVE.UHL_
      6611**DCL      6612--REDEF    6612--REDEF
FPT_OPEN_EI_SAVE.V.FSN#
      6651**DCL      6651--REDEF    6651--REDEF
FPT_OPEN_EI_SAVE.WSN_
      6617**DCL      6617--REDEF
FPT_OPEN_OUT.ACSVEH_
      6395**DCL      6396--REDEF
FPT_OPEN_OUT.ALTKEYS_
      6401**DCL      6402--REDEF    6402--REDEF
FPT_OPEN_OUT.HDR_
      6400**DCL      6401--REDEF
PL6.E3A0      #029=VPD$U$ File=VPD$UTIL.:E05TSI                                  WED 07/30/97 07:57 Page:713
FPT_OPEN_OUT.TAB_
      6399**DCL      6400--REDEF
FPT_OPEN_OUT.UHL_
      6393**DCL      6394--REDEF    6394--REDEF
FPT_OPEN_OUT.V.FSN#
      6433**DCL      6433--REDEF    6433--REDEF
FPT_OPEN_OUT.WSN_
      6399**DCL      6399--REDEF
FPT_OPEN_OUT_SAVE.ACSVEH_
      6286**DCL      6287--REDEF
FPT_OPEN_OUT_SAVE.ALTKEYS_
      6292**DCL      6293--REDEF    6293--REDEF
FPT_OPEN_OUT_SAVE.HDR_
      6291**DCL      6292--REDEF
FPT_OPEN_OUT_SAVE.TAB_
      6290**DCL      6291--REDEF
FPT_OPEN_OUT_SAVE.UHL_
      6284**DCL      6285--REDEF    6285--REDEF
FPT_OPEN_OUT_SAVE.V.FSN#
      6324**DCL      6324--REDEF    6324--REDEF
FPT_OPEN_OUT_SAVE.WSN_
      6290**DCL      6290--REDEF
FPT_READ_STD.STATION_
      6714**DCL      6715--REDEF
FPT_READ_STD.V.DVBYTE.REREAD#
      6726**DCL      6726--REDEF
FPT_READ_STD.V.INDX#
      6724**DCL      6724--REDEF
FPT_READ_UC.STATION_
      6675**DCL      6676--REDEF
FPT_READ_UC.V.DVBYTE.REREAD#
      6687**DCL      6687--REDEF
FPT_READ_UC.V.INDX#
      6685**DCL      6685--REDEF
FPT_WRITE_ME.STATION_
      6783**DCL      6783--REDEF
PL6.E3A0      #029=VPD$U$ File=VPD$UTIL.:E05TSI                                  WED 07/30/97 07:57 Page:714
FPT_WRITE_ME.V.DVBYTE.VFC#
      6790**DCL      6790--REDEF
FPT_WRITE_OUT.STATION_
      6814**DCL      6814--REDEF
FPT_WRITE_OUT.V.DVBYTE.VFC#
      6821**DCL      6821--REDEF
FPT_WRITE_UC.STATION_
      6752**DCL      6752--REDEF
FPT_WRITE_UC.V.DVBYTE.VFC#
      6759**DCL      6759--REDEF
FROM_SN.SN
      5658**DCL      5659--REDEF
GETCMD.OUT$
      4865**DCL      4871--REDEF
HELP_ERR_CODE.CODE
      5279**DCL      7262<<ASSIGN
HELP_KEYWORD.L#
      5305**DCL      7265<<ASSIGN
HELP_KEYWORD.NAME#
      5305**DCL      7263<<ASSIGN   7264>>CALLBLT
ICB.FID.STRING
      5682**DCL      5683--REDEF
IFSFA_PARAM.EOMCHAR#
      6037**DCL      6038--REDEF
IFSFA_PARAM.SIG1
      6031**DCL      6031--REDEF
IFSFA_PARAM.SIG2
      6031**DCL      6032--REDEF
IN_RES
      5604**DCL      5604--REDEF
IN_SN.SN
      5620**DCL      5621--REDEF
KEYWORD_LEN
      7256**DCL      7264<<CALLBLT  7265>>ASSIGN
OCB.TYPE
      5366**DCL      5367--REDEF
PL6.E3A0      #029=VPD$U$ File=VPD$UTIL.:E05TSI                                  WED 07/30/97 07:57 Page:715
OFSFA_PARAM.EOMCHAR#
      6067**DCL      6068--REDEF
OFSFA_PARAM.SIG1
      6061**DCL      6061--REDEF
OFSFA_PARAM.SIG2
      6061**DCL      6062--REDEF
OUT$SYM.COUNT
      7248**DCL      7251--IMP-SIZ
OUT_SN.SN
      5638**DCL      5639--REDEF
PARSE_IN_BUF
      4646**DCL      7263>>ASSIGN
PARSE_PARAM
      7111**DCL         6--PROC
PARSE_PARAM.CHARPOS
      7149**DCL      7260<>CALL
PARSE_PARAM.TYPE
      7112**DCL      7258>>DOSELCT
SPEC_BUF
      5316**DCL      5316--REDEF
SUCCESS_NODE
      4647**DCL      7266<<ASSIGN
VPD$GET_INPUT
      7257**DCL-ENT  7260--CALL

PL6.E3A0      #030=VPD$WILD_COMPARE File=VPD$UTIL.:E05TSI                        WED 07/30/97 07:58 Page:716
     2737        1        /*T***********************************************************/
     2738        2        /*T*                                                         */
     2739        3        /*T* Copyright (c) Bull HN Information Systems Inc., 1997    */
     2740        4        /*T*                                                         */
     2741        5        /*T***********************************************************/
     2742        6        VPD$WILD_COMPARE: PROC(PATTERN,TRIAL) ALTRET;
     2743        7        /*D* NAME: VPD$WILD_COMPARE
     2744        8             CALL: CALL VPD$WILD_COMPARE(PATTERN,TRIAL)
     2745        9             DESCRIPTION: This procedure uses X$WILDCMP to compare the PATTERN
     2746       10                          string with the TRIAL string.  It ALTRETURNs if
     2747       11                          X$WILDCMP ALTRETURNs.
     2748       12
     2749       13        */
     2750       14        %INCLUDE VP_MACRO_C;
     2751      528        %INCLUDE XUW_MACRO_C;
     2752      663        %INCLUDE XU_PERR_C;
     2753      854        %XUW_WILDCARD;
     2754      950        %XUW_ENTRIES;
     2755      962    1   DCL 1 PATTERN,                          /* TEXTC of wildcard template         */
     2756      963    1         2 LEN UBIN(9) UNAL,
     2757      964    1         2 TEXT CHAR(31) UNAL;
     2758      965    1   DCL 1 TRIAL,                            /* TEXTC of TRIAL against wildcard    */
     2759      966    1         2 LEN UBIN(9) UNAL,
     2760      967    1         2 TEXT CHAR(31) UNAL;
     2761      968        /**/
     2762      969    1           XUW_WILDCARD.PATTERN_ = VECTOR(SUBSTR(PATTERN.TEXT,0,PATTERN.LEN));
     2763      970    1           XUW_WILDCARD.INPUT_ = VECTOR(SUBSTR(TRIAL.TEXT,0,TRIAL.LEN));
     2764      971    1           CALL X$WILDCMP(XUW_WILDCARD)
     2765      972    2            WHENALTRETURN DO;
     2766      973    2               ALTRETURN;
     2767      974    2               END;
     2768      975    1           RETURN;
     2769      976    1   END VPD$WILD_COMPARE;

PL6.E3A0      #030=VPD$WILD_COMPARE File=VPD$UTIL.:E05TSI                        WED 07/30/97 07:58 Page:717
--  Include file information  --

   XU_PERR_C.:E05TOU  is referenced.
   XUW_MACRO_C.:E05TOU  is referenced.
   VP_MACRO_C.:E05TOU  is referenced.
   B$JIT_C.:E05TOU  was found in the system file and is never referenced.
   CP_6_C.:E05TOU  was found in the system file and is never referenced.
      No diagnostics issued in procedure VPD$WILD_COMPARE.

   Procedure VPD$WILD_COMPARE requires 31 words for executable code.
   Procedure VPD$WILD_COMPARE requires 8 words of local(AUTO) storage.

    No errors detected in file VPD$UTIL.:E05TSI    .

PL6.E3A0      #030=VPD$WILD_COMPARE File=VPD$UTIL.:E05TSI                        WED 07/30/97 07:58 Page:718

 Object Unit name= VPD$WILD_COMPARE                           File name= VPD$UTIL.:E05TOU
 UTS= JUL 30 '97 07:58:51.88 WED                              Compiler= PL-6/E31         Sev=      00
 SharedLib= :SHARED_SYSTEM                                    Alt SharedLib=


    ****  Control sections  ****

 Sect   Type Bound  Init  Size OctSiz  Section name(segment info)
    0   Data  even  none    12     14  VPD$WILD_COMPARE
    1   Proc  even  none    31     37  VPD$WILD_COMPARE
    2  RoData even  none     1      1  VPD$WILD_COMPARE

    ****  Entry defs  ****

                              Check   Calling
                             calling  sequence
  Sect OctLoc Primary Altret sequence   type   Parms  Name
     1      0   yes    yes     yes      Std        2  VPD$WILD_COMPARE

  ****  Entry refs  ****

         Check        Calling
        calling       sequence
Altret sequence SRef   type   Args  Name
 yes     yes           Std       1 X$WILDCMP
                       nStd      0 X66_AUTO_2
                       Std       0 B_CONSPOOL_D
                       nStd      0 X66_AALT
                       nStd      0 X66_ARET

  ****  Data refs  ****

  Flags:  r = read only, s = secondary
Flgs Name                             Flgs Name                             Flgs Name
     B_VECTNIL
PL6.E3A0      #030=VPD$WILD_COMPARE File=VPD$UTIL.:E05TSI                        WED 07/30/97 07:58 Page:719

  ****  Segment refs  ****

  Flags:  r = read only, s = secondary
Flgs Name                             Flgs Name                             Flgs Name
     NULLSID                               ISSID
PL6.E3A0      #030=VPD$WILD_COMPARE File=VPD$UTIL.:E05TSI                        WED 07/30/97 07:58 Page:720


     2737        1        /*T***********************************************************/
     2738        2        /*T*                                                         */
     2739        3        /*T* Copyright (c) Bull HN Information Systems Inc., 1997    */
     2740        4        /*T*                                                         */
     2741        5        /*T***********************************************************/
     2742        6        VPD$WILD_COMPARE: PROC(PATTERN,TRIAL) ALTRET;

      6  1 000000   000000 700200 xent  VPD$WILD_CO* TSX0  ! X66_AUTO_2
         1 000001   000010 000002                    ZERO    8,2

     2743        7        /*D* NAME: VPD$WILD_COMPARE
     2744        8             CALL: CALL VPD$WILD_COMPARE(PATTERN,TRIAL)
     2745        9             DESCRIPTION: This procedure uses X$WILDCMP to compare the PATTERN
     2746       10                          string with the TRIAL string.  It ALTRETURNs if
     2747       11                          X$WILDCMP ALTRETURNs.
     2748       12
     2749       13        */
     2750       14        %INCLUDE VP_MACRO_C;
     2751      528        %INCLUDE XUW_MACRO_C;
     2752      663        %INCLUDE XU_PERR_C;
     2753      854        %XUW_WILDCARD;
     2754      950        %XUW_ENTRIES;
     2755      962    1   DCL 1 PATTERN,                          /* TEXTC of wildcard template         */
     2756      963    1         2 LEN UBIN(9) UNAL,
     2757      964    1         2 TEXT CHAR(31) UNAL;
     2758      965    1   DCL 1 TRIAL,                            /* TEXTC of TRIAL against wildcard    */
     2759      966    1         2 LEN UBIN(9) UNAL,
     2760      967    1         2 TEXT CHAR(31) UNAL;
     2761      968        /**/
     2762      969    1           XUW_WILDCARD.PATTERN_ = VECTOR(SUBSTR(PATTERN.TEXT,0,PATTERN.LEN));

    969  1 000002   200003 470500                    LDP0    @PATTERN,,AUTO
         1 000003   000100 101500                    MRL     fill='000'O
         1 000004   000000 000001                    ADSC9   0,,PR0                   cn=0,n=1
         1 000005   200006 000002                    ADSC9   @TRIAL+2,,AUTO           cn=0,n=2
         1 000006   200006 220100                    LDX0    @TRIAL+2,,AUTO
PL6.E3A0      #030=VPD$WILD_COMPARE File=VPD$UTIL.:E05TSI                        WED 07/30/97 07:58 Page:721
         1 000007   000000 635010                    EAA     0,X0
         1 000010   000002 771000                    ARL     2
         1 000011   000140 135007                    SBLA    96,DL
         1 000012   200003 236100                    LDQ     @PATTERN,,AUTO
         1 000013   200000 036007                    ADLQ    65536,DL
         1 000014   000000 757000 0                  STAQ    XUW_WILDCARD

     2763      970    1           XUW_WILDCARD.INPUT_ = VECTOR(SUBSTR(TRIAL.TEXT,0,TRIAL.LEN));

    970  1 000015   200004 471500                    LDP1    @TRIAL,,AUTO
         1 000016   000100 101500                    MRL     fill='000'O
         1 000017   100000 000001                    ADSC9   0,,PR1                   cn=0,n=1
         1 000020   200006 000002                    ADSC9   @TRIAL+2,,AUTO           cn=0,n=2
         1 000021   200006 220100                    LDX0    @TRIAL+2,,AUTO
         1 000022   000000 635010                    EAA     0,X0
         1 000023   000002 771000                    ARL     2
         1 000024   000140 135007                    SBLA    96,DL
         1 000025   200004 236100                    LDQ     @TRIAL,,AUTO
         1 000026   200000 036007                    ADLQ    65536,DL
         1 000027   000002 757000 0                  STAQ    XUW_WILDCARD+2

     2764      971    1           CALL X$WILDCMP(XUW_WILDCARD)

    971  1 000030   000000 630400 2                  EPPR0   0
         1 000031   000017 631400 xsym               EPPR1   B_VECTNIL+15
         1 000032   000000 701000 xent               TSX1    X$WILDCMP
         1 000033   000035 702000 1                  TSX2    s:973
         1 000034   000036 710000 1                  TRA     s:975

     2765      972    2            WHENALTRETURN DO;

     2766      973    2               ALTRETURN;

    973  1 000035   000000 702200 xent               TSX2  ! X66_AALT

     2767      974    2               END;
     2768      975    1           RETURN;
PL6.E3A0      #030=VPD$WILD_COMPARE File=VPD$UTIL.:E05TSI                        WED 07/30/97 07:58 Page:722

    975  1 000036   000000 702200 xent               TSX2  ! X66_ARET
     2769      976    1   END VPD$WILD_COMPARE;

PL6.E3A0      #030=VPD$WILD_COMPARE File=VPD$UTIL.:E05TSI                        WED 07/30/97 07:58 Page:723
--  Include file information  --

   XU_PERR_C.:E05TOU  is referenced.
   XUW_MACRO_C.:E05TOU  is referenced.
   VP_MACRO_C.:E05TOU  is referenced.
   B$JIT_C.:E05TOU  was found in the system file and is never referenced.
   CP_6_C.:E05TOU  was found in the system file and is never referenced.
      No diagnostics issued in procedure VPD$WILD_COMPARE.
PL6.E3A0      #030=VPD$WILD_COMPARE File=VPD$UTIL.:E05TSI                        WED 07/30/97 07:58 Page:724

 **** Variables and constants ****

  ****  Section 000  Data  VPD$WILD_COMPARE

  ****  Scalars and arrays  ****
OctLoc.c.b A Datatyp(siz) R M Lvl/name                 OctLoc.c.b A Datatyp(siz) R M Lvl/name

     0-0-0/d STRC(432)   r     1 XUW_WILDCARD

  ****  Auto variables  ****

  ****  Scalars and arrays  ****
OctLoc.c.b A Datatyp(siz) R M Lvl/name                 OctLoc.c.b A Datatyp(siz) R M Lvl/name

     3-0-0/w PTR         r     1 @PATTERN                   4-0-0/w PTR         r     1 @TRIAL
    *0-0-0/c STRC(288)   r     1 PATTERN                   *0-0-0/c STRC(288)   r     1 TRIAL


   Procedure VPD$WILD_COMPARE requires 31 words for executable code.
   Procedure VPD$WILD_COMPARE requires 8 words of local(AUTO) storage.

    No errors detected in file VPD$UTIL.:E05TSI    .
PL6.E3A0      #030=VPD$WILD_COMPARE File=VPD$UTIL.:E05TSI                        WED 07/30/97 07:58 Page:725
          *** CROSS REFERENCE LISTING ***
**     DENOTES     IDENTIFIER DEFINITION
<<                 IDENTIFIER'S VALUE SET
>>                 IDENTIFIER'S VALUE USED
<>                 IDENTIFIER SET AND/OR USED
--                 IDENTIFIER REFERENCED
PL6.E3A0      #030=VPD$WILD_COMPARE File=VPD$UTIL.:E05TSI                        WED 07/30/97 07:58 Page:726
          MINI XREF LISTING

PATTERN
       962**DCL         6--PROC
PATTERN.LEN
       963**DCL       969>>ASSIGN
PATTERN.TEXT
       964**DCL       969--ASSIGN
TRIAL
       965**DCL         6--PROC
TRIAL.LEN
       966**DCL       970>>ASSIGN
TRIAL.TEXT
       967**DCL       970--ASSIGN
X$WILDCMP
       953**DCL-ENT   971--CALL
XUW_WILDCARD
       916**DCL       971<>CALL
XUW_WILDCARD.INPUT_
       922**DCL       970<<ASSIGN
XUW_WILDCARD.PATTERN_
       917**DCL       969<<ASSIGN
