VERSION E05

PL6.E3A0      #001=VPD$ABORT File=VPD$UTIL.:E05TSI                               WED 07/30/97 07:19 Page:1
        1        1        /*T***********************************************************/
        2        2        /*T*                                                         */
        3        3        /*T* Copyright (c) Bull HN Information Systems Inc., 1997    */
        4        4        /*T*                                                         */
        5        5        /*T***********************************************************/
        6        6        VPD$ABORT: PROC;
        7        7
        8        8        /*D*  NAME: VPD$ABORT
        9        9              CALL: Called from XUG$BREAK if the user hits BREAK and enters something
       10       10                    other than "C" or "c".
       11       11              DESCRIPTION: If the current command has REMEMBERed a label in BREAK_LOC,
       12       12                    VPD$ABORT will unwind to that label.  Otherwise, VPD$ABORT will
       13       13                    unwind to the ABORT_CMD label point.
       14       14        */
       15       15
       16       16        %INCLUDE VP_DATA_R;
       17     7003
       18     7004    1   DCL BREAK_LOC1 REMEMBER;
       19     7005
       20     7006    1      IF BREAK_LOC_BITS = '0'B /* no command-specific termination handler */
       21     7007    1        THEN
       22     7008    1         UNWIND TO ABORT_CMD;
       23     7009
       24     7010    1      BREAK_LOC1 = BREAK_LOC;
       25     7011    1      BREAK_LOC_BITS = '0'B;  /* zap handler, so we don't re-enter. */
       26     7012
       27     7013    1      UNWIND TO BREAK_LOC1;
       28     7014
       29     7015    1   END VPD$ABORT;
       30     7016        %EOD;

PL6.E3A0      #001=VPD$ABORT File=VPD$UTIL.:E05TSI                               WED 07/30/97 07:19 Page:2
--  Include file information  --

   B_MICROPS_C.:E05TOU  is referenced.
   XU_MACRO_C.:E05TOU  is referenced.
   VP_MACRO_C.:E05TOU  is referenced.
   XS_MACRO_C.:E05TOU  is referenced.
   VP_PERR_C.:E05TOU  is referenced.
   CP_6_SUBS.:E05TOU  is referenced.
   CP_6.:E05TOU  cannot be made into a system file and is referenced.
   VP_DATA_R.:E05TOU  cannot be made into a system file and is referenced.
   B$JIT_C.:E05TOU  was found in the system file and is never referenced.
   CP_6_C.:E05TOU  was found in the system file and is referenced.
      No diagnostics issued in procedure VPD$ABORT.

   Procedure VPD$ABORT requires 16 words for executable code.
   Procedure VPD$ABORT requires 6 words of local(AUTO) storage.

PL6.E3A0      #001=VPD$ABORT File=VPD$UTIL.:E05TSI                               WED 07/30/97 07:19 Page:3

 Object Unit name= VPD$ABORT                                  File name= VPD$UTIL.:E05TOU
 UTS= JUL 30 '97 07:19:49.68 WED                              Compiler= PL-6/E31         Sev=      00
 SharedLib= :SHARED_SYSTEM                                    Alt SharedLib=


    ****  Control sections  ****

 Sect   Type Bound  Init  Size OctSiz  Section name(segment info)
    0   DCB   even  none     0      0  M$UC
    1   DCB   even  none     0      0  M$EI
    2   DCB   even  none     0      0  M$EO
    3   DCB   even  none     0      0  M$EO1
    4   DCB   even  none     0      0  M$ME
    5   DCB   even  none     0      0  M$SI
    6   DCB   even  none     0      0  M$READFILE
    7   DCB   even  none     0      0  M$DO
    8   DCB   even  none     0      0  M$STD1
    9   DCB   even  none     0      0  M$SORT1
   10   Proc  even  none    16     20  VPD$ABORT
   11  RoData even  none     2      2  VPD$ABORT

    ****  Entry defs  ****

                              Check   Calling
                             calling  sequence
  Sect OctLoc Primary Altret sequence   type   Parms  Name
    10      0   yes            yes      Std        0  VPD$ABORT

  ****  Entry refs  ****

         Check        Calling
        calling       sequence
Altret sequence SRef   type   Args  Name
                       nStd      0 X66_AUTO_0
                       nStd      0 X66_AUNWIND
PL6.E3A0      #001=VPD$ABORT File=VPD$UTIL.:E05TSI                               WED 07/30/97 07:19 Page:4

  ****  Data refs  ****

  Flags:  r = read only, s = secondary
Flgs Name                             Flgs Name                             Flgs Name
     M$UC                                  ABORT_CMD                             BREAK_LOC
     BREAK_MESSAGE_REPORTER                SPEC_BUF                              IN_RES
     M$EI                                  M$EO                                  M$EO1
     M$ME                                  M$SI                                  M$READFILE
     M$DO                                  M$STD1                                M$SORT1
PL6.E3A0      #001=VPD$ABORT File=VPD$UTIL.:E05TSI                               WED 07/30/97 07:19 Page:5


        1        1        /*T***********************************************************/
        2        2        /*T*                                                         */
        3        3        /*T* Copyright (c) Bull HN Information Systems Inc., 1997    */
        4        4        /*T*                                                         */
        5        5        /*T***********************************************************/
        6        6        VPD$ABORT: PROC;

      6 10 000000   000000 700200 xent  VPD$ABORT    TSX0  ! X66_AUTO_0
        10 000001   000006 000000                    ZERO    6,0

        7        7
        8        8        /*D*  NAME: VPD$ABORT
        9        9              CALL: Called from XUG$BREAK if the user hits BREAK and enters something
       10       10                    other than "C" or "c".
       11       11              DESCRIPTION: If the current command has REMEMBERed a label in BREAK_LOC,
       12       12                    VPD$ABORT will unwind to that label.  Otherwise, VPD$ABORT will
       13       13                    unwind to the ABORT_CMD label point.
       14       14        */
       15       15
       16       16        %INCLUDE VP_DATA_R;
       17     7003
       18     7004    1   DCL BREAK_LOC1 REMEMBER;
       19     7005
       20     7006    1      IF BREAK_LOC_BITS = '0'B /* no command-specific termination handler */

   7006 10 000002   000000 237000 xsym               LDAQ    BREAK_LOC
        10 000003   000000 117000 11                 CMPAQ   0
        10 000004   000010 601000 10                 TNZ     s:7010

       21     7007    1        THEN
       22     7008    1         UNWIND TO ABORT_CMD;

   7008 10 000005   000000 237200 xsym               LDAQ  ! ABORT_CMD
        10 000006   000000 700200 xent               TSX0  ! X66_AUNWIND
        10 000007   000000 000200                    ZERO    0,128

PL6.E3A0      #001=VPD$ABORT File=VPD$UTIL.:E05TSI                               WED 07/30/97 07:19 Page:6
       23     7009
       24     7010    1      BREAK_LOC1 = BREAK_LOC;

   7010 10 000010   000000 237000 xsym               LDAQ    BREAK_LOC
        10 000011   200004 757100                    STAQ    BREAK_LOC1,,AUTO

       25     7011    1      BREAK_LOC_BITS = '0'B;  /* zap handler, so we don't re-enter. */

   7011 10 000012   000000 235003                    LDA     0,DU
        10 000013   000000 236003                    LDQ     0,DU
        10 000014   000000 757000 xsym               STAQ    BREAK_LOC

       26     7012
       27     7013    1      UNWIND TO BREAK_LOC1;

   7013 10 000015   200004 237300                    LDAQ  ! BREAK_LOC1,,AUTO
        10 000016   000000 700200 xent               TSX0  ! X66_AUNWIND
        10 000017   000000 000200                    ZERO    0,128
       28     7014
       29     7015    1   END VPD$ABORT;
       30     7016        %EOD;

PL6.E3A0      #001=VPD$ABORT File=VPD$UTIL.:E05TSI                               WED 07/30/97 07:19 Page:7
--  Include file information  --

   B_MICROPS_C.:E05TOU  is referenced.
   XU_MACRO_C.:E05TOU  is referenced.
   VP_MACRO_C.:E05TOU  is referenced.
   XS_MACRO_C.:E05TOU  is referenced.
   VP_PERR_C.:E05TOU  is referenced.
   CP_6_SUBS.:E05TOU  is referenced.
   CP_6.:E05TOU  cannot be made into a system file and is referenced.
   VP_DATA_R.:E05TOU  cannot be made into a system file and is referenced.
   B$JIT_C.:E05TOU  was found in the system file and is never referenced.
   CP_6_C.:E05TOU  was found in the system file and is referenced.
      No diagnostics issued in procedure VPD$ABORT.
PL6.E3A0      #001=VPD$ABORT File=VPD$UTIL.:E05TSI                               WED 07/30/97 07:19 Page:8

 **** Variables and constants ****

  ****  Auto variables  ****

  ****  Scalars and arrays  ****
OctLoc.c.b A Datatyp(siz) R M Lvl/name                 OctLoc.c.b A Datatyp(siz) R M Lvl/name

     4-0-0/d REMB        r     1 BREAK_LOC1

  ****  SYMREF variables  ****

  ****  Scalars and arrays  ****
OctLoc.c.b A Datatyp(siz) R M Lvl/name                 OctLoc.c.b A Datatyp(siz) R M Lvl/name

     0-0-0/d REMB        r     1 ABORT_CMD                  0-0-0/d REMB        r     1 BREAK_LOC
     0-0-0/d BIT (72)    r     1 BREAK_LOC_BITS
     0-0-0/w EPTR        r     1 BREAK_MESSAGE_REPORTER


   Procedure VPD$ABORT requires 16 words for executable code.
   Procedure VPD$ABORT requires 6 words of local(AUTO) storage.
PL6.E3A0      #001=VPD$ABORT File=VPD$UTIL.:E05TSI                               WED 07/30/97 07:19 Page:9
          *** CROSS REFERENCE LISTING ***
**     DENOTES     IDENTIFIER DEFINITION
<<                 IDENTIFIER'S VALUE SET
>>                 IDENTIFIER'S VALUE USED
<>                 IDENTIFIER SET AND/OR USED
--                 IDENTIFIER REFERENCED
PL6.E3A0      #001=VPD$ABORT File=VPD$UTIL.:E05TSI                               WED 07/30/97 07:19 Page:10
          MINI XREF LISTING

ABORT_CMD
      5188**DCL      7008>>UNWIND
BREAK_LOC
      5223**DCL      5223--REDEF    7010>>ASSIGN
BREAK_LOC1
      7004**DCL      7010<<ASSIGN   7013>>UNWIND
BREAK_LOC_BITS
      5223**DCL      7006>>IF       7011<<ASSIGN
DEF_ICB.FID.STRING
      5821**DCL      5822--REDEF
DEV_ICB.FID.STRING
      5707**DCL      5708--REDEF
EI_KEY.KEY
      5919**DCL      5919--REDEF    5919--REDEF    5919--REDEF
EO_OCB.TYPE
      5419**DCL      5420--REDEF
FPT_CLOSE_EI.SN_
      6760**DCL      6760--REDEF
FPT_CLOSE_EI.UTL_
      6761**DCL      6761--REDEF
FPT_CLOSE_EI.V.EXPIRE#
      6775**DCL      6775--REDEF
FPT_CLOSE_EI.V.TYPE#
      6773**DCL      6773--REDEF
FPT_CLOSE_EI.V.XTNSIZE#
      6770**DCL      6770--REDEF    6772--REDEF
FPT_CLOSE_PTL.SN_
      6886**DCL      6886--REDEF
FPT_CLOSE_PTL.UTL_
      6887**DCL      6887--REDEF
FPT_CLOSE_PTL.V.EXPIRE#
      6901**DCL      6901--REDEF
PL6.E3A0      #001=VPD$ABORT File=VPD$UTIL.:E05TSI                               WED 07/30/97 07:19 Page:11
FPT_CLOSE_PTL.V.TYPE#
      6899**DCL      6899--REDEF
FPT_CLOSE_PTL.V.XTNSIZE#
      6896**DCL      6896--REDEF    6898--REDEF
FPT_CLOSE_READ.SN_
      6802**DCL      6802--REDEF
FPT_CLOSE_READ.UTL_
      6803**DCL      6803--REDEF
FPT_CLOSE_READ.V.EXPIRE#
      6817**DCL      6817--REDEF
FPT_CLOSE_READ.V.TYPE#
      6815**DCL      6815--REDEF
FPT_CLOSE_READ.V.XTNSIZE#
      6812**DCL      6812--REDEF    6814--REDEF
FPT_CLOSE_SI.SN_
      6970**DCL      6970--REDEF
FPT_CLOSE_SI.UTL_
      6971**DCL      6971--REDEF
FPT_CLOSE_SI.V.EXPIRE#
      6985**DCL      6985--REDEF
FPT_CLOSE_SI.V.TYPE#
      6983**DCL      6983--REDEF
FPT_CLOSE_SI.V.XTNSIZE#
      6980**DCL      6980--REDEF    6982--REDEF
FPT_CLOSE_STD.SN_
      6928**DCL      6928--REDEF
FPT_CLOSE_STD.UTL_
      6929**DCL      6929--REDEF
FPT_CLOSE_STD.V.EXPIRE#
      6943**DCL      6943--REDEF
FPT_CLOSE_STD.V.TYPE#
      6941**DCL      6941--REDEF
FPT_CLOSE_STD.V.XTNSIZE#
      6938**DCL      6938--REDEF    6940--REDEF
FPT_CLSEI_FT.SN_
      6844**DCL      6844--REDEF
PL6.E3A0      #001=VPD$ABORT File=VPD$UTIL.:E05TSI                               WED 07/30/97 07:19 Page:12
FPT_CLSEI_FT.UTL_
      6845**DCL      6845--REDEF
FPT_CLSEI_FT.V.EXPIRE#
      6859**DCL      6859--REDEF
FPT_CLSEI_FT.V.TYPE#
      6857**DCL      6857--REDEF
FPT_CLSEI_FT.V.XTNSIZE#
      6854**DCL      6854--REDEF    6856--REDEF
FPT_OPEN_EI.ACSVEH_
      6415**DCL      6416--REDEF
FPT_OPEN_EI.ALTKEYS_
      6421**DCL      6422--REDEF    6422--REDEF
FPT_OPEN_EI.HDR_
      6420**DCL      6421--REDEF
FPT_OPEN_EI.TAB_
      6419**DCL      6420--REDEF
FPT_OPEN_EI.UHL_
      6413**DCL      6414--REDEF    6414--REDEF
FPT_OPEN_EI.V.FSN#
      6453**DCL      6453--REDEF    6453--REDEF
FPT_OPEN_EI.WSN_
      6419**DCL      6419--REDEF
FPT_OPEN_EI_SAVE.ACSVEH_
      6524**DCL      6525--REDEF
FPT_OPEN_EI_SAVE.ALTKEYS_
      6530**DCL      6531--REDEF    6531--REDEF
FPT_OPEN_EI_SAVE.HDR_
      6529**DCL      6530--REDEF
FPT_OPEN_EI_SAVE.TAB_
      6528**DCL      6529--REDEF
FPT_OPEN_EI_SAVE.UHL_
      6522**DCL      6523--REDEF    6523--REDEF
FPT_OPEN_EI_SAVE.V.FSN#
      6562**DCL      6562--REDEF    6562--REDEF
FPT_OPEN_EI_SAVE.WSN_
      6528**DCL      6528--REDEF
PL6.E3A0      #001=VPD$ABORT File=VPD$UTIL.:E05TSI                               WED 07/30/97 07:19 Page:13
FPT_OPEN_OUT.ACSVEH_
      6306**DCL      6307--REDEF
FPT_OPEN_OUT.ALTKEYS_
      6312**DCL      6313--REDEF    6313--REDEF
FPT_OPEN_OUT.HDR_
      6311**DCL      6312--REDEF
FPT_OPEN_OUT.TAB_
      6310**DCL      6311--REDEF
FPT_OPEN_OUT.UHL_
      6304**DCL      6305--REDEF    6305--REDEF
FPT_OPEN_OUT.V.FSN#
      6344**DCL      6344--REDEF    6344--REDEF
FPT_OPEN_OUT.WSN_
      6310**DCL      6310--REDEF
FPT_OPEN_OUT_SAVE.ACSVEH_
      6197**DCL      6198--REDEF
FPT_OPEN_OUT_SAVE.ALTKEYS_
      6203**DCL      6204--REDEF    6204--REDEF
FPT_OPEN_OUT_SAVE.HDR_
      6202**DCL      6203--REDEF
FPT_OPEN_OUT_SAVE.TAB_
      6201**DCL      6202--REDEF
FPT_OPEN_OUT_SAVE.UHL_
      6195**DCL      6196--REDEF    6196--REDEF
FPT_OPEN_OUT_SAVE.V.FSN#
      6235**DCL      6235--REDEF    6235--REDEF
FPT_OPEN_OUT_SAVE.WSN_
      6201**DCL      6201--REDEF
FPT_READ_STD.STATION_
      6625**DCL      6626--REDEF
FPT_READ_STD.V.DVBYTE.REREAD#
      6637**DCL      6637--REDEF
FPT_READ_STD.V.INDX#
      6635**DCL      6635--REDEF
FPT_READ_UC.STATION_
      6586**DCL      6587--REDEF
PL6.E3A0      #001=VPD$ABORT File=VPD$UTIL.:E05TSI                               WED 07/30/97 07:19 Page:14
FPT_READ_UC.V.DVBYTE.REREAD#
      6598**DCL      6598--REDEF
FPT_READ_UC.V.INDX#
      6596**DCL      6596--REDEF
FPT_WRITE_ME.STATION_
      6694**DCL      6694--REDEF
FPT_WRITE_ME.V.DVBYTE.VFC#
      6701**DCL      6701--REDEF
FPT_WRITE_OUT.STATION_
      6725**DCL      6725--REDEF
FPT_WRITE_OUT.V.DVBYTE.VFC#
      6732**DCL      6732--REDEF
FPT_WRITE_UC.STATION_
      6663**DCL      6663--REDEF
FPT_WRITE_UC.V.DVBYTE.VFC#
      6670**DCL      6670--REDEF
FROM_SN.SN
      5569**DCL      5570--REDEF
GETCMD.OUT$
      4776**DCL      4782--REDEF
ICB.FID.STRING
      5593**DCL      5594--REDEF
IFSFA_PARAM.EOMCHAR#
      5948**DCL      5949--REDEF
IFSFA_PARAM.SIG1
      5942**DCL      5942--REDEF
IFSFA_PARAM.SIG2
      5942**DCL      5943--REDEF
IN_RES
      5515**DCL      5515--REDEF
IN_SN.SN
      5531**DCL      5532--REDEF
OCB.TYPE
      5277**DCL      5278--REDEF
OFSFA_PARAM.EOMCHAR#
      5978**DCL      5979--REDEF
PL6.E3A0      #001=VPD$ABORT File=VPD$UTIL.:E05TSI                               WED 07/30/97 07:19 Page:15
OFSFA_PARAM.SIG1
      5972**DCL      5972--REDEF
OFSFA_PARAM.SIG2
      5972**DCL      5973--REDEF
OUT_SN.SN
      5549**DCL      5550--REDEF
SPEC_BUF
      5227**DCL      5227--REDEF

PL6.E3A0      #002=VPD$ANAL_NAME File=VPD$UTIL.:E05TSI                           WED 07/30/97 07:20 Page:16
       31        1        /*M* VPD$UTIL  MODULE TO CONTAIN UTILITY ROUTINES FOR PCL                     */
       32        2        /*T***********************************************************/
       33        3        /*T*                                                         */
       34        4        /*T* Copyright (c) Bull HN Information Systems Inc., 1997    */
       35        5        /*T*                                                         */
       36        6        /*T***********************************************************/
       37        7        /*X* DTI=1,THI=1    */
       38        8        /* Next available error code = 270  (by 10s)  */
       39        9        /* OTHER CODES AVAILABLE =    (NONE)     */
       40       10        VPD$ANAL_NAME: PROC(NAME,SPEC);
       41       11        /*D* NAME: VPD$ANAL_NAME
       42       12             CALL: CALL VPD$ANAL_NAME(NAME,SPEC);
       43       13             DESCRIPTION: VPD$ANAL_NAME takes NAME, a textc of length and 31 characters,
       44       14                          and sets SPEC, an sbin word, to a value representing the
       45       15                          type of filename NAME represents as below:
       46       16                            SPEC                     INTERPRETATION
       47       17                            ----                     --------------
       48       18                             1                       Single filename
       49       19                             4                       ?something wildcarding
       50       20                             5                       wildcard without initial '?'
       51       21        */
       52       22        %INCLUDE VP_MACRO_C;
       53      536    1   DCL 1 NAME,
       54      537    1         2 LEN UBIN BYTE UNAL,
       55      538    1         2 TEXT CHAR(31);
       56      539    1   DCL I UBIN;
       57      540    1   DCL SPEC SBIN WORD;
       58      541        /**/
       59      542    1           CALL INDEX(I,'?',NAME.TEXT)
       60      543    2            WHENRETURN DO;                 /* There's a ? somewhere              */
       61      544    2               IF I=0
       62      545    2                THEN
       63      546    2                  SPEC = 4;                /* At the front                       */
       64      547    2                ELSE
       65      548    2                  SPEC = 5;                /* Not in front                       */
       66      549    2               END;
       67      550    2            WHENALTRETURN DO;              /* Must be a regular file name        */
PL6.E3A0      #002=VPD$ANAL_NAME File=VPD$UTIL.:E05TSI                           WED 07/30/97 07:20 Page:17
       68      551    2               SPEC = 1;
       69      552    2               END;
       70      553    1           RETURN;
       71      554    1   END VPD$ANAL_NAME;
       72      555        %EOD;

PL6.E3A0      #002=VPD$ANAL_NAME File=VPD$UTIL.:E05TSI                           WED 07/30/97 07:20 Page:18
--  Include file information  --

   VP_MACRO_C.:E05TOU  is referenced.
   B$JIT_C.:E05TOU  was found in the system file and is never referenced.
   CP_6_C.:E05TOU  was found in the system file and is never referenced.
      No diagnostics issued in procedure VPD$ANAL_NAME.

   Procedure VPD$ANAL_NAME requires 22 words for executable code.
   Procedure VPD$ANAL_NAME requires 6 words of local(AUTO) storage.

PL6.E3A0      #002=VPD$ANAL_NAME File=VPD$UTIL.:E05TSI                           WED 07/30/97 07:20 Page:19

 Object Unit name= VPD$ANAL_NAME                              File name= VPD$UTIL.:E05TOU
 UTS= JUL 30 '97 07:20:51.64 WED                              Compiler= PL-6/E31         Sev=      00
 SharedLib= :SHARED_SYSTEM                                    Alt SharedLib=


    ****  Control sections  ****

 Sect   Type Bound  Init  Size OctSiz  Section name(segment info)
    0   Proc  even  none    22     26  VPD$ANAL_NAME
    1  RoData even  none     1      1  VPD$ANAL_NAME

    ****  Entry defs  ****

                              Check   Calling
                             calling  sequence
  Sect OctLoc Primary Altret sequence   type   Parms  Name
     0      0   yes            yes      Std        2  VPD$ANAL_NAME

  ****  Entry refs  ****

         Check        Calling
        calling       sequence
Altret sequence SRef   type   Args  Name
                       nStd      0 X66_AUTO_2
                       nStd      0 X66_ARET
PL6.E3A0      #002=VPD$ANAL_NAME File=VPD$UTIL.:E05TSI                           WED 07/30/97 07:20 Page:20


       31        1        /*M* VPD$UTIL  MODULE TO CONTAIN UTILITY ROUTINES FOR PCL                     */
       32        2        /*T***********************************************************/
       33        3        /*T*                                                         */
       34        4        /*T* Copyright (c) Bull HN Information Systems Inc., 1997    */
       35        5        /*T*                                                         */
       36        6        /*T***********************************************************/
       37        7        /*X* DTI=1,THI=1    */
       38        8        /* Next available error code = 270  (by 10s)  */
       39        9        /* OTHER CODES AVAILABLE =    (NONE)     */
       40       10        VPD$ANAL_NAME: PROC(NAME,SPEC);

     10  0 000000   000000 700200 xent  VPD$ANAL_NA* TSX0  ! X66_AUTO_2
         0 000001   000006 000002                    ZERO    6,2

       41       11        /*D* NAME: VPD$ANAL_NAME
       42       12             CALL: CALL VPD$ANAL_NAME(NAME,SPEC);
       43       13             DESCRIPTION: VPD$ANAL_NAME takes NAME, a textc of length and 31 characters,
       44       14                          and sets SPEC, an sbin word, to a value representing the
       45       15                          type of filename NAME represents as below:
       46       16                            SPEC                     INTERPRETATION
       47       17                            ----                     --------------
       48       18                             1                       Single filename
       49       19                             4                       ?something wildcarding
       50       20                             5                       wildcard without initial '?'
       51       21        */
       52       22        %INCLUDE VP_MACRO_C;
       53      536    1   DCL 1 NAME,
       54      537    1         2 LEN UBIN BYTE UNAL,
       55      538    1         2 TEXT CHAR(31);
       56      539    1   DCL I UBIN;
       57      540    1   DCL SPEC SBIN WORD;
       58      541        /**/
       59      542    1           CALL INDEX(I,'?',NAME.TEXT)

    542  0 000002   200003 470500                    LDP0    @NAME,,AUTO
         0 000003   000000 124500                    SCM     mask='000'O
PL6.E3A0      #002=VPD$ANAL_NAME File=VPD$UTIL.:E05TSI                           WED 07/30/97 07:20 Page:21
         0 000004   000000 200037                    ADSC9   0,,PR0                   cn=1,n=31
         0 000005   000000 000001 1                  ADSC9   0                        cn=0,n=1
         0 000006   200005 000100                    ARG     I,,AUTO
         0 000007   000022 606400 0                  TTN     s:551

       60      543    2            WHENRETURN DO;                 /* There's a ? somewhere              */

       61      544    2               IF I=0

    544  0 000010   200005 235100                    LDA     I,,AUTO
         0 000011   000016 601000 0                  TNZ     s:548

       62      545    2                THEN
       63      546    2                  SPEC = 4;                /* At the front                       */

    546  0 000012   000004 236007                    LDQ     4,DL
         0 000013   200004 471500                    LDP1    @SPEC,,AUTO
         0 000014   100000 756100                    STQ     0,,PR1
         0 000015   000021 710000 0                  TRA     s:549

       64      547    2                ELSE
       65      548    2                  SPEC = 5;                /* Not in front                       */

    548  0 000016   000005 236007                    LDQ     5,DL
         0 000017   200004 471500                    LDP1    @SPEC,,AUTO
         0 000020   100000 756100                    STQ     0,,PR1

       66      549    2               END;

    549  0 000021   000025 710000 0                  TRA     s:553

       67      550    2            WHENALTRETURN DO;              /* Must be a regular file name        */

       68      551    2               SPEC = 1;

    551  0 000022   000001 235007                    LDA     1,DL
         0 000023   200004 470500                    LDP0    @SPEC,,AUTO
PL6.E3A0      #002=VPD$ANAL_NAME File=VPD$UTIL.:E05TSI                           WED 07/30/97 07:20 Page:22
         0 000024   000000 755100                    STA     0,,PR0

       69      552    2               END;

       70      553    1           RETURN;

    553  0 000025   000000 702200 xent               TSX2  ! X66_ARET
       71      554    1   END VPD$ANAL_NAME;
       72      555        %EOD;

PL6.E3A0      #002=VPD$ANAL_NAME File=VPD$UTIL.:E05TSI                           WED 07/30/97 07:20 Page:23
--  Include file information  --

   VP_MACRO_C.:E05TOU  is referenced.
   B$JIT_C.:E05TOU  was found in the system file and is never referenced.
   CP_6_C.:E05TOU  was found in the system file and is never referenced.
      No diagnostics issued in procedure VPD$ANAL_NAME.
PL6.E3A0      #002=VPD$ANAL_NAME File=VPD$UTIL.:E05TSI                           WED 07/30/97 07:20 Page:24

 **** Variables and constants ****

  ****  Auto variables  ****

  ****  Scalars and arrays  ****
OctLoc.c.b A Datatyp(siz) R M Lvl/name                 OctLoc.c.b A Datatyp(siz) R M Lvl/name

     3-0-0/w PTR         r     1 @NAME                      4-0-0/w PTR         r     1 @SPEC
     5-0-0/w UBIN        r     1 I                         *0-0-0/c STRC(288)   r     1 NAME
    *0-0-0/w SBIN        r     1 SPEC


   Procedure VPD$ANAL_NAME requires 22 words for executable code.
   Procedure VPD$ANAL_NAME requires 6 words of local(AUTO) storage.
PL6.E3A0      #002=VPD$ANAL_NAME File=VPD$UTIL.:E05TSI                           WED 07/30/97 07:20 Page:25
          *** CROSS REFERENCE LISTING ***
**     DENOTES     IDENTIFIER DEFINITION
<<                 IDENTIFIER'S VALUE SET
>>                 IDENTIFIER'S VALUE USED
<>                 IDENTIFIER SET AND/OR USED
--                 IDENTIFIER REFERENCED
PL6.E3A0      #002=VPD$ANAL_NAME File=VPD$UTIL.:E05TSI                           WED 07/30/97 07:20 Page:26
          MINI XREF LISTING

I
       539**DCL       542<<CALLBLT   544>>IF
NAME
       536**DCL        10--PROC
NAME.TEXT
       538**DCL       542>>CALLBLT
SPEC
       540**DCL        10--PROC      546<<ASSIGN    548<<ASSIGN    551<<ASSIGN

PL6.E3A0      #003=VPD$BREAK File=VPD$UTIL.:E05TSI                               WED 07/30/97 07:20 Page:27
       73        1        /*T***********************************************************/
       74        2        /*T*                                                         */
       75        3        /*T* Copyright (c) Bull HN Information Systems Inc., 1997    */
       76        4        /*T*                                                         */
       77        5        /*T***********************************************************/
       78        6        VPD$BREAK: PROC ALTRET;
       79        7        /*D* NAME: VPD$BREAK
       80        8              CALL: Called by XUG$BREAK, to print a "Break" message.
       81        9              DESCRIPTION: If the command in progress has supplied a break-message
       82       10                    routine (its ENTADDR will be in BREAK_MESSAGE_REPORTER), that
       83       11                    routine is called to report the COPY position, etc. to the user.
       84       12                    If no break-message routine is provided, or if the routine ALTRETs,
       85       13                    then VPD$BREAK altreturns to XUG$BREAK, which then prints the
       86       14                    default break message.
       87       15        */
       88       16        %INCLUDE VP_DATA_R;
       89     7003    1   DCL BREAK_LOC1 REMEMBER DALIGNED;
       90     7004    1   DCL BREAK_LOC1_BITS REDEF BREAK_LOC1 BIT(72);
       91     7005    1           BREAKS = BREAKS + 1;
       92     7006
       93     7007    1           FPT_PROMPT.PROMPT_ = GETCMD.PROMPT_;
       94     7008
       95     7009    1           CALL M$PROMPT (FPT_PROMPT);
       96     7010
       97     7011    1           IF BREAK_MESSAGE_REPORTER = ENTADDR(NIL)
       98     7012    1            THEN
       99     7013    1              ALTRETURN;
      100     7014
      101     7015    1           CALL BREAK_MESSAGE_REPORTER
      102     7016    2            WHENALTRETURN DO;
      103     7017    2               ALTRETURN;
      104     7018    2               END;
      105     7019
      106     7020    1           RETURN;
      107     7021    1   END VPD$BREAK;
      108     7022        %EOD;

PL6.E3A0      #003=VPD$BREAK File=VPD$UTIL.:E05TSI                               WED 07/30/97 07:20 Page:28
--  Include file information  --

   B_MICROPS_C.:E05TOU  is referenced.
   XU_MACRO_C.:E05TOU  is referenced.
   VP_MACRO_C.:E05TOU  is referenced.
   XS_MACRO_C.:E05TOU  is referenced.
   VP_PERR_C.:E05TOU  is referenced.
   CP_6_SUBS.:E05TOU  is referenced.
   CP_6.:E05TOU  cannot be made into a system file and is referenced.
   VP_DATA_R.:E05TOU  cannot be made into a system file and is referenced.
   B$JIT_C.:E05TOU  was found in the system file and is never referenced.
   CP_6_C.:E05TOU  was found in the system file and is referenced.
      No diagnostics issued in procedure VPD$BREAK.

   Procedure VPD$BREAK requires 20 words for executable code.
   Procedure VPD$BREAK requires 6 words of local(AUTO) storage.

PL6.E3A0      #003=VPD$BREAK File=VPD$UTIL.:E05TSI                               WED 07/30/97 07:20 Page:29

 Object Unit name= VPD$BREAK                                  File name= VPD$UTIL.:E05TOU
 UTS= JUL 30 '97 07:20:56.48 WED                              Compiler= PL-6/E31         Sev=      00
 SharedLib= :SHARED_SYSTEM                                    Alt SharedLib=


    ****  Control sections  ****

 Sect   Type Bound  Init  Size OctSiz  Section name(segment info)
    0   DCB   even  none     0      0  M$UC
    1   DCB   even  none     0      0  M$EI
    2   DCB   even  none     0      0  M$EO
    3   DCB   even  none     0      0  M$EO1
    4   DCB   even  none     0      0  M$ME
    5   DCB   even  none     0      0  M$SI
    6   DCB   even  none     0      0  M$READFILE
    7   DCB   even  none     0      0  M$DO
    8   DCB   even  none     0      0  M$STD1
    9   DCB   even  none     0      0  M$SORT1
   10   Proc  even  none    20     24  VPD$BREAK

    ****  Entry defs  ****

                              Check   Calling
                             calling  sequence
  Sect OctLoc Primary Altret sequence   type   Parms  Name
    10      0   yes    yes     yes      Std        0  VPD$BREAK

  ****  Entry refs  ****

         Check        Calling
        calling       sequence
Altret sequence SRef   type   Args  Name
                       nStd      0 X66_AUTO_0
                       Std       0 B_CONSPOOL_D
                       nStd      0 X66_AALT
                       nStd      0 X66_ARET
PL6.E3A0      #003=VPD$BREAK File=VPD$UTIL.:E05TSI                               WED 07/30/97 07:20 Page:30

  ****  Data refs  ****

  Flags:  r = read only, s = secondary
Flgs Name                             Flgs Name                             Flgs Name
     M$UC                                  GETCMD                                BREAK_LOC
     BREAKS                                BREAK_MESSAGE_REPORTER                SPEC_BUF
     IN_RES                                M$EI                                  M$EO
     M$EO1                                 M$ME                                  M$SI
     M$READFILE                            M$DO                                  M$STD1
     M$SORT1                               FPT_PROMPT                            B_VECTNIL
PL6.E3A0      #003=VPD$BREAK File=VPD$UTIL.:E05TSI                               WED 07/30/97 07:20 Page:31


       73        1        /*T***********************************************************/
       74        2        /*T*                                                         */
       75        3        /*T* Copyright (c) Bull HN Information Systems Inc., 1997    */
       76        4        /*T*                                                         */
       77        5        /*T***********************************************************/
       78        6        VPD$BREAK: PROC ALTRET;

      6 10 000000   000000 700200 xent  VPD$BREAK    TSX0  ! X66_AUTO_0
        10 000001   000006 000000                    ZERO    6,0

       79        7        /*D* NAME: VPD$BREAK
       80        8              CALL: Called by XUG$BREAK, to print a "Break" message.
       81        9              DESCRIPTION: If the command in progress has supplied a break-message
       82       10                    routine (its ENTADDR will be in BREAK_MESSAGE_REPORTER), that
       83       11                    routine is called to report the COPY position, etc. to the user.
       84       12                    If no break-message routine is provided, or if the routine ALTRETs,
       85       13                    then VPD$BREAK altreturns to XUG$BREAK, which then prints the
       86       14                    default break message.
       87       15        */
       88       16        %INCLUDE VP_DATA_R;
       89     7003    1   DCL BREAK_LOC1 REMEMBER DALIGNED;
       90     7004    1   DCL BREAK_LOC1_BITS REDEF BREAK_LOC1 BIT(72);
       91     7005    1           BREAKS = BREAKS + 1;

   7005 10 000002   000000 054000 xsym               AOS     BREAKS

       92     7006
       93     7007    1           FPT_PROMPT.PROMPT_ = GETCMD.PROMPT_;

   7007 10 000003   000000 100400                    MLR     fill='000'O
        10 000004   000025 000010 xsym               ADSC9   GETCMD+21                cn=0,n=8
        10 000005   000004 000010 xsym               ADSC9   FPT_PROMPT+4             cn=0,n=8

       94     7008
       95     7009    1           CALL M$PROMPT (FPT_PROMPT);

PL6.E3A0      #003=VPD$BREAK File=VPD$UTIL.:E05TSI                               WED 07/30/97 07:20 Page:32
   7009 10 000006   000000 630400 xsym               EPPR0   FPT_PROMPT
        10 000007   160002 713400                    CLIMB   57346
        10 000010   401000 401760                    pmme    nvectors=3

       96     7010
       97     7011    1           IF BREAK_MESSAGE_REPORTER = ENTADDR(NIL)

   7011 10 000011   000000 236000 xsym               LDQ     BREAK_MESSAGE_REPORTER
        10 000012   000002 116000 xsym               CMPQ    B_VECTNIL+2
        10 000013   000015 601000 10                 TNZ     s:7015

       98     7012    1            THEN
       99     7013    1              ALTRETURN;

   7013 10 000014   000000 702200 xent               TSX2  ! X66_AALT

      100     7014
      101     7015    1           CALL BREAK_MESSAGE_REPORTER

   7015 10 000015   000000 220000 xsym               LDX0    BREAK_MESSAGE_REPORTER
        10 000016   000002 631400 xsym               EPPR1   B_VECTNIL+2
        10 000017   000000 701010                    TSX1    0,X0
        10 000020   000022 702000 10                 TSX2    s:7017
        10 000021   000023 710000 10                 TRA     s:7020

      102     7016    2            WHENALTRETURN DO;

      103     7017    2               ALTRETURN;

   7017 10 000022   000000 702200 xent               TSX2  ! X66_AALT

      104     7018    2               END;
      105     7019
      106     7020    1           RETURN;

   7020 10 000023   000000 702200 xent               TSX2  ! X66_ARET
      107     7021    1   END VPD$BREAK;
PL6.E3A0      #003=VPD$BREAK File=VPD$UTIL.:E05TSI                               WED 07/30/97 07:20 Page:33
      108     7022        %EOD;

PL6.E3A0      #003=VPD$BREAK File=VPD$UTIL.:E05TSI                               WED 07/30/97 07:20 Page:34
--  Include file information  --

   B_MICROPS_C.:E05TOU  is referenced.
   XU_MACRO_C.:E05TOU  is referenced.
   VP_MACRO_C.:E05TOU  is referenced.
   XS_MACRO_C.:E05TOU  is referenced.
   VP_PERR_C.:E05TOU  is referenced.
   CP_6_SUBS.:E05TOU  is referenced.
   CP_6.:E05TOU  cannot be made into a system file and is referenced.
   VP_DATA_R.:E05TOU  cannot be made into a system file and is referenced.
   B$JIT_C.:E05TOU  was found in the system file and is never referenced.
   CP_6_C.:E05TOU  was found in the system file and is referenced.
      No diagnostics issued in procedure VPD$BREAK.
PL6.E3A0      #003=VPD$BREAK File=VPD$UTIL.:E05TSI                               WED 07/30/97 07:20 Page:35

 **** Variables and constants ****

  ****  SYMREF variables  ****

  ****  Scalars and arrays  ****
OctLoc.c.b A Datatyp(siz) R M Lvl/name                 OctLoc.c.b A Datatyp(siz) R M Lvl/name

     0-0-0/w SBIN        r     1 BREAKS
     0-0-0/w EPTR        r     1 BREAK_MESSAGE_REPORTER
     0-0-0/d STRC(360)   r     1 FPT_PROMPT                 0-0-0/d STRC(1512)  r     1 GETCMD


   Procedure VPD$BREAK requires 20 words for executable code.
   Procedure VPD$BREAK requires 6 words of local(AUTO) storage.
PL6.E3A0      #003=VPD$BREAK File=VPD$UTIL.:E05TSI                               WED 07/30/97 07:20 Page:36
          *** CROSS REFERENCE LISTING ***
**     DENOTES     IDENTIFIER DEFINITION
<<                 IDENTIFIER'S VALUE SET
>>                 IDENTIFIER'S VALUE USED
<>                 IDENTIFIER SET AND/OR USED
--                 IDENTIFIER REFERENCED
PL6.E3A0      #003=VPD$BREAK File=VPD$UTIL.:E05TSI                               WED 07/30/97 07:20 Page:37
          MINI XREF LISTING

BREAKS
      5223**DCL      7005<<ASSIGN   7005>>ASSIGN
BREAK_LOC
      5223**DCL      5223--REDEF
BREAK_LOC1
      7003**DCL      7004--REDEF
BREAK_MESSAGE_REPORTER
      5224**DCL      7011>>IF       7015>>CALL
DEF_ICB.FID.STRING
      5821**DCL      5822--REDEF
DEV_ICB.FID.STRING
      5707**DCL      5708--REDEF
EI_KEY.KEY
      5919**DCL      5919--REDEF    5919--REDEF    5919--REDEF
EO_OCB.TYPE
      5419**DCL      5420--REDEF
FPT_CLOSE_EI.SN_
      6760**DCL      6760--REDEF
FPT_CLOSE_EI.UTL_
      6761**DCL      6761--REDEF
FPT_CLOSE_EI.V.EXPIRE#
      6775**DCL      6775--REDEF
FPT_CLOSE_EI.V.TYPE#
      6773**DCL      6773--REDEF
FPT_CLOSE_EI.V.XTNSIZE#
      6770**DCL      6770--REDEF    6772--REDEF
FPT_CLOSE_PTL.SN_
      6886**DCL      6886--REDEF
FPT_CLOSE_PTL.UTL_
      6887**DCL      6887--REDEF
FPT_CLOSE_PTL.V.EXPIRE#
      6901**DCL      6901--REDEF
PL6.E3A0      #003=VPD$BREAK File=VPD$UTIL.:E05TSI                               WED 07/30/97 07:20 Page:38
FPT_CLOSE_PTL.V.TYPE#
      6899**DCL      6899--REDEF
FPT_CLOSE_PTL.V.XTNSIZE#
      6896**DCL      6896--REDEF    6898--REDEF
FPT_CLOSE_READ.SN_
      6802**DCL      6802--REDEF
FPT_CLOSE_READ.UTL_
      6803**DCL      6803--REDEF
FPT_CLOSE_READ.V.EXPIRE#
      6817**DCL      6817--REDEF
FPT_CLOSE_READ.V.TYPE#
      6815**DCL      6815--REDEF
FPT_CLOSE_READ.V.XTNSIZE#
      6812**DCL      6812--REDEF    6814--REDEF
FPT_CLOSE_SI.SN_
      6970**DCL      6970--REDEF
FPT_CLOSE_SI.UTL_
      6971**DCL      6971--REDEF
FPT_CLOSE_SI.V.EXPIRE#
      6985**DCL      6985--REDEF
FPT_CLOSE_SI.V.TYPE#
      6983**DCL      6983--REDEF
FPT_CLOSE_SI.V.XTNSIZE#
      6980**DCL      6980--REDEF    6982--REDEF
FPT_CLOSE_STD.SN_
      6928**DCL      6928--REDEF
FPT_CLOSE_STD.UTL_
      6929**DCL      6929--REDEF
FPT_CLOSE_STD.V.EXPIRE#
      6943**DCL      6943--REDEF
FPT_CLOSE_STD.V.TYPE#
      6941**DCL      6941--REDEF
FPT_CLOSE_STD.V.XTNSIZE#
      6938**DCL      6938--REDEF    6940--REDEF
FPT_CLSEI_FT.SN_
      6844**DCL      6844--REDEF
PL6.E3A0      #003=VPD$BREAK File=VPD$UTIL.:E05TSI                               WED 07/30/97 07:20 Page:39
FPT_CLSEI_FT.UTL_
      6845**DCL      6845--REDEF
FPT_CLSEI_FT.V.EXPIRE#
      6859**DCL      6859--REDEF
FPT_CLSEI_FT.V.TYPE#
      6857**DCL      6857--REDEF
FPT_CLSEI_FT.V.XTNSIZE#
      6854**DCL      6854--REDEF    6856--REDEF
FPT_OPEN_EI.ACSVEH_
      6415**DCL      6416--REDEF
FPT_OPEN_EI.ALTKEYS_
      6421**DCL      6422--REDEF    6422--REDEF
FPT_OPEN_EI.HDR_
      6420**DCL      6421--REDEF
FPT_OPEN_EI.TAB_
      6419**DCL      6420--REDEF
FPT_OPEN_EI.UHL_
      6413**DCL      6414--REDEF    6414--REDEF
FPT_OPEN_EI.V.FSN#
      6453**DCL      6453--REDEF    6453--REDEF
FPT_OPEN_EI.WSN_
      6419**DCL      6419--REDEF
FPT_OPEN_EI_SAVE.ACSVEH_
      6524**DCL      6525--REDEF
FPT_OPEN_EI_SAVE.ALTKEYS_
      6530**DCL      6531--REDEF    6531--REDEF
FPT_OPEN_EI_SAVE.HDR_
      6529**DCL      6530--REDEF
FPT_OPEN_EI_SAVE.TAB_
      6528**DCL      6529--REDEF
FPT_OPEN_EI_SAVE.UHL_
      6522**DCL      6523--REDEF    6523--REDEF
FPT_OPEN_EI_SAVE.V.FSN#
      6562**DCL      6562--REDEF    6562--REDEF
FPT_OPEN_EI_SAVE.WSN_
      6528**DCL      6528--REDEF
PL6.E3A0      #003=VPD$BREAK File=VPD$UTIL.:E05TSI                               WED 07/30/97 07:20 Page:40
FPT_OPEN_OUT.ACSVEH_
      6306**DCL      6307--REDEF
FPT_OPEN_OUT.ALTKEYS_
      6312**DCL      6313--REDEF    6313--REDEF
FPT_OPEN_OUT.HDR_
      6311**DCL      6312--REDEF
FPT_OPEN_OUT.TAB_
      6310**DCL      6311--REDEF
FPT_OPEN_OUT.UHL_
      6304**DCL      6305--REDEF    6305--REDEF
FPT_OPEN_OUT.V.FSN#
      6344**DCL      6344--REDEF    6344--REDEF
FPT_OPEN_OUT.WSN_
      6310**DCL      6310--REDEF
FPT_OPEN_OUT_SAVE.ACSVEH_
      6197**DCL      6198--REDEF
FPT_OPEN_OUT_SAVE.ALTKEYS_
      6203**DCL      6204--REDEF    6204--REDEF
FPT_OPEN_OUT_SAVE.HDR_
      6202**DCL      6203--REDEF
FPT_OPEN_OUT_SAVE.TAB_
      6201**DCL      6202--REDEF
FPT_OPEN_OUT_SAVE.UHL_
      6195**DCL      6196--REDEF    6196--REDEF
FPT_OPEN_OUT_SAVE.V.FSN#
      6235**DCL      6235--REDEF    6235--REDEF
FPT_OPEN_OUT_SAVE.WSN_
      6201**DCL      6201--REDEF
FPT_PROMPT
      6068**DCL      7009<>CALL
FPT_PROMPT.PROMPT_
      6074**DCL      7007<<ASSIGN
FPT_READ_STD.STATION_
      6625**DCL      6626--REDEF
FPT_READ_STD.V.DVBYTE.REREAD#
      6637**DCL      6637--REDEF
PL6.E3A0      #003=VPD$BREAK File=VPD$UTIL.:E05TSI                               WED 07/30/97 07:20 Page:41
FPT_READ_STD.V.INDX#
      6635**DCL      6635--REDEF
FPT_READ_UC.STATION_
      6586**DCL      6587--REDEF
FPT_READ_UC.V.DVBYTE.REREAD#
      6598**DCL      6598--REDEF
FPT_READ_UC.V.INDX#
      6596**DCL      6596--REDEF
FPT_WRITE_ME.STATION_
      6694**DCL      6694--REDEF
FPT_WRITE_ME.V.DVBYTE.VFC#
      6701**DCL      6701--REDEF
FPT_WRITE_OUT.STATION_
      6725**DCL      6725--REDEF
FPT_WRITE_OUT.V.DVBYTE.VFC#
      6732**DCL      6732--REDEF
FPT_WRITE_UC.STATION_
      6663**DCL      6663--REDEF
FPT_WRITE_UC.V.DVBYTE.VFC#
      6670**DCL      6670--REDEF
FROM_SN.SN
      5569**DCL      5570--REDEF
GETCMD.OUT$
      4776**DCL      4782--REDEF
GETCMD.PROMPT_
      4980**DCL      7007>>ASSIGN
ICB.FID.STRING
      5593**DCL      5594--REDEF
IFSFA_PARAM.EOMCHAR#
      5948**DCL      5949--REDEF
IFSFA_PARAM.SIG1
      5942**DCL      5942--REDEF
IFSFA_PARAM.SIG2
      5942**DCL      5943--REDEF
IN_RES
      5515**DCL      5515--REDEF
PL6.E3A0      #003=VPD$BREAK File=VPD$UTIL.:E05TSI                               WED 07/30/97 07:20 Page:42
IN_SN.SN
      5531**DCL      5532--REDEF
M$PROMPT
        57**DCL-ENT  7009--CALL
OCB.TYPE
      5277**DCL      5278--REDEF
OFSFA_PARAM.EOMCHAR#
      5978**DCL      5979--REDEF
OFSFA_PARAM.SIG1
      5972**DCL      5972--REDEF
OFSFA_PARAM.SIG2
      5972**DCL      5973--REDEF
OUT_SN.SN
      5549**DCL      5550--REDEF
SPEC_BUF
      5227**DCL      5227--REDEF

PL6.E3A0      #004=VPD$CHECK_VOL File=VPD$UTIL.:E05TSI                           WED 07/30/97 07:22 Page:43
      109        1        /*T***********************************************************/
      110        2        /*T*                                                         */
      111        3        /*T* Copyright (c) Bull HN Information Systems Inc., 1997    */
      112        4        /*T*                                                         */
      113        5        /*T***********************************************************/
      114        6        VPD$CHECK_VOL: PROC(SN_LIST,FUN,DCBNM,VOL,DIR);
      115        7        /*D* NAME: VPD$CHECK_VOL
      116        8             CALL: CALL VPD$CHECK_VOL(SN_LIST,FUN,DCBNM,VOL,DIR);
      117        9             DESCRIPTION: This routine makes checks for VOLume transition and
      118       10                          maintains the data necessary for these checks.
      119       11                  FUN     ACTION
      120       12                  ---     ------
      121       13                    0     Check for volume transition on the DCBNM.  If it
      122       14                          is detected, print the new vol from SN_LIST.
      123       15                    1     Remove the tape set described by SN_LIST.
      124       16                    2     Force the current volume for the tape set described
      125       17                          by SN_LIST to be VOL.
      126       18                    3     Find out whan the current volume is for the set
      127       19                          described by SN_LIST.  Return it in VOL.
      128       20                  DIR = 0 indicates input, DIR = 1 is output, DIR = 2 is unknown.
      129       21           FUN  ACTION  SN_LIST  DCBNM  VOL  DIR       (CACHE)
      130       22           ---  ------  -------  -----  ---  ---       -------
      131       23            0   CHECK      Y       Y    USED USED       USED
      132       24            1   REMOVE     Y                 UNKNOWN
      133       25            2   FORCE      Y            USED USED       SET-IF-DIR-KNOWN
      134       26            3   INQUIRE    Y            SET  USED       SET-IF-DIR-KNOWN
      135       27            A cache for VOL is used by CHECK to avoid excessive calls to M$CMDVAR.
      136       28            The cache is keyed by DIR.  The cache is initialized by FORCE or
      137       29            INQUIRE.  One of these MUST be used before trying a CHECK.
      138       30        */
      139       31        %INCLUDE VP_DATA_R;
      140     7018        %INCLUDE F$DCB;
      141     7067        /**/
      142     7068        /*  ENTRY DCLS  */
      143     7069        /**/
      144     7070        %VP_ENTRIES (OMIT=VPD$CHECK_VOL);
      145     7278        /**/
PL6.E3A0      #004=VPD$CHECK_VOL File=VPD$UTIL.:E05TSI                           WED 07/30/97 07:22 Page:44
      146     7279        /*  PARAMETERS  */
      147     7280        /**/
      148     7281        %PCL_SN(FPTN = SN_LIST,STCLASS = "");
      149     7299    1   DCL DCBNM SBIN WORD;
      150     7300    1   DCL FUN SBIN WORD;
      151     7301    1   DCL VOL SBIN WORD;
      152     7302    1   DCL DIR SBIN WORD;
      153     7303        /**/
      154     7304        /*  CONSTANTs  */
      155     7305        /**/
      156     7306        %VLP_NAME(FPTN = PRIVATE_NAME,LEN = 31,NAME = 'PCL',STCLASS = CONSTANT);
      157     7333        %VLP_ACCT(FPTN = PRIVATE_ACCT,ACCT = ':SYS',STCLASS = CONSTANT);
      158     7346        %VLP_SN(FPTN = PRIVATE_PSN,N = 1,SN = 'SYS',STCLASS = CONSTANT);
      159     7359        /**/
      160     7360        /*  LOCAL STORAGE  */
      161     7361        /**/
      162     7362    1   DCL 1 TEXTC,
      163     7363    1         2 C UBIN(9) UNAL,
      164     7364    1         2 TEXT CHAR(31);
      165     7365    1   DCL 1 CMDVAR_NAME STATIC,
      166     7366    1         2 LEN UBIN(9) UNAL,
      167     7367    1         2 INTRO CHAR(12) INIT('PCL_TAPESET_'),
      168     7368              %PCL_SN(FPTN = VOL,LVL = 2);
      169     7386    1   DCL 1 CMDVAR_VAL STATIC,
      170     7387    1         2 LEN UBIN(9) UNAL,
      171     7388    1         2 TEXT CHAR(80),
      172     7389    1         2 PART REDEF TEXT,
      173     7390    1           3 FIRST CHAR(5),
      174     7391    1           3 REST CHAR(75);
      175     7392        %FPT_CMDVAR(FPTN = FPT_CMDVAR,
      176     7393                    PRIVATE = YES,
      177     7394                    PNAME = PRIVATE_NAME,
      178     7395                    PACCT = PRIVATE_ACCT,
      179     7396                    PPSN = PRIVATE_PSN,
      180     7397                    NAME = CMDVAR_NAME,
      181     7398                    VALUE = CMDVAR_VAL);
      182     7415    1   DCL DCB$ PTR;
PL6.E3A0      #004=VPD$CHECK_VOL File=VPD$UTIL.:E05TSI                           WED 07/30/97 07:22 Page:45
      183     7416    1   DCL I SBIN WORD;
      184     7417    1   DCL J SBIN WORD;
      185     7418    1   DCL TELL_HIM BIT(1);
      186     7419        %EJECT;
PL6.E3A0      #004=VPD$CHECK_VOL File=VPD$UTIL.:E05TSI                           WED 07/30/97 07:22 Page:46
      187     7420    2           DO CASE(FUN);
      188     7421    2            CASE(0);                       /* Check for VOL transition           */
      189     7422    2              DCB$ = DCBADDR(DCBNM);       /* Point to DCB in question           */
      190     7423    2              IF DCB$ -> F$DCB.VOL ~= LAST_VOL(DIR) /* Compare to cache          */
      191     7424    2               THEN                        /* VOLume transition occured          */
      192     7425    3               DO;
      193     7426    3                  IF LAST_VOL(DIR) = 0
      194     7427    3                    AND DCB$ -> F$DCB.VOL = 1
      195     7428    3                   THEN                    /* Very first message!                */
      196     7429    3                     TELL_HIM = '0'B;
      197     7430    3                   ELSE
      198     7431    3                     TELL_HIM = '1'B;
      199     7432    3                  LAST_VOL(DIR) = DCB$ -> F$DCB.VOL; /* Update cache             */
      200     7433    3                  CALL BINCHAR(CMDVAR_VAL.PART.FIRST,LAST_VOL(DIR));
      201     7434    3                  CMDVAR_VAL.LEN = 5;
      202     7435    3                  FPT_CMDVAR.V.FUN# =    1;/* STORE                              */
      203     7436    3                  CALL CMD_NAME;           /* Update CMD VAR                     */
      204     7437    3                  IF NOT TELL_HIM
      205     7438    3                   THEN                    /* Unknown SN list                    */
      206     7439    3                     GOTO CHK_DONE;        /* Ignore first transition            */
      207     7440    3                  IF LAST_VOL(DIR) > SN_LIST.COUNT
      208     7441    3                   THEN                    /* New VOL isn't in SN_LIST           */
      209     7442    3                     CALL VPL$ERR_PROC(0,210,'40'O);
      210     7443        /*E* ERROR:   VPD-00210
      211     7444             MESSAGE: Switching to a scratch volume
      212     7445        */
      213     7446    3                   ELSE                    /* New VOL is in list, print its name */
      214     7447    4                   DO;
      215     7448    4                      TEXTC.TEXT = SN_LIST.SN(LAST_VOL(DIR) -1);
      216     7449    4                      TEXTC.C = 6;
      217     7450    4                      CALL VPL$ERR_PROC(0,200,'04'O,,VECTOR(TEXTC));
      218     7451        /*E* ERROR:   VPD-00200
      219     7452             MESSAGE: Switching to volume #%U1
      220     7453        */
      221     7454    4                      END;
      222     7455    3   CHK_DONE:      ;
      223     7456    3                  END;
PL6.E3A0      #004=VPD$CHECK_VOL File=VPD$UTIL.:E05TSI                           WED 07/30/97 07:22 Page:47
      224     7457        %EJECT;
PL6.E3A0      #004=VPD$CHECK_VOL File=VPD$UTIL.:E05TSI                           WED 07/30/97 07:22 Page:48
      225     7458    2            CASE(1);                       /* REMOVE the set                     */
      226     7459    2              FPT_CMDVAR.V.FUN# = 3;       /* DELETE                             */
      227     7460    2              CALL CMD_NAME;
      228     7461    2            CASE(2);                       /* FORCE volume                       */
      229     7462    2              CALL BINCHAR(CMDVAR_VAL.PART.FIRST,VOL);
      230     7463    2              FPT_CMDVAR.V.FUN# = 1;       /* STORE                              */
      231     7464    2              CMDVAR_VAL.LEN = 5;
      232     7465    2              CALL CMD_NAME;
      233     7466    2              LAST_VOL(DIR) = VOL;         /* Init cache                         */
      234     7467    2            CASE(3);                       /* INQUIRE                            */
      235     7468    2              FPT_CMDVAR.V.FUN# = 2;       /* FETCH                              */
      236     7469    2              CALL CMD_NAME;
      237     7470    2              CALL CHARBIN(VOL,CMDVAR_VAL.PART.FIRST);
      238     7471    2              LAST_VOL(DIR) = VOL;         /* Init cache                         */
      239     7472    2            END;                           /* END DO CASE                        */
      240     7473    1           RETURN;
      241     7474        %EJECT;
PL6.E3A0      #004=VPD$CHECK_VOL File=VPD$UTIL.:E05TSI                           WED 07/30/97 07:22 Page:49
      242     7475    1   CMD_NAME: PROC;
      243     7476                                                /* Make the command variable name     */
      244     7477    3           DO I = 0 TO SN_LIST.COUNT -1;
      245     7478    3              CMDVAR_NAME.VOL.SN(I) = SN_LIST.SN(I);
      246     7479    3              END;
      247     7480    2           CMDVAR_NAME.LEN = 16 + SN_LIST.COUNT * 6;
      248     7481
      249     7482    2           CALL M$CMDVAR(FPT_CMDVAR) ALTRET(BAD_CMDVAR);
      250     7483    2           RETURN;
      251     7484
      252     7485    2   BAD_CMDVAR: ;
      253     7486    2           CMDVAR_VAL.PART.FIRST = '00000'; /* Assume VOL for unknown set = 0    */
      254     7487    2           RETURN;
      255     7488    2   END CMD_NAME;
      256     7489    1   END VPD$CHECK_VOL;
      257     7490        %EOD;

PL6.E3A0      #004=VPD$CHECK_VOL File=VPD$UTIL.:E05TSI                           WED 07/30/97 07:22 Page:50
--  Include file information  --

   F$DCB.:E05TOU  cannot be made into a system file and is referenced.
   B_MICROPS_C.:E05TOU  is referenced.
   XU_MACRO_C.:E05TOU  is referenced.
   VP_MACRO_C.:E05TOU  is referenced.
   XS_MACRO_C.:E05TOU  is referenced.
   VP_PERR_C.:E05TOU  is referenced.
   CP_6_SUBS.:E05TOU  is referenced.
   CP_6.:E05TOU  cannot be made into a system file and is referenced.
   VP_DATA_R.:E05TOU  cannot be made into a system file and is referenced.
   B$JIT_C.:E05TOU  was found in the system file and is never referenced.
   CP_6_C.:E05TOU  was found in the system file and is referenced.
      No diagnostics issued in procedure VPD$CHECK_VOL.

   Procedure VPD$CHECK_VOL requires 153 words for executable code.
   Procedure VPD$CHECK_VOL requires 32 words of local(AUTO) storage.

PL6.E3A0      #004=VPD$CHECK_VOL File=VPD$UTIL.:E05TSI                           WED 07/30/97 07:22 Page:51

 Object Unit name= VPD$CHECK_VOL                              File name= VPD$UTIL.:E05TOU
 UTS= JUL 30 '97 07:22:22.08 WED                              Compiler= PL-6/E31         Sev=      00
 SharedLib= :SHARED_SYSTEM                                    Alt SharedLib=


    ****  Control sections  ****

 Sect   Type Bound  Init  Size OctSiz  Section name(segment info)
    0   DCB   even  none     0      0  M$UC
    1   DCB   even  none     0      0  M$EI
    2   DCB   even  none     0      0  M$EO
    3   DCB   even  none     0      0  M$EO1
    4   DCB   even  none     0      0  M$ME
    5   DCB   even  none     0      0  M$SI
    6   DCB   even  none     0      0  M$READFILE
    7   DCB   even  none     0      0  M$DO
    8   DCB   even  none     0      0  M$STD1
    9   DCB   even  none     0      0  M$SORT1
   10  RoData even  UTS     16     20  VPD$CHECK_VOL
   11   Data  even  none    70    106  VPD$CHECK_VOL
   12   Proc  even  none   153    231  VPD$CHECK_VOL
   13  RoData even  none    12     14  VPD$CHECK_VOL

    ****  Entry defs  ****

                              Check   Calling
                             calling  sequence
  Sect OctLoc Primary Altret sequence   type   Parms  Name
    12      0   yes            yes      Std        5  VPD$CHECK_VOL
PL6.E3A0      #004=VPD$CHECK_VOL File=VPD$UTIL.:E05TSI                           WED 07/30/97 07:22 Page:52

  ****  Entry refs  ****

         Check        Calling
        calling       sequence
Altret sequence SRef   type   Args  Name
         yes           Std       8 VPL$ERR_PROC
                       nStd      0 X66_AUTO_5
                       Std       0 B_CONSPOOL_D
                       nStd      0 X66_ARET

  ****  Data refs  ****

  Flags:  r = read only, s = secondary
Flgs Name                             Flgs Name                             Flgs Name
     M$UC                                  BREAK_LOC                             BREAK_MESSAGE_REPORTER
     SPEC_BUF                              IN_RES                                LAST_VOL
     M$EI                                  M$EO                                  M$EO1
     M$ME                                  M$SI                                  M$READFILE
     M$DO                                  M$STD1                                M$SORT1
     B_VECTNIL

  ****  Segment refs  ****

  Flags:  r = read only, s = secondary
Flgs Name                             Flgs Name                             Flgs Name
     ISSID                                 ROSID
PL6.E3A0      #004=VPD$CHECK_VOL File=VPD$UTIL.:E05TSI                           WED 07/30/97 07:22 Page:53


      109        1        /*T***********************************************************/
      110        2        /*T*                                                         */
      111        3        /*T* Copyright (c) Bull HN Information Systems Inc., 1997    */
      112        4        /*T*                                                         */
      113        5        /*T***********************************************************/
      114        6        VPD$CHECK_VOL: PROC(SN_LIST,FUN,DCBNM,VOL,DIR);

      6 12 000000   000000 700200 xent  VPD$CHECK_V* TSX0  ! X66_AUTO_5
        12 000001   000040 000005                    ZERO    32,5

      115        7        /*D* NAME: VPD$CHECK_VOL
      116        8             CALL: CALL VPD$CHECK_VOL(SN_LIST,FUN,DCBNM,VOL,DIR);
      117        9             DESCRIPTION: This routine makes checks for VOLume transition and
      118       10                          maintains the data necessary for these checks.
      119       11                  FUN     ACTION
      120       12                  ---     ------
      121       13                    0     Check for volume transition on the DCBNM.  If it
      122       14                          is detected, print the new vol from SN_LIST.
      123       15                    1     Remove the tape set described by SN_LIST.
      124       16                    2     Force the current volume for the tape set described
      125       17                          by SN_LIST to be VOL.
      126       18                    3     Find out whan the current volume is for the set
      127       19                          described by SN_LIST.  Return it in VOL.
      128       20                  DIR = 0 indicates input, DIR = 1 is output, DIR = 2 is unknown.
      129       21           FUN  ACTION  SN_LIST  DCBNM  VOL  DIR       (CACHE)
      130       22           ---  ------  -------  -----  ---  ---       -------
      131       23            0   CHECK      Y       Y    USED USED       USED
      132       24            1   REMOVE     Y                 UNKNOWN
      133       25            2   FORCE      Y            USED USED       SET-IF-DIR-KNOWN
      134       26            3   INQUIRE    Y            SET  USED       SET-IF-DIR-KNOWN
      135       27            A cache for VOL is used by CHECK to avoid excessive calls to M$CMDVAR.
      136       28            The cache is keyed by DIR.  The cache is initialized by FORCE or
      137       29            INQUIRE.  One of these MUST be used before trying a CHECK.
      138       30        */
      139       31        %INCLUDE VP_DATA_R;
      140     7018        %INCLUDE F$DCB;
PL6.E3A0      #004=VPD$CHECK_VOL File=VPD$UTIL.:E05TSI                           WED 07/30/97 07:22 Page:54
      141     7067        /**/
      142     7068        /*  ENTRY DCLS  */
      143     7069        /**/
      144     7070        %VP_ENTRIES (OMIT=VPD$CHECK_VOL);
      145     7278        /**/
      146     7279        /*  PARAMETERS  */
      147     7280        /**/
      148     7281        %PCL_SN(FPTN = SN_LIST,STCLASS = "");
      149     7299    1   DCL DCBNM SBIN WORD;
      150     7300    1   DCL FUN SBIN WORD;
      151     7301    1   DCL VOL SBIN WORD;
      152     7302    1   DCL DIR SBIN WORD;
      153     7303        /**/
      154     7304        /*  CONSTANTs  */
      155     7305        /**/
      156     7306        %VLP_NAME(FPTN = PRIVATE_NAME,LEN = 31,NAME = 'PCL',STCLASS = CONSTANT);
      157     7333        %VLP_ACCT(FPTN = PRIVATE_ACCT,ACCT = ':SYS',STCLASS = CONSTANT);
      158     7346        %VLP_SN(FPTN = PRIVATE_PSN,N = 1,SN = 'SYS',STCLASS = CONSTANT);
      159     7359        /**/
      160     7360        /*  LOCAL STORAGE  */
      161     7361        /**/
      162     7362    1   DCL 1 TEXTC,
      163     7363    1         2 C UBIN(9) UNAL,
      164     7364    1         2 TEXT CHAR(31);
      165     7365    1   DCL 1 CMDVAR_NAME STATIC,
      166     7366    1         2 LEN UBIN(9) UNAL,
      167     7367    1         2 INTRO CHAR(12) INIT('PCL_TAPESET_'),
      168     7368              %PCL_SN(FPTN = VOL,LVL = 2);
      169     7386    1   DCL 1 CMDVAR_VAL STATIC,
      170     7387    1         2 LEN UBIN(9) UNAL,
      171     7388    1         2 TEXT CHAR(80),
      172     7389    1         2 PART REDEF TEXT,
      173     7390    1           3 FIRST CHAR(5),
      174     7391    1           3 REST CHAR(75);
      175     7392        %FPT_CMDVAR(FPTN = FPT_CMDVAR,
      176     7393                    PRIVATE = YES,
      177     7394                    PNAME = PRIVATE_NAME,
PL6.E3A0      #004=VPD$CHECK_VOL File=VPD$UTIL.:E05TSI                           WED 07/30/97 07:22 Page:55
      178     7395                    PACCT = PRIVATE_ACCT,
      179     7396                    PPSN = PRIVATE_PSN,
      180     7397                    NAME = CMDVAR_NAME,
      181     7398                    VALUE = CMDVAR_VAL);
      182     7415    1   DCL DCB$ PTR;
      183     7416    1   DCL I SBIN WORD;
      184     7417    1   DCL J SBIN WORD;
      185     7418    1   DCL TELL_HIM BIT(1);
      186     7419        %EJECT;
PL6.E3A0      #004=VPD$CHECK_VOL File=VPD$UTIL.:E05TSI                           WED 07/30/97 07:22 Page:56
      187     7420    2           DO CASE(FUN);

   7420 12 000002   200004 470500                    LDP0    @FUN,,AUTO
        12 000003   000000 235100                    LDA     0,,PR0
        12 000004   000004 115007                    CMPA    4,DL
        12 000005   000007 602005 12                 TNC     s:7420+5,AL
        12 000006   000172 710000 12                 TRA     s:7473
        12 000007   000013 710000 12                 TRA     s:7422
        12 000010   000131 710000 12                 TRA     s:7459
        12 000011   000136 710000 12                 TRA     s:7462
        12 000012   000156 710000 12                 TRA     s:7468

      188     7421    2            CASE(0);                       /* Check for VOL transition           */

      189     7422    2              DCB$ = DCBADDR(DCBNM);       /* Point to DCB in question           */

   7422 12 000013   000000 471400 13                 LDP1    0
        12 000014   100000 473500                    LDP3    0,,PR1
        12 000015   200005 474500                    LDP4    @DCBNM,,AUTO
        12 000016   400000 720100                    LXL0    0,,PR4
        12 000017   300000 236110                    LDQ     0,X0,PR3
        12 000020   200020 756100                    STQ     DCB$,,AUTO

      190     7423    2              IF DCB$ -> F$DCB.VOL ~= LAST_VOL(DIR) /* Compare to cache          */

   7423 12 000021   200007 475500                    LDP5    @DIR,,AUTO
        12 000022   500000 721100                    LXL1    0,,PR5
        12 000023   200020 476500                    LDP6    DCB$,,AUTO
        12 000024   600043 236100                    LDQ     35,,PR6
        12 000025   000033 772000                    QRL     27
        12 000026   000000 116011 xsym               CMPQ    LAST_VOL,X1
        12 000027   000172 600000 12                 TZE     s:7473

      191     7424    2               THEN                        /* VOLume transition occured          */
      192     7425    3               DO;

      193     7426    3                  IF LAST_VOL(DIR) = 0
PL6.E3A0      #004=VPD$CHECK_VOL File=VPD$UTIL.:E05TSI                           WED 07/30/97 07:22 Page:57

   7426 12 000030   500000 721100                    LXL1    0,,PR5
        12 000031   000000 235011 xsym               LDA     LAST_VOL,X1
        12 000032   000040 601000 12                 TNZ     s:7431
        12 000033   000033 736000                    QLS     27
        12 000034   001000 116003                    CMPQ    512,DU
        12 000035   000040 601000 12                 TNZ     s:7431

      194     7427    3                    AND DCB$ -> F$DCB.VOL = 1
      195     7428    3                   THEN                    /* Very first message!                */
      196     7429    3                     TELL_HIM = '0'B;

   7429 12 000036   200023 450100                    STZ     TELL_HIM,,AUTO
        12 000037   000042 710000 12                 TRA     s:7432

      197     7430    3                   ELSE
      198     7431    3                     TELL_HIM = '1'B;

   7431 12 000040   400000 236003                    LDQ     -131072,DU
        12 000041   200023 756100                    STQ     TELL_HIM,,AUTO

      199     7432    3                  LAST_VOL(DIR) = DCB$ -> F$DCB.VOL; /* Update cache             */

   7432 12 000042   500000 721100                    LXL1    0,,PR5
        12 000043   600043 236100                    LDQ     35,,PR6
        12 000044   000033 772000                    QRL     27
        12 000045   000000 756011 xsym               STQ     LAST_VOL,X1

      200     7433    3                  CALL BINCHAR(CMDVAR_VAL.PART.FIRST,LAST_VOL(DIR));

   7433 12 000046   500000 720100                    LXL0    0,,PR5
        12 000047   000000 635010                    EAA     0,X0
        12 000050   000020 771000                    ARL     16
        12 000051   000000 301405                    BTD
        12 000052   000000 000004 xsym               NDSC9   LAST_VOL,A               cn=0,s=lsgnf,sf=0,n=4
        12 000053   000043 230005 11                 NDSC9   CMDVAR_VAL               cn=1,s=nosgn,sf=0,n=5

PL6.E3A0      #004=VPD$CHECK_VOL File=VPD$UTIL.:E05TSI                           WED 07/30/97 07:22 Page:58
      201     7434    3                  CMDVAR_VAL.LEN = 5;

   7434 12 000054   005000 236003                    LDQ     2560,DU
        12 000055   000043 552040 11                 STBQ    CMDVAR_VAL,'40'O

      202     7435    3                  FPT_CMDVAR.V.FUN# =    1;/* STORE                              */

   7435 12 000056   001000 236003                    LDQ     512,DU
        12 000057   000104 552040 11                 STBQ    FPT_CMDVAR+12,'40'O

      203     7436    3                  CALL CMD_NAME;           /* Update CMD VAR                     */

   7436 12 000060   000173 701000 12                 TSX1    CMD_NAME
        12 000061   000000 011000                    NOP     0

      204     7437    3                  IF NOT TELL_HIM

   7437 12 000062   200023 234100                    SZN     TELL_HIM,,AUTO
        12 000063   000130 605000 12                 TPL     CHK_DONE

      205     7438    3                   THEN                    /* Unknown SN list                    */
      206     7439    3                     GOTO CHK_DONE;        /* Ignore first transition            */
      207     7440    3                  IF LAST_VOL(DIR) > SN_LIST.COUNT

   7440 12 000064   200007 470500                    LDP0    @DIR,,AUTO
        12 000065   000000 720100                    LXL0    0,,PR0
        12 000066   200003 471500                    LDP1    @SN_LIST,,AUTO
        12 000067   000000 236010 xsym               LDQ     LAST_VOL,X0
        12 000070   100000 116100                    CMPQ    0,,PR1
        12 000071   000077 604400 12                 TMOZ    s:7448

      208     7441    3                   THEN                    /* New VOL isn't in SN_LIST           */
      209     7442    3                     CALL VPL$ERR_PROC(0,210,'40'O);

   7442 12 000072   000002 630400 13                 EPPR0   2
        12 000073   000021 631400 xsym               EPPR1   B_VECTNIL+17
        12 000074   000000 701000 xent               TSX1    VPL$ERR_PROC
PL6.E3A0      #004=VPD$CHECK_VOL File=VPD$UTIL.:E05TSI                           WED 07/30/97 07:22 Page:59
        12 000075   000000 011000                    NOP     0
        12 000076   000130 710000 12                 TRA     CHK_DONE

      210     7443        /*E* ERROR:   VPD-00210
      211     7444             MESSAGE: Switching to a scratch volume
      212     7445        */
      213     7446    3                   ELSE                    /* New VOL is in list, print its name */
      214     7447    4                   DO;

      215     7448    4                      TEXTC.TEXT = SN_LIST.SN(LAST_VOL(DIR) -1);

   7448 12 000077   000000 720100                    LXL0    0,,PR0
        12 000100   000000 235010 xsym               LDA     LAST_VOL,X0
        12 000101   000044 733000                    LRS     36
        12 000102   000006 402007                    MPY     6,DL
        12 000103   040100 100506                    MLR     fill='040'O
        12 000104   177777 400006                    ADSC9   -1,Q,PR1                 cn=2,n=6
        12 000105   200010 200037                    ADSC9   TEXTC,,AUTO              cn=1,n=31

      216     7449    4                      TEXTC.C = 6;

   7449 12 000106   006000 236003                    LDQ     3072,DU
        12 000107   200010 552140                    STBQ    TEXTC,'40'O,AUTO

      217     7450    4                      CALL VPL$ERR_PROC(0,200,'04'O,,VECTOR(TEXTC));

   7450 12 000110   000005 235000 13                 LDA     5
        12 000111   200026 452500                    STP2    TELL_HIM+3,,AUTO
        12 000112   200026 236100                    LDQ     TELL_HIM+3,,AUTO
        12 000113   000010 036003                    ADLQ    8,DU
        12 000114   200030 757100                    STAQ    TELL_HIM+5,,AUTO
        12 000115   200030 633500                    EPPR3   TELL_HIM+5,,AUTO
        12 000116   200036 453500                    STP3    TELL_HIM+11,,AUTO
        12 000117   000001 236000 xsym               LDQ     B_VECTNIL+1
        12 000120   000010 235000 13                 LDA     8
        12 000121   200034 757100                    STAQ    TELL_HIM+9,,AUTO
        12 000122   000012 237000 13                 LDAQ    10
PL6.E3A0      #004=VPD$CHECK_VOL File=VPD$UTIL.:E05TSI                           WED 07/30/97 07:22 Page:60
        12 000123   200032 757100                    STAQ    TELL_HIM+7,,AUTO
        12 000124   200032 630500                    EPPR0   TELL_HIM+7,,AUTO
        12 000125   000023 631400 xsym               EPPR1   B_VECTNIL+19
        12 000126   000000 701000 xent               TSX1    VPL$ERR_PROC
        12 000127   000000 011000                    NOP     0

      218     7451        /*E* ERROR:   VPD-00200
      219     7452             MESSAGE: Switching to volume #%U1
      220     7453        */
      221     7454    4                      END;

   7450 12 000130                       CHK_DONE     null
      222     7455    3   CHK_DONE:      ;
      223     7456    3                  END;

   7456 12 000130   000172 710000 12                 TRA     s:7473

      224     7457        %EJECT;
PL6.E3A0      #004=VPD$CHECK_VOL File=VPD$UTIL.:E05TSI                           WED 07/30/97 07:22 Page:61
      225     7458    2            CASE(1);                       /* REMOVE the set                     */

      226     7459    2              FPT_CMDVAR.V.FUN# = 3;       /* DELETE                             */

   7459 12 000131   003000 236003                    LDQ     1536,DU
        12 000132   000104 552040 11                 STBQ    FPT_CMDVAR+12,'40'O

      227     7460    2              CALL CMD_NAME;

   7460 12 000133   000173 701000 12                 TSX1    CMD_NAME
        12 000134   000000 011000                    NOP     0
        12 000135   000172 710000 12                 TRA     s:7473

      228     7461    2            CASE(2);                       /* FORCE volume                       */

      229     7462    2              CALL BINCHAR(CMDVAR_VAL.PART.FIRST,VOL);

   7462 12 000136   200006 471500                    LDP1    @VOL,,AUTO
        12 000137   000000 301500                    BTD
        12 000140   100000 000004                    NDSC9   0,,PR1                   cn=0,s=lsgnf,sf=0,n=4
        12 000141   000043 230005 11                 NDSC9   CMDVAR_VAL               cn=1,s=nosgn,sf=0,n=5

      230     7463    2              FPT_CMDVAR.V.FUN# = 1;       /* STORE                              */

   7463 12 000142   001000 236003                    LDQ     512,DU
        12 000143   000104 552040 11                 STBQ    FPT_CMDVAR+12,'40'O

      231     7464    2              CMDVAR_VAL.LEN = 5;

   7464 12 000144   005000 236003                    LDQ     2560,DU
        12 000145   000043 552040 11                 STBQ    CMDVAR_VAL,'40'O

      232     7465    2              CALL CMD_NAME;

   7465 12 000146   000173 701000 12                 TSX1    CMD_NAME
        12 000147   000000 011000                    NOP     0

PL6.E3A0      #004=VPD$CHECK_VOL File=VPD$UTIL.:E05TSI                           WED 07/30/97 07:22 Page:62
      233     7466    2              LAST_VOL(DIR) = VOL;         /* Init cache                         */

   7466 12 000150   200007 470500                    LDP0    @DIR,,AUTO
        12 000151   000000 720100                    LXL0    0,,PR0
        12 000152   200006 471500                    LDP1    @VOL,,AUTO
        12 000153   100000 235100                    LDA     0,,PR1
        12 000154   000000 755010 xsym               STA     LAST_VOL,X0
        12 000155   000172 710000 12                 TRA     s:7473

      234     7467    2            CASE(3);                       /* INQUIRE                            */

      235     7468    2              FPT_CMDVAR.V.FUN# = 2;       /* FETCH                              */

   7468 12 000156   002000 236003                    LDQ     1024,DU
        12 000157   000104 552040 11                 STBQ    FPT_CMDVAR+12,'40'O

      236     7469    2              CALL CMD_NAME;

   7469 12 000160   000173 701000 12                 TSX1    CMD_NAME
        12 000161   000000 011000                    NOP     0

      237     7470    2              CALL CHARBIN(VOL,CMDVAR_VAL.PART.FIRST);

   7470 12 000162   200006 470500                    LDP0    @VOL,,AUTO
        12 000163   000100 305400                    DTB
        12 000164   000043 230005 11                 NDSC9   CMDVAR_VAL               cn=1,s=nosgn,sf=0,n=5
        12 000165   000000 000004                    NDSC9   0,,PR0                   cn=0,s=lsgnf,sf=0,n=4

      238     7471    2              LAST_VOL(DIR) = VOL;         /* Init cache                         */

   7471 12 000166   200007 471500                    LDP1    @DIR,,AUTO
        12 000167   100000 720100                    LXL0    0,,PR1
        12 000170   000000 235100                    LDA     0,,PR0
        12 000171   000000 755010 xsym               STA     LAST_VOL,X0

      239     7472    2            END;                           /* END DO CASE                        */

PL6.E3A0      #004=VPD$CHECK_VOL File=VPD$UTIL.:E05TSI                           WED 07/30/97 07:22 Page:63
      240     7473    1           RETURN;

   7473 12 000172   000000 702200 xent               TSX2  ! X66_ARET

      241     7474        %EJECT;
PL6.E3A0      #004=VPD$CHECK_VOL File=VPD$UTIL.:E05TSI                           WED 07/30/97 07:22 Page:64
      242     7475    1   CMD_NAME: PROC;

   7475 12 000173   200024 741300       CMD_NAME     STX1  ! TELL_HIM+1,,AUTO

      243     7476                                                /* Make the command variable name     */
      244     7477    3           DO I = 0 TO SN_LIST.COUNT -1;

   7477 12 000174   200021 450100                    STZ     I,,AUTO
        12 000175   000205 710000 12                 TRA     s:7479+1

      245     7478    3              CMDVAR_NAME.VOL.SN(I) = SN_LIST.SN(I);

   7478 12 000176   200021 236100                    LDQ     I,,AUTO
        12 000177   000006 402007                    MPY     6,DL
        12 000200   200003 470500                    LDP0    @SN_LIST,,AUTO
        12 000201   040006 100506                    MLR     fill='040'O
        12 000202   000001 000006                    ADSC9   1,Q,PR0                  cn=0,n=6
        12 000203   000004 200006 11                 ADSC9   CMDVAR_NAME+4,Q          cn=1,n=6

      246     7479    3              END;

   7479 12 000204   200021 054100                    AOS     I,,AUTO
        12 000205   200003 470500                    LDP0    @SN_LIST,,AUTO
        12 000206   200021 236100                    LDQ     I,,AUTO
        12 000207   000000 116100                    CMPQ    0,,PR0
        12 000210   000176 604000 12                 TMI     s:7478

      247     7480    2           CMDVAR_NAME.LEN = 16 + SN_LIST.COUNT * 6;

   7480 12 000211   000000 236100                    LDQ     0,,PR0
        12 000212   000006 402007                    MPY     6,DL
        12 000213   000020 036007                    ADLQ    16,DL
        12 000214   000033 736000                    QLS     27
        12 000215   000000 552040 11                 STBQ    CMDVAR_NAME,'40'O

      248     7481
      249     7482    2           CALL M$CMDVAR(FPT_CMDVAR) ALTRET(BAD_CMDVAR);
PL6.E3A0      #004=VPD$CHECK_VOL File=VPD$UTIL.:E05TSI                           WED 07/30/97 07:22 Page:65

   7482 12 000216   000070 630400 11                 EPPR0   FPT_CMDVAR
        12 000217   420025 713400                    CLIMB   alt,+8213
        12 000220   402400 401760                    pmme    nvectors=6
        12 000221   000224 702000 12                 TSX2    BAD_CMDVAR

      250     7483    2           RETURN;

   7483 12 000222   200024 221300                    LDX1  ! TELL_HIM+1,,AUTO
        12 000223   000001 702211                    TSX2  ! 1,X1

   7480 12 000224                       BAD_CMDVAR   null
      251     7484
      252     7485    2   BAD_CMDVAR: ;
      253     7486    2           CMDVAR_VAL.PART.FIRST = '00000'; /* Assume VOL for unknown set = 0    */

   7486 12 000224   040000 100400                    MLR     fill='040'O
        12 000225   000016 000005 10                 ADSC9   PRIVATE_PSN+4            cn=0,n=5
        12 000226   000043 200005 11                 ADSC9   CMDVAR_VAL               cn=1,n=5

      254     7487    2           RETURN;

   7487 12 000227   200024 221300                    LDX1  ! TELL_HIM+1,,AUTO
        12 000230   000001 702211                    TSX2  ! 1,X1
      255     7488    2   END CMD_NAME;
      256     7489    1   END VPD$CHECK_VOL;
      257     7490        %EOD;

PL6.E3A0      #004=VPD$CHECK_VOL File=VPD$UTIL.:E05TSI                           WED 07/30/97 07:22 Page:66
--  Include file information  --

   F$DCB.:E05TOU  cannot be made into a system file and is referenced.
   B_MICROPS_C.:E05TOU  is referenced.
   XU_MACRO_C.:E05TOU  is referenced.
   VP_MACRO_C.:E05TOU  is referenced.
   XS_MACRO_C.:E05TOU  is referenced.
   VP_PERR_C.:E05TOU  is referenced.
   CP_6_SUBS.:E05TOU  is referenced.
   CP_6.:E05TOU  cannot be made into a system file and is referenced.
   VP_DATA_R.:E05TOU  cannot be made into a system file and is referenced.
   B$JIT_C.:E05TOU  was found in the system file and is never referenced.
   CP_6_C.:E05TOU  was found in the system file and is referenced.
      No diagnostics issued in procedure VPD$CHECK_VOL.
PL6.E3A0      #004=VPD$CHECK_VOL File=VPD$UTIL.:E05TSI                           WED 07/30/97 07:22 Page:67

 **** Variables and constants ****

  ****  Section 010 RoData VPD$CHECK_VOL

  ****  Scalars and arrays  ****
OctLoc.c.b A Datatyp(siz) R M Lvl/name                 OctLoc.c.b A Datatyp(siz) R M Lvl/name

    10-0-0/c STRC(72)    r     1 PRIVATE_ACCT               0-0-0/c STRC(288)   r     1 PRIVATE_NAME
    12-0-0/d STRC(90)    r     1 PRIVATE_PSN

  ****  Section 011  Data  VPD$CHECK_VOL

  ****  Scalars and arrays  ****
OctLoc.c.b A Datatyp(siz) R M Lvl/name                 OctLoc.c.b A Datatyp(siz) R M Lvl/name

     0-0-0/c STRC(1233)  r     1 CMDVAR_NAME               43-0-0/c STRC(729)   r     1 CMDVAR_VAL
    70-0-0/d STRC(504)   r     1 FPT_CMDVAR

  ****  Auto variables  ****

  ****  Scalars and arrays  ****
OctLoc.c.b A Datatyp(siz) R M Lvl/name                 OctLoc.c.b A Datatyp(siz) R M Lvl/name

     5-0-0/w PTR         r     1 @DCBNM                     7-0-0/w PTR         r     1 @DIR
     4-0-0/w PTR         r     1 @FUN                       3-0-0/w PTR         r     1 @SN_LIST
     6-0-0/w PTR         r     1 @VOL                      20-0-0/w PTR         r     1 DCB$
    *0-0-0/w SBIN        r     1 DCBNM                     *0-0-0/w SBIN        r     1 DIR
    *0-0-0/w SBIN        r     1 FUN                       21-0-0/w SBIN        r     1 I
    *0-0-0/w STRC(1116)  r     1 SN_LIST                   23-0-0/b BIT         r     1 TELL_HIM
    10-0-0/c STRC(288)   r     1 TEXTC                     *0-0-0/w SBIN        r     1 VOL

  ****  SYMREF variables  ****

  ****  Scalars and arrays  ****
OctLoc.c.b A Datatyp(siz) R M Lvl/name                 OctLoc.c.b A Datatyp(siz) R M Lvl/name

     0-0-0/w EPTR        r     1 BREAK_MESSAGE_REPORTER
PL6.E3A0      #004=VPD$CHECK_VOL File=VPD$UTIL.:E05TSI                           WED 07/30/97 07:22 Page:68
     0-0-0/w SBIN        r     1 LAST_VOL(0:2)

  ****  BASED and DCB variables  ****

  ****  Scalars and arrays  ****
OctLoc.c.b A Datatyp(siz) R M Lvl/name                 OctLoc.c.b A Datatyp(siz) R M Lvl/name

     0-0-0/d ASTR(3528)  r     1 F$DCB


   Procedure VPD$CHECK_VOL requires 153 words for executable code.
   Procedure VPD$CHECK_VOL requires 32 words of local(AUTO) storage.
PL6.E3A0      #004=VPD$CHECK_VOL File=VPD$UTIL.:E05TSI                           WED 07/30/97 07:22 Page:69
          *** CROSS REFERENCE LISTING ***
**     DENOTES     IDENTIFIER DEFINITION
<<                 IDENTIFIER'S VALUE SET
>>                 IDENTIFIER'S VALUE USED
<>                 IDENTIFIER SET AND/OR USED
--                 IDENTIFIER REFERENCED
PL6.E3A0      #004=VPD$CHECK_VOL File=VPD$UTIL.:E05TSI                           WED 07/30/97 07:22 Page:70
          MINI XREF LISTING

BAD_CMDVAR IN PROCEDURE CMD_NAME
      7480**LABEL    7482--CALLALT
BREAK_LOC
      5238**DCL      5238--REDEF
CHK_DONE
      7450**LABEL    7439--GOTO
CMDVAR_NAME
      7365**DCL      7409--DCLINIT
CMDVAR_NAME.LEN
      7366**DCL      7480<<ASSIGN
CMDVAR_NAME.VOL.SN
      7383**DCL      7384--REDEF    7478<<ASSIGN
CMDVAR_VAL
      7386**DCL      7410--DCLINIT
CMDVAR_VAL.LEN
      7387**DCL      7434<<ASSIGN   7464<<ASSIGN
CMDVAR_VAL.PART.FIRST
      7390**DCL      7433<<CALLBLT  7462<<CALLBLT  7470>>CALLBLT  7486<<ASSIGN
CMDVAR_VAL.TEXT
      7388**DCL      7389--REDEF
CMD_NAME
      7475**PROC     7436--CALL     7460--CALL     7465--CALL     7469--CALL
DCB$
      7415**DCL      7422<<ASSIGN   7423>>IF       7426>>IF       7432>>ASSIGN
DCBNM
      7299**DCL         6--PROC     7422--ASSIGN
DEF_ICB.FID.STRING
      5836**DCL      5837--REDEF
DEV_ICB.FID.STRING
      5722**DCL      5723--REDEF
DIR
      7302**DCL         6--PROC     7423>>IF       7426>>IF       7432>>ASSIGN   7433>>CALLBLT  7440>>IF
PL6.E3A0      #004=VPD$CHECK_VOL File=VPD$UTIL.:E05TSI                           WED 07/30/97 07:22 Page:71
      7448>>ASSIGN   7466>>ASSIGN   7471>>ASSIGN
EI_KEY.KEY
      5934**DCL      5934--REDEF    5934--REDEF    5934--REDEF
EO_OCB.TYPE
      5434**DCL      5435--REDEF
F$DCB.ACTPOS
      7044**DCL      7044--REDEF
F$DCB.ARS
      7019**DCL      7019--REDEF
F$DCB.ATTR
      7037**DCL      7038--REDEF
F$DCB.BORROW
      7052**DCL      7052--REDEF    7052--REDEF    7052--REDEF
F$DCB.DCBNAME.L
      7066**DCL      7066--IMP-SIZ
F$DCB.EOMCHAR
      7023**DCL      7023--REDEF
F$DCB.FLDID
      7047**DCL      7047--REDEF
F$DCB.FORM$
      7041**DCL      7041--REDEF
F$DCB.FSECT
      7057**DCL      7057--REDEF
F$DCB.FSN
      7034**DCL      7034--REDEF    7034--REDEF    7035--REDEF
F$DCB.HEADER$
      7040**DCL      7040--REDEF
F$DCB.IXTNSIZE
      7038**DCL      7038--REDEF
F$DCB.LASTSTA$
      7028**DCL      7028--REDEF
F$DCB.LVL
      7053**DCL      7053--REDEF
F$DCB.NAME.C
      7028**DCL      7028--REDEF
F$DCB.NOEOF
PL6.E3A0      #004=VPD$CHECK_VOL File=VPD$UTIL.:E05TSI                           WED 07/30/97 07:22 Page:72
      7049**DCL      7049--REDEF
F$DCB.NRECS
      7039**DCL      7039--REDEF
F$DCB.NRECX
      7058**DCL      7058--REDEF
F$DCB.OHDR
      7050**DCL      7050--REDEF
F$DCB.ORG
      7033**DCL      7033--REDEF
F$DCB.PRECNO
      7056**DCL      7056--REDEF
F$DCB.RCSZ
      7061**DCL      7061--REDEF
F$DCB.RES
      7029**DCL      7029--REDEF
F$DCB.SETX
      7041**DCL      7041--REDEF
F$DCB.TAB$
      7040**DCL      7041--REDEF
F$DCB.TDA
      7055**DCL      7055--REDEF
F$DCB.VOL
      7039**DCL      7423>>IF       7426>>IF       7432>>ASSIGN
F$DCB.WSN
      7030**DCL      7030--REDEF
FPT_CLOSE_EI.SN_
      6775**DCL      6775--REDEF
FPT_CLOSE_EI.UTL_
      6776**DCL      6776--REDEF
FPT_CLOSE_EI.V.EXPIRE#
      6790**DCL      6790--REDEF
FPT_CLOSE_EI.V.TYPE#
      6788**DCL      6788--REDEF
FPT_CLOSE_EI.V.XTNSIZE#
      6785**DCL      6785--REDEF    6787--REDEF
FPT_CLOSE_PTL.SN_
PL6.E3A0      #004=VPD$CHECK_VOL File=VPD$UTIL.:E05TSI                           WED 07/30/97 07:22 Page:73
      6901**DCL      6901--REDEF
FPT_CLOSE_PTL.UTL_
      6902**DCL      6902--REDEF
FPT_CLOSE_PTL.V.EXPIRE#
      6916**DCL      6916--REDEF
FPT_CLOSE_PTL.V.TYPE#
      6914**DCL      6914--REDEF
FPT_CLOSE_PTL.V.XTNSIZE#
      6911**DCL      6911--REDEF    6913--REDEF
FPT_CLOSE_READ.SN_
      6817**DCL      6817--REDEF
FPT_CLOSE_READ.UTL_
      6818**DCL      6818--REDEF
FPT_CLOSE_READ.V.EXPIRE#
      6832**DCL      6832--REDEF
FPT_CLOSE_READ.V.TYPE#
      6830**DCL      6830--REDEF
FPT_CLOSE_READ.V.XTNSIZE#
      6827**DCL      6827--REDEF    6829--REDEF
FPT_CLOSE_SI.SN_
      6985**DCL      6985--REDEF
FPT_CLOSE_SI.UTL_
      6986**DCL      6986--REDEF
FPT_CLOSE_SI.V.EXPIRE#
      7000**DCL      7000--REDEF
FPT_CLOSE_SI.V.TYPE#
      6998**DCL      6998--REDEF
FPT_CLOSE_SI.V.XTNSIZE#
      6995**DCL      6995--REDEF    6997--REDEF
FPT_CLOSE_STD.SN_
      6943**DCL      6943--REDEF
FPT_CLOSE_STD.UTL_
      6944**DCL      6944--REDEF
FPT_CLOSE_STD.V.EXPIRE#
      6958**DCL      6958--REDEF
FPT_CLOSE_STD.V.TYPE#
PL6.E3A0      #004=VPD$CHECK_VOL File=VPD$UTIL.:E05TSI                           WED 07/30/97 07:22 Page:74
      6956**DCL      6956--REDEF
FPT_CLOSE_STD.V.XTNSIZE#
      6953**DCL      6953--REDEF    6955--REDEF
FPT_CLSEI_FT.SN_
      6859**DCL      6859--REDEF
FPT_CLSEI_FT.UTL_
      6860**DCL      6860--REDEF
FPT_CLSEI_FT.V.EXPIRE#
      6874**DCL      6874--REDEF
FPT_CLSEI_FT.V.TYPE#
      6872**DCL      6872--REDEF
FPT_CLSEI_FT.V.XTNSIZE#
      6869**DCL      6869--REDEF    6871--REDEF
FPT_CMDVAR
      7409**DCL      7482<>CALL
FPT_CMDVAR.V
      7411**DCL      7409--DCLINIT
FPT_CMDVAR.V.FUN#
      7411**DCL      7435<<ASSIGN   7459<<ASSIGN   7463<<ASSIGN   7468<<ASSIGN
FPT_OPEN_EI.ACSVEH_
      6430**DCL      6431--REDEF
FPT_OPEN_EI.ALTKEYS_
      6436**DCL      6437--REDEF    6437--REDEF
FPT_OPEN_EI.HDR_
      6435**DCL      6436--REDEF
FPT_OPEN_EI.TAB_
      6434**DCL      6435--REDEF
FPT_OPEN_EI.UHL_
      6428**DCL      6429--REDEF    6429--REDEF
FPT_OPEN_EI.V.FSN#
      6468**DCL      6468--REDEF    6468--REDEF
FPT_OPEN_EI.WSN_
      6434**DCL      6434--REDEF
FPT_OPEN_EI_SAVE.ACSVEH_
      6539**DCL      6540--REDEF
FPT_OPEN_EI_SAVE.ALTKEYS_
PL6.E3A0      #004=VPD$CHECK_VOL File=VPD$UTIL.:E05TSI                           WED 07/30/97 07:22 Page:75
      6545**DCL      6546--REDEF    6546--REDEF
FPT_OPEN_EI_SAVE.HDR_
      6544**DCL      6545--REDEF
FPT_OPEN_EI_SAVE.TAB_
      6543**DCL      6544--REDEF
FPT_OPEN_EI_SAVE.UHL_
      6537**DCL      6538--REDEF    6538--REDEF
FPT_OPEN_EI_SAVE.V.FSN#
      6577**DCL      6577--REDEF    6577--REDEF
FPT_OPEN_EI_SAVE.WSN_
      6543**DCL      6543--REDEF
FPT_OPEN_OUT.ACSVEH_
      6321**DCL      6322--REDEF
FPT_OPEN_OUT.ALTKEYS_
      6327**DCL      6328--REDEF    6328--REDEF
FPT_OPEN_OUT.HDR_
      6326**DCL      6327--REDEF
FPT_OPEN_OUT.TAB_
      6325**DCL      6326--REDEF
FPT_OPEN_OUT.UHL_
      6319**DCL      6320--REDEF    6320--REDEF
FPT_OPEN_OUT.V.FSN#
      6359**DCL      6359--REDEF    6359--REDEF
FPT_OPEN_OUT.WSN_
      6325**DCL      6325--REDEF
FPT_OPEN_OUT_SAVE.ACSVEH_
      6212**DCL      6213--REDEF
FPT_OPEN_OUT_SAVE.ALTKEYS_
      6218**DCL      6219--REDEF    6219--REDEF
FPT_OPEN_OUT_SAVE.HDR_
      6217**DCL      6218--REDEF
FPT_OPEN_OUT_SAVE.TAB_
      6216**DCL      6217--REDEF
FPT_OPEN_OUT_SAVE.UHL_
      6210**DCL      6211--REDEF    6211--REDEF
FPT_OPEN_OUT_SAVE.V.FSN#
PL6.E3A0      #004=VPD$CHECK_VOL File=VPD$UTIL.:E05TSI                           WED 07/30/97 07:22 Page:76
      6250**DCL      6250--REDEF    6250--REDEF
FPT_OPEN_OUT_SAVE.WSN_
      6216**DCL      6216--REDEF
FPT_READ_STD.STATION_
      6640**DCL      6641--REDEF
FPT_READ_STD.V.DVBYTE.REREAD#
      6652**DCL      6652--REDEF
FPT_READ_STD.V.INDX#
      6650**DCL      6650--REDEF
FPT_READ_UC.STATION_
      6601**DCL      6602--REDEF
FPT_READ_UC.V.DVBYTE.REREAD#
      6613**DCL      6613--REDEF
FPT_READ_UC.V.INDX#
      6611**DCL      6611--REDEF
FPT_WRITE_ME.STATION_
      6709**DCL      6709--REDEF
FPT_WRITE_ME.V.DVBYTE.VFC#
      6716**DCL      6716--REDEF
FPT_WRITE_OUT.STATION_
      6740**DCL      6740--REDEF
FPT_WRITE_OUT.V.DVBYTE.VFC#
      6747**DCL      6747--REDEF
FPT_WRITE_UC.STATION_
      6678**DCL      6678--REDEF
FPT_WRITE_UC.V.DVBYTE.VFC#
      6685**DCL      6685--REDEF
FROM_SN.SN
      5584**DCL      5585--REDEF
FUN
      7300**DCL         6--PROC     7420>>DOCASE
GETCMD.OUT$
      4791**DCL      4797--REDEF
I
      7416**DCL      7477<<DOINDEX  7478>>ASSIGN   7478>>ASSIGN
ICB.FID.STRING
PL6.E3A0      #004=VPD$CHECK_VOL File=VPD$UTIL.:E05TSI                           WED 07/30/97 07:22 Page:77
      5608**DCL      5609--REDEF
IFSFA_PARAM.EOMCHAR#
      5963**DCL      5964--REDEF
IFSFA_PARAM.SIG1
      5957**DCL      5957--REDEF
IFSFA_PARAM.SIG2
      5957**DCL      5958--REDEF
IN_RES
      5530**DCL      5530--REDEF
IN_SN.SN
      5546**DCL      5547--REDEF
LAST_VOL
      5567**DCL      7423>>IF       7426>>IF       7432<<ASSIGN   7433>>CALLBLT  7440>>IF       7448>>ASSIGN
      7466<<ASSIGN   7471<<ASSIGN
M$CMDVAR
       117**DCL-ENT  7482--CALL
OCB.TYPE
      5292**DCL      5293--REDEF
OFSFA_PARAM.EOMCHAR#
      5993**DCL      5994--REDEF
OFSFA_PARAM.SIG1
      5987**DCL      5987--REDEF
OFSFA_PARAM.SIG2
      5987**DCL      5988--REDEF
OUT_SN.SN
      5564**DCL      5565--REDEF
PRIVATE_ACCT
      7344**DCL      7411--DCLINIT
PRIVATE_NAME
      7331**DCL      7410--DCLINIT
PRIVATE_PSN
      7357**DCL      7411--DCLINIT
SN_LIST
      7291**DCL         6--PROC
SN_LIST.COUNT
      7295**DCL      7440>>IF       7477>>DOINDEX  7480>>ASSIGN
PL6.E3A0      #004=VPD$CHECK_VOL File=VPD$UTIL.:E05TSI                           WED 07/30/97 07:22 Page:78
SN_LIST.SN
      7296**DCL      7297--REDEF    7448>>ASSIGN   7478>>ASSIGN
SPEC_BUF
      5242**DCL      5242--REDEF
TELL_HIM
      7418**DCL      7429<<ASSIGN   7431<<ASSIGN   7437>>IF
TEXTC
      7362**DCL      7450--CALL
TEXTC.C
      7363**DCL      7449<<ASSIGN
TEXTC.TEXT
      7364**DCL      7448<<ASSIGN
VOL
      7301**DCL         6--PROC     7462>>CALLBLT  7466>>ASSIGN   7470<<CALLBLT  7471>>ASSIGN
VPL$ERR_PROC
      7252**DCL-ENT  7442--CALL     7450--CALL

PL6.E3A0      #005=VPD$CLOBBERLZ File=VPD$UTIL.:E05TSI                           WED 07/30/97 07:23 Page:79
      258        1        /*T***********************************************************/
      259        2        /*T*                                                         */
      260        3        /*T* Copyright (c) Bull HN Information Systems Inc., 1997    */
      261        4        /*T*                                                         */
      262        5        /*T***********************************************************/
      263        6        VPD$CLOBBERLZ: PROC(NUM_VECTOR);
      264        7        /*I* NAME: VPD$CLOBBERLZ
      265        8             PURPOSE: To process a string of digits representing a decimal number.
      266        9             CALL: CALL VPD$CLOBBERLZ(VECTOR(TEXT));
      267       10             DESCRIPTION: This procedure clobbers leading zeroes on a string
      268       11                   that represents a decimal integer.
      269       12        */
      270       13        /**/
      271       14        /*  PARAMETERS  */
      272       15        /**/
      273       16    1   DCL NUM_VECTOR VECTOR PARAM;
      274       17        /**/
      275       18        /* INCLUDE FILES  */
      276       19        /**/
      277       20        %INCLUDE VP_DATA_R;
      278     7007        /**/
      279     7008        /*  BASED  */
      280     7009        /**/
      281     7010    1   DCL NUM CHAR(NUM_LEN) BASED(NUM$);
      282     7011        /**/
      283     7012        /*  LOCAL AUTO  */
      284     7013        /**/
      285     7014    1   DCL NUM$ PTR AUTO;
      286     7015    1   DCL NUM_LEN SBIN AUTO;
      287     7016        /**/
      288     7017        /*  LOCAL STATIC  */
      289     7018        /**/
      290     7019    1   DCL MOP_CMD(0:1) BIT(9) UNAL STATIC INIT('0'B,%MVC1);
      291     7020        /**/
      292     7021    1           NUM$ = VBASE(NUM_VECTOR);
      293     7022    1           NUM_LEN = VBOUND(NUM_VECTOR) +1;
      294     7023    1           MOP_CMD(0) = MOP_ARY_MVZB(NUM_LEN -1); /* Move 1-less digits          */
PL6.E3A0      #005=VPD$CLOBBERLZ File=VPD$UTIL.:E05TSI                           WED 07/30/97 07:23 Page:80
      295     7024    1           CALL EDITCHAR(NUM,
      296     7025    1             0,
      297     7026    1             NUM_LEN,
      298     7027    1             MOP_CMD,
      299     7028    1             NUM);
      300     7029    1           RETURN;
      301     7030        /**/
      302     7031    1   END VPD$CLOBBERLZ;
      303     7032        %EOD;

PL6.E3A0      #005=VPD$CLOBBERLZ File=VPD$UTIL.:E05TSI                           WED 07/30/97 07:23 Page:81
--  Include file information  --

   B_MICROPS_C.:E05TOU  is referenced.
   XU_MACRO_C.:E05TOU  is referenced.
   VP_MACRO_C.:E05TOU  is referenced.
   XS_MACRO_C.:E05TOU  is referenced.
   VP_PERR_C.:E05TOU  is referenced.
   CP_6_SUBS.:E05TOU  is referenced.
   CP_6.:E05TOU  cannot be made into a system file and is referenced.
   VP_DATA_R.:E05TOU  cannot be made into a system file and is referenced.
   B$JIT_C.:E05TOU  was found in the system file and is never referenced.
   CP_6_C.:E05TOU  was found in the system file and is referenced.
      No diagnostics issued in procedure VPD$CLOBBERLZ.

   Procedure VPD$CLOBBERLZ requires 20 words for executable code.
   Procedure VPD$CLOBBERLZ requires 6 words of local(AUTO) storage.

PL6.E3A0      #005=VPD$CLOBBERLZ File=VPD$UTIL.:E05TSI                           WED 07/30/97 07:23 Page:82

 Object Unit name= VPD$CLOBBERLZ                              File name= VPD$UTIL.:E05TOU
 UTS= JUL 30 '97 07:23:48.40 WED                              Compiler= PL-6/E31         Sev=      00
 SharedLib= :SHARED_SYSTEM                                    Alt SharedLib=


    ****  Control sections  ****

 Sect   Type Bound  Init  Size OctSiz  Section name(segment info)
    0   DCB   even  none     0      0  M$UC
    1   DCB   even  none     0      0  M$EI
    2   DCB   even  none     0      0  M$EO
    3   DCB   even  none     0      0  M$EO1
    4   DCB   even  none     0      0  M$ME
    5   DCB   even  none     0      0  M$SI
    6   DCB   even  none     0      0  M$READFILE
    7   DCB   even  none     0      0  M$DO
    8   DCB   even  none     0      0  M$STD1
    9   DCB   even  none     0      0  M$SORT1
   10   Data  even  none     1      1  VPD$CLOBBERLZ
   11   Proc  even  none    20     24  VPD$CLOBBERLZ

    ****  Entry defs  ****

                              Check   Calling
                             calling  sequence
  Sect OctLoc Primary Altret sequence   type   Parms  Name
    11      0   yes            yes      Std        1  VPD$CLOBBERLZ

  ****  Entry refs  ****

         Check        Calling
        calling       sequence
Altret sequence SRef   type   Args  Name
                       nStd      0 X66_AUTO_1
                       nStd      0 X66_ARET
PL6.E3A0      #005=VPD$CLOBBERLZ File=VPD$UTIL.:E05TSI                           WED 07/30/97 07:23 Page:83

  ****  Data refs  ****

  Flags:  r = read only, s = secondary
Flgs Name                             Flgs Name                             Flgs Name
     M$UC                                  BREAK_LOC                             BREAK_MESSAGE_REPORTER
     SPEC_BUF                              IN_RES                           r    MOP_ARY_MVZB
     M$EI                                  M$EO                                  M$EO1
     M$ME                                  M$SI                                  M$READFILE
     M$DO                                  M$STD1                                M$SORT1
PL6.E3A0      #005=VPD$CLOBBERLZ File=VPD$UTIL.:E05TSI                           WED 07/30/97 07:23 Page:84


      258        1        /*T***********************************************************/
      259        2        /*T*                                                         */
      260        3        /*T* Copyright (c) Bull HN Information Systems Inc., 1997    */
      261        4        /*T*                                                         */
      262        5        /*T***********************************************************/
      263        6        VPD$CLOBBERLZ: PROC(NUM_VECTOR);

      6 11 000000   000000 700200 xent  VPD$CLOBBER* TSX0  ! X66_AUTO_1
        11 000001   000006 000001                    ZERO    6,1

      264        7        /*I* NAME: VPD$CLOBBERLZ
      265        8             PURPOSE: To process a string of digits representing a decimal number.
      266        9             CALL: CALL VPD$CLOBBERLZ(VECTOR(TEXT));
      267       10             DESCRIPTION: This procedure clobbers leading zeroes on a string
      268       11                   that represents a decimal integer.
      269       12        */
      270       13        /**/
      271       14        /*  PARAMETERS  */
      272       15        /**/
      273       16    1   DCL NUM_VECTOR VECTOR PARAM;
      274       17        /**/
      275       18        /* INCLUDE FILES  */
      276       19        /**/
      277       20        %INCLUDE VP_DATA_R;
      278     7007        /**/
      279     7008        /*  BASED  */
      280     7009        /**/
      281     7010    1   DCL NUM CHAR(NUM_LEN) BASED(NUM$);
      282     7011        /**/
      283     7012        /*  LOCAL AUTO  */
      284     7013        /**/
      285     7014    1   DCL NUM$ PTR AUTO;
      286     7015    1   DCL NUM_LEN SBIN AUTO;
      287     7016        /**/
      288     7017        /*  LOCAL STATIC  */
      289     7018        /**/
PL6.E3A0      #005=VPD$CLOBBERLZ File=VPD$UTIL.:E05TSI                           WED 07/30/97 07:23 Page:85
      290     7019    1   DCL MOP_CMD(0:1) BIT(9) UNAL STATIC INIT('0'B,%MVC1);
      291     7020        /**/
      292     7021    1           NUM$ = VBASE(NUM_VECTOR);

   7021 11 000002   200003 470500                    LDP0    @NUM_VECTOR,,AUTO
        11 000003   000001 236100                    LDQ     1,,PR0
        11 000004   200004 756100                    STQ     NUM$,,AUTO

      293     7022    1           NUM_LEN = VBOUND(NUM_VECTOR) +1;

   7022 11 000005   000000 236100                    LDQ     0,,PR0
        11 000006   000020 772000                    QRL     16
        11 000007   000001 036007                    ADLQ    1,DL
        11 000010   200005 756100                    STQ     NUM_LEN,,AUTO

      294     7023    1           MOP_CMD(0) = MOP_ARY_MVZB(NUM_LEN -1); /* Move 1-less digits          */

   7023 11 000011   000000 100406                    MLR     fill='000'O
        11 000012   777777 600001 xsym               ADSC9   MOP_ARY_MVZB-1,Q         cn=3,n=1
        11 000013   000000 000001 10                 ADSC9   MOP_CMD                  cn=0,n=1

      295     7024    1           CALL EDITCHAR(NUM,

   7024 11 000014   200004 471500                    LDP1    NUM$,,AUTO
        11 000015   000000 620006                    EAX0    0,QL
        11 000016   200005 721100                    LXL1    NUM_LEN,,AUTO
        11 000017   140000 024540                    MVNE
        11 000020   100000 030010                    NDSC9   0,,PR1                   cn=0,s=nosgn,sf=0,n=*X0
        11 000021   000000 000002 10                 ADSC9   MOP_CMD                  cn=0,n=2
        11 000022   100000 000011                    ADSC9   0,,PR1                   cn=0,n=*X1

      296     7025    1             0,
      297     7026    1             NUM_LEN,
      298     7027    1             MOP_CMD,
      299     7028    1             NUM);
      300     7029    1           RETURN;

PL6.E3A0      #005=VPD$CLOBBERLZ File=VPD$UTIL.:E05TSI                           WED 07/30/97 07:23 Page:86
   7029 11 000023   000000 702200 xent               TSX2  ! X66_ARET
      301     7030        /**/
      302     7031    1   END VPD$CLOBBERLZ;
      303     7032        %EOD;

PL6.E3A0      #005=VPD$CLOBBERLZ File=VPD$UTIL.:E05TSI                           WED 07/30/97 07:23 Page:87
--  Include file information  --

   B_MICROPS_C.:E05TOU  is referenced.
   XU_MACRO_C.:E05TOU  is referenced.
   VP_MACRO_C.:E05TOU  is referenced.
   XS_MACRO_C.:E05TOU  is referenced.
   VP_PERR_C.:E05TOU  is referenced.
   CP_6_SUBS.:E05TOU  is referenced.
   CP_6.:E05TOU  cannot be made into a system file and is referenced.
   VP_DATA_R.:E05TOU  cannot be made into a system file and is referenced.
   B$JIT_C.:E05TOU  was found in the system file and is never referenced.
   CP_6_C.:E05TOU  was found in the system file and is referenced.
      No diagnostics issued in procedure VPD$CLOBBERLZ.
PL6.E3A0      #005=VPD$CLOBBERLZ File=VPD$UTIL.:E05TSI                           WED 07/30/97 07:23 Page:88

 **** Variables and constants ****

  ****  Section 010  Data  VPD$CLOBBERLZ

  ****  Scalars and arrays  ****
OctLoc.c.b A Datatyp(siz) R M Lvl/name                 OctLoc.c.b A Datatyp(siz) R M Lvl/name

     0-0-0/b BIT (9)     r     1 MOP_CMD(0:1)

  ****  Auto variables  ****

  ****  Scalars and arrays  ****
OctLoc.c.b A Datatyp(siz) R M Lvl/name                 OctLoc.c.b A Datatyp(siz) R M Lvl/name

     3-0-0/w PTR         r     1 @NUM_VECTOR                4-0-0/w PTR         r     1 NUM$
     5-0-0/w SBIN        r     1 NUM_LEN                   *0-0-0/d VECT        r     1 NUM_VECTOR

  ****  SYMREF variables  ****

  ****  Scalars and arrays  ****
OctLoc.c.b A Datatyp(siz) R M Lvl/name                 OctLoc.c.b A Datatyp(siz) R M Lvl/name

     0-0-0/w EPTR        r     1 BREAK_MESSAGE_REPORTER
     0-0-0/c BIT (9)     r     1 MOP_ARY_MVZB(0:9)

  ****  BASED and DCB variables  ****

  ****  Scalars and arrays  ****
OctLoc.c.b A Datatyp(siz) R M Lvl/name                 OctLoc.c.b A Datatyp(siz) R M Lvl/name

     0-0-0/c ACHR        r     1 NUM


   Procedure VPD$CLOBBERLZ requires 20 words for executable code.
   Procedure VPD$CLOBBERLZ requires 6 words of local(AUTO) storage.
PL6.E3A0      #005=VPD$CLOBBERLZ File=VPD$UTIL.:E05TSI                           WED 07/30/97 07:23 Page:89
          *** CROSS REFERENCE LISTING ***
**     DENOTES     IDENTIFIER DEFINITION
<<                 IDENTIFIER'S VALUE SET
>>                 IDENTIFIER'S VALUE USED
<>                 IDENTIFIER SET AND/OR USED
--                 IDENTIFIER REFERENCED
PL6.E3A0      #005=VPD$CLOBBERLZ File=VPD$UTIL.:E05TSI                           WED 07/30/97 07:23 Page:90
          MINI XREF LISTING

BREAK_LOC
      5227**DCL      5227--REDEF
DEF_ICB.FID.STRING
      5825**DCL      5826--REDEF
DEV_ICB.FID.STRING
      5711**DCL      5712--REDEF
EI_KEY.KEY
      5923**DCL      5923--REDEF    5923--REDEF    5923--REDEF
EO_OCB.TYPE
      5423**DCL      5424--REDEF
FPT_CLOSE_EI.SN_
      6764**DCL      6764--REDEF
FPT_CLOSE_EI.UTL_
      6765**DCL      6765--REDEF
FPT_CLOSE_EI.V.EXPIRE#
      6779**DCL      6779--REDEF
FPT_CLOSE_EI.V.TYPE#
      6777**DCL      6777--REDEF
FPT_CLOSE_EI.V.XTNSIZE#
      6774**DCL      6774--REDEF    6776--REDEF
FPT_CLOSE_PTL.SN_
      6890**DCL      6890--REDEF
FPT_CLOSE_PTL.UTL_
      6891**DCL      6891--REDEF
FPT_CLOSE_PTL.V.EXPIRE#
      6905**DCL      6905--REDEF
FPT_CLOSE_PTL.V.TYPE#
      6903**DCL      6903--REDEF
FPT_CLOSE_PTL.V.XTNSIZE#
      6900**DCL      6900--REDEF    6902--REDEF
FPT_CLOSE_READ.SN_
      6806**DCL      6806--REDEF
PL6.E3A0      #005=VPD$CLOBBERLZ File=VPD$UTIL.:E05TSI                           WED 07/30/97 07:23 Page:91
FPT_CLOSE_READ.UTL_
      6807**DCL      6807--REDEF
FPT_CLOSE_READ.V.EXPIRE#
      6821**DCL      6821--REDEF
FPT_CLOSE_READ.V.TYPE#
      6819**DCL      6819--REDEF
FPT_CLOSE_READ.V.XTNSIZE#
      6816**DCL      6816--REDEF    6818--REDEF
FPT_CLOSE_SI.SN_
      6974**DCL      6974--REDEF
FPT_CLOSE_SI.UTL_
      6975**DCL      6975--REDEF
FPT_CLOSE_SI.V.EXPIRE#
      6989**DCL      6989--REDEF
FPT_CLOSE_SI.V.TYPE#
      6987**DCL      6987--REDEF
FPT_CLOSE_SI.V.XTNSIZE#
      6984**DCL      6984--REDEF    6986--REDEF
FPT_CLOSE_STD.SN_
      6932**DCL      6932--REDEF
FPT_CLOSE_STD.UTL_
      6933**DCL      6933--REDEF
FPT_CLOSE_STD.V.EXPIRE#
      6947**DCL      6947--REDEF
FPT_CLOSE_STD.V.TYPE#
      6945**DCL      6945--REDEF
FPT_CLOSE_STD.V.XTNSIZE#
      6942**DCL      6942--REDEF    6944--REDEF
FPT_CLSEI_FT.SN_
      6848**DCL      6848--REDEF
FPT_CLSEI_FT.UTL_
      6849**DCL      6849--REDEF
FPT_CLSEI_FT.V.EXPIRE#
      6863**DCL      6863--REDEF
FPT_CLSEI_FT.V.TYPE#
      6861**DCL      6861--REDEF
PL6.E3A0      #005=VPD$CLOBBERLZ File=VPD$UTIL.:E05TSI                           WED 07/30/97 07:23 Page:92
FPT_CLSEI_FT.V.XTNSIZE#
      6858**DCL      6858--REDEF    6860--REDEF
FPT_OPEN_EI.ACSVEH_
      6419**DCL      6420--REDEF
FPT_OPEN_EI.ALTKEYS_
      6425**DCL      6426--REDEF    6426--REDEF
FPT_OPEN_EI.HDR_
      6424**DCL      6425--REDEF
FPT_OPEN_EI.TAB_
      6423**DCL      6424--REDEF
FPT_OPEN_EI.UHL_
      6417**DCL      6418--REDEF    6418--REDEF
FPT_OPEN_EI.V.FSN#
      6457**DCL      6457--REDEF    6457--REDEF
FPT_OPEN_EI.WSN_
      6423**DCL      6423--REDEF
FPT_OPEN_EI_SAVE.ACSVEH_
      6528**DCL      6529--REDEF
FPT_OPEN_EI_SAVE.ALTKEYS_
      6534**DCL      6535--REDEF    6535--REDEF
FPT_OPEN_EI_SAVE.HDR_
      6533**DCL      6534--REDEF
FPT_OPEN_EI_SAVE.TAB_
      6532**DCL      6533--REDEF
FPT_OPEN_EI_SAVE.UHL_
      6526**DCL      6527--REDEF    6527--REDEF
FPT_OPEN_EI_SAVE.V.FSN#
      6566**DCL      6566--REDEF    6566--REDEF
FPT_OPEN_EI_SAVE.WSN_
      6532**DCL      6532--REDEF
FPT_OPEN_OUT.ACSVEH_
      6310**DCL      6311--REDEF
FPT_OPEN_OUT.ALTKEYS_
      6316**DCL      6317--REDEF    6317--REDEF
FPT_OPEN_OUT.HDR_
      6315**DCL      6316--REDEF
PL6.E3A0      #005=VPD$CLOBBERLZ File=VPD$UTIL.:E05TSI                           WED 07/30/97 07:23 Page:93
FPT_OPEN_OUT.TAB_
      6314**DCL      6315--REDEF
FPT_OPEN_OUT.UHL_
      6308**DCL      6309--REDEF    6309--REDEF
FPT_OPEN_OUT.V.FSN#
      6348**DCL      6348--REDEF    6348--REDEF
FPT_OPEN_OUT.WSN_
      6314**DCL      6314--REDEF
FPT_OPEN_OUT_SAVE.ACSVEH_
      6201**DCL      6202--REDEF
FPT_OPEN_OUT_SAVE.ALTKEYS_
      6207**DCL      6208--REDEF    6208--REDEF
FPT_OPEN_OUT_SAVE.HDR_
      6206**DCL      6207--REDEF
FPT_OPEN_OUT_SAVE.TAB_
      6205**DCL      6206--REDEF
FPT_OPEN_OUT_SAVE.UHL_
      6199**DCL      6200--REDEF    6200--REDEF
FPT_OPEN_OUT_SAVE.V.FSN#
      6239**DCL      6239--REDEF    6239--REDEF
FPT_OPEN_OUT_SAVE.WSN_
      6205**DCL      6205--REDEF
FPT_READ_STD.STATION_
      6629**DCL      6630--REDEF
FPT_READ_STD.V.DVBYTE.REREAD#
      6641**DCL      6641--REDEF
FPT_READ_STD.V.INDX#
      6639**DCL      6639--REDEF
FPT_READ_UC.STATION_
      6590**DCL      6591--REDEF
FPT_READ_UC.V.DVBYTE.REREAD#
      6602**DCL      6602--REDEF
FPT_READ_UC.V.INDX#
      6600**DCL      6600--REDEF
FPT_WRITE_ME.STATION_
      6698**DCL      6698--REDEF
PL6.E3A0      #005=VPD$CLOBBERLZ File=VPD$UTIL.:E05TSI                           WED 07/30/97 07:23 Page:94
FPT_WRITE_ME.V.DVBYTE.VFC#
      6705**DCL      6705--REDEF
FPT_WRITE_OUT.STATION_
      6729**DCL      6729--REDEF
FPT_WRITE_OUT.V.DVBYTE.VFC#
      6736**DCL      6736--REDEF
FPT_WRITE_UC.STATION_
      6667**DCL      6667--REDEF
FPT_WRITE_UC.V.DVBYTE.VFC#
      6674**DCL      6674--REDEF
FROM_SN.SN
      5573**DCL      5574--REDEF
GETCMD.OUT$
      4780**DCL      4786--REDEF
ICB.FID.STRING
      5597**DCL      5598--REDEF
IFSFA_PARAM.EOMCHAR#
      5952**DCL      5953--REDEF
IFSFA_PARAM.SIG1
      5946**DCL      5946--REDEF
IFSFA_PARAM.SIG2
      5946**DCL      5947--REDEF
IN_RES
      5519**DCL      5519--REDEF
IN_SN.SN
      5535**DCL      5536--REDEF
MOP_ARY_MVZB
      5925**DCL      7023>>ASSIGN
MOP_CMD
      7019**DCL      7023<<ASSIGN   7024>>CALLBLT
NUM
      7010**DCL      7024<<CALLBLT  7024>>CALLBLT
NUM$
      7014**DCL      7010--IMP-PTR  7021<<ASSIGN   7024>>CALLBLT  7024>>CALLBLT
NUM_LEN
      7015**DCL      7010--IMP-SIZ  7022<<ASSIGN   7023>>ASSIGN   7024>>CALLBLT  7024>>CALLBLT  7024>>CALLBLT
PL6.E3A0      #005=VPD$CLOBBERLZ File=VPD$UTIL.:E05TSI                           WED 07/30/97 07:23 Page:95
NUM_VECTOR
        16**DCL         6--PROC     7021>>ASSIGN   7022>>ASSIGN
OCB.TYPE
      5281**DCL      5282--REDEF
OFSFA_PARAM.EOMCHAR#
      5982**DCL      5983--REDEF
OFSFA_PARAM.SIG1
      5976**DCL      5976--REDEF
OFSFA_PARAM.SIG2
      5976**DCL      5977--REDEF
OUT_SN.SN
      5553**DCL      5554--REDEF
SPEC_BUF
      5231**DCL      5231--REDEF

PL6.E3A0      #006=VPD$CLOSE_OUT File=VPD$UTIL.:E05TSI                           WED 07/30/97 07:24 Page:96
      304        1        /*T***********************************************************/
      305        2        /*T*                                                         */
      306        3        /*T* Copyright (c) Bull HN Information Systems Inc., 1997    */
      307        4        /*T*                                                         */
      308        5        /*T***********************************************************/
      309        6        VPD$CLOSE_OUT: PROC(ERR);
      310        7        /*D* NAME: VPD$CLOSE_OUT
      311        8             CALL: CALL VPD$CLOSE_OUT(ERR);
      312        9             DESCRIPTION: Closes the output file, specified by its DCBNUM in
      313       10                          OCB.DCBNM (UBIN(18)). The DCB is closed with SAVE if either
      314       11                          ERR (SBIN WORD) = 0 or if ERRORS SAVE has been specified
      315       12                          causing ERR_SAVE_REL to be set to 1, or OCB.ERR_SAVE = 1.
      316       13                          Attributes of the file are also changed if applicable.
      317       14                          These include NAME, PASSWORD, account and vehicle access
      318       15                          controls, and TYPE. RELEASE may also be specified to
      319       16                          release any unused granules.
      320       17                          Also allows one to change: BUPM, XTNSIZE, LRDL0, LSLIDE,
      321       18                          GHSTACS and SPARE.
      322       19        */
      323       20        %INCLUDE VP_DATA_R;
      324     7007        %INCLUDE F$DCB;
      325     7056        %INCLUDE FM$FIT;
      326     7277    1   DCL ERR SBIN WORD;
      327     7278        %FPT_CLOSE(FPTN = FPT_CLOSE,
      328     7279                   SN = CLOSE_SN,
      329     7280                   STCLASS = STATIC);
      330     7322    1   DCL DCB$ PTR STATIC;
      331     7323        %VLP_VECTOR(FPTN=B$VECTOR,STCLASS=BASED);
      332     7338    1   DCL B$WORD UBIN BASED;
      333     7339    1   DCL 1 TEXT$C BASED,
      334     7340    1         2 LEN UBIN BYTE UNAL,
      335     7341    1         2 STRING CHAR(TEXT$C.LEN);
      336     7342    1   DCL MOP_6_DIGITS(0:1) BIT(9) CONSTANT INIT(%MVZB5,%MVC1);
      337     7343    1   DCL 1 JOB_MESS STATIC,
      338     7344    1         2 VFC CHAR(1) INIT('A'),          /* Space one after printing           */
      339     7345    1         2 * CHAR(0) INIT('  JOB '),
      340     7346    1         2 ID CHAR(6),
PL6.E3A0      #006=VPD$CLOSE_OUT File=VPD$UTIL.:E05TSI                           WED 07/30/97 07:24 Page:97
      341     7347    1         2 * CHAR(0) INIT(' submitted');
      342     7348        %PCL_SN(FPTN = CLOSE_SN,STCLASS = STATIC);
      343     7366    1   DCL 1 TEXTC,
      344     7367    1         2 C UBIN(9),
      345     7368    1         2 TEXT CHAR(31);
      346     7369        %VP_ENTRIES (OMIT=VPD$CLOSE_OUT);
      347     7577    1           DCB$ = OCB.DCBPTR$;
      348     7578    1           FPT_CLOSE.V.DCB# = OCB.DCBNM;
      349     7579    1           FPT_CLOSE.V.OPER.CHGATT# = %NO#; /* Default                           */
      350     7580    1           FPT_CLOSE.V.EXPIRE# = 0;
      351     7581    1           IF ERR=1 AND ERR_SAVE_REL=2     /* CLOSE WITH ERROR AND               */
      352     7582    1             AND OCB.ERR_SAVE = 0          /* And user don't care                */
      353     7583    1            THEN                           /* 'ERRORS RELEASE' SPECIFIED         */
      354     7584    1              FPT_CLOSE.V.DISP# = 0;       /* LEAVE FILE AS IT CAME IN           */
      355     7585    2            ELSE DO;
      356     7586    2               FPT_CLOSE.V.DISP# = %SAVE#;
      357     7587    2               FPT_CLOSE.V.OPER.REBLD# = OCB.REBUILD;
      358     7588    2               IF OCB.ALTBLD = 1 THEN
      359     7589    2                  FPT_CLOSE.V.ALTBLD#=%YES#;
      360     7590    2                ELSE IF OCB.ALTBLD = 2 THEN
      361     7591    2                     FPT_CLOSE.V.ALTBLD#=%NO#;
      362     7592    2               IF OCB.RELEASE=2
      363     7593    2                THEN
      364     7594    2                  FPT_CLOSE.V.OPER.RELG# = %NO#;
      365     7595    2                ELSE
      366     7596    2                  FPT_CLOSE.V.OPER.RELG# = %YES#;
      367     7597                                                /* The following changes are OK only  */
      368     7598                                                /* a close for MODIFY.  Otherwise,    */
      369     7599                                                /* they should take the ELSE branch,  */
      370     7600                                                /* clearing data from any previous    */
      371     7601                                                /* MODIFY                             */
      372     7602    2               IF OCB.MOD_NAME.LEN>0
      373     7603    2                THEN                       /* New name specified on MODIFY       */
      374     7604    3                DO;
      375     7605    3                   FPT_CLOSE.V.OPER.CHGATT# = %YES#;
      376     7606    3                   FPT_CLOSE.NAME_ = VECTOR(OCB.MOD_NAME);
      377     7607    3                   END;
PL6.E3A0      #006=VPD$CLOSE_OUT File=VPD$UTIL.:E05TSI                           WED 07/30/97 07:24 Page:98
      378     7608    2                ELSE                       /* No new name (or not MODIFY         */
      379     7609    2                  FPT_CLOSE.NAME_ = VECTOR(NIL); /* Clear any previous MOD NAME  */
      380     7610    2               IF OCB.MOD_PASS_FLG
      381     7611    2                THEN                       /* New password specified on MODIFY   */
      382     7612    3                DO;
      383     7613    3                   FPT_CLOSE.V.OPER.CHGATT# = %YES#;
      384     7614    3                   FPT_CLOSE.PASS_ = VECTOR(OCB.MOD_PASS);
      385     7615    3                   END;
      386     7616    2                ELSE                       /* No new password or not MODIFY      */
      387     7617    2                  FPT_CLOSE.PASS_ = VECTOR(NIL); /* Clear any previous MOD PASS  */
      388     7618                                                /* The following changes are OK on    */
      389     7619                                                /* any close                          */
      390     7620    2               IF OCB.BACKUP=0
      391     7621    2                THEN
      392     7622    2                  FPT_CLOSE.V.BUPM# = '01'B;
      393     7623    3                ELSE DO;
      394     7624    3                   FPT_CLOSE.V.OPER.CHGATT# = %YES#;
      395     7625    3                   IF OCB.BACKUP=1
      396     7626    3                    THEN
      397     7627    3                      FPT_CLOSE.V.BUPM#      = %YES#;
      398     7628    3                    ELSE
      399     7629    3                      FPT_CLOSE.V.BUPM#      = %NO#;
      400     7630    3                   END;
      401     7631    2               IF (OCB.XTNSIZE + OCB.EXPIRE + OCB.LRDL0 + OCB.LSLIDE + OCB.SPARE)~=0
      402     7632    3                THEN DO;
      403     7633    3                   FPT_CLOSE.V.OPER.CHGATT# = %YES#;
      404     7634    3                   FPT_CLOSE.V.XTNSIZE# = OCB.XTNSIZE;
      405     7635    3                   FPT_CLOSE.V.EXPIRE# = OCB.EXPIRE;
      406     7636    3                   FPT_CLOSE.V.LRDL0# = OCB.LRDL0;
      407     7637    3                   FPT_CLOSE.V.LSLIDE# = OCB.LSLIDE;
      408     7638    3                   FPT_CLOSE.V.SPARE# = OCB.SPARE;
      409     7639    3                   END;
      410     7640    2               IF OCB.ACCESS_FLG
      411     7641    3                THEN DO;
      412     7642    3                   FPT_CLOSE.V.OPER.CHGATT# = %YES#;
      413     7643                                                /* Merge old and new ACCESS controls  */
      414     7644    3                   CALL VPD$PROCESS_CONTROLS(9,FPT_CLOSE.ACCESS_);
PL6.E3A0      #006=VPD$CLOSE_OUT File=VPD$UTIL.:E05TSI                           WED 07/30/97 07:24 Page:99
      415     7645    3                   END;
      416     7646    2                ELSE
      417     7647    2                  FPT_CLOSE.ACCESS_ = VECTOR(NIL);
      418     7648    2               IF OCB.ACSVEH_FLG
      419     7649    3                THEN DO;
      420     7650    3                   FPT_CLOSE.V.OPER.CHGATT# = %YES#;
      421     7651                                                /* Merge old and new ASCVEH controls  */
      422     7652    3                   CALL VPD$PROCESS_CONTROLS(10,FPT_CLOSE.ACSVEH_);
      423     7653    3                   END;
      424     7654    2                ELSE
      425     7655    2                  FPT_CLOSE.ACSVEH_ = VECTOR(NIL);
      426     7656    2               IF OCB.TYPE_BIT~='0'B
      427     7657    3                THEN DO;
      428     7658    3                   FPT_CLOSE.V.OPER.CHGATT# = %YES#;
      429     7659    3                   FPT_CLOSE.V.TYPE# = OCB.TYPE;
      430     7660    3                   END;
      431     7661    2                ELSE
      432     7662    2                  FPT_CLOSE.V.TYPE# = BINASC(0);
      433     7663    2               END;
      434     7664    1           IF OCB.GHSTACS ~= 0
      435     7665    2            THEN DO;
      436     7666    2               FPT_CLOSE.V.OPER.CHGATT# = %YES#;
      437     7667    2               FPT_CLOSE.V.GHSTACS# = OCB.GHSTACS;
      438     7668    2               END;
      439     7669    1            ELSE
      440     7670    1              FPT_CLOSE.V.GHSTACS# = 0;
      441     7671    1           IF USER_LABELS$ ~= ADDR(NIL) AND OCB.FLAVOR.TAPE /* Have to put UTL out */
      442     7672    1             AND USER_LABELS$->B$WORD ~= 0
      443     7673    2            THEN DO;
      444     7674    2               ADDR(FPT_CLOSE.UTL_)->B$VECTOR.PTR$ = USER_LABELS$;
      445     7675    2               ADDR(FPT_CLOSE.UTL_)->B$VECTOR.W1.VSIZE# = USER_LABELS$->B$WORD*80+3;
      446     7676    2               END;
      447     7677    1            ELSE
      448     7678    1              FPT_CLOSE.UTL_ = VECTOR(NIL);
      449     7679    1           IF CMD_MASK(12) AND             /* If this is a MODIFY                */
      450     7680    1             OCB.ALTBLD ~= 1 THEN          /* he didn't ask for ALTBLD           */
      451     7681    1              FPT_CLOSE.V.ALTBLD# = %NO#;  /* then don't rebuild altkeys         */
PL6.E3A0      #006=VPD$CLOSE_OUT File=VPD$UTIL.:E05TSI                           WED 07/30/97 07:24 Page:100
      452     7682    1           CALL VPC$CALL_CLOSE(FPT_CLOSE) ALTRET(CLOSE_ALT);
      453     7683    1           IF FPT_CLOSE.V.DISP#=%SAVE# AND OCB.DCBPTR$->F$DCB.RES='JE  '
      454     7684    1            THEN                           /* We have written to the JOB Entry   */
      455     7685                                                /* system.                            */
      456     7686    2            DO;                            /* Output a message giving JOB ID     */
      457     7687    2               CALL VPD$FINISH_NLIST;      /* Take care of dangling name list    */
      458     7688    2               IF TEST_MODE=0
      459     7689    2                THEN
      460     7690    2                  IF OCB.DCBPTR$->F$DCB.WSN=' '
      461     7691    2                   THEN                    /* A local JOB entry, SYSID available */
      462     7692    2                     CALL EDITCHAR(JOB_MESS.ID,
      463     7693    2                       0,
      464     7694    2                       6,
      465     7695    2                       MOP_6_DIGITS,
      466     7696    2                       SUBSTR(DCB$->F$DCB.NAME.C,0,6));
      467     7697    2                   ELSE                    /* A remote JOB entry, SYSID unknown  */
      468     7698    2                     JOB_MESS.ID = 'remote';
      469     7699    2                ELSE                       /* Test mode, don't give SYSID        */
      470     7700    2                  JOB_MESS.ID = 'TEST';
      471     7701    2               FPT_WRITE_ME.BUF_ = VECTOR(JOB_MESS);
      472     7702    2               FPT_WRITE_ME.V.DVBYTE.VFC# = %YES#;
      473     7703    2               CALL M$WRITE(FPT_WRITE_ME);
      474     7704    2               END;
      475     7705    1           IF OCB.FLAVOR.TAPE
      476     7706    1             OR SUBSTR(DCB$ -> F$DCB.RES,0,2) = 'FT'
      477     7707    1             OR SUBSTR(DCB$ -> F$DCB.RES,0,2) = 'MT'
      478     7708    1            THEN                           /* We must stash VOL and test SN list */
      479     7709    2            DO;
      480     7710    2               CALL VPD$CHECK_VOL(OUT_SN,0,OCB.DCBNM,,1); /* Check for VOL trans */
      481     7711    2               IF OUT_SN.COUNT ~= CLOSE_SN.COUNT
      482     7712    2                THEN                       /* SN list grew, report new list      */
      483     7713    3                DO;
      484     7714    3                   TEXTC.TEXT = CLOSE_SN.SNLIST;
      485     7715    3                   TEXTC.C = CLOSE_SN.COUNT * 6;
      486     7716    3                   CALL VPL$ERR_PROC(0,190,'04'O,,VECTOR(TEXTC));
      487     7717        /*E* ERROR:   VPD-0190
      488     7718             MESSAGE: Volume list has grown to %U1
PL6.E3A0      #006=VPD$CLOSE_OUT File=VPD$UTIL.:E05TSI                           WED 07/30/97 07:24 Page:101
      489     7719        */
      490     7720    3                   END;
      491     7721    2                ELSE ;                     /* No SN list change                  */
      492     7722    2               END;
      493     7723    1            ELSE ;                         /* Not a tape, leave VOL & SN list    */
      494     7724    1           RETURN;
      495     7725    1   CLOSE_ALT: CALL VPL$ERR_PROC(2,0);
      496     7726    1           RETURN;
      497     7727    1   END VPD$CLOSE_OUT;
      498     7728        %EOD;

PL6.E3A0      #006=VPD$CLOSE_OUT File=VPD$UTIL.:E05TSI                           WED 07/30/97 07:24 Page:102
--  Include file information  --

   FM$FIT.:E05TOU  is referenced.
   F$DCB.:E05TOU  cannot be made into a system file and is referenced.
   B_MICROPS_C.:E05TOU  is referenced.
   XU_MACRO_C.:E05TOU  is referenced.
   VP_MACRO_C.:E05TOU  is referenced.
   XS_MACRO_C.:E05TOU  is referenced.
   VP_PERR_C.:E05TOU  is referenced.
   CP_6_SUBS.:E05TOU  is referenced.
   CP_6.:E05TOU  cannot be made into a system file and is referenced.
   VP_DATA_R.:E05TOU  cannot be made into a system file and is referenced.
   B$JIT_C.:E05TOU  was found in the system file and is never referenced.
   CP_6_C.:E05TOU  was found in the system file and is referenced.
      No diagnostics issued in procedure VPD$CLOSE_OUT.

   Procedure VPD$CLOSE_OUT requires 278 words for executable code.
   Procedure VPD$CLOSE_OUT requires 24 words of local(AUTO) storage.

PL6.E3A0      #006=VPD$CLOSE_OUT File=VPD$UTIL.:E05TSI                           WED 07/30/97 07:24 Page:103

 Object Unit name= VPD$CLOSE_OUT                              File name= VPD$UTIL.:E05TOU
 UTS= JUL 30 '97 07:24:42.28 WED                              Compiler= PL-6/E31         Sev=      00
 SharedLib= :SHARED_SYSTEM                                    Alt SharedLib=


    ****  Control sections  ****

 Sect   Type Bound  Init  Size OctSiz  Section name(segment info)
    0   DCB   even  none     0      0  M$UC
    1   DCB   even  none     0      0  M$EI
    2   DCB   even  none     0      0  M$EO
    3   DCB   even  none     0      0  M$EO1
    4   DCB   even  none     0      0  M$ME
    5   DCB   even  none     0      0  M$SI
    6   DCB   even  none     0      0  M$READFILE
    7   DCB   even  none     0      0  M$DO
    8   DCB   even  none     0      0  M$STD1
    9   DCB   even  none     0      0  M$SORT1
   10   Data  even  none    68    104  VPD$CLOSE_OUT
   11  RoData even  UTS      7      7  VPD$CLOSE_OUT
   12   Proc  even  none   278    426  VPD$CLOSE_OUT
   13  RoData even  none    32     40  VPD$CLOSE_OUT

    ****  Entry defs  ****

                              Check   Calling
                             calling  sequence
  Sect OctLoc Primary Altret sequence   type   Parms  Name
    12      0   yes            yes      Std        1  VPD$CLOSE_OUT
PL6.E3A0      #006=VPD$CLOSE_OUT File=VPD$UTIL.:E05TSI                           WED 07/30/97 07:24 Page:104

  ****  Entry refs  ****

         Check        Calling
        calling       sequence
Altret sequence SRef   type   Args  Name
         yes           Std       2 VPD$PROCESS_CONTROLS
         yes           Std       2 VPD$FINISH_NLIST
         yes           Std       5 VPD$CHECK_VOL
         yes           Std       8 VPL$ERR_PROC
 yes     yes           Std       1 VPC$CALL_CLOSE
                       nStd      0 X66_AUTO_1
                       Std       0 B_CONSPOOL_D
                       nStd      0 X66_ARET

  ****  Data refs  ****

  Flags:  r = read only, s = secondary
Flgs Name                             Flgs Name                             Flgs Name
     M$UC                                  ERR_SAVE_REL                          USER_LABELS$
     TEST_MODE                             BREAK_LOC                             BREAK_MESSAGE_REPORTER
     CMD_MASK                              SPEC_BUF                              OCB
     IN_RES                                OUT_SN                                M$EI
     M$EO                                  M$EO1                                 M$ME
     M$SI                                  M$READFILE                            M$DO
     M$STD1                                M$SORT1                               FPT_WRITE_ME
     B_VECTNIL

  ****  Segment refs  ****

  Flags:  r = read only, s = secondary
Flgs Name                             Flgs Name                             Flgs Name
     ISSID                                 NULLSID
PL6.E3A0      #006=VPD$CLOSE_OUT File=VPD$UTIL.:E05TSI                           WED 07/30/97 07:24 Page:105


      304        1        /*T***********************************************************/
      305        2        /*T*                                                         */
      306        3        /*T* Copyright (c) Bull HN Information Systems Inc., 1997    */
      307        4        /*T*                                                         */
      308        5        /*T***********************************************************/
      309        6        VPD$CLOSE_OUT: PROC(ERR);

      6 12 000000   000000 700200 xent  VPD$CLOSE_O* TSX0  ! X66_AUTO_1
        12 000001   000030 000001                    ZERO    24,1

      310        7        /*D* NAME: VPD$CLOSE_OUT
      311        8             CALL: CALL VPD$CLOSE_OUT(ERR);
      312        9             DESCRIPTION: Closes the output file, specified by its DCBNUM in
      313       10                          OCB.DCBNM (UBIN(18)). The DCB is closed with SAVE if either
      314       11                          ERR (SBIN WORD) = 0 or if ERRORS SAVE has been specified
      315       12                          causing ERR_SAVE_REL to be set to 1, or OCB.ERR_SAVE = 1.
      316       13                          Attributes of the file are also changed if applicable.
      317       14                          These include NAME, PASSWORD, account and vehicle access
      318       15                          controls, and TYPE. RELEASE may also be specified to
      319       16                          release any unused granules.
      320       17                          Also allows one to change: BUPM, XTNSIZE, LRDL0, LSLIDE,
      321       18                          GHSTACS and SPARE.
      322       19        */
      323       20        %INCLUDE VP_DATA_R;
      324     7007        %INCLUDE F$DCB;
      325     7056        %INCLUDE FM$FIT;
      326     7277    1   DCL ERR SBIN WORD;
      327     7278        %FPT_CLOSE(FPTN = FPT_CLOSE,
      328     7279                   SN = CLOSE_SN,
      329     7280                   STCLASS = STATIC);
      330     7322    1   DCL DCB$ PTR STATIC;
      331     7323        %VLP_VECTOR(FPTN=B$VECTOR,STCLASS=BASED);
      332     7338    1   DCL B$WORD UBIN BASED;
      333     7339    1   DCL 1 TEXT$C BASED,
      334     7340    1         2 LEN UBIN BYTE UNAL,
      335     7341    1         2 STRING CHAR(TEXT$C.LEN);
PL6.E3A0      #006=VPD$CLOSE_OUT File=VPD$UTIL.:E05TSI                           WED 07/30/97 07:24 Page:106
      336     7342    1   DCL MOP_6_DIGITS(0:1) BIT(9) CONSTANT INIT(%MVZB5,%MVC1);
      337     7343    1   DCL 1 JOB_MESS STATIC,
      338     7344    1         2 VFC CHAR(1) INIT('A'),          /* Space one after printing           */
      339     7345    1         2 * CHAR(0) INIT('  JOB '),
      340     7346    1         2 ID CHAR(6),
      341     7347    1         2 * CHAR(0) INIT(' submitted');
      342     7348        %PCL_SN(FPTN = CLOSE_SN,STCLASS = STATIC);
      343     7366    1   DCL 1 TEXTC,
      344     7367    1         2 C UBIN(9),
      345     7368    1         2 TEXT CHAR(31);
      346     7369        %VP_ENTRIES (OMIT=VPD$CLOSE_OUT);
      347     7577    1           DCB$ = OCB.DCBPTR$;

   7577 12 000002   000001 236000 xsym               LDQ     OCB+1
        12 000003   000036 756000 10                 STQ     DCB$

      348     7578    1           FPT_CLOSE.V.DCB# = OCB.DCBNM;

   7578 12 000004   000000 720000 xsym               LXL0    OCB
        12 000005   000032 740000 10                 STX0    FPT_CLOSE+26

      349     7579    1           FPT_CLOSE.V.OPER.CHGATT# = %NO#; /* Default                           */

   7579 12 000006   000000 236000 13                 LDQ     0
        12 000007   000032 356000 10                 ANSQ    FPT_CLOSE+26

      350     7580    1           FPT_CLOSE.V.EXPIRE# = 0;

   7580 12 000010   000000 221003                    LDX1    0,DU
        12 000011   000034 441000 10                 SXL1    FPT_CLOSE+28

      351     7581    1           IF ERR=1 AND ERR_SAVE_REL=2     /* CLOSE WITH ERROR AND               */

   7581 12 000012   200003 470500                    LDP0    @ERR,,AUTO
        12 000013   000000 235100                    LDA     0,,PR0
        12 000014   000001 115007                    CMPA    1,DL
        12 000015   000026 601000 12                 TNZ     s:7586
PL6.E3A0      #006=VPD$CLOSE_OUT File=VPD$UTIL.:E05TSI                           WED 07/30/97 07:24 Page:107
        12 000016   000000 235000 xsym               LDA     ERR_SAVE_REL
        12 000017   000002 115007                    CMPA    2,DL
        12 000020   000026 601000 12                 TNZ     s:7586
        12 000021   000272 235000 xsym               LDA     OCB+186
        12 000022   000026 601000 12                 TNZ     s:7586

      352     7582    1             AND OCB.ERR_SAVE = 0          /* And user don't care                */
      353     7583    1            THEN                           /* 'ERRORS RELEASE' SPECIFIED         */
      354     7584    1              FPT_CLOSE.V.DISP# = 0;       /* LEAVE FILE AS IT CAME IN           */

   7584 12 000023   000000 236003                    LDQ     0,DU
        12 000024   000032 552004 10                 STBQ    FPT_CLOSE+26,'04'O
        12 000025   000217 710000 12                 TRA     s:7664

      355     7585    2            ELSE DO;

      356     7586    2               FPT_CLOSE.V.DISP# = %SAVE#;

   7586 12 000026   000002 236007                    LDQ     2,DL
        12 000027   000032 552004 10                 STBQ    FPT_CLOSE+26,'04'O

      357     7587    2               FPT_CLOSE.V.OPER.REBLD# = OCB.REBUILD;

   7587 12 000030   000227 236000 xsym               LDQ     OCB+151
        12 000031   000024 772000                    QRL     20
        12 000032   000032 676000 10                 ERQ     FPT_CLOSE+26
        12 000033   100000 376007                    ANQ     32768,DL
        12 000034   000032 656000 10                 ERSQ    FPT_CLOSE+26

      358     7588    2               IF OCB.ALTBLD = 1 THEN

   7588 12 000035   000230 235000 xsym               LDA     OCB+152
        12 000036   000001 115007                    CMPA    1,DL
        12 000037   000045 601000 12                 TNZ     s:7590

      359     7589    2                  FPT_CLOSE.V.ALTBLD#=%YES#;

PL6.E3A0      #006=VPD$CLOSE_OUT File=VPD$UTIL.:E05TSI                           WED 07/30/97 07:24 Page:108
   7589 12 000040   000034 236000 10                 LDQ     FPT_CLOSE+28
        12 000041   000001 376000 13                 ANQ     1
        12 000042   000040 276003                    ORQ     32,DU
        12 000043   000034 756000 10                 STQ     FPT_CLOSE+28
        12 000044   000051 710000 12                 TRA     s:7592

      360     7590    2                ELSE IF OCB.ALTBLD = 2 THEN

   7590 12 000045   000002 115007                    CMPA    2,DL
        12 000046   000051 601000 12                 TNZ     s:7592

      361     7591    2                     FPT_CLOSE.V.ALTBLD#=%NO#;

   7591 12 000047   000001 236000 13                 LDQ     1
        12 000050   000034 356000 10                 ANSQ    FPT_CLOSE+28

      362     7592    2               IF OCB.RELEASE=2

   7592 12 000051   000043 236000 xsym               LDQ     OCB+35
        12 000052   777000 376003                    ANQ     -512,DU
        12 000053   002000 116003                    CMPQ    1024,DU
        12 000054   000060 601000 12                 TNZ     s:7596

      363     7593    2                THEN
      364     7594    2                  FPT_CLOSE.V.OPER.RELG# = %NO#;

   7594 12 000055   000002 236000 13                 LDQ     2
        12 000056   000032 356000 10                 ANSQ    FPT_CLOSE+26
        12 000057   000062 710000 12                 TRA     s:7602

      365     7595    2                ELSE
      366     7596    2                  FPT_CLOSE.V.OPER.RELG# = %YES#;

   7596 12 000060   200000 236007                    LDQ     65536,DL
        12 000061   000032 256000 10                 ORSQ    FPT_CLOSE+26

      367     7597                                                /* The following changes are OK only  */
PL6.E3A0      #006=VPD$CLOSE_OUT File=VPD$UTIL.:E05TSI                           WED 07/30/97 07:24 Page:109
      368     7598                                                /* a close for MODIFY.  Otherwise,    */
      369     7599                                                /* they should take the ELSE branch,  */
      370     7600                                                /* clearing data from any previous    */
      371     7601                                                /* MODIFY                             */
      372     7602    2               IF OCB.MOD_NAME.LEN>0

   7602 12 000062   000231 236000 xsym               LDQ     OCB+153
        12 000063   777000 316003                    CANQ    -512,DU
        12 000064   000072 600000 12                 TZE     s:7609

      373     7603    2                THEN                       /* New name specified on MODIFY       */
      374     7604    3                DO;

      375     7605    3                   FPT_CLOSE.V.OPER.CHGATT# = %YES#;

   7605 12 000065   400000 236007                    LDQ     -131072,DL
        12 000066   000032 256000 10                 ORSQ    FPT_CLOSE+26

      376     7606    3                   FPT_CLOSE.NAME_ = VECTOR(OCB.MOD_NAME);

   7606 12 000067   000004 237000 13                 LDAQ    4
        12 000070   000006 757000 10                 STAQ    FPT_CLOSE+6

      377     7607    3                   END;

   7607 12 000071   000074 710000 12                 TRA     s:7610

      378     7608    2                ELSE                       /* No new name (or not MODIFY         */
      379     7609    2                  FPT_CLOSE.NAME_ = VECTOR(NIL); /* Clear any previous MOD NAME  */

   7609 12 000072   000006 237000 13                 LDAQ    6
        12 000073   000006 757000 10                 STAQ    FPT_CLOSE+6

      380     7610    2               IF OCB.MOD_PASS_FLG

   7610 12 000074   000243 234000 xsym               SZN     OCB+163
        12 000075   000103 605000 12                 TPL     s:7617
PL6.E3A0      #006=VPD$CLOSE_OUT File=VPD$UTIL.:E05TSI                           WED 07/30/97 07:24 Page:110

      381     7611    2                THEN                       /* New password specified on MODIFY   */
      382     7612    3                DO;

      383     7613    3                   FPT_CLOSE.V.OPER.CHGATT# = %YES#;

   7613 12 000076   400000 236007                    LDQ     -131072,DL
        12 000077   000032 256000 10                 ORSQ    FPT_CLOSE+26

      384     7614    3                   FPT_CLOSE.PASS_ = VECTOR(OCB.MOD_PASS);

   7614 12 000100   000010 237000 13                 LDAQ    8
        12 000101   000010 757000 10                 STAQ    FPT_CLOSE+8

      385     7615    3                   END;

   7615 12 000102   000105 710000 12                 TRA     s:7620

      386     7616    2                ELSE                       /* No new password or not MODIFY      */
      387     7617    2                  FPT_CLOSE.PASS_ = VECTOR(NIL); /* Clear any previous MOD PASS  */

   7617 12 000103   000006 237000 13                 LDAQ    6
        12 000104   000010 757000 10                 STAQ    FPT_CLOSE+8

      388     7618                                                /* The following changes are OK on    */
      389     7619                                                /* any close                          */
      390     7620    2               IF OCB.BACKUP=0

   7620 12 000105   000221 235000 xsym               LDA     OCB+145
        12 000106   000114 601000 12                 TNZ     s:7624

      391     7621    2                THEN
      392     7622    2                  FPT_CLOSE.V.BUPM# = '01'B;

   7622 12 000107   000034 236000 10                 LDQ     FPT_CLOSE+28
        12 000110   000003 376000 13                 ANQ     3
        12 000111   000200 276003                    ORQ     128,DU
PL6.E3A0      #006=VPD$CLOSE_OUT File=VPD$UTIL.:E05TSI                           WED 07/30/97 07:24 Page:111
        12 000112   000034 756000 10                 STQ     FPT_CLOSE+28
        12 000113   000127 710000 12                 TRA     s:7631

      393     7623    3                ELSE DO;

      394     7624    3                   FPT_CLOSE.V.OPER.CHGATT# = %YES#;

   7624 12 000114   400000 236007                    LDQ     -131072,DL
        12 000115   000032 256000 10                 ORSQ    FPT_CLOSE+26

      395     7625    3                   IF OCB.BACKUP=1

   7625 12 000116   000001 115007                    CMPA    1,DL
        12 000117   000125 601000 12                 TNZ     s:7629

      396     7626    3                    THEN
      397     7627    3                      FPT_CLOSE.V.BUPM#      = %YES#;

   7627 12 000120   000034 236000 10                 LDQ     FPT_CLOSE+28
        12 000121   000003 376000 13                 ANQ     3
        12 000122   000400 276003                    ORQ     256,DU
        12 000123   000034 756000 10                 STQ     FPT_CLOSE+28
        12 000124   000127 710000 12                 TRA     s:7631

      398     7628    3                    ELSE
      399     7629    3                      FPT_CLOSE.V.BUPM#      = %NO#;

   7629 12 000125   000003 236000 13                 LDQ     3
        12 000126   000034 356000 10                 ANSQ    FPT_CLOSE+28

      400     7630    3                   END;

      401     7631    2               IF (OCB.XTNSIZE + OCB.EXPIRE + OCB.LRDL0 + OCB.LSLIDE + OCB.SPARE)~=0

   7631 12 000127   000225 236000 xsym               LDQ     OCB+149
        12 000130   000226 036000 xsym               ADLQ    OCB+150
        12 000131   000222 036000 xsym               ADLQ    OCB+146
PL6.E3A0      #006=VPD$CLOSE_OUT File=VPD$UTIL.:E05TSI                           WED 07/30/97 07:24 Page:112
        12 000132   000223 036000 xsym               ADLQ    OCB+147
        12 000133   000224 036000 xsym               ADLQ    OCB+148
        12 000134   000154 600000 12                 TZE     s:7640

      402     7632    3                THEN DO;

      403     7633    3                   FPT_CLOSE.V.OPER.CHGATT# = %YES#;

   7633 12 000135   400000 236007                    LDQ     -131072,DL
        12 000136   000032 256000 10                 ORSQ    FPT_CLOSE+26

      404     7634    3                   FPT_CLOSE.V.XTNSIZE# = OCB.XTNSIZE;

   7634 12 000137   000225 722000 xsym               LXL2    OCB+149
        12 000140   000033 742000 10                 STX2    FPT_CLOSE+27

      405     7635    3                   FPT_CLOSE.V.EXPIRE# = OCB.EXPIRE;

   7635 12 000141   000226 723000 xsym               LXL3    OCB+150
        12 000142   000034 443000 10                 SXL3    FPT_CLOSE+28

      406     7636    3                   FPT_CLOSE.V.LRDL0# = OCB.LRDL0;

   7636 12 000143   000222 236000 xsym               LDQ     OCB+146
        12 000144   000022 736000                    QLS     18
        12 000145   000035 552020 10                 STBQ    FPT_CLOSE+29,'20'O

      407     7637    3                   FPT_CLOSE.V.LSLIDE# = OCB.LSLIDE;

   7637 12 000146   000223 236000 xsym               LDQ     OCB+147
        12 000147   000033 736000                    QLS     27
        12 000150   000035 552040 10                 STBQ    FPT_CLOSE+29,'40'O

      408     7638    3                   FPT_CLOSE.V.SPARE# = OCB.SPARE;

   7638 12 000151   000224 236000 xsym               LDQ     OCB+148
        12 000152   000011 736000                    QLS     9
PL6.E3A0      #006=VPD$CLOSE_OUT File=VPD$UTIL.:E05TSI                           WED 07/30/97 07:24 Page:113
        12 000153   000035 552010 10                 STBQ    FPT_CLOSE+29,'10'O

      409     7639    3                   END;

      410     7640    2               IF OCB.ACCESS_FLG

   7640 12 000154   000254 234000 xsym               SZN     OCB+172
        12 000155   000165 605000 12                 TPL     s:7647

      411     7641    3                THEN DO;

      412     7642    3                   FPT_CLOSE.V.OPER.CHGATT# = %YES#;

   7642 12 000156   400000 236007                    LDQ     -131072,DL
        12 000157   000032 256000 10                 ORSQ    FPT_CLOSE+26

      413     7643                                                /* Merge old and new ACCESS controls  */
      414     7644    3                   CALL VPD$PROCESS_CONTROLS(9,FPT_CLOSE.ACCESS_);

   7644 12 000160   000012 630400 13                 EPPR0   10
        12 000161   000020 631400 xsym               EPPR1   B_VECTNIL+16
        12 000162   000000 701000 xent               TSX1    VPD$PROCESS_CONTROLS
        12 000163   000000 011000                    NOP     0

      415     7645    3                   END;

   7645 12 000164   000167 710000 12                 TRA     s:7648

      416     7646    2                ELSE
      417     7647    2                  FPT_CLOSE.ACCESS_ = VECTOR(NIL);

   7647 12 000165   000006 237000 13                 LDAQ    6
        12 000166   000012 757000 10                 STAQ    FPT_CLOSE+10

      418     7648    2               IF OCB.ACSVEH_FLG

   7648 12 000167   000252 234000 xsym               SZN     OCB+170
PL6.E3A0      #006=VPD$CLOSE_OUT File=VPD$UTIL.:E05TSI                           WED 07/30/97 07:24 Page:114
        12 000170   000200 605000 12                 TPL     s:7655

      419     7649    3                THEN DO;

      420     7650    3                   FPT_CLOSE.V.OPER.CHGATT# = %YES#;

   7650 12 000171   400000 236007                    LDQ     -131072,DL
        12 000172   000032 256000 10                 ORSQ    FPT_CLOSE+26

      421     7651                                                /* Merge old and new ASCVEH controls  */
      422     7652    3                   CALL VPD$PROCESS_CONTROLS(10,FPT_CLOSE.ACSVEH_);

   7652 12 000173   000014 630400 13                 EPPR0   12
        12 000174   000020 631400 xsym               EPPR1   B_VECTNIL+16
        12 000175   000000 701000 xent               TSX1    VPD$PROCESS_CONTROLS
        12 000176   000000 011000                    NOP     0

      423     7653    3                   END;

   7653 12 000177   000202 710000 12                 TRA     s:7656

      424     7654    2                ELSE
      425     7655    2                  FPT_CLOSE.ACSVEH_ = VECTOR(NIL);

   7655 12 000200   000006 237000 13                 LDAQ    6
        12 000201   000014 757000 10                 STAQ    FPT_CLOSE+12

      426     7656    2               IF OCB.TYPE_BIT~='0'B

   7656 12 000202   000043 236000 xsym               LDQ     OCB+35
        12 000203   000016 316000 13                 CANQ    14
        12 000204   000215 600000 12                 TZE     s:7662

      427     7657    3                THEN DO;

      428     7658    3                   FPT_CLOSE.V.OPER.CHGATT# = %YES#;

PL6.E3A0      #006=VPD$CLOSE_OUT File=VPD$UTIL.:E05TSI                           WED 07/30/97 07:24 Page:115
   7658 12 000205   400000 236007                    LDQ     -131072,DL
        12 000206   000032 256000 10                 ORSQ    FPT_CLOSE+26

      429     7659    3                   FPT_CLOSE.V.TYPE# = OCB.TYPE;

   7659 12 000207   040100 100400                    MLR     fill='040'O
        12 000210   000043 200002 xsym               ADSC9   OCB+35                   cn=1,n=2
        12 000211   200016 000004                    ADSC9   TEXTC+10,,AUTO           cn=0,n=4
        12 000212   200016 220100                    LDX0    TEXTC+10,,AUTO
        12 000213   000033 440000 10                 SXL0    FPT_CLOSE+27

      430     7660    3                   END;

   7660 12 000214   000217 710000 12                 TRA     s:7664

      431     7661    2                ELSE
      432     7662    2                  FPT_CLOSE.V.TYPE# = BINASC(0);

   7662 12 000215   000040 220003                    LDX0    32,DU
        12 000216   000033 440000 10                 SXL0    FPT_CLOSE+27

      433     7663    2               END;

      434     7664    1           IF OCB.GHSTACS ~= 0

   7664 12 000217   000044 235000 xsym               LDA     OCB+36
        12 000220   000231 600000 12                 TZE     s:7670

      435     7665    2            THEN DO;

      436     7666    2               FPT_CLOSE.V.OPER.CHGATT# = %YES#;

   7666 12 000221   400000 236007                    LDQ     -131072,DL
        12 000222   000032 256000 10                 ORSQ    FPT_CLOSE+26

      437     7667    2               FPT_CLOSE.V.GHSTACS# = OCB.GHSTACS;

PL6.E3A0      #006=VPD$CLOSE_OUT File=VPD$UTIL.:E05TSI                           WED 07/30/97 07:24 Page:116
   7667 12 000223   000044 236000 xsym               LDQ     OCB+36
        12 000224   000022 736000                    QLS     18
        12 000225   000034 676000 10                 ERQ     FPT_CLOSE+28
        12 000226   000017 376003                    ANQ     15,DU
        12 000227   000034 656000 10                 ERSQ    FPT_CLOSE+28

      438     7668    2               END;

   7668 12 000230   000233 710000 12                 TRA     s:7671

      439     7669    1            ELSE
      440     7670    1              FPT_CLOSE.V.GHSTACS# = 0;

   7670 12 000231   000017 236000 13                 LDQ     15
        12 000232   000034 356000 10                 ANSQ    FPT_CLOSE+28

      441     7671    1           IF USER_LABELS$ ~= ADDR(NIL) AND OCB.FLAVOR.TAPE /* Have to put UTL out */

   7671 12 000233   000000 236000 xsym               LDQ     USER_LABELS$
        12 000234   000001 116000 xsym               CMPQ    B_VECTNIL+1
        12 000235   000256 600000 12                 TZE     s:7678
        12 000236   000256 236000 xsym               LDQ     OCB+174
        12 000237   004000 316003                    CANQ    2048,DU
        12 000240   000256 600000 12                 TZE     s:7678
        12 000241   000000 470400 xsym               LDP0    USER_LABELS$
        12 000242   000000 235100                    LDA     0,,PR0
        12 000243   000256 600000 12                 TZE     s:7678

      442     7672    1             AND USER_LABELS$->B$WORD ~= 0
      443     7673    2            THEN DO;

      444     7674    2               ADDR(FPT_CLOSE.UTL_)->B$VECTOR.PTR$ = USER_LABELS$;

   7674 12 000244   000000 236000 xsym               LDQ     USER_LABELS$
        12 000245   000005 756000 10                 STQ     FPT_CLOSE+5

      445     7675    2               ADDR(FPT_CLOSE.UTL_)->B$VECTOR.W1.VSIZE# = USER_LABELS$->B$WORD*80+3;
PL6.E3A0      #006=VPD$CLOSE_OUT File=VPD$UTIL.:E05TSI                           WED 07/30/97 07:24 Page:117

   7675 12 000246   000000 236100                    LDQ     0,,PR0
        12 000247   000120 402007                    MPY     80,DL
        12 000250   000003 036007                    ADLQ    3,DL
        12 000251   000020 736000                    QLS     16
        12 000252   000004 676000 10                 ERQ     FPT_CLOSE+4
        12 000253   000034 376000 xsym               ANQ     B_VECTNIL+28
        12 000254   000004 656000 10                 ERSQ    FPT_CLOSE+4

      446     7676    2               END;

   7676 12 000255   000260 710000 12                 TRA     s:7679

      447     7677    1            ELSE
      448     7678    1              FPT_CLOSE.UTL_ = VECTOR(NIL);

   7678 12 000256   000006 237000 13                 LDAQ    6
        12 000257   000004 757000 10                 STAQ    FPT_CLOSE+4

      449     7679    1           IF CMD_MASK(12) AND             /* If this is a MODIFY                */

   7679 12 000260   000000 236000 xsym               LDQ     CMD_MASK
        12 000261   000040 316003                    CANQ    32,DU
        12 000262   000270 600000 12                 TZE     s:7682
        12 000263   000230 235000 xsym               LDA     OCB+152
        12 000264   000001 115007                    CMPA    1,DL
        12 000265   000270 600000 12                 TZE     s:7682

      450     7680    1             OCB.ALTBLD ~= 1 THEN          /* he didn't ask for ALTBLD           */
      451     7681    1              FPT_CLOSE.V.ALTBLD# = %NO#;  /* then don't rebuild altkeys         */

   7681 12 000266   000001 236000 13                 LDQ     1
        12 000267   000034 356000 10                 ANSQ    FPT_CLOSE+28

      452     7682    1           CALL VPC$CALL_CLOSE(FPT_CLOSE) ALTRET(CLOSE_ALT);

   7682 12 000270   000020 630400 13                 EPPR0   16
PL6.E3A0      #006=VPD$CLOSE_OUT File=VPD$UTIL.:E05TSI                           WED 07/30/97 07:24 Page:118
        12 000271   000017 631400 xsym               EPPR1   B_VECTNIL+15
        12 000272   000000 701000 xent               TSX1    VPC$CALL_CLOSE
        12 000273   000421 702000 12                 TSX2    CLOSE_ALT

      453     7683    1           IF FPT_CLOSE.V.DISP#=%SAVE# AND OCB.DCBPTR$->F$DCB.RES='JE  '

   7683 12 000274   000032 236000 10                 LDQ     FPT_CLOSE+26
        12 000275   000777 376007                    ANQ     511,DL
        12 000276   000002 116007                    CMPQ    2,DL
        12 000277   000342 601000 12                 TNZ     s:7705
        12 000300   000001 470400 xsym               LDP0    OCB+1
        12 000301   000026 236100                    LDQ     22,,PR0
        12 000302   000001 116000 11                 CMPQ    MOP_6_DIGITS+1
        12 000303   000342 601000 12                 TNZ     s:7705

      454     7684    1            THEN                           /* We have written to the JOB Entry   */
      455     7685                                                /* system.                            */
      456     7686    2            DO;                            /* Output a message giving JOB ID     */

      457     7687    2               CALL VPD$FINISH_NLIST;      /* Take care of dangling name list    */

   7687 12 000304   000002 631400 xsym               EPPR1   B_VECTNIL+2
        12 000305   000000 701000 xent               TSX1    VPD$FINISH_NLIST
        12 000306   000000 011000                    NOP     0

      458     7688    2               IF TEST_MODE=0

   7688 12 000307   000000 235000 xsym               LDA     TEST_MODE
        12 000310   000330 601000 12                 TNZ     s:7700

      459     7689    2                THEN
      460     7690    2                  IF OCB.DCBPTR$->F$DCB.WSN=' '

   7690 12 000311   000001 470400 xsym               LDP0    OCB+1
        12 000312   040000 106500                    CMPC    fill='040'O
        12 000313   000027 000010                    ADSC9   23,,PR0                  cn=0,n=8
        12 000314   000035 000001 xsym               ADSC9   B_VECTNIL+29             cn=0,n=1
PL6.E3A0      #006=VPD$CLOSE_OUT File=VPD$UTIL.:E05TSI                           WED 07/30/97 07:24 Page:119
        12 000315   000324 601000 12                 TNZ     s:7698

      461     7691    2                   THEN                    /* A local JOB entry, SYSID available */
      462     7692    2                     CALL EDITCHAR(JOB_MESS.ID,

   7692 12 000316   000036 471400 10                 LDP1    DCB$
        12 000317   000000 024500                    MVNE
        12 000320   100010 230006                    NDSC9   8,,PR1                   cn=1,s=nosgn,sf=0,n=6
        12 000321   000000 000002 11                 ADSC9   MOP_6_DIGITS             cn=0,n=2
        12 000322   000040 600006 10                 ADSC9   JOB_MESS+1               cn=3,n=6
        12 000323   000333 710000 12                 TRA     s:7701

      463     7693    2                       0,
      464     7694    2                       6,
      465     7695    2                       MOP_6_DIGITS,
      466     7696    2                       SUBSTR(DCB$->F$DCB.NAME.C,0,6));
      467     7697    2                   ELSE                    /* A remote JOB entry, SYSID unknown  */
      468     7698    2                     JOB_MESS.ID = 'remote';

   7698 12 000324   040000 100400                    MLR     fill='040'O
        12 000325   000002 000006 11                 ADSC9   MOP_6_DIGITS+2           cn=0,n=6
        12 000326   000040 600006 10                 ADSC9   JOB_MESS+1               cn=3,n=6
        12 000327   000333 710000 12                 TRA     s:7701

      469     7699    2                ELSE                       /* Test mode, don't give SYSID        */
      470     7700    2                  JOB_MESS.ID = 'TEST';

   7700 12 000330   040000 100400                    MLR     fill='040'O
        12 000331   000004 000004 11                 ADSC9   MOP_6_DIGITS+4           cn=0,n=4
        12 000332   000040 600006 10                 ADSC9   JOB_MESS+1               cn=3,n=6

      471     7701    2               FPT_WRITE_ME.BUF_ = VECTOR(JOB_MESS);

   7701 12 000333   000022 237000 13                 LDAQ    18
        12 000334   000004 757000 xsym               STAQ    FPT_WRITE_ME+4

      472     7702    2               FPT_WRITE_ME.V.DVBYTE.VFC# = %YES#;
PL6.E3A0      #006=VPD$CLOSE_OUT File=VPD$UTIL.:E05TSI                           WED 07/30/97 07:24 Page:120

   7702 12 000335   100000 236003                    LDQ     32768,DU
        12 000336   000013 256000 xsym               ORSQ    FPT_WRITE_ME+11

      473     7703    2               CALL M$WRITE(FPT_WRITE_ME);

   7703 12 000337   000000 630400 xsym               EPPR0   FPT_WRITE_ME
        12 000340   040001 713400                    CLIMB   write
        12 000341   401400 401760                    pmme    nvectors=4

      474     7704    2               END;

      475     7705    1           IF OCB.FLAVOR.TAPE

   7705 12 000342   000256 236000 xsym               LDQ     OCB+174
        12 000343   004000 316003                    CANQ    2048,DU
        12 000344   000353 601000 12                 TNZ     s:7710
        12 000345   000036 470400 10                 LDP0    DCB$
        12 000346   000026 220100                    LDX0    22,,PR0
        12 000347   000005 100000 11                 CMPX0   MOP_6_DIGITS+5
        12 000350   000353 600000 12                 TZE     s:7710
        12 000351   000006 100000 11                 CMPX0   MOP_6_DIGITS+6
        12 000352   000420 601000 12                 TNZ     s:7724

      476     7706    1             OR SUBSTR(DCB$ -> F$DCB.RES,0,2) = 'FT'
      477     7707    1             OR SUBSTR(DCB$ -> F$DCB.RES,0,2) = 'MT'
      478     7708    1            THEN                           /* We must stash VOL and test SN list */
      479     7709    2            DO;

      480     7710    2               CALL VPD$CHECK_VOL(OUT_SN,0,OCB.DCBNM,,1); /* Check for VOL trans */

   7710 12 000353   000024 236000 13                 LDQ     20
        12 000354   200022 756100                    STQ     TEXTC+14,,AUTO
        12 000355   000001 236000 xsym               LDQ     B_VECTNIL+1
        12 000356   000025 235000 13                 LDA     21
        12 000357   200020 757100                    STAQ    TEXTC+12,,AUTO
        12 000360   000026 237000 13                 LDAQ    22
PL6.E3A0      #006=VPD$CLOSE_OUT File=VPD$UTIL.:E05TSI                           WED 07/30/97 07:24 Page:121
        12 000361   200016 757100                    STAQ    TEXTC+10,,AUTO
        12 000362   200016 630500                    EPPR0   TEXTC+10,,AUTO
        12 000363   000023 631400 xsym               EPPR1   B_VECTNIL+19
        12 000364   000000 701000 xent               TSX1    VPD$CHECK_VOL
        12 000365   000000 011000                    NOP     0

      481     7711    2               IF OUT_SN.COUNT ~= CLOSE_SN.COUNT

   7711 12 000366   000000 236000 xsym               LDQ     OUT_SN
        12 000367   000045 116000 10                 CMPQ    CLOSE_SN
        12 000370   000420 600000 12                 TZE     s:7724

      482     7712    2                THEN                       /* SN list grew, report new list      */
      483     7713    3                DO;

      484     7714    3                   TEXTC.TEXT = CLOSE_SN.SNLIST;

   7714 12 000371   040100 100400                    MLR     fill='040'O
        12 000372   000046 000037 10                 ADSC9   CLOSE_SN+1               cn=0,n=31
        12 000373   200005 000037                    ADSC9   TEXTC+1,,AUTO            cn=0,n=31

      485     7715    3                   TEXTC.C = CLOSE_SN.COUNT * 6;

   7715 12 000374   000045 236000 10                 LDQ     CLOSE_SN
        12 000375   000006 402007                    MPY     6,DL
        12 000376   000033 736000                    QLS     27
        12 000377   200004 756100                    STQ     TEXTC,,AUTO

      486     7716    3                   CALL VPL$ERR_PROC(0,190,'04'O,,VECTOR(TEXTC));

   7716 12 000400   000030 235000 13                 LDA     24
        12 000401   200016 452500                    STP2    TEXTC+10,,AUTO
        12 000402   200016 236100                    LDQ     TEXTC+10,,AUTO
        12 000403   000004 036003                    ADLQ    4,DU
        12 000404   200020 757100                    STAQ    TEXTC+12,,AUTO
        12 000405   200020 630500                    EPPR0   TEXTC+12,,AUTO
        12 000406   200026 450500                    STP0    TEXTC+18,,AUTO
PL6.E3A0      #006=VPD$CLOSE_OUT File=VPD$UTIL.:E05TSI                           WED 07/30/97 07:24 Page:122
        12 000407   000001 236000 xsym               LDQ     B_VECTNIL+1
        12 000410   000033 235000 13                 LDA     27
        12 000411   200024 757100                    STAQ    TEXTC+16,,AUTO
        12 000412   000034 237000 13                 LDAQ    28
        12 000413   200022 757100                    STAQ    TEXTC+14,,AUTO
        12 000414   200022 630500                    EPPR0   TEXTC+14,,AUTO
        12 000415   000023 631400 xsym               EPPR1   B_VECTNIL+19
        12 000416   000000 701000 xent               TSX1    VPL$ERR_PROC
        12 000417   000000 011000                    NOP     0

      487     7717        /*E* ERROR:   VPD-0190
      488     7718             MESSAGE: Volume list has grown to %U1
      489     7719        */
      490     7720    3                   END;

      491     7721    2                ELSE ;                     /* No SN list change                  */
      492     7722    2               END;

      493     7723    1            ELSE ;                         /* Not a tape, leave VOL & SN list    */
      494     7724    1           RETURN;

   7724 12 000420   000000 702200 xent               TSX2  ! X66_ARET

      495     7725    1   CLOSE_ALT: CALL VPL$ERR_PROC(2,0);

   7725 12 000421   000036 630400 13    CLOSE_ALT    EPPR0   30
        12 000422   000020 631400 xsym               EPPR1   B_VECTNIL+16
        12 000423   000000 701000 xent               TSX1    VPL$ERR_PROC
        12 000424   000000 011000                    NOP     0

      496     7726    1           RETURN;

   7726 12 000425   000000 702200 xent               TSX2  ! X66_ARET
      497     7727    1   END VPD$CLOSE_OUT;
      498     7728        %EOD;

PL6.E3A0      #006=VPD$CLOSE_OUT File=VPD$UTIL.:E05TSI                           WED 07/30/97 07:24 Page:123
--  Include file information  --

   FM$FIT.:E05TOU  is referenced.
   F$DCB.:E05TOU  cannot be made into a system file and is referenced.
   B_MICROPS_C.:E05TOU  is referenced.
   XU_MACRO_C.:E05TOU  is referenced.
   VP_MACRO_C.:E05TOU  is referenced.
   XS_MACRO_C.:E05TOU  is referenced.
   VP_PERR_C.:E05TOU  is referenced.
   CP_6_SUBS.:E05TOU  is referenced.
   CP_6.:E05TOU  cannot be made into a system file and is referenced.
   VP_DATA_R.:E05TOU  cannot be made into a system file and is referenced.
   B$JIT_C.:E05TOU  was found in the system file and is never referenced.
   CP_6_C.:E05TOU  was found in the system file and is referenced.
      No diagnostics issued in procedure VPD$CLOSE_OUT.
PL6.E3A0      #006=VPD$CLOSE_OUT File=VPD$UTIL.:E05TSI                           WED 07/30/97 07:24 Page:124

 **** Variables and constants ****

  ****  Section 010  Data  VPD$CLOSE_OUT

  ****  Scalars and arrays  ****
OctLoc.c.b A Datatyp(siz) R M Lvl/name                 OctLoc.c.b A Datatyp(siz) R M Lvl/name

    45-0-0/w STRC(1116)  r     1 CLOSE_SN                  36-0-0/w PTR         r     1 DCB$
     0-0-0/d STRC(1080)  r     1 FPT_CLOSE                 37-0-0/c STRC(207)   r     1 JOB_MESS

  ****  Section 011 RoData VPD$CLOSE_OUT

  ****  Scalars and arrays  ****
OctLoc.c.b A Datatyp(siz) R M Lvl/name                 OctLoc.c.b A Datatyp(siz) R M Lvl/name

     0-0-0/b BIT (9)     r     1 MOP_6_DIGITS(0:1)

  ****  Auto variables  ****

  ****  Scalars and arrays  ****
OctLoc.c.b A Datatyp(siz) R M Lvl/name                 OctLoc.c.b A Datatyp(siz) R M Lvl/name

     3-0-0/w PTR         r     1 @ERR                      *0-0-0/w SBIN        r     1 ERR
     4-0-0/w STRC(315)   r     1 TEXTC

  ****  SYMREF variables  ****

  ****  Scalars and arrays  ****
OctLoc.c.b A Datatyp(siz) R M Lvl/name                 OctLoc.c.b A Datatyp(siz) R M Lvl/name

     0-0-0/w EPTR        r     1 BREAK_MESSAGE_REPORTER
     0-0-0/b BIT         r     1 CMD_MASK(0:71)
     0-0-0/w SBIN        r     1 ERR_SAVE_REL               0-0-0/d STRC(432)   r     1 FPT_WRITE_ME
     0-0-0/d STRC(6840)  r     1 OCB                        0-0-0/w STRC(1116)  r     1 OUT_SN
     0-0-0/w SBIN        r     1 TEST_MODE                  0-0-0/w PTR         r     1 USER_LABELS$

  ****  BASED and DCB variables  ****
PL6.E3A0      #006=VPD$CLOSE_OUT File=VPD$UTIL.:E05TSI                           WED 07/30/97 07:24 Page:125

  ****  Scalars and arrays  ****
OctLoc.c.b A Datatyp(siz) R M Lvl/name                 OctLoc.c.b A Datatyp(siz) R M Lvl/name

     0-0-0/d STRC(72)    r     1 B$VECTOR                   0-0-0/w UBIN        r     1 B$WORD
     0-0-0/d ASTR(3528)  r     1 F$DCB                      0-0-0/c ASTR(9)     r     1 TEXT$C


   Procedure VPD$CLOSE_OUT requires 278 words for executable code.
   Procedure VPD$CLOSE_OUT requires 24 words of local(AUTO) storage.
PL6.E3A0      #006=VPD$CLOSE_OUT File=VPD$UTIL.:E05TSI                           WED 07/30/97 07:24 Page:126
          *** CROSS REFERENCE LISTING ***
**     DENOTES     IDENTIFIER DEFINITION
<<                 IDENTIFIER'S VALUE SET
>>                 IDENTIFIER'S VALUE USED
<>                 IDENTIFIER SET AND/OR USED
--                 IDENTIFIER REFERENCED
PL6.E3A0      #006=VPD$CLOSE_OUT File=VPD$UTIL.:E05TSI                           WED 07/30/97 07:24 Page:127
          MINI XREF LISTING

B$VECTOR.PTR$
      7336**DCL      7674<<ASSIGN
B$VECTOR.W1.VSIZE#
      7334**DCL      7675<<ASSIGN
B$VECTOR.W2
      7335**DCL      7336--REDEF
B$WORD
      7338**DCL      7671>>IF       7675>>ASSIGN
BREAK_LOC
      5227**DCL      5227--REDEF
CLOSE_ALT
      7725**LABEL    7682--CALLALT
CLOSE_SN
      7358**DCL      7303--DCLINIT
CLOSE_SN.COUNT
      7362**DCL      7711>>IF       7715>>ASSIGN
CLOSE_SN.SN
      7363**DCL      7364--REDEF
CLOSE_SN.SNLIST
      7364**DCL      7714>>ASSIGN
CMD_MASK
      5229**DCL      7679>>IF
DCB$
      7322**DCL      7577<<ASSIGN   7692>>CALLBLT  7705>>IF       7705>>IF
DEF_ICB.FID.STRING
      5825**DCL      5826--REDEF
DEV_ICB.FID.STRING
      5711**DCL      5712--REDEF
EI_KEY.KEY
      5923**DCL      5923--REDEF    5923--REDEF    5923--REDEF
EO_OCB.TYPE
      5423**DCL      5424--REDEF
PL6.E3A0      #006=VPD$CLOSE_OUT File=VPD$UTIL.:E05TSI                           WED 07/30/97 07:24 Page:128
ERR
      7277**DCL         6--PROC     7581>>IF
ERR_SAVE_REL
      5222**DCL      7581>>IF
F$DCB.ACTPOS
      7033**DCL      7033--REDEF
F$DCB.ARS
      7008**DCL      7008--REDEF
F$DCB.ATTR
      7026**DCL      7027--REDEF
F$DCB.BORROW
      7041**DCL      7041--REDEF    7041--REDEF    7041--REDEF
F$DCB.DCBNAME.L
      7055**DCL      7055--IMP-SIZ
F$DCB.EOMCHAR
      7012**DCL      7012--REDEF
F$DCB.FLDID
      7036**DCL      7036--REDEF
F$DCB.FORM$
      7030**DCL      7030--REDEF
F$DCB.FSECT
      7046**DCL      7046--REDEF
F$DCB.FSN
      7023**DCL      7023--REDEF    7023--REDEF    7024--REDEF
F$DCB.HEADER$
      7029**DCL      7029--REDEF
F$DCB.IXTNSIZE
      7027**DCL      7027--REDEF
F$DCB.LASTSTA$
      7017**DCL      7017--REDEF
F$DCB.LVL
      7042**DCL      7042--REDEF
F$DCB.NAME.C
      7017**DCL      7017--REDEF    7692>>CALLBLT
F$DCB.NOEOF
      7038**DCL      7038--REDEF
PL6.E3A0      #006=VPD$CLOSE_OUT File=VPD$UTIL.:E05TSI                           WED 07/30/97 07:24 Page:129
F$DCB.NRECS
      7028**DCL      7028--REDEF
F$DCB.NRECX
      7047**DCL      7047--REDEF
F$DCB.OHDR
      7039**DCL      7039--REDEF
F$DCB.ORG
      7022**DCL      7022--REDEF
F$DCB.PRECNO
      7045**DCL      7045--REDEF
F$DCB.RCSZ
      7050**DCL      7050--REDEF
F$DCB.RES
      7018**DCL      7018--REDEF    7683>>IF       7705>>IF       7705>>IF
F$DCB.SETX
      7030**DCL      7030--REDEF
F$DCB.TAB$
      7029**DCL      7030--REDEF
F$DCB.TDA
      7044**DCL      7044--REDEF
F$DCB.WSN
      7019**DCL      7019--REDEF    7690>>IF
FPT_CLOSE
      7303**DCL      7682<>CALL
FPT_CLOSE.ACCESS_
      7305**DCL      7644<>CALL     7647<<ASSIGN
FPT_CLOSE.ACSVEH_
      7306**DCL      7652<>CALL     7655<<ASSIGN
FPT_CLOSE.NAME_
      7304**DCL      7606<<ASSIGN   7609<<ASSIGN
FPT_CLOSE.PASS_
      7305**DCL      7614<<ASSIGN   7617<<ASSIGN
FPT_CLOSE.SN_
      7303**DCL      7303--REDEF
FPT_CLOSE.UTL_
      7304**DCL      7304--REDEF    7674--ASSIGN   7675--ASSIGN   7678<<ASSIGN
PL6.E3A0      #006=VPD$CLOSE_OUT File=VPD$UTIL.:E05TSI                           WED 07/30/97 07:24 Page:130
FPT_CLOSE.V
      7308**DCL      7303--DCLINIT
FPT_CLOSE.V.ALTBLD#
      7317**DCL      7589<<ASSIGN   7591<<ASSIGN   7681<<ASSIGN
FPT_CLOSE.V.BUPM#
      7316**DCL      7622<<ASSIGN   7627<<ASSIGN   7629<<ASSIGN
FPT_CLOSE.V.DCB#
      7309**DCL      7578<<ASSIGN
FPT_CLOSE.V.DISP#
      7312**DCL      7584<<ASSIGN   7586<<ASSIGN   7683>>IF
FPT_CLOSE.V.EXPIRE#
      7318**DCL      7318--REDEF    7580<<ASSIGN   7635<<ASSIGN
FPT_CLOSE.V.GHSTACS#
      7317**DCL      7667<<ASSIGN   7670<<ASSIGN
FPT_CLOSE.V.LRDL0#
      7319**DCL      7636<<ASSIGN
FPT_CLOSE.V.LSLIDE#
      7319**DCL      7637<<ASSIGN
FPT_CLOSE.V.OPER.CHGATT#
      7309**DCL      7579<<ASSIGN   7605<<ASSIGN   7613<<ASSIGN   7624<<ASSIGN   7633<<ASSIGN   7642<<ASSIGN
      7650<<ASSIGN   7658<<ASSIGN   7666<<ASSIGN
FPT_CLOSE.V.OPER.REBLD#
      7310**DCL      7587<<ASSIGN
FPT_CLOSE.V.OPER.RELG#
      7309**DCL      7594<<ASSIGN   7596<<ASSIGN
FPT_CLOSE.V.SPARE#
      7319**DCL      7638<<ASSIGN
FPT_CLOSE.V.TYPE#
      7316**DCL      7316--REDEF    7659<<ASSIGN   7662<<ASSIGN
FPT_CLOSE.V.XTNSIZE#
      7313**DCL      7313--REDEF    7315--REDEF    7634<<ASSIGN
FPT_CLOSE_EI.SN_
      6764**DCL      6764--REDEF
FPT_CLOSE_EI.UTL_
      6765**DCL      6765--REDEF
FPT_CLOSE_EI.V.EXPIRE#
PL6.E3A0      #006=VPD$CLOSE_OUT File=VPD$UTIL.:E05TSI                           WED 07/30/97 07:24 Page:131
      6779**DCL      6779--REDEF
FPT_CLOSE_EI.V.TYPE#
      6777**DCL      6777--REDEF
FPT_CLOSE_EI.V.XTNSIZE#
      6774**DCL      6774--REDEF    6776--REDEF
FPT_CLOSE_PTL.SN_
      6890**DCL      6890--REDEF
FPT_CLOSE_PTL.UTL_
      6891**DCL      6891--REDEF
FPT_CLOSE_PTL.V.EXPIRE#
      6905**DCL      6905--REDEF
FPT_CLOSE_PTL.V.TYPE#
      6903**DCL      6903--REDEF
FPT_CLOSE_PTL.V.XTNSIZE#
      6900**DCL      6900--REDEF    6902--REDEF
FPT_CLOSE_READ.SN_
      6806**DCL      6806--REDEF
FPT_CLOSE_READ.UTL_
      6807**DCL      6807--REDEF
FPT_CLOSE_READ.V.EXPIRE#
      6821**DCL      6821--REDEF
FPT_CLOSE_READ.V.TYPE#
      6819**DCL      6819--REDEF
FPT_CLOSE_READ.V.XTNSIZE#
      6816**DCL      6816--REDEF    6818--REDEF
FPT_CLOSE_SI.SN_
      6974**DCL      6974--REDEF
FPT_CLOSE_SI.UTL_
      6975**DCL      6975--REDEF
FPT_CLOSE_SI.V.EXPIRE#
      6989**DCL      6989--REDEF
FPT_CLOSE_SI.V.TYPE#
      6987**DCL      6987--REDEF
FPT_CLOSE_SI.V.XTNSIZE#
      6984**DCL      6984--REDEF    6986--REDEF
FPT_CLOSE_STD.SN_
PL6.E3A0      #006=VPD$CLOSE_OUT File=VPD$UTIL.:E05TSI                           WED 07/30/97 07:24 Page:132
      6932**DCL      6932--REDEF
FPT_CLOSE_STD.UTL_
      6933**DCL      6933--REDEF
FPT_CLOSE_STD.V.EXPIRE#
      6947**DCL      6947--REDEF
FPT_CLOSE_STD.V.TYPE#
      6945**DCL      6945--REDEF
FPT_CLOSE_STD.V.XTNSIZE#
      6942**DCL      6942--REDEF    6944--REDEF
FPT_CLSEI_FT.SN_
      6848**DCL      6848--REDEF
FPT_CLSEI_FT.UTL_
      6849**DCL      6849--REDEF
FPT_CLSEI_FT.V.EXPIRE#
      6863**DCL      6863--REDEF
FPT_CLSEI_FT.V.TYPE#
      6861**DCL      6861--REDEF
FPT_CLSEI_FT.V.XTNSIZE#
      6858**DCL      6858--REDEF    6860--REDEF
FPT_OPEN_EI.ACSVEH_
      6419**DCL      6420--REDEF
FPT_OPEN_EI.ALTKEYS_
      6425**DCL      6426--REDEF    6426--REDEF
FPT_OPEN_EI.HDR_
      6424**DCL      6425--REDEF
FPT_OPEN_EI.TAB_
      6423**DCL      6424--REDEF
FPT_OPEN_EI.UHL_
      6417**DCL      6418--REDEF    6418--REDEF
FPT_OPEN_EI.V.FSN#
      6457**DCL      6457--REDEF    6457--REDEF
FPT_OPEN_EI.WSN_
      6423**DCL      6423--REDEF
FPT_OPEN_EI_SAVE.ACSVEH_
      6528**DCL      6529--REDEF
FPT_OPEN_EI_SAVE.ALTKEYS_
PL6.E3A0      #006=VPD$CLOSE_OUT File=VPD$UTIL.:E05TSI                           WED 07/30/97 07:24 Page:133
      6534**DCL      6535--REDEF    6535--REDEF
FPT_OPEN_EI_SAVE.HDR_
      6533**DCL      6534--REDEF
FPT_OPEN_EI_SAVE.TAB_
      6532**DCL      6533--REDEF
FPT_OPEN_EI_SAVE.UHL_
      6526**DCL      6527--REDEF    6527--REDEF
FPT_OPEN_EI_SAVE.V.FSN#
      6566**DCL      6566--REDEF    6566--REDEF
FPT_OPEN_EI_SAVE.WSN_
      6532**DCL      6532--REDEF
FPT_OPEN_OUT.ACSVEH_
      6310**DCL      6311--REDEF
FPT_OPEN_OUT.ALTKEYS_
      6316**DCL      6317--REDEF    6317--REDEF
FPT_OPEN_OUT.HDR_
      6315**DCL      6316--REDEF
FPT_OPEN_OUT.TAB_
      6314**DCL      6315--REDEF
FPT_OPEN_OUT.UHL_
      6308**DCL      6309--REDEF    6309--REDEF
FPT_OPEN_OUT.V.FSN#
      6348**DCL      6348--REDEF    6348--REDEF
FPT_OPEN_OUT.WSN_
      6314**DCL      6314--REDEF
FPT_OPEN_OUT_SAVE.ACSVEH_
      6201**DCL      6202--REDEF
FPT_OPEN_OUT_SAVE.ALTKEYS_
      6207**DCL      6208--REDEF    6208--REDEF
FPT_OPEN_OUT_SAVE.HDR_
      6206**DCL      6207--REDEF
FPT_OPEN_OUT_SAVE.TAB_
      6205**DCL      6206--REDEF
FPT_OPEN_OUT_SAVE.UHL_
      6199**DCL      6200--REDEF    6200--REDEF
FPT_OPEN_OUT_SAVE.V.FSN#
PL6.E3A0      #006=VPD$CLOSE_OUT File=VPD$UTIL.:E05TSI                           WED 07/30/97 07:24 Page:134
      6239**DCL      6239--REDEF    6239--REDEF
FPT_OPEN_OUT_SAVE.WSN_
      6205**DCL      6205--REDEF
FPT_READ_STD.STATION_
      6629**DCL      6630--REDEF
FPT_READ_STD.V.DVBYTE.REREAD#
      6641**DCL      6641--REDEF
FPT_READ_STD.V.INDX#
      6639**DCL      6639--REDEF
FPT_READ_UC.STATION_
      6590**DCL      6591--REDEF
FPT_READ_UC.V.DVBYTE.REREAD#
      6602**DCL      6602--REDEF
FPT_READ_UC.V.INDX#
      6600**DCL      6600--REDEF
FPT_WRITE_ME
      6696**DCL      7703<>CALL
FPT_WRITE_ME.BUF_
      6696**DCL      7701<<ASSIGN
FPT_WRITE_ME.STATION_
      6698**DCL      6698--REDEF
FPT_WRITE_ME.V.DVBYTE.VFC#
      6705**DCL      6705--REDEF    7702<<ASSIGN
FPT_WRITE_OUT.STATION_
      6729**DCL      6729--REDEF
FPT_WRITE_OUT.V.DVBYTE.VFC#
      6736**DCL      6736--REDEF
FPT_WRITE_UC.STATION_
      6667**DCL      6667--REDEF
FPT_WRITE_UC.V.DVBYTE.VFC#
      6674**DCL      6674--REDEF
FROM_SN.SN
      5573**DCL      5574--REDEF
GETCMD.OUT$
      4780**DCL      4786--REDEF
ICB.FID.STRING
PL6.E3A0      #006=VPD$CLOSE_OUT File=VPD$UTIL.:E05TSI                           WED 07/30/97 07:24 Page:135
      5597**DCL      5598--REDEF
IFSFA_PARAM.EOMCHAR#
      5952**DCL      5953--REDEF
IFSFA_PARAM.SIG1
      5946**DCL      5946--REDEF
IFSFA_PARAM.SIG2
      5946**DCL      5947--REDEF
IN_RES
      5519**DCL      5519--REDEF
IN_SN.SN
      5535**DCL      5536--REDEF
JOB_MESS
      7343**DCL      7701--ASSIGN
JOB_MESS.ID
      7346**DCL      7692<<CALLBLT  7698<<ASSIGN   7700<<ASSIGN
M$WRITE
        38**DCL-ENT  7703--CALL
MOP_6_DIGITS
      7342**DCL      7692>>CALLBLT
OCB.ACCESS_FLG
      5314**DCL      7640>>IF
OCB.ACSVEH_FLG
      5312**DCL      7648>>IF
OCB.ALTBLD
      5301**DCL      7588>>IF       7590>>IF       7679>>IF
OCB.BACKUP
      5294**DCL      7620>>IF       7625>>IF
OCB.DCBNM
      5236**DCL      7578>>ASSIGN   7710<>CALL
OCB.DCBPTR$
      5237**DCL      7577>>ASSIGN   7683>>IF       7690>>IF
OCB.ERR_SAVE
      5371**DCL      7581>>IF
OCB.EXPIRE
      5299**DCL      7631>>IF       7635>>ASSIGN
OCB.FLAVOR.TAPE
PL6.E3A0      #006=VPD$CLOSE_OUT File=VPD$UTIL.:E05TSI                           WED 07/30/97 07:24 Page:136
      5331**DCL      7671>>IF       7705>>IF
OCB.GHSTACS
      5283**DCL      7664>>IF       7667>>ASSIGN
OCB.LRDL0
      5295**DCL      7631>>IF       7636>>ASSIGN
OCB.LSLIDE
      5296**DCL      7631>>IF       7637>>ASSIGN
OCB.MOD_NAME
      5302**DCL      7606--ASSIGN
OCB.MOD_NAME.LEN
      5303**DCL      7602>>IF
OCB.MOD_PASS
      5305**DCL      7614--ASSIGN
OCB.MOD_PASS_FLG
      5306**DCL      7610>>IF
OCB.REBUILD
      5300**DCL      7587>>ASSIGN
OCB.RELEASE
      5280**DCL      7592>>IF
OCB.SPARE
      5297**DCL      7631>>IF       7638>>ASSIGN
OCB.TYPE
      5281**DCL      5282--REDEF    7659>>ASSIGN
OCB.TYPE_BIT
      5282**DCL      7656>>IF
OCB.XTNSIZE
      5298**DCL      7631>>IF       7634>>ASSIGN
OFSFA_PARAM.EOMCHAR#
      5982**DCL      5983--REDEF
OFSFA_PARAM.SIG1
      5976**DCL      5976--REDEF
OFSFA_PARAM.SIG2
      5976**DCL      5977--REDEF
OUT_SN
      5548**DCL      7710<>CALL
OUT_SN.COUNT
PL6.E3A0      #006=VPD$CLOSE_OUT File=VPD$UTIL.:E05TSI                           WED 07/30/97 07:24 Page:137
      5552**DCL      7711>>IF
OUT_SN.SN
      5553**DCL      5554--REDEF
SPEC_BUF
      5231**DCL      5231--REDEF
TEST_MODE
      5226**DCL      7688>>IF
TEXT$C.LEN
      7340**DCL      7341--IMP-SIZ
TEXTC
      7366**DCL      7716--CALL
TEXTC.C
      7367**DCL      7715<<ASSIGN
TEXTC.TEXT
      7368**DCL      7714<<ASSIGN
USER_LABELS$
      5224**DCL      7671>>IF       7671>>IF       7674>>ASSIGN   7675>>ASSIGN
VPC$CALL_CLOSE
      7371**DCL-ENT  7682--CALL
VPD$CHECK_VOL
      7391**DCL-ENT  7710--CALL
VPD$FINISH_NLIST
      7412**DCL-ENT  7687--CALL
VPD$PROCESS_CONTROLS
      7444**DCL-ENT  7644--CALL     7652--CALL
VPL$ERR_PROC
      7551**DCL-ENT  7716--CALL     7725--CALL

