PL6.E3A0      #007=VPD$PROCESS_CONTROLS File=VPD$UTIL.:E05TSI                    WED 07/30/97 07:25 Page:138
      499        1        /*T***********************************************************/
      500        2        /*T*                                                         */
      501        3        /*T* Copyright (c) Bull HN Information Systems Inc., 1997    */
      502        4        /*T*                                                         */
      503        5        /*T***********************************************************/
      504        6        VPD$PROCESS_CONTROLS: PROC (CODE,RET_VECT);
      505        7        /*I* NAME: VPD$PROCESS_CONTROLS
      506        8             PURPOSE: To process access and vehicle controls into a usable form.
      507        9             CALL: CALL VPD$PROCESS_CONTROLS(CODE,RET_VECT);
      508       10             DESCRIPTION: Applies access or vehicle control information in the
      509       11                          OCB to an internal table.  A vector surrounding this
      510       12                          table is returned.  REPLACE flags in the OCB determine
      511       13                          whether or not to include existing controls.
      512       14                          CODE = 9 for ACCESS controls.
      513       15                          CODE =10 for ACSVEHICLE controls.
      514       16        */
      515       17        %INCLUDE VP_DATA_R;
      516     7004        %INCLUDE FM$FIT;
      517     7225        %VP_ENTRIES(OMIT=VPD$PROCESS_CONTROLS);
      518     7433        /* Internal procedure to merge new controls into old                          */
      519     7434    1   DCL CODE UBIN WORD;                     /* 9 = ACCESS, 10 = ACSVEH            */
      520     7435    1   DCL RET_VECT VECTOR;
      521     7436        %CODE09;                                /* Generate structure of old ACCESS   */
      522     7440        %CODE10;                                /* Generate structure of old ACSVEH   */
      523     7444        %FM$FIT;                                /* Generate FIT structure             */
      524     7447    1   DCL XSF$LOCCODE ENTRY (2) ALTRET;       /* Modify CODE before return          */
      525     7448    1   DCL P$ PTR STATIC;
      526     7449    1   DCL FILL$ PTR STATIC;
      527     7450    1   DCL EXAM$ PTR STATIC;
      528     7451    1   DCL PTR$ PTR STATIC;
      529     7452    1   DCL PTR1$ PTR STATIC;
      530     7453    1   DCL ACS$ PTR STATIC;
      531     7454    1   DCL 1 ACS$VEH BASED,                    /* Template for old and destination   */
      532     7455    1         2 CNTLS BIT(18),
      533     7456    1         2 TEXTC,
      534     7457    1           3 LEN UBIN BYTE UNAL,
      535     7458    1           3 STRING CHAR(ACS$VEH.TEXTC.LEN);
PL6.E3A0      #007=VPD$PROCESS_CONTROLS File=VPD$UTIL.:E05TSI                    WED 07/30/97 07:25 Page:139
      536     7459    1   DCL 1 ACS$NEW BASED,                    /* New ACSVEH controls                */
      537     7460    1         2 SPEC_TYPE UBIN(9) UNAL,
      538     7461    1         2 CNTLS BIT(18),
      539     7462    1         2 TEXTC,
      540     7463    1           3 LEN UBIN BYTE UNAL,
      541     7464    1           3 STRING CHAR(ACS$NEW.TEXTC.LEN);
      542     7465    1   DCL 1 ACCESS_AREA STATIC,               /* Workspace for account access ctrl  */
      543     7466    1         2 LEN UBIN WORD,
      544     7467    1         2 LIST(0:49),                     /* 50 entries                         */
      545     7468    1           3 CNTLS BIT(18),
      546     7469    1           3 ACCT CHAR(8);
      547     7470    1   DCL 1 ACSVEH_AREA STATIC,               /* Workspace for access vehicle list  */
      548     7471    1         2 LEN UBIN WORD,
      549     7472    1         2 LIST(0:149) UBIN WORD;          /* 150 words for FIDs and CNTLS       */
      550     7473    1   DCL J UBIN WORD STATIC;
      551     7474    1   DCL I UBIN WORD STATIC;
      552     7475    1   DCL K UBIN WORD STATIC;
      553     7476    1   DCL TOTAL_CTLS UBIN WORD STATIC;
      554     7477    1   DCL CODE_IDX SBIN WORD;
      555     7478        /**/
      556     7479    1           PTR$ = FPARAM$;                 /* Scratch copy of FPARAM pointer     */
      557     7480    2           DO CASE (CODE -8);
      558     7481    2            CASE (1);                      /* ACCESS                             */
      559     7482    2              RET_VECT = VECTOR(ACCESS_AREA);
      560     7483    2              IF OCB.ACCESS_REPLACE
      561     7484    2               THEN                        /* Ignore the old controls            */
      562     7485    3               DO;
      563     7486    4                  DO I=0 TO (OCB.ACCESS.LEN/11 - 1);
      564     7487    4                     IF OCB.ACCESS.LIST.SPEC_TYPE(I) = 2 /* PLUS                 */
      565     7488    4                       OR OCB.ACCESS.LIST.SPEC_TYPE(I) = 4 /* MINUS              */
      566     7489    4                      THEN
      567     7490    4                        GOTO PLUS_MINUS;
      568     7491    4                     END;
      569     7492    3                  GOTO NO_OLD_ACCESS;
      570     7493    3   PLUS_MINUS:
      571     7494    4                  DO I=1 TO (OCB.ACCESS.LEN/11 - 1);
      572     7495    4                     IF OCB.ACCESS.LIST.SPEC_TYPE(I) = 1
PL6.E3A0      #007=VPD$PROCESS_CONTROLS File=VPD$UTIL.:E05TSI                    WED 07/30/97 07:25 Page:140
      573     7496    4                      THEN
      574     7497    4                        OCB.ACCESS.LIST.SPEC_TYPE(I) = 2; /* FORCE PLUS          */
      575     7498    4                     END;
      576     7499    3                  IF OCB.ACCESS.LIST.SPEC_TYPE(0)~=1 THEN
      577     7500    3                     OCB.ACCESS_REPLACE = %NO#;
      578     7501    3                  END;
      579     7502    2              CODE_IDX = CODE;             /* Will be changed by XSF$LOCCODE     */
      580     7503    2              CALL XSF$LOCCODE(PTR$,CODE_IDX) ALTRET(NO_OLD_ACCESS); /* -> ACC   */
      581     7504    2              TOTAL_CTLS = FPARAM$ -> FM$FIT.CODES.NDW(CODE_IDX)*4/10; /* # CNTLS */
      582     7505    2              IF TOTAL_CTLS = 0 OR OCB.ACCESS_REPLACE
      583     7506    2               THEN                        /* No valid entries                   */
      584     7507    2                 GOTO NO_OLD_ACCESS;
      585     7508    2   OLD_ACCESS: ;                           /* Must move old ACCESS to workspace  */
      586     7509    3              DO I=0 TO (TOTAL_CTLS -1);   /* For each old ACCESS                */
      587     7510    3                 ACCESS_AREA.LIST.CNTLS(I) = PTR$ -> CODE09.FFLG;
      588     7511    3                 ACCESS_AREA.LIST.ACCT(I) = PTR$ -> CODE09.ACCT;
      589     7512    3                 PTR$ = PINCRC(PTR$,10);   /* Bump pointer to next old ACCESS    */
      590     7513    3                 END;
      591     7514    3              DO WHILE ('0'B);             /* NEVER DO                           */
      592     7515    3   NO_OLD_ACCESS: TOTAL_CTLS = 0;          /* Clear ACCESS area, no controls     */
      593     7516    3                 END;                      /* END NEVER DO                       */
      594     7517    2   MERGE_ACCESS: ;                         /* Now it's time to merge new ACCESS  */
      595     7518    3              DO I=0 TO (OCB.ACCESS.LEN/11 -1); /* For each new ACCESS           */
      596     7519    4                 DO CASE (OCB.ACCESS.LIST.SPEC_TYPE(I));
      597     7520    4                  CASE(1);                 /* Normal control, 'use this'         */
      598     7521    4                    ACCESS_AREA.LIST.ACCT(TOTAL_CTLS) = OCB.ACCESS.LIST.ACCT(I);
      599     7522    4                    ACCESS_AREA.LIST.CNTLS(TOTAL_CTLS) = OCB.ACCESS.LIST.CNTLS(I);
      600     7523    4                    TOTAL_CTLS = TOTAL_CTLS +1;
      601     7524    4                  CASE(2);                 /* Edit by adding to previous ACCESS  */
      602     7525    5                    DO J = 0 TO (TOTAL_CTLS -1); /* For each existing ACCESS     */
      603     7526    5                       IF ACCESS_AREA.LIST.ACCT(J) = OCB.ACCESS.LIST.ACCT(I)
      604     7527    5                        THEN               /* Already some controls for this     */
      605     7528    6                        DO;
      606     7529    6                           ACCESS_AREA.LIST.CNTLS(J) = ACCESS_AREA.LIST.CNTLS(J)
      607     7530    6                             | OCB.ACCESS.LIST.CNTLS(I);
      608     7531    6                           GOTO FIN_ACCESS;
      609     7532    6                           END;
PL6.E3A0      #007=VPD$PROCESS_CONTROLS File=VPD$UTIL.:E05TSI                    WED 07/30/97 07:25 Page:141
      610     7533    5                       END;
      611     7534    4                    ACCESS_AREA.LIST.ACCT(TOTAL_CTLS) = OCB.ACCESS.LIST.ACCT(I);
      612     7535    4                    ACCESS_AREA.LIST.CNTLS(TOTAL_CTLS) = OCB.ACCESS.LIST.CNTLS(I);
      613     7536    4                    TOTAL_CTLS = TOTAL_CTLS +1;
      614     7537    4                  CASE(3,4);               /* Edit by removing previous ACC      */
      615     7538    5                    DO J = 0 TO (TOTAL_CTLS -1); /* For each existing ACCESS     */
      616     7539    5                       IF ACCESS_AREA.LIST.ACCT(J) = OCB.ACCESS.LIST.ACCT(I)
      617     7540    5                        THEN               /* We found the controls to delete    */
      618     7541    5                          IF OCB.ACCESS.LIST.SPEC_TYPE(I) = 3
      619     7542    5                           THEN            /* Remove only select controls        */
      620     7543    6                           DO;
      621     7544    6                              ACCESS_AREA.LIST.CNTLS(J) = ACCESS_AREA.LIST.CNTLS(J)
      622     7545    6                                & ~OCB.ACCESS.LIST.CNTLS(I);
      623     7546    6                              GOTO FIN_ACCESS;
      624     7547    6                              END;
      625     7548    5                           ELSE            /* Remove entire entry                */
      626     7549    6                           DO;
      627     7550    7                              DO K = J TO (TOTAL_CTLS -2);
      628     7551    7                                 ACCESS_AREA.LIST(K) = ACCESS_AREA.LIST(K +1);
      629     7552    7                                 END;
      630     7553    6                              TOTAL_CTLS = TOTAL_CTLS -1;
      631     7554    6                              GOTO FIN_ACCESS;
      632     7555    6                              END;
      633     7556    5                       END;
      634     7557    4                    CALL VPL$ERR_PROC(1,30,'04'O,,,,M$EI#); /* WARNING ONLY      */
      635     7558        /*E* ERROR:   VPD-00030
      636     7559             MESSAGE: No such control to remove from %UF
      637     7560        */
      638     7561    4                  END;                     /* END DO CASE                        */
      639     7562    3   FIN_ACCESS:   ;                         /* Finished with THIS NEW ACCESS      */
      640     7563    3                 END;
      641     7564    2              ACCESS_AREA.LEN = TOTAL_CTLS*10; /* LENGTH IN BYTES                */
      642     7565    2              ACCESS_AREA.LEN = (ACCESS_AREA.LEN +3)/4; /* LENGTH IN WORDS       */
      643     7566        %EJECT;
PL6.E3A0      #007=VPD$PROCESS_CONTROLS File=VPD$UTIL.:E05TSI                    WED 07/30/97 07:25 Page:142
      644     7567    2            CASE (2);                      /* ACSVEH                             */
      645     7568    2              RET_VECT = VECTOR(ACSVEH_AREA);
      646     7569    2              ACS$ = ADDR(ACSVEH_AREA.LIST);
      647     7570    2              FILL$ = ACS$;
      648     7571    2              IF OCB.ACSVEH_REPLACE
      649     7572    2               THEN                        /* Ignore the old controls            */
      650     7573    3               DO;
      651     7574    3                  I=0;
      652     7575    4                  DO WHILE(I+4<OCB.ACSVEH.LEN);
      653     7576    4                     P$=PINCRC(ADDR(OCB.ACSVEH.LIST),I);
      654     7577    4                     IF P$->ACS$NEW.SPEC_TYPE = 2
      655     7578    4                       OR P$->ACS$NEW.SPEC_TYPE=4
      656     7579    4                      THEN
      657     7580    4                        GOTO ACS_PLUS_MINUS;
      658     7581    4                     I=I+P$->ACS$NEW.TEXTC.LEN+4;
      659     7582    4                     END;
      660     7583    3                  GOTO NO_OLD_ACSVEH;
      661     7584    3   ACS_PLUS_MINUS:
      662     7585    3                  I=0;
      663     7586    4                  DO WHILE(I+4<OCB.ACSVEH.LEN);
      664     7587    4                     P$=PINCRC(ADDR(OCB.ACSVEH.LIST),I);
      665     7588    4                     IF P$->ACS$NEW.SPEC_TYPE = 1 AND I~=0
      666     7589    4                      THEN
      667     7590    4                        P$->ACS$NEW.SPEC_TYPE = 2;
      668     7591    4                     I=I+P$->ACS$NEW.TEXTC.LEN+4;
      669     7592    4                     END;
      670     7593    3                  IF ADDR(OCB.ACSVEH.LIST)->ACS$NEW.SPEC_TYPE~=1 THEN
      671     7594    3                     OCB.ACSVEH_REPLACE = %NO#;
      672     7595    3                  END;
      673     7596    2              IF OCB.ACSVEH_REPLACE THEN GOTO NO_OLD_ACSVEH;
      674     7597    2              CODE_IDX = CODE;             /* Will be changed by XSF$LOCCODE     */
      675     7598    2              CALL XSF$LOCCODE(PTR$,CODE_IDX) ALTRET(NO_OLD_ACSVEH); /* -> ACS   */
      676     7599    2              TOTAL_CTLS = FPARAM$ -> FM$FIT.CODES.NDW(CODE_IDX)*4; /* Len bytes */
      677     7600    2   OLD_ACSVEH: ;                           /* Must move old ACSVEH to workspace  */
      678     7601    2              I = 0;                       /* Byte index                         */
      679     7602    3              DO WHILE (I +3 < TOTAL_CTLS); /* For each old ACSVEH               */
      680     7603    3                 FILL$ -> ACS$VEH.CNTLS = PTR$ -> ACS$VEH.CNTLS;
PL6.E3A0      #007=VPD$PROCESS_CONTROLS File=VPD$UTIL.:E05TSI                    WED 07/30/97 07:25 Page:143
      681     7604    3                 FILL$ -> ACS$VEH.TEXTC.LEN = PTR$ -> ACS$VEH.TEXTC.LEN;
      682     7605    3                 FILL$ -> ACS$VEH.TEXTC.STRING = PTR$ -> ACS$VEH.TEXTC.STRING;
      683     7606    3                 I = I + PTR$ -> ACS$VEH.TEXTC.LEN +3;
      684     7607    3                 PTR$ = PINCRC(PTR$,PTR$ -> ACS$VEH.TEXTC.LEN +3); /* ->  old ACS */
      685     7608    3                 FILL$ = PINCRC(ACS$,I);
      686     7609    3                 END;
      687     7610    2              TOTAL_CTLS = I;
      688     7611    3              DO WHILE ('0'B);             /* NEVER DO                           */
      689     7612    3   NO_OLD_ACSVEH: TOTAL_CTLS = 0;          /* Clear ACSVEH area                  */
      690     7613    3                 END;                      /* END NEVER DO                       */
      691     7614    2   MERGE_ACSVEH: ;                         /* Now it's time to merge new ACSVEH  */
      692     7615    2              I = 0;
      693     7616    3              DO WHILE (I +4 < OCB.ACSVEH.LEN); /* For each new ACSVEH           */
      694     7617    3                 IF TOTAL_CTLS > LENGTHC(ACSVEH_AREA.LIST)
      695     7618    3                  THEN
      696     7619    3                    GOTO TOO_MANY;
      697     7620    3                 EXAM$ = PINCRC(ADDR(OCB.ACSVEH.LIST),I);
      698     7621    4                 DO CASE (EXAM$ -> ACS$NEW.SPEC_TYPE);
      699     7622    4                  CASE(1);                 /* Normal control, 'use this'         */
      700     7623    4   STUFF_ACS:       FILL$ -> ACS$VEH.CNTLS = EXAM$ -> ACS$NEW.CNTLS;
      701     7624    4                    FILL$ -> ACS$VEH.TEXTC.LEN = EXAM$ -> ACS$NEW.TEXTC.LEN;
      702     7625    4                    FILL$ -> ACS$VEH.TEXTC.STRING = EXAM$ -> ACS$NEW.TEXTC.STRING;
      703     7626    4                    TOTAL_CTLS = TOTAL_CTLS + EXAM$ -> ACS$NEW.TEXTC.LEN +3;
      704     7627    4                    FILL$ = PINCRC(ACS$,TOTAL_CTLS);
      705     7628    4                  CASE(2);                 /* Edit by adding to previous ACSVEH  */
      706     7629    4                    PTR$ = ACS$;
      707     7630    5                    DO WHILE (PTR$ < FILL$); /* For each existing ACSVEH         */
      708     7631    5                       IF EXAM$ -> ACS$NEW.TEXTC.STRING = PTR$ -> ACS$VEH.TEXTC.STRING
      709     7632    5                        THEN               /* Already some controls for this     */
      710     7633    6                        DO;
      711     7634    6                           PTR$ -> ACS$VEH.CNTLS = PTR$ -> ACS$VEH.CNTLS
      712     7635    6                             | EXAM$ -> ACS$NEW.CNTLS;
      713     7636    6                           GOTO FIN_ACSVEH;
      714     7637    6                           END;
      715     7638    5                       PTR$ = PINCRC(PTR$,PTR$ -> ACS$VEH.TEXTC.LEN +3);
              7638                                /* Next OLD ACS */
      716     7639    5                       END;
PL6.E3A0      #007=VPD$PROCESS_CONTROLS File=VPD$UTIL.:E05TSI                    WED 07/30/97 07:25 Page:144
      717     7640    4                    GOTO STUFF_ACS;
      718     7641    4                  CASE(3,4);               /* Edit by removing an ACSVEHICLS     */
      719     7642    4                    PTR$ = ACS$;
      720     7643    5                    DO WHILE (PTR$ < FILL$); /* For each existing ACSVEH         */
      721     7644    5                       IF EXAM$ -> ACS$NEW.TEXTC.STRING = PTR$ -> ACS$VEH.TEXTC.STRING
      722     7645    5                        THEN               /* We found the controls to delete    */
      723     7646    5                          IF EXAM$ -> ACS$NEW.SPEC_TYPE = 3
      724     7647    5                           THEN            /* Only delete certain bits           */
      725     7648    6                           DO;
      726     7649    6                              PTR$ -> ACS$VEH.CNTLS = PTR$ -> ACS$VEH.CNTLS
      727     7650    6                                & ~EXAM$ -> ACS$NEW.CNTLS;
      728     7651    6                              GOTO FIN_ACSVEH;
      729     7652    6                              END;
      730     7653    5                           ELSE            /* Delete entire entry                */
      731     7654    6                           DO;
      732     7655    6                              PTR1$ = PINCRC(PTR$,PTR$ -> ACS$VEH.TEXTC.LEN +3);
      733     7656    6                              TOTAL_CTLS = TOTAL_CTLS - PTR$ -> ACS$VEH.TEXTC.LEN -3;
      734     7657    7                              DO WHILE (PTR1$ < FILL$);
      735     7658    7                                 PTR$ -> ACS$VEH.CNTLS = PTR1$ -> ACS$VEH.CNTLS;
      736     7659    7                                 PTR$ -> ACS$VEH.TEXTC.LEN = PTR1$ -> ACS$VEH.TEXTC.LEN
              7659                                          ;
      737     7660    7                                 PTR$ -> ACS$VEH.TEXTC.STRING = PTR1$ -> ACS$VEH.TEXTC.
              7660                                          STRING;
      738     7661    7                                 PTR1$ = PINCRC(PTR1$,PTR$ -> ACS$VEH.TEXTC.LEN +3);
      739     7662    7                                 PTR$ = PINCRC(PTR$,PTR$-> ACS$VEH.TEXTC.LEN +3);
      740     7663    7                                 END;
      741     7664    6                              FILL$ = PINCRC(ACS$,TOTAL_CTLS);
      742     7665    6                              GOTO FIN_ACSVEH;
      743     7666    6                              END;
      744     7667    5                       PTR$ = PINCRC(PTR$,PTR$ -> ACS$VEH.TEXTC.LEN +3);
              7667                                /* Next OLD ACS */
      745     7668    5                       END;
      746     7669    4                    CALL VPL$ERR_PROC(1,30,'04'O,,,,M$EI#); /* WARNING ONLY      */
      747     7670    4                  END;                     /* END DO CASE                        */
      748     7671    3   FIN_ACSVEH:   I = I + EXAM$ -> ACS$NEW.TEXTC.LEN +4; /* Count to next NEW ACS */
      749     7672    3                 END;
      750     7673    2              ACSVEH_AREA.LEN = (TOTAL_CTLS +3)/4; /* LENGTH in WORDS            */
PL6.E3A0      #007=VPD$PROCESS_CONTROLS File=VPD$UTIL.:E05TSI                    WED 07/30/97 07:25 Page:145
      751     7674    2            END;                           /* END DO CASE (CODE)                 */
      752     7675    1           IF ACCESS_AREA.LEN > 125 AND CODE=9
      753     7676    1            THEN
      754     7677    1              CALL VPL$ERR_PROC(3,240,'04'O);
      755     7678        /*E*  ERROR:  VPD-00240
      756     7679              MESSAGE: Too many account ACCESS controls.
      757     7680             MESSAGE1: You tried to have more than 50 account ACCESS controls on a file.
      758     7681        */
      759     7682    1           IF ACSVEH_AREA.LEN > 150 AND CODE=10
      760     7683    1            THEN
      761     7684    1   TOO_MANY:  CALL VPL$ERR_PROC(3,250,'04'O);
      762     7685        /*E*  ERROR:  VPD-00250
      763     7686              MESSAGE: Too many vehicle ACCESS controls.
      764     7687             MESSAGE1: You tried to have more than 150 words of vehicle controls.
      765     7688        */
      766     7689    1           RETURN;
      767     7690    1   END VPD$PROCESS_CONTROLS;
      768     7691        %EOD;

PL6.E3A0      #007=VPD$PROCESS_CONTROLS File=VPD$UTIL.:E05TSI                    WED 07/30/97 07:25 Page:146
--  Include file information  --

   FM$FIT.:E05TOU  is referenced.
   B_MICROPS_C.:E05TOU  is referenced.
   XU_MACRO_C.:E05TOU  is referenced.
   VP_MACRO_C.:E05TOU  is referenced.
   XS_MACRO_C.:E05TOU  is referenced.
   VP_PERR_C.:E05TOU  is referenced.
   CP_6_SUBS.:E05TOU  is referenced.
   CP_6.:E05TOU  cannot be made into a system file and is referenced.
   VP_DATA_R.:E05TOU  cannot be made into a system file and is referenced.
   B$JIT_C.:E05TOU  was found in the system file and is never referenced.
   CP_6_C.:E05TOU  was found in the system file and is referenced.
      No diagnostics issued in procedure VPD$PROCESS_CONTROLS.

   Procedure VPD$PROCESS_CONTROLS requires 718 words for executable code.
   Procedure VPD$PROCESS_CONTROLS requires 14 words of local(AUTO) storage.

PL6.E3A0      #007=VPD$PROCESS_CONTROLS File=VPD$UTIL.:E05TSI                    WED 07/30/97 07:25 Page:147

 Object Unit name= VPD$PROCESS_CONTROLS                       File name= VPD$UTIL.:E05TOU
 UTS= JUL 30 '97 07:25:43.64 WED                              Compiler= PL-6/E31         Sev=      00
 SharedLib= :SHARED_SYSTEM                                    Alt SharedLib=


    ****  Control sections  ****

 Sect   Type Bound  Init  Size OctSiz  Section name(segment info)
    0   DCB   even  none     0      0  M$UC
    1   DCB   even  none     0      0  M$EI
    2   DCB   even  none     0      0  M$EO
    3   DCB   even  none     0      0  M$EO1
    4   DCB   even  none     0      0  M$ME
    5   DCB   even  none     0      0  M$SI
    6   DCB   even  none     0      0  M$READFILE
    7   DCB   even  none     0      0  M$DO
    8   DCB   even  none     0      0  M$STD1
    9   DCB   even  none     0      0  M$SORT1
   10   Data  even  none   287    437  VPD$PROCESS_CONTROLS
   11   Proc  even  none   718   1316  VPD$PROCESS_CONTROLS
   12  RoData even  none    22     26  VPD$PROCESS_CONTROLS

    ****  Entry defs  ****

                              Check   Calling
                             calling  sequence
  Sect OctLoc Primary Altret sequence   type   Parms  Name
    11      0   yes            yes      Std        2  VPD$PROCESS_CONTROLS
PL6.E3A0      #007=VPD$PROCESS_CONTROLS File=VPD$UTIL.:E05TSI                    WED 07/30/97 07:25 Page:148

  ****  Entry refs  ****

         Check        Calling
        calling       sequence
Altret sequence SRef   type   Args  Name
 yes     yes           Std       2 XSF$LOCCODE
         yes           Std       8 VPL$ERR_PROC
                       nStd      0 X66_AUTO_2
                       Std       0 B_CONSPOOL_D
                       nStd      0 X66_ARET

  ****  Data refs  ****

  Flags:  r = read only, s = secondary
Flgs Name                             Flgs Name                             Flgs Name
     M$UC                                  BREAK_LOC                             BREAK_MESSAGE_REPORTER
     FPARAM$                               SPEC_BUF                              OCB
     IN_RES                                M$EI                                  M$EI#
     M$EO                                  M$EO1                                 M$ME
     M$SI                                  M$READFILE                            M$DO
     M$STD1                                M$SORT1                               B_VECTNIL

  ****  Segment refs  ****

  Flags:  r = read only, s = secondary
Flgs Name                             Flgs Name                             Flgs Name
     ISSID
PL6.E3A0      #007=VPD$PROCESS_CONTROLS File=VPD$UTIL.:E05TSI                    WED 07/30/97 07:25 Page:149


      499        1        /*T***********************************************************/
      500        2        /*T*                                                         */
      501        3        /*T* Copyright (c) Bull HN Information Systems Inc., 1997    */
      502        4        /*T*                                                         */
      503        5        /*T***********************************************************/
      504        6        VPD$PROCESS_CONTROLS: PROC (CODE,RET_VECT);

      6 11 000000   000000 700200 xent  VPD$PROCESS* TSX0  ! X66_AUTO_2
        11 000001   000016 000002                    ZERO    14,2

      505        7        /*I* NAME: VPD$PROCESS_CONTROLS
      506        8             PURPOSE: To process access and vehicle controls into a usable form.
      507        9             CALL: CALL VPD$PROCESS_CONTROLS(CODE,RET_VECT);
      508       10             DESCRIPTION: Applies access or vehicle control information in the
      509       11                          OCB to an internal table.  A vector surrounding this
      510       12                          table is returned.  REPLACE flags in the OCB determine
      511       13                          whether or not to include existing controls.
      512       14                          CODE = 9 for ACCESS controls.
      513       15                          CODE =10 for ACSVEHICLE controls.
      514       16        */
      515       17        %INCLUDE VP_DATA_R;
      516     7004        %INCLUDE FM$FIT;
      517     7225        %VP_ENTRIES(OMIT=VPD$PROCESS_CONTROLS);
      518     7433        /* Internal procedure to merge new controls into old                          */
      519     7434    1   DCL CODE UBIN WORD;                     /* 9 = ACCESS, 10 = ACSVEH            */
      520     7435    1   DCL RET_VECT VECTOR;
      521     7436        %CODE09;                                /* Generate structure of old ACCESS   */
      522     7440        %CODE10;                                /* Generate structure of old ACSVEH   */
      523     7444        %FM$FIT;                                /* Generate FIT structure             */
      524     7447    1   DCL XSF$LOCCODE ENTRY (2) ALTRET;       /* Modify CODE before return          */
      525     7448    1   DCL P$ PTR STATIC;
      526     7449    1   DCL FILL$ PTR STATIC;
      527     7450    1   DCL EXAM$ PTR STATIC;
      528     7451    1   DCL PTR$ PTR STATIC;
      529     7452    1   DCL PTR1$ PTR STATIC;
      530     7453    1   DCL ACS$ PTR STATIC;
PL6.E3A0      #007=VPD$PROCESS_CONTROLS File=VPD$UTIL.:E05TSI                    WED 07/30/97 07:25 Page:150
      531     7454    1   DCL 1 ACS$VEH BASED,                    /* Template for old and destination   */
      532     7455    1         2 CNTLS BIT(18),
      533     7456    1         2 TEXTC,
      534     7457    1           3 LEN UBIN BYTE UNAL,
      535     7458    1           3 STRING CHAR(ACS$VEH.TEXTC.LEN);
      536     7459    1   DCL 1 ACS$NEW BASED,                    /* New ACSVEH controls                */
      537     7460    1         2 SPEC_TYPE UBIN(9) UNAL,
      538     7461    1         2 CNTLS BIT(18),
      539     7462    1         2 TEXTC,
      540     7463    1           3 LEN UBIN BYTE UNAL,
      541     7464    1           3 STRING CHAR(ACS$NEW.TEXTC.LEN);
      542     7465    1   DCL 1 ACCESS_AREA STATIC,               /* Workspace for account access ctrl  */
      543     7466    1         2 LEN UBIN WORD,
      544     7467    1         2 LIST(0:49),                     /* 50 entries                         */
      545     7468    1           3 CNTLS BIT(18),
      546     7469    1           3 ACCT CHAR(8);
      547     7470    1   DCL 1 ACSVEH_AREA STATIC,               /* Workspace for access vehicle list  */
      548     7471    1         2 LEN UBIN WORD,
      549     7472    1         2 LIST(0:149) UBIN WORD;          /* 150 words for FIDs and CNTLS       */
      550     7473    1   DCL J UBIN WORD STATIC;
      551     7474    1   DCL I UBIN WORD STATIC;
      552     7475    1   DCL K UBIN WORD STATIC;
      553     7476    1   DCL TOTAL_CTLS UBIN WORD STATIC;
      554     7477    1   DCL CODE_IDX SBIN WORD;
      555     7478        /**/
      556     7479    1           PTR$ = FPARAM$;                 /* Scratch copy of FPARAM pointer     */

   7479 11 000002   000000 236000 xsym               LDQ     FPARAM$
        11 000003   000003 756000 10                 STQ     PTR$

      557     7480    2           DO CASE (CODE -8);

   7480 11 000004   200003 470500                    LDP0    @CODE,,AUTO
        11 000005   000000 235100                    LDA     0,,PR0
        11 000006   000010 135007                    SBLA    8,DL
        11 000007   000003 115007                    CMPA    3,DL
        11 000010   000012 602005 11                 TNC     s:7480+6,AL
PL6.E3A0      #007=VPD$PROCESS_CONTROLS File=VPD$UTIL.:E05TSI                    WED 07/30/97 07:25 Page:151
        11 000011   001267 710000 11                 TRA     s:7675
        11 000012   001267 710000 11                 TRA     s:7675
        11 000013   000015 710000 11                 TRA     s:7482
        11 000014   000472 710000 11                 TRA     s:7568

      558     7481    2            CASE (1);                      /* ACCESS                             */

      559     7482    2              RET_VECT = VECTOR(ACCESS_AREA);

   7482 11 000015   000000 237000 12                 LDAQ    0
        11 000016   200004 471500                    LDP1    @RET_VECT,,AUTO
        11 000017   100000 757100                    STAQ    0,,PR1

      560     7483    2              IF OCB.ACCESS_REPLACE

   7483 11 000020   000253 234000 xsym               SZN     OCB+171
        11 000021   000117 605000 11                 TPL     s:7502

      561     7484    2               THEN                        /* Ignore the old controls            */
      562     7485    3               DO;

      563     7486    4                  DO I=0 TO (OCB.ACCESS.LEN/11 - 1);

   7486 11 000022   000434 450000 10                 STZ     I
        11 000023   000047 710000 11                 TRA     s:7491+3

      564     7487    4                     IF OCB.ACCESS.LIST.SPEC_TYPE(I) = 2 /* PLUS                 */

   7487 11 000024   000434 236000 10                 LDQ     I
        11 000025   000013 402007                    MPY     11,DL
        11 000026   000100 101406                    MRL     fill='000'O
        11 000027   000131 000001 xsym               ADSC9   OCB+89,Q                 cn=0,n=1
        11 000030   200006 000004                    ADSC9   CODE_IDX+1,,AUTO         cn=0,n=4
        11 000031   200006 236100                    LDQ     CODE_IDX+1,,AUTO
        11 000032   000002 116007                    CMPQ    2,DL
        11 000033   000057 600000 11                 TZE     PLUS_MINUS
        11 000034   000434 236000 10                 LDQ     I
PL6.E3A0      #007=VPD$PROCESS_CONTROLS File=VPD$UTIL.:E05TSI                    WED 07/30/97 07:25 Page:152
        11 000035   000013 402007                    MPY     11,DL
        11 000036   000100 101406                    MRL     fill='000'O
        11 000037   000131 000001 xsym               ADSC9   OCB+89,Q                 cn=0,n=1
        11 000040   200007 000004                    ADSC9   CODE_IDX+2,,AUTO         cn=0,n=4
        11 000041   200007 236100                    LDQ     CODE_IDX+2,,AUTO
        11 000042   000004 116007                    CMPQ    4,DL
        11 000043   000057 600000 11                 TZE     PLUS_MINUS

      565     7488    4                       OR OCB.ACCESS.LIST.SPEC_TYPE(I) = 4 /* MINUS              */
      566     7489    4                      THEN
      567     7490    4                        GOTO PLUS_MINUS;
      568     7491    4                     END;

   7491 11 000044   000434 235000 10                 LDA     I
        11 000045   000001 035007                    ADLA    1,DL
        11 000046   000434 755000 10                 STA     I
        11 000047   000130 235000 xsym               LDA     OCB+88
        11 000050   000043 773000                    LRL     35
        11 000051   000013 507007                    DVF     11,DL
        11 000052   000044 733000                    LRS     36
        11 000053   000434 116000 10                 CMPQ    I
        11 000054   000056 600000 11                 TZE     s:7492
        11 000055   000024 603000 11                 TRC     s:7487

      569     7492    3                  GOTO NO_OLD_ACCESS;

   7492 11 000056   000173 710000 11                 TRA     NO_OLD_ACCESS

      570     7493    3   PLUS_MINUS:
      571     7494    4                  DO I=1 TO (OCB.ACCESS.LEN/11 - 1);

   7494 11 000057   000001 235007       PLUS_MINUS   LDA     1,DL
        11 000060   000434 755000 10                 STA     I
        11 000061   000102 710000 11                 TRA     s:7498+3

      572     7495    4                     IF OCB.ACCESS.LIST.SPEC_TYPE(I) = 1

PL6.E3A0      #007=VPD$PROCESS_CONTROLS File=VPD$UTIL.:E05TSI                    WED 07/30/97 07:25 Page:153
   7495 11 000062   000434 236000 10                 LDQ     I
        11 000063   000013 402007                    MPY     11,DL
        11 000064   000100 101406                    MRL     fill='000'O
        11 000065   000131 000001 xsym               ADSC9   OCB+89,Q                 cn=0,n=1
        11 000066   200006 000004                    ADSC9   CODE_IDX+1,,AUTO         cn=0,n=4
        11 000067   200006 236100                    LDQ     CODE_IDX+1,,AUTO
        11 000070   000001 116007                    CMPQ    1,DL
        11 000071   000077 601000 11                 TNZ     s:7498

      573     7496    4                      THEN
      574     7497    4                        OCB.ACCESS.LIST.SPEC_TYPE(I) = 2; /* FORCE PLUS          */

   7497 11 000072   000434 236000 10                 LDQ     I
        11 000073   000013 402007                    MPY     11,DL
        11 000074   000006 101400                    MRL     fill='000'O
        11 000075   000004 000004 xsym               ADSC9   B_VECTNIL+4              cn=0,n=4
        11 000076   000131 000001 xsym               ADSC9   OCB+89,Q                 cn=0,n=1

      575     7498    4                     END;

   7498 11 000077   000434 235000 10                 LDA     I
        11 000100   000001 035007                    ADLA    1,DL
        11 000101   000434 755000 10                 STA     I
        11 000102   000130 236000 xsym               LDQ     OCB+88
        11 000103   000044 737000                    LLS     36
        11 000104   000043 773000                    LRL     35
        11 000105   000013 507007                    DVF     11,DL
        11 000106   000044 733000                    LRS     36
        11 000107   000434 116000 10                 CMPQ    I
        11 000110   000112 600000 11                 TZE     s:7499
        11 000111   000062 603000 11                 TRC     s:7495

      576     7499    3                  IF OCB.ACCESS.LIST.SPEC_TYPE(0)~=1 THEN

   7499 11 000112   000131 236000 xsym               LDQ     OCB+89
        11 000113   777000 376003                    ANQ     -512,DU
        11 000114   001000 116003                    CMPQ    512,DU
PL6.E3A0      #007=VPD$PROCESS_CONTROLS File=VPD$UTIL.:E05TSI                    WED 07/30/97 07:25 Page:154
        11 000115   000117 600000 11                 TZE     s:7502

      577     7500    3                     OCB.ACCESS_REPLACE = %NO#;

   7500 11 000116   000253 450000 xsym               STZ     OCB+171

      578     7501    3                  END;

      579     7502    2              CODE_IDX = CODE;             /* Will be changed by XSF$LOCCODE     */

   7502 11 000117   200003 470500                    LDP0    @CODE,,AUTO
        11 000120   000000 235100                    LDA     0,,PR0
        11 000121   200005 755100                    STA     CODE_IDX,,AUTO

      580     7503    2              CALL XSF$LOCCODE(PTR$,CODE_IDX) ALTRET(NO_OLD_ACCESS); /* -> ACC   */

   7503 11 000122   200005 631500                    EPPR1   CODE_IDX,,AUTO
        11 000123   200007 451500                    STP1    CODE_IDX+2,,AUTO
        11 000124   000002 236000 12                 LDQ     2
        11 000125   200006 756100                    STQ     CODE_IDX+1,,AUTO
        11 000126   200006 630500                    EPPR0   CODE_IDX+1,,AUTO
        11 000127   000020 631400 xsym               EPPR1   B_VECTNIL+16
        11 000130   000000 701000 xent               TSX1    XSF$LOCCODE
        11 000131   000173 702000 11                 TSX2    NO_OLD_ACCESS

      581     7504    2              TOTAL_CTLS = FPARAM$ -> FM$FIT.CODES.NDW(CODE_IDX)*4/10; /* # CNTLS */

   7504 11 000132   000000 470400 xsym               LDP0    FPARAM$
        11 000133   200005 720100                    LXL0    CODE_IDX,,AUTO
        11 000134   000000 236110                    LDQ     0,X0,PR0
        11 000135   000010 772000                    QRL     8
        11 000136   007774 376007                    ANQ     4092,DL
        11 000137   000012 506007                    DIV     10,DL
        11 000140   000436 756000 10                 STQ     TOTAL_CTLS

      582     7505    2              IF TOTAL_CTLS = 0 OR OCB.ACCESS_REPLACE

PL6.E3A0      #007=VPD$PROCESS_CONTROLS File=VPD$UTIL.:E05TSI                    WED 07/30/97 07:25 Page:155
   7505 11 000141   000000 116003                    CMPQ    0,DU
        11 000142   000173 600000 11                 TZE     NO_OLD_ACCESS
        11 000143   000253 234000 xsym               SZN     OCB+171
        11 000144   000173 604000 11                 TMI     NO_OLD_ACCESS

   7505 11 000145                       OLD_ACCESS   null
      583     7506    2               THEN                        /* No valid entries                   */
      584     7507    2                 GOTO NO_OLD_ACCESS;
      585     7508    2   OLD_ACCESS: ;                           /* Must move old ACCESS to workspace  */
      586     7509    3              DO I=0 TO (TOTAL_CTLS -1);   /* For each old ACCESS                */

   7509 11 000145   000434 450000 10                 STZ     I
        11 000146   000167 710000 11                 TRA     s:7513+3

      587     7510    3                 ACCESS_AREA.LIST.CNTLS(I) = PTR$ -> CODE09.FFLG;

   7510 11 000147   000434 236000 10                 LDQ     I
        11 000150   000012 402007                    MPY     10,DL
        11 000151   000003 470400 10                 LDP0    PTR$
        11 000152   000006 100500                    MLR     fill='000'O
        11 000153   000000 000002                    ADSC9   0,,PR0                   cn=0,n=2
        11 000154   000007 000002 10                 ADSC9   ACCESS_AREA+1,Q          cn=0,n=2

      588     7511    3                 ACCESS_AREA.LIST.ACCT(I) = PTR$ -> CODE09.ACCT;

   7511 11 000155   000003 470400 10                 LDP0    PTR$
        11 000156   040006 100500                    MLR     fill='040'O
        11 000157   000000 400010                    ADSC9   0,,PR0                   cn=2,n=8
        11 000160   000007 400010 10                 ADSC9   ACCESS_AREA+1,Q          cn=2,n=8

      589     7512    3                 PTR$ = PINCRC(PTR$,10);   /* Bump pointer to next old ACCESS    */

   7512 11 000161   000003 236000 10                 LDQ     PTR$
        11 000162   000003 036000 12                 ADLQ    3
        11 000163   000003 756000 10                 STQ     PTR$

      590     7513    3                 END;
PL6.E3A0      #007=VPD$PROCESS_CONTROLS File=VPD$UTIL.:E05TSI                    WED 07/30/97 07:25 Page:156

   7513 11 000164   000434 235000 10                 LDA     I
        11 000165   000001 035007                    ADLA    1,DL
        11 000166   000434 755000 10                 STA     I
        11 000167   000434 236000 10                 LDQ     I
        11 000170   000436 116000 10                 CMPQ    TOTAL_CTLS
        11 000171   000147 602000 11                 TNC     s:7510

      591     7514    3              DO WHILE ('0'B);             /* NEVER DO                           */

   7514 11 000172   000174 710000 11                 TRA     MERGE_ACCESS

      592     7515    3   NO_OLD_ACCESS: TOTAL_CTLS = 0;          /* Clear ACCESS area, no controls     */

   7515 11 000173   000436 450000 10    NO_OLD_ACCE* STZ     TOTAL_CTLS

      593     7516    3                 END;                      /* END NEVER DO                       */

   7515 11 000174                       MERGE_ACCESS null
      594     7517    2   MERGE_ACCESS: ;                         /* Now it's time to merge new ACCESS  */
      595     7518    3              DO I=0 TO (OCB.ACCESS.LEN/11 -1); /* For each new ACCESS           */

   7518 11 000174   000434 450000 10                 STZ     I
        11 000175   000454 710000 11                 TRA     FIN_ACCESS+3

      596     7519    4                 DO CASE (OCB.ACCESS.LIST.SPEC_TYPE(I));

   7519 11 000176   000434 236000 10                 LDQ     I
        11 000177   000013 402007                    MPY     11,DL
        11 000200   000100 101406                    MRL     fill='000'O
        11 000201   000131 000001 xsym               ADSC9   OCB+89,Q                 cn=0,n=1
        11 000202   200006 000002                    ADSC9   CODE_IDX+1,,AUTO         cn=0,n=2
        11 000203   200006 220100                    LDX0    CODE_IDX+1,,AUTO
        11 000204   000005 100003                    CMPX0   5,DU
        11 000205   000207 602010 11                 TNC     s:7519+9,X0
        11 000206   000451 710000 11                 TRA     FIN_ACCESS
        11 000207   000451 710000 11                 TRA     FIN_ACCESS
PL6.E3A0      #007=VPD$PROCESS_CONTROLS File=VPD$UTIL.:E05TSI                    WED 07/30/97 07:25 Page:157
        11 000210   000214 710000 11                 TRA     s:7521
        11 000211   000240 710000 11                 TRA     s:7525
        11 000212   000331 710000 11                 TRA     s:7538
        11 000213   000331 710000 11                 TRA     s:7538

      597     7520    4                  CASE(1);                 /* Normal control, 'use this'         */

      598     7521    4                    ACCESS_AREA.LIST.ACCT(TOTAL_CTLS) = OCB.ACCESS.LIST.ACCT(I);

   7521 11 000214   200006 756100                    STQ     CODE_IDX+1,,AUTO
        11 000215   000436 236000 10                 LDQ     TOTAL_CTLS
        11 000216   000012 402007                    MPY     10,DL
        11 000217   200006 235100                    LDA     CODE_IDX+1,,AUTO
        11 000220   040006 100405                    MLR     fill='040'O
        11 000221   000131 600010 xsym               ADSC9   OCB+89,A                 cn=3,n=8
        11 000222   000007 400010 10                 ADSC9   ACCESS_AREA+1,Q          cn=2,n=8

      599     7522    4                    ACCESS_AREA.LIST.CNTLS(TOTAL_CTLS) = OCB.ACCESS.LIST.CNTLS(I);

   7522 11 000223   000434 236000 10                 LDQ     I
        11 000224   000013 402007                    MPY     11,DL
        11 000225   200006 756100                    STQ     CODE_IDX+1,,AUTO
        11 000226   000436 236000 10                 LDQ     TOTAL_CTLS
        11 000227   000012 402007                    MPY     10,DL
        11 000230   200006 235100                    LDA     CODE_IDX+1,,AUTO
        11 000231   000006 100405                    MLR     fill='000'O
        11 000232   000131 200002 xsym               ADSC9   OCB+89,A                 cn=1,n=2
        11 000233   000007 000002 10                 ADSC9   ACCESS_AREA+1,Q          cn=0,n=2

      600     7523    4                    TOTAL_CTLS = TOTAL_CTLS +1;

   7523 11 000234   000436 235000 10                 LDA     TOTAL_CTLS
        11 000235   000001 035007                    ADLA    1,DL
        11 000236   000436 755000 10                 STA     TOTAL_CTLS
        11 000237   000451 710000 11                 TRA     FIN_ACCESS

      601     7524    4                  CASE(2);                 /* Edit by adding to previous ACCESS  */
PL6.E3A0      #007=VPD$PROCESS_CONTROLS File=VPD$UTIL.:E05TSI                    WED 07/30/97 07:25 Page:158

      602     7525    5                    DO J = 0 TO (TOTAL_CTLS -1); /* For each existing ACCESS     */

   7525 11 000240   000433 450000 10                 STZ     J
        11 000241   000300 710000 11                 TRA     s:7533+3

      603     7526    5                       IF ACCESS_AREA.LIST.ACCT(J) = OCB.ACCESS.LIST.ACCT(I)

   7526 11 000242   000433 236000 10                 LDQ     J
        11 000243   000012 402007                    MPY     10,DL
        11 000244   200006 756100                    STQ     CODE_IDX+1,,AUTO
        11 000245   000434 236000 10                 LDQ     I
        11 000246   000013 402007                    MPY     11,DL
        11 000247   200006 235100                    LDA     CODE_IDX+1,,AUTO
        11 000250   040006 106405                    CMPC    fill='040'O
        11 000251   000007 400010 10                 ADSC9   ACCESS_AREA+1,A          cn=2,n=8
        11 000252   000131 600010 xsym               ADSC9   OCB+89,Q                 cn=3,n=8
        11 000253   000275 601000 11                 TNZ     s:7533

      604     7527    5                        THEN               /* Already some controls for this     */
      605     7528    6                        DO;

      606     7529    6                           ACCESS_AREA.LIST.CNTLS(J) = ACCESS_AREA.LIST.CNTLS(J)

   7529 11 000254   000100 100406                    MLR     fill='000'O
        11 000255   000131 200002 xsym               ADSC9   OCB+89,Q                 cn=1,n=2
        11 000256   200006 000004                    ADSC9   CODE_IDX+1,,AUTO         cn=0,n=4
        11 000257   000433 236000 10                 LDQ     J
        11 000260   000012 402007                    MPY     10,DL
        11 000261   000100 100406                    MLR     fill='000'O
        11 000262   000007 000002 10                 ADSC9   ACCESS_AREA+1,Q          cn=0,n=2
        11 000263   200007 000004                    ADSC9   CODE_IDX+2,,AUTO         cn=0,n=4
        11 000264   200007 236100                    LDQ     CODE_IDX+2,,AUTO
        11 000265   200006 276100                    ORQ     CODE_IDX+1,,AUTO
        11 000266   200010 756100                    STQ     CODE_IDX+3,,AUTO
        11 000267   000433 236000 10                 LDQ     J
        11 000270   000012 402007                    MPY     10,DL
PL6.E3A0      #007=VPD$PROCESS_CONTROLS File=VPD$UTIL.:E05TSI                    WED 07/30/97 07:25 Page:159
        11 000271   000006 100500                    MLR     fill='000'O
        11 000272   200010 000004                    ADSC9   CODE_IDX+3,,AUTO         cn=0,n=4
        11 000273   000007 000002 10                 ADSC9   ACCESS_AREA+1,Q          cn=0,n=2

      607     7530    6                             | OCB.ACCESS.LIST.CNTLS(I);
      608     7531    6                           GOTO FIN_ACCESS;

   7531 11 000274   000451 710000 11                 TRA     FIN_ACCESS

      609     7532    6                           END;
      610     7533    5                       END;

   7533 11 000275   000433 235000 10                 LDA     J
        11 000276   000001 035007                    ADLA    1,DL
        11 000277   000433 755000 10                 STA     J
        11 000300   000433 236000 10                 LDQ     J
        11 000301   000436 116000 10                 CMPQ    TOTAL_CTLS
        11 000302   000242 602000 11                 TNC     s:7526

      611     7534    4                    ACCESS_AREA.LIST.ACCT(TOTAL_CTLS) = OCB.ACCESS.LIST.ACCT(I);

   7534 11 000303   000434 236000 10                 LDQ     I
        11 000304   000013 402007                    MPY     11,DL
        11 000305   200006 756100                    STQ     CODE_IDX+1,,AUTO
        11 000306   000436 236000 10                 LDQ     TOTAL_CTLS
        11 000307   000012 402007                    MPY     10,DL
        11 000310   200006 235100                    LDA     CODE_IDX+1,,AUTO
        11 000311   040006 100405                    MLR     fill='040'O
        11 000312   000131 600010 xsym               ADSC9   OCB+89,A                 cn=3,n=8
        11 000313   000007 400010 10                 ADSC9   ACCESS_AREA+1,Q          cn=2,n=8

      612     7535    4                    ACCESS_AREA.LIST.CNTLS(TOTAL_CTLS) = OCB.ACCESS.LIST.CNTLS(I);

   7535 11 000314   000434 236000 10                 LDQ     I
        11 000315   000013 402007                    MPY     11,DL
        11 000316   200006 756100                    STQ     CODE_IDX+1,,AUTO
        11 000317   000436 236000 10                 LDQ     TOTAL_CTLS
PL6.E3A0      #007=VPD$PROCESS_CONTROLS File=VPD$UTIL.:E05TSI                    WED 07/30/97 07:25 Page:160
        11 000320   000012 402007                    MPY     10,DL
        11 000321   200006 235100                    LDA     CODE_IDX+1,,AUTO
        11 000322   000006 100405                    MLR     fill='000'O
        11 000323   000131 200002 xsym               ADSC9   OCB+89,A                 cn=1,n=2
        11 000324   000007 000002 10                 ADSC9   ACCESS_AREA+1,Q          cn=0,n=2

      613     7536    4                    TOTAL_CTLS = TOTAL_CTLS +1;

   7536 11 000325   000436 235000 10                 LDA     TOTAL_CTLS
        11 000326   000001 035007                    ADLA    1,DL
        11 000327   000436 755000 10                 STA     TOTAL_CTLS
        11 000330   000451 710000 11                 TRA     FIN_ACCESS

      614     7537    4                  CASE(3,4);               /* Edit by removing previous ACC      */

      615     7538    5                    DO J = 0 TO (TOTAL_CTLS -1); /* For each existing ACCESS     */

   7538 11 000331   000433 450000 10                 STZ     J
        11 000332   000430 710000 11                 TRA     s:7556+3

      616     7539    5                       IF ACCESS_AREA.LIST.ACCT(J) = OCB.ACCESS.LIST.ACCT(I)

   7539 11 000333   000433 236000 10                 LDQ     J
        11 000334   000012 402007                    MPY     10,DL
        11 000335   200006 756100                    STQ     CODE_IDX+1,,AUTO
        11 000336   000434 236000 10                 LDQ     I
        11 000337   000013 402007                    MPY     11,DL
        11 000340   200006 235100                    LDA     CODE_IDX+1,,AUTO
        11 000341   040006 106405                    CMPC    fill='040'O
        11 000342   000007 400010 10                 ADSC9   ACCESS_AREA+1,A          cn=2,n=8
        11 000343   000131 600010 xsym               ADSC9   OCB+89,Q                 cn=3,n=8
        11 000344   000425 601000 11                 TNZ     s:7556

      617     7540    5                        THEN               /* We found the controls to delete    */
      618     7541    5                          IF OCB.ACCESS.LIST.SPEC_TYPE(I) = 3

   7541 11 000345   000100 101406                    MRL     fill='000'O
PL6.E3A0      #007=VPD$PROCESS_CONTROLS File=VPD$UTIL.:E05TSI                    WED 07/30/97 07:25 Page:161
        11 000346   000131 000001 xsym               ADSC9   OCB+89,Q                 cn=0,n=1
        11 000347   200006 000004                    ADSC9   CODE_IDX+1,,AUTO         cn=0,n=4
        11 000350   200006 236100                    LDQ     CODE_IDX+1,,AUTO
        11 000351   000003 116007                    CMPQ    3,DL
        11 000352   000401 601000 11                 TNZ     s:7550

      619     7542    5                           THEN            /* Remove only select controls        */
      620     7543    6                           DO;

      621     7544    6                              ACCESS_AREA.LIST.CNTLS(J) = ACCESS_AREA.LIST.CNTLS(J)

   7544 11 000353   000434 236000 10                 LDQ     I
        11 000354   000013 402007                    MPY     11,DL
        11 000355   000100 100406                    MLR     fill='000'O
        11 000356   000131 200002 xsym               ADSC9   OCB+89,Q                 cn=1,n=2
        11 000357   200006 000004                    ADSC9   CODE_IDX+1,,AUTO         cn=0,n=4
        11 000360   200006 236100                    LDQ     CODE_IDX+1,,AUTO
        11 000361   777777 676003                    ERQ     -1,DU
        11 000362   200007 756100                    STQ     CODE_IDX+2,,AUTO
        11 000363   000433 236000 10                 LDQ     J
        11 000364   000012 402007                    MPY     10,DL
        11 000365   000100 100406                    MLR     fill='000'O
        11 000366   000007 000002 10                 ADSC9   ACCESS_AREA+1,Q          cn=0,n=2
        11 000367   200010 000004                    ADSC9   CODE_IDX+3,,AUTO         cn=0,n=4
        11 000370   200010 236100                    LDQ     CODE_IDX+3,,AUTO
        11 000371   200007 376100                    ANQ     CODE_IDX+2,,AUTO
        11 000372   200011 756100                    STQ     CODE_IDX+4,,AUTO
        11 000373   000433 236000 10                 LDQ     J
        11 000374   000012 402007                    MPY     10,DL
        11 000375   000006 100500                    MLR     fill='000'O
        11 000376   200011 000004                    ADSC9   CODE_IDX+4,,AUTO         cn=0,n=4
        11 000377   000007 000002 10                 ADSC9   ACCESS_AREA+1,Q          cn=0,n=2

      622     7545    6                                & ~OCB.ACCESS.LIST.CNTLS(I);
      623     7546    6                              GOTO FIN_ACCESS;

   7546 11 000400   000451 710000 11                 TRA     FIN_ACCESS
PL6.E3A0      #007=VPD$PROCESS_CONTROLS File=VPD$UTIL.:E05TSI                    WED 07/30/97 07:25 Page:162

      624     7547    6                              END;
      625     7548    5                           ELSE            /* Remove entire entry                */
      626     7549    6                           DO;

      627     7550    7                              DO K = J TO (TOTAL_CTLS -2);

   7550 11 000401   000433 235000 10                 LDA     J
        11 000402   000435 755000 10                 STA     K
        11 000403   000414 710000 11                 TRA     s:7552+3

      628     7551    7                                 ACCESS_AREA.LIST(K) = ACCESS_AREA.LIST(K +1);

   7551 11 000404   000435 236000 10                 LDQ     K
        11 000405   000012 402007                    MPY     10,DL
        11 000406   000006 100406                    MLR     fill='000'O
        11 000407   000011 400012 10                 ADSC9   ACCESS_AREA+3,Q          cn=2,n=10
        11 000410   000007 000012 10                 ADSC9   ACCESS_AREA+1,Q          cn=0,n=10

      629     7552    7                                 END;

   7552 11 000411   000435 235000 10                 LDA     K
        11 000412   000001 035007                    ADLA    1,DL
        11 000413   000435 755000 10                 STA     K
        11 000414   000436 236000 10                 LDQ     TOTAL_CTLS
        11 000415   000002 136007                    SBLQ    2,DL
        11 000416   000421 604000 11                 TMI     s:7553
        11 000417   000435 116000 10                 CMPQ    K
        11 000420   000404 603000 11                 TRC     s:7551

      630     7553    6                              TOTAL_CTLS = TOTAL_CTLS -1;

   7553 11 000421   000436 235000 10                 LDA     TOTAL_CTLS
        11 000422   000001 135007                    SBLA    1,DL
        11 000423   000436 755000 10                 STA     TOTAL_CTLS

      631     7554    6                              GOTO FIN_ACCESS;
PL6.E3A0      #007=VPD$PROCESS_CONTROLS File=VPD$UTIL.:E05TSI                    WED 07/30/97 07:25 Page:163

   7554 11 000424   000451 710000 11                 TRA     FIN_ACCESS

      632     7555    6                              END;
      633     7556    5                       END;

   7556 11 000425   000433 235000 10                 LDA     J
        11 000426   000001 035007                    ADLA    1,DL
        11 000427   000433 755000 10                 STA     J
        11 000430   000433 236000 10                 LDQ     J
        11 000431   000436 116000 10                 CMPQ    TOTAL_CTLS
        11 000432   000333 602000 11                 TNC     s:7539

      634     7557    4                    CALL VPL$ERR_PROC(1,30,'04'O,,,,M$EI#); /* WARNING ONLY      */

   7557 11 000433   000006 236000 12                 LDQ     6
        11 000434   200014 756100                    STQ     CODE_IDX+7,,AUTO
        11 000435   000001 236000 xsym               LDQ     B_VECTNIL+1
        11 000436   000001 235000 xsym               LDA     B_VECTNIL+1
        11 000437   200012 757100                    STAQ    CODE_IDX+5,,AUTO
        11 000440   000001 236000 xsym               LDQ     B_VECTNIL+1
        11 000441   000007 235000 12                 LDA     7
        11 000442   200010 757100                    STAQ    CODE_IDX+3,,AUTO
        11 000443   000010 237000 12                 LDAQ    8
        11 000444   200006 757100                    STAQ    CODE_IDX+1,,AUTO
        11 000445   200006 630500                    EPPR0   CODE_IDX+1,,AUTO
        11 000446   000025 631400 xsym               EPPR1   B_VECTNIL+21
        11 000447   000000 701000 xent               TSX1    VPL$ERR_PROC
        11 000450   000000 011000                    NOP     0

      635     7558        /*E* ERROR:   VPD-00030
      636     7559             MESSAGE: No such control to remove from %UF
      637     7560        */
      638     7561    4                  END;                     /* END DO CASE                        */

   7552 11 000451                       FIN_ACCESS   null
      639     7562    3   FIN_ACCESS:   ;                         /* Finished with THIS NEW ACCESS      */
PL6.E3A0      #007=VPD$PROCESS_CONTROLS File=VPD$UTIL.:E05TSI                    WED 07/30/97 07:25 Page:164
      640     7563    3                 END;

   7563 11 000451   000434 235000 10                 LDA     I
        11 000452   000001 035007                    ADLA    1,DL
        11 000453   000434 755000 10                 STA     I
        11 000454   000130 235000 xsym               LDA     OCB+88
        11 000455   000043 773000                    LRL     35
        11 000456   000013 507007                    DVF     11,DL
        11 000457   000044 733000                    LRS     36
        11 000460   000434 116000 10                 CMPQ    I
        11 000461   000463 600000 11                 TZE     s:7564
        11 000462   000176 603000 11                 TRC     s:7519

      641     7564    2              ACCESS_AREA.LEN = TOTAL_CTLS*10; /* LENGTH IN BYTES                */

   7564 11 000463   000436 236000 10                 LDQ     TOTAL_CTLS
        11 000464   000012 402007                    MPY     10,DL
        11 000465   000006 756000 10                 STQ     ACCESS_AREA

      642     7565    2              ACCESS_AREA.LEN = (ACCESS_AREA.LEN +3)/4; /* LENGTH IN WORDS       */

   7565 11 000466   000003 036007                    ADLQ    3,DL
        11 000467   000002 772000                    QRL     2
        11 000470   000006 756000 10                 STQ     ACCESS_AREA
        11 000471   001267 710000 11                 TRA     s:7675

      643     7566        %EJECT;
PL6.E3A0      #007=VPD$PROCESS_CONTROLS File=VPD$UTIL.:E05TSI                    WED 07/30/97 07:25 Page:165
      644     7567    2            CASE (2);                      /* ACSVEH                             */

      645     7568    2              RET_VECT = VECTOR(ACSVEH_AREA);

   7568 11 000472   000012 237000 12                 LDAQ    10
        11 000473   200004 471500                    LDP1    @RET_VECT,,AUTO
        11 000474   100000 757100                    STAQ    0,,PR1

      646     7569    2              ACS$ = ADDR(ACSVEH_AREA.LIST);

   7569 11 000475   000014 236000 12                 LDQ     12
        11 000476   000005 756000 10                 STQ     ACS$

      647     7570    2              FILL$ = ACS$;

   7570 11 000477   000001 756000 10                 STQ     FILL$

      648     7571    2              IF OCB.ACSVEH_REPLACE

   7571 11 000500   000251 234000 xsym               SZN     OCB+169
        11 000501   000603 605000 11                 TPL     s:7596

      649     7572    2               THEN                        /* Ignore the old controls            */
      650     7573    3               DO;

      651     7574    3                  I=0;

   7574 11 000502   000434 450000 10                 STZ     I

      652     7575    4                  DO WHILE(I+4<OCB.ACSVEH.LEN);

   7575 11 000503   000534 710000 11                 TRA     s:7582

      653     7576    4                     P$=PINCRC(ADDR(OCB.ACSVEH.LIST),I);

   7576 11 000504   000434 236000 10                 LDQ     I
        11 000505   000020 736000                    QLS     16
PL6.E3A0      #007=VPD$PROCESS_CONTROLS File=VPD$UTIL.:E05TSI                    WED 07/30/97 07:25 Page:166
        11 000506   000015 036000 12                 ADLQ    13
        11 000507   000000 756000 10                 STQ     P$

      654     7577    4                     IF P$->ACS$NEW.SPEC_TYPE = 2

   7577 11 000510   000000 470400 10                 LDP0    P$
        11 000511   000100 101500                    MRL     fill='000'O
        11 000512   000000 000001                    ADSC9   0,,PR0                   cn=0,n=1
        11 000513   200006 000004                    ADSC9   CODE_IDX+1,,AUTO         cn=0,n=4
        11 000514   200006 236100                    LDQ     CODE_IDX+1,,AUTO
        11 000515   000002 116007                    CMPQ    2,DL
        11 000516   000541 600000 11                 TZE     ACS_PLUS_MINUS
        11 000517   000100 101500                    MRL     fill='000'O
        11 000520   000000 000001                    ADSC9   0,,PR0                   cn=0,n=1
        11 000521   200007 000004                    ADSC9   CODE_IDX+2,,AUTO         cn=0,n=4
        11 000522   200007 236100                    LDQ     CODE_IDX+2,,AUTO
        11 000523   000004 116007                    CMPQ    4,DL
        11 000524   000541 600000 11                 TZE     ACS_PLUS_MINUS

      655     7578    4                       OR P$->ACS$NEW.SPEC_TYPE=4
      656     7579    4                      THEN
      657     7580    4                        GOTO ACS_PLUS_MINUS;
      658     7581    4                     I=I+P$->ACS$NEW.TEXTC.LEN+4;

   7581 11 000525   000100 101500                    MRL     fill='000'O
        11 000526   000000 600001                    ADSC9   0,,PR0                   cn=3,n=1
        11 000527   200006 000004                    ADSC9   CODE_IDX+1,,AUTO         cn=0,n=4
        11 000530   200006 236100                    LDQ     CODE_IDX+1,,AUTO
        11 000531   000434 036000 10                 ADLQ    I
        11 000532   000004 036007                    ADLQ    4,DL
        11 000533   000434 756000 10                 STQ     I

      659     7582    4                     END;

   7582 11 000534   000434 236000 10                 LDQ     I
        11 000535   000004 036007                    ADLQ    4,DL
        11 000536   000045 116000 xsym               CMPQ    OCB+37
PL6.E3A0      #007=VPD$PROCESS_CONTROLS File=VPD$UTIL.:E05TSI                    WED 07/30/97 07:25 Page:167
        11 000537   000504 602000 11                 TNC     s:7576

      660     7583    3                  GOTO NO_OLD_ACSVEH;

   7583 11 000540   000710 710000 11                 TRA     NO_OLD_ACSVEH

      661     7584    3   ACS_PLUS_MINUS:
      662     7585    3                  I=0;

   7585 11 000541   000434 450000 10    ACS_PLUS_MI* STZ     I

      663     7586    4                  DO WHILE(I+4<OCB.ACSVEH.LEN);

   7586 11 000542   000572 710000 11                 TRA     s:7592

      664     7587    4                     P$=PINCRC(ADDR(OCB.ACSVEH.LIST),I);

   7587 11 000543   000434 236000 10                 LDQ     I
        11 000544   000020 736000                    QLS     16
        11 000545   000015 036000 12                 ADLQ    13
        11 000546   000000 756000 10                 STQ     P$

      665     7588    4                     IF P$->ACS$NEW.SPEC_TYPE = 1 AND I~=0

   7588 11 000547   000000 470400 10                 LDP0    P$
        11 000550   000100 101500                    MRL     fill='000'O
        11 000551   000000 000001                    ADSC9   0,,PR0                   cn=0,n=1
        11 000552   200006 000004                    ADSC9   CODE_IDX+1,,AUTO         cn=0,n=4
        11 000553   200006 236100                    LDQ     CODE_IDX+1,,AUTO
        11 000554   000001 116007                    CMPQ    1,DL
        11 000555   000563 601000 11                 TNZ     s:7591
        11 000556   000434 235000 10                 LDA     I
        11 000557   000563 600000 11                 TZE     s:7591

      666     7589    4                      THEN
      667     7590    4                        P$->ACS$NEW.SPEC_TYPE = 2;

PL6.E3A0      #007=VPD$PROCESS_CONTROLS File=VPD$UTIL.:E05TSI                    WED 07/30/97 07:25 Page:168
   7590 11 000560   000100 101400                    MRL     fill='000'O
        11 000561   000004 000004 xsym               ADSC9   B_VECTNIL+4              cn=0,n=4
        11 000562   000000 000001                    ADSC9   0,,PR0                   cn=0,n=1

      668     7591    4                     I=I+P$->ACS$NEW.TEXTC.LEN+4;

   7591 11 000563   000100 101500                    MRL     fill='000'O
        11 000564   000000 600001                    ADSC9   0,,PR0                   cn=3,n=1
        11 000565   200006 000004                    ADSC9   CODE_IDX+1,,AUTO         cn=0,n=4
        11 000566   200006 236100                    LDQ     CODE_IDX+1,,AUTO
        11 000567   000434 036000 10                 ADLQ    I
        11 000570   000004 036007                    ADLQ    4,DL
        11 000571   000434 756000 10                 STQ     I

      669     7592    4                     END;

   7592 11 000572   000434 236000 10                 LDQ     I
        11 000573   000004 036007                    ADLQ    4,DL
        11 000574   000045 116000 xsym               CMPQ    OCB+37
        11 000575   000543 602000 11                 TNC     s:7587

      670     7593    3                  IF ADDR(OCB.ACSVEH.LIST)->ACS$NEW.SPEC_TYPE~=1 THEN

   7593 11 000576   000046 236000 xsym               LDQ     OCB+38
        11 000577   777000 376003                    ANQ     -512,DU
        11 000600   001000 116003                    CMPQ    512,DU
        11 000601   000603 600000 11                 TZE     s:7596

      671     7594    3                     OCB.ACSVEH_REPLACE = %NO#;

   7594 11 000602   000251 450000 xsym               STZ     OCB+169

      672     7595    3                  END;

      673     7596    2              IF OCB.ACSVEH_REPLACE THEN GOTO NO_OLD_ACSVEH;

   7596 11 000603   000251 234000 xsym               SZN     OCB+169
PL6.E3A0      #007=VPD$PROCESS_CONTROLS File=VPD$UTIL.:E05TSI                    WED 07/30/97 07:25 Page:169
        11 000604   000710 604000 11                 TMI     NO_OLD_ACSVEH

      674     7597    2              CODE_IDX = CODE;             /* Will be changed by XSF$LOCCODE     */

   7597 11 000605   200003 470500                    LDP0    @CODE,,AUTO
        11 000606   000000 235100                    LDA     0,,PR0
        11 000607   200005 755100                    STA     CODE_IDX,,AUTO

      675     7598    2              CALL XSF$LOCCODE(PTR$,CODE_IDX) ALTRET(NO_OLD_ACSVEH); /* -> ACS   */

   7598 11 000610   200005 631500                    EPPR1   CODE_IDX,,AUTO
        11 000611   200007 451500                    STP1    CODE_IDX+2,,AUTO
        11 000612   000002 236000 12                 LDQ     2
        11 000613   200006 756100                    STQ     CODE_IDX+1,,AUTO
        11 000614   200006 630500                    EPPR0   CODE_IDX+1,,AUTO
        11 000615   000020 631400 xsym               EPPR1   B_VECTNIL+16
        11 000616   000000 701000 xent               TSX1    XSF$LOCCODE
        11 000617   000710 702000 11                 TSX2    NO_OLD_ACSVEH

      676     7599    2              TOTAL_CTLS = FPARAM$ -> FM$FIT.CODES.NDW(CODE_IDX)*4; /* Len bytes */

   7599 11 000620   000000 470400 xsym               LDP0    FPARAM$
        11 000621   200005 720100                    LXL0    CODE_IDX,,AUTO
        11 000622   000000 236110                    LDQ     0,X0,PR0
        11 000623   000010 772000                    QRL     8
        11 000624   007774 376007                    ANQ     4092,DL
        11 000625   000436 756000 10                 STQ     TOTAL_CTLS

   7599 11 000626                       OLD_ACSVEH   null
      677     7600    2   OLD_ACSVEH: ;                           /* Must move old ACSVEH to workspace  */
      678     7601    2              I = 0;                       /* Byte index                         */

   7601 11 000626   000434 450000 10                 STZ     I

      679     7602    3              DO WHILE (I +3 < TOTAL_CTLS); /* For each old ACSVEH               */

   7602 11 000627   000701 710000 11                 TRA     s:7609
PL6.E3A0      #007=VPD$PROCESS_CONTROLS File=VPD$UTIL.:E05TSI                    WED 07/30/97 07:25 Page:170

      680     7603    3                 FILL$ -> ACS$VEH.CNTLS = PTR$ -> ACS$VEH.CNTLS;

   7603 11 000630   000003 470400 10                 LDP0    PTR$
        11 000631   000001 471400 10                 LDP1    FILL$
        11 000632   000100 100500                    MLR     fill='000'O
        11 000633   000000 000002                    ADSC9   0,,PR0                   cn=0,n=2
        11 000634   100000 000002                    ADSC9   0,,PR1                   cn=0,n=2

      681     7604    3                 FILL$ -> ACS$VEH.TEXTC.LEN = PTR$ -> ACS$VEH.TEXTC.LEN;

   7604 11 000635   000003 470400 10                 LDP0    PTR$
        11 000636   000100 100500                    MLR     fill='000'O
        11 000637   000000 400001                    ADSC9   0,,PR0                   cn=2,n=1
        11 000640   100000 400001                    ADSC9   0,,PR1                   cn=2,n=1

      682     7605    3                 FILL$ -> ACS$VEH.TEXTC.STRING = PTR$ -> ACS$VEH.TEXTC.STRING;

   7605 11 000641   000100 101500                    MRL     fill='000'O
        11 000642   100000 400001                    ADSC9   0,,PR1                   cn=2,n=1
        11 000643   200006 000002                    ADSC9   CODE_IDX+1,,AUTO         cn=0,n=2
        11 000644   200006 220100                    LDX0    CODE_IDX+1,,AUTO
        11 000645   000003 470400 10                 LDP0    PTR$
        11 000646   000100 101500                    MRL     fill='000'O
        11 000647   000000 400001                    ADSC9   0,,PR0                   cn=2,n=1
        11 000650   200007 000002                    ADSC9   CODE_IDX+2,,AUTO         cn=0,n=2
        11 000651   200007 221100                    LDX1    CODE_IDX+2,,AUTO
        11 000652   040140 100540                    MLR     fill='040'O
        11 000653   000000 600011                    ADSC9   0,,PR0                   cn=3,n=*X1
        11 000654   100000 600010                    ADSC9   0,,PR1                   cn=3,n=*X0

      683     7606    3                 I = I + PTR$ -> ACS$VEH.TEXTC.LEN +3;

   7606 11 000655   000003 470400 10                 LDP0    PTR$
        11 000656   000100 101500                    MRL     fill='000'O
        11 000657   000000 400001                    ADSC9   0,,PR0                   cn=2,n=1
        11 000660   200006 000004                    ADSC9   CODE_IDX+1,,AUTO         cn=0,n=4
PL6.E3A0      #007=VPD$PROCESS_CONTROLS File=VPD$UTIL.:E05TSI                    WED 07/30/97 07:25 Page:171
        11 000661   200006 236100                    LDQ     CODE_IDX+1,,AUTO
        11 000662   000434 036000 10                 ADLQ    I
        11 000663   000003 036007                    ADLQ    3,DL
        11 000664   000434 756000 10                 STQ     I

      684     7607    3                 PTR$ = PINCRC(PTR$,PTR$ -> ACS$VEH.TEXTC.LEN +3); /* ->  old ACS */

   7607 11 000665   000100 101500                    MRL     fill='000'O
        11 000666   000000 400001                    ADSC9   0,,PR0                   cn=2,n=1
        11 000667   200006 000004                    ADSC9   CODE_IDX+1,,AUTO         cn=0,n=4
        11 000670   200006 236100                    LDQ     CODE_IDX+1,,AUTO
        11 000671   000020 736000                    QLS     16
        11 000672   600000 036007                    ADLQ    -65536,DL
        11 000673   000003 036000 10                 ADLQ    PTR$
        11 000674   000003 756000 10                 STQ     PTR$

      685     7608    3                 FILL$ = PINCRC(ACS$,I);

   7608 11 000675   000434 236000 10                 LDQ     I
        11 000676   000020 736000                    QLS     16
        11 000677   000005 036000 10                 ADLQ    ACS$
        11 000700   000001 756000 10                 STQ     FILL$

      686     7609    3                 END;

   7609 11 000701   000434 236000 10                 LDQ     I
        11 000702   000003 036007                    ADLQ    3,DL
        11 000703   000436 116000 10                 CMPQ    TOTAL_CTLS
        11 000704   000630 602000 11                 TNC     s:7603

      687     7610    2              TOTAL_CTLS = I;

   7610 11 000705   000434 235000 10                 LDA     I
        11 000706   000436 755000 10                 STA     TOTAL_CTLS

      688     7611    3              DO WHILE ('0'B);             /* NEVER DO                           */

PL6.E3A0      #007=VPD$PROCESS_CONTROLS File=VPD$UTIL.:E05TSI                    WED 07/30/97 07:25 Page:172
   7611 11 000707   000711 710000 11                 TRA     MERGE_ACSVEH

      689     7612    3   NO_OLD_ACSVEH: TOTAL_CTLS = 0;          /* Clear ACSVEH area                  */

   7612 11 000710   000436 450000 10    NO_OLD_ACSV* STZ     TOTAL_CTLS

      690     7613    3                 END;                      /* END NEVER DO                       */

   7612 11 000711                       MERGE_ACSVEH null
      691     7614    2   MERGE_ACSVEH: ;                         /* Now it's time to merge new ACSVEH  */
      692     7615    2              I = 0;

   7615 11 000711   000434 450000 10                 STZ     I

      693     7616    3              DO WHILE (I +4 < OCB.ACSVEH.LEN); /* For each new ACSVEH           */

   7616 11 000712   001257 710000 11                 TRA     s:7672

      694     7617    3                 IF TOTAL_CTLS > LENGTHC(ACSVEH_AREA.LIST)

   7617 11 000713   000436 235000 10                 LDA     TOTAL_CTLS
        11 000714   001131 115007                    CMPA    601,DL
        11 000715   001311 603000 11                 TRC     TOO_MANY

      695     7618    3                  THEN
      696     7619    3                    GOTO TOO_MANY;
      697     7620    3                 EXAM$ = PINCRC(ADDR(OCB.ACSVEH.LIST),I);

   7620 11 000716   000434 236000 10                 LDQ     I
        11 000717   000020 736000                    QLS     16
        11 000720   000015 036000 12                 ADLQ    13
        11 000721   000002 756000 10                 STQ     EXAM$

      698     7621    4                 DO CASE (EXAM$ -> ACS$NEW.SPEC_TYPE);

   7621 11 000722   000002 470400 10                 LDP0    EXAM$
        11 000723   000100 101500                    MRL     fill='000'O
PL6.E3A0      #007=VPD$PROCESS_CONTROLS File=VPD$UTIL.:E05TSI                    WED 07/30/97 07:25 Page:173
        11 000724   000000 000001                    ADSC9   0,,PR0                   cn=0,n=1
        11 000725   200006 000002                    ADSC9   CODE_IDX+1,,AUTO         cn=0,n=2
        11 000726   200006 220100                    LDX0    CODE_IDX+1,,AUTO
        11 000727   000005 100003                    CMPX0   5,DU
        11 000730   000732 602010 11                 TNC     s:7621+8,X0
        11 000731   001247 710000 11                 TRA     FIN_ACSVEH
        11 000732   001247 710000 11                 TRA     FIN_ACSVEH
        11 000733   000737 710000 11                 TRA     STUFF_ACS
        11 000734   000775 710000 11                 TRA     s:7629
        11 000735   001047 710000 11                 TRA     s:7642
        11 000736   001047 710000 11                 TRA     s:7642

      699     7622    4                  CASE(1);                 /* Normal control, 'use this'         */

      700     7623    4   STUFF_ACS:       FILL$ -> ACS$VEH.CNTLS = EXAM$ -> ACS$NEW.CNTLS;

   7623 11 000737   000002 470400 10    STUFF_ACS    LDP0    EXAM$
        11 000740   000001 471400 10                 LDP1    FILL$
        11 000741   000100 100500                    MLR     fill='000'O
        11 000742   000000 200002                    ADSC9   0,,PR0                   cn=1,n=2
        11 000743   100000 000002                    ADSC9   0,,PR1                   cn=0,n=2

      701     7624    4                    FILL$ -> ACS$VEH.TEXTC.LEN = EXAM$ -> ACS$NEW.TEXTC.LEN;

   7624 11 000744   000100 100500                    MLR     fill='000'O
        11 000745   000000 600001                    ADSC9   0,,PR0                   cn=3,n=1
        11 000746   100000 400001                    ADSC9   0,,PR1                   cn=2,n=1

      702     7625    4                    FILL$ -> ACS$VEH.TEXTC.STRING = EXAM$ -> ACS$NEW.TEXTC.STRING;

   7625 11 000747   000100 101500                    MRL     fill='000'O
        11 000750   100000 400001                    ADSC9   0,,PR1                   cn=2,n=1
        11 000751   200006 000002                    ADSC9   CODE_IDX+1,,AUTO         cn=0,n=2
        11 000752   200006 220100                    LDX0    CODE_IDX+1,,AUTO
        11 000753   000100 101500                    MRL     fill='000'O
        11 000754   000000 600001                    ADSC9   0,,PR0                   cn=3,n=1
        11 000755   200007 000002                    ADSC9   CODE_IDX+2,,AUTO         cn=0,n=2
PL6.E3A0      #007=VPD$PROCESS_CONTROLS File=VPD$UTIL.:E05TSI                    WED 07/30/97 07:25 Page:174
        11 000756   200007 221100                    LDX1    CODE_IDX+2,,AUTO
        11 000757   040140 100540                    MLR     fill='040'O
        11 000760   000001 000011                    ADSC9   1,,PR0                   cn=0,n=*X1
        11 000761   100000 600010                    ADSC9   0,,PR1                   cn=3,n=*X0

      703     7626    4                    TOTAL_CTLS = TOTAL_CTLS + EXAM$ -> ACS$NEW.TEXTC.LEN +3;

   7626 11 000762   000100 101500                    MRL     fill='000'O
        11 000763   000000 600001                    ADSC9   0,,PR0                   cn=3,n=1
        11 000764   200006 000004                    ADSC9   CODE_IDX+1,,AUTO         cn=0,n=4
        11 000765   200006 236100                    LDQ     CODE_IDX+1,,AUTO
        11 000766   000436 036000 10                 ADLQ    TOTAL_CTLS
        11 000767   000003 036007                    ADLQ    3,DL
        11 000770   000436 756000 10                 STQ     TOTAL_CTLS

      704     7627    4                    FILL$ = PINCRC(ACS$,TOTAL_CTLS);

   7627 11 000771   000020 736000                    QLS     16
        11 000772   000005 036000 10                 ADLQ    ACS$
        11 000773   000001 756000 10                 STQ     FILL$
        11 000774   001247 710000 11                 TRA     FIN_ACSVEH

      705     7628    4                  CASE(2);                 /* Edit by adding to previous ACSVEH  */

      706     7629    4                    PTR$ = ACS$;

   7629 11 000775   000005 236000 10                 LDQ     ACS$
        11 000776   000003 756000 10                 STQ     PTR$

      707     7630    5                    DO WHILE (PTR$ < FILL$); /* For each existing ACSVEH         */

   7630 11 000777   000001 116000 10                 CMPQ    FILL$
        11 001000   001046 603000 11                 TRC     s:7640

      708     7631    5                       IF EXAM$ -> ACS$NEW.TEXTC.STRING = PTR$ -> ACS$VEH.TEXTC.STRING

   7631 11 001001   000002 470400 10                 LDP0    EXAM$
PL6.E3A0      #007=VPD$PROCESS_CONTROLS File=VPD$UTIL.:E05TSI                    WED 07/30/97 07:25 Page:175
        11 001002   000100 101500                    MRL     fill='000'O
        11 001003   000000 600001                    ADSC9   0,,PR0                   cn=3,n=1
        11 001004   200006 000002                    ADSC9   CODE_IDX+1,,AUTO         cn=0,n=2
        11 001005   200006 220100                    LDX0    CODE_IDX+1,,AUTO
        11 001006   000003 471400 10                 LDP1    PTR$
        11 001007   000100 101500                    MRL     fill='000'O
        11 001010   100000 400001                    ADSC9   0,,PR1                   cn=2,n=1
        11 001011   200007 000002                    ADSC9   CODE_IDX+2,,AUTO         cn=0,n=2
        11 001012   200007 221100                    LDX1    CODE_IDX+2,,AUTO
        11 001013   040140 106540                    CMPC    fill='040'O
        11 001014   000001 000010                    ADSC9   1,,PR0                   cn=0,n=*X0
        11 001015   100000 600011                    ADSC9   0,,PR1                   cn=3,n=*X1
        11 001016   001034 601000 11                 TNZ     s:7638

      709     7632    5                        THEN               /* Already some controls for this     */
      710     7633    6                        DO;

      711     7634    6                           PTR$ -> ACS$VEH.CNTLS = PTR$ -> ACS$VEH.CNTLS

   7634 11 001017   000100 100500                    MLR     fill='000'O
        11 001020   000000 200002                    ADSC9   0,,PR0                   cn=1,n=2
        11 001021   200006 000004                    ADSC9   CODE_IDX+1,,AUTO         cn=0,n=4
        11 001022   000100 100500                    MLR     fill='000'O
        11 001023   100000 000002                    ADSC9   0,,PR1                   cn=0,n=2
        11 001024   200007 000004                    ADSC9   CODE_IDX+2,,AUTO         cn=0,n=4
        11 001025   200007 236100                    LDQ     CODE_IDX+2,,AUTO
        11 001026   200006 276100                    ORQ     CODE_IDX+1,,AUTO
        11 001027   200010 756100                    STQ     CODE_IDX+3,,AUTO
        11 001030   000100 100500                    MLR     fill='000'O
        11 001031   200010 000004                    ADSC9   CODE_IDX+3,,AUTO         cn=0,n=4
        11 001032   100000 000002                    ADSC9   0,,PR1                   cn=0,n=2

      712     7635    6                             | EXAM$ -> ACS$NEW.CNTLS;
      713     7636    6                           GOTO FIN_ACSVEH;

   7636 11 001033   001247 710000 11                 TRA     FIN_ACSVEH

PL6.E3A0      #007=VPD$PROCESS_CONTROLS File=VPD$UTIL.:E05TSI                    WED 07/30/97 07:25 Page:176
      714     7637    6                           END;
      715     7638    5                       PTR$ = PINCRC(PTR$,PTR$ -> ACS$VEH.TEXTC.LEN +3);
              7638                                /* Next OLD ACS */

   7638 11 001034   000100 101500                    MRL     fill='000'O
        11 001035   100000 400001                    ADSC9   0,,PR1                   cn=2,n=1
        11 001036   200006 000004                    ADSC9   CODE_IDX+1,,AUTO         cn=0,n=4
        11 001037   200006 236100                    LDQ     CODE_IDX+1,,AUTO
        11 001040   000020 736000                    QLS     16
        11 001041   600000 036007                    ADLQ    -65536,DL
        11 001042   000003 036000 10                 ADLQ    PTR$
        11 001043   000003 756000 10                 STQ     PTR$

      716     7639    5                       END;

   7639 11 001044   000001 116000 10                 CMPQ    FILL$
        11 001045   001001 602000 11                 TNC     s:7631

      717     7640    4                    GOTO STUFF_ACS;

   7640 11 001046   000737 710000 11                 TRA     STUFF_ACS

      718     7641    4                  CASE(3,4);               /* Edit by removing an ACSVEHICLS     */

      719     7642    4                    PTR$ = ACS$;

   7642 11 001047   000005 236000 10                 LDQ     ACS$
        11 001050   000003 756000 10                 STQ     PTR$

      720     7643    5                    DO WHILE (PTR$ < FILL$); /* For each existing ACSVEH         */

   7643 11 001051   000001 116000 10                 CMPQ    FILL$
        11 001052   001231 603000 11                 TRC     s:7669

      721     7644    5                       IF EXAM$ -> ACS$NEW.TEXTC.STRING = PTR$ -> ACS$VEH.TEXTC.STRING

   7644 11 001053   000002 470400 10                 LDP0    EXAM$
PL6.E3A0      #007=VPD$PROCESS_CONTROLS File=VPD$UTIL.:E05TSI                    WED 07/30/97 07:25 Page:177
        11 001054   000100 101500                    MRL     fill='000'O
        11 001055   000000 600001                    ADSC9   0,,PR0                   cn=3,n=1
        11 001056   200006 000002                    ADSC9   CODE_IDX+1,,AUTO         cn=0,n=2
        11 001057   200006 220100                    LDX0    CODE_IDX+1,,AUTO
        11 001060   000003 471400 10                 LDP1    PTR$
        11 001061   000100 101500                    MRL     fill='000'O
        11 001062   100000 400001                    ADSC9   0,,PR1                   cn=2,n=1
        11 001063   200007 000002                    ADSC9   CODE_IDX+2,,AUTO         cn=0,n=2
        11 001064   200007 221100                    LDX1    CODE_IDX+2,,AUTO
        11 001065   040140 106540                    CMPC    fill='040'O
        11 001066   000001 000010                    ADSC9   1,,PR0                   cn=0,n=*X0
        11 001067   100000 600011                    ADSC9   0,,PR1                   cn=3,n=*X1
        11 001070   001217 601000 11                 TNZ     s:7667

      722     7645    5                        THEN               /* We found the controls to delete    */
      723     7646    5                          IF EXAM$ -> ACS$NEW.SPEC_TYPE = 3

   7646 11 001071   000100 101500                    MRL     fill='000'O
        11 001072   000000 000001                    ADSC9   0,,PR0                   cn=0,n=1
        11 001073   200006 000004                    ADSC9   CODE_IDX+1,,AUTO         cn=0,n=4
        11 001074   200006 236100                    LDQ     CODE_IDX+1,,AUTO
        11 001075   000003 116007                    CMPQ    3,DL
        11 001076   001117 601000 11                 TNZ     s:7655

      724     7647    5                           THEN            /* Only delete certain bits           */
      725     7648    6                           DO;

      726     7649    6                              PTR$ -> ACS$VEH.CNTLS = PTR$ -> ACS$VEH.CNTLS

   7649 11 001077   000100 100500                    MLR     fill='000'O
        11 001100   000000 200002                    ADSC9   0,,PR0                   cn=1,n=2
        11 001101   200006 000004                    ADSC9   CODE_IDX+1,,AUTO         cn=0,n=4
        11 001102   200006 236100                    LDQ     CODE_IDX+1,,AUTO
        11 001103   777777 676003                    ERQ     -1,DU
        11 001104   200007 756100                    STQ     CODE_IDX+2,,AUTO
        11 001105   000100 100500                    MLR     fill='000'O
        11 001106   100000 000002                    ADSC9   0,,PR1                   cn=0,n=2
PL6.E3A0      #007=VPD$PROCESS_CONTROLS File=VPD$UTIL.:E05TSI                    WED 07/30/97 07:25 Page:178
        11 001107   200010 000004                    ADSC9   CODE_IDX+3,,AUTO         cn=0,n=4
        11 001110   200010 236100                    LDQ     CODE_IDX+3,,AUTO
        11 001111   200007 376100                    ANQ     CODE_IDX+2,,AUTO
        11 001112   200011 756100                    STQ     CODE_IDX+4,,AUTO
        11 001113   000100 100500                    MLR     fill='000'O
        11 001114   200011 000004                    ADSC9   CODE_IDX+4,,AUTO         cn=0,n=4
        11 001115   100000 000002                    ADSC9   0,,PR1                   cn=0,n=2

      727     7650    6                                & ~EXAM$ -> ACS$NEW.CNTLS;
      728     7651    6                              GOTO FIN_ACSVEH;

   7651 11 001116   001247 710000 11                 TRA     FIN_ACSVEH

      729     7652    6                              END;
      730     7653    5                           ELSE            /* Delete entire entry                */
      731     7654    6                           DO;

      732     7655    6                              PTR1$ = PINCRC(PTR$,PTR$ -> ACS$VEH.TEXTC.LEN +3);

   7655 11 001117   000100 101500                    MRL     fill='000'O
        11 001120   100000 400001                    ADSC9   0,,PR1                   cn=2,n=1
        11 001121   200006 000004                    ADSC9   CODE_IDX+1,,AUTO         cn=0,n=4
        11 001122   200006 236100                    LDQ     CODE_IDX+1,,AUTO
        11 001123   000020 736000                    QLS     16
        11 001124   600000 036007                    ADLQ    -65536,DL
        11 001125   000003 036000 10                 ADLQ    PTR$
        11 001126   000004 756000 10                 STQ     PTR1$

      733     7656    6                              TOTAL_CTLS = TOTAL_CTLS - PTR$ -> ACS$VEH.TEXTC.LEN -3;

   7656 11 001127   000100 101500                    MRL     fill='000'O
        11 001130   100000 400001                    ADSC9   0,,PR1                   cn=2,n=1
        11 001131   200006 000004                    ADSC9   CODE_IDX+1,,AUTO         cn=0,n=4
        11 001132   000436 236000 10                 LDQ     TOTAL_CTLS
        11 001133   200006 136100                    SBLQ    CODE_IDX+1,,AUTO
        11 001134   000003 136007                    SBLQ    3,DL
        11 001135   000436 756000 10                 STQ     TOTAL_CTLS
PL6.E3A0      #007=VPD$PROCESS_CONTROLS File=VPD$UTIL.:E05TSI                    WED 07/30/97 07:25 Page:179

      734     7657    7                              DO WHILE (PTR1$ < FILL$);

   7657 11 001136   000004 236000 10                 LDQ     PTR1$
        11 001137   000001 116000 10                 CMPQ    FILL$
        11 001140   001212 603000 11                 TRC     s:7664

      735     7658    7                                 PTR$ -> ACS$VEH.CNTLS = PTR1$ -> ACS$VEH.CNTLS;

   7658 11 001141   000004 470400 10                 LDP0    PTR1$
        11 001142   000003 471400 10                 LDP1    PTR$
        11 001143   000100 100500                    MLR     fill='000'O
        11 001144   000000 000002                    ADSC9   0,,PR0                   cn=0,n=2
        11 001145   100000 000002                    ADSC9   0,,PR1                   cn=0,n=2

      736     7659    7                                PTR$ -> ACS$VEH.TEXTC.LEN = PTR1$ -> ACS$VEH.TEXTC.LEN
              7659                                          ;

   7659 11 001146   000003 471400 10                 LDP1    PTR$
        11 001147   000100 100500                    MLR     fill='000'O
        11 001150   000000 400001                    ADSC9   0,,PR0                   cn=2,n=1
        11 001151   100000 400001                    ADSC9   0,,PR1                   cn=2,n=1

      737     7660    7                                PTR$ -> ACS$VEH.TEXTC.STRING = PTR1$ -> ACS$VEH.TEXTC.
              7660                                          STRING;

   7660 11 001152   000003 471400 10                 LDP1    PTR$
        11 001153   000100 101500                    MRL     fill='000'O
        11 001154   100000 400001                    ADSC9   0,,PR1                   cn=2,n=1
        11 001155   200006 000002                    ADSC9   CODE_IDX+1,,AUTO         cn=0,n=2
        11 001156   200006 220100                    LDX0    CODE_IDX+1,,AUTO
        11 001157   000100 101500                    MRL     fill='000'O
        11 001160   000000 400001                    ADSC9   0,,PR0                   cn=2,n=1
        11 001161   200007 000002                    ADSC9   CODE_IDX+2,,AUTO         cn=0,n=2
        11 001162   200007 221100                    LDX1    CODE_IDX+2,,AUTO
        11 001163   040140 100540                    MLR     fill='040'O
        11 001164   000000 600011                    ADSC9   0,,PR0                   cn=3,n=*X1
PL6.E3A0      #007=VPD$PROCESS_CONTROLS File=VPD$UTIL.:E05TSI                    WED 07/30/97 07:25 Page:180
        11 001165   100000 600010                    ADSC9   0,,PR1                   cn=3,n=*X0

      738     7661    7                                 PTR1$ = PINCRC(PTR1$,PTR$ -> ACS$VEH.TEXTC.LEN +3);

   7661 11 001166   000003 471400 10                 LDP1    PTR$
        11 001167   000100 101500                    MRL     fill='000'O
        11 001170   100000 400001                    ADSC9   0,,PR1                   cn=2,n=1
        11 001171   200006 000004                    ADSC9   CODE_IDX+1,,AUTO         cn=0,n=4
        11 001172   200006 236100                    LDQ     CODE_IDX+1,,AUTO
        11 001173   000020 736000                    QLS     16
        11 001174   600000 036007                    ADLQ    -65536,DL
        11 001175   000004 036000 10                 ADLQ    PTR1$
        11 001176   000004 756000 10                 STQ     PTR1$

      739     7662    7                                 PTR$ = PINCRC(PTR$,PTR$-> ACS$VEH.TEXTC.LEN +3);

   7662 11 001177   000100 101500                    MRL     fill='000'O
        11 001200   100000 400001                    ADSC9   0,,PR1                   cn=2,n=1
        11 001201   200006 000004                    ADSC9   CODE_IDX+1,,AUTO         cn=0,n=4
        11 001202   200006 236100                    LDQ     CODE_IDX+1,,AUTO
        11 001203   000020 736000                    QLS     16
        11 001204   600000 036007                    ADLQ    -65536,DL
        11 001205   000003 036000 10                 ADLQ    PTR$
        11 001206   000003 756000 10                 STQ     PTR$

      740     7663    7                                 END;

   7663 11 001207   000004 236000 10                 LDQ     PTR1$
        11 001210   000001 116000 10                 CMPQ    FILL$
        11 001211   001141 602000 11                 TNC     s:7658

      741     7664    6                              FILL$ = PINCRC(ACS$,TOTAL_CTLS);

   7664 11 001212   000436 236000 10                 LDQ     TOTAL_CTLS
        11 001213   000020 736000                    QLS     16
        11 001214   000005 036000 10                 ADLQ    ACS$
        11 001215   000001 756000 10                 STQ     FILL$
PL6.E3A0      #007=VPD$PROCESS_CONTROLS File=VPD$UTIL.:E05TSI                    WED 07/30/97 07:25 Page:181

      742     7665    6                              GOTO FIN_ACSVEH;

   7665 11 001216   001247 710000 11                 TRA     FIN_ACSVEH

      743     7666    6                              END;
      744     7667    5                       PTR$ = PINCRC(PTR$,PTR$ -> ACS$VEH.TEXTC.LEN +3);
              7667                                /* Next OLD ACS */

   7667 11 001217   000100 101500                    MRL     fill='000'O
        11 001220   100000 400001                    ADSC9   0,,PR1                   cn=2,n=1
        11 001221   200006 000004                    ADSC9   CODE_IDX+1,,AUTO         cn=0,n=4
        11 001222   200006 236100                    LDQ     CODE_IDX+1,,AUTO
        11 001223   000020 736000                    QLS     16
        11 001224   600000 036007                    ADLQ    -65536,DL
        11 001225   000003 036000 10                 ADLQ    PTR$
        11 001226   000003 756000 10                 STQ     PTR$

      745     7668    5                       END;

   7668 11 001227   000001 116000 10                 CMPQ    FILL$
        11 001230   001053 602000 11                 TNC     s:7644

      746     7669    4                    CALL VPL$ERR_PROC(1,30,'04'O,,,,M$EI#); /* WARNING ONLY      */

   7669 11 001231   000006 236000 12                 LDQ     6
        11 001232   200014 756100                    STQ     CODE_IDX+7,,AUTO
        11 001233   000001 236000 xsym               LDQ     B_VECTNIL+1
        11 001234   000001 235000 xsym               LDA     B_VECTNIL+1
        11 001235   200012 757100                    STAQ    CODE_IDX+5,,AUTO
        11 001236   000001 236000 xsym               LDQ     B_VECTNIL+1
        11 001237   000007 235000 12                 LDA     7
        11 001240   200010 757100                    STAQ    CODE_IDX+3,,AUTO
        11 001241   000010 237000 12                 LDAQ    8
        11 001242   200006 757100                    STAQ    CODE_IDX+1,,AUTO
        11 001243   200006 630500                    EPPR0   CODE_IDX+1,,AUTO
        11 001244   000025 631400 xsym               EPPR1   B_VECTNIL+21
PL6.E3A0      #007=VPD$PROCESS_CONTROLS File=VPD$UTIL.:E05TSI                    WED 07/30/97 07:25 Page:182
        11 001245   000000 701000 xent               TSX1    VPL$ERR_PROC
        11 001246   000000 011000                    NOP     0

      747     7670    4                  END;                     /* END DO CASE                        */

      748     7671    3   FIN_ACSVEH:   I = I + EXAM$ -> ACS$NEW.TEXTC.LEN +4; /* Count to next NEW ACS */

   7671 11 001247   000002 470400 10    FIN_ACSVEH   LDP0    EXAM$
        11 001250   000100 101500                    MRL     fill='000'O
        11 001251   000000 600001                    ADSC9   0,,PR0                   cn=3,n=1
        11 001252   200006 000004                    ADSC9   CODE_IDX+1,,AUTO         cn=0,n=4
        11 001253   200006 236100                    LDQ     CODE_IDX+1,,AUTO
        11 001254   000434 036000 10                 ADLQ    I
        11 001255   000004 036007                    ADLQ    4,DL
        11 001256   000434 756000 10                 STQ     I

      749     7672    3                 END;

   7672 11 001257   000434 236000 10                 LDQ     I
        11 001260   000004 036007                    ADLQ    4,DL
        11 001261   000045 116000 xsym               CMPQ    OCB+37
        11 001262   000713 602000 11                 TNC     s:7617

      750     7673    2              ACSVEH_AREA.LEN = (TOTAL_CTLS +3)/4; /* LENGTH in WORDS            */

   7673 11 001263   000436 236000 10                 LDQ     TOTAL_CTLS
        11 001264   000003 036007                    ADLQ    3,DL
        11 001265   000002 772000                    QRL     2
        11 001266   000204 756000 10                 STQ     ACSVEH_AREA

      751     7674    2            END;                           /* END DO CASE (CODE)                 */

      752     7675    1           IF ACCESS_AREA.LEN > 125 AND CODE=9

   7675 11 001267   000006 235000 10                 LDA     ACCESS_AREA
        11 001270   000176 115007                    CMPA    126,DL
        11 001271   001302 602000 11                 TNC     s:7682
PL6.E3A0      #007=VPD$PROCESS_CONTROLS File=VPD$UTIL.:E05TSI                    WED 07/30/97 07:25 Page:183
        11 001272   200003 470500                    LDP0    @CODE,,AUTO
        11 001273   000000 235100                    LDA     0,,PR0
        11 001274   000011 115007                    CMPA    9,DL
        11 001275   001302 601000 11                 TNZ     s:7682

      753     7676    1            THEN
      754     7677    1              CALL VPL$ERR_PROC(3,240,'04'O);

   7677 11 001276   000017 630400 12                 EPPR0   15
        11 001277   000021 631400 xsym               EPPR1   B_VECTNIL+17
        11 001300   000000 701000 xent               TSX1    VPL$ERR_PROC
        11 001301   000000 011000                    NOP     0

      755     7678        /*E*  ERROR:  VPD-00240
      756     7679              MESSAGE: Too many account ACCESS controls.
      757     7680             MESSAGE1: You tried to have more than 50 account ACCESS controls on a file.
      758     7681        */
      759     7682    1           IF ACSVEH_AREA.LEN > 150 AND CODE=10

   7682 11 001302   000204 235000 10                 LDA     ACSVEH_AREA
        11 001303   000227 115007                    CMPA    151,DL
        11 001304   001315 602000 11                 TNC     s:7689
        11 001305   200003 470500                    LDP0    @CODE,,AUTO
        11 001306   000000 235100                    LDA     0,,PR0
        11 001307   000012 115007                    CMPA    10,DL
        11 001310   001315 601000 11                 TNZ     s:7689

      760     7683    1            THEN
      761     7684    1   TOO_MANY:  CALL VPL$ERR_PROC(3,250,'04'O);

   7684 11 001311   000023 630400 12    TOO_MANY     EPPR0   19
        11 001312   000021 631400 xsym               EPPR1   B_VECTNIL+17
        11 001313   000000 701000 xent               TSX1    VPL$ERR_PROC
        11 001314   000000 011000                    NOP     0

      762     7685        /*E*  ERROR:  VPD-00250
      763     7686              MESSAGE: Too many vehicle ACCESS controls.
PL6.E3A0      #007=VPD$PROCESS_CONTROLS File=VPD$UTIL.:E05TSI                    WED 07/30/97 07:25 Page:184
      764     7687             MESSAGE1: You tried to have more than 150 words of vehicle controls.
      765     7688        */
      766     7689    1           RETURN;

   7689 11 001315   000000 702200 xent               TSX2  ! X66_ARET
      767     7690    1   END VPD$PROCESS_CONTROLS;
      768     7691        %EOD;

PL6.E3A0      #007=VPD$PROCESS_CONTROLS File=VPD$UTIL.:E05TSI                    WED 07/30/97 07:25 Page:185
--  Include file information  --

   FM$FIT.:E05TOU  is referenced.
   B_MICROPS_C.:E05TOU  is referenced.
   XU_MACRO_C.:E05TOU  is referenced.
   VP_MACRO_C.:E05TOU  is referenced.
   XS_MACRO_C.:E05TOU  is referenced.
   VP_PERR_C.:E05TOU  is referenced.
   CP_6_SUBS.:E05TOU  is referenced.
   CP_6.:E05TOU  cannot be made into a system file and is referenced.
   VP_DATA_R.:E05TOU  cannot be made into a system file and is referenced.
   B$JIT_C.:E05TOU  was found in the system file and is never referenced.
   CP_6_C.:E05TOU  was found in the system file and is referenced.
      No diagnostics issued in procedure VPD$PROCESS_CONTROLS.
PL6.E3A0      #007=VPD$PROCESS_CONTROLS File=VPD$UTIL.:E05TSI                    WED 07/30/97 07:25 Page:186

 **** Variables and constants ****

  ****  Section 010  Data  VPD$PROCESS_CONTROLS

  ****  Scalars and arrays  ****
OctLoc.c.b A Datatyp(siz) R M Lvl/name                 OctLoc.c.b A Datatyp(siz) R M Lvl/name

     6-0-0/w STRC(4536)  r     1 ACCESS_AREA                5-0-0/w PTR         r     1 ACS$
   204-0-0/w STRC(5436)  r     1 ACSVEH_AREA                2-0-0/w PTR         r     1 EXAM$
     1-0-0/w PTR         r     1 FILL$                    434-0-0/w UBIN        r     1 I
   433-0-0/w UBIN        r     1 J                        435-0-0/w UBIN        r     1 K
     0-0-0/w PTR         r     1 P$                         3-0-0/w PTR         r     1 PTR$
     4-0-0/w PTR         r     1 PTR1$                    436-0-0/w UBIN        r     1 TOTAL_CTLS

  ****  Auto variables  ****

  ****  Scalars and arrays  ****
OctLoc.c.b A Datatyp(siz) R M Lvl/name                 OctLoc.c.b A Datatyp(siz) R M Lvl/name

     3-0-0/w PTR         r     1 @CODE                      4-0-0/w PTR         r     1 @RET_VECT
    *0-0-0/w UBIN        r     1 CODE                       5-0-0/w SBIN        r     1 CODE_IDX
    *0-0-0/d VECT        r     1 RET_VECT

  ****  SYMREF variables  ****

  ****  Scalars and arrays  ****
OctLoc.c.b A Datatyp(siz) R M Lvl/name                 OctLoc.c.b A Datatyp(siz) R M Lvl/name

     0-0-0/w EPTR        r     1 BREAK_MESSAGE_REPORTER
     0-0-0/w PTR         r     1 FPARAM$                    0-0-0/w SBIN        r     1 M$EI#
     0-0-0/d STRC(6840)  r     1 OCB

  ****  BASED and DCB variables  ****

  ****  Scalars and arrays  ****
OctLoc.c.b A Datatyp(siz) R M Lvl/name                 OctLoc.c.b A Datatyp(siz) R M Lvl/name

PL6.E3A0      #007=VPD$PROCESS_CONTROLS File=VPD$UTIL.:E05TSI                    WED 07/30/97 07:25 Page:187
     0-0-0/c ASTR        r     1 ACS$NEW                    0-0-0/c ASTR(27)    r     1 ACS$VEH
     0-0-0/c STRC(90)    r     1 CODE09                     0-0-0/c ASTR(27)    r     1 CODE10
     0-0-0/w STRC(1116)  r     1 FM$FIT


   Procedure VPD$PROCESS_CONTROLS requires 718 words for executable code.
   Procedure VPD$PROCESS_CONTROLS requires 14 words of local(AUTO) storage.
PL6.E3A0      #007=VPD$PROCESS_CONTROLS File=VPD$UTIL.:E05TSI                    WED 07/30/97 07:25 Page:188
          *** CROSS REFERENCE LISTING ***
**     DENOTES     IDENTIFIER DEFINITION
<<                 IDENTIFIER'S VALUE SET
>>                 IDENTIFIER'S VALUE USED
<>                 IDENTIFIER SET AND/OR USED
--                 IDENTIFIER REFERENCED
PL6.E3A0      #007=VPD$PROCESS_CONTROLS File=VPD$UTIL.:E05TSI                    WED 07/30/97 07:25 Page:189
          MINI XREF LISTING

ACCESS_AREA
      7465**DCL      7482--ASSIGN
ACCESS_AREA.LEN
      7466**DCL      7564<<ASSIGN   7565<<ASSIGN   7565>>ASSIGN   7675>>IF
ACCESS_AREA.LIST
      7467**DCL      7551<<ASSIGN   7551>>ASSIGN
ACCESS_AREA.LIST.ACCT
      7469**DCL      7511<<ASSIGN   7521<<ASSIGN   7526>>IF       7534<<ASSIGN   7539>>IF
ACCESS_AREA.LIST.CNTLS
      7468**DCL      7510<<ASSIGN   7522<<ASSIGN   7529<<ASSIGN   7529>>ASSIGN   7535<<ASSIGN   7544<<ASSIGN
      7544>>ASSIGN
ACS$
      7453**DCL      7569<<ASSIGN   7570>>ASSIGN   7608>>ASSIGN   7627>>ASSIGN   7629>>ASSIGN   7642>>ASSIGN
      7664>>ASSIGN
ACS$NEW.CNTLS
      7461**DCL      7623>>ASSIGN   7634>>ASSIGN   7649>>ASSIGN
ACS$NEW.SPEC_TYPE
      7460**DCL      7577>>IF       7577>>IF       7588>>IF       7590<<ASSIGN   7593>>IF       7621>>DOCASE
      7646>>IF
ACS$NEW.TEXTC.LEN
      7463**DCL      7464--IMP-SIZ  7581>>ASSIGN   7591>>ASSIGN   7624>>ASSIGN   7625>>ASSIGN   7626>>ASSIGN
      7631>>IF       7644>>IF       7671>>ASSIGN
ACS$NEW.TEXTC.STRING
      7464**DCL      7625>>ASSIGN   7631>>IF       7644>>IF
ACS$VEH.CNTLS
      7455**DCL      7603<<ASSIGN   7603>>ASSIGN   7623<<ASSIGN   7634<<ASSIGN   7634>>ASSIGN   7649<<ASSIGN
      7649>>ASSIGN   7658<<ASSIGN   7658>>ASSIGN
ACS$VEH.TEXTC.LEN
      7457**DCL      7458--IMP-SIZ  7604<<ASSIGN   7604>>ASSIGN   7605>>ASSIGN   7605>>ASSIGN   7606>>ASSIGN
      7607>>ASSIGN   7624<<ASSIGN   7625>>ASSIGN   7631>>IF       7638>>ASSIGN   7644>>IF       7655>>ASSIGN
      7656>>ASSIGN   7659<<ASSIGN   7659>>ASSIGN   7660>>ASSIGN   7660>>ASSIGN   7661>>ASSIGN   7662>>ASSIGN
      7667>>ASSIGN
PL6.E3A0      #007=VPD$PROCESS_CONTROLS File=VPD$UTIL.:E05TSI                    WED 07/30/97 07:25 Page:190
ACS$VEH.TEXTC.STRING
      7458**DCL      7605<<ASSIGN   7605>>ASSIGN   7625<<ASSIGN   7631>>IF       7644>>IF       7660<<ASSIGN
      7660>>ASSIGN
ACSVEH_AREA
      7470**DCL      7568--ASSIGN
ACSVEH_AREA.LEN
      7471**DCL      7673<<ASSIGN   7682>>IF
ACSVEH_AREA.LIST
      7472**DCL      7569--ASSIGN   7617--IF
ACS_PLUS_MINUS
      7585**LABEL    7580--GOTO
BREAK_LOC
      5224**DCL      5224--REDEF
CODE
      7434**DCL         6--PROC     7480>>DOCASE   7502>>ASSIGN   7597>>ASSIGN   7675>>IF       7682>>IF
CODE09.ACCT
      7438**DCL      7511>>ASSIGN
CODE09.FFLG
      7437**DCL      7510>>ASSIGN
CODE10.ACSVEH.C
      7442**DCL      7442--IMP-SIZ
CODE_IDX
      7477**DCL      7502<<ASSIGN   7503<>CALL     7504>>ASSIGN   7597<<ASSIGN   7598<>CALL     7599>>ASSIGN
DEF_ICB.FID.STRING
      5822**DCL      5823--REDEF
DEV_ICB.FID.STRING
      5708**DCL      5709--REDEF
EI_KEY.KEY
      5920**DCL      5920--REDEF    5920--REDEF    5920--REDEF
EO_OCB.TYPE
      5420**DCL      5421--REDEF
EXAM$
      7450**DCL      7620<<ASSIGN   7621>>DOCASE   7623>>ASSIGN   7624>>ASSIGN   7625>>ASSIGN   7625>>ASSIGN
      7626>>ASSIGN   7631>>IF       7631>>IF       7634>>ASSIGN   7644>>IF       7644>>IF       7646>>IF
      7649>>ASSIGN   7671>>ASSIGN
FILL$
PL6.E3A0      #007=VPD$PROCESS_CONTROLS File=VPD$UTIL.:E05TSI                    WED 07/30/97 07:25 Page:191
      7449**DCL      7570<<ASSIGN   7603>>ASSIGN   7604>>ASSIGN   7605>>ASSIGN   7605>>ASSIGN   7608<<ASSIGN
      7623>>ASSIGN   7624>>ASSIGN   7625>>ASSIGN   7625>>ASSIGN   7627<<ASSIGN   7630>>DOWHILE  7643>>DOWHILE
      7657>>DOWHILE  7664<<ASSIGN
FIN_ACCESS
      7552**LABEL    7531--GOTO     7546--GOTO     7554--GOTO
FIN_ACSVEH
      7671**LABEL    7636--GOTO     7651--GOTO     7665--GOTO
FM$FIT.CODES.NDW
      7445**DCL      7504>>ASSIGN   7599>>ASSIGN
FPARAM$
      5225**DCL      7479>>ASSIGN   7504>>ASSIGN   7599>>ASSIGN
FPT_CLOSE_EI.SN_
      6761**DCL      6761--REDEF
FPT_CLOSE_EI.UTL_
      6762**DCL      6762--REDEF
FPT_CLOSE_EI.V.EXPIRE#
      6776**DCL      6776--REDEF
FPT_CLOSE_EI.V.TYPE#
      6774**DCL      6774--REDEF
FPT_CLOSE_EI.V.XTNSIZE#
      6771**DCL      6771--REDEF    6773--REDEF
FPT_CLOSE_PTL.SN_
      6887**DCL      6887--REDEF
FPT_CLOSE_PTL.UTL_
      6888**DCL      6888--REDEF
FPT_CLOSE_PTL.V.EXPIRE#
      6902**DCL      6902--REDEF
FPT_CLOSE_PTL.V.TYPE#
      6900**DCL      6900--REDEF
FPT_CLOSE_PTL.V.XTNSIZE#
      6897**DCL      6897--REDEF    6899--REDEF
FPT_CLOSE_READ.SN_
      6803**DCL      6803--REDEF
FPT_CLOSE_READ.UTL_
      6804**DCL      6804--REDEF
FPT_CLOSE_READ.V.EXPIRE#
PL6.E3A0      #007=VPD$PROCESS_CONTROLS File=VPD$UTIL.:E05TSI                    WED 07/30/97 07:25 Page:192
      6818**DCL      6818--REDEF
FPT_CLOSE_READ.V.TYPE#
      6816**DCL      6816--REDEF
FPT_CLOSE_READ.V.XTNSIZE#
      6813**DCL      6813--REDEF    6815--REDEF
FPT_CLOSE_SI.SN_
      6971**DCL      6971--REDEF
FPT_CLOSE_SI.UTL_
      6972**DCL      6972--REDEF
FPT_CLOSE_SI.V.EXPIRE#
      6986**DCL      6986--REDEF
FPT_CLOSE_SI.V.TYPE#
      6984**DCL      6984--REDEF
FPT_CLOSE_SI.V.XTNSIZE#
      6981**DCL      6981--REDEF    6983--REDEF
FPT_CLOSE_STD.SN_
      6929**DCL      6929--REDEF
FPT_CLOSE_STD.UTL_
      6930**DCL      6930--REDEF
FPT_CLOSE_STD.V.EXPIRE#
      6944**DCL      6944--REDEF
FPT_CLOSE_STD.V.TYPE#
      6942**DCL      6942--REDEF
FPT_CLOSE_STD.V.XTNSIZE#
      6939**DCL      6939--REDEF    6941--REDEF
FPT_CLSEI_FT.SN_
      6845**DCL      6845--REDEF
FPT_CLSEI_FT.UTL_
      6846**DCL      6846--REDEF
FPT_CLSEI_FT.V.EXPIRE#
      6860**DCL      6860--REDEF
FPT_CLSEI_FT.V.TYPE#
      6858**DCL      6858--REDEF
FPT_CLSEI_FT.V.XTNSIZE#
      6855**DCL      6855--REDEF    6857--REDEF
FPT_OPEN_EI.ACSVEH_
PL6.E3A0      #007=VPD$PROCESS_CONTROLS File=VPD$UTIL.:E05TSI                    WED 07/30/97 07:25 Page:193
      6416**DCL      6417--REDEF
FPT_OPEN_EI.ALTKEYS_
      6422**DCL      6423--REDEF    6423--REDEF
FPT_OPEN_EI.HDR_
      6421**DCL      6422--REDEF
FPT_OPEN_EI.TAB_
      6420**DCL      6421--REDEF
FPT_OPEN_EI.UHL_
      6414**DCL      6415--REDEF    6415--REDEF
FPT_OPEN_EI.V.FSN#
      6454**DCL      6454--REDEF    6454--REDEF
FPT_OPEN_EI.WSN_
      6420**DCL      6420--REDEF
FPT_OPEN_EI_SAVE.ACSVEH_
      6525**DCL      6526--REDEF
FPT_OPEN_EI_SAVE.ALTKEYS_
      6531**DCL      6532--REDEF    6532--REDEF
FPT_OPEN_EI_SAVE.HDR_
      6530**DCL      6531--REDEF
FPT_OPEN_EI_SAVE.TAB_
      6529**DCL      6530--REDEF
FPT_OPEN_EI_SAVE.UHL_
      6523**DCL      6524--REDEF    6524--REDEF
FPT_OPEN_EI_SAVE.V.FSN#
      6563**DCL      6563--REDEF    6563--REDEF
FPT_OPEN_EI_SAVE.WSN_
      6529**DCL      6529--REDEF
FPT_OPEN_OUT.ACSVEH_
      6307**DCL      6308--REDEF
FPT_OPEN_OUT.ALTKEYS_
      6313**DCL      6314--REDEF    6314--REDEF
FPT_OPEN_OUT.HDR_
      6312**DCL      6313--REDEF
FPT_OPEN_OUT.TAB_
      6311**DCL      6312--REDEF
FPT_OPEN_OUT.UHL_
PL6.E3A0      #007=VPD$PROCESS_CONTROLS File=VPD$UTIL.:E05TSI                    WED 07/30/97 07:25 Page:194
      6305**DCL      6306--REDEF    6306--REDEF
FPT_OPEN_OUT.V.FSN#
      6345**DCL      6345--REDEF    6345--REDEF
FPT_OPEN_OUT.WSN_
      6311**DCL      6311--REDEF
FPT_OPEN_OUT_SAVE.ACSVEH_
      6198**DCL      6199--REDEF
FPT_OPEN_OUT_SAVE.ALTKEYS_
      6204**DCL      6205--REDEF    6205--REDEF
FPT_OPEN_OUT_SAVE.HDR_
      6203**DCL      6204--REDEF
FPT_OPEN_OUT_SAVE.TAB_
      6202**DCL      6203--REDEF
FPT_OPEN_OUT_SAVE.UHL_
      6196**DCL      6197--REDEF    6197--REDEF
FPT_OPEN_OUT_SAVE.V.FSN#
      6236**DCL      6236--REDEF    6236--REDEF
FPT_OPEN_OUT_SAVE.WSN_
      6202**DCL      6202--REDEF
FPT_READ_STD.STATION_
      6626**DCL      6627--REDEF
FPT_READ_STD.V.DVBYTE.REREAD#
      6638**DCL      6638--REDEF
FPT_READ_STD.V.INDX#
      6636**DCL      6636--REDEF
FPT_READ_UC.STATION_
      6587**DCL      6588--REDEF
FPT_READ_UC.V.DVBYTE.REREAD#
      6599**DCL      6599--REDEF
FPT_READ_UC.V.INDX#
      6597**DCL      6597--REDEF
FPT_WRITE_ME.STATION_
      6695**DCL      6695--REDEF
FPT_WRITE_ME.V.DVBYTE.VFC#
      6702**DCL      6702--REDEF
FPT_WRITE_OUT.STATION_
PL6.E3A0      #007=VPD$PROCESS_CONTROLS File=VPD$UTIL.:E05TSI                    WED 07/30/97 07:25 Page:195
      6726**DCL      6726--REDEF
FPT_WRITE_OUT.V.DVBYTE.VFC#
      6733**DCL      6733--REDEF
FPT_WRITE_UC.STATION_
      6664**DCL      6664--REDEF
FPT_WRITE_UC.V.DVBYTE.VFC#
      6671**DCL      6671--REDEF
FROM_SN.SN
      5570**DCL      5571--REDEF
GETCMD.OUT$
      4777**DCL      4783--REDEF
I
      7474**DCL      7486<<DOINDEX  7487>>IF       7487>>IF       7494<<DOINDEX  7495>>IF       7497>>ASSIGN
      7509<<DOINDEX  7510>>ASSIGN   7511>>ASSIGN   7518<<DOINDEX  7519>>DOCASE   7521>>ASSIGN   7522>>ASSIGN
      7526>>IF       7529>>ASSIGN   7534>>ASSIGN   7535>>ASSIGN   7539>>IF       7541>>IF       7544>>ASSIGN
      7574<<ASSIGN   7575>>DOWHILE  7576>>ASSIGN   7581<<ASSIGN   7581>>ASSIGN   7585<<ASSIGN   7586>>DOWHILE
      7587>>ASSIGN   7588>>IF       7591<<ASSIGN   7591>>ASSIGN   7601<<ASSIGN   7602>>DOWHILE  7606<<ASSIGN
      7606>>ASSIGN   7608>>ASSIGN   7610>>ASSIGN   7615<<ASSIGN   7616>>DOWHILE  7620>>ASSIGN   7671<<ASSIGN
      7671>>ASSIGN
ICB.FID.STRING
      5594**DCL      5595--REDEF
IFSFA_PARAM.EOMCHAR#
      5949**DCL      5950--REDEF
IFSFA_PARAM.SIG1
      5943**DCL      5943--REDEF
IFSFA_PARAM.SIG2
      5943**DCL      5944--REDEF
IN_RES
      5516**DCL      5516--REDEF
IN_SN.SN
      5532**DCL      5533--REDEF
J
      7473**DCL      7525<<DOINDEX  7526>>IF       7529>>ASSIGN   7529>>ASSIGN   7538<<DOINDEX  7539>>IF
      7544>>ASSIGN   7544>>ASSIGN   7550>>DOINDEX
K
      7475**DCL      7550<<DOINDEX  7551>>ASSIGN   7551>>ASSIGN
PL6.E3A0      #007=VPD$PROCESS_CONTROLS File=VPD$UTIL.:E05TSI                    WED 07/30/97 07:25 Page:196
M$EI#
      5985**DCL      7557<>CALL     7669<>CALL
NO_OLD_ACCESS
      7515**LABEL    7492--GOTO     7503--CALLALT  7507--GOTO
NO_OLD_ACSVEH
      7612**LABEL    7583--GOTO     7596--GOTO     7598--CALLALT
OCB.ACCESS.LEN
      5285**DCL      7486>>DOINDEX  7494>>DOINDEX  7518>>DOINDEX
OCB.ACCESS.LIST.ACCT
      5289**DCL      7521>>ASSIGN   7526>>IF       7534>>ASSIGN   7539>>IF
OCB.ACCESS.LIST.CNTLS
      5288**DCL      7522>>ASSIGN   7529>>ASSIGN   7535>>ASSIGN   7544>>ASSIGN
OCB.ACCESS.LIST.SPEC_TYPE
      5287**DCL      7487>>IF       7487>>IF       7495>>IF       7497<<ASSIGN   7499>>IF       7519>>DOCASE
      7541>>IF
OCB.ACCESS_REPLACE
      5310**DCL      7483>>IF       7500<<ASSIGN   7505>>IF
OCB.ACSVEH.LEN
      5282**DCL      7575>>DOWHILE  7586>>DOWHILE  7616>>DOWHILE
OCB.ACSVEH.LIST
      5283**DCL      7576--ASSIGN   7587--ASSIGN   7593--IF       7620--ASSIGN
OCB.ACSVEH_REPLACE
      5308**DCL      7571>>IF       7594<<ASSIGN   7596>>IF
OCB.TYPE
      5278**DCL      5279--REDEF
OFSFA_PARAM.EOMCHAR#
      5979**DCL      5980--REDEF
OFSFA_PARAM.SIG1
      5973**DCL      5973--REDEF
OFSFA_PARAM.SIG2
      5973**DCL      5974--REDEF
OUT_SN.SN
      5550**DCL      5551--REDEF
P$
      7448**DCL      7576<<ASSIGN   7577>>IF       7577>>IF       7581>>ASSIGN   7587<<ASSIGN   7588>>IF
      7590>>ASSIGN   7591>>ASSIGN
PL6.E3A0      #007=VPD$PROCESS_CONTROLS File=VPD$UTIL.:E05TSI                    WED 07/30/97 07:25 Page:197
PLUS_MINUS
      7494**LABEL    7490--GOTO
PTR$
      7451**DCL      7479<<ASSIGN   7503<>CALL     7510>>ASSIGN   7511>>ASSIGN   7512<<ASSIGN   7512>>ASSIGN
      7598<>CALL     7603>>ASSIGN   7604>>ASSIGN   7605>>ASSIGN   7605>>ASSIGN   7606>>ASSIGN   7607<<ASSIGN
      7607>>ASSIGN   7607>>ASSIGN   7629<<ASSIGN   7630>>DOWHILE  7631>>IF       7631>>IF       7634>>ASSIGN
      7634>>ASSIGN   7638<<ASSIGN   7638>>ASSIGN   7638>>ASSIGN   7642<<ASSIGN   7643>>DOWHILE  7644>>IF
      7644>>IF       7649>>ASSIGN   7649>>ASSIGN   7655>>ASSIGN   7655>>ASSIGN   7656>>ASSIGN   7658>>ASSIGN
      7659>>ASSIGN   7660>>ASSIGN   7660>>ASSIGN   7661>>ASSIGN   7662<<ASSIGN   7662>>ASSIGN   7662>>ASSIGN
      7667<<ASSIGN   7667>>ASSIGN   7667>>ASSIGN
PTR1$
      7452**DCL      7655<<ASSIGN   7657>>DOWHILE  7658>>ASSIGN   7659>>ASSIGN   7660>>ASSIGN   7660>>ASSIGN
      7661<<ASSIGN   7661>>ASSIGN
RET_VECT
      7435**DCL         6--PROC     7482<<ASSIGN   7568<<ASSIGN
SPEC_BUF
      5228**DCL      5228--REDEF
STUFF_ACS
      7623**LABEL    7640--GOTO
TOO_MANY
      7684**LABEL    7619--GOTO
TOTAL_CTLS
      7476**DCL      7504<<ASSIGN   7505>>IF       7509>>DOINDEX  7515<<ASSIGN   7521>>ASSIGN   7522>>ASSIGN
      7523<<ASSIGN   7523>>ASSIGN   7525>>DOINDEX  7534>>ASSIGN   7535>>ASSIGN   7536<<ASSIGN   7536>>ASSIGN
      7538>>DOINDEX  7550>>DOINDEX  7553<<ASSIGN   7553>>ASSIGN   7564>>ASSIGN   7599<<ASSIGN   7602>>DOWHILE
      7610<<ASSIGN   7612<<ASSIGN   7617>>IF       7626<<ASSIGN   7626>>ASSIGN   7627>>ASSIGN   7656<<ASSIGN
      7656>>ASSIGN   7664>>ASSIGN   7673>>ASSIGN
VPL$ERR_PROC
      7407**DCL-ENT  7557--CALL     7669--CALL     7677--CALL     7684--CALL
XSF$LOCCODE
      7447**DCL-ENT  7503--CALL     7598--CALL

PL6.E3A0      #008=VPD$CONTINUE File=VPD$UTIL.:E05TSI                            WED 07/30/97 07:26 Page:198
      769        1        /*T***********************************************************/
      770        2        /*T*                                                         */
      771        3        /*T* Copyright (c) Bull HN Information Systems Inc., 1997    */
      772        4        /*T*                                                         */
      773        5        /*T***********************************************************/
      774        6        VPD$CONTINUE: PROC;
      775        7
      776        8        /*D*  NAME: VPD$CONTINUE
      777        9              CALL: Called from XUG$BREAK if the user hits BREAK and enters C.
      778       10              DESCRIPTION: Resets the M$PROMPT to '.' (intra-command).
      779       11        */
      780       12
      781       13        %INCLUDE VP_DATA_R;
      782     7000
      783     7001    1   DCL PROMPT_2 CHAR (1) SYMREF READONLY;  /* it lives in VPD$INIT_COMMANDS      */
      784     7002
      785     7003    1           OLD_BREAKS = OLD_BREAKS + BREAKS;
      786     7004    1           BREAKS = 0;
      787     7005
      788     7006    1           FPT_PROMPT.PROMPT_ = VECTOR (PROMPT_2);
      789     7007    1           CALL M$PROMPT (FPT_PROMPT);
      790     7008    1           IF CMD_MASK & '34'O             /* IF COPY,COPYALL, or COPYSTD        */
      791     7009    1             AND OCB.DEV_MASK.IC           /* AND output is to terminal          */
      792     7010    1             AND OCB.FLAVOR.FORMATTED      /* AND we're formatting the output    */
      793     7011    2            THEN DO;
      794     7012    2               CALL M$CLRSTK;
      795     7013    2               UNWIND TO CLEAN_POINT;      /* Continue with the next record      */
      796     7014    2               END;
      797     7015    1           RETURN;
      798     7016
      799     7017    1   END VPD$CONTINUE;
      800     7018        %EOD;

PL6.E3A0      #008=VPD$CONTINUE File=VPD$UTIL.:E05TSI                            WED 07/30/97 07:26 Page:199
--  Include file information  --

   B_MICROPS_C.:E05TOU  is referenced.
   XU_MACRO_C.:E05TOU  is referenced.
   VP_MACRO_C.:E05TOU  is referenced.
   XS_MACRO_C.:E05TOU  is referenced.
   VP_PERR_C.:E05TOU  is referenced.
   CP_6_SUBS.:E05TOU  is referenced.
   CP_6.:E05TOU  cannot be made into a system file and is referenced.
   VP_DATA_R.:E05TOU  cannot be made into a system file and is referenced.
   B$JIT_C.:E05TOU  was found in the system file and is never referenced.
   CP_6_C.:E05TOU  was found in the system file and is referenced.
      No diagnostics issued in procedure VPD$CONTINUE.

   Procedure VPD$CONTINUE requires 29 words for executable code.
   Procedure VPD$CONTINUE requires 6 words of local(AUTO) storage.

PL6.E3A0      #008=VPD$CONTINUE File=VPD$UTIL.:E05TSI                            WED 07/30/97 07:26 Page:200

 Object Unit name= VPD$CONTINUE                               File name= VPD$UTIL.:E05TOU
 UTS= JUL 30 '97 07:26:47.24 WED                              Compiler= PL-6/E31         Sev=      00
 SharedLib= :SHARED_SYSTEM                                    Alt SharedLib=


    ****  Control sections  ****

 Sect   Type Bound  Init  Size OctSiz  Section name(segment info)
    0   DCB   even  none     0      0  M$UC
    1   DCB   even  none     0      0  M$EI
    2   DCB   even  none     0      0  M$EO
    3   DCB   even  none     0      0  M$EO1
    4   DCB   even  none     0      0  M$ME
    5   DCB   even  none     0      0  M$SI
    6   DCB   even  none     0      0  M$READFILE
    7   DCB   even  none     0      0  M$DO
    8   DCB   even  none     0      0  M$STD1
    9   DCB   even  none     0      0  M$SORT1
   10   Proc  even  none    29     35  VPD$CONTINUE
   11  RoData even  none     4      4  VPD$CONTINUE

    ****  Entry defs  ****

                              Check   Calling
                             calling  sequence
  Sect OctLoc Primary Altret sequence   type   Parms  Name
    10      0   yes            yes      Std        0  VPD$CONTINUE

  ****  Entry refs  ****

         Check        Calling
        calling       sequence
Altret sequence SRef   type   Args  Name
                       nStd      0 X66_AUTO_0
                       nStd      0 X66_AUNWIND
                       nStd      0 X66_ARET
PL6.E3A0      #008=VPD$CONTINUE File=VPD$UTIL.:E05TSI                            WED 07/30/97 07:26 Page:201

  ****  Data refs  ****

  Flags:  r = read only, s = secondary
Flgs Name                             Flgs Name                             Flgs Name
     M$UC                                  CLEAN_POINT                           BREAK_LOC
     BREAKS                                OLD_BREAKS                            BREAK_MESSAGE_REPORTER
     CMD_MASK                              SPEC_BUF                              OCB
     IN_RES                                M$EI                                  M$EO
     M$EO1                                 M$ME                                  M$SI
     M$READFILE                            M$DO                                  M$STD1
     M$SORT1                               FPT_PROMPT                       r    PROMPT_2

  ****  Segment refs  ****

  Flags:  r = read only, s = secondary
Flgs Name                             Flgs Name                             Flgs Name
     ISSID
PL6.E3A0      #008=VPD$CONTINUE File=VPD$UTIL.:E05TSI                            WED 07/30/97 07:26 Page:202


      769        1        /*T***********************************************************/
      770        2        /*T*                                                         */
      771        3        /*T* Copyright (c) Bull HN Information Systems Inc., 1997    */
      772        4        /*T*                                                         */
      773        5        /*T***********************************************************/
      774        6        VPD$CONTINUE: PROC;

      6 10 000000   000000 700200 xent  VPD$CONTINUE TSX0  ! X66_AUTO_0
        10 000001   000006 000000                    ZERO    6,0

      775        7
      776        8        /*D*  NAME: VPD$CONTINUE
      777        9              CALL: Called from XUG$BREAK if the user hits BREAK and enters C.
      778       10              DESCRIPTION: Resets the M$PROMPT to '.' (intra-command).
      779       11        */
      780       12
      781       13        %INCLUDE VP_DATA_R;
      782     7000
      783     7001    1   DCL PROMPT_2 CHAR (1) SYMREF READONLY;  /* it lives in VPD$INIT_COMMANDS      */
      784     7002
      785     7003    1           OLD_BREAKS = OLD_BREAKS + BREAKS;

   7003 10 000002   000000 236000 xsym               LDQ     OLD_BREAKS
        10 000003   000000 036000 xsym               ADLQ    BREAKS
        10 000004   000000 756000 xsym               STQ     OLD_BREAKS

      786     7004    1           BREAKS = 0;

   7004 10 000005   000000 450000 xsym               STZ     BREAKS

      787     7005
      788     7006    1           FPT_PROMPT.PROMPT_ = VECTOR (PROMPT_2);

   7006 10 000006   000000 237000 11                 LDAQ    0
        10 000007   000004 757000 xsym               STAQ    FPT_PROMPT+4

PL6.E3A0      #008=VPD$CONTINUE File=VPD$UTIL.:E05TSI                            WED 07/30/97 07:26 Page:203
      789     7007    1           CALL M$PROMPT (FPT_PROMPT);

   7007 10 000010   000000 630400 xsym               EPPR0   FPT_PROMPT
        10 000011   160002 713400                    CLIMB   57346
        10 000012   401000 401760                    pmme    nvectors=3

      790     7008    1           IF CMD_MASK & '34'O             /* IF COPY,COPYALL, or COPYSTD        */

   7008 10 000013   000100 100400                    MLR     fill='000'O
        10 000014   000000 000010 xsym               ADSC9   CMD_MASK                 cn=0,n=8
        10 000015   200004 000010                    ADSC9   4,,AUTO                  cn=0,n=8
        10 000016   200004 237100                    LDAQ    4,,AUTO
        10 000017   000002 377000 11                 ANAQ    2
        10 000020   000034 600000 10                 TZE     s:7015
        10 000021   000255 236000 xsym               LDQ     OCB+173
        10 000022   020000 316003                    CANQ    8192,DU
        10 000023   000034 600000 10                 TZE     s:7015
        10 000024   000256 236000 xsym               LDQ     OCB+174
        10 000025   200000 316003                    CANQ    65536,DU
        10 000026   000034 600000 10                 TZE     s:7015

      791     7009    1             AND OCB.DEV_MASK.IC           /* AND output is to terminal          */
      792     7010    1             AND OCB.FLAVOR.FORMATTED      /* AND we're formatting the output    */
      793     7011    2            THEN DO;

      794     7012    2               CALL M$CLRSTK;

   7012 10 000027   010013 713400                    CLIMB   4107
        10 000030   000000 401760                    pmme    nvectors=0

      795     7013    2               UNWIND TO CLEAN_POINT;      /* Continue with the next record      */

   7013 10 000031   000000 237200 xsym               LDAQ  ! CLEAN_POINT
        10 000032   000000 700200 xent               TSX0  ! X66_AUNWIND
        10 000033   000000 000200                    ZERO    0,128

      796     7014    2               END;
PL6.E3A0      #008=VPD$CONTINUE File=VPD$UTIL.:E05TSI                            WED 07/30/97 07:26 Page:204
      797     7015    1           RETURN;

   7015 10 000034   000000 702200 xent               TSX2  ! X66_ARET
      798     7016
      799     7017    1   END VPD$CONTINUE;
      800     7018        %EOD;

PL6.E3A0      #008=VPD$CONTINUE File=VPD$UTIL.:E05TSI                            WED 07/30/97 07:26 Page:205
--  Include file information  --

   B_MICROPS_C.:E05TOU  is referenced.
   XU_MACRO_C.:E05TOU  is referenced.
   VP_MACRO_C.:E05TOU  is referenced.
   XS_MACRO_C.:E05TOU  is referenced.
   VP_PERR_C.:E05TOU  is referenced.
   CP_6_SUBS.:E05TOU  is referenced.
   CP_6.:E05TOU  cannot be made into a system file and is referenced.
   VP_DATA_R.:E05TOU  cannot be made into a system file and is referenced.
   B$JIT_C.:E05TOU  was found in the system file and is never referenced.
   CP_6_C.:E05TOU  was found in the system file and is referenced.
      No diagnostics issued in procedure VPD$CONTINUE.
PL6.E3A0      #008=VPD$CONTINUE File=VPD$UTIL.:E05TSI                            WED 07/30/97 07:26 Page:206

 **** Variables and constants ****

  ****  SYMREF variables  ****

  ****  Scalars and arrays  ****
OctLoc.c.b A Datatyp(siz) R M Lvl/name                 OctLoc.c.b A Datatyp(siz) R M Lvl/name

     0-0-0/w SBIN        r     1 BREAKS
     0-0-0/w EPTR        r     1 BREAK_MESSAGE_REPORTER
     0-0-0/d REMB        r     1 CLEAN_POINT
     0-0-0/b BIT         r     1 CMD_MASK(0:71)
     0-0-0/d STRC(360)   r     1 FPT_PROMPT                 0-0-0/d STRC(6840)  r     1 OCB
     0-0-0/w SBIN        r     1 OLD_BREAKS                 0-0-0/c CHAR        r     1 PROMPT_2


   Procedure VPD$CONTINUE requires 29 words for executable code.
   Procedure VPD$CONTINUE requires 6 words of local(AUTO) storage.
PL6.E3A0      #008=VPD$CONTINUE File=VPD$UTIL.:E05TSI                            WED 07/30/97 07:26 Page:207
          *** CROSS REFERENCE LISTING ***
**     DENOTES     IDENTIFIER DEFINITION
<<                 IDENTIFIER'S VALUE SET
>>                 IDENTIFIER'S VALUE USED
<>                 IDENTIFIER SET AND/OR USED
--                 IDENTIFIER REFERENCED
PL6.E3A0      #008=VPD$CONTINUE File=VPD$UTIL.:E05TSI                            WED 07/30/97 07:26 Page:208
          MINI XREF LISTING

BREAKS
      5220**DCL      7003>>ASSIGN   7004<<ASSIGN
BREAK_LOC
      5220**DCL      5220--REDEF
CLEAN_POINT
      5185**DCL      7013>>UNWIND
CMD_MASK
      5222**DCL      7008>>IF
DEF_ICB.FID.STRING
      5818**DCL      5819--REDEF
DEV_ICB.FID.STRING
      5704**DCL      5705--REDEF
EI_KEY.KEY
      5916**DCL      5916--REDEF    5916--REDEF    5916--REDEF
EO_OCB.TYPE
      5416**DCL      5417--REDEF
FPT_CLOSE_EI.SN_
      6757**DCL      6757--REDEF
FPT_CLOSE_EI.UTL_
      6758**DCL      6758--REDEF
FPT_CLOSE_EI.V.EXPIRE#
      6772**DCL      6772--REDEF
FPT_CLOSE_EI.V.TYPE#
      6770**DCL      6770--REDEF
FPT_CLOSE_EI.V.XTNSIZE#
      6767**DCL      6767--REDEF    6769--REDEF
FPT_CLOSE_PTL.SN_
      6883**DCL      6883--REDEF
FPT_CLOSE_PTL.UTL_
      6884**DCL      6884--REDEF
FPT_CLOSE_PTL.V.EXPIRE#
      6898**DCL      6898--REDEF
PL6.E3A0      #008=VPD$CONTINUE File=VPD$UTIL.:E05TSI                            WED 07/30/97 07:26 Page:209
FPT_CLOSE_PTL.V.TYPE#
      6896**DCL      6896--REDEF
FPT_CLOSE_PTL.V.XTNSIZE#
      6893**DCL      6893--REDEF    6895--REDEF
FPT_CLOSE_READ.SN_
      6799**DCL      6799--REDEF
FPT_CLOSE_READ.UTL_
      6800**DCL      6800--REDEF
FPT_CLOSE_READ.V.EXPIRE#
      6814**DCL      6814--REDEF
FPT_CLOSE_READ.V.TYPE#
      6812**DCL      6812--REDEF
FPT_CLOSE_READ.V.XTNSIZE#
      6809**DCL      6809--REDEF    6811--REDEF
FPT_CLOSE_SI.SN_
      6967**DCL      6967--REDEF
FPT_CLOSE_SI.UTL_
      6968**DCL      6968--REDEF
FPT_CLOSE_SI.V.EXPIRE#
      6982**DCL      6982--REDEF
FPT_CLOSE_SI.V.TYPE#
      6980**DCL      6980--REDEF
FPT_CLOSE_SI.V.XTNSIZE#
      6977**DCL      6977--REDEF    6979--REDEF
FPT_CLOSE_STD.SN_
      6925**DCL      6925--REDEF
FPT_CLOSE_STD.UTL_
      6926**DCL      6926--REDEF
FPT_CLOSE_STD.V.EXPIRE#
      6940**DCL      6940--REDEF
FPT_CLOSE_STD.V.TYPE#
      6938**DCL      6938--REDEF
FPT_CLOSE_STD.V.XTNSIZE#
      6935**DCL      6935--REDEF    6937--REDEF
FPT_CLSEI_FT.SN_
      6841**DCL      6841--REDEF
PL6.E3A0      #008=VPD$CONTINUE File=VPD$UTIL.:E05TSI                            WED 07/30/97 07:26 Page:210
FPT_CLSEI_FT.UTL_
      6842**DCL      6842--REDEF
FPT_CLSEI_FT.V.EXPIRE#
      6856**DCL      6856--REDEF
FPT_CLSEI_FT.V.TYPE#
      6854**DCL      6854--REDEF
FPT_CLSEI_FT.V.XTNSIZE#
      6851**DCL      6851--REDEF    6853--REDEF
FPT_OPEN_EI.ACSVEH_
      6412**DCL      6413--REDEF
FPT_OPEN_EI.ALTKEYS_
      6418**DCL      6419--REDEF    6419--REDEF
FPT_OPEN_EI.HDR_
      6417**DCL      6418--REDEF
FPT_OPEN_EI.TAB_
      6416**DCL      6417--REDEF
FPT_OPEN_EI.UHL_
      6410**DCL      6411--REDEF    6411--REDEF
FPT_OPEN_EI.V.FSN#
      6450**DCL      6450--REDEF    6450--REDEF
FPT_OPEN_EI.WSN_
      6416**DCL      6416--REDEF
FPT_OPEN_EI_SAVE.ACSVEH_
      6521**DCL      6522--REDEF
FPT_OPEN_EI_SAVE.ALTKEYS_
      6527**DCL      6528--REDEF    6528--REDEF
FPT_OPEN_EI_SAVE.HDR_
      6526**DCL      6527--REDEF
FPT_OPEN_EI_SAVE.TAB_
      6525**DCL      6526--REDEF
FPT_OPEN_EI_SAVE.UHL_
      6519**DCL      6520--REDEF    6520--REDEF
FPT_OPEN_EI_SAVE.V.FSN#
      6559**DCL      6559--REDEF    6559--REDEF
FPT_OPEN_EI_SAVE.WSN_
      6525**DCL      6525--REDEF
PL6.E3A0      #008=VPD$CONTINUE File=VPD$UTIL.:E05TSI                            WED 07/30/97 07:26 Page:211
FPT_OPEN_OUT.ACSVEH_
      6303**DCL      6304--REDEF
FPT_OPEN_OUT.ALTKEYS_
      6309**DCL      6310--REDEF    6310--REDEF
FPT_OPEN_OUT.HDR_
      6308**DCL      6309--REDEF
FPT_OPEN_OUT.TAB_
      6307**DCL      6308--REDEF
FPT_OPEN_OUT.UHL_
      6301**DCL      6302--REDEF    6302--REDEF
FPT_OPEN_OUT.V.FSN#
      6341**DCL      6341--REDEF    6341--REDEF
FPT_OPEN_OUT.WSN_
      6307**DCL      6307--REDEF
FPT_OPEN_OUT_SAVE.ACSVEH_
      6194**DCL      6195--REDEF
FPT_OPEN_OUT_SAVE.ALTKEYS_
      6200**DCL      6201--REDEF    6201--REDEF
FPT_OPEN_OUT_SAVE.HDR_
      6199**DCL      6200--REDEF
FPT_OPEN_OUT_SAVE.TAB_
      6198**DCL      6199--REDEF
FPT_OPEN_OUT_SAVE.UHL_
      6192**DCL      6193--REDEF    6193--REDEF
FPT_OPEN_OUT_SAVE.V.FSN#
      6232**DCL      6232--REDEF    6232--REDEF
FPT_OPEN_OUT_SAVE.WSN_
      6198**DCL      6198--REDEF
FPT_PROMPT
      6065**DCL      7007<>CALL
FPT_PROMPT.PROMPT_
      6071**DCL      7006<<ASSIGN
FPT_READ_STD.STATION_
      6622**DCL      6623--REDEF
FPT_READ_STD.V.DVBYTE.REREAD#
      6634**DCL      6634--REDEF
PL6.E3A0      #008=VPD$CONTINUE File=VPD$UTIL.:E05TSI                            WED 07/30/97 07:26 Page:212
FPT_READ_STD.V.INDX#
      6632**DCL      6632--REDEF
FPT_READ_UC.STATION_
      6583**DCL      6584--REDEF
FPT_READ_UC.V.DVBYTE.REREAD#
      6595**DCL      6595--REDEF
FPT_READ_UC.V.INDX#
      6593**DCL      6593--REDEF
FPT_WRITE_ME.STATION_
      6691**DCL      6691--REDEF
FPT_WRITE_ME.V.DVBYTE.VFC#
      6698**DCL      6698--REDEF
FPT_WRITE_OUT.STATION_
      6722**DCL      6722--REDEF
FPT_WRITE_OUT.V.DVBYTE.VFC#
      6729**DCL      6729--REDEF
FPT_WRITE_UC.STATION_
      6660**DCL      6660--REDEF
FPT_WRITE_UC.V.DVBYTE.VFC#
      6667**DCL      6667--REDEF
FROM_SN.SN
      5566**DCL      5567--REDEF
GETCMD.OUT$
      4773**DCL      4779--REDEF
ICB.FID.STRING
      5590**DCL      5591--REDEF
IFSFA_PARAM.EOMCHAR#
      5945**DCL      5946--REDEF
IFSFA_PARAM.SIG1
      5939**DCL      5939--REDEF
IFSFA_PARAM.SIG2
      5939**DCL      5940--REDEF
IN_RES
      5512**DCL      5512--REDEF
IN_SN.SN
      5528**DCL      5529--REDEF
PL6.E3A0      #008=VPD$CONTINUE File=VPD$UTIL.:E05TSI                            WED 07/30/97 07:26 Page:213
M$CLRSTK
        88**DCL-ENT  7012--CALL
M$PROMPT
        54**DCL-ENT  7007--CALL
OCB.DEV_MASK.IC
      5312**DCL      7008>>IF
OCB.FLAVOR.FORMATTED
      5319**DCL      7008>>IF
OCB.TYPE
      5274**DCL      5275--REDEF
OFSFA_PARAM.EOMCHAR#
      5975**DCL      5976--REDEF
OFSFA_PARAM.SIG1
      5969**DCL      5969--REDEF
OFSFA_PARAM.SIG2
      5969**DCL      5970--REDEF
OLD_BREAKS
      5221**DCL      7003<<ASSIGN   7003>>ASSIGN
OUT_SN.SN
      5546**DCL      5547--REDEF
PROMPT_2
      7001**DCL      7006--ASSIGN
SPEC_BUF
      5224**DCL      5224--REDEF

PL6.E3A0      #009=VPD$COUNTER_BUMP File=VPD$UTIL.:E05TSI                        WED 07/30/97 07:27 Page:214
      801        1        /*T***********************************************************/
      802        2        /*T*                                                         */
      803        3        /*T* Copyright (c) Bull HN Information Systems Inc., 1997    */
      804        4        /*T*                                                         */
      805        5        /*T***********************************************************/
      806        6        VPD$COUNTER_BUMP: PROC(FUNCTION);
      807        7        /*D* NAME: VPD$COUNTER_BUMP
      808        8             CALL: CALL VPD$COUNTER_BUMP;
      809        9             DESCRIPTION:  This routine bumps the total file and granule
      810       10                          counters.  Entry point VPD$COUNTER_PRINT prints them through M$ME.
      811       11                           The required parameter FUNCTION tells what was done
      812       12                           to the file.
      813       13
      814       14                           FUNCTION  function
      815       15                           --------  --------
      816       16                               0     copy
      817       17                               1     delete
      818       18                               2     list
      819       19        */
      820       20        /**/
      821       21        /*  PARAMETERS  */
      822       22        /**/
      823       23    1   DCL FUNCTION SBIN WORD;
      824       24        /**/
      825       25        /*  INCLUDE FILES  */
      826       26        /**/
      827       27        %INCLUDE VP_DATA_R;
      828     7014        %INCLUDE F$DCB;
      829     7063        %INCLUDE FM$FIT;
      830     7284        %CODE03;
      831     7291        /**/
      832     7292        /*  SUBS  */
      833     7293        /**/
      834     7294        %SUB NO# = '0'B;
      835     7295        /**/
      836     7296        /*  LOCAL AUTO  */
      837     7297        /**/
PL6.E3A0      #009=VPD$COUNTER_BUMP File=VPD$UTIL.:E05TSI                        WED 07/30/97 07:27 Page:215
      838     7298    1   DCL CODE$ PTR;
      839     7299    1   DCL OUT_BUF CHAR(50) AUTO;
      840     7300    1   DCL CHAR_6 CHAR(6);
      841     7301    1   DCL IDX SBIN WORD;
      842     7302        /**/
      843     7303        /*  CONSTANT  */
      844     7304        /**/
      845     7305    1   DCL MOP_6_BUF (0:1) BIT(9) CONSTANT INIT(%MVZB5,%MVC1);
      846     7306    1   DCL FUNCTION_NAME (0:4) CHAR(10) STATIC INIT(
      847     7307    1         'copied    ','deleted   ','listed    ',
      848     7308    1         '!BUG!     ','!BUG!     ');
      849     7309        /**/
      850     7310        /*  ENTRY DCLS  */
      851     7311        /**/
      852     7312    1   DCL XSF$LOCCODT ENTRY(2) ALTRET;
      853     7313        /**/
      854     7314    1           TOT_FILES(FUNCTION) = TOT_FILES(FUNCTION)+1;
      855     7315    1           CODE$ = ADDR(FPARAM_BUF);
      856     7316    1           CALL XSF$LOCCODT(CODE$,3) ALTRET(NO_CODE_3);
      857     7317    1           TOT_GRANS(FUNCTION) = TOT_GRANS(FUNCTION) + CODE$->CODE03.NGAVAL + CODE$->
              7317                    CODE03.UGRANS;
      858     7318    1   NO_CODE_3: ;
      859     7319    1           RETURN;
      860     7320        /**/
      861     7321    1   VPD$COUNTER_PRINT: ENTRY(FUNCTION);
      862     7322    1           IF TOT_FILES(FUNCTION) = 0
      863     7323    1            THEN
      864     7324    1              IF ~ERR_FLG
      865     7325    1               THEN                        /* Print 'no files'                   */
      866     7326    2               DO;
      867     7327    2                  CALL CONCAT(OUT_BUF,'  Nothing ',FUNCTION_NAME(FUNCTION));
      868     7328    2                  FPT_WRITE_ME.BUF_   = VECTOR(OUT_BUF);
      869     7329    2                  FPT_WRITE_ME.V.DVBYTE.VFC# = %NO#;
      870     7330    2                  CALL M$WRITE(FPT_WRITE_ME);
      871     7331    2                  END;
      872     7332    1               ELSE
      873     7333    1                 ;
PL6.E3A0      #009=VPD$COUNTER_BUMP File=VPD$UTIL.:E05TSI                        WED 07/30/97 07:27 Page:216
      874     7334    1            ELSE                           /* Print summary                      */
      875     7335    2            DO;
      876     7336    2               CALL BINCHAR(CHAR_6,TOT_FILES(FUNCTION));
      877     7337    2               CALL EDITCHAR(CHAR_6,
      878     7338    2                 0,
      879     7339    2                 6,
      880     7340    2                 MOP_6_BUF,
      881     7341    2                 CHAR_6);
      882     7342    2               CALL CONCAT(OUT_BUF,CHAR_6,' file');
      883     7343    2               IDX = 11;
      884     7344    2               IF TOT_FILES(FUNCTION) ~= 1
      885     7345    2                THEN
      886     7346    3                DO;
      887     7347    3                   CALL INSERT(OUT_BUF,IDX,1,'s');
      888     7348    3                   IDX = IDX +1;
      889     7349    3                   END;
      890     7350    2               IF TOT_GRANS(FUNCTION) > 0 AND ICB.DEV_MASK.MAN_DISC
      891     7351    2                THEN                       /* Report GRANS, too                  */
      892     7352    3                DO;
      893     7353    3                   CALL BINCHAR(CHAR_6,TOT_GRANS(FUNCTION));
      894     7354    3                   CALL EDITCHAR(CHAR_6,
      895     7355    3                     0,
      896     7356    3                     6,
      897     7357    3                     MOP_6_BUF,
      898     7358    3                     CHAR_6);
      899     7359    3                   CALL INSERT(OUT_BUF,IDX,,', ',CHAR_6,' granule');
      900     7360    3                   IDX = IDX + 16;
      901     7361    3                   IF TOT_GRANS(FUNCTION) ~= 1
      902     7362    3                    THEN
      903     7363    4                    DO;
      904     7364    4                       CALL INSERT(OUT_BUF,IDX,1,'s');
      905     7365    4                       IDX = IDX +1;
      906     7366    4                       END;
      907     7367    3                   END;
      908     7368    2               CALL INSERT(OUT_BUF,IDX,,' ',FUNCTION_NAME(FUNCTION));
      909     7369    2               FPT_WRITE_ME.BUF_   = VECTOR(OUT_BUF);
      910     7370    2               FPT_WRITE_ME.V.DVBYTE.VFC# = %NO#;
PL6.E3A0      #009=VPD$COUNTER_BUMP File=VPD$UTIL.:E05TSI                        WED 07/30/97 07:27 Page:217
      911     7371    2               CALL M$WRITE(FPT_WRITE_ME);
      912     7372    2               END;
      913     7373    1           RETURN;
      914     7374        /**/
      915     7375    1   END VPD$COUNTER_BUMP;
      916     7376        %EOD;

PL6.E3A0      #009=VPD$COUNTER_BUMP File=VPD$UTIL.:E05TSI                        WED 07/30/97 07:27 Page:218
--  Include file information  --

   FM$FIT.:E05TOU  is referenced.
   F$DCB.:E05TOU  cannot be made into a system file and is referenced.
   B_MICROPS_C.:E05TOU  is referenced.
   XU_MACRO_C.:E05TOU  is referenced.
   VP_MACRO_C.:E05TOU  is referenced.
   XS_MACRO_C.:E05TOU  is referenced.
   VP_PERR_C.:E05TOU  is referenced.
   CP_6_SUBS.:E05TOU  is referenced.
   CP_6.:E05TOU  cannot be made into a system file and is referenced.
   VP_DATA_R.:E05TOU  cannot be made into a system file and is referenced.
   B$JIT_C.:E05TOU  was found in the system file and is never referenced.
   CP_6_C.:E05TOU  was found in the system file and is referenced.
      No diagnostics issued in procedure VPD$COUNTER_BUMP.

   Procedure VPD$COUNTER_BUMP requires 170 words for executable code.
   Procedure VPD$COUNTER_BUMP requires 24 words of local(AUTO) storage.

PL6.E3A0      #009=VPD$COUNTER_BUMP File=VPD$UTIL.:E05TSI                        WED 07/30/97 07:27 Page:219

 Object Unit name= VPD$COUNTER_BUMP                           File name= VPD$UTIL.:E05TOU
 UTS= JUL 30 '97 07:27:32.52 WED                              Compiler= PL-6/E31         Sev=      00
 SharedLib= :SHARED_SYSTEM                                    Alt SharedLib=


    ****  Control sections  ****

 Sect   Type Bound  Init  Size OctSiz  Section name(segment info)
    0   DCB   even  none     0      0  M$UC
    1   DCB   even  none     0      0  M$EI
    2   DCB   even  none     0      0  M$EO
    3   DCB   even  none     0      0  M$EO1
    4   DCB   even  none     0      0  M$ME
    5   DCB   even  none     0      0  M$SI
    6   DCB   even  none     0      0  M$READFILE
    7   DCB   even  none     0      0  M$DO
    8   DCB   even  none     0      0  M$STD1
    9   DCB   even  none     0      0  M$SORT1
   10  RoData even  UTS      9     11  VPD$COUNTER_BUMP
   11   Data  even  none    13     15  VPD$COUNTER_BUMP
   12   Proc  even  none   170    252  VPD$COUNTER_BUMP
   13  RoData even  none     5      5  VPD$COUNTER_BUMP

    ****  Entry defs  ****

                              Check   Calling
                             calling  sequence
  Sect OctLoc Primary Altret sequence   type   Parms  Name
    12      0   yes            yes      Std        1  VPD$COUNTER_BUMP
    12     41                  yes      Std        1  VPD$COUNTER_PRINT
PL6.E3A0      #009=VPD$COUNTER_BUMP File=VPD$UTIL.:E05TSI                        WED 07/30/97 07:27 Page:220

  ****  Entry refs  ****

         Check        Calling
        calling       sequence
Altret sequence SRef   type   Args  Name
 yes     yes           Std       2 XSF$LOCCODT
                       nStd      0 X66_AUTO_1
                       Std       0 B_CONSPOOL_D
                       nStd      0 X66_ARET

  ****  Data refs  ****

  Flags:  r = read only, s = secondary
Flgs Name                             Flgs Name                             Flgs Name
     M$UC                                  ERR_FLG                               BREAK_LOC
     BREAK_MESSAGE_REPORTER                FPARAM_BUF                            TOT_FILES
     TOT_GRANS                             SPEC_BUF                              IN_RES
     ICB                                   M$EI                                  M$EO
     M$EO1                                 M$ME                                  M$SI
     M$READFILE                            M$DO                                  M$STD1
     M$SORT1                               FPT_WRITE_ME                          B_VECTNIL

  ****  Segment refs  ****

  Flags:  r = read only, s = secondary
Flgs Name                             Flgs Name                             Flgs Name
     ISSID
PL6.E3A0      #009=VPD$COUNTER_BUMP File=VPD$UTIL.:E05TSI                        WED 07/30/97 07:27 Page:221


      801        1        /*T***********************************************************/
      802        2        /*T*                                                         */
      803        3        /*T* Copyright (c) Bull HN Information Systems Inc., 1997    */
      804        4        /*T*                                                         */
      805        5        /*T***********************************************************/
      806        6        VPD$COUNTER_BUMP: PROC(FUNCTION);

      6 12 000000   000000 700200 xent  VPD$COUNTER* TSX0  ! X66_AUTO_1
        12 000001   000030 000001                    ZERO    24,1

      807        7        /*D* NAME: VPD$COUNTER_BUMP
      808        8             CALL: CALL VPD$COUNTER_BUMP;
      809        9             DESCRIPTION:  This routine bumps the total file and granule
      810       10                          counters. Entry point VPD$COUNTER_PRINT prints them through M$ME.
      811       11                           The required parameter FUNCTION tells what was done
      812       12                           to the file.
      813       13
      814       14                           FUNCTION  function
      815       15                           --------  --------
      816       16                               0     copy
      817       17                               1     delete
      818       18                               2     list
      819       19        */
      820       20        /**/
      821       21        /*  PARAMETERS  */
      822       22        /**/
      823       23    1   DCL FUNCTION SBIN WORD;
      824       24        /**/
      825       25        /*  INCLUDE FILES  */
      826       26        /**/
      827       27        %INCLUDE VP_DATA_R;
      828     7014        %INCLUDE F$DCB;
      829     7063        %INCLUDE FM$FIT;
      830     7284        %CODE03;
      831     7291        /**/
      832     7292        /*  SUBS  */
PL6.E3A0      #009=VPD$COUNTER_BUMP File=VPD$UTIL.:E05TSI                        WED 07/30/97 07:27 Page:222
      833     7293        /**/
      834     7294        %SUB NO# = '0'B;
      835     7295        /**/
      836     7296        /*  LOCAL AUTO  */
      837     7297        /**/
      838     7298    1   DCL CODE$ PTR;
      839     7299    1   DCL OUT_BUF CHAR(50) AUTO;
      840     7300    1   DCL CHAR_6 CHAR(6);
      841     7301    1   DCL IDX SBIN WORD;
      842     7302        /**/
      843     7303        /*  CONSTANT  */
      844     7304        /**/
      845     7305    1   DCL MOP_6_BUF (0:1) BIT(9) CONSTANT INIT(%MVZB5,%MVC1);
      846     7306    1   DCL FUNCTION_NAME (0:4) CHAR(10) STATIC INIT(
      847     7307    1         'copied    ','deleted   ','listed    ',
      848     7308    1         '!BUG!     ','!BUG!     ');
      849     7309        /**/
      850     7310        /*  ENTRY DCLS  */
      851     7311        /**/
      852     7312    1   DCL XSF$LOCCODT ENTRY(2) ALTRET;
      853     7313        /**/
      854     7314    1           TOT_FILES(FUNCTION) = TOT_FILES(FUNCTION)+1;

   7314 12 000002   200003 470500                    LDP0    @FUNCTION,,AUTO
        12 000003   000000 720100                    LXL0    0,,PR0
        12 000004   000000 721100                    LXL1    0,,PR0
        12 000005   000000 235011 xsym               LDA     TOT_FILES,X1
        12 000006   000001 035007                    ADLA    1,DL
        12 000007   000000 755010 xsym               STA     TOT_FILES,X0

      855     7315    1           CODE$ = ADDR(FPARAM_BUF);

   7315 12 000010   000000 236000 13                 LDQ     0
        12 000011   200004 756100                    STQ     CODE$,,AUTO

      856     7316    1           CALL XSF$LOCCODT(CODE$,3) ALTRET(NO_CODE_3);

PL6.E3A0      #009=VPD$COUNTER_BUMP File=VPD$UTIL.:E05TSI                        WED 07/30/97 07:27 Page:223
   7316 12 000012   000001 236000 13                 LDQ     1
        12 000013   200027 756100                    STQ     IDX+3,,AUTO
        12 000014   200004 631500                    EPPR1   CODE$,,AUTO
        12 000015   200026 451500                    STP1    IDX+2,,AUTO
        12 000016   200026 630500                    EPPR0   IDX+2,,AUTO
        12 000017   000020 631400 xsym               EPPR1   B_VECTNIL+16
        12 000020   000000 701000 xent               TSX1    XSF$LOCCODT
        12 000021   000040 702000 12                 TSX2    NO_CODE_3

      857     7317    1           TOT_GRANS(FUNCTION) = TOT_GRANS(FUNCTION) + CODE$->CODE03.NGAVAL + CODE$->
              7317                    CODE03.UGRANS;

   7317 12 000022   200003 470500                    LDP0    @FUNCTION,,AUTO
        12 000023   000000 720100                    LXL0    0,,PR0
        12 000024   000000 721100                    LXL1    0,,PR0
        12 000025   200004 471500                    LDP1    CODE$,,AUTO
        12 000026   100003 236100                    LDQ     3,,PR1
        12 000027   000032 376000 xsym               ANQ     B_VECTNIL+26
        12 000030   000000 036011 xsym               ADLQ    TOT_GRANS,X1
        12 000031   200026 756100                    STQ     IDX+2,,AUTO
        12 000032   100000 236100                    LDQ     0,,PR1
        12 000033   000032 376000 xsym               ANQ     B_VECTNIL+26
        12 000034   200027 756100                    STQ     IDX+3,,AUTO
        12 000035   200026 236100                    LDQ     IDX+2,,AUTO
        12 000036   200027 036100                    ADLQ    IDX+3,,AUTO
        12 000037   000000 756010 xsym               STQ     TOT_GRANS,X0

   7317 12 000040                       NO_CODE_3    null
      858     7318    1   NO_CODE_3: ;
      859     7319    1           RETURN;

   7319 12 000040   000000 702200 xent               TSX2  ! X66_ARET

      860     7320        /**/
      861     7321    1   VPD$COUNTER_PRINT: ENTRY(FUNCTION);

   7321 12 000041   000000 700200 xent  VPD$COUNTER* TSX0  ! X66_AUTO_1
PL6.E3A0      #009=VPD$COUNTER_BUMP File=VPD$UTIL.:E05TSI                        WED 07/30/97 07:27 Page:224
        12 000042   000030 000001                    ZERO    24,1

      862     7322    1           IF TOT_FILES(FUNCTION) = 0

   7322 12 000043   200003 470500                    LDP0    @FUNCTION,,AUTO
        12 000044   000000 720100                    LXL0    0,,PR0
        12 000045   000000 235010 xsym               LDA     TOT_FILES,X0
        12 000046   000077 601000 12                 TNZ     s:7336

      863     7323    1            THEN
      864     7324    1              IF ~ERR_FLG

   7324 12 000047   000000 236000 xsym               LDQ     ERR_FLG
        12 000050   400000 376003                    ANQ     -131072,DU
        12 000051   400000 676003                    ERQ     -131072,DU
        12 000052   000251 600000 12                 TZE     s:7373

      865     7325    1               THEN                        /* Print 'no files'                   */
      866     7326    2               DO;

      867     7327    2                  CALL CONCAT(OUT_BUF,'  Nothing ',FUNCTION_NAME(FUNCTION));

   7327 12 000053   000000 235100                    LDA     0,,PR0
        12 000054   040100 100400                    MLR     fill='040'O
        12 000055   000001 000012 10                 ADSC9   MOP_6_BUF+1              cn=0,n=10
        12 000056   200005 000012                    ADSC9   OUT_BUF,,AUTO            cn=0,n=10
        12 000057   000044 733000                    LRS     36
        12 000060   000012 402007                    MPY     10,DL
        12 000061   040100 100406                    MLR     fill='040'O
        12 000062   000000 000012 11                 ADSC9   FUNCTION_NAME,Q          cn=0,n=10
        12 000063   200007 400050                    ADSC9   OUT_BUF+2,,AUTO          cn=2,n=40

      868     7328    2                  FPT_WRITE_ME.BUF_   = VECTOR(OUT_BUF);

   7328 12 000064   000002 235000 13                 LDA     2
        12 000065   200026 452500                    STP2    IDX+2,,AUTO
        12 000066   200026 236100                    LDQ     IDX+2,,AUTO
PL6.E3A0      #009=VPD$COUNTER_BUMP File=VPD$UTIL.:E05TSI                        WED 07/30/97 07:27 Page:225
        12 000067   000005 036003                    ADLQ    5,DU
        12 000070   000004 757000 xsym               STAQ    FPT_WRITE_ME+4

      869     7329    2                  FPT_WRITE_ME.V.DVBYTE.VFC# = %NO#;

   7329 12 000071   000003 236000 13                 LDQ     3
        12 000072   000013 356000 xsym               ANSQ    FPT_WRITE_ME+11

      870     7330    2                  CALL M$WRITE(FPT_WRITE_ME);

   7330 12 000073   000000 630400 xsym               EPPR0   FPT_WRITE_ME
        12 000074   040001 713400                    CLIMB   write
        12 000075   401400 401760                    pmme    nvectors=4

      871     7331    2                  END;

   7331 12 000076   000251 710000 12                 TRA     s:7373

      872     7332    1               ELSE
      873     7333    1                 ;
      874     7334    1            ELSE                           /* Print summary                      */
      875     7335    2            DO;

      876     7336    2               CALL BINCHAR(CHAR_6,TOT_FILES(FUNCTION));

   7336 12 000077   000000 720100                    LXL0    0,,PR0
        12 000100   000000 635010                    EAA     0,X0
        12 000101   000020 771000                    ARL     16
        12 000102   000100 301405                    BTD
        12 000103   000000 000004 xsym               NDSC9   TOT_FILES,A              cn=0,s=lsgnf,sf=0,n=4
        12 000104   200022 030006                    NDSC9   CHAR_6,,AUTO             cn=0,s=nosgn,sf=0,n=6

      877     7337    2               CALL EDITCHAR(CHAR_6,

   7337 12 000105   100000 024500                    MVNE
        12 000106   200022 030006                    NDSC9   CHAR_6,,AUTO             cn=0,s=nosgn,sf=0,n=6
        12 000107   000000 000002 10                 ADSC9   MOP_6_BUF                cn=0,n=2
PL6.E3A0      #009=VPD$COUNTER_BUMP File=VPD$UTIL.:E05TSI                        WED 07/30/97 07:27 Page:226
        12 000110   200022 000006                    ADSC9   CHAR_6,,AUTO             cn=0,n=6

      878     7338    2                 0,
      879     7339    2                 6,
      880     7340    2                 MOP_6_BUF,
      881     7341    2                 CHAR_6);
      882     7342    2               CALL CONCAT(OUT_BUF,CHAR_6,' file');

   7342 12 000111   040100 100500                    MLR     fill='040'O
        12 000112   200022 000006                    ADSC9   CHAR_6,,AUTO             cn=0,n=6
        12 000113   200005 000006                    ADSC9   OUT_BUF,,AUTO            cn=0,n=6
        12 000114   040100 100400                    MLR     fill='040'O
        12 000115   000004 000005 10                 ADSC9   MOP_6_BUF+4              cn=0,n=5
        12 000116   200006 400054                    ADSC9   OUT_BUF+1,,AUTO          cn=2,n=44

      883     7343    2               IDX = 11;

   7343 12 000117   000013 235007                    LDA     11,DL
        12 000120   200024 755100                    STA     IDX,,AUTO

      884     7344    2               IF TOT_FILES(FUNCTION) ~= 1

   7344 12 000121   200003 470500                    LDP0    @FUNCTION,,AUTO
        12 000122   000000 720100                    LXL0    0,,PR0
        12 000123   000000 235010 xsym               LDA     TOT_FILES,X0
        12 000124   000001 115007                    CMPA    1,DL
        12 000125   000133 600000 12                 TZE     s:7350

      885     7345    2                THEN
      886     7346    3                DO;

      887     7347    3                   CALL INSERT(OUT_BUF,IDX,1,'s');

   7347 12 000126   200024 235100                    LDA     IDX,,AUTO
        12 000127   040105 100400                    MLR     fill='040'O
        12 000130   000004 000001 13                 ADSC9   4                        cn=0,n=1
        12 000131   200005 000001                    ADSC9   OUT_BUF,A,AUTO           cn=0,n=1
PL6.E3A0      #009=VPD$COUNTER_BUMP File=VPD$UTIL.:E05TSI                        WED 07/30/97 07:27 Page:227

      888     7348    3                   IDX = IDX +1;

   7348 12 000132   200024 054100                    AOS     IDX,,AUTO

      889     7349    3                   END;

      890     7350    2               IF TOT_GRANS(FUNCTION) > 0 AND ICB.DEV_MASK.MAN_DISC

   7350 12 000133   000000 720100                    LXL0    0,,PR0
        12 000134   000000 235010 xsym               LDA     TOT_GRANS,X0
        12 000135   000214 604400 12                 TMOZ    s:7368
        12 000136   000171 236000 xsym               LDQ     ICB+121
        12 000137   200000 316003                    CANQ    65536,DU
        12 000140   000214 600000 12                 TZE     s:7368

      891     7351    2                THEN                       /* Report GRANS, too                  */
      892     7352    3                DO;

      893     7353    3                   CALL BINCHAR(CHAR_6,TOT_GRANS(FUNCTION));

   7353 12 000141   000000 720100                    LXL0    0,,PR0
        12 000142   000000 635010                    EAA     0,X0
        12 000143   000020 771000                    ARL     16
        12 000144   000100 301405                    BTD
        12 000145   000000 000004 xsym               NDSC9   TOT_GRANS,A              cn=0,s=lsgnf,sf=0,n=4
        12 000146   200022 030006                    NDSC9   CHAR_6,,AUTO             cn=0,s=nosgn,sf=0,n=6

      894     7354    3                   CALL EDITCHAR(CHAR_6,

   7354 12 000147   100000 024500                    MVNE
        12 000150   200022 030006                    NDSC9   CHAR_6,,AUTO             cn=0,s=nosgn,sf=0,n=6
        12 000151   000000 000002 10                 ADSC9   MOP_6_BUF                cn=0,n=2
        12 000152   200022 000006                    ADSC9   CHAR_6,,AUTO             cn=0,n=6

      895     7355    3                     0,
      896     7356    3                     6,
PL6.E3A0      #009=VPD$COUNTER_BUMP File=VPD$UTIL.:E05TSI                        WED 07/30/97 07:27 Page:228
      897     7357    3                     MOP_6_BUF,
      898     7358    3                     CHAR_6);
      899     7359    3                   CALL INSERT(OUT_BUF,IDX,,', ',CHAR_6,' granule');

   7359 12 000153   200024 720100                    LXL0    IDX,,AUTO
        12 000154   777715 620010                    EAX0    -51,X0
        12 000155   777777 660003                    ERX0    -1,DU
        12 000156   200024 235100                    LDA     IDX,,AUTO
        12 000157   040145 100400                    MLR     fill='040'O
        12 000160   000006 000002 10                 ADSC9   MOP_6_BUF+6              cn=0,n=2
        12 000161   200005 000010                    ADSC9   OUT_BUF,A,AUTO           cn=0,n=*X0
        12 000162   200024 236100                    LDQ     IDX,,AUTO
        12 000163   000060 116007                    CMPQ    48,DL
        12 000164   000201 605000 12                 TPL     s:7360
        12 000165   777717 621006                    EAX1    -49,QL
        12 000166   777777 661003                    ERX1    -1,DU
        12 000167   040146 100500                    MLR     fill='040'O
        12 000170   200022 000006                    ADSC9   CHAR_6,,AUTO             cn=0,n=6
        12 000171   200005 400011                    ADSC9   OUT_BUF,Q,AUTO           cn=2,n=*X1
        12 000172   000052 116007                    CMPQ    42,DL
        12 000173   000201 605000 12                 TPL     s:7360
        12 000174   777725 622006                    EAX2    -43,QL
        12 000175   777777 662003                    ERX2    -1,DU
        12 000176   040146 100400                    MLR     fill='040'O
        12 000177   000007 000010 10                 ADSC9   MOP_6_BUF+7              cn=0,n=8
        12 000200   200007 000012                    ADSC9   OUT_BUF+2,Q,AUTO         cn=0,n=*X2

      900     7360    3                   IDX = IDX + 16;

   7360 12 000201   000020 236007                    LDQ     16,DL
        12 000202   200024 056100                    ASQ     IDX,,AUTO

      901     7361    3                   IF TOT_GRANS(FUNCTION) ~= 1

   7361 12 000203   000000 720100                    LXL0    0,,PR0
        12 000204   000000 235010 xsym               LDA     TOT_GRANS,X0
        12 000205   000001 115007                    CMPA    1,DL
PL6.E3A0      #009=VPD$COUNTER_BUMP File=VPD$UTIL.:E05TSI                        WED 07/30/97 07:27 Page:229
        12 000206   000214 600000 12                 TZE     s:7368

      902     7362    3                    THEN
      903     7363    4                    DO;

      904     7364    4                       CALL INSERT(OUT_BUF,IDX,1,'s');

   7364 12 000207   200024 235100                    LDA     IDX,,AUTO
        12 000210   040105 100400                    MLR     fill='040'O
        12 000211   000004 000001 13                 ADSC9   4                        cn=0,n=1
        12 000212   200005 000001                    ADSC9   OUT_BUF,A,AUTO           cn=0,n=1

      905     7365    4                       IDX = IDX +1;

   7365 12 000213   200024 054100                    AOS     IDX,,AUTO

      906     7366    4                       END;

      907     7367    3                   END;

      908     7368    2               CALL INSERT(OUT_BUF,IDX,,' ',FUNCTION_NAME(FUNCTION));

   7368 12 000214   000000 235100                    LDA     0,,PR0
        12 000215   200024 720100                    LXL0    IDX,,AUTO
        12 000216   777715 620010                    EAX0    -51,X0
        12 000217   777777 660003                    ERX0    -1,DU
        12 000220   200024 236100                    LDQ     IDX,,AUTO
        12 000221   040146 100400                    MLR     fill='040'O
        12 000222   000035 000001 xsym               ADSC9   B_VECTNIL+29             cn=0,n=1
        12 000223   200005 000010                    ADSC9   OUT_BUF,Q,AUTO           cn=0,n=*X0
        12 000224   000061 116007                    CMPQ    49,DL
        12 000225   000237 605000 12                 TPL     s:7369
        12 000226   000044 733000                    LRS     36
        12 000227   000012 402007                    MPY     10,DL
        12 000230   200024 721100                    LXL1    IDX,,AUTO
        12 000231   777716 621011                    EAX1    -50,X1
        12 000232   777777 661003                    ERX1    -1,DU
PL6.E3A0      #009=VPD$COUNTER_BUMP File=VPD$UTIL.:E05TSI                        WED 07/30/97 07:27 Page:230
        12 000233   200024 235100                    LDA     IDX,,AUTO
        12 000234   040145 100406                    MLR     fill='040'O
        12 000235   000000 000012 11                 ADSC9   FUNCTION_NAME,Q          cn=0,n=10
        12 000236   200005 200011                    ADSC9   OUT_BUF,A,AUTO           cn=1,n=*X1

      909     7369    2               FPT_WRITE_ME.BUF_   = VECTOR(OUT_BUF);

   7369 12 000237   000002 235000 13                 LDA     2
        12 000240   200026 452500                    STP2    IDX+2,,AUTO
        12 000241   200026 236100                    LDQ     IDX+2,,AUTO
        12 000242   000005 036003                    ADLQ    5,DU
        12 000243   000004 757000 xsym               STAQ    FPT_WRITE_ME+4

      910     7370    2               FPT_WRITE_ME.V.DVBYTE.VFC# = %NO#;

   7370 12 000244   000003 236000 13                 LDQ     3
        12 000245   000013 356000 xsym               ANSQ    FPT_WRITE_ME+11

      911     7371    2               CALL M$WRITE(FPT_WRITE_ME);

   7371 12 000246   000000 630400 xsym               EPPR0   FPT_WRITE_ME
        12 000247   040001 713400                    CLIMB   write
        12 000250   401400 401760                    pmme    nvectors=4

      912     7372    2               END;

      913     7373    1           RETURN;

   7373 12 000251   000000 702200 xent               TSX2  ! X66_ARET
      914     7374        /**/
      915     7375    1   END VPD$COUNTER_BUMP;
      916     7376        %EOD;

PL6.E3A0      #009=VPD$COUNTER_BUMP File=VPD$UTIL.:E05TSI                        WED 07/30/97 07:27 Page:231
--  Include file information  --

   FM$FIT.:E05TOU  is referenced.
   F$DCB.:E05TOU  cannot be made into a system file and is referenced.
   B_MICROPS_C.:E05TOU  is referenced.
   XU_MACRO_C.:E05TOU  is referenced.
   VP_MACRO_C.:E05TOU  is referenced.
   XS_MACRO_C.:E05TOU  is referenced.
   VP_PERR_C.:E05TOU  is referenced.
   CP_6_SUBS.:E05TOU  is referenced.
   CP_6.:E05TOU  cannot be made into a system file and is referenced.
   VP_DATA_R.:E05TOU  cannot be made into a system file and is referenced.
   B$JIT_C.:E05TOU  was found in the system file and is never referenced.
   CP_6_C.:E05TOU  was found in the system file and is referenced.
      No diagnostics issued in procedure VPD$COUNTER_BUMP.
PL6.E3A0      #009=VPD$COUNTER_BUMP File=VPD$UTIL.:E05TSI                        WED 07/30/97 07:27 Page:232

 **** Variables and constants ****

  ****  Section 010 RoData VPD$COUNTER_BUMP

  ****  Scalars and arrays  ****
OctLoc.c.b A Datatyp(siz) R M Lvl/name                 OctLoc.c.b A Datatyp(siz) R M Lvl/name

     0-0-0/b BIT (9)     r     1 MOP_6_BUF(0:1)

  ****  Section 011  Data  VPD$COUNTER_BUMP

  ****  Scalars and arrays  ****
OctLoc.c.b A Datatyp(siz) R M Lvl/name                 OctLoc.c.b A Datatyp(siz) R M Lvl/name

     0-0-0/c CHAR(10)    r     1 FUNCTION_NAME(0:4)

  ****  Auto variables  ****

  ****  Scalars and arrays  ****
OctLoc.c.b A Datatyp(siz) R M Lvl/name                 OctLoc.c.b A Datatyp(siz) R M Lvl/name

     3-0-0/w PTR         r     1 @FUNCTION                 22-0-0/c CHAR(6)     r     1 CHAR_6
     4-0-0/w PTR         r     1 CODE$                     *0-0-0/w SBIN        r     1 FUNCTION
    24-0-0/w SBIN        r     1 IDX                        5-0-0/c CHAR(50)    r     1 OUT_BUF

  ****  SYMREF variables  ****

  ****  Scalars and arrays  ****
OctLoc.c.b A Datatyp(siz) R M Lvl/name                 OctLoc.c.b A Datatyp(siz) R M Lvl/name

     0-0-0/w EPTR        r     1 BREAK_MESSAGE_REPORTER
     0-0-0/w BIT         r     1 ERR_FLG
     0-0-0/d SBIN        r     1 FPARAM_BUF(0:1023)
     0-0-0/d STRC(432)   r     1 FPT_WRITE_ME               0-0-0/d STRC(5868)  r     1 ICB
     0-0-0/w SBIN        r     1 TOT_FILES(0:4)
     0-0-0/w SBIN        r     1 TOT_GRANS(0:4)

PL6.E3A0      #009=VPD$COUNTER_BUMP File=VPD$UTIL.:E05TSI                        WED 07/30/97 07:27 Page:233
  ****  BASED and DCB variables  ****

  ****  Scalars and arrays  ****
OctLoc.c.b A Datatyp(siz) R M Lvl/name                 OctLoc.c.b A Datatyp(siz) R M Lvl/name

     0-0-0/w STRC(324)   r     1 CODE03                     0-0-0/d ASTR(3528)  r     1 F$DCB


   Procedure VPD$COUNTER_BUMP requires 170 words for executable code.
   Procedure VPD$COUNTER_BUMP requires 24 words of local(AUTO) storage.
PL6.E3A0      #009=VPD$COUNTER_BUMP File=VPD$UTIL.:E05TSI                        WED 07/30/97 07:27 Page:234
          *** CROSS REFERENCE LISTING ***
**     DENOTES     IDENTIFIER DEFINITION
<<                 IDENTIFIER'S VALUE SET
>>                 IDENTIFIER'S VALUE USED
<>                 IDENTIFIER SET AND/OR USED
--                 IDENTIFIER REFERENCED
PL6.E3A0      #009=VPD$COUNTER_BUMP File=VPD$UTIL.:E05TSI                        WED 07/30/97 07:27 Page:235
          MINI XREF LISTING

BREAK_LOC
      5234**DCL      5234--REDEF
CHAR_6
      7300**DCL      7336<<CALLBLT  7337<<CALLBLT  7337>>CALLBLT  7342>>CALLBLT  7353<<CALLBLT  7354<<CALLBLT
      7354>>CALLBLT  7359>>CALLBLT
CODE$
      7298**DCL      7315<<ASSIGN   7316<>CALL     7317>>ASSIGN   7317>>ASSIGN
CODE03.NGAVAL
      7287**DCL      7317>>ASSIGN
CODE03.UGRANS
      7285**DCL      7317>>ASSIGN
DEF_ICB.FID.STRING
      5832**DCL      5833--REDEF
DEV_ICB.FID.STRING
      5718**DCL      5719--REDEF
EI_KEY.KEY
      5930**DCL      5930--REDEF    5930--REDEF    5930--REDEF
EO_OCB.TYPE
      5430**DCL      5431--REDEF
ERR_FLG
      5197**DCL      7324>>IF
F$DCB.ACTPOS
      7040**DCL      7040--REDEF
F$DCB.ARS
      7015**DCL      7015--REDEF
F$DCB.ATTR
      7033**DCL      7034--REDEF
F$DCB.BORROW
      7048**DCL      7048--REDEF    7048--REDEF    7048--REDEF
F$DCB.DCBNAME.L
      7062**DCL      7062--IMP-SIZ
F$DCB.EOMCHAR
PL6.E3A0      #009=VPD$COUNTER_BUMP File=VPD$UTIL.:E05TSI                        WED 07/30/97 07:27 Page:236
      7019**DCL      7019--REDEF
F$DCB.FLDID
      7043**DCL      7043--REDEF
F$DCB.FORM$
      7037**DCL      7037--REDEF
F$DCB.FSECT
      7053**DCL      7053--REDEF
F$DCB.FSN
      7030**DCL      7030--REDEF    7030--REDEF    7031--REDEF
F$DCB.HEADER$
      7036**DCL      7036--REDEF
F$DCB.IXTNSIZE
      7034**DCL      7034--REDEF
F$DCB.LASTSTA$
      7024**DCL      7024--REDEF
F$DCB.LVL
      7049**DCL      7049--REDEF
F$DCB.NAME.C
      7024**DCL      7024--REDEF
F$DCB.NOEOF
      7045**DCL      7045--REDEF
F$DCB.NRECS
      7035**DCL      7035--REDEF
F$DCB.NRECX
      7054**DCL      7054--REDEF
F$DCB.OHDR
      7046**DCL      7046--REDEF
F$DCB.ORG
      7029**DCL      7029--REDEF
F$DCB.PRECNO
      7052**DCL      7052--REDEF
F$DCB.RCSZ
      7057**DCL      7057--REDEF
F$DCB.RES
      7025**DCL      7025--REDEF
F$DCB.SETX
PL6.E3A0      #009=VPD$COUNTER_BUMP File=VPD$UTIL.:E05TSI                        WED 07/30/97 07:27 Page:237
      7037**DCL      7037--REDEF
F$DCB.TAB$
      7036**DCL      7037--REDEF
F$DCB.TDA
      7051**DCL      7051--REDEF
F$DCB.WSN
      7026**DCL      7026--REDEF
FPARAM_BUF
      5235**DCL      7315--ASSIGN
FPT_CLOSE_EI.SN_
      6771**DCL      6771--REDEF
FPT_CLOSE_EI.UTL_
      6772**DCL      6772--REDEF
FPT_CLOSE_EI.V.EXPIRE#
      6786**DCL      6786--REDEF
FPT_CLOSE_EI.V.TYPE#
      6784**DCL      6784--REDEF
FPT_CLOSE_EI.V.XTNSIZE#
      6781**DCL      6781--REDEF    6783--REDEF
FPT_CLOSE_PTL.SN_
      6897**DCL      6897--REDEF
FPT_CLOSE_PTL.UTL_
      6898**DCL      6898--REDEF
FPT_CLOSE_PTL.V.EXPIRE#
      6912**DCL      6912--REDEF
FPT_CLOSE_PTL.V.TYPE#
      6910**DCL      6910--REDEF
FPT_CLOSE_PTL.V.XTNSIZE#
      6907**DCL      6907--REDEF    6909--REDEF
FPT_CLOSE_READ.SN_
      6813**DCL      6813--REDEF
FPT_CLOSE_READ.UTL_
      6814**DCL      6814--REDEF
FPT_CLOSE_READ.V.EXPIRE#
      6828**DCL      6828--REDEF
FPT_CLOSE_READ.V.TYPE#
PL6.E3A0      #009=VPD$COUNTER_BUMP File=VPD$UTIL.:E05TSI                        WED 07/30/97 07:27 Page:238
      6826**DCL      6826--REDEF
FPT_CLOSE_READ.V.XTNSIZE#
      6823**DCL      6823--REDEF    6825--REDEF
FPT_CLOSE_SI.SN_
      6981**DCL      6981--REDEF
FPT_CLOSE_SI.UTL_
      6982**DCL      6982--REDEF
FPT_CLOSE_SI.V.EXPIRE#
      6996**DCL      6996--REDEF
FPT_CLOSE_SI.V.TYPE#
      6994**DCL      6994--REDEF
FPT_CLOSE_SI.V.XTNSIZE#
      6991**DCL      6991--REDEF    6993--REDEF
FPT_CLOSE_STD.SN_
      6939**DCL      6939--REDEF
FPT_CLOSE_STD.UTL_
      6940**DCL      6940--REDEF
FPT_CLOSE_STD.V.EXPIRE#
      6954**DCL      6954--REDEF
FPT_CLOSE_STD.V.TYPE#
      6952**DCL      6952--REDEF
FPT_CLOSE_STD.V.XTNSIZE#
      6949**DCL      6949--REDEF    6951--REDEF
FPT_CLSEI_FT.SN_
      6855**DCL      6855--REDEF
FPT_CLSEI_FT.UTL_
      6856**DCL      6856--REDEF
FPT_CLSEI_FT.V.EXPIRE#
      6870**DCL      6870--REDEF
FPT_CLSEI_FT.V.TYPE#
      6868**DCL      6868--REDEF
FPT_CLSEI_FT.V.XTNSIZE#
      6865**DCL      6865--REDEF    6867--REDEF
FPT_OPEN_EI.ACSVEH_
      6426**DCL      6427--REDEF
FPT_OPEN_EI.ALTKEYS_
PL6.E3A0      #009=VPD$COUNTER_BUMP File=VPD$UTIL.:E05TSI                        WED 07/30/97 07:27 Page:239
      6432**DCL      6433--REDEF    6433--REDEF
FPT_OPEN_EI.HDR_
      6431**DCL      6432--REDEF
FPT_OPEN_EI.TAB_
      6430**DCL      6431--REDEF
FPT_OPEN_EI.UHL_
      6424**DCL      6425--REDEF    6425--REDEF
FPT_OPEN_EI.V.FSN#
      6464**DCL      6464--REDEF    6464--REDEF
FPT_OPEN_EI.WSN_
      6430**DCL      6430--REDEF
FPT_OPEN_EI_SAVE.ACSVEH_
      6535**DCL      6536--REDEF
FPT_OPEN_EI_SAVE.ALTKEYS_
      6541**DCL      6542--REDEF    6542--REDEF
FPT_OPEN_EI_SAVE.HDR_
      6540**DCL      6541--REDEF
FPT_OPEN_EI_SAVE.TAB_
      6539**DCL      6540--REDEF
FPT_OPEN_EI_SAVE.UHL_
      6533**DCL      6534--REDEF    6534--REDEF
FPT_OPEN_EI_SAVE.V.FSN#
      6573**DCL      6573--REDEF    6573--REDEF
FPT_OPEN_EI_SAVE.WSN_
      6539**DCL      6539--REDEF
FPT_OPEN_OUT.ACSVEH_
      6317**DCL      6318--REDEF
FPT_OPEN_OUT.ALTKEYS_
      6323**DCL      6324--REDEF    6324--REDEF
FPT_OPEN_OUT.HDR_
      6322**DCL      6323--REDEF
FPT_OPEN_OUT.TAB_
      6321**DCL      6322--REDEF
FPT_OPEN_OUT.UHL_
      6315**DCL      6316--REDEF    6316--REDEF
FPT_OPEN_OUT.V.FSN#
PL6.E3A0      #009=VPD$COUNTER_BUMP File=VPD$UTIL.:E05TSI                        WED 07/30/97 07:27 Page:240
      6355**DCL      6355--REDEF    6355--REDEF
FPT_OPEN_OUT.WSN_
      6321**DCL      6321--REDEF
FPT_OPEN_OUT_SAVE.ACSVEH_
      6208**DCL      6209--REDEF
FPT_OPEN_OUT_SAVE.ALTKEYS_
      6214**DCL      6215--REDEF    6215--REDEF
FPT_OPEN_OUT_SAVE.HDR_
      6213**DCL      6214--REDEF
FPT_OPEN_OUT_SAVE.TAB_
      6212**DCL      6213--REDEF
FPT_OPEN_OUT_SAVE.UHL_
      6206**DCL      6207--REDEF    6207--REDEF
FPT_OPEN_OUT_SAVE.V.FSN#
      6246**DCL      6246--REDEF    6246--REDEF
FPT_OPEN_OUT_SAVE.WSN_
      6212**DCL      6212--REDEF
FPT_READ_STD.STATION_
      6636**DCL      6637--REDEF
FPT_READ_STD.V.DVBYTE.REREAD#
      6648**DCL      6648--REDEF
FPT_READ_STD.V.INDX#
      6646**DCL      6646--REDEF
FPT_READ_UC.STATION_
      6597**DCL      6598--REDEF
FPT_READ_UC.V.DVBYTE.REREAD#
      6609**DCL      6609--REDEF
FPT_READ_UC.V.INDX#
      6607**DCL      6607--REDEF
FPT_WRITE_ME
      6703**DCL      7330<>CALL     7371<>CALL
FPT_WRITE_ME.BUF_
      6703**DCL      7328<<ASSIGN   7369<<ASSIGN
FPT_WRITE_ME.STATION_
      6705**DCL      6705--REDEF
FPT_WRITE_ME.V.DVBYTE.VFC#
PL6.E3A0      #009=VPD$COUNTER_BUMP File=VPD$UTIL.:E05TSI                        WED 07/30/97 07:27 Page:241
      6712**DCL      6712--REDEF    7329<<ASSIGN   7370<<ASSIGN
FPT_WRITE_OUT.STATION_
      6736**DCL      6736--REDEF
FPT_WRITE_OUT.V.DVBYTE.VFC#
      6743**DCL      6743--REDEF
FPT_WRITE_UC.STATION_
      6674**DCL      6674--REDEF
FPT_WRITE_UC.V.DVBYTE.VFC#
      6681**DCL      6681--REDEF
FROM_SN.SN
      5580**DCL      5581--REDEF
FUNCTION
        23**DCL         6--PROC     7314>>ASSIGN   7314>>ASSIGN   7317>>ASSIGN   7317>>ASSIGN   7321--ENTRY
      7322>>IF       7327>>CALLBLT  7336>>CALLBLT  7344>>IF       7350>>IF       7353>>CALLBLT  7361>>IF
      7368>>CALLBLT
FUNCTION_NAME
      7306**DCL      7327>>CALLBLT  7368>>CALLBLT
GETCMD.OUT$
      4787**DCL      4793--REDEF
ICB.DEV_MASK.MAN_DISC
      5656**DCL      7350>>IF
ICB.FID.STRING
      5604**DCL      5605--REDEF
IDX
      7301**DCL      7343<<ASSIGN   7347>>CALLBLT  7348<<ASSIGN   7348>>ASSIGN   7359>>CALLBLT  7360<<ASSIGN
      7360>>ASSIGN   7364>>CALLBLT  7365<<ASSIGN   7365>>ASSIGN   7368>>CALLBLT
IFSFA_PARAM.EOMCHAR#
      5959**DCL      5960--REDEF
IFSFA_PARAM.SIG1
      5953**DCL      5953--REDEF
IFSFA_PARAM.SIG2
      5953**DCL      5954--REDEF
IN_RES
      5526**DCL      5526--REDEF
IN_SN.SN
      5542**DCL      5543--REDEF
PL6.E3A0      #009=VPD$COUNTER_BUMP File=VPD$UTIL.:E05TSI                        WED 07/30/97 07:27 Page:242
M$WRITE
        45**DCL-ENT  7330--CALL     7371--CALL
MOP_6_BUF
      7305**DCL      7337>>CALLBLT  7354>>CALLBLT
NO_CODE_3
      7317**LABEL    7316--CALLALT
OCB.TYPE
      5288**DCL      5289--REDEF
OFSFA_PARAM.EOMCHAR#
      5989**DCL      5990--REDEF
OFSFA_PARAM.SIG1
      5983**DCL      5983--REDEF
OFSFA_PARAM.SIG2
      5983**DCL      5984--REDEF
OUT_BUF
      7299**DCL      7327<<CALLBLT  7328--ASSIGN   7342<<CALLBLT  7347<<CALLBLT  7359<<CALLBLT  7364<<CALLBLT
      7368<<CALLBLT  7369--ASSIGN
OUT_SN.SN
      5560**DCL      5561--REDEF
SPEC_BUF
      5238**DCL      5238--REDEF
TOT_FILES
      5237**DCL      7314<<ASSIGN   7314>>ASSIGN   7322>>IF       7336>>CALLBLT  7344>>IF
TOT_GRANS
      5237**DCL      7317<<ASSIGN   7317>>ASSIGN   7350>>IF       7353>>CALLBLT  7361>>IF
XSF$LOCCODT
      7312**DCL-ENT  7316--CALL

PL6.E3A0      #010=VPD$DECI_MUNGE File=VPD$UTIL.:E05TSI                          WED 07/30/97 07:28 Page:243
      917        1        /*T***********************************************************/
      918        2        /*T*                                                         */
      919        3        /*T* Copyright (c) Bull HN Information Systems Inc., 1997    */
      920        4        /*T*                                                         */
      921        5        /*T***********************************************************/
      922        6        VPD$DECI_MUNGE: PROC(DEC_BLOCK$,LOW_LIM,HIGH_LIM,TO_WORD) ALTRET;
      923        7        /*I* NAME: VPD$DECI_MUNGE
      924        8             PURPOSE: To process a parse node for a possible decimal number.
      925        9             CALL: CALL VPD$DECI_MUNGE(DEC_BLOCK$,TO_WORD) ALTRET(ERROR);
      926       10             DESCRIPTION: This procedure converts a decimal number into a
      927       11                   WORD integer, shifted over to give room for the decimal.
      928       12
      929       13                   In the event of an error, we ALTRET without printing any
      930       14                   kind of message.
      931       15        */
      932       16        /**/
      933       17        /*  PARAMETERS  */
      934       18        /**/
      935       19    1   DCL DEC_BLOCK$ PTR;
      936       20    1   DCL TO_WORD SBIN WORD;
      937       21    1   DCL LOW_LIM SBIN WORD;
      938       22    1   DCL HIGH_LIM SBIN WORD;
      939       23        /**/
      940       24        /* INCLUDE FILES  */
      941       25        /**/
      942       26        %INCLUDE VP_DATA_R;
      943     7013        /**/
      944     7014        /*  BASED  */
      945     7015        /**/
      946     7016        %PARSE$OUT(NAME = OUT$BLK,STCLASS = BASED);
      947     7061        %PARSE$SYM(NAME = OUT$SYM,STCLASS = BASED);
      948     7099    1   DCL 1 TEXT$C BASED,
      949     7100    1         2 LEN UBIN BYTE UNAL,
      950     7101    1         2 STRING CHAR(TEXT$C.LEN);
      951     7102        /**/
      952     7103        /*  LOCAL AUTO  */
      953     7104        /**/
PL6.E3A0      #010=VPD$DECI_MUNGE File=VPD$UTIL.:E05TSI                          WED 07/30/97 07:28 Page:244
      954     7105    1   DCL DEC$ PTR;
      955     7106    1   DCL DEC_NUM SBIN WORD;
      956     7107    1   DCL SIGN_NUM SBIN WORD;
      957     7108        /**/
      958     7109        /*  ENTRY DCLS  */
      959     7110        /**/
      960     7111        %VP_ENTRIES (OMIT=VPD$DECI_MUNGE);
      961     7319        /**/
      962     7320    1           DEC$ = DEC_BLOCK$->OUT$BLK.SUBLK$(0);
      963     7321    1           SIGN_NUM = 1;
      964     7322    1           IF DEC$->OUT$BLK.CODE = 100
      965     7323    1            THEN
      966     7324    2            DO;
      967     7325    2               CALL VPD$TEXTC_CHARBIN(DEC_NUM,
      968     7326    2                 DEC$ -> OUT$BLK.SUBLK$(0),
      969     7327    2                 99999,SIGN_NUM) ALTRET(BAD_DECIMAL);
      970     7328    2               TO_WORD = DEC_NUM*1000;
      971     7329    2               DEC$ = DEC_BLOCK$->OUT$BLK.SUBLK$(DEC_BLOCK$->OUT$BLK.NSUBLKS-1);
      972     7330    2               END;
      973     7331    1           IF DEC$->OUT$BLK.CODE = 101
      974     7332    1            THEN
      975     7333    2            DO;
      976     7334    2               CALL VPD$TEXTC_CHARBIN(DEC_NUM,
      977     7335    2                 DEC$->OUT$BLK.SUBLK$(0),
      978     7336    2                 999) ALTRET(BAD_DECIMAL);
      979     7337    3               DO CASE(DEC$->OUT$BLK.SUBLK$(0)->TEXT$C.LEN);
      980     7338    3                CASE(1);
      981     7339    3                  DEC_NUM = DEC_NUM * 100;
      982     7340    3                CASE(2);
      983     7341    3                  DEC_NUM = DEC_NUM * 10;
      984     7342    3                END;                       /* END CASE                           */
      985     7343    2               TO_WORD = TO_WORD + DEC_NUM;
      986     7344    2               END;
      987     7345    1           TO_WORD = TO_WORD * SIGN_NUM;
      988     7346    1           IF TO_WORD < LOW_LIM
      989     7347    1             OR TO_WORD > HIGH_LIM
      990     7348    1            THEN
PL6.E3A0      #010=VPD$DECI_MUNGE File=VPD$UTIL.:E05TSI                          WED 07/30/97 07:28 Page:245
      991     7349    1              GOTO BAD_DECIMAL;
      992     7350    1           RETURN;
      993     7351        /**/
      994     7352    1   BAD_DECIMAL: ;
      995     7353    1           ALTRETURN;
      996     7354        /**/
      997     7355    1   END VPD$DECI_MUNGE;
      998     7356        %EOD;

PL6.E3A0      #010=VPD$DECI_MUNGE File=VPD$UTIL.:E05TSI                          WED 07/30/97 07:28 Page:246
--  Include file information  --

   B_MICROPS_C.:E05TOU  is referenced.
   XU_MACRO_C.:E05TOU  is referenced.
   VP_MACRO_C.:E05TOU  is referenced.
   XS_MACRO_C.:E05TOU  is referenced.
   VP_PERR_C.:E05TOU  is referenced.
   CP_6_SUBS.:E05TOU  is referenced.
   CP_6.:E05TOU  cannot be made into a system file and is referenced.
   VP_DATA_R.:E05TOU  cannot be made into a system file and is referenced.
   B$JIT_C.:E05TOU  was found in the system file and is never referenced.
   CP_6_C.:E05TOU  was found in the system file and is referenced.
      No diagnostics issued in procedure VPD$DECI_MUNGE.

   Procedure VPD$DECI_MUNGE requires 84 words for executable code.
   Procedure VPD$DECI_MUNGE requires 14 words of local(AUTO) storage.

PL6.E3A0      #010=VPD$DECI_MUNGE File=VPD$UTIL.:E05TSI                          WED 07/30/97 07:28 Page:247

 Object Unit name= VPD$DECI_MUNGE                             File name= VPD$UTIL.:E05TOU
 UTS= JUL 30 '97 07:28:27.04 WED                              Compiler= PL-6/E31         Sev=      00
 SharedLib= :SHARED_SYSTEM                                    Alt SharedLib=


    ****  Control sections  ****

 Sect   Type Bound  Init  Size OctSiz  Section name(segment info)
    0   DCB   even  none     0      0  M$UC
    1   DCB   even  none     0      0  M$EI
    2   DCB   even  none     0      0  M$EO
    3   DCB   even  none     0      0  M$EO1
    4   DCB   even  none     0      0  M$ME
    5   DCB   even  none     0      0  M$SI
    6   DCB   even  none     0      0  M$READFILE
    7   DCB   even  none     0      0  M$DO
    8   DCB   even  none     0      0  M$STD1
    9   DCB   even  none     0      0  M$SORT1
   10   Proc  even  none    84    124  VPD$DECI_MUNGE
   11  RoData even  none     4      4  VPD$DECI_MUNGE

    ****  Entry defs  ****

                              Check   Calling
                             calling  sequence
  Sect OctLoc Primary Altret sequence   type   Parms  Name
    10      0   yes    yes     yes      Std        4  VPD$DECI_MUNGE
PL6.E3A0      #010=VPD$DECI_MUNGE File=VPD$UTIL.:E05TSI                          WED 07/30/97 07:28 Page:248

  ****  Entry refs  ****

         Check        Calling
        calling       sequence
Altret sequence SRef   type   Args  Name
 yes     yes           Std       4 VPD$TEXTC_CHARBIN
                       nStd      0 X66_AUTO_4
                       Std       0 B_CONSPOOL_D
                       nStd      0 X66_ARET
                       nStd      0 X66_AALT

  ****  Data refs  ****

  Flags:  r = read only, s = secondary
Flgs Name                             Flgs Name                             Flgs Name
     M$UC                                  BREAK_LOC                             BREAK_MESSAGE_REPORTER
     SPEC_BUF                              IN_RES                                M$EI
     M$EO                                  M$EO1                                 M$ME
     M$SI                                  M$READFILE                            M$DO
     M$STD1                                M$SORT1                               B_VECTNIL

  ****  Segment refs  ****

  Flags:  r = read only, s = secondary
Flgs Name                             Flgs Name                             Flgs Name
     ISSID
PL6.E3A0      #010=VPD$DECI_MUNGE File=VPD$UTIL.:E05TSI                          WED 07/30/97 07:28 Page:249


      917        1        /*T***********************************************************/
      918        2        /*T*                                                         */
      919        3        /*T* Copyright (c) Bull HN Information Systems Inc., 1997    */
      920        4        /*T*                                                         */
      921        5        /*T***********************************************************/
      922        6        VPD$DECI_MUNGE: PROC(DEC_BLOCK$,LOW_LIM,HIGH_LIM,TO_WORD) ALTRET;

      6 10 000000   000000 700200 xent  VPD$DECI_MU* TSX0  ! X66_AUTO_4
        10 000001   000016 000004                    ZERO    14,4

      923        7        /*I* NAME: VPD$DECI_MUNGE
      924        8             PURPOSE: To process a parse node for a possible decimal number.
      925        9             CALL: CALL VPD$DECI_MUNGE(DEC_BLOCK$,TO_WORD) ALTRET(ERROR);
      926       10             DESCRIPTION: This procedure converts a decimal number into a
      927       11                   WORD integer, shifted over to give room for the decimal.
      928       12
      929       13                   In the event of an error, we ALTRET without printing any
      930       14                   kind of message.
      931       15        */
      932       16        /**/
      933       17        /*  PARAMETERS  */
      934       18        /**/
      935       19    1   DCL DEC_BLOCK$ PTR;
      936       20    1   DCL TO_WORD SBIN WORD;
      937       21    1   DCL LOW_LIM SBIN WORD;
      938       22    1   DCL HIGH_LIM SBIN WORD;
      939       23        /**/
      940       24        /* INCLUDE FILES  */
      941       25        /**/
      942       26        %INCLUDE VP_DATA_R;
      943     7013        /**/
      944     7014        /*  BASED  */
      945     7015        /**/
      946     7016        %PARSE$OUT(NAME = OUT$BLK,STCLASS = BASED);
      947     7061        %PARSE$SYM(NAME = OUT$SYM,STCLASS = BASED);
      948     7099    1   DCL 1 TEXT$C BASED,
PL6.E3A0      #010=VPD$DECI_MUNGE File=VPD$UTIL.:E05TSI                          WED 07/30/97 07:28 Page:250
      949     7100    1         2 LEN UBIN BYTE UNAL,
      950     7101    1         2 STRING CHAR(TEXT$C.LEN);
      951     7102        /**/
      952     7103        /*  LOCAL AUTO  */
      953     7104        /**/
      954     7105    1   DCL DEC$ PTR;
      955     7106    1   DCL DEC_NUM SBIN WORD;
      956     7107    1   DCL SIGN_NUM SBIN WORD;
      957     7108        /**/
      958     7109        /*  ENTRY DCLS  */
      959     7110        /**/
      960     7111        %VP_ENTRIES (OMIT=VPD$DECI_MUNGE);
      961     7319        /**/
      962     7320    1           DEC$ = DEC_BLOCK$->OUT$BLK.SUBLK$(0);

   7320 10 000002   200003 470500                    LDP0    @DEC_BLOCK$,,AUTO
        10 000003   000000 471500                    LDP1    0,,PR0
        10 000004   100003 236100                    LDQ     3,,PR1
        10 000005   200007 756100                    STQ     DEC$,,AUTO

      963     7321    1           SIGN_NUM = 1;

   7321 10 000006   000001 235007                    LDA     1,DL
        10 000007   200011 755100                    STA     SIGN_NUM,,AUTO

      964     7322    1           IF DEC$->OUT$BLK.CODE = 100

   7322 10 000010   200007 471500                    LDP1    DEC$,,AUTO
        10 000011   100000 720100                    LXL0    0,,PR1
        10 000012   000144 100003                    CMPX0   100,DU
        10 000013   000042 601000 10                 TNZ     s:7331

      965     7323    1            THEN
      966     7324    2            DO;

      967     7325    2               CALL VPD$TEXTC_CHARBIN(DEC_NUM,

PL6.E3A0      #010=VPD$DECI_MUNGE File=VPD$UTIL.:E05TSI                          WED 07/30/97 07:28 Page:251
   7325 10 000014   200011 633500                    EPPR3   SIGN_NUM,,AUTO
        10 000015   200015 453500                    STP3    SIGN_NUM+4,,AUTO
        10 000016   000001 236000 11                 LDQ     1
        10 000017   200014 756100                    STQ     SIGN_NUM+3,,AUTO
        10 000020   200007 236100                    LDQ     DEC$,,AUTO
        10 000021   000003 036003                    ADLQ    3,DU
        10 000022   200013 756100                    STQ     SIGN_NUM+2,,AUTO
        10 000023   200010 634500                    EPPR4   DEC_NUM,,AUTO
        10 000024   200012 454500                    STP4    SIGN_NUM+1,,AUTO
        10 000025   200012 630500                    EPPR0   SIGN_NUM+1,,AUTO
        10 000026   000022 631400 xsym               EPPR1   B_VECTNIL+18
        10 000027   000000 701000 xent               TSX1    VPD$TEXTC_CHARBIN
        10 000030   000123 702000 10                 TSX2    BAD_DECIMAL

      968     7326    2                 DEC$ -> OUT$BLK.SUBLK$(0),
      969     7327    2                 99999,SIGN_NUM) ALTRET(BAD_DECIMAL);
      970     7328    2               TO_WORD = DEC_NUM*1000;

   7328 10 000031   200006 470500                    LDP0    @TO_WORD,,AUTO
        10 000032   200010 236100                    LDQ     DEC_NUM,,AUTO
        10 000033   001750 402007                    MPY     1000,DL
        10 000034   000000 756100                    STQ     0,,PR0

      971     7329    2               DEC$ = DEC_BLOCK$->OUT$BLK.SUBLK$(DEC_BLOCK$->OUT$BLK.NSUBLKS-1);

   7329 10 000035   200003 471500                    LDP1    @DEC_BLOCK$,,AUTO
        10 000036   100000 473500                    LDP3    0,,PR1
        10 000037   300001 220100                    LDX0    1,,PR3
        10 000040   300002 236110                    LDQ     2,X0,PR3
        10 000041   200007 756100                    STQ     DEC$,,AUTO

      972     7330    2               END;

      973     7331    1           IF DEC$->OUT$BLK.CODE = 101

   7331 10 000042   200007 470500                    LDP0    DEC$,,AUTO
        10 000043   000000 720100                    LXL0    0,,PR0
PL6.E3A0      #010=VPD$DECI_MUNGE File=VPD$UTIL.:E05TSI                          WED 07/30/97 07:28 Page:252
        10 000044   000145 100003                    CMPX0   101,DU
        10 000045   000110 601000 10                 TNZ     s:7345

      974     7332    1            THEN
      975     7333    2            DO;

      976     7334    2               CALL VPD$TEXTC_CHARBIN(DEC_NUM,

   7334 10 000046   000003 236000 11                 LDQ     3
        10 000047   200014 756100                    STQ     SIGN_NUM+3,,AUTO
        10 000050   200007 236100                    LDQ     DEC$,,AUTO
        10 000051   000003 036003                    ADLQ    3,DU
        10 000052   200013 756100                    STQ     SIGN_NUM+2,,AUTO
        10 000053   200010 631500                    EPPR1   DEC_NUM,,AUTO
        10 000054   200012 451500                    STP1    SIGN_NUM+1,,AUTO
        10 000055   200012 630500                    EPPR0   SIGN_NUM+1,,AUTO
        10 000056   000021 631400 xsym               EPPR1   B_VECTNIL+17
        10 000057   000000 701000 xent               TSX1    VPD$TEXTC_CHARBIN
        10 000060   000123 702000 10                 TSX2    BAD_DECIMAL

      977     7335    2                 DEC$->OUT$BLK.SUBLK$(0),
      978     7336    2                 999) ALTRET(BAD_DECIMAL);
      979     7337    3               DO CASE(DEC$->OUT$BLK.SUBLK$(0)->TEXT$C.LEN);

   7337 10 000061   200007 470500                    LDP0    DEC$,,AUTO
        10 000062   000003 471500                    LDP1    3,,PR0
        10 000063   000100 101500                    MRL     fill='000'O
        10 000064   100000 000001                    ADSC9   0,,PR1                   cn=0,n=1
        10 000065   200012 000002                    ADSC9   SIGN_NUM+1,,AUTO         cn=0,n=2
        10 000066   200012 220100                    LDX0    SIGN_NUM+1,,AUTO
        10 000067   000003 100003                    CMPX0   3,DU
        10 000070   000072 602010 10                 TNC     s:7337+9,X0
        10 000071   000104 710000 10                 TRA     s:7343
        10 000072   000104 710000 10                 TRA     s:7343
        10 000073   000075 710000 10                 TRA     s:7339
        10 000074   000101 710000 10                 TRA     s:7341

PL6.E3A0      #010=VPD$DECI_MUNGE File=VPD$UTIL.:E05TSI                          WED 07/30/97 07:28 Page:253
      980     7338    3                CASE(1);

      981     7339    3                  DEC_NUM = DEC_NUM * 100;

   7339 10 000075   200010 236100                    LDQ     DEC_NUM,,AUTO
        10 000076   000144 402007                    MPY     100,DL
        10 000077   200010 756100                    STQ     DEC_NUM,,AUTO
        10 000100   000104 710000 10                 TRA     s:7343

      982     7340    3                CASE(2);

      983     7341    3                  DEC_NUM = DEC_NUM * 10;

   7341 10 000101   200010 236100                    LDQ     DEC_NUM,,AUTO
        10 000102   000012 402007                    MPY     10,DL
        10 000103   200010 756100                    STQ     DEC_NUM,,AUTO

      984     7342    3                END;                       /* END CASE                           */

      985     7343    2               TO_WORD = TO_WORD + DEC_NUM;

   7343 10 000104   200006 471500                    LDP1    @TO_WORD,,AUTO
        10 000105   100000 236100                    LDQ     0,,PR1
        10 000106   200010 036100                    ADLQ    DEC_NUM,,AUTO
        10 000107   100000 756100                    STQ     0,,PR1

      986     7344    2               END;

      987     7345    1           TO_WORD = TO_WORD * SIGN_NUM;

   7345 10 000110   200006 471500                    LDP1    @TO_WORD,,AUTO
        10 000111   100000 236100                    LDQ     0,,PR1
        10 000112   200011 402100                    MPY     SIGN_NUM,,AUTO
        10 000113   100000 756100                    STQ     0,,PR1

      988     7346    1           IF TO_WORD < LOW_LIM

PL6.E3A0      #010=VPD$DECI_MUNGE File=VPD$UTIL.:E05TSI                          WED 07/30/97 07:28 Page:254
   7346 10 000114   200004 473500                    LDP3    @LOW_LIM,,AUTO
        10 000115   300000 116100                    CMPQ    0,,PR3
        10 000116   000123 604000 10                 TMI     BAD_DECIMAL
        10 000117   200005 474500                    LDP4    @HIGH_LIM,,AUTO
        10 000120   400000 116100                    CMPQ    0,,PR4
        10 000121   000123 605400 10                 TPNZ    BAD_DECIMAL

      989     7347    1             OR TO_WORD > HIGH_LIM
      990     7348    1            THEN
      991     7349    1              GOTO BAD_DECIMAL;
      992     7350    1           RETURN;

   7350 10 000122   000000 702200 xent               TSX2  ! X66_ARET

   7346 10 000123                       BAD_DECIMAL  null
      993     7351        /**/
      994     7352    1   BAD_DECIMAL: ;
      995     7353    1           ALTRETURN;

   7353 10 000123   000000 702200 xent               TSX2  ! X66_AALT
      996     7354        /**/
      997     7355    1   END VPD$DECI_MUNGE;
      998     7356        %EOD;

PL6.E3A0      #010=VPD$DECI_MUNGE File=VPD$UTIL.:E05TSI                          WED 07/30/97 07:28 Page:255
--  Include file information  --

   B_MICROPS_C.:E05TOU  is referenced.
   XU_MACRO_C.:E05TOU  is referenced.
   VP_MACRO_C.:E05TOU  is referenced.
   XS_MACRO_C.:E05TOU  is referenced.
   VP_PERR_C.:E05TOU  is referenced.
   CP_6_SUBS.:E05TOU  is referenced.
   CP_6.:E05TOU  cannot be made into a system file and is referenced.
   VP_DATA_R.:E05TOU  cannot be made into a system file and is referenced.
   B$JIT_C.:E05TOU  was found in the system file and is never referenced.
   CP_6_C.:E05TOU  was found in the system file and is referenced.
      No diagnostics issued in procedure VPD$DECI_MUNGE.
PL6.E3A0      #010=VPD$DECI_MUNGE File=VPD$UTIL.:E05TSI                          WED 07/30/97 07:28 Page:256

 **** Variables and constants ****

  ****  Auto variables  ****

  ****  Scalars and arrays  ****
OctLoc.c.b A Datatyp(siz) R M Lvl/name                 OctLoc.c.b A Datatyp(siz) R M Lvl/name

     3-0-0/w PTR         r     1 @DEC_BLOCK$                5-0-0/w PTR         r     1 @HIGH_LIM
     4-0-0/w PTR         r     1 @LOW_LIM                   6-0-0/w PTR         r     1 @TO_WORD
     7-0-0/w PTR         r     1 DEC$                      *0-0-0/w PTR         r     1 DEC_BLOCK$
    10-0-0/w SBIN        r     1 DEC_NUM                   *0-0-0/w SBIN        r     1 HIGH_LIM
    *0-0-0/w SBIN        r     1 LOW_LIM                   11-0-0/w SBIN        r     1 SIGN_NUM
    *0-0-0/w SBIN        r     1 TO_WORD

  ****  SYMREF variables  ****

  ****  Scalars and arrays  ****
OctLoc.c.b A Datatyp(siz) R M Lvl/name                 OctLoc.c.b A Datatyp(siz) R M Lvl/name

     0-0-0/w EPTR        r     1 BREAK_MESSAGE_REPORTER

  ****  BASED and DCB variables  ****

  ****  Scalars and arrays  ****
OctLoc.c.b A Datatyp(siz) R M Lvl/name                 OctLoc.c.b A Datatyp(siz) R M Lvl/name

     0-0-0/w STRC(144)   r     1 OUT$BLK                    0-0-0/w ASTR(153)   r     1 OUT$SYM
     0-0-0/c ASTR(9)     r     1 TEXT$C


   Procedure VPD$DECI_MUNGE requires 84 words for executable code.
   Procedure VPD$DECI_MUNGE requires 14 words of local(AUTO) storage.
PL6.E3A0      #010=VPD$DECI_MUNGE File=VPD$UTIL.:E05TSI                          WED 07/30/97 07:28 Page:257
          *** CROSS REFERENCE LISTING ***
**     DENOTES     IDENTIFIER DEFINITION
<<                 IDENTIFIER'S VALUE SET
>>                 IDENTIFIER'S VALUE USED
<>                 IDENTIFIER SET AND/OR USED
--                 IDENTIFIER REFERENCED
PL6.E3A0      #010=VPD$DECI_MUNGE File=VPD$UTIL.:E05TSI                          WED 07/30/97 07:28 Page:258
          MINI XREF LISTING

BAD_DECIMAL
      7346**LABEL    7325--CALLALT  7334--CALLALT  7349--GOTO
BREAK_LOC
      5233**DCL      5233--REDEF
DEC$
      7105**DCL      7320<<ASSIGN   7322>>IF       7325>>CALL     7329<<ASSIGN   7331>>IF       7334>>CALL
      7337>>DOCASE
DEC_BLOCK$
        19**DCL         6--PROC     7320>>ASSIGN   7329>>ASSIGN   7329>>ASSIGN
DEC_NUM
      7106**DCL      7325<>CALL     7328>>ASSIGN   7334<>CALL     7339<<ASSIGN   7339>>ASSIGN   7341<<ASSIGN
      7341>>ASSIGN   7343>>ASSIGN
DEF_ICB.FID.STRING
      5831**DCL      5832--REDEF
DEV_ICB.FID.STRING
      5717**DCL      5718--REDEF
EI_KEY.KEY
      5929**DCL      5929--REDEF    5929--REDEF    5929--REDEF
EO_OCB.TYPE
      5429**DCL      5430--REDEF
FPT_CLOSE_EI.SN_
      6770**DCL      6770--REDEF
FPT_CLOSE_EI.UTL_
      6771**DCL      6771--REDEF
FPT_CLOSE_EI.V.EXPIRE#
      6785**DCL      6785--REDEF
FPT_CLOSE_EI.V.TYPE#
      6783**DCL      6783--REDEF
FPT_CLOSE_EI.V.XTNSIZE#
      6780**DCL      6780--REDEF    6782--REDEF
FPT_CLOSE_PTL.SN_
      6896**DCL      6896--REDEF
PL6.E3A0      #010=VPD$DECI_MUNGE File=VPD$UTIL.:E05TSI                          WED 07/30/97 07:28 Page:259
FPT_CLOSE_PTL.UTL_
      6897**DCL      6897--REDEF
FPT_CLOSE_PTL.V.EXPIRE#
      6911**DCL      6911--REDEF
FPT_CLOSE_PTL.V.TYPE#
      6909**DCL      6909--REDEF
FPT_CLOSE_PTL.V.XTNSIZE#
      6906**DCL      6906--REDEF    6908--REDEF
FPT_CLOSE_READ.SN_
      6812**DCL      6812--REDEF
FPT_CLOSE_READ.UTL_
      6813**DCL      6813--REDEF
FPT_CLOSE_READ.V.EXPIRE#
      6827**DCL      6827--REDEF
FPT_CLOSE_READ.V.TYPE#
      6825**DCL      6825--REDEF
FPT_CLOSE_READ.V.XTNSIZE#
      6822**DCL      6822--REDEF    6824--REDEF
FPT_CLOSE_SI.SN_
      6980**DCL      6980--REDEF
FPT_CLOSE_SI.UTL_
      6981**DCL      6981--REDEF
FPT_CLOSE_SI.V.EXPIRE#
      6995**DCL      6995--REDEF
FPT_CLOSE_SI.V.TYPE#
      6993**DCL      6993--REDEF
FPT_CLOSE_SI.V.XTNSIZE#
      6990**DCL      6990--REDEF    6992--REDEF
FPT_CLOSE_STD.SN_
      6938**DCL      6938--REDEF
FPT_CLOSE_STD.UTL_
      6939**DCL      6939--REDEF
FPT_CLOSE_STD.V.EXPIRE#
      6953**DCL      6953--REDEF
FPT_CLOSE_STD.V.TYPE#
      6951**DCL      6951--REDEF
PL6.E3A0      #010=VPD$DECI_MUNGE File=VPD$UTIL.:E05TSI                          WED 07/30/97 07:28 Page:260
FPT_CLOSE_STD.V.XTNSIZE#
      6948**DCL      6948--REDEF    6950--REDEF
FPT_CLSEI_FT.SN_
      6854**DCL      6854--REDEF
FPT_CLSEI_FT.UTL_
      6855**DCL      6855--REDEF
FPT_CLSEI_FT.V.EXPIRE#
      6869**DCL      6869--REDEF
FPT_CLSEI_FT.V.TYPE#
      6867**DCL      6867--REDEF
FPT_CLSEI_FT.V.XTNSIZE#
      6864**DCL      6864--REDEF    6866--REDEF
FPT_OPEN_EI.ACSVEH_
      6425**DCL      6426--REDEF
FPT_OPEN_EI.ALTKEYS_
      6431**DCL      6432--REDEF    6432--REDEF
FPT_OPEN_EI.HDR_
      6430**DCL      6431--REDEF
FPT_OPEN_EI.TAB_
      6429**DCL      6430--REDEF
FPT_OPEN_EI.UHL_
      6423**DCL      6424--REDEF    6424--REDEF
FPT_OPEN_EI.V.FSN#
      6463**DCL      6463--REDEF    6463--REDEF
FPT_OPEN_EI.WSN_
      6429**DCL      6429--REDEF
FPT_OPEN_EI_SAVE.ACSVEH_
      6534**DCL      6535--REDEF
FPT_OPEN_EI_SAVE.ALTKEYS_
      6540**DCL      6541--REDEF    6541--REDEF
FPT_OPEN_EI_SAVE.HDR_
      6539**DCL      6540--REDEF
FPT_OPEN_EI_SAVE.TAB_
      6538**DCL      6539--REDEF
FPT_OPEN_EI_SAVE.UHL_
      6532**DCL      6533--REDEF    6533--REDEF
PL6.E3A0      #010=VPD$DECI_MUNGE File=VPD$UTIL.:E05TSI                          WED 07/30/97 07:28 Page:261
FPT_OPEN_EI_SAVE.V.FSN#
      6572**DCL      6572--REDEF    6572--REDEF
FPT_OPEN_EI_SAVE.WSN_
      6538**DCL      6538--REDEF
FPT_OPEN_OUT.ACSVEH_
      6316**DCL      6317--REDEF
FPT_OPEN_OUT.ALTKEYS_
      6322**DCL      6323--REDEF    6323--REDEF
FPT_OPEN_OUT.HDR_
      6321**DCL      6322--REDEF
FPT_OPEN_OUT.TAB_
      6320**DCL      6321--REDEF
FPT_OPEN_OUT.UHL_
      6314**DCL      6315--REDEF    6315--REDEF
FPT_OPEN_OUT.V.FSN#
      6354**DCL      6354--REDEF    6354--REDEF
FPT_OPEN_OUT.WSN_
      6320**DCL      6320--REDEF
FPT_OPEN_OUT_SAVE.ACSVEH_
      6207**DCL      6208--REDEF
FPT_OPEN_OUT_SAVE.ALTKEYS_
      6213**DCL      6214--REDEF    6214--REDEF
FPT_OPEN_OUT_SAVE.HDR_
      6212**DCL      6213--REDEF
FPT_OPEN_OUT_SAVE.TAB_
      6211**DCL      6212--REDEF
FPT_OPEN_OUT_SAVE.UHL_
      6205**DCL      6206--REDEF    6206--REDEF
FPT_OPEN_OUT_SAVE.V.FSN#
      6245**DCL      6245--REDEF    6245--REDEF
FPT_OPEN_OUT_SAVE.WSN_
      6211**DCL      6211--REDEF
FPT_READ_STD.STATION_
      6635**DCL      6636--REDEF
FPT_READ_STD.V.DVBYTE.REREAD#
      6647**DCL      6647--REDEF
PL6.E3A0      #010=VPD$DECI_MUNGE File=VPD$UTIL.:E05TSI                          WED 07/30/97 07:28 Page:262
FPT_READ_STD.V.INDX#
      6645**DCL      6645--REDEF
FPT_READ_UC.STATION_
      6596**DCL      6597--REDEF
FPT_READ_UC.V.DVBYTE.REREAD#
      6608**DCL      6608--REDEF
FPT_READ_UC.V.INDX#
      6606**DCL      6606--REDEF
FPT_WRITE_ME.STATION_
      6704**DCL      6704--REDEF
FPT_WRITE_ME.V.DVBYTE.VFC#
      6711**DCL      6711--REDEF
FPT_WRITE_OUT.STATION_
      6735**DCL      6735--REDEF
FPT_WRITE_OUT.V.DVBYTE.VFC#
      6742**DCL      6742--REDEF
FPT_WRITE_UC.STATION_
      6673**DCL      6673--REDEF
FPT_WRITE_UC.V.DVBYTE.VFC#
      6680**DCL      6680--REDEF
FROM_SN.SN
      5579**DCL      5580--REDEF
GETCMD.OUT$
      4786**DCL      4792--REDEF
HIGH_LIM
        22**DCL         6--PROC     7346>>IF
ICB.FID.STRING
      5603**DCL      5604--REDEF
IFSFA_PARAM.EOMCHAR#
      5958**DCL      5959--REDEF
IFSFA_PARAM.SIG1
      5952**DCL      5952--REDEF
IFSFA_PARAM.SIG2
      5952**DCL      5953--REDEF
IN_RES
      5525**DCL      5525--REDEF
PL6.E3A0      #010=VPD$DECI_MUNGE File=VPD$UTIL.:E05TSI                          WED 07/30/97 07:28 Page:263
IN_SN.SN
      5541**DCL      5542--REDEF
LOW_LIM
        21**DCL         6--PROC     7346>>IF
OCB.TYPE
      5287**DCL      5288--REDEF
OFSFA_PARAM.EOMCHAR#
      5988**DCL      5989--REDEF
OFSFA_PARAM.SIG1
      5982**DCL      5982--REDEF
OFSFA_PARAM.SIG2
      5982**DCL      5983--REDEF
OUT$BLK.CODE
      7030**DCL      7322>>IF       7331>>IF
OUT$BLK.NSUBLKS
      7034**DCL      7329>>ASSIGN
OUT$BLK.SUBLK$
      7055**DCL      7320>>ASSIGN   7325<>CALL     7329>>ASSIGN   7334<>CALL     7337>>DOCASE
OUT$SYM.COUNT
      7091**DCL      7094--IMP-SIZ
OUT_SN.SN
      5559**DCL      5560--REDEF
SIGN_NUM
      7107**DCL      7321<<ASSIGN   7325<>CALL     7345>>ASSIGN
SPEC_BUF
      5237**DCL      5237--REDEF
TEXT$C.LEN
      7100**DCL      7101--IMP-SIZ  7337>>DOCASE
TO_WORD
        20**DCL         6--PROC     7328<<ASSIGN   7343<<ASSIGN   7343>>ASSIGN   7345<<ASSIGN   7345>>ASSIGN
      7346>>IF       7346>>IF
VPD$TEXTC_CHARBIN
      7193**DCL-ENT  7325--CALL     7334--CALL

PL6.E3A0      #011=VPD$ENLARGE_BUF File=VPD$UTIL.:E05TSI                         WED 07/30/97 07:29 Page:264
      999        1        /*T***********************************************************/
     1000        2        /*T*                                                         */
     1001        3        /*T* Copyright (c) Bull HN Information Systems Inc., 1997    */
     1002        4        /*T*                                                         */
     1003        5        /*T***********************************************************/
     1004        6        VPD$ENLARGE_BUF: PROC(PAGES);
     1005        7        /*D* NAME: VPD$ENLARGE_BUF
     1006        8             CALL: CALL VPD$ENLARGE_BUF(PAGES);
     1007        9             DESCRIPTION: This procedure sets the size of the
     1008       10                          in-out buffer to PAGES pages. If PAGES=0,
     1009       11                          the buffer is doubled instead.
     1010       12                          The vector framing the resulting data space is RES.BUF_VECTOR
     1011       13                          but this vector is altered to not include the first 6 words
     1012       14                          (for later possible insertion of key text and/or room for
     1013       15                          FT data movement to insure that the record ends on a word
     1014       16                          boundary...ain't the IOM wonderful?). modified vector is
     1015       17                          IN_BUF_VECTOR.
     1016       18        */
     1017       19    1   DCL PAGES SBIN WORD;
     1018       20        %INCLUDE VP_DATA_R;
     1019     7007        %INCLUDE B_ERRORS_C;
     1020     8134        %B$TCB;
     1021     8137        %B$ALT;
     1022     8145        %FPT_GDP(FPTN = FPT_GDP_FDP,
     1023     8146                 RESULTS = NEW_VECTOR,
     1024     8147                 STCLASS = STATIC);
     1025     8161        %FPT_GDDL(FPTN = FPT_GDDL,
     1026     8162                  RESULTS = RES,
     1027     8163                  STCLASS = CONSTANT);
     1028     8176    1   DCL 1 RES STATIC,
     1029     8177    1         2 BUF_VECTOR,
     1030     8178    1           3 BOUND UBIN(20) UNAL,
     1031     8179    1           3 * BIT(16) UNAL,
     1032     8180    1           3 PTR$ PTR,
     1033     8181    1         2 * SBIN WORD;
     1034     8182    1   DCL 1 NEW_VECTOR STATIC,
     1035     8183    1         2 BOUND UBIN(20) UNAL,
PL6.E3A0      #011=VPD$ENLARGE_BUF File=VPD$UTIL.:E05TSI                         WED 07/30/97 07:29 Page:265
     1036     8184    1         2 * BIT(16) UNAL,
     1037     8185    1         2 PTR$ PTR;
     1038     8186    1   DCL PAGES_REQUIRED SBIN;
     1039     8187        %VP_ENTRIES (OMIT=VPD$ENLARGE_BUF);
     1040     8395    1           GOTO START;
     1041     8396
     1042     8397    1   VPD$INIT_BUF: ENTRY;
     1043     8398        /*D* NAME: VPD$INIT_BUF
     1044     8399             CALL: CALL VPD$INIT_BUF;
     1045     8400             DESCRIPTION: This procedure initializes the in/out buffer to MIN_PAGES pages
     1046     8401        */
     1047     8402    1           CALL M$GDDL(FPT_GDDL);
     1048     8403    1           RES.BUF_VECTOR.BOUND = 0;
     1049     8404    1           RES.BUF_VECTOR.BOUND = RES.BUF_VECTOR.BOUND -1; /* Set to bump t'zero */
     1050     8405    1           PAGES_REQUIRED = MIN_PAGES;
     1051     8406    1           GOTO CALL_GDP;
     1052     8407
     1053     8408    1   START:  IF PAGES=0
     1054     8409    1            THEN                           /* Double current buffer              */
     1055     8410    1              PAGES_REQUIRED = (RES.BUF_VECTOR.BOUND+1)/4096;
     1056     8411    1            ELSE                           /* Expand size to PAGES               */
     1057     8412    1              PAGES_REQUIRED = PAGES - (RES.BUF_VECTOR.BOUND+1)/4096;
     1058     8413    1           IF PAGES_REQUIRED <= 0
     1059     8414    1            THEN                           /* No additional pages required       */
     1060     8415    1              RETURN;                      /* Just go back                       */
     1061     8416    1   CALL_GDP: FPT_GDP_FDP.V.PAGES# = PAGES_REQUIRED;
     1062     8417    1           CALL M$GDP(FPT_GDP_FDP) ALTRET(GDP_ALT);
     1063     8418    1   OK:     RES.BUF_VECTOR.BOUND = RES.BUF_VECTOR.BOUND+NEW_VECTOR.BOUND+1;
     1064     8419    1           GOTO COMMON;
     1065     8420        %EJECT;
PL6.E3A0      #011=VPD$ENLARGE_BUF File=VPD$UTIL.:E05TSI                         WED 07/30/97 07:29 Page:266
     1066     8421    1   VPD$MINIMIZE_BUF: ENTRY;
     1067     8422        /*D* NAME: VPD$MINIMIZE_BUF
     1068     8423             CALL: CALL VPD$MINIMIZE_BUF;
     1069     8424             DESCRIPTION: This entry point lies inside ENLARGE_BUF and simply dumps
     1070     8425                          excess buffer pages until there are only MIN_PAGES left.
     1071     8426        */
     1072     8427    1           IF RES.BUF_VECTOR.BOUND>MIN_PAGES*4096-1
     1073     8428    1            THEN
     1074     8429    2            DO;
     1075     8430    2               FPT_GDP_FDP.V.PAGES# = (RES.BUF_VECTOR.BOUND+1)/4096 - MIN_PAGES;
     1076     8431    2               CALL M$FDP(FPT_GDP_FDP) ALTRET(FDP_ALT);
     1077     8432    2               RES.BUF_VECTOR = NEW_VECTOR;
     1078     8433    2               END;
     1079     8434    1   COMMON: ;
     1080     8435        /**/
     1081     8436        /*  Insert some slack so we can format keys and stuff without enlarging the   */
     1082     8437        /*  buffer and shoving everything over.                                       */
     1083     8438        /**/
     1084     8439    1           ACTUAL_IN_BUF_VECTOR = RES.BUF_VECTOR;
     1085     8440    1           IN_BUF_VECTOR = RES.BUF_VECTOR;
     1086     8441    1           IN_BUF_VECTOR.BOUND = RES.BUF_VECTOR.BOUND-24;
     1087     8442    1           IN_BUF_VECTOR.PTR$ = PINCRC(RES.BUF_VECTOR.PTR$,24);
     1088     8443    1           RETURN;
     1089     8444    1   GDP_ALT:
     1090     8445    1           IF (B$TCB$->B$TCB.ALT$->B$ALT.ERR.CODE=%E$ALLGONE OR
     1091     8446    1             B$TCB$->B$TCB.ALT$->B$ALT.ERR.CODE=%E$MEMLIMIT) AND
     1092     8447    1             NEW_VECTOR.BOUND > 0 AND PAGES_REQUIRED < 88
     1093     8448    1            THEN
     1094     8449    1              GOTO OK;                     /* AT LEAST WE GOT SOME SPACE         */
     1095     8450    1            ELSE
     1096     8451    1   FDP_ALT:   IF %VPSZ_ERR# = %E$CVMORGVP  /* Are we out of DS space?            */
     1097     8452    1                OR %VPSZ_ERR# = %E$ALLGONE
     1098     8453    1                OR %VPSZ_ERR# = %E$MEMLIMIT
     1099     8454    1               THEN
     1100     8455    2               DO;
     1101     8456    2                  USE_CONT = %YES#;
     1102     8457    2                  IF NEW_VECTOR.BOUND ~= 0
PL6.E3A0      #011=VPD$ENLARGE_BUF File=VPD$UTIL.:E05TSI                         WED 07/30/97 07:29 Page:267
     1103     8458    2                   THEN
     1104     8459    2                     GOTO OK;              /* Make sure we update RES            */
     1105     8460    2                  END;
     1106     8461    1               ELSE
     1107     8462    1                 CALL VPL$ERR_PROC(3,0);   /* Report and abort command           */
     1108     8463    1   END VPD$ENLARGE_BUF;
     1109     8464        %EOD;

PL6.E3A0      #011=VPD$ENLARGE_BUF File=VPD$UTIL.:E05TSI                         WED 07/30/97 07:29 Page:268
--  Include file information  --

   B_ERRORS_C.:E05TOU  is referenced.
   B_MICROPS_C.:E05TOU  is referenced.
   XU_MACRO_C.:E05TOU  is referenced.
   VP_MACRO_C.:E05TOU  is referenced.
   XS_MACRO_C.:E05TOU  is referenced.
   VP_PERR_C.:E05TOU  is referenced.
   CP_6_SUBS.:E05TOU  is referenced.
   CP_6.:E05TOU  cannot be made into a system file and is referenced.
   VP_DATA_R.:E05TOU  cannot be made into a system file and is referenced.
   B$JIT_C.:E05TOU  was found in the system file and is never referenced.
   CP_6_C.:E05TOU  was found in the system file and is referenced.
      No diagnostics issued in procedure VPD$ENLARGE_BUF.

   Procedure VPD$ENLARGE_BUF requires 127 words for executable code.
   Procedure VPD$ENLARGE_BUF requires 8 words of local(AUTO) storage.

PL6.E3A0      #011=VPD$ENLARGE_BUF File=VPD$UTIL.:E05TSI                         WED 07/30/97 07:29 Page:269

 Object Unit name= VPD$ENLARGE_BUF                            File name= VPD$UTIL.:E05TOU
 UTS= JUL 30 '97 07:29:23.72 WED                              Compiler= PL-6/E31         Sev=      00
 SharedLib= :SHARED_SYSTEM                                    Alt SharedLib=


    ****  Control sections  ****

 Sect   Type Bound  Init  Size OctSiz  Section name(segment info)
    0   DCB   even  none     0      0  M$UC
    1   DCB   even  none     0      0  M$EI
    2   DCB   even  none     0      0  M$EO
    3   DCB   even  none     0      0  M$EO1
    4   DCB   even  none     0      0  M$ME
    5   DCB   even  none     0      0  M$SI
    6   DCB   even  none     0      0  M$READFILE
    7   DCB   even  none     0      0  M$DO
    8   DCB   even  none     0      0  M$STD1
    9   DCB   even  none     0      0  M$SORT1
   10   Data  even  none    11     13  VPD$ENLARGE_BUF
   11  RoData even  UTS      2      2  VPD$ENLARGE_BUF
   12   Proc  even  none   127    177  VPD$ENLARGE_BUF
   13  RoData even  none     2      2  VPD$ENLARGE_BUF

    ****  Entry defs  ****

                              Check   Calling
                             calling  sequence
  Sect OctLoc Primary Altret sequence   type   Parms  Name
    12      0   yes            yes      Std        1  VPD$ENLARGE_BUF
    12      3                  yes      Std        0  VPD$INIT_BUF
    12     71                  yes      Std        0  VPD$MINIMIZE_BUF
PL6.E3A0      #011=VPD$ENLARGE_BUF File=VPD$UTIL.:E05TSI                         WED 07/30/97 07:29 Page:270

  ****  Entry refs  ****

         Check        Calling
        calling       sequence
Altret sequence SRef   type   Args  Name
         yes           Std       8 VPL$ERR_PROC
                       nStd      0 X66_AUTO_1
                       Std       0 B_CONSPOOL_D
                       nStd      0 X66_ARET

  ****  Data refs  ****

  Flags:  r = read only, s = secondary
Flgs Name                             Flgs Name                             Flgs Name
     M$UC                             r    MIN_PAGES                             USE_CONT
     BREAK_LOC                             BREAK_MESSAGE_REPORTER                SPEC_BUF
     IN_RES                                IN_BUF_VECTOR                         ACTUAL_IN_BUF_VECTOR
     M$EI                                  M$EO                                  M$EO1
     M$ME                                  M$SI                                  M$READFILE
     M$DO                                  M$STD1                                M$SORT1
     B$TCB$                                B_VECTNIL

  ****  Segment refs  ****

  Flags:  r = read only, s = secondary
Flgs Name                             Flgs Name                             Flgs Name
     ISSID
PL6.E3A0      #011=VPD$ENLARGE_BUF File=VPD$UTIL.:E05TSI                         WED 07/30/97 07:29 Page:271


      999        1        /*T***********************************************************/
     1000        2        /*T*                                                         */
     1001        3        /*T* Copyright (c) Bull HN Information Systems Inc., 1997    */
     1002        4        /*T*                                                         */
     1003        5        /*T***********************************************************/
     1004        6        VPD$ENLARGE_BUF: PROC(PAGES);

      6 12 000000   000000 700200 xent  VPD$ENLARGE* TSX0  ! X66_AUTO_1
        12 000001   000010 000001                    ZERO    8,1

     1005        7        /*D* NAME: VPD$ENLARGE_BUF
     1006        8             CALL: CALL VPD$ENLARGE_BUF(PAGES);
     1007        9             DESCRIPTION: This procedure sets the size of the
     1008       10                          in-out buffer to PAGES pages. If PAGES=0,
     1009       11                          the buffer is doubled instead.
     1010       12                          The vector framing the resulting data space is RES.BUF_VECTOR
     1011       13                          but this vector is altered to not include the first 6 words
     1012       14                          (for later possible insertion of key text and/or room for
     1013       15                          FT data movement to insure that the record ends on a word
     1014       16                          boundary...ain't the IOM wonderful?). modified vector is
     1015       17                          IN_BUF_VECTOR.
     1016       18        */
     1017       19    1   DCL PAGES SBIN WORD;
     1018       20        %INCLUDE VP_DATA_R;
     1019     7007        %INCLUDE B_ERRORS_C;
     1020     8134        %B$TCB;
     1021     8137        %B$ALT;
     1022     8145        %FPT_GDP(FPTN = FPT_GDP_FDP,
     1023     8146                 RESULTS = NEW_VECTOR,
     1024     8147                 STCLASS = STATIC);
     1025     8161        %FPT_GDDL(FPTN = FPT_GDDL,
     1026     8162                  RESULTS = RES,
     1027     8163                  STCLASS = CONSTANT);
     1028     8176    1   DCL 1 RES STATIC,
     1029     8177    1         2 BUF_VECTOR,
     1030     8178    1           3 BOUND UBIN(20) UNAL,
PL6.E3A0      #011=VPD$ENLARGE_BUF File=VPD$UTIL.:E05TSI                         WED 07/30/97 07:29 Page:272
     1031     8179    1           3 * BIT(16) UNAL,
     1032     8180    1           3 PTR$ PTR,
     1033     8181    1         2 * SBIN WORD;
     1034     8182    1   DCL 1 NEW_VECTOR STATIC,
     1035     8183    1         2 BOUND UBIN(20) UNAL,
     1036     8184    1         2 * BIT(16) UNAL,
     1037     8185    1         2 PTR$ PTR;
     1038     8186    1   DCL PAGES_REQUIRED SBIN;
     1039     8187        %VP_ENTRIES (OMIT=VPD$ENLARGE_BUF);
     1040     8395    1           GOTO START;

   8395 12 000002   000024 710000 12                 TRA     START

     1041     8396
     1042     8397    1   VPD$INIT_BUF: ENTRY;

   8397 12 000003   000000 700200 xent  VPD$INIT_BUF TSX0  ! X66_AUTO_1
        12 000004   000010 000001                    ZERO    8,1

     1043     8398        /*D* NAME: VPD$INIT_BUF
     1044     8399             CALL: CALL VPD$INIT_BUF;
     1045     8400             DESCRIPTION: This procedure initializes the in/out buffer to MIN_PAGES pages
     1046     8401        */
     1047     8402    1           CALL M$GDDL(FPT_GDDL);

   8402 12 000005   000000 630400 11                 EPPR0   FPT_GDDL
        12 000006   030014 713400                    CLIMB   12300
        12 000007   400000 401760                    pmme    nvectors=1

     1048     8403    1           RES.BUF_VECTOR.BOUND = 0;

   8403 12 000010   177777 236007                    LDQ     65535,DL
        12 000011   000006 356000 10                 ANSQ    RES

     1049     8404    1           RES.BUF_VECTOR.BOUND = RES.BUF_VECTOR.BOUND -1; /* Set to bump t'zero */

   8404 12 000012   000006 236000 10                 LDQ     RES
PL6.E3A0      #011=VPD$ENLARGE_BUF File=VPD$UTIL.:E05TSI                         WED 07/30/97 07:29 Page:273
        12 000013   000020 772000                    QRL     16
        12 000014   000001 136007                    SBLQ    1,DL
        12 000015   000020 736000                    QLS     16
        12 000016   000006 676000 10                 ERQ     RES
        12 000017   000034 376000 xsym               ANQ     B_VECTNIL+28
        12 000020   000006 656000 10                 ERSQ    RES

     1050     8405    1           PAGES_REQUIRED = MIN_PAGES;

   8405 12 000021   000000 235000 xsym               LDA     MIN_PAGES
        12 000022   200004 755100                    STA     PAGES_REQUIRED,,AUTO

     1051     8406    1           GOTO CALL_GDP;

   8406 12 000023   000047 710000 12                 TRA     CALL_GDP

     1052     8407
     1053     8408    1   START:  IF PAGES=0

   8408 12 000024   200003 470500       START        LDP0    @PAGES,,AUTO
        12 000025   000000 235100                    LDA     0,,PR0
        12 000026   000035 601000 12                 TNZ     s:8412

     1054     8409    1            THEN                           /* Double current buffer              */
     1055     8410    1              PAGES_REQUIRED = (RES.BUF_VECTOR.BOUND+1)/4096;

   8410 12 000027   000006 236000 10                 LDQ     RES
        12 000030   000020 772000                    QRL     16
        12 000031   000001 036007                    ADLQ    1,DL
        12 000032   000014 772000                    QRL     12
        12 000033   200004 756100                    STQ     PAGES_REQUIRED,,AUTO
        12 000034   000045 710000 12                 TRA     s:8413

     1056     8411    1            ELSE                           /* Expand size to PAGES               */
     1057     8412    1              PAGES_REQUIRED = PAGES - (RES.BUF_VECTOR.BOUND+1)/4096;

   8412 12 000035   000006 236000 10                 LDQ     RES
PL6.E3A0      #011=VPD$ENLARGE_BUF File=VPD$UTIL.:E05TSI                         WED 07/30/97 07:29 Page:274
        12 000036   000020 772000                    QRL     16
        12 000037   000001 036007                    ADLQ    1,DL
        12 000040   000014 772000                    QRL     12
        12 000041   200006 756100                    STQ     PAGES_REQUIRED+2,,AUTO
        12 000042   000000 236100                    LDQ     0,,PR0
        12 000043   200006 136100                    SBLQ    PAGES_REQUIRED+2,,AUTO
        12 000044   200004 756100                    STQ     PAGES_REQUIRED,,AUTO

     1058     8413    1           IF PAGES_REQUIRED <= 0

   8413 12 000045   000047 605400 12                 TPNZ    CALL_GDP

     1059     8414    1            THEN                           /* No additional pages required       */
     1060     8415    1              RETURN;                      /* Just go back                       */

   8415 12 000046   000000 702200 xent               TSX2  ! X66_ARET

     1061     8416    1   CALL_GDP: FPT_GDP_FDP.V.PAGES# = PAGES_REQUIRED;

   8416 12 000047   200004 235100       CALL_GDP     LDA     PAGES_REQUIRED,,AUTO
        12 000050   000004 755000 10                 STA     FPT_GDP_FDP+4

     1062     8417    1           CALL M$GDP(FPT_GDP_FDP) ALTRET(GDP_ALT);

   8417 12 000051   000000 630400 10                 EPPR0   FPT_GDP_FDP
        12 000052   430003 713400                    CLIMB   alt,+12291
        12 000053   400400 401760                    pmme    nvectors=2
        12 000054   000134 702000 12                 TSX2    GDP_ALT

     1063     8418    1   OK:     RES.BUF_VECTOR.BOUND = RES.BUF_VECTOR.BOUND+NEW_VECTOR.BOUND+1;

   8418 12 000055   000011 236000 10    OK           LDQ     NEW_VECTOR
        12 000056   000020 772000                    QRL     16
        12 000057   200006 756100                    STQ     PAGES_REQUIRED+2,,AUTO
        12 000060   000006 236000 10                 LDQ     RES
        12 000061   000020 772000                    QRL     16
        12 000062   200006 036100                    ADLQ    PAGES_REQUIRED+2,,AUTO
PL6.E3A0      #011=VPD$ENLARGE_BUF File=VPD$UTIL.:E05TSI                         WED 07/30/97 07:29 Page:275
        12 000063   000001 036007                    ADLQ    1,DL
        12 000064   000020 736000                    QLS     16
        12 000065   000006 676000 10                 ERQ     RES
        12 000066   000034 376000 xsym               ANQ     B_VECTNIL+28
        12 000067   000006 656000 10                 ERSQ    RES

     1064     8419    1           GOTO COMMON;

   8419 12 000070   000115 710000 12                 TRA     COMMON

     1065     8420        %EJECT;
PL6.E3A0      #011=VPD$ENLARGE_BUF File=VPD$UTIL.:E05TSI                         WED 07/30/97 07:29 Page:276
     1066     8421    1   VPD$MINIMIZE_BUF: ENTRY;

   8421 12 000071   000000 700200 xent  VPD$MINIMIZ* TSX0  ! X66_AUTO_1
        12 000072   000010 000001                    ZERO    8,1

     1067     8422        /*D* NAME: VPD$MINIMIZE_BUF
     1068     8423             CALL: CALL VPD$MINIMIZE_BUF;
     1069     8424             DESCRIPTION: This entry point lies inside ENLARGE_BUF and simply dumps
     1070     8425                          excess buffer pages until there are only MIN_PAGES left.
     1071     8426        */
     1072     8427    1           IF RES.BUF_VECTOR.BOUND>MIN_PAGES*4096-1

   8427 12 000073   000000 235000 xsym               LDA     MIN_PAGES
        12 000074   000014 735000                    ALS     12
        12 000075   200006 755100                    STA     PAGES_REQUIRED+2,,AUTO
        12 000076   000006 236000 10                 LDQ     RES
        12 000077   000020 772000                    QRL     16
        12 000100   200006 116100                    CMPQ    PAGES_REQUIRED+2,,AUTO
        12 000101   000115 604000 12                 TMI     COMMON

     1073     8428    1            THEN
     1074     8429    2            DO;

     1075     8430    2               FPT_GDP_FDP.V.PAGES# = (RES.BUF_VECTOR.BOUND+1)/4096 - MIN_PAGES;

   8430 12 000102   000001 036007                    ADLQ    1,DL
        12 000103   000014 772000                    QRL     12
        12 000104   000000 136000 xsym               SBLQ    MIN_PAGES
        12 000105   000004 756000 10                 STQ     FPT_GDP_FDP+4

     1076     8431    2               CALL M$FDP(FPT_GDP_FDP) ALTRET(FDP_ALT);

   8431 12 000106   000000 630400 10                 EPPR0   FPT_GDP_FDP
        12 000107   430004 713400                    CLIMB   alt,+12292
        12 000110   400400 401760                    pmme    nvectors=2
        12 000111   000152 702000 12                 TSX2    FDP_ALT

PL6.E3A0      #011=VPD$ENLARGE_BUF File=VPD$UTIL.:E05TSI                         WED 07/30/97 07:29 Page:277
     1077     8432    2               RES.BUF_VECTOR = NEW_VECTOR;

   8432 12 000112   000000 100400                    MLR     fill='000'O
        12 000113   000011 000010 10                 ADSC9   NEW_VECTOR               cn=0,n=8
        12 000114   000006 000010 10                 ADSC9   RES                      cn=0,n=8

     1078     8433    2               END;

   8433 12 000115                       COMMON       null
     1079     8434    1   COMMON: ;
     1080     8435        /**/
     1081     8436        /*  Insert some slack so we can format keys and stuff without enlarging the   */
     1082     8437        /*  buffer and shoving everything over.                                       */
     1083     8438        /**/
     1084     8439    1           ACTUAL_IN_BUF_VECTOR = RES.BUF_VECTOR;

   8439 12 000115   000006 237000 10                 LDAQ    RES
        12 000116   000000 757000 xsym               STAQ    ACTUAL_IN_BUF_VECTOR

     1085     8440    1           IN_BUF_VECTOR = RES.BUF_VECTOR;

   8440 12 000117   000006 237000 10                 LDAQ    RES
        12 000120   000000 757000 xsym               STAQ    IN_BUF_VECTOR

     1086     8441    1           IN_BUF_VECTOR.BOUND = RES.BUF_VECTOR.BOUND-24;

   8441 12 000121   000006 236000 10                 LDQ     RES
        12 000122   000020 772000                    QRL     16
        12 000123   000030 136007                    SBLQ    24,DL
        12 000124   000020 736000                    QLS     16
        12 000125   000000 676000 xsym               ERQ     IN_BUF_VECTOR
        12 000126   000034 376000 xsym               ANQ     B_VECTNIL+28
        12 000127   000000 656000 xsym               ERSQ    IN_BUF_VECTOR

     1087     8442    1           IN_BUF_VECTOR.PTR$ = PINCRC(RES.BUF_VECTOR.PTR$,24);

   8442 12 000130   000007 236000 10                 LDQ     RES+1
PL6.E3A0      #011=VPD$ENLARGE_BUF File=VPD$UTIL.:E05TSI                         WED 07/30/97 07:29 Page:278
        12 000131   000006 036003                    ADLQ    6,DU
        12 000132   000001 756000 xsym               STQ     IN_BUF_VECTOR+1

     1088     8443    1           RETURN;

   8443 12 000133   000000 702200 xent               TSX2  ! X66_ARET

     1089     8444    1   GDP_ALT:
     1090     8445    1           IF (B$TCB$->B$TCB.ALT$->B$ALT.ERR.CODE=%E$ALLGONE OR

   8445 12 000134   000000 470400 xsym  GDP_ALT      LDP0    B$TCB$
        12 000135   000000 471500                    LDP1    0,,PR0
        12 000136   100102 236100                    LDQ     66,,PR1
        12 000137   377770 376007                    ANQ     131064,DL
        12 000140   011340 116007                    CMPQ    4832,DL
        12 000141   000144 600000 12                 TZE     GDP_ALT+8
        12 000142   011350 116007                    CMPQ    4840,DL
        12 000143   000152 601000 12                 TNZ     FDP_ALT
        12 000144   000011 236000 10                 LDQ     NEW_VECTOR
        12 000145   000034 316000 xsym               CANQ    B_VECTNIL+28
        12 000146   000152 600000 12                 TZE     FDP_ALT
        12 000147   200004 235100                    LDA     PAGES_REQUIRED,,AUTO
        12 000150   000130 115007                    CMPA    88,DL
        12 000151   000055 604000 12                 TMI     OK

     1091     8446    1             B$TCB$->B$TCB.ALT$->B$ALT.ERR.CODE=%E$MEMLIMIT) AND
     1092     8447    1             NEW_VECTOR.BOUND > 0 AND PAGES_REQUIRED < 88
     1093     8448    1            THEN
     1094     8449    1              GOTO OK;                     /* AT LEAST WE GOT SOME SPACE         */
     1095     8450    1            ELSE
     1096     8451    1   FDP_ALT:   IF %VPSZ_ERR# = %E$CVMORGVP  /* Are we out of DS space?            */

   8451 12 000152   000000 470400 xsym  FDP_ALT      LDP0    B$TCB$
        12 000153   000000 471500                    LDP1    0,,PR0
        12 000154   100102 236100                    LDQ     66,,PR1
        12 000155   377770 376007                    ANQ     131064,DL
        12 000156   011370 116007                    CMPQ    4856,DL
PL6.E3A0      #011=VPD$ENLARGE_BUF File=VPD$UTIL.:E05TSI                         WED 07/30/97 07:29 Page:279
        12 000157   000164 600000 12                 TZE     s:8456
        12 000160   011340 116007                    CMPQ    4832,DL
        12 000161   000164 600000 12                 TZE     s:8456
        12 000162   011350 116007                    CMPQ    4840,DL
        12 000163   000172 601000 12                 TNZ     s:8462

     1097     8452    1                OR %VPSZ_ERR# = %E$ALLGONE
     1098     8453    1                OR %VPSZ_ERR# = %E$MEMLIMIT
     1099     8454    1               THEN
     1100     8455    2               DO;

     1101     8456    2                  USE_CONT = %YES#;

   8456 12 000164   400000 236003                    LDQ     -131072,DU
        12 000165   000000 756000 xsym               STQ     USE_CONT

     1102     8457    2                  IF NEW_VECTOR.BOUND ~= 0

   8457 12 000166   000011 236000 10                 LDQ     NEW_VECTOR
        12 000167   000034 316000 xsym               CANQ    B_VECTNIL+28
        12 000170   000055 601000 12                 TNZ     OK

     1103     8458    2                   THEN
     1104     8459    2                     GOTO OK;              /* Make sure we update RES            */
     1105     8460    2                  END;

   8460 12 000171   000176 710000 12                 TRA     s:8463

     1106     8461    1               ELSE
     1107     8462    1                 CALL VPL$ERR_PROC(3,0);   /* Report and abort command           */

   8462 12 000172   000000 630400 13                 EPPR0   0
        12 000173   000020 631400 xsym               EPPR1   B_VECTNIL+16
        12 000174   000000 701000 xent               TSX1    VPL$ERR_PROC
        12 000175   000000 011000                    NOP     0

     1108     8463    1   END VPD$ENLARGE_BUF;
PL6.E3A0      #011=VPD$ENLARGE_BUF File=VPD$UTIL.:E05TSI                         WED 07/30/97 07:29 Page:280

   8463 12 000176   000000 702200 xent               TSX2  ! X66_ARET
     1109     8464        %EOD;

PL6.E3A0      #011=VPD$ENLARGE_BUF File=VPD$UTIL.:E05TSI                         WED 07/30/97 07:29 Page:281
--  Include file information  --

   B_ERRORS_C.:E05TOU  is referenced.
   B_MICROPS_C.:E05TOU  is referenced.
   XU_MACRO_C.:E05TOU  is referenced.
   VP_MACRO_C.:E05TOU  is referenced.
   XS_MACRO_C.:E05TOU  is referenced.
   VP_PERR_C.:E05TOU  is referenced.
   CP_6_SUBS.:E05TOU  is referenced.
   CP_6.:E05TOU  cannot be made into a system file and is referenced.
   VP_DATA_R.:E05TOU  cannot be made into a system file and is referenced.
   B$JIT_C.:E05TOU  was found in the system file and is never referenced.
   CP_6_C.:E05TOU  was found in the system file and is referenced.
      No diagnostics issued in procedure VPD$ENLARGE_BUF.
PL6.E3A0      #011=VPD$ENLARGE_BUF File=VPD$UTIL.:E05TSI                         WED 07/30/97 07:29 Page:282

 **** Variables and constants ****

  ****  Section 010  Data  VPD$ENLARGE_BUF

  ****  Scalars and arrays  ****
OctLoc.c.b A Datatyp(siz) R M Lvl/name                 OctLoc.c.b A Datatyp(siz) R M Lvl/name

     0-0-0/d STRC(216)   r     1 FPT_GDP_FDP               11-0-0/w STRC(72)    r     1 NEW_VECTOR
     6-0-0/w STRC(108)   r     1 RES

  ****  Section 011 RoData VPD$ENLARGE_BUF

  ****  Scalars and arrays  ****
OctLoc.c.b A Datatyp(siz) R M Lvl/name                 OctLoc.c.b A Datatyp(siz) R M Lvl/name

     0-0-0/d STRC(72)    r     1 FPT_GDDL

  ****  Auto variables  ****

  ****  Scalars and arrays  ****
OctLoc.c.b A Datatyp(siz) R M Lvl/name                 OctLoc.c.b A Datatyp(siz) R M Lvl/name

     3-0-0/w PTR         r     1 @PAGES                    *0-0-0/w SBIN        r     1 PAGES
     4-0-0/w SBIN        r     1 PAGES_REQUIRED

  ****  SYMREF variables  ****

  ****  Scalars and arrays  ****
OctLoc.c.b A Datatyp(siz) R M Lvl/name                 OctLoc.c.b A Datatyp(siz) R M Lvl/name

     0-0-0/d STRC(72)    r     1 ACTUAL_IN_BUF_VECTOR       0-0-0/w PTR         r     1 B$TCB$
     0-0-0/w EPTR        r     1 BREAK_MESSAGE_REPORTER
     0-0-0/d STRC(72)    r     1 IN_BUF_VECTOR              0-0-0/w SBIN        r     1 MIN_PAGES
     0-0-0/b BIT         r     1 USE_CONT

  ****  BASED and DCB variables  ****

PL6.E3A0      #011=VPD$ENLARGE_BUF File=VPD$UTIL.:E05TSI                         WED 07/30/97 07:29 Page:283
  ****  Scalars and arrays  ****
OctLoc.c.b A Datatyp(siz) R M Lvl/name                 OctLoc.c.b A Datatyp(siz) R M Lvl/name

     0-0-0/w STRC(2448)  r     1 B$ALT                      0-0-0/w STRC(144)   r     1 B$TCB


   Procedure VPD$ENLARGE_BUF requires 127 words for executable code.
   Procedure VPD$ENLARGE_BUF requires 8 words of local(AUTO) storage.
PL6.E3A0      #011=VPD$ENLARGE_BUF File=VPD$UTIL.:E05TSI                         WED 07/30/97 07:29 Page:284
          *** CROSS REFERENCE LISTING ***
**     DENOTES     IDENTIFIER DEFINITION
<<                 IDENTIFIER'S VALUE SET
>>                 IDENTIFIER'S VALUE USED
<>                 IDENTIFIER SET AND/OR USED
--                 IDENTIFIER REFERENCED
PL6.E3A0      #011=VPD$ENLARGE_BUF File=VPD$UTIL.:E05TSI                         WED 07/30/97 07:29 Page:285
          MINI XREF LISTING

ACTUAL_IN_BUF_VECTOR
      5922**DCL      8439<<ASSIGN
B$ALT.CODE
      8139**DCL      8139--REDEF    8140--REDEF    8140--REDEF
B$ALT.ERR.CODE
      8141**DCL      8445>>IF       8445>>IF
B$ALT.ERR.ERR#
      8141**DCL      8141--REDEF    8451>>IF       8451>>IF       8451>>IF
B$ALT.EVID
      8140**DCL      8140--REDEF    8140--REDEF
B$TCB.ALT$
      8135**DCL      8445>>IF       8445>>IF       8451>>IF       8451>>IF       8451>>IF
B$TCB$
      5992**DCL      8445>>IF       8445>>IF       8451>>IF       8451>>IF       8451>>IF
BREAK_LOC
      5227**DCL      5227--REDEF
CALL_GDP
      8416**LABEL    8406--GOTO
COMMON
      8433**LABEL    8419--GOTO
DEF_ICB.FID.STRING
      5825**DCL      5826--REDEF
DEV_ICB.FID.STRING
      5711**DCL      5712--REDEF
EI_KEY.KEY
      5923**DCL      5923--REDEF    5923--REDEF    5923--REDEF
EO_OCB.TYPE
      5423**DCL      5424--REDEF
FDP_ALT
      8451**LABEL    8431--CALLALT
FPT_CLOSE_EI.SN_
      6764**DCL      6764--REDEF
PL6.E3A0      #011=VPD$ENLARGE_BUF File=VPD$UTIL.:E05TSI                         WED 07/30/97 07:29 Page:286
FPT_CLOSE_EI.UTL_
      6765**DCL      6765--REDEF
FPT_CLOSE_EI.V.EXPIRE#
      6779**DCL      6779--REDEF
FPT_CLOSE_EI.V.TYPE#
      6777**DCL      6777--REDEF
FPT_CLOSE_EI.V.XTNSIZE#
      6774**DCL      6774--REDEF    6776--REDEF
FPT_CLOSE_PTL.SN_
      6890**DCL      6890--REDEF
FPT_CLOSE_PTL.UTL_
      6891**DCL      6891--REDEF
FPT_CLOSE_PTL.V.EXPIRE#
      6905**DCL      6905--REDEF
FPT_CLOSE_PTL.V.TYPE#
      6903**DCL      6903--REDEF
FPT_CLOSE_PTL.V.XTNSIZE#
      6900**DCL      6900--REDEF    6902--REDEF
FPT_CLOSE_READ.SN_
      6806**DCL      6806--REDEF
FPT_CLOSE_READ.UTL_
      6807**DCL      6807--REDEF
FPT_CLOSE_READ.V.EXPIRE#
      6821**DCL      6821--REDEF
FPT_CLOSE_READ.V.TYPE#
      6819**DCL      6819--REDEF
FPT_CLOSE_READ.V.XTNSIZE#
      6816**DCL      6816--REDEF    6818--REDEF
FPT_CLOSE_SI.SN_
      6974**DCL      6974--REDEF
FPT_CLOSE_SI.UTL_
      6975**DCL      6975--REDEF
FPT_CLOSE_SI.V.EXPIRE#
      6989**DCL      6989--REDEF
FPT_CLOSE_SI.V.TYPE#
      6987**DCL      6987--REDEF
PL6.E3A0      #011=VPD$ENLARGE_BUF File=VPD$UTIL.:E05TSI                         WED 07/30/97 07:29 Page:287
FPT_CLOSE_SI.V.XTNSIZE#
      6984**DCL      6984--REDEF    6986--REDEF
FPT_CLOSE_STD.SN_
      6932**DCL      6932--REDEF
FPT_CLOSE_STD.UTL_
      6933**DCL      6933--REDEF
FPT_CLOSE_STD.V.EXPIRE#
      6947**DCL      6947--REDEF
FPT_CLOSE_STD.V.TYPE#
      6945**DCL      6945--REDEF
FPT_CLOSE_STD.V.XTNSIZE#
      6942**DCL      6942--REDEF    6944--REDEF
FPT_CLSEI_FT.SN_
      6848**DCL      6848--REDEF
FPT_CLSEI_FT.UTL_
      6849**DCL      6849--REDEF
FPT_CLSEI_FT.V.EXPIRE#
      6863**DCL      6863--REDEF
FPT_CLSEI_FT.V.TYPE#
      6861**DCL      6861--REDEF
FPT_CLSEI_FT.V.XTNSIZE#
      6858**DCL      6858--REDEF    6860--REDEF
FPT_GDDL
      8174**DCL      8402<>CALL
FPT_GDP_FDP
      8158**DCL      8417<>CALL     8431<>CALL
FPT_GDP_FDP.V
      8158**DCL      8158--DCLINIT
FPT_GDP_FDP.V.PAGES#
      8159**DCL      8416<<ASSIGN   8430<<ASSIGN
FPT_OPEN_EI.ACSVEH_
      6419**DCL      6420--REDEF
FPT_OPEN_EI.ALTKEYS_
      6425**DCL      6426--REDEF    6426--REDEF
FPT_OPEN_EI.HDR_
      6424**DCL      6425--REDEF
PL6.E3A0      #011=VPD$ENLARGE_BUF File=VPD$UTIL.:E05TSI                         WED 07/30/97 07:29 Page:288
FPT_OPEN_EI.TAB_
      6423**DCL      6424--REDEF
FPT_OPEN_EI.UHL_
      6417**DCL      6418--REDEF    6418--REDEF
FPT_OPEN_EI.V.FSN#
      6457**DCL      6457--REDEF    6457--REDEF
FPT_OPEN_EI.WSN_
      6423**DCL      6423--REDEF
FPT_OPEN_EI_SAVE.ACSVEH_
      6528**DCL      6529--REDEF
FPT_OPEN_EI_SAVE.ALTKEYS_
      6534**DCL      6535--REDEF    6535--REDEF
FPT_OPEN_EI_SAVE.HDR_
      6533**DCL      6534--REDEF
FPT_OPEN_EI_SAVE.TAB_
      6532**DCL      6533--REDEF
FPT_OPEN_EI_SAVE.UHL_
      6526**DCL      6527--REDEF    6527--REDEF
FPT_OPEN_EI_SAVE.V.FSN#
      6566**DCL      6566--REDEF    6566--REDEF
FPT_OPEN_EI_SAVE.WSN_
      6532**DCL      6532--REDEF
FPT_OPEN_OUT.ACSVEH_
      6310**DCL      6311--REDEF
FPT_OPEN_OUT.ALTKEYS_
      6316**DCL      6317--REDEF    6317--REDEF
FPT_OPEN_OUT.HDR_
      6315**DCL      6316--REDEF
FPT_OPEN_OUT.TAB_
      6314**DCL      6315--REDEF
FPT_OPEN_OUT.UHL_
      6308**DCL      6309--REDEF    6309--REDEF
FPT_OPEN_OUT.V.FSN#
      6348**DCL      6348--REDEF    6348--REDEF
FPT_OPEN_OUT.WSN_
      6314**DCL      6314--REDEF
PL6.E3A0      #011=VPD$ENLARGE_BUF File=VPD$UTIL.:E05TSI                         WED 07/30/97 07:29 Page:289
FPT_OPEN_OUT_SAVE.ACSVEH_
      6201**DCL      6202--REDEF
FPT_OPEN_OUT_SAVE.ALTKEYS_
      6207**DCL      6208--REDEF    6208--REDEF
FPT_OPEN_OUT_SAVE.HDR_
      6206**DCL      6207--REDEF
FPT_OPEN_OUT_SAVE.TAB_
      6205**DCL      6206--REDEF
FPT_OPEN_OUT_SAVE.UHL_
      6199**DCL      6200--REDEF    6200--REDEF
FPT_OPEN_OUT_SAVE.V.FSN#
      6239**DCL      6239--REDEF    6239--REDEF
FPT_OPEN_OUT_SAVE.WSN_
      6205**DCL      6205--REDEF
FPT_READ_STD.STATION_
      6629**DCL      6630--REDEF
FPT_READ_STD.V.DVBYTE.REREAD#
      6641**DCL      6641--REDEF
FPT_READ_STD.V.INDX#
      6639**DCL      6639--REDEF
FPT_READ_UC.STATION_
      6590**DCL      6591--REDEF
FPT_READ_UC.V.DVBYTE.REREAD#
      6602**DCL      6602--REDEF
FPT_READ_UC.V.INDX#
      6600**DCL      6600--REDEF
FPT_WRITE_ME.STATION_
      6698**DCL      6698--REDEF
FPT_WRITE_ME.V.DVBYTE.VFC#
      6705**DCL      6705--REDEF
FPT_WRITE_OUT.STATION_
      6729**DCL      6729--REDEF
FPT_WRITE_OUT.V.DVBYTE.VFC#
      6736**DCL      6736--REDEF
FPT_WRITE_UC.STATION_
      6667**DCL      6667--REDEF
PL6.E3A0      #011=VPD$ENLARGE_BUF File=VPD$UTIL.:E05TSI                         WED 07/30/97 07:29 Page:290
FPT_WRITE_UC.V.DVBYTE.VFC#
      6674**DCL      6674--REDEF
FROM_SN.SN
      5573**DCL      5574--REDEF
GDP_ALT
      8445**LABEL    8417--CALLALT
GETCMD.OUT$
      4780**DCL      4786--REDEF
ICB.FID.STRING
      5597**DCL      5598--REDEF
IFSFA_PARAM.EOMCHAR#
      5952**DCL      5953--REDEF
IFSFA_PARAM.SIG1
      5946**DCL      5946--REDEF
IFSFA_PARAM.SIG2
      5946**DCL      5947--REDEF
IN_BUF_VECTOR
      5921**DCL      8440<<ASSIGN
IN_BUF_VECTOR.BOUND
      5921**DCL      8441<<ASSIGN
IN_BUF_VECTOR.PTR$
      5922**DCL      8442<<ASSIGN
IN_RES
      5519**DCL      5519--REDEF
IN_SN.SN
      5535**DCL      5536--REDEF
M$FDP
        73**DCL-ENT  8431--CALL
M$GDDL
        74**DCL-ENT  8402--CALL
M$GDP
        73**DCL-ENT  8417--CALL
MIN_PAGES
      5223**DCL      8405>>ASSIGN   8427>>IF       8430>>ASSIGN
NEW_VECTOR
      8182**DCL      8158--DCLINIT  8432>>ASSIGN
PL6.E3A0      #011=VPD$ENLARGE_BUF File=VPD$UTIL.:E05TSI                         WED 07/30/97 07:29 Page:291
NEW_VECTOR.BOUND
      8183**DCL      8418>>ASSIGN   8445>>IF       8457>>IF
OCB.TYPE
      5281**DCL      5282--REDEF
OFSFA_PARAM.EOMCHAR#
      5982**DCL      5983--REDEF
OFSFA_PARAM.SIG1
      5976**DCL      5976--REDEF
OFSFA_PARAM.SIG2
      5976**DCL      5977--REDEF
OK
      8418**LABEL    8449--GOTO     8459--GOTO
OUT_SN.SN
      5553**DCL      5554--REDEF
PAGES
        19**DCL         6--PROC     8408>>IF       8412>>ASSIGN
PAGES_REQUIRED
      8186**DCL      8405<<ASSIGN   8410<<ASSIGN   8412<<ASSIGN   8413>>IF       8416>>ASSIGN   8445>>IF
RES
      8176**DCL      8174--DCLINIT
RES.BUF_VECTOR
      8177**DCL      8432<<ASSIGN   8439>>ASSIGN   8440>>ASSIGN
RES.BUF_VECTOR.BOUND
      8178**DCL      8403<<ASSIGN   8404<<ASSIGN   8404>>ASSIGN   8410>>ASSIGN   8412>>ASSIGN   8418<<ASSIGN
      8418>>ASSIGN   8427>>IF       8430>>ASSIGN   8441>>ASSIGN
RES.BUF_VECTOR.PTR$
      8180**DCL      8442>>ASSIGN
SPEC_BUF
      5231**DCL      5231--REDEF
START
      8408**LABEL    8395--GOTO
USE_CONT
      5223**DCL      8456<<ASSIGN
VPL$ERR_PROC
      8369**DCL-ENT  8462--CALL

PL6.E3A0      #012=VPD$FETCH_CREATOR File=VPD$UTIL.:E05TSI                       WED 07/30/97 07:30 Page:292
     1110        1        /*T***********************************************************/
     1111        2        /*T*                                                         */
     1112        3        /*T* Copyright (c) Bull HN Information Systems Inc., 1997    */
     1113        4        /*T*                                                         */
     1114        5        /*T***********************************************************/
     1115        6        VPD$FETCH_CREATOR: PROC(TEXT_C) ALTRET;
     1116        7        /*I* NAME: VPD$FETCH_CREATOR
     1117        8             PURPOSE: To return the creator of a file as a TEXTC field.
     1118        9             CALL: CALL VPD$FETCH_CREATOR(TEXT_C) ALTRET(ERROR);
     1119       10             DESCRIPTION: This procedure finds the creator of a file and
     1120       11                   returns it in a TEXTC field.
     1121       12
     1122       13                   If we are unable to ascertain the creator, the ALTRET
     1123       14                   is taken.
     1124       15        */
     1125       16        /**/
     1126       17        /*  PARAMETERS  */
     1127       18        /**/
     1128       19    1   DCL 1 TEXT_C CALIGNED,
     1129       20    1         2 C UBIN BYTE CALIGNED,
     1130       21    1         2 TEXT CHAR(30) CALIGNED;
     1131       22        /**/
     1132       23        /* INCLUDE FILES  */
     1133       24        /**/
     1134       25        %INCLUDE VP_DATA_R;
     1135     7012        %INCLUDE FM$FIT;
     1136     7233        %INCLUDE B$JIT;
     1137     7523        /**/
     1138     7524        /*  LOCAL AUTO  */
     1139     7525        /**/
     1140     7526    1   DCL DATE$ PTR;
     1141     7527    1   DCL INSERT_IDX SBIN WORD;
     1142     7528        /**/
     1143     7529        /*  BASED  */
     1144     7530        /**/
     1145     7531        %CODE04;                                /* Structure for FPARAM dates         */
     1146     7539        /**/
PL6.E3A0      #012=VPD$FETCH_CREATOR File=VPD$UTIL.:E05TSI                       WED 07/30/97 07:30 Page:293
     1147     7540        /*  ENTRY DCLS  */
     1148     7541        /**/
     1149     7542    1   DCL XSF$LOCCODP ENTRY(2) ALTRET;
     1150     7543        /**/
     1151     7544    1           IF NOT B$JIT$ -> B$JIT.PRIV.ACTIVE & %PR_FMSEC#
     1152     7545    1            THEN
     1153     7546    1              GOTO UNKNOWN_CREATOR;
     1154     7547    1           DATE$ = ADDR (FPARAM_BUF);
     1155     7548    1           CALL XSF$LOCCODP(DATE$,04) ALTRET(UNKNOWN_CREATOR);
     1156     7549    1           TEXT_C.TEXT = DATE$ -> CODE04.CREATOR.ACCT;
     1157     7550    1           CALL INDEX (INSERT_IDX,' ',TEXT_C.TEXT);
     1158     7551    1           CALL INSERT(TEXT_C.TEXT,INSERT_IDX,,',',DATE$ -> CODE04.CREATOR.NAME);
     1159     7552    1           CALL INDEX (INSERT_IDX,' ',TEXT_C.TEXT);
     1160     7553    1           IF INSERT_IDX = 1
     1161     7554    1            THEN                           /* Nothing interesting there!         */
     1162     7555    1              GOTO UNKNOWN_CREATOR;
     1163     7556    1           TEXT_C.C = INSERT_IDX;
     1164     7557    1           RETURN;
     1165     7558        /**/
     1166     7559    1   UNKNOWN_CREATOR: ;
     1167     7560    1           ALTRETURN;
     1168     7561        /**/
     1169     7562    1   END VPD$FETCH_CREATOR;
     1170     7563        %EOD;

PL6.E3A0      #012=VPD$FETCH_CREATOR File=VPD$UTIL.:E05TSI                       WED 07/30/97 07:30 Page:294
--  Include file information  --

   B$JIT.:E05TOU  cannot be made into a system file and is referenced.
   FM$FIT.:E05TOU  is referenced.
   B_MICROPS_C.:E05TOU  is referenced.
   XU_MACRO_C.:E05TOU  is referenced.
   VP_MACRO_C.:E05TOU  is referenced.
   XS_MACRO_C.:E05TOU  is referenced.
   VP_PERR_C.:E05TOU  is referenced.
   CP_6_SUBS.:E05TOU  is referenced.
   CP_6.:E05TOU  cannot be made into a system file and is referenced.
   VP_DATA_R.:E05TOU  cannot be made into a system file and is referenced.
   B$JIT_C.:E05TOU  was found in the system file and is referenced.
   CP_6_C.:E05TOU  was found in the system file and is referenced.
      No diagnostics issued in procedure VPD$FETCH_CREATOR.

   Procedure VPD$FETCH_CREATOR requires 53 words for executable code.
   Procedure VPD$FETCH_CREATOR requires 8 words of local(AUTO) storage.

PL6.E3A0      #012=VPD$FETCH_CREATOR File=VPD$UTIL.:E05TSI                       WED 07/30/97 07:30 Page:295

 Object Unit name= VPD$FETCH_CREATOR                          File name= VPD$UTIL.:E05TOU
 UTS= JUL 30 '97 07:30:36.20 WED                              Compiler= PL-6/E31         Sev=      00
 SharedLib= :SHARED_SYSTEM                                    Alt SharedLib=


    ****  Control sections  ****

 Sect   Type Bound  Init  Size OctSiz  Section name(segment info)
    0   DCB   even  none     0      0  M$UC
    1   DCB   even  none     0      0  M$EI
    2   DCB   even  none     0      0  M$EO
    3   DCB   even  none     0      0  M$EO1
    4   DCB   even  none     0      0  M$ME
    5   DCB   even  none     0      0  M$SI
    6   DCB   even  none     0      0  M$READFILE
    7   DCB   even  none     0      0  M$DO
    8   DCB   even  none     0      0  M$STD1
    9   DCB   even  none     0      0  M$SORT1
   10  RoData even  UTS      1      1  VPD$FETCH_CREATOR
   11   Proc  even  none    53     65  VPD$FETCH_CREATOR
   12  RoData even  none     3      3  VPD$FETCH_CREATOR

    ****  Entry defs  ****

                              Check   Calling
                             calling  sequence
  Sect OctLoc Primary Altret sequence   type   Parms  Name
    11      0   yes    yes     yes      Std        1  VPD$FETCH_CREATOR
PL6.E3A0      #012=VPD$FETCH_CREATOR File=VPD$UTIL.:E05TSI                       WED 07/30/97 07:30 Page:296

  ****  Entry refs  ****

         Check        Calling
        calling       sequence
Altret sequence SRef   type   Args  Name
 yes     yes           Std       2 XSF$LOCCODP
                       nStd      0 X66_AUTO_1
                       Std       0 B_CONSPOOL_D
                       nStd      0 X66_ARET
                       nStd      0 X66_AALT

  ****  Data refs  ****

  Flags:  r = read only, s = secondary
Flgs Name                             Flgs Name                             Flgs Name
     M$UC                                  BREAK_LOC                             BREAK_MESSAGE_REPORTER
     FPARAM_BUF                            SPEC_BUF                              IN_RES
     M$EI                                  M$EO                                  M$EO1
     M$ME                                  M$SI                                  M$READFILE
     M$DO                                  M$STD1                                M$SORT1
     B$JIT$                                B_VECTNIL

  ****  Segment refs  ****

  Flags:  r = read only, s = secondary
Flgs Name                             Flgs Name                             Flgs Name
     ISSID
PL6.E3A0      #012=VPD$FETCH_CREATOR File=VPD$UTIL.:E05TSI                       WED 07/30/97 07:30 Page:297


     1110        1        /*T***********************************************************/
     1111        2        /*T*                                                         */
     1112        3        /*T* Copyright (c) Bull HN Information Systems Inc., 1997    */
     1113        4        /*T*                                                         */
     1114        5        /*T***********************************************************/
     1115        6        VPD$FETCH_CREATOR: PROC(TEXT_C) ALTRET;

      6 11 000000   000000 700200 xent  VPD$FETCH_C* TSX0  ! X66_AUTO_1
        11 000001   000010 000001                    ZERO    8,1

     1116        7        /*I* NAME: VPD$FETCH_CREATOR
     1117        8             PURPOSE: To return the creator of a file as a TEXTC field.
     1118        9             CALL: CALL VPD$FETCH_CREATOR(TEXT_C) ALTRET(ERROR);
     1119       10             DESCRIPTION: This procedure finds the creator of a file and
     1120       11                   returns it in a TEXTC field.
     1121       12
     1122       13                   If we are unable to ascertain the creator, the ALTRET
     1123       14                   is taken.
     1124       15        */
     1125       16        /**/
     1126       17        /*  PARAMETERS  */
     1127       18        /**/
     1128       19    1   DCL 1 TEXT_C CALIGNED,
     1129       20    1         2 C UBIN BYTE CALIGNED,
     1130       21    1         2 TEXT CHAR(30) CALIGNED;
     1131       22        /**/
     1132       23        /* INCLUDE FILES  */
     1133       24        /**/
     1134       25        %INCLUDE VP_DATA_R;
     1135     7012        %INCLUDE FM$FIT;
     1136     7233        %INCLUDE B$JIT;
     1137     7523        /**/
     1138     7524        /*  LOCAL AUTO  */
     1139     7525        /**/
     1140     7526    1   DCL DATE$ PTR;
     1141     7527    1   DCL INSERT_IDX SBIN WORD;
PL6.E3A0      #012=VPD$FETCH_CREATOR File=VPD$UTIL.:E05TSI                       WED 07/30/97 07:30 Page:298
     1142     7528        /**/
     1143     7529        /*  BASED  */
     1144     7530        /**/
     1145     7531        %CODE04;                                /* Structure for FPARAM dates         */
     1146     7539        /**/
     1147     7540        /*  ENTRY DCLS  */
     1148     7541        /**/
     1149     7542    1   DCL XSF$LOCCODP ENTRY(2) ALTRET;
     1150     7543        /**/
     1151     7544    1           IF NOT B$JIT$ -> B$JIT.PRIV.ACTIVE & %PR_FMSEC#

   7544 11 000002   000000 470400 xsym               LDP0    B$JIT$
        11 000003   000013 236100                    LDQ     11,,PR0
        11 000004   000000 376000 10                 ANQ     0
        11 000005   000064 600000 11                 TZE     UNKNOWN_CREATOR

     1152     7545    1            THEN
     1153     7546    1              GOTO UNKNOWN_CREATOR;
     1154     7547    1           DATE$ = ADDR (FPARAM_BUF);

   7547 11 000006   000000 236000 12                 LDQ     0
        11 000007   200004 756100                    STQ     DATE$,,AUTO

     1155     7548    1           CALL XSF$LOCCODP(DATE$,04) ALTRET(UNKNOWN_CREATOR);

   7548 11 000010   000001 236000 12                 LDQ     1
        11 000011   200007 756100                    STQ     INSERT_IDX+2,,AUTO
        11 000012   200004 631500                    EPPR1   DATE$,,AUTO
        11 000013   200006 451500                    STP1    INSERT_IDX+1,,AUTO
        11 000014   200006 630500                    EPPR0   INSERT_IDX+1,,AUTO
        11 000015   000020 631400 xsym               EPPR1   B_VECTNIL+16
        11 000016   000000 701000 xent               TSX1    XSF$LOCCODP
        11 000017   000064 702000 11                 TSX2    UNKNOWN_CREATOR

     1156     7549    1           TEXT_C.TEXT = DATE$ -> CODE04.CREATOR.ACCT;

   7549 11 000020   200004 470500                    LDP0    DATE$,,AUTO
PL6.E3A0      #012=VPD$FETCH_CREATOR File=VPD$UTIL.:E05TSI                       WED 07/30/97 07:30 Page:299
        11 000021   200003 471500                    LDP1    @TEXT_C,,AUTO
        11 000022   040100 100500                    MLR     fill='040'O
        11 000023   000003 000010                    ADSC9   3,,PR0                   cn=0,n=8
        11 000024   100000 200036                    ADSC9   0,,PR1                   cn=1,n=30

     1157     7550    1           CALL INDEX (INSERT_IDX,' ',TEXT_C.TEXT);

   7550 11 000025   000000 124500                    SCM     mask='000'O
        11 000026   100000 200036                    ADSC9   0,,PR1                   cn=1,n=30
        11 000027   000035 000001 xsym               ADSC9   B_VECTNIL+29             cn=0,n=1
        11 000030   200005 000100                    ARG     INSERT_IDX,,AUTO

     1158     7551    1           CALL INSERT(TEXT_C.TEXT,INSERT_IDX,,',',DATE$ -> CODE04.CREATOR.NAME);

   7551 11 000031   200005 720100                    LXL0    INSERT_IDX,,AUTO
        11 000032   777741 620010                    EAX0    -31,X0
        11 000033   777777 660003                    ERX0    -1,DU
        11 000034   200005 235100                    LDA     INSERT_IDX,,AUTO
        11 000035   040145 100400                    MLR     fill='040'O
        11 000036   000002 000001 12                 ADSC9   2                        cn=0,n=1
        11 000037   100000 200010                    ADSC9   0,A,PR1                  cn=1,n=*X0
        11 000040   200005 236100                    LDQ     INSERT_IDX,,AUTO
        11 000041   000035 116007                    CMPQ    29,DL
        11 000042   000051 605000 11                 TPL     s:7552
        11 000043   777742 621006                    EAX1    -30,QL
        11 000044   777777 661003                    ERX1    -1,DU
        11 000045   200004 470500                    LDP0    DATE$,,AUTO
        11 000046   040146 100500                    MLR     fill='040'O
        11 000047   000005 000014                    ADSC9   5,,PR0                   cn=0,n=12
        11 000050   100000 400011                    ADSC9   0,Q,PR1                  cn=2,n=*X1

     1159     7552    1           CALL INDEX (INSERT_IDX,' ',TEXT_C.TEXT);

   7552 11 000051   000000 124500                    SCM     mask='000'O
        11 000052   100000 200036                    ADSC9   0,,PR1                   cn=1,n=30
        11 000053   000035 000001 xsym               ADSC9   B_VECTNIL+29             cn=0,n=1
        11 000054   200005 000100                    ARG     INSERT_IDX,,AUTO
PL6.E3A0      #012=VPD$FETCH_CREATOR File=VPD$UTIL.:E05TSI                       WED 07/30/97 07:30 Page:300

     1160     7553    1           IF INSERT_IDX = 1

   7553 11 000055   200005 235100                    LDA     INSERT_IDX,,AUTO
        11 000056   000001 115007                    CMPA    1,DL
        11 000057   000064 600000 11                 TZE     UNKNOWN_CREATOR

     1161     7554    1            THEN                           /* Nothing interesting there!         */
     1162     7555    1              GOTO UNKNOWN_CREATOR;
     1163     7556    1           TEXT_C.C = INSERT_IDX;

   7556 11 000060   000100 101500                    MRL     fill='000'O
        11 000061   200005 000004                    ADSC9   INSERT_IDX,,AUTO         cn=0,n=4
        11 000062   100000 000001                    ADSC9   0,,PR1                   cn=0,n=1

     1164     7557    1           RETURN;

   7557 11 000063   000000 702200 xent               TSX2  ! X66_ARET

   7556 11 000064                       UNKNOWN_CRE* null
     1165     7558        /**/
     1166     7559    1   UNKNOWN_CREATOR: ;
     1167     7560    1           ALTRETURN;

   7560 11 000064   000000 702200 xent               TSX2  ! X66_AALT
     1168     7561        /**/
     1169     7562    1   END VPD$FETCH_CREATOR;
     1170     7563        %EOD;

PL6.E3A0      #012=VPD$FETCH_CREATOR File=VPD$UTIL.:E05TSI                       WED 07/30/97 07:30 Page:301
--  Include file information  --

   B$JIT.:E05TOU  cannot be made into a system file and is referenced.
   FM$FIT.:E05TOU  is referenced.
   B_MICROPS_C.:E05TOU  is referenced.
   XU_MACRO_C.:E05TOU  is referenced.
   VP_MACRO_C.:E05TOU  is referenced.
   XS_MACRO_C.:E05TOU  is referenced.
   VP_PERR_C.:E05TOU  is referenced.
   CP_6_SUBS.:E05TOU  is referenced.
   CP_6.:E05TOU  cannot be made into a system file and is referenced.
   VP_DATA_R.:E05TOU  cannot be made into a system file and is referenced.
   B$JIT_C.:E05TOU  was found in the system file and is referenced.
   CP_6_C.:E05TOU  was found in the system file and is referenced.
      No diagnostics issued in procedure VPD$FETCH_CREATOR.
PL6.E3A0      #012=VPD$FETCH_CREATOR File=VPD$UTIL.:E05TSI                       WED 07/30/97 07:30 Page:302

 **** Variables and constants ****

  ****  Auto variables  ****

  ****  Scalars and arrays  ****
OctLoc.c.b A Datatyp(siz) R M Lvl/name                 OctLoc.c.b A Datatyp(siz) R M Lvl/name

     3-0-0/w PTR         r     1 @TEXT_C                    4-0-0/w PTR         r     1 DATE$
     5-0-0/w SBIN        r     1 INSERT_IDX                *0-0-0/c STRC(279)   r     1 TEXT_C

  ****  SYMREF variables  ****

  ****  Scalars and arrays  ****
OctLoc.c.b A Datatyp(siz) R M Lvl/name                 OctLoc.c.b A Datatyp(siz) R M Lvl/name

     0-0-0/w PTR         r     1 B$JIT$
     0-0-0/w EPTR        r     1 BREAK_MESSAGE_REPORTER
     0-0-0/d SBIN        r     1 FPARAM_BUF(0:1023)

  ****  BASED and DCB variables  ****

  ****  Scalars and arrays  ****
OctLoc.c.b A Datatyp(siz) R M Lvl/name                 OctLoc.c.b A Datatyp(siz) R M Lvl/name

     0-0-0/d STRC(8856)  r     1 B$JIT                      0-0-0/w STRC(396)   r     1 CODE04


   Procedure VPD$FETCH_CREATOR requires 53 words for executable code.
   Procedure VPD$FETCH_CREATOR requires 8 words of local(AUTO) storage.
PL6.E3A0      #012=VPD$FETCH_CREATOR File=VPD$UTIL.:E05TSI                       WED 07/30/97 07:30 Page:303
          *** CROSS REFERENCE LISTING ***
**     DENOTES     IDENTIFIER DEFINITION
<<                 IDENTIFIER'S VALUE SET
>>                 IDENTIFIER'S VALUE USED
<>                 IDENTIFIER SET AND/OR USED
--                 IDENTIFIER REFERENCED
PL6.E3A0      #012=VPD$FETCH_CREATOR File=VPD$UTIL.:E05TSI                       WED 07/30/97 07:30 Page:304
          MINI XREF LISTING

B$JIT.CPFLAGS1.SLEAZE
      7341**DCL      7341--REDEF
B$JIT.ERR.MID
      7248**DCL      7248--REDEF
B$JIT.JRESPEAK
      7409**DCL      7410--REDEF
B$JIT.ORIGINATOR_PORT.FROM_CR
      7518**DCL      7518--REDEF    7519--REDEF
B$JIT.PNR
      7422**DCL      7422--REDEF
B$JIT.PRIV.ACTIVE
      7248**DCL      7544>>IF
B$JIT.TSLINE
      7516**DCL      7517--REDEF
B$JIT$
      5997**DCL      7242--IMP-PTR  7544>>IF
BREAK_LOC
      5232**DCL      5232--REDEF
CODE04.CREATOR.ACCT
      7536**DCL      7549>>ASSIGN
CODE04.CREATOR.NAME
      7536**DCL      7551>>CALLBLT
DATE$
      7526**DCL      7547<<ASSIGN   7548<>CALL     7549>>ASSIGN   7551>>CALLBLT
DEF_ICB.FID.STRING
      5830**DCL      5831--REDEF
DEV_ICB.FID.STRING
      5716**DCL      5717--REDEF
EI_KEY.KEY
      5928**DCL      5928--REDEF    5928--REDEF    5928--REDEF
EO_OCB.TYPE
      5428**DCL      5429--REDEF
PL6.E3A0      #012=VPD$FETCH_CREATOR File=VPD$UTIL.:E05TSI                       WED 07/30/97 07:30 Page:305
FPARAM_BUF
      5233**DCL      7547--ASSIGN
FPT_CLOSE_EI.SN_
      6769**DCL      6769--REDEF
FPT_CLOSE_EI.UTL_
      6770**DCL      6770--REDEF
FPT_CLOSE_EI.V.EXPIRE#
      6784**DCL      6784--REDEF
FPT_CLOSE_EI.V.TYPE#
      6782**DCL      6782--REDEF
FPT_CLOSE_EI.V.XTNSIZE#
      6779**DCL      6779--REDEF    6781--REDEF
FPT_CLOSE_PTL.SN_
      6895**DCL      6895--REDEF
FPT_CLOSE_PTL.UTL_
      6896**DCL      6896--REDEF
FPT_CLOSE_PTL.V.EXPIRE#
      6910**DCL      6910--REDEF
FPT_CLOSE_PTL.V.TYPE#
      6908**DCL      6908--REDEF
FPT_CLOSE_PTL.V.XTNSIZE#
      6905**DCL      6905--REDEF    6907--REDEF
FPT_CLOSE_READ.SN_
      6811**DCL      6811--REDEF
FPT_CLOSE_READ.UTL_
      6812**DCL      6812--REDEF
FPT_CLOSE_READ.V.EXPIRE#
      6826**DCL      6826--REDEF
FPT_CLOSE_READ.V.TYPE#
      6824**DCL      6824--REDEF
FPT_CLOSE_READ.V.XTNSIZE#
      6821**DCL      6821--REDEF    6823--REDEF
FPT_CLOSE_SI.SN_
      6979**DCL      6979--REDEF
FPT_CLOSE_SI.UTL_
      6980**DCL      6980--REDEF
PL6.E3A0      #012=VPD$FETCH_CREATOR File=VPD$UTIL.:E05TSI                       WED 07/30/97 07:30 Page:306
FPT_CLOSE_SI.V.EXPIRE#
      6994**DCL      6994--REDEF
FPT_CLOSE_SI.V.TYPE#
      6992**DCL      6992--REDEF
FPT_CLOSE_SI.V.XTNSIZE#
      6989**DCL      6989--REDEF    6991--REDEF
FPT_CLOSE_STD.SN_
      6937**DCL      6937--REDEF
FPT_CLOSE_STD.UTL_
      6938**DCL      6938--REDEF
FPT_CLOSE_STD.V.EXPIRE#
      6952**DCL      6952--REDEF
FPT_CLOSE_STD.V.TYPE#
      6950**DCL      6950--REDEF
FPT_CLOSE_STD.V.XTNSIZE#
      6947**DCL      6947--REDEF    6949--REDEF
FPT_CLSEI_FT.SN_
      6853**DCL      6853--REDEF
FPT_CLSEI_FT.UTL_
      6854**DCL      6854--REDEF
FPT_CLSEI_FT.V.EXPIRE#
      6868**DCL      6868--REDEF
FPT_CLSEI_FT.V.TYPE#
      6866**DCL      6866--REDEF
FPT_CLSEI_FT.V.XTNSIZE#
      6863**DCL      6863--REDEF    6865--REDEF
FPT_OPEN_EI.ACSVEH_
      6424**DCL      6425--REDEF
FPT_OPEN_EI.ALTKEYS_
      6430**DCL      6431--REDEF    6431--REDEF
FPT_OPEN_EI.HDR_
      6429**DCL      6430--REDEF
FPT_OPEN_EI.TAB_
      6428**DCL      6429--REDEF
FPT_OPEN_EI.UHL_
      6422**DCL      6423--REDEF    6423--REDEF
PL6.E3A0      #012=VPD$FETCH_CREATOR File=VPD$UTIL.:E05TSI                       WED 07/30/97 07:30 Page:307
FPT_OPEN_EI.V.FSN#
      6462**DCL      6462--REDEF    6462--REDEF
FPT_OPEN_EI.WSN_
      6428**DCL      6428--REDEF
FPT_OPEN_EI_SAVE.ACSVEH_
      6533**DCL      6534--REDEF
FPT_OPEN_EI_SAVE.ALTKEYS_
      6539**DCL      6540--REDEF    6540--REDEF
FPT_OPEN_EI_SAVE.HDR_
      6538**DCL      6539--REDEF
FPT_OPEN_EI_SAVE.TAB_
      6537**DCL      6538--REDEF
FPT_OPEN_EI_SAVE.UHL_
      6531**DCL      6532--REDEF    6532--REDEF
FPT_OPEN_EI_SAVE.V.FSN#
      6571**DCL      6571--REDEF    6571--REDEF
FPT_OPEN_EI_SAVE.WSN_
      6537**DCL      6537--REDEF
FPT_OPEN_OUT.ACSVEH_
      6315**DCL      6316--REDEF
FPT_OPEN_OUT.ALTKEYS_
      6321**DCL      6322--REDEF    6322--REDEF
FPT_OPEN_OUT.HDR_
      6320**DCL      6321--REDEF
FPT_OPEN_OUT.TAB_
      6319**DCL      6320--REDEF
FPT_OPEN_OUT.UHL_
      6313**DCL      6314--REDEF    6314--REDEF
FPT_OPEN_OUT.V.FSN#
      6353**DCL      6353--REDEF    6353--REDEF
FPT_OPEN_OUT.WSN_
      6319**DCL      6319--REDEF
FPT_OPEN_OUT_SAVE.ACSVEH_
      6206**DCL      6207--REDEF
FPT_OPEN_OUT_SAVE.ALTKEYS_
      6212**DCL      6213--REDEF    6213--REDEF
PL6.E3A0      #012=VPD$FETCH_CREATOR File=VPD$UTIL.:E05TSI                       WED 07/30/97 07:30 Page:308
FPT_OPEN_OUT_SAVE.HDR_
      6211**DCL      6212--REDEF
FPT_OPEN_OUT_SAVE.TAB_
      6210**DCL      6211--REDEF
FPT_OPEN_OUT_SAVE.UHL_
      6204**DCL      6205--REDEF    6205--REDEF
FPT_OPEN_OUT_SAVE.V.FSN#
      6244**DCL      6244--REDEF    6244--REDEF
FPT_OPEN_OUT_SAVE.WSN_
      6210**DCL      6210--REDEF
FPT_READ_STD.STATION_
      6634**DCL      6635--REDEF
FPT_READ_STD.V.DVBYTE.REREAD#
      6646**DCL      6646--REDEF
FPT_READ_STD.V.INDX#
      6644**DCL      6644--REDEF
FPT_READ_UC.STATION_
      6595**DCL      6596--REDEF
FPT_READ_UC.V.DVBYTE.REREAD#
      6607**DCL      6607--REDEF
FPT_READ_UC.V.INDX#
      6605**DCL      6605--REDEF
FPT_WRITE_ME.STATION_
      6703**DCL      6703--REDEF
FPT_WRITE_ME.V.DVBYTE.VFC#
      6710**DCL      6710--REDEF
FPT_WRITE_OUT.STATION_
      6734**DCL      6734--REDEF
FPT_WRITE_OUT.V.DVBYTE.VFC#
      6741**DCL      6741--REDEF
FPT_WRITE_UC.STATION_
      6672**DCL      6672--REDEF
FPT_WRITE_UC.V.DVBYTE.VFC#
      6679**DCL      6679--REDEF
FROM_SN.SN
      5578**DCL      5579--REDEF
PL6.E3A0      #012=VPD$FETCH_CREATOR File=VPD$UTIL.:E05TSI                       WED 07/30/97 07:30 Page:309
GETCMD.OUT$
      4785**DCL      4791--REDEF
ICB.FID.STRING
      5602**DCL      5603--REDEF
IFSFA_PARAM.EOMCHAR#
      5957**DCL      5958--REDEF
IFSFA_PARAM.SIG1
      5951**DCL      5951--REDEF
IFSFA_PARAM.SIG2
      5951**DCL      5952--REDEF
INSERT_IDX
      7527**DCL      7550<<CALLBLT  7551>>CALLBLT  7552<<CALLBLT  7553>>IF       7556>>ASSIGN
IN_RES
      5524**DCL      5524--REDEF
IN_SN.SN
      5540**DCL      5541--REDEF
OCB.TYPE
      5286**DCL      5287--REDEF
OFSFA_PARAM.EOMCHAR#
      5987**DCL      5988--REDEF
OFSFA_PARAM.SIG1
      5981**DCL      5981--REDEF
OFSFA_PARAM.SIG2
      5981**DCL      5982--REDEF
OUT_SN.SN
      5558**DCL      5559--REDEF
SPEC_BUF
      5236**DCL      5236--REDEF
TEXT_C
        19**DCL         6--PROC
TEXT_C.C
        20**DCL      7556<<ASSIGN
TEXT_C.TEXT
        21**DCL      7549<<ASSIGN   7550>>CALLBLT  7551<<CALLBLT  7552>>CALLBLT
UNKNOWN_CREATOR
      7556**LABEL    7546--GOTO     7548--CALLALT  7555--GOTO
PL6.E3A0      #012=VPD$FETCH_CREATOR File=VPD$UTIL.:E05TSI                       WED 07/30/97 07:30 Page:310
XSF$LOCCODP
      7542**DCL-ENT  7548--CALL

