PL6.E3A0      #021=VPD$INITIALIZE File=VPD$UTIL.:E05TSI                          WED 07/30/97 07:43 Page:480
     1807        1        /*T***********************************************************/
     1808        2        /*T*                                                         */
     1809        3        /*T* Copyright (c) Bull HN Information Systems Inc., 1997    */
     1810        4        /*T*                                                         */
     1811        5        /*T***********************************************************/
     1812        6        VPD$INITIALIZE: PROC;
     1813        7        /*I* NAME: VPD$INITIALIZE
     1814        8             PURPOSE: To perform necessary initialization duties on startup
     1815        9             CALL: CALL VPD$INITIALIZE;
     1816       10             DESCRIPTION: On entering PCL, this procedure is used to initialize M$EO,
     1817       11                          OPEN M$ME and M$DO and check them for usability,
     1818       12                          initialize several data items, and possibly output a
     1819       13                          greeting.
     1820       14        */
     1821       15        %INCLUDE VP_DATA_R;
     1822     7002        %INCLUDE B$JIT;
     1823     7292        %INCLUDE F$DCB;
     1824     7341        %FPT_OPEN(FPTN = FPT_OPEN_ME,
     1825     7342                  DCB  = M$ME,
     1826     7343                  FUN  = CREATE,
     1827     7344                  EXIST = OLDFILE,
     1828     7345                  ORG = CONSEC,
     1829     7346                  TEST = YES,
     1830     7347                  STCLASS = CONSTANT);
     1831     7456        %FPT_OPEN(FPTN = FPT_OPEN_DO,
     1832     7457                  DCB  = M$DO,
     1833     7458                  FUN  = CREATE,
     1834     7459                  ORG = CONSEC,
     1835     7460                  TEST = YES,
     1836     7461                  STCLASS = CONSTANT);
     1837     7570    1   DCL CODE UBIN;
     1838     7571        %FPT_INT(FPTN = FPT_INT,
     1839     7572                 UENTRY=XUG$BREAK,
     1840     7573                 STCLASS = CONSTANT);
     1841     7587        %FPT_OPEN(FPTN = FPT_SETUP_EO,
     1842     7588                  DCB  = M$EO,
     1843     7589                  SETDCB = YES,
PL6.E3A0      #021=VPD$INITIALIZE File=VPD$UTIL.:E05TSI                          WED 07/30/97 07:43 Page:481
     1844     7590                  ASN = DEVICE,
     1845     7591                  RES = 'ME  ',
     1846     7592                  STCLASS = CONSTANT);
     1847     7701        %XUG_INIT     (NAME=XUG_INIT,
     1848     7702                       STCLASS=CONSTANT,
     1849     7703                       COMMANDS=YES,
     1850     7704                       PREPROCESS=YES,
     1851     7705                       SYNTAX=YES,
     1852     7706                       GOODCMD=YES,
     1853     7707                       SPELLING=YES,
     1854     7708                       ECHO=HONOR_FLAG,
     1855     7709                       PASS=BLANK,
     1856     7710                       ABORT=VPD$ABORT,
     1857     7711                       BRKMSG=VPD$BREAK,
     1858     7712                       CONTINUE=VPD$CONTINUE,
     1859     7713                       PREPROCESSOR=X$PRE_PROCESS);
     1860     8126        %XUG_INIT     (NAME=XUG_INIT_AUTO, STCLASS=AUTO);
     1861     8539    1   DCL GREET_BUF CHAR(30) STATIC;          /* Will hold PCL greeting             */
     1862     8540    1   DCL B_VERSION CHAR(1) SYMREF;           /* LINKER-supplied Version Number     */
     1863     8541    1   DCL 1 TEXT$C BASED,
     1864     8542    1         2 COUNT UBIN(9) UNAL,
     1865     8543    1         2 TEXT CHAR(TEXT$C.COUNT) UNAL;   /* Structure for RELVER from LINKER   */
     1866     8544    1   DCL BAD_DCB_NUM UBIN;
     1867     8545    1   DCL I UBIN;
     1868     8546        /**/
     1869     8547        /* ENTRY POINTS  */
     1870     8548        /**/
     1871     8549        %VP_ENTRIES (OMIT=VPD$INITIALIZE);
     1872     8757    1   DCL X$PRE_PROCESS ENTRY (1) ALTRET;
     1873     8758        %INCLUDE XUG_ENTRY;
     1874     8789        %PARSE$OUT(STCLASS = BASED);
     1875     8834    1           XUG_INIT_AUTO = XUG_INIT;
     1876     8835    1           CALL XUG$INIT (GETCMD, XUG_INIT_AUTO)
     1877     8836    2            WHENALTRETURN DO;
     1878     8837    2               CALL M$ERR;
     1879     8838    2               END;
     1880     8839    1           GETCMD.OUTDCB# = M$ME#;
PL6.E3A0      #021=VPD$INITIALIZE File=VPD$UTIL.:E05TSI                          WED 07/30/97 07:43 Page:482
     1881     8840    1           GETCMD.DCB_PARAM# = M$ME#;
     1882     8841    1           GETCMD.DCB2_PARAM# = M$DO#;
     1883     8842    1           GETCMD.NODES$ = ADDR(TOP_PCL_CMD);
     1884     8843    1           BREAK_LOC_BITS = '0'B;
     1885     8844    1           STD_WORK$ = ADDR(NIL);
     1886     8845    1           KEY_AREA$ = ADDR(NIL);
     1887     8846    1           REMEMBER PARSE_ALT IN ABORT_CMD;
     1888     8847    1           TABS = '0'B;
     1889     8848    1           ERR_CODE = '000000000007'O;     /* Severity = 7                       */
     1890     8849    1           M$EI$ = DCBADDR(M$EI#);
     1891     8850    1           M$EO$ = DCBADDR(M$EO#);
     1892     8851    1           M$EO1$ = DCBADDR(M$EO1#);
     1893     8852    1           M$ME$ = DCBADDR(M$ME#);
     1894     8853    1           M$SI$ = DCBADDR(M$SI#);
     1895     8854    1           M$DO$ = DCBADDR(M$DO#);
     1896     8855    1           M$READFILE$ = DCBADDR(M$READFILE#);
     1897     8856    1           M$STD1$ = DCBADDR(M$STD1#);
     1898     8857    1           M$UC$ = DCBADDR(M$UC#);
     1899     8858    1           M$SORT1$ = DCBADDR(M$SORT1#);
     1900     8859    1           IF (B$JIT.SWITCH & '777777777000'O)=TEST_PATTERN
     1901     8860    1            THEN
     1902     8861    1              TEST_MODE = 1;
     1903     8862    1            ELSE
     1904     8863    1              TEST_MODE = 0;
     1905     8864    1           IF M$UC$->F$DCB.DDEV.IC         /* DOES IT LOOK LIKE A TERMINAL?      */
     1906     8865    1            THEN
     1907     8866    1              CALL M$INT(FPT_INT);         /* SET UP BREAK CONTROL ONLY IF       */
     1908     8867                                                /* M$UC CAN HEAR AND RESPOND          */
     1909     8868    1           EO_OCB = '0'B;
     1910     8869    1           EO_OCB.DEV_MASK = '040'O;       /* DEVICE flavor                      */
     1911     8870    1           CALL M$OPEN(FPT_SETUP_EO);      /* SET M$EO TO BE DEVICE ME           */
     1912     8871                                                /**********************/
     1913     8872                                                /*    OPEN M$ME                       */
     1914     8873                                                /**********************/
     1915     8874    1           BAD_DCB_NUM = DCBNUM(M$ME);
     1916     8875    1           IF NOT M$ME$ -> F$DCB.FCD
     1917     8876    1            THEN                           /* Gotta OPEN M$ME                    */
PL6.E3A0      #021=VPD$INITIALIZE File=VPD$UTIL.:E05TSI                          WED 07/30/97 07:43 Page:483
     1918     8877    1              CALL M$OPEN(FPT_OPEN_ME) ALTRET(BAD_DIAG_DCB);
     1919     8878    1           IF M$ME$ -> F$DCB.ORG = %KEYED#
     1920     8879    1             OR M$ME$ -> F$DCB.ORG = %RANDOM#
     1921     8880    1             OR M$ME$ -> F$DCB.ORG = %IDS#
     1922     8881    1             OR M$ME$ -> F$DCB.ORG = %CG#
     1923     8882    1            THEN                           /* A key required to WRITE here       */
     1924     8883    1              GOTO BAD_DIAG_DCB;
     1925     8884    1           ME_WIDTH = M$ME$->F$DCB.WIDTH;
     1926     8885    1           IF ME_WIDTH>132
     1927     8886    1            THEN
     1928     8887    1              ME_WIDTH = 132;
     1929     8888    1            ELSE
     1930     8889    1              IF ME_WIDTH<=0
     1931     8890    1               THEN
     1932     8891    1                 ME_WIDTH = 80;
     1933     8892    1           BAD_DCB_NUM = DCBNUM(M$DO);
     1934     8893    1           IF ~ M$DO$ -> F$DCB.FCD
     1935     8894    1            THEN                           /* M$DO closed                        */
     1936     8895    1              CALL M$OPEN(FPT_OPEN_DO) ALTRET(BAD_DIAG_DCB);
     1937     8896    1           IF M$DO$ -> F$DCB.ORG = %KEYED#
     1938     8897    1             OR M$DO$ -> F$DCB.ORG = %RANDOM#
     1939     8898    1             OR M$DO$ -> F$DCB.ORG = %IDS#
     1940     8899    1             OR M$DO$ -> F$DCB.ORG = %CG#
     1941     8900    1            THEN                           /* A key required to WRITE here       */
     1942     8901    1   BAD_DIAG_DCB: CALL VPL$ERR_PROC(4,220,'04'O,,,,BAD_DCB_NUM);
     1943     8902        /*E* ERROR:   VPD-00220
     1944     8903             MESSAGE: %DC is unsuitable for writing error messages.
     1945     8904            MESSAGE1: %DC either requires keys or could not be opened.
     1946     8905        */
     1947     8906    1           PCB.WORK$ = ADDR(PARSE_WORK_AREA);
     1948     8907    1           PCB.WKSZ = SIZEW(PARSE_WORK_AREA);
     1949     8908    1           PCB.U$$ = ENTADDR(VPD$U$);
     1950     8909    1           PCB.CONTINUE = '0'B;            /* Don't allow continuation           */
     1951     8910    1           SUCCESS_NODE = '0'B;            /* We haven't had any parsing success */
     1952     8911    1           IF B$JIT.CCARS = 0 OR TEST_MODE = 1
     1953     8912    1            THEN
     1954     8913    1              CODE = 38;              /* fake parse if linked to with nil bfr    */
PL6.E3A0      #021=VPD$INITIALIZE File=VPD$UTIL.:E05TSI                          WED 07/30/97 07:43 Page:484
     1955     8914    2            ELSE DO;
     1956     8915    2               I=0;
     1957     8916    3               DO WHILE SUBSTR(B$JIT.CCBUF,I,1)='!';
     1958     8917    3                  I=I+1;
     1959     8918    3                  END;
     1960     8919    2               GETCMD.TEXT_ = VECTOR (SUBSTR (B$JIT.CCBUF, 0, B$JIT.CCARS-I));
     1961     8920    2               VBASE(GETCMD.TEXT_)=PINCRC(VBASE(GETCMD.TEXT_),I);
     1962     8921    2               CALL XUG$GETCMD (GETCMD) ALTRET (PARSE_ALT);
     1963     8922    2               IF GETCMD.OUT$=ADDR(NIL) THEN
     1964     8923    2                  CODE=38;                 /* Fake an end                        */
     1965     8924    3                ELSE DO;
     1966     8925    3                   PCB.OUT$ = GETCMD.OUT$;
     1967     8926    3                   CODE = PCB.OUT$ -> OUT$BLK.CODE;
     1968     8927    3                   IF CODE = 38 AND
     1969     8928    3                     PCB.OUT$ -> OUT$BLK.NSUBLKS ~= 0 AND
     1970     8929    3                     PCB.OUT$ -> OUT$BLK.SUBLK$(0) -> OUT$BLK.CODE ~= 0
     1971     8930    3                    THEN
     1972     8931    3                      CALL VPK$PCL_INVOCATION;
     1973     8932    3                   END;
     1974     8933    2               END;
     1975     8934    1           IF CODE = 38
     1976     8935    1            THEN                           /* A 'PCL' invocation                 */
     1977     8936    2            DO;
     1978     8937    2               ONE_TIME = 0;               /* Not a one-shot                     */
     1979     8938    2               COMMAND_STUFFED = '0'B;     /* We need a new command              */
     1980     8939    2               PRE_PARSED = '0'B;          /* And it'll need parsing             */
     1981     8940    2               END;
     1982     8941    1            ELSE                           /* Not an invocation                  */
     1983     8942    2            DO;
     1984     8943    2               ONE_TIME = 1;               /* A one-shot command                 */
     1985     8944    2               PRE_PARSED = '1'B;          /* We've already done the parsing     */
     1986     8945    2               COMMAND_STUFFED = '1'B;     /* And we needn't READ it again       */
     1987     8946    2               END;
     1988     8947    2           DO WHILE ('0'B);                /* Never do                           */
     1989     8948    2   PARSE_ALT: ONE_TIME = 1;                /* Bad implicit call                  */
     1990     8949    2              ERR_FLG = '1'B;              /* Dont reparse this junk             */
     1991     8950    2              END;
PL6.E3A0      #021=VPD$INITIALIZE File=VPD$UTIL.:E05TSI                          WED 07/30/97 07:43 Page:485
     1992     8951    1           IF ONE_TIME = 0
     1993     8952    1            THEN                           /* Not a one-shot                     */
     1994     8953    2            DO;                            /* We must select a greeting          */
     1995     8954    2               IF TEST_MODE=1
     1996     8955    2                THEN
     1997     8956    3                DO;
     1998     8957    3                   FROM_SYS = '1'B;
     1999     8958    3                   GREET_BUF = 'PCL TEST-MODE HERE';
     2000     8959    3                   END;
     2001     8960    2                ELSE
     2002     8961    2                  IF B$JIT$ -> B$JIT.RUNFLAGS & %RUN_PROC#
     2003     8962    2                   THEN                    /* PCL is running as a processor      */
     2004     8963    3                   DO;
     2005     8964    3                      FROM_SYS = '1'B;     /* Set a flag bit                     */
     2006     8965    3                      CALL CONCAT(GREET_BUF,'PCL ',ADDR(B_VERSION) -> TEXT$C.TEXT,
              8965                               ' here');
     2007     8966    3                      END;
     2008     8967    2                   ELSE                    /* PCL is running as a user           */
     2009     8968    3                   DO;
     2010     8969    3                      FROM_SYS = '0'B;
     2011     8970    3                      CALL CONCAT(GREET_BUF,'Bootleg PCL ',ADDR(B_VERSION) -> TEXT$C.
              8970                               TEXT,' here');
     2012     8971    3                      END;
     2013     8972    2               FPT_WRITE_ME.V.DVBYTE.VFC# = %NO#;
     2014     8973    2               FPT_WRITE_ME.BUF_ = VECTOR(GREET_BUF);
     2015     8974    2               IF B$JIT$ -> B$JIT.MODE ~= %M_TP#
     2016     8975    2                THEN                       /* Greet him, he's not a TP user      */
     2017     8976    2                  CALL M$WRITE(FPT_WRITE_ME); /* OUTPUT A GREETING               */
     2018     8977    2               END;
     2019     8978    1           FPT_OPEN_EI_SAVE = FPT_OPEN_EI;
     2020     8979    1           FPT_OPEN_OUT_SAVE = FPT_OPEN_OUT;
     2021     8980    1           CALL VPD$INIT_BUF;
     2022     8981    1   END VPD$INITIALIZE;
     2023     8982        %EOD;

PL6.E3A0      #021=VPD$INITIALIZE File=VPD$UTIL.:E05TSI                          WED 07/30/97 07:43 Page:486
--  Include file information  --

   XUG_ENTRY.:E05TOU  cannot be made into a system file and is referenced.
   F$DCB.:E05TOU  cannot be made into a system file and is referenced.
   B$JIT.:E05TOU  cannot be made into a system file and is referenced.
   B_MICROPS_C.:E05TOU  is referenced.
   XU_MACRO_C.:E05TOU  is referenced.
   VP_MACRO_C.:E05TOU  is referenced.
   XS_MACRO_C.:E05TOU  is referenced.
   VP_PERR_C.:E05TOU  is referenced.
   CP_6_SUBS.:E05TOU  is referenced.
   CP_6.:E05TOU  cannot be made into a system file and is referenced.
   VP_DATA_R.:E05TOU  cannot be made into a system file and is referenced.
   B$JIT_C.:E05TOU  was found in the system file and is referenced.
   CP_6_C.:E05TOU  was found in the system file and is referenced.
      No diagnostics issued in procedure VPD$INITIALIZE.

   Procedure VPD$INITIALIZE requires 325 words for executable code.
   Procedure VPD$INITIALIZE requires 50 words of local(AUTO) storage.

PL6.E3A0      #021=VPD$INITIALIZE File=VPD$UTIL.:E05TSI                          WED 07/30/97 07:43 Page:487

 Object Unit name= VPD$INITIALIZE                             File name= VPD$UTIL.:E05TOU
 UTS= JUL 30 '97 07:43:06.16 WED                              Compiler= PL-6/E31         Sev=      00
 SharedLib= :SHARED_SYSTEM                                    Alt SharedLib=


    ****  Control sections  ****

 Sect   Type Bound  Init  Size OctSiz  Section name(segment info)
    0   DCB   even  none     0      0  M$UC
    1   DCB   even  none     0      0  M$EI
    2   DCB   even  none     0      0  M$EO
    3   DCB   even  none     0      0  M$EO1
    4   DCB   even  none     0      0  M$ME
    5   DCB   even  none     0      0  M$SI
    6   DCB   even  none     0      0  M$READFILE
    7   DCB   even  none     0      0  M$DO
    8   DCB   even  none     0      0  M$STD1
    9   DCB   even  none     0      0  M$SORT1
   10  RoData even  UTS    225    341  VPD$INITIALIZE
   11   Data  even  none     8     10  VPD$INITIALIZE
   12   Proc  even  none   325    505  VPD$INITIALIZE
   13  RoData even  none    14     16  VPD$INITIALIZE

    ****  Entry defs  ****

                              Check   Calling
                             calling  sequence
  Sect OctLoc Primary Altret sequence   type   Parms  Name
    12      0   yes            yes      Std        0  VPD$INITIALIZE
PL6.E3A0      #021=VPD$INITIALIZE File=VPD$UTIL.:E05TSI                          WED 07/30/97 07:43 Page:488

  ****  Entry refs  ****

         Check        Calling
        calling       sequence
Altret sequence SRef   type   Args  Name
         yes          Async      0 XUG$BREAK
         yes           Std       0 VPD$ABORT
         yes           Std       0 VPD$CONTINUE
         yes           Std       8 VPL$ERR_PROC
         yes           Std       0 VPK$PCL_INVOCATION
         yes           Std       0 VPD$INIT_BUF
 yes     yes           Std       1 X$PRE_PROCESS
 yes     yes           Std       0 VPD$BREAK
 yes     yes           Std       2 XTX$ADAPT
         yes           Std       1 VPD$U$
 yes     yes           Std       1 XUG$GETCMD
 yes     yes           Std       2 XUG$INIT
                       Std       0 B_CONSPOOL_D
                       nStd      0 X66_AUTO_0
                       nStd      0 X66_ARET
PL6.E3A0      #021=VPD$INITIALIZE File=VPD$UTIL.:E05TSI                          WED 07/30/97 07:43 Page:489

  ****  Data refs  ****

  Flags:  r = read only, s = secondary
Flgs Name                             Flgs Name                             Flgs Name
     M$UC                                  PARSE_WORK_AREA                       STD_WORK$
     SUCCESS_NODE                          COMMAND_STUFFED                       PRE_PARSED
     PCB                                   GETCMD                                ERR_FLG
     ABORT_CMD                             ERR_CODE                              TEST_PATTERN
     TEST_MODE                             FROM_SYS                              BREAK_LOC
     BREAK_MESSAGE_REPORTER                ME_WIDTH                              SPEC_BUF
     ONE_TIME                              TABS                                  EO_OCB
     IN_RES                                KEY_AREA$                             M$EI
     M$EI$                                 M$EI#                                 M$EO
     M$EO$                                 M$EO#                                 M$EO1
     M$EO1$                                M$EO1#                                M$ME
     M$ME$                                 M$ME#                                 M$SI
     M$SI$                                 M$SI#                                 M$READFILE
     M$READFILE$                           M$READFILE#                           M$DO
     M$DO$                                 M$DO#                                 M$UC$
     M$UC#                                 M$STD1                                M$STD1$
     M$STD1#                               M$SORT1                               M$SORT1$
     M$SORT1#                              B$JIT$                                TOP_PCL_CMD
     FPT_OPEN_OUT_SAVE                     FPT_OPEN_OUT                          FPT_OPEN_EI
     FPT_OPEN_EI_SAVE                      FPT_WRITE_ME                          B_VERSION
     B_VECTNIL

  ****  Segment refs  ****

  Flags:  r = read only, s = secondary
Flgs Name                             Flgs Name                             Flgs Name
     ISSID                                 NULLSID                               ROSID
PL6.E3A0      #021=VPD$INITIALIZE File=VPD$UTIL.:E05TSI                          WED 07/30/97 07:43 Page:490


     1807        1        /*T***********************************************************/
     1808        2        /*T*                                                         */
     1809        3        /*T* Copyright (c) Bull HN Information Systems Inc., 1997    */
     1810        4        /*T*                                                         */
     1811        5        /*T***********************************************************/
     1812        6        VPD$INITIALIZE: PROC;

      6 12 000000   000000 700200 xent  VPD$INITIAL* TSX0  ! X66_AUTO_0
        12 000001   000062 000000                    ZERO    50,0

     1813        7        /*I* NAME: VPD$INITIALIZE
     1814        8             PURPOSE: To perform necessary initialization duties on startup
     1815        9             CALL: CALL VPD$INITIALIZE;
     1816       10             DESCRIPTION: On entering PCL, this procedure is used to initialize M$EO,
     1817       11                          OPEN M$ME and M$DO and check them for usability,
     1818       12                          initialize several data items, and possibly output a
     1819       13                          greeting.
     1820       14        */
     1821       15        %INCLUDE VP_DATA_R;
     1822     7002        %INCLUDE B$JIT;
     1823     7292        %INCLUDE F$DCB;
     1824     7341        %FPT_OPEN(FPTN = FPT_OPEN_ME,
     1825     7342                  DCB  = M$ME,
     1826     7343                  FUN  = CREATE,
     1827     7344                  EXIST = OLDFILE,
     1828     7345                  ORG = CONSEC,
     1829     7346                  TEST = YES,
     1830     7347                  STCLASS = CONSTANT);
     1831     7456        %FPT_OPEN(FPTN = FPT_OPEN_DO,
     1832     7457                  DCB  = M$DO,
     1833     7458                  FUN  = CREATE,
     1834     7459                  ORG = CONSEC,
     1835     7460                  TEST = YES,
     1836     7461                  STCLASS = CONSTANT);
     1837     7570    1   DCL CODE UBIN;
     1838     7571        %FPT_INT(FPTN = FPT_INT,
PL6.E3A0      #021=VPD$INITIALIZE File=VPD$UTIL.:E05TSI                          WED 07/30/97 07:43 Page:491
     1839     7572                 UENTRY=XUG$BREAK,
     1840     7573                 STCLASS = CONSTANT);
     1841     7587        %FPT_OPEN(FPTN = FPT_SETUP_EO,
     1842     7588                  DCB  = M$EO,
     1843     7589                  SETDCB = YES,
     1844     7590                  ASN = DEVICE,
     1845     7591                  RES = 'ME  ',
     1846     7592                  STCLASS = CONSTANT);
     1847     7701        %XUG_INIT     (NAME=XUG_INIT,
     1848     7702                       STCLASS=CONSTANT,
     1849     7703                       COMMANDS=YES,
     1850     7704                       PREPROCESS=YES,
     1851     7705                       SYNTAX=YES,
     1852     7706                       GOODCMD=YES,
     1853     7707                       SPELLING=YES,
     1854     7708                       ECHO=HONOR_FLAG,
     1855     7709                       PASS=BLANK,
     1856     7710                       ABORT=VPD$ABORT,
     1857     7711                       BRKMSG=VPD$BREAK,
     1858     7712                       CONTINUE=VPD$CONTINUE,
     1859     7713                       PREPROCESSOR=X$PRE_PROCESS);
     1860     8126        %XUG_INIT     (NAME=XUG_INIT_AUTO, STCLASS=AUTO);
     1861     8539    1   DCL GREET_BUF CHAR(30) STATIC;          /* Will hold PCL greeting             */
     1862     8540    1   DCL B_VERSION CHAR(1) SYMREF;           /* LINKER-supplied Version Number     */
     1863     8541    1   DCL 1 TEXT$C BASED,
     1864     8542    1         2 COUNT UBIN(9) UNAL,
     1865     8543    1         2 TEXT CHAR(TEXT$C.COUNT) UNAL;   /* Structure for RELVER from LINKER   */
     1866     8544    1   DCL BAD_DCB_NUM UBIN;
     1867     8545    1   DCL I UBIN;
     1868     8546        /**/
     1869     8547        /* ENTRY POINTS  */
     1870     8548        /**/
     1871     8549        %VP_ENTRIES (OMIT=VPD$INITIALIZE);
     1872     8757    1   DCL X$PRE_PROCESS ENTRY (1) ALTRET;
     1873     8758        %INCLUDE XUG_ENTRY;
     1874     8789        %PARSE$OUT(STCLASS = BASED);
     1875     8834    1           XUG_INIT_AUTO = XUG_INIT;
PL6.E3A0      #021=VPD$INITIALIZE File=VPD$UTIL.:E05TSI                          WED 07/30/97 07:43 Page:492

   8834 12 000002   000100 100400                    MLR     fill='000'O
        12 000003   000262 000220 10                 ADSC9   XUG_INIT                 cn=0,n=144
        12 000004   200004 000220                    ADSC9   XUG_INIT_AUTO,,AUTO      cn=0,n=144

     1876     8835    1           CALL XUG$INIT (GETCMD, XUG_INIT_AUTO)

   8835 12 000005   200004 630500                    EPPR0   XUG_INIT_AUTO,,AUTO
        12 000006   200053 450500                    STP0    I+2,,AUTO
        12 000007   000000 236000 13                 LDQ     0
        12 000010   200052 756100                    STQ     I+1,,AUTO
        12 000011   200052 630500                    EPPR0   I+1,,AUTO
        12 000012   000020 631400 xsym               EPPR1   B_VECTNIL+16
        12 000013   000000 701000 xent               TSX1    XUG$INIT
        12 000014   000016 702000 12                 TSX2    s:8837
        12 000015   000020 710000 12                 TRA     s:8839

     1877     8836    2            WHENALTRETURN DO;

     1878     8837    2               CALL M$ERR;

   8837 12 000016   000002 713400                    CLIMB   err
        12 000017   000000 401760                    pmme    nvectors=0

     1879     8838    2               END;

     1880     8839    1           GETCMD.OUTDCB# = M$ME#;

   8839 12 000020   000000 235000 xsym               LDA     M$ME#
        12 000021   000013 755000 xsym               STA     GETCMD+11

     1881     8840    1           GETCMD.DCB_PARAM# = M$ME#;

   8840 12 000022   000014 755000 xsym               STA     GETCMD+12

     1882     8841    1           GETCMD.DCB2_PARAM# = M$DO#;

PL6.E3A0      #021=VPD$INITIALIZE File=VPD$UTIL.:E05TSI                          WED 07/30/97 07:43 Page:493
   8841 12 000023   000000 236000 xsym               LDQ     M$DO#
        12 000024   000015 756000 xsym               STQ     GETCMD+13

     1883     8842    1           GETCMD.NODES$ = ADDR(TOP_PCL_CMD);

   8842 12 000025   000001 236000 13                 LDQ     1
        12 000026   000000 756000 xsym               STQ     GETCMD

     1884     8843    1           BREAK_LOC_BITS = '0'B;

   8843 12 000027   000000 235003                    LDA     0,DU
        12 000030   000000 236003                    LDQ     0,DU
        12 000031   000000 757000 xsym               STAQ    BREAK_LOC

     1885     8844    1           STD_WORK$ = ADDR(NIL);

   8844 12 000032   000001 236000 xsym               LDQ     B_VECTNIL+1
        12 000033   000000 756000 xsym               STQ     STD_WORK$

     1886     8845    1           KEY_AREA$ = ADDR(NIL);

   8845 12 000034   000000 756000 xsym               STQ     KEY_AREA$

     1887     8846    1           REMEMBER PARSE_ALT IN ABORT_CMD;

   8846 12 000035   000362 635000 12                 EAA     PARSE_ALT
        12 000036   000000 452400 xsym               STP2    ABORT_CMD
        12 000037   000001 755000 xsym               STA     ABORT_CMD+1

     1888     8847    1           TABS = '0'B;

   8847 12 000040   000000 100400                    MLR     fill='000'O
        12 000041   000002 000001 xsym               ADSC9   B_VECTNIL+2              cn=0,n=1
        12 000042   000000 000037 xsym               ADSC9   TABS                     cn=0,n=31

     1889     8848    1           ERR_CODE = '000000000007'O;     /* Severity = 7                       */

PL6.E3A0      #021=VPD$INITIALIZE File=VPD$UTIL.:E05TSI                          WED 07/30/97 07:43 Page:494
   8848 12 000043   000011 236000 xsym               LDQ     B_VECTNIL+9
        12 000044   000000 756000 xsym               STQ     ERR_CODE

     1890     8849    1           M$EI$ = DCBADDR(M$EI#);

   8849 12 000045   000002 470400 13                 LDP0    2
        12 000046   000000 471500                    LDP1    0,,PR0
        12 000047   000000 720000 xsym               LXL0    M$EI#
        12 000050   100000 236110                    LDQ     0,X0,PR1
        12 000051   000000 756000 xsym               STQ     M$EI$

     1891     8850    1           M$EO$ = DCBADDR(M$EO#);

   8850 12 000052   000000 721000 xsym               LXL1    M$EO#
        12 000053   100000 236111                    LDQ     0,X1,PR1
        12 000054   000000 756000 xsym               STQ     M$EO$

     1892     8851    1           M$EO1$ = DCBADDR(M$EO1#);

   8851 12 000055   000000 722000 xsym               LXL2    M$EO1#
        12 000056   100000 236112                    LDQ     0,X2,PR1
        12 000057   000000 756000 xsym               STQ     M$EO1$

     1893     8852    1           M$ME$ = DCBADDR(M$ME#);

   8852 12 000060   000000 723000 xsym               LXL3    M$ME#
        12 000061   100000 236113                    LDQ     0,X3,PR1
        12 000062   000000 756000 xsym               STQ     M$ME$

     1894     8853    1           M$SI$ = DCBADDR(M$SI#);

   8853 12 000063   000000 724000 xsym               LXL4    M$SI#
        12 000064   100000 236114                    LDQ     0,X4,PR1
        12 000065   000000 756000 xsym               STQ     M$SI$

     1895     8854    1           M$DO$ = DCBADDR(M$DO#);

PL6.E3A0      #021=VPD$INITIALIZE File=VPD$UTIL.:E05TSI                          WED 07/30/97 07:43 Page:495
   8854 12 000066   000000 725000 xsym               LXL5    M$DO#
        12 000067   100000 236115                    LDQ     0,X5,PR1
        12 000070   000000 756000 xsym               STQ     M$DO$

     1896     8855    1           M$READFILE$ = DCBADDR(M$READFILE#);

   8855 12 000071   000000 726000 xsym               LXL6    M$READFILE#
        12 000072   100000 236116                    LDQ     0,X6,PR1
        12 000073   000000 756000 xsym               STQ     M$READFILE$

     1897     8856    1           M$STD1$ = DCBADDR(M$STD1#);

   8856 12 000074   000000 727000 xsym               LXL7    M$STD1#
        12 000075   100000 236117                    LDQ     0,X7,PR1
        12 000076   000000 756000 xsym               STQ     M$STD1$

     1898     8857    1           M$UC$ = DCBADDR(M$UC#);

   8857 12 000077   000000 720000 xsym               LXL0    M$UC#
        12 000100   100000 236110                    LDQ     0,X0,PR1
        12 000101   000000 756000 xsym               STQ     M$UC$

     1899     8858    1           M$SORT1$ = DCBADDR(M$SORT1#);

   8858 12 000102   000000 720000 xsym               LXL0    M$SORT1#
        12 000103   100000 236110                    LDQ     0,X0,PR1
        12 000104   000000 756000 xsym               STQ     M$SORT1$

     1900     8859    1           IF (B$JIT.SWITCH & '777777777000'O)=TEST_PATTERN

   8859 12 000105   000000 473400 xsym               LDP3    B$JIT$
        12 000106   300031 236100                    LDQ     25,,PR3
        12 000107   000326 376000 10                 ANQ     XUG_INIT+36
        12 000110   000000 116000 xsym               CMPQ    TEST_PATTERN
        12 000111   000115 601000 12                 TNZ     s:8863

     1901     8860    1            THEN
PL6.E3A0      #021=VPD$INITIALIZE File=VPD$UTIL.:E05TSI                          WED 07/30/97 07:43 Page:496
     1902     8861    1              TEST_MODE = 1;

   8861 12 000112   000001 236007                    LDQ     1,DL
        12 000113   000000 756000 xsym               STQ     TEST_MODE
        12 000114   000116 710000 12                 TRA     s:8864

     1903     8862    1            ELSE
     1904     8863    1              TEST_MODE = 0;

   8863 12 000115   000000 450000 xsym               STZ     TEST_MODE

     1905     8864    1           IF M$UC$->F$DCB.DDEV.IC         /* DOES IT LOOK LIKE A TERMINAL?      */

   8864 12 000116   000000 474400 xsym               LDP4    M$UC$
        12 000117   400004 236100                    LDQ     4,,PR4
        12 000120   100000 316007                    CANQ    32768,DL
        12 000121   000125 600000 12                 TZE     s:8868

     1906     8865    1            THEN
     1907     8866    1              CALL M$INT(FPT_INT);         /* SET UP BREAK CONTROL ONLY IF       */

   8866 12 000122   000164 630400 10                 EPPR0   FPT_INT
        12 000123   010002 713400                    CLIMB   4098
        12 000124   400000 401760                    pmme    nvectors=1

     1908     8867                                                /* M$UC CAN HEAR AND RESPOND          */
     1909     8868    1           EO_OCB = '0'B;

   8868 12 000125   000000 100400                    MLR     fill='000'O
        12 000126   000002 000001 xsym               ADSC9   B_VECTNIL+2              cn=0,n=1
        12 000127   000000 001370 xsym               ADSC9   EO_OCB                   cn=0,n=760

     1910     8869    1           EO_OCB.DEV_MASK = '040'O;       /* DEVICE flavor                      */

   8869 12 000130   040000 236003                    LDQ     16384,DU
        12 000131   000255 756000 xsym               STQ     EO_OCB+173

PL6.E3A0      #021=VPD$INITIALIZE File=VPD$UTIL.:E05TSI                          WED 07/30/97 07:43 Page:497
     1911     8870    1           CALL M$OPEN(FPT_SETUP_EO);      /* SET M$EO TO BE DEVICE ME           */

   8870 12 000132   000170 630400 10                 EPPR0   FPT_SETUP_EO
        12 000133   050000 713400                    CLIMB   open
        12 000134   410400 401760                    pmme    nvectors=18

     1912     8871                                                /**********************/
     1913     8872                                                /*    OPEN M$ME                       */
     1914     8873                                                /**********************/
     1915     8874    1           BAD_DCB_NUM = DCBNUM(M$ME);

   8874 12 000135   000000 236007 xsym               LDQ     M$ME,DL
        12 000136   200050 756100                    STQ     BAD_DCB_NUM,,AUTO

     1916     8875    1           IF NOT M$ME$ -> F$DCB.FCD

   8875 12 000137   000000 470400 xsym               LDP0    M$ME$
        12 000140   000031 236100                    LDQ     25,,PR0
        12 000141   020000 316007                    CANQ    8192,DL
        12 000142   000147 601000 12                 TNZ     s:8878

     1917     8876    1            THEN                           /* Gotta OPEN M$ME                    */
     1918     8877    1              CALL M$OPEN(FPT_OPEN_ME) ALTRET(BAD_DIAG_DCB);

   8877 12 000143   000000 630400 10                 EPPR0   FPT_OPEN_ME
        12 000144   450000 713400                    CLIMB   alt,open
        12 000145   410400 401760                    pmme    nvectors=18
        12 000146   000225 702000 12                 TSX2    BAD_DIAG_DCB

     1919     8878    1           IF M$ME$ -> F$DCB.ORG = %KEYED#

   8878 12 000147   000000 470400 xsym               LDP0    M$ME$
        12 000150   000032 236100                    LDQ     26,,PR0
        12 000151   777000 376003                    ANQ     -512,DU
        12 000152   002000 116003                    CMPQ    1024,DU
        12 000153   000225 600000 12                 TZE     BAD_DIAG_DCB
        12 000154   003000 116003                    CMPQ    1536,DU
PL6.E3A0      #021=VPD$INITIALIZE File=VPD$UTIL.:E05TSI                          WED 07/30/97 07:43 Page:498
        12 000155   000225 600000 12                 TZE     BAD_DIAG_DCB
        12 000156   007000 116003                    CMPQ    3584,DU
        12 000157   000225 600000 12                 TZE     BAD_DIAG_DCB
        12 000160   013000 116003                    CMPQ    5632,DU
        12 000161   000225 600000 12                 TZE     BAD_DIAG_DCB

     1920     8879    1             OR M$ME$ -> F$DCB.ORG = %RANDOM#
     1921     8880    1             OR M$ME$ -> F$DCB.ORG = %IDS#
     1922     8881    1             OR M$ME$ -> F$DCB.ORG = %CG#
     1923     8882    1            THEN                           /* A key required to WRITE here       */
     1924     8883    1              GOTO BAD_DIAG_DCB;
     1925     8884    1           ME_WIDTH = M$ME$->F$DCB.WIDTH;

   8884 12 000162   000004 236100                    LDQ     4,,PR0
        12 000163   000777 376007                    ANQ     511,DL
        12 000164   000000 756000 xsym               STQ     ME_WIDTH

     1926     8885    1           IF ME_WIDTH>132

   8885 12 000165   000205 116007                    CMPQ    133,DL
        12 000166   000172 602000 12                 TNC     s:8889

     1927     8886    1            THEN
     1928     8887    1              ME_WIDTH = 132;

   8887 12 000167   000204 235007                    LDA     132,DL
        12 000170   000000 755000 xsym               STA     ME_WIDTH
        12 000171   000176 710000 12                 TRA     s:8892

     1929     8888    1            ELSE
     1930     8889    1              IF ME_WIDTH<=0

   8889 12 000172   000000 116003                    CMPQ    0,DU
        12 000173   000176 601000 12                 TNZ     s:8892

     1931     8890    1               THEN
     1932     8891    1                 ME_WIDTH = 80;
PL6.E3A0      #021=VPD$INITIALIZE File=VPD$UTIL.:E05TSI                          WED 07/30/97 07:43 Page:499

   8891 12 000174   000120 235007                    LDA     80,DL
        12 000175   000000 755000 xsym               STA     ME_WIDTH

     1933     8892    1           BAD_DCB_NUM = DCBNUM(M$DO);

   8892 12 000176   000000 236007 xsym               LDQ     M$DO,DL
        12 000177   200050 756100                    STQ     BAD_DCB_NUM,,AUTO

     1934     8893    1           IF ~ M$DO$ -> F$DCB.FCD

   8893 12 000200   000000 471400 xsym               LDP1    M$DO$
        12 000201   100031 236100                    LDQ     25,,PR1
        12 000202   000026 736000                    QLS     22
        12 000203   400000 376003                    ANQ     -131072,DU
        12 000204   400000 676003                    ERQ     -131072,DU
        12 000205   000212 600000 12                 TZE     s:8896

     1935     8894    1            THEN                           /* M$DO closed                        */
     1936     8895    1              CALL M$OPEN(FPT_OPEN_DO) ALTRET(BAD_DIAG_DCB);

   8895 12 000206   000072 630400 10                 EPPR0   FPT_OPEN_DO
        12 000207   450000 713400                    CLIMB   alt,open
        12 000210   410400 401760                    pmme    nvectors=18
        12 000211   000225 702000 12                 TSX2    BAD_DIAG_DCB

     1937     8896    1           IF M$DO$ -> F$DCB.ORG = %KEYED#

   8896 12 000212   000000 470400 xsym               LDP0    M$DO$
        12 000213   000032 236100                    LDQ     26,,PR0
        12 000214   777000 376003                    ANQ     -512,DU
        12 000215   002000 116003                    CMPQ    1024,DU
        12 000216   000225 600000 12                 TZE     BAD_DIAG_DCB
        12 000217   003000 116003                    CMPQ    1536,DU
        12 000220   000225 600000 12                 TZE     BAD_DIAG_DCB
        12 000221   007000 116003                    CMPQ    3584,DU
        12 000222   000225 600000 12                 TZE     BAD_DIAG_DCB
PL6.E3A0      #021=VPD$INITIALIZE File=VPD$UTIL.:E05TSI                          WED 07/30/97 07:43 Page:500
        12 000223   013000 116003                    CMPQ    5632,DU
        12 000224   000243 601000 12                 TNZ     s:8906

     1938     8897    1             OR M$DO$ -> F$DCB.ORG = %RANDOM#
     1939     8898    1             OR M$DO$ -> F$DCB.ORG = %IDS#
     1940     8899    1             OR M$DO$ -> F$DCB.ORG = %CG#
     1941     8900    1            THEN                           /* A key required to WRITE here       */
     1942     8901    1   BAD_DIAG_DCB: CALL VPL$ERR_PROC(4,220,'04'O,,,,BAD_DCB_NUM);

   8901 12 000225   200050 630500       BAD_DIAG_DCB EPPR0   BAD_DCB_NUM,,AUTO
        12 000226   200060 450500                    STP0    I+7,,AUTO
        12 000227   000001 236000 xsym               LDQ     B_VECTNIL+1
        12 000230   000001 235000 xsym               LDA     B_VECTNIL+1
        12 000231   200056 757100                    STAQ    I+5,,AUTO
        12 000232   000001 236000 xsym               LDQ     B_VECTNIL+1
        12 000233   000005 235000 13                 LDA     5
        12 000234   200054 757100                    STAQ    I+3,,AUTO
        12 000235   000006 237000 13                 LDAQ    6
        12 000236   200052 757100                    STAQ    I+1,,AUTO
        12 000237   200052 630500                    EPPR0   I+1,,AUTO
        12 000240   000025 631400 xsym               EPPR1   B_VECTNIL+21
        12 000241   000000 701000 xent               TSX1    VPL$ERR_PROC
        12 000242   000000 011000                    NOP     0

     1943     8902        /*E* ERROR:   VPD-00220
     1944     8903             MESSAGE: %DC is unsuitable for writing error messages.
     1945     8904            MESSAGE1: %DC either requires keys or could not be opened.
     1946     8905        */
     1947     8906    1           PCB.WORK$ = ADDR(PARSE_WORK_AREA);

   8906 12 000243   000010 236000 13                 LDQ     8
        12 000244   000002 756000 xsym               STQ     PCB+2

     1948     8907    1           PCB.WKSZ = SIZEW(PARSE_WORK_AREA);

   8907 12 000245   001001 220003                    LDX0    513,DU
        12 000246   000005 740000 xsym               STX0    PCB+5
PL6.E3A0      #021=VPD$INITIALIZE File=VPD$UTIL.:E05TSI                          WED 07/30/97 07:43 Page:501

     1949     8908    1           PCB.U$$ = ENTADDR(VPD$U$);

   8908 12 000247   000000 636000 xent               EAQ     VPD$U$
        12 000250   000004 756000 xsym               STQ     PCB+4

     1950     8909    1           PCB.CONTINUE = '0'B;            /* Don't allow continuation           */

   8909 12 000251   000011 236000 13                 LDQ     9
        12 000252   000005 356000 xsym               ANSQ    PCB+5

     1951     8910    1           SUCCESS_NODE = '0'B;            /* We haven't had any parsing success */

   8910 12 000253   000000 450000 xsym               STZ     SUCCESS_NODE

     1952     8911    1           IF B$JIT.CCARS = 0 OR TEST_MODE = 1

   8911 12 000254   000000 470400 xsym               LDP0    B$JIT$
        12 000255   000032 221100                    LDX1    26,,PR0
        12 000256   000262 600000 12                 TZE     s:8913
        12 000257   000000 235000 xsym               LDA     TEST_MODE
        12 000260   000001 115007                    CMPA    1,DL
        12 000261   000265 601000 12                 TNZ     s:8915

     1953     8912    1            THEN
     1954     8913    1              CODE = 38;              /* fake parse if linked to with nil bfr    */

   8913 12 000262   000046 235007                    LDA     38,DL
        12 000263   200003 755100                    STA     CODE,,AUTO
        12 000264   000345 710000 12                 TRA     s:8934

     1955     8914    2            ELSE DO;

     1956     8915    2               I=0;

   8915 12 000265   200051 450100                    STZ     I,,AUTO

PL6.E3A0      #021=VPD$INITIALIZE File=VPD$UTIL.:E05TSI                          WED 07/30/97 07:43 Page:502
     1957     8916    3               DO WHILE SUBSTR(B$JIT.CCBUF,I,1)='!';

   8916 12 000266   000272 710000 12                 TRA     s:8918

     1958     8917    3                  I=I+1;

   8917 12 000267   200051 235100                    LDA     I,,AUTO
        12 000270   000001 035007                    ADLA    1,DL
        12 000271   200051 755100                    STA     I,,AUTO

     1959     8918    3                  END;

   8918 12 000272   000000 470400 xsym               LDP0    B$JIT$
        12 000273   200051 235100                    LDA     I,,AUTO
        12 000274   040000 106505                    CMPC    fill='040'O
        12 000275   000033 000001                    ADSC9   27,A,PR0                 cn=0,n=1
        12 000276   000012 000001 13                 ADSC9   10                       cn=0,n=1
        12 000277   000267 600000 12                 TZE     s:8917

     1960     8919    2               GETCMD.TEXT_ = VECTOR (SUBSTR (B$JIT.CCBUF, 0, B$JIT.CCARS-I));

   8919 12 000300   000032 236100                    LDQ     26,,PR0
        12 000301   000022 732000                    QRS     18
        12 000302   200051 136100                    SBLQ    I,,AUTO
        12 000303   000064 737000                    LLS     52
        12 000304   000140 135007                    SBLA    96,DL
        12 000305   000000 236000 xsym               LDQ     B$JIT$
        12 000306   000033 036003                    ADLQ    27,DU
        12 000307   000034 757000 xsym               STAQ    GETCMD+28

     1961     8920    2               VBASE(GETCMD.TEXT_)=PINCRC(VBASE(GETCMD.TEXT_),I);

   8920 12 000310   200051 236100                    LDQ     I,,AUTO
        12 000311   000020 736000                    QLS     16
        12 000312   000035 036000 xsym               ADLQ    GETCMD+29
        12 000313   000035 756000 xsym               STQ     GETCMD+29

PL6.E3A0      #021=VPD$INITIALIZE File=VPD$UTIL.:E05TSI                          WED 07/30/97 07:43 Page:503
     1962     8921    2               CALL XUG$GETCMD (GETCMD) ALTRET (PARSE_ALT);

   8921 12 000314   000000 630400 13                 EPPR0   0
        12 000315   000017 631400 xsym               EPPR1   B_VECTNIL+15
        12 000316   000000 701000 xent               TSX1    XUG$GETCMD
        12 000317   000362 702000 12                 TSX2    PARSE_ALT

     1963     8922    2               IF GETCMD.OUT$=ADDR(NIL) THEN

   8922 12 000320   000001 236000 xsym               LDQ     GETCMD+1
        12 000321   000001 116000 xsym               CMPQ    B_VECTNIL+1
        12 000322   000326 601000 12                 TNZ     s:8925

     1964     8923    2                  CODE=38;                 /* Fake an end                        */

   8923 12 000323   000046 235007                    LDA     38,DL
        12 000324   200003 755100                    STA     CODE,,AUTO
        12 000325   000345 710000 12                 TRA     s:8934

     1965     8924    3                ELSE DO;

     1966     8925    3                   PCB.OUT$ = GETCMD.OUT$;

   8925 12 000326   000003 756000 xsym               STQ     PCB+3

     1967     8926    3                   CODE = PCB.OUT$ -> OUT$BLK.CODE;

   8926 12 000327   000003 470400 xsym               LDP0    PCB+3
        12 000330   000000 236100                    LDQ     0,,PR0
        12 000331   777777 376007                    ANQ     -1,DL
        12 000332   200003 756100                    STQ     CODE,,AUTO

     1968     8927    3                   IF CODE = 38 AND

   8927 12 000333   000046 116007                    CMPQ    38,DL
        12 000334   000345 601000 12                 TNZ     s:8934
        12 000335   000001 220100                    LDX0    1,,PR0
PL6.E3A0      #021=VPD$INITIALIZE File=VPD$UTIL.:E05TSI                          WED 07/30/97 07:43 Page:504
        12 000336   000345 600000 12                 TZE     s:8934
        12 000337   000003 471500                    LDP1    3,,PR0
        12 000340   100000 721100                    LXL1    0,,PR1
        12 000341   000345 600000 12                 TZE     s:8934

     1969     8928    3                     PCB.OUT$ -> OUT$BLK.NSUBLKS ~= 0 AND
     1970     8929    3                     PCB.OUT$ -> OUT$BLK.SUBLK$(0) -> OUT$BLK.CODE ~= 0
     1971     8930    3                    THEN
     1972     8931    3                      CALL VPK$PCL_INVOCATION;

   8931 12 000342   000002 631400 xsym               EPPR1   B_VECTNIL+2
        12 000343   000000 701000 xent               TSX1    VPK$PCL_INVOCATION
        12 000344   000000 011000                    NOP     0

     1973     8932    3                   END;

     1974     8933    2               END;

     1975     8934    1           IF CODE = 38

   8934 12 000345   200003 235100                    LDA     CODE,,AUTO
        12 000346   000046 115007                    CMPA    38,DL
        12 000347   000354 601000 12                 TNZ     s:8943

     1976     8935    1            THEN                           /* A 'PCL' invocation                 */
     1977     8936    2            DO;

     1978     8937    2               ONE_TIME = 0;               /* Not a one-shot                     */

   8937 12 000350   000000 450000 xsym               STZ     ONE_TIME

     1979     8938    2               COMMAND_STUFFED = '0'B;     /* We need a new command              */

   8938 12 000351   000000 450000 xsym               STZ     COMMAND_STUFFED

     1980     8939    2               PRE_PARSED = '0'B;          /* And it'll need parsing             */

PL6.E3A0      #021=VPD$INITIALIZE File=VPD$UTIL.:E05TSI                          WED 07/30/97 07:43 Page:505
   8939 12 000352   000000 450000 xsym               STZ     PRE_PARSED

     1981     8940    2               END;

   8940 12 000353   000361 710000 12                 TRA     s:8947

     1982     8941    1            ELSE                           /* Not an invocation                  */
     1983     8942    2            DO;

     1984     8943    2               ONE_TIME = 1;               /* A one-shot command                 */

   8943 12 000354   000001 236007                    LDQ     1,DL
        12 000355   000000 756000 xsym               STQ     ONE_TIME

     1985     8944    2               PRE_PARSED = '1'B;          /* We've already done the parsing     */

   8944 12 000356   400000 236003                    LDQ     -131072,DU
        12 000357   000000 756000 xsym               STQ     PRE_PARSED

     1986     8945    2               COMMAND_STUFFED = '1'B;     /* And we needn't READ it again       */

   8945 12 000360   000000 756000 xsym               STQ     COMMAND_STUFFED

     1987     8946    2               END;

     1988     8947    2           DO WHILE ('0'B);                /* Never do                           */

   8947 12 000361   000366 710000 12                 TRA     s:8951

     1989     8948    2   PARSE_ALT: ONE_TIME = 1;                /* Bad implicit call                  */

   8948 12 000362   000001 235007       PARSE_ALT    LDA     1,DL
        12 000363   000000 755000 xsym               STA     ONE_TIME

     1990     8949    2              ERR_FLG = '1'B;              /* Dont reparse this junk             */

   8949 12 000364   400000 236003                    LDQ     -131072,DU
PL6.E3A0      #021=VPD$INITIALIZE File=VPD$UTIL.:E05TSI                          WED 07/30/97 07:43 Page:506
        12 000365   000000 756000 xsym               STQ     ERR_FLG

     1991     8950    2              END;

     1992     8951    1           IF ONE_TIME = 0

   8951 12 000366   000000 235000 xsym               LDA     ONE_TIME
        12 000367   000473 601000 12                 TNZ     s:8978

     1993     8952    1            THEN                           /* Not a one-shot                     */
     1994     8953    2            DO;                            /* We must select a greeting          */

     1995     8954    2               IF TEST_MODE=1

   8954 12 000370   000000 236000 xsym               LDQ     TEST_MODE
        12 000371   000001 116007                    CMPQ    1,DL
        12 000372   000401 601000 12                 TNZ     s:8961

     1996     8955    2                THEN
     1997     8956    3                DO;

     1998     8957    3                   FROM_SYS = '1'B;

   8957 12 000373   400000 236003                    LDQ     -131072,DU
        12 000374   000000 756000 xsym               STQ     FROM_SYS

     1999     8958    3                   GREET_BUF = 'PCL TEST-MODE HERE';

   8958 12 000375   040000 100400                    MLR     fill='040'O
        12 000376   000327 000022 10                 ADSC9   XUG_INIT+37              cn=0,n=18
        12 000377   000000 000036 11                 ADSC9   GREET_BUF                cn=0,n=30

     2000     8959    3                   END;

   8959 12 000400   000457 710000 12                 TRA     s:8972

     2001     8960    2                ELSE
PL6.E3A0      #021=VPD$INITIALIZE File=VPD$UTIL.:E05TSI                          WED 07/30/97 07:43 Page:507
     2002     8961    2                  IF B$JIT$ -> B$JIT.RUNFLAGS & %RUN_PROC#

   8961 12 000401   000000 470400 xsym               LDP0    B$JIT$
        12 000402   000314 236100                    LDQ     204,,PR0
        12 000403   000022 736000                    QLS     18
        12 000404   777000 376003                    ANQ     -512,DU
        12 000405   002000 376003                    ANQ     1024,DU
        12 000406   000436 600000 12                 TZE     s:8969

     2003     8962    2                   THEN                    /* PCL is running as a processor      */
     2004     8963    3                   DO;

     2005     8964    3                      FROM_SYS = '1'B;     /* Set a flag bit                     */

   8964 12 000407   400000 236003                    LDQ     -131072,DU
        12 000410   000000 756000 xsym               STQ     FROM_SYS

     2006     8965    3                      CALL CONCAT(GREET_BUF,'PCL ',ADDR(B_VERSION) -> TEXT$C.TEXT,
              8965                               ' here');

   8965 12 000411   000000 236000 xsym               LDQ     B_VERSION
        12 000412   000033 772000                    QRL     27
        12 000413   000000 620006                    EAX0    0,QL
        12 000414   000327 236000 10                 LDQ     XUG_INIT+37
        12 000415   000000 756000 11                 STQ     GREET_BUF
        12 000416   040000 100440                    MLR     fill='040'O
        12 000417   000000 200010 xsym               ADSC9   B_VERSION                cn=1,n=*X0
        12 000420   000001 000032 11                 ADSC9   GREET_BUF+1              cn=0,n=26
        12 000421   000000 636010                    EAQ     0,X0
        12 000422   000022 772000                    QRL     18
        12 000423   000032 116007                    CMPQ    26,DL
        12 000424   000435 603000 12                 TRC     s:8966
        12 000425   200052 740100                    STX0    I+1,,AUTO
        12 000426   777745 620010                    EAX0    -27,X0
        12 000427   777777 660003                    ERX0    -1,DU
        12 000430   200052 236100                    LDQ     I+1,,AUTO
        12 000431   000022 772000                    QRL     18
PL6.E3A0      #021=VPD$INITIALIZE File=VPD$UTIL.:E05TSI                          WED 07/30/97 07:43 Page:508
        12 000432   040046 100400                    MLR     fill='040'O
        12 000433   000334 000005 10                 ADSC9   XUG_INIT+42              cn=0,n=5
        12 000434   000001 000010 11                 ADSC9   GREET_BUF+1,Q            cn=0,n=*X0

     2007     8966    3                      END;

   8966 12 000435   000457 710000 12                 TRA     s:8972

     2008     8967    2                   ELSE                    /* PCL is running as a user           */
     2009     8968    3                   DO;

     2010     8969    3                      FROM_SYS = '0'B;

   8969 12 000436   000000 450000 xsym               STZ     FROM_SYS

     2011     8970    3                      CALL CONCAT(GREET_BUF,'Bootleg PCL ',ADDR(B_VERSION) -> TEXT$C.
              8970                               TEXT,' here');

   8970 12 000437   000000 236000 xsym               LDQ     B_VERSION
        12 000440   000033 772000                    QRL     27
        12 000441   040000 100400                    MLR     fill='040'O
        12 000442   000336 000014 10                 ADSC9   XUG_INIT+44              cn=0,n=12
        12 000443   000000 000014 11                 ADSC9   GREET_BUF                cn=0,n=12
        12 000444   000000 620006                    EAX0    0,QL
        12 000445   040000 100440                    MLR     fill='040'O
        12 000446   000000 200010 xsym               ADSC9   B_VERSION                cn=1,n=*X0
        12 000447   000003 000022 11                 ADSC9   GREET_BUF+3              cn=0,n=18
        12 000450   000022 116007                    CMPQ    18,DL
        12 000451   000457 603000 12                 TRC     s:8972
        12 000452   777755 621006                    EAX1    -19,QL
        12 000453   777777 661003                    ERX1    -1,DU
        12 000454   040046 100400                    MLR     fill='040'O
        12 000455   000334 000005 10                 ADSC9   XUG_INIT+42              cn=0,n=5
        12 000456   000003 000011 11                 ADSC9   GREET_BUF+3,Q            cn=0,n=*X1

     2012     8971    3                      END;

PL6.E3A0      #021=VPD$INITIALIZE File=VPD$UTIL.:E05TSI                          WED 07/30/97 07:43 Page:509
     2013     8972    2               FPT_WRITE_ME.V.DVBYTE.VFC# = %NO#;

   8972 12 000457   000013 236000 13                 LDQ     11
        12 000460   000013 356000 xsym               ANSQ    FPT_WRITE_ME+11

     2014     8973    2               FPT_WRITE_ME.BUF_ = VECTOR(GREET_BUF);

   8973 12 000461   000014 237000 13                 LDAQ    12
        12 000462   000004 757000 xsym               STAQ    FPT_WRITE_ME+4

     2015     8974    2               IF B$JIT$ -> B$JIT.MODE ~= %M_TP#

   8974 12 000463   000000 470400 xsym               LDP0    B$JIT$
        12 000464   000000 236100                    LDQ     0,,PR0
        12 000465   740000 376003                    ANQ     -16384,DU
        12 000466   200000 116003                    CMPQ    65536,DU
        12 000467   000473 600000 12                 TZE     s:8978

     2016     8975    2                THEN                       /* Greet him, he's not a TP user      */
     2017     8976    2                  CALL M$WRITE(FPT_WRITE_ME); /* OUTPUT A GREETING               */

   8976 12 000470   000000 630400 xsym               EPPR0   FPT_WRITE_ME
        12 000471   040001 713400                    CLIMB   write
        12 000472   401400 401760                    pmme    nvectors=4

     2018     8977    2               END;

     2019     8978    1           FPT_OPEN_EI_SAVE = FPT_OPEN_EI;

   8978 12 000473   000000 100400                    MLR     fill='000'O
        12 000474   000000 000350 xsym               ADSC9   FPT_OPEN_EI              cn=0,n=232
        12 000475   000000 000350 xsym               ADSC9   FPT_OPEN_EI_SAVE         cn=0,n=232

     2020     8979    1           FPT_OPEN_OUT_SAVE = FPT_OPEN_OUT;

   8979 12 000476   000000 100400                    MLR     fill='000'O
        12 000477   000000 000350 xsym               ADSC9   FPT_OPEN_OUT             cn=0,n=232
PL6.E3A0      #021=VPD$INITIALIZE File=VPD$UTIL.:E05TSI                          WED 07/30/97 07:43 Page:510
        12 000500   000000 000350 xsym               ADSC9   FPT_OPEN_OUT_SAVE        cn=0,n=232

     2021     8980    1           CALL VPD$INIT_BUF;

   8980 12 000501   000002 631400 xsym               EPPR1   B_VECTNIL+2
        12 000502   000000 701000 xent               TSX1    VPD$INIT_BUF
        12 000503   000000 011000                    NOP     0

     2022     8981    1   END VPD$INITIALIZE;

   8981 12 000504   000000 702200 xent               TSX2  ! X66_ARET
     2023     8982        %EOD;

PL6.E3A0      #021=VPD$INITIALIZE File=VPD$UTIL.:E05TSI                          WED 07/30/97 07:43 Page:511
--  Include file information  --

   XUG_ENTRY.:E05TOU  cannot be made into a system file and is referenced.
   F$DCB.:E05TOU  cannot be made into a system file and is referenced.
   B$JIT.:E05TOU  cannot be made into a system file and is referenced.
   B_MICROPS_C.:E05TOU  is referenced.
   XU_MACRO_C.:E05TOU  is referenced.
   VP_MACRO_C.:E05TOU  is referenced.
   XS_MACRO_C.:E05TOU  is referenced.
   VP_PERR_C.:E05TOU  is referenced.
   CP_6_SUBS.:E05TOU  is referenced.
   CP_6.:E05TOU  cannot be made into a system file and is referenced.
   VP_DATA_R.:E05TOU  cannot be made into a system file and is referenced.
   B$JIT_C.:E05TOU  was found in the system file and is referenced.
   CP_6_C.:E05TOU  was found in the system file and is referenced.
      No diagnostics issued in procedure VPD$INITIALIZE.
PL6.E3A0      #021=VPD$INITIALIZE File=VPD$UTIL.:E05TSI                          WED 07/30/97 07:43 Page:512

 **** Variables and constants ****

  ****  Section 010 RoData VPD$INITIALIZE

  ****  Scalars and arrays  ****
OctLoc.c.b A Datatyp(siz) R M Lvl/name                 OctLoc.c.b A Datatyp(siz) R M Lvl/name

   164-0-0/d STRC(144)   r     1 FPT_INT                   72-0-0/d STRC(2088)  r     1 FPT_OPEN_DO
     0-0-0/d STRC(2088)  r     1 FPT_OPEN_ME              170-0-0/d STRC(2088)  r     1 FPT_SETUP_EO
   262-0-0/d STRC(1296)  r     1 XUG_INIT

  ****  Section 011  Data  VPD$INITIALIZE

  ****  Scalars and arrays  ****
OctLoc.c.b A Datatyp(siz) R M Lvl/name                 OctLoc.c.b A Datatyp(siz) R M Lvl/name

     0-0-0/c CHAR(30)    r     1 GREET_BUF

  ****  Auto variables  ****

  ****  Scalars and arrays  ****
OctLoc.c.b A Datatyp(siz) R M Lvl/name                 OctLoc.c.b A Datatyp(siz) R M Lvl/name

    50-0-0/w UBIN        r     1 BAD_DCB_NUM                3-0-0/w UBIN        r     1 CODE
    51-0-0/w UBIN        r     1 I                          4-0-0/d STRC(1296)  r     1 XUG_INIT_AUTO

  ****  SYMREF variables  ****

  ****  Scalars and arrays  ****
OctLoc.c.b A Datatyp(siz) R M Lvl/name                 OctLoc.c.b A Datatyp(siz) R M Lvl/name

     0-0-0/d REMB        r     1 ABORT_CMD                  0-0-0/w PTR         r     1 B$JIT$
     0-0-0/d REMB        r     1 BREAK_LOC                  0-0-0/d BIT (72)    r     1 BREAK_LOC_BITS
     0-0-0/w EPTR        r     1 BREAK_MESSAGE_REPORTER
     0-0-0/c CHAR        r     1 B_VERSION                  0-0-0/b BIT         r     1 COMMAND_STUFFED
     0-0-0/d STRC(6840)  r     1 EO_OCB                     0-0-0/b STRC        r     1 ERR_CODE
     0-0-0/w BIT         r     1 ERR_FLG                    0-0-0/d STRC(2088)  r     1 FPT_OPEN_EI
PL6.E3A0      #021=VPD$INITIALIZE File=VPD$UTIL.:E05TSI                          WED 07/30/97 07:43 Page:513
     0-0-0/d STRC(2088)  r     1 FPT_OPEN_EI_SAVE           0-0-0/d STRC(2088)  r     1 FPT_OPEN_OUT
     0-0-0/d STRC(2088)  r     1 FPT_OPEN_OUT_SAVE          0-0-0/d STRC(432)   r     1 FPT_WRITE_ME
     0-0-0/b BIT         r     1 FROM_SYS                   0-0-0/d STRC(1512)  r     1 GETCMD
     0-0-0/w PTR         r     1 KEY_AREA$                  0-0-0/w SBIN        r     1 M$DO#
     0-0-0/w PTR         r     1 M$DO$                      0-0-0/w SBIN        r     1 M$EI#
     0-0-0/w PTR         r     1 M$EI$                      0-0-0/w SBIN        r     1 M$EO#
     0-0-0/w PTR         r     1 M$EO$                      0-0-0/w SBIN        r     1 M$EO1#
     0-0-0/w PTR         r     1 M$EO1$                     0-0-0/w SBIN        r     1 M$ME#
     0-0-0/w PTR         r     1 M$ME$                      0-0-0/w SBIN        r     1 M$READFILE#
     0-0-0/w PTR         r     1 M$READFILE$                0-0-0/w SBIN        r     1 M$SI#
     0-0-0/w PTR         r     1 M$SI$                      0-0-0/w SBIN        r     1 M$SORT1#
     0-0-0/w PTR         r     1 M$SORT1$                   0-0-0/w SBIN        r     1 M$STD1#
     0-0-0/w PTR         r     1 M$STD1$                    0-0-0/w SBIN        r     1 M$UC#
     0-0-0/w PTR         r     1 M$UC$                      0-0-0/w UBIN        r     1 ME_WIDTH
     0-0-0/w SBIN        r     1 ONE_TIME
     0-0-0/w SBIN        r     1 PARSE_WORK_AREA(0:512)
     0-0-0/w STRC(504)   r     1 PCB                        0-0-0/b BIT         r     1 PRE_PARSED
     0-0-0/w PTR         r     1 STD_WORK$                  0-0-0/b BIT         r     1 SUCCESS_NODE
     0-0-0/b UBIN(9)     r     1 TABS(0:30)                 0-0-0/w SBIN        r     1 TEST_MODE
     0-0-0/c STRC        r     1 TEST_PATTERN               0-0-0/b BIT         r     1 TOP_PCL_CMD

  ****  BASED and DCB variables  ****

  ****  Scalars and arrays  ****
OctLoc.c.b A Datatyp(siz) R M Lvl/name                 OctLoc.c.b A Datatyp(siz) R M Lvl/name

     0-0-0/d STRC(8856)  r     1 B$JIT                      0-0-0/d ASTR(3528)  r     1 F$DCB
     0-0-0N  NULL        r     1 M$DO                       0-0-0N  NULL        r     1 M$EO
     0-0-0N  NULL        r     1 M$ME                       0-0-0/w STRC(144)   r     1 OUT$BLK
     0-0-0/c ASTR(9)     r     1 TEXT$C


   Procedure VPD$INITIALIZE requires 325 words for executable code.
   Procedure VPD$INITIALIZE requires 50 words of local(AUTO) storage.
PL6.E3A0      #021=VPD$INITIALIZE File=VPD$UTIL.:E05TSI                          WED 07/30/97 07:43 Page:514
          *** CROSS REFERENCE LISTING ***
**     DENOTES     IDENTIFIER DEFINITION
<<                 IDENTIFIER'S VALUE SET
>>                 IDENTIFIER'S VALUE USED
<>                 IDENTIFIER SET AND/OR USED
--                 IDENTIFIER REFERENCED
PL6.E3A0      #021=VPD$INITIALIZE File=VPD$UTIL.:E05TSI                          WED 07/30/97 07:43 Page:515
          MINI XREF LISTING

ABORT_CMD
      5187**DCL      8846<<REMEMBR
B$JIT.CCARS
      7104**DCL      8911>>IF       8919>>ASSIGN
B$JIT.CCBUF
      7104**DCL      8916>>DOWHILE  8919--ASSIGN
B$JIT.CPFLAGS1.SLEAZE
      7110**DCL      7110--REDEF
B$JIT.ERR.MID
      7017**DCL      7017--REDEF
B$JIT.JRESPEAK
      7178**DCL      7179--REDEF
B$JIT.MODE
      7011**DCL      8974>>IF
B$JIT.ORIGINATOR_PORT.FROM_CR
      7287**DCL      7287--REDEF    7288--REDEF
B$JIT.PNR
      7191**DCL      7191--REDEF
B$JIT.RUNFLAGS
      7212**DCL      8961>>IF
B$JIT.SWITCH
      7104**DCL      8859>>IF
B$JIT.TSLINE
      7285**DCL      7286--REDEF
B$JIT$
      5987**DCL      7011--IMP-PTR  8859>>IF       8911>>IF       8916>>DOWHILE  8919>>ASSIGN   8919>>ASSIGN
      8961>>IF       8974>>IF
BAD_DCB_NUM
      8544**DCL      8874<<ASSIGN   8892<<ASSIGN   8901<>CALL
BAD_DIAG_DCB
      8901**LABEL    8877--CALLALT  8883--GOTO     8895--CALLALT
BREAK_LOC
PL6.E3A0      #021=VPD$INITIALIZE File=VPD$UTIL.:E05TSI                          WED 07/30/97 07:43 Page:516
      5222**DCL      5222--REDEF
BREAK_LOC_BITS
      5222**DCL      8843<<ASSIGN
B_VERSION
      8540**DCL      8965--CALLBLT  8965--CALLBLT  8970--CALLBLT  8970--CALLBLT
CODE
      7570**DCL      8913<<ASSIGN   8923<<ASSIGN   8926<<ASSIGN   8927>>IF       8934>>IF
COMMAND_STUFFED
      4557**DCL      8938<<ASSIGN   8945<<ASSIGN
DEF_ICB.FID.STRING
      5820**DCL      5821--REDEF
DEV_ICB.FID.STRING
      5706**DCL      5707--REDEF
EI_KEY.KEY
      5918**DCL      5918--REDEF    5918--REDEF    5918--REDEF
EO_OCB
      5372**DCL      8868<<ASSIGN
EO_OCB.DEV_MASK
      5452**DCL      8869<<ASSIGN
EO_OCB.TYPE
      5418**DCL      5419--REDEF
ERR_CODE
      5188**DCL      8848<<ASSIGN
ERR_FLG
      5185**DCL      8949<<ASSIGN
F$DCB.ACTPOS
      7318**DCL      7318--REDEF
F$DCB.ARS
      7293**DCL      7293--REDEF
F$DCB.ATTR
      7311**DCL      7312--REDEF
F$DCB.BORROW
      7326**DCL      7326--REDEF    7326--REDEF    7326--REDEF
F$DCB.DCBNAME.L
      7340**DCL      7340--IMP-SIZ
F$DCB.DDEV.IC
PL6.E3A0      #021=VPD$INITIALIZE File=VPD$UTIL.:E05TSI                          WED 07/30/97 07:43 Page:517
      7299**DCL      8864>>IF
F$DCB.EOMCHAR
      7297**DCL      7297--REDEF
F$DCB.FCD
      7306**DCL      8875>>IF       8893>>IF
F$DCB.FLDID
      7321**DCL      7321--REDEF
F$DCB.FORM$
      7315**DCL      7315--REDEF
F$DCB.FSECT
      7331**DCL      7331--REDEF
F$DCB.FSN
      7308**DCL      7308--REDEF    7308--REDEF    7309--REDEF
F$DCB.HEADER$
      7314**DCL      7314--REDEF
F$DCB.IXTNSIZE
      7312**DCL      7312--REDEF
F$DCB.LASTSTA$
      7302**DCL      7302--REDEF
F$DCB.LVL
      7327**DCL      7327--REDEF
F$DCB.NAME.C
      7302**DCL      7302--REDEF
F$DCB.NOEOF
      7323**DCL      7323--REDEF
F$DCB.NRECS
      7313**DCL      7313--REDEF
F$DCB.NRECX
      7332**DCL      7332--REDEF
F$DCB.OHDR
      7324**DCL      7324--REDEF
F$DCB.ORG
      7307**DCL      7307--REDEF    8878>>IF       8878>>IF       8878>>IF       8878>>IF       8896>>IF
      8896>>IF       8896>>IF       8896>>IF
F$DCB.PRECNO
      7330**DCL      7330--REDEF
PL6.E3A0      #021=VPD$INITIALIZE File=VPD$UTIL.:E05TSI                          WED 07/30/97 07:43 Page:518
F$DCB.RCSZ
      7335**DCL      7335--REDEF
F$DCB.RES
      7303**DCL      7303--REDEF
F$DCB.SETX
      7315**DCL      7315--REDEF
F$DCB.TAB$
      7314**DCL      7315--REDEF
F$DCB.TDA
      7329**DCL      7329--REDEF
F$DCB.WIDTH
      7300**DCL      8884>>ASSIGN
F$DCB.WSN
      7304**DCL      7304--REDEF
FPT_CLOSE_EI.SN_
      6759**DCL      6759--REDEF
FPT_CLOSE_EI.UTL_
      6760**DCL      6760--REDEF
FPT_CLOSE_EI.V.EXPIRE#
      6774**DCL      6774--REDEF
FPT_CLOSE_EI.V.TYPE#
      6772**DCL      6772--REDEF
FPT_CLOSE_EI.V.XTNSIZE#
      6769**DCL      6769--REDEF    6771--REDEF
FPT_CLOSE_PTL.SN_
      6885**DCL      6885--REDEF
FPT_CLOSE_PTL.UTL_
      6886**DCL      6886--REDEF
FPT_CLOSE_PTL.V.EXPIRE#
      6900**DCL      6900--REDEF
FPT_CLOSE_PTL.V.TYPE#
      6898**DCL      6898--REDEF
FPT_CLOSE_PTL.V.XTNSIZE#
      6895**DCL      6895--REDEF    6897--REDEF
FPT_CLOSE_READ.SN_
      6801**DCL      6801--REDEF
PL6.E3A0      #021=VPD$INITIALIZE File=VPD$UTIL.:E05TSI                          WED 07/30/97 07:43 Page:519
FPT_CLOSE_READ.UTL_
      6802**DCL      6802--REDEF
FPT_CLOSE_READ.V.EXPIRE#
      6816**DCL      6816--REDEF
FPT_CLOSE_READ.V.TYPE#
      6814**DCL      6814--REDEF
FPT_CLOSE_READ.V.XTNSIZE#
      6811**DCL      6811--REDEF    6813--REDEF
FPT_CLOSE_SI.SN_
      6969**DCL      6969--REDEF
FPT_CLOSE_SI.UTL_
      6970**DCL      6970--REDEF
FPT_CLOSE_SI.V.EXPIRE#
      6984**DCL      6984--REDEF
FPT_CLOSE_SI.V.TYPE#
      6982**DCL      6982--REDEF
FPT_CLOSE_SI.V.XTNSIZE#
      6979**DCL      6979--REDEF    6981--REDEF
FPT_CLOSE_STD.SN_
      6927**DCL      6927--REDEF
FPT_CLOSE_STD.UTL_
      6928**DCL      6928--REDEF
FPT_CLOSE_STD.V.EXPIRE#
      6942**DCL      6942--REDEF
FPT_CLOSE_STD.V.TYPE#
      6940**DCL      6940--REDEF
FPT_CLOSE_STD.V.XTNSIZE#
      6937**DCL      6937--REDEF    6939--REDEF
FPT_CLSEI_FT.SN_
      6843**DCL      6843--REDEF
FPT_CLSEI_FT.UTL_
      6844**DCL      6844--REDEF
FPT_CLSEI_FT.V.EXPIRE#
      6858**DCL      6858--REDEF
FPT_CLSEI_FT.V.TYPE#
      6856**DCL      6856--REDEF
PL6.E3A0      #021=VPD$INITIALIZE File=VPD$UTIL.:E05TSI                          WED 07/30/97 07:43 Page:520
FPT_CLSEI_FT.V.XTNSIZE#
      6853**DCL      6853--REDEF    6855--REDEF
FPT_INT
      7584**DCL      8866<>CALL
FPT_INT.V
      7584**DCL      7584--DCLINIT
FPT_OPEN_DO
      7526**DCL      8895<>CALL
FPT_OPEN_DO.ACSVEH_
      7528**DCL      7529--REDEF
FPT_OPEN_DO.ALTKEYS_
      7534**DCL      7535--REDEF    7535--REDEF
FPT_OPEN_DO.HDR_
      7533**DCL      7534--REDEF
FPT_OPEN_DO.TAB_
      7532**DCL      7533--REDEF
FPT_OPEN_DO.UHL_
      7526**DCL      7527--REDEF    7527--REDEF
FPT_OPEN_DO.V
      7535**DCL      7526--DCLINIT
FPT_OPEN_DO.V.FSN#
      7566**DCL      7566--REDEF    7566--REDEF
FPT_OPEN_DO.WSN_
      7532**DCL      7532--REDEF
FPT_OPEN_EI
      6412**DCL      8978>>ASSIGN
FPT_OPEN_EI.ACSVEH_
      6414**DCL      6415--REDEF
FPT_OPEN_EI.ALTKEYS_
      6420**DCL      6421--REDEF    6421--REDEF
FPT_OPEN_EI.HDR_
      6419**DCL      6420--REDEF
FPT_OPEN_EI.TAB_
      6418**DCL      6419--REDEF
FPT_OPEN_EI.UHL_
      6412**DCL      6413--REDEF    6413--REDEF
PL6.E3A0      #021=VPD$INITIALIZE File=VPD$UTIL.:E05TSI                          WED 07/30/97 07:43 Page:521
FPT_OPEN_EI.V.FSN#
      6452**DCL      6452--REDEF    6452--REDEF
FPT_OPEN_EI.WSN_
      6418**DCL      6418--REDEF
FPT_OPEN_EI_SAVE
      6521**DCL      8978<<ASSIGN
FPT_OPEN_EI_SAVE.ACSVEH_
      6523**DCL      6524--REDEF
FPT_OPEN_EI_SAVE.ALTKEYS_
      6529**DCL      6530--REDEF    6530--REDEF
FPT_OPEN_EI_SAVE.HDR_
      6528**DCL      6529--REDEF
FPT_OPEN_EI_SAVE.TAB_
      6527**DCL      6528--REDEF
FPT_OPEN_EI_SAVE.UHL_
      6521**DCL      6522--REDEF    6522--REDEF
FPT_OPEN_EI_SAVE.V.FSN#
      6561**DCL      6561--REDEF    6561--REDEF
FPT_OPEN_EI_SAVE.WSN_
      6527**DCL      6527--REDEF
FPT_OPEN_ME
      7412**DCL      8877<>CALL
FPT_OPEN_ME.ACSVEH_
      7414**DCL      7415--REDEF
FPT_OPEN_ME.ALTKEYS_
      7420**DCL      7421--REDEF    7421--REDEF
FPT_OPEN_ME.HDR_
      7419**DCL      7420--REDEF
FPT_OPEN_ME.TAB_
      7418**DCL      7419--REDEF
FPT_OPEN_ME.UHL_
      7412**DCL      7413--REDEF    7413--REDEF
FPT_OPEN_ME.V
      7421**DCL      7412--DCLINIT
FPT_OPEN_ME.V.FSN#
      7452**DCL      7452--REDEF    7452--REDEF
PL6.E3A0      #021=VPD$INITIALIZE File=VPD$UTIL.:E05TSI                          WED 07/30/97 07:43 Page:522
FPT_OPEN_ME.WSN_
      7418**DCL      7418--REDEF
FPT_OPEN_OUT
      6303**DCL      8979>>ASSIGN
FPT_OPEN_OUT.ACSVEH_
      6305**DCL      6306--REDEF
FPT_OPEN_OUT.ALTKEYS_
      6311**DCL      6312--REDEF    6312--REDEF
FPT_OPEN_OUT.HDR_
      6310**DCL      6311--REDEF
FPT_OPEN_OUT.TAB_
      6309**DCL      6310--REDEF
FPT_OPEN_OUT.UHL_
      6303**DCL      6304--REDEF    6304--REDEF
FPT_OPEN_OUT.V.FSN#
      6343**DCL      6343--REDEF    6343--REDEF
FPT_OPEN_OUT.WSN_
      6309**DCL      6309--REDEF
FPT_OPEN_OUT_SAVE
      6194**DCL      8979<<ASSIGN
FPT_OPEN_OUT_SAVE.ACSVEH_
      6196**DCL      6197--REDEF
FPT_OPEN_OUT_SAVE.ALTKEYS_
      6202**DCL      6203--REDEF    6203--REDEF
FPT_OPEN_OUT_SAVE.HDR_
      6201**DCL      6202--REDEF
FPT_OPEN_OUT_SAVE.TAB_
      6200**DCL      6201--REDEF
FPT_OPEN_OUT_SAVE.UHL_
      6194**DCL      6195--REDEF    6195--REDEF
FPT_OPEN_OUT_SAVE.V.FSN#
      6234**DCL      6234--REDEF    6234--REDEF
FPT_OPEN_OUT_SAVE.WSN_
      6200**DCL      6200--REDEF
FPT_READ_STD.STATION_
      6624**DCL      6625--REDEF
PL6.E3A0      #021=VPD$INITIALIZE File=VPD$UTIL.:E05TSI                          WED 07/30/97 07:43 Page:523
FPT_READ_STD.V.DVBYTE.REREAD#
      6636**DCL      6636--REDEF
FPT_READ_STD.V.INDX#
      6634**DCL      6634--REDEF
FPT_READ_UC.STATION_
      6585**DCL      6586--REDEF
FPT_READ_UC.V.DVBYTE.REREAD#
      6597**DCL      6597--REDEF
FPT_READ_UC.V.INDX#
      6595**DCL      6595--REDEF
FPT_SETUP_EO
      7657**DCL      8870<>CALL
FPT_SETUP_EO.ACSVEH_
      7659**DCL      7660--REDEF
FPT_SETUP_EO.ALTKEYS_
      7665**DCL      7666--REDEF    7666--REDEF
FPT_SETUP_EO.HDR_
      7664**DCL      7665--REDEF
FPT_SETUP_EO.TAB_
      7663**DCL      7664--REDEF
FPT_SETUP_EO.UHL_
      7657**DCL      7658--REDEF    7658--REDEF
FPT_SETUP_EO.V
      7666**DCL      7657--DCLINIT
FPT_SETUP_EO.V.FSN#
      7697**DCL      7697--REDEF    7697--REDEF
FPT_SETUP_EO.WSN_
      7663**DCL      7663--REDEF
FPT_WRITE_ME
      6691**DCL      8976<>CALL
FPT_WRITE_ME.BUF_
      6691**DCL      8973<<ASSIGN
FPT_WRITE_ME.STATION_
      6693**DCL      6693--REDEF
FPT_WRITE_ME.V.DVBYTE.VFC#
      6700**DCL      6700--REDEF    8972<<ASSIGN
PL6.E3A0      #021=VPD$INITIALIZE File=VPD$UTIL.:E05TSI                          WED 07/30/97 07:43 Page:524
FPT_WRITE_OUT.STATION_
      6724**DCL      6724--REDEF
FPT_WRITE_OUT.V.DVBYTE.VFC#
      6731**DCL      6731--REDEF
FPT_WRITE_UC.STATION_
      6662**DCL      6662--REDEF
FPT_WRITE_UC.V.DVBYTE.VFC#
      6669**DCL      6669--REDEF
FROM_SN.SN
      5568**DCL      5569--REDEF
FROM_SYS
      5221**DCL      8957<<ASSIGN   8964<<ASSIGN   8969<<ASSIGN
GETCMD
      4770**DCL      8835<>CALL     8921<>CALL
GETCMD.DCB2_PARAM#
      4955**DCL      8841<<ASSIGN
GETCMD.DCB_PARAM#
      4950**DCL      8840<<ASSIGN
GETCMD.NODES$
      4771**DCL      8842<<ASSIGN
GETCMD.OUT$
      4775**DCL      4781--REDEF    8922>>IF       8925>>ASSIGN
GETCMD.OUTDCB#
      4946**DCL      8839<<ASSIGN
GETCMD.TEXT_
      5033**DCL      8919<<ASSIGN   8920<<ASSIGN   8920>>ASSIGN
GREET_BUF
      8539**DCL      8958<<ASSIGN   8965<<CALLBLT  8970<<CALLBLT  8973--ASSIGN
I
      8545**DCL      8915<<ASSIGN   8916>>DOWHILE  8917<<ASSIGN   8917>>ASSIGN   8919>>ASSIGN   8920>>ASSIGN
ICB.FID.STRING
      5592**DCL      5593--REDEF
IFSFA_PARAM.EOMCHAR#
      5947**DCL      5948--REDEF
IFSFA_PARAM.SIG1
      5941**DCL      5941--REDEF
PL6.E3A0      #021=VPD$INITIALIZE File=VPD$UTIL.:E05TSI                          WED 07/30/97 07:43 Page:525
IFSFA_PARAM.SIG2
      5941**DCL      5942--REDEF
IN_RES
      5514**DCL      5514--REDEF
IN_SN.SN
      5530**DCL      5531--REDEF
KEY_AREA$
      5919**DCL      8845<<ASSIGN
M$DO
      5985**DCL      8892>>ASSIGN
M$DO#
      5986**DCL      8841>>ASSIGN   8854--ASSIGN
M$DO$
      5986**DCL      8854<<ASSIGN   8893>>IF       8896>>IF       8896>>IF       8896>>IF       8896>>IF
M$EI#
      5983**DCL      8849--ASSIGN
M$EI$
      5983**DCL      8849<<ASSIGN
M$EO#
      5983**DCL      8850--ASSIGN
M$EO$
      5983**DCL      8850<<ASSIGN
M$EO1#
      5984**DCL      8851--ASSIGN
M$EO1$
      5984**DCL      8851<<ASSIGN
M$ERR
        44**DCL-ENT  8837--CALL
M$INT
        87**DCL-ENT  8866--CALL
M$ME
      5984**DCL      8874>>ASSIGN
M$ME#
      5984**DCL      8839>>ASSIGN   8840>>ASSIGN   8852--ASSIGN
M$ME$
      5984**DCL      8852<<ASSIGN   8875>>IF       8878>>IF       8878>>IF       8878>>IF       8878>>IF
PL6.E3A0      #021=VPD$INITIALIZE File=VPD$UTIL.:E05TSI                          WED 07/30/97 07:43 Page:526
      8884>>ASSIGN
M$OPEN
        32**DCL-ENT  8870--CALL     8877--CALL     8895--CALL
M$READFILE#
      5985**DCL      8855--ASSIGN
M$READFILE$
      5985**DCL      8855<<ASSIGN
M$SI#
      5985**DCL      8853--ASSIGN
M$SI$
      5984**DCL      8853<<ASSIGN
M$SORT1#
      5987**DCL      8858--ASSIGN
M$SORT1$
      5987**DCL      8858<<ASSIGN
M$STD1#
      5987**DCL      8856--ASSIGN
M$STD1$
      5986**DCL      8856<<ASSIGN
M$UC#
      5986**DCL      8857--ASSIGN
M$UC$
      5986**DCL      8857<<ASSIGN   8864>>IF
M$WRITE
        33**DCL-ENT  8976--CALL
ME_WIDTH
      5224**DCL      8884<<ASSIGN   8885>>IF       8887<<ASSIGN   8889>>IF       8891<<ASSIGN
OCB.TYPE
      5276**DCL      5277--REDEF
OFSFA_PARAM.EOMCHAR#
      5977**DCL      5978--REDEF
OFSFA_PARAM.SIG1
      5971**DCL      5971--REDEF
OFSFA_PARAM.SIG2
      5971**DCL      5972--REDEF
ONE_TIME
PL6.E3A0      #021=VPD$INITIALIZE File=VPD$UTIL.:E05TSI                          WED 07/30/97 07:43 Page:527
      5227**DCL      8937<<ASSIGN   8943<<ASSIGN   8948<<ASSIGN   8951>>IF
OUT$BLK.CODE
      8803**DCL      8926>>ASSIGN   8927>>IF
OUT$BLK.NSUBLKS
      8807**DCL      8927>>IF
OUT$BLK.SUBLK$
      8828**DCL      8927>>IF
OUT_SN.SN
      5548**DCL      5549--REDEF
PARSE_ALT
      8948**LABEL    8846--REMEMBR  8921--CALLALT
PARSE_WORK_AREA
      4556**DCL      8906--ASSIGN   8907--ASSIGN
PCB.CONTINUE
      4617**DCL      8909<<ASSIGN
PCB.OUT$
      4589**DCL      8925<<ASSIGN   8926>>ASSIGN   8927>>IF       8927>>IF
PCB.U$$
      4594**DCL      8908<<ASSIGN
PCB.WKSZ
      4606**DCL      8907<<ASSIGN
PCB.WORK$
      4585**DCL      8906<<ASSIGN
PRE_PARSED
      4557**DCL      8939<<ASSIGN   8944<<ASSIGN
SPEC_BUF
      5226**DCL      5226--REDEF
STD_WORK$
      4556**DCL      8844<<ASSIGN
SUCCESS_NODE
      4557**DCL      8910<<ASSIGN
TABS
      5228**DCL      8847<<ASSIGN
TEST_MODE
      5221**DCL      8861<<ASSIGN   8863<<ASSIGN   8911>>IF       8954>>IF
TEST_PATTERN
PL6.E3A0      #021=VPD$INITIALIZE File=VPD$UTIL.:E05TSI                          WED 07/30/97 07:43 Page:528
      5218**DCL      8859>>IF
TEXT$C.COUNT
      8542**DCL      8543--IMP-SIZ  8965>>CALLBLT  8970>>CALLBLT
TEXT$C.TEXT
      8543**DCL      8965>>CALLBLT  8970>>CALLBLT
TOP_PCL_CMD
      5988**DCL      8842--ASSIGN
VPD$ABORT
      8562**DCL-ENT  7736--DCLINIT
VPD$BREAK
      8568**DCL-ENT  7751--DCLINIT
VPD$CONTINUE
      8555**DCL-ENT  7744--DCLINIT
VPD$INIT_BUF
      8585**DCL-ENT  8980--CALL
VPD$U$
      8634**DCL-ENT  8908--ASSIGN
VPK$PCL_INVOCATION
      8717**DCL-ENT  8931--CALL
VPL$ERR_PROC
      8731**DCL-ENT  8901--CALL
X$PRE_PROCESS
      8757**DCL-ENT  7831--DCLINIT
XTX$ADAPT
      7730**DCL-ENT  8046--DCLINIT
XUG$BREAK
      8775**DCL-ENT  7584--DCLINIT
XUG$GETCMD
      8765**DCL-ENT  8921--CALL
XUG$INIT
      8769**DCL-ENT  8835--CALL
XUG_INIT
      7735**DCL      8834>>ASSIGN
XUG_INIT_AUTO
      8148**DCL      8834<<ASSIGN   8835<>CALL

PL6.E3A0      #022=VPD$INIT_COMMANDS File=VPD$UTIL.:E05TSI                       WED 07/30/97 07:45 Page:529
     2024        1        /*T***********************************************************/
     2025        2        /*T*                                                         */
     2026        3        /*T* Copyright (c) Bull HN Information Systems Inc., 1997    */
     2027        4        /*T*                                                         */
     2028        5        /*T***********************************************************/
     2029        6        VPD$INIT_COMMANDS: PROC;
     2030        7        /*D* NAME: VPD$INIT_COMMANDS
     2031        8             CALL: CALL VPD$INIT_COMMANDS;
     2032        9             DESCRIPTION: This procedure is to be invoked before any command is
     2033       10                          processed.  It performs necessary initialization that
     2034       11                          needs to be performed on a per-command basis.
     2035       12        */
     2036       13        /**/
     2037       14        /*  INCLUDES  */
     2038       15        /**/
     2039       16        %INCLUDE VP_DATA_R;
     2040     7003        %VP_ENTRIES(OMIT=VPD$INIT_COMMANDS);
     2041     7211        /**/
     2042     7212        /*  LOCAL CONSTANT  */
     2043     7213        /**/
     2044     7214        %FPT_TIME(FPTN = FPT_MAKE_NOW_UTS,
     2045     7215                  STCLASS = CONSTANT,
     2046     7216                  SOURCE = CLOCK,
     2047     7217                  DEST = UTS,
     2048     7218                  TSTAMP = NOW_UTS);
     2049     7237        /**/
     2050     7238        /*  LOCAL CONSTANTS  */
     2051     7239        /**/
     2052     7240    1   DCL PROMPT_2 CHAR(1) CONSTANT SYMDEF INIT('.');
     2053     7241        /**/
     2054     7242    1           IF NOT (CMD_MASK & '0040000004'O) /* NOT (NULL OR QUEST)              */
     2055     7243    1            THEN
     2056     7244    1              ERR_CODE = '000000000007'O;  /* Severity = 7                       */
     2057     7245    1           RESULTS_FID_FROM = '0'B;        /* CLEAR THE FROM INFORMATION         */
     2058     7246    1           TOT_FILES = '0'B;
     2059     7247    1           TOT_GRANS = '0'B;
     2060     7248    1           TOT_RECS=0;
PL6.E3A0      #022=VPD$INIT_COMMANDS File=VPD$UTIL.:E05TSI                       WED 07/30/97 07:45 Page:530
     2061     7249    1           PCB.WORK$ = ADDR(PARSE_WORK_AREA);
     2062     7250    1           PCB.WKSZ = SIZEW(PARSE_WORK_AREA);
     2063     7251    1           IF STD_WORK$ ~= ADDR(NIL)
     2064     7252    1            THEN
     2065     7253    1              CALL VPD$REL_BUF(STD_WORK$,1024);
     2066     7254    2           IF LIST_BUF$ ~=ADDR(NIL) THEN DO;
     2067     7255    2               CALL VPD$REL_BUF(LIST_BUF$,LIST_SIZE);
     2068     7256    2               LIST_SIZE=0;
     2069     7257    2               END;
     2070     7258    1           IF KEY_AREA$~=ADDR(NIL) THEN
     2071     7259    1              CALL VPD$REL_BUF(KEY_AREA$,2048);
     2072     7260    2           IF USER_LABELS$~=ADDR(NIL) THEN DO;
     2073     7261    2               CALL VPD$REL_BUF(USER_LABELS$,1024*8);
     2074     7262    2               USER_LABELS$=ADDR(NIL);
     2075     7263    2               END;
     2076     7264    1           DEF_ICB = '0'B;
     2077     7265    1           KEY_AREA$=ADDR(NIL);
     2078     7266    1           STD_WORK$ = ADDR(NIL);
     2079     7267    1           THIS_STD_FILE = '0'B;
     2080     7268    1           FPT_PROMPT.PROMPT_ = VECTOR(PROMPT_2);
     2081     7269    1           CALL M$PROMPT(FPT_PROMPT);
     2082     7270    1           CALL M$TIME (FPT_MAKE_NOW_UTS); /* Update NOW_UTS                     */
     2083     7271    1           RETURN;
     2084     7272    1   END VPD$INIT_COMMANDS;
     2085     7273        %EOD;

PL6.E3A0      #022=VPD$INIT_COMMANDS File=VPD$UTIL.:E05TSI                       WED 07/30/97 07:45 Page:531
--  Include file information  --

   B_MICROPS_C.:E05TOU  is referenced.
   XU_MACRO_C.:E05TOU  is referenced.
   VP_MACRO_C.:E05TOU  is referenced.
   XS_MACRO_C.:E05TOU  is referenced.
   VP_PERR_C.:E05TOU  is referenced.
   CP_6_SUBS.:E05TOU  is referenced.
   CP_6.:E05TOU  cannot be made into a system file and is referenced.
   VP_DATA_R.:E05TOU  cannot be made into a system file and is referenced.
   B$JIT_C.:E05TOU  was found in the system file and is never referenced.
   CP_6_C.:E05TOU  was found in the system file and is referenced.
      No diagnostics issued in procedure VPD$INIT_COMMANDS.

   Procedure VPD$INIT_COMMANDS requires 74 words for executable code.
   Procedure VPD$INIT_COMMANDS requires 8 words of local(AUTO) storage.

PL6.E3A0      #022=VPD$INIT_COMMANDS File=VPD$UTIL.:E05TSI                       WED 07/30/97 07:45 Page:532

 Object Unit name= VPD$INIT_COMMANDS                          File name= VPD$UTIL.:E05TOU
 UTS= JUL 30 '97 07:45:09.20 WED                              Compiler= PL-6/E31         Sev=      00
 SharedLib= :SHARED_SYSTEM                                    Alt SharedLib=


    ****  Control sections  ****

 Sect   Type Bound  Init  Size OctSiz  Section name(segment info)
    0   DCB   even  none     0      0  M$UC
    1   DCB   even  none     0      0  M$EI
    2   DCB   even  none     0      0  M$EO
    3   DCB   even  none     0      0  M$EO1
    4   DCB   even  none     0      0  M$ME
    5   DCB   even  none     0      0  M$SI
    6   DCB   even  none     0      0  M$READFILE
    7   DCB   even  none     0      0  M$DO
    8   DCB   even  none     0      0  M$STD1
    9   DCB   even  none     0      0  M$SORT1
   10  RoData even  UTS     14     16  VPD$INIT_COMMANDS
   11   Proc  even  none    74    112  VPD$INIT_COMMANDS
   12  RoData even  none    14     16  VPD$INIT_COMMANDS

    ****  Entry defs  ****

                              Check   Calling
                             calling  sequence
  Sect OctLoc Primary Altret sequence   type   Parms  Name
    11      0   yes            yes      Std        0  VPD$INIT_COMMANDS

  ****  Data defs  ****

 Sect OctLoc  Name                           Sect OctLoc  Name
   10     14  PROMPT_2
PL6.E3A0      #022=VPD$INIT_COMMANDS File=VPD$UTIL.:E05TSI                       WED 07/30/97 07:45 Page:533

  ****  Entry refs  ****

         Check        Calling
        calling       sequence
Altret sequence SRef   type   Args  Name
 yes     yes           Std       2 VPD$REL_BUF
                       Std       0 B_CONSPOOL_D
                       nStd      0 X66_AUTO_0
                       nStd      0 X66_ARET

  ****  Data refs  ****

  Flags:  r = read only, s = secondary
Flgs Name                             Flgs Name                             Flgs Name
     M$UC                                  PARSE_WORK_AREA                       STD_WORK$
     PCB                                   ERR_CODE                              LIST_BUF$
     LIST_SIZE                             USER_LABELS$                          THIS_STD_FILE
     NOW_UTS                               BREAK_LOC                             BREAK_MESSAGE_REPORTER
     CMD_MASK                              TOT_FILES                             TOT_GRANS
     TOT_RECS                              SPEC_BUF                              IN_RES
     DEF_ICB                               KEY_AREA$                             M$EI
     M$EO                                  M$EO1                                 M$ME
     M$SI                                  M$READFILE                            M$DO
     M$STD1                                M$SORT1                               RESULTS_FID_FROM
     FPT_PROMPT                            B_VECTNIL

  ****  Segment refs  ****

  Flags:  r = read only, s = secondary
Flgs Name                             Flgs Name                             Flgs Name
     ISSID                                 NULLSID
PL6.E3A0      #022=VPD$INIT_COMMANDS File=VPD$UTIL.:E05TSI                       WED 07/30/97 07:45 Page:534


     2024        1        /*T***********************************************************/
     2025        2        /*T*                                                         */
     2026        3        /*T* Copyright (c) Bull HN Information Systems Inc., 1997    */
     2027        4        /*T*                                                         */
     2028        5        /*T***********************************************************/
     2029        6        VPD$INIT_COMMANDS: PROC;

      6 11 000000   000000 700200 xent  VPD$INIT_CO* TSX0  ! X66_AUTO_0
        11 000001   000010 000000                    ZERO    8,0

     2030        7        /*D* NAME: VPD$INIT_COMMANDS
     2031        8             CALL: CALL VPD$INIT_COMMANDS;
     2032        9             DESCRIPTION: This procedure is to be invoked before any command is
     2033       10                          processed.  It performs necessary initialization that
     2034       11                          needs to be performed on a per-command basis.
     2035       12        */
     2036       13        /**/
     2037       14        /*  INCLUDES  */
     2038       15        /**/
     2039       16        %INCLUDE VP_DATA_R;
     2040     7003        %VP_ENTRIES(OMIT=VPD$INIT_COMMANDS);
     2041     7211        /**/
     2042     7212        /*  LOCAL CONSTANT  */
     2043     7213        /**/
     2044     7214        %FPT_TIME(FPTN = FPT_MAKE_NOW_UTS,
     2045     7215                  STCLASS = CONSTANT,
     2046     7216                  SOURCE = CLOCK,
     2047     7217                  DEST = UTS,
     2048     7218                  TSTAMP = NOW_UTS);
     2049     7237        /**/
     2050     7238        /*  LOCAL CONSTANTS  */
     2051     7239        /**/
     2052     7240    1   DCL PROMPT_2 CHAR(1) CONSTANT SYMDEF INIT('.');
     2053     7241        /**/
     2054     7242    1           IF NOT (CMD_MASK & '0040000004'O) /* NOT (NULL OR QUEST)              */

PL6.E3A0      #022=VPD$INIT_COMMANDS File=VPD$UTIL.:E05TSI                       WED 07/30/97 07:45 Page:535
   7242 11 000002   000015 235000 10                 LDA     PROMPT_2+1
        11 000003   000000 236003                    LDQ     0,DU
        11 000004   200004 757100                    STAQ    4,,AUTO
        11 000005   000100 100400                    MLR     fill='000'O
        11 000006   000000 000010 xsym               ADSC9   CMD_MASK                 cn=0,n=8
        11 000007   200006 000010                    ADSC9   6,,AUTO                  cn=0,n=8
        11 000010   200006 237100                    LDAQ    6,,AUTO
        11 000011   200004 377100                    ANAQ    4,,AUTO
        11 000012   000015 601000 11                 TNZ     s:7245

     2055     7243    1            THEN
     2056     7244    1              ERR_CODE = '000000000007'O;  /* Severity = 7                       */

   7244 11 000013   000011 236000 xsym               LDQ     B_VECTNIL+9
        11 000014   000000 756000 xsym               STQ     ERR_CODE

     2057     7245    1           RESULTS_FID_FROM = '0'B;        /* CLEAR THE FROM INFORMATION         */

   7245 11 000015   000000 100400                    MLR     fill='000'O
        11 000016   000002 000001 xsym               ADSC9   B_VECTNIL+2              cn=0,n=1
        11 000017   000000 000044 xsym               ADSC9   RESULTS_FID_FROM         cn=0,n=36

     2058     7246    1           TOT_FILES = '0'B;

   7246 11 000020   000000 100400                    MLR     fill='000'O
        11 000021   000002 000001 xsym               ADSC9   B_VECTNIL+2              cn=0,n=1
        11 000022   000000 000024 xsym               ADSC9   TOT_FILES                cn=0,n=20

     2059     7247    1           TOT_GRANS = '0'B;

   7247 11 000023   000000 100400                    MLR     fill='000'O
        11 000024   000002 000001 xsym               ADSC9   B_VECTNIL+2              cn=0,n=1
        11 000025   000000 000024 xsym               ADSC9   TOT_GRANS                cn=0,n=20

     2060     7248    1           TOT_RECS=0;

   7248 11 000026   000000 450000 xsym               STZ     TOT_RECS
PL6.E3A0      #022=VPD$INIT_COMMANDS File=VPD$UTIL.:E05TSI                       WED 07/30/97 07:45 Page:536

     2061     7249    1           PCB.WORK$ = ADDR(PARSE_WORK_AREA);

   7249 11 000027   000000 236000 12                 LDQ     0
        11 000030   000002 756000 xsym               STQ     PCB+2

     2062     7250    1           PCB.WKSZ = SIZEW(PARSE_WORK_AREA);

   7250 11 000031   001001 220003                    LDX0    513,DU
        11 000032   000005 740000 xsym               STX0    PCB+5

     2063     7251    1           IF STD_WORK$ ~= ADDR(NIL)

   7251 11 000033   000000 236000 xsym               LDQ     STD_WORK$
        11 000034   000001 116000 xsym               CMPQ    B_VECTNIL+1
        11 000035   000042 600000 11                 TZE     s:7254

     2064     7252    1            THEN
     2065     7253    1              CALL VPD$REL_BUF(STD_WORK$,1024);

   7253 11 000036   000002 630400 12                 EPPR0   2
        11 000037   000020 631400 xsym               EPPR1   B_VECTNIL+16
        11 000040   000000 701000 xent               TSX1    VPD$REL_BUF
        11 000041   000000 011000                    NOP     0

     2066     7254    2           IF LIST_BUF$ ~=ADDR(NIL) THEN DO;

   7254 11 000042   000000 236000 xsym               LDQ     LIST_BUF$
        11 000043   000001 116000 xsym               CMPQ    B_VECTNIL+1
        11 000044   000052 600000 11                 TZE     s:7258

     2067     7255    2               CALL VPD$REL_BUF(LIST_BUF$,LIST_SIZE);

   7255 11 000045   000004 630400 12                 EPPR0   4
        11 000046   000020 631400 xsym               EPPR1   B_VECTNIL+16
        11 000047   000000 701000 xent               TSX1    VPD$REL_BUF
        11 000050   000000 011000                    NOP     0
PL6.E3A0      #022=VPD$INIT_COMMANDS File=VPD$UTIL.:E05TSI                       WED 07/30/97 07:45 Page:537

     2068     7256    2               LIST_SIZE=0;

   7256 11 000051   000000 450000 xsym               STZ     LIST_SIZE

     2069     7257    2               END;

     2070     7258    1           IF KEY_AREA$~=ADDR(NIL) THEN

   7258 11 000052   000000 236000 xsym               LDQ     KEY_AREA$
        11 000053   000001 116000 xsym               CMPQ    B_VECTNIL+1
        11 000054   000061 600000 11                 TZE     s:7260

     2071     7259    1              CALL VPD$REL_BUF(KEY_AREA$,2048);

   7259 11 000055   000007 630400 12                 EPPR0   7
        11 000056   000020 631400 xsym               EPPR1   B_VECTNIL+16
        11 000057   000000 701000 xent               TSX1    VPD$REL_BUF
        11 000060   000000 011000                    NOP     0

     2072     7260    2           IF USER_LABELS$~=ADDR(NIL) THEN DO;

   7260 11 000061   000000 236000 xsym               LDQ     USER_LABELS$
        11 000062   000001 116000 xsym               CMPQ    B_VECTNIL+1
        11 000063   000072 600000 11                 TZE     s:7264

     2073     7261    2               CALL VPD$REL_BUF(USER_LABELS$,1024*8);

   7261 11 000064   000012 630400 12                 EPPR0   10
        11 000065   000020 631400 xsym               EPPR1   B_VECTNIL+16
        11 000066   000000 701000 xent               TSX1    VPD$REL_BUF
        11 000067   000000 011000                    NOP     0

     2074     7262    2               USER_LABELS$=ADDR(NIL);

   7262 11 000070   000001 236000 xsym               LDQ     B_VECTNIL+1
        11 000071   000000 756000 xsym               STQ     USER_LABELS$
PL6.E3A0      #022=VPD$INIT_COMMANDS File=VPD$UTIL.:E05TSI                       WED 07/30/97 07:45 Page:538

     2075     7263    2               END;

     2076     7264    1           DEF_ICB = '0'B;

   7264 11 000072   000000 100400                    MLR     fill='000'O
        11 000073   000002 000001 xsym               ADSC9   B_VECTNIL+2              cn=0,n=1
        11 000074   000000 001214 xsym               ADSC9   DEF_ICB                  cn=0,n=652

     2077     7265    1           KEY_AREA$=ADDR(NIL);

   7265 11 000075   000001 236000 xsym               LDQ     B_VECTNIL+1
        11 000076   000000 756000 xsym               STQ     KEY_AREA$

     2078     7266    1           STD_WORK$ = ADDR(NIL);

   7266 11 000077   000000 756000 xsym               STQ     STD_WORK$

     2079     7267    1           THIS_STD_FILE = '0'B;

   7267 11 000100   000000 450000 xsym               STZ     THIS_STD_FILE

     2080     7268    1           FPT_PROMPT.PROMPT_ = VECTOR(PROMPT_2);

   7268 11 000101   000014 237000 12                 LDAQ    12
        11 000102   000004 757000 xsym               STAQ    FPT_PROMPT+4

     2081     7269    1           CALL M$PROMPT(FPT_PROMPT);

   7269 11 000103   000000 630400 xsym               EPPR0   FPT_PROMPT
        11 000104   160002 713400                    CLIMB   57346
        11 000105   401000 401760                    pmme    nvectors=3

     2082     7270    1           CALL M$TIME (FPT_MAKE_NOW_UTS); /* Update NOW_UTS                     */

   7270 11 000106   000000 630400 10                 EPPR0   FPT_MAKE_NOW_UTS
        11 000107   020004 713400                    CLIMB   8196
PL6.E3A0      #022=VPD$INIT_COMMANDS File=VPD$UTIL.:E05TSI                       WED 07/30/97 07:45 Page:539
        11 000110   402000 401760                    pmme    nvectors=5

     2083     7271    1           RETURN;

   7271 11 000111   000000 702200 xent               TSX2  ! X66_ARET
     2084     7272    1   END VPD$INIT_COMMANDS;
     2085     7273        %EOD;

PL6.E3A0      #022=VPD$INIT_COMMANDS File=VPD$UTIL.:E05TSI                       WED 07/30/97 07:45 Page:540
--  Include file information  --

   B_MICROPS_C.:E05TOU  is referenced.
   XU_MACRO_C.:E05TOU  is referenced.
   VP_MACRO_C.:E05TOU  is referenced.
   XS_MACRO_C.:E05TOU  is referenced.
   VP_PERR_C.:E05TOU  is referenced.
   CP_6_SUBS.:E05TOU  is referenced.
   CP_6.:E05TOU  cannot be made into a system file and is referenced.
   VP_DATA_R.:E05TOU  cannot be made into a system file and is referenced.
   B$JIT_C.:E05TOU  was found in the system file and is never referenced.
   CP_6_C.:E05TOU  was found in the system file and is referenced.
      No diagnostics issued in procedure VPD$INIT_COMMANDS.
PL6.E3A0      #022=VPD$INIT_COMMANDS File=VPD$UTIL.:E05TSI                       WED 07/30/97 07:45 Page:541

 **** Variables and constants ****

  ****  Section 010 RoData VPD$INIT_COMMANDS

  ****  Scalars and arrays  ****
OctLoc.c.b A Datatyp(siz) R M Lvl/name                 OctLoc.c.b A Datatyp(siz) R M Lvl/name

     0-0-0/d STRC(432)   r     1 FPT_MAKE_NOW_UTS          14-0-0/c CHAR        r     1 PROMPT_2

  ****  SYMREF variables  ****

  ****  Scalars and arrays  ****
OctLoc.c.b A Datatyp(siz) R M Lvl/name                 OctLoc.c.b A Datatyp(siz) R M Lvl/name

     0-0-0/w EPTR        r     1 BREAK_MESSAGE_REPORTER
     0-0-0/b BIT         r     1 CMD_MASK(0:71)
     0-0-0/d STRC(5868)  r     1 DEF_ICB                    0-0-0/b STRC        r     1 ERR_CODE
     0-0-0/d STRC(360)   r     1 FPT_PROMPT                 0-0-0/w PTR         r     1 KEY_AREA$
     0-0-0/w PTR         r     1 LIST_BUF$                  0-0-0/w UBIN        r     1 LIST_SIZE
     0-0-0/w UBIN        r     1 NOW_UTS
     0-0-0/w SBIN        r     1 PARSE_WORK_AREA(0:512)
     0-0-0/w STRC(504)   r     1 PCB                        0-0-0/d STRC(324)   r     1 RESULTS_FID_FROM
     0-0-0/w PTR         r     1 STD_WORK$                  0-0-0/b BIT         r     1 THIS_STD_FILE
     0-0-0/w SBIN        r     1 TOT_FILES(0:4)
     0-0-0/w SBIN        r     1 TOT_GRANS(0:4)
     0-0-0/w SBIN        r     1 TOT_RECS                   0-0-0/w PTR         r     1 USER_LABELS$


   Procedure VPD$INIT_COMMANDS requires 74 words for executable code.
   Procedure VPD$INIT_COMMANDS requires 8 words of local(AUTO) storage.
PL6.E3A0      #022=VPD$INIT_COMMANDS File=VPD$UTIL.:E05TSI                       WED 07/30/97 07:45 Page:542
          *** CROSS REFERENCE LISTING ***
**     DENOTES     IDENTIFIER DEFINITION
<<                 IDENTIFIER'S VALUE SET
>>                 IDENTIFIER'S VALUE USED
<>                 IDENTIFIER SET AND/OR USED
--                 IDENTIFIER REFERENCED
PL6.E3A0      #022=VPD$INIT_COMMANDS File=VPD$UTIL.:E05TSI                       WED 07/30/97 07:45 Page:543
          MINI XREF LISTING

BREAK_LOC
      5223**DCL      5223--REDEF
CMD_MASK
      5225**DCL      7242>>IF
DEF_ICB
      5802**DCL      7264<<ASSIGN
DEF_ICB.FID.STRING
      5821**DCL      5822--REDEF
DEV_ICB.FID.STRING
      5707**DCL      5708--REDEF
EI_KEY.KEY
      5919**DCL      5919--REDEF    5919--REDEF    5919--REDEF
EO_OCB.TYPE
      5419**DCL      5420--REDEF
ERR_CODE
      5189**DCL      7244<<ASSIGN
FPT_CLOSE_EI.SN_
      6760**DCL      6760--REDEF
FPT_CLOSE_EI.UTL_
      6761**DCL      6761--REDEF
FPT_CLOSE_EI.V.EXPIRE#
      6775**DCL      6775--REDEF
FPT_CLOSE_EI.V.TYPE#
      6773**DCL      6773--REDEF
FPT_CLOSE_EI.V.XTNSIZE#
      6770**DCL      6770--REDEF    6772--REDEF
FPT_CLOSE_PTL.SN_
      6886**DCL      6886--REDEF
FPT_CLOSE_PTL.UTL_
      6887**DCL      6887--REDEF
FPT_CLOSE_PTL.V.EXPIRE#
      6901**DCL      6901--REDEF
PL6.E3A0      #022=VPD$INIT_COMMANDS File=VPD$UTIL.:E05TSI                       WED 07/30/97 07:45 Page:544
FPT_CLOSE_PTL.V.TYPE#
      6899**DCL      6899--REDEF
FPT_CLOSE_PTL.V.XTNSIZE#
      6896**DCL      6896--REDEF    6898--REDEF
FPT_CLOSE_READ.SN_
      6802**DCL      6802--REDEF
FPT_CLOSE_READ.UTL_
      6803**DCL      6803--REDEF
FPT_CLOSE_READ.V.EXPIRE#
      6817**DCL      6817--REDEF
FPT_CLOSE_READ.V.TYPE#
      6815**DCL      6815--REDEF
FPT_CLOSE_READ.V.XTNSIZE#
      6812**DCL      6812--REDEF    6814--REDEF
FPT_CLOSE_SI.SN_
      6970**DCL      6970--REDEF
FPT_CLOSE_SI.UTL_
      6971**DCL      6971--REDEF
FPT_CLOSE_SI.V.EXPIRE#
      6985**DCL      6985--REDEF
FPT_CLOSE_SI.V.TYPE#
      6983**DCL      6983--REDEF
FPT_CLOSE_SI.V.XTNSIZE#
      6980**DCL      6980--REDEF    6982--REDEF
FPT_CLOSE_STD.SN_
      6928**DCL      6928--REDEF
FPT_CLOSE_STD.UTL_
      6929**DCL      6929--REDEF
FPT_CLOSE_STD.V.EXPIRE#
      6943**DCL      6943--REDEF
FPT_CLOSE_STD.V.TYPE#
      6941**DCL      6941--REDEF
FPT_CLOSE_STD.V.XTNSIZE#
      6938**DCL      6938--REDEF    6940--REDEF
FPT_CLSEI_FT.SN_
      6844**DCL      6844--REDEF
PL6.E3A0      #022=VPD$INIT_COMMANDS File=VPD$UTIL.:E05TSI                       WED 07/30/97 07:45 Page:545
FPT_CLSEI_FT.UTL_
      6845**DCL      6845--REDEF
FPT_CLSEI_FT.V.EXPIRE#
      6859**DCL      6859--REDEF
FPT_CLSEI_FT.V.TYPE#
      6857**DCL      6857--REDEF
FPT_CLSEI_FT.V.XTNSIZE#
      6854**DCL      6854--REDEF    6856--REDEF
FPT_MAKE_NOW_UTS
      7229**DCL      7270<>CALL
FPT_MAKE_NOW_UTS.V
      7233**DCL      7229--DCLINIT
FPT_OPEN_EI.ACSVEH_
      6415**DCL      6416--REDEF
FPT_OPEN_EI.ALTKEYS_
      6421**DCL      6422--REDEF    6422--REDEF
FPT_OPEN_EI.HDR_
      6420**DCL      6421--REDEF
FPT_OPEN_EI.TAB_
      6419**DCL      6420--REDEF
FPT_OPEN_EI.UHL_
      6413**DCL      6414--REDEF    6414--REDEF
FPT_OPEN_EI.V.FSN#
      6453**DCL      6453--REDEF    6453--REDEF
FPT_OPEN_EI.WSN_
      6419**DCL      6419--REDEF
FPT_OPEN_EI_SAVE.ACSVEH_
      6524**DCL      6525--REDEF
FPT_OPEN_EI_SAVE.ALTKEYS_
      6530**DCL      6531--REDEF    6531--REDEF
FPT_OPEN_EI_SAVE.HDR_
      6529**DCL      6530--REDEF
FPT_OPEN_EI_SAVE.TAB_
      6528**DCL      6529--REDEF
FPT_OPEN_EI_SAVE.UHL_
      6522**DCL      6523--REDEF    6523--REDEF
PL6.E3A0      #022=VPD$INIT_COMMANDS File=VPD$UTIL.:E05TSI                       WED 07/30/97 07:45 Page:546
FPT_OPEN_EI_SAVE.V.FSN#
      6562**DCL      6562--REDEF    6562--REDEF
FPT_OPEN_EI_SAVE.WSN_
      6528**DCL      6528--REDEF
FPT_OPEN_OUT.ACSVEH_
      6306**DCL      6307--REDEF
FPT_OPEN_OUT.ALTKEYS_
      6312**DCL      6313--REDEF    6313--REDEF
FPT_OPEN_OUT.HDR_
      6311**DCL      6312--REDEF
FPT_OPEN_OUT.TAB_
      6310**DCL      6311--REDEF
FPT_OPEN_OUT.UHL_
      6304**DCL      6305--REDEF    6305--REDEF
FPT_OPEN_OUT.V.FSN#
      6344**DCL      6344--REDEF    6344--REDEF
FPT_OPEN_OUT.WSN_
      6310**DCL      6310--REDEF
FPT_OPEN_OUT_SAVE.ACSVEH_
      6197**DCL      6198--REDEF
FPT_OPEN_OUT_SAVE.ALTKEYS_
      6203**DCL      6204--REDEF    6204--REDEF
FPT_OPEN_OUT_SAVE.HDR_
      6202**DCL      6203--REDEF
FPT_OPEN_OUT_SAVE.TAB_
      6201**DCL      6202--REDEF
FPT_OPEN_OUT_SAVE.UHL_
      6195**DCL      6196--REDEF    6196--REDEF
FPT_OPEN_OUT_SAVE.V.FSN#
      6235**DCL      6235--REDEF    6235--REDEF
FPT_OPEN_OUT_SAVE.WSN_
      6201**DCL      6201--REDEF
FPT_PROMPT
      6068**DCL      7269<>CALL
FPT_PROMPT.PROMPT_
      6074**DCL      7268<<ASSIGN
PL6.E3A0      #022=VPD$INIT_COMMANDS File=VPD$UTIL.:E05TSI                       WED 07/30/97 07:45 Page:547
FPT_READ_STD.STATION_
      6625**DCL      6626--REDEF
FPT_READ_STD.V.DVBYTE.REREAD#
      6637**DCL      6637--REDEF
FPT_READ_STD.V.INDX#
      6635**DCL      6635--REDEF
FPT_READ_UC.STATION_
      6586**DCL      6587--REDEF
FPT_READ_UC.V.DVBYTE.REREAD#
      6598**DCL      6598--REDEF
FPT_READ_UC.V.INDX#
      6596**DCL      6596--REDEF
FPT_WRITE_ME.STATION_
      6694**DCL      6694--REDEF
FPT_WRITE_ME.V.DVBYTE.VFC#
      6701**DCL      6701--REDEF
FPT_WRITE_OUT.STATION_
      6725**DCL      6725--REDEF
FPT_WRITE_OUT.V.DVBYTE.VFC#
      6732**DCL      6732--REDEF
FPT_WRITE_UC.STATION_
      6663**DCL      6663--REDEF
FPT_WRITE_UC.V.DVBYTE.VFC#
      6670**DCL      6670--REDEF
FROM_SN.SN
      5569**DCL      5570--REDEF
GETCMD.OUT$
      4776**DCL      4782--REDEF
ICB.FID.STRING
      5593**DCL      5594--REDEF
IFSFA_PARAM.EOMCHAR#
      5948**DCL      5949--REDEF
IFSFA_PARAM.SIG1
      5942**DCL      5942--REDEF
IFSFA_PARAM.SIG2
      5942**DCL      5943--REDEF
PL6.E3A0      #022=VPD$INIT_COMMANDS File=VPD$UTIL.:E05TSI                       WED 07/30/97 07:45 Page:548
IN_RES
      5515**DCL      5515--REDEF
IN_SN.SN
      5531**DCL      5532--REDEF
KEY_AREA$
      5920**DCL      7258>>IF       7259<>CALL     7265<<ASSIGN
LIST_BUF$
      5220**DCL      7254>>IF       7255<>CALL
LIST_SIZE
      5220**DCL      7255<>CALL     7256<<ASSIGN
M$PROMPT
        57**DCL-ENT  7269--CALL
M$TIME
       100**DCL-ENT  7270--CALL
NOW_UTS
      5222**DCL      7233--DCLINIT
OCB.TYPE
      5277**DCL      5278--REDEF
OFSFA_PARAM.EOMCHAR#
      5978**DCL      5979--REDEF
OFSFA_PARAM.SIG1
      5972**DCL      5972--REDEF
OFSFA_PARAM.SIG2
      5972**DCL      5973--REDEF
OUT_SN.SN
      5549**DCL      5550--REDEF
PARSE_WORK_AREA
      4557**DCL      7249--ASSIGN   7250--ASSIGN
PCB.WKSZ
      4607**DCL      7250<<ASSIGN
PCB.WORK$
      4586**DCL      7249<<ASSIGN
PROMPT_2
      7240**DCL      7268--ASSIGN
RESULTS_FID_FROM
      6044**DCL      7245<<ASSIGN
PL6.E3A0      #022=VPD$INIT_COMMANDS File=VPD$UTIL.:E05TSI                       WED 07/30/97 07:45 Page:549
SPEC_BUF
      5227**DCL      5227--REDEF
STD_WORK$
      4557**DCL      7251>>IF       7253<>CALL     7266<<ASSIGN
THIS_STD_FILE
      5221**DCL      7267<<ASSIGN
TOT_FILES
      5226**DCL      7246<<ASSIGN
TOT_GRANS
      5226**DCL      7247<<ASSIGN
TOT_RECS
      5227**DCL      7248<<ASSIGN
USER_LABELS$
      5220**DCL      7260>>IF       7261<>CALL     7262<<ASSIGN
VPD$REL_BUF
      7051**DCL-ENT  7253--CALL     7255--CALL     7259--CALL     7261--CALL

PL6.E3A0      #023=VPD$INIT_STD_FILE File=VPD$UTIL.:E05TSI                       WED 07/30/97 07:46 Page:550
     2086        1        /*T***********************************************************/
     2087        2        /*T*                                                         */
     2088        3        /*T* Copyright (c) Bull HN Information Systems Inc., 1997    */
     2089        4        /*T*                                                         */
     2090        5        /*T***********************************************************/
     2091        6        VPD$INIT_STD_FILE: PROC(FID$);
     2092        7        /*D* NAME: VPD$INIT_STD_FILE
     2093        8             CALL: CALL VPD$INIT_STD_FILE(FID$);
     2094        9             DESCRIPTION: This procedure takes the file defined by the PARSE$SYM
     2095       10                          block pointed to by FID$ to a scratch file through M$STD1
     2096       11                          DCB and PFIL's to BOF ready to read.
     2097       12        */
     2098       13        %INCLUDE VP_DATA_R;
     2099     7000        %INCLUDE F$DCB;
     2100     7049        %B$TCB;
     2101     7052        %B$ALT;
     2102     7060        %INCLUDE B_ERRORS_C;
     2103     8187        %PARSE$SYM(NAME = OUT$SYM,STCLASS = BASED);
     2104     8225    1   DCL FID$ PTR;
     2105     8226        %FPT_FID(FPTN = FPT_FID_STD,
     2106     8227                 NAME = STD_NAME,
     2107     8228                 ACCT = STD_ACCT,
     2108     8229                 PASS = STD_PASS,
     2109     8230                 RES  = FPT_OPEN_STD_IN.V.RES#,
     2110     8231                 SN   = STD_SN,
     2111     8232                 WSN  = STD_WSN,
     2112     8233                 ASN  = FPT_OPEN_STD_IN.V.ASN#,
     2113     8234                 SNAME = YES,
     2114     8235                 SACCT = YES,
     2115     8236                 SPASS = YES,
     2116     8237                 SRES  = YES,
     2117     8238                 SSN   = YES,
     2118     8239                 SWSN  = YES,
     2119     8240                 RESULTS = RESULTS_FID_STD,
     2120     8241                 STCLASS = STATIC);
     2121     8264        %VLR_FID(FPTN = RESULTS_FID_STD,
     2122     8265                     STCLASS = STATIC);
PL6.E3A0      #023=VPD$INIT_STD_FILE File=VPD$UTIL.:E05TSI                       WED 07/30/97 07:46 Page:551
     2123     8284    1   DCL 1 STD_NAME STATIC,
     2124     8285    1         2 * UBIN BYTE UNAL,
     2125     8286    1         2 * CHAR(31);
     2126     8287    1   DCL STD_ACCT CHAR(8) STATIC;
     2127     8288    1   DCL STD_PASS CHAR(8) STATIC;
     2128     8289        %PCL_SN(FPTN = STD_SN,STCLASS = STATIC);
     2129     8307    1   DCL STD_WSN CHAR(8) STATIC;
     2130     8308        %FPT_OPEN(FPTN = FPT_OPEN_STD_IN,
     2131     8309                  DCB  = M$EI,
     2132     8310                  NAME = STD_NAME,
     2133     8311                  ACCT = STD_ACCT,
     2134     8312                  PASS = STD_PASS,
     2135     8313                  SN   = STD_SN,
     2136     8314                  WSN  = STD_WSN,
     2137     8315                  SCRUB = YES,
     2138     8316                  REASSIGN = NO,
     2139     8317                  SHARE = ALL,
     2140     8318                  FUN = IN,
     2141     8319                STCLASS = STATIC);
     2142     8428        %FPT_CLOSE(FPTN = FPT_CLOSE_STD_IN_PTL,
     2143     8429                   DCB  = M$EI,
     2144     8430                   POS  = PTL,
     2145     8431                   STCLASS = CONSTANT);
     2146     8473        %FPT_OPEN(FPTN = FPT_OPEN_STD_OUT,
     2147     8474                  DCB = M$STD1,
     2148     8475                  DISP = SCRATCH,
     2149     8476                  FUN  = CREATE,
     2150     8477                  EXIST = NEWFILE,
     2151     8478                  ASN = FILE,
     2152     8479                  ORG = CONSEC,
     2153     8480                  STCLASS = CONSTANT);
     2154     8589        %FPT_READ(FPTN = FPT_READ_STD_IN,
     2155     8590                  DCB = M$EI,
     2156     8591                  BUF = PARSE_IN_BUF,
     2157     8592                  STCLASS = CONSTANT);
     2158     8631        %FPT_WRITE(FPTN = FPT_WRITE_STD,
     2159     8632                   DCB = M$STD1,
PL6.E3A0      #023=VPD$INIT_STD_FILE File=VPD$UTIL.:E05TSI                       WED 07/30/97 07:46 Page:552
     2160     8633                   STCLASS = STATIC);
     2161     8664        %FPT_PFIL(FPTN = FPT_PFIL_STD,
     2162     8665                  DCB = M$STD1,
     2163     8666                  BOF = YES,
     2164     8667                  STCLASS = CONSTANT);
     2165     8682        %VP_ENTRIES (OMIT=VPD$INIT_STD_FILE);
     2166     8890        /**/
     2167     8891        /*  Make some room to parse the source specs in the STD file.  Leaving        */
     2168     8892        /*  the parse output blocks from the command intact.                          */
     2169     8893        /**/
     2170     8894    1           PCB.WORK$=ADDR(NIL);
     2171     8895    1           CALL VPD$GET_BUF(PCB.WORK$,1024)
     2172     8896    2            WHENALTRETURN DO;
     2173     8897    2               CALL VPL$ERR_PROC(5,260,'04'O);
     2174     8898    2               END;
     2175     8899        /*E*  ERROR: VPD-00260
     2176     8900            MESSAGE: INTERNAL PCL ERROR!  STD work area unavailable!
     2177     8901        */
     2178     8902    1           PCB.WKSZ = 1024;
     2179     8903    1           STD_WORK$ = PCB.WORK$;
     2180     8904    1           PCB.ROOT$ = ADDR(TOP_STD_N);
     2181     8905    1           PCB.U$$ = ENTADDR(NIL);
     2182     8906        /**/
     2183     8907        /*  Prepare a scratch file that will contain the STD-file image.              */
     2184     8908        /**/
     2185     8909    1           FPT_FID_STD.TEXTFID_   = VECTOR(FID$->OUT$SYM.TEXT);
     2186     8910    1           CALL VPD$FID (FPT_FID_STD);
     2187     8911    1           CALL M$OPEN(FPT_OPEN_STD_IN) ALTRET(ALT_1);
     2188     8912    1           CALL M$OPEN(FPT_OPEN_STD_OUT) ALTRET(ALT_2);
     2189     8913        /**/
     2190     8914        /*  In most cases, the STD file is manipulated along with the files           */
     2191     8915        /*  that it names.  Exceptions are:                                           */
     2192     8916        /*    o A DELETE operation                                                    */
     2193     8917        /*    o STD info from a DEVICE (probably can't position back to               */
     2194     8918        /*      access the original file).                                            */
     2195     8919        /**/
     2196     8920    1           IF CMD_MASK(7)='0'B             /* not DELETESTD                      */
PL6.E3A0      #023=VPD$INIT_STD_FILE File=VPD$UTIL.:E05TSI                       WED 07/30/97 07:46 Page:553
     2197     8921    1             AND FPT_OPEN_STD_IN.V.ASN#~=%DEVICE# /* and not DEVICE              */
     2198     8922    1            THEN
     2199     8923    2            DO;                            /* PUT STD FILE AS FIRST FILE IN      */
     2200     8924                                                /* DUMMY STD FILE                     */
     2201     8925    2               FPT_WRITE_STD.BUF_   = FPT_FID_STD.TEXTFID_;
     2202     8926    2               CALL M$WRITE(FPT_WRITE_STD) ALTRET(ALT_3);
     2203     8927    2               THIS_STD_FILE = '1'B;
     2204     8928    2               END;
     2205     8929        /**/
     2206     8930        /*  Copy the original STD file to the scratch one.                            */
     2207     8931        /**/
     2208     8932    2           DO WHILE('1'B);
     2209     8933    2              CALL M$READ(FPT_READ_STD_IN) ALTRET(READ_ALT);
     2210     8934    2              IF M$EI$->F$DCB.ARS>0
     2211     8935    2               THEN
     2212     8936    3               DO;
     2213     8937    3                  FPT_WRITE_STD.BUF_   = VECTOR(PARSE_IN_BUF);
     2214     8938    3                  FPT_WRITE_STD.BUF_.BOUND   = M$EI$->F$DCB.ARS-1;
     2215     8939    3                  END;
     2216     8940    2               ELSE
     2217     8941    2                 FPT_WRITE_STD.BUF_ = VECTOR(NIL);
     2218     8942    2              CALL M$WRITE(FPT_WRITE_STD) ALTRET(ALT_3);
     2219     8943    2              END;
     2220     8944    1   ALT_3:
     2221     8945    1           CALL M$CLOSE(FPT_CLOSE_STD);
     2222     8946    1   ALT_2:
     2223     8947    1           CALL M$CLOSE(FPT_CLOSE_STD_IN_PTL);
     2224     8948    1   ALT_1:
     2225     8949    1           CALL VPL$ERR_PROC(3,0);
     2226     8950    1   READ_ALT:
     2227     8951    1           IF B$TCB$->B$TCB.ALT$->B$ALT.ERR.CODE=%E$EOF
     2228     8952    1            THEN
     2229     8953    2            DO;
     2230     8954    2               CALL M$CLOSE(FPT_CLOSE_STD_IN_PTL);
     2231     8955    2               CALL M$PFIL(FPT_PFIL_STD);
     2232     8956    2               END;
     2233     8957    1            ELSE
PL6.E3A0      #023=VPD$INIT_STD_FILE File=VPD$UTIL.:E05TSI                       WED 07/30/97 07:46 Page:554
     2234     8958    1              GOTO ALT_3;
     2235     8959    1   END VPD$INIT_STD_FILE;
     2236     8960        %EOD;

PL6.E3A0      #023=VPD$INIT_STD_FILE File=VPD$UTIL.:E05TSI                       WED 07/30/97 07:46 Page:555
--  Include file information  --

   B_ERRORS_C.:E05TOU  is referenced.
   F$DCB.:E05TOU  cannot be made into a system file and is referenced.
   B_MICROPS_C.:E05TOU  is referenced.
   XU_MACRO_C.:E05TOU  is referenced.
   VP_MACRO_C.:E05TOU  is referenced.
   XS_MACRO_C.:E05TOU  is referenced.
   VP_PERR_C.:E05TOU  is referenced.
   CP_6_SUBS.:E05TOU  is referenced.
   CP_6.:E05TOU  cannot be made into a system file and is referenced.
   VP_DATA_R.:E05TOU  cannot be made into a system file and is referenced.
   B$JIT_C.:E05TOU  was found in the system file and is never referenced.
   CP_6_C.:E05TOU  was found in the system file and is referenced.
      No diagnostics issued in procedure VPD$INIT_STD_FILE.

   Procedure VPD$INIT_STD_FILE requires 105 words for executable code.
   Procedure VPD$INIT_STD_FILE requires 6 words of local(AUTO) storage.

PL6.E3A0      #023=VPD$INIT_STD_FILE File=VPD$UTIL.:E05TSI                       WED 07/30/97 07:46 Page:556

 Object Unit name= VPD$INIT_STD_FILE                          File name= VPD$UTIL.:E05TOU
 UTS= JUL 30 '97 07:46:44.92 WED                              Compiler= PL-6/E31         Sev=      00
 SharedLib= :SHARED_SYSTEM                                    Alt SharedLib=


    ****  Control sections  ****

 Sect   Type Bound  Init  Size OctSiz  Section name(segment info)
    0   DCB   even  none     0      0  M$UC
    1   DCB   even  none     0      0  M$EI
    2   DCB   even  none     0      0  M$EO
    3   DCB   even  none     0      0  M$EO1
    4   DCB   even  none     0      0  M$ME
    5   DCB   even  none     0      0  M$SI
    6   DCB   even  none     0      0  M$READFILE
    7   DCB   even  none     0      0  M$DO
    8   DCB   even  none     0      0  M$STD1
    9   DCB   even  none     0      0  M$SORT1
   10   Data  even  none   150    226  VPD$INIT_STD_FILE
   11  RoData even  UTS    106    152  VPD$INIT_STD_FILE
   12   Proc  even  none   105    151  VPD$INIT_STD_FILE
   13  RoData even  none    18     22  VPD$INIT_STD_FILE

    ****  Entry defs  ****

                              Check   Calling
                             calling  sequence
  Sect OctLoc Primary Altret sequence   type   Parms  Name
    12      0   yes            yes      Std        1  VPD$INIT_STD_FILE
PL6.E3A0      #023=VPD$INIT_STD_FILE File=VPD$UTIL.:E05TSI                       WED 07/30/97 07:46 Page:557

  ****  Entry refs  ****

         Check        Calling
        calling       sequence
Altret sequence SRef   type   Args  Name
 yes     yes           Std       2 VPD$GET_BUF
         yes           Std       8 VPL$ERR_PROC
 yes     yes           Std       2 VPD$FID
                       nStd      0 X66_AUTO_1
                       Std       0 B_CONSPOOL_D
                       nStd      0 X66_ARET

  ****  Data refs  ****

  Flags:  r = read only, s = secondary
Flgs Name                             Flgs Name                             Flgs Name
     M$UC                                  PARSE_IN_BUF                          STD_WORK$
     PCB                                   THIS_STD_FILE                         BREAK_LOC
     BREAK_MESSAGE_REPORTER                CMD_MASK                              SPEC_BUF
     IN_RES                                M$EI                                  M$EI$
     M$EO                                  M$EO1                                 M$ME
     M$SI                                  M$READFILE                            M$DO
     M$STD1                                M$SORT1                               B$TCB$
     TOP_STD_N                        r    FPT_CLOSE_STD                         B_VECTNIL

  ****  Segment refs  ****

  Flags:  r = read only, s = secondary
Flgs Name                             Flgs Name                             Flgs Name
     ISSID                                 NULLSID
PL6.E3A0      #023=VPD$INIT_STD_FILE File=VPD$UTIL.:E05TSI                       WED 07/30/97 07:46 Page:558


     2086        1        /*T***********************************************************/
     2087        2        /*T*                                                         */
     2088        3        /*T* Copyright (c) Bull HN Information Systems Inc., 1997    */
     2089        4        /*T*                                                         */
     2090        5        /*T***********************************************************/
     2091        6        VPD$INIT_STD_FILE: PROC(FID$);

      6 12 000000   000000 700200 xent  VPD$INIT_ST* TSX0  ! X66_AUTO_1
        12 000001   000006 000001                    ZERO    6,1

     2092        7        /*D* NAME: VPD$INIT_STD_FILE
     2093        8             CALL: CALL VPD$INIT_STD_FILE(FID$);
     2094        9             DESCRIPTION: This procedure takes the file defined by the PARSE$SYM
     2095       10                          block pointed to by FID$ to a scratch file through M$STD1
     2096       11                          DCB and PFIL's to BOF ready to read.
     2097       12        */
     2098       13        %INCLUDE VP_DATA_R;
     2099     7000        %INCLUDE F$DCB;
     2100     7049        %B$TCB;
     2101     7052        %B$ALT;
     2102     7060        %INCLUDE B_ERRORS_C;
     2103     8187        %PARSE$SYM(NAME = OUT$SYM,STCLASS = BASED);
     2104     8225    1   DCL FID$ PTR;
     2105     8226        %FPT_FID(FPTN = FPT_FID_STD,
     2106     8227                 NAME = STD_NAME,
     2107     8228                 ACCT = STD_ACCT,
     2108     8229                 PASS = STD_PASS,
     2109     8230                 RES  = FPT_OPEN_STD_IN.V.RES#,
     2110     8231                 SN   = STD_SN,
     2111     8232                 WSN  = STD_WSN,
     2112     8233                 ASN  = FPT_OPEN_STD_IN.V.ASN#,
     2113     8234                 SNAME = YES,
     2114     8235                 SACCT = YES,
     2115     8236                 SPASS = YES,
     2116     8237                 SRES  = YES,
     2117     8238                 SSN   = YES,
PL6.E3A0      #023=VPD$INIT_STD_FILE File=VPD$UTIL.:E05TSI                       WED 07/30/97 07:46 Page:559
     2118     8239                 SWSN  = YES,
     2119     8240                 RESULTS = RESULTS_FID_STD,
     2120     8241                 STCLASS = STATIC);
     2121     8264        %VLR_FID(FPTN = RESULTS_FID_STD,
     2122     8265                     STCLASS = STATIC);
     2123     8284    1   DCL 1 STD_NAME STATIC,
     2124     8285    1         2 * UBIN BYTE UNAL,
     2125     8286    1         2 * CHAR(31);
     2126     8287    1   DCL STD_ACCT CHAR(8) STATIC;
     2127     8288    1   DCL STD_PASS CHAR(8) STATIC;
     2128     8289        %PCL_SN(FPTN = STD_SN,STCLASS = STATIC);
     2129     8307    1   DCL STD_WSN CHAR(8) STATIC;
     2130     8308        %FPT_OPEN(FPTN = FPT_OPEN_STD_IN,
     2131     8309                  DCB  = M$EI,
     2132     8310                  NAME = STD_NAME,
     2133     8311                  ACCT = STD_ACCT,
     2134     8312                  PASS = STD_PASS,
     2135     8313                  SN   = STD_SN,
     2136     8314                  WSN  = STD_WSN,
     2137     8315                  SCRUB = YES,
     2138     8316                  REASSIGN = NO,
     2139     8317                  SHARE = ALL,
     2140     8318                  FUN = IN,
     2141     8319                STCLASS = STATIC);
     2142     8428        %FPT_CLOSE(FPTN = FPT_CLOSE_STD_IN_PTL,
     2143     8429                   DCB  = M$EI,
     2144     8430                   POS  = PTL,
     2145     8431                   STCLASS = CONSTANT);
     2146     8473        %FPT_OPEN(FPTN = FPT_OPEN_STD_OUT,
     2147     8474                  DCB = M$STD1,
     2148     8475                  DISP = SCRATCH,
     2149     8476                  FUN  = CREATE,
     2150     8477                  EXIST = NEWFILE,
     2151     8478                  ASN = FILE,
     2152     8479                  ORG = CONSEC,
     2153     8480                  STCLASS = CONSTANT);
     2154     8589        %FPT_READ(FPTN = FPT_READ_STD_IN,
PL6.E3A0      #023=VPD$INIT_STD_FILE File=VPD$UTIL.:E05TSI                       WED 07/30/97 07:46 Page:560
     2155     8590                  DCB = M$EI,
     2156     8591                  BUF = PARSE_IN_BUF,
     2157     8592                  STCLASS = CONSTANT);
     2158     8631        %FPT_WRITE(FPTN = FPT_WRITE_STD,
     2159     8632                   DCB = M$STD1,
     2160     8633                   STCLASS = STATIC);
     2161     8664        %FPT_PFIL(FPTN = FPT_PFIL_STD,
     2162     8665                  DCB = M$STD1,
     2163     8666                  BOF = YES,
     2164     8667                  STCLASS = CONSTANT);
     2165     8682        %VP_ENTRIES (OMIT=VPD$INIT_STD_FILE);
     2166     8890        /**/
     2167     8891        /*  Make some room to parse the source specs in the STD file.  Leaving        */
     2168     8892        /*  the parse output blocks from the command intact.                          */
     2169     8893        /**/
     2170     8894    1           PCB.WORK$=ADDR(NIL);

   8894 12 000002   000001 236000 xsym               LDQ     B_VECTNIL+1
        12 000003   000002 756000 xsym               STQ     PCB+2

     2171     8895    1           CALL VPD$GET_BUF(PCB.WORK$,1024)

   8895 12 000004   000001 630400 13                 EPPR0   1
        12 000005   000020 631400 xsym               EPPR1   B_VECTNIL+16
        12 000006   000000 701000 xent               TSX1    VPD$GET_BUF
        12 000007   000011 702000 12                 TSX2    s:8897
        12 000010   000015 710000 12                 TRA     s:8902

     2172     8896    2            WHENALTRETURN DO;

     2173     8897    2               CALL VPL$ERR_PROC(5,260,'04'O);

   8897 12 000011   000005 630400 13                 EPPR0   5
        12 000012   000021 631400 xsym               EPPR1   B_VECTNIL+17
        12 000013   000000 701000 xent               TSX1    VPL$ERR_PROC
        12 000014   000000 011000                    NOP     0

PL6.E3A0      #023=VPD$INIT_STD_FILE File=VPD$UTIL.:E05TSI                       WED 07/30/97 07:46 Page:561
     2174     8898    2               END;

     2175     8899        /*E*  ERROR: VPD-00260
     2176     8900            MESSAGE: INTERNAL PCL ERROR!  STD work area unavailable!
     2177     8901        */
     2178     8902    1           PCB.WKSZ = 1024;

   8902 12 000015   002000 220003                    LDX0    1024,DU
        12 000016   000005 740000 xsym               STX0    PCB+5

     2179     8903    1           STD_WORK$ = PCB.WORK$;

   8903 12 000017   000002 236000 xsym               LDQ     PCB+2
        12 000020   000000 756000 xsym               STQ     STD_WORK$

     2180     8904    1           PCB.ROOT$ = ADDR(TOP_STD_N);

   8904 12 000021   000010 236000 13                 LDQ     8
        12 000022   000001 756000 xsym               STQ     PCB+1

     2181     8905    1           PCB.U$$ = ENTADDR(NIL);

   8905 12 000023   000002 236000 xsym               LDQ     B_VECTNIL+2
        12 000024   000004 756000 xsym               STQ     PCB+4

     2182     8906        /**/
     2183     8907        /*  Prepare a scratch file that will contain the STD-file image.              */
     2184     8908        /**/
     2185     8909    1           FPT_FID_STD.TEXTFID_   = VECTOR(FID$->OUT$SYM.TEXT);

   8909 12 000025   200003 470500                    LDP0    @FID$,,AUTO
        12 000026   000000 471500                    LDP1    0,,PR0
        12 000027   100004 236100                    LDQ     4,,PR1
        12 000030   000033 772000                    QRL     27
        12 000031   000064 737000                    LLS     52
        12 000032   000140 135007                    SBLA    96,DL
        12 000033   200004 451500                    STP1    @FID$+1,,AUTO
PL6.E3A0      #023=VPD$INIT_STD_FILE File=VPD$UTIL.:E05TSI                       WED 07/30/97 07:46 Page:562
        12 000034   200004 236100                    LDQ     @FID$+1,,AUTO
        12 000035   000011 036000 13                 ADLQ    9
        12 000036   000002 757000 10                 STAQ    FPT_FID_STD+2

     2186     8910    1           CALL VPD$FID (FPT_FID_STD);

   8910 12 000037   000012 630400 13                 EPPR0   10
        12 000040   000017 631400 xsym               EPPR1   B_VECTNIL+15
        12 000041   000000 701000 xent               TSX1    VPD$FID
        12 000042   000000 011000                    NOP     0

     2187     8911    1           CALL M$OPEN(FPT_OPEN_STD_IN) ALTRET(ALT_1);

   8911 12 000043   000120 630400 10                 EPPR0   FPT_OPEN_STD_IN
        12 000044   450000 713400                    CLIMB   alt,open
        12 000045   410400 401760                    pmme    nvectors=18
        12 000046   000127 702000 12                 TSX2    ALT_1

     2188     8912    1           CALL M$OPEN(FPT_OPEN_STD_OUT) ALTRET(ALT_2);

   8912 12 000047   000036 630400 11                 EPPR0   FPT_OPEN_STD_OUT
        12 000050   450000 713400                    CLIMB   alt,open
        12 000051   410400 401760                    pmme    nvectors=18
        12 000052   000124 702000 12                 TSX2    ALT_2

     2189     8913        /**/
     2190     8914        /*  In most cases, the STD file is manipulated along with the files           */
     2191     8915        /*  that it names.  Exceptions are:                                           */
     2192     8916        /*    o A DELETE operation                                                    */
     2193     8917        /*    o STD info from a DEVICE (probably can't position back to               */
     2194     8918        /*      access the original file).                                            */
     2195     8919        /**/
     2196     8920    1           IF CMD_MASK(7)='0'B             /* not DELETESTD                      */

   8920 12 000053   000000 236000 xsym               LDQ     CMD_MASK
        12 000054   002000 316003                    CANQ    1024,DU
        12 000055   000072 601000 12                 TNZ     s:8933
PL6.E3A0      #023=VPD$INIT_STD_FILE File=VPD$UTIL.:E05TSI                       WED 07/30/97 07:46 Page:563
        12 000056   000165 236000 10                 LDQ     FPT_OPEN_STD_IN+37
        12 000057   000777 376007                    ANQ     511,DL
        12 000060   000003 116007                    CMPQ    3,DL
        12 000061   000072 600000 12                 TZE     s:8933

     2197     8921    1             AND FPT_OPEN_STD_IN.V.ASN#~=%DEVICE# /* and not DEVICE              */
     2198     8922    1            THEN
     2199     8923    2            DO;                            /* PUT STD FILE AS FIRST FILE IN      */

     2200     8924                                                /* DUMMY STD FILE                     */
     2201     8925    2               FPT_WRITE_STD.BUF_   = FPT_FID_STD.TEXTFID_;

   8925 12 000062   000002 237000 10                 LDAQ    FPT_FID_STD+2
        12 000063   000216 757000 10                 STAQ    FPT_WRITE_STD+4

     2202     8926    2               CALL M$WRITE(FPT_WRITE_STD) ALTRET(ALT_3);

   8926 12 000064   000212 630400 10                 EPPR0   FPT_WRITE_STD
        12 000065   440001 713400                    CLIMB   alt,write
        12 000066   401400 401760                    pmme    nvectors=4
        12 000067   000121 702000 12                 TSX2    ALT_3

     2203     8927    2               THIS_STD_FILE = '1'B;

   8927 12 000070   400000 236003                    LDQ     -131072,DU
        12 000071   000000 756000 xsym               STQ     THIS_STD_FILE

     2204     8928    2               END;

     2205     8929        /**/
     2206     8930        /*  Copy the original STD file to the scratch one.                            */
     2207     8931        /**/
     2208     8932    2           DO WHILE('1'B);

     2209     8933    2              CALL M$READ(FPT_READ_STD_IN) ALTRET(READ_ALT);

   8933 12 000072   000130 630400 11                 EPPR0   FPT_READ_STD_IN
PL6.E3A0      #023=VPD$INIT_STD_FILE File=VPD$UTIL.:E05TSI                       WED 07/30/97 07:46 Page:564
        12 000073   440000 713400                    CLIMB   alt,read
        12 000074   401400 401760                    pmme    nvectors=4
        12 000075   000133 702000 12                 TSX2    READ_ALT

     2210     8934    2              IF M$EI$->F$DCB.ARS>0

   8934 12 000076   000000 470400 xsym               LDP0    M$EI$
        12 000077   000000 235100                    LDA     0,,PR0
        12 000100   000112 604400 12                 TMOZ    s:8941

     2211     8935    2               THEN
     2212     8936    3               DO;

     2213     8937    3                  FPT_WRITE_STD.BUF_   = VECTOR(PARSE_IN_BUF);

   8937 12 000101   000014 237000 13                 LDAQ    12
        12 000102   000216 757000 10                 STAQ    FPT_WRITE_STD+4

     2214     8938    3                  FPT_WRITE_STD.BUF_.BOUND   = M$EI$->F$DCB.ARS-1;

   8938 12 000103   000000 236100                    LDQ     0,,PR0
        12 000104   000001 136007                    SBLQ    1,DL
        12 000105   000020 736000                    QLS     16
        12 000106   000216 676000 10                 ERQ     FPT_WRITE_STD+4
        12 000107   000034 376000 xsym               ANQ     B_VECTNIL+28
        12 000110   000216 656000 10                 ERSQ    FPT_WRITE_STD+4

     2215     8939    3                  END;

   8939 12 000111   000114 710000 12                 TRA     s:8942

     2216     8940    2               ELSE
     2217     8941    2                 FPT_WRITE_STD.BUF_ = VECTOR(NIL);

   8941 12 000112   000016 237000 13                 LDAQ    14
        12 000113   000216 757000 10                 STAQ    FPT_WRITE_STD+4

PL6.E3A0      #023=VPD$INIT_STD_FILE File=VPD$UTIL.:E05TSI                       WED 07/30/97 07:46 Page:565
     2218     8942    2              CALL M$WRITE(FPT_WRITE_STD) ALTRET(ALT_3);

   8942 12 000114   000212 630400 10                 EPPR0   FPT_WRITE_STD
        12 000115   440001 713400                    CLIMB   alt,write
        12 000116   401400 401760                    pmme    nvectors=4
        12 000117   000121 702000 12                 TSX2    ALT_3

     2219     8943    2              END;

   8943 12 000120   000072 710000 12                 TRA     s:8933

     2220     8944    1   ALT_3:
     2221     8945    1           CALL M$CLOSE(FPT_CLOSE_STD);

   8945 12 000121   000000 630400 xsym  ALT_3        EPPR0   FPT_CLOSE_STD
        12 000122   050001 713400                    CLIMB   close
        12 000123   406000 401760                    pmme    nvectors=13

     2222     8946    1   ALT_2:
     2223     8947    1           CALL M$CLOSE(FPT_CLOSE_STD_IN_PTL);

   8947 12 000124   000000 630400 11    ALT_2        EPPR0   FPT_CLOSE_STD_IN_PTL
        12 000125   050001 713400                    CLIMB   close
        12 000126   406000 401760                    pmme    nvectors=13

     2224     8948    1   ALT_1:
     2225     8949    1           CALL VPL$ERR_PROC(3,0);

   8949 12 000127   000020 630400 13    ALT_1        EPPR0   16
        12 000130   000020 631400 xsym               EPPR1   B_VECTNIL+16
        12 000131   000000 701000 xent               TSX1    VPL$ERR_PROC
        12 000132   000000 011000                    NOP     0

     2226     8950    1   READ_ALT:
     2227     8951    1           IF B$TCB$->B$TCB.ALT$->B$ALT.ERR.CODE=%E$EOF

   8951 12 000133   000000 470400 xsym  READ_ALT     LDP0    B$TCB$
PL6.E3A0      #023=VPD$INIT_STD_FILE File=VPD$UTIL.:E05TSI                       WED 07/30/97 07:46 Page:566
        12 000134   000000 471500                    LDP1    0,,PR0
        12 000135   100102 236100                    LDQ     66,,PR1
        12 000136   377770 376007                    ANQ     131064,DL
        12 000137   000060 116007                    CMPQ    48,DL
        12 000140   000121 601000 12                 TNZ     ALT_3

     2228     8952    1            THEN
     2229     8953    2            DO;

     2230     8954    2               CALL M$CLOSE(FPT_CLOSE_STD_IN_PTL);

   8954 12 000141   000000 630400 11                 EPPR0   FPT_CLOSE_STD_IN_PTL
        12 000142   050001 713400                    CLIMB   close
        12 000143   406000 401760                    pmme    nvectors=13

     2231     8955    2               CALL M$PFIL(FPT_PFIL_STD);

   8955 12 000144   000146 630400 11                 EPPR0   FPT_PFIL_STD
        12 000145   040004 713400                    CLIMB   16388
        12 000146   400000 401760                    pmme    nvectors=1

     2232     8956    2               END;

   8956 12 000147   000150 710000 12                 TRA     s:8959

     2233     8957    1            ELSE
     2234     8958    1              GOTO ALT_3;
     2235     8959    1   END VPD$INIT_STD_FILE;

   8959 12 000150   000000 702200 xent               TSX2  ! X66_ARET
     2236     8960        %EOD;

PL6.E3A0      #023=VPD$INIT_STD_FILE File=VPD$UTIL.:E05TSI                       WED 07/30/97 07:46 Page:567
--  Include file information  --

   B_ERRORS_C.:E05TOU  is referenced.
   F$DCB.:E05TOU  cannot be made into a system file and is referenced.
   B_MICROPS_C.:E05TOU  is referenced.
   XU_MACRO_C.:E05TOU  is referenced.
   VP_MACRO_C.:E05TOU  is referenced.
   XS_MACRO_C.:E05TOU  is referenced.
   VP_PERR_C.:E05TOU  is referenced.
   CP_6_SUBS.:E05TOU  is referenced.
   CP_6.:E05TOU  cannot be made into a system file and is referenced.
   VP_DATA_R.:E05TOU  cannot be made into a system file and is referenced.
   B$JIT_C.:E05TOU  was found in the system file and is never referenced.
   CP_6_C.:E05TOU  was found in the system file and is referenced.
      No diagnostics issued in procedure VPD$INIT_STD_FILE.
PL6.E3A0      #023=VPD$INIT_STD_FILE File=VPD$UTIL.:E05TSI                       WED 07/30/97 07:46 Page:568

 **** Variables and constants ****

  ****  Section 010  Data  VPD$INIT_STD_FILE

  ****  Scalars and arrays  ****
OctLoc.c.b A Datatyp(siz) R M Lvl/name                 OctLoc.c.b A Datatyp(siz) R M Lvl/name

     0-0-0/d STRC(864)   r     1 FPT_FID_STD              120-0-0/d STRC(2088)  r     1 FPT_OPEN_STD_IN
   212-0-0/d STRC(432)   r     1 FPT_WRITE_STD             30-0-0/d STRC(324)   r     1 RESULTS_FID_STD
    52-0-0/c CHAR(8)     r     1 STD_ACCT                  42-0-0/c STRC(288)   r     1 STD_NAME
    54-0-0/c CHAR(8)     r     1 STD_PASS                  56-0-0/w STRC(1116)  r     1 STD_SN
   115-0-0/c CHAR(8)     r     1 STD_WSN

  ****  Section 011 RoData VPD$INIT_STD_FILE

  ****  Scalars and arrays  ****
OctLoc.c.b A Datatyp(siz) R M Lvl/name                 OctLoc.c.b A Datatyp(siz) R M Lvl/name

     0-0-0/d STRC(1080)  r     1 FPT_CLOSE_STD_IN_PTL      36-0-0/d STRC(2088)  r     1 FPT_OPEN_STD_OUT
   146-0-0/d STRC(144)   r     1 FPT_PFIL_STD             130-0-0/d STRC(504)   r     1 FPT_READ_STD_IN

  ****  Auto variables  ****

  ****  Scalars and arrays  ****
OctLoc.c.b A Datatyp(siz) R M Lvl/name                 OctLoc.c.b A Datatyp(siz) R M Lvl/name

     3-0-0/w PTR         r     1 @FID$                     *0-0-0/w PTR         r     1 FID$

  ****  SYMREF variables  ****

  ****  Scalars and arrays  ****
OctLoc.c.b A Datatyp(siz) R M Lvl/name                 OctLoc.c.b A Datatyp(siz) R M Lvl/name

     0-0-0/w PTR         r     1 B$TCB$
     0-0-0/w EPTR        r     1 BREAK_MESSAGE_REPORTER
     0-0-0/b BIT         r     1 CMD_MASK(0:71)
     0-0-0/d STRC(1080)  r     1 FPT_CLOSE_STD              0-0-0/w PTR         r     1 M$EI$
PL6.E3A0      #023=VPD$INIT_STD_FILE File=VPD$UTIL.:E05TSI                       WED 07/30/97 07:46 Page:569
     0-0-0/c CHAR(1024)  r     1 PARSE_IN_BUF               0-0-0/w STRC(504)   r     1 PCB
     0-0-0/w PTR         r     1 STD_WORK$                  0-0-0/b BIT         r     1 THIS_STD_FILE
     0-0-0/b BIT         r     1 TOP_STD_N

  ****  BASED and DCB variables  ****

  ****  Scalars and arrays  ****
OctLoc.c.b A Datatyp(siz) R M Lvl/name                 OctLoc.c.b A Datatyp(siz) R M Lvl/name

     0-0-0/w STRC(2448)  r     1 B$ALT                      0-0-0/w STRC(144)   r     1 B$TCB
     0-0-0/d ASTR(3528)  r     1 F$DCB                      0-0-0N  NULL        r     1 M$EI
     0-0-0N  NULL        r     1 M$STD1                     0-0-0/w ASTR(153)   r     1 OUT$SYM


   Procedure VPD$INIT_STD_FILE requires 105 words for executable code.
   Procedure VPD$INIT_STD_FILE requires 6 words of local(AUTO) storage.
PL6.E3A0      #023=VPD$INIT_STD_FILE File=VPD$UTIL.:E05TSI                       WED 07/30/97 07:46 Page:570
          *** CROSS REFERENCE LISTING ***
**     DENOTES     IDENTIFIER DEFINITION
<<                 IDENTIFIER'S VALUE SET
>>                 IDENTIFIER'S VALUE USED
<>                 IDENTIFIER SET AND/OR USED
--                 IDENTIFIER REFERENCED
PL6.E3A0      #023=VPD$INIT_STD_FILE File=VPD$UTIL.:E05TSI                       WED 07/30/97 07:46 Page:571
          MINI XREF LISTING

ALT_1
      8949**LABEL    8911--CALLALT
ALT_2
      8947**LABEL    8912--CALLALT
ALT_3
      8945**LABEL    8926--CALLALT  8942--CALLALT  8958--GOTO
B$ALT.CODE
      7054**DCL      7054--REDEF    7055--REDEF    7055--REDEF
B$ALT.ERR.CODE
      7056**DCL      8951>>IF
B$ALT.ERR.ERR#
      7056**DCL      7056--REDEF
B$ALT.EVID
      7055**DCL      7055--REDEF    7055--REDEF
B$TCB.ALT$
      7050**DCL      8951>>IF
B$TCB$
      5985**DCL      8951>>IF
BREAK_LOC
      5220**DCL      5220--REDEF
CMD_MASK
      5222**DCL      8920>>IF
DEF_ICB.FID.STRING
      5818**DCL      5819--REDEF
DEV_ICB.FID.STRING
      5704**DCL      5705--REDEF
EI_KEY.KEY
      5916**DCL      5916--REDEF    5916--REDEF    5916--REDEF
EO_OCB.TYPE
      5416**DCL      5417--REDEF
F$DCB.ACTPOS
      7026**DCL      7026--REDEF
PL6.E3A0      #023=VPD$INIT_STD_FILE File=VPD$UTIL.:E05TSI                       WED 07/30/97 07:46 Page:572
F$DCB.ARS
      7001**DCL      7001--REDEF    8934>>IF       8938>>ASSIGN
F$DCB.ATTR
      7019**DCL      7020--REDEF
F$DCB.BORROW
      7034**DCL      7034--REDEF    7034--REDEF    7034--REDEF
F$DCB.DCBNAME.L
      7048**DCL      7048--IMP-SIZ
F$DCB.EOMCHAR
      7005**DCL      7005--REDEF
F$DCB.FLDID
      7029**DCL      7029--REDEF
F$DCB.FORM$
      7023**DCL      7023--REDEF
F$DCB.FSECT
      7039**DCL      7039--REDEF
F$DCB.FSN
      7016**DCL      7016--REDEF    7016--REDEF    7017--REDEF
F$DCB.HEADER$
      7022**DCL      7022--REDEF
F$DCB.IXTNSIZE
      7020**DCL      7020--REDEF
F$DCB.LASTSTA$
      7010**DCL      7010--REDEF
F$DCB.LVL
      7035**DCL      7035--REDEF
F$DCB.NAME.C
      7010**DCL      7010--REDEF
F$DCB.NOEOF
      7031**DCL      7031--REDEF
F$DCB.NRECS
      7021**DCL      7021--REDEF
F$DCB.NRECX
      7040**DCL      7040--REDEF
F$DCB.OHDR
      7032**DCL      7032--REDEF
PL6.E3A0      #023=VPD$INIT_STD_FILE File=VPD$UTIL.:E05TSI                       WED 07/30/97 07:46 Page:573
F$DCB.ORG
      7015**DCL      7015--REDEF
F$DCB.PRECNO
      7038**DCL      7038--REDEF
F$DCB.RCSZ
      7043**DCL      7043--REDEF
F$DCB.RES
      7011**DCL      7011--REDEF
F$DCB.SETX
      7023**DCL      7023--REDEF
F$DCB.TAB$
      7022**DCL      7023--REDEF
F$DCB.TDA
      7037**DCL      7037--REDEF
F$DCB.WSN
      7012**DCL      7012--REDEF
FID$
      8225**DCL         6--PROC     8909>>ASSIGN   8909>>ASSIGN
FPT_CLOSE_EI.SN_
      6757**DCL      6757--REDEF
FPT_CLOSE_EI.UTL_
      6758**DCL      6758--REDEF
FPT_CLOSE_EI.V.EXPIRE#
      6772**DCL      6772--REDEF
FPT_CLOSE_EI.V.TYPE#
      6770**DCL      6770--REDEF
FPT_CLOSE_EI.V.XTNSIZE#
      6767**DCL      6767--REDEF    6769--REDEF
FPT_CLOSE_PTL.SN_
      6883**DCL      6883--REDEF
FPT_CLOSE_PTL.UTL_
      6884**DCL      6884--REDEF
FPT_CLOSE_PTL.V.EXPIRE#
      6898**DCL      6898--REDEF
FPT_CLOSE_PTL.V.TYPE#
      6896**DCL      6896--REDEF
PL6.E3A0      #023=VPD$INIT_STD_FILE File=VPD$UTIL.:E05TSI                       WED 07/30/97 07:46 Page:574
FPT_CLOSE_PTL.V.XTNSIZE#
      6893**DCL      6893--REDEF    6895--REDEF
FPT_CLOSE_READ.SN_
      6799**DCL      6799--REDEF
FPT_CLOSE_READ.UTL_
      6800**DCL      6800--REDEF
FPT_CLOSE_READ.V.EXPIRE#
      6814**DCL      6814--REDEF
FPT_CLOSE_READ.V.TYPE#
      6812**DCL      6812--REDEF
FPT_CLOSE_READ.V.XTNSIZE#
      6809**DCL      6809--REDEF    6811--REDEF
FPT_CLOSE_SI.SN_
      6967**DCL      6967--REDEF
FPT_CLOSE_SI.UTL_
      6968**DCL      6968--REDEF
FPT_CLOSE_SI.V.EXPIRE#
      6982**DCL      6982--REDEF
FPT_CLOSE_SI.V.TYPE#
      6980**DCL      6980--REDEF
FPT_CLOSE_SI.V.XTNSIZE#
      6977**DCL      6977--REDEF    6979--REDEF
FPT_CLOSE_STD
      6925**DCL      8945<>CALL
FPT_CLOSE_STD.SN_
      6925**DCL      6925--REDEF
FPT_CLOSE_STD.UTL_
      6926**DCL      6926--REDEF
FPT_CLOSE_STD.V.EXPIRE#
      6940**DCL      6940--REDEF
FPT_CLOSE_STD.V.TYPE#
      6938**DCL      6938--REDEF
FPT_CLOSE_STD.V.XTNSIZE#
      6935**DCL      6935--REDEF    6937--REDEF
FPT_CLOSE_STD_IN_PTL
      8454**DCL      8947<>CALL     8954<>CALL
PL6.E3A0      #023=VPD$INIT_STD_FILE File=VPD$UTIL.:E05TSI                       WED 07/30/97 07:46 Page:575
FPT_CLOSE_STD_IN_PTL.SN_
      8454**DCL      8454--REDEF
FPT_CLOSE_STD_IN_PTL.UTL_
      8455**DCL      8455--REDEF
FPT_CLOSE_STD_IN_PTL.V
      8459**DCL      8454--DCLINIT
FPT_CLOSE_STD_IN_PTL.V.EXPIRE#
      8469**DCL      8469--REDEF
FPT_CLOSE_STD_IN_PTL.V.TYPE#
      8467**DCL      8467--REDEF
FPT_CLOSE_STD_IN_PTL.V.XTNSIZE#
      8464**DCL      8464--REDEF    8466--REDEF
FPT_CLSEI_FT.SN_
      6841**DCL      6841--REDEF
FPT_CLSEI_FT.UTL_
      6842**DCL      6842--REDEF
FPT_CLSEI_FT.V.EXPIRE#
      6856**DCL      6856--REDEF
FPT_CLSEI_FT.V.TYPE#
      6854**DCL      6854--REDEF
FPT_CLSEI_FT.V.XTNSIZE#
      6851**DCL      6851--REDEF    6853--REDEF
FPT_FID_STD
      8252**DCL      8910<>CALL
FPT_FID_STD.TEXTFID_
      8252**DCL      8909<<ASSIGN   8925>>ASSIGN
FPT_FID_STD.V
      8256**DCL      8252--DCLINIT
FPT_OPEN_EI.ACSVEH_
      6412**DCL      6413--REDEF
FPT_OPEN_EI.ALTKEYS_
      6418**DCL      6419--REDEF    6419--REDEF
FPT_OPEN_EI.HDR_
      6417**DCL      6418--REDEF
FPT_OPEN_EI.TAB_
      6416**DCL      6417--REDEF
PL6.E3A0      #023=VPD$INIT_STD_FILE File=VPD$UTIL.:E05TSI                       WED 07/30/97 07:46 Page:576
FPT_OPEN_EI.UHL_
      6410**DCL      6411--REDEF    6411--REDEF
FPT_OPEN_EI.V.FSN#
      6450**DCL      6450--REDEF    6450--REDEF
FPT_OPEN_EI.WSN_
      6416**DCL      6416--REDEF
FPT_OPEN_EI_SAVE.ACSVEH_
      6521**DCL      6522--REDEF
FPT_OPEN_EI_SAVE.ALTKEYS_
      6527**DCL      6528--REDEF    6528--REDEF
FPT_OPEN_EI_SAVE.HDR_
      6526**DCL      6527--REDEF
FPT_OPEN_EI_SAVE.TAB_
      6525**DCL      6526--REDEF
FPT_OPEN_EI_SAVE.UHL_
      6519**DCL      6520--REDEF    6520--REDEF
FPT_OPEN_EI_SAVE.V.FSN#
      6559**DCL      6559--REDEF    6559--REDEF
FPT_OPEN_EI_SAVE.WSN_
      6525**DCL      6525--REDEF
FPT_OPEN_OUT.ACSVEH_
      6303**DCL      6304--REDEF
FPT_OPEN_OUT.ALTKEYS_
      6309**DCL      6310--REDEF    6310--REDEF
FPT_OPEN_OUT.HDR_
      6308**DCL      6309--REDEF
FPT_OPEN_OUT.TAB_
      6307**DCL      6308--REDEF
FPT_OPEN_OUT.UHL_
      6301**DCL      6302--REDEF    6302--REDEF
FPT_OPEN_OUT.V.FSN#
      6341**DCL      6341--REDEF    6341--REDEF
FPT_OPEN_OUT.WSN_
      6307**DCL      6307--REDEF
FPT_OPEN_OUT_SAVE.ACSVEH_
      6194**DCL      6195--REDEF
PL6.E3A0      #023=VPD$INIT_STD_FILE File=VPD$UTIL.:E05TSI                       WED 07/30/97 07:46 Page:577
FPT_OPEN_OUT_SAVE.ALTKEYS_
      6200**DCL      6201--REDEF    6201--REDEF
FPT_OPEN_OUT_SAVE.HDR_
      6199**DCL      6200--REDEF
FPT_OPEN_OUT_SAVE.TAB_
      6198**DCL      6199--REDEF
FPT_OPEN_OUT_SAVE.UHL_
      6192**DCL      6193--REDEF    6193--REDEF
FPT_OPEN_OUT_SAVE.V.FSN#
      6232**DCL      6232--REDEF    6232--REDEF
FPT_OPEN_OUT_SAVE.WSN_
      6198**DCL      6198--REDEF
FPT_OPEN_STD_IN
      8384**DCL      8911<>CALL
FPT_OPEN_STD_IN.ACSVEH_
      8386**DCL      8387--REDEF
FPT_OPEN_STD_IN.ALTKEYS_
      8392**DCL      8393--REDEF    8393--REDEF
FPT_OPEN_STD_IN.HDR_
      8391**DCL      8392--REDEF
FPT_OPEN_STD_IN.TAB_
      8390**DCL      8391--REDEF
FPT_OPEN_STD_IN.UHL_
      8384**DCL      8385--REDEF    8385--REDEF
FPT_OPEN_STD_IN.V
      8393**DCL      8384--DCLINIT
FPT_OPEN_STD_IN.V.ASN#
      8403**DCL      8255--DCLINIT  8920>>IF
FPT_OPEN_STD_IN.V.FSN#
      8424**DCL      8424--REDEF    8424--REDEF
FPT_OPEN_STD_IN.V.RES#
      8408**DCL      8255--DCLINIT
FPT_OPEN_STD_IN.WSN_
      8390**DCL      8390--REDEF
FPT_OPEN_STD_OUT
      8545**DCL      8912<>CALL
PL6.E3A0      #023=VPD$INIT_STD_FILE File=VPD$UTIL.:E05TSI                       WED 07/30/97 07:46 Page:578
FPT_OPEN_STD_OUT.ACSVEH_
      8547**DCL      8548--REDEF
FPT_OPEN_STD_OUT.ALTKEYS_
      8553**DCL      8554--REDEF    8554--REDEF
FPT_OPEN_STD_OUT.HDR_
      8552**DCL      8553--REDEF
FPT_OPEN_STD_OUT.TAB_
      8551**DCL      8552--REDEF
FPT_OPEN_STD_OUT.UHL_
      8545**DCL      8546--REDEF    8546--REDEF
FPT_OPEN_STD_OUT.V
      8554**DCL      8545--DCLINIT
FPT_OPEN_STD_OUT.V.FSN#
      8585**DCL      8585--REDEF    8585--REDEF
FPT_OPEN_STD_OUT.WSN_
      8551**DCL      8551--REDEF
FPT_PFIL_STD
      8678**DCL      8955<>CALL
FPT_PFIL_STD.V
      8678**DCL      8678--DCLINIT
FPT_READ_STD.STATION_
      6622**DCL      6623--REDEF
FPT_READ_STD.V.DVBYTE.REREAD#
      6634**DCL      6634--REDEF
FPT_READ_STD.V.INDX#
      6632**DCL      6632--REDEF
FPT_READ_STD_IN
      8609**DCL      8933<>CALL
FPT_READ_STD_IN.STATION_
      8612**DCL      8613--REDEF
FPT_READ_STD_IN.V
      8613**DCL      8609--DCLINIT
FPT_READ_STD_IN.V.DVBYTE.REREAD#
      8624**DCL      8624--REDEF
FPT_READ_STD_IN.V.INDX#
      8622**DCL      8622--REDEF
PL6.E3A0      #023=VPD$INIT_STD_FILE File=VPD$UTIL.:E05TSI                       WED 07/30/97 07:46 Page:579
FPT_READ_UC.STATION_
      6583**DCL      6584--REDEF
FPT_READ_UC.V.DVBYTE.REREAD#
      6595**DCL      6595--REDEF
FPT_READ_UC.V.INDX#
      6593**DCL      6593--REDEF
FPT_WRITE_ME.STATION_
      6691**DCL      6691--REDEF
FPT_WRITE_ME.V.DVBYTE.VFC#
      6698**DCL      6698--REDEF
FPT_WRITE_OUT.STATION_
      6722**DCL      6722--REDEF
FPT_WRITE_OUT.V.DVBYTE.VFC#
      6729**DCL      6729--REDEF
FPT_WRITE_STD
      8650**DCL      8926<>CALL     8942<>CALL
FPT_WRITE_STD.BUF_
      8650**DCL      8925<<ASSIGN   8937<<ASSIGN   8941<<ASSIGN
FPT_WRITE_STD.BUF_.BOUND
      8650**DCL      8938<<ASSIGN
FPT_WRITE_STD.STATION_
      8652**DCL      8652--REDEF
FPT_WRITE_STD.V
      8653**DCL      8650--DCLINIT
FPT_WRITE_STD.V.DVBYTE.VFC#
      8659**DCL      8659--REDEF
FPT_WRITE_UC.STATION_
      6660**DCL      6660--REDEF
FPT_WRITE_UC.V.DVBYTE.VFC#
      6667**DCL      6667--REDEF
FROM_SN.SN
      5566**DCL      5567--REDEF
GETCMD.OUT$
      4773**DCL      4779--REDEF
ICB.FID.STRING
      5590**DCL      5591--REDEF
PL6.E3A0      #023=VPD$INIT_STD_FILE File=VPD$UTIL.:E05TSI                       WED 07/30/97 07:46 Page:580
IFSFA_PARAM.EOMCHAR#
      5945**DCL      5946--REDEF
IFSFA_PARAM.SIG1
      5939**DCL      5939--REDEF
IFSFA_PARAM.SIG2
      5939**DCL      5940--REDEF
IN_RES
      5512**DCL      5512--REDEF
IN_SN.SN
      5528**DCL      5529--REDEF
M$CLOSE
        30**DCL-ENT  8945--CALL     8947--CALL     8954--CALL
M$EI$
      5981**DCL      8934>>IF       8938>>ASSIGN
M$OPEN
        30**DCL-ENT  8911--CALL     8912--CALL
M$PFIL
        32**DCL-ENT  8955--CALL
M$READ
        31**DCL-ENT  8933--CALL
M$WRITE
        31**DCL-ENT  8926--CALL     8942--CALL
OCB.TYPE
      5274**DCL      5275--REDEF
OFSFA_PARAM.EOMCHAR#
      5975**DCL      5976--REDEF
OFSFA_PARAM.SIG1
      5969**DCL      5969--REDEF
OFSFA_PARAM.SIG2
      5969**DCL      5970--REDEF
OUT$SYM.COUNT
      8217**DCL      8220--IMP-SIZ  8909>>ASSIGN
OUT$SYM.TEXT
      8220**DCL      8909--ASSIGN
OUT_SN.SN
      5546**DCL      5547--REDEF
PL6.E3A0      #023=VPD$INIT_STD_FILE File=VPD$UTIL.:E05TSI                       WED 07/30/97 07:46 Page:581
PARSE_IN_BUF
      4554**DCL      8611--DCLINIT  8612--DCLINIT  8937--ASSIGN
PCB.ROOT$
      4579**DCL      8904<<ASSIGN
PCB.U$$
      4592**DCL      8905<<ASSIGN
PCB.WKSZ
      4604**DCL      8902<<ASSIGN
PCB.WORK$
      4583**DCL      8894<<ASSIGN   8895<>CALL     8903>>ASSIGN
READ_ALT
      8951**LABEL    8933--CALLALT
RESULTS_FID_STD
      8276**DCL      8256--DCLINIT
SPEC_BUF
      5224**DCL      5224--REDEF
STD_ACCT
      8287**DCL      8253--DCLINIT  8389--DCLINIT
STD_NAME
      8284**DCL      8253--DCLINIT  8385--DCLINIT
STD_PASS
      8288**DCL      8254--DCLINIT  8386--DCLINIT
STD_SN
      8299**DCL      8254--DCLINIT  8384--DCLINIT
STD_SN.SN
      8304**DCL      8305--REDEF
STD_WORK$
      4554**DCL      8903<<ASSIGN
STD_WSN
      8307**DCL      8254--DCLINIT  8390--DCLINIT
THIS_STD_FILE
      5218**DCL      8927<<ASSIGN
TOP_STD_N
      5986**DCL      8904--ASSIGN
VPD$FID
      8722**DCL-ENT  8910--CALL
PL6.E3A0      #023=VPD$INIT_STD_FILE File=VPD$UTIL.:E05TSI                       WED 07/30/97 07:46 Page:582
VPD$GET_BUF
      8729**DCL-ENT  8895--CALL
VPL$ERR_PROC
      8864**DCL-ENT  8897--CALL     8949--CALL

PL6.E3A0      #024=VPD$MAKE_WILD_OUT File=VPD$UTIL.:E05TSI                       WED 07/30/97 07:49 Page:583
     2237        1        /*T***********************************************************/
     2238        2        /*T*                                                         */
     2239        3        /*T* Copyright (c) Bull HN Information Systems Inc., 1997    */
     2240        4        /*T*                                                         */
     2241        5        /*T***********************************************************/
     2242        6        VPD$MAKE_WILD_OUT: PROC(TNAME,NEW_NAME);
     2243        7        /*D* NAME: VPD$MAKE_WILD_OUT
     2244        8             CALL: CALL VPD$MAKE_WILD_OUT(TNAME,NEW_NAME);
     2245        9             DESCRIPTION: VPD$MAKE_WILD_OUT uses the passed TNAME
     2246       10                          and calls XUW$WILDFMT to format the output name.
     2247       11                          It also uses IN_NAME and DIN_NAME.
     2248       12        */
     2249       13        %INCLUDE F$DCB;
     2250       62        %INCLUDE VP_DATA_R;
     2251     7049        %INCLUDE XUW_MACRO_C;
     2252     7184        %INCLUDE XU_PERR_C;
     2253     7375    1   DCL I UBIN;
     2254     7376    1   DCL 1 TNAME,
     2255     7377    1         2 L UBIN BYTE UNAL,
     2256     7378    1         2 C CHAR(31);
     2257     7379    1   DCL 1 NEW_NAME,
     2258     7380    1         2 L UBIN BYTE UNAL,
     2259     7381    1         2 C CHAR(31);
     2260     7382    1   DCL QUESTION_MARK CHAR(1) CONSTANT INIT('?');
     2261     7383        %VP_ENTRIES (OMIT=VPD$MAKE_WILD_OUT);
     2262     7591        %XUW_ENTRIES;
     2263     7603        %XUW_WILDCARD;
     2264     7699    1           XUW_WILDCARD.TEMPLATE_ = VECTOR(SUBSTR(TNAME.C,0,TNAME.L));
     2265     7700    1           XUW_WILDCARD.INPUT_ = VECTOR(SUBSTR(DIN_NAME.STRING,0,DIN_NAME.LEN));
     2266     7701    1           XUW_WILDCARD.PATTERN_ = VECTOR(SUBSTR(IN_NAME.STRING,0,IN_NAME.LEN));
     2267     7702        /*     If input spec fid was not wildcarded, and the output was, then
     2268     7703               the pattern should match the entire input name                         */
     2269     7704    1           CALL INDEX(I,'?',SUBSTR(IN_NAME.STRING,0,IN_NAME.LEN))
     2270     7705    2            WHENALTRETURN DO;
     2271     7706    2               XUW_WILDCARD.PATTERN_ = VECTOR(QUESTION_MARK);
     2272     7707    2               END;
     2273     7708    1           XUW_WILDCARD.OUTPUT_ = VECTOR(NEW_NAME.C);
PL6.E3A0      #024=VPD$MAKE_WILD_OUT File=VPD$UTIL.:E05TSI                       WED 07/30/97 07:49 Page:584
     2274     7709    1           CALL X$WILDFMT(XUW_WILDCARD)
     2275     7710    2            WHENALTRETURN DO;
     2276     7711    2               IF XUW_WILDCARD.ERROR.ERR# = %E$XUW#TOOLONG
     2277     7712    2                THEN
     2278     7713    2                  GOTO TOO_LONG;
     2279     7714    2               CALL VPL$ERR_PROC(3,0,,XUW_WILDCARD.ERROR); /* Some other error   */
     2280     7715    2               END;
     2281     7716    1           NEW_NAME.L = XUW_WILDCARD.OUTPUT_LEN;
     2282     7717    1           IF NEW_NAME.L > 31
     2283     7718    1            THEN
     2284     7719    1   TOO_LONG:  CALL VPL$ERR_PROC(2,40,'04'O);
     2285     7720        /*E* ERROR:   VPD-00040
     2286     7721             MESSAGE: Wildcarded output name too big
     2287     7722            MESSAGE1: Wildcarded output name may not evaluate to > 31 characters
     2288     7723        */
     2289     7724    1           RETURN;
     2290     7725    1   END VPD$MAKE_WILD_OUT;
     2291     7726        %EOD;

PL6.E3A0      #024=VPD$MAKE_WILD_OUT File=VPD$UTIL.:E05TSI                       WED 07/30/97 07:49 Page:585
--  Include file information  --

   XU_PERR_C.:E05TOU  is referenced.
   XUW_MACRO_C.:E05TOU  is referenced.
   B_MICROPS_C.:E05TOU  is referenced.
   XU_MACRO_C.:E05TOU  is referenced.
   VP_MACRO_C.:E05TOU  is referenced.
   XS_MACRO_C.:E05TOU  is referenced.
   VP_PERR_C.:E05TOU  is referenced.
   CP_6_SUBS.:E05TOU  is referenced.
   CP_6.:E05TOU  cannot be made into a system file and is referenced.
   VP_DATA_R.:E05TOU  cannot be made into a system file and is referenced.
   F$DCB.:E05TOU  cannot be made into a system file and is referenced.
   B$JIT_C.:E05TOU  was found in the system file and is never referenced.
   CP_6_C.:E05TOU  was found in the system file and is referenced.
      No diagnostics issued in procedure VPD$MAKE_WILD_OUT.

   Procedure VPD$MAKE_WILD_OUT requires 73 words for executable code.
   Procedure VPD$MAKE_WILD_OUT requires 10 words of local(AUTO) storage.

PL6.E3A0      #024=VPD$MAKE_WILD_OUT File=VPD$UTIL.:E05TSI                       WED 07/30/97 07:49 Page:586

 Object Unit name= VPD$MAKE_WILD_OUT                          File name= VPD$UTIL.:E05TOU
 UTS= JUL 30 '97 07:49:12.48 WED                              Compiler= PL-6/E31         Sev=      00
 SharedLib= :SHARED_SYSTEM                                    Alt SharedLib=


    ****  Control sections  ****

 Sect   Type Bound  Init  Size OctSiz  Section name(segment info)
    0   DCB   even  none     0      0  M$UC
    1   DCB   even  none     0      0  M$EI
    2   DCB   even  none     0      0  M$EO
    3   DCB   even  none     0      0  M$EO1
    4   DCB   even  none     0      0  M$ME
    5   DCB   even  none     0      0  M$SI
    6   DCB   even  none     0      0  M$READFILE
    7   DCB   even  none     0      0  M$DO
    8   DCB   even  none     0      0  M$STD1
    9   DCB   even  none     0      0  M$SORT1
   10  RoData even  UTS      1      1  VPD$MAKE_WILD_OUT
   11   Data  even  none    12     14  VPD$MAKE_WILD_OUT
   12   Proc  even  none    73    111  VPD$MAKE_WILD_OUT
   13  RoData even  none    15     17  VPD$MAKE_WILD_OUT

    ****  Entry defs  ****

                              Check   Calling
                             calling  sequence
  Sect OctLoc Primary Altret sequence   type   Parms  Name
    12      0   yes            yes      Std        2  VPD$MAKE_WILD_OUT
PL6.E3A0      #024=VPD$MAKE_WILD_OUT File=VPD$UTIL.:E05TSI                       WED 07/30/97 07:49 Page:587

  ****  Entry refs  ****

         Check        Calling
        calling       sequence
Altret sequence SRef   type   Args  Name
 yes     yes           Std       1 X$WILDFMT
         yes           Std       8 VPL$ERR_PROC
                       nStd      0 X66_AUTO_2
                       Std       0 B_CONSPOOL_D
                       nStd      0 X66_ARET

  ****  Data refs  ****

  Flags:  r = read only, s = secondary
Flgs Name                             Flgs Name                             Flgs Name
     M$UC                                  BREAK_LOC                             BREAK_MESSAGE_REPORTER
     SPEC_BUF                              DIN_NAME                              IN_NAME
     IN_RES                                M$EI                                  M$EO
     M$EO1                                 M$ME                                  M$SI
     M$READFILE                            M$DO                                  M$STD1
     M$SORT1                               B_VECTNIL

  ****  Segment refs  ****

  Flags:  r = read only, s = secondary
Flgs Name                             Flgs Name                             Flgs Name
     NULLSID                               ISSID
PL6.E3A0      #024=VPD$MAKE_WILD_OUT File=VPD$UTIL.:E05TSI                       WED 07/30/97 07:49 Page:588


     2237        1        /*T***********************************************************/
     2238        2        /*T*                                                         */
     2239        3        /*T* Copyright (c) Bull HN Information Systems Inc., 1997    */
     2240        4        /*T*                                                         */
     2241        5        /*T***********************************************************/
     2242        6        VPD$MAKE_WILD_OUT: PROC(TNAME,NEW_NAME);

      6 12 000000   000000 700200 xent  VPD$MAKE_WI* TSX0  ! X66_AUTO_2
        12 000001   000012 000002                    ZERO    10,2

     2243        7        /*D* NAME: VPD$MAKE_WILD_OUT
     2244        8             CALL: CALL VPD$MAKE_WILD_OUT(TNAME,NEW_NAME);
     2245        9             DESCRIPTION: VPD$MAKE_WILD_OUT uses the passed TNAME
     2246       10                          and calls XUW$WILDFMT to format the output name.
     2247       11                          It also uses IN_NAME and DIN_NAME.
     2248       12        */
     2249       13        %INCLUDE F$DCB;
     2250       62        %INCLUDE VP_DATA_R;
     2251     7049        %INCLUDE XUW_MACRO_C;
     2252     7184        %INCLUDE XU_PERR_C;
     2253     7375    1   DCL I UBIN;
     2254     7376    1   DCL 1 TNAME,
     2255     7377    1         2 L UBIN BYTE UNAL,
     2256     7378    1         2 C CHAR(31);
     2257     7379    1   DCL 1 NEW_NAME,
     2258     7380    1         2 L UBIN BYTE UNAL,
     2259     7381    1         2 C CHAR(31);
     2260     7382    1   DCL QUESTION_MARK CHAR(1) CONSTANT INIT('?');
     2261     7383        %VP_ENTRIES (OMIT=VPD$MAKE_WILD_OUT);
     2262     7591        %XUW_ENTRIES;
     2263     7603        %XUW_WILDCARD;
     2264     7699    1           XUW_WILDCARD.TEMPLATE_ = VECTOR(SUBSTR(TNAME.C,0,TNAME.L));

   7699 12 000002   200003 470500                    LDP0    @TNAME,,AUTO
        12 000003   000100 101500                    MRL     fill='000'O
        12 000004   000000 000001                    ADSC9   0,,PR0                   cn=0,n=1
PL6.E3A0      #024=VPD$MAKE_WILD_OUT File=VPD$UTIL.:E05TSI                       WED 07/30/97 07:49 Page:589
        12 000005   200006 000002                    ADSC9   I+1,,AUTO                cn=0,n=2
        12 000006   200006 220100                    LDX0    I+1,,AUTO
        12 000007   000000 635010                    EAA     0,X0
        12 000010   000002 771000                    ARL     2
        12 000011   000140 135007                    SBLA    96,DL
        12 000012   200003 236100                    LDQ     @TNAME,,AUTO
        12 000013   200000 036007                    ADLQ    65536,DL
        12 000014   000004 757000 11                 STAQ    XUW_WILDCARD+4

     2265     7700    1           XUW_WILDCARD.INPUT_ = VECTOR(SUBSTR(DIN_NAME.STRING,0,DIN_NAME.LEN));

   7700 12 000015   000000 236000 xsym               LDQ     DIN_NAME
        12 000016   000033 772000                    QRL     27
        12 000017   000064 737000                    LLS     52
        12 000020   000140 135007                    SBLA    96,DL
        12 000021   000000 236000 13                 LDQ     0
        12 000022   000002 757000 11                 STAQ    XUW_WILDCARD+2

     2266     7701    1           XUW_WILDCARD.PATTERN_ = VECTOR(SUBSTR(IN_NAME.STRING,0,IN_NAME.LEN));

   7701 12 000023   000000 236000 xsym               LDQ     IN_NAME
        12 000024   000033 772000                    QRL     27
        12 000025   000064 737000                    LLS     52
        12 000026   000140 135007                    SBLA    96,DL
        12 000027   000001 236000 13                 LDQ     1
        12 000030   000000 757000 11                 STAQ    XUW_WILDCARD

     2267     7702        /*     If input spec fid was not wildcarded, and the output was, then
     2268     7703               the pattern should match the entire input name                         */
     2269     7704    1           CALL INDEX(I,'?',SUBSTR(IN_NAME.STRING,0,IN_NAME.LEN))

   7704 12 000031   000000 236000 xsym               LDQ     IN_NAME
        12 000032   000033 772000                    QRL     27
        12 000033   000000 620006                    EAX0    0,QL
        12 000034   000000 124440                    SCM     mask='000'O
        12 000035   000000 200010 xsym               ADSC9   IN_NAME                  cn=1,n=*X0
        12 000036   000002 000001 13                 ADSC9   2                        cn=0,n=1
PL6.E3A0      #024=VPD$MAKE_WILD_OUT File=VPD$UTIL.:E05TSI                       WED 07/30/97 07:49 Page:590
        12 000037   200005 000100                    ARG     I,,AUTO
        12 000040   000042 606400 12                 TTN     s:7706
        12 000041   000044 710000 12                 TRA     s:7708

     2270     7705    2            WHENALTRETURN DO;

     2271     7706    2               XUW_WILDCARD.PATTERN_ = VECTOR(QUESTION_MARK);

   7706 12 000042   000004 237000 13                 LDAQ    4
        12 000043   000000 757000 11                 STAQ    XUW_WILDCARD

     2272     7707    2               END;

     2273     7708    1           XUW_WILDCARD.OUTPUT_ = VECTOR(NEW_NAME.C);

   7708 12 000044   000003 235000 13                 LDA     3
        12 000045   200004 236100                    LDQ     @NEW_NAME,,AUTO
        12 000046   200000 036007                    ADLQ    65536,DL
        12 000047   000006 757000 11                 STAQ    XUW_WILDCARD+6

     2274     7709    1           CALL X$WILDFMT(XUW_WILDCARD)

   7709 12 000050   000006 630400 13                 EPPR0   6
        12 000051   000017 631400 xsym               EPPR1   B_VECTNIL+15
        12 000052   000000 701000 xent               TSX1    X$WILDFMT
        12 000053   000055 702000 12                 TSX2    s:7711
        12 000054   000072 710000 12                 TRA     s:7716

     2275     7710    2            WHENALTRETURN DO;

     2276     7711    2               IF XUW_WILDCARD.ERROR.ERR# = %E$XUW#TOOLONG

   7711 12 000055   000010 236000 11                 LDQ     XUW_WILDCARD+8
        12 000056   377770 376007                    ANQ     131064,DL
        12 000057   004010 116007                    CMPQ    2056,DL
        12 000060   000104 600000 12                 TZE     TOO_LONG

PL6.E3A0      #024=VPD$MAKE_WILD_OUT File=VPD$UTIL.:E05TSI                       WED 07/30/97 07:49 Page:591
     2277     7712    2                THEN
     2278     7713    2                  GOTO TOO_LONG;
     2279     7714    2               CALL VPL$ERR_PROC(3,0,,XUW_WILDCARD.ERROR); /* Some other error   */

   7714 12 000061   000007 236000 13                 LDQ     7
        12 000062   000001 235000 xsym               LDA     B_VECTNIL+1
        12 000063   200010 757100                    STAQ    I+3,,AUTO
        12 000064   000010 237000 13                 LDAQ    8
        12 000065   200006 757100                    STAQ    I+1,,AUTO
        12 000066   200006 630500                    EPPR0   I+1,,AUTO
        12 000067   000022 631400 xsym               EPPR1   B_VECTNIL+18
        12 000070   000000 701000 xent               TSX1    VPL$ERR_PROC
        12 000071   000000 011000                    NOP     0

     2280     7715    2               END;

     2281     7716    1           NEW_NAME.L = XUW_WILDCARD.OUTPUT_LEN;

   7716 12 000072   200004 470500                    LDP0    @NEW_NAME,,AUTO
        12 000073   000100 101400                    MRL     fill='000'O
        12 000074   000012 000004 11                 ADSC9   XUW_WILDCARD+10          cn=0,n=4
        12 000075   000000 000001                    ADSC9   0,,PR0                   cn=0,n=1

     2282     7717    1           IF NEW_NAME.L > 31

   7717 12 000076   000100 101500                    MRL     fill='000'O
        12 000077   000000 000001                    ADSC9   0,,PR0                   cn=0,n=1
        12 000100   200006 000004                    ADSC9   I+1,,AUTO                cn=0,n=4
        12 000101   200006 236100                    LDQ     I+1,,AUTO
        12 000102   000040 116007                    CMPQ    32,DL
        12 000103   000110 604000 12                 TMI     s:7724

     2283     7718    1            THEN
     2284     7719    1   TOO_LONG:  CALL VPL$ERR_PROC(2,40,'04'O);

   7719 12 000104   000014 630400 13    TOO_LONG     EPPR0   12
        12 000105   000021 631400 xsym               EPPR1   B_VECTNIL+17
PL6.E3A0      #024=VPD$MAKE_WILD_OUT File=VPD$UTIL.:E05TSI                       WED 07/30/97 07:49 Page:592
        12 000106   000000 701000 xent               TSX1    VPL$ERR_PROC
        12 000107   000000 011000                    NOP     0

     2285     7720        /*E* ERROR:   VPD-00040
     2286     7721             MESSAGE: Wildcarded output name too big
     2287     7722            MESSAGE1: Wildcarded output name may not evaluate to > 31 characters
     2288     7723        */
     2289     7724    1           RETURN;

   7724 12 000110   000000 702200 xent               TSX2  ! X66_ARET
     2290     7725    1   END VPD$MAKE_WILD_OUT;
     2291     7726        %EOD;

PL6.E3A0      #024=VPD$MAKE_WILD_OUT File=VPD$UTIL.:E05TSI                       WED 07/30/97 07:49 Page:593
--  Include file information  --

   XU_PERR_C.:E05TOU  is referenced.
   XUW_MACRO_C.:E05TOU  is referenced.
   B_MICROPS_C.:E05TOU  is referenced.
   XU_MACRO_C.:E05TOU  is referenced.
   VP_MACRO_C.:E05TOU  is referenced.
   XS_MACRO_C.:E05TOU  is referenced.
   VP_PERR_C.:E05TOU  is referenced.
   CP_6_SUBS.:E05TOU  is referenced.
   CP_6.:E05TOU  cannot be made into a system file and is referenced.
   VP_DATA_R.:E05TOU  cannot be made into a system file and is referenced.
   F$DCB.:E05TOU  cannot be made into a system file and is referenced.
   B$JIT_C.:E05TOU  was found in the system file and is never referenced.
   CP_6_C.:E05TOU  was found in the system file and is referenced.
      No diagnostics issued in procedure VPD$MAKE_WILD_OUT.
PL6.E3A0      #024=VPD$MAKE_WILD_OUT File=VPD$UTIL.:E05TSI                       WED 07/30/97 07:49 Page:594

 **** Variables and constants ****

  ****  Section 010 RoData VPD$MAKE_WILD_OUT

  ****  Scalars and arrays  ****
OctLoc.c.b A Datatyp(siz) R M Lvl/name                 OctLoc.c.b A Datatyp(siz) R M Lvl/name

     0-0-0/c CHAR        r     1 QUESTION_MARK

  ****  Section 011  Data  VPD$MAKE_WILD_OUT

  ****  Scalars and arrays  ****
OctLoc.c.b A Datatyp(siz) R M Lvl/name                 OctLoc.c.b A Datatyp(siz) R M Lvl/name

     0-0-0/d STRC(432)   r     1 XUW_WILDCARD

  ****  Auto variables  ****

  ****  Scalars and arrays  ****
OctLoc.c.b A Datatyp(siz) R M Lvl/name                 OctLoc.c.b A Datatyp(siz) R M Lvl/name

     4-0-0/w PTR         r     1 @NEW_NAME                  3-0-0/w PTR         r     1 @TNAME
     5-0-0/w UBIN        r     1 I                         *0-0-0/c STRC(288)   r     1 NEW_NAME
    *0-0-0/c STRC(288)   r     1 TNAME

  ****  SYMREF variables  ****

  ****  Scalars and arrays  ****
OctLoc.c.b A Datatyp(siz) R M Lvl/name                 OctLoc.c.b A Datatyp(siz) R M Lvl/name

     0-0-0/w EPTR        r     1 BREAK_MESSAGE_REPORTER
     0-0-0/c STRC(288)   r     1 DIN_NAME                   0-0-0/c STRC(288)   r     1 IN_NAME

  ****  BASED and DCB variables  ****

  ****  Scalars and arrays  ****
OctLoc.c.b A Datatyp(siz) R M Lvl/name                 OctLoc.c.b A Datatyp(siz) R M Lvl/name
PL6.E3A0      #024=VPD$MAKE_WILD_OUT File=VPD$UTIL.:E05TSI                       WED 07/30/97 07:49 Page:595

     0-0-0/d ASTR(3528)  r     1 F$DCB


   Procedure VPD$MAKE_WILD_OUT requires 73 words for executable code.
   Procedure VPD$MAKE_WILD_OUT requires 10 words of local(AUTO) storage.
PL6.E3A0      #024=VPD$MAKE_WILD_OUT File=VPD$UTIL.:E05TSI                       WED 07/30/97 07:49 Page:596
          *** CROSS REFERENCE LISTING ***
**     DENOTES     IDENTIFIER DEFINITION
<<                 IDENTIFIER'S VALUE SET
>>                 IDENTIFIER'S VALUE USED
<>                 IDENTIFIER SET AND/OR USED
--                 IDENTIFIER REFERENCED
PL6.E3A0      #024=VPD$MAKE_WILD_OUT File=VPD$UTIL.:E05TSI                       WED 07/30/97 07:49 Page:597
          MINI XREF LISTING

BREAK_LOC
      5269**DCL      5269--REDEF
DEF_ICB.FID.STRING
      5867**DCL      5868--REDEF
DEV_ICB.FID.STRING
      5753**DCL      5754--REDEF
DIN_NAME.LEN
      5560**DCL      7700>>ASSIGN
DIN_NAME.STRING
      5560**DCL      7700--ASSIGN
EI_KEY.KEY
      5965**DCL      5965--REDEF    5965--REDEF    5965--REDEF
EO_OCB.TYPE
      5465**DCL      5466--REDEF
F$DCB.ACTPOS
        39**DCL        39--REDEF
F$DCB.ARS
        14**DCL        14--REDEF
F$DCB.ATTR
        32**DCL        33--REDEF
F$DCB.BORROW
        47**DCL        47--REDEF      47--REDEF      47--REDEF
F$DCB.DCBNAME.L
        61**DCL        61--IMP-SIZ
F$DCB.EOMCHAR
        18**DCL        18--REDEF
F$DCB.FLDID
        42**DCL        42--REDEF
F$DCB.FORM$
        36**DCL        36--REDEF
F$DCB.FSECT
        52**DCL        52--REDEF
PL6.E3A0      #024=VPD$MAKE_WILD_OUT File=VPD$UTIL.:E05TSI                       WED 07/30/97 07:49 Page:598
F$DCB.FSN
        29**DCL        29--REDEF      29--REDEF      30--REDEF
F$DCB.HEADER$
        35**DCL        35--REDEF
F$DCB.IXTNSIZE
        33**DCL        33--REDEF
F$DCB.LASTSTA$
        23**DCL        23--REDEF
F$DCB.LVL
        48**DCL        48--REDEF
F$DCB.NAME.C
        23**DCL        23--REDEF
F$DCB.NOEOF
        44**DCL        44--REDEF
F$DCB.NRECS
        34**DCL        34--REDEF
F$DCB.NRECX
        53**DCL        53--REDEF
F$DCB.OHDR
        45**DCL        45--REDEF
F$DCB.ORG
        28**DCL        28--REDEF
F$DCB.PRECNO
        51**DCL        51--REDEF
F$DCB.RCSZ
        56**DCL        56--REDEF
F$DCB.RES
        24**DCL        24--REDEF
F$DCB.SETX
        36**DCL        36--REDEF
F$DCB.TAB$
        35**DCL        36--REDEF
F$DCB.TDA
        50**DCL        50--REDEF
F$DCB.WSN
        25**DCL        25--REDEF
PL6.E3A0      #024=VPD$MAKE_WILD_OUT File=VPD$UTIL.:E05TSI                       WED 07/30/97 07:49 Page:599
FPT_CLOSE_EI.SN_
      6806**DCL      6806--REDEF
FPT_CLOSE_EI.UTL_
      6807**DCL      6807--REDEF
FPT_CLOSE_EI.V.EXPIRE#
      6821**DCL      6821--REDEF
FPT_CLOSE_EI.V.TYPE#
      6819**DCL      6819--REDEF
FPT_CLOSE_EI.V.XTNSIZE#
      6816**DCL      6816--REDEF    6818--REDEF
FPT_CLOSE_PTL.SN_
      6932**DCL      6932--REDEF
FPT_CLOSE_PTL.UTL_
      6933**DCL      6933--REDEF
FPT_CLOSE_PTL.V.EXPIRE#
      6947**DCL      6947--REDEF
FPT_CLOSE_PTL.V.TYPE#
      6945**DCL      6945--REDEF
FPT_CLOSE_PTL.V.XTNSIZE#
      6942**DCL      6942--REDEF    6944--REDEF
FPT_CLOSE_READ.SN_
      6848**DCL      6848--REDEF
FPT_CLOSE_READ.UTL_
      6849**DCL      6849--REDEF
FPT_CLOSE_READ.V.EXPIRE#
      6863**DCL      6863--REDEF
FPT_CLOSE_READ.V.TYPE#
      6861**DCL      6861--REDEF
FPT_CLOSE_READ.V.XTNSIZE#
      6858**DCL      6858--REDEF    6860--REDEF
FPT_CLOSE_SI.SN_
      7016**DCL      7016--REDEF
FPT_CLOSE_SI.UTL_
      7017**DCL      7017--REDEF
FPT_CLOSE_SI.V.EXPIRE#
      7031**DCL      7031--REDEF
PL6.E3A0      #024=VPD$MAKE_WILD_OUT File=VPD$UTIL.:E05TSI                       WED 07/30/97 07:49 Page:600
FPT_CLOSE_SI.V.TYPE#
      7029**DCL      7029--REDEF
FPT_CLOSE_SI.V.XTNSIZE#
      7026**DCL      7026--REDEF    7028--REDEF
FPT_CLOSE_STD.SN_
      6974**DCL      6974--REDEF
FPT_CLOSE_STD.UTL_
      6975**DCL      6975--REDEF
FPT_CLOSE_STD.V.EXPIRE#
      6989**DCL      6989--REDEF
FPT_CLOSE_STD.V.TYPE#
      6987**DCL      6987--REDEF
FPT_CLOSE_STD.V.XTNSIZE#
      6984**DCL      6984--REDEF    6986--REDEF
FPT_CLSEI_FT.SN_
      6890**DCL      6890--REDEF
FPT_CLSEI_FT.UTL_
      6891**DCL      6891--REDEF
FPT_CLSEI_FT.V.EXPIRE#
      6905**DCL      6905--REDEF
FPT_CLSEI_FT.V.TYPE#
      6903**DCL      6903--REDEF
FPT_CLSEI_FT.V.XTNSIZE#
      6900**DCL      6900--REDEF    6902--REDEF
FPT_OPEN_EI.ACSVEH_
      6461**DCL      6462--REDEF
FPT_OPEN_EI.ALTKEYS_
      6467**DCL      6468--REDEF    6468--REDEF
FPT_OPEN_EI.HDR_
      6466**DCL      6467--REDEF
FPT_OPEN_EI.TAB_
      6465**DCL      6466--REDEF
FPT_OPEN_EI.UHL_
      6459**DCL      6460--REDEF    6460--REDEF
FPT_OPEN_EI.V.FSN#
      6499**DCL      6499--REDEF    6499--REDEF
PL6.E3A0      #024=VPD$MAKE_WILD_OUT File=VPD$UTIL.:E05TSI                       WED 07/30/97 07:49 Page:601
FPT_OPEN_EI.WSN_
      6465**DCL      6465--REDEF
FPT_OPEN_EI_SAVE.ACSVEH_
      6570**DCL      6571--REDEF
FPT_OPEN_EI_SAVE.ALTKEYS_
      6576**DCL      6577--REDEF    6577--REDEF
FPT_OPEN_EI_SAVE.HDR_
      6575**DCL      6576--REDEF
FPT_OPEN_EI_SAVE.TAB_
      6574**DCL      6575--REDEF
FPT_OPEN_EI_SAVE.UHL_
      6568**DCL      6569--REDEF    6569--REDEF
FPT_OPEN_EI_SAVE.V.FSN#
      6608**DCL      6608--REDEF    6608--REDEF
FPT_OPEN_EI_SAVE.WSN_
      6574**DCL      6574--REDEF
FPT_OPEN_OUT.ACSVEH_
      6352**DCL      6353--REDEF
FPT_OPEN_OUT.ALTKEYS_
      6358**DCL      6359--REDEF    6359--REDEF
FPT_OPEN_OUT.HDR_
      6357**DCL      6358--REDEF
FPT_OPEN_OUT.TAB_
      6356**DCL      6357--REDEF
FPT_OPEN_OUT.UHL_
      6350**DCL      6351--REDEF    6351--REDEF
FPT_OPEN_OUT.V.FSN#
      6390**DCL      6390--REDEF    6390--REDEF
FPT_OPEN_OUT.WSN_
      6356**DCL      6356--REDEF
FPT_OPEN_OUT_SAVE.ACSVEH_
      6243**DCL      6244--REDEF
FPT_OPEN_OUT_SAVE.ALTKEYS_
      6249**DCL      6250--REDEF    6250--REDEF
FPT_OPEN_OUT_SAVE.HDR_
      6248**DCL      6249--REDEF
PL6.E3A0      #024=VPD$MAKE_WILD_OUT File=VPD$UTIL.:E05TSI                       WED 07/30/97 07:49 Page:602
FPT_OPEN_OUT_SAVE.TAB_
      6247**DCL      6248--REDEF
FPT_OPEN_OUT_SAVE.UHL_
      6241**DCL      6242--REDEF    6242--REDEF
FPT_OPEN_OUT_SAVE.V.FSN#
      6281**DCL      6281--REDEF    6281--REDEF
FPT_OPEN_OUT_SAVE.WSN_
      6247**DCL      6247--REDEF
FPT_READ_STD.STATION_
      6671**DCL      6672--REDEF
FPT_READ_STD.V.DVBYTE.REREAD#
      6683**DCL      6683--REDEF
FPT_READ_STD.V.INDX#
      6681**DCL      6681--REDEF
FPT_READ_UC.STATION_
      6632**DCL      6633--REDEF
FPT_READ_UC.V.DVBYTE.REREAD#
      6644**DCL      6644--REDEF
FPT_READ_UC.V.INDX#
      6642**DCL      6642--REDEF
FPT_WRITE_ME.STATION_
      6740**DCL      6740--REDEF
FPT_WRITE_ME.V.DVBYTE.VFC#
      6747**DCL      6747--REDEF
FPT_WRITE_OUT.STATION_
      6771**DCL      6771--REDEF
FPT_WRITE_OUT.V.DVBYTE.VFC#
      6778**DCL      6778--REDEF
FPT_WRITE_UC.STATION_
      6709**DCL      6709--REDEF
FPT_WRITE_UC.V.DVBYTE.VFC#
      6716**DCL      6716--REDEF
FROM_SN.SN
      5615**DCL      5616--REDEF
GETCMD.OUT$
      4822**DCL      4828--REDEF
PL6.E3A0      #024=VPD$MAKE_WILD_OUT File=VPD$UTIL.:E05TSI                       WED 07/30/97 07:49 Page:603
I
      7375**DCL      7704<<CALLBLT
ICB.FID.STRING
      5639**DCL      5640--REDEF
IFSFA_PARAM.EOMCHAR#
      5994**DCL      5995--REDEF
IFSFA_PARAM.SIG1
      5988**DCL      5988--REDEF
IFSFA_PARAM.SIG2
      5988**DCL      5989--REDEF
IN_NAME.LEN
      5560**DCL      7701>>ASSIGN   7704>>CALLBLT
IN_NAME.STRING
      5560**DCL      7701--ASSIGN   7704>>CALLBLT
IN_RES
      5561**DCL      5561--REDEF
IN_SN.SN
      5577**DCL      5578--REDEF
NEW_NAME
      7379**DCL         6--PROC
NEW_NAME.C
      7381**DCL      7708--ASSIGN
NEW_NAME.L
      7380**DCL      7716<<ASSIGN   7717>>IF
OCB.TYPE
      5323**DCL      5324--REDEF
OFSFA_PARAM.EOMCHAR#
      6024**DCL      6025--REDEF
OFSFA_PARAM.SIG1
      6018**DCL      6018--REDEF
OFSFA_PARAM.SIG2
      6018**DCL      6019--REDEF
OUT_SN.SN
      5595**DCL      5596--REDEF
QUESTION_MARK
      7382**DCL      7706--ASSIGN
PL6.E3A0      #024=VPD$MAKE_WILD_OUT File=VPD$UTIL.:E05TSI                       WED 07/30/97 07:49 Page:604
SPEC_BUF
      5273**DCL      5273--REDEF
TNAME
      7376**DCL         6--PROC
TNAME.C
      7378**DCL      7699--ASSIGN
TNAME.L
      7377**DCL      7699>>ASSIGN
TOO_LONG
      7719**LABEL    7713--GOTO
VPL$ERR_PROC
      7565**DCL-ENT  7714--CALL     7719--CALL
X$WILDFMT
      7593**DCL-ENT  7709--CALL
XUW_WILDCARD
      7665**DCL      7709<>CALL
XUW_WILDCARD.ERROR
      7686**DCL      7714<>CALL
XUW_WILDCARD.ERROR.ERR#
      7690**DCL      7711>>IF
XUW_WILDCARD.INPUT_
      7671**DCL      7700<<ASSIGN
XUW_WILDCARD.OUTPUT_
      7681**DCL      7708<<ASSIGN
XUW_WILDCARD.OUTPUT_LEN
      7696**DCL      7716>>ASSIGN
XUW_WILDCARD.PATTERN_
      7666**DCL      7701<<ASSIGN   7706<<ASSIGN
XUW_WILDCARD.TEMPLATE_
      7676**DCL      7699<<ASSIGN

PL6.E3A0      #025=VPD$MNG_CRPT File=VPD$UTIL.:E05TSI                            WED 07/30/97 07:51 Page:605
     2292        1        /*T***********************************************************/
     2293        2        /*T*                                                         */
     2294        3        /*T* Copyright (c) Bull HN Information Systems Inc., 1997    */
     2295        4        /*T*                                                         */
     2296        5        /*T***********************************************************/
     2297        6        VPD$MNG_CRPT: PROC(CONVERTED_VALUE,NODE$) ALTRET;
     2298        7        /*D* NAME: VPD$MNG_CRPT
     2299        8             CALL: CALL VPD$MNG_CRPT(CONVERTED_VALUE,NODE$);
     2300        9             DESCRIPTION: This module is used for both input and output
     2301       10                          CRPT options.  It will munge either a text string
     2302       11                          or octal string into a UBIN WORD.
     2303       12        */
     2304       13        /**/
     2305       14        /*  PARAMETERS  */
     2306       15        /**/
     2307       16    1   DCL CONVERTED_VALUE UBIN WORD;
     2308       17    1   DCL CONVERTED_VALUE_(0:3) REDEF CONVERTED_VALUE CHAR(1);
     2309       18    1   DCL NODE$ PTR;
     2310       19        /**/
     2311       20        /*  INCLUDE FILES  */
     2312       21        /**/
     2313       22        %INCLUDE VP_DATA_R;
     2314     7009        /**/
     2315     7010        /*  LOCAL AUTO  */
     2316     7011        /**/
     2317     7012    1   DCL I UBIN WORD AUTO;
     2318     7013        /**/
     2319     7014        /*  BASED DATA  */
     2320     7015        /**/
     2321     7016        %PARSE$OUT(STCLASS=BASED);
     2322     7061        %PARSE$SYM(STCLASS=BASED);
     2323     7099    1   DCL 1 TEXT$C BASED CALIGNED,
     2324     7100    1         2 C UBIN(9) CALIGNED,
     2325     7101    1         2 T(0:0) CHAR(1) CALIGNED,
     2326     7102    1         2 U(0:0) REDEF T UBIN(9) CALIGNED;
     2327     7103        /**/
     2328     7104    1           CONVERTED_VALUE = 0;
PL6.E3A0      #025=VPD$MNG_CRPT File=VPD$UTIL.:E05TSI                            WED 07/30/97 07:51 Page:606
     2329     7105    1           IF NODE$ -> OUT$BLK.CODE = 4
     2330     7106    1            THEN                           /* TEXT!                              */
     2331     7107    2            DO;
     2332     7108    2               IF NODE$ -> OUT$BLK.SUBLK$(0) -> TEXT$C.C > 4
     2333     7109    2                THEN
     2334     7110    2                  GOTO GRIPE;
     2335     7111    3               DO I = 0 TO NODE$ -> OUT$BLK.SUBLK$(0) -> TEXT$C.C -1;
     2336     7112    3                  CONVERTED_VALUE_(I) = NODE$ -> OUT$BLK.SUBLK$(0) -> TEXT$C.T(I);
     2337     7113    3                  END;
     2338     7114    2               END;
     2339     7115    1            ELSE                           /* OCTAL!                             */
     2340     7116    2            DO;
     2341     7117    2               IF NODE$ -> OUT$BLK.SUBLK$(0) -> TEXT$C.C > 12
     2342     7118    2                THEN
     2343     7119    2                  GOTO GRIPE;
     2344     7120    3               DO I = 0 TO NODE$ -> OUT$BLK.SUBLK$(0) -> TEXT$C.C -1;
     2345     7121    3                  CONVERTED_VALUE = CONVERTED_VALUE*8 +
     2346     7122    3                    ASCBIN(NODE$ -> OUT$BLK.SUBLK$(0) -> TEXT$C.T(I)) - 48;
     2347     7123    3                  END;
     2348     7124    2               END;
     2349     7125    1           RETURN;
     2350     7126        /**/
     2351     7127    1   GRIPE:  ;
     2352     7128    1           ALTRETURN;
     2353     7129        /**/
     2354     7130    1   END VPD$MNG_CRPT;
     2355     7131        %EOD;

PL6.E3A0      #025=VPD$MNG_CRPT File=VPD$UTIL.:E05TSI                            WED 07/30/97 07:51 Page:607
--  Include file information  --

   B_MICROPS_C.:E05TOU  is referenced.
   XU_MACRO_C.:E05TOU  is referenced.
   VP_MACRO_C.:E05TOU  is referenced.
   XS_MACRO_C.:E05TOU  is referenced.
   VP_PERR_C.:E05TOU  is referenced.
   CP_6_SUBS.:E05TOU  is referenced.
   CP_6.:E05TOU  cannot be made into a system file and is referenced.
   VP_DATA_R.:E05TOU  cannot be made into a system file and is referenced.
   B$JIT_C.:E05TOU  was found in the system file and is never referenced.
   CP_6_C.:E05TOU  was found in the system file and is referenced.
      No diagnostics issued in procedure VPD$MNG_CRPT.

   Procedure VPD$MNG_CRPT requires 77 words for executable code.
   Procedure VPD$MNG_CRPT requires 8 words of local(AUTO) storage.

PL6.E3A0      #025=VPD$MNG_CRPT File=VPD$UTIL.:E05TSI                            WED 07/30/97 07:51 Page:608

 Object Unit name= VPD$MNG_CRPT                               File name= VPD$UTIL.:E05TOU
 UTS= JUL 30 '97 07:51:04.76 WED                              Compiler= PL-6/E31         Sev=      00
 SharedLib= :SHARED_SYSTEM                                    Alt SharedLib=


    ****  Control sections  ****

 Sect   Type Bound  Init  Size OctSiz  Section name(segment info)
    0   DCB   even  none     0      0  M$UC
    1   DCB   even  none     0      0  M$EI
    2   DCB   even  none     0      0  M$EO
    3   DCB   even  none     0      0  M$EO1
    4   DCB   even  none     0      0  M$ME
    5   DCB   even  none     0      0  M$SI
    6   DCB   even  none     0      0  M$READFILE
    7   DCB   even  none     0      0  M$DO
    8   DCB   even  none     0      0  M$STD1
    9   DCB   even  none     0      0  M$SORT1
   10   Proc  even  none    77    115  VPD$MNG_CRPT

    ****  Entry defs  ****

                              Check   Calling
                             calling  sequence
  Sect OctLoc Primary Altret sequence   type   Parms  Name
    10      0   yes    yes     yes      Std        2  VPD$MNG_CRPT

  ****  Entry refs  ****

         Check        Calling
        calling       sequence
Altret sequence SRef   type   Args  Name
                       nStd      0 X66_AUTO_2
                       nStd      0 X66_ARET
                       nStd      0 X66_AALT
PL6.E3A0      #025=VPD$MNG_CRPT File=VPD$UTIL.:E05TSI                            WED 07/30/97 07:51 Page:609

  ****  Data refs  ****

  Flags:  r = read only, s = secondary
Flgs Name                             Flgs Name                             Flgs Name
     M$UC                                  BREAK_LOC                             BREAK_MESSAGE_REPORTER
     SPEC_BUF                              IN_RES                                M$EI
     M$EO                                  M$EO1                                 M$ME
     M$SI                                  M$READFILE                            M$DO
     M$STD1                                M$SORT1
PL6.E3A0      #025=VPD$MNG_CRPT File=VPD$UTIL.:E05TSI                            WED 07/30/97 07:51 Page:610


     2292        1        /*T***********************************************************/
     2293        2        /*T*                                                         */
     2294        3        /*T* Copyright (c) Bull HN Information Systems Inc., 1997    */
     2295        4        /*T*                                                         */
     2296        5        /*T***********************************************************/
     2297        6        VPD$MNG_CRPT: PROC(CONVERTED_VALUE,NODE$) ALTRET;

      6 10 000000   000000 700200 xent  VPD$MNG_CRPT TSX0  ! X66_AUTO_2
        10 000001   000010 000002                    ZERO    8,2

     2298        7        /*D* NAME: VPD$MNG_CRPT
     2299        8             CALL: CALL VPD$MNG_CRPT(CONVERTED_VALUE,NODE$);
     2300        9             DESCRIPTION: This module is used for both input and output
     2301       10                          CRPT options.  It will munge either a text string
     2302       11                          or octal string into a UBIN WORD.
     2303       12        */
     2304       13        /**/
     2305       14        /*  PARAMETERS  */
     2306       15        /**/
     2307       16    1   DCL CONVERTED_VALUE UBIN WORD;
     2308       17    1   DCL CONVERTED_VALUE_(0:3) REDEF CONVERTED_VALUE CHAR(1);
     2309       18    1   DCL NODE$ PTR;
     2310       19        /**/
     2311       20        /*  INCLUDE FILES  */
     2312       21        /**/
     2313       22        %INCLUDE VP_DATA_R;
     2314     7009        /**/
     2315     7010        /*  LOCAL AUTO  */
     2316     7011        /**/
     2317     7012    1   DCL I UBIN WORD AUTO;
     2318     7013        /**/
     2319     7014        /*  BASED DATA  */
     2320     7015        /**/
     2321     7016        %PARSE$OUT(STCLASS=BASED);
     2322     7061        %PARSE$SYM(STCLASS=BASED);
     2323     7099    1   DCL 1 TEXT$C BASED CALIGNED,
PL6.E3A0      #025=VPD$MNG_CRPT File=VPD$UTIL.:E05TSI                            WED 07/30/97 07:51 Page:611
     2324     7100    1         2 C UBIN(9) CALIGNED,
     2325     7101    1         2 T(0:0) CHAR(1) CALIGNED,
     2326     7102    1         2 U(0:0) REDEF T UBIN(9) CALIGNED;
     2327     7103        /**/
     2328     7104    1           CONVERTED_VALUE = 0;

   7104 10 000002   200003 470500                    LDP0    @CONVERTED_VALUE,,AUTO
        10 000003   000000 450100                    STZ     0,,PR0

     2329     7105    1           IF NODE$ -> OUT$BLK.CODE = 4

   7105 10 000004   200004 471500                    LDP1    @NODE$,,AUTO
        10 000005   100000 473500                    LDP3    0,,PR1
        10 000006   300000 720100                    LXL0    0,,PR3
        10 000007   000004 100003                    CMPX0   4,DU
        10 000010   000047 601000 10                 TNZ     s:7117

     2330     7106    1            THEN                           /* TEXT!                              */
     2331     7107    2            DO;

     2332     7108    2               IF NODE$ -> OUT$BLK.SUBLK$(0) -> TEXT$C.C > 4

   7108 10 000011   300003 474500                    LDP4    3,,PR3
        10 000012   000100 101500                    MRL     fill='000'O
        10 000013   400000 000001                    ADSC9   0,,PR4                   cn=0,n=1
        10 000014   200006 000004                    ADSC9   I+1,,AUTO                cn=0,n=4
        10 000015   200006 236100                    LDQ     I+1,,AUTO
        10 000016   000005 116007                    CMPQ    5,DL
        10 000017   000114 605000 10                 TPL     GRIPE

     2333     7109    2                THEN
     2334     7110    2                  GOTO GRIPE;
     2335     7111    3               DO I = 0 TO NODE$ -> OUT$BLK.SUBLK$(0) -> TEXT$C.C -1;

   7111 10 000020   200005 450100                    STZ     I,,AUTO
        10 000021   000034 710000 10                 TRA     s:7113+2

PL6.E3A0      #025=VPD$MNG_CRPT File=VPD$UTIL.:E05TSI                            WED 07/30/97 07:51 Page:612
     2336     7112    3                  CONVERTED_VALUE_(I) = NODE$ -> OUT$BLK.SUBLK$(0) -> TEXT$C.T(I);

   7112 10 000022   200004 470500                    LDP0    @NODE$,,AUTO
        10 000023   000000 471500                    LDP1    0,,PR0
        10 000024   100003 473500                    LDP3    3,,PR1
        10 000025   200005 235100                    LDA     I,,AUTO
        10 000026   200003 474500                    LDP4    @CONVERTED_VALUE,,AUTO
        10 000027   040105 100505                    MLR     fill='040'O
        10 000030   300000 200001                    ADSC9   0,A,PR3                  cn=1,n=1
        10 000031   400000 000001                    ADSC9   0,A,PR4                  cn=0,n=1

     2337     7113    3                  END;

   7113 10 000032   000001 035007                    ADLA    1,DL
        10 000033   200005 755100                    STA     I,,AUTO
        10 000034   200004 470500                    LDP0    @NODE$,,AUTO
        10 000035   000000 471500                    LDP1    0,,PR0
        10 000036   100003 473500                    LDP3    3,,PR1
        10 000037   000100 101500                    MRL     fill='000'O
        10 000040   300000 000001                    ADSC9   0,,PR3                   cn=0,n=1
        10 000041   200006 000004                    ADSC9   I+1,,AUTO                cn=0,n=4
        10 000042   200006 236100                    LDQ     I+1,,AUTO
        10 000043   200005 116100                    CMPQ    I,,AUTO
        10 000044   000046 600000 10                 TZE     s:7114
        10 000045   000022 603000 10                 TRC     s:7112

     2338     7114    2               END;

   7114 10 000046   000113 710000 10                 TRA     s:7125

     2339     7115    1            ELSE                           /* OCTAL!                             */
     2340     7116    2            DO;

     2341     7117    2               IF NODE$ -> OUT$BLK.SUBLK$(0) -> TEXT$C.C > 12

   7117 10 000047   300003 474500                    LDP4    3,,PR3
        10 000050   000100 101500                    MRL     fill='000'O
PL6.E3A0      #025=VPD$MNG_CRPT File=VPD$UTIL.:E05TSI                            WED 07/30/97 07:51 Page:613
        10 000051   400000 000001                    ADSC9   0,,PR4                   cn=0,n=1
        10 000052   200006 000004                    ADSC9   I+1,,AUTO                cn=0,n=4
        10 000053   200006 236100                    LDQ     I+1,,AUTO
        10 000054   000015 116007                    CMPQ    13,DL
        10 000055   000114 605000 10                 TPL     GRIPE

     2342     7118    2                THEN
     2343     7119    2                  GOTO GRIPE;
     2344     7120    3               DO I = 0 TO NODE$ -> OUT$BLK.SUBLK$(0) -> TEXT$C.C -1;

   7120 10 000056   200005 450100                    STZ     I,,AUTO
        10 000057   000101 710000 10                 TRA     s:7123+2

     2345     7121    3                  CONVERTED_VALUE = CONVERTED_VALUE*8 +

   7121 10 000060   200004 470500                    LDP0    @NODE$,,AUTO
        10 000061   000000 471500                    LDP1    0,,PR0
        10 000062   100003 473500                    LDP3    3,,PR1
        10 000063   200005 235100                    LDA     I,,AUTO
        10 000064   000100 101505                    MRL     fill='000'O
        10 000065   300000 200001                    ADSC9   0,A,PR3                  cn=1,n=1
        10 000066   200006 000004                    ADSC9   I+1,,AUTO                cn=0,n=4
        10 000067   200006 236100                    LDQ     I+1,,AUTO
        10 000070   200007 756100                    STQ     I+2,,AUTO
        10 000071   200003 471500                    LDP1    @CONVERTED_VALUE,,AUTO
        10 000072   100000 236100                    LDQ     0,,PR1
        10 000073   000003 736000                    QLS     3
        10 000074   200007 036100                    ADLQ    I+2,,AUTO
        10 000075   000060 136007                    SBLQ    48,DL
        10 000076   100000 756100                    STQ     0,,PR1

     2346     7122    3                    ASCBIN(NODE$ -> OUT$BLK.SUBLK$(0) -> TEXT$C.T(I)) - 48;
     2347     7123    3                  END;

   7123 10 000077   000001 035007                    ADLA    1,DL
        10 000100   200005 755100                    STA     I,,AUTO
        10 000101   200004 470500                    LDP0    @NODE$,,AUTO
PL6.E3A0      #025=VPD$MNG_CRPT File=VPD$UTIL.:E05TSI                            WED 07/30/97 07:51 Page:614
        10 000102   000000 471500                    LDP1    0,,PR0
        10 000103   100003 473500                    LDP3    3,,PR1
        10 000104   000100 101500                    MRL     fill='000'O
        10 000105   300000 000001                    ADSC9   0,,PR3                   cn=0,n=1
        10 000106   200006 000004                    ADSC9   I+1,,AUTO                cn=0,n=4
        10 000107   200006 236100                    LDQ     I+1,,AUTO
        10 000110   200005 116100                    CMPQ    I,,AUTO
        10 000111   000113 600000 10                 TZE     s:7125
        10 000112   000060 603000 10                 TRC     s:7121

     2348     7124    2               END;

     2349     7125    1           RETURN;

   7125 10 000113   000000 702200 xent               TSX2  ! X66_ARET

   7120 10 000114                       GRIPE        null
     2350     7126        /**/
     2351     7127    1   GRIPE:  ;
     2352     7128    1           ALTRETURN;

   7128 10 000114   000000 702200 xent               TSX2  ! X66_AALT
     2353     7129        /**/
     2354     7130    1   END VPD$MNG_CRPT;
     2355     7131        %EOD;

PL6.E3A0      #025=VPD$MNG_CRPT File=VPD$UTIL.:E05TSI                            WED 07/30/97 07:51 Page:615
--  Include file information  --

   B_MICROPS_C.:E05TOU  is referenced.
   XU_MACRO_C.:E05TOU  is referenced.
   VP_MACRO_C.:E05TOU  is referenced.
   XS_MACRO_C.:E05TOU  is referenced.
   VP_PERR_C.:E05TOU  is referenced.
   CP_6_SUBS.:E05TOU  is referenced.
   CP_6.:E05TOU  cannot be made into a system file and is referenced.
   VP_DATA_R.:E05TOU  cannot be made into a system file and is referenced.
   B$JIT_C.:E05TOU  was found in the system file and is never referenced.
   CP_6_C.:E05TOU  was found in the system file and is referenced.
      No diagnostics issued in procedure VPD$MNG_CRPT.
PL6.E3A0      #025=VPD$MNG_CRPT File=VPD$UTIL.:E05TSI                            WED 07/30/97 07:51 Page:616

 **** Variables and constants ****

  ****  Auto variables  ****

  ****  Scalars and arrays  ****
OctLoc.c.b A Datatyp(siz) R M Lvl/name                 OctLoc.c.b A Datatyp(siz) R M Lvl/name

     3-0-0/w PTR         r     1 @CONVERTED_VALUE           4-0-0/w PTR         r     1 @NODE$
    *0-0-0/w UBIN        r     1 CONVERTED_VALUE
    *0-0-0/w CHAR        r     1 CONVERTED_VALUE_(0:3)
     5-0-0/w UBIN        r     1 I                         *0-0-0/w PTR         r     1 NODE$

  ****  SYMREF variables  ****

  ****  Scalars and arrays  ****
OctLoc.c.b A Datatyp(siz) R M Lvl/name                 OctLoc.c.b A Datatyp(siz) R M Lvl/name

     0-0-0/w EPTR        r     1 BREAK_MESSAGE_REPORTER

  ****  BASED and DCB variables  ****

  ****  Scalars and arrays  ****
OctLoc.c.b A Datatyp(siz) R M Lvl/name                 OctLoc.c.b A Datatyp(siz) R M Lvl/name

     0-0-0/w STRC(144)   r     1 OUT$BLK                    0-0-0/w ASTR(153)   r     1 OUT$SYM
     0-0-0/c STRC(18)    r     1 TEXT$C


   Procedure VPD$MNG_CRPT requires 77 words for executable code.
   Procedure VPD$MNG_CRPT requires 8 words of local(AUTO) storage.
PL6.E3A0      #025=VPD$MNG_CRPT File=VPD$UTIL.:E05TSI                            WED 07/30/97 07:51 Page:617
          *** CROSS REFERENCE LISTING ***
**     DENOTES     IDENTIFIER DEFINITION
<<                 IDENTIFIER'S VALUE SET
>>                 IDENTIFIER'S VALUE USED
<>                 IDENTIFIER SET AND/OR USED
--                 IDENTIFIER REFERENCED
PL6.E3A0      #025=VPD$MNG_CRPT File=VPD$UTIL.:E05TSI                            WED 07/30/97 07:51 Page:618
          MINI XREF LISTING

BREAK_LOC
      5229**DCL      5229--REDEF
CONVERTED_VALUE
        16**DCL         6--PROC       17--REDEF    7104<<ASSIGN   7121<<ASSIGN   7121>>ASSIGN
CONVERTED_VALUE_
        17**DCL      7112<<ASSIGN
DEF_ICB.FID.STRING
      5827**DCL      5828--REDEF
DEV_ICB.FID.STRING
      5713**DCL      5714--REDEF
EI_KEY.KEY
      5925**DCL      5925--REDEF    5925--REDEF    5925--REDEF
EO_OCB.TYPE
      5425**DCL      5426--REDEF
FPT_CLOSE_EI.SN_
      6766**DCL      6766--REDEF
FPT_CLOSE_EI.UTL_
      6767**DCL      6767--REDEF
FPT_CLOSE_EI.V.EXPIRE#
      6781**DCL      6781--REDEF
FPT_CLOSE_EI.V.TYPE#
      6779**DCL      6779--REDEF
FPT_CLOSE_EI.V.XTNSIZE#
      6776**DCL      6776--REDEF    6778--REDEF
FPT_CLOSE_PTL.SN_
      6892**DCL      6892--REDEF
FPT_CLOSE_PTL.UTL_
      6893**DCL      6893--REDEF
FPT_CLOSE_PTL.V.EXPIRE#
      6907**DCL      6907--REDEF
FPT_CLOSE_PTL.V.TYPE#
      6905**DCL      6905--REDEF
PL6.E3A0      #025=VPD$MNG_CRPT File=VPD$UTIL.:E05TSI                            WED 07/30/97 07:51 Page:619
FPT_CLOSE_PTL.V.XTNSIZE#
      6902**DCL      6902--REDEF    6904--REDEF
FPT_CLOSE_READ.SN_
      6808**DCL      6808--REDEF
FPT_CLOSE_READ.UTL_
      6809**DCL      6809--REDEF
FPT_CLOSE_READ.V.EXPIRE#
      6823**DCL      6823--REDEF
FPT_CLOSE_READ.V.TYPE#
      6821**DCL      6821--REDEF
FPT_CLOSE_READ.V.XTNSIZE#
      6818**DCL      6818--REDEF    6820--REDEF
FPT_CLOSE_SI.SN_
      6976**DCL      6976--REDEF
FPT_CLOSE_SI.UTL_
      6977**DCL      6977--REDEF
FPT_CLOSE_SI.V.EXPIRE#
      6991**DCL      6991--REDEF
FPT_CLOSE_SI.V.TYPE#
      6989**DCL      6989--REDEF
FPT_CLOSE_SI.V.XTNSIZE#
      6986**DCL      6986--REDEF    6988--REDEF
FPT_CLOSE_STD.SN_
      6934**DCL      6934--REDEF
FPT_CLOSE_STD.UTL_
      6935**DCL      6935--REDEF
FPT_CLOSE_STD.V.EXPIRE#
      6949**DCL      6949--REDEF
FPT_CLOSE_STD.V.TYPE#
      6947**DCL      6947--REDEF
FPT_CLOSE_STD.V.XTNSIZE#
      6944**DCL      6944--REDEF    6946--REDEF
FPT_CLSEI_FT.SN_
      6850**DCL      6850--REDEF
FPT_CLSEI_FT.UTL_
      6851**DCL      6851--REDEF
PL6.E3A0      #025=VPD$MNG_CRPT File=VPD$UTIL.:E05TSI                            WED 07/30/97 07:51 Page:620
FPT_CLSEI_FT.V.EXPIRE#
      6865**DCL      6865--REDEF
FPT_CLSEI_FT.V.TYPE#
      6863**DCL      6863--REDEF
FPT_CLSEI_FT.V.XTNSIZE#
      6860**DCL      6860--REDEF    6862--REDEF
FPT_OPEN_EI.ACSVEH_
      6421**DCL      6422--REDEF
FPT_OPEN_EI.ALTKEYS_
      6427**DCL      6428--REDEF    6428--REDEF
FPT_OPEN_EI.HDR_
      6426**DCL      6427--REDEF
FPT_OPEN_EI.TAB_
      6425**DCL      6426--REDEF
FPT_OPEN_EI.UHL_
      6419**DCL      6420--REDEF    6420--REDEF
FPT_OPEN_EI.V.FSN#
      6459**DCL      6459--REDEF    6459--REDEF
FPT_OPEN_EI.WSN_
      6425**DCL      6425--REDEF
FPT_OPEN_EI_SAVE.ACSVEH_
      6530**DCL      6531--REDEF
FPT_OPEN_EI_SAVE.ALTKEYS_
      6536**DCL      6537--REDEF    6537--REDEF
FPT_OPEN_EI_SAVE.HDR_
      6535**DCL      6536--REDEF
FPT_OPEN_EI_SAVE.TAB_
      6534**DCL      6535--REDEF
FPT_OPEN_EI_SAVE.UHL_
      6528**DCL      6529--REDEF    6529--REDEF
FPT_OPEN_EI_SAVE.V.FSN#
      6568**DCL      6568--REDEF    6568--REDEF
FPT_OPEN_EI_SAVE.WSN_
      6534**DCL      6534--REDEF
FPT_OPEN_OUT.ACSVEH_
      6312**DCL      6313--REDEF
PL6.E3A0      #025=VPD$MNG_CRPT File=VPD$UTIL.:E05TSI                            WED 07/30/97 07:51 Page:621
FPT_OPEN_OUT.ALTKEYS_
      6318**DCL      6319--REDEF    6319--REDEF
FPT_OPEN_OUT.HDR_
      6317**DCL      6318--REDEF
FPT_OPEN_OUT.TAB_
      6316**DCL      6317--REDEF
FPT_OPEN_OUT.UHL_
      6310**DCL      6311--REDEF    6311--REDEF
FPT_OPEN_OUT.V.FSN#
      6350**DCL      6350--REDEF    6350--REDEF
FPT_OPEN_OUT.WSN_
      6316**DCL      6316--REDEF
FPT_OPEN_OUT_SAVE.ACSVEH_
      6203**DCL      6204--REDEF
FPT_OPEN_OUT_SAVE.ALTKEYS_
      6209**DCL      6210--REDEF    6210--REDEF
FPT_OPEN_OUT_SAVE.HDR_
      6208**DCL      6209--REDEF
FPT_OPEN_OUT_SAVE.TAB_
      6207**DCL      6208--REDEF
FPT_OPEN_OUT_SAVE.UHL_
      6201**DCL      6202--REDEF    6202--REDEF
FPT_OPEN_OUT_SAVE.V.FSN#
      6241**DCL      6241--REDEF    6241--REDEF
FPT_OPEN_OUT_SAVE.WSN_
      6207**DCL      6207--REDEF
FPT_READ_STD.STATION_
      6631**DCL      6632--REDEF
FPT_READ_STD.V.DVBYTE.REREAD#
      6643**DCL      6643--REDEF
FPT_READ_STD.V.INDX#
      6641**DCL      6641--REDEF
FPT_READ_UC.STATION_
      6592**DCL      6593--REDEF
FPT_READ_UC.V.DVBYTE.REREAD#
      6604**DCL      6604--REDEF
PL6.E3A0      #025=VPD$MNG_CRPT File=VPD$UTIL.:E05TSI                            WED 07/30/97 07:51 Page:622
FPT_READ_UC.V.INDX#
      6602**DCL      6602--REDEF
FPT_WRITE_ME.STATION_
      6700**DCL      6700--REDEF
FPT_WRITE_ME.V.DVBYTE.VFC#
      6707**DCL      6707--REDEF
FPT_WRITE_OUT.STATION_
      6731**DCL      6731--REDEF
FPT_WRITE_OUT.V.DVBYTE.VFC#
      6738**DCL      6738--REDEF
FPT_WRITE_UC.STATION_
      6669**DCL      6669--REDEF
FPT_WRITE_UC.V.DVBYTE.VFC#
      6676**DCL      6676--REDEF
FROM_SN.SN
      5575**DCL      5576--REDEF
GETCMD.OUT$
      4782**DCL      4788--REDEF
GRIPE
      7120**LABEL    7110--GOTO     7119--GOTO
I
      7012**DCL      7111<<DOINDEX  7112>>ASSIGN   7112>>ASSIGN   7120<<DOINDEX  7121>>ASSIGN
ICB.FID.STRING
      5599**DCL      5600--REDEF
IFSFA_PARAM.EOMCHAR#
      5954**DCL      5955--REDEF
IFSFA_PARAM.SIG1
      5948**DCL      5948--REDEF
IFSFA_PARAM.SIG2
      5948**DCL      5949--REDEF
IN_RES
      5521**DCL      5521--REDEF
IN_SN.SN
      5537**DCL      5538--REDEF
NODE$
        18**DCL         6--PROC     7105>>IF       7108>>IF       7111>>DOINDEX  7112>>ASSIGN   7117>>IF
PL6.E3A0      #025=VPD$MNG_CRPT File=VPD$UTIL.:E05TSI                            WED 07/30/97 07:51 Page:623
      7120>>DOINDEX  7121>>ASSIGN
OCB.TYPE
      5283**DCL      5284--REDEF
OFSFA_PARAM.EOMCHAR#
      5984**DCL      5985--REDEF
OFSFA_PARAM.SIG1
      5978**DCL      5978--REDEF
OFSFA_PARAM.SIG2
      5978**DCL      5979--REDEF
OUT$BLK.CODE
      7030**DCL      7105>>IF
OUT$BLK.SUBLK$
      7055**DCL      7108>>IF       7111>>DOINDEX  7112>>ASSIGN   7117>>IF       7120>>DOINDEX  7121>>ASSIGN
OUT$SYM.COUNT
      7091**DCL      7094--IMP-SIZ
OUT_SN.SN
      5555**DCL      5556--REDEF
SPEC_BUF
      5233**DCL      5233--REDEF
TEXT$C.C
      7100**DCL      7108>>IF       7111>>DOINDEX  7117>>IF       7120>>DOINDEX
TEXT$C.T
      7101**DCL      7102--REDEF    7112>>ASSIGN   7121>>ASSIGN

PL6.E3A0      #026=VPD$OUT_NAMES File=VPD$UTIL.:E05TSI                           WED 07/30/97 07:52 Page:624
     2356        1        /*T***********************************************************/
     2357        2        /*T*                                                         */
     2358        3        /*T* Copyright (c) Bull HN Information Systems Inc., 1997    */
     2359        4        /*T*                                                         */
     2360        5        /*T***********************************************************/
     2361        6        VPD$OUT_NAMES: PROC(IN_NAM,OUT_NAM);
     2362        7        /*D* NAME: VPD$OUT_NAMES
     2363        8             CALL: CALL VPD$OUT_NAMES(IN_NAM,OUT_NAM);
     2364        9                    where IN_NAM and OUT_NAM are the textc names of the filenames
     2365       10                    to report.
     2366       11             DESCRIPTION: If OUT_NAM.LEN>0 and OUT_NAM~=IN_NAM then
     2367       12                            IN_NAM -> OUT_NAM      is output otherwise
     2368       13                            IN_NAM                 is output.
     2369       14        */
     2370       15        /**/
     2371       16        /*  PARAMETERS  */
     2372       17        /**/
     2373       18    1   DCL 1 IN_NAM,
     2374       19    1         2 LEN UBIN BYTE UNAL,
     2375       20    1         2 STRING CHAR(IN_NAM.LEN);
     2376       21    1   DCL 1 OUT_NAM,
     2377       22    1         2 LEN UBIN BYTE UNAL,
     2378       23    1         2 STRING CHAR(OUT_NAM.LEN);
     2379       24        /**/
     2380       25        /*  INCLUDE FILES  */
     2381       26        /**/
     2382       27        %INCLUDE VP_DATA_R;
     2383     7014        %INCLUDE F$DCB;
     2384     7063        /**/
     2385     7064        /*  LOCAL AUTO  */
     2386     7065        /**/
     2387     7066    1   DCL BLNKS UBIN WORD;
     2388     7067    1   DCL SEP$ PTR;
     2389     7068    1   DCL OUT_NAME$ PTR;
     2390     7069    1   DCL 1 NAME_BUF,
     2391     7070    1         2 LEN UBIN BYTE UNAL,
     2392     7071    1         2 VFC CHAR(1),
PL6.E3A0      #026=VPD$OUT_NAMES File=VPD$UTIL.:E05TSI                           WED 07/30/97 07:52 Page:625
     2393     7072    1         2 NAME CHAR(72);
     2394     7073    1   DCL 1 NAME_BUF1 REDEF NAME_BUF,
     2395     7074    1         2 LEN UBIN BYTE UNAL,
     2396     7075    1         2 NAME CHAR(73);
     2397     7076    1   DCL I SBIN WORD;
     2398     7077        /**/
     2399     7078        /*  ENTRY DCLS  */
     2400     7079        /**/
     2401     7080    1   DCL VPG$WRITE_OUT ENTRY(2);
     2402     7081        /**/
     2403     7082        /*  CONSTANT  */
     2404     7083        /**/
     2405     7084    1   DCL CRLF_VFC CHAR(1) CONSTANT INIT('a');
     2406     7085    1   DCL BLANKS_12 CHAR(12) CONSTANT INIT(' ');
     2407     7086    1   DCL ZERO_BYTE UBIN BYTE CONSTANT INIT(0);
     2408     7087    1   DCL 1 SEP CONSTANT,
     2409     7088    1         2 * UBIN BYTE UNAL INIT(4),
     2410     7089    1         2 * CHAR(4) INIT(' -> ');
     2411     7090    1   DCL 1 TEXT$C BASED,
     2412     7091    1         2 LEN UBIN BYTE UNAL,
     2413     7092    1         2 STRING CHAR(TEXT$C.LEN);
     2414     7093    1           IF OUT_NAM.LEN=0 OR  OUT_NAM=IN_NAM
     2415     7094    2            THEN DO;
     2416     7095    2               SEP$ = ADDR(ZERO_BYTE);
     2417     7096    2               OUT_NAME$ = SEP$;
     2418     7097    2               END;
     2419     7098    1            ELSE
     2420     7099    2            DO;
     2421     7100    2               SEP$ = ADDR(SEP);
     2422     7101    2               OUT_NAME$ = ADDR(OUT_NAM);
     2423     7102    2               END;
     2424     7103    1           IF OUT_COL=0
     2425     7104    1            THEN
     2426     7105    1              BLNKS = 0;
     2427     7106    1            ELSE
     2428     7107    1              BLNKS = 12 - MOD(OUT_COL,12);
     2429     7108    1           IF IN_NAM.LEN + OUT_COL + BLNKS
PL6.E3A0      #026=VPD$OUT_NAMES File=VPD$UTIL.:E05TSI                           WED 07/30/97 07:52 Page:626
     2430     7109    1             + SEP$->TEXT$C.LEN + OUT_NAME$->TEXT$C.LEN
     2431     7110    1             >ME_WIDTH AND OUT_COL>0
     2432     7111    1            THEN
     2433     7112    2            DO;                            /* End of the line, start a new one   */
     2434     7113    2               BLNKS = 0;
     2435     7114    2               OUT_COL = 0;
     2436     7115    2               NAME_BUF.VFC = 'a';
     2437     7116    2               END;
     2438     7117    1            ELSE
     2439     7118    1              NAME_BUF.VFC = '@';
     2440     7119    1           CALL CONCAT(NAME_BUF.NAME,
     2441     7120    1             SUBSTR(BLANKS_12,0,BLNKS),
     2442     7121    1             IN_NAM.STRING,
     2443     7122    1             SEP$->TEXT$C.STRING,
     2444     7123    1             OUT_NAME$->TEXT$C.STRING);
     2445     7124    1           NAME_BUF.LEN = 1 + BLNKS + IN_NAM.LEN
     2446     7125    1             + SEP$->TEXT$C.LEN + OUT_NAME$->TEXT$C.LEN;
     2447     7126    1           OUT_COL = OUT_COL + NAME_BUF.LEN - 1;
     2448     7127    1           FPT_WRITE_ME.BUF_ = VECTOR(ADDR(NAME_BUF)->TEXT$C.STRING);
     2449     7128    1           FPT_WRITE_ME.V.DVBYTE.VFC# = %YES#;
     2450     7129    1           CALL M$WRITE(FPT_WRITE_ME);
     2451     7130    1           RETURN;
     2452     7131        /**/
     2453     7132    1   VPD$FINISH_NLIST: ENTRY(IN_NAM,OUT_NAM);
     2454     7133        /**/
     2455     7134        /*  First finish off continued lines written with extend VFC. */
     2456     7135        /**/
     2457     7136    1           IF OUT_COL > 0
     2458     7137    1            THEN                           /* A name list dangles                */
     2459     7138    2            DO;
     2460     7139    2               OUT_COL = 0;
     2461     7140    2               FPT_WRITE_ME.V.DVBYTE.VFC# = %YES#;
     2462     7141    2               FPT_WRITE_ME.BUF_ = VECTOR(CRLF_VFC);
     2463     7142    3               CALL M$WRITE(FPT_WRITE_ME) WHENALTRETURN DO; END;
     2464     7143    2               END;
     2465     7144        /**/
     2466     7145        /*  Finish off partial LIST line buffered up for later extension */
PL6.E3A0      #026=VPD$OUT_NAMES File=VPD$UTIL.:E05TSI                           WED 07/30/97 07:52 Page:627
     2467     7146        /**/
     2468     7147    1           IF CMD_MASK & '0006'O           /* LISTs                              */
     2469     7148    1             AND LIST_IDX > 0              /* AND partial LIST line exists       */
     2470     7149    1            THEN                           /* We have to finish a dangling LIST  */
     2471     7150    2            DO;
     2472     7151    2               I = LIST_IDX;
     2473     7152    2               LIST_IDX = -1;              /* Don't come through here again      */
     2474     7153    2               CALL VPG$WRITE_OUT(I,-1);
     2475     7154    2               END;
     2476     7155    1           RETURN;
     2477     7156    1   END VPD$OUT_NAMES;
     2478     7157        %EOD;

PL6.E3A0      #026=VPD$OUT_NAMES File=VPD$UTIL.:E05TSI                           WED 07/30/97 07:52 Page:628
--  Include file information  --

   F$DCB.:E05TOU  cannot be made into a system file and is referenced.
   B_MICROPS_C.:E05TOU  is referenced.
   XU_MACRO_C.:E05TOU  is referenced.
   VP_MACRO_C.:E05TOU  is referenced.
   XS_MACRO_C.:E05TOU  is referenced.
   VP_PERR_C.:E05TOU  is referenced.
   CP_6_SUBS.:E05TOU  is referenced.
   CP_6.:E05TOU  cannot be made into a system file and is referenced.
   VP_DATA_R.:E05TOU  cannot be made into a system file and is referenced.
   B$JIT_C.:E05TOU  was found in the system file and is never referenced.
   CP_6_C.:E05TOU  was found in the system file and is referenced.
      No diagnostics issued in procedure VPD$OUT_NAMES.

   Procedure VPD$OUT_NAMES requires 195 words for executable code.
   Procedure VPD$OUT_NAMES requires 34 words of local(AUTO) storage.

PL6.E3A0      #026=VPD$OUT_NAMES File=VPD$UTIL.:E05TSI                           WED 07/30/97 07:52 Page:629

 Object Unit name= VPD$OUT_NAMES                              File name= VPD$UTIL.:E05TOU
 UTS= JUL 30 '97 07:52:47.52 WED                              Compiler= PL-6/E31         Sev=      00
 SharedLib= :SHARED_SYSTEM                                    Alt SharedLib=


    ****  Control sections  ****

 Sect   Type Bound  Init  Size OctSiz  Section name(segment info)
    0   DCB   even  none     0      0  M$UC
    1   DCB   even  none     0      0  M$EI
    2   DCB   even  none     0      0  M$EO
    3   DCB   even  none     0      0  M$EO1
    4   DCB   even  none     0      0  M$ME
    5   DCB   even  none     0      0  M$SI
    6   DCB   even  none     0      0  M$READFILE
    7   DCB   even  none     0      0  M$DO
    8   DCB   even  none     0      0  M$STD1
    9   DCB   even  none     0      0  M$SORT1
   10  RoData even  UTS      7      7  VPD$OUT_NAMES
   11   Proc  even  none   195    303  VPD$OUT_NAMES
   12  RoData even  none     8     10  VPD$OUT_NAMES

    ****  Entry defs  ****

                              Check   Calling
                             calling  sequence
  Sect OctLoc Primary Altret sequence   type   Parms  Name
    11      0   yes            yes      Std        2  VPD$OUT_NAMES
    11    241                  yes      Std        2  VPD$FINISH_NLIST
PL6.E3A0      #026=VPD$OUT_NAMES File=VPD$UTIL.:E05TSI                           WED 07/30/97 07:52 Page:630

  ****  Entry refs  ****

         Check        Calling
        calling       sequence
Altret sequence SRef   type   Args  Name
         yes           Std       2 VPG$WRITE_OUT
                       nStd      0 X66_AUTO_2
                       Std       0 B_CONSPOOL_D
                       nStd      0 X66_ARET

  ****  Data refs  ****

  Flags:  r = read only, s = secondary
Flgs Name                             Flgs Name                             Flgs Name
     M$UC                                  LIST_IDX                              OUT_COL
     BREAK_LOC                             BREAK_MESSAGE_REPORTER                CMD_MASK
     ME_WIDTH                              SPEC_BUF                              IN_RES
     M$EI                                  M$EO                                  M$EO1
     M$ME                                  M$SI                                  M$READFILE
     M$DO                                  M$STD1                                M$SORT1
     FPT_WRITE_ME                          B_VECTNIL

  ****  Segment refs  ****

  Flags:  r = read only, s = secondary
Flgs Name                             Flgs Name                             Flgs Name
     ISSID
PL6.E3A0      #026=VPD$OUT_NAMES File=VPD$UTIL.:E05TSI                           WED 07/30/97 07:52 Page:631


     2356        1        /*T***********************************************************/
     2357        2        /*T*                                                         */
     2358        3        /*T* Copyright (c) Bull HN Information Systems Inc., 1997    */
     2359        4        /*T*                                                         */
     2360        5        /*T***********************************************************/
     2361        6        VPD$OUT_NAMES: PROC(IN_NAM,OUT_NAM);

      6 11 000000   000000 700200 xent  VPD$OUT_NAM* TSX0  ! X66_AUTO_2
        11 000001   000042 000002                    ZERO    34,2

     2362        7        /*D* NAME: VPD$OUT_NAMES
     2363        8             CALL: CALL VPD$OUT_NAMES(IN_NAM,OUT_NAM);
     2364        9                    where IN_NAM and OUT_NAM are the textc names of the filenames
     2365       10                    to report.
     2366       11             DESCRIPTION: If OUT_NAM.LEN>0 and OUT_NAM~=IN_NAM then
     2367       12                            IN_NAM -> OUT_NAM      is output otherwise
     2368       13                            IN_NAM                 is output.
     2369       14        */
     2370       15        /**/
     2371       16        /*  PARAMETERS  */
     2372       17        /**/
     2373       18    1   DCL 1 IN_NAM,
     2374       19    1         2 LEN UBIN BYTE UNAL,
     2375       20    1         2 STRING CHAR(IN_NAM.LEN);
     2376       21    1   DCL 1 OUT_NAM,
     2377       22    1         2 LEN UBIN BYTE UNAL,
     2378       23    1         2 STRING CHAR(OUT_NAM.LEN);
     2379       24        /**/
     2380       25        /*  INCLUDE FILES  */
     2381       26        /**/
     2382       27        %INCLUDE VP_DATA_R;
     2383     7014        %INCLUDE F$DCB;
     2384     7063        /**/
     2385     7064        /*  LOCAL AUTO  */
     2386     7065        /**/
     2387     7066    1   DCL BLNKS UBIN WORD;
PL6.E3A0      #026=VPD$OUT_NAMES File=VPD$UTIL.:E05TSI                           WED 07/30/97 07:52 Page:632
     2388     7067    1   DCL SEP$ PTR;
     2389     7068    1   DCL OUT_NAME$ PTR;
     2390     7069    1   DCL 1 NAME_BUF,
     2391     7070    1         2 LEN UBIN BYTE UNAL,
     2392     7071    1         2 VFC CHAR(1),
     2393     7072    1         2 NAME CHAR(72);
     2394     7073    1   DCL 1 NAME_BUF1 REDEF NAME_BUF,
     2395     7074    1         2 LEN UBIN BYTE UNAL,
     2396     7075    1         2 NAME CHAR(73);
     2397     7076    1   DCL I SBIN WORD;
     2398     7077        /**/
     2399     7078        /*  ENTRY DCLS  */
     2400     7079        /**/
     2401     7080    1   DCL VPG$WRITE_OUT ENTRY(2);
     2402     7081        /**/
     2403     7082        /*  CONSTANT  */
     2404     7083        /**/
     2405     7084    1   DCL CRLF_VFC CHAR(1) CONSTANT INIT('a');
     2406     7085    1   DCL BLANKS_12 CHAR(12) CONSTANT INIT(' ');
     2407     7086    1   DCL ZERO_BYTE UBIN BYTE CONSTANT INIT(0);
     2408     7087    1   DCL 1 SEP CONSTANT,
     2409     7088    1         2 * UBIN BYTE UNAL INIT(4),
     2410     7089    1         2 * CHAR(4) INIT(' -> ');
     2411     7090    1   DCL 1 TEXT$C BASED,
     2412     7091    1         2 LEN UBIN BYTE UNAL,
     2413     7092    1         2 STRING CHAR(TEXT$C.LEN);
     2414     7093    1           IF OUT_NAM.LEN=0 OR  OUT_NAM=IN_NAM

   7093 11 000002   200004 470500                    LDP0    @OUT_NAM,,AUTO
        11 000003   000100 101500                    MRL     fill='000'O
        11 000004   000000 000001                    ADSC9   0,,PR0                   cn=0,n=1
        11 000005   200034 000004                    ADSC9   I+1,,AUTO                cn=0,n=4
        11 000006   200034 236100                    LDQ     I+1,,AUTO
        11 000007   000000 116003                    CMPQ    0,DU
        11 000010   000030 600000 11                 TZE     s:7095
        11 000011   000100 101500                    MRL     fill='000'O
        11 000012   000000 000001                    ADSC9   0,,PR0                   cn=0,n=1
PL6.E3A0      #026=VPD$OUT_NAMES File=VPD$UTIL.:E05TSI                           WED 07/30/97 07:52 Page:633
        11 000013   200035 000002                    ADSC9   I+2,,AUTO                cn=0,n=2
        11 000014   200035 220100                    LDX0    I+2,,AUTO
        11 000015   000001 621010                    EAX1    1,X0
        11 000016   200003 471500                    LDP1    @IN_NAM,,AUTO
        11 000017   000100 101500                    MRL     fill='000'O
        11 000020   100000 000001                    ADSC9   0,,PR1                   cn=0,n=1
        11 000021   200036 000002                    ADSC9   I+3,,AUTO                cn=0,n=2
        11 000022   200036 222100                    LDX2    I+3,,AUTO
        11 000023   000001 623012                    EAX3    1,X2
        11 000024   000140 106540                    CMPC    fill='000'O
        11 000025   000000 000011                    ADSC9   0,,PR0                   cn=0,n=*X1
        11 000026   100000 000013                    ADSC9   0,,PR1                   cn=0,n=*X3
        11 000027   000034 601000 11                 TNZ     s:7100

     2415     7094    2            THEN DO;

     2416     7095    2               SEP$ = ADDR(ZERO_BYTE);

   7095 11 000030   000000 236000 12                 LDQ     0
        11 000031   200006 756100                    STQ     SEP$,,AUTO

     2417     7096    2               OUT_NAME$ = SEP$;

   7096 11 000032   200007 756100                    STQ     OUT_NAME$,,AUTO

     2418     7097    2               END;

   7097 11 000033   000040 710000 11                 TRA     s:7103

     2419     7098    1            ELSE
     2420     7099    2            DO;

     2421     7100    2               SEP$ = ADDR(SEP);

   7100 11 000034   000001 236000 12                 LDQ     1
        11 000035   200006 756100                    STQ     SEP$,,AUTO

PL6.E3A0      #026=VPD$OUT_NAMES File=VPD$UTIL.:E05TSI                           WED 07/30/97 07:52 Page:634
     2422     7101    2               OUT_NAME$ = ADDR(OUT_NAM);

   7101 11 000036   200004 236100                    LDQ     @OUT_NAM,,AUTO
        11 000037   200007 756100                    STQ     OUT_NAME$,,AUTO

     2423     7102    2               END;

     2424     7103    1           IF OUT_COL=0

   7103 11 000040   000000 235000 xsym               LDA     OUT_COL
        11 000041   000044 601000 11                 TNZ     s:7107

     2425     7104    1            THEN
     2426     7105    1              BLNKS = 0;

   7105 11 000042   200005 450100                    STZ     BLNKS,,AUTO
        11 000043   000051 710000 11                 TRA     s:7108

     2427     7106    1            ELSE
     2428     7107    1              BLNKS = 12 - MOD(OUT_COL,12);

   7107 11 000044   000000 236000 xsym               LDQ     OUT_COL
        11 000045   000014 506007                    DIV     12,DL
        11 000046   000027 675000 xsym               ERA     B_VECTNIL+23
        11 000047   000015 035007                    ADLA    13,DL
        11 000050   200005 755100                    STA     BLNKS,,AUTO

     2429     7108    1           IF IN_NAM.LEN + OUT_COL + BLNKS

   7108 11 000051   200003 471500                    LDP1    @IN_NAM,,AUTO
        11 000052   000100 101500                    MRL     fill='000'O
        11 000053   100000 000001                    ADSC9   0,,PR1                   cn=0,n=1
        11 000054   200034 000004                    ADSC9   I+1,,AUTO                cn=0,n=4
        11 000055   200034 236100                    LDQ     I+1,,AUTO
        11 000056   000000 036000 xsym               ADLQ    OUT_COL
        11 000057   200005 036100                    ADLQ    BLNKS,,AUTO
        11 000060   200006 473500                    LDP3    SEP$,,AUTO
PL6.E3A0      #026=VPD$OUT_NAMES File=VPD$UTIL.:E05TSI                           WED 07/30/97 07:52 Page:635
        11 000061   000100 101500                    MRL     fill='000'O
        11 000062   300000 000001                    ADSC9   0,,PR3                   cn=0,n=1
        11 000063   200035 000004                    ADSC9   I+2,,AUTO                cn=0,n=4
        11 000064   200035 036100                    ADLQ    I+2,,AUTO
        11 000065   200007 474500                    LDP4    OUT_NAME$,,AUTO
        11 000066   000100 101500                    MRL     fill='000'O
        11 000067   400000 000001                    ADSC9   0,,PR4                   cn=0,n=1
        11 000070   200036 000004                    ADSC9   I+3,,AUTO                cn=0,n=4
        11 000071   200036 036100                    ADLQ    I+3,,AUTO
        11 000072   000105 604000 11                 TMI     s:7118
        11 000073   000000 116000 xsym               CMPQ    ME_WIDTH
        11 000074   000105 602000 11                 TNC     s:7118
        11 000075   000105 600000 11                 TZE     s:7118
        11 000076   000000 235000 xsym               LDA     OUT_COL
        11 000077   000105 604400 11                 TMOZ    s:7118

     2430     7109    1             + SEP$->TEXT$C.LEN + OUT_NAME$->TEXT$C.LEN
     2431     7110    1             >ME_WIDTH AND OUT_COL>0
     2432     7111    1            THEN
     2433     7112    2            DO;                            /* End of the line, start a new one   */

     2434     7113    2               BLNKS = 0;

   7113 11 000100   200005 450100                    STZ     BLNKS,,AUTO

     2435     7114    2               OUT_COL = 0;

   7114 11 000101   000000 450000 xsym               STZ     OUT_COL

     2436     7115    2               NAME_BUF.VFC = 'a';

   7115 11 000102   000141 236003                    LDQ     97,DU
        11 000103   200010 552120                    STBQ    NAME_BUF,'20'O,AUTO

     2437     7116    2               END;

   7116 11 000104   000107 710000 11                 TRA     s:7119
PL6.E3A0      #026=VPD$OUT_NAMES File=VPD$UTIL.:E05TSI                           WED 07/30/97 07:52 Page:636

     2438     7117    1            ELSE
     2439     7118    1              NAME_BUF.VFC = '@';

   7118 11 000105   000100 236003                    LDQ     64,DU
        11 000106   200010 552120                    STBQ    NAME_BUF,'20'O,AUTO

     2440     7119    1           CALL CONCAT(NAME_BUF.NAME,

   7119 11 000107   000100 101500                    MRL     fill='000'O
        11 000110   100000 000001                    ADSC9   0,,PR1                   cn=0,n=1
        11 000111   200034 000002                    ADSC9   I+1,,AUTO                cn=0,n=2
        11 000112   200034 220100                    LDX0    I+1,,AUTO
        11 000113   000100 101500                    MRL     fill='000'O
        11 000114   300000 000001                    ADSC9   0,,PR3                   cn=0,n=1
        11 000115   200035 000002                    ADSC9   I+2,,AUTO                cn=0,n=2
        11 000116   200035 221100                    LDX1    I+2,,AUTO
        11 000117   000100 101500                    MRL     fill='000'O
        11 000120   400000 000001                    ADSC9   0,,PR4                   cn=0,n=1
        11 000121   200036 000002                    ADSC9   I+3,,AUTO                cn=0,n=2
        11 000122   200036 222100                    LDX2    I+3,,AUTO
        11 000123   200005 723100                    LXL3    BLNKS,,AUTO
        11 000124   040100 100440                    MLR     fill='040'O
        11 000125   000001 000013 10                 ADSC9   BLANKS_12                cn=0,n=*X3
        11 000126   200010 400110                    ADSC9   NAME_BUF,,AUTO           cn=2,n=72
        11 000127   200005 236100                    LDQ     BLNKS,,AUTO
        11 000130   000110 116007                    CMPQ    72,DL
        11 000131   000176 603000 11                 TRC     s:7124
        11 000132   777667 624006                    EAX4    -73,QL
        11 000133   777777 664003                    ERX4    -1,DU
        11 000134   040146 100540                    MLR     fill='040'O
        11 000135   100000 200010                    ADSC9   0,,PR1                   cn=1,n=*X0
        11 000136   200010 400014                    ADSC9   NAME_BUF,Q,AUTO          cn=2,n=*X4
        11 000137   000000 636010                    EAQ     0,X0
        11 000140   000022 772000                    QRL     18
        11 000141   200005 036100                    ADLQ    BLNKS,,AUTO
        11 000142   000110 116007                    CMPQ    72,DL
PL6.E3A0      #026=VPD$OUT_NAMES File=VPD$UTIL.:E05TSI                           WED 07/30/97 07:52 Page:637
        11 000143   000176 603000 11                 TRC     s:7124
        11 000144   200037 756100                    STQ     I+4,,AUTO
        11 000145   000000 636010                    EAQ     0,X0
        11 000146   000022 772000                    QRL     18
        11 000147   200005 036100                    ADLQ    BLNKS,,AUTO
        11 000150   200037 725100                    LXL5    I+4,,AUTO
        11 000151   777667 625015                    EAX5    -73,X5
        11 000152   777777 665003                    ERX5    -1,DU
        11 000153   040146 100540                    MLR     fill='040'O
        11 000154   300000 200011                    ADSC9   0,,PR3                   cn=1,n=*X1
        11 000155   200010 400015                    ADSC9   NAME_BUF,Q,AUTO          cn=2,n=*X5
        11 000156   200040 756100                    STQ     I+5,,AUTO
        11 000157   000000 636011                    EAQ     0,X1
        11 000160   000022 772000                    QRL     18
        11 000161   200037 036100                    ADLQ    I+4,,AUTO
        11 000162   000110 116007                    CMPQ    72,DL
        11 000163   000176 603000 11                 TRC     s:7124
        11 000164   200041 756100                    STQ     I+6,,AUTO
        11 000165   000000 636011                    EAQ     0,X1
        11 000166   000022 772000                    QRL     18
        11 000167   200040 036100                    ADLQ    I+5,,AUTO
        11 000170   200041 726100                    LXL6    I+6,,AUTO
        11 000171   777667 626016                    EAX6    -73,X6
        11 000172   777777 666003                    ERX6    -1,DU
        11 000173   040146 100540                    MLR     fill='040'O
        11 000174   400000 200012                    ADSC9   0,,PR4                   cn=1,n=*X2
        11 000175   200010 400016                    ADSC9   NAME_BUF,Q,AUTO          cn=2,n=*X6

     2441     7120    1             SUBSTR(BLANKS_12,0,BLNKS),
     2442     7121    1             IN_NAM.STRING,
     2443     7122    1             SEP$->TEXT$C.STRING,
     2444     7123    1             OUT_NAME$->TEXT$C.STRING);
     2445     7124    1           NAME_BUF.LEN = 1 + BLNKS + IN_NAM.LEN

   7124 11 000176   000100 101500                    MRL     fill='000'O
        11 000177   100000 000001                    ADSC9   0,,PR1                   cn=0,n=1
        11 000200   200034 000004                    ADSC9   I+1,,AUTO                cn=0,n=4
PL6.E3A0      #026=VPD$OUT_NAMES File=VPD$UTIL.:E05TSI                           WED 07/30/97 07:52 Page:638
        11 000201   200034 236100                    LDQ     I+1,,AUTO
        11 000202   200005 036100                    ADLQ    BLNKS,,AUTO
        11 000203   000100 101500                    MRL     fill='000'O
        11 000204   300000 000001                    ADSC9   0,,PR3                   cn=0,n=1
        11 000205   200035 000004                    ADSC9   I+2,,AUTO                cn=0,n=4
        11 000206   200035 036100                    ADLQ    I+2,,AUTO
        11 000207   000100 101500                    MRL     fill='000'O
        11 000210   400000 000001                    ADSC9   0,,PR4                   cn=0,n=1
        11 000211   200036 000004                    ADSC9   I+3,,AUTO                cn=0,n=4
        11 000212   200036 036100                    ADLQ    I+3,,AUTO
        11 000213   000001 036007                    ADLQ    1,DL
        11 000214   000033 736000                    QLS     27
        11 000215   200010 552140                    STBQ    NAME_BUF,'40'O,AUTO

     2446     7125    1             + SEP$->TEXT$C.LEN + OUT_NAME$->TEXT$C.LEN;
     2447     7126    1           OUT_COL = OUT_COL + NAME_BUF.LEN - 1;

   7126 11 000216   200010 236100                    LDQ     NAME_BUF,,AUTO
        11 000217   000033 772000                    QRL     27
        11 000220   000000 036000 xsym               ADLQ    OUT_COL
        11 000221   000001 136007                    SBLQ    1,DL
        11 000222   000000 756000 xsym               STQ     OUT_COL

     2448     7127    1           FPT_WRITE_ME.BUF_ = VECTOR(ADDR(NAME_BUF)->TEXT$C.STRING);

   7127 11 000223   200010 236100                    LDQ     NAME_BUF,,AUTO
        11 000224   000033 772000                    QRL     27
        11 000225   000064 737000                    LLS     52
        11 000226   000140 135007                    SBLA    96,DL
        11 000227   200034 452500                    STP2    I+1,,AUTO
        11 000230   200034 236100                    LDQ     I+1,,AUTO
        11 000231   000002 036000 12                 ADLQ    2
        11 000232   000004 757000 xsym               STAQ    FPT_WRITE_ME+4

     2449     7128    1           FPT_WRITE_ME.V.DVBYTE.VFC# = %YES#;

   7128 11 000233   100000 236003                    LDQ     32768,DU
PL6.E3A0      #026=VPD$OUT_NAMES File=VPD$UTIL.:E05TSI                           WED 07/30/97 07:52 Page:639
        11 000234   000013 256000 xsym               ORSQ    FPT_WRITE_ME+11

     2450     7129    1           CALL M$WRITE(FPT_WRITE_ME);

   7129 11 000235   000000 630400 xsym               EPPR0   FPT_WRITE_ME
        11 000236   040001 713400                    CLIMB   write
        11 000237   401400 401760                    pmme    nvectors=4

     2451     7130    1           RETURN;

   7130 11 000240   000000 702200 xent               TSX2  ! X66_ARET

     2452     7131        /**/
     2453     7132    1   VPD$FINISH_NLIST: ENTRY(IN_NAM,OUT_NAM);

   7132 11 000241   000000 700200 xent  VPD$FINISH_* TSX0  ! X66_AUTO_2
        11 000242   000042 000002                    ZERO    34,2

     2454     7133        /**/
     2455     7134        /*  First finish off continued lines written with extend VFC. */
     2456     7135        /**/
     2457     7136    1           IF OUT_COL > 0

   7136 11 000243   000000 235000 xsym               LDA     OUT_COL
        11 000244   000257 604400 11                 TMOZ    s:7147

     2458     7137    1            THEN                           /* A name list dangles                */
     2459     7138    2            DO;

     2460     7139    2               OUT_COL = 0;

   7139 11 000245   000000 450000 xsym               STZ     OUT_COL

     2461     7140    2               FPT_WRITE_ME.V.DVBYTE.VFC# = %YES#;

   7140 11 000246   100000 236003                    LDQ     32768,DU
        11 000247   000013 256000 xsym               ORSQ    FPT_WRITE_ME+11
PL6.E3A0      #026=VPD$OUT_NAMES File=VPD$UTIL.:E05TSI                           WED 07/30/97 07:52 Page:640

     2462     7141    2               FPT_WRITE_ME.BUF_ = VECTOR(CRLF_VFC);

   7141 11 000250   000004 237000 12                 LDAQ    4
        11 000251   000004 757000 xsym               STAQ    FPT_WRITE_ME+4

     2463     7142    3               CALL M$WRITE(FPT_WRITE_ME) WHENALTRETURN DO; END;

   7142 11 000252   000000 630400 xsym               EPPR0   FPT_WRITE_ME
        11 000253   440001 713400                    CLIMB   alt,write
        11 000254   401400 401760                    pmme    nvectors=4
        11 000255   000257 702000 11                 TSX2    s:7147
        11 000256   000257 710000 11                 TRA     s:7147

     2464     7143    2               END;

     2465     7144        /**/
     2466     7145        /*  Finish off partial LIST line buffered up for later extension */
     2467     7146        /**/
     2468     7147    1           IF CMD_MASK & '0006'O           /* LISTs                              */

   7147 11 000257   000100 100400                    MLR     fill='000'O
        11 000260   000000 000010 xsym               ADSC9   CMD_MASK                 cn=0,n=8
        11 000261   200034 000010                    ADSC9   I+1,,AUTO                cn=0,n=8
        11 000262   200034 237100                    LDAQ    I+1,,AUTO
        11 000263   000006 377000 12                 ANAQ    6
        11 000264   000302 600000 11                 TZE     s:7155
        11 000265   000000 235000 xsym               LDA     LIST_IDX
        11 000266   000302 604400 11                 TMOZ    s:7155

     2469     7148    1             AND LIST_IDX > 0              /* AND partial LIST line exists       */
     2470     7149    1            THEN                           /* We have to finish a dangling LIST  */
     2471     7150    2            DO;

     2472     7151    2               I = LIST_IDX;

   7151 11 000267   200033 755100                    STA     I,,AUTO
PL6.E3A0      #026=VPD$OUT_NAMES File=VPD$UTIL.:E05TSI                           WED 07/30/97 07:52 Page:641

     2473     7152    2               LIST_IDX = -1;              /* Don't come through here again      */

   7152 11 000270   000001 336007                    LCQ     1,DL
        11 000271   000000 756000 xsym               STQ     LIST_IDX

     2474     7153    2               CALL VPG$WRITE_OUT(I,-1);

   7153 11 000272   000003 236000 12                 LDQ     3
        11 000273   200035 756100                    STQ     I+2,,AUTO
        11 000274   200033 630500                    EPPR0   I,,AUTO
        11 000275   200034 450500                    STP0    I+1,,AUTO
        11 000276   200034 630500                    EPPR0   I+1,,AUTO
        11 000277   000020 631400 xsym               EPPR1   B_VECTNIL+16
        11 000300   000000 701000 xent               TSX1    VPG$WRITE_OUT
        11 000301   000000 011000                    NOP     0

     2475     7154    2               END;

     2476     7155    1           RETURN;

   7155 11 000302   000000 702200 xent               TSX2  ! X66_ARET
     2477     7156    1   END VPD$OUT_NAMES;
     2478     7157        %EOD;

PL6.E3A0      #026=VPD$OUT_NAMES File=VPD$UTIL.:E05TSI                           WED 07/30/97 07:52 Page:642
--  Include file information  --

   F$DCB.:E05TOU  cannot be made into a system file and is referenced.
   B_MICROPS_C.:E05TOU  is referenced.
   XU_MACRO_C.:E05TOU  is referenced.
   VP_MACRO_C.:E05TOU  is referenced.
   XS_MACRO_C.:E05TOU  is referenced.
   VP_PERR_C.:E05TOU  is referenced.
   CP_6_SUBS.:E05TOU  is referenced.
   CP_6.:E05TOU  cannot be made into a system file and is referenced.
   VP_DATA_R.:E05TOU  cannot be made into a system file and is referenced.
   B$JIT_C.:E05TOU  was found in the system file and is never referenced.
   CP_6_C.:E05TOU  was found in the system file and is referenced.
      No diagnostics issued in procedure VPD$OUT_NAMES.
PL6.E3A0      #026=VPD$OUT_NAMES File=VPD$UTIL.:E05TSI                           WED 07/30/97 07:52 Page:643

 **** Variables and constants ****

  ****  Section 010 RoData VPD$OUT_NAMES

  ****  Scalars and arrays  ****
OctLoc.c.b A Datatyp(siz) R M Lvl/name                 OctLoc.c.b A Datatyp(siz) R M Lvl/name

     1-0-0/c CHAR(12)    r     1 BLANKS_12                  0-0-0/c CHAR        r     1 CRLF_VFC
     5-0-0/c STRC(45)    r     1 SEP                        4-0-0/w UBIN(9)     r     1 ZERO_BYTE

  ****  Auto variables  ****

  ****  Scalars and arrays  ****
OctLoc.c.b A Datatyp(siz) R M Lvl/name                 OctLoc.c.b A Datatyp(siz) R M Lvl/name

     3-0-0/w PTR         r     1 @IN_NAM                    4-0-0/w PTR         r     1 @OUT_NAM
     5-0-0/w UBIN        r     1 BLNKS                     33-0-0/w SBIN        r     1 I
    *0-0-0/c ASTR(9)     r     1 IN_NAM                    10-0-0/c STRC(666)   r     1 NAME_BUF
    *0-0-0/c ASTR(9)     r     1 OUT_NAM                    7-0-0/w PTR         r     1 OUT_NAME$
     6-0-0/w PTR         r     1 SEP$

  ****  SYMREF variables  ****

  ****  Scalars and arrays  ****
OctLoc.c.b A Datatyp(siz) R M Lvl/name                 OctLoc.c.b A Datatyp(siz) R M Lvl/name

     0-0-0/w EPTR        r     1 BREAK_MESSAGE_REPORTER
     0-0-0/b BIT         r     1 CMD_MASK(0:71)
     0-0-0/d STRC(432)   r     1 FPT_WRITE_ME               0-0-0/w SBIN        r     1 LIST_IDX
     0-0-0/w UBIN        r     1 ME_WIDTH                   0-0-0/w SBIN        r     1 OUT_COL

  ****  BASED and DCB variables  ****

  ****  Scalars and arrays  ****
OctLoc.c.b A Datatyp(siz) R M Lvl/name                 OctLoc.c.b A Datatyp(siz) R M Lvl/name

     0-0-0/d ASTR(3528)  r     1 F$DCB                      0-0-0/c ASTR(9)     r     1 TEXT$C
PL6.E3A0      #026=VPD$OUT_NAMES File=VPD$UTIL.:E05TSI                           WED 07/30/97 07:52 Page:644


   Procedure VPD$OUT_NAMES requires 195 words for executable code.
   Procedure VPD$OUT_NAMES requires 34 words of local(AUTO) storage.
PL6.E3A0      #026=VPD$OUT_NAMES File=VPD$UTIL.:E05TSI                           WED 07/30/97 07:52 Page:645
          *** CROSS REFERENCE LISTING ***
**     DENOTES     IDENTIFIER DEFINITION
<<                 IDENTIFIER'S VALUE SET
>>                 IDENTIFIER'S VALUE USED
<>                 IDENTIFIER SET AND/OR USED
--                 IDENTIFIER REFERENCED
PL6.E3A0      #026=VPD$OUT_NAMES File=VPD$UTIL.:E05TSI                           WED 07/30/97 07:52 Page:646
          MINI XREF LISTING

BLANKS_12
      7085**DCL      7119>>CALLBLT
BLNKS
      7066**DCL      7105<<ASSIGN   7107<<ASSIGN   7108>>IF       7113<<ASSIGN   7119>>CALLBLT  7124>>ASSIGN
BREAK_LOC
      5234**DCL      5234--REDEF
CMD_MASK
      5236**DCL      7147>>IF
CRLF_VFC
      7084**DCL      7141--ASSIGN
DEF_ICB.FID.STRING
      5832**DCL      5833--REDEF
DEV_ICB.FID.STRING
      5718**DCL      5719--REDEF
EI_KEY.KEY
      5930**DCL      5930--REDEF    5930--REDEF    5930--REDEF
EO_OCB.TYPE
      5430**DCL      5431--REDEF
F$DCB.ACTPOS
      7040**DCL      7040--REDEF
F$DCB.ARS
      7015**DCL      7015--REDEF
F$DCB.ATTR
      7033**DCL      7034--REDEF
F$DCB.BORROW
      7048**DCL      7048--REDEF    7048--REDEF    7048--REDEF
F$DCB.DCBNAME.L
      7062**DCL      7062--IMP-SIZ
F$DCB.EOMCHAR
      7019**DCL      7019--REDEF
F$DCB.FLDID
      7043**DCL      7043--REDEF
PL6.E3A0      #026=VPD$OUT_NAMES File=VPD$UTIL.:E05TSI                           WED 07/30/97 07:52 Page:647
F$DCB.FORM$
      7037**DCL      7037--REDEF
F$DCB.FSECT
      7053**DCL      7053--REDEF
F$DCB.FSN
      7030**DCL      7030--REDEF    7030--REDEF    7031--REDEF
F$DCB.HEADER$
      7036**DCL      7036--REDEF
F$DCB.IXTNSIZE
      7034**DCL      7034--REDEF
F$DCB.LASTSTA$
      7024**DCL      7024--REDEF
F$DCB.LVL
      7049**DCL      7049--REDEF
F$DCB.NAME.C
      7024**DCL      7024--REDEF
F$DCB.NOEOF
      7045**DCL      7045--REDEF
F$DCB.NRECS
      7035**DCL      7035--REDEF
F$DCB.NRECX
      7054**DCL      7054--REDEF
F$DCB.OHDR
      7046**DCL      7046--REDEF
F$DCB.ORG
      7029**DCL      7029--REDEF
F$DCB.PRECNO
      7052**DCL      7052--REDEF
F$DCB.RCSZ
      7057**DCL      7057--REDEF
F$DCB.RES
      7025**DCL      7025--REDEF
F$DCB.SETX
      7037**DCL      7037--REDEF
F$DCB.TAB$
      7036**DCL      7037--REDEF
PL6.E3A0      #026=VPD$OUT_NAMES File=VPD$UTIL.:E05TSI                           WED 07/30/97 07:52 Page:648
F$DCB.TDA
      7051**DCL      7051--REDEF
F$DCB.WSN
      7026**DCL      7026--REDEF
FPT_CLOSE_EI.SN_
      6771**DCL      6771--REDEF
FPT_CLOSE_EI.UTL_
      6772**DCL      6772--REDEF
FPT_CLOSE_EI.V.EXPIRE#
      6786**DCL      6786--REDEF
FPT_CLOSE_EI.V.TYPE#
      6784**DCL      6784--REDEF
FPT_CLOSE_EI.V.XTNSIZE#
      6781**DCL      6781--REDEF    6783--REDEF
FPT_CLOSE_PTL.SN_
      6897**DCL      6897--REDEF
FPT_CLOSE_PTL.UTL_
      6898**DCL      6898--REDEF
FPT_CLOSE_PTL.V.EXPIRE#
      6912**DCL      6912--REDEF
FPT_CLOSE_PTL.V.TYPE#
      6910**DCL      6910--REDEF
FPT_CLOSE_PTL.V.XTNSIZE#
      6907**DCL      6907--REDEF    6909--REDEF
FPT_CLOSE_READ.SN_
      6813**DCL      6813--REDEF
FPT_CLOSE_READ.UTL_
      6814**DCL      6814--REDEF
FPT_CLOSE_READ.V.EXPIRE#
      6828**DCL      6828--REDEF
FPT_CLOSE_READ.V.TYPE#
      6826**DCL      6826--REDEF
FPT_CLOSE_READ.V.XTNSIZE#
      6823**DCL      6823--REDEF    6825--REDEF
FPT_CLOSE_SI.SN_
      6981**DCL      6981--REDEF
PL6.E3A0      #026=VPD$OUT_NAMES File=VPD$UTIL.:E05TSI                           WED 07/30/97 07:52 Page:649
FPT_CLOSE_SI.UTL_
      6982**DCL      6982--REDEF
FPT_CLOSE_SI.V.EXPIRE#
      6996**DCL      6996--REDEF
FPT_CLOSE_SI.V.TYPE#
      6994**DCL      6994--REDEF
FPT_CLOSE_SI.V.XTNSIZE#
      6991**DCL      6991--REDEF    6993--REDEF
FPT_CLOSE_STD.SN_
      6939**DCL      6939--REDEF
FPT_CLOSE_STD.UTL_
      6940**DCL      6940--REDEF
FPT_CLOSE_STD.V.EXPIRE#
      6954**DCL      6954--REDEF
FPT_CLOSE_STD.V.TYPE#
      6952**DCL      6952--REDEF
FPT_CLOSE_STD.V.XTNSIZE#
      6949**DCL      6949--REDEF    6951--REDEF
FPT_CLSEI_FT.SN_
      6855**DCL      6855--REDEF
FPT_CLSEI_FT.UTL_
      6856**DCL      6856--REDEF
FPT_CLSEI_FT.V.EXPIRE#
      6870**DCL      6870--REDEF
FPT_CLSEI_FT.V.TYPE#
      6868**DCL      6868--REDEF
FPT_CLSEI_FT.V.XTNSIZE#
      6865**DCL      6865--REDEF    6867--REDEF
FPT_OPEN_EI.ACSVEH_
      6426**DCL      6427--REDEF
FPT_OPEN_EI.ALTKEYS_
      6432**DCL      6433--REDEF    6433--REDEF
FPT_OPEN_EI.HDR_
      6431**DCL      6432--REDEF
FPT_OPEN_EI.TAB_
      6430**DCL      6431--REDEF
PL6.E3A0      #026=VPD$OUT_NAMES File=VPD$UTIL.:E05TSI                           WED 07/30/97 07:52 Page:650
FPT_OPEN_EI.UHL_
      6424**DCL      6425--REDEF    6425--REDEF
FPT_OPEN_EI.V.FSN#
      6464**DCL      6464--REDEF    6464--REDEF
FPT_OPEN_EI.WSN_
      6430**DCL      6430--REDEF
FPT_OPEN_EI_SAVE.ACSVEH_
      6535**DCL      6536--REDEF
FPT_OPEN_EI_SAVE.ALTKEYS_
      6541**DCL      6542--REDEF    6542--REDEF
FPT_OPEN_EI_SAVE.HDR_
      6540**DCL      6541--REDEF
FPT_OPEN_EI_SAVE.TAB_
      6539**DCL      6540--REDEF
FPT_OPEN_EI_SAVE.UHL_
      6533**DCL      6534--REDEF    6534--REDEF
FPT_OPEN_EI_SAVE.V.FSN#
      6573**DCL      6573--REDEF    6573--REDEF
FPT_OPEN_EI_SAVE.WSN_
      6539**DCL      6539--REDEF
FPT_OPEN_OUT.ACSVEH_
      6317**DCL      6318--REDEF
FPT_OPEN_OUT.ALTKEYS_
      6323**DCL      6324--REDEF    6324--REDEF
FPT_OPEN_OUT.HDR_
      6322**DCL      6323--REDEF
FPT_OPEN_OUT.TAB_
      6321**DCL      6322--REDEF
FPT_OPEN_OUT.UHL_
      6315**DCL      6316--REDEF    6316--REDEF
FPT_OPEN_OUT.V.FSN#
      6355**DCL      6355--REDEF    6355--REDEF
FPT_OPEN_OUT.WSN_
      6321**DCL      6321--REDEF
FPT_OPEN_OUT_SAVE.ACSVEH_
      6208**DCL      6209--REDEF
PL6.E3A0      #026=VPD$OUT_NAMES File=VPD$UTIL.:E05TSI                           WED 07/30/97 07:52 Page:651
FPT_OPEN_OUT_SAVE.ALTKEYS_
      6214**DCL      6215--REDEF    6215--REDEF
FPT_OPEN_OUT_SAVE.HDR_
      6213**DCL      6214--REDEF
FPT_OPEN_OUT_SAVE.TAB_
      6212**DCL      6213--REDEF
FPT_OPEN_OUT_SAVE.UHL_
      6206**DCL      6207--REDEF    6207--REDEF
FPT_OPEN_OUT_SAVE.V.FSN#
      6246**DCL      6246--REDEF    6246--REDEF
FPT_OPEN_OUT_SAVE.WSN_
      6212**DCL      6212--REDEF
FPT_READ_STD.STATION_
      6636**DCL      6637--REDEF
FPT_READ_STD.V.DVBYTE.REREAD#
      6648**DCL      6648--REDEF
FPT_READ_STD.V.INDX#
      6646**DCL      6646--REDEF
FPT_READ_UC.STATION_
      6597**DCL      6598--REDEF
FPT_READ_UC.V.DVBYTE.REREAD#
      6609**DCL      6609--REDEF
FPT_READ_UC.V.INDX#
      6607**DCL      6607--REDEF
FPT_WRITE_ME
      6703**DCL      7129<>CALL     7142<>CALL
FPT_WRITE_ME.BUF_
      6703**DCL      7127<<ASSIGN   7141<<ASSIGN
FPT_WRITE_ME.STATION_
      6705**DCL      6705--REDEF
FPT_WRITE_ME.V.DVBYTE.VFC#
      6712**DCL      6712--REDEF    7128<<ASSIGN   7140<<ASSIGN
FPT_WRITE_OUT.STATION_
      6736**DCL      6736--REDEF
FPT_WRITE_OUT.V.DVBYTE.VFC#
      6743**DCL      6743--REDEF
PL6.E3A0      #026=VPD$OUT_NAMES File=VPD$UTIL.:E05TSI                           WED 07/30/97 07:52 Page:652
FPT_WRITE_UC.STATION_
      6674**DCL      6674--REDEF
FPT_WRITE_UC.V.DVBYTE.VFC#
      6681**DCL      6681--REDEF
FROM_SN.SN
      5580**DCL      5581--REDEF
GETCMD.OUT$
      4787**DCL      4793--REDEF
I
      7076**DCL      7151<<ASSIGN   7153<>CALL
ICB.FID.STRING
      5604**DCL      5605--REDEF
IFSFA_PARAM.EOMCHAR#
      5959**DCL      5960--REDEF
IFSFA_PARAM.SIG1
      5953**DCL      5953--REDEF
IFSFA_PARAM.SIG2
      5953**DCL      5954--REDEF
IN_NAM
        18**DCL         6--PROC     7093>>IF       7132--ENTRY
IN_NAM.LEN
        19**DCL        20--IMP-SIZ  7093>>IF       7108>>IF       7119>>CALLBLT  7124>>ASSIGN
IN_NAM.STRING
        20**DCL      7119>>CALLBLT
IN_RES
      5526**DCL      5526--REDEF
IN_SN.SN
      5542**DCL      5543--REDEF
LIST_IDX
      5231**DCL      7147>>IF       7151>>ASSIGN   7152<<ASSIGN
M$WRITE
        45**DCL-ENT  7129--CALL     7142--CALL
ME_WIDTH
      5236**DCL      7108>>IF
NAME_BUF
      7069**DCL      7073--REDEF    7127--ASSIGN   7127--ASSIGN
PL6.E3A0      #026=VPD$OUT_NAMES File=VPD$UTIL.:E05TSI                           WED 07/30/97 07:52 Page:653
NAME_BUF.LEN
      7070**DCL      7124<<ASSIGN   7126>>ASSIGN
NAME_BUF.NAME
      7072**DCL      7119<<CALLBLT
NAME_BUF.VFC
      7071**DCL      7115<<ASSIGN   7118<<ASSIGN
OCB.TYPE
      5288**DCL      5289--REDEF
OFSFA_PARAM.EOMCHAR#
      5989**DCL      5990--REDEF
OFSFA_PARAM.SIG1
      5983**DCL      5983--REDEF
OFSFA_PARAM.SIG2
      5983**DCL      5984--REDEF
OUT_COL
      5232**DCL      7103>>IF       7107>>ASSIGN   7108>>IF       7108>>IF       7114<<ASSIGN   7126<<ASSIGN
      7126>>ASSIGN   7136>>IF       7139<<ASSIGN
OUT_NAM
        21**DCL         6--PROC     7093>>IF       7101--ASSIGN   7132--ENTRY
OUT_NAM.LEN
        22**DCL        23--IMP-SIZ  7093>>IF       7093>>IF
OUT_NAME$
      7068**DCL      7096<<ASSIGN   7101<<ASSIGN   7108>>IF       7119>>CALLBLT  7119>>CALLBLT  7124>>ASSIGN
OUT_SN.SN
      5560**DCL      5561--REDEF
SEP
      7087**DCL      7100--ASSIGN
SEP$
      7067**DCL      7095<<ASSIGN   7096>>ASSIGN   7100<<ASSIGN   7108>>IF       7119>>CALLBLT  7119>>CALLBLT
      7124>>ASSIGN
SPEC_BUF
      5238**DCL      5238--REDEF
TEXT$C.LEN
      7091**DCL      7092--IMP-SIZ  7108>>IF       7108>>IF       7119>>CALLBLT  7119>>CALLBLT  7124>>ASSIGN
      7124>>ASSIGN   7127>>ASSIGN
TEXT$C.STRING
PL6.E3A0      #026=VPD$OUT_NAMES File=VPD$UTIL.:E05TSI                           WED 07/30/97 07:52 Page:654
      7092**DCL      7119>>CALLBLT  7119>>CALLBLT  7127--ASSIGN
VPG$WRITE_OUT
      7080**DCL-ENT  7153--CALL
ZERO_BYTE
      7086**DCL      7095--ASSIGN

