PL6.E3A0      #013=VPD$FID File=VPD$UTIL.:E05TSI                                 WED 07/30/97 07:32 Page:311
     1171        1        /*T***********************************************************/
     1172        2        /*T*                                                         */
     1173        3        /*T* Copyright (c) Bull HN Information Systems Inc., 1997    */
     1174        4        /*T*                                                         */
     1175        5        /*T***********************************************************/
     1176        6        VPD$FID: PROC(FPT_FID,SEV) ALTRET;
     1177        7        /*D* NAME: VPD$FID
     1178        8             CALL: CALL VPD$FID(FPT_FID);
     1179        9                    where FPT_FID is a normal M$FID FPT.
     1180       10             DESCRIPTION: This procedure is used by all of PCL as a uniform interface
     1181       11                          to M$FID.
     1182       12                   NOTE:  If M$FID ALTRETURNS, the error message will be printed with
     1183       13                          the passed SEVERITY.  SEV defaults to 3.
     1184       14        */
     1185       15        %INCLUDE B_ERRORS_C;
     1186     1142        %INCLUDE VP_DATA_R;
     1187     8129        /**/
     1188     8130        /*  PARAMETERS  */
     1189     8131        /**/
     1190     8132        %FPT_FID(FPTN = FPT_FID,STCLASS = "");
     1191     8155    1   DCL SEV SBIN WORD;
     1192     8156        /**/
     1193     8157        /*  BASED STRUCTURES  */
     1194     8158        /**/
     1195     8159        %B$TCB;
     1196     8162        %B$ALT;
     1197     8170    1   DCL 1 VECTR BASED DALIGNED,
     1198     8171    1         2 BOUND UBIN(20) UNAL,
     1199     8172    1         2 FLAGS BIT(16) UNAL,
     1200     8173    1         2 PTR$ PTR UNAL;
     1201     8174    1   DCL 1 TEXT$C BASED,
     1202     8175    1         2 C UBIN BYTE UNAL,
     1203     8176    1         2 TEXT CHAR(TEXT$C.C) UNAL;
     1204     8177        %VLR_FID(FPTN = RESULTS,STCLASS = BASED);
     1205     8196        /**/
     1206     8197        /*  LOCAL STORAGE  */
     1207     8198        /**/
PL6.E3A0      #013=VPD$FID File=VPD$UTIL.:E05TSI                                 WED 07/30/97 07:32 Page:312
     1208     8199    1   DCL SYS_ERR SBIN WORD;
     1209     8200    1   DCL SEVERITY SBIN WORD STATIC;
     1210     8201        %VLR_FID (FPTN = RESLT,STCLASS = AUTO);
     1211     8220        /**/
     1212     8221        /* ENTRY POINTS  */
     1213     8222        /**/
     1214     8223        %VP_ENTRIES (OMIT=VPD$FID);
     1215     8431        /**/
     1216     8432    1           IF ADDR(SEV) = ADDR(NIL)
     1217     8433    1            THEN
     1218     8434    1              SEVERITY = 3;
     1219     8435    1            ELSE
     1220     8436    1              SEVERITY = SEV;
     1221     8437    1           CALL M$FID (FPT_FID) ALTRET(FID_ERRORS);
     1222     8438    1           IF ADDR(FPT_FID.NAME_) -> VECTR.PTR$ -> TEXT$C.C = 0
     1223     8439    1            THEN
     1224     8440    1              ADDR(FPT_FID.RESULTS_) -> VECTR.PTR$ -> RESULTS.NAME = '0'B;
     1225     8441    1           RETURN;
     1226     8442
     1227     8443    1   FID_ERRORS:
     1228     8444    1           SYS_ERR = B$TCB$ -> B$TCB.ALT$ -> B$ALT.ERR.CODE;
     1229     8445    1           RESLT = ADDR(FPT_FID.RESULTS_) -> VECTR.PTR$ -> RESULTS;
     1230     8446    1           IF SYS_ERR = %E$BADVECT5
     1231     8447    1            THEN                           /* Bad SN vector                      */
     1232     8448    1              CALL VPL$ERR_PROC(SEVERITY,230,'04'O);
     1233     8449        /*E* ERROR:   VPD-00230
     1234     8450             MESSAGE: Too many tape reels
     1235     8451        */
     1236     8452                                                /* Unknown error                      */
     1237     8453        /**/
     1238     8454        /*  UNKNOWN ERROR  */
     1239     8455        /**/
     1240     8456    1           CALL VPL$ERR_PROC(SEVERITY,0);
     1241     8457    1           ALTRETURN;
     1242     8458    1   END VPD$FID;
     1243     8459        %EOD;

PL6.E3A0      #013=VPD$FID File=VPD$UTIL.:E05TSI                                 WED 07/30/97 07:32 Page:313
--  Include file information  --

   B_MICROPS_C.:E05TOU  is referenced.
   XU_MACRO_C.:E05TOU  is referenced.
   VP_MACRO_C.:E05TOU  is referenced.
   XS_MACRO_C.:E05TOU  is referenced.
   VP_PERR_C.:E05TOU  is referenced.
   CP_6_SUBS.:E05TOU  is referenced.
   CP_6.:E05TOU  cannot be made into a system file and is referenced.
   VP_DATA_R.:E05TOU  cannot be made into a system file and is referenced.
   B_ERRORS_C.:E05TOU  is referenced.
   B$JIT_C.:E05TOU  was found in the system file and is never referenced.
   CP_6_C.:E05TOU  was found in the system file and is referenced.
      No diagnostics issued in procedure VPD$FID.

   Procedure VPD$FID requires 49 words for executable code.
   Procedure VPD$FID requires 18 words of local(AUTO) storage.

PL6.E3A0      #013=VPD$FID File=VPD$UTIL.:E05TSI                                 WED 07/30/97 07:32 Page:314

 Object Unit name= VPD$FID                                    File name= VPD$UTIL.:E05TOU
 UTS= JUL 30 '97 07:32:31.56 WED                              Compiler= PL-6/E31         Sev=      00
 SharedLib= :SHARED_SYSTEM                                    Alt SharedLib=


    ****  Control sections  ****

 Sect   Type Bound  Init  Size OctSiz  Section name(segment info)
    0   DCB   even  none     0      0  M$UC
    1   DCB   even  none     0      0  M$EI
    2   DCB   even  none     0      0  M$EO
    3   DCB   even  none     0      0  M$EO1
    4   DCB   even  none     0      0  M$ME
    5   DCB   even  none     0      0  M$SI
    6   DCB   even  none     0      0  M$READFILE
    7   DCB   even  none     0      0  M$DO
    8   DCB   even  none     0      0  M$STD1
    9   DCB   even  none     0      0  M$SORT1
   10   Data  even  none     1      1  VPD$FID
   11   Proc  even  none    49     61  VPD$FID
   12  RoData even  none     7      7  VPD$FID

    ****  Entry defs  ****

                              Check   Calling
                             calling  sequence
  Sect OctLoc Primary Altret sequence   type   Parms  Name
    11      0   yes    yes     yes      Std        2  VPD$FID
PL6.E3A0      #013=VPD$FID File=VPD$UTIL.:E05TSI                                 WED 07/30/97 07:32 Page:315

  ****  Entry refs  ****

         Check        Calling
        calling       sequence
Altret sequence SRef   type   Args  Name
         yes           Std       8 VPL$ERR_PROC
                       nStd      0 X66_AUTO_2
                       Std       0 B_CONSPOOL_D
                       nStd      0 X66_ARET
                       nStd      0 X66_AALT

  ****  Data refs  ****

  Flags:  r = read only, s = secondary
Flgs Name                             Flgs Name                             Flgs Name
     M$UC                                  BREAK_LOC                             BREAK_MESSAGE_REPORTER
     SPEC_BUF                              IN_RES                                M$EI
     M$EO                                  M$EO1                                 M$ME
     M$SI                                  M$READFILE                            M$DO
     M$STD1                                M$SORT1                               B$TCB$
     B_VECTNIL

  ****  Segment refs  ****

  Flags:  r = read only, s = secondary
Flgs Name                             Flgs Name                             Flgs Name
     ISSID
PL6.E3A0      #013=VPD$FID File=VPD$UTIL.:E05TSI                                 WED 07/30/97 07:32 Page:316


     1171        1        /*T***********************************************************/
     1172        2        /*T*                                                         */
     1173        3        /*T* Copyright (c) Bull HN Information Systems Inc., 1997    */
     1174        4        /*T*                                                         */
     1175        5        /*T***********************************************************/
     1176        6        VPD$FID: PROC(FPT_FID,SEV) ALTRET;

      6 11 000000   000000 700200 xent  VPD$FID      TSX0  ! X66_AUTO_2
        11 000001   000022 000002                    ZERO    18,2

     1177        7        /*D* NAME: VPD$FID
     1178        8             CALL: CALL VPD$FID(FPT_FID);
     1179        9                    where FPT_FID is a normal M$FID FPT.
     1180       10             DESCRIPTION: This procedure is used by all of PCL as a uniform interface
     1181       11                          to M$FID.
     1182       12                   NOTE:  If M$FID ALTRETURNS, the error message will be printed with
     1183       13                          the passed SEVERITY.  SEV defaults to 3.
     1184       14        */
     1185       15        %INCLUDE B_ERRORS_C;
     1186     1142        %INCLUDE VP_DATA_R;
     1187     8129        /**/
     1188     8130        /*  PARAMETERS  */
     1189     8131        /**/
     1190     8132        %FPT_FID(FPTN = FPT_FID,STCLASS = "");
     1191     8155    1   DCL SEV SBIN WORD;
     1192     8156        /**/
     1193     8157        /*  BASED STRUCTURES  */
     1194     8158        /**/
     1195     8159        %B$TCB;
     1196     8162        %B$ALT;
     1197     8170    1   DCL 1 VECTR BASED DALIGNED,
     1198     8171    1         2 BOUND UBIN(20) UNAL,
     1199     8172    1         2 FLAGS BIT(16) UNAL,
     1200     8173    1         2 PTR$ PTR UNAL;
     1201     8174    1   DCL 1 TEXT$C BASED,
     1202     8175    1         2 C UBIN BYTE UNAL,
PL6.E3A0      #013=VPD$FID File=VPD$UTIL.:E05TSI                                 WED 07/30/97 07:32 Page:317
     1203     8176    1         2 TEXT CHAR(TEXT$C.C) UNAL;
     1204     8177        %VLR_FID(FPTN = RESULTS,STCLASS = BASED);
     1205     8196        /**/
     1206     8197        /*  LOCAL STORAGE  */
     1207     8198        /**/
     1208     8199    1   DCL SYS_ERR SBIN WORD;
     1209     8200    1   DCL SEVERITY SBIN WORD STATIC;
     1210     8201        %VLR_FID (FPTN = RESLT,STCLASS = AUTO);
     1211     8220        /**/
     1212     8221        /* ENTRY POINTS  */
     1213     8222        /**/
     1214     8223        %VP_ENTRIES (OMIT=VPD$FID);
     1215     8431        /**/
     1216     8432    1           IF ADDR(SEV) = ADDR(NIL)

   8432 11 000002   200004 236100                    LDQ     @SEV,,AUTO
        11 000003   000001 116000 xsym               CMPQ    B_VECTNIL+1
        11 000004   000010 601000 11                 TNZ     s:8436

     1217     8433    1            THEN
     1218     8434    1              SEVERITY = 3;

   8434 11 000005   000003 235007                    LDA     3,DL
        11 000006   000000 755000 10                 STA     SEVERITY
        11 000007   000013 710000 11                 TRA     s:8437

     1219     8435    1            ELSE
     1220     8436    1              SEVERITY = SEV;

   8436 11 000010   200004 470500                    LDP0    @SEV,,AUTO
        11 000011   000000 235100                    LDA     0,,PR0
        11 000012   000000 755000 10                 STA     SEVERITY

     1221     8437    1           CALL M$FID (FPT_FID) ALTRET(FID_ERRORS);

   8437 11 000013   200003 470500                    LDP0    @FPT_FID,,AUTO
        11 000014   420001 713400                    CLIMB   alt,+8193
PL6.E3A0      #013=VPD$FID File=VPD$UTIL.:E05TSI                                 WED 07/30/97 07:32 Page:318
        11 000015   404400 401760                    pmme    nvectors=10
        11 000016   000033 702000 11                 TSX2    FID_ERRORS

     1222     8438    1           IF ADDR(FPT_FID.NAME_) -> VECTR.PTR$ -> TEXT$C.C = 0

   8438 11 000017   200003 470500                    LDP0    @FPT_FID,,AUTO
        11 000020   000005 471500                    LDP1    5,,PR0
        11 000021   000100 101500                    MRL     fill='000'O
        11 000022   100000 000001                    ADSC9   0,,PR1                   cn=0,n=1
        11 000023   200020 000004                    ADSC9   RESLT+10,,AUTO           cn=0,n=4
        11 000024   200020 236100                    LDQ     RESLT+10,,AUTO
        11 000025   000000 116003                    CMPQ    0,DU
        11 000026   000032 601000 11                 TNZ     s:8441

     1223     8439    1            THEN
     1224     8440    1              ADDR(FPT_FID.RESULTS_) -> VECTR.PTR$ -> RESULTS.NAME = '0'B;

   8440 11 000027   000023 471500                    LDP1    19,,PR0
        11 000030   000031 236000 xsym               LDQ     B_VECTNIL+25
        11 000031   100000 356100                    ANSQ    0,,PR1

     1225     8441    1           RETURN;

   8441 11 000032   000000 702200 xent               TSX2  ! X66_ARET

     1226     8442
     1227     8443    1   FID_ERRORS:
     1228     8444    1           SYS_ERR = B$TCB$ -> B$TCB.ALT$ -> B$ALT.ERR.CODE;

   8444 11 000033   000000 470400 xsym  FID_ERRORS   LDP0    B$TCB$
        11 000034   000000 471500                    LDP1    0,,PR0
        11 000035   100102 236100                    LDQ     66,,PR1
        11 000036   000003 772000                    QRL     3
        11 000037   037777 376007                    ANQ     16383,DL
        11 000040   200005 756100                    STQ     SYS_ERR,,AUTO

     1229     8445    1           RESLT = ADDR(FPT_FID.RESULTS_) -> VECTR.PTR$ -> RESULTS;
PL6.E3A0      #013=VPD$FID File=VPD$UTIL.:E05TSI                                 WED 07/30/97 07:32 Page:319

   8445 11 000041   200003 473500                    LDP3    @FPT_FID,,AUTO
        11 000042   300023 474500                    LDP4    19,,PR3
        11 000043   000100 100500                    MLR     fill='000'O
        11 000044   400000 000044                    ADSC9   0,,PR4                   cn=0,n=36
        11 000045   200006 000044                    ADSC9   RESLT,,AUTO              cn=0,n=36

     1230     8446    1           IF SYS_ERR = %E$BADVECT5

   8446 11 000046   000651 116007                    CMPQ    425,DL
        11 000047   000054 601000 11                 TNZ     s:8456

     1231     8447    1            THEN                           /* Bad SN vector                      */
     1232     8448    1              CALL VPL$ERR_PROC(SEVERITY,230,'04'O);

   8448 11 000050   000002 630400 12                 EPPR0   2
        11 000051   000021 631400 xsym               EPPR1   B_VECTNIL+17
        11 000052   000000 701000 xent               TSX1    VPL$ERR_PROC
        11 000053   000000 011000                    NOP     0

     1233     8449        /*E* ERROR:   VPD-00230
     1234     8450             MESSAGE: Too many tape reels
     1235     8451        */
     1236     8452                                                /* Unknown error                      */
     1237     8453        /**/
     1238     8454        /*  UNKNOWN ERROR  */
     1239     8455        /**/
     1240     8456    1           CALL VPL$ERR_PROC(SEVERITY,0);

   8456 11 000054   000005 630400 12                 EPPR0   5
        11 000055   000020 631400 xsym               EPPR1   B_VECTNIL+16
        11 000056   000000 701000 xent               TSX1    VPL$ERR_PROC
        11 000057   000000 011000                    NOP     0

     1241     8457    1           ALTRETURN;

   8457 11 000060   000000 702200 xent               TSX2  ! X66_AALT
PL6.E3A0      #013=VPD$FID File=VPD$UTIL.:E05TSI                                 WED 07/30/97 07:32 Page:320
     1242     8458    1   END VPD$FID;
     1243     8459        %EOD;

PL6.E3A0      #013=VPD$FID File=VPD$UTIL.:E05TSI                                 WED 07/30/97 07:32 Page:321
--  Include file information  --

   B_MICROPS_C.:E05TOU  is referenced.
   XU_MACRO_C.:E05TOU  is referenced.
   VP_MACRO_C.:E05TOU  is referenced.
   XS_MACRO_C.:E05TOU  is referenced.
   VP_PERR_C.:E05TOU  is referenced.
   CP_6_SUBS.:E05TOU  is referenced.
   CP_6.:E05TOU  cannot be made into a system file and is referenced.
   VP_DATA_R.:E05TOU  cannot be made into a system file and is referenced.
   B_ERRORS_C.:E05TOU  is referenced.
   B$JIT_C.:E05TOU  was found in the system file and is never referenced.
   CP_6_C.:E05TOU  was found in the system file and is referenced.
      No diagnostics issued in procedure VPD$FID.
PL6.E3A0      #013=VPD$FID File=VPD$UTIL.:E05TSI                                 WED 07/30/97 07:32 Page:322

 **** Variables and constants ****

  ****  Section 010  Data  VPD$FID

  ****  Scalars and arrays  ****
OctLoc.c.b A Datatyp(siz) R M Lvl/name                 OctLoc.c.b A Datatyp(siz) R M Lvl/name

     0-0-0/w SBIN        r     1 SEVERITY

  ****  Auto variables  ****

  ****  Scalars and arrays  ****
OctLoc.c.b A Datatyp(siz) R M Lvl/name                 OctLoc.c.b A Datatyp(siz) R M Lvl/name

     3-0-0/w PTR         r     1 @FPT_FID                   4-0-0/w PTR         r     1 @SEV
    *0-0-0/d STRC(864)   r     1 FPT_FID                    6-0-0/d STRC(324)   r     1 RESLT
    *0-0-0/w SBIN        r     1 SEV                        5-0-0/w SBIN        r     1 SYS_ERR

  ****  SYMREF variables  ****

  ****  Scalars and arrays  ****
OctLoc.c.b A Datatyp(siz) R M Lvl/name                 OctLoc.c.b A Datatyp(siz) R M Lvl/name

     0-0-0/w PTR         r     1 B$TCB$
     0-0-0/w EPTR        r     1 BREAK_MESSAGE_REPORTER

  ****  BASED and DCB variables  ****

  ****  Scalars and arrays  ****
OctLoc.c.b A Datatyp(siz) R M Lvl/name                 OctLoc.c.b A Datatyp(siz) R M Lvl/name

     0-0-0/w STRC(2448)  r     1 B$ALT                      0-0-0/w STRC(144)   r     1 B$TCB
     0-0-0/d STRC(324)   r     1 RESULTS                    0-0-0/c ASTR(9)     r     1 TEXT$C
     0-0-0/d STRC(72)    r     1 VECTR

PL6.E3A0      #013=VPD$FID File=VPD$UTIL.:E05TSI                                 WED 07/30/97 07:32 Page:323

   Procedure VPD$FID requires 49 words for executable code.
   Procedure VPD$FID requires 18 words of local(AUTO) storage.
PL6.E3A0      #013=VPD$FID File=VPD$UTIL.:E05TSI                                 WED 07/30/97 07:32 Page:324
          *** CROSS REFERENCE LISTING ***
**     DENOTES     IDENTIFIER DEFINITION
<<                 IDENTIFIER'S VALUE SET
>>                 IDENTIFIER'S VALUE USED
<>                 IDENTIFIER SET AND/OR USED
--                 IDENTIFIER REFERENCED
PL6.E3A0      #013=VPD$FID File=VPD$UTIL.:E05TSI                                 WED 07/30/97 07:32 Page:325
          MINI XREF LISTING

B$ALT.CODE
      8164**DCL      8164--REDEF    8165--REDEF    8165--REDEF
B$ALT.ERR.CODE
      8166**DCL      8444>>ASSIGN
B$ALT.ERR.ERR#
      8166**DCL      8166--REDEF
B$ALT.EVID
      8165**DCL      8165--REDEF    8165--REDEF
B$TCB.ALT$
      8160**DCL      8444>>ASSIGN
B$TCB$
      7114**DCL      8444>>ASSIGN
BREAK_LOC
      6349**DCL      6349--REDEF
DEF_ICB.FID.STRING
      6947**DCL      6948--REDEF
DEV_ICB.FID.STRING
      6833**DCL      6834--REDEF
EI_KEY.KEY
      7045**DCL      7045--REDEF    7045--REDEF    7045--REDEF
EO_OCB.TYPE
      6545**DCL      6546--REDEF
FID_ERRORS
      8444**LABEL    8437--CALLALT
FPT_CLOSE_EI.SN_
      7886**DCL      7886--REDEF
FPT_CLOSE_EI.UTL_
      7887**DCL      7887--REDEF
FPT_CLOSE_EI.V.EXPIRE#
      7901**DCL      7901--REDEF
FPT_CLOSE_EI.V.TYPE#
      7899**DCL      7899--REDEF
PL6.E3A0      #013=VPD$FID File=VPD$UTIL.:E05TSI                                 WED 07/30/97 07:32 Page:326
FPT_CLOSE_EI.V.XTNSIZE#
      7896**DCL      7896--REDEF    7898--REDEF
FPT_CLOSE_PTL.SN_
      8012**DCL      8012--REDEF
FPT_CLOSE_PTL.UTL_
      8013**DCL      8013--REDEF
FPT_CLOSE_PTL.V.EXPIRE#
      8027**DCL      8027--REDEF
FPT_CLOSE_PTL.V.TYPE#
      8025**DCL      8025--REDEF
FPT_CLOSE_PTL.V.XTNSIZE#
      8022**DCL      8022--REDEF    8024--REDEF
FPT_CLOSE_READ.SN_
      7928**DCL      7928--REDEF
FPT_CLOSE_READ.UTL_
      7929**DCL      7929--REDEF
FPT_CLOSE_READ.V.EXPIRE#
      7943**DCL      7943--REDEF
FPT_CLOSE_READ.V.TYPE#
      7941**DCL      7941--REDEF
FPT_CLOSE_READ.V.XTNSIZE#
      7938**DCL      7938--REDEF    7940--REDEF
FPT_CLOSE_SI.SN_
      8096**DCL      8096--REDEF
FPT_CLOSE_SI.UTL_
      8097**DCL      8097--REDEF
FPT_CLOSE_SI.V.EXPIRE#
      8111**DCL      8111--REDEF
FPT_CLOSE_SI.V.TYPE#
      8109**DCL      8109--REDEF
FPT_CLOSE_SI.V.XTNSIZE#
      8106**DCL      8106--REDEF    8108--REDEF
FPT_CLOSE_STD.SN_
      8054**DCL      8054--REDEF
FPT_CLOSE_STD.UTL_
      8055**DCL      8055--REDEF
PL6.E3A0      #013=VPD$FID File=VPD$UTIL.:E05TSI                                 WED 07/30/97 07:32 Page:327
FPT_CLOSE_STD.V.EXPIRE#
      8069**DCL      8069--REDEF
FPT_CLOSE_STD.V.TYPE#
      8067**DCL      8067--REDEF
FPT_CLOSE_STD.V.XTNSIZE#
      8064**DCL      8064--REDEF    8066--REDEF
FPT_CLSEI_FT.SN_
      7970**DCL      7970--REDEF
FPT_CLSEI_FT.UTL_
      7971**DCL      7971--REDEF
FPT_CLSEI_FT.V.EXPIRE#
      7985**DCL      7985--REDEF
FPT_CLSEI_FT.V.TYPE#
      7983**DCL      7983--REDEF
FPT_CLSEI_FT.V.XTNSIZE#
      7980**DCL      7980--REDEF    7982--REDEF
FPT_FID
      8143**DCL         6--PROC     8437<>CALL
FPT_FID.NAME_
      8144**DCL      8438--IF
FPT_FID.RESULTS_
      8146**DCL      8440--ASSIGN   8445--ASSIGN
FPT_OPEN_EI.ACSVEH_
      7541**DCL      7542--REDEF
FPT_OPEN_EI.ALTKEYS_
      7547**DCL      7548--REDEF    7548--REDEF
FPT_OPEN_EI.HDR_
      7546**DCL      7547--REDEF
FPT_OPEN_EI.TAB_
      7545**DCL      7546--REDEF
FPT_OPEN_EI.UHL_
      7539**DCL      7540--REDEF    7540--REDEF
FPT_OPEN_EI.V.FSN#
      7579**DCL      7579--REDEF    7579--REDEF
FPT_OPEN_EI.WSN_
      7545**DCL      7545--REDEF
PL6.E3A0      #013=VPD$FID File=VPD$UTIL.:E05TSI                                 WED 07/30/97 07:32 Page:328
FPT_OPEN_EI_SAVE.ACSVEH_
      7650**DCL      7651--REDEF
FPT_OPEN_EI_SAVE.ALTKEYS_
      7656**DCL      7657--REDEF    7657--REDEF
FPT_OPEN_EI_SAVE.HDR_
      7655**DCL      7656--REDEF
FPT_OPEN_EI_SAVE.TAB_
      7654**DCL      7655--REDEF
FPT_OPEN_EI_SAVE.UHL_
      7648**DCL      7649--REDEF    7649--REDEF
FPT_OPEN_EI_SAVE.V.FSN#
      7688**DCL      7688--REDEF    7688--REDEF
FPT_OPEN_EI_SAVE.WSN_
      7654**DCL      7654--REDEF
FPT_OPEN_OUT.ACSVEH_
      7432**DCL      7433--REDEF
FPT_OPEN_OUT.ALTKEYS_
      7438**DCL      7439--REDEF    7439--REDEF
FPT_OPEN_OUT.HDR_
      7437**DCL      7438--REDEF
FPT_OPEN_OUT.TAB_
      7436**DCL      7437--REDEF
FPT_OPEN_OUT.UHL_
      7430**DCL      7431--REDEF    7431--REDEF
FPT_OPEN_OUT.V.FSN#
      7470**DCL      7470--REDEF    7470--REDEF
FPT_OPEN_OUT.WSN_
      7436**DCL      7436--REDEF
FPT_OPEN_OUT_SAVE.ACSVEH_
      7323**DCL      7324--REDEF
FPT_OPEN_OUT_SAVE.ALTKEYS_
      7329**DCL      7330--REDEF    7330--REDEF
FPT_OPEN_OUT_SAVE.HDR_
      7328**DCL      7329--REDEF
FPT_OPEN_OUT_SAVE.TAB_
      7327**DCL      7328--REDEF
PL6.E3A0      #013=VPD$FID File=VPD$UTIL.:E05TSI                                 WED 07/30/97 07:32 Page:329
FPT_OPEN_OUT_SAVE.UHL_
      7321**DCL      7322--REDEF    7322--REDEF
FPT_OPEN_OUT_SAVE.V.FSN#
      7361**DCL      7361--REDEF    7361--REDEF
FPT_OPEN_OUT_SAVE.WSN_
      7327**DCL      7327--REDEF
FPT_READ_STD.STATION_
      7751**DCL      7752--REDEF
FPT_READ_STD.V.DVBYTE.REREAD#
      7763**DCL      7763--REDEF
FPT_READ_STD.V.INDX#
      7761**DCL      7761--REDEF
FPT_READ_UC.STATION_
      7712**DCL      7713--REDEF
FPT_READ_UC.V.DVBYTE.REREAD#
      7724**DCL      7724--REDEF
FPT_READ_UC.V.INDX#
      7722**DCL      7722--REDEF
FPT_WRITE_ME.STATION_
      7820**DCL      7820--REDEF
FPT_WRITE_ME.V.DVBYTE.VFC#
      7827**DCL      7827--REDEF
FPT_WRITE_OUT.STATION_
      7851**DCL      7851--REDEF
FPT_WRITE_OUT.V.DVBYTE.VFC#
      7858**DCL      7858--REDEF
FPT_WRITE_UC.STATION_
      7789**DCL      7789--REDEF
FPT_WRITE_UC.V.DVBYTE.VFC#
      7796**DCL      7796--REDEF
FROM_SN.SN
      6695**DCL      6696--REDEF
GETCMD.OUT$
      5902**DCL      5908--REDEF
ICB.FID.STRING
      6719**DCL      6720--REDEF
PL6.E3A0      #013=VPD$FID File=VPD$UTIL.:E05TSI                                 WED 07/30/97 07:32 Page:330
IFSFA_PARAM.EOMCHAR#
      7074**DCL      7075--REDEF
IFSFA_PARAM.SIG1
      7068**DCL      7068--REDEF
IFSFA_PARAM.SIG2
      7068**DCL      7069--REDEF
IN_RES
      6641**DCL      6641--REDEF
IN_SN.SN
      6657**DCL      6658--REDEF
M$FID
      1222**DCL-ENT  8437--CALL
OCB.TYPE
      6403**DCL      6404--REDEF
OFSFA_PARAM.EOMCHAR#
      7104**DCL      7105--REDEF
OFSFA_PARAM.SIG1
      7098**DCL      7098--REDEF
OFSFA_PARAM.SIG2
      7098**DCL      7099--REDEF
OUT_SN.SN
      6675**DCL      6676--REDEF
RESLT
      8212**DCL      8445<<ASSIGN
RESULTS
      8188**DCL      8445>>ASSIGN
RESULTS.NAME
      8188**DCL      8440<<ASSIGN
SEV
      8155**DCL         6--PROC     8432--IF       8436>>ASSIGN
SEVERITY
      8200**DCL      8434<<ASSIGN   8436<<ASSIGN   8448<>CALL     8456<>CALL
SPEC_BUF
      6353**DCL      6353--REDEF
SYS_ERR
      8199**DCL      8444<<ASSIGN   8446>>IF
PL6.E3A0      #013=VPD$FID File=VPD$UTIL.:E05TSI                                 WED 07/30/97 07:32 Page:331
TEXT$C.C
      8175**DCL      8176--IMP-SIZ  8438>>IF
VECTR.PTR$
      8173**DCL      8438>>IF       8440>>ASSIGN   8445>>ASSIGN
VPL$ERR_PROC
      8405**DCL-ENT  8448--CALL     8456--CALL

PL6.E3A0      #014=VPD$GET_BUF File=VPD$UTIL.:E05TSI                             WED 07/30/97 07:34 Page:332
     1244        1        /*T***********************************************************/
     1245        2        /*T*                                                         */
     1246        3        /*T* Copyright (c) Bull HN Information Systems Inc., 1997    */
     1247        4        /*T*                                                         */
     1248        5        /*T***********************************************************/
     1249        6        VPD$GET_BUF: PROC(BUF$,WORDS) ALTRET;
     1250        7        /*D* NAME: VPD$GET_BUF
     1251        8             CALL: CALL VPD$GET_BUF(BUF$,WORDS);
     1252        9             DESCRIPTION: This procedure is used to allocate a data segment of
     1253       10                          the requested size.  If there is not enough memory to
     1254       11                          allocate the entire buffer, the ALTRETURN is taken and
     1255       12                          no space is allocated.
     1256       13        */
     1257       14        /**/
     1258       15        /*  INCLUDE FILES  */
     1259       16        /**/
     1260       17        %INCLUDE CP_6;
     1261       98        /**/
     1262       99        /*  Parameters  */
     1263      100        /**/
     1264      101    1   DCL WORDS SBIN WORD;
     1265      102    1   DCL BUF$ PTR;
     1266      103        /**/
     1267      104        /*  Local Storage  */
     1268      105        /**/
     1269      106        %VLP_VECTOR(FPTN = RESULTS,
     1270      107                    STCLASS = STATIC);
     1271      122        %FPT_GDS(FPTN = FPT_GDS,
     1272      123                 FREE = YES,
     1273      124                 RESULTS = RESULTS,
     1274      125                 STCLASS = STATIC);
     1275      141        %FPT_FDS(FPTN = FPT_FDS,
     1276      142                 RESULTS = RESULTS,
     1277      143                 STCLASS = STATIC);
     1278      158        /**/
     1279      159    1           RESULTS.PTR$ = BUF$;
     1280      160    1           FPT_GDS.V.SEGSIZE# = WORDS;
PL6.E3A0      #014=VPD$GET_BUF File=VPD$UTIL.:E05TSI                             WED 07/30/97 07:34 Page:333
     1281      161        /**/
     1282      162    1           CALL M$GDS(FPT_GDS) ALTRET(ALT);
     1283      163        /**/
     1284      164    1           BUF$ = RESULTS.PTR$;
     1285      165        /**/
     1286      166    1           RETURN;
     1287      167        %EJECT;
PL6.E3A0      #014=VPD$GET_BUF File=VPD$UTIL.:E05TSI                             WED 07/30/97 07:34 Page:334
     1288      168    1   VPD$REL_BUF: ENTRY(BUF$,WORDS) ALTRET;
     1289      169        /*D* NAME: VPD$REL_BUF
     1290      170             CALL: CALL VPD$REL_BUF(BUF$,WORDS);
     1291      171             DESCRIPTION: This procedure is used to release the data segment
     1292      172                          allocated by VPD$GETBUF.
     1293      173        */
     1294      174        /**/
     1295      175    1           RESULTS.PTR$ = BUF$;
     1296      176    1           FPT_FDS.V.SEGSIZE# = WORDS;
     1297      177        /**/
     1298      178    1           CALL M$FDS(FPT_FDS) ALTRET(ALT);
     1299      179        /**/
     1300      180    1           BUF$ = ADDR(NIL);
     1301      181        /**/
     1302      182    1           RETURN;
     1303      183
     1304      184
     1305      185    1   ALT:    ;                               /* PMME problems                      */
     1306      186    1           ALTRETURN;
     1307      187
     1308      188    1   END VPD$GET_BUF;
     1309      189        %EOD;

PL6.E3A0      #014=VPD$GET_BUF File=VPD$UTIL.:E05TSI                             WED 07/30/97 07:34 Page:335
--  Include file information  --

   CP_6.:E05TOU  cannot be made into a system file and is referenced.
   B$JIT_C.:E05TOU  was found in the system file and is never referenced.
   CP_6_C.:E05TOU  was found in the system file and is referenced.
      No diagnostics issued in procedure VPD$GET_BUF.

   Procedure VPD$GET_BUF requires 33 words for executable code.
   Procedure VPD$GET_BUF requires 6 words of local(AUTO) storage.

PL6.E3A0      #014=VPD$GET_BUF File=VPD$UTIL.:E05TSI                             WED 07/30/97 07:34 Page:336

 Object Unit name= VPD$GET_BUF                                File name= VPD$UTIL.:E05TOU
 UTS= JUL 30 '97 07:34:46.64 WED                              Compiler= PL-6/E31         Sev=      00
 SharedLib= :SHARED_SYSTEM                                    Alt SharedLib=


    ****  Control sections  ****

 Sect   Type Bound  Init  Size OctSiz  Section name(segment info)
    0   DCB   even  none     0      0  M$UC
    1   Data  even  none    14     16  VPD$GET_BUF
    2   Proc  even  none    33     41  VPD$GET_BUF

    ****  Entry defs  ****

                              Check   Calling
                             calling  sequence
  Sect OctLoc Primary Altret sequence   type   Parms  Name
     2      0   yes    yes     yes      Std        2  VPD$GET_BUF
     2     20          yes     yes      Std        2  VPD$REL_BUF

  ****  Entry refs  ****

         Check        Calling
        calling       sequence
Altret sequence SRef   type   Args  Name
                       nStd      0 X66_AUTO_2
                       nStd      0 X66_ARET
                       Std       0 B_CONSPOOL_D
                       nStd      0 X66_AALT

  ****  Data refs  ****

  Flags:  r = read only, s = secondary
Flgs Name                             Flgs Name                             Flgs Name
     M$UC                                  B_VECTNIL
PL6.E3A0      #014=VPD$GET_BUF File=VPD$UTIL.:E05TSI                             WED 07/30/97 07:34 Page:337

  ****  Segment refs  ****

  Flags:  r = read only, s = secondary
Flgs Name                             Flgs Name                             Flgs Name
     ISSID
PL6.E3A0      #014=VPD$GET_BUF File=VPD$UTIL.:E05TSI                             WED 07/30/97 07:34 Page:338


     1244        1        /*T***********************************************************/
     1245        2        /*T*                                                         */
     1246        3        /*T* Copyright (c) Bull HN Information Systems Inc., 1997    */
     1247        4        /*T*                                                         */
     1248        5        /*T***********************************************************/
     1249        6        VPD$GET_BUF: PROC(BUF$,WORDS) ALTRET;

      6  2 000000   000000 700200 xent  VPD$GET_BUF  TSX0  ! X66_AUTO_2
         2 000001   000006 000002                    ZERO    6,2

     1250        7        /*D* NAME: VPD$GET_BUF
     1251        8             CALL: CALL VPD$GET_BUF(BUF$,WORDS);
     1252        9             DESCRIPTION: This procedure is used to allocate a data segment of
     1253       10                          the requested size.  If there is not enough memory to
     1254       11                          allocate the entire buffer, the ALTRETURN is taken and
     1255       12                          no space is allocated.
     1256       13        */
     1257       14        /**/
     1258       15        /*  INCLUDE FILES  */
     1259       16        /**/
     1260       17        %INCLUDE CP_6;
     1261       98        /**/
     1262       99        /*  Parameters  */
     1263      100        /**/
     1264      101    1   DCL WORDS SBIN WORD;
     1265      102    1   DCL BUF$ PTR;
     1266      103        /**/
     1267      104        /*  Local Storage  */
     1268      105        /**/
     1269      106        %VLP_VECTOR(FPTN = RESULTS,
     1270      107                    STCLASS = STATIC);
     1271      122        %FPT_GDS(FPTN = FPT_GDS,
     1272      123                 FREE = YES,
     1273      124                 RESULTS = RESULTS,
     1274      125                 STCLASS = STATIC);
     1275      141        %FPT_FDS(FPTN = FPT_FDS,
PL6.E3A0      #014=VPD$GET_BUF File=VPD$UTIL.:E05TSI                             WED 07/30/97 07:34 Page:339
     1276      142                 RESULTS = RESULTS,
     1277      143                 STCLASS = STATIC);
     1278      158        /**/
     1279      159    1           RESULTS.PTR$ = BUF$;

    159  2 000002   200003 470500                    LDP0    @BUF$,,AUTO
         2 000003   000000 236100                    LDQ     0,,PR0
         2 000004   000001 756000 1                  STQ     RESULTS+1

     1280      160    1           FPT_GDS.V.SEGSIZE# = WORDS;

    160  2 000005   200004 471500                    LDP1    @WORDS,,AUTO
         2 000006   100000 720100                    LXL0    0,,PR1
         2 000007   000006 440000 1                  SXL0    FPT_GDS+4

     1281      161        /**/
     1282      162    1           CALL M$GDS(FPT_GDS) ALTRET(ALT);

    162  2 000010   000002 630400 1                  EPPR0   FPT_GDS
         2 000011   430001 713400                    CLIMB   alt,gds
         2 000012   400400 401760                    pmme    nvectors=2
         2 000013   000040 702000 2                  TSX2    ALT

     1283      163        /**/
     1284      164    1           BUF$ = RESULTS.PTR$;

    164  2 000014   000001 236000 1                  LDQ     RESULTS+1
         2 000015   200003 470500                    LDP0    @BUF$,,AUTO
         2 000016   000000 756100                    STQ     0,,PR0

     1285      165        /**/
     1286      166    1           RETURN;

    166  2 000017   000000 702200 xent               TSX2  ! X66_ARET

     1287      167        %EJECT;
PL6.E3A0      #014=VPD$GET_BUF File=VPD$UTIL.:E05TSI                             WED 07/30/97 07:34 Page:340
     1288      168    1   VPD$REL_BUF: ENTRY(BUF$,WORDS) ALTRET;

    168  2 000020   000000 700200 xent  VPD$REL_BUF  TSX0  ! X66_AUTO_2
         2 000021   000006 000002                    ZERO    6,2

     1289      169        /*D* NAME: VPD$REL_BUF
     1290      170             CALL: CALL VPD$REL_BUF(BUF$,WORDS);
     1291      171             DESCRIPTION: This procedure is used to release the data segment
     1292      172                          allocated by VPD$GETBUF.
     1293      173        */
     1294      174        /**/
     1295      175    1           RESULTS.PTR$ = BUF$;

    175  2 000022   200003 470500                    LDP0    @BUF$,,AUTO
         2 000023   000000 236100                    LDQ     0,,PR0
         2 000024   000001 756000 1                  STQ     RESULTS+1

     1296      176    1           FPT_FDS.V.SEGSIZE# = WORDS;

    176  2 000025   200004 471500                    LDP1    @WORDS,,AUTO
         2 000026   100000 720100                    LXL0    0,,PR1
         2 000027   000014 440000 1                  SXL0    FPT_FDS+4

     1297      177        /**/
     1298      178    1           CALL M$FDS(FPT_FDS) ALTRET(ALT);

    178  2 000030   000010 630400 1                  EPPR0   FPT_FDS
         2 000031   430002 713400                    CLIMB   alt,fds
         2 000032   400400 401760                    pmme    nvectors=2
         2 000033   000040 702000 2                  TSX2    ALT

     1299      179        /**/
     1300      180    1           BUF$ = ADDR(NIL);

    180  2 000034   000001 236000 xsym               LDQ     B_VECTNIL+1
         2 000035   200003 470500                    LDP0    @BUF$,,AUTO
         2 000036   000000 756100                    STQ     0,,PR0
PL6.E3A0      #014=VPD$GET_BUF File=VPD$UTIL.:E05TSI                             WED 07/30/97 07:34 Page:341

     1301      181        /**/
     1302      182    1           RETURN;

    182  2 000037   000000 702200 xent               TSX2  ! X66_ARET

    180  2 000040                       ALT          null
     1303      183
     1304      184
     1305      185    1   ALT:    ;                               /* PMME problems                      */
     1306      186    1           ALTRETURN;

    186  2 000040   000000 702200 xent               TSX2  ! X66_AALT
     1307      187
     1308      188    1   END VPD$GET_BUF;
     1309      189        %EOD;

PL6.E3A0      #014=VPD$GET_BUF File=VPD$UTIL.:E05TSI                             WED 07/30/97 07:34 Page:342
--  Include file information  --

   CP_6.:E05TOU  cannot be made into a system file and is referenced.
   B$JIT_C.:E05TOU  was found in the system file and is never referenced.
   CP_6_C.:E05TOU  was found in the system file and is referenced.
      No diagnostics issued in procedure VPD$GET_BUF.
PL6.E3A0      #014=VPD$GET_BUF File=VPD$UTIL.:E05TSI                             WED 07/30/97 07:34 Page:343

 **** Variables and constants ****

  ****  Section 001  Data  VPD$GET_BUF

  ****  Scalars and arrays  ****
OctLoc.c.b A Datatyp(siz) R M Lvl/name                 OctLoc.c.b A Datatyp(siz) R M Lvl/name

    10-0-0/d STRC(216)   r     1 FPT_FDS                    2-0-0/d STRC(216)   r     1 FPT_GDS
     0-0-0/d STRC(72)    r     1 RESULTS

  ****  Auto variables  ****

  ****  Scalars and arrays  ****
OctLoc.c.b A Datatyp(siz) R M Lvl/name                 OctLoc.c.b A Datatyp(siz) R M Lvl/name

     3-0-0/w PTR         r     1 @BUF$                      4-0-0/w PTR         r     1 @WORDS
    *0-0-0/w PTR         r     1 BUF$                      *0-0-0/w SBIN        r     1 WORDS


   Procedure VPD$GET_BUF requires 33 words for executable code.
   Procedure VPD$GET_BUF requires 6 words of local(AUTO) storage.
PL6.E3A0      #014=VPD$GET_BUF File=VPD$UTIL.:E05TSI                             WED 07/30/97 07:34 Page:344
          *** CROSS REFERENCE LISTING ***
**     DENOTES     IDENTIFIER DEFINITION
<<                 IDENTIFIER'S VALUE SET
>>                 IDENTIFIER'S VALUE USED
<>                 IDENTIFIER SET AND/OR USED
--                 IDENTIFIER REFERENCED
PL6.E3A0      #014=VPD$GET_BUF File=VPD$UTIL.:E05TSI                             WED 07/30/97 07:34 Page:345
          MINI XREF LISTING

ALT
       180**LABEL     162--CALLALT   178--CALLALT
BUF$
       102**DCL         6--PROC      159>>ASSIGN    164<<ASSIGN    168--ENTRY     175>>ASSIGN    180<<ASSIGN
FPT_FDS
       154**DCL       178<>CALL
FPT_FDS.V
       154**DCL       154--DCLINIT
FPT_FDS.V.SEGSIZE#
       156**DCL       176<<ASSIGN
FPT_GDS
       136**DCL       162<>CALL
FPT_GDS.V
       136**DCL       136--DCLINIT
FPT_GDS.V.SEGSIZE#
       139**DCL       160<<ASSIGN
M$FDS
        61**DCL-ENT   178--CALL
M$GDS
        61**DCL-ENT   162--CALL
RESULTS
       118**DCL       136--DCLINIT   154--DCLINIT
RESULTS.PTR$
       120**DCL       159<<ASSIGN    164>>ASSIGN    175<<ASSIGN
RESULTS.W2
       119**DCL       120--REDEF
WORDS
       101**DCL         6--PROC      160>>ASSIGN    168--ENTRY     176>>ASSIGN

PL6.E3A0      #015=VPD$GET_INPUT File=VPD$UTIL.:E05TSI                           WED 07/30/97 07:35 Page:346
     1310        1        /*T***********************************************************/
     1311        2        /*T*                                                         */
     1312        3        /*T* Copyright (c) Bull HN Information Systems Inc., 1997    */
     1313        4        /*T*                                                         */
     1314        5        /*T***********************************************************/
     1315        6        VPD$GET_INPUT: PROC(IDX);
     1316        7        /*D* NAME: VPD$GET_INPUT
     1317        8             CALL: CALL VPD$GET_INPUT(IDX);
     1318        9             DESCRIPTION: GET_INPUT is called with IDX  (SBIN WORD) indicating
     1319       10                          where in PARSE_IN_BUF to begin putting the next input.
     1320       11                          If IDX=0,  the buffer is blanked out first.
     1321       12                          The M$READ buffer vector is altered to point to the
     1322       13                          correct area in PARSE_IN_BUF and M$READ is called.
     1323       14                          If both M$ME and M$SI are DDEV='IC' then the input is not
     1324       15                          echoed, otherwise it is through M$ME if ECHO is on.
     1325       16                          Any error on M$READ
     1326       17                          aborts the command, any other ALTRET aborts PCL.
     1327       18        */
     1328       19    1   DCL IDX SBIN WORD;
     1329       20        %INCLUDE VP_DATA_R;
     1330     7007        %INCLUDE F$DCB;
     1331     7056        %INCLUDE B_ERRORS_C;
     1332     8183 S      %INCLUDE B$JIT_C;
     1333     8184        %B$TCB;
     1334     8187        %B$ALT;
     1335     8195        %B$JIT0;
     1336     8284        %U$JIT1;
     1337     8358    1         2 * BIT (1);                      /* DON'T NEED REST OF JIT             */
     1338     8359    1   DCL 1 OUT_BUF,
     1339     8360    1         2 PROMPT CHAR(1),
     1340     8361    1         2 CMD CHAR(1024);
     1341     8362        %VP_ENTRIES (OMIT=VPD$GET_INPUT);
     1342     8570        %FPT_READ;
     1343     8609    1           FPT_READ.BUF_   = VECTOR(PARSE_IN_BUF);
     1344     8610    1           PARSE_INPUT_OFFSET = IDX;
     1345     8611    1           IF IDX>0                        /* CONTINUATION?                      */
     1346     8612    1            THEN
PL6.E3A0      #015=VPD$GET_INPUT File=VPD$UTIL.:E05TSI                           WED 07/30/97 07:35 Page:347
     1347     8613    2            DO;                            /* YES...FUTZ THE READ BUF VECTOR*/
     1348     8614    2               FPT_READ.BUF_.BOUND   = FPT_READ.BUF_.BOUND-IDX;
     1349     8615    2               FPT_READ.BUF_.BUF$   = PINCRC(FPT_READ.BUF_.BUF$,IDX);
     1350     8616    2               END;
     1351     8617        /***
     1352     8618         *** SET UP TO SKIP READ IF BREAK ON A REVIEW
     1353     8619         ***/
     1354     8620    1           IF CMD_MASK='000100002'O        /* A REVIEW OR REVIEWSTD              */
     1355     8621    1            THEN
     1356     8622    1              REMEMBER SKIP_READ IN BREAK_LOC;
     1357     8623    1           IF READ_FILE
     1358     8624    1            THEN
     1359     8625    1              FPT_READ.V.DCB# = M$READFILE#;
     1360     8626    1            ELSE
     1361     8627    1              FPT_READ.V.DCB# = M$SI#;
     1362     8628    1   READ_SI: CALL M$READ(FPT_READ) ALTRET(READ_ALT);
     1363     8629    1           BREAK_LOC_BITS = '0'B;          /* Reset Review Break Special Casing  */
     1364     8630    1           IF (NOT M$SI$ -> F$DCB.DDEV.IC  /* If M$SI isn't the user's console   */
     1365     8631    1             OR NOT M$ME$ -> F$DCB.DDEV.UCOUT) /* or M$ME isn't the user console */
     1366     8632    1             AND (B$JIT.CPFLAGS1 & %CP_ECHO#) /* and ECHO is ON                  */
     1367     8633    1            THEN                           /* ECHO the input line                */
     1368     8634    2            DO;
     1369     8635    2               OUT_BUF.PROMPT = '<';
     1370     8636    2               OUT_BUF.CMD = SUBSTR(PARSE_IN_BUF,IDX);
     1371     8637    2               FPT_WRITE_ME.BUF_ = VECTOR(OUT_BUF);
     1372     8638    2               FPT_WRITE_ME.BUF_.BOUND = M$SI$->F$DCB.ARS;
     1373     8639    2               FPT_WRITE_ME.V.DVBYTE.VFC# = '0'B;
     1374     8640    2               CALL M$WRITE(FPT_WRITE_ME);
     1375     8641    2               END;
     1376     8642    1   GET_LEN:PCB.NCHARS = IDX + M$SI$ -> F$DCB.ARS;
     1377     8643    1   SKIP_READ: RETURN;
     1378     8644    1   READ_ALT: IF B$TCB$->B$TCB.ALT$->B$ALT.ERR.CODE=%E$EOF
     1379     8645    1            THEN
     1380     8646    1              IF IDX>0
     1381     8647    1               THEN
     1382     8648    1                 CALL VPL$ERR_PROC(3,10,'04'O);
     1383     8649        /*E* ERROR:   VPD-00010
PL6.E3A0      #015=VPD$GET_INPUT File=VPD$UTIL.:E05TSI                           WED 07/30/97 07:35 Page:348
     1384     8650             MESSAGE: Nothing to continue
     1385     8651        */
     1386     8652    1               ELSE
     1387     8653    1                 IF READ_FILE
     1388     8654    1                  THEN                     /* A READ command just ended          */
     1389     8655    2                  DO;
     1390     8656    2                     CALL M$CLOSE(FPT_CLOSE_READ); /* Quit READing there         */
     1391     8657    2                     READ_FILE = '0'B;     /* READ command no longer active      */
     1392     8658    2                     FPT_READ.V.DCB# = M$SI#;
     1393     8659    2                     GOTO READ_SI;
     1394     8660    2                     END;
     1395     8661    1                  ELSE                     /* A 'true' EOF, exit PCL             */
     1396     8662    2                  DO;
     1397     8663    2                     PARSE_IN_BUF = 'END'; /* Fake an END command                */
     1398     8664    2                     PCB.NCHARS = 3;
     1399     8665    2                     RETURN;
     1400     8666    2                     END;
     1401     8667    1           IF B$TCB$->B$TCB.ALT$->B$ALT.ERR.CODE=%E$LD
     1402     8668    1            THEN
     1403     8669    1              CALL VPL$ERR_PROC(3,20,'04'O);
     1404     8670        /*E* ERROR:   VPD-00020
     1405     8671             MESSAGE: Command too long
     1406     8672            MESSAGE1: Input command may not be greater than 1024 characters
     1407     8673        */
     1408     8674    1           IF M$SI$->F$DCB.DDEV.IC         /* IF HE CAN HEAR US                  */
     1409     8675    1            THEN
     1410     8676    1              CALL VPL$ERR_PROC (3,0);     /* JUST WARN HIM & ABORT CMD          */
     1411     8677    1            ELSE
     1412     8678    1              CALL VPL$ERR_PROC (4,0);     /* BLOW HIM AWAY                      */
     1413     8679    1   END VPD$GET_INPUT;
     1414     8680        %EOD;

PL6.E3A0      #015=VPD$GET_INPUT File=VPD$UTIL.:E05TSI                           WED 07/30/97 07:35 Page:349
--  Include file information  --

   B_ERRORS_C.:E05TOU  is referenced.
   F$DCB.:E05TOU  cannot be made into a system file and is referenced.
   B_MICROPS_C.:E05TOU  is referenced.
   XU_MACRO_C.:E05TOU  is referenced.
   VP_MACRO_C.:E05TOU  is referenced.
   XS_MACRO_C.:E05TOU  is referenced.
   VP_PERR_C.:E05TOU  is referenced.
   CP_6_SUBS.:E05TOU  is referenced.
   CP_6.:E05TOU  cannot be made into a system file and is referenced.
   VP_DATA_R.:E05TOU  cannot be made into a system file and is referenced.
   B$JIT_C.:E05TOU  was found in the system file and is referenced.
   CP_6_C.:E05TOU  was found in the system file and is referenced.
      No diagnostics issued in procedure VPD$GET_INPUT.

   Procedure VPD$GET_INPUT requires 140 words for executable code.
   Procedure VPD$GET_INPUT requires 264 words of local(AUTO) storage.

PL6.E3A0      #015=VPD$GET_INPUT File=VPD$UTIL.:E05TSI                           WED 07/30/97 07:35 Page:350

 Object Unit name= VPD$GET_INPUT                              File name= VPD$UTIL.:E05TOU
 UTS= JUL 30 '97 07:35:00.32 WED                              Compiler= PL-6/E31         Sev=      00
 SharedLib= :SHARED_SYSTEM                                    Alt SharedLib=


    ****  Control sections  ****

 Sect   Type Bound  Init  Size OctSiz  Section name(segment info)
    0   DCB   even  none     0      0  M$UC
    1   DCB   even  none     0      0  M$EI
    2   DCB   even  none     0      0  M$EO
    3   DCB   even  none     0      0  M$EO1
    4   DCB   even  none     0      0  M$ME
    5   DCB   even  none     0      0  M$SI
    6   DCB   even  none     0      0  M$READFILE
    7   DCB   even  none     0      0  M$DO
    8   DCB   even  none     0      0  M$STD1
    9   DCB   even  none     0      0  M$SORT1
   10   Data  even  none    14     16  VPD$GET_INPUT
   11  RoData even  UTS      2      2  VPD$GET_INPUT
   12   Proc  even  none   140    214  VPD$GET_INPUT
   13  RoData even  none    16     20  VPD$GET_INPUT

    ****  Entry defs  ****

                              Check   Calling
                             calling  sequence
  Sect OctLoc Primary Altret sequence   type   Parms  Name
    12      0   yes            yes      Std        1  VPD$GET_INPUT
PL6.E3A0      #015=VPD$GET_INPUT File=VPD$UTIL.:E05TSI                           WED 07/30/97 07:35 Page:351

  ****  Entry refs  ****

         Check        Calling
        calling       sequence
Altret sequence SRef   type   Args  Name
         yes           Std       8 VPL$ERR_PROC
                       Std       0 B_CONSPOOL_D
                       nStd      0 X66_AUTO_1
                       nStd      0 X66_ARET

  ****  Data refs  ****

  Flags:  r = read only, s = secondary
Flgs Name                             Flgs Name                             Flgs Name
     M$UC                                  PARSE_IN_BUF                          PARSE_INPUT_OFFSET
     READ_FILE                             PCB                                   BREAK_LOC
     BREAK_MESSAGE_REPORTER                CMD_MASK                              SPEC_BUF
     IN_RES                                M$EI                                  M$EO
     M$EO1                                 M$ME                                  M$ME$
     M$SI                                  M$SI$                                 M$SI#
     M$READFILE                            M$READFILE#                           M$DO
     M$STD1                                M$SORT1                               B$TCB$
     B$JIT$                                FPT_WRITE_ME                     r    FPT_CLOSE_READ
     B_VECTNIL

  ****  Segment refs  ****

  Flags:  r = read only, s = secondary
Flgs Name                             Flgs Name                             Flgs Name
     ISSID                                 NULLSID
PL6.E3A0      #015=VPD$GET_INPUT File=VPD$UTIL.:E05TSI                           WED 07/30/97 07:35 Page:352


     1310        1        /*T***********************************************************/
     1311        2        /*T*                                                         */
     1312        3        /*T* Copyright (c) Bull HN Information Systems Inc., 1997    */
     1313        4        /*T*                                                         */
     1314        5        /*T***********************************************************/
     1315        6        VPD$GET_INPUT: PROC(IDX);

      6 12 000000   000000 700200 xent  VPD$GET_INP* TSX0  ! X66_AUTO_1
        12 000001   000410 000001                    ZERO    264,1

     1316        7        /*D* NAME: VPD$GET_INPUT
     1317        8             CALL: CALL VPD$GET_INPUT(IDX);
     1318        9             DESCRIPTION: GET_INPUT is called with IDX  (SBIN WORD) indicating
     1319       10                          where in PARSE_IN_BUF to begin putting the next input.
     1320       11                          If IDX=0,  the buffer is blanked out first.
     1321       12                          The M$READ buffer vector is altered to point to the
     1322       13                          correct area in PARSE_IN_BUF and M$READ is called.
     1323       14                          If both M$ME and M$SI are DDEV='IC' then the input is not
     1324       15                          echoed, otherwise it is through M$ME if ECHO is on.
     1325       16                          Any error on M$READ
     1326       17                          aborts the command, any other ALTRET aborts PCL.
     1327       18        */
     1328       19    1   DCL IDX SBIN WORD;
     1329       20        %INCLUDE VP_DATA_R;
     1330     7007        %INCLUDE F$DCB;
     1331     7056        %INCLUDE B_ERRORS_C;
     1332     8183 S      %INCLUDE B$JIT_C;
     1333     8184        %B$TCB;
     1334     8187        %B$ALT;
     1335     8195        %B$JIT0;
     1336     8284        %U$JIT1;
     1337     8358    1         2 * BIT (1);                      /* DON'T NEED REST OF JIT             */
     1338     8359    1   DCL 1 OUT_BUF,
     1339     8360    1         2 PROMPT CHAR(1),
     1340     8361    1         2 CMD CHAR(1024);
     1341     8362        %VP_ENTRIES (OMIT=VPD$GET_INPUT);
PL6.E3A0      #015=VPD$GET_INPUT File=VPD$UTIL.:E05TSI                           WED 07/30/97 07:35 Page:353
     1342     8570        %FPT_READ;
     1343     8609    1           FPT_READ.BUF_   = VECTOR(PARSE_IN_BUF);

   8609 12 000002   000000 237000 13                 LDAQ    0
        12 000003   000004 757000 10                 STAQ    FPT_READ+4

     1344     8610    1           PARSE_INPUT_OFFSET = IDX;

   8610 12 000004   200003 470500                    LDP0    @IDX,,AUTO
        12 000005   000000 235100                    LDA     0,,PR0
        12 000006   000000 755000 xsym               STA     PARSE_INPUT_OFFSET

     1345     8611    1           IF IDX>0                        /* CONTINUATION?                      */

   8611 12 000007   000000 235100                    LDA     0,,PR0
        12 000010   000024 604400 12                 TMOZ    s:8620

     1346     8612    1            THEN
     1347     8613    2            DO;                            /* YES...FUTZ THE READ BUF VECTOR*/

     1348     8614    2               FPT_READ.BUF_.BOUND   = FPT_READ.BUF_.BOUND-IDX;

   8614 12 000011   000004 236000 10                 LDQ     FPT_READ+4
        12 000012   000020 772000                    QRL     16
        12 000013   000000 136100                    SBLQ    0,,PR0
        12 000014   000020 736000                    QLS     16
        12 000015   000004 676000 10                 ERQ     FPT_READ+4
        12 000016   000034 376000 xsym               ANQ     B_VECTNIL+28
        12 000017   000004 656000 10                 ERSQ    FPT_READ+4

     1349     8615    2               FPT_READ.BUF_.BUF$   = PINCRC(FPT_READ.BUF_.BUF$,IDX);

   8615 12 000020   000000 236100                    LDQ     0,,PR0
        12 000021   000020 736000                    QLS     16
        12 000022   000005 036000 10                 ADLQ    FPT_READ+5
        12 000023   000005 756000 10                 STQ     FPT_READ+5

PL6.E3A0      #015=VPD$GET_INPUT File=VPD$UTIL.:E05TSI                           WED 07/30/97 07:35 Page:354
     1350     8616    2               END;

     1351     8617        /***
     1352     8618         *** SET UP TO SKIP READ IF BREAK ON A REVIEW
     1353     8619         ***/
     1354     8620    1           IF CMD_MASK='000100002'O        /* A REVIEW OR REVIEWSTD              */

   8620 12 000024   000000 106400                    CMPC    fill='000'O
        12 000025   000000 000010 xsym               ADSC9   CMD_MASK                 cn=0,n=8
        12 000026   000000 000003 11                 ADSC9   0                        cn=0,n=3
        12 000027   000033 601000 12                 TNZ     s:8623

     1355     8621    1            THEN
     1356     8622    1              REMEMBER SKIP_READ IN BREAK_LOC;

   8622 12 000030   000126 635000 12                 EAA     SKIP_READ
        12 000031   000000 452400 xsym               STP2    BREAK_LOC
        12 000032   000001 755000 xsym               STA     BREAK_LOC+1

     1357     8623    1           IF READ_FILE

   8623 12 000033   000000 234000 xsym               SZN     READ_FILE
        12 000034   000040 605000 12                 TPL     s:8627

     1358     8624    1            THEN
     1359     8625    1              FPT_READ.V.DCB# = M$READFILE#;

   8625 12 000035   000000 720000 xsym               LXL0    M$READFILE#
        12 000036   000010 740000 10                 STX0    FPT_READ+8
        12 000037   000042 710000 12                 TRA     READ_SI

     1360     8626    1            ELSE
     1361     8627    1              FPT_READ.V.DCB# = M$SI#;

   8627 12 000040   000000 720000 xsym               LXL0    M$SI#
        12 000041   000010 740000 10                 STX0    FPT_READ+8

PL6.E3A0      #015=VPD$GET_INPUT File=VPD$UTIL.:E05TSI                           WED 07/30/97 07:35 Page:355
     1362     8628    1   READ_SI: CALL M$READ(FPT_READ) ALTRET(READ_ALT);

   8628 12 000042   000000 630400 10    READ_SI      EPPR0   FPT_READ
        12 000043   440000 713400                    CLIMB   alt,read
        12 000044   401400 401760                    pmme    nvectors=4
        12 000045   000127 702000 12                 TSX2    READ_ALT

     1363     8629    1           BREAK_LOC_BITS = '0'B;          /* Reset Review Break Special Casing  */

   8629 12 000046   000000 235003                    LDA     0,DU
        12 000047   000000 236003                    LDQ     0,DU
        12 000050   000000 757000 xsym               STAQ    BREAK_LOC

     1364     8630    1           IF (NOT M$SI$ -> F$DCB.DDEV.IC  /* If M$SI isn't the user's console   */

   8630 12 000051   000000 470400 xsym               LDP0    M$SI$
        12 000052   000004 236100                    LDQ     4,,PR0
        12 000053   100000 316007                    CANQ    32768,DL
        12 000054   000061 600000 12                 TZE     s:8630+8
        12 000055   000000 471400 xsym               LDP1    M$ME$
        12 000056   100004 236100                    LDQ     4,,PR1
        12 000057   020000 316007                    CANQ    8192,DL
        12 000060   000121 601000 12                 TNZ     GET_LEN
        12 000061   000000 471400 xsym               LDP1    B$JIT$
        12 000062   100143 236100                    LDQ     99,,PR1
        12 000063   000012 376000 xsym               ANQ     B_VECTNIL+10
        12 000064   000121 600000 12                 TZE     GET_LEN

     1365     8631    1             OR NOT M$ME$ -> F$DCB.DDEV.UCOUT) /* or M$ME isn't the user console */
     1366     8632    1             AND (B$JIT.CPFLAGS1 & %CP_ECHO#) /* and ECHO is ON                  */
     1367     8633    1            THEN                           /* ECHO the input line                */
     1368     8634    2            DO;

     1369     8635    2               OUT_BUF.PROMPT = '<';

   8635 12 000065   074000 236003                    LDQ     30720,DU
        12 000066   200004 552140                    STBQ    OUT_BUF,'40'O,AUTO
PL6.E3A0      #015=VPD$GET_INPUT File=VPD$UTIL.:E05TSI                           WED 07/30/97 07:35 Page:356

     1370     8636    2               OUT_BUF.CMD = SUBSTR(PARSE_IN_BUF,IDX);

   8636 12 000067   200003 473500                    LDP3    @IDX,,AUTO
        12 000070   300000 235100                    LDA     0,,PR3
        12 000071   200406 755100                    STA     OUT_BUF+258,,AUTO
        12 000072   300000 235100                    LDA     0,,PR3
        12 000073   000027 675000 xsym               ERA     B_VECTNIL+23
        12 000074   002001 035007                    ADLA    1025,DL
        12 000075   000000 620005                    EAX0    0,AL
        12 000076   200406 235100                    LDA     OUT_BUF+258,,AUTO
        12 000077   040100 100445                    MLR     fill='040'O
        12 000100   000000 000010 xsym               ADSC9   PARSE_IN_BUF,A           cn=0,n=*X0
        12 000101   200004 202000                    ADSC9   OUT_BUF,,AUTO            cn=1,n=1024

     1371     8637    2               FPT_WRITE_ME.BUF_ = VECTOR(OUT_BUF);

   8637 12 000102   000002 235000 13                 LDA     2
        12 000103   200406 452500                    STP2    OUT_BUF+258,,AUTO
        12 000104   200406 236100                    LDQ     OUT_BUF+258,,AUTO
        12 000105   000004 036003                    ADLQ    4,DU
        12 000106   000004 757000 xsym               STAQ    FPT_WRITE_ME+4

     1372     8638    2               FPT_WRITE_ME.BUF_.BOUND = M$SI$->F$DCB.ARS;

   8638 12 000107   000000 236100                    LDQ     0,,PR0
        12 000110   000020 736000                    QLS     16
        12 000111   000004 676000 xsym               ERQ     FPT_WRITE_ME+4
        12 000112   000034 376000 xsym               ANQ     B_VECTNIL+28
        12 000113   000004 656000 xsym               ERSQ    FPT_WRITE_ME+4

     1373     8639    2               FPT_WRITE_ME.V.DVBYTE.VFC# = '0'B;

   8639 12 000114   000003 236000 13                 LDQ     3
        12 000115   000013 356000 xsym               ANSQ    FPT_WRITE_ME+11

     1374     8640    2               CALL M$WRITE(FPT_WRITE_ME);
PL6.E3A0      #015=VPD$GET_INPUT File=VPD$UTIL.:E05TSI                           WED 07/30/97 07:35 Page:357

   8640 12 000116   000000 630400 xsym               EPPR0   FPT_WRITE_ME
        12 000117   040001 713400                    CLIMB   write
        12 000120   401400 401760                    pmme    nvectors=4

     1375     8641    2               END;

     1376     8642    1   GET_LEN:PCB.NCHARS = IDX + M$SI$ -> F$DCB.ARS;

   8642 12 000121   200003 470500       GET_LEN      LDP0    @IDX,,AUTO
        12 000122   000000 471400 xsym               LDP1    M$SI$
        12 000123   000000 236100                    LDQ     0,,PR0
        12 000124   100000 036100                    ADLQ    0,,PR1
        12 000125   000011 756000 xsym               STQ     PCB+9

     1377     8643    1   SKIP_READ: RETURN;

   8643 12 000126   000000 702200 xent  SKIP_READ    TSX2  ! X66_ARET

     1378     8644    1   READ_ALT: IF B$TCB$->B$TCB.ALT$->B$ALT.ERR.CODE=%E$EOF

   8644 12 000127   000000 470400 xsym  READ_ALT     LDP0    B$TCB$
        12 000130   000000 471500                    LDP1    0,,PR0
        12 000131   100102 236100                    LDQ     66,,PR1
        12 000132   377770 376007                    ANQ     131064,DL
        12 000133   000060 116007                    CMPQ    48,DL
        12 000134   000164 601000 12                 TNZ     s:8667

     1379     8645    1            THEN
     1380     8646    1              IF IDX>0

   8646 12 000135   200003 473500                    LDP3    @IDX,,AUTO
        12 000136   300000 235100                    LDA     0,,PR3
        12 000137   000145 604400 12                 TMOZ    s:8653

     1381     8647    1               THEN
     1382     8648    1                 CALL VPL$ERR_PROC(3,10,'04'O);
PL6.E3A0      #015=VPD$GET_INPUT File=VPD$UTIL.:E05TSI                           WED 07/30/97 07:35 Page:358

   8648 12 000140   000005 630400 13                 EPPR0   5
        12 000141   000021 631400 xsym               EPPR1   B_VECTNIL+17
        12 000142   000000 701000 xent               TSX1    VPL$ERR_PROC
        12 000143   000000 011000                    NOP     0
        12 000144   000164 710000 12                 TRA     s:8667

     1383     8649        /*E* ERROR:   VPD-00010
     1384     8650             MESSAGE: Nothing to continue
     1385     8651        */
     1386     8652    1               ELSE
     1387     8653    1                 IF READ_FILE

   8653 12 000145   000000 234000 xsym               SZN     READ_FILE
        12 000146   000156 605000 12                 TPL     s:8663

     1388     8654    1                  THEN                     /* A READ command just ended          */
     1389     8655    2                  DO;

     1390     8656    2                     CALL M$CLOSE(FPT_CLOSE_READ); /* Quit READing there         */

   8656 12 000147   000000 630400 xsym               EPPR0   FPT_CLOSE_READ
        12 000150   050001 713400                    CLIMB   close
        12 000151   406000 401760                    pmme    nvectors=13

     1391     8657    2                     READ_FILE = '0'B;     /* READ command no longer active      */

   8657 12 000152   000000 450000 xsym               STZ     READ_FILE

     1392     8658    2                     FPT_READ.V.DCB# = M$SI#;

   8658 12 000153   000000 720000 xsym               LXL0    M$SI#
        12 000154   000010 740000 10                 STX0    FPT_READ+8

     1393     8659    2                     GOTO READ_SI;

   8659 12 000155   000042 710000 12                 TRA     READ_SI
PL6.E3A0      #015=VPD$GET_INPUT File=VPD$UTIL.:E05TSI                           WED 07/30/97 07:35 Page:359

     1394     8660    2                     END;
     1395     8661    1                  ELSE                     /* A 'true' EOF, exit PCL             */
     1396     8662    2                  DO;

     1397     8663    2                     PARSE_IN_BUF = 'END'; /* Fake an END command                */

   8663 12 000156   040000 100400                    MLR     fill='040'O
        12 000157   000001 000003 11                 ADSC9   1                        cn=0,n=3
        12 000160   000000 002000 xsym               ADSC9   PARSE_IN_BUF             cn=0,n=1024

     1398     8664    2                     PCB.NCHARS = 3;

   8664 12 000161   000003 235007                    LDA     3,DL
        12 000162   000011 755000 xsym               STA     PCB+9

     1399     8665    2                     RETURN;

   8665 12 000163   000000 702200 xent               TSX2  ! X66_ARET

     1400     8666    2                     END;
     1401     8667    1           IF B$TCB$->B$TCB.ALT$->B$ALT.ERR.CODE=%E$LD

   8667 12 000164   000000 470400 xsym               LDP0    B$TCB$
        12 000165   000000 471500                    LDP1    0,,PR0
        12 000166   100102 236100                    LDQ     66,,PR1
        12 000167   377770 376007                    ANQ     131064,DL
        12 000170   000070 116007                    CMPQ    56,DL
        12 000171   000176 601000 12                 TNZ     s:8674

     1402     8668    1            THEN
     1403     8669    1              CALL VPL$ERR_PROC(3,20,'04'O);

   8669 12 000172   000011 630400 13                 EPPR0   9
        12 000173   000021 631400 xsym               EPPR1   B_VECTNIL+17
        12 000174   000000 701000 xent               TSX1    VPL$ERR_PROC
        12 000175   000000 011000                    NOP     0
PL6.E3A0      #015=VPD$GET_INPUT File=VPD$UTIL.:E05TSI                           WED 07/30/97 07:35 Page:360

     1404     8670        /*E* ERROR:   VPD-00020
     1405     8671             MESSAGE: Command too long
     1406     8672            MESSAGE1: Input command may not be greater than 1024 characters
     1407     8673        */
     1408     8674    1           IF M$SI$->F$DCB.DDEV.IC         /* IF HE CAN HEAR US                  */

   8674 12 000176   000000 470400 xsym               LDP0    M$SI$
        12 000177   000004 236100                    LDQ     4,,PR0
        12 000200   100000 316007                    CANQ    32768,DL
        12 000201   000207 600000 12                 TZE     s:8678

     1409     8675    1            THEN
     1410     8676    1              CALL VPL$ERR_PROC (3,0);     /* JUST WARN HIM & ABORT CMD          */

   8676 12 000202   000014 630400 13                 EPPR0   12
        12 000203   000020 631400 xsym               EPPR1   B_VECTNIL+16
        12 000204   000000 701000 xent               TSX1    VPL$ERR_PROC
        12 000205   000000 011000                    NOP     0
        12 000206   000213 710000 12                 TRA     s:8679

     1411     8677    1            ELSE
     1412     8678    1              CALL VPL$ERR_PROC (4,0);     /* BLOW HIM AWAY                      */

   8678 12 000207   000016 630400 13                 EPPR0   14
        12 000210   000020 631400 xsym               EPPR1   B_VECTNIL+16
        12 000211   000000 701000 xent               TSX1    VPL$ERR_PROC
        12 000212   000000 011000                    NOP     0

     1413     8679    1   END VPD$GET_INPUT;

   8679 12 000213   000000 702200 xent               TSX2  ! X66_ARET
     1414     8680        %EOD;

PL6.E3A0      #015=VPD$GET_INPUT File=VPD$UTIL.:E05TSI                           WED 07/30/97 07:35 Page:361
--  Include file information  --

   B_ERRORS_C.:E05TOU  is referenced.
   F$DCB.:E05TOU  cannot be made into a system file and is referenced.
   B_MICROPS_C.:E05TOU  is referenced.
   XU_MACRO_C.:E05TOU  is referenced.
   VP_MACRO_C.:E05TOU  is referenced.
   XS_MACRO_C.:E05TOU  is referenced.
   VP_PERR_C.:E05TOU  is referenced.
   CP_6_SUBS.:E05TOU  is referenced.
   CP_6.:E05TOU  cannot be made into a system file and is referenced.
   VP_DATA_R.:E05TOU  cannot be made into a system file and is referenced.
   B$JIT_C.:E05TOU  was found in the system file and is referenced.
   CP_6_C.:E05TOU  was found in the system file and is referenced.
      No diagnostics issued in procedure VPD$GET_INPUT.
PL6.E3A0      #015=VPD$GET_INPUT File=VPD$UTIL.:E05TSI                           WED 07/30/97 07:35 Page:362

 **** Variables and constants ****

  ****  Section 010  Data  VPD$GET_INPUT

  ****  Scalars and arrays  ****
OctLoc.c.b A Datatyp(siz) R M Lvl/name                 OctLoc.c.b A Datatyp(siz) R M Lvl/name

     0-0-0/d STRC(504)   r     1 FPT_READ

  ****  Auto variables  ****

  ****  Scalars and arrays  ****
OctLoc.c.b A Datatyp(siz) R M Lvl/name                 OctLoc.c.b A Datatyp(siz) R M Lvl/name

     3-0-0/w PTR         r     1 @IDX                      *0-0-0/w SBIN        r     1 IDX
     4-0-0/c STRC(9225)  r     1 OUT_BUF

  ****  SYMREF variables  ****

  ****  Scalars and arrays  ****
OctLoc.c.b A Datatyp(siz) R M Lvl/name                 OctLoc.c.b A Datatyp(siz) R M Lvl/name

     0-0-0/w PTR         r     1 B$JIT$                     0-0-0/w PTR         r     1 B$TCB$
     0-0-0/d REMB        r     1 BREAK_LOC                  0-0-0/d BIT (72)    r     1 BREAK_LOC_BITS
     0-0-0/w EPTR        r     1 BREAK_MESSAGE_REPORTER
     0-0-0/b BIT         r     1 CMD_MASK(0:71)
     0-0-0/d STRC(1080)  r     1 FPT_CLOSE_READ             0-0-0/d STRC(432)   r     1 FPT_WRITE_ME
     0-0-0/w PTR         r     1 M$ME$                      0-0-0/w SBIN        r     1 M$READFILE#
     0-0-0/w SBIN        r     1 M$SI#                      0-0-0/w PTR         r     1 M$SI$
     0-0-0/w SBIN        r     1 PARSE_INPUT_OFFSET         0-0-0/c CHAR(1024)  r     1 PARSE_IN_BUF
     0-0-0/w STRC(504)   r     1 PCB                        0-0-0/b BIT         r     1 READ_FILE

  ****  BASED and DCB variables  ****

  ****  Scalars and arrays  ****
OctLoc.c.b A Datatyp(siz) R M Lvl/name                 OctLoc.c.b A Datatyp(siz) R M Lvl/name

PL6.E3A0      #015=VPD$GET_INPUT File=VPD$UTIL.:E05TSI                           WED 07/30/97 07:35 Page:363
     0-0-0/w STRC(2448)  r     1 B$ALT                      0-0-0/d STRC(4537)  r     1 B$JIT
     0-0-0/w STRC(144)   r     1 B$TCB                      0-0-0/d ASTR(3528)  r     1 F$DCB


   Procedure VPD$GET_INPUT requires 140 words for executable code.
   Procedure VPD$GET_INPUT requires 264 words of local(AUTO) storage.
PL6.E3A0      #015=VPD$GET_INPUT File=VPD$UTIL.:E05TSI                           WED 07/30/97 07:35 Page:364
          *** CROSS REFERENCE LISTING ***
**     DENOTES     IDENTIFIER DEFINITION
<<                 IDENTIFIER'S VALUE SET
>>                 IDENTIFIER'S VALUE USED
<>                 IDENTIFIER SET AND/OR USED
--                 IDENTIFIER REFERENCED
PL6.E3A0      #015=VPD$GET_INPUT File=VPD$UTIL.:E05TSI                           WED 07/30/97 07:35 Page:365
          MINI XREF LISTING

B$ALT.CODE
      8189**DCL      8189--REDEF    8190--REDEF    8190--REDEF
B$ALT.ERR.CODE
      8191**DCL      8644>>IF       8667>>IF
B$ALT.ERR.ERR#
      8191**DCL      8191--REDEF
B$ALT.EVID
      8190**DCL      8190--REDEF    8190--REDEF
B$JIT.CPFLAGS1
      8290**DCL      8630>>IF
B$JIT.CPFLAGS1.SLEAZE
      8295**DCL      8295--REDEF
B$JIT.ERR.MID
      8202**DCL      8202--REDEF
B$JIT$
      5992**DCL      8196--IMP-PTR  8630>>IF
B$TCB.ALT$
      8185**DCL      8644>>IF       8667>>IF
B$TCB$
      5992**DCL      8644>>IF       8667>>IF
BREAK_LOC
      5227**DCL      5227--REDEF    8622<<REMEMBR
BREAK_LOC_BITS
      5227**DCL      8629<<ASSIGN
CMD_MASK
      5229**DCL      8620>>IF
DEF_ICB.FID.STRING
      5825**DCL      5826--REDEF
DEV_ICB.FID.STRING
      5711**DCL      5712--REDEF
EI_KEY.KEY
      5923**DCL      5923--REDEF    5923--REDEF    5923--REDEF
PL6.E3A0      #015=VPD$GET_INPUT File=VPD$UTIL.:E05TSI                           WED 07/30/97 07:35 Page:366
EO_OCB.TYPE
      5423**DCL      5424--REDEF
F$DCB.ACTPOS
      7033**DCL      7033--REDEF
F$DCB.ARS
      7008**DCL      7008--REDEF    8638>>ASSIGN   8642>>ASSIGN
F$DCB.ATTR
      7026**DCL      7027--REDEF
F$DCB.BORROW
      7041**DCL      7041--REDEF    7041--REDEF    7041--REDEF
F$DCB.DCBNAME.L
      7055**DCL      7055--IMP-SIZ
F$DCB.DDEV.IC
      7014**DCL      8630>>IF       8674>>IF
F$DCB.DDEV.UCOUT
      7014**DCL      8630>>IF
F$DCB.EOMCHAR
      7012**DCL      7012--REDEF
F$DCB.FLDID
      7036**DCL      7036--REDEF
F$DCB.FORM$
      7030**DCL      7030--REDEF
F$DCB.FSECT
      7046**DCL      7046--REDEF
F$DCB.FSN
      7023**DCL      7023--REDEF    7023--REDEF    7024--REDEF
F$DCB.HEADER$
      7029**DCL      7029--REDEF
F$DCB.IXTNSIZE
      7027**DCL      7027--REDEF
F$DCB.LASTSTA$
      7017**DCL      7017--REDEF
F$DCB.LVL
      7042**DCL      7042--REDEF
F$DCB.NAME.C
      7017**DCL      7017--REDEF
PL6.E3A0      #015=VPD$GET_INPUT File=VPD$UTIL.:E05TSI                           WED 07/30/97 07:35 Page:367
F$DCB.NOEOF
      7038**DCL      7038--REDEF
F$DCB.NRECS
      7028**DCL      7028--REDEF
F$DCB.NRECX
      7047**DCL      7047--REDEF
F$DCB.OHDR
      7039**DCL      7039--REDEF
F$DCB.ORG
      7022**DCL      7022--REDEF
F$DCB.PRECNO
      7045**DCL      7045--REDEF
F$DCB.RCSZ
      7050**DCL      7050--REDEF
F$DCB.RES
      7018**DCL      7018--REDEF
F$DCB.SETX
      7030**DCL      7030--REDEF
F$DCB.TAB$
      7029**DCL      7030--REDEF
F$DCB.TDA
      7044**DCL      7044--REDEF
F$DCB.WSN
      7019**DCL      7019--REDEF
FPT_CLOSE_EI.SN_
      6764**DCL      6764--REDEF
FPT_CLOSE_EI.UTL_
      6765**DCL      6765--REDEF
FPT_CLOSE_EI.V.EXPIRE#
      6779**DCL      6779--REDEF
FPT_CLOSE_EI.V.TYPE#
      6777**DCL      6777--REDEF
FPT_CLOSE_EI.V.XTNSIZE#
      6774**DCL      6774--REDEF    6776--REDEF
FPT_CLOSE_PTL.SN_
      6890**DCL      6890--REDEF
PL6.E3A0      #015=VPD$GET_INPUT File=VPD$UTIL.:E05TSI                           WED 07/30/97 07:35 Page:368
FPT_CLOSE_PTL.UTL_
      6891**DCL      6891--REDEF
FPT_CLOSE_PTL.V.EXPIRE#
      6905**DCL      6905--REDEF
FPT_CLOSE_PTL.V.TYPE#
      6903**DCL      6903--REDEF
FPT_CLOSE_PTL.V.XTNSIZE#
      6900**DCL      6900--REDEF    6902--REDEF
FPT_CLOSE_READ
      6806**DCL      8656<>CALL
FPT_CLOSE_READ.SN_
      6806**DCL      6806--REDEF
FPT_CLOSE_READ.UTL_
      6807**DCL      6807--REDEF
FPT_CLOSE_READ.V.EXPIRE#
      6821**DCL      6821--REDEF
FPT_CLOSE_READ.V.TYPE#
      6819**DCL      6819--REDEF
FPT_CLOSE_READ.V.XTNSIZE#
      6816**DCL      6816--REDEF    6818--REDEF
FPT_CLOSE_SI.SN_
      6974**DCL      6974--REDEF
FPT_CLOSE_SI.UTL_
      6975**DCL      6975--REDEF
FPT_CLOSE_SI.V.EXPIRE#
      6989**DCL      6989--REDEF
FPT_CLOSE_SI.V.TYPE#
      6987**DCL      6987--REDEF
FPT_CLOSE_SI.V.XTNSIZE#
      6984**DCL      6984--REDEF    6986--REDEF
FPT_CLOSE_STD.SN_
      6932**DCL      6932--REDEF
FPT_CLOSE_STD.UTL_
      6933**DCL      6933--REDEF
FPT_CLOSE_STD.V.EXPIRE#
      6947**DCL      6947--REDEF
PL6.E3A0      #015=VPD$GET_INPUT File=VPD$UTIL.:E05TSI                           WED 07/30/97 07:35 Page:369
FPT_CLOSE_STD.V.TYPE#
      6945**DCL      6945--REDEF
FPT_CLOSE_STD.V.XTNSIZE#
      6942**DCL      6942--REDEF    6944--REDEF
FPT_CLSEI_FT.SN_
      6848**DCL      6848--REDEF
FPT_CLSEI_FT.UTL_
      6849**DCL      6849--REDEF
FPT_CLSEI_FT.V.EXPIRE#
      6863**DCL      6863--REDEF
FPT_CLSEI_FT.V.TYPE#
      6861**DCL      6861--REDEF
FPT_CLSEI_FT.V.XTNSIZE#
      6858**DCL      6858--REDEF    6860--REDEF
FPT_OPEN_EI.ACSVEH_
      6419**DCL      6420--REDEF
FPT_OPEN_EI.ALTKEYS_
      6425**DCL      6426--REDEF    6426--REDEF
FPT_OPEN_EI.HDR_
      6424**DCL      6425--REDEF
FPT_OPEN_EI.TAB_
      6423**DCL      6424--REDEF
FPT_OPEN_EI.UHL_
      6417**DCL      6418--REDEF    6418--REDEF
FPT_OPEN_EI.V.FSN#
      6457**DCL      6457--REDEF    6457--REDEF
FPT_OPEN_EI.WSN_
      6423**DCL      6423--REDEF
FPT_OPEN_EI_SAVE.ACSVEH_
      6528**DCL      6529--REDEF
FPT_OPEN_EI_SAVE.ALTKEYS_
      6534**DCL      6535--REDEF    6535--REDEF
FPT_OPEN_EI_SAVE.HDR_
      6533**DCL      6534--REDEF
FPT_OPEN_EI_SAVE.TAB_
      6532**DCL      6533--REDEF
PL6.E3A0      #015=VPD$GET_INPUT File=VPD$UTIL.:E05TSI                           WED 07/30/97 07:35 Page:370
FPT_OPEN_EI_SAVE.UHL_
      6526**DCL      6527--REDEF    6527--REDEF
FPT_OPEN_EI_SAVE.V.FSN#
      6566**DCL      6566--REDEF    6566--REDEF
FPT_OPEN_EI_SAVE.WSN_
      6532**DCL      6532--REDEF
FPT_OPEN_OUT.ACSVEH_
      6310**DCL      6311--REDEF
FPT_OPEN_OUT.ALTKEYS_
      6316**DCL      6317--REDEF    6317--REDEF
FPT_OPEN_OUT.HDR_
      6315**DCL      6316--REDEF
FPT_OPEN_OUT.TAB_
      6314**DCL      6315--REDEF
FPT_OPEN_OUT.UHL_
      6308**DCL      6309--REDEF    6309--REDEF
FPT_OPEN_OUT.V.FSN#
      6348**DCL      6348--REDEF    6348--REDEF
FPT_OPEN_OUT.WSN_
      6314**DCL      6314--REDEF
FPT_OPEN_OUT_SAVE.ACSVEH_
      6201**DCL      6202--REDEF
FPT_OPEN_OUT_SAVE.ALTKEYS_
      6207**DCL      6208--REDEF    6208--REDEF
FPT_OPEN_OUT_SAVE.HDR_
      6206**DCL      6207--REDEF
FPT_OPEN_OUT_SAVE.TAB_
      6205**DCL      6206--REDEF
FPT_OPEN_OUT_SAVE.UHL_
      6199**DCL      6200--REDEF    6200--REDEF
FPT_OPEN_OUT_SAVE.V.FSN#
      6239**DCL      6239--REDEF    6239--REDEF
FPT_OPEN_OUT_SAVE.WSN_
      6205**DCL      6205--REDEF
FPT_READ
      8587**DCL      8628<>CALL
PL6.E3A0      #015=VPD$GET_INPUT File=VPD$UTIL.:E05TSI                           WED 07/30/97 07:35 Page:371
FPT_READ.BUF_
      8589**DCL      8609<<ASSIGN
FPT_READ.BUF_.BOUND
      8589**DCL      8614<<ASSIGN   8614>>ASSIGN
FPT_READ.BUF_.BUF$
      8590**DCL      8615<<ASSIGN   8615>>ASSIGN
FPT_READ.STATION_
      8590**DCL      8591--REDEF
FPT_READ.V
      8591**DCL      8587--DCLINIT
FPT_READ.V.DCB#
      8591**DCL      8625<<ASSIGN   8627<<ASSIGN   8658<<ASSIGN
FPT_READ.V.DVBYTE.REREAD#
      8602**DCL      8602--REDEF
FPT_READ.V.INDX#
      8600**DCL      8600--REDEF
FPT_READ_STD.STATION_
      6629**DCL      6630--REDEF
FPT_READ_STD.V.DVBYTE.REREAD#
      6641**DCL      6641--REDEF
FPT_READ_STD.V.INDX#
      6639**DCL      6639--REDEF
FPT_READ_UC.STATION_
      6590**DCL      6591--REDEF
FPT_READ_UC.V.DVBYTE.REREAD#
      6602**DCL      6602--REDEF
FPT_READ_UC.V.INDX#
      6600**DCL      6600--REDEF
FPT_WRITE_ME
      6696**DCL      8640<>CALL
FPT_WRITE_ME.BUF_
      6696**DCL      8637<<ASSIGN
FPT_WRITE_ME.BUF_.BOUND
      6696**DCL      8638<<ASSIGN
FPT_WRITE_ME.STATION_
      6698**DCL      6698--REDEF
PL6.E3A0      #015=VPD$GET_INPUT File=VPD$UTIL.:E05TSI                           WED 07/30/97 07:35 Page:372
FPT_WRITE_ME.V.DVBYTE.VFC#
      6705**DCL      6705--REDEF    8639<<ASSIGN
FPT_WRITE_OUT.STATION_
      6729**DCL      6729--REDEF
FPT_WRITE_OUT.V.DVBYTE.VFC#
      6736**DCL      6736--REDEF
FPT_WRITE_UC.STATION_
      6667**DCL      6667--REDEF
FPT_WRITE_UC.V.DVBYTE.VFC#
      6674**DCL      6674--REDEF
FROM_SN.SN
      5573**DCL      5574--REDEF
GETCMD.OUT$
      4780**DCL      4786--REDEF
ICB.FID.STRING
      5597**DCL      5598--REDEF
IDX
        19**DCL         6--PROC     8610>>ASSIGN   8611>>IF       8614>>ASSIGN   8615>>ASSIGN   8636>>ASSIGN
      8642>>ASSIGN   8646>>IF
IFSFA_PARAM.EOMCHAR#
      5952**DCL      5953--REDEF
IFSFA_PARAM.SIG1
      5946**DCL      5946--REDEF
IFSFA_PARAM.SIG2
      5946**DCL      5947--REDEF
IN_RES
      5519**DCL      5519--REDEF
IN_SN.SN
      5535**DCL      5536--REDEF
M$CLOSE
        37**DCL-ENT  8656--CALL
M$ME$
      5989**DCL      8630>>IF
M$READ
        38**DCL-ENT  8628--CALL
M$READFILE#
PL6.E3A0      #015=VPD$GET_INPUT File=VPD$UTIL.:E05TSI                           WED 07/30/97 07:35 Page:373
      5990**DCL      8625>>ASSIGN
M$SI#
      5990**DCL      8627>>ASSIGN   8658>>ASSIGN
M$SI$
      5989**DCL      8630>>IF       8638>>ASSIGN   8642>>ASSIGN   8674>>IF
M$WRITE
        38**DCL-ENT  8640--CALL
OCB.TYPE
      5281**DCL      5282--REDEF
OFSFA_PARAM.EOMCHAR#
      5982**DCL      5983--REDEF
OFSFA_PARAM.SIG1
      5976**DCL      5976--REDEF
OFSFA_PARAM.SIG2
      5976**DCL      5977--REDEF
OUT_BUF
      8359**DCL      8637--ASSIGN
OUT_BUF.CMD
      8361**DCL      8636<<ASSIGN
OUT_BUF.PROMPT
      8360**DCL      8635<<ASSIGN
OUT_SN.SN
      5553**DCL      5554--REDEF
PARSE_INPUT_OFFSET
      4561**DCL      8610<<ASSIGN
PARSE_IN_BUF
      4561**DCL      8609--ASSIGN   8636>>ASSIGN   8663<<ASSIGN
PCB.NCHARS
      4728**DCL      8642<<ASSIGN   8664<<ASSIGN
READ_ALT
      8644**LABEL    8628--CALLALT
READ_FILE
      4562**DCL      8623>>IF       8653>>IF       8657<<ASSIGN
READ_SI
      8628**LABEL    8659--GOTO
SKIP_READ
PL6.E3A0      #015=VPD$GET_INPUT File=VPD$UTIL.:E05TSI                           WED 07/30/97 07:35 Page:374
      8643**LABEL    8622--REMEMBR
SPEC_BUF
      5231**DCL      5231--REDEF
VPL$ERR_PROC
      8544**DCL-ENT  8648--CALL     8669--CALL     8676--CALL     8678--CALL

PL6.E3A0      #016=VPD$GET_IN_DEV_MASK File=VPD$UTIL.:E05TSI                     WED 07/30/97 07:37 Page:375
     1415        1        /*T***********************************************************/
     1416        2        /*T*                                                         */
     1417        3        /*T* Copyright (c) Bull HN Information Systems Inc., 1997    */
     1418        4        /*T*                                                         */
     1419        5        /*T***********************************************************/
     1420        6        VPD$GET_IN_DEV_MASK: PROC (X_ICB);
     1421        7        /*I* NAME: VPD$GET_IN_DEV_MASK
     1422        8             PURPOSE: To set X_ICB.DEV_MASK(BIT(9)) to a value which reflects the input
     1423        9                      device type.
     1424       10             CALL  : CALL VPD$GET_IN_DEV_MASK(X_ICB);
     1425       11             DESCRIPTION: This procedure sets X_ICB.DEV_MASK to a value reflecting the
     1426       12                          type of input file to be used.
     1427       13                            OCTAL VALUE        DESCRIPTION
     1428       14                            -----------        -----------
     1429       15                                400            Default. Denotes COMGROUP or
     1430       16                                               non-tape device.
     1431       17                                200            Managed disk.
     1432       18                                100            Managed tape.
     1433       19                                040            Device tape.
     1434       20        */
     1435       21        %INCLUDE VP_DATA_R;
     1436     7008        /**/
     1437     7009        /*  PARAMETERS  */
     1438     7010        /**/
     1439     7011        %ICB(FPTN = X_ICB,STCLASS = "");
     1440     7125    1           X_ICB.DEV_MASK = '400'O;        /* DEFAULT...COMGROUP OR              */
     1441     7126                                                /* NON-TAPE DEVICE                    */
     1442     7127    2           DO CASE(IN_ASN);
     1443     7128    2            CASE(%FILE#);
     1444     7129    2              X_ICB.DEV_MASK = '200'O;     /* DISK FILE                          */
     1445     7130    2            CASE(%TAPE#);
     1446     7131    2              X_ICB.DEV_MASK = '100'O;     /* LABELED TAPE                       */
     1447     7132    2            CASE(%DEVICE#);
     1448     7133    2              IF IN_RES1.OP = 'MT'
     1449     7134    2                OR IN_RES1.OP = 'FT'
     1450     7135    2               THEN
     1451     7136    2                 X_ICB.DEV_MASK = '040'O;  /* DEVICE TAPE                        */
PL6.E3A0      #016=VPD$GET_IN_DEV_MASK File=VPD$UTIL.:E05TSI                     WED 07/30/97 07:37 Page:376
     1452     7137    2            END;
     1453     7138    1   END VPD$GET_IN_DEV_MASK;
     1454     7139        %EOD;

PL6.E3A0      #016=VPD$GET_IN_DEV_MASK File=VPD$UTIL.:E05TSI                     WED 07/30/97 07:37 Page:377
--  Include file information  --

   B_MICROPS_C.:E05TOU  is referenced.
   XU_MACRO_C.:E05TOU  is referenced.
   VP_MACRO_C.:E05TOU  is referenced.
   XS_MACRO_C.:E05TOU  is referenced.
   VP_PERR_C.:E05TOU  is referenced.
   CP_6_SUBS.:E05TOU  is referenced.
   CP_6.:E05TOU  cannot be made into a system file and is referenced.
   VP_DATA_R.:E05TOU  cannot be made into a system file and is referenced.
   B$JIT_C.:E05TOU  was found in the system file and is never referenced.
   CP_6_C.:E05TOU  was found in the system file and is referenced.
      No diagnostics issued in procedure VPD$GET_IN_DEV_MASK.

   Procedure VPD$GET_IN_DEV_MASK requires 28 words for executable code.
   Procedure VPD$GET_IN_DEV_MASK requires 4 words of local(AUTO) storage.

PL6.E3A0      #016=VPD$GET_IN_DEV_MASK File=VPD$UTIL.:E05TSI                     WED 07/30/97 07:37 Page:378

 Object Unit name= VPD$GET_IN_DEV_MASK                        File name= VPD$UTIL.:E05TOU
 UTS= JUL 30 '97 07:37:27.48 WED                              Compiler= PL-6/E31         Sev=      00
 SharedLib= :SHARED_SYSTEM                                    Alt SharedLib=


    ****  Control sections  ****

 Sect   Type Bound  Init  Size OctSiz  Section name(segment info)
    0   DCB   even  none     0      0  M$UC
    1   DCB   even  none     0      0  M$EI
    2   DCB   even  none     0      0  M$EO
    3   DCB   even  none     0      0  M$EO1
    4   DCB   even  none     0      0  M$ME
    5   DCB   even  none     0      0  M$SI
    6   DCB   even  none     0      0  M$READFILE
    7   DCB   even  none     0      0  M$DO
    8   DCB   even  none     0      0  M$STD1
    9   DCB   even  none     0      0  M$SORT1
   10  RoData even  UTS      2      2  VPD$GET_IN_DEV_MASK
   11   Proc  even  none    28     34  VPD$GET_IN_DEV_MASK

    ****  Entry defs  ****

                              Check   Calling
                             calling  sequence
  Sect OctLoc Primary Altret sequence   type   Parms  Name
    11      0   yes            yes      Std        1  VPD$GET_IN_DEV_MASK

  ****  Entry refs  ****

         Check        Calling
        calling       sequence
Altret sequence SRef   type   Args  Name
                       nStd      0 X66_AUTO_1
                       nStd      0 X66_ARET
PL6.E3A0      #016=VPD$GET_IN_DEV_MASK File=VPD$UTIL.:E05TSI                     WED 07/30/97 07:37 Page:379

  ****  Data refs  ****

  Flags:  r = read only, s = secondary
Flgs Name                             Flgs Name                             Flgs Name
     M$UC                                  BREAK_LOC                             BREAK_MESSAGE_REPORTER
     SPEC_BUF                              IN_RES                                IN_ASN
     M$EI                                  M$EO                                  M$EO1
     M$ME                                  M$SI                                  M$READFILE
     M$DO                                  M$STD1                                M$SORT1
PL6.E3A0      #016=VPD$GET_IN_DEV_MASK File=VPD$UTIL.:E05TSI                     WED 07/30/97 07:37 Page:380


     1415        1        /*T***********************************************************/
     1416        2        /*T*                                                         */
     1417        3        /*T* Copyright (c) Bull HN Information Systems Inc., 1997    */
     1418        4        /*T*                                                         */
     1419        5        /*T***********************************************************/
     1420        6        VPD$GET_IN_DEV_MASK: PROC (X_ICB);

      6 11 000000   000000 700200 xent  VPD$GET_IN_* TSX0  ! X66_AUTO_1
        11 000001   000004 000001                    ZERO    4,1

     1421        7        /*I* NAME: VPD$GET_IN_DEV_MASK
     1422        8             PURPOSE: To set X_ICB.DEV_MASK(BIT(9)) to a value which reflects the input
     1423        9                      device type.
     1424       10             CALL  : CALL VPD$GET_IN_DEV_MASK(X_ICB);
     1425       11             DESCRIPTION: This procedure sets X_ICB.DEV_MASK to a value reflecting the
     1426       12                          type of input file to be used.
     1427       13                            OCTAL VALUE        DESCRIPTION
     1428       14                            -----------        -----------
     1429       15                                400            Default. Denotes COMGROUP or
     1430       16                                               non-tape device.
     1431       17                                200            Managed disk.
     1432       18                                100            Managed tape.
     1433       19                                040            Device tape.
     1434       20        */
     1435       21        %INCLUDE VP_DATA_R;
     1436     7008        /**/
     1437     7009        /*  PARAMETERS  */
     1438     7010        /**/
     1439     7011        %ICB(FPTN = X_ICB,STCLASS = "");
     1440     7125    1           X_ICB.DEV_MASK = '400'O;        /* DEFAULT...COMGROUP OR              */

   7125 11 000002   400000 236003                    LDQ     -131072,DU
        11 000003   200003 470500                    LDP0    @X_ICB,,AUTO
        11 000004   000171 756100                    STQ     121,,PR0

     1441     7126                                                /* NON-TAPE DEVICE                    */
PL6.E3A0      #016=VPD$GET_IN_DEV_MASK File=VPD$UTIL.:E05TSI                     WED 07/30/97 07:37 Page:381
     1442     7127    2           DO CASE(IN_ASN);

   7127 11 000005   000000 236000 xsym               LDQ     IN_ASN
        11 000006   000033 772000                    QRL     27
        11 000007   000004 116007                    CMPQ    4,DL
        11 000010   000012 602006 11                 TNC     s:7127+5,QL
        11 000011   000033 710000 11                 TRA     s:7138
        11 000012   000033 710000 11                 TRA     s:7138
        11 000013   000016 710000 11                 TRA     s:7129
        11 000014   000021 710000 11                 TRA     s:7131
        11 000015   000024 710000 11                 TRA     s:7133

     1443     7128    2            CASE(%FILE#);

     1444     7129    2              X_ICB.DEV_MASK = '200'O;     /* DISK FILE                          */

   7129 11 000016   200000 236003                    LDQ     65536,DU
        11 000017   000171 756100                    STQ     121,,PR0
        11 000020   000033 710000 11                 TRA     s:7138

     1445     7130    2            CASE(%TAPE#);

     1446     7131    2              X_ICB.DEV_MASK = '100'O;     /* LABELED TAPE                       */

   7131 11 000021   100000 236003                    LDQ     32768,DU
        11 000022   000171 756100                    STQ     121,,PR0
        11 000023   000033 710000 11                 TRA     s:7138

     1447     7132    2            CASE(%DEVICE#);

     1448     7133    2              IF IN_RES1.OP = 'MT'

   7133 11 000024   000000 220000 xsym               LDX0    IN_RES
        11 000025   000000 100000 10                 CMPX0   0
        11 000026   000031 600000 11                 TZE     s:7136
        11 000027   000001 100000 10                 CMPX0   1
        11 000030   000033 601000 11                 TNZ     s:7138
PL6.E3A0      #016=VPD$GET_IN_DEV_MASK File=VPD$UTIL.:E05TSI                     WED 07/30/97 07:37 Page:382

     1449     7134    2                OR IN_RES1.OP = 'FT'
     1450     7135    2               THEN
     1451     7136    2                 X_ICB.DEV_MASK = '040'O;  /* DEVICE TAPE                        */

   7136 11 000031   040000 236003                    LDQ     16384,DU
        11 000032   000171 756100                    STQ     121,,PR0

     1452     7137    2            END;

     1453     7138    1   END VPD$GET_IN_DEV_MASK;

   7138 11 000033   000000 702200 xent               TSX2  ! X66_ARET
     1454     7139        %EOD;

PL6.E3A0      #016=VPD$GET_IN_DEV_MASK File=VPD$UTIL.:E05TSI                     WED 07/30/97 07:37 Page:383
--  Include file information  --

   B_MICROPS_C.:E05TOU  is referenced.
   XU_MACRO_C.:E05TOU  is referenced.
   VP_MACRO_C.:E05TOU  is referenced.
   XS_MACRO_C.:E05TOU  is referenced.
   VP_PERR_C.:E05TOU  is referenced.
   CP_6_SUBS.:E05TOU  is referenced.
   CP_6.:E05TOU  cannot be made into a system file and is referenced.
   VP_DATA_R.:E05TOU  cannot be made into a system file and is referenced.
   B$JIT_C.:E05TOU  was found in the system file and is never referenced.
   CP_6_C.:E05TOU  was found in the system file and is referenced.
      No diagnostics issued in procedure VPD$GET_IN_DEV_MASK.
PL6.E3A0      #016=VPD$GET_IN_DEV_MASK File=VPD$UTIL.:E05TSI                     WED 07/30/97 07:37 Page:384

 **** Variables and constants ****

  ****  Auto variables  ****

  ****  Scalars and arrays  ****
OctLoc.c.b A Datatyp(siz) R M Lvl/name                 OctLoc.c.b A Datatyp(siz) R M Lvl/name

     3-0-0/w PTR         r     1 @X_ICB                    *0-0-0/d STRC(5868)  r     1 X_ICB

  ****  SYMREF variables  ****

  ****  Scalars and arrays  ****
OctLoc.c.b A Datatyp(siz) R M Lvl/name                 OctLoc.c.b A Datatyp(siz) R M Lvl/name

     0-0-0/w EPTR        r     1 BREAK_MESSAGE_REPORTER
     0-0-0/b UBIN(9)     r     1 IN_ASN                     0-0-0/c CHAR(4)     r     1 IN_RES
     0-0-0/c STRC        r     1 IN_RES1


   Procedure VPD$GET_IN_DEV_MASK requires 28 words for executable code.
   Procedure VPD$GET_IN_DEV_MASK requires 4 words of local(AUTO) storage.
PL6.E3A0      #016=VPD$GET_IN_DEV_MASK File=VPD$UTIL.:E05TSI                     WED 07/30/97 07:37 Page:385
          *** CROSS REFERENCE LISTING ***
**     DENOTES     IDENTIFIER DEFINITION
<<                 IDENTIFIER'S VALUE SET
>>                 IDENTIFIER'S VALUE USED
<>                 IDENTIFIER SET AND/OR USED
--                 IDENTIFIER REFERENCED
PL6.E3A0      #016=VPD$GET_IN_DEV_MASK File=VPD$UTIL.:E05TSI                     WED 07/30/97 07:37 Page:386
          MINI XREF LISTING

BREAK_LOC
      5228**DCL      5228--REDEF
DEF_ICB.FID.STRING
      5826**DCL      5827--REDEF
DEV_ICB.FID.STRING
      5712**DCL      5713--REDEF
EI_KEY.KEY
      5924**DCL      5924--REDEF    5924--REDEF    5924--REDEF
EO_OCB.TYPE
      5424**DCL      5425--REDEF
FPT_CLOSE_EI.SN_
      6765**DCL      6765--REDEF
FPT_CLOSE_EI.UTL_
      6766**DCL      6766--REDEF
FPT_CLOSE_EI.V.EXPIRE#
      6780**DCL      6780--REDEF
FPT_CLOSE_EI.V.TYPE#
      6778**DCL      6778--REDEF
FPT_CLOSE_EI.V.XTNSIZE#
      6775**DCL      6775--REDEF    6777--REDEF
FPT_CLOSE_PTL.SN_
      6891**DCL      6891--REDEF
FPT_CLOSE_PTL.UTL_
      6892**DCL      6892--REDEF
FPT_CLOSE_PTL.V.EXPIRE#
      6906**DCL      6906--REDEF
FPT_CLOSE_PTL.V.TYPE#
      6904**DCL      6904--REDEF
FPT_CLOSE_PTL.V.XTNSIZE#
      6901**DCL      6901--REDEF    6903--REDEF
FPT_CLOSE_READ.SN_
      6807**DCL      6807--REDEF
PL6.E3A0      #016=VPD$GET_IN_DEV_MASK File=VPD$UTIL.:E05TSI                     WED 07/30/97 07:37 Page:387
FPT_CLOSE_READ.UTL_
      6808**DCL      6808--REDEF
FPT_CLOSE_READ.V.EXPIRE#
      6822**DCL      6822--REDEF
FPT_CLOSE_READ.V.TYPE#
      6820**DCL      6820--REDEF
FPT_CLOSE_READ.V.XTNSIZE#
      6817**DCL      6817--REDEF    6819--REDEF
FPT_CLOSE_SI.SN_
      6975**DCL      6975--REDEF
FPT_CLOSE_SI.UTL_
      6976**DCL      6976--REDEF
FPT_CLOSE_SI.V.EXPIRE#
      6990**DCL      6990--REDEF
FPT_CLOSE_SI.V.TYPE#
      6988**DCL      6988--REDEF
FPT_CLOSE_SI.V.XTNSIZE#
      6985**DCL      6985--REDEF    6987--REDEF
FPT_CLOSE_STD.SN_
      6933**DCL      6933--REDEF
FPT_CLOSE_STD.UTL_
      6934**DCL      6934--REDEF
FPT_CLOSE_STD.V.EXPIRE#
      6948**DCL      6948--REDEF
FPT_CLOSE_STD.V.TYPE#
      6946**DCL      6946--REDEF
FPT_CLOSE_STD.V.XTNSIZE#
      6943**DCL      6943--REDEF    6945--REDEF
FPT_CLSEI_FT.SN_
      6849**DCL      6849--REDEF
FPT_CLSEI_FT.UTL_
      6850**DCL      6850--REDEF
FPT_CLSEI_FT.V.EXPIRE#
      6864**DCL      6864--REDEF
FPT_CLSEI_FT.V.TYPE#
      6862**DCL      6862--REDEF
PL6.E3A0      #016=VPD$GET_IN_DEV_MASK File=VPD$UTIL.:E05TSI                     WED 07/30/97 07:37 Page:388
FPT_CLSEI_FT.V.XTNSIZE#
      6859**DCL      6859--REDEF    6861--REDEF
FPT_OPEN_EI.ACSVEH_
      6420**DCL      6421--REDEF
FPT_OPEN_EI.ALTKEYS_
      6426**DCL      6427--REDEF    6427--REDEF
FPT_OPEN_EI.HDR_
      6425**DCL      6426--REDEF
FPT_OPEN_EI.TAB_
      6424**DCL      6425--REDEF
FPT_OPEN_EI.UHL_
      6418**DCL      6419--REDEF    6419--REDEF
FPT_OPEN_EI.V.FSN#
      6458**DCL      6458--REDEF    6458--REDEF
FPT_OPEN_EI.WSN_
      6424**DCL      6424--REDEF
FPT_OPEN_EI_SAVE.ACSVEH_
      6529**DCL      6530--REDEF
FPT_OPEN_EI_SAVE.ALTKEYS_
      6535**DCL      6536--REDEF    6536--REDEF
FPT_OPEN_EI_SAVE.HDR_
      6534**DCL      6535--REDEF
FPT_OPEN_EI_SAVE.TAB_
      6533**DCL      6534--REDEF
FPT_OPEN_EI_SAVE.UHL_
      6527**DCL      6528--REDEF    6528--REDEF
FPT_OPEN_EI_SAVE.V.FSN#
      6567**DCL      6567--REDEF    6567--REDEF
FPT_OPEN_EI_SAVE.WSN_
      6533**DCL      6533--REDEF
FPT_OPEN_OUT.ACSVEH_
      6311**DCL      6312--REDEF
FPT_OPEN_OUT.ALTKEYS_
      6317**DCL      6318--REDEF    6318--REDEF
FPT_OPEN_OUT.HDR_
      6316**DCL      6317--REDEF
PL6.E3A0      #016=VPD$GET_IN_DEV_MASK File=VPD$UTIL.:E05TSI                     WED 07/30/97 07:37 Page:389
FPT_OPEN_OUT.TAB_
      6315**DCL      6316--REDEF
FPT_OPEN_OUT.UHL_
      6309**DCL      6310--REDEF    6310--REDEF
FPT_OPEN_OUT.V.FSN#
      6349**DCL      6349--REDEF    6349--REDEF
FPT_OPEN_OUT.WSN_
      6315**DCL      6315--REDEF
FPT_OPEN_OUT_SAVE.ACSVEH_
      6202**DCL      6203--REDEF
FPT_OPEN_OUT_SAVE.ALTKEYS_
      6208**DCL      6209--REDEF    6209--REDEF
FPT_OPEN_OUT_SAVE.HDR_
      6207**DCL      6208--REDEF
FPT_OPEN_OUT_SAVE.TAB_
      6206**DCL      6207--REDEF
FPT_OPEN_OUT_SAVE.UHL_
      6200**DCL      6201--REDEF    6201--REDEF
FPT_OPEN_OUT_SAVE.V.FSN#
      6240**DCL      6240--REDEF    6240--REDEF
FPT_OPEN_OUT_SAVE.WSN_
      6206**DCL      6206--REDEF
FPT_READ_STD.STATION_
      6630**DCL      6631--REDEF
FPT_READ_STD.V.DVBYTE.REREAD#
      6642**DCL      6642--REDEF
FPT_READ_STD.V.INDX#
      6640**DCL      6640--REDEF
FPT_READ_UC.STATION_
      6591**DCL      6592--REDEF
FPT_READ_UC.V.DVBYTE.REREAD#
      6603**DCL      6603--REDEF
FPT_READ_UC.V.INDX#
      6601**DCL      6601--REDEF
FPT_WRITE_ME.STATION_
      6699**DCL      6699--REDEF
PL6.E3A0      #016=VPD$GET_IN_DEV_MASK File=VPD$UTIL.:E05TSI                     WED 07/30/97 07:37 Page:390
FPT_WRITE_ME.V.DVBYTE.VFC#
      6706**DCL      6706--REDEF
FPT_WRITE_OUT.STATION_
      6730**DCL      6730--REDEF
FPT_WRITE_OUT.V.DVBYTE.VFC#
      6737**DCL      6737--REDEF
FPT_WRITE_UC.STATION_
      6668**DCL      6668--REDEF
FPT_WRITE_UC.V.DVBYTE.VFC#
      6675**DCL      6675--REDEF
FROM_SN.SN
      5574**DCL      5575--REDEF
GETCMD.OUT$
      4781**DCL      4787--REDEF
ICB.FID.STRING
      5598**DCL      5599--REDEF
IFSFA_PARAM.EOMCHAR#
      5953**DCL      5954--REDEF
IFSFA_PARAM.SIG1
      5947**DCL      5947--REDEF
IFSFA_PARAM.SIG2
      5947**DCL      5948--REDEF
IN_ASN
      5557**DCL      7127>>DOCASE
IN_RES
      5520**DCL      5520--REDEF
IN_RES1.OP
      5520**DCL      7133>>IF       7133>>IF
IN_SN.SN
      5536**DCL      5537--REDEF
OCB.TYPE
      5282**DCL      5283--REDEF
OFSFA_PARAM.EOMCHAR#
      5983**DCL      5984--REDEF
OFSFA_PARAM.SIG1
      5977**DCL      5977--REDEF
PL6.E3A0      #016=VPD$GET_IN_DEV_MASK File=VPD$UTIL.:E05TSI                     WED 07/30/97 07:37 Page:391
OFSFA_PARAM.SIG2
      5977**DCL      5978--REDEF
OUT_SN.SN
      5554**DCL      5555--REDEF
SPEC_BUF
      5232**DCL      5232--REDEF
X_ICB
      7012**DCL         6--PROC
X_ICB.DEV_MASK
      7081**DCL      7125<<ASSIGN   7129<<ASSIGN   7131<<ASSIGN   7136<<ASSIGN
X_ICB.FID.STRING
      7031**DCL      7032--REDEF

PL6.E3A0      #017=VPD$GET_OUT_FLAVOR File=VPD$UTIL.:E05TSI                      WED 07/30/97 07:38 Page:392
     1455        1        /*T***********************************************************/
     1456        2        /*T*                                                         */
     1457        3        /*T* Copyright (c) Bull HN Information Systems Inc., 1997    */
     1458        4        /*T*                                                         */
     1459        5        /*T***********************************************************/
     1460        6        VPD$GET_OUT_FLAVOR: PROC;
     1461        7        /*I* NAME: VPD$GET_OUT_FLAVOR
     1462        8             PURPOSE: To set up the FLAVOR mask in OCB.
     1463        9             CALL: CALL VPD$GET_OUT_FLAVOR;
     1464       10             DESCRIPTION: This procedure is CALLed AFTER M$OPENing the output DCB.
     1465       11                          Tests are made to set any appropriate bits in OCB.FLAVOR
     1466       12        */
     1467       13        %INCLUDE VP_DATA_R;
     1468     7000        %INCLUDE F$DCB;
     1469     7049        /**/
     1470     7050        /*  FLAVOR.TAPE warns PCL that the output is destined for that long,          */
     1471     7051        /*  stringy stuff that usually needs special care.  This means ANY            */
     1472     7052        /*  form of tape.                                                             */
     1473     7053        /**/
     1474     7054    1           IF OCB.DEV_MASK & '006'O
     1475     7055    1            THEN
     1476     7056    1              OCB.FLAVOR.TAPE = '1'B;
     1477     7057        /**/
     1478     7058        /*  FLAVOR.UR is used to signal an output that PCL considers to be            */
     1479     7059        /*  Unit-Record style.  This includes many devices and files with             */
     1480     7060        /*  ORG=UR.  The user's time-sharing terminal is explicitly excluded.         */
     1481     7061        /**/
     1482     7062    1           IF OCB.DEV_MASK.LP
     1483     7063    1             AND NOT OCB.DEV_MASK.IC       /* AND not the user's terminal        */
     1484     7064    1            THEN
     1485     7065    1              OCB.FLAVOR.UR = '1'B;
     1486     7066        %EJECT;
PL6.E3A0      #017=VPD$GET_OUT_FLAVOR File=VPD$UTIL.:E05TSI                      WED 07/30/97 07:38 Page:393
     1487     7067        /**/
     1488     7068        /*  FLAVOR.JE indicates that the output is a stream of commands for           */
     1489     7069        /*  execution.  One wouldn't want to write really strange stuff there.        */
     1490     7070        /**/
     1491     7071    1           IF OCB.DCBPTR$ -> F$DCB.RES = 'JE  '
     1492     7072    1             OR OCB.DCBPTR$ -> F$DCB.RES = 'JF  '
     1493     7073    1            THEN
     1494     7074    1              OCB.FLAVOR.JE = '1'B;
     1495     7075        /**/
     1496     7076        /*  The FLAVOR.GRANB is used to indicate that the output destination          */
     1497     7077        /*  likes output in granule-sized blocks.                                     */
     1498     7078        /**/
     1499     7079    1           IF OCB.DCBPTR$ -> F$DCB.ORG = %RANDOM#
     1500     7080    1             OR OCB.DCBPTR$ -> F$DCB.ORG = %IDS#
     1501     7081    1             OR OCB.DCBPTR$ -> F$DCB.ORG = %CG#
     1502     7082    1            THEN
     1503     7083    1              OCB.FLAVOR.GRANB = '1'B;
     1504     7084        /**/
     1505     7085        /*  The FLAVOR.MANAGED bit is used to indicate that the output destination    */
     1506     7086        /*  is a managed resource.                                                    */
     1507     7087        /**/
     1508     7088    1           IF OCB.DCBPTR$->F$DCB.ASN = %FILE# OR OCB.DCBPTR$->F$DCB.ASN=%TAPE#
     1509     7089    1            THEN
     1510     7090    1              OCB.FLAVOR.MANAGED = '1'B;
     1511     7091    1           RETURN;
     1512     7092    1   END VPD$GET_OUT_FLAVOR;
     1513     7093        %EOD;

PL6.E3A0      #017=VPD$GET_OUT_FLAVOR File=VPD$UTIL.:E05TSI                      WED 07/30/97 07:38 Page:394
--  Include file information  --

   F$DCB.:E05TOU  cannot be made into a system file and is referenced.
   B_MICROPS_C.:E05TOU  is referenced.
   XU_MACRO_C.:E05TOU  is referenced.
   VP_MACRO_C.:E05TOU  is referenced.
   XS_MACRO_C.:E05TOU  is referenced.
   VP_PERR_C.:E05TOU  is referenced.
   CP_6_SUBS.:E05TOU  is referenced.
   CP_6.:E05TOU  cannot be made into a system file and is referenced.
   VP_DATA_R.:E05TOU  cannot be made into a system file and is referenced.
   B$JIT_C.:E05TOU  was found in the system file and is never referenced.
   CP_6_C.:E05TOU  was found in the system file and is referenced.
      No diagnostics issued in procedure VPD$GET_OUT_FLAVOR.

   Procedure VPD$GET_OUT_FLAVOR requires 42 words for executable code.
   Procedure VPD$GET_OUT_FLAVOR requires 4 words of local(AUTO) storage.

PL6.E3A0      #017=VPD$GET_OUT_FLAVOR File=VPD$UTIL.:E05TSI                      WED 07/30/97 07:38 Page:395

 Object Unit name= VPD$GET_OUT_FLAVOR                         File name= VPD$UTIL.:E05TOU
 UTS= JUL 30 '97 07:38:49.56 WED                              Compiler= PL-6/E31         Sev=      00
 SharedLib= :SHARED_SYSTEM                                    Alt SharedLib=


    ****  Control sections  ****

 Sect   Type Bound  Init  Size OctSiz  Section name(segment info)
    0   DCB   even  none     0      0  M$UC
    1   DCB   even  none     0      0  M$EI
    2   DCB   even  none     0      0  M$EO
    3   DCB   even  none     0      0  M$EO1
    4   DCB   even  none     0      0  M$ME
    5   DCB   even  none     0      0  M$SI
    6   DCB   even  none     0      0  M$READFILE
    7   DCB   even  none     0      0  M$DO
    8   DCB   even  none     0      0  M$STD1
    9   DCB   even  none     0      0  M$SORT1
   10  RoData even  UTS      2      2  VPD$GET_OUT_FLAVOR
   11   Proc  even  none    42     52  VPD$GET_OUT_FLAVOR

    ****  Entry defs  ****

                              Check   Calling
                             calling  sequence
  Sect OctLoc Primary Altret sequence   type   Parms  Name
    11      0   yes            yes      Std        0  VPD$GET_OUT_FLAVOR

  ****  Entry refs  ****

         Check        Calling
        calling       sequence
Altret sequence SRef   type   Args  Name
                       nStd      0 X66_AUTO_0
                       nStd      0 X66_ARET
PL6.E3A0      #017=VPD$GET_OUT_FLAVOR File=VPD$UTIL.:E05TSI                      WED 07/30/97 07:38 Page:396

  ****  Data refs  ****

  Flags:  r = read only, s = secondary
Flgs Name                             Flgs Name                             Flgs Name
     M$UC                                  BREAK_LOC                             BREAK_MESSAGE_REPORTER
     SPEC_BUF                              OCB                                   IN_RES
     M$EI                                  M$EO                                  M$EO1
     M$ME                                  M$SI                                  M$READFILE
     M$DO                                  M$STD1                                M$SORT1
PL6.E3A0      #017=VPD$GET_OUT_FLAVOR File=VPD$UTIL.:E05TSI                      WED 07/30/97 07:38 Page:397


     1455        1        /*T***********************************************************/
     1456        2        /*T*                                                         */
     1457        3        /*T* Copyright (c) Bull HN Information Systems Inc., 1997    */
     1458        4        /*T*                                                         */
     1459        5        /*T***********************************************************/
     1460        6        VPD$GET_OUT_FLAVOR: PROC;

      6 11 000000   000000 700200 xent  VPD$GET_OUT* TSX0  ! X66_AUTO_0
        11 000001   000004 000000                    ZERO    4,0

     1461        7        /*I* NAME: VPD$GET_OUT_FLAVOR
     1462        8             PURPOSE: To set up the FLAVOR mask in OCB.
     1463        9             CALL: CALL VPD$GET_OUT_FLAVOR;
     1464       10             DESCRIPTION: This procedure is CALLed AFTER M$OPENing the output DCB.
     1465       11                          Tests are made to set any appropriate bits in OCB.FLAVOR
     1466       12        */
     1467       13        %INCLUDE VP_DATA_R;
     1468     7000        %INCLUDE F$DCB;
     1469     7049        /**/
     1470     7050        /*  FLAVOR.TAPE warns PCL that the output is destined for that long,          */
     1471     7051        /*  stringy stuff that usually needs special care.  This means ANY            */
     1472     7052        /*  form of tape.                                                             */
     1473     7053        /**/
     1474     7054    1           IF OCB.DEV_MASK & '006'O

   7054 11 000002   000255 236000 xsym               LDQ     OCB+173
        11 000003   777000 376003                    ANQ     -512,DU
        11 000004   006000 376003                    ANQ     3072,DU
        11 000005   000010 600000 11                 TZE     s:7062

     1475     7055    1            THEN
     1476     7056    1              OCB.FLAVOR.TAPE = '1'B;

   7056 11 000006   004000 236003                    LDQ     2048,DU
        11 000007   000256 256000 xsym               ORSQ    OCB+174

PL6.E3A0      #017=VPD$GET_OUT_FLAVOR File=VPD$UTIL.:E05TSI                      WED 07/30/97 07:38 Page:398
     1477     7057        /**/
     1478     7058        /*  FLAVOR.UR is used to signal an output that PCL considers to be            */
     1479     7059        /*  Unit-Record style.  This includes many devices and files with             */
     1480     7060        /*  ORG=UR.  The user's time-sharing terminal is explicitly excluded.         */
     1481     7061        /**/
     1482     7062    1           IF OCB.DEV_MASK.LP

   7062 11 000010   000255 236000 xsym               LDQ     OCB+173
        11 000011   010000 316003                    CANQ    4096,DU
        11 000012   000017 600000 11                 TZE     s:7071
        11 000013   020000 316003                    CANQ    8192,DU
        11 000014   000017 601000 11                 TNZ     s:7071

     1483     7063    1             AND NOT OCB.DEV_MASK.IC       /* AND not the user's terminal        */
     1484     7064    1            THEN
     1485     7065    1              OCB.FLAVOR.UR = '1'B;

   7065 11 000015   002000 236003                    LDQ     1024,DU
        11 000016   000256 256000 xsym               ORSQ    OCB+174

     1486     7066        %EJECT;
PL6.E3A0      #017=VPD$GET_OUT_FLAVOR File=VPD$UTIL.:E05TSI                      WED 07/30/97 07:38 Page:399
     1487     7067        /**/
     1488     7068        /*  FLAVOR.JE indicates that the output is a stream of commands for           */
     1489     7069        /*  execution.  One wouldn't want to write really strange stuff there.        */
     1490     7070        /**/
     1491     7071    1           IF OCB.DCBPTR$ -> F$DCB.RES = 'JE  '

   7071 11 000017   000001 470400 xsym               LDP0    OCB+1
        11 000020   000026 236100                    LDQ     22,,PR0
        11 000021   000000 116000 10                 CMPQ    0
        11 000022   000025 600000 11                 TZE     s:7074
        11 000023   000001 116000 10                 CMPQ    1
        11 000024   000027 601000 11                 TNZ     s:7079

     1492     7072    1             OR OCB.DCBPTR$ -> F$DCB.RES = 'JF  '
     1493     7073    1            THEN
     1494     7074    1              OCB.FLAVOR.JE = '1'B;

   7074 11 000025   040000 236003                    LDQ     16384,DU
        11 000026   000256 256000 xsym               ORSQ    OCB+174

     1495     7075        /**/
     1496     7076        /*  The FLAVOR.GRANB is used to indicate that the output destination          */
     1497     7077        /*  likes output in granule-sized blocks.                                     */
     1498     7078        /**/
     1499     7079    1           IF OCB.DCBPTR$ -> F$DCB.ORG = %RANDOM#

   7079 11 000027   000032 236100                    LDQ     26,,PR0
        11 000030   777000 376003                    ANQ     -512,DU
        11 000031   003000 116003                    CMPQ    1536,DU
        11 000032   000037 600000 11                 TZE     s:7083
        11 000033   007000 116003                    CMPQ    3584,DU
        11 000034   000037 600000 11                 TZE     s:7083
        11 000035   013000 116003                    CMPQ    5632,DU
        11 000036   000041 601000 11                 TNZ     s:7088

     1500     7080    1             OR OCB.DCBPTR$ -> F$DCB.ORG = %IDS#
     1501     7081    1             OR OCB.DCBPTR$ -> F$DCB.ORG = %CG#
PL6.E3A0      #017=VPD$GET_OUT_FLAVOR File=VPD$UTIL.:E05TSI                      WED 07/30/97 07:38 Page:400
     1502     7082    1            THEN
     1503     7083    1              OCB.FLAVOR.GRANB = '1'B;

   7083 11 000037   100000 236003                    LDQ     32768,DU
        11 000040   000256 256000 xsym               ORSQ    OCB+174

     1504     7084        /**/
     1505     7085        /*  The FLAVOR.MANAGED bit is used to indicate that the output destination    */
     1506     7086        /*  is a managed resource.                                                    */
     1507     7087        /**/
     1508     7088    1           IF OCB.DCBPTR$->F$DCB.ASN = %FILE# OR OCB.DCBPTR$->F$DCB.ASN=%TAPE#

   7088 11 000041   000032 236100                    LDQ     26,,PR0
        11 000042   777000 376007                    ANQ     -512,DL
        11 000043   001000 116007                    CMPQ    512,DL
        11 000044   000047 600000 11                 TZE     s:7090
        11 000045   002000 116007                    CMPQ    1024,DL
        11 000046   000051 601000 11                 TNZ     s:7091

     1509     7089    1            THEN
     1510     7090    1              OCB.FLAVOR.MANAGED = '1'B;

   7090 11 000047   020000 236003                    LDQ     8192,DU
        11 000050   000256 256000 xsym               ORSQ    OCB+174

     1511     7091    1           RETURN;

   7091 11 000051   000000 702200 xent               TSX2  ! X66_ARET
     1512     7092    1   END VPD$GET_OUT_FLAVOR;
     1513     7093        %EOD;

PL6.E3A0      #017=VPD$GET_OUT_FLAVOR File=VPD$UTIL.:E05TSI                      WED 07/30/97 07:38 Page:401
--  Include file information  --

   F$DCB.:E05TOU  cannot be made into a system file and is referenced.
   B_MICROPS_C.:E05TOU  is referenced.
   XU_MACRO_C.:E05TOU  is referenced.
   VP_MACRO_C.:E05TOU  is referenced.
   XS_MACRO_C.:E05TOU  is referenced.
   VP_PERR_C.:E05TOU  is referenced.
   CP_6_SUBS.:E05TOU  is referenced.
   CP_6.:E05TOU  cannot be made into a system file and is referenced.
   VP_DATA_R.:E05TOU  cannot be made into a system file and is referenced.
   B$JIT_C.:E05TOU  was found in the system file and is never referenced.
   CP_6_C.:E05TOU  was found in the system file and is referenced.
      No diagnostics issued in procedure VPD$GET_OUT_FLAVOR.
PL6.E3A0      #017=VPD$GET_OUT_FLAVOR File=VPD$UTIL.:E05TSI                      WED 07/30/97 07:38 Page:402

 **** Variables and constants ****

  ****  SYMREF variables  ****

  ****  Scalars and arrays  ****
OctLoc.c.b A Datatyp(siz) R M Lvl/name                 OctLoc.c.b A Datatyp(siz) R M Lvl/name

     0-0-0/w EPTR        r     1 BREAK_MESSAGE_REPORTER
     0-0-0/d STRC(6840)  r     1 OCB

  ****  BASED and DCB variables  ****

  ****  Scalars and arrays  ****
OctLoc.c.b A Datatyp(siz) R M Lvl/name                 OctLoc.c.b A Datatyp(siz) R M Lvl/name

     0-0-0/d ASTR(3528)  r     1 F$DCB


   Procedure VPD$GET_OUT_FLAVOR requires 42 words for executable code.
   Procedure VPD$GET_OUT_FLAVOR requires 4 words of local(AUTO) storage.
PL6.E3A0      #017=VPD$GET_OUT_FLAVOR File=VPD$UTIL.:E05TSI                      WED 07/30/97 07:38 Page:403
          *** CROSS REFERENCE LISTING ***
**     DENOTES     IDENTIFIER DEFINITION
<<                 IDENTIFIER'S VALUE SET
>>                 IDENTIFIER'S VALUE USED
<>                 IDENTIFIER SET AND/OR USED
--                 IDENTIFIER REFERENCED
PL6.E3A0      #017=VPD$GET_OUT_FLAVOR File=VPD$UTIL.:E05TSI                      WED 07/30/97 07:38 Page:404
          MINI XREF LISTING

BREAK_LOC
      5220**DCL      5220--REDEF
DEF_ICB.FID.STRING
      5818**DCL      5819--REDEF
DEV_ICB.FID.STRING
      5704**DCL      5705--REDEF
EI_KEY.KEY
      5916**DCL      5916--REDEF    5916--REDEF    5916--REDEF
EO_OCB.TYPE
      5416**DCL      5417--REDEF
F$DCB.ACTPOS
      7026**DCL      7026--REDEF
F$DCB.ARS
      7001**DCL      7001--REDEF
F$DCB.ASN
      7016**DCL      7088>>IF       7088>>IF
F$DCB.ATTR
      7019**DCL      7020--REDEF
F$DCB.BORROW
      7034**DCL      7034--REDEF    7034--REDEF    7034--REDEF
F$DCB.DCBNAME.L
      7048**DCL      7048--IMP-SIZ
F$DCB.EOMCHAR
      7005**DCL      7005--REDEF
F$DCB.FLDID
      7029**DCL      7029--REDEF
F$DCB.FORM$
      7023**DCL      7023--REDEF
F$DCB.FSECT
      7039**DCL      7039--REDEF
F$DCB.FSN
      7016**DCL      7016--REDEF    7016--REDEF    7017--REDEF
PL6.E3A0      #017=VPD$GET_OUT_FLAVOR File=VPD$UTIL.:E05TSI                      WED 07/30/97 07:38 Page:405
F$DCB.HEADER$
      7022**DCL      7022--REDEF
F$DCB.IXTNSIZE
      7020**DCL      7020--REDEF
F$DCB.LASTSTA$
      7010**DCL      7010--REDEF
F$DCB.LVL
      7035**DCL      7035--REDEF
F$DCB.NAME.C
      7010**DCL      7010--REDEF
F$DCB.NOEOF
      7031**DCL      7031--REDEF
F$DCB.NRECS
      7021**DCL      7021--REDEF
F$DCB.NRECX
      7040**DCL      7040--REDEF
F$DCB.OHDR
      7032**DCL      7032--REDEF
F$DCB.ORG
      7015**DCL      7015--REDEF    7079>>IF       7079>>IF       7079>>IF
F$DCB.PRECNO
      7038**DCL      7038--REDEF
F$DCB.RCSZ
      7043**DCL      7043--REDEF
F$DCB.RES
      7011**DCL      7011--REDEF    7071>>IF       7071>>IF
F$DCB.SETX
      7023**DCL      7023--REDEF
F$DCB.TAB$
      7022**DCL      7023--REDEF
F$DCB.TDA
      7037**DCL      7037--REDEF
F$DCB.WSN
      7012**DCL      7012--REDEF
FPT_CLOSE_EI.SN_
      6757**DCL      6757--REDEF
PL6.E3A0      #017=VPD$GET_OUT_FLAVOR File=VPD$UTIL.:E05TSI                      WED 07/30/97 07:38 Page:406
FPT_CLOSE_EI.UTL_
      6758**DCL      6758--REDEF
FPT_CLOSE_EI.V.EXPIRE#
      6772**DCL      6772--REDEF
FPT_CLOSE_EI.V.TYPE#
      6770**DCL      6770--REDEF
FPT_CLOSE_EI.V.XTNSIZE#
      6767**DCL      6767--REDEF    6769--REDEF
FPT_CLOSE_PTL.SN_
      6883**DCL      6883--REDEF
FPT_CLOSE_PTL.UTL_
      6884**DCL      6884--REDEF
FPT_CLOSE_PTL.V.EXPIRE#
      6898**DCL      6898--REDEF
FPT_CLOSE_PTL.V.TYPE#
      6896**DCL      6896--REDEF
FPT_CLOSE_PTL.V.XTNSIZE#
      6893**DCL      6893--REDEF    6895--REDEF
FPT_CLOSE_READ.SN_
      6799**DCL      6799--REDEF
FPT_CLOSE_READ.UTL_
      6800**DCL      6800--REDEF
FPT_CLOSE_READ.V.EXPIRE#
      6814**DCL      6814--REDEF
FPT_CLOSE_READ.V.TYPE#
      6812**DCL      6812--REDEF
FPT_CLOSE_READ.V.XTNSIZE#
      6809**DCL      6809--REDEF    6811--REDEF
FPT_CLOSE_SI.SN_
      6967**DCL      6967--REDEF
FPT_CLOSE_SI.UTL_
      6968**DCL      6968--REDEF
FPT_CLOSE_SI.V.EXPIRE#
      6982**DCL      6982--REDEF
FPT_CLOSE_SI.V.TYPE#
      6980**DCL      6980--REDEF
PL6.E3A0      #017=VPD$GET_OUT_FLAVOR File=VPD$UTIL.:E05TSI                      WED 07/30/97 07:38 Page:407
FPT_CLOSE_SI.V.XTNSIZE#
      6977**DCL      6977--REDEF    6979--REDEF
FPT_CLOSE_STD.SN_
      6925**DCL      6925--REDEF
FPT_CLOSE_STD.UTL_
      6926**DCL      6926--REDEF
FPT_CLOSE_STD.V.EXPIRE#
      6940**DCL      6940--REDEF
FPT_CLOSE_STD.V.TYPE#
      6938**DCL      6938--REDEF
FPT_CLOSE_STD.V.XTNSIZE#
      6935**DCL      6935--REDEF    6937--REDEF
FPT_CLSEI_FT.SN_
      6841**DCL      6841--REDEF
FPT_CLSEI_FT.UTL_
      6842**DCL      6842--REDEF
FPT_CLSEI_FT.V.EXPIRE#
      6856**DCL      6856--REDEF
FPT_CLSEI_FT.V.TYPE#
      6854**DCL      6854--REDEF
FPT_CLSEI_FT.V.XTNSIZE#
      6851**DCL      6851--REDEF    6853--REDEF
FPT_OPEN_EI.ACSVEH_
      6412**DCL      6413--REDEF
FPT_OPEN_EI.ALTKEYS_
      6418**DCL      6419--REDEF    6419--REDEF
FPT_OPEN_EI.HDR_
      6417**DCL      6418--REDEF
FPT_OPEN_EI.TAB_
      6416**DCL      6417--REDEF
FPT_OPEN_EI.UHL_
      6410**DCL      6411--REDEF    6411--REDEF
FPT_OPEN_EI.V.FSN#
      6450**DCL      6450--REDEF    6450--REDEF
FPT_OPEN_EI.WSN_
      6416**DCL      6416--REDEF
PL6.E3A0      #017=VPD$GET_OUT_FLAVOR File=VPD$UTIL.:E05TSI                      WED 07/30/97 07:38 Page:408
FPT_OPEN_EI_SAVE.ACSVEH_
      6521**DCL      6522--REDEF
FPT_OPEN_EI_SAVE.ALTKEYS_
      6527**DCL      6528--REDEF    6528--REDEF
FPT_OPEN_EI_SAVE.HDR_
      6526**DCL      6527--REDEF
FPT_OPEN_EI_SAVE.TAB_
      6525**DCL      6526--REDEF
FPT_OPEN_EI_SAVE.UHL_
      6519**DCL      6520--REDEF    6520--REDEF
FPT_OPEN_EI_SAVE.V.FSN#
      6559**DCL      6559--REDEF    6559--REDEF
FPT_OPEN_EI_SAVE.WSN_
      6525**DCL      6525--REDEF
FPT_OPEN_OUT.ACSVEH_
      6303**DCL      6304--REDEF
FPT_OPEN_OUT.ALTKEYS_
      6309**DCL      6310--REDEF    6310--REDEF
FPT_OPEN_OUT.HDR_
      6308**DCL      6309--REDEF
FPT_OPEN_OUT.TAB_
      6307**DCL      6308--REDEF
FPT_OPEN_OUT.UHL_
      6301**DCL      6302--REDEF    6302--REDEF
FPT_OPEN_OUT.V.FSN#
      6341**DCL      6341--REDEF    6341--REDEF
FPT_OPEN_OUT.WSN_
      6307**DCL      6307--REDEF
FPT_OPEN_OUT_SAVE.ACSVEH_
      6194**DCL      6195--REDEF
FPT_OPEN_OUT_SAVE.ALTKEYS_
      6200**DCL      6201--REDEF    6201--REDEF
FPT_OPEN_OUT_SAVE.HDR_
      6199**DCL      6200--REDEF
FPT_OPEN_OUT_SAVE.TAB_
      6198**DCL      6199--REDEF
PL6.E3A0      #017=VPD$GET_OUT_FLAVOR File=VPD$UTIL.:E05TSI                      WED 07/30/97 07:38 Page:409
FPT_OPEN_OUT_SAVE.UHL_
      6192**DCL      6193--REDEF    6193--REDEF
FPT_OPEN_OUT_SAVE.V.FSN#
      6232**DCL      6232--REDEF    6232--REDEF
FPT_OPEN_OUT_SAVE.WSN_
      6198**DCL      6198--REDEF
FPT_READ_STD.STATION_
      6622**DCL      6623--REDEF
FPT_READ_STD.V.DVBYTE.REREAD#
      6634**DCL      6634--REDEF
FPT_READ_STD.V.INDX#
      6632**DCL      6632--REDEF
FPT_READ_UC.STATION_
      6583**DCL      6584--REDEF
FPT_READ_UC.V.DVBYTE.REREAD#
      6595**DCL      6595--REDEF
FPT_READ_UC.V.INDX#
      6593**DCL      6593--REDEF
FPT_WRITE_ME.STATION_
      6691**DCL      6691--REDEF
FPT_WRITE_ME.V.DVBYTE.VFC#
      6698**DCL      6698--REDEF
FPT_WRITE_OUT.STATION_
      6722**DCL      6722--REDEF
FPT_WRITE_OUT.V.DVBYTE.VFC#
      6729**DCL      6729--REDEF
FPT_WRITE_UC.STATION_
      6660**DCL      6660--REDEF
FPT_WRITE_UC.V.DVBYTE.VFC#
      6667**DCL      6667--REDEF
FROM_SN.SN
      5566**DCL      5567--REDEF
GETCMD.OUT$
      4773**DCL      4779--REDEF
ICB.FID.STRING
      5590**DCL      5591--REDEF
PL6.E3A0      #017=VPD$GET_OUT_FLAVOR File=VPD$UTIL.:E05TSI                      WED 07/30/97 07:38 Page:410
IFSFA_PARAM.EOMCHAR#
      5945**DCL      5946--REDEF
IFSFA_PARAM.SIG1
      5939**DCL      5939--REDEF
IFSFA_PARAM.SIG2
      5939**DCL      5940--REDEF
IN_RES
      5512**DCL      5512--REDEF
IN_SN.SN
      5528**DCL      5529--REDEF
OCB.DCBPTR$
      5230**DCL      7071>>IF       7071>>IF       7079>>IF       7079>>IF       7079>>IF       7088>>IF
      7088>>IF
OCB.DEV_MASK
      5308**DCL      7054>>IF
OCB.DEV_MASK.IC
      5312**DCL      7062>>IF
OCB.DEV_MASK.LP
      5313**DCL      7062>>IF
OCB.FLAVOR.GRANB
      5320**DCL      7083<<ASSIGN
OCB.FLAVOR.JE
      5321**DCL      7074<<ASSIGN
OCB.FLAVOR.MANAGED
      5322**DCL      7090<<ASSIGN
OCB.FLAVOR.TAPE
      5324**DCL      7056<<ASSIGN
OCB.FLAVOR.UR
      5325**DCL      7065<<ASSIGN
OCB.TYPE
      5274**DCL      5275--REDEF
OFSFA_PARAM.EOMCHAR#
      5975**DCL      5976--REDEF
OFSFA_PARAM.SIG1
      5969**DCL      5969--REDEF
OFSFA_PARAM.SIG2
PL6.E3A0      #017=VPD$GET_OUT_FLAVOR File=VPD$UTIL.:E05TSI                      WED 07/30/97 07:38 Page:411
      5969**DCL      5970--REDEF
OUT_SN.SN
      5546**DCL      5547--REDEF
SPEC_BUF
      5224**DCL      5224--REDEF

PL6.E3A0      #018=VPD$GET_KEY_OR_NUM File=VPD$UTIL.:E05TSI                      WED 07/30/97 07:40 Page:412
     1514        1        /*T***********************************************************/
     1515        2        /*T*                                                         */
     1516        3        /*T* Copyright (c) Bull HN Information Systems Inc., 1997    */
     1517        4        /*T*                                                         */
     1518        5        /*T***********************************************************/
     1519        6        VPD$GET_KEY_OR_NUM: PROC(KEY_BLOCK$,TO_KEY$) ALTRET;
     1520        7        /*I* NAME: VPD$GET_KEY_OR_NUM
     1521        8             PURPOSE: To process the current key or record sequence number.
     1522        9             CALL: CALL VPD$GET_KEY_OR_NUM(KEY_BLOCK$,TO_KEY$) ALTRET(ERROR);
     1523       10             DESCRIPTION: This procedure converts a key or record sequence
     1524       11                          number from text into an actual key.  KEY_BLOCK$ is
     1525       12                          a pointer to the parse block containing the key.
     1526       13                          TO_KEY$ locates a TEXTC area to receive the key.
     1527       14                          If any errors are encountered, a severity 1 message is
     1528       15                          printed and the routine takes the ALTRET.
     1529       16        */
     1530       17        %INCLUDE VP_DATA_R;
     1531     7004        %PARSE$OUT(NAME = OUT$BLK,STCLASS = BASED);
     1532     7049        %PARSE$SYM(NAME = OUT$SYM,STCLASS = BASED);
     1533     7087    1   DCL 1 TEXT$C BASED,
     1534     7088    1         2 LEN UBIN BYTE UNAL,
     1535     7089    1         2 STRING CHAR(TEXT$C.LEN);
     1536     7090    1   DCL 1 TEXT$C_BIT BASED,
     1537     7091    1         2 LEN UBIN BYTE UNAL,
     1538     7092    1         2 STRING,
     1539     7093    1           3 STRINGC CHAR(TEXT$C_BIT.LEN);
     1540     7094    1   DCL 1 TEXT$C_ARY BASED,
     1541     7095    1         2 LEN UBIN BYTE UNAL,
     1542     7096    1         2 STRING(0:0) CHAR(1);
     1543     7097    1   DCL B$UBIN UBIN BASED;
     1544     7098    1   DCL 1 OCT_ARY BASED,
     1545     7099    1         2 LEN UBIN(9) CALIGNED,
     1546     7100    1         2 DIGIT(0:0) UBIN(3) UNAL;
     1547     7101    1   DCL KEY_BLOCK$ PTR;
     1548     7102    1   DCL TO_KEY$ PTR;
     1549     7103    1   DCL 1 NORM$KEY BASED,
     1550     7104    1         2 LEN UBIN BYTE UNAL,
PL6.E3A0      #018=VPD$GET_KEY_OR_NUM File=VPD$UTIL.:E05TSI                      WED 07/30/97 07:40 Page:413
     1551     7105    1         2 KEY CHAR(31) UNAL,
     1552     7106    1         2 OCT_KEY_ARY(0:92) REDEF KEY UBIN(3) UNAL,
     1553     7107    1         2 NUM UBIN WORD UNAL;
     1554     7108    1   DCL 1 EDIT$KEY BASED,
     1555     7109    1         2 LEN UBIN BYTE UNAL,
     1556     7110    1         2 KEY UBIN(27) UNAL;
     1557     7111    1   DCL DEC_NUM SBIN WORD;
     1558     7112    1   DCL DEC$ PTR;
     1559     7113        /**/
     1560     7114        /*  ENTRY DCLS  */
     1561     7115        /**/
     1562     7116        %VP_ENTRIES (OMIT=VPD$GET_KEY_OR_NUM);
     1563     7324    2           DO CASE(KEY_BLOCK$ -> OUT$BLK.CODE);
     1564     7325    2            CASE(1);
     1565     7326    2              CALL OCTAL_KEY ALTRET(GK_ALT);
     1566     7327    2            CASE(2);
     1567     7328    2              CALL QUOTE_KEY ALTRET(GK_ALT);
     1568     7329    2            CASE(3);
     1569     7330    2              CALL EDIT_KEY ALTRET(GK_ALT);
     1570     7331    2            CASE(4);
     1571     7332    2              CALL LOGICAL_REC_NUM ALTRET(GK_ALT);
     1572     7333    2            END;
     1573     7334
     1574     7335    1           RETURN;
     1575     7336
     1576     7337    1   GK_ALT:
     1577     7338    1           ALTRETURN;
     1578     7339        %EJECT;
PL6.E3A0      #018=VPD$GET_KEY_OR_NUM File=VPD$UTIL.:E05TSI                      WED 07/30/97 07:40 Page:414
     1579     7340    1   EDIT_KEY: PROC ALTRET;
     1580     7341        /*I* NAME: EDIT_KEY
     1581     7342             PURPOSE: To validate and store away the current EDIT-style key.
     1582     7343             CALL: CALL EDIT_KEY;
     1583     7344             DESCRIPTION: The current EDIT-style key is checked for being in range
     1584     7345                          and if it is, it is stuffed away; otherwise the ALTRET
     1585     7346                          is taken.
     1586     7347        */
     1587     7348    2   DCL CHAR3 CHAR(3);
     1588     7349    2           TO_KEY$->EDIT$KEY.LEN = 3;
     1589     7350    2           DEC_NUM = 0;
     1590     7351    2           CALL VPD$DECI_MUNGE(KEY_BLOCK$,
     1591     7352    2             0,99999999,                   /* Limits 0 - 99999.999               */
     1592     7353    2             DEC_NUM) ALTRET(BAD_EKEY);
     1593     7354    2           TO_KEY$ -> EDIT$KEY.KEY = DEC_NUM;
     1594     7355    2           RETURN;
     1595     7356        /**/
     1596     7357    2   BAD_EKEY: CALL VPL$ERR_PROC(1,140,'04'O); /* BAD EDIT KEY                     */
     1597     7358        /*E* ERROR:   VPD-00140
     1598     7359             MESSAGE: Bad EDIT key
     1599     7360        */
     1600     7361    2           ALTRETURN;
     1601     7362    2   END EDIT_KEY;
     1602     7363        %EJECT;
PL6.E3A0      #018=VPD$GET_KEY_OR_NUM File=VPD$UTIL.:E05TSI                      WED 07/30/97 07:40 Page:415
     1603     7364    1   LOGICAL_REC_NUM: PROC ALTRET;
     1604     7365        /*I* NAME: LOGICAL_REC_NUM
     1605     7366             PURPOSE: To validate and store away the current logical record number.
     1606     7367             CALL: CALL LOGICAL_REC_NUM;
     1607     7368             DESCRIPTION: If the logical record number is greater than too large,
     1608     7369                          the ALTRET is taken; otherwise the logical record
     1609     7370                          number is stuffed away.
     1610     7371        */
     1611     7372    2           CALL VPD$TEXTC_CHARBIN(TO_KEY$->B$UBIN,
     1612     7373    2             KEY_BLOCK$->OUT$BLK.SUBLK$(0),
     1613     7374    2             -1) ALTRET(BAD_RECNUM);
     1614     7375    2           IF TO_KEY$->B$UBIN=0
     1615     7376    2            THEN
     1616     7377    3            DO;
     1617     7378    3               CALL VPL$ERR_PROC(1,150,'04'O); /* INVALID...LOGICAL REC. NUM=0   */
     1618     7379        /*E* ERROR:   VPD-00150
     1619     7380             MESSAGE: Illegal...logical record number = 0
     1620     7381        */
     1621     7382    3               ALTRETURN;
     1622     7383    3               END;
     1623     7384    2           RETURN;
     1624     7385    2   BAD_RECNUM: CALL VPL$ERR_PROC(1,160,'04'O); /* LOGICAL RECORD NUMBER TOO BIG  */
     1625     7386        /*E* ERROR:   VPD-00160
     1626     7387             MESSAGE: Logical record number too large
     1627     7388        */
     1628     7389    2           ALTRETURN;
     1629     7390    2   END LOGICAL_REC_NUM;
     1630     7391        %EJECT;
PL6.E3A0      #018=VPD$GET_KEY_OR_NUM File=VPD$UTIL.:E05TSI                      WED 07/30/97 07:40 Page:416
     1631     7392    1   OCTAL_KEY: PROC ALTRET;
     1632     7393        /*I* NAME: OCTAL_KEY
     1633     7394             PURPOSE: To validate and store away the current OCTAL-style key.
     1634     7395             CALL: CALL OCTAL_KEY;
     1635     7396             DESCRIPTION: The current OCTAL-style key is checked for being too long or
     1636     7397                          non-octal. If it is, the ALTRET is taken; otherwise
     1637     7398                          the key is formed and stuffed away.
     1638     7399        */
     1639     7400    2   DCL KEY$ PTR;
     1640     7401    2   DCL I SBIN WORD;
     1641     7402    2   DCL CHR CHAR(1);
     1642     7403    2   DCL 1 CHR_VAL REDEF CHR,
     1643     7404    2         2 * BIT(6) UNAL,
     1644     7405    2         2 VAL UBIN(3) UNAL;
     1645     7406    2           KEY$ = KEY_BLOCK$->OUT$BLK.SUBLK$(0)->OUT$BLK.SUBLK$(0);
     1646     7407    2           IF KEY$->TEXT$C.LEN>510
     1647     7408    2            THEN
     1648     7409    3            DO;
     1649     7410    3               CALL VPL$ERR_PROC(1,170,'04'O); /* OCTAL KEY TOO LONG             */
     1650     7411        /*E* ERROR:   VPD-00170
     1651     7412             MESSAGE: Octal key too long
     1652     7413        */
     1653     7414    3               ALTRETURN;
     1654     7415    3               END;
     1655     7416    2            ELSE
     1656     7417    3            DO;
     1657     7418    3               TO_KEY$->TEXT$C.LEN=511;
     1658     7419    3               TO_KEY$->TEXT$C = '0'O;     /* INSURE ZERO PADDING FOR INPUT      */
     1659     7420                                                /* STRINGS OF LENGTH NOT MOD 3        */
     1660     7421    3               TO_KEY$->TEXT$C.LEN = (KEY$->TEXT$C.LEN+2)/3;
     1661     7422    3               I=0;
     1662     7423    4               DO WHILE(I<KEY$->TEXT$C.LEN);
     1663     7424    4                  CHR = KEY$->TEXT$C_ARY.STRING(I);
     1664     7425    4                  IF CHR_VAL & '770'O ~='060'O
     1665     7426    4                   THEN
     1666     7427    5                   DO;
     1667     7428    5                      CALL VPL$ERR_PROC(1,180,'04'O);
PL6.E3A0      #018=VPD$GET_KEY_OR_NUM File=VPD$UTIL.:E05TSI                      WED 07/30/97 07:40 Page:417
     1668     7429        /*E* ERROR:   VPD-00180
     1669     7430             MESSAGE: Bad octal key
     1670     7431        */
     1671     7432    5                      ALTRETURN;
     1672     7433    5                      END;
     1673     7434    4                   ELSE
     1674     7435    4                     TO_KEY$->OCT_ARY.DIGIT(I) = CHR_VAL.VAL;
     1675     7436    4                  I = I+1;
     1676     7437    4                  END;
     1677     7438    3               END;
     1678     7439    2   END OCTAL_KEY;
     1679     7440        %EJECT;
PL6.E3A0      #018=VPD$GET_KEY_OR_NUM File=VPD$UTIL.:E05TSI                      WED 07/30/97 07:40 Page:418
     1680     7441    1   QUOTE_KEY: PROC ALTRET;
     1681     7442        /*I* NAME: QUOTE_KEY
     1682     7443             PURPOSE: To validate and store away the current quoted string style key.
     1683     7444             CALL: CALL QUOTE_KEY;
     1684     7445             DESCRIPTION: The current key is checked for length and the ALTRET
     1685     7446                          is taken if it is too long. If is is OK, it is stuffed
     1686     7447                          away.
     1687     7448        */
     1688     7449    2           IF KEY_BLOCK$->OUT$SYM.COUNT>510
     1689     7450    2            THEN
     1690     7451    3            DO;
     1691     7452    3               CALL VPL$ERR_PROC(1,120,'04'O); /* KEY TOO LONG                   */
     1692     7453        /*E* ERROR:   VPD-00120
     1693     7454             MESSAGE: Quoted key too long
     1694     7455        */
     1695     7456    3               ALTRETURN;
     1696     7457    3               END;
     1697     7458    2            ELSE
     1698     7459    2              TO_KEY$->TEXT$C.LEN = KEY_BLOCK$->OUT$SYM.TEXTC$->TEXT$C.LEN;
     1699     7460    2           TO_KEY$->TEXT$C.STRING = KEY_BLOCK$->OUT$SYM.TEXTC$->TEXT$C.STRING;
     1700     7461    2   END QUOTE_KEY;
     1701     7462    1   END VPD$GET_KEY_OR_NUM;
     1702     7463        %EOD;

PL6.E3A0      #018=VPD$GET_KEY_OR_NUM File=VPD$UTIL.:E05TSI                      WED 07/30/97 07:40 Page:419
--  Include file information  --

   B_MICROPS_C.:E05TOU  is referenced.
   XU_MACRO_C.:E05TOU  is referenced.
   VP_MACRO_C.:E05TOU  is referenced.
   XS_MACRO_C.:E05TOU  is referenced.
   VP_PERR_C.:E05TOU  is referenced.
   CP_6_SUBS.:E05TOU  is referenced.
   CP_6.:E05TOU  cannot be made into a system file and is referenced.
   VP_DATA_R.:E05TOU  cannot be made into a system file and is referenced.
   B$JIT_C.:E05TOU  was found in the system file and is never referenced.
   CP_6_C.:E05TOU  was found in the system file and is referenced.
      No diagnostics issued in procedure VPD$GET_KEY_OR_NUM.

   Procedure VPD$GET_KEY_OR_NUM requires 214 words for executable code.
   Procedure VPD$GET_KEY_OR_NUM requires 16 words of local(AUTO) storage.

PL6.E3A0      #018=VPD$GET_KEY_OR_NUM File=VPD$UTIL.:E05TSI                      WED 07/30/97 07:40 Page:420

 Object Unit name= VPD$GET_KEY_OR_NUM                         File name= VPD$UTIL.:E05TOU
 UTS= JUL 30 '97 07:40:14.36 WED                              Compiler= PL-6/E31         Sev=      00
 SharedLib= :SHARED_SYSTEM                                    Alt SharedLib=


    ****  Control sections  ****

 Sect   Type Bound  Init  Size OctSiz  Section name(segment info)
    0   DCB   even  none     0      0  M$UC
    1   DCB   even  none     0      0  M$EI
    2   DCB   even  none     0      0  M$EO
    3   DCB   even  none     0      0  M$EO1
    4   DCB   even  none     0      0  M$ME
    5   DCB   even  none     0      0  M$SI
    6   DCB   even  none     0      0  M$READFILE
    7   DCB   even  none     0      0  M$DO
    8   DCB   even  none     0      0  M$STD1
    9   DCB   even  none     0      0  M$SORT1
   10   Proc  even  none   214    326  VPD$GET_KEY_OR_NUM
   11  RoData even  none    30     36  VPD$GET_KEY_OR_NUM

    ****  Entry defs  ****

                              Check   Calling
                             calling  sequence
  Sect OctLoc Primary Altret sequence   type   Parms  Name
    10      0   yes    yes     yes      Std        2  VPD$GET_KEY_OR_NUM
PL6.E3A0      #018=VPD$GET_KEY_OR_NUM File=VPD$UTIL.:E05TSI                      WED 07/30/97 07:40 Page:421

  ****  Entry refs  ****

         Check        Calling
        calling       sequence
Altret sequence SRef   type   Args  Name
 yes     yes           Std       4 VPD$DECI_MUNGE
         yes           Std       8 VPL$ERR_PROC
 yes     yes           Std       4 VPD$TEXTC_CHARBIN
                       nStd      0 X66_AUTO_2
                       nStd      0 X66_ARET
                       nStd      0 X66_AALT
                       Std       0 B_CONSPOOL_D

  ****  Data refs  ****

  Flags:  r = read only, s = secondary
Flgs Name                             Flgs Name                             Flgs Name
     M$UC                                  BREAK_LOC                             BREAK_MESSAGE_REPORTER
     SPEC_BUF                              IN_RES                                M$EI
     M$EO                                  M$EO1                                 M$ME
     M$SI                                  M$READFILE                            M$DO
     M$STD1                                M$SORT1                               B_VECTNIL

  ****  Segment refs  ****

  Flags:  r = read only, s = secondary
Flgs Name                             Flgs Name                             Flgs Name
     ISSID
PL6.E3A0      #018=VPD$GET_KEY_OR_NUM File=VPD$UTIL.:E05TSI                      WED 07/30/97 07:40 Page:422


     1514        1        /*T***********************************************************/
     1515        2        /*T*                                                         */
     1516        3        /*T* Copyright (c) Bull HN Information Systems Inc., 1997    */
     1517        4        /*T*                                                         */
     1518        5        /*T***********************************************************/
     1519        6        VPD$GET_KEY_OR_NUM: PROC(KEY_BLOCK$,TO_KEY$) ALTRET;

      6 10 000000   000000 700200 xent  VPD$GET_KEY* TSX0  ! X66_AUTO_2
        10 000001   000020 000002                    ZERO    16,2

     1520        7        /*I* NAME: VPD$GET_KEY_OR_NUM
     1521        8             PURPOSE: To process the current key or record sequence number.
     1522        9             CALL: CALL VPD$GET_KEY_OR_NUM(KEY_BLOCK$,TO_KEY$) ALTRET(ERROR);
     1523       10             DESCRIPTION: This procedure converts a key or record sequence
     1524       11                          number from text into an actual key.  KEY_BLOCK$ is
     1525       12                          a pointer to the parse block containing the key.
     1526       13                          TO_KEY$ locates a TEXTC area to receive the key.
     1527       14                          If any errors are encountered, a severity 1 message is
     1528       15                          printed and the routine takes the ALTRET.
     1529       16        */
     1530       17        %INCLUDE VP_DATA_R;
     1531     7004        %PARSE$OUT(NAME = OUT$BLK,STCLASS = BASED);
     1532     7049        %PARSE$SYM(NAME = OUT$SYM,STCLASS = BASED);
     1533     7087    1   DCL 1 TEXT$C BASED,
     1534     7088    1         2 LEN UBIN BYTE UNAL,
     1535     7089    1         2 STRING CHAR(TEXT$C.LEN);
     1536     7090    1   DCL 1 TEXT$C_BIT BASED,
     1537     7091    1         2 LEN UBIN BYTE UNAL,
     1538     7092    1         2 STRING,
     1539     7093    1           3 STRINGC CHAR(TEXT$C_BIT.LEN);
     1540     7094    1   DCL 1 TEXT$C_ARY BASED,
     1541     7095    1         2 LEN UBIN BYTE UNAL,
     1542     7096    1         2 STRING(0:0) CHAR(1);
     1543     7097    1   DCL B$UBIN UBIN BASED;
     1544     7098    1   DCL 1 OCT_ARY BASED,
     1545     7099    1         2 LEN UBIN(9) CALIGNED,
PL6.E3A0      #018=VPD$GET_KEY_OR_NUM File=VPD$UTIL.:E05TSI                      WED 07/30/97 07:40 Page:423
     1546     7100    1         2 DIGIT(0:0) UBIN(3) UNAL;
     1547     7101    1   DCL KEY_BLOCK$ PTR;
     1548     7102    1   DCL TO_KEY$ PTR;
     1549     7103    1   DCL 1 NORM$KEY BASED,
     1550     7104    1         2 LEN UBIN BYTE UNAL,
     1551     7105    1         2 KEY CHAR(31) UNAL,
     1552     7106    1         2 OCT_KEY_ARY(0:92) REDEF KEY UBIN(3) UNAL,
     1553     7107    1         2 NUM UBIN WORD UNAL;
     1554     7108    1   DCL 1 EDIT$KEY BASED,
     1555     7109    1         2 LEN UBIN BYTE UNAL,
     1556     7110    1         2 KEY UBIN(27) UNAL;
     1557     7111    1   DCL DEC_NUM SBIN WORD;
     1558     7112    1   DCL DEC$ PTR;
     1559     7113        /**/
     1560     7114        /*  ENTRY DCLS  */
     1561     7115        /**/
     1562     7116        %VP_ENTRIES (OMIT=VPD$GET_KEY_OR_NUM);
     1563     7324    2           DO CASE(KEY_BLOCK$ -> OUT$BLK.CODE);

   7324 10 000002   200003 470500                    LDP0    @KEY_BLOCK$,,AUTO
        10 000003   000000 471500                    LDP1    0,,PR0
        10 000004   100000 720100                    LXL0    0,,PR1
        10 000005   000005 100003                    CMPX0   5,DU
        10 000006   000010 602010 10                 TNC     s:7324+6,X0
        10 000007   000030 710000 10                 TRA     s:7335
        10 000010   000030 710000 10                 TRA     s:7335
        10 000011   000015 710000 10                 TRA     s:7326
        10 000012   000020 710000 10                 TRA     s:7328
        10 000013   000023 710000 10                 TRA     s:7330
        10 000014   000026 710000 10                 TRA     s:7332

     1564     7325    2            CASE(1);

     1565     7326    2              CALL OCTAL_KEY ALTRET(GK_ALT);

   7326 10 000015   000131 701000 10                 TSX1    OCTAL_KEY
        10 000016   000031 702000 10                 TSX2    GK_ALT
PL6.E3A0      #018=VPD$GET_KEY_OR_NUM File=VPD$UTIL.:E05TSI                      WED 07/30/97 07:40 Page:424
        10 000017   000030 710000 10                 TRA     s:7335

     1566     7327    2            CASE(2);

     1567     7328    2              CALL QUOTE_KEY ALTRET(GK_ALT);

   7328 10 000020   000263 701000 10                 TSX1    QUOTE_KEY
        10 000021   000031 702000 10                 TSX2    GK_ALT
        10 000022   000030 710000 10                 TRA     s:7335

     1568     7329    2            CASE(3);

     1569     7330    2              CALL EDIT_KEY ALTRET(GK_ALT);

   7330 10 000023   000032 701000 10                 TSX1    EDIT_KEY
        10 000024   000031 702000 10                 TSX2    GK_ALT
        10 000025   000030 710000 10                 TRA     s:7335

     1570     7331    2            CASE(4);

     1571     7332    2              CALL LOGICAL_REC_NUM ALTRET(GK_ALT);

   7332 10 000026   000071 701000 10                 TSX1    LOGICAL_REC_NUM
        10 000027   000031 702000 10                 TSX2    GK_ALT

     1572     7333    2            END;

     1573     7334
     1574     7335    1           RETURN;

   7335 10 000030   000000 702200 xent               TSX2  ! X66_ARET

     1575     7336
     1576     7337    1   GK_ALT:
     1577     7338    1           ALTRETURN;

   7338 10 000031   000000 702200 xent  GK_ALT       TSX2  ! X66_AALT
PL6.E3A0      #018=VPD$GET_KEY_OR_NUM File=VPD$UTIL.:E05TSI                      WED 07/30/97 07:40 Page:425

     1578     7339        %EJECT;
PL6.E3A0      #018=VPD$GET_KEY_OR_NUM File=VPD$UTIL.:E05TSI                      WED 07/30/97 07:40 Page:426
     1579     7340    1   EDIT_KEY: PROC ALTRET;

   7340 10 000032   200010 741300       EDIT_KEY     STX1  ! DEC_NUM+3,,AUTO

     1580     7341        /*I* NAME: EDIT_KEY
     1581     7342             PURPOSE: To validate and store away the current EDIT-style key.
     1582     7343             CALL: CALL EDIT_KEY;
     1583     7344             DESCRIPTION: The current EDIT-style key is checked for being in range
     1584     7345                          and if it is, it is stuffed away; otherwise the ALTRET
     1585     7346                          is taken.
     1586     7347        */
     1587     7348    2   DCL CHAR3 CHAR(3);
     1588     7349    2           TO_KEY$->EDIT$KEY.LEN = 3;

   7349 10 000033   200004 470500                    LDP0    @TO_KEY$,,AUTO
        10 000034   000000 471500                    LDP1    0,,PR0
        10 000035   003100 061400                    CSR     bolr='003'O
        10 000036   000005 000044 xsym               BDSC    B_VECTNIL+5              by=0,bit=0,n=36
        10 000037   100000 000011                    BDSC    0,,PR1                   by=0,bit=0,n=9

     1589     7350    2           DEC_NUM = 0;

   7350 10 000040   200005 450100                    STZ     DEC_NUM,,AUTO

     1590     7351    2           CALL VPD$DECI_MUNGE(KEY_BLOCK$,

   7351 10 000041   200005 631500                    EPPR1   DEC_NUM,,AUTO
        10 000042   200017 451500                    STP1    CHR+4,,AUTO
        10 000043   000001 236000 11                 LDQ     1
        10 000044   200016 756100                    STQ     CHR+3,,AUTO
        10 000045   000002 236000 11                 LDQ     2
        10 000046   200003 235100                    LDA     @KEY_BLOCK$,,AUTO
        10 000047   200014 757100                    STAQ    CHR+1,,AUTO
        10 000050   200014 630500                    EPPR0   CHR+1,,AUTO
        10 000051   000022 631400 xsym               EPPR1   B_VECTNIL+18
        10 000052   000000 701000 xent               TSX1    VPD$DECI_MUNGE
        10 000053   000063 702000 10                 TSX2    BAD_EKEY
PL6.E3A0      #018=VPD$GET_KEY_OR_NUM File=VPD$UTIL.:E05TSI                      WED 07/30/97 07:40 Page:427

     1591     7352    2             0,99999999,                   /* Limits 0 - 99999.999               */
     1592     7353    2             DEC_NUM) ALTRET(BAD_EKEY);
     1593     7354    2           TO_KEY$ -> EDIT$KEY.KEY = DEC_NUM;

   7354 10 000054   200004 470500                    LDP0    @TO_KEY$,,AUTO
        10 000055   000000 471500                    LDP1    0,,PR0
        10 000056   003100 061500                    CSR     bolr='003'O
        10 000057   200005 000044                    BDSC    DEC_NUM,,AUTO            by=0,bit=0,n=36
        10 000060   100000 200033                    BDSC    0,,PR1                   by=1,bit=0,n=27

     1594     7355    2           RETURN;

   7355 10 000061   200010 221300                    LDX1  ! DEC_NUM+3,,AUTO
        10 000062   000001 702211                    TSX2  ! 1,X1

     1595     7356        /**/
     1596     7357    2   BAD_EKEY: CALL VPL$ERR_PROC(1,140,'04'O); /* BAD EDIT KEY                     */

   7357 10 000063   000005 630400 11    BAD_EKEY     EPPR0   5
        10 000064   000021 631400 xsym               EPPR1   B_VECTNIL+17
        10 000065   000000 701000 xent               TSX1    VPL$ERR_PROC
        10 000066   000000 011000                    NOP     0

     1597     7358        /*E* ERROR:   VPD-00140
     1598     7359             MESSAGE: Bad EDIT key
     1599     7360        */
     1600     7361    2           ALTRETURN;

   7361 10 000067   200010 221300                    LDX1  ! DEC_NUM+3,,AUTO
        10 000070   000000 702211                    TSX2  ! 0,X1

     1601     7362    2   END EDIT_KEY;
     1602     7363        %EJECT;
PL6.E3A0      #018=VPD$GET_KEY_OR_NUM File=VPD$UTIL.:E05TSI                      WED 07/30/97 07:40 Page:428
     1603     7364    1   LOGICAL_REC_NUM: PROC ALTRET;

   7364 10 000071   200010 741300       LOGICAL_REC* STX1  ! DEC_NUM+3,,AUTO

     1604     7365        /*I* NAME: LOGICAL_REC_NUM
     1605     7366             PURPOSE: To validate and store away the current logical record number.
     1606     7367             CALL: CALL LOGICAL_REC_NUM;
     1607     7368             DESCRIPTION: If the logical record number is greater than too large,
     1608     7369                          the ALTRET is taken; otherwise the logical record
     1609     7370                          number is stuffed away.
     1610     7371        */
     1611     7372    2           CALL VPD$TEXTC_CHARBIN(TO_KEY$->B$UBIN,

   7372 10 000072   200004 470500                    LDP0    @TO_KEY$,,AUTO
        10 000073   000000 471500                    LDP1    0,,PR0
        10 000074   200003 473500                    LDP3    @KEY_BLOCK$,,AUTO
        10 000075   300000 474500                    LDP4    0,,PR3
        10 000076   000010 236000 11                 LDQ     8
        10 000077   200016 756100                    STQ     CHR+3,,AUTO
        10 000100   400003 635500                    EPPR5   3,,PR4
        10 000101   200015 455500                    STP5    CHR+2,,AUTO
        10 000102   200014 451500                    STP1    CHR+1,,AUTO
        10 000103   200014 630500                    EPPR0   CHR+1,,AUTO
        10 000104   000021 631400 xsym               EPPR1   B_VECTNIL+17
        10 000105   000000 701000 xent               TSX1    VPD$TEXTC_CHARBIN
        10 000106   000123 702000 10                 TSX2    BAD_RECNUM

     1612     7373    2             KEY_BLOCK$->OUT$BLK.SUBLK$(0),
     1613     7374    2             -1) ALTRET(BAD_RECNUM);
     1614     7375    2           IF TO_KEY$->B$UBIN=0

   7375 10 000107   200004 470500                    LDP0    @TO_KEY$,,AUTO
        10 000110   000000 471500                    LDP1    0,,PR0
        10 000111   100000 235100                    LDA     0,,PR1
        10 000112   000121 601000 10                 TNZ     s:7384

     1615     7376    2            THEN
PL6.E3A0      #018=VPD$GET_KEY_OR_NUM File=VPD$UTIL.:E05TSI                      WED 07/30/97 07:40 Page:429
     1616     7377    3            DO;

     1617     7378    3               CALL VPL$ERR_PROC(1,150,'04'O); /* INVALID...LOGICAL REC. NUM=0   */

   7378 10 000113   000012 630400 11                 EPPR0   10
        10 000114   000021 631400 xsym               EPPR1   B_VECTNIL+17
        10 000115   000000 701000 xent               TSX1    VPL$ERR_PROC
        10 000116   000000 011000                    NOP     0

     1618     7379        /*E* ERROR:   VPD-00150
     1619     7380             MESSAGE: Illegal...logical record number = 0
     1620     7381        */
     1621     7382    3               ALTRETURN;

   7382 10 000117   200010 221300                    LDX1  ! DEC_NUM+3,,AUTO
        10 000120   000000 702211                    TSX2  ! 0,X1

     1622     7383    3               END;
     1623     7384    2           RETURN;

   7384 10 000121   200010 221300                    LDX1  ! DEC_NUM+3,,AUTO
        10 000122   000001 702211                    TSX2  ! 1,X1

     1624     7385    2   BAD_RECNUM: CALL VPL$ERR_PROC(1,160,'04'O); /* LOGICAL RECORD NUMBER TOO BIG  */

   7385 10 000123   000016 630400 11    BAD_RECNUM   EPPR0   14
        10 000124   000021 631400 xsym               EPPR1   B_VECTNIL+17
        10 000125   000000 701000 xent               TSX1    VPL$ERR_PROC
        10 000126   000000 011000                    NOP     0

     1625     7386        /*E* ERROR:   VPD-00160
     1626     7387             MESSAGE: Logical record number too large
     1627     7388        */
     1628     7389    2           ALTRETURN;

   7389 10 000127   200010 221300                    LDX1  ! DEC_NUM+3,,AUTO
        10 000130   000000 702211                    TSX2  ! 0,X1
PL6.E3A0      #018=VPD$GET_KEY_OR_NUM File=VPD$UTIL.:E05TSI                      WED 07/30/97 07:40 Page:430

     1629     7390    2   END LOGICAL_REC_NUM;
     1630     7391        %EJECT;
PL6.E3A0      #018=VPD$GET_KEY_OR_NUM File=VPD$UTIL.:E05TSI                      WED 07/30/97 07:40 Page:431
     1631     7392    1   OCTAL_KEY: PROC ALTRET;

   7392 10 000131   200010 741300       OCTAL_KEY    STX1  ! DEC_NUM+3,,AUTO

     1632     7393        /*I* NAME: OCTAL_KEY
     1633     7394             PURPOSE: To validate and store away the current OCTAL-style key.
     1634     7395             CALL: CALL OCTAL_KEY;
     1635     7396             DESCRIPTION: The current OCTAL-style key is checked for being too long or
     1636     7397                          non-octal. If it is, the ALTRET is taken; otherwise
     1637     7398                          the key is formed and stuffed away.
     1638     7399        */
     1639     7400    2   DCL KEY$ PTR;
     1640     7401    2   DCL I SBIN WORD;
     1641     7402    2   DCL CHR CHAR(1);
     1642     7403    2   DCL 1 CHR_VAL REDEF CHR,
     1643     7404    2         2 * BIT(6) UNAL,
     1644     7405    2         2 VAL UBIN(3) UNAL;
     1645     7406    2           KEY$ = KEY_BLOCK$->OUT$BLK.SUBLK$(0)->OUT$BLK.SUBLK$(0);

   7406 10 000132   200003 470500                    LDP0    @KEY_BLOCK$,,AUTO
        10 000133   000000 471500                    LDP1    0,,PR0
        10 000134   100003 473500                    LDP3    3,,PR1
        10 000135   300003 236100                    LDQ     3,,PR3
        10 000136   200011 756100                    STQ     KEY$,,AUTO

     1646     7407    2           IF KEY$->TEXT$C.LEN>510

   7407 10 000137   200011 474500                    LDP4    KEY$,,AUTO
        10 000140   000100 101500                    MRL     fill='000'O
        10 000141   400000 000001                    ADSC9   0,,PR4                   cn=0,n=1
        10 000142   200014 000004                    ADSC9   CHR+1,,AUTO              cn=0,n=4
        10 000143   200014 236100                    LDQ     CHR+1,,AUTO
        10 000144   000777 116007                    CMPQ    511,DL
        10 000145   000154 604000 10                 TMI     s:7418

     1647     7408    2            THEN
     1648     7409    3            DO;
PL6.E3A0      #018=VPD$GET_KEY_OR_NUM File=VPD$UTIL.:E05TSI                      WED 07/30/97 07:40 Page:432

     1649     7410    3               CALL VPL$ERR_PROC(1,170,'04'O); /* OCTAL KEY TOO LONG             */

   7410 10 000146   000022 630400 11                 EPPR0   18
        10 000147   000021 631400 xsym               EPPR1   B_VECTNIL+17
        10 000150   000000 701000 xent               TSX1    VPL$ERR_PROC
        10 000151   000000 011000                    NOP     0

     1650     7411        /*E* ERROR:   VPD-00170
     1651     7412             MESSAGE: Octal key too long
     1652     7413        */
     1653     7414    3               ALTRETURN;

   7414 10 000152   200010 221300                    LDX1  ! DEC_NUM+3,,AUTO
        10 000153   000000 702211                    TSX2  ! 0,X1

     1654     7415    3               END;
     1655     7416    2            ELSE
     1656     7417    3            DO;

     1657     7418    3               TO_KEY$->TEXT$C.LEN=511;

   7418 10 000154   200004 471500                    LDP1    @TO_KEY$,,AUTO
        10 000155   100000 473500                    LDP3    0,,PR1
        10 000156   000100 101400                    MRL     fill='000'O
        10 000157   000025 000004 11                 ADSC9   21                       cn=0,n=4
        10 000160   300000 000001                    ADSC9   0,,PR3                   cn=0,n=1

     1658     7419    3               TO_KEY$->TEXT$C = '0'O;     /* INSURE ZERO PADDING FOR INPUT      */

   7419 10 000161   100000 473500                    LDP3    0,,PR1
        10 000162   000100 101500                    MRL     fill='000'O
        10 000163   300000 000001                    ADSC9   0,,PR3                   cn=0,n=1
        10 000164   200014 000002                    ADSC9   CHR+1,,AUTO              cn=0,n=2
        10 000165   200014 220100                    LDX0    CHR+1,,AUTO
        10 000166   000001 621010                    EAX1    1,X0
        10 000167   000140 100400                    MLR     fill='000'O
PL6.E3A0      #018=VPD$GET_KEY_OR_NUM File=VPD$UTIL.:E05TSI                      WED 07/30/97 07:40 Page:433
        10 000170   000002 000001 xsym               ADSC9   B_VECTNIL+2              cn=0,n=1
        10 000171   300000 000011                    ADSC9   0,,PR3                   cn=0,n=*X1

     1659     7420                                                /* STRINGS OF LENGTH NOT MOD 3        */
     1660     7421    3               TO_KEY$->TEXT$C.LEN = (KEY$->TEXT$C.LEN+2)/3;

   7421 10 000172   100000 473500                    LDP3    0,,PR1
        10 000173   000100 101500                    MRL     fill='000'O
        10 000174   400000 000001                    ADSC9   0,,PR4                   cn=0,n=1
        10 000175   200014 000004                    ADSC9   CHR+1,,AUTO              cn=0,n=4
        10 000176   200014 236100                    LDQ     CHR+1,,AUTO
        10 000177   000002 036007                    ADLQ    2,DL
        10 000200   000003 506007                    DIV     3,DL
        10 000201   200015 756100                    STQ     CHR+2,,AUTO
        10 000202   000100 101500                    MRL     fill='000'O
        10 000203   200015 000004                    ADSC9   CHR+2,,AUTO              cn=0,n=4
        10 000204   300000 000001                    ADSC9   0,,PR3                   cn=0,n=1

     1661     7422    3               I=0;

   7422 10 000205   200012 450100                    STZ     I,,AUTO

     1662     7423    4               DO WHILE(I<KEY$->TEXT$C.LEN);

   7423 10 000206   000100 101500                    MRL     fill='000'O
        10 000207   400000 000001                    ADSC9   0,,PR4                   cn=0,n=1
        10 000210   200014 000004                    ADSC9   CHR+1,,AUTO              cn=0,n=4
        10 000211   200014 236100                    LDQ     CHR+1,,AUTO
        10 000212   200012 116100                    CMPQ    I,,AUTO
        10 000213   000261 604400 10                 TMOZ    s:7439

     1663     7424    4                  CHR = KEY$->TEXT$C_ARY.STRING(I);

   7424 10 000214   200011 470500                    LDP0    KEY$,,AUTO
        10 000215   200012 235100                    LDA     I,,AUTO
        10 000216   040100 100505                    MLR     fill='040'O
        10 000217   000000 200001                    ADSC9   0,A,PR0                  cn=1,n=1
PL6.E3A0      #018=VPD$GET_KEY_OR_NUM File=VPD$UTIL.:E05TSI                      WED 07/30/97 07:40 Page:434
        10 000220   200013 000001                    ADSC9   CHR,,AUTO                cn=0,n=1

     1664     7425    4                  IF CHR_VAL & '770'O ~='060'O

   7425 10 000221   400000 220003                    LDX0    -131072,DU
        10 000222   000224 710000 10                 TRA     s:7425+3
        10 000223   000000 220003                    LDX0    0,DU
        10 000224   000000 636010                    EAQ     0,X0
        10 000225   200014 756100                    STQ     CHR+1,,AUTO
        10 000226   200013 236100                    LDQ     CHR,,AUTO
        10 000227   777000 376003                    ANQ     -512,DU
        10 000230   200014 376100                    ANQ     CHR+1,,AUTO
        10 000231   000240 600000 10                 TZE     s:7435

     1665     7426    4                   THEN
     1666     7427    5                   DO;

     1667     7428    5                      CALL VPL$ERR_PROC(1,180,'04'O);

   7428 10 000232   000027 630400 11                 EPPR0   23
        10 000233   000021 631400 xsym               EPPR1   B_VECTNIL+17
        10 000234   000000 701000 xent               TSX1    VPL$ERR_PROC
        10 000235   000000 011000                    NOP     0

     1668     7429        /*E* ERROR:   VPD-00180
     1669     7430             MESSAGE: Bad octal key
     1670     7431        */
     1671     7432    5                      ALTRETURN;

   7432 10 000236   200010 221300                    LDX1  ! DEC_NUM+3,,AUTO
        10 000237   000000 702211                    TSX2  ! 0,X1

     1672     7433    5                      END;
     1673     7434    4                   ELSE
     1674     7435    4                     TO_KEY$->OCT_ARY.DIGIT(I) = CHR_VAL.VAL;

   7435 10 000240   200004 471500                    LDP1    @TO_KEY$,,AUTO
PL6.E3A0      #018=VPD$GET_KEY_OR_NUM File=VPD$UTIL.:E05TSI                      WED 07/30/97 07:40 Page:435
        10 000241   100000 473500                    LDP3    0,,PR1
        10 000242   200012 236100                    LDQ     I,,AUTO
        10 000243   000003 402007                    MPY     3,DL
        10 000244   000000 116003                    CMPQ    0,DU
        10 000245   000247 605000 10                 TPL     s:7435+7
        10 000246   000044 036003                    ADLQ    36,DU
        10 000247   003106 060500                    CSL     bolr='003'O
        10 000250   200013 060003                    BDSC    CHR,,AUTO                by=0,bit=6,n=3
        10 000251   300000 200003                    BDSC    0,Q,PR3                  by=1,bit=0,n=3

     1675     7436    4                  I = I+1;

   7436 10 000252   200012 054100                    AOS     I,,AUTO

     1676     7437    4                  END;

   7437 10 000253   000100 101500                    MRL     fill='000'O
        10 000254   000000 000001                    ADSC9   0,,PR0                   cn=0,n=1
        10 000255   200014 000004                    ADSC9   CHR+1,,AUTO              cn=0,n=4
        10 000256   200014 236100                    LDQ     CHR+1,,AUTO
        10 000257   200012 116100                    CMPQ    I,,AUTO
        10 000260   000214 605400 10                 TPNZ    s:7424

     1677     7438    3               END;

     1678     7439    2   END OCTAL_KEY;

   7439 10 000261   200010 221300                    LDX1  ! DEC_NUM+3,,AUTO
        10 000262   000001 702211                    TSX2  ! 1,X1

     1679     7440        %EJECT;
PL6.E3A0      #018=VPD$GET_KEY_OR_NUM File=VPD$UTIL.:E05TSI                      WED 07/30/97 07:40 Page:436
     1680     7441    1   QUOTE_KEY: PROC ALTRET;

   7441 10 000263   200010 741300       QUOTE_KEY    STX1  ! DEC_NUM+3,,AUTO

     1681     7442        /*I* NAME: QUOTE_KEY
     1682     7443             PURPOSE: To validate and store away the current quoted string style key.
     1683     7444             CALL: CALL QUOTE_KEY;
     1684     7445             DESCRIPTION: The current key is checked for length and the ALTRET
     1685     7446                          is taken if it is too long. If is is OK, it is stuffed
     1686     7447                          away.
     1687     7448        */
     1688     7449    2           IF KEY_BLOCK$->OUT$SYM.COUNT>510

   7449 10 000264   200003 470500                    LDP0    @KEY_BLOCK$,,AUTO
        10 000265   000000 471500                    LDP1    0,,PR0
        10 000266   100004 236100                    LDQ     4,,PR1
        10 000267   777000 376003                    ANQ     -512,DU
        10 000270   777000 116003                    CMPQ    -512,DU
        10 000271   000300 602000 10                 TNC     s:7459

     1689     7450    2            THEN
     1690     7451    3            DO;

     1691     7452    3               CALL VPL$ERR_PROC(1,120,'04'O); /* KEY TOO LONG                   */

   7452 10 000272   000033 630400 11                 EPPR0   27
        10 000273   000021 631400 xsym               EPPR1   B_VECTNIL+17
        10 000274   000000 701000 xent               TSX1    VPL$ERR_PROC
        10 000275   000000 011000                    NOP     0

     1692     7453        /*E* ERROR:   VPD-00120
     1693     7454             MESSAGE: Quoted key too long
     1694     7455        */
     1695     7456    3               ALTRETURN;

   7456 10 000276   200010 221300                    LDX1  ! DEC_NUM+3,,AUTO
        10 000277   000000 702211                    TSX2  ! 0,X1
PL6.E3A0      #018=VPD$GET_KEY_OR_NUM File=VPD$UTIL.:E05TSI                      WED 07/30/97 07:40 Page:437

     1696     7457    3               END;
     1697     7458    2            ELSE
     1698     7459    2              TO_KEY$->TEXT$C.LEN = KEY_BLOCK$->OUT$SYM.TEXTC$->TEXT$C.LEN;

   7459 10 000300   200004 473500                    LDP3    @TO_KEY$,,AUTO
        10 000301   300000 474500                    LDP4    0,,PR3
        10 000302   100003 475500                    LDP5    3,,PR1
        10 000303   000100 100500                    MLR     fill='000'O
        10 000304   500000 000001                    ADSC9   0,,PR5                   cn=0,n=1
        10 000305   400000 000001                    ADSC9   0,,PR4                   cn=0,n=1

     1699     7460    2           TO_KEY$->TEXT$C.STRING = KEY_BLOCK$->OUT$SYM.TEXTC$->TEXT$C.STRING;

   7460 10 000306   300000 471500                    LDP1    0,,PR3
        10 000307   000100 101500                    MRL     fill='000'O
        10 000310   100000 000001                    ADSC9   0,,PR1                   cn=0,n=1
        10 000311   200014 000002                    ADSC9   CHR+1,,AUTO              cn=0,n=2
        10 000312   200014 220100                    LDX0    CHR+1,,AUTO
        10 000313   000000 474500                    LDP4    0,,PR0
        10 000314   400003 475500                    LDP5    3,,PR4
        10 000315   000100 101500                    MRL     fill='000'O
        10 000316   500000 000001                    ADSC9   0,,PR5                   cn=0,n=1
        10 000317   200015 000002                    ADSC9   CHR+2,,AUTO              cn=0,n=2
        10 000320   200015 221100                    LDX1    CHR+2,,AUTO
        10 000321   040140 100540                    MLR     fill='040'O
        10 000322   500000 200011                    ADSC9   0,,PR5                   cn=1,n=*X1
        10 000323   100000 200010                    ADSC9   0,,PR1                   cn=1,n=*X0

     1700     7461    2   END QUOTE_KEY;

   7461 10 000324   200010 221300                    LDX1  ! DEC_NUM+3,,AUTO
        10 000325   000001 702211                    TSX2  ! 1,X1
     1701     7462    1   END VPD$GET_KEY_OR_NUM;
     1702     7463        %EOD;

PL6.E3A0      #018=VPD$GET_KEY_OR_NUM File=VPD$UTIL.:E05TSI                      WED 07/30/97 07:40 Page:438
--  Include file information  --

   B_MICROPS_C.:E05TOU  is referenced.
   XU_MACRO_C.:E05TOU  is referenced.
   VP_MACRO_C.:E05TOU  is referenced.
   XS_MACRO_C.:E05TOU  is referenced.
   VP_PERR_C.:E05TOU  is referenced.
   CP_6_SUBS.:E05TOU  is referenced.
   CP_6.:E05TOU  cannot be made into a system file and is referenced.
   VP_DATA_R.:E05TOU  cannot be made into a system file and is referenced.
   B$JIT_C.:E05TOU  was found in the system file and is never referenced.
   CP_6_C.:E05TOU  was found in the system file and is referenced.
      No diagnostics issued in procedure VPD$GET_KEY_OR_NUM.
PL6.E3A0      #018=VPD$GET_KEY_OR_NUM File=VPD$UTIL.:E05TSI                      WED 07/30/97 07:40 Page:439

 **** Variables and constants ****

  ****  Auto variables  ****

  ****  Scalars and arrays  ****
OctLoc.c.b A Datatyp(siz) R M Lvl/name                 OctLoc.c.b A Datatyp(siz) R M Lvl/name

     3-0-0/w PTR         r     1 @KEY_BLOCK$                4-0-0/w PTR         r     1 @TO_KEY$
    13-0-0/c CHAR        r     1 CHR                       13-0-0/c STRC(9)     r     1 CHR_VAL
     5-0-0/w SBIN        r     1 DEC_NUM                   12-0-0/w SBIN        r     1 I
    11-0-0/w PTR         r     1 KEY$                      *0-0-0/w PTR         r     1 KEY_BLOCK$
    *0-0-0/w PTR         r     1 TO_KEY$

  ****  SYMREF variables  ****

  ****  Scalars and arrays  ****
OctLoc.c.b A Datatyp(siz) R M Lvl/name                 OctLoc.c.b A Datatyp(siz) R M Lvl/name

     0-0-0/w EPTR        r     1 BREAK_MESSAGE_REPORTER

  ****  BASED and DCB variables  ****

  ****  Scalars and arrays  ****
OctLoc.c.b A Datatyp(siz) R M Lvl/name                 OctLoc.c.b A Datatyp(siz) R M Lvl/name

     0-0-0/w UBIN        r     1 B$UBIN                     0-0-0/b STRC        r     1 EDIT$KEY
     0-0-0/c STRC(12)    r     1 OCT_ARY                    0-0-0/w STRC(144)   r     1 OUT$BLK
     0-0-0/w ASTR(153)   r     1 OUT$SYM                    0-0-0/c ASTR(9)     r     1 TEXT$C
     0-0-0/c STRC(18)    r     1 TEXT$C_ARY                 0-0-0/c ASTR(9)     r     1 TEXT$C_BIT


   Procedure VPD$GET_KEY_OR_NUM requires 214 words for executable code.
   Procedure VPD$GET_KEY_OR_NUM requires 16 words of local(AUTO) storage.
PL6.E3A0      #018=VPD$GET_KEY_OR_NUM File=VPD$UTIL.:E05TSI                      WED 07/30/97 07:40 Page:440
          *** CROSS REFERENCE LISTING ***
**     DENOTES     IDENTIFIER DEFINITION
<<                 IDENTIFIER'S VALUE SET
>>                 IDENTIFIER'S VALUE USED
<>                 IDENTIFIER SET AND/OR USED
--                 IDENTIFIER REFERENCED
PL6.E3A0      #018=VPD$GET_KEY_OR_NUM File=VPD$UTIL.:E05TSI                      WED 07/30/97 07:40 Page:441
          MINI XREF LISTING

B$UBIN
      7097**DCL      7372<>CALL     7375>>IF
BAD_EKEY IN PROCEDURE EDIT_KEY
      7357**LABEL    7351--CALLALT
BAD_RECNUM IN PROCEDURE LOGICAL_REC_NUM
      7385**LABEL    7372--CALLALT
BREAK_LOC
      5224**DCL      5224--REDEF
CHR IN PROCEDURE OCTAL_KEY
      7402**DCL      7403--REDEF    7424<<ASSIGN
CHR_VAL IN PROCEDURE OCTAL_KEY
      7403**DCL      7425>>IF
CHR_VAL.VAL IN PROCEDURE OCTAL_KEY
      7405**DCL      7435>>ASSIGN
DEC_NUM
      7111**DCL      7350<<ASSIGN   7351<>CALL     7354>>ASSIGN
DEF_ICB.FID.STRING
      5822**DCL      5823--REDEF
DEV_ICB.FID.STRING
      5708**DCL      5709--REDEF
EDIT$KEY.KEY
      7110**DCL      7354<<ASSIGN
EDIT$KEY.LEN
      7109**DCL      7349<<ASSIGN
EDIT_KEY
      7340**PROC     7330--CALL
EI_KEY.KEY
      5920**DCL      5920--REDEF    5920--REDEF    5920--REDEF
EO_OCB.TYPE
      5420**DCL      5421--REDEF
FPT_CLOSE_EI.SN_
      6761**DCL      6761--REDEF
PL6.E3A0      #018=VPD$GET_KEY_OR_NUM File=VPD$UTIL.:E05TSI                      WED 07/30/97 07:40 Page:442
FPT_CLOSE_EI.UTL_
      6762**DCL      6762--REDEF
FPT_CLOSE_EI.V.EXPIRE#
      6776**DCL      6776--REDEF
FPT_CLOSE_EI.V.TYPE#
      6774**DCL      6774--REDEF
FPT_CLOSE_EI.V.XTNSIZE#
      6771**DCL      6771--REDEF    6773--REDEF
FPT_CLOSE_PTL.SN_
      6887**DCL      6887--REDEF
FPT_CLOSE_PTL.UTL_
      6888**DCL      6888--REDEF
FPT_CLOSE_PTL.V.EXPIRE#
      6902**DCL      6902--REDEF
FPT_CLOSE_PTL.V.TYPE#
      6900**DCL      6900--REDEF
FPT_CLOSE_PTL.V.XTNSIZE#
      6897**DCL      6897--REDEF    6899--REDEF
FPT_CLOSE_READ.SN_
      6803**DCL      6803--REDEF
FPT_CLOSE_READ.UTL_
      6804**DCL      6804--REDEF
FPT_CLOSE_READ.V.EXPIRE#
      6818**DCL      6818--REDEF
FPT_CLOSE_READ.V.TYPE#
      6816**DCL      6816--REDEF
FPT_CLOSE_READ.V.XTNSIZE#
      6813**DCL      6813--REDEF    6815--REDEF
FPT_CLOSE_SI.SN_
      6971**DCL      6971--REDEF
FPT_CLOSE_SI.UTL_
      6972**DCL      6972--REDEF
FPT_CLOSE_SI.V.EXPIRE#
      6986**DCL      6986--REDEF
FPT_CLOSE_SI.V.TYPE#
      6984**DCL      6984--REDEF
PL6.E3A0      #018=VPD$GET_KEY_OR_NUM File=VPD$UTIL.:E05TSI                      WED 07/30/97 07:40 Page:443
FPT_CLOSE_SI.V.XTNSIZE#
      6981**DCL      6981--REDEF    6983--REDEF
FPT_CLOSE_STD.SN_
      6929**DCL      6929--REDEF
FPT_CLOSE_STD.UTL_
      6930**DCL      6930--REDEF
FPT_CLOSE_STD.V.EXPIRE#
      6944**DCL      6944--REDEF
FPT_CLOSE_STD.V.TYPE#
      6942**DCL      6942--REDEF
FPT_CLOSE_STD.V.XTNSIZE#
      6939**DCL      6939--REDEF    6941--REDEF
FPT_CLSEI_FT.SN_
      6845**DCL      6845--REDEF
FPT_CLSEI_FT.UTL_
      6846**DCL      6846--REDEF
FPT_CLSEI_FT.V.EXPIRE#
      6860**DCL      6860--REDEF
FPT_CLSEI_FT.V.TYPE#
      6858**DCL      6858--REDEF
FPT_CLSEI_FT.V.XTNSIZE#
      6855**DCL      6855--REDEF    6857--REDEF
FPT_OPEN_EI.ACSVEH_
      6416**DCL      6417--REDEF
FPT_OPEN_EI.ALTKEYS_
      6422**DCL      6423--REDEF    6423--REDEF
FPT_OPEN_EI.HDR_
      6421**DCL      6422--REDEF
FPT_OPEN_EI.TAB_
      6420**DCL      6421--REDEF
FPT_OPEN_EI.UHL_
      6414**DCL      6415--REDEF    6415--REDEF
FPT_OPEN_EI.V.FSN#
      6454**DCL      6454--REDEF    6454--REDEF
FPT_OPEN_EI.WSN_
      6420**DCL      6420--REDEF
PL6.E3A0      #018=VPD$GET_KEY_OR_NUM File=VPD$UTIL.:E05TSI                      WED 07/30/97 07:40 Page:444
FPT_OPEN_EI_SAVE.ACSVEH_
      6525**DCL      6526--REDEF
FPT_OPEN_EI_SAVE.ALTKEYS_
      6531**DCL      6532--REDEF    6532--REDEF
FPT_OPEN_EI_SAVE.HDR_
      6530**DCL      6531--REDEF
FPT_OPEN_EI_SAVE.TAB_
      6529**DCL      6530--REDEF
FPT_OPEN_EI_SAVE.UHL_
      6523**DCL      6524--REDEF    6524--REDEF
FPT_OPEN_EI_SAVE.V.FSN#
      6563**DCL      6563--REDEF    6563--REDEF
FPT_OPEN_EI_SAVE.WSN_
      6529**DCL      6529--REDEF
FPT_OPEN_OUT.ACSVEH_
      6307**DCL      6308--REDEF
FPT_OPEN_OUT.ALTKEYS_
      6313**DCL      6314--REDEF    6314--REDEF
FPT_OPEN_OUT.HDR_
      6312**DCL      6313--REDEF
FPT_OPEN_OUT.TAB_
      6311**DCL      6312--REDEF
FPT_OPEN_OUT.UHL_
      6305**DCL      6306--REDEF    6306--REDEF
FPT_OPEN_OUT.V.FSN#
      6345**DCL      6345--REDEF    6345--REDEF
FPT_OPEN_OUT.WSN_
      6311**DCL      6311--REDEF
FPT_OPEN_OUT_SAVE.ACSVEH_
      6198**DCL      6199--REDEF
FPT_OPEN_OUT_SAVE.ALTKEYS_
      6204**DCL      6205--REDEF    6205--REDEF
FPT_OPEN_OUT_SAVE.HDR_
      6203**DCL      6204--REDEF
FPT_OPEN_OUT_SAVE.TAB_
      6202**DCL      6203--REDEF
PL6.E3A0      #018=VPD$GET_KEY_OR_NUM File=VPD$UTIL.:E05TSI                      WED 07/30/97 07:40 Page:445
FPT_OPEN_OUT_SAVE.UHL_
      6196**DCL      6197--REDEF    6197--REDEF
FPT_OPEN_OUT_SAVE.V.FSN#
      6236**DCL      6236--REDEF    6236--REDEF
FPT_OPEN_OUT_SAVE.WSN_
      6202**DCL      6202--REDEF
FPT_READ_STD.STATION_
      6626**DCL      6627--REDEF
FPT_READ_STD.V.DVBYTE.REREAD#
      6638**DCL      6638--REDEF
FPT_READ_STD.V.INDX#
      6636**DCL      6636--REDEF
FPT_READ_UC.STATION_
      6587**DCL      6588--REDEF
FPT_READ_UC.V.DVBYTE.REREAD#
      6599**DCL      6599--REDEF
FPT_READ_UC.V.INDX#
      6597**DCL      6597--REDEF
FPT_WRITE_ME.STATION_
      6695**DCL      6695--REDEF
FPT_WRITE_ME.V.DVBYTE.VFC#
      6702**DCL      6702--REDEF
FPT_WRITE_OUT.STATION_
      6726**DCL      6726--REDEF
FPT_WRITE_OUT.V.DVBYTE.VFC#
      6733**DCL      6733--REDEF
FPT_WRITE_UC.STATION_
      6664**DCL      6664--REDEF
FPT_WRITE_UC.V.DVBYTE.VFC#
      6671**DCL      6671--REDEF
FROM_SN.SN
      5570**DCL      5571--REDEF
GETCMD.OUT$
      4777**DCL      4783--REDEF
GK_ALT
      7338**LABEL    7326--CALLALT  7328--CALLALT  7330--CALLALT  7332--CALLALT
PL6.E3A0      #018=VPD$GET_KEY_OR_NUM File=VPD$UTIL.:E05TSI                      WED 07/30/97 07:40 Page:446
I IN PROCEDURE OCTAL_KEY
      7401**DCL      7422<<ASSIGN   7423>>DOWHILE  7424>>ASSIGN   7435>>ASSIGN   7436<<ASSIGN   7436>>ASSIGN
ICB.FID.STRING
      5594**DCL      5595--REDEF
IFSFA_PARAM.EOMCHAR#
      5949**DCL      5950--REDEF
IFSFA_PARAM.SIG1
      5943**DCL      5943--REDEF
IFSFA_PARAM.SIG2
      5943**DCL      5944--REDEF
IN_RES
      5516**DCL      5516--REDEF
IN_SN.SN
      5532**DCL      5533--REDEF
KEY$ IN PROCEDURE OCTAL_KEY
      7400**DCL      7406<<ASSIGN   7407>>IF       7421>>ASSIGN   7423>>DOWHILE  7424>>ASSIGN
KEY_BLOCK$
      7101**DCL         6--PROC     7324>>DOCASE   7351<>CALL     7372>>CALL     7406>>ASSIGN   7449>>IF
      7459>>ASSIGN   7460>>ASSIGN   7460>>ASSIGN
LOGICAL_REC_NUM
      7364**PROC     7332--CALL
NORM$KEY.KEY
      7105**DCL      7106--REDEF
OCB.TYPE
      5278**DCL      5279--REDEF
OCTAL_KEY
      7392**PROC     7326--CALL
OCT_ARY.DIGIT
      7100**DCL      7435<<ASSIGN
OFSFA_PARAM.EOMCHAR#
      5979**DCL      5980--REDEF
OFSFA_PARAM.SIG1
      5973**DCL      5973--REDEF
OFSFA_PARAM.SIG2
      5973**DCL      5974--REDEF
OUT$BLK.CODE
PL6.E3A0      #018=VPD$GET_KEY_OR_NUM File=VPD$UTIL.:E05TSI                      WED 07/30/97 07:40 Page:447
      7018**DCL      7324>>DOCASE
OUT$BLK.SUBLK$
      7043**DCL      7372<>CALL     7406>>ASSIGN   7406>>ASSIGN
OUT$SYM.COUNT
      7079**DCL      7082--IMP-SIZ  7449>>IF
OUT$SYM.TEXTC$
      7074**DCL      7459>>ASSIGN   7460>>ASSIGN   7460>>ASSIGN
OUT_SN.SN
      5550**DCL      5551--REDEF
QUOTE_KEY
      7441**PROC     7328--CALL
SPEC_BUF
      5228**DCL      5228--REDEF
TEXT$C
      7087**DCL      7419<<ASSIGN
TEXT$C.LEN
      7088**DCL      7089--IMP-SIZ  7407>>IF       7418<<ASSIGN   7419>>ASSIGN   7421<<ASSIGN   7421>>ASSIGN
      7423>>DOWHILE  7459<<ASSIGN   7459>>ASSIGN   7460>>ASSIGN   7460>>ASSIGN
TEXT$C.STRING
      7089**DCL      7460<<ASSIGN   7460>>ASSIGN
TEXT$C_ARY.STRING
      7096**DCL      7424>>ASSIGN
TEXT$C_BIT.LEN
      7091**DCL      7093--IMP-SIZ
TO_KEY$
      7102**DCL         6--PROC     7349>>ASSIGN   7354>>ASSIGN   7372>>CALL     7375>>IF       7418>>ASSIGN
      7419>>ASSIGN   7419>>ASSIGN   7421>>ASSIGN   7435>>ASSIGN   7459>>ASSIGN   7460>>ASSIGN   7460>>ASSIGN
VPD$DECI_MUNGE
      7315**DCL-ENT  7351--CALL
VPD$TEXTC_CHARBIN
      7198**DCL-ENT  7372--CALL
VPL$ERR_PROC
      7298**DCL-ENT  7357--CALL     7378--CALL     7385--CALL     7410--CALL     7428--CALL     7452--CALL

PL6.E3A0      #019=VPD$GET_SPEC_BUF File=VPD$UTIL.:E05TSI                        WED 07/30/97 07:41 Page:448
     1703        1        /*T***********************************************************/
     1704        2        /*T*                                                         */
     1705        3        /*T* Copyright (c) Bull HN Information Systems Inc., 1997    */
     1706        4        /*T*                                                         */
     1707        5        /*T***********************************************************/
     1708        6        VPD$GET_SPEC_BUF: PROC(EI,TIME);
     1709        7        /*D* NAME: VPD$GET_SPEC_BUF
     1710        8             CALL: CALL VPD$GET_SPEC_BUF(EI,TIME);
     1711        9             DESCRIPTION: This procedure assimilates the information found in
     1712       10                          the fields returned from M$FID and ICB.SPEC_TYPE into
     1713       11                          SPEC_BUF, a TEXTC buffer, spelling out the current input
     1714       12                          specification if EI=0, otherwise it uses the information
     1715       13                          in M$EI. If TIME=1, the buffer is preceeded with the
     1716       14                          current date and time.
     1717       15        */
     1718       16        %INCLUDE VP_DATA_R;
     1719     7003        %FPT_TIME(FPTN = FPT_TIME,
     1720     7004                  SOURCE = CLOCK,
     1721     7005                  DEST = EXT,
     1722     7006                  TIME = SPEC.TIM,
     1723     7007                  DATE = SPEC.TODAY,
     1724     7008                  STCLASS = CONSTANT);
     1725     7027        %FPT_UNFID(FPTN = FPT_UNFID,
     1726     7028                   NAME = IN_NAME,
     1727     7029                   ACCT = IN_ACCT,
     1728     7030                   SN   = IN_SN,
     1729     7031                   ASN  = IN_ASN,
     1730     7032                   WSN  = IN_WSN,
     1731     7033                   FORCE = YES,
     1732     7034                   STCLASS = STATIC);
     1733     7052    1   DCL EI SBIN WORD;
     1734     7053    1   DCL TIME SBIN WORD;
     1735     7054    1   DCL LEN SBIN;
     1736     7055 S      %INCLUDE B$JIT_C;
     1737     7056        %B$JIT0;
     1738     7145    1         2 * BIT(1);                       /* Rest of JIT not needed             */
     1739     7146    1           SPEC_BUF.STRING = ' ';
PL6.E3A0      #019=VPD$GET_SPEC_BUF File=VPD$UTIL.:E05TSI                        WED 07/30/97 07:41 Page:449
     1740     7147    1           IF TIME=1
     1741     7148    2            THEN DO;
     1742     7149    2               IF TEST_MODE=0
     1743     7150    2                THEN
     1744     7151    2                  CALL M$TIME(FPT_TIME);
     1745     7152    2                ELSE
     1746     7153    2                  SPEC_BUF.STRING = 'TEST-MODE-DATE';
     1747     7154    2               LEN = 17;
     1748     7155    2               FPT_UNFID.TEXTFID_ = VECTOR(SPEC.FID);
     1749     7156    2               END;
     1750     7157    2            ELSE DO;
     1751     7158    2               LEN = 0;
     1752     7159    2               FPT_UNFID.TEXTFID_ = VECTOR(SPEC_BUF.STRING);
     1753     7160    2               END;
     1754     7161    1           IF EI=1
     1755     7162    1            THEN
     1756     7163    1              FPT_UNFID.V.DCB# = DCBNUM(M$EI);
     1757     7164    2            ELSE DO;
     1758     7165    2               FPT_UNFID.V.DCB# = 0;
     1759     7166    2               IF RESULTS_FID_IN.RES       /* To fix M$FID SCRUB problem         */
     1760     7167    2                THEN
     1761     7168    2                  FPT_UNFID.RES_ = VECTOR(IN_RES);
     1762     7169    2                ELSE
     1763     7170    2                  FPT_UNFID.RES_ = VECTOR(NIL);
     1764     7171    2               FPT_UNFID.V.FORCE# ='1'B;
     1765     7172    2               END;
     1766     7173    1           CALL M$UNFID(FPT_UNFID) ALTRET(IGNORE);
     1767     7174    1   IGNORE:
     1768     7175    1           CALL INDEX(LEN,' ',SPEC_BUF.STRING,LEN);
     1769     7176    1           IF EI=0 AND ICB.SPEC_TYPE=3     /* Sub range                          */
     1770     7177    2            THEN DO;
     1771     7178    2               CALL INSERT(SPEC_BUF.STRING,LEN,,' - ',ICB.NAME_RANGE_END);
     1772     7179    2               IF ICB.NAME_RANGE_END=BITASC('777'O)
     1773     7180    2                THEN
     1774     7181    2                  LEN = LEN+2;
     1775     7182    2                ELSE
     1776     7183    2                  CALL INDEX(LEN,' ',SPEC_BUF.STRING,LEN+3);
PL6.E3A0      #019=VPD$GET_SPEC_BUF File=VPD$UTIL.:E05TSI                        WED 07/30/97 07:41 Page:450
     1777     7184    2               END;
     1778     7185    1           SPEC_BUF.LEN = LEN;
     1779     7186    1   END VPD$GET_SPEC_BUF;
     1780     7187        %EOD;

PL6.E3A0      #019=VPD$GET_SPEC_BUF File=VPD$UTIL.:E05TSI                        WED 07/30/97 07:41 Page:451
--  Include file information  --

   B_MICROPS_C.:E05TOU  is referenced.
   XU_MACRO_C.:E05TOU  is referenced.
   VP_MACRO_C.:E05TOU  is referenced.
   XS_MACRO_C.:E05TOU  is referenced.
   VP_PERR_C.:E05TOU  is referenced.
   CP_6_SUBS.:E05TOU  is referenced.
   CP_6.:E05TOU  cannot be made into a system file and is referenced.
   VP_DATA_R.:E05TOU  cannot be made into a system file and is referenced.
   B$JIT_C.:E05TOU  was found in the system file and is referenced.
   CP_6_C.:E05TOU  was found in the system file and is referenced.
      No diagnostics issued in procedure VPD$GET_SPEC_BUF.

   Procedure VPD$GET_SPEC_BUF requires 100 words for executable code.
   Procedure VPD$GET_SPEC_BUF requires 6 words of local(AUTO) storage.

PL6.E3A0      #019=VPD$GET_SPEC_BUF File=VPD$UTIL.:E05TSI                        WED 07/30/97 07:41 Page:452

 Object Unit name= VPD$GET_SPEC_BUF                           File name= VPD$UTIL.:E05TOU
 UTS= JUL 30 '97 07:41:47.20 WED                              Compiler= PL-6/E31         Sev=      00
 SharedLib= :SHARED_SYSTEM                                    Alt SharedLib=


    ****  Control sections  ****

 Sect   Type Bound  Init  Size OctSiz  Section name(segment info)
    0   DCB   even  none     0      0  M$UC
    1   DCB   even  none     0      0  M$EI
    2   DCB   even  none     0      0  M$EO
    3   DCB   even  none     0      0  M$EO1
    4   DCB   even  none     0      0  M$ME
    5   DCB   even  none     0      0  M$SI
    6   DCB   even  none     0      0  M$READFILE
    7   DCB   even  none     0      0  M$DO
    8   DCB   even  none     0      0  M$STD1
    9   DCB   even  none     0      0  M$SORT1
   10  RoData even  UTS     17     21  VPD$GET_SPEC_BUF
   11   Data  even  none    22     26  VPD$GET_SPEC_BUF
   12   Proc  even  none   100    144  VPD$GET_SPEC_BUF
   13  RoData even  none     9     11  VPD$GET_SPEC_BUF

    ****  Entry defs  ****

                              Check   Calling
                             calling  sequence
  Sect OctLoc Primary Altret sequence   type   Parms  Name
    12      0   yes            yes      Std        2  VPD$GET_SPEC_BUF
PL6.E3A0      #019=VPD$GET_SPEC_BUF File=VPD$UTIL.:E05TSI                        WED 07/30/97 07:41 Page:453

  ****  Entry refs  ****

         Check        Calling
        calling       sequence
Altret sequence SRef   type   Args  Name
                       nStd      0 X66_AUTO_2
                       Std       0 B_CONSPOOL_D
                       nStd      0 X66_ARET

  ****  Data refs  ****

  Flags:  r = read only, s = secondary
Flgs Name                             Flgs Name                             Flgs Name
     M$UC                                  TEST_MODE                             BREAK_LOC
     BREAK_MESSAGE_REPORTER                SPEC_BUF                              IN_NAME
     IN_ACCT                               IN_RES                                IN_SN
     IN_WSN                                IN_ASN                                ICB
     M$EI                                  M$EO                                  M$EO1
     M$ME                                  M$SI                                  M$READFILE
     M$DO                                  M$STD1                                M$SORT1
     B$JIT$                                RESULTS_FID_IN                        B_VECTNIL

  ****  Segment refs  ****

  Flags:  r = read only, s = secondary
Flgs Name                             Flgs Name                             Flgs Name
     ISSID                                 NULLSID
PL6.E3A0      #019=VPD$GET_SPEC_BUF File=VPD$UTIL.:E05TSI                        WED 07/30/97 07:41 Page:454


     1703        1        /*T***********************************************************/
     1704        2        /*T*                                                         */
     1705        3        /*T* Copyright (c) Bull HN Information Systems Inc., 1997    */
     1706        4        /*T*                                                         */
     1707        5        /*T***********************************************************/
     1708        6        VPD$GET_SPEC_BUF: PROC(EI,TIME);

      6 12 000000   000000 700200 xent  VPD$GET_SPE* TSX0  ! X66_AUTO_2
        12 000001   000006 000002                    ZERO    6,2

     1709        7        /*D* NAME: VPD$GET_SPEC_BUF
     1710        8             CALL: CALL VPD$GET_SPEC_BUF(EI,TIME);
     1711        9             DESCRIPTION: This procedure assimilates the information found in
     1712       10                          the fields returned from M$FID and ICB.SPEC_TYPE into
     1713       11                          SPEC_BUF, a TEXTC buffer, spelling out the current input
     1714       12                          specification if EI=0, otherwise it uses the information
     1715       13                          in M$EI. If TIME=1, the buffer is preceeded with the
     1716       14                          current date and time.
     1717       15        */
     1718       16        %INCLUDE VP_DATA_R;
     1719     7003        %FPT_TIME(FPTN = FPT_TIME,
     1720     7004                  SOURCE = CLOCK,
     1721     7005                  DEST = EXT,
     1722     7006                  TIME = SPEC.TIM,
     1723     7007                  DATE = SPEC.TODAY,
     1724     7008                  STCLASS = CONSTANT);
     1725     7027        %FPT_UNFID(FPTN = FPT_UNFID,
     1726     7028                   NAME = IN_NAME,
     1727     7029                   ACCT = IN_ACCT,
     1728     7030                   SN   = IN_SN,
     1729     7031                   ASN  = IN_ASN,
     1730     7032                   WSN  = IN_WSN,
     1731     7033                   FORCE = YES,
     1732     7034                   STCLASS = STATIC);
     1733     7052    1   DCL EI SBIN WORD;
     1734     7053    1   DCL TIME SBIN WORD;
PL6.E3A0      #019=VPD$GET_SPEC_BUF File=VPD$UTIL.:E05TSI                        WED 07/30/97 07:41 Page:455
     1735     7054    1   DCL LEN SBIN;
     1736     7055 S      %INCLUDE B$JIT_C;
     1737     7056        %B$JIT0;
     1738     7145    1         2 * BIT(1);                       /* Rest of JIT not needed             */
     1739     7146    1           SPEC_BUF.STRING = ' ';

   7146 12 000002   040000 100400                    MLR     fill='040'O
        12 000003   000035 000001 xsym               ADSC9   B_VECTNIL+29             cn=0,n=1
        12 000004   000000 200213 xsym               ADSC9   SPEC_BUF                 cn=1,n=139

     1740     7147    1           IF TIME=1

   7147 12 000005   200004 470500                    LDP0    @TIME,,AUTO
        12 000006   000000 235100                    LDA     0,,PR0
        12 000007   000001 115007                    CMPA    1,DL
        12 000010   000027 601000 12                 TNZ     s:7158

     1741     7148    2            THEN DO;

     1742     7149    2               IF TEST_MODE=0

   7149 12 000011   000000 236000 xsym               LDQ     TEST_MODE
        12 000012   000017 601000 12                 TNZ     s:7153

     1743     7150    2                THEN
     1744     7151    2                  CALL M$TIME(FPT_TIME);

   7151 12 000013   000000 630400 10                 EPPR0   FPT_TIME
        12 000014   020004 713400                    CLIMB   8196
        12 000015   402000 401760                    pmme    nvectors=5
        12 000016   000022 710000 12                 TRA     s:7154

     1745     7152    2                ELSE
     1746     7153    2                  SPEC_BUF.STRING = 'TEST-MODE-DATE';

   7153 12 000017   040000 100400                    MLR     fill='040'O
        12 000020   000014 000016 10                 ADSC9   FPT_TIME+12              cn=0,n=14
PL6.E3A0      #019=VPD$GET_SPEC_BUF File=VPD$UTIL.:E05TSI                        WED 07/30/97 07:41 Page:456
        12 000021   000000 200213 xsym               ADSC9   SPEC_BUF                 cn=1,n=139

     1747     7154    2               LEN = 17;

   7154 12 000022   000021 235007                    LDA     17,DL
        12 000023   200005 755100                    STA     LEN,,AUTO

     1748     7155    2               FPT_UNFID.TEXTFID_ = VECTOR(SPEC.FID);

   7155 12 000024   000000 237000 13                 LDAQ    0
        12 000025   000002 757000 11                 STAQ    FPT_UNFID+2

     1749     7156    2               END;

   7156 12 000026   000032 710000 12                 TRA     s:7161

     1750     7157    2            ELSE DO;

     1751     7158    2               LEN = 0;

   7158 12 000027   200005 450100                    STZ     LEN,,AUTO

     1752     7159    2               FPT_UNFID.TEXTFID_ = VECTOR(SPEC_BUF.STRING);

   7159 12 000030   000002 237000 13                 LDAQ    2
        12 000031   000002 757000 11                 STAQ    FPT_UNFID+2

     1753     7160    2               END;

     1754     7161    1           IF EI=1

   7161 12 000032   200003 470500                    LDP0    @EI,,AUTO
        12 000033   000000 235100                    LDA     0,,PR0
        12 000034   000001 115007                    CMPA    1,DL
        12 000035   000042 601000 12                 TNZ     s:7165

     1755     7162    1            THEN
PL6.E3A0      #019=VPD$GET_SPEC_BUF File=VPD$UTIL.:E05TSI                        WED 07/30/97 07:41 Page:457
     1756     7163    1              FPT_UNFID.V.DCB# = DCBNUM(M$EI);

   7163 12 000036   000000 236007 xsym               LDQ     M$EI,DL
        12 000037   000000 620006                    EAX0    0,QL
        12 000040   000024 740000 11                 STX0    FPT_UNFID+20
        12 000041   000056 710000 12                 TRA     s:7173

     1757     7164    2            ELSE DO;

     1758     7165    2               FPT_UNFID.V.DCB# = 0;

   7165 12 000042   000000 220003                    LDX0    0,DU
        12 000043   000024 740000 11                 STX0    FPT_UNFID+20

     1759     7166    2               IF RESULTS_FID_IN.RES       /* To fix M$FID SCRUB problem         */

   7166 12 000044   000000 236000 xsym               LDQ     RESULTS_FID_IN
        12 000045   004000 316003                    CANQ    2048,DU
        12 000046   000052 600000 12                 TZE     s:7170

     1760     7167    2                THEN
     1761     7168    2                  FPT_UNFID.RES_ = VECTOR(IN_RES);

   7168 12 000047   000004 237000 13                 LDAQ    4
        12 000050   000020 757000 11                 STAQ    FPT_UNFID+16
        12 000051   000054 710000 12                 TRA     s:7171

     1762     7169    2                ELSE
     1763     7170    2                  FPT_UNFID.RES_ = VECTOR(NIL);

   7170 12 000052   000006 237000 13                 LDAQ    6
        12 000053   000020 757000 11                 STAQ    FPT_UNFID+16

     1764     7171    2               FPT_UNFID.V.FORCE# ='1'B;

   7171 12 000054   400000 236007                    LDQ     -131072,DL
        12 000055   000024 256000 11                 ORSQ    FPT_UNFID+20
PL6.E3A0      #019=VPD$GET_SPEC_BUF File=VPD$UTIL.:E05TSI                        WED 07/30/97 07:41 Page:458

     1765     7172    2               END;

     1766     7173    1           CALL M$UNFID(FPT_UNFID) ALTRET(IGNORE);

   7173 12 000056   000000 630400 11                 EPPR0   FPT_UNFID
        12 000057   420021 713400                    CLIMB   alt,+8209
        12 000060   404400 401760                    pmme    nvectors=10
        12 000061   000062 702000 12                 TSX2    IGNORE

     1767     7174    1   IGNORE:
     1768     7175    1           CALL INDEX(LEN,' ',SPEC_BUF.STRING,LEN);

   7175 12 000062   200005 720100       IGNORE       LXL0    LEN,,AUTO
        12 000063   777564 620010                    EAX0    -140,X0
        12 000064   777777 660003                    ERX0    -1,DU
        12 000065   200005 236100                    LDQ     LEN,,AUTO
        12 000066   200005 235100                    LDA     LEN,,AUTO
        12 000067   000000 124445                    SCM     mask='000'O
        12 000070   000000 200010 xsym               ADSC9   SPEC_BUF,A               cn=1,n=*X0
        12 000071   000035 000001 xsym               ADSC9   B_VECTNIL+29             cn=0,n=1
        12 000072   200005 000100                    ARG     LEN,,AUTO
        12 000073   200005 056100                    ASQ     LEN,,AUTO

     1769     7176    1           IF EI=0 AND ICB.SPEC_TYPE=3     /* Sub range                          */

   7176 12 000074   200003 470500                    LDP0    @EI,,AUTO
        12 000075   000000 235100                    LDA     0,,PR0
        12 000076   000140 601000 12                 TNZ     s:7185
        12 000077   000017 236000 xsym               LDQ     ICB+15
        12 000100   000003 116007                    CMPQ    3,DL
        12 000101   000140 601000 12                 TNZ     s:7185

     1770     7177    2            THEN DO;

     1771     7178    2               CALL INSERT(SPEC_BUF.STRING,LEN,,' - ',ICB.NAME_RANGE_END);

PL6.E3A0      #019=VPD$GET_SPEC_BUF File=VPD$UTIL.:E05TSI                        WED 07/30/97 07:41 Page:459
   7178 12 000102   200005 720100                    LXL0    LEN,,AUTO
        12 000103   777564 620010                    EAX0    -140,X0
        12 000104   777777 660003                    ERX0    -1,DU
        12 000105   200005 235100                    LDA     LEN,,AUTO
        12 000106   040045 100400                    MLR     fill='040'O
        12 000107   000020 000003 10                 ADSC9   FPT_TIME+16              cn=0,n=3
        12 000110   000000 200010 xsym               ADSC9   SPEC_BUF,A               cn=1,n=*X0
        12 000111   200005 236100                    LDQ     LEN,,AUTO
        12 000112   000210 116007                    CMPQ    136,DL
        12 000113   000121 605000 12                 TPL     s:7179
        12 000114   777567 621006                    EAX1    -137,QL
        12 000115   777777 661003                    ERX1    -1,DU
        12 000116   040046 100400                    MLR     fill='040'O
        12 000117   000140 000037 xsym               ADSC9   ICB+96                   cn=0,n=31
        12 000120   000001 000011 xsym               ADSC9   SPEC_BUF+1,Q             cn=0,n=*X1

     1772     7179    2               IF ICB.NAME_RANGE_END=BITASC('777'O)

   7179 12 000121   040000 106400                    CMPC    fill='040'O
        12 000122   000140 000037 xsym               ADSC9   ICB+96                   cn=0,n=31
        12 000123   000010 000001 13                 ADSC9   8                        cn=0,n=1
        12 000124   000130 601000 12                 TNZ     s:7183

     1773     7180    2                THEN
     1774     7181    2                  LEN = LEN+2;

   7181 12 000125   000002 236007                    LDQ     2,DL
        12 000126   200005 056100                    ASQ     LEN,,AUTO
        12 000127   000140 710000 12                 TRA     s:7185

     1775     7182    2                ELSE
     1776     7183    2                  CALL INDEX(LEN,' ',SPEC_BUF.STRING,LEN+3);

   7183 12 000130   777567 621006                    EAX1    -137,QL
        12 000131   777777 661003                    ERX1    -1,DU
        12 000132   000003 036007                    ADLQ    3,DL
        12 000133   000000 124445                    SCM     mask='000'O
PL6.E3A0      #019=VPD$GET_SPEC_BUF File=VPD$UTIL.:E05TSI                        WED 07/30/97 07:41 Page:460
        12 000134   000001 000011 xsym               ADSC9   SPEC_BUF+1,A             cn=0,n=*X1
        12 000135   000035 000001 xsym               ADSC9   B_VECTNIL+29             cn=0,n=1
        12 000136   200005 000100                    ARG     LEN,,AUTO
        12 000137   200005 056100                    ASQ     LEN,,AUTO

     1777     7184    2               END;

     1778     7185    1           SPEC_BUF.LEN = LEN;

   7185 12 000140   200005 236100                    LDQ     LEN,,AUTO
        12 000141   000033 736000                    QLS     27
        12 000142   000000 552040 xsym               STBQ    SPEC_BUF,'40'O

     1779     7186    1   END VPD$GET_SPEC_BUF;

   7186 12 000143   000000 702200 xent               TSX2  ! X66_ARET
     1780     7187        %EOD;

PL6.E3A0      #019=VPD$GET_SPEC_BUF File=VPD$UTIL.:E05TSI                        WED 07/30/97 07:41 Page:461
--  Include file information  --

   B_MICROPS_C.:E05TOU  is referenced.
   XU_MACRO_C.:E05TOU  is referenced.
   VP_MACRO_C.:E05TOU  is referenced.
   XS_MACRO_C.:E05TOU  is referenced.
   VP_PERR_C.:E05TOU  is referenced.
   CP_6_SUBS.:E05TOU  is referenced.
   CP_6.:E05TOU  cannot be made into a system file and is referenced.
   VP_DATA_R.:E05TOU  cannot be made into a system file and is referenced.
   B$JIT_C.:E05TOU  was found in the system file and is referenced.
   CP_6_C.:E05TOU  was found in the system file and is referenced.
      No diagnostics issued in procedure VPD$GET_SPEC_BUF.
PL6.E3A0      #019=VPD$GET_SPEC_BUF File=VPD$UTIL.:E05TSI                        WED 07/30/97 07:41 Page:462

 **** Variables and constants ****

  ****  Section 010 RoData VPD$GET_SPEC_BUF

  ****  Scalars and arrays  ****
OctLoc.c.b A Datatyp(siz) R M Lvl/name                 OctLoc.c.b A Datatyp(siz) R M Lvl/name

     0-0-0/d STRC(432)   r     1 FPT_TIME

  ****  Section 011  Data  VPD$GET_SPEC_BUF

  ****  Scalars and arrays  ****
OctLoc.c.b A Datatyp(siz) R M Lvl/name                 OctLoc.c.b A Datatyp(siz) R M Lvl/name

     0-0-0/d STRC(792)   r     1 FPT_UNFID

  ****  Auto variables  ****

  ****  Scalars and arrays  ****
OctLoc.c.b A Datatyp(siz) R M Lvl/name                 OctLoc.c.b A Datatyp(siz) R M Lvl/name

     3-0-0/w PTR         r     1 @EI                        4-0-0/w PTR         r     1 @TIME
    *0-0-0/w SBIN        r     1 EI                         5-0-0/w SBIN        r     1 LEN
    *0-0-0/w SBIN        r     1 TIME

  ****  SYMREF variables  ****

  ****  Scalars and arrays  ****
OctLoc.c.b A Datatyp(siz) R M Lvl/name                 OctLoc.c.b A Datatyp(siz) R M Lvl/name

     0-0-0/w PTR         r     1 B$JIT$
     0-0-0/w EPTR        r     1 BREAK_MESSAGE_REPORTER
     0-0-0/d STRC(5868)  r     1 ICB                        0-0-0/c CHAR(8)     r     1 IN_ACCT
     0-0-0/b UBIN(9)     r     1 IN_ASN                     0-0-0/c STRC(288)   r     1 IN_NAME
     0-0-0/c CHAR(4)     r     1 IN_RES                     0-0-0/w STRC(1116)  r     1 IN_SN
     0-0-0/c CHAR(8)     r     1 IN_WSN                     0-0-0/d STRC(324)   r     1 RESULTS_FID_IN
     0-0-0/c STRC(1260)  r     1 SPEC                       0-0-0/c STRC(1260)  r     1 SPEC_BUF
PL6.E3A0      #019=VPD$GET_SPEC_BUF File=VPD$UTIL.:E05TSI                        WED 07/30/97 07:41 Page:463
     0-0-0/w SBIN        r     1 TEST_MODE

  ****  BASED and DCB variables  ****

  ****  Scalars and arrays  ****
OctLoc.c.b A Datatyp(siz) R M Lvl/name                 OctLoc.c.b A Datatyp(siz) R M Lvl/name

     0-0-0N  NULL        r     1 M$EI


   Procedure VPD$GET_SPEC_BUF requires 100 words for executable code.
   Procedure VPD$GET_SPEC_BUF requires 6 words of local(AUTO) storage.
PL6.E3A0      #019=VPD$GET_SPEC_BUF File=VPD$UTIL.:E05TSI                        WED 07/30/97 07:41 Page:464
          *** CROSS REFERENCE LISTING ***
**     DENOTES     IDENTIFIER DEFINITION
<<                 IDENTIFIER'S VALUE SET
>>                 IDENTIFIER'S VALUE USED
<>                 IDENTIFIER SET AND/OR USED
--                 IDENTIFIER REFERENCED
PL6.E3A0      #019=VPD$GET_SPEC_BUF File=VPD$UTIL.:E05TSI                        WED 07/30/97 07:41 Page:465
          MINI XREF LISTING

B$JIT.ERR.MID
      7063**DCL      7063--REDEF
B$JIT$
      5988**DCL      7057--IMP-PTR
BREAK_LOC
      5223**DCL      5223--REDEF
DEF_ICB.FID.STRING
      5821**DCL      5822--REDEF
DEV_ICB.FID.STRING
      5707**DCL      5708--REDEF
EI
      7052**DCL         6--PROC     7161>>IF       7176>>IF
EI_KEY.KEY
      5919**DCL      5919--REDEF    5919--REDEF    5919--REDEF
EO_OCB.TYPE
      5419**DCL      5420--REDEF
FPT_CLOSE_EI.SN_
      6760**DCL      6760--REDEF
FPT_CLOSE_EI.UTL_
      6761**DCL      6761--REDEF
FPT_CLOSE_EI.V.EXPIRE#
      6775**DCL      6775--REDEF
FPT_CLOSE_EI.V.TYPE#
      6773**DCL      6773--REDEF
FPT_CLOSE_EI.V.XTNSIZE#
      6770**DCL      6770--REDEF    6772--REDEF
FPT_CLOSE_PTL.SN_
      6886**DCL      6886--REDEF
FPT_CLOSE_PTL.UTL_
      6887**DCL      6887--REDEF
FPT_CLOSE_PTL.V.EXPIRE#
      6901**DCL      6901--REDEF
PL6.E3A0      #019=VPD$GET_SPEC_BUF File=VPD$UTIL.:E05TSI                        WED 07/30/97 07:41 Page:466
FPT_CLOSE_PTL.V.TYPE#
      6899**DCL      6899--REDEF
FPT_CLOSE_PTL.V.XTNSIZE#
      6896**DCL      6896--REDEF    6898--REDEF
FPT_CLOSE_READ.SN_
      6802**DCL      6802--REDEF
FPT_CLOSE_READ.UTL_
      6803**DCL      6803--REDEF
FPT_CLOSE_READ.V.EXPIRE#
      6817**DCL      6817--REDEF
FPT_CLOSE_READ.V.TYPE#
      6815**DCL      6815--REDEF
FPT_CLOSE_READ.V.XTNSIZE#
      6812**DCL      6812--REDEF    6814--REDEF
FPT_CLOSE_SI.SN_
      6970**DCL      6970--REDEF
FPT_CLOSE_SI.UTL_
      6971**DCL      6971--REDEF
FPT_CLOSE_SI.V.EXPIRE#
      6985**DCL      6985--REDEF
FPT_CLOSE_SI.V.TYPE#
      6983**DCL      6983--REDEF
FPT_CLOSE_SI.V.XTNSIZE#
      6980**DCL      6980--REDEF    6982--REDEF
FPT_CLOSE_STD.SN_
      6928**DCL      6928--REDEF
FPT_CLOSE_STD.UTL_
      6929**DCL      6929--REDEF
FPT_CLOSE_STD.V.EXPIRE#
      6943**DCL      6943--REDEF
FPT_CLOSE_STD.V.TYPE#
      6941**DCL      6941--REDEF
FPT_CLOSE_STD.V.XTNSIZE#
      6938**DCL      6938--REDEF    6940--REDEF
FPT_CLSEI_FT.SN_
      6844**DCL      6844--REDEF
PL6.E3A0      #019=VPD$GET_SPEC_BUF File=VPD$UTIL.:E05TSI                        WED 07/30/97 07:41 Page:467
FPT_CLSEI_FT.UTL_
      6845**DCL      6845--REDEF
FPT_CLSEI_FT.V.EXPIRE#
      6859**DCL      6859--REDEF
FPT_CLSEI_FT.V.TYPE#
      6857**DCL      6857--REDEF
FPT_CLSEI_FT.V.XTNSIZE#
      6854**DCL      6854--REDEF    6856--REDEF
FPT_OPEN_EI.ACSVEH_
      6415**DCL      6416--REDEF
FPT_OPEN_EI.ALTKEYS_
      6421**DCL      6422--REDEF    6422--REDEF
FPT_OPEN_EI.HDR_
      6420**DCL      6421--REDEF
FPT_OPEN_EI.TAB_
      6419**DCL      6420--REDEF
FPT_OPEN_EI.UHL_
      6413**DCL      6414--REDEF    6414--REDEF
FPT_OPEN_EI.V.FSN#
      6453**DCL      6453--REDEF    6453--REDEF
FPT_OPEN_EI.WSN_
      6419**DCL      6419--REDEF
FPT_OPEN_EI_SAVE.ACSVEH_
      6524**DCL      6525--REDEF
FPT_OPEN_EI_SAVE.ALTKEYS_
      6530**DCL      6531--REDEF    6531--REDEF
FPT_OPEN_EI_SAVE.HDR_
      6529**DCL      6530--REDEF
FPT_OPEN_EI_SAVE.TAB_
      6528**DCL      6529--REDEF
FPT_OPEN_EI_SAVE.UHL_
      6522**DCL      6523--REDEF    6523--REDEF
FPT_OPEN_EI_SAVE.V.FSN#
      6562**DCL      6562--REDEF    6562--REDEF
FPT_OPEN_EI_SAVE.WSN_
      6528**DCL      6528--REDEF
PL6.E3A0      #019=VPD$GET_SPEC_BUF File=VPD$UTIL.:E05TSI                        WED 07/30/97 07:41 Page:468
FPT_OPEN_OUT.ACSVEH_
      6306**DCL      6307--REDEF
FPT_OPEN_OUT.ALTKEYS_
      6312**DCL      6313--REDEF    6313--REDEF
FPT_OPEN_OUT.HDR_
      6311**DCL      6312--REDEF
FPT_OPEN_OUT.TAB_
      6310**DCL      6311--REDEF
FPT_OPEN_OUT.UHL_
      6304**DCL      6305--REDEF    6305--REDEF
FPT_OPEN_OUT.V.FSN#
      6344**DCL      6344--REDEF    6344--REDEF
FPT_OPEN_OUT.WSN_
      6310**DCL      6310--REDEF
FPT_OPEN_OUT_SAVE.ACSVEH_
      6197**DCL      6198--REDEF
FPT_OPEN_OUT_SAVE.ALTKEYS_
      6203**DCL      6204--REDEF    6204--REDEF
FPT_OPEN_OUT_SAVE.HDR_
      6202**DCL      6203--REDEF
FPT_OPEN_OUT_SAVE.TAB_
      6201**DCL      6202--REDEF
FPT_OPEN_OUT_SAVE.UHL_
      6195**DCL      6196--REDEF    6196--REDEF
FPT_OPEN_OUT_SAVE.V.FSN#
      6235**DCL      6235--REDEF    6235--REDEF
FPT_OPEN_OUT_SAVE.WSN_
      6201**DCL      6201--REDEF
FPT_READ_STD.STATION_
      6625**DCL      6626--REDEF
FPT_READ_STD.V.DVBYTE.REREAD#
      6637**DCL      6637--REDEF
FPT_READ_STD.V.INDX#
      6635**DCL      6635--REDEF
FPT_READ_UC.STATION_
      6586**DCL      6587--REDEF
PL6.E3A0      #019=VPD$GET_SPEC_BUF File=VPD$UTIL.:E05TSI                        WED 07/30/97 07:41 Page:469
FPT_READ_UC.V.DVBYTE.REREAD#
      6598**DCL      6598--REDEF
FPT_READ_UC.V.INDX#
      6596**DCL      6596--REDEF
FPT_TIME
      7019**DCL      7151<>CALL
FPT_TIME.V
      7023**DCL      7019--DCLINIT
FPT_UNFID
      7045**DCL      7173<>CALL
FPT_UNFID.RES_
      7048**DCL      7168<<ASSIGN   7170<<ASSIGN
FPT_UNFID.TEXTFID_
      7045**DCL      7155<<ASSIGN   7159<<ASSIGN
FPT_UNFID.V
      7049**DCL      7045--DCLINIT
FPT_UNFID.V.DCB#
      7049**DCL      7163<<ASSIGN   7165<<ASSIGN
FPT_UNFID.V.FORCE#
      7049**DCL      7171<<ASSIGN
FPT_WRITE_ME.STATION_
      6694**DCL      6694--REDEF
FPT_WRITE_ME.V.DVBYTE.VFC#
      6701**DCL      6701--REDEF
FPT_WRITE_OUT.STATION_
      6725**DCL      6725--REDEF
FPT_WRITE_OUT.V.DVBYTE.VFC#
      6732**DCL      6732--REDEF
FPT_WRITE_UC.STATION_
      6663**DCL      6663--REDEF
FPT_WRITE_UC.V.DVBYTE.VFC#
      6670**DCL      6670--REDEF
FROM_SN.SN
      5569**DCL      5570--REDEF
GETCMD.OUT$
      4776**DCL      4782--REDEF
PL6.E3A0      #019=VPD$GET_SPEC_BUF File=VPD$UTIL.:E05TSI                        WED 07/30/97 07:41 Page:470
ICB.FID.STRING
      5593**DCL      5594--REDEF
ICB.NAME_RANGE_END
      5616**DCL      7178>>CALLBLT  7179>>IF
ICB.SPEC_TYPE
      5590**DCL      7176>>IF
IFSFA_PARAM.EOMCHAR#
      5948**DCL      5949--REDEF
IFSFA_PARAM.SIG1
      5942**DCL      5942--REDEF
IFSFA_PARAM.SIG2
      5942**DCL      5943--REDEF
IGNORE
      7175**LABEL    7173--CALLALT
IN_ACCT
      5514**DCL      7046--DCLINIT
IN_ASN
      5552**DCL      7048--DCLINIT
IN_NAME
      5514**DCL      7046--DCLINIT
IN_RES
      5515**DCL      5515--REDEF    7168--ASSIGN
IN_SN
      5526**DCL      7047--DCLINIT
IN_SN.SN
      5531**DCL      5532--REDEF
IN_WSN
      5552**DCL      7047--DCLINIT
LEN
      7054**DCL      7154<<ASSIGN   7158<<ASSIGN   7175<<CALLBLT  7175>>CALLBLT  7178>>CALLBLT  7181<<ASSIGN
      7181>>ASSIGN   7183<<CALLBLT  7183>>CALLBLT  7185>>ASSIGN
M$EI
      5984**DCL      7163>>ASSIGN
M$TIME
       100**DCL-ENT  7151--CALL
M$UNFID
PL6.E3A0      #019=VPD$GET_SPEC_BUF File=VPD$UTIL.:E05TSI                        WED 07/30/97 07:41 Page:471
        96**DCL-ENT  7173--CALL
OCB.TYPE
      5277**DCL      5278--REDEF
OFSFA_PARAM.EOMCHAR#
      5978**DCL      5979--REDEF
OFSFA_PARAM.SIG1
      5972**DCL      5972--REDEF
OFSFA_PARAM.SIG2
      5972**DCL      5973--REDEF
OUT_SN.SN
      5549**DCL      5550--REDEF
RESULTS_FID_IN.RES
      6025**DCL      7166>>IF
SPEC.FID
      5228**DCL      7155--ASSIGN
SPEC.TIM
      5228**DCL      7021--DCLINIT  7022--DCLINIT
SPEC.TODAY
      5228**DCL      7019--DCLINIT  7020--DCLINIT
SPEC_BUF
      5227**DCL      5227--REDEF
SPEC_BUF.LEN
      5227**DCL      7185<<ASSIGN
SPEC_BUF.STRING
      5227**DCL      7146<<ASSIGN   7153<<ASSIGN   7159--ASSIGN   7175>>CALLBLT  7178<<CALLBLT  7183>>CALLBLT
TEST_MODE
      5222**DCL      7149>>IF
TIME
      7053**DCL         6--PROC     7147>>IF

PL6.E3A0      #020=VPD$HELPMSG File=VPD$UTIL.:E05TSI                             WED 07/30/97 07:43 Page:472
     1781        1        /*T***********************************************************/
     1782        2        /*T*                                                         */
     1783        3        /*T* Copyright (c) Bull HN Information Systems Inc., 1997    */
     1784        4        /*T*                                                         */
     1785        5        /*T***********************************************************/
     1786        6        VPD$HELPMSG: PROC;
     1787        7        /*D* NAME: VPD$HELPMSG
     1788        8             CALL: This module contains no executable code.
     1789        9             DESCRIPTION: This module contains all the HELP messages for PCL.
     1790       10        */
     1791       11    1           RETURN;
     1792       12        /**/
     1793       13        /*E* ERROR:VPD-VP$BEYONDHELP
     1794       14        MESSAGE::
     1795       15        Please refer to the Programmer Reference Manual for more information.
     1796       16        */
     1797       17        /**/
     1798       18        /*E* ERROR:VPD-VP$OFFERHELP
     1799       19        MESSAGE::
     1800       20        HELP is available for this command.
     1801       21        */
     1802       22        /**/
     1803       23        /**/
     1804       24        /**/
     1805       25    1   END VPD$HELPMSG;
     1806       26        %EOD;

PL6.E3A0      #020=VPD$HELPMSG File=VPD$UTIL.:E05TSI                             WED 07/30/97 07:43 Page:473
--  Include file information  --

   B$JIT_C.:E05TOU  was found in the system file and is never referenced.
   CP_6_C.:E05TOU  was found in the system file and is never referenced.
      No diagnostics issued in procedure VPD$HELPMSG.

   Procedure VPD$HELPMSG requires 3 words for executable code.
   Procedure VPD$HELPMSG requires 4 words of local(AUTO) storage.

PL6.E3A0      #020=VPD$HELPMSG File=VPD$UTIL.:E05TSI                             WED 07/30/97 07:43 Page:474

 Object Unit name= VPD$HELPMSG                                File name= VPD$UTIL.:E05TOU
 UTS= JUL 30 '97 07:43:02.76 WED                              Compiler= PL-6/E31         Sev=      00
 SharedLib= :SHARED_SYSTEM                                    Alt SharedLib=


    ****  Control sections  ****

 Sect   Type Bound  Init  Size OctSiz  Section name(segment info)
    0   Proc  even  none     3      3  VPD$HELPMSG

    ****  Entry defs  ****

                              Check   Calling
                             calling  sequence
  Sect OctLoc Primary Altret sequence   type   Parms  Name
     0      0   yes            yes      Std        0  VPD$HELPMSG

  ****  Entry refs  ****

         Check        Calling
        calling       sequence
Altret sequence SRef   type   Args  Name
                       nStd      0 X66_AUTO_0
                       nStd      0 X66_ARET
PL6.E3A0      #020=VPD$HELPMSG File=VPD$UTIL.:E05TSI                             WED 07/30/97 07:43 Page:475


     1781        1        /*T***********************************************************/
     1782        2        /*T*                                                         */
     1783        3        /*T* Copyright (c) Bull HN Information Systems Inc., 1997    */
     1784        4        /*T*                                                         */
     1785        5        /*T***********************************************************/
     1786        6        VPD$HELPMSG: PROC;

      6  0 000000   000000 700200 xent  VPD$HELPMSG  TSX0  ! X66_AUTO_0
         0 000001   000004 000000                    ZERO    4,0

     1787        7        /*D* NAME: VPD$HELPMSG
     1788        8             CALL: This module contains no executable code.
     1789        9             DESCRIPTION: This module contains all the HELP messages for PCL.
     1790       10        */
     1791       11    1           RETURN;

     11  0 000002   000000 702200 xent               TSX2  ! X66_ARET
     1792       12        /**/
     1793       13        /*E* ERROR:VPD-VP$BEYONDHELP
     1794       14        MESSAGE::
     1795       15        Please refer to the Programmer Reference Manual for more information.
     1796       16        */
     1797       17        /**/
     1798       18        /*E* ERROR:VPD-VP$OFFERHELP
     1799       19        MESSAGE::
     1800       20        HELP is available for this command.
     1801       21        */
     1802       22        /**/
     1803       23        /**/
     1804       24        /**/
     1805       25    1   END VPD$HELPMSG;
     1806       26        %EOD;

PL6.E3A0      #020=VPD$HELPMSG File=VPD$UTIL.:E05TSI                             WED 07/30/97 07:43 Page:476
--  Include file information  --

   B$JIT_C.:E05TOU  was found in the system file and is never referenced.
   CP_6_C.:E05TOU  was found in the system file and is never referenced.
      No diagnostics issued in procedure VPD$HELPMSG.
PL6.E3A0      #020=VPD$HELPMSG File=VPD$UTIL.:E05TSI                             WED 07/30/97 07:43 Page:477

 **** Variables and constants ****


   Procedure VPD$HELPMSG requires 3 words for executable code.
   Procedure VPD$HELPMSG requires 4 words of local(AUTO) storage.
PL6.E3A0      #020=VPD$HELPMSG File=VPD$UTIL.:E05TSI                             WED 07/30/97 07:43 Page:478
          *** CROSS REFERENCE LISTING ***
**     DENOTES     IDENTIFIER DEFINITION
<<                 IDENTIFIER'S VALUE SET
>>                 IDENTIFIER'S VALUE USED
<>                 IDENTIFIER SET AND/OR USED
--                 IDENTIFIER REFERENCED
PL6.E3A0      #020=VPD$HELPMSG File=VPD$UTIL.:E05TSI                             WED 07/30/97 07:43 Page:479
          MINI XREF LISTING


