VERSION E05

PL6.E3A0      #001=VPE$COPY File=VPE$COPY.:E05TSI                                WED 07/30/97 07:24 Page:1
        1        1        /*M* VPE$COPY This module contains routines common to COPY type commands      */
        2        2        /*T***********************************************************/
        3        3        /*T*                                                         */
        4        4        /*T* Copyright (c) Bull HN Information Systems Inc., 1997    */
        5        5        /*T*                                                         */
        6        6        /*T***********************************************************/
        7        7        /*X* DTI=1,THI=1  */
        8        8        /* Next available error code = 80  (by 10's)  */
        9        9        VPE$COPY: PROC;
       10       10        /*D* NAME: VPE$COPY
       11       11             CALL: CALL VPE$COPY;
       12       12             DESCRIPTION: COPY drives the COPY command. It gets the first input file,
       13       13                          OPENs the output file, and if no errors occur, goes into a
       14       14                          loop which copies in to out, closes in, gets next in.
       15       15        */
       16       16        %INCLUDE VP_DATA_R;
       17     7003        %INCLUDE B_ERRORS_C;
       18     8130        %INCLUDE F$DCB;
       19     8179        %INCLUDE B$JIT;
       20     8469        %INCLUDE FM$FIT;
       21     8690        %CODE03;
       22     8697        %PARSE$OUT(NAME = OUT$BLK,STCLASS = BASED);
       23     8742        %FPT_OPEN(FPTN = FPT_OPEN_EI_DEFAULT,
       24     8743                  TEST = NO,
       25     8744                  DCB = M$EI,
       26     8745                  STCLASS = STATIC);
       27     8854    1   DCL CODE03$ PTR;
       28     8855    1   DCL COP_MSG CHAR(0) CONSTANT INIT('..COPYing');
       29     8856    1   DCL COPY_ERROR_FLAG SBIN WORD;
       30     8857    1   DCL STARTED SBIN WORD;
       31     8858    1   DCL RET_VAL SBIN WORD;
       32     8859    1   DCL OPEN_NEXT_RET_VAL SBIN WORD;
       33     8860    1   DCL PTR$ PTR;
       34     8861    1   DCL SOURCELIST$ PTR;
       35     8862    1   DCL OUTSPEC$ PTR;
       36     8863    1   DCL IDX SBIN WORD;
       37     8864        /**/
PL6.E3A0      #001=VPE$COPY File=VPE$COPY.:E05TSI                                WED 07/30/97 07:24 Page:2
       38     8865        /*  ENTRY DCLS  */
       39     8866        /**/
       40     8867        %VP_ENTRIES (OMIT=VPE$COPY);
       41     9075    1   DCL XSF$LOCCODP ENTRY (2) ALTRET;
       42     9076        /**/
       43     9077    1           REMEMBER ABORT_COPY IN ABORT_CMD;
       44     9078    1           REMEMBER ABORT_COPY IN BREAK_LOC;
       45     9079    1           STARTED = 0;
       46     9080    1           SOURCELIST$ = ADDR(NIL);
       47     9081    1           OUTSPEC$ = ADDR(NIL);
       48     9082    2           DO IDX=0 TO PCB.OUT$->OUT$BLK.NSUBLKS-1;
       49     9083    2              PTR$ = PCB.OUT$->OUT$BLK.SUBLK$(IDX);
       50     9084    3              DO CASE(PTR$->OUT$BLK.CODE);
       51     9085    3               CASE(1);                    /* SOURCELIST                         */
       52     9086    3                 SOURCELIST$ = PTR$;
       53     9087    3               CASE(2);                    /* OUTSPEC                            */
       54     9088    3                 OUTSPEC$ = PTR$;
       55     9089    3               CASE(3);                    /* FROM 'FID'                         */
       56     9090    3                 CALL VPF$SET_FROM_INFO(PTR$->OUT$BLK.SUBLK$(0));
       57     9091    3               END;                        /* END CASE                           */
       58     9092    2              END;
       59     9093    1           COPY_ERROR_FLAG = 0;            /* NO COPY ERRORS SO FAR              */
       60     9094    1           OPEN_NEXT_RET_VAL = %VPOC_EXHAUSTED#;
       61     9095    1           CALL VPF$GET_NEXT_SPEC(RET_VAL,SOURCELIST$);
       62     9096    1           GOTO FIRST_TIME;
       63     9097    2   DUM1:   DO WHILE('1'B);                 /* DO FOREVER                         */
       64     9098    3              DO WHILE(OPEN_NEXT_RET_VAL=%VPOC_EXHAUSTED#);
       65     9099    3                 CALL VPF$GET_NEXT_SPEC(RET_VAL);
       66     9100    4   FIRST_TIME:   DO CASE(RET_VAL);
       67     9101    4                  CASE(0);                 /* No errors, new SPEC exists         */
       68     9102    4                    CALL VPF$OPEN_NEXT(OPEN_NEXT_RET_VAL,4);
       69     9103    4                  CASE(1);                 /* No more SOURCELIST                 */
       70     9104    4                    IF STARTED=0
       71     9105    5                     THEN DO;
       72     9106    5                        IF ~ERR_FLG
       73     9107    5                         THEN
       74     9108    5                           CALL VPL$ERR_PROC(1,10,'05'O); /* NOTHING TO COPY     */
PL6.E3A0      #001=VPE$COPY File=VPE$COPY.:E05TSI                                WED 07/30/97 07:24 Page:3
       75     9109        /*E* ERROR:   VPE-00010
       76     9110             MESSAGE: Nothing to copy
       77     9111            MESSAGE1: No files were acceptable to copy in that input spec
       78     9112        */
       79     9113    5                        END;
       80     9114    4                     ELSE
       81     9115    5                     DO;                   /* NO MORE FILES TO COPY              */
       82     9116    5                        REMEMBER ABORT_COPY IN ABORT_STEP; /* 'case CLOSE dies   */
       83     9117    5                        CALL VPD$CLOSE_OUT(COPY_ERROR_FLAG);
       84     9118    5                        EO_OCB = OCB;      /* SAVE FOR POSSIBLE EXTENSION        */
       85     9119    5                        CALL VPD$MINIMIZE_BUF;
       86     9120    5                        END;
       87     9121    4                    RETURN;
       88     9122    4                  CASE(2);                 /* ERROR                              */
       89     9123    4                    CALL VPL$ERR_SEV_HANDLER(3); /* Abort command                */
       90     9124    4                  END;                     /* END CASE                           */
       91     9125    3                 REMEMBER COPY_STEP_ABORT IN ABORT_STEP;
       92     9126    3                 END;
       93     9127    2              IF NOT M$EI$ -> F$DCB.FCD
       94     9128    2               THEN                        /* Gotta do a REAL OPEN               */
       95     9129    3               DO;
       96     9130    3                  CALL VPF$CALL_OPEN (FPT_OPEN_EI_DEFAULT)
       97     9131    4                   WHENALTRETURN DO;
       98     9132    4                      CALL VPL$ERR_PROC(3,0,,INPUT_ERR,,,M$EI#); /* Abort cmnd   */
       99     9133    4                      END;                 /*  END ALTRETURN                     */
      100     9134    3                  END;
      101     9135    2              NRECS_IN_COPY_FILE = -1;
      102     9136    2              IF ICB.FLAVOR.MANAGED
      103     9137    3               THEN DO;
      104     9138    3                  CODE03$ = FPARAM$;
      105     9139    3                  CALL XSF$LOCCODP (CODE03$, 3)
      106     9140    4                   WHENRETURN DO;
      107     9141    4                      NRECS_IN_COPY_FILE = CODE03$ -> CODE03.NRECS;
      108     9142    4                      END;
      109     9143    3                  END;
      110     9144    2              IF STARTED=0
      111     9145    2               THEN                        /* This is the first file to be       */
PL6.E3A0      #001=VPE$COPY File=VPE$COPY.:E05TSI                                WED 07/30/97 07:24 Page:4
      112     9146                                                /* copied, so set things up           */
      113     9147    3               DO;
      114     9148    3                  CALL VPC$SETOUT(OUTSPEC$); /* Prepare & open output file       */
      115     9149    3                  CALL VPG$SET_UP_WRITE;
      116     9150    3                  IF ~M$EI$->F$DCB.DDEV.IC /* IF INPUT not from terminal         */
      117     9151    3                    AND ~M$EO$->F$DCB.DDEV.IC /* AND OUTPUT not to terminal      */
      118     9152    3                    AND B$JIT$ -> B$JIT.MODE = %M_INT# /* AND user HAS a terminal */
      119     9153    3                   THEN                    /* Put out the COPYing message        */
      120     9154    4                   DO;
      121     9155    4                      FPT_WRITE_ME.BUF_ = VECTOR(COP_MSG);
      122     9156    4                      FPT_WRITE_ME.V.DVBYTE.VFC# = %NO#;
      123     9157    4                      CALL M$WRITE(FPT_WRITE_ME);
      124     9158    4                      END;
      125     9159    3                  STARTED = 1;
      126     9160    3                  END;
      127     9161    3              CALL VPE$READ_WRITE WHENALTRETURN DO; END; /* Do the copy          */
      128     9162    2              CALL VPF$CLOSE_IN(1)
      129     9163    3               WHENALTRETURN DO;
      130     9164    3                  CALL VPL$ERR_PROC(3,0,,INPUT_ERR);
      131     9165    3                  END;
      132     9166    2   NEXT_FILE: CALL VPF$OPEN_NEXT(OPEN_NEXT_RET_VAL,1);
      133     9167    2              END;
      134     9168    1   COPY_STEP_ABORT: COPY_ERROR_FLAG = 1;   /* A COPY ERROR HAS OCCURRED          */
      135     9169    1           IF ERR_SAVE_REL = 2 AND OCB.ERR_SAVE =0 /* Should we keep the file    */
      136     9170    1            THEN                           /* Don't bother to finish the COPY,   */
      137     9171                                                /* we're going to scratch it anyway   */
      138     9172    1              GOTO ABORT_COPY;
      139     9173    1           IF M$EI$->F$DCB.FCD
      140     9174    1            THEN
      141     9175    1              CALL VPF$CLOSE_IN(1) ALTRET(ALT_C1);
      142     9176    1           GOTO NEXT_FILE;
      143     9177    1   ALT_C1: IF ~M$EO$->F$DCB.FCD
      144     9178    1            THEN
      145     9179    1              GOTO NEXT_FILE;              /* Don't keep closing M$EO            */
      146     9180    1   ABORT_COPY: IF M$EI$->F$DCB.FCD
      147     9181    1            THEN
      148     9182    1              CALL VPF$CLOSE_IN(1) ALTRET(ALT_C2);
PL6.E3A0      #001=VPE$COPY File=VPE$COPY.:E05TSI                                WED 07/30/97 07:24 Page:5
      149     9183    1           EO_OCB = '0'O;        /* This tells VPC$SETOUT to default dest to ME  */
      150     9184    1   ALT_C2: IF M$EO$->F$DCB.FCD
      151     9185    1            THEN
      152     9186    1              CALL VPD$CLOSE_OUT(1);       /* close with error                   */
      153     9187    1           CALL VPD$MINIMIZE_BUF;
      154     9188    1           RETURN;
      155     9189    1   END VPE$COPY;
      156     9190        %EOD;

PL6.E3A0      #001=VPE$COPY File=VPE$COPY.:E05TSI                                WED 07/30/97 07:24 Page:6
--  Include file information  --

   FM$FIT.:E05TOU  is referenced.
   B$JIT.:E05TOU  cannot be made into a system file and is referenced.
   F$DCB.:E05TOU  cannot be made into a system file and is referenced.
   B_ERRORS_C.:E05TOU  is referenced.
   B_MICROPS_C.:E05TOU  is referenced.
   XU_MACRO_C.:E05TOU  is referenced.
   VP_MACRO_C.:E05TOU  is referenced.
   XS_MACRO_C.:E05TOU  is referenced.
   VP_PERR_C.:E05TOU  is referenced.
   CP_6_SUBS.:E05TOU  is referenced.
   CP_6.:E05TOU  cannot be made into a system file and is referenced.
   VP_DATA_R.:E05TOU  cannot be made into a system file and is referenced.
   B$JIT_C.:E05TOU  was found in the system file and is referenced.
   CP_6_C.:E05TOU  was found in the system file and is referenced.
      No diagnostics issued in procedure VPE$COPY.

   Procedure VPE$COPY requires 267 words for executable code.
   Procedure VPE$COPY requires 20 words of local(AUTO) storage.

PL6.E3A0      #001=VPE$COPY File=VPE$COPY.:E05TSI                                WED 07/30/97 07:24 Page:7

 Object Unit name= VPE$COPY                                   File name= VPE$COPY.:E05TOU
 UTS= JUL 30 '97 07:24:56.64 WED                              Compiler= PL-6/E31         Sev=      00
 SharedLib= :SHARED_SYSTEM                                    Alt SharedLib=


    ****  Control sections  ****

 Sect   Type Bound  Init  Size OctSiz  Section name(segment info)
    0   DCB   even  none     0      0  M$UC
    1   DCB   even  none     0      0  M$EI
    2   DCB   even  none     0      0  M$EO
    3   DCB   even  none     0      0  M$EO1
    4   DCB   even  none     0      0  M$ME
    5   DCB   even  none     0      0  M$SI
    6   DCB   even  none     0      0  M$READFILE
    7   DCB   even  none     0      0  M$DO
    8   DCB   even  none     0      0  M$STD1
    9   DCB   even  none     0      0  M$SORT1
   10   Data  even  none    58     72  VPE$COPY
   11  RoData even  UTS      3      3  VPE$COPY
   12   Proc  even  none   267    413  VPE$COPY
   13  RoData even  none    15     17  VPE$COPY

    ****  Entry defs  ****

                              Check   Calling
                             calling  sequence
  Sect OctLoc Primary Altret sequence   type   Parms  Name
    12      0   yes            yes      Std        0  VPE$COPY
PL6.E3A0      #001=VPE$COPY File=VPE$COPY.:E05TSI                                WED 07/30/97 07:24 Page:8

  ****  Entry refs  ****

         Check        Calling
        calling       sequence
Altret sequence SRef   type   Args  Name
         yes           Std       1 VPF$SET_FROM_INFO
         yes           Std       2 VPF$GET_NEXT_SPEC
         yes           Std       3 VPF$OPEN_NEXT
         yes           Std       8 VPL$ERR_PROC
         yes           Std       1 VPD$CLOSE_OUT
         yes           Std       0 VPD$MINIMIZE_BUF
 yes     yes           Std       1 VPF$CALL_OPEN
         yes           Std       1 VPC$SETOUT
 yes     yes           Std       0 VPE$READ_WRITE
 yes     yes           Std       1 VPF$CLOSE_IN
 yes     yes           Std       2 XSF$LOCCODP
         yes           Std       0 VPG$SET_UP_WRITE
         yes           Std       8 VPL$ERR_SEV_HANDLER
                       nStd      0 X66_AUTO_0
                       Std       0 B_CONSPOOL_D
                       nStd      0 X66_ARET
PL6.E3A0      #001=VPE$COPY File=VPE$COPY.:E05TSI                                WED 07/30/97 07:24 Page:9

  ****  Data refs  ****

  Flags:  r = read only, s = secondary
Flgs Name                             Flgs Name                             Flgs Name
     M$UC                                  PCB                                   INPUT_ERR
     ERR_FLG                               ABORT_STEP                            ABORT_CMD
     ERR_SAVE_REL                          BREAK_LOC                             BREAK_MESSAGE_REPORTER
     FPARAM$                               SPEC_BUF                              OCB
     EO_OCB                                IN_RES                                ICB
     NRECS_IN_COPY_FILE                    M$EI                                  M$EI$
     M$EI#                                 M$EO                                  M$EO$
     M$EO1                                 M$ME                                  M$SI
     M$READFILE                            M$DO                                  M$STD1
     M$SORT1                               B$JIT$                                FPT_WRITE_ME
     B_VECTNIL

  ****  Segment refs  ****

  Flags:  r = read only, s = secondary
Flgs Name                             Flgs Name                             Flgs Name
     ISSID                                 NULLSID
PL6.E3A0      #001=VPE$COPY File=VPE$COPY.:E05TSI                                WED 07/30/97 07:24 Page:10


        1        1        /*M* VPE$COPY This module contains routines common to COPY type commands      */
        2        2        /*T***********************************************************/
        3        3        /*T*                                                         */
        4        4        /*T* Copyright (c) Bull HN Information Systems Inc., 1997    */
        5        5        /*T*                                                         */
        6        6        /*T***********************************************************/
        7        7        /*X* DTI=1,THI=1  */
        8        8        /* Next available error code = 80  (by 10's)  */
        9        9        VPE$COPY: PROC;

      9 12 000000   000000 700200 xent  VPE$COPY     TSX0  ! X66_AUTO_0
        12 000001   000024 000000                    ZERO    20,0

       10       10        /*D* NAME: VPE$COPY
       11       11             CALL: CALL VPE$COPY;
       12       12             DESCRIPTION: COPY drives the COPY command. It gets the first input file,
       13       13                          OPENs the output file, and if no errors occur, goes into a
       14       14                          loop which copies in to out, closes in, gets next in.
       15       15        */
       16       16        %INCLUDE VP_DATA_R;
       17     7003        %INCLUDE B_ERRORS_C;
       18     8130        %INCLUDE F$DCB;
       19     8179        %INCLUDE B$JIT;
       20     8469        %INCLUDE FM$FIT;
       21     8690        %CODE03;
       22     8697        %PARSE$OUT(NAME = OUT$BLK,STCLASS = BASED);
       23     8742        %FPT_OPEN(FPTN = FPT_OPEN_EI_DEFAULT,
       24     8743                  TEST = NO,
       25     8744                  DCB = M$EI,
       26     8745                  STCLASS = STATIC);
       27     8854    1   DCL CODE03$ PTR;
       28     8855    1   DCL COP_MSG CHAR(0) CONSTANT INIT('..COPYing');
       29     8856    1   DCL COPY_ERROR_FLAG SBIN WORD;
       30     8857    1   DCL STARTED SBIN WORD;
       31     8858    1   DCL RET_VAL SBIN WORD;
       32     8859    1   DCL OPEN_NEXT_RET_VAL SBIN WORD;
PL6.E3A0      #001=VPE$COPY File=VPE$COPY.:E05TSI                                WED 07/30/97 07:24 Page:11
       33     8860    1   DCL PTR$ PTR;
       34     8861    1   DCL SOURCELIST$ PTR;
       35     8862    1   DCL OUTSPEC$ PTR;
       36     8863    1   DCL IDX SBIN WORD;
       37     8864        /**/
       38     8865        /*  ENTRY DCLS  */
       39     8866        /**/
       40     8867        %VP_ENTRIES (OMIT=VPE$COPY);
       41     9075    1   DCL XSF$LOCCODP ENTRY (2) ALTRET;
       42     9076        /**/
       43     9077    1           REMEMBER ABORT_COPY IN ABORT_CMD;

   9077 12 000002   000364 635000 12                 EAA     ABORT_COPY
        12 000003   000000 452400 xsym               STP2    ABORT_CMD
        12 000004   000001 755000 xsym               STA     ABORT_CMD+1

       44     9078    1           REMEMBER ABORT_COPY IN BREAK_LOC;

   9078 12 000005   000364 635000 12                 EAA     ABORT_COPY
        12 000006   000000 452400 xsym               STP2    BREAK_LOC
        12 000007   000001 755000 xsym               STA     BREAK_LOC+1

       45     9079    1           STARTED = 0;

   9079 12 000010   200005 450100                    STZ     STARTED,,AUTO

       46     9080    1           SOURCELIST$ = ADDR(NIL);

   9080 12 000011   000001 236000 xsym               LDQ     B_VECTNIL+1
        12 000012   200011 756100                    STQ     SOURCELIST$,,AUTO

       47     9081    1           OUTSPEC$ = ADDR(NIL);

   9081 12 000013   200012 756100                    STQ     OUTSPEC$,,AUTO

       48     9082    2           DO IDX=0 TO PCB.OUT$->OUT$BLK.NSUBLKS-1;

PL6.E3A0      #001=VPE$COPY File=VPE$COPY.:E05TSI                                WED 07/30/97 07:24 Page:12
   9082 12 000014   200013 450100                    STZ     IDX,,AUTO
        12 000015   000046 710000 12                 TRA     s:9092+1

       49     9083    2              PTR$ = PCB.OUT$->OUT$BLK.SUBLK$(IDX);

   9083 12 000016   000003 470400 xsym               LDP0    PCB+3
        12 000017   200013 720100                    LXL0    IDX,,AUTO
        12 000020   000003 236110                    LDQ     3,X0,PR0
        12 000021   200010 756100                    STQ     PTR$,,AUTO

       50     9084    3              DO CASE(PTR$->OUT$BLK.CODE);

   9084 12 000022   200010 471500                    LDP1    PTR$,,AUTO
        12 000023   100000 721100                    LXL1    0,,PR1
        12 000024   000004 101003                    CMPX1   4,DU
        12 000025   000027 602011 12                 TNC     s:9084+5,X1
        12 000026   000045 710000 12                 TRA     s:9092
        12 000027   000045 710000 12                 TRA     s:9092
        12 000030   000033 710000 12                 TRA     s:9086
        12 000031   000035 710000 12                 TRA     s:9088
        12 000032   000037 710000 12                 TRA     s:9090

       51     9085    3               CASE(1);                    /* SOURCELIST                         */

       52     9086    3                 SOURCELIST$ = PTR$;

   9086 12 000033   200011 756100                    STQ     SOURCELIST$,,AUTO
        12 000034   000045 710000 12                 TRA     s:9092

       53     9087    3               CASE(2);                    /* OUTSPEC                            */

       54     9088    3                 OUTSPEC$ = PTR$;

   9088 12 000035   200012 756100                    STQ     OUTSPEC$,,AUTO
        12 000036   000045 710000 12                 TRA     s:9092

       55     9089    3               CASE(3);                    /* FROM 'FID'                         */
PL6.E3A0      #001=VPE$COPY File=VPE$COPY.:E05TSI                                WED 07/30/97 07:24 Page:13

       56     9090    3                 CALL VPF$SET_FROM_INFO(PTR$->OUT$BLK.SUBLK$(0));

   9090 12 000037   000003 036003                    ADLQ    3,DU
        12 000040   200014 756100                    STQ     IDX+1,,AUTO
        12 000041   200014 630500                    EPPR0   IDX+1,,AUTO
        12 000042   000017 631400 xsym               EPPR1   B_VECTNIL+15
        12 000043   000000 701000 xent               TSX1    VPF$SET_FROM_INFO
        12 000044   000000 011000                    NOP     0

       57     9091    3               END;                        /* END CASE                           */

       58     9092    2              END;

   9092 12 000045   200013 054100                    AOS     IDX,,AUTO
        12 000046   000003 470400 xsym               LDP0    PCB+3
        12 000047   000001 236100                    LDQ     1,,PR0
        12 000050   000022 772000                    QRL     18
        12 000051   200013 116100                    CMPQ    IDX,,AUTO
        12 000052   000016 605400 12                 TPNZ    s:9083

       59     9093    1           COPY_ERROR_FLAG = 0;            /* NO COPY ERRORS SO FAR              */

   9093 12 000053   200004 450100                    STZ     COPY_ERROR_FLAG,,AUTO

       60     9094    1           OPEN_NEXT_RET_VAL = %VPOC_EXHAUSTED#;

   9094 12 000054   000001 235007                    LDA     1,DL
        12 000055   200007 755100                    STA     OPEN_NEXT_RET_VAL,,AUTO

       61     9095    1           CALL VPF$GET_NEXT_SPEC(RET_VAL,SOURCELIST$);

   9095 12 000056   200011 631500                    EPPR1   SOURCELIST$,,AUTO
        12 000057   200015 451500                    STP1    IDX+2,,AUTO
        12 000060   200006 633500                    EPPR3   RET_VAL,,AUTO
        12 000061   200014 453500                    STP3    IDX+1,,AUTO
        12 000062   200014 630500                    EPPR0   IDX+1,,AUTO
PL6.E3A0      #001=VPE$COPY File=VPE$COPY.:E05TSI                                WED 07/30/97 07:24 Page:14
        12 000063   000020 631400 xsym               EPPR1   B_VECTNIL+16
        12 000064   000000 701000 xent               TSX1    VPF$GET_NEXT_SPEC
        12 000065   000000 011000                    NOP     0

       62     9096    1           GOTO FIRST_TIME;

   9096 12 000066   000100 710000 12                 TRA     FIRST_TIME

       63     9097    2   DUM1:   DO WHILE('1'B);                 /* DO FOREVER                         */

   9097 12 000067                       DUM1         null
       64     9098    3              DO WHILE(OPEN_NEXT_RET_VAL=%VPOC_EXHAUSTED#);

   9098 12 000067   200007 235100                    LDA     OPEN_NEXT_RET_VAL,,AUTO
        12 000070   000001 115007                    CMPA    1,DL
        12 000071   000165 601000 12                 TNZ     s:9127

       65     9099    3                 CALL VPF$GET_NEXT_SPEC(RET_VAL);

   9099 12 000072   200006 630500                    EPPR0   RET_VAL,,AUTO
        12 000073   200014 450500                    STP0    IDX+1,,AUTO
        12 000074   200014 630500                    EPPR0   IDX+1,,AUTO
        12 000075   000017 631400 xsym               EPPR1   B_VECTNIL+15
        12 000076   000000 701000 xent               TSX1    VPF$GET_NEXT_SPEC
        12 000077   000000 011000                    NOP     0

       66     9100    4   FIRST_TIME:   DO CASE(RET_VAL);

   9100 12 000100   200006 235100       FIRST_TIME   LDA     RET_VAL,,AUTO
        12 000101   000003 115007                    CMPA    3,DL
        12 000102   000104 602005 12                 TNC     FIRST_TIME+4,AL
        12 000103   000157 710000 12                 TRA     s:9125
        12 000104   000107 710000 12                 TRA     s:9102
        12 000105   000120 710000 12                 TRA     s:9104
        12 000106   000153 710000 12                 TRA     s:9123

       67     9101    4                  CASE(0);                 /* No errors, new SPEC exists         */
PL6.E3A0      #001=VPE$COPY File=VPE$COPY.:E05TSI                                WED 07/30/97 07:24 Page:15

       68     9102    4                    CALL VPF$OPEN_NEXT(OPEN_NEXT_RET_VAL,4);

   9102 12 000107   000000 236000 13                 LDQ     0
        12 000110   200015 756100                    STQ     IDX+2,,AUTO
        12 000111   200007 630500                    EPPR0   OPEN_NEXT_RET_VAL,,AUTO
        12 000112   200014 450500                    STP0    IDX+1,,AUTO
        12 000113   200014 630500                    EPPR0   IDX+1,,AUTO
        12 000114   000020 631400 xsym               EPPR1   B_VECTNIL+16
        12 000115   000000 701000 xent               TSX1    VPF$OPEN_NEXT
        12 000116   000000 011000                    NOP     0
        12 000117   000157 710000 12                 TRA     s:9125

       69     9103    4                  CASE(1);                 /* No more SOURCELIST                 */

       70     9104    4                    IF STARTED=0

   9104 12 000120   200005 236100                    LDQ     STARTED,,AUTO
        12 000121   000133 601000 12                 TNZ     s:9116

       71     9105    5                     THEN DO;

       72     9106    5                        IF ~ERR_FLG

   9106 12 000122   000000 236000 xsym               LDQ     ERR_FLG
        12 000123   400000 376003                    ANQ     -131072,DU
        12 000124   400000 676003                    ERQ     -131072,DU
        12 000125   000152 600000 12                 TZE     s:9121

       73     9107    5                         THEN
       74     9108    5                           CALL VPL$ERR_PROC(1,10,'05'O); /* NOTHING TO COPY     */

   9108 12 000126   000002 630400 13                 EPPR0   2
        12 000127   000021 631400 xsym               EPPR1   B_VECTNIL+17
        12 000130   000000 701000 xent               TSX1    VPL$ERR_PROC
        12 000131   000000 011000                    NOP     0

PL6.E3A0      #001=VPE$COPY File=VPE$COPY.:E05TSI                                WED 07/30/97 07:24 Page:16
       75     9109        /*E* ERROR:   VPE-00010
       76     9110             MESSAGE: Nothing to copy
       77     9111            MESSAGE1: No files were acceptable to copy in that input spec
       78     9112        */
       79     9113    5                        END;

   9113 12 000132   000152 710000 12                 TRA     s:9121

       80     9114    4                     ELSE
       81     9115    5                     DO;                   /* NO MORE FILES TO COPY              */

       82     9116    5                        REMEMBER ABORT_COPY IN ABORT_STEP; /* 'case CLOSE dies   */

   9116 12 000133   000364 635000 12                 EAA     ABORT_COPY
        12 000134   000000 452400 xsym               STP2    ABORT_STEP
        12 000135   000001 755000 xsym               STA     ABORT_STEP+1

       83     9117    5                        CALL VPD$CLOSE_OUT(COPY_ERROR_FLAG);

   9117 12 000136   200004 630500                    EPPR0   COPY_ERROR_FLAG,,AUTO
        12 000137   200014 450500                    STP0    IDX+1,,AUTO
        12 000140   200014 630500                    EPPR0   IDX+1,,AUTO
        12 000141   000017 631400 xsym               EPPR1   B_VECTNIL+15
        12 000142   000000 701000 xent               TSX1    VPD$CLOSE_OUT
        12 000143   000000 011000                    NOP     0

       84     9118    5                        EO_OCB = OCB;      /* SAVE FOR POSSIBLE EXTENSION        */

   9118 12 000144   000000 100400                    MLR     fill='000'O
        12 000145   000000 001370 xsym               ADSC9   OCB                      cn=0,n=760
        12 000146   000000 001370 xsym               ADSC9   EO_OCB                   cn=0,n=760

       85     9119    5                        CALL VPD$MINIMIZE_BUF;

   9119 12 000147   000002 631400 xsym               EPPR1   B_VECTNIL+2
        12 000150   000000 701000 xent               TSX1    VPD$MINIMIZE_BUF
        12 000151   000000 011000                    NOP     0
PL6.E3A0      #001=VPE$COPY File=VPE$COPY.:E05TSI                                WED 07/30/97 07:24 Page:17

       86     9120    5                        END;

       87     9121    4                    RETURN;

   9121 12 000152   000000 702200 xent               TSX2  ! X66_ARET

       88     9122    4                  CASE(2);                 /* ERROR                              */

       89     9123    4                    CALL VPL$ERR_SEV_HANDLER(3); /* Abort command                */

   9123 12 000153   000005 630400 13                 EPPR0   5
        12 000154   000017 631400 xsym               EPPR1   B_VECTNIL+15
        12 000155   000000 701000 xent               TSX1    VPL$ERR_SEV_HANDLER
        12 000156   000000 011000                    NOP     0

       90     9124    4                  END;                     /* END CASE                           */

       91     9125    3                 REMEMBER COPY_STEP_ABORT IN ABORT_STEP;

   9125 12 000157   000336 635000 12                 EAA     COPY_STEP_ABORT
        12 000160   000000 452400 xsym               STP2    ABORT_STEP
        12 000161   000001 755000 xsym               STA     ABORT_STEP+1

       92     9126    3                 END;

   9126 12 000162   200007 236100                    LDQ     OPEN_NEXT_RET_VAL,,AUTO
        12 000163   000001 116007                    CMPQ    1,DL
        12 000164   000072 600000 12                 TZE     s:9099

       93     9127    2              IF NOT M$EI$ -> F$DCB.FCD

   9127 12 000165   000000 470400 xsym               LDP0    M$EI$
        12 000166   000031 236100                    LDQ     25,,PR0
        12 000167   020000 316007                    CANQ    8192,DL
        12 000170   000214 601000 12                 TNZ     s:9135

PL6.E3A0      #001=VPE$COPY File=VPE$COPY.:E05TSI                                WED 07/30/97 07:24 Page:18
       94     9128    2               THEN                        /* Gotta do a REAL OPEN               */
       95     9129    3               DO;

       96     9130    3                  CALL VPF$CALL_OPEN (FPT_OPEN_EI_DEFAULT)

   9130 12 000171   000006 630400 13                 EPPR0   6
        12 000172   000017 631400 xsym               EPPR1   B_VECTNIL+15
        12 000173   000000 701000 xent               TSX1    VPF$CALL_OPEN
        12 000174   000176 702000 12                 TSX2    s:9132
        12 000175   000214 710000 12                 TRA     s:9135

       97     9131    4                   WHENALTRETURN DO;

       98     9132    4                      CALL VPL$ERR_PROC(3,0,,INPUT_ERR,,,M$EI#); /* Abort cmnd   */

   9132 12 000176   000007 236000 13                 LDQ     7
        12 000177   200022 756100                    STQ     IDX+7,,AUTO
        12 000200   000001 236000 xsym               LDQ     B_VECTNIL+1
        12 000201   000001 235000 xsym               LDA     B_VECTNIL+1
        12 000202   200020 757100                    STAQ    IDX+5,,AUTO
        12 000203   000010 236000 13                 LDQ     8
        12 000204   000001 235000 xsym               LDA     B_VECTNIL+1
        12 000205   200016 757100                    STAQ    IDX+3,,AUTO
        12 000206   000012 237000 13                 LDAQ    10
        12 000207   200014 757100                    STAQ    IDX+1,,AUTO
        12 000210   200014 630500                    EPPR0   IDX+1,,AUTO
        12 000211   000025 631400 xsym               EPPR1   B_VECTNIL+21
        12 000212   000000 701000 xent               TSX1    VPL$ERR_PROC
        12 000213   000000 011000                    NOP     0

       99     9133    4                      END;                 /*  END ALTRETURN                     */

      100     9134    3                  END;

      101     9135    2              NRECS_IN_COPY_FILE = -1;

   9135 12 000214   000001 335007                    LCA     1,DL
PL6.E3A0      #001=VPE$COPY File=VPE$COPY.:E05TSI                                WED 07/30/97 07:24 Page:19
        12 000215   000000 755000 xsym               STA     NRECS_IN_COPY_FILE

      102     9136    2              IF ICB.FLAVOR.MANAGED

   9136 12 000216   000172 236000 xsym               LDQ     ICB+122
        12 000217   000010 316003                    CANQ    8,DU
        12 000220   000236 600000 12                 TZE     s:9144

      103     9137    3               THEN DO;

      104     9138    3                  CODE03$ = FPARAM$;

   9138 12 000221   000000 236000 xsym               LDQ     FPARAM$
        12 000222   200003 756100                    STQ     CODE03$,,AUTO

      105     9139    3                  CALL XSF$LOCCODP (CODE03$, 3)

   9139 12 000223   000005 236000 13                 LDQ     5
        12 000224   200015 756100                    STQ     IDX+2,,AUTO
        12 000225   200003 630500                    EPPR0   CODE03$,,AUTO
        12 000226   200014 450500                    STP0    IDX+1,,AUTO
        12 000227   200014 630500                    EPPR0   IDX+1,,AUTO
        12 000230   000020 631400 xsym               EPPR1   B_VECTNIL+16
        12 000231   000000 701000 xent               TSX1    XSF$LOCCODP
        12 000232   000236 702000 12                 TSX2    s:9144

      106     9140    4                   WHENRETURN DO;

      107     9141    4                      NRECS_IN_COPY_FILE = CODE03$ -> CODE03.NRECS;

   9141 12 000233   200003 470500                    LDP0    CODE03$,,AUTO
        12 000234   000002 235100                    LDA     2,,PR0
        12 000235   000000 755000 xsym               STA     NRECS_IN_COPY_FILE

      108     9142    4                      END;

      109     9143    3                  END;
PL6.E3A0      #001=VPE$COPY File=VPE$COPY.:E05TSI                                WED 07/30/97 07:24 Page:20

      110     9144    2              IF STARTED=0

   9144 12 000236   200005 235100                    LDA     STARTED,,AUTO
        12 000237   000303 601000 12                 TNZ     s:9161

      111     9145    2               THEN                        /* This is the first file to be       */
      112     9146                                                /* copied, so set things up           */
      113     9147    3               DO;

      114     9148    3                  CALL VPC$SETOUT(OUTSPEC$); /* Prepare & open output file       */

   9148 12 000240   200012 630500                    EPPR0   OUTSPEC$,,AUTO
        12 000241   200014 450500                    STP0    IDX+1,,AUTO
        12 000242   200014 630500                    EPPR0   IDX+1,,AUTO
        12 000243   000017 631400 xsym               EPPR1   B_VECTNIL+15
        12 000244   000000 701000 xent               TSX1    VPC$SETOUT
        12 000245   000000 011000                    NOP     0

      115     9149    3                  CALL VPG$SET_UP_WRITE;

   9149 12 000246   000002 631400 xsym               EPPR1   B_VECTNIL+2
        12 000247   000000 701000 xent               TSX1    VPG$SET_UP_WRITE
        12 000250   000000 011000                    NOP     0

      116     9150    3                  IF ~M$EI$->F$DCB.DDEV.IC /* IF INPUT not from terminal         */

   9150 12 000251   000000 470400 xsym               LDP0    M$EI$
        12 000252   000004 236100                    LDQ     4,,PR0
        12 000253   000024 736000                    QLS     20
        12 000254   400000 376003                    ANQ     -131072,DU
        12 000255   400000 676003                    ERQ     -131072,DU
        12 000256   000301 600000 12                 TZE     s:9159
        12 000257   000000 471400 xsym               LDP1    M$EO$
        12 000260   100004 236100                    LDQ     4,,PR1
        12 000261   000024 736000                    QLS     20
        12 000262   400000 376003                    ANQ     -131072,DU
PL6.E3A0      #001=VPE$COPY File=VPE$COPY.:E05TSI                                WED 07/30/97 07:24 Page:21
        12 000263   400000 676003                    ERQ     -131072,DU
        12 000264   000301 600000 12                 TZE     s:9159
        12 000265   000000 473400 xsym               LDP3    B$JIT$
        12 000266   300000 236100                    LDQ     0,,PR3
        12 000267   740000 376003                    ANQ     -16384,DU
        12 000270   140000 116003                    CMPQ    49152,DU
        12 000271   000301 601000 12                 TNZ     s:9159

      117     9151    3                    AND ~M$EO$->F$DCB.DDEV.IC /* AND OUTPUT not to terminal      */
      118     9152    3                    AND B$JIT$ -> B$JIT.MODE = %M_INT# /* AND user HAS a terminal */
      119     9153    3                   THEN                    /* Put out the COPYing message        */
      120     9154    4                   DO;

      121     9155    4                      FPT_WRITE_ME.BUF_ = VECTOR(COP_MSG);

   9155 12 000272   000014 237000 13                 LDAQ    12
        12 000273   000004 757000 xsym               STAQ    FPT_WRITE_ME+4

      122     9156    4                      FPT_WRITE_ME.V.DVBYTE.VFC# = %NO#;

   9156 12 000274   000016 236000 13                 LDQ     14
        12 000275   000013 356000 xsym               ANSQ    FPT_WRITE_ME+11

      123     9157    4                      CALL M$WRITE(FPT_WRITE_ME);

   9157 12 000276   000000 630400 xsym               EPPR0   FPT_WRITE_ME
        12 000277   040001 713400                    CLIMB   write
        12 000300   401400 401760                    pmme    nvectors=4

      124     9158    4                      END;

      125     9159    3                  STARTED = 1;

   9159 12 000301   000001 235007                    LDA     1,DL
        12 000302   200005 755100                    STA     STARTED,,AUTO

      126     9160    3                  END;
PL6.E3A0      #001=VPE$COPY File=VPE$COPY.:E05TSI                                WED 07/30/97 07:24 Page:22

      127     9161    3              CALL VPE$READ_WRITE WHENALTRETURN DO; END; /* Do the copy          */

   9161 12 000303   000002 631400 xsym               EPPR1   B_VECTNIL+2
        12 000304   000000 701000 xent               TSX1    VPE$READ_WRITE
        12 000305   000307 702000 12                 TSX2    s:9162
        12 000306   000307 710000 12                 TRA     s:9162

      128     9162    2              CALL VPF$CLOSE_IN(1)

   9162 12 000307   000002 630400 13                 EPPR0   2
        12 000310   000017 631400 xsym               EPPR1   B_VECTNIL+15
        12 000311   000000 701000 xent               TSX1    VPF$CLOSE_IN
        12 000312   000314 702000 12                 TSX2    s:9164
        12 000313   000325 710000 12                 TRA     NEXT_FILE

      129     9163    3               WHENALTRETURN DO;

      130     9164    3                  CALL VPL$ERR_PROC(3,0,,INPUT_ERR);

   9164 12 000314   000010 236000 13                 LDQ     8
        12 000315   000001 235000 xsym               LDA     B_VECTNIL+1
        12 000316   200016 757100                    STAQ    IDX+3,,AUTO
        12 000317   000012 237000 13                 LDAQ    10
        12 000320   200014 757100                    STAQ    IDX+1,,AUTO
        12 000321   200014 630500                    EPPR0   IDX+1,,AUTO
        12 000322   000022 631400 xsym               EPPR1   B_VECTNIL+18
        12 000323   000000 701000 xent               TSX1    VPL$ERR_PROC
        12 000324   000000 011000                    NOP     0

      131     9165    3                  END;

      132     9166    2   NEXT_FILE: CALL VPF$OPEN_NEXT(OPEN_NEXT_RET_VAL,1);

   9166 12 000325   000002 236000 13    NEXT_FILE    LDQ     2
        12 000326   200015 756100                    STQ     IDX+2,,AUTO
        12 000327   200007 630500                    EPPR0   OPEN_NEXT_RET_VAL,,AUTO
PL6.E3A0      #001=VPE$COPY File=VPE$COPY.:E05TSI                                WED 07/30/97 07:24 Page:23
        12 000330   200014 450500                    STP0    IDX+1,,AUTO
        12 000331   200014 630500                    EPPR0   IDX+1,,AUTO
        12 000332   000020 631400 xsym               EPPR1   B_VECTNIL+16
        12 000333   000000 701000 xent               TSX1    VPF$OPEN_NEXT
        12 000334   000000 011000                    NOP     0

      133     9167    2              END;

   9167 12 000335   000067 710000 12                 TRA     DUM1

      134     9168    1   COPY_STEP_ABORT: COPY_ERROR_FLAG = 1;   /* A COPY ERROR HAS OCCURRED          */

   9168 12 000336   000001 235007       COPY_STEP_A* LDA     1,DL
        12 000337   200004 755100                    STA     COPY_ERROR_FLAG,,AUTO

      135     9169    1           IF ERR_SAVE_REL = 2 AND OCB.ERR_SAVE =0 /* Should we keep the file    */

   9169 12 000340   000000 236000 xsym               LDQ     ERR_SAVE_REL
        12 000341   000002 116007                    CMPQ    2,DL
        12 000342   000345 601000 12                 TNZ     s:9173
        12 000343   000272 235000 xsym               LDA     OCB+186
        12 000344   000364 600000 12                 TZE     ABORT_COPY

      136     9170    1            THEN                           /* Don't bother to finish the COPY,   */
      137     9171                                                /* we're going to scratch it anyway   */
      138     9172    1              GOTO ABORT_COPY;
      139     9173    1           IF M$EI$->F$DCB.FCD

   9173 12 000345   000000 470400 xsym               LDP0    M$EI$
        12 000346   000031 236100                    LDQ     25,,PR0
        12 000347   020000 316007                    CANQ    8192,DL
        12 000350   000355 600000 12                 TZE     s:9176

      140     9174    1            THEN
      141     9175    1              CALL VPF$CLOSE_IN(1) ALTRET(ALT_C1);

   9175 12 000351   000002 630400 13                 EPPR0   2
PL6.E3A0      #001=VPE$COPY File=VPE$COPY.:E05TSI                                WED 07/30/97 07:24 Page:24
        12 000352   000017 631400 xsym               EPPR1   B_VECTNIL+15
        12 000353   000000 701000 xent               TSX1    VPF$CLOSE_IN
        12 000354   000356 702000 12                 TSX2    ALT_C1

      142     9176    1           GOTO NEXT_FILE;

   9176 12 000355   000325 710000 12                 TRA     NEXT_FILE

      143     9177    1   ALT_C1: IF ~M$EO$->F$DCB.FCD

   9177 12 000356   000000 470400 xsym  ALT_C1       LDP0    M$EO$
        12 000357   000031 236100                    LDQ     25,,PR0
        12 000360   000026 736000                    QLS     22
        12 000361   400000 376003                    ANQ     -131072,DU
        12 000362   400000 676003                    ERQ     -131072,DU
        12 000363   000325 601000 12                 TNZ     NEXT_FILE

      144     9178    1            THEN
      145     9179    1              GOTO NEXT_FILE;              /* Don't keep closing M$EO            */
      146     9180    1   ABORT_COPY: IF M$EI$->F$DCB.FCD

   9180 12 000364   000000 470400 xsym  ABORT_COPY   LDP0    M$EI$
        12 000365   000031 236100                    LDQ     25,,PR0
        12 000366   020000 316007                    CANQ    8192,DL
        12 000367   000374 600000 12                 TZE     s:9183

      147     9181    1            THEN
      148     9182    1              CALL VPF$CLOSE_IN(1) ALTRET(ALT_C2);

   9182 12 000370   000002 630400 13                 EPPR0   2
        12 000371   000017 631400 xsym               EPPR1   B_VECTNIL+15
        12 000372   000000 701000 xent               TSX1    VPF$CLOSE_IN
        12 000373   000377 702000 12                 TSX2    ALT_C2

      149     9183    1           EO_OCB = '0'O;        /* This tells VPC$SETOUT to default dest to ME  */

   9183 12 000374   000000 100400                    MLR     fill='000'O
PL6.E3A0      #001=VPE$COPY File=VPE$COPY.:E05TSI                                WED 07/30/97 07:24 Page:25
        12 000375   000002 000001 xsym               ADSC9   B_VECTNIL+2              cn=0,n=1
        12 000376   000000 001370 xsym               ADSC9   EO_OCB                   cn=0,n=760

      150     9184    1   ALT_C2: IF M$EO$->F$DCB.FCD

   9184 12 000377   000000 470400 xsym  ALT_C2       LDP0    M$EO$
        12 000400   000031 236100                    LDQ     25,,PR0
        12 000401   020000 316007                    CANQ    8192,DL
        12 000402   000407 600000 12                 TZE     s:9187

      151     9185    1            THEN
      152     9186    1              CALL VPD$CLOSE_OUT(1);       /* close with error                   */

   9186 12 000403   000002 630400 13                 EPPR0   2
        12 000404   000017 631400 xsym               EPPR1   B_VECTNIL+15
        12 000405   000000 701000 xent               TSX1    VPD$CLOSE_OUT
        12 000406   000000 011000                    NOP     0

      153     9187    1           CALL VPD$MINIMIZE_BUF;

   9187 12 000407   000002 631400 xsym               EPPR1   B_VECTNIL+2
        12 000410   000000 701000 xent               TSX1    VPD$MINIMIZE_BUF
        12 000411   000000 011000                    NOP     0

      154     9188    1           RETURN;

   9188 12 000412   000000 702200 xent               TSX2  ! X66_ARET
      155     9189    1   END VPE$COPY;
      156     9190        %EOD;

PL6.E3A0      #001=VPE$COPY File=VPE$COPY.:E05TSI                                WED 07/30/97 07:24 Page:26
--  Include file information  --

   FM$FIT.:E05TOU  is referenced.
   B$JIT.:E05TOU  cannot be made into a system file and is referenced.
   F$DCB.:E05TOU  cannot be made into a system file and is referenced.
   B_ERRORS_C.:E05TOU  is referenced.
   B_MICROPS_C.:E05TOU  is referenced.
   XU_MACRO_C.:E05TOU  is referenced.
   VP_MACRO_C.:E05TOU  is referenced.
   XS_MACRO_C.:E05TOU  is referenced.
   VP_PERR_C.:E05TOU  is referenced.
   CP_6_SUBS.:E05TOU  is referenced.
   CP_6.:E05TOU  cannot be made into a system file and is referenced.
   VP_DATA_R.:E05TOU  cannot be made into a system file and is referenced.
   B$JIT_C.:E05TOU  was found in the system file and is referenced.
   CP_6_C.:E05TOU  was found in the system file and is referenced.
      No diagnostics issued in procedure VPE$COPY.
PL6.E3A0      #001=VPE$COPY File=VPE$COPY.:E05TSI                                WED 07/30/97 07:24 Page:27

 **** Variables and constants ****

  ****  Section 010  Data  VPE$COPY

  ****  Scalars and arrays  ****
OctLoc.c.b A Datatyp(siz) R M Lvl/name                 OctLoc.c.b A Datatyp(siz) R M Lvl/name

     0-0-0/d STRC(2088)  r     1 FPT_OPEN_EI_DEFAULT

  ****  Section 011 RoData VPE$COPY

  ****  Scalars and arrays  ****
OctLoc.c.b A Datatyp(siz) R M Lvl/name                 OctLoc.c.b A Datatyp(siz) R M Lvl/name

     0-0-0/c CHAR(9)     r     1 COP_MSG

  ****  Auto variables  ****

  ****  Scalars and arrays  ****
OctLoc.c.b A Datatyp(siz) R M Lvl/name                 OctLoc.c.b A Datatyp(siz) R M Lvl/name

     3-0-0/w PTR         r     1 CODE03$                    4-0-0/w SBIN        r     1 COPY_ERROR_FLAG
    13-0-0/w SBIN        r     1 IDX                        7-0-0/w SBIN        r     1 OPEN_NEXT_RET_VAL
    12-0-0/w PTR         r     1 OUTSPEC$                  10-0-0/w PTR         r     1 PTR$
     6-0-0/w SBIN        r     1 RET_VAL                   11-0-0/w PTR         r     1 SOURCELIST$
     5-0-0/w SBIN        r     1 STARTED

  ****  SYMREF variables  ****

  ****  Scalars and arrays  ****
OctLoc.c.b A Datatyp(siz) R M Lvl/name                 OctLoc.c.b A Datatyp(siz) R M Lvl/name

     0-0-0/d REMB        r     1 ABORT_CMD                  0-0-0/d REMB        r     1 ABORT_STEP
     0-0-0/w PTR         r     1 B$JIT$                     0-0-0/d REMB        r     1 BREAK_LOC
     0-0-0/w EPTR        r     1 BREAK_MESSAGE_REPORTER
     0-0-0/d STRC(6840)  r     1 EO_OCB                     0-0-0/w BIT         r     1 ERR_FLG
     0-0-0/w SBIN        r     1 ERR_SAVE_REL               0-0-0/w PTR         r     1 FPARAM$
PL6.E3A0      #001=VPE$COPY File=VPE$COPY.:E05TSI                                WED 07/30/97 07:24 Page:28
     0-0-0/d STRC(432)   r     1 FPT_WRITE_ME               0-0-0/d STRC(5868)  r     1 ICB
     0-0-0/w STRC        r     1 INPUT_ERR                  0-0-0/w SBIN        r     1 M$EI#
     0-0-0/w PTR         r     1 M$EI$                      0-0-0/w PTR         r     1 M$EO$
     0-0-0/w SBIN        r     1 NRECS_IN_COPY_FILE         0-0-0/d STRC(6840)  r     1 OCB
     0-0-0/w STRC(504)   r     1 PCB

  ****  BASED and DCB variables  ****

  ****  Scalars and arrays  ****
OctLoc.c.b A Datatyp(siz) R M Lvl/name                 OctLoc.c.b A Datatyp(siz) R M Lvl/name

     0-0-0/d STRC(8856)  r     1 B$JIT                      0-0-0/w STRC(324)   r     1 CODE03
     0-0-0/d ASTR(3528)  r     1 F$DCB                      0-0-0N  NULL        r     1 M$EI
     0-0-0/w STRC(144)   r     1 OUT$BLK


   Procedure VPE$COPY requires 267 words for executable code.
   Procedure VPE$COPY requires 20 words of local(AUTO) storage.
PL6.E3A0      #001=VPE$COPY File=VPE$COPY.:E05TSI                                WED 07/30/97 07:24 Page:29
          *** CROSS REFERENCE LISTING ***
**     DENOTES     IDENTIFIER DEFINITION
<<                 IDENTIFIER'S VALUE SET
>>                 IDENTIFIER'S VALUE USED
<>                 IDENTIFIER SET AND/OR USED
--                 IDENTIFIER REFERENCED
PL6.E3A0      #001=VPE$COPY File=VPE$COPY.:E05TSI                                WED 07/30/97 07:24 Page:30
          MINI XREF LISTING

ABORT_CMD
      5188**DCL      9077<<REMEMBR
ABORT_COPY
      9180**LABEL    9077--REMEMBR  9078--REMEMBR  9116--REMEMBR  9172--GOTO
ABORT_STEP
      5187**DCL      9116<<REMEMBR  9125<<REMEMBR
ALT_C1
      9177**LABEL    9175--CALLALT
ALT_C2
      9184**LABEL    9182--CALLALT
B$JIT.CPFLAGS1.SLEAZE
      8287**DCL      8287--REDEF
B$JIT.ERR.MID
      8194**DCL      8194--REDEF
B$JIT.JRESPEAK
      8355**DCL      8356--REDEF
B$JIT.MODE
      8188**DCL      9150>>IF
B$JIT.ORIGINATOR_PORT.FROM_CR
      8464**DCL      8464--REDEF    8465--REDEF
B$JIT.PNR
      8368**DCL      8368--REDEF
B$JIT.TSLINE
      8462**DCL      8463--REDEF
B$JIT$
      5988**DCL      8188--IMP-PTR  9150>>IF
BREAK_LOC
      5223**DCL      5223--REDEF    9078<<REMEMBR
CODE03.NRECS
      8693**DCL      9141>>ASSIGN
CODE03$
      8854**DCL      9138<<ASSIGN   9139<>CALL     9141>>ASSIGN
PL6.E3A0      #001=VPE$COPY File=VPE$COPY.:E05TSI                                WED 07/30/97 07:24 Page:31
COPY_ERROR_FLAG
      8856**DCL      9093<<ASSIGN   9117<>CALL     9168<<ASSIGN
COPY_STEP_ABORT
      9168**LABEL    9125--REMEMBR
COP_MSG
      8855**DCL      9155--ASSIGN
DEF_ICB.FID.STRING
      5821**DCL      5822--REDEF
DEV_ICB.FID.STRING
      5707**DCL      5708--REDEF
EI_KEY.KEY
      5919**DCL      5919--REDEF    5919--REDEF    5919--REDEF
EO_OCB
      5373**DCL      9118<<ASSIGN   9183<<ASSIGN
EO_OCB.TYPE
      5419**DCL      5420--REDEF
ERR_FLG
      5186**DCL      9106>>IF
ERR_SAVE_REL
      5218**DCL      9169>>IF
F$DCB.ACTPOS
      8156**DCL      8156--REDEF
F$DCB.ARS
      8131**DCL      8131--REDEF
F$DCB.ATTR
      8149**DCL      8150--REDEF
F$DCB.BORROW
      8164**DCL      8164--REDEF    8164--REDEF    8164--REDEF
F$DCB.DCBNAME.L
      8178**DCL      8178--IMP-SIZ
F$DCB.DDEV.IC
      8137**DCL      9150>>IF       9150>>IF
F$DCB.EOMCHAR
      8135**DCL      8135--REDEF
F$DCB.FCD
      8144**DCL      9127>>IF       9173>>IF       9177>>IF       9180>>IF       9184>>IF
PL6.E3A0      #001=VPE$COPY File=VPE$COPY.:E05TSI                                WED 07/30/97 07:24 Page:32
F$DCB.FLDID
      8159**DCL      8159--REDEF
F$DCB.FORM$
      8153**DCL      8153--REDEF
F$DCB.FSECT
      8169**DCL      8169--REDEF
F$DCB.FSN
      8146**DCL      8146--REDEF    8146--REDEF    8147--REDEF
F$DCB.HEADER$
      8152**DCL      8152--REDEF
F$DCB.IXTNSIZE
      8150**DCL      8150--REDEF
F$DCB.LASTSTA$
      8140**DCL      8140--REDEF
F$DCB.LVL
      8165**DCL      8165--REDEF
F$DCB.NAME.C
      8140**DCL      8140--REDEF
F$DCB.NOEOF
      8161**DCL      8161--REDEF
F$DCB.NRECS
      8151**DCL      8151--REDEF
F$DCB.NRECX
      8170**DCL      8170--REDEF
F$DCB.OHDR
      8162**DCL      8162--REDEF
F$DCB.ORG
      8145**DCL      8145--REDEF
F$DCB.PRECNO
      8168**DCL      8168--REDEF
F$DCB.RCSZ
      8173**DCL      8173--REDEF
F$DCB.RES
      8141**DCL      8141--REDEF
F$DCB.SETX
      8153**DCL      8153--REDEF
PL6.E3A0      #001=VPE$COPY File=VPE$COPY.:E05TSI                                WED 07/30/97 07:24 Page:33
F$DCB.TAB$
      8152**DCL      8153--REDEF
F$DCB.TDA
      8167**DCL      8167--REDEF
F$DCB.WSN
      8142**DCL      8142--REDEF
FIRST_TIME
      9100**LABEL    9096--GOTO
FPARAM$
      5224**DCL      9138>>ASSIGN
FPT_CLOSE_EI.SN_
      6760**DCL      6760--REDEF
FPT_CLOSE_EI.UTL_
      6761**DCL      6761--REDEF
FPT_CLOSE_EI.V.EXPIRE#
      6775**DCL      6775--REDEF
FPT_CLOSE_EI.V.TYPE#
      6773**DCL      6773--REDEF
FPT_CLOSE_EI.V.XTNSIZE#
      6770**DCL      6770--REDEF    6772--REDEF
FPT_CLOSE_PTL.SN_
      6886**DCL      6886--REDEF
FPT_CLOSE_PTL.UTL_
      6887**DCL      6887--REDEF
FPT_CLOSE_PTL.V.EXPIRE#
      6901**DCL      6901--REDEF
FPT_CLOSE_PTL.V.TYPE#
      6899**DCL      6899--REDEF
FPT_CLOSE_PTL.V.XTNSIZE#
      6896**DCL      6896--REDEF    6898--REDEF
FPT_CLOSE_READ.SN_
      6802**DCL      6802--REDEF
FPT_CLOSE_READ.UTL_
      6803**DCL      6803--REDEF
FPT_CLOSE_READ.V.EXPIRE#
      6817**DCL      6817--REDEF
PL6.E3A0      #001=VPE$COPY File=VPE$COPY.:E05TSI                                WED 07/30/97 07:24 Page:34
FPT_CLOSE_READ.V.TYPE#
      6815**DCL      6815--REDEF
FPT_CLOSE_READ.V.XTNSIZE#
      6812**DCL      6812--REDEF    6814--REDEF
FPT_CLOSE_SI.SN_
      6970**DCL      6970--REDEF
FPT_CLOSE_SI.UTL_
      6971**DCL      6971--REDEF
FPT_CLOSE_SI.V.EXPIRE#
      6985**DCL      6985--REDEF
FPT_CLOSE_SI.V.TYPE#
      6983**DCL      6983--REDEF
FPT_CLOSE_SI.V.XTNSIZE#
      6980**DCL      6980--REDEF    6982--REDEF
FPT_CLOSE_STD.SN_
      6928**DCL      6928--REDEF
FPT_CLOSE_STD.UTL_
      6929**DCL      6929--REDEF
FPT_CLOSE_STD.V.EXPIRE#
      6943**DCL      6943--REDEF
FPT_CLOSE_STD.V.TYPE#
      6941**DCL      6941--REDEF
FPT_CLOSE_STD.V.XTNSIZE#
      6938**DCL      6938--REDEF    6940--REDEF
FPT_CLSEI_FT.SN_
      6844**DCL      6844--REDEF
FPT_CLSEI_FT.UTL_
      6845**DCL      6845--REDEF
FPT_CLSEI_FT.V.EXPIRE#
      6859**DCL      6859--REDEF
FPT_CLSEI_FT.V.TYPE#
      6857**DCL      6857--REDEF
FPT_CLSEI_FT.V.XTNSIZE#
      6854**DCL      6854--REDEF    6856--REDEF
FPT_OPEN_EI.ACSVEH_
      6415**DCL      6416--REDEF
PL6.E3A0      #001=VPE$COPY File=VPE$COPY.:E05TSI                                WED 07/30/97 07:24 Page:35
FPT_OPEN_EI.ALTKEYS_
      6421**DCL      6422--REDEF    6422--REDEF
FPT_OPEN_EI.HDR_
      6420**DCL      6421--REDEF
FPT_OPEN_EI.TAB_
      6419**DCL      6420--REDEF
FPT_OPEN_EI.UHL_
      6413**DCL      6414--REDEF    6414--REDEF
FPT_OPEN_EI.V.FSN#
      6453**DCL      6453--REDEF    6453--REDEF
FPT_OPEN_EI.WSN_
      6419**DCL      6419--REDEF
FPT_OPEN_EI_DEFAULT
      8810**DCL      9130<>CALL
FPT_OPEN_EI_DEFAULT.ACSVEH_
      8812**DCL      8813--REDEF
FPT_OPEN_EI_DEFAULT.ALTKEYS_
      8818**DCL      8819--REDEF    8819--REDEF
FPT_OPEN_EI_DEFAULT.HDR_
      8817**DCL      8818--REDEF
FPT_OPEN_EI_DEFAULT.TAB_
      8816**DCL      8817--REDEF
FPT_OPEN_EI_DEFAULT.UHL_
      8810**DCL      8811--REDEF    8811--REDEF
FPT_OPEN_EI_DEFAULT.V
      8819**DCL      8810--DCLINIT
FPT_OPEN_EI_DEFAULT.V.FSN#
      8850**DCL      8850--REDEF    8850--REDEF
FPT_OPEN_EI_DEFAULT.WSN_
      8816**DCL      8816--REDEF
FPT_OPEN_EI_SAVE.ACSVEH_
      6524**DCL      6525--REDEF
FPT_OPEN_EI_SAVE.ALTKEYS_
      6530**DCL      6531--REDEF    6531--REDEF
FPT_OPEN_EI_SAVE.HDR_
      6529**DCL      6530--REDEF
PL6.E3A0      #001=VPE$COPY File=VPE$COPY.:E05TSI                                WED 07/30/97 07:24 Page:36
FPT_OPEN_EI_SAVE.TAB_
      6528**DCL      6529--REDEF
FPT_OPEN_EI_SAVE.UHL_
      6522**DCL      6523--REDEF    6523--REDEF
FPT_OPEN_EI_SAVE.V.FSN#
      6562**DCL      6562--REDEF    6562--REDEF
FPT_OPEN_EI_SAVE.WSN_
      6528**DCL      6528--REDEF
FPT_OPEN_OUT.ACSVEH_
      6306**DCL      6307--REDEF
FPT_OPEN_OUT.ALTKEYS_
      6312**DCL      6313--REDEF    6313--REDEF
FPT_OPEN_OUT.HDR_
      6311**DCL      6312--REDEF
FPT_OPEN_OUT.TAB_
      6310**DCL      6311--REDEF
FPT_OPEN_OUT.UHL_
      6304**DCL      6305--REDEF    6305--REDEF
FPT_OPEN_OUT.V.FSN#
      6344**DCL      6344--REDEF    6344--REDEF
FPT_OPEN_OUT.WSN_
      6310**DCL      6310--REDEF
FPT_OPEN_OUT_SAVE.ACSVEH_
      6197**DCL      6198--REDEF
FPT_OPEN_OUT_SAVE.ALTKEYS_
      6203**DCL      6204--REDEF    6204--REDEF
FPT_OPEN_OUT_SAVE.HDR_
      6202**DCL      6203--REDEF
FPT_OPEN_OUT_SAVE.TAB_
      6201**DCL      6202--REDEF
FPT_OPEN_OUT_SAVE.UHL_
      6195**DCL      6196--REDEF    6196--REDEF
FPT_OPEN_OUT_SAVE.V.FSN#
      6235**DCL      6235--REDEF    6235--REDEF
FPT_OPEN_OUT_SAVE.WSN_
      6201**DCL      6201--REDEF
PL6.E3A0      #001=VPE$COPY File=VPE$COPY.:E05TSI                                WED 07/30/97 07:24 Page:37
FPT_READ_STD.STATION_
      6625**DCL      6626--REDEF
FPT_READ_STD.V.DVBYTE.REREAD#
      6637**DCL      6637--REDEF
FPT_READ_STD.V.INDX#
      6635**DCL      6635--REDEF
FPT_READ_UC.STATION_
      6586**DCL      6587--REDEF
FPT_READ_UC.V.DVBYTE.REREAD#
      6598**DCL      6598--REDEF
FPT_READ_UC.V.INDX#
      6596**DCL      6596--REDEF
FPT_WRITE_ME
      6692**DCL      9157<>CALL
FPT_WRITE_ME.BUF_
      6692**DCL      9155<<ASSIGN
FPT_WRITE_ME.STATION_
      6694**DCL      6694--REDEF
FPT_WRITE_ME.V.DVBYTE.VFC#
      6701**DCL      6701--REDEF    9156<<ASSIGN
FPT_WRITE_OUT.STATION_
      6725**DCL      6725--REDEF
FPT_WRITE_OUT.V.DVBYTE.VFC#
      6732**DCL      6732--REDEF
FPT_WRITE_UC.STATION_
      6663**DCL      6663--REDEF
FPT_WRITE_UC.V.DVBYTE.VFC#
      6670**DCL      6670--REDEF
FROM_SN.SN
      5569**DCL      5570--REDEF
GETCMD.OUT$
      4776**DCL      4782--REDEF
ICB.FID.STRING
      5593**DCL      5594--REDEF
ICB.FLAVOR.MANAGED
      5658**DCL      9136>>IF
PL6.E3A0      #001=VPE$COPY File=VPE$COPY.:E05TSI                                WED 07/30/97 07:24 Page:38
IDX
      8863**DCL      9082<<DOINDEX  9083>>ASSIGN
IFSFA_PARAM.EOMCHAR#
      5948**DCL      5949--REDEF
IFSFA_PARAM.SIG1
      5942**DCL      5942--REDEF
IFSFA_PARAM.SIG2
      5942**DCL      5943--REDEF
INPUT_ERR
      5108**DCL      9132<>CALL     9164<>CALL
IN_RES
      5515**DCL      5515--REDEF
IN_SN.SN
      5531**DCL      5532--REDEF
M$EI#
      5984**DCL      9132<>CALL
M$EI$
      5984**DCL      9127>>IF       9150>>IF       9173>>IF       9180>>IF
M$EO$
      5984**DCL      9150>>IF       9177>>IF       9184>>IF
M$WRITE
        34**DCL-ENT  9157--CALL
NEXT_FILE
      9166**LABEL    9176--GOTO     9179--GOTO
NRECS_IN_COPY_FILE
      5921**DCL      9135<<ASSIGN   9141<<ASSIGN
OCB
      5231**DCL      9118>>ASSIGN
OCB.ERR_SAVE
      5367**DCL      9169>>IF
OCB.TYPE
      5277**DCL      5278--REDEF
OFSFA_PARAM.EOMCHAR#
      5978**DCL      5979--REDEF
OFSFA_PARAM.SIG1
      5972**DCL      5972--REDEF
PL6.E3A0      #001=VPE$COPY File=VPE$COPY.:E05TSI                                WED 07/30/97 07:24 Page:39
OFSFA_PARAM.SIG2
      5972**DCL      5973--REDEF
OPEN_NEXT_RET_VAL
      8859**DCL      9094<<ASSIGN   9098>>DOWHILE  9102<>CALL     9166<>CALL
OUT$BLK.CODE
      8711**DCL      9084>>DOCASE
OUT$BLK.NSUBLKS
      8715**DCL      9082>>DOINDEX
OUT$BLK.SUBLK$
      8736**DCL      9083>>ASSIGN   9090<>CALL
OUTSPEC$
      8862**DCL      9081<<ASSIGN   9088<<ASSIGN   9148<>CALL
OUT_SN.SN
      5549**DCL      5550--REDEF
PCB.OUT$
      4590**DCL      9082>>DOINDEX  9083>>ASSIGN
PTR$
      8860**DCL      9083<<ASSIGN   9084>>DOCASE   9086>>ASSIGN   9088>>ASSIGN   9090>>CALL
RET_VAL
      8858**DCL      9095<>CALL     9099<>CALL     9100>>DOCASE
SOURCELIST$
      8861**DCL      9080<<ASSIGN   9086<<ASSIGN   9095<>CALL
SPEC_BUF
      5227**DCL      5227--REDEF
STARTED
      8857**DCL      9079<<ASSIGN   9104>>IF       9144>>IF       9159<<ASSIGN
VPC$SETOUT
      8877**DCL-ENT  9148--CALL
VPD$CLOSE_OUT
      8892**DCL-ENT  9117--CALL     9186--CALL
VPD$MINIMIZE_BUF
      8904**DCL-ENT  9119--CALL     9187--CALL
VPE$READ_WRITE
      8965**DCL-ENT  9161--CALL
VPF$CALL_OPEN
      8972**DCL-ENT  9130--CALL
PL6.E3A0      #001=VPE$COPY File=VPE$COPY.:E05TSI                                WED 07/30/97 07:24 Page:40
VPF$CLOSE_IN
      8975**DCL-ENT  9162--CALL     9175--CALL     9182--CALL
VPF$GET_NEXT_SPEC
      8978**DCL-ENT  9095--CALL     9099--CALL
VPF$OPEN_NEXT
      8981**DCL-ENT  9102--CALL     9166--CALL
VPF$SET_FROM_INFO
      8987**DCL-ENT  9090--CALL
VPG$SET_UP_WRITE
      8990**DCL-ENT  9149--CALL
VPL$ERR_PROC
      9049**DCL-ENT  9108--CALL     9132--CALL     9164--CALL
VPL$ERR_SEV_HANDLER
      9050**DCL-ENT  9123--CALL
XSF$LOCCODP
      9075**DCL-ENT  9139--CALL

PL6.E3A0      #002=VPE$COPYALL File=VPE$COPY.:E05TSI                             WED 07/30/97 07:26 Page:41
      157        1        /*T***********************************************************/
      158        2        /*T*                                                         */
      159        3        /*T* Copyright (c) Bull HN Information Systems Inc., 1997    */
      160        4        /*T*                                                         */
      161        5        /*T***********************************************************/
      162        6        VPE$COPYALL: PROC;
      163        7        /*D* NAME: VPE$COPYALL
      164        8             CALL: CALL VPE$COPYALL;
      165        9             DESCRIPTION: This procedure drives the COPYALL and COPYSTD commands.
      166       10        */
      167       11        %INCLUDE VP_DATA_R;
      168     6998        %INCLUDE F$DCB;
      169     7047        %B$TCB;
      170     7050        %B$ALT;
      171     7058        %INCLUDE B_ERRORS_C;
      172     8185        %INCLUDE NK_VFC_C;
      173     8259        %INCLUDE FM$FIT;
      174     8480        %CODE03;
      175     8487        %PARSE$OUT(NAME = OUT$BLK,STCLASS = BASED);
      176     8532    1   DCL 1 TEXT$C BASED,
      177     8533    1         2 LEN UBIN BYTE UNAL,
      178     8534    1         2 STRING CHAR(TEXT$C.LEN);
      179     8535    1   DCL X_CHAR CHAR(1);
      180     8536    1   DCL ABORT_AT_END CHAR(0) CONSTANT INIT(%CONCAT(VFC_TRANSITION1,
              8536            'C to continue at end'));
      181     8537    1   DCL ABORT_NOW CHAR(0) CONSTANT INIT(%CONCAT(VFC_TRANSITION1,'C to continue'));
      182     8538        %FPT_OPEN(FPTN = FPT_OPEN_EI_DEFAULT,
      183     8539                  TEST = NO,
      184     8540                  DCB = M$EI,
      185     8541                  STCLASS = CONSTANT);
      186     8650        %FPT_CORRES(FPTN = FPT_CORRES,
      187     8651                    DCB1 = M$ME,
      188     8652                    DCB2 = M$EO1);
      189     8666        %FPT_PFIL(FPTN=FPT_PFIL_EI,
      190     8667                  DCB=M$EI);
      191     8682        %FPT_CLOSE(FPTN = FPT_CLOSE_EO1_REL,
      192     8683                   DCB  = M$EO1,
PL6.E3A0      #002=VPE$COPYALL File=VPE$COPY.:E05TSI                             WED 07/30/97 07:26 Page:42
      193     8684                   DISP = SCRATCH,
      194     8685                   STCLASS = CONSTANT);
      195     8727    1   DCL CODE03$ PTR;
      196     8728    1   DCL CRLF_VFC CHAR(1) CONSTANT INIT('a');
      197     8729    1   DCL STEP_ABORT_FLAG SBIN WORD;
      198     8730    1   DCL NEXT_SPEC_RET_VAL SBIN WORD;
      199     8731    1   DCL OPEN_NEXT_RET_VAL SBIN WORD;
      200     8732    1   DCL PTR$ PTR;
      201     8733    1   DCL SOURCELIST$ PTR;
      202     8734    1   DCL OUTSPEC$ PTR;
      203     8735    1   DCL IDX SBIN WORD;
      204     8736        /**/
      205     8737        /*  ENTRY DCLS  */
      206     8738        /**/
      207     8739    1   DCL X$PARSE ENTRY(1) ALTRET;
      208     8740        %VP_ENTRIES (OMIT=VPE$COPYALL);
      209     8948    1   DCL XSF$LOCCODP ENTRY (2) ALTRET;
      210     8949        %INCLUDE XUG_ENTRY;
      211     8980        /**/
      212     8981    1   VPE$COPYSTD: ENTRY;
      213     8982    1           REMEMBER COPYALL_STEP_ABORT IN ABORT_STEP;
      214     8983    1           REMEMBER ABORT_COPYALL IN ABORT_CMD;
      215     8984    1           REMEMBER ABORT_COPYALL IN BREAK_LOC;
      216     8985    1           STEP_ABORT_FLAG = 0;
      217     8986    1           SOURCELIST$ = ADDR(NIL);
      218     8987    1           OUTSPEC$ = ADDR(NIL);
      219     8988    2           DO IDX=0 TO PCB.OUT$->OUT$BLK.NSUBLKS-1;
      220     8989    2              PTR$ = PCB.OUT$->OUT$BLK.SUBLK$(IDX);
      221     8990    3              DO CASE(PTR$->OUT$BLK.CODE);
      222     8991    3               CASE(1);                    /* SOURCELIST                         */
      223     8992    3                 SOURCELIST$ = PTR$;
      224     8993    3               CASE(2);                    /* OUTSPEC                            */
      225     8994    3                 OUTSPEC$ = PTR$;
      226     8995    3               CASE(3);                    /* FROM 'FID'                         */
      227     8996    3                 CALL VPF$SET_FROM_INFO(PTR$->OUT$BLK.SUBLK$(0));
      228     8997    3               CASE(4);                    /* COPYSTD 'FID'                      */
      229     8998    3                 CALL VPD$INIT_STD_FILE(PTR$);
PL6.E3A0      #002=VPE$COPYALL File=VPE$COPY.:E05TSI                             WED 07/30/97 07:26 Page:43
      230     8999    3               END;                        /* END CASE                           */
      231     9000    2              END;
      232     9001    1           IF CMD_MASK(3)                  /* IF COPYSTD                         */
      233     9002    1            THEN
      234     9003    2            DO;                            /* Set up parse of STD's SOURCELIST   */
      235     9004    2   COPYSTD_L:                              /* Get a SOURCELIST from STD file     */
      236     9005    2               CALL M$READ(FPT_READ_STD) ALTRET(STD_READ_ALT);
      237     9006    2               PCB.NCHARS = M$STD1$->F$DCB.ARS;
      238     9007    2               CALL X$PARSE(PCB) ALTRET(STD_PARSE_ALT);
      239     9008    2               SOURCELIST$ = PCB.OUT$;
      240     9009    2               END;
      241     9010    1           CALL VPF$GET_NEXT_SPEC(NEXT_SPEC_RET_VAL,SOURCELIST$);
      242     9011    2           DO WHILE(NEXT_SPEC_RET_VAL = 0); /* DO WHILE INPUT SPECs remain       */
      243     9012    2              REMEMBER COPYALL_STEP_ABORT IN ABORT_STEP;
      244     9013    2              IF NEXT_SPEC_RET_VAL=0
      245     9014    2               THEN                        /* All fine, source spec. processed   */
      246     9015    3               DO;
      247     9016    3                  CALL VPF$OPEN_NEXT(OPEN_NEXT_RET_VAL,4); /* OPEN first input   */
      248     9017                                                /* file in new INPUT SPEC             */
      249     9018    4                  DO WHILE(OPEN_NEXT_RET_VAL=%VPOC_GOTFILE#);
      250     9019                                                /* A file is now OPEN or TOPEN        */
      251     9020    4                     NRECS_IN_COPY_FILE = -1;
      252     9021    4                     IF ICB.FLAVOR.MANAGED
      253     9022    5                      THEN DO;
      254     9023    5                         CODE03$ = FPARAM$;
      255     9024    5                         CALL XSF$LOCCODP (CODE03$, 3)
      256     9025    6                          WHENRETURN DO;
      257     9026    6                             NRECS_IN_COPY_FILE = CODE03$ -> CODE03.NRECS;
      258     9027    6                             END;
      259     9028    5                         END;
      260     9029    4                     IF NOT M$EI$ -> F$DCB.FCD
      261     9030    4                      THEN                 /* File is TOPEN                      */
      262     9031    4                        CALL VPF$CALL_OPEN (FPT_OPEN_EI_DEFAULT) /* Really OPEN  */
      263     9032    5                         WHENALTRETURN DO;
              9032                                  /* Whoops - file is probably busy or something */
      264     9033    5                            CALL VPL$ERR_PROC(0,0,,INPUT_ERR,,,M$EI#);
              9033                                     /* Tell the user */
PL6.E3A0      #002=VPE$COPYALL File=VPE$COPY.:E05TSI                             WED 07/30/97 07:26 Page:44
      265     9034    5                            GOTO COPYALL_STEP_ABORT; /* and continue             */
      266     9035    5                            END;
      267     9036    4                     CALL VPC$SETOUT(OUTSPEC$); /* Prepare & open output file    */
      268     9037    4                     IF THIS_STD_FILE
      269     9038    4                       AND OCB.FLAVOR.JE
      270     9039    5                      THEN DO;             /* DON'T COPY STD FILE TO JE          */
      271     9040    5                         CALL VPF$CLOSE_IN(1);
      272     9041    5                         CALL VPC$CALL_CLOSE(FPT_CLOSE_EO1_REL); /* Scratch the  */
      273     9042                                                /* STD file copied to JE              */
      274     9043    5                         END;
      275     9044    5                      ELSE DO;
      276     9045    5                         CALL VPG$SET_UP_WRITE;
      277     9046    5                         CALL VPE$READ_WRITE
      278     9047    6                          WHENALTRETURN DO;
      279     9048    6                             OPEN_NEXT_RET_VAL = 1; /* Force loop exit           */
      280     9049    6                             END;
      281     9050    5                         IF M$EI$->F$DCB.FCD
      282     9051    5                          THEN
      283     9052    5                            CALL VPF$CLOSE_IN(1) ALTRET(COPYALL_STEP_ABORT);
      284     9053    5                         CALL VPD$CLOSE_OUT(0); /* Close with save               */
      285     9054    5                         CALL M$CORRES(FPT_CORRES) ALTRET(COPIED_OK);
      286     9055    5                         IF OCB.FLAVOR.MANAGED
      287     9056    5                          THEN
      288     9057    5                            CALL VPD$OUT_NAMES(DIN_NAME,M$EO1$->F$DCB.NAME);
      289     9058                                      /* Put out both filenames...if the name changed */
      290     9059    5                          ELSE
      291     9060    5                            CALL VPD$OUT_NAMES(DIN_NAME,0);
      292     9061                                      /* Don't put out the second filename unless to  */
      293     9062                                                /* managed place                      */
      294     9063    5                         END;
      295     9064    4   COPIED_OK:        ;
      296     9065    4                     CALL VPD$COUNTER_BUMP(0);
      297     9066    4   NEXT_FILE:
      298     9067    4                     IF M$EI$->F$DCB.FCD
      299     9068    4                      THEN
      300     9069    4                        CALL VPF$CLOSE_IN(1) ALTRET(COPYALL_STEP_ABORT);
      301     9070    4                     THIS_STD_FILE = '0'B; /* No longer working on STD file      */
PL6.E3A0      #002=VPE$COPYALL File=VPE$COPY.:E05TSI                             WED 07/30/97 07:26 Page:45
      302     9071    4                     IF OLD_BREAKS>0 OR BREAKS>0
      303     9072    4                      THEN
      304     9073    5                      DO;
      305     9074    5                         BREAK_MESSAGE_REPORTER = ENTADDR(VPE$BREAK_IN_COPYALL);
      306     9075    5                         REMEMBER ABORT_COPYALL IN BREAK_LOC;
      307     9076    5                         CALL XUG$SIMULATE_BREAK (GETCMD);
      308     9077    5                         BREAKS = 0;
      309     9078    5                         OLD_BREAKS = 0;
      310     9079    5                         END;
      311     9080    4                     IF OPEN_NEXT_RET_VAL ~= 1
      312     9081    4                      THEN
      313     9082    4                        CALL VPF$OPEN_NEXT(OPEN_NEXT_RET_VAL,5); /* OPEN next input */
      314     9083                                                /* file in INPUT SPEC                 */
      315     9084    4                     END;
      316     9085    3                  END;
      317     9086    2              CALL VPF$GET_NEXT_SPEC(NEXT_SPEC_RET_VAL);
      318     9087    2              END;                         /* End WHILE files remain             */
      319     9088    1           IF CMD_MASK(3)                  /* IF COPYSTD                         */
      320     9089    1            THEN
      321     9090    1              GOTO COPYSTD_L;              /* Get next SOURCELIST from STD file  */
      322     9091    1   ABORT_COPYALL:
      323     9092    1           CALL VPD$FINISH_NLIST;          /* Finish dangling name list          */
      324     9093    1           CALL VPD$MINIMIZE_BUF;
      325     9094    1           IF M$EI$->F$DCB.FCD
      326     9095    1            THEN
      327     9096    2            DO;
      328     9097    2               IF ~M$EI$->F$DCB.TYC.EOD(1) AND ICB.FLAVOR.FFTAPE
      329     9098    2                THEN
      330     9099    2                  CALL M$PFIL(FPT_PFIL_EI) ALTRET(CHK_EO1);
      331     9100    2               CALL VPF$CLOSE_IN(1) ALTRET(CHK_EO1);
      332     9101    2               END;
      333     9102    1   CHK_EO1:IF M$EO1$->F$DCB.FCD
      334     9103    1            THEN
      335     9104    1              CALL VPD$CLOSE_OUT(1);       /* Close with error                   */
      336     9105    1           IF STEP_ABORT_FLAG=1
      337     9106    1            THEN
      338     9107    2            DO;
PL6.E3A0      #002=VPE$COPYALL File=VPE$COPY.:E05TSI                             WED 07/30/97 07:26 Page:46
      339     9108    2               STEP_ABORT_FLAG = 0;
      340     9109    2               GOTO NEXT_FILE;
      341     9110    2               END;
      342     9111    1           IF M$STD1$->F$DCB.FCD
      343     9112    1            THEN
      344     9113    1              CALL M$CLOSE(FPT_CLOSE_STD) ALTRET(ABORT_RET);
      345     9114    1   ABORT_RET: ;
      346     9115    1           CALL VPD$COUNTER_PRINT(0);
      347     9116    1           IF TOT_FILES(0) = 0 THEN
      348     9117    1              CALL VPL$ERR_NO_PRINT(1,0,0,0);
      349     9118    1           RETURN;
      350     9119    1   COPYALL_STEP_ABORT:
      351     9120    1           STEP_ABORT_FLAG = 1;
      352     9121    1           GOTO ABORT_COPYALL;
      353     9122    1   STD_READ_ALT:
      354     9123    1           IF B$TCB$->B$TCB.ALT$->B$ALT.ERR.CODE=%E$EOF
      355     9124    1            THEN
      356     9125    1              GOTO ABORT_COPYALL;
      357     9126    1            ELSE
      358     9127    1              CALL VPL$ERR_PROC(3,0);
      359     9128    1   STD_PARSE_ALT:
      360     9129    1           CALL VPL$ERR_PROC(0,0,,PCB.ERROR);
      361     9130    1           CALL VPL$ERR_PROC(3,50,'05'O);
      362     9131        /*E*   ERROR: VPE-00050
      363     9132             MESSAGE: in COPY's STD file.  COPY aborts.
      364     9133            MESSAGE1: A record in the STD file has a bad source or option.
      365     9134        */
      366     9135        %EJECT;
PL6.E3A0      #002=VPE$COPYALL File=VPE$COPY.:E05TSI                             WED 07/30/97 07:26 Page:47
      367     9136    1   VPE$BREAK_IN_COPYALL: ENTRY;
      368     9137
      369     9138        /*D*  ENTRY: VPE$BREAK_IN_COPYALL
      370     9139              DESCRIPTION: This entry serves to print the appropriate break
      371     9140                    message during the COPYALL and COPYSTD commands.
      372     9141        */
      373     9142
      374     9143    1           OUT_COL = 0;
      375     9144    1           IF OLD_BREAKS>0
      376     9145    1            THEN
      377     9146    1              FPT_WRITE_UC.BUF_ = VECTOR(ABORT_AT_END);
      378     9147    1            ELSE
      379     9148    1              FPT_WRITE_UC.BUF_ = VECTOR(ABORT_NOW);
      380     9149    1           FPT_WRITE_UC.V.DVBYTE.VFC# = %YES#;
      381     9150    1           CALL M$WRITE(FPT_WRITE_UC);
      382     9151    1           FPT_WRITE_UC.V.DVBYTE.VFC# = %NO#;
      383     9152    1           RETURN;
      384     9153
      385     9154    1   END VPE$COPYALL;
      386     9155        %EOD;

PL6.E3A0      #002=VPE$COPYALL File=VPE$COPY.:E05TSI                             WED 07/30/97 07:26 Page:48
--  Include file information  --

   XUG_ENTRY.:E05TOU  cannot be made into a system file and is referenced.
   FM$FIT.:E05TOU  is referenced.
   NK_VFC_C.:E05TOU  is referenced.
   B_ERRORS_C.:E05TOU  is referenced.
   F$DCB.:E05TOU  cannot be made into a system file and is referenced.
   B_MICROPS_C.:E05TOU  is referenced.
   XU_MACRO_C.:E05TOU  is referenced.
   VP_MACRO_C.:E05TOU  is referenced.
   XS_MACRO_C.:E05TOU  is referenced.
   VP_PERR_C.:E05TOU  is referenced.
   CP_6_SUBS.:E05TOU  is referenced.
   CP_6.:E05TOU  cannot be made into a system file and is referenced.
   VP_DATA_R.:E05TOU  cannot be made into a system file and is referenced.
   B$JIT_C.:E05TOU  was found in the system file and is never referenced.
   CP_6_C.:E05TOU  was found in the system file and is referenced.
      No diagnostics issued in procedure VPE$COPYALL.

   Procedure VPE$COPYALL requires 356 words for executable code.
   Procedure VPE$COPYALL requires 20 words of local(AUTO) storage.

PL6.E3A0      #002=VPE$COPYALL File=VPE$COPY.:E05TSI                             WED 07/30/97 07:26 Page:49

 Object Unit name= VPE$COPYALL                                File name= VPE$COPY.:E05TOU
 UTS= JUL 30 '97 07:26:08.40 WED                              Compiler= PL-6/E31         Sev=      00
 SharedLib= :SHARED_SYSTEM                                    Alt SharedLib=


    ****  Control sections  ****

 Sect   Type Bound  Init  Size OctSiz  Section name(segment info)
    0   DCB   even  none     0      0  M$UC
    1   DCB   even  none     0      0  M$EI
    2   DCB   even  none     0      0  M$EO
    3   DCB   even  none     0      0  M$EO1
    4   DCB   even  none     0      0  M$ME
    5   DCB   even  none     0      0  M$SI
    6   DCB   even  none     0      0  M$READFILE
    7   DCB   even  none     0      0  M$DO
    8   DCB   even  none     0      0  M$STD1
    9   DCB   even  none     0      0  M$SORT1
   10  RoData even  UTS     99    143  VPE$COPYALL
   11   Data  even  none     8     10  VPE$COPYALL
   12   Proc  even  none   356    544  VPE$COPYALL
   13  RoData even  none    33     41  VPE$COPYALL

    ****  Entry defs  ****

                              Check   Calling
                             calling  sequence
  Sect OctLoc Primary Altret sequence   type   Parms  Name
    12      0   yes            yes      Std        0  VPE$COPYALL
    12      3                  yes      Std        0  VPE$COPYSTD
    12    522                  yes      Std        0  VPE$BREAK_IN_COPYALL
PL6.E3A0      #002=VPE$COPYALL File=VPE$COPY.:E05TSI                             WED 07/30/97 07:26 Page:50

  ****  Entry refs  ****

         Check        Calling
        calling       sequence
Altret sequence SRef   type   Args  Name
         yes           Std       1 VPF$SET_FROM_INFO
         yes           Std       1 VPD$INIT_STD_FILE
         yes           Std       3 VPF$OPEN_NEXT
         yes           Std       8 VPL$ERR_PROC
         yes           Std       1 XUG$SIMULATE_BREAK
         yes           Std       1 VPD$CLOSE_OUT
         yes           Std       1 VPD$COUNTER_BUMP
 yes     yes           Std       2 XSF$LOCCODP
 yes     yes           Std       1 VPF$CALL_OPEN
         yes           Std       1 VPC$SETOUT
 yes     yes           Std       0 VPE$READ_WRITE
         yes           Std       2 VPD$OUT_NAMES
 yes     yes           Std       1 VPF$CLOSE_IN
         yes           Std       8 VPL$ERR_NO_PRINT
 yes     yes           Std       1 VPC$CALL_CLOSE
         yes           Std       0 VPG$SET_UP_WRITE
         yes           Std       2 VPD$FINISH_NLIST
         yes           Std       0 VPD$MINIMIZE_BUF
         yes           Std       2 VPF$GET_NEXT_SPEC
         yes           Std       1 VPD$COUNTER_PRINT
 yes     yes           Std       1 X$PARSE
         yes           Std       0 VPE$BREAK_IN_COPYALL
                       nStd      0 X66_AUTO_0
                       Std       0 B_CONSPOOL_D
                       nStd      0 X66_ARET
PL6.E3A0      #002=VPE$COPYALL File=VPE$COPY.:E05TSI                             WED 07/30/97 07:26 Page:51

  ****  Data refs  ****

  Flags:  r = read only, s = secondary
Flgs Name                             Flgs Name                             Flgs Name
     M$UC                                  PCB                                   GETCMD
     INPUT_ERR                             ABORT_STEP                            ABORT_CMD
     THIS_STD_FILE                         OUT_COL                               BREAK_LOC
     BREAKS                                OLD_BREAKS                            BREAK_MESSAGE_REPORTER
     FPARAM$                               CMD_MASK                              TOT_FILES
     SPEC_BUF                              OCB                                   DIN_NAME
     IN_RES                                ICB                                   NRECS_IN_COPY_FILE
     M$EI                                  M$EI$                                 M$EI#
     M$EO                                  M$EO1                                 M$EO1$
     M$ME                                  M$SI                                  M$READFILE
     M$DO                                  M$STD1                                M$STD1$
     M$SORT1                               B$TCB$                           r    FPT_READ_STD
     FPT_WRITE_UC                     r    FPT_CLOSE_STD                         B_VECTNIL

  ****  Segment refs  ****

  Flags:  r = read only, s = secondary
Flgs Name                             Flgs Name                             Flgs Name
     ISSID                                 NULLSID
PL6.E3A0      #002=VPE$COPYALL File=VPE$COPY.:E05TSI                             WED 07/30/97 07:26 Page:52


      157        1        /*T***********************************************************/
      158        2        /*T*                                                         */
      159        3        /*T* Copyright (c) Bull HN Information Systems Inc., 1997    */
      160        4        /*T*                                                         */
      161        5        /*T***********************************************************/
      162        6        VPE$COPYALL: PROC;

      6 12 000000   000000 700200 xent  VPE$COPYALL  TSX0  ! X66_AUTO_0
        12 000001   000024 000000                    ZERO    20,0
        12 000002   000005 710000 12                 TRA     s:8982

      163        7        /*D* NAME: VPE$COPYALL
      164        8             CALL: CALL VPE$COPYALL;
      165        9             DESCRIPTION: This procedure drives the COPYALL and COPYSTD commands.
      166       10        */
      167       11        %INCLUDE VP_DATA_R;
      168     6998        %INCLUDE F$DCB;
      169     7047        %B$TCB;
      170     7050        %B$ALT;
      171     7058        %INCLUDE B_ERRORS_C;
      172     8185        %INCLUDE NK_VFC_C;
      173     8259        %INCLUDE FM$FIT;
      174     8480        %CODE03;
      175     8487        %PARSE$OUT(NAME = OUT$BLK,STCLASS = BASED);
      176     8532    1   DCL 1 TEXT$C BASED,
      177     8533    1         2 LEN UBIN BYTE UNAL,
      178     8534    1         2 STRING CHAR(TEXT$C.LEN);
      179     8535    1   DCL X_CHAR CHAR(1);
      180     8536    1   DCL ABORT_AT_END CHAR(0) CONSTANT INIT(%CONCAT(VFC_TRANSITION1,
              8536            'C to continue at end'));
      181     8537    1   DCL ABORT_NOW CHAR(0) CONSTANT INIT(%CONCAT(VFC_TRANSITION1,'C to continue'));
      182     8538        %FPT_OPEN(FPTN = FPT_OPEN_EI_DEFAULT,
      183     8539                  TEST = NO,
      184     8540                  DCB = M$EI,
      185     8541                  STCLASS = CONSTANT);
      186     8650        %FPT_CORRES(FPTN = FPT_CORRES,
PL6.E3A0      #002=VPE$COPYALL File=VPE$COPY.:E05TSI                             WED 07/30/97 07:26 Page:53
      187     8651                    DCB1 = M$ME,
      188     8652                    DCB2 = M$EO1);
      189     8666        %FPT_PFIL(FPTN=FPT_PFIL_EI,
      190     8667                  DCB=M$EI);
      191     8682        %FPT_CLOSE(FPTN = FPT_CLOSE_EO1_REL,
      192     8683                   DCB  = M$EO1,
      193     8684                   DISP = SCRATCH,
      194     8685                   STCLASS = CONSTANT);
      195     8727    1   DCL CODE03$ PTR;
      196     8728    1   DCL CRLF_VFC CHAR(1) CONSTANT INIT('a');
      197     8729    1   DCL STEP_ABORT_FLAG SBIN WORD;
      198     8730    1   DCL NEXT_SPEC_RET_VAL SBIN WORD;
      199     8731    1   DCL OPEN_NEXT_RET_VAL SBIN WORD;
      200     8732    1   DCL PTR$ PTR;
      201     8733    1   DCL SOURCELIST$ PTR;
      202     8734    1   DCL OUTSPEC$ PTR;
      203     8735    1   DCL IDX SBIN WORD;
      204     8736        /**/
      205     8737        /*  ENTRY DCLS  */
      206     8738        /**/
      207     8739    1   DCL X$PARSE ENTRY(1) ALTRET;
      208     8740        %VP_ENTRIES (OMIT=VPE$COPYALL);
      209     8948    1   DCL XSF$LOCCODP ENTRY (2) ALTRET;
      210     8949        %INCLUDE XUG_ENTRY;
      211     8980        /**/
      212     8981    1   VPE$COPYSTD: ENTRY;

   8981 12 000003   000000 700200 xent  VPE$COPYSTD  TSX0  ! X66_AUTO_0
        12 000004   000024 000000                    ZERO    20,0

      213     8982    1           REMEMBER COPYALL_STEP_ABORT IN ABORT_STEP;

   8982 12 000005   000467 635000 12                 EAA     COPYALL_STEP_ABORT
        12 000006   000000 452400 xsym               STP2    ABORT_STEP
        12 000007   000001 755000 xsym               STA     ABORT_STEP+1

      214     8983    1           REMEMBER ABORT_COPYALL IN ABORT_CMD;
PL6.E3A0      #002=VPE$COPYALL File=VPE$COPY.:E05TSI                             WED 07/30/97 07:26 Page:54

   8983 12 000010   000375 635000 12                 EAA     ABORT_COPYALL
        12 000011   000000 452400 xsym               STP2    ABORT_CMD
        12 000012   000001 755000 xsym               STA     ABORT_CMD+1

      215     8984    1           REMEMBER ABORT_COPYALL IN BREAK_LOC;

   8984 12 000013   000375 635000 12                 EAA     ABORT_COPYALL
        12 000014   000000 452400 xsym               STP2    BREAK_LOC
        12 000015   000001 755000 xsym               STA     BREAK_LOC+1

      216     8985    1           STEP_ABORT_FLAG = 0;

   8985 12 000016   200005 450100                    STZ     STEP_ABORT_FLAG,,AUTO

      217     8986    1           SOURCELIST$ = ADDR(NIL);

   8986 12 000017   000001 236000 xsym               LDQ     B_VECTNIL+1
        12 000020   200011 756100                    STQ     SOURCELIST$,,AUTO

      218     8987    1           OUTSPEC$ = ADDR(NIL);

   8987 12 000021   200012 756100                    STQ     OUTSPEC$,,AUTO

      219     8988    2           DO IDX=0 TO PCB.OUT$->OUT$BLK.NSUBLKS-1;

   8988 12 000022   200013 450100                    STZ     IDX,,AUTO
        12 000023   000064 710000 12                 TRA     s:9000+1

      220     8989    2              PTR$ = PCB.OUT$->OUT$BLK.SUBLK$(IDX);

   8989 12 000024   000003 470400 xsym               LDP0    PCB+3
        12 000025   200013 720100                    LXL0    IDX,,AUTO
        12 000026   000003 236110                    LDQ     3,X0,PR0
        12 000027   200010 756100                    STQ     PTR$,,AUTO

      221     8990    3              DO CASE(PTR$->OUT$BLK.CODE);
PL6.E3A0      #002=VPE$COPYALL File=VPE$COPY.:E05TSI                             WED 07/30/97 07:26 Page:55

   8990 12 000030   200010 471500                    LDP1    PTR$,,AUTO
        12 000031   100000 721100                    LXL1    0,,PR1
        12 000032   000005 101003                    CMPX1   5,DU
        12 000033   000035 602011 12                 TNC     s:8990+5,X1
        12 000034   000063 710000 12                 TRA     s:9000
        12 000035   000063 710000 12                 TRA     s:9000
        12 000036   000042 710000 12                 TRA     s:8992
        12 000037   000044 710000 12                 TRA     s:8994
        12 000040   000046 710000 12                 TRA     s:8996
        12 000041   000055 710000 12                 TRA     s:8998

      222     8991    3               CASE(1);                    /* SOURCELIST                         */

      223     8992    3                 SOURCELIST$ = PTR$;

   8992 12 000042   200011 756100                    STQ     SOURCELIST$,,AUTO
        12 000043   000063 710000 12                 TRA     s:9000

      224     8993    3               CASE(2);                    /* OUTSPEC                            */

      225     8994    3                 OUTSPEC$ = PTR$;

   8994 12 000044   200012 756100                    STQ     OUTSPEC$,,AUTO
        12 000045   000063 710000 12                 TRA     s:9000

      226     8995    3               CASE(3);                    /* FROM 'FID'                         */

      227     8996    3                 CALL VPF$SET_FROM_INFO(PTR$->OUT$BLK.SUBLK$(0));

   8996 12 000046   000003 036003                    ADLQ    3,DU
        12 000047   200014 756100                    STQ     IDX+1,,AUTO
        12 000050   200014 630500                    EPPR0   IDX+1,,AUTO
        12 000051   000017 631400 xsym               EPPR1   B_VECTNIL+15
        12 000052   000000 701000 xent               TSX1    VPF$SET_FROM_INFO
        12 000053   000000 011000                    NOP     0
        12 000054   000063 710000 12                 TRA     s:9000
PL6.E3A0      #002=VPE$COPYALL File=VPE$COPY.:E05TSI                             WED 07/30/97 07:26 Page:56

      228     8997    3               CASE(4);                    /* COPYSTD 'FID'                      */

      229     8998    3                 CALL VPD$INIT_STD_FILE(PTR$);

   8998 12 000055   200010 633500                    EPPR3   PTR$,,AUTO
        12 000056   200014 453500                    STP3    IDX+1,,AUTO
        12 000057   200014 630500                    EPPR0   IDX+1,,AUTO
        12 000060   000017 631400 xsym               EPPR1   B_VECTNIL+15
        12 000061   000000 701000 xent               TSX1    VPD$INIT_STD_FILE
        12 000062   000000 011000                    NOP     0

      230     8999    3               END;                        /* END CASE                           */

      231     9000    2              END;

   9000 12 000063   200013 054100                    AOS     IDX,,AUTO
        12 000064   000003 470400 xsym               LDP0    PCB+3
        12 000065   000001 236100                    LDQ     1,,PR0
        12 000066   000022 772000                    QRL     18
        12 000067   200013 116100                    CMPQ    IDX,,AUTO
        12 000070   000024 605400 12                 TPNZ    s:8989

      232     9001    1           IF CMD_MASK(3)                  /* IF COPYSTD                         */

   9001 12 000071   000000 236000 xsym               LDQ     CMD_MASK
        12 000072   040000 316003                    CANQ    16384,DU
        12 000073   000111 600000 12                 TZE     s:9010

      233     9002    1            THEN
      234     9003    2            DO;                            /* Set up parse of STD's SOURCELIST   */

      235     9004    2   COPYSTD_L:                              /* Get a SOURCELIST from STD file     */
      236     9005    2               CALL M$READ(FPT_READ_STD) ALTRET(STD_READ_ALT);

   9005 12 000074   000000 630400 xsym  COPYSTD_L    EPPR0   FPT_READ_STD
        12 000075   440000 713400                    CLIMB   alt,read
PL6.E3A0      #002=VPE$COPYALL File=VPE$COPY.:E05TSI                             WED 07/30/97 07:26 Page:57
        12 000076   401400 401760                    pmme    nvectors=4
        12 000077   000472 702000 12                 TSX2    STD_READ_ALT

      237     9006    2               PCB.NCHARS = M$STD1$->F$DCB.ARS;

   9006 12 000100   000000 470400 xsym               LDP0    M$STD1$
        12 000101   000000 235100                    LDA     0,,PR0
        12 000102   000011 755000 xsym               STA     PCB+9

      238     9007    2               CALL X$PARSE(PCB) ALTRET(STD_PARSE_ALT);

   9007 12 000103   000000 630400 13                 EPPR0   0
        12 000104   000017 631400 xsym               EPPR1   B_VECTNIL+15
        12 000105   000000 701000 xent               TSX1    X$PARSE
        12 000106   000504 702000 12                 TSX2    STD_PARSE_ALT

      239     9008    2               SOURCELIST$ = PCB.OUT$;

   9008 12 000107   000003 236000 xsym               LDQ     PCB+3
        12 000110   200011 756100                    STQ     SOURCELIST$,,AUTO

      240     9009    2               END;

      241     9010    1           CALL VPF$GET_NEXT_SPEC(NEXT_SPEC_RET_VAL,SOURCELIST$);

   9010 12 000111   200011 630500                    EPPR0   SOURCELIST$,,AUTO
        12 000112   200015 450500                    STP0    IDX+2,,AUTO
        12 000113   200006 631500                    EPPR1   NEXT_SPEC_RET_VAL,,AUTO
        12 000114   200014 451500                    STP1    IDX+1,,AUTO
        12 000115   200014 630500                    EPPR0   IDX+1,,AUTO
        12 000116   000020 631400 xsym               EPPR1   B_VECTNIL+16
        12 000117   000000 701000 xent               TSX1    VPF$GET_NEXT_SPEC
        12 000120   000000 011000                    NOP     0

      242     9011    2           DO WHILE(NEXT_SPEC_RET_VAL = 0); /* DO WHILE INPUT SPECs remain       */

   9011 12 000121   200006 235100                    LDA     NEXT_SPEC_RET_VAL,,AUTO
PL6.E3A0      #002=VPE$COPYALL File=VPE$COPY.:E05TSI                             WED 07/30/97 07:26 Page:58
        12 000122   000372 601000 12                 TNZ     s:9088

      243     9012    2              REMEMBER COPYALL_STEP_ABORT IN ABORT_STEP;

   9012 12 000123   000467 635000 12                 EAA     COPYALL_STEP_ABORT
        12 000124   000000 452400 xsym               STP2    ABORT_STEP
        12 000125   000001 755000 xsym               STA     ABORT_STEP+1

      244     9013    2              IF NEXT_SPEC_RET_VAL=0

   9013 12 000126   200006 236100                    LDQ     NEXT_SPEC_RET_VAL,,AUTO
        12 000127   000362 601000 12                 TNZ     s:9086

      245     9014    2               THEN                        /* All fine, source spec. processed   */
      246     9015    3               DO;

      247     9016    3                  CALL VPF$OPEN_NEXT(OPEN_NEXT_RET_VAL,4); /* OPEN first input   */

   9016 12 000130   000001 236000 13                 LDQ     1
        12 000131   200015 756100                    STQ     IDX+2,,AUTO
        12 000132   200007 630500                    EPPR0   OPEN_NEXT_RET_VAL,,AUTO
        12 000133   200014 450500                    STP0    IDX+1,,AUTO
        12 000134   200014 630500                    EPPR0   IDX+1,,AUTO
        12 000135   000020 631400 xsym               EPPR1   B_VECTNIL+16
        12 000136   000000 701000 xent               TSX1    VPF$OPEN_NEXT
        12 000137   000000 011000                    NOP     0

      248     9017                                                /* file in new INPUT SPEC             */
      249     9018    4                  DO WHILE(OPEN_NEXT_RET_VAL=%VPOC_GOTFILE#);

   9018 12 000140   200007 235100                    LDA     OPEN_NEXT_RET_VAL,,AUTO
        12 000141   000362 601000 12                 TNZ     s:9086

      250     9019                                                /* A file is now OPEN or TOPEN        */
      251     9020    4                     NRECS_IN_COPY_FILE = -1;

   9020 12 000142   000001 335007                    LCA     1,DL
PL6.E3A0      #002=VPE$COPYALL File=VPE$COPY.:E05TSI                             WED 07/30/97 07:26 Page:59
        12 000143   000000 755000 xsym               STA     NRECS_IN_COPY_FILE

      252     9021    4                     IF ICB.FLAVOR.MANAGED

   9021 12 000144   000172 236000 xsym               LDQ     ICB+122
        12 000145   000010 316003                    CANQ    8,DU
        12 000146   000164 600000 12                 TZE     s:9029

      253     9022    5                      THEN DO;

      254     9023    5                         CODE03$ = FPARAM$;

   9023 12 000147   000000 236000 xsym               LDQ     FPARAM$
        12 000150   200004 756100                    STQ     CODE03$,,AUTO

      255     9024    5                         CALL XSF$LOCCODP (CODE03$, 3)

   9024 12 000151   000002 236000 13                 LDQ     2
        12 000152   200015 756100                    STQ     IDX+2,,AUTO
        12 000153   200004 630500                    EPPR0   CODE03$,,AUTO
        12 000154   200014 450500                    STP0    IDX+1,,AUTO
        12 000155   200014 630500                    EPPR0   IDX+1,,AUTO
        12 000156   000020 631400 xsym               EPPR1   B_VECTNIL+16
        12 000157   000000 701000 xent               TSX1    XSF$LOCCODP
        12 000160   000164 702000 12                 TSX2    s:9029

      256     9025    6                          WHENRETURN DO;

      257     9026    6                             NRECS_IN_COPY_FILE = CODE03$ -> CODE03.NRECS;

   9026 12 000161   200004 470500                    LDP0    CODE03$,,AUTO
        12 000162   000002 235100                    LDA     2,,PR0
        12 000163   000000 755000 xsym               STA     NRECS_IN_COPY_FILE

      258     9027    6                             END;

      259     9028    5                         END;
PL6.E3A0      #002=VPE$COPYALL File=VPE$COPY.:E05TSI                             WED 07/30/97 07:26 Page:60

      260     9029    4                     IF NOT M$EI$ -> F$DCB.FCD

   9029 12 000164   000000 470400 xsym               LDP0    M$EI$
        12 000165   000031 236100                    LDQ     25,,PR0
        12 000166   020000 316007                    CANQ    8192,DL
        12 000167   000214 601000 12                 TNZ     s:9036

      261     9030    4                      THEN                 /* File is TOPEN                      */
      262     9031    4                        CALL VPF$CALL_OPEN (FPT_OPEN_EI_DEFAULT) /* Really OPEN  */

   9031 12 000170   000003 630400 13                 EPPR0   3
        12 000171   000017 631400 xsym               EPPR1   B_VECTNIL+15
        12 000172   000000 701000 xent               TSX1    VPF$CALL_OPEN
        12 000173   000175 702000 12                 TSX2    s:9033
        12 000174   000214 710000 12                 TRA     s:9036

      263     9032    5                         WHENALTRETURN DO;
              9032                                  /* Whoops - file is probably busy or something */

      264     9033    5                            CALL VPL$ERR_PROC(0,0,,INPUT_ERR,,,M$EI#);
              9033                                     /* Tell the user */

   9033 12 000175   000004 236000 13                 LDQ     4
        12 000176   200022 756100                    STQ     IDX+7,,AUTO
        12 000177   000001 236000 xsym               LDQ     B_VECTNIL+1
        12 000200   000001 235000 xsym               LDA     B_VECTNIL+1
        12 000201   200020 757100                    STAQ    IDX+5,,AUTO
        12 000202   000005 236000 13                 LDQ     5
        12 000203   000001 235000 xsym               LDA     B_VECTNIL+1
        12 000204   200016 757100                    STAQ    IDX+3,,AUTO
        12 000205   000006 237000 13                 LDAQ    6
        12 000206   200014 757100                    STAQ    IDX+1,,AUTO
        12 000207   200014 630500                    EPPR0   IDX+1,,AUTO
        12 000210   000025 631400 xsym               EPPR1   B_VECTNIL+21
        12 000211   000000 701000 xent               TSX1    VPL$ERR_PROC
        12 000212   000000 011000                    NOP     0
PL6.E3A0      #002=VPE$COPYALL File=VPE$COPY.:E05TSI                             WED 07/30/97 07:26 Page:61

      265     9034    5                            GOTO COPYALL_STEP_ABORT; /* and continue             */

   9034 12 000213   000467 710000 12                 TRA     COPYALL_STEP_ABORT

      266     9035    5                            END;
      267     9036    4                     CALL VPC$SETOUT(OUTSPEC$); /* Prepare & open output file    */

   9036 12 000214   200012 630500                    EPPR0   OUTSPEC$,,AUTO
        12 000215   200014 450500                    STP0    IDX+1,,AUTO
        12 000216   200014 630500                    EPPR0   IDX+1,,AUTO
        12 000217   000017 631400 xsym               EPPR1   B_VECTNIL+15
        12 000220   000000 701000 xent               TSX1    VPC$SETOUT
        12 000221   000000 011000                    NOP     0

      268     9037    4                     IF THIS_STD_FILE

   9037 12 000222   000000 234000 xsym               SZN     THIS_STD_FILE
        12 000223   000240 605000 12                 TPL     s:9045
        12 000224   000256 236000 xsym               LDQ     OCB+174
        12 000225   040000 316003                    CANQ    16384,DU
        12 000226   000240 600000 12                 TZE     s:9045

      269     9038    4                       AND OCB.FLAVOR.JE
      270     9039    5                      THEN DO;             /* DON'T COPY STD FILE TO JE          */

      271     9040    5                         CALL VPF$CLOSE_IN(1);

   9040 12 000227   000010 630400 13                 EPPR0   8
        12 000230   000017 631400 xsym               EPPR1   B_VECTNIL+15
        12 000231   000000 701000 xent               TSX1    VPF$CLOSE_IN
        12 000232   000000 011000                    NOP     0

      272     9041    5                         CALL VPC$CALL_CLOSE(FPT_CLOSE_EO1_REL); /* Scratch the  */

   9041 12 000233   000011 630400 13                 EPPR0   9
        12 000234   000017 631400 xsym               EPPR1   B_VECTNIL+15
PL6.E3A0      #002=VPE$COPYALL File=VPE$COPY.:E05TSI                             WED 07/30/97 07:26 Page:62
        12 000235   000000 701000 xent               TSX1    VPC$CALL_CLOSE
        12 000236   000000 011000                    NOP     0

      273     9042                                                /* STD file copied to JE              */
      274     9043    5                         END;

   9043 12 000237   000311 710000 12                 TRA     COPIED_OK

      275     9044    5                      ELSE DO;

      276     9045    5                         CALL VPG$SET_UP_WRITE;

   9045 12 000240   000002 631400 xsym               EPPR1   B_VECTNIL+2
        12 000241   000000 701000 xent               TSX1    VPG$SET_UP_WRITE
        12 000242   000000 011000                    NOP     0

      277     9046    5                         CALL VPE$READ_WRITE

   9046 12 000243   000002 631400 xsym               EPPR1   B_VECTNIL+2
        12 000244   000000 701000 xent               TSX1    VPE$READ_WRITE
        12 000245   000247 702000 12                 TSX2    s:9048
        12 000246   000251 710000 12                 TRA     s:9050

      278     9047    6                          WHENALTRETURN DO;

      279     9048    6                             OPEN_NEXT_RET_VAL = 1; /* Force loop exit           */

   9048 12 000247   000001 235007                    LDA     1,DL
        12 000250   200007 755100                    STA     OPEN_NEXT_RET_VAL,,AUTO

      280     9049    6                             END;

      281     9050    5                         IF M$EI$->F$DCB.FCD

   9050 12 000251   000000 470400 xsym               LDP0    M$EI$
        12 000252   000031 236100                    LDQ     25,,PR0
        12 000253   020000 316007                    CANQ    8192,DL
PL6.E3A0      #002=VPE$COPYALL File=VPE$COPY.:E05TSI                             WED 07/30/97 07:26 Page:63
        12 000254   000261 600000 12                 TZE     s:9053

      282     9051    5                          THEN
      283     9052    5                            CALL VPF$CLOSE_IN(1) ALTRET(COPYALL_STEP_ABORT);

   9052 12 000255   000010 630400 13                 EPPR0   8
        12 000256   000017 631400 xsym               EPPR1   B_VECTNIL+15
        12 000257   000000 701000 xent               TSX1    VPF$CLOSE_IN
        12 000260   000467 702000 12                 TSX2    COPYALL_STEP_ABORT

      284     9053    5                         CALL VPD$CLOSE_OUT(0); /* Close with save               */

   9053 12 000261   000006 630400 13                 EPPR0   6
        12 000262   000017 631400 xsym               EPPR1   B_VECTNIL+15
        12 000263   000000 701000 xent               TSX1    VPD$CLOSE_OUT
        12 000264   000000 011000                    NOP     0

      285     9054    5                         CALL M$CORRES(FPT_CORRES) ALTRET(COPIED_OK);

   9054 12 000265   000000 630400 11                 EPPR0   FPT_CORRES
        12 000266   460000 713400                    CLIMB   alt,+24576
        12 000267   400000 401760                    pmme    nvectors=1
        12 000270   000311 702000 12                 TSX2    COPIED_OK

      286     9055    5                         IF OCB.FLAVOR.MANAGED

   9055 12 000271   000256 236000 xsym               LDQ     OCB+174
        12 000272   020000 316003                    CANQ    8192,DU
        12 000273   000305 600000 12                 TZE     s:9060

      287     9056    5                          THEN
      288     9057    5                            CALL VPD$OUT_NAMES(DIN_NAME,M$EO1$->F$DCB.NAME);

   9057 12 000274   000000 236000 xsym               LDQ     M$EO1$
        12 000275   000010 036003                    ADLQ    8,DU
        12 000276   000012 235000 13                 LDA     10
        12 000277   200014 757100                    STAQ    IDX+1,,AUTO
PL6.E3A0      #002=VPE$COPYALL File=VPE$COPY.:E05TSI                             WED 07/30/97 07:26 Page:64
        12 000300   200014 630500                    EPPR0   IDX+1,,AUTO
        12 000301   000020 631400 xsym               EPPR1   B_VECTNIL+16
        12 000302   000000 701000 xent               TSX1    VPD$OUT_NAMES
        12 000303   000000 011000                    NOP     0
        12 000304   000311 710000 12                 TRA     COPIED_OK

      289     9058                                      /* Put out both filenames...if the name changed */
      290     9059    5                          ELSE
      291     9060    5                            CALL VPD$OUT_NAMES(DIN_NAME,0);

   9060 12 000305   000013 630400 13                 EPPR0   11
        12 000306   000020 631400 xsym               EPPR1   B_VECTNIL+16
        12 000307   000000 701000 xent               TSX1    VPD$OUT_NAMES
        12 000310   000000 011000                    NOP     0

      292     9061                                      /* Don't put out the second filename unless to  */
      293     9062                                                /* managed place                      */
      294     9063    5                         END;

   9063 12 000311                       COPIED_OK    null
      295     9064    4   COPIED_OK:        ;
      296     9065    4                     CALL VPD$COUNTER_BUMP(0);

   9065 12 000311   000006 630400 13                 EPPR0   6
        12 000312   000017 631400 xsym               EPPR1   B_VECTNIL+15
        12 000313   000000 701000 xent               TSX1    VPD$COUNTER_BUMP
        12 000314   000000 011000                    NOP     0

      297     9066    4   NEXT_FILE:
      298     9067    4                     IF M$EI$->F$DCB.FCD

   9067 12 000315   000000 470400 xsym  NEXT_FILE    LDP0    M$EI$
        12 000316   000031 236100                    LDQ     25,,PR0
        12 000317   020000 316007                    CANQ    8192,DL
        12 000320   000325 600000 12                 TZE     s:9070

      299     9068    4                      THEN
PL6.E3A0      #002=VPE$COPYALL File=VPE$COPY.:E05TSI                             WED 07/30/97 07:26 Page:65
      300     9069    4                        CALL VPF$CLOSE_IN(1) ALTRET(COPYALL_STEP_ABORT);

   9069 12 000321   000010 630400 13                 EPPR0   8
        12 000322   000017 631400 xsym               EPPR1   B_VECTNIL+15
        12 000323   000000 701000 xent               TSX1    VPF$CLOSE_IN
        12 000324   000467 702000 12                 TSX2    COPYALL_STEP_ABORT

      301     9070    4                     THIS_STD_FILE = '0'B; /* No longer working on STD file      */

   9070 12 000325   000000 450000 xsym               STZ     THIS_STD_FILE

      302     9071    4                     IF OLD_BREAKS>0 OR BREAKS>0

   9071 12 000326   000000 235000 xsym               LDA     OLD_BREAKS
        12 000327   000332 605400 12                 TPNZ    s:9074
        12 000330   000000 236000 xsym               LDQ     BREAKS
        12 000331   000345 604400 12                 TMOZ    s:9080

      303     9072    4                      THEN
      304     9073    5                      DO;

      305     9074    5                         BREAK_MESSAGE_REPORTER = ENTADDR(VPE$BREAK_IN_COPYALL);

   9074 12 000332   000522 636000 12                 EAQ     s:9136
        12 000333   000000 756000 xsym               STQ     BREAK_MESSAGE_REPORTER

      306     9075    5                         REMEMBER ABORT_COPYALL IN BREAK_LOC;

   9075 12 000334   000375 635000 12                 EAA     ABORT_COPYALL
        12 000335   000000 452400 xsym               STP2    BREAK_LOC
        12 000336   000001 755000 xsym               STA     BREAK_LOC+1

      307     9076    5                         CALL XUG$SIMULATE_BREAK (GETCMD);

   9076 12 000337   000015 630400 13                 EPPR0   13
        12 000340   000017 631400 xsym               EPPR1   B_VECTNIL+15
        12 000341   000000 701000 xent               TSX1    XUG$SIMULATE_BREAK
PL6.E3A0      #002=VPE$COPYALL File=VPE$COPY.:E05TSI                             WED 07/30/97 07:26 Page:66
        12 000342   000000 011000                    NOP     0

      308     9077    5                         BREAKS = 0;

   9077 12 000343   000000 450000 xsym               STZ     BREAKS

      309     9078    5                         OLD_BREAKS = 0;

   9078 12 000344   000000 450000 xsym               STZ     OLD_BREAKS

      310     9079    5                         END;

      311     9080    4                     IF OPEN_NEXT_RET_VAL ~= 1

   9080 12 000345   200007 235100                    LDA     OPEN_NEXT_RET_VAL,,AUTO
        12 000346   000001 115007                    CMPA    1,DL
        12 000347   000360 600000 12                 TZE     s:9084

      312     9081    4                      THEN
      313     9082    4                        CALL VPF$OPEN_NEXT(OPEN_NEXT_RET_VAL,5); /* OPEN next input */

   9082 12 000350   000016 236000 13                 LDQ     14
        12 000351   200015 756100                    STQ     IDX+2,,AUTO
        12 000352   200007 630500                    EPPR0   OPEN_NEXT_RET_VAL,,AUTO
        12 000353   200014 450500                    STP0    IDX+1,,AUTO
        12 000354   200014 630500                    EPPR0   IDX+1,,AUTO
        12 000355   000020 631400 xsym               EPPR1   B_VECTNIL+16
        12 000356   000000 701000 xent               TSX1    VPF$OPEN_NEXT
        12 000357   000000 011000                    NOP     0

      314     9083                                                /* file in INPUT SPEC                 */
      315     9084    4                     END;

   9084 12 000360   200007 235100                    LDA     OPEN_NEXT_RET_VAL,,AUTO
        12 000361   000142 600000 12                 TZE     s:9020

      316     9085    3                  END;
PL6.E3A0      #002=VPE$COPYALL File=VPE$COPY.:E05TSI                             WED 07/30/97 07:26 Page:67

      317     9086    2              CALL VPF$GET_NEXT_SPEC(NEXT_SPEC_RET_VAL);

   9086 12 000362   200006 630500                    EPPR0   NEXT_SPEC_RET_VAL,,AUTO
        12 000363   200014 450500                    STP0    IDX+1,,AUTO
        12 000364   200014 630500                    EPPR0   IDX+1,,AUTO
        12 000365   000017 631400 xsym               EPPR1   B_VECTNIL+15
        12 000366   000000 701000 xent               TSX1    VPF$GET_NEXT_SPEC
        12 000367   000000 011000                    NOP     0

      318     9087    2              END;                         /* End WHILE files remain             */

   9087 12 000370   200006 235100                    LDA     NEXT_SPEC_RET_VAL,,AUTO
        12 000371   000123 600000 12                 TZE     s:9012

      319     9088    1           IF CMD_MASK(3)                  /* IF COPYSTD                         */

   9088 12 000372   000000 236000 xsym               LDQ     CMD_MASK
        12 000373   040000 316003                    CANQ    16384,DU
        12 000374   000074 601000 12                 TNZ     COPYSTD_L

      320     9089    1            THEN
      321     9090    1              GOTO COPYSTD_L;              /* Get next SOURCELIST from STD file  */
      322     9091    1   ABORT_COPYALL:
      323     9092    1           CALL VPD$FINISH_NLIST;          /* Finish dangling name list          */

   9092 12 000375   000002 631400 xsym  ABORT_COPYA* EPPR1   B_VECTNIL+2
        12 000376   000000 701000 xent               TSX1    VPD$FINISH_NLIST
        12 000377   000000 011000                    NOP     0

      324     9093    1           CALL VPD$MINIMIZE_BUF;

   9093 12 000400   000002 631400 xsym               EPPR1   B_VECTNIL+2
        12 000401   000000 701000 xent               TSX1    VPD$MINIMIZE_BUF
        12 000402   000000 011000                    NOP     0

      325     9094    1           IF M$EI$->F$DCB.FCD
PL6.E3A0      #002=VPE$COPYALL File=VPE$COPY.:E05TSI                             WED 07/30/97 07:26 Page:68

   9094 12 000403   000000 470400 xsym               LDP0    M$EI$
        12 000404   000031 236100                    LDQ     25,,PR0
        12 000405   020000 316007                    CANQ    8192,DL
        12 000406   000427 600000 12                 TZE     CHK_EO1

      326     9095    1            THEN
      327     9096    2            DO;

      328     9097    2               IF ~M$EI$->F$DCB.TYC.EOD(1) AND ICB.FLAVOR.FFTAPE

   9097 12 000407   000002 236100                    LDQ     2,,PR0
        12 000410   000012 736000                    QLS     10
        12 000411   400000 376003                    ANQ     -131072,DU
        12 000412   400000 676003                    ERQ     -131072,DU
        12 000413   000423 600000 12                 TZE     s:9100
        12 000414   000172 236000 xsym               LDQ     ICB+122
        12 000415   000040 316003                    CANQ    32,DU
        12 000416   000423 600000 12                 TZE     s:9100

      329     9098    2                THEN
      330     9099    2                  CALL M$PFIL(FPT_PFIL_EI) ALTRET(CHK_EO1);

   9099 12 000417   000004 630400 11                 EPPR0   FPT_PFIL_EI
        12 000420   440004 713400                    CLIMB   alt,+16388
        12 000421   400000 401760                    pmme    nvectors=1
        12 000422   000427 702000 12                 TSX2    CHK_EO1

      331     9100    2               CALL VPF$CLOSE_IN(1) ALTRET(CHK_EO1);

   9100 12 000423   000010 630400 13                 EPPR0   8
        12 000424   000017 631400 xsym               EPPR1   B_VECTNIL+15
        12 000425   000000 701000 xent               TSX1    VPF$CLOSE_IN
        12 000426   000427 702000 12                 TSX2    CHK_EO1

      332     9101    2               END;

PL6.E3A0      #002=VPE$COPYALL File=VPE$COPY.:E05TSI                             WED 07/30/97 07:26 Page:69
      333     9102    1   CHK_EO1:IF M$EO1$->F$DCB.FCD

   9102 12 000427   000000 470400 xsym  CHK_EO1      LDP0    M$EO1$
        12 000430   000031 236100                    LDQ     25,,PR0
        12 000431   020000 316007                    CANQ    8192,DL
        12 000432   000437 600000 12                 TZE     s:9105

      334     9103    1            THEN
      335     9104    1              CALL VPD$CLOSE_OUT(1);       /* Close with error                   */

   9104 12 000433   000010 630400 13                 EPPR0   8
        12 000434   000017 631400 xsym               EPPR1   B_VECTNIL+15
        12 000435   000000 701000 xent               TSX1    VPD$CLOSE_OUT
        12 000436   000000 011000                    NOP     0

      336     9105    1           IF STEP_ABORT_FLAG=1

   9105 12 000437   200005 235100                    LDA     STEP_ABORT_FLAG,,AUTO
        12 000440   000001 115007                    CMPA    1,DL
        12 000441   000444 601000 12                 TNZ     s:9111

      337     9106    1            THEN
      338     9107    2            DO;

      339     9108    2               STEP_ABORT_FLAG = 0;

   9108 12 000442   200005 450100                    STZ     STEP_ABORT_FLAG,,AUTO

      340     9109    2               GOTO NEXT_FILE;

   9109 12 000443   000315 710000 12                 TRA     NEXT_FILE

      341     9110    2               END;
      342     9111    1           IF M$STD1$->F$DCB.FCD

   9111 12 000444   000000 470400 xsym               LDP0    M$STD1$
        12 000445   000031 236100                    LDQ     25,,PR0
PL6.E3A0      #002=VPE$COPYALL File=VPE$COPY.:E05TSI                             WED 07/30/97 07:26 Page:70
        12 000446   020000 316007                    CANQ    8192,DL
        12 000447   000454 600000 12                 TZE     ABORT_RET

      343     9112    1            THEN
      344     9113    1              CALL M$CLOSE(FPT_CLOSE_STD) ALTRET(ABORT_RET);

   9113 12 000450   000000 630400 xsym               EPPR0   FPT_CLOSE_STD
        12 000451   450001 713400                    CLIMB   alt,close
        12 000452   406000 401760                    pmme    nvectors=13
        12 000453   000454 702000 12                 TSX2    ABORT_RET

   9111 12 000454                       ABORT_RET    null
      345     9114    1   ABORT_RET: ;
      346     9115    1           CALL VPD$COUNTER_PRINT(0);

   9115 12 000454   000006 630400 13                 EPPR0   6
        12 000455   000017 631400 xsym               EPPR1   B_VECTNIL+15
        12 000456   000000 701000 xent               TSX1    VPD$COUNTER_PRINT
        12 000457   000000 011000                    NOP     0

      347     9116    1           IF TOT_FILES(0) = 0 THEN

   9116 12 000460   000000 235000 xsym               LDA     TOT_FILES
        12 000461   000466 601000 12                 TNZ     s:9118

      348     9117    1              CALL VPL$ERR_NO_PRINT(1,0,0,0);

   9117 12 000462   000017 630400 13                 EPPR0   15
        12 000463   000022 631400 xsym               EPPR1   B_VECTNIL+18
        12 000464   000000 701000 xent               TSX1    VPL$ERR_NO_PRINT
        12 000465   000000 011000                    NOP     0

      349     9118    1           RETURN;

   9118 12 000466   000000 702200 xent               TSX2  ! X66_ARET

      350     9119    1   COPYALL_STEP_ABORT:
PL6.E3A0      #002=VPE$COPYALL File=VPE$COPY.:E05TSI                             WED 07/30/97 07:26 Page:71
      351     9120    1           STEP_ABORT_FLAG = 1;

   9120 12 000467   000001 235007       COPYALL_STE* LDA     1,DL
        12 000470   200005 755100                    STA     STEP_ABORT_FLAG,,AUTO

      352     9121    1           GOTO ABORT_COPYALL;

   9121 12 000471   000375 710000 12                 TRA     ABORT_COPYALL

      353     9122    1   STD_READ_ALT:
      354     9123    1           IF B$TCB$->B$TCB.ALT$->B$ALT.ERR.CODE=%E$EOF

   9123 12 000472   000000 470400 xsym  STD_READ_ALT LDP0    B$TCB$
        12 000473   000000 471500                    LDP1    0,,PR0
        12 000474   100102 236100                    LDQ     66,,PR1
        12 000475   377770 376007                    ANQ     131064,DL
        12 000476   000060 116007                    CMPQ    48,DL
        12 000477   000375 600000 12                 TZE     ABORT_COPYALL

      355     9124    1            THEN
      356     9125    1              GOTO ABORT_COPYALL;
      357     9126    1            ELSE
      358     9127    1              CALL VPL$ERR_PROC(3,0);

   9127 12 000500   000023 630400 13                 EPPR0   19
        12 000501   000020 631400 xsym               EPPR1   B_VECTNIL+16
        12 000502   000000 701000 xent               TSX1    VPL$ERR_PROC
        12 000503   000000 011000                    NOP     0

      359     9128    1   STD_PARSE_ALT:
      360     9129    1           CALL VPL$ERR_PROC(0,0,,PCB.ERROR);

   9129 12 000504   000025 236000 13    STD_PARSE_A* LDQ     21
        12 000505   000001 235000 xsym               LDA     B_VECTNIL+1
        12 000506   200016 757100                    STAQ    IDX+3,,AUTO
        12 000507   000006 237000 13                 LDAQ    6
        12 000510   200014 757100                    STAQ    IDX+1,,AUTO
PL6.E3A0      #002=VPE$COPYALL File=VPE$COPY.:E05TSI                             WED 07/30/97 07:26 Page:72
        12 000511   200014 630500                    EPPR0   IDX+1,,AUTO
        12 000512   000022 631400 xsym               EPPR1   B_VECTNIL+18
        12 000513   000000 701000 xent               TSX1    VPL$ERR_PROC
        12 000514   000000 011000                    NOP     0

      361     9130    1           CALL VPL$ERR_PROC(3,50,'05'O);

   9130 12 000515   000030 630400 13                 EPPR0   24
        12 000516   000021 631400 xsym               EPPR1   B_VECTNIL+17
        12 000517   000000 701000 xent               TSX1    VPL$ERR_PROC
        12 000520   000000 011000                    NOP     0
        12 000521   000524 710000 12                 TRA     s:9143

      362     9131        /*E*   ERROR: VPE-00050
      363     9132             MESSAGE: in COPY's STD file.  COPY aborts.
      364     9133            MESSAGE1: A record in the STD file has a bad source or option.
      365     9134        */
      366     9135        %EJECT;
PL6.E3A0      #002=VPE$COPYALL File=VPE$COPY.:E05TSI                             WED 07/30/97 07:26 Page:73
      367     9136    1   VPE$BREAK_IN_COPYALL: ENTRY;

   9136 12 000522   000000 700200 xent  VPE$BREAK_I* TSX0  ! X66_AUTO_0
        12 000523   000024 000000                    ZERO    20,0

      368     9137
      369     9138        /*D*  ENTRY: VPE$BREAK_IN_COPYALL
      370     9139              DESCRIPTION: This entry serves to print the appropriate break
      371     9140                    message during the COPYALL and COPYSTD commands.
      372     9141        */
      373     9142
      374     9143    1           OUT_COL = 0;

   9143 12 000524   000000 450000 xsym               STZ     OUT_COL

      375     9144    1           IF OLD_BREAKS>0

   9144 12 000525   000000 235000 xsym               LDA     OLD_BREAKS
        12 000526   000532 604400 12                 TMOZ    s:9148

      376     9145    1            THEN
      377     9146    1              FPT_WRITE_UC.BUF_ = VECTOR(ABORT_AT_END);

   9146 12 000527   000034 237000 13                 LDAQ    28
        12 000530   000004 757000 xsym               STAQ    FPT_WRITE_UC+4
        12 000531   000534 710000 12                 TRA     s:9149

      378     9147    1            ELSE
      379     9148    1              FPT_WRITE_UC.BUF_ = VECTOR(ABORT_NOW);

   9148 12 000532   000036 237000 13                 LDAQ    30
        12 000533   000004 757000 xsym               STAQ    FPT_WRITE_UC+4

      380     9149    1           FPT_WRITE_UC.V.DVBYTE.VFC# = %YES#;

   9149 12 000534   100000 236003                    LDQ     32768,DU
        12 000535   000013 256000 xsym               ORSQ    FPT_WRITE_UC+11
PL6.E3A0      #002=VPE$COPYALL File=VPE$COPY.:E05TSI                             WED 07/30/97 07:26 Page:74

      381     9150    1           CALL M$WRITE(FPT_WRITE_UC);

   9150 12 000536   000000 630400 xsym               EPPR0   FPT_WRITE_UC
        12 000537   040001 713400                    CLIMB   write
        12 000540   401400 401760                    pmme    nvectors=4

      382     9151    1           FPT_WRITE_UC.V.DVBYTE.VFC# = %NO#;

   9151 12 000541   000040 236000 13                 LDQ     32
        12 000542   000013 356000 xsym               ANSQ    FPT_WRITE_UC+11

      383     9152    1           RETURN;

   9152 12 000543   000000 702200 xent               TSX2  ! X66_ARET
      384     9153
      385     9154    1   END VPE$COPYALL;
      386     9155        %EOD;

PL6.E3A0      #002=VPE$COPYALL File=VPE$COPY.:E05TSI                             WED 07/30/97 07:26 Page:75
--  Include file information  --

   XUG_ENTRY.:E05TOU  cannot be made into a system file and is referenced.
   FM$FIT.:E05TOU  is referenced.
   NK_VFC_C.:E05TOU  is referenced.
   B_ERRORS_C.:E05TOU  is referenced.
   F$DCB.:E05TOU  cannot be made into a system file and is referenced.
   B_MICROPS_C.:E05TOU  is referenced.
   XU_MACRO_C.:E05TOU  is referenced.
   VP_MACRO_C.:E05TOU  is referenced.
   XS_MACRO_C.:E05TOU  is referenced.
   VP_PERR_C.:E05TOU  is referenced.
   CP_6_SUBS.:E05TOU  is referenced.
   CP_6.:E05TOU  cannot be made into a system file and is referenced.
   VP_DATA_R.:E05TOU  cannot be made into a system file and is referenced.
   B$JIT_C.:E05TOU  was found in the system file and is never referenced.
   CP_6_C.:E05TOU  was found in the system file and is referenced.
      No diagnostics issued in procedure VPE$COPYALL.
PL6.E3A0      #002=VPE$COPYALL File=VPE$COPY.:E05TSI                             WED 07/30/97 07:26 Page:76

 **** Variables and constants ****

  ****  Section 010 RoData VPE$COPYALL

  ****  Scalars and arrays  ****
OctLoc.c.b A Datatyp(siz) R M Lvl/name                 OctLoc.c.b A Datatyp(siz) R M Lvl/name

     0-0-0/c CHAR(21)    r     1 ABORT_AT_END               6-0-0/c CHAR(14)    r     1 ABORT_NOW
   104-0-0/d STRC(1080)  r     1 FPT_CLOSE_EO1_REL         12-0-0/d STRC(2088)  r     1 FPT_OPEN_EI_DEFAULT

  ****  Section 011  Data  VPE$COPYALL

  ****  Scalars and arrays  ****
OctLoc.c.b A Datatyp(siz) R M Lvl/name                 OctLoc.c.b A Datatyp(siz) R M Lvl/name

     0-0-0/d STRC(144)   r     1 FPT_CORRES                 4-0-0/d STRC(144)   r     1 FPT_PFIL_EI

  ****  Auto variables  ****

  ****  Scalars and arrays  ****
OctLoc.c.b A Datatyp(siz) R M Lvl/name                 OctLoc.c.b A Datatyp(siz) R M Lvl/name

     4-0-0/w PTR         r     1 CODE03$                   13-0-0/w SBIN        r     1 IDX
     6-0-0/w SBIN        r     1 NEXT_SPEC_RET_VAL          7-0-0/w SBIN        r     1 OPEN_NEXT_RET_VAL
    12-0-0/w PTR         r     1 OUTSPEC$                  10-0-0/w PTR         r     1 PTR$
    11-0-0/w PTR         r     1 SOURCELIST$                5-0-0/w SBIN        r     1 STEP_ABORT_FLAG

  ****  SYMREF variables  ****

  ****  Scalars and arrays  ****
OctLoc.c.b A Datatyp(siz) R M Lvl/name                 OctLoc.c.b A Datatyp(siz) R M Lvl/name

     0-0-0/d REMB        r     1 ABORT_CMD                  0-0-0/d REMB        r     1 ABORT_STEP
     0-0-0/w PTR         r     1 B$TCB$                     0-0-0/w SBIN        r     1 BREAKS
     0-0-0/d REMB        r     1 BREAK_LOC
     0-0-0/w EPTR        r     1 BREAK_MESSAGE_REPORTER
     0-0-0/b BIT         r     1 CMD_MASK(0:71)
PL6.E3A0      #002=VPE$COPYALL File=VPE$COPY.:E05TSI                             WED 07/30/97 07:26 Page:77
     0-0-0/c STRC(288)   r     1 DIN_NAME                   0-0-0/w PTR         r     1 FPARAM$
     0-0-0/d STRC(1080)  r     1 FPT_CLOSE_STD              0-0-0/d STRC(504)   r     1 FPT_READ_STD
     0-0-0/d STRC(432)   r     1 FPT_WRITE_UC               0-0-0/d STRC(1512)  r     1 GETCMD
     0-0-0/d STRC(5868)  r     1 ICB                        0-0-0/w STRC        r     1 INPUT_ERR
     0-0-0/w SBIN        r     1 M$EI#                      0-0-0/w PTR         r     1 M$EI$
     0-0-0/w PTR         r     1 M$EO1$                     0-0-0/w PTR         r     1 M$STD1$
     0-0-0/w SBIN        r     1 NRECS_IN_COPY_FILE         0-0-0/d STRC(6840)  r     1 OCB
     0-0-0/w SBIN        r     1 OLD_BREAKS                 0-0-0/w SBIN        r     1 OUT_COL
     0-0-0/w STRC(504)   r     1 PCB                        0-0-0/b BIT         r     1 THIS_STD_FILE
     0-0-0/w SBIN        r     1 TOT_FILES(0:4)

  ****  BASED and DCB variables  ****

  ****  Scalars and arrays  ****
OctLoc.c.b A Datatyp(siz) R M Lvl/name                 OctLoc.c.b A Datatyp(siz) R M Lvl/name

     0-0-0/w STRC(2448)  r     1 B$ALT                      0-0-0/w STRC(144)   r     1 B$TCB
     0-0-0/w STRC(324)   r     1 CODE03                     0-0-0/d ASTR(3528)  r     1 F$DCB
     0-0-0N  NULL        r     1 M$EI                       0-0-0N  NULL        r     1 M$EO1
     0-0-0N  NULL        r     1 M$ME                       0-0-0/w STRC(144)   r     1 OUT$BLK
     0-0-0/c ASTR(9)     r     1 TEXT$C


   Procedure VPE$COPYALL requires 356 words for executable code.
   Procedure VPE$COPYALL requires 20 words of local(AUTO) storage.
PL6.E3A0      #002=VPE$COPYALL File=VPE$COPY.:E05TSI                             WED 07/30/97 07:26 Page:78
          *** CROSS REFERENCE LISTING ***
**     DENOTES     IDENTIFIER DEFINITION
<<                 IDENTIFIER'S VALUE SET
>>                 IDENTIFIER'S VALUE USED
<>                 IDENTIFIER SET AND/OR USED
--                 IDENTIFIER REFERENCED
PL6.E3A0      #002=VPE$COPYALL File=VPE$COPY.:E05TSI                             WED 07/30/97 07:26 Page:79
          MINI XREF LISTING

ABORT_AT_END
      8536**DCL      9146--ASSIGN
ABORT_CMD
      5183**DCL      8983<<REMEMBR
ABORT_COPYALL
      9092**LABEL    8983--REMEMBR  8984--REMEMBR  9075--REMEMBR  9121--GOTO     9125--GOTO
ABORT_NOW
      8537**DCL      9148--ASSIGN
ABORT_RET
      9111**LABEL    9113--CALLALT
ABORT_STEP
      5182**DCL      8982<<REMEMBR  9012<<REMEMBR
B$ALT.CODE
      7052**DCL      7052--REDEF    7053--REDEF    7053--REDEF
B$ALT.ERR.CODE
      7054**DCL      9123>>IF
B$ALT.ERR.ERR#
      7054**DCL      7054--REDEF
B$ALT.EVID
      7053**DCL      7053--REDEF    7053--REDEF
B$TCB.ALT$
      7048**DCL      9123>>IF
B$TCB$
      5983**DCL      9123>>IF
BREAKS
      5218**DCL      9071>>IF       9077<<ASSIGN
BREAK_LOC
      5218**DCL      5218--REDEF    8984<<REMEMBR  9075<<REMEMBR
BREAK_MESSAGE_REPORTER
      5219**DCL      9074<<ASSIGN
CHK_EO1
      9102**LABEL    9099--CALLALT  9100--CALLALT
PL6.E3A0      #002=VPE$COPYALL File=VPE$COPY.:E05TSI                             WED 07/30/97 07:26 Page:80
CMD_MASK
      5220**DCL      9001>>IF       9088>>IF
CODE03.NRECS
      8483**DCL      9026>>ASSIGN
CODE03$
      8727**DCL      9023<<ASSIGN   9024<>CALL     9026>>ASSIGN
COPIED_OK
      9063**LABEL    9054--CALLALT
COPYALL_STEP_ABORT
      9120**LABEL    8982--REMEMBR  9012--REMEMBR  9034--GOTO     9052--CALLALT  9069--CALLALT
COPYSTD_L
      9005**LABEL    9090--GOTO
DEF_ICB.FID.STRING
      5816**DCL      5817--REDEF
DEV_ICB.FID.STRING
      5702**DCL      5703--REDEF
DIN_NAME
      5509**DCL      9057<>CALL     9060<>CALL
EI_KEY.KEY
      5914**DCL      5914--REDEF    5914--REDEF    5914--REDEF
EO_OCB.TYPE
      5414**DCL      5415--REDEF
F$DCB.ACTPOS
      7024**DCL      7024--REDEF
F$DCB.ARS
      6999**DCL      6999--REDEF    9006>>ASSIGN
F$DCB.ATTR
      7017**DCL      7018--REDEF
F$DCB.BORROW
      7032**DCL      7032--REDEF    7032--REDEF    7032--REDEF
F$DCB.DCBNAME.L
      7046**DCL      7046--IMP-SIZ
F$DCB.EOMCHAR
      7003**DCL      7003--REDEF
F$DCB.FCD
      7012**DCL      9029>>IF       9050>>IF       9067>>IF       9094>>IF       9102>>IF       9111>>IF
PL6.E3A0      #002=VPE$COPYALL File=VPE$COPY.:E05TSI                             WED 07/30/97 07:26 Page:81
F$DCB.FLDID
      7027**DCL      7027--REDEF
F$DCB.FORM$
      7021**DCL      7021--REDEF
F$DCB.FSECT
      7037**DCL      7037--REDEF
F$DCB.FSN
      7014**DCL      7014--REDEF    7014--REDEF    7015--REDEF
F$DCB.HEADER$
      7020**DCL      7020--REDEF
F$DCB.IXTNSIZE
      7018**DCL      7018--REDEF
F$DCB.LASTSTA$
      7008**DCL      7008--REDEF
F$DCB.LVL
      7033**DCL      7033--REDEF
F$DCB.NAME
      7008**DCL      9057<>CALL
F$DCB.NAME.C
      7008**DCL      7008--REDEF
F$DCB.NOEOF
      7029**DCL      7029--REDEF
F$DCB.NRECS
      7019**DCL      7019--REDEF
F$DCB.NRECX
      7038**DCL      7038--REDEF
F$DCB.OHDR
      7030**DCL      7030--REDEF
F$DCB.ORG
      7013**DCL      7013--REDEF
F$DCB.PRECNO
      7036**DCL      7036--REDEF
F$DCB.RCSZ
      7041**DCL      7041--REDEF
F$DCB.RES
      7009**DCL      7009--REDEF
PL6.E3A0      #002=VPE$COPYALL File=VPE$COPY.:E05TSI                             WED 07/30/97 07:26 Page:82
F$DCB.SETX
      7021**DCL      7021--REDEF
F$DCB.TAB$
      7020**DCL      7021--REDEF
F$DCB.TDA
      7035**DCL      7035--REDEF
F$DCB.TYC.EOD
      7000**DCL      9097>>IF
F$DCB.WSN
      7010**DCL      7010--REDEF
FPARAM$
      5219**DCL      9023>>ASSIGN
FPT_CLOSE_EI.SN_
      6755**DCL      6755--REDEF
FPT_CLOSE_EI.UTL_
      6756**DCL      6756--REDEF
FPT_CLOSE_EI.V.EXPIRE#
      6770**DCL      6770--REDEF
FPT_CLOSE_EI.V.TYPE#
      6768**DCL      6768--REDEF
FPT_CLOSE_EI.V.XTNSIZE#
      6765**DCL      6765--REDEF    6767--REDEF
FPT_CLOSE_EO1_REL
      8708**DCL      9041<>CALL
FPT_CLOSE_EO1_REL.SN_
      8708**DCL      8708--REDEF
FPT_CLOSE_EO1_REL.UTL_
      8709**DCL      8709--REDEF
FPT_CLOSE_EO1_REL.V
      8713**DCL      8708--DCLINIT
FPT_CLOSE_EO1_REL.V.EXPIRE#
      8723**DCL      8723--REDEF
FPT_CLOSE_EO1_REL.V.TYPE#
      8721**DCL      8721--REDEF
FPT_CLOSE_EO1_REL.V.XTNSIZE#
      8718**DCL      8718--REDEF    8720--REDEF
PL6.E3A0      #002=VPE$COPYALL File=VPE$COPY.:E05TSI                             WED 07/30/97 07:26 Page:83
FPT_CLOSE_PTL.SN_
      6881**DCL      6881--REDEF
FPT_CLOSE_PTL.UTL_
      6882**DCL      6882--REDEF
FPT_CLOSE_PTL.V.EXPIRE#
      6896**DCL      6896--REDEF
FPT_CLOSE_PTL.V.TYPE#
      6894**DCL      6894--REDEF
FPT_CLOSE_PTL.V.XTNSIZE#
      6891**DCL      6891--REDEF    6893--REDEF
FPT_CLOSE_READ.SN_
      6797**DCL      6797--REDEF
FPT_CLOSE_READ.UTL_
      6798**DCL      6798--REDEF
FPT_CLOSE_READ.V.EXPIRE#
      6812**DCL      6812--REDEF
FPT_CLOSE_READ.V.TYPE#
      6810**DCL      6810--REDEF
FPT_CLOSE_READ.V.XTNSIZE#
      6807**DCL      6807--REDEF    6809--REDEF
FPT_CLOSE_SI.SN_
      6965**DCL      6965--REDEF
FPT_CLOSE_SI.UTL_
      6966**DCL      6966--REDEF
FPT_CLOSE_SI.V.EXPIRE#
      6980**DCL      6980--REDEF
FPT_CLOSE_SI.V.TYPE#
      6978**DCL      6978--REDEF
FPT_CLOSE_SI.V.XTNSIZE#
      6975**DCL      6975--REDEF    6977--REDEF
FPT_CLOSE_STD
      6923**DCL      9113<>CALL
FPT_CLOSE_STD.SN_
      6923**DCL      6923--REDEF
FPT_CLOSE_STD.UTL_
      6924**DCL      6924--REDEF
PL6.E3A0      #002=VPE$COPYALL File=VPE$COPY.:E05TSI                             WED 07/30/97 07:26 Page:84
FPT_CLOSE_STD.V.EXPIRE#
      6938**DCL      6938--REDEF
FPT_CLOSE_STD.V.TYPE#
      6936**DCL      6936--REDEF
FPT_CLOSE_STD.V.XTNSIZE#
      6933**DCL      6933--REDEF    6935--REDEF
FPT_CLSEI_FT.SN_
      6839**DCL      6839--REDEF
FPT_CLSEI_FT.UTL_
      6840**DCL      6840--REDEF
FPT_CLSEI_FT.V.EXPIRE#
      6854**DCL      6854--REDEF
FPT_CLSEI_FT.V.TYPE#
      6852**DCL      6852--REDEF
FPT_CLSEI_FT.V.XTNSIZE#
      6849**DCL      6849--REDEF    6851--REDEF
FPT_CORRES
      8663**DCL      9054<>CALL
FPT_CORRES.V
      8663**DCL      8663--DCLINIT
FPT_OPEN_EI.ACSVEH_
      6410**DCL      6411--REDEF
FPT_OPEN_EI.ALTKEYS_
      6416**DCL      6417--REDEF    6417--REDEF
FPT_OPEN_EI.HDR_
      6415**DCL      6416--REDEF
FPT_OPEN_EI.TAB_
      6414**DCL      6415--REDEF
FPT_OPEN_EI.UHL_
      6408**DCL      6409--REDEF    6409--REDEF
FPT_OPEN_EI.V.FSN#
      6448**DCL      6448--REDEF    6448--REDEF
FPT_OPEN_EI.WSN_
      6414**DCL      6414--REDEF
FPT_OPEN_EI_DEFAULT
      8606**DCL      9031<>CALL
PL6.E3A0      #002=VPE$COPYALL File=VPE$COPY.:E05TSI                             WED 07/30/97 07:26 Page:85
FPT_OPEN_EI_DEFAULT.ACSVEH_
      8608**DCL      8609--REDEF
FPT_OPEN_EI_DEFAULT.ALTKEYS_
      8614**DCL      8615--REDEF    8615--REDEF
FPT_OPEN_EI_DEFAULT.HDR_
      8613**DCL      8614--REDEF
FPT_OPEN_EI_DEFAULT.TAB_
      8612**DCL      8613--REDEF
FPT_OPEN_EI_DEFAULT.UHL_
      8606**DCL      8607--REDEF    8607--REDEF
FPT_OPEN_EI_DEFAULT.V
      8615**DCL      8606--DCLINIT
FPT_OPEN_EI_DEFAULT.V.FSN#
      8646**DCL      8646--REDEF    8646--REDEF
FPT_OPEN_EI_DEFAULT.WSN_
      8612**DCL      8612--REDEF
FPT_OPEN_EI_SAVE.ACSVEH_
      6519**DCL      6520--REDEF
FPT_OPEN_EI_SAVE.ALTKEYS_
      6525**DCL      6526--REDEF    6526--REDEF
FPT_OPEN_EI_SAVE.HDR_
      6524**DCL      6525--REDEF
FPT_OPEN_EI_SAVE.TAB_
      6523**DCL      6524--REDEF
FPT_OPEN_EI_SAVE.UHL_
      6517**DCL      6518--REDEF    6518--REDEF
FPT_OPEN_EI_SAVE.V.FSN#
      6557**DCL      6557--REDEF    6557--REDEF
FPT_OPEN_EI_SAVE.WSN_
      6523**DCL      6523--REDEF
FPT_OPEN_OUT.ACSVEH_
      6301**DCL      6302--REDEF
FPT_OPEN_OUT.ALTKEYS_
      6307**DCL      6308--REDEF    6308--REDEF
FPT_OPEN_OUT.HDR_
      6306**DCL      6307--REDEF
PL6.E3A0      #002=VPE$COPYALL File=VPE$COPY.:E05TSI                             WED 07/30/97 07:26 Page:86
FPT_OPEN_OUT.TAB_
      6305**DCL      6306--REDEF
FPT_OPEN_OUT.UHL_
      6299**DCL      6300--REDEF    6300--REDEF
FPT_OPEN_OUT.V.FSN#
      6339**DCL      6339--REDEF    6339--REDEF
FPT_OPEN_OUT.WSN_
      6305**DCL      6305--REDEF
FPT_OPEN_OUT_SAVE.ACSVEH_
      6192**DCL      6193--REDEF
FPT_OPEN_OUT_SAVE.ALTKEYS_
      6198**DCL      6199--REDEF    6199--REDEF
FPT_OPEN_OUT_SAVE.HDR_
      6197**DCL      6198--REDEF
FPT_OPEN_OUT_SAVE.TAB_
      6196**DCL      6197--REDEF
FPT_OPEN_OUT_SAVE.UHL_
      6190**DCL      6191--REDEF    6191--REDEF
FPT_OPEN_OUT_SAVE.V.FSN#
      6230**DCL      6230--REDEF    6230--REDEF
FPT_OPEN_OUT_SAVE.WSN_
      6196**DCL      6196--REDEF
FPT_PFIL_EI
      8678**DCL      9099<>CALL
FPT_PFIL_EI.V
      8678**DCL      8678--DCLINIT
FPT_READ_STD
      6617**DCL      9005<>CALL
FPT_READ_STD.STATION_
      6620**DCL      6621--REDEF
FPT_READ_STD.V.DVBYTE.REREAD#
      6632**DCL      6632--REDEF
FPT_READ_STD.V.INDX#
      6630**DCL      6630--REDEF
FPT_READ_UC.STATION_
      6581**DCL      6582--REDEF
PL6.E3A0      #002=VPE$COPYALL File=VPE$COPY.:E05TSI                             WED 07/30/97 07:26 Page:87
FPT_READ_UC.V.DVBYTE.REREAD#
      6593**DCL      6593--REDEF
FPT_READ_UC.V.INDX#
      6591**DCL      6591--REDEF
FPT_WRITE_ME.STATION_
      6689**DCL      6689--REDEF
FPT_WRITE_ME.V.DVBYTE.VFC#
      6696**DCL      6696--REDEF
FPT_WRITE_OUT.STATION_
      6720**DCL      6720--REDEF
FPT_WRITE_OUT.V.DVBYTE.VFC#
      6727**DCL      6727--REDEF
FPT_WRITE_UC
      6656**DCL      9150<>CALL
FPT_WRITE_UC.BUF_
      6656**DCL      9146<<ASSIGN   9148<<ASSIGN
FPT_WRITE_UC.STATION_
      6658**DCL      6658--REDEF
FPT_WRITE_UC.V.DVBYTE.VFC#
      6665**DCL      6665--REDEF    9149<<ASSIGN   9151<<ASSIGN
FROM_SN.SN
      5564**DCL      5565--REDEF
GETCMD
      4766**DCL      9076<>CALL
GETCMD.OUT$
      4771**DCL      4777--REDEF
ICB.FID.STRING
      5588**DCL      5589--REDEF
ICB.FLAVOR.FFTAPE
      5651**DCL      9097>>IF
ICB.FLAVOR.MANAGED
      5653**DCL      9021>>IF
IDX
      8735**DCL      8988<<DOINDEX  8989>>ASSIGN
IFSFA_PARAM.EOMCHAR#
      5943**DCL      5944--REDEF
PL6.E3A0      #002=VPE$COPYALL File=VPE$COPY.:E05TSI                             WED 07/30/97 07:26 Page:88
IFSFA_PARAM.SIG1
      5937**DCL      5937--REDEF
IFSFA_PARAM.SIG2
      5937**DCL      5938--REDEF
INPUT_ERR
      5103**DCL      9033<>CALL
IN_RES
      5510**DCL      5510--REDEF
IN_SN.SN
      5526**DCL      5527--REDEF
M$CLOSE
        28**DCL-ENT  9113--CALL
M$CORRES
        33**DCL-ENT  9054--CALL
M$EI#
      5979**DCL      9033<>CALL
M$EI$
      5979**DCL      9029>>IF       9050>>IF       9067>>IF       9094>>IF       9097>>IF
M$EO1$
      5980**DCL      9057>>CALL     9102>>IF
M$PFIL
        30**DCL-ENT  9099--CALL
M$READ
        29**DCL-ENT  9005--CALL
M$STD1$
      5982**DCL      9006>>ASSIGN   9111>>IF
M$WRITE
        29**DCL-ENT  9150--CALL
NEXT_FILE
      9067**LABEL    9109--GOTO
NEXT_SPEC_RET_VAL
      8730**DCL      9010<>CALL     9011>>DOWHILE  9013>>IF       9086<>CALL
NRECS_IN_COPY_FILE
      5916**DCL      9020<<ASSIGN   9026<<ASSIGN
OCB.FLAVOR.JE
      5319**DCL      9037>>IF
PL6.E3A0      #002=VPE$COPYALL File=VPE$COPY.:E05TSI                             WED 07/30/97 07:26 Page:89
OCB.FLAVOR.MANAGED
      5320**DCL      9055>>IF
OCB.TYPE
      5272**DCL      5273--REDEF
OFSFA_PARAM.EOMCHAR#
      5973**DCL      5974--REDEF
OFSFA_PARAM.SIG1
      5967**DCL      5967--REDEF
OFSFA_PARAM.SIG2
      5967**DCL      5968--REDEF
OLD_BREAKS
      5219**DCL      9071>>IF       9078<<ASSIGN   9144>>IF
OPEN_NEXT_RET_VAL
      8731**DCL      9016<>CALL     9018>>DOWHILE  9048<<ASSIGN   9080>>IF       9082<>CALL
OUT$BLK.CODE
      8501**DCL      8990>>DOCASE
OUT$BLK.NSUBLKS
      8505**DCL      8988>>DOINDEX
OUT$BLK.SUBLK$
      8526**DCL      8989>>ASSIGN   8996<>CALL
OUTSPEC$
      8734**DCL      8987<<ASSIGN   8994<<ASSIGN   9036<>CALL
OUT_COL
      5216**DCL      9143<<ASSIGN
OUT_SN.SN
      5544**DCL      5545--REDEF
PCB
      4572**DCL      9007<>CALL
PCB.ERROR
      4676**DCL      9129<>CALL
PCB.NCHARS
      4719**DCL      9006<<ASSIGN
PCB.OUT$
      4585**DCL      8988>>DOINDEX  8989>>ASSIGN   9008>>ASSIGN
PTR$
      8732**DCL      8989<<ASSIGN   8990>>DOCASE   8992>>ASSIGN   8994>>ASSIGN   8996>>CALL     8998<>CALL
PL6.E3A0      #002=VPE$COPYALL File=VPE$COPY.:E05TSI                             WED 07/30/97 07:26 Page:90
SOURCELIST$
      8733**DCL      8986<<ASSIGN   8992<<ASSIGN   9008<<ASSIGN   9010<>CALL
SPEC_BUF
      5222**DCL      5222--REDEF
STD_PARSE_ALT
      9129**LABEL    9007--CALLALT
STD_READ_ALT
      9123**LABEL    9005--CALLALT
STEP_ABORT_FLAG
      8729**DCL      8985<<ASSIGN   9105>>IF       9108<<ASSIGN   9120<<ASSIGN
TEXT$C.LEN
      8533**DCL      8534--IMP-SIZ
THIS_STD_FILE
      5216**DCL      9037>>IF       9070<<ASSIGN
TOT_FILES
      5221**DCL      9116>>IF
VPC$CALL_CLOSE
      8742**DCL-ENT  9041--CALL
VPC$SETOUT
      8750**DCL-ENT  9036--CALL
VPD$CLOSE_OUT
      8765**DCL-ENT  9053--CALL     9104--CALL
VPD$COUNTER_BUMP
      8771**DCL-ENT  9065--CALL
VPD$COUNTER_PRINT
      8772**DCL-ENT  9115--CALL
VPD$FINISH_NLIST
      8783**DCL-ENT  9092--CALL
VPD$INIT_STD_FILE
      8809**DCL-ENT  8998--CALL
VPD$MINIMIZE_BUF
      8777**DCL-ENT  9093--CALL
VPD$OUT_NAMES
      8784**DCL-ENT  9057--CALL     9060--CALL
VPE$BREAK_IN_COPYALL
      9136**ENTRY    9074--ASSIGN
PL6.E3A0      #002=VPE$COPYALL File=VPE$COPY.:E05TSI                             WED 07/30/97 07:26 Page:91
VPE$READ_WRITE
      8838**DCL-ENT  9046--CALL
VPF$CALL_OPEN
      8845**DCL-ENT  9031--CALL
VPF$CLOSE_IN
      8848**DCL-ENT  9040--CALL     9052--CALL     9069--CALL     9100--CALL
VPF$GET_NEXT_SPEC
      8851**DCL-ENT  9010--CALL     9086--CALL
VPF$OPEN_NEXT
      8854**DCL-ENT  9016--CALL     9082--CALL
VPF$SET_FROM_INFO
      8860**DCL-ENT  8996--CALL
VPG$SET_UP_WRITE
      8863**DCL-ENT  9045--CALL
VPL$ERR_NO_PRINT
      8921**DCL-ENT  9117--CALL
VPL$ERR_PROC
      8922**DCL-ENT  9033--CALL     9127--CALL     9129--CALL     9130--CALL
X$PARSE
      8739**DCL-ENT  9007--CALL
XSF$LOCCODP
      8948**DCL-ENT  9024--CALL
XUG$SIMULATE_BREAK
      8970**DCL-ENT  9076--CALL

