PL6.E3A0      #005=VPF$PROCESS_INPUT_OPT File=VPF$SRCLST.:E05TSI                 WED 07/30/97 07:40 Page:295
     1671        1        /*T***********************************************************/
     1672        2        /*T*                                                         */
     1673        3        /*T* Copyright (c) Bull HN Information Systems Inc., 1997    */
     1674        4        /*T*                                                         */
     1675        5        /*T***********************************************************/
     1676        6        VPF$PROCESS_INPUT_OPT: PROC(OPT$) ALTRET;
     1677        7        /*I* NAME: VPF$PROCESS_INPUT_OPT
     1678        8             PURPOSE: To validate and store into ICB the current option.
     1679        9             CALL: CALL VPF$PROCESS_INPUT_OPT(OPT$) ALTRET(BAD_OPTION);
     1680       10             DESCRIPTION: This procedure checks the current input option specified
     1681       11                          against CON_DUP_TBL to check if it is a conflicting or
     1682       12                          duplicate input option and against OPT_TBL to check if it is
     1683       13                          a valid option for this command and/or device type. If all of
     1684       14                          these checks are passed, the option is further processed for
     1685       15                          specific requirements and placed into ICB. The RET_VAL is
     1686       16                          set to 2 if an option is in error in any way.
     1687       17        */
     1688       18        /**/
     1689       19        /*  LOCAL AUTO  */
     1690       20        /**/
     1691       21    1   DCL OPT$ PTR;
     1692       22    1   DCL OPT_CODE SBIN WORD;
     1693       23    1   DCL TWORD UBIN WORD;
     1694       24    1   DCL T$ PTR;
     1695       25    1   DCL TO_KEY$ PTR;
     1696       26    1   DCL FROM_KEY$ PTR;
     1697       27    1   DCL I UBIN WORD;                        /* Temp. counter                      */
     1698       28    1   DCL J SBIN WORD;                        /* Temp.                              */
     1699       29        %INCLUDE B$JIT;
     1700      319        %INCLUDE VP_DATA_R;
     1701     7306        /**/
     1702     7307        /*  LOCAL CONSTANTS  */
     1703     7308        /**/
     1704     7309    1   DCL 1 OPT_TBL(0:%(MAX_IN_OP#+3)) CONSTANT,
     1705     7310                /*K* OPT_TBL.  Indexed by option code number from the parser (the
     1706     7311                 0th entry is trash), this table determines if the option is legal
     1707     7312                 for the command and input device, selects the error code if it
PL6.E3A0      #005=VPF$PROCESS_INPUT_OPT File=VPF$SRCLST.:E05TSI                 WED 07/30/97 07:40 Page:296
     1708     7313                 is not legal, and checks for duplicate and conflicting options       */
     1709     7314    1         2 CMD,
     1710     7315    1           3 ERR_CODE SBIN WORD INIT(0,
     1711     7316                    /*K* CMD.ERR_CODE VALUE-DEC. This is the error code number to
     1712     7317                     use if the option is not legal for this command.                 */
     1713     7318    1             26, 9, 0,36, 9,
     1714     7319    1              0, 9, 0, 0, 0,
     1715     7320    1              0, 8, 0, 0,42,
     1716     7321    1             44,44,44,47,49,
     1717     7322    1             50,51,52, 0,59,
     1718     7323    1              9,28,28, 0, 0,
     1719     7324    1             62, 9,65,65,66,
     1720     7325    1             66,270,270,
     1721     7326    1              0, 0, 0),                    /* SPARE for PATCHING only            */
     1722     7327        /*E* ERROR:   VPF-00008
     1723     7328             MESSAGE: Record selection not allowed this command
     1724     7329        */
     1725     7330        /*E* ERROR:   VPF-00009
     1726     7331             MESSAGE: A, EA, FA, COLS, or FFID not allowed this command
     1727     7332        */
     1728     7333        /*E*   ERROR: VPF-00036
     1729     7334             MESSAGE: CRPT not allowed this command
     1730     7335        */
     1731     7336        /*E*   ERROR: VPF-00026
     1732     7337             MESSAGE: SHARE not allowed this command
     1733     7338        */
     1734     7339        /*E*   ERROR: VPF-00042
     1735     7340             MESSAGE: EBCDIC not allowed this command
     1736     7341        */
     1737     7342        /*E*   ERROR: VPF-00044
     1738     7343             MESSAGE: BINARY,NBINARY or TRANSPARENT option not allowed this command
     1739     7344        */
     1740     7345        /*E*   ERROR: VPF-00047
     1741     7346             MESSAGE: FTORGANIZATION not allowed this command
     1742     7347        */
     1743     7348        /*E*   ERROR: VPF-00049
     1744     7349             MESSAGE: BLOCK not allowed this command
PL6.E3A0      #005=VPF$PROCESS_INPUT_OPT File=VPF$SRCLST.:E05TSI                 WED 07/30/97 07:40 Page:297
     1745     7350        */
     1746     7351        /*E*   ERROR: VPF-00050
     1747     7352             MESSAGE: RECLENGTH not allowed this command
     1748     7353        */
     1749     7354        /*E*   ERROR: VPF-00051
     1750     7355             MESSAGE: NSPANNED not allowed this command
     1751     7356        */
     1752     7357        /*E*   ERROR: VPF-00052
     1753     7358             MESSAGE: NBLOCKED not allowed this command
     1754     7359        */
     1755     7360        /*E*   ERROR: VPF-00059
     1756     7361             MESSAGE: SRCHCOND not allowed for this command
     1757     7362        */
     1758     7363        /*E*   ERROR: VPF-00028
     1759     7364             MESSAGE: HEAD/NHEAD not allowed for this command
     1760     7365        */
     1761     7366        /*E*   ERROR: VPF-00062
     1762     7367             MESSAGE: CLPOS not allowed for this command
     1763     7368        */
     1764     7369        /*E*   ERROR: VPF-00065
     1765     7370             MESSAGE: IOERROR/NIOERROR not allowed for this command
     1766     7371        */
     1767     7372        /*E*   ERROR: VPF-00066
     1768     7373             MESSAGE: IGNOREFSN/NIGNOREFSN not allowed for this command
     1769     7374        */
     1770     7375        /*E*   ERROR: VPF-00270
     1771     7376             MESSAGE: ANSISPAN/NANSISPAN not allowed for this command
     1772     7377        */
     1773     7378
     1774     7379    1           3 ALLOWED BIT(36) UNAL
     1775     7380    1             INIT('0'O,
     1776     7381                    /*K* CMD.ALLOWED VALUE-BIT(36). This is a mask used to determine
     1777     7382                     whether or not the option is legal with the command.  A '1'B
     1778     7383                     in the appropriate bit position indicates that the option is OK.
     1779     7384                     This format is suitable for ANDing with CMD_MASK.  Some commands
     1780     7385                     of interest are:
     1781     7386                         OCTAL VALUE        COMMAND
PL6.E3A0      #005=VPF$PROCESS_INPUT_OPT File=VPF$SRCLST.:E05TSI                 WED 07/30/97 07:40 Page:298
     1782     7387                         -----------        -------
     1783     7388                         20000              COPY
     1784     7389                         10000              COPYALL
     1785     7390                          4000              COPYSTD
     1786     7391                            40              LIST                                      */
     1787     7392    1             '341040000'O,'000700002'O,'777777777'O,'340100002'O,'000700000'O,
     1788     7393    1             '777777777'O,'000700002'O,'777777777'O,'777777777'O,'777777777'O,
     1789     7394    1             '777777777'O,'341000000'O,'777777777'O,'777777777'O,'340000000'O,
     1790     7395    1             '340000000'O,'340000000'O,'340000000'O,'340000000'O,'340000000'O,
     1791     7396    1             '340000000'O,'340000000'O,'340000000'O,'777777777'O,'777777777'O,
     1792     7397    1             '000700002'O,'340000000'O,'340000000'O,'777777777'O,'777777777'O,
     1793     7398    1             '240000000'O,'000700002'O,'340400000'O,'340400000'O,'340400000'O,
     1794     7399    1             '340400000'O,'340400000'O,'340400000'O,
     1795     7400    1   '000000000'O,'000000000'O,'000000000'O), /* SPARE for PATCHING ONLY           */
     1796     7401    1         2 CON_DUP_IDX UBIN BYTE UNAL INIT(0,
     1797     7402                    /*K* CON_DUP_IDX VALUE-DEC. This is is an index into CON_DUP_TBL,
     1798     7403                     a binary array.  When an option is used, that entry in the array
     1799     7404                     is set.  Subsequent attempts to use a set bit indicate that a
     1800     7405                     duplicate exists.  Conflicting options are done the same way.  If
     1801     7406                     CON_DUP_IDX is 0, no conflict is possible and duplicates are OK. */
     1802     7407    1            0, 2, 3, 4, 2,
     1803     7408    1            5, 2, 1, 6, 7,
     1804     7409    1            8, 0,20,10,11,
     1805     7410    1           12,12, 9,13,14,
     1806     7411    1           15,16,17,18,19,
     1807     7412    1            0,21,21,22,23,
     1808     7413    1           24, 2,33,33,35,
     1809     7414    1           35,22,0,
     1810     7415    1            0, 0, 0),                      /* SPARE for PATCHING ONLY            */
     1811     7416    1         2 DEV,
     1812     7417    1           3 ALLOWED BIT(9) UNAL INIT('0'O,
     1813     7418                    /*K* DEV.ALLOWED VALUE-BIT(9). This is a mask used to determine
     1814     7419                     whether or not the option is legal with the device.  A '1'B
     1815     7420                     in the appropriate bit position indicates that the option is OK.
     1816     7421                     This format is suitable for ANDing with ICB.DEV_MASK.  Device
     1817     7422                     codes are:
     1818     7423                         OCTAL VALUE        DEVICE
PL6.E3A0      #005=VPF$PROCESS_INPUT_OPT File=VPF$SRCLST.:E05TSI                 WED 07/30/97 07:40 Page:299
     1819     7424                         -----------        -------
     1820     7425                                400            Default. Denotes COMGROUP or
     1821     7426                                               non-tape device.
     1822     7427                                200            Managed disk.
     1823     7428                                100            Managed tape.
     1824     7429                                040            Device tape.
     1825     7430        */
     1826     7431    1             '200'O,'777'O,'100'O,'200'O,'777'O,
     1827     7432    1             '040'O,'777'O,'140'O,'140'O,'300'O,
     1828     7433    1             '100'O,'777'O,'300'O,'140'O,'040'O,
     1829     7434    1             '440'O,'440'O,'440'O,'140'O,'140'O,
     1830     7435    1             '140'O,'040'O,'040'O,'300'O,'300'O,
     1831     7436    1             '200'O,'777'O,'777'O,'300'O,'200'O,
     1832     7437    1             '140'O,'777'O,'140'O,'140'O,'100'O,
     1833     7438    1             '100'O,'100'O,'100'O,
     1834     7439    1             '000'O,'000'O,'000'O),        /* SPARE for PATCHING ONLY            */
     1835     7440    1           3 ERR_CODE SBIN WORD INIT(0,
     1836     7441                    /*K* DEV.ERR_CODE VALUE-DEC. This is the error code number to
     1837     7442                     use if the option is not legal for this device.                  */
     1838     7443    1             27, 0,11,12, 0,
     1839     7444    1             13, 0,10,14,15,
     1840     7445    1             16, 0,17,18,43,
     1841     7446    1             45,45,45,48,48,
     1842     7447    1             48,64,64,57,60,
     1843     7448    1              0, 0, 0,31,61,
     1844     7449    1             38, 0,66,66,67,
     1845     7450    1             67,271,271,
     1846     7451    1              0, 0, 0);                    /* SPARE for PATCHING ONLY            */
     1847     7452        /*E* ERROR:   VPF-00010
     1848     7453             MESSAGE: NCNVRT allowed for tapes only.
     1849     7454        */
     1850     7455        /*E* ERROR:   VPF-00011
     1851     7456             MESSAGE: CATENATE allowed for labeled tape only
     1852     7457        */
     1853     7458        /*E* ERROR:   VPF-00012
     1854     7459             MESSAGE: CRPT allowed for disk files only
     1855     7460        */
PL6.E3A0      #005=VPF$PROCESS_INPUT_OPT File=VPF$SRCLST.:E05TSI                 WED 07/30/97 07:40 Page:300
     1856     7461        /*E* ERROR:   VPF-00013
     1857     7462             MESSAGE: DEOD not allowed
     1858     7463        */
     1859     7464        /*E* ERROR:   VPF-00014
     1860     7465             MESSAGE: FSN allowed on tape only
     1861     7466        */
     1862     7467        /*E* ERROR:   VPF-00015
     1863     7468             MESSAGE: File selection by ORG allowed on managed files only
     1864     7469        */
     1865     7470        /*E* ERROR:   VPF-00016
     1866     7471             MESSAGE: PHYSICAL allowed on managed tape only
     1867     7472        */
     1868     7473        /*E* ERROR:   VPF-00017
     1869     7474             MESSAGE: File selection by TYPE allowed on managed files only
     1870     7475        */
     1871     7476        /*E* ERROR:   VPF-00018
     1872     7477             MESSAGE: VOLUME allowed on tape only
     1873     7478        */
     1874     7479        /*E*   ERROR: VPF-00027
     1875     7480             MESSAGE: SHARE allowed for disk files only
     1876     7481        */
     1877     7482        /*E*   ERROR: VPF-00043
     1878     7483             MESSAGE: EBCDIC allowed for free tape only
     1879     7484        */
     1880     7485        /*E*   ERROR: VPF-00045
     1881     7486             MESSAGE: BINARY,NBINARY or TRANSPARENT input option allowed for devices only
     1882     7487        */
     1883     7488        /*E*   ERROR: VPF-00048
     1884     7489             MESSAGE: FTORGANIZATION,BLOCK, or RECLENGTH allowed for tapes only
     1885     7490        */
     1886     7491        /*E*   ERROR: VPF-00064
     1887     7492             MESSAGE: NSPANNED or NBLOCKED allowed for FT only
     1888     7493        */
     1889     7494        /*E*   ERROR: VPF-00057
     1890     7495             MESSAGE: File selection by DATE on managed files only
     1891     7496        */
     1892     7497        /*E*   ERROR: VPF-00060
PL6.E3A0      #005=VPF$PROCESS_INPUT_OPT File=VPF$SRCLST.:E05TSI                 WED 07/30/97 07:40 Page:301
     1893     7498             MESSAGE: SRCHCOND is only valid for managed files
     1894     7499        */
     1895     7500        /*E*   ERROR: VPF-00031
     1896     7501             MESSAGE: CREATOR is only valid for managed files
     1897     7502        */
     1898     7503        /*E*   ERROR: VPF-00061
     1899     7504             MESSAGE: File selection in SORTED order is only valid on disk files.
     1900     7505        */
     1901     7506        /*E*   ERROR: VPF-00038
     1902     7507             MESSAGE: CLPOS option only valid for tapes.
     1903     7508        */
     1904     7509        /*E*   ERROR: VPF-00068
     1905     7510             MESSAGE: IOERROK or NIOERROK allowed for tape only
     1906     7511        */
     1907     7512        /*E*   ERROR: VPF-00067
     1908     7513             MESSAGE: IGNOREFSN or NIGNOREFSN allowed for managed tape only
     1909     7514        */
     1910     7515        /*E*   ERROR: VPF-00271
     1911     7516             MESSAGE: ANSISPAN and NANSISPAN are valid for labelled tape only
     1912     7517        */
     1913     7518
     1914     7519        /**/
     1915     7520        /*  BASED  */
     1916     7521        /**/
     1917     7522        %PARSE$OUT(NAME=OUT$BLK,STCLASS=BASED);
     1918     7567        %PARSE$SYM(NAME=OUT$SYM,STCLASS=BASED);
     1919     7605    1   DCL 1 TEXT$C BASED,
     1920     7606    1         2 LEN UBIN BYTE UNAL,
     1921     7607    1         2 STRING CHAR(TEXT$C.LEN);
     1922     7608        /**/
     1923     7609        /*  LOCAL STATIC  */
     1924     7610        /**/
     1925     7611    1   DCL DATE_TYPE UBIN STATIC;
     1926     7612        %FPT_TIME (FPTN = FPT_MAKE_TIME,
     1927     7613                   STCLASS = STATIC,
     1928     7614                   SOURCE = UTS,
     1929     7615                   DEST = EXT,
PL6.E3A0      #005=VPF$PROCESS_INPUT_OPT File=VPF$SRCLST.:E05TSI                 WED 07/30/97 07:40 Page:302
     1930     7616                   TSTAMP = ICB.DATE.UTS,
     1931     7617                   DATE = ICB.DATE.TEXT);
     1932     7636        /**/
     1933     7637        /*  ENTRY DCLS  */
     1934     7638        /**/
     1935     7639        %VP_ENTRIES (OMIT=VPF$PROCESS_INPUT_OPT);
     1936     7847        /**/
     1937     7848    1           OPT_CODE = OPT$->OUT$BLK.CODE;
     1938     7849    1           IF CON_DUP_TBL(OPT_TBL.CON_DUP_IDX(OPT_CODE)) AND
     1939     7850    1             OPT_TBL.CON_DUP_IDX(OPT_CODE)~=0
     1940     7851    1            THEN
     1941     7852    2            DO;
     1942     7853    2               CALL VPL$ERR_PROC(3,19,'06'O,,,,,1); /* CONFLICTING OR DUPLICATE  */
     1943     7854        /*E* ERROR:   VPF-00019
     1944     7855             MESSAGE: Duplicate or conflicting input option
     1945     7856        */
     1946     7857    2               ALTRETURN;                  /* INPUT OPTION                       */
     1947     7858    2               END;
     1948     7859    1           IF NOT (OPT_TBL.CMD.ALLOWED(OPT_CODE) & CMD_MASK)
     1949     7860    1            THEN
     1950     7861    2            DO;
     1951     7862    2               CALL VPL$ERR_PROC(3,OPT_TBL.CMD.ERR_CODE(OPT_CODE),'06'O,,,,,1);
     1952     7863    2               ALTRETURN;
     1953     7864    2               END;
     1954     7865    1           IF NOT (OPT_TBL.DEV.ALLOWED(OPT_CODE) & ICB.DEV_MASK
     1955     7866    1             OR IN_RES = 'NO  ' )          /* Device NO has all options legal    */
     1956     7867    1            THEN
     1957     7868    2            DO;
     1958     7869    2               CALL VPL$ERR_PROC(3,OPT_TBL.DEV.ERR_CODE(OPT_CODE),'06'O,,,,,1);
     1959     7870    2               ALTRETURN;
     1960     7871    2               END;
     1961     7872    1           CON_DUP_TBL(OPT_TBL.CON_DUP_IDX(OPT_CODE)) = '1'B;
     1962     7873    2           DO CASE(OPT_CODE);
     1963     7874    2            CASE(1);                       /* SHARE                              */
     1964     7875    2              ICB.SHARE = %ALL#;
     1965     7876    2            CASE(2);                       /* ATTRIBUTES                         */
     1966     7877    2              ICB.A_EA_C = 3;
PL6.E3A0      #005=VPF$PROCESS_INPUT_OPT File=VPF$SRCLST.:E05TSI                 WED 07/30/97 07:40 Page:303
     1967     7878    2            CASE(3);                       /* CATENATE                           */
     1968     7879    2              CALL VPD$TEXTC_CHARBIN(TWORD,
     1969     7880    2                OPT$->OUT$BLK.SUBLK$(0)->OUT$BLK.SUBLK$(0),
     1970     7881    2                128) ALTRET(BAD_CAT);
     1971     7882    2              ICB.CAT = TWORD;
     1972     7883    2              GOTO GOOD_CAT;
     1973     7884    2   BAD_CAT:   CALL VPL$ERR_PROC(3,20,'06'O,,,,,1); /* CAT OPTION MAX. 128        */
     1974     7885        /*E* ERROR:   VPF-00020
     1975     7886             MESSAGE: CAT greater than 128
     1976     7887        */
     1977     7888    2              ALTRETURN;
     1978     7889    2   GOOD_CAT:  ;
     1979     7890    2            CASE(4);                       /* CRPT                               */
     1980     7891    2              CALL VPD$MNG_CRPT(ICB.CRPT,OPT$->OUT$BLK.SUBLK$(0)) ALTRET(BAD_CRPT);
     1981     7892    3              DO WHILE ('0'B);
     1982     7893    3   BAD_CRPT:     CALL VPL$ERR_PROC(3,21,'06'O,,,,,1);
     1983     7894    3                 ALTRETURN;
     1984     7895        /*E* ERROR:   VPF-00021
     1985     7896             MESSAGE: Invalid CRPT value on input.
     1986     7897        */
     1987     7898    3                 END;
     1988     7899    2            CASE(5);                       /* COLS                               */
     1989     7900    2              CALL VPD$TEXTC_CHARBIN(ICB.COLS,
     1990     7901    2                OPT$->OUT$BLK.SUBLK$(0)->OUT$BLK.SUBLK$(0),
     1991     7902    2                -1) ALTRET(BAD_COLS);
     1992     7903    2              ICB.A_EA_C = 1;
     1993     7904    2              GOTO GOOD_COLS;
     1994     7905    2   BAD_COLS:  CALL VPL$ERR_PROC(3,22,'06'O,,,,,1); /* COLUMNS OPTION MAXIMUM 99  */
     1995     7906        /*E* ERROR:   VPF-00022
     1996     7907             MESSAGE: COLS greater than 99
     1997     7908        */
     1998     7909    2              ALTRETURN;
     1999     7910    2   GOOD_COLS: IF ICB.COLS=0
     2000     7911    2               THEN
     2001     7912    2                 ICB.COLS = 132;
     2002     7913    2            CASE(6);                       /* DEOD                               */
     2003     7914    2              ICB.DEOD = 1;
PL6.E3A0      #005=VPF$PROCESS_INPUT_OPT File=VPF$SRCLST.:E05TSI                 WED 07/30/97 07:40 Page:304
     2004     7915    2            CASE(7);                       /* EATTRIBUTES                        */
     2005     7916    2              ICB.A_EA_C = 4;
     2006     7917    2            CASE(8);                       /* NCNVRT                             */
     2007     7918    2              ICB.NCNVRT = %YES#;
     2008     7919    2            CASE(9);                       /* FSN                                */
     2009     7920    2              IF RESULTS_FID_IN.NAME
     2010     7921    2               THEN
     2011     7922    3               DO;
     2012     7923    3                  CALL VPL$ERR_PROC(3,23,'06'O,,,,,1); /* FSN ILLEGAL WITH NAME  */
     2013     7924        /*E* ERROR:   VPF-00023
     2014     7925             MESSAGE: FSN illegal with named file
     2015     7926        */
     2016     7927    3                  ALTRETURN;
     2017     7928    3                  END;
     2018     7929    2               ELSE
     2019     7930    3               DO;
     2020     7931    3                  CALL VPD$TEXTC_CHARBIN(TWORD,
     2021     7932    3                    OPT$->OUT$BLK.SUBLK$(0)->OUT$BLK.SUBLK$(0),
     2022     7933    3                    32767) ALTRET(BAD_FSN);
     2023     7934    3                  ICB.FSN.START = TWORD;
     2024     7935    3                  IF OPT$->OUT$BLK.NSUBLKS>1
     2025     7936    3                   THEN
     2026     7937    4                   DO;
     2027     7938    4                      CALL VPD$TEXTC_CHARBIN(TWORD,
     2028     7939    4                        OPT$->OUT$BLK.SUBLK$(1)->OUT$BLK.SUBLK$(0),
     2029     7940    4                        32767) ALTRET(BAD_FSN);
     2030     7941    4                      ICB.FSN.FINISH = TWORD;
     2031     7942    4                      IF ICB.FSN.START>ICB.FSN.FINISH
     2032     7943    4                       THEN
     2033     7944    5                       DO;
     2034     7945    5                          CALL VPL$ERR_PROC(3,25,'06'O,,,,,1);
     2035     7946        /*E* ERROR:   VPF-00025
     2036     7947             MESSAGE: Bad FSN range
     2037     7948        */
     2038     7949                                                /* BAD FSN RANGE                      */
     2039     7950    5                          ALTRETURN;
     2040     7951    5                          END;
PL6.E3A0      #005=VPF$PROCESS_INPUT_OPT File=VPF$SRCLST.:E05TSI                 WED 07/30/97 07:40 Page:305
     2041     7952    4                      END;
     2042     7953    3                  END;
     2043     7954    2              GOTO GOOD_FSN;
     2044     7955    2   BAD_FSN:   CALL VPL$ERR_PROC(3,24,'06'O,,,,,1); /* FSN VALUE TOO LARGE        */
     2045     7956        /*E* ERROR:   VPF-00024
     2046     7957             MESSAGE: FSN too large
     2047     7958        */
     2048     7959    2              ALTRETURN;
     2049     7960    2   GOOD_FSN:  ;
     2050     7961    2            CASE(10);                      /* ORGS                               */
     2051     7962    2              ICB.ORG = '0'B;
     2052     7963    3              DO TWORD=0 TO OPT$->OUT$BLK.NSUBLKS-1;
     2053     7964    3                 I = OPT$ -> OUT$BLK.SUBLK$(TWORD) -> OUT$BLK.CODE; /* ORG code  */
     2054     7965    3                 IF I=99 THEN              /* This means the ~= was specified    */
     2055     7966    3                    ICB.ORG_NEG = '1'B;
     2056     7967    3                  ELSE
     2057     7968    3                    ICB.ORG(ORG_TBL.ORG_MON(I)) = '1'B;
     2058     7969    3                 END;
     2059     7970    2            CASE(11);                      /* PHYSICAL                           */
     2060     7971    2              ICB.PHYSICAL = 1;
     2061     7972    2            CASE(12);                      /* RECORD SELECTION                   */
     2062     7973    2              IF KEY_AREA$=ADDR(NIL) THEN  /* First one encountered?             */
     2063     7974    2                 CALL VPD$GET_BUF(KEY_AREA$,2048) /* Get two pages for keys      */
     2064     7975    3                  WHENALTRETURN DO;
     2065     7976    3                     CALL VPL$ERR_PROC(3,0);
     2066     7977    3                     END;
     2067     7978    2              IF REC_SEL_CNT>9
     2068     7979    2               THEN
     2069     7980    3               DO;
     2070     7981    3                  CALL VPL$ERR_PROC(3,40,'06'O,,,,,1); /* ABORT and return       */
     2071     7982        /*E* ERROR:   VPF-00040
     2072     7983             MESSAGE: More than 10 record selections
     2073     7984        */
     2074     7985    3                  ALTRETURN;
     2075     7986    3                  END;
     2076     7987    2               ELSE
     2077     7988    3               DO;
PL6.E3A0      #005=VPF$PROCESS_INPUT_OPT File=VPF$SRCLST.:E05TSI                 WED 07/30/97 07:40 Page:306
     2078     7989    3                  T$ = OPT$->OUT$BLK.SUBLK$(0);
     2079     7990    3                  ICB.REC_SEL.SPEC.TYPE(REC_SEL_CNT) = T$->OUT$BLK.CODE;
     2080     7991    3                  ICB.REC_SEL.SPEC.START.KEY$(REC_SEL_CNT) = ADDR(NIL);
     2081     7992    3                  ICB.REC_SEL.SPEC.FINISH.KEY$(REC_SEL_CNT) = ADDR(NIL);
     2082     7993    3                  IF T$->OUT$BLK.CODE = 1
     2083     7994    4                   THEN DO;                /* Logical record selection           */
     2084     7995    4                      ICB.LREC_SEL = '1'B;
     2085     7996    4                      TO_KEY$ = ADDR(ICB.REC_SEL.SPEC.START.SEQ(REC_SEL_CNT));
     2086     7997    4                      END;
     2087     7998    4                   ELSE DO;                /* Keyed record selection             */
     2088     7999    4                      ICB.KEY_SEL = '1'B;
     2089     8000    4                      TO_KEY$=KEY_AREA$;
     2090     8001    4                      END;
     2091     8002    3                  FROM_KEY$ = T$->OUT$BLK.SUBLK$(0);
     2092     8003    3                  CALL VPD$GET_KEY_OR_NUM(FROM_KEY$,TO_KEY$) ALTRET(BAD_KEY1);
     2093     8004    4                  IF ICB.REC_SEL.SPEC.TYPE(REC_SEL_CNT)=1 THEN DO;
     2094     8005    4                      ICB.REC_SEL.SPEC.START.KEY$(REC_SEL_CNT)=ADDR(NIL);
     2095     8006    4                      ICB.REC_SEL.SPEC.FINISH.KEY$(REC_SEL_CNT)=ADDR(NIL);
     2096     8007    4                      END;
     2097     8008    4                   ELSE DO;
     2098     8009    4                      ICB.REC_SEL.SPEC.START.KEY$(REC_SEL_CNT)=KEY_AREA$;
     2099     8010    4                      KEY_AREA$=PINCRC(KEY_AREA$,KEY_AREA$->TEXT$C.LEN+1);
              8010                               /* move avail ptr*/
     2100     8011    4                      END;
     2101     8012    4                  DO WHILE ('0'B);         /* Never do                           */
     2102     8013    4   BAD_KEY1:         ALTRETURN;            /* Record selection problems          */
     2103     8014    4                     END;
     2104     8015                                                /* INSURE A RANGE                     */
     2105     8016    3                  IF T$->OUT$BLK.NSUBLKS>1
     2106     8017    3                   THEN                    /* A range, not a single record       */
     2107     8018    3                     IF T$->OUT$BLK.SUBLK$(1)->OUT$BLK.CODE=5
     2108     8019    3                      THEN
     2109     8020    3                        ;                  /* Open ended range specified         */
     2110     8021    4                      ELSE DO;             /* A range end was specified          */
     2111     8022    4                         FROM_KEY$ = T$->OUT$BLK.SUBLK$(1);
     2112     8023    4                         IF ICB.REC_SEL.SPEC.TYPE(REC_SEL_CNT)=1 THEN
     2113     8024    4                            TO_KEY$=ADDR(ICB.REC_SEL.SPEC.FINISH.SEQ(REC_SEL_CNT));
PL6.E3A0      #005=VPF$PROCESS_INPUT_OPT File=VPF$SRCLST.:E05TSI                 WED 07/30/97 07:40 Page:307
     2114     8025    4                          ELSE
     2115     8026    4                            TO_KEY$=KEY_AREA$;
     2116     8027    4                         CALL VPD$GET_KEY_OR_NUM(FROM_KEY$,TO_KEY$) ALTRET(BAD_KEY2);
     2117     8028    5                         IF ICB.REC_SEL.SPEC.TYPE(REC_SEL_CNT)=2 THEN DO;
     2118     8029    5                             ICB.REC_SEL.SPEC.FINISH.KEY$(REC_SEL_CNT)=KEY_AREA$;
     2119     8030    5                             KEY_AREA$=PINCRC(KEY_AREA$,KEY_AREA$->TEXT$C.LEN+1);
     2120     8031    5                             END;
     2121     8032    5                         DO WHILE ('0'B);  /* Never do                           */
     2122     8033    5   BAD_KEY2:                ALTRETURN;     /* Record selection problems          */
     2123     8034    5                            END;
     2124     8035    4                         I=0;
     2125     8036    4                         IF ICB.REC_SEL.SPEC.START.KEY$(REC_SEL_CNT)~=ADDR(NIL) THEN
     2126     8037    4                            IF ICB.REC_SEL.SPEC.START.KEY$(REC_SEL_CNT)->TEXT$C.STRING
     2127     8038    4                              > ICB.REC_SEL.SPEC.FINISH.KEY$(REC_SEL_CNT)->TEXT$C.
              8038                                       STRING THEN
     2128     8039    4                               I=1;
     2129     8040    4                         IF I=1 OR ICB.REC_SEL.SPEC.START.SEQ(REC_SEL_CNT) >
     2130     8041    4                           ICB.REC_SEL.SPEC.FINISH.SEQ(REC_SEL_CNT)
     2131     8042    4                          THEN
     2132     8043    5                          DO;
     2133     8044    5                             CALL VPL$ERR_PROC(3,29,'06'O,,,,,1);
     2134     8045        /*E* ERROR:   VPF-00029
     2135     8046             MESSAGE: Bad record selection range
     2136     8047        */
     2137     8048    5                             ALTRETURN;    /* BAD RECORD SELECTION RANGE         */
     2138     8049    5                             END;
     2139     8050    4                         END;
     2140     8051    3                   ELSE                    /* A single record selected           */
     2141     8052    3                     ICB.REC_SEL.SPEC.FINISH(REC_SEL_CNT) = ICB.REC_SEL.SPEC.START(
              8052                              REC_SEL_CNT);
     2142     8053    3                  REC_SEL_CNT = REC_SEL_CNT+1;
     2143     8054    3                  END;
     2144     8055    2            CASE(13);                      /* TYPE                               */
     2145     8056    2              IF OPT$->OUT$BLK.NSUBLKS>10
     2146     8057    2               THEN
     2147     8058    3               DO;
     2148     8059    3                  CALL VPL$ERR_PROC(3,32,'06'O,,,,,1); /* TOO MANY TYPES GIVEN   */
PL6.E3A0      #005=VPF$PROCESS_INPUT_OPT File=VPF$SRCLST.:E05TSI                 WED 07/30/97 07:40 Page:308
     2149     8060        /*E* ERROR:   VPF-00032
     2150     8061             MESSAGE: More than 10 TYPE's specified
     2151     8062        */
     2152     8063        /*E* ERROR:   VPF-00033
     2153     8064             MESSAGE: TYPE greater than 2 chars
     2154     8065        */
     2155     8066    3                  ALTRETURN;
     2156     8067    3                  END;
     2157     8068    2               ELSE
     2158     8069    3               DO;
     2159     8070    3                  ICB.TYPE.COUNT = 0;
     2160     8071    3                  I=0;
     2161     8072    4                  IF OPT$->OUT$BLK.SUBLK$(0)->OUT$BLK.CODE=99 THEN DO;
     2162     8073    4                      ICB.TYPE.NEG='1'B;
     2163     8074    4                      I=1;
     2164     8075    4                      END;
     2165     8076    4                  DO WHILE(I<OPT$->OUT$BLK.NSUBLKS);
     2166     8077    4                     T$ = OPT$->OUT$BLK.SUBLK$(I);
     2167     8078    4                     IF T$->OUT$SYM.COUNT>2
     2168     8079    4                      THEN
     2169     8080    5                      DO;
     2170     8081    5                         CALL VPL$ERR_PROC(3,33,'06'O,,,,,1);
     2171     8082    5                         ALTRETURN;        /* TYPE TOO LONG                      */
     2172     8083    5                         END;
     2173     8084    4                      ELSE
     2174     8085    4                        ICB.TYPE.STRING(ICB.TYPE.COUNT) = T$->OUT$SYM.TEXT;
     2175     8086    4                     ICB.TYPE.COUNT = ICB.TYPE.COUNT+1;
     2176     8087    4                     I=I+1;
     2177     8088    4                     END;
     2178     8089    3                  END;
     2179     8090    2            CASE(14);                      /* VOLUME                             */
     2180     8091    2              CALL VPD$TEXTC_CHARBIN(TWORD,
     2181     8092    2                OPT$->OUT$BLK.SUBLK$(0)->OUT$BLK.SUBLK$(0),
     2182     8093    2                511) ALTRET(BAD_VOL);
     2183     8094    2              ICB.VOL = TWORD;
     2184     8095    2              GOTO GOOD_VOL;
     2185     8096    2   BAD_VOL:   CALL VPL$ERR_PROC(3,34,'06'O,,,,,1); /* VOLUME VALUE TOO LARGE     */
PL6.E3A0      #005=VPF$PROCESS_INPUT_OPT File=VPF$SRCLST.:E05TSI                 WED 07/30/97 07:40 Page:309
     2186     8097        /*E* ERROR:   VPF-00034
     2187     8098             MESSAGE: VOLUME too large
     2188     8099        */
     2189     8100    2              ALTRETURN;
     2190     8101    2   GOOD_VOL:  ;
     2191     8102    2            CASE(15);                      /* EBCDIC                             */
     2192     8103    2              ICB.EBCDIC = %YES#;
     2193     8104    2            CASE(16);                      /* BINARY                             */
     2194     8105    2              ICB.BIN = %YES#;
     2195     8106    2            CASE(17);                      /* NBINARY                            */
     2196     8107    2              ICB.BIN = %NO#;
     2197     8108    2            CASE(18);                      /* TRANSPARENT                        */
     2198     8109    2              ICB.TRANS = %YES#;
     2199     8110    2            CASE(19);                      /* FTORGANIZATION                     */
     2200     8111    2              I = OPT$ -> OUT$BLK.SUBLK$(0) -> OUT$BLK.CODE; /* PCL's ORG code   */
     2201     8112    2              ICB.FTORG = ORG_TBL.ORG_MON(I);
     2202     8113    2            CASE(20);                      /* BLOCK                              */
     2203     8114    2              CALL VPD$TEXTC_CHARBIN(TWORD,
     2204     8115    2                OPT$->OUT$BLK.SUBLK$(0)->OUT$BLK.SUBLK$(0),
     2205     8116    2                32767) ALTRET(BAD_BLKL);
     2206     8117    2              ICB.BLKL = TWORD;
     2207     8118    2              GOTO GOOD_BLKL;
     2208     8119    2   BAD_BLKL:  CALL VPL$ERR_PROC(3,53,'06'O,,,,,1); /* BLKL TOO LARGE             */
     2209     8120        /*E*   ERROR: VPF-00053
     2210     8121             MESSAGE: BLOCK too large */
     2211     8122    2              ALTRETURN;
     2212     8123    2   GOOD_BLKL: ;
     2213     8124    2            CASE(21);                      /* RECL                               */
     2214     8125    2              CALL VPD$TEXTC_CHARBIN(TWORD,
     2215     8126    2                OPT$->OUT$BLK.SUBLK$(0)->OUT$BLK.SUBLK$(0),
     2216     8127    2                262143) ALTRET(BAD_RECL);
     2217     8128    2              ICB.RECL = TWORD;
     2218     8129    2              GOTO GOOD_RECL;
     2219     8130    2   BAD_RECL:  CALL VPL$ERR_PROC(3,54,'06'O,,,,,1); /* RECL TOO LARGE             */
     2220     8131        /*E*   ERROR: VPF-00054
     2221     8132             MESSAGE: RECLENGTH too large */
     2222     8133    2              ALTRETURN;
PL6.E3A0      #005=VPF$PROCESS_INPUT_OPT File=VPF$SRCLST.:E05TSI                 WED 07/30/97 07:40 Page:310
     2223     8134    2   GOOD_RECL: ;
     2224     8135    2            CASE(22);                      /* NSPANNED                           */
     2225     8136    2              ICB.NSPAN = %YES#;
     2226     8137    2            CASE(23);                      /* NBLOCKED                           */
     2227     8138    2              ICB.NBLOCK = %YES#;
     2228     8139    2            CASE(24);                      /* DATE                               */
     2229     8140    2              ICB.DATE.TYPE = OPT$->OUT$BLK.SUBLK$(0)->OUT$BLK.CODE;
     2230     8141    2              ICB.DATE.RELATION = OPT$->OUT$BLK.SUBLK$(1)->OUT$BLK.CODE;
     2231     8142    2              CALL VPD$PROCESS_DATE(OPT$->OUT$BLK.SUBLK$(2),DATE_TYPE,
     2232     8143    2                ICB.DATE.UTS,ICB.DATE.ROUNDING_TYPE) ALTRET(BAD_SEL_DATE);
     2233     8144    3              DO CASE(DATE_TYPE);
     2234     8145    3               CASE(1,5,6);                /* Selection date is specified        */
     2235     8146    3                 CALL M$TIME(FPT_MAKE_TIME); /* Turn UTS into ICB.DATE.TEXT      */
     2236     8147    3               CASE(2);                    /* Selection date is TODAY            */
     2237     8148    3                 ICB.DATE.TEXT = 'TODAY';  /* Text for DEL confirmation          */
     2238     8149    3               CASE(3);                    /* Selection date is NEVER            */
     2239     8150    3                 ICB.DATE.UTS = BITBIN('777777777777'O);
     2240     8151    3                 ICB.DATE.TEXT = 'NEVER';  /* Text for DEL confirmation          */
     2241     8152    3               CASE(4);                    /* Selection date is NOW              */
     2242     8153    3                 ICB.DATE.TEXT = 'NOW';    /* Text for DEL confirmation          */
     2243     8154    3               END;                        /* End DO CASE selection date         */
     2244     8155    3              DO WHILE ('0'B);             /* NEVER DO                           */
     2245     8156    3   BAD_SEL_DATE: CALL VPL$ERR_PROC(3,58,'06'O,,,,,1);
     2246     8157        /*E*   ERROR: VPF-00058
     2247     8158             MESSAGE: Bad file selection date
     2248     8159        */
     2249     8160    3                 ALTRETURN;
     2250     8161    3                 END;
     2251     8162    2            CASE(25);                      /* SRCHCOND specified                 */
     2252     8163    3              DO I = 0 TO (OPT$ -> OUT$BLK.NSUBLKS -1);
     2253     8164    4                 DO CASE(OPT$ -> OUT$BLK.SUBLK$(I) -> OUT$BLK.CODE);
     2254     8165    4                  CASE(1);
     2255     8166    4                    ICB.SRCHCOND.DELF = %YES#;
     2256     8167    4                  CASE(2);
     2257     8168    4                    ICB.SRCHCOND.NOLIST = %YES#;
     2258     8169    4                  CASE(3);
     2259     8170    4                    ICB.SRCHCOND.BUF = %YES#;
PL6.E3A0      #005=VPF$PROCESS_INPUT_OPT File=VPF$SRCLST.:E05TSI                 WED 07/30/97 07:40 Page:311
     2260     8171    4                  CASE(4);
     2261     8172    4                    ICB.SRCHCOND.BAD = %YES#;
     2262     8173    4                  CASE(5);
     2263     8174    4                    ICB.SRCHCOND.ANYF = %YES#;
     2264     8175    4                  CASE(6);
     2265     8176    4                    ICB.SRCHCOND.REV = %YES#;
     2266     8177    4                  CASE(7);
     2267     8178    4                    ICB.SRCHCOND.QS = %YES#;
     2268     8179    4                  CASE(8);
     2269     8180    4                    ICB.SRCHCOND.ARCHIVE = %YES#;
     2270     8181    4                  END;                     /* END CASE                           */
     2271     8182    3                 END;
     2272     8183    2            CASE(26);                      /* FFID                               */
     2273     8184    2              ICB.FFID = '1'B;
     2274     8185    2            CASE(27);                      /* NHEAD option                       */
     2275     8186    2              ICB.HEAD_OPT = 1;
     2276     8187    2            CASE(28);                      /* HEAD option                        */
     2277     8188    2              ICB.HEAD_OPT = 2;
     2278     8189    2            CASE(29);                      /* CREATOR select option              */
     2279     8190    2              I=0;
     2280     8191    3              IF OPT$->OUT$BLK.SUBLK$(0)->OUT$BLK.CODE=99 THEN DO;
     2281     8192    3                  I=1;
     2282     8193    3                  ICB.CREATOR_NEG = '1'B;
     2283     8194    3                  END;
     2284     8195    2              IF OPT$ -> OUT$BLK.SUBLK$(I) -> OUT$SYM.TEXT = 'ME'
     2285     8196    2                OR OPT$ -> OUT$BLK.SUBLK$(I) -> OUT$SYM.TEXT = 'me'
     2286     8197    2               THEN
     2287     8198    3               DO;
     2288     8199    3                  ICB.CREATOR_SEL = 1;
     2289     8200    3                  ICB.CREATOR.TEXT = 'you';
     2290     8201    3                  ICB.CREATOR.C = 3;
     2291     8202    3                  GOTO CREATOR_DONE;
     2292     8203    3                  END;
     2293     8204    2              IF NOT B$JIT$ -> B$JIT.PRIV.ACTIVE & %PR_FMSEC#
     2294     8205    2               THEN
     2295     8206    3               DO;
     2296     8207    3                  CALL VPL$ERR_PROC(3,37,'06'O,,,,,1); /* ABORT and return       */
PL6.E3A0      #005=VPF$PROCESS_INPUT_OPT File=VPF$SRCLST.:E05TSI                 WED 07/30/97 07:40 Page:312
     2297     8208        /*E* ERROR:   VPF-00037
     2298     8209             MESSAGE: Arbitrary CREATOR selection requires FMSEC PRIV turned on
     2299     8210        */
     2300     8211    3                  ALTRETURN;
     2301     8212    3                  END;
     2302     8213    2              IF OPT$ -> OUT$BLK.SUBLK$(I) -> OUT$SYM.COUNT > 21
     2303     8214    2               THEN
     2304     8215    2                 GOTO BAD_CREATOR;
     2305     8216    2              CALL INDEX (J,',',OPT$ -> OUT$BLK.SUBLK$(I) -> OUT$SYM.TEXT)
     2306     8217    3               WHENALTRETURN DO;
     2307     8218    3   BAD_CREATOR:   ;
     2308     8219    3                  CALL VPL$ERR_PROC(3,35,'06'O,,,,,1); /* ABORT and return       */
     2309     8220        /*E* ERROR:   VPF-00035
     2310     8221             MESSAGE: Bad CREATOR
     2311     8222        */
     2312     8223    3                  ALTRETURN;
     2313     8224    3                  END;
     2314     8225    2              ICB.CREATOR.C = OPT$ -> OUT$BLK.SUBLK$(I) -> OUT$SYM.COUNT;
     2315     8226    2              ICB.CREATOR.TEXT = OPT$ -> OUT$BLK.SUBLK$(I) -> OUT$SYM.TEXT;
     2316     8227    2              ICB.CREATOR_SEL = 2;
     2317     8228    2   CREATOR_DONE: ;
     2318     8229    2            CASE(30);                      /* Input files in SORTED order        */
     2319     8230    2              ICB.SORTING_ORDER.COUNT = OPT$ -> OUT$BLK.NSUBLKS;
     2320     8231    3              DO I=0 TO (OPT$ -> OUT$BLK.NSUBLKS -1);
     2321     8232    3                 T$ = OPT$ -> OUT$BLK.SUBLK$(I);
     2322     8233    3                 J = T$ -> OUT$BLK.NSUBLKS;
     2323     8234    3                 ICB.SORTING_ORDER.FIELD.TYPE(I) =
     2324     8235    3                   T$ -> OUT$BLK.SUBLK$(J-1) -> OUT$BLK.CODE;
     2325     8236    3                 IF J=2
     2326     8237    3                  THEN                     /* ASC/DESC order specified           */
     2327     8238    3                    IF T$ -> OUT$BLK.SUBLK$(0) -> OUT$BLK.CODE = 1
     2328     8239    3                     THEN
     2329     8240    3                       ICB.SORTING_ORDER.FIELD.DESCENDING(I) = '1'B;
     2330     8241    3                 END;                      /* END CASE                           */
     2331     8242    2            CASE(31);                      /* CLOSE POSITION option              */
     2332     8243    2              ICB.CLPOS = OPT$ -> OUT$BLK.SUBLK$(0) -> OUT$BLK.CODE;
     2333     8244    2            CASE(32);                      /* FATTRIBUTES                        */
PL6.E3A0      #005=VPF$PROCESS_INPUT_OPT File=VPF$SRCLST.:E05TSI                 WED 07/30/97 07:40 Page:313
     2334     8245    2              ICB.A_EA_C = 5;
     2335     8246    2            CASE(33);                      /* IOERROK                            */
     2336     8247    2              ICB.FLAVOR.IOERROK = %YES#;
     2337     8248    2            CASE(34);                      /* NIOERROK                           */
     2338     8249    2              ICB.FLAVOR.IOERROK = %NO#;
     2339     8250    2            CASE(35);                      /* IGNOREFSN                          */
     2340     8251    2              ICB.IGNOREFSN = %YES#;
     2341     8252    2            CASE(36);                      /* NIGNOREFSN                         */
     2342     8253    2              ICB.IGNOREFSN = %NO#;
     2343     8254    2            CASE(37);                      /* ANSISPAN                           */
     2344     8255    2              ICB.ANSISPAN = %YES#;
     2345     8256    2              ANSISPAN_OPT = %YES#;
     2346     8257    2            CASE(38);                      /* NANSISPAN                          */
     2347     8258    2              ICB.ANSISPAN = %YES#;
     2348     8259    2              ANSISPAN_OPT = %NO#;
     2349     8260    2            CASE(%(MAX_IN_OP#+1));         /* SPARE1 for PATCHING only           */
     2350     8261    2              ;
     2351     8262    2            CASE(%(MAX_IN_OP#+2));         /* SPARE2                             */
     2352     8263    2              ;
     2353     8264    2            CASE(%(MAX_IN_OP#+3));         /* SPARE3                             */
     2354     8265    2              ;
     2355     8266    2            END;                           /* END CASE                           */
     2356     8267    1           RETURN;
     2357     8268    1   END VPF$PROCESS_INPUT_OPT;
     2358     8269        %EOD;

PL6.E3A0      #005=VPF$PROCESS_INPUT_OPT File=VPF$SRCLST.:E05TSI                 WED 07/30/97 07:40 Page:314
--  Include file information  --

   B_MICROPS_C.:E05TOU  is referenced.
   XU_MACRO_C.:E05TOU  is referenced.
   VP_MACRO_C.:E05TOU  is referenced.
   XS_MACRO_C.:E05TOU  is referenced.
   VP_PERR_C.:E05TOU  is referenced.
   CP_6_SUBS.:E05TOU  is referenced.
   CP_6.:E05TOU  cannot be made into a system file and is referenced.
   VP_DATA_R.:E05TOU  cannot be made into a system file and is referenced.
   B$JIT.:E05TOU  cannot be made into a system file and is referenced.
   B$JIT_C.:E05TOU  was found in the system file and is referenced.
   CP_6_C.:E05TOU  was found in the system file and is referenced.
      No diagnostics issued in procedure VPF$PROCESS_INPUT_OPT.

   Procedure VPF$PROCESS_INPUT_OPT requires 1070 words for executable code.
   Procedure VPF$PROCESS_INPUT_OPT requires 20 words of local(AUTO) storage.

PL6.E3A0      #005=VPF$PROCESS_INPUT_OPT File=VPF$SRCLST.:E05TSI                 WED 07/30/97 07:40 Page:315

 Object Unit name= VPF$PROCESS_INPUT_OPT                      File name= VPF$SRCLST.:E05TOU
 UTS= JUL 30 '97 07:40:27.16 WED                              Compiler= PL-6/E31         Sev=      00
 SharedLib= :SHARED_SYSTEM                                    Alt SharedLib=


    ****  Control sections  ****

 Sect   Type Bound  Init  Size OctSiz  Section name(segment info)
    0   DCB   even  none     0      0  M$UC
    1   DCB   even  none     0      0  M$EI
    2   DCB   even  none     0      0  M$EO
    3   DCB   even  none     0      0  M$EO1
    4   DCB   even  none     0      0  M$ME
    5   DCB   even  none     0      0  M$SI
    6   DCB   even  none     0      0  M$READFILE
    7   DCB   even  none     0      0  M$DO
    8   DCB   even  none     0      0  M$STD1
    9   DCB   even  none     0      0  M$SORT1
   10  RoData even  UTS    220    334  VPF$PROCESS_INPUT_OPT
   11   Data  even  none    14     16  VPF$PROCESS_INPUT_OPT
   12   Proc  even  none  1070   2056  VPF$PROCESS_INPUT_OPT
   13  RoData even  none    79    117  VPF$PROCESS_INPUT_OPT

    ****  Entry defs  ****

                              Check   Calling
                             calling  sequence
  Sect OctLoc Primary Altret sequence   type   Parms  Name
    12      0   yes    yes     yes      Std        1  VPF$PROCESS_INPUT_OPT
PL6.E3A0      #005=VPF$PROCESS_INPUT_OPT File=VPF$SRCLST.:E05TSI                 WED 07/30/97 07:40 Page:316

  ****  Entry refs  ****

         Check        Calling
        calling       sequence
Altret sequence SRef   type   Args  Name
         yes           Std       8 VPL$ERR_PROC
 yes     yes           Std       4 VPD$TEXTC_CHARBIN
 yes     yes           Std       2 VPD$MNG_CRPT
 yes     yes           Std       2 VPD$GET_BUF
 yes     yes           Std       2 VPD$GET_KEY_OR_NUM
 yes     yes           Std       4 VPD$PROCESS_DATE
                       Std       0 B_CONSPOOL_D
                       nStd      0 X66_AUTO_1
                       nStd      0 X66_AALT
                       nStd      0 X66_ARET

  ****  Data refs  ****

  Flags:  r = read only, s = secondary
Flgs Name                             Flgs Name                             Flgs Name
     M$UC                                  CON_DUP_TBL                           REC_SEL_CNT
     BREAK_LOC                             BREAK_MESSAGE_REPORTER                CMD_MASK
     SPEC_BUF                              IN_RES                                ANSISPAN_OPT
     ICB                              r    ORG_TBL                               KEY_AREA$
     M$EI                                  M$EO                                  M$EO1
     M$ME                                  M$SI                                  M$READFILE
     M$DO                                  M$STD1                                M$SORT1
     B$JIT$                                RESULTS_FID_IN                        B_VECTNIL

  ****  Segment refs  ****

  Flags:  r = read only, s = secondary
Flgs Name                             Flgs Name                             Flgs Name
     ISSID                                 NULLSID
PL6.E3A0      #005=VPF$PROCESS_INPUT_OPT File=VPF$SRCLST.:E05TSI                 WED 07/30/97 07:40 Page:317


     1671        1        /*T***********************************************************/
     1672        2        /*T*                                                         */
     1673        3        /*T* Copyright (c) Bull HN Information Systems Inc., 1997    */
     1674        4        /*T*                                                         */
     1675        5        /*T***********************************************************/
     1676        6        VPF$PROCESS_INPUT_OPT: PROC(OPT$) ALTRET;

      6 12 000000   000000 700200 xent  VPF$PROCESS* TSX0  ! X66_AUTO_1
        12 000001   000024 000001                    ZERO    20,1

     1677        7        /*I* NAME: VPF$PROCESS_INPUT_OPT
     1678        8             PURPOSE: To validate and store into ICB the current option.
     1679        9             CALL: CALL VPF$PROCESS_INPUT_OPT(OPT$) ALTRET(BAD_OPTION);
     1680       10             DESCRIPTION: This procedure checks the current input option specified
     1681       11                          against CON_DUP_TBL to check if it is a conflicting or
     1682       12                          duplicate input option and against OPT_TBL to check if it is
     1683       13                          a valid option for this command and/or device type. If all of
     1684       14                          these checks are passed, the option is further processed for
     1685       15                          specific requirements and placed into ICB. The RET_VAL is
     1686       16                          set to 2 if an option is in error in any way.
     1687       17        */
     1688       18        /**/
     1689       19        /*  LOCAL AUTO  */
     1690       20        /**/
     1691       21    1   DCL OPT$ PTR;
     1692       22    1   DCL OPT_CODE SBIN WORD;
     1693       23    1   DCL TWORD UBIN WORD;
     1694       24    1   DCL T$ PTR;
     1695       25    1   DCL TO_KEY$ PTR;
     1696       26    1   DCL FROM_KEY$ PTR;
     1697       27    1   DCL I UBIN WORD;                        /* Temp. counter                      */
     1698       28    1   DCL J SBIN WORD;                        /* Temp.                              */
     1699       29        %INCLUDE B$JIT;
     1700      319        %INCLUDE VP_DATA_R;
     1701     7306        /**/
     1702     7307        /*  LOCAL CONSTANTS  */
PL6.E3A0      #005=VPF$PROCESS_INPUT_OPT File=VPF$SRCLST.:E05TSI                 WED 07/30/97 07:40 Page:318
     1703     7308        /**/
     1704     7309    1   DCL 1 OPT_TBL(0:%(MAX_IN_OP#+3)) CONSTANT,
     1705     7310                /*K* OPT_TBL.  Indexed by option code number from the parser (the
     1706     7311                 0th entry is trash), this table determines if the option is legal
     1707     7312                 for the command and input device, selects the error code if it
     1708     7313                 is not legal, and checks for duplicate and conflicting options       */
     1709     7314    1         2 CMD,
     1710     7315    1           3 ERR_CODE SBIN WORD INIT(0,
     1711     7316                    /*K* CMD.ERR_CODE VALUE-DEC. This is the error code number to
     1712     7317                     use if the option is not legal for this command.                 */
     1713     7318    1             26, 9, 0,36, 9,
     1714     7319    1              0, 9, 0, 0, 0,
     1715     7320    1              0, 8, 0, 0,42,
     1716     7321    1             44,44,44,47,49,
     1717     7322    1             50,51,52, 0,59,
     1718     7323    1              9,28,28, 0, 0,
     1719     7324    1             62, 9,65,65,66,
     1720     7325    1             66,270,270,
     1721     7326    1              0, 0, 0),                    /* SPARE for PATCHING only            */
     1722     7327        /*E* ERROR:   VPF-00008
     1723     7328             MESSAGE: Record selection not allowed this command
     1724     7329        */
     1725     7330        /*E* ERROR:   VPF-00009
     1726     7331             MESSAGE: A, EA, FA, COLS, or FFID not allowed this command
     1727     7332        */
     1728     7333        /*E*   ERROR: VPF-00036
     1729     7334             MESSAGE: CRPT not allowed this command
     1730     7335        */
     1731     7336        /*E*   ERROR: VPF-00026
     1732     7337             MESSAGE: SHARE not allowed this command
     1733     7338        */
     1734     7339        /*E*   ERROR: VPF-00042
     1735     7340             MESSAGE: EBCDIC not allowed this command
     1736     7341        */
     1737     7342        /*E*   ERROR: VPF-00044
     1738     7343             MESSAGE: BINARY,NBINARY or TRANSPARENT option not allowed this command
     1739     7344        */
PL6.E3A0      #005=VPF$PROCESS_INPUT_OPT File=VPF$SRCLST.:E05TSI                 WED 07/30/97 07:40 Page:319
     1740     7345        /*E*   ERROR: VPF-00047
     1741     7346             MESSAGE: FTORGANIZATION not allowed this command
     1742     7347        */
     1743     7348        /*E*   ERROR: VPF-00049
     1744     7349             MESSAGE: BLOCK not allowed this command
     1745     7350        */
     1746     7351        /*E*   ERROR: VPF-00050
     1747     7352             MESSAGE: RECLENGTH not allowed this command
     1748     7353        */
     1749     7354        /*E*   ERROR: VPF-00051
     1750     7355             MESSAGE: NSPANNED not allowed this command
     1751     7356        */
     1752     7357        /*E*   ERROR: VPF-00052
     1753     7358             MESSAGE: NBLOCKED not allowed this command
     1754     7359        */
     1755     7360        /*E*   ERROR: VPF-00059
     1756     7361             MESSAGE: SRCHCOND not allowed for this command
     1757     7362        */
     1758     7363        /*E*   ERROR: VPF-00028
     1759     7364             MESSAGE: HEAD/NHEAD not allowed for this command
     1760     7365        */
     1761     7366        /*E*   ERROR: VPF-00062
     1762     7367             MESSAGE: CLPOS not allowed for this command
     1763     7368        */
     1764     7369        /*E*   ERROR: VPF-00065
     1765     7370             MESSAGE: IOERROR/NIOERROR not allowed for this command
     1766     7371        */
     1767     7372        /*E*   ERROR: VPF-00066
     1768     7373             MESSAGE: IGNOREFSN/NIGNOREFSN not allowed for this command
     1769     7374        */
     1770     7375        /*E*   ERROR: VPF-00270
     1771     7376             MESSAGE: ANSISPAN/NANSISPAN not allowed for this command
     1772     7377        */
     1773     7378
     1774     7379    1           3 ALLOWED BIT(36) UNAL
     1775     7380    1             INIT('0'O,
     1776     7381                    /*K* CMD.ALLOWED VALUE-BIT(36). This is a mask used to determine
PL6.E3A0      #005=VPF$PROCESS_INPUT_OPT File=VPF$SRCLST.:E05TSI                 WED 07/30/97 07:40 Page:320
     1777     7382                     whether or not the option is legal with the command.  A '1'B
     1778     7383                     in the appropriate bit position indicates that the option is OK.
     1779     7384                     This format is suitable for ANDing with CMD_MASK.  Some commands
     1780     7385                     of interest are:
     1781     7386                         OCTAL VALUE        COMMAND
     1782     7387                         -----------        -------
     1783     7388                         20000              COPY
     1784     7389                         10000              COPYALL
     1785     7390                          4000              COPYSTD
     1786     7391                            40              LIST                                      */
     1787     7392    1             '341040000'O,'000700002'O,'777777777'O,'340100002'O,'000700000'O,
     1788     7393    1             '777777777'O,'000700002'O,'777777777'O,'777777777'O,'777777777'O,
     1789     7394    1             '777777777'O,'341000000'O,'777777777'O,'777777777'O,'340000000'O,
     1790     7395    1             '340000000'O,'340000000'O,'340000000'O,'340000000'O,'340000000'O,
     1791     7396    1             '340000000'O,'340000000'O,'340000000'O,'777777777'O,'777777777'O,
     1792     7397    1             '000700002'O,'340000000'O,'340000000'O,'777777777'O,'777777777'O,
     1793     7398    1             '240000000'O,'000700002'O,'340400000'O,'340400000'O,'340400000'O,
     1794     7399    1             '340400000'O,'340400000'O,'340400000'O,
     1795     7400    1   '000000000'O,'000000000'O,'000000000'O), /* SPARE for PATCHING ONLY           */
     1796     7401    1         2 CON_DUP_IDX UBIN BYTE UNAL INIT(0,
     1797     7402                    /*K* CON_DUP_IDX VALUE-DEC. This is is an index into CON_DUP_TBL,
     1798     7403                     a binary array.  When an option is used, that entry in the array
     1799     7404                     is set.  Subsequent attempts to use a set bit indicate that a
     1800     7405                     duplicate exists.  Conflicting options are done the same way.  If
     1801     7406                     CON_DUP_IDX is 0, no conflict is possible and duplicates are OK. */
     1802     7407    1            0, 2, 3, 4, 2,
     1803     7408    1            5, 2, 1, 6, 7,
     1804     7409    1            8, 0,20,10,11,
     1805     7410    1           12,12, 9,13,14,
     1806     7411    1           15,16,17,18,19,
     1807     7412    1            0,21,21,22,23,
     1808     7413    1           24, 2,33,33,35,
     1809     7414    1           35,22,0,
     1810     7415    1            0, 0, 0),                      /* SPARE for PATCHING ONLY            */
     1811     7416    1         2 DEV,
     1812     7417    1           3 ALLOWED BIT(9) UNAL INIT('0'O,
     1813     7418                    /*K* DEV.ALLOWED VALUE-BIT(9). This is a mask used to determine
PL6.E3A0      #005=VPF$PROCESS_INPUT_OPT File=VPF$SRCLST.:E05TSI                 WED 07/30/97 07:40 Page:321
     1814     7419                     whether or not the option is legal with the device.  A '1'B
     1815     7420                     in the appropriate bit position indicates that the option is OK.
     1816     7421                     This format is suitable for ANDing with ICB.DEV_MASK.  Device
     1817     7422                     codes are:
     1818     7423                         OCTAL VALUE        DEVICE
     1819     7424                         -----------        -------
     1820     7425                                400            Default. Denotes COMGROUP or
     1821     7426                                               non-tape device.
     1822     7427                                200            Managed disk.
     1823     7428                                100            Managed tape.
     1824     7429                                040            Device tape.
     1825     7430        */
     1826     7431    1             '200'O,'777'O,'100'O,'200'O,'777'O,
     1827     7432    1             '040'O,'777'O,'140'O,'140'O,'300'O,
     1828     7433    1             '100'O,'777'O,'300'O,'140'O,'040'O,
     1829     7434    1             '440'O,'440'O,'440'O,'140'O,'140'O,
     1830     7435    1             '140'O,'040'O,'040'O,'300'O,'300'O,
     1831     7436    1             '200'O,'777'O,'777'O,'300'O,'200'O,
     1832     7437    1             '140'O,'777'O,'140'O,'140'O,'100'O,
     1833     7438    1             '100'O,'100'O,'100'O,
     1834     7439    1             '000'O,'000'O,'000'O),        /* SPARE for PATCHING ONLY            */
     1835     7440    1           3 ERR_CODE SBIN WORD INIT(0,
     1836     7441                    /*K* DEV.ERR_CODE VALUE-DEC. This is the error code number to
     1837     7442                     use if the option is not legal for this device.                  */
     1838     7443    1             27, 0,11,12, 0,
     1839     7444    1             13, 0,10,14,15,
     1840     7445    1             16, 0,17,18,43,
     1841     7446    1             45,45,45,48,48,
     1842     7447    1             48,64,64,57,60,
     1843     7448    1              0, 0, 0,31,61,
     1844     7449    1             38, 0,66,66,67,
     1845     7450    1             67,271,271,
     1846     7451    1              0, 0, 0);                    /* SPARE for PATCHING ONLY            */
     1847     7452        /*E* ERROR:   VPF-00010
     1848     7453             MESSAGE: NCNVRT allowed for tapes only.
     1849     7454        */
     1850     7455        /*E* ERROR:   VPF-00011
PL6.E3A0      #005=VPF$PROCESS_INPUT_OPT File=VPF$SRCLST.:E05TSI                 WED 07/30/97 07:40 Page:322
     1851     7456             MESSAGE: CATENATE allowed for labeled tape only
     1852     7457        */
     1853     7458        /*E* ERROR:   VPF-00012
     1854     7459             MESSAGE: CRPT allowed for disk files only
     1855     7460        */
     1856     7461        /*E* ERROR:   VPF-00013
     1857     7462             MESSAGE: DEOD not allowed
     1858     7463        */
     1859     7464        /*E* ERROR:   VPF-00014
     1860     7465             MESSAGE: FSN allowed on tape only
     1861     7466        */
     1862     7467        /*E* ERROR:   VPF-00015
     1863     7468             MESSAGE: File selection by ORG allowed on managed files only
     1864     7469        */
     1865     7470        /*E* ERROR:   VPF-00016
     1866     7471             MESSAGE: PHYSICAL allowed on managed tape only
     1867     7472        */
     1868     7473        /*E* ERROR:   VPF-00017
     1869     7474             MESSAGE: File selection by TYPE allowed on managed files only
     1870     7475        */
     1871     7476        /*E* ERROR:   VPF-00018
     1872     7477             MESSAGE: VOLUME allowed on tape only
     1873     7478        */
     1874     7479        /*E*   ERROR: VPF-00027
     1875     7480             MESSAGE: SHARE allowed for disk files only
     1876     7481        */
     1877     7482        /*E*   ERROR: VPF-00043
     1878     7483             MESSAGE: EBCDIC allowed for free tape only
     1879     7484        */
     1880     7485        /*E*   ERROR: VPF-00045
     1881     7486             MESSAGE: BINARY,NBINARY or TRANSPARENT input option allowed for devices only
     1882     7487        */
     1883     7488        /*E*   ERROR: VPF-00048
     1884     7489             MESSAGE: FTORGANIZATION,BLOCK, or RECLENGTH allowed for tapes only
     1885     7490        */
     1886     7491        /*E*   ERROR: VPF-00064
     1887     7492             MESSAGE: NSPANNED or NBLOCKED allowed for FT only
PL6.E3A0      #005=VPF$PROCESS_INPUT_OPT File=VPF$SRCLST.:E05TSI                 WED 07/30/97 07:40 Page:323
     1888     7493        */
     1889     7494        /*E*   ERROR: VPF-00057
     1890     7495             MESSAGE: File selection by DATE on managed files only
     1891     7496        */
     1892     7497        /*E*   ERROR: VPF-00060
     1893     7498             MESSAGE: SRCHCOND is only valid for managed files
     1894     7499        */
     1895     7500        /*E*   ERROR: VPF-00031
     1896     7501             MESSAGE: CREATOR is only valid for managed files
     1897     7502        */
     1898     7503        /*E*   ERROR: VPF-00061
     1899     7504             MESSAGE: File selection in SORTED order is only valid on disk files.
     1900     7505        */
     1901     7506        /*E*   ERROR: VPF-00038
     1902     7507             MESSAGE: CLPOS option only valid for tapes.
     1903     7508        */
     1904     7509        /*E*   ERROR: VPF-00068
     1905     7510             MESSAGE: IOERROK or NIOERROK allowed for tape only
     1906     7511        */
     1907     7512        /*E*   ERROR: VPF-00067
     1908     7513             MESSAGE: IGNOREFSN or NIGNOREFSN allowed for managed tape only
     1909     7514        */
     1910     7515        /*E*   ERROR: VPF-00271
     1911     7516             MESSAGE: ANSISPAN and NANSISPAN are valid for labelled tape only
     1912     7517        */
     1913     7518
     1914     7519        /**/
     1915     7520        /*  BASED  */
     1916     7521        /**/
     1917     7522        %PARSE$OUT(NAME=OUT$BLK,STCLASS=BASED);
     1918     7567        %PARSE$SYM(NAME=OUT$SYM,STCLASS=BASED);
     1919     7605    1   DCL 1 TEXT$C BASED,
     1920     7606    1         2 LEN UBIN BYTE UNAL,
     1921     7607    1         2 STRING CHAR(TEXT$C.LEN);
     1922     7608        /**/
     1923     7609        /*  LOCAL STATIC  */
     1924     7610        /**/
PL6.E3A0      #005=VPF$PROCESS_INPUT_OPT File=VPF$SRCLST.:E05TSI                 WED 07/30/97 07:40 Page:324
     1925     7611    1   DCL DATE_TYPE UBIN STATIC;
     1926     7612        %FPT_TIME (FPTN = FPT_MAKE_TIME,
     1927     7613                   STCLASS = STATIC,
     1928     7614                   SOURCE = UTS,
     1929     7615                   DEST = EXT,
     1930     7616                   TSTAMP = ICB.DATE.UTS,
     1931     7617                   DATE = ICB.DATE.TEXT);
     1932     7636        /**/
     1933     7637        /*  ENTRY DCLS  */
     1934     7638        /**/
     1935     7639        %VP_ENTRIES (OMIT=VPF$PROCESS_INPUT_OPT);
     1936     7847        /**/
     1937     7848    1           OPT_CODE = OPT$->OUT$BLK.CODE;

   7848 12 000002   200003 470500                    LDP0    @OPT$,,AUTO
        12 000003   000000 471500                    LDP1    0,,PR0
        12 000004   100000 236100                    LDQ     0,,PR1
        12 000005   777777 376007                    ANQ     -1,DL
        12 000006   200004 756100                    STQ     OPT_CODE,,AUTO

     1938     7849    1           IF CON_DUP_TBL(OPT_TBL.CON_DUP_IDX(OPT_CODE)) AND

   7849 12 000007   000005 402007                    MPY     5,DL
        12 000010   000002 236006 10                 LDQ     OPT_TBL+2,QL
        12 000011   000033 772000                    QRL     27
        12 000012   000000 066406                    CMPB    filb='0'B
        12 000013   000000 000001 xsym               BDSC    CON_DUP_TBL,Q            by=0,bit=0,n=1
        12 000014   000002 000022 xsym               BDSC    B_VECTNIL+2              by=0,bit=0,n=18
        12 000015   000043 600000 12                 TZE     s:7859
        12 000016   200004 236100                    LDQ     OPT_CODE,,AUTO
        12 000017   000005 402007                    MPY     5,DL
        12 000020   000002 236006 10                 LDQ     OPT_TBL+2,QL
        12 000021   777000 316003                    CANQ    -512,DU
        12 000022   000043 600000 12                 TZE     s:7859

     1939     7850    1             OPT_TBL.CON_DUP_IDX(OPT_CODE)~=0
     1940     7851    1            THEN
PL6.E3A0      #005=VPF$PROCESS_INPUT_OPT File=VPF$SRCLST.:E05TSI                 WED 07/30/97 07:40 Page:325
     1941     7852    2            DO;

     1942     7853    2               CALL VPL$ERR_PROC(3,19,'06'O,,,,,1); /* CONFLICTING OR DUPLICATE  */

   7853 12 000023   000002 236000 13                 LDQ     2
        12 000024   000001 235000 xsym               LDA     B_VECTNIL+1
        12 000025   200022 757100                    STAQ    J+8,,AUTO
        12 000026   000001 236000 xsym               LDQ     B_VECTNIL+1
        12 000027   000001 235000 xsym               LDA     B_VECTNIL+1
        12 000030   200020 757100                    STAQ    J+6,,AUTO
        12 000031   000001 236000 xsym               LDQ     B_VECTNIL+1
        12 000032   000003 235000 13                 LDA     3
        12 000033   200016 757100                    STAQ    J+4,,AUTO
        12 000034   000004 237000 13                 LDAQ    4
        12 000035   200014 757100                    STAQ    J+2,,AUTO
        12 000036   200014 630500                    EPPR0   J+2,,AUTO
        12 000037   000026 631400 xsym               EPPR1   B_VECTNIL+22
        12 000040   000000 701000 xent               TSX1    VPL$ERR_PROC
        12 000041   000000 011000                    NOP     0

     1943     7854        /*E* ERROR:   VPF-00019
     1944     7855             MESSAGE: Duplicate or conflicting input option
     1945     7856        */
     1946     7857    2               ALTRETURN;                  /* INPUT OPTION                       */

   7857 12 000042   000000 702200 xent               TSX2  ! X66_AALT

     1947     7858    2               END;
     1948     7859    1           IF NOT (OPT_TBL.CMD.ALLOWED(OPT_CODE) & CMD_MASK)

   7859 12 000043   000100 100400                    MLR     fill='000'O
        12 000044   000000 000010 xsym               ADSC9   CMD_MASK                 cn=0,n=8
        12 000045   200014 000010                    ADSC9   J+2,,AUTO                cn=0,n=8
        12 000046   200004 236100                    LDQ     OPT_CODE,,AUTO
        12 000047   000005 402007                    MPY     5,DL
        12 000050   000001 235006 10                 LDA     OPT_TBL+1,QL
        12 000051   000000 236003                    LDQ     0,DU
PL6.E3A0      #005=VPF$PROCESS_INPUT_OPT File=VPF$SRCLST.:E05TSI                 WED 07/30/97 07:40 Page:326
        12 000052   200014 377100                    ANAQ    J+2,,AUTO
        12 000053   000077 601000 12                 TNZ     s:7865

     1949     7860    1            THEN
     1950     7861    2            DO;

     1951     7862    2               CALL VPL$ERR_PROC(3,OPT_TBL.CMD.ERR_CODE(OPT_CODE),'06'O,,,,,1);

   7862 12 000054   000002 236000 13                 LDQ     2
        12 000055   000001 235000 xsym               LDA     B_VECTNIL+1
        12 000056   200022 757100                    STAQ    J+8,,AUTO
        12 000057   000001 236000 xsym               LDQ     B_VECTNIL+1
        12 000060   000001 235000 xsym               LDA     B_VECTNIL+1
        12 000061   200020 757100                    STAQ    J+6,,AUTO
        12 000062   000001 236000 xsym               LDQ     B_VECTNIL+1
        12 000063   000003 235000 13                 LDA     3
        12 000064   200016 757100                    STAQ    J+4,,AUTO
        12 000065   200004 236100                    LDQ     OPT_CODE,,AUTO
        12 000066   000005 402003                    MPY     5,DU
        12 000067   000006 036000 13                 ADLQ    6
        12 000070   000004 235000 13                 LDA     4
        12 000071   200014 757100                    STAQ    J+2,,AUTO
        12 000072   200014 630500                    EPPR0   J+2,,AUTO
        12 000073   000026 631400 xsym               EPPR1   B_VECTNIL+22
        12 000074   000000 701000 xent               TSX1    VPL$ERR_PROC
        12 000075   000000 011000                    NOP     0

     1952     7863    2               ALTRETURN;

   7863 12 000076   000000 702200 xent               TSX2  ! X66_AALT

     1953     7864    2               END;
     1954     7865    1           IF NOT (OPT_TBL.DEV.ALLOWED(OPT_CODE) & ICB.DEV_MASK

   7865 12 000077   000171 236000 xsym               LDQ     ICB+121
        12 000100   777000 376003                    ANQ     -512,DU
        12 000101   200014 756100                    STQ     J+2,,AUTO
PL6.E3A0      #005=VPF$PROCESS_INPUT_OPT File=VPF$SRCLST.:E05TSI                 WED 07/30/97 07:40 Page:327
        12 000102   200004 236100                    LDQ     OPT_CODE,,AUTO
        12 000103   000005 402007                    MPY     5,DL
        12 000104   000003 236006 10                 LDQ     OPT_TBL+3,QL
        12 000105   777000 376003                    ANQ     -512,DU
        12 000106   200014 376100                    ANQ     J+2,,AUTO
        12 000107   000136 601000 12                 TNZ     s:7872
        12 000110   000000 236000 xsym               LDQ     IN_RES
        12 000111   000322 116000 10                 CMPQ    OPT_TBL+210
        12 000112   000136 600000 12                 TZE     s:7872

     1955     7866    1             OR IN_RES = 'NO  ' )          /* Device NO has all options legal    */
     1956     7867    1            THEN
     1957     7868    2            DO;

     1958     7869    2               CALL VPL$ERR_PROC(3,OPT_TBL.DEV.ERR_CODE(OPT_CODE),'06'O,,,,,1);

   7869 12 000113   000002 236000 13                 LDQ     2
        12 000114   000001 235000 xsym               LDA     B_VECTNIL+1
        12 000115   200022 757100                    STAQ    J+8,,AUTO
        12 000116   000001 236000 xsym               LDQ     B_VECTNIL+1
        12 000117   000001 235000 xsym               LDA     B_VECTNIL+1
        12 000120   200020 757100                    STAQ    J+6,,AUTO
        12 000121   000001 236000 xsym               LDQ     B_VECTNIL+1
        12 000122   000003 235000 13                 LDA     3
        12 000123   200016 757100                    STAQ    J+4,,AUTO
        12 000124   200004 236100                    LDQ     OPT_CODE,,AUTO
        12 000125   000005 402003                    MPY     5,DU
        12 000126   000007 036000 13                 ADLQ    7
        12 000127   000004 235000 13                 LDA     4
        12 000130   200014 757100                    STAQ    J+2,,AUTO
        12 000131   200014 630500                    EPPR0   J+2,,AUTO
        12 000132   000026 631400 xsym               EPPR1   B_VECTNIL+22
        12 000133   000000 701000 xent               TSX1    VPL$ERR_PROC
        12 000134   000000 011000                    NOP     0

     1959     7870    2               ALTRETURN;

PL6.E3A0      #005=VPF$PROCESS_INPUT_OPT File=VPF$SRCLST.:E05TSI                 WED 07/30/97 07:40 Page:328
   7870 12 000135   000000 702200 xent               TSX2  ! X66_AALT

     1960     7871    2               END;
     1961     7872    1           CON_DUP_TBL(OPT_TBL.CON_DUP_IDX(OPT_CODE)) = '1'B;

   7872 12 000136   200004 236100                    LDQ     OPT_CODE,,AUTO
        12 000137   000005 402007                    MPY     5,DL
        12 000140   000002 236006 10                 LDQ     OPT_TBL+2,QL
        12 000141   000033 772000                    QRL     27
        12 000142   003006 060400                    CSL     bolr='003'O
        12 000143   000030 000001 xsym               BDSC    B_VECTNIL+24             by=0,bit=0,n=1
        12 000144   000000 000001 xsym               BDSC    CON_DUP_TBL,Q            by=0,bit=0,n=1

     1962     7873    2           DO CASE(OPT_CODE);

   7873 12 000145   200004 235100                    LDA     OPT_CODE,,AUTO
        12 000146   000047 115007                    CMPA    39,DL
        12 000147   000151 602005 12                 TNC     s:7873+4,AL
        12 000150   002055 710000 12                 TRA     s:8267
        12 000151   002055 710000 12                 TRA     s:8267
        12 000152   000220 710000 12                 TRA     s:7875
        12 000153   000223 710000 12                 TRA     s:7877
        12 000154   000226 710000 12                 TRA     s:7879
        12 000155   000267 710000 12                 TRA     s:7891
        12 000156   000321 710000 12                 TRA     s:7900
        12 000157   000365 710000 12                 TRA     s:7914
        12 000160   000370 710000 12                 TRA     s:7916
        12 000161   000373 710000 12                 TRA     s:7918
        12 000162   000376 710000 12                 TRA     s:7920
        12 000163   000524 710000 12                 TRA     s:7962
        12 000164   000565 710000 12                 TRA     s:7971
        12 000165   000570 710000 12                 TRA     s:7973
        12 000166   001076 710000 12                 TRA     s:8056
        12 000167   001220 710000 12                 TRA     s:8091
        12 000170   001261 710000 12                 TRA     s:8103
        12 000171   001264 710000 12                 TRA     s:8105
        12 000172   001267 710000 12                 TRA     s:8107
PL6.E3A0      #005=VPF$PROCESS_INPUT_OPT File=VPF$SRCLST.:E05TSI                 WED 07/30/97 07:40 Page:329
        12 000173   001271 710000 12                 TRA     s:8109
        12 000174   001274 710000 12                 TRA     s:8111
        12 000175   001306 710000 12                 TRA     s:8114
        12 000176   001346 710000 12                 TRA     s:8125
        12 000177   001406 710000 12                 TRA     s:8136
        12 000200   001411 710000 12                 TRA     s:8138
        12 000201   001414 710000 12                 TRA     s:8140
        12 000202   001516 710000 12                 TRA     s:8163
        12 000203   001602 710000 12                 TRA     s:8184
        12 000204   001605 710000 12                 TRA     s:8186
        12 000205   001610 710000 12                 TRA     s:8188
        12 000206   001613 710000 12                 TRA     s:8190
        12 000207   001746 710000 12                 TRA     s:8230
        12 000210   002021 710000 12                 TRA     s:8243
        12 000211   002027 710000 12                 TRA     s:8245
        12 000212   002032 710000 12                 TRA     s:8247
        12 000213   002035 710000 12                 TRA     s:8249
        12 000214   002040 710000 12                 TRA     s:8251
        12 000215   002043 710000 12                 TRA     s:8253
        12 000216   002045 710000 12                 TRA     s:8255
        12 000217   002051 710000 12                 TRA     s:8258

     1963     7874    2            CASE(1);                       /* SHARE                              */

     1964     7875    2              ICB.SHARE = %ALL#;

   7875 12 000220   000001 236007                    LDQ     1,DL
        12 000221   000006 756000 xsym               STQ     ICB+6
        12 000222   002055 710000 12                 TRA     s:8267

     1965     7876    2            CASE(2);                       /* ATTRIBUTES                         */

     1966     7877    2              ICB.A_EA_C = 3;

   7877 12 000223   000003 236007                    LDQ     3,DL
        12 000224   000014 756000 xsym               STQ     ICB+12
        12 000225   002055 710000 12                 TRA     s:8267
PL6.E3A0      #005=VPF$PROCESS_INPUT_OPT File=VPF$SRCLST.:E05TSI                 WED 07/30/97 07:40 Page:330

     1967     7878    2            CASE(3);                       /* CATENATE                           */

     1968     7879    2              CALL VPD$TEXTC_CHARBIN(TWORD,

   7879 12 000226   000000 471500                    LDP1    0,,PR0
        12 000227   100003 473500                    LDP3    3,,PR1
        12 000230   000011 236000 13                 LDQ     9
        12 000231   200016 756100                    STQ     J+4,,AUTO
        12 000232   300003 631500                    EPPR1   3,,PR3
        12 000233   200015 451500                    STP1    J+3,,AUTO
        12 000234   200005 633500                    EPPR3   TWORD,,AUTO
        12 000235   200014 453500                    STP3    J+2,,AUTO
        12 000236   200014 630500                    EPPR0   J+2,,AUTO
        12 000237   000021 631400 xsym               EPPR1   B_VECTNIL+17
        12 000240   000000 701000 xent               TSX1    VPD$TEXTC_CHARBIN
        12 000241   000246 702000 12                 TSX2    BAD_CAT

     1969     7880    2                OPT$->OUT$BLK.SUBLK$(0)->OUT$BLK.SUBLK$(0),
     1970     7881    2                128) ALTRET(BAD_CAT);
     1971     7882    2              ICB.CAT = TWORD;

   7882 12 000242   200005 236100                    LDQ     TWORD,,AUTO
        12 000243   000033 736000                    QLS     27
        12 000244   000167 552040 xsym               STBQ    ICB+119,'40'O

     1972     7883    2              GOTO GOOD_CAT;

   7883 12 000245   000266 710000 12                 TRA     GOOD_CAT

     1973     7884    2   BAD_CAT:   CALL VPL$ERR_PROC(3,20,'06'O,,,,,1); /* CAT OPTION MAX. 128        */

   7884 12 000246   000002 236000 13    BAD_CAT      LDQ     2
        12 000247   000001 235000 xsym               LDA     B_VECTNIL+1
        12 000250   200022 757100                    STAQ    J+8,,AUTO
        12 000251   000001 236000 xsym               LDQ     B_VECTNIL+1
        12 000252   000001 235000 xsym               LDA     B_VECTNIL+1
PL6.E3A0      #005=VPF$PROCESS_INPUT_OPT File=VPF$SRCLST.:E05TSI                 WED 07/30/97 07:40 Page:331
        12 000253   200020 757100                    STAQ    J+6,,AUTO
        12 000254   000001 236000 xsym               LDQ     B_VECTNIL+1
        12 000255   000003 235000 13                 LDA     3
        12 000256   200016 757100                    STAQ    J+4,,AUTO
        12 000257   000014 237000 13                 LDAQ    12
        12 000260   200014 757100                    STAQ    J+2,,AUTO
        12 000261   200014 630500                    EPPR0   J+2,,AUTO
        12 000262   000026 631400 xsym               EPPR1   B_VECTNIL+22
        12 000263   000000 701000 xent               TSX1    VPL$ERR_PROC
        12 000264   000000 011000                    NOP     0

     1974     7885        /*E* ERROR:   VPF-00020
     1975     7886             MESSAGE: CAT greater than 128
     1976     7887        */
     1977     7888    2              ALTRETURN;

   7888 12 000265   000000 702200 xent               TSX2  ! X66_AALT

   7882 12 000266   002055 710000 12    GOOD_CAT     TRA     s:8267

     1978     7889    2   GOOD_CAT:  ;
     1979     7890    2            CASE(4);                       /* CRPT                               */

     1980     7891    2              CALL VPD$MNG_CRPT(ICB.CRPT,OPT$->OUT$BLK.SUBLK$(0)) ALTRET(BAD_CRPT);

   7891 12 000267   000000 471500                    LDP1    0,,PR0
        12 000270   100003 633500                    EPPR3   3,,PR1
        12 000271   200015 453500                    STP3    J+3,,AUTO
        12 000272   000013 236000 13                 LDQ     11
        12 000273   200014 756100                    STQ     J+2,,AUTO
        12 000274   200014 630500                    EPPR0   J+2,,AUTO
        12 000275   000020 631400 xsym               EPPR1   B_VECTNIL+16
        12 000276   000000 701000 xent               TSX1    VPD$MNG_CRPT
        12 000277   000301 702000 12                 TSX2    BAD_CRPT

     1981     7892    3              DO WHILE ('0'B);

PL6.E3A0      #005=VPF$PROCESS_INPUT_OPT File=VPF$SRCLST.:E05TSI                 WED 07/30/97 07:40 Page:332
   7892 12 000300   002055 710000 12                 TRA     s:8267

     1982     7893    3   BAD_CRPT:     CALL VPL$ERR_PROC(3,21,'06'O,,,,,1);

   7893 12 000301   000002 236000 13    BAD_CRPT     LDQ     2
        12 000302   000001 235000 xsym               LDA     B_VECTNIL+1
        12 000303   200022 757100                    STAQ    J+8,,AUTO
        12 000304   000001 236000 xsym               LDQ     B_VECTNIL+1
        12 000305   000001 235000 xsym               LDA     B_VECTNIL+1
        12 000306   200020 757100                    STAQ    J+6,,AUTO
        12 000307   000001 236000 xsym               LDQ     B_VECTNIL+1
        12 000310   000003 235000 13                 LDA     3
        12 000311   200016 757100                    STAQ    J+4,,AUTO
        12 000312   000020 237000 13                 LDAQ    16
        12 000313   200014 757100                    STAQ    J+2,,AUTO
        12 000314   200014 630500                    EPPR0   J+2,,AUTO
        12 000315   000026 631400 xsym               EPPR1   B_VECTNIL+22
        12 000316   000000 701000 xent               TSX1    VPL$ERR_PROC
        12 000317   000000 011000                    NOP     0

     1983     7894    3                 ALTRETURN;

   7894 12 000320   000000 702200 xent               TSX2  ! X66_AALT

     1984     7895        /*E* ERROR:   VPF-00021
     1985     7896             MESSAGE: Invalid CRPT value on input.
     1986     7897        */
     1987     7898    3                 END;

     1988     7899    2            CASE(5);                       /* COLS                               */

     1989     7900    2              CALL VPD$TEXTC_CHARBIN(ICB.COLS,

   7900 12 000321   000000 471500                    LDP1    0,,PR0
        12 000322   100003 473500                    LDP3    3,,PR1
        12 000323   000017 236000 13                 LDQ     15
        12 000324   200016 756100                    STQ     J+4,,AUTO
PL6.E3A0      #005=VPF$PROCESS_INPUT_OPT File=VPF$SRCLST.:E05TSI                 WED 07/30/97 07:40 Page:333
        12 000325   300003 631500                    EPPR1   3,,PR3
        12 000326   200015 451500                    STP1    J+3,,AUTO
        12 000327   000022 236000 13                 LDQ     18
        12 000330   200014 756100                    STQ     J+2,,AUTO
        12 000331   200014 630500                    EPPR0   J+2,,AUTO
        12 000332   000021 631400 xsym               EPPR1   B_VECTNIL+17
        12 000333   000000 701000 xent               TSX1    VPD$TEXTC_CHARBIN
        12 000334   000340 702000 12                 TSX2    BAD_COLS

     1990     7901    2                OPT$->OUT$BLK.SUBLK$(0)->OUT$BLK.SUBLK$(0),
     1991     7902    2                -1) ALTRET(BAD_COLS);
     1992     7903    2              ICB.A_EA_C = 1;

   7903 12 000335   000001 235007                    LDA     1,DL
        12 000336   000014 755000 xsym               STA     ICB+12

     1993     7904    2              GOTO GOOD_COLS;

   7904 12 000337   000360 710000 12                 TRA     GOOD_COLS

     1994     7905    2   BAD_COLS:  CALL VPL$ERR_PROC(3,22,'06'O,,,,,1); /* COLUMNS OPTION MAXIMUM 99  */

   7905 12 000340   000002 236000 13    BAD_COLS     LDQ     2
        12 000341   000001 235000 xsym               LDA     B_VECTNIL+1
        12 000342   200022 757100                    STAQ    J+8,,AUTO
        12 000343   000001 236000 xsym               LDQ     B_VECTNIL+1
        12 000344   000001 235000 xsym               LDA     B_VECTNIL+1
        12 000345   200020 757100                    STAQ    J+6,,AUTO
        12 000346   000001 236000 xsym               LDQ     B_VECTNIL+1
        12 000347   000003 235000 13                 LDA     3
        12 000350   200016 757100                    STAQ    J+4,,AUTO
        12 000351   000024 237000 13                 LDAQ    20
        12 000352   200014 757100                    STAQ    J+2,,AUTO
        12 000353   200014 630500                    EPPR0   J+2,,AUTO
        12 000354   000026 631400 xsym               EPPR1   B_VECTNIL+22
        12 000355   000000 701000 xent               TSX1    VPL$ERR_PROC
        12 000356   000000 011000                    NOP     0
PL6.E3A0      #005=VPF$PROCESS_INPUT_OPT File=VPF$SRCLST.:E05TSI                 WED 07/30/97 07:40 Page:334

     1995     7906        /*E* ERROR:   VPF-00022
     1996     7907             MESSAGE: COLS greater than 99
     1997     7908        */
     1998     7909    2              ALTRETURN;

   7909 12 000357   000000 702200 xent               TSX2  ! X66_AALT

     1999     7910    2   GOOD_COLS: IF ICB.COLS=0

   7910 12 000360   000016 236000 xsym  GOOD_COLS    LDQ     ICB+14
        12 000361   002055 601000 12                 TNZ     s:8267

     2000     7911    2               THEN
     2001     7912    2                 ICB.COLS = 132;

   7912 12 000362   000204 235007                    LDA     132,DL
        12 000363   000016 755000 xsym               STA     ICB+14
        12 000364   002055 710000 12                 TRA     s:8267

     2002     7913    2            CASE(6);                       /* DEOD                               */

     2003     7914    2              ICB.DEOD = 1;

   7914 12 000365   000001 236007                    LDQ     1,DL
        12 000366   000010 756000 xsym               STQ     ICB+8
        12 000367   002055 710000 12                 TRA     s:8267

     2004     7915    2            CASE(7);                       /* EATTRIBUTES                        */

     2005     7916    2              ICB.A_EA_C = 4;

   7916 12 000370   000004 236007                    LDQ     4,DL
        12 000371   000014 756000 xsym               STQ     ICB+12
        12 000372   002055 710000 12                 TRA     s:8267

     2006     7917    2            CASE(8);                       /* NCNVRT                             */
PL6.E3A0      #005=VPF$PROCESS_INPUT_OPT File=VPF$SRCLST.:E05TSI                 WED 07/30/97 07:40 Page:335

     2007     7918    2              ICB.NCNVRT = %YES#;

   7918 12 000373   400000 236003                    LDQ     -131072,DU
        12 000374   000005 756000 xsym               STQ     ICB+5
        12 000375   002055 710000 12                 TRA     s:8267

     2008     7919    2            CASE(9);                       /* FSN                                */

     2009     7920    2              IF RESULTS_FID_IN.NAME

   7920 12 000376   000000 234000 xsym               SZN     RESULTS_FID_IN
        12 000377   000420 605000 12                 TPL     s:7931

     2010     7921    2               THEN
     2011     7922    3               DO;

     2012     7923    3                  CALL VPL$ERR_PROC(3,23,'06'O,,,,,1); /* FSN ILLEGAL WITH NAME  */

   7923 12 000400   000002 236000 13                 LDQ     2
        12 000401   000001 235000 xsym               LDA     B_VECTNIL+1
        12 000402   200022 757100                    STAQ    J+8,,AUTO
        12 000403   000001 236000 xsym               LDQ     B_VECTNIL+1
        12 000404   000001 235000 xsym               LDA     B_VECTNIL+1
        12 000405   200020 757100                    STAQ    J+6,,AUTO
        12 000406   000001 236000 xsym               LDQ     B_VECTNIL+1
        12 000407   000003 235000 13                 LDA     3
        12 000410   200016 757100                    STAQ    J+4,,AUTO
        12 000411   000030 237000 13                 LDAQ    24
        12 000412   200014 757100                    STAQ    J+2,,AUTO
        12 000413   200014 630500                    EPPR0   J+2,,AUTO
        12 000414   000026 631400 xsym               EPPR1   B_VECTNIL+22
        12 000415   000000 701000 xent               TSX1    VPL$ERR_PROC
        12 000416   000000 011000                    NOP     0

     2013     7924        /*E* ERROR:   VPF-00023
     2014     7925             MESSAGE: FSN illegal with named file
PL6.E3A0      #005=VPF$PROCESS_INPUT_OPT File=VPF$SRCLST.:E05TSI                 WED 07/30/97 07:40 Page:336
     2015     7926        */
     2016     7927    3                  ALTRETURN;

   7927 12 000417   000000 702200 xent               TSX2  ! X66_AALT

     2017     7928    3                  END;
     2018     7929    2               ELSE
     2019     7930    3               DO;

     2020     7931    3                  CALL VPD$TEXTC_CHARBIN(TWORD,

   7931 12 000420   000000 471500                    LDP1    0,,PR0
        12 000421   100003 473500                    LDP3    3,,PR1
        12 000422   000032 236000 13                 LDQ     26
        12 000423   200016 756100                    STQ     J+4,,AUTO
        12 000424   300003 631500                    EPPR1   3,,PR3
        12 000425   200015 451500                    STP1    J+3,,AUTO
        12 000426   200005 633500                    EPPR3   TWORD,,AUTO
        12 000427   200014 453500                    STP3    J+2,,AUTO
        12 000430   200014 630500                    EPPR0   J+2,,AUTO
        12 000431   000021 631400 xsym               EPPR1   B_VECTNIL+17
        12 000432   000000 701000 xent               TSX1    VPD$TEXTC_CHARBIN
        12 000433   000503 702000 12                 TSX2    BAD_FSN

     2021     7932    3                    OPT$->OUT$BLK.SUBLK$(0)->OUT$BLK.SUBLK$(0),
     2022     7933    3                    32767) ALTRET(BAD_FSN);
     2023     7934    3                  ICB.FSN.START = TWORD;

   7934 12 000434   200005 720100                    LXL0    TWORD,,AUTO
        12 000435   000044 740000 xsym               STX0    ICB+36

     2024     7935    3                  IF OPT$->OUT$BLK.NSUBLKS>1

   7935 12 000436   200003 470500                    LDP0    @OPT$,,AUTO
        12 000437   000000 471500                    LDP1    0,,PR0
        12 000440   100001 221100                    LDX1    1,,PR1
        12 000441   000002 101003                    CMPX1   2,DU
PL6.E3A0      #005=VPF$PROCESS_INPUT_OPT File=VPF$SRCLST.:E05TSI                 WED 07/30/97 07:40 Page:337
        12 000442   000502 602000 12                 TNC     s:7954

     2025     7936    3                   THEN
     2026     7937    4                   DO;

     2027     7938    4                      CALL VPD$TEXTC_CHARBIN(TWORD,

   7938 12 000443   100004 473500                    LDP3    4,,PR1
        12 000444   000032 236000 13                 LDQ     26
        12 000445   200016 756100                    STQ     J+4,,AUTO
        12 000446   300003 631500                    EPPR1   3,,PR3
        12 000447   200015 451500                    STP1    J+3,,AUTO
        12 000450   200005 633500                    EPPR3   TWORD,,AUTO
        12 000451   200014 453500                    STP3    J+2,,AUTO
        12 000452   200014 630500                    EPPR0   J+2,,AUTO
        12 000453   000021 631400 xsym               EPPR1   B_VECTNIL+17
        12 000454   000000 701000 xent               TSX1    VPD$TEXTC_CHARBIN
        12 000455   000503 702000 12                 TSX2    BAD_FSN

     2028     7939    4                        OPT$->OUT$BLK.SUBLK$(1)->OUT$BLK.SUBLK$(0),
     2029     7940    4                        32767) ALTRET(BAD_FSN);
     2030     7941    4                      ICB.FSN.FINISH = TWORD;

   7941 12 000456   200005 720100                    LXL0    TWORD,,AUTO
        12 000457   000044 440000 xsym               SXL0    ICB+36

     2031     7942    4                      IF ICB.FSN.START>ICB.FSN.FINISH

   7942 12 000460   000044 100000 xsym               CMPX0   ICB+36
        12 000461   000502 603000 12                 TRC     s:7954

     2032     7943    4                       THEN
     2033     7944    5                       DO;

     2034     7945    5                          CALL VPL$ERR_PROC(3,25,'06'O,,,,,1);

   7945 12 000462   000002 236000 13                 LDQ     2
PL6.E3A0      #005=VPF$PROCESS_INPUT_OPT File=VPF$SRCLST.:E05TSI                 WED 07/30/97 07:40 Page:338
        12 000463   000001 235000 xsym               LDA     B_VECTNIL+1
        12 000464   200022 757100                    STAQ    J+8,,AUTO
        12 000465   000001 236000 xsym               LDQ     B_VECTNIL+1
        12 000466   000001 235000 xsym               LDA     B_VECTNIL+1
        12 000467   200020 757100                    STAQ    J+6,,AUTO
        12 000470   000001 236000 xsym               LDQ     B_VECTNIL+1
        12 000471   000003 235000 13                 LDA     3
        12 000472   200016 757100                    STAQ    J+4,,AUTO
        12 000473   000034 237000 13                 LDAQ    28
        12 000474   200014 757100                    STAQ    J+2,,AUTO
        12 000475   200014 630500                    EPPR0   J+2,,AUTO
        12 000476   000026 631400 xsym               EPPR1   B_VECTNIL+22
        12 000477   000000 701000 xent               TSX1    VPL$ERR_PROC
        12 000500   000000 011000                    NOP     0

     2035     7946        /*E* ERROR:   VPF-00025
     2036     7947             MESSAGE: Bad FSN range
     2037     7948        */
     2038     7949                                                /* BAD FSN RANGE                      */
     2039     7950    5                          ALTRETURN;

   7950 12 000501   000000 702200 xent               TSX2  ! X66_AALT

     2040     7951    5                          END;
     2041     7952    4                      END;
     2042     7953    3                  END;
     2043     7954    2              GOTO GOOD_FSN;

   7954 12 000502   000523 710000 12                 TRA     GOOD_FSN

     2044     7955    2   BAD_FSN:   CALL VPL$ERR_PROC(3,24,'06'O,,,,,1); /* FSN VALUE TOO LARGE        */

   7955 12 000503   000002 236000 13    BAD_FSN      LDQ     2
        12 000504   000001 235000 xsym               LDA     B_VECTNIL+1
        12 000505   200022 757100                    STAQ    J+8,,AUTO
        12 000506   000001 236000 xsym               LDQ     B_VECTNIL+1
        12 000507   000001 235000 xsym               LDA     B_VECTNIL+1
PL6.E3A0      #005=VPF$PROCESS_INPUT_OPT File=VPF$SRCLST.:E05TSI                 WED 07/30/97 07:40 Page:339
        12 000510   200020 757100                    STAQ    J+6,,AUTO
        12 000511   000001 236000 xsym               LDQ     B_VECTNIL+1
        12 000512   000003 235000 13                 LDA     3
        12 000513   200016 757100                    STAQ    J+4,,AUTO
        12 000514   000040 237000 13                 LDAQ    32
        12 000515   200014 757100                    STAQ    J+2,,AUTO
        12 000516   200014 630500                    EPPR0   J+2,,AUTO
        12 000517   000026 631400 xsym               EPPR1   B_VECTNIL+22
        12 000520   000000 701000 xent               TSX1    VPL$ERR_PROC
        12 000521   000000 011000                    NOP     0

     2045     7956        /*E* ERROR:   VPF-00024
     2046     7957             MESSAGE: FSN too large
     2047     7958        */
     2048     7959    2              ALTRETURN;

   7959 12 000522   000000 702200 xent               TSX2  ! X66_AALT

   7955 12 000523   002055 710000 12    GOOD_FSN     TRA     s:8267

     2049     7960    2   GOOD_FSN:  ;
     2050     7961    2            CASE(10);                      /* ORGS                               */

     2051     7962    2              ICB.ORG = '0'B;

   7962 12 000524   000135 450000 xsym               STZ     ICB+93

     2052     7963    3              DO TWORD=0 TO OPT$->OUT$BLK.NSUBLKS-1;

   7963 12 000525   200005 450100                    STZ     TWORD,,AUTO
        12 000526   000556 710000 12                 TRA     s:7969+3

     2053     7964    3                 I = OPT$ -> OUT$BLK.SUBLK$(TWORD) -> OUT$BLK.CODE; /* ORG code  */

   7964 12 000527   200003 470500                    LDP0    @OPT$,,AUTO
        12 000530   000000 471500                    LDP1    0,,PR0
        12 000531   200005 720100                    LXL0    TWORD,,AUTO
PL6.E3A0      #005=VPF$PROCESS_INPUT_OPT File=VPF$SRCLST.:E05TSI                 WED 07/30/97 07:40 Page:340
        12 000532   100003 473510                    LDP3    3,X0,PR1
        12 000533   300000 236100                    LDQ     0,,PR3
        12 000534   777777 376007                    ANQ     -1,DL
        12 000535   200011 756100                    STQ     I,,AUTO

     2054     7965    3                 IF I=99 THEN              /* This means the ~= was specified    */

   7965 12 000536   000143 116007                    CMPQ    99,DL
        12 000537   000543 601000 12                 TNZ     s:7968

     2055     7966    3                    ICB.ORG_NEG = '1'B;

   7966 12 000540   400000 236003                    LDQ     -131072,DU
        12 000541   000136 756000 xsym               STQ     ICB+94
        12 000542   000553 710000 12                 TRA     s:7969

     2056     7967    3                  ELSE
     2057     7968    3                    ICB.ORG(ORG_TBL.ORG_MON(I)) = '1'B;

   7968 12 000543   000022 402007                    MPY     18,DL
        12 000544   000100 101406                    MRL     fill='000'O
        12 000545   000000 000001 xsym               ADSC9   ORG_TBL,Q                cn=0,n=1
        12 000546   200014 000004                    ADSC9   J+2,,AUTO                cn=0,n=4
        12 000547   200014 236100                    LDQ     J+2,,AUTO
        12 000550   003006 060400                    CSL     bolr='003'O
        12 000551   000030 000001 xsym               BDSC    B_VECTNIL+24             by=0,bit=0,n=1
        12 000552   000135 000001 xsym               BDSC    ICB+93,Q                 by=0,bit=0,n=1

     2058     7969    3                 END;

   7969 12 000553   200005 235100                    LDA     TWORD,,AUTO
        12 000554   000001 035007                    ADLA    1,DL
        12 000555   200005 755100                    STA     TWORD,,AUTO
        12 000556   000000 471500                    LDP1    0,,PR0
        12 000557   100001 236100                    LDQ     1,,PR1
        12 000560   000022 772000                    QRL     18
        12 000561   200005 116100                    CMPQ    TWORD,,AUTO
PL6.E3A0      #005=VPF$PROCESS_INPUT_OPT File=VPF$SRCLST.:E05TSI                 WED 07/30/97 07:40 Page:341
        12 000562   000564 600000 12                 TZE     s:7969+9
        12 000563   000527 603000 12                 TRC     s:7964
        12 000564   002055 710000 12                 TRA     s:8267

     2059     7970    2            CASE(11);                      /* PHYSICAL                           */

     2060     7971    2              ICB.PHYSICAL = 1;

   7971 12 000565   000001 236007                    LDQ     1,DL
        12 000566   000011 756000 xsym               STQ     ICB+9
        12 000567   002055 710000 12                 TRA     s:8267

     2061     7972    2            CASE(12);                      /* RECORD SELECTION                   */

     2062     7973    2              IF KEY_AREA$=ADDR(NIL) THEN  /* First one encountered?             */

   7973 12 000570   000000 236000 xsym               LDQ     KEY_AREA$
        12 000571   000001 116000 xsym               CMPQ    B_VECTNIL+1
        12 000572   000604 601000 12                 TNZ     s:7978

     2063     7974    2                 CALL VPD$GET_BUF(KEY_AREA$,2048) /* Get two pages for keys      */

   7974 12 000573   000042 630400 13                 EPPR0   34
        12 000574   000020 631400 xsym               EPPR1   B_VECTNIL+16
        12 000575   000000 701000 xent               TSX1    VPD$GET_BUF
        12 000576   000600 702000 12                 TSX2    s:7976
        12 000577   000604 710000 12                 TRA     s:7978

     2064     7975    3                  WHENALTRETURN DO;

     2065     7976    3                     CALL VPL$ERR_PROC(3,0);

   7976 12 000600   000044 630400 13                 EPPR0   36
        12 000601   000020 631400 xsym               EPPR1   B_VECTNIL+16
        12 000602   000000 701000 xent               TSX1    VPL$ERR_PROC
        12 000603   000000 011000                    NOP     0

PL6.E3A0      #005=VPF$PROCESS_INPUT_OPT File=VPF$SRCLST.:E05TSI                 WED 07/30/97 07:40 Page:342
     2066     7977    3                     END;

     2067     7978    2              IF REC_SEL_CNT>9

   7978 12 000604   000000 235000 xsym               LDA     REC_SEL_CNT
        12 000605   000011 115007                    CMPA    9,DL
        12 000606   000627 604400 12                 TMOZ    s:7989

     2068     7979    2               THEN
     2069     7980    3               DO;

     2070     7981    3                  CALL VPL$ERR_PROC(3,40,'06'O,,,,,1); /* ABORT and return       */

   7981 12 000607   000002 236000 13                 LDQ     2
        12 000610   000001 235000 xsym               LDA     B_VECTNIL+1
        12 000611   200022 757100                    STAQ    J+8,,AUTO
        12 000612   000001 236000 xsym               LDQ     B_VECTNIL+1
        12 000613   000001 235000 xsym               LDA     B_VECTNIL+1
        12 000614   200020 757100                    STAQ    J+6,,AUTO
        12 000615   000001 236000 xsym               LDQ     B_VECTNIL+1
        12 000616   000003 235000 13                 LDA     3
        12 000617   200016 757100                    STAQ    J+4,,AUTO
        12 000620   000050 237000 13                 LDAQ    40
        12 000621   200014 757100                    STAQ    J+2,,AUTO
        12 000622   200014 630500                    EPPR0   J+2,,AUTO
        12 000623   000026 631400 xsym               EPPR1   B_VECTNIL+22
        12 000624   000000 701000 xent               TSX1    VPL$ERR_PROC
        12 000625   000000 011000                    NOP     0

     2071     7982        /*E* ERROR:   VPF-00040
     2072     7983             MESSAGE: More than 10 record selections
     2073     7984        */
     2074     7985    3                  ALTRETURN;

   7985 12 000626   000000 702200 xent               TSX2  ! X66_AALT

     2075     7986    3                  END;
PL6.E3A0      #005=VPF$PROCESS_INPUT_OPT File=VPF$SRCLST.:E05TSI                 WED 07/30/97 07:40 Page:343
     2076     7987    2               ELSE
     2077     7988    3               DO;

     2078     7989    3                  T$ = OPT$->OUT$BLK.SUBLK$(0);

   7989 12 000627   200003 470500                    LDP0    @OPT$,,AUTO
        12 000630   000000 471500                    LDP1    0,,PR0
        12 000631   100003 236100                    LDQ     3,,PR1
        12 000632   200006 756100                    STQ     T$,,AUTO

     2079     7990    3                  ICB.REC_SEL.SPEC.TYPE(REC_SEL_CNT) = T$->OUT$BLK.CODE;

   7990 12 000633   000000 236000 xsym               LDQ     REC_SEL_CNT
        12 000634   000005 402007                    MPY     5,DL
        12 000635   200006 473500                    LDP3    T$,,AUTO
        12 000636   000000 620006                    EAX0    0,QL
        12 000637   300000 236100                    LDQ     0,,PR3
        12 000640   777777 376007                    ANQ     -1,DL
        12 000641   000050 756010 xsym               STQ     ICB+40,X0

     2080     7991    3                  ICB.REC_SEL.SPEC.START.KEY$(REC_SEL_CNT) = ADDR(NIL);

   7991 12 000642   000001 236000 xsym               LDQ     B_VECTNIL+1
        12 000643   000051 756010 xsym               STQ     ICB+41,X0

     2081     7992    3                  ICB.REC_SEL.SPEC.FINISH.KEY$(REC_SEL_CNT) = ADDR(NIL);

   7992 12 000644   000053 756010 xsym               STQ     ICB+43,X0

     2082     7993    3                  IF T$->OUT$BLK.CODE = 1

   7993 12 000645   300000 721100                    LXL1    0,,PR3
        12 000646   000001 101003                    CMPX1   1,DU
        12 000647   000657 601000 12                 TNZ     s:7999

     2083     7994    4                   THEN DO;                /* Logical record selection           */

PL6.E3A0      #005=VPF$PROCESS_INPUT_OPT File=VPF$SRCLST.:E05TSI                 WED 07/30/97 07:40 Page:344
     2084     7995    4                      ICB.LREC_SEL = '1'B;

   7995 12 000650   400000 236003                    LDQ     -131072,DU
        12 000651   000046 756000 xsym               STQ     ICB+38

     2085     7996    4                      TO_KEY$ = ADDR(ICB.REC_SEL.SPEC.START.SEQ(REC_SEL_CNT));

   7996 12 000652   000000 236000 xsym               LDQ     REC_SEL_CNT
        12 000653   000005 402003                    MPY     5,DU
        12 000654   000047 036000 13                 ADLQ    39
        12 000655   200007 756100                    STQ     TO_KEY$,,AUTO

     2086     7997    4                      END;

   7997 12 000656   000663 710000 12                 TRA     s:8002

     2087     7998    4                   ELSE DO;                /* Keyed record selection             */

     2088     7999    4                      ICB.KEY_SEL = '1'B;

   7999 12 000657   400000 236003                    LDQ     -131072,DU
        12 000660   000045 756000 xsym               STQ     ICB+37

     2089     8000    4                      TO_KEY$=KEY_AREA$;

   8000 12 000661   000000 236000 xsym               LDQ     KEY_AREA$
        12 000662   200007 756100                    STQ     TO_KEY$,,AUTO

     2090     8001    4                      END;

     2091     8002    3                  FROM_KEY$ = T$->OUT$BLK.SUBLK$(0);

   8002 12 000663   300003 236100                    LDQ     3,,PR3
        12 000664   200010 756100                    STQ     FROM_KEY$,,AUTO

     2092     8003    3                  CALL VPD$GET_KEY_OR_NUM(FROM_KEY$,TO_KEY$) ALTRET(BAD_KEY1);

PL6.E3A0      #005=VPF$PROCESS_INPUT_OPT File=VPF$SRCLST.:E05TSI                 WED 07/30/97 07:40 Page:345
   8003 12 000665   200007 631500                    EPPR1   TO_KEY$,,AUTO
        12 000666   200015 451500                    STP1    J+3,,AUTO
        12 000667   200010 634500                    EPPR4   FROM_KEY$,,AUTO
        12 000670   200014 454500                    STP4    J+2,,AUTO
        12 000671   200014 630500                    EPPR0   J+2,,AUTO
        12 000672   000020 631400 xsym               EPPR1   B_VECTNIL+16
        12 000673   000000 701000 xent               TSX1    VPD$GET_KEY_OR_NUM
        12 000674   000724 702000 12                 TSX2    BAD_KEY1

     2093     8004    4                  IF ICB.REC_SEL.SPEC.TYPE(REC_SEL_CNT)=1 THEN DO;

   8004 12 000675   000000 236000 xsym               LDQ     REC_SEL_CNT
        12 000676   000005 402007                    MPY     5,DL
        12 000677   000050 235006 xsym               LDA     ICB+40,QL
        12 000700   000001 115007                    CMPA    1,DL
        12 000701   000707 601000 12                 TNZ     s:8009

     2094     8005    4                      ICB.REC_SEL.SPEC.START.KEY$(REC_SEL_CNT)=ADDR(NIL);

   8005 12 000702   000000 620006                    EAX0    0,QL
        12 000703   000001 236000 xsym               LDQ     B_VECTNIL+1
        12 000704   000051 756010 xsym               STQ     ICB+41,X0

     2095     8006    4                      ICB.REC_SEL.SPEC.FINISH.KEY$(REC_SEL_CNT)=ADDR(NIL);

   8006 12 000705   000053 756010 xsym               STQ     ICB+43,X0

     2096     8007    4                      END;

   8007 12 000706   000723 710000 12                 TRA     s:8012

     2097     8008    4                   ELSE DO;

     2098     8009    4                      ICB.REC_SEL.SPEC.START.KEY$(REC_SEL_CNT)=KEY_AREA$;

   8009 12 000707   000000 620006                    EAX0    0,QL
        12 000710   000000 236000 xsym               LDQ     KEY_AREA$
PL6.E3A0      #005=VPF$PROCESS_INPUT_OPT File=VPF$SRCLST.:E05TSI                 WED 07/30/97 07:40 Page:346
        12 000711   000051 756010 xsym               STQ     ICB+41,X0

     2099     8010    4                      KEY_AREA$=PINCRC(KEY_AREA$,KEY_AREA$->TEXT$C.LEN+1);
              8010                               /* move avail ptr*/

   8010 12 000712   000000 470400 xsym               LDP0    KEY_AREA$
        12 000713   000100 101500                    MRL     fill='000'O
        12 000714   000000 000001                    ADSC9   0,,PR0                   cn=0,n=1
        12 000715   200014 000004                    ADSC9   J+2,,AUTO                cn=0,n=4
        12 000716   200014 236100                    LDQ     J+2,,AUTO
        12 000717   000020 736000                    QLS     16
        12 000720   200000 036007                    ADLQ    65536,DL
        12 000721   000000 036000 xsym               ADLQ    KEY_AREA$
        12 000722   000000 756000 xsym               STQ     KEY_AREA$

     2100     8011    4                      END;

     2101     8012    4                  DO WHILE ('0'B);         /* Never do                           */

   8012 12 000723   000725 710000 12                 TRA     s:8016

     2102     8013    4   BAD_KEY1:         ALTRETURN;            /* Record selection problems          */

   8013 12 000724   000000 702200 xent  BAD_KEY1     TSX2  ! X66_AALT

     2103     8014    4                     END;

     2104     8015                                                /* INSURE A RANGE                     */
     2105     8016    3                  IF T$->OUT$BLK.NSUBLKS>1

   8016 12 000725   200006 470500                    LDP0    T$,,AUTO
        12 000726   000001 221100                    LDX1    1,,PR0
        12 000727   000002 101003                    CMPX1   2,DU
        12 000730   001065 602000 12                 TNC     s:8052

     2106     8017    3                   THEN                    /* A range, not a single record       */
     2107     8018    3                     IF T$->OUT$BLK.SUBLK$(1)->OUT$BLK.CODE=5
PL6.E3A0      #005=VPF$PROCESS_INPUT_OPT File=VPF$SRCLST.:E05TSI                 WED 07/30/97 07:40 Page:347

   8018 12 000731   000004 471500                    LDP1    4,,PR0
        12 000732   100000 722100                    LXL2    0,,PR1
        12 000733   000005 102003                    CMPX2   5,DU
        12 000734   001074 600000 12                 TZE     s:8053

     2108     8019    3                      THEN
     2109     8020    3                        ;                  /* Open ended range specified         */
     2110     8021    4                      ELSE DO;             /* A range end was specified          */

     2111     8022    4                         FROM_KEY$ = T$->OUT$BLK.SUBLK$(1);

   8022 12 000735   000004 236100                    LDQ     4,,PR0
        12 000736   200010 756100                    STQ     FROM_KEY$,,AUTO

     2112     8023    4                         IF ICB.REC_SEL.SPEC.TYPE(REC_SEL_CNT)=1 THEN

   8023 12 000737   000050 235010 xsym               LDA     ICB+40,X0
        12 000740   000001 115007                    CMPA    1,DL
        12 000741   000747 601000 12                 TNZ     s:8026

     2113     8024    4                            TO_KEY$=ADDR(ICB.REC_SEL.SPEC.FINISH.SEQ(REC_SEL_CNT));

   8024 12 000742   000000 236000 xsym               LDQ     REC_SEL_CNT
        12 000743   000005 402003                    MPY     5,DU
        12 000744   000052 036000 13                 ADLQ    42
        12 000745   200007 756100                    STQ     TO_KEY$,,AUTO
        12 000746   000751 710000 12                 TRA     s:8027

     2114     8025    4                          ELSE
     2115     8026    4                            TO_KEY$=KEY_AREA$;

   8026 12 000747   000000 236000 xsym               LDQ     KEY_AREA$
        12 000750   200007 756100                    STQ     TO_KEY$,,AUTO

     2116     8027    4                         CALL VPD$GET_KEY_OR_NUM(FROM_KEY$,TO_KEY$) ALTRET(BAD_KEY2);

PL6.E3A0      #005=VPF$PROCESS_INPUT_OPT File=VPF$SRCLST.:E05TSI                 WED 07/30/97 07:40 Page:348
   8027 12 000751   200007 631500                    EPPR1   TO_KEY$,,AUTO
        12 000752   200015 451500                    STP1    J+3,,AUTO
        12 000753   200010 633500                    EPPR3   FROM_KEY$,,AUTO
        12 000754   200014 453500                    STP3    J+2,,AUTO
        12 000755   200014 630500                    EPPR0   J+2,,AUTO
        12 000756   000020 631400 xsym               EPPR1   B_VECTNIL+16
        12 000757   000000 701000 xent               TSX1    VPD$GET_KEY_OR_NUM
        12 000760   001003 702000 12                 TSX2    BAD_KEY2

     2117     8028    5                         IF ICB.REC_SEL.SPEC.TYPE(REC_SEL_CNT)=2 THEN DO;

   8028 12 000761   000000 236000 xsym               LDQ     REC_SEL_CNT
        12 000762   000005 402007                    MPY     5,DL
        12 000763   000050 235006 xsym               LDA     ICB+40,QL
        12 000764   000002 115007                    CMPA    2,DL
        12 000765   001002 601000 12                 TNZ     s:8032

     2118     8029    5                             ICB.REC_SEL.SPEC.FINISH.KEY$(REC_SEL_CNT)=KEY_AREA$;

   8029 12 000766   000000 620006                    EAX0    0,QL
        12 000767   000000 236000 xsym               LDQ     KEY_AREA$
        12 000770   000053 756010 xsym               STQ     ICB+43,X0

     2119     8030    5                             KEY_AREA$=PINCRC(KEY_AREA$,KEY_AREA$->TEXT$C.LEN+1);

   8030 12 000771   000000 470400 xsym               LDP0    KEY_AREA$
        12 000772   000100 101500                    MRL     fill='000'O
        12 000773   000000 000001                    ADSC9   0,,PR0                   cn=0,n=1
        12 000774   200014 000004                    ADSC9   J+2,,AUTO                cn=0,n=4
        12 000775   200014 236100                    LDQ     J+2,,AUTO
        12 000776   000020 736000                    QLS     16
        12 000777   200000 036007                    ADLQ    65536,DL
        12 001000   000000 036000 xsym               ADLQ    KEY_AREA$
        12 001001   000000 756000 xsym               STQ     KEY_AREA$

     2120     8031    5                             END;

PL6.E3A0      #005=VPF$PROCESS_INPUT_OPT File=VPF$SRCLST.:E05TSI                 WED 07/30/97 07:40 Page:349
     2121     8032    5                         DO WHILE ('0'B);  /* Never do                           */

   8032 12 001002   001004 710000 12                 TRA     s:8035

     2122     8033    5   BAD_KEY2:                ALTRETURN;     /* Record selection problems          */

   8033 12 001003   000000 702200 xent  BAD_KEY2     TSX2  ! X66_AALT

     2123     8034    5                            END;

     2124     8035    4                         I=0;

   8035 12 001004   200011 450100                    STZ     I,,AUTO

     2125     8036    4                         IF ICB.REC_SEL.SPEC.START.KEY$(REC_SEL_CNT)~=ADDR(NIL) THEN

   8036 12 001005   000000 236000 xsym               LDQ     REC_SEL_CNT
        12 001006   000005 402007                    MPY     5,DL
        12 001007   000051 236006 xsym               LDQ     ICB+41,QL
        12 001010   000001 116000 xsym               CMPQ    B_VECTNIL+1
        12 001011   001034 600000 12                 TZE     s:8040

     2126     8037    4                            IF ICB.REC_SEL.SPEC.START.KEY$(REC_SEL_CNT)->TEXT$C.STRING

   8037 12 001012   000000 236000 xsym               LDQ     REC_SEL_CNT
        12 001013   000005 402007                    MPY     5,DL
        12 001014   000051 470406 xsym               LDP0    ICB+41,QL
        12 001015   000100 101500                    MRL     fill='000'O
        12 001016   000000 000001                    ADSC9   0,,PR0                   cn=0,n=1
        12 001017   200014 000002                    ADSC9   J+2,,AUTO                cn=0,n=2
        12 001020   200014 220100                    LDX0    J+2,,AUTO
        12 001021   000053 471406 xsym               LDP1    ICB+43,QL
        12 001022   000100 101500                    MRL     fill='000'O
        12 001023   100000 000001                    ADSC9   0,,PR1                   cn=0,n=1
        12 001024   200015 000002                    ADSC9   J+3,,AUTO                cn=0,n=2
        12 001025   200015 221100                    LDX1    J+3,,AUTO
        12 001026   040140 106540                    CMPC    fill='040'O
PL6.E3A0      #005=VPF$PROCESS_INPUT_OPT File=VPF$SRCLST.:E05TSI                 WED 07/30/97 07:40 Page:350
        12 001027   100000 200011                    ADSC9   0,,PR1                   cn=1,n=*X1
        12 001030   000000 200010                    ADSC9   0,,PR0                   cn=1,n=*X0
        12 001031   001034 603000 12                 TRC     s:8040

     2127     8038    4                              > ICB.REC_SEL.SPEC.FINISH.KEY$(REC_SEL_CNT)->TEXT$C.
              8038                                       STRING THEN
     2128     8039    4                               I=1;

   8039 12 001032   000001 235007                    LDA     1,DL
        12 001033   200011 755100                    STA     I,,AUTO

     2129     8040    4                         IF I=1 OR ICB.REC_SEL.SPEC.START.SEQ(REC_SEL_CNT) >

   8040 12 001034   200011 235100                    LDA     I,,AUTO
        12 001035   000001 115007                    CMPA    1,DL
        12 001036   001045 600000 12                 TZE     s:8044
        12 001037   000000 236000 xsym               LDQ     REC_SEL_CNT
        12 001040   000005 402007                    MPY     5,DL
        12 001041   000000 620006                    EAX0    0,QL
        12 001042   000054 236010 xsym               LDQ     ICB+44,X0
        12 001043   000052 116010 xsym               CMPQ    ICB+42,X0
        12 001044   001074 603000 12                 TRC     s:8053

     2130     8041    4                           ICB.REC_SEL.SPEC.FINISH.SEQ(REC_SEL_CNT)
     2131     8042    4                          THEN
     2132     8043    5                          DO;

     2133     8044    5                             CALL VPL$ERR_PROC(3,29,'06'O,,,,,1);

   8044 12 001045   000002 236000 13                 LDQ     2
        12 001046   000001 235000 xsym               LDA     B_VECTNIL+1
        12 001047   200022 757100                    STAQ    J+8,,AUTO
        12 001050   000001 236000 xsym               LDQ     B_VECTNIL+1
        12 001051   000001 235000 xsym               LDA     B_VECTNIL+1
        12 001052   200020 757100                    STAQ    J+6,,AUTO
        12 001053   000001 236000 xsym               LDQ     B_VECTNIL+1
        12 001054   000003 235000 13                 LDA     3
PL6.E3A0      #005=VPF$PROCESS_INPUT_OPT File=VPF$SRCLST.:E05TSI                 WED 07/30/97 07:40 Page:351
        12 001055   200016 757100                    STAQ    J+4,,AUTO
        12 001056   000054 237000 13                 LDAQ    44
        12 001057   200014 757100                    STAQ    J+2,,AUTO
        12 001060   200014 630500                    EPPR0   J+2,,AUTO
        12 001061   000026 631400 xsym               EPPR1   B_VECTNIL+22
        12 001062   000000 701000 xent               TSX1    VPL$ERR_PROC
        12 001063   000000 011000                    NOP     0

     2134     8045        /*E* ERROR:   VPF-00029
     2135     8046             MESSAGE: Bad record selection range
     2136     8047        */
     2137     8048    5                             ALTRETURN;    /* BAD RECORD SELECTION RANGE         */

   8048 12 001064   000000 702200 xent               TSX2  ! X66_AALT

     2138     8049    5                             END;
     2139     8050    4                         END;
     2140     8051    3                   ELSE                    /* A single record selected           */
     2141     8052    3                     ICB.REC_SEL.SPEC.FINISH(REC_SEL_CNT) = ICB.REC_SEL.SPEC.START(
              8052                              REC_SEL_CNT);

   8052 12 001065   000000 236000 xsym               LDQ     REC_SEL_CNT
        12 001066   000024 402007                    MPY     20,DL
        12 001067   000000 635010                    EAA     0,X0
        12 001070   000020 731000                    ARS     16
        12 001071   000005 100406                    MLR     fill='000'O
        12 001072   000051 000010 xsym               ADSC9   ICB+41,Q                 cn=0,n=8
        12 001073   000053 000010 xsym               ADSC9   ICB+43,A                 cn=0,n=8

     2142     8053    3                  REC_SEL_CNT = REC_SEL_CNT+1;

   8053 12 001074   000000 054000 xsym               AOS     REC_SEL_CNT

     2143     8054    3                  END;

   8054 12 001075   002055 710000 12                 TRA     s:8267

PL6.E3A0      #005=VPF$PROCESS_INPUT_OPT File=VPF$SRCLST.:E05TSI                 WED 07/30/97 07:40 Page:352
     2144     8055    2            CASE(13);                      /* TYPE                               */

     2145     8056    2              IF OPT$->OUT$BLK.NSUBLKS>10

   8056 12 001076   000000 471500                    LDP1    0,,PR0
        12 001077   100001 220100                    LDX0    1,,PR1
        12 001100   000013 100003                    CMPX0   11,DU
        12 001101   001122 602000 12                 TNC     s:8070

     2146     8057    2               THEN
     2147     8058    3               DO;

     2148     8059    3                  CALL VPL$ERR_PROC(3,32,'06'O,,,,,1); /* TOO MANY TYPES GIVEN   */

   8059 12 001102   000002 236000 13                 LDQ     2
        12 001103   000001 235000 xsym               LDA     B_VECTNIL+1
        12 001104   200022 757100                    STAQ    J+8,,AUTO
        12 001105   000001 236000 xsym               LDQ     B_VECTNIL+1
        12 001106   000001 235000 xsym               LDA     B_VECTNIL+1
        12 001107   200020 757100                    STAQ    J+6,,AUTO
        12 001110   000001 236000 xsym               LDQ     B_VECTNIL+1
        12 001111   000003 235000 13                 LDA     3
        12 001112   200016 757100                    STAQ    J+4,,AUTO
        12 001113   000060 237000 13                 LDAQ    48
        12 001114   200014 757100                    STAQ    J+2,,AUTO
        12 001115   200014 630500                    EPPR0   J+2,,AUTO
        12 001116   000026 631400 xsym               EPPR1   B_VECTNIL+22
        12 001117   000000 701000 xent               TSX1    VPL$ERR_PROC
        12 001120   000000 011000                    NOP     0

     2149     8060        /*E* ERROR:   VPF-00032
     2150     8061             MESSAGE: More than 10 TYPE's specified
     2151     8062        */
     2152     8063        /*E* ERROR:   VPF-00033
     2153     8064             MESSAGE: TYPE greater than 2 chars
     2154     8065        */
     2155     8066    3                  ALTRETURN;
PL6.E3A0      #005=VPF$PROCESS_INPUT_OPT File=VPF$SRCLST.:E05TSI                 WED 07/30/97 07:40 Page:353

   8066 12 001121   000000 702200 xent               TSX2  ! X66_AALT

     2156     8067    3                  END;
     2157     8068    2               ELSE
     2158     8069    3               DO;

     2159     8070    3                  ICB.TYPE.COUNT = 0;

   8070 12 001122   000150 450000 xsym               STZ     ICB+104

     2160     8071    3                  I=0;

   8071 12 001123   200011 450100                    STZ     I,,AUTO

     2161     8072    4                  IF OPT$->OUT$BLK.SUBLK$(0)->OUT$BLK.CODE=99 THEN DO;

   8072 12 001124   000000 471500                    LDP1    0,,PR0
        12 001125   100003 473500                    LDP3    3,,PR1
        12 001126   300000 720100                    LXL0    0,,PR3
        12 001127   000143 100003                    CMPX0   99,DU
        12 001130   001135 601000 12                 TNZ     s:8076

     2162     8073    4                      ICB.TYPE.NEG='1'B;

   8073 12 001131   400000 236003                    LDQ     -131072,DU
        12 001132   000151 756000 xsym               STQ     ICB+105

     2163     8074    4                      I=1;

   8074 12 001133   000001 235007                    LDA     1,DL
        12 001134   200011 755100                    STA     I,,AUTO

     2164     8075    4                      END;

     2165     8076    4                  DO WHILE(I<OPT$->OUT$BLK.NSUBLKS);

PL6.E3A0      #005=VPF$PROCESS_INPUT_OPT File=VPF$SRCLST.:E05TSI                 WED 07/30/97 07:40 Page:354
   8076 12 001135   000000 471500                    LDP1    0,,PR0
        12 001136   100001 236100                    LDQ     1,,PR1
        12 001137   000022 772000                    QRL     18
        12 001140   200011 116100                    CMPQ    I,,AUTO
        12 001141   002055 602000 12                 TNC     s:8267
        12 001142   002055 600000 12                 TZE     s:8267

     2166     8077    4                     T$ = OPT$->OUT$BLK.SUBLK$(I);

   8077 12 001143   200003 470500                    LDP0    @OPT$,,AUTO
        12 001144   000000 471500                    LDP1    0,,PR0
        12 001145   200011 720100                    LXL0    I,,AUTO
        12 001146   100003 236110                    LDQ     3,X0,PR1
        12 001147   200006 756100                    STQ     T$,,AUTO

     2167     8078    4                     IF T$->OUT$SYM.COUNT>2

   8078 12 001150   200006 473500                    LDP3    T$,,AUTO
        12 001151   300004 236100                    LDQ     4,,PR3
        12 001152   777000 376003                    ANQ     -512,DU
        12 001153   003000 116003                    CMPQ    1536,DU
        12 001154   001175 602000 12                 TNC     s:8085

     2168     8079    4                      THEN
     2169     8080    5                      DO;

     2170     8081    5                         CALL VPL$ERR_PROC(3,33,'06'O,,,,,1);

   8081 12 001155   000002 236000 13                 LDQ     2
        12 001156   000001 235000 xsym               LDA     B_VECTNIL+1
        12 001157   200022 757100                    STAQ    J+8,,AUTO
        12 001160   000001 236000 xsym               LDQ     B_VECTNIL+1
        12 001161   000001 235000 xsym               LDA     B_VECTNIL+1
        12 001162   200020 757100                    STAQ    J+6,,AUTO
        12 001163   000001 236000 xsym               LDQ     B_VECTNIL+1
        12 001164   000003 235000 13                 LDA     3
        12 001165   200016 757100                    STAQ    J+4,,AUTO
PL6.E3A0      #005=VPF$PROCESS_INPUT_OPT File=VPF$SRCLST.:E05TSI                 WED 07/30/97 07:40 Page:355
        12 001166   000062 237000 13                 LDAQ    50
        12 001167   200014 757100                    STAQ    J+2,,AUTO
        12 001170   200014 630500                    EPPR0   J+2,,AUTO
        12 001171   000026 631400 xsym               EPPR1   B_VECTNIL+22
        12 001172   000000 701000 xent               TSX1    VPL$ERR_PROC
        12 001173   000000 011000                    NOP     0

     2171     8082    5                         ALTRETURN;        /* TYPE TOO LONG                      */

   8082 12 001174   000000 702200 xent               TSX2  ! X66_AALT

     2172     8083    5                         END;
     2173     8084    4                      ELSE
     2174     8085    4                        ICB.TYPE.STRING(ICB.TYPE.COUNT) = T$->OUT$SYM.TEXT;

   8085 12 001175   300004 236100                    LDQ     4,,PR3
        12 001176   000033 772000                    QRL     27
        12 001177   000150 235000 xsym               LDA     ICB+104
        12 001200   000001 735000                    ALS     1
        12 001201   000000 621006                    EAX1    0,QL
        12 001202   040005 100540                    MLR     fill='040'O
        12 001203   300004 200011                    ADSC9   4,,PR3                   cn=1,n=*X1
        12 001204   000152 000002 xsym               ADSC9   ICB+106,A                cn=0,n=2

     2175     8086    4                     ICB.TYPE.COUNT = ICB.TYPE.COUNT+1;

   8086 12 001205   000150 054000 xsym               AOS     ICB+104

     2176     8087    4                     I=I+1;

   8087 12 001206   200011 235100                    LDA     I,,AUTO
        12 001207   000001 035007                    ADLA    1,DL
        12 001210   200011 755100                    STA     I,,AUTO

     2177     8088    4                     END;

   8088 12 001211   000000 471500                    LDP1    0,,PR0
PL6.E3A0      #005=VPF$PROCESS_INPUT_OPT File=VPF$SRCLST.:E05TSI                 WED 07/30/97 07:40 Page:356
        12 001212   100001 236100                    LDQ     1,,PR1
        12 001213   000022 772000                    QRL     18
        12 001214   200011 116100                    CMPQ    I,,AUTO
        12 001215   001217 600000 12                 TZE     s:8089
        12 001216   001143 603000 12                 TRC     s:8077

     2178     8089    3                  END;

   8089 12 001217   002055 710000 12                 TRA     s:8267

     2179     8090    2            CASE(14);                      /* VOLUME                             */

     2180     8091    2              CALL VPD$TEXTC_CHARBIN(TWORD,

   8091 12 001220   000000 471500                    LDP1    0,,PR0
        12 001221   100003 473500                    LDP3    3,,PR1
        12 001222   000065 236000 13                 LDQ     53
        12 001223   200016 756100                    STQ     J+4,,AUTO
        12 001224   300003 631500                    EPPR1   3,,PR3
        12 001225   200015 451500                    STP1    J+3,,AUTO
        12 001226   200005 633500                    EPPR3   TWORD,,AUTO
        12 001227   200014 453500                    STP3    J+2,,AUTO
        12 001230   200014 630500                    EPPR0   J+2,,AUTO
        12 001231   000021 631400 xsym               EPPR1   B_VECTNIL+17
        12 001232   000000 701000 xent               TSX1    VPD$TEXTC_CHARBIN
        12 001233   001240 702000 12                 TSX2    BAD_VOL

     2181     8092    2                OPT$->OUT$BLK.SUBLK$(0)->OUT$BLK.SUBLK$(0),
     2182     8093    2                511) ALTRET(BAD_VOL);
     2183     8094    2              ICB.VOL = TWORD;

   8094 12 001234   200005 236100                    LDQ     TWORD,,AUTO
        12 001235   000033 736000                    QLS     27
        12 001236   000157 552040 xsym               STBQ    ICB+111,'40'O

     2184     8095    2              GOTO GOOD_VOL;

PL6.E3A0      #005=VPF$PROCESS_INPUT_OPT File=VPF$SRCLST.:E05TSI                 WED 07/30/97 07:40 Page:357
   8095 12 001237   001260 710000 12                 TRA     GOOD_VOL

     2185     8096    2   BAD_VOL:   CALL VPL$ERR_PROC(3,34,'06'O,,,,,1); /* VOLUME VALUE TOO LARGE     */

   8096 12 001240   000002 236000 13    BAD_VOL      LDQ     2
        12 001241   000001 235000 xsym               LDA     B_VECTNIL+1
        12 001242   200022 757100                    STAQ    J+8,,AUTO
        12 001243   000001 236000 xsym               LDQ     B_VECTNIL+1
        12 001244   000001 235000 xsym               LDA     B_VECTNIL+1
        12 001245   200020 757100                    STAQ    J+6,,AUTO
        12 001246   000001 236000 xsym               LDQ     B_VECTNIL+1
        12 001247   000003 235000 13                 LDA     3
        12 001250   200016 757100                    STAQ    J+4,,AUTO
        12 001251   000070 237000 13                 LDAQ    56
        12 001252   200014 757100                    STAQ    J+2,,AUTO
        12 001253   200014 630500                    EPPR0   J+2,,AUTO
        12 001254   000026 631400 xsym               EPPR1   B_VECTNIL+22
        12 001255   000000 701000 xent               TSX1    VPL$ERR_PROC
        12 001256   000000 011000                    NOP     0

     2186     8097        /*E* ERROR:   VPF-00034
     2187     8098             MESSAGE: VOLUME too large
     2188     8099        */
     2189     8100    2              ALTRETURN;

   8100 12 001257   000000 702200 xent               TSX2  ! X66_AALT

   8094 12 001260   002055 710000 12    GOOD_VOL     TRA     s:8267

     2190     8101    2   GOOD_VOL:  ;
     2191     8102    2            CASE(15);                      /* EBCDIC                             */

     2192     8103    2              ICB.EBCDIC = %YES#;

   8103 12 001261   400000 236003                    LDQ     -131072,DU
        12 001262   000000 756000 xsym               STQ     ICB
        12 001263   002055 710000 12                 TRA     s:8267
PL6.E3A0      #005=VPF$PROCESS_INPUT_OPT File=VPF$SRCLST.:E05TSI                 WED 07/30/97 07:40 Page:358

     2193     8104    2            CASE(16);                      /* BINARY                             */

     2194     8105    2              ICB.BIN = %YES#;

   8105 12 001264   400000 236003                    LDQ     -131072,DU
        12 001265   000001 756000 xsym               STQ     ICB+1
        12 001266   002055 710000 12                 TRA     s:8267

     2195     8106    2            CASE(17);                      /* NBINARY                            */

     2196     8107    2              ICB.BIN = %NO#;

   8107 12 001267   000001 450000 xsym               STZ     ICB+1
        12 001270   002055 710000 12                 TRA     s:8267

     2197     8108    2            CASE(18);                      /* TRANSPARENT                        */

     2198     8109    2              ICB.TRANS = %YES#;

   8109 12 001271   400000 236003                    LDQ     -131072,DU
        12 001272   000004 756000 xsym               STQ     ICB+4
        12 001273   002055 710000 12                 TRA     s:8267

     2199     8110    2            CASE(19);                      /* FTORGANIZATION                     */

     2200     8111    2              I = OPT$ -> OUT$BLK.SUBLK$(0) -> OUT$BLK.CODE; /* PCL's ORG code   */

   8111 12 001274   000000 471500                    LDP1    0,,PR0
        12 001275   100003 473500                    LDP3    3,,PR1
        12 001276   300000 236100                    LDQ     0,,PR3
        12 001277   777777 376007                    ANQ     -1,DL
        12 001300   200011 756100                    STQ     I,,AUTO

     2201     8112    2              ICB.FTORG = ORG_TBL.ORG_MON(I);

   8112 12 001301   000022 402007                    MPY     18,DL
PL6.E3A0      #005=VPF$PROCESS_INPUT_OPT File=VPF$SRCLST.:E05TSI                 WED 07/30/97 07:40 Page:359
        12 001302   000000 100406                    MLR     fill='000'O
        12 001303   000000 000001 xsym               ADSC9   ORG_TBL,Q                cn=0,n=1
        12 001304   000157 200001 xsym               ADSC9   ICB+111                  cn=1,n=1
        12 001305   002055 710000 12                 TRA     s:8267

     2202     8113    2            CASE(20);                      /* BLOCK                              */

     2203     8114    2              CALL VPD$TEXTC_CHARBIN(TWORD,

   8114 12 001306   000000 471500                    LDP1    0,,PR0
        12 001307   100003 473500                    LDP3    3,,PR1
        12 001310   000032 236000 13                 LDQ     26
        12 001311   200016 756100                    STQ     J+4,,AUTO
        12 001312   300003 631500                    EPPR1   3,,PR3
        12 001313   200015 451500                    STP1    J+3,,AUTO
        12 001314   200005 633500                    EPPR3   TWORD,,AUTO
        12 001315   200014 453500                    STP3    J+2,,AUTO
        12 001316   200014 630500                    EPPR0   J+2,,AUTO
        12 001317   000021 631400 xsym               EPPR1   B_VECTNIL+17
        12 001320   000000 701000 xent               TSX1    VPD$TEXTC_CHARBIN
        12 001321   001325 702000 12                 TSX2    BAD_BLKL

     2204     8115    2                OPT$->OUT$BLK.SUBLK$(0)->OUT$BLK.SUBLK$(0),
     2205     8116    2                32767) ALTRET(BAD_BLKL);
     2206     8117    2              ICB.BLKL = TWORD;

   8117 12 001322   200005 235100                    LDA     TWORD,,AUTO
        12 001323   000012 755000 xsym               STA     ICB+10

     2207     8118    2              GOTO GOOD_BLKL;

   8118 12 001324   001345 710000 12                 TRA     GOOD_BLKL

     2208     8119    2   BAD_BLKL:  CALL VPL$ERR_PROC(3,53,'06'O,,,,,1); /* BLKL TOO LARGE             */

   8119 12 001325   000002 236000 13    BAD_BLKL     LDQ     2
        12 001326   000001 235000 xsym               LDA     B_VECTNIL+1
PL6.E3A0      #005=VPF$PROCESS_INPUT_OPT File=VPF$SRCLST.:E05TSI                 WED 07/30/97 07:40 Page:360
        12 001327   200022 757100                    STAQ    J+8,,AUTO
        12 001330   000001 236000 xsym               LDQ     B_VECTNIL+1
        12 001331   000001 235000 xsym               LDA     B_VECTNIL+1
        12 001332   200020 757100                    STAQ    J+6,,AUTO
        12 001333   000001 236000 xsym               LDQ     B_VECTNIL+1
        12 001334   000003 235000 13                 LDA     3
        12 001335   200016 757100                    STAQ    J+4,,AUTO
        12 001336   000072 237000 13                 LDAQ    58
        12 001337   200014 757100                    STAQ    J+2,,AUTO
        12 001340   200014 630500                    EPPR0   J+2,,AUTO
        12 001341   000026 631400 xsym               EPPR1   B_VECTNIL+22
        12 001342   000000 701000 xent               TSX1    VPL$ERR_PROC
        12 001343   000000 011000                    NOP     0

     2209     8120        /*E*   ERROR: VPF-00053
     2210     8121             MESSAGE: BLOCK too large */
     2211     8122    2              ALTRETURN;

   8122 12 001344   000000 702200 xent               TSX2  ! X66_AALT

   8117 12 001345   002055 710000 12    GOOD_BLKL    TRA     s:8267

     2212     8123    2   GOOD_BLKL: ;
     2213     8124    2            CASE(21);                      /* RECL                               */

     2214     8125    2              CALL VPD$TEXTC_CHARBIN(TWORD,

   8125 12 001346   000000 471500                    LDP1    0,,PR0
        12 001347   100003 473500                    LDP3    3,,PR1
        12 001350   000075 236000 13                 LDQ     61
        12 001351   200016 756100                    STQ     J+4,,AUTO
        12 001352   300003 631500                    EPPR1   3,,PR3
        12 001353   200015 451500                    STP1    J+3,,AUTO
        12 001354   200005 633500                    EPPR3   TWORD,,AUTO
        12 001355   200014 453500                    STP3    J+2,,AUTO
        12 001356   200014 630500                    EPPR0   J+2,,AUTO
        12 001357   000021 631400 xsym               EPPR1   B_VECTNIL+17
PL6.E3A0      #005=VPF$PROCESS_INPUT_OPT File=VPF$SRCLST.:E05TSI                 WED 07/30/97 07:40 Page:361
        12 001360   000000 701000 xent               TSX1    VPD$TEXTC_CHARBIN
        12 001361   001365 702000 12                 TSX2    BAD_RECL

     2215     8126    2                OPT$->OUT$BLK.SUBLK$(0)->OUT$BLK.SUBLK$(0),
     2216     8127    2                262143) ALTRET(BAD_RECL);
     2217     8128    2              ICB.RECL = TWORD;

   8128 12 001362   200005 235100                    LDA     TWORD,,AUTO
        12 001363   000013 755000 xsym               STA     ICB+11

     2218     8129    2              GOTO GOOD_RECL;

   8129 12 001364   001405 710000 12                 TRA     GOOD_RECL

     2219     8130    2   BAD_RECL:  CALL VPL$ERR_PROC(3,54,'06'O,,,,,1); /* RECL TOO LARGE             */

   8130 12 001365   000002 236000 13    BAD_RECL     LDQ     2
        12 001366   000001 235000 xsym               LDA     B_VECTNIL+1
        12 001367   200022 757100                    STAQ    J+8,,AUTO
        12 001370   000001 236000 xsym               LDQ     B_VECTNIL+1
        12 001371   000001 235000 xsym               LDA     B_VECTNIL+1
        12 001372   200020 757100                    STAQ    J+6,,AUTO
        12 001373   000001 236000 xsym               LDQ     B_VECTNIL+1
        12 001374   000003 235000 13                 LDA     3
        12 001375   200016 757100                    STAQ    J+4,,AUTO
        12 001376   000100 237000 13                 LDAQ    64
        12 001377   200014 757100                    STAQ    J+2,,AUTO
        12 001400   200014 630500                    EPPR0   J+2,,AUTO
        12 001401   000026 631400 xsym               EPPR1   B_VECTNIL+22
        12 001402   000000 701000 xent               TSX1    VPL$ERR_PROC
        12 001403   000000 011000                    NOP     0

     2220     8131        /*E*   ERROR: VPF-00054
     2221     8132             MESSAGE: RECLENGTH too large */
     2222     8133    2              ALTRETURN;

   8133 12 001404   000000 702200 xent               TSX2  ! X66_AALT
PL6.E3A0      #005=VPF$PROCESS_INPUT_OPT File=VPF$SRCLST.:E05TSI                 WED 07/30/97 07:40 Page:362

   8128 12 001405   002055 710000 12    GOOD_RECL    TRA     s:8267

     2223     8134    2   GOOD_RECL: ;
     2224     8135    2            CASE(22);                      /* NSPANNED                           */

     2225     8136    2              ICB.NSPAN = %YES#;

   8136 12 001406   400000 236003                    LDQ     -131072,DU
        12 001407   000002 756000 xsym               STQ     ICB+2
        12 001410   002055 710000 12                 TRA     s:8267

     2226     8137    2            CASE(23);                      /* NBLOCKED                           */

     2227     8138    2              ICB.NBLOCK = %YES#;

   8138 12 001411   400000 236003                    LDQ     -131072,DU
        12 001412   000003 756000 xsym               STQ     ICB+3
        12 001413   002055 710000 12                 TRA     s:8267

     2228     8139    2            CASE(24);                      /* DATE                               */

     2229     8140    2              ICB.DATE.TYPE = OPT$->OUT$BLK.SUBLK$(0)->OUT$BLK.CODE;

   8140 12 001414   000000 471500                    LDP1    0,,PR0
        12 001415   100003 473500                    LDP3    3,,PR1
        12 001416   300000 236100                    LDQ     0,,PR3
        12 001417   777777 376007                    ANQ     -1,DL
        12 001420   000160 756000 xsym               STQ     ICB+112

     2230     8141    2              ICB.DATE.RELATION = OPT$->OUT$BLK.SUBLK$(1)->OUT$BLK.CODE;

   8141 12 001421   000000 471500                    LDP1    0,,PR0
        12 001422   100004 473500                    LDP3    4,,PR1
        12 001423   300000 236100                    LDQ     0,,PR3
        12 001424   777777 376007                    ANQ     -1,DL
        12 001425   000162 756000 xsym               STQ     ICB+114
PL6.E3A0      #005=VPF$PROCESS_INPUT_OPT File=VPF$SRCLST.:E05TSI                 WED 07/30/97 07:40 Page:363

     2231     8142    2              CALL VPD$PROCESS_DATE(OPT$->OUT$BLK.SUBLK$(2),DATE_TYPE,

   8142 12 001426   000000 471500                    LDP1    0,,PR0
        12 001427   000102 237000 13                 LDAQ    66
        12 001430   200016 757100                    STAQ    J+4,,AUTO
        12 001431   000077 236000 13                 LDQ     63
        12 001432   200015 756100                    STQ     J+3,,AUTO
        12 001433   100005 633500                    EPPR3   5,,PR1
        12 001434   200014 453500                    STP3    J+2,,AUTO
        12 001435   200014 630500                    EPPR0   J+2,,AUTO
        12 001436   000022 631400 xsym               EPPR1   B_VECTNIL+18
        12 001437   000000 701000 xent               TSX1    VPD$PROCESS_DATE
        12 001440   001476 702000 12                 TSX2    BAD_SEL_DATE

     2232     8143    2                ICB.DATE.UTS,ICB.DATE.ROUNDING_TYPE) ALTRET(BAD_SEL_DATE);
     2233     8144    3              DO CASE(DATE_TYPE);

   8144 12 001441   000000 235000 11                 LDA     DATE_TYPE
        12 001442   000007 115007                    CMPA    7,DL
        12 001443   001445 602005 12                 TNC     s:8144+4,AL
        12 001444   001475 710000 12                 TRA     s:8155
        12 001445   001475 710000 12                 TRA     s:8155
        12 001446   001454 710000 12                 TRA     s:8146
        12 001447   001460 710000 12                 TRA     s:8148
        12 001450   001464 710000 12                 TRA     s:8150
        12 001451   001472 710000 12                 TRA     s:8153
        12 001452   001454 710000 12                 TRA     s:8146
        12 001453   001454 710000 12                 TRA     s:8146

     2234     8145    3               CASE(1,5,6);                /* Selection date is specified        */

     2235     8146    3                 CALL M$TIME(FPT_MAKE_TIME); /* Turn UTS into ICB.DATE.TEXT      */

   8146 12 001454   000002 630400 11                 EPPR0   FPT_MAKE_TIME
        12 001455   020004 713400                    CLIMB   8196
        12 001456   402000 401760                    pmme    nvectors=5
PL6.E3A0      #005=VPF$PROCESS_INPUT_OPT File=VPF$SRCLST.:E05TSI                 WED 07/30/97 07:40 Page:364
        12 001457   001475 710000 12                 TRA     s:8155

     2236     8147    3               CASE(2);                    /* Selection date is TODAY            */

     2237     8148    3                 ICB.DATE.TEXT = 'TODAY';  /* Text for DEL confirmation          */

   8148 12 001460   040000 100400                    MLR     fill='040'O
        12 001461   000323 000005 10                 ADSC9   OPT_TBL+211              cn=0,n=5
        12 001462   000164 000012 xsym               ADSC9   ICB+116                  cn=0,n=10
        12 001463   001475 710000 12                 TRA     s:8155

     2238     8149    3               CASE(3);                    /* Selection date is NEVER            */

     2239     8150    3                 ICB.DATE.UTS = BITBIN('777777777777'O);

   8150 12 001464   000027 236000 xsym               LDQ     B_VECTNIL+23
        12 001465   000163 756000 xsym               STQ     ICB+115

     2240     8151    3                 ICB.DATE.TEXT = 'NEVER';  /* Text for DEL confirmation          */

   8151 12 001466   040000 100400                    MLR     fill='040'O
        12 001467   000325 000005 10                 ADSC9   OPT_TBL+213              cn=0,n=5
        12 001470   000164 000012 xsym               ADSC9   ICB+116                  cn=0,n=10
        12 001471   001475 710000 12                 TRA     s:8155

     2241     8152    3               CASE(4);                    /* Selection date is NOW              */

     2242     8153    3                 ICB.DATE.TEXT = 'NOW';    /* Text for DEL confirmation          */

   8153 12 001472   040000 100400                    MLR     fill='040'O
        12 001473   000327 000003 10                 ADSC9   OPT_TBL+215              cn=0,n=3
        12 001474   000164 000012 xsym               ADSC9   ICB+116                  cn=0,n=10

     2243     8154    3               END;                        /* End DO CASE selection date         */

     2244     8155    3              DO WHILE ('0'B);             /* NEVER DO                           */

PL6.E3A0      #005=VPF$PROCESS_INPUT_OPT File=VPF$SRCLST.:E05TSI                 WED 07/30/97 07:40 Page:365
   8155 12 001475   002055 710000 12                 TRA     s:8267

     2245     8156    3   BAD_SEL_DATE: CALL VPL$ERR_PROC(3,58,'06'O,,,,,1);

   8156 12 001476   000002 236000 13    BAD_SEL_DATE LDQ     2
        12 001477   000001 235000 xsym               LDA     B_VECTNIL+1
        12 001500   200022 757100                    STAQ    J+8,,AUTO
        12 001501   000001 236000 xsym               LDQ     B_VECTNIL+1
        12 001502   000001 235000 xsym               LDA     B_VECTNIL+1
        12 001503   200020 757100                    STAQ    J+6,,AUTO
        12 001504   000001 236000 xsym               LDQ     B_VECTNIL+1
        12 001505   000003 235000 13                 LDA     3
        12 001506   200016 757100                    STAQ    J+4,,AUTO
        12 001507   000106 237000 13                 LDAQ    70
        12 001510   200014 757100                    STAQ    J+2,,AUTO
        12 001511   200014 630500                    EPPR0   J+2,,AUTO
        12 001512   000026 631400 xsym               EPPR1   B_VECTNIL+22
        12 001513   000000 701000 xent               TSX1    VPL$ERR_PROC
        12 001514   000000 011000                    NOP     0

     2246     8157        /*E*   ERROR: VPF-00058
     2247     8158             MESSAGE: Bad file selection date
     2248     8159        */
     2249     8160    3                 ALTRETURN;

   8160 12 001515   000000 702200 xent               TSX2  ! X66_AALT

     2250     8161    3                 END;

     2251     8162    2            CASE(25);                      /* SRCHCOND specified                 */

     2252     8163    3              DO I = 0 TO (OPT$ -> OUT$BLK.NSUBLKS -1);

   8163 12 001516   200011 450100                    STZ     I,,AUTO
        12 001517   001573 710000 12                 TRA     s:8182+3

     2253     8164    4                 DO CASE(OPT$ -> OUT$BLK.SUBLK$(I) -> OUT$BLK.CODE);
PL6.E3A0      #005=VPF$PROCESS_INPUT_OPT File=VPF$SRCLST.:E05TSI                 WED 07/30/97 07:40 Page:366

   8164 12 001520   200003 470500                    LDP0    @OPT$,,AUTO
        12 001521   000000 471500                    LDP1    0,,PR0
        12 001522   200011 720100                    LXL0    I,,AUTO
        12 001523   100003 473510                    LDP3    3,X0,PR1
        12 001524   300000 721100                    LXL1    0,,PR3
        12 001525   000011 101003                    CMPX1   9,DU
        12 001526   001530 602011 12                 TNC     s:8164+8,X1
        12 001527   001570 710000 12                 TRA     s:8182
        12 001530   001570 710000 12                 TRA     s:8182
        12 001531   001541 710000 12                 TRA     s:8166
        12 001532   001544 710000 12                 TRA     s:8168
        12 001533   001547 710000 12                 TRA     s:8170
        12 001534   001552 710000 12                 TRA     s:8172
        12 001535   001555 710000 12                 TRA     s:8174
        12 001536   001560 710000 12                 TRA     s:8176
        12 001537   001563 710000 12                 TRA     s:8178
        12 001540   001566 710000 12                 TRA     s:8180

     2254     8165    4                  CASE(1);

     2255     8166    4                    ICB.SRCHCOND.DELF = %YES#;

   8166 12 001541   000400 236003                    LDQ     256,DU
        12 001542   000167 256000 xsym               ORSQ    ICB+119
        12 001543   001570 710000 12                 TRA     s:8182

     2256     8167    4                  CASE(2);

     2257     8168    4                    ICB.SRCHCOND.NOLIST = %YES#;

   8168 12 001544   000200 236003                    LDQ     128,DU
        12 001545   000167 256000 xsym               ORSQ    ICB+119
        12 001546   001570 710000 12                 TRA     s:8182

     2258     8169    4                  CASE(3);

PL6.E3A0      #005=VPF$PROCESS_INPUT_OPT File=VPF$SRCLST.:E05TSI                 WED 07/30/97 07:40 Page:367
     2259     8170    4                    ICB.SRCHCOND.BUF = %YES#;

   8170 12 001547   000100 236003                    LDQ     64,DU
        12 001550   000167 256000 xsym               ORSQ    ICB+119
        12 001551   001570 710000 12                 TRA     s:8182

     2260     8171    4                  CASE(4);

     2261     8172    4                    ICB.SRCHCOND.BAD = %YES#;

   8172 12 001552   000020 236003                    LDQ     16,DU
        12 001553   000167 256000 xsym               ORSQ    ICB+119
        12 001554   001570 710000 12                 TRA     s:8182

     2262     8173    4                  CASE(5);

     2263     8174    4                    ICB.SRCHCOND.ANYF = %YES#;

   8174 12 001555   400000 236007                    LDQ     -131072,DL
        12 001556   000167 256000 xsym               ORSQ    ICB+119
        12 001557   001570 710000 12                 TRA     s:8182

     2264     8175    4                  CASE(6);

     2265     8176    4                    ICB.SRCHCOND.REV = %YES#;

   8176 12 001560   001000 236007                    LDQ     512,DL
        12 001561   000167 256000 xsym               ORSQ    ICB+119
        12 001562   001570 710000 12                 TRA     s:8182

     2266     8177    4                  CASE(7);

     2267     8178    4                    ICB.SRCHCOND.QS = %YES#;

   8178 12 001563   000010 236003                    LDQ     8,DU
        12 001564   000167 256000 xsym               ORSQ    ICB+119
        12 001565   001570 710000 12                 TRA     s:8182
PL6.E3A0      #005=VPF$PROCESS_INPUT_OPT File=VPF$SRCLST.:E05TSI                 WED 07/30/97 07:40 Page:368

     2268     8179    4                  CASE(8);

     2269     8180    4                    ICB.SRCHCOND.ARCHIVE = %YES#;

   8180 12 001566   000001 236003                    LDQ     1,DU
        12 001567   000167 256000 xsym               ORSQ    ICB+119

     2270     8181    4                  END;                     /* END CASE                           */

     2271     8182    3                 END;

   8182 12 001570   200011 235100                    LDA     I,,AUTO
        12 001571   000001 035007                    ADLA    1,DL
        12 001572   200011 755100                    STA     I,,AUTO
        12 001573   000000 471500                    LDP1    0,,PR0
        12 001574   100001 236100                    LDQ     1,,PR1
        12 001575   000022 772000                    QRL     18
        12 001576   200011 116100                    CMPQ    I,,AUTO
        12 001577   001601 600000 12                 TZE     s:8182+9
        12 001600   001520 603000 12                 TRC     s:8164
        12 001601   002055 710000 12                 TRA     s:8267

     2272     8183    2            CASE(26);                      /* FFID                               */

     2273     8184    2              ICB.FFID = '1'B;

   8184 12 001602   400000 236003                    LDQ     -131072,DU
        12 001603   000137 756000 xsym               STQ     ICB+95
        12 001604   002055 710000 12                 TRA     s:8267

     2274     8185    2            CASE(27);                      /* NHEAD option                       */

     2275     8186    2              ICB.HEAD_OPT = 1;

   8186 12 001605   000001 236007                    LDQ     1,DL
        12 001606   000015 756000 xsym               STQ     ICB+13
PL6.E3A0      #005=VPF$PROCESS_INPUT_OPT File=VPF$SRCLST.:E05TSI                 WED 07/30/97 07:40 Page:369
        12 001607   002055 710000 12                 TRA     s:8267

     2276     8187    2            CASE(28);                      /* HEAD option                        */

     2277     8188    2              ICB.HEAD_OPT = 2;

   8188 12 001610   000002 236007                    LDQ     2,DL
        12 001611   000015 756000 xsym               STQ     ICB+13
        12 001612   002055 710000 12                 TRA     s:8267

     2278     8189    2            CASE(29);                      /* CREATOR select option              */

     2279     8190    2              I=0;

   8190 12 001613   200011 450100                    STZ     I,,AUTO

     2280     8191    3              IF OPT$->OUT$BLK.SUBLK$(0)->OUT$BLK.CODE=99 THEN DO;

   8191 12 001614   000000 471500                    LDP1    0,,PR0
        12 001615   100003 473500                    LDP3    3,,PR1
        12 001616   300000 720100                    LXL0    0,,PR3
        12 001617   000143 100003                    CMPX0   99,DU
        12 001620   001625 601000 12                 TNZ     s:8195

     2281     8192    3                  I=1;

   8192 12 001621   000001 236007                    LDQ     1,DL
        12 001622   200011 756100                    STQ     I,,AUTO

     2282     8193    3                  ICB.CREATOR_NEG = '1'B;

   8193 12 001623   400000 236003                    LDQ     -131072,DU
        12 001624   000174 756000 xsym               STQ     ICB+124

     2283     8194    3                  END;

     2284     8195    2              IF OPT$ -> OUT$BLK.SUBLK$(I) -> OUT$SYM.TEXT = 'ME'
PL6.E3A0      #005=VPF$PROCESS_INPUT_OPT File=VPF$SRCLST.:E05TSI                 WED 07/30/97 07:40 Page:370

   8195 12 001625   000000 471500                    LDP1    0,,PR0
        12 001626   200011 720100                    LXL0    I,,AUTO
        12 001627   100003 473510                    LDP3    3,X0,PR1
        12 001630   300004 236100                    LDQ     4,,PR3
        12 001631   000033 772000                    QRL     27
        12 001632   000000 621006                    EAX1    0,QL
        12 001633   040000 106540                    CMPC    fill='040'O
        12 001634   300004 200011                    ADSC9   4,,PR3                   cn=1,n=*X1
        12 001635   000330 000002 10                 ADSC9   OPT_TBL+216              cn=0,n=2
        12 001636   001643 600000 12                 TZE     s:8199
        12 001637   040000 106540                    CMPC    fill='040'O
        12 001640   300004 200011                    ADSC9   4,,PR3                   cn=1,n=*X1
        12 001641   000331 000002 10                 ADSC9   OPT_TBL+217              cn=0,n=2
        12 001642   001653 601000 12                 TNZ     s:8204

     2285     8196    2                OR OPT$ -> OUT$BLK.SUBLK$(I) -> OUT$SYM.TEXT = 'me'
     2286     8197    2               THEN
     2287     8198    3               DO;

     2288     8199    3                  ICB.CREATOR_SEL = 1;

   8199 12 001643   000001 235007                    LDA     1,DL
        12 001644   000173 755000 xsym               STA     ICB+123

     2289     8200    3                  ICB.CREATOR.TEXT = 'you';

   8200 12 001645   040000 100400                    MLR     fill='040'O
        12 001646   000332 000003 10                 ADSC9   OPT_TBL+218              cn=0,n=3
        12 001647   000175 200025 xsym               ADSC9   ICB+125                  cn=1,n=21

     2290     8201    3                  ICB.CREATOR.C = 3;

   8201 12 001650   003000 236003                    LDQ     1536,DU
        12 001651   000175 552040 xsym               STBQ    ICB+125,'40'O

     2291     8202    3                  GOTO CREATOR_DONE;
PL6.E3A0      #005=VPF$PROCESS_INPUT_OPT File=VPF$SRCLST.:E05TSI                 WED 07/30/97 07:40 Page:371

   8202 12 001652   001745 710000 12                 TRA     CREATOR_DONE

     2292     8203    3                  END;
     2293     8204    2              IF NOT B$JIT$ -> B$JIT.PRIV.ACTIVE & %PR_FMSEC#

   8204 12 001653   000000 474400 xsym               LDP4    B$JIT$
        12 001654   400013 236100                    LDQ     11,,PR4
        12 001655   000333 376000 10                 ANQ     OPT_TBL+219
        12 001656   001677 601000 12                 TNZ     s:8213

     2294     8205    2               THEN
     2295     8206    3               DO;

     2296     8207    3                  CALL VPL$ERR_PROC(3,37,'06'O,,,,,1); /* ABORT and return       */

   8207 12 001657   000002 236000 13                 LDQ     2
        12 001660   000001 235000 xsym               LDA     B_VECTNIL+1
        12 001661   200022 757100                    STAQ    J+8,,AUTO
        12 001662   000001 236000 xsym               LDQ     B_VECTNIL+1
        12 001663   000001 235000 xsym               LDA     B_VECTNIL+1
        12 001664   200020 757100                    STAQ    J+6,,AUTO
        12 001665   000001 236000 xsym               LDQ     B_VECTNIL+1
        12 001666   000003 235000 13                 LDA     3
        12 001667   200016 757100                    STAQ    J+4,,AUTO
        12 001670   000110 237000 13                 LDAQ    72
        12 001671   200014 757100                    STAQ    J+2,,AUTO
        12 001672   200014 630500                    EPPR0   J+2,,AUTO
        12 001673   000026 631400 xsym               EPPR1   B_VECTNIL+22
        12 001674   000000 701000 xent               TSX1    VPL$ERR_PROC
        12 001675   000000 011000                    NOP     0

     2297     8208        /*E* ERROR:   VPF-00037
     2298     8209             MESSAGE: Arbitrary CREATOR selection requires FMSEC PRIV turned on
     2299     8210        */
     2300     8211    3                  ALTRETURN;

PL6.E3A0      #005=VPF$PROCESS_INPUT_OPT File=VPF$SRCLST.:E05TSI                 WED 07/30/97 07:40 Page:372
   8211 12 001676   000000 702200 xent               TSX2  ! X66_AALT

     2301     8212    3                  END;
     2302     8213    2              IF OPT$ -> OUT$BLK.SUBLK$(I) -> OUT$SYM.COUNT > 21

   8213 12 001677   300004 236100                    LDQ     4,,PR3
        12 001700   777000 376003                    ANQ     -512,DU
        12 001701   026000 116003                    CMPQ    11264,DU
        12 001702   001711 603000 12                 TRC     BAD_CREATOR

     2303     8214    2               THEN
     2304     8215    2                 GOTO BAD_CREATOR;
     2305     8216    2              CALL INDEX (J,',',OPT$ -> OUT$BLK.SUBLK$(I) -> OUT$SYM.TEXT)

   8216 12 001703   000000 124540                    SCM     mask='000'O
        12 001704   300004 200011                    ADSC9   4,,PR3                   cn=1,n=*X1
        12 001705   000112 000001 13                 ADSC9   74                       cn=0,n=1
        12 001706   200012 000100                    ARG     J,,AUTO
        12 001707   001711 606400 12                 TTN     BAD_CREATOR
        12 001710   001731 710000 12                 TRA     s:8225

     2306     8217    3               WHENALTRETURN DO;

   8216 12 001711                       BAD_CREATOR  null
     2307     8218    3   BAD_CREATOR:   ;
     2308     8219    3                  CALL VPL$ERR_PROC(3,35,'06'O,,,,,1); /* ABORT and return       */

   8219 12 001711   000002 236000 13                 LDQ     2
        12 001712   000001 235000 xsym               LDA     B_VECTNIL+1
        12 001713   200022 757100                    STAQ    J+8,,AUTO
        12 001714   000001 236000 xsym               LDQ     B_VECTNIL+1
        12 001715   000001 235000 xsym               LDA     B_VECTNIL+1
        12 001716   200020 757100                    STAQ    J+6,,AUTO
        12 001717   000001 236000 xsym               LDQ     B_VECTNIL+1
        12 001720   000003 235000 13                 LDA     3
        12 001721   200016 757100                    STAQ    J+4,,AUTO
        12 001722   000114 237000 13                 LDAQ    76
PL6.E3A0      #005=VPF$PROCESS_INPUT_OPT File=VPF$SRCLST.:E05TSI                 WED 07/30/97 07:40 Page:373
        12 001723   200014 757100                    STAQ    J+2,,AUTO
        12 001724   200014 630500                    EPPR0   J+2,,AUTO
        12 001725   000026 631400 xsym               EPPR1   B_VECTNIL+22
        12 001726   000000 701000 xent               TSX1    VPL$ERR_PROC
        12 001727   000000 011000                    NOP     0

     2309     8220        /*E* ERROR:   VPF-00035
     2310     8221             MESSAGE: Bad CREATOR
     2311     8222        */
     2312     8223    3                  ALTRETURN;

   8223 12 001730   000000 702200 xent               TSX2  ! X66_AALT

     2313     8224    3                  END;
     2314     8225    2              ICB.CREATOR.C = OPT$ -> OUT$BLK.SUBLK$(I) -> OUT$SYM.COUNT;

   8225 12 001731   300004 236100                    LDQ     4,,PR3
        12 001732   000175 552040 xsym               STBQ    ICB+125,'40'O

     2315     8226    2              ICB.CREATOR.TEXT = OPT$ -> OUT$BLK.SUBLK$(I) -> OUT$SYM.TEXT;

   8226 12 001733   000000 471500                    LDP1    0,,PR0
        12 001734   100003 473510                    LDP3    3,X0,PR1
        12 001735   300004 236100                    LDQ     4,,PR3
        12 001736   000033 772000                    QRL     27
        12 001737   000000 621006                    EAX1    0,QL
        12 001740   040000 100540                    MLR     fill='040'O
        12 001741   300004 200011                    ADSC9   4,,PR3                   cn=1,n=*X1
        12 001742   000175 200025 xsym               ADSC9   ICB+125                  cn=1,n=21

     2316     8227    2              ICB.CREATOR_SEL = 2;

   8227 12 001743   000002 236007                    LDQ     2,DL
        12 001744   000173 756000 xsym               STQ     ICB+123

   8227 12 001745   002055 710000 12    CREATOR_DONE TRA     s:8267

PL6.E3A0      #005=VPF$PROCESS_INPUT_OPT File=VPF$SRCLST.:E05TSI                 WED 07/30/97 07:40 Page:374
     2317     8228    2   CREATOR_DONE: ;
     2318     8229    2            CASE(30);                      /* Input files in SORTED order        */

     2319     8230    2              ICB.SORTING_ORDER.COUNT = OPT$ -> OUT$BLK.NSUBLKS;

   8230 12 001746   000000 471500                    LDP1    0,,PR0
        12 001747   100001 236100                    LDQ     1,,PR1
        12 001750   000022 772000                    QRL     18
        12 001751   000204 756000 xsym               STQ     ICB+132

     2320     8231    3              DO I=0 TO (OPT$ -> OUT$BLK.NSUBLKS -1);

   8231 12 001752   200011 450100                    STZ     I,,AUTO
        12 001753   002012 710000 12                 TRA     s:8241+3

     2321     8232    3                 T$ = OPT$ -> OUT$BLK.SUBLK$(I);

   8232 12 001754   200003 470500                    LDP0    @OPT$,,AUTO
        12 001755   000000 471500                    LDP1    0,,PR0
        12 001756   200011 720100                    LXL0    I,,AUTO
        12 001757   100003 236110                    LDQ     3,X0,PR1
        12 001760   200006 756100                    STQ     T$,,AUTO

     2322     8233    3                 J = T$ -> OUT$BLK.NSUBLKS;

   8233 12 001761   200006 473500                    LDP3    T$,,AUTO
        12 001762   300001 236100                    LDQ     1,,PR3
        12 001763   000022 772000                    QRL     18
        12 001764   200012 756100                    STQ     J,,AUTO

     2323     8234    3                 ICB.SORTING_ORDER.FIELD.TYPE(I) =

   8234 12 001765   200011 235100                    LDA     I,,AUTO
        12 001766   000001 735000                    ALS     1
        12 001767   300002 474506                    LDP4    2,QL,PR3
        12 001770   400000 236100                    LDQ     0,,PR4
        12 001771   777777 376007                    ANQ     -1,DL
PL6.E3A0      #005=VPF$PROCESS_INPUT_OPT File=VPF$SRCLST.:E05TSI                 WED 07/30/97 07:40 Page:375
        12 001772   000206 756005 xsym               STQ     ICB+134,AL

     2324     8235    3                   T$ -> OUT$BLK.SUBLK$(J-1) -> OUT$BLK.CODE;
     2325     8236    3                 IF J=2

   8236 12 001773   200012 235100                    LDA     J,,AUTO
        12 001774   000002 115007                    CMPA    2,DL
        12 001775   002007 601000 12                 TNZ     s:8241

     2326     8237    3                  THEN                     /* ASC/DESC order specified           */
     2327     8238    3                    IF T$ -> OUT$BLK.SUBLK$(0) -> OUT$BLK.CODE = 1

   8238 12 001776   300003 471500                    LDP1    3,,PR3
        12 001777   100000 721100                    LXL1    0,,PR1
        12 002000   000001 101003                    CMPX1   1,DU
        12 002001   002007 601000 12                 TNZ     s:8241

     2328     8239    3                     THEN
     2329     8240    3                       ICB.SORTING_ORDER.FIELD.DESCENDING(I) = '1'B;

   8240 12 002002   200011 236100                    LDQ     I,,AUTO
        12 002003   000001 736000                    QLS     1
        12 002004   000000 622006                    EAX2    0,QL
        12 002005   400000 236003                    LDQ     -131072,DU
        12 002006   000205 756012 xsym               STQ     ICB+133,X2

     2330     8241    3                 END;                      /* END CASE                           */

   8241 12 002007   200011 236100                    LDQ     I,,AUTO
        12 002010   000001 036007                    ADLQ    1,DL
        12 002011   200011 756100                    STQ     I,,AUTO
        12 002012   000000 471500                    LDP1    0,,PR0
        12 002013   100001 236100                    LDQ     1,,PR1
        12 002014   000022 772000                    QRL     18
        12 002015   200011 116100                    CMPQ    I,,AUTO
        12 002016   002020 600000 12                 TZE     s:8241+9
        12 002017   001754 603000 12                 TRC     s:8232
PL6.E3A0      #005=VPF$PROCESS_INPUT_OPT File=VPF$SRCLST.:E05TSI                 WED 07/30/97 07:40 Page:376
        12 002020   002055 710000 12                 TRA     s:8267

     2331     8242    2            CASE(31);                      /* CLOSE POSITION option              */

     2332     8243    2              ICB.CLPOS = OPT$ -> OUT$BLK.SUBLK$(0) -> OUT$BLK.CODE;

   8243 12 002021   000000 471500                    LDP1    0,,PR0
        12 002022   100003 473500                    LDP3    3,,PR1
        12 002023   300000 236100                    LDQ     0,,PR3
        12 002024   777777 376007                    ANQ     -1,DL
        12 002025   000233 756000 xsym               STQ     ICB+155
        12 002026   002055 710000 12                 TRA     s:8267

     2333     8244    2            CASE(32);                      /* FATTRIBUTES                        */

     2334     8245    2              ICB.A_EA_C = 5;

   8245 12 002027   000005 236007                    LDQ     5,DL
        12 002030   000014 756000 xsym               STQ     ICB+12
        12 002031   002055 710000 12                 TRA     s:8267

     2335     8246    2            CASE(33);                      /* IOERROK                            */

     2336     8247    2              ICB.FLAVOR.IOERROK = %YES#;

   8247 12 002032   000400 236003                    LDQ     256,DU
        12 002033   000172 256000 xsym               ORSQ    ICB+122
        12 002034   002055 710000 12                 TRA     s:8267

     2337     8248    2            CASE(34);                      /* NIOERROK                           */

     2338     8249    2              ICB.FLAVOR.IOERROK = %NO#;

   8249 12 002035   000116 236000 13                 LDQ     78
        12 002036   000172 356000 xsym               ANSQ    ICB+122
        12 002037   002055 710000 12                 TRA     s:8267

PL6.E3A0      #005=VPF$PROCESS_INPUT_OPT File=VPF$SRCLST.:E05TSI                 WED 07/30/97 07:40 Page:377
     2339     8250    2            CASE(35);                      /* IGNOREFSN                          */

     2340     8251    2              ICB.IGNOREFSN = %YES#;

   8251 12 002040   400000 236003                    LDQ     -131072,DU
        12 002041   000236 756000 xsym               STQ     ICB+158
        12 002042   002055 710000 12                 TRA     s:8267

     2341     8252    2            CASE(36);                      /* NIGNOREFSN                         */

     2342     8253    2              ICB.IGNOREFSN = %NO#;

   8253 12 002043   000236 450000 xsym               STZ     ICB+158
        12 002044   002055 710000 12                 TRA     s:8267

     2343     8254    2            CASE(37);                      /* ANSISPAN                           */

     2344     8255    2              ICB.ANSISPAN = %YES#;

   8255 12 002045   400000 236003                    LDQ     -131072,DU
        12 002046   000237 256000 xsym               ORSQ    ICB+159

     2345     8256    2              ANSISPAN_OPT = %YES#;

   8256 12 002047   000000 756000 xsym               STQ     ANSISPAN_OPT
        12 002050   002055 710000 12                 TRA     s:8267

     2346     8257    2            CASE(38);                      /* NANSISPAN                          */

     2347     8258    2              ICB.ANSISPAN = %YES#;

   8258 12 002051   400000 236003                    LDQ     -131072,DU
        12 002052   000237 256000 xsym               ORSQ    ICB+159

     2348     8259    2              ANSISPAN_OPT = %NO#;

   8259 12 002053   000000 450000 xsym               STZ     ANSISPAN_OPT
PL6.E3A0      #005=VPF$PROCESS_INPUT_OPT File=VPF$SRCLST.:E05TSI                 WED 07/30/97 07:40 Page:378
        12 002054   002055 710000 12                 TRA     s:8267

     2349     8260    2            CASE(%(MAX_IN_OP#+1));         /* SPARE1 for PATCHING only           */

     2350     8261    2              ;
     2351     8262    2            CASE(%(MAX_IN_OP#+2));         /* SPARE2                             */

     2352     8263    2              ;
     2353     8264    2            CASE(%(MAX_IN_OP#+3));         /* SPARE3                             */

     2354     8265    2              ;
     2355     8266    2            END;                           /* END CASE                           */

     2356     8267    1           RETURN;

   8267 12 002055   000000 702200 xent               TSX2  ! X66_ARET
     2357     8268    1   END VPF$PROCESS_INPUT_OPT;
     2358     8269        %EOD;

PL6.E3A0      #005=VPF$PROCESS_INPUT_OPT File=VPF$SRCLST.:E05TSI                 WED 07/30/97 07:40 Page:379
--  Include file information  --

   B_MICROPS_C.:E05TOU  is referenced.
   XU_MACRO_C.:E05TOU  is referenced.
   VP_MACRO_C.:E05TOU  is referenced.
   XS_MACRO_C.:E05TOU  is referenced.
   VP_PERR_C.:E05TOU  is referenced.
   CP_6_SUBS.:E05TOU  is referenced.
   CP_6.:E05TOU  cannot be made into a system file and is referenced.
   VP_DATA_R.:E05TOU  cannot be made into a system file and is referenced.
   B$JIT.:E05TOU  cannot be made into a system file and is referenced.
   B$JIT_C.:E05TOU  was found in the system file and is referenced.
   CP_6_C.:E05TOU  was found in the system file and is referenced.
      No diagnostics issued in procedure VPF$PROCESS_INPUT_OPT.
PL6.E3A0      #005=VPF$PROCESS_INPUT_OPT File=VPF$SRCLST.:E05TSI                 WED 07/30/97 07:40 Page:380

 **** Variables and constants ****

  ****  Section 010 RoData VPF$PROCESS_INPUT_OPT

  ****  Scalars and arrays  ****
OctLoc.c.b A Datatyp(siz) R M Lvl/name                 OctLoc.c.b A Datatyp(siz) R M Lvl/name

     0-0-0/w STRC(180)   r     1 OPT_TBL(0:41)

  ****  Section 011  Data  VPF$PROCESS_INPUT_OPT

  ****  Scalars and arrays  ****
OctLoc.c.b A Datatyp(siz) R M Lvl/name                 OctLoc.c.b A Datatyp(siz) R M Lvl/name

     0-0-0/w UBIN        r     1 DATE_TYPE                  2-0-0/d STRC(432)   r     1 FPT_MAKE_TIME

  ****  Auto variables  ****

  ****  Scalars and arrays  ****
OctLoc.c.b A Datatyp(siz) R M Lvl/name                 OctLoc.c.b A Datatyp(siz) R M Lvl/name

     3-0-0/w PTR         r     1 @OPT$                     10-0-0/w PTR         r     1 FROM_KEY$
    11-0-0/w UBIN        r     1 I                         12-0-0/w SBIN        r     1 J
    *0-0-0/w PTR         r     1 OPT$                       4-0-0/w SBIN        r     1 OPT_CODE
     6-0-0/w PTR         r     1 T$                         7-0-0/w PTR         r     1 TO_KEY$
     5-0-0/w UBIN        r     1 TWORD

  ****  SYMREF variables  ****

  ****  Scalars and arrays  ****
OctLoc.c.b A Datatyp(siz) R M Lvl/name                 OctLoc.c.b A Datatyp(siz) R M Lvl/name

     0-0-0/b BIT (2)     r     1 ANSISPAN_OPT               0-0-0/w PTR         r     1 B$JIT$
     0-0-0/w EPTR        r     1 BREAK_MESSAGE_REPORTER
     0-0-0/b BIT         r     1 CMD_MASK(0:71)
     0-0-0/b BIT         r     1 CON_DUP_TBL(0:35)
     0-0-0/d STRC(5868)  r     1 ICB                        0-0-0/c CHAR(4)     r     1 IN_RES
PL6.E3A0      #005=VPF$PROCESS_INPUT_OPT File=VPF$SRCLST.:E05TSI                 WED 07/30/97 07:40 Page:381
     0-0-0/w PTR         r     1 KEY_AREA$                  0-0-0/c STRC(162)   r     1 ORG_TBL(0:8191)
     0-0-0/w SBIN        r     1 REC_SEL_CNT                0-0-0/d STRC(324)   r     1 RESULTS_FID_IN

  ****  BASED and DCB variables  ****

  ****  Scalars and arrays  ****
OctLoc.c.b A Datatyp(siz) R M Lvl/name                 OctLoc.c.b A Datatyp(siz) R M Lvl/name

     0-0-0/d STRC(8856)  r     1 B$JIT                      0-0-0/w STRC(144)   r     1 OUT$BLK
     0-0-0/w ASTR(153)   r     1 OUT$SYM                    0-0-0/c ASTR(9)     r     1 TEXT$C


   Procedure VPF$PROCESS_INPUT_OPT requires 1070 words for executable code.
   Procedure VPF$PROCESS_INPUT_OPT requires 20 words of local(AUTO) storage.
PL6.E3A0      #005=VPF$PROCESS_INPUT_OPT File=VPF$SRCLST.:E05TSI                 WED 07/30/97 07:40 Page:382
          *** CROSS REFERENCE LISTING ***
**     DENOTES     IDENTIFIER DEFINITION
<<                 IDENTIFIER'S VALUE SET
>>                 IDENTIFIER'S VALUE USED
<>                 IDENTIFIER SET AND/OR USED
--                 IDENTIFIER REFERENCED
PL6.E3A0      #005=VPF$PROCESS_INPUT_OPT File=VPF$SRCLST.:E05TSI                 WED 07/30/97 07:40 Page:383
          MINI XREF LISTING

ANSISPAN_OPT
      5875**DCL      8256<<ASSIGN   8259<<ASSIGN
B$JIT.CPFLAGS1.SLEAZE
       137**DCL       137--REDEF
B$JIT.ERR.MID
        44**DCL        44--REDEF
B$JIT.JRESPEAK
       205**DCL       206--REDEF
B$JIT.ORIGINATOR_PORT.FROM_CR
       314**DCL       314--REDEF     315--REDEF
B$JIT.PNR
       218**DCL       218--REDEF
B$JIT.PRIV.ACTIVE
        44**DCL      8204>>IF
B$JIT.TSLINE
       312**DCL       313--REDEF
B$JIT$
      6291**DCL        38--IMP-PTR  8204>>IF
BAD_BLKL
      8119**LABEL    8114--CALLALT
BAD_CAT
      7884**LABEL    7879--CALLALT
BAD_COLS
      7905**LABEL    7900--CALLALT
BAD_CREATOR
      8216**LABEL    8215--GOTO
BAD_CRPT
      7893**LABEL    7891--CALLALT
BAD_FSN
      7955**LABEL    7931--CALLALT  7938--CALLALT
BAD_KEY1
      8013**LABEL    8003--CALLALT
PL6.E3A0      #005=VPF$PROCESS_INPUT_OPT File=VPF$SRCLST.:E05TSI                 WED 07/30/97 07:40 Page:384
BAD_KEY2
      8033**LABEL    8027--CALLALT
BAD_RECL
      8130**LABEL    8125--CALLALT
BAD_SEL_DATE
      8156**LABEL    8142--CALLALT
BAD_VOL
      8096**LABEL    8091--CALLALT
BREAK_LOC
      5526**DCL      5526--REDEF
CMD_MASK
      5528**DCL      7859>>IF
CON_DUP_TBL
      5524**DCL      7849>>IF       7872<<ASSIGN
CREATOR_DONE
      8227**LABEL    8202--GOTO
DATE_TYPE
      7611**DCL      8142<>CALL     8144>>DOCASE
DEF_ICB.FID.STRING
      6124**DCL      6125--REDEF
DEV_ICB.FID.STRING
      6010**DCL      6011--REDEF
EI_KEY.KEY
      6222**DCL      6222--REDEF    6222--REDEF    6222--REDEF
EO_OCB.TYPE
      5722**DCL      5723--REDEF
FPT_CLOSE_EI.SN_
      7063**DCL      7063--REDEF
FPT_CLOSE_EI.UTL_
      7064**DCL      7064--REDEF
FPT_CLOSE_EI.V.EXPIRE#
      7078**DCL      7078--REDEF
FPT_CLOSE_EI.V.TYPE#
      7076**DCL      7076--REDEF
FPT_CLOSE_EI.V.XTNSIZE#
      7073**DCL      7073--REDEF    7075--REDEF
PL6.E3A0      #005=VPF$PROCESS_INPUT_OPT File=VPF$SRCLST.:E05TSI                 WED 07/30/97 07:40 Page:385
FPT_CLOSE_PTL.SN_
      7189**DCL      7189--REDEF
FPT_CLOSE_PTL.UTL_
      7190**DCL      7190--REDEF
FPT_CLOSE_PTL.V.EXPIRE#
      7204**DCL      7204--REDEF
FPT_CLOSE_PTL.V.TYPE#
      7202**DCL      7202--REDEF
FPT_CLOSE_PTL.V.XTNSIZE#
      7199**DCL      7199--REDEF    7201--REDEF
FPT_CLOSE_READ.SN_
      7105**DCL      7105--REDEF
FPT_CLOSE_READ.UTL_
      7106**DCL      7106--REDEF
FPT_CLOSE_READ.V.EXPIRE#
      7120**DCL      7120--REDEF
FPT_CLOSE_READ.V.TYPE#
      7118**DCL      7118--REDEF
FPT_CLOSE_READ.V.XTNSIZE#
      7115**DCL      7115--REDEF    7117--REDEF
FPT_CLOSE_SI.SN_
      7273**DCL      7273--REDEF
FPT_CLOSE_SI.UTL_
      7274**DCL      7274--REDEF
FPT_CLOSE_SI.V.EXPIRE#
      7288**DCL      7288--REDEF
FPT_CLOSE_SI.V.TYPE#
      7286**DCL      7286--REDEF
FPT_CLOSE_SI.V.XTNSIZE#
      7283**DCL      7283--REDEF    7285--REDEF
FPT_CLOSE_STD.SN_
      7231**DCL      7231--REDEF
FPT_CLOSE_STD.UTL_
      7232**DCL      7232--REDEF
FPT_CLOSE_STD.V.EXPIRE#
      7246**DCL      7246--REDEF
PL6.E3A0      #005=VPF$PROCESS_INPUT_OPT File=VPF$SRCLST.:E05TSI                 WED 07/30/97 07:40 Page:386
FPT_CLOSE_STD.V.TYPE#
      7244**DCL      7244--REDEF
FPT_CLOSE_STD.V.XTNSIZE#
      7241**DCL      7241--REDEF    7243--REDEF
FPT_CLSEI_FT.SN_
      7147**DCL      7147--REDEF
FPT_CLSEI_FT.UTL_
      7148**DCL      7148--REDEF
FPT_CLSEI_FT.V.EXPIRE#
      7162**DCL      7162--REDEF
FPT_CLSEI_FT.V.TYPE#
      7160**DCL      7160--REDEF
FPT_CLSEI_FT.V.XTNSIZE#
      7157**DCL      7157--REDEF    7159--REDEF
FPT_MAKE_TIME
      7628**DCL      8146<>CALL
FPT_MAKE_TIME.V
      7632**DCL      7628--DCLINIT
FPT_OPEN_EI.ACSVEH_
      6718**DCL      6719--REDEF
FPT_OPEN_EI.ALTKEYS_
      6724**DCL      6725--REDEF    6725--REDEF
FPT_OPEN_EI.HDR_
      6723**DCL      6724--REDEF
FPT_OPEN_EI.TAB_
      6722**DCL      6723--REDEF
FPT_OPEN_EI.UHL_
      6716**DCL      6717--REDEF    6717--REDEF
FPT_OPEN_EI.V.FSN#
      6756**DCL      6756--REDEF    6756--REDEF
FPT_OPEN_EI.WSN_
      6722**DCL      6722--REDEF
FPT_OPEN_EI_SAVE.ACSVEH_
      6827**DCL      6828--REDEF
FPT_OPEN_EI_SAVE.ALTKEYS_
      6833**DCL      6834--REDEF    6834--REDEF
PL6.E3A0      #005=VPF$PROCESS_INPUT_OPT File=VPF$SRCLST.:E05TSI                 WED 07/30/97 07:40 Page:387
FPT_OPEN_EI_SAVE.HDR_
      6832**DCL      6833--REDEF
FPT_OPEN_EI_SAVE.TAB_
      6831**DCL      6832--REDEF
FPT_OPEN_EI_SAVE.UHL_
      6825**DCL      6826--REDEF    6826--REDEF
FPT_OPEN_EI_SAVE.V.FSN#
      6865**DCL      6865--REDEF    6865--REDEF
FPT_OPEN_EI_SAVE.WSN_
      6831**DCL      6831--REDEF
FPT_OPEN_OUT.ACSVEH_
      6609**DCL      6610--REDEF
FPT_OPEN_OUT.ALTKEYS_
      6615**DCL      6616--REDEF    6616--REDEF
FPT_OPEN_OUT.HDR_
      6614**DCL      6615--REDEF
FPT_OPEN_OUT.TAB_
      6613**DCL      6614--REDEF
FPT_OPEN_OUT.UHL_
      6607**DCL      6608--REDEF    6608--REDEF
FPT_OPEN_OUT.V.FSN#
      6647**DCL      6647--REDEF    6647--REDEF
FPT_OPEN_OUT.WSN_
      6613**DCL      6613--REDEF
FPT_OPEN_OUT_SAVE.ACSVEH_
      6500**DCL      6501--REDEF
FPT_OPEN_OUT_SAVE.ALTKEYS_
      6506**DCL      6507--REDEF    6507--REDEF
FPT_OPEN_OUT_SAVE.HDR_
      6505**DCL      6506--REDEF
FPT_OPEN_OUT_SAVE.TAB_
      6504**DCL      6505--REDEF
FPT_OPEN_OUT_SAVE.UHL_
      6498**DCL      6499--REDEF    6499--REDEF
FPT_OPEN_OUT_SAVE.V.FSN#
      6538**DCL      6538--REDEF    6538--REDEF
PL6.E3A0      #005=VPF$PROCESS_INPUT_OPT File=VPF$SRCLST.:E05TSI                 WED 07/30/97 07:40 Page:388
FPT_OPEN_OUT_SAVE.WSN_
      6504**DCL      6504--REDEF
FPT_READ_STD.STATION_
      6928**DCL      6929--REDEF
FPT_READ_STD.V.DVBYTE.REREAD#
      6940**DCL      6940--REDEF
FPT_READ_STD.V.INDX#
      6938**DCL      6938--REDEF
FPT_READ_UC.STATION_
      6889**DCL      6890--REDEF
FPT_READ_UC.V.DVBYTE.REREAD#
      6901**DCL      6901--REDEF
FPT_READ_UC.V.INDX#
      6899**DCL      6899--REDEF
FPT_WRITE_ME.STATION_
      6997**DCL      6997--REDEF
FPT_WRITE_ME.V.DVBYTE.VFC#
      7004**DCL      7004--REDEF
FPT_WRITE_OUT.STATION_
      7028**DCL      7028--REDEF
FPT_WRITE_OUT.V.DVBYTE.VFC#
      7035**DCL      7035--REDEF
FPT_WRITE_UC.STATION_
      6966**DCL      6966--REDEF
FPT_WRITE_UC.V.DVBYTE.VFC#
      6973**DCL      6973--REDEF
FROM_KEY$
        26**DCL      8002<<ASSIGN   8003<>CALL     8022<<ASSIGN   8027<>CALL
FROM_SN.SN
      5872**DCL      5873--REDEF
GETCMD.OUT$
      5079**DCL      5085--REDEF
GOOD_BLKL
      8117**LABEL    8118--GOTO
GOOD_CAT
      7882**LABEL    7883--GOTO
PL6.E3A0      #005=VPF$PROCESS_INPUT_OPT File=VPF$SRCLST.:E05TSI                 WED 07/30/97 07:40 Page:389
GOOD_COLS
      7910**LABEL    7904--GOTO
GOOD_FSN
      7955**LABEL    7954--GOTO
GOOD_RECL
      8128**LABEL    8129--GOTO
GOOD_VOL
      8094**LABEL    8095--GOTO
I
        27**DCL      7964<<ASSIGN   7965>>IF       7968>>ASSIGN   8035<<ASSIGN   8039<<ASSIGN   8040>>IF
      8071<<ASSIGN   8074<<ASSIGN   8076>>DOWHILE  8077>>ASSIGN   8087<<ASSIGN   8087>>ASSIGN   8111<<ASSIGN
      8112>>ASSIGN   8163<<DOINDEX  8164>>DOCASE   8190<<ASSIGN   8192<<ASSIGN   8195>>IF       8195>>IF
      8195>>IF       8195>>IF       8213>>IF       8216>>CALLBLT  8216>>CALLBLT  8225>>ASSIGN   8226>>ASSIGN
      8226>>ASSIGN   8231<<DOINDEX  8232>>ASSIGN   8234>>ASSIGN   8240>>ASSIGN
ICB.ANSISPAN
      5983**DCL      8255<<ASSIGN   8258<<ASSIGN
ICB.A_EA_C
      5890**DCL      7877<<ASSIGN   7903<<ASSIGN   7916<<ASSIGN   8245<<ASSIGN
ICB.BIN
      5879**DCL      8105<<ASSIGN   8107<<ASSIGN
ICB.BLKL
      5888**DCL      8117<<ASSIGN
ICB.CAT
      5932**DCL      7882<<ASSIGN
ICB.CLPOS
      5979**DCL      8243<<ASSIGN
ICB.COLS
      5892**DCL      7900<>CALL     7910>>IF       7912<<ASSIGN
ICB.CREATOR.C
      5969**DCL      8201<<ASSIGN   8225<<ASSIGN
ICB.CREATOR.TEXT
      5970**DCL      8200<<ASSIGN   8226<<ASSIGN
ICB.CREATOR_NEG
      5967**DCL      8193<<ASSIGN
ICB.CREATOR_SEL
      5966**DCL      8199<<ASSIGN   8227<<ASSIGN
PL6.E3A0      #005=VPF$PROCESS_INPUT_OPT File=VPF$SRCLST.:E05TSI                 WED 07/30/97 07:40 Page:390
ICB.CRPT
      5885**DCL      7891<>CALL
ICB.DATE.RELATION
      5929**DCL      8141<<ASSIGN
ICB.DATE.ROUNDING_TYPE
      5928**DCL      8142<>CALL
ICB.DATE.TEXT
      5931**DCL      7628--DCLINIT  7629--DCLINIT  8148<<ASSIGN   8151<<ASSIGN   8153<<ASSIGN
ICB.DATE.TYPE
      5927**DCL      8140<<ASSIGN
ICB.DATE.UTS
      5930**DCL      7632--DCLINIT  8142<>CALL     8150<<ASSIGN
ICB.DEOD
      5886**DCL      7914<<ASSIGN
ICB.DEV_MASK
      5946**DCL      7865>>IF
ICB.EBCDIC
      5878**DCL      8103<<ASSIGN
ICB.FFID
      5918**DCL      8184<<ASSIGN
ICB.FID.STRING
      5896**DCL      5897--REDEF
ICB.FLAVOR.IOERROK
      5956**DCL      8247<<ASSIGN   8249<<ASSIGN
ICB.FSN.FINISH
      5900**DCL      7941<<ASSIGN   7942>>IF
ICB.FSN.START
      5899**DCL      7934<<ASSIGN   7942>>IF
ICB.FTORG
      5925**DCL      8112<<ASSIGN
ICB.HEAD_OPT
      5891**DCL      8186<<ASSIGN   8188<<ASSIGN
ICB.IGNOREFSN
      5982**DCL      8251<<ASSIGN   8253<<ASSIGN
ICB.KEY_SEL
      5901**DCL      7999<<ASSIGN
PL6.E3A0      #005=VPF$PROCESS_INPUT_OPT File=VPF$SRCLST.:E05TSI                 WED 07/30/97 07:40 Page:391
ICB.LREC_SEL
      5902**DCL      7995<<ASSIGN
ICB.NBLOCK
      5881**DCL      8138<<ASSIGN
ICB.NCNVRT
      5883**DCL      7918<<ASSIGN
ICB.NSPAN
      5880**DCL      8136<<ASSIGN
ICB.ORG
      5916**DCL      7962<<ASSIGN   7968<<ASSIGN
ICB.ORG_NEG
      5917**DCL      7966<<ASSIGN
ICB.PHYSICAL
      5887**DCL      7971<<ASSIGN
ICB.RECL
      5889**DCL      8128<<ASSIGN
ICB.REC_SEL.SPEC.FINISH
      5910**DCL      8052<<ASSIGN
ICB.REC_SEL.SPEC.FINISH.KEY$
      5911**DCL      7992<<ASSIGN   8006<<ASSIGN   8029<<ASSIGN   8037>>IF       8037>>IF
ICB.REC_SEL.SPEC.FINISH.SEQ
      5912**DCL      8024--ASSIGN   8040>>IF
ICB.REC_SEL.SPEC.START
      5907**DCL      8052>>ASSIGN
ICB.REC_SEL.SPEC.START.KEY$
      5908**DCL      7991<<ASSIGN   8005<<ASSIGN   8009<<ASSIGN   8036>>IF       8037>>IF       8037>>IF
ICB.REC_SEL.SPEC.START.SEQ
      5909**DCL      7996--ASSIGN   8040>>IF
ICB.REC_SEL.SPEC.TYPE
      5906**DCL      7990<<ASSIGN   8004>>IF       8023>>IF       8028>>IF
ICB.SHARE
      5884**DCL      7875<<ASSIGN
ICB.SORTING_ORDER.COUNT
      5975**DCL      8230<<ASSIGN
ICB.SORTING_ORDER.FIELD.DESCENDING
      5977**DCL      8240<<ASSIGN
PL6.E3A0      #005=VPF$PROCESS_INPUT_OPT File=VPF$SRCLST.:E05TSI                 WED 07/30/97 07:40 Page:392
ICB.SORTING_ORDER.FIELD.TYPE
      5978**DCL      8234<<ASSIGN
ICB.SRCHCOND.ANYF
      5942**DCL      8174<<ASSIGN
ICB.SRCHCOND.ARCHIVE
      5941**DCL      8180<<ASSIGN
ICB.SRCHCOND.BAD
      5938**DCL      8172<<ASSIGN
ICB.SRCHCOND.BUF
      5936**DCL      8170<<ASSIGN
ICB.SRCHCOND.DELF
      5934**DCL      8166<<ASSIGN
ICB.SRCHCOND.NOLIST
      5935**DCL      8168<<ASSIGN
ICB.SRCHCOND.QS
      5939**DCL      8178<<ASSIGN
ICB.SRCHCOND.REV
      5944**DCL      8176<<ASSIGN
ICB.TRANS
      5882**DCL      8109<<ASSIGN
ICB.TYPE.COUNT
      5921**DCL      8070<<ASSIGN   8085>>ASSIGN   8086<<ASSIGN   8086>>ASSIGN
ICB.TYPE.NEG
      5922**DCL      8073<<ASSIGN
ICB.TYPE.STRING
      5923**DCL      8085<<ASSIGN
ICB.VOL
      5924**DCL      8094<<ASSIGN
IFSFA_PARAM.EOMCHAR#
      6251**DCL      6252--REDEF
IFSFA_PARAM.SIG1
      6245**DCL      6245--REDEF
IFSFA_PARAM.SIG2
      6245**DCL      6246--REDEF
IN_RES
      5818**DCL      5818--REDEF    7865>>IF
PL6.E3A0      #005=VPF$PROCESS_INPUT_OPT File=VPF$SRCLST.:E05TSI                 WED 07/30/97 07:40 Page:393
IN_SN.SN
      5834**DCL      5835--REDEF
J
        28**DCL      8216<<CALLBLT  8233<<ASSIGN   8234>>ASSIGN   8236>>IF
KEY_AREA$
      6223**DCL      7973>>IF       7974<>CALL     8000>>ASSIGN   8009>>ASSIGN   8010<<ASSIGN   8010>>ASSIGN
      8010>>ASSIGN   8026>>ASSIGN   8029>>ASSIGN   8030<<ASSIGN   8030>>ASSIGN   8030>>ASSIGN
M$TIME
       403**DCL-ENT  8146--CALL
OCB.TYPE
      5580**DCL      5581--REDEF
OFSFA_PARAM.EOMCHAR#
      6281**DCL      6282--REDEF
OFSFA_PARAM.SIG1
      6275**DCL      6275--REDEF
OFSFA_PARAM.SIG2
      6275**DCL      6276--REDEF
OPT$
        21**DCL         6--PROC     7848>>ASSIGN   7879>>CALL     7891>>CALL     7900>>CALL     7931>>CALL
      7935>>IF       7938>>CALL     7963>>DOINDEX  7964>>ASSIGN   7989>>ASSIGN   8056>>IF       8072>>IF
      8076>>DOWHILE  8077>>ASSIGN   8091>>CALL     8111>>ASSIGN   8114>>CALL     8125>>CALL     8140>>ASSIGN
      8141>>ASSIGN   8142>>CALL     8163>>DOINDEX  8164>>DOCASE   8191>>IF       8195>>IF       8195>>IF
      8195>>IF       8195>>IF       8213>>IF       8216>>CALLBLT  8216>>CALLBLT  8225>>ASSIGN   8226>>ASSIGN
      8226>>ASSIGN   8230>>ASSIGN   8231>>DOINDEX  8232>>ASSIGN   8243>>ASSIGN
OPT_CODE
        22**DCL      7848<<ASSIGN   7849>>IF       7849>>IF       7859>>IF       7862>>CALL     7865>>IF
      7869>>CALL     7872>>ASSIGN   7873>>DOCASE
OPT_TBL.CMD.ALLOWED
      7379**DCL      7859>>IF
OPT_TBL.CMD.ERR_CODE
      7315**DCL      7862<>CALL
OPT_TBL.CON_DUP_IDX
      7401**DCL      7849>>IF       7849>>IF       7872>>ASSIGN
OPT_TBL.DEV.ALLOWED
      7417**DCL      7865>>IF
OPT_TBL.DEV.ERR_CODE
PL6.E3A0      #005=VPF$PROCESS_INPUT_OPT File=VPF$SRCLST.:E05TSI                 WED 07/30/97 07:40 Page:394
      7440**DCL      7869<>CALL
ORG_TBL.ORG_MON
      6218**DCL      7968>>ASSIGN   8112>>ASSIGN
OUT$BLK.CODE
      7536**DCL      7848>>ASSIGN   7964>>ASSIGN   7990>>ASSIGN   7993>>IF       8018>>IF       8072>>IF
      8111>>ASSIGN   8140>>ASSIGN   8141>>ASSIGN   8164>>DOCASE   8191>>IF       8234>>ASSIGN   8238>>IF
      8243>>ASSIGN
OUT$BLK.NSUBLKS
      7540**DCL      7935>>IF       7963>>DOINDEX  8016>>IF       8056>>IF       8076>>DOWHILE  8163>>DOINDEX
      8230>>ASSIGN   8231>>DOINDEX  8233>>ASSIGN
OUT$BLK.SUBLK$
      7561**DCL      7879>>CALL     7879<>CALL     7891<>CALL     7900>>CALL     7900<>CALL     7931>>CALL
      7931<>CALL     7938>>CALL     7938<>CALL     7964>>ASSIGN   7989>>ASSIGN   8002>>ASSIGN   8018>>IF
      8022>>ASSIGN   8072>>IF       8077>>ASSIGN   8091>>CALL     8091<>CALL     8111>>ASSIGN   8114>>CALL
      8114<>CALL     8125>>CALL     8125<>CALL     8140>>ASSIGN   8141>>ASSIGN   8142<>CALL     8164>>DOCASE
      8191>>IF       8195>>IF       8195>>IF       8195>>IF       8195>>IF       8213>>IF       8216>>CALLBLT
      8216>>CALLBLT  8225>>ASSIGN   8226>>ASSIGN   8226>>ASSIGN   8232>>ASSIGN   8234>>ASSIGN   8238>>IF
      8243>>ASSIGN
OUT$SYM.COUNT
      7597**DCL      7600--IMP-SIZ  8078>>IF       8085>>ASSIGN   8195>>IF       8195>>IF       8213>>IF
      8216>>CALLBLT  8225>>ASSIGN   8226>>ASSIGN
OUT$SYM.TEXT
      7600**DCL      8085>>ASSIGN   8195>>IF       8195>>IF       8216>>CALLBLT  8226>>ASSIGN
OUT_SN.SN
      5852**DCL      5853--REDEF
REC_SEL_CNT
      5524**DCL      7978>>IF       7990>>ASSIGN   7991>>ASSIGN   7992>>ASSIGN   7996>>ASSIGN   8004>>IF
      8005>>ASSIGN   8006>>ASSIGN   8009>>ASSIGN   8023>>IF       8024>>ASSIGN   8028>>IF       8029>>ASSIGN
      8036>>IF       8037>>IF       8037>>IF       8037>>IF       8037>>IF       8040>>IF       8040>>IF
      8052>>ASSIGN   8052>>ASSIGN   8053<<ASSIGN   8053>>ASSIGN
RESULTS_FID_IN.NAME
      6328**DCL      7920>>IF
SPEC_BUF
      5530**DCL      5530--REDEF
T$
        24**DCL      7989<<ASSIGN   7990>>ASSIGN   7993>>IF       8002>>ASSIGN   8016>>IF       8018>>IF
PL6.E3A0      #005=VPF$PROCESS_INPUT_OPT File=VPF$SRCLST.:E05TSI                 WED 07/30/97 07:40 Page:395
      8022>>ASSIGN   8077<<ASSIGN   8078>>IF       8085>>ASSIGN   8085>>ASSIGN   8232<<ASSIGN   8233>>ASSIGN
      8234>>ASSIGN   8238>>IF
TEXT$C.LEN
      7606**DCL      7607--IMP-SIZ  8010>>ASSIGN   8030>>ASSIGN   8037>>IF       8037>>IF
TEXT$C.STRING
      7607**DCL      8037>>IF       8037>>IF
TO_KEY$
        25**DCL      7996<<ASSIGN   8000<<ASSIGN   8003<>CALL     8024<<ASSIGN   8026<<ASSIGN   8027<>CALL
TWORD
        23**DCL      7879<>CALL     7882>>ASSIGN   7931<>CALL     7934>>ASSIGN   7938<>CALL     7941>>ASSIGN
      7963<<DOINDEX  7964>>ASSIGN   8091<>CALL     8094>>ASSIGN   8114<>CALL     8117>>ASSIGN   8125<>CALL
      8128>>ASSIGN
VPD$GET_BUF
      7686**DCL-ENT  7974--CALL
VPD$GET_KEY_OR_NUM
      7696**DCL-ENT  8003--CALL     8027--CALL
VPD$MNG_CRPT
      7832**DCL-ENT  7891--CALL
VPD$PROCESS_DATE
      7717**DCL-ENT  8142--CALL
VPD$TEXTC_CHARBIN
      7721**DCL-ENT  7879--CALL     7900--CALL     7931--CALL     7938--CALL     8091--CALL     8114--CALL
      8125--CALL
VPL$ERR_PROC
      7821**DCL-ENT  7853--CALL     7862--CALL     7869--CALL     7884--CALL     7893--CALL     7905--CALL
      7923--CALL     7945--CALL     7955--CALL     7976--CALL     7981--CALL     8044--CALL     8059--CALL
      8081--CALL     8096--CALL     8119--CALL     8130--CALL     8156--CALL     8207--CALL     8219--CALL

PL6.E3A0      #006=VPF$SET_FROM_INFO File=VPF$SRCLST.:E05TSI                     WED 07/30/97 07:42 Page:396
     2359        1        /*T***********************************************************/
     2360        2        /*T*                                                         */
     2361        3        /*T* Copyright (c) Bull HN Information Systems Inc., 1997    */
     2362        4        /*T*                                                         */
     2363        5        /*T***********************************************************/
     2364        6        VPF$SET_FROM_INFO: PROC(FID$);
     2365        7        /*D* NAME: VPF$SET_FROM_INFO
     2366        8             CALL: CALL VPF$SET_FROM_INFO(FID$);
     2367        9                    where FID$ is a pointer to a PARSE OUT$SYM block containing the
     2368       10                    FROM fid.
     2369       11             DESCRIPTION: This procedure takes the fid found by FID$ and sends it
     2370       12                          through M$FID to fill in the FROM information needed
     2371       13                          by GET_NEXT_SPEC.
     2372       14        */
     2373       15        %INCLUDE VP_DATA_R;
     2374     7002        %PARSE$SYM(NAME = OUT$SYM,STCLASS = BASED);
     2375     7040    1   DCL FID$ PTR;
     2376     7041        %FPT_FID(FPTN = FPT_FID_FROM,
     2377     7042                 NAME = FROM_NAME,
     2378     7043                 ACCT = FROM_ACCT,
     2379     7044                 PASS = FROM_PASS,
     2380     7045                 RES  = FROM_RES,
     2381     7046                 SN   = FROM_SN,
     2382     7047                 ASN  = FROM_ASN,
     2383     7048                 WSN  = FROM_WSN,
     2384     7049                 RESULTS = RESULTS_FID_FROM,
     2385     7050                 STCLASS = STATIC);
     2386     7073        /**/
     2387     7074        /*  ENTRY DCLS  */
     2388     7075        /**/
     2389     7076        %VP_ENTRIES (OMIT=VPF$SET_FROM_INFO);
     2390     7284        /**/
     2391     7285    1           FPT_FID_FROM.TEXTFID_   = VECTOR(FID$->OUT$SYM.TEXT);
     2392     7286    1           CALL VPD$FID(FPT_FID_FROM);
     2393     7287    1           IF FROM_NAME.LEN=0
     2394     7288    1            THEN
     2395     7289    1              RESULTS_FID_FROM.NAME='0'B;
PL6.E3A0      #006=VPF$SET_FROM_INFO File=VPF$SRCLST.:E05TSI                     WED 07/30/97 07:42 Page:397
     2396     7290    1           RETURN;
     2397     7291    1   END VPF$SET_FROM_INFO;
     2398     7292        %EOD;

PL6.E3A0      #006=VPF$SET_FROM_INFO File=VPF$SRCLST.:E05TSI                     WED 07/30/97 07:42 Page:398
--  Include file information  --

   B_MICROPS_C.:E05TOU  is referenced.
   XU_MACRO_C.:E05TOU  is referenced.
   VP_MACRO_C.:E05TOU  is referenced.
   XS_MACRO_C.:E05TOU  is referenced.
   VP_PERR_C.:E05TOU  is referenced.
   CP_6_SUBS.:E05TOU  is referenced.
   CP_6.:E05TOU  cannot be made into a system file and is referenced.
   VP_DATA_R.:E05TOU  cannot be made into a system file and is referenced.
   B$JIT_C.:E05TOU  was found in the system file and is never referenced.
   CP_6_C.:E05TOU  was found in the system file and is referenced.
      No diagnostics issued in procedure VPF$SET_FROM_INFO.

   Procedure VPF$SET_FROM_INFO requires 22 words for executable code.
   Procedure VPF$SET_FROM_INFO requires 6 words of local(AUTO) storage.

PL6.E3A0      #006=VPF$SET_FROM_INFO File=VPF$SRCLST.:E05TSI                     WED 07/30/97 07:42 Page:399

 Object Unit name= VPF$SET_FROM_INFO                          File name= VPF$SRCLST.:E05TOU
 UTS= JUL 30 '97 07:42:47.60 WED                              Compiler= PL-6/E31         Sev=      00
 SharedLib= :SHARED_SYSTEM                                    Alt SharedLib=


    ****  Control sections  ****

 Sect   Type Bound  Init  Size OctSiz  Section name(segment info)
    0   DCB   even  none     0      0  M$UC
    1   DCB   even  none     0      0  M$EI
    2   DCB   even  none     0      0  M$EO
    3   DCB   even  none     0      0  M$EO1
    4   DCB   even  none     0      0  M$ME
    5   DCB   even  none     0      0  M$SI
    6   DCB   even  none     0      0  M$READFILE
    7   DCB   even  none     0      0  M$DO
    8   DCB   even  none     0      0  M$STD1
    9   DCB   even  none     0      0  M$SORT1
   10   Data  even  none    24     30  VPF$SET_FROM_INFO
   11   Proc  even  none    22     26  VPF$SET_FROM_INFO
   12  RoData even  none     2      2  VPF$SET_FROM_INFO

    ****  Entry defs  ****

                              Check   Calling
                             calling  sequence
  Sect OctLoc Primary Altret sequence   type   Parms  Name
    11      0   yes            yes      Std        1  VPF$SET_FROM_INFO
PL6.E3A0      #006=VPF$SET_FROM_INFO File=VPF$SRCLST.:E05TSI                     WED 07/30/97 07:42 Page:400

  ****  Entry refs  ****

         Check        Calling
        calling       sequence
Altret sequence SRef   type   Args  Name
 yes     yes           Std       2 VPD$FID
                       nStd      0 X66_AUTO_1
                       Std       0 B_CONSPOOL_D
                       nStd      0 X66_ARET

  ****  Data refs  ****

  Flags:  r = read only, s = secondary
Flgs Name                             Flgs Name                             Flgs Name
     M$UC                                  BREAK_LOC                             BREAK_MESSAGE_REPORTER
     SPEC_BUF                              IN_RES                                FROM_NAME
     FROM_ACCT                             FROM_PASS                             FROM_RES
     FROM_SN                               FROM_WSN                              FROM_ASN
     M$EI                                  M$EO                                  M$EO1
     M$ME                                  M$SI                                  M$READFILE
     M$DO                                  M$STD1                                M$SORT1
     RESULTS_FID_FROM                      B_VECTNIL

  ****  Segment refs  ****

  Flags:  r = read only, s = secondary
Flgs Name                             Flgs Name                             Flgs Name
     ISSID                                 NULLSID
PL6.E3A0      #006=VPF$SET_FROM_INFO File=VPF$SRCLST.:E05TSI                     WED 07/30/97 07:42 Page:401


     2359        1        /*T***********************************************************/
     2360        2        /*T*                                                         */
     2361        3        /*T* Copyright (c) Bull HN Information Systems Inc., 1997    */
     2362        4        /*T*                                                         */
     2363        5        /*T***********************************************************/
     2364        6        VPF$SET_FROM_INFO: PROC(FID$);

      6 11 000000   000000 700200 xent  VPF$SET_FRO* TSX0  ! X66_AUTO_1
        11 000001   000006 000001                    ZERO    6,1

     2365        7        /*D* NAME: VPF$SET_FROM_INFO
     2366        8             CALL: CALL VPF$SET_FROM_INFO(FID$);
     2367        9                    where FID$ is a pointer to a PARSE OUT$SYM block containing the
     2368       10                    FROM fid.
     2369       11             DESCRIPTION: This procedure takes the fid found by FID$ and sends it
     2370       12                          through M$FID to fill in the FROM information needed
     2371       13                          by GET_NEXT_SPEC.
     2372       14        */
     2373       15        %INCLUDE VP_DATA_R;
     2374     7002        %PARSE$SYM(NAME = OUT$SYM,STCLASS = BASED);
     2375     7040    1   DCL FID$ PTR;
     2376     7041        %FPT_FID(FPTN = FPT_FID_FROM,
     2377     7042                 NAME = FROM_NAME,
     2378     7043                 ACCT = FROM_ACCT,
     2379     7044                 PASS = FROM_PASS,
     2380     7045                 RES  = FROM_RES,
     2381     7046                 SN   = FROM_SN,
     2382     7047                 ASN  = FROM_ASN,
     2383     7048                 WSN  = FROM_WSN,
     2384     7049                 RESULTS = RESULTS_FID_FROM,
     2385     7050                 STCLASS = STATIC);
     2386     7073        /**/
     2387     7074        /*  ENTRY DCLS  */
     2388     7075        /**/
     2389     7076        %VP_ENTRIES (OMIT=VPF$SET_FROM_INFO);
     2390     7284        /**/
PL6.E3A0      #006=VPF$SET_FROM_INFO File=VPF$SRCLST.:E05TSI                     WED 07/30/97 07:42 Page:402
     2391     7285    1           FPT_FID_FROM.TEXTFID_   = VECTOR(FID$->OUT$SYM.TEXT);

   7285 11 000002   200003 470500                    LDP0    @FID$,,AUTO
        11 000003   000000 471500                    LDP1    0,,PR0
        11 000004   100004 236100                    LDQ     4,,PR1
        11 000005   000033 772000                    QRL     27
        11 000006   000064 737000                    LLS     52
        11 000007   000140 135007                    SBLA    96,DL
        11 000010   200004 451500                    STP1    @FID$+1,,AUTO
        11 000011   200004 236100                    LDQ     @FID$+1,,AUTO
        11 000012   000000 036000 12                 ADLQ    0
        11 000013   000002 757000 10                 STAQ    FPT_FID_FROM+2

     2392     7286    1           CALL VPD$FID(FPT_FID_FROM);

   7286 11 000014   000001 630400 12                 EPPR0   1
        11 000015   000017 631400 xsym               EPPR1   B_VECTNIL+15
        11 000016   000000 701000 xent               TSX1    VPD$FID
        11 000017   000000 011000                    NOP     0

     2393     7287    1           IF FROM_NAME.LEN=0

   7287 11 000020   000000 236000 xsym               LDQ     FROM_NAME
        11 000021   777000 316003                    CANQ    -512,DU
        11 000022   000025 601000 11                 TNZ     s:7290

     2394     7288    1            THEN
     2395     7289    1              RESULTS_FID_FROM.NAME='0'B;

   7289 11 000023   000031 236000 xsym               LDQ     B_VECTNIL+25
        11 000024   000000 356000 xsym               ANSQ    RESULTS_FID_FROM

     2396     7290    1           RETURN;

   7290 11 000025   000000 702200 xent               TSX2  ! X66_ARET
     2397     7291    1   END VPF$SET_FROM_INFO;
     2398     7292        %EOD;
PL6.E3A0      #006=VPF$SET_FROM_INFO File=VPF$SRCLST.:E05TSI                     WED 07/30/97 07:42 Page:403

PL6.E3A0      #006=VPF$SET_FROM_INFO File=VPF$SRCLST.:E05TSI                     WED 07/30/97 07:42 Page:404
--  Include file information  --

   B_MICROPS_C.:E05TOU  is referenced.
   XU_MACRO_C.:E05TOU  is referenced.
   VP_MACRO_C.:E05TOU  is referenced.
   XS_MACRO_C.:E05TOU  is referenced.
   VP_PERR_C.:E05TOU  is referenced.
   CP_6_SUBS.:E05TOU  is referenced.
   CP_6.:E05TOU  cannot be made into a system file and is referenced.
   VP_DATA_R.:E05TOU  cannot be made into a system file and is referenced.
   B$JIT_C.:E05TOU  was found in the system file and is never referenced.
   CP_6_C.:E05TOU  was found in the system file and is referenced.
      No diagnostics issued in procedure VPF$SET_FROM_INFO.
PL6.E3A0      #006=VPF$SET_FROM_INFO File=VPF$SRCLST.:E05TSI                     WED 07/30/97 07:42 Page:405

 **** Variables and constants ****

  ****  Section 010  Data  VPF$SET_FROM_INFO

  ****  Scalars and arrays  ****
OctLoc.c.b A Datatyp(siz) R M Lvl/name                 OctLoc.c.b A Datatyp(siz) R M Lvl/name

     0-0-0/d STRC(864)   r     1 FPT_FID_FROM

  ****  Auto variables  ****

  ****  Scalars and arrays  ****
OctLoc.c.b A Datatyp(siz) R M Lvl/name                 OctLoc.c.b A Datatyp(siz) R M Lvl/name

     3-0-0/w PTR         r     1 @FID$                     *0-0-0/w PTR         r     1 FID$

  ****  SYMREF variables  ****

  ****  Scalars and arrays  ****
OctLoc.c.b A Datatyp(siz) R M Lvl/name                 OctLoc.c.b A Datatyp(siz) R M Lvl/name

     0-0-0/w EPTR        r     1 BREAK_MESSAGE_REPORTER
     0-0-0/c CHAR(8)     r     1 FROM_ACCT                  0-0-0/b UBIN(9)     r     1 FROM_ASN
     0-0-0/c STRC(288)   r     1 FROM_NAME                  0-0-0/c CHAR(8)     r     1 FROM_PASS
     0-0-0/c CHAR(4)     r     1 FROM_RES                   0-0-0/w STRC(1116)  r     1 FROM_SN
     0-0-0/c CHAR(8)     r     1 FROM_WSN                   0-0-0/d STRC(324)   r     1 RESULTS_FID_FROM

  ****  BASED and DCB variables  ****

  ****  Scalars and arrays  ****
OctLoc.c.b A Datatyp(siz) R M Lvl/name                 OctLoc.c.b A Datatyp(siz) R M Lvl/name

     0-0-0/w ASTR(153)   r     1 OUT$SYM


   Procedure VPF$SET_FROM_INFO requires 22 words for executable code.
PL6.E3A0      #006=VPF$SET_FROM_INFO File=VPF$SRCLST.:E05TSI                     WED 07/30/97 07:42 Page:406
   Procedure VPF$SET_FROM_INFO requires 6 words of local(AUTO) storage.
PL6.E3A0      #006=VPF$SET_FROM_INFO File=VPF$SRCLST.:E05TSI                     WED 07/30/97 07:42 Page:407
          *** CROSS REFERENCE LISTING ***
**     DENOTES     IDENTIFIER DEFINITION
<<                 IDENTIFIER'S VALUE SET
>>                 IDENTIFIER'S VALUE USED
<>                 IDENTIFIER SET AND/OR USED
--                 IDENTIFIER REFERENCED
PL6.E3A0      #006=VPF$SET_FROM_INFO File=VPF$SRCLST.:E05TSI                     WED 07/30/97 07:42 Page:408
          MINI XREF LISTING

BREAK_LOC
      5222**DCL      5222--REDEF
DEF_ICB.FID.STRING
      5820**DCL      5821--REDEF
DEV_ICB.FID.STRING
      5706**DCL      5707--REDEF
EI_KEY.KEY
      5918**DCL      5918--REDEF    5918--REDEF    5918--REDEF
EO_OCB.TYPE
      5418**DCL      5419--REDEF
FID$
      7040**DCL         6--PROC     7285>>ASSIGN   7285>>ASSIGN
FPT_CLOSE_EI.SN_
      6759**DCL      6759--REDEF
FPT_CLOSE_EI.UTL_
      6760**DCL      6760--REDEF
FPT_CLOSE_EI.V.EXPIRE#
      6774**DCL      6774--REDEF
FPT_CLOSE_EI.V.TYPE#
      6772**DCL      6772--REDEF
FPT_CLOSE_EI.V.XTNSIZE#
      6769**DCL      6769--REDEF    6771--REDEF
FPT_CLOSE_PTL.SN_
      6885**DCL      6885--REDEF
FPT_CLOSE_PTL.UTL_
      6886**DCL      6886--REDEF
FPT_CLOSE_PTL.V.EXPIRE#
      6900**DCL      6900--REDEF
FPT_CLOSE_PTL.V.TYPE#
      6898**DCL      6898--REDEF
FPT_CLOSE_PTL.V.XTNSIZE#
      6895**DCL      6895--REDEF    6897--REDEF
PL6.E3A0      #006=VPF$SET_FROM_INFO File=VPF$SRCLST.:E05TSI                     WED 07/30/97 07:42 Page:409
FPT_CLOSE_READ.SN_
      6801**DCL      6801--REDEF
FPT_CLOSE_READ.UTL_
      6802**DCL      6802--REDEF
FPT_CLOSE_READ.V.EXPIRE#
      6816**DCL      6816--REDEF
FPT_CLOSE_READ.V.TYPE#
      6814**DCL      6814--REDEF
FPT_CLOSE_READ.V.XTNSIZE#
      6811**DCL      6811--REDEF    6813--REDEF
FPT_CLOSE_SI.SN_
      6969**DCL      6969--REDEF
FPT_CLOSE_SI.UTL_
      6970**DCL      6970--REDEF
FPT_CLOSE_SI.V.EXPIRE#
      6984**DCL      6984--REDEF
FPT_CLOSE_SI.V.TYPE#
      6982**DCL      6982--REDEF
FPT_CLOSE_SI.V.XTNSIZE#
      6979**DCL      6979--REDEF    6981--REDEF
FPT_CLOSE_STD.SN_
      6927**DCL      6927--REDEF
FPT_CLOSE_STD.UTL_
      6928**DCL      6928--REDEF
FPT_CLOSE_STD.V.EXPIRE#
      6942**DCL      6942--REDEF
FPT_CLOSE_STD.V.TYPE#
      6940**DCL      6940--REDEF
FPT_CLOSE_STD.V.XTNSIZE#
      6937**DCL      6937--REDEF    6939--REDEF
FPT_CLSEI_FT.SN_
      6843**DCL      6843--REDEF
FPT_CLSEI_FT.UTL_
      6844**DCL      6844--REDEF
FPT_CLSEI_FT.V.EXPIRE#
      6858**DCL      6858--REDEF
PL6.E3A0      #006=VPF$SET_FROM_INFO File=VPF$SRCLST.:E05TSI                     WED 07/30/97 07:42 Page:410
FPT_CLSEI_FT.V.TYPE#
      6856**DCL      6856--REDEF
FPT_CLSEI_FT.V.XTNSIZE#
      6853**DCL      6853--REDEF    6855--REDEF
FPT_FID_FROM
      7061**DCL      7286<>CALL
FPT_FID_FROM.TEXTFID_
      7061**DCL      7285<<ASSIGN
FPT_FID_FROM.V
      7065**DCL      7061--DCLINIT
FPT_OPEN_EI.ACSVEH_
      6414**DCL      6415--REDEF
FPT_OPEN_EI.ALTKEYS_
      6420**DCL      6421--REDEF    6421--REDEF
FPT_OPEN_EI.HDR_
      6419**DCL      6420--REDEF
FPT_OPEN_EI.TAB_
      6418**DCL      6419--REDEF
FPT_OPEN_EI.UHL_
      6412**DCL      6413--REDEF    6413--REDEF
FPT_OPEN_EI.V.FSN#
      6452**DCL      6452--REDEF    6452--REDEF
FPT_OPEN_EI.WSN_
      6418**DCL      6418--REDEF
FPT_OPEN_EI_SAVE.ACSVEH_
      6523**DCL      6524--REDEF
FPT_OPEN_EI_SAVE.ALTKEYS_
      6529**DCL      6530--REDEF    6530--REDEF
FPT_OPEN_EI_SAVE.HDR_
      6528**DCL      6529--REDEF
FPT_OPEN_EI_SAVE.TAB_
      6527**DCL      6528--REDEF
FPT_OPEN_EI_SAVE.UHL_
      6521**DCL      6522--REDEF    6522--REDEF
FPT_OPEN_EI_SAVE.V.FSN#
      6561**DCL      6561--REDEF    6561--REDEF
PL6.E3A0      #006=VPF$SET_FROM_INFO File=VPF$SRCLST.:E05TSI                     WED 07/30/97 07:42 Page:411
FPT_OPEN_EI_SAVE.WSN_
      6527**DCL      6527--REDEF
FPT_OPEN_OUT.ACSVEH_
      6305**DCL      6306--REDEF
FPT_OPEN_OUT.ALTKEYS_
      6311**DCL      6312--REDEF    6312--REDEF
FPT_OPEN_OUT.HDR_
      6310**DCL      6311--REDEF
FPT_OPEN_OUT.TAB_
      6309**DCL      6310--REDEF
FPT_OPEN_OUT.UHL_
      6303**DCL      6304--REDEF    6304--REDEF
FPT_OPEN_OUT.V.FSN#
      6343**DCL      6343--REDEF    6343--REDEF
FPT_OPEN_OUT.WSN_
      6309**DCL      6309--REDEF
FPT_OPEN_OUT_SAVE.ACSVEH_
      6196**DCL      6197--REDEF
FPT_OPEN_OUT_SAVE.ALTKEYS_
      6202**DCL      6203--REDEF    6203--REDEF
FPT_OPEN_OUT_SAVE.HDR_
      6201**DCL      6202--REDEF
FPT_OPEN_OUT_SAVE.TAB_
      6200**DCL      6201--REDEF
FPT_OPEN_OUT_SAVE.UHL_
      6194**DCL      6195--REDEF    6195--REDEF
FPT_OPEN_OUT_SAVE.V.FSN#
      6234**DCL      6234--REDEF    6234--REDEF
FPT_OPEN_OUT_SAVE.WSN_
      6200**DCL      6200--REDEF
FPT_READ_STD.STATION_
      6624**DCL      6625--REDEF
FPT_READ_STD.V.DVBYTE.REREAD#
      6636**DCL      6636--REDEF
FPT_READ_STD.V.INDX#
      6634**DCL      6634--REDEF
PL6.E3A0      #006=VPF$SET_FROM_INFO File=VPF$SRCLST.:E05TSI                     WED 07/30/97 07:42 Page:412
FPT_READ_UC.STATION_
      6585**DCL      6586--REDEF
FPT_READ_UC.V.DVBYTE.REREAD#
      6597**DCL      6597--REDEF
FPT_READ_UC.V.INDX#
      6595**DCL      6595--REDEF
FPT_WRITE_ME.STATION_
      6693**DCL      6693--REDEF
FPT_WRITE_ME.V.DVBYTE.VFC#
      6700**DCL      6700--REDEF
FPT_WRITE_OUT.STATION_
      6724**DCL      6724--REDEF
FPT_WRITE_OUT.V.DVBYTE.VFC#
      6731**DCL      6731--REDEF
FPT_WRITE_UC.STATION_
      6662**DCL      6662--REDEF
FPT_WRITE_UC.V.DVBYTE.VFC#
      6669**DCL      6669--REDEF
FROM_ACCT
      5552**DCL      7062--DCLINIT
FROM_ASN
      5571**DCL      7064--DCLINIT
FROM_NAME
      5551**DCL      7062--DCLINIT
FROM_NAME.LEN
      5551**DCL      7287>>IF
FROM_PASS
      5552**DCL      7063--DCLINIT
FROM_RES
      5552**DCL      7064--DCLINIT
FROM_SN
      5563**DCL      7063--DCLINIT
FROM_SN.SN
      5568**DCL      5569--REDEF
FROM_WSN
      5571**DCL      7063--DCLINIT
PL6.E3A0      #006=VPF$SET_FROM_INFO File=VPF$SRCLST.:E05TSI                     WED 07/30/97 07:42 Page:413
GETCMD.OUT$
      4775**DCL      4781--REDEF
ICB.FID.STRING
      5592**DCL      5593--REDEF
IFSFA_PARAM.EOMCHAR#
      5947**DCL      5948--REDEF
IFSFA_PARAM.SIG1
      5941**DCL      5941--REDEF
IFSFA_PARAM.SIG2
      5941**DCL      5942--REDEF
IN_RES
      5514**DCL      5514--REDEF
IN_SN.SN
      5530**DCL      5531--REDEF
OCB.TYPE
      5276**DCL      5277--REDEF
OFSFA_PARAM.EOMCHAR#
      5977**DCL      5978--REDEF
OFSFA_PARAM.SIG1
      5971**DCL      5971--REDEF
OFSFA_PARAM.SIG2
      5971**DCL      5972--REDEF
OUT$SYM.COUNT
      7032**DCL      7035--IMP-SIZ  7285>>ASSIGN
OUT$SYM.TEXT
      7035**DCL      7285--ASSIGN
OUT_SN.SN
      5548**DCL      5549--REDEF
RESULTS_FID_FROM
      6043**DCL      7065--DCLINIT
RESULTS_FID_FROM.NAME
      6043**DCL      7289<<ASSIGN
SPEC_BUF
      5226**DCL      5226--REDEF
VPD$FID
      7116**DCL-ENT  7286--CALL

