VERSION E05

PL6.E3A0      #001=VPF$CALL_OPEN File=VPF$SRCLST.:E05TSI                         WED 07/30/97 07:30 Page:1
        1        1        /*M* VPF$SRCLST This module contains routines for manipulating SOURCELIST     */
        2        2        /*T***********************************************************/
        3        3        /*T*                                                         */
        4        4        /*T* Copyright (c) Bull HN Information Systems Inc., 1997    */
        5        5        /*T*                                                         */
        6        6        /*T***********************************************************/
        7        7        /*X* DTI=1,THI=1  */
        8        8        /* NEXT AVAILABLE ERROR CODE = 80 by 5  */
        9        9        /* ALSO AVAILABLE:  NONE */
       10       10        %EJECT;
PL6.E3A0      #001=VPF$CALL_OPEN File=VPF$SRCLST.:E05TSI                         WED 07/30/97 07:30 Page:2
       11       11        VPF$CALL_OPEN: PROC(FPT_OPEN) ALTRET;
       12       12        /*D* NAME: VPF$CALL_OPEN
       13       13             CALL: CALL VPF$CALL_OPEN(FPT_OPEN);
       14       14             DESCRIPTION: This procedure will do an OPEN using the passed FPT.
       15       15                          If it is suitable for FSFA, READ_MODE will be set
       16       16                          to 1.  Otherwise it'll be 0.
       17       17        */
       18       18        /**/
       19       19        /*  INCLUDE FILES  */
       20       20        /**/
       21       21        %INCLUDE VP_DATA_R;
       22     7008        /**/
       23     7009        /*  Parameters  */
       24     7010        /**/
       25     7011        %FPT_OPEN(FPTN = FPT_OPEN,
       26     7012                  STCLASS = " ");
       27     7121        /**/
       28     7122        /*  Based Structures  */
       29     7123        /**/
       30     7124        %B$ALT;
       31     7132        %FPT_CLOSE(FPTN = FPT_CLOSE,
       32     7133                   STCLASS = "BASED(CLOSE$)");
       33     7175        %B$TCB;
       34     7178        %VLP_VECTOR(FPTN=B$VECTOR,STCLASS=BASED);
       35     7193    1   DCL B$WORD UBIN BASED;
       36     7194        /**/
       37     7195        /*  Local Storage  */
       38     7196        /**/
       39     7197    1   DCL CLOSE$ PTR;
       40     7198    1   DCL SAVEPOS UBIN;
       41     7199    1   DCL SAVENOMARKS BIT(1);
       42     7200        /**/
       43     7201        /*  Entry Points  */
       44     7202        /**/
       45     7203        %VP_ENTRIES (OMIT=VPF$CALL_OPEN);
       46     7411    1   DCL XSA$OPEN ENTRY(2) ALTRET;
       47     7412    1   DCL XSA$CLOSE ENTRY(2) ALTRET;
PL6.E3A0      #001=VPF$CALL_OPEN File=VPF$SRCLST.:E05TSI                         WED 07/30/97 07:30 Page:3
       48     7413        /**/
       49     7414    2           IF ICB.DEV_MASK.MAN_TAPE THEN DO;
       50     7415    2               IF USER_LABELS$ = ADDR(NIL) THEN
       51     7416    2                  CALL VPD$GET_BUF(USER_LABELS$,8*1024)
       52     7417    3                   WHENALTRETURN DO;
       53     7418    3                      CALL VPL$ERR_PROC(3,0);
       54     7419    3                      END;
       55     7420    2               ADDR(FPT_OPEN.UHL_)->B$VECTOR.PTR$ = USER_LABELS$;
       56     7421    2               ADDR(FPT_OPEN.UHL_)->B$VECTOR.W1.VSIZE# = 8*1024*4-1;
       57     7422    2               USER_LABELS$->B$WORD=0;     /* START OFF WITH NO LABELS           */
       58     7423    2               END;
       59     7424    1            ELSE
       60     7425    1              IF FPT_OPEN.UHL_ ~= VECTOR(NIL) THEN
       61     7426    1                 FPT_OPEN.UHL_  = VECTOR(NIL);
       62     7427    1           IF FPT_OPEN.V.OPER.TEST#        /* TEST OPEN                          */
       63     7428    1             OR NOT CMD_MASK & '34'O       /* Not COPYs                          */
       64     7429    1             OR ICB.KEY_SEL                /* Record selection by keys           */
       65     7430    1             OR ICB.LREC_SEL               /* Record selection by log. rec. no.  */
       66     7431    1             OR ICB.CRPT ~= 0              /* Decryption                         */
       67     7432    1             OR ICB.EBCDIC                 /* EBCDIC translation                 */
       68     7433    1             OR ICB.BIN                    /* BINARY                             */
       69     7434    1             OR ICB.TRANS                  /* TRANSPARENT                        */
       70     7435    1            THEN                           /* Unsuitable for FSFA routines       */
       71     7436    1              GOTO PMME_OPEN;
       72     7437        /**/
       73     7438    1           CALL VPD$GET_BUF(IKBUF_PTR$,1024) ALTRET(PMME_OPEN);
       74     7439    1           IFSFA_PARAM.KBUF_.BUF$ = IKBUF_PTR$;
       75     7440    1           IFSFA_PARAM.KBUF_.BOUND = 1024 * 4 -1;
       76     7441        /**/
       77     7442    1           IBBUF_WSIZE = 1024 * 5;
       78     7443    1           CALL VPD$GET_BUF(IBBUF_PTR$,IBBUF_WSIZE) ALTRET(PMME_OPEN);
       79     7444    1           IFSFA_PARAM.BBUF_.BUF$ = IBBUF_PTR$;
       80     7445    1           IFSFA_PARAM.BBUF_.BOUND = IBBUF_WSIZE * 4 -1;
       81     7446        /**/
       82     7447    1           CALL XSA$OPEN(FPT_OPEN,IFSFA_PARAM) ALTRET(FSFA_ALT);
       83     7448        /**/
       84     7449    1           IF IFSFA_PARAM.ORG = 0
PL6.E3A0      #001=VPF$CALL_OPEN File=VPF$SRCLST.:E05TSI                         WED 07/30/97 07:30 Page:4
       85     7450    1            THEN                           /* Unsuitable for FSFA                */
       86     7451    2            DO;
       87     7452    2               READ_MODE = 0;
       88     7453    2               CALL CLEANUP;
       89     7454    2               END;
       90     7455    1            ELSE                           /* FSFA must be used                  */
       91     7456    2            DO;
       92     7457    2               READ_MODE = 1;
       93     7458    2               IF IFSFA_PARAM.ORG = %CONSEC#
       94     7459    2                THEN                       /* KBUF not needed                    */
       95     7460    2                  CALL VPD$REL_BUF(IKBUF_PTR$,1024); /* Release it               */
       96     7461    2               END;
       97     7462    1           RETURN;
       98     7463        /**/
       99     7464    1   PMME_OPEN:
      100     7465    1           CALL CLEANUP;                   /* Cleanup after FSFA attempt         */
      101     7466    1           CALL M$OPEN (FPT_OPEN) ALTRET(PMME_ALT);
      102     7467    1           READ_MODE = 0;
      103     7468    1           RETURN;
      104     7469        /**/
      105     7470    1   VPF$CALL_CLOSE: ENTRY(FPT_OPEN) ALTRET;
      106     7471    1           CLOSE$ = ADDR(FPT_OPEN);        /* PL-6 KLUDGE                        */
      107     7472    1           SAVEPOS=FPT_CLOSE.V.POS#;
      108     7473    1           SAVENOMARKS=FPT_CLOSE.V.NOMARKS#;
      109     7474    2           IF ICB.DEV_MASK.MAN_TAPE AND OCB.DEV_MASK.LT THEN DO;
              7474                    /* There might be UTLs */
      110     7475    2               IF USER_LABELS$=ADDR(NIL) THEN
      111     7476    2                  CALL VPD$GET_BUF(USER_LABELS$,8*1024)
      112     7477    3                   WHENALTRETURN DO;
      113     7478    3                      CALL VPL$ERR_PROC(3,0);
      114     7479    3                      END;
      115     7480    2               ADDR(FPT_CLOSE.UTL_)->B$VECTOR.PTR$ = USER_LABELS$;
      116     7481    2               ADDR(FPT_CLOSE.UTL_)->B$VECTOR.W1.VSIZE#=8*1024*4-1;
      117     7482    2               USER_LABELS$->B$WORD=0;     /* START OFF WITH NO LABELS           */
      118     7483    2               END;
      119     7484    1            ELSE
      120     7485    1              FPT_CLOSE.UTL_=VECTOR(NIL);
PL6.E3A0      #001=VPF$CALL_OPEN File=VPF$SRCLST.:E05TSI                         WED 07/30/97 07:30 Page:5
      121     7486    2           DO CASE(ICB.CLPOS);             /* Tape positioning                   */
      122     7487    2            CASE(0);                       /* Default                            */
      123     7488    2              IF EOF_SOURCE THEN GOTO EOFPOS;
      124     7489    2              FPT_CLOSE.V.NOMARKS# = '1'B;
      125     7490    2            CASE(1);                       /* EOF                                */
      126     7491    2   EOFPOS:    FPT_CLOSE.V.POS# = 0;
      127     7492    2            CASE(2);                       /* BOF                                */
      128     7493    2              FPT_CLOSE.V.POS# = %PTL#;
      129     7494    2            CASE(3);                       /* BOT                                */
      130     7495    2              FPT_CLOSE.V.POS# = %PTV#;
      131     7496    2            CASE(4);                       /* NONE                               */
      132     7497    2              FPT_CLOSE.V.NOMARKS# = '1'B;
      133     7498    2            END;
      134     7499    1           IF NOT CMD_MASK & '34'O         /* Not COPYs                          */
      135     7500    1            THEN                           /* Don't trust READ_MODE              */
      136     7501    1              GOTO PMME_CLOSE;
      137     7502    2           DO CASE(READ_MODE);
      138     7503    2            CASE(0);                       /* Normal PMME                        */
      139     7504    2   PMME_CLOSE: CALL M$CLOSE(FPT_CLOSE) ALTRET(PMME_ALT);
      140     7505    2            CASE(1);                       /* FSFA routines                      */
      141     7506    2              CALL XSA$CLOSE(FPT_CLOSE,IFSFA_PARAM) ALTRET(FSFA_ALT);
      142     7507    2              CALL CLEANUP;
      143     7508    2            END;                           /* END CASE                           */
      144     7509    1           FPT_CLOSE.V.POS# = SAVEPOS;/* So closes external to this routine work */
      145     7510    1           FPT_CLOSE.V.NOMARKS# = SAVENOMARKS;
      146     7511    1           RETURN;
      147     7512        /**/
      148     7513    1   PMME_ALT:
      149     7514    1           INPUT_ERR = %VPSZ_ERROR#;
      150     7515    1           ALTRETURN;
      151     7516        /**/
      152     7517    1   FSFA_ALT:
      153     7518    1           INPUT_ERR = IFSFA_PARAM.ERR;
      154     7519    1           CALL CLEANUP;
      155     7520    1           ALTRETURN;
      156     7521        /**/
      157     7522    1   CLEANUP: PROC;
PL6.E3A0      #001=VPF$CALL_OPEN File=VPF$SRCLST.:E05TSI                         WED 07/30/97 07:30 Page:6
      158     7523    2           IF IKBUF_PTR$ ~= ADDR(NIL)
      159     7524    2            THEN                           /* Key buffer leftover                */
      160     7525    2              CALL VPD$REL_BUF(IKBUF_PTR$,1024);
      161     7526        /**/
      162     7527    2           IF IBBUF_PTR$ ~= ADDR(NIL)
      163     7528    2            THEN                           /* Data buffer leftover               */
      164     7529    2              CALL VPD$REL_BUF(IBBUF_PTR$,IBBUF_WSIZE);
      165     7530        /**/
      166     7531    2           RETURN;
      167     7532        /**/
      168     7533    2   END CLEANUP;
      169     7534        /**/
      170     7535    1   END VPF$CALL_OPEN;
      171     7536        %EOD;

PL6.E3A0      #001=VPF$CALL_OPEN File=VPF$SRCLST.:E05TSI                         WED 07/30/97 07:30 Page:7
--  Include file information  --

   B_MICROPS_C.:E05TOU  is referenced.
   XU_MACRO_C.:E05TOU  is referenced.
   VP_MACRO_C.:E05TOU  is referenced.
   XS_MACRO_C.:E05TOU  is referenced.
   VP_PERR_C.:E05TOU  is referenced.
   CP_6_SUBS.:E05TOU  is referenced.
   CP_6.:E05TOU  cannot be made into a system file and is referenced.
   VP_DATA_R.:E05TOU  cannot be made into a system file and is referenced.
   B$JIT_C.:E05TOU  was found in the system file and is never referenced.
   CP_6_C.:E05TOU  was found in the system file and is referenced.
      No diagnostics issued in procedure VPF$CALL_OPEN.

   Procedure VPF$CALL_OPEN requires 241 words for executable code.
   Procedure VPF$CALL_OPEN requires 12 words of local(AUTO) storage.

PL6.E3A0      #001=VPF$CALL_OPEN File=VPF$SRCLST.:E05TSI                         WED 07/30/97 07:30 Page:8

 Object Unit name= VPF$CALL_OPEN                              File name= VPF$SRCLST.:E05TOU
 UTS= JUL 30 '97 07:30:17.16 WED                              Compiler= PL-6/E31         Sev=      00
 SharedLib= :SHARED_SYSTEM                                    Alt SharedLib=


    ****  Control sections  ****

 Sect   Type Bound  Init  Size OctSiz  Section name(segment info)
    0   DCB   even  none     0      0  M$UC
    1   DCB   even  none     0      0  M$EI
    2   DCB   even  none     0      0  M$EO
    3   DCB   even  none     0      0  M$EO1
    4   DCB   even  none     0      0  M$ME
    5   DCB   even  none     0      0  M$SI
    6   DCB   even  none     0      0  M$READFILE
    7   DCB   even  none     0      0  M$DO
    8   DCB   even  none     0      0  M$STD1
    9   DCB   even  none     0      0  M$SORT1
   10   Proc  even  none   241    361  VPF$CALL_OPEN
   11  RoData even  none    17     21  VPF$CALL_OPEN

    ****  Entry defs  ****

                              Check   Calling
                             calling  sequence
  Sect OctLoc Primary Altret sequence   type   Parms  Name
    10      0   yes    yes     yes      Std        1  VPF$CALL_OPEN
    10    160          yes     yes      Std        1  VPF$CALL_CLOSE
PL6.E3A0      #001=VPF$CALL_OPEN File=VPF$SRCLST.:E05TSI                         WED 07/30/97 07:30 Page:9

  ****  Entry refs  ****

         Check        Calling
        calling       sequence
Altret sequence SRef   type   Args  Name
 yes     yes           Std       2 VPD$GET_BUF
         yes           Std       8 VPL$ERR_PROC
 yes     yes           Std       2 VPD$REL_BUF
 yes     yes           Std       2 XSA$OPEN
 yes     yes           Std       2 XSA$CLOSE
                       nStd      0 X66_AUTO_1
                       Std       0 B_CONSPOOL_D
                       nStd      0 X66_ARET
                       nStd      0 X66_AALT

  ****  Data refs  ****

  Flags:  r = read only, s = secondary
Flgs Name                             Flgs Name                             Flgs Name
     M$UC                                  INPUT_ERR                             USER_LABELS$
     EOF_SOURCE                            BREAK_LOC                             BREAK_MESSAGE_REPORTER
     CMD_MASK                              SPEC_BUF                              OCB
     IN_RES                                ICB                                   READ_MODE
     IBBUF_PTR$                            IBBUF_WSIZE                           IKBUF_PTR$
     IFSFA_PARAM                           M$EI                                  M$EO
     M$EO1                                 M$ME                                  M$SI
     M$READFILE                            M$DO                                  M$STD1
     M$SORT1                               B$TCB$                                B_VECTNIL

  ****  Segment refs  ****

  Flags:  r = read only, s = secondary
Flgs Name                             Flgs Name                             Flgs Name
     NULLSID                               ISSID
PL6.E3A0      #001=VPF$CALL_OPEN File=VPF$SRCLST.:E05TSI                         WED 07/30/97 07:30 Page:10


        1        1        /*M* VPF$SRCLST This module contains routines for manipulating SOURCELIST     */
        2        2        /*T***********************************************************/
        3        3        /*T*                                                         */
        4        4        /*T* Copyright (c) Bull HN Information Systems Inc., 1997    */
        5        5        /*T*                                                         */
        6        6        /*T***********************************************************/
        7        7        /*X* DTI=1,THI=1  */
        8        8        /* NEXT AVAILABLE ERROR CODE = 80 by 5  */
        9        9        /* ALSO AVAILABLE:  NONE */
       10       10        %EJECT;
PL6.E3A0      #001=VPF$CALL_OPEN File=VPF$SRCLST.:E05TSI                         WED 07/30/97 07:30 Page:11
       11       11        VPF$CALL_OPEN: PROC(FPT_OPEN) ALTRET;

     11 10 000000   000000 700200 xent  VPF$CALL_OP* TSX0  ! X66_AUTO_1
        10 000001   000014 000001                    ZERO    12,1

       12       12        /*D* NAME: VPF$CALL_OPEN
       13       13             CALL: CALL VPF$CALL_OPEN(FPT_OPEN);
       14       14             DESCRIPTION: This procedure will do an OPEN using the passed FPT.
       15       15                          If it is suitable for FSFA, READ_MODE will be set
       16       16                          to 1.  Otherwise it'll be 0.
       17       17        */
       18       18        /**/
       19       19        /*  INCLUDE FILES  */
       20       20        /**/
       21       21        %INCLUDE VP_DATA_R;
       22     7008        /**/
       23     7009        /*  Parameters  */
       24     7010        /**/
       25     7011        %FPT_OPEN(FPTN = FPT_OPEN,
       26     7012                  STCLASS = " ");
       27     7121        /**/
       28     7122        /*  Based Structures  */
       29     7123        /**/
       30     7124        %B$ALT;
       31     7132        %FPT_CLOSE(FPTN = FPT_CLOSE,
       32     7133                   STCLASS = "BASED(CLOSE$)");
       33     7175        %B$TCB;
       34     7178        %VLP_VECTOR(FPTN=B$VECTOR,STCLASS=BASED);
       35     7193    1   DCL B$WORD UBIN BASED;
       36     7194        /**/
       37     7195        /*  Local Storage  */
       38     7196        /**/
       39     7197    1   DCL CLOSE$ PTR;
       40     7198    1   DCL SAVEPOS UBIN;
       41     7199    1   DCL SAVENOMARKS BIT(1);
       42     7200        /**/
       43     7201        /*  Entry Points  */
PL6.E3A0      #001=VPF$CALL_OPEN File=VPF$SRCLST.:E05TSI                         WED 07/30/97 07:30 Page:12
       44     7202        /**/
       45     7203        %VP_ENTRIES (OMIT=VPF$CALL_OPEN);
       46     7411    1   DCL XSA$OPEN ENTRY(2) ALTRET;
       47     7412    1   DCL XSA$CLOSE ENTRY(2) ALTRET;
       48     7413        /**/
       49     7414    2           IF ICB.DEV_MASK.MAN_TAPE THEN DO;

   7414 10 000002   000171 236000 xsym               LDQ     ICB+121
        10 000003   100000 316003                    CANQ    32768,DU
        10 000004   000033 600000 10                 TZE     s:7425

       50     7415    2               IF USER_LABELS$ = ADDR(NIL) THEN

   7415 10 000005   000000 236000 xsym               LDQ     USER_LABELS$
        10 000006   000001 116000 xsym               CMPQ    B_VECTNIL+1
        10 000007   000021 601000 10                 TNZ     s:7420

       51     7416    2                  CALL VPD$GET_BUF(USER_LABELS$,8*1024)

   7416 10 000010   000001 630400 11                 EPPR0   1
        10 000011   000020 631400 xsym               EPPR1   B_VECTNIL+16
        10 000012   000000 701000 xent               TSX1    VPD$GET_BUF
        10 000013   000015 702000 10                 TSX2    s:7418
        10 000014   000021 710000 10                 TRA     s:7420

       52     7417    3                   WHENALTRETURN DO;

       53     7418    3                      CALL VPL$ERR_PROC(3,0);

   7418 10 000015   000003 630400 11                 EPPR0   3
        10 000016   000020 631400 xsym               EPPR1   B_VECTNIL+16
        10 000017   000000 701000 xent               TSX1    VPL$ERR_PROC
        10 000020   000000 011000                    NOP     0

       54     7419    3                      END;

       55     7420    2               ADDR(FPT_OPEN.UHL_)->B$VECTOR.PTR$ = USER_LABELS$;
PL6.E3A0      #001=VPF$CALL_OPEN File=VPF$SRCLST.:E05TSI                         WED 07/30/97 07:30 Page:13

   7420 10 000021   000000 236000 xsym               LDQ     USER_LABELS$
        10 000022   200003 470500                    LDP0    @FPT_OPEN,,AUTO
        10 000023   000005 756100                    STQ     5,,PR0

       56     7421    2               ADDR(FPT_OPEN.UHL_)->B$VECTOR.W1.VSIZE# = 8*1024*4-1;

   7421 10 000024   000004 236100                    LDQ     4,,PR0
        10 000025   177777 376007                    ANQ     65535,DL
        10 000026   000005 276000 11                 ORQ     5
        10 000027   000004 756100                    STQ     4,,PR0

       57     7422    2               USER_LABELS$->B$WORD=0;     /* START OFF WITH NO LABELS           */

   7422 10 000030   000000 471400 xsym               LDP1    USER_LABELS$
        10 000031   100000 450100                    STZ     0,,PR1

       58     7423    2               END;

   7423 10 000032   000041 710000 10                 TRA     s:7427

       59     7424    1            ELSE
       60     7425    1              IF FPT_OPEN.UHL_ ~= VECTOR(NIL) THEN

   7425 10 000033   200003 470500                    LDP0    @FPT_OPEN,,AUTO
        10 000034   000004 237100                    LDAQ    4,,PR0
        10 000035   000006 117000 11                 CMPAQ   6
        10 000036   000041 600000 10                 TZE     s:7427

       61     7426    1                 FPT_OPEN.UHL_  = VECTOR(NIL);

   7426 10 000037   000006 237000 11                 LDAQ    6
        10 000040   000004 757100                    STAQ    4,,PR0

       62     7427    1           IF FPT_OPEN.V.OPER.TEST#        /* TEST OPEN                          */

   7427 10 000041   000044 236100                    LDQ     36,,PR0
PL6.E3A0      #001=VPF$CALL_OPEN File=VPF$SRCLST.:E05TSI                         WED 07/30/97 07:30 Page:14
        10 000042   020000 316007                    CANQ    8192,DL
        10 000043   000150 601000 10                 TNZ     PMME_OPEN
        10 000044   000100 100400                    MLR     fill='000'O
        10 000045   000000 000010 xsym               ADSC9   CMD_MASK                 cn=0,n=8
        10 000046   200012 000010                    ADSC9   SAVENOMARKS+4,,AUTO      cn=0,n=8
        10 000047   200012 237100                    LDAQ    SAVENOMARKS+4,,AUTO
        10 000050   000010 377000 11                 ANAQ    8
        10 000051   000150 600000 10                 TZE     PMME_OPEN
        10 000052   000045 234000 xsym               SZN     ICB+37
        10 000053   000150 604000 10                 TMI     PMME_OPEN
        10 000054   000046 234000 xsym               SZN     ICB+38
        10 000055   000150 604000 10                 TMI     PMME_OPEN
        10 000056   000007 235000 xsym               LDA     ICB+7
        10 000057   000150 601000 10                 TNZ     PMME_OPEN
        10 000060   000000 234000 xsym               SZN     ICB
        10 000061   000150 604000 10                 TMI     PMME_OPEN
        10 000062   000001 234000 xsym               SZN     ICB+1
        10 000063   000150 604000 10                 TMI     PMME_OPEN
        10 000064   000004 234000 xsym               SZN     ICB+4
        10 000065   000150 604000 10                 TMI     PMME_OPEN

       63     7428    1             OR NOT CMD_MASK & '34'O       /* Not COPYs                          */
       64     7429    1             OR ICB.KEY_SEL                /* Record selection by keys           */
       65     7430    1             OR ICB.LREC_SEL               /* Record selection by log. rec. no.  */
       66     7431    1             OR ICB.CRPT ~= 0              /* Decryption                         */
       67     7432    1             OR ICB.EBCDIC                 /* EBCDIC translation                 */
       68     7433    1             OR ICB.BIN                    /* BINARY                             */
       69     7434    1             OR ICB.TRANS                  /* TRANSPARENT                        */
       70     7435    1            THEN                           /* Unsuitable for FSFA routines       */
       71     7436    1              GOTO PMME_OPEN;
       72     7437        /**/
       73     7438    1           CALL VPD$GET_BUF(IKBUF_PTR$,1024) ALTRET(PMME_OPEN);

   7438 10 000066   000013 630400 11                 EPPR0   11
        10 000067   000020 631400 xsym               EPPR1   B_VECTNIL+16
        10 000070   000000 701000 xent               TSX1    VPD$GET_BUF
        10 000071   000150 702000 10                 TSX2    PMME_OPEN
PL6.E3A0      #001=VPF$CALL_OPEN File=VPF$SRCLST.:E05TSI                         WED 07/30/97 07:30 Page:15

       74     7439    1           IFSFA_PARAM.KBUF_.BUF$ = IKBUF_PTR$;

   7439 10 000072   000000 236000 xsym               LDQ     IKBUF_PTR$
        10 000073   000003 756000 xsym               STQ     IFSFA_PARAM+3

       75     7440    1           IFSFA_PARAM.KBUF_.BOUND = 1024 * 4 -1;

   7440 10 000074   000002 236000 xsym               LDQ     IFSFA_PARAM+2
        10 000075   177777 376007                    ANQ     65535,DL
        10 000076   000015 276000 11                 ORQ     13
        10 000077   000002 756000 xsym               STQ     IFSFA_PARAM+2

       76     7441        /**/
       77     7442    1           IBBUF_WSIZE = 1024 * 5;

   7442 10 000100   012000 235007                    LDA     5120,DL
        10 000101   000000 755000 xsym               STA     IBBUF_WSIZE

       78     7443    1           CALL VPD$GET_BUF(IBBUF_PTR$,IBBUF_WSIZE) ALTRET(PMME_OPEN);

   7443 10 000102   000016 630400 11                 EPPR0   14
        10 000103   000020 631400 xsym               EPPR1   B_VECTNIL+16
        10 000104   000000 701000 xent               TSX1    VPD$GET_BUF
        10 000105   000150 702000 10                 TSX2    PMME_OPEN

       79     7444    1           IFSFA_PARAM.BBUF_.BUF$ = IBBUF_PTR$;

   7444 10 000106   000000 236000 xsym               LDQ     IBBUF_PTR$
        10 000107   000005 756000 xsym               STQ     IFSFA_PARAM+5

       80     7445    1           IFSFA_PARAM.BBUF_.BOUND = IBBUF_WSIZE * 4 -1;

   7445 10 000110   000000 236000 xsym               LDQ     IBBUF_WSIZE
        10 000111   000002 736000                    QLS     2
        10 000112   000001 136007                    SBLQ    1,DL
        10 000113   000020 736000                    QLS     16
PL6.E3A0      #001=VPF$CALL_OPEN File=VPF$SRCLST.:E05TSI                         WED 07/30/97 07:30 Page:16
        10 000114   000004 676000 xsym               ERQ     IFSFA_PARAM+4
        10 000115   000034 376000 xsym               ANQ     B_VECTNIL+28
        10 000116   000004 656000 xsym               ERSQ    IFSFA_PARAM+4

       81     7446        /**/
       82     7447    1           CALL XSA$OPEN(FPT_OPEN,IFSFA_PARAM) ALTRET(FSFA_ALT);

   7447 10 000117   000020 236000 11                 LDQ     16
        10 000120   200003 235100                    LDA     @FPT_OPEN,,AUTO
        10 000121   200012 757100                    STAQ    SAVENOMARKS+4,,AUTO
        10 000122   200012 630500                    EPPR0   SAVENOMARKS+4,,AUTO
        10 000123   000020 631400 xsym               EPPR1   B_VECTNIL+16
        10 000124   000000 701000 xent               TSX1    XSA$OPEN
        10 000125   000333 702000 10                 TSX2    FSFA_ALT

       83     7448        /**/
       84     7449    1           IF IFSFA_PARAM.ORG = 0

   7449 10 000126   000014 236000 xsym               LDQ     IFSFA_PARAM+12
        10 000127   000777 316003                    CANQ    511,DU
        10 000130   000135 601000 10                 TNZ     s:7457

       85     7450    1            THEN                           /* Unsuitable for FSFA                */
       86     7451    2            DO;

       87     7452    2               READ_MODE = 0;

   7452 10 000131   000000 450000 xsym               STZ     READ_MODE

       88     7453    2               CALL CLEANUP;

   7453 10 000132   000340 701000 10                 TSX1    CLEANUP
        10 000133   000000 011000                    NOP     0

       89     7454    2               END;

   7454 10 000134   000147 710000 10                 TRA     s:7462
PL6.E3A0      #001=VPF$CALL_OPEN File=VPF$SRCLST.:E05TSI                         WED 07/30/97 07:30 Page:17

       90     7455    1            ELSE                           /* FSFA must be used                  */
       91     7456    2            DO;

       92     7457    2               READ_MODE = 1;

   7457 10 000135   000001 235007                    LDA     1,DL
        10 000136   000000 755000 xsym               STA     READ_MODE

       93     7458    2               IF IFSFA_PARAM.ORG = %CONSEC#

   7458 10 000137   000014 236000 xsym               LDQ     IFSFA_PARAM+12
        10 000140   000777 376003                    ANQ     511,DU
        10 000141   000001 116003                    CMPQ    1,DU
        10 000142   000147 601000 10                 TNZ     s:7462

       94     7459    2                THEN                       /* KBUF not needed                    */
       95     7460    2                  CALL VPD$REL_BUF(IKBUF_PTR$,1024); /* Release it               */

   7460 10 000143   000013 630400 11                 EPPR0   11
        10 000144   000020 631400 xsym               EPPR1   B_VECTNIL+16
        10 000145   000000 701000 xent               TSX1    VPD$REL_BUF
        10 000146   000000 011000                    NOP     0

       96     7461    2               END;

       97     7462    1           RETURN;

   7462 10 000147   000000 702200 xent               TSX2  ! X66_ARET

       98     7463        /**/
       99     7464    1   PMME_OPEN:
      100     7465    1           CALL CLEANUP;                   /* Cleanup after FSFA attempt         */

   7465 10 000150   000340 701000 10    PMME_OPEN    TSX1    CLEANUP
        10 000151   000000 011000                    NOP     0

PL6.E3A0      #001=VPF$CALL_OPEN File=VPF$SRCLST.:E05TSI                         WED 07/30/97 07:30 Page:18
      101     7466    1           CALL M$OPEN (FPT_OPEN) ALTRET(PMME_ALT);

   7466 10 000152   200003 470500                    LDP0    @FPT_OPEN,,AUTO
        10 000153   450000 713400                    CLIMB   alt,open
        10 000154   410400 401760                    pmme    nvectors=18
        10 000155   000326 702000 10                 TSX2    PMME_ALT

      102     7467    1           READ_MODE = 0;

   7467 10 000156   000000 450000 xsym               STZ     READ_MODE

      103     7468    1           RETURN;

   7468 10 000157   000000 702200 xent               TSX2  ! X66_ARET

      104     7469        /**/
      105     7470    1   VPF$CALL_CLOSE: ENTRY(FPT_OPEN) ALTRET;

   7470 10 000160   000000 700200 xent  VPF$CALL_CL* TSX0  ! X66_AUTO_1
        10 000161   000014 000001                    ZERO    12,1

      106     7471    1           CLOSE$ = ADDR(FPT_OPEN);        /* PL-6 KLUDGE                        */

   7471 10 000162   200003 236100                    LDQ     @FPT_OPEN,,AUTO
        10 000163   200004 756100                    STQ     CLOSE$,,AUTO

      107     7472    1           SAVEPOS=FPT_CLOSE.V.POS#;

   7472 10 000164   200004 470500                    LDP0    CLOSE$,,AUTO
        10 000165   000034 236100                    LDQ     28,,PR0
        10 000166   000033 772000                    QRL     27
        10 000167   200005 756100                    STQ     SAVEPOS,,AUTO

      108     7473    1           SAVENOMARKS=FPT_CLOSE.V.NOMARKS#;

   7473 10 000170   000034 236100                    LDQ     28,,PR0
        10 000171   000013 736000                    QLS     11
PL6.E3A0      #001=VPF$CALL_OPEN File=VPF$SRCLST.:E05TSI                         WED 07/30/97 07:30 Page:19
        10 000172   400000 376003                    ANQ     -131072,DU
        10 000173   200006 756100                    STQ     SAVENOMARKS,,AUTO

      109     7474    2           IF ICB.DEV_MASK.MAN_TAPE AND OCB.DEV_MASK.LT THEN DO;
              7474                    /* There might be UTLs */

   7474 10 000174   000171 236000 xsym               LDQ     ICB+121
        10 000175   100000 316003                    CANQ    32768,DU
        10 000176   000230 600000 10                 TZE     s:7485
        10 000177   000255 236000 xsym               LDQ     OCB+173
        10 000200   002000 316003                    CANQ    1024,DU
        10 000201   000230 600000 10                 TZE     s:7485

      110     7475    2               IF USER_LABELS$=ADDR(NIL) THEN

   7475 10 000202   000000 236000 xsym               LDQ     USER_LABELS$
        10 000203   000001 116000 xsym               CMPQ    B_VECTNIL+1
        10 000204   000216 601000 10                 TNZ     s:7480

      111     7476    2                  CALL VPD$GET_BUF(USER_LABELS$,8*1024)

   7476 10 000205   000001 630400 11                 EPPR0   1
        10 000206   000020 631400 xsym               EPPR1   B_VECTNIL+16
        10 000207   000000 701000 xent               TSX1    VPD$GET_BUF
        10 000210   000212 702000 10                 TSX2    s:7478
        10 000211   000216 710000 10                 TRA     s:7480

      112     7477    3                   WHENALTRETURN DO;

      113     7478    3                      CALL VPL$ERR_PROC(3,0);

   7478 10 000212   000003 630400 11                 EPPR0   3
        10 000213   000020 631400 xsym               EPPR1   B_VECTNIL+16
        10 000214   000000 701000 xent               TSX1    VPL$ERR_PROC
        10 000215   000000 011000                    NOP     0

      114     7479    3                      END;
PL6.E3A0      #001=VPF$CALL_OPEN File=VPF$SRCLST.:E05TSI                         WED 07/30/97 07:30 Page:20

      115     7480    2               ADDR(FPT_CLOSE.UTL_)->B$VECTOR.PTR$ = USER_LABELS$;

   7480 10 000216   000000 236000 xsym               LDQ     USER_LABELS$
        10 000217   200004 470500                    LDP0    CLOSE$,,AUTO
        10 000220   000005 756100                    STQ     5,,PR0

      116     7481    2               ADDR(FPT_CLOSE.UTL_)->B$VECTOR.W1.VSIZE#=8*1024*4-1;

   7481 10 000221   000004 236100                    LDQ     4,,PR0
        10 000222   177777 376007                    ANQ     65535,DL
        10 000223   000005 276000 11                 ORQ     5
        10 000224   000004 756100                    STQ     4,,PR0

      117     7482    2               USER_LABELS$->B$WORD=0;     /* START OFF WITH NO LABELS           */

   7482 10 000225   000000 471400 xsym               LDP1    USER_LABELS$
        10 000226   100000 450100                    STZ     0,,PR1

      118     7483    2               END;

   7483 10 000227   000232 710000 10                 TRA     s:7486

      119     7484    1            ELSE
      120     7485    1              FPT_CLOSE.UTL_=VECTOR(NIL);

   7485 10 000230   000006 237000 11                 LDAQ    6
        10 000231   000004 757100                    STAQ    4,,PR0

      121     7486    2           DO CASE(ICB.CLPOS);             /* Tape positioning                   */

   7486 10 000232   000233 235000 xsym               LDA     ICB+155
        10 000233   000005 115007                    CMPA    5,DL
        10 000234   000236 602005 10                 TNC     s:7486+4,AL
        10 000235   000263 710000 10                 TRA     s:7499
        10 000236   000243 710000 10                 TRA     s:7488
        10 000237   000250 710000 10                 TRA     EOFPOS
PL6.E3A0      #001=VPF$CALL_OPEN File=VPF$SRCLST.:E05TSI                         WED 07/30/97 07:30 Page:21
        10 000240   000253 710000 10                 TRA     s:7493
        10 000241   000256 710000 10                 TRA     s:7495
        10 000242   000261 710000 10                 TRA     s:7497

      122     7487    2            CASE(0);                       /* Default                            */

      123     7488    2              IF EOF_SOURCE THEN GOTO EOFPOS;

   7488 10 000243   000000 234000 xsym               SZN     EOF_SOURCE
        10 000244   000250 604000 10                 TMI     EOFPOS

      124     7489    2              FPT_CLOSE.V.NOMARKS# = '1'B;

   7489 10 000245   000100 236003                    LDQ     64,DU
        10 000246   000034 256100                    ORSQ    28,,PR0
        10 000247   000263 710000 10                 TRA     s:7499

      125     7490    2            CASE(1);                       /* EOF                                */

      126     7491    2   EOFPOS:    FPT_CLOSE.V.POS# = 0;

   7491 10 000250   000000 236003       EOFPOS       LDQ     0,DU
        10 000251   000034 552140                    STBQ    28,'40'O,PR0
        10 000252   000263 710000 10                 TRA     s:7499

      127     7492    2            CASE(2);                       /* BOF                                */

      128     7493    2              FPT_CLOSE.V.POS# = %PTL#;

   7493 10 000253   001000 236003                    LDQ     512,DU
        10 000254   000034 552140                    STBQ    28,'40'O,PR0
        10 000255   000263 710000 10                 TRA     s:7499

      129     7494    2            CASE(3);                       /* BOT                                */

      130     7495    2              FPT_CLOSE.V.POS# = %PTV#;

PL6.E3A0      #001=VPF$CALL_OPEN File=VPF$SRCLST.:E05TSI                         WED 07/30/97 07:30 Page:22
   7495 10 000256   004000 236003                    LDQ     2048,DU
        10 000257   000034 552140                    STBQ    28,'40'O,PR0
        10 000260   000263 710000 10                 TRA     s:7499

      131     7496    2            CASE(4);                       /* NONE                               */

      132     7497    2              FPT_CLOSE.V.NOMARKS# = '1'B;

   7497 10 000261   000100 236003                    LDQ     64,DU
        10 000262   000034 256100                    ORSQ    28,,PR0

      133     7498    2            END;

      134     7499    1           IF NOT CMD_MASK & '34'O         /* Not COPYs                          */

   7499 10 000263   000100 100400                    MLR     fill='000'O
        10 000264   000000 000010 xsym               ADSC9   CMD_MASK                 cn=0,n=8
        10 000265   200012 000010                    ADSC9   SAVENOMARKS+4,,AUTO      cn=0,n=8
        10 000266   200012 237100                    LDAQ    SAVENOMARKS+4,,AUTO
        10 000267   000010 377000 11                 ANAQ    8
        10 000270   000277 600000 10                 TZE     PMME_CLOSE

      135     7500    1            THEN                           /* Don't trust READ_MODE              */
      136     7501    1              GOTO PMME_CLOSE;
      137     7502    2           DO CASE(READ_MODE);

   7502 10 000271   000000 235000 xsym               LDA     READ_MODE
        10 000272   000002 115007                    CMPA    2,DL
        10 000273   000275 602005 10                 TNC     s:7502+4,AL
        10 000274   000314 710000 10                 TRA     s:7509
        10 000275   000277 710000 10                 TRA     PMME_CLOSE
        10 000276   000303 710000 10                 TRA     s:7506

      138     7503    2            CASE(0);                       /* Normal PMME                        */

      139     7504    2   PMME_CLOSE: CALL M$CLOSE(FPT_CLOSE) ALTRET(PMME_ALT);

PL6.E3A0      #001=VPF$CALL_OPEN File=VPF$SRCLST.:E05TSI                         WED 07/30/97 07:30 Page:23
   7504 10 000277   450001 713400       PMME_CLOSE   CLIMB   alt,close
        10 000300   406000 401760                    pmme    nvectors=13
        10 000301   000326 702000 10                 TSX2    PMME_ALT
        10 000302   000314 710000 10                 TRA     s:7509

      140     7505    2            CASE(1);                       /* FSFA routines                      */

      141     7506    2              CALL XSA$CLOSE(FPT_CLOSE,IFSFA_PARAM) ALTRET(FSFA_ALT);

   7506 10 000303   000020 236000 11                 LDQ     16
        10 000304   200004 235100                    LDA     CLOSE$,,AUTO
        10 000305   200012 757100                    STAQ    SAVENOMARKS+4,,AUTO
        10 000306   200012 630500                    EPPR0   SAVENOMARKS+4,,AUTO
        10 000307   000020 631400 xsym               EPPR1   B_VECTNIL+16
        10 000310   000000 701000 xent               TSX1    XSA$CLOSE
        10 000311   000333 702000 10                 TSX2    FSFA_ALT

      142     7507    2              CALL CLEANUP;

   7507 10 000312   000340 701000 10                 TSX1    CLEANUP
        10 000313   000000 011000                    NOP     0

      143     7508    2            END;                           /* END CASE                           */

      144     7509    1           FPT_CLOSE.V.POS# = SAVEPOS;/* So closes external to this routine work */

   7509 10 000314   200004 470500                    LDP0    CLOSE$,,AUTO
        10 000315   200005 236100                    LDQ     SAVEPOS,,AUTO
        10 000316   000033 736000                    QLS     27
        10 000317   000034 552140                    STBQ    28,'40'O,PR0

      145     7510    1           FPT_CLOSE.V.NOMARKS# = SAVENOMARKS;

   7510 10 000320   200006 236100                    LDQ     SAVENOMARKS,,AUTO
        10 000321   000013 772000                    QRL     11
        10 000322   000034 676100                    ERQ     28,,PR0
        10 000323   000100 376003                    ANQ     64,DU
PL6.E3A0      #001=VPF$CALL_OPEN File=VPF$SRCLST.:E05TSI                         WED 07/30/97 07:30 Page:24
        10 000324   000034 656100                    ERSQ    28,,PR0

      146     7511    1           RETURN;

   7511 10 000325   000000 702200 xent               TSX2  ! X66_ARET

      147     7512        /**/
      148     7513    1   PMME_ALT:
      149     7514    1           INPUT_ERR = %VPSZ_ERROR#;

   7514 10 000326   000000 470400 xsym  PMME_ALT     LDP0    B$TCB$
        10 000327   000000 471500                    LDP1    0,,PR0
        10 000330   100102 236100                    LDQ     66,,PR1
        10 000331   000000 756000 xsym               STQ     INPUT_ERR

      150     7515    1           ALTRETURN;

   7515 10 000332   000000 702200 xent               TSX2  ! X66_AALT

      151     7516        /**/
      152     7517    1   FSFA_ALT:
      153     7518    1           INPUT_ERR = IFSFA_PARAM.ERR;

   7518 10 000333   000001 236000 xsym  FSFA_ALT     LDQ     IFSFA_PARAM+1
        10 000334   000000 756000 xsym               STQ     INPUT_ERR

      154     7519    1           CALL CLEANUP;

   7519 10 000335   000340 701000 10                 TSX1    CLEANUP
        10 000336   000000 011000                    NOP     0

      155     7520    1           ALTRETURN;

   7520 10 000337   000000 702200 xent               TSX2  ! X66_AALT

      156     7521        /**/
      157     7522    1   CLEANUP: PROC;
PL6.E3A0      #001=VPF$CALL_OPEN File=VPF$SRCLST.:E05TSI                         WED 07/30/97 07:30 Page:25

   7522 10 000340   200010 741300       CLEANUP      STX1  ! SAVENOMARKS+2,,AUTO

      158     7523    2           IF IKBUF_PTR$ ~= ADDR(NIL)

   7523 10 000341   000000 236000 xsym               LDQ     IKBUF_PTR$
        10 000342   000001 116000 xsym               CMPQ    B_VECTNIL+1
        10 000343   000350 600000 10                 TZE     s:7527

      159     7524    2            THEN                           /* Key buffer leftover                */
      160     7525    2              CALL VPD$REL_BUF(IKBUF_PTR$,1024);

   7525 10 000344   000013 630400 11                 EPPR0   11
        10 000345   000020 631400 xsym               EPPR1   B_VECTNIL+16
        10 000346   000000 701000 xent               TSX1    VPD$REL_BUF
        10 000347   000000 011000                    NOP     0

      161     7526        /**/
      162     7527    2           IF IBBUF_PTR$ ~= ADDR(NIL)

   7527 10 000350   000000 236000 xsym               LDQ     IBBUF_PTR$
        10 000351   000001 116000 xsym               CMPQ    B_VECTNIL+1
        10 000352   000357 600000 10                 TZE     s:7531

      163     7528    2            THEN                           /* Data buffer leftover               */
      164     7529    2              CALL VPD$REL_BUF(IBBUF_PTR$,IBBUF_WSIZE);

   7529 10 000353   000016 630400 11                 EPPR0   14
        10 000354   000020 631400 xsym               EPPR1   B_VECTNIL+16
        10 000355   000000 701000 xent               TSX1    VPD$REL_BUF
        10 000356   000000 011000                    NOP     0

      165     7530        /**/
      166     7531    2           RETURN;

   7531 10 000357   200010 221300                    LDX1  ! SAVENOMARKS+2,,AUTO
        10 000360   000001 702211                    TSX2  ! 1,X1
PL6.E3A0      #001=VPF$CALL_OPEN File=VPF$SRCLST.:E05TSI                         WED 07/30/97 07:30 Page:26
      167     7532        /**/
      168     7533    2   END CLEANUP;
      169     7534        /**/
      170     7535    1   END VPF$CALL_OPEN;
      171     7536        %EOD;

PL6.E3A0      #001=VPF$CALL_OPEN File=VPF$SRCLST.:E05TSI                         WED 07/30/97 07:30 Page:27
--  Include file information  --

   B_MICROPS_C.:E05TOU  is referenced.
   XU_MACRO_C.:E05TOU  is referenced.
   VP_MACRO_C.:E05TOU  is referenced.
   XS_MACRO_C.:E05TOU  is referenced.
   VP_PERR_C.:E05TOU  is referenced.
   CP_6_SUBS.:E05TOU  is referenced.
   CP_6.:E05TOU  cannot be made into a system file and is referenced.
   VP_DATA_R.:E05TOU  cannot be made into a system file and is referenced.
   B$JIT_C.:E05TOU  was found in the system file and is never referenced.
   CP_6_C.:E05TOU  was found in the system file and is referenced.
      No diagnostics issued in procedure VPF$CALL_OPEN.
PL6.E3A0      #001=VPF$CALL_OPEN File=VPF$SRCLST.:E05TSI                         WED 07/30/97 07:30 Page:28

 **** Variables and constants ****

  ****  Auto variables  ****

  ****  Scalars and arrays  ****
OctLoc.c.b A Datatyp(siz) R M Lvl/name                 OctLoc.c.b A Datatyp(siz) R M Lvl/name

     3-0-0/w PTR         r     1 @FPT_OPEN                  4-0-0/w PTR         r     1 CLOSE$
    *0-0-0/d STRC(2088)  r     1 FPT_OPEN                   6-0-0/b BIT         r     1 SAVENOMARKS
     5-0-0/w UBIN        r     1 SAVEPOS

  ****  SYMREF variables  ****

  ****  Scalars and arrays  ****
OctLoc.c.b A Datatyp(siz) R M Lvl/name                 OctLoc.c.b A Datatyp(siz) R M Lvl/name

     0-0-0/w PTR         r     1 B$TCB$
     0-0-0/w EPTR        r     1 BREAK_MESSAGE_REPORTER
     0-0-0/b BIT         r     1 CMD_MASK(0:71)
     0-0-0/w BIT         r     1 EOF_SOURCE                 0-0-0/w PTR         r     1 IBBUF_PTR$
     0-0-0/w SBIN        r     1 IBBUF_WSIZE                0-0-0/d STRC(5868)  r     1 ICB
     0-0-0/d STRC(504)   r     1 IFSFA_PARAM                0-0-0/w PTR         r     1 IKBUF_PTR$
     0-0-0/w STRC        r     1 INPUT_ERR                  0-0-0/d STRC(6840)  r     1 OCB
     0-0-0/w SBIN        r     1 READ_MODE                  0-0-0/w PTR         r     1 USER_LABELS$

  ****  BASED and DCB variables  ****

  ****  Scalars and arrays  ****
OctLoc.c.b A Datatyp(siz) R M Lvl/name                 OctLoc.c.b A Datatyp(siz) R M Lvl/name

     0-0-0/w STRC(2448)  r     1 B$ALT                      0-0-0/w STRC(144)   r     1 B$TCB
     0-0-0/d STRC(72)    r     1 B$VECTOR                   0-0-0/w UBIN        r     1 B$WORD
     0-0-0/d STRC(1080)  r     1 FPT_CLOSE


   Procedure VPF$CALL_OPEN requires 241 words for executable code.
PL6.E3A0      #001=VPF$CALL_OPEN File=VPF$SRCLST.:E05TSI                         WED 07/30/97 07:30 Page:29
   Procedure VPF$CALL_OPEN requires 12 words of local(AUTO) storage.
PL6.E3A0      #001=VPF$CALL_OPEN File=VPF$SRCLST.:E05TSI                         WED 07/30/97 07:30 Page:30
          *** CROSS REFERENCE LISTING ***
**     DENOTES     IDENTIFIER DEFINITION
<<                 IDENTIFIER'S VALUE SET
>>                 IDENTIFIER'S VALUE USED
<>                 IDENTIFIER SET AND/OR USED
--                 IDENTIFIER REFERENCED
PL6.E3A0      #001=VPF$CALL_OPEN File=VPF$SRCLST.:E05TSI                         WED 07/30/97 07:30 Page:31
          MINI XREF LISTING

B$ALT.CODE
      7126**DCL      7126--REDEF    7127--REDEF    7127--REDEF
B$ALT.ERR
      7127**DCL      7514>>ASSIGN
B$ALT.ERR.ERR#
      7128**DCL      7128--REDEF
B$ALT.EVID
      7127**DCL      7127--REDEF    7127--REDEF
B$TCB.ALT$
      7176**DCL      7514>>ASSIGN
B$TCB$
      5993**DCL      7514>>ASSIGN
B$VECTOR.PTR$
      7191**DCL      7420<<ASSIGN   7480<<ASSIGN
B$VECTOR.W1.VSIZE#
      7189**DCL      7421<<ASSIGN   7481<<ASSIGN
B$VECTOR.W2
      7190**DCL      7191--REDEF
B$WORD
      7193**DCL      7422<<ASSIGN   7482<<ASSIGN
BREAK_LOC
      5228**DCL      5228--REDEF
CLEANUP
      7522**PROC     7453--CALL     7465--CALL     7507--CALL     7519--CALL
CLOSE$
      7197**DCL      7156--IMP-PTR  7471<<ASSIGN   7472>>ASSIGN   7473>>ASSIGN   7480>>ASSIGN   7481>>ASSIGN
      7485>>ASSIGN   7489>>ASSIGN   7491>>ASSIGN   7493>>ASSIGN   7495>>ASSIGN   7497>>ASSIGN   7504>>CALL
      7506>>CALL     7509>>ASSIGN   7510>>ASSIGN
CMD_MASK
      5230**DCL      7427>>IF       7499>>IF
DEF_ICB.FID.STRING
      5826**DCL      5827--REDEF
PL6.E3A0      #001=VPF$CALL_OPEN File=VPF$SRCLST.:E05TSI                         WED 07/30/97 07:30 Page:32
DEV_ICB.FID.STRING
      5712**DCL      5713--REDEF
EI_KEY.KEY
      5924**DCL      5924--REDEF    5924--REDEF    5924--REDEF
EOFPOS
      7491**LABEL    7488--GOTO
EOF_SOURCE
      5225**DCL      7488>>IF
EO_OCB.TYPE
      5424**DCL      5425--REDEF
FPT_CLOSE
      7156**DCL      7504<>CALL     7506<>CALL
FPT_CLOSE.SN_
      7156**DCL      7156--REDEF
FPT_CLOSE.UTL_
      7157**DCL      7157--REDEF    7480--ASSIGN   7481--ASSIGN   7485<<ASSIGN
FPT_CLOSE.V.EXPIRE#
      7171**DCL      7171--REDEF
FPT_CLOSE.V.NOMARKS#
      7170**DCL      7473>>ASSIGN   7489<<ASSIGN   7497<<ASSIGN   7510<<ASSIGN
FPT_CLOSE.V.POS#
      7169**DCL      7472>>ASSIGN   7491<<ASSIGN   7493<<ASSIGN   7495<<ASSIGN   7509<<ASSIGN
FPT_CLOSE.V.TYPE#
      7169**DCL      7169--REDEF
FPT_CLOSE.V.XTNSIZE#
      7166**DCL      7166--REDEF    7168--REDEF
FPT_CLOSE_EI.SN_
      6765**DCL      6765--REDEF
FPT_CLOSE_EI.UTL_
      6766**DCL      6766--REDEF
FPT_CLOSE_EI.V.EXPIRE#
      6780**DCL      6780--REDEF
FPT_CLOSE_EI.V.TYPE#
      6778**DCL      6778--REDEF
FPT_CLOSE_EI.V.XTNSIZE#
      6775**DCL      6775--REDEF    6777--REDEF
PL6.E3A0      #001=VPF$CALL_OPEN File=VPF$SRCLST.:E05TSI                         WED 07/30/97 07:30 Page:33
FPT_CLOSE_PTL.SN_
      6891**DCL      6891--REDEF
FPT_CLOSE_PTL.UTL_
      6892**DCL      6892--REDEF
FPT_CLOSE_PTL.V.EXPIRE#
      6906**DCL      6906--REDEF
FPT_CLOSE_PTL.V.TYPE#
      6904**DCL      6904--REDEF
FPT_CLOSE_PTL.V.XTNSIZE#
      6901**DCL      6901--REDEF    6903--REDEF
FPT_CLOSE_READ.SN_
      6807**DCL      6807--REDEF
FPT_CLOSE_READ.UTL_
      6808**DCL      6808--REDEF
FPT_CLOSE_READ.V.EXPIRE#
      6822**DCL      6822--REDEF
FPT_CLOSE_READ.V.TYPE#
      6820**DCL      6820--REDEF
FPT_CLOSE_READ.V.XTNSIZE#
      6817**DCL      6817--REDEF    6819--REDEF
FPT_CLOSE_SI.SN_
      6975**DCL      6975--REDEF
FPT_CLOSE_SI.UTL_
      6976**DCL      6976--REDEF
FPT_CLOSE_SI.V.EXPIRE#
      6990**DCL      6990--REDEF
FPT_CLOSE_SI.V.TYPE#
      6988**DCL      6988--REDEF
FPT_CLOSE_SI.V.XTNSIZE#
      6985**DCL      6985--REDEF    6987--REDEF
FPT_CLOSE_STD.SN_
      6933**DCL      6933--REDEF
FPT_CLOSE_STD.UTL_
      6934**DCL      6934--REDEF
FPT_CLOSE_STD.V.EXPIRE#
      6948**DCL      6948--REDEF
PL6.E3A0      #001=VPF$CALL_OPEN File=VPF$SRCLST.:E05TSI                         WED 07/30/97 07:30 Page:34
FPT_CLOSE_STD.V.TYPE#
      6946**DCL      6946--REDEF
FPT_CLOSE_STD.V.XTNSIZE#
      6943**DCL      6943--REDEF    6945--REDEF
FPT_CLSEI_FT.SN_
      6849**DCL      6849--REDEF
FPT_CLSEI_FT.UTL_
      6850**DCL      6850--REDEF
FPT_CLSEI_FT.V.EXPIRE#
      6864**DCL      6864--REDEF
FPT_CLSEI_FT.V.TYPE#
      6862**DCL      6862--REDEF
FPT_CLSEI_FT.V.XTNSIZE#
      6859**DCL      6859--REDEF    6861--REDEF
FPT_OPEN
      7077**DCL        11--PROC     7447<>CALL     7466<>CALL     7470--ENTRY    7471--ASSIGN
FPT_OPEN.ACSVEH_
      7079**DCL      7080--REDEF
FPT_OPEN.ALTKEYS_
      7085**DCL      7086--REDEF    7086--REDEF
FPT_OPEN.HDR_
      7084**DCL      7085--REDEF
FPT_OPEN.TAB_
      7083**DCL      7084--REDEF
FPT_OPEN.UHL_
      7077**DCL      7078--REDEF    7078--REDEF    7420--ASSIGN   7421--ASSIGN   7425>>IF       7426<<ASSIGN
FPT_OPEN.V.FSN#
      7117**DCL      7117--REDEF    7117--REDEF
FPT_OPEN.V.OPER.TEST#
      7088**DCL      7427>>IF
FPT_OPEN.WSN_
      7083**DCL      7083--REDEF
FPT_OPEN_EI.ACSVEH_
      6420**DCL      6421--REDEF
FPT_OPEN_EI.ALTKEYS_
      6426**DCL      6427--REDEF    6427--REDEF
PL6.E3A0      #001=VPF$CALL_OPEN File=VPF$SRCLST.:E05TSI                         WED 07/30/97 07:30 Page:35
FPT_OPEN_EI.HDR_
      6425**DCL      6426--REDEF
FPT_OPEN_EI.TAB_
      6424**DCL      6425--REDEF
FPT_OPEN_EI.UHL_
      6418**DCL      6419--REDEF    6419--REDEF
FPT_OPEN_EI.V.FSN#
      6458**DCL      6458--REDEF    6458--REDEF
FPT_OPEN_EI.WSN_
      6424**DCL      6424--REDEF
FPT_OPEN_EI_SAVE.ACSVEH_
      6529**DCL      6530--REDEF
FPT_OPEN_EI_SAVE.ALTKEYS_
      6535**DCL      6536--REDEF    6536--REDEF
FPT_OPEN_EI_SAVE.HDR_
      6534**DCL      6535--REDEF
FPT_OPEN_EI_SAVE.TAB_
      6533**DCL      6534--REDEF
FPT_OPEN_EI_SAVE.UHL_
      6527**DCL      6528--REDEF    6528--REDEF
FPT_OPEN_EI_SAVE.V.FSN#
      6567**DCL      6567--REDEF    6567--REDEF
FPT_OPEN_EI_SAVE.WSN_
      6533**DCL      6533--REDEF
FPT_OPEN_OUT.ACSVEH_
      6311**DCL      6312--REDEF
FPT_OPEN_OUT.ALTKEYS_
      6317**DCL      6318--REDEF    6318--REDEF
FPT_OPEN_OUT.HDR_
      6316**DCL      6317--REDEF
FPT_OPEN_OUT.TAB_
      6315**DCL      6316--REDEF
FPT_OPEN_OUT.UHL_
      6309**DCL      6310--REDEF    6310--REDEF
FPT_OPEN_OUT.V.FSN#
      6349**DCL      6349--REDEF    6349--REDEF
PL6.E3A0      #001=VPF$CALL_OPEN File=VPF$SRCLST.:E05TSI                         WED 07/30/97 07:30 Page:36
FPT_OPEN_OUT.WSN_
      6315**DCL      6315--REDEF
FPT_OPEN_OUT_SAVE.ACSVEH_
      6202**DCL      6203--REDEF
FPT_OPEN_OUT_SAVE.ALTKEYS_
      6208**DCL      6209--REDEF    6209--REDEF
FPT_OPEN_OUT_SAVE.HDR_
      6207**DCL      6208--REDEF
FPT_OPEN_OUT_SAVE.TAB_
      6206**DCL      6207--REDEF
FPT_OPEN_OUT_SAVE.UHL_
      6200**DCL      6201--REDEF    6201--REDEF
FPT_OPEN_OUT_SAVE.V.FSN#
      6240**DCL      6240--REDEF    6240--REDEF
FPT_OPEN_OUT_SAVE.WSN_
      6206**DCL      6206--REDEF
FPT_READ_STD.STATION_
      6630**DCL      6631--REDEF
FPT_READ_STD.V.DVBYTE.REREAD#
      6642**DCL      6642--REDEF
FPT_READ_STD.V.INDX#
      6640**DCL      6640--REDEF
FPT_READ_UC.STATION_
      6591**DCL      6592--REDEF
FPT_READ_UC.V.DVBYTE.REREAD#
      6603**DCL      6603--REDEF
FPT_READ_UC.V.INDX#
      6601**DCL      6601--REDEF
FPT_WRITE_ME.STATION_
      6699**DCL      6699--REDEF
FPT_WRITE_ME.V.DVBYTE.VFC#
      6706**DCL      6706--REDEF
FPT_WRITE_OUT.STATION_
      6730**DCL      6730--REDEF
FPT_WRITE_OUT.V.DVBYTE.VFC#
      6737**DCL      6737--REDEF
PL6.E3A0      #001=VPF$CALL_OPEN File=VPF$SRCLST.:E05TSI                         WED 07/30/97 07:30 Page:37
FPT_WRITE_UC.STATION_
      6668**DCL      6668--REDEF
FPT_WRITE_UC.V.DVBYTE.VFC#
      6675**DCL      6675--REDEF
FROM_SN.SN
      5574**DCL      5575--REDEF
FSFA_ALT
      7518**LABEL    7447--CALLALT  7506--CALLALT
GETCMD.OUT$
      4781**DCL      4787--REDEF
IBBUF_PTR$
      5927**DCL      7443<>CALL     7444>>ASSIGN   7527>>IF       7529<>CALL
IBBUF_WSIZE
      5927**DCL      7442<<ASSIGN   7443<>CALL     7445>>ASSIGN   7529<>CALL
ICB.BIN
      5581**DCL      7427>>IF
ICB.CLPOS
      5681**DCL      7486>>DOCASE
ICB.CRPT
      5587**DCL      7427>>IF
ICB.DEV_MASK.MAN_TAPE
      5651**DCL      7414>>IF       7474>>IF
ICB.EBCDIC
      5580**DCL      7427>>IF
ICB.FID.STRING
      5598**DCL      5599--REDEF
ICB.KEY_SEL
      5603**DCL      7427>>IF
ICB.LREC_SEL
      5604**DCL      7427>>IF
ICB.TRANS
      5584**DCL      7427>>IF
IFSFA_PARAM
      5937**DCL      7447<>CALL     7506<>CALL
IFSFA_PARAM.BBUF_.BOUND
      5945**DCL      7445<<ASSIGN
PL6.E3A0      #001=VPF$CALL_OPEN File=VPF$SRCLST.:E05TSI                         WED 07/30/97 07:30 Page:38
IFSFA_PARAM.BBUF_.BUF$
      5946**DCL      7444<<ASSIGN
IFSFA_PARAM.EOMCHAR#
      5953**DCL      5954--REDEF
IFSFA_PARAM.ERR
      5941**DCL      7518>>ASSIGN
IFSFA_PARAM.KBUF_.BOUND
      5943**DCL      7440<<ASSIGN
IFSFA_PARAM.KBUF_.BUF$
      5944**DCL      7439<<ASSIGN
IFSFA_PARAM.ORG
      5952**DCL      7449>>IF       7458>>IF
IFSFA_PARAM.SIG1
      5947**DCL      5947--REDEF
IFSFA_PARAM.SIG2
      5947**DCL      5948--REDEF
IKBUF_PTR$
      5928**DCL      7438<>CALL     7439>>ASSIGN   7460<>CALL     7523>>IF       7525<>CALL
INPUT_ERR
      5113**DCL      7514<<ASSIGN   7518<<ASSIGN
IN_RES
      5520**DCL      5520--REDEF
IN_SN.SN
      5536**DCL      5537--REDEF
M$CLOSE
        38**DCL-ENT  7504--CALL
M$OPEN
        38**DCL-ENT  7466--CALL
OCB.DEV_MASK.LT
      5323**DCL      7474>>IF
OCB.TYPE
      5282**DCL      5283--REDEF
OFSFA_PARAM.EOMCHAR#
      5983**DCL      5984--REDEF
OFSFA_PARAM.SIG1
      5977**DCL      5977--REDEF
PL6.E3A0      #001=VPF$CALL_OPEN File=VPF$SRCLST.:E05TSI                         WED 07/30/97 07:30 Page:39
OFSFA_PARAM.SIG2
      5977**DCL      5978--REDEF
OUT_SN.SN
      5554**DCL      5555--REDEF
PMME_ALT
      7514**LABEL    7466--CALLALT  7504--CALLALT
PMME_CLOSE
      7504**LABEL    7501--GOTO
PMME_OPEN
      7465**LABEL    7436--GOTO     7438--CALLALT  7443--CALLALT
READ_MODE
      5926**DCL      7452<<ASSIGN   7457<<ASSIGN   7467<<ASSIGN   7502>>DOCASE
SAVENOMARKS
      7199**DCL      7473<<ASSIGN   7510>>ASSIGN
SAVEPOS
      7198**DCL      7472<<ASSIGN   7509>>ASSIGN
SPEC_BUF
      5232**DCL      5232--REDEF
USER_LABELS$
      5225**DCL      7415>>IF       7416<>CALL     7420>>ASSIGN   7422>>ASSIGN   7475>>IF       7476<>CALL
      7480>>ASSIGN   7482>>ASSIGN
VPD$GET_BUF
      7250**DCL-ENT  7416--CALL     7438--CALL     7443--CALL     7476--CALL
VPD$REL_BUF
      7251**DCL-ENT  7460--CALL     7525--CALL     7529--CALL
VPL$ERR_PROC
      7385**DCL-ENT  7418--CALL     7478--CALL
XSA$CLOSE
      7412**DCL-ENT  7506--CALL
XSA$OPEN
      7411**DCL-ENT  7447--CALL

PL6.E3A0      #002=VPF$CLOSE_IN File=VPF$SRCLST.:E05TSI                          WED 07/30/97 07:32 Page:40
      172        1        /*T***********************************************************/
      173        2        /*T*                                                         */
      174        3        /*T* Copyright (c) Bull HN Information Systems Inc., 1997    */
      175        4        /*T*                                                         */
      176        5        /*T***********************************************************/
      177        6        VPF$CLOSE_IN: PROC(CLOSE_STATUS) ALTRET;
      178        7        /*D* NAME: VPF$CLOSE_IN
      179        8             CALL: CALL VPF$CLOSE_IN(CLOSE_STATUS);
      180        9             DESCRIPTION: This procedure is used to close the input DCB after
      181       10                          a COPY or positioning operation.  The proper close
      182       11                          parameters are set according to the type of file.
      183       12
      184       13                          CLOSE_STATUS    meaning
      185       14                          ------------    -------
      186       15                               1          Normal close
      187       16        */
      188       17        /**/
      189       18        /*  INCLUDE FILES  */
      190       19        /**/
      191       20        %INCLUDE VP_DATA_R;
      192     7007        /**/
      193     7008        /*  Parameters  */
      194     7009        /**/
      195     7010    1   DCL CLOSE_STATUS SBIN WORD;
      196     7011        /**/
      197     7012        /*  Entry Points  */
      198     7013        /**/
      199     7014        %VP_ENTRIES (OMIT=VPF$CLOSE_IN);
      200     7222        /**/
      201     7223    1           IF ICB.FLAVOR.FFTAPE
      202     7224    1            THEN                           /* FREE-FREE TAPE                     */
      203     7225    1              CALL VPF$CALL_CLOSE (FPT_CLSEI_FT) ALTRET(RIVER_CITY);
      204     7226    1            ELSE
      205     7227    1              CALL VPF$CALL_CLOSE (FPT_CLOSE_EI) ALTRET(RIVER_CITY);
      206     7228    1           IF ICB.FLAVOR.TAPE
      207     7229    1            THEN                           /* Gotta check vol transition         */
      208     7230    1              CALL VPD$CHECK_VOL (IN_SN,0,M$EI#,,0);
PL6.E3A0      #002=VPF$CLOSE_IN File=VPF$SRCLST.:E05TSI                          WED 07/30/97 07:32 Page:41
      209     7231    1           RETURN;
      210     7232        /**/
      211     7233    1   RIVER_CITY: ;
      212     7234    1           ALTRETURN;
      213     7235        /**/
      214     7236    1   END VPF$CLOSE_IN;
      215     7237        %EOD;

PL6.E3A0      #002=VPF$CLOSE_IN File=VPF$SRCLST.:E05TSI                          WED 07/30/97 07:32 Page:42
--  Include file information  --

   B_MICROPS_C.:E05TOU  is referenced.
   XU_MACRO_C.:E05TOU  is referenced.
   VP_MACRO_C.:E05TOU  is referenced.
   XS_MACRO_C.:E05TOU  is referenced.
   VP_PERR_C.:E05TOU  is referenced.
   CP_6_SUBS.:E05TOU  is referenced.
   CP_6.:E05TOU  cannot be made into a system file and is referenced.
   VP_DATA_R.:E05TOU  cannot be made into a system file and is referenced.
   B$JIT_C.:E05TOU  was found in the system file and is never referenced.
   CP_6_C.:E05TOU  was found in the system file and is referenced.
      No diagnostics issued in procedure VPF$CLOSE_IN.

   Procedure VPF$CLOSE_IN requires 30 words for executable code.
   Procedure VPF$CLOSE_IN requires 10 words of local(AUTO) storage.

PL6.E3A0      #002=VPF$CLOSE_IN File=VPF$SRCLST.:E05TSI                          WED 07/30/97 07:32 Page:43

 Object Unit name= VPF$CLOSE_IN                               File name= VPF$SRCLST.:E05TOU
 UTS= JUL 30 '97 07:32:32.76 WED                              Compiler= PL-6/E31         Sev=      00
 SharedLib= :SHARED_SYSTEM                                    Alt SharedLib=


    ****  Control sections  ****

 Sect   Type Bound  Init  Size OctSiz  Section name(segment info)
    0   DCB   even  none     0      0  M$UC
    1   DCB   even  none     0      0  M$EI
    2   DCB   even  none     0      0  M$EO
    3   DCB   even  none     0      0  M$EO1
    4   DCB   even  none     0      0  M$ME
    5   DCB   even  none     0      0  M$SI
    6   DCB   even  none     0      0  M$READFILE
    7   DCB   even  none     0      0  M$DO
    8   DCB   even  none     0      0  M$STD1
    9   DCB   even  none     0      0  M$SORT1
   10   Proc  even  none    30     36  VPF$CLOSE_IN
   11  RoData even  none     6      6  VPF$CLOSE_IN

    ****  Entry defs  ****

                              Check   Calling
                             calling  sequence
  Sect OctLoc Primary Altret sequence   type   Parms  Name
    10      0   yes    yes     yes      Std        1  VPF$CLOSE_IN
PL6.E3A0      #002=VPF$CLOSE_IN File=VPF$SRCLST.:E05TSI                          WED 07/30/97 07:32 Page:44

  ****  Entry refs  ****

         Check        Calling
        calling       sequence
Altret sequence SRef   type   Args  Name
 yes     yes           Std       1 VPF$CALL_CLOSE
         yes           Std       5 VPD$CHECK_VOL
                       nStd      0 X66_AUTO_1
                       Std       0 B_CONSPOOL_D
                       nStd      0 X66_ARET
                       nStd      0 X66_AALT

  ****  Data refs  ****

  Flags:  r = read only, s = secondary
Flgs Name                             Flgs Name                             Flgs Name
     M$UC                                  BREAK_LOC                             BREAK_MESSAGE_REPORTER
     SPEC_BUF                              IN_RES                                IN_SN
     ICB                                   M$EI                                  M$EI#
     M$EO                                  M$EO1                                 M$ME
     M$SI                                  M$READFILE                            M$DO
     M$STD1                                M$SORT1                               FPT_CLOSE_EI
     FPT_CLSEI_FT                          B_VECTNIL

  ****  Segment refs  ****

  Flags:  r = read only, s = secondary
Flgs Name                             Flgs Name                             Flgs Name
     ISSID
PL6.E3A0      #002=VPF$CLOSE_IN File=VPF$SRCLST.:E05TSI                          WED 07/30/97 07:32 Page:45


      172        1        /*T***********************************************************/
      173        2        /*T*                                                         */
      174        3        /*T* Copyright (c) Bull HN Information Systems Inc., 1997    */
      175        4        /*T*                                                         */
      176        5        /*T***********************************************************/
      177        6        VPF$CLOSE_IN: PROC(CLOSE_STATUS) ALTRET;

      6 10 000000   000000 700200 xent  VPF$CLOSE_IN TSX0  ! X66_AUTO_1
        10 000001   000012 000001                    ZERO    10,1

      178        7        /*D* NAME: VPF$CLOSE_IN
      179        8             CALL: CALL VPF$CLOSE_IN(CLOSE_STATUS);
      180        9             DESCRIPTION: This procedure is used to close the input DCB after
      181       10                          a COPY or positioning operation.  The proper close
      182       11                          parameters are set according to the type of file.
      183       12
      184       13                          CLOSE_STATUS    meaning
      185       14                          ------------    -------
      186       15                               1          Normal close
      187       16        */
      188       17        /**/
      189       18        /*  INCLUDE FILES  */
      190       19        /**/
      191       20        %INCLUDE VP_DATA_R;
      192     7007        /**/
      193     7008        /*  Parameters  */
      194     7009        /**/
      195     7010    1   DCL CLOSE_STATUS SBIN WORD;
      196     7011        /**/
      197     7012        /*  Entry Points  */
      198     7013        /**/
      199     7014        %VP_ENTRIES (OMIT=VPF$CLOSE_IN);
      200     7222        /**/
      201     7223    1           IF ICB.FLAVOR.FFTAPE

   7223 10 000002   000172 236000 xsym               LDQ     ICB+122
PL6.E3A0      #002=VPF$CLOSE_IN File=VPF$SRCLST.:E05TSI                          WED 07/30/97 07:32 Page:46
        10 000003   000040 316003                    CANQ    32,DU
        10 000004   000012 600000 10                 TZE     s:7227

      202     7224    1            THEN                           /* FREE-FREE TAPE                     */
      203     7225    1              CALL VPF$CALL_CLOSE (FPT_CLSEI_FT) ALTRET(RIVER_CITY);

   7225 10 000005   000000 630400 11                 EPPR0   0
        10 000006   000017 631400 xsym               EPPR1   B_VECTNIL+15
        10 000007   000000 701000 xent               TSX1    VPF$CALL_CLOSE
        10 000010   000035 702000 10                 TSX2    RIVER_CITY
        10 000011   000016 710000 10                 TRA     s:7228

      204     7226    1            ELSE
      205     7227    1              CALL VPF$CALL_CLOSE (FPT_CLOSE_EI) ALTRET(RIVER_CITY);

   7227 10 000012   000001 630400 11                 EPPR0   1
        10 000013   000017 631400 xsym               EPPR1   B_VECTNIL+15
        10 000014   000000 701000 xent               TSX1    VPF$CALL_CLOSE
        10 000015   000035 702000 10                 TSX2    RIVER_CITY

      206     7228    1           IF ICB.FLAVOR.TAPE

   7228 10 000016   000172 236000 xsym               LDQ     ICB+122
        10 000017   000004 316003                    CANQ    4,DU
        10 000020   000034 600000 10                 TZE     s:7231

      207     7229    1            THEN                           /* Gotta check vol transition         */
      208     7230    1              CALL VPD$CHECK_VOL (IN_SN,0,M$EI#,,0);

   7230 10 000021   000002 236000 11                 LDQ     2
        10 000022   200010 756100                    STQ     @CLOSE_STATUS+5,,AUTO
        10 000023   000001 236000 xsym               LDQ     B_VECTNIL+1
        10 000024   000003 235000 11                 LDA     3
        10 000025   200006 757100                    STAQ    @CLOSE_STATUS+3,,AUTO
        10 000026   000004 237000 11                 LDAQ    4
        10 000027   200004 757100                    STAQ    @CLOSE_STATUS+1,,AUTO
        10 000030   200004 630500                    EPPR0   @CLOSE_STATUS+1,,AUTO
PL6.E3A0      #002=VPF$CLOSE_IN File=VPF$SRCLST.:E05TSI                          WED 07/30/97 07:32 Page:47
        10 000031   000023 631400 xsym               EPPR1   B_VECTNIL+19
        10 000032   000000 701000 xent               TSX1    VPD$CHECK_VOL
        10 000033   000000 011000                    NOP     0

      209     7231    1           RETURN;

   7231 10 000034   000000 702200 xent               TSX2  ! X66_ARET

   7228 10 000035                       RIVER_CITY   null
      210     7232        /**/
      211     7233    1   RIVER_CITY: ;
      212     7234    1           ALTRETURN;

   7234 10 000035   000000 702200 xent               TSX2  ! X66_AALT
      213     7235        /**/
      214     7236    1   END VPF$CLOSE_IN;
      215     7237        %EOD;

PL6.E3A0      #002=VPF$CLOSE_IN File=VPF$SRCLST.:E05TSI                          WED 07/30/97 07:32 Page:48
--  Include file information  --

   B_MICROPS_C.:E05TOU  is referenced.
   XU_MACRO_C.:E05TOU  is referenced.
   VP_MACRO_C.:E05TOU  is referenced.
   XS_MACRO_C.:E05TOU  is referenced.
   VP_PERR_C.:E05TOU  is referenced.
   CP_6_SUBS.:E05TOU  is referenced.
   CP_6.:E05TOU  cannot be made into a system file and is referenced.
   VP_DATA_R.:E05TOU  cannot be made into a system file and is referenced.
   B$JIT_C.:E05TOU  was found in the system file and is never referenced.
   CP_6_C.:E05TOU  was found in the system file and is referenced.
      No diagnostics issued in procedure VPF$CLOSE_IN.
PL6.E3A0      #002=VPF$CLOSE_IN File=VPF$SRCLST.:E05TSI                          WED 07/30/97 07:32 Page:49

 **** Variables and constants ****

  ****  Auto variables  ****

  ****  Scalars and arrays  ****
OctLoc.c.b A Datatyp(siz) R M Lvl/name                 OctLoc.c.b A Datatyp(siz) R M Lvl/name

     3-0-0/w PTR         r     1 @CLOSE_STATUS             *0-0-0/w SBIN        r     1 CLOSE_STATUS

  ****  SYMREF variables  ****

  ****  Scalars and arrays  ****
OctLoc.c.b A Datatyp(siz) R M Lvl/name                 OctLoc.c.b A Datatyp(siz) R M Lvl/name

     0-0-0/w EPTR        r     1 BREAK_MESSAGE_REPORTER
     0-0-0/d STRC(1080)  r     1 FPT_CLOSE_EI               0-0-0/d STRC(1080)  r     1 FPT_CLSEI_FT
     0-0-0/d STRC(5868)  r     1 ICB                        0-0-0/w STRC(1116)  r     1 IN_SN
     0-0-0/w SBIN        r     1 M$EI#


   Procedure VPF$CLOSE_IN requires 30 words for executable code.
   Procedure VPF$CLOSE_IN requires 10 words of local(AUTO) storage.
PL6.E3A0      #002=VPF$CLOSE_IN File=VPF$SRCLST.:E05TSI                          WED 07/30/97 07:32 Page:50
          *** CROSS REFERENCE LISTING ***
**     DENOTES     IDENTIFIER DEFINITION
<<                 IDENTIFIER'S VALUE SET
>>                 IDENTIFIER'S VALUE USED
<>                 IDENTIFIER SET AND/OR USED
--                 IDENTIFIER REFERENCED
PL6.E3A0      #002=VPF$CLOSE_IN File=VPF$SRCLST.:E05TSI                          WED 07/30/97 07:32 Page:51
          MINI XREF LISTING

BREAK_LOC
      5227**DCL      5227--REDEF
CLOSE_STATUS
      7010**DCL         6--PROC
DEF_ICB.FID.STRING
      5825**DCL      5826--REDEF
DEV_ICB.FID.STRING
      5711**DCL      5712--REDEF
EI_KEY.KEY
      5923**DCL      5923--REDEF    5923--REDEF    5923--REDEF
EO_OCB.TYPE
      5423**DCL      5424--REDEF
FPT_CLOSE_EI
      6764**DCL      7227<>CALL
FPT_CLOSE_EI.SN_
      6764**DCL      6764--REDEF
FPT_CLOSE_EI.UTL_
      6765**DCL      6765--REDEF
FPT_CLOSE_EI.V.EXPIRE#
      6779**DCL      6779--REDEF
FPT_CLOSE_EI.V.TYPE#
      6777**DCL      6777--REDEF
FPT_CLOSE_EI.V.XTNSIZE#
      6774**DCL      6774--REDEF    6776--REDEF
FPT_CLOSE_PTL.SN_
      6890**DCL      6890--REDEF
FPT_CLOSE_PTL.UTL_
      6891**DCL      6891--REDEF
FPT_CLOSE_PTL.V.EXPIRE#
      6905**DCL      6905--REDEF
FPT_CLOSE_PTL.V.TYPE#
      6903**DCL      6903--REDEF
PL6.E3A0      #002=VPF$CLOSE_IN File=VPF$SRCLST.:E05TSI                          WED 07/30/97 07:32 Page:52
FPT_CLOSE_PTL.V.XTNSIZE#
      6900**DCL      6900--REDEF    6902--REDEF
FPT_CLOSE_READ.SN_
      6806**DCL      6806--REDEF
FPT_CLOSE_READ.UTL_
      6807**DCL      6807--REDEF
FPT_CLOSE_READ.V.EXPIRE#
      6821**DCL      6821--REDEF
FPT_CLOSE_READ.V.TYPE#
      6819**DCL      6819--REDEF
FPT_CLOSE_READ.V.XTNSIZE#
      6816**DCL      6816--REDEF    6818--REDEF
FPT_CLOSE_SI.SN_
      6974**DCL      6974--REDEF
FPT_CLOSE_SI.UTL_
      6975**DCL      6975--REDEF
FPT_CLOSE_SI.V.EXPIRE#
      6989**DCL      6989--REDEF
FPT_CLOSE_SI.V.TYPE#
      6987**DCL      6987--REDEF
FPT_CLOSE_SI.V.XTNSIZE#
      6984**DCL      6984--REDEF    6986--REDEF
FPT_CLOSE_STD.SN_
      6932**DCL      6932--REDEF
FPT_CLOSE_STD.UTL_
      6933**DCL      6933--REDEF
FPT_CLOSE_STD.V.EXPIRE#
      6947**DCL      6947--REDEF
FPT_CLOSE_STD.V.TYPE#
      6945**DCL      6945--REDEF
FPT_CLOSE_STD.V.XTNSIZE#
      6942**DCL      6942--REDEF    6944--REDEF
FPT_CLSEI_FT
      6848**DCL      7225<>CALL
FPT_CLSEI_FT.SN_
      6848**DCL      6848--REDEF
PL6.E3A0      #002=VPF$CLOSE_IN File=VPF$SRCLST.:E05TSI                          WED 07/30/97 07:32 Page:53
FPT_CLSEI_FT.UTL_
      6849**DCL      6849--REDEF
FPT_CLSEI_FT.V.EXPIRE#
      6863**DCL      6863--REDEF
FPT_CLSEI_FT.V.TYPE#
      6861**DCL      6861--REDEF
FPT_CLSEI_FT.V.XTNSIZE#
      6858**DCL      6858--REDEF    6860--REDEF
FPT_OPEN_EI.ACSVEH_
      6419**DCL      6420--REDEF
FPT_OPEN_EI.ALTKEYS_
      6425**DCL      6426--REDEF    6426--REDEF
FPT_OPEN_EI.HDR_
      6424**DCL      6425--REDEF
FPT_OPEN_EI.TAB_
      6423**DCL      6424--REDEF
FPT_OPEN_EI.UHL_
      6417**DCL      6418--REDEF    6418--REDEF
FPT_OPEN_EI.V.FSN#
      6457**DCL      6457--REDEF    6457--REDEF
FPT_OPEN_EI.WSN_
      6423**DCL      6423--REDEF
FPT_OPEN_EI_SAVE.ACSVEH_
      6528**DCL      6529--REDEF
FPT_OPEN_EI_SAVE.ALTKEYS_
      6534**DCL      6535--REDEF    6535--REDEF
FPT_OPEN_EI_SAVE.HDR_
      6533**DCL      6534--REDEF
FPT_OPEN_EI_SAVE.TAB_
      6532**DCL      6533--REDEF
FPT_OPEN_EI_SAVE.UHL_
      6526**DCL      6527--REDEF    6527--REDEF
FPT_OPEN_EI_SAVE.V.FSN#
      6566**DCL      6566--REDEF    6566--REDEF
FPT_OPEN_EI_SAVE.WSN_
      6532**DCL      6532--REDEF
PL6.E3A0      #002=VPF$CLOSE_IN File=VPF$SRCLST.:E05TSI                          WED 07/30/97 07:32 Page:54
FPT_OPEN_OUT.ACSVEH_
      6310**DCL      6311--REDEF
FPT_OPEN_OUT.ALTKEYS_
      6316**DCL      6317--REDEF    6317--REDEF
FPT_OPEN_OUT.HDR_
      6315**DCL      6316--REDEF
FPT_OPEN_OUT.TAB_
      6314**DCL      6315--REDEF
FPT_OPEN_OUT.UHL_
      6308**DCL      6309--REDEF    6309--REDEF
FPT_OPEN_OUT.V.FSN#
      6348**DCL      6348--REDEF    6348--REDEF
FPT_OPEN_OUT.WSN_
      6314**DCL      6314--REDEF
FPT_OPEN_OUT_SAVE.ACSVEH_
      6201**DCL      6202--REDEF
FPT_OPEN_OUT_SAVE.ALTKEYS_
      6207**DCL      6208--REDEF    6208--REDEF
FPT_OPEN_OUT_SAVE.HDR_
      6206**DCL      6207--REDEF
FPT_OPEN_OUT_SAVE.TAB_
      6205**DCL      6206--REDEF
FPT_OPEN_OUT_SAVE.UHL_
      6199**DCL      6200--REDEF    6200--REDEF
FPT_OPEN_OUT_SAVE.V.FSN#
      6239**DCL      6239--REDEF    6239--REDEF
FPT_OPEN_OUT_SAVE.WSN_
      6205**DCL      6205--REDEF
FPT_READ_STD.STATION_
      6629**DCL      6630--REDEF
FPT_READ_STD.V.DVBYTE.REREAD#
      6641**DCL      6641--REDEF
FPT_READ_STD.V.INDX#
      6639**DCL      6639--REDEF
FPT_READ_UC.STATION_
      6590**DCL      6591--REDEF
PL6.E3A0      #002=VPF$CLOSE_IN File=VPF$SRCLST.:E05TSI                          WED 07/30/97 07:32 Page:55
FPT_READ_UC.V.DVBYTE.REREAD#
      6602**DCL      6602--REDEF
FPT_READ_UC.V.INDX#
      6600**DCL      6600--REDEF
FPT_WRITE_ME.STATION_
      6698**DCL      6698--REDEF
FPT_WRITE_ME.V.DVBYTE.VFC#
      6705**DCL      6705--REDEF
FPT_WRITE_OUT.STATION_
      6729**DCL      6729--REDEF
FPT_WRITE_OUT.V.DVBYTE.VFC#
      6736**DCL      6736--REDEF
FPT_WRITE_UC.STATION_
      6667**DCL      6667--REDEF
FPT_WRITE_UC.V.DVBYTE.VFC#
      6674**DCL      6674--REDEF
FROM_SN.SN
      5573**DCL      5574--REDEF
GETCMD.OUT$
      4780**DCL      4786--REDEF
ICB.FID.STRING
      5597**DCL      5598--REDEF
ICB.FLAVOR.FFTAPE
      5660**DCL      7223>>IF
ICB.FLAVOR.TAPE
      5663**DCL      7228>>IF
IFSFA_PARAM.EOMCHAR#
      5952**DCL      5953--REDEF
IFSFA_PARAM.SIG1
      5946**DCL      5946--REDEF
IFSFA_PARAM.SIG2
      5946**DCL      5947--REDEF
IN_RES
      5519**DCL      5519--REDEF
IN_SN
      5530**DCL      7230<>CALL
PL6.E3A0      #002=VPF$CLOSE_IN File=VPF$SRCLST.:E05TSI                          WED 07/30/97 07:32 Page:56
IN_SN.SN
      5535**DCL      5536--REDEF
M$EI#
      5988**DCL      7230<>CALL
OCB.TYPE
      5281**DCL      5282--REDEF
OFSFA_PARAM.EOMCHAR#
      5982**DCL      5983--REDEF
OFSFA_PARAM.SIG1
      5976**DCL      5976--REDEF
OFSFA_PARAM.SIG2
      5976**DCL      5977--REDEF
OUT_SN.SN
      5553**DCL      5554--REDEF
RIVER_CITY
      7228**LABEL    7225--CALLALT  7227--CALLALT
SPEC_BUF
      5231**DCL      5231--REDEF
VPD$CHECK_VOL
      7036**DCL-ENT  7230--CALL
VPF$CALL_CLOSE
      7118**DCL-ENT  7225--CALL     7227--CALL

PL6.E3A0      #003=VPF$GET_NEXT_SPEC File=VPF$SRCLST.:E05TSI                     WED 07/30/97 07:34 Page:57
      216        1        /*T***********************************************************/
      217        2        /*T*                                                         */
      218        3        /*T* Copyright (c) Bull HN Information Systems Inc., 1997    */
      219        4        /*T*                                                         */
      220        5        /*T***********************************************************/
      221        6        /*F* NAME: VPF$SRCLST
      222        7             PURPOSE: To process into a useable form, SOURCELIST and any associated
      223        8                      options.
      224        9        */
      225       10        VPF$GET_NEXT_SPEC: PROC(RET_VAL,SOURCELIST$);
      226       11        /*D* NAME: VPF$GET_NEXT_SPEC
      227       12             CALL: CALL VPF$GET_NEXT_SPEC(RET_VAL,SOURCELIST$);
      228       13                       where RET_VAL(SBIN WORD) will be returned
      229       14                                   0 if no errors,
      230       15                                   1 if no more SOURCELIST,
      231       16                                   2 if any errors.
      232       17                             SOURCELIST$(PTR) is a pointer to the SOURCELIST head
      233       18                                   node.
      234       19             DESCRIPTION: This procedure tries to get the next file or range spec.
      235       20                          from SOURCELIST and process the options into
      236       21                          ICB (INPUT CONTROL BLOCK). If SOURCELIST$ is specified,
      237       22                          internal variables are set to start at the beginning of
      238       23                          the referenced SOURCELIST, otherwise processing continues
      239       24                          where it last left off. If SOURCELIST$ = ADDR(NIL), the
      240       25                          default SOURCELIST of '.' is assumed. ICB.SPEC_TYPE will be
      241       26                          set as below:
      242       27                              VALUE         DESCRIPTION
      243       28                              -----         -----------
      244       29                                1           single FID reference
      245       30                                2           full range of directory device
      246       31                                3           sub range of directory device
      247       32                                4           wildcard of type ?ABC
      248       33                                5           wildcard of type ABC?
      249       34                                6           (unused/undefined)
      250       35                                7           single FSN reference
      251       36                                8           FSN range reference
      252       37                          All necessary information will be returned in ICB and
PL6.E3A0      #003=VPF$GET_NEXT_SPEC File=VPF$SRCLST.:E05TSI                     WED 07/30/97 07:34 Page:58
      253       38                          the M$FID returned fields.
      254       39                          RET_VAL will be returned as below:
      255       40                              VALUE         DESCRIPTION
      256       41                              -----         -----------
      257       42                                0           All fine. A spec is returned.
      258       43                                1           No more SOURCELIST to process.
      259       44                                2           Error.
      260       45        */
      261       46        /**/
      262       47        /*  PARAMETERS  */
      263       48        /**/
      264       49    1   DCL RET_VAL SBIN WORD;
      265       50    1   DCL SOURCELIST$ PTR;
      266       51        /**/
      267       52        /*  INCLUDE FILES  */
      268       53        /**/
      269       54        %INCLUDE B$JIT;
      270      344        %INCLUDE VP_DATA_R;
      271     7331        /**/
      272     7332        /*  LOCAL STATIC  */
      273     7333        /**/
      274     7334    1   DCL SL$ PTR STATIC;
      275     7335    1   DCL SL_IDX SBIN WORD STATIC;
      276     7336    1   DCL NL$ PTR STATIC;
      277     7337    1   DCL NL_IDX SBIN WORD STATIC;
      278     7338        %VLR_FID(FPTN = RESULTS_FID_END,STCLASS = STATIC);
      279     7357        %FPT_FID(FPTN = FPT_FID_END,
      280     7358                 NAME = END_NAME,
      281     7359                 ACCT = END_DUMMY,
      282     7360                 PASS = END_DUMMY,
      283     7361                 SN   = END_DUMMY,
      284     7362                 WSN  = END_DUMMY,
      285     7363                 ASN  = END_DUMMY,
      286     7364                 RES  = END_DUMMY,
      287     7365                 RESULTS = RESULTS_FID_END,
      288     7366                 STCLASS = STATIC);
      289     7389    1   DCL 1 END_NAME STATIC,
PL6.E3A0      #003=VPF$GET_NEXT_SPEC File=VPF$SRCLST.:E05TSI                     WED 07/30/97 07:34 Page:59
      290     7390    1         2 LEN UBIN BYTE UNAL,
      291     7391    1         2 STRING CHAR(31);
      292     7392    1   DCL END_DUMMY CHAR(10) STATIC;
      293     7393        %PARSE$OUT(NAME = OUT$BLK,STCLASS = BASED);
      294     7438        %PARSE$SYM(NAME = OUT$SYM,STCLASS = BASED);
      295     7476    1   DCL 1 TEXT$C BASED,
      296     7477    1         2 LEN UBIN BYTE UNAL,
      297     7478    1         2 STRING CHAR(TEXT$C.LEN);
      298     7479    1   DCL 1 TEXT$C_BIT BASED,
      299     7480    1         2 LEN UBIN BYTE UNAL,
      300     7481    1         2 STRING,
      301     7482    1           3 STRINGC CHAR(TEXT$C_BIT.LEN);
      302     7483    1   DCL 1 TEXT$C_ARY BASED,
      303     7484    1         2 LEN UBIN BYTE UNAL,
      304     7485    1         2 STRING(0:0) CHAR(1);
      305     7486        /**/
      306     7487        /*  LOCAL AUTO  */
      307     7488        /**/
      308     7489    1   DCL IN_OPT$ PTR;
      309     7490    1   DCL NE$ PTR;
      310     7491    1   DCL NEW_FID_LEN SBIN WORD;
      311     7492        /**/
      312     7493        /*  ENTRY DCLS  */
      313     7494        /**/
      314     7495        %VP_ENTRIES (OMIT=VPF$GET_NEXT_SPEC);
      315     7703        /**/
      316     7704    1           RET_VAL = 0;
      317     7705    1           IF ADDR(SOURCELIST$)~=ADDR(NIL)
      318     7706    1            THEN
      319     7707    2            DO;                            /* INITIALIZE TO NEW SOURCELIST       */
      320     7708    2               SINGLE_INSPEC = 0;          /* Init SINGLE INPUT SPEC to FALSE    */
      321     7709    2               SL$=SOURCELIST$;
      322     7710    2               SL_IDX=-1;
      323     7711    2               NL$=ADDR(NIL);
      324     7712    2               END;
      325     7713    1           IN_OPT$=ADDR(NIL);
      326     7714    1           IF NL$=ADDR(NIL)
PL6.E3A0      #003=VPF$GET_NEXT_SPEC File=VPF$SRCLST.:E05TSI                     WED 07/30/97 07:34 Page:60
      327     7715    1            THEN
      328     7716    1              CALL NEXT_SOURCE(RET_VAL);
      329     7717    1            ELSE
      330     7718    2            DO;
      331     7719    2               NL_IDX=NL_IDX+1;
      332     7720    2               IF NL_IDX>=NL$->OUT$BLK.NSUBLKS
      333     7721    2                THEN
      334     7722    2                  CALL NEXT_SOURCE(RET_VAL);
      335     7723    2               END;
      336     7724    1           IF RET_VAL~=0
      337     7725    1            THEN                           /* We didn't get anything             */
      338     7726    1              RETURN;
      339     7727    1           ICB = DEV_ICB;
      340     7728    1           IF NL$~=ADDR(NIL)
      341     7729    1            THEN
      342     7730    2            DO;
      343     7731    2               NE$ = NL$->OUT$BLK.SUBLK$(NL_IDX);
      344     7732    2               IF NE$->OUT$BLK.SUBLK$(0)->OUT$BLK.CODE=4
      345     7733    2                THEN
      346     7734    3                DO;                        /* FID                                */
      347     7735    3                   IF (IN_ASN ~= %TAPE# AND IN_ASN ~= %FILE#)
      348     7736    3                     AND ICB.FID.LEN ~= 0
      349     7737    3                    THEN                   /* Either bad OPT or FID              */
      350     7738                                                /* since a fid exists and no device   */
      351     7739                                                /* specified                          */
      352     7740    4                    DO;
      353     7741    4                       CALL VPL$ERR_PROC(3,56,'06'O,,,,,1); /* ABORT and return  */
      354     7742        /*E* ERROR:   VPF-00056
      355     7743             MESSAGE: Bad input option encountered
      356     7744        */
      357     7745    4                       RET_VAL = 2;        /* Error return                       */
      358     7746    4                       RETURN;
      359     7747    4                       END;
      360     7748    3                   NEW_FID_LEN = ICB.FID.LEN+NE$->OUT$BLK.SUBLK$(0)->
      361     7749    3                     OUT$BLK.SUBLK$(0)->TEXT$C.LEN;
      362     7750    3                   IF NEW_FID_LEN>SIZEC(ICB.FID.STRING)
      363     7751    3                    THEN
PL6.E3A0      #003=VPF$GET_NEXT_SPEC File=VPF$SRCLST.:E05TSI                     WED 07/30/97 07:34 Page:61
      364     7752    4                    DO;
      365     7753    4                       CALL VPL$ERR_PROC(3,1,'06'O,,,,,1); /* INPUT FID TOO LONG */
      366     7754        /*E* ERROR:   VPF-00001
      367     7755             MESSAGE: Input FID too long
      368     7756        */
      369     7757    4                       RET_VAL = 2;
      370     7758    4                       RETURN;
      371     7759    4                       END;
      372     7760    3                   CALL INSERT(ICB.FID.STRING,
      373     7761    3                     ICB.FID.LEN,,
      374     7762    3                     NE$->OUT$BLK.SUBLK$(0)->OUT$BLK.SUBLK$(0)->
      375     7763    3                     TEXT$C.STRING);       /* Append the rest of the FID         */
      376     7764    3                   ICB.FID.LEN = NEW_FID_LEN;
      377     7765    3                   FPT_FID_IN.TEXTFID_   = VECTOR(ADDR(ICB.FID)->TEXT$C.STRING);
      378     7766    3                   CALL VPD$FID(FPT_FID_IN,1) ALTRET(FID_ALT_1);
      379     7767    3                   IF IN_NAME.LEN=0
      380     7768    3                    THEN
      381     7769    3                      RESULTS_FID_IN.NAME = '0'B;
      382     7770    3                   CALL ADD_FROM_INFO;
      383     7771    3                   CALL VPD$GET_IN_DEV_MASK(ICB);
      384     7772    3                   END;
      385     7773    2               IF NE$->OUT$BLK.NSUBLKS>1
      386     7774    2                THEN
      387     7775    2                  IF NE$->OUT$BLK.SUBLK$(1)->OUT$BLK.CODE=4
      388     7776    2                   THEN                    /* RANGE END                          */
      389     7777    2                     IF ICB.DEV_MASK & '300'O
      390     7778    2                      THEN                 /* IF MANAGED...                      */
      391     7779    2                        IF NE$->OUT$BLK.SUBLK$(1)->OUT$BLK.NSUBLKS=0
      392     7780    2                         THEN
      393     7781    2                           ICB.NAME_RANGE_END = BITASC('777'O);
      394     7782                                                /* AN IMPOSSIBLY HIGH-SORTING         */
      395     7783                                                /* FILENAME TO DENOTE TILL END        */
      396     7784                                                /* OF ACCOUNT.                        */
      397     7785    2                         ELSE
      398     7786    3                         DO;               /* AN ENDING FILENAME WAS GIVEN       */
      399     7787    3                            FPT_FID_END.TEXTFID_ = VECTOR(NE$->OUT$BLK.SUBLK$(1)->
      400     7788    3                              OUT$BLK.SUBLK$(0)->OUT$SYM.TEXT);
PL6.E3A0      #003=VPF$GET_NEXT_SPEC File=VPF$SRCLST.:E05TSI                     WED 07/30/97 07:34 Page:62
      401     7789    3                            CALL VPD$FID(FPT_FID_END,1) ALTRET(FID_ALT_1);
      402     7790    3                            IF RESULTS_FID_END.ACCT
      403     7791    3                              OR ~RESULTS_FID_END.NAME
      404     7792    3                              OR RESULTS_FID_END.PASS
      405     7793    3                              OR RESULTS_FID_END.WSN
      406     7794    3                              OR RESULTS_FID_END.SN
      407     7795    3                             THEN
      408     7796    4                             DO;
      409     7797    4                                CALL VPL$ERR_PROC(3,41,'06'O,,,,,1);
      410     7798        /*E*   ERROR: VPF-00041
      411     7799             MESSAGE: NAME only allowed for end of range specification
      412     7800            */
      413     7801    4                                RET_VAL = 2;
      414     7802    4                                RETURN;
      415     7803    4                                END;
      416     7804    3                             ELSE
      417     7805    3                               ICB.NAME_RANGE_END = END_NAME.STRING;
      418     7806    3                            END;
      419     7807    2                      ELSE                 /* Not managed and attempted range    */
      420     7808    3                      DO;
      421     7809    3                         CALL VPL$ERR_PROC(3,2,'06'O,,VECTOR(ICB.FID),,,1);
      422     7810        /*E* ERROR:   VPF-00002
      423     7811             MESSAGE: Device range not allowed.
      424     7812            MESSAGE1: '%U1' is not a managed resource, so a range of file
      425     7813                      names is impossible.
      426     7814        */
      427     7815                                                /* RANGE NOT ALLOWED                  */
      428     7816    3                         RET_VAL = 2;
      429     7817    3                         RETURN;
      430     7818    3                         END;
      431     7819    2               IF NE$->OUT$BLK.SUBLK$(NE$->OUT$BLK.NSUBLKS-1)->OUT$BLK.CODE=1
      432     7820    2                THEN
      433     7821    2                  IN_OPT$ = NE$->OUT$BLK.SUBLK$(NE$->OUT$BLK.NSUBLKS-1);
      434     7822    2                ELSE
      435     7823    2                  IN_OPT$ = ADDR(NIL);
      436     7824    2               END;
      437     7825    1           IF (CMD_MASK & '000600'O)       /* LIST, LISTSTD                      */
PL6.E3A0      #003=VPF$GET_NEXT_SPEC File=VPF$SRCLST.:E05TSI                     WED 07/30/97 07:34 Page:63
      438     7826    1             AND NOT (ICB.DEV_MASK & '300'O) /* AND NOT MANAGED                  */
      439     7827    1            THEN
      440     7828    1              GOTO NEED_MAN;
      441     7829    1           IF (CMD_MASK & '14000'O)        /* COPYALL, COPYSTD                   */
      442     7830    1             AND NOT (ICB.DEV_MASK & '340'O) /* AND NOT ANY MANAGED OR FT        */
      443     7831    1            THEN
      444     7832    2            DO;
      445     7833    2   NEED_MAN:   ;
      446     7834    2               CALL VPL$ERR_PROC(3,3,'06'O,,VECTOR(ICB.FID),,,1);
              7834                        /* INPUT MUST BE MANAGED */
      447     7835        /*E* ERROR:   VPF-00003
      448     7836             MESSAGE: '%U1' is not a file
      449     7837        */
      450     7838    2               RET_VAL=2;
      451     7839    2               RETURN;
      452     7840    2               END;
      453     7841    1           IF (CMD_MASK & '012140002'O)    /* DELETE, DELETESTD,                 */
      454     7842                                                /* REVIEW, REVIEWSTD, OR MODIFY       */
      455     7843    1             AND NOT (ICB.DEV_MASK.MAN_DISC) /* AND NOT DISK FILE                */
      456     7844    1            THEN
      457     7845    2            DO;
      458     7846    2               CALL VPL$ERR_PROC(3,4,'06'O,,,,,1); /* INPUT MUST BE FROM DISK    */
      459     7847        /*E* ERROR:   VPF-00004
      460     7848             MESSAGE: Input must be from disk
      461     7849        */
      462     7850    2               RET_VAL = 2;
      463     7851    2               RETURN;
      464     7852    2               END;
      465     7853    1           IF RESULTS_FID_IN.NAME
      466     7854    1            THEN
      467     7855    1              ICB.FSN = '0'B;              /* INVALIDATE DEVICE FSN OPTION       */
      468     7856                                                /* IF THIS COMPLETE FID IS NAMED      */
      469     7857    1           IF IN_OPT$~=ADDR(NIL)
      470     7858    1            THEN
      471     7859    2            DO;
      472     7860    2               CALL VERIFY_STUFF_IN_OPTS(RET_VAL,1);
      473     7861    2               IF RET_VAL~=0
PL6.E3A0      #003=VPF$GET_NEXT_SPEC File=VPF$SRCLST.:E05TSI                     WED 07/30/97 07:34 Page:64
      474     7862    2                THEN
      475     7863    2                  RETURN;
      476     7864    2               END;
      477     7865    1           CALL SET_SPEC_TYPE(RET_VAL);
      478     7866    2           IF ICB.CREATOR_SEL = 0 THEN DO;
      479     7867    2               ICB.CREATOR_SEL = DEF_ICB.CREATOR_SEL;
      480     7868    2               ICB.CREATOR_NEG = DEF_ICB.CREATOR_NEG;
      481     7869    2               ICB.CREATOR = DEF_ICB.CREATOR;
      482     7870    2               END;
      483     7871    2           IF ICB.SRCHCOND = '0'B THEN DO;
      484     7872    2               ICB.SRCHCOND = DEF_ICB.SRCHCOND;
      485     7873    2               END;
      486     7874    2           IF ICB.DATE.TYPE = 0 THEN DO;
      487     7875    2               ICB.DATE = DEF_ICB.DATE;
      488     7876    2               END;
      489     7877    2           IF ICB.SORTING_ORDER.COUNT = 0 THEN DO;
      490     7878    2               ICB.SORTING_ORDER = DEF_ICB.SORTING_ORDER;
      491     7879    2               END;
      492     7880    2           IF ICB.TYPE.COUNT = 0 THEN DO;
      493     7881    2               ICB.TYPE = DEF_ICB.TYPE;
      494     7882    2               END;
      495     7883    2           IF ICB.ORG = '0'B THEN DO;
      496     7884    2               ICB.ORG_NEG = DEF_ICB.ORG_NEG;
      497     7885    2               ICB.ORG = DEF_ICB.ORG;
      498     7886    2               END;
      499     7887    2           IF ICB.A_EA_C = 0 THEN DO;
      500     7888    2               ICB.A_EA_C = DEF_ICB.A_EA_C;
      501     7889    2               END;
      502     7890    2           IF ICB.COLS = 0 THEN DO;
      503     7891    2               ICB.COLS = DEF_ICB.COLS;
      504     7892    2               END;
      505     7893    1           IF ICB.FFID = '0'B THEN
      506     7894    1              ICB.FFID = DEF_ICB.FFID;
      507     7895    1           IF RESULTS_FID_IN.RES AND IN_RES = 'DP' AND /* If DP                  */
      508     7896    1             ~RESULTS_FID_IN.NAME AND      /* and no name                        */
      509     7897    1             NOT (ICB.SPEC_TYPE=4 OR ICB.SPEC_TYPE=5) AND /* but wildcard is ok  */
      510     7898    1             ~RESULTS_FID_IN.ACCT THEN     /* nor account                        */
PL6.E3A0      #003=VPF$GET_NEXT_SPEC File=VPF$SRCLST.:E05TSI                     WED 07/30/97 07:34 Page:65
      511     7899    1              CALL VPL$ERR_PROC(3,75,'06'O); /* then complain                    */
      512     7900        /*E* ERROR:   VPF-00075
      513     7901             MESSAGE: Filename needed
      514     7902        */
      515     7903    1           IF ICB.PHYSICAL=1 AND ICB.SPEC_TYPE~=3
      516     7904    2            THEN DO;
      517     7905    2               CALL VPL$ERR_PROC(3,46,'06'O,,,,,1);
      518     7906        /*E*   ERROR: VPF-00046
      519     7907             MESSAGE: PHYSICAL option allowed for LT name range only
      520     7908        */
      521     7909    2               RET_VAL = 2;
      522     7910    2               END;
      523     7911    1           RETURN;
      524     7912        /**/
      525     7913    1   FID_ALT_1: ;
      526     7914    1           RET_VAL = 2;
      527     7915    1           RETURN;
      528     7916        %EJECT;
PL6.E3A0      #003=VPF$GET_NEXT_SPEC File=VPF$SRCLST.:E05TSI                     WED 07/30/97 07:34 Page:66
      529     7917    1   ADD_FROM_INFO: PROC;
      530     7918        /*I* NAME: ADD_FROM_INFO
      531     7919             PURPOSE: To merge the FROM information into the current fid spec.
      532     7920             CALL: CALL ADD_FROM_INFO;
      533     7921             DESCRIPTION: This procedure is used to merge the previously processed
      534     7922                          FROM information into the current fid spec to make the
      535     7923                          usable fid spec.
      536     7924        */
      537     7925    2           IF RESULTS_FID_FROM             /* If FROM FID exists                 */
      538     7926    2             AND NOT THIS_STD_FILE         /* AND NOT the STD file               */
      539     7927    3            THEN DO;
      540     7928    3               IF RESULTS_FID_IN.RES='0'B
      541     7929    3                THEN
      542     7930    4                DO;
      543     7931    4                   IN_ASN = FROM_ASN;
      544     7932    4                   IN_RES = FROM_RES;
      545     7933    4                   IN_SN = FROM_SN;
      546     7934    4                   RESULTS_FID_IN.RES = RESULTS_FID_FROM.RES;
      547     7935    4                   RESULTS_FID_IN.SN = RESULTS_FID_FROM.SN;
      548     7936    4                   END;
      549     7937    3               IF RESULTS_FID_IN.NAME='0'B
      550     7938    3                THEN
      551     7939    4                DO;
      552     7940    4                   IN_NAME = FROM_NAME;
      553     7941    4                   RESULTS_FID_IN.NAME = RESULTS_FID_FROM.NAME;
      554     7942    4                   END;
      555     7943    3               IF RESULTS_FID_IN.ACCT='0'B
      556     7944    3                THEN
      557     7945    4                DO;
      558     7946    4                   IN_ACCT = FROM_ACCT;
      559     7947    4                   RESULTS_FID_IN.ACCT = RESULTS_FID_FROM.ACCT;
      560     7948    4                   END;
      561     7949    3               IF RESULTS_FID_IN.PASS='0'B
      562     7950    3                THEN
      563     7951    4                DO;
      564     7952    4                   IN_PASS = FROM_PASS;
      565     7953    4                   RESULTS_FID_IN.PASS = RESULTS_FID_FROM.PASS;
PL6.E3A0      #003=VPF$GET_NEXT_SPEC File=VPF$SRCLST.:E05TSI                     WED 07/30/97 07:34 Page:67
      566     7954    4                   END;
      567     7955    3               IF RESULTS_FID_IN.WSN='0'B
      568     7956    3                THEN
      569     7957    4                DO;
      570     7958    4                   IN_WSN = FROM_WSN;
      571     7959    4                   RESULTS_FID_IN.WSN = RESULTS_FID_FROM.WSN;
      572     7960    4                   END;
      573     7961    3               END;
      574     7962    2           RETURN;
      575     7963    2   END ADD_FROM_INFO;
      576     7964        %EJECT;
PL6.E3A0      #003=VPF$GET_NEXT_SPEC File=VPF$SRCLST.:E05TSI                     WED 07/30/97 07:34 Page:68
      577     7965    1   NEXT_SOURCE: PROC(RET_VAL);
      578     7966        /*I* NAME: NEXT_SOURCE
      579     7967             PURPOSE: To initialize processing of the next SOURCE of SOURCELIST.
      580     7968             CALL: CALL NEXT_SOURCE(RET_VAL);
      581     7969             DESCRIPTION: This procedure processes the next SOURCE of SOURCELIST
      582     7970                          if one exists. If SL$ = ADDR(NIL), this proc works as if
      583     7971                          SOURCELIST = '.'. If it is a SOURCE_1_N node, NL$ is set
      584     7972                          to reflect this and DEV_ICB is cleared. If it is a
      585     7973                          SOURCE_2_N node, the device portion of the FID ( this may
      586     7974                          be the entire FID) is formed and fed to M$FID. NL$ is set
      587     7975                          to point to the head node of any N.A.P and options nodes.
      588     7976                          If device options exist, they are processed into DEV_ICB
      589     7977                          and verified. If these device options occur for a node
      590     7978                          that has no following N.A.P nodes, the options are not
      591     7979                          processed, they are pointed to by IN_OPT$ which is
      592     7980                          then returned. In any case, the results from M$FID will
      593     7981                          be meaningful assuming no errors occurred.
      594     7982                          RET_VAL will be returned as below:
      595     7983                            RET_VAL           DESCRIPTION
      596     7984                            -------           -----------
      597     7985                               0              All fine.
      598     7986                               1              No more SOURCE elements.
      599     7987                               2              Error.
      600     7988        */
      601     7989    2   DCL RET_VAL SBIN WORD;
      602     7990    2   DCL S12$ PTR;
      603     7991    2   DCL CODE SBIN WORD;
      604     7992    2   DCL DOT_LIT CHAR(1) CONSTANT INIT('.'); /* Text for default SOURCELIST        */
      605     7993    2           RET_VAL = 0;
      606     7994    2           NL$ = ADDR(NIL);
      607     7995    2           NL_IDX = 0;
      608     7996    2           SL_IDX = SL_IDX+1;
      609     7997    2           DEV_ICB = '0'B;
      610     7998    2           DEV_ICB.NAME_RANGE_END = ' ';
      611     7999    2           IF SL$=ADDR(NIL)
      612     8000    2            THEN                           /* Default SOURCELIST of '.'          */
      613     8001    2              IF SL_IDX>0
PL6.E3A0      #003=VPF$GET_NEXT_SPEC File=VPF$SRCLST.:E05TSI                     WED 07/30/97 07:34 Page:69
      614     8002    2               THEN
      615     8003    3               DO;                         /* SECOND TIME THROUGH FOR            */
      616     8004    3                  RET_VAL = 1;             /* DEFAULT SOURCELIST...              */
      617     8005    3                  RETURN;
      618     8006    3                  END;
      619     8007    2               ELSE
      620     8008    3               DO;                         /* FIRST TIME THROUGH FOR             */
      621     8009                                                /* DEFAULT SOURCELIST...              */
      622     8010    3                  SINGLE_INSPEC = 1;       /* INDICATE A SINGLE INPUT SPEC       */
      623     8011    3                  FPT_FID_IN.TEXTFID_ = VECTOR(DOT_LIT);
      624     8012    3                  GOTO CALL_FID;
      625     8013    3                  END;
      626     8014    2            ELSE                           /* Not default SOURCELIST             */
      627     8015    2              IF SL_IDX>=SL$->OUT$BLK.NSUBLKS
      628     8016    2               THEN
      629     8017    3               DO;
      630     8018    3                  RET_VAL = 1;             /* NO MORE SOURCELIST                 */
      631     8019    3                  RETURN;
      632     8020    3                  END;
      633     8021    2           S12$ = SL$->OUT$BLK.SUBLK$(SL_IDX);
      634     8022    2           IF S12$->OUT$BLK.CODE=1
      635     8023    2            THEN
      636     8024    3            DO;                            /* SOURCE_1                           */
      637     8025    3               NL$ = S12$;
      638     8026    3               IF SL$->OUT$BLK.NSUBLKS=1
      639     8027    3                THEN
      640     8028    3                  SINGLE_INSPEC = 1;       /* INDICATE SINGLE INPUT SPEC         */
      641     8029    3               RETURN;
      642     8030    3               END;
      643     8031                                                /* MUST BE SOURCE_2                   */
      644     8032    2           DEV_ICB.FID = S12$->OUT$BLK.SUBLK$(0)->OUT$BLK.SUBLK$(0)->TEXT$C;
      645     8033    2           IF DEV_ICB.FID.LEN>=SIZEC(DEV_ICB.FID.STRING)
      646     8034    2            THEN
      647     8035    3            DO;
      648     8036    3               CALL VPL$ERR_PROC(3,1,'06'O,,,,,1); /* INPUT FID TOO LONG         */
      649     8037    3               RET_VAL = 2;
      650     8038    3               RETURN;
PL6.E3A0      #003=VPF$GET_NEXT_SPEC File=VPF$SRCLST.:E05TSI                     WED 07/30/97 07:34 Page:70
      651     8039    3               END;
      652     8040    2           CODE = 0;
      653     8041    2           IF S12$->OUT$BLK.NSUBLKS>1
      654     8042    2            THEN
      655     8043    2              CODE = S12$->OUT$BLK.SUBLK$(1)->OUT$BLK.CODE;
      656     8044    2           IF CODE=1
      657     8045    2            THEN
      658     8046    3            DO;                            /* INPUT OPTIONS SPECIFIED            */
      659     8047    3               IN_OPT$ = S12$->OUT$BLK.SUBLK$(1);
      660     8048    3               IF S12$->OUT$BLK.NSUBLKS>2
      661     8049    3                THEN
      662     8050    3                  CODE = S12$->OUT$BLK.SUBLK$(2)->OUT$BLK.CODE;
      663     8051    3               END;
      664     8052    2           IF CODE=2
      665     8053    2            THEN
      666     8054    3            DO;                            /* SLASH SPECIFIED                    */
      667     8055    3               DEV_ICB.FID.STR_ARY(DEV_ICB.FID.LEN)= '/';
      668     8056    3               DEV_ICB.FID.LEN = DEV_ICB.FID.LEN+1;
      669     8057    3               END;
      670     8058    2           IF S12$->OUT$BLK.SUBLK$(S12$->OUT$BLK.NSUBLKS-1)->OUT$BLK.CODE=3
      671     8059    2            THEN
      672     8060    3            DO;
      673     8061    3               NL$ = S12$->OUT$BLK.SUBLK$(S12$->OUT$BLK.NSUBLKS-1);
      674     8062    3               IF NL$->OUT$BLK.NSUBLKS=1 AND SL$->OUT$BLK.NSUBLKS=1
      675     8063    3                THEN
      676     8064    3                  SINGLE_INSPEC = 1;       /* INDICATE SINGLE INPUT SPEC         */
      677     8065    3               END;
      678     8066    2            ELSE
      679     8067    2              IF SL$->OUT$BLK.NSUBLKS=1
      680     8068    2               THEN
      681     8069    2                 SINGLE_INSPEC = 1;        /* INDICATES SINGLE INPUT SPEC        */
      682     8070    2           FPT_FID_IN.TEXTFID_   = VECTOR(ADDR(DEV_ICB.FID)->TEXT$C.STRING);
      683     8071    2   CALL_FID: CALL VPD$FID(FPT_FID_IN,1) ALTRET(FID_ALT_2);
      684     8072    2           IF IN_NAME.LEN=0
      685     8073    2            THEN
      686     8074    2              RESULTS_FID_IN.NAME = '0'B;
      687     8075    2           IF SL$ = ADDR(NIL)
PL6.E3A0      #003=VPF$GET_NEXT_SPEC File=VPF$SRCLST.:E05TSI                     WED 07/30/97 07:34 Page:71
      688     8076    2            THEN                           /* The default SOURCELIST was used    */
      689     8077    2              RESULTS_FID_IN.ACCT = '0'B;
      690     8078    2           CALL VPD$GET_IN_DEV_MASK(DEV_ICB);
      691     8079    2           IF NL$~=ADDR(NIL)               /* NAP LIST SPECIFIED?                */
      692     8080    2            THEN
      693     8081    3            DO;                            /* YES...CHECK FID PARTS              */
      694     8082    3               IF RESULTS_FID_IN.NAME OR RESULTS_FID_IN.ACCT OR
      695     8083    3                 RESULTS_FID_IN.PASS OR RESULTS_FID_IN.WSN
      696     8084    3                THEN
      697     8085    4                DO;
      698     8086                       /* Name, Address, Pass not allowed on DEVICE SPEC (or bad opt  */
      699     8087    4                   CALL VPL$ERR_PROC(3,7,'06'O,,VECTOR(DEV_ICB.FID),
      700     8088    4                     VECTOR(NL$ -> OUT$BLK.SUBLK$(0) -> OUT$BLK.SUBLK$(0)
      701     8089    4                     -> OUT$BLK.SUBLK$(0) -> TEXT$C),,1);
      702     8090        /*E* ERROR:   VPF-00007
      703     8091             MESSAGE: Bad device spec %(%U1) %or input option %(%U2...etc)%
      704     8092            MESSAGE1: If% %U1 was% intended as a device spec; Name, Account,
      705     8093                      and Password are illegal.  If% %U2...etc was% intended as an
      706     8094                      input option, it isn't one.
      707     8095        */
      708     8096    4                   RET_VAL = 2;
      709     8097    4                   RETURN;
      710     8098    4                   END;
      711     8099    3               IF IN_OPT$~=ADDR(NIL)
      712     8100    3                THEN
      713     8101    3                  CALL VERIFY_STUFF_IN_OPTS(RET_VAL,0);
      714     8102    3               END;
      715     8103    2           CALL ADD_FROM_INFO;
      716     8104    2           RETURN;
      717     8105        /**/
      718     8106    2   FID_ALT_2: ;
      719     8107    2           RET_VAL = 2;
      720     8108    2           RETURN;
      721     8109    2   END NEXT_SOURCE;
      722     8110        %EJECT;
PL6.E3A0      #003=VPF$GET_NEXT_SPEC File=VPF$SRCLST.:E05TSI                     WED 07/30/97 07:34 Page:72
      723     8111    1   SET_SPEC_TYPE: PROC(RET_VAL);
      724     8112        /*I* NAME: SET_SPEC_TYPE
      725     8113             PURPOSE: To set the input specification type variable, ICB.SPEC_TYPE,
      726     8114                      to a meaningful value.
      727     8115             CALL: CALL SET_SPEC_TYPE(RET_VAL);
      728     8116             DESCRIPTION: This procedure sets ICB.SPEC_TYPE to one of the following
      729     8117                          values:
      730     8118                              VALUE         DESCRIPTION
      731     8119                              -----         -----------
      732     8120                                1           single FID reference
      733     8121                                2           full range of directory device
      734     8122                                3           sub range of directory device
      735     8123                                4           wildcard of type ?something
      736     8124                                5           wildcard without initial '?'
      737     8125                                6           (undefined)
      738     8126                                7           single FSN reference
      739     8127                                8           FSN range reference
      740     8128                          If a wildcard spec. is returned, RESULTS_FID_IN.NAME
      741     8129                          will have been set to '0'B.
      742     8130                          If any errors are detected, RET_VAL is set to 2.
      743     8131        */
      744     8132    2   DCL RET_VAL SBIN WORD;
      745     8133    2   DCL I SBIN WORD;
      746     8134    2           IF CMD_MASK(2)                  /* If COPYALL                         */
      747     8135    2             AND ICB.DEV_MASK.DEV_TAPE     /* of FT                              */
      748     8136    2             AND ICB.FSN = '0'O            /* and FSN not specified              */
      749     8137    2            THEN
      750     8138    3            DO;
      751     8139    3               ICB.FSN.START = 1;          /* START at 1                         */
      752     8140    3               ICB.FSN.FINISH = BITBIN('777777'O); /* and dont stop              */
      753     8141    3               END;
      754     8142    2           IF ICB.DEV_MASK & '300'O        /* MANAGED TAPE OR FILE               */
      755     8143    2            THEN
      756     8144    2              IF ICB.NAME_RANGE_END ~= ' '
      757     8145    2               THEN
      758     8146    2                 ICB.SPEC_TYPE = 3;        /* SUB-RANGE                          */
      759     8147    2               ELSE
PL6.E3A0      #003=VPF$GET_NEXT_SPEC File=VPF$SRCLST.:E05TSI                     WED 07/30/97 07:34 Page:73
      760     8148    2                 IF RESULTS_FID_IN.NAME
      761     8149    2                  THEN                     /* A name was found                   */
      762     8150    3                  DO;
      763     8151    3                     IF RESULTS_FID_IN.TYPE.NAME ~= %UMF$SIMPLE_STRING#
      764     8152    3                      THEN                 /* NAME was quoted or in octal        */
      765     8153    3                        ICB.SPEC_TYPE = 1; /* Do not check for wildness          */
      766     8154    3                      ELSE
      767     8155    4                      DO;
      768     8156    4                         CALL VPD$ANAL_NAME(IN_NAME,ICB.SPEC_TYPE);
      769     8157    5                         DO CASE(ICB.SPEC_TYPE);
      770     8158    5                          CASE(4,5);       /* WILDCARD                           */
      771     8159    5                            RESULTS_FID_IN.NAME = '0'B;
      772     8160    5                          END;             /* END CASE                           */
      773     8161    4                         END;
      774     8162    3                     END;
      775     8163    2                  ELSE                     /* Name not provided                  */
      776     8164    2                    ICB.SPEC_TYPE = 2;     /* FULL RANGE                         */
      777     8165    2            ELSE                           /* Not file or managed tape           */
      778     8166    2              ICB.SPEC_TYPE = 1;           /* SINGLE FILE SPEC                   */
      779     8167    2           IF ICB.FSN.START>0              /* FSN's OVERRIDE OTHER TYPES         */
      780     8168    2            THEN
      781     8169    2              IF ICB.FSN.FINISH>0
      782     8170    2               THEN
      783     8171    2                 ICB.SPEC_TYPE = 8;        /* FSN RANGE                          */
      784     8172    2               ELSE
      785     8173    2                 ICB.SPEC_TYPE = 7;        /* SINGLE FSN                         */
      786     8174    2   END SET_SPEC_TYPE;
      787     8175        %EJECT;
PL6.E3A0      #003=VPF$GET_NEXT_SPEC File=VPF$SRCLST.:E05TSI                     WED 07/30/97 07:34 Page:74
      788     8176    1   VERIFY_STUFF_IN_OPTS: PROC(RET_VAL,DEV_OR_FID);
      789     8177        /*I* NAME: VERIFY_STUFF_IN_OPTS
      790     8178             PURPOSE: To validate and store into ICB (Input Control Block) or
      791     8179                      DEV_ICB (DEVice ICB) the input options.
      792     8180             CALL: CALL VERIFY_STUFF_IN_OPTS(RET_VAL,DEV_OR_FID);
      793     8181             DESCRIPTION: This procedure drives the processing of the input options.
      794     8182                          If DEV_OR_FID=0 meaning this is a device options list,
      795     8183                          DEV_ICB is copied to and finally back from ICB since
      796     8184                          PROCESS_INPUT_OPT only fills ICB. REC_SEL_CNT is used
      797     8185                          to facilitate correct overwriting of ICB.REC_SEL for
      798     8186                          occasions where a fid options list updates a device
      799     8187                          options list. RET_VAL is set to 2 by PROCESS_INPUT_OPT if
      800     8188                          any option was in error.
      801     8189        */
      802     8190    2   DCL RET_VAL SBIN WORD;
      803     8191    2   DCL DEV_OR_FID SBIN WORD;
      804     8192    2   DCL OPT_IDX SBIN WORD;
      805     8193    2           CON_DUP_TBL = '0'B;
      806     8194    2           REC_SEL_CNT = 0;                /* USED TO HOLD NUMBER OF             */
      807     8195                                                /* ELEMENTS IN REC_SEL TABLE.         */
      808     8196                                                /* IF ON COMPLETION, IT IS>0,         */
      809     8197                                                /* THEN IT IS MOVED TO                */
      810     8198                                                /* ICB.REC_SEL.CNT INSURING           */
      811     8199                                                /* OVERWRITING OF REC_SEL FIELD       */
      812     8200                                                /* ONLY IF NECESSARY. IT LEAVES       */
      813     8201                                                /* DEVICE OPTIONS INTACT              */
      814     8202                                                /* OTHERWISE.                         */
      815     8203    2           IF DEV_OR_FID=0                 /* If device options exist...         */
      816     8204    2            THEN
      817     8205    2              ICB = DEV_ICB;               /* WILL BE COPIED BACK LATER.         */
      818     8206    2           OPT_IDX = 0;
      819     8207    3           DO WHILE(OPT_IDX<IN_OPT$->OUT$BLK.NSUBLKS);
      820     8208    3              CALL VPF$PROCESS_INPUT_OPT(IN_OPT$->OUT$BLK.SUBLK$(OPT_IDX))
      821     8209    4               WHENALTRETURN DO;
      822     8210    4                  RET_VAL=2;
      823     8211    4                  END;
      824     8212    3              OPT_IDX = OPT_IDX+1;
PL6.E3A0      #003=VPF$GET_NEXT_SPEC File=VPF$SRCLST.:E05TSI                     WED 07/30/97 07:34 Page:75
      825     8213    3              END;
      826     8214    2           IF REC_SEL_CNT>0
      827     8215    2            THEN
      828     8216    2              ICB.REC_SEL.CNT = REC_SEL_CNT;
      829     8217    2           IF DEV_OR_FID=0                 /* IF DEVICE OPTIONS...               */
      830     8218    2            THEN
      831     8219    2              DEV_ICB = ICB;               /* Copy the original back.            */
      832     8220        %EJECT;
PL6.E3A0      #003=VPF$GET_NEXT_SPEC File=VPF$SRCLST.:E05TSI                     WED 07/30/97 07:34 Page:76
      833     8221    2   END VERIFY_STUFF_IN_OPTS;
      834     8222    1   END VPF$GET_NEXT_SPEC;
      835     8223        %EOD;

PL6.E3A0      #003=VPF$GET_NEXT_SPEC File=VPF$SRCLST.:E05TSI                     WED 07/30/97 07:34 Page:77
--  Include file information  --

   B_MICROPS_C.:E05TOU  is referenced.
   XU_MACRO_C.:E05TOU  is referenced.
   VP_MACRO_C.:E05TOU  is referenced.
   XS_MACRO_C.:E05TOU  is referenced.
   VP_PERR_C.:E05TOU  is referenced.
   CP_6_SUBS.:E05TOU  is referenced.
   CP_6.:E05TOU  cannot be made into a system file and is referenced.
   VP_DATA_R.:E05TOU  cannot be made into a system file and is referenced.
   B$JIT.:E05TOU  cannot be made into a system file and is referenced.
   B$JIT_C.:E05TOU  was found in the system file and is referenced.
   CP_6_C.:E05TOU  was found in the system file and is referenced.
      No diagnostics issued in procedure VPF$GET_NEXT_SPEC.

   Procedure VPF$GET_NEXT_SPEC requires 841 words for executable code.
   Procedure VPF$GET_NEXT_SPEC requires 28 words of local(AUTO) storage.

PL6.E3A0      #003=VPF$GET_NEXT_SPEC File=VPF$SRCLST.:E05TSI                     WED 07/30/97 07:34 Page:78

 Object Unit name= VPF$GET_NEXT_SPEC                          File name= VPF$SRCLST.:E05TOU
 UTS= JUL 30 '97 07:34:33.44 WED                              Compiler= PL-6/E31         Sev=      00
 SharedLib= :SHARED_SYSTEM                                    Alt SharedLib=


    ****  Control sections  ****

 Sect   Type Bound  Init  Size OctSiz  Section name(segment info)
    0   DCB   even  none     0      0  M$UC
    1   DCB   even  none     0      0  M$EI
    2   DCB   even  none     0      0  M$EO
    3   DCB   even  none     0      0  M$EO1
    4   DCB   even  none     0      0  M$ME
    5   DCB   even  none     0      0  M$SI
    6   DCB   even  none     0      0  M$READFILE
    7   DCB   even  none     0      0  M$DO
    8   DCB   even  none     0      0  M$STD1
    9   DCB   even  none     0      0  M$SORT1
   10   Data  even  none    49     61  VPF$GET_NEXT_SPEC
   11  RoData even  UTS      3      3  VPF$GET_NEXT_SPEC
   12   Proc  even  none   841   1511  VPF$GET_NEXT_SPEC
   13  RoData even  none    55     67  VPF$GET_NEXT_SPEC

    ****  Entry defs  ****

                              Check   Calling
                             calling  sequence
  Sect OctLoc Primary Altret sequence   type   Parms  Name
    12      0   yes            yes      Std        2  VPF$GET_NEXT_SPEC
PL6.E3A0      #003=VPF$GET_NEXT_SPEC File=VPF$SRCLST.:E05TSI                     WED 07/30/97 07:34 Page:79

  ****  Entry refs  ****

         Check        Calling
        calling       sequence
Altret sequence SRef   type   Args  Name
         yes           Std       8 VPL$ERR_PROC
 yes     yes           Std       2 VPD$FID
         yes           Std       1 VPD$GET_IN_DEV_MASK
         yes           Std       2 VPD$ANAL_NAME
 yes     yes           Std       1 VPF$PROCESS_INPUT_OPT
                       nStd      0 X66_AUTO_2
                       Std       0 B_CONSPOOL_D
                       nStd      0 X66_ARET

  ****  Data refs  ****

  Flags:  r = read only, s = secondary
Flgs Name                             Flgs Name                             Flgs Name
     M$UC                                  CON_DUP_TBL                           REC_SEL_CNT
     THIS_STD_FILE                         BREAK_LOC                             BREAK_MESSAGE_REPORTER
     CMD_MASK                              SPEC_BUF                              SINGLE_INSPEC
     IN_NAME                               IN_ACCT                               IN_PASS
     IN_RES                                IN_SN                                 IN_WSN
     IN_ASN                                FROM_NAME                             FROM_ACCT
     FROM_PASS                             FROM_RES                              FROM_SN
     FROM_WSN                              FROM_ASN                              ICB
     DEV_ICB                               DEF_ICB                               M$EI
     M$EO                                  M$EO1                                 M$ME
     M$SI                                  M$READFILE                            M$DO
     M$STD1                                M$SORT1                               B$JIT$
     FPT_FID_IN                            RESULTS_FID_IN                        RESULTS_FID_FROM
     B_VECTNIL
PL6.E3A0      #003=VPF$GET_NEXT_SPEC File=VPF$SRCLST.:E05TSI                     WED 07/30/97 07:34 Page:80

  ****  Segment refs  ****

  Flags:  r = read only, s = secondary
Flgs Name                             Flgs Name                             Flgs Name
     ISSID                                 NULLSID
PL6.E3A0      #003=VPF$GET_NEXT_SPEC File=VPF$SRCLST.:E05TSI                     WED 07/30/97 07:34 Page:81


      216        1        /*T***********************************************************/
      217        2        /*T*                                                         */
      218        3        /*T* Copyright (c) Bull HN Information Systems Inc., 1997    */
      219        4        /*T*                                                         */
      220        5        /*T***********************************************************/
      221        6        /*F* NAME: VPF$SRCLST
      222        7             PURPOSE: To process into a useable form, SOURCELIST and any associated
      223        8                      options.
      224        9        */
      225       10        VPF$GET_NEXT_SPEC: PROC(RET_VAL,SOURCELIST$);

     10 12 000000   000000 700200 xent  VPF$GET_NEX* TSX0  ! X66_AUTO_2
        12 000001   000034 000002                    ZERO    28,2

      226       11        /*D* NAME: VPF$GET_NEXT_SPEC
      227       12             CALL: CALL VPF$GET_NEXT_SPEC(RET_VAL,SOURCELIST$);
      228       13                       where RET_VAL(SBIN WORD) will be returned
      229       14                                   0 if no errors,
      230       15                                   1 if no more SOURCELIST,
      231       16                                   2 if any errors.
      232       17                             SOURCELIST$(PTR) is a pointer to the SOURCELIST head
      233       18                                   node.
      234       19             DESCRIPTION: This procedure tries to get the next file or range spec.
      235       20                          from SOURCELIST and process the options into
      236       21                          ICB (INPUT CONTROL BLOCK). If SOURCELIST$ is specified,
      237       22                          internal variables are set to start at the beginning of
      238       23                          the referenced SOURCELIST, otherwise processing continues
      239       24                          where it last left off. If SOURCELIST$ = ADDR(NIL), the
      240       25                          default SOURCELIST of '.' is assumed. ICB.SPEC_TYPE will be
      241       26                          set as below:
      242       27                              VALUE         DESCRIPTION
      243       28                              -----         -----------
      244       29                                1           single FID reference
      245       30                                2           full range of directory device
      246       31                                3           sub range of directory device
      247       32                                4           wildcard of type ?ABC
PL6.E3A0      #003=VPF$GET_NEXT_SPEC File=VPF$SRCLST.:E05TSI                     WED 07/30/97 07:34 Page:82
      248       33                                5           wildcard of type ABC?
      249       34                                6           (unused/undefined)
      250       35                                7           single FSN reference
      251       36                                8           FSN range reference
      252       37                          All necessary information will be returned in ICB and
      253       38                          the M$FID returned fields.
      254       39                          RET_VAL will be returned as below:
      255       40                              VALUE         DESCRIPTION
      256       41                              -----         -----------
      257       42                                0           All fine. A spec is returned.
      258       43                                1           No more SOURCELIST to process.
      259       44                                2           Error.
      260       45        */
      261       46        /**/
      262       47        /*  PARAMETERS  */
      263       48        /**/
      264       49    1   DCL RET_VAL SBIN WORD;
      265       50    1   DCL SOURCELIST$ PTR;
      266       51        /**/
      267       52        /*  INCLUDE FILES  */
      268       53        /**/
      269       54        %INCLUDE B$JIT;
      270      344        %INCLUDE VP_DATA_R;
      271     7331        /**/
      272     7332        /*  LOCAL STATIC  */
      273     7333        /**/
      274     7334    1   DCL SL$ PTR STATIC;
      275     7335    1   DCL SL_IDX SBIN WORD STATIC;
      276     7336    1   DCL NL$ PTR STATIC;
      277     7337    1   DCL NL_IDX SBIN WORD STATIC;
      278     7338        %VLR_FID(FPTN = RESULTS_FID_END,STCLASS = STATIC);
      279     7357        %FPT_FID(FPTN = FPT_FID_END,
      280     7358                 NAME = END_NAME,
      281     7359                 ACCT = END_DUMMY,
      282     7360                 PASS = END_DUMMY,
      283     7361                 SN   = END_DUMMY,
      284     7362                 WSN  = END_DUMMY,
PL6.E3A0      #003=VPF$GET_NEXT_SPEC File=VPF$SRCLST.:E05TSI                     WED 07/30/97 07:34 Page:83
      285     7363                 ASN  = END_DUMMY,
      286     7364                 RES  = END_DUMMY,
      287     7365                 RESULTS = RESULTS_FID_END,
      288     7366                 STCLASS = STATIC);
      289     7389    1   DCL 1 END_NAME STATIC,
      290     7390    1         2 LEN UBIN BYTE UNAL,
      291     7391    1         2 STRING CHAR(31);
      292     7392    1   DCL END_DUMMY CHAR(10) STATIC;
      293     7393        %PARSE$OUT(NAME = OUT$BLK,STCLASS = BASED);
      294     7438        %PARSE$SYM(NAME = OUT$SYM,STCLASS = BASED);
      295     7476    1   DCL 1 TEXT$C BASED,
      296     7477    1         2 LEN UBIN BYTE UNAL,
      297     7478    1         2 STRING CHAR(TEXT$C.LEN);
      298     7479    1   DCL 1 TEXT$C_BIT BASED,
      299     7480    1         2 LEN UBIN BYTE UNAL,
      300     7481    1         2 STRING,
      301     7482    1           3 STRINGC CHAR(TEXT$C_BIT.LEN);
      302     7483    1   DCL 1 TEXT$C_ARY BASED,
      303     7484    1         2 LEN UBIN BYTE UNAL,
      304     7485    1         2 STRING(0:0) CHAR(1);
      305     7486        /**/
      306     7487        /*  LOCAL AUTO  */
      307     7488        /**/
      308     7489    1   DCL IN_OPT$ PTR;
      309     7490    1   DCL NE$ PTR;
      310     7491    1   DCL NEW_FID_LEN SBIN WORD;
      311     7492        /**/
      312     7493        /*  ENTRY DCLS  */
      313     7494        /**/
      314     7495        %VP_ENTRIES (OMIT=VPF$GET_NEXT_SPEC);
      315     7703        /**/
      316     7704    1           RET_VAL = 0;

   7704 12 000002   200003 470500                    LDP0    @RET_VAL,,AUTO
        12 000003   000000 450100                    STZ     0,,PR0

      317     7705    1           IF ADDR(SOURCELIST$)~=ADDR(NIL)
PL6.E3A0      #003=VPF$GET_NEXT_SPEC File=VPF$SRCLST.:E05TSI                     WED 07/30/97 07:34 Page:84

   7705 12 000004   200004 236100                    LDQ     @SOURCELIST$,,AUTO
        12 000005   000001 116000 xsym               CMPQ    B_VECTNIL+1
        12 000006   000017 600000 12                 TZE     s:7713

      318     7706    1            THEN
      319     7707    2            DO;                            /* INITIALIZE TO NEW SOURCELIST       */

      320     7708    2               SINGLE_INSPEC = 0;          /* Init SINGLE INPUT SPEC to FALSE    */

   7708 12 000007   000000 450000 xsym               STZ     SINGLE_INSPEC

      321     7709    2               SL$=SOURCELIST$;

   7709 12 000010   200004 471500                    LDP1    @SOURCELIST$,,AUTO
        12 000011   100000 236100                    LDQ     0,,PR1
        12 000012   000000 756000 10                 STQ     SL$

      322     7710    2               SL_IDX=-1;

   7710 12 000013   000001 335007                    LCA     1,DL
        12 000014   000001 755000 10                 STA     SL_IDX

      323     7711    2               NL$=ADDR(NIL);

   7711 12 000015   000001 236000 xsym               LDQ     B_VECTNIL+1
        12 000016   000002 756000 10                 STQ     NL$

      324     7712    2               END;

      325     7713    1           IN_OPT$=ADDR(NIL);

   7713 12 000017   000001 236000 xsym               LDQ     B_VECTNIL+1
        12 000020   200005 756100                    STQ     IN_OPT$,,AUTO

      326     7714    1           IF NL$=ADDR(NIL)

PL6.E3A0      #003=VPF$GET_NEXT_SPEC File=VPF$SRCLST.:E05TSI                     WED 07/30/97 07:34 Page:85
   7714 12 000021   000002 236000 10                 LDQ     NL$
        12 000022   000001 116000 xsym               CMPQ    B_VECTNIL+1
        12 000023   000031 601000 12                 TNZ     s:7719

      327     7715    1            THEN
      328     7716    1              CALL NEXT_SOURCE(RET_VAL);

   7716 12 000024   200003 236100                    LDQ     @RET_VAL,,AUTO
        12 000025   200011 756100                    STQ     NEW_FID_LEN+2,,AUTO
        12 000026   000773 701000 12                 TSX1    NEXT_SOURCE
        12 000027   000000 011000                    NOP     0
        12 000030   000043 710000 12                 TRA     s:7724

      329     7717    1            ELSE
      330     7718    2            DO;

      331     7719    2               NL_IDX=NL_IDX+1;

   7719 12 000031   000003 054000 10                 AOS     NL_IDX

      332     7720    2               IF NL_IDX>=NL$->OUT$BLK.NSUBLKS

   7720 12 000032   000002 471400 10                 LDP1    NL$
        12 000033   100001 236100                    LDQ     1,,PR1
        12 000034   000022 772000                    QRL     18
        12 000035   000003 116000 10                 CMPQ    NL_IDX
        12 000036   000043 605400 12                 TPNZ    s:7724

      333     7721    2                THEN
      334     7722    2                  CALL NEXT_SOURCE(RET_VAL);

   7722 12 000037   200003 236100                    LDQ     @RET_VAL,,AUTO
        12 000040   200011 756100                    STQ     NEW_FID_LEN+2,,AUTO
        12 000041   000773 701000 12                 TSX1    NEXT_SOURCE
        12 000042   000000 011000                    NOP     0

      335     7723    2               END;
PL6.E3A0      #003=VPF$GET_NEXT_SPEC File=VPF$SRCLST.:E05TSI                     WED 07/30/97 07:34 Page:86

      336     7724    1           IF RET_VAL~=0

   7724 12 000043   200003 470500                    LDP0    @RET_VAL,,AUTO
        12 000044   000000 235100                    LDA     0,,PR0
        12 000045   000047 600000 12                 TZE     s:7727

      337     7725    1            THEN                           /* We didn't get anything             */
      338     7726    1              RETURN;

   7726 12 000046   000000 702200 xent               TSX2  ! X66_ARET

      339     7727    1           ICB = DEV_ICB;

   7727 12 000047   000000 100400                    MLR     fill='000'O
        12 000050   000000 001214 xsym               ADSC9   DEV_ICB                  cn=0,n=652
        12 000051   000000 001214 xsym               ADSC9   ICB                      cn=0,n=652

      340     7728    1           IF NL$~=ADDR(NIL)

   7728 12 000052   000002 236000 10                 LDQ     NL$
        12 000053   000001 116000 xsym               CMPQ    B_VECTNIL+1
        12 000054   000366 600000 12                 TZE     s:7825

      341     7729    1            THEN
      342     7730    2            DO;

      343     7731    2               NE$ = NL$->OUT$BLK.SUBLK$(NL_IDX);

   7731 12 000055   000002 471400 10                 LDP1    NL$
        12 000056   000003 720000 10                 LXL0    NL_IDX
        12 000057   100003 236110                    LDQ     3,X0,PR1
        12 000060   200006 756100                    STQ     NE$,,AUTO

      344     7732    2               IF NE$->OUT$BLK.SUBLK$(0)->OUT$BLK.CODE=4

   7732 12 000061   200006 473500                    LDP3    NE$,,AUTO
PL6.E3A0      #003=VPF$GET_NEXT_SPEC File=VPF$SRCLST.:E05TSI                     WED 07/30/97 07:34 Page:87
        12 000062   300003 474500                    LDP4    3,,PR3
        12 000063   400000 721100                    LXL1    0,,PR4
        12 000064   000004 101003                    CMPX1   4,DU
        12 000065   000224 601000 12                 TNZ     s:7773

      345     7733    2                THEN
      346     7734    3                DO;                        /* FID                                */

      347     7735    3                   IF (IN_ASN ~= %TAPE# AND IN_ASN ~= %FILE#)

   7735 12 000066   000000 236000 xsym               LDQ     IN_ASN
        12 000067   777000 376003                    ANQ     -512,DU
        12 000070   002000 116003                    CMPQ    1024,DU
        12 000071   000122 600000 12                 TZE     s:7748
        12 000072   001000 116003                    CMPQ    512,DU
        12 000073   000122 600000 12                 TZE     s:7748
        12 000074   000020 236000 xsym               LDQ     ICB+16
        12 000075   777000 316003                    CANQ    -512,DU
        12 000076   000122 600000 12                 TZE     s:7748

      348     7736    3                     AND ICB.FID.LEN ~= 0
      349     7737    3                    THEN                   /* Either bad OPT or FID              */
      350     7738                                                /* since a fid exists and no device   */
      351     7739                                                /* specified                          */
      352     7740    4                    DO;

      353     7741    4                       CALL VPL$ERR_PROC(3,56,'06'O,,,,,1); /* ABORT and return  */

   7741 12 000077   000002 236000 13                 LDQ     2
        12 000100   000001 235000 xsym               LDA     B_VECTNIL+1
        12 000101   200026 757100                    STAQ    OPT_IDX+7,,AUTO
        12 000102   000001 236000 xsym               LDQ     B_VECTNIL+1
        12 000103   000001 235000 xsym               LDA     B_VECTNIL+1
        12 000104   200024 757100                    STAQ    OPT_IDX+5,,AUTO
        12 000105   000001 236000 xsym               LDQ     B_VECTNIL+1
        12 000106   000003 235000 13                 LDA     3
        12 000107   200022 757100                    STAQ    OPT_IDX+3,,AUTO
PL6.E3A0      #003=VPF$GET_NEXT_SPEC File=VPF$SRCLST.:E05TSI                     WED 07/30/97 07:34 Page:88
        12 000110   000004 237000 13                 LDAQ    4
        12 000111   200020 757100                    STAQ    OPT_IDX+1,,AUTO
        12 000112   200020 630500                    EPPR0   OPT_IDX+1,,AUTO
        12 000113   000026 631400 xsym               EPPR1   B_VECTNIL+22
        12 000114   000000 701000 xent               TSX1    VPL$ERR_PROC
        12 000115   000000 011000                    NOP     0

      354     7742        /*E* ERROR:   VPF-00056
      355     7743             MESSAGE: Bad input option encountered
      356     7744        */
      357     7745    4                       RET_VAL = 2;        /* Error return                       */

   7745 12 000116   000002 235007                    LDA     2,DL
        12 000117   200003 470500                    LDP0    @RET_VAL,,AUTO
        12 000120   000000 755100                    STA     0,,PR0

      358     7746    4                       RETURN;

   7746 12 000121   000000 702200 xent               TSX2  ! X66_ARET

      359     7747    4                       END;
      360     7748    3                   NEW_FID_LEN = ICB.FID.LEN+NE$->OUT$BLK.SUBLK$(0)->

   7748 12 000122   400003 475500                    LDP5    3,,PR4
        12 000123   000100 101500                    MRL     fill='000'O
        12 000124   500000 000001                    ADSC9   0,,PR5                   cn=0,n=1
        12 000125   200020 000004                    ADSC9   OPT_IDX+1,,AUTO          cn=0,n=4
        12 000126   000020 236000 xsym               LDQ     ICB+16
        12 000127   000033 772000                    QRL     27
        12 000130   200020 036100                    ADLQ    OPT_IDX+1,,AUTO
        12 000131   200007 756100                    STQ     NEW_FID_LEN,,AUTO

      361     7749    3                     OUT$BLK.SUBLK$(0)->TEXT$C.LEN;
      362     7750    3                   IF NEW_FID_LEN>SIZEC(ICB.FID.STRING)

   7750 12 000132   000117 116007                    CMPQ    79,DL
        12 000133   000157 604400 12                 TMOZ    s:7760
PL6.E3A0      #003=VPF$GET_NEXT_SPEC File=VPF$SRCLST.:E05TSI                     WED 07/30/97 07:34 Page:89

      363     7751    3                    THEN
      364     7752    4                    DO;

      365     7753    4                       CALL VPL$ERR_PROC(3,1,'06'O,,,,,1); /* INPUT FID TOO LONG */

   7753 12 000134   000002 236000 13                 LDQ     2
        12 000135   000001 235000 xsym               LDA     B_VECTNIL+1
        12 000136   200026 757100                    STAQ    OPT_IDX+7,,AUTO
        12 000137   000001 236000 xsym               LDQ     B_VECTNIL+1
        12 000140   000001 235000 xsym               LDA     B_VECTNIL+1
        12 000141   200024 757100                    STAQ    OPT_IDX+5,,AUTO
        12 000142   000001 236000 xsym               LDQ     B_VECTNIL+1
        12 000143   000003 235000 13                 LDA     3
        12 000144   200022 757100                    STAQ    OPT_IDX+3,,AUTO
        12 000145   000006 237000 13                 LDAQ    6
        12 000146   200020 757100                    STAQ    OPT_IDX+1,,AUTO
        12 000147   200020 630500                    EPPR0   OPT_IDX+1,,AUTO
        12 000150   000026 631400 xsym               EPPR1   B_VECTNIL+22
        12 000151   000000 701000 xent               TSX1    VPL$ERR_PROC
        12 000152   000000 011000                    NOP     0

      366     7754        /*E* ERROR:   VPF-00001
      367     7755             MESSAGE: Input FID too long
      368     7756        */
      369     7757    4                       RET_VAL = 2;

   7757 12 000153   000002 235007                    LDA     2,DL
        12 000154   200003 470500                    LDP0    @RET_VAL,,AUTO
        12 000155   000000 755100                    STA     0,,PR0

      370     7758    4                       RETURN;

   7758 12 000156   000000 702200 xent               TSX2  ! X66_ARET

      371     7759    4                       END;
      372     7760    3                   CALL INSERT(ICB.FID.STRING,
PL6.E3A0      #003=VPF$GET_NEXT_SPEC File=VPF$SRCLST.:E05TSI                     WED 07/30/97 07:34 Page:90

   7760 12 000157   300003 474500                    LDP4    3,,PR3
        12 000160   400003 475500                    LDP5    3,,PR4
        12 000161   000100 101500                    MRL     fill='000'O
        12 000162   500000 000001                    ADSC9   0,,PR5                   cn=0,n=1
        12 000163   200020 000002                    ADSC9   OPT_IDX+1,,AUTO          cn=0,n=2
        12 000164   200020 221100                    LDX1    OPT_IDX+1,,AUTO
        12 000165   000020 236000 xsym               LDQ     ICB+16
        12 000166   000033 772000                    QRL     27
        12 000167   777660 622006                    EAX2    -80,QL
        12 000170   777777 662003                    ERX2    -1,DU
        12 000171   040046 100540                    MLR     fill='040'O
        12 000172   500000 200011                    ADSC9   0,,PR5                   cn=1,n=*X1
        12 000173   000020 200012 xsym               ADSC9   ICB+16,Q                 cn=1,n=*X2

      373     7761    3                     ICB.FID.LEN,,
      374     7762    3                     NE$->OUT$BLK.SUBLK$(0)->OUT$BLK.SUBLK$(0)->
      375     7763    3                     TEXT$C.STRING);       /* Append the rest of the FID         */
      376     7764    3                   ICB.FID.LEN = NEW_FID_LEN;

   7764 12 000174   200007 236100                    LDQ     NEW_FID_LEN,,AUTO
        12 000175   000033 736000                    QLS     27
        12 000176   000020 552040 xsym               STBQ    ICB+16,'40'O

      377     7765    3                   FPT_FID_IN.TEXTFID_   = VECTOR(ADDR(ICB.FID)->TEXT$C.STRING);

   7765 12 000177   000020 236000 xsym               LDQ     ICB+16
        12 000200   000033 772000                    QRL     27
        12 000201   000064 737000                    LLS     52
        12 000202   000140 135007                    SBLA    96,DL
        12 000203   000010 236000 13                 LDQ     8
        12 000204   000002 757000 xsym               STAQ    FPT_FID_IN+2

      378     7766    3                   CALL VPD$FID(FPT_FID_IN,1) ALTRET(FID_ALT_1);

   7766 12 000205   000011 630400 13                 EPPR0   9
        12 000206   000020 631400 xsym               EPPR1   B_VECTNIL+16
PL6.E3A0      #003=VPF$GET_NEXT_SPEC File=VPF$SRCLST.:E05TSI                     WED 07/30/97 07:34 Page:91
        12 000207   000000 701000 xent               TSX1    VPD$FID
        12 000210   000664 702000 12                 TSX2    FID_ALT_1

      379     7767    3                   IF IN_NAME.LEN=0

   7767 12 000211   000000 236000 xsym               LDQ     IN_NAME
        12 000212   777000 316003                    CANQ    -512,DU
        12 000213   000216 601000 12                 TNZ     s:7770

      380     7768    3                    THEN
      381     7769    3                      RESULTS_FID_IN.NAME = '0'B;

   7769 12 000214   000031 236000 xsym               LDQ     B_VECTNIL+25
        12 000215   000000 356000 xsym               ANSQ    RESULTS_FID_IN

      382     7770    3                   CALL ADD_FROM_INFO;

   7770 12 000216   000670 701000 12                 TSX1    ADD_FROM_INFO
        12 000217   000000 011000                    NOP     0

      383     7771    3                   CALL VPD$GET_IN_DEV_MASK(ICB);

   7771 12 000220   000013 630400 13                 EPPR0   11
        12 000221   000017 631400 xsym               EPPR1   B_VECTNIL+15
        12 000222   000000 701000 xent               TSX1    VPD$GET_IN_DEV_MASK
        12 000223   000000 011000                    NOP     0

      384     7772    3                   END;

      385     7773    2               IF NE$->OUT$BLK.NSUBLKS>1

   7773 12 000224   200006 470500                    LDP0    NE$,,AUTO
        12 000225   000001 220100                    LDX0    1,,PR0
        12 000226   000002 100003                    CMPX0   2,DU
        12 000227   000353 602000 12                 TNC     s:7819

      386     7774    2                THEN
PL6.E3A0      #003=VPF$GET_NEXT_SPEC File=VPF$SRCLST.:E05TSI                     WED 07/30/97 07:34 Page:92
      387     7775    2                  IF NE$->OUT$BLK.SUBLK$(1)->OUT$BLK.CODE=4

   7775 12 000230   000004 471500                    LDP1    4,,PR0
        12 000231   100000 721100                    LXL1    0,,PR1
        12 000232   000004 101003                    CMPX1   4,DU
        12 000233   000353 601000 12                 TNZ     s:7819

      388     7776    2                   THEN                    /* RANGE END                          */
      389     7777    2                     IF ICB.DEV_MASK & '300'O

   7777 12 000234   000171 236000 xsym               LDQ     ICB+121
        12 000235   777000 376003                    ANQ     -512,DU
        12 000236   300000 376003                    ANQ     98304,DU
        12 000237   000330 600000 12                 TZE     s:7809

      390     7778    2                      THEN                 /* IF MANAGED...                      */
      391     7779    2                        IF NE$->OUT$BLK.SUBLK$(1)->OUT$BLK.NSUBLKS=0

   7779 12 000240   100001 222100                    LDX2    1,,PR1
        12 000241   000246 601000 12                 TNZ     s:7787

      392     7780    2                         THEN
      393     7781    2                           ICB.NAME_RANGE_END = BITASC('777'O);

   7781 12 000242   040000 100400                    MLR     fill='040'O
        12 000243   000014 000001 13                 ADSC9   12                       cn=0,n=1
        12 000244   000140 000037 xsym               ADSC9   ICB+96                   cn=0,n=31
        12 000245   000353 710000 12                 TRA     s:7819

      394     7782                                                /* AN IMPOSSIBLY HIGH-SORTING         */
      395     7783                                                /* FILENAME TO DENOTE TILL END        */
      396     7784                                                /* OF ACCOUNT.                        */
      397     7785    2                         ELSE
      398     7786    3                         DO;               /* AN ENDING FILENAME WAS GIVEN       */

      399     7787    3                            FPT_FID_END.TEXTFID_ = VECTOR(NE$->OUT$BLK.SUBLK$(1)->

PL6.E3A0      #003=VPF$GET_NEXT_SPEC File=VPF$SRCLST.:E05TSI                     WED 07/30/97 07:34 Page:93
   7787 12 000246   100003 473500                    LDP3    3,,PR1
        12 000247   300004 236100                    LDQ     4,,PR3
        12 000250   000033 772000                    QRL     27
        12 000251   000064 737000                    LLS     52
        12 000252   000140 135007                    SBLA    96,DL
        12 000253   200020 453500                    STP3    OPT_IDX+1,,AUTO
        12 000254   200020 236100                    LDQ     OPT_IDX+1,,AUTO
        12 000255   000015 036000 13                 ADLQ    13
        12 000256   000020 757000 10                 STAQ    FPT_FID_END+2

      400     7788    3                              OUT$BLK.SUBLK$(0)->OUT$SYM.TEXT);
      401     7789    3                            CALL VPD$FID(FPT_FID_END,1) ALTRET(FID_ALT_1);

   7789 12 000257   000016 630400 13                 EPPR0   14
        12 000260   000020 631400 xsym               EPPR1   B_VECTNIL+16
        12 000261   000000 701000 xent               TSX1    VPD$FID
        12 000262   000664 702000 12                 TSX2    FID_ALT_1

      402     7790    3                            IF RESULTS_FID_END.ACCT

   7790 12 000263   000004 236000 10                 LDQ     RESULTS_FID_END
        12 000264   200000 316003                    CANQ    65536,DU
        12 000265   000301 601000 12                 TNZ     s:7797
        12 000266   000004 236000 10                 LDQ     RESULTS_FID_END
        12 000267   400000 376003                    ANQ     -131072,DU
        12 000270   400000 676003                    ERQ     -131072,DU
        12 000271   000301 601000 12                 TNZ     s:7797
        12 000272   000004 236000 10                 LDQ     RESULTS_FID_END
        12 000273   100000 316003                    CANQ    32768,DU
        12 000274   000301 601000 12                 TNZ     s:7797
        12 000275   020000 316003                    CANQ    8192,DU
        12 000276   000301 601000 12                 TNZ     s:7797
        12 000277   040000 316003                    CANQ    16384,DU
        12 000300   000324 600000 12                 TZE     s:7805

      403     7791    3                              OR ~RESULTS_FID_END.NAME
      404     7792    3                              OR RESULTS_FID_END.PASS
PL6.E3A0      #003=VPF$GET_NEXT_SPEC File=VPF$SRCLST.:E05TSI                     WED 07/30/97 07:34 Page:94
      405     7793    3                              OR RESULTS_FID_END.WSN
      406     7794    3                              OR RESULTS_FID_END.SN
      407     7795    3                             THEN
      408     7796    4                             DO;

      409     7797    4                                CALL VPL$ERR_PROC(3,41,'06'O,,,,,1);

   7797 12 000301   000002 236000 13                 LDQ     2
        12 000302   000001 235000 xsym               LDA     B_VECTNIL+1
        12 000303   200026 757100                    STAQ    OPT_IDX+7,,AUTO
        12 000304   000001 236000 xsym               LDQ     B_VECTNIL+1
        12 000305   000001 235000 xsym               LDA     B_VECTNIL+1
        12 000306   200024 757100                    STAQ    OPT_IDX+5,,AUTO
        12 000307   000001 236000 xsym               LDQ     B_VECTNIL+1
        12 000310   000003 235000 13                 LDA     3
        12 000311   200022 757100                    STAQ    OPT_IDX+3,,AUTO
        12 000312   000022 237000 13                 LDAQ    18
        12 000313   200020 757100                    STAQ    OPT_IDX+1,,AUTO
        12 000314   200020 630500                    EPPR0   OPT_IDX+1,,AUTO
        12 000315   000026 631400 xsym               EPPR1   B_VECTNIL+22
        12 000316   000000 701000 xent               TSX1    VPL$ERR_PROC
        12 000317   000000 011000                    NOP     0

      410     7798        /*E*   ERROR: VPF-00041
      411     7799             MESSAGE: NAME only allowed for end of range specification
      412     7800            */
      413     7801    4                                RET_VAL = 2;

   7801 12 000320   000002 235007                    LDA     2,DL
        12 000321   200003 470500                    LDP0    @RET_VAL,,AUTO
        12 000322   000000 755100                    STA     0,,PR0

      414     7802    4                                RETURN;

   7802 12 000323   000000 702200 xent               TSX2  ! X66_ARET

      415     7803    4                                END;
PL6.E3A0      #003=VPF$GET_NEXT_SPEC File=VPF$SRCLST.:E05TSI                     WED 07/30/97 07:34 Page:95
      416     7804    3                             ELSE
      417     7805    3                               ICB.NAME_RANGE_END = END_NAME.STRING;

   7805 12 000324   040000 100400                    MLR     fill='040'O
        12 000325   000046 200037 10                 ADSC9   END_NAME                 cn=1,n=31
        12 000326   000140 000037 xsym               ADSC9   ICB+96                   cn=0,n=31

      418     7806    3                            END;

   7806 12 000327   000353 710000 12                 TRA     s:7819

      419     7807    2                      ELSE                 /* Not managed and attempted range    */
      420     7808    3                      DO;

      421     7809    3                         CALL VPL$ERR_PROC(3,2,'06'O,,VECTOR(ICB.FID),,,1);

   7809 12 000330   000002 236000 13                 LDQ     2
        12 000331   000001 235000 xsym               LDA     B_VECTNIL+1
        12 000332   200026 757100                    STAQ    OPT_IDX+7,,AUTO
        12 000333   000001 236000 xsym               LDQ     B_VECTNIL+1
        12 000334   000021 235000 13                 LDA     17
        12 000335   200024 757100                    STAQ    OPT_IDX+5,,AUTO
        12 000336   000001 236000 xsym               LDQ     B_VECTNIL+1
        12 000337   000003 235000 13                 LDA     3
        12 000340   200022 757100                    STAQ    OPT_IDX+3,,AUTO
        12 000341   000026 237000 13                 LDAQ    22
        12 000342   200020 757100                    STAQ    OPT_IDX+1,,AUTO
        12 000343   200020 630500                    EPPR0   OPT_IDX+1,,AUTO
        12 000344   000026 631400 xsym               EPPR1   B_VECTNIL+22
        12 000345   000000 701000 xent               TSX1    VPL$ERR_PROC
        12 000346   000000 011000                    NOP     0

      422     7810        /*E* ERROR:   VPF-00002
      423     7811             MESSAGE: Device range not allowed.
      424     7812            MESSAGE1: '%U1' is not a managed resource, so a range of file
      425     7813                      names is impossible.
      426     7814        */
PL6.E3A0      #003=VPF$GET_NEXT_SPEC File=VPF$SRCLST.:E05TSI                     WED 07/30/97 07:34 Page:96
      427     7815                                                /* RANGE NOT ALLOWED                  */
      428     7816    3                         RET_VAL = 2;

   7816 12 000347   000002 235007                    LDA     2,DL
        12 000350   200003 470500                    LDP0    @RET_VAL,,AUTO
        12 000351   000000 755100                    STA     0,,PR0

      429     7817    3                         RETURN;

   7817 12 000352   000000 702200 xent               TSX2  ! X66_ARET

      430     7818    3                         END;
      431     7819    2               IF NE$->OUT$BLK.SUBLK$(NE$->OUT$BLK.NSUBLKS-1)->OUT$BLK.CODE=1

   7819 12 000353   200006 470500                    LDP0    NE$,,AUTO
        12 000354   000001 220100                    LDX0    1,,PR0
        12 000355   000002 471510                    LDP1    2,X0,PR0
        12 000356   100000 721100                    LXL1    0,,PR1
        12 000357   000001 101003                    CMPX1   1,DU
        12 000360   000364 601000 12                 TNZ     s:7823

      432     7820    2                THEN
      433     7821    2                  IN_OPT$ = NE$->OUT$BLK.SUBLK$(NE$->OUT$BLK.NSUBLKS-1);

   7821 12 000361   000002 236110                    LDQ     2,X0,PR0
        12 000362   200005 756100                    STQ     IN_OPT$,,AUTO
        12 000363   000366 710000 12                 TRA     s:7825

      434     7822    2                ELSE
      435     7823    2                  IN_OPT$ = ADDR(NIL);

   7823 12 000364   000001 236000 xsym               LDQ     B_VECTNIL+1
        12 000365   200005 756100                    STQ     IN_OPT$,,AUTO

      436     7824    2               END;

      437     7825    1           IF (CMD_MASK & '000600'O)       /* LIST, LISTSTD                      */
PL6.E3A0      #003=VPF$GET_NEXT_SPEC File=VPF$SRCLST.:E05TSI                     WED 07/30/97 07:34 Page:97

   7825 12 000366   000100 100400                    MLR     fill='000'O
        12 000367   000000 000010 xsym               ADSC9   CMD_MASK                 cn=0,n=8
        12 000370   200020 000010                    ADSC9   OPT_IDX+1,,AUTO          cn=0,n=8
        12 000371   200020 237100                    LDAQ    OPT_IDX+1,,AUTO
        12 000372   000030 377000 13                 ANAQ    24
        12 000373   000400 600000 12                 TZE     s:7829
        12 000374   000171 236000 xsym               LDQ     ICB+121
        12 000375   777000 376003                    ANQ     -512,DU
        12 000376   300000 376003                    ANQ     98304,DU
        12 000377   000412 600000 12                 TZE     NEED_MAN

      438     7826    1             AND NOT (ICB.DEV_MASK & '300'O) /* AND NOT MANAGED                  */
      439     7827    1            THEN
      440     7828    1              GOTO NEED_MAN;
      441     7829    1           IF (CMD_MASK & '14000'O)        /* COPYALL, COPYSTD                   */

   7829 12 000400   000100 100400                    MLR     fill='000'O
        12 000401   000000 000010 xsym               ADSC9   CMD_MASK                 cn=0,n=8
        12 000402   200020 000010                    ADSC9   OPT_IDX+1,,AUTO          cn=0,n=8
        12 000403   200020 237100                    LDAQ    OPT_IDX+1,,AUTO
        12 000404   000032 377000 13                 ANAQ    26
        12 000405   000435 600000 12                 TZE     s:7841
        12 000406   000171 236000 xsym               LDQ     ICB+121
        12 000407   777000 376003                    ANQ     -512,DU
        12 000410   340000 376003                    ANQ     114688,DU
        12 000411   000435 601000 12                 TNZ     s:7841

      442     7830    1             AND NOT (ICB.DEV_MASK & '340'O) /* AND NOT ANY MANAGED OR FT        */
      443     7831    1            THEN
      444     7832    2            DO;

   7830 12 000412                       NEED_MAN     null
      445     7833    2   NEED_MAN:   ;
      446     7834    2               CALL VPL$ERR_PROC(3,3,'06'O,,VECTOR(ICB.FID),,,1);
              7834                        /* INPUT MUST BE MANAGED */

PL6.E3A0      #003=VPF$GET_NEXT_SPEC File=VPF$SRCLST.:E05TSI                     WED 07/30/97 07:34 Page:98
   7834 12 000412   000002 236000 13                 LDQ     2
        12 000413   000001 235000 xsym               LDA     B_VECTNIL+1
        12 000414   200026 757100                    STAQ    OPT_IDX+7,,AUTO
        12 000415   000001 236000 xsym               LDQ     B_VECTNIL+1
        12 000416   000021 235000 13                 LDA     17
        12 000417   200024 757100                    STAQ    OPT_IDX+5,,AUTO
        12 000420   000001 236000 xsym               LDQ     B_VECTNIL+1
        12 000421   000003 235000 13                 LDA     3
        12 000422   200022 757100                    STAQ    OPT_IDX+3,,AUTO
        12 000423   000034 237000 13                 LDAQ    28
        12 000424   200020 757100                    STAQ    OPT_IDX+1,,AUTO
        12 000425   200020 630500                    EPPR0   OPT_IDX+1,,AUTO
        12 000426   000026 631400 xsym               EPPR1   B_VECTNIL+22
        12 000427   000000 701000 xent               TSX1    VPL$ERR_PROC
        12 000430   000000 011000                    NOP     0

      447     7835        /*E* ERROR:   VPF-00003
      448     7836             MESSAGE: '%U1' is not a file
      449     7837        */
      450     7838    2               RET_VAL=2;

   7838 12 000431   000002 235007                    LDA     2,DL
        12 000432   200003 470500                    LDP0    @RET_VAL,,AUTO
        12 000433   000000 755100                    STA     0,,PR0

      451     7839    2               RETURN;

   7839 12 000434   000000 702200 xent               TSX2  ! X66_ARET

      452     7840    2               END;
      453     7841    1           IF (CMD_MASK & '012140002'O)    /* DELETE, DELETESTD,                 */

   7841 12 000435   000001 235000 11                 LDA     DOT_LIT+1
        12 000436   000000 236003                    LDQ     0,DU
        12 000437   200020 757100                    STAQ    OPT_IDX+1,,AUTO
        12 000440   000100 100400                    MLR     fill='000'O
        12 000441   000000 000010 xsym               ADSC9   CMD_MASK                 cn=0,n=8
PL6.E3A0      #003=VPF$GET_NEXT_SPEC File=VPF$SRCLST.:E05TSI                     WED 07/30/97 07:34 Page:99
        12 000442   200022 000010                    ADSC9   OPT_IDX+3,,AUTO          cn=0,n=8
        12 000443   200022 237100                    LDAQ    OPT_IDX+3,,AUTO
        12 000444   200020 377100                    ANAQ    OPT_IDX+1,,AUTO
        12 000445   000474 600000 12                 TZE     s:7853
        12 000446   000171 236000 xsym               LDQ     ICB+121
        12 000447   200000 316003                    CANQ    65536,DU
        12 000450   000474 601000 12                 TNZ     s:7853

      454     7842                                                /* REVIEW, REVIEWSTD, OR MODIFY       */
      455     7843    1             AND NOT (ICB.DEV_MASK.MAN_DISC) /* AND NOT DISK FILE                */
      456     7844    1            THEN
      457     7845    2            DO;

      458     7846    2               CALL VPL$ERR_PROC(3,4,'06'O,,,,,1); /* INPUT MUST BE FROM DISK    */

   7846 12 000451   000002 236000 13                 LDQ     2
        12 000452   000001 235000 xsym               LDA     B_VECTNIL+1
        12 000453   200026 757100                    STAQ    OPT_IDX+7,,AUTO
        12 000454   000001 236000 xsym               LDQ     B_VECTNIL+1
        12 000455   000001 235000 xsym               LDA     B_VECTNIL+1
        12 000456   200024 757100                    STAQ    OPT_IDX+5,,AUTO
        12 000457   000001 236000 xsym               LDQ     B_VECTNIL+1
        12 000460   000003 235000 13                 LDA     3
        12 000461   200022 757100                    STAQ    OPT_IDX+3,,AUTO
        12 000462   000036 237000 13                 LDAQ    30
        12 000463   200020 757100                    STAQ    OPT_IDX+1,,AUTO
        12 000464   200020 630500                    EPPR0   OPT_IDX+1,,AUTO
        12 000465   000026 631400 xsym               EPPR1   B_VECTNIL+22
        12 000466   000000 701000 xent               TSX1    VPL$ERR_PROC
        12 000467   000000 011000                    NOP     0

      459     7847        /*E* ERROR:   VPF-00004
      460     7848             MESSAGE: Input must be from disk
      461     7849        */
      462     7850    2               RET_VAL = 2;

   7850 12 000470   000002 235007                    LDA     2,DL
PL6.E3A0      #003=VPF$GET_NEXT_SPEC File=VPF$SRCLST.:E05TSI                     WED 07/30/97 07:34 Page:100
        12 000471   200003 470500                    LDP0    @RET_VAL,,AUTO
        12 000472   000000 755100                    STA     0,,PR0

      463     7851    2               RETURN;

   7851 12 000473   000000 702200 xent               TSX2  ! X66_ARET

      464     7852    2               END;
      465     7853    1           IF RESULTS_FID_IN.NAME

   7853 12 000474   000000 234000 xsym               SZN     RESULTS_FID_IN
        12 000475   000477 605000 12                 TPL     s:7857

      466     7854    1            THEN
      467     7855    1              ICB.FSN = '0'B;              /* INVALIDATE DEVICE FSN OPTION       */

   7855 12 000476   000044 450000 xsym               STZ     ICB+36

      468     7856                                                /* IF THIS COMPLETE FID IS NAMED      */
      469     7857    1           IF IN_OPT$~=ADDR(NIL)

   7857 12 000477   200005 236100                    LDQ     IN_OPT$,,AUTO
        12 000500   000001 116000 xsym               CMPQ    B_VECTNIL+1
        12 000501   000514 600000 12                 TZE     s:7865

      470     7858    1            THEN
      471     7859    2            DO;

      472     7860    2               CALL VERIFY_STUFF_IN_OPTS(RET_VAL,1);

   7860 12 000502   000002 236000 13                 LDQ     2
        12 000503   200016 756100                    STQ     @RET_VAL+1,,AUTO
        12 000504   200003 236100                    LDQ     @RET_VAL,,AUTO
        12 000505   200015 756100                    STQ     CODE+2,,AUTO
        12 000506   001434 701000 12                 TSX1    VERIFY_STUFF_IN_OPTS
        12 000507   000000 011000                    NOP     0

PL6.E3A0      #003=VPF$GET_NEXT_SPEC File=VPF$SRCLST.:E05TSI                     WED 07/30/97 07:34 Page:101
      473     7861    2               IF RET_VAL~=0

   7861 12 000510   200003 470500                    LDP0    @RET_VAL,,AUTO
        12 000511   000000 235100                    LDA     0,,PR0
        12 000512   000514 600000 12                 TZE     s:7865

      474     7862    2                THEN
      475     7863    2                  RETURN;

   7863 12 000513   000000 702200 xent               TSX2  ! X66_ARET

      476     7864    2               END;
      477     7865    1           CALL SET_SPEC_TYPE(RET_VAL);

   7865 12 000514   200003 236100                    LDQ     @RET_VAL,,AUTO
        12 000515   200011 756100                    STQ     NEW_FID_LEN+2,,AUTO
        12 000516   001336 701000 12                 TSX1    SET_SPEC_TYPE
        12 000517   000000 011000                    NOP     0

      478     7866    2           IF ICB.CREATOR_SEL = 0 THEN DO;

   7866 12 000520   000173 235000 xsym               LDA     ICB+123
        12 000521   000532 601000 12                 TNZ     s:7871

      479     7867    2               ICB.CREATOR_SEL = DEF_ICB.CREATOR_SEL;

   7867 12 000522   000173 236000 xsym               LDQ     DEF_ICB+123
        12 000523   000173 756000 xsym               STQ     ICB+123

      480     7868    2               ICB.CREATOR_NEG = DEF_ICB.CREATOR_NEG;

   7868 12 000524   000174 236000 xsym               LDQ     DEF_ICB+124
        12 000525   400000 376003                    ANQ     -131072,DU
        12 000526   000174 756000 xsym               STQ     ICB+124

      481     7869    2               ICB.CREATOR = DEF_ICB.CREATOR;

PL6.E3A0      #003=VPF$GET_NEXT_SPEC File=VPF$SRCLST.:E05TSI                     WED 07/30/97 07:34 Page:102
   7869 12 000527   000000 100400                    MLR     fill='000'O
        12 000530   000175 000026 xsym               ADSC9   DEF_ICB+125              cn=0,n=22
        12 000531   000175 000026 xsym               ADSC9   ICB+125                  cn=0,n=22

      482     7870    2               END;

      483     7871    2           IF ICB.SRCHCOND = '0'B THEN DO;

   7871 12 000532   000167 236000 xsym               LDQ     ICB+119
        12 000533   000040 316000 13                 CANQ    32
        12 000534   000537 601000 12                 TNZ     s:7874

      484     7872    2               ICB.SRCHCOND = DEF_ICB.SRCHCOND;

   7872 12 000535   000167 236000 xsym               LDQ     DEF_ICB+119
        12 000536   000167 552030 xsym               STBQ    ICB+119,'30'O

      485     7873    2               END;

      486     7874    2           IF ICB.DATE.TYPE = 0 THEN DO;

   7874 12 000537   000160 235000 xsym               LDA     ICB+112
        12 000540   000544 601000 12                 TNZ     s:7877

      487     7875    2               ICB.DATE = DEF_ICB.DATE;

   7875 12 000541   000000 100400                    MLR     fill='000'O
        12 000542   000160 000032 xsym               ADSC9   DEF_ICB+112              cn=0,n=26
        12 000543   000160 000032 xsym               ADSC9   ICB+112                  cn=0,n=26

      488     7876    2               END;

      489     7877    2           IF ICB.SORTING_ORDER.COUNT = 0 THEN DO;

   7877 12 000544   000204 235000 xsym               LDA     ICB+132
        12 000545   000551 601000 12                 TNZ     s:7880

PL6.E3A0      #003=VPF$GET_NEXT_SPEC File=VPF$SRCLST.:E05TSI                     WED 07/30/97 07:34 Page:103
      490     7878    2               ICB.SORTING_ORDER = DEF_ICB.SORTING_ORDER;

   7878 12 000546   000000 100400                    MLR     fill='000'O
        12 000547   000204 000134 xsym               ADSC9   DEF_ICB+132              cn=0,n=92
        12 000550   000204 000134 xsym               ADSC9   ICB+132                  cn=0,n=92

      491     7879    2               END;

      492     7880    2           IF ICB.TYPE.COUNT = 0 THEN DO;

   7880 12 000551   000150 235000 xsym               LDA     ICB+104
        12 000552   000556 601000 12                 TNZ     s:7883

      493     7881    2               ICB.TYPE = DEF_ICB.TYPE;

   7881 12 000553   000000 100400                    MLR     fill='000'O
        12 000554   000150 000034 xsym               ADSC9   DEF_ICB+104              cn=0,n=28
        12 000555   000150 000034 xsym               ADSC9   ICB+104                  cn=0,n=28

      494     7882    2               END;

      495     7883    2           IF ICB.ORG = '0'B THEN DO;

   7883 12 000556   000135 235000 xsym               LDA     ICB+93
        12 000557   000565 601000 12                 TNZ     s:7887

      496     7884    2               ICB.ORG_NEG = DEF_ICB.ORG_NEG;

   7884 12 000560   000136 236000 xsym               LDQ     DEF_ICB+94
        12 000561   400000 376003                    ANQ     -131072,DU
        12 000562   000136 756000 xsym               STQ     ICB+94

      497     7885    2               ICB.ORG = DEF_ICB.ORG;

   7885 12 000563   000135 236000 xsym               LDQ     DEF_ICB+93
        12 000564   000135 756000 xsym               STQ     ICB+93

PL6.E3A0      #003=VPF$GET_NEXT_SPEC File=VPF$SRCLST.:E05TSI                     WED 07/30/97 07:34 Page:104
      498     7886    2               END;

      499     7887    2           IF ICB.A_EA_C = 0 THEN DO;

   7887 12 000565   000014 235000 xsym               LDA     ICB+12
        12 000566   000571 601000 12                 TNZ     s:7890

      500     7888    2               ICB.A_EA_C = DEF_ICB.A_EA_C;

   7888 12 000567   000014 236000 xsym               LDQ     DEF_ICB+12
        12 000570   000014 756000 xsym               STQ     ICB+12

      501     7889    2               END;

      502     7890    2           IF ICB.COLS = 0 THEN DO;

   7890 12 000571   000016 235000 xsym               LDA     ICB+14
        12 000572   000575 601000 12                 TNZ     s:7893

      503     7891    2               ICB.COLS = DEF_ICB.COLS;

   7891 12 000573   000016 236000 xsym               LDQ     DEF_ICB+14
        12 000574   000016 756000 xsym               STQ     ICB+14

      504     7892    2               END;

      505     7893    1           IF ICB.FFID = '0'B THEN

   7893 12 000575   000137 234000 xsym               SZN     ICB+95
        12 000576   000602 604000 12                 TMI     s:7895

      506     7894    1              ICB.FFID = DEF_ICB.FFID;

   7894 12 000577   000137 236000 xsym               LDQ     DEF_ICB+95
        12 000600   400000 376003                    ANQ     -131072,DU
        12 000601   000137 756000 xsym               STQ     ICB+95

PL6.E3A0      #003=VPF$GET_NEXT_SPEC File=VPF$SRCLST.:E05TSI                     WED 07/30/97 07:34 Page:105
      507     7895    1           IF RESULTS_FID_IN.RES AND IN_RES = 'DP' AND /* If DP                  */

   7895 12 000602   000000 236000 xsym               LDQ     RESULTS_FID_IN
        12 000603   004000 316003                    CANQ    2048,DU
        12 000604   000633 600000 12                 TZE     s:7903
        12 000605   040000 106400                    CMPC    fill='040'O
        12 000606   000000 000004 xsym               ADSC9   IN_RES                   cn=0,n=4
        12 000607   000002 000002 11                 ADSC9   DOT_LIT+2                cn=0,n=2
        12 000610   000633 601000 12                 TNZ     s:7903
        12 000611   000000 236000 xsym               LDQ     RESULTS_FID_IN
        12 000612   400000 376003                    ANQ     -131072,DU
        12 000613   400000 676003                    ERQ     -131072,DU
        12 000614   000633 600000 12                 TZE     s:7903
        12 000615   000017 235000 xsym               LDA     ICB+15
        12 000616   000004 115007                    CMPA    4,DL
        12 000617   000633 600000 12                 TZE     s:7903
        12 000620   000005 115007                    CMPA    5,DL
        12 000621   000633 600000 12                 TZE     s:7903
        12 000622   000000 236000 xsym               LDQ     RESULTS_FID_IN
        12 000623   000001 736000                    QLS     1
        12 000624   400000 376003                    ANQ     -131072,DU
        12 000625   400000 676003                    ERQ     -131072,DU
        12 000626   000633 600000 12                 TZE     s:7903

      508     7896    1             ~RESULTS_FID_IN.NAME AND      /* and no name                        */
      509     7897    1             NOT (ICB.SPEC_TYPE=4 OR ICB.SPEC_TYPE=5) AND /* but wildcard is ok  */
      510     7898    1             ~RESULTS_FID_IN.ACCT THEN     /* nor account                        */
      511     7899    1              CALL VPL$ERR_PROC(3,75,'06'O); /* then complain                    */

   7899 12 000627   000042 630400 13                 EPPR0   34
        12 000630   000021 631400 xsym               EPPR1   B_VECTNIL+17
        12 000631   000000 701000 xent               TSX1    VPL$ERR_PROC
        12 000632   000000 011000                    NOP     0

      512     7900        /*E* ERROR:   VPF-00075
      513     7901             MESSAGE: Filename needed
      514     7902        */
PL6.E3A0      #003=VPF$GET_NEXT_SPEC File=VPF$SRCLST.:E05TSI                     WED 07/30/97 07:34 Page:106
      515     7903    1           IF ICB.PHYSICAL=1 AND ICB.SPEC_TYPE~=3

   7903 12 000633   000011 235000 xsym               LDA     ICB+9
        12 000634   000001 115007                    CMPA    1,DL
        12 000635   000663 601000 12                 TNZ     s:7911
        12 000636   000017 236000 xsym               LDQ     ICB+15
        12 000637   000003 116007                    CMPQ    3,DL
        12 000640   000663 600000 12                 TZE     s:7911

      516     7904    2            THEN DO;

      517     7905    2               CALL VPL$ERR_PROC(3,46,'06'O,,,,,1);

   7905 12 000641   000002 236000 13                 LDQ     2
        12 000642   000001 235000 xsym               LDA     B_VECTNIL+1
        12 000643   200026 757100                    STAQ    OPT_IDX+7,,AUTO
        12 000644   000001 236000 xsym               LDQ     B_VECTNIL+1
        12 000645   000001 235000 xsym               LDA     B_VECTNIL+1
        12 000646   200024 757100                    STAQ    OPT_IDX+5,,AUTO
        12 000647   000001 236000 xsym               LDQ     B_VECTNIL+1
        12 000650   000003 235000 13                 LDA     3
        12 000651   200022 757100                    STAQ    OPT_IDX+3,,AUTO
        12 000652   000046 237000 13                 LDAQ    38
        12 000653   200020 757100                    STAQ    OPT_IDX+1,,AUTO
        12 000654   200020 630500                    EPPR0   OPT_IDX+1,,AUTO
        12 000655   000026 631400 xsym               EPPR1   B_VECTNIL+22
        12 000656   000000 701000 xent               TSX1    VPL$ERR_PROC
        12 000657   000000 011000                    NOP     0

      518     7906        /*E*   ERROR: VPF-00046
      519     7907             MESSAGE: PHYSICAL option allowed for LT name range only
      520     7908        */
      521     7909    2               RET_VAL = 2;

   7909 12 000660   000002 235007                    LDA     2,DL
        12 000661   200003 470500                    LDP0    @RET_VAL,,AUTO
        12 000662   000000 755100                    STA     0,,PR0
PL6.E3A0      #003=VPF$GET_NEXT_SPEC File=VPF$SRCLST.:E05TSI                     WED 07/30/97 07:34 Page:107

      522     7910    2               END;

      523     7911    1           RETURN;

   7911 12 000663   000000 702200 xent               TSX2  ! X66_ARET

   7903 12 000664                       FID_ALT_1    null
      524     7912        /**/
      525     7913    1   FID_ALT_1: ;
      526     7914    1           RET_VAL = 2;

   7914 12 000664   000002 235007                    LDA     2,DL
        12 000665   200003 470500                    LDP0    @RET_VAL,,AUTO
        12 000666   000000 755100                    STA     0,,PR0

      527     7915    1           RETURN;

   7915 12 000667   000000 702200 xent               TSX2  ! X66_ARET

      528     7916        %EJECT;
PL6.E3A0      #003=VPF$GET_NEXT_SPEC File=VPF$SRCLST.:E05TSI                     WED 07/30/97 07:34 Page:108
      529     7917    1   ADD_FROM_INFO: PROC;

   7917 12 000670   200014 741300       ADD_FROM_IN* STX1  ! CODE+1,,AUTO

      530     7918        /*I* NAME: ADD_FROM_INFO
      531     7919             PURPOSE: To merge the FROM information into the current fid spec.
      532     7920             CALL: CALL ADD_FROM_INFO;
      533     7921             DESCRIPTION: This procedure is used to merge the previously processed
      534     7922                          FROM information into the current fid spec to make the
      535     7923                          usable fid spec.
      536     7924        */
      537     7925    2           IF RESULTS_FID_FROM             /* If FROM FID exists                 */

   7925 12 000671   000000 106400                    CMPC    fill='000'O
        12 000672   000000 000044 xsym               ADSC9   RESULTS_FID_FROM         cn=0,n=36
        12 000673   000002 000002 xsym               ADSC9   B_VECTNIL+2              cn=0,n=2
        12 000674   000772 600000 12                 TZE     s:7962
        12 000675   000000 234000 xsym               SZN     THIS_STD_FILE
        12 000676   000772 604000 12                 TMI     s:7962

      538     7926    2             AND NOT THIS_STD_FILE         /* AND NOT the STD file               */
      539     7927    3            THEN DO;

      540     7928    3               IF RESULTS_FID_IN.RES='0'B

   7928 12 000677   000000 236000 xsym               LDQ     RESULTS_FID_IN
        12 000700   004000 316003                    CANQ    2048,DU
        12 000701   000723 601000 12                 TNZ     s:7937

      541     7929    3                THEN
      542     7930    4                DO;

      543     7931    4                   IN_ASN = FROM_ASN;

   7931 12 000702   000000 236000 xsym               LDQ     FROM_ASN
        12 000703   000033 772000                    QRL     27
        12 000704   000033 736000                    QLS     27
PL6.E3A0      #003=VPF$GET_NEXT_SPEC File=VPF$SRCLST.:E05TSI                     WED 07/30/97 07:34 Page:109
        12 000705   000000 756000 xsym               STQ     IN_ASN

      544     7932    4                   IN_RES = FROM_RES;

   7932 12 000706   000000 236000 xsym               LDQ     FROM_RES
        12 000707   000000 756000 xsym               STQ     IN_RES

      545     7933    4                   IN_SN = FROM_SN;

   7933 12 000710   000000 100400                    MLR     fill='000'O
        12 000711   000000 000174 xsym               ADSC9   FROM_SN                  cn=0,n=124
        12 000712   000000 000174 xsym               ADSC9   IN_SN                    cn=0,n=124

      546     7934    4                   RESULTS_FID_IN.RES = RESULTS_FID_FROM.RES;

   7934 12 000713   000000 236000 xsym               LDQ     RESULTS_FID_FROM
        12 000714   000000 676000 xsym               ERQ     RESULTS_FID_IN
        12 000715   004000 376003                    ANQ     2048,DU
        12 000716   000000 656000 xsym               ERSQ    RESULTS_FID_IN

      547     7935    4                   RESULTS_FID_IN.SN = RESULTS_FID_FROM.SN;

   7935 12 000717   000000 236000 xsym               LDQ     RESULTS_FID_FROM
        12 000720   000000 676000 xsym               ERQ     RESULTS_FID_IN
        12 000721   040000 376003                    ANQ     16384,DU
        12 000722   000000 656000 xsym               ERSQ    RESULTS_FID_IN

      548     7936    4                   END;

      549     7937    3               IF RESULTS_FID_IN.NAME='0'B

   7937 12 000723   000000 234000 xsym               SZN     RESULTS_FID_IN
        12 000724   000734 604000 12                 TMI     s:7943

      550     7938    3                THEN
      551     7939    4                DO;

PL6.E3A0      #003=VPF$GET_NEXT_SPEC File=VPF$SRCLST.:E05TSI                     WED 07/30/97 07:34 Page:110
      552     7940    4                   IN_NAME = FROM_NAME;

   7940 12 000725   000000 100400                    MLR     fill='000'O
        12 000726   000000 000040 xsym               ADSC9   FROM_NAME                cn=0,n=32
        12 000727   000000 000040 xsym               ADSC9   IN_NAME                  cn=0,n=32

      553     7941    4                   RESULTS_FID_IN.NAME = RESULTS_FID_FROM.NAME;

   7941 12 000730   000000 236000 xsym               LDQ     RESULTS_FID_FROM
        12 000731   000000 676000 xsym               ERQ     RESULTS_FID_IN
        12 000732   400000 376003                    ANQ     -131072,DU
        12 000733   000000 656000 xsym               ERSQ    RESULTS_FID_IN

      554     7942    4                   END;

      555     7943    3               IF RESULTS_FID_IN.ACCT='0'B

   7943 12 000734   000000 236000 xsym               LDQ     RESULTS_FID_IN
        12 000735   200000 316003                    CANQ    65536,DU
        12 000736   000746 601000 12                 TNZ     s:7949

      556     7944    3                THEN
      557     7945    4                DO;

      558     7946    4                   IN_ACCT = FROM_ACCT;

   7946 12 000737   040000 100400                    MLR     fill='040'O
        12 000740   000000 000010 xsym               ADSC9   FROM_ACCT                cn=0,n=8
        12 000741   000000 000010 xsym               ADSC9   IN_ACCT                  cn=0,n=8

      559     7947    4                   RESULTS_FID_IN.ACCT = RESULTS_FID_FROM.ACCT;

   7947 12 000742   000000 236000 xsym               LDQ     RESULTS_FID_FROM
        12 000743   000000 676000 xsym               ERQ     RESULTS_FID_IN
        12 000744   200000 376003                    ANQ     65536,DU
        12 000745   000000 656000 xsym               ERSQ    RESULTS_FID_IN

PL6.E3A0      #003=VPF$GET_NEXT_SPEC File=VPF$SRCLST.:E05TSI                     WED 07/30/97 07:34 Page:111
      560     7948    4                   END;

      561     7949    3               IF RESULTS_FID_IN.PASS='0'B

   7949 12 000746   000000 236000 xsym               LDQ     RESULTS_FID_IN
        12 000747   100000 316003                    CANQ    32768,DU
        12 000750   000760 601000 12                 TNZ     s:7955

      562     7950    3                THEN
      563     7951    4                DO;

      564     7952    4                   IN_PASS = FROM_PASS;

   7952 12 000751   040000 100400                    MLR     fill='040'O
        12 000752   000000 000010 xsym               ADSC9   FROM_PASS                cn=0,n=8
        12 000753   000000 000010 xsym               ADSC9   IN_PASS                  cn=0,n=8

      565     7953    4                   RESULTS_FID_IN.PASS = RESULTS_FID_FROM.PASS;

   7953 12 000754   000000 236000 xsym               LDQ     RESULTS_FID_FROM
        12 000755   000000 676000 xsym               ERQ     RESULTS_FID_IN
        12 000756   100000 376003                    ANQ     32768,DU
        12 000757   000000 656000 xsym               ERSQ    RESULTS_FID_IN

      566     7954    4                   END;

      567     7955    3               IF RESULTS_FID_IN.WSN='0'B

   7955 12 000760   000000 236000 xsym               LDQ     RESULTS_FID_IN
        12 000761   020000 316003                    CANQ    8192,DU
        12 000762   000772 601000 12                 TNZ     s:7962

      568     7956    3                THEN
      569     7957    4                DO;

      570     7958    4                   IN_WSN = FROM_WSN;

PL6.E3A0      #003=VPF$GET_NEXT_SPEC File=VPF$SRCLST.:E05TSI                     WED 07/30/97 07:34 Page:112
   7958 12 000763   040000 100400                    MLR     fill='040'O
        12 000764   000000 000010 xsym               ADSC9   FROM_WSN                 cn=0,n=8
        12 000765   000000 000010 xsym               ADSC9   IN_WSN                   cn=0,n=8

      571     7959    4                   RESULTS_FID_IN.WSN = RESULTS_FID_FROM.WSN;

   7959 12 000766   000000 236000 xsym               LDQ     RESULTS_FID_FROM
        12 000767   000000 676000 xsym               ERQ     RESULTS_FID_IN
        12 000770   020000 376003                    ANQ     8192,DU
        12 000771   000000 656000 xsym               ERSQ    RESULTS_FID_IN

      572     7960    4                   END;

      573     7961    3               END;

      574     7962    2           RETURN;

   7962 12 000772   000001 702211                    TSX2  ! 1,X1

      575     7963    2   END ADD_FROM_INFO;
      576     7964        %EJECT;
PL6.E3A0      #003=VPF$GET_NEXT_SPEC File=VPF$SRCLST.:E05TSI                     WED 07/30/97 07:34 Page:113
      577     7965    1   NEXT_SOURCE: PROC(RET_VAL);

   7965 12 000773   200010 741300       NEXT_SOURCE  STX1  ! NEW_FID_LEN+1,,AUTO

      578     7966        /*I* NAME: NEXT_SOURCE
      579     7967             PURPOSE: To initialize processing of the next SOURCE of SOURCELIST.
      580     7968             CALL: CALL NEXT_SOURCE(RET_VAL);
      581     7969             DESCRIPTION: This procedure processes the next SOURCE of SOURCELIST
      582     7970                          if one exists. If SL$ = ADDR(NIL), this proc works as if
      583     7971                          SOURCELIST = '.'. If it is a SOURCE_1_N node, NL$ is set
      584     7972                          to reflect this and DEV_ICB is cleared. If it is a
      585     7973                          SOURCE_2_N node, the device portion of the FID ( this may
      586     7974                          be the entire FID) is formed and fed to M$FID. NL$ is set
      587     7975                          to point to the head node of any N.A.P and options nodes.
      588     7976                          If device options exist, they are processed into DEV_ICB
      589     7977                          and verified. If these device options occur for a node
      590     7978                          that has no following N.A.P nodes, the options are not
      591     7979                          processed, they are pointed to by IN_OPT$ which is
      592     7980                          then returned. In any case, the results from M$FID will
      593     7981                          be meaningful assuming no errors occurred.
      594     7982                          RET_VAL will be returned as below:
      595     7983                            RET_VAL           DESCRIPTION
      596     7984                            -------           -----------
      597     7985                               0              All fine.
      598     7986                               1              No more SOURCE elements.
      599     7987                               2              Error.
      600     7988        */
      601     7989    2   DCL RET_VAL SBIN WORD;
      602     7990    2   DCL S12$ PTR;
      603     7991    2   DCL CODE SBIN WORD;
      604     7992    2   DCL DOT_LIT CHAR(1) CONSTANT INIT('.'); /* Text for default SOURCELIST        */
      605     7993    2           RET_VAL = 0;

   7993 12 000774   200011 470500                    LDP0    @RET_VAL,,AUTO
        12 000775   000000 450100                    STZ     0,,PR0

      606     7994    2           NL$ = ADDR(NIL);
PL6.E3A0      #003=VPF$GET_NEXT_SPEC File=VPF$SRCLST.:E05TSI                     WED 07/30/97 07:34 Page:114

   7994 12 000776   000001 236000 xsym               LDQ     B_VECTNIL+1
        12 000777   000002 756000 10                 STQ     NL$

      607     7995    2           NL_IDX = 0;

   7995 12 001000   000003 450000 10                 STZ     NL_IDX

      608     7996    2           SL_IDX = SL_IDX+1;

   7996 12 001001   000001 054000 10                 AOS     SL_IDX

      609     7997    2           DEV_ICB = '0'B;

   7997 12 001002   000000 100400                    MLR     fill='000'O
        12 001003   000002 000001 xsym               ADSC9   B_VECTNIL+2              cn=0,n=1
        12 001004   000000 001214 xsym               ADSC9   DEV_ICB                  cn=0,n=652

      610     7998    2           DEV_ICB.NAME_RANGE_END = ' ';

   7998 12 001005   040000 100400                    MLR     fill='040'O
        12 001006   000035 000001 xsym               ADSC9   B_VECTNIL+29             cn=0,n=1
        12 001007   000140 000037 xsym               ADSC9   DEV_ICB+96               cn=0,n=31

      611     7999    2           IF SL$=ADDR(NIL)

   7999 12 001010   000000 236000 10                 LDQ     SL$
        12 001011   000001 116000 xsym               CMPQ    B_VECTNIL+1
        12 001012   001026 601000 12                 TNZ     s:8015

      612     8000    2            THEN                           /* Default SOURCELIST of '.'          */
      613     8001    2              IF SL_IDX>0

   8001 12 001013   000001 235000 10                 LDA     SL_IDX
        12 001014   001021 604400 12                 TMOZ    s:8010

      614     8002    2               THEN
PL6.E3A0      #003=VPF$GET_NEXT_SPEC File=VPF$SRCLST.:E05TSI                     WED 07/30/97 07:34 Page:115
      615     8003    3               DO;                         /* SECOND TIME THROUGH FOR            */

      616     8004    3                  RET_VAL = 1;             /* DEFAULT SOURCELIST...              */

   8004 12 001015   000001 235007                    LDA     1,DL
        12 001016   000000 755100                    STA     0,,PR0

      617     8005    3                  RETURN;

   8005 12 001017   200010 221300                    LDX1  ! NEW_FID_LEN+1,,AUTO
        12 001020   000001 702211                    TSX2  ! 1,X1

      618     8006    3                  END;
      619     8007    2               ELSE
      620     8008    3               DO;                         /* FIRST TIME THROUGH FOR             */

      621     8009                                                /* DEFAULT SOURCELIST...              */
      622     8010    3                  SINGLE_INSPEC = 1;       /* INDICATE A SINGLE INPUT SPEC       */

   8010 12 001021   000001 235007                    LDA     1,DL
        12 001022   000000 755000 xsym               STA     SINGLE_INSPEC

      623     8011    3                  FPT_FID_IN.TEXTFID_ = VECTOR(DOT_LIT);

   8011 12 001023   000050 237000 13                 LDAQ    40
        12 001024   000002 757000 xsym               STAQ    FPT_FID_IN+2

      624     8012    3                  GOTO CALL_FID;

   8012 12 001025   001212 710000 12                 TRA     CALL_FID

      625     8013    3                  END;
      626     8014    2            ELSE                           /* Not default SOURCELIST             */
      627     8015    2              IF SL_IDX>=SL$->OUT$BLK.NSUBLKS

   8015 12 001026   000000 471400 10                 LDP1    SL$
        12 001027   100001 236100                    LDQ     1,,PR1
PL6.E3A0      #003=VPF$GET_NEXT_SPEC File=VPF$SRCLST.:E05TSI                     WED 07/30/97 07:34 Page:116
        12 001030   000022 772000                    QRL     18
        12 001031   000001 116000 10                 CMPQ    SL_IDX
        12 001032   001037 605400 12                 TPNZ    s:8021

      628     8016    2               THEN
      629     8017    3               DO;

      630     8018    3                  RET_VAL = 1;             /* NO MORE SOURCELIST                 */

   8018 12 001033   000001 235007                    LDA     1,DL
        12 001034   000000 755100                    STA     0,,PR0

      631     8019    3                  RETURN;

   8019 12 001035   200010 221300                    LDX1  ! NEW_FID_LEN+1,,AUTO
        12 001036   000001 702211                    TSX2  ! 1,X1

      632     8020    3                  END;
      633     8021    2           S12$ = SL$->OUT$BLK.SUBLK$(SL_IDX);

   8021 12 001037   000001 720000 10                 LXL0    SL_IDX
        12 001040   100003 236110                    LDQ     3,X0,PR1
        12 001041   200012 756100                    STQ     S12$,,AUTO

      634     8022    2           IF S12$->OUT$BLK.CODE=1

   8022 12 001042   200012 473500                    LDP3    S12$,,AUTO
        12 001043   300000 721100                    LXL1    0,,PR3
        12 001044   000001 101003                    CMPX1   1,DU
        12 001045   001056 601000 12                 TNZ     s:8032

      635     8023    2            THEN
      636     8024    3            DO;                            /* SOURCE_1                           */

      637     8025    3               NL$ = S12$;

   8025 12 001046   000002 756000 10                 STQ     NL$
PL6.E3A0      #003=VPF$GET_NEXT_SPEC File=VPF$SRCLST.:E05TSI                     WED 07/30/97 07:34 Page:117

      638     8026    3               IF SL$->OUT$BLK.NSUBLKS=1

   8026 12 001047   100001 222100                    LDX2    1,,PR1
        12 001050   000001 102003                    CMPX2   1,DU
        12 001051   001054 601000 12                 TNZ     s:8029

      639     8027    3                THEN
      640     8028    3                  SINGLE_INSPEC = 1;       /* INDICATE SINGLE INPUT SPEC         */

   8028 12 001052   000001 235007                    LDA     1,DL
        12 001053   000000 755000 xsym               STA     SINGLE_INSPEC

      641     8029    3               RETURN;

   8029 12 001054   200010 221300                    LDX1  ! NEW_FID_LEN+1,,AUTO
        12 001055   000001 702211                    TSX2  ! 1,X1

      642     8030    3               END;
      643     8031                                                /* MUST BE SOURCE_2                   */
      644     8032    2           DEV_ICB.FID = S12$->OUT$BLK.SUBLK$(0)->OUT$BLK.SUBLK$(0)->TEXT$C;

   8032 12 001056   300003 474500                    LDP4    3,,PR3
        12 001057   400003 475500                    LDP5    3,,PR4
        12 001060   000100 101500                    MRL     fill='000'O
        12 001061   500000 000001                    ADSC9   0,,PR5                   cn=0,n=1
        12 001062   200020 000002                    ADSC9   OPT_IDX+1,,AUTO          cn=0,n=2
        12 001063   200020 221100                    LDX1    OPT_IDX+1,,AUTO
        12 001064   000001 622011                    EAX2    1,X1
        12 001065   000000 100540                    MLR     fill='000'O
        12 001066   500000 000012                    ADSC9   0,,PR5                   cn=0,n=*X2
        12 001067   000020 000120 xsym               ADSC9   DEV_ICB+16               cn=0,n=80

      645     8033    2           IF DEV_ICB.FID.LEN>=SIZEC(DEV_ICB.FID.STRING)

   8033 12 001070   000020 236000 xsym               LDQ     DEV_ICB+16
        12 001071   777000 376003                    ANQ     -512,DU
PL6.E3A0      #003=VPF$GET_NEXT_SPEC File=VPF$SRCLST.:E05TSI                     WED 07/30/97 07:34 Page:118
        12 001072   117000 116003                    CMPQ    40448,DU
        12 001073   001120 602000 12                 TNC     s:8040

      646     8034    2            THEN
      647     8035    3            DO;

      648     8036    3               CALL VPL$ERR_PROC(3,1,'06'O,,,,,1); /* INPUT FID TOO LONG         */

   8036 12 001074   000002 236000 13                 LDQ     2
        12 001075   000001 235000 xsym               LDA     B_VECTNIL+1
        12 001076   200026 757100                    STAQ    OPT_IDX+7,,AUTO
        12 001077   000001 236000 xsym               LDQ     B_VECTNIL+1
        12 001100   000001 235000 xsym               LDA     B_VECTNIL+1
        12 001101   200024 757100                    STAQ    OPT_IDX+5,,AUTO
        12 001102   000001 236000 xsym               LDQ     B_VECTNIL+1
        12 001103   000003 235000 13                 LDA     3
        12 001104   200022 757100                    STAQ    OPT_IDX+3,,AUTO
        12 001105   000006 237000 13                 LDAQ    6
        12 001106   200020 757100                    STAQ    OPT_IDX+1,,AUTO
        12 001107   200020 630500                    EPPR0   OPT_IDX+1,,AUTO
        12 001110   000026 631400 xsym               EPPR1   B_VECTNIL+22
        12 001111   000000 701000 xent               TSX1    VPL$ERR_PROC
        12 001112   000000 011000                    NOP     0

      649     8037    3               RET_VAL = 2;

   8037 12 001113   000002 235007                    LDA     2,DL
        12 001114   200011 470500                    LDP0    @RET_VAL,,AUTO
        12 001115   000000 755100                    STA     0,,PR0

      650     8038    3               RETURN;

   8038 12 001116   200010 221300                    LDX1  ! NEW_FID_LEN+1,,AUTO
        12 001117   000001 702211                    TSX2  ! 1,X1

      651     8039    3               END;
      652     8040    2           CODE = 0;
PL6.E3A0      #003=VPF$GET_NEXT_SPEC File=VPF$SRCLST.:E05TSI                     WED 07/30/97 07:34 Page:119

   8040 12 001120   200013 450100                    STZ     CODE,,AUTO

      653     8041    2           IF S12$->OUT$BLK.NSUBLKS>1

   8041 12 001121   300001 221100                    LDX1    1,,PR3
        12 001122   000002 101003                    CMPX1   2,DU
        12 001123   001130 602000 12                 TNC     s:8044

      654     8042    2            THEN
      655     8043    2              CODE = S12$->OUT$BLK.SUBLK$(1)->OUT$BLK.CODE;

   8043 12 001124   300004 474500                    LDP4    4,,PR3
        12 001125   400000 236100                    LDQ     0,,PR4
        12 001126   777777 376007                    ANQ     -1,DL
        12 001127   200013 756100                    STQ     CODE,,AUTO

      656     8044    2           IF CODE=1

   8044 12 001130   200013 235100                    LDA     CODE,,AUTO
        12 001131   000001 115007                    CMPA    1,DL
        12 001132   001143 601000 12                 TNZ     s:8052

      657     8045    2            THEN
      658     8046    3            DO;                            /* INPUT OPTIONS SPECIFIED            */

      659     8047    3               IN_OPT$ = S12$->OUT$BLK.SUBLK$(1);

   8047 12 001133   300004 236100                    LDQ     4,,PR3
        12 001134   200005 756100                    STQ     IN_OPT$,,AUTO

      660     8048    3               IF S12$->OUT$BLK.NSUBLKS>2

   8048 12 001135   000003 101003                    CMPX1   3,DU
        12 001136   001143 602000 12                 TNC     s:8052

      661     8049    3                THEN
PL6.E3A0      #003=VPF$GET_NEXT_SPEC File=VPF$SRCLST.:E05TSI                     WED 07/30/97 07:34 Page:120
      662     8050    3                  CODE = S12$->OUT$BLK.SUBLK$(2)->OUT$BLK.CODE;

   8050 12 001137   300005 474500                    LDP4    5,,PR3
        12 001140   400000 236100                    LDQ     0,,PR4
        12 001141   777777 376007                    ANQ     -1,DL
        12 001142   200013 756100                    STQ     CODE,,AUTO

      663     8051    3               END;

      664     8052    2           IF CODE=2

   8052 12 001143   200013 235100                    LDA     CODE,,AUTO
        12 001144   000002 115007                    CMPA    2,DL
        12 001145   001156 601000 12                 TNZ     s:8058

      665     8053    2            THEN
      666     8054    3            DO;                            /* SLASH SPECIFIED                    */

      667     8055    3               DEV_ICB.FID.STR_ARY(DEV_ICB.FID.LEN)= '/';

   8055 12 001146   000020 236000 xsym               LDQ     DEV_ICB+16
        12 001147   000033 772000                    QRL     27
        12 001150   040006 100400                    MLR     fill='040'O
        12 001151   000052 000001 13                 ADSC9   42                       cn=0,n=1
        12 001152   000020 200001 xsym               ADSC9   DEV_ICB+16,Q             cn=1,n=1

      668     8056    3               DEV_ICB.FID.LEN = DEV_ICB.FID.LEN+1;

   8056 12 001153   000020 236000 xsym               LDQ     DEV_ICB+16
        12 001154   001000 036003                    ADLQ    512,DU
        12 001155   000020 552040 xsym               STBQ    DEV_ICB+16,'40'O

      669     8057    3               END;

      670     8058    2           IF S12$->OUT$BLK.SUBLK$(S12$->OUT$BLK.NSUBLKS-1)->OUT$BLK.CODE=3

   8058 12 001156   300001 221100                    LDX1    1,,PR3
PL6.E3A0      #003=VPF$GET_NEXT_SPEC File=VPF$SRCLST.:E05TSI                     WED 07/30/97 07:34 Page:121
        12 001157   300002 474511                    LDP4    2,X1,PR3
        12 001160   400000 722100                    LXL2    0,,PR4
        12 001161   000003 102003                    CMPX2   3,DU
        12 001162   001177 601000 12                 TNZ     s:8067

      671     8059    2            THEN
      672     8060    3            DO;

      673     8061    3               NL$ = S12$->OUT$BLK.SUBLK$(S12$->OUT$BLK.NSUBLKS-1);

   8061 12 001163   300002 236111                    LDQ     2,X1,PR3
        12 001164   000002 756000 10                 STQ     NL$

      674     8062    3               IF NL$->OUT$BLK.NSUBLKS=1 AND SL$->OUT$BLK.NSUBLKS=1

   8062 12 001165   000002 475400 10                 LDP5    NL$
        12 001166   500001 223100                    LDX3    1,,PR5
        12 001167   000001 103003                    CMPX3   1,DU
        12 001170   001204 601000 12                 TNZ     s:8070
        12 001171   100001 224100                    LDX4    1,,PR1
        12 001172   000001 104003                    CMPX4   1,DU
        12 001173   001204 601000 12                 TNZ     s:8070

      675     8063    3                THEN
      676     8064    3                  SINGLE_INSPEC = 1;       /* INDICATE SINGLE INPUT SPEC         */

   8064 12 001174   000001 235007                    LDA     1,DL
        12 001175   000000 755000 xsym               STA     SINGLE_INSPEC

      677     8065    3               END;

   8065 12 001176   001204 710000 12                 TRA     s:8070

      678     8066    2            ELSE
      679     8067    2              IF SL$->OUT$BLK.NSUBLKS=1

   8067 12 001177   100001 223100                    LDX3    1,,PR1
PL6.E3A0      #003=VPF$GET_NEXT_SPEC File=VPF$SRCLST.:E05TSI                     WED 07/30/97 07:34 Page:122
        12 001200   000001 103003                    CMPX3   1,DU
        12 001201   001204 601000 12                 TNZ     s:8070

      680     8068    2               THEN
      681     8069    2                 SINGLE_INSPEC = 1;        /* INDICATES SINGLE INPUT SPEC        */

   8069 12 001202   000001 236007                    LDQ     1,DL
        12 001203   000000 756000 xsym               STQ     SINGLE_INSPEC

      682     8070    2           FPT_FID_IN.TEXTFID_   = VECTOR(ADDR(DEV_ICB.FID)->TEXT$C.STRING);

   8070 12 001204   000020 236000 xsym               LDQ     DEV_ICB+16
        12 001205   000033 772000                    QRL     27
        12 001206   000064 737000                    LLS     52
        12 001207   000140 135007                    SBLA    96,DL
        12 001210   000053 236000 13                 LDQ     43
        12 001211   000002 757000 xsym               STAQ    FPT_FID_IN+2

      683     8071    2   CALL_FID: CALL VPD$FID(FPT_FID_IN,1) ALTRET(FID_ALT_2);

   8071 12 001212   000011 630400 13    CALL_FID     EPPR0   9
        12 001213   000020 631400 xsym               EPPR1   B_VECTNIL+16
        12 001214   000000 701000 xent               TSX1    VPD$FID
        12 001215   001331 702000 12                 TSX2    FID_ALT_2

      684     8072    2           IF IN_NAME.LEN=0

   8072 12 001216   000000 236000 xsym               LDQ     IN_NAME
        12 001217   777000 316003                    CANQ    -512,DU
        12 001220   001223 601000 12                 TNZ     s:8075

      685     8073    2            THEN
      686     8074    2              RESULTS_FID_IN.NAME = '0'B;

   8074 12 001221   000031 236000 xsym               LDQ     B_VECTNIL+25
        12 001222   000000 356000 xsym               ANSQ    RESULTS_FID_IN

PL6.E3A0      #003=VPF$GET_NEXT_SPEC File=VPF$SRCLST.:E05TSI                     WED 07/30/97 07:34 Page:123
      687     8075    2           IF SL$ = ADDR(NIL)

   8075 12 001223   000000 236000 10                 LDQ     SL$
        12 001224   000001 116000 xsym               CMPQ    B_VECTNIL+1
        12 001225   001230 601000 12                 TNZ     s:8078

      688     8076    2            THEN                           /* The default SOURCELIST was used    */
      689     8077    2              RESULTS_FID_IN.ACCT = '0'B;

   8077 12 001226   000054 236000 13                 LDQ     44
        12 001227   000000 356000 xsym               ANSQ    RESULTS_FID_IN

      690     8078    2           CALL VPD$GET_IN_DEV_MASK(DEV_ICB);

   8078 12 001230   000055 630400 13                 EPPR0   45
        12 001231   000017 631400 xsym               EPPR1   B_VECTNIL+15
        12 001232   000000 701000 xent               TSX1    VPD$GET_IN_DEV_MASK
        12 001233   000000 011000                    NOP     0

      691     8079    2           IF NL$~=ADDR(NIL)               /* NAP LIST SPECIFIED?                */

   8079 12 001234   000002 236000 10                 LDQ     NL$
        12 001235   000001 116000 xsym               CMPQ    B_VECTNIL+1
        12 001236   001325 600000 12                 TZE     s:8103

      692     8080    2            THEN
      693     8081    3            DO;                            /* YES...CHECK FID PARTS              */

      694     8082    3               IF RESULTS_FID_IN.NAME OR RESULTS_FID_IN.ACCT OR

   8082 12 001237   000000 234000 xsym               SZN     RESULTS_FID_IN
        12 001240   001250 604000 12                 TMI     s:8087
        12 001241   000000 236000 xsym               LDQ     RESULTS_FID_IN
        12 001242   200000 316003                    CANQ    65536,DU
        12 001243   001250 601000 12                 TNZ     s:8087
        12 001244   100000 316003                    CANQ    32768,DU
        12 001245   001250 601000 12                 TNZ     s:8087
PL6.E3A0      #003=VPF$GET_NEXT_SPEC File=VPF$SRCLST.:E05TSI                     WED 07/30/97 07:34 Page:124
        12 001246   020000 316003                    CANQ    8192,DU
        12 001247   001314 600000 12                 TZE     s:8099

      695     8083    3                 RESULTS_FID_IN.PASS OR RESULTS_FID_IN.WSN
      696     8084    3                THEN
      697     8085    4                DO;

      698     8086                       /* Name, Address, Pass not allowed on DEVICE SPEC (or bad opt  */
      699     8087    4                   CALL VPL$ERR_PROC(3,7,'06'O,,VECTOR(DEV_ICB.FID),

   8087 12 001250   000002 470400 10                 LDP0    NL$
        12 001251   000003 471500                    LDP1    3,,PR0
        12 001252   100003 473500                    LDP3    3,,PR1
        12 001253   300003 474500                    LDP4    3,,PR3
        12 001254   000100 101500                    MRL     fill='000'O
        12 001255   400000 000001                    ADSC9   0,,PR4                   cn=0,n=1
        12 001256   200020 000002                    ADSC9   OPT_IDX+1,,AUTO          cn=0,n=2
        12 001257   200020 220100                    LDX0    OPT_IDX+1,,AUTO
        12 001260   000001 621010                    EAX1    1,X0
        12 001261   000000 635011                    EAA     0,X1
        12 001262   000002 771000                    ARL     2
        12 001263   000140 135007                    SBLA    96,DL
        12 001264   200021 454500                    STP4    OPT_IDX+2,,AUTO
        12 001265   200021 236100                    LDQ     OPT_IDX+2,,AUTO
        12 001266   200022 757100                    STAQ    OPT_IDX+3,,AUTO
        12 001267   000002 236000 13                 LDQ     2
        12 001270   000001 235000 xsym               LDA     B_VECTNIL+1
        12 001271   200032 757100                    STAQ    OPT_IDX+11,,AUTO
        12 001272   200022 631500                    EPPR1   OPT_IDX+3,,AUTO
        12 001273   200031 451500                    STP1    OPT_IDX+10,,AUTO
        12 001274   000060 236000 13                 LDQ     48
        12 001275   200030 756100                    STQ     OPT_IDX+9,,AUTO
        12 001276   000001 236000 xsym               LDQ     B_VECTNIL+1
        12 001277   000003 235000 13                 LDA     3
        12 001300   200026 757100                    STAQ    OPT_IDX+7,,AUTO
        12 001301   000062 237000 13                 LDAQ    50
        12 001302   200024 757100                    STAQ    OPT_IDX+5,,AUTO
PL6.E3A0      #003=VPF$GET_NEXT_SPEC File=VPF$SRCLST.:E05TSI                     WED 07/30/97 07:34 Page:125
        12 001303   200024 630500                    EPPR0   OPT_IDX+5,,AUTO
        12 001304   000026 631400 xsym               EPPR1   B_VECTNIL+22
        12 001305   000000 701000 xent               TSX1    VPL$ERR_PROC
        12 001306   000000 011000                    NOP     0

      700     8088    4                     VECTOR(NL$ -> OUT$BLK.SUBLK$(0) -> OUT$BLK.SUBLK$(0)
      701     8089    4                     -> OUT$BLK.SUBLK$(0) -> TEXT$C),,1);
      702     8090        /*E* ERROR:   VPF-00007
      703     8091             MESSAGE: Bad device spec %(%U1) %or input option %(%U2...etc)%
      704     8092            MESSAGE1: If% %U1 was% intended as a device spec; Name, Account,
      705     8093                      and Password are illegal.  If% %U2...etc was% intended as an
      706     8094                      input option, it isn't one.
      707     8095        */
      708     8096    4                   RET_VAL = 2;

   8096 12 001307   000002 235007                    LDA     2,DL
        12 001310   200011 470500                    LDP0    @RET_VAL,,AUTO
        12 001311   000000 755100                    STA     0,,PR0

      709     8097    4                   RETURN;

   8097 12 001312   200010 221300                    LDX1  ! NEW_FID_LEN+1,,AUTO
        12 001313   000001 702211                    TSX2  ! 1,X1

      710     8098    4                   END;
      711     8099    3               IF IN_OPT$~=ADDR(NIL)

   8099 12 001314   200005 236100                    LDQ     IN_OPT$,,AUTO
        12 001315   000001 116000 xsym               CMPQ    B_VECTNIL+1
        12 001316   001325 600000 12                 TZE     s:8103

      712     8100    3                THEN
      713     8101    3                  CALL VERIFY_STUFF_IN_OPTS(RET_VAL,0);

   8101 12 001317   000064 236000 13                 LDQ     52
        12 001320   200016 756100                    STQ     @RET_VAL+1,,AUTO
        12 001321   200011 236100                    LDQ     @RET_VAL,,AUTO
PL6.E3A0      #003=VPF$GET_NEXT_SPEC File=VPF$SRCLST.:E05TSI                     WED 07/30/97 07:34 Page:126
        12 001322   200015 756100                    STQ     CODE+2,,AUTO
        12 001323   001434 701000 12                 TSX1    VERIFY_STUFF_IN_OPTS
        12 001324   000000 011000                    NOP     0

      714     8102    3               END;

      715     8103    2           CALL ADD_FROM_INFO;

   8103 12 001325   000670 701000 12                 TSX1    ADD_FROM_INFO
        12 001326   000000 011000                    NOP     0

      716     8104    2           RETURN;

   8104 12 001327   200010 221300                    LDX1  ! NEW_FID_LEN+1,,AUTO
        12 001330   000001 702211                    TSX2  ! 1,X1

   8102 12 001331                       FID_ALT_2    null
      717     8105        /**/
      718     8106    2   FID_ALT_2: ;
      719     8107    2           RET_VAL = 2;

   8107 12 001331   000002 235007                    LDA     2,DL
        12 001332   200011 470500                    LDP0    @RET_VAL,,AUTO
        12 001333   000000 755100                    STA     0,,PR0

      720     8108    2           RETURN;

   8108 12 001334   200010 221300                    LDX1  ! NEW_FID_LEN+1,,AUTO
        12 001335   000001 702211                    TSX2  ! 1,X1

      721     8109    2   END NEXT_SOURCE;
      722     8110        %EJECT;
PL6.E3A0      #003=VPF$GET_NEXT_SPEC File=VPF$SRCLST.:E05TSI                     WED 07/30/97 07:34 Page:127
      723     8111    1   SET_SPEC_TYPE: PROC(RET_VAL);

   8111 12 001336   200010 741300       SET_SPEC_TY* STX1  ! NEW_FID_LEN+1,,AUTO

      724     8112        /*I* NAME: SET_SPEC_TYPE
      725     8113             PURPOSE: To set the input specification type variable, ICB.SPEC_TYPE,
      726     8114                      to a meaningful value.
      727     8115             CALL: CALL SET_SPEC_TYPE(RET_VAL);
      728     8116             DESCRIPTION: This procedure sets ICB.SPEC_TYPE to one of the following
      729     8117                          values:
      730     8118                              VALUE         DESCRIPTION
      731     8119                              -----         -----------
      732     8120                                1           single FID reference
      733     8121                                2           full range of directory device
      734     8122                                3           sub range of directory device
      735     8123                                4           wildcard of type ?something
      736     8124                                5           wildcard without initial '?'
      737     8125                                6           (undefined)
      738     8126                                7           single FSN reference
      739     8127                                8           FSN range reference
      740     8128                          If a wildcard spec. is returned, RESULTS_FID_IN.NAME
      741     8129                          will have been set to '0'B.
      742     8130                          If any errors are detected, RET_VAL is set to 2.
      743     8131        */
      744     8132    2   DCL RET_VAL SBIN WORD;
      745     8133    2   DCL I SBIN WORD;
      746     8134    2           IF CMD_MASK(2)                  /* If COPYALL                         */

   8134 12 001337   000000 236000 xsym               LDQ     CMD_MASK
        12 001340   100000 316003                    CANQ    32768,DU
        12 001341   001353 600000 12                 TZE     s:8142
        12 001342   000171 236000 xsym               LDQ     ICB+121
        12 001343   040000 316003                    CANQ    16384,DU
        12 001344   001353 600000 12                 TZE     s:8142
        12 001345   000044 235000 xsym               LDA     ICB+36
        12 001346   001353 601000 12                 TNZ     s:8142

PL6.E3A0      #003=VPF$GET_NEXT_SPEC File=VPF$SRCLST.:E05TSI                     WED 07/30/97 07:34 Page:128
      747     8135    2             AND ICB.DEV_MASK.DEV_TAPE     /* of FT                              */
      748     8136    2             AND ICB.FSN = '0'O            /* and FSN not specified              */
      749     8137    2            THEN
      750     8138    3            DO;

      751     8139    3               ICB.FSN.START = 1;          /* START at 1                         */

   8139 12 001347   000001 220003                    LDX0    1,DU
        12 001350   000044 740000 xsym               STX0    ICB+36

      752     8140    3               ICB.FSN.FINISH = BITBIN('777777'O); /* and dont stop              */

   8140 12 001351   777777 222003                    LDX2    -1,DU
        12 001352   000044 442000 xsym               SXL2    ICB+36

      753     8141    3               END;

      754     8142    2           IF ICB.DEV_MASK & '300'O        /* MANAGED TAPE OR FILE               */

   8142 12 001353   000171 236000 xsym               LDQ     ICB+121
        12 001354   777000 376003                    ANQ     -512,DU
        12 001355   300000 376003                    ANQ     98304,DU
        12 001356   001417 600000 12                 TZE     s:8166

      755     8143    2            THEN
      756     8144    2              IF ICB.NAME_RANGE_END ~= ' '

   8144 12 001357   040000 106400                    CMPC    fill='040'O
        12 001360   000140 000037 xsym               ADSC9   ICB+96                   cn=0,n=31
        12 001361   000035 000001 xsym               ADSC9   B_VECTNIL+29             cn=0,n=1
        12 001362   001366 600000 12                 TZE     s:8148

      757     8145    2               THEN
      758     8146    2                 ICB.SPEC_TYPE = 3;        /* SUB-RANGE                          */

   8146 12 001363   000003 235007                    LDA     3,DL
        12 001364   000017 755000 xsym               STA     ICB+15
PL6.E3A0      #003=VPF$GET_NEXT_SPEC File=VPF$SRCLST.:E05TSI                     WED 07/30/97 07:34 Page:129
        12 001365   001421 710000 12                 TRA     s:8167

      759     8147    2               ELSE
      760     8148    2                 IF RESULTS_FID_IN.NAME

   8148 12 001366   000000 234000 xsym               SZN     RESULTS_FID_IN
        12 001367   001414 605000 12                 TPL     s:8164

      761     8149    2                  THEN                     /* A name was found                   */
      762     8150    3                  DO;

      763     8151    3                     IF RESULTS_FID_IN.TYPE.NAME ~= %UMF$SIMPLE_STRING#

   8151 12 001370   000000 236000 xsym               LDQ     RESULTS_FID_IN
        12 001371   777000 316007                    CANQ    -512,DL
        12 001372   001376 600000 12                 TZE     s:8156

      764     8152    3                      THEN                 /* NAME was quoted or in octal        */
      765     8153    3                        ICB.SPEC_TYPE = 1; /* Do not check for wildness          */

   8153 12 001373   000001 235007                    LDA     1,DL
        12 001374   000017 755000 xsym               STA     ICB+15
        12 001375   001421 710000 12                 TRA     s:8167

      766     8154    3                      ELSE
      767     8155    4                      DO;

      768     8156    4                         CALL VPD$ANAL_NAME(IN_NAME,ICB.SPEC_TYPE);

   8156 12 001376   000065 630400 13                 EPPR0   53
        12 001377   000020 631400 xsym               EPPR1   B_VECTNIL+16
        12 001400   000000 701000 xent               TSX1    VPD$ANAL_NAME
        12 001401   000000 011000                    NOP     0

      769     8157    5                         DO CASE(ICB.SPEC_TYPE);

   8157 12 001402   000017 235000 xsym               LDA     ICB+15
PL6.E3A0      #003=VPF$GET_NEXT_SPEC File=VPF$SRCLST.:E05TSI                     WED 07/30/97 07:34 Page:130
        12 001403   000004 135007                    SBLA    4,DL
        12 001404   000002 115007                    CMPA    2,DL
        12 001405   001407 602005 12                 TNC     s:8157+5,AL
        12 001406   001421 710000 12                 TRA     s:8167
        12 001407   001411 710000 12                 TRA     s:8159
        12 001410   001411 710000 12                 TRA     s:8159

      770     8158    5                          CASE(4,5);       /* WILDCARD                           */

      771     8159    5                            RESULTS_FID_IN.NAME = '0'B;

   8159 12 001411   000031 236000 xsym               LDQ     B_VECTNIL+25
        12 001412   000000 356000 xsym               ANSQ    RESULTS_FID_IN

      772     8160    5                          END;             /* END CASE                           */

      773     8161    4                         END;

      774     8162    3                     END;

   8162 12 001413   001421 710000 12                 TRA     s:8167

      775     8163    2                  ELSE                     /* Name not provided                  */
      776     8164    2                    ICB.SPEC_TYPE = 2;     /* FULL RANGE                         */

   8164 12 001414   000002 235007                    LDA     2,DL
        12 001415   000017 755000 xsym               STA     ICB+15
        12 001416   001421 710000 12                 TRA     s:8167

      777     8165    2            ELSE                           /* Not file or managed tape           */
      778     8166    2              ICB.SPEC_TYPE = 1;           /* SINGLE FILE SPEC                   */

   8166 12 001417   000001 235007                    LDA     1,DL
        12 001420   000017 755000 xsym               STA     ICB+15

      779     8167    2           IF ICB.FSN.START>0              /* FSN's OVERRIDE OTHER TYPES         */

PL6.E3A0      #003=VPF$GET_NEXT_SPEC File=VPF$SRCLST.:E05TSI                     WED 07/30/97 07:34 Page:131
   8167 12 001421   000044 220000 xsym               LDX0    ICB+36
        12 001422   001432 600000 12                 TZE     s:8174

      780     8168    2            THEN
      781     8169    2              IF ICB.FSN.FINISH>0

   8169 12 001423   000044 721000 xsym               LXL1    ICB+36
        12 001424   001430 600000 12                 TZE     s:8173

      782     8170    2               THEN
      783     8171    2                 ICB.SPEC_TYPE = 8;        /* FSN RANGE                          */

   8171 12 001425   000010 235007                    LDA     8,DL
        12 001426   000017 755000 xsym               STA     ICB+15
        12 001427   001432 710000 12                 TRA     s:8174

      784     8172    2               ELSE
      785     8173    2                 ICB.SPEC_TYPE = 7;        /* SINGLE FSN                         */

   8173 12 001430   000007 235007                    LDA     7,DL
        12 001431   000017 755000 xsym               STA     ICB+15

      786     8174    2   END SET_SPEC_TYPE;

   8174 12 001432   200010 221300                    LDX1  ! NEW_FID_LEN+1,,AUTO
        12 001433   000001 702211                    TSX2  ! 1,X1

      787     8175        %EJECT;
PL6.E3A0      #003=VPF$GET_NEXT_SPEC File=VPF$SRCLST.:E05TSI                     WED 07/30/97 07:34 Page:132
      788     8176    1   VERIFY_STUFF_IN_OPTS: PROC(RET_VAL,DEV_OR_FID);

   8176 12 001434   200014 741300       VERIFY_STUF* STX1  ! CODE+1,,AUTO

      789     8177        /*I* NAME: VERIFY_STUFF_IN_OPTS
      790     8178             PURPOSE: To validate and store into ICB (Input Control Block) or
      791     8179                      DEV_ICB (DEVice ICB) the input options.
      792     8180             CALL: CALL VERIFY_STUFF_IN_OPTS(RET_VAL,DEV_OR_FID);
      793     8181             DESCRIPTION: This procedure drives the processing of the input options.
      794     8182                          If DEV_OR_FID=0 meaning this is a device options list,
      795     8183                          DEV_ICB is copied to and finally back from ICB since
      796     8184                          PROCESS_INPUT_OPT only fills ICB. REC_SEL_CNT is used
      797     8185                          to facilitate correct overwriting of ICB.REC_SEL for
      798     8186                          occasions where a fid options list updates a device
      799     8187                          options list. RET_VAL is set to 2 by PROCESS_INPUT_OPT if
      800     8188                          any option was in error.
      801     8189        */
      802     8190    2   DCL RET_VAL SBIN WORD;
      803     8191    2   DCL DEV_OR_FID SBIN WORD;
      804     8192    2   DCL OPT_IDX SBIN WORD;
      805     8193    2           CON_DUP_TBL = '0'B;

   8193 12 001435   000000 450000 xsym               STZ     CON_DUP_TBL

      806     8194    2           REC_SEL_CNT = 0;                /* USED TO HOLD NUMBER OF             */

   8194 12 001436   000000 450000 xsym               STZ     REC_SEL_CNT

      807     8195                                                /* ELEMENTS IN REC_SEL TABLE.         */
      808     8196                                                /* IF ON COMPLETION, IT IS>0,         */
      809     8197                                                /* THEN IT IS MOVED TO                */
      810     8198                                                /* ICB.REC_SEL.CNT INSURING           */
      811     8199                                                /* OVERWRITING OF REC_SEL FIELD       */
      812     8200                                                /* ONLY IF NECESSARY. IT LEAVES       */
      813     8201                                                /* DEVICE OPTIONS INTACT              */
      814     8202                                                /* OTHERWISE.                         */
      815     8203    2           IF DEV_OR_FID=0                 /* If device options exist...         */
PL6.E3A0      #003=VPF$GET_NEXT_SPEC File=VPF$SRCLST.:E05TSI                     WED 07/30/97 07:34 Page:133

   8203 12 001437   200016 470500                    LDP0    @DEV_OR_FID,,AUTO
        12 001440   000000 235100                    LDA     0,,PR0
        12 001441   001445 601000 12                 TNZ     s:8206

      816     8204    2            THEN
      817     8205    2              ICB = DEV_ICB;               /* WILL BE COPIED BACK LATER.         */

   8205 12 001442   000000 100400                    MLR     fill='000'O
        12 001443   000000 001214 xsym               ADSC9   DEV_ICB                  cn=0,n=652
        12 001444   000000 001214 xsym               ADSC9   ICB                      cn=0,n=652

      818     8206    2           OPT_IDX = 0;

   8206 12 001445   200017 450100                    STZ     OPT_IDX,,AUTO

      819     8207    3           DO WHILE(OPT_IDX<IN_OPT$->OUT$BLK.NSUBLKS);

   8207 12 001446   200005 471500                    LDP1    IN_OPT$,,AUTO
        12 001447   100001 236100                    LDQ     1,,PR1
        12 001450   000022 772000                    QRL     18
        12 001451   200017 116100                    CMPQ    OPT_IDX,,AUTO
        12 001452   001476 604400 12                 TMOZ    s:8214

      820     8208    3              CALL VPF$PROCESS_INPUT_OPT(IN_OPT$->OUT$BLK.SUBLK$(OPT_IDX))

   8208 12 001453   200017 236100                    LDQ     OPT_IDX,,AUTO
        12 001454   000022 736000                    QLS     18
        12 001455   000003 036003                    ADLQ    3,DU
        12 001456   200005 036100                    ADLQ    IN_OPT$,,AUTO
        12 001457   200020 756100                    STQ     OPT_IDX+1,,AUTO
        12 001460   200020 630500                    EPPR0   OPT_IDX+1,,AUTO
        12 001461   000017 631400 xsym               EPPR1   B_VECTNIL+15
        12 001462   000000 701000 xent               TSX1    VPF$PROCESS_INPUT_OPT
        12 001463   001465 702000 12                 TSX2    s:8210
        12 001464   001470 710000 12                 TRA     s:8212

PL6.E3A0      #003=VPF$GET_NEXT_SPEC File=VPF$SRCLST.:E05TSI                     WED 07/30/97 07:34 Page:134
      821     8209    4               WHENALTRETURN DO;

      822     8210    4                  RET_VAL=2;

   8210 12 001465   000002 235007                    LDA     2,DL
        12 001466   200015 470500                    LDP0    @RET_VAL,,AUTO
        12 001467   000000 755100                    STA     0,,PR0

      823     8211    4                  END;

      824     8212    3              OPT_IDX = OPT_IDX+1;

   8212 12 001470   200017 054100                    AOS     OPT_IDX,,AUTO

      825     8213    3              END;

   8213 12 001471   200005 470500                    LDP0    IN_OPT$,,AUTO
        12 001472   000001 236100                    LDQ     1,,PR0
        12 001473   000022 772000                    QRL     18
        12 001474   200017 116100                    CMPQ    OPT_IDX,,AUTO
        12 001475   001453 605400 12                 TPNZ    s:8208

      826     8214    2           IF REC_SEL_CNT>0

   8214 12 001476   000000 235000 xsym               LDA     REC_SEL_CNT
        12 001477   001501 604400 12                 TMOZ    s:8217

      827     8215    2            THEN
      828     8216    2              ICB.REC_SEL.CNT = REC_SEL_CNT;

   8216 12 001500   000047 755000 xsym               STA     ICB+39

      829     8217    2           IF DEV_OR_FID=0                 /* IF DEVICE OPTIONS...               */

   8217 12 001501   200016 470500                    LDP0    @DEV_OR_FID,,AUTO
        12 001502   000000 235100                    LDA     0,,PR0
        12 001503   001507 601000 12                 TNZ     s:8221
PL6.E3A0      #003=VPF$GET_NEXT_SPEC File=VPF$SRCLST.:E05TSI                     WED 07/30/97 07:34 Page:135

      830     8218    2            THEN
      831     8219    2              DEV_ICB = ICB;               /* Copy the original back.            */

   8219 12 001504   000000 100400                    MLR     fill='000'O
        12 001505   000000 001214 xsym               ADSC9   ICB                      cn=0,n=652
        12 001506   000000 001214 xsym               ADSC9   DEV_ICB                  cn=0,n=652

      832     8220        %EJECT;
PL6.E3A0      #003=VPF$GET_NEXT_SPEC File=VPF$SRCLST.:E05TSI                     WED 07/30/97 07:34 Page:136
      833     8221    2   END VERIFY_STUFF_IN_OPTS;

   8221 12 001507   200014 221300                    LDX1  ! CODE+1,,AUTO
        12 001510   000001 702211                    TSX2  ! 1,X1
      834     8222    1   END VPF$GET_NEXT_SPEC;
      835     8223        %EOD;

PL6.E3A0      #003=VPF$GET_NEXT_SPEC File=VPF$SRCLST.:E05TSI                     WED 07/30/97 07:34 Page:137
--  Include file information  --

   B_MICROPS_C.:E05TOU  is referenced.
   XU_MACRO_C.:E05TOU  is referenced.
   VP_MACRO_C.:E05TOU  is referenced.
   XS_MACRO_C.:E05TOU  is referenced.
   VP_PERR_C.:E05TOU  is referenced.
   CP_6_SUBS.:E05TOU  is referenced.
   CP_6.:E05TOU  cannot be made into a system file and is referenced.
   VP_DATA_R.:E05TOU  cannot be made into a system file and is referenced.
   B$JIT.:E05TOU  cannot be made into a system file and is referenced.
   B$JIT_C.:E05TOU  was found in the system file and is referenced.
   CP_6_C.:E05TOU  was found in the system file and is referenced.
      No diagnostics issued in procedure VPF$GET_NEXT_SPEC.
PL6.E3A0      #003=VPF$GET_NEXT_SPEC File=VPF$SRCLST.:E05TSI                     WED 07/30/97 07:34 Page:138

 **** Variables and constants ****

  ****  Section 010  Data  VPF$GET_NEXT_SPEC

  ****  Scalars and arrays  ****
OctLoc.c.b A Datatyp(siz) R M Lvl/name                 OctLoc.c.b A Datatyp(siz) R M Lvl/name

    56-0-0/c CHAR(10)    r     1 END_DUMMY                 46-0-0/c STRC(288)   r     1 END_NAME
    16-0-0/d STRC(864)   r     1 FPT_FID_END                2-0-0/w PTR         r     1 NL$
     3-0-0/w SBIN        r     1 NL_IDX                     4-0-0/d STRC(324)   r     1 RESULTS_FID_END
     0-0-0/w PTR         r     1 SL$                        1-0-0/w SBIN        r     1 SL_IDX

  ****  Section 011 RoData VPF$GET_NEXT_SPEC

  ****  Scalars and arrays  ****
OctLoc.c.b A Datatyp(siz) R M Lvl/name                 OctLoc.c.b A Datatyp(siz) R M Lvl/name

     0-0-0/c CHAR        r     1 DOT_LIT

  ****  Auto variables  ****

  ****  Scalars and arrays  ****
OctLoc.c.b A Datatyp(siz) R M Lvl/name                 OctLoc.c.b A Datatyp(siz) R M Lvl/name

    16-0-0/w PTR         r     1 @DEV_OR_FID                3-0-0/w PTR         r     1 @RET_VAL
    11-0-0/w PTR         r     1 @RET_VAL                  11-0-0/w PTR         r     1 @RET_VAL
    15-0-0/w PTR         r     1 @RET_VAL                   4-0-0/w PTR         r     1 @SOURCELIST$
    13-0-0/w SBIN        r     1 CODE                      *0-0-0/w SBIN        r     1 DEV_OR_FID
     5-0-0/w PTR         r     1 IN_OPT$                    6-0-0/w PTR         r     1 NE$
     7-0-0/w SBIN        r     1 NEW_FID_LEN               17-0-0/w SBIN        r     1 OPT_IDX
    *0-0-0/w SBIN        r     1 RET_VAL                   *0-0-0/w SBIN        r     1 RET_VAL
    *0-0-0/w SBIN        r     1 RET_VAL                   *0-0-0/w SBIN        r     1 RET_VAL
    12-0-0/w PTR         r     1 S12$                      *0-0-0/w PTR         r     1 SOURCELIST$

  ****  SYMREF variables  ****

  ****  Scalars and arrays  ****
PL6.E3A0      #003=VPF$GET_NEXT_SPEC File=VPF$SRCLST.:E05TSI                     WED 07/30/97 07:34 Page:139
OctLoc.c.b A Datatyp(siz) R M Lvl/name                 OctLoc.c.b A Datatyp(siz) R M Lvl/name

     0-0-0/w PTR         r     1 B$JIT$
     0-0-0/w EPTR        r     1 BREAK_MESSAGE_REPORTER
     0-0-0/b BIT         r     1 CMD_MASK(0:71)
     0-0-0/b BIT         r     1 CON_DUP_TBL(0:35)
     0-0-0/d STRC(5868)  r     1 DEF_ICB                    0-0-0/d STRC(5868)  r     1 DEV_ICB
     0-0-0/d STRC(864)   r     1 FPT_FID_IN                 0-0-0/c CHAR(8)     r     1 FROM_ACCT
     0-0-0/b UBIN(9)     r     1 FROM_ASN                   0-0-0/c STRC(288)   r     1 FROM_NAME
     0-0-0/c CHAR(8)     r     1 FROM_PASS                  0-0-0/c CHAR(4)     r     1 FROM_RES
     0-0-0/w STRC(1116)  r     1 FROM_SN                    0-0-0/c CHAR(8)     r     1 FROM_WSN
     0-0-0/d STRC(5868)  r     1 ICB                        0-0-0/c CHAR(8)     r     1 IN_ACCT
     0-0-0/b UBIN(9)     r     1 IN_ASN                     0-0-0/c STRC(288)   r     1 IN_NAME
     0-0-0/c CHAR(8)     r     1 IN_PASS                    0-0-0/c CHAR(4)     r     1 IN_RES
     0-0-0/w STRC(1116)  r     1 IN_SN                      0-0-0/c CHAR(8)     r     1 IN_WSN
     0-0-0/w SBIN        r     1 REC_SEL_CNT                0-0-0/d STRC(324)   r     1 RESULTS_FID_FROM
     0-0-0/d STRC(324)   r     1 RESULTS_FID_IN             0-0-0/w SBIN        r     1 SINGLE_INSPEC
     0-0-0/b BIT         r     1 THIS_STD_FILE

  ****  BASED and DCB variables  ****

  ****  Scalars and arrays  ****
OctLoc.c.b A Datatyp(siz) R M Lvl/name                 OctLoc.c.b A Datatyp(siz) R M Lvl/name

     0-0-0/w STRC(144)   r     1 OUT$BLK                    0-0-0/w ASTR(153)   r     1 OUT$SYM
     0-0-0/c ASTR(9)     r     1 TEXT$C                     0-0-0/c ASTR(9)     r     1 TEXT$C_BIT


   Procedure VPF$GET_NEXT_SPEC requires 841 words for executable code.
   Procedure VPF$GET_NEXT_SPEC requires 28 words of local(AUTO) storage.
PL6.E3A0      #003=VPF$GET_NEXT_SPEC File=VPF$SRCLST.:E05TSI                     WED 07/30/97 07:34 Page:140
          *** CROSS REFERENCE LISTING ***
**     DENOTES     IDENTIFIER DEFINITION
<<                 IDENTIFIER'S VALUE SET
>>                 IDENTIFIER'S VALUE USED
<>                 IDENTIFIER SET AND/OR USED
--                 IDENTIFIER REFERENCED
PL6.E3A0      #003=VPF$GET_NEXT_SPEC File=VPF$SRCLST.:E05TSI                     WED 07/30/97 07:34 Page:141
          MINI XREF LISTING

ADD_FROM_INFO
      7917**PROC     7770--CALL     8103--CALL
B$JIT.CPFLAGS1.SLEAZE
       162**DCL       162--REDEF
B$JIT.ERR.MID
        69**DCL        69--REDEF
B$JIT.JRESPEAK
       230**DCL       231--REDEF
B$JIT.ORIGINATOR_PORT.FROM_CR
       339**DCL       339--REDEF     340--REDEF
B$JIT.PNR
       243**DCL       243--REDEF
B$JIT.TSLINE
       337**DCL       338--REDEF
B$JIT$
      6316**DCL        63--IMP-PTR
BREAK_LOC
      5551**DCL      5551--REDEF
CALL_FID IN PROCEDURE NEXT_SOURCE
      8071**LABEL    8012--GOTO
CMD_MASK
      5553**DCL      7825>>IF       7829>>IF       7841>>IF       8134>>IF
CODE IN PROCEDURE NEXT_SOURCE
      7991**DCL      8040<<ASSIGN   8043<<ASSIGN   8044>>IF       8050<<ASSIGN   8052>>IF
CON_DUP_TBL
      5549**DCL      8193<<ASSIGN
DEF_ICB.A_EA_C
      6143**DCL      7888>>ASSIGN
DEF_ICB.COLS
      6145**DCL      7891>>ASSIGN
DEF_ICB.CREATOR
      6221**DCL      7869>>ASSIGN
PL6.E3A0      #003=VPF$GET_NEXT_SPEC File=VPF$SRCLST.:E05TSI                     WED 07/30/97 07:34 Page:142
DEF_ICB.CREATOR_NEG
      6220**DCL      7868>>ASSIGN
DEF_ICB.CREATOR_SEL
      6219**DCL      7867>>ASSIGN
DEF_ICB.DATE
      6179**DCL      7875>>ASSIGN
DEF_ICB.FFID
      6171**DCL      7894>>ASSIGN
DEF_ICB.FID.STRING
      6149**DCL      6150--REDEF
DEF_ICB.ORG
      6169**DCL      7885>>ASSIGN
DEF_ICB.ORG_NEG
      6170**DCL      7884>>ASSIGN
DEF_ICB.SORTING_ORDER
      6227**DCL      7878>>ASSIGN
DEF_ICB.SRCHCOND
      6186**DCL      7872>>ASSIGN
DEF_ICB.TYPE
      6173**DCL      7881>>ASSIGN
DEV_ICB
      6016**DCL      7727>>ASSIGN   7997<<ASSIGN   8078<>CALL     8205>>ASSIGN   8219<<ASSIGN
DEV_ICB.FID
      6033**DCL      8032<<ASSIGN   8070--ASSIGN   8070--ASSIGN   8087--CALL
DEV_ICB.FID.LEN
      6034**DCL      8033>>IF       8055>>ASSIGN   8056<<ASSIGN   8056>>ASSIGN
DEV_ICB.FID.STRING
      6035**DCL      6036--REDEF    8033--IF
DEV_ICB.FID.STR_ARY
      6036**DCL      8055<<ASSIGN
DEV_ICB.NAME_RANGE_END
      6058**DCL      7998<<ASSIGN
DEV_OR_FID IN PROCEDURE VERIFY_STUFF_IN_OPTS
      8191**DCL      8176--PROC     8203>>IF       8217>>IF
DOT_LIT IN PROCEDURE NEXT_SOURCE
      7992**DCL      8011--ASSIGN
PL6.E3A0      #003=VPF$GET_NEXT_SPEC File=VPF$SRCLST.:E05TSI                     WED 07/30/97 07:34 Page:143
EI_KEY.KEY
      6247**DCL      6247--REDEF    6247--REDEF    6247--REDEF
END_DUMMY
      7392**DCL      7378--DCLINIT  7379--DCLINIT  7379--DCLINIT  7379--DCLINIT  7380--DCLINIT  7380--DCLINIT
END_NAME
      7389**DCL      7378--DCLINIT
END_NAME.STRING
      7391**DCL      7805>>ASSIGN
EO_OCB.TYPE
      5747**DCL      5748--REDEF
FID_ALT_1
      7903**LABEL    7766--CALLALT  7789--CALLALT
FID_ALT_2 IN PROCEDURE NEXT_SOURCE
      8102**LABEL    8071--CALLALT
FPT_CLOSE_EI.SN_
      7088**DCL      7088--REDEF
FPT_CLOSE_EI.UTL_
      7089**DCL      7089--REDEF
FPT_CLOSE_EI.V.EXPIRE#
      7103**DCL      7103--REDEF
FPT_CLOSE_EI.V.TYPE#
      7101**DCL      7101--REDEF
FPT_CLOSE_EI.V.XTNSIZE#
      7098**DCL      7098--REDEF    7100--REDEF
FPT_CLOSE_PTL.SN_
      7214**DCL      7214--REDEF
FPT_CLOSE_PTL.UTL_
      7215**DCL      7215--REDEF
FPT_CLOSE_PTL.V.EXPIRE#
      7229**DCL      7229--REDEF
FPT_CLOSE_PTL.V.TYPE#
      7227**DCL      7227--REDEF
FPT_CLOSE_PTL.V.XTNSIZE#
      7224**DCL      7224--REDEF    7226--REDEF
FPT_CLOSE_READ.SN_
      7130**DCL      7130--REDEF
PL6.E3A0      #003=VPF$GET_NEXT_SPEC File=VPF$SRCLST.:E05TSI                     WED 07/30/97 07:34 Page:144
FPT_CLOSE_READ.UTL_
      7131**DCL      7131--REDEF
FPT_CLOSE_READ.V.EXPIRE#
      7145**DCL      7145--REDEF
FPT_CLOSE_READ.V.TYPE#
      7143**DCL      7143--REDEF
FPT_CLOSE_READ.V.XTNSIZE#
      7140**DCL      7140--REDEF    7142--REDEF
FPT_CLOSE_SI.SN_
      7298**DCL      7298--REDEF
FPT_CLOSE_SI.UTL_
      7299**DCL      7299--REDEF
FPT_CLOSE_SI.V.EXPIRE#
      7313**DCL      7313--REDEF
FPT_CLOSE_SI.V.TYPE#
      7311**DCL      7311--REDEF
FPT_CLOSE_SI.V.XTNSIZE#
      7308**DCL      7308--REDEF    7310--REDEF
FPT_CLOSE_STD.SN_
      7256**DCL      7256--REDEF
FPT_CLOSE_STD.UTL_
      7257**DCL      7257--REDEF
FPT_CLOSE_STD.V.EXPIRE#
      7271**DCL      7271--REDEF
FPT_CLOSE_STD.V.TYPE#
      7269**DCL      7269--REDEF
FPT_CLOSE_STD.V.XTNSIZE#
      7266**DCL      7266--REDEF    7268--REDEF
FPT_CLSEI_FT.SN_
      7172**DCL      7172--REDEF
FPT_CLSEI_FT.UTL_
      7173**DCL      7173--REDEF
FPT_CLSEI_FT.V.EXPIRE#
      7187**DCL      7187--REDEF
FPT_CLSEI_FT.V.TYPE#
      7185**DCL      7185--REDEF
PL6.E3A0      #003=VPF$GET_NEXT_SPEC File=VPF$SRCLST.:E05TSI                     WED 07/30/97 07:34 Page:145
FPT_CLSEI_FT.V.XTNSIZE#
      7182**DCL      7182--REDEF    7184--REDEF
FPT_FID_END
      7377**DCL      7789<>CALL
FPT_FID_END.TEXTFID_
      7377**DCL      7787<<ASSIGN
FPT_FID_END.V
      7381**DCL      7377--DCLINIT
FPT_FID_IN
      6330**DCL      7766<>CALL     8071<>CALL
FPT_FID_IN.TEXTFID_
      6330**DCL      7765<<ASSIGN   8011<<ASSIGN   8070<<ASSIGN
FPT_OPEN_EI.ACSVEH_
      6743**DCL      6744--REDEF
FPT_OPEN_EI.ALTKEYS_
      6749**DCL      6750--REDEF    6750--REDEF
FPT_OPEN_EI.HDR_
      6748**DCL      6749--REDEF
FPT_OPEN_EI.TAB_
      6747**DCL      6748--REDEF
FPT_OPEN_EI.UHL_
      6741**DCL      6742--REDEF    6742--REDEF
FPT_OPEN_EI.V.FSN#
      6781**DCL      6781--REDEF    6781--REDEF
FPT_OPEN_EI.WSN_
      6747**DCL      6747--REDEF
FPT_OPEN_EI_SAVE.ACSVEH_
      6852**DCL      6853--REDEF
FPT_OPEN_EI_SAVE.ALTKEYS_
      6858**DCL      6859--REDEF    6859--REDEF
FPT_OPEN_EI_SAVE.HDR_
      6857**DCL      6858--REDEF
FPT_OPEN_EI_SAVE.TAB_
      6856**DCL      6857--REDEF
FPT_OPEN_EI_SAVE.UHL_
      6850**DCL      6851--REDEF    6851--REDEF
PL6.E3A0      #003=VPF$GET_NEXT_SPEC File=VPF$SRCLST.:E05TSI                     WED 07/30/97 07:34 Page:146
FPT_OPEN_EI_SAVE.V.FSN#
      6890**DCL      6890--REDEF    6890--REDEF
FPT_OPEN_EI_SAVE.WSN_
      6856**DCL      6856--REDEF
FPT_OPEN_OUT.ACSVEH_
      6634**DCL      6635--REDEF
FPT_OPEN_OUT.ALTKEYS_
      6640**DCL      6641--REDEF    6641--REDEF
FPT_OPEN_OUT.HDR_
      6639**DCL      6640--REDEF
FPT_OPEN_OUT.TAB_
      6638**DCL      6639--REDEF
FPT_OPEN_OUT.UHL_
      6632**DCL      6633--REDEF    6633--REDEF
FPT_OPEN_OUT.V.FSN#
      6672**DCL      6672--REDEF    6672--REDEF
FPT_OPEN_OUT.WSN_
      6638**DCL      6638--REDEF
FPT_OPEN_OUT_SAVE.ACSVEH_
      6525**DCL      6526--REDEF
FPT_OPEN_OUT_SAVE.ALTKEYS_
      6531**DCL      6532--REDEF    6532--REDEF
FPT_OPEN_OUT_SAVE.HDR_
      6530**DCL      6531--REDEF
FPT_OPEN_OUT_SAVE.TAB_
      6529**DCL      6530--REDEF
FPT_OPEN_OUT_SAVE.UHL_
      6523**DCL      6524--REDEF    6524--REDEF
FPT_OPEN_OUT_SAVE.V.FSN#
      6563**DCL      6563--REDEF    6563--REDEF
FPT_OPEN_OUT_SAVE.WSN_
      6529**DCL      6529--REDEF
FPT_READ_STD.STATION_
      6953**DCL      6954--REDEF
FPT_READ_STD.V.DVBYTE.REREAD#
      6965**DCL      6965--REDEF
PL6.E3A0      #003=VPF$GET_NEXT_SPEC File=VPF$SRCLST.:E05TSI                     WED 07/30/97 07:34 Page:147
FPT_READ_STD.V.INDX#
      6963**DCL      6963--REDEF
FPT_READ_UC.STATION_
      6914**DCL      6915--REDEF
FPT_READ_UC.V.DVBYTE.REREAD#
      6926**DCL      6926--REDEF
FPT_READ_UC.V.INDX#
      6924**DCL      6924--REDEF
FPT_WRITE_ME.STATION_
      7022**DCL      7022--REDEF
FPT_WRITE_ME.V.DVBYTE.VFC#
      7029**DCL      7029--REDEF
FPT_WRITE_OUT.STATION_
      7053**DCL      7053--REDEF
FPT_WRITE_OUT.V.DVBYTE.VFC#
      7060**DCL      7060--REDEF
FPT_WRITE_UC.STATION_
      6991**DCL      6991--REDEF
FPT_WRITE_UC.V.DVBYTE.VFC#
      6998**DCL      6998--REDEF
FROM_ACCT
      5881**DCL      7946>>ASSIGN
FROM_ASN
      5900**DCL      7931>>ASSIGN
FROM_NAME
      5880**DCL      7940>>ASSIGN
FROM_PASS
      5881**DCL      7952>>ASSIGN
FROM_RES
      5881**DCL      7932>>ASSIGN
FROM_SN
      5892**DCL      7933>>ASSIGN
FROM_SN.SN
      5897**DCL      5898--REDEF
FROM_WSN
      5900**DCL      7958>>ASSIGN
PL6.E3A0      #003=VPF$GET_NEXT_SPEC File=VPF$SRCLST.:E05TSI                     WED 07/30/97 07:34 Page:148
GETCMD.OUT$
      5104**DCL      5110--REDEF
ICB
      5902**DCL      7727<<ASSIGN   7771<>CALL     8205<<ASSIGN   8219>>ASSIGN
ICB.A_EA_C
      5915**DCL      7887>>IF       7888<<ASSIGN
ICB.COLS
      5917**DCL      7890>>IF       7891<<ASSIGN
ICB.CREATOR
      5993**DCL      7869<<ASSIGN
ICB.CREATOR_NEG
      5992**DCL      7868<<ASSIGN
ICB.CREATOR_SEL
      5991**DCL      7866>>IF       7867<<ASSIGN
ICB.DATE
      5951**DCL      7875<<ASSIGN
ICB.DATE.TYPE
      5952**DCL      7874>>IF
ICB.DEV_MASK
      5971**DCL      7777>>IF       7825>>IF       7829>>IF       8142>>IF
ICB.DEV_MASK.DEV_TAPE
      5975**DCL      8134>>IF
ICB.DEV_MASK.MAN_DISC
      5973**DCL      7841>>IF
ICB.FFID
      5943**DCL      7893>>IF       7894<<ASSIGN
ICB.FID
      5919**DCL      7765--ASSIGN   7765--ASSIGN   7809--CALL     7834--CALL
ICB.FID.LEN
      5920**DCL      7735>>IF       7748>>ASSIGN   7760>>CALLBLT  7764<<ASSIGN
ICB.FID.STRING
      5921**DCL      5922--REDEF    7750--IF       7760<<CALLBLT
ICB.FSN
      5923**DCL      7855<<ASSIGN   8134>>IF
ICB.FSN.FINISH
      5925**DCL      8140<<ASSIGN   8169>>IF
PL6.E3A0      #003=VPF$GET_NEXT_SPEC File=VPF$SRCLST.:E05TSI                     WED 07/30/97 07:34 Page:149
ICB.FSN.START
      5924**DCL      8139<<ASSIGN   8167>>IF
ICB.NAME_RANGE_END
      5944**DCL      7781<<ASSIGN   7805<<ASSIGN   8144>>IF
ICB.ORG
      5941**DCL      7883>>IF       7885<<ASSIGN
ICB.ORG_NEG
      5942**DCL      7884<<ASSIGN
ICB.PHYSICAL
      5912**DCL      7903>>IF
ICB.REC_SEL.CNT
      5929**DCL      8216<<ASSIGN
ICB.SORTING_ORDER
      5999**DCL      7878<<ASSIGN
ICB.SORTING_ORDER.COUNT
      6000**DCL      7877>>IF
ICB.SPEC_TYPE
      5918**DCL      7895>>IF       7895>>IF       7903>>IF       8146<<ASSIGN   8153<<ASSIGN   8156<>CALL
      8157>>DOCASE   8164<<ASSIGN   8166<<ASSIGN   8171<<ASSIGN   8173<<ASSIGN
ICB.SRCHCOND
      5958**DCL      7871>>IF       7872<<ASSIGN
ICB.TYPE
      5945**DCL      7881<<ASSIGN
ICB.TYPE.COUNT
      5946**DCL      7880>>IF
IFSFA_PARAM.EOMCHAR#
      6276**DCL      6277--REDEF
IFSFA_PARAM.SIG1
      6270**DCL      6270--REDEF
IFSFA_PARAM.SIG2
      6270**DCL      6271--REDEF
IN_ACCT
      5842**DCL      7946<<ASSIGN
IN_ASN
      5880**DCL      7735>>IF       7735>>IF       7931<<ASSIGN
IN_NAME
PL6.E3A0      #003=VPF$GET_NEXT_SPEC File=VPF$SRCLST.:E05TSI                     WED 07/30/97 07:34 Page:150
      5842**DCL      7940<<ASSIGN   8156<>CALL
IN_NAME.LEN
      5842**DCL      7767>>IF       8072>>IF
IN_OPT$
      7489**DCL      7713<<ASSIGN   7821<<ASSIGN   7823<<ASSIGN   7857>>IF       8047<<ASSIGN   8099>>IF
      8207>>DOWHILE  8208>>CALL
IN_PASS
      5843**DCL      7952<<ASSIGN
IN_RES
      5843**DCL      5843--REDEF    7895>>IF       7932<<ASSIGN
IN_SN
      5854**DCL      7933<<ASSIGN
IN_SN.SN
      5859**DCL      5860--REDEF
IN_WSN
      5880**DCL      7958<<ASSIGN
NE$
      7490**DCL      7731<<ASSIGN   7732>>IF       7748>>ASSIGN   7760>>CALLBLT  7760>>CALLBLT  7773>>IF
      7775>>IF       7779>>IF       7787>>ASSIGN   7787>>ASSIGN   7819>>IF       7819>>IF       7821>>ASSIGN
      7821>>ASSIGN
NEED_MAN
      7830**LABEL    7828--GOTO
NEW_FID_LEN
      7491**DCL      7748<<ASSIGN   7750>>IF       7764>>ASSIGN
NEXT_SOURCE
      7965**PROC     7716--CALL     7722--CALL
NL$
      7336**DCL      7711<<ASSIGN   7714>>IF       7720>>IF       7728>>IF       7731>>ASSIGN   7994<<ASSIGN
      8025<<ASSIGN   8061<<ASSIGN   8062>>IF       8079>>IF       8087>>CALL     8087>>CALL
NL_IDX
      7337**DCL      7719<<ASSIGN   7719>>ASSIGN   7720>>IF       7731>>ASSIGN   7995<<ASSIGN
OCB.TYPE
      5605**DCL      5606--REDEF
OFSFA_PARAM.EOMCHAR#
      6306**DCL      6307--REDEF
OFSFA_PARAM.SIG1
PL6.E3A0      #003=VPF$GET_NEXT_SPEC File=VPF$SRCLST.:E05TSI                     WED 07/30/97 07:34 Page:151
      6300**DCL      6300--REDEF
OFSFA_PARAM.SIG2
      6300**DCL      6301--REDEF
OPT_IDX IN PROCEDURE VERIFY_STUFF_IN_OPTS
      8192**DCL      8206<<ASSIGN   8207>>DOWHILE  8208>>CALL     8212<<ASSIGN   8212>>ASSIGN
OUT$BLK.CODE
      7407**DCL      7732>>IF       7775>>IF       7819>>IF       8022>>IF       8043>>ASSIGN   8050>>ASSIGN
      8058>>IF
OUT$BLK.NSUBLKS
      7411**DCL      7720>>IF       7773>>IF       7779>>IF       7819>>IF       7821>>ASSIGN   8015>>IF
      8026>>IF       8041>>IF       8048>>IF       8058>>IF       8061>>ASSIGN   8062>>IF       8062>>IF
      8067>>IF       8207>>DOWHILE
OUT$BLK.SUBLK$
      7432**DCL      7731>>ASSIGN   7732>>IF       7748>>ASSIGN   7748>>ASSIGN   7760>>CALLBLT  7760>>CALLBLT
      7760>>CALLBLT  7760>>CALLBLT  7775>>IF       7779>>IF       7787>>ASSIGN   7787>>ASSIGN   7787>>ASSIGN
      7787>>ASSIGN   7819>>IF       7821>>ASSIGN   8021>>ASSIGN   8032>>ASSIGN   8032>>ASSIGN   8032>>ASSIGN
      8032>>ASSIGN   8043>>ASSIGN   8047>>ASSIGN   8050>>ASSIGN   8058>>IF       8061>>ASSIGN   8087>>CALL
      8087>>CALL     8087>>CALL     8087>>CALL     8087>>CALL     8087>>CALL     8208<>CALL
OUT$SYM.COUNT
      7468**DCL      7471--IMP-SIZ  7787>>ASSIGN
OUT$SYM.TEXT
      7471**DCL      7787--ASSIGN
OUT_SN.SN
      5877**DCL      5878--REDEF
REC_SEL_CNT
      5549**DCL      8194<<ASSIGN   8214>>IF       8216>>ASSIGN
RESULTS_FID_END
      7349**DCL      7381--DCLINIT
RESULTS_FID_END.ACCT
      7349**DCL      7790>>IF
RESULTS_FID_END.NAME
      7349**DCL      7790>>IF
RESULTS_FID_END.PASS
      7349**DCL      7790>>IF
RESULTS_FID_END.SN
      7349**DCL      7790>>IF
PL6.E3A0      #003=VPF$GET_NEXT_SPEC File=VPF$SRCLST.:E05TSI                     WED 07/30/97 07:34 Page:152
RESULTS_FID_END.WSN
      7349**DCL      7790>>IF
RESULTS_FID_FROM
      6372**DCL      7925>>IF
RESULTS_FID_FROM.ACCT
      6372**DCL      7947>>ASSIGN
RESULTS_FID_FROM.NAME
      6372**DCL      7941>>ASSIGN
RESULTS_FID_FROM.PASS
      6372**DCL      7953>>ASSIGN
RESULTS_FID_FROM.RES
      6372**DCL      7934>>ASSIGN
RESULTS_FID_FROM.SN
      6372**DCL      7935>>ASSIGN
RESULTS_FID_FROM.WSN
      6372**DCL      7959>>ASSIGN
RESULTS_FID_IN.ACCT
      6353**DCL      7895>>IF       7943>>IF       7947<<ASSIGN   8077<<ASSIGN   8082>>IF
RESULTS_FID_IN.NAME
      6353**DCL      7769<<ASSIGN   7853>>IF       7895>>IF       7937>>IF       7941<<ASSIGN   8074<<ASSIGN
      8082>>IF       8148>>IF       8159<<ASSIGN
RESULTS_FID_IN.PASS
      6353**DCL      7949>>IF       7953<<ASSIGN   8082>>IF
RESULTS_FID_IN.RES
      6353**DCL      7895>>IF       7928>>IF       7934<<ASSIGN
RESULTS_FID_IN.SN
      6353**DCL      7935<<ASSIGN
RESULTS_FID_IN.TYPE.NAME
      6354**DCL      8151>>IF
RESULTS_FID_IN.WSN
      6353**DCL      7955>>IF       7959<<ASSIGN   8082>>IF
RET_VAL
        49**DCL        10--PROC     7704<<ASSIGN   7716<>CALL     7722<>CALL     7724>>IF       7745<<ASSIGN
      7757<<ASSIGN   7801<<ASSIGN   7816<<ASSIGN   7838<<ASSIGN   7850<<ASSIGN   7860<>CALL     7861>>IF
      7865<>CALL     7909<<ASSIGN   7914<<ASSIGN
RET_VAL IN PROCEDURE NEXT_SOURCE
PL6.E3A0      #003=VPF$GET_NEXT_SPEC File=VPF$SRCLST.:E05TSI                     WED 07/30/97 07:34 Page:153
      7989**DCL      7965--PROC     7993<<ASSIGN   8004<<ASSIGN   8018<<ASSIGN   8037<<ASSIGN   8096<<ASSIGN
      8101<>CALL     8107<<ASSIGN
RET_VAL IN PROCEDURE SET_SPEC_TYPE
      8132**DCL      8111--PROC
RET_VAL IN PROCEDURE VERIFY_STUFF_IN_OPTS
      8190**DCL      8176--PROC     8210<<ASSIGN
S12$ IN PROCEDURE NEXT_SOURCE
      7990**DCL      8021<<ASSIGN   8022>>IF       8025>>ASSIGN   8032>>ASSIGN   8032>>ASSIGN   8041>>IF
      8043>>ASSIGN   8047>>ASSIGN   8048>>IF       8050>>ASSIGN   8058>>IF       8058>>IF       8061>>ASSIGN
      8061>>ASSIGN
SET_SPEC_TYPE
      8111**PROC     7865--CALL
SINGLE_INSPEC
      5557**DCL      7708<<ASSIGN   8010<<ASSIGN   8028<<ASSIGN   8064<<ASSIGN   8069<<ASSIGN
SL$
      7334**DCL      7709<<ASSIGN   7999>>IF       8015>>IF       8021>>ASSIGN   8026>>IF       8062>>IF
      8067>>IF       8075>>IF
SL_IDX
      7335**DCL      7710<<ASSIGN   7996<<ASSIGN   7996>>ASSIGN   8001>>IF       8015>>IF       8021>>ASSIGN
SOURCELIST$
        50**DCL        10--PROC     7705--IF       7709>>ASSIGN
SPEC_BUF
      5555**DCL      5555--REDEF
TEXT$C
      7476**DCL      8032>>ASSIGN   8087--CALL
TEXT$C.LEN
      7477**DCL      7478--IMP-SIZ  7748>>ASSIGN   7760>>CALLBLT  7765>>ASSIGN   8032>>ASSIGN   8070>>ASSIGN
      8087>>CALL
TEXT$C.STRING
      7478**DCL      7760>>CALLBLT  7765--ASSIGN   8070--ASSIGN
TEXT$C_BIT.LEN
      7480**DCL      7482--IMP-SIZ
THIS_STD_FILE
      5549**DCL      7925>>IF
VERIFY_STUFF_IN_OPTS
      8176**PROC     7860--CALL     8101--CALL
PL6.E3A0      #003=VPF$GET_NEXT_SPEC File=VPF$SRCLST.:E05TSI                     WED 07/30/97 07:34 Page:154
VPD$ANAL_NAME
      7511**DCL-ENT  8156--CALL
VPD$FID
      7535**DCL-ENT  7766--CALL     7789--CALL     8071--CALL
VPD$GET_IN_DEV_MASK
      7549**DCL-ENT  7771--CALL     8078--CALL
VPF$PROCESS_INPUT_OPT
      7612**DCL-ENT  8208--CALL
VPL$ERR_PROC
      7677**DCL-ENT  7741--CALL     7753--CALL     7797--CALL     7809--CALL     7834--CALL     7846--CALL
      7899--CALL     7905--CALL     8036--CALL     8087--CALL

