PL6.E3A0      #004=VPF$OPEN_NEXT File=VPF$SRCLST.:E05TSI                         WED 07/30/97 07:37 Page:155
      836        1        /*T***********************************************************/
      837        2        /*T*                                                         */
      838        3        /*T* Copyright (c) Bull HN Information Systems Inc., 1997    */
      839        4        /*T*                                                         */
      840        5        /*T***********************************************************/
      841        6        VPF$OPEN_NEXT: PROC(RET_VAL,CODE,NAME_TEXTC);
      842        7        /*D* NAME: VPF$OPEN_NEXT
      843        8             CALL: CALL VPF$OPEN_NEXT(RET_VAL,CODE,NAME_TEXTC);
      844        9             DESCRIPTION: This procedure will open the next(if CODE=1 or 5), first(if
      845       10                          CODE=2 or CODE=4, or NAME_TEXTC(if CODE=3) input
      846       11                         file from the current file or range specification with all
      847       12                         applicable input options applied.
      848       13
      849       14                          CODE=4 and 5 open with FPARAM, CODE=2 opens with FPARAM only if
      850       15                          required for file selection.
      851       16
      852       17                          RET_VAL will be returned as below:
      853       18                         RET_VAL            DESCRIPTION
      854       19                         -------            -----------
      855       20                         %VPOC_GOTFILE#   0 All fine. A file is open(or t-open) on M$EI.
      856       21                         %VPOC_EXHAUSTED# 1 No more files this spec.
      857       22                         %VPOC_NOACCESS#  2 Access denied. special...for lists and
      858       23                                            reviews only
      859       24        */
      860       25        /**/
      861       26        /*  PARAMETERS  */
      862       27        /**/
      863       28    1   DCL RET_VAL SBIN WORD;
      864       29    1   DCL CODE SBIN WORD;
      865       30    1   DCL 1 NAME_TEXTC,
      866       31    1         2 LEN UBIN BYTE UNAL,
      867       32    1         2 STRING CHAR(NAME_TEXTC.LEN);
      868       33        /**/
      869       34        /*  INCLUDES  */
      870       35        /**/
      871       36        %INCLUDE XUD_UTS_M;                     /* for new rollover UTS declaration   */
      872      118        %INCLUDE VP_DATA_R;
PL6.E3A0      #004=VPF$OPEN_NEXT File=VPF$SRCLST.:E05TSI                         WED 07/30/97 07:37 Page:156
      873     7105        %INCLUDE B_ERRORS_C;
      874     8232        %INCLUDE FM$FIT;
      875     8453        /**/
      876     8454        %B$TCB;
      877     8457        %B$ALT;
      878     8465        %INCLUDE F$DCB;
      879     8514        %INCLUDE XUH_MACRO_C;
      880     8598                %FPT_PFIL(FPTN = FPT_PFIL,
      881     8599                  DCB  = M$EI,
      882     8600                  BOF  = NO,
      883     8601                  STCLASS = CONSTANT);
      884     8616        %FPT_REM(FPTN = FPT_REM_FT,
      885     8617                 DISP = PTV,
      886     8618                 STCLASS = STATIC);
      887     8632    1   DCL 1 CHARB$32 BASED,
      888     8633    1         2 * CHAR(32);
      889     8634    1   DCL 1 TEXT$C BASED,
      890     8635    1         2 LEN UBIN BYTE UNAL,
      891     8636    1         2 STRING CHAR(TEXT$C.LEN);
      892     8637    1   DCL 1 OPEN_NAME,
      893     8638    1         2 LEN UBIN BYTE UNAL,
      894     8639    1         2 STRING CHAR(31) UNAL;
      895     8640    1   DCL 1 TEXT_C,
      896     8641    1         2 C UBIN BYTE CALIGNED,
      897     8642    1         2 TEXT CHAR(31) CALIGNED;
      898     8643    1   DCL CUR_FT_FSN SBIN WORD STATIC;
      899     8644    1   DCL NO_ACCESS SBIN WORD;
      900     8645    1   DCL NO_MORE_FILES SBIN WORD STATIC;
      901     8646    1   DCL FILE_FOUND SBIN WORD;
      902     8647    1   DCL SORT_STATUS SBIN WORD;
      903     8648    1   DCL ABORT_SOURCE_ERR(0:9) UBIN HALF UNAL CONSTANT INIT(
      904     8649    1           %E$OPER,%E$IOERR,%E$CANT,%E$MNTBRK,0,
      905     8650    1           0,0,0,0,0);
      906     8651    1   DCL BAD_FILE_NAME CHAR(31) STATIC;      /* Last filename of a bad error       */
      907     8652    1   DCL T SBIN WORD;
      908     8653    1   DCL I SBIN WORD;
      909     8654    1   DCL CHAR_4 CHAR(4);
PL6.E3A0      #004=VPF$OPEN_NEXT File=VPF$SRCLST.:E05TSI                         WED 07/30/97 07:37 Page:157
      910     8655    1   DCL FIRST BIT(1) ALIGNED;
      911     8656    1   DCL UBIN$HALF UBIN HALF BASED;
      912     8657        %XUD_UTS_EQU;                           /* For new rollover UTS               */
      913     8668        %XUD$UTS_ENTRIES;
      914     8700        %CODE03;
      915     8707        %CODE04;                                /* Structure for FPARAM dates         */
      916     8715        %CODE05;
      917     8718        %CODE06;
      918     8722        %CODE18;                                /* Structure for FIELD definitions    */
      919     8726    1   DCL CONTROL_DATE UBIN WORD STATIC;
      920     8727    1   DCL CODE$ PTR;
      921     8728        %XUG_PARAMS(NAME=XUG_PARAMS,STCLASS=BASED);
      922     9172        /**/
      923     9173        /*  ENTRY DCLS  */
      924     9174        /**/
      925     9175        %VP_ENTRIES (OMIT=VPF$OPEN_NEXT);
      926     9383    1   DCL XSF$LOCCODP ENTRY(2) ALTRET;
      927     9384
      928     9385        %EJECT;
PL6.E3A0      #004=VPF$OPEN_NEXT File=VPF$SRCLST.:E05TSI                         WED 07/30/97 07:37 Page:158
      929     9386        /**/
      930     9387    1           IF SORTING_INPUT
      931     9388    1            THEN
      932     9389    1              GOTO REPLAY_SORTED;
      933     9390    1           IF ICB.SPEC_TYPE > 1
      934     9391    1             AND ICB.SORTING_ORDER.COUNT > 0
      935     9392    1            THEN
      936     9393    2            DO;
      937     9394    2               SORTING_INPUT = '1'B;
      938     9395    2               CALL VPF$SORT_FID(1);
      939     9396    2               END;
      940     9397        /**/
      941     9398    1           RET_VAL = %VPOC_GOTFILE#;
      942     9399    1           FPT_OPEN_EI = FPT_OPEN_EI_SAVE;
      943     9400    1           FIRST = %YES#;
      944     9401    2           DO CASE(CODE);
      945     9402    2            CASE(2,4);                     /* OPEN first input file              */
      946     9403    2              CALL SET_UP_START;
      947     9404    2              NO_MORE_FILES = 0;
      948     9405    2            CASE(1, 5);                    /* OPEN next file                     */
      949     9406    2              IF NO_MORE_FILES=1
      950     9407    2               THEN                        /* Next file doesn't exist            */
      951     9408    3               DO;
      952     9409    3                  RET_VAL = %VPOC_EXHAUSTED#;
      953     9410    3                  GOTO GOT_DISPOSITION;
      954     9411    3                  END;
      955     9412    2            CASE(3);                       /* OPEN file NAME_TEXTC               */
      956     9413    2              FPT_OPEN_EI.NAME_   = VECTOR(NAME_TEXTC);
      957     9414    2              FPT_OPEN_EI.V.OPER.THISF# = %YES#;
      958     9415    2            END;                           /* END CASE                           */
      959     9416    1           FILE_FOUND = 0;
      960     9417        %EJECT;
PL6.E3A0      #004=VPF$OPEN_NEXT File=VPF$SRCLST.:E05TSI                         WED 07/30/97 07:37 Page:159
      961     9418        /**/
      962     9419        /*  Keep trying files until we run out or get a good one.                     */
      963     9420        /**/
      964     9421    1   PLAY_IT_AGAIN: ;
      965     9422    2           DO WHILE(FILE_FOUND=0 AND NO_MORE_FILES=0);
      966     9423                                                /* Set up FPT_OPEN_EI                 */
      967     9424    2              NO_ACCESS = 0;
      968     9425    2              IF FIRST
      969     9426    2               THEN
      970     9427    2                 FIRST = %NO#;
      971     9428    2               ELSE
      972     9429    2                 FPT_OPEN_EI = FPT_OPEN_EI_SAVE;
      973     9430    2              FPT_OPEN_EI.V.CHAIN# = ICB.CAT;
      974     9431    2              ADDR(FPT_OPEN_EI.V.TYPE#)->UBIN$HALF = 0; /* 0 type field in FPT   */
      975     9432    2              FPT_OPEN_EI.V.SHARE# = ICB.SHARE;
      976     9433    2              FPT_OPEN_EI.V.SRCHCOND = ICB.SRCHCOND; /* Add search conditions    */
      977     9434    2              FPT_OPEN_EI.V.IOERROK# = ICB.FLAVOR.IOERROK;
      978     9435    2              FPT_OPEN_EI.V.IGNOREFSN# = ICB.IGNOREFSN;
      979     9436    2              IF ICB.FTORG=0
      980     9437    2               THEN
      981     9438    2                 FPT_OPEN_EI.V.ORG# = %FREE#; /* Default FT org                  */
      982     9439    2               ELSE
      983     9440    2                 FPT_OPEN_EI.V.ORG# = ICB.FTORG;
      984     9441    2              FPT_OPEN_EI.V.BLKL# = ICB.BLKL;
      985     9442    2              FPT_OPEN_EI.V.RECL# = ICB.RECL;
      986     9443    2              IF ICB.NBLOCK
      987     9444    2               THEN
      988     9445    2                 FPT_OPEN_EI.V.BLOCKED# = %NO#;
      989     9446    2               ELSE
      990     9447    2                 FPT_OPEN_EI.V.BLOCKED# = %YES#;
      991     9448    2              IF ICB.NSPAN
      992     9449    2               THEN
      993     9450    2                 FPT_OPEN_EI.V.SPANNED# = %NO#;
      994     9451    2               ELSE
      995     9452    2                 FPT_OPEN_EI.V.SPANNED# = %YES#;
      996     9453    2              IF ICB.EBCDIC
      997     9454    2               THEN
PL6.E3A0      #004=VPF$OPEN_NEXT File=VPF$SRCLST.:E05TSI                         WED 07/30/97 07:37 Page:160
      998     9455    2                 FPT_OPEN_EI.V.EBCDIC# = %YES#;
      999     9456    2              IF ICB.ANSISPAN
     1000     9457    2               THEN
     1001     9458    2                 FPT_OPEN_EI.V.ANSISPANSEQ# = ANSISPAN_OPT;
     1002     9459    2              IF ICB.NCNVRT
     1003     9460    2               THEN
     1004     9461    2                 FPT_OPEN_EI.V.CNVRT# = %NO#;
     1005     9462    2              IF RESULTS_FID_IN.SN
     1006     9463    2               THEN
     1007     9464    2                 FPT_OPEN_EI.SN_ = VECTOR(IN_SN);
     1008     9465    2              IF RESULTS_FID_IN.PASS
     1009     9466    2               THEN
     1010     9467    2                 FPT_OPEN_EI.PASS_ = VECTOR(IN_PASS);
     1011     9468    2              IF ICB.FPARAM_REQUIRED
     1012     9469    2               THEN
     1013     9470    2                 FPT_OPEN_EI.FPARAM_ = VECTOR(FPARAM_BUF);
     1014     9471    2              IF ICB.SPEC_TYPE~=1 AND ICB.SPEC_TYPE~=7
     1015     9472    2               THEN
     1016     9473    2                 FPT_OPEN_EI.V.OPER.NXTF# = %YES#;
     1017     9474    2              IF ICB.DEV_MASK.MAN_TAPE
     1018     9475    2                AND ((CMD_MASK & '34'O/* copies */)~='0'B /* COPY                */
     1019     9476    2                OR ((CMD_MASK & '0006'O/* lists */)~='0'B /* LIST                */
     1020     9477    2                AND ICB.FPARAM_REQUIRED))  /* with ATTR                          */
     1021     9478    2               THEN
     1022     9479    2                 FPT_OPEN_EI.V.OPER.TEST# = %NO#;
     1023     9480                                                /* open TEST mode unless an LT        */
     1024     9481                                                /* COPY or a L(A) LT                  */
     1025     9482    2               ELSE
     1026     9483    2                 IF ICB.DEV_MASK.DEV_TAPE  /* or Free Tape                       */
     1027     9484    2                  THEN
     1028     9485    2                    FPT_OPEN_EI.V.OPER.TEST# = %NO#;
     1029     9486    2                  ELSE
     1030     9487    2                    FPT_OPEN_EI.V.OPER.TEST# = %YES#;
     1031     9488    2              IF ICB.DEV_MASK.DEV_TAPE
     1032     9489    2               THEN
     1033     9490    2                 FPT_OPEN_EI.V.CVOL# = %YES#;
     1034     9491    2   OPEN_IT:   ;                            /* Do the OPEN!                       */
PL6.E3A0      #004=VPF$OPEN_NEXT File=VPF$SRCLST.:E05TSI                         WED 07/30/97 07:37 Page:161
     1035     9492        /**/
     1036     9493        /*  The following setup must be done before EACH OPEN.                        */
     1037     9494        /**/
     1038     9495    2              GETCMD.WORK$->XUG_PARAMS.ERRDCB=0;
              9495                       /* Make sure GETCMD forgets about any file we had open before */
     1039     9496    2              GETCMD.ERRDCB# = 0;
     1040     9497    2              FPARAM_BUF(0) = 0;           /* In case it will not be stored      */
     1041     9498    2              FPARAM$ = ADDR(FPARAM_BUF);  /* In case it will not be stored      */
     1042     9499        /**/
     1043     9500        /*  Time for the actual OPEN.                                                 */
     1044     9501        /**/
     1045     9502    2              CALL VPF$CALL_OPEN (FPT_OPEN_EI) ALTRET (EI_OPEN_ALT);
     1046     9503    2              EOF_SOURCE = '0'B;
     1047     9504    2              CALL TWIDDLE_AFTER_OPEN;
     1048     9505    2              IF FPT_OPEN_EI.V.OPER.MNTONLY#
     1049     9506    3               THEN DO;                    /* Start at beginning file on         */
     1050     9507    3                  FPT_OPEN_EI.V.OPER.MNTONLY# = %NO#; /* this tape               */
     1051     9508    3                  IF M$EI$->F$DCB.FSECT=1
     1052     9509    3                   THEN
     1053     9510    3                     FPT_OPEN_EI.V.FSN# = M$EI$->F$DCB.FSN;
     1054     9511    3                   ELSE
     1055     9512    3                     FPT_OPEN_EI.V.FSN# = M$EI$->F$DCB.FSN+1;
     1056     9513    3                  GOTO OPEN_IT;
     1057     9514    3                  END;
     1058     9515    2              IF ICB.DEV_MASK.DEV_TAPE     /* DEVICE/FREE TAPE                   */
     1059     9516    2                AND (CODE = 2 OR CODE = 4) /* AND FIRST TIME                     */
     1060     9517    2               THEN
     1061     9518    2                 IF ICB.SPEC_TYPE > 6 AND ICB.FSN.FINISH < BITBIN('777777'O)
     1062     9519    2                  THEN
     1063     9520    3                  DO;                      /* GET TO CORRECT FT FSN              */
     1064     9521    3                     IF ICB.CLPOS ~= 0 AND ICB.FSN.FINISH ~=0
     1065     9522    3                      THEN
     1066     9523    3                        CALL VPL$ERR_PROC(3,70,'06'O);
     1067     9524        /*E*  ERROR: VPF-00070
     1068     9525            MESSAGE: CLPOS not allowed with a FSN range.
     1069     9526        */
     1070     9527    3                     CALL M$CLOSE(FPT_CLOSE_EI) ALTRET(PFIL_ERR);
PL6.E3A0      #004=VPF$OPEN_NEXT File=VPF$SRCLST.:E05TSI                         WED 07/30/97 07:37 Page:162
     1071     9528    3                     FPT_REM_FT.V.PSN# = IN_SN.SN(0);
     1072     9529    3                     CALL M$REM(FPT_REM_FT) ALTRET(PFIL_ERR); /* GET TO FSN=1    */
     1073     9530    3                     CALL M$OPEN(FPT_OPEN_EI) ALTRET(PFIL_ERR);
     1074     9531    4                     DO I=2 TO ICB.FSN.START;
     1075     9532    4                        CALL M$PFIL(FPT_PFIL) ALTRET(PFIL_ERR);
     1076     9533    4                        IF NOT ICB.FLAVOR.FFTAPE /* For Managed Free Tapes       */
     1077     9534    5                         THEN DO;          /*  tape must be positioned*/
     1078     9535    5                            CALL M$CLOSE(FPT_CLOSE_EI);/*  past file mark.       */
     1079     9536    5                            CALL M$OPEN(FPT_OPEN_EI) ALTRET(EI_OPEN_ALT);
     1080     9537    5                            END;
     1081     9538    4                        CALL VPD$CHECK_VOL(IN_SN,0,M$EI#,,0); /* Check VOL trans */
     1082     9539    5                        DO WHILE('0'B);
     1083     9540    5   PFIL_ERR:               NO_MORE_FILES = 1; /* FOR POSSIBLE IMMEDIATE RECALL   */
     1084     9541    5                           CALL VPL$ERR_PROC(2,0,,INPUT_ERR,,,M$EI#); /* Abort step */
     1085     9542    5                           END;
     1086     9543    4                        END;
     1087     9544    3                     CUR_FT_FSN = ICB.FSN.START-1;
     1088     9545    3                     END;
     1089     9546    2                  ELSE
     1090     9547    3                  DO;
     1091     9548    3                     CUR_FT_FSN=0;
     1092     9549    3                     END;
     1093     9550                                                /* NOMARKS doesn't really matter here */
     1094     9551                                                /* since we are positioned past the   */
     1095     9552                                                /* tape mark.                         */
     1096     9553    2              IF ICB.DEV_MASK.DEV_TAPE     /* FT TAPE                            */
     1097     9554    2                OR ICB.DEV_MASK.MAN_TAPE   /* LT    TAPE                         */
     1098     9555    2               THEN                        /* Tape involved                      */
     1099     9556    2                 CALL VPD$CHECK_VOL(IN_SN,0,M$EI#,,0); /* Check for VOL trans'n  */
     1100     9557    2   NO_ACC_CONT:
     1101     9558    3              DO CASE(ICB.SPEC_TYPE);
     1102     9559    3               CASE(1,7);                  /* SINGLE FID OR SINGLE FSN...        */
     1103     9560    3                 FILE_FOUND = 1;
     1104     9561    3                 NO_MORE_FILES = 1;
     1105     9562    3                 CUR_FT_FSN = CUR_FT_FSN +1;
     1106     9563    3               CASE(2);                    /* FULL RANGE                         */
     1107     9564    3                 FILE_FOUND = 1;
PL6.E3A0      #004=VPF$OPEN_NEXT File=VPF$SRCLST.:E05TSI                         WED 07/30/97 07:37 Page:163
     1108     9565    3               CASE(3);                    /* SUB-RANGE OF DIRECTORY DEVICE      */
     1109     9566    3                 IF ICB.PHYSICAL=1
     1110     9567    3                  THEN
     1111     9568    4                  DO;                      /* PHYSICAL ORDER FROM LT             */
     1112     9569    4                     FILE_FOUND = 1;
     1113     9570    4                     IF ADDR(DIN_NAME) -> TEXT$C.STRING =
     1114     9571    4                       ICB.NAME_RANGE_END
     1115     9572    4                      THEN
     1116     9573    4                        NO_MORE_FILES = 1;
     1117     9574    4                     END;
     1118     9575    3                  ELSE                     /* NOT PHYSICAL                       */
     1119     9576    4                  DO;
     1120     9577    4                     IF (ADDR(DIN_NAME) -> TEXT$C.STRING <
     1121     9578    4                       ADDR(IN_NAME)->TEXT$C.STRING)
     1122     9579    4                       AND ICB.SRCHCOND.REV
     1123     9580    4                      THEN                 /* Too far back                       */
     1124     9581    4                        GOTO OUTSIDE_RANGE;
     1125     9582    4                     IF ADDR(DIN_NAME) -> TEXT$C.STRING >
     1126     9583    4                       ICB.NAME_RANGE_END
     1127     9584    4                       AND NOT ICB.SRCHCOND.REV
     1128     9585    4                      THEN                 /* Too far foreward                   */
     1129     9586    4                        GOTO OUTSIDE_RANGE;
     1130     9587    4                     FILE_FOUND = 1;       /* Must be good                       */
     1131     9588    5                     DO WHILE ('0'B);
     1132     9589    5   OUTSIDE_RANGE:       ;
     1133     9590    5                        IF ICB.DEV_MASK ~= '100'O /* LT                          */
     1134     9591    5                         THEN
     1135     9592    5                           NO_MORE_FILES = 1;
     1136     9593    5                        END;
     1137     9594    4                     END;
     1138     9595        %EJECT;
PL6.E3A0      #004=VPF$OPEN_NEXT File=VPF$SRCLST.:E05TSI                         WED 07/30/97 07:37 Page:164
     1139     9596    3               CASE(4,5);                  /* WILDCARDING...                     */
     1140     9597    3                 CALL VPD$WILD_COMPARE(IN_NAME,DIN_NAME) ALTRET(NO_WILD_MATCH);
     1141     9598    3                 FILE_FOUND = 1;
     1142     9599    4                 DO WHILE('0'B);           /* NEVER DO                           */
     1143     9600    4   NO_WILD_MATCH:
     1144     9601    4                    IF ICB.SPEC_TYPE = 5 AND ICB.DEV_MASK.MAN_DISC
     1145     9602    4                     THEN                  /* Wildcard without initial '?'       */
     1146     9603    5                     DO;
     1147     9604    5                        CALL INDEX(I,'?',IN_NAME.STRING);
     1148     9605    5                        IF SUBSTR(DIN_NAME.STRING,0,I)
     1149     9606    5                          ~= SUBSTR(IN_NAME.STRING,0,I)
     1150     9607    5                         THEN              /* End of wild, stop opening files    */
     1151     9608    5                           NO_MORE_FILES = 1;
     1152     9609    5                        END;
     1153     9610    4                    END;
     1154     9611    3               CASE(8);                    /* FSN RANGE                          */
     1155     9612    3                 FILE_FOUND = 1;
     1156     9613    3                 IF M$EI$->F$DCB.ASN=%TAPE#
     1157     9614    3                  THEN
     1158     9615    4                  DO;
     1159     9616    4                     IF M$EI$->F$DCB.FSN>=ICB.FSN.FINISH
     1160     9617    4                      THEN
     1161     9618    5                      DO;
     1162     9619    5                         NO_MORE_FILES = 1;
     1163     9620    5                         IF M$EI$->F$DCB.FSN>ICB.FSN.FINISH
     1164     9621    5                          THEN
     1165     9622    5                            FILE_FOUND = 0;
     1166     9623    5                         END;
     1167     9624    4                     END;
     1168     9625    3                  ELSE
     1169     9626    4                  DO;                      /* MUST BE FT                         */
     1170     9627    4                     CUR_FT_FSN = CUR_FT_FSN+1;
     1171     9628    4                     IF CUR_FT_FSN=ICB.FSN.FINISH
     1172     9629    4                      THEN
     1173     9630    4                        NO_MORE_FILES = 1;
     1174     9631    4                     END;
     1175     9632    3               END;                        /* END CASE                           */
PL6.E3A0      #004=VPF$OPEN_NEXT File=VPF$SRCLST.:E05TSI                         WED 07/30/97 07:37 Page:165
     1176     9633    2              IF ICB.DEV_MASK.DEV_TAPE
     1177     9634    2               THEN                        /* Construct NAME from FSN            */
     1178     9635    3               DO;
     1179     9636    3                  CALL BINCHAR(CHAR_4,CUR_FT_FSN);
     1180     9637    3                  CALL CONCAT(DIN_NAME.STRING,'FSN_',CHAR_4);
     1181     9638    3                  DIN_NAME.LEN = 4 + 4;
     1182     9639    3                  IN_NAME.STRING = '?';    /* Always matches                     */
     1183     9640    3                  IN_NAME.LEN = 1;
     1184     9641    3                  END;
     1185     9642    2              IF ICB.ORG ~= '0'B
     1186     9643    2                AND NO_ACCESS = 0
     1187     9644    2                AND ICB.ORG(M$EI$->F$DCB.ORG) = ICB.ORG_NEG
     1188     9645    2               THEN
     1189     9646    2                 FILE_FOUND = 0;
     1190     9647    2              IF ICB.TYPE.COUNT>0 AND FILE_FOUND=1
     1191     9648    2               THEN
     1192     9649    3               DO;
     1193     9650    3                  FILE_FOUND = 0;
     1194     9651    4                  DO T=0 TO ICB.TYPE.COUNT-1;
     1195     9652    4                     IF M$EI$->F$DCB.TYPE=ICB.TYPE.STRING(T)
     1196     9653    4                      THEN
     1197     9654    4                        FILE_FOUND = 1;
     1198     9655    4                     END;
     1199     9656    3                  IF ICB.TYPE.NEG     /* " ~= " option specified on TYPE inopt   */
     1200     9657    3                    AND ADDR(M$EI$->F$DCB.TYPE)->UBIN$HALF ~= 0 /* ~ ARCHIVED    */
     1201     9658    3                   THEN                    /* Just reverse the FILE_FOUND flag   */
     1202     9659    3                     IF FILE_FOUND = 0
     1203     9660    3                      THEN
     1204     9661    3                        FILE_FOUND = 1;
     1205     9662    3                      ELSE
     1206     9663    3                        FILE_FOUND = 0;
     1207     9664    3                  END;
     1208     9665    2              IF ICB.CREATOR_SEL = 2
     1209     9666    2               THEN
     1210     9667    3               DO;
     1211     9668    3                  CALL VPD$FETCH_CREATOR(TEXT_C) ALTRET(CREATOR_OK);
     1212     9669    3                  IF SUBSTR(TEXT_C.TEXT,0,TEXT_C.C) ~=
PL6.E3A0      #004=VPF$OPEN_NEXT File=VPF$SRCLST.:E05TSI                         WED 07/30/97 07:37 Page:166
     1213     9670    3                    SUBSTR(ICB.CREATOR.TEXT,0,ICB.CREATOR.C)
     1214     9671    3                   THEN
     1215     9672    3                     FILE_FOUND = 0;
     1216     9673    3   CREATOR_OK:    ;
     1217     9674    3                  END;
     1218     9675    2              IF ICB.CREATOR_SEL=1 AND NOT(M$EI$ -> F$DCB.OWNER)
     1219     9676    2               THEN
     1220     9677    2                 FILE_FOUND = 0;
     1221     9678    2              IF ICB.CREATOR_SEL ~=0 AND ICB.CREATOR_NEG THEN
     1222     9679    2                 IF FILE_FOUND = 1 THEN
     1223     9680    2                    FILE_FOUND = 0;
     1224     9681    2                  ELSE
     1225     9682    2                    FILE_FOUND = 1;
     1226     9683    2              IF ICB.DATE.RELATION~=0 AND FILE_FOUND=1
     1227     9684    2               THEN
     1228     9685    3               DO;
     1229     9686    3                  FPARAM$=ADDR(FPARAM_BUF);
     1230     9687    3                  CODE$ = FPARAM$;         /* Point to start of FPARAM           */
     1231     9688    3                  CALL XSF$LOCCODP(CODE$,04)
     1232     9689    3                   WHENALTRETURN
     1233     9690    4                   DO;
     1234     9691    4                      IF ICB.DATE.TYPE < 4
     1235     9692    4                       THEN
     1236     9693    5                       DO;
     1237     9694    5                          FILE_FOUND = 0;
     1238     9695    5                          GOTO NO_CODE4;
     1239     9696    5                          END;
     1240     9697    4                      END;
     1241     9698    4                  DO CASE(ICB.DATE.TYPE);
     1242     9699    4                   CASE(1);
     1243     9700    4                     CONTROL_DATE = CODE$ -> CODE04.CREATION.TIME;
     1244     9701    4                   CASE(2);
     1245     9702    4                     CONTROL_DATE = CODE$ -> CODE04.ACCESS.TIME;
     1246     9703    4                   CASE(3);
     1247     9704    4                     CONTROL_DATE = CODE$ -> CODE04.MODIFY.TIME;
     1248     9705    4                   CASE(4);                /* EXPIRATION date                    */
     1249     9706    4                     CONTROL_DATE = CODE$ -> CODE04.CREATION.TIME;
PL6.E3A0      #004=VPF$OPEN_NEXT File=VPF$SRCLST.:E05TSI                         WED 07/30/97 07:37 Page:167
     1250     9707    4                     CODE$ = FPARAM$;      /* Point to start of FPARAM bufr      */
     1251     9708    4                     CALL XSF$LOCCODP(CODE$,03) ALTRET(NEXPR); /* Find expire    */
     1252     9709    4                     IF CODE$ -> CODE03.EXPIRE < 0
     1253     9710    4                      THEN                 /* NEVER EXPIRE                       */
     1254     9711    4                        GOTO NEXPR;
     1255     9712    4                     CALL XUD$UTS_ADJ_25TH (CONTROL_DATE, CONTROL_DATE, CODE$->CODE03.
              9712                              EXPIRE * %UTS_25TH_DAY#);
     1256     9713    4                   CASE(5);
     1257     9714    4                     CODE$ = FPARAM$;
     1258     9715    4                     CALL XSF$LOCCODP(CODE$,05)
     1259     9716    5                      WHENALTRETURN DO;
     1260     9717    5                         FILE_FOUND = 0;
     1261     9718    5                         GOTO NO_CODE4;    /* This file has no backup date       */
     1262     9719    5                         END;
     1263     9720    4                     CONTROL_DATE = CODE$->CODE05.BACKUP.TIME;
     1264     9721    4                   CASE(6);
     1265     9722    4                     CODE$ = FPARAM$;
     1266     9723    4                     CALL XSF$LOCCODP(CODE$,06)
     1267     9724    5                      WHENALTRETURN DO;
     1268     9725    5                         FILE_FOUND = 0;
     1269     9726    5                         GOTO NO_CODE4;    /* This file isn't stowed             */
     1270     9727    5                         END;
     1271     9728    4                     CONTROL_DATE = CODE$->CODE06.STOW.TIME;
     1272     9729    4                   END;                    /* END CASE                           */
     1273     9730    3                  CALL VPD$ROUND_DATE(,,CONTROL_DATE,ICB.DATE.ROUNDING_TYPE);
     1274     9731    4                  DO WHILE ('0'B);
     1275     9732    4   NEXPR:            CONTROL_DATE = BITBIN('777777777777'O); /* NEVER EXPIRE     */
     1276     9733    4                     END;
     1277     9734    4                  DO CASE(ICB.DATE.RELATION);
     1278     9735    4                   CASE(1);                /* CONTROL_DATE < ICB.DATE.UTS        */
     1279     9736    4                     IF CONTROL_DATE >= ICB.DATE.UTS
     1280     9737    4                      THEN
     1281     9738    4                        FILE_FOUND = 0;
     1282     9739    4                   CASE(2);                /* CONTROL_DATE = ICB.DATE.UTS        */
     1283     9740    4                     IF CONTROL_DATE ~= ICB.DATE.UTS
     1284     9741    4                      THEN
     1285     9742    4                        FILE_FOUND = 0;
PL6.E3A0      #004=VPF$OPEN_NEXT File=VPF$SRCLST.:E05TSI                         WED 07/30/97 07:37 Page:168
     1286     9743    4                   CASE(3);                /* CONTROL_DATE > ICB.DATE.UTS        */
     1287     9744    4                     IF CONTROL_DATE <= ICB.DATE.UTS
     1288     9745    4                      THEN
     1289     9746    4                        FILE_FOUND = 0;
     1290     9747    4                   CASE(4);                /* CONTROL_DATE <= ICB.DATE.UTS       */
     1291     9748    4                     IF CONTROL_DATE > ICB.DATE.UTS
     1292     9749    4                      THEN
     1293     9750    4                        FILE_FOUND = 0;
     1294     9751    4                   CASE(5);                /* CONTROL_DATE ~= ICB.DATE.UTS       */
     1295     9752    4                     IF CONTROL_DATE = ICB.DATE.UTS
     1296     9753    4                      THEN
     1297     9754    4                        FILE_FOUND = 0;
     1298     9755    4                   CASE(6);                /* CONTROL_DATE >= ICB.DATE.UTS       */
     1299     9756    4                     IF CONTROL_DATE < ICB.DATE.UTS
     1300     9757    4                      THEN
     1301     9758    4                        FILE_FOUND = 0;
     1302     9759    4                   END;                    /* END CASE                           */
     1303     9760    3                  END;
     1304     9761    2   NO_CODE4:  IF FILE_FOUND=0 AND M$EI$->F$DCB.FCD
     1305     9762    2               THEN
     1306     9763    2                 CALL VPF$CLOSE_IN(1);     /* CLOSE UNWANTED FILE                */
     1307     9764    2              END;                         /* END WHILE                          */
     1308     9765        %EJECT;
PL6.E3A0      #004=VPF$OPEN_NEXT File=VPF$SRCLST.:E05TSI                         WED 07/30/97 07:37 Page:169
     1309     9766        /**/
     1310     9767        /*  Either we have a file, or this spec is exhausted.  */
     1311     9768        /**/
     1312     9769    1           IF FILE_FOUND = 1
     1313     9770    1            THEN
     1314     9771    2            DO;                            /* We have a file that we KNOW we     */
     1315     9772                                                /* want.  Make sure that this good    */
     1316     9773                                                /* file will WORK with our input      */
     1317     9774                                                /* options.                           */
     1318     9775    2               I = 0;                      /* No errors, yet                     */
     1319     9776    2               IF ICB.KEY_SEL
     1320     9777    2                 AND NOT ICB.FLAVOR.KEY_USABLE
     1321     9778    2                 AND NO_ACCESS = 0
     1322     9779    2                THEN
     1323     9780    2                  I = 30;
     1324     9781        /*E*   ERROR: VPF-00030
     1325     9782             MESSAGE: Record selection by key won't work% on %UF%.
     1326     9783            MESSAGE1: Input file% %UF% has an ORG that does not permit
     1327     9784                      record selection by key.
     1328     9785        */
     1329     9786    2               IF I > 0
     1330     9787    2                THEN                       /* This file DOES clash with options  */
     1331     9788    3                DO;
     1332     9789    3                   IF M$EI$ -> F$DCB.FCD
     1333     9790    3                    THEN                   /* Gotta close the file               */
     1334     9791    3                      CALL VPF$CLOSE_IN(1);
     1335     9792    3                   CALL VPL$ERR_PROC(2,I,'06'O,,,,M$EI#);
     1336     9793    3                   END;
     1337     9794    2               END;
     1338     9795        %EJECT;
PL6.E3A0      #004=VPF$OPEN_NEXT File=VPF$SRCLST.:E05TSI                         WED 07/30/97 07:37 Page:170
     1339     9796        /**/
     1340     9797        /*  Either we have a file and the world is fine, OR the input spec            */
     1341     9798        /*  is exhausted.                                                             */
     1342     9799        /**/
     1343     9800    1           IF FILE_FOUND=0
     1344     9801    1            THEN                           /* No more files this spec            */
     1345     9802    1              RET_VAL = %VPOC_EXHAUSTED#;
     1346     9803    1            ELSE
     1347     9804    1              IF NO_ACCESS=0
     1348     9805    1               THEN                   /* All fine.  OPENed or TOPENed on M$EI    */
     1349     9806    2               DO;
     1350     9807    2                  RET_VAL = %VPOC_GOTFILE#;
     1351     9808    2                  END;
     1352     9809    1               ELSE                        /* FILE POSSIBLY FOUND BUT ACCESS     */
     1353     9810                                                /* DENIED.                            */
     1354     9811    1                 IF CMD_MASK & '000700002'O
     1355     9812                                                /* LIST, LISTSTD, REVIEW, REVIEWSTD   */
     1356     9813    1                  THEN
     1357     9814    1                    RET_VAL = %VPOC_NOACCESS#;
     1358     9815    1                  ELSE
     1359     9816    1                    CALL VPL$ERR_PROC(2,0,,INPUT_ERR,,,M$EI#); /* Abort step     */
     1360     9817                                                /* REPORT AND ABORT STEP              */
     1361     9818    1           GOTO GOT_DISPOSITION;
     1362     9819        %EJECT;
PL6.E3A0      #004=VPF$OPEN_NEXT File=VPF$SRCLST.:E05TSI                         WED 07/30/97 07:37 Page:171
     1363     9820    1   EI_OPEN_ALT:
     1364     9821    1           IF ICB.DEV_MASK & '30'O         /* Managed tape or disk               */
     1365     9822    1            THEN
     1366     9823    2            DO;
     1367     9824    2               DIN_NAME.LEN = M$EI$ -> F$DCB.NAME.L;
     1368     9825    2               DIN_NAME.STRING = M$EI$ -> F$DCB.NAME.C;
     1369     9826    2               END;
     1370     9827    1           IF ICB.DEV_MASK.DEV_TAPE
     1371     9828    1            THEN                           /* Construct NAME from FSN            */
     1372     9829    2            DO;
     1373     9830    2               CALL BINCHAR(CHAR_4,CUR_FT_FSN);
     1374     9831    2               CALL CONCAT(DIN_NAME.STRING,'FSN_',CHAR_4);
     1375     9832    2               DIN_NAME.LEN = 4 + 4;
     1376     9833    2               END;
     1377     9834    1           IF INPUT_ERR.ERR# = %E$FDEOF OR INPUT_ERR.ERR# = %E$EOSET
     1378     9835    1            THEN
     1379     9836    2            DO;
     1380     9837    2               RET_VAL = %VPOC_EXHAUSTED#;
     1381     9838    2               GOTO GOT_DISPOSITION;
     1382     9839    2               END;
     1383     9840    1           IF INPUT_ERR.ERR# = %E$NOACCESS /* ACCESS DENIED                      */
     1384     9841    1             OR INPUT_ERR.ERR# = %E$INVSTAR /* NOT ACCESSIBLE FROM YOUR DOMAIN   */
     1385     9842    1             OR INPUT_ERR.ERR# = %E$NORESTRICT /* NO ACCESS TO ORG=RESTRICT FILE */
     1386     9843    1            THEN
     1387     9844    2            DO;                            /* POSSIBLY NOT A SELECTED FILE       */
     1388     9845    2               NO_ACCESS = 1;              /* SO SET FLAG AND GO FIND OUT        */
     1389     9846    2               FPARAM_BUF(0) = 0;          /* In case FM put a directory FIT     */
     1390     9847    2               GOTO NO_ACC_CONT;
     1391     9848    2               END;
     1392     9849    1           IF INPUT_ERR.ERR# = %E$MNTBRK AND BREAKS = 0
     1393     9850    1            THEN
     1394     9851    1              GOTO OPEN_IT;                /* CNTL-Y,GO                          */
     1395     9852    1           IF ICB.SPEC_TYPE=1 OR ICB.SPEC_TYPE=7
     1396     9853    1            THEN                           /* SINGLE FILE SPECS                  */
     1397     9854    1              NO_MORE_FILES = 1;
     1398     9855    1            ELSE;
     1399     9856    2           DO;
PL6.E3A0      #004=VPF$OPEN_NEXT File=VPF$SRCLST.:E05TSI                         WED 07/30/97 07:37 Page:172
     1400     9857                                                /* CHECK IF THIS ERROR IS SEVERE      */
     1401     9858                                                /* ENOUGH TO ABORT THIS SOURCE        */
     1402     9859    2              I = 0;
     1403     9860    3              DO WHILE(ABORT_SOURCE_ERR(I) ~= 0 AND NO_MORE_FILES = 0);
     1404     9861    3                 IF ABORT_SOURCE_ERR(I) = INPUT_ERR.ERR#
     1405     9862    3                  THEN
     1406     9863    3                    NO_MORE_FILES = 1;
     1407     9864    3                  ELSE
     1408     9865    3                    I = I+1;
     1409     9866    3                 END;
     1410     9867    2              IF BAD_FILE_NAME = ADDR(DIN_NAME) -> TEXT$C.STRING
     1411     9868    2               THEN                        /* second hit of repeating error      */
     1412     9869    3               DO;
     1413     9870    3                  RET_VAL = %VPOC_EXHAUSTED#;
     1414     9871    3                  GOTO GOT_DISPOSITION;
     1415     9872    3                  END;
     1416     9873    2               ELSE
     1417     9874    2                 BAD_FILE_NAME = ADDR(DIN_NAME) -> TEXT$C.STRING;
     1418     9875    2              END;
     1419     9876    1           CALL VPL$ERR_PROC(2,0,,INPUT_ERR,,,M$EI#); /* ABORT STEP ERROR        */
     1420     9877                                                /* JUST ABORT THE STEP                */
     1421     9878    1           GOTO GOT_DISPOSITION;
     1422     9879        /**/
     1423     9880        /**/
     1424     9881        /**/
     1425     9882    1   GOT_DISPOSITION: ;
     1426     9883        /**/
     1427     9884        /*  We come here when VPF$OPEN_NEXT is at last ready to return to the         */
     1428     9885        /*  caller.  By now, we either have a file in our grubby little paws,         */
     1429     9886        /*  or know the reason why not!                                               */
     1430     9887        /**/
     1431     9888        %EJECT;
PL6.E3A0      #004=VPF$OPEN_NEXT File=VPF$SRCLST.:E05TSI                         WED 07/30/97 07:37 Page:173
     1432     9889        /**/
     1433     9890        /*  This code implements the hook for file selection in SORTED order.         */
     1434     9891        /**/
     1435     9892    1           IF NOT SORTING_INPUT
     1436     9893    1            THEN
     1437     9894    1              GOTO SORTING_DONE;
     1438     9895    1           IF RET_VAL ~= %VPOC_EXHAUSTED#
     1439     9896    1            THEN
     1440     9897    2            DO;
     1441     9898    2               CALL VPF$SORT_FID (2);
     1442     9899    2               FILE_FOUND = 0;
     1443     9900    2               GOTO PLAY_IT_AGAIN;
     1444     9901    2               END;
     1445     9902    1            ELSE
     1446     9903    1              CALL VPF$SORT_FID (3);
     1447     9904        /**/
     1448     9905    1   REPLAY_SORTED: ;
     1449     9906    1           CALL VPF$SORT_FID (4,SORT_STATUS);
     1450     9907    2           DO CASE(SORT_STATUS);
     1451     9908    2            CASE(%VPOC_GOTFILE#);
     1452     9909    2              RET_VAL = %VPOC_GOTFILE#;
     1453     9910    2              CALL TWIDDLE_AFTER_OPEN;
     1454     9911    2            CASE(%VPOC_EXHAUSTED#);
     1455     9912    2              RET_VAL = %VPOC_EXHAUSTED#;
     1456     9913    2            CASE(%VPOC_NOACCESS#);
     1457     9914    2              RET_VAL = %VPOC_NOACCESS#;
     1458     9915    2              DIN_NAME.LEN = M$EI$ -> F$DCB.NAME.L;
     1459     9916    2              DIN_NAME.STRING = M$EI$ -> F$DCB.NAME.C;
     1460     9917    2            END;
     1461     9918    1   SORTING_DONE: ;
     1462     9919        /**/
     1463     9920    1           RETURN;
     1464     9921        %EJECT;
PL6.E3A0      #004=VPF$OPEN_NEXT File=VPF$SRCLST.:E05TSI                         WED 07/30/97 07:37 Page:174
     1465     9922    1   TWIDDLE_AFTER_OPEN: PROC;
     1466     9923        /**/
     1467     9924        /*  This PROC is used after opening M$EI.  It sets up some items that         */
     1468     9925        /*  will be used later.                                                       */
     1469     9926        /**/
     1470     9927    2           CALL SET_FLAVOR;
     1471     9928    2           IF ICB.FLAVOR.MANAGED
     1472     9929    2            THEN
     1473     9930    3            DO;
     1474     9931    3               DIN_NAME.LEN = M$EI$ -> F$DCB.NAME.L;
     1475     9932    3               DIN_NAME.STRING = M$EI$ -> F$DCB.NAME.C;
     1476     9933    3               END;
     1477     9934        /**/
     1478     9935        /*  Set up vector parts that frame the FPARAM buffer.  */
     1479     9936        /**/
     1480     9937    2           FPARAM$ = ADDR(FPARAM_BUF);
     1481     9938    2           FPARAM_BOUND = SIZEC(FPARAM_BUF) -1;
     1482     9939    2           IF M$EI$ -> F$DCB.ORG=%RESTRICT#
     1483     9940    2            THEN                           /* 5-WORD OFFSET for this ORG!!!      */
     1484     9941    3            DO;
     1485     9942    3               FPARAM$ = PINCRW(FPARAM$,5);
     1486     9943    3               FPARAM_BOUND = FPARAM_BOUND -20;
     1487     9944    3               END;
     1488     9945        /**/
     1489     9946        /*  Find out how many fields are defined.  */
     1490     9947        /**/
     1491     9948    2           ICB.NUMFIELDS = 0;
     1492     9949    2           IF M$EI$ -> F$DCB.ORG ~= %IREL# THEN
     1493     9950    2              GOTO FIELDS_DONE;
     1494     9951    2           CODE$ = FPARAM$;
     1495     9952    2           CALL XSF$LOCCODP(CODE$,18) ALTRET(FIELDS_DONE);
     1496     9953    2           ICB.NUMFIELDS = CODE$ -> CODE18.NFIELDS;
     1497     9954    2   FIELDS_DONE: ;
     1498     9955        /**/
     1499     9956        /*  FINIS!  */
     1500     9957        /**/
     1501     9958    2           RETURN;
PL6.E3A0      #004=VPF$OPEN_NEXT File=VPF$SRCLST.:E05TSI                         WED 07/30/97 07:37 Page:175
     1502     9959    2   END TWIDDLE_AFTER_OPEN;
     1503     9960        %EJECT;
PL6.E3A0      #004=VPF$OPEN_NEXT File=VPF$SRCLST.:E05TSI                         WED 07/30/97 07:37 Page:176
     1504     9961    1   SET_FLAVOR: PROC;
     1505     9962        /*I* NAME: SET_FLAVOR
     1506     9963             PURPOSE: To set up the FLAVOR mask in ICB.
     1507     9964             CALL: CALL SET_FLAVOR;
     1508     9965             DESCRIPTION: This procedure is CALLed AFTER M$OPENing M$EI.
     1509     9966                          Tests are made to set any appropriate bits in ICB.FLAVOR
     1510     9967        */
     1511     9968    2           ICB.FLAVOR = '0'B;              /* Clear out any trash bits           */
     1512     9969    2           IF ICB.DEV_MASK & '300'O        /* Managed                            */
     1513     9970    2            THEN
     1514     9971    2              ICB.FLAVOR.MANAGED = '1'B;
     1515     9972    2           IF ICB.DEV_MASK & '140'O        /* FT/LT                              */
     1516     9973    2            THEN
     1517     9974    2              ICB.FLAVOR.TAPE = '1'B;
     1518     9975    2           IF M$EI$ -> F$DCB.ORG = %UR#
     1519     9976    2             AND ~M$EI$ -> F$DCB.DDEV.IC   /* AND not the user's terminal        */
     1520     9977    2            THEN
     1521     9978    2              ICB.FLAVOR.UR = '1'B;
     1522     9979    2           IF M$EI$ -> F$DCB.ORG ~= %CONSEC# /*  1                               */
     1523     9980    2             AND M$EI$ -> F$DCB.ORG ~= %FIXED# /* 15                             */
     1524     9981    2             AND M$EI$ -> F$DCB.ORG ~= %FPRG# /* 10                              */
     1525     9982    2             AND M$EI$ -> F$DCB.ORG ~= %FREE# /* 19                              */
     1526     9983    2             AND M$EI$ -> F$DCB.ORG ~= %SYMB# /*  9                              */
     1527     9984    2             AND M$EI$ -> F$DCB.ORG ~= %TERMINAL# /*  8                          */
     1528     9985    2             AND M$EI$ -> F$DCB.ORG ~= %UNDEF# /* 17                             */
     1529     9986    2             AND M$EI$ -> F$DCB.ORG ~= %UR# /*  4                                */
     1530     9987    2             AND M$EI$ -> F$DCB.ORG ~= %VARIABLE# /* 16                          */
     1531     9988    2            THEN                           /* ORG allows KEYS to be used on READ */
     1532     9989    2              ICB.FLAVOR.KEY_USABLE = '1'B;
     1533     9990    2           IF M$EI$ -> F$DCB.ORG = %RANDOM# /*  3                                */
     1534     9991    2             OR M$EI$ -> F$DCB.ORG = %IDS# /*  7                                 */
     1535     9992    2             OR M$EI$ -> F$DCB.ORG = %RELATIVE# /*  5                            */
     1536     9993    2             OR M$EI$ -> F$DCB.ORG = %CG#  /* 11                                 */
     1537     9994    2            THEN                           /* ORG allows 'holes' (E$DI)          */
     1538     9995    2              ICB.FLAVOR.HOLY_ORG = '1'B;
     1539     9996    2           IF M$EI$ -> F$DCB.ORG = %KEYED#
     1540     9997    2             OR M$EI$ -> F$DCB.ORG = %INDEXED#
PL6.E3A0      #004=VPF$OPEN_NEXT File=VPF$SRCLST.:E05TSI                         WED 07/30/97 07:37 Page:177
     1541     9998    2             OR M$EI$ -> F$DCB.ORG = %IREL#
     1542     9999    2            THEN                           /* PCL 'knows' about this type of key */
     1543    10000    2              ICB.FLAVOR.KNOWKEY = '1'B;
     1544    10001    2           IF M$EI$ -> F$DCB.ORG = %FIXED#
     1545    10002    2             OR M$EI$ -> F$DCB.ORG = %VARIABLE#
     1546    10003    2             OR M$EI$ -> F$DCB.ORG = %UNDEF#
     1547    10004    2            THEN                           /* This ORG on LTs only               */
     1548    10005    2              ICB.FLAVOR.LTOORG = '1'B;
     1549    10006    2           IF M$EI$ -> F$DCB.ORG = %RANDOM# /*  3                                */
     1550    10007    2             OR M$EI$ -> F$DCB.ORG = %IDS# /*  7                                 */
     1551    10008    2             OR M$EI$ -> F$DCB.ORG = %CG#  /* 11                                 */
     1552    10009    2            THEN                           /* Input granule-size records         */
     1553    10010    2              ICB.FLAVOR.GRANB = '1'B;
     1554    10011    2           IF ICB.DEV_MASK.DEV_TAPE
     1555    10012    2             AND M$EI$ -> F$DCB.ORG ~= %FIXED# /* 15                             */
     1556    10013    2            THEN                           /* It is a FREE-FREE tape             */
     1557    10014    2              ICB.FLAVOR.FFTAPE = '1'B;
     1558    10015    2           RETURN;
     1559    10016    2   END SET_FLAVOR;
     1560    10017        %EJECT;
PL6.E3A0      #004=VPF$OPEN_NEXT File=VPF$SRCLST.:E05TSI                         WED 07/30/97 07:37 Page:178
     1561    10018    1   SET_UP_START: PROC;
     1562    10019        /*I* NAME: SET_UP_START
     1563    10020             PURPOSE: To set up the OPEN_FPT for the first open of this spec.
     1564    10021             CALL: CALL SET_UP_START;
     1565    10022             DESCRIPTION: This procedure merges the specified input options into the
     1566    10023                          fresh OPEN_FPT along with the pieces returned from M$FID.
     1567    10024                          When this procedure returns, a call to M$OPEN should open
     1568    10025                          the first file in this file spec.
     1569    10026        */
     1570    10027        %FPT_REM (FPTN = FPT_REM,
     1571    10028                  DISP = REM,
     1572    10029                  STCLASS = STATIC);
     1573    10043    2   DCL VOL UBIN WORD;
     1574    10044    2   DCL I UBIN WORD;
     1575    10045    2           FPT_OPEN_EI.V.INITZ.SCRUB# = %YES#;
     1576    10046    2           IF ICB.ORG
     1577    10047    2             OR ICB.TYPE.COUNT>0
     1578    10048    2             OR ICB.DATE.RELATION ~= 0
     1579    10049    2             OR ICB.CREATOR_SEL ~= 0
     1580    10050    2             OR ICB.SORTING_ORDER.COUNT > 0
     1581    10051    2            THEN
     1582    10052    2              ICB.FPARAM_REQUIRED.FOR_SELECTION = '1'B;
     1583    10053    2            ELSE
     1584    10054    2              ICB.FPARAM_REQUIRED.FOR_SELECTION = '0'B;
     1585    10055    2           IF CODE=4 OR CODE = 5
     1586    10056    2             OR (CMD_MASK & '34'O)
     1587    10057    2            THEN
     1588    10058    2              ICB.FPARAM_REQUIRED.FOR_OPERATION = '1'B;
     1589    10059    2            ELSE
     1590    10060    2              ICB.FPARAM_REQUIRED.FOR_OPERATION = '0'B;
     1591    10061    2           IF RESULTS_FID_IN.NAME
     1592    10062    2            THEN
     1593    10063    2              FPT_OPEN_EI.NAME_ = VECTOR(IN_NAME);
     1594    10064    2           IF RESULTS_FID_IN.ACCT
     1595    10065    2            THEN
     1596    10066    2              FPT_OPEN_EI.ACCT_ = VECTOR(IN_ACCT);
     1597    10067    2           IF RESULTS_FID_IN.RES
PL6.E3A0      #004=VPF$OPEN_NEXT File=VPF$SRCLST.:E05TSI                         WED 07/30/97 07:37 Page:179
     1598    10068    2            THEN
     1599    10069    2              FPT_OPEN_EI.V.RES# = IN_RES;
     1600    10070    2           IF RESULTS_FID_IN.WSN
     1601    10071    2            THEN
     1602    10072    2              FPT_OPEN_EI.WSN_ = VECTOR(IN_WSN);
     1603    10073    2           FPT_OPEN_EI.V.ASN# = IN_ASN;
     1604    10074    2           IF ICB.DEV_MASK & '140'O        /* If tapes                           */
     1605    10075    2            THEN                           /* VOL defaults to last for this set  */
     1606    10076    3            DO;
     1607    10077    3               CALL VPD$CHECK_VOL(IN_SN,3,,I,0); /* Get last VOL in I            */
     1608    10078    3               FPT_OPEN_EI.V.VOL# = I;     /* Move WORD VOL to UBIN(9) field     */
     1609    10079    3               END;
     1610    10080    2           IF ICB.SPEC_TYPE~=1 AND ICB.SPEC_TYPE~=7
     1611    10081    2            THEN
     1612    10082    3            DO;
     1613    10083    3               FPT_OPEN_EI.V.OPER.THISF# = %YES#;
     1614    10084    3               IF ICB.PHYSICAL=0 AND (ICB.DEV_MASK & '140'O) /* Tapes and PHYS   */
     1615    10085    3                THEN                       /* START AT BEGINNING OF TAPE         */
     1616    10086    4                DO;
     1617    10087    4                   FPT_OPEN_EI.V.OPER.MNTONLY# = %YES#;
     1618    10088    4                   FPT_OPEN_EI.V.VOL# = 1; /* Special default                    */
     1619    10089    4                   CALL VPD$CHECK_VOL(IN_SN,3,,VOL,0); /* What's hanging         */
     1620    10090    4                   IF VOL > 1              /*  If not VOL#1                      */
     1621    10091    4                    THEN
     1622    10092    5                    DO;
     1623    10093    5                       FPT_REM.V.PSN# = IN_SN.SN(VOL-1); /*  remove current vol*/
     1624    10094    6                       CALL M$REM(FPT_REM) WHENALTRETURN DO; END;
             10094                                /* ignore ALTRETURN */
     1625    10095    5                       END;
     1626    10096    4                   END;
     1627    10097    3               END;
     1628    10098    3           DO CASE(ICB.SPEC_TYPE);
     1629    10099    3            CASE(5);                       /* ABC? WILDCARDING                   */
     1630    10100    3              IF IN_ASN=%FILE#
     1631    10101    3               THEN                        /* We can save some time...           */
     1632    10102    4               DO;                         /* Manufacture first NAME to OPEN     */
     1633    10103    4                  CALL INDEX(I,'?',IN_NAME.STRING);
PL6.E3A0      #004=VPF$OPEN_NEXT File=VPF$SRCLST.:E05TSI                         WED 07/30/97 07:37 Page:180
     1634    10104    4                  FPT_OPEN_EI.NAME_ = VECTOR(OPEN_NAME);
     1635    10105    4                  IF ICB.SRCHCOND.REV
     1636    10106    4                   THEN                    /* Start at the end                   */
     1637    10107    5                   DO;
     1638    10108    5                      OPEN_NAME.LEN = I+1;
     1639    10109    5                      CALL CONCAT(OPEN_NAME.STRING,
     1640    10110    5                        SUBSTR(IN_NAME.STRING,0,I),
     1641    10111    5                        BITASC('777'O) );
     1642    10112    5                      END;
     1643    10113    4                   ELSE                    /* Start at the beginning             */
     1644    10114    5                   DO;
     1645    10115    5                      OPEN_NAME.LEN = I;
     1646    10116    5                      OPEN_NAME.STRING = IN_NAME.STRING;
     1647    10117    5                      END;
     1648    10118    4                  END;
     1649    10119    3            CASE(3);                       /* SUB-RANGE of directory             */
     1650    10120    3              IF ICB.SRCHCOND.REV
     1651    10121    3               THEN                        /* Start at the end                   */
     1652    10122    4               DO;
     1653    10123    4                  FPT_OPEN_EI.NAME_ = VECTOR(OPEN_NAME);
     1654    10124    4                  OPEN_NAME.STRING = ICB.NAME_RANGE_END;
     1655    10125    4                  OPEN_NAME.LEN = 31;
     1656    10126    4                  END;
     1657    10127    3            CASE(7,8);                     /* FSN SPECIFICATIONS                 */
     1658    10128    3              FPT_OPEN_EI.V.FSN# = ICB.FSN.START;
     1659    10129    3              FPT_OPEN_EI.V.OPER.MNTONLY# = %NO#;
     1660    10130    3            END;                           /* END CASE*/
     1661    10131    2           IF ICB.VOL ~= 0
     1662    10132    2            THEN                           /* VOL specified                      */
     1663    10133    3            DO;
     1664    10134    3               FPT_OPEN_EI.V.VOL# = ICB.VOL;
     1665    10135    3               ICB.VOL = 0;                /* VOL=N is a one-shot option         */
     1666    10136    3               END;
     1667    10137    2           BAD_FILE_NAME = ' 1';           /* An impossible filename             */
     1668    10138    2   END SET_UP_START;
     1669    10139    1   END VPF$OPEN_NEXT;
     1670    10140        %EOD;
PL6.E3A0      #004=VPF$OPEN_NEXT File=VPF$SRCLST.:E05TSI                         WED 07/30/97 07:37 Page:181

PL6.E3A0      #004=VPF$OPEN_NEXT File=VPF$SRCLST.:E05TSI                         WED 07/30/97 07:37 Page:182
--  Include file information  --

   XUH_MACRO_C.:E05TOU  is referenced.
   F$DCB.:E05TOU  cannot be made into a system file and is referenced.
   FM$FIT.:E05TOU  is referenced.
   B_ERRORS_C.:E05TOU  is referenced.
   B_MICROPS_C.:E05TOU  is referenced.
   XU_MACRO_C.:E05TOU  is referenced.
   VP_MACRO_C.:E05TOU  is referenced.
   XS_MACRO_C.:E05TOU  is referenced.
   VP_PERR_C.:E05TOU  is referenced.
   CP_6_SUBS.:E05TOU  is referenced.
   CP_6.:E05TOU  cannot be made into a system file and is referenced.
   VP_DATA_R.:E05TOU  cannot be made into a system file and is referenced.
   XUD_UTS_M.:E05TOU  is referenced.
   B$JIT_C.:E05TOU  was found in the system file and is never referenced.
   CP_6_C.:E05TOU  was found in the system file and is referenced.
      No diagnostics issued in procedure VPF$OPEN_NEXT.

   Procedure VPF$OPEN_NEXT requires 1311 words for executable code.
   Procedure VPF$OPEN_NEXT requires 42 words of local(AUTO) storage.

PL6.E3A0      #004=VPF$OPEN_NEXT File=VPF$SRCLST.:E05TSI                         WED 07/30/97 07:37 Page:183

 Object Unit name= VPF$OPEN_NEXT                              File name= VPF$SRCLST.:E05TOU
 UTS= JUL 30 '97 07:37:37.48 WED                              Compiler= PL-6/E31         Sev=      00
 SharedLib= :SHARED_SYSTEM                                    Alt SharedLib=


    ****  Control sections  ****

 Sect   Type Bound  Init  Size OctSiz  Section name(segment info)
    0   DCB   even  none     0      0  M$UC
    1   DCB   even  none     0      0  M$EI
    2   DCB   even  none     0      0  M$EO
    3   DCB   even  none     0      0  M$EO1
    4   DCB   even  none     0      0  M$ME
    5   DCB   even  none     0      0  M$SI
    6   DCB   even  none     0      0  M$READFILE
    7   DCB   even  none     0      0  M$DO
    8   DCB   even  none     0      0  M$STD1
    9   DCB   even  none     0      0  M$SORT1
   10  RoData even  UTS     12     14  VPF$OPEN_NEXT
   11   Data  even  none    20     24  VPF$OPEN_NEXT
   12   Proc  even  none  1311   2437  VPF$OPEN_NEXT
   13  RoData even  none    54     66  VPF$OPEN_NEXT

    ****  Entry defs  ****

                              Check   Calling
                             calling  sequence
  Sect OctLoc Primary Altret sequence   type   Parms  Name
    12      0   yes            yes      Std        3  VPF$OPEN_NEXT
PL6.E3A0      #004=VPF$OPEN_NEXT File=VPF$SRCLST.:E05TSI                         WED 07/30/97 07:37 Page:184

  ****  Entry refs  ****

         Check        Calling
        calling       sequence
Altret sequence SRef   type   Args  Name
         yes           Std       2 VPF$SORT_FID
         yes           Std       8 VPL$ERR_PROC
 yes     yes           Std       1 VPF$CALL_OPEN
         yes           Std       5 VPD$CHECK_VOL
 yes     yes           Std       3 XUD$UTS_ADJ_25TH
 yes     yes           Std       1 VPF$CLOSE_IN
 yes     yes           Std       2 VPD$WILD_COMPARE
 yes     yes           Std       2 XSF$LOCCODP
 yes     yes           Std       4 VPD$ROUND_DATE
 yes     yes           Std       1 VPD$FETCH_CREATOR
                       Std       0 B_CONSPOOL_D
                       nStd      0 X66_AUTO_3
                       nStd      0 X66_ARET

  ****  Data refs  ****

  Flags:  r = read only, s = secondary
Flgs Name                             Flgs Name                             Flgs Name
     M$UC                                  GETCMD                                INPUT_ERR
     EOF_SOURCE                            BREAK_LOC                             BREAKS
     BREAK_MESSAGE_REPORTER                FPARAM_BUF                            FPARAM$
     FPARAM_BOUND                          SORTING_INPUT                         CMD_MASK
     SPEC_BUF                              DIN_NAME                              IN_NAME
     IN_ACCT                               IN_PASS                               IN_RES
     IN_SN                                 IN_WSN                                IN_ASN
     ANSISPAN_OPT                          ICB                                   M$EI
     M$EI$                                 M$EI#                                 M$EO
     M$EO1                                 M$ME                                  M$SI
     M$READFILE                            M$DO                                  M$STD1
     M$SORT1                               RESULTS_FID_IN                        FPT_OPEN_EI
     FPT_OPEN_EI_SAVE                      FPT_CLOSE_EI                          B_VECTNIL
PL6.E3A0      #004=VPF$OPEN_NEXT File=VPF$SRCLST.:E05TSI                         WED 07/30/97 07:37 Page:185

  ****  Segment refs  ****

  Flags:  r = read only, s = secondary
Flgs Name                             Flgs Name                             Flgs Name
     ISSID
PL6.E3A0      #004=VPF$OPEN_NEXT File=VPF$SRCLST.:E05TSI                         WED 07/30/97 07:37 Page:186


      836        1        /*T***********************************************************/
      837        2        /*T*                                                         */
      838        3        /*T* Copyright (c) Bull HN Information Systems Inc., 1997    */
      839        4        /*T*                                                         */
      840        5        /*T***********************************************************/
      841        6        VPF$OPEN_NEXT: PROC(RET_VAL,CODE,NAME_TEXTC);

      6 12 000000   000000 700200 xent  VPF$OPEN_NE* TSX0  ! X66_AUTO_3
        12 000001   000052 000003                    ZERO    42,3

      842        7        /*D* NAME: VPF$OPEN_NEXT
      843        8             CALL: CALL VPF$OPEN_NEXT(RET_VAL,CODE,NAME_TEXTC);
      844        9             DESCRIPTION: This procedure will open the next(if CODE=1 or 5), first(if
      845       10                          CODE=2 or CODE=4, or NAME_TEXTC(if CODE=3) input
      846       11                         file from the current file or range specification with all
      847       12                         applicable input options applied.
      848       13
      849       14                          CODE=4 and 5 open with FPARAM, CODE=2 opens with FPARAM only if
      850       15                          required for file selection.
      851       16
      852       17                          RET_VAL will be returned as below:
      853       18                         RET_VAL            DESCRIPTION
      854       19                         -------            -----------
      855       20                         %VPOC_GOTFILE#   0 All fine. A file is open(or t-open) on M$EI.
      856       21                         %VPOC_EXHAUSTED# 1 No more files this spec.
      857       22                         %VPOC_NOACCESS#  2 Access denied. special...for lists and
      858       23                                            reviews only
      859       24        */
      860       25        /**/
      861       26        /*  PARAMETERS  */
      862       27        /**/
      863       28    1   DCL RET_VAL SBIN WORD;
      864       29    1   DCL CODE SBIN WORD;
      865       30    1   DCL 1 NAME_TEXTC,
      866       31    1         2 LEN UBIN BYTE UNAL,
      867       32    1         2 STRING CHAR(NAME_TEXTC.LEN);
PL6.E3A0      #004=VPF$OPEN_NEXT File=VPF$SRCLST.:E05TSI                         WED 07/30/97 07:37 Page:187
      868       33        /**/
      869       34        /*  INCLUDES  */
      870       35        /**/
      871       36        %INCLUDE XUD_UTS_M;                     /* for new rollover UTS declaration   */
      872      118        %INCLUDE VP_DATA_R;
      873     7105        %INCLUDE B_ERRORS_C;
      874     8232        %INCLUDE FM$FIT;
      875     8453        /**/
      876     8454        %B$TCB;
      877     8457        %B$ALT;
      878     8465        %INCLUDE F$DCB;
      879     8514        %INCLUDE XUH_MACRO_C;
      880     8598                %FPT_PFIL(FPTN = FPT_PFIL,
      881     8599                  DCB  = M$EI,
      882     8600                  BOF  = NO,
      883     8601                  STCLASS = CONSTANT);
      884     8616        %FPT_REM(FPTN = FPT_REM_FT,
      885     8617                 DISP = PTV,
      886     8618                 STCLASS = STATIC);
      887     8632    1   DCL 1 CHARB$32 BASED,
      888     8633    1         2 * CHAR(32);
      889     8634    1   DCL 1 TEXT$C BASED,
      890     8635    1         2 LEN UBIN BYTE UNAL,
      891     8636    1         2 STRING CHAR(TEXT$C.LEN);
      892     8637    1   DCL 1 OPEN_NAME,
      893     8638    1         2 LEN UBIN BYTE UNAL,
      894     8639    1         2 STRING CHAR(31) UNAL;
      895     8640    1   DCL 1 TEXT_C,
      896     8641    1         2 C UBIN BYTE CALIGNED,
      897     8642    1         2 TEXT CHAR(31) CALIGNED;
      898     8643    1   DCL CUR_FT_FSN SBIN WORD STATIC;
      899     8644    1   DCL NO_ACCESS SBIN WORD;
      900     8645    1   DCL NO_MORE_FILES SBIN WORD STATIC;
      901     8646    1   DCL FILE_FOUND SBIN WORD;
      902     8647    1   DCL SORT_STATUS SBIN WORD;
      903     8648    1   DCL ABORT_SOURCE_ERR(0:9) UBIN HALF UNAL CONSTANT INIT(
      904     8649    1           %E$OPER,%E$IOERR,%E$CANT,%E$MNTBRK,0,
PL6.E3A0      #004=VPF$OPEN_NEXT File=VPF$SRCLST.:E05TSI                         WED 07/30/97 07:37 Page:188
      905     8650    1           0,0,0,0,0);
      906     8651    1   DCL BAD_FILE_NAME CHAR(31) STATIC;      /* Last filename of a bad error       */
      907     8652    1   DCL T SBIN WORD;
      908     8653    1   DCL I SBIN WORD;
      909     8654    1   DCL CHAR_4 CHAR(4);
      910     8655    1   DCL FIRST BIT(1) ALIGNED;
      911     8656    1   DCL UBIN$HALF UBIN HALF BASED;
      912     8657        %XUD_UTS_EQU;                           /* For new rollover UTS               */
      913     8668        %XUD$UTS_ENTRIES;
      914     8700        %CODE03;
      915     8707        %CODE04;                                /* Structure for FPARAM dates         */
      916     8715        %CODE05;
      917     8718        %CODE06;
      918     8722        %CODE18;                                /* Structure for FIELD definitions    */
      919     8726    1   DCL CONTROL_DATE UBIN WORD STATIC;
      920     8727    1   DCL CODE$ PTR;
      921     8728        %XUG_PARAMS(NAME=XUG_PARAMS,STCLASS=BASED);
      922     9172        /**/
      923     9173        /*  ENTRY DCLS  */
      924     9174        /**/
      925     9175        %VP_ENTRIES (OMIT=VPF$OPEN_NEXT);
      926     9383    1   DCL XSF$LOCCODP ENTRY(2) ALTRET;
      927     9384
      928     9385        %EJECT;
PL6.E3A0      #004=VPF$OPEN_NEXT File=VPF$SRCLST.:E05TSI                         WED 07/30/97 07:37 Page:189
      929     9386        /**/
      930     9387    1           IF SORTING_INPUT

   9387 12 000002   000000 234000 xsym               SZN     SORTING_INPUT
        12 000003   001642 604000 12                 TMI     REPLAY_SORTED

      931     9388    1            THEN
      932     9389    1              GOTO REPLAY_SORTED;
      933     9390    1           IF ICB.SPEC_TYPE > 1

   9390 12 000004   000017 235000 xsym               LDA     ICB+15
        12 000005   000001 115007                    CMPA    1,DL
        12 000006   000017 604400 12                 TMOZ    s:9398
        12 000007   000204 236000 xsym               LDQ     ICB+132
        12 000010   000017 604400 12                 TMOZ    s:9398

      934     9391    1             AND ICB.SORTING_ORDER.COUNT > 0
      935     9392    1            THEN
      936     9393    2            DO;

      937     9394    2               SORTING_INPUT = '1'B;

   9394 12 000011   400000 236003                    LDQ     -131072,DU
        12 000012   000000 756000 xsym               STQ     SORTING_INPUT

      938     9395    2               CALL VPF$SORT_FID(1);

   9395 12 000013   000000 630400 13                 EPPR0   0
        12 000014   000017 631400 xsym               EPPR1   B_VECTNIL+15
        12 000015   000000 701000 xent               TSX1    VPF$SORT_FID
        12 000016   000000 011000                    NOP     0

      939     9396    2               END;

      940     9397        /**/
      941     9398    1           RET_VAL = %VPOC_GOTFILE#;

PL6.E3A0      #004=VPF$OPEN_NEXT File=VPF$SRCLST.:E05TSI                         WED 07/30/97 07:37 Page:190
   9398 12 000017   200003 470500                    LDP0    @RET_VAL,,AUTO
        12 000020   000000 450100                    STZ     0,,PR0

      942     9399    1           FPT_OPEN_EI = FPT_OPEN_EI_SAVE;

   9399 12 000021   000000 100400                    MLR     fill='000'O
        12 000022   000000 000350 xsym               ADSC9   FPT_OPEN_EI_SAVE         cn=0,n=232
        12 000023   000000 000350 xsym               ADSC9   FPT_OPEN_EI              cn=0,n=232

      943     9400    1           FIRST = %YES#;

   9400 12 000024   400000 236003                    LDQ     -131072,DU
        12 000025   200034 756100                    STQ     FIRST,,AUTO

      944     9401    2           DO CASE(CODE);

   9401 12 000026   200004 471500                    LDP1    @CODE,,AUTO
        12 000027   100000 235100                    LDA     0,,PR1
        12 000030   000006 115007                    CMPA    6,DL
        12 000031   000033 602005 12                 TNC     s:9401+5,AL
        12 000032   000070 710000 12                 TRA     s:9416
        12 000033   000070 710000 12                 TRA     s:9416
        12 000034   000045 710000 12                 TRA     s:9406
        12 000035   000041 710000 12                 TRA     s:9403
        12 000036   000053 710000 12                 TRA     s:9413
        12 000037   000041 710000 12                 TRA     s:9403
        12 000040   000045 710000 12                 TRA     s:9406

      945     9402    2            CASE(2,4);                     /* OPEN first input file              */

      946     9403    2              CALL SET_UP_START;

   9403 12 000041   002127 701000 12                 TSX1    SET_UP_START
        12 000042   000000 011000                    NOP     0

      947     9404    2              NO_MORE_FILES = 0;

PL6.E3A0      #004=VPF$OPEN_NEXT File=VPF$SRCLST.:E05TSI                         WED 07/30/97 07:37 Page:191
   9404 12 000043   000005 450000 11                 STZ     NO_MORE_FILES
        12 000044   000070 710000 12                 TRA     s:9416

      948     9405    2            CASE(1, 5);                    /* OPEN next file                     */

      949     9406    2              IF NO_MORE_FILES=1

   9406 12 000045   000005 235000 11                 LDA     NO_MORE_FILES
        12 000046   000001 115007                    CMPA    1,DL
        12 000047   000070 601000 12                 TNZ     s:9416

      950     9407    2               THEN                        /* Next file doesn't exist            */
      951     9408    3               DO;

      952     9409    3                  RET_VAL = %VPOC_EXHAUSTED#;

   9409 12 000050   000001 235007                    LDA     1,DL
        12 000051   000000 755100                    STA     0,,PR0

      953     9410    3                  GOTO GOT_DISPOSITION;

   9410 12 000052   001622 710000 12                 TRA     GOT_DISPOSITION

      954     9411    3                  END;
      955     9412    2            CASE(3);                       /* OPEN file NAME_TEXTC               */

      956     9413    2              FPT_OPEN_EI.NAME_   = VECTOR(NAME_TEXTC);

   9413 12 000053   200005 473500                    LDP3    @NAME_TEXTC,,AUTO
        12 000054   000100 101500                    MRL     fill='000'O
        12 000055   300000 000001                    ADSC9   0,,PR3                   cn=0,n=1
        12 000056   200042 000002                    ADSC9   I+2,,AUTO                cn=0,n=2
        12 000057   200042 220100                    LDX0    I+2,,AUTO
        12 000060   000001 621010                    EAX1    1,X0
        12 000061   000000 635011                    EAA     0,X1
        12 000062   000002 771000                    ARL     2
        12 000063   000140 135007                    SBLA    96,DL
PL6.E3A0      #004=VPF$OPEN_NEXT File=VPF$SRCLST.:E05TSI                         WED 07/30/97 07:37 Page:192
        12 000064   200005 236100                    LDQ     @NAME_TEXTC,,AUTO
        12 000065   000006 757000 xsym               STAQ    FPT_OPEN_EI+6

      957     9414    2              FPT_OPEN_EI.V.OPER.THISF# = %YES#;

   9414 12 000066   002000 236007                    LDQ     1024,DL
        12 000067   000044 256000 xsym               ORSQ    FPT_OPEN_EI+36

      958     9415    2            END;                           /* END CASE                           */

      959     9416    1           FILE_FOUND = 0;

   9416 12 000070   200027 450100                    STZ     FILE_FOUND,,AUTO

   9416 12 000071                       PLAY_IT_AGA* null
      960     9417        %EJECT;
PL6.E3A0      #004=VPF$OPEN_NEXT File=VPF$SRCLST.:E05TSI                         WED 07/30/97 07:37 Page:193
      961     9418        /**/
      962     9419        /*  Keep trying files until we run out or get a good one.                     */
      963     9420        /**/
      964     9421    1   PLAY_IT_AGAIN: ;
      965     9422    2           DO WHILE(FILE_FOUND=0 AND NO_MORE_FILES=0);

   9422 12 000071   001321 710000 12                 TRA     s:9764

      966     9423                                                /* Set up FPT_OPEN_EI                 */
      967     9424    2              NO_ACCESS = 0;

   9424 12 000072   200026 450100                    STZ     NO_ACCESS,,AUTO

      968     9425    2              IF FIRST

   9425 12 000073   200034 234100                    SZN     FIRST,,AUTO
        12 000074   000077 605000 12                 TPL     s:9429

      969     9426    2               THEN
      970     9427    2                 FIRST = %NO#;

   9427 12 000075   200034 450100                    STZ     FIRST,,AUTO
        12 000076   000102 710000 12                 TRA     s:9430

      971     9428    2               ELSE
      972     9429    2                 FPT_OPEN_EI = FPT_OPEN_EI_SAVE;

   9429 12 000077   000000 100400                    MLR     fill='000'O
        12 000100   000000 000350 xsym               ADSC9   FPT_OPEN_EI_SAVE         cn=0,n=232
        12 000101   000000 000350 xsym               ADSC9   FPT_OPEN_EI              cn=0,n=232

      973     9430    2              FPT_OPEN_EI.V.CHAIN# = ICB.CAT;

   9430 12 000102   000167 236000 xsym               LDQ     ICB+119
        12 000103   000022 772000                    QRL     18
        12 000104   000061 552010 xsym               STBQ    FPT_OPEN_EI+49,'10'O

PL6.E3A0      #004=VPF$OPEN_NEXT File=VPF$SRCLST.:E05TSI                         WED 07/30/97 07:37 Page:194
      974     9431    2              ADDR(FPT_OPEN_EI.V.TYPE#)->UBIN$HALF = 0; /* 0 type field in FPT   */

   9431 12 000105   000000 220003                    LDX0    0,DU
        12 000106   000047 740000 xsym               STX0    FPT_OPEN_EI+39

      975     9432    2              FPT_OPEN_EI.V.SHARE# = ICB.SHARE;

   9432 12 000107   000006 236000 xsym               LDQ     ICB+6
        12 000110   000003 736000                    QLS     3
        12 000111   000044 676000 xsym               ERQ     FPT_OPEN_EI+36
        12 000112   000030 376007                    ANQ     24,DL
        12 000113   000044 656000 xsym               ERSQ    FPT_OPEN_EI+36

      976     9433    2              FPT_OPEN_EI.V.SRCHCOND = ICB.SRCHCOND; /* Add search conditions    */

   9433 12 000114   000100 100400                    MLR     fill='000'O
        12 000115   000167 200002 xsym               ADSC9   ICB+119                  cn=1,n=2
        12 000116   200042 000004                    ADSC9   I+2,,AUTO                cn=0,n=4
        12 000117   200042 221100                    LDX1    I+2,,AUTO
        12 000120   000045 741000 xsym               STX1    FPT_OPEN_EI+37

      977     9434    2              FPT_OPEN_EI.V.IOERROK# = ICB.FLAVOR.IOERROK;

   9434 12 000121   000172 236000 xsym               LDQ     ICB+122
        12 000122   000400 376003                    ANQ     256,DU
        12 000123   000002 736000                    QLS     2
        12 000124   000060 676000 xsym               ERQ     FPT_OPEN_EI+48
        12 000125   003000 376003                    ANQ     1536,DU
        12 000126   000060 656000 xsym               ERSQ    FPT_OPEN_EI+48

      978     9435    2              FPT_OPEN_EI.V.IGNOREFSN# = ICB.IGNOREFSN;

   9435 12 000127   000236 236000 xsym               LDQ     ICB+158
        12 000130   400000 376003                    ANQ     -131072,DU
        12 000131   000025 772000                    QRL     21
        12 000132   000060 676000 xsym               ERQ     FPT_OPEN_EI+48
        12 000133   060000 376007                    ANQ     24576,DL
PL6.E3A0      #004=VPF$OPEN_NEXT File=VPF$SRCLST.:E05TSI                         WED 07/30/97 07:37 Page:195
        12 000134   000060 656000 xsym               ERSQ    FPT_OPEN_EI+48

      979     9436    2              IF ICB.FTORG=0

   9436 12 000135   000157 236000 xsym               LDQ     ICB+111
        12 000136   000777 316003                    CANQ    511,DU
        12 000137   000143 601000 12                 TNZ     s:9440

      980     9437    2               THEN
      981     9438    2                 FPT_OPEN_EI.V.ORG# = %FREE#; /* Default FT org                  */

   9438 12 000140   023000 236007                    LDQ     9728,DL
        12 000141   000046 552010 xsym               STBQ    FPT_OPEN_EI+38,'10'O
        12 000142   000145 710000 12                 TRA     s:9441

      982     9439    2               ELSE
      983     9440    2                 FPT_OPEN_EI.V.ORG# = ICB.FTORG;

   9440 12 000143   000011 772000                    QRL     9
        12 000144   000046 552010 xsym               STBQ    FPT_OPEN_EI+38,'10'O

      984     9441    2              FPT_OPEN_EI.V.BLKL# = ICB.BLKL;

   9441 12 000145   000012 722000 xsym               LXL2    ICB+10
        12 000146   000052 742000 xsym               STX2    FPT_OPEN_EI+42

      985     9442    2              FPT_OPEN_EI.V.RECL# = ICB.RECL;

   9442 12 000147   000013 723000 xsym               LXL3    ICB+11
        12 000150   000052 443000 xsym               SXL3    FPT_OPEN_EI+42

      986     9443    2              IF ICB.NBLOCK

   9443 12 000151   000003 234000 xsym               SZN     ICB+3
        12 000152   000156 605000 12                 TPL     s:9447

      987     9444    2               THEN
PL6.E3A0      #004=VPF$OPEN_NEXT File=VPF$SRCLST.:E05TSI                         WED 07/30/97 07:37 Page:196
      988     9445    2                 FPT_OPEN_EI.V.BLOCKED# = %NO#;

   9445 12 000153   000001 236000 13                 LDQ     1
        12 000154   000047 356000 xsym               ANSQ    FPT_OPEN_EI+39
        12 000155   000162 710000 12                 TRA     s:9448

      989     9446    2               ELSE
      990     9447    2                 FPT_OPEN_EI.V.BLOCKED# = %YES#;

   9447 12 000156   000047 236000 xsym               LDQ     FPT_OPEN_EI+39
        12 000157   000001 376000 13                 ANQ     1
        12 000160   100000 276007                    ORQ     32768,DL
        12 000161   000047 756000 xsym               STQ     FPT_OPEN_EI+39

      991     9448    2              IF ICB.NSPAN

   9448 12 000162   000002 234000 xsym               SZN     ICB+2
        12 000163   000167 605000 12                 TPL     s:9452

      992     9449    2               THEN
      993     9450    2                 FPT_OPEN_EI.V.SPANNED# = %NO#;

   9450 12 000164   000002 236000 13                 LDQ     2
        12 000165   000047 356000 xsym               ANSQ    FPT_OPEN_EI+39
        12 000166   000173 710000 12                 TRA     s:9453

      994     9451    2               ELSE
      995     9452    2                 FPT_OPEN_EI.V.SPANNED# = %YES#;

   9452 12 000167   000047 236000 xsym               LDQ     FPT_OPEN_EI+39
        12 000170   000002 376000 13                 ANQ     2
        12 000171   020000 276007                    ORQ     8192,DL
        12 000172   000047 756000 xsym               STQ     FPT_OPEN_EI+39

      996     9453    2              IF ICB.EBCDIC

   9453 12 000173   000000 234000 xsym               SZN     ICB
PL6.E3A0      #004=VPF$OPEN_NEXT File=VPF$SRCLST.:E05TSI                         WED 07/30/97 07:37 Page:197
        12 000174   000201 605000 12                 TPL     s:9456

      997     9454    2               THEN
      998     9455    2                 FPT_OPEN_EI.V.EBCDIC# = %YES#;

   9455 12 000175   000060 236000 xsym               LDQ     FPT_OPEN_EI+48
        12 000176   000003 376000 13                 ANQ     3
        12 000177   400000 276003                    ORQ     -131072,DU
        12 000200   000060 756000 xsym               STQ     FPT_OPEN_EI+48

      999     9456    2              IF ICB.ANSISPAN

   9456 12 000201   000237 234000 xsym               SZN     ICB+159
        12 000202   000210 605000 12                 TPL     s:9459

     1000     9457    2               THEN
     1001     9458    2                 FPT_OPEN_EI.V.ANSISPANSEQ# = ANSISPAN_OPT;

   9458 12 000203   000000 236000 xsym               LDQ     ANSISPAN_OPT
        12 000204   000030 772000                    QRL     24
        12 000205   000060 676000 xsym               ERQ     FPT_OPEN_EI+48
        12 000206   006000 376007                    ANQ     3072,DL
        12 000207   000060 656000 xsym               ERSQ    FPT_OPEN_EI+48

     1002     9459    2              IF ICB.NCNVRT

   9459 12 000210   000005 234000 xsym               SZN     ICB+5
        12 000211   000214 605000 12                 TPL     s:9462

     1003     9460    2               THEN
     1004     9461    2                 FPT_OPEN_EI.V.CNVRT# = %NO#;

   9461 12 000212   000004 236000 13                 LDQ     4
        12 000213   000060 356000 xsym               ANSQ    FPT_OPEN_EI+48

     1005     9462    2              IF RESULTS_FID_IN.SN

PL6.E3A0      #004=VPF$OPEN_NEXT File=VPF$SRCLST.:E05TSI                         WED 07/30/97 07:37 Page:198
   9462 12 000214   000000 236000 xsym               LDQ     RESULTS_FID_IN
        12 000215   040000 316003                    CANQ    16384,DU
        12 000216   000221 600000 12                 TZE     s:9465

     1006     9463    2               THEN
     1007     9464    2                 FPT_OPEN_EI.SN_ = VECTOR(IN_SN);

   9464 12 000217   000006 237000 13                 LDAQ    6
        12 000220   000002 757000 xsym               STAQ    FPT_OPEN_EI+2

     1008     9465    2              IF RESULTS_FID_IN.PASS

   9465 12 000221   000000 236000 xsym               LDQ     RESULTS_FID_IN
        12 000222   100000 316003                    CANQ    32768,DU
        12 000223   000226 600000 12                 TZE     s:9468

     1009     9466    2               THEN
     1010     9467    2                 FPT_OPEN_EI.PASS_ = VECTOR(IN_PASS);

   9467 12 000224   000010 237000 13                 LDAQ    8
        12 000225   000010 757000 xsym               STAQ    FPT_OPEN_EI+8

     1011     9468    2              IF ICB.FPARAM_REQUIRED

   9468 12 000226   000203 236000 xsym               LDQ     ICB+131
        12 000227   600000 316003                    CANQ    -65536,DU
        12 000230   000233 600000 12                 TZE     s:9471

     1012     9469    2               THEN
     1013     9470    2                 FPT_OPEN_EI.FPARAM_ = VECTOR(FPARAM_BUF);

   9470 12 000231   000012 237000 13                 LDAQ    10
        12 000232   000030 757000 xsym               STAQ    FPT_OPEN_EI+24

     1014     9471    2              IF ICB.SPEC_TYPE~=1 AND ICB.SPEC_TYPE~=7

   9471 12 000233   000017 235000 xsym               LDA     ICB+15
PL6.E3A0      #004=VPF$OPEN_NEXT File=VPF$SRCLST.:E05TSI                         WED 07/30/97 07:37 Page:199
        12 000234   000001 115007                    CMPA    1,DL
        12 000235   000242 600000 12                 TZE     s:9474
        12 000236   000007 115007                    CMPA    7,DL
        12 000237   000242 600000 12                 TZE     s:9474

     1015     9472    2               THEN
     1016     9473    2                 FPT_OPEN_EI.V.OPER.NXTF# = %YES#;

   9473 12 000240   004000 236007                    LDQ     2048,DL
        12 000241   000044 256000 xsym               ORSQ    FPT_OPEN_EI+36

     1017     9474    2              IF ICB.DEV_MASK.MAN_TAPE

   9474 12 000242   000171 236000 xsym               LDQ     ICB+121
        12 000243   100000 316003                    CANQ    32768,DU
        12 000244   000267 600000 12                 TZE     s:9483
        12 000245   000100 100400                    MLR     fill='000'O
        12 000246   000000 000010 xsym               ADSC9   CMD_MASK                 cn=0,n=8
        12 000247   200042 000010                    ADSC9   I+2,,AUTO                cn=0,n=8
        12 000250   200042 237100                    LDAQ    I+2,,AUTO
        12 000251   000014 377000 13                 ANAQ    12
        12 000252   000264 601000 12                 TNZ     s:9479
        12 000253   000100 100400                    MLR     fill='000'O
        12 000254   000000 000010 xsym               ADSC9   CMD_MASK                 cn=0,n=8
        12 000255   200044 000010                    ADSC9   I+4,,AUTO                cn=0,n=8
        12 000256   200044 237100                    LDAQ    I+4,,AUTO
        12 000257   000016 377000 13                 ANAQ    14
        12 000260   000267 600000 12                 TZE     s:9483
        12 000261   000203 236000 xsym               LDQ     ICB+131
        12 000262   600000 316003                    CANQ    -65536,DU
        12 000263   000267 600000 12                 TZE     s:9483

     1018     9475    2                AND ((CMD_MASK & '34'O/* copies */)~='0'B /* COPY                */
     1019     9476    2                OR ((CMD_MASK & '0006'O/* lists */)~='0'B /* LIST                */
     1020     9477    2                AND ICB.FPARAM_REQUIRED))  /* with ATTR                          */
     1021     9478    2               THEN
     1022     9479    2                 FPT_OPEN_EI.V.OPER.TEST# = %NO#;
PL6.E3A0      #004=VPF$OPEN_NEXT File=VPF$SRCLST.:E05TSI                         WED 07/30/97 07:37 Page:200

   9479 12 000264   000005 236000 13                 LDQ     5
        12 000265   000044 356000 xsym               ANSQ    FPT_OPEN_EI+36
        12 000266   000277 710000 12                 TRA     s:9488

     1023     9480                                                /* open TEST mode unless an LT        */
     1024     9481                                                /* COPY or a L(A) LT                  */
     1025     9482    2               ELSE
     1026     9483    2                 IF ICB.DEV_MASK.DEV_TAPE  /* or Free Tape                       */

   9483 12 000267   000171 236000 xsym               LDQ     ICB+121
        12 000270   040000 316003                    CANQ    16384,DU
        12 000271   000275 600000 12                 TZE     s:9487

     1027     9484    2                  THEN
     1028     9485    2                    FPT_OPEN_EI.V.OPER.TEST# = %NO#;

   9485 12 000272   000005 236000 13                 LDQ     5
        12 000273   000044 356000 xsym               ANSQ    FPT_OPEN_EI+36
        12 000274   000277 710000 12                 TRA     s:9488

     1029     9486    2                  ELSE
     1030     9487    2                    FPT_OPEN_EI.V.OPER.TEST# = %YES#;

   9487 12 000275   020000 236007                    LDQ     8192,DL
        12 000276   000044 256000 xsym               ORSQ    FPT_OPEN_EI+36

     1031     9488    2              IF ICB.DEV_MASK.DEV_TAPE

   9488 12 000277   000171 236000 xsym               LDQ     ICB+121
        12 000300   040000 316003                    CANQ    16384,DU
        12 000301   000306 600000 12                 TZE     OPEN_IT

     1032     9489    2               THEN
     1033     9490    2                 FPT_OPEN_EI.V.CVOL# = %YES#;

   9490 12 000302   000044 236000 xsym               LDQ     FPT_OPEN_EI+36
PL6.E3A0      #004=VPF$OPEN_NEXT File=VPF$SRCLST.:E05TSI                         WED 07/30/97 07:37 Page:201
        12 000303   000020 376000 13                 ANQ     16
        12 000304   000004 276007                    ORQ     4,DL
        12 000305   000044 756000 xsym               STQ     FPT_OPEN_EI+36

   9488 12 000306                       OPEN_IT      null
     1034     9491    2   OPEN_IT:   ;                            /* Do the OPEN!                       */
     1035     9492        /**/
     1036     9493        /*  The following setup must be done before EACH OPEN.                        */
     1037     9494        /**/
     1038     9495    2              GETCMD.WORK$->XUG_PARAMS.ERRDCB=0;
              9495                       /* Make sure GETCMD forgets about any file we had open before */

   9495 12 000306   000004 470400 xsym               LDP0    GETCMD+4
        12 000307   000070 450100                    STZ     56,,PR0

     1039     9496    2              GETCMD.ERRDCB# = 0;

   9496 12 000310   000011 450000 xsym               STZ     GETCMD+9

     1040     9497    2              FPARAM_BUF(0) = 0;           /* In case it will not be stored      */

   9497 12 000311   000000 450000 xsym               STZ     FPARAM_BUF

     1041     9498    2              FPARAM$ = ADDR(FPARAM_BUF);  /* In case it will not be stored      */

   9498 12 000312   000013 236000 13                 LDQ     11
        12 000313   000000 756000 xsym               STQ     FPARAM$

     1042     9499        /**/
     1043     9500        /*  Time for the actual OPEN.                                                 */
     1044     9501        /**/
     1045     9502    2              CALL VPF$CALL_OPEN (FPT_OPEN_EI) ALTRET (EI_OPEN_ALT);

   9502 12 000314   000021 630400 13                 EPPR0   17
        12 000315   000017 631400 xsym               EPPR1   B_VECTNIL+15
        12 000316   000000 701000 xent               TSX1    VPF$CALL_OPEN
        12 000317   001442 702000 12                 TSX2    EI_OPEN_ALT
PL6.E3A0      #004=VPF$OPEN_NEXT File=VPF$SRCLST.:E05TSI                         WED 07/30/97 07:37 Page:202

     1046     9503    2              EOF_SOURCE = '0'B;

   9503 12 000320   000000 450000 xsym               STZ     EOF_SOURCE

     1047     9504    2              CALL TWIDDLE_AFTER_OPEN;

   9504 12 000321   001704 701000 12                 TSX1    TWIDDLE_AFTER_OPEN
        12 000322   000000 011000                    NOP     0

     1048     9505    2              IF FPT_OPEN_EI.V.OPER.MNTONLY#

   9505 12 000323   000044 236000 xsym               LDQ     FPT_OPEN_EI+36
        12 000324   001000 316007                    CANQ    512,DL
        12 000325   000343 600000 12                 TZE     s:9515

     1049     9506    3               THEN DO;                    /* Start at beginning file on         */

     1050     9507    3                  FPT_OPEN_EI.V.OPER.MNTONLY# = %NO#; /* this tape               */

   9507 12 000326   000022 236000 13                 LDQ     18
        12 000327   000044 356000 xsym               ANSQ    FPT_OPEN_EI+36

     1051     9508    3                  IF M$EI$->F$DCB.FSECT=1

   9508 12 000330   000000 470400 xsym               LDP0    M$EI$
        12 000331   000077 220100                    LDX0    63,,PR0
        12 000332   000001 100003                    CMPX0   1,DU
        12 000333   000337 601000 12                 TNZ     s:9512

     1052     9509    3                   THEN
     1053     9510    3                     FPT_OPEN_EI.V.FSN# = M$EI$->F$DCB.FSN;

   9510 12 000334   000034 221100                    LDX1    28,,PR0
        12 000335   000066 741000 xsym               STX1    FPT_OPEN_EI+54
        12 000336   000342 710000 12                 TRA     s:9513

PL6.E3A0      #004=VPF$OPEN_NEXT File=VPF$SRCLST.:E05TSI                         WED 07/30/97 07:37 Page:203
     1054     9511    3                   ELSE
     1055     9512    3                     FPT_OPEN_EI.V.FSN# = M$EI$->F$DCB.FSN+1;

   9512 12 000337   000034 221100                    LDX1    28,,PR0
        12 000340   000001 622011                    EAX2    1,X1
        12 000341   000066 742000 xsym               STX2    FPT_OPEN_EI+54

     1056     9513    3                  GOTO OPEN_IT;

   9513 12 000342   000306 710000 12                 TRA     OPEN_IT

     1057     9514    3                  END;
     1058     9515    2              IF ICB.DEV_MASK.DEV_TAPE     /* DEVICE/FREE TAPE                   */

   9515 12 000343   000171 236000 xsym               LDQ     ICB+121
        12 000344   040000 316003                    CANQ    16384,DU
        12 000345   000477 600000 12                 TZE     s:9553
        12 000346   200004 470500                    LDP0    @CODE,,AUTO
        12 000347   000000 235100                    LDA     0,,PR0
        12 000350   000002 115007                    CMPA    2,DL
        12 000351   000354 600000 12                 TZE     s:9518
        12 000352   000004 115007                    CMPA    4,DL
        12 000353   000477 601000 12                 TNZ     s:9553

     1059     9516    2                AND (CODE = 2 OR CODE = 4) /* AND FIRST TIME                     */
     1060     9517    2               THEN
     1061     9518    2                 IF ICB.SPEC_TYPE > 6 AND ICB.FSN.FINISH < BITBIN('777777'O)

   9518 12 000354   000017 235000 xsym               LDA     ICB+15
        12 000355   000006 115007                    CMPA    6,DL
        12 000356   000476 604400 12                 TMOZ    s:9548
        12 000357   000044 720000 xsym               LXL0    ICB+36
        12 000360   777777 100003                    CMPX0   -1,DU
        12 000361   000476 603000 12                 TRC     s:9548

     1062     9519    2                  THEN
     1063     9520    3                  DO;                      /* GET TO CORRECT FT FSN              */
PL6.E3A0      #004=VPF$OPEN_NEXT File=VPF$SRCLST.:E05TSI                         WED 07/30/97 07:37 Page:204

     1064     9521    3                     IF ICB.CLPOS ~= 0 AND ICB.FSN.FINISH ~=0

   9521 12 000362   000233 235000 xsym               LDA     ICB+155
        12 000363   000372 600000 12                 TZE     s:9527
        12 000364   000000 100003                    CMPX0   0,DU
        12 000365   000372 600000 12                 TZE     s:9527

     1065     9522    3                      THEN
     1066     9523    3                        CALL VPL$ERR_PROC(3,70,'06'O);

   9523 12 000366   000025 630400 13                 EPPR0   21
        12 000367   000021 631400 xsym               EPPR1   B_VECTNIL+17
        12 000370   000000 701000 xent               TSX1    VPL$ERR_PROC
        12 000371   000000 011000                    NOP     0

     1067     9524        /*E*  ERROR: VPF-00070
     1068     9525            MESSAGE: CLPOS not allowed with a FSN range.
     1069     9526        */
     1070     9527    3                     CALL M$CLOSE(FPT_CLOSE_EI) ALTRET(PFIL_ERR);

   9527 12 000372   000000 630400 xsym               EPPR0   FPT_CLOSE_EI
        12 000373   450001 713400                    CLIMB   alt,close
        12 000374   406000 401760                    pmme    nvectors=13
        12 000375   000446 702000 12                 TSX2    PFIL_ERR

     1071     9528    3                     FPT_REM_FT.V.PSN# = IN_SN.SN(0);

   9528 12 000376   040000 100400                    MLR     fill='040'O
        12 000377   000001 000006 xsym               ADSC9   IN_SN+1                  cn=0,n=6
        12 000400   000002 400006 11                 ADSC9   FPT_REM_FT+2             cn=2,n=6

     1072     9529    3                     CALL M$REM(FPT_REM_FT) ALTRET(PFIL_ERR); /* GET TO FSN=1    */

   9529 12 000401   000000 630400 11                 EPPR0   FPT_REM_FT
        12 000402   460006 713400                    CLIMB   alt,+24582
        12 000403   400000 401760                    pmme    nvectors=1
PL6.E3A0      #004=VPF$OPEN_NEXT File=VPF$SRCLST.:E05TSI                         WED 07/30/97 07:37 Page:205
        12 000404   000446 702000 12                 TSX2    PFIL_ERR

     1073     9530    3                     CALL M$OPEN(FPT_OPEN_EI) ALTRET(PFIL_ERR);

   9530 12 000405   000000 630400 xsym               EPPR0   FPT_OPEN_EI
        12 000406   450000 713400                    CLIMB   alt,open
        12 000407   410400 401760                    pmme    nvectors=18
        12 000410   000446 702000 12                 TSX2    PFIL_ERR

     1074     9531    4                     DO I=2 TO ICB.FSN.START;

   9531 12 000411   000002 235007                    LDA     2,DL
        12 000412   200032 755100                    STA     I,,AUTO
        12 000413   000467 710000 12                 TRA     s:9543+1

     1075     9532    4                        CALL M$PFIL(FPT_PFIL) ALTRET(PFIL_ERR);

   9532 12 000414   000000 630400 10                 EPPR0   FPT_PFIL
        12 000415   440004 713400                    CLIMB   alt,+16388
        12 000416   400000 401760                    pmme    nvectors=1
        12 000417   000446 702000 12                 TSX2    PFIL_ERR

     1076     9533    4                        IF NOT ICB.FLAVOR.FFTAPE /* For Managed Free Tapes       */

   9533 12 000420   000172 236000 xsym               LDQ     ICB+122
        12 000421   000040 316003                    CANQ    32,DU
        12 000422   000432 601000 12                 TNZ     s:9538

     1077     9534    5                         THEN DO;          /*  tape must be positioned*/

     1078     9535    5                            CALL M$CLOSE(FPT_CLOSE_EI);/*  past file mark.       */

   9535 12 000423   000000 630400 xsym               EPPR0   FPT_CLOSE_EI
        12 000424   050001 713400                    CLIMB   close
        12 000425   406000 401760                    pmme    nvectors=13

     1079     9536    5                            CALL M$OPEN(FPT_OPEN_EI) ALTRET(EI_OPEN_ALT);
PL6.E3A0      #004=VPF$OPEN_NEXT File=VPF$SRCLST.:E05TSI                         WED 07/30/97 07:37 Page:206

   9536 12 000426   000000 630400 xsym               EPPR0   FPT_OPEN_EI
        12 000427   450000 713400                    CLIMB   alt,open
        12 000430   410400 401760                    pmme    nvectors=18
        12 000431   001442 702000 12                 TSX2    EI_OPEN_ALT

     1080     9537    5                            END;

     1081     9538    4                        CALL VPD$CHECK_VOL(IN_SN,0,M$EI#,,0); /* Check VOL trans */

   9538 12 000432   000030 236000 13                 LDQ     24
        12 000433   200046 756100                    STQ     I+6,,AUTO
        12 000434   000001 236000 xsym               LDQ     B_VECTNIL+1
        12 000435   000031 235000 13                 LDA     25
        12 000436   200044 757100                    STAQ    I+4,,AUTO
        12 000437   000032 237000 13                 LDAQ    26
        12 000440   200042 757100                    STAQ    I+2,,AUTO
        12 000441   200042 630500                    EPPR0   I+2,,AUTO
        12 000442   000023 631400 xsym               EPPR1   B_VECTNIL+19
        12 000443   000000 701000 xent               TSX1    VPD$CHECK_VOL
        12 000444   000000 011000                    NOP     0

     1082     9539    5                        DO WHILE('0'B);

   9539 12 000445   000466 710000 12                 TRA     s:9543

     1083     9540    5   PFIL_ERR:               NO_MORE_FILES = 1; /* FOR POSSIBLE IMMEDIATE RECALL   */

   9540 12 000446   000001 235007       PFIL_ERR     LDA     1,DL
        12 000447   000005 755000 11                 STA     NO_MORE_FILES

     1084     9541    5                           CALL VPL$ERR_PROC(2,0,,INPUT_ERR,,,M$EI#); /* Abort step */

   9541 12 000450   000031 236000 13                 LDQ     25
        12 000451   200050 756100                    STQ     I+8,,AUTO
        12 000452   000001 236000 xsym               LDQ     B_VECTNIL+1
        12 000453   000001 235000 xsym               LDA     B_VECTNIL+1
PL6.E3A0      #004=VPF$OPEN_NEXT File=VPF$SRCLST.:E05TSI                         WED 07/30/97 07:37 Page:207
        12 000454   200046 757100                    STAQ    I+6,,AUTO
        12 000455   000034 236000 13                 LDQ     28
        12 000456   000001 235000 xsym               LDA     B_VECTNIL+1
        12 000457   200044 757100                    STAQ    I+4,,AUTO
        12 000460   000036 237000 13                 LDAQ    30
        12 000461   200042 757100                    STAQ    I+2,,AUTO
        12 000462   200042 630500                    EPPR0   I+2,,AUTO
        12 000463   000025 631400 xsym               EPPR1   B_VECTNIL+21
        12 000464   000000 701000 xent               TSX1    VPL$ERR_PROC
        12 000465   000000 011000                    NOP     0

     1085     9542    5                           END;

     1086     9543    4                        END;

   9543 12 000466   200032 054100                    AOS     I,,AUTO
        12 000467   000044 236000 xsym               LDQ     ICB+36
        12 000470   000022 772000                    QRL     18
        12 000471   200032 116100                    CMPQ    I,,AUTO
        12 000472   000414 605000 12                 TPL     s:9532

     1087     9544    3                     CUR_FT_FSN = ICB.FSN.START-1;

   9544 12 000473   000001 136007                    SBLQ    1,DL
        12 000474   000004 756000 11                 STQ     CUR_FT_FSN

     1088     9545    3                     END;

   9545 12 000475   000477 710000 12                 TRA     s:9553

     1089     9546    2                  ELSE
     1090     9547    3                  DO;

     1091     9548    3                     CUR_FT_FSN=0;

   9548 12 000476   000004 450000 11                 STZ     CUR_FT_FSN

PL6.E3A0      #004=VPF$OPEN_NEXT File=VPF$SRCLST.:E05TSI                         WED 07/30/97 07:37 Page:208
     1092     9549    3                     END;

     1093     9550                                                /* NOMARKS doesn't really matter here */
     1094     9551                                                /* since we are positioned past the   */
     1095     9552                                                /* tape mark.                         */
     1096     9553    2              IF ICB.DEV_MASK.DEV_TAPE     /* FT TAPE                            */

   9553 12 000477   000171 236000 xsym               LDQ     ICB+121
        12 000500   040000 316003                    CANQ    16384,DU
        12 000501   000504 601000 12                 TNZ     s:9556
        12 000502   100000 316003                    CANQ    32768,DU
        12 000503   000517 600000 12                 TZE     NO_ACC_CONT

     1097     9554    2                OR ICB.DEV_MASK.MAN_TAPE   /* LT    TAPE                         */
     1098     9555    2               THEN                        /* Tape involved                      */
     1099     9556    2                 CALL VPD$CHECK_VOL(IN_SN,0,M$EI#,,0); /* Check for VOL trans'n  */

   9556 12 000504   000030 236000 13                 LDQ     24
        12 000505   200046 756100                    STQ     I+6,,AUTO
        12 000506   000001 236000 xsym               LDQ     B_VECTNIL+1
        12 000507   000031 235000 13                 LDA     25
        12 000510   200044 757100                    STAQ    I+4,,AUTO
        12 000511   000032 237000 13                 LDAQ    26
        12 000512   200042 757100                    STAQ    I+2,,AUTO
        12 000513   200042 630500                    EPPR0   I+2,,AUTO
        12 000514   000023 631400 xsym               EPPR1   B_VECTNIL+19
        12 000515   000000 701000 xent               TSX1    VPD$CHECK_VOL
        12 000516   000000 011000                    NOP     0

     1100     9557    2   NO_ACC_CONT:
     1101     9558    3              DO CASE(ICB.SPEC_TYPE);

   9558 12 000517   000017 235000 xsym  NO_ACC_CONT  LDA     ICB+15
        12 000520   000011 115007                    CMPA    9,DL
        12 000521   000523 602005 12                 TNC     NO_ACC_CONT+4,AL
        12 000522   000701 710000 12                 TRA     s:9633
        12 000523   000701 710000 12                 TRA     s:9633
PL6.E3A0      #004=VPF$OPEN_NEXT File=VPF$SRCLST.:E05TSI                         WED 07/30/97 07:37 Page:209
        12 000524   000534 710000 12                 TRA     s:9560
        12 000525   000541 710000 12                 TRA     s:9564
        12 000526   000544 710000 12                 TRA     s:9566
        12 000527   000620 710000 12                 TRA     s:9597
        12 000530   000620 710000 12                 TRA     s:9597
        12 000531   000701 710000 12                 TRA     s:9633
        12 000532   000534 710000 12                 TRA     s:9560
        12 000533   000651 710000 12                 TRA     s:9612

     1102     9559    3               CASE(1,7);                  /* SINGLE FID OR SINGLE FSN...        */

     1103     9560    3                 FILE_FOUND = 1;

   9560 12 000534   000001 236007                    LDQ     1,DL
        12 000535   200027 756100                    STQ     FILE_FOUND,,AUTO

     1104     9561    3                 NO_MORE_FILES = 1;

   9561 12 000536   000005 756000 11                 STQ     NO_MORE_FILES

     1105     9562    3                 CUR_FT_FSN = CUR_FT_FSN +1;

   9562 12 000537   000004 054000 11                 AOS     CUR_FT_FSN
        12 000540   000701 710000 12                 TRA     s:9633

     1106     9563    3               CASE(2);                    /* FULL RANGE                         */

     1107     9564    3                 FILE_FOUND = 1;

   9564 12 000541   000001 236007                    LDQ     1,DL
        12 000542   200027 756100                    STQ     FILE_FOUND,,AUTO
        12 000543   000701 710000 12                 TRA     s:9633

     1108     9565    3               CASE(3);                    /* SUB-RANGE OF DIRECTORY DEVICE      */

     1109     9566    3                 IF ICB.PHYSICAL=1

PL6.E3A0      #004=VPF$OPEN_NEXT File=VPF$SRCLST.:E05TSI                         WED 07/30/97 07:37 Page:210
   9566 12 000544   000011 236000 xsym               LDQ     ICB+9
        12 000545   000001 116007                    CMPQ    1,DL
        12 000546   000562 601000 12                 TNZ     s:9577

     1110     9567    3                  THEN
     1111     9568    4                  DO;                      /* PHYSICAL ORDER FROM LT             */

     1112     9569    4                     FILE_FOUND = 1;

   9569 12 000547   000001 235007                    LDA     1,DL
        12 000550   200027 755100                    STA     FILE_FOUND,,AUTO

     1113     9570    4                     IF ADDR(DIN_NAME) -> TEXT$C.STRING =

   9570 12 000551   000000 236000 xsym               LDQ     DIN_NAME
        12 000552   000033 772000                    QRL     27
        12 000553   000000 620006                    EAX0    0,QL
        12 000554   040000 106440                    CMPC    fill='040'O
        12 000555   000000 200010 xsym               ADSC9   DIN_NAME                 cn=1,n=*X0
        12 000556   000140 000037 xsym               ADSC9   ICB+96                   cn=0,n=31
        12 000557   000701 601000 12                 TNZ     s:9633

     1114     9571    4                       ICB.NAME_RANGE_END
     1115     9572    4                      THEN
     1116     9573    4                        NO_MORE_FILES = 1;

   9573 12 000560   000005 755000 11                 STA     NO_MORE_FILES

     1117     9574    4                     END;

   9574 12 000561   000701 710000 12                 TRA     s:9633

     1118     9575    3                  ELSE                     /* NOT PHYSICAL                       */
     1119     9576    4                  DO;

     1120     9577    4                     IF (ADDR(DIN_NAME) -> TEXT$C.STRING <

PL6.E3A0      #004=VPF$OPEN_NEXT File=VPF$SRCLST.:E05TSI                         WED 07/30/97 07:37 Page:211
   9577 12 000562   000000 236000 xsym               LDQ     DIN_NAME
        12 000563   000033 772000                    QRL     27
        12 000564   000000 620006                    EAX0    0,QL
        12 000565   000000 236000 xsym               LDQ     IN_NAME
        12 000566   000033 772000                    QRL     27
        12 000567   000000 621006                    EAX1    0,QL
        12 000570   040040 106440                    CMPC    fill='040'O
        12 000571   000000 200010 xsym               ADSC9   DIN_NAME                 cn=1,n=*X0
        12 000572   000000 200011 xsym               ADSC9   IN_NAME                  cn=1,n=*X1
        12 000573   000577 603000 12                 TRC     s:9582
        12 000574   000167 236000 xsym               LDQ     ICB+119
        12 000575   001000 316007                    CANQ    512,DL
        12 000576   000611 601000 12                 TNZ     OUTSIDE_RANGE

     1121     9578    4                       ADDR(IN_NAME)->TEXT$C.STRING)
     1122     9579    4                       AND ICB.SRCHCOND.REV
     1123     9580    4                      THEN                 /* Too far back                       */
     1124     9581    4                        GOTO OUTSIDE_RANGE;
     1125     9582    4                     IF ADDR(DIN_NAME) -> TEXT$C.STRING >

   9582 12 000577   040040 106400                    CMPC    fill='040'O
        12 000600   000140 000037 xsym               ADSC9   ICB+96                   cn=0,n=31
        12 000601   000000 200010 xsym               ADSC9   DIN_NAME                 cn=1,n=*X0
        12 000602   000606 603000 12                 TRC     s:9587
        12 000603   000167 236000 xsym               LDQ     ICB+119
        12 000604   001000 316007                    CANQ    512,DL
        12 000605   000611 600000 12                 TZE     OUTSIDE_RANGE

     1126     9583    4                       ICB.NAME_RANGE_END
     1127     9584    4                       AND NOT ICB.SRCHCOND.REV
     1128     9585    4                      THEN                 /* Too far foreward                   */
     1129     9586    4                        GOTO OUTSIDE_RANGE;
     1130     9587    4                     FILE_FOUND = 1;       /* Must be good                       */

   9587 12 000606   000001 236007                    LDQ     1,DL
        12 000607   200027 756100                    STQ     FILE_FOUND,,AUTO

PL6.E3A0      #004=VPF$OPEN_NEXT File=VPF$SRCLST.:E05TSI                         WED 07/30/97 07:37 Page:212
     1131     9588    5                     DO WHILE ('0'B);

   9588 12 000610   000701 710000 12                 TRA     s:9633

   9586 12 000611                       OUTSIDE_RAN* null
     1132     9589    5   OUTSIDE_RANGE:       ;
     1133     9590    5                        IF ICB.DEV_MASK ~= '100'O /* LT                          */

   9590 12 000611   000171 236000 xsym               LDQ     ICB+121
        12 000612   777000 376003                    ANQ     -512,DU
        12 000613   100000 116003                    CMPQ    32768,DU
        12 000614   000617 600000 12                 TZE     s:9594

     1134     9591    5                         THEN
     1135     9592    5                           NO_MORE_FILES = 1;

   9592 12 000615   000001 236007                    LDQ     1,DL
        12 000616   000005 756000 11                 STQ     NO_MORE_FILES

     1136     9593    5                        END;

     1137     9594    4                     END;

   9594 12 000617   000701 710000 12                 TRA     s:9633

     1138     9595        %EJECT;
PL6.E3A0      #004=VPF$OPEN_NEXT File=VPF$SRCLST.:E05TSI                         WED 07/30/97 07:37 Page:213
     1139     9596    3               CASE(4,5);                  /* WILDCARDING...                     */

     1140     9597    3                 CALL VPD$WILD_COMPARE(IN_NAME,DIN_NAME) ALTRET(NO_WILD_MATCH);

   9597 12 000620   000040 630400 13                 EPPR0   32
        12 000621   000020 631400 xsym               EPPR1   B_VECTNIL+16
        12 000622   000000 701000 xent               TSX1    VPD$WILD_COMPARE
        12 000623   000627 702000 12                 TSX2    NO_WILD_MATCH

     1141     9598    3                 FILE_FOUND = 1;

   9598 12 000624   000001 235007                    LDA     1,DL
        12 000625   200027 755100                    STA     FILE_FOUND,,AUTO

     1142     9599    4                 DO WHILE('0'B);           /* NEVER DO                           */

   9599 12 000626   000701 710000 12                 TRA     s:9633

     1143     9600    4   NO_WILD_MATCH:
     1144     9601    4                    IF ICB.SPEC_TYPE = 5 AND ICB.DEV_MASK.MAN_DISC

   9601 12 000627   000017 235000 xsym  NO_WILD_MAT* LDA     ICB+15
        12 000630   000005 115007                    CMPA    5,DL
        12 000631   000650 601000 12                 TNZ     s:9610
        12 000632   000171 236000 xsym               LDQ     ICB+121
        12 000633   200000 316003                    CANQ    65536,DU
        12 000634   000650 600000 12                 TZE     s:9610

     1145     9602    4                     THEN                  /* Wildcard without initial '?'       */
     1146     9603    5                     DO;

     1147     9604    5                        CALL INDEX(I,'?',IN_NAME.STRING);

   9604 12 000635   000000 124400                    SCM     mask='000'O
        12 000636   000000 200037 xsym               ADSC9   IN_NAME                  cn=1,n=31
        12 000637   000042 000001 13                 ADSC9   34                       cn=0,n=1
        12 000640   200032 000100                    ARG     I,,AUTO
PL6.E3A0      #004=VPF$OPEN_NEXT File=VPF$SRCLST.:E05TSI                         WED 07/30/97 07:37 Page:214

     1148     9605    5                        IF SUBSTR(DIN_NAME.STRING,0,I)

   9605 12 000641   200032 720100                    LXL0    I,,AUTO
        12 000642   040040 106440                    CMPC    fill='040'O
        12 000643   000000 200010 xsym               ADSC9   DIN_NAME                 cn=1,n=*X0
        12 000644   000000 200010 xsym               ADSC9   IN_NAME                  cn=1,n=*X0
        12 000645   000650 600000 12                 TZE     s:9610

     1149     9606    5                          ~= SUBSTR(IN_NAME.STRING,0,I)
     1150     9607    5                         THEN              /* End of wild, stop opening files    */
     1151     9608    5                           NO_MORE_FILES = 1;

   9608 12 000646   000001 235007                    LDA     1,DL
        12 000647   000005 755000 11                 STA     NO_MORE_FILES

     1152     9609    5                        END;

     1153     9610    4                    END;

   9610 12 000650   000701 710000 12                 TRA     s:9633

     1154     9611    3               CASE(8);                    /* FSN RANGE                          */

     1155     9612    3                 FILE_FOUND = 1;

   9612 12 000651   000001 236007                    LDQ     1,DL
        12 000652   200027 756100                    STQ     FILE_FOUND,,AUTO

     1156     9613    3                 IF M$EI$->F$DCB.ASN=%TAPE#

   9613 12 000653   000000 470400 xsym               LDP0    M$EI$
        12 000654   000032 236100                    LDQ     26,,PR0
        12 000655   777000 376007                    ANQ     -512,DL
        12 000656   002000 116007                    CMPQ    1024,DL
        12 000657   000672 601000 12                 TNZ     s:9627

PL6.E3A0      #004=VPF$OPEN_NEXT File=VPF$SRCLST.:E05TSI                         WED 07/30/97 07:37 Page:215
     1157     9614    3                  THEN
     1158     9615    4                  DO;

     1159     9616    4                     IF M$EI$->F$DCB.FSN>=ICB.FSN.FINISH

   9616 12 000660   000044 720000 xsym               LXL0    ICB+36
        12 000661   000034 100100                    CMPX0   28,,PR0
        12 000662   000664 600000 12                 TZE     s:9619
        12 000663   000701 603000 12                 TRC     s:9633

     1160     9617    4                      THEN
     1161     9618    5                      DO;

     1162     9619    5                         NO_MORE_FILES = 1;

   9619 12 000664   000001 235007                    LDA     1,DL
        12 000665   000005 755000 11                 STA     NO_MORE_FILES

     1163     9620    5                         IF M$EI$->F$DCB.FSN>ICB.FSN.FINISH

   9620 12 000666   000034 100100                    CMPX0   28,,PR0
        12 000667   000701 603000 12                 TRC     s:9633

     1164     9621    5                          THEN
     1165     9622    5                            FILE_FOUND = 0;

   9622 12 000670   200027 450100                    STZ     FILE_FOUND,,AUTO

     1166     9623    5                         END;

     1167     9624    4                     END;

   9624 12 000671   000701 710000 12                 TRA     s:9633

     1168     9625    3                  ELSE
     1169     9626    4                  DO;                      /* MUST BE FT                         */

PL6.E3A0      #004=VPF$OPEN_NEXT File=VPF$SRCLST.:E05TSI                         WED 07/30/97 07:37 Page:216
     1170     9627    4                     CUR_FT_FSN = CUR_FT_FSN+1;

   9627 12 000672   000004 054000 11                 AOS     CUR_FT_FSN

     1171     9628    4                     IF CUR_FT_FSN=ICB.FSN.FINISH

   9628 12 000673   000044 236000 xsym               LDQ     ICB+36
        12 000674   777777 376007                    ANQ     -1,DL
        12 000675   000004 116000 11                 CMPQ    CUR_FT_FSN
        12 000676   000701 601000 12                 TNZ     s:9633

     1172     9629    4                      THEN
     1173     9630    4                        NO_MORE_FILES = 1;

   9630 12 000677   000001 235007                    LDA     1,DL
        12 000700   000005 755000 11                 STA     NO_MORE_FILES

     1174     9631    4                     END;

     1175     9632    3               END;                        /* END CASE                           */

     1176     9633    2              IF ICB.DEV_MASK.DEV_TAPE

   9633 12 000701   000171 236000 xsym               LDQ     ICB+121
        12 000702   040000 316003                    CANQ    16384,DU
        12 000703   000724 600000 12                 TZE     s:9642

     1177     9634    2               THEN                        /* Construct NAME from FSN            */
     1178     9635    3               DO;

     1179     9636    3                  CALL BINCHAR(CHAR_4,CUR_FT_FSN);

   9636 12 000704   000100 301400                    BTD
        12 000705   000004 000004 11                 NDSC9   CUR_FT_FSN               cn=0,s=lsgnf,sf=0,n=4
        12 000706   200033 030004                    NDSC9   CHAR_4,,AUTO             cn=0,s=nosgn,sf=0,n=4

     1180     9637    3                  CALL CONCAT(DIN_NAME.STRING,'FSN_',CHAR_4);
PL6.E3A0      #004=VPF$OPEN_NEXT File=VPF$SRCLST.:E05TSI                         WED 07/30/97 07:37 Page:217

   9637 12 000707   040000 100400                    MLR     fill='040'O
        12 000710   000011 000004 10                 ADSC9   ABORT_SOURCE_ERR+5       cn=0,n=4
        12 000711   000000 200004 xsym               ADSC9   DIN_NAME                 cn=1,n=4
        12 000712   040000 100500                    MLR     fill='040'O
        12 000713   200033 000004                    ADSC9   CHAR_4,,AUTO             cn=0,n=4
        12 000714   000001 200033 xsym               ADSC9   DIN_NAME+1               cn=1,n=27

     1181     9638    3                  DIN_NAME.LEN = 4 + 4;

   9638 12 000715   010000 236003                    LDQ     4096,DU
        12 000716   000000 552040 xsym               STBQ    DIN_NAME,'40'O

     1182     9639    3                  IN_NAME.STRING = '?';    /* Always matches                     */

   9639 12 000717   040000 100400                    MLR     fill='040'O
        12 000720   000042 000001 13                 ADSC9   34                       cn=0,n=1
        12 000721   000000 200037 xsym               ADSC9   IN_NAME                  cn=1,n=31

     1183     9640    3                  IN_NAME.LEN = 1;

   9640 12 000722   001000 236003                    LDQ     512,DU
        12 000723   000000 552040 xsym               STBQ    IN_NAME,'40'O

     1184     9641    3                  END;

     1185     9642    2              IF ICB.ORG ~= '0'B

   9642 12 000724   000135 235000 xsym               LDA     ICB+93
        12 000725   000740 600000 12                 TZE     s:9647
        12 000726   200026 236100                    LDQ     NO_ACCESS,,AUTO
        12 000727   000740 601000 12                 TNZ     s:9647
        12 000730   000000 470400 xsym               LDP0    M$EI$
        12 000731   000032 236100                    LDQ     26,,PR0
        12 000732   000033 772000                    QRL     27
        12 000733   000000 066406                    CMPB    filb='0'B
        12 000734   000135 000001 xsym               BDSC    ICB+93,Q                 by=0,bit=0,n=1
PL6.E3A0      #004=VPF$OPEN_NEXT File=VPF$SRCLST.:E05TSI                         WED 07/30/97 07:37 Page:218
        12 000735   000136 000001 xsym               BDSC    ICB+94                   by=0,bit=0,n=1
        12 000736   000740 601000 12                 TNZ     s:9647

     1186     9643    2                AND NO_ACCESS = 0
     1187     9644    2                AND ICB.ORG(M$EI$->F$DCB.ORG) = ICB.ORG_NEG
     1188     9645    2               THEN
     1189     9646    2                 FILE_FOUND = 0;

   9646 12 000737   200027 450100                    STZ     FILE_FOUND,,AUTO

     1190     9647    2              IF ICB.TYPE.COUNT>0 AND FILE_FOUND=1

   9647 12 000740   000150 236000 xsym               LDQ     ICB+104
        12 000741   001000 604400 12                 TMOZ    s:9665
        12 000742   200027 235100                    LDA     FILE_FOUND,,AUTO
        12 000743   000001 115007                    CMPA    1,DL
        12 000744   001000 601000 12                 TNZ     s:9665

     1191     9648    2               THEN
     1192     9649    3               DO;

     1193     9650    3                  FILE_FOUND = 0;

   9650 12 000745   200027 450100                    STZ     FILE_FOUND,,AUTO

     1194     9651    4                  DO T=0 TO ICB.TYPE.COUNT-1;

   9651 12 000746   200031 450100                    STZ     T,,AUTO
        12 000747   000762 710000 12                 TRA     s:9655+1

     1195     9652    4                     IF M$EI$->F$DCB.TYPE=ICB.TYPE.STRING(T)

   9652 12 000750   200031 235100                    LDA     T,,AUTO
        12 000751   000001 735000                    ALS     1
        12 000752   000000 470400 xsym               LDP0    M$EI$
        12 000753   040005 106500                    CMPC    fill='040'O
        12 000754   000025 400002                    ADSC9   21,,PR0                  cn=2,n=2
PL6.E3A0      #004=VPF$OPEN_NEXT File=VPF$SRCLST.:E05TSI                         WED 07/30/97 07:37 Page:219
        12 000755   000152 000002 xsym               ADSC9   ICB+106,A                cn=0,n=2
        12 000756   000761 601000 12                 TNZ     s:9655

     1196     9653    4                      THEN
     1197     9654    4                        FILE_FOUND = 1;

   9654 12 000757   000001 236007                    LDQ     1,DL
        12 000760   200027 756100                    STQ     FILE_FOUND,,AUTO

     1198     9655    4                     END;

   9655 12 000761   200031 054100                    AOS     T,,AUTO
        12 000762   200031 236100                    LDQ     T,,AUTO
        12 000763   000150 116000 xsym               CMPQ    ICB+104
        12 000764   000750 604000 12                 TMI     s:9652

     1199     9656    3                  IF ICB.TYPE.NEG     /* " ~= " option specified on TYPE inopt   */

   9656 12 000765   000151 234000 xsym               SZN     ICB+105
        12 000766   001000 605000 12                 TPL     s:9665
        12 000767   000000 470400 xsym               LDP0    M$EI$
        12 000770   000025 720100                    LXL0    21,,PR0
        12 000771   001000 600000 12                 TZE     s:9665

     1200     9657    3                    AND ADDR(M$EI$->F$DCB.TYPE)->UBIN$HALF ~= 0 /* ~ ARCHIVED    */
     1201     9658    3                   THEN                    /* Just reverse the FILE_FOUND flag   */
     1202     9659    3                     IF FILE_FOUND = 0

   9659 12 000772   200027 235100                    LDA     FILE_FOUND,,AUTO
        12 000773   000777 601000 12                 TNZ     s:9663

     1203     9660    3                      THEN
     1204     9661    3                        FILE_FOUND = 1;

   9661 12 000774   000001 235007                    LDA     1,DL
        12 000775   200027 755100                    STA     FILE_FOUND,,AUTO
        12 000776   001000 710000 12                 TRA     s:9665
PL6.E3A0      #004=VPF$OPEN_NEXT File=VPF$SRCLST.:E05TSI                         WED 07/30/97 07:37 Page:220

     1205     9662    3                      ELSE
     1206     9663    3                        FILE_FOUND = 0;

   9663 12 000777   200027 450100                    STZ     FILE_FOUND,,AUTO

     1207     9664    3                  END;

     1208     9665    2              IF ICB.CREATOR_SEL = 2

   9665 12 001000   000173 235000 xsym               LDA     ICB+123
        12 001001   000002 115007                    CMPA    2,DL
        12 001002   001024 601000 12                 TNZ     CREATOR_OK

     1209     9666    2               THEN
     1210     9667    3               DO;

     1211     9668    3                  CALL VPD$FETCH_CREATOR(TEXT_C) ALTRET(CREATOR_OK);

   9668 12 001003   200016 630500                    EPPR0   TEXT_C,,AUTO
        12 001004   200042 450500                    STP0    I+2,,AUTO
        12 001005   200042 630500                    EPPR0   I+2,,AUTO
        12 001006   000017 631400 xsym               EPPR1   B_VECTNIL+15
        12 001007   000000 701000 xent               TSX1    VPD$FETCH_CREATOR
        12 001010   001024 702000 12                 TSX2    CREATOR_OK

     1212     9669    3                  IF SUBSTR(TEXT_C.TEXT,0,TEXT_C.C) ~=

   9669 12 001011   200016 236100                    LDQ     TEXT_C,,AUTO
        12 001012   000033 772000                    QRL     27
        12 001013   000000 620006                    EAX0    0,QL
        12 001014   000175 236000 xsym               LDQ     ICB+125
        12 001015   000033 772000                    QRL     27
        12 001016   000000 621006                    EAX1    0,QL
        12 001017   040040 106540                    CMPC    fill='040'O
        12 001020   200016 200010                    ADSC9   TEXT_C,,AUTO             cn=1,n=*X0
        12 001021   000175 200011 xsym               ADSC9   ICB+125                  cn=1,n=*X1
PL6.E3A0      #004=VPF$OPEN_NEXT File=VPF$SRCLST.:E05TSI                         WED 07/30/97 07:37 Page:221
        12 001022   001024 600000 12                 TZE     CREATOR_OK

     1213     9670    3                    SUBSTR(ICB.CREATOR.TEXT,0,ICB.CREATOR.C)
     1214     9671    3                   THEN
     1215     9672    3                     FILE_FOUND = 0;

   9672 12 001023   200027 450100                    STZ     FILE_FOUND,,AUTO

   9669 12 001024                       CREATOR_OK   null
     1216     9673    3   CREATOR_OK:    ;
     1217     9674    3                  END;

     1218     9675    2              IF ICB.CREATOR_SEL=1 AND NOT(M$EI$ -> F$DCB.OWNER)

   9675 12 001024   000173 235000 xsym               LDA     ICB+123
        12 001025   000001 115007                    CMPA    1,DL
        12 001026   001034 601000 12                 TNZ     s:9678
        12 001027   000000 470400 xsym               LDP0    M$EI$
        12 001030   000064 236100                    LDQ     52,,PR0
        12 001031   040000 316007                    CANQ    16384,DL
        12 001032   001034 601000 12                 TNZ     s:9678

     1219     9676    2               THEN
     1220     9677    2                 FILE_FOUND = 0;

   9677 12 001033   200027 450100                    STZ     FILE_FOUND,,AUTO

     1221     9678    2              IF ICB.CREATOR_SEL ~=0 AND ICB.CREATOR_NEG THEN

   9678 12 001034   000000 115003                    CMPA    0,DU
        12 001035   001047 600000 12                 TZE     s:9683
        12 001036   000174 234000 xsym               SZN     ICB+124
        12 001037   001047 605000 12                 TPL     s:9683

     1222     9679    2                 IF FILE_FOUND = 1 THEN

   9679 12 001040   200027 236100                    LDQ     FILE_FOUND,,AUTO
PL6.E3A0      #004=VPF$OPEN_NEXT File=VPF$SRCLST.:E05TSI                         WED 07/30/97 07:37 Page:222
        12 001041   000001 116007                    CMPQ    1,DL
        12 001042   001045 601000 12                 TNZ     s:9682

     1223     9680    2                    FILE_FOUND = 0;

   9680 12 001043   200027 450100                    STZ     FILE_FOUND,,AUTO
        12 001044   001047 710000 12                 TRA     s:9683

     1224     9681    2                  ELSE
     1225     9682    2                    FILE_FOUND = 1;

   9682 12 001045   000001 235007                    LDA     1,DL
        12 001046   200027 755100                    STA     FILE_FOUND,,AUTO

     1226     9683    2              IF ICB.DATE.RELATION~=0 AND FILE_FOUND=1

   9683 12 001047   000162 235000 xsym               LDA     ICB+114
        12 001050   001307 600000 12                 TZE     NO_CODE4
        12 001051   200027 236100                    LDQ     FILE_FOUND,,AUTO
        12 001052   000001 116007                    CMPQ    1,DL
        12 001053   001307 601000 12                 TNZ     NO_CODE4

     1227     9684    2               THEN
     1228     9685    3               DO;

     1229     9686    3                  FPARAM$=ADDR(FPARAM_BUF);

   9686 12 001054   000013 236000 13                 LDQ     11
        12 001055   000000 756000 xsym               STQ     FPARAM$

     1230     9687    3                  CODE$ = FPARAM$;         /* Point to start of FPARAM           */

   9687 12 001056   200035 756100                    STQ     CODE$,,AUTO

     1231     9688    3                  CALL XSF$LOCCODP(CODE$,04)

   9688 12 001057   000043 236000 13                 LDQ     35
PL6.E3A0      #004=VPF$OPEN_NEXT File=VPF$SRCLST.:E05TSI                         WED 07/30/97 07:37 Page:223
        12 001060   200043 756100                    STQ     I+3,,AUTO
        12 001061   200035 630500                    EPPR0   CODE$,,AUTO
        12 001062   200042 450500                    STP0    I+2,,AUTO
        12 001063   200042 630500                    EPPR0   I+2,,AUTO
        12 001064   000020 631400 xsym               EPPR1   B_VECTNIL+16
        12 001065   000000 701000 xent               TSX1    XSF$LOCCODP
        12 001066   001070 702000 12                 TSX2    s:9691
        12 001067   001075 710000 12                 TRA     s:9698

     1232     9689    3                   WHENALTRETURN
     1233     9690    4                   DO;

     1234     9691    4                      IF ICB.DATE.TYPE < 4

   9691 12 001070   000160 235000 xsym               LDA     ICB+112
        12 001071   000004 115007                    CMPA    4,DL
        12 001072   001075 603000 12                 TRC     s:9698

     1235     9692    4                       THEN
     1236     9693    5                       DO;

     1237     9694    5                          FILE_FOUND = 0;

   9694 12 001073   200027 450100                    STZ     FILE_FOUND,,AUTO

     1238     9695    5                          GOTO NO_CODE4;

   9695 12 001074   001307 710000 12                 TRA     NO_CODE4

     1239     9696    5                          END;
     1240     9697    4                      END;
     1241     9698    4                  DO CASE(ICB.DATE.TYPE);

   9698 12 001075   000160 235000 xsym               LDA     ICB+112
        12 001076   000007 115007                    CMPA    7,DL
        12 001077   001101 602005 12                 TNC     s:9698+4,AL
        12 001100   001223 710000 12                 TRA     s:9730
PL6.E3A0      #004=VPF$OPEN_NEXT File=VPF$SRCLST.:E05TSI                         WED 07/30/97 07:37 Page:224
        12 001101   001223 710000 12                 TRA     s:9730
        12 001102   001110 710000 12                 TRA     s:9700
        12 001103   001114 710000 12                 TRA     s:9702
        12 001104   001120 710000 12                 TRA     s:9704
        12 001105   001124 710000 12                 TRA     s:9706
        12 001106   001162 710000 12                 TRA     s:9714
        12 001107   001203 710000 12                 TRA     s:9722

     1242     9699    4                   CASE(1);

     1243     9700    4                     CONTROL_DATE = CODE$ -> CODE04.CREATION.TIME;

   9700 12 001110   200035 470500                    LDP0    CODE$,,AUTO
        12 001111   000002 235100                    LDA     2,,PR0
        12 001112   000016 755000 11                 STA     CONTROL_DATE
        12 001113   001223 710000 12                 TRA     s:9730

     1244     9701    4                   CASE(2);

     1245     9702    4                     CONTROL_DATE = CODE$ -> CODE04.ACCESS.TIME;

   9702 12 001114   200035 470500                    LDP0    CODE$,,AUTO
        12 001115   000000 235100                    LDA     0,,PR0
        12 001116   000016 755000 11                 STA     CONTROL_DATE
        12 001117   001223 710000 12                 TRA     s:9730

     1246     9703    4                   CASE(3);

     1247     9704    4                     CONTROL_DATE = CODE$ -> CODE04.MODIFY.TIME;

   9704 12 001120   200035 470500                    LDP0    CODE$,,AUTO
        12 001121   000001 235100                    LDA     1,,PR0
        12 001122   000016 755000 11                 STA     CONTROL_DATE
        12 001123   001223 710000 12                 TRA     s:9730

     1248     9705    4                   CASE(4);                /* EXPIRATION date                    */

PL6.E3A0      #004=VPF$OPEN_NEXT File=VPF$SRCLST.:E05TSI                         WED 07/30/97 07:37 Page:225
     1249     9706    4                     CONTROL_DATE = CODE$ -> CODE04.CREATION.TIME;

   9706 12 001124   200035 470500                    LDP0    CODE$,,AUTO
        12 001125   000002 235100                    LDA     2,,PR0
        12 001126   000016 755000 11                 STA     CONTROL_DATE

     1250     9707    4                     CODE$ = FPARAM$;      /* Point to start of FPARAM bufr      */

   9707 12 001127   000000 236000 xsym               LDQ     FPARAM$
        12 001130   200035 756100                    STQ     CODE$,,AUTO

     1251     9708    4                     CALL XSF$LOCCODP(CODE$,03) ALTRET(NEXPR); /* Find expire    */

   9708 12 001131   000025 236000 13                 LDQ     21
        12 001132   200043 756100                    STQ     I+3,,AUTO
        12 001133   200035 630500                    EPPR0   CODE$,,AUTO
        12 001134   200042 450500                    STP0    I+2,,AUTO
        12 001135   200042 630500                    EPPR0   I+2,,AUTO
        12 001136   000020 631400 xsym               EPPR1   B_VECTNIL+16
        12 001137   000000 701000 xent               TSX1    XSF$LOCCODP
        12 001140   001235 702000 12                 TSX2    NEXPR

     1252     9709    4                     IF CODE$ -> CODE03.EXPIRE < 0

   9709 12 001141   200035 470500                    LDP0    CODE$,,AUTO
        12 001142   000007 220100                    LDX0    7,,PR0
        12 001143   001235 604000 12                 TMI     NEXPR

     1253     9710    4                      THEN                 /* NEVER EXPIRE                       */
     1254     9711    4                        GOTO NEXPR;
     1255     9712    4                     CALL XUD$UTS_ADJ_25TH (CONTROL_DATE, CONTROL_DATE, CODE$->CODE03.
              9712                              EXPIRE * %UTS_25TH_DAY#);

   9712 12 001144   000007 236100                    LDQ     7,,PR0
        12 001145   000022 732000                    QRS     18
        12 001146   000044 402000 13                 MPY     36
        12 001147   200042 756100                    STQ     I+2,,AUTO
PL6.E3A0      #004=VPF$OPEN_NEXT File=VPF$SRCLST.:E05TSI                         WED 07/30/97 07:37 Page:226
        12 001150   200042 631500                    EPPR1   I+2,,AUTO
        12 001151   200045 451500                    STP1    I+5,,AUTO
        12 001152   000045 236000 13                 LDQ     37
        12 001153   200044 756100                    STQ     I+4,,AUTO
        12 001154   200043 756100                    STQ     I+3,,AUTO
        12 001155   200043 630500                    EPPR0   I+3,,AUTO
        12 001156   000021 631400 xsym               EPPR1   B_VECTNIL+17
        12 001157   000000 701000 xent               TSX1    XUD$UTS_ADJ_25TH
        12 001160   000000 011000                    NOP     0
        12 001161   001223 710000 12                 TRA     s:9730

     1256     9713    4                   CASE(5);

     1257     9714    4                     CODE$ = FPARAM$;

   9714 12 001162   000000 236000 xsym               LDQ     FPARAM$
        12 001163   200035 756100                    STQ     CODE$,,AUTO

     1258     9715    4                     CALL XSF$LOCCODP(CODE$,05)

   9715 12 001164   000046 236000 13                 LDQ     38
        12 001165   200043 756100                    STQ     I+3,,AUTO
        12 001166   200035 630500                    EPPR0   CODE$,,AUTO
        12 001167   200042 450500                    STP0    I+2,,AUTO
        12 001170   200042 630500                    EPPR0   I+2,,AUTO
        12 001171   000020 631400 xsym               EPPR1   B_VECTNIL+16
        12 001172   000000 701000 xent               TSX1    XSF$LOCCODP
        12 001173   001175 702000 12                 TSX2    s:9717
        12 001174   001177 710000 12                 TRA     s:9720

     1259     9716    5                      WHENALTRETURN DO;

     1260     9717    5                         FILE_FOUND = 0;

   9717 12 001175   200027 450100                    STZ     FILE_FOUND,,AUTO

     1261     9718    5                         GOTO NO_CODE4;    /* This file has no backup date       */
PL6.E3A0      #004=VPF$OPEN_NEXT File=VPF$SRCLST.:E05TSI                         WED 07/30/97 07:37 Page:227

   9718 12 001176   001307 710000 12                 TRA     NO_CODE4

     1262     9719    5                         END;
     1263     9720    4                     CONTROL_DATE = CODE$->CODE05.BACKUP.TIME;

   9720 12 001177   200035 470500                    LDP0    CODE$,,AUTO
        12 001200   000000 235100                    LDA     0,,PR0
        12 001201   000016 755000 11                 STA     CONTROL_DATE
        12 001202   001223 710000 12                 TRA     s:9730

     1264     9721    4                   CASE(6);

     1265     9722    4                     CODE$ = FPARAM$;

   9722 12 001203   000000 236000 xsym               LDQ     FPARAM$
        12 001204   200035 756100                    STQ     CODE$,,AUTO

     1266     9723    4                     CALL XSF$LOCCODP(CODE$,06)

   9723 12 001205   000047 236000 13                 LDQ     39
        12 001206   200043 756100                    STQ     I+3,,AUTO
        12 001207   200035 630500                    EPPR0   CODE$,,AUTO
        12 001210   200042 450500                    STP0    I+2,,AUTO
        12 001211   200042 630500                    EPPR0   I+2,,AUTO
        12 001212   000020 631400 xsym               EPPR1   B_VECTNIL+16
        12 001213   000000 701000 xent               TSX1    XSF$LOCCODP
        12 001214   001216 702000 12                 TSX2    s:9725
        12 001215   001220 710000 12                 TRA     s:9728

     1267     9724    5                      WHENALTRETURN DO;

     1268     9725    5                         FILE_FOUND = 0;

   9725 12 001216   200027 450100                    STZ     FILE_FOUND,,AUTO

     1269     9726    5                         GOTO NO_CODE4;    /* This file isn't stowed             */
PL6.E3A0      #004=VPF$OPEN_NEXT File=VPF$SRCLST.:E05TSI                         WED 07/30/97 07:37 Page:228

   9726 12 001217   001307 710000 12                 TRA     NO_CODE4

     1270     9727    5                         END;
     1271     9728    4                     CONTROL_DATE = CODE$->CODE06.STOW.TIME;

   9728 12 001220   200035 470500                    LDP0    CODE$,,AUTO
        12 001221   000000 235100                    LDA     0,,PR0
        12 001222   000016 755000 11                 STA     CONTROL_DATE

     1272     9729    4                   END;                    /* END CASE                           */

     1273     9730    3                  CALL VPD$ROUND_DATE(,,CONTROL_DATE,ICB.DATE.ROUNDING_TYPE);

   9730 12 001223   000050 237000 13                 LDAQ    40
        12 001224   200044 757100                    STAQ    I+4,,AUTO
        12 001225   000001 236000 xsym               LDQ     B_VECTNIL+1
        12 001226   000001 235000 xsym               LDA     B_VECTNIL+1
        12 001227   200042 757100                    STAQ    I+2,,AUTO
        12 001230   200042 630500                    EPPR0   I+2,,AUTO
        12 001231   000022 631400 xsym               EPPR1   B_VECTNIL+18
        12 001232   000000 701000 xent               TSX1    VPD$ROUND_DATE
        12 001233   000000 011000                    NOP     0

     1274     9731    4                  DO WHILE ('0'B);

   9731 12 001234   001237 710000 12                 TRA     s:9734

     1275     9732    4   NEXPR:            CONTROL_DATE = BITBIN('777777777777'O); /* NEVER EXPIRE     */

   9732 12 001235   000027 235000 xsym  NEXPR        LDA     B_VECTNIL+23
        12 001236   000016 755000 11                 STA     CONTROL_DATE

     1276     9733    4                     END;

     1277     9734    4                  DO CASE(ICB.DATE.RELATION);

PL6.E3A0      #004=VPF$OPEN_NEXT File=VPF$SRCLST.:E05TSI                         WED 07/30/97 07:37 Page:229
   9734 12 001237   000162 235000 xsym               LDA     ICB+114
        12 001240   000007 115007                    CMPA    7,DL
        12 001241   001243 602005 12                 TNC     s:9734+4,AL
        12 001242   001307 710000 12                 TRA     NO_CODE4
        12 001243   001307 710000 12                 TRA     NO_CODE4
        12 001244   001252 710000 12                 TRA     s:9736
        12 001245   001257 710000 12                 TRA     s:9740
        12 001246   001264 710000 12                 TRA     s:9744
        12 001247   001271 710000 12                 TRA     s:9748
        12 001250   001276 710000 12                 TRA     s:9752
        12 001251   001303 710000 12                 TRA     s:9756

     1278     9735    4                   CASE(1);                /* CONTROL_DATE < ICB.DATE.UTS        */

     1279     9736    4                     IF CONTROL_DATE >= ICB.DATE.UTS

   9736 12 001252   000016 236000 11                 LDQ     CONTROL_DATE
        12 001253   000163 116000 xsym               CMPQ    ICB+115
        12 001254   001307 602000 12                 TNC     NO_CODE4

     1280     9737    4                      THEN
     1281     9738    4                        FILE_FOUND = 0;

   9738 12 001255   200027 450100                    STZ     FILE_FOUND,,AUTO
        12 001256   001307 710000 12                 TRA     NO_CODE4

     1282     9739    4                   CASE(2);                /* CONTROL_DATE = ICB.DATE.UTS        */

     1283     9740    4                     IF CONTROL_DATE ~= ICB.DATE.UTS

   9740 12 001257   000016 236000 11                 LDQ     CONTROL_DATE
        12 001260   000163 116000 xsym               CMPQ    ICB+115
        12 001261   001307 600000 12                 TZE     NO_CODE4

     1284     9741    4                      THEN
     1285     9742    4                        FILE_FOUND = 0;

PL6.E3A0      #004=VPF$OPEN_NEXT File=VPF$SRCLST.:E05TSI                         WED 07/30/97 07:37 Page:230
   9742 12 001262   200027 450100                    STZ     FILE_FOUND,,AUTO
        12 001263   001307 710000 12                 TRA     NO_CODE4

     1286     9743    4                   CASE(3);                /* CONTROL_DATE > ICB.DATE.UTS        */

     1287     9744    4                     IF CONTROL_DATE <= ICB.DATE.UTS

   9744 12 001264   000163 236000 xsym               LDQ     ICB+115
        12 001265   000016 116000 11                 CMPQ    CONTROL_DATE
        12 001266   001307 602000 12                 TNC     NO_CODE4

     1288     9745    4                      THEN
     1289     9746    4                        FILE_FOUND = 0;

   9746 12 001267   200027 450100                    STZ     FILE_FOUND,,AUTO
        12 001270   001307 710000 12                 TRA     NO_CODE4

     1290     9747    4                   CASE(4);                /* CONTROL_DATE <= ICB.DATE.UTS       */

     1291     9748    4                     IF CONTROL_DATE > ICB.DATE.UTS

   9748 12 001271   000163 236000 xsym               LDQ     ICB+115
        12 001272   000016 116000 11                 CMPQ    CONTROL_DATE
        12 001273   001307 603000 12                 TRC     NO_CODE4

     1292     9749    4                      THEN
     1293     9750    4                        FILE_FOUND = 0;

   9750 12 001274   200027 450100                    STZ     FILE_FOUND,,AUTO
        12 001275   001307 710000 12                 TRA     NO_CODE4

     1294     9751    4                   CASE(5);                /* CONTROL_DATE ~= ICB.DATE.UTS       */

     1295     9752    4                     IF CONTROL_DATE = ICB.DATE.UTS

   9752 12 001276   000016 236000 11                 LDQ     CONTROL_DATE
        12 001277   000163 116000 xsym               CMPQ    ICB+115
PL6.E3A0      #004=VPF$OPEN_NEXT File=VPF$SRCLST.:E05TSI                         WED 07/30/97 07:37 Page:231
        12 001300   001307 601000 12                 TNZ     NO_CODE4

     1296     9753    4                      THEN
     1297     9754    4                        FILE_FOUND = 0;

   9754 12 001301   200027 450100                    STZ     FILE_FOUND,,AUTO
        12 001302   001307 710000 12                 TRA     NO_CODE4

     1298     9755    4                   CASE(6);                /* CONTROL_DATE >= ICB.DATE.UTS       */

     1299     9756    4                     IF CONTROL_DATE < ICB.DATE.UTS

   9756 12 001303   000016 236000 11                 LDQ     CONTROL_DATE
        12 001304   000163 116000 xsym               CMPQ    ICB+115
        12 001305   001307 603000 12                 TRC     NO_CODE4

     1300     9757    4                      THEN
     1301     9758    4                        FILE_FOUND = 0;

   9758 12 001306   200027 450100                    STZ     FILE_FOUND,,AUTO

     1302     9759    4                   END;                    /* END CASE                           */

     1303     9760    3                  END;

     1304     9761    2   NO_CODE4:  IF FILE_FOUND=0 AND M$EI$->F$DCB.FCD

   9761 12 001307   200027 235100       NO_CODE4     LDA     FILE_FOUND,,AUTO
        12 001310   001321 601000 12                 TNZ     s:9764
        12 001311   000000 470400 xsym               LDP0    M$EI$
        12 001312   000031 236100                    LDQ     25,,PR0
        12 001313   020000 316007                    CANQ    8192,DL
        12 001314   001321 600000 12                 TZE     s:9764

     1305     9762    2               THEN
     1306     9763    2                 CALL VPF$CLOSE_IN(1);     /* CLOSE UNWANTED FILE                */

PL6.E3A0      #004=VPF$OPEN_NEXT File=VPF$SRCLST.:E05TSI                         WED 07/30/97 07:37 Page:232
   9763 12 001315   000000 630400 13                 EPPR0   0
        12 001316   000017 631400 xsym               EPPR1   B_VECTNIL+15
        12 001317   000000 701000 xent               TSX1    VPF$CLOSE_IN
        12 001320   000000 011000                    NOP     0

     1307     9764    2              END;                         /* END WHILE                          */

   9764 12 001321   200027 235100                    LDA     FILE_FOUND,,AUTO
        12 001322   001325 601000 12                 TNZ     s:9769
        12 001323   000005 236000 11                 LDQ     NO_MORE_FILES
        12 001324   000072 600000 12                 TZE     s:9424

     1308     9765        %EJECT;
PL6.E3A0      #004=VPF$OPEN_NEXT File=VPF$SRCLST.:E05TSI                         WED 07/30/97 07:37 Page:233
     1309     9766        /**/
     1310     9767        /*  Either we have a file, or this spec is exhausted.  */
     1311     9768        /**/
     1312     9769    1           IF FILE_FOUND = 1

   9769 12 001325   000001 115007                    CMPA    1,DL
        12 001326   001373 601000 12                 TNZ     s:9800

     1313     9770    1            THEN
     1314     9771    2            DO;                            /* We have a file that we KNOW we     */

     1315     9772                                                /* want.  Make sure that this good    */
     1316     9773                                                /* file will WORK with our input      */
     1317     9774                                                /* options.                           */
     1318     9775    2               I = 0;                      /* No errors, yet                     */

   9775 12 001327   200032 450100                    STZ     I,,AUTO

     1319     9776    2               IF ICB.KEY_SEL

   9776 12 001330   000045 234000 xsym               SZN     ICB+37
        12 001331   001341 605000 12                 TPL     s:9786
        12 001332   000172 236000 xsym               LDQ     ICB+122
        12 001333   000100 316003                    CANQ    64,DU
        12 001334   001341 601000 12                 TNZ     s:9786
        12 001335   200026 235100                    LDA     NO_ACCESS,,AUTO
        12 001336   001341 601000 12                 TNZ     s:9786

     1320     9777    2                 AND NOT ICB.FLAVOR.KEY_USABLE
     1321     9778    2                 AND NO_ACCESS = 0
     1322     9779    2                THEN
     1323     9780    2                  I = 30;

   9780 12 001337   000036 235007                    LDA     30,DL
        12 001340   200032 755100                    STA     I,,AUTO

     1324     9781        /*E*   ERROR: VPF-00030
PL6.E3A0      #004=VPF$OPEN_NEXT File=VPF$SRCLST.:E05TSI                         WED 07/30/97 07:37 Page:234
     1325     9782             MESSAGE: Record selection by key won't work% on %UF%.
     1326     9783            MESSAGE1: Input file% %UF% has an ORG that does not permit
     1327     9784                      record selection by key.
     1328     9785        */
     1329     9786    2               IF I > 0

   9786 12 001341   200032 235100                    LDA     I,,AUTO
        12 001342   001373 604400 12                 TMOZ    s:9800

     1330     9787    2                THEN                       /* This file DOES clash with options  */
     1331     9788    3                DO;

     1332     9789    3                   IF M$EI$ -> F$DCB.FCD

   9789 12 001343   000000 470400 xsym               LDP0    M$EI$
        12 001344   000031 236100                    LDQ     25,,PR0
        12 001345   020000 316007                    CANQ    8192,DL
        12 001346   001353 600000 12                 TZE     s:9792

     1333     9790    3                    THEN                   /* Gotta close the file               */
     1334     9791    3                      CALL VPF$CLOSE_IN(1);

   9791 12 001347   000000 630400 13                 EPPR0   0
        12 001350   000017 631400 xsym               EPPR1   B_VECTNIL+15
        12 001351   000000 701000 xent               TSX1    VPF$CLOSE_IN
        12 001352   000000 011000                    NOP     0

     1335     9792    3                   CALL VPL$ERR_PROC(2,I,'06'O,,,,M$EI#);

   9792 12 001353   000031 236000 13                 LDQ     25
        12 001354   200050 756100                    STQ     I+8,,AUTO
        12 001355   000001 236000 xsym               LDQ     B_VECTNIL+1
        12 001356   000001 235000 xsym               LDA     B_VECTNIL+1
        12 001357   200046 757100                    STAQ    I+6,,AUTO
        12 001360   000001 236000 xsym               LDQ     B_VECTNIL+1
        12 001361   000027 235000 13                 LDA     23
        12 001362   200044 757100                    STAQ    I+4,,AUTO
PL6.E3A0      #004=VPF$OPEN_NEXT File=VPF$SRCLST.:E05TSI                         WED 07/30/97 07:37 Page:235
        12 001363   200032 630500                    EPPR0   I,,AUTO
        12 001364   200043 450500                    STP0    I+3,,AUTO
        12 001365   000036 236000 13                 LDQ     30
        12 001366   200042 756100                    STQ     I+2,,AUTO
        12 001367   200042 630500                    EPPR0   I+2,,AUTO
        12 001370   000025 631400 xsym               EPPR1   B_VECTNIL+21
        12 001371   000000 701000 xent               TSX1    VPL$ERR_PROC
        12 001372   000000 011000                    NOP     0

     1336     9793    3                   END;

     1337     9794    2               END;

     1338     9795        %EJECT;
PL6.E3A0      #004=VPF$OPEN_NEXT File=VPF$SRCLST.:E05TSI                         WED 07/30/97 07:37 Page:236
     1339     9796        /**/
     1340     9797        /*  Either we have a file and the world is fine, OR the input spec            */
     1341     9798        /*  is exhausted.                                                             */
     1342     9799        /**/
     1343     9800    1           IF FILE_FOUND=0

   9800 12 001373   200027 235100                    LDA     FILE_FOUND,,AUTO
        12 001374   001401 601000 12                 TNZ     s:9804

     1344     9801    1            THEN                           /* No more files this spec            */
     1345     9802    1              RET_VAL = %VPOC_EXHAUSTED#;

   9802 12 001375   000001 236007                    LDQ     1,DL
        12 001376   200003 470500                    LDP0    @RET_VAL,,AUTO
        12 001377   000000 756100                    STQ     0,,PR0
        12 001400   001441 710000 12                 TRA     s:9818

     1346     9803    1            ELSE
     1347     9804    1              IF NO_ACCESS=0

   9804 12 001401   200026 236100                    LDQ     NO_ACCESS,,AUTO
        12 001402   001406 601000 12                 TNZ     s:9811

     1348     9805    1               THEN                   /* All fine.  OPENed or TOPENed on M$EI    */
     1349     9806    2               DO;

     1350     9807    2                  RET_VAL = %VPOC_GOTFILE#;

   9807 12 001403   200003 470500                    LDP0    @RET_VAL,,AUTO
        12 001404   000000 450100                    STZ     0,,PR0

     1351     9808    2                  END;

   9808 12 001405   001441 710000 12                 TRA     s:9818

     1352     9809    1               ELSE                        /* FILE POSSIBLY FOUND BUT ACCESS     */
     1353     9810                                                /* DENIED.                            */
PL6.E3A0      #004=VPF$OPEN_NEXT File=VPF$SRCLST.:E05TSI                         WED 07/30/97 07:37 Page:237
     1354     9811    1                 IF CMD_MASK & '000700002'O

   9811 12 001406   000012 235000 10                 LDA     ABORT_SOURCE_ERR+6
        12 001407   000000 236003                    LDQ     0,DU
        12 001410   200042 757100                    STAQ    I+2,,AUTO
        12 001411   000100 100400                    MLR     fill='000'O
        12 001412   000000 000010 xsym               ADSC9   CMD_MASK                 cn=0,n=8
        12 001413   200044 000010                    ADSC9   I+4,,AUTO                cn=0,n=8
        12 001414   200044 237100                    LDAQ    I+4,,AUTO
        12 001415   200042 377100                    ANAQ    I+2,,AUTO
        12 001416   001423 600000 12                 TZE     s:9816

     1355     9812                                                /* LIST, LISTSTD, REVIEW, REVIEWSTD   */
     1356     9813    1                  THEN
     1357     9814    1                    RET_VAL = %VPOC_NOACCESS#;

   9814 12 001417   000002 235007                    LDA     2,DL
        12 001420   200003 470500                    LDP0    @RET_VAL,,AUTO
        12 001421   000000 755100                    STA     0,,PR0
        12 001422   001441 710000 12                 TRA     s:9818

     1358     9815    1                  ELSE
     1359     9816    1                    CALL VPL$ERR_PROC(2,0,,INPUT_ERR,,,M$EI#); /* Abort step     */

   9816 12 001423   000031 236000 13                 LDQ     25
        12 001424   200050 756100                    STQ     I+8,,AUTO
        12 001425   000001 236000 xsym               LDQ     B_VECTNIL+1
        12 001426   000001 235000 xsym               LDA     B_VECTNIL+1
        12 001427   200046 757100                    STAQ    I+6,,AUTO
        12 001430   000034 236000 13                 LDQ     28
        12 001431   000001 235000 xsym               LDA     B_VECTNIL+1
        12 001432   200044 757100                    STAQ    I+4,,AUTO
        12 001433   000036 237000 13                 LDAQ    30
        12 001434   200042 757100                    STAQ    I+2,,AUTO
        12 001435   200042 630500                    EPPR0   I+2,,AUTO
        12 001436   000025 631400 xsym               EPPR1   B_VECTNIL+21
        12 001437   000000 701000 xent               TSX1    VPL$ERR_PROC
PL6.E3A0      #004=VPF$OPEN_NEXT File=VPF$SRCLST.:E05TSI                         WED 07/30/97 07:37 Page:238
        12 001440   000000 011000                    NOP     0

     1360     9817                                                /* REPORT AND ABORT STEP              */
     1361     9818    1           GOTO GOT_DISPOSITION;

   9818 12 001441   001622 710000 12                 TRA     GOT_DISPOSITION

     1362     9819        %EJECT;
PL6.E3A0      #004=VPF$OPEN_NEXT File=VPF$SRCLST.:E05TSI                         WED 07/30/97 07:37 Page:239
     1363     9820    1   EI_OPEN_ALT:
     1364     9821    1           IF ICB.DEV_MASK & '30'O         /* Managed tape or disk               */

   9821 12 001442   000171 236000 xsym  EI_OPEN_ALT  LDQ     ICB+121
        12 001443   777000 376003                    ANQ     -512,DU
        12 001444   300000 376003                    ANQ     98304,DU
        12 001445   001454 600000 12                 TZE     s:9827

     1365     9822    1            THEN
     1366     9823    2            DO;

     1367     9824    2               DIN_NAME.LEN = M$EI$ -> F$DCB.NAME.L;

   9824 12 001446   000000 470400 xsym               LDP0    M$EI$
        12 001447   000010 236100                    LDQ     8,,PR0
        12 001450   000000 552040 xsym               STBQ    DIN_NAME,'40'O

     1368     9825    2               DIN_NAME.STRING = M$EI$ -> F$DCB.NAME.C;

   9825 12 001451   040000 100500                    MLR     fill='040'O
        12 001452   000010 200037                    ADSC9   8,,PR0                   cn=1,n=31
        12 001453   000000 200037 xsym               ADSC9   DIN_NAME                 cn=1,n=31

     1369     9826    2               END;

     1370     9827    1           IF ICB.DEV_MASK.DEV_TAPE

   9827 12 001454   000171 236000 xsym               LDQ     ICB+121
        12 001455   040000 316003                    CANQ    16384,DU
        12 001456   001472 600000 12                 TZE     s:9834

     1371     9828    1            THEN                           /* Construct NAME from FSN            */
     1372     9829    2            DO;

     1373     9830    2               CALL BINCHAR(CHAR_4,CUR_FT_FSN);

   9830 12 001457   000100 301400                    BTD
PL6.E3A0      #004=VPF$OPEN_NEXT File=VPF$SRCLST.:E05TSI                         WED 07/30/97 07:37 Page:240
        12 001460   000004 000004 11                 NDSC9   CUR_FT_FSN               cn=0,s=lsgnf,sf=0,n=4
        12 001461   200033 030004                    NDSC9   CHAR_4,,AUTO             cn=0,s=nosgn,sf=0,n=4

     1374     9831    2               CALL CONCAT(DIN_NAME.STRING,'FSN_',CHAR_4);

   9831 12 001462   040000 100400                    MLR     fill='040'O
        12 001463   000011 000004 10                 ADSC9   ABORT_SOURCE_ERR+5       cn=0,n=4
        12 001464   000000 200004 xsym               ADSC9   DIN_NAME                 cn=1,n=4
        12 001465   040000 100500                    MLR     fill='040'O
        12 001466   200033 000004                    ADSC9   CHAR_4,,AUTO             cn=0,n=4
        12 001467   000001 200033 xsym               ADSC9   DIN_NAME+1               cn=1,n=27

     1375     9832    2               DIN_NAME.LEN = 4 + 4;

   9832 12 001470   010000 236003                    LDQ     4096,DU
        12 001471   000000 552040 xsym               STBQ    DIN_NAME,'40'O

     1376     9833    2               END;

     1377     9834    1           IF INPUT_ERR.ERR# = %E$FDEOF OR INPUT_ERR.ERR# = %E$EOSET

   9834 12 001472   000000 236000 xsym               LDQ     INPUT_ERR
        12 001473   377770 376007                    ANQ     131064,DL
        12 001474   001540 116007                    CMPQ    864,DL
        12 001475   001500 600000 12                 TZE     s:9837
        12 001476   013140 116007                    CMPQ    5728,DL
        12 001477   001504 601000 12                 TNZ     s:9840

     1378     9835    1            THEN
     1379     9836    2            DO;

     1380     9837    2               RET_VAL = %VPOC_EXHAUSTED#;

   9837 12 001500   000001 235007                    LDA     1,DL
        12 001501   200003 470500                    LDP0    @RET_VAL,,AUTO
        12 001502   000000 755100                    STA     0,,PR0

PL6.E3A0      #004=VPF$OPEN_NEXT File=VPF$SRCLST.:E05TSI                         WED 07/30/97 07:37 Page:241
     1381     9838    2               GOTO GOT_DISPOSITION;

   9838 12 001503   001622 710000 12                 TRA     GOT_DISPOSITION

     1382     9839    2               END;
     1383     9840    1           IF INPUT_ERR.ERR# = %E$NOACCESS /* ACCESS DENIED                      */

   9840 12 001504   001640 116007                    CMPQ    928,DL
        12 001505   001512 600000 12                 TZE     s:9845
        12 001506   001600 116007                    CMPQ    896,DL
        12 001507   001512 600000 12                 TZE     s:9845
        12 001510   013010 116007                    CMPQ    5640,DL
        12 001511   001516 601000 12                 TNZ     s:9849

     1384     9841    1             OR INPUT_ERR.ERR# = %E$INVSTAR /* NOT ACCESSIBLE FROM YOUR DOMAIN   */
     1385     9842    1             OR INPUT_ERR.ERR# = %E$NORESTRICT /* NO ACCESS TO ORG=RESTRICT FILE */
     1386     9843    1            THEN
     1387     9844    2            DO;                            /* POSSIBLY NOT A SELECTED FILE       */

     1388     9845    2               NO_ACCESS = 1;              /* SO SET FLAG AND GO FIND OUT        */

   9845 12 001512   000001 235007                    LDA     1,DL
        12 001513   200026 755100                    STA     NO_ACCESS,,AUTO

     1389     9846    2               FPARAM_BUF(0) = 0;          /* In case FM put a directory FIT     */

   9846 12 001514   000000 450000 xsym               STZ     FPARAM_BUF

     1390     9847    2               GOTO NO_ACC_CONT;

   9847 12 001515   000517 710000 12                 TRA     NO_ACC_CONT

     1391     9848    2               END;
     1392     9849    1           IF INPUT_ERR.ERR# = %E$MNTBRK AND BREAKS = 0

   9849 12 001516   012200 116007                    CMPQ    5248,DL
        12 001517   001522 601000 12                 TNZ     s:9852
PL6.E3A0      #004=VPF$OPEN_NEXT File=VPF$SRCLST.:E05TSI                         WED 07/30/97 07:37 Page:242
        12 001520   000000 235000 xsym               LDA     BREAKS
        12 001521   000306 600000 12                 TZE     OPEN_IT

     1393     9850    1            THEN
     1394     9851    1              GOTO OPEN_IT;                /* CNTL-Y,GO                          */
     1395     9852    1           IF ICB.SPEC_TYPE=1 OR ICB.SPEC_TYPE=7

   9852 12 001522   000017 235000 xsym               LDA     ICB+15
        12 001523   000001 115007                    CMPA    1,DL
        12 001524   001527 600000 12                 TZE     s:9854
        12 001525   000007 115007                    CMPA    7,DL
        12 001526   001531 601000 12                 TNZ     s:9859

     1396     9853    1            THEN                           /* SINGLE FILE SPECS                  */
     1397     9854    1              NO_MORE_FILES = 1;

   9854 12 001527   000001 235007                    LDA     1,DL
        12 001530   000005 755000 11                 STA     NO_MORE_FILES

     1398     9855    1            ELSE;
     1399     9856    2           DO;

     1400     9857                                                /* CHECK IF THIS ERROR IS SEVERE      */
     1401     9858                                                /* ENOUGH TO ABORT THIS SOURCE        */
     1402     9859    2              I = 0;

   9859 12 001531   200032 450100                    STZ     I,,AUTO

     1403     9860    3              DO WHILE(ABORT_SOURCE_ERR(I) ~= 0 AND NO_MORE_FILES = 0);

   9860 12 001532   001553 710000 12                 TRA     s:9866

     1404     9861    3                 IF ABORT_SOURCE_ERR(I) = INPUT_ERR.ERR#

   9861 12 001533   000000 236000 xsym               LDQ     INPUT_ERR
        12 001534   000003 772000                    QRL     3
        12 001535   037777 376007                    ANQ     16383,DL
PL6.E3A0      #004=VPF$OPEN_NEXT File=VPF$SRCLST.:E05TSI                         WED 07/30/97 07:37 Page:243
        12 001536   200042 756100                    STQ     I+2,,AUTO
        12 001537   200032 235100                    LDA     I,,AUTO
        12 001540   000001 735000                    ALS     1
        12 001541   000100 101405                    MRL     fill='000'O
        12 001542   000004 000002 10                 ADSC9   ABORT_SOURCE_ERR,A       cn=0,n=2
        12 001543   200043 000004                    ADSC9   I+3,,AUTO                cn=0,n=4
        12 001544   200043 236100                    LDQ     I+3,,AUTO
        12 001545   200042 116100                    CMPQ    I+2,,AUTO
        12 001546   001552 601000 12                 TNZ     s:9865

     1405     9862    3                  THEN
     1406     9863    3                    NO_MORE_FILES = 1;

   9863 12 001547   000001 236007                    LDQ     1,DL
        12 001550   000005 756000 11                 STQ     NO_MORE_FILES
        12 001551   001553 710000 12                 TRA     s:9866

     1407     9864    3                  ELSE
     1408     9865    3                    I = I+1;

   9865 12 001552   200032 054100                    AOS     I,,AUTO

     1409     9866    3                 END;

   9866 12 001553   200032 235100                    LDA     I,,AUTO
        12 001554   000001 735000                    ALS     1
        12 001555   000100 101405                    MRL     fill='000'O
        12 001556   000004 000002 10                 ADSC9   ABORT_SOURCE_ERR,A       cn=0,n=2
        12 001557   200042 000004                    ADSC9   I+2,,AUTO                cn=0,n=4
        12 001560   200042 236100                    LDQ     I+2,,AUTO
        12 001561   000000 116003                    CMPQ    0,DU
        12 001562   001565 600000 12                 TZE     s:9867
        12 001563   000005 235000 11                 LDA     NO_MORE_FILES
        12 001564   001533 600000 12                 TZE     s:9861

     1410     9867    2              IF BAD_FILE_NAME = ADDR(DIN_NAME) -> TEXT$C.STRING

PL6.E3A0      #004=VPF$OPEN_NEXT File=VPF$SRCLST.:E05TSI                         WED 07/30/97 07:37 Page:244
   9867 12 001565   000000 236000 xsym               LDQ     DIN_NAME
        12 001566   000033 772000                    QRL     27
        12 001567   000000 620006                    EAX0    0,QL
        12 001570   040040 106400                    CMPC    fill='040'O
        12 001571   000006 000037 11                 ADSC9   BAD_FILE_NAME            cn=0,n=31
        12 001572   000000 200010 xsym               ADSC9   DIN_NAME                 cn=1,n=*X0
        12 001573   001600 601000 12                 TNZ     s:9874

     1411     9868    2               THEN                        /* second hit of repeating error      */
     1412     9869    3               DO;

     1413     9870    3                  RET_VAL = %VPOC_EXHAUSTED#;

   9870 12 001574   000001 235007                    LDA     1,DL
        12 001575   200003 470500                    LDP0    @RET_VAL,,AUTO
        12 001576   000000 755100                    STA     0,,PR0

     1414     9871    3                  GOTO GOT_DISPOSITION;

   9871 12 001577   001622 710000 12                 TRA     GOT_DISPOSITION

     1415     9872    3                  END;
     1416     9873    2               ELSE
     1417     9874    2                 BAD_FILE_NAME = ADDR(DIN_NAME) -> TEXT$C.STRING;

   9874 12 001600   040000 100440                    MLR     fill='040'O
        12 001601   000000 200010 xsym               ADSC9   DIN_NAME                 cn=1,n=*X0
        12 001602   000006 000037 11                 ADSC9   BAD_FILE_NAME            cn=0,n=31

     1418     9875    2              END;

     1419     9876    1           CALL VPL$ERR_PROC(2,0,,INPUT_ERR,,,M$EI#); /* ABORT STEP ERROR        */

   9876 12 001603   000031 236000 13                 LDQ     25
        12 001604   200050 756100                    STQ     I+8,,AUTO
        12 001605   000001 236000 xsym               LDQ     B_VECTNIL+1
        12 001606   000001 235000 xsym               LDA     B_VECTNIL+1
PL6.E3A0      #004=VPF$OPEN_NEXT File=VPF$SRCLST.:E05TSI                         WED 07/30/97 07:37 Page:245
        12 001607   200046 757100                    STAQ    I+6,,AUTO
        12 001610   000034 236000 13                 LDQ     28
        12 001611   000001 235000 xsym               LDA     B_VECTNIL+1
        12 001612   200044 757100                    STAQ    I+4,,AUTO
        12 001613   000036 237000 13                 LDAQ    30
        12 001614   200042 757100                    STAQ    I+2,,AUTO
        12 001615   200042 630500                    EPPR0   I+2,,AUTO
        12 001616   000025 631400 xsym               EPPR1   B_VECTNIL+21
        12 001617   000000 701000 xent               TSX1    VPL$ERR_PROC
        12 001620   000000 011000                    NOP     0

     1420     9877                                                /* JUST ABORT THE STEP                */
     1421     9878    1           GOTO GOT_DISPOSITION;

   9878 12 001621   001622 710000 12                 TRA     GOT_DISPOSITION

   9867 12 001622                       GOT_DISPOSI* null
     1422     9879        /**/
     1423     9880        /**/
     1424     9881        /**/
     1425     9882    1   GOT_DISPOSITION: ;
     1426     9883        /**/
     1427     9884        /*  We come here when VPF$OPEN_NEXT is at last ready to return to the         */
     1428     9885        /*  caller.  By now, we either have a file in our grubby little paws,         */
     1429     9886        /*  or know the reason why not!                                               */
     1430     9887        /**/
     1431     9888        %EJECT;
PL6.E3A0      #004=VPF$OPEN_NEXT File=VPF$SRCLST.:E05TSI                         WED 07/30/97 07:37 Page:246
     1432     9889        /**/
     1433     9890        /*  This code implements the hook for file selection in SORTED order.         */
     1434     9891        /**/
     1435     9892    1           IF NOT SORTING_INPUT

   9892 12 001622   000000 234000 xsym               SZN     SORTING_INPUT
        12 001623   001703 605000 12                 TPL     SORTING_DONE

     1436     9893    1            THEN
     1437     9894    1              GOTO SORTING_DONE;
     1438     9895    1           IF RET_VAL ~= %VPOC_EXHAUSTED#

   9895 12 001624   200003 470500                    LDP0    @RET_VAL,,AUTO
        12 001625   000000 235100                    LDA     0,,PR0
        12 001626   000001 115007                    CMPA    1,DL
        12 001627   001636 600000 12                 TZE     s:9903

     1439     9896    1            THEN
     1440     9897    2            DO;

     1441     9898    2               CALL VPF$SORT_FID (2);

   9898 12 001630   000036 630400 13                 EPPR0   30
        12 001631   000017 631400 xsym               EPPR1   B_VECTNIL+15
        12 001632   000000 701000 xent               TSX1    VPF$SORT_FID
        12 001633   000000 011000                    NOP     0

     1442     9899    2               FILE_FOUND = 0;

   9899 12 001634   200027 450100                    STZ     FILE_FOUND,,AUTO

     1443     9900    2               GOTO PLAY_IT_AGAIN;

   9900 12 001635   000071 710000 12                 TRA     PLAY_IT_AGAIN

     1444     9901    2               END;
     1445     9902    1            ELSE
PL6.E3A0      #004=VPF$OPEN_NEXT File=VPF$SRCLST.:E05TSI                         WED 07/30/97 07:37 Page:247
     1446     9903    1              CALL VPF$SORT_FID (3);

   9903 12 001636   000025 630400 13                 EPPR0   21
        12 001637   000017 631400 xsym               EPPR1   B_VECTNIL+15
        12 001640   000000 701000 xent               TSX1    VPF$SORT_FID
        12 001641   000000 011000                    NOP     0

   9895 12 001642                       REPLAY_SORT* null
     1447     9904        /**/
     1448     9905    1   REPLAY_SORTED: ;
     1449     9906    1           CALL VPF$SORT_FID (4,SORT_STATUS);

   9906 12 001642   200030 630500                    EPPR0   SORT_STATUS,,AUTO
        12 001643   200043 450500                    STP0    I+3,,AUTO
        12 001644   000043 236000 13                 LDQ     35
        12 001645   200042 756100                    STQ     I+2,,AUTO
        12 001646   200042 630500                    EPPR0   I+2,,AUTO
        12 001647   000020 631400 xsym               EPPR1   B_VECTNIL+16
        12 001650   000000 701000 xent               TSX1    VPF$SORT_FID
        12 001651   000000 011000                    NOP     0

     1450     9907    2           DO CASE(SORT_STATUS);

   9907 12 001652   200030 235100                    LDA     SORT_STATUS,,AUTO
        12 001653   000003 115007                    CMPA    3,DL
        12 001654   001656 602005 12                 TNC     s:9907+4,AL
        12 001655   001703 710000 12                 TRA     SORTING_DONE
        12 001656   001661 710000 12                 TRA     s:9909
        12 001657   001666 710000 12                 TRA     s:9912
        12 001660   001672 710000 12                 TRA     s:9914

     1451     9908    2            CASE(%VPOC_GOTFILE#);

     1452     9909    2              RET_VAL = %VPOC_GOTFILE#;

   9909 12 001661   200003 470500                    LDP0    @RET_VAL,,AUTO
        12 001662   000000 450100                    STZ     0,,PR0
PL6.E3A0      #004=VPF$OPEN_NEXT File=VPF$SRCLST.:E05TSI                         WED 07/30/97 07:37 Page:248

     1453     9910    2              CALL TWIDDLE_AFTER_OPEN;

   9910 12 001663   001704 701000 12                 TSX1    TWIDDLE_AFTER_OPEN
        12 001664   000000 011000                    NOP     0
        12 001665   001703 710000 12                 TRA     SORTING_DONE

     1454     9911    2            CASE(%VPOC_EXHAUSTED#);

     1455     9912    2              RET_VAL = %VPOC_EXHAUSTED#;

   9912 12 001666   000001 236007                    LDQ     1,DL
        12 001667   200003 470500                    LDP0    @RET_VAL,,AUTO
        12 001670   000000 756100                    STQ     0,,PR0
        12 001671   001703 710000 12                 TRA     SORTING_DONE

     1456     9913    2            CASE(%VPOC_NOACCESS#);

     1457     9914    2              RET_VAL = %VPOC_NOACCESS#;

   9914 12 001672   000002 236007                    LDQ     2,DL
        12 001673   200003 470500                    LDP0    @RET_VAL,,AUTO
        12 001674   000000 756100                    STQ     0,,PR0

     1458     9915    2              DIN_NAME.LEN = M$EI$ -> F$DCB.NAME.L;

   9915 12 001675   000000 471400 xsym               LDP1    M$EI$
        12 001676   100010 236100                    LDQ     8,,PR1
        12 001677   000000 552040 xsym               STBQ    DIN_NAME,'40'O

     1459     9916    2              DIN_NAME.STRING = M$EI$ -> F$DCB.NAME.C;

   9916 12 001700   040000 100500                    MLR     fill='040'O
        12 001701   100010 200037                    ADSC9   8,,PR1                   cn=1,n=31
        12 001702   000000 200037 xsym               ADSC9   DIN_NAME                 cn=1,n=31

     1460     9917    2            END;
PL6.E3A0      #004=VPF$OPEN_NEXT File=VPF$SRCLST.:E05TSI                         WED 07/30/97 07:37 Page:249

   9916 12 001703                       SORTING_DONE null
     1461     9918    1   SORTING_DONE: ;
     1462     9919        /**/
     1463     9920    1           RETURN;

   9920 12 001703   000000 702200 xent               TSX2  ! X66_ARET

     1464     9921        %EJECT;
PL6.E3A0      #004=VPF$OPEN_NEXT File=VPF$SRCLST.:E05TSI                         WED 07/30/97 07:37 Page:250
     1465     9922    1   TWIDDLE_AFTER_OPEN: PROC;

   9922 12 001704   200036 741300       TWIDDLE_AFT* STX1  ! CODE$+1,,AUTO

     1466     9923        /**/
     1467     9924        /*  This PROC is used after opening M$EI.  It sets up some items that         */
     1468     9925        /*  will be used later.                                                       */
     1469     9926        /**/
     1470     9927    2           CALL SET_FLAVOR;

   9927 12 001705   001763 701000 12                 TSX1    SET_FLAVOR
        12 001706   000000 011000                    NOP     0

     1471     9928    2           IF ICB.FLAVOR.MANAGED

   9928 12 001707   000172 236000 xsym               LDQ     ICB+122
        12 001710   000010 316003                    CANQ    8,DU
        12 001711   001720 600000 12                 TZE     s:9937

     1472     9929    2            THEN
     1473     9930    3            DO;

     1474     9931    3               DIN_NAME.LEN = M$EI$ -> F$DCB.NAME.L;

   9931 12 001712   000000 470400 xsym               LDP0    M$EI$
        12 001713   000010 236100                    LDQ     8,,PR0
        12 001714   000000 552040 xsym               STBQ    DIN_NAME,'40'O

     1475     9932    3               DIN_NAME.STRING = M$EI$ -> F$DCB.NAME.C;

   9932 12 001715   040000 100500                    MLR     fill='040'O
        12 001716   000010 200037                    ADSC9   8,,PR0                   cn=1,n=31
        12 001717   000000 200037 xsym               ADSC9   DIN_NAME                 cn=1,n=31

     1476     9933    3               END;

     1477     9934        /**/
PL6.E3A0      #004=VPF$OPEN_NEXT File=VPF$SRCLST.:E05TSI                         WED 07/30/97 07:37 Page:251
     1478     9935        /*  Set up vector parts that frame the FPARAM buffer.  */
     1479     9936        /**/
     1480     9937    2           FPARAM$ = ADDR(FPARAM_BUF);

   9937 12 001720   000013 236000 13                 LDQ     11
        12 001721   000000 756000 xsym               STQ     FPARAM$

     1481     9938    2           FPARAM_BOUND = SIZEC(FPARAM_BUF) -1;

   9938 12 001722   017777 235007                    LDA     8191,DL
        12 001723   000000 755000 xsym               STA     FPARAM_BOUND

     1482     9939    2           IF M$EI$ -> F$DCB.ORG=%RESTRICT#

   9939 12 001724   000000 470400 xsym               LDP0    M$EI$
        12 001725   000032 236100                    LDQ     26,,PR0
        12 001726   777000 376003                    ANQ     -512,DU
        12 001727   022000 116003                    CMPQ    9216,DU
        12 001730   001736 601000 12                 TNZ     s:9948

     1483     9940    2            THEN                           /* 5-WORD OFFSET for this ORG!!!      */
     1484     9941    3            DO;

     1485     9942    3               FPARAM$ = PINCRW(FPARAM$,5);

   9942 12 001731   000000 236000 xsym               LDQ     FPARAM$
        12 001732   000005 036003                    ADLQ    5,DU
        12 001733   000000 756000 xsym               STQ     FPARAM$

     1486     9943    3               FPARAM_BOUND = FPARAM_BOUND -20;

   9943 12 001734   000024 336007                    LCQ     20,DL
        12 001735   000000 056000 xsym               ASQ     FPARAM_BOUND

     1487     9944    3               END;

     1488     9945        /**/
PL6.E3A0      #004=VPF$OPEN_NEXT File=VPF$SRCLST.:E05TSI                         WED 07/30/97 07:37 Page:252
     1489     9946        /*  Find out how many fields are defined.  */
     1490     9947        /**/
     1491     9948    2           ICB.NUMFIELDS = 0;

   9948 12 001736   000234 450000 xsym               STZ     ICB+156

     1492     9949    2           IF M$EI$ -> F$DCB.ORG ~= %IREL# THEN

   9949 12 001737   000032 236100                    LDQ     26,,PR0
        12 001740   777000 376003                    ANQ     -512,DU
        12 001741   015000 116003                    CMPQ    6656,DU
        12 001742   001761 601000 12                 TNZ     FIELDS_DONE

     1493     9950    2              GOTO FIELDS_DONE;
     1494     9951    2           CODE$ = FPARAM$;

   9951 12 001743   000000 236000 xsym               LDQ     FPARAM$
        12 001744   200035 756100                    STQ     CODE$,,AUTO

     1495     9952    2           CALL XSF$LOCCODP(CODE$,18) ALTRET(FIELDS_DONE);

   9952 12 001745   000053 236000 13                 LDQ     43
        12 001746   200043 756100                    STQ     I+3,,AUTO
        12 001747   200035 631500                    EPPR1   CODE$,,AUTO
        12 001750   200042 451500                    STP1    I+2,,AUTO
        12 001751   200042 630500                    EPPR0   I+2,,AUTO
        12 001752   000020 631400 xsym               EPPR1   B_VECTNIL+16
        12 001753   000000 701000 xent               TSX1    XSF$LOCCODP
        12 001754   001761 702000 12                 TSX2    FIELDS_DONE

     1496     9953    2           ICB.NUMFIELDS = CODE$ -> CODE18.NFIELDS;

   9953 12 001755   200035 470500                    LDP0    CODE$,,AUTO
        12 001756   000000 236100                    LDQ     0,,PR0
        12 001757   000032 376000 xsym               ANQ     B_VECTNIL+26
        12 001760   000234 756000 xsym               STQ     ICB+156

PL6.E3A0      #004=VPF$OPEN_NEXT File=VPF$SRCLST.:E05TSI                         WED 07/30/97 07:37 Page:253
   9953 12 001761                       FIELDS_DONE  null
     1497     9954    2   FIELDS_DONE: ;
     1498     9955        /**/
     1499     9956        /*  FINIS!  */
     1500     9957        /**/
     1501     9958    2           RETURN;

   9958 12 001761   200036 221300                    LDX1  ! CODE$+1,,AUTO
        12 001762   000001 702211                    TSX2  ! 1,X1

     1502     9959    2   END TWIDDLE_AFTER_OPEN;
     1503     9960        %EJECT;
PL6.E3A0      #004=VPF$OPEN_NEXT File=VPF$SRCLST.:E05TSI                         WED 07/30/97 07:37 Page:254
     1504     9961    1   SET_FLAVOR: PROC;

   9961 12 001763   200040 741300       SET_FLAVOR   STX1  ! VOL+1,,AUTO

     1505     9962        /*I* NAME: SET_FLAVOR
     1506     9963             PURPOSE: To set up the FLAVOR mask in ICB.
     1507     9964             CALL: CALL SET_FLAVOR;
     1508     9965             DESCRIPTION: This procedure is CALLed AFTER M$OPENing M$EI.
     1509     9966                          Tests are made to set any appropriate bits in ICB.FLAVOR
     1510     9967        */
     1511     9968    2           ICB.FLAVOR = '0'B;              /* Clear out any trash bits           */

   9968 12 001764   000172 450000 xsym               STZ     ICB+122

     1512     9969    2           IF ICB.DEV_MASK & '300'O        /* Managed                            */

   9969 12 001765   000171 236000 xsym               LDQ     ICB+121
        12 001766   777000 376003                    ANQ     -512,DU
        12 001767   300000 376003                    ANQ     98304,DU
        12 001770   001773 600000 12                 TZE     s:9972

     1513     9970    2            THEN
     1514     9971    2              ICB.FLAVOR.MANAGED = '1'B;

   9971 12 001771   000010 236003                    LDQ     8,DU
        12 001772   000172 256000 xsym               ORSQ    ICB+122

     1515     9972    2           IF ICB.DEV_MASK & '140'O        /* FT/LT                              */

   9972 12 001773   000171 236000 xsym               LDQ     ICB+121
        12 001774   777000 376003                    ANQ     -512,DU
        12 001775   140000 376003                    ANQ     49152,DU
        12 001776   002001 600000 12                 TZE     s:9975

     1516     9973    2            THEN
     1517     9974    2              ICB.FLAVOR.TAPE = '1'B;

PL6.E3A0      #004=VPF$OPEN_NEXT File=VPF$SRCLST.:E05TSI                         WED 07/30/97 07:37 Page:255
   9974 12 001777   000004 236003                    LDQ     4,DU
        12 002000   000172 256000 xsym               ORSQ    ICB+122

     1518     9975    2           IF M$EI$ -> F$DCB.ORG = %UR#

   9975 12 002001   000000 470400 xsym               LDP0    M$EI$
        12 002002   000032 236100                    LDQ     26,,PR0
        12 002003   777000 376003                    ANQ     -512,DU
        12 002004   004000 116003                    CMPQ    2048,DU
        12 002005   002015 601000 12                 TNZ     s:9979
        12 002006   000004 236100                    LDQ     4,,PR0
        12 002007   000024 736000                    QLS     20
        12 002010   400000 376003                    ANQ     -131072,DU
        12 002011   400000 676003                    ERQ     -131072,DU
        12 002012   002015 600000 12                 TZE     s:9979

     1519     9976    2             AND ~M$EI$ -> F$DCB.DDEV.IC   /* AND not the user's terminal        */
     1520     9977    2            THEN
     1521     9978    2              ICB.FLAVOR.UR = '1'B;

   9978 12 002013   000002 236003                    LDQ     2,DU
        12 002014   000172 256000 xsym               ORSQ    ICB+122

     1522     9979    2           IF M$EI$ -> F$DCB.ORG ~= %CONSEC# /*  1                               */

   9979 12 002015   000032 236100                    LDQ     26,,PR0
        12 002016   777000 376003                    ANQ     -512,DU
        12 002017   001000 116003                    CMPQ    512,DU
        12 002020   002043 600000 12                 TZE     s:9990
        12 002021   017000 116003                    CMPQ    7680,DU
        12 002022   002043 600000 12                 TZE     s:9990
        12 002023   012000 116003                    CMPQ    5120,DU
        12 002024   002043 600000 12                 TZE     s:9990
        12 002025   023000 116003                    CMPQ    9728,DU
        12 002026   002043 600000 12                 TZE     s:9990
        12 002027   011000 116003                    CMPQ    4608,DU
        12 002030   002043 600000 12                 TZE     s:9990
PL6.E3A0      #004=VPF$OPEN_NEXT File=VPF$SRCLST.:E05TSI                         WED 07/30/97 07:37 Page:256
        12 002031   010000 116003                    CMPQ    4096,DU
        12 002032   002043 600000 12                 TZE     s:9990
        12 002033   021000 116003                    CMPQ    8704,DU
        12 002034   002043 600000 12                 TZE     s:9990
        12 002035   004000 116003                    CMPQ    2048,DU
        12 002036   002043 600000 12                 TZE     s:9990
        12 002037   020000 116003                    CMPQ    8192,DU
        12 002040   002043 600000 12                 TZE     s:9990

     1523     9980    2             AND M$EI$ -> F$DCB.ORG ~= %FIXED# /* 15                             */
     1524     9981    2             AND M$EI$ -> F$DCB.ORG ~= %FPRG# /* 10                              */
     1525     9982    2             AND M$EI$ -> F$DCB.ORG ~= %FREE# /* 19                              */
     1526     9983    2             AND M$EI$ -> F$DCB.ORG ~= %SYMB# /*  9                              */
     1527     9984    2             AND M$EI$ -> F$DCB.ORG ~= %TERMINAL# /*  8                          */
     1528     9985    2             AND M$EI$ -> F$DCB.ORG ~= %UNDEF# /* 17                             */
     1529     9986    2             AND M$EI$ -> F$DCB.ORG ~= %UR# /*  4                                */
     1530     9987    2             AND M$EI$ -> F$DCB.ORG ~= %VARIABLE# /* 16                          */
     1531     9988    2            THEN                           /* ORG allows KEYS to be used on READ */
     1532     9989    2              ICB.FLAVOR.KEY_USABLE = '1'B;

   9989 12 002041   000100 236003                    LDQ     64,DU
        12 002042   000172 256000 xsym               ORSQ    ICB+122

     1533     9990    2           IF M$EI$ -> F$DCB.ORG = %RANDOM# /*  3                                */

   9990 12 002043   000032 236100                    LDQ     26,,PR0
        12 002044   777000 376003                    ANQ     -512,DU
        12 002045   003000 116003                    CMPQ    1536,DU
        12 002046   002055 600000 12                 TZE     s:9995
        12 002047   007000 116003                    CMPQ    3584,DU
        12 002050   002055 600000 12                 TZE     s:9995
        12 002051   005000 116003                    CMPQ    2560,DU
        12 002052   002055 600000 12                 TZE     s:9995
        12 002053   013000 116003                    CMPQ    5632,DU
        12 002054   002057 601000 12                 TNZ     s:9996

     1534     9991    2             OR M$EI$ -> F$DCB.ORG = %IDS# /*  7                                 */
PL6.E3A0      #004=VPF$OPEN_NEXT File=VPF$SRCLST.:E05TSI                         WED 07/30/97 07:37 Page:257
     1535     9992    2             OR M$EI$ -> F$DCB.ORG = %RELATIVE# /*  5                            */
     1536     9993    2             OR M$EI$ -> F$DCB.ORG = %CG#  /* 11                                 */
     1537     9994    2            THEN                           /* ORG allows 'holes' (E$DI)          */
     1538     9995    2              ICB.FLAVOR.HOLY_ORG = '1'B;

   9995 12 002055   000020 236003                    LDQ     16,DU
        12 002056   000172 256000 xsym               ORSQ    ICB+122

     1539     9996    2           IF M$EI$ -> F$DCB.ORG = %KEYED#

   9996 12 002057   000032 236100                    LDQ     26,,PR0
        12 002060   777000 376003                    ANQ     -512,DU
        12 002061   002000 116003                    CMPQ    1024,DU
        12 002062   002067 600000 12                 TZE     s:10000
        12 002063   006000 116003                    CMPQ    3072,DU
        12 002064   002067 600000 12                 TZE     s:10000
        12 002065   015000 116003                    CMPQ    6656,DU
        12 002066   002071 601000 12                 TNZ     s:10001

     1540     9997    2             OR M$EI$ -> F$DCB.ORG = %INDEXED#
     1541     9998    2             OR M$EI$ -> F$DCB.ORG = %IREL#
     1542     9999    2            THEN                           /* PCL 'knows' about this type of key */
     1543    10000    2              ICB.FLAVOR.KNOWKEY = '1'B;

  10000 12 002067   001000 236003                    LDQ     512,DU
        12 002070   000172 256000 xsym               ORSQ    ICB+122

     1544    10001    2           IF M$EI$ -> F$DCB.ORG = %FIXED#

  10001 12 002071   000032 236100                    LDQ     26,,PR0
        12 002072   777000 376003                    ANQ     -512,DU
        12 002073   017000 116003                    CMPQ    7680,DU
        12 002074   002101 600000 12                 TZE     s:10005
        12 002075   020000 116003                    CMPQ    8192,DU
        12 002076   002101 600000 12                 TZE     s:10005
        12 002077   021000 116003                    CMPQ    8704,DU
        12 002100   002103 601000 12                 TNZ     s:10006
PL6.E3A0      #004=VPF$OPEN_NEXT File=VPF$SRCLST.:E05TSI                         WED 07/30/97 07:37 Page:258

     1545    10002    2             OR M$EI$ -> F$DCB.ORG = %VARIABLE#
     1546    10003    2             OR M$EI$ -> F$DCB.ORG = %UNDEF#
     1547    10004    2            THEN                           /* This ORG on LTs only               */
     1548    10005    2              ICB.FLAVOR.LTOORG = '1'B;

  10005 12 002101   002000 236003                    LDQ     1024,DU
        12 002102   000172 256000 xsym               ORSQ    ICB+122

     1549    10006    2           IF M$EI$ -> F$DCB.ORG = %RANDOM# /*  3                                */

  10006 12 002103   000032 236100                    LDQ     26,,PR0
        12 002104   777000 376003                    ANQ     -512,DU
        12 002105   003000 116003                    CMPQ    1536,DU
        12 002106   002113 600000 12                 TZE     s:10010
        12 002107   007000 116003                    CMPQ    3584,DU
        12 002110   002113 600000 12                 TZE     s:10010
        12 002111   013000 116003                    CMPQ    5632,DU
        12 002112   002115 601000 12                 TNZ     s:10011

     1550    10007    2             OR M$EI$ -> F$DCB.ORG = %IDS# /*  7                                 */
     1551    10008    2             OR M$EI$ -> F$DCB.ORG = %CG#  /* 11                                 */
     1552    10009    2            THEN                           /* Input granule-size records         */
     1553    10010    2              ICB.FLAVOR.GRANB = '1'B;

  10010 12 002113   000200 236003                    LDQ     128,DU
        12 002114   000172 256000 xsym               ORSQ    ICB+122

     1554    10011    2           IF ICB.DEV_MASK.DEV_TAPE

  10011 12 002115   000171 236000 xsym               LDQ     ICB+121
        12 002116   040000 316003                    CANQ    16384,DU
        12 002117   002126 600000 12                 TZE     s:10015
        12 002120   000032 236100                    LDQ     26,,PR0
        12 002121   777000 376003                    ANQ     -512,DU
        12 002122   017000 116003                    CMPQ    7680,DU
        12 002123   002126 600000 12                 TZE     s:10015
PL6.E3A0      #004=VPF$OPEN_NEXT File=VPF$SRCLST.:E05TSI                         WED 07/30/97 07:37 Page:259

     1555    10012    2             AND M$EI$ -> F$DCB.ORG ~= %FIXED# /* 15                             */
     1556    10013    2            THEN                           /* It is a FREE-FREE tape             */
     1557    10014    2              ICB.FLAVOR.FFTAPE = '1'B;

  10014 12 002124   000040 236003                    LDQ     32,DU
        12 002125   000172 256000 xsym               ORSQ    ICB+122

     1558    10015    2           RETURN;

  10015 12 002126   000001 702211                    TSX2  ! 1,X1

     1559    10016    2   END SET_FLAVOR;
     1560    10017        %EJECT;
PL6.E3A0      #004=VPF$OPEN_NEXT File=VPF$SRCLST.:E05TSI                         WED 07/30/97 07:37 Page:260
     1561    10018    1   SET_UP_START: PROC;

  10018 12 002127   200036 741300       SET_UP_START STX1  ! CODE$+1,,AUTO

     1562    10019        /*I* NAME: SET_UP_START
     1563    10020             PURPOSE: To set up the OPEN_FPT for the first open of this spec.
     1564    10021             CALL: CALL SET_UP_START;
     1565    10022             DESCRIPTION: This procedure merges the specified input options into the
     1566    10023                          fresh OPEN_FPT along with the pieces returned from M$FID.
     1567    10024                          When this procedure returns, a call to M$OPEN should open
     1568    10025                          the first file in this file spec.
     1569    10026        */
     1570    10027        %FPT_REM (FPTN = FPT_REM,
     1571    10028                  DISP = REM,
     1572    10029                  STCLASS = STATIC);
     1573    10043    2   DCL VOL UBIN WORD;
     1574    10044    2   DCL I UBIN WORD;
     1575    10045    2           FPT_OPEN_EI.V.INITZ.SCRUB# = %YES#;

  10045 12 002130   400000 236007                    LDQ     -131072,DL
        12 002131   000044 256000 xsym               ORSQ    FPT_OPEN_EI+36

     1576    10046    2           IF ICB.ORG

  10046 12 002132   000135 235000 xsym               LDA     ICB+93
        12 002133   002144 601000 12                 TNZ     s:10052
        12 002134   000150 235000 xsym               LDA     ICB+104
        12 002135   002144 605400 12                 TPNZ    s:10052
        12 002136   000162 235000 xsym               LDA     ICB+114
        12 002137   002144 601000 12                 TNZ     s:10052
        12 002140   000173 235000 xsym               LDA     ICB+123
        12 002141   002144 601000 12                 TNZ     s:10052
        12 002142   000204 235000 xsym               LDA     ICB+132
        12 002143   002147 604400 12                 TMOZ    s:10054

     1577    10047    2             OR ICB.TYPE.COUNT>0
     1578    10048    2             OR ICB.DATE.RELATION ~= 0
PL6.E3A0      #004=VPF$OPEN_NEXT File=VPF$SRCLST.:E05TSI                         WED 07/30/97 07:37 Page:261
     1579    10049    2             OR ICB.CREATOR_SEL ~= 0
     1580    10050    2             OR ICB.SORTING_ORDER.COUNT > 0
     1581    10051    2            THEN
     1582    10052    2              ICB.FPARAM_REQUIRED.FOR_SELECTION = '1'B;

  10052 12 002144   400000 236003                    LDQ     -131072,DU
        12 002145   000203 256000 xsym               ORSQ    ICB+131
        12 002146   002151 710000 12                 TRA     s:10055

     1583    10053    2            ELSE
     1584    10054    2              ICB.FPARAM_REQUIRED.FOR_SELECTION = '0'B;

  10054 12 002147   000031 236000 xsym               LDQ     B_VECTNIL+25
        12 002150   000203 356000 xsym               ANSQ    ICB+131

     1585    10055    2           IF CODE=4 OR CODE = 5

  10055 12 002151   200004 470500                    LDP0    @CODE,,AUTO
        12 002152   000000 235100                    LDA     0,,PR0
        12 002153   000004 115007                    CMPA    4,DL
        12 002154   002165 600000 12                 TZE     s:10058
        12 002155   000005 115007                    CMPA    5,DL
        12 002156   002165 600000 12                 TZE     s:10058
        12 002157   000100 100400                    MLR     fill='000'O
        12 002160   000000 000010 xsym               ADSC9   CMD_MASK                 cn=0,n=8
        12 002161   200042 000010                    ADSC9   I+2,,AUTO                cn=0,n=8
        12 002162   200042 237100                    LDAQ    I+2,,AUTO
        12 002163   000014 377000 13                 ANAQ    12
        12 002164   002170 600000 12                 TZE     s:10060

     1586    10056    2             OR (CMD_MASK & '34'O)
     1587    10057    2            THEN
     1588    10058    2              ICB.FPARAM_REQUIRED.FOR_OPERATION = '1'B;

  10058 12 002165   200000 236003                    LDQ     65536,DU
        12 002166   000203 256000 xsym               ORSQ    ICB+131
        12 002167   002172 710000 12                 TRA     s:10061
PL6.E3A0      #004=VPF$OPEN_NEXT File=VPF$SRCLST.:E05TSI                         WED 07/30/97 07:37 Page:262

     1589    10059    2            ELSE
     1590    10060    2              ICB.FPARAM_REQUIRED.FOR_OPERATION = '0'B;

  10060 12 002170   000054 236000 13                 LDQ     44
        12 002171   000203 356000 xsym               ANSQ    ICB+131

     1591    10061    2           IF RESULTS_FID_IN.NAME

  10061 12 002172   000000 234000 xsym               SZN     RESULTS_FID_IN
        12 002173   002176 605000 12                 TPL     s:10064

     1592    10062    2            THEN
     1593    10063    2              FPT_OPEN_EI.NAME_ = VECTOR(IN_NAME);

  10063 12 002174   000056 237000 13                 LDAQ    46
        12 002175   000006 757000 xsym               STAQ    FPT_OPEN_EI+6

     1594    10064    2           IF RESULTS_FID_IN.ACCT

  10064 12 002176   000000 236000 xsym               LDQ     RESULTS_FID_IN
        12 002177   200000 316003                    CANQ    65536,DU
        12 002200   002203 600000 12                 TZE     s:10067

     1595    10065    2            THEN
     1596    10066    2              FPT_OPEN_EI.ACCT_ = VECTOR(IN_ACCT);

  10066 12 002201   000060 237000 13                 LDAQ    48
        12 002202   000024 757000 xsym               STAQ    FPT_OPEN_EI+20

     1597    10067    2           IF RESULTS_FID_IN.RES

  10067 12 002203   000000 236000 xsym               LDQ     RESULTS_FID_IN
        12 002204   004000 316003                    CANQ    2048,DU
        12 002205   002210 600000 12                 TZE     s:10070

     1598    10068    2            THEN
PL6.E3A0      #004=VPF$OPEN_NEXT File=VPF$SRCLST.:E05TSI                         WED 07/30/97 07:37 Page:263
     1599    10069    2              FPT_OPEN_EI.V.RES# = IN_RES;

  10069 12 002206   000000 236000 xsym               LDQ     IN_RES
        12 002207   000050 756000 xsym               STQ     FPT_OPEN_EI+40

     1600    10070    2           IF RESULTS_FID_IN.WSN

  10070 12 002210   000000 236000 xsym               LDQ     RESULTS_FID_IN
        12 002211   020000 316003                    CANQ    8192,DU
        12 002212   002215 600000 12                 TZE     s:10073

     1601    10071    2            THEN
     1602    10072    2              FPT_OPEN_EI.WSN_ = VECTOR(IN_WSN);

  10072 12 002213   000062 237000 13                 LDAQ    50
        12 002214   000032 757000 xsym               STAQ    FPT_OPEN_EI+26

     1603    10073    2           FPT_OPEN_EI.V.ASN# = IN_ASN;

  10073 12 002215   000000 236000 xsym               LDQ     IN_ASN
        12 002216   000033 772000                    QRL     27
        12 002217   000045 552004 xsym               STBQ    FPT_OPEN_EI+37,'04'O

     1604    10074    2           IF ICB.DEV_MASK & '140'O        /* If tapes                           */

  10074 12 002220   000171 236000 xsym               LDQ     ICB+121
        12 002221   777000 376003                    ANQ     -512,DU
        12 002222   140000 376003                    ANQ     49152,DU
        12 002223   002243 600000 12                 TZE     s:10080

     1605    10075    2            THEN                           /* VOL defaults to last for this set  */
     1606    10076    3            DO;

     1607    10077    3               CALL VPD$CHECK_VOL(IN_SN,3,,I,0); /* Get last VOL in I            */

  10077 12 002224   000030 236000 13                 LDQ     24
        12 002225   200046 756100                    STQ     I+6,,AUTO
PL6.E3A0      #004=VPF$OPEN_NEXT File=VPF$SRCLST.:E05TSI                         WED 07/30/97 07:37 Page:264
        12 002226   200040 631500                    EPPR1   I,,AUTO
        12 002227   200045 451500                    STP1    I+5,,AUTO
        12 002230   000001 236000 xsym               LDQ     B_VECTNIL+1
        12 002231   200044 756100                    STQ     I+4,,AUTO
        12 002232   000064 237000 13                 LDAQ    52
        12 002233   200042 757100                    STAQ    I+2,,AUTO
        12 002234   200042 630500                    EPPR0   I+2,,AUTO
        12 002235   000023 631400 xsym               EPPR1   B_VECTNIL+19
        12 002236   000000 701000 xent               TSX1    VPD$CHECK_VOL
        12 002237   000000 011000                    NOP     0

     1608    10078    3               FPT_OPEN_EI.V.VOL# = I;     /* Move WORD VOL to UBIN(9) field     */

  10078 12 002240   200040 236100                    LDQ     I,,AUTO
        12 002241   000033 736000                    QLS     27
        12 002242   000061 552040 xsym               STBQ    FPT_OPEN_EI+49,'40'O

     1609    10079    3               END;

     1610    10080    2           IF ICB.SPEC_TYPE~=1 AND ICB.SPEC_TYPE~=7

  10080 12 002243   000017 235000 xsym               LDA     ICB+15
        12 002244   000001 115007                    CMPA    1,DL
        12 002245   002315 600000 12                 TZE     s:10098
        12 002246   000007 115007                    CMPA    7,DL
        12 002247   002315 600000 12                 TZE     s:10098

     1611    10081    2            THEN
     1612    10082    3            DO;

     1613    10083    3               FPT_OPEN_EI.V.OPER.THISF# = %YES#;

  10083 12 002250   002000 236007                    LDQ     1024,DL
        12 002251   000044 256000 xsym               ORSQ    FPT_OPEN_EI+36

     1614    10084    3               IF ICB.PHYSICAL=0 AND (ICB.DEV_MASK & '140'O) /* Tapes and PHYS   */

PL6.E3A0      #004=VPF$OPEN_NEXT File=VPF$SRCLST.:E05TSI                         WED 07/30/97 07:37 Page:265
  10084 12 002252   000011 235000 xsym               LDA     ICB+9
        12 002253   002315 601000 12                 TNZ     s:10098
        12 002254   000171 236000 xsym               LDQ     ICB+121
        12 002255   777000 376003                    ANQ     -512,DU
        12 002256   140000 376003                    ANQ     49152,DU
        12 002257   002315 600000 12                 TZE     s:10098

     1615    10085    3                THEN                       /* START AT BEGINNING OF TAPE         */
     1616    10086    4                DO;

     1617    10087    4                   FPT_OPEN_EI.V.OPER.MNTONLY# = %YES#;

  10087 12 002260   001000 236007                    LDQ     512,DL
        12 002261   000044 256000 xsym               ORSQ    FPT_OPEN_EI+36

     1618    10088    4                   FPT_OPEN_EI.V.VOL# = 1; /* Special default                    */

  10088 12 002262   001000 236003                    LDQ     512,DU
        12 002263   000061 552040 xsym               STBQ    FPT_OPEN_EI+49,'40'O

     1619    10089    4                   CALL VPD$CHECK_VOL(IN_SN,3,,VOL,0); /* What's hanging         */

  10089 12 002264   000030 236000 13                 LDQ     24
        12 002265   200046 756100                    STQ     I+6,,AUTO
        12 002266   200037 630500                    EPPR0   VOL,,AUTO
        12 002267   200045 450500                    STP0    I+5,,AUTO
        12 002270   000001 236000 xsym               LDQ     B_VECTNIL+1
        12 002271   200044 756100                    STQ     I+4,,AUTO
        12 002272   000064 237000 13                 LDAQ    52
        12 002273   200042 757100                    STAQ    I+2,,AUTO
        12 002274   200042 630500                    EPPR0   I+2,,AUTO
        12 002275   000023 631400 xsym               EPPR1   B_VECTNIL+19
        12 002276   000000 701000 xent               TSX1    VPD$CHECK_VOL
        12 002277   000000 011000                    NOP     0

     1620    10090    4                   IF VOL > 1              /*  If not VOL#1                      */

PL6.E3A0      #004=VPF$OPEN_NEXT File=VPF$SRCLST.:E05TSI                         WED 07/30/97 07:37 Page:266
  10090 12 002300   200037 235100                    LDA     VOL,,AUTO
        12 002301   000002 115007                    CMPA    2,DL
        12 002302   002315 602000 12                 TNC     s:10098

     1621    10091    4                    THEN
     1622    10092    5                    DO;

     1623    10093    5                       FPT_REM.V.PSN# = IN_SN.SN(VOL-1); /*  remove current vol*/

  10093 12 002303   200037 236100                    LDQ     VOL,,AUTO
        12 002304   000006 402007                    MPY     6,DL
        12 002305   040000 100406                    MLR     fill='040'O
        12 002306   777777 400006 xsym               ADSC9   IN_SN-1,Q                cn=2,n=6
        12 002307   000022 400006 11                 ADSC9   FPT_REM+2                cn=2,n=6

     1624    10094    6                       CALL M$REM(FPT_REM) WHENALTRETURN DO; END;
             10094                                /* ignore ALTRETURN */

  10094 12 002310   000020 630400 11                 EPPR0   FPT_REM
        12 002311   460006 713400                    CLIMB   alt,+24582
        12 002312   400000 401760                    pmme    nvectors=1
        12 002313   002315 702000 12                 TSX2    s:10098
        12 002314   002315 710000 12                 TRA     s:10098

     1625    10095    5                       END;

     1626    10096    4                   END;

     1627    10097    3               END;

     1628    10098    3           DO CASE(ICB.SPEC_TYPE);

  10098 12 002315   000017 235000 xsym               LDA     ICB+15
        12 002316   000011 115007                    CMPA    9,DL
        12 002317   002321 602005 12                 TNC     s:10098+4,AL
        12 002320   002424 710000 12                 TRA     s:10131
        12 002321   002424 710000 12                 TRA     s:10131
PL6.E3A0      #004=VPF$OPEN_NEXT File=VPF$SRCLST.:E05TSI                         WED 07/30/97 07:37 Page:267
        12 002322   002424 710000 12                 TRA     s:10131
        12 002323   002424 710000 12                 TRA     s:10131
        12 002324   002402 710000 12                 TRA     s:10120
        12 002325   002424 710000 12                 TRA     s:10131
        12 002326   002332 710000 12                 TRA     s:10100
        12 002327   002424 710000 12                 TRA     s:10131
        12 002330   002420 710000 12                 TRA     s:10128
        12 002331   002420 710000 12                 TRA     s:10128

     1629    10099    3            CASE(5);                       /* ABC? WILDCARDING                   */

     1630    10100    3              IF IN_ASN=%FILE#

  10100 12 002332   000000 236000 xsym               LDQ     IN_ASN
        12 002333   777000 376003                    ANQ     -512,DU
        12 002334   001000 116003                    CMPQ    512,DU
        12 002335   002424 601000 12                 TNZ     s:10131

     1631    10101    3               THEN                        /* We can save some time...           */
     1632    10102    4               DO;                         /* Manufacture first NAME to OPEN     */

     1633    10103    4                  CALL INDEX(I,'?',IN_NAME.STRING);

  10103 12 002336   000000 124400                    SCM     mask='000'O
        12 002337   000000 200037 xsym               ADSC9   IN_NAME                  cn=1,n=31
        12 002340   000042 000001 13                 ADSC9   34                       cn=0,n=1
        12 002341   200040 000100                    ARG     I,,AUTO

     1634    10104    4                  FPT_OPEN_EI.NAME_ = VECTOR(OPEN_NAME);

  10104 12 002342   000056 235000 13                 LDA     46
        12 002343   200042 452500                    STP2    I+2,,AUTO
        12 002344   200042 236100                    LDQ     I+2,,AUTO
        12 002345   000006 036003                    ADLQ    6,DU
        12 002346   000006 757000 xsym               STAQ    FPT_OPEN_EI+6

     1635    10105    4                  IF ICB.SRCHCOND.REV
PL6.E3A0      #004=VPF$OPEN_NEXT File=VPF$SRCLST.:E05TSI                         WED 07/30/97 07:37 Page:268

  10105 12 002347   000167 236000 xsym               LDQ     ICB+119
        12 002350   001000 316007                    CANQ    512,DL
        12 002351   002373 600000 12                 TZE     s:10115

     1636    10106    4                   THEN                    /* Start at the end                   */
     1637    10107    5                   DO;

     1638    10108    5                      OPEN_NAME.LEN = I+1;

  10108 12 002352   200040 236100                    LDQ     I,,AUTO
        12 002353   000001 036007                    ADLQ    1,DL
        12 002354   000033 736000                    QLS     27
        12 002355   200006 552140                    STBQ    OPEN_NAME,'40'O,AUTO

     1639    10109    5                      CALL CONCAT(OPEN_NAME.STRING,

  10109 12 002356   200040 720100                    LXL0    I,,AUTO
        12 002357   040100 100440                    MLR     fill='040'O
        12 002360   000000 200010 xsym               ADSC9   IN_NAME                  cn=1,n=*X0
        12 002361   200006 200037                    ADSC9   OPEN_NAME,,AUTO          cn=1,n=31
        12 002362   200040 236100                    LDQ     I,,AUTO
        12 002363   000037 116007                    CMPQ    31,DL
        12 002364   002372 603000 12                 TRC     s:10112
        12 002365   777740 621006                    EAX1    -32,QL
        12 002366   777777 661003                    ERX1    -1,DU
        12 002367   040146 100400                    MLR     fill='040'O
        12 002370   000055 000001 13                 ADSC9   45                       cn=0,n=1
        12 002371   200006 200011                    ADSC9   OPEN_NAME,Q,AUTO         cn=1,n=*X1

     1640    10110    5                        SUBSTR(IN_NAME.STRING,0,I),
     1641    10111    5                        BITASC('777'O) );
     1642    10112    5                      END;

  10112 12 002372   002424 710000 12                 TRA     s:10131

     1643    10113    4                   ELSE                    /* Start at the beginning             */
PL6.E3A0      #004=VPF$OPEN_NEXT File=VPF$SRCLST.:E05TSI                         WED 07/30/97 07:37 Page:269
     1644    10114    5                   DO;

     1645    10115    5                      OPEN_NAME.LEN = I;

  10115 12 002373   200040 236100                    LDQ     I,,AUTO
        12 002374   000033 736000                    QLS     27
        12 002375   200006 552140                    STBQ    OPEN_NAME,'40'O,AUTO

     1646    10116    5                      OPEN_NAME.STRING = IN_NAME.STRING;

  10116 12 002376   040100 100400                    MLR     fill='040'O
        12 002377   000000 200037 xsym               ADSC9   IN_NAME                  cn=1,n=31
        12 002400   200006 200037                    ADSC9   OPEN_NAME,,AUTO          cn=1,n=31

     1647    10117    5                      END;

     1648    10118    4                  END;

  10118 12 002401   002424 710000 12                 TRA     s:10131

     1649    10119    3            CASE(3);                       /* SUB-RANGE of directory             */

     1650    10120    3              IF ICB.SRCHCOND.REV

  10120 12 002402   000167 236000 xsym               LDQ     ICB+119
        12 002403   001000 316007                    CANQ    512,DL
        12 002404   002424 600000 12                 TZE     s:10131

     1651    10121    3               THEN                        /* Start at the end                   */
     1652    10122    4               DO;

     1653    10123    4                  FPT_OPEN_EI.NAME_ = VECTOR(OPEN_NAME);

  10123 12 002405   000056 235000 13                 LDA     46
        12 002406   200042 452500                    STP2    I+2,,AUTO
        12 002407   200042 236100                    LDQ     I+2,,AUTO
        12 002410   000006 036003                    ADLQ    6,DU
PL6.E3A0      #004=VPF$OPEN_NEXT File=VPF$SRCLST.:E05TSI                         WED 07/30/97 07:37 Page:270
        12 002411   000006 757000 xsym               STAQ    FPT_OPEN_EI+6

     1654    10124    4                  OPEN_NAME.STRING = ICB.NAME_RANGE_END;

  10124 12 002412   040100 100400                    MLR     fill='040'O
        12 002413   000140 000037 xsym               ADSC9   ICB+96                   cn=0,n=31
        12 002414   200006 200037                    ADSC9   OPEN_NAME,,AUTO          cn=1,n=31

     1655    10125    4                  OPEN_NAME.LEN = 31;

  10125 12 002415   037000 236003                    LDQ     15872,DU
        12 002416   200006 552140                    STBQ    OPEN_NAME,'40'O,AUTO

     1656    10126    4                  END;

  10126 12 002417   002424 710000 12                 TRA     s:10131

     1657    10127    3            CASE(7,8);                     /* FSN SPECIFICATIONS                 */

     1658    10128    3              FPT_OPEN_EI.V.FSN# = ICB.FSN.START;

  10128 12 002420   000044 220000 xsym               LDX0    ICB+36
        12 002421   000066 740000 xsym               STX0    FPT_OPEN_EI+54

     1659    10129    3              FPT_OPEN_EI.V.OPER.MNTONLY# = %NO#;

  10129 12 002422   000022 236000 13                 LDQ     18
        12 002423   000044 356000 xsym               ANSQ    FPT_OPEN_EI+36

     1660    10130    3            END;                           /* END CASE*/

     1661    10131    2           IF ICB.VOL ~= 0

  10131 12 002424   000157 236000 xsym               LDQ     ICB+111
        12 002425   777000 316003                    CANQ    -512,DU
        12 002426   002432 600000 12                 TZE     s:10137

PL6.E3A0      #004=VPF$OPEN_NEXT File=VPF$SRCLST.:E05TSI                         WED 07/30/97 07:37 Page:271
     1662    10132    2            THEN                           /* VOL specified                      */
     1663    10133    3            DO;

     1664    10134    3               FPT_OPEN_EI.V.VOL# = ICB.VOL;

  10134 12 002427   000061 552040 xsym               STBQ    FPT_OPEN_EI+49,'40'O

     1665    10135    3               ICB.VOL = 0;                /* VOL=N is a one-shot option         */

  10135 12 002430   000000 236003                    LDQ     0,DU
        12 002431   000157 552040 xsym               STBQ    ICB+111,'40'O

     1666    10136    3               END;

     1667    10137    2           BAD_FILE_NAME = ' 1';           /* An impossible filename             */

  10137 12 002432   040000 100400                    MLR     fill='040'O
        12 002433   000013 000002 10                 ADSC9   ABORT_SOURCE_ERR+7       cn=0,n=2
        12 002434   000006 000037 11                 ADSC9   BAD_FILE_NAME            cn=0,n=31

     1668    10138    2   END SET_UP_START;

  10138 12 002435   200036 221300                    LDX1  ! CODE$+1,,AUTO
        12 002436   000001 702211                    TSX2  ! 1,X1
     1669    10139    1   END VPF$OPEN_NEXT;
     1670    10140        %EOD;

PL6.E3A0      #004=VPF$OPEN_NEXT File=VPF$SRCLST.:E05TSI                         WED 07/30/97 07:37 Page:272
--  Include file information  --

   XUH_MACRO_C.:E05TOU  is referenced.
   F$DCB.:E05TOU  cannot be made into a system file and is referenced.
   FM$FIT.:E05TOU  is referenced.
   B_ERRORS_C.:E05TOU  is referenced.
   B_MICROPS_C.:E05TOU  is referenced.
   XU_MACRO_C.:E05TOU  is referenced.
   VP_MACRO_C.:E05TOU  is referenced.
   XS_MACRO_C.:E05TOU  is referenced.
   VP_PERR_C.:E05TOU  is referenced.
   CP_6_SUBS.:E05TOU  is referenced.
   CP_6.:E05TOU  cannot be made into a system file and is referenced.
   VP_DATA_R.:E05TOU  cannot be made into a system file and is referenced.
   XUD_UTS_M.:E05TOU  is referenced.
   B$JIT_C.:E05TOU  was found in the system file and is never referenced.
   CP_6_C.:E05TOU  was found in the system file and is referenced.
      No diagnostics issued in procedure VPF$OPEN_NEXT.
PL6.E3A0      #004=VPF$OPEN_NEXT File=VPF$SRCLST.:E05TSI                         WED 07/30/97 07:37 Page:273

 **** Variables and constants ****

  ****  Section 010 RoData VPF$OPEN_NEXT

  ****  Scalars and arrays  ****
OctLoc.c.b A Datatyp(siz) R M Lvl/name                 OctLoc.c.b A Datatyp(siz) R M Lvl/name

     4-0-0/b UBIN(18)    r     1 ABORT_SOURCE_ERR(0:9)
     0-0-0/d STRC(144)   r     1 FPT_PFIL

  ****  Section 011  Data  VPF$OPEN_NEXT

  ****  Scalars and arrays  ****
OctLoc.c.b A Datatyp(siz) R M Lvl/name                 OctLoc.c.b A Datatyp(siz) R M Lvl/name

     6-0-0/c CHAR(31)    r     1 BAD_FILE_NAME             16-0-0/w UBIN        r     1 CONTROL_DATE
     4-0-0/w SBIN        r     1 CUR_FT_FSN                20-0-0/d STRC(144)   r     1 FPT_REM
     0-0-0/d STRC(144)   r     1 FPT_REM_FT                 5-0-0/w SBIN        r     1 NO_MORE_FILES

  ****  Auto variables  ****

  ****  Scalars and arrays  ****
OctLoc.c.b A Datatyp(siz) R M Lvl/name                 OctLoc.c.b A Datatyp(siz) R M Lvl/name

     4-0-0/w PTR         r     1 @CODE                      5-0-0/w PTR         r     1 @NAME_TEXTC
     3-0-0/w PTR         r     1 @RET_VAL                  33-0-0/c CHAR(4)     r     1 CHAR_4
    *0-0-0/w SBIN        r     1 CODE                      35-0-0/w PTR         r     1 CODE$
    27-0-0/w SBIN        r     1 FILE_FOUND                34-0-0/w BIT         r     1 FIRST
    32-0-0/w SBIN        r     1 I                         40-0-0/w UBIN        r     1 I
    *0-0-0/c ASTR(9)     r     1 NAME_TEXTC                26-0-0/w SBIN        r     1 NO_ACCESS
     6-0-0/c STRC(288)   r     1 OPEN_NAME                 *0-0-0/w SBIN        r     1 RET_VAL
    30-0-0/w SBIN        r     1 SORT_STATUS               31-0-0/w SBIN        r     1 T
    16-0-0/c STRC(288)   r     1 TEXT_C                    37-0-0/w UBIN        r     1 VOL

  ****  SYMREF variables  ****

  ****  Scalars and arrays  ****
PL6.E3A0      #004=VPF$OPEN_NEXT File=VPF$SRCLST.:E05TSI                         WED 07/30/97 07:37 Page:274
OctLoc.c.b A Datatyp(siz) R M Lvl/name                 OctLoc.c.b A Datatyp(siz) R M Lvl/name

     0-0-0/b BIT (2)     r     1 ANSISPAN_OPT               0-0-0/w SBIN        r     1 BREAKS
     0-0-0/w EPTR        r     1 BREAK_MESSAGE_REPORTER
     0-0-0/b BIT         r     1 CMD_MASK(0:71)
     0-0-0/c STRC(288)   r     1 DIN_NAME                   0-0-0/w BIT         r     1 EOF_SOURCE
     0-0-0/w PTR         r     1 FPARAM$                    0-0-0/w SBIN        r     1 FPARAM_BOUND
     0-0-0/d SBIN        r     1 FPARAM_BUF(0:1023)
     0-0-0/d STRC(1080)  r     1 FPT_CLOSE_EI               0-0-0/d STRC(2088)  r     1 FPT_OPEN_EI
     0-0-0/d STRC(2088)  r     1 FPT_OPEN_EI_SAVE           0-0-0/d STRC(1512)  r     1 GETCMD
     0-0-0/d STRC(5868)  r     1 ICB                        0-0-0/w STRC        r     1 INPUT_ERR
     0-0-0/c CHAR(8)     r     1 IN_ACCT                    0-0-0/b UBIN(9)     r     1 IN_ASN
     0-0-0/c STRC(288)   r     1 IN_NAME                    0-0-0/c CHAR(8)     r     1 IN_PASS
     0-0-0/c CHAR(4)     r     1 IN_RES                     0-0-0/w STRC(1116)  r     1 IN_SN
     0-0-0/c CHAR(8)     r     1 IN_WSN                     0-0-0/w SBIN        r     1 M$EI#
     0-0-0/w PTR         r     1 M$EI$                      0-0-0/d STRC(324)   r     1 RESULTS_FID_IN
     0-0-0/b BIT         r     1 SORTING_INPUT

  ****  BASED and DCB variables  ****

  ****  Scalars and arrays  ****
OctLoc.c.b A Datatyp(siz) R M Lvl/name                 OctLoc.c.b A Datatyp(siz) R M Lvl/name

     0-0-0/w STRC(324)   r     1 CODE03                     0-0-0/w STRC(396)   r     1 CODE04
     0-0-0/w STRC(108)   r     1 CODE05                     0-0-0/w STRC(108)   r     1 CODE06
     0-0-0/w STRC(54)    r     1 CODE18                     0-0-0/d ASTR(3528)  r     1 F$DCB
     0-0-0N  NULL        r     1 M$EI                       0-0-0/c ASTR(9)     r     1 TEXT$C
     0-0-0/w UBIN(18)    r     1 UBIN$HALF                  0-0-0/d STRC(9612)  r     1 XUG_PARAMS


   Procedure VPF$OPEN_NEXT requires 1311 words for executable code.
   Procedure VPF$OPEN_NEXT requires 42 words of local(AUTO) storage.
PL6.E3A0      #004=VPF$OPEN_NEXT File=VPF$SRCLST.:E05TSI                         WED 07/30/97 07:37 Page:275
          *** CROSS REFERENCE LISTING ***
**     DENOTES     IDENTIFIER DEFINITION
<<                 IDENTIFIER'S VALUE SET
>>                 IDENTIFIER'S VALUE USED
<>                 IDENTIFIER SET AND/OR USED
--                 IDENTIFIER REFERENCED
PL6.E3A0      #004=VPF$OPEN_NEXT File=VPF$SRCLST.:E05TSI                         WED 07/30/97 07:37 Page:276
          MINI XREF LISTING

ABORT_SOURCE_ERR
      8648**DCL      9860>>DOWHILE  9861>>IF
ANSISPAN_OPT
      5674**DCL      9458>>ASSIGN
B$ALT.CODE
      8459**DCL      8459--REDEF    8460--REDEF    8460--REDEF
B$ALT.ERR.ERR#
      8461**DCL      8461--REDEF
B$ALT.EVID
      8460**DCL      8460--REDEF    8460--REDEF
BAD_FILE_NAME
      8651**DCL      9867>>IF       9874<<ASSIGN  10137<<ASSIGN
BREAKS
      5325**DCL      9849>>IF
BREAK_LOC
      5325**DCL      5325--REDEF
CHAR_4
      8654**DCL      9636<<CALLBLT  9637>>CALLBLT  9830<<CALLBLT  9831>>CALLBLT
CMD_MASK
      5327**DCL      9474>>IF       9474>>IF       9811>>IF      10055>>IF
CODE
        29**DCL         6--PROC     9401>>DOCASE   9515>>IF       9515>>IF      10055>>IF      10055>>IF
CODE$
      8727**DCL      9687<<ASSIGN   9688<>CALL     9700>>ASSIGN   9702>>ASSIGN   9704>>ASSIGN   9706>>ASSIGN
      9707<<ASSIGN   9708<>CALL     9709>>IF       9712>>CALL     9714<<ASSIGN   9715<>CALL     9720>>ASSIGN
      9722<<ASSIGN   9723<>CALL     9728>>ASSIGN   9951<<ASSIGN   9952<>CALL     9953>>ASSIGN
CODE03.EXPIRE
      8704**DCL      9709>>IF       9712>>CALL
CODE04.ACCESS.TIME
      8712**DCL      9702>>ASSIGN
CODE04.CREATION.TIME
      8712**DCL      9700>>ASSIGN   9706>>ASSIGN
PL6.E3A0      #004=VPF$OPEN_NEXT File=VPF$SRCLST.:E05TSI                         WED 07/30/97 07:37 Page:277
CODE04.MODIFY.TIME
      8712**DCL      9704>>ASSIGN
CODE05.BACKUP.TIME
      8716**DCL      9720>>ASSIGN
CODE06.STOW.EFT
      8719**DCL      8720--REDEF
CODE06.STOW.TIME
      8719**DCL      9728>>ASSIGN
CODE18.DECFIELD
      8723**DCL      8724--REDEF
CODE18.NFIELDS
      8723**DCL      9953>>ASSIGN
CONTROL_DATE
      8726**DCL      9700<<ASSIGN   9702<<ASSIGN   9704<<ASSIGN   9706<<ASSIGN   9712<>CALL     9712<>CALL
      9720<<ASSIGN   9728<<ASSIGN   9730<>CALL     9732<<ASSIGN   9736>>IF       9740>>IF       9744>>IF
      9748>>IF       9752>>IF       9756>>IF
CREATOR_OK
      9669**LABEL    9668--CALLALT
CUR_FT_FSN
      8643**DCL      9544<<ASSIGN   9548<<ASSIGN   9562<<ASSIGN   9562>>ASSIGN   9627<<ASSIGN   9627>>ASSIGN
      9628>>IF       9636>>CALLBLT  9830>>CALLBLT
DEF_ICB.FID.STRING
      5923**DCL      5924--REDEF
DEV_ICB.FID.STRING
      5809**DCL      5810--REDEF
DIN_NAME
      5616**DCL      9570--IF       9570--IF       9577--IF       9577--IF       9582--IF       9582--IF
      9597<>CALL     9867--IF       9867--IF       9874--ASSIGN   9874--ASSIGN
DIN_NAME.LEN
      5616**DCL      9638<<ASSIGN   9824<<ASSIGN   9832<<ASSIGN   9915<<ASSIGN   9931<<ASSIGN
DIN_NAME.STRING
      5616**DCL      9605>>IF       9637<<CALLBLT  9825<<ASSIGN   9831<<CALLBLT  9916<<ASSIGN   9932<<ASSIGN
EI_KEY.KEY
      6021**DCL      6021--REDEF    6021--REDEF    6021--REDEF
EI_OPEN_ALT
      9821**LABEL    9502--CALLALT  9536--CALLALT
PL6.E3A0      #004=VPF$OPEN_NEXT File=VPF$SRCLST.:E05TSI                         WED 07/30/97 07:37 Page:278
EOF_SOURCE
      5322**DCL      9503<<ASSIGN
EO_OCB.TYPE
      5521**DCL      5522--REDEF
F$DCB.ACTPOS
      8491**DCL      8491--REDEF
F$DCB.ARS
      8466**DCL      8466--REDEF
F$DCB.ASN
      8481**DCL      9613>>IF
F$DCB.ATTR
      8484**DCL      8485--REDEF
F$DCB.BORROW
      8499**DCL      8499--REDEF    8499--REDEF    8499--REDEF
F$DCB.DCBNAME.L
      8513**DCL      8513--IMP-SIZ
F$DCB.DDEV.IC
      8472**DCL      9975>>IF
F$DCB.EOMCHAR
      8470**DCL      8470--REDEF
F$DCB.FCD
      8479**DCL      9761>>IF       9789>>IF
F$DCB.FLDID
      8494**DCL      8494--REDEF
F$DCB.FORM$
      8488**DCL      8488--REDEF
F$DCB.FSECT
      8504**DCL      8504--REDEF    9508>>IF
F$DCB.FSN
      8481**DCL      8481--REDEF    8481--REDEF    8482--REDEF    9510>>ASSIGN   9512>>ASSIGN   9616>>IF
      9620>>IF
F$DCB.HEADER$
      8487**DCL      8487--REDEF
F$DCB.IXTNSIZE
      8485**DCL      8485--REDEF
F$DCB.LASTSTA$
PL6.E3A0      #004=VPF$OPEN_NEXT File=VPF$SRCLST.:E05TSI                         WED 07/30/97 07:37 Page:279
      8475**DCL      8475--REDEF
F$DCB.LVL
      8500**DCL      8500--REDEF
F$DCB.NAME.C
      8475**DCL      8475--REDEF    9825>>ASSIGN   9916>>ASSIGN   9932>>ASSIGN
F$DCB.NAME.L
      8475**DCL      9824>>ASSIGN   9915>>ASSIGN   9931>>ASSIGN
F$DCB.NOEOF
      8496**DCL      8496--REDEF
F$DCB.NRECS
      8486**DCL      8486--REDEF
F$DCB.NRECX
      8505**DCL      8505--REDEF
F$DCB.OHDR
      8497**DCL      8497--REDEF
F$DCB.ORG
      8480**DCL      8480--REDEF    9642>>IF       9939>>IF       9949>>IF       9975>>IF       9979>>IF
      9979>>IF       9979>>IF       9979>>IF       9979>>IF       9979>>IF       9979>>IF       9979>>IF
      9979>>IF       9990>>IF       9990>>IF       9990>>IF       9990>>IF       9996>>IF       9996>>IF
      9996>>IF      10001>>IF      10001>>IF      10001>>IF      10006>>IF      10006>>IF      10006>>IF
     10011>>IF
F$DCB.OWNER
      8497**DCL      9675>>IF
F$DCB.PRECNO
      8503**DCL      8503--REDEF
F$DCB.RCSZ
      8508**DCL      8508--REDEF
F$DCB.RES
      8476**DCL      8476--REDEF
F$DCB.SETX
      8488**DCL      8488--REDEF
F$DCB.TAB$
      8487**DCL      8488--REDEF
F$DCB.TDA
      8502**DCL      8502--REDEF
F$DCB.TYPE
PL6.E3A0      #004=VPF$OPEN_NEXT File=VPF$SRCLST.:E05TSI                         WED 07/30/97 07:37 Page:280
      8476**DCL      9652>>IF       9656--IF
F$DCB.WSN
      8477**DCL      8477--REDEF
FIELDS_DONE IN PROCEDURE TWIDDLE_AFTER_OPEN
      9953**LABEL    9950--GOTO     9952--CALLALT
FILE_FOUND
      8646**DCL      9416<<ASSIGN   9422>>DOWHILE  9560<<ASSIGN   9564<<ASSIGN   9569<<ASSIGN   9587<<ASSIGN
      9598<<ASSIGN   9612<<ASSIGN   9622<<ASSIGN   9646<<ASSIGN   9647>>IF       9650<<ASSIGN   9654<<ASSIGN
      9659>>IF       9661<<ASSIGN   9663<<ASSIGN   9672<<ASSIGN   9677<<ASSIGN   9679>>IF       9680<<ASSIGN
      9682<<ASSIGN   9683>>IF       9694<<ASSIGN   9717<<ASSIGN   9725<<ASSIGN   9738<<ASSIGN   9742<<ASSIGN
      9746<<ASSIGN   9750<<ASSIGN   9754<<ASSIGN   9758<<ASSIGN   9761>>IF       9769>>IF       9800>>IF
      9899<<ASSIGN
FIRST
      8655**DCL      9400<<ASSIGN   9425>>IF       9427<<ASSIGN
FPARAM$
      5326**DCL      9498<<ASSIGN   9686<<ASSIGN   9687>>ASSIGN   9707>>ASSIGN   9714>>ASSIGN   9722>>ASSIGN
      9937<<ASSIGN   9942<<ASSIGN   9942>>ASSIGN   9951>>ASSIGN
FPARAM_BOUND
      5327**DCL      9938<<ASSIGN   9943<<ASSIGN   9943>>ASSIGN
FPARAM_BUF
      5326**DCL      9470--ASSIGN   9497<<ASSIGN   9498--ASSIGN   9686--ASSIGN   9846<<ASSIGN   9937--ASSIGN
      9938--ASSIGN
FPT_CLOSE_EI
      6862**DCL      9527<>CALL     9535<>CALL
FPT_CLOSE_EI.SN_
      6862**DCL      6862--REDEF
FPT_CLOSE_EI.UTL_
      6863**DCL      6863--REDEF
FPT_CLOSE_EI.V.EXPIRE#
      6877**DCL      6877--REDEF
FPT_CLOSE_EI.V.TYPE#
      6875**DCL      6875--REDEF
FPT_CLOSE_EI.V.XTNSIZE#
      6872**DCL      6872--REDEF    6874--REDEF
FPT_CLOSE_PTL.SN_
      6988**DCL      6988--REDEF
PL6.E3A0      #004=VPF$OPEN_NEXT File=VPF$SRCLST.:E05TSI                         WED 07/30/97 07:37 Page:281
FPT_CLOSE_PTL.UTL_
      6989**DCL      6989--REDEF
FPT_CLOSE_PTL.V.EXPIRE#
      7003**DCL      7003--REDEF
FPT_CLOSE_PTL.V.TYPE#
      7001**DCL      7001--REDEF
FPT_CLOSE_PTL.V.XTNSIZE#
      6998**DCL      6998--REDEF    7000--REDEF
FPT_CLOSE_READ.SN_
      6904**DCL      6904--REDEF
FPT_CLOSE_READ.UTL_
      6905**DCL      6905--REDEF
FPT_CLOSE_READ.V.EXPIRE#
      6919**DCL      6919--REDEF
FPT_CLOSE_READ.V.TYPE#
      6917**DCL      6917--REDEF
FPT_CLOSE_READ.V.XTNSIZE#
      6914**DCL      6914--REDEF    6916--REDEF
FPT_CLOSE_SI.SN_
      7072**DCL      7072--REDEF
FPT_CLOSE_SI.UTL_
      7073**DCL      7073--REDEF
FPT_CLOSE_SI.V.EXPIRE#
      7087**DCL      7087--REDEF
FPT_CLOSE_SI.V.TYPE#
      7085**DCL      7085--REDEF
FPT_CLOSE_SI.V.XTNSIZE#
      7082**DCL      7082--REDEF    7084--REDEF
FPT_CLOSE_STD.SN_
      7030**DCL      7030--REDEF
FPT_CLOSE_STD.UTL_
      7031**DCL      7031--REDEF
FPT_CLOSE_STD.V.EXPIRE#
      7045**DCL      7045--REDEF
FPT_CLOSE_STD.V.TYPE#
      7043**DCL      7043--REDEF
PL6.E3A0      #004=VPF$OPEN_NEXT File=VPF$SRCLST.:E05TSI                         WED 07/30/97 07:37 Page:282
FPT_CLOSE_STD.V.XTNSIZE#
      7040**DCL      7040--REDEF    7042--REDEF
FPT_CLSEI_FT.SN_
      6946**DCL      6946--REDEF
FPT_CLSEI_FT.UTL_
      6947**DCL      6947--REDEF
FPT_CLSEI_FT.V.EXPIRE#
      6961**DCL      6961--REDEF
FPT_CLSEI_FT.V.TYPE#
      6959**DCL      6959--REDEF
FPT_CLSEI_FT.V.XTNSIZE#
      6956**DCL      6956--REDEF    6958--REDEF
FPT_OPEN_EI
      6515**DCL      9399<<ASSIGN   9429<<ASSIGN   9502<>CALL     9530<>CALL     9536<>CALL
FPT_OPEN_EI.ACCT_
      6519**DCL     10066<<ASSIGN
FPT_OPEN_EI.ACSVEH_
      6517**DCL      6518--REDEF
FPT_OPEN_EI.ALTKEYS_
      6523**DCL      6524--REDEF    6524--REDEF
FPT_OPEN_EI.FPARAM_
      6520**DCL      9470<<ASSIGN
FPT_OPEN_EI.HDR_
      6522**DCL      6523--REDEF
FPT_OPEN_EI.NAME_
      6516**DCL      9413<<ASSIGN  10063<<ASSIGN  10104<<ASSIGN  10123<<ASSIGN
FPT_OPEN_EI.PASS_
      6517**DCL      9467<<ASSIGN
FPT_OPEN_EI.SN_
      6515**DCL      9464<<ASSIGN
FPT_OPEN_EI.TAB_
      6521**DCL      6522--REDEF
FPT_OPEN_EI.UHL_
      6515**DCL      6516--REDEF    6516--REDEF
FPT_OPEN_EI.V.ANSISPANSEQ#
      6548**DCL      9458<<ASSIGN
PL6.E3A0      #004=VPF$OPEN_NEXT File=VPF$SRCLST.:E05TSI                         WED 07/30/97 07:37 Page:283
FPT_OPEN_EI.V.ASN#
      6534**DCL     10073<<ASSIGN
FPT_OPEN_EI.V.BLKL#
      6541**DCL      9441<<ASSIGN
FPT_OPEN_EI.V.BLOCKED#
      6536**DCL      9445<<ASSIGN   9447<<ASSIGN
FPT_OPEN_EI.V.CHAIN#
      6550**DCL      9430<<ASSIGN
FPT_OPEN_EI.V.CNVRT#
      6544**DCL      9461<<ASSIGN
FPT_OPEN_EI.V.CVOL#
      6529**DCL      9490<<ASSIGN
FPT_OPEN_EI.V.EBCDIC#
      6544**DCL      9455<<ASSIGN
FPT_OPEN_EI.V.FSN#
      6555**DCL      6555--REDEF    6555--REDEF    9510<<ASSIGN   9512<<ASSIGN  10128<<ASSIGN
FPT_OPEN_EI.V.IGNOREFSN#
      6548**DCL      9435<<ASSIGN
FPT_OPEN_EI.V.INITZ.SCRUB#
      6525**DCL     10045<<ASSIGN
FPT_OPEN_EI.V.IOERROK#
      6546**DCL      9434<<ASSIGN
FPT_OPEN_EI.V.OPER.MNTONLY#
      6528**DCL      9505>>IF       9507<<ASSIGN  10087<<ASSIGN  10129<<ASSIGN
FPT_OPEN_EI.V.OPER.NXTF#
      6527**DCL      9473<<ASSIGN
FPT_OPEN_EI.V.OPER.TEST#
      6526**DCL      9479<<ASSIGN   9485<<ASSIGN   9487<<ASSIGN
FPT_OPEN_EI.V.OPER.THISF#
      6527**DCL      9414<<ASSIGN  10083<<ASSIGN
FPT_OPEN_EI.V.ORG#
      6535**DCL      9438<<ASSIGN   9440<<ASSIGN
FPT_OPEN_EI.V.RECL#
      6541**DCL      9442<<ASSIGN
FPT_OPEN_EI.V.RES#
      6539**DCL     10069<<ASSIGN
PL6.E3A0      #004=VPF$OPEN_NEXT File=VPF$SRCLST.:E05TSI                         WED 07/30/97 07:37 Page:284
FPT_OPEN_EI.V.SHARE#
      6529**DCL      9432<<ASSIGN
FPT_OPEN_EI.V.SPANNED#
      6537**DCL      9450<<ASSIGN   9452<<ASSIGN
FPT_OPEN_EI.V.SRCHCOND
      6530**DCL      9433<<ASSIGN
FPT_OPEN_EI.V.TYPE#
      6536**DCL      9431--ASSIGN
FPT_OPEN_EI.V.VOL#
      6549**DCL     10078<<ASSIGN  10088<<ASSIGN  10134<<ASSIGN
FPT_OPEN_EI.WSN_
      6521**DCL      6521--REDEF   10072<<ASSIGN
FPT_OPEN_EI_SAVE
      6624**DCL      9399>>ASSIGN   9429>>ASSIGN
FPT_OPEN_EI_SAVE.ACSVEH_
      6626**DCL      6627--REDEF
FPT_OPEN_EI_SAVE.ALTKEYS_
      6632**DCL      6633--REDEF    6633--REDEF
FPT_OPEN_EI_SAVE.HDR_
      6631**DCL      6632--REDEF
FPT_OPEN_EI_SAVE.TAB_
      6630**DCL      6631--REDEF
FPT_OPEN_EI_SAVE.UHL_
      6624**DCL      6625--REDEF    6625--REDEF
FPT_OPEN_EI_SAVE.V.FSN#
      6664**DCL      6664--REDEF    6664--REDEF
FPT_OPEN_EI_SAVE.WSN_
      6630**DCL      6630--REDEF
FPT_OPEN_OUT.ACSVEH_
      6408**DCL      6409--REDEF
FPT_OPEN_OUT.ALTKEYS_
      6414**DCL      6415--REDEF    6415--REDEF
FPT_OPEN_OUT.HDR_
      6413**DCL      6414--REDEF
FPT_OPEN_OUT.TAB_
      6412**DCL      6413--REDEF
PL6.E3A0      #004=VPF$OPEN_NEXT File=VPF$SRCLST.:E05TSI                         WED 07/30/97 07:37 Page:285
FPT_OPEN_OUT.UHL_
      6406**DCL      6407--REDEF    6407--REDEF
FPT_OPEN_OUT.V.FSN#
      6446**DCL      6446--REDEF    6446--REDEF
FPT_OPEN_OUT.WSN_
      6412**DCL      6412--REDEF
FPT_OPEN_OUT_SAVE.ACSVEH_
      6299**DCL      6300--REDEF
FPT_OPEN_OUT_SAVE.ALTKEYS_
      6305**DCL      6306--REDEF    6306--REDEF
FPT_OPEN_OUT_SAVE.HDR_
      6304**DCL      6305--REDEF
FPT_OPEN_OUT_SAVE.TAB_
      6303**DCL      6304--REDEF
FPT_OPEN_OUT_SAVE.UHL_
      6297**DCL      6298--REDEF    6298--REDEF
FPT_OPEN_OUT_SAVE.V.FSN#
      6337**DCL      6337--REDEF    6337--REDEF
FPT_OPEN_OUT_SAVE.WSN_
      6303**DCL      6303--REDEF
FPT_PFIL
      8612**DCL      9532<>CALL
FPT_PFIL.V
      8612**DCL      8612--DCLINIT
FPT_READ_STD.STATION_
      6727**DCL      6728--REDEF
FPT_READ_STD.V.DVBYTE.REREAD#
      6739**DCL      6739--REDEF
FPT_READ_STD.V.INDX#
      6737**DCL      6737--REDEF
FPT_READ_UC.STATION_
      6688**DCL      6689--REDEF
FPT_READ_UC.V.DVBYTE.REREAD#
      6700**DCL      6700--REDEF
FPT_READ_UC.V.INDX#
      6698**DCL      6698--REDEF
PL6.E3A0      #004=VPF$OPEN_NEXT File=VPF$SRCLST.:E05TSI                         WED 07/30/97 07:37 Page:286
FPT_REM IN PROCEDURE SET_UP_START
     10040**DCL     10094<>CALL
FPT_REM.V IN PROCEDURE SET_UP_START
     10040**DCL     10040--DCLINIT
FPT_REM.V.PSN# IN PROCEDURE SET_UP_START
     10041**DCL     10093<<ASSIGN
FPT_REM_FT
      8629**DCL      9529<>CALL
FPT_REM_FT.V
      8629**DCL      8629--DCLINIT
FPT_REM_FT.V.PSN#
      8630**DCL      9528<<ASSIGN
FPT_WRITE_ME.STATION_
      6796**DCL      6796--REDEF
FPT_WRITE_ME.V.DVBYTE.VFC#
      6803**DCL      6803--REDEF
FPT_WRITE_OUT.STATION_
      6827**DCL      6827--REDEF
FPT_WRITE_OUT.V.DVBYTE.VFC#
      6834**DCL      6834--REDEF
FPT_WRITE_UC.STATION_
      6765**DCL      6765--REDEF
FPT_WRITE_UC.V.DVBYTE.VFC#
      6772**DCL      6772--REDEF
FROM_SN.SN
      5671**DCL      5672--REDEF
GETCMD.ERRDCB#
      5032**DCL      9496<<ASSIGN
GETCMD.OUT$
      4878**DCL      4884--REDEF
GETCMD.WORK$
      4906**DCL      9495>>ASSIGN
GOT_DISPOSITION
      9867**LABEL    9410--GOTO     9818--GOTO     9838--GOTO     9871--GOTO     9878--GOTO
I
      8653**DCL      9531<<DOINDEX  9604<<CALLBLT  9605>>IF       9605>>IF       9775<<ASSIGN   9780<<ASSIGN
PL6.E3A0      #004=VPF$OPEN_NEXT File=VPF$SRCLST.:E05TSI                         WED 07/30/97 07:37 Page:287
      9786>>IF       9792<>CALL     9859<<ASSIGN   9860>>DOWHILE  9861>>IF       9865<<ASSIGN   9865>>ASSIGN
I IN PROCEDURE SET_UP_START
     10044**DCL     10077<>CALL    10078>>ASSIGN  10103<<CALLBLT 10108>>ASSIGN  10109>>CALLBLT 10115>>ASSIGN
ICB.ANSISPAN
      5782**DCL      9456>>IF
ICB.BLKL
      5687**DCL      9441>>ASSIGN
ICB.CAT
      5731**DCL      9430>>ASSIGN
ICB.CLPOS
      5778**DCL      9521>>IF
ICB.CREATOR.C
      5768**DCL      9669>>IF
ICB.CREATOR.TEXT
      5769**DCL      9669>>IF
ICB.CREATOR_NEG
      5766**DCL      9678>>IF
ICB.CREATOR_SEL
      5765**DCL      9665>>IF       9675>>IF       9678>>IF      10046>>IF
ICB.DATE.RELATION
      5728**DCL      9683>>IF       9734>>DOCASE  10046>>IF
ICB.DATE.ROUNDING_TYPE
      5727**DCL      9730<>CALL
ICB.DATE.TYPE
      5726**DCL      9691>>IF       9698>>DOCASE
ICB.DATE.UTS
      5729**DCL      9736>>IF       9740>>IF       9744>>IF       9748>>IF       9752>>IF       9756>>IF
ICB.DEV_MASK
      5745**DCL      9590>>IF       9821>>IF       9969>>IF       9972>>IF      10074>>IF      10084>>IF
ICB.DEV_MASK.DEV_TAPE
      5749**DCL      9483>>IF       9488>>IF       9515>>IF       9553>>IF       9633>>IF       9827>>IF
     10011>>IF
ICB.DEV_MASK.MAN_DISC
      5747**DCL      9601>>IF
ICB.DEV_MASK.MAN_TAPE
      5748**DCL      9474>>IF       9553>>IF
PL6.E3A0      #004=VPF$OPEN_NEXT File=VPF$SRCLST.:E05TSI                         WED 07/30/97 07:37 Page:288
ICB.EBCDIC
      5677**DCL      9453>>IF
ICB.FID.STRING
      5695**DCL      5696--REDEF
ICB.FLAVOR
      5751**DCL      9968<<ASSIGN
ICB.FLAVOR.FFTAPE
      5758**DCL      9533>>IF      10014<<ASSIGN
ICB.FLAVOR.GRANB
      5756**DCL     10010<<ASSIGN
ICB.FLAVOR.HOLY_ORG
      5759**DCL      9995<<ASSIGN
ICB.FLAVOR.IOERROK
      5755**DCL      9434>>ASSIGN
ICB.FLAVOR.KEY_USABLE
      5757**DCL      9776>>IF       9989<<ASSIGN
ICB.FLAVOR.KNOWKEY
      5754**DCL     10000<<ASSIGN
ICB.FLAVOR.LTOORG
      5753**DCL     10005<<ASSIGN
ICB.FLAVOR.MANAGED
      5760**DCL      9928>>IF       9971<<ASSIGN
ICB.FLAVOR.TAPE
      5761**DCL      9974<<ASSIGN
ICB.FLAVOR.UR
      5762**DCL      9978<<ASSIGN
ICB.FPARAM_REQUIRED
      5770**DCL      9468>>IF       9474>>IF
ICB.FPARAM_REQUIRED.FOR_OPERATION
      5772**DCL     10058<<ASSIGN  10060<<ASSIGN
ICB.FPARAM_REQUIRED.FOR_SELECTION
      5771**DCL     10052<<ASSIGN  10054<<ASSIGN
ICB.FSN.FINISH
      5699**DCL      9518>>IF       9521>>IF       9616>>IF       9620>>IF       9628>>IF
ICB.FSN.START
      5698**DCL      9531>>DOINDEX  9544>>ASSIGN  10128>>ASSIGN
PL6.E3A0      #004=VPF$OPEN_NEXT File=VPF$SRCLST.:E05TSI                         WED 07/30/97 07:37 Page:289
ICB.FTORG
      5724**DCL      9436>>IF       9440>>ASSIGN
ICB.IGNOREFSN
      5781**DCL      9435>>ASSIGN
ICB.KEY_SEL
      5700**DCL      9776>>IF
ICB.NAME_RANGE_END
      5718**DCL      9570>>IF       9582>>IF      10124>>ASSIGN
ICB.NBLOCK
      5680**DCL      9443>>IF
ICB.NCNVRT
      5682**DCL      9459>>IF
ICB.NSPAN
      5679**DCL      9448>>IF
ICB.NUMFIELDS
      5779**DCL      9948<<ASSIGN   9953<<ASSIGN
ICB.ORG
      5715**DCL      9642>>IF       9642>>IF      10046>>IF
ICB.ORG_NEG
      5716**DCL      9642>>IF
ICB.PHYSICAL
      5686**DCL      9566>>IF      10084>>IF
ICB.RECL
      5688**DCL      9442>>ASSIGN
ICB.SHARE
      5683**DCL      9432>>ASSIGN
ICB.SORTING_ORDER.COUNT
      5774**DCL      9390>>IF      10046>>IF
ICB.SPEC_TYPE
      5692**DCL      9390>>IF       9471>>IF       9471>>IF       9518>>IF       9558>>DOCASE   9601>>IF
      9852>>IF       9852>>IF      10080>>IF      10080>>IF      10098>>DOCASE
ICB.SRCHCOND
      5732**DCL      9433>>ASSIGN
ICB.SRCHCOND.REV
      5743**DCL      9577>>IF       9582>>IF      10105>>IF      10120>>IF
ICB.TYPE.COUNT
PL6.E3A0      #004=VPF$OPEN_NEXT File=VPF$SRCLST.:E05TSI                         WED 07/30/97 07:37 Page:290
      5720**DCL      9647>>IF       9651>>DOINDEX 10046>>IF
ICB.TYPE.NEG
      5721**DCL      9656>>IF
ICB.TYPE.STRING
      5722**DCL      9652>>IF
ICB.VOL
      5723**DCL     10131>>IF      10134>>ASSIGN  10135<<ASSIGN
IFSFA_PARAM.EOMCHAR#
      6050**DCL      6051--REDEF
IFSFA_PARAM.SIG1
      6044**DCL      6044--REDEF
IFSFA_PARAM.SIG2
      6044**DCL      6045--REDEF
INPUT_ERR
      5210**DCL      9541<>CALL     9816<>CALL     9876<>CALL
INPUT_ERR.ERR#
      5240**DCL      9834>>IF       9834>>IF       9840>>IF       9840>>IF       9840>>IF       9849>>IF
      9861>>IF
IN_ACCT
      5616**DCL     10066--ASSIGN
IN_ASN
      5654**DCL     10073>>ASSIGN  10100>>IF
IN_NAME
      5616**DCL      9577--IF       9577--IF       9597<>CALL    10063--ASSIGN
IN_NAME.LEN
      5616**DCL      9640<<ASSIGN
IN_NAME.STRING
      5616**DCL      9604>>CALLBLT  9605>>IF       9639<<ASSIGN  10103>>CALLBLT 10109>>CALLBLT 10116>>ASSIGN
IN_PASS
      5617**DCL      9467--ASSIGN
IN_RES
      5617**DCL      5617--REDEF   10069>>ASSIGN
IN_SN
      5628**DCL      9464--ASSIGN   9538<>CALL     9556<>CALL    10077<>CALL    10089<>CALL
IN_SN.SN
      5633**DCL      5634--REDEF    9528>>ASSIGN  10093>>ASSIGN
PL6.E3A0      #004=VPF$OPEN_NEXT File=VPF$SRCLST.:E05TSI                         WED 07/30/97 07:37 Page:291
IN_WSN
      5654**DCL     10072--ASSIGN
M$CLOSE
       135**DCL-ENT  9527--CALL     9535--CALL
M$EI#
      6086**DCL      9538<>CALL     9541<>CALL     9556<>CALL     9792<>CALL     9816<>CALL     9876<>CALL
M$EI$
      6086**DCL      9508>>IF       9510>>ASSIGN   9512>>ASSIGN   9613>>IF       9616>>IF       9620>>IF
      9642>>IF       9652>>IF       9656>>IF       9675>>IF       9761>>IF       9789>>IF       9824>>ASSIGN
      9825>>ASSIGN   9915>>ASSIGN   9916>>ASSIGN   9931>>ASSIGN   9932>>ASSIGN   9939>>IF       9949>>IF
      9975>>IF       9975>>IF       9979>>IF       9979>>IF       9979>>IF       9979>>IF       9979>>IF
      9979>>IF       9979>>IF       9979>>IF       9979>>IF       9990>>IF       9990>>IF       9990>>IF
      9990>>IF       9996>>IF       9996>>IF       9996>>IF      10001>>IF      10001>>IF      10001>>IF
     10006>>IF      10006>>IF      10006>>IF      10011>>IF
M$OPEN
       135**DCL-ENT  9530--CALL     9536--CALL
M$PFIL
       137**DCL-ENT  9532--CALL
M$REM
       144**DCL-ENT  9529--CALL    10094--CALL
NAME_TEXTC
        30**DCL         6--PROC     9413--ASSIGN
NAME_TEXTC.LEN
        31**DCL        32--IMP-SIZ  9413>>ASSIGN
NEXPR
      9732**LABEL    9708--CALLALT  9711--GOTO
NO_ACCESS
      8644**DCL      9424<<ASSIGN   9642>>IF       9776>>IF       9804>>IF       9845<<ASSIGN
NO_ACC_CONT
      9558**LABEL    9847--GOTO
NO_CODE4
      9761**LABEL    9695--GOTO     9718--GOTO     9726--GOTO
NO_MORE_FILES
      8645**DCL      9404<<ASSIGN   9406>>IF       9422>>DOWHILE  9540<<ASSIGN   9561<<ASSIGN   9573<<ASSIGN
      9592<<ASSIGN   9608<<ASSIGN   9619<<ASSIGN   9630<<ASSIGN   9854<<ASSIGN   9860>>DOWHILE  9863<<ASSIGN
NO_WILD_MATCH
PL6.E3A0      #004=VPF$OPEN_NEXT File=VPF$SRCLST.:E05TSI                         WED 07/30/97 07:37 Page:292
      9601**LABEL    9597--CALLALT
OCB.TYPE
      5379**DCL      5380--REDEF
OFSFA_PARAM.EOMCHAR#
      6080**DCL      6081--REDEF
OFSFA_PARAM.SIG1
      6074**DCL      6074--REDEF
OFSFA_PARAM.SIG2
      6074**DCL      6075--REDEF
OPEN_IT
      9488**LABEL    9513--GOTO     9851--GOTO
OPEN_NAME
      8637**DCL     10104--ASSIGN  10123--ASSIGN
OPEN_NAME.LEN
      8638**DCL     10108<<ASSIGN  10115<<ASSIGN  10125<<ASSIGN
OPEN_NAME.STRING
      8639**DCL     10109<<CALLBLT 10116<<ASSIGN  10124<<ASSIGN
OUTSIDE_RANGE
      9586**LABEL    9581--GOTO     9586--GOTO
OUT_SN.SN
      5651**DCL      5652--REDEF
PFIL_ERR
      9540**LABEL    9527--CALLALT  9529--CALLALT  9530--CALLALT  9532--CALLALT
PLAY_IT_AGAIN
      9416**LABEL    9900--GOTO
REPLAY_SORTED
      9895**LABEL    9389--GOTO
RESULTS_FID_IN.ACCT
      6127**DCL     10064>>IF
RESULTS_FID_IN.NAME
      6127**DCL     10061>>IF
RESULTS_FID_IN.PASS
      6127**DCL      9465>>IF
RESULTS_FID_IN.RES
      6127**DCL     10067>>IF
RESULTS_FID_IN.SN
PL6.E3A0      #004=VPF$OPEN_NEXT File=VPF$SRCLST.:E05TSI                         WED 07/30/97 07:37 Page:293
      6127**DCL      9462>>IF
RESULTS_FID_IN.WSN
      6127**DCL     10070>>IF
RET_VAL
        28**DCL         6--PROC     9398<<ASSIGN   9409<<ASSIGN   9802<<ASSIGN   9807<<ASSIGN   9814<<ASSIGN
      9837<<ASSIGN   9870<<ASSIGN   9895>>IF       9909<<ASSIGN   9912<<ASSIGN   9914<<ASSIGN
SET_FLAVOR
      9961**PROC     9927--CALL
SET_UP_START
     10018**PROC     9403--CALL
SORTING_DONE
      9916**LABEL    9894--GOTO
SORTING_INPUT
      5327**DCL      9387>>IF       9394<<ASSIGN   9892>>IF
SORT_STATUS
      8647**DCL      9906<>CALL     9907>>DOCASE
SPEC_BUF
      5329**DCL      5329--REDEF
T
      8652**DCL      9651<<DOINDEX  9652>>IF
TEXT$C.LEN
      8635**DCL      8636--IMP-SIZ  9570>>IF       9577>>IF       9577>>IF       9582>>IF       9867>>IF
      9874>>ASSIGN
TEXT$C.STRING
      8636**DCL      9570>>IF       9577>>IF       9577>>IF       9582>>IF       9867>>IF       9874>>ASSIGN
TEXT_C
      8640**DCL      9668<>CALL
TEXT_C.C
      8641**DCL      9669>>IF
TEXT_C.TEXT
      8642**DCL      9669>>IF
TWIDDLE_AFTER_OPEN
      9922**PROC     9504--CALL     9910--CALL
UBIN$HALF
      8656**DCL      9431<<ASSIGN   9656>>IF
VOL IN PROCEDURE SET_UP_START
PL6.E3A0      #004=VPF$OPEN_NEXT File=VPF$SRCLST.:E05TSI                         WED 07/30/97 07:37 Page:294
     10043**DCL     10089<>CALL    10090>>IF      10093>>ASSIGN
VPD$CHECK_VOL
      9197**DCL-ENT  9538--CALL     9556--CALL    10077--CALL    10089--CALL
VPD$FETCH_CREATOR
      9377**DCL-ENT  9668--CALL
VPD$ROUND_DATE
      9254**DCL-ENT  9730--CALL
VPD$WILD_COMPARE
      9263**DCL-ENT  9597--CALL
VPF$CALL_OPEN
      9280**DCL-ENT  9502--CALL
VPF$CLOSE_IN
      9283**DCL-ENT  9763--CALL     9791--CALL
VPF$SORT_FID
      9371**DCL-ENT  9395--CALL     9898--CALL     9903--CALL     9906--CALL
VPL$ERR_PROC
      9357**DCL-ENT  9523--CALL     9541--CALL     9792--CALL     9816--CALL     9876--CALL
XSF$LOCCODP
      9383**DCL-ENT  9688--CALL     9708--CALL     9715--CALL     9723--CALL     9952--CALL
XUD$UTS_ADJ_25TH
      8693**DCL-ENT  9712--CALL
XUG_PARAMS.BUF
      9167**DCL      9170--REDEF
XUG_PARAMS.ERRDCB
      8827**DCL      9495<<ASSIGN

