PL6.E3A0      #007=VPF$SORT_FID File=VPF$SRCLST.:E05TSI                          WED 07/30/97 07:43 Page:414
     2399        1        /*T***********************************************************/
     2400        2        /*T*                                                         */
     2401        3        /*T* Copyright (c) Bull HN Information Systems Inc., 1997    */
     2402        4        /*T*                                                         */
     2403        5        /*T***********************************************************/
     2404        6        VPF$SORT_FID: PROC(FUNCTION,SORT_STATUS);
     2405        7        /*D* NAME: VPF$SORT_FID
     2406        8             CALL: CALL VPF$SORT_FID(FUNCTION) ALTRET(TERRIBLE);
     2407        9             DESCRIPTION: This procedure allows us to take an input spec
     2408       10                 that refers to multiple files (such as a range or wildcard),
     2409       11                 and sort the files in some user-requested order before
     2410       12                 releasing them to the command itself.
     2411       13
     2412       14                 Here's the procedure to use:
     2413       15
     2414       16                   a) CALL with FUNCTION=1.  This indicates that this
     2415       17                      subsystem is to be initialized.
     2416       18
     2417       19                   b) Go through the procedure that gets an input file and
     2418       20                      when you have one, CALL with FUNCTION=2.  This tells
     2419       21                      us the squirrel away the file (herein reffered to as the
     2420       22                      BEAST file) for later use.  The DCB if OPEN, is closed.
     2421       23
     2422       24                   c) When all the files have been found, CALL this routine
     2423       25                      with FUNCTION=3 to let us know.  We then prepare to
     2424       26                      spit the FIDs back.
     2425       27
     2426       28                   d) When you want a file, CALL this routine with
     2427       29                      FUNCTION=4.  We will return with the next file OPEN
     2428       30                      or TOPEN, as appropriate.  SORT_STATUS returns a
     2429       31                      status code indicating how the OPEN went.  The
     2430       32                      values are from the VPOC_? set of EQUs.
     2431       33
     2432       34                   e) If it becomes necessary to abort the procedure without
     2433       35                      having drained all the sorted FIDs, CALL with FUNCTION=5.
     2434       36
     2435       37                 Note that SORT_STATUS is only used on FUNCTION=4.
PL6.E3A0      #007=VPF$SORT_FID File=VPF$SRCLST.:E05TSI                          WED 07/30/97 07:43 Page:415
     2436       38
     2437       39                 Now, isn't that easy???
     2438       40        */
     2439       41        /**/
     2440       42        /*  PARAMETERS  */
     2441       43        /**/
     2442       44    1   DCL FUNCTION SBIN WORD;
     2443       45    1   DCL SORT_STATUS SBIN WORD;
     2444       46        /**/
     2445       47        /*  INCLUDE FILES  */
     2446       48        /**/
     2447       49        %INCLUDE VP_DATA_R;
     2448     7036        %INCLUDE B_ERRORS_C;
     2449     8163        /**/
     2450     8164        /*  LOCAL CONSTANTS  */
     2451     8165        /**/
     2452     8166        %FPT_OPEN(FPTN = FPT_OPEN_SORT_OUT,
     2453     8167                  DCB = M$SORT1,
     2454     8168                  DISP = SCRATCH,
     2455     8169                  FUN  = CREATE,
     2456     8170                  EXIST = NEWFILE,
     2457     8171                  ACS = DIRECT,
     2458     8172                  ASN = FILE,
     2459     8173                  ORG = KEYED,
     2460     8174                  STCLASS = CONSTANT);
     2461     8283        %FPT_WRITE(FPTN = FPT_WRITE_SORT,
     2462     8284                   DCB = M$SORT1,
     2463     8285                   BUF = SORT_DATA,
     2464     8286                   ONEWKEY = NO,
     2465     8287                   NEWKEY = YES,
     2466     8288                   KEY = SORT_KEY,
     2467     8289                   STCLASS = CONSTANT);
     2468     8320        %FPT_PFIL(FPTN = FPT_PFIL_SORT,
     2469     8321                  DCB = M$SORT1,
     2470     8322                  BOF = YES,
     2471     8323                  STCLASS = CONSTANT);
     2472     8338        %FPT_READ(FPTN = FPT_READ_SORT,
PL6.E3A0      #007=VPF$SORT_FID File=VPF$SRCLST.:E05TSI                          WED 07/30/97 07:43 Page:416
     2473     8339                  DCB  = M$SORT1,
     2474     8340                  BUF  = SORT_DATA,
     2475     8341                  KEYR = YES,
     2476     8342                  KEYS = NO,
     2477     8343                  KEY = SORT_KEY,
     2478     8344                  STCLASS = CONSTANT);
     2479     8383        %FPT_CLOSE(FPTN = FPT_CLOSE_SORT,
     2480     8384                   DCB  = M$SORT1,
     2481     8385                   STCLASS = CONSTANT);
     2482     8427        %FPT_CLOSE (FPTN = FPT_CLOSE_BEAST,
     2483     8428                    DCB = M$EI,
     2484     8429                    STCLASS = CONSTANT);
     2485     8471        /**/
     2486     8472        /*  LOCAL STATIC  */
     2487     8473        /**/
     2488     8474        %FPT_PRECORD (FPTN = FPT_PRECORD_SORT,
     2489     8475                      DCB = M$SORT1,
     2490     8476                      KEYR = YES,
     2491     8477                      KEY = SORT_KEY,
     2492     8478                      STCLASS = STATIC);
     2493     8499    1   DCL 1 SORT_KEY STATIC DALIGNED,
     2494     8500    1         2 LEN UBIN BYTE UNAL,
     2495     8501    1         2 FUZZY(0:11) SBIN WORD CALIGNED;
     2496     8502    1   DCL 1 SORT_DATA STATIC DALIGNED,
     2497     8503    1         2 NAME CALIGNED,
     2498     8504    1           3 L UBIN BYTE CALIGNED,
     2499     8505    1           3 C CHAR(31) CALIGNED,
     2500     8506    1         2 ACCT CHAR(8) CALIGNED,
     2501     8507    1         2 PSN CHAR(6) CALIGNED,
     2502     8508    1         2 PASS CHAR(8) CALIGNED,
     2503     8509    1         2 WSN CHAR(8) CALIGNED,
     2504     8510    1         2 RES CHAR(4) CALIGNED,
     2505     8511    1         2 ASN UBIN WORD;
     2506     8512    1   DCL 1 OPEN_NAME STATIC DALIGNED,
     2507     8513    1         2 LEN UBIN(9) CALIGNED,
     2508     8514    1         2 STRING CHAR(31) CALIGNED;
     2509     8515        /**/
PL6.E3A0      #007=VPF$SORT_FID File=VPF$SRCLST.:E05TSI                          WED 07/30/97 07:43 Page:417
     2510     8516        /*  BASED  */
     2511     8517        /**/
     2512     8518        %F$DCB;
     2513     8575        %B$TCB;
     2514     8578        %B$ALT;
     2515     8586        /**/
     2516     8587        /*  ENTRY DCLS  */
     2517     8588        /**/
     2518     8589        %VP_ENTRIES (OMIT=VPF$SORT_FID);
     2519     8797        /**/
     2520     8798        /*  LOCAL AUTO  */
     2521     8799        /**/
     2522     8800    1   DCL I SBIN WORD;
     2523     8801    1   DCL SYSTEM_ERR BIT(36);
     2524     8802        /**/
     2525     8803    2           DO CASE(FUNCTION);
     2526     8804        %EJECT;
PL6.E3A0      #007=VPF$SORT_FID File=VPF$SRCLST.:E05TSI                          WED 07/30/97 07:43 Page:418
     2527     8805    2            CASE(1);                       /* INITIALIZE                         */
     2528     8806    2              CALL M$OPEN(FPT_OPEN_SORT_OUT) ALTRET(AAARGH);
     2529     8807    2              SORT_KEY.LEN = (ICB.SORTING_ORDER.COUNT +1) * 4;
     2530     8808        %EJECT;
PL6.E3A0      #007=VPF$SORT_FID File=VPF$SRCLST.:E05TSI                          WED 07/30/97 07:43 Page:419
     2531     8809    2            CASE(2);                       /* INPUT NEW FID INTO SORT            */
     2532     8810        /**/
     2533     8811        /*  Set up enough data so that we can get to this file again!                 */
     2534     8812        /**/
     2535     8813    2              SORT_DATA.NAME.L = M$EI$ -> F$DCB.NAME#.L;
     2536     8814    2              SORT_DATA.NAME.C = M$EI$ -> F$DCB.NAME#.C;
     2537     8815    2              SORT_DATA.ACCT = M$EI$ -> F$DCB.ACCT#;
     2538     8816    2              SORT_DATA.PASS = IN_PASS;
     2539     8817    2              SORT_DATA.WSN = M$EI$ -> F$DCB.WSN#;
     2540     8818    2              SORT_DATA.RES = M$EI$ -> F$DCB.RES#;
     2541     8819    2              SORT_DATA.ASN = M$EI$ -> F$DCB.ASN#;
     2542     8820    2              SORT_DATA.PSN = M$EI$ -> F$DCB.PSN#;
     2543     8821        /**/
     2544     8822        /*  Create the key that will do our sorting for us.                           */
     2545     8823        /**/
     2546     8824    2              SORT_KEY.FUZZY (ICB.SORTING_ORDER.COUNT) = 0; /* For overflow/dupe */
     2547     8825    3              DO I=0 TO ICB.SORTING_ORDER.COUNT -1;
     2548     8826    3                 CALL MUNGE_KEY (I);
     2549     8827    3                 END;
     2550     8828        /**/
     2551     8829        /*  Write the data representing the file.                                     */
     2552     8830        /**/
     2553     8831    2              CALL M$WRITE(FPT_WRITE_SORT) WHENALTRETURN
     2554     8832    3               DO;
     2555     8833    3                  IF %VPSZ_ERR# ~= %E$OLDREC
     2556     8834    3                   THEN
     2557     8835    3                     GOTO AAARGH;
     2558     8836    3                  FPT_PRECORD_SORT.V.N# = 0;
     2559     8837    3                  FPT_PRECORD_SORT.V.KEYS# = %YES#;
     2560     8838    3                  SORT_KEY.FUZZY (ICB.SORTING_ORDER.COUNT) = BITBIN('777777777777'O);
     2561     8839    3                  CALL M$PRECORD (FPT_PRECORD_SORT) ALTRET(EXPECTED);
     2562     8840    3   EXPECTED:      FPT_PRECORD_SORT.V.N# = -1;
     2563     8841    3                  FPT_PRECORD_SORT.V.KEYS# = %NO#;
     2564     8842    3                  CALL M$PRECORD (FPT_PRECORD_SORT) ALTRET(AAARGH);
     2565     8843    3                  SORT_KEY.FUZZY (ICB.SORTING_ORDER.COUNT) =
     2566     8844    3                    SORT_KEY.FUZZY (ICB.SORTING_ORDER.COUNT) +1;
     2567     8845    3                  CALL M$WRITE(FPT_WRITE_SORT) ALTRET(AAARGH);
PL6.E3A0      #007=VPF$SORT_FID File=VPF$SRCLST.:E05TSI                          WED 07/30/97 07:43 Page:420
     2568     8846    3                  END;
     2569     8847        /**/
     2570     8848        /*  Close the BEAST file.                                                     */
     2571     8849        /**/
     2572     8850    2              IF M$EI$ -> F$DCB.FCD#
     2573     8851    2               THEN
     2574     8852    2                 CALL M$CLOSE (FPT_CLOSE_BEAST) ALTRET(AAARGH);
     2575     8853        %EJECT;
PL6.E3A0      #007=VPF$SORT_FID File=VPF$SRCLST.:E05TSI                          WED 07/30/97 07:43 Page:421
     2576     8854    2            CASE(3);                       /* TERMINATE SORT INPUT, REVERSE IT   */
     2577     8855    2              CALL M$PFIL(FPT_PFIL_SORT) ALTRET(AAARGH);
     2578     8856    2              FPT_OPEN_EI.V.OPER.THISF# = %YES#;
     2579     8857    2              FPT_OPEN_EI.V.OPER.NXTF# = %NO#;
     2580     8858        %EJECT;
PL6.E3A0      #007=VPF$SORT_FID File=VPF$SRCLST.:E05TSI                          WED 07/30/97 07:43 Page:422
     2581     8859    2            CASE(4);                       /* FETCH A SORTED FILE                */
     2582     8860    2              CALL M$READ (FPT_READ_SORT) WHENALTRETURN
     2583     8861    3               DO;
     2584     8862    3                  IF %VPSZ_ERR# ~= %E$EOF
     2585     8863    3                   THEN
     2586     8864    3                     GOTO AAARGH;
     2587     8865    3                  CALL MOP_UP;
     2588     8866    3                  SORT_STATUS = %VPOC_EXHAUSTED#;
     2589     8867    3                  RETURN;
     2590     8868    3                  END;
     2591     8869        /**/
     2592     8870        /*  Set up FPT to re-open BEAST file.                                         */
     2593     8871        /**/
     2594     8872    2              OPEN_NAME.LEN = SORT_DATA.NAME.L;
     2595     8873    2              OPEN_NAME.STRING = SORT_DATA.NAME.C;
     2596     8874    2              IN_ACCT = SORT_DATA.ACCT;
     2597     8875    2              IN_PASS = SORT_DATA.PASS;
     2598     8876    2              IN_WSN = SORT_DATA.WSN;
     2599     8877    2              IN_SN.SN(0) = SORT_DATA.PSN;
     2600     8878    2              IN_SN.COUNT = 1;
     2601     8879    2              FPT_OPEN_EI.V.ASN# = SORT_DATA.ASN;
     2602     8880    2              FPT_OPEN_EI.V.RES# = SORT_DATA.RES;
     2603     8881    2              FPT_OPEN_EI.NAME_ = VECTOR(OPEN_NAME);
     2604     8882        /**/
     2605     8883        /*  OPEN the BEAST file.                                                      */
     2606     8884        /**/
     2607     8885    2              CALL M$OPEN (FPT_OPEN_EI) ALTRET(REOPEN_ALT);
     2608     8886    2              SORT_STATUS = %VPOC_GOTFILE#;
     2609     8887    3              DO WHILE ('0'B);
     2610     8888    3   REOPEN_ALT:   ;
     2611     8889    3                 IF %VPSZ_ERR# = %E$NOACCESS
     2612     8890    3                   OR %VPSZ_ERR# = %E$INVSTAR
     2613     8891    3                   OR %VPSZ_ERR# = %E$CLSREL
     2614     8892    3                   OR %VPSZ_ERR# = %E$NOFILE
     2615     8893    3                   OR %VPSZ_ERR# = %E$NORESTRICT
     2616     8894    3                  THEN
     2617     8895    3                    SORT_STATUS = %VPOC_NOACCESS#;
PL6.E3A0      #007=VPF$SORT_FID File=VPF$SRCLST.:E05TSI                          WED 07/30/97 07:43 Page:423
     2618     8896    3                  ELSE                     /* Unexpected error!                  */
     2619     8897    3                    GOTO AAARGH;
     2620     8898    3                 END;
     2621     8899        %EJECT;
PL6.E3A0      #007=VPF$SORT_FID File=VPF$SRCLST.:E05TSI                          WED 07/30/97 07:43 Page:424
     2622     8900    2            CASE(5);                       /* ABORT THE SORTING PROCESS          */
     2623     8901    2              CALL MOP_UP;
     2624     8902        %EJECT;
PL6.E3A0      #007=VPF$SORT_FID File=VPF$SRCLST.:E05TSI                          WED 07/30/97 07:43 Page:425
     2625     8903    2            END;                           /* END CASE                           */
     2626     8904    1           RETURN;
     2627     8905        /**/
     2628     8906    1   AAARGH: ;
     2629     8907    1           SYSTEM_ERR = %VPSZ_ERROR#;
     2630     8908    1           CALL MOP_UP;
     2631     8909    1           CALL VPL$ERR_PROC(0,63,'06'O);
     2632     8910        /*E*   ERROR: VPF-00063
     2633     8911             MESSAGE: Internal error during selection in SORTED order:
     2634     8912        */
     2635     8913    1           CALL VPL$ERR_PROC(4,0,,SYSTEM_ERR,,,M$EI#);
     2636     8914    1           RETURN;
     2637     8915        %EJECT;
PL6.E3A0      #007=VPF$SORT_FID File=VPF$SRCLST.:E05TSI                          WED 07/30/97 07:43 Page:426
     2638     8916    1   MOP_UP: PROC;
     2639     8917        /**/
     2640     8918        /*  This routine is used to clean up after the FID-sorting process            */
     2641     8919        /*  is over and done with.  This may be because of an abort request,          */
     2642     8920        /*  or some severe error.                                                     */
     2643     8921        /*                                                                            */
     2644     8922        /*  It's OK to come through here more than once.                              */
     2645     8923        /**/
     2646     8924    2           IF M$SORT1$ -> F$DCB.FCD#
     2647     8925    2            THEN
     2648     8926    2              CALL M$CLOSE (FPT_CLOSE_SORT) ALTRET (SORT_CLOSED);
     2649     8927    2   SORT_CLOSED: ;
     2650     8928    2           SORTING_INPUT = %NO#;
     2651     8929    2           RETURN;
     2652     8930    2   END MOP_UP;
     2653     8931        %EJECT;
PL6.E3A0      #007=VPF$SORT_FID File=VPF$SRCLST.:E05TSI                          WED 07/30/97 07:43 Page:427
     2654     8932    1   MUNGE_KEY: PROC(KEY_PART);
     2655     8933        /**/
     2656     8934        /*  INCLUDES  */
     2657     8935        /**/
     2658     8936        %INCLUDE FM$FIT;
     2659     9157        /**/
     2660     9158        /*  PARAMETERS  */
     2661     9159        /**/
     2662     9160    2   DCL KEY_PART SBIN WORD;
     2663     9161        /**/
     2664     9162        /*  LOCAL AUTO  */
     2665     9163        /**/
     2666     9164    2   DCL KEY_SBIN SBIN WORD;
     2667     9165    2   DCL KEY_CHAR REDEF KEY_SBIN CHAR(4);
     2668     9166    2   DCL KEY_UBIN REDEF KEY_SBIN UBIN WORD;
     2669     9167    2   DCL CODE$ PTR;
     2670     9168        /**/
     2671     9169        /*  BASED  */
     2672     9170        /**/
     2673     9171        %CODE03;
     2674     9178        %CODE04;
     2675     9186        %CODE05;
     2676     9189        %CODE06;
     2677     9193        /**/
     2678     9194        /*  ENTRY DCLS  */
     2679     9195        /**/
     2680     9196    2   DCL XSF$LOCCODP ENTRY(2) ALTRET;
     2681     9197        /**/
     2682     9198    3           DO CASE(ICB.SORTING_ORDER.FIELD.TYPE(KEY_PART));
     2683     9199    3            CASE(1);                       /* GRANULES                           */
     2684     9200    3              CODE$ = FPARAM$;
     2685     9201    3              CALL XSF$LOCCODP(CODE$,3) ALTRET(SIGH);
     2686     9202    3              KEY_UBIN = CODE$ -> CODE03.UGRANS;
     2687     9203    3            CASE(2);                       /* Number of records                  */
     2688     9204    3              CODE$ = FPARAM$;
     2689     9205    3              CALL XSF$LOCCODP(CODE$,3) ALTRET(SIGH);
     2690     9206    3              KEY_UBIN = CODE$ -> CODE03.NRECS;
PL6.E3A0      #007=VPF$SORT_FID File=VPF$SRCLST.:E05TSI                          WED 07/30/97 07:43 Page:428
     2691     9207    3            CASE(3);                       /* Date of CREATION                   */
     2692     9208    3              CODE$ = FPARAM$;
     2693     9209    3              CALL XSF$LOCCODP(CODE$,4) ALTRET(SIGH);
     2694     9210    3              KEY_UBIN = CODE$ -> CODE04.CREATION.TIME;
     2695     9211    3            CASE(4);                       /* Date of MODIFICATION               */
     2696     9212    3              CODE$ = FPARAM$;
     2697     9213    3              CALL XSF$LOCCODP(CODE$,4) ALTRET(SIGH);
     2698     9214    3              KEY_UBIN = CODE$ -> CODE04.MODIFY.TIME;
     2699     9215    3            CASE(5);                       /* Date of EXPIRATION                 */
     2700     9216    3              KEY_SBIN = M$EI$ -> F$DCB.EXPIRE#;
     2701     9217    3            CASE(6);                       /* Date of ACCESS                     */
     2702     9218    3              CODE$ = FPARAM$;
     2703     9219    3              CALL XSF$LOCCODP(CODE$,4) ALTRET(SIGH);
     2704     9220    3              KEY_UBIN = CODE$ -> CODE04.ACCESS.TIME;
     2705     9221    3            CASE(7);                       /* Date of BACKUP                     */
     2706     9222    3              CODE$ = FPARAM$;
     2707     9223    3              CALL XSF$LOCCODP(CODE$,5) ALTRET(SIGH);
     2708     9224    3              KEY_UBIN = CODE$->CODE05.BACKUP.TIME;
     2709     9225    3            CASE(8);                       /* Date of STOW                       */
     2710     9226    3              CODE$ = FPARAM$;
     2711     9227    3              CALL XSF$LOCCODP(CODE$,6) ALTRET(SIGH);
     2712     9228    3              KEY_UBIN = CODE$->CODE06.STOW.TIME;
     2713     9229    3            CASE(9);                       /* TYPE                               */
     2714     9230    3              KEY_CHAR = M$EI$ -> F$DCB.TYPE#;
     2715     9231    3            END;                           /* END CASE                           */
     2716     9232        %EJECT;
PL6.E3A0      #007=VPF$SORT_FID File=VPF$SRCLST.:E05TSI                          WED 07/30/97 07:43 Page:429
     2717     9233        /**/
     2718     9234        /*  Make sure that the attribute we want to sort by is actually present       */
     2719     9235        /*  for this file.  If not, make a rash and undoubtedly wrong assumption      */
     2720     9236        /*  about the attribute for this file, as it's the best we can do.            */
     2721     9237        /**/
     2722     9238    3           DO WHILE ('0'B);
     2723     9239    3   SIGH:      ;                            /* File attribute for sort not present*/
     2724     9240    3              KEY_SBIN = 0;
     2725     9241    3              END;
     2726     9242        /**/
     2727     9243        /*  Take care of keys for DESCENDING ORDER.  */
     2728     9244        /**/
     2729     9245    2           IF ICB.SORTING_ORDER.FIELD.DESCENDING(KEY_PART)
     2730     9246    2            THEN                           /* Gotta bollix for descending order  */
     2731     9247    2              KEY_UBIN = 0-1 - KEY_UBIN;
     2732     9248    2           SORT_KEY.FUZZY(KEY_PART) = KEY_SBIN;
     2733     9249        /**/
     2734     9250    2           RETURN;
     2735     9251    2   END MUNGE_KEY;
     2736     9252        /**/
     2737     9253    1   END VPF$SORT_FID;

PL6.E3A0      #007=VPF$SORT_FID File=VPF$SRCLST.:E05TSI                          WED 07/30/97 07:43 Page:430
--  Include file information  --

   FM$FIT.:E05TOU  is referenced.
   B_ERRORS_C.:E05TOU  is referenced.
   B_MICROPS_C.:E05TOU  is referenced.
   XU_MACRO_C.:E05TOU  is referenced.
   VP_MACRO_C.:E05TOU  is referenced.
   XS_MACRO_C.:E05TOU  is referenced.
   VP_PERR_C.:E05TOU  is referenced.
   CP_6_SUBS.:E05TOU  is referenced.
   CP_6.:E05TOU  cannot be made into a system file and is referenced.
   VP_DATA_R.:E05TOU  cannot be made into a system file and is referenced.
   B$JIT_C.:E05TOU  was found in the system file and is never referenced.
   CP_6_C.:E05TOU  was found in the system file and is referenced.
      No diagnostics issued in procedure VPF$SORT_FID.

   Procedure VPF$SORT_FID requires 381 words for executable code.
   Procedure VPF$SORT_FID requires 20 words of local(AUTO) storage.

    No errors detected in file VPF$SRCLST.:E05TSI    .

PL6.E3A0      #007=VPF$SORT_FID File=VPF$SRCLST.:E05TSI                          WED 07/30/97 07:43 Page:431

 Object Unit name= VPF$SORT_FID                               File name= VPF$SRCLST.:E05TOU
 UTS= JUL 30 '97 07:43:54.72 WED                              Compiler= PL-6/E31         Sev=      00
 SharedLib= :SHARED_SYSTEM                                    Alt SharedLib=


    ****  Control sections  ****

 Sect   Type Bound  Init  Size OctSiz  Section name(segment info)
    0   DCB   even  none     0      0  M$UC
    1   DCB   even  none     0      0  M$EI
    2   DCB   even  none     0      0  M$EO
    3   DCB   even  none     0      0  M$EO1
    4   DCB   even  none     0      0  M$ME
    5   DCB   even  none     0      0  M$SI
    6   DCB   even  none     0      0  M$READFILE
    7   DCB   even  none     0      0  M$DO
    8   DCB   even  none     0      0  M$STD1
    9   DCB   even  none     0      0  M$SORT1
   10  RoData even  UTS    148    224  VPF$SORT_FID
   11   Data  even  none    50     62  VPF$SORT_FID
   12   Proc  even  none   381    575  VPF$SORT_FID
   13  RoData even  none    15     17  VPF$SORT_FID

    ****  Entry defs  ****

                              Check   Calling
                             calling  sequence
  Sect OctLoc Primary Altret sequence   type   Parms  Name
    12      0   yes            yes      Std        2  VPF$SORT_FID
PL6.E3A0      #007=VPF$SORT_FID File=VPF$SRCLST.:E05TSI                          WED 07/30/97 07:43 Page:432

  ****  Entry refs  ****

         Check        Calling
        calling       sequence
Altret sequence SRef   type   Args  Name
         yes           Std       8 VPL$ERR_PROC
 yes     yes           Std       2 XSF$LOCCODP
                       Std       0 B_CONSPOOL_D
                       nStd      0 X66_AUTO_2
                       nStd      0 X66_ARET

  ****  Data refs  ****

  Flags:  r = read only, s = secondary
Flgs Name                             Flgs Name                             Flgs Name
     M$UC                                  BREAK_LOC                             BREAK_MESSAGE_REPORTER
     FPARAM$                               SORTING_INPUT                         SPEC_BUF
     IN_ACCT                               IN_PASS                               IN_RES
     IN_SN                                 IN_WSN                                ICB
     M$EI                                  M$EI$                                 M$EI#
     M$EO                                  M$EO1                                 M$ME
     M$SI                                  M$READFILE                            M$DO
     M$STD1                                M$SORT1                               M$SORT1$
     B$TCB$                                FPT_OPEN_EI                           B_VECTNIL

  ****  Segment refs  ****

  Flags:  r = read only, s = secondary
Flgs Name                             Flgs Name                             Flgs Name
     ISSID                                 NULLSID
PL6.E3A0      #007=VPF$SORT_FID File=VPF$SRCLST.:E05TSI                          WED 07/30/97 07:43 Page:433


     2399        1        /*T***********************************************************/
     2400        2        /*T*                                                         */
     2401        3        /*T* Copyright (c) Bull HN Information Systems Inc., 1997    */
     2402        4        /*T*                                                         */
     2403        5        /*T***********************************************************/
     2404        6        VPF$SORT_FID: PROC(FUNCTION,SORT_STATUS);

      6 12 000000   000000 700200 xent  VPF$SORT_FID TSX0  ! X66_AUTO_2
        12 000001   000024 000002                    ZERO    20,2

     2405        7        /*D* NAME: VPF$SORT_FID
     2406        8             CALL: CALL VPF$SORT_FID(FUNCTION) ALTRET(TERRIBLE);
     2407        9             DESCRIPTION: This procedure allows us to take an input spec
     2408       10                 that refers to multiple files (such as a range or wildcard),
     2409       11                 and sort the files in some user-requested order before
     2410       12                 releasing them to the command itself.
     2411       13
     2412       14                 Here's the procedure to use:
     2413       15
     2414       16                   a) CALL with FUNCTION=1.  This indicates that this
     2415       17                      subsystem is to be initialized.
     2416       18
     2417       19                   b) Go through the procedure that gets an input file and
     2418       20                      when you have one, CALL with FUNCTION=2.  This tells
     2419       21                      us the squirrel away the file (herein reffered to as the
     2420       22                      BEAST file) for later use.  The DCB if OPEN, is closed.
     2421       23
     2422       24                   c) When all the files have been found, CALL this routine
     2423       25                      with FUNCTION=3 to let us know.  We then prepare to
     2424       26                      spit the FIDs back.
     2425       27
     2426       28                   d) When you want a file, CALL this routine with
     2427       29                      FUNCTION=4.  We will return with the next file OPEN
     2428       30                      or TOPEN, as appropriate.  SORT_STATUS returns a
     2429       31                      status code indicating how the OPEN went.  The
     2430       32                      values are from the VPOC_? set of EQUs.
PL6.E3A0      #007=VPF$SORT_FID File=VPF$SRCLST.:E05TSI                          WED 07/30/97 07:43 Page:434
     2431       33
     2432       34                   e) If it becomes necessary to abort the procedure without
     2433       35                      having drained all the sorted FIDs, CALL with FUNCTION=5.
     2434       36
     2435       37                 Note that SORT_STATUS is only used on FUNCTION=4.
     2436       38
     2437       39                 Now, isn't that easy???
     2438       40        */
     2439       41        /**/
     2440       42        /*  PARAMETERS  */
     2441       43        /**/
     2442       44    1   DCL FUNCTION SBIN WORD;
     2443       45    1   DCL SORT_STATUS SBIN WORD;
     2444       46        /**/
     2445       47        /*  INCLUDE FILES  */
     2446       48        /**/
     2447       49        %INCLUDE VP_DATA_R;
     2448     7036        %INCLUDE B_ERRORS_C;
     2449     8163        /**/
     2450     8164        /*  LOCAL CONSTANTS  */
     2451     8165        /**/
     2452     8166        %FPT_OPEN(FPTN = FPT_OPEN_SORT_OUT,
     2453     8167                  DCB = M$SORT1,
     2454     8168                  DISP = SCRATCH,
     2455     8169                  FUN  = CREATE,
     2456     8170                  EXIST = NEWFILE,
     2457     8171                  ACS = DIRECT,
     2458     8172                  ASN = FILE,
     2459     8173                  ORG = KEYED,
     2460     8174                  STCLASS = CONSTANT);
     2461     8283        %FPT_WRITE(FPTN = FPT_WRITE_SORT,
     2462     8284                   DCB = M$SORT1,
     2463     8285                   BUF = SORT_DATA,
     2464     8286                   ONEWKEY = NO,
     2465     8287                   NEWKEY = YES,
     2466     8288                   KEY = SORT_KEY,
     2467     8289                   STCLASS = CONSTANT);
PL6.E3A0      #007=VPF$SORT_FID File=VPF$SRCLST.:E05TSI                          WED 07/30/97 07:43 Page:435
     2468     8320        %FPT_PFIL(FPTN = FPT_PFIL_SORT,
     2469     8321                  DCB = M$SORT1,
     2470     8322                  BOF = YES,
     2471     8323                  STCLASS = CONSTANT);
     2472     8338        %FPT_READ(FPTN = FPT_READ_SORT,
     2473     8339                  DCB  = M$SORT1,
     2474     8340                  BUF  = SORT_DATA,
     2475     8341                  KEYR = YES,
     2476     8342                  KEYS = NO,
     2477     8343                  KEY = SORT_KEY,
     2478     8344                  STCLASS = CONSTANT);
     2479     8383        %FPT_CLOSE(FPTN = FPT_CLOSE_SORT,
     2480     8384                   DCB  = M$SORT1,
     2481     8385                   STCLASS = CONSTANT);
     2482     8427        %FPT_CLOSE (FPTN = FPT_CLOSE_BEAST,
     2483     8428                    DCB = M$EI,
     2484     8429                    STCLASS = CONSTANT);
     2485     8471        /**/
     2486     8472        /*  LOCAL STATIC  */
     2487     8473        /**/
     2488     8474        %FPT_PRECORD (FPTN = FPT_PRECORD_SORT,
     2489     8475                      DCB = M$SORT1,
     2490     8476                      KEYR = YES,
     2491     8477                      KEY = SORT_KEY,
     2492     8478                      STCLASS = STATIC);
     2493     8499    1   DCL 1 SORT_KEY STATIC DALIGNED,
     2494     8500    1         2 LEN UBIN BYTE UNAL,
     2495     8501    1         2 FUZZY(0:11) SBIN WORD CALIGNED;
     2496     8502    1   DCL 1 SORT_DATA STATIC DALIGNED,
     2497     8503    1         2 NAME CALIGNED,
     2498     8504    1           3 L UBIN BYTE CALIGNED,
     2499     8505    1           3 C CHAR(31) CALIGNED,
     2500     8506    1         2 ACCT CHAR(8) CALIGNED,
     2501     8507    1         2 PSN CHAR(6) CALIGNED,
     2502     8508    1         2 PASS CHAR(8) CALIGNED,
     2503     8509    1         2 WSN CHAR(8) CALIGNED,
     2504     8510    1         2 RES CHAR(4) CALIGNED,
PL6.E3A0      #007=VPF$SORT_FID File=VPF$SRCLST.:E05TSI                          WED 07/30/97 07:43 Page:436
     2505     8511    1         2 ASN UBIN WORD;
     2506     8512    1   DCL 1 OPEN_NAME STATIC DALIGNED,
     2507     8513    1         2 LEN UBIN(9) CALIGNED,
     2508     8514    1         2 STRING CHAR(31) CALIGNED;
     2509     8515        /**/
     2510     8516        /*  BASED  */
     2511     8517        /**/
     2512     8518        %F$DCB;
     2513     8575        %B$TCB;
     2514     8578        %B$ALT;
     2515     8586        /**/
     2516     8587        /*  ENTRY DCLS  */
     2517     8588        /**/
     2518     8589        %VP_ENTRIES (OMIT=VPF$SORT_FID);
     2519     8797        /**/
     2520     8798        /*  LOCAL AUTO  */
     2521     8799        /**/
     2522     8800    1   DCL I SBIN WORD;
     2523     8801    1   DCL SYSTEM_ERR BIT(36);
     2524     8802        /**/
     2525     8803    2           DO CASE(FUNCTION);

   8803 12 000002   200003 470500                    LDP0    @FUNCTION,,AUTO
        12 000003   000000 235100                    LDA     0,,PR0
        12 000004   000006 115007                    CMPA    6,DL
        12 000005   000007 602005 12                 TNC     s:8803+5,AL
        12 000006   000307 710000 12                 TRA     s:8904
        12 000007   000307 710000 12                 TRA     s:8904
        12 000010   000015 710000 12                 TRA     s:8806
        12 000011   000027 710000 12                 TRA     s:8813
        12 000012   000165 710000 12                 TRA     s:8855
        12 000013   000176 710000 12                 TRA     s:8860
        12 000014   000305 710000 12                 TRA     s:8901

     2526     8804        %EJECT;
PL6.E3A0      #007=VPF$SORT_FID File=VPF$SRCLST.:E05TSI                          WED 07/30/97 07:43 Page:437
     2527     8805    2            CASE(1);                       /* INITIALIZE                         */

     2528     8806    2              CALL M$OPEN(FPT_OPEN_SORT_OUT) ALTRET(AAARGH);

   8806 12 000015   000000 630400 10                 EPPR0   FPT_OPEN_SORT_OUT
        12 000016   450000 713400                    CLIMB   alt,open
        12 000017   410400 401760                    pmme    nvectors=18
        12 000020   000310 702000 12                 TSX2    AAARGH

     2529     8807    2              SORT_KEY.LEN = (ICB.SORTING_ORDER.COUNT +1) * 4;

   8807 12 000021   000204 236000 xsym               LDQ     ICB+132
        12 000022   000002 736000                    QLS     2
        12 000023   000004 036007                    ADLQ    4,DL
        12 000024   000033 736000                    QLS     27
        12 000025   000012 552040 11                 STBQ    SORT_KEY,'40'O
        12 000026   000307 710000 12                 TRA     s:8904

     2530     8808        %EJECT;
PL6.E3A0      #007=VPF$SORT_FID File=VPF$SRCLST.:E05TSI                          WED 07/30/97 07:43 Page:438
     2531     8809    2            CASE(2);                       /* INPUT NEW FID INTO SORT            */

     2532     8810        /**/
     2533     8811        /*  Set up enough data so that we can get to this file again!                 */
     2534     8812        /**/
     2535     8813    2              SORT_DATA.NAME.L = M$EI$ -> F$DCB.NAME#.L;

   8813 12 000027   000000 471400 xsym               LDP1    M$EI$
        12 000030   100010 236100                    LDQ     8,,PR1
        12 000031   000030 552040 11                 STBQ    SORT_DATA,'40'O

     2536     8814    2              SORT_DATA.NAME.C = M$EI$ -> F$DCB.NAME#.C;

   8814 12 000032   040000 100500                    MLR     fill='040'O
        12 000033   100010 200037                    ADSC9   8,,PR1                   cn=1,n=31
        12 000034   000030 200037 11                 ADSC9   SORT_DATA                cn=1,n=31

     2537     8815    2              SORT_DATA.ACCT = M$EI$ -> F$DCB.ACCT#;

   8815 12 000035   100020 237100                    LDAQ    16,,PR1
        12 000036   000040 757000 11                 STAQ    SORT_DATA+8

     2538     8816    2              SORT_DATA.PASS = IN_PASS;

   8816 12 000037   040000 100400                    MLR     fill='040'O
        12 000040   000000 000010 xsym               ADSC9   IN_PASS                  cn=0,n=8
        12 000041   000043 400010 11                 ADSC9   SORT_DATA+11             cn=2,n=8

     2539     8817    2              SORT_DATA.WSN = M$EI$ -> F$DCB.WSN#;

   8817 12 000042   040000 100500                    MLR     fill='040'O
        12 000043   100027 000010                    ADSC9   23,,PR1                  cn=0,n=8
        12 000044   000045 400010 11                 ADSC9   SORT_DATA+13             cn=2,n=8

     2540     8818    2              SORT_DATA.RES = M$EI$ -> F$DCB.RES#;

   8818 12 000045   040000 100500                    MLR     fill='040'O
PL6.E3A0      #007=VPF$SORT_FID File=VPF$SRCLST.:E05TSI                          WED 07/30/97 07:43 Page:439
        12 000046   100026 000004                    ADSC9   22,,PR1                  cn=0,n=4
        12 000047   000047 400004 11                 ADSC9   SORT_DATA+15             cn=2,n=4

     2541     8819    2              SORT_DATA.ASN = M$EI$ -> F$DCB.ASN#;

   8819 12 000050   100032 236100                    LDQ     26,,PR1
        12 000051   000011 772000                    QRL     9
        12 000052   000777 376007                    ANQ     511,DL
        12 000053   000051 756000 11                 STQ     SORT_DATA+17

     2542     8820    2              SORT_DATA.PSN = M$EI$ -> F$DCB.PSN#;

   8820 12 000054   040000 100500                    MLR     fill='040'O
        12 000055   100024 000006                    ADSC9   20,,PR1                  cn=0,n=6
        12 000056   000042 000006 11                 ADSC9   SORT_DATA+10             cn=0,n=6

     2543     8821        /**/
     2544     8822        /*  Create the key that will do our sorting for us.                           */
     2545     8823        /**/
     2546     8824    2              SORT_KEY.FUZZY (ICB.SORTING_ORDER.COUNT) = 0; /* For overflow/dupe */

   8824 12 000057   000204 235000 xsym               LDA     ICB+132
        12 000060   000002 735000                    ALS     2
        12 000061   000005 100400                    MLR     fill='000'O
        12 000062   000002 000004 xsym               ADSC9   B_VECTNIL+2              cn=0,n=4
        12 000063   000012 200004 11                 ADSC9   SORT_KEY,A               cn=1,n=4

     2547     8825    3              DO I=0 TO ICB.SORTING_ORDER.COUNT -1;

   8825 12 000064   200005 450100                    STZ     I,,AUTO
        12 000065   000073 710000 12                 TRA     s:8827+1

     2548     8826    3                 CALL MUNGE_KEY (I);

   8826 12 000066   200005 630500                    EPPR0   I,,AUTO
        12 000067   200011 450500                    STP0    SYSTEM_ERR+3,,AUTO
        12 000070   000356 701000 12                 TSX1    MUNGE_KEY
PL6.E3A0      #007=VPF$SORT_FID File=VPF$SRCLST.:E05TSI                          WED 07/30/97 07:43 Page:440
        12 000071   000000 011000                    NOP     0

     2549     8827    3                 END;

   8827 12 000072   200005 054100                    AOS     I,,AUTO
        12 000073   200005 236100                    LDQ     I,,AUTO
        12 000074   000204 116000 xsym               CMPQ    ICB+132
        12 000075   000066 604000 12                 TMI     s:8826

     2550     8828        /**/
     2551     8829        /*  Write the data representing the file.                                     */
     2552     8830        /**/
     2553     8831    2              CALL M$WRITE(FPT_WRITE_SORT) WHENALTRETURN

   8831 12 000076   000072 630400 10                 EPPR0   FPT_WRITE_SORT
        12 000077   440001 713400                    CLIMB   alt,write
        12 000100   401400 401760                    pmme    nvectors=4
        12 000101   000103 702000 12                 TSX2    s:8833
        12 000102   000154 710000 12                 TRA     s:8850

     2554     8832    3               DO;

     2555     8833    3                  IF %VPSZ_ERR# ~= %E$OLDREC

   8833 12 000103   000000 470400 xsym               LDP0    B$TCB$
        12 000104   000000 471500                    LDP1    0,,PR0
        12 000105   100102 236100                    LDQ     66,,PR1
        12 000106   377770 376007                    ANQ     131064,DL
        12 000107   000750 116007                    CMPQ    488,DL
        12 000110   000310 601000 12                 TNZ     AAARGH

     2556     8834    3                   THEN
     2557     8835    3                     GOTO AAARGH;
     2558     8836    3                  FPT_PRECORD_SORT.V.N# = 0;

   8836 12 000111   000007 450000 11                 STZ     FPT_PRECORD_SORT+7

PL6.E3A0      #007=VPF$SORT_FID File=VPF$SRCLST.:E05TSI                          WED 07/30/97 07:43 Page:441
     2559     8837    3                  FPT_PRECORD_SORT.V.KEYS# = %YES#;

   8837 12 000112   400000 236007                    LDQ     -131072,DL
        12 000113   000006 256000 11                 ORSQ    FPT_PRECORD_SORT+6

     2560     8838    3                  SORT_KEY.FUZZY (ICB.SORTING_ORDER.COUNT) = BITBIN('777777777777'O);

   8838 12 000114   000204 235000 xsym               LDA     ICB+132
        12 000115   000002 735000                    ALS     2
        12 000116   000005 100400                    MLR     fill='000'O
        12 000117   000027 000004 xsym               ADSC9   B_VECTNIL+23             cn=0,n=4
        12 000120   000012 200004 11                 ADSC9   SORT_KEY,A               cn=1,n=4

     2561     8839    3                  CALL M$PRECORD (FPT_PRECORD_SORT) ALTRET(EXPECTED);

   8839 12 000121   000000 630400 11                 EPPR0   FPT_PRECORD_SORT
        12 000122   440003 713400                    CLIMB   alt,+16387
        12 000123   401000 401760                    pmme    nvectors=3
        12 000124   000125 702000 12                 TSX2    EXPECTED

     2562     8840    3   EXPECTED:      FPT_PRECORD_SORT.V.N# = -1;

   8840 12 000125   000001 335007       EXPECTED     LCA     1,DL
        12 000126   000007 755000 11                 STA     FPT_PRECORD_SORT+7

     2563     8841    3                  FPT_PRECORD_SORT.V.KEYS# = %NO#;

   8841 12 000127   000000 236000 13                 LDQ     0
        12 000130   000006 356000 11                 ANSQ    FPT_PRECORD_SORT+6

     2564     8842    3                  CALL M$PRECORD (FPT_PRECORD_SORT) ALTRET(AAARGH);

   8842 12 000131   000000 630400 11                 EPPR0   FPT_PRECORD_SORT
        12 000132   440003 713400                    CLIMB   alt,+16387
        12 000133   401000 401760                    pmme    nvectors=3
        12 000134   000310 702000 12                 TSX2    AAARGH

PL6.E3A0      #007=VPF$SORT_FID File=VPF$SRCLST.:E05TSI                          WED 07/30/97 07:43 Page:442
     2565     8843    3                  SORT_KEY.FUZZY (ICB.SORTING_ORDER.COUNT) =

   8843 12 000135   000204 720000 xsym               LXL0    ICB+132
        12 000136   000012 235010 11                 LDA     SORT_KEY,X0
        12 000137   000013 236010 11                 LDQ     SORT_KEY+1,X0
        12 000140   000033 773000                    LRL     27
        12 000141   000001 036007                    ADLQ    1,DL
        12 000142   200014 756100                    STQ     CODE$+1,,AUTO
        12 000143   000000 635010                    EAA     0,X0
        12 000144   000020 731000                    ARS     16
        12 000145   000005 100500                    MLR     fill='000'O
        12 000146   200014 000004                    ADSC9   CODE$+1,,AUTO            cn=0,n=4
        12 000147   000012 200004 11                 ADSC9   SORT_KEY,A               cn=1,n=4

     2566     8844    3                    SORT_KEY.FUZZY (ICB.SORTING_ORDER.COUNT) +1;
     2567     8845    3                  CALL M$WRITE(FPT_WRITE_SORT) ALTRET(AAARGH);

   8845 12 000150   000072 630400 10                 EPPR0   FPT_WRITE_SORT
        12 000151   440001 713400                    CLIMB   alt,write
        12 000152   401400 401760                    pmme    nvectors=4
        12 000153   000310 702000 12                 TSX2    AAARGH

     2568     8846    3                  END;

     2569     8847        /**/
     2570     8848        /*  Close the BEAST file.                                                     */
     2571     8849        /**/
     2572     8850    2              IF M$EI$ -> F$DCB.FCD#

   8850 12 000154   000000 470400 xsym               LDP0    M$EI$
        12 000155   000031 236100                    LDQ     25,,PR0
        12 000156   020000 316007                    CANQ    8192,DL
        12 000157   000307 600000 12                 TZE     s:8904

     2573     8851    2               THEN
     2574     8852    2                 CALL M$CLOSE (FPT_CLOSE_BEAST) ALTRET(AAARGH);

PL6.E3A0      #007=VPF$SORT_FID File=VPF$SRCLST.:E05TSI                          WED 07/30/97 07:43 Page:443
   8852 12 000160   000166 630400 10                 EPPR0   FPT_CLOSE_BEAST
        12 000161   450001 713400                    CLIMB   alt,close
        12 000162   406000 401760                    pmme    nvectors=13
        12 000163   000310 702000 12                 TSX2    AAARGH
        12 000164   000307 710000 12                 TRA     s:8904

     2575     8853        %EJECT;
PL6.E3A0      #007=VPF$SORT_FID File=VPF$SRCLST.:E05TSI                          WED 07/30/97 07:43 Page:444
     2576     8854    2            CASE(3);                       /* TERMINATE SORT INPUT, REVERSE IT   */

     2577     8855    2              CALL M$PFIL(FPT_PFIL_SORT) ALTRET(AAARGH);

   8855 12 000165   000106 630400 10                 EPPR0   FPT_PFIL_SORT
        12 000166   440004 713400                    CLIMB   alt,+16388
        12 000167   400000 401760                    pmme    nvectors=1
        12 000170   000310 702000 12                 TSX2    AAARGH

     2578     8856    2              FPT_OPEN_EI.V.OPER.THISF# = %YES#;

   8856 12 000171   002000 236007                    LDQ     1024,DL
        12 000172   000044 256000 xsym               ORSQ    FPT_OPEN_EI+36

     2579     8857    2              FPT_OPEN_EI.V.OPER.NXTF# = %NO#;

   8857 12 000173   000001 236000 13                 LDQ     1
        12 000174   000044 356000 xsym               ANSQ    FPT_OPEN_EI+36
        12 000175   000307 710000 12                 TRA     s:8904

     2580     8858        %EJECT;
PL6.E3A0      #007=VPF$SORT_FID File=VPF$SRCLST.:E05TSI                          WED 07/30/97 07:43 Page:445
     2581     8859    2            CASE(4);                       /* FETCH A SORTED FILE                */

     2582     8860    2              CALL M$READ (FPT_READ_SORT) WHENALTRETURN

   8860 12 000176   000112 630400 10                 EPPR0   FPT_READ_SORT
        12 000177   440000 713400                    CLIMB   alt,read
        12 000200   401400 401760                    pmme    nvectors=4
        12 000201   000203 702000 12                 TSX2    s:8862
        12 000202   000217 710000 12                 TRA     s:8872

     2583     8861    3               DO;

     2584     8862    3                  IF %VPSZ_ERR# ~= %E$EOF

   8862 12 000203   000000 470400 xsym               LDP0    B$TCB$
        12 000204   000000 471500                    LDP1    0,,PR0
        12 000205   100102 236100                    LDQ     66,,PR1
        12 000206   377770 376007                    ANQ     131064,DL
        12 000207   000060 116007                    CMPQ    48,DL
        12 000210   000310 601000 12                 TNZ     AAARGH

     2585     8863    3                   THEN
     2586     8864    3                     GOTO AAARGH;
     2587     8865    3                  CALL MOP_UP;

   8865 12 000211   000342 701000 12                 TSX1    MOP_UP
        12 000212   000000 011000                    NOP     0

     2588     8866    3                  SORT_STATUS = %VPOC_EXHAUSTED#;

   8866 12 000213   000001 235007                    LDA     1,DL
        12 000214   200004 470500                    LDP0    @SORT_STATUS,,AUTO
        12 000215   000000 755100                    STA     0,,PR0

     2589     8867    3                  RETURN;

   8867 12 000216   000000 702200 xent               TSX2  ! X66_ARET
PL6.E3A0      #007=VPF$SORT_FID File=VPF$SRCLST.:E05TSI                          WED 07/30/97 07:43 Page:446

     2590     8868    3                  END;
     2591     8869        /**/
     2592     8870        /*  Set up FPT to re-open BEAST file.                                         */
     2593     8871        /**/
     2594     8872    2              OPEN_NAME.LEN = SORT_DATA.NAME.L;

   8872 12 000217   000030 236000 11                 LDQ     SORT_DATA
        12 000220   000052 552040 11                 STBQ    OPEN_NAME,'40'O

     2595     8873    2              OPEN_NAME.STRING = SORT_DATA.NAME.C;

   8873 12 000221   040000 100400                    MLR     fill='040'O
        12 000222   000030 200037 11                 ADSC9   SORT_DATA                cn=1,n=31
        12 000223   000052 200037 11                 ADSC9   OPEN_NAME                cn=1,n=31

     2596     8874    2              IN_ACCT = SORT_DATA.ACCT;

   8874 12 000224   000040 237000 11                 LDAQ    SORT_DATA+8
        12 000225   000000 755000 xsym               STA     IN_ACCT
        12 000226   000001 756000 xsym               STQ     IN_ACCT+1

     2597     8875    2              IN_PASS = SORT_DATA.PASS;

   8875 12 000227   040000 100400                    MLR     fill='040'O
        12 000230   000043 400010 11                 ADSC9   SORT_DATA+11             cn=2,n=8
        12 000231   000000 000010 xsym               ADSC9   IN_PASS                  cn=0,n=8

     2598     8876    2              IN_WSN = SORT_DATA.WSN;

   8876 12 000232   040000 100400                    MLR     fill='040'O
        12 000233   000045 400010 11                 ADSC9   SORT_DATA+13             cn=2,n=8
        12 000234   000000 000010 xsym               ADSC9   IN_WSN                   cn=0,n=8

     2599     8877    2              IN_SN.SN(0) = SORT_DATA.PSN;

   8877 12 000235   040000 100400                    MLR     fill='040'O
PL6.E3A0      #007=VPF$SORT_FID File=VPF$SRCLST.:E05TSI                          WED 07/30/97 07:43 Page:447
        12 000236   000042 000006 11                 ADSC9   SORT_DATA+10             cn=0,n=6
        12 000237   000001 000006 xsym               ADSC9   IN_SN+1                  cn=0,n=6

     2600     8878    2              IN_SN.COUNT = 1;

   8878 12 000240   000001 235007                    LDA     1,DL
        12 000241   000000 755000 xsym               STA     IN_SN

     2601     8879    2              FPT_OPEN_EI.V.ASN# = SORT_DATA.ASN;

   8879 12 000242   000051 236000 11                 LDQ     SORT_DATA+17
        12 000243   000045 552004 xsym               STBQ    FPT_OPEN_EI+37,'04'O

     2602     8880    2              FPT_OPEN_EI.V.RES# = SORT_DATA.RES;

   8880 12 000244   000047 235000 11                 LDA     SORT_DATA+15
        12 000245   000050 236000 11                 LDQ     SORT_DATA+16
        12 000246   000022 773000                    LRL     18
        12 000247   000027 376000 xsym               ANQ     B_VECTNIL+23
        12 000250   000050 756000 xsym               STQ     FPT_OPEN_EI+40

     2603     8881    2              FPT_OPEN_EI.NAME_ = VECTOR(OPEN_NAME);

   8881 12 000251   000002 237000 13                 LDAQ    2
        12 000252   000006 757000 xsym               STAQ    FPT_OPEN_EI+6

     2604     8882        /**/
     2605     8883        /*  OPEN the BEAST file.                                                      */
     2606     8884        /**/
     2607     8885    2              CALL M$OPEN (FPT_OPEN_EI) ALTRET(REOPEN_ALT);

   8885 12 000253   000000 630400 xsym               EPPR0   FPT_OPEN_EI
        12 000254   450000 713400                    CLIMB   alt,open
        12 000255   410400 401760                    pmme    nvectors=18
        12 000256   000262 702000 12                 TSX2    REOPEN_ALT

     2608     8886    2              SORT_STATUS = %VPOC_GOTFILE#;
PL6.E3A0      #007=VPF$SORT_FID File=VPF$SRCLST.:E05TSI                          WED 07/30/97 07:43 Page:448

   8886 12 000257   200004 470500                    LDP0    @SORT_STATUS,,AUTO
        12 000260   000000 450100                    STZ     0,,PR0

     2609     8887    3              DO WHILE ('0'B);

   8887 12 000261   000307 710000 12                 TRA     s:8904

   8885 12 000262                       REOPEN_ALT   null
     2610     8888    3   REOPEN_ALT:   ;
     2611     8889    3                 IF %VPSZ_ERR# = %E$NOACCESS

   8889 12 000262   000000 470400 xsym               LDP0    B$TCB$
        12 000263   000000 471500                    LDP1    0,,PR0
        12 000264   100102 236100                    LDQ     66,,PR1
        12 000265   377770 376007                    ANQ     131064,DL
        12 000266   001640 116007                    CMPQ    928,DL
        12 000267   000300 600000 12                 TZE     s:8895
        12 000270   001600 116007                    CMPQ    896,DL
        12 000271   000300 600000 12                 TZE     s:8895
        12 000272   002330 116007                    CMPQ    1240,DL
        12 000273   000300 600000 12                 TZE     s:8895
        12 000274   001610 116007                    CMPQ    904,DL
        12 000275   000300 600000 12                 TZE     s:8895
        12 000276   013010 116007                    CMPQ    5640,DL
        12 000277   000310 601000 12                 TNZ     AAARGH

     2612     8890    3                   OR %VPSZ_ERR# = %E$INVSTAR
     2613     8891    3                   OR %VPSZ_ERR# = %E$CLSREL
     2614     8892    3                   OR %VPSZ_ERR# = %E$NOFILE
     2615     8893    3                   OR %VPSZ_ERR# = %E$NORESTRICT
     2616     8894    3                  THEN
     2617     8895    3                    SORT_STATUS = %VPOC_NOACCESS#;

   8895 12 000300   000002 235007                    LDA     2,DL
        12 000301   200004 473500                    LDP3    @SORT_STATUS,,AUTO
        12 000302   300000 755100                    STA     0,,PR3
PL6.E3A0      #007=VPF$SORT_FID File=VPF$SRCLST.:E05TSI                          WED 07/30/97 07:43 Page:449
        12 000303   000304 710000 12                 TRA     s:8898

     2618     8896    3                  ELSE                     /* Unexpected error!                  */
     2619     8897    3                    GOTO AAARGH;
     2620     8898    3                 END;

   8898 12 000304   000307 710000 12                 TRA     s:8904

     2621     8899        %EJECT;
PL6.E3A0      #007=VPF$SORT_FID File=VPF$SRCLST.:E05TSI                          WED 07/30/97 07:43 Page:450
     2622     8900    2            CASE(5);                       /* ABORT THE SORTING PROCESS          */

     2623     8901    2              CALL MOP_UP;

   8901 12 000305   000342 701000 12                 TSX1    MOP_UP
        12 000306   000000 011000                    NOP     0

     2624     8902        %EJECT;
PL6.E3A0      #007=VPF$SORT_FID File=VPF$SRCLST.:E05TSI                          WED 07/30/97 07:43 Page:451
     2625     8903    2            END;                           /* END CASE                           */

     2626     8904    1           RETURN;

   8904 12 000307   000000 702200 xent               TSX2  ! X66_ARET

   8893 12 000310                       AAARGH       null
     2627     8905        /**/
     2628     8906    1   AAARGH: ;
     2629     8907    1           SYSTEM_ERR = %VPSZ_ERROR#;

   8907 12 000310   000000 470400 xsym               LDP0    B$TCB$
        12 000311   000000 471500                    LDP1    0,,PR0
        12 000312   100102 236100                    LDQ     66,,PR1
        12 000313   200006 756100                    STQ     SYSTEM_ERR,,AUTO

     2630     8908    1           CALL MOP_UP;

   8908 12 000314   000342 701000 12                 TSX1    MOP_UP
        12 000315   000000 011000                    NOP     0

     2631     8909    1           CALL VPL$ERR_PROC(0,63,'06'O);

   8909 12 000316   000006 630400 13                 EPPR0   6
        12 000317   000021 631400 xsym               EPPR1   B_VECTNIL+17
        12 000320   000000 701000 xent               TSX1    VPL$ERR_PROC
        12 000321   000000 011000                    NOP     0

     2632     8910        /*E*   ERROR: VPF-00063
     2633     8911             MESSAGE: Internal error during selection in SORTED order:
     2634     8912        */
     2635     8913    1           CALL VPL$ERR_PROC(4,0,,SYSTEM_ERR,,,M$EI#);

   8913 12 000322   000011 236000 13                 LDQ     9
        12 000323   200022 756100                    STQ     CODE$+7,,AUTO
        12 000324   000001 236000 xsym               LDQ     B_VECTNIL+1
        12 000325   000001 235000 xsym               LDA     B_VECTNIL+1
PL6.E3A0      #007=VPF$SORT_FID File=VPF$SRCLST.:E05TSI                          WED 07/30/97 07:43 Page:452
        12 000326   200020 757100                    STAQ    CODE$+5,,AUTO
        12 000327   200006 630500                    EPPR0   SYSTEM_ERR,,AUTO
        12 000330   200017 450500                    STP0    CODE$+4,,AUTO
        12 000331   000001 236000 xsym               LDQ     B_VECTNIL+1
        12 000332   200016 756100                    STQ     CODE$+3,,AUTO
        12 000333   000012 237000 13                 LDAQ    10
        12 000334   200014 757100                    STAQ    CODE$+1,,AUTO
        12 000335   200014 630500                    EPPR0   CODE$+1,,AUTO
        12 000336   000025 631400 xsym               EPPR1   B_VECTNIL+21
        12 000337   000000 701000 xent               TSX1    VPL$ERR_PROC
        12 000340   000000 011000                    NOP     0

     2636     8914    1           RETURN;

   8914 12 000341   000000 702200 xent               TSX2  ! X66_ARET

     2637     8915        %EJECT;
PL6.E3A0      #007=VPF$SORT_FID File=VPF$SRCLST.:E05TSI                          WED 07/30/97 07:43 Page:453
     2638     8916    1   MOP_UP: PROC;

   8916 12 000342   200010 741300       MOP_UP       STX1  ! SYSTEM_ERR+2,,AUTO

     2639     8917        /**/
     2640     8918        /*  This routine is used to clean up after the FID-sorting process            */
     2641     8919        /*  is over and done with.  This may be because of an abort request,          */
     2642     8920        /*  or some severe error.                                                     */
     2643     8921        /*                                                                            */
     2644     8922        /*  It's OK to come through here more than once.                              */
     2645     8923        /**/
     2646     8924    2           IF M$SORT1$ -> F$DCB.FCD#

   8924 12 000343   000000 470400 xsym               LDP0    M$SORT1$
        12 000344   000031 236100                    LDQ     25,,PR0
        12 000345   020000 316007                    CANQ    8192,DL
        12 000346   000353 600000 12                 TZE     SORT_CLOSED

     2647     8925    2            THEN
     2648     8926    2              CALL M$CLOSE (FPT_CLOSE_SORT) ALTRET (SORT_CLOSED);

   8926 12 000347   000130 630400 10                 EPPR0   FPT_CLOSE_SORT
        12 000350   450001 713400                    CLIMB   alt,close
        12 000351   406000 401760                    pmme    nvectors=13
        12 000352   000353 702000 12                 TSX2    SORT_CLOSED

   8925 12 000353                       SORT_CLOSED  null
     2649     8927    2   SORT_CLOSED: ;
     2650     8928    2           SORTING_INPUT = %NO#;

   8928 12 000353   000000 450000 xsym               STZ     SORTING_INPUT

     2651     8929    2           RETURN;

   8929 12 000354   200010 221300                    LDX1  ! SYSTEM_ERR+2,,AUTO
        12 000355   000001 702211                    TSX2  ! 1,X1

PL6.E3A0      #007=VPF$SORT_FID File=VPF$SRCLST.:E05TSI                          WED 07/30/97 07:43 Page:454
     2652     8930    2   END MOP_UP;
     2653     8931        %EJECT;
PL6.E3A0      #007=VPF$SORT_FID File=VPF$SRCLST.:E05TSI                          WED 07/30/97 07:43 Page:455
     2654     8932    1   MUNGE_KEY: PROC(KEY_PART);

   8932 12 000356   200010 741300       MUNGE_KEY    STX1  ! SYSTEM_ERR+2,,AUTO

     2655     8933        /**/
     2656     8934        /*  INCLUDES  */
     2657     8935        /**/
     2658     8936        %INCLUDE FM$FIT;
     2659     9157        /**/
     2660     9158        /*  PARAMETERS  */
     2661     9159        /**/
     2662     9160    2   DCL KEY_PART SBIN WORD;
     2663     9161        /**/
     2664     9162        /*  LOCAL AUTO  */
     2665     9163        /**/
     2666     9164    2   DCL KEY_SBIN SBIN WORD;
     2667     9165    2   DCL KEY_CHAR REDEF KEY_SBIN CHAR(4);
     2668     9166    2   DCL KEY_UBIN REDEF KEY_SBIN UBIN WORD;
     2669     9167    2   DCL CODE$ PTR;
     2670     9168        /**/
     2671     9169        /*  BASED  */
     2672     9170        /**/
     2673     9171        %CODE03;
     2674     9178        %CODE04;
     2675     9186        %CODE05;
     2676     9189        %CODE06;
     2677     9193        /**/
     2678     9194        /*  ENTRY DCLS  */
     2679     9195        /**/
     2680     9196    2   DCL XSF$LOCCODP ENTRY(2) ALTRET;
     2681     9197        /**/
     2682     9198    3           DO CASE(ICB.SORTING_ORDER.FIELD.TYPE(KEY_PART));

   9198 12 000357   200011 470500                    LDP0    @KEY_PART,,AUTO
        12 000360   000000 235100                    LDA     0,,PR0
        12 000361   000001 735000                    ALS     1
        12 000362   000206 235005 xsym               LDA     ICB+134,AL
PL6.E3A0      #007=VPF$SORT_FID File=VPF$SRCLST.:E05TSI                          WED 07/30/97 07:43 Page:456
        12 000363   000012 115007                    CMPA    10,DL
        12 000364   000366 602005 12                 TNC     s:9198+7,AL
        12 000365   000554 710000 12                 TRA     s:9238
        12 000366   000554 710000 12                 TRA     s:9238
        12 000367   000400 710000 12                 TRA     s:9200
        12 000370   000417 710000 12                 TRA     s:9204
        12 000371   000435 710000 12                 TRA     s:9208
        12 000372   000453 710000 12                 TRA     s:9212
        12 000373   000471 710000 12                 TRA     s:9216
        12 000374   000475 710000 12                 TRA     s:9218
        12 000375   000513 710000 12                 TRA     s:9222
        12 000376   000531 710000 12                 TRA     s:9226
        12 000377   000547 710000 12                 TRA     s:9230

     2683     9199    3            CASE(1);                       /* GRANULES                           */

     2684     9200    3              CODE$ = FPARAM$;

   9200 12 000400   000000 236000 xsym               LDQ     FPARAM$
        12 000401   200013 756100                    STQ     CODE$,,AUTO

     2685     9201    3              CALL XSF$LOCCODP(CODE$,3) ALTRET(SIGH);

   9201 12 000402   000014 236000 13                 LDQ     12
        12 000403   200015 756100                    STQ     CODE$+2,,AUTO
        12 000404   200013 631500                    EPPR1   CODE$,,AUTO
        12 000405   200014 451500                    STP1    CODE$+1,,AUTO
        12 000406   200014 630500                    EPPR0   CODE$+1,,AUTO
        12 000407   000020 631400 xsym               EPPR1   B_VECTNIL+16
        12 000410   000000 701000 xent               TSX1    XSF$LOCCODP
        12 000411   000555 702000 12                 TSX2    SIGH

     2686     9202    3              KEY_UBIN = CODE$ -> CODE03.UGRANS;

   9202 12 000412   200013 470500                    LDP0    CODE$,,AUTO
        12 000413   000000 236100                    LDQ     0,,PR0
        12 000414   000032 376000 xsym               ANQ     B_VECTNIL+26
PL6.E3A0      #007=VPF$SORT_FID File=VPF$SRCLST.:E05TSI                          WED 07/30/97 07:43 Page:457
        12 000415   200012 756100                    STQ     KEY_SBIN,,AUTO
        12 000416   000554 710000 12                 TRA     s:9238

     2687     9203    3            CASE(2);                       /* Number of records                  */

     2688     9204    3              CODE$ = FPARAM$;

   9204 12 000417   000000 236000 xsym               LDQ     FPARAM$
        12 000420   200013 756100                    STQ     CODE$,,AUTO

     2689     9205    3              CALL XSF$LOCCODP(CODE$,3) ALTRET(SIGH);

   9205 12 000421   000014 236000 13                 LDQ     12
        12 000422   200015 756100                    STQ     CODE$+2,,AUTO
        12 000423   200013 631500                    EPPR1   CODE$,,AUTO
        12 000424   200014 451500                    STP1    CODE$+1,,AUTO
        12 000425   200014 630500                    EPPR0   CODE$+1,,AUTO
        12 000426   000020 631400 xsym               EPPR1   B_VECTNIL+16
        12 000427   000000 701000 xent               TSX1    XSF$LOCCODP
        12 000430   000555 702000 12                 TSX2    SIGH

     2690     9206    3              KEY_UBIN = CODE$ -> CODE03.NRECS;

   9206 12 000431   200013 470500                    LDP0    CODE$,,AUTO
        12 000432   000002 235100                    LDA     2,,PR0
        12 000433   200012 755100                    STA     KEY_SBIN,,AUTO
        12 000434   000554 710000 12                 TRA     s:9238

     2691     9207    3            CASE(3);                       /* Date of CREATION                   */

     2692     9208    3              CODE$ = FPARAM$;

   9208 12 000435   000000 236000 xsym               LDQ     FPARAM$
        12 000436   200013 756100                    STQ     CODE$,,AUTO

     2693     9209    3              CALL XSF$LOCCODP(CODE$,4) ALTRET(SIGH);

PL6.E3A0      #007=VPF$SORT_FID File=VPF$SRCLST.:E05TSI                          WED 07/30/97 07:43 Page:458
   9209 12 000437   000012 236000 13                 LDQ     10
        12 000440   200015 756100                    STQ     CODE$+2,,AUTO
        12 000441   200013 631500                    EPPR1   CODE$,,AUTO
        12 000442   200014 451500                    STP1    CODE$+1,,AUTO
        12 000443   200014 630500                    EPPR0   CODE$+1,,AUTO
        12 000444   000020 631400 xsym               EPPR1   B_VECTNIL+16
        12 000445   000000 701000 xent               TSX1    XSF$LOCCODP
        12 000446   000555 702000 12                 TSX2    SIGH

     2694     9210    3              KEY_UBIN = CODE$ -> CODE04.CREATION.TIME;

   9210 12 000447   200013 470500                    LDP0    CODE$,,AUTO
        12 000450   000002 235100                    LDA     2,,PR0
        12 000451   200012 755100                    STA     KEY_SBIN,,AUTO
        12 000452   000554 710000 12                 TRA     s:9238

     2695     9211    3            CASE(4);                       /* Date of MODIFICATION               */

     2696     9212    3              CODE$ = FPARAM$;

   9212 12 000453   000000 236000 xsym               LDQ     FPARAM$
        12 000454   200013 756100                    STQ     CODE$,,AUTO

     2697     9213    3              CALL XSF$LOCCODP(CODE$,4) ALTRET(SIGH);

   9213 12 000455   000012 236000 13                 LDQ     10
        12 000456   200015 756100                    STQ     CODE$+2,,AUTO
        12 000457   200013 631500                    EPPR1   CODE$,,AUTO
        12 000460   200014 451500                    STP1    CODE$+1,,AUTO
        12 000461   200014 630500                    EPPR0   CODE$+1,,AUTO
        12 000462   000020 631400 xsym               EPPR1   B_VECTNIL+16
        12 000463   000000 701000 xent               TSX1    XSF$LOCCODP
        12 000464   000555 702000 12                 TSX2    SIGH

     2698     9214    3              KEY_UBIN = CODE$ -> CODE04.MODIFY.TIME;

   9214 12 000465   200013 470500                    LDP0    CODE$,,AUTO
PL6.E3A0      #007=VPF$SORT_FID File=VPF$SRCLST.:E05TSI                          WED 07/30/97 07:43 Page:459
        12 000466   000001 235100                    LDA     1,,PR0
        12 000467   200012 755100                    STA     KEY_SBIN,,AUTO
        12 000470   000554 710000 12                 TRA     s:9238

     2699     9215    3            CASE(5);                       /* Date of EXPIRATION                 */

     2700     9216    3              KEY_SBIN = M$EI$ -> F$DCB.EXPIRE#;

   9216 12 000471   000000 471400 xsym               LDP1    M$EI$
        12 000472   100035 235100                    LDA     29,,PR1
        12 000473   200012 755100                    STA     KEY_SBIN,,AUTO
        12 000474   000554 710000 12                 TRA     s:9238

     2701     9217    3            CASE(6);                       /* Date of ACCESS                     */

     2702     9218    3              CODE$ = FPARAM$;

   9218 12 000475   000000 236000 xsym               LDQ     FPARAM$
        12 000476   200013 756100                    STQ     CODE$,,AUTO

     2703     9219    3              CALL XSF$LOCCODP(CODE$,4) ALTRET(SIGH);

   9219 12 000477   000012 236000 13                 LDQ     10
        12 000500   200015 756100                    STQ     CODE$+2,,AUTO
        12 000501   200013 631500                    EPPR1   CODE$,,AUTO
        12 000502   200014 451500                    STP1    CODE$+1,,AUTO
        12 000503   200014 630500                    EPPR0   CODE$+1,,AUTO
        12 000504   000020 631400 xsym               EPPR1   B_VECTNIL+16
        12 000505   000000 701000 xent               TSX1    XSF$LOCCODP
        12 000506   000555 702000 12                 TSX2    SIGH

     2704     9220    3              KEY_UBIN = CODE$ -> CODE04.ACCESS.TIME;

   9220 12 000507   200013 470500                    LDP0    CODE$,,AUTO
        12 000510   000000 235100                    LDA     0,,PR0
        12 000511   200012 755100                    STA     KEY_SBIN,,AUTO
        12 000512   000554 710000 12                 TRA     s:9238
PL6.E3A0      #007=VPF$SORT_FID File=VPF$SRCLST.:E05TSI                          WED 07/30/97 07:43 Page:460

     2705     9221    3            CASE(7);                       /* Date of BACKUP                     */

     2706     9222    3              CODE$ = FPARAM$;

   9222 12 000513   000000 236000 xsym               LDQ     FPARAM$
        12 000514   200013 756100                    STQ     CODE$,,AUTO

     2707     9223    3              CALL XSF$LOCCODP(CODE$,5) ALTRET(SIGH);

   9223 12 000515   000015 236000 13                 LDQ     13
        12 000516   200015 756100                    STQ     CODE$+2,,AUTO
        12 000517   200013 631500                    EPPR1   CODE$,,AUTO
        12 000520   200014 451500                    STP1    CODE$+1,,AUTO
        12 000521   200014 630500                    EPPR0   CODE$+1,,AUTO
        12 000522   000020 631400 xsym               EPPR1   B_VECTNIL+16
        12 000523   000000 701000 xent               TSX1    XSF$LOCCODP
        12 000524   000555 702000 12                 TSX2    SIGH

     2708     9224    3              KEY_UBIN = CODE$->CODE05.BACKUP.TIME;

   9224 12 000525   200013 470500                    LDP0    CODE$,,AUTO
        12 000526   000000 235100                    LDA     0,,PR0
        12 000527   200012 755100                    STA     KEY_SBIN,,AUTO
        12 000530   000554 710000 12                 TRA     s:9238

     2709     9225    3            CASE(8);                       /* Date of STOW                       */

     2710     9226    3              CODE$ = FPARAM$;

   9226 12 000531   000000 236000 xsym               LDQ     FPARAM$
        12 000532   200013 756100                    STQ     CODE$,,AUTO

     2711     9227    3              CALL XSF$LOCCODP(CODE$,6) ALTRET(SIGH);

   9227 12 000533   000016 236000 13                 LDQ     14
        12 000534   200015 756100                    STQ     CODE$+2,,AUTO
PL6.E3A0      #007=VPF$SORT_FID File=VPF$SRCLST.:E05TSI                          WED 07/30/97 07:43 Page:461
        12 000535   200013 631500                    EPPR1   CODE$,,AUTO
        12 000536   200014 451500                    STP1    CODE$+1,,AUTO
        12 000537   200014 630500                    EPPR0   CODE$+1,,AUTO
        12 000540   000020 631400 xsym               EPPR1   B_VECTNIL+16
        12 000541   000000 701000 xent               TSX1    XSF$LOCCODP
        12 000542   000555 702000 12                 TSX2    SIGH

     2712     9228    3              KEY_UBIN = CODE$->CODE06.STOW.TIME;

   9228 12 000543   200013 470500                    LDP0    CODE$,,AUTO
        12 000544   000000 235100                    LDA     0,,PR0
        12 000545   200012 755100                    STA     KEY_SBIN,,AUTO
        12 000546   000554 710000 12                 TRA     s:9238

     2713     9229    3            CASE(9);                       /* TYPE                               */

     2714     9230    3              KEY_CHAR = M$EI$ -> F$DCB.TYPE#;

   9230 12 000547   000000 471400 xsym               LDP1    M$EI$
        12 000550   100025 236100                    LDQ     21,,PR1
        12 000551   000022 736000                    QLS     18
        12 000552   040040 276007                    ORQ     16416,DL
        12 000553   200012 756100                    STQ     KEY_SBIN,,AUTO

     2715     9231    3            END;                           /* END CASE                           */

     2716     9232        %EJECT;
PL6.E3A0      #007=VPF$SORT_FID File=VPF$SRCLST.:E05TSI                          WED 07/30/97 07:43 Page:462
     2717     9233        /**/
     2718     9234        /*  Make sure that the attribute we want to sort by is actually present       */
     2719     9235        /*  for this file.  If not, make a rash and undoubtedly wrong assumption      */
     2720     9236        /*  about the attribute for this file, as it's the best we can do.            */
     2721     9237        /**/
     2722     9238    3           DO WHILE ('0'B);

   9238 12 000554   000556 710000 12                 TRA     s:9245

   9227 12 000555                       SIGH         null
     2723     9239    3   SIGH:      ;                            /* File attribute for sort not present*/
     2724     9240    3              KEY_SBIN = 0;

   9240 12 000555   200012 450100                    STZ     KEY_SBIN,,AUTO

     2725     9241    3              END;

     2726     9242        /**/
     2727     9243        /*  Take care of keys for DESCENDING ORDER.  */
     2728     9244        /**/
     2729     9245    2           IF ICB.SORTING_ORDER.FIELD.DESCENDING(KEY_PART)

   9245 12 000556   200011 470500                    LDP0    @KEY_PART,,AUTO
        12 000557   000000 235100                    LDA     0,,PR0
        12 000560   000001 735000                    ALS     1
        12 000561   000205 234005 xsym               SZN     ICB+133,AL
        12 000562   000566 605000 12                 TPL     s:9248

     2730     9246    2            THEN                           /* Gotta bollix for descending order  */
     2731     9247    2              KEY_UBIN = 0-1 - KEY_UBIN;

   9247 12 000563   000001 335007                    LCA     1,DL
        12 000564   200012 135100                    SBLA    KEY_SBIN,,AUTO
        12 000565   200012 755100                    STA     KEY_SBIN,,AUTO

     2732     9248    2           SORT_KEY.FUZZY(KEY_PART) = KEY_SBIN;

PL6.E3A0      #007=VPF$SORT_FID File=VPF$SRCLST.:E05TSI                          WED 07/30/97 07:43 Page:463
   9248 12 000566   000000 235100                    LDA     0,,PR0
        12 000567   000002 735000                    ALS     2
        12 000570   000005 100500                    MLR     fill='000'O
        12 000571   200012 000004                    ADSC9   KEY_SBIN,,AUTO           cn=0,n=4
        12 000572   000012 200004 11                 ADSC9   SORT_KEY,A               cn=1,n=4

     2733     9249        /**/
     2734     9250    2           RETURN;

   9250 12 000573   200010 221300                    LDX1  ! SYSTEM_ERR+2,,AUTO
        12 000574   000001 702211                    TSX2  ! 1,X1
     2735     9251    2   END MUNGE_KEY;
     2736     9252        /**/
     2737     9253    1   END VPF$SORT_FID;

PL6.E3A0      #007=VPF$SORT_FID File=VPF$SRCLST.:E05TSI                          WED 07/30/97 07:43 Page:464
--  Include file information  --

   FM$FIT.:E05TOU  is referenced.
   B_ERRORS_C.:E05TOU  is referenced.
   B_MICROPS_C.:E05TOU  is referenced.
   XU_MACRO_C.:E05TOU  is referenced.
   VP_MACRO_C.:E05TOU  is referenced.
   XS_MACRO_C.:E05TOU  is referenced.
   VP_PERR_C.:E05TOU  is referenced.
   CP_6_SUBS.:E05TOU  is referenced.
   CP_6.:E05TOU  cannot be made into a system file and is referenced.
   VP_DATA_R.:E05TOU  cannot be made into a system file and is referenced.
   B$JIT_C.:E05TOU  was found in the system file and is never referenced.
   CP_6_C.:E05TOU  was found in the system file and is referenced.
      No diagnostics issued in procedure VPF$SORT_FID.
PL6.E3A0      #007=VPF$SORT_FID File=VPF$SRCLST.:E05TSI                          WED 07/30/97 07:43 Page:465

 **** Variables and constants ****

  ****  Section 010 RoData VPF$SORT_FID

  ****  Scalars and arrays  ****
OctLoc.c.b A Datatyp(siz) R M Lvl/name                 OctLoc.c.b A Datatyp(siz) R M Lvl/name

   166-0-0/d STRC(1080)  r     1 FPT_CLOSE_BEAST          130-0-0/d STRC(1080)  r     1 FPT_CLOSE_SORT
     0-0-0/d STRC(2088)  r     1 FPT_OPEN_SORT_OUT        106-0-0/d STRC(144)   r     1 FPT_PFIL_SORT
   112-0-0/d STRC(504)   r     1 FPT_READ_SORT             72-0-0/d STRC(432)   r     1 FPT_WRITE_SORT

  ****  Section 011  Data  VPF$SORT_FID

  ****  Scalars and arrays  ****
OctLoc.c.b A Datatyp(siz) R M Lvl/name                 OctLoc.c.b A Datatyp(siz) R M Lvl/name

     0-0-0/d STRC(360)   r     1 FPT_PRECORD_SORT          52-0-0/d STRC(288)   r     1 OPEN_NAME
    30-0-0/d STRC(648)   r     1 SORT_DATA                 12-0-0/d STRC(441)   r     1 SORT_KEY

  ****  Auto variables  ****

  ****  Scalars and arrays  ****
OctLoc.c.b A Datatyp(siz) R M Lvl/name                 OctLoc.c.b A Datatyp(siz) R M Lvl/name

     3-0-0/w PTR         r     1 @FUNCTION                 11-0-0/w PTR         r     1 @KEY_PART
     4-0-0/w PTR         r     1 @SORT_STATUS              13-0-0/w PTR         r     1 CODE$
    *0-0-0/w SBIN        r     1 FUNCTION                   5-0-0/w SBIN        r     1 I
    12-0-0/w CHAR(4)     r     1 KEY_CHAR                  *0-0-0/w SBIN        r     1 KEY_PART
    12-0-0/w SBIN        r     1 KEY_SBIN                  12-0-0/w UBIN        r     1 KEY_UBIN
    *0-0-0/w SBIN        r     1 SORT_STATUS                6-0-0/b BIT         r     1 SYSTEM_ERR

  ****  SYMREF variables  ****

  ****  Scalars and arrays  ****
OctLoc.c.b A Datatyp(siz) R M Lvl/name                 OctLoc.c.b A Datatyp(siz) R M Lvl/name

     0-0-0/w PTR         r     1 B$TCB$
PL6.E3A0      #007=VPF$SORT_FID File=VPF$SRCLST.:E05TSI                          WED 07/30/97 07:43 Page:466
     0-0-0/w EPTR        r     1 BREAK_MESSAGE_REPORTER
     0-0-0/w PTR         r     1 FPARAM$                    0-0-0/d STRC(2088)  r     1 FPT_OPEN_EI
     0-0-0/d STRC(5868)  r     1 ICB                        0-0-0/c CHAR(8)     r     1 IN_ACCT
     0-0-0/c CHAR(8)     r     1 IN_PASS                    0-0-0/w STRC(1116)  r     1 IN_SN
     0-0-0/c CHAR(8)     r     1 IN_WSN                     0-0-0/w SBIN        r     1 M$EI#
     0-0-0/w PTR         r     1 M$EI$                      0-0-0/w PTR         r     1 M$SORT1$
     0-0-0/b BIT         r     1 SORTING_INPUT

  ****  BASED and DCB variables  ****

  ****  Scalars and arrays  ****
OctLoc.c.b A Datatyp(siz) R M Lvl/name                 OctLoc.c.b A Datatyp(siz) R M Lvl/name

     0-0-0/w STRC(2448)  r     1 B$ALT                      0-0-0/w STRC(144)   r     1 B$TCB
     0-0-0/w STRC(324)   r     1 CODE03                     0-0-0/w STRC(396)   r     1 CODE04
     0-0-0/w STRC(108)   r     1 CODE05                     0-0-0/w STRC(108)   r     1 CODE06
     0-0-0/d ASTR(3528)  r     1 F$DCB                      0-0-0N  NULL        r     1 M$EI
     0-0-0N  NULL        r     1 M$SORT1


   Procedure VPF$SORT_FID requires 381 words for executable code.
   Procedure VPF$SORT_FID requires 20 words of local(AUTO) storage.

    No errors detected in file VPF$SRCLST.:E05TSI    .
PL6.E3A0      #007=VPF$SORT_FID File=VPF$SRCLST.:E05TSI                          WED 07/30/97 07:43 Page:467
          *** CROSS REFERENCE LISTING ***
**     DENOTES     IDENTIFIER DEFINITION
<<                 IDENTIFIER'S VALUE SET
>>                 IDENTIFIER'S VALUE USED
<>                 IDENTIFIER SET AND/OR USED
--                 IDENTIFIER REFERENCED
PL6.E3A0      #007=VPF$SORT_FID File=VPF$SRCLST.:E05TSI                          WED 07/30/97 07:43 Page:468
          MINI XREF LISTING

AAARGH
      8893**LABEL    8806--CALLALT  8835--GOTO     8842--CALLALT  8845--CALLALT  8852--CALLALT  8855--CALLALT
      8864--GOTO     8897--GOTO
B$ALT.CODE
      8580**DCL      8580--REDEF    8581--REDEF    8581--REDEF
B$ALT.ERR
      8581**DCL      8907>>ASSIGN
B$ALT.ERR.ERR#
      8582**DCL      8582--REDEF    8833>>IF       8862>>IF       8889>>IF       8889>>IF       8889>>IF
      8889>>IF       8889>>IF
B$ALT.EVID
      8581**DCL      8581--REDEF    8581--REDEF
B$TCB.ALT$
      8576**DCL      8833>>IF       8862>>IF       8889>>IF       8889>>IF       8889>>IF       8889>>IF
      8889>>IF       8907>>ASSIGN
B$TCB$
      6021**DCL      8833>>IF       8862>>IF       8889>>IF       8889>>IF       8889>>IF       8889>>IF
      8889>>IF       8907>>ASSIGN
BREAK_LOC
      5256**DCL      5256--REDEF
CODE$ IN PROCEDURE MUNGE_KEY
      9167**DCL      9200<<ASSIGN   9201<>CALL     9202>>ASSIGN   9204<<ASSIGN   9205<>CALL     9206>>ASSIGN
      9208<<ASSIGN   9209<>CALL     9210>>ASSIGN   9212<<ASSIGN   9213<>CALL     9214>>ASSIGN   9218<<ASSIGN
      9219<>CALL     9220>>ASSIGN   9222<<ASSIGN   9223<>CALL     9224>>ASSIGN   9226<<ASSIGN   9227<>CALL
      9228>>ASSIGN
CODE03.NRECS IN PROCEDURE MUNGE_KEY
      9174**DCL      9206>>ASSIGN
CODE03.UGRANS IN PROCEDURE MUNGE_KEY
      9172**DCL      9202>>ASSIGN
CODE04.ACCESS.TIME IN PROCEDURE MUNGE_KEY
      9183**DCL      9220>>ASSIGN
CODE04.CREATION.TIME IN PROCEDURE MUNGE_KEY
PL6.E3A0      #007=VPF$SORT_FID File=VPF$SRCLST.:E05TSI                          WED 07/30/97 07:43 Page:469
      9183**DCL      9210>>ASSIGN
CODE04.MODIFY.TIME IN PROCEDURE MUNGE_KEY
      9183**DCL      9214>>ASSIGN
CODE05.BACKUP.TIME IN PROCEDURE MUNGE_KEY
      9187**DCL      9224>>ASSIGN
CODE06.STOW.EFT IN PROCEDURE MUNGE_KEY
      9190**DCL      9191--REDEF
CODE06.STOW.TIME IN PROCEDURE MUNGE_KEY
      9190**DCL      9228>>ASSIGN
DEF_ICB.FID.STRING
      5854**DCL      5855--REDEF
DEV_ICB.FID.STRING
      5740**DCL      5741--REDEF
EI_KEY.KEY
      5952**DCL      5952--REDEF    5952--REDEF    5952--REDEF
EO_OCB.TYPE
      5452**DCL      5453--REDEF
EXPECTED
      8840**LABEL    8839--CALLALT
F$DCB.ACCT#
      8535**DCL      8815>>ASSIGN
F$DCB.ACTPOS
      8551**DCL      8551--REDEF
F$DCB.ARS#
      8525**DCL      8525--REDEF
F$DCB.ASN#
      8540**DCL      8819>>ASSIGN
F$DCB.ATTR
      8544**DCL      8545--REDEF
F$DCB.BORROW
      8559**DCL      8559--REDEF    8559--REDEF    8559--REDEF
F$DCB.DCBNAME.L
      8573**DCL      8573--IMP-SIZ
F$DCB.EOMCHAR#
      8529**DCL      8529--REDEF
F$DCB.EXPIRE#
PL6.E3A0      #007=VPF$SORT_FID File=VPF$SRCLST.:E05TSI                          WED 07/30/97 07:43 Page:470
      8542**DCL      9216>>ASSIGN
F$DCB.FCD#
      8538**DCL      8850>>IF       8924>>IF
F$DCB.FLDID
      8554**DCL      8554--REDEF
F$DCB.FORM$
      8548**DCL      8548--REDEF
F$DCB.FSECT
      8564**DCL      8564--REDEF
F$DCB.FSN#
      8541**DCL      8541--REDEF    8541--REDEF    8542--REDEF
F$DCB.HEADER$
      8547**DCL      8547--REDEF
F$DCB.IXTNSIZE#
      8545**DCL      8545--REDEF
F$DCB.LASTSTA$
      8534**DCL      8534--REDEF
F$DCB.LVL
      8560**DCL      8560--REDEF
F$DCB.NAME#.C
      8535**DCL      8535--REDEF    8814>>ASSIGN
F$DCB.NAME#.L
      8535**DCL      8813>>ASSIGN
F$DCB.NOEOF
      8557**DCL      8557--REDEF
F$DCB.NRECS#
      8546**DCL      8546--REDEF
F$DCB.NRECX
      8565**DCL      8565--REDEF
F$DCB.OHDR
      8557**DCL      8557--REDEF
F$DCB.ORG#
      8540**DCL      8540--REDEF
F$DCB.PRECNO
      8563**DCL      8563--REDEF
F$DCB.PSN#
PL6.E3A0      #007=VPF$SORT_FID File=VPF$SRCLST.:E05TSI                          WED 07/30/97 07:43 Page:471
      8535**DCL      8820>>ASSIGN
F$DCB.RCSZ
      8569**DCL      8569--REDEF
F$DCB.RES#
      8536**DCL      8536--REDEF    8818>>ASSIGN
F$DCB.SETX
      8548**DCL      8548--REDEF
F$DCB.TAB$
      8548**DCL      8548--REDEF
F$DCB.TDA
      8562**DCL      8563--REDEF
F$DCB.TYPE#
      8536**DCL      9230>>ASSIGN
F$DCB.WSN#
      8536**DCL      8536--REDEF    8817>>ASSIGN
FPARAM$
      5257**DCL      9200>>ASSIGN   9204>>ASSIGN   9208>>ASSIGN   9212>>ASSIGN   9218>>ASSIGN   9222>>ASSIGN
      9226>>ASSIGN
FPT_CLOSE_BEAST
      8452**DCL      8852<>CALL
FPT_CLOSE_BEAST.SN_
      8452**DCL      8452--REDEF
FPT_CLOSE_BEAST.UTL_
      8453**DCL      8453--REDEF
FPT_CLOSE_BEAST.V
      8457**DCL      8452--DCLINIT
FPT_CLOSE_BEAST.V.EXPIRE#
      8467**DCL      8467--REDEF
FPT_CLOSE_BEAST.V.TYPE#
      8465**DCL      8465--REDEF
FPT_CLOSE_BEAST.V.XTNSIZE#
      8462**DCL      8462--REDEF    8464--REDEF
FPT_CLOSE_EI.SN_
      6793**DCL      6793--REDEF
FPT_CLOSE_EI.UTL_
      6794**DCL      6794--REDEF
PL6.E3A0      #007=VPF$SORT_FID File=VPF$SRCLST.:E05TSI                          WED 07/30/97 07:43 Page:472
FPT_CLOSE_EI.V.EXPIRE#
      6808**DCL      6808--REDEF
FPT_CLOSE_EI.V.TYPE#
      6806**DCL      6806--REDEF
FPT_CLOSE_EI.V.XTNSIZE#
      6803**DCL      6803--REDEF    6805--REDEF
FPT_CLOSE_PTL.SN_
      6919**DCL      6919--REDEF
FPT_CLOSE_PTL.UTL_
      6920**DCL      6920--REDEF
FPT_CLOSE_PTL.V.EXPIRE#
      6934**DCL      6934--REDEF
FPT_CLOSE_PTL.V.TYPE#
      6932**DCL      6932--REDEF
FPT_CLOSE_PTL.V.XTNSIZE#
      6929**DCL      6929--REDEF    6931--REDEF
FPT_CLOSE_READ.SN_
      6835**DCL      6835--REDEF
FPT_CLOSE_READ.UTL_
      6836**DCL      6836--REDEF
FPT_CLOSE_READ.V.EXPIRE#
      6850**DCL      6850--REDEF
FPT_CLOSE_READ.V.TYPE#
      6848**DCL      6848--REDEF
FPT_CLOSE_READ.V.XTNSIZE#
      6845**DCL      6845--REDEF    6847--REDEF
FPT_CLOSE_SI.SN_
      7003**DCL      7003--REDEF
FPT_CLOSE_SI.UTL_
      7004**DCL      7004--REDEF
FPT_CLOSE_SI.V.EXPIRE#
      7018**DCL      7018--REDEF
FPT_CLOSE_SI.V.TYPE#
      7016**DCL      7016--REDEF
FPT_CLOSE_SI.V.XTNSIZE#
      7013**DCL      7013--REDEF    7015--REDEF
PL6.E3A0      #007=VPF$SORT_FID File=VPF$SRCLST.:E05TSI                          WED 07/30/97 07:43 Page:473
FPT_CLOSE_SORT
      8408**DCL      8926<>CALL
FPT_CLOSE_SORT.SN_
      8408**DCL      8408--REDEF
FPT_CLOSE_SORT.UTL_
      8409**DCL      8409--REDEF
FPT_CLOSE_SORT.V
      8413**DCL      8408--DCLINIT
FPT_CLOSE_SORT.V.EXPIRE#
      8423**DCL      8423--REDEF
FPT_CLOSE_SORT.V.TYPE#
      8421**DCL      8421--REDEF
FPT_CLOSE_SORT.V.XTNSIZE#
      8418**DCL      8418--REDEF    8420--REDEF
FPT_CLOSE_STD.SN_
      6961**DCL      6961--REDEF
FPT_CLOSE_STD.UTL_
      6962**DCL      6962--REDEF
FPT_CLOSE_STD.V.EXPIRE#
      6976**DCL      6976--REDEF
FPT_CLOSE_STD.V.TYPE#
      6974**DCL      6974--REDEF
FPT_CLOSE_STD.V.XTNSIZE#
      6971**DCL      6971--REDEF    6973--REDEF
FPT_CLSEI_FT.SN_
      6877**DCL      6877--REDEF
FPT_CLSEI_FT.UTL_
      6878**DCL      6878--REDEF
FPT_CLSEI_FT.V.EXPIRE#
      6892**DCL      6892--REDEF
FPT_CLSEI_FT.V.TYPE#
      6890**DCL      6890--REDEF
FPT_CLSEI_FT.V.XTNSIZE#
      6887**DCL      6887--REDEF    6889--REDEF
FPT_OPEN_EI
      6446**DCL      8885<>CALL
PL6.E3A0      #007=VPF$SORT_FID File=VPF$SRCLST.:E05TSI                          WED 07/30/97 07:43 Page:474
FPT_OPEN_EI.ACSVEH_
      6448**DCL      6449--REDEF
FPT_OPEN_EI.ALTKEYS_
      6454**DCL      6455--REDEF    6455--REDEF
FPT_OPEN_EI.HDR_
      6453**DCL      6454--REDEF
FPT_OPEN_EI.NAME_
      6447**DCL      8881<<ASSIGN
FPT_OPEN_EI.TAB_
      6452**DCL      6453--REDEF
FPT_OPEN_EI.UHL_
      6446**DCL      6447--REDEF    6447--REDEF
FPT_OPEN_EI.V.ASN#
      6465**DCL      8879<<ASSIGN
FPT_OPEN_EI.V.FSN#
      6486**DCL      6486--REDEF    6486--REDEF
FPT_OPEN_EI.V.OPER.NXTF#
      6458**DCL      8857<<ASSIGN
FPT_OPEN_EI.V.OPER.THISF#
      6458**DCL      8856<<ASSIGN
FPT_OPEN_EI.V.RES#
      6470**DCL      8880<<ASSIGN
FPT_OPEN_EI.WSN_
      6452**DCL      6452--REDEF
FPT_OPEN_EI_SAVE.ACSVEH_
      6557**DCL      6558--REDEF
FPT_OPEN_EI_SAVE.ALTKEYS_
      6563**DCL      6564--REDEF    6564--REDEF
FPT_OPEN_EI_SAVE.HDR_
      6562**DCL      6563--REDEF
FPT_OPEN_EI_SAVE.TAB_
      6561**DCL      6562--REDEF
FPT_OPEN_EI_SAVE.UHL_
      6555**DCL      6556--REDEF    6556--REDEF
FPT_OPEN_EI_SAVE.V.FSN#
      6595**DCL      6595--REDEF    6595--REDEF
PL6.E3A0      #007=VPF$SORT_FID File=VPF$SRCLST.:E05TSI                          WED 07/30/97 07:43 Page:475
FPT_OPEN_EI_SAVE.WSN_
      6561**DCL      6561--REDEF
FPT_OPEN_OUT.ACSVEH_
      6339**DCL      6340--REDEF
FPT_OPEN_OUT.ALTKEYS_
      6345**DCL      6346--REDEF    6346--REDEF
FPT_OPEN_OUT.HDR_
      6344**DCL      6345--REDEF
FPT_OPEN_OUT.TAB_
      6343**DCL      6344--REDEF
FPT_OPEN_OUT.UHL_
      6337**DCL      6338--REDEF    6338--REDEF
FPT_OPEN_OUT.V.FSN#
      6377**DCL      6377--REDEF    6377--REDEF
FPT_OPEN_OUT.WSN_
      6343**DCL      6343--REDEF
FPT_OPEN_OUT_SAVE.ACSVEH_
      6230**DCL      6231--REDEF
FPT_OPEN_OUT_SAVE.ALTKEYS_
      6236**DCL      6237--REDEF    6237--REDEF
FPT_OPEN_OUT_SAVE.HDR_
      6235**DCL      6236--REDEF
FPT_OPEN_OUT_SAVE.TAB_
      6234**DCL      6235--REDEF
FPT_OPEN_OUT_SAVE.UHL_
      6228**DCL      6229--REDEF    6229--REDEF
FPT_OPEN_OUT_SAVE.V.FSN#
      6268**DCL      6268--REDEF    6268--REDEF
FPT_OPEN_OUT_SAVE.WSN_
      6234**DCL      6234--REDEF
FPT_OPEN_SORT_OUT
      8239**DCL      8806<>CALL
FPT_OPEN_SORT_OUT.ACSVEH_
      8241**DCL      8242--REDEF
FPT_OPEN_SORT_OUT.ALTKEYS_
      8247**DCL      8248--REDEF    8248--REDEF
PL6.E3A0      #007=VPF$SORT_FID File=VPF$SRCLST.:E05TSI                          WED 07/30/97 07:43 Page:476
FPT_OPEN_SORT_OUT.HDR_
      8246**DCL      8247--REDEF
FPT_OPEN_SORT_OUT.TAB_
      8245**DCL      8246--REDEF
FPT_OPEN_SORT_OUT.UHL_
      8239**DCL      8240--REDEF    8240--REDEF
FPT_OPEN_SORT_OUT.V
      8248**DCL      8239--DCLINIT
FPT_OPEN_SORT_OUT.V.FSN#
      8279**DCL      8279--REDEF    8279--REDEF
FPT_OPEN_SORT_OUT.WSN_
      8245**DCL      8245--REDEF
FPT_PFIL_SORT
      8334**DCL      8855<>CALL
FPT_PFIL_SORT.V
      8334**DCL      8334--DCLINIT
FPT_PRECORD_SORT
      8489**DCL      8839<>CALL     8842<>CALL
FPT_PRECORD_SORT.V
      8491**DCL      8489--DCLINIT
FPT_PRECORD_SORT.V.KEYS#
      8492**DCL      8837<<ASSIGN   8841<<ASSIGN
FPT_PRECORD_SORT.V.N#
      8495**DCL      8836<<ASSIGN   8840<<ASSIGN
FPT_READ_SORT
      8361**DCL      8860<>CALL
FPT_READ_SORT.STATION_
      8364**DCL      8365--REDEF
FPT_READ_SORT.V
      8365**DCL      8361--DCLINIT
FPT_READ_SORT.V.DVBYTE.REREAD#
      8376**DCL      8376--REDEF
FPT_READ_SORT.V.INDX#
      8374**DCL      8374--REDEF
FPT_READ_STD.STATION_
      6658**DCL      6659--REDEF
PL6.E3A0      #007=VPF$SORT_FID File=VPF$SRCLST.:E05TSI                          WED 07/30/97 07:43 Page:477
FPT_READ_STD.V.DVBYTE.REREAD#
      6670**DCL      6670--REDEF
FPT_READ_STD.V.INDX#
      6668**DCL      6668--REDEF
FPT_READ_UC.STATION_
      6619**DCL      6620--REDEF
FPT_READ_UC.V.DVBYTE.REREAD#
      6631**DCL      6631--REDEF
FPT_READ_UC.V.INDX#
      6629**DCL      6629--REDEF
FPT_WRITE_ME.STATION_
      6727**DCL      6727--REDEF
FPT_WRITE_ME.V.DVBYTE.VFC#
      6734**DCL      6734--REDEF
FPT_WRITE_OUT.STATION_
      6758**DCL      6758--REDEF
FPT_WRITE_OUT.V.DVBYTE.VFC#
      6765**DCL      6765--REDEF
FPT_WRITE_SORT
      8306**DCL      8831<>CALL     8845<>CALL
FPT_WRITE_SORT.STATION_
      8308**DCL      8308--REDEF
FPT_WRITE_SORT.V
      8309**DCL      8306--DCLINIT
FPT_WRITE_SORT.V.DVBYTE.VFC#
      8315**DCL      8315--REDEF
FPT_WRITE_UC.STATION_
      6696**DCL      6696--REDEF
FPT_WRITE_UC.V.DVBYTE.VFC#
      6703**DCL      6703--REDEF
FROM_SN.SN
      5602**DCL      5603--REDEF
FUNCTION
        44**DCL         6--PROC     8803>>DOCASE
GETCMD.OUT$
      4809**DCL      4815--REDEF
PL6.E3A0      #007=VPF$SORT_FID File=VPF$SRCLST.:E05TSI                          WED 07/30/97 07:43 Page:478
I
      8800**DCL      8825<<DOINDEX  8826<>CALL
ICB.FID.STRING
      5626**DCL      5627--REDEF
ICB.SORTING_ORDER.COUNT
      5705**DCL      8807>>ASSIGN   8824>>ASSIGN   8825>>DOINDEX  8838>>ASSIGN   8843>>ASSIGN   8843>>ASSIGN
ICB.SORTING_ORDER.FIELD.DESCENDING
      5707**DCL      9245>>IF
ICB.SORTING_ORDER.FIELD.TYPE
      5708**DCL      9198>>DOCASE
IFSFA_PARAM.EOMCHAR#
      5981**DCL      5982--REDEF
IFSFA_PARAM.SIG1
      5975**DCL      5975--REDEF
IFSFA_PARAM.SIG2
      5975**DCL      5976--REDEF
IN_ACCT
      5547**DCL      8874<<ASSIGN
IN_PASS
      5548**DCL      8816>>ASSIGN   8875<<ASSIGN
IN_RES
      5548**DCL      5548--REDEF
IN_SN.COUNT
      5563**DCL      8878<<ASSIGN
IN_SN.SN
      5564**DCL      5565--REDEF    8877<<ASSIGN
IN_WSN
      5585**DCL      8876<<ASSIGN
KEY_CHAR IN PROCEDURE MUNGE_KEY
      9165**DCL      9230<<ASSIGN
KEY_PART IN PROCEDURE MUNGE_KEY
      9160**DCL      8932--PROC     9198>>DOCASE   9245>>IF       9248>>ASSIGN
KEY_SBIN IN PROCEDURE MUNGE_KEY
      9164**DCL      9165--REDEF    9166--REDEF    9216<<ASSIGN   9240<<ASSIGN   9248>>ASSIGN
KEY_UBIN IN PROCEDURE MUNGE_KEY
      9166**DCL      9202<<ASSIGN   9206<<ASSIGN   9210<<ASSIGN   9214<<ASSIGN   9220<<ASSIGN   9224<<ASSIGN
PL6.E3A0      #007=VPF$SORT_FID File=VPF$SRCLST.:E05TSI                          WED 07/30/97 07:43 Page:479
      9228<<ASSIGN   9247<<ASSIGN   9247>>ASSIGN
M$CLOSE
        66**DCL-ENT  8852--CALL     8926--CALL
M$EI#
      6017**DCL      8913<>CALL
M$EI$
      6017**DCL      8813>>ASSIGN   8814>>ASSIGN   8815>>ASSIGN   8817>>ASSIGN   8818>>ASSIGN   8819>>ASSIGN
      8820>>ASSIGN   8850>>IF       9216>>ASSIGN   9230>>ASSIGN
M$OPEN
        66**DCL-ENT  8806--CALL     8885--CALL
M$PFIL
        68**DCL-ENT  8855--CALL
M$PRECORD
        70**DCL-ENT  8839--CALL     8842--CALL
M$READ
        67**DCL-ENT  8860--CALL
M$SORT1$
      6021**DCL      8924>>IF
M$WRITE
        67**DCL-ENT  8831--CALL     8845--CALL
MOP_UP
      8916**PROC     8865--CALL     8901--CALL     8908--CALL
MUNGE_KEY
      8932**PROC     8826--CALL
OCB.TYPE
      5310**DCL      5311--REDEF
OFSFA_PARAM.EOMCHAR#
      6011**DCL      6012--REDEF
OFSFA_PARAM.SIG1
      6005**DCL      6005--REDEF
OFSFA_PARAM.SIG2
      6005**DCL      6006--REDEF
OPEN_NAME
      8512**DCL      8881--ASSIGN
OPEN_NAME.LEN
      8513**DCL      8872<<ASSIGN
PL6.E3A0      #007=VPF$SORT_FID File=VPF$SRCLST.:E05TSI                          WED 07/30/97 07:43 Page:480
OPEN_NAME.STRING
      8514**DCL      8873<<ASSIGN
OUT_SN.SN
      5582**DCL      5583--REDEF
REOPEN_ALT
      8885**LABEL    8885--CALLALT
SIGH IN PROCEDURE MUNGE_KEY
      9227**LABEL    9201--CALLALT  9205--CALLALT  9209--CALLALT  9213--CALLALT  9219--CALLALT  9223--CALLALT
      9227--CALLALT
SORTING_INPUT
      5258**DCL      8928<<ASSIGN
SORT_CLOSED IN PROCEDURE MOP_UP
      8925**LABEL    8926--CALLALT
SORT_DATA
      8502**DCL      8307--DCLINIT  8308--DCLINIT  8363--DCLINIT  8364--DCLINIT
SORT_DATA.ACCT
      8506**DCL      8815<<ASSIGN   8874>>ASSIGN
SORT_DATA.ASN
      8511**DCL      8819<<ASSIGN   8879>>ASSIGN
SORT_DATA.NAME.C
      8505**DCL      8814<<ASSIGN   8873>>ASSIGN
SORT_DATA.NAME.L
      8504**DCL      8813<<ASSIGN   8872>>ASSIGN
SORT_DATA.PASS
      8508**DCL      8816<<ASSIGN   8875>>ASSIGN
SORT_DATA.PSN
      8507**DCL      8820<<ASSIGN   8877>>ASSIGN
SORT_DATA.RES
      8510**DCL      8818<<ASSIGN   8880>>ASSIGN
SORT_DATA.WSN
      8509**DCL      8817<<ASSIGN   8876>>ASSIGN
SORT_KEY
      8499**DCL      8306--DCLINIT  8361--DCLINIT  8362--DCLINIT  8489--DCLINIT  8490--DCLINIT
SORT_KEY.FUZZY
      8501**DCL      8824<<ASSIGN   8838<<ASSIGN   8843<<ASSIGN   8843>>ASSIGN   9248<<ASSIGN
SORT_KEY.LEN
PL6.E3A0      #007=VPF$SORT_FID File=VPF$SRCLST.:E05TSI                          WED 07/30/97 07:43 Page:481
      8500**DCL      8807<<ASSIGN
SORT_STATUS
        45**DCL         6--PROC     8866<<ASSIGN   8886<<ASSIGN   8895<<ASSIGN
SPEC_BUF
      5260**DCL      5260--REDEF
SYSTEM_ERR
      8801**DCL      8907<<ASSIGN   8913<>CALL
VPL$ERR_PROC
      8771**DCL-ENT  8909--CALL     8913--CALL
XSF$LOCCODP IN PROCEDURE MUNGE_KEY
      9196**DCL-ENT  9201--CALL     9205--CALL     9209--CALL     9213--CALL     9219--CALL     9223--CALL
      9227--CALL
