VERSION E05

PL6.E3A0      #001=VPG$SET_UP_WRITE File=VPG$WRITE.:E05TSI                       WED 07/30/97 07:32 Page:1
        1        1        /*M* VPG$WRITE This module contains routines needed to format and write the
        2        2             output records to the output file.                                       */
        3        3        /*T***********************************************************/
        4        4        /*T*                                                         */
        5        5        /*T* Copyright (c) Bull HN Information Systems Inc., 1997    */
        6        6        /*T*                                                         */
        7        7        /*T***********************************************************/
        8        8        /*X* DTI=1,THI=1 */
        9        9        /* NEXT AVAIL ERROR CODE = 30 (BY 10'S)  */
       10       10        VPG$SET_UP_WRITE: PROC;
       11       11        /*D* NAME: VPG$SET_UP_WRITE
       12       12             CALL: CALL VPG$SET_UP_WRITE;
       13       13             DESCRIPTION: This procedure sets up FPT_WRITE_OUT for future writes.
       14       14                          It also initializes a few write-related control variables.
       15       15        */
       16       16        %INCLUDE F$DCB;
       17       65        %INCLUDE VP_DATA_R;
       18     7052                                                /* Determine width of output place    */
       19     7053    1           IF OCB.WIDTH.SPEC
       20     7054    1            THEN
       21     7055    1              OUTPUT_WIDTH = OCB.WIDTH.SIZE;
       22     7056    1            ELSE
       23     7057    1              OUTPUT_WIDTH = OCB.DCBPTR$ -> F$DCB.WIDTH;
       24     7058                                                /* Determine practical width          */
       25     7059    1           IF OUTPUT_WIDTH = 0
       26     7060    1            THEN
       27     7061    1              OUTPUT_PWIDTH = 80;
       28     7062    1            ELSE
       29     7063    1              IF OUTPUT_WIDTH > 132
       30     7064    1               THEN
       31     7065    1                 OUTPUT_PWIDTH = 132;
       32     7066    1               ELSE
       33     7067    1                 OUTPUT_PWIDTH = OUTPUT_WIDTH;
       34     7068                                                /* Set up WRITE FPT                   */
       35     7069    1           FPT_WRITE_OUT.V.DCB# = OCB.DCBNM;
       36     7070    1           FPT_WRITE_OUT.V.SEED# = BINBIT(OCB.CRPT,36);
       37     7071    1           IF OCB.NEWKEY=0
PL6.E3A0      #001=VPG$SET_UP_WRITE File=VPG$WRITE.:E05TSI                       WED 07/30/97 07:32 Page:2
       38     7072    1            THEN
       39     7073    1              FPT_WRITE_OUT.V.ONEWKEY# = %YES#;
       40     7074    1            ELSE
       41     7075    1              FPT_WRITE_OUT.V.ONEWKEY# = %NO#;
       42     7076    1           IF OCB.ORG = 4                  /* NEED TO GENERATE KEYS              */
       43     7077    1            THEN
       44     7078    1              FPT_WRITE_OUT.KEY_ = VECTOR(OCB.LN.KEY);
       45     7079    1            ELSE
       46     7080    1              IF OCB.ORG=0
       47     7081    1               THEN
       48     7082    1                 FPT_WRITE_OUT.KEY_ = VECTOR(EI_KEY);
       49     7083    1               ELSE
       50     7084    1                 FPT_WRITE_OUT.KEY_ = VECTOR(NIL);
       51     7085                                                /* FORCES CONCATENATION               */
       52     7086    1   END VPG$SET_UP_WRITE;
       53     7087        %EOD;

PL6.E3A0      #001=VPG$SET_UP_WRITE File=VPG$WRITE.:E05TSI                       WED 07/30/97 07:32 Page:3
--  Include file information  --

   B_MICROPS_C.:E05TOU  is referenced.
   XU_MACRO_C.:E05TOU  is referenced.
   VP_MACRO_C.:E05TOU  is referenced.
   XS_MACRO_C.:E05TOU  is referenced.
   VP_PERR_C.:E05TOU  is referenced.
   CP_6_SUBS.:E05TOU  is referenced.
   CP_6.:E05TOU  cannot be made into a system file and is referenced.
   VP_DATA_R.:E05TOU  cannot be made into a system file and is referenced.
   F$DCB.:E05TOU  cannot be made into a system file and is referenced.
   B$JIT_C.:E05TOU  was found in the system file and is never referenced.
   CP_6_C.:E05TOU  was found in the system file and is referenced.
      No diagnostics issued in procedure VPG$SET_UP_WRITE.

   Procedure VPG$SET_UP_WRITE requires 47 words for executable code.
   Procedure VPG$SET_UP_WRITE requires 4 words of local(AUTO) storage.

PL6.E3A0      #001=VPG$SET_UP_WRITE File=VPG$WRITE.:E05TSI                       WED 07/30/97 07:32 Page:4

 Object Unit name= VPG$SET_UP_WRITE                           File name= VPG$WRITE.:E05TOU
 UTS= JUL 30 '97 07:32:36.32 WED                              Compiler= PL-6/E31         Sev=      00
 SharedLib= :SHARED_SYSTEM                                    Alt SharedLib=


    ****  Control sections  ****

 Sect   Type Bound  Init  Size OctSiz  Section name(segment info)
    0   DCB   even  none     0      0  M$UC
    1   DCB   even  none     0      0  M$EI
    2   DCB   even  none     0      0  M$EO
    3   DCB   even  none     0      0  M$EO1
    4   DCB   even  none     0      0  M$ME
    5   DCB   even  none     0      0  M$SI
    6   DCB   even  none     0      0  M$READFILE
    7   DCB   even  none     0      0  M$DO
    8   DCB   even  none     0      0  M$STD1
    9   DCB   even  none     0      0  M$SORT1
   10   Proc  even  none    47     57  VPG$SET_UP_WRITE
   11  RoData even  none     8     10  VPG$SET_UP_WRITE

    ****  Entry defs  ****

                              Check   Calling
                             calling  sequence
  Sect OctLoc Primary Altret sequence   type   Parms  Name
    10      0   yes            yes      Std        0  VPG$SET_UP_WRITE

  ****  Entry refs  ****

         Check        Calling
        calling       sequence
Altret sequence SRef   type   Args  Name
                       nStd      0 X66_AUTO_0
                       nStd      0 X66_ARET
PL6.E3A0      #001=VPG$SET_UP_WRITE File=VPG$WRITE.:E05TSI                       WED 07/30/97 07:32 Page:5

  ****  Data refs  ****

  Flags:  r = read only, s = secondary
Flgs Name                             Flgs Name                             Flgs Name
     M$UC                                  BREAK_LOC                             BREAK_MESSAGE_REPORTER
     OUTPUT_WIDTH                          OUTPUT_PWIDTH                         SPEC_BUF
     OCB                                   IN_RES                                EI_KEY
     M$EI                                  M$EO                                  M$EO1
     M$ME                                  M$SI                                  M$READFILE
     M$DO                                  M$STD1                                M$SORT1
     FPT_WRITE_OUT

  ****  Segment refs  ****

  Flags:  r = read only, s = secondary
Flgs Name                             Flgs Name                             Flgs Name
     NULLSID                               ISSID
PL6.E3A0      #001=VPG$SET_UP_WRITE File=VPG$WRITE.:E05TSI                       WED 07/30/97 07:32 Page:6


        1        1        /*M* VPG$WRITE This module contains routines needed to format and write the
        2        2             output records to the output file.                                       */
        3        3        /*T***********************************************************/
        4        4        /*T*                                                         */
        5        5        /*T* Copyright (c) Bull HN Information Systems Inc., 1997    */
        6        6        /*T*                                                         */
        7        7        /*T***********************************************************/
        8        8        /*X* DTI=1,THI=1 */
        9        9        /* NEXT AVAIL ERROR CODE = 30 (BY 10'S)  */
       10       10        VPG$SET_UP_WRITE: PROC;

     10 10 000000   000000 700200 xent  VPG$SET_UP_* TSX0  ! X66_AUTO_0
        10 000001   000004 000000                    ZERO    4,0

       11       11        /*D* NAME: VPG$SET_UP_WRITE
       12       12             CALL: CALL VPG$SET_UP_WRITE;
       13       13             DESCRIPTION: This procedure sets up FPT_WRITE_OUT for future writes.
       14       14                          It also initializes a few write-related control variables.
       15       15        */
       16       16        %INCLUDE F$DCB;
       17       65        %INCLUDE VP_DATA_R;
       18     7052                                                /* Determine width of output place    */
       19     7053    1           IF OCB.WIDTH.SPEC

   7053 10 000002   000261 234000 xsym               SZN     OCB+177
        10 000003   000007 605000 10                 TPL     s:7057

       20     7054    1            THEN
       21     7055    1              OUTPUT_WIDTH = OCB.WIDTH.SIZE;

   7055 10 000004   000262 235000 xsym               LDA     OCB+178
        10 000005   000000 755000 xsym               STA     OUTPUT_WIDTH
        10 000006   000013 710000 10                 TRA     s:7059

       22     7056    1            ELSE
       23     7057    1              OUTPUT_WIDTH = OCB.DCBPTR$ -> F$DCB.WIDTH;
PL6.E3A0      #001=VPG$SET_UP_WRITE File=VPG$WRITE.:E05TSI                       WED 07/30/97 07:32 Page:7

   7057 10 000007   000001 470400 xsym               LDP0    OCB+1
        10 000010   000004 236100                    LDQ     4,,PR0
        10 000011   000777 376007                    ANQ     511,DL
        10 000012   000000 756000 xsym               STQ     OUTPUT_WIDTH

       24     7058                                                /* Determine practical width          */
       25     7059    1           IF OUTPUT_WIDTH = 0

   7059 10 000013   000000 235000 xsym               LDA     OUTPUT_WIDTH
        10 000014   000020 601000 10                 TNZ     s:7063

       26     7060    1            THEN
       27     7061    1              OUTPUT_PWIDTH = 80;

   7061 10 000015   000120 236007                    LDQ     80,DL
        10 000016   000000 756000 xsym               STQ     OUTPUT_PWIDTH
        10 000017   000026 710000 10                 TRA     s:7069

       28     7062    1            ELSE
       29     7063    1              IF OUTPUT_WIDTH > 132

   7063 10 000020   000204 115007                    CMPA    132,DL
        10 000021   000025 604400 10                 TMOZ    s:7067

       30     7064    1               THEN
       31     7065    1                 OUTPUT_PWIDTH = 132;

   7065 10 000022   000204 236007                    LDQ     132,DL
        10 000023   000000 756000 xsym               STQ     OUTPUT_PWIDTH
        10 000024   000026 710000 10                 TRA     s:7069

       32     7066    1               ELSE
       33     7067    1                 OUTPUT_PWIDTH = OUTPUT_WIDTH;

   7067 10 000025   000000 755000 xsym               STA     OUTPUT_PWIDTH

PL6.E3A0      #001=VPG$SET_UP_WRITE File=VPG$WRITE.:E05TSI                       WED 07/30/97 07:32 Page:8
       34     7068                                                /* Set up WRITE FPT                   */
       35     7069    1           FPT_WRITE_OUT.V.DCB# = OCB.DCBNM;

   7069 10 000026   000000 720000 xsym               LXL0    OCB
        10 000027   000010 740000 xsym               STX0    FPT_WRITE_OUT+8

       36     7070    1           FPT_WRITE_OUT.V.SEED# = BINBIT(OCB.CRPT,36);

   7070 10 000030   000002 236000 xsym               LDQ     OCB+2
        10 000031   000012 756000 xsym               STQ     FPT_WRITE_OUT+10

       37     7071    1           IF OCB.NEWKEY=0

   7071 10 000032   000021 235000 xsym               LDA     OCB+17
        10 000033   000037 601000 10                 TNZ     s:7075

       38     7072    1            THEN
       39     7073    1              FPT_WRITE_OUT.V.ONEWKEY# = %YES#;

   7073 10 000034   000400 236007                    LDQ     256,DL
        10 000035   000010 256000 xsym               ORSQ    FPT_WRITE_OUT+8
        10 000036   000041 710000 10                 TRA     s:7076

       40     7074    1            ELSE
       41     7075    1              FPT_WRITE_OUT.V.ONEWKEY# = %NO#;

   7075 10 000037   000000 236000 11                 LDQ     0
        10 000040   000010 356000 xsym               ANSQ    FPT_WRITE_OUT+8

       42     7076    1           IF OCB.ORG = 4                  /* NEED TO GENERATE KEYS              */

   7076 10 000041   000035 236000 xsym               LDQ     OCB+29
        10 000042   000004 116007                    CMPQ    4,DL
        10 000043   000047 601000 10                 TNZ     s:7080

       43     7077    1            THEN
       44     7078    1              FPT_WRITE_OUT.KEY_ = VECTOR(OCB.LN.KEY);
PL6.E3A0      #001=VPG$SET_UP_WRITE File=VPG$WRITE.:E05TSI                       WED 07/30/97 07:32 Page:9

   7078 10 000044   000002 237000 11                 LDAQ    2
        10 000045   000002 757000 xsym               STAQ    FPT_WRITE_OUT+2
        10 000046   000056 710000 10                 TRA     s:7086

       45     7079    1            ELSE
       46     7080    1              IF OCB.ORG=0

   7080 10 000047   000000 116003                    CMPQ    0,DU
        10 000050   000054 601000 10                 TNZ     s:7084

       47     7081    1               THEN
       48     7082    1                 FPT_WRITE_OUT.KEY_ = VECTOR(EI_KEY);

   7082 10 000051   000004 237000 11                 LDAQ    4
        10 000052   000002 757000 xsym               STAQ    FPT_WRITE_OUT+2
        10 000053   000056 710000 10                 TRA     s:7086

       49     7083    1               ELSE
       50     7084    1                 FPT_WRITE_OUT.KEY_ = VECTOR(NIL);

   7084 10 000054   000006 237000 11                 LDAQ    6
        10 000055   000002 757000 xsym               STAQ    FPT_WRITE_OUT+2

       51     7085                                                /* FORCES CONCATENATION               */
       52     7086    1   END VPG$SET_UP_WRITE;

   7086 10 000056   000000 702200 xent               TSX2  ! X66_ARET
       53     7087        %EOD;

PL6.E3A0      #001=VPG$SET_UP_WRITE File=VPG$WRITE.:E05TSI                       WED 07/30/97 07:32 Page:10
--  Include file information  --

   B_MICROPS_C.:E05TOU  is referenced.
   XU_MACRO_C.:E05TOU  is referenced.
   VP_MACRO_C.:E05TOU  is referenced.
   XS_MACRO_C.:E05TOU  is referenced.
   VP_PERR_C.:E05TOU  is referenced.
   CP_6_SUBS.:E05TOU  is referenced.
   CP_6.:E05TOU  cannot be made into a system file and is referenced.
   VP_DATA_R.:E05TOU  cannot be made into a system file and is referenced.
   F$DCB.:E05TOU  cannot be made into a system file and is referenced.
   B$JIT_C.:E05TOU  was found in the system file and is never referenced.
   CP_6_C.:E05TOU  was found in the system file and is referenced.
      No diagnostics issued in procedure VPG$SET_UP_WRITE.
PL6.E3A0      #001=VPG$SET_UP_WRITE File=VPG$WRITE.:E05TSI                       WED 07/30/97 07:32 Page:11

 **** Variables and constants ****

  ****  SYMREF variables  ****

  ****  Scalars and arrays  ****
OctLoc.c.b A Datatyp(siz) R M Lvl/name                 OctLoc.c.b A Datatyp(siz) R M Lvl/name

     0-0-0/w EPTR        r     1 BREAK_MESSAGE_REPORTER
     0-0-0/c STRC(4608)  r     1 EI_KEY                     0-0-0/d STRC(432)   r     1 FPT_WRITE_OUT
     0-0-0/d STRC(6840)  r     1 OCB                        0-0-0/w SBIN        r     1 OUTPUT_PWIDTH
     0-0-0/w SBIN        r     1 OUTPUT_WIDTH

  ****  BASED and DCB variables  ****

  ****  Scalars and arrays  ****
OctLoc.c.b A Datatyp(siz) R M Lvl/name                 OctLoc.c.b A Datatyp(siz) R M Lvl/name

     0-0-0/d ASTR(3528)  r     1 F$DCB


   Procedure VPG$SET_UP_WRITE requires 47 words for executable code.
   Procedure VPG$SET_UP_WRITE requires 4 words of local(AUTO) storage.
PL6.E3A0      #001=VPG$SET_UP_WRITE File=VPG$WRITE.:E05TSI                       WED 07/30/97 07:32 Page:12
          *** CROSS REFERENCE LISTING ***
**     DENOTES     IDENTIFIER DEFINITION
<<                 IDENTIFIER'S VALUE SET
>>                 IDENTIFIER'S VALUE USED
<>                 IDENTIFIER SET AND/OR USED
--                 IDENTIFIER REFERENCED
PL6.E3A0      #001=VPG$SET_UP_WRITE File=VPG$WRITE.:E05TSI                       WED 07/30/97 07:32 Page:13
          MINI XREF LISTING

BREAK_LOC
      5272**DCL      5272--REDEF
DEF_ICB.FID.STRING
      5870**DCL      5871--REDEF
DEV_ICB.FID.STRING
      5756**DCL      5757--REDEF
EI_KEY
      5967**DCL      7082--ASSIGN
EI_KEY.KEY
      5968**DCL      5968--REDEF    5968--REDEF    5968--REDEF
EO_OCB.TYPE
      5468**DCL      5469--REDEF
F$DCB.ACTPOS
        42**DCL        42--REDEF
F$DCB.ARS
        17**DCL        17--REDEF
F$DCB.ATTR
        35**DCL        36--REDEF
F$DCB.BORROW
        50**DCL        50--REDEF      50--REDEF      50--REDEF
F$DCB.DCBNAME.L
        64**DCL        64--IMP-SIZ
F$DCB.EOMCHAR
        21**DCL        21--REDEF
F$DCB.FLDID
        45**DCL        45--REDEF
F$DCB.FORM$
        39**DCL        39--REDEF
F$DCB.FSECT
        55**DCL        55--REDEF
F$DCB.FSN
        32**DCL        32--REDEF      32--REDEF      33--REDEF
PL6.E3A0      #001=VPG$SET_UP_WRITE File=VPG$WRITE.:E05TSI                       WED 07/30/97 07:32 Page:14
F$DCB.HEADER$
        38**DCL        38--REDEF
F$DCB.IXTNSIZE
        36**DCL        36--REDEF
F$DCB.LASTSTA$
        26**DCL        26--REDEF
F$DCB.LVL
        51**DCL        51--REDEF
F$DCB.NAME.C
        26**DCL        26--REDEF
F$DCB.NOEOF
        47**DCL        47--REDEF
F$DCB.NRECS
        37**DCL        37--REDEF
F$DCB.NRECX
        56**DCL        56--REDEF
F$DCB.OHDR
        48**DCL        48--REDEF
F$DCB.ORG
        31**DCL        31--REDEF
F$DCB.PRECNO
        54**DCL        54--REDEF
F$DCB.RCSZ
        59**DCL        59--REDEF
F$DCB.RES
        27**DCL        27--REDEF
F$DCB.SETX
        39**DCL        39--REDEF
F$DCB.TAB$
        38**DCL        39--REDEF
F$DCB.TDA
        53**DCL        53--REDEF
F$DCB.WIDTH
        24**DCL      7057>>ASSIGN
F$DCB.WSN
        28**DCL        28--REDEF
PL6.E3A0      #001=VPG$SET_UP_WRITE File=VPG$WRITE.:E05TSI                       WED 07/30/97 07:32 Page:15
FPT_CLOSE_EI.SN_
      6809**DCL      6809--REDEF
FPT_CLOSE_EI.UTL_
      6810**DCL      6810--REDEF
FPT_CLOSE_EI.V.EXPIRE#
      6824**DCL      6824--REDEF
FPT_CLOSE_EI.V.TYPE#
      6822**DCL      6822--REDEF
FPT_CLOSE_EI.V.XTNSIZE#
      6819**DCL      6819--REDEF    6821--REDEF
FPT_CLOSE_PTL.SN_
      6935**DCL      6935--REDEF
FPT_CLOSE_PTL.UTL_
      6936**DCL      6936--REDEF
FPT_CLOSE_PTL.V.EXPIRE#
      6950**DCL      6950--REDEF
FPT_CLOSE_PTL.V.TYPE#
      6948**DCL      6948--REDEF
FPT_CLOSE_PTL.V.XTNSIZE#
      6945**DCL      6945--REDEF    6947--REDEF
FPT_CLOSE_READ.SN_
      6851**DCL      6851--REDEF
FPT_CLOSE_READ.UTL_
      6852**DCL      6852--REDEF
FPT_CLOSE_READ.V.EXPIRE#
      6866**DCL      6866--REDEF
FPT_CLOSE_READ.V.TYPE#
      6864**DCL      6864--REDEF
FPT_CLOSE_READ.V.XTNSIZE#
      6861**DCL      6861--REDEF    6863--REDEF
FPT_CLOSE_SI.SN_
      7019**DCL      7019--REDEF
FPT_CLOSE_SI.UTL_
      7020**DCL      7020--REDEF
FPT_CLOSE_SI.V.EXPIRE#
      7034**DCL      7034--REDEF
PL6.E3A0      #001=VPG$SET_UP_WRITE File=VPG$WRITE.:E05TSI                       WED 07/30/97 07:32 Page:16
FPT_CLOSE_SI.V.TYPE#
      7032**DCL      7032--REDEF
FPT_CLOSE_SI.V.XTNSIZE#
      7029**DCL      7029--REDEF    7031--REDEF
FPT_CLOSE_STD.SN_
      6977**DCL      6977--REDEF
FPT_CLOSE_STD.UTL_
      6978**DCL      6978--REDEF
FPT_CLOSE_STD.V.EXPIRE#
      6992**DCL      6992--REDEF
FPT_CLOSE_STD.V.TYPE#
      6990**DCL      6990--REDEF
FPT_CLOSE_STD.V.XTNSIZE#
      6987**DCL      6987--REDEF    6989--REDEF
FPT_CLSEI_FT.SN_
      6893**DCL      6893--REDEF
FPT_CLSEI_FT.UTL_
      6894**DCL      6894--REDEF
FPT_CLSEI_FT.V.EXPIRE#
      6908**DCL      6908--REDEF
FPT_CLSEI_FT.V.TYPE#
      6906**DCL      6906--REDEF
FPT_CLSEI_FT.V.XTNSIZE#
      6903**DCL      6903--REDEF    6905--REDEF
FPT_OPEN_EI.ACSVEH_
      6464**DCL      6465--REDEF
FPT_OPEN_EI.ALTKEYS_
      6470**DCL      6471--REDEF    6471--REDEF
FPT_OPEN_EI.HDR_
      6469**DCL      6470--REDEF
FPT_OPEN_EI.TAB_
      6468**DCL      6469--REDEF
FPT_OPEN_EI.UHL_
      6462**DCL      6463--REDEF    6463--REDEF
FPT_OPEN_EI.V.FSN#
      6502**DCL      6502--REDEF    6502--REDEF
PL6.E3A0      #001=VPG$SET_UP_WRITE File=VPG$WRITE.:E05TSI                       WED 07/30/97 07:32 Page:17
FPT_OPEN_EI.WSN_
      6468**DCL      6468--REDEF
FPT_OPEN_EI_SAVE.ACSVEH_
      6573**DCL      6574--REDEF
FPT_OPEN_EI_SAVE.ALTKEYS_
      6579**DCL      6580--REDEF    6580--REDEF
FPT_OPEN_EI_SAVE.HDR_
      6578**DCL      6579--REDEF
FPT_OPEN_EI_SAVE.TAB_
      6577**DCL      6578--REDEF
FPT_OPEN_EI_SAVE.UHL_
      6571**DCL      6572--REDEF    6572--REDEF
FPT_OPEN_EI_SAVE.V.FSN#
      6611**DCL      6611--REDEF    6611--REDEF
FPT_OPEN_EI_SAVE.WSN_
      6577**DCL      6577--REDEF
FPT_OPEN_OUT.ACSVEH_
      6355**DCL      6356--REDEF
FPT_OPEN_OUT.ALTKEYS_
      6361**DCL      6362--REDEF    6362--REDEF
FPT_OPEN_OUT.HDR_
      6360**DCL      6361--REDEF
FPT_OPEN_OUT.TAB_
      6359**DCL      6360--REDEF
FPT_OPEN_OUT.UHL_
      6353**DCL      6354--REDEF    6354--REDEF
FPT_OPEN_OUT.V.FSN#
      6393**DCL      6393--REDEF    6393--REDEF
FPT_OPEN_OUT.WSN_
      6359**DCL      6359--REDEF
FPT_OPEN_OUT_SAVE.ACSVEH_
      6246**DCL      6247--REDEF
FPT_OPEN_OUT_SAVE.ALTKEYS_
      6252**DCL      6253--REDEF    6253--REDEF
FPT_OPEN_OUT_SAVE.HDR_
      6251**DCL      6252--REDEF
PL6.E3A0      #001=VPG$SET_UP_WRITE File=VPG$WRITE.:E05TSI                       WED 07/30/97 07:32 Page:18
FPT_OPEN_OUT_SAVE.TAB_
      6250**DCL      6251--REDEF
FPT_OPEN_OUT_SAVE.UHL_
      6244**DCL      6245--REDEF    6245--REDEF
FPT_OPEN_OUT_SAVE.V.FSN#
      6284**DCL      6284--REDEF    6284--REDEF
FPT_OPEN_OUT_SAVE.WSN_
      6250**DCL      6250--REDEF
FPT_READ_STD.STATION_
      6674**DCL      6675--REDEF
FPT_READ_STD.V.DVBYTE.REREAD#
      6686**DCL      6686--REDEF
FPT_READ_STD.V.INDX#
      6684**DCL      6684--REDEF
FPT_READ_UC.STATION_
      6635**DCL      6636--REDEF
FPT_READ_UC.V.DVBYTE.REREAD#
      6647**DCL      6647--REDEF
FPT_READ_UC.V.INDX#
      6645**DCL      6645--REDEF
FPT_WRITE_ME.STATION_
      6743**DCL      6743--REDEF
FPT_WRITE_ME.V.DVBYTE.VFC#
      6750**DCL      6750--REDEF
FPT_WRITE_OUT.KEY_
      6772**DCL      7078<<ASSIGN   7082<<ASSIGN   7084<<ASSIGN
FPT_WRITE_OUT.STATION_
      6774**DCL      6774--REDEF
FPT_WRITE_OUT.V.DCB#
      6775**DCL      7069<<ASSIGN
FPT_WRITE_OUT.V.DVBYTE.VFC#
      6781**DCL      6781--REDEF
FPT_WRITE_OUT.V.ONEWKEY#
      6777**DCL      7073<<ASSIGN   7075<<ASSIGN
FPT_WRITE_OUT.V.SEED#
      6780**DCL      7070<<ASSIGN
PL6.E3A0      #001=VPG$SET_UP_WRITE File=VPG$WRITE.:E05TSI                       WED 07/30/97 07:32 Page:19
FPT_WRITE_UC.STATION_
      6712**DCL      6712--REDEF
FPT_WRITE_UC.V.DVBYTE.VFC#
      6719**DCL      6719--REDEF
FROM_SN.SN
      5618**DCL      5619--REDEF
GETCMD.OUT$
      4825**DCL      4831--REDEF
ICB.FID.STRING
      5642**DCL      5643--REDEF
IFSFA_PARAM.EOMCHAR#
      5997**DCL      5998--REDEF
IFSFA_PARAM.SIG1
      5991**DCL      5991--REDEF
IFSFA_PARAM.SIG2
      5991**DCL      5992--REDEF
IN_RES
      5564**DCL      5564--REDEF
IN_SN.SN
      5580**DCL      5581--REDEF
OCB.CRPT
      5283**DCL      7070>>ASSIGN
OCB.DCBNM
      5281**DCL      7069>>ASSIGN
OCB.DCBPTR$
      5282**DCL      7057>>ASSIGN
OCB.LN.KEY
      5311**DCL      7078--ASSIGN
OCB.NEWKEY
      5301**DCL      7071>>IF
OCB.ORG
      5318**DCL      7076>>IF       7080>>IF
OCB.TYPE
      5326**DCL      5327--REDEF
OCB.WIDTH.SIZE
      5386**DCL      7055>>ASSIGN
PL6.E3A0      #001=VPG$SET_UP_WRITE File=VPG$WRITE.:E05TSI                       WED 07/30/97 07:32 Page:20
OCB.WIDTH.SPEC
      5385**DCL      7053>>IF
OFSFA_PARAM.EOMCHAR#
      6027**DCL      6028--REDEF
OFSFA_PARAM.SIG1
      6021**DCL      6021--REDEF
OFSFA_PARAM.SIG2
      6021**DCL      6022--REDEF
OUTPUT_PWIDTH
      5275**DCL      7061<<ASSIGN   7065<<ASSIGN   7067<<ASSIGN
OUTPUT_WIDTH
      5275**DCL      7055<<ASSIGN   7057<<ASSIGN   7059>>IF       7063>>IF       7067>>ASSIGN
OUT_SN.SN
      5598**DCL      5599--REDEF
SPEC_BUF
      5276**DCL      5276--REDEF

