VERSION E05

PL6.E3A0      #001=VPH$LIST File=VPH$LISTREV.:E05TSI                             WED 07/30/97 07:39 Page:1
        1        1        /*M* VPH$LISTREV  This module contains routines for the LIST,LISTSTD,
        2        2                          REVIEW, and REVIEWSTD commands.
        3        3        */
        4        4        /*T***********************************************************/
        5        5        /*T*                                                         */
        6        6        /*T* Copyright (c) Bull HN Information Systems Inc., 1997    */
        7        7        /*T*                                                         */
        8        8        /*T***********************************************************/
        9        9        /*X* DTI=1,THI=1 */
       10       10        /* Next available error code = 5 */
       11       11        VPH$LIST: PROC;
       12       12        /*D* NAME: VPH$LIST
       13       13             CALL: CALL VPH$LIST;
       14       14             DESCRIPTION: This procedure drives the LIST command.
       15       15        */
       16       16        %INCLUDE VP_DATA_R;
       17     7003        %INCLUDE F$DCB;
       18     7052        %INCLUDE FM$FIT;
       19     7273        %CODE03;
       20     7280        %B$TCB;
       21     7283        %B$ALT;
       22     7291        %INCLUDE B_ERRORS_C;
       23     8418 S      %INCLUDE B$JIT_C;
       24     8419        %B$JIT0;
       25     8508        %U$JIT1;
       26     8582    1         2 * BIT(1);                       /* Don't need rest of JIT             */
       27     8583        %PARSE$OUT(NAME = OUT$BLK,STCLASS = BASED);
       28     8628        %PARSE$SYM(NAME = OUT$SYM,STCLASS = BASED);
       29     8666    1   DCL LIS_MSG CHAR(0) CONSTANT INIT('..LISTing');
       30     8667    1   DCL 1 TEXT$C BASED,
       31     8668    1         2 LEN UBIN BYTE UNAL,
       32     8669    1         2 STRING CHAR(TEXT$C.LEN);
       33     8670    1   DCL IDX SBIN WORD;
       34     8671    1   DCL IDX2 SBIN WORD;
       35     8672    1   DCL LIST_HDR_OUT BIT(9);
       36     8673    1   DCL NEXT_SPEC_RET_VAL SBIN WORD;
       37     8674    1   DCL OPEN_NEXT_RET_VAL SBIN WORD;
PL6.E3A0      #001=VPH$LIST File=VPH$LISTREV.:E05TSI                             WED 07/30/97 07:39 Page:2
       38     8675    1   DCL I SBIN WORD;
       39     8676    1   DCL 1 EXTEND STATIC,
       40     8677    1         2 LEN UBIN BYTE UNAL,
       41     8678    1         2 * CHAR(1) INIT('@');
       42     8679    1   DCL CR_LF CHAR(1) STATIC INIT('A');     /* VFC to start a new line            */
       43     8680    1   DCL DEFAULT_LIST_CODE SBIN WORD;
       44     8681    1   DCL DEFAULT_LIST_COLS SBIN WORD;
       45     8682    1   DCL PTR$ PTR;
       46     8683    1   DCL OUT$ PTR;
       47     8684    1   DCL OUTSPEC$ PTR;
       48     8685    1   DCL SOURCELIST$ PTR;
       49     8686    1   DCL CLIST_CODE SBIN WORD;
       50     8687    1   DCL LIST_CODE SBIN WORD;
       51     8688    1   DCL 1 BUF_BLOCK BASED(LIST_BUF$) ALIGNED,
       52     8689    1         2 COUNT SBIN WORD,
       53     8690    1         2 BUF_1,
       54     8691    1           3 LEN UBIN BYTE UNAL,
       55     8692    1           3 STRING(0:0) CHAR(4);
       56     8693    1   DCL CUR_GRANS SBIN WORD;
       57     8694    1   DCL LIST_WKSZ SBIN WORD;
       58     8695    1   DCL LIST_WORK$ PTR;
       59     8696    1   DCL REV_RET_VAL SBIN WORD;
       60     8697    1   DCL SUM_IDX SBIN;
       61     8698    1   DCL SUM_LINE_TEXT CHAR(132);
       62     8699    1   DCL 1 SUM_LINE REDEF SUM_LINE_TEXT,
       63     8700    1         2 * CHAR(2),
       64     8701    1         2 FILES CHAR(5),
       65     8702    1         2 REST CHAR(125),
       66     8703    1         2 GRANS REDEF REST,
       67     8704    1           3 * CHAR(7),
       68     8705    1           3 GRANS CHAR(6),
       69     8706    1           3 * CHAR(10),
       70     8707    1           3 RECS CHAR(8),
       71     8708    1           3 * CHAR(94);
       72     8709    1   DCL 1 DEL_TEXT CHAR(36) BASED;
       73     8710    1   DCL 1 DEL REDEF DEL_TEXT,
       74     8711    1         2 * CHAR(1),
PL6.E3A0      #001=VPH$LIST File=VPH$LISTREV.:E05TSI                             WED 07/30/97 07:39 Page:3
       75     8712    1         2 FILES CHAR(5),
       76     8713    1         2 * CHAR(7),
       77     8714    1         2 GRANS CHAR(6),
       78     8715    1         2 * CHAR(17);
       79     8716    1   DCL TEMP SBIN WORD;
       80     8717    1   DCL CHAR$1 CHAR(1) BASED;
       81     8718    1   DCL CHAR$72 CHAR(72) BASED;
       82     8719    1   DCL CHAR$132 CHAR(132) BASED;
       83     8720        /**/
       84     8721        /*  ENTRY POINTS  */
       85     8722        /**/
       86     8723    1   DCL XSF$LOCCODP ENTRY(2) ALTRET;
       87     8724    1   DCL X$PARSE ENTRY(1) ALTRET;
       88     8725        %VP_ENTRIES (OMIT=VPH$LIST);
       89     8933    1   VPH$LISTSTD: ENTRY;
       90     8934    1           GOTO START;
       91     8935    1   VPH$REVIEW: ENTRY;
       92     8936        /*D* NAME: VPH$REVIEW
       93     8937             CALL: CALL VPH$REVIEW;
       94     8938             DESCRIPTION: This is an entry point inside LIST used for the REVIEW
       95     8939                          command.
       96     8940        */
       97     8941    1           IF NOT M$SI$->F$DCB.DDEV.IC
       98     8942    1            THEN
       99     8943    1              CMD_MASK = '000400'O;        /* MAKE REVIEW INTO A LIST IF         */
      100     8944    1           GOTO START;                     /* INPUT NOT FROM A TERMINAL          */
      101     8945    1   VPH$REVIEWSTD: ENTRY;
      102     8946        /*D* NAME: VPH$REVIEWSTD
      103     8947             CALL: CALL VPH$REVIEWSTD;
      104     8948             DESCRIPTION: This is an entry point inside LIST used for the REVIEWSTD
      105     8949                          command.
      106     8950        */
      107     8951    1           IF NOT M$SI$->F$DCB.DDEV.IC
      108     8952    1            THEN
      109     8953    1              CMD_MASK = '000200'O;        /* MAKE REVIEWSTD A LISTSTD CMD       */
      110     8954    1           GOTO START;                     /* IF INPUT NOT FROM A TERMINAL       */
      111     8955    1   START:
PL6.E3A0      #001=VPH$LIST File=VPH$LISTREV.:E05TSI                             WED 07/30/97 07:39 Page:4
      112     8956    1           REMEMBER LIST_ABORT IN ABORT_CMD;
      113     8957    1           REMEMBER NEXT_FILE IN ABORT_STEP;
      114     8958    1           REMEMBER FIN_LIST IN BREAK_LOC;
      115     8959    1           LIST_HDR_OUT = '0'B;
      116     8960    1           LIST_IDX = -1;
      117     8961    1           DEFAULT_LIST_CODE = 0;
      118     8962    1           DEFAULT_LIST_COLS = 12;
      119     8963    1           OUTSPEC$ = ADDR(NIL);
      120     8964    1           SOURCELIST$ = ADDR(NIL);
      121     8965    1           DEF_ICB = '0'B;
      122     8966    2           DO IDX=0 TO PCB.OUT$->OUT$BLK.NSUBLKS-1;
      123     8967    2              PTR$ = PCB.OUT$->OUT$BLK.SUBLK$(IDX);
      124     8968    3              DO CASE(PTR$->OUT$BLK.CODE);
      125     8969    3               CASE(1);                    /* SOURCELIST                         */
      126     8970    3                 SOURCELIST$ = PTR$;
      127     8971    3               CASE(2);                    /* OUTSPEC                            */
      128     8972    3                 OUTSPEC$ = PTR$;
      129     8973    3               CASE(3);                    /* FROM 'FID'                         */
      130     8974    3                 CALL VPF$SET_FROM_INFO(PTR$->OUT$BLK.SUBLK$(0));
      131     8975    3               CASE(4);                    /* LISTSTD 'FID'                      */
      132     8976    3                 CALL VPD$INIT_STD_FILE(PTR$);
      133     8977    3               CASE(5);                    /* DEFAULT LIST OPTION                */
      134     8978    3                 CON_DUP_TBL = '0'B;
      135     8979    3                 ICB = '0'B;
      136     8980    3                 ICB.DEV_MASK = '777'O;
      137     8981    4                 DO IDX2 = 0 TO PTR$ -> OUT$BLK.NSUBLKS -1;
      138     8982    4                    OUT$=PTR$->OUT$BLK.SUBLK$(IDX2);
      139     8983    4                    CALL VPF$PROCESS_INPUT_OPT(OUT$)
      140     8984    5                     WHENALTRETURN DO;
      141     8985    5                        END;
      142     8986    4                    END;
      143     8987    3                 DEF_ICB = ICB;
      144     8988    3               END;                        /* END CASE                           */
      145     8989    2              END;
      146     8990    1           CALL VPC$SETOUT(OUTSPEC$);      /* Setup and open output file         */
      147     8991    1           CALL VPG$SET_UP_WRITE;
      148     8992    1           CALL GET_USABLE_LEN;
PL6.E3A0      #001=VPH$LIST File=VPH$LISTREV.:E05TSI                             WED 07/30/97 07:39 Page:5
      149     8993    1           EI_KEY.LEN = 0;
      150     8994    1           EI_KEY.LEN = EI_KEY.LEN -1;     /* Insure error on unitialized key WR */
      151     8995    1           CUR_SEQ_NO = 0;
      152     8996    1           CALL VPD$ENLARGE_BUF((MAXIMUM(OCB.RECSIZE.MIN_SIZE,OCB.RECSIZE.MAX_SIZE)+20+
              8996                    4095)/4096);
      153     8997    1           IF CMD_MASK & '000200002'O      /* LISTSTD OR REVIEWSTD               */
      154     8998    1            THEN
      155     8999    2            DO;
      156     9000    2               LIST_WORK$ = PCB.WORK$;
      157     9001    2               LIST_WKSZ = PCB.WKSZ;
      158     9002    2               PCB.U$$ = ENTADDR(NIL);
      159     9003    2   LISTSTD_L:
      160     9004    2               CALL M$READ(FPT_READ_STD) ALTRET(STD_READ_ALT);
      161     9005    2               PCB.NCHARS = M$STD1$->F$DCB.ARS;
      162     9006    2               PCB.ROOT$ = ADDR(TOP_STD_N);
      163     9007    2               PCB.WORK$ = LIST_WORK$;
      164     9008    2               PCB.WKSZ = LIST_WKSZ;
      165     9009    2               CALL X$PARSE(PCB) ALTRET(STD_PARSE_ALT);
      166     9010    2               SOURCELIST$ = PCB.OUT$;
      167     9011    2               END;
      168     9012    1           IF CMD_MASK & '000100002'O      /* IF REVIEW OR REVIEWSTD             */
      169     9013    1            THEN
      170     9014    2            DO;
      171     9015    2               PCB.U$$ = ENTADDR(NIL);
      172     9016    2               PCB.WORK$ = PINCRW(PCB.WORK$,PCB.WK_USED);
      173     9017    2               PCB.WKSZ = PCB.WKSZ-PCB.WK_USED;
      174     9018    2               PCB.ROOT$ = ADDR(TOP_REVIEW_CMD);
      175     9019    2               END;
      176     9020    1           CALL VPF$GET_NEXT_SPEC(NEXT_SPEC_RET_VAL,SOURCELIST$);
      177     9021    2           DO WHILE(NEXT_SPEC_RET_VAL~=1);
      178     9022                                                /* WHILE new SOURCELIST remains       */
      179     9023    2              IF NEXT_SPEC_RET_VAL=0       /* IF ALL FINE...                     */
      180     9024    2               THEN
      181     9025    3               DO;
      182     9026    3                  CALL GET_CLIST_CODE_AND_COLS;
      183     9027    3                  IF (CLIST_CODE>2) OR (CMD_MASK & '000100002'O)
      184     9028    3                   THEN
PL6.E3A0      #001=VPH$LIST File=VPH$LISTREV.:E05TSI                             WED 07/30/97 07:39 Page:6
      185     9029    3                     CALL VPF$OPEN_NEXT(OPEN_NEXT_RET_VAL,4);
      186     9030                                                /* OPEN WITH FPARAM                   */
      187     9031    3                   ELSE
      188     9032    3                     CALL VPF$OPEN_NEXT(OPEN_NEXT_RET_VAL,2);
      189     9033                                                /* OPEN WITH FPARAM ONLY IF           */
      190     9034                                                /* NEEDED FOR FILE SELECTION          */
      191     9035    4                  DO WHILE(OPEN_NEXT_RET_VAL~=%VPOC_EXHAUSTED#);
      192     9036    4                     IF CLIST_CODE>2
      193     9037    4                       AND OPEN_NEXT_RET_VAL=%VPOC_NOACCESS#
      194     9038    4                      THEN                 /* Access denied                      */
      195     9039    4                        LIST_CODE = 2;
      196     9040    4                      ELSE
      197     9041    4                        LIST_CODE = CLIST_CODE;
      198     9042    4                     IF OPEN_NEXT_RET_VAL = %VPOC_GOTFILE#
      199     9043    4                       AND ICB.DEV_MASK ~= '100'O /* AND not LT                  */
      200     9044    4                       AND LIST_CODE > 2   /* AND attributes                     */
      201     9045    4                      THEN                 /* Tally GRANS                        */
      202     9046    5                      DO;
      203     9047    5                         PTR$ = ADDR(FPARAM_BUF);
      204     9048    5                         CALL XSF$LOCCODP(PTR$,3) ALTRET(NO_GRANS);
      205     9049    5                         CUR_GRANS = PTR$->CODE03.UGRANS+PTR$->CODE03.NGAVAL;
      206     9050    5                         TOT_GRANS(2) = TOT_GRANS(2) + CUR_GRANS;
      207     9051    5                         TOT_RECS=TOT_RECS+PTR$->CODE03.NRECS;
      208     9052    5                         END;
      209     9053    4   NO_GRANS:         ;
      210     9054    4                     TOT_FILES(2) = TOT_FILES(2) +1;
      211     9055    4   RELIST:           ;
      212     9056    4                     CALL VPH$GET_LIST_BUFS(LIST_CODE);
      213     9057    4                     IF TOT_FILES(2) = 1   /* Before printing the first FID      */
      214     9058    4                       AND ~M$EO1$ -> F$DCB.DDEV.IC /* and output isn't terminal */
      215     9059    4                       AND B$JIT$ -> B$JIT.MODE = %M_INT#
      216     9060    4                      THEN                 /* Put out the listing message        */
      217     9061    5                      DO;
      218     9062    5                         FPT_WRITE_ME.BUF_ = VECTOR(LIS_MSG);
      219     9063    5                         FPT_WRITE_ME.V.DVBYTE.VFC# = %NO#;
      220     9064    5                         CALL M$WRITE(FPT_WRITE_ME);
      221     9065    5                         END;
PL6.E3A0      #001=VPH$LIST File=VPH$LISTREV.:E05TSI                             WED 07/30/97 07:39 Page:7
      222     9066    4                     IF LIST_CODE ~= 1
      223     9067    4                      THEN                 /* L(A) or better, may need header    */
      224     9068    5                      DO;
      225     9069    5                         IF LIST_HDR_OUT ~= ICB.DEV_MASK
      226     9070    5                          THEN             /* New input device, make new header  */
      227     9071    6                          DO;
      228     9072    6                             CALL VPD$FINISH_NLIST; /* Finish any prev no attr L */
      229     9073    6                             CALL OUT_LIST_HDR; /* Print new header              */
      230     9074    6                             LIST_HDR_OUT = ICB.DEV_MASK;
      231     9075    6                             END;
      232     9076    5                         END;
      233     9077    4                      ELSE                 /* No attribute LIST                  */
      234     9078    4                        LIST_HDR_OUT = '0'B; /* Insure header next L(A) or better */
      235     9079    4                     IF LIST_CODE~=1 OR (CMD_MASK & '000100002'O)
      236     9080    4                      THEN
      237     9081    5                      DO;
      238     9082    5                         PTR$ = ADDR(BUF_BLOCK.BUF_1);
      239     9083    6                         DO I=1 TO BUF_BLOCK.COUNT;
      240     9084    6                            IF I=BUF_BLOCK.COUNT AND (CMD_MASK & '000100002'O)
      241     9085    6                             THEN
      242     9086    7                             DO;
      243     9087    7                                EXTEND.LEN = 1;
      244     9088    7                                OCB.VFC = 2;
      245     9089    7                                END;
      246     9090    6                             ELSE
      247     9091    7                             DO;
      248     9092    7                                EXTEND.LEN = 0;
      249     9093    7                                OCB.VFC = 0;
      250     9094    7                                END;
      251     9095    6                            CALL CONCAT(IN_BUF_VECTOR.PTR$->CHAR$132,
      252     9096    6                              ADDR(EXTEND)->TEXT$C.STRING,
      253     9097    6                              PTR$->TEXT$C.STRING);
      254     9098    6                            TEMP = PTR$->TEXT$C.LEN + EXTEND.LEN;
      255     9099    6                            CALL VPG$WRITE_OUT(TEMP,0);
      256     9100    6                            PTR$ = PINCRC(PTR$,PTR$->TEXT$C.LEN+1);
      257     9101    6                            END;
      258     9102    5                         EXTEND.LEN = 0;
PL6.E3A0      #001=VPH$LIST File=VPH$LISTREV.:E05TSI                             WED 07/30/97 07:39 Page:8
      259     9103    5                         OCB.VFC = 0;
      260     9104    5                         END;
      261     9105    4                      ELSE
      262     9106    5                      DO;
      263     9107    5                         TEMP = ((LIST_IDX+ICB.COLS)/ICB.COLS)*ICB.COLS;
      264     9108    5                         IF TEMP+BUF_BLOCK.BUF_1.LEN>USABLE_LEN AND LIST_IDX>0
      265     9109    5                          THEN
      266     9110    6                          DO;
      267     9111    6                             CALL VPG$WRITE_OUT(LIST_IDX,0);
      268     9112    6                             LIST_IDX = 0;
      269     9113    6                             END;
      270     9114    5                          ELSE
      271     9115    5                            LIST_IDX = TEMP;
      272     9116    5                         PINCRC(IN_BUF_VECTOR.PTR$,LIST_IDX)->CHAR$132 =
      273     9117    5                           ADDR(BUF_BLOCK.BUF_1)->TEXT$C.STRING;
      274     9118    5                         LIST_IDX = LIST_IDX+BUF_BLOCK.BUF_1.LEN;
      275     9119    5                         END;
      276     9120    4                     IF (CMD_MASK & '000100002'O)
      277     9121    5                      THEN DO;             /* A REVIEW type command              */
      278     9122    5                         REMEMBER REV_BRK IN BREAK_LOC; /* Must skip promt fid if */
      279     9123                                                /* break after fid printed            */
      280     9124    5                         CALL REVIEW_CHK(REV_RET_VAL);
      281     9125    5                         REMEMBER SUMMARY IN BREAK_LOC; /* Just summary if break */
      282     9126                                                /* occurs elsewhere                   */
      283     9127    6                         DO CASE(REV_RET_VAL);
      284     9128    6                          CASE(1);         /* JUMP                               */
      285     9129    6                            IF PCB.OUT$->OUT$BLK.NSUBLKS>0
      286     9130    6                             THEN
      287     9131    6                               GOTO JUMP2;
      288     9132    6                             ELSE
      289     9133    6                               GOTO NEXT_SPEC;
      290     9134    6                          CASE(2);         /* END                                */
      291     9135    6                            GOTO SUMMARY;
      292     9136    6   REV_BRK:                                /* Skip a line to avoid overprinting  */
      293     9137                                                /* the REV fid we printed             */
      294     9138    6                            FPT_WRITE_ME.BUF_ = VECTOR(CR_LF);
      295     9139    6                            FPT_WRITE_ME.V.DVBYTE.VFC# = %YES#;
PL6.E3A0      #001=VPH$LIST File=VPH$LISTREV.:E05TSI                             WED 07/30/97 07:39 Page:9
      296     9140    6                            CALL M$WRITE(FPT_WRITE_ME);
      297     9141    6                            GOTO SUMMARY;
      298     9142    6                          CASE(3);         /* RELIST                             */
      299     9143    6                            IF OPEN_NEXT_RET_VAL=%VPOC_NOACCESS#
      300     9144    6                             THEN          /* Access denied                      */
      301     9145    6                               LIST_CODE = 2;
      302     9146    6                            GOTO RELIST;
      303     9147    6                          END;             /* END CASE                           */
      304     9148    5                         END;
      305     9149    4   NEXT_FILE:
      306     9150    4                     IF M$EI$->F$DCB.FCD
      307     9151    4                      THEN
      308     9152    4                        CALL M$CLOSE(FPT_CLOSE_EI);
      309     9153    4                     THIS_STD_FILE = '0'B;
      310     9154    4                     CALL VPF$OPEN_NEXT(OPEN_NEXT_RET_VAL,1);
      311     9155    4                     GOTO AROUND_1;
      312     9156    4   JUMP2:            CALL VPF$OPEN_NEXT(OPEN_NEXT_RET_VAL,3,
      313     9157    4                       PCB.OUT$->OUT$BLK.SUBLK$(0)->
      314     9158    4                       OUT$SYM.TEXTC$->TEXT$C);
      315     9159    4   AROUND_1:         END;                  /* END WHILE                          */
      316     9160    3                  END;
      317     9161    2   NEXT_SPEC:
      318     9162    2              CALL VPF$GET_NEXT_SPEC(NEXT_SPEC_RET_VAL);
      319     9163    2              END;                         /* END WHILE                          */
      320     9164    1           IF (CMD_MASK & '000200002'O/* LISTSTD or REVIEWSTD*/)~='0'B
      321     9165    1            THEN
      322     9166    1              GOTO LISTSTD_L;
      323     9167        %EJECT;
PL6.E3A0      #001=VPH$LIST File=VPH$LISTREV.:E05TSI                             WED 07/30/97 07:39 Page:10
      324     9168    1   FIN_LIST:
      325     9169    1           IF M$EI$ -> F$DCB.FCD           /* still open 'cause break was hit    */
      326     9170    1            THEN
      327     9171    1              CALL M$CLOSE (FPT_CLOSE_EI);
      328     9172    1           CALL VPD$FINISH_NLIST;          /* Finish any partial LIST line       */
      329     9173    1   SUMMARY:
      330     9174    1           REMEMBER LIST_ABORT IN ABORT_STEP;
      331     9175    1           REMEMBER LIST_ABORT IN BREAK_LOC;
      332     9176    1           IF ((TOT_FILES(2) > 1           /* IF more than one file was listed   */
      333     9177    1             OR TOT_FILES(1) > 0)          /* OR anything was deleted            */
      334     9178    1             AND OCB.SUMMARY = 0)          /* And user didnt say anything        */
      335     9179    1             OR OCB.SUMMARY = 1            /* or SUMMARY specified               */
      336     9180    1             AND OCB.SUMMARY ~= 2          /* unless NSUMMARY specified          */
      337     9181    1            THEN                           /* A summary is in order              */
      338     9182    2            DO;
      339     9183    2               SUM_LINE_TEXT = '..';
      340     9184    2               CALL BINCHAR(SUM_LINE.FILES,TOT_FILES(2));
      341     9185    2               CALL VPD$CLOBBERLZ(VECTOR(SUM_LINE.FILES));
      342     9186    2               IF TOT_GRANS(2)>0
      343     9187    3                THEN DO;
      344     9188    3                   SUM_IDX = 53;
      345     9189    3                   SUM_LINE.REST = ' files,       granules,         records listed';
      346     9190    3                   CALL BINCHAR(SUM_LINE.GRANS.GRANS,TOT_GRANS(2));
      347     9191    3                   CALL VPD$CLOBBERLZ(VECTOR(SUM_LINE.GRANS.GRANS));
      348     9192    3                   CALL BINCHAR(SUM_LINE.GRANS.RECS,TOT_RECS);
      349     9193    3                   CALL VPD$CLOBBERLZ(VECTOR(SUM_LINE.GRANS.RECS));
      350     9194    3                   END;
      351     9195    3                ELSE DO;
      352     9196    3                   SUM_IDX = 20;
      353     9197    3                   SUM_LINE.REST = ' files listed';
      354     9198    3                   END;
      355     9199    2               IF TOT_FILES(1)>0           /* IF anything deleted                */
      356     9200    2                THEN
      357     9201    3                DO;
      358     9202    3                   PTR$ = PINCRC(ADDR(SUM_LINE_TEXT),SUM_IDX);
      359     9203    3                   PTR$->DEL_TEXT = ';      files,       granules deleted';
      360     9204    3                   CALL BINCHAR(PTR$->DEL.FILES,TOT_FILES(1));
PL6.E3A0      #001=VPH$LIST File=VPH$LISTREV.:E05TSI                             WED 07/30/97 07:39 Page:11
      361     9205    3                   CALL VPD$CLOBBERLZ(VECTOR(PTR$->DEL.FILES));
      362     9206    3                   CALL BINCHAR(PTR$->DEL.GRANS,TOT_GRANS(1));
      363     9207    3                   CALL VPD$CLOBBERLZ(VECTOR(PTR$->DEL.GRANS));
      364     9208    3                   SUM_IDX = SUM_IDX+36;
      365     9209    3                   END;
      366     9210    2               IN_BUF_VECTOR.PTR$->CHAR$132 = SUM_LINE_TEXT;
      367     9211    2               CALL VPG$WRITE_OUT(SUM_IDX,0);
      368     9212    2               END;
      369     9213    1           IF TOT_FILES(2) = 0             /* IF no files listed                 */
      370     9214    1             AND ~ERR_FLG                  /* AND no errors occured              */
      371     9215    1            THEN                           /* Tell him that no files were LISTed */
      372     9216    1              CALL VPL$ERR_PROC(1,1,'10'O);
      373     9217        /*E* ERROR:   VPH-00001
      374     9218             MESSAGE: Nothing to list
      375     9219            MESSAGE1: No files were acceptable to LIST in that input spec
      376     9220        */
      377     9221    1   LIST_ABORT: IF M$EO1$->F$DCB.FCD
      378     9222    1            THEN
      379     9223    1              CALL VPD$CLOSE_OUT(BITBIN(ERR_FLG)); /* CLOSE with save if no errs */
      380     9224    1           IF M$STD1$->F$DCB.FCD
      381     9225    1            THEN
      382     9226    1              CALL M$CLOSE(FPT_CLOSE_STD) ALTRET(SKIPIT_1);
      383     9227    1   SKIPIT_1: ;
      384     9228    1           IF M$EI$->F$DCB.FCD
      385     9229    1            THEN
      386     9230    1              CALL M$CLOSE(FPT_CLOSE_EI) ALTRET(SKIPIT_2);
      387     9231    1   SKIPIT_2: ;
      388     9232    1           CALL VPD$MINIMIZE_BUF;
      389     9233    1           RETURN;
      390     9234    1   STD_READ_ALT:
      391     9235    1           IF B$TCB$->B$TCB.ALT$->B$ALT.ERR.CODE=%E$EOF
      392     9236    1            THEN
      393     9237    1              GOTO FIN_LIST;
      394     9238    1            ELSE
      395     9239    1              CALL VPL$ERR_PROC(3,0);
      396     9240    1   STD_PARSE_ALT:
      397     9241    1           CALL VPL$ERR_PROC(0,0,,PCB.ERROR);
PL6.E3A0      #001=VPH$LIST File=VPH$LISTREV.:E05TSI                             WED 07/30/97 07:39 Page:12
      398     9242    1           CALL VPL$ERR_PROC(3,3,'10'O);
      399     9243        /*E*   ERROR: VPH-00003
      400     9244             MESSAGE: in STD file.  Command aborts.
      401     9245            MESSAGE1: A record in the STD file has a bad source or option.
      402     9246        */
      403     9247        %EJECT;
PL6.E3A0      #001=VPH$LIST File=VPH$LISTREV.:E05TSI                             WED 07/30/97 07:39 Page:13
      404     9248    1   GET_CLIST_CODE_AND_COLS: PROC;
      405     9249        /*I* NAME: GET_CLIST_CODE_AND_COLS
      406     9250             PURPOSE: To obtain CLIST_CODE and to set ICB.COLS to a reasonable value.
      407     9251             CALL: CALL GET_CLIST_CODE_AND_COLS;
      408     9252             DESCRIPTION: This procedure sets CLIST_CODE to the correct value as below:
      409     9253                            VALUE              MEANING
      410     9254                            -----              -------
      411     9255                              1                name only list
      412     9256                              2                access denied list
      413     9257                              3                list with attributes
      414     9258                              4                list with extended attributes
      415     9259                              5                list with full attributes
      416     9260                          It also sets ICB.COLS to the default if it is not specified.
      417     9261        */
      418     9262    2           IF ICB.A_EA_C~=0
      419     9263    2            THEN                           /* Explicit LIST options, use 'em     */
      420     9264    2              CLIST_CODE = ICB.A_EA_C;
      421     9265    2            ELSE                           /* No explicit options, try default   */
      422     9266    2              IF DEFAULT_LIST_CODE~=0
      423     9267    2               THEN
      424     9268    2                 CLIST_CODE = DEFAULT_LIST_CODE;
      425     9269    2               ELSE                        /* No defaults, either.  Depend on    */
      426     9270                                                /* type of source specification       */
      427     9271    2                 IF ICB.SPEC_TYPE=1 OR ICB.SPEC_TYPE=7
      428     9272    2                  THEN                     /* (A) OPTION FOR SINGLE FILE LISTS   */
      429     9273    2                    CLIST_CODE = 3;
      430     9274    2                  ELSE
      431     9275    2                    CLIST_CODE = 1;
      432     9276    2           IF ICB.COLS=0
      433     9277    2            THEN
      434     9278    2              ICB.COLS = DEFAULT_LIST_COLS;
      435     9279    2           RETURN;
      436     9280    2   END GET_CLIST_CODE_AND_COLS;
      437     9281        %EJECT;
PL6.E3A0      #001=VPH$LIST File=VPH$LISTREV.:E05TSI                             WED 07/30/97 07:39 Page:14
      438     9282    1   GET_USABLE_LEN: PROC;
      439     9283        /*I* NAME: GET_USABLE_LEN
      440     9284             PURPOSE: To determine the usable length for a list record.
      441     9285             CALL: CALL GET_USABLE_LEN;
      442     9286             DESCRIPTION: USABLE_LEN is determined from a combination of the options
      443     9287                          KEYS and CS and OUTPUT_PWIDTH from VPG$SET_UP_WRITE. It
      444     9288                          represents the size available for writing the list record.
      445     9289        */
      446     9290    2           IF OCB.CS.SPEC~=0
      447     9291    2            THEN
      448     9292    2              USABLE_LEN = 72;
      449     9293    2            ELSE
      450     9294    3            DO;
      451     9295    3               USABLE_LEN = OUTPUT_PWIDTH;
      452     9296    3               IF OCB.KEYS~=0
      453     9297    3                THEN
      454     9298    3                  USABLE_LEN = USABLE_LEN-9;
      455     9299    3               END;
      456     9300    2           RETURN;
      457     9301    2   END GET_USABLE_LEN;
      458     9302        %EJECT;
PL6.E3A0      #001=VPH$LIST File=VPH$LISTREV.:E05TSI                             WED 07/30/97 07:39 Page:15
      459     9303    1   OUT_LIST_HDR: PROC;
      460     9304        /*I* NAME: OUT_LIST_HDR
      461     9305             PURPOSE: To put out a header for a list with attributes or eattributes.
      462     9306             CALL: CALL OUT_LIST_HDR;
      463     9307             DESCRIPTION: This procedure puts out a header line containing
      464     9308                          current time and date and files-to-be-listed description
      465     9309                          if a single specification only was entered. In any case,
      466     9310                          it then puts out a header for a list with attributes or
      467     9311                          better.
      468     9312        */
      469     9313    2   DCL CHAR$140 CHAR(140) BASED;
      470     9314    2   DCL CHAR$49 CHAR(49) BASED;
      471     9315    2   DCL DISK_HDR CHAR(49) CONSTANT INIT
      472     9316    2               ('Org TY  Gran  NGAV     Rec   Last modified   Name');
      473     9317    2   DCL TAPE_HDR CHAR(49) CONSTANT INIT
      474     9318    2               ('Org TY  Blkl  Recl     Rec Vol           FSN Name');
      475     9319    2   DCL TEMP SBIN WORD;
      476     9320        /**/
      477     9321    2           IF SINGLE_INSPEC=1 AND CMD_MASK(9)
      478     9322    2             AND NOT(ICB.SPEC_TYPE=1 OR ICB.SPEC_TYPE=7)
      479     9323    2            THEN
      480     9324    3            DO;                            /* PUT OUT EXTENDED HEADER            */
      481     9325    3               CALL VPD$GET_SPEC_BUF(0,1);
      482     9326    3               IN_BUF_VECTOR.PTR$->CHAR$140 = SPEC_BUF.STRING;
      483     9327    3               TEMP = SPEC_BUF.LEN;
      484     9328    3               CALL VPG$WRITE_OUT(TEMP,0);
      485     9329    3               END;
      486     9330    2           IF ICB.DEV_MASK.MAN_TAPE        /*LT*/
      487     9331    2            THEN
      488     9332    2              IN_BUF_VECTOR.PTR$->CHAR$49 = TAPE_HDR;
      489     9333    2            ELSE
      490     9334    2              IN_BUF_VECTOR.PTR$->CHAR$49 = DISK_HDR;
      491     9335    2           CALL VPG$WRITE_OUT(49,0);
      492     9336    2           RETURN;
      493     9337    2   END OUT_LIST_HDR;
      494     9338        %EJECT;
PL6.E3A0      #001=VPH$LIST File=VPH$LISTREV.:E05TSI                             WED 07/30/97 07:39 Page:16
      495     9339    1   REVIEW_CHK: PROC(RET_VAL);
      496     9340        /*I* NAME: REVIEW_CHK
      497     9341             PURPOSE: To analyze and act upon responses to the REVIEW commands'
      498     9342                      prompts.
      499     9343             CALL: CALL REVIEW_CHK(RET_VAL);
      500     9344             DESCRIPTION: REVIEW_CHK gets an input line from the user after each
      501     9345                          file being reviewed is listed. It then acts upon that input
      502     9346                          as follows:
      503     9347                             o NEXT - does nothing but return
      504     9348                             o DELETE - attempts to delete the file and returns
      505     9349                             o END - returns with a code to end the REVIEW
      506     9350                             o JUMP - returns with a code to JUMP to the next source
      507     9351                             o A - returns with a code to re-LIST with Attributes
      508     9352                             o EA - returns with a code to re-LIST with Extended
      509     9353                                    Attributes.
      510     9354                             o FA - returns with a code to re-LIST with Full
      511     9355                                    Attributes.
      512     9356                             o COPY [n] - copies the first n lines of the file
      513     9357                                          then returns with a code to re-LIST
      514     9358                                          NAME only.
      515     9359        */
      516     9360    2   DCL RET_VAL SBIN WORD;
      517     9361    2   DCL TSEED UBIN;
      518     9362    2   DCL J UBIN;
      519     9363    2   DCL DELETED_BUF CHAR(0) CONSTANT INIT('          ** Deleted **');
      520     9364        %FPT_READ(FPTN = FPT_READ_EI,
      521     9365                  DCB  = M$EI,
      522     9366                  BUF  = REV_BUF,
      523     9367                  STCLASS = STATIC);
      524     9406        %FPT_OPEN  (FPTN=FPT_OPEN_EI_DELETE_IT, STCLASS=AUTO);
      525     9515    2   DCL REV_BUF CHAR(140) STATIC;
      526     9516    2   DCL NUMRECS SBIN WORD;
      527     9517        /**/
      528     9518    2           RET_VAL = 0;                    /* GO ON TO NEXT FILE                 */
      529     9519    2           CALL VPD$GET_INPUT(0);
      530     9520    2           CALL X$PARSE(PCB) ALTRET(PARSE_ALT);
      531     9521    3           DO CASE(PCB.OUT$->OUT$BLK.CODE);
PL6.E3A0      #001=VPH$LIST File=VPH$LISTREV.:E05TSI                             WED 07/30/97 07:39 Page:17
      532     9522    3            CASE(1);                       /* NEXT                               */
      533     9523    3              ;
      534     9524    3            CASE(5);                       /* DELETE                             */
      535     9525    3              FPT_OPEN_EI_DELETE_IT = FPT_OPEN_EI_SAVE;
      536     9526    3              FPT_OPEN_EI_DELETE_IT.V_ = VECTOR (FPT_OPEN_EI_DELETE_IT.V);
      537     9527    3              FPT_OPEN_EI_DELETE_IT.V.OPER.TEST# = %NO#;
      538     9528    3              FPT_OPEN_EI_DELETE_IT.V.DELETE# = %YES#;
      539     9529    3              CALL M$OPEN(FPT_OPEN_EI_DELETE_IT) ALTRET(DEL_OPEN_ALT);
      540     9530    3              CALL VPD$COUNTER_BUMP(1);
      541     9531    3              FPT_WRITE_ME.BUF_   = VECTOR(DELETED_BUF);
      542     9532    3              FPT_WRITE_ME.V.DVBYTE.VFC# = %NO#;
      543     9533    3              CALL M$WRITE(FPT_WRITE_ME);
      544     9534    3            CASE(3);                       /* JUMP                               */
      545     9535    3              RET_VAL = 1;
      546     9536    3            CASE(4);                       /* END                                */
      547     9537    3              RET_VAL = 2;
      548     9538    3            CASE(2);                       /* ATTRIBS                            */
      549     9539    3              RET_VAL = 3;
      550     9540    3              LIST_CODE = 3;
      551     9541    3            CASE(7);                       /* EATTRIBS                           */
      552     9542    3              RET_VAL = 3;
      553     9543    3              LIST_CODE = 4;
      554     9544    3            CASE(32);                      /* FATTRIBS                           */
      555     9545    3              RET_VAL = 3;
      556     9546    3              LIST_CODE = 5;
      557     9547    3            CASE(6);                       /* COPY                               */
      558     9548    3              TSEED=ICB.CRPT;              /* Default to what user said          */
      559     9549    3              NUMRECS = 1;                 /* Default to 1 record                */
      560     9550    3              IF PCB.OUT$->OUT$BLK.NSUBLKS>0
      561     9551    3               THEN
      562     9552    4               DO J=0 TO PCB.OUT$->OUT$BLK.NSUBLKS-1;
      563     9553    5                  DO CASE(PCB.OUT$->OUT$BLK.SUBLK$(J)->OUT$BLK.CODE);
      564     9554    5                   CASE(0);                /* Decimal number                     */
      565     9555    5                     CALL VPD$TEXTC_CHARBIN(NUMRECS,PCB.OUT$->OUT$BLK.SUBLK$(J)->
      566     9556    5                       OUT$BLK.SUBLK$(0),-1) ALTRET(DEF_1);
      567     9557    5                   CASE(6);                /* Encryption seed                    */
      568     9558    5                     CALL VPD$MNG_CRPT(TSEED,PCB.OUT$->OUT$BLK.SUBLK$(J)->
PL6.E3A0      #001=VPH$LIST File=VPH$LISTREV.:E05TSI                             WED 07/30/97 07:39 Page:18
      569     9559    5                       OUT$BLK.SUBLK$(0))
      570     9560    6                      WHENALTRETURN DO; END;
      571     9561    5                   END;
      572     9562    4                  END;
      573     9563    3               ELSE
      574     9564    3   DEF_1:        NUMRECS = 1;
      575     9565    3              FPT_WRITE_ME.BUF_   = VECTOR(REV_BUF);
      576     9566    3              FPT_WRITE_ME.V.DVBYTE.VFC# = %NO#;
      577     9567    3              FPT_READ_EI.V.SEED# = BINBIT(TSEED,36);
      578     9568    4              DO NUMRECS=-NUMRECS TO -1;
      579     9569    4                 CALL M$READ(FPT_READ_EI) ALTRET(EI_READ_ALT);
      580     9570    4   WRITE_IT:     IF M$EI$->F$DCB.ARS = 0
      581     9571    4                  THEN                     /* Null record, clobber it            */
      582     9572    5                  DO;
      583     9573    5                     FPT_WRITE_ME.BUF_ = VECTOR (NIL);
      584     9574    5                     CALL M$WRITE(FPT_WRITE_ME);
      585     9575    5                     FPT_WRITE_ME.BUF_ = VECTOR (REV_BUF); /* Restore output BUF */
      586     9576    5                     END;
      587     9577    4                  ELSE
      588     9578    5                  DO;
      589     9579    5                     FPT_WRITE_ME.BUF_.BOUND = M$EI$->F$DCB.ARS -1;
      590     9580    5                     CALL M$WRITE(FPT_WRITE_ME);
      591     9581    5                     END;
      592     9582    4                 END;
      593     9583    3   CLOSE_EI:  CALL M$CLOSE(FPT_CLOSE_EI);
      594     9584    3              RET_VAL = 3;
      595     9585    3              LIST_CODE = 1;
      596     9586    3            CASE(23);                      /* HELP                               */
      597     9587    3              CALL VPL$HELP;
      598     9588    3              RET_VAL = 3;
      599     9589    3              LIST_CODE = 1;
      600     9590    3            CASE(27);                      /* QUEST                              */
      601     9591    3              CALL VPL$QUEST;
      602     9592    3              RET_VAL = 3;
      603     9593    3              LIST_CODE = 1;
      604     9594    3            END;                           /* END CASE                           */
      605     9595    3           DO WHILE('0'B);
PL6.E3A0      #001=VPH$LIST File=VPH$LISTREV.:E05TSI                             WED 07/30/97 07:39 Page:19
      606     9596    3   EI_READ_ALT: IF B$TCB$->B$TCB.ALT$->B$ALT.ERR.CODE=%E$EOF
      607     9597    3               THEN
      608     9598    3                 GOTO CLOSE_EI;
      609     9599    3               ELSE
      610     9600    3                 IF B$TCB$->B$TCB.ALT$->B$ALT.ERR.CODE=%E$LD
      611     9601    3                  THEN
      612     9602    3                    GOTO WRITE_IT;
      613     9603    3                  ELSE
      614     9604    4                  DO;
      615     9605    4                     CALL VPL$ERR_PROC(1,0);
      616     9606    4                     GOTO CLOSE_EI;
      617     9607    4                     END;
      618     9608    3   PARSE_ALT: CALL VPL$ERR_PROC(1,0,,PCB.ERROR);
      619     9609    3   READ_SI_ALT: RET_VAL = 3;
      620     9610    3              LIST_CODE = 1;
      621     9611    4              DO WHILE('0'B);
      622     9612    4   DEL_OPEN_ALT: CALL VPL$ERR_PROC(1,0);
      623     9613    4                 END;
      624     9614    3              END;
      625     9615    2           RETURN;
      626     9616    2   END REVIEW_CHK;
      627     9617    1   END VPH$LIST;
      628     9618        %EOD;

PL6.E3A0      #001=VPH$LIST File=VPH$LISTREV.:E05TSI                             WED 07/30/97 07:39 Page:20
--  Include file information  --

   B_ERRORS_C.:E05TOU  is referenced.
   FM$FIT.:E05TOU  is referenced.
   F$DCB.:E05TOU  cannot be made into a system file and is referenced.
   B_MICROPS_C.:E05TOU  is referenced.
   XU_MACRO_C.:E05TOU  is referenced.
   VP_MACRO_C.:E05TOU  is referenced.
   XS_MACRO_C.:E05TOU  is referenced.
   VP_PERR_C.:E05TOU  is referenced.
   CP_6_SUBS.:E05TOU  is referenced.
   CP_6.:E05TOU  cannot be made into a system file and is referenced.
   VP_DATA_R.:E05TOU  cannot be made into a system file and is referenced.
   B$JIT_C.:E05TOU  was found in the system file and is referenced.
   CP_6_C.:E05TOU  was found in the system file and is referenced.
      No diagnostics issued in procedure VPH$LIST.

   Procedure VPH$LIST requires 1121 words for executable code.
   Procedure VPH$LIST requires 126 words of local(AUTO) storage.

PL6.E3A0      #001=VPH$LIST File=VPH$LISTREV.:E05TSI                             WED 07/30/97 07:39 Page:21

 Object Unit name= VPH$LIST                                   File name= VPH$LISTREV.:E05TOU
 UTS= JUL 30 '97 07:39:32.04 WED                              Compiler= PL-6/E31         Sev=      00
 SharedLib= :SHARED_SYSTEM                                    Alt SharedLib=


    ****  Control sections  ****

 Sect   Type Bound  Init  Size OctSiz  Section name(segment info)
    0   DCB   even  none     0      0  M$UC
    1   DCB   even  none     0      0  M$EI
    2   DCB   even  none     0      0  M$EO
    3   DCB   even  none     0      0  M$EO1
    4   DCB   even  none     0      0  M$ME
    5   DCB   even  none     0      0  M$SI
    6   DCB   even  none     0      0  M$READFILE
    7   DCB   even  none     0      0  M$DO
    8   DCB   even  none     0      0  M$STD1
    9   DCB   even  none     0      0  M$SORT1
   10  RoData even  UTS     63     77  VPH$LIST
   11   Data  even  none    51     63  VPH$LIST
   12   Proc  even  none  1121   2141  VPH$LIST
   13  RoData even  none    50     62  VPH$LIST

    ****  Entry defs  ****

                              Check   Calling
                             calling  sequence
  Sect OctLoc Primary Altret sequence   type   Parms  Name
    12      0   yes            yes      Std        0  VPH$LIST
    12      3                  yes      Std        0  VPH$LISTSTD
    12      6                  yes      Std        0  VPH$REVIEW
    12     21                  yes      Std        0  VPH$REVIEWSTD
PL6.E3A0      #001=VPH$LIST File=VPH$LISTREV.:E05TSI                             WED 07/30/97 07:39 Page:22

  ****  Entry refs  ****

         Check        Calling
        calling       sequence
Altret sequence SRef   type   Args  Name
         yes           Std       1 VPF$SET_FROM_INFO
         yes           Std       1 VPD$INIT_STD_FILE
         yes           Std       1 VPC$SETOUT
         yes           Std       3 VPF$OPEN_NEXT
         yes           Std       8 VPL$ERR_PROC
         yes           Std       1 VPD$CLOSE_OUT
         yes           Std       1 VPH$GET_LIST_BUFS
         yes           Std       1 VPD$ENLARGE_BUF
 yes     yes           Std       2 XSF$LOCCODP
 yes     yes           Std       1 VPF$PROCESS_INPUT_OPT
         yes           Std       0 VPG$SET_UP_WRITE
         yes           Std       2 VPD$FINISH_NLIST
         yes           Std       0 VPD$MINIMIZE_BUF
         yes           Std       2 VPF$GET_NEXT_SPEC
         yes           Std       1 VPD$CLOBBERLZ
 yes     yes           Std       1 X$PARSE
         yes           Std       2 VPG$WRITE_OUT
         yes           Std       2 VPD$GET_SPEC_BUF
         yes           Std       1 VPD$GET_INPUT
         yes           Std       1 VPD$COUNTER_BUMP
         yes           Std       0 VPL$QUEST
 yes     yes           Std       4 VPD$TEXTC_CHARBIN
 yes     yes           Std       2 VPD$MNG_CRPT
         yes           Std       0 VPL$HELP
                       nStd      0 X66_AUTO_0
                       Std       0 B_CONSPOOL_D
                       nStd      0 X66_ARET
PL6.E3A0      #001=VPH$LIST File=VPH$LISTREV.:E05TSI                             WED 07/30/97 07:39 Page:23

  ****  Data refs  ****

  Flags:  r = read only, s = secondary
Flgs Name                             Flgs Name                             Flgs Name
     M$UC                                  PCB                                   ERR_FLG
     ABORT_STEP                            ABORT_CMD                             LIST_IDX
     LIST_BUF$                             CON_DUP_TBL                           THIS_STD_FILE
     BREAK_LOC                             BREAK_MESSAGE_REPORTER                FPARAM_BUF
     CMD_MASK                              OUTPUT_PWIDTH                         TOT_FILES
     TOT_GRANS                             TOT_RECS                              SPEC_BUF
     SINGLE_INSPEC                         USABLE_LEN                            OCB
     IN_RES                                ICB                                   DEF_ICB
     IN_BUF_VECTOR                         EI_KEY                                CUR_SEQ_NO
     M$EI                                  M$EI$                                 M$EO
     M$EO1                                 M$EO1$                                M$ME
     M$SI                                  M$SI$                                 M$READFILE
     M$DO                                  M$STD1                                M$STD1$
     M$SORT1                               B$TCB$                                B$JIT$
     TOP_STD_N                             TOP_REVIEW_CMD                        FPT_OPEN_EI_SAVE
r    FPT_READ_STD                          FPT_WRITE_ME                          FPT_CLOSE_EI
r    FPT_CLOSE_STD                         B_VECTNIL

  ****  Segment refs  ****

  Flags:  r = read only, s = secondary
Flgs Name                             Flgs Name                             Flgs Name
     ISSID                                 NULLSID
PL6.E3A0      #001=VPH$LIST File=VPH$LISTREV.:E05TSI                             WED 07/30/97 07:39 Page:24


        1        1        /*M* VPH$LISTREV  This module contains routines for the LIST,LISTSTD,
        2        2                          REVIEW, and REVIEWSTD commands.
        3        3        */
        4        4        /*T***********************************************************/
        5        5        /*T*                                                         */
        6        6        /*T* Copyright (c) Bull HN Information Systems Inc., 1997    */
        7        7        /*T*                                                         */
        8        8        /*T***********************************************************/
        9        9        /*X* DTI=1,THI=1 */
       10       10        /* Next available error code = 5 */
       11       11        VPH$LIST: PROC;

     11 12 000000   000000 700200 xent  VPH$LIST     TSX0  ! X66_AUTO_0
        12 000001   000176 000000                    ZERO    126,0
        12 000002   000005 710000 12                 TRA     s:8934

       12       12        /*D* NAME: VPH$LIST
       13       13             CALL: CALL VPH$LIST;
       14       14             DESCRIPTION: This procedure drives the LIST command.
       15       15        */
       16       16        %INCLUDE VP_DATA_R;
       17     7003        %INCLUDE F$DCB;
       18     7052        %INCLUDE FM$FIT;
       19     7273        %CODE03;
       20     7280        %B$TCB;
       21     7283        %B$ALT;
       22     7291        %INCLUDE B_ERRORS_C;
       23     8418 S      %INCLUDE B$JIT_C;
       24     8419        %B$JIT0;
       25     8508        %U$JIT1;
       26     8582    1         2 * BIT(1);                       /* Don't need rest of JIT             */
       27     8583        %PARSE$OUT(NAME = OUT$BLK,STCLASS = BASED);
       28     8628        %PARSE$SYM(NAME = OUT$SYM,STCLASS = BASED);
       29     8666    1   DCL LIS_MSG CHAR(0) CONSTANT INIT('..LISTing');
       30     8667    1   DCL 1 TEXT$C BASED,
       31     8668    1         2 LEN UBIN BYTE UNAL,
PL6.E3A0      #001=VPH$LIST File=VPH$LISTREV.:E05TSI                             WED 07/30/97 07:39 Page:25
       32     8669    1         2 STRING CHAR(TEXT$C.LEN);
       33     8670    1   DCL IDX SBIN WORD;
       34     8671    1   DCL IDX2 SBIN WORD;
       35     8672    1   DCL LIST_HDR_OUT BIT(9);
       36     8673    1   DCL NEXT_SPEC_RET_VAL SBIN WORD;
       37     8674    1   DCL OPEN_NEXT_RET_VAL SBIN WORD;
       38     8675    1   DCL I SBIN WORD;
       39     8676    1   DCL 1 EXTEND STATIC,
       40     8677    1         2 LEN UBIN BYTE UNAL,
       41     8678    1         2 * CHAR(1) INIT('@');
       42     8679    1   DCL CR_LF CHAR(1) STATIC INIT('A');     /* VFC to start a new line            */
       43     8680    1   DCL DEFAULT_LIST_CODE SBIN WORD;
       44     8681    1   DCL DEFAULT_LIST_COLS SBIN WORD;
       45     8682    1   DCL PTR$ PTR;
       46     8683    1   DCL OUT$ PTR;
       47     8684    1   DCL OUTSPEC$ PTR;
       48     8685    1   DCL SOURCELIST$ PTR;
       49     8686    1   DCL CLIST_CODE SBIN WORD;
       50     8687    1   DCL LIST_CODE SBIN WORD;
       51     8688    1   DCL 1 BUF_BLOCK BASED(LIST_BUF$) ALIGNED,
       52     8689    1         2 COUNT SBIN WORD,
       53     8690    1         2 BUF_1,
       54     8691    1           3 LEN UBIN BYTE UNAL,
       55     8692    1           3 STRING(0:0) CHAR(4);
       56     8693    1   DCL CUR_GRANS SBIN WORD;
       57     8694    1   DCL LIST_WKSZ SBIN WORD;
       58     8695    1   DCL LIST_WORK$ PTR;
       59     8696    1   DCL REV_RET_VAL SBIN WORD;
       60     8697    1   DCL SUM_IDX SBIN;
       61     8698    1   DCL SUM_LINE_TEXT CHAR(132);
       62     8699    1   DCL 1 SUM_LINE REDEF SUM_LINE_TEXT,
       63     8700    1         2 * CHAR(2),
       64     8701    1         2 FILES CHAR(5),
       65     8702    1         2 REST CHAR(125),
       66     8703    1         2 GRANS REDEF REST,
       67     8704    1           3 * CHAR(7),
       68     8705    1           3 GRANS CHAR(6),
PL6.E3A0      #001=VPH$LIST File=VPH$LISTREV.:E05TSI                             WED 07/30/97 07:39 Page:26
       69     8706    1           3 * CHAR(10),
       70     8707    1           3 RECS CHAR(8),
       71     8708    1           3 * CHAR(94);
       72     8709    1   DCL 1 DEL_TEXT CHAR(36) BASED;
       73     8710    1   DCL 1 DEL REDEF DEL_TEXT,
       74     8711    1         2 * CHAR(1),
       75     8712    1         2 FILES CHAR(5),
       76     8713    1         2 * CHAR(7),
       77     8714    1         2 GRANS CHAR(6),
       78     8715    1         2 * CHAR(17);
       79     8716    1   DCL TEMP SBIN WORD;
       80     8717    1   DCL CHAR$1 CHAR(1) BASED;
       81     8718    1   DCL CHAR$72 CHAR(72) BASED;
       82     8719    1   DCL CHAR$132 CHAR(132) BASED;
       83     8720        /**/
       84     8721        /*  ENTRY POINTS  */
       85     8722        /**/
       86     8723    1   DCL XSF$LOCCODP ENTRY(2) ALTRET;
       87     8724    1   DCL X$PARSE ENTRY(1) ALTRET;
       88     8725        %VP_ENTRIES (OMIT=VPH$LIST);
       89     8933    1   VPH$LISTSTD: ENTRY;

   8933 12 000003   000000 700200 xent  VPH$LISTSTD  TSX0  ! X66_AUTO_0
        12 000004   000176 000000                    ZERO    126,0

       90     8934    1           GOTO START;

   8934 12 000005   000034 710000 12                 TRA     START

       91     8935    1   VPH$REVIEW: ENTRY;

   8935 12 000006   000000 700200 xent  VPH$REVIEW   TSX0  ! X66_AUTO_0
        12 000007   000176 000000                    ZERO    126,0

       92     8936        /*D* NAME: VPH$REVIEW
       93     8937             CALL: CALL VPH$REVIEW;
       94     8938             DESCRIPTION: This is an entry point inside LIST used for the REVIEW
PL6.E3A0      #001=VPH$LIST File=VPH$LISTREV.:E05TSI                             WED 07/30/97 07:39 Page:27
       95     8939                          command.
       96     8940        */
       97     8941    1           IF NOT M$SI$->F$DCB.DDEV.IC

   8941 12 000010   000000 470400 xsym               LDP0    M$SI$
        12 000011   000004 236100                    LDQ     4,,PR0
        12 000012   100000 316007                    CANQ    32768,DL
        12 000013   000020 601000 12                 TNZ     s:8944

       98     8942    1            THEN
       99     8943    1              CMD_MASK = '000400'O;        /* MAKE REVIEW INTO A LIST IF         */

   8943 12 000014   000400 235003                    LDA     256,DU
        12 000015   000000 236003                    LDQ     0,DU
        12 000016   000000 755000 xsym               STA     CMD_MASK
        12 000017   000001 756000 xsym               STQ     CMD_MASK+1

      100     8944    1           GOTO START;                     /* INPUT NOT FROM A TERMINAL          */

   8944 12 000020   000034 710000 12                 TRA     START

      101     8945    1   VPH$REVIEWSTD: ENTRY;

   8945 12 000021   000000 700200 xent  VPH$REVIEWS* TSX0  ! X66_AUTO_0
        12 000022   000176 000000                    ZERO    126,0

      102     8946        /*D* NAME: VPH$REVIEWSTD
      103     8947             CALL: CALL VPH$REVIEWSTD;
      104     8948             DESCRIPTION: This is an entry point inside LIST used for the REVIEWSTD
      105     8949                          command.
      106     8950        */
      107     8951    1           IF NOT M$SI$->F$DCB.DDEV.IC

   8951 12 000023   000000 470400 xsym               LDP0    M$SI$
        12 000024   000004 236100                    LDQ     4,,PR0
        12 000025   100000 316007                    CANQ    32768,DL
        12 000026   000033 601000 12                 TNZ     s:8954
PL6.E3A0      #001=VPH$LIST File=VPH$LISTREV.:E05TSI                             WED 07/30/97 07:39 Page:28

      108     8952    1            THEN
      109     8953    1              CMD_MASK = '000200'O;        /* MAKE REVIEWSTD A LISTSTD CMD       */

   8953 12 000027   000200 235003                    LDA     128,DU
        12 000030   000000 236003                    LDQ     0,DU
        12 000031   000000 755000 xsym               STA     CMD_MASK
        12 000032   000001 756000 xsym               STQ     CMD_MASK+1

      110     8954    1           GOTO START;                     /* IF INPUT NOT FROM A TERMINAL       */

   8954 12 000033   000034 710000 12                 TRA     START

      111     8955    1   START:
      112     8956    1           REMEMBER LIST_ABORT IN ABORT_CMD;

   8956 12 000034   001324 635000 12    START        EAA     LIST_ABORT
        12 000035   000000 452400 xsym               STP2    ABORT_CMD
        12 000036   000001 755000 xsym               STA     ABORT_CMD+1

      113     8957    1           REMEMBER NEXT_FILE IN ABORT_STEP;

   8957 12 000037   001014 635000 12                 EAA     NEXT_FILE
        12 000040   000000 452400 xsym               STP2    ABORT_STEP
        12 000041   000001 755000 xsym               STA     ABORT_STEP+1

      114     8958    1           REMEMBER FIN_LIST IN BREAK_LOC;

   8958 12 000042   001076 635000 12                 EAA     FIN_LIST
        12 000043   000000 452400 xsym               STP2    BREAK_LOC
        12 000044   000001 755000 xsym               STA     BREAK_LOC+1

      115     8959    1           LIST_HDR_OUT = '0'B;

   8959 12 000045   200005 450100                    STZ     LIST_HDR_OUT,,AUTO

      116     8960    1           LIST_IDX = -1;
PL6.E3A0      #001=VPH$LIST File=VPH$LISTREV.:E05TSI                             WED 07/30/97 07:39 Page:29

   8960 12 000046   000001 336007                    LCQ     1,DL
        12 000047   000000 756000 xsym               STQ     LIST_IDX

      117     8961    1           DEFAULT_LIST_CODE = 0;

   8961 12 000050   200011 450100                    STZ     DEFAULT_LIST_CODE,,AUTO

      118     8962    1           DEFAULT_LIST_COLS = 12;

   8962 12 000051   000014 235007                    LDA     12,DL
        12 000052   200012 755100                    STA     DEFAULT_LIST_COLS,,AUTO

      119     8963    1           OUTSPEC$ = ADDR(NIL);

   8963 12 000053   000001 236000 xsym               LDQ     B_VECTNIL+1
        12 000054   200015 756100                    STQ     OUTSPEC$,,AUTO

      120     8964    1           SOURCELIST$ = ADDR(NIL);

   8964 12 000055   200016 756100                    STQ     SOURCELIST$,,AUTO

      121     8965    1           DEF_ICB = '0'B;

   8965 12 000056   000000 100400                    MLR     fill='000'O
        12 000057   000002 000001 xsym               ADSC9   B_VECTNIL+2              cn=0,n=1
        12 000060   000000 001214 xsym               ADSC9   DEF_ICB                  cn=0,n=652

      122     8966    2           DO IDX=0 TO PCB.OUT$->OUT$BLK.NSUBLKS-1;

   8966 12 000061   200003 450100                    STZ     IDX,,AUTO
        12 000062   000161 710000 12                 TRA     s:8989+1

      123     8967    2              PTR$ = PCB.OUT$->OUT$BLK.SUBLK$(IDX);

   8967 12 000063   000003 470400 xsym               LDP0    PCB+3
        12 000064   200003 720100                    LXL0    IDX,,AUTO
PL6.E3A0      #001=VPH$LIST File=VPH$LISTREV.:E05TSI                             WED 07/30/97 07:39 Page:30
        12 000065   000003 236110                    LDQ     3,X0,PR0
        12 000066   200013 756100                    STQ     PTR$,,AUTO

      124     8968    3              DO CASE(PTR$->OUT$BLK.CODE);

   8968 12 000067   200013 471500                    LDP1    PTR$,,AUTO
        12 000070   100000 721100                    LXL1    0,,PR1
        12 000071   000006 101003                    CMPX1   6,DU
        12 000072   000074 602011 12                 TNC     s:8968+5,X1
        12 000073   000160 710000 12                 TRA     s:8989
        12 000074   000160 710000 12                 TRA     s:8989
        12 000075   000102 710000 12                 TRA     s:8970
        12 000076   000104 710000 12                 TRA     s:8972
        12 000077   000106 710000 12                 TRA     s:8974
        12 000100   000115 710000 12                 TRA     s:8976
        12 000101   000124 710000 12                 TRA     s:8978

      125     8969    3               CASE(1);                    /* SOURCELIST                         */

      126     8970    3                 SOURCELIST$ = PTR$;

   8970 12 000102   200016 756100                    STQ     SOURCELIST$,,AUTO
        12 000103   000160 710000 12                 TRA     s:8989

      127     8971    3               CASE(2);                    /* OUTSPEC                            */

      128     8972    3                 OUTSPEC$ = PTR$;

   8972 12 000104   200015 756100                    STQ     OUTSPEC$,,AUTO
        12 000105   000160 710000 12                 TRA     s:8989

      129     8973    3               CASE(3);                    /* FROM 'FID'                         */

      130     8974    3                 CALL VPF$SET_FROM_INFO(PTR$->OUT$BLK.SUBLK$(0));

   8974 12 000106   000003 036003                    ADLQ    3,DU
        12 000107   200170 756100                    STQ     NUMRECS+2,,AUTO
PL6.E3A0      #001=VPH$LIST File=VPH$LISTREV.:E05TSI                             WED 07/30/97 07:39 Page:31
        12 000110   200170 630500                    EPPR0   NUMRECS+2,,AUTO
        12 000111   000017 631400 xsym               EPPR1   B_VECTNIL+15
        12 000112   000000 701000 xent               TSX1    VPF$SET_FROM_INFO
        12 000113   000000 011000                    NOP     0
        12 000114   000160 710000 12                 TRA     s:8989

      131     8975    3               CASE(4);                    /* LISTSTD 'FID'                      */

      132     8976    3                 CALL VPD$INIT_STD_FILE(PTR$);

   8976 12 000115   200013 633500                    EPPR3   PTR$,,AUTO
        12 000116   200170 453500                    STP3    NUMRECS+2,,AUTO
        12 000117   200170 630500                    EPPR0   NUMRECS+2,,AUTO
        12 000120   000017 631400 xsym               EPPR1   B_VECTNIL+15
        12 000121   000000 701000 xent               TSX1    VPD$INIT_STD_FILE
        12 000122   000000 011000                    NOP     0
        12 000123   000160 710000 12                 TRA     s:8989

      133     8977    3               CASE(5);                    /* DEFAULT LIST OPTION                */

      134     8978    3                 CON_DUP_TBL = '0'B;

   8978 12 000124   000000 450000 xsym               STZ     CON_DUP_TBL

      135     8979    3                 ICB = '0'B;

   8979 12 000125   000000 100400                    MLR     fill='000'O
        12 000126   000002 000001 xsym               ADSC9   B_VECTNIL+2              cn=0,n=1
        12 000127   000000 001214 xsym               ADSC9   ICB                      cn=0,n=652

      136     8980    3                 ICB.DEV_MASK = '777'O;

   8980 12 000130   777000 236003                    LDQ     -512,DU
        12 000131   000171 756000 xsym               STQ     ICB+121

      137     8981    4                 DO IDX2 = 0 TO PTR$ -> OUT$BLK.NSUBLKS -1;

PL6.E3A0      #001=VPH$LIST File=VPH$LISTREV.:E05TSI                             WED 07/30/97 07:39 Page:32
   8981 12 000132   200004 450100                    STZ     IDX2,,AUTO
        12 000133   000150 710000 12                 TRA     s:8986+1

      138     8982    4                    OUT$=PTR$->OUT$BLK.SUBLK$(IDX2);

   8982 12 000134   200013 470500                    LDP0    PTR$,,AUTO
        12 000135   200004 720100                    LXL0    IDX2,,AUTO
        12 000136   000003 236110                    LDQ     3,X0,PR0
        12 000137   200014 756100                    STQ     OUT$,,AUTO

      139     8983    4                    CALL VPF$PROCESS_INPUT_OPT(OUT$)

   8983 12 000140   200014 631500                    EPPR1   OUT$,,AUTO
        12 000141   200170 451500                    STP1    NUMRECS+2,,AUTO
        12 000142   200170 630500                    EPPR0   NUMRECS+2,,AUTO
        12 000143   000017 631400 xsym               EPPR1   B_VECTNIL+15
        12 000144   000000 701000 xent               TSX1    VPF$PROCESS_INPUT_OPT
        12 000145   000147 702000 12                 TSX2    s:8986
        12 000146   000147 710000 12                 TRA     s:8986

      140     8984    5                     WHENALTRETURN DO;

      141     8985    5                        END;

      142     8986    4                    END;

   8986 12 000147   200004 054100                    AOS     IDX2,,AUTO
        12 000150   200013 470500                    LDP0    PTR$,,AUTO
        12 000151   000001 236100                    LDQ     1,,PR0
        12 000152   000022 772000                    QRL     18
        12 000153   200004 116100                    CMPQ    IDX2,,AUTO
        12 000154   000134 605400 12                 TPNZ    s:8982

      143     8987    3                 DEF_ICB = ICB;

   8987 12 000155   000000 100400                    MLR     fill='000'O
        12 000156   000000 001214 xsym               ADSC9   ICB                      cn=0,n=652
PL6.E3A0      #001=VPH$LIST File=VPH$LISTREV.:E05TSI                             WED 07/30/97 07:39 Page:33
        12 000157   000000 001214 xsym               ADSC9   DEF_ICB                  cn=0,n=652

      144     8988    3               END;                        /* END CASE                           */

      145     8989    2              END;

   8989 12 000160   200003 054100                    AOS     IDX,,AUTO
        12 000161   000003 470400 xsym               LDP0    PCB+3
        12 000162   000001 236100                    LDQ     1,,PR0
        12 000163   000022 772000                    QRL     18
        12 000164   200003 116100                    CMPQ    IDX,,AUTO
        12 000165   000063 605400 12                 TPNZ    s:8967

      146     8990    1           CALL VPC$SETOUT(OUTSPEC$);      /* Setup and open output file         */

   8990 12 000166   200015 631500                    EPPR1   OUTSPEC$,,AUTO
        12 000167   200170 451500                    STP1    NUMRECS+2,,AUTO
        12 000170   200170 630500                    EPPR0   NUMRECS+2,,AUTO
        12 000171   000017 631400 xsym               EPPR1   B_VECTNIL+15
        12 000172   000000 701000 xent               TSX1    VPC$SETOUT
        12 000173   000000 011000                    NOP     0

      147     8991    1           CALL VPG$SET_UP_WRITE;

   8991 12 000174   000002 631400 xsym               EPPR1   B_VECTNIL+2
        12 000175   000000 701000 xent               TSX1    VPG$SET_UP_WRITE
        12 000176   000000 011000                    NOP     0

      148     8992    1           CALL GET_USABLE_LEN;

   8992 12 000177   001445 701000 12                 TSX1    GET_USABLE_LEN
        12 000200   000000 011000                    NOP     0

      149     8993    1           EI_KEY.LEN = 0;

   8993 12 000201   000000 236003                    LDQ     0,DU
        12 000202   000000 552040 xsym               STBQ    EI_KEY,'40'O
PL6.E3A0      #001=VPH$LIST File=VPH$LISTREV.:E05TSI                             WED 07/30/97 07:39 Page:34

      150     8994    1           EI_KEY.LEN = EI_KEY.LEN -1;     /* Insure error on unitialized key WR */

   8994 12 000203   000000 236000 xsym               LDQ     EI_KEY
        12 000204   777000 036003                    ADLQ    -512,DU
        12 000205   000000 552040 xsym               STBQ    EI_KEY,'40'O

      151     8995    1           CUR_SEQ_NO = 0;

   8995 12 000206   000000 450000 xsym               STZ     CUR_SEQ_NO

      152     8996    1          CALL VPD$ENLARGE_BUF((MAXIMUM(OCB.RECSIZE.MIN_SIZE,OCB.RECSIZE.MAX_SIZE)+20+
              8996                    4095)/4096);

   8996 12 000207   000006 236000 xsym               LDQ     OCB+6
        12 000210   000004 116000 xsym               CMPQ    OCB+4
        12 000211   000213 605000 12                 TPL     s:8996+4
        12 000212   000004 236000 xsym               LDQ     OCB+4
        12 000213   010023 036007                    ADLQ    4115,DL
        12 000214   010000 506007                    DIV     4096,DL
        12 000215   200170 756100                    STQ     NUMRECS+2,,AUTO
        12 000216   200170 630500                    EPPR0   NUMRECS+2,,AUTO
        12 000217   200171 450500                    STP0    NUMRECS+3,,AUTO
        12 000220   200171 630500                    EPPR0   NUMRECS+3,,AUTO
        12 000221   000017 631400 xsym               EPPR1   B_VECTNIL+15
        12 000222   000000 701000 xent               TSX1    VPD$ENLARGE_BUF
        12 000223   000000 011000                    NOP     0

      153     8997    1           IF CMD_MASK & '000200002'O      /* LISTSTD OR REVIEWSTD               */

   8997 12 000224   000043 235000 10                 LDA     DELETED_BUF+6
        12 000225   000000 236003                    LDQ     0,DU
        12 000226   200170 757100                    STAQ    NUMRECS+2,,AUTO
        12 000227   000100 100400                    MLR     fill='000'O
        12 000230   000000 000010 xsym               ADSC9   CMD_MASK                 cn=0,n=8
        12 000231   200172 000010                    ADSC9   NUMRECS+4,,AUTO          cn=0,n=8
        12 000232   200172 237100                    LDAQ    NUMRECS+4,,AUTO
PL6.E3A0      #001=VPH$LIST File=VPH$LISTREV.:E05TSI                             WED 07/30/97 07:39 Page:35
        12 000233   200170 377100                    ANAQ    NUMRECS+2,,AUTO
        12 000234   000267 600000 12                 TZE     s:9012

      154     8998    1            THEN
      155     8999    2            DO;

      156     9000    2               LIST_WORK$ = PCB.WORK$;

   9000 12 000235   000002 236000 xsym               LDQ     PCB+2
        12 000236   200023 756100                    STQ     LIST_WORK$,,AUTO

      157     9001    2               LIST_WKSZ = PCB.WKSZ;

   9001 12 000237   000005 235000 xsym               LDA     PCB+5
        12 000240   000022 771000                    ARL     18
        12 000241   200022 755100                    STA     LIST_WKSZ,,AUTO

      158     9002    2               PCB.U$$ = ENTADDR(NIL);

   9002 12 000242   000002 236000 xsym               LDQ     B_VECTNIL+2
        12 000243   000004 756000 xsym               STQ     PCB+4

      159     9003    2   LISTSTD_L:
      160     9004    2               CALL M$READ(FPT_READ_STD) ALTRET(STD_READ_ALT);

   9004 12 000244   000000 630400 xsym  LISTSTD_L    EPPR0   FPT_READ_STD
        12 000245   440000 713400                    CLIMB   alt,read
        12 000246   401400 401760                    pmme    nvectors=4
        12 000247   001365 702000 12                 TSX2    STD_READ_ALT

      161     9005    2               PCB.NCHARS = M$STD1$->F$DCB.ARS;

   9005 12 000250   000000 470400 xsym               LDP0    M$STD1$
        12 000251   000000 235100                    LDA     0,,PR0
        12 000252   000011 755000 xsym               STA     PCB+9

      162     9006    2               PCB.ROOT$ = ADDR(TOP_STD_N);
PL6.E3A0      #001=VPH$LIST File=VPH$LISTREV.:E05TSI                             WED 07/30/97 07:39 Page:36

   9006 12 000253   000000 236000 13                 LDQ     0
        12 000254   000001 756000 xsym               STQ     PCB+1

      163     9007    2               PCB.WORK$ = LIST_WORK$;

   9007 12 000255   200023 236100                    LDQ     LIST_WORK$,,AUTO
        12 000256   000002 756000 xsym               STQ     PCB+2

      164     9008    2               PCB.WKSZ = LIST_WKSZ;

   9008 12 000257   200022 720100                    LXL0    LIST_WKSZ,,AUTO
        12 000260   000005 740000 xsym               STX0    PCB+5

      165     9009    2               CALL X$PARSE(PCB) ALTRET(STD_PARSE_ALT);

   9009 12 000261   000001 630400 13                 EPPR0   1
        12 000262   000017 631400 xsym               EPPR1   B_VECTNIL+15
        12 000263   000000 701000 xent               TSX1    X$PARSE
        12 000264   001377 702000 12                 TSX2    STD_PARSE_ALT

      166     9010    2               SOURCELIST$ = PCB.OUT$;

   9010 12 000265   000003 236000 xsym               LDQ     PCB+3
        12 000266   200016 756100                    STQ     SOURCELIST$,,AUTO

      167     9011    2               END;

      168     9012    1           IF CMD_MASK & '000100002'O      /* IF REVIEW OR REVIEWSTD             */

   9012 12 000267   000044 235000 10                 LDA     DELETED_BUF+7
        12 000270   000000 236003                    LDQ     0,DU
        12 000271   200170 757100                    STAQ    NUMRECS+2,,AUTO
        12 000272   000100 100400                    MLR     fill='000'O
        12 000273   000000 000010 xsym               ADSC9   CMD_MASK                 cn=0,n=8
        12 000274   200172 000010                    ADSC9   NUMRECS+4,,AUTO          cn=0,n=8
        12 000275   200172 237100                    LDAQ    NUMRECS+4,,AUTO
PL6.E3A0      #001=VPH$LIST File=VPH$LISTREV.:E05TSI                             WED 07/30/97 07:39 Page:37
        12 000276   200170 377100                    ANAQ    NUMRECS+2,,AUTO
        12 000277   000320 600000 12                 TZE     s:9020

      169     9013    1            THEN
      170     9014    2            DO;

      171     9015    2               PCB.U$$ = ENTADDR(NIL);

   9015 12 000300   000002 236000 xsym               LDQ     B_VECTNIL+2
        12 000301   000004 756000 xsym               STQ     PCB+4

      172     9016    2               PCB.WORK$ = PINCRW(PCB.WORK$,PCB.WK_USED);

   9016 12 000302   000010 236000 xsym               LDQ     PCB+8
        12 000303   777777 376003                    ANQ     -1,DU
        12 000304   000002 036000 xsym               ADLQ    PCB+2
        12 000305   000002 756000 xsym               STQ     PCB+2

      173     9017    2               PCB.WKSZ = PCB.WKSZ-PCB.WK_USED;

   9017 12 000306   000010 235000 xsym               LDA     PCB+8
        12 000307   000022 771000                    ARL     18
        12 000310   200170 755100                    STA     NUMRECS+2,,AUTO
        12 000311   000005 236000 xsym               LDQ     PCB+5
        12 000312   000022 772000                    QRL     18
        12 000313   200170 136100                    SBLQ    NUMRECS+2,,AUTO
        12 000314   000000 620006                    EAX0    0,QL
        12 000315   000005 740000 xsym               STX0    PCB+5

      174     9018    2               PCB.ROOT$ = ADDR(TOP_REVIEW_CMD);

   9018 12 000316   000002 236000 13                 LDQ     2
        12 000317   000001 756000 xsym               STQ     PCB+1

      175     9019    2               END;

      176     9020    1           CALL VPF$GET_NEXT_SPEC(NEXT_SPEC_RET_VAL,SOURCELIST$);
PL6.E3A0      #001=VPH$LIST File=VPH$LISTREV.:E05TSI                             WED 07/30/97 07:39 Page:38

   9020 12 000320   200016 630500                    EPPR0   SOURCELIST$,,AUTO
        12 000321   200171 450500                    STP0    NUMRECS+3,,AUTO
        12 000322   200006 631500                    EPPR1   NEXT_SPEC_RET_VAL,,AUTO
        12 000323   200170 451500                    STP1    NUMRECS+2,,AUTO
        12 000324   200170 630500                    EPPR0   NUMRECS+2,,AUTO
        12 000325   000020 631400 xsym               EPPR1   B_VECTNIL+16
        12 000326   000000 701000 xent               TSX1    VPF$GET_NEXT_SPEC
        12 000327   000000 011000                    NOP     0

      177     9021    2           DO WHILE(NEXT_SPEC_RET_VAL~=1);

   9021 12 000330   200006 235100                    LDA     NEXT_SPEC_RET_VAL,,AUTO
        12 000331   000001 115007                    CMPA    1,DL
        12 000332   001064 600000 12                 TZE     s:9164

      178     9022                                                /* WHILE new SOURCELIST remains       */
      179     9023    2              IF NEXT_SPEC_RET_VAL=0       /* IF ALL FINE...                     */

   9023 12 000333   200006 235100                    LDA     NEXT_SPEC_RET_VAL,,AUTO
        12 000334   001053 601000 12                 TNZ     NEXT_SPEC

      180     9024    2               THEN
      181     9025    3               DO;

      182     9026    3                  CALL GET_CLIST_CODE_AND_COLS;

   9026 12 000335   001415 701000 12                 TSX1    GET_CLIST_CODE_AND_COLS
        12 000336   000000 011000                    NOP     0

      183     9027    3                  IF (CLIST_CODE>2) OR (CMD_MASK & '000100002'O)

   9027 12 000337   200017 235100                    LDA     CLIST_CODE,,AUTO
        12 000340   000002 115007                    CMPA    2,DL
        12 000341   000354 605400 12                 TPNZ    s:9029
        12 000342   000044 236000 10                 LDQ     DELETED_BUF+7
        12 000343   000044 737000                    LLS     36
PL6.E3A0      #001=VPH$LIST File=VPH$LISTREV.:E05TSI                             WED 07/30/97 07:39 Page:39
        12 000344   000000 236003                    LDQ     0,DU
        12 000345   200170 757100                    STAQ    NUMRECS+2,,AUTO
        12 000346   000100 100400                    MLR     fill='000'O
        12 000347   000000 000010 xsym               ADSC9   CMD_MASK                 cn=0,n=8
        12 000350   200172 000010                    ADSC9   NUMRECS+4,,AUTO          cn=0,n=8
        12 000351   200172 237100                    LDAQ    NUMRECS+4,,AUTO
        12 000352   200170 377100                    ANAQ    NUMRECS+2,,AUTO
        12 000353   000365 600000 12                 TZE     s:9032

      184     9028    3                   THEN
      185     9029    3                     CALL VPF$OPEN_NEXT(OPEN_NEXT_RET_VAL,4);

   9029 12 000354   000003 236000 13                 LDQ     3
        12 000355   200171 756100                    STQ     NUMRECS+3,,AUTO
        12 000356   200007 630500                    EPPR0   OPEN_NEXT_RET_VAL,,AUTO
        12 000357   200170 450500                    STP0    NUMRECS+2,,AUTO
        12 000360   200170 630500                    EPPR0   NUMRECS+2,,AUTO
        12 000361   000020 631400 xsym               EPPR1   B_VECTNIL+16
        12 000362   000000 701000 xent               TSX1    VPF$OPEN_NEXT
        12 000363   000000 011000                    NOP     0
        12 000364   000375 710000 12                 TRA     s:9035

      186     9030                                                /* OPEN WITH FPARAM                   */
      187     9031    3                   ELSE
      188     9032    3                     CALL VPF$OPEN_NEXT(OPEN_NEXT_RET_VAL,2);

   9032 12 000365   000004 236000 13                 LDQ     4
        12 000366   200171 756100                    STQ     NUMRECS+3,,AUTO
        12 000367   200007 630500                    EPPR0   OPEN_NEXT_RET_VAL,,AUTO
        12 000370   200170 450500                    STP0    NUMRECS+2,,AUTO
        12 000371   200170 630500                    EPPR0   NUMRECS+2,,AUTO
        12 000372   000020 631400 xsym               EPPR1   B_VECTNIL+16
        12 000373   000000 701000 xent               TSX1    VPF$OPEN_NEXT
        12 000374   000000 011000                    NOP     0

      189     9033                                                /* OPEN WITH FPARAM ONLY IF           */
      190     9034                                                /* NEEDED FOR FILE SELECTION          */
PL6.E3A0      #001=VPH$LIST File=VPH$LISTREV.:E05TSI                             WED 07/30/97 07:39 Page:40
      191     9035    4                  DO WHILE(OPEN_NEXT_RET_VAL~=%VPOC_EXHAUSTED#);

   9035 12 000375   200007 235100                    LDA     OPEN_NEXT_RET_VAL,,AUTO
        12 000376   000001 115007                    CMPA    1,DL
        12 000377   001053 600000 12                 TZE     NEXT_SPEC

      192     9036    4                     IF CLIST_CODE>2

   9036 12 000400   200017 235100                    LDA     CLIST_CODE,,AUTO
        12 000401   000002 115007                    CMPA    2,DL
        12 000402   000411 604400 12                 TMOZ    s:9041
        12 000403   200007 236100                    LDQ     OPEN_NEXT_RET_VAL,,AUTO
        12 000404   000002 116007                    CMPQ    2,DL
        12 000405   000411 601000 12                 TNZ     s:9041

      193     9037    4                       AND OPEN_NEXT_RET_VAL=%VPOC_NOACCESS#
      194     9038    4                      THEN                 /* Access denied                      */
      195     9039    4                        LIST_CODE = 2;

   9039 12 000406   000002 235007                    LDA     2,DL
        12 000407   200020 755100                    STA     LIST_CODE,,AUTO
        12 000410   000412 710000 12                 TRA     s:9042

      196     9040    4                      ELSE
      197     9041    4                        LIST_CODE = CLIST_CODE;

   9041 12 000411   200020 755100                    STA     LIST_CODE,,AUTO

      198     9042    4                     IF OPEN_NEXT_RET_VAL = %VPOC_GOTFILE#

   9042 12 000412   200007 236100                    LDQ     OPEN_NEXT_RET_VAL,,AUTO
        12 000413   000451 601000 12                 TNZ     NO_GRANS
        12 000414   000171 236000 xsym               LDQ     ICB+121
        12 000415   777000 376003                    ANQ     -512,DU
        12 000416   100000 116003                    CMPQ    32768,DU
        12 000417   000451 600000 12                 TZE     NO_GRANS
        12 000420   000002 115007                    CMPA    2,DL
PL6.E3A0      #001=VPH$LIST File=VPH$LISTREV.:E05TSI                             WED 07/30/97 07:39 Page:41
        12 000421   000451 604400 12                 TMOZ    NO_GRANS

      199     9043    4                       AND ICB.DEV_MASK ~= '100'O /* AND not LT                  */
      200     9044    4                       AND LIST_CODE > 2   /* AND attributes                     */
      201     9045    4                      THEN                 /* Tally GRANS                        */
      202     9046    5                      DO;

      203     9047    5                         PTR$ = ADDR(FPARAM_BUF);

   9047 12 000422   000005 236000 13                 LDQ     5
        12 000423   200013 756100                    STQ     PTR$,,AUTO

      204     9048    5                         CALL XSF$LOCCODP(PTR$,3) ALTRET(NO_GRANS);

   9048 12 000424   000006 236000 13                 LDQ     6
        12 000425   200171 756100                    STQ     NUMRECS+3,,AUTO
        12 000426   200013 630500                    EPPR0   PTR$,,AUTO
        12 000427   200170 450500                    STP0    NUMRECS+2,,AUTO
        12 000430   200170 630500                    EPPR0   NUMRECS+2,,AUTO
        12 000431   000020 631400 xsym               EPPR1   B_VECTNIL+16
        12 000432   000000 701000 xent               TSX1    XSF$LOCCODP
        12 000433   000451 702000 12                 TSX2    NO_GRANS

      205     9049    5                         CUR_GRANS = PTR$->CODE03.UGRANS+PTR$->CODE03.NGAVAL;

   9049 12 000434   200013 470500                    LDP0    PTR$,,AUTO
        12 000435   000003 236100                    LDQ     3,,PR0
        12 000436   000032 376000 xsym               ANQ     B_VECTNIL+26
        12 000437   200170 756100                    STQ     NUMRECS+2,,AUTO
        12 000440   000000 236100                    LDQ     0,,PR0
        12 000441   000032 376000 xsym               ANQ     B_VECTNIL+26
        12 000442   200170 036100                    ADLQ    NUMRECS+2,,AUTO
        12 000443   200021 756100                    STQ     CUR_GRANS,,AUTO

      206     9050    5                         TOT_GRANS(2) = TOT_GRANS(2) + CUR_GRANS;

   9050 12 000444   000002 036000 xsym               ADLQ    TOT_GRANS+2
PL6.E3A0      #001=VPH$LIST File=VPH$LISTREV.:E05TSI                             WED 07/30/97 07:39 Page:42
        12 000445   000002 756000 xsym               STQ     TOT_GRANS+2

      207     9051    5                         TOT_RECS=TOT_RECS+PTR$->CODE03.NRECS;

   9051 12 000446   000000 236000 xsym               LDQ     TOT_RECS
        12 000447   000002 036100                    ADLQ    2,,PR0
        12 000450   000000 756000 xsym               STQ     TOT_RECS

      208     9052    5                         END;

   9050 12 000451                       NO_GRANS     null
      209     9053    4   NO_GRANS:         ;
      210     9054    4                     TOT_FILES(2) = TOT_FILES(2) +1;

   9054 12 000451   000002 054000 xsym               AOS     TOT_FILES+2

   9054 12 000452                       RELIST       null
      211     9055    4   RELIST:           ;
      212     9056    4                     CALL VPH$GET_LIST_BUFS(LIST_CODE);

   9056 12 000452   200020 630500                    EPPR0   LIST_CODE,,AUTO
        12 000453   200170 450500                    STP0    NUMRECS+2,,AUTO
        12 000454   200170 630500                    EPPR0   NUMRECS+2,,AUTO
        12 000455   000017 631400 xsym               EPPR1   B_VECTNIL+15
        12 000456   000000 701000 xent               TSX1    VPH$GET_LIST_BUFS
        12 000457   000000 011000                    NOP     0

      213     9057    4                     IF TOT_FILES(2) = 1   /* Before printing the first FID      */

   9057 12 000460   000002 235000 xsym               LDA     TOT_FILES+2
        12 000461   000001 115007                    CMPA    1,DL
        12 000462   000505 601000 12                 TNZ     s:9066
        12 000463   000000 470400 xsym               LDP0    M$EO1$
        12 000464   000004 236100                    LDQ     4,,PR0
        12 000465   000024 736000                    QLS     20
        12 000466   400000 376003                    ANQ     -131072,DU
        12 000467   400000 676003                    ERQ     -131072,DU
PL6.E3A0      #001=VPH$LIST File=VPH$LISTREV.:E05TSI                             WED 07/30/97 07:39 Page:43
        12 000470   000505 600000 12                 TZE     s:9066
        12 000471   000000 471400 xsym               LDP1    B$JIT$
        12 000472   100000 236100                    LDQ     0,,PR1
        12 000473   740000 376003                    ANQ     -16384,DU
        12 000474   140000 116003                    CMPQ    49152,DU
        12 000475   000505 601000 12                 TNZ     s:9066

      214     9058    4                       AND ~M$EO1$ -> F$DCB.DDEV.IC /* and output isn't terminal */
      215     9059    4                       AND B$JIT$ -> B$JIT.MODE = %M_INT#
      216     9060    4                      THEN                 /* Put out the listing message        */
      217     9061    5                      DO;

      218     9062    5                         FPT_WRITE_ME.BUF_ = VECTOR(LIS_MSG);

   9062 12 000476   000010 237000 13                 LDAQ    8
        12 000477   000004 757000 xsym               STAQ    FPT_WRITE_ME+4

      219     9063    5                         FPT_WRITE_ME.V.DVBYTE.VFC# = %NO#;

   9063 12 000500   000012 236000 13                 LDQ     10
        12 000501   000013 356000 xsym               ANSQ    FPT_WRITE_ME+11

      220     9064    5                         CALL M$WRITE(FPT_WRITE_ME);

   9064 12 000502   000000 630400 xsym               EPPR0   FPT_WRITE_ME
        12 000503   040001 713400                    CLIMB   write
        12 000504   401400 401760                    pmme    nvectors=4

      221     9065    5                         END;

      222     9066    4                     IF LIST_CODE ~= 1

   9066 12 000505   200020 235100                    LDA     LIST_CODE,,AUTO
        12 000506   000001 115007                    CMPA    1,DL
        12 000507   000525 600000 12                 TZE     s:9078

      223     9067    4                      THEN                 /* L(A) or better, may need header    */
PL6.E3A0      #001=VPH$LIST File=VPH$LISTREV.:E05TSI                             WED 07/30/97 07:39 Page:44
      224     9068    5                      DO;

      225     9069    5                         IF LIST_HDR_OUT ~= ICB.DEV_MASK

   9069 12 000510   200005 236100                    LDQ     LIST_HDR_OUT,,AUTO
        12 000511   000171 676000 xsym               ERQ     ICB+121
        12 000512   777000 376003                    ANQ     -512,DU
        12 000513   000526 600000 12                 TZE     s:9079

      226     9070    5                          THEN             /* New input device, make new header  */
      227     9071    6                          DO;

      228     9072    6                             CALL VPD$FINISH_NLIST; /* Finish any prev no attr L */

   9072 12 000514   000002 631400 xsym               EPPR1   B_VECTNIL+2
        12 000515   000000 701000 xent               TSX1    VPD$FINISH_NLIST
        12 000516   000000 011000                    NOP     0

      229     9073    6                             CALL OUT_LIST_HDR; /* Print new header              */

   9073 12 000517   001462 701000 12                 TSX1    OUT_LIST_HDR
        12 000520   000000 011000                    NOP     0

      230     9074    6                             LIST_HDR_OUT = ICB.DEV_MASK;

   9074 12 000521   000171 236000 xsym               LDQ     ICB+121
        12 000522   777000 376003                    ANQ     -512,DU
        12 000523   200005 756100                    STQ     LIST_HDR_OUT,,AUTO

      231     9075    6                             END;

      232     9076    5                         END;

   9076 12 000524   000526 710000 12                 TRA     s:9079

      233     9077    4                      ELSE                 /* No attribute LIST                  */
      234     9078    4                        LIST_HDR_OUT = '0'B; /* Insure header next L(A) or better */
PL6.E3A0      #001=VPH$LIST File=VPH$LISTREV.:E05TSI                             WED 07/30/97 07:39 Page:45

   9078 12 000525   200005 450100                    STZ     LIST_HDR_OUT,,AUTO

      235     9079    4                     IF LIST_CODE~=1 OR (CMD_MASK & '000100002'O)

   9079 12 000526   200020 235100                    LDA     LIST_CODE,,AUTO
        12 000527   000001 115007                    CMPA    1,DL
        12 000530   000543 601000 12                 TNZ     s:9082
        12 000531   000044 236000 10                 LDQ     DELETED_BUF+7
        12 000532   000044 737000                    LLS     36
        12 000533   000000 236003                    LDQ     0,DU
        12 000534   200170 757100                    STAQ    NUMRECS+2,,AUTO
        12 000535   000100 100400                    MLR     fill='000'O
        12 000536   000000 000010 xsym               ADSC9   CMD_MASK                 cn=0,n=8
        12 000537   200172 000010                    ADSC9   NUMRECS+4,,AUTO          cn=0,n=8
        12 000540   200172 237100                    LDAQ    NUMRECS+4,,AUTO
        12 000541   200170 377100                    ANAQ    NUMRECS+2,,AUTO
        12 000542   000673 600000 12                 TZE     s:9107

      236     9080    4                      THEN
      237     9081    5                      DO;

      238     9082    5                         PTR$ = ADDR(BUF_BLOCK.BUF_1);

   9082 12 000543   000000 236000 xsym               LDQ     LIST_BUF$
        12 000544   000001 036003                    ADLQ    1,DU
        12 000545   200013 756100                    STQ     PTR$,,AUTO

      239     9083    6                         DO I=1 TO BUF_BLOCK.COUNT;

   9083 12 000546   000001 235007                    LDA     1,DL
        12 000547   200010 755100                    STA     I,,AUTO
        12 000550   000662 710000 12                 TRA     s:9101+1

      240     9084    6                            IF I=BUF_BLOCK.COUNT AND (CMD_MASK & '000100002'O)

   9084 12 000551   000000 470400 xsym               LDP0    LIST_BUF$
PL6.E3A0      #001=VPH$LIST File=VPH$LISTREV.:E05TSI                             WED 07/30/97 07:39 Page:46
        12 000552   200010 236100                    LDQ     I,,AUTO
        12 000553   000000 116100                    CMPQ    0,,PR0
        12 000554   000575 601000 12                 TNZ     s:9092
        12 000555   000044 235000 10                 LDA     DELETED_BUF+7
        12 000556   000000 236003                    LDQ     0,DU
        12 000557   200170 757100                    STAQ    NUMRECS+2,,AUTO
        12 000560   000100 100400                    MLR     fill='000'O
        12 000561   000000 000010 xsym               ADSC9   CMD_MASK                 cn=0,n=8
        12 000562   200172 000010                    ADSC9   NUMRECS+4,,AUTO          cn=0,n=8
        12 000563   200172 237100                    LDAQ    NUMRECS+4,,AUTO
        12 000564   200170 377100                    ANAQ    NUMRECS+2,,AUTO
        12 000565   000575 600000 12                 TZE     s:9092

      241     9085    6                             THEN
      242     9086    7                             DO;

      243     9087    7                                EXTEND.LEN = 1;

   9087 12 000566   001000 236003                    LDQ     512,DU
        12 000567   000000 552040 11                 STBQ    EXTEND,'40'O

      244     9088    7                                OCB.VFC = 2;

   9088 12 000570   000024 236000 xsym               LDQ     OCB+20
        12 000571   000013 376000 13                 ANQ     11
        12 000572   400000 276003                    ORQ     -131072,DU
        12 000573   000024 756000 xsym               STQ     OCB+20

      245     9089    7                                END;

   9089 12 000574   000601 710000 12                 TRA     s:9095

      246     9090    6                             ELSE
      247     9091    7                             DO;

      248     9092    7                                EXTEND.LEN = 0;

PL6.E3A0      #001=VPH$LIST File=VPH$LISTREV.:E05TSI                             WED 07/30/97 07:39 Page:47
   9092 12 000575   000000 236003                    LDQ     0,DU
        12 000576   000000 552040 11                 STBQ    EXTEND,'40'O

      249     9093    7                                OCB.VFC = 0;

   9093 12 000577   000013 236000 13                 LDQ     11
        12 000600   000024 356000 xsym               ANSQ    OCB+20

      250     9094    7                                END;

      251     9095    6                            CALL CONCAT(IN_BUF_VECTOR.PTR$->CHAR$132,

   9095 12 000601   000000 236000 11                 LDQ     EXTEND
        12 000602   000033 772000                    QRL     27
        12 000603   200013 471500                    LDP1    PTR$,,AUTO
        12 000604   000100 101500                    MRL     fill='000'O
        12 000605   100000 000001                    ADSC9   0,,PR1                   cn=0,n=1
        12 000606   200170 000002                    ADSC9   NUMRECS+2,,AUTO          cn=0,n=2
        12 000607   200170 220100                    LDX0    NUMRECS+2,,AUTO
        12 000610   000000 621006                    EAX1    0,QL
        12 000611   000001 473400 xsym               LDP3    IN_BUF_VECTOR+1
        12 000612   040100 100440                    MLR     fill='040'O
        12 000613   000000 200011 11                 ADSC9   EXTEND                   cn=1,n=*X1
        12 000614   300000 000204                    ADSC9   0,,PR3                   cn=0,n=132
        12 000615   000204 116007                    CMPQ    132,DL
        12 000616   000626 603000 12                 TRC     s:9098
        12 000617   777573 621006                    EAX1    -133,QL
        12 000620   777777 661003                    ERX1    -1,DU
        12 000621   200013 470500                    LDP0    PTR$,,AUTO
        12 000622   000001 471400 xsym               LDP1    IN_BUF_VECTOR+1
        12 000623   040146 100540                    MLR     fill='040'O
        12 000624   000000 200010                    ADSC9   0,,PR0                   cn=1,n=*X0
        12 000625   100000 000011                    ADSC9   0,Q,PR1                  cn=0,n=*X1

      252     9096    6                              ADDR(EXTEND)->TEXT$C.STRING,
      253     9097    6                              PTR$->TEXT$C.STRING);
      254     9098    6                            TEMP = PTR$->TEXT$C.LEN + EXTEND.LEN;
PL6.E3A0      #001=VPH$LIST File=VPH$LISTREV.:E05TSI                             WED 07/30/97 07:39 Page:48

   9098 12 000626   000000 236000 11                 LDQ     EXTEND
        12 000627   000033 772000                    QRL     27
        12 000630   200170 756100                    STQ     NUMRECS+2,,AUTO
        12 000631   200013 470500                    LDP0    PTR$,,AUTO
        12 000632   000100 101500                    MRL     fill='000'O
        12 000633   000000 000001                    ADSC9   0,,PR0                   cn=0,n=1
        12 000634   200171 000004                    ADSC9   NUMRECS+3,,AUTO          cn=0,n=4
        12 000635   200171 236100                    LDQ     NUMRECS+3,,AUTO
        12 000636   200170 036100                    ADLQ    NUMRECS+2,,AUTO
        12 000637   200067 756100                    STQ     TEMP,,AUTO

      255     9099    6                            CALL VPG$WRITE_OUT(TEMP,0);

   9099 12 000640   000014 236000 13                 LDQ     12
        12 000641   200171 756100                    STQ     NUMRECS+3,,AUTO
        12 000642   200067 631500                    EPPR1   TEMP,,AUTO
        12 000643   200170 451500                    STP1    NUMRECS+2,,AUTO
        12 000644   200170 630500                    EPPR0   NUMRECS+2,,AUTO
        12 000645   000020 631400 xsym               EPPR1   B_VECTNIL+16
        12 000646   000000 701000 xent               TSX1    VPG$WRITE_OUT
        12 000647   000000 011000                    NOP     0

      256     9100    6                            PTR$ = PINCRC(PTR$,PTR$->TEXT$C.LEN+1);

   9100 12 000650   200013 470500                    LDP0    PTR$,,AUTO
        12 000651   000100 101500                    MRL     fill='000'O
        12 000652   000000 000001                    ADSC9   0,,PR0                   cn=0,n=1
        12 000653   200170 000004                    ADSC9   NUMRECS+2,,AUTO          cn=0,n=4
        12 000654   200170 236100                    LDQ     NUMRECS+2,,AUTO
        12 000655   000020 736000                    QLS     16
        12 000656   200000 036007                    ADLQ    65536,DL
        12 000657   200013 036100                    ADLQ    PTR$,,AUTO
        12 000660   200013 756100                    STQ     PTR$,,AUTO

      257     9101    6                            END;

PL6.E3A0      #001=VPH$LIST File=VPH$LISTREV.:E05TSI                             WED 07/30/97 07:39 Page:49
   9101 12 000661   200010 054100                    AOS     I,,AUTO
        12 000662   000000 470400 xsym               LDP0    LIST_BUF$
        12 000663   200010 236100                    LDQ     I,,AUTO
        12 000664   000000 116100                    CMPQ    0,,PR0
        12 000665   000551 604400 12                 TMOZ    s:9084

      258     9102    5                         EXTEND.LEN = 0;

   9102 12 000666   000000 236003                    LDQ     0,DU
        12 000667   000000 552040 11                 STBQ    EXTEND,'40'O

      259     9103    5                         OCB.VFC = 0;

   9103 12 000670   000013 236000 13                 LDQ     11
        12 000671   000024 356000 xsym               ANSQ    OCB+20

      260     9104    5                         END;

   9104 12 000672   000736 710000 12                 TRA     s:9120

      261     9105    4                      ELSE
      262     9106    5                      DO;

      263     9107    5                         TEMP = ((LIST_IDX+ICB.COLS)/ICB.COLS)*ICB.COLS;

   9107 12 000673   000000 236000 xsym               LDQ     LIST_IDX
        12 000674   000016 036000 xsym               ADLQ    ICB+14
        12 000675   000016 506000 xsym               DIV     ICB+14
        12 000676   000016 402000 xsym               MPY     ICB+14
        12 000677   200067 756100                    STQ     TEMP,,AUTO

      264     9108    5                         IF TEMP+BUF_BLOCK.BUF_1.LEN>USABLE_LEN AND LIST_IDX>0

   9108 12 000700   000000 470400 xsym               LDP0    LIST_BUF$
        12 000701   000001 236100                    LDQ     1,,PR0
        12 000702   000033 772000                    QRL     27
        12 000703   200067 036100                    ADLQ    TEMP,,AUTO
PL6.E3A0      #001=VPH$LIST File=VPH$LISTREV.:E05TSI                             WED 07/30/97 07:39 Page:50
        12 000704   000000 116000 xsym               CMPQ    USABLE_LEN
        12 000705   000716 604400 12                 TMOZ    s:9115
        12 000706   000000 235000 xsym               LDA     LIST_IDX
        12 000707   000716 604400 12                 TMOZ    s:9115

      265     9109    5                          THEN
      266     9110    6                          DO;

      267     9111    6                             CALL VPG$WRITE_OUT(LIST_IDX,0);

   9111 12 000710   000015 630400 13                 EPPR0   13
        12 000711   000020 631400 xsym               EPPR1   B_VECTNIL+16
        12 000712   000000 701000 xent               TSX1    VPG$WRITE_OUT
        12 000713   000000 011000                    NOP     0

      268     9112    6                             LIST_IDX = 0;

   9112 12 000714   000000 450000 xsym               STZ     LIST_IDX

      269     9113    6                             END;

   9113 12 000715   000720 710000 12                 TRA     s:9116

      270     9114    5                          ELSE
      271     9115    5                            LIST_IDX = TEMP;

   9115 12 000716   200067 235100                    LDA     TEMP,,AUTO
        12 000717   000000 755000 xsym               STA     LIST_IDX

      272     9116    5                         PINCRC(IN_BUF_VECTOR.PTR$,LIST_IDX)->CHAR$132 =

   9116 12 000720   000000 470400 xsym               LDP0    LIST_BUF$
        12 000721   000001 236100                    LDQ     1,,PR0
        12 000722   000033 772000                    QRL     27
        12 000723   000000 620006                    EAX0    0,QL
        12 000724   000001 471400 xsym               LDP1    IN_BUF_VECTOR+1
        12 000725   000000 235000 xsym               LDA     LIST_IDX
PL6.E3A0      #001=VPH$LIST File=VPH$LISTREV.:E05TSI                             WED 07/30/97 07:39 Page:51
        12 000726   040105 100540                    MLR     fill='040'O
        12 000727   000001 200010                    ADSC9   1,,PR0                   cn=1,n=*X0
        12 000730   100000 000204                    ADSC9   0,A,PR1                  cn=0,n=132

      273     9117    5                           ADDR(BUF_BLOCK.BUF_1)->TEXT$C.STRING;
      274     9118    5                         LIST_IDX = LIST_IDX+BUF_BLOCK.BUF_1.LEN;

   9118 12 000731   000000 470400 xsym               LDP0    LIST_BUF$
        12 000732   000001 236100                    LDQ     1,,PR0
        12 000733   000033 772000                    QRL     27
        12 000734   000000 036000 xsym               ADLQ    LIST_IDX
        12 000735   000000 756000 xsym               STQ     LIST_IDX

      275     9119    5                         END;

      276     9120    4                     IF (CMD_MASK & '000100002'O)

   9120 12 000736   000044 235000 10                 LDA     DELETED_BUF+7
        12 000737   000000 236003                    LDQ     0,DU
        12 000740   200170 757100                    STAQ    NUMRECS+2,,AUTO
        12 000741   000100 100400                    MLR     fill='000'O
        12 000742   000000 000010 xsym               ADSC9   CMD_MASK                 cn=0,n=8
        12 000743   200172 000010                    ADSC9   NUMRECS+4,,AUTO          cn=0,n=8
        12 000744   200172 237100                    LDAQ    NUMRECS+4,,AUTO
        12 000745   200170 377100                    ANAQ    NUMRECS+2,,AUTO
        12 000746   001014 600000 12                 TZE     NEXT_FILE

      277     9121    5                      THEN DO;             /* A REVIEW type command              */

      278     9122    5                         REMEMBER REV_BRK IN BREAK_LOC; /* Must skip promt fid if */

   9122 12 000747   000776 635000 12                 EAA     REV_BRK
        12 000750   000000 452400 xsym               STP2    BREAK_LOC
        12 000751   000001 755000 xsym               STA     BREAK_LOC+1

      279     9123                                                /* break after fid printed            */
      280     9124    5                         CALL REVIEW_CHK(REV_RET_VAL);
PL6.E3A0      #001=VPH$LIST File=VPH$LISTREV.:E05TSI                             WED 07/30/97 07:39 Page:52

   9124 12 000752   200024 631500                    EPPR1   REV_RET_VAL,,AUTO
        12 000753   200071 451500                    STP1    TEMP+2,,AUTO
        12 000754   001543 701000 12                 TSX1    REVIEW_CHK
        12 000755   000000 011000                    NOP     0

      281     9125    5                         REMEMBER SUMMARY IN BREAK_LOC; /* Just summary if break */

   9125 12 000756   001110 635000 12                 EAA     SUMMARY
        12 000757   000000 452400 xsym               STP2    BREAK_LOC
        12 000760   000001 755000 xsym               STA     BREAK_LOC+1

      282     9126                                                /* occurs elsewhere                   */
      283     9127    6                         DO CASE(REV_RET_VAL);

   9127 12 000761   200024 236100                    LDQ     REV_RET_VAL,,AUTO
        12 000762   000004 116007                    CMPQ    4,DL
        12 000763   000765 602006 12                 TNC     s:9127+4,QL
        12 000764   001014 710000 12                 TRA     NEXT_FILE
        12 000765   001014 710000 12                 TRA     NEXT_FILE
        12 000766   000771 710000 12                 TRA     s:9129
        12 000767   000775 710000 12                 TRA     s:9135
        12 000770   001006 710000 12                 TRA     s:9143

      284     9128    6                          CASE(1);         /* JUMP                               */

      285     9129    6                            IF PCB.OUT$->OUT$BLK.NSUBLKS>0

   9129 12 000771   000003 470400 xsym               LDP0    PCB+3
        12 000772   000001 220100                    LDX0    1,,PR0
        12 000773   001035 601000 12                 TNZ     JUMP2

      286     9130    6                             THEN
      287     9131    6                               GOTO JUMP2;
      288     9132    6                             ELSE
      289     9133    6                               GOTO NEXT_SPEC;

PL6.E3A0      #001=VPH$LIST File=VPH$LISTREV.:E05TSI                             WED 07/30/97 07:39 Page:53
   9133 12 000774   001053 710000 12                 TRA     NEXT_SPEC

      290     9134    6                          CASE(2);         /* END                                */

      291     9135    6                            GOTO SUMMARY;

   9135 12 000775   001110 710000 12                 TRA     SUMMARY

      292     9136    6   REV_BRK:                                /* Skip a line to avoid overprinting  */
      293     9137                                                /* the REV fid we printed             */
      294     9138    6                            FPT_WRITE_ME.BUF_ = VECTOR(CR_LF);

   9138 12 000776   000020 237000 13    REV_BRK      LDAQ    16
        12 000777   000004 757000 xsym               STAQ    FPT_WRITE_ME+4

      295     9139    6                            FPT_WRITE_ME.V.DVBYTE.VFC# = %YES#;

   9139 12 001000   100000 236003                    LDQ     32768,DU
        12 001001   000013 256000 xsym               ORSQ    FPT_WRITE_ME+11

      296     9140    6                            CALL M$WRITE(FPT_WRITE_ME);

   9140 12 001002   000000 630400 xsym               EPPR0   FPT_WRITE_ME
        12 001003   040001 713400                    CLIMB   write
        12 001004   401400 401760                    pmme    nvectors=4

      297     9141    6                            GOTO SUMMARY;

   9141 12 001005   001110 710000 12                 TRA     SUMMARY

      298     9142    6                          CASE(3);         /* RELIST                             */

      299     9143    6                            IF OPEN_NEXT_RET_VAL=%VPOC_NOACCESS#

   9143 12 001006   200007 235100                    LDA     OPEN_NEXT_RET_VAL,,AUTO
        12 001007   000002 115007                    CMPA    2,DL
        12 001010   001013 601000 12                 TNZ     s:9146
PL6.E3A0      #001=VPH$LIST File=VPH$LISTREV.:E05TSI                             WED 07/30/97 07:39 Page:54

      300     9144    6                             THEN          /* Access denied                      */
      301     9145    6                               LIST_CODE = 2;

   9145 12 001011   000002 235007                    LDA     2,DL
        12 001012   200020 755100                    STA     LIST_CODE,,AUTO

      302     9146    6                            GOTO RELIST;

   9146 12 001013   000452 710000 12                 TRA     RELIST

      303     9147    6                          END;             /* END CASE                           */

      304     9148    5                         END;

      305     9149    4   NEXT_FILE:
      306     9150    4                     IF M$EI$->F$DCB.FCD

   9150 12 001014   000000 470400 xsym  NEXT_FILE    LDP0    M$EI$
        12 001015   000031 236100                    LDQ     25,,PR0
        12 001016   020000 316007                    CANQ    8192,DL
        12 001017   001023 600000 12                 TZE     s:9153

      307     9151    4                      THEN
      308     9152    4                        CALL M$CLOSE(FPT_CLOSE_EI);

   9152 12 001020   000000 630400 xsym               EPPR0   FPT_CLOSE_EI
        12 001021   050001 713400                    CLIMB   close
        12 001022   406000 401760                    pmme    nvectors=13

      309     9153    4                     THIS_STD_FILE = '0'B;

   9153 12 001023   000000 450000 xsym               STZ     THIS_STD_FILE

      310     9154    4                     CALL VPF$OPEN_NEXT(OPEN_NEXT_RET_VAL,1);

   9154 12 001024   000022 236000 13                 LDQ     18
PL6.E3A0      #001=VPH$LIST File=VPH$LISTREV.:E05TSI                             WED 07/30/97 07:39 Page:55
        12 001025   200171 756100                    STQ     NUMRECS+3,,AUTO
        12 001026   200007 630500                    EPPR0   OPEN_NEXT_RET_VAL,,AUTO
        12 001027   200170 450500                    STP0    NUMRECS+2,,AUTO
        12 001030   200170 630500                    EPPR0   NUMRECS+2,,AUTO
        12 001031   000020 631400 xsym               EPPR1   B_VECTNIL+16
        12 001032   000000 701000 xent               TSX1    VPF$OPEN_NEXT
        12 001033   000000 011000                    NOP     0

      311     9155    4                     GOTO AROUND_1;

   9155 12 001034   001050 710000 12                 TRA     AROUND_1

      312     9156    4   JUMP2:            CALL VPF$OPEN_NEXT(OPEN_NEXT_RET_VAL,3,

   9156 12 001035   000003 471500       JUMP2        LDP1    3,,PR0
        12 001036   100003 473500                    LDP3    3,,PR1
        12 001037   200172 453500                    STP3    NUMRECS+4,,AUTO
        12 001040   000006 236000 13                 LDQ     6
        12 001041   200171 756100                    STQ     NUMRECS+3,,AUTO
        12 001042   200007 631500                    EPPR1   OPEN_NEXT_RET_VAL,,AUTO
        12 001043   200170 451500                    STP1    NUMRECS+2,,AUTO
        12 001044   200170 630500                    EPPR0   NUMRECS+2,,AUTO
        12 001045   000021 631400 xsym               EPPR1   B_VECTNIL+17
        12 001046   000000 701000 xent               TSX1    VPF$OPEN_NEXT
        12 001047   000000 011000                    NOP     0

      313     9157    4                       PCB.OUT$->OUT$BLK.SUBLK$(0)->
      314     9158    4                       OUT$SYM.TEXTC$->TEXT$C);
      315     9159    4   AROUND_1:         END;                  /* END WHILE                          */

   9159 12 001050   200007 235100       AROUND_1     LDA     OPEN_NEXT_RET_VAL,,AUTO
        12 001051   000001 115007                    CMPA    1,DL
        12 001052   000400 601000 12                 TNZ     s:9036

      316     9160    3                  END;

      317     9161    2   NEXT_SPEC:
PL6.E3A0      #001=VPH$LIST File=VPH$LISTREV.:E05TSI                             WED 07/30/97 07:39 Page:56
      318     9162    2              CALL VPF$GET_NEXT_SPEC(NEXT_SPEC_RET_VAL);

   9162 12 001053   200006 630500       NEXT_SPEC    EPPR0   NEXT_SPEC_RET_VAL,,AUTO
        12 001054   200170 450500                    STP0    NUMRECS+2,,AUTO
        12 001055   200170 630500                    EPPR0   NUMRECS+2,,AUTO
        12 001056   000017 631400 xsym               EPPR1   B_VECTNIL+15
        12 001057   000000 701000 xent               TSX1    VPF$GET_NEXT_SPEC
        12 001060   000000 011000                    NOP     0

      319     9163    2              END;                         /* END WHILE                          */

   9163 12 001061   200006 235100                    LDA     NEXT_SPEC_RET_VAL,,AUTO
        12 001062   000001 115007                    CMPA    1,DL
        12 001063   000333 601000 12                 TNZ     s:9023

      320     9164    1           IF (CMD_MASK & '000200002'O/* LISTSTD or REVIEWSTD*/)~='0'B

   9164 12 001064   000043 236000 10                 LDQ     DELETED_BUF+6
        12 001065   000044 737000                    LLS     36
        12 001066   000000 236003                    LDQ     0,DU
        12 001067   200170 757100                    STAQ    NUMRECS+2,,AUTO
        12 001070   000100 100400                    MLR     fill='000'O
        12 001071   000000 000010 xsym               ADSC9   CMD_MASK                 cn=0,n=8
        12 001072   200172 000010                    ADSC9   NUMRECS+4,,AUTO          cn=0,n=8
        12 001073   200172 237100                    LDAQ    NUMRECS+4,,AUTO
        12 001074   200170 377100                    ANAQ    NUMRECS+2,,AUTO
        12 001075   000244 601000 12                 TNZ     LISTSTD_L

      321     9165    1            THEN
      322     9166    1              GOTO LISTSTD_L;
      323     9167        %EJECT;
PL6.E3A0      #001=VPH$LIST File=VPH$LISTREV.:E05TSI                             WED 07/30/97 07:39 Page:57
      324     9168    1   FIN_LIST:
      325     9169    1           IF M$EI$ -> F$DCB.FCD           /* still open 'cause break was hit    */

   9169 12 001076   000000 470400 xsym  FIN_LIST     LDP0    M$EI$
        12 001077   000031 236100                    LDQ     25,,PR0
        12 001100   020000 316007                    CANQ    8192,DL
        12 001101   001105 600000 12                 TZE     s:9172

      326     9170    1            THEN
      327     9171    1              CALL M$CLOSE (FPT_CLOSE_EI);

   9171 12 001102   000000 630400 xsym               EPPR0   FPT_CLOSE_EI
        12 001103   050001 713400                    CLIMB   close
        12 001104   406000 401760                    pmme    nvectors=13

      328     9172    1           CALL VPD$FINISH_NLIST;          /* Finish any partial LIST line       */

   9172 12 001105   000002 631400 xsym               EPPR1   B_VECTNIL+2
        12 001106   000000 701000 xent               TSX1    VPD$FINISH_NLIST
        12 001107   000000 011000                    NOP     0

      329     9173    1   SUMMARY:
      330     9174    1           REMEMBER LIST_ABORT IN ABORT_STEP;

   9174 12 001110   001324 635000 12    SUMMARY      EAA     LIST_ABORT
        12 001111   000000 452400 xsym               STP2    ABORT_STEP
        12 001112   000001 755000 xsym               STA     ABORT_STEP+1

      331     9175    1           REMEMBER LIST_ABORT IN BREAK_LOC;

   9175 12 001113   001324 635000 12                 EAA     LIST_ABORT
        12 001114   000000 452400 xsym               STP2    BREAK_LOC
        12 001115   000001 755000 xsym               STA     BREAK_LOC+1

      332     9176    1           IF ((TOT_FILES(2) > 1           /* IF more than one file was listed   */

   9176 12 001116   000002 236000 xsym               LDQ     TOT_FILES+2
PL6.E3A0      #001=VPH$LIST File=VPH$LISTREV.:E05TSI                             WED 07/30/97 07:39 Page:58
        12 001117   000001 116007                    CMPQ    1,DL
        12 001120   001123 605400 12                 TPNZ    s:9176+5
        12 001121   000001 235000 xsym               LDA     TOT_FILES+1
        12 001122   001125 604400 12                 TMOZ    s:9176+7
        12 001123   000271 235000 xsym               LDA     OCB+185
        12 001124   001132 600000 12                 TZE     s:9183
        12 001125   000271 235000 xsym               LDA     OCB+185
        12 001126   000001 115007                    CMPA    1,DL
        12 001127   001312 601000 12                 TNZ     s:9213
        12 001130   000002 115007                    CMPA    2,DL
        12 001131   001312 600000 12                 TZE     s:9213

      333     9177    1             OR TOT_FILES(1) > 0)          /* OR anything was deleted            */
      334     9178    1             AND OCB.SUMMARY = 0)          /* And user didnt say anything        */
      335     9179    1             OR OCB.SUMMARY = 1            /* or SUMMARY specified               */
      336     9180    1             AND OCB.SUMMARY ~= 2          /* unless NSUMMARY specified          */
      337     9181    1            THEN                           /* A summary is in order              */
      338     9182    2            DO;

      339     9183    2               SUM_LINE_TEXT = '..';

   9183 12 001132   040100 100400                    MLR     fill='040'O
        12 001133   000045 000002 10                 ADSC9   DELETED_BUF+8            cn=0,n=2
        12 001134   200026 000204                    ADSC9   SUM_LINE_TEXT,,AUTO      cn=0,n=132

      340     9184    2               CALL BINCHAR(SUM_LINE.FILES,TOT_FILES(2));

   9184 12 001135   000100 301400                    BTD
        12 001136   000002 000004 xsym               NDSC9   TOT_FILES+2              cn=0,s=lsgnf,sf=0,n=4
        12 001137   200026 430005                    NDSC9   SUM_LINE_TEXT,,AUTO      cn=2,s=nosgn,sf=0,n=5

      341     9185    2               CALL VPD$CLOBBERLZ(VECTOR(SUM_LINE.FILES));

   9185 12 001140   000023 235000 13                 LDA     19
        12 001141   200170 452500                    STP2    NUMRECS+2,,AUTO
        12 001142   200170 236100                    LDQ     NUMRECS+2,,AUTO
        12 001143   000024 036000 13                 ADLQ    20
PL6.E3A0      #001=VPH$LIST File=VPH$LISTREV.:E05TSI                             WED 07/30/97 07:39 Page:59
        12 001144   200172 757100                    STAQ    NUMRECS+4,,AUTO
        12 001145   200172 630500                    EPPR0   NUMRECS+4,,AUTO
        12 001146   200174 450500                    STP0    NUMRECS+6,,AUTO
        12 001147   200174 630500                    EPPR0   NUMRECS+6,,AUTO
        12 001150   000017 631400 xsym               EPPR1   B_VECTNIL+15
        12 001151   000000 701000 xent               TSX1    VPD$CLOBBERLZ
        12 001152   000000 011000                    NOP     0

      342     9186    2               IF TOT_GRANS(2)>0

   9186 12 001153   000002 235000 xsym               LDA     TOT_GRANS+2
        12 001154   001217 604400 12                 TMOZ    s:9196

      343     9187    3                THEN DO;

      344     9188    3                   SUM_IDX = 53;

   9188 12 001155   000065 236007                    LDQ     53,DL
        12 001156   200025 756100                    STQ     SUM_IDX,,AUTO

      345     9189    3                   SUM_LINE.REST = ' files,       granules,         records listed';

   9189 12 001157   040100 100400                    MLR     fill='040'O
        12 001160   000046 000056 10                 ADSC9   DELETED_BUF+9            cn=0,n=46
        12 001161   200027 600175                    ADSC9   SUM_LINE_TEXT+1,,AUTO    cn=3,n=125

      346     9190    3                   CALL BINCHAR(SUM_LINE.GRANS.GRANS,TOT_GRANS(2));

   9190 12 001162   000100 301400                    BTD
        12 001163   000002 000004 xsym               NDSC9   TOT_GRANS+2              cn=0,s=lsgnf,sf=0,n=4
        12 001164   200031 430006                    NDSC9   SUM_LINE_TEXT+3,,AUTO    cn=2,s=nosgn,sf=0,n=6

      347     9191    3                   CALL VPD$CLOBBERLZ(VECTOR(SUM_LINE.GRANS.GRANS));

   9191 12 001165   000025 235000 13                 LDA     21
        12 001166   200170 452500                    STP2    NUMRECS+2,,AUTO
        12 001167   200170 236100                    LDQ     NUMRECS+2,,AUTO
PL6.E3A0      #001=VPH$LIST File=VPH$LISTREV.:E05TSI                             WED 07/30/97 07:39 Page:60
        12 001170   000026 036000 13                 ADLQ    22
        12 001171   200172 757100                    STAQ    NUMRECS+4,,AUTO
        12 001172   200172 630500                    EPPR0   NUMRECS+4,,AUTO
        12 001173   200174 450500                    STP0    NUMRECS+6,,AUTO
        12 001174   200174 630500                    EPPR0   NUMRECS+6,,AUTO
        12 001175   000017 631400 xsym               EPPR1   B_VECTNIL+15
        12 001176   000000 701000 xent               TSX1    VPD$CLOBBERLZ
        12 001177   000000 011000                    NOP     0

      348     9192    3                   CALL BINCHAR(SUM_LINE.GRANS.RECS,TOT_RECS);

   9192 12 001200   000100 301400                    BTD
        12 001201   000000 000004 xsym               NDSC9   TOT_RECS                 cn=0,s=lsgnf,sf=0,n=4
        12 001202   200035 430010                    NDSC9   SUM_LINE_TEXT+7,,AUTO    cn=2,s=nosgn,sf=0,n=8

      349     9193    3                   CALL VPD$CLOBBERLZ(VECTOR(SUM_LINE.GRANS.RECS));

   9193 12 001203   000027 235000 13                 LDA     23
        12 001204   200170 452500                    STP2    NUMRECS+2,,AUTO
        12 001205   200170 236100                    LDQ     NUMRECS+2,,AUTO
        12 001206   000030 036000 13                 ADLQ    24
        12 001207   200172 757100                    STAQ    NUMRECS+4,,AUTO
        12 001210   200172 630500                    EPPR0   NUMRECS+4,,AUTO
        12 001211   200174 450500                    STP0    NUMRECS+6,,AUTO
        12 001212   200174 630500                    EPPR0   NUMRECS+6,,AUTO
        12 001213   000017 631400 xsym               EPPR1   B_VECTNIL+15
        12 001214   000000 701000 xent               TSX1    VPD$CLOBBERLZ
        12 001215   000000 011000                    NOP     0

      350     9194    3                   END;

   9194 12 001216   001224 710000 12                 TRA     s:9199

      351     9195    3                ELSE DO;

      352     9196    3                   SUM_IDX = 20;

PL6.E3A0      #001=VPH$LIST File=VPH$LISTREV.:E05TSI                             WED 07/30/97 07:39 Page:61
   9196 12 001217   000024 236007                    LDQ     20,DL
        12 001220   200025 756100                    STQ     SUM_IDX,,AUTO

      353     9197    3                   SUM_LINE.REST = ' files listed';

   9197 12 001221   040100 100400                    MLR     fill='040'O
        12 001222   000062 000015 10                 ADSC9   DELETED_BUF+21           cn=0,n=13
        12 001223   200027 600175                    ADSC9   SUM_LINE_TEXT+1,,AUTO    cn=3,n=125

      354     9198    3                   END;

      355     9199    2               IF TOT_FILES(1)>0           /* IF anything deleted                */

   9199 12 001224   000001 235000 xsym               LDA     TOT_FILES+1
        12 001225   001276 604400 12                 TMOZ    s:9210

      356     9200    2                THEN
      357     9201    3                DO;

      358     9202    3                   PTR$ = PINCRC(ADDR(SUM_LINE_TEXT),SUM_IDX);

   9202 12 001226   200170 452500                    STP2    NUMRECS+2,,AUTO
        12 001227   200025 236100                    LDQ     SUM_IDX,,AUTO
        12 001230   000020 736000                    QLS     16
        12 001231   000026 036003                    ADLQ    22,DU
        12 001232   200170 036100                    ADLQ    NUMRECS+2,,AUTO
        12 001233   200013 756100                    STQ     PTR$,,AUTO

      359     9203    3                   PTR$->DEL_TEXT = ';      files,       granules deleted';

   9203 12 001234   200013 470500                    LDP0    PTR$,,AUTO
        12 001235   040100 100400                    MLR     fill='040'O
        12 001236   000066 000044 10                 ADSC9   DELETED_BUF+25           cn=0,n=36
        12 001237   000000 000044                    ADSC9   0,,PR0                   cn=0,n=36

      360     9204    3                   CALL BINCHAR(PTR$->DEL.FILES,TOT_FILES(1));

PL6.E3A0      #001=VPH$LIST File=VPH$LISTREV.:E05TSI                             WED 07/30/97 07:39 Page:62
   9204 12 001240   200013 470500                    LDP0    PTR$,,AUTO
        12 001241   000100 301400                    BTD
        12 001242   000001 000004 xsym               NDSC9   TOT_FILES+1              cn=0,s=lsgnf,sf=0,n=4
        12 001243   000000 230005                    NDSC9   0,,PR0                   cn=1,s=nosgn,sf=0,n=5

      361     9205    3                   CALL VPD$CLOBBERLZ(VECTOR(PTR$->DEL.FILES));

   9205 12 001244   000023 235000 13                 LDA     19
        12 001245   200013 236100                    LDQ     PTR$,,AUTO
        12 001246   200000 036007                    ADLQ    65536,DL
        12 001247   200170 757100                    STAQ    NUMRECS+2,,AUTO
        12 001250   200170 630500                    EPPR0   NUMRECS+2,,AUTO
        12 001251   200172 450500                    STP0    NUMRECS+4,,AUTO
        12 001252   200172 630500                    EPPR0   NUMRECS+4,,AUTO
        12 001253   000017 631400 xsym               EPPR1   B_VECTNIL+15
        12 001254   000000 701000 xent               TSX1    VPD$CLOBBERLZ
        12 001255   000000 011000                    NOP     0

      362     9206    3                   CALL BINCHAR(PTR$->DEL.GRANS,TOT_GRANS(1));

   9206 12 001256   200013 470500                    LDP0    PTR$,,AUTO
        12 001257   000100 301400                    BTD
        12 001260   000001 000004 xsym               NDSC9   TOT_GRANS+1              cn=0,s=lsgnf,sf=0,n=4
        12 001261   000003 230006                    NDSC9   3,,PR0                   cn=1,s=nosgn,sf=0,n=6

      363     9207    3                   CALL VPD$CLOBBERLZ(VECTOR(PTR$->DEL.GRANS));

   9207 12 001262   000025 235000 13                 LDA     21
        12 001263   200013 236100                    LDQ     PTR$,,AUTO
        12 001264   000031 036000 13                 ADLQ    25
        12 001265   200170 757100                    STAQ    NUMRECS+2,,AUTO
        12 001266   200170 630500                    EPPR0   NUMRECS+2,,AUTO
        12 001267   200172 450500                    STP0    NUMRECS+4,,AUTO
        12 001270   200172 630500                    EPPR0   NUMRECS+4,,AUTO
        12 001271   000017 631400 xsym               EPPR1   B_VECTNIL+15
        12 001272   000000 701000 xent               TSX1    VPD$CLOBBERLZ
        12 001273   000000 011000                    NOP     0
PL6.E3A0      #001=VPH$LIST File=VPH$LISTREV.:E05TSI                             WED 07/30/97 07:39 Page:63

      364     9208    3                   SUM_IDX = SUM_IDX+36;

   9208 12 001274   000044 236007                    LDQ     36,DL
        12 001275   200025 056100                    ASQ     SUM_IDX,,AUTO

      365     9209    3                   END;

      366     9210    2               IN_BUF_VECTOR.PTR$->CHAR$132 = SUM_LINE_TEXT;

   9210 12 001276   000001 470400 xsym               LDP0    IN_BUF_VECTOR+1
        12 001277   040100 100500                    MLR     fill='040'O
        12 001300   200026 000204                    ADSC9   SUM_LINE_TEXT,,AUTO      cn=0,n=132
        12 001301   000000 000204                    ADSC9   0,,PR0                   cn=0,n=132

      367     9211    2               CALL VPG$WRITE_OUT(SUM_IDX,0);

   9211 12 001302   000014 236000 13                 LDQ     12
        12 001303   200171 756100                    STQ     NUMRECS+3,,AUTO
        12 001304   200025 630500                    EPPR0   SUM_IDX,,AUTO
        12 001305   200170 450500                    STP0    NUMRECS+2,,AUTO
        12 001306   200170 630500                    EPPR0   NUMRECS+2,,AUTO
        12 001307   000020 631400 xsym               EPPR1   B_VECTNIL+16
        12 001310   000000 701000 xent               TSX1    VPG$WRITE_OUT
        12 001311   000000 011000                    NOP     0

      368     9212    2               END;

      369     9213    1           IF TOT_FILES(2) = 0             /* IF no files listed                 */

   9213 12 001312   000002 235000 xsym               LDA     TOT_FILES+2
        12 001313   001324 601000 12                 TNZ     LIST_ABORT
        12 001314   000000 236000 xsym               LDQ     ERR_FLG
        12 001315   400000 376003                    ANQ     -131072,DU
        12 001316   400000 676003                    ERQ     -131072,DU
        12 001317   001324 600000 12                 TZE     LIST_ABORT

PL6.E3A0      #001=VPH$LIST File=VPH$LISTREV.:E05TSI                             WED 07/30/97 07:39 Page:64
      370     9214    1             AND ~ERR_FLG                  /* AND no errors occured              */
      371     9215    1            THEN                           /* Tell him that no files were LISTed */
      372     9216    1              CALL VPL$ERR_PROC(1,1,'10'O);

   9216 12 001320   000033 630400 13                 EPPR0   27
        12 001321   000021 631400 xsym               EPPR1   B_VECTNIL+17
        12 001322   000000 701000 xent               TSX1    VPL$ERR_PROC
        12 001323   000000 011000                    NOP     0

      373     9217        /*E* ERROR:   VPH-00001
      374     9218             MESSAGE: Nothing to list
      375     9219            MESSAGE1: No files were acceptable to LIST in that input spec
      376     9220        */
      377     9221    1   LIST_ABORT: IF M$EO1$->F$DCB.FCD

   9221 12 001324   000000 470400 xsym  LIST_ABORT   LDP0    M$EO1$
        12 001325   000031 236100                    LDQ     25,,PR0
        12 001326   020000 316007                    CANQ    8192,DL
        12 001327   001341 600000 12                 TZE     s:9224

      378     9222    1            THEN
      379     9223    1              CALL VPD$CLOSE_OUT(BITBIN(ERR_FLG)); /* CLOSE with save if no errs */

   9223 12 001330   000000 236000 xsym               LDQ     ERR_FLG
        12 001331   000043 772000                    QRL     35
        12 001332   200170 756100                    STQ     NUMRECS+2,,AUTO
        12 001333   200170 631500                    EPPR1   NUMRECS+2,,AUTO
        12 001334   200171 451500                    STP1    NUMRECS+3,,AUTO
        12 001335   200171 630500                    EPPR0   NUMRECS+3,,AUTO
        12 001336   000017 631400 xsym               EPPR1   B_VECTNIL+15
        12 001337   000000 701000 xent               TSX1    VPD$CLOSE_OUT
        12 001340   000000 011000                    NOP     0

      380     9224    1           IF M$STD1$->F$DCB.FCD

   9224 12 001341   000000 470400 xsym               LDP0    M$STD1$
        12 001342   000031 236100                    LDQ     25,,PR0
PL6.E3A0      #001=VPH$LIST File=VPH$LISTREV.:E05TSI                             WED 07/30/97 07:39 Page:65
        12 001343   020000 316007                    CANQ    8192,DL
        12 001344   001351 600000 12                 TZE     SKIPIT_1

      381     9225    1            THEN
      382     9226    1              CALL M$CLOSE(FPT_CLOSE_STD) ALTRET(SKIPIT_1);

   9226 12 001345   000000 630400 xsym               EPPR0   FPT_CLOSE_STD
        12 001346   450001 713400                    CLIMB   alt,close
        12 001347   406000 401760                    pmme    nvectors=13
        12 001350   001351 702000 12                 TSX2    SKIPIT_1

   9224 12 001351                       SKIPIT_1     null
      383     9227    1   SKIPIT_1: ;
      384     9228    1           IF M$EI$->F$DCB.FCD

   9228 12 001351   000000 470400 xsym               LDP0    M$EI$
        12 001352   000031 236100                    LDQ     25,,PR0
        12 001353   020000 316007                    CANQ    8192,DL
        12 001354   001361 600000 12                 TZE     SKIPIT_2

      385     9229    1            THEN
      386     9230    1              CALL M$CLOSE(FPT_CLOSE_EI) ALTRET(SKIPIT_2);

   9230 12 001355   000000 630400 xsym               EPPR0   FPT_CLOSE_EI
        12 001356   450001 713400                    CLIMB   alt,close
        12 001357   406000 401760                    pmme    nvectors=13
        12 001360   001361 702000 12                 TSX2    SKIPIT_2

   9228 12 001361                       SKIPIT_2     null
      387     9231    1   SKIPIT_2: ;
      388     9232    1           CALL VPD$MINIMIZE_BUF;

   9232 12 001361   000002 631400 xsym               EPPR1   B_VECTNIL+2
        12 001362   000000 701000 xent               TSX1    VPD$MINIMIZE_BUF
        12 001363   000000 011000                    NOP     0

      389     9233    1           RETURN;
PL6.E3A0      #001=VPH$LIST File=VPH$LISTREV.:E05TSI                             WED 07/30/97 07:39 Page:66

   9233 12 001364   000000 702200 xent               TSX2  ! X66_ARET

      390     9234    1   STD_READ_ALT:
      391     9235    1           IF B$TCB$->B$TCB.ALT$->B$ALT.ERR.CODE=%E$EOF

   9235 12 001365   000000 470400 xsym  STD_READ_ALT LDP0    B$TCB$
        12 001366   000000 471500                    LDP1    0,,PR0
        12 001367   100102 236100                    LDQ     66,,PR1
        12 001370   377770 376007                    ANQ     131064,DL
        12 001371   000060 116007                    CMPQ    48,DL
        12 001372   001076 600000 12                 TZE     FIN_LIST

      392     9236    1            THEN
      393     9237    1              GOTO FIN_LIST;
      394     9238    1            ELSE
      395     9239    1              CALL VPL$ERR_PROC(3,0);

   9239 12 001373   000006 630400 13                 EPPR0   6
        12 001374   000020 631400 xsym               EPPR1   B_VECTNIL+16
        12 001375   000000 701000 xent               TSX1    VPL$ERR_PROC
        12 001376   000000 011000                    NOP     0

      396     9240    1   STD_PARSE_ALT:
      397     9241    1           CALL VPL$ERR_PROC(0,0,,PCB.ERROR);

   9241 12 001377   000036 236000 13    STD_PARSE_A* LDQ     30
        12 001400   000001 235000 xsym               LDA     B_VECTNIL+1
        12 001401   200172 757100                    STAQ    NUMRECS+4,,AUTO
        12 001402   000016 237000 13                 LDAQ    14
        12 001403   200170 757100                    STAQ    NUMRECS+2,,AUTO
        12 001404   200170 630500                    EPPR0   NUMRECS+2,,AUTO
        12 001405   000022 631400 xsym               EPPR1   B_VECTNIL+18
        12 001406   000000 701000 xent               TSX1    VPL$ERR_PROC
        12 001407   000000 011000                    NOP     0

      398     9242    1           CALL VPL$ERR_PROC(3,3,'10'O);
PL6.E3A0      #001=VPH$LIST File=VPH$LISTREV.:E05TSI                             WED 07/30/97 07:39 Page:67

   9242 12 001410   000037 630400 13                 EPPR0   31
        12 001411   000021 631400 xsym               EPPR1   B_VECTNIL+17
        12 001412   000000 701000 xent               TSX1    VPL$ERR_PROC
        12 001413   000000 011000                    NOP     0
        12 001414   002140 710000 12                 TRA     s:9617

      399     9243        /*E*   ERROR: VPH-00003
      400     9244             MESSAGE: in STD file.  Command aborts.
      401     9245            MESSAGE1: A record in the STD file has a bad source or option.
      402     9246        */
      403     9247        %EJECT;
PL6.E3A0      #001=VPH$LIST File=VPH$LISTREV.:E05TSI                             WED 07/30/97 07:39 Page:68
      404     9248    1   GET_CLIST_CODE_AND_COLS: PROC;

   9248 12 001415   200070 741300       GET_CLIST_C* STX1  ! TEMP+1,,AUTO

      405     9249        /*I* NAME: GET_CLIST_CODE_AND_COLS
      406     9250             PURPOSE: To obtain CLIST_CODE and to set ICB.COLS to a reasonable value.
      407     9251             CALL: CALL GET_CLIST_CODE_AND_COLS;
      408     9252             DESCRIPTION: This procedure sets CLIST_CODE to the correct value as below:
      409     9253                            VALUE              MEANING
      410     9254                            -----              -------
      411     9255                              1                name only list
      412     9256                              2                access denied list
      413     9257                              3                list with attributes
      414     9258                              4                list with extended attributes
      415     9259                              5                list with full attributes
      416     9260                          It also sets ICB.COLS to the default if it is not specified.
      417     9261        */
      418     9262    2           IF ICB.A_EA_C~=0

   9262 12 001416   000014 235000 xsym               LDA     ICB+12
        12 001417   001422 600000 12                 TZE     s:9266

      419     9263    2            THEN                           /* Explicit LIST options, use 'em     */
      420     9264    2              CLIST_CODE = ICB.A_EA_C;

   9264 12 001420   200017 755100                    STA     CLIST_CODE,,AUTO
        12 001421   001440 710000 12                 TRA     s:9276

      421     9265    2            ELSE                           /* No explicit options, try default   */
      422     9266    2              IF DEFAULT_LIST_CODE~=0

   9266 12 001422   200011 236100                    LDQ     DEFAULT_LIST_CODE,,AUTO
        12 001423   001426 600000 12                 TZE     s:9271

      423     9267    2               THEN
      424     9268    2                 CLIST_CODE = DEFAULT_LIST_CODE;

PL6.E3A0      #001=VPH$LIST File=VPH$LISTREV.:E05TSI                             WED 07/30/97 07:39 Page:69
   9268 12 001424   200017 756100                    STQ     CLIST_CODE,,AUTO
        12 001425   001440 710000 12                 TRA     s:9276

      425     9269    2               ELSE                        /* No defaults, either.  Depend on    */
      426     9270                                                /* type of source specification       */
      427     9271    2                 IF ICB.SPEC_TYPE=1 OR ICB.SPEC_TYPE=7

   9271 12 001426   000017 235000 xsym               LDA     ICB+15
        12 001427   000001 115007                    CMPA    1,DL
        12 001430   001433 600000 12                 TZE     s:9273
        12 001431   000007 115007                    CMPA    7,DL
        12 001432   001436 601000 12                 TNZ     s:9275

      428     9272    2                  THEN                     /* (A) OPTION FOR SINGLE FILE LISTS   */
      429     9273    2                    CLIST_CODE = 3;

   9273 12 001433   000003 235007                    LDA     3,DL
        12 001434   200017 755100                    STA     CLIST_CODE,,AUTO
        12 001435   001440 710000 12                 TRA     s:9276

      430     9274    2                  ELSE
      431     9275    2                    CLIST_CODE = 1;

   9275 12 001436   000001 235007                    LDA     1,DL
        12 001437   200017 755100                    STA     CLIST_CODE,,AUTO

      432     9276    2           IF ICB.COLS=0

   9276 12 001440   000016 235000 xsym               LDA     ICB+14
        12 001441   001444 601000 12                 TNZ     s:9279

      433     9277    2            THEN
      434     9278    2              ICB.COLS = DEFAULT_LIST_COLS;

   9278 12 001442   200012 236100                    LDQ     DEFAULT_LIST_COLS,,AUTO
        12 001443   000016 756000 xsym               STQ     ICB+14

PL6.E3A0      #001=VPH$LIST File=VPH$LISTREV.:E05TSI                             WED 07/30/97 07:39 Page:70
      435     9279    2           RETURN;

   9279 12 001444   000001 702211                    TSX2  ! 1,X1

      436     9280    2   END GET_CLIST_CODE_AND_COLS;
      437     9281        %EJECT;
PL6.E3A0      #001=VPH$LIST File=VPH$LISTREV.:E05TSI                             WED 07/30/97 07:39 Page:71
      438     9282    1   GET_USABLE_LEN: PROC;

   9282 12 001445   200070 741300       GET_USABLE_* STX1  ! TEMP+1,,AUTO

      439     9283        /*I* NAME: GET_USABLE_LEN
      440     9284             PURPOSE: To determine the usable length for a list record.
      441     9285             CALL: CALL GET_USABLE_LEN;
      442     9286             DESCRIPTION: USABLE_LEN is determined from a combination of the options
      443     9287                          KEYS and CS and OUTPUT_PWIDTH from VPG$SET_UP_WRITE. It
      444     9288                          represents the size available for writing the list record.
      445     9289        */
      446     9290    2           IF OCB.CS.SPEC~=0

   9290 12 001446   000007 235000 xsym               LDA     OCB+7
        12 001447   001453 600000 12                 TZE     s:9295

      447     9291    2            THEN
      448     9292    2              USABLE_LEN = 72;

   9292 12 001450   000110 236007                    LDQ     72,DL
        12 001451   000000 756000 xsym               STQ     USABLE_LEN
        12 001452   001461 710000 12                 TRA     s:9300

      449     9293    2            ELSE
      450     9294    3            DO;

      451     9295    3               USABLE_LEN = OUTPUT_PWIDTH;

   9295 12 001453   000000 236000 xsym               LDQ     OUTPUT_PWIDTH
        12 001454   000000 756000 xsym               STQ     USABLE_LEN

      452     9296    3               IF OCB.KEYS~=0

   9296 12 001455   000026 235000 xsym               LDA     OCB+22
        12 001456   001461 600000 12                 TZE     s:9300

      453     9297    3                THEN
PL6.E3A0      #001=VPH$LIST File=VPH$LISTREV.:E05TSI                             WED 07/30/97 07:39 Page:72
      454     9298    3                  USABLE_LEN = USABLE_LEN-9;

   9298 12 001457   000011 336007                    LCQ     9,DL
        12 001460   000000 056000 xsym               ASQ     USABLE_LEN

      455     9299    3               END;

      456     9300    2           RETURN;

   9300 12 001461   000001 702211                    TSX2  ! 1,X1

      457     9301    2   END GET_USABLE_LEN;
      458     9302        %EJECT;
PL6.E3A0      #001=VPH$LIST File=VPH$LISTREV.:E05TSI                             WED 07/30/97 07:39 Page:73
      459     9303    1   OUT_LIST_HDR: PROC;

   9303 12 001462   200070 741300       OUT_LIST_HDR STX1  ! TEMP+1,,AUTO

      460     9304        /*I* NAME: OUT_LIST_HDR
      461     9305             PURPOSE: To put out a header for a list with attributes or eattributes.
      462     9306             CALL: CALL OUT_LIST_HDR;
      463     9307             DESCRIPTION: This procedure puts out a header line containing
      464     9308                          current time and date and files-to-be-listed description
      465     9309                          if a single specification only was entered. In any case,
      466     9310                          it then puts out a header for a list with attributes or
      467     9311                          better.
      468     9312        */
      469     9313    2   DCL CHAR$140 CHAR(140) BASED;
      470     9314    2   DCL CHAR$49 CHAR(49) BASED;
      471     9315    2   DCL DISK_HDR CHAR(49) CONSTANT INIT
      472     9316    2               ('Org TY  Gran  NGAV     Rec   Last modified   Name');
      473     9317    2   DCL TAPE_HDR CHAR(49) CONSTANT INIT
      474     9318    2               ('Org TY  Blkl  Recl     Rec Vol           FSN Name');
      475     9319    2   DCL TEMP SBIN WORD;
      476     9320        /**/
      477     9321    2           IF SINGLE_INSPEC=1 AND CMD_MASK(9)

   9321 12 001463   000000 235000 xsym               LDA     SINGLE_INSPEC
        12 001464   000001 115007                    CMPA    1,DL
        12 001465   001521 601000 12                 TNZ     s:9330
        12 001466   000000 236000 xsym               LDQ     CMD_MASK
        12 001467   000400 316003                    CANQ    256,DU
        12 001470   001521 600000 12                 TZE     s:9330
        12 001471   000017 235000 xsym               LDA     ICB+15
        12 001472   000001 115007                    CMPA    1,DL
        12 001473   001521 600000 12                 TZE     s:9330
        12 001474   000007 115007                    CMPA    7,DL
        12 001475   001521 600000 12                 TZE     s:9330

      478     9322    2             AND NOT(ICB.SPEC_TYPE=1 OR ICB.SPEC_TYPE=7)
      479     9323    2            THEN
PL6.E3A0      #001=VPH$LIST File=VPH$LISTREV.:E05TSI                             WED 07/30/97 07:39 Page:74
      480     9324    3            DO;                            /* PUT OUT EXTENDED HEADER            */

      481     9325    3               CALL VPD$GET_SPEC_BUF(0,1);

   9325 12 001476   000042 630400 13                 EPPR0   34
        12 001477   000020 631400 xsym               EPPR1   B_VECTNIL+16
        12 001500   000000 701000 xent               TSX1    VPD$GET_SPEC_BUF
        12 001501   000000 011000                    NOP     0

      482     9326    3               IN_BUF_VECTOR.PTR$->CHAR$140 = SPEC_BUF.STRING;

   9326 12 001502   000001 470400 xsym               LDP0    IN_BUF_VECTOR+1
        12 001503   040100 100400                    MLR     fill='040'O
        12 001504   000000 200213 xsym               ADSC9   SPEC_BUF                 cn=1,n=139
        12 001505   000000 000214                    ADSC9   0,,PR0                   cn=0,n=140

      483     9327    3               TEMP = SPEC_BUF.LEN;

   9327 12 001506   000000 236000 xsym               LDQ     SPEC_BUF
        12 001507   000033 772000                    QRL     27
        12 001510   200071 756100                    STQ     TEMP,,AUTO

      484     9328    3               CALL VPG$WRITE_OUT(TEMP,0);

   9328 12 001511   000007 236000 13                 LDQ     7
        12 001512   200171 756100                    STQ     NUMRECS+3,,AUTO
        12 001513   200071 630500                    EPPR0   TEMP,,AUTO
        12 001514   200170 450500                    STP0    NUMRECS+2,,AUTO
        12 001515   200170 630500                    EPPR0   NUMRECS+2,,AUTO
        12 001516   000020 631400 xsym               EPPR1   B_VECTNIL+16
        12 001517   000000 701000 xent               TSX1    VPG$WRITE_OUT
        12 001520   000000 011000                    NOP     0

      485     9329    3               END;

      486     9330    2           IF ICB.DEV_MASK.MAN_TAPE        /*LT*/

PL6.E3A0      #001=VPH$LIST File=VPH$LISTREV.:E05TSI                             WED 07/30/97 07:39 Page:75
   9330 12 001521   000171 236000 xsym               LDQ     ICB+121
        12 001522   100000 316003                    CANQ    32768,DU
        12 001523   001531 600000 12                 TZE     s:9334

      487     9331    2            THEN
      488     9332    2              IN_BUF_VECTOR.PTR$->CHAR$49 = TAPE_HDR;

   9332 12 001524   000001 470400 xsym               LDP0    IN_BUF_VECTOR+1
        12 001525   040100 100400                    MLR     fill='040'O
        12 001526   000020 000061 10                 ADSC9   TAPE_HDR                 cn=0,n=49
        12 001527   000000 000061                    ADSC9   0,,PR0                   cn=0,n=49
        12 001530   001535 710000 12                 TRA     s:9335

      489     9333    2            ELSE
      490     9334    2              IN_BUF_VECTOR.PTR$->CHAR$49 = DISK_HDR;

   9334 12 001531   000001 470400 xsym               LDP0    IN_BUF_VECTOR+1
        12 001532   040100 100400                    MLR     fill='040'O
        12 001533   000003 000061 10                 ADSC9   DISK_HDR                 cn=0,n=49
        12 001534   000000 000061                    ADSC9   0,,PR0                   cn=0,n=49

      491     9335    2           CALL VPG$WRITE_OUT(49,0);

   9335 12 001535   000045 630400 13                 EPPR0   37
        12 001536   000020 631400 xsym               EPPR1   B_VECTNIL+16
        12 001537   000000 701000 xent               TSX1    VPG$WRITE_OUT
        12 001540   000000 011000                    NOP     0

      492     9336    2           RETURN;

   9336 12 001541   200070 221300                    LDX1  ! TEMP+1,,AUTO
        12 001542   000001 702211                    TSX2  ! 1,X1

      493     9337    2   END OUT_LIST_HDR;
      494     9338        %EJECT;
PL6.E3A0      #001=VPH$LIST File=VPH$LISTREV.:E05TSI                             WED 07/30/97 07:39 Page:76
      495     9339    1   REVIEW_CHK: PROC(RET_VAL);

   9339 12 001543   200070 741300       REVIEW_CHK   STX1  ! TEMP+1,,AUTO

      496     9340        /*I* NAME: REVIEW_CHK
      497     9341             PURPOSE: To analyze and act upon responses to the REVIEW commands'
      498     9342                      prompts.
      499     9343             CALL: CALL REVIEW_CHK(RET_VAL);
      500     9344             DESCRIPTION: REVIEW_CHK gets an input line from the user after each
      501     9345                          file being reviewed is listed. It then acts upon that input
      502     9346                          as follows:
      503     9347                             o NEXT - does nothing but return
      504     9348                             o DELETE - attempts to delete the file and returns
      505     9349                             o END - returns with a code to end the REVIEW
      506     9350                             o JUMP - returns with a code to JUMP to the next source
      507     9351                             o A - returns with a code to re-LIST with Attributes
      508     9352                             o EA - returns with a code to re-LIST with Extended
      509     9353                                    Attributes.
      510     9354                             o FA - returns with a code to re-LIST with Full
      511     9355                                    Attributes.
      512     9356                             o COPY [n] - copies the first n lines of the file
      513     9357                                          then returns with a code to re-LIST
      514     9358                                          NAME only.
      515     9359        */
      516     9360    2   DCL RET_VAL SBIN WORD;
      517     9361    2   DCL TSEED UBIN;
      518     9362    2   DCL J UBIN;
      519     9363    2   DCL DELETED_BUF CHAR(0) CONSTANT INIT('          ** Deleted **');
      520     9364        %FPT_READ(FPTN = FPT_READ_EI,
      521     9365                  DCB  = M$EI,
      522     9366                  BUF  = REV_BUF,
      523     9367                  STCLASS = STATIC);
      524     9406        %FPT_OPEN  (FPTN=FPT_OPEN_EI_DELETE_IT, STCLASS=AUTO);
      525     9515    2   DCL REV_BUF CHAR(140) STATIC;
      526     9516    2   DCL NUMRECS SBIN WORD;
      527     9517        /**/
      528     9518    2           RET_VAL = 0;                    /* GO ON TO NEXT FILE                 */
PL6.E3A0      #001=VPH$LIST File=VPH$LISTREV.:E05TSI                             WED 07/30/97 07:39 Page:77

   9518 12 001544   200071 470500                    LDP0    @RET_VAL,,AUTO
        12 001545   000000 450100                    STZ     0,,PR0

      529     9519    2           CALL VPD$GET_INPUT(0);

   9519 12 001546   000007 630400 13                 EPPR0   7
        12 001547   000017 631400 xsym               EPPR1   B_VECTNIL+15
        12 001550   000000 701000 xent               TSX1    VPD$GET_INPUT
        12 001551   000000 011000                    NOP     0

      530     9520    2           CALL X$PARSE(PCB) ALTRET(PARSE_ALT);

   9520 12 001552   000001 630400 13                 EPPR0   1
        12 001553   000017 631400 xsym               EPPR1   B_VECTNIL+15
        12 001554   000000 701000 xent               TSX1    X$PARSE
        12 001555   002113 702000 12                 TSX2    PARSE_ALT

      531     9521    3           DO CASE(PCB.OUT$->OUT$BLK.CODE);

   9521 12 001556   000003 470400 xsym               LDP0    PCB+3
        12 001557   000000 720100                    LXL0    0,,PR0
        12 001560   000041 100003                    CMPX0   33,DU
        12 001561   001563 602010 12                 TNC     s:9521+5,X0
        12 001562   002075 710000 12                 TRA     s:9595
        12 001563   002075 710000 12                 TRA     s:9595
        12 001564   002075 710000 12                 TRA     s:9595
        12 001565   001670 710000 12                 TRA     s:9539
        12 001566   001660 710000 12                 TRA     s:9535
        12 001567   001664 710000 12                 TRA     s:9537
        12 001570   001624 710000 12                 TRA     s:9525
        12 001571   001711 710000 12                 TRA     s:9548
        12 001572   001675 710000 12                 TRA     s:9542
        12 001573   002075 710000 12                 TRA     s:9595
        12 001574   002075 710000 12                 TRA     s:9595
        12 001575   002075 710000 12                 TRA     s:9595
        12 001576   002075 710000 12                 TRA     s:9595
PL6.E3A0      #001=VPH$LIST File=VPH$LISTREV.:E05TSI                             WED 07/30/97 07:39 Page:78
        12 001577   002075 710000 12                 TRA     s:9595
        12 001600   002075 710000 12                 TRA     s:9595
        12 001601   002075 710000 12                 TRA     s:9595
        12 001602   002075 710000 12                 TRA     s:9595
        12 001603   002075 710000 12                 TRA     s:9595
        12 001604   002075 710000 12                 TRA     s:9595
        12 001605   002075 710000 12                 TRA     s:9595
        12 001606   002075 710000 12                 TRA     s:9595
        12 001607   002075 710000 12                 TRA     s:9595
        12 001610   002075 710000 12                 TRA     s:9595
        12 001611   002075 710000 12                 TRA     s:9595
        12 001612   002054 710000 12                 TRA     s:9587
        12 001613   002075 710000 12                 TRA     s:9595
        12 001614   002075 710000 12                 TRA     s:9595
        12 001615   002075 710000 12                 TRA     s:9595
        12 001616   002065 710000 12                 TRA     s:9591
        12 001617   002075 710000 12                 TRA     s:9595
        12 001620   002075 710000 12                 TRA     s:9595
        12 001621   002075 710000 12                 TRA     s:9595
        12 001622   002075 710000 12                 TRA     s:9595
        12 001623   001703 710000 12                 TRA     s:9545

      532     9522    3            CASE(1);                       /* NEXT                               */

      533     9523    3              ;
      534     9524    3            CASE(5);                       /* DELETE                             */

      535     9525    3              FPT_OPEN_EI_DELETE_IT = FPT_OPEN_EI_SAVE;

   9525 12 001624   000100 100400                    MLR     fill='000'O
        12 001625   000000 000350 xsym               ADSC9   FPT_OPEN_EI_SAVE         cn=0,n=232
        12 001626   200074 000350                    ADSC9   FPT_OPEN_EI_DELETE_IT,,AUTO cn=0,n=232

      536     9526    3              FPT_OPEN_EI_DELETE_IT.V_ = VECTOR (FPT_OPEN_EI_DELETE_IT.V);

   9526 12 001627   000047 235000 13                 LDA     39
        12 001630   200170 452500                    STP2    NUMRECS+2,,AUTO
PL6.E3A0      #001=VPH$LIST File=VPH$LISTREV.:E05TSI                             WED 07/30/97 07:39 Page:79
        12 001631   200170 236100                    LDQ     NUMRECS+2,,AUTO
        12 001632   000140 036003                    ADLQ    96,DU
        12 001633   200074 757100                    STAQ    FPT_OPEN_EI_DELETE_IT,,AUTO

      537     9527    3              FPT_OPEN_EI_DELETE_IT.V.OPER.TEST# = %NO#;

   9527 12 001634   000050 236000 13                 LDQ     40
        12 001635   200140 356100                    ANSQ    FPT_OPEN_EI_DELETE_IT+36,,AUTO

      538     9528    3              FPT_OPEN_EI_DELETE_IT.V.DELETE# = %YES#;

   9528 12 001636   040000 236007                    LDQ     16384,DL
        12 001637   200140 256100                    ORSQ    FPT_OPEN_EI_DELETE_IT+36,,AUTO

      539     9529    3              CALL M$OPEN(FPT_OPEN_EI_DELETE_IT) ALTRET(DEL_OPEN_ALT);

   9529 12 001640   200074 630500                    EPPR0   FPT_OPEN_EI_DELETE_IT,,AUTO
        12 001641   450000 713400                    CLIMB   alt,open
        12 001642   410400 401760                    pmme    nvectors=18
        12 001643   002132 702000 12                 TSX2    DEL_OPEN_ALT

      540     9530    3              CALL VPD$COUNTER_BUMP(1);

   9530 12 001644   000022 630400 13                 EPPR0   18
        12 001645   000017 631400 xsym               EPPR1   B_VECTNIL+15
        12 001646   000000 701000 xent               TSX1    VPD$COUNTER_BUMP
        12 001647   000000 011000                    NOP     0

      541     9531    3              FPT_WRITE_ME.BUF_   = VECTOR(DELETED_BUF);

   9531 12 001650   000052 237000 13                 LDAQ    42
        12 001651   000004 757000 xsym               STAQ    FPT_WRITE_ME+4

      542     9532    3              FPT_WRITE_ME.V.DVBYTE.VFC# = %NO#;

   9532 12 001652   000012 236000 13                 LDQ     10
        12 001653   000013 356000 xsym               ANSQ    FPT_WRITE_ME+11
PL6.E3A0      #001=VPH$LIST File=VPH$LISTREV.:E05TSI                             WED 07/30/97 07:39 Page:80

      543     9533    3              CALL M$WRITE(FPT_WRITE_ME);

   9533 12 001654   000000 630400 xsym               EPPR0   FPT_WRITE_ME
        12 001655   040001 713400                    CLIMB   write
        12 001656   401400 401760                    pmme    nvectors=4
        12 001657   002075 710000 12                 TRA     s:9595

      544     9534    3            CASE(3);                       /* JUMP                               */

      545     9535    3              RET_VAL = 1;

   9535 12 001660   000001 235007                    LDA     1,DL
        12 001661   200071 471500                    LDP1    @RET_VAL,,AUTO
        12 001662   100000 755100                    STA     0,,PR1
        12 001663   002075 710000 12                 TRA     s:9595

      546     9536    3            CASE(4);                       /* END                                */

      547     9537    3              RET_VAL = 2;

   9537 12 001664   000002 235007                    LDA     2,DL
        12 001665   200071 471500                    LDP1    @RET_VAL,,AUTO
        12 001666   100000 755100                    STA     0,,PR1
        12 001667   002075 710000 12                 TRA     s:9595

      548     9538    3            CASE(2);                       /* ATTRIBS                            */

      549     9539    3              RET_VAL = 3;

   9539 12 001670   000003 235007                    LDA     3,DL
        12 001671   200071 471500                    LDP1    @RET_VAL,,AUTO
        12 001672   100000 755100                    STA     0,,PR1

      550     9540    3              LIST_CODE = 3;

   9540 12 001673   200020 755100                    STA     LIST_CODE,,AUTO
PL6.E3A0      #001=VPH$LIST File=VPH$LISTREV.:E05TSI                             WED 07/30/97 07:39 Page:81
        12 001674   002075 710000 12                 TRA     s:9595

      551     9541    3            CASE(7);                       /* EATTRIBS                           */

      552     9542    3              RET_VAL = 3;

   9542 12 001675   000003 235007                    LDA     3,DL
        12 001676   200071 471500                    LDP1    @RET_VAL,,AUTO
        12 001677   100000 755100                    STA     0,,PR1

      553     9543    3              LIST_CODE = 4;

   9543 12 001700   000004 236007                    LDQ     4,DL
        12 001701   200020 756100                    STQ     LIST_CODE,,AUTO
        12 001702   002075 710000 12                 TRA     s:9595

      554     9544    3            CASE(32);                      /* FATTRIBS                           */

      555     9545    3              RET_VAL = 3;

   9545 12 001703   000003 235007                    LDA     3,DL
        12 001704   200071 471500                    LDP1    @RET_VAL,,AUTO
        12 001705   100000 755100                    STA     0,,PR1

      556     9546    3              LIST_CODE = 5;

   9546 12 001706   000005 236007                    LDQ     5,DL
        12 001707   200020 756100                    STQ     LIST_CODE,,AUTO
        12 001710   002075 710000 12                 TRA     s:9595

      557     9547    3            CASE(6);                       /* COPY                               */

      558     9548    3              TSEED=ICB.CRPT;              /* Default to what user said          */

   9548 12 001711   000007 235000 xsym               LDA     ICB+7
        12 001712   200072 755100                    STA     TSEED,,AUTO

PL6.E3A0      #001=VPH$LIST File=VPH$LISTREV.:E05TSI                             WED 07/30/97 07:39 Page:82
      559     9549    3              NUMRECS = 1;                 /* Default to 1 record                */

   9549 12 001713   000001 236007                    LDQ     1,DL
        12 001714   200166 756100                    STQ     NUMRECS,,AUTO

      560     9550    3              IF PCB.OUT$->OUT$BLK.NSUBLKS>0

   9550 12 001715   000001 220100                    LDX0    1,,PR0
        12 001716   001775 600000 12                 TZE     DEF_1

      561     9551    3               THEN
      562     9552    4               DO J=0 TO PCB.OUT$->OUT$BLK.NSUBLKS-1;

   9552 12 001717   200073 450100                    STZ     J,,AUTO
        12 001720   001766 710000 12                 TRA     s:9562+3

      563     9553    5                  DO CASE(PCB.OUT$->OUT$BLK.SUBLK$(J)->OUT$BLK.CODE);

   9553 12 001721   000003 470400 xsym               LDP0    PCB+3
        12 001722   200073 720100                    LXL0    J,,AUTO
        12 001723   000003 471510                    LDP1    3,X0,PR0
        12 001724   100000 721100                    LXL1    0,,PR1
        12 001725   000007 101003                    CMPX1   7,DU
        12 001726   001730 602011 12                 TNC     s:9553+7,X1
        12 001727   001763 710000 12                 TRA     s:9562
        12 001730   001737 710000 12                 TRA     s:9555
        12 001731   001763 710000 12                 TRA     s:9562
        12 001732   001763 710000 12                 TRA     s:9562
        12 001733   001763 710000 12                 TRA     s:9562
        12 001734   001763 710000 12                 TRA     s:9562
        12 001735   001763 710000 12                 TRA     s:9562
        12 001736   001752 710000 12                 TRA     s:9558

      564     9554    5                   CASE(0);                /* Decimal number                     */

      565     9555    5                     CALL VPD$TEXTC_CHARBIN(NUMRECS,PCB.OUT$->OUT$BLK.SUBLK$(J)->

PL6.E3A0      #001=VPH$LIST File=VPH$LISTREV.:E05TSI                             WED 07/30/97 07:39 Page:83
   9555 12 001737   000051 236000 13                 LDQ     41
        12 001740   200172 756100                    STQ     NUMRECS+4,,AUTO
        12 001741   100003 633500                    EPPR3   3,,PR1
        12 001742   200171 453500                    STP3    NUMRECS+3,,AUTO
        12 001743   200166 631500                    EPPR1   NUMRECS,,AUTO
        12 001744   200170 451500                    STP1    NUMRECS+2,,AUTO
        12 001745   200170 630500                    EPPR0   NUMRECS+2,,AUTO
        12 001746   000021 631400 xsym               EPPR1   B_VECTNIL+17
        12 001747   000000 701000 xent               TSX1    VPD$TEXTC_CHARBIN
        12 001750   001775 702000 12                 TSX2    DEF_1
        12 001751   001763 710000 12                 TRA     s:9562

      566     9556    5                       OUT$BLK.SUBLK$(0),-1) ALTRET(DEF_1);
      567     9557    5                   CASE(6);                /* Encryption seed                    */

      568     9558    5                     CALL VPD$MNG_CRPT(TSEED,PCB.OUT$->OUT$BLK.SUBLK$(J)->

   9558 12 001752   100003 633500                    EPPR3   3,,PR1
        12 001753   200171 453500                    STP3    NUMRECS+3,,AUTO
        12 001754   200072 631500                    EPPR1   TSEED,,AUTO
        12 001755   200170 451500                    STP1    NUMRECS+2,,AUTO
        12 001756   200170 630500                    EPPR0   NUMRECS+2,,AUTO
        12 001757   000020 631400 xsym               EPPR1   B_VECTNIL+16
        12 001760   000000 701000 xent               TSX1    VPD$MNG_CRPT
        12 001761   001763 702000 12                 TSX2    s:9562
        12 001762   001763 710000 12                 TRA     s:9562

      569     9559    5                       OUT$BLK.SUBLK$(0))
      570     9560    6                      WHENALTRETURN DO; END;

      571     9561    5                   END;

      572     9562    4                  END;

   9562 12 001763   200073 235100                    LDA     J,,AUTO
        12 001764   000001 035007                    ADLA    1,DL
        12 001765   200073 755100                    STA     J,,AUTO
PL6.E3A0      #001=VPH$LIST File=VPH$LISTREV.:E05TSI                             WED 07/30/97 07:39 Page:84
        12 001766   000003 470400 xsym               LDP0    PCB+3
        12 001767   000001 236100                    LDQ     1,,PR0
        12 001770   000022 772000                    QRL     18
        12 001771   200073 116100                    CMPQ    J,,AUTO
        12 001772   001774 600000 12                 TZE     s:9562+9
        12 001773   001721 603000 12                 TRC     s:9553
        12 001774   001777 710000 12                 TRA     s:9565

      573     9563    3               ELSE
      574     9564    3   DEF_1:        NUMRECS = 1;

   9564 12 001775   000001 235007       DEF_1        LDA     1,DL
        12 001776   200166 755100                    STA     NUMRECS,,AUTO

      575     9565    3              FPT_WRITE_ME.BUF_   = VECTOR(REV_BUF);

   9565 12 001777   000054 237000 13                 LDAQ    44
        12 002000   000004 757000 xsym               STAQ    FPT_WRITE_ME+4

      576     9566    3              FPT_WRITE_ME.V.DVBYTE.VFC# = %NO#;

   9566 12 002001   000012 236000 13                 LDQ     10
        12 002002   000013 356000 xsym               ANSQ    FPT_WRITE_ME+11

      577     9567    3              FPT_READ_EI.V.SEED# = BINBIT(TSEED,36);

   9567 12 002003   200072 236100                    LDQ     TSEED,,AUTO
        12 002004   000014 756000 11                 STQ     FPT_READ_EI+10

      578     9568    4              DO NUMRECS=-NUMRECS TO -1;

   9568 12 002005   200166 335100                    LCA     NUMRECS,,AUTO
        12 002006   200166 755100                    STA     NUMRECS,,AUTO
        12 002007   002041 710000 12                 TRA     s:9582+1

      579     9569    4                 CALL M$READ(FPT_READ_EI) ALTRET(EI_READ_ALT);

PL6.E3A0      #001=VPH$LIST File=VPH$LISTREV.:E05TSI                             WED 07/30/97 07:39 Page:85
   9569 12 002010   000002 630400 11                 EPPR0   FPT_READ_EI
        12 002011   440000 713400                    CLIMB   alt,read
        12 002012   401400 401760                    pmme    nvectors=4
        12 002013   002076 702000 12                 TSX2    EI_READ_ALT

      580     9570    4   WRITE_IT:     IF M$EI$->F$DCB.ARS = 0

   9570 12 002014   000000 470400 xsym  WRITE_IT     LDP0    M$EI$
        12 002015   000000 235100                    LDA     0,,PR0
        12 002016   002027 601000 12                 TNZ     s:9579

      581     9571    4                  THEN                     /* Null record, clobber it            */
      582     9572    5                  DO;

      583     9573    5                     FPT_WRITE_ME.BUF_ = VECTOR (NIL);

   9573 12 002017   000056 237000 13                 LDAQ    46
        12 002020   000004 757000 xsym               STAQ    FPT_WRITE_ME+4

      584     9574    5                     CALL M$WRITE(FPT_WRITE_ME);

   9574 12 002021   000000 630400 xsym               EPPR0   FPT_WRITE_ME
        12 002022   040001 713400                    CLIMB   write
        12 002023   401400 401760                    pmme    nvectors=4

      585     9575    5                     FPT_WRITE_ME.BUF_ = VECTOR (REV_BUF); /* Restore output BUF */

   9575 12 002024   000054 237000 13                 LDAQ    44
        12 002025   000004 757000 xsym               STAQ    FPT_WRITE_ME+4

      586     9576    5                     END;

   9576 12 002026   002040 710000 12                 TRA     s:9582

      587     9577    4                  ELSE
      588     9578    5                  DO;

PL6.E3A0      #001=VPH$LIST File=VPH$LISTREV.:E05TSI                             WED 07/30/97 07:39 Page:86
      589     9579    5                     FPT_WRITE_ME.BUF_.BOUND = M$EI$->F$DCB.ARS -1;

   9579 12 002027   000000 236100                    LDQ     0,,PR0
        12 002030   000001 136007                    SBLQ    1,DL
        12 002031   000020 736000                    QLS     16
        12 002032   000004 676000 xsym               ERQ     FPT_WRITE_ME+4
        12 002033   000034 376000 xsym               ANQ     B_VECTNIL+28
        12 002034   000004 656000 xsym               ERSQ    FPT_WRITE_ME+4

      590     9580    5                     CALL M$WRITE(FPT_WRITE_ME);

   9580 12 002035   000000 630400 xsym               EPPR0   FPT_WRITE_ME
        12 002036   040001 713400                    CLIMB   write
        12 002037   401400 401760                    pmme    nvectors=4

      591     9581    5                     END;

      592     9582    4                 END;

   9582 12 002040   200166 054100                    AOS     NUMRECS,,AUTO
        12 002041   200166 235100                    LDA     NUMRECS,,AUTO
        12 002042   002010 604000 12                 TMI     s:9569

      593     9583    3   CLOSE_EI:  CALL M$CLOSE(FPT_CLOSE_EI);

   9583 12 002043   000000 630400 xsym  CLOSE_EI     EPPR0   FPT_CLOSE_EI
        12 002044   050001 713400                    CLIMB   close
        12 002045   406000 401760                    pmme    nvectors=13

      594     9584    3              RET_VAL = 3;

   9584 12 002046   000003 235007                    LDA     3,DL
        12 002047   200071 470500                    LDP0    @RET_VAL,,AUTO
        12 002050   000000 755100                    STA     0,,PR0

      595     9585    3              LIST_CODE = 1;

PL6.E3A0      #001=VPH$LIST File=VPH$LISTREV.:E05TSI                             WED 07/30/97 07:39 Page:87
   9585 12 002051   000001 236007                    LDQ     1,DL
        12 002052   200020 756100                    STQ     LIST_CODE,,AUTO
        12 002053   002075 710000 12                 TRA     s:9595

      596     9586    3            CASE(23);                      /* HELP                               */

      597     9587    3              CALL VPL$HELP;

   9587 12 002054   000002 631400 xsym               EPPR1   B_VECTNIL+2
        12 002055   000000 701000 xent               TSX1    VPL$HELP
        12 002056   000000 011000                    NOP     0

      598     9588    3              RET_VAL = 3;

   9588 12 002057   000003 235007                    LDA     3,DL
        12 002060   200071 470500                    LDP0    @RET_VAL,,AUTO
        12 002061   000000 755100                    STA     0,,PR0

      599     9589    3              LIST_CODE = 1;

   9589 12 002062   000001 236007                    LDQ     1,DL
        12 002063   200020 756100                    STQ     LIST_CODE,,AUTO
        12 002064   002075 710000 12                 TRA     s:9595

      600     9590    3            CASE(27);                      /* QUEST                              */

      601     9591    3              CALL VPL$QUEST;

   9591 12 002065   000002 631400 xsym               EPPR1   B_VECTNIL+2
        12 002066   000000 701000 xent               TSX1    VPL$QUEST
        12 002067   000000 011000                    NOP     0

      602     9592    3              RET_VAL = 3;

   9592 12 002070   000003 235007                    LDA     3,DL
        12 002071   200071 470500                    LDP0    @RET_VAL,,AUTO
        12 002072   000000 755100                    STA     0,,PR0
PL6.E3A0      #001=VPH$LIST File=VPH$LISTREV.:E05TSI                             WED 07/30/97 07:39 Page:88

      603     9593    3              LIST_CODE = 1;

   9593 12 002073   000001 236007                    LDQ     1,DL
        12 002074   200020 756100                    STQ     LIST_CODE,,AUTO

      604     9594    3            END;                           /* END CASE                           */

      605     9595    3           DO WHILE('0'B);

   9595 12 002075   002136 710000 12                 TRA     s:9615

      606     9596    3   EI_READ_ALT: IF B$TCB$->B$TCB.ALT$->B$ALT.ERR.CODE=%E$EOF

   9596 12 002076   000000 470400 xsym  EI_READ_ALT  LDP0    B$TCB$
        12 002077   000000 471500                    LDP1    0,,PR0
        12 002100   100102 236100                    LDQ     66,,PR1
        12 002101   377770 376007                    ANQ     131064,DL
        12 002102   000060 116007                    CMPQ    48,DL
        12 002103   002043 600000 12                 TZE     CLOSE_EI

      607     9597    3               THEN
      608     9598    3                 GOTO CLOSE_EI;
      609     9599    3               ELSE
      610     9600    3                 IF B$TCB$->B$TCB.ALT$->B$ALT.ERR.CODE=%E$LD

   9600 12 002104   000070 116007                    CMPQ    56,DL
        12 002105   002014 600000 12                 TZE     WRITE_IT

      611     9601    3                  THEN
      612     9602    3                    GOTO WRITE_IT;
      613     9603    3                  ELSE
      614     9604    4                  DO;

      615     9605    4                     CALL VPL$ERR_PROC(1,0);

   9605 12 002106   000060 630400 13                 EPPR0   48
PL6.E3A0      #001=VPH$LIST File=VPH$LISTREV.:E05TSI                             WED 07/30/97 07:39 Page:89
        12 002107   000020 631400 xsym               EPPR1   B_VECTNIL+16
        12 002110   000000 701000 xent               TSX1    VPL$ERR_PROC
        12 002111   000000 011000                    NOP     0

      616     9606    4                     GOTO CLOSE_EI;

   9606 12 002112   002043 710000 12                 TRA     CLOSE_EI

      617     9607    4                     END;
      618     9608    3   PARSE_ALT: CALL VPL$ERR_PROC(1,0,,PCB.ERROR);

   9608 12 002113   000036 236000 13    PARSE_ALT    LDQ     30
        12 002114   000001 235000 xsym               LDA     B_VECTNIL+1
        12 002115   200172 757100                    STAQ    NUMRECS+4,,AUTO
        12 002116   000060 237000 13                 LDAQ    48
        12 002117   200170 757100                    STAQ    NUMRECS+2,,AUTO
        12 002120   200170 630500                    EPPR0   NUMRECS+2,,AUTO
        12 002121   000022 631400 xsym               EPPR1   B_VECTNIL+18
        12 002122   000000 701000 xent               TSX1    VPL$ERR_PROC
        12 002123   000000 011000                    NOP     0

      619     9609    3   READ_SI_ALT: RET_VAL = 3;

   9609 12 002124   000003 235007       READ_SI_ALT  LDA     3,DL
        12 002125   200071 470500                    LDP0    @RET_VAL,,AUTO
        12 002126   000000 755100                    STA     0,,PR0

      620     9610    3              LIST_CODE = 1;

   9610 12 002127   000001 236007                    LDQ     1,DL
        12 002130   200020 756100                    STQ     LIST_CODE,,AUTO

      621     9611    4              DO WHILE('0'B);

   9611 12 002131   002136 710000 12                 TRA     s:9615

      622     9612    4   DEL_OPEN_ALT: CALL VPL$ERR_PROC(1,0);
PL6.E3A0      #001=VPH$LIST File=VPH$LISTREV.:E05TSI                             WED 07/30/97 07:39 Page:90

   9612 12 002132   000060 630400 13    DEL_OPEN_ALT EPPR0   48
        12 002133   000020 631400 xsym               EPPR1   B_VECTNIL+16
        12 002134   000000 701000 xent               TSX1    VPL$ERR_PROC
        12 002135   000000 011000                    NOP     0

      623     9613    4                 END;

      624     9614    3              END;

      625     9615    2           RETURN;

   9615 12 002136   200070 221300                    LDX1  ! TEMP+1,,AUTO
        12 002137   000001 702211                    TSX2  ! 1,X1

      626     9616    2   END REVIEW_CHK;
      627     9617    1   END VPH$LIST;

   9617 12 002140   000000 702200 xent               TSX2  ! X66_ARET
      628     9618        %EOD;

PL6.E3A0      #001=VPH$LIST File=VPH$LISTREV.:E05TSI                             WED 07/30/97 07:39 Page:91
--  Include file information  --

   B_ERRORS_C.:E05TOU  is referenced.
   FM$FIT.:E05TOU  is referenced.
   F$DCB.:E05TOU  cannot be made into a system file and is referenced.
   B_MICROPS_C.:E05TOU  is referenced.
   XU_MACRO_C.:E05TOU  is referenced.
   VP_MACRO_C.:E05TOU  is referenced.
   XS_MACRO_C.:E05TOU  is referenced.
   VP_PERR_C.:E05TOU  is referenced.
   CP_6_SUBS.:E05TOU  is referenced.
   CP_6.:E05TOU  cannot be made into a system file and is referenced.
   VP_DATA_R.:E05TOU  cannot be made into a system file and is referenced.
   B$JIT_C.:E05TOU  was found in the system file and is referenced.
   CP_6_C.:E05TOU  was found in the system file and is referenced.
      No diagnostics issued in procedure VPH$LIST.
PL6.E3A0      #001=VPH$LIST File=VPH$LISTREV.:E05TSI                             WED 07/30/97 07:39 Page:92

 **** Variables and constants ****

  ****  Section 010 RoData VPH$LIST

  ****  Scalars and arrays  ****
OctLoc.c.b A Datatyp(siz) R M Lvl/name                 OctLoc.c.b A Datatyp(siz) R M Lvl/name

    35-0-0/c CHAR(23)    r     1 DELETED_BUF                3-0-0/c CHAR(49)    r     1 DISK_HDR
     0-0-0/c CHAR(9)     r     1 LIS_MSG                   20-0-0/c CHAR(49)    r     1 TAPE_HDR

  ****  Section 011  Data  VPH$LIST

  ****  Scalars and arrays  ****
OctLoc.c.b A Datatyp(siz) R M Lvl/name                 OctLoc.c.b A Datatyp(siz) R M Lvl/name

     1-0-0/c CHAR        r     1 CR_LF                      0-0-0/c STRC(18)    r     1 EXTEND
     2-0-0/d STRC(504)   r     1 FPT_READ_EI               20-0-0/c CHAR(140)   r     1 REV_BUF

  ****  Auto variables  ****

  ****  Scalars and arrays  ****
OctLoc.c.b A Datatyp(siz) R M Lvl/name                 OctLoc.c.b A Datatyp(siz) R M Lvl/name

    71-0-0/w PTR         r     1 @RET_VAL                  17-0-0/w SBIN        r     1 CLIST_CODE
    21-0-0/w SBIN        r     1 CUR_GRANS                 11-0-0/w SBIN        r     1 DEFAULT_LIST_CODE
    12-0-0/w SBIN        r     1 DEFAULT_LIST_COLS
    74-0-0/d STRC(2088)  r     1 FPT_OPEN_EI_DELETE_IT
    10-0-0/w SBIN        r     1 I                          3-0-0/w SBIN        r     1 IDX
     4-0-0/w SBIN        r     1 IDX2                      73-0-0/w UBIN        r     1 J
    20-0-0/w SBIN        r     1 LIST_CODE                  5-0-0/b BIT (9)     r     1 LIST_HDR_OUT
    22-0-0/w SBIN        r     1 LIST_WKSZ                 23-0-0/w PTR         r     1 LIST_WORK$
     6-0-0/w SBIN        r     1 NEXT_SPEC_RET_VAL        166-0-0/w SBIN        r     1 NUMRECS
     7-0-0/w SBIN        r     1 OPEN_NEXT_RET_VAL         14-0-0/w PTR         r     1 OUT$
    15-0-0/w PTR         r     1 OUTSPEC$                  13-0-0/w PTR         r     1 PTR$
    *0-0-0/w SBIN        r     1 RET_VAL                   24-0-0/w SBIN        r     1 REV_RET_VAL
    16-0-0/w PTR         r     1 SOURCELIST$               25-0-0/w SBIN        r     1 SUM_IDX
    26-0-0/c STRC(1188)  r     1 SUM_LINE                  26-0-0/c CHAR(132)   r     1 SUM_LINE_TEXT
PL6.E3A0      #001=VPH$LIST File=VPH$LISTREV.:E05TSI                             WED 07/30/97 07:39 Page:93
    67-0-0/w SBIN        r     1 TEMP                      71-0-0/w SBIN        r     1 TEMP
    72-0-0/w UBIN        r     1 TSEED

  ****  SYMREF variables  ****

  ****  Scalars and arrays  ****
OctLoc.c.b A Datatyp(siz) R M Lvl/name                 OctLoc.c.b A Datatyp(siz) R M Lvl/name

     0-0-0/d REMB        r     1 ABORT_CMD                  0-0-0/d REMB        r     1 ABORT_STEP
     0-0-0/w PTR         r     1 B$JIT$                     0-0-0/w PTR         r     1 B$TCB$
     0-0-0/d REMB        r     1 BREAK_LOC
     0-0-0/w EPTR        r     1 BREAK_MESSAGE_REPORTER
     0-0-0/b BIT         r     1 CMD_MASK(0:71)
     0-0-0/b BIT         r     1 CON_DUP_TBL(0:35)
     0-0-0/w SBIN        r     1 CUR_SEQ_NO                 0-0-0/d STRC(5868)  r     1 DEF_ICB
     0-0-0/c STRC(4608)  r     1 EI_KEY                     0-0-0/w BIT         r     1 ERR_FLG
     0-0-0/d SBIN        r     1 FPARAM_BUF(0:1023)
     0-0-0/d STRC(1080)  r     1 FPT_CLOSE_EI               0-0-0/d STRC(1080)  r     1 FPT_CLOSE_STD
     0-0-0/d STRC(2088)  r     1 FPT_OPEN_EI_SAVE           0-0-0/d STRC(504)   r     1 FPT_READ_STD
     0-0-0/d STRC(432)   r     1 FPT_WRITE_ME               0-0-0/d STRC(5868)  r     1 ICB
     0-0-0/d STRC(72)    r     1 IN_BUF_VECTOR              0-0-0/w PTR         r     1 LIST_BUF$
     0-0-0/w SBIN        r     1 LIST_IDX                   0-0-0/w PTR         r     1 M$EI$
     0-0-0/w PTR         r     1 M$EO1$                     0-0-0/w PTR         r     1 M$SI$
     0-0-0/w PTR         r     1 M$STD1$                    0-0-0/d STRC(6840)  r     1 OCB
     0-0-0/w SBIN        r     1 OUTPUT_PWIDTH              0-0-0/w STRC(504)   r     1 PCB
     0-0-0/w SBIN        r     1 SINGLE_INSPEC              0-0-0/c STRC(1260)  r     1 SPEC_BUF
     0-0-0/b BIT         r     1 THIS_STD_FILE              0-0-0/b BIT         r     1 TOP_REVIEW_CMD
     0-0-0/b BIT         r     1 TOP_STD_N
     0-0-0/w SBIN        r     1 TOT_FILES(0:4)
     0-0-0/w SBIN        r     1 TOT_GRANS(0:4)
     0-0-0/w SBIN        r     1 TOT_RECS                   0-0-0/w SBIN        r     1 USABLE_LEN

  ****  BASED and DCB variables  ****

  ****  Scalars and arrays  ****
OctLoc.c.b A Datatyp(siz) R M Lvl/name                 OctLoc.c.b A Datatyp(siz) R M Lvl/name

PL6.E3A0      #001=VPH$LIST File=VPH$LISTREV.:E05TSI                             WED 07/30/97 07:39 Page:94
     0-0-0/w STRC(2448)  r     1 B$ALT                      0-0-0/d STRC(4537)  r     1 B$JIT
     0-0-0/w STRC(144)   r     1 B$TCB                      0-0-0/w STRC(81)    r     1 BUF_BLOCK
     0-0-0/c CHAR(132)   r     1 CHAR$132                   0-0-0/c CHAR(140)   r     1 CHAR$140
     0-0-0/c CHAR(49)    r     1 CHAR$49                    0-0-0/w STRC(324)   r     1 CODE03
     0-0-0/c STRC(324)   r     1 DEL                        0-0-0/c CHAR        r     1 DEL_TEXT
     0-0-0/d ASTR(3528)  r     1 F$DCB                      0-0-0N  NULL        r     1 M$EI
     0-0-0/w STRC(144)   r     1 OUT$BLK                    0-0-0/w ASTR(153)   r     1 OUT$SYM
     0-0-0/c ASTR(9)     r     1 TEXT$C


   Procedure VPH$LIST requires 1121 words for executable code.
   Procedure VPH$LIST requires 126 words of local(AUTO) storage.
PL6.E3A0      #001=VPH$LIST File=VPH$LISTREV.:E05TSI                             WED 07/30/97 07:39 Page:95
          *** CROSS REFERENCE LISTING ***
**     DENOTES     IDENTIFIER DEFINITION
<<                 IDENTIFIER'S VALUE SET
>>                 IDENTIFIER'S VALUE USED
<>                 IDENTIFIER SET AND/OR USED
--                 IDENTIFIER REFERENCED
PL6.E3A0      #001=VPH$LIST File=VPH$LISTREV.:E05TSI                             WED 07/30/97 07:39 Page:96
          MINI XREF LISTING

ABORT_CMD
      5188**DCL      8956<<REMEMBR
ABORT_STEP
      5187**DCL      8957<<REMEMBR  9174<<REMEMBR
AROUND_1
      9159**LABEL    9155--GOTO
B$ALT.CODE
      7285**DCL      7285--REDEF    7286--REDEF    7286--REDEF
B$ALT.ERR.CODE
      7287**DCL      9235>>IF       9596>>IF       9600>>IF
B$ALT.ERR.ERR#
      7287**DCL      7287--REDEF
B$ALT.EVID
      7286**DCL      7286--REDEF    7286--REDEF
B$JIT.CPFLAGS1.SLEAZE
      8519**DCL      8519--REDEF
B$JIT.ERR.MID
      8426**DCL      8426--REDEF
B$JIT.MODE
      8420**DCL      9057>>IF
B$JIT$
      5988**DCL      8420--IMP-PTR  9057>>IF
B$TCB.ALT$
      7281**DCL      9235>>IF       9596>>IF       9600>>IF
B$TCB$
      5988**DCL      9235>>IF       9596>>IF       9600>>IF
BREAK_LOC
      5223**DCL      5223--REDEF    8958<<REMEMBR  9122<<REMEMBR  9125<<REMEMBR  9175<<REMEMBR
BUF_BLOCK.BUF_1
      8690**DCL      9082--ASSIGN   9116--ASSIGN   9116--ASSIGN
BUF_BLOCK.BUF_1.LEN
      8691**DCL      9108>>IF       9118>>ASSIGN
PL6.E3A0      #001=VPH$LIST File=VPH$LISTREV.:E05TSI                             WED 07/30/97 07:39 Page:97
BUF_BLOCK.COUNT
      8689**DCL      9083>>DOINDEX  9084>>IF
CHAR$132
      8719**DCL      9095<<CALLBLT  9116<<ASSIGN   9210<<ASSIGN
CHAR$140 IN PROCEDURE OUT_LIST_HDR
      9313**DCL      9326<<ASSIGN
CHAR$49 IN PROCEDURE OUT_LIST_HDR
      9314**DCL      9332<<ASSIGN   9334<<ASSIGN
CLIST_CODE
      8686**DCL      9027>>IF       9036>>IF       9041>>ASSIGN   9264<<ASSIGN   9268<<ASSIGN   9273<<ASSIGN
      9275<<ASSIGN
CLOSE_EI IN PROCEDURE REVIEW_CHK
      9583**LABEL    9598--GOTO     9606--GOTO
CMD_MASK
      5225**DCL      8943<<ASSIGN   8953<<ASSIGN   8997>>IF       9012>>IF       9027>>IF       9079>>IF
      9084>>IF       9120>>IF       9164>>IF       9321>>IF
CODE03.NGAVAL
      7276**DCL      9049>>ASSIGN
CODE03.NRECS
      7276**DCL      9051>>ASSIGN
CODE03.UGRANS
      7274**DCL      9049>>ASSIGN
CON_DUP_TBL
      5221**DCL      8978<<ASSIGN
CR_LF
      8679**DCL      9138--ASSIGN
CUR_GRANS
      8693**DCL      9049<<ASSIGN   9050>>ASSIGN
CUR_SEQ_NO
      5920**DCL      8995<<ASSIGN
DEFAULT_LIST_CODE
      8680**DCL      8961<<ASSIGN   9266>>IF       9268>>ASSIGN
DEFAULT_LIST_COLS
      8681**DCL      8962<<ASSIGN   9278>>ASSIGN
DEF_1 IN PROCEDURE REVIEW_CHK
      9564**LABEL    9555--CALLALT
PL6.E3A0      #001=VPH$LIST File=VPH$LISTREV.:E05TSI                             WED 07/30/97 07:39 Page:98
DEF_ICB
      5802**DCL      8965<<ASSIGN   8987<<ASSIGN
DEF_ICB.FID.STRING
      5821**DCL      5822--REDEF
DEL.FILES
      8712**DCL      9204<<CALLBLT  9205--CALL
DEL.GRANS
      8714**DCL      9206<<CALLBLT  9207--CALL
DELETED_BUF IN PROCEDURE REVIEW_CHK
      9363**DCL      9531--ASSIGN
DEL_OPEN_ALT IN PROCEDURE REVIEW_CHK
      9612**LABEL    9529--CALLALT
DEL_TEXT
      8709**DCL      8710--REDEF    9203<<ASSIGN
DEV_ICB.FID.STRING
      5707**DCL      5708--REDEF
DISK_HDR IN PROCEDURE OUT_LIST_HDR
      9315**DCL      9334>>ASSIGN
EI_KEY.KEY
      5919**DCL      5919--REDEF    5919--REDEF    5919--REDEF
EI_KEY.LEN
      5919**DCL      8993<<ASSIGN   8994<<ASSIGN   8994>>ASSIGN
EI_READ_ALT IN PROCEDURE REVIEW_CHK
      9596**LABEL    9569--CALLALT
EO_OCB.TYPE
      5419**DCL      5420--REDEF
ERR_FLG
      5186**DCL      9213>>IF       9223<>CALL
EXTEND
      8676**DCL      9095--CALLBLT  9095--CALLBLT
EXTEND.LEN
      8677**DCL      9087<<ASSIGN   9092<<ASSIGN   9098>>ASSIGN   9102<<ASSIGN
F$DCB.ACTPOS
      7029**DCL      7029--REDEF
F$DCB.ARS
      7004**DCL      7004--REDEF    9005>>ASSIGN   9570>>IF       9579>>ASSIGN
PL6.E3A0      #001=VPH$LIST File=VPH$LISTREV.:E05TSI                             WED 07/30/97 07:39 Page:99
F$DCB.ATTR
      7022**DCL      7023--REDEF
F$DCB.BORROW
      7037**DCL      7037--REDEF    7037--REDEF    7037--REDEF
F$DCB.DCBNAME.L
      7051**DCL      7051--IMP-SIZ
F$DCB.DDEV.IC
      7010**DCL      8941>>IF       8951>>IF       9057>>IF
F$DCB.EOMCHAR
      7008**DCL      7008--REDEF
F$DCB.FCD
      7017**DCL      9150>>IF       9169>>IF       9221>>IF       9224>>IF       9228>>IF
F$DCB.FLDID
      7032**DCL      7032--REDEF
F$DCB.FORM$
      7026**DCL      7026--REDEF
F$DCB.FSECT
      7042**DCL      7042--REDEF
F$DCB.FSN
      7019**DCL      7019--REDEF    7019--REDEF    7020--REDEF
F$DCB.HEADER$
      7025**DCL      7025--REDEF
F$DCB.IXTNSIZE
      7023**DCL      7023--REDEF
F$DCB.LASTSTA$
      7013**DCL      7013--REDEF
F$DCB.LVL
      7038**DCL      7038--REDEF
F$DCB.NAME.C
      7013**DCL      7013--REDEF
F$DCB.NOEOF
      7034**DCL      7034--REDEF
F$DCB.NRECS
      7024**DCL      7024--REDEF
F$DCB.NRECX
      7043**DCL      7043--REDEF
PL6.E3A0      #001=VPH$LIST File=VPH$LISTREV.:E05TSI                             WED 07/30/97 07:39 Page:100
F$DCB.OHDR
      7035**DCL      7035--REDEF
F$DCB.ORG
      7018**DCL      7018--REDEF
F$DCB.PRECNO
      7041**DCL      7041--REDEF
F$DCB.RCSZ
      7046**DCL      7046--REDEF
F$DCB.RES
      7014**DCL      7014--REDEF
F$DCB.SETX
      7026**DCL      7026--REDEF
F$DCB.TAB$
      7025**DCL      7026--REDEF
F$DCB.TDA
      7040**DCL      7040--REDEF
F$DCB.WSN
      7015**DCL      7015--REDEF
FIN_LIST
      9169**LABEL    8958--REMEMBR  9237--GOTO
FPARAM_BUF
      5224**DCL      9047--ASSIGN
FPT_CLOSE_EI
      6760**DCL      9152<>CALL     9171<>CALL     9230<>CALL     9583<>CALL
FPT_CLOSE_EI.SN_
      6760**DCL      6760--REDEF
FPT_CLOSE_EI.UTL_
      6761**DCL      6761--REDEF
FPT_CLOSE_EI.V.EXPIRE#
      6775**DCL      6775--REDEF
FPT_CLOSE_EI.V.TYPE#
      6773**DCL      6773--REDEF
FPT_CLOSE_EI.V.XTNSIZE#
      6770**DCL      6770--REDEF    6772--REDEF
FPT_CLOSE_PTL.SN_
      6886**DCL      6886--REDEF
PL6.E3A0      #001=VPH$LIST File=VPH$LISTREV.:E05TSI                             WED 07/30/97 07:39 Page:101
FPT_CLOSE_PTL.UTL_
      6887**DCL      6887--REDEF
FPT_CLOSE_PTL.V.EXPIRE#
      6901**DCL      6901--REDEF
FPT_CLOSE_PTL.V.TYPE#
      6899**DCL      6899--REDEF
FPT_CLOSE_PTL.V.XTNSIZE#
      6896**DCL      6896--REDEF    6898--REDEF
FPT_CLOSE_READ.SN_
      6802**DCL      6802--REDEF
FPT_CLOSE_READ.UTL_
      6803**DCL      6803--REDEF
FPT_CLOSE_READ.V.EXPIRE#
      6817**DCL      6817--REDEF
FPT_CLOSE_READ.V.TYPE#
      6815**DCL      6815--REDEF
FPT_CLOSE_READ.V.XTNSIZE#
      6812**DCL      6812--REDEF    6814--REDEF
FPT_CLOSE_SI.SN_
      6970**DCL      6970--REDEF
FPT_CLOSE_SI.UTL_
      6971**DCL      6971--REDEF
FPT_CLOSE_SI.V.EXPIRE#
      6985**DCL      6985--REDEF
FPT_CLOSE_SI.V.TYPE#
      6983**DCL      6983--REDEF
FPT_CLOSE_SI.V.XTNSIZE#
      6980**DCL      6980--REDEF    6982--REDEF
FPT_CLOSE_STD
      6928**DCL      9226<>CALL
FPT_CLOSE_STD.SN_
      6928**DCL      6928--REDEF
FPT_CLOSE_STD.UTL_
      6929**DCL      6929--REDEF
FPT_CLOSE_STD.V.EXPIRE#
      6943**DCL      6943--REDEF
PL6.E3A0      #001=VPH$LIST File=VPH$LISTREV.:E05TSI                             WED 07/30/97 07:39 Page:102
FPT_CLOSE_STD.V.TYPE#
      6941**DCL      6941--REDEF
FPT_CLOSE_STD.V.XTNSIZE#
      6938**DCL      6938--REDEF    6940--REDEF
FPT_CLSEI_FT.SN_
      6844**DCL      6844--REDEF
FPT_CLSEI_FT.UTL_
      6845**DCL      6845--REDEF
FPT_CLSEI_FT.V.EXPIRE#
      6859**DCL      6859--REDEF
FPT_CLSEI_FT.V.TYPE#
      6857**DCL      6857--REDEF
FPT_CLSEI_FT.V.XTNSIZE#
      6854**DCL      6854--REDEF    6856--REDEF
FPT_OPEN_EI.ACSVEH_
      6415**DCL      6416--REDEF
FPT_OPEN_EI.ALTKEYS_
      6421**DCL      6422--REDEF    6422--REDEF
FPT_OPEN_EI.HDR_
      6420**DCL      6421--REDEF
FPT_OPEN_EI.TAB_
      6419**DCL      6420--REDEF
FPT_OPEN_EI.UHL_
      6413**DCL      6414--REDEF    6414--REDEF
FPT_OPEN_EI.V.FSN#
      6453**DCL      6453--REDEF    6453--REDEF
FPT_OPEN_EI.WSN_
      6419**DCL      6419--REDEF
FPT_OPEN_EI_DELETE_IT IN PROCEDURE REVIEW_CHK
      9471**DCL      9525<<ASSIGN   9529<>CALL
FPT_OPEN_EI_DELETE_IT.ACSVEH_ IN PROCEDURE REVIEW_CHK
      9473**DCL      9474--REDEF
FPT_OPEN_EI_DELETE_IT.ALTKEYS_ IN PROCEDURE REVIEW_CHK
      9479**DCL      9480--REDEF    9480--REDEF
FPT_OPEN_EI_DELETE_IT.HDR_ IN PROCEDURE REVIEW_CHK
      9478**DCL      9479--REDEF
PL6.E3A0      #001=VPH$LIST File=VPH$LISTREV.:E05TSI                             WED 07/30/97 07:39 Page:103
FPT_OPEN_EI_DELETE_IT.TAB_ IN PROCEDURE REVIEW_CHK
      9477**DCL      9478--REDEF
FPT_OPEN_EI_DELETE_IT.UHL_ IN PROCEDURE REVIEW_CHK
      9471**DCL      9472--REDEF    9472--REDEF
FPT_OPEN_EI_DELETE_IT.V IN PROCEDURE REVIEW_CHK
      9480**DCL      9526--ASSIGN
FPT_OPEN_EI_DELETE_IT.V.DELETE# IN PROCEDURE REVIEW_CHK
      9482**DCL      9528<<ASSIGN
FPT_OPEN_EI_DELETE_IT.V.FSN# IN PROCEDURE REVIEW_CHK
      9511**DCL      9511--REDEF    9511--REDEF
FPT_OPEN_EI_DELETE_IT.V.OPER.TEST# IN PROCEDURE REVIEW_CHK
      9482**DCL      9527<<ASSIGN
FPT_OPEN_EI_DELETE_IT.V_ IN PROCEDURE REVIEW_CHK
      9471**DCL      9526<<ASSIGN
FPT_OPEN_EI_DELETE_IT.WSN_ IN PROCEDURE REVIEW_CHK
      9477**DCL      9477--REDEF
FPT_OPEN_EI_SAVE
      6522**DCL      9525>>ASSIGN
FPT_OPEN_EI_SAVE.ACSVEH_
      6524**DCL      6525--REDEF
FPT_OPEN_EI_SAVE.ALTKEYS_
      6530**DCL      6531--REDEF    6531--REDEF
FPT_OPEN_EI_SAVE.HDR_
      6529**DCL      6530--REDEF
FPT_OPEN_EI_SAVE.TAB_
      6528**DCL      6529--REDEF
FPT_OPEN_EI_SAVE.UHL_
      6522**DCL      6523--REDEF    6523--REDEF
FPT_OPEN_EI_SAVE.V.FSN#
      6562**DCL      6562--REDEF    6562--REDEF
FPT_OPEN_EI_SAVE.WSN_
      6528**DCL      6528--REDEF
FPT_OPEN_OUT.ACSVEH_
      6306**DCL      6307--REDEF
FPT_OPEN_OUT.ALTKEYS_
      6312**DCL      6313--REDEF    6313--REDEF
PL6.E3A0      #001=VPH$LIST File=VPH$LISTREV.:E05TSI                             WED 07/30/97 07:39 Page:104
FPT_OPEN_OUT.HDR_
      6311**DCL      6312--REDEF
FPT_OPEN_OUT.TAB_
      6310**DCL      6311--REDEF
FPT_OPEN_OUT.UHL_
      6304**DCL      6305--REDEF    6305--REDEF
FPT_OPEN_OUT.V.FSN#
      6344**DCL      6344--REDEF    6344--REDEF
FPT_OPEN_OUT.WSN_
      6310**DCL      6310--REDEF
FPT_OPEN_OUT_SAVE.ACSVEH_
      6197**DCL      6198--REDEF
FPT_OPEN_OUT_SAVE.ALTKEYS_
      6203**DCL      6204--REDEF    6204--REDEF
FPT_OPEN_OUT_SAVE.HDR_
      6202**DCL      6203--REDEF
FPT_OPEN_OUT_SAVE.TAB_
      6201**DCL      6202--REDEF
FPT_OPEN_OUT_SAVE.UHL_
      6195**DCL      6196--REDEF    6196--REDEF
FPT_OPEN_OUT_SAVE.V.FSN#
      6235**DCL      6235--REDEF    6235--REDEF
FPT_OPEN_OUT_SAVE.WSN_
      6201**DCL      6201--REDEF
FPT_READ_EI IN PROCEDURE REVIEW_CHK
      9384**DCL      9569<>CALL
FPT_READ_EI.STATION_ IN PROCEDURE REVIEW_CHK
      9387**DCL      9388--REDEF
FPT_READ_EI.V IN PROCEDURE REVIEW_CHK
      9388**DCL      9384--DCLINIT
FPT_READ_EI.V.DVBYTE.REREAD# IN PROCEDURE REVIEW_CHK
      9399**DCL      9399--REDEF
FPT_READ_EI.V.INDX# IN PROCEDURE REVIEW_CHK
      9397**DCL      9397--REDEF
FPT_READ_EI.V.SEED# IN PROCEDURE REVIEW_CHK
      9398**DCL      9567<<ASSIGN
PL6.E3A0      #001=VPH$LIST File=VPH$LISTREV.:E05TSI                             WED 07/30/97 07:39 Page:105
FPT_READ_STD
      6622**DCL      9004<>CALL
FPT_READ_STD.STATION_
      6625**DCL      6626--REDEF
FPT_READ_STD.V.DVBYTE.REREAD#
      6637**DCL      6637--REDEF
FPT_READ_STD.V.INDX#
      6635**DCL      6635--REDEF
FPT_READ_UC.STATION_
      6586**DCL      6587--REDEF
FPT_READ_UC.V.DVBYTE.REREAD#
      6598**DCL      6598--REDEF
FPT_READ_UC.V.INDX#
      6596**DCL      6596--REDEF
FPT_WRITE_ME
      6692**DCL      9064<>CALL     9140<>CALL     9533<>CALL     9574<>CALL     9580<>CALL
FPT_WRITE_ME.BUF_
      6692**DCL      9062<<ASSIGN   9138<<ASSIGN   9531<<ASSIGN   9565<<ASSIGN   9573<<ASSIGN   9575<<ASSIGN
FPT_WRITE_ME.BUF_.BOUND
      6692**DCL      9579<<ASSIGN
FPT_WRITE_ME.STATION_
      6694**DCL      6694--REDEF
FPT_WRITE_ME.V.DVBYTE.VFC#
      6701**DCL      6701--REDEF    9063<<ASSIGN   9139<<ASSIGN   9532<<ASSIGN   9566<<ASSIGN
FPT_WRITE_OUT.STATION_
      6725**DCL      6725--REDEF
FPT_WRITE_OUT.V.DVBYTE.VFC#
      6732**DCL      6732--REDEF
FPT_WRITE_UC.STATION_
      6663**DCL      6663--REDEF
FPT_WRITE_UC.V.DVBYTE.VFC#
      6670**DCL      6670--REDEF
FROM_SN.SN
      5569**DCL      5570--REDEF
GETCMD.OUT$
      4776**DCL      4782--REDEF
PL6.E3A0      #001=VPH$LIST File=VPH$LISTREV.:E05TSI                             WED 07/30/97 07:39 Page:106
GET_CLIST_CODE_AND_COLS
      9248**PROC     9026--CALL
GET_USABLE_LEN
      9282**PROC     8992--CALL
I
      8675**DCL      9083<<DOINDEX  9084>>IF
ICB
      5574**DCL      8979<<ASSIGN   8987>>ASSIGN
ICB.A_EA_C
      5587**DCL      9262>>IF       9264>>ASSIGN
ICB.COLS
      5589**DCL      9107>>ASSIGN   9107>>ASSIGN   9107>>ASSIGN   9276>>IF       9278<<ASSIGN
ICB.CRPT
      5582**DCL      9548>>ASSIGN
ICB.DEV_MASK
      5643**DCL      8980<<ASSIGN   9042>>IF       9069>>IF       9074>>ASSIGN
ICB.DEV_MASK.MAN_TAPE
      5646**DCL      9330>>IF
ICB.FID.STRING
      5593**DCL      5594--REDEF
ICB.SPEC_TYPE
      5590**DCL      9271>>IF       9271>>IF       9321>>IF       9321>>IF
IDX
      8670**DCL      8966<<DOINDEX  8967>>ASSIGN
IDX2
      8671**DCL      8981<<DOINDEX  8982>>ASSIGN
IFSFA_PARAM.EOMCHAR#
      5948**DCL      5949--REDEF
IFSFA_PARAM.SIG1
      5942**DCL      5942--REDEF
IFSFA_PARAM.SIG2
      5942**DCL      5943--REDEF
IN_BUF_VECTOR.PTR$
      5918**DCL      9095>>CALLBLT  9116>>ASSIGN   9210>>ASSIGN   9326>>ASSIGN   9332>>ASSIGN   9334>>ASSIGN
IN_RES
      5515**DCL      5515--REDEF
PL6.E3A0      #001=VPH$LIST File=VPH$LISTREV.:E05TSI                             WED 07/30/97 07:39 Page:107
IN_SN.SN
      5531**DCL      5532--REDEF
J IN PROCEDURE REVIEW_CHK
      9362**DCL      9552<<DOINDEX  9553>>DOCASE   9555>>CALL     9558>>CALL
JUMP2
      9156**LABEL    9131--GOTO
LISTSTD_L
      9004**LABEL    9166--GOTO
LIST_ABORT
      9221**LABEL    8956--REMEMBR  9174--REMEMBR  9175--REMEMBR
LIST_BUF$
      5220**DCL      8688--IMP-PTR  9082>>ASSIGN   9083>>DOINDEX  9084>>IF       9108>>IF       9116>>ASSIGN
      9116>>ASSIGN   9118>>ASSIGN
LIST_CODE
      8687**DCL      9039<<ASSIGN   9041<<ASSIGN   9042>>IF       9056<>CALL     9066>>IF       9079>>IF
      9145<<ASSIGN   9540<<ASSIGN   9543<<ASSIGN   9546<<ASSIGN   9585<<ASSIGN   9589<<ASSIGN   9593<<ASSIGN
      9610<<ASSIGN
LIST_HDR_OUT
      8672**DCL      8959<<ASSIGN   9069>>IF       9074<<ASSIGN   9078<<ASSIGN
LIST_IDX
      5220**DCL      8960<<ASSIGN   9107>>ASSIGN   9108>>IF       9111<>CALL     9112<<ASSIGN   9115<<ASSIGN
      9116>>ASSIGN   9118<<ASSIGN   9118>>ASSIGN
LIST_WKSZ
      8694**DCL      9001<<ASSIGN   9008>>ASSIGN
LIST_WORK$
      8695**DCL      9000<<ASSIGN   9007>>ASSIGN
LIS_MSG
      8666**DCL      9062--ASSIGN
M$CLOSE
        33**DCL-ENT  9152--CALL     9171--CALL     9226--CALL     9230--CALL     9583--CALL
M$EI$
      5984**DCL      9150>>IF       9169>>IF       9228>>IF       9570>>IF       9579>>ASSIGN
M$EO1$
      5985**DCL      9057>>IF       9221>>IF
M$OPEN
        33**DCL-ENT  9529--CALL
PL6.E3A0      #001=VPH$LIST File=VPH$LISTREV.:E05TSI                             WED 07/30/97 07:39 Page:108
M$READ
        34**DCL-ENT  9004--CALL     9569--CALL
M$SI$
      5985**DCL      8941>>IF       8951>>IF
M$STD1$
      5987**DCL      9005>>ASSIGN   9224>>IF
M$WRITE
        34**DCL-ENT  9064--CALL     9140--CALL     9533--CALL     9574--CALL     9580--CALL
NEXT_FILE
      9150**LABEL    8957--REMEMBR
NEXT_SPEC
      9162**LABEL    9133--GOTO
NEXT_SPEC_RET_VAL
      8673**DCL      9020<>CALL     9021>>DOWHILE  9023>>IF       9162<>CALL
NO_GRANS
      9050**LABEL    9048--CALLALT
NUMRECS IN PROCEDURE REVIEW_CHK
      9516**DCL      9549<<ASSIGN   9555<>CALL     9564<<ASSIGN   9568<<DOINDEX  9568>>DOINDEX
OCB.CS.SPEC
      5241**DCL      9290>>IF
OCB.KEYS
      5259**DCL      9296>>IF
OCB.RECSIZE.MAX_SIZE
      5239**DCL      8996>>CALL
OCB.RECSIZE.MIN_SIZE
      5237**DCL      8996>>CALL
OCB.SUMMARY
      5366**DCL      9176>>IF       9176>>IF       9176>>IF
OCB.TYPE
      5277**DCL      5278--REDEF
OCB.VFC
      5256**DCL      9088<<ASSIGN   9093<<ASSIGN   9103<<ASSIGN
OFSFA_PARAM.EOMCHAR#
      5978**DCL      5979--REDEF
OFSFA_PARAM.SIG1
      5972**DCL      5972--REDEF
PL6.E3A0      #001=VPH$LIST File=VPH$LISTREV.:E05TSI                             WED 07/30/97 07:39 Page:109
OFSFA_PARAM.SIG2
      5972**DCL      5973--REDEF
OPEN_NEXT_RET_VAL
      8674**DCL      9029<>CALL     9032<>CALL     9035>>DOWHILE  9036>>IF       9042>>IF       9143>>IF
      9154<>CALL     9156<>CALL
OUT$
      8683**DCL      8982<<ASSIGN   8983<>CALL
OUT$BLK.CODE
      8597**DCL      8968>>DOCASE   9521>>DOCASE   9553>>DOCASE
OUT$BLK.NSUBLKS
      8601**DCL      8966>>DOINDEX  8981>>DOINDEX  9129>>IF       9550>>IF       9552>>DOINDEX
OUT$BLK.SUBLK$
      8622**DCL      8967>>ASSIGN   8974<>CALL     8982>>ASSIGN   9156>>CALL     9156>>CALL     9553>>DOCASE
      9555>>CALL     9555<>CALL     9558>>CALL     9558<>CALL
OUT$SYM.COUNT
      8658**DCL      8661--IMP-SIZ
OUT$SYM.TEXTC$
      8653**DCL      9156>>CALL     9156>>CALL
OUTPUT_PWIDTH
      5226**DCL      9295>>ASSIGN
OUTSPEC$
      8684**DCL      8963<<ASSIGN   8972<<ASSIGN   8990<>CALL
OUT_LIST_HDR
      9303**PROC     9073--CALL
OUT_SN.SN
      5549**DCL      5550--REDEF
PARSE_ALT IN PROCEDURE REVIEW_CHK
      9608**LABEL    9520--CALLALT
PCB
      4577**DCL      9009<>CALL     9520<>CALL
PCB.ERROR
      4681**DCL      9241<>CALL     9608<>CALL
PCB.NCHARS
      4724**DCL      9005<<ASSIGN
PCB.OUT$
      4590**DCL      8966>>DOINDEX  8967>>ASSIGN   9010>>ASSIGN   9129>>IF       9156>>CALL     9156>>CALL
PL6.E3A0      #001=VPH$LIST File=VPH$LISTREV.:E05TSI                             WED 07/30/97 07:39 Page:110
      9521>>DOCASE   9550>>IF       9552>>DOINDEX  9553>>DOCASE   9555>>CALL     9558>>CALL
PCB.ROOT$
      4582**DCL      9006<<ASSIGN   9018<<ASSIGN
PCB.U$$
      4595**DCL      9002<<ASSIGN   9015<<ASSIGN
PCB.WKSZ
      4607**DCL      9001>>ASSIGN   9008<<ASSIGN   9017<<ASSIGN   9017>>ASSIGN
PCB.WK_USED
      4710**DCL      9016>>ASSIGN   9017>>ASSIGN
PCB.WORK$
      4586**DCL      9000>>ASSIGN   9007<<ASSIGN   9016<<ASSIGN   9016>>ASSIGN
PTR$
      8682**DCL      8967<<ASSIGN   8968>>DOCASE   8970>>ASSIGN   8972>>ASSIGN   8974>>CALL     8976<>CALL
      8981>>DOINDEX  8982>>ASSIGN   9047<<ASSIGN   9048<>CALL     9049>>ASSIGN   9049>>ASSIGN   9051>>ASSIGN
      9082<<ASSIGN   9095>>CALLBLT  9095>>CALLBLT  9098>>ASSIGN   9100<<ASSIGN   9100>>ASSIGN   9100>>ASSIGN
      9202<<ASSIGN   9203>>ASSIGN   9204>>CALLBLT  9205>>CALL     9206>>CALLBLT  9207>>CALL
RELIST
      9054**LABEL    9146--GOTO
RET_VAL IN PROCEDURE REVIEW_CHK
      9360**DCL      9339--PROC     9518<<ASSIGN   9535<<ASSIGN   9537<<ASSIGN   9539<<ASSIGN   9542<<ASSIGN
      9545<<ASSIGN   9584<<ASSIGN   9588<<ASSIGN   9592<<ASSIGN   9609<<ASSIGN
REVIEW_CHK
      9339**PROC     9124--CALL
REV_BRK
      9138**LABEL    9122--REMEMBR
REV_BUF IN PROCEDURE REVIEW_CHK
      9515**DCL      9386--DCLINIT  9387--DCLINIT  9565--ASSIGN   9575--ASSIGN
REV_RET_VAL
      8696**DCL      9124<>CALL     9127>>DOCASE
SINGLE_INSPEC
      5229**DCL      9321>>IF
SKIPIT_1
      9224**LABEL    9226--CALLALT
SKIPIT_2
      9228**LABEL    9230--CALLALT
SOURCELIST$
PL6.E3A0      #001=VPH$LIST File=VPH$LISTREV.:E05TSI                             WED 07/30/97 07:39 Page:111
      8685**DCL      8964<<ASSIGN   8970<<ASSIGN   9010<<ASSIGN   9020<>CALL
SPEC_BUF
      5227**DCL      5227--REDEF
SPEC_BUF.LEN
      5227**DCL      9327>>ASSIGN
SPEC_BUF.STRING
      5227**DCL      9326>>ASSIGN
START
      8956**LABEL    8934--GOTO     8944--GOTO     8954--GOTO
STD_PARSE_ALT
      9241**LABEL    9009--CALLALT
STD_READ_ALT
      9235**LABEL    9004--CALLALT
SUMMARY
      9174**LABEL    9125--REMEMBR  9135--GOTO     9141--GOTO
SUM_IDX
      8697**DCL      9188<<ASSIGN   9196<<ASSIGN   9202>>ASSIGN   9208<<ASSIGN   9208>>ASSIGN   9211<>CALL
SUM_LINE.FILES
      8701**DCL      9184<<CALLBLT  9185--CALL
SUM_LINE.GRANS.GRANS
      8705**DCL      9190<<CALLBLT  9191--CALL
SUM_LINE.GRANS.RECS
      8707**DCL      9192<<CALLBLT  9193--CALL
SUM_LINE.REST
      8702**DCL      8703--REDEF    9189<<ASSIGN   9197<<ASSIGN
SUM_LINE_TEXT
      8698**DCL      8699--REDEF    9183<<ASSIGN   9202--ASSIGN   9210>>ASSIGN
TAPE_HDR IN PROCEDURE OUT_LIST_HDR
      9317**DCL      9332>>ASSIGN
TEMP
      8716**DCL      9098<<ASSIGN   9099<>CALL     9107<<ASSIGN   9108>>IF       9115>>ASSIGN
TEMP IN PROCEDURE OUT_LIST_HDR
      9319**DCL      9327<<ASSIGN   9328<>CALL
TEXT$C
      8667**DCL      9156<>CALL
TEXT$C.LEN
PL6.E3A0      #001=VPH$LIST File=VPH$LISTREV.:E05TSI                             WED 07/30/97 07:39 Page:112
      8668**DCL      8669--IMP-SIZ  9095>>CALLBLT  9095>>CALLBLT  9098>>ASSIGN   9100>>ASSIGN   9116>>ASSIGN
      9156>>CALL
TEXT$C.STRING
      8669**DCL      9095>>CALLBLT  9095>>CALLBLT  9116>>ASSIGN
THIS_STD_FILE
      5221**DCL      9153<<ASSIGN
TOP_REVIEW_CMD
      5989**DCL      9018--ASSIGN
TOP_STD_N
      5989**DCL      9006--ASSIGN
TOT_FILES
      5226**DCL      9054<<ASSIGN   9054>>ASSIGN   9057>>IF       9176>>IF       9176>>IF       9184>>CALLBLT
      9199>>IF       9204>>CALLBLT  9213>>IF
TOT_GRANS
      5226**DCL      9050<<ASSIGN   9050>>ASSIGN   9186>>IF       9190>>CALLBLT  9206>>CALLBLT
TOT_RECS
      5227**DCL      9051<<ASSIGN   9051>>ASSIGN   9192>>CALLBLT
TSEED IN PROCEDURE REVIEW_CHK
      9361**DCL      9548<<ASSIGN   9558<>CALL     9567>>ASSIGN
USABLE_LEN
      5229**DCL      9108>>IF       9292<<ASSIGN   9295<<ASSIGN   9298<<ASSIGN   9298>>ASSIGN
VPC$SETOUT
      8735**DCL-ENT  8990--CALL
VPD$CLOBBERLZ
      8753**DCL-ENT  9185--CALL     9191--CALL     9193--CALL     9205--CALL     9207--CALL
VPD$CLOSE_OUT
      8750**DCL-ENT  9223--CALL
VPD$COUNTER_BUMP
      8756**DCL-ENT  9530--CALL
VPD$ENLARGE_BUF
      8760**DCL-ENT  8996--CALL
VPD$FINISH_NLIST
      8768**DCL-ENT  9072--CALL     9172--CALL
VPD$GET_INPUT
      8776**DCL-ENT  9519--CALL
VPD$GET_SPEC_BUF
PL6.E3A0      #001=VPH$LIST File=VPH$LISTREV.:E05TSI                             WED 07/30/97 07:39 Page:113
      8788**DCL-ENT  9325--CALL
VPD$INIT_STD_FILE
      8794**DCL-ENT  8976--CALL
VPD$MINIMIZE_BUF
      8762**DCL-ENT  9232--CALL
VPD$MNG_CRPT
      8918**DCL-ENT  9558--CALL
VPD$TEXTC_CHARBIN
      8807**DCL-ENT  9555--CALL
VPF$GET_NEXT_SPEC
      8836**DCL-ENT  9020--CALL     9162--CALL
VPF$OPEN_NEXT
      8839**DCL-ENT  9029--CALL     9032--CALL     9154--CALL     9156--CALL
VPF$PROCESS_INPUT_OPT
      8842**DCL-ENT  8983--CALL
VPF$SET_FROM_INFO
      8845**DCL-ENT  8974--CALL
VPG$SET_UP_WRITE
      8848**DCL-ENT  8991--CALL
VPG$WRITE_OUT
      8851**DCL-ENT  9099--CALL     9111--CALL     9211--CALL     9328--CALL     9335--CALL
VPH$GET_LIST_BUFS
      8854**DCL-ENT  9056--CALL
VPL$ERR_PROC
      8907**DCL-ENT  9216--CALL     9239--CALL     9241--CALL     9242--CALL     9605--CALL     9608--CALL
      9612--CALL
VPL$HELP
      8912**DCL-ENT  9587--CALL
VPL$QUEST
      8909**DCL-ENT  9591--CALL
WRITE_IT IN PROCEDURE REVIEW_CHK
      9570**LABEL    9602--GOTO
X$PARSE
      8724**DCL-ENT  9009--CALL     9520--CALL
XSF$LOCCODP
      8723**DCL-ENT  9048--CALL

