PL6.E3A0      #004=VPJ$WEOF File=VPJ$TAPE.:E05TSI                                WED 07/30/97 07:53 Page:169
      838        1        /*T***********************************************************/
      839        2        /*T*                                                         */
      840        3        /*T* Copyright (c) Bull HN Information Systems Inc., 1997    */
      841        4        /*T*                                                         */
      842        5        /*T***********************************************************/
      843        6        VPJ$WEOF: PROC;
      844        7        /*D* NAME: VPJ$WEOF
      845        8             CALL: CALL VPJ$WEOF;
      846        9             DESCRIPTION: VPJ$WEOF accepts a fid and if that fid specifies a device,
      847       10                          issues an M$WEOF to that device. If it is not a device,
      848       11                          an error is returned.
      849       12        */
      850       13        /**/
      851       14        /*  INCLUDE FILES  */
      852       15        /**/
      853       16        %INCLUDE VP_DATA_R;
      854     7003        /**/
      855     7004        /*  BASED DATA  */
      856     7005        /**/
      857     7006        %PARSE$OUT(STCLASS = BASED);
      858     7051        %PARSE$SYM(STCLASS = BASED);
      859     7089        /**/
      860     7090        /*  CONSTANTS  */
      861     7091        /**/
      862     7092        %FPT_WEOF(FPTN = FPT_WEOF_LOCAL,DCB = M$EO1,STCLASS = CONSTANT);
      863     7106        %FPT_CLOSE(FPTN = FPT_CLOSE,DCB = M$EO1,STCLASS = CONSTANT);
      864     7148        /**/
      865     7149        /*  ENTRY DCLS  */
      866     7150        /**/
      867     7151        %VP_ENTRIES (OMIT=VPJ$WEOF);
      868     7359        /**/
      869     7360        /*  AUTO DATA  */
      870     7361        /**/
      871     7362    1   DCL TAPE_INVOLVED BIT(1);
      872     7363    1   DCL VOL SBIN WORD;
      873     7364        /**/
      874     7365    1           FPT_FID_IN.TEXTFID_   = VECTOR(PCB.OUT$->OUT$BLK.SUBLK$(0)->
PL6.E3A0      #004=VPJ$WEOF File=VPJ$TAPE.:E05TSI                                WED 07/30/97 07:53 Page:170
      875     7366    1             OUT$SYM.TEXT);
      876     7367    1           CALL VPD$FID(FPT_FID_IN);
      877     7368    1           IF IN_ASN~=%DEVICE#
      878     7369    1            THEN
      879     7370    1              CALL VPL$ERR_PROC(3,110,'12'O);
      880     7371        /*E* ERROR:   VPJ-00110
      881     7372             MESSAGE: WEOF allowed to devices only
      882     7373        */
      883     7374    1           FPT_OPEN_OUT = FPT_OPEN_OUT_SAVE;
      884     7375    1           FPT_OPEN_OUT.V.DCB# = DCBNUM(M$EO1);
      885     7376    1           FPT_OPEN_OUT.V.ASN# = %DEVICE#;
      886     7377    1           FPT_OPEN_OUT.V.ORG# = %FREE#;
      887     7378    1           FPT_OPEN_OUT.V.RES# = IN_RES;
      888     7379    1           IF SUBSTR(IN_RES,0,2) = 'MT'
      889     7380    1             OR SUBSTR(IN_RES,0,2) = 'FT'
      890     7381    1            THEN
      891     7382    1              TAPE_INVOLVED = '1'B;
      892     7383    1            ELSE
      893     7384    1              TAPE_INVOLVED = '0'B;
      894     7385    1           IF TAPE_INVOLVED
      895     7386    1            THEN
      896     7387    2            DO;
      897     7388    2               CALL VPD$CHECK_VOL(IN_SN,3,,VOL,0); /* What's hanging             */
      898     7389    2               FPT_OPEN_OUT.V.VOL# = VOL;
      899     7390    2               END;
      900     7391    1           IF RESULTS_FID_IN.SN
      901     7392    1            THEN
      902     7393    1              FPT_OPEN_OUT.SN_ = VECTOR(IN_SN);
      903     7394    1           IF RESULTS_FID_IN.WSN
      904     7395    1            THEN
      905     7396    1              FPT_OPEN_OUT.WSN_ = VECTOR(IN_WSN);
      906     7397    1           FPT_OPEN_OUT.V.INITZ.SCRUB# = %YES#;
      907     7398    1           FPT_OPEN_OUT.V.FUN# = %UPDATE#;
      908     7399    1           FPT_OPEN_OUT.V.FUN# = %UPDATE#;
      909     7400    1           IF TAPE_INVOLVED
      910     7401    1            THEN
      911     7402    1              FPT_OPEN_OUT.V.FUN# = %CREATE#;
PL6.E3A0      #004=VPJ$WEOF File=VPJ$TAPE.:E05TSI                                WED 07/30/97 07:53 Page:171
      912     7403    1           CALL M$OPEN(FPT_OPEN_OUT) ALTRET(MON_ERR);
      913     7404    1           CALL M$WEOF(FPT_WEOF_LOCAL) ALTRET(WEOF_ALT);
      914     7405    2           DO WHILE('0'B);
      915     7406    2   WEOF_ALT:  CALL M$CLOSE(FPT_CLOSE) ALTRET(MON_ERR);
      916     7407    2              GOTO MON_ERR;
      917     7408    2   DUMMY:     END;
      918     7409    1           IF TAPE_INVOLVED
      919     7410    1            THEN
      920     7411    1              CALL VPD$CHECK_VOL(IN_SN,0,M$EO1#,,0); /* Check for VOL transition */
      921     7412    1           CALL M$CLOSE(FPT_CLOSE) ALTRET(MON_ERR);
      922     7413    1           RETURN;
      923     7414        /**/
      924     7415    1   MON_ERR: ;
      925     7416    1           CALL VPL$ERR_PROC(3,0,,,,,,0);
      926     7417    1           IF TAPE_INVOLVED
      927     7418    1            THEN
      928     7419    1              CALL VPD$CHECK_VOL(IN_SN,0,M$EO1#,,0); /* Check for VOL transition */
      929     7420    1           CALL VPL$ERR_SEV_HANDLER(3);
      930     7421    1   END VPJ$WEOF;

PL6.E3A0      #004=VPJ$WEOF File=VPJ$TAPE.:E05TSI                                WED 07/30/97 07:53 Page:172
--  Include file information  --

   B_MICROPS_C.:E05TOU  is referenced.
   XU_MACRO_C.:E05TOU  is referenced.
   VP_MACRO_C.:E05TOU  is referenced.
   XS_MACRO_C.:E05TOU  is referenced.
   VP_PERR_C.:E05TOU  is referenced.
   CP_6_SUBS.:E05TOU  is referenced.
   CP_6.:E05TOU  cannot be made into a system file and is referenced.
   VP_DATA_R.:E05TOU  cannot be made into a system file and is referenced.
   B$JIT_C.:E05TOU  was found in the system file and is never referenced.
   CP_6_C.:E05TOU  was found in the system file and is referenced.
      No diagnostics issued in procedure VPJ$WEOF.

   Procedure VPJ$WEOF requires 146 words for executable code.
   Procedure VPJ$WEOF requires 14 words of local(AUTO) storage.

    No errors detected in file VPJ$TAPE.:E05TSI    .

PL6.E3A0      #004=VPJ$WEOF File=VPJ$TAPE.:E05TSI                                WED 07/30/97 07:53 Page:173

 Object Unit name= VPJ$WEOF                                   File name= VPJ$TAPE.:E05TOU
 UTS= JUL 30 '97 07:53:47.80 WED                              Compiler= PL-6/E31         Sev=      00
 SharedLib= :SHARED_SYSTEM                                    Alt SharedLib=


    ****  Control sections  ****

 Sect   Type Bound  Init  Size OctSiz  Section name(segment info)
    0   DCB   even  none     0      0  M$UC
    1   DCB   even  none     0      0  M$EI
    2   DCB   even  none     0      0  M$EO
    3   DCB   even  none     0      0  M$EO1
    4   DCB   even  none     0      0  M$ME
    5   DCB   even  none     0      0  M$SI
    6   DCB   even  none     0      0  M$READFILE
    7   DCB   even  none     0      0  M$DO
    8   DCB   even  none     0      0  M$STD1
    9   DCB   even  none     0      0  M$SORT1
   10  RoData even  UTS     36     44  VPJ$WEOF
   11   Proc  even  none   146    222  VPJ$WEOF
   12  RoData even  none    20     24  VPJ$WEOF

    ****  Entry defs  ****

                              Check   Calling
                             calling  sequence
  Sect OctLoc Primary Altret sequence   type   Parms  Name
    11      0   yes            yes      Std        0  VPJ$WEOF
PL6.E3A0      #004=VPJ$WEOF File=VPJ$TAPE.:E05TSI                                WED 07/30/97 07:53 Page:174

  ****  Entry refs  ****

         Check        Calling
        calling       sequence
Altret sequence SRef   type   Args  Name
 yes     yes           Std       2 VPD$FID
         yes           Std       8 VPL$ERR_PROC
         yes           Std       5 VPD$CHECK_VOL
         yes           Std       8 VPL$ERR_SEV_HANDLER
                       nStd      0 X66_AUTO_0
                       Std       0 B_CONSPOOL_D
                       nStd      0 X66_ARET

  ****  Data refs  ****

  Flags:  r = read only, s = secondary
Flgs Name                             Flgs Name                             Flgs Name
     M$UC                                  PCB                                   BREAK_LOC
     BREAK_MESSAGE_REPORTER                SPEC_BUF                              IN_RES
     IN_SN                                 IN_WSN                                IN_ASN
     M$EI                                  M$EO                                  M$EO1
     M$EO1#                                M$ME                                  M$SI
     M$READFILE                            M$DO                                  M$STD1
     M$SORT1                               FPT_FID_IN                            RESULTS_FID_IN
     FPT_OPEN_OUT_SAVE                     FPT_OPEN_OUT                          B_VECTNIL

  ****  Segment refs  ****

  Flags:  r = read only, s = secondary
Flgs Name                             Flgs Name                             Flgs Name
     ISSID                                 NULLSID
PL6.E3A0      #004=VPJ$WEOF File=VPJ$TAPE.:E05TSI                                WED 07/30/97 07:53 Page:175


      838        1        /*T***********************************************************/
      839        2        /*T*                                                         */
      840        3        /*T* Copyright (c) Bull HN Information Systems Inc., 1997    */
      841        4        /*T*                                                         */
      842        5        /*T***********************************************************/
      843        6        VPJ$WEOF: PROC;

      6 11 000000   000000 700200 xent  VPJ$WEOF     TSX0  ! X66_AUTO_0
        11 000001   000016 000000                    ZERO    14,0

      844        7        /*D* NAME: VPJ$WEOF
      845        8             CALL: CALL VPJ$WEOF;
      846        9             DESCRIPTION: VPJ$WEOF accepts a fid and if that fid specifies a device,
      847       10                          issues an M$WEOF to that device. If it is not a device,
      848       11                          an error is returned.
      849       12        */
      850       13        /**/
      851       14        /*  INCLUDE FILES  */
      852       15        /**/
      853       16        %INCLUDE VP_DATA_R;
      854     7003        /**/
      855     7004        /*  BASED DATA  */
      856     7005        /**/
      857     7006        %PARSE$OUT(STCLASS = BASED);
      858     7051        %PARSE$SYM(STCLASS = BASED);
      859     7089        /**/
      860     7090        /*  CONSTANTS  */
      861     7091        /**/
      862     7092        %FPT_WEOF(FPTN = FPT_WEOF_LOCAL,DCB = M$EO1,STCLASS = CONSTANT);
      863     7106        %FPT_CLOSE(FPTN = FPT_CLOSE,DCB = M$EO1,STCLASS = CONSTANT);
      864     7148        /**/
      865     7149        /*  ENTRY DCLS  */
      866     7150        /**/
      867     7151        %VP_ENTRIES (OMIT=VPJ$WEOF);
      868     7359        /**/
      869     7360        /*  AUTO DATA  */
PL6.E3A0      #004=VPJ$WEOF File=VPJ$TAPE.:E05TSI                                WED 07/30/97 07:53 Page:176
      870     7361        /**/
      871     7362    1   DCL TAPE_INVOLVED BIT(1);
      872     7363    1   DCL VOL SBIN WORD;
      873     7364        /**/
      874     7365    1           FPT_FID_IN.TEXTFID_   = VECTOR(PCB.OUT$->OUT$BLK.SUBLK$(0)->

   7365 11 000002   000003 470400 xsym               LDP0    PCB+3
        11 000003   000003 471500                    LDP1    3,,PR0
        11 000004   100004 236100                    LDQ     4,,PR1
        11 000005   000033 772000                    QRL     27
        11 000006   000064 737000                    LLS     52
        11 000007   000140 135007                    SBLA    96,DL
        11 000010   200006 451500                    STP1    VOL+2,,AUTO
        11 000011   200006 236100                    LDQ     VOL+2,,AUTO
        11 000012   000000 036000 12                 ADLQ    0
        11 000013   000002 757000 xsym               STAQ    FPT_FID_IN+2

      875     7366    1             OUT$SYM.TEXT);
      876     7367    1           CALL VPD$FID(FPT_FID_IN);

   7367 11 000014   000001 630400 12                 EPPR0   1
        11 000015   000017 631400 xsym               EPPR1   B_VECTNIL+15
        11 000016   000000 701000 xent               TSX1    VPD$FID
        11 000017   000000 011000                    NOP     0

      877     7368    1           IF IN_ASN~=%DEVICE#

   7368 11 000020   000000 236000 xsym               LDQ     IN_ASN
        11 000021   777000 376003                    ANQ     -512,DU
        11 000022   003000 116003                    CMPQ    1536,DU
        11 000023   000030 600000 11                 TZE     s:7374

      878     7369    1            THEN
      879     7370    1              CALL VPL$ERR_PROC(3,110,'12'O);

   7370 11 000024   000004 630400 12                 EPPR0   4
        11 000025   000021 631400 xsym               EPPR1   B_VECTNIL+17
PL6.E3A0      #004=VPJ$WEOF File=VPJ$TAPE.:E05TSI                                WED 07/30/97 07:53 Page:177
        11 000026   000000 701000 xent               TSX1    VPL$ERR_PROC
        11 000027   000000 011000                    NOP     0

      880     7371        /*E* ERROR:   VPJ-00110
      881     7372             MESSAGE: WEOF allowed to devices only
      882     7373        */
      883     7374    1           FPT_OPEN_OUT = FPT_OPEN_OUT_SAVE;

   7374 11 000030   000000 100400                    MLR     fill='000'O
        11 000031   000000 000350 xsym               ADSC9   FPT_OPEN_OUT_SAVE        cn=0,n=232
        11 000032   000000 000350 xsym               ADSC9   FPT_OPEN_OUT             cn=0,n=232

      884     7375    1           FPT_OPEN_OUT.V.DCB# = DCBNUM(M$EO1);

   7375 11 000033   000000 236007 xsym               LDQ     M$EO1,DL
        11 000034   000000 620006                    EAX0    0,QL
        11 000035   000044 740000 xsym               STX0    FPT_OPEN_OUT+36

      885     7376    1           FPT_OPEN_OUT.V.ASN# = %DEVICE#;

   7376 11 000036   000003 236007                    LDQ     3,DL
        11 000037   000045 552004 xsym               STBQ    FPT_OPEN_OUT+37,'04'O

      886     7377    1           FPT_OPEN_OUT.V.ORG# = %FREE#;

   7377 11 000040   023000 236007                    LDQ     9728,DL
        11 000041   000046 552010 xsym               STBQ    FPT_OPEN_OUT+38,'10'O

      887     7378    1           FPT_OPEN_OUT.V.RES# = IN_RES;

   7378 11 000042   000000 236000 xsym               LDQ     IN_RES
        11 000043   000050 756000 xsym               STQ     FPT_OPEN_OUT+40

      888     7379    1           IF SUBSTR(IN_RES,0,2) = 'MT'

   7379 11 000044   000000 221000 xsym               LDX1    IN_RES
        11 000045   000042 101000 10                 CMPX1   FPT_CLOSE+30
PL6.E3A0      #004=VPJ$WEOF File=VPJ$TAPE.:E05TSI                                WED 07/30/97 07:53 Page:178
        11 000046   000051 600000 11                 TZE     s:7382
        11 000047   000043 101000 10                 CMPX1   FPT_CLOSE+31
        11 000050   000054 601000 11                 TNZ     s:7384

      889     7380    1             OR SUBSTR(IN_RES,0,2) = 'FT'
      890     7381    1            THEN
      891     7382    1              TAPE_INVOLVED = '1'B;

   7382 11 000051   400000 236003                    LDQ     -131072,DU
        11 000052   200003 756100                    STQ     TAPE_INVOLVED,,AUTO
        11 000053   000055 710000 11                 TRA     s:7385

      892     7383    1            ELSE
      893     7384    1              TAPE_INVOLVED = '0'B;

   7384 11 000054   200003 450100                    STZ     TAPE_INVOLVED,,AUTO

      894     7385    1           IF TAPE_INVOLVED

   7385 11 000055   200003 234100                    SZN     TAPE_INVOLVED,,AUTO
        11 000056   000076 605000 11                 TPL     s:7391

      895     7386    1            THEN
      896     7387    2            DO;

      897     7388    2               CALL VPD$CHECK_VOL(IN_SN,3,,VOL,0); /* What's hanging             */

   7388 11 000057   000007 236000 12                 LDQ     7
        11 000060   200012 756100                    STQ     VOL+6,,AUTO
        11 000061   200004 630500                    EPPR0   VOL,,AUTO
        11 000062   200011 450500                    STP0    VOL+5,,AUTO
        11 000063   000001 236000 xsym               LDQ     B_VECTNIL+1
        11 000064   200010 756100                    STQ     VOL+4,,AUTO
        11 000065   000010 237000 12                 LDAQ    8
        11 000066   200006 757100                    STAQ    VOL+2,,AUTO
        11 000067   200006 630500                    EPPR0   VOL+2,,AUTO
        11 000070   000023 631400 xsym               EPPR1   B_VECTNIL+19
PL6.E3A0      #004=VPJ$WEOF File=VPJ$TAPE.:E05TSI                                WED 07/30/97 07:53 Page:179
        11 000071   000000 701000 xent               TSX1    VPD$CHECK_VOL
        11 000072   000000 011000                    NOP     0

      898     7389    2               FPT_OPEN_OUT.V.VOL# = VOL;

   7389 11 000073   200004 236100                    LDQ     VOL,,AUTO
        11 000074   000033 736000                    QLS     27
        11 000075   000061 552040 xsym               STBQ    FPT_OPEN_OUT+49,'40'O

      899     7390    2               END;

      900     7391    1           IF RESULTS_FID_IN.SN

   7391 11 000076   000000 236000 xsym               LDQ     RESULTS_FID_IN
        11 000077   040000 316003                    CANQ    16384,DU
        11 000100   000103 600000 11                 TZE     s:7394

      901     7392    1            THEN
      902     7393    1              FPT_OPEN_OUT.SN_ = VECTOR(IN_SN);

   7393 11 000101   000012 237000 12                 LDAQ    10
        11 000102   000002 757000 xsym               STAQ    FPT_OPEN_OUT+2

      903     7394    1           IF RESULTS_FID_IN.WSN

   7394 11 000103   000000 236000 xsym               LDQ     RESULTS_FID_IN
        11 000104   020000 316003                    CANQ    8192,DU
        11 000105   000110 600000 11                 TZE     s:7397

      904     7395    1            THEN
      905     7396    1              FPT_OPEN_OUT.WSN_ = VECTOR(IN_WSN);

   7396 11 000106   000014 237000 12                 LDAQ    12
        11 000107   000032 757000 xsym               STAQ    FPT_OPEN_OUT+26

      906     7397    1           FPT_OPEN_OUT.V.INITZ.SCRUB# = %YES#;

PL6.E3A0      #004=VPJ$WEOF File=VPJ$TAPE.:E05TSI                                WED 07/30/97 07:53 Page:180
   7397 11 000110   400000 236007                    LDQ     -131072,DL
        11 000111   000044 256000 xsym               ORSQ    FPT_OPEN_OUT+36

      907     7398    1           FPT_OPEN_OUT.V.FUN# = %UPDATE#;

   7398 11 000112   001000 236007                    LDQ     512,DL
        11 000113   000045 552010 xsym               STBQ    FPT_OPEN_OUT+37,'10'O

      908     7399    1           FPT_OPEN_OUT.V.FUN# = %UPDATE#;

   7399 11 000114   000045 552010 xsym               STBQ    FPT_OPEN_OUT+37,'10'O

      909     7400    1           IF TAPE_INVOLVED

   7400 11 000115   200003 234100                    SZN     TAPE_INVOLVED,,AUTO
        11 000116   000121 605000 11                 TPL     s:7403

      910     7401    1            THEN
      911     7402    1              FPT_OPEN_OUT.V.FUN# = %CREATE#;

   7402 11 000117   003000 236007                    LDQ     1536,DL
        11 000120   000045 552010 xsym               STBQ    FPT_OPEN_OUT+37,'10'O

      912     7403    1           CALL M$OPEN(FPT_OPEN_OUT) ALTRET(MON_ERR);

   7403 11 000121   000000 630400 xsym               EPPR0   FPT_OPEN_OUT
        11 000122   450000 713400                    CLIMB   alt,open
        11 000123   410400 401760                    pmme    nvectors=18
        11 000124   000161 702000 11                 TSX2    MON_ERR

      913     7404    1           CALL M$WEOF(FPT_WEOF_LOCAL) ALTRET(WEOF_ALT);

   7404 11 000125   000000 630400 10                 EPPR0   FPT_WEOF_LOCAL
        11 000126   440007 713400                    CLIMB   alt,+16391
        11 000127   400000 401760                    pmme    nvectors=1
        11 000130   000132 702000 11                 TSX2    WEOF_ALT

PL6.E3A0      #004=VPJ$WEOF File=VPJ$TAPE.:E05TSI                                WED 07/30/97 07:53 Page:181
      914     7405    2           DO WHILE('0'B);

   7405 11 000131   000137 710000 11                 TRA     DUMMY

      915     7406    2   WEOF_ALT:  CALL M$CLOSE(FPT_CLOSE) ALTRET(MON_ERR);

   7406 11 000132   000004 630400 10    WEOF_ALT     EPPR0   FPT_CLOSE
        11 000133   450001 713400                    CLIMB   alt,close
        11 000134   406000 401760                    pmme    nvectors=13
        11 000135   000161 702000 11                 TSX2    MON_ERR

      916     7407    2              GOTO MON_ERR;

   7407 11 000136   000161 710000 11                 TRA     MON_ERR

      917     7408    2   DUMMY:     END;

   7408 11 000137                       DUMMY        null
      918     7409    1           IF TAPE_INVOLVED

   7409 11 000137   200003 234100                    SZN     TAPE_INVOLVED,,AUTO
        11 000140   000154 605000 11                 TPL     s:7412

      919     7410    1            THEN
      920     7411    1              CALL VPD$CHECK_VOL(IN_SN,0,M$EO1#,,0); /* Check for VOL transition */

   7411 11 000141   000007 236000 12                 LDQ     7
        11 000142   200012 756100                    STQ     VOL+6,,AUTO
        11 000143   000001 236000 xsym               LDQ     B_VECTNIL+1
        11 000144   000016 235000 12                 LDA     14
        11 000145   200010 757100                    STAQ    VOL+4,,AUTO
        11 000146   000020 237000 12                 LDAQ    16
        11 000147   200006 757100                    STAQ    VOL+2,,AUTO
        11 000150   200006 630500                    EPPR0   VOL+2,,AUTO
        11 000151   000023 631400 xsym               EPPR1   B_VECTNIL+19
        11 000152   000000 701000 xent               TSX1    VPD$CHECK_VOL
        11 000153   000000 011000                    NOP     0
PL6.E3A0      #004=VPJ$WEOF File=VPJ$TAPE.:E05TSI                                WED 07/30/97 07:53 Page:182

      921     7412    1           CALL M$CLOSE(FPT_CLOSE) ALTRET(MON_ERR);

   7412 11 000154   000004 630400 10                 EPPR0   FPT_CLOSE
        11 000155   450001 713400                    CLIMB   alt,close
        11 000156   406000 401760                    pmme    nvectors=13
        11 000157   000161 702000 11                 TSX2    MON_ERR

      922     7413    1           RETURN;

   7413 11 000160   000000 702200 xent               TSX2  ! X66_ARET

   7409 11 000161                       MON_ERR      null
      923     7414        /**/
      924     7415    1   MON_ERR: ;
      925     7416    1           CALL VPL$ERR_PROC(3,0,,,,,,0);

   7416 11 000161   000007 236000 12                 LDQ     7
        11 000162   000001 235000 xsym               LDA     B_VECTNIL+1
        11 000163   200014 757100                    STAQ    VOL+8,,AUTO
        11 000164   000001 236000 xsym               LDQ     B_VECTNIL+1
        11 000165   000001 235000 xsym               LDA     B_VECTNIL+1
        11 000166   200012 757100                    STAQ    VOL+6,,AUTO
        11 000167   000001 236000 xsym               LDQ     B_VECTNIL+1
        11 000170   000001 235000 xsym               LDA     B_VECTNIL+1
        11 000171   200010 757100                    STAQ    VOL+4,,AUTO
        11 000172   000022 237000 12                 LDAQ    18
        11 000173   200006 757100                    STAQ    VOL+2,,AUTO
        11 000174   200006 630500                    EPPR0   VOL+2,,AUTO
        11 000175   000026 631400 xsym               EPPR1   B_VECTNIL+22
        11 000176   000000 701000 xent               TSX1    VPL$ERR_PROC
        11 000177   000000 011000                    NOP     0

      926     7417    1           IF TAPE_INVOLVED

   7417 11 000200   200003 234100                    SZN     TAPE_INVOLVED,,AUTO
        11 000201   000215 605000 11                 TPL     s:7420
PL6.E3A0      #004=VPJ$WEOF File=VPJ$TAPE.:E05TSI                                WED 07/30/97 07:53 Page:183

      927     7418    1            THEN
      928     7419    1              CALL VPD$CHECK_VOL(IN_SN,0,M$EO1#,,0); /* Check for VOL transition */

   7419 11 000202   000007 236000 12                 LDQ     7
        11 000203   200012 756100                    STQ     VOL+6,,AUTO
        11 000204   000001 236000 xsym               LDQ     B_VECTNIL+1
        11 000205   000016 235000 12                 LDA     14
        11 000206   200010 757100                    STAQ    VOL+4,,AUTO
        11 000207   000020 237000 12                 LDAQ    16
        11 000210   200006 757100                    STAQ    VOL+2,,AUTO
        11 000211   200006 630500                    EPPR0   VOL+2,,AUTO
        11 000212   000023 631400 xsym               EPPR1   B_VECTNIL+19
        11 000213   000000 701000 xent               TSX1    VPD$CHECK_VOL
        11 000214   000000 011000                    NOP     0

      929     7420    1           CALL VPL$ERR_SEV_HANDLER(3);

   7420 11 000215   000004 630400 12                 EPPR0   4
        11 000216   000017 631400 xsym               EPPR1   B_VECTNIL+15
        11 000217   000000 701000 xent               TSX1    VPL$ERR_SEV_HANDLER
        11 000220   000000 011000                    NOP     0

      930     7421    1   END VPJ$WEOF;

   7421 11 000221   000000 702200 xent               TSX2  ! X66_ARET

PL6.E3A0      #004=VPJ$WEOF File=VPJ$TAPE.:E05TSI                                WED 07/30/97 07:53 Page:184
--  Include file information  --

   B_MICROPS_C.:E05TOU  is referenced.
   XU_MACRO_C.:E05TOU  is referenced.
   VP_MACRO_C.:E05TOU  is referenced.
   XS_MACRO_C.:E05TOU  is referenced.
   VP_PERR_C.:E05TOU  is referenced.
   CP_6_SUBS.:E05TOU  is referenced.
   CP_6.:E05TOU  cannot be made into a system file and is referenced.
   VP_DATA_R.:E05TOU  cannot be made into a system file and is referenced.
   B$JIT_C.:E05TOU  was found in the system file and is never referenced.
   CP_6_C.:E05TOU  was found in the system file and is referenced.
      No diagnostics issued in procedure VPJ$WEOF.
PL6.E3A0      #004=VPJ$WEOF File=VPJ$TAPE.:E05TSI                                WED 07/30/97 07:53 Page:185

 **** Variables and constants ****

  ****  Section 010 RoData VPJ$WEOF

  ****  Scalars and arrays  ****
OctLoc.c.b A Datatyp(siz) R M Lvl/name                 OctLoc.c.b A Datatyp(siz) R M Lvl/name

     4-0-0/d STRC(1080)  r     1 FPT_CLOSE                  0-0-0/d STRC(144)   r     1 FPT_WEOF_LOCAL

  ****  Auto variables  ****

  ****  Scalars and arrays  ****
OctLoc.c.b A Datatyp(siz) R M Lvl/name                 OctLoc.c.b A Datatyp(siz) R M Lvl/name

     3-0-0/b BIT         r     1 TAPE_INVOLVED              4-0-0/w SBIN        r     1 VOL

  ****  SYMREF variables  ****

  ****  Scalars and arrays  ****
OctLoc.c.b A Datatyp(siz) R M Lvl/name                 OctLoc.c.b A Datatyp(siz) R M Lvl/name

     0-0-0/w EPTR        r     1 BREAK_MESSAGE_REPORTER
     0-0-0/d STRC(864)   r     1 FPT_FID_IN                 0-0-0/d STRC(2088)  r     1 FPT_OPEN_OUT
     0-0-0/d STRC(2088)  r     1 FPT_OPEN_OUT_SAVE          0-0-0/b UBIN(9)     r     1 IN_ASN
     0-0-0/c CHAR(4)     r     1 IN_RES                     0-0-0/w STRC(1116)  r     1 IN_SN
     0-0-0/c CHAR(8)     r     1 IN_WSN                     0-0-0/w SBIN        r     1 M$EO1#
     0-0-0/w STRC(504)   r     1 PCB                        0-0-0/d STRC(324)   r     1 RESULTS_FID_IN

  ****  BASED and DCB variables  ****

  ****  Scalars and arrays  ****
OctLoc.c.b A Datatyp(siz) R M Lvl/name                 OctLoc.c.b A Datatyp(siz) R M Lvl/name

     0-0-0N  NULL        r     1 M$EO1                      0-0-0/w STRC(144)   r     1 OUT$BLK
     0-0-0/w ASTR(153)   r     1 OUT$SYM

PL6.E3A0      #004=VPJ$WEOF File=VPJ$TAPE.:E05TSI                                WED 07/30/97 07:53 Page:186

   Procedure VPJ$WEOF requires 146 words for executable code.
   Procedure VPJ$WEOF requires 14 words of local(AUTO) storage.

    No errors detected in file VPJ$TAPE.:E05TSI    .
PL6.E3A0      #004=VPJ$WEOF File=VPJ$TAPE.:E05TSI                                WED 07/30/97 07:53 Page:187
          *** CROSS REFERENCE LISTING ***
**     DENOTES     IDENTIFIER DEFINITION
<<                 IDENTIFIER'S VALUE SET
>>                 IDENTIFIER'S VALUE USED
<>                 IDENTIFIER SET AND/OR USED
--                 IDENTIFIER REFERENCED
PL6.E3A0      #004=VPJ$WEOF File=VPJ$TAPE.:E05TSI                                WED 07/30/97 07:53 Page:188
          MINI XREF LISTING

BREAK_LOC
      5223**DCL      5223--REDEF
DEF_ICB.FID.STRING
      5821**DCL      5822--REDEF
DEV_ICB.FID.STRING
      5707**DCL      5708--REDEF
EI_KEY.KEY
      5919**DCL      5919--REDEF    5919--REDEF    5919--REDEF
EO_OCB.TYPE
      5419**DCL      5420--REDEF
FPT_CLOSE
      7129**DCL      7406<>CALL     7412<>CALL
FPT_CLOSE.SN_
      7129**DCL      7129--REDEF
FPT_CLOSE.UTL_
      7130**DCL      7130--REDEF
FPT_CLOSE.V
      7134**DCL      7129--DCLINIT
FPT_CLOSE.V.EXPIRE#
      7144**DCL      7144--REDEF
FPT_CLOSE.V.TYPE#
      7142**DCL      7142--REDEF
FPT_CLOSE.V.XTNSIZE#
      7139**DCL      7139--REDEF    7141--REDEF
FPT_CLOSE_EI.SN_
      6760**DCL      6760--REDEF
FPT_CLOSE_EI.UTL_
      6761**DCL      6761--REDEF
FPT_CLOSE_EI.V.EXPIRE#
      6775**DCL      6775--REDEF
FPT_CLOSE_EI.V.TYPE#
      6773**DCL      6773--REDEF
PL6.E3A0      #004=VPJ$WEOF File=VPJ$TAPE.:E05TSI                                WED 07/30/97 07:53 Page:189
FPT_CLOSE_EI.V.XTNSIZE#
      6770**DCL      6770--REDEF    6772--REDEF
FPT_CLOSE_PTL.SN_
      6886**DCL      6886--REDEF
FPT_CLOSE_PTL.UTL_
      6887**DCL      6887--REDEF
FPT_CLOSE_PTL.V.EXPIRE#
      6901**DCL      6901--REDEF
FPT_CLOSE_PTL.V.TYPE#
      6899**DCL      6899--REDEF
FPT_CLOSE_PTL.V.XTNSIZE#
      6896**DCL      6896--REDEF    6898--REDEF
FPT_CLOSE_READ.SN_
      6802**DCL      6802--REDEF
FPT_CLOSE_READ.UTL_
      6803**DCL      6803--REDEF
FPT_CLOSE_READ.V.EXPIRE#
      6817**DCL      6817--REDEF
FPT_CLOSE_READ.V.TYPE#
      6815**DCL      6815--REDEF
FPT_CLOSE_READ.V.XTNSIZE#
      6812**DCL      6812--REDEF    6814--REDEF
FPT_CLOSE_SI.SN_
      6970**DCL      6970--REDEF
FPT_CLOSE_SI.UTL_
      6971**DCL      6971--REDEF
FPT_CLOSE_SI.V.EXPIRE#
      6985**DCL      6985--REDEF
FPT_CLOSE_SI.V.TYPE#
      6983**DCL      6983--REDEF
FPT_CLOSE_SI.V.XTNSIZE#
      6980**DCL      6980--REDEF    6982--REDEF
FPT_CLOSE_STD.SN_
      6928**DCL      6928--REDEF
FPT_CLOSE_STD.UTL_
      6929**DCL      6929--REDEF
PL6.E3A0      #004=VPJ$WEOF File=VPJ$TAPE.:E05TSI                                WED 07/30/97 07:53 Page:190
FPT_CLOSE_STD.V.EXPIRE#
      6943**DCL      6943--REDEF
FPT_CLOSE_STD.V.TYPE#
      6941**DCL      6941--REDEF
FPT_CLOSE_STD.V.XTNSIZE#
      6938**DCL      6938--REDEF    6940--REDEF
FPT_CLSEI_FT.SN_
      6844**DCL      6844--REDEF
FPT_CLSEI_FT.UTL_
      6845**DCL      6845--REDEF
FPT_CLSEI_FT.V.EXPIRE#
      6859**DCL      6859--REDEF
FPT_CLSEI_FT.V.TYPE#
      6857**DCL      6857--REDEF
FPT_CLSEI_FT.V.XTNSIZE#
      6854**DCL      6854--REDEF    6856--REDEF
FPT_FID_IN
      6002**DCL      7367<>CALL
FPT_FID_IN.TEXTFID_
      6002**DCL      7365<<ASSIGN
FPT_OPEN_EI.ACSVEH_
      6415**DCL      6416--REDEF
FPT_OPEN_EI.ALTKEYS_
      6421**DCL      6422--REDEF    6422--REDEF
FPT_OPEN_EI.HDR_
      6420**DCL      6421--REDEF
FPT_OPEN_EI.TAB_
      6419**DCL      6420--REDEF
FPT_OPEN_EI.UHL_
      6413**DCL      6414--REDEF    6414--REDEF
FPT_OPEN_EI.V.FSN#
      6453**DCL      6453--REDEF    6453--REDEF
FPT_OPEN_EI.WSN_
      6419**DCL      6419--REDEF
FPT_OPEN_EI_SAVE.ACSVEH_
      6524**DCL      6525--REDEF
PL6.E3A0      #004=VPJ$WEOF File=VPJ$TAPE.:E05TSI                                WED 07/30/97 07:53 Page:191
FPT_OPEN_EI_SAVE.ALTKEYS_
      6530**DCL      6531--REDEF    6531--REDEF
FPT_OPEN_EI_SAVE.HDR_
      6529**DCL      6530--REDEF
FPT_OPEN_EI_SAVE.TAB_
      6528**DCL      6529--REDEF
FPT_OPEN_EI_SAVE.UHL_
      6522**DCL      6523--REDEF    6523--REDEF
FPT_OPEN_EI_SAVE.V.FSN#
      6562**DCL      6562--REDEF    6562--REDEF
FPT_OPEN_EI_SAVE.WSN_
      6528**DCL      6528--REDEF
FPT_OPEN_OUT
      6304**DCL      7374<<ASSIGN   7403<>CALL
FPT_OPEN_OUT.ACSVEH_
      6306**DCL      6307--REDEF
FPT_OPEN_OUT.ALTKEYS_
      6312**DCL      6313--REDEF    6313--REDEF
FPT_OPEN_OUT.HDR_
      6311**DCL      6312--REDEF
FPT_OPEN_OUT.SN_
      6304**DCL      7393<<ASSIGN
FPT_OPEN_OUT.TAB_
      6310**DCL      6311--REDEF
FPT_OPEN_OUT.UHL_
      6304**DCL      6305--REDEF    6305--REDEF
FPT_OPEN_OUT.V.ASN#
      6323**DCL      7376<<ASSIGN
FPT_OPEN_OUT.V.DCB#
      6313**DCL      7375<<ASSIGN
FPT_OPEN_OUT.V.FSN#
      6344**DCL      6344--REDEF    6344--REDEF
FPT_OPEN_OUT.V.FUN#
      6323**DCL      7398<<ASSIGN   7399<<ASSIGN   7402<<ASSIGN
FPT_OPEN_OUT.V.INITZ.SCRUB#
      6314**DCL      7397<<ASSIGN
PL6.E3A0      #004=VPJ$WEOF File=VPJ$TAPE.:E05TSI                                WED 07/30/97 07:53 Page:192
FPT_OPEN_OUT.V.ORG#
      6324**DCL      7377<<ASSIGN
FPT_OPEN_OUT.V.RES#
      6328**DCL      7378<<ASSIGN
FPT_OPEN_OUT.V.VOL#
      6338**DCL      7389<<ASSIGN
FPT_OPEN_OUT.WSN_
      6310**DCL      6310--REDEF    7396<<ASSIGN
FPT_OPEN_OUT_SAVE
      6195**DCL      7374>>ASSIGN
FPT_OPEN_OUT_SAVE.ACSVEH_
      6197**DCL      6198--REDEF
FPT_OPEN_OUT_SAVE.ALTKEYS_
      6203**DCL      6204--REDEF    6204--REDEF
FPT_OPEN_OUT_SAVE.HDR_
      6202**DCL      6203--REDEF
FPT_OPEN_OUT_SAVE.TAB_
      6201**DCL      6202--REDEF
FPT_OPEN_OUT_SAVE.UHL_
      6195**DCL      6196--REDEF    6196--REDEF
FPT_OPEN_OUT_SAVE.V.FSN#
      6235**DCL      6235--REDEF    6235--REDEF
FPT_OPEN_OUT_SAVE.WSN_
      6201**DCL      6201--REDEF
FPT_READ_STD.STATION_
      6625**DCL      6626--REDEF
FPT_READ_STD.V.DVBYTE.REREAD#
      6637**DCL      6637--REDEF
FPT_READ_STD.V.INDX#
      6635**DCL      6635--REDEF
FPT_READ_UC.STATION_
      6586**DCL      6587--REDEF
FPT_READ_UC.V.DVBYTE.REREAD#
      6598**DCL      6598--REDEF
FPT_READ_UC.V.INDX#
      6596**DCL      6596--REDEF
PL6.E3A0      #004=VPJ$WEOF File=VPJ$TAPE.:E05TSI                                WED 07/30/97 07:53 Page:193
FPT_WEOF_LOCAL
      7103**DCL      7404<>CALL
FPT_WEOF_LOCAL.V
      7103**DCL      7103--DCLINIT
FPT_WRITE_ME.STATION_
      6694**DCL      6694--REDEF
FPT_WRITE_ME.V.DVBYTE.VFC#
      6701**DCL      6701--REDEF
FPT_WRITE_OUT.STATION_
      6725**DCL      6725--REDEF
FPT_WRITE_OUT.V.DVBYTE.VFC#
      6732**DCL      6732--REDEF
FPT_WRITE_UC.STATION_
      6663**DCL      6663--REDEF
FPT_WRITE_UC.V.DVBYTE.VFC#
      6670**DCL      6670--REDEF
FROM_SN.SN
      5569**DCL      5570--REDEF
GETCMD.OUT$
      4776**DCL      4782--REDEF
ICB.FID.STRING
      5593**DCL      5594--REDEF
IFSFA_PARAM.EOMCHAR#
      5948**DCL      5949--REDEF
IFSFA_PARAM.SIG1
      5942**DCL      5942--REDEF
IFSFA_PARAM.SIG2
      5942**DCL      5943--REDEF
IN_ASN
      5552**DCL      7368>>IF
IN_RES
      5515**DCL      5515--REDEF    7378>>ASSIGN   7379>>IF       7379>>IF
IN_SN
      5526**DCL      7388<>CALL     7393--ASSIGN   7411<>CALL     7419<>CALL
IN_SN.SN
      5531**DCL      5532--REDEF
PL6.E3A0      #004=VPJ$WEOF File=VPJ$TAPE.:E05TSI                                WED 07/30/97 07:53 Page:194
IN_WSN
      5552**DCL      7396--ASSIGN
M$CLOSE
        33**DCL-ENT  7406--CALL     7412--CALL
M$EO1
      5984**DCL      7375>>ASSIGN
M$EO1#
      5985**DCL      7411<>CALL     7419<>CALL
M$OPEN
        33**DCL-ENT  7403--CALL
M$WEOF
        36**DCL-ENT  7404--CALL
MON_ERR
      7409**LABEL    7403--CALLALT  7406--CALLALT  7407--GOTO     7412--CALLALT
OCB.TYPE
      5277**DCL      5278--REDEF
OFSFA_PARAM.EOMCHAR#
      5978**DCL      5979--REDEF
OFSFA_PARAM.SIG1
      5972**DCL      5972--REDEF
OFSFA_PARAM.SIG2
      5972**DCL      5973--REDEF
OUT$BLK.SUBLK$
      7045**DCL      7365>>ASSIGN   7365>>ASSIGN
OUT$SYM.COUNT
      7081**DCL      7084--IMP-SIZ  7365>>ASSIGN
OUT$SYM.TEXT
      7084**DCL      7365--ASSIGN
OUT_SN.SN
      5549**DCL      5550--REDEF
PCB.OUT$
      4590**DCL      7365>>ASSIGN   7365>>ASSIGN
RESULTS_FID_IN.SN
      6025**DCL      7391>>IF
RESULTS_FID_IN.WSN
      6025**DCL      7394>>IF
PL6.E3A0      #004=VPJ$WEOF File=VPJ$TAPE.:E05TSI                                WED 07/30/97 07:53 Page:195
SPEC_BUF
      5227**DCL      5227--REDEF
TAPE_INVOLVED
      7362**DCL      7382<<ASSIGN   7384<<ASSIGN   7385>>IF       7400>>IF       7409>>IF       7417>>IF
VOL
      7363**DCL      7388<>CALL     7389>>ASSIGN
VPD$CHECK_VOL
      7173**DCL-ENT  7388--CALL     7411--CALL     7419--CALL
VPD$FID
      7191**DCL-ENT  7367--CALL
VPL$ERR_PROC
      7333**DCL-ENT  7370--CALL     7416--CALL
VPL$ERR_SEV_HANDLER
      7334**DCL-ENT  7420--CALL
WEOF_ALT
      7406**LABEL    7404--CALLALT
