PL6.E3A0      #006=VPK$STATUS File=VPK$CMDS.:E05TSI                              WED 07/30/97 08:02 Page:190
      725        1        /*T***********************************************************/
      726        2        /*T*                                                         */
      727        3        /*T* Copyright (c) Bull HN Information Systems Inc., 1997    */
      728        4        /*T*                                                         */
      729        5        /*T***********************************************************/
      730        6        VPK$STATUS: PROC;
      731        7        /*D* NAME: VPK$STATUS
      732        8             CALL: CALL VPK$STATUS
      733        9             DESCRIPTION: This proc drives the PCL 'STATUS' command.
      734       10        */
      735       11        %INCLUDE VP_DATA_R;
      736     6998        %INCLUDE F$DCB;
      737     7047        %FPT_UNFID(FPTN = FPT_UNFID_EO,
      738     7048                   DCB = M$EO,
      739     7049                   STCLASS = STATIC,
      740     7050                   TEXTFID = TEXT_EO);
      741     7068        %VP_ENTRIES (OMIT=VPK$STATUS);
      742     7276    1   DCL T_COUNT SBIN WORD STATIC;
      743     7277    1   DCL CONV_BUF CHAR(1) STATIC;
      744     7278    1   DCL ME_BUF CHAR(80) STATIC;             /* Use VFC for space 1 after print    */
      745     7279    1   DCL TEXT_EO CHAR(60) STATIC;
      746     7280    1           FPT_WRITE_ME.BUF_ = VECTOR(ME_BUF);
      747     7281    1           FPT_WRITE_ME.V.DVBYTE.VFC# = %YES#;
      748     7282    1           CALL M$UNFID(FPT_UNFID_EO);
      749     7283    1           CALL CONCAT(ME_BUF,'ADefault COPY destination is ',TEXT_EO);
      750     7284    1           CALL M$WRITE(FPT_WRITE_ME);
      751     7285    1           ME_BUF = 'ASeverity ';
      752     7286    1           T_COUNT = 16;                   /* Place to put [N]STEPCC             */
      753     7287    2           DO CASE(ERROR_SEVERITY);
      754     7288    2            CASE(1);                       /* SEVERITY ABORT specified           */
      755     7289    2              CALL INSERT(ME_BUF,10,,'abort');
      756     7290    2            CASE(2);                       /* SEVERITY CONTINUE specified        */
      757     7291    2              CALL INSERT(ME_BUF,10,,'continue');
      758     7292    2              T_COUNT = T_COUNT +3;
      759     7293    2            CASE(3);                       /* SEVERITY ERROR specified           */
      760     7294    2              CALL INSERT(ME_BUF,10,,'error');
      761     7295    2              T_COUNT = T_COUNT + 1;
PL6.E3A0      #006=VPK$STATUS File=VPK$CMDS.:E05TSI                              WED 07/30/97 08:02 Page:191
      762     7296    2            END;
      763     7297    1           IF HIGHEST_SEVERITY = -1
      764     7298    1            THEN                           /* NO STEPCC setting requested        */
      765     7299    1              CALL INSERT(ME_BUF,T_COUNT,,'nstepcc');
      766     7300    1            ELSE                           /* STEPCC setting requested           */
      767     7301    2            DO;
      768     7302    2               CALL INSERT(ME_BUF,T_COUNT,,'stepcc');
      769     7303    2               CALL M$WRITE(FPT_WRITE_ME);
      770     7304    2               CALL BINCHAR(CONV_BUF,HIGHEST_SEVERITY);
      771     7305    2               CALL CONCAT(ME_BUF,'AHighest encountered severity was ',CONV_BUF);
      772     7306    2               END;
      773     7307    1           CALL M$WRITE(FPT_WRITE_ME);
      774     7308    1           IF ERR_SAVE_REL = 1
      775     7309    1            THEN                           /* ERRORS SAVE specified              */
      776     7310    1              ME_BUF = 'AErrors save';
      777     7311    1            ELSE                           /* ERRORS RELEASE specified           */
      778     7312    1              ME_BUF = 'AErrors release';
      779     7313    1           CALL M$WRITE (FPT_WRITE_ME);
      780     7314    1           IF ONE_TIME = 1
      781     7315    1            THEN                           /* Tell him that this is a ONE SHOT   */
      782     7316    2            DO;
      783     7317    2               ME_BUF = 'AOne-shot on';
      784     7318    2               CALL M$WRITE (FPT_WRITE_ME);
      785     7319    2               END;
      786     7320    1           IF TEST_MODE = 1
      787     7321    1            THEN                           /* Tell him that TEST MODE is on      */
      788     7322    2            DO;
      789     7323    2               ME_BUF = 'ATest mode on';
      790     7324    2               CALL M$WRITE (FPT_WRITE_ME);
      791     7325    2               END;
      792     7326    1           IF FPT_ERRMSG.V.INCLCODE# = '1'B
      793     7327    1            THEN                           /* Tell him that FCG DISPLAY is on    */
      794     7328    2            DO;
      795     7329    2               ME_BUF = 'AFCG display on';
      796     7330    2               CALL M$WRITE (FPT_WRITE_ME);
      797     7331    2               END;
      798     7332    1           RETURN;
PL6.E3A0      #006=VPK$STATUS File=VPK$CMDS.:E05TSI                              WED 07/30/97 08:02 Page:192
      799     7333    1   END VPK$STATUS;
      800     7334        %EOD;

PL6.E3A0      #006=VPK$STATUS File=VPK$CMDS.:E05TSI                              WED 07/30/97 08:02 Page:193
--  Include file information  --

   F$DCB.:E05TOU  cannot be made into a system file and is referenced.
   B_MICROPS_C.:E05TOU  is referenced.
   XU_MACRO_C.:E05TOU  is referenced.
   VP_MACRO_C.:E05TOU  is referenced.
   XS_MACRO_C.:E05TOU  is referenced.
   VP_PERR_C.:E05TOU  is referenced.
   CP_6_SUBS.:E05TOU  is referenced.
   CP_6.:E05TOU  cannot be made into a system file and is referenced.
   VP_DATA_R.:E05TOU  cannot be made into a system file and is referenced.
   B$JIT_C.:E05TOU  was found in the system file and is never referenced.
   CP_6_C.:E05TOU  was found in the system file and is referenced.
      No diagnostics issued in procedure VPK$STATUS.

   Procedure VPK$STATUS requires 119 words for executable code.
   Procedure VPK$STATUS requires 4 words of local(AUTO) storage.

PL6.E3A0      #006=VPK$STATUS File=VPK$CMDS.:E05TSI                              WED 07/30/97 08:02 Page:194

 Object Unit name= VPK$STATUS                                 File name= VPK$CMDS.:E05TOU
 UTS= JUL 30 '97 08:02:06.68 WED                              Compiler= PL-6/E31         Sev=      00
 SharedLib= :SHARED_SYSTEM                                    Alt SharedLib=


    ****  Control sections  ****

 Sect   Type Bound  Init  Size OctSiz  Section name(segment info)
    0   DCB   even  none     0      0  M$UC
    1   DCB   even  none     0      0  M$EI
    2   DCB   even  none     0      0  M$EO
    3   DCB   even  none     0      0  M$EO1
    4   DCB   even  none     0      0  M$ME
    5   DCB   even  none     0      0  M$SI
    6   DCB   even  none     0      0  M$READFILE
    7   DCB   even  none     0      0  M$DO
    8   DCB   even  none     0      0  M$STD1
    9   DCB   even  none     0      0  M$SORT1
   10   Data  even  none    59     73  VPK$STATUS
   11  RoData even  UTS     48     60  VPK$STATUS
   12   Proc  even  none   119    167  VPK$STATUS
   13  RoData even  none     2      2  VPK$STATUS

    ****  Entry defs  ****

                              Check   Calling
                             calling  sequence
  Sect OctLoc Primary Altret sequence   type   Parms  Name
    12      0   yes            yes      Std        0  VPK$STATUS
PL6.E3A0      #006=VPK$STATUS File=VPK$CMDS.:E05TSI                              WED 07/30/97 08:02 Page:195

  ****  Entry refs  ****

         Check        Calling
        calling       sequence
Altret sequence SRef   type   Args  Name
                       nStd      0 X66_AUTO_0
                       Std       0 B_CONSPOOL_D
                       nStd      0 X66_ARET

  ****  Data refs  ****

  Flags:  r = read only, s = secondary
Flgs Name                             Flgs Name                             Flgs Name
     M$UC                                  ERROR_SEVERITY                        HIGHEST_SEVERITY
     ERR_SAVE_REL                          TEST_MODE                             BREAK_LOC
     BREAK_MESSAGE_REPORTER                SPEC_BUF                              ONE_TIME
     IN_RES                                M$EI                                  M$EO
     M$EO1                                 M$ME                                  M$SI
     M$READFILE                            M$DO                                  M$STD1
     M$SORT1                               FPT_ERRMSG                            FPT_WRITE_ME
     B_VECTNIL

  ****  Segment refs  ****

  Flags:  r = read only, s = secondary
Flgs Name                             Flgs Name                             Flgs Name
     ISSID                                 NULLSID
PL6.E3A0      #006=VPK$STATUS File=VPK$CMDS.:E05TSI                              WED 07/30/97 08:02 Page:196


      725        1        /*T***********************************************************/
      726        2        /*T*                                                         */
      727        3        /*T* Copyright (c) Bull HN Information Systems Inc., 1997    */
      728        4        /*T*                                                         */
      729        5        /*T***********************************************************/
      730        6        VPK$STATUS: PROC;

      6 12 000000   000000 700200 xent  VPK$STATUS   TSX0  ! X66_AUTO_0
        12 000001   000004 000000                    ZERO    4,0

      731        7        /*D* NAME: VPK$STATUS
      732        8             CALL: CALL VPK$STATUS
      733        9             DESCRIPTION: This proc drives the PCL 'STATUS' command.
      734       10        */
      735       11        %INCLUDE VP_DATA_R;
      736     6998        %INCLUDE F$DCB;
      737     7047        %FPT_UNFID(FPTN = FPT_UNFID_EO,
      738     7048                   DCB = M$EO,
      739     7049                   STCLASS = STATIC,
      740     7050                   TEXTFID = TEXT_EO);
      741     7068        %VP_ENTRIES (OMIT=VPK$STATUS);
      742     7276    1   DCL T_COUNT SBIN WORD STATIC;
      743     7277    1   DCL CONV_BUF CHAR(1) STATIC;
      744     7278    1   DCL ME_BUF CHAR(80) STATIC;             /* Use VFC for space 1 after print    */
      745     7279    1   DCL TEXT_EO CHAR(60) STATIC;
      746     7280    1           FPT_WRITE_ME.BUF_ = VECTOR(ME_BUF);

   7280 12 000002   000000 237000 13                 LDAQ    0
        12 000003   000004 757000 xsym               STAQ    FPT_WRITE_ME+4

      747     7281    1           FPT_WRITE_ME.V.DVBYTE.VFC# = %YES#;

   7281 12 000004   100000 236003                    LDQ     32768,DU
        12 000005   000013 256000 xsym               ORSQ    FPT_WRITE_ME+11

      748     7282    1           CALL M$UNFID(FPT_UNFID_EO);
PL6.E3A0      #006=VPK$STATUS File=VPK$CMDS.:E05TSI                              WED 07/30/97 08:02 Page:197

   7282 12 000006   000000 630400 10                 EPPR0   FPT_UNFID_EO
        12 000007   020021 713400                    CLIMB   8209
        12 000010   404400 401760                    pmme    nvectors=10

      749     7283    1           CALL CONCAT(ME_BUF,'ADefault COPY destination is ',TEXT_EO);

   7283 12 000011   040000 100400                    MLR     fill='040'O
        12 000012   000000 000035 11                 ADSC9   0                        cn=0,n=29
        12 000013   000030 000035 10                 ADSC9   ME_BUF                   cn=0,n=29
        12 000014   040000 100400                    MLR     fill='040'O
        12 000015   000054 000063 10                 ADSC9   TEXT_EO                  cn=0,n=51
        12 000016   000037 200063 10                 ADSC9   ME_BUF+7                 cn=1,n=51

      750     7284    1           CALL M$WRITE(FPT_WRITE_ME);

   7284 12 000017   000000 630400 xsym               EPPR0   FPT_WRITE_ME
        12 000020   040001 713400                    CLIMB   write
        12 000021   401400 401760                    pmme    nvectors=4

      751     7285    1           ME_BUF = 'ASeverity ';

   7285 12 000022   040000 100400                    MLR     fill='040'O
        12 000023   000010 000012 11                 ADSC9   8                        cn=0,n=10
        12 000024   000030 000120 10                 ADSC9   ME_BUF                   cn=0,n=80

      752     7286    1           T_COUNT = 16;                   /* Place to put [N]STEPCC             */

   7286 12 000025   000020 235007                    LDA     16,DL
        12 000026   000026 755000 10                 STA     T_COUNT

      753     7287    2           DO CASE(ERROR_SEVERITY);

   7287 12 000027   000000 236000 xsym               LDQ     ERROR_SEVERITY
        12 000030   000004 116007                    CMPQ    4,DL
        12 000031   000033 602006 12                 TNC     s:7287+4,QL
        12 000032   000055 710000 12                 TRA     s:7297
PL6.E3A0      #006=VPK$STATUS File=VPK$CMDS.:E05TSI                              WED 07/30/97 08:02 Page:198
        12 000033   000055 710000 12                 TRA     s:7297
        12 000034   000037 710000 12                 TRA     s:7289
        12 000035   000043 710000 12                 TRA     s:7291
        12 000036   000051 710000 12                 TRA     s:7294

      754     7288    2            CASE(1);                       /* SEVERITY ABORT specified           */

      755     7289    2              CALL INSERT(ME_BUF,10,,'abort');

   7289 12 000037   040000 100400                    MLR     fill='040'O
        12 000040   000013 000005 11                 ADSC9   11                       cn=0,n=5
        12 000041   000032 400106 10                 ADSC9   ME_BUF+2                 cn=2,n=70
        12 000042   000055 710000 12                 TRA     s:7297

      756     7290    2            CASE(2);                       /* SEVERITY CONTINUE specified        */

      757     7291    2              CALL INSERT(ME_BUF,10,,'continue');

   7291 12 000043   040000 100400                    MLR     fill='040'O
        12 000044   000015 000010 11                 ADSC9   13                       cn=0,n=8
        12 000045   000032 400106 10                 ADSC9   ME_BUF+2                 cn=2,n=70

      758     7292    2              T_COUNT = T_COUNT +3;

   7292 12 000046   000003 236007                    LDQ     3,DL
        12 000047   000026 056000 10                 ASQ     T_COUNT
        12 000050   000055 710000 12                 TRA     s:7297

      759     7293    2            CASE(3);                       /* SEVERITY ERROR specified           */

      760     7294    2              CALL INSERT(ME_BUF,10,,'error');

   7294 12 000051   040000 100400                    MLR     fill='040'O
        12 000052   000017 000005 11                 ADSC9   15                       cn=0,n=5
        12 000053   000032 400106 10                 ADSC9   ME_BUF+2                 cn=2,n=70

      761     7295    2              T_COUNT = T_COUNT + 1;
PL6.E3A0      #006=VPK$STATUS File=VPK$CMDS.:E05TSI                              WED 07/30/97 08:02 Page:199

   7295 12 000054   000026 054000 10                 AOS     T_COUNT

      762     7296    2            END;

      763     7297    1           IF HIGHEST_SEVERITY = -1

   7297 12 000055   000000 236000 xsym               LDQ     HIGHEST_SEVERITY
        12 000056   000027 116000 xsym               CMPQ    B_VECTNIL+23
        12 000057   000070 601000 12                 TNZ     s:7302

      764     7298    1            THEN                           /* NO STEPCC setting requested        */
      765     7299    1              CALL INSERT(ME_BUF,T_COUNT,,'nstepcc');

   7299 12 000060   000026 720000 10                 LXL0    T_COUNT
        12 000061   777657 620010                    EAX0    -81,X0
        12 000062   777777 660003                    ERX0    -1,DU
        12 000063   000026 235000 10                 LDA     T_COUNT
        12 000064   040045 100400                    MLR     fill='040'O
        12 000065   000021 000007 11                 ADSC9   17                       cn=0,n=7
        12 000066   000030 000010 10                 ADSC9   ME_BUF,A                 cn=0,n=*X0
        12 000067   000113 710000 12                 TRA     s:7307

      766     7300    1            ELSE                           /* STEPCC setting requested           */
      767     7301    2            DO;

      768     7302    2               CALL INSERT(ME_BUF,T_COUNT,,'stepcc');

   7302 12 000070   000026 720000 10                 LXL0    T_COUNT
        12 000071   777657 620010                    EAX0    -81,X0
        12 000072   777777 660003                    ERX0    -1,DU
        12 000073   000026 235000 10                 LDA     T_COUNT
        12 000074   040045 100400                    MLR     fill='040'O
        12 000075   000023 000006 11                 ADSC9   19                       cn=0,n=6
        12 000076   000030 000010 10                 ADSC9   ME_BUF,A                 cn=0,n=*X0

      769     7303    2               CALL M$WRITE(FPT_WRITE_ME);
PL6.E3A0      #006=VPK$STATUS File=VPK$CMDS.:E05TSI                              WED 07/30/97 08:02 Page:200

   7303 12 000077   000000 630400 xsym               EPPR0   FPT_WRITE_ME
        12 000100   040001 713400                    CLIMB   write
        12 000101   401400 401760                    pmme    nvectors=4

      770     7304    2               CALL BINCHAR(CONV_BUF,HIGHEST_SEVERITY);

   7304 12 000102   000000 301400                    BTD
        12 000103   000000 000004 xsym               NDSC9   HIGHEST_SEVERITY         cn=0,s=lsgnf,sf=0,n=4
        12 000104   000027 030001 10                 NDSC9   CONV_BUF                 cn=0,s=nosgn,sf=0,n=1

      771     7305    2               CALL CONCAT(ME_BUF,'AHighest encountered severity was ',CONV_BUF);

   7305 12 000105   040000 100400                    MLR     fill='040'O
        12 000106   000025 000042 11                 ADSC9   21                       cn=0,n=34
        12 000107   000030 000042 10                 ADSC9   ME_BUF                   cn=0,n=34
        12 000110   040000 100400                    MLR     fill='040'O
        12 000111   000027 000001 10                 ADSC9   CONV_BUF                 cn=0,n=1
        12 000112   000040 400056 10                 ADSC9   ME_BUF+8                 cn=2,n=46

      772     7306    2               END;

      773     7307    1           CALL M$WRITE(FPT_WRITE_ME);

   7307 12 000113   000000 630400 xsym               EPPR0   FPT_WRITE_ME
        12 000114   040001 713400                    CLIMB   write
        12 000115   401400 401760                    pmme    nvectors=4

      774     7308    1           IF ERR_SAVE_REL = 1

   7308 12 000116   000000 235000 xsym               LDA     ERR_SAVE_REL
        12 000117   000001 115007                    CMPA    1,DL
        12 000120   000125 601000 12                 TNZ     s:7312

      775     7309    1            THEN                           /* ERRORS SAVE specified              */
      776     7310    1              ME_BUF = 'AErrors save';

PL6.E3A0      #006=VPK$STATUS File=VPK$CMDS.:E05TSI                              WED 07/30/97 08:02 Page:201
   7310 12 000121   040000 100400                    MLR     fill='040'O
        12 000122   000036 000014 11                 ADSC9   30                       cn=0,n=12
        12 000123   000030 000120 10                 ADSC9   ME_BUF                   cn=0,n=80
        12 000124   000130 710000 12                 TRA     s:7313

      777     7311    1            ELSE                           /* ERRORS RELEASE specified           */
      778     7312    1              ME_BUF = 'AErrors release';

   7312 12 000125   040000 100400                    MLR     fill='040'O
        12 000126   000041 000017 11                 ADSC9   33                       cn=0,n=15
        12 000127   000030 000120 10                 ADSC9   ME_BUF                   cn=0,n=80

      779     7313    1           CALL M$WRITE (FPT_WRITE_ME);

   7313 12 000130   000000 630400 xsym               EPPR0   FPT_WRITE_ME
        12 000131   040001 713400                    CLIMB   write
        12 000132   401400 401760                    pmme    nvectors=4

      780     7314    1           IF ONE_TIME = 1

   7314 12 000133   000000 235000 xsym               LDA     ONE_TIME
        12 000134   000001 115007                    CMPA    1,DL
        12 000135   000144 601000 12                 TNZ     s:7320

      781     7315    1            THEN                           /* Tell him that this is a ONE SHOT   */
      782     7316    2            DO;

      783     7317    2               ME_BUF = 'AOne-shot on';

   7317 12 000136   040000 100400                    MLR     fill='040'O
        12 000137   000045 000014 11                 ADSC9   37                       cn=0,n=12
        12 000140   000030 000120 10                 ADSC9   ME_BUF                   cn=0,n=80

      784     7318    2               CALL M$WRITE (FPT_WRITE_ME);

   7318 12 000141   000000 630400 xsym               EPPR0   FPT_WRITE_ME
        12 000142   040001 713400                    CLIMB   write
PL6.E3A0      #006=VPK$STATUS File=VPK$CMDS.:E05TSI                              WED 07/30/97 08:02 Page:202
        12 000143   401400 401760                    pmme    nvectors=4

      785     7319    2               END;

      786     7320    1           IF TEST_MODE = 1

   7320 12 000144   000000 235000 xsym               LDA     TEST_MODE
        12 000145   000001 115007                    CMPA    1,DL
        12 000146   000155 601000 12                 TNZ     s:7326

      787     7321    1            THEN                           /* Tell him that TEST MODE is on      */
      788     7322    2            DO;

      789     7323    2               ME_BUF = 'ATest mode on';

   7323 12 000147   040000 100400                    MLR     fill='040'O
        12 000150   000050 000015 11                 ADSC9   40                       cn=0,n=13
        12 000151   000030 000120 10                 ADSC9   ME_BUF                   cn=0,n=80

      790     7324    2               CALL M$WRITE (FPT_WRITE_ME);

   7324 12 000152   000000 630400 xsym               EPPR0   FPT_WRITE_ME
        12 000153   040001 713400                    CLIMB   write
        12 000154   401400 401760                    pmme    nvectors=4

      791     7325    2               END;

      792     7326    1           IF FPT_ERRMSG.V.INCLCODE# = '1'B

   7326 12 000155   000030 236000 xsym               LDQ     FPT_ERRMSG+24
        12 000156   004000 316003                    CANQ    2048,DU
        12 000157   000166 600000 12                 TZE     s:7332

      793     7327    1            THEN                           /* Tell him that FCG DISPLAY is on    */
      794     7328    2            DO;

      795     7329    2               ME_BUF = 'AFCG display on';
PL6.E3A0      #006=VPK$STATUS File=VPK$CMDS.:E05TSI                              WED 07/30/97 08:02 Page:203

   7329 12 000160   040000 100400                    MLR     fill='040'O
        12 000161   000054 000017 11                 ADSC9   44                       cn=0,n=15
        12 000162   000030 000120 10                 ADSC9   ME_BUF                   cn=0,n=80

      796     7330    2               CALL M$WRITE (FPT_WRITE_ME);

   7330 12 000163   000000 630400 xsym               EPPR0   FPT_WRITE_ME
        12 000164   040001 713400                    CLIMB   write
        12 000165   401400 401760                    pmme    nvectors=4

      797     7331    2               END;

      798     7332    1           RETURN;

   7332 12 000166   000000 702200 xent               TSX2  ! X66_ARET
      799     7333    1   END VPK$STATUS;
      800     7334        %EOD;

PL6.E3A0      #006=VPK$STATUS File=VPK$CMDS.:E05TSI                              WED 07/30/97 08:02 Page:204
--  Include file information  --

   F$DCB.:E05TOU  cannot be made into a system file and is referenced.
   B_MICROPS_C.:E05TOU  is referenced.
   XU_MACRO_C.:E05TOU  is referenced.
   VP_MACRO_C.:E05TOU  is referenced.
   XS_MACRO_C.:E05TOU  is referenced.
   VP_PERR_C.:E05TOU  is referenced.
   CP_6_SUBS.:E05TOU  is referenced.
   CP_6.:E05TOU  cannot be made into a system file and is referenced.
   VP_DATA_R.:E05TOU  cannot be made into a system file and is referenced.
   B$JIT_C.:E05TOU  was found in the system file and is never referenced.
   CP_6_C.:E05TOU  was found in the system file and is referenced.
      No diagnostics issued in procedure VPK$STATUS.
PL6.E3A0      #006=VPK$STATUS File=VPK$CMDS.:E05TSI                              WED 07/30/97 08:02 Page:205

 **** Variables and constants ****

  ****  Section 010  Data  VPK$STATUS

  ****  Scalars and arrays  ****
OctLoc.c.b A Datatyp(siz) R M Lvl/name                 OctLoc.c.b A Datatyp(siz) R M Lvl/name

    27-0-0/c CHAR        r     1 CONV_BUF                   0-0-0/d STRC(792)   r     1 FPT_UNFID_EO
    30-0-0/c CHAR(80)    r     1 ME_BUF                    54-0-0/c CHAR(60)    r     1 TEXT_EO
    26-0-0/w SBIN        r     1 T_COUNT

  ****  SYMREF variables  ****

  ****  Scalars and arrays  ****
OctLoc.c.b A Datatyp(siz) R M Lvl/name                 OctLoc.c.b A Datatyp(siz) R M Lvl/name

     0-0-0/w EPTR        r     1 BREAK_MESSAGE_REPORTER
     0-0-0/w SBIN        r     1 ERROR_SEVERITY             0-0-0/w SBIN        r     1 ERR_SAVE_REL
     0-0-0/d STRC(936)   r     1 FPT_ERRMSG                 0-0-0/d STRC(432)   r     1 FPT_WRITE_ME
     0-0-0/w SBIN        r     1 HIGHEST_SEVERITY           0-0-0/w SBIN        r     1 ONE_TIME
     0-0-0/w SBIN        r     1 TEST_MODE

  ****  BASED and DCB variables  ****

  ****  Scalars and arrays  ****
OctLoc.c.b A Datatyp(siz) R M Lvl/name                 OctLoc.c.b A Datatyp(siz) R M Lvl/name

     0-0-0/d ASTR(3528)  r     1 F$DCB                      0-0-0N  NULL        r     1 M$EO


   Procedure VPK$STATUS requires 119 words for executable code.
   Procedure VPK$STATUS requires 4 words of local(AUTO) storage.
PL6.E3A0      #006=VPK$STATUS File=VPK$CMDS.:E05TSI                              WED 07/30/97 08:02 Page:206
          *** CROSS REFERENCE LISTING ***
**     DENOTES     IDENTIFIER DEFINITION
<<                 IDENTIFIER'S VALUE SET
>>                 IDENTIFIER'S VALUE USED
<>                 IDENTIFIER SET AND/OR USED
--                 IDENTIFIER REFERENCED
PL6.E3A0      #006=VPK$STATUS File=VPK$CMDS.:E05TSI                              WED 07/30/97 08:02 Page:207
          MINI XREF LISTING

BREAK_LOC
      5218**DCL      5218--REDEF
CONV_BUF
      7277**DCL      7304<<CALLBLT  7305>>CALLBLT
DEF_ICB.FID.STRING
      5816**DCL      5817--REDEF
DEV_ICB.FID.STRING
      5702**DCL      5703--REDEF
EI_KEY.KEY
      5914**DCL      5914--REDEF    5914--REDEF    5914--REDEF
EO_OCB.TYPE
      5414**DCL      5415--REDEF
ERROR_SEVERITY
      5181**DCL      7287>>DOCASE
ERR_SAVE_REL
      5213**DCL      7308>>IF
F$DCB.ACTPOS
      7024**DCL      7024--REDEF
F$DCB.ARS
      6999**DCL      6999--REDEF
F$DCB.ATTR
      7017**DCL      7018--REDEF
F$DCB.BORROW
      7032**DCL      7032--REDEF    7032--REDEF    7032--REDEF
F$DCB.DCBNAME.L
      7046**DCL      7046--IMP-SIZ
F$DCB.EOMCHAR
      7003**DCL      7003--REDEF
F$DCB.FLDID
      7027**DCL      7027--REDEF
F$DCB.FORM$
      7021**DCL      7021--REDEF
PL6.E3A0      #006=VPK$STATUS File=VPK$CMDS.:E05TSI                              WED 07/30/97 08:02 Page:208
F$DCB.FSECT
      7037**DCL      7037--REDEF
F$DCB.FSN
      7014**DCL      7014--REDEF    7014--REDEF    7015--REDEF
F$DCB.HEADER$
      7020**DCL      7020--REDEF
F$DCB.IXTNSIZE
      7018**DCL      7018--REDEF
F$DCB.LASTSTA$
      7008**DCL      7008--REDEF
F$DCB.LVL
      7033**DCL      7033--REDEF
F$DCB.NAME.C
      7008**DCL      7008--REDEF
F$DCB.NOEOF
      7029**DCL      7029--REDEF
F$DCB.NRECS
      7019**DCL      7019--REDEF
F$DCB.NRECX
      7038**DCL      7038--REDEF
F$DCB.OHDR
      7030**DCL      7030--REDEF
F$DCB.ORG
      7013**DCL      7013--REDEF
F$DCB.PRECNO
      7036**DCL      7036--REDEF
F$DCB.RCSZ
      7041**DCL      7041--REDEF
F$DCB.RES
      7009**DCL      7009--REDEF
F$DCB.SETX
      7021**DCL      7021--REDEF
F$DCB.TAB$
      7020**DCL      7021--REDEF
F$DCB.TDA
      7035**DCL      7035--REDEF
PL6.E3A0      #006=VPK$STATUS File=VPK$CMDS.:E05TSI                              WED 07/30/97 08:02 Page:209
F$DCB.WSN
      7010**DCL      7010--REDEF
FPT_CLOSE_EI.SN_
      6755**DCL      6755--REDEF
FPT_CLOSE_EI.UTL_
      6756**DCL      6756--REDEF
FPT_CLOSE_EI.V.EXPIRE#
      6770**DCL      6770--REDEF
FPT_CLOSE_EI.V.TYPE#
      6768**DCL      6768--REDEF
FPT_CLOSE_EI.V.XTNSIZE#
      6765**DCL      6765--REDEF    6767--REDEF
FPT_CLOSE_PTL.SN_
      6881**DCL      6881--REDEF
FPT_CLOSE_PTL.UTL_
      6882**DCL      6882--REDEF
FPT_CLOSE_PTL.V.EXPIRE#
      6896**DCL      6896--REDEF
FPT_CLOSE_PTL.V.TYPE#
      6894**DCL      6894--REDEF
FPT_CLOSE_PTL.V.XTNSIZE#
      6891**DCL      6891--REDEF    6893--REDEF
FPT_CLOSE_READ.SN_
      6797**DCL      6797--REDEF
FPT_CLOSE_READ.UTL_
      6798**DCL      6798--REDEF
FPT_CLOSE_READ.V.EXPIRE#
      6812**DCL      6812--REDEF
FPT_CLOSE_READ.V.TYPE#
      6810**DCL      6810--REDEF
FPT_CLOSE_READ.V.XTNSIZE#
      6807**DCL      6807--REDEF    6809--REDEF
FPT_CLOSE_SI.SN_
      6965**DCL      6965--REDEF
FPT_CLOSE_SI.UTL_
      6966**DCL      6966--REDEF
PL6.E3A0      #006=VPK$STATUS File=VPK$CMDS.:E05TSI                              WED 07/30/97 08:02 Page:210
FPT_CLOSE_SI.V.EXPIRE#
      6980**DCL      6980--REDEF
FPT_CLOSE_SI.V.TYPE#
      6978**DCL      6978--REDEF
FPT_CLOSE_SI.V.XTNSIZE#
      6975**DCL      6975--REDEF    6977--REDEF
FPT_CLOSE_STD.SN_
      6923**DCL      6923--REDEF
FPT_CLOSE_STD.UTL_
      6924**DCL      6924--REDEF
FPT_CLOSE_STD.V.EXPIRE#
      6938**DCL      6938--REDEF
FPT_CLOSE_STD.V.TYPE#
      6936**DCL      6936--REDEF
FPT_CLOSE_STD.V.XTNSIZE#
      6933**DCL      6933--REDEF    6935--REDEF
FPT_CLSEI_FT.SN_
      6839**DCL      6839--REDEF
FPT_CLSEI_FT.UTL_
      6840**DCL      6840--REDEF
FPT_CLSEI_FT.V.EXPIRE#
      6854**DCL      6854--REDEF
FPT_CLSEI_FT.V.TYPE#
      6852**DCL      6852--REDEF
FPT_CLSEI_FT.V.XTNSIZE#
      6849**DCL      6849--REDEF    6851--REDEF
FPT_ERRMSG.V.INCLCODE#
      6096**DCL      7326>>IF
FPT_OPEN_EI.ACSVEH_
      6410**DCL      6411--REDEF
FPT_OPEN_EI.ALTKEYS_
      6416**DCL      6417--REDEF    6417--REDEF
FPT_OPEN_EI.HDR_
      6415**DCL      6416--REDEF
FPT_OPEN_EI.TAB_
      6414**DCL      6415--REDEF
PL6.E3A0      #006=VPK$STATUS File=VPK$CMDS.:E05TSI                              WED 07/30/97 08:02 Page:211
FPT_OPEN_EI.UHL_
      6408**DCL      6409--REDEF    6409--REDEF
FPT_OPEN_EI.V.FSN#
      6448**DCL      6448--REDEF    6448--REDEF
FPT_OPEN_EI.WSN_
      6414**DCL      6414--REDEF
FPT_OPEN_EI_SAVE.ACSVEH_
      6519**DCL      6520--REDEF
FPT_OPEN_EI_SAVE.ALTKEYS_
      6525**DCL      6526--REDEF    6526--REDEF
FPT_OPEN_EI_SAVE.HDR_
      6524**DCL      6525--REDEF
FPT_OPEN_EI_SAVE.TAB_
      6523**DCL      6524--REDEF
FPT_OPEN_EI_SAVE.UHL_
      6517**DCL      6518--REDEF    6518--REDEF
FPT_OPEN_EI_SAVE.V.FSN#
      6557**DCL      6557--REDEF    6557--REDEF
FPT_OPEN_EI_SAVE.WSN_
      6523**DCL      6523--REDEF
FPT_OPEN_OUT.ACSVEH_
      6301**DCL      6302--REDEF
FPT_OPEN_OUT.ALTKEYS_
      6307**DCL      6308--REDEF    6308--REDEF
FPT_OPEN_OUT.HDR_
      6306**DCL      6307--REDEF
FPT_OPEN_OUT.TAB_
      6305**DCL      6306--REDEF
FPT_OPEN_OUT.UHL_
      6299**DCL      6300--REDEF    6300--REDEF
FPT_OPEN_OUT.V.FSN#
      6339**DCL      6339--REDEF    6339--REDEF
FPT_OPEN_OUT.WSN_
      6305**DCL      6305--REDEF
FPT_OPEN_OUT_SAVE.ACSVEH_
      6192**DCL      6193--REDEF
PL6.E3A0      #006=VPK$STATUS File=VPK$CMDS.:E05TSI                              WED 07/30/97 08:02 Page:212
FPT_OPEN_OUT_SAVE.ALTKEYS_
      6198**DCL      6199--REDEF    6199--REDEF
FPT_OPEN_OUT_SAVE.HDR_
      6197**DCL      6198--REDEF
FPT_OPEN_OUT_SAVE.TAB_
      6196**DCL      6197--REDEF
FPT_OPEN_OUT_SAVE.UHL_
      6190**DCL      6191--REDEF    6191--REDEF
FPT_OPEN_OUT_SAVE.V.FSN#
      6230**DCL      6230--REDEF    6230--REDEF
FPT_OPEN_OUT_SAVE.WSN_
      6196**DCL      6196--REDEF
FPT_READ_STD.STATION_
      6620**DCL      6621--REDEF
FPT_READ_STD.V.DVBYTE.REREAD#
      6632**DCL      6632--REDEF
FPT_READ_STD.V.INDX#
      6630**DCL      6630--REDEF
FPT_READ_UC.STATION_
      6581**DCL      6582--REDEF
FPT_READ_UC.V.DVBYTE.REREAD#
      6593**DCL      6593--REDEF
FPT_READ_UC.V.INDX#
      6591**DCL      6591--REDEF
FPT_UNFID_EO
      7061**DCL      7282<>CALL
FPT_UNFID_EO.V
      7065**DCL      7061--DCLINIT
FPT_WRITE_ME
      6687**DCL      7284<>CALL     7303<>CALL     7307<>CALL     7313<>CALL     7318<>CALL     7324<>CALL
      7330<>CALL
FPT_WRITE_ME.BUF_
      6687**DCL      7280<<ASSIGN
FPT_WRITE_ME.STATION_
      6689**DCL      6689--REDEF
FPT_WRITE_ME.V.DVBYTE.VFC#
PL6.E3A0      #006=VPK$STATUS File=VPK$CMDS.:E05TSI                              WED 07/30/97 08:02 Page:213
      6696**DCL      6696--REDEF    7281<<ASSIGN
FPT_WRITE_OUT.STATION_
      6720**DCL      6720--REDEF
FPT_WRITE_OUT.V.DVBYTE.VFC#
      6727**DCL      6727--REDEF
FPT_WRITE_UC.STATION_
      6658**DCL      6658--REDEF
FPT_WRITE_UC.V.DVBYTE.VFC#
      6665**DCL      6665--REDEF
FROM_SN.SN
      5564**DCL      5565--REDEF
GETCMD.OUT$
      4771**DCL      4777--REDEF
HIGHEST_SEVERITY
      5181**DCL      7297>>IF       7304>>CALLBLT
ICB.FID.STRING
      5588**DCL      5589--REDEF
IFSFA_PARAM.EOMCHAR#
      5943**DCL      5944--REDEF
IFSFA_PARAM.SIG1
      5937**DCL      5937--REDEF
IFSFA_PARAM.SIG2
      5937**DCL      5938--REDEF
IN_RES
      5510**DCL      5510--REDEF
IN_SN.SN
      5526**DCL      5527--REDEF
M$UNFID
        91**DCL-ENT  7282--CALL
M$WRITE
        29**DCL-ENT  7284--CALL     7303--CALL     7307--CALL     7313--CALL     7318--CALL     7324--CALL
      7330--CALL
ME_BUF
      7278**DCL      7280--ASSIGN   7283<<CALLBLT  7285<<ASSIGN   7289<<CALLBLT  7291<<CALLBLT  7294<<CALLBLT
      7299<<CALLBLT  7302<<CALLBLT  7305<<CALLBLT  7310<<ASSIGN   7312<<ASSIGN   7317<<ASSIGN   7323<<ASSIGN
      7329<<ASSIGN
PL6.E3A0      #006=VPK$STATUS File=VPK$CMDS.:E05TSI                              WED 07/30/97 08:02 Page:214
OCB.TYPE
      5272**DCL      5273--REDEF
OFSFA_PARAM.EOMCHAR#
      5973**DCL      5974--REDEF
OFSFA_PARAM.SIG1
      5967**DCL      5967--REDEF
OFSFA_PARAM.SIG2
      5967**DCL      5968--REDEF
ONE_TIME
      5223**DCL      7314>>IF
OUT_SN.SN
      5544**DCL      5545--REDEF
SPEC_BUF
      5222**DCL      5222--REDEF
TEST_MODE
      5217**DCL      7320>>IF
TEXT_EO
      7279**DCL      7061--DCLINIT  7283>>CALLBLT
T_COUNT
      7276**DCL      7286<<ASSIGN   7292<<ASSIGN   7292>>ASSIGN   7295<<ASSIGN   7295>>ASSIGN   7299>>CALLBLT
      7302>>CALLBLT

PL6.E3A0      #007=VPK$TX File=VPK$CMDS.:E05TSI                                  WED 07/30/97 08:02 Page:215
      801        1        /*T***********************************************************/
      802        2        /*T*                                                         */
      803        3        /*T* Copyright (c) Bull HN Information Systems Inc., 1997    */
      804        4        /*T*                                                         */
      805        5        /*T***********************************************************/
      806        6        VPK$TX: PROC;
      807        7        /*D* NAME: VPK$TX
      808        8             CALL: CALL VPK$TX;
      809        9             DESCRIPTION: This procedure is used to move the TX command arguments
      810       10                          into TABS, an array used to hold PCL tab stops. The tab stops
      811       11                          are checked for validity as they are stored.
      812       12                      If TX ? was the command, the tab stops are reported instead.
      813       13        */
      814       14        /**/
      815       15        /*  INCLUDE FILES  */
      816       16        /**/
      817       17        %INCLUDE VP_DATA_R;
      818     7004        /**/
      819     7005        /*  BASED DATA  */
      820     7006        /**/
      821     7007        %PARSE$OUT(NAME = OUT$BLK,STCLASS = BASED);
      822     7052        %PARSE$SYM(NAME = OUT$SYM,STCLASS = BASED);
      823     7090        /**/
      824     7091        /*  CONSTANT  */
      825     7092        /**/
      826     7093    1   DCL MOP_3_BUF(0:1) BIT(9) CONSTANT INIT(%MVZB2,%MVC1);
      827     7094        /**/
      828     7095        /*  LOCAL AUTO  */
      829     7096        /**/
      830     7097    1   DCL OUT_BUF CHAR(124);
      831     7098    1   DCL 1 OUT_BUF_ARY(0:30) REDEF OUT_BUF,
      832     7099    1         2 COMMA CHAR(1),
      833     7100    1         2 TAB CHAR(3);
      834     7101    1   DCL J SBIN WORD;
      835     7102    1   DCL I SBIN WORD;
      836     7103    1   DCL TWORD UBIN WORD;
      837     7104        /**/
PL6.E3A0      #007=VPK$TX File=VPK$CMDS.:E05TSI                                  WED 07/30/97 08:02 Page:216
      838     7105        /*  ENTRY POINTS  */
      839     7106        /**/
      840     7107        %VP_ENTRIES (OMIT=VPK$TX);
      841     7315        %EJECT;
PL6.E3A0      #007=VPK$TX File=VPK$CMDS.:E05TSI                                  WED 07/30/97 08:02 Page:217
      842     7316    1           REMEMBER TAB_RET IN ABORT_CMD;
      843     7317    1           REMEMBER TAB_RET IN ABORT_STEP;
      844     7318    1           I = PCB.OUT$->OUT$BLK.NSUBLKS;
      845     7319    1           IF I>31
      846     7320    1            THEN
      847     7321    2            DO;
      848     7322    2               CALL VPL$ERR_PROC(1,30,'13'O);
      849     7323        /*E*   ERROR: VPK-00030
      850     7324             MESSAGE: Too many tabs - excess ignored
      851     7325            MESSAGE1: More than 31 tab stops are specified - first 31 used
      852     7326        */
      853     7327    2               I = 31;
      854     7328    2               END;
      855     7329    1           IF I=0 OR (I=1 AND PCB.OUT$->OUT$BLK.SUBLK$(0)->OUT$BLK.CODE=2)
      856     7330    2            THEN DO;                       /* REPORT TAB STOPS                   */
      857     7331    2               IF TABS='0'B
      858     7332    2                THEN
      859     7333    2                  OUT_BUF = '  NONE';
      860     7334    2                ELSE
      861     7335    3                DO;
      862     7336    3                   OUT_BUF = ' ';
      863     7337    3                   J = -1;
      864     7338    3                   I = 0;
      865     7339    4                   DO WHILE(J<TABS(I) AND I<31);
      866     7340    4                      OUT_BUF_ARY.COMMA(I) = ',';
      867     7341    4                      CALL BINCHAR(OUT_BUF_ARY.TAB(I),TABS(I));
      868     7342    4                      CALL EDITCHAR(OUT_BUF_ARY.TAB(I),
      869     7343    4                        0,
      870     7344    4                        3,
      871     7345    4                        MOP_3_BUF,
      872     7346    4                        OUT_BUF_ARY.TAB(I));
      873     7347    4                      J = TABS(I);
      874     7348    4                      I = I+1;
      875     7349    4                      END;
      876     7350    3                   OUT_BUF_ARY.COMMA(0) = ' ';
      877     7351    3                   END;
      878     7352    2               FPT_WRITE_ME.BUF_  = VECTOR(OUT_BUF);
PL6.E3A0      #007=VPK$TX File=VPK$CMDS.:E05TSI                                  WED 07/30/97 08:02 Page:218
      879     7353    2               FPT_WRITE_ME.V.DVBYTE.VFC# = '0'B;
      880     7354    2               CALL M$WRITE(FPT_WRITE_ME);
      881     7355    2               RETURN;
      882     7356    2               END;
      883     7357    1           TABS = '0'B;                    /* CLEAR THE TAB TABLE                */
      884     7358    2           DO J=1 TO I;
      885     7359    2              CALL VPD$TEXTC_CHARBIN(TWORD,
      886     7360    2                PCB.OUT$->OUT$BLK.SUBLK$(J-1)->OUT$SYM.TEXTC$,
      887     7361    2                TWORD) ALTRET(BAD_TAB);
      888     7362    2              IF J>1
      889     7363    2               THEN
      890     7364    2                 IF TWORD<=TABS(J-2)
      891     7365    2                  THEN
      892     7366    2                    GOTO BAD_TAB;
      893     7367    2              TABS(J-1) = TWORD;
      894     7368    2              END;
      895     7369    1   TAB_RET: RETURN;
      896     7370    1   BAD_TAB: CALL VPL$ERR_PROC(3,40,'13'O);
      897     7371        /*E*   ERROR: VPK-00040
      898     7372             MESSAGE: Bad tab
      899     7373            MESSAGE1: Tab stop either > 511 or <= previous tab
      900     7374        */
      901     7375    1   END VPK$TX;

PL6.E3A0      #007=VPK$TX File=VPK$CMDS.:E05TSI                                  WED 07/30/97 08:02 Page:219
--  Include file information  --

   B_MICROPS_C.:E05TOU  is referenced.
   XU_MACRO_C.:E05TOU  is referenced.
   VP_MACRO_C.:E05TOU  is referenced.
   XS_MACRO_C.:E05TOU  is referenced.
   VP_PERR_C.:E05TOU  is referenced.
   CP_6_SUBS.:E05TOU  is referenced.
   CP_6.:E05TOU  cannot be made into a system file and is referenced.
   VP_DATA_R.:E05TOU  cannot be made into a system file and is referenced.
   B$JIT_C.:E05TOU  was found in the system file and is never referenced.
   CP_6_C.:E05TOU  was found in the system file and is referenced.
      No diagnostics issued in procedure VPK$TX.

   Procedure VPK$TX requires 137 words for executable code.
   Procedure VPK$TX requires 42 words of local(AUTO) storage.

    No errors detected in file VPK$CMDS.:E05TSI    .

PL6.E3A0      #007=VPK$TX File=VPK$CMDS.:E05TSI                                  WED 07/30/97 08:02 Page:220

 Object Unit name= VPK$TX                                     File name= VPK$CMDS.:E05TOU
 UTS= JUL 30 '97 08:02:59.00 WED                              Compiler= PL-6/E31         Sev=      00
 SharedLib= :SHARED_SYSTEM                                    Alt SharedLib=


    ****  Control sections  ****

 Sect   Type Bound  Init  Size OctSiz  Section name(segment info)
    0   DCB   even  none     0      0  M$UC
    1   DCB   even  none     0      0  M$EI
    2   DCB   even  none     0      0  M$EO
    3   DCB   even  none     0      0  M$EO1
    4   DCB   even  none     0      0  M$ME
    5   DCB   even  none     0      0  M$SI
    6   DCB   even  none     0      0  M$READFILE
    7   DCB   even  none     0      0  M$DO
    8   DCB   even  none     0      0  M$STD1
    9   DCB   even  none     0      0  M$SORT1
   10  RoData even  UTS      3      3  VPK$TX
   11   Proc  even  none   137    211  VPK$TX
   12  RoData even  none    11     13  VPK$TX

    ****  Entry defs  ****

                              Check   Calling
                             calling  sequence
  Sect OctLoc Primary Altret sequence   type   Parms  Name
    11      0   yes            yes      Std        0  VPK$TX
PL6.E3A0      #007=VPK$TX File=VPK$CMDS.:E05TSI                                  WED 07/30/97 08:02 Page:221

  ****  Entry refs  ****

         Check        Calling
        calling       sequence
Altret sequence SRef   type   Args  Name
         yes           Std       8 VPL$ERR_PROC
 yes     yes           Std       4 VPD$TEXTC_CHARBIN
                       nStd      0 X66_AUTO_0
                       Std       0 B_CONSPOOL_D
                       nStd      0 X66_ARET

  ****  Data refs  ****

  Flags:  r = read only, s = secondary
Flgs Name                             Flgs Name                             Flgs Name
     M$UC                                  PCB                                   ABORT_STEP
     ABORT_CMD                             BREAK_LOC                             BREAK_MESSAGE_REPORTER
     SPEC_BUF                              TABS                                  IN_RES
     M$EI                                  M$EO                                  M$EO1
     M$ME                                  M$SI                                  M$READFILE
     M$DO                                  M$STD1                                M$SORT1
     FPT_WRITE_ME                          B_VECTNIL

  ****  Segment refs  ****

  Flags:  r = read only, s = secondary
Flgs Name                             Flgs Name                             Flgs Name
     ISSID
PL6.E3A0      #007=VPK$TX File=VPK$CMDS.:E05TSI                                  WED 07/30/97 08:02 Page:222


      801        1        /*T***********************************************************/
      802        2        /*T*                                                         */
      803        3        /*T* Copyright (c) Bull HN Information Systems Inc., 1997    */
      804        4        /*T*                                                         */
      805        5        /*T***********************************************************/
      806        6        VPK$TX: PROC;

      6 11 000000   000000 700200 xent  VPK$TX       TSX0  ! X66_AUTO_0
        11 000001   000052 000000                    ZERO    42,0

      807        7        /*D* NAME: VPK$TX
      808        8             CALL: CALL VPK$TX;
      809        9             DESCRIPTION: This procedure is used to move the TX command arguments
      810       10                          into TABS, an array used to hold PCL tab stops. The tab stops
      811       11                          are checked for validity as they are stored.
      812       12                      If TX ? was the command, the tab stops are reported instead.
      813       13        */
      814       14        /**/
      815       15        /*  INCLUDE FILES  */
      816       16        /**/
      817       17        %INCLUDE VP_DATA_R;
      818     7004        /**/
      819     7005        /*  BASED DATA  */
      820     7006        /**/
      821     7007        %PARSE$OUT(NAME = OUT$BLK,STCLASS = BASED);
      822     7052        %PARSE$SYM(NAME = OUT$SYM,STCLASS = BASED);
      823     7090        /**/
      824     7091        /*  CONSTANT  */
      825     7092        /**/
      826     7093    1   DCL MOP_3_BUF(0:1) BIT(9) CONSTANT INIT(%MVZB2,%MVC1);
      827     7094        /**/
      828     7095        /*  LOCAL AUTO  */
      829     7096        /**/
      830     7097    1   DCL OUT_BUF CHAR(124);
      831     7098    1   DCL 1 OUT_BUF_ARY(0:30) REDEF OUT_BUF,
      832     7099    1         2 COMMA CHAR(1),
PL6.E3A0      #007=VPK$TX File=VPK$CMDS.:E05TSI                                  WED 07/30/97 08:02 Page:223
      833     7100    1         2 TAB CHAR(3);
      834     7101    1   DCL J SBIN WORD;
      835     7102    1   DCL I SBIN WORD;
      836     7103    1   DCL TWORD UBIN WORD;
      837     7104        /**/
      838     7105        /*  ENTRY POINTS  */
      839     7106        /**/
      840     7107        %VP_ENTRIES (OMIT=VPK$TX);
      841     7315        %EJECT;
PL6.E3A0      #007=VPK$TX File=VPK$CMDS.:E05TSI                                  WED 07/30/97 08:02 Page:224
      842     7316    1           REMEMBER TAB_RET IN ABORT_CMD;

   7316 11 000002   000203 635000 11                 EAA     TAB_RET
        11 000003   000000 452400 xsym               STP2    ABORT_CMD
        11 000004   000001 755000 xsym               STA     ABORT_CMD+1

      843     7317    1           REMEMBER TAB_RET IN ABORT_STEP;

   7317 11 000005   000203 635000 11                 EAA     TAB_RET
        11 000006   000000 452400 xsym               STP2    ABORT_STEP
        11 000007   000001 755000 xsym               STA     ABORT_STEP+1

      844     7318    1           I = PCB.OUT$->OUT$BLK.NSUBLKS;

   7318 11 000010   000003 470400 xsym               LDP0    PCB+3
        11 000011   000001 236100                    LDQ     1,,PR0
        11 000012   000022 772000                    QRL     18
        11 000013   200043 756100                    STQ     I,,AUTO

      845     7319    1           IF I>31

   7319 11 000014   000037 116007                    CMPQ    31,DL
        11 000015   000024 604400 11                 TMOZ    s:7329

      846     7320    1            THEN
      847     7321    2            DO;

      848     7322    2               CALL VPL$ERR_PROC(1,30,'13'O);

   7322 11 000016   000002 630400 12                 EPPR0   2
        11 000017   000021 631400 xsym               EPPR1   B_VECTNIL+17
        11 000020   000000 701000 xent               TSX1    VPL$ERR_PROC
        11 000021   000000 011000                    NOP     0

      849     7323        /*E*   ERROR: VPK-00030
      850     7324             MESSAGE: Too many tabs - excess ignored
      851     7325            MESSAGE1: More than 31 tab stops are specified - first 31 used
PL6.E3A0      #007=VPK$TX File=VPK$CMDS.:E05TSI                                  WED 07/30/97 08:02 Page:225
      852     7326        */
      853     7327    2               I = 31;

   7327 11 000022   000037 235007                    LDA     31,DL
        11 000023   200043 755100                    STA     I,,AUTO

      854     7328    2               END;

      855     7329    1           IF I=0 OR (I=1 AND PCB.OUT$->OUT$BLK.SUBLK$(0)->OUT$BLK.CODE=2)

   7329 11 000024   200043 235100                    LDA     I,,AUTO
        11 000025   000035 600000 11                 TZE     s:7331
        11 000026   000001 115007                    CMPA    1,DL
        11 000027   000140 601000 11                 TNZ     s:7357
        11 000030   000003 470400 xsym               LDP0    PCB+3
        11 000031   000003 471500                    LDP1    3,,PR0
        11 000032   100000 720100                    LXL0    0,,PR1
        11 000033   000002 100003                    CMPX0   2,DU
        11 000034   000140 601000 11                 TNZ     s:7357

      856     7330    2            THEN DO;                       /* REPORT TAB STOPS                   */

      857     7331    2               IF TABS='0'B

   7331 11 000035   000000 106400                    CMPC    fill='000'O
        11 000036   000000 000037 xsym               ADSC9   TABS                     cn=0,n=31
        11 000037   000002 000002 xsym               ADSC9   B_VECTNIL+2              cn=0,n=2
        11 000040   000045 601000 11                 TNZ     s:7336

      858     7332    2                THEN
      859     7333    2                  OUT_BUF = '  NONE';

   7333 11 000041   040100 100400                    MLR     fill='040'O
        11 000042   000001 000006 10                 ADSC9   MOP_3_BUF+1              cn=0,n=6
        11 000043   200003 000174                    ADSC9   OUT_BUF,,AUTO            cn=0,n=124
        11 000044   000125 710000 11                 TRA     s:7352

PL6.E3A0      #007=VPK$TX File=VPK$CMDS.:E05TSI                                  WED 07/30/97 08:02 Page:226
      860     7334    2                ELSE
      861     7335    3                DO;

      862     7336    3                   OUT_BUF = ' ';

   7336 11 000045   040100 100400                    MLR     fill='040'O
        11 000046   000035 000001 xsym               ADSC9   B_VECTNIL+29             cn=0,n=1
        11 000047   200003 000174                    ADSC9   OUT_BUF,,AUTO            cn=0,n=124

      863     7337    3                   J = -1;

   7337 11 000050   000001 336007                    LCQ     1,DL
        11 000051   200042 756100                    STQ     J,,AUTO

      864     7338    3                   I = 0;

   7338 11 000052   200043 450100                    STZ     I,,AUTO

      865     7339    4                   DO WHILE(J<TABS(I) AND I<31);

   7339 11 000053   000112 710000 11                 TRA     s:7349

      866     7340    4                      OUT_BUF_ARY.COMMA(I) = ',';

   7340 11 000054   200043 720100                    LXL0    I,,AUTO
        11 000055   200003 236110                    LDQ     OUT_BUF,X0,AUTO
        11 000056   000032 376000 xsym               ANQ     B_VECTNIL+26
        11 000057   054000 276003                    ORQ     22528,DU
        11 000060   200003 756110                    STQ     OUT_BUF,X0,AUTO

      867     7341    4                      CALL BINCHAR(OUT_BUF_ARY.TAB(I),TABS(I));

   7341 11 000061   200043 235100                    LDA     I,,AUTO
        11 000062   000002 735000                    ALS     2
        11 000063   200043 236100                    LDQ     I,,AUTO
        11 000064   000100 101406                    MRL     fill='000'O
        11 000065   000000 000001 xsym               ADSC9   TABS,Q                   cn=0,n=1
PL6.E3A0      #007=VPK$TX File=VPK$CMDS.:E05TSI                                  WED 07/30/97 08:02 Page:227
        11 000066   200046 000004                    ADSC9   TWORD+2,,AUTO            cn=0,n=4
        11 000067   200046 236100                    LDQ     TWORD+2,,AUTO
        11 000070   200047 755100                    STA     TWORD+3,,AUTO
        11 000071   000000 235003                    LDA     0,DU
        11 000072   200050 757100                    STAQ    TWORD+4,,AUTO
        11 000073   200047 235100                    LDA     TWORD+3,,AUTO
        11 000074   000105 301500                    BTD
        11 000075   200050 000010                    NDSC9   TWORD+4,,AUTO            cn=0,s=lsgnf,sf=0,n=8
        11 000076   200003 230003                    NDSC9   OUT_BUF,A,AUTO           cn=1,s=nosgn,sf=0,n=3

      868     7342    4                      CALL EDITCHAR(OUT_BUF_ARY.TAB(I),

   7342 11 000077   200043 235100                    LDA     I,,AUTO
        11 000100   000002 735000                    ALS     2
        11 000101   105000 024505                    MVNE
        11 000102   200003 230003                    NDSC9   OUT_BUF,A,AUTO           cn=1,s=nosgn,sf=0,n=3
        11 000103   000000 000002 10                 ADSC9   MOP_3_BUF                cn=0,n=2
        11 000104   200003 200003                    ADSC9   OUT_BUF,A,AUTO           cn=1,n=3

      869     7343    4                        0,
      870     7344    4                        3,
      871     7345    4                        MOP_3_BUF,
      872     7346    4                        OUT_BUF_ARY.TAB(I));
      873     7347    4                      J = TABS(I);

   7347 11 000105   200043 236100                    LDQ     I,,AUTO
        11 000106   000100 101406                    MRL     fill='000'O
        11 000107   000000 000001 xsym               ADSC9   TABS,Q                   cn=0,n=1
        11 000110   200042 000004                    ADSC9   J,,AUTO                  cn=0,n=4

      874     7348    4                      I = I+1;

   7348 11 000111   200043 054100                    AOS     I,,AUTO

      875     7349    4                      END;

   7349 11 000112   200043 235100                    LDA     I,,AUTO
PL6.E3A0      #007=VPK$TX File=VPK$CMDS.:E05TSI                                  WED 07/30/97 08:02 Page:228
        11 000113   000100 101405                    MRL     fill='000'O
        11 000114   000000 000001 xsym               ADSC9   TABS,A                   cn=0,n=1
        11 000115   200046 000004                    ADSC9   TWORD+2,,AUTO            cn=0,n=4
        11 000116   200046 236100                    LDQ     TWORD+2,,AUTO
        11 000117   200042 116100                    CMPQ    J,,AUTO
        11 000120   000123 604400 11                 TMOZ    s:7350
        11 000121   000037 115007                    CMPA    31,DL
        11 000122   000054 604000 11                 TMI     s:7340

      876     7350    3                   OUT_BUF_ARY.COMMA(0) = ' ';

   7350 11 000123   040000 236003                    LDQ     16384,DU
        11 000124   200003 552140                    STBQ    OUT_BUF,'40'O,AUTO

      877     7351    3                   END;

      878     7352    2               FPT_WRITE_ME.BUF_  = VECTOR(OUT_BUF);

   7352 11 000125   000005 235000 12                 LDA     5
        11 000126   200046 452500                    STP2    TWORD+2,,AUTO
        11 000127   200046 236100                    LDQ     TWORD+2,,AUTO
        11 000130   000003 036003                    ADLQ    3,DU
        11 000131   000004 757000 xsym               STAQ    FPT_WRITE_ME+4

      879     7353    2               FPT_WRITE_ME.V.DVBYTE.VFC# = '0'B;

   7353 11 000132   000006 236000 12                 LDQ     6
        11 000133   000013 356000 xsym               ANSQ    FPT_WRITE_ME+11

      880     7354    2               CALL M$WRITE(FPT_WRITE_ME);

   7354 11 000134   000000 630400 xsym               EPPR0   FPT_WRITE_ME
        11 000135   040001 713400                    CLIMB   write
        11 000136   401400 401760                    pmme    nvectors=4

      881     7355    2               RETURN;

PL6.E3A0      #007=VPK$TX File=VPK$CMDS.:E05TSI                                  WED 07/30/97 08:02 Page:229
   7355 11 000137   000000 702200 xent               TSX2  ! X66_ARET

      882     7356    2               END;
      883     7357    1           TABS = '0'B;                    /* CLEAR THE TAB TABLE                */

   7357 11 000140   000000 100400                    MLR     fill='000'O
        11 000141   000002 000001 xsym               ADSC9   B_VECTNIL+2              cn=0,n=1
        11 000142   000000 000037 xsym               ADSC9   TABS                     cn=0,n=31

      884     7358    2           DO J=1 TO I;

   7358 11 000143   000001 236007                    LDQ     1,DL
        11 000144   200042 756100                    STQ     J,,AUTO
        11 000145   000200 710000 11                 TRA     s:7368+1

      885     7359    2              CALL VPD$TEXTC_CHARBIN(TWORD,

   7359 11 000146   000003 470400 xsym               LDP0    PCB+3
        11 000147   200042 720100                    LXL0    J,,AUTO
        11 000150   000002 471510                    LDP1    2,X0,PR0
        11 000151   200044 633500                    EPPR3   TWORD,,AUTO
        11 000152   200050 453500                    STP3    TWORD+4,,AUTO
        11 000153   100003 634500                    EPPR4   3,,PR1
        11 000154   200047 454500                    STP4    TWORD+3,,AUTO
        11 000155   200044 631500                    EPPR1   TWORD,,AUTO
        11 000156   200046 451500                    STP1    TWORD+2,,AUTO
        11 000157   200046 630500                    EPPR0   TWORD+2,,AUTO
        11 000160   000021 631400 xsym               EPPR1   B_VECTNIL+17
        11 000161   000000 701000 xent               TSX1    VPD$TEXTC_CHARBIN
        11 000162   000204 702000 11                 TSX2    BAD_TAB

      886     7360    2                PCB.OUT$->OUT$BLK.SUBLK$(J-1)->OUT$SYM.TEXTC$,
      887     7361    2                TWORD) ALTRET(BAD_TAB);
      888     7362    2              IF J>1

   7362 11 000163   200042 235100                    LDA     J,,AUTO
        11 000164   000001 115007                    CMPA    1,DL
PL6.E3A0      #007=VPK$TX File=VPK$CMDS.:E05TSI                                  WED 07/30/97 08:02 Page:230
        11 000165   000174 604400 11                 TMOZ    s:7367

      889     7363    2               THEN
      890     7364    2                 IF TWORD<=TABS(J-2)

   7364 11 000166   000100 101405                    MRL     fill='000'O
        11 000167   777777 400001 xsym               ADSC9   TABS-1,A                 cn=2,n=1
        11 000170   200046 000004                    ADSC9   TWORD+2,,AUTO            cn=0,n=4
        11 000171   200046 236100                    LDQ     TWORD+2,,AUTO
        11 000172   200044 116100                    CMPQ    TWORD,,AUTO
        11 000173   000204 603000 11                 TRC     BAD_TAB

      891     7365    2                  THEN
      892     7366    2                    GOTO BAD_TAB;
      893     7367    2              TABS(J-1) = TWORD;

   7367 11 000174   000005 101500                    MRL     fill='000'O
        11 000175   200044 000004                    ADSC9   TWORD,,AUTO              cn=0,n=4
        11 000176   777777 600001 xsym               ADSC9   TABS-1,A                 cn=3,n=1

      894     7368    2              END;

   7368 11 000177   200042 054100                    AOS     J,,AUTO
        11 000200   200042 236100                    LDQ     J,,AUTO
        11 000201   200043 116100                    CMPQ    I,,AUTO
        11 000202   000146 604400 11                 TMOZ    s:7359

      895     7369    1   TAB_RET: RETURN;

   7369 11 000203   000000 702200 xent  TAB_RET      TSX2  ! X66_ARET

      896     7370    1   BAD_TAB: CALL VPL$ERR_PROC(3,40,'13'O);

   7370 11 000204   000010 630400 12    BAD_TAB      EPPR0   8
        11 000205   000021 631400 xsym               EPPR1   B_VECTNIL+17
        11 000206   000000 701000 xent               TSX1    VPL$ERR_PROC
        11 000207   000000 011000                    NOP     0
PL6.E3A0      #007=VPK$TX File=VPK$CMDS.:E05TSI                                  WED 07/30/97 08:02 Page:231

      897     7371        /*E*   ERROR: VPK-00040
      898     7372             MESSAGE: Bad tab
      899     7373            MESSAGE1: Tab stop either > 511 or <= previous tab
      900     7374        */
      901     7375    1   END VPK$TX;

   7375 11 000210   000000 702200 xent               TSX2  ! X66_ARET

PL6.E3A0      #007=VPK$TX File=VPK$CMDS.:E05TSI                                  WED 07/30/97 08:02 Page:232
--  Include file information  --

   B_MICROPS_C.:E05TOU  is referenced.
   XU_MACRO_C.:E05TOU  is referenced.
   VP_MACRO_C.:E05TOU  is referenced.
   XS_MACRO_C.:E05TOU  is referenced.
   VP_PERR_C.:E05TOU  is referenced.
   CP_6_SUBS.:E05TOU  is referenced.
   CP_6.:E05TOU  cannot be made into a system file and is referenced.
   VP_DATA_R.:E05TOU  cannot be made into a system file and is referenced.
   B$JIT_C.:E05TOU  was found in the system file and is never referenced.
   CP_6_C.:E05TOU  was found in the system file and is referenced.
      No diagnostics issued in procedure VPK$TX.
PL6.E3A0      #007=VPK$TX File=VPK$CMDS.:E05TSI                                  WED 07/30/97 08:02 Page:233

 **** Variables and constants ****

  ****  Section 010 RoData VPK$TX

  ****  Scalars and arrays  ****
OctLoc.c.b A Datatyp(siz) R M Lvl/name                 OctLoc.c.b A Datatyp(siz) R M Lvl/name

     0-0-0/b BIT (9)     r     1 MOP_3_BUF(0:1)

  ****  Auto variables  ****

  ****  Scalars and arrays  ****
OctLoc.c.b A Datatyp(siz) R M Lvl/name                 OctLoc.c.b A Datatyp(siz) R M Lvl/name

    43-0-0/w SBIN        r     1 I                         42-0-0/w SBIN        r     1 J
     3-0-0/c CHAR(124)   r     1 OUT_BUF
     3-0-0/c STRC        r     1 OUT_BUF_ARY(0:30)
    44-0-0/w UBIN        r     1 TWORD

  ****  SYMREF variables  ****

  ****  Scalars and arrays  ****
OctLoc.c.b A Datatyp(siz) R M Lvl/name                 OctLoc.c.b A Datatyp(siz) R M Lvl/name

     0-0-0/d REMB        r     1 ABORT_CMD                  0-0-0/d REMB        r     1 ABORT_STEP
     0-0-0/w EPTR        r     1 BREAK_MESSAGE_REPORTER
     0-0-0/d STRC(432)   r     1 FPT_WRITE_ME               0-0-0/w STRC(504)   r     1 PCB
     0-0-0/b UBIN(9)     r     1 TABS(0:30)

  ****  BASED and DCB variables  ****

  ****  Scalars and arrays  ****
OctLoc.c.b A Datatyp(siz) R M Lvl/name                 OctLoc.c.b A Datatyp(siz) R M Lvl/name

     0-0-0/w STRC(144)   r     1 OUT$BLK                    0-0-0/w ASTR(153)   r     1 OUT$SYM

PL6.E3A0      #007=VPK$TX File=VPK$CMDS.:E05TSI                                  WED 07/30/97 08:02 Page:234

   Procedure VPK$TX requires 137 words for executable code.
   Procedure VPK$TX requires 42 words of local(AUTO) storage.

    No errors detected in file VPK$CMDS.:E05TSI    .
PL6.E3A0      #007=VPK$TX File=VPK$CMDS.:E05TSI                                  WED 07/30/97 08:02 Page:235
          *** CROSS REFERENCE LISTING ***
**     DENOTES     IDENTIFIER DEFINITION
<<                 IDENTIFIER'S VALUE SET
>>                 IDENTIFIER'S VALUE USED
<>                 IDENTIFIER SET AND/OR USED
--                 IDENTIFIER REFERENCED
PL6.E3A0      #007=VPK$TX File=VPK$CMDS.:E05TSI                                  WED 07/30/97 08:02 Page:236
          MINI XREF LISTING

ABORT_CMD
      5189**DCL      7316<<REMEMBR
ABORT_STEP
      5188**DCL      7317<<REMEMBR
BAD_TAB
      7370**LABEL    7359--CALLALT  7366--GOTO
BREAK_LOC
      5224**DCL      5224--REDEF
DEF_ICB.FID.STRING
      5822**DCL      5823--REDEF
DEV_ICB.FID.STRING
      5708**DCL      5709--REDEF
EI_KEY.KEY
      5920**DCL      5920--REDEF    5920--REDEF    5920--REDEF
EO_OCB.TYPE
      5420**DCL      5421--REDEF
FPT_CLOSE_EI.SN_
      6761**DCL      6761--REDEF
FPT_CLOSE_EI.UTL_
      6762**DCL      6762--REDEF
FPT_CLOSE_EI.V.EXPIRE#
      6776**DCL      6776--REDEF
FPT_CLOSE_EI.V.TYPE#
      6774**DCL      6774--REDEF
FPT_CLOSE_EI.V.XTNSIZE#
      6771**DCL      6771--REDEF    6773--REDEF
FPT_CLOSE_PTL.SN_
      6887**DCL      6887--REDEF
FPT_CLOSE_PTL.UTL_
      6888**DCL      6888--REDEF
FPT_CLOSE_PTL.V.EXPIRE#
      6902**DCL      6902--REDEF
PL6.E3A0      #007=VPK$TX File=VPK$CMDS.:E05TSI                                  WED 07/30/97 08:02 Page:237
FPT_CLOSE_PTL.V.TYPE#
      6900**DCL      6900--REDEF
FPT_CLOSE_PTL.V.XTNSIZE#
      6897**DCL      6897--REDEF    6899--REDEF
FPT_CLOSE_READ.SN_
      6803**DCL      6803--REDEF
FPT_CLOSE_READ.UTL_
      6804**DCL      6804--REDEF
FPT_CLOSE_READ.V.EXPIRE#
      6818**DCL      6818--REDEF
FPT_CLOSE_READ.V.TYPE#
      6816**DCL      6816--REDEF
FPT_CLOSE_READ.V.XTNSIZE#
      6813**DCL      6813--REDEF    6815--REDEF
FPT_CLOSE_SI.SN_
      6971**DCL      6971--REDEF
FPT_CLOSE_SI.UTL_
      6972**DCL      6972--REDEF
FPT_CLOSE_SI.V.EXPIRE#
      6986**DCL      6986--REDEF
FPT_CLOSE_SI.V.TYPE#
      6984**DCL      6984--REDEF
FPT_CLOSE_SI.V.XTNSIZE#
      6981**DCL      6981--REDEF    6983--REDEF
FPT_CLOSE_STD.SN_
      6929**DCL      6929--REDEF
FPT_CLOSE_STD.UTL_
      6930**DCL      6930--REDEF
FPT_CLOSE_STD.V.EXPIRE#
      6944**DCL      6944--REDEF
FPT_CLOSE_STD.V.TYPE#
      6942**DCL      6942--REDEF
FPT_CLOSE_STD.V.XTNSIZE#
      6939**DCL      6939--REDEF    6941--REDEF
FPT_CLSEI_FT.SN_
      6845**DCL      6845--REDEF
PL6.E3A0      #007=VPK$TX File=VPK$CMDS.:E05TSI                                  WED 07/30/97 08:02 Page:238
FPT_CLSEI_FT.UTL_
      6846**DCL      6846--REDEF
FPT_CLSEI_FT.V.EXPIRE#
      6860**DCL      6860--REDEF
FPT_CLSEI_FT.V.TYPE#
      6858**DCL      6858--REDEF
FPT_CLSEI_FT.V.XTNSIZE#
      6855**DCL      6855--REDEF    6857--REDEF
FPT_OPEN_EI.ACSVEH_
      6416**DCL      6417--REDEF
FPT_OPEN_EI.ALTKEYS_
      6422**DCL      6423--REDEF    6423--REDEF
FPT_OPEN_EI.HDR_
      6421**DCL      6422--REDEF
FPT_OPEN_EI.TAB_
      6420**DCL      6421--REDEF
FPT_OPEN_EI.UHL_
      6414**DCL      6415--REDEF    6415--REDEF
FPT_OPEN_EI.V.FSN#
      6454**DCL      6454--REDEF    6454--REDEF
FPT_OPEN_EI.WSN_
      6420**DCL      6420--REDEF
FPT_OPEN_EI_SAVE.ACSVEH_
      6525**DCL      6526--REDEF
FPT_OPEN_EI_SAVE.ALTKEYS_
      6531**DCL      6532--REDEF    6532--REDEF
FPT_OPEN_EI_SAVE.HDR_
      6530**DCL      6531--REDEF
FPT_OPEN_EI_SAVE.TAB_
      6529**DCL      6530--REDEF
FPT_OPEN_EI_SAVE.UHL_
      6523**DCL      6524--REDEF    6524--REDEF
FPT_OPEN_EI_SAVE.V.FSN#
      6563**DCL      6563--REDEF    6563--REDEF
FPT_OPEN_EI_SAVE.WSN_
      6529**DCL      6529--REDEF
PL6.E3A0      #007=VPK$TX File=VPK$CMDS.:E05TSI                                  WED 07/30/97 08:02 Page:239
FPT_OPEN_OUT.ACSVEH_
      6307**DCL      6308--REDEF
FPT_OPEN_OUT.ALTKEYS_
      6313**DCL      6314--REDEF    6314--REDEF
FPT_OPEN_OUT.HDR_
      6312**DCL      6313--REDEF
FPT_OPEN_OUT.TAB_
      6311**DCL      6312--REDEF
FPT_OPEN_OUT.UHL_
      6305**DCL      6306--REDEF    6306--REDEF
FPT_OPEN_OUT.V.FSN#
      6345**DCL      6345--REDEF    6345--REDEF
FPT_OPEN_OUT.WSN_
      6311**DCL      6311--REDEF
FPT_OPEN_OUT_SAVE.ACSVEH_
      6198**DCL      6199--REDEF
FPT_OPEN_OUT_SAVE.ALTKEYS_
      6204**DCL      6205--REDEF    6205--REDEF
FPT_OPEN_OUT_SAVE.HDR_
      6203**DCL      6204--REDEF
FPT_OPEN_OUT_SAVE.TAB_
      6202**DCL      6203--REDEF
FPT_OPEN_OUT_SAVE.UHL_
      6196**DCL      6197--REDEF    6197--REDEF
FPT_OPEN_OUT_SAVE.V.FSN#
      6236**DCL      6236--REDEF    6236--REDEF
FPT_OPEN_OUT_SAVE.WSN_
      6202**DCL      6202--REDEF
FPT_READ_STD.STATION_
      6626**DCL      6627--REDEF
FPT_READ_STD.V.DVBYTE.REREAD#
      6638**DCL      6638--REDEF
FPT_READ_STD.V.INDX#
      6636**DCL      6636--REDEF
FPT_READ_UC.STATION_
      6587**DCL      6588--REDEF
PL6.E3A0      #007=VPK$TX File=VPK$CMDS.:E05TSI                                  WED 07/30/97 08:02 Page:240
FPT_READ_UC.V.DVBYTE.REREAD#
      6599**DCL      6599--REDEF
FPT_READ_UC.V.INDX#
      6597**DCL      6597--REDEF
FPT_WRITE_ME
      6693**DCL      7354<>CALL
FPT_WRITE_ME.BUF_
      6693**DCL      7352<<ASSIGN
FPT_WRITE_ME.STATION_
      6695**DCL      6695--REDEF
FPT_WRITE_ME.V.DVBYTE.VFC#
      6702**DCL      6702--REDEF    7353<<ASSIGN
FPT_WRITE_OUT.STATION_
      6726**DCL      6726--REDEF
FPT_WRITE_OUT.V.DVBYTE.VFC#
      6733**DCL      6733--REDEF
FPT_WRITE_UC.STATION_
      6664**DCL      6664--REDEF
FPT_WRITE_UC.V.DVBYTE.VFC#
      6671**DCL      6671--REDEF
FROM_SN.SN
      5570**DCL      5571--REDEF
GETCMD.OUT$
      4777**DCL      4783--REDEF
I
      7102**DCL      7318<<ASSIGN   7319>>IF       7327<<ASSIGN   7329>>IF       7329>>IF       7338<<ASSIGN
      7339>>DOWHILE  7339>>DOWHILE  7340>>ASSIGN   7341>>CALLBLT  7341>>CALLBLT  7342>>CALLBLT  7342>>CALLBLT
      7347>>ASSIGN   7348<<ASSIGN   7348>>ASSIGN   7358>>DOINDEX
ICB.FID.STRING
      5594**DCL      5595--REDEF
IFSFA_PARAM.EOMCHAR#
      5949**DCL      5950--REDEF
IFSFA_PARAM.SIG1
      5943**DCL      5943--REDEF
IFSFA_PARAM.SIG2
      5943**DCL      5944--REDEF
PL6.E3A0      #007=VPK$TX File=VPK$CMDS.:E05TSI                                  WED 07/30/97 08:02 Page:241
IN_RES
      5516**DCL      5516--REDEF
IN_SN.SN
      5532**DCL      5533--REDEF
J
      7101**DCL      7337<<ASSIGN   7339>>DOWHILE  7347<<ASSIGN   7358<<DOINDEX  7359>>CALL     7362>>IF
      7364>>IF       7367>>ASSIGN
M$WRITE
        35**DCL-ENT  7354--CALL
MOP_3_BUF
      7093**DCL      7342>>CALLBLT
OCB.TYPE
      5278**DCL      5279--REDEF
OFSFA_PARAM.EOMCHAR#
      5979**DCL      5980--REDEF
OFSFA_PARAM.SIG1
      5973**DCL      5973--REDEF
OFSFA_PARAM.SIG2
      5973**DCL      5974--REDEF
OUT$BLK.CODE
      7021**DCL      7329>>IF
OUT$BLK.NSUBLKS
      7025**DCL      7318>>ASSIGN
OUT$BLK.SUBLK$
      7046**DCL      7329>>IF       7359>>CALL
OUT$SYM.COUNT
      7082**DCL      7085--IMP-SIZ
OUT$SYM.TEXTC$
      7077**DCL      7359<>CALL
OUT_BUF
      7097**DCL      7098--REDEF    7333<<ASSIGN   7336<<ASSIGN   7352--ASSIGN
OUT_BUF_ARY.COMMA
      7099**DCL      7340<<ASSIGN   7350<<ASSIGN
OUT_BUF_ARY.TAB
      7100**DCL      7341<<CALLBLT  7342<<CALLBLT  7342>>CALLBLT
OUT_SN.SN
PL6.E3A0      #007=VPK$TX File=VPK$CMDS.:E05TSI                                  WED 07/30/97 08:02 Page:242
      5550**DCL      5551--REDEF
PCB.OUT$
      4591**DCL      7318>>ASSIGN   7329>>IF       7359>>CALL
SPEC_BUF
      5228**DCL      5228--REDEF
TABS
      5230**DCL      7331>>IF       7339>>DOWHILE  7341>>CALLBLT  7347>>ASSIGN   7357<<ASSIGN   7364>>IF
      7367<<ASSIGN
TAB_RET
      7369**LABEL    7316--REMEMBR  7317--REMEMBR
TWORD
      7103**DCL      7359<>CALL     7359<>CALL     7364>>IF       7367>>ASSIGN
VPD$TEXTC_CHARBIN
      7189**DCL-ENT  7359--CALL
VPL$ERR_PROC
      7289**DCL-ENT  7322--CALL     7370--CALL
