VERSION E05

PL6.E3A0      #001=VP_DATA_D File=VP_DATA_D.:E05TSI                              WED 07/30/97 07:59 Page:1
        1        1        /*M* VP_DATA_D All symdef data for PCL...Also contains DCB DCL's              */
        2        2        /*T***********************************************************/
        3        3        /*T*                                                         */
        4        4        /*T* Copyright (c) Bull HN Information Systems Inc., 1997    */
        5        5        /*T*                                                         */
        6        6        /*T***********************************************************/
        7        7        /*X* THI=1,DTI=1
        8        8        */
        9        9        VP_DATA_D: PROC;
       10       10        %INCLUDE CP_6;
       11       91        %INCLUDE CP_6_SUBS;
       12      631        %INCLUDE VP_PERR_C;
       13      707        %INCLUDE XS_MACRO_C;                    /* FSFA MACROs                        */
       14      751        %INCLUDE VP_MACRO_C;
       15     1265        %INCLUDE XU_MACRO_C;
       16     4371        %INCLUDE B_MICROPS_C;
       17     4543        /**/
       18     4544        /*  Parsing equipment  */
       19     4545        /**/
       20     4546    1   DCL PARSE_IN_BUF CHAR(1024) STATIC SYMDEF;
       21     4547    1   DCL PARSE_WORK_AREA(0:512) SBIN WORD STATIC SYMDEF;
       22     4548    1   DCL PARSE_INPUT_OFFSET SBIN WORD STATIC SYMDEF; /* Accumulates the lengths    */
       23     4549    1   DCL STD_WORK$ PTR STATIC SYMDEF;
       24     4550                                                /* of all previous pieces of a con-   */
       25     4551                                                /* tinued line.                       */
       26     4552    1   DCL SUCCESS_NODE BIT(1) STATIC SYMDEF;
       27     4553    1   DCL COMMAND_STUFFED BIT(1) STATIC SYMDEF;
       28     4554    1   DCL PRE_PARSED BIT(1) STATIC SYMDEF;
       29     4555    1   DCL READ_FILE BIT(1) STATIC SYMDEF INIT('0'B); /* Set if READ command effect  */
       30     4556        %P_PCB(NAME=PCB,
       31     4557               T=PARSE_IN_BUF,
       32     4558               STCLASS = "STATIC SYMDEF");
       33     4757        %XUG_GETCMD   (NAME=GETCMD, STCLASS=STATIC SYMDEF);
       34     5095        %EJECT;
PL6.E3A0      #001=VP_DATA_D File=VP_DATA_D.:E05TSI                              WED 07/30/97 07:59 Page:2
       35     5096        /**/
       36     5097        /*  Error control  */
       37     5098        /**/
       38     5099        %VLP_ERRCODE(FPTN = INPUT_ERR,STCLASS = "STATIC SYMDEF");
       39     5144        %VLP_ERRCODE(FPTN = OUTPUT_ERR,STCLASS = "STATIC SYMDEF");
       40     5189    1   DCL ERR_FLG BIT(1) ALIGNED STATIC SYMDEF; /* Set if VPL$ERR_PROC called with  */
       41     5190                                                /* SEV>1 this time through.           */
       42     5191    1   DCL ERROR_SEVERITY SBIN WORD STATIC SYMDEF INIT(2); /* Init to continue       */
       43     5192    1   DCL HIGHEST_SEVERITY SBIN WORD STATIC SYMDEF INIT(0); /* Default to set STEPCC */
       44     5193    1   DCL ERROR_DCB SBIN WORD STATIC SYMDEF INIT(0); /* DCB passed to M$ERRMSG      */
       45     5194    1   DCL TRAP_COUNT SBIN WORD STATIC SYMDEF INIT(0);
       46     5195    1   DCL ERR_BUF CHAR(120) STATIC SYMDEF;
       47     5196    1   DCL ERR_LEN SBIN WORD STATIC SYMDEF;
       48     5197    1   DCL ABORT_STEP REMEMBER DALIGNED STATIC SYMDEF;
       49     5198    1   DCL ABORT_CMD REMEMBER DALIGNED STATIC SYMDEF;
       50     5199    1   DCL ABORT_PCL REMEMBER DALIGNED STATIC SYMDEF;
       51     5200    1   DCL TRAP_PCL REMEMBER DALIGNED STATIC SYMDEF;
       52     5201    1   DCL CLEAN_POINT REMEMBER DALIGNED STATIC SYMDEF;
       53     5202    1   DCL 1 ERR_CODE STATIC SYMDEF,
       54     5203    1         2 FCG BIT(12) UNAL,
       55     5204    1         2 MID BIT(6) UNAL,
       56     5205    1         2 MON BIT(1) UNAL,
       57     5206    1         2 CODE UBIN(14) UNAL,
       58     5207    1         2 SEV UBIN(3) UNAL;
       59     5208    1   DCL 1 HELP_ERR_CODE STATIC SYMDEF,
       60     5209    1         2 FCG BIT(12) UNAL INIT('2620'O), /* VP IN SIXBIT                       */
       61     5210    1         2 MID BIT(6) UNAL INIT('04'O),    /* D IN SIXBIT                        */
       62     5211    1         2 CODE UBIN(15) UNAL,
       63     5212    1         2 SEV UBIN(3) UNAL INIT(0);
       64     5213        %VLP_NAME(FPTN = HELP_KEYWORD,LEN = 31,STCLASS = "STATIC SYMDEF");
       65     5240    1   DCL ERR_SAVE_REL SBIN WORD INIT(2) STATIC SYMDEF; /* INIT TO RELEASE          */
       66     5241    1   DCL ERRMSG_ACCT CHAR(8) STATIC SYMDEF INIT(':SYS');
       67     5242    1   DCL ERRMSG_PASS CHAR(8) STATIC SYMDEF INIT(' ');
       68     5243    1   DCL 1 ERRMSG_NAME STATIC SYMDEF,
       69     5244    1         2 LEN UBIN BYTE UNAL INIT(7),
       70     5245    1         2 STRING CHAR(31) UNAL INIT(':ERRMSG');
       71     5246        %EJECT;
PL6.E3A0      #001=VP_DATA_D File=VP_DATA_D.:E05TSI                              WED 07/30/97 07:59 Page:3
       72     5247        /**/
       73     5248        /*  Assorted bilge  */
       74     5249        /**/
       75     5250    1   DCL 1 TEST_PATTERN SYMDEF CONSTANT,
       76     5251    1         2 * CHAR(3) INIT('TST'),
       77     5252    1         2 * BIT(9)  INIT('000'O);
       78     5253    1   DCL MIN_PAGES SBIN WORD CONSTANT SYMDEF INIT(2);
       79     5254    1   DCL USE_CONT BIT(1) STATIC SYMDEF INIT('0'B);
       80     5255    1   DCL LIST_IDX SBIN STATIC SYMDEF INIT(0);
       81     5256    1   DCL LIST_BUF$ PTR STATIC SYMDEF INIT(ADDR(NIL));
              5256            /* Ptr to dynamic LIST area (BUF_BLOCK) */
       82     5257    1   DCL LIST_SIZE UBIN STATIC SYMDEF INIT(0); /* Size of LIST area                */
       83     5258    1   DCL USER_LABELS$ PTR STATIC SYMDEF INIT(ADDR(NIL));
              5258            /* Pointer to dynamically allocated user label area */
       84     5259    1   DCL EOF_SOURCE BIT(1) ALIGNED STATIC SYMDEF INIT('0'B);
              5259            /* Is the source file at EOF */
       85     5260    1   DCL CON_DUP_TBL(0:35) BIT(1) UNAL STATIC SYMDEF INIT('0'B*0);
       86     5261    1   DCL REC_SEL_CNT SBIN STATIC SYMDEF INIT(0);
       87     5262    1   DCL THIS_STD_FILE BIT(1) STATIC SYMDEF INIT('0'B); /* Set if current file STD */
       88     5263    1   DCL OUT_COL SBIN STATIC SYMDEF INIT(0);
       89     5264    1   DCL TEST_MODE SBIN WORD STATIC SYMDEF;
       90     5265    1   DCL FROM_SYS BIT(1) UNAL STATIC SYMDEF;
       91     5266    1   DCL PCL_VER_DAT CHAR(8) STATIC SYMDEF INIT('04/15/82'); /* Version date PCL   */
       92     5267    1   DCL TICKS_PER_DAY UBIN WORD STATIC SYMDEF INIT(8640000); /* SYSTEM UTS CONSTANT */
       93     5268    1   DCL NOW_UTS UBIN WORD STATIC SYMDEF;    /* UTS that this command was entered  */
       94     5269    1   DCL BREAK_LOC REMEMBER DALIGNED STATIC SYMDEF;
       95     5270    1   DCL BREAK_LOC_BITS REDEF BREAK_LOC BIT(72) ;
       96     5271    1   DCL BREAKS SBIN WORD STATIC SYMDEF;
       97     5272    1   DCL OLD_BREAKS SBIN WORD STATIC SYMDEF;
       98     5273    1   DCL BREAK_MESSAGE_REPORTER EPTR STATIC SYMDEF INIT (ENTADDR(NIL));
       99     5274    1   DCL FPARAM_BUF(0:1023) SBIN WORD DALIGNED STATIC SYMDEF;
      100     5275    1   DCL FPARAM$ PTR STATIC SYMDEF;
      101     5276    1   DCL FPARAM_BOUND SBIN STATIC SYMDEF;
      102     5277    1   DCL SORTING_INPUT BIT(1) STATIC SYMDEF;
      103     5278    1   DCL CMD_MASK(0:71) BIT(1) STATIC SYMDEF;
      104     5279    1   DCL ME_WIDTH UBIN WORD STATIC SYMDEF;
      105     5280    1   DCL OUTPUT_WIDTH SBIN WORD STATIC SYMDEF; /* True width                       */
PL6.E3A0      #001=VP_DATA_D File=VP_DATA_D.:E05TSI                              WED 07/30/97 07:59 Page:4
      106     5281    1   DCL OUTPUT_PWIDTH SBIN WORD STATIC SYMDEF; /* Practical width                 */
      107     5282    1   DCL TOT_FILES(0:4) SBIN WORD STATIC SYMDEF; /* Indexed by function            */
      108     5283    1   DCL TOT_GRANS(0:4) SBIN WORD STATIC SYMDEF; /* Indexed by function            */
      109     5284    1   DCL TOT_RECS SBIN WORD STATIC SYMDEF;
      110     5285    1   DCL 1 SPEC_BUF STATIC SYMDEF,
      111     5286    1         2 LEN UBIN BYTE UNAL,
      112     5287    1         2 STRING CHAR(139);
      113     5288    1   DCL 1 SPEC REDEF SPEC_BUF,
      114     5289    1         2 LEN UBIN BYTE UNAL,
      115     5290    1         2 TIM CHAR(5),
      116     5291    1         2 * CHAR(1),
      117     5292    1         2 TODAY CHAR(10),
      118     5293    1         2 * CHAR(1),
      119     5294    1         2 FID CHAR(122);
      120     5295    1   DCL ONE_TIME SBIN WORD STATIC SYMDEF;
      121     5296    1   DCL SINGLE_INSPEC SBIN WORD STATIC SYMDEF;
      122     5297    1   DCL USABLE_LEN SBIN WORD STATIC SYMDEF;
      123     5298    1   DCL TABS(0:30) UBIN BYTE UNAL STATIC SYMDEF;
      124     5299        %OCB(FPTN = OCB,STCLASS = "STATIC SYMDEF");
      125     5441        %OCB(FPTN = EO_OCB,STCLASS = "STATIC SYMDEF");
      126     5583    1   DCL 1 DIN_NAME STATIC SYMDEF,           /* From M$EI$ -> F$DCB.NAME           */
      127     5584    1         2 LEN UBIN BYTE UNAL INIT(0),
      128     5585    1         2 STRING CHAR(31) UNAL;
      129     5586    1   DCL 1 IN_NAME STATIC SYMDEF,
      130     5587    1         2 LEN UBIN BYTE UNAL,
      131     5588    1         2 STRING CHAR(31) UNAL;
      132     5589    1   DCL IN_ACCT CHAR(8) STATIC SYMDEF;
      133     5590    1   DCL IN_PASS CHAR(8) STATIC SYMDEF;
      134     5591    1   DCL IN_RES CHAR(4) STATIC SYMDEF;
      135     5592    1   DCL 1 IN_RES1 REDEF IN_RES,
      136     5593    1         2 OP CHAR(2),
      137     5594    1         2 * CHAR(2);
      138     5595        %PCL_SN(FPTN = IN_SN,STCLASS = "STATIC SYMDEF");
      139     5613        %PCL_SN(FPTN = OUT_SN,STCLASS = "STATIC SYMDEF");
      140     5631    1   DCL LAST_VOL(0:2) SBIN WORD STATIC SYMDEF; /* 0=INPUT, 1=OUTPUT, 2=UNKNOWN    */
      141     5632    1   DCL IN_WSN CHAR(8) STATIC SYMDEF;
      142     5633    1   DCL IN_ASN UBIN BYTE UNAL STATIC SYMDEF;
PL6.E3A0      #001=VP_DATA_D File=VP_DATA_D.:E05TSI                              WED 07/30/97 07:59 Page:5
      143     5634    1   DCL 1 FROM_NAME STATIC SYMDEF,
      144     5635    1         2 LEN UBIN BYTE UNAL,
      145     5636    1         2 STRING CHAR(31) UNAL;
      146     5637    1   DCL FROM_ACCT CHAR(8) STATIC SYMDEF;
      147     5638    1   DCL FROM_PASS CHAR(8) STATIC SYMDEF;
      148     5639    1   DCL FROM_RES CHAR(4) STATIC SYMDEF;
      149     5640        %PCL_SN(FPTN = FROM_SN,STCLASS = "STATIC SYMDEF");
      150     5658    1   DCL FROM_WSN CHAR(8) STATIC SYMDEF;
      151     5659    1   DCL FROM_ASN UBIN BYTE UNAL STATIC SYMDEF;
      152     5660    1   DCL ANSISPAN_OPT BIT(2) STATIC SYMDEF;
      153     5661        %ICB(FPTN = ICB,STCLASS = "STATIC SYMDEF");
      154     5775        %ICB(FPTN = DEV_ICB,STCLASS = "STATIC SYMDEF");
      155     5889        %ICB(FPTN = DEF_ICB,STCLASS = "STATIC SYMDEF");
      156     6003        %EJECT;
PL6.E3A0      #001=VP_DATA_D File=VP_DATA_D.:E05TSI                              WED 07/30/97 07:59 Page:6
      157     6004        /**/
      158     6005        /*  Master table of PCL ORGs and their attributes.  */
      159     6006        /**/
      160     6007    1   DCL 1 ORG_TBL(0:%MAX_ORG#) CONSTANT SYMDEF,
      161     6008                                                /* ORG_MON is the monitor's code for  */
      162     6009                                                /* that corresponds PCL's code for    */
      163     6010                                                /* this entry.                        */
      164     6011    1         2 ORG_MON UBIN BYTE CALIGNED INIT(0,
      165     6012    1           %CONSEC#,     %FIXED#,      %INDEXED#,   %KEYED#,     %RELATIVE#,
      166     6013    1           %UNDEF#,      %VARIABLE#,   %RANDOM#,    %UR#,        %IDS#,
      167     6014    1           %RESTRICT#,   %IREL#,       %FREE#,      %SYMB#,      %CG#,
      168     6015    1           %TERMINAL#,   %FPRG#,       %HANDLER#,   %DBGDCB#,    %DBGCG#,
      169     6016    1           %DBGSYSID#,   %SE#,         %X364#,      %FORM#,
      170     6017    1           0,            0),               /* SPARE (patching only)              */
      171     6018    1         2 NAME,
      172     6019                                                /* NAME.LEN is the length, in         */
      173     6020                                                /* characters, of the printable name  */
      174     6021                                                /* assigned to this ORG.              */
      175     6022    1           3 LEN UBIN BYTE CALIGNED INIT(5,
      176     6023    1             11,05,07,05,08,
      177     6024    1             09,08,06,11,03,
      178     6025    1             10,04,04,08,08,
      179     6026    1             08,10,07,06,05,
      180     6027    1             08,11,04,04,
      181     6028    1             05,05),
      182     6029                                                /* NAME.NAME is the actual text       */
      183     6030                                                /* for this ORG's name.               */
      184     6031    1           3 NAME CHAR(11) CALIGNED INIT('!BUG!',
      185     6032    1             'Consecutive','Fixed      ','Indexed    ','Keyed      ','Relative   ',
      186     6033    1             'Undefined  ','Variable   ','Random     ','Unit record','Ids        ',
      187     6034    1             'Restricted ','IREL       ','Free       ','Symbiont   ','Comgroup   ',
      188     6035    1             'Terminal   ','Forms prog ','Handler    ','DBGDCB     ','DBGCG      ',
      189     6036    1             'DBGSYSID   ','Screen Edit','X364       ','Form       ',
      190     6037    1             '!BUG!      ','!BUG!      '),
      191     6038                                                /* ABBR is an abbreviated form of the */
      192     6039                                                /* ORG's name, suitable for LISTs     */
      193     6040                                                /* and such.                          */
PL6.E3A0      #001=VP_DATA_D File=VP_DATA_D.:E05TSI                              WED 07/30/97 07:59 Page:7
      194     6041    1         2 ABBR CHAR(3) CALIGNED INIT('BUG',
      195     6042    1           'Con','Fix','Ind','Key','Rel',
      196     6043    1           'Und','Var','Ran','UR ','IDS',
      197     6044    1           'Res','Irl','Fre','Sym','CG ',
      198     6045    1           'Ter','Fpg','Hnd','DDC','DCG',
      199     6046    1           'DSI','SEd','X36','Frm',
      200     6047    1           'BUG','BUG'),
      201     6048                                                /* DEV_ALLOWED masks the possible     */
      202     6049                                                /* devices that allow this            */
      203     6050                                                /* organization to be used.           */
      204     6051                                                /* Note that these correspond to      */
      205     6052                                                /* OUTPUT masks.  See GET_OUT_DEV_MASK*/
      206     6053                                                /* in VPC$SETOUT.                     */
      207     6054    1         2 OUT_DEV_ALLOWED BIT(18) UNAL INIT('0'O,
      208     6055    1           '177'O,'006'O,'003'O,'003'O,'003'O,
      209     6056    1           '006'O,'006'O,'003'O,'073'O,'003'O,
      210     6057    1           '002'O,'003'O,'004'O,'001'O,'003'O,
      211     6058    1           '073'O,'073'O,'140'O,'140'O,'140'O,
      212     6059    1           '140'O,'140'O,'140'O,'140'O,
      213     6060    1           '000'O,'000'O);
      214     6061        %EJECT;
PL6.E3A0      #001=VP_DATA_D File=VP_DATA_D.:E05TSI                              WED 07/30/97 07:59 Page:8
      215     6062        /**/
      216     6063        /*  COPY Buffers  */
      217     6064        /**/
      218     6065    1   DCL IN_ARS SBIN WORD STATIC SYMDEF;
      219     6066    1   DCL 1 IN_DVBYTE STATIC SYMDEF,
      220     6067    1         2 TOP BIT(1) UNAL,
      221     6068    1         2 * BIT(1) UNAL,
      222     6069    1         2 VFC BIT(1) UNAL,
      223     6070    1         2 BIN BIT(1) UNAL,
      224     6071    1         2 TRANS BIT(1) UNAL,
      225     6072    1         2 * BIT(1) UNAL,
      226     6073    1         2 NODAT BIT(1) UNAL,
      227     6074    1         2 * BIT(1) UNAL;
      228     6075    1   DCL IN_EOMCHAR CHAR(1) STATIC SYMDEF;
      229     6076    1   DCL 1 IN_BUF_VECTOR DALIGNED STATIC SYMDEF, /* WITH SLACK                     */
      230     6077    1         2 BOUND UBIN(20) UNAL,
      231     6078    1         2 * BIT(16) UNAL,
      232     6079    1         2 PTR$ PTR;
      233     6080    1   DCL 1 ACTUAL_IN_BUF_VECTOR DALIGNED STATIC SYMDEF, /* NO SLACK                */
      234     6081    1         2 BOUND UBIN(20) UNAL,
      235     6082    1         2 * BIT(16) UNAL,
      236     6083    1         2 PTR$ PTR;
      237     6084    1   DCL 1 EI_KEY STATIC SYMDEF,
      238     6085    1         2 LEN UBIN BYTE UNAL,
      239     6086    1         2 KEY CHAR(511),
      240     6087    1         2 KEY_ARY(0:510) REDEF KEY CHAR(1),
      241     6088    1         2 OCT_KEY_ARY(0:1532) REDEF KEY UBIN(3) UNAL,
      242     6089    1         2 EKEY REDEF KEY,
      243     6090    1           3 KEY UBIN(27) UNAL,
      244     6091    1           3 * CHAR(508);
      245     6092        /* Key area used to hold key values until they get placed in dynamic
      246     6093        storage
      247     6094        */
      248     6095    1   DCL 1 TMPKEY STATIC SYMDEF,
      249     6096    1         2 LEN UBIN BYTE,
      250     6097    1         2 STRING CHAR(511);
      251     6098    1   DCL KEY_AREA$ PTR STATIC SYMDEF;        /* pointer to dynamic key storage     */
PL6.E3A0      #001=VP_DATA_D File=VP_DATA_D.:E05TSI                              WED 07/30/97 07:59 Page:9
      252     6099    1   DCL CUR_SEQ_NO SBIN WORD STATIC SYMDEF;
      253     6100    1   DCL NRECS_IN_COPY_FILE SBIN WORD STATIC SYMDEF INIT (-1);
      254     6101        %EJECT;
PL6.E3A0      #001=VP_DATA_D File=VP_DATA_D.:E05TSI                              WED 07/30/97 07:59 Page:10
      255     6102        /**/
      256     6103        /*  Handy table of Micro-operations.                                          */
      257     6104        /*                                                                            */
      258     6105        /*  All the microps in this table move digits, blanking leading zeroes.       */
      259     6106        /*  The n'th entry in the table does it for n digits.                         */
      260     6107        /**/
      261     6108    1   DCL MOP_ARY_MVZB(0:9) BIT(9) CALIGNED CONSTANT SYMDEF INIT ('0'B,
      262     6109    1       %MVZB1,
      263     6110    1       %MVZB2,
      264     6111    1       %MVZB3,
      265     6112    1       %MVZB4,
      266     6113    1       %MVZB5,
      267     6114    1       %MVZB6,
      268     6115    1       %MVZB7,
      269     6116    1       %MVZB8,
      270     6117    1       %MVZB9 );
      271     6118        /**/
      272     6119        /*  FSFA Routine Related  */
      273     6120        /**/
      274     6121    1   DCL READ_MODE SBIN WORD STATIC SYMDEF INIT(0);
      275     6122    1   DCL WRITE_MODE SBIN WORD STATIC SYMDEF INIT(0);
      276     6123    1   DCL IBBUF_PTR$ PTR STATIC SYMDEF INIT(ADDR(NIL));
      277     6124    1   DCL OBBUF_PTR$ PTR STATIC SYMDEF INIT(ADDR(NIL));
      278     6125    1   DCL IBBUF_WSIZE SBIN WORD STATIC SYMDEF INIT(0);
      279     6126    1   DCL OBBUF_WSIZE SBIN WORD STATIC SYMDEF INIT(0);
      280     6127    1   DCL IKBUF_PTR$ PTR STATIC SYMDEF INIT(ADDR(NIL));
      281     6128    1   DCL OKBUF_PTR$ PTR STATIC SYMDEF INIT(ADDR(NIL));
      282     6129        %XSA_PARAM(FPTN = IFSFA_PARAM,
      283     6130                   STCLASS = "STATIC SYMDEF");
      284     6160        %XSA_PARAM(FPTN = OFSFA_PARAM,
      285     6161                   STCLASS = "STATIC SYMDEF");
      286     6191        %EJECT;
PL6.E3A0      #001=VP_DATA_D File=VP_DATA_D.:E05TSI                              WED 07/30/97 07:59 Page:11
      287     6192        /**/
      288     6193        /*  DCB RELATED  */
      289     6194        /**/
      290     6195    1   DCL M$EI DCB;
      291     6196    1   DCL M$EI$ PTR STATIC SYMDEF;
      292     6197    1   DCL M$EI# SBIN WORD STATIC SYMDEF INIT(DCBNUM(M$EI));
      293     6198    1   DCL M$EO DCB;
      294     6199    1   DCL M$EO$ PTR STATIC SYMDEF;
      295     6200    1   DCL M$EO# SBIN WORD STATIC SYMDEF INIT(DCBNUM(M$EO));
      296     6201    1   DCL M$EO1 DCB;
      297     6202    1   DCL M$EO1$ PTR STATIC SYMDEF;
      298     6203    1   DCL M$EO1# SBIN WORD STATIC SYMDEF INIT(DCBNUM(M$EO1));
      299     6204    1   DCL M$ME DCB;
      300     6205    1   DCL M$ME$ PTR STATIC SYMDEF;
      301     6206    1   DCL M$ME# SBIN WORD STATIC SYMDEF INIT(DCBNUM(M$ME));
      302     6207    1   DCL M$SI DCB;
      303     6208    1   DCL M$SI$ PTR STATIC SYMDEF;
      304     6209    1   DCL M$SI# SBIN WORD STATIC SYMDEF INIT(DCBNUM(M$SI));
      305     6210    1   DCL M$READFILE DCB;
      306     6211    1   DCL M$READFILE$ PTR STATIC SYMDEF;
      307     6212    1   DCL M$READFILE# SBIN WORD STATIC SYMDEF INIT(DCBNUM(M$READFILE));
      308     6213    1   DCL M$DO DCB;
      309     6214    1   DCL M$DO$ PTR STATIC SYMDEF;
      310     6215    1   DCL M$DO# SBIN WORD STATIC SYMDEF INIT(DCBNUM(M$DO));
      311     6216    1   DCL M$UC$ PTR STATIC SYMDEF;
      312     6217    1   DCL M$UC# SBIN WORD STATIC SYMDEF INIT(DCBNUM(M$UC));
      313     6218    1   DCL M$STD1 DCB;
      314     6219    1   DCL M$STD1$ PTR STATIC SYMDEF;
      315     6220    1   DCL M$STD1# SBIN WORD STATIC SYMDEF INIT(DCBNUM(M$STD1));
      316     6221    1   DCL M$SORT1 DCB;
      317     6222    1   DCL M$SORT1$ PTR STATIC SYMDEF;
      318     6223    1   DCL M$SORT1# SBIN WORD STATIC SYMDEF INIT(DCBNUM(M$SORT1));
      319     6224        %EJECT;
PL6.E3A0      #001=VP_DATA_D File=VP_DATA_D.:E05TSI                              WED 07/30/97 07:59 Page:12
      320     6225        /**/
      321     6226        /*  EXTERNAL SYMBOLS  */
      322     6227        /**/
      323     6228    1   DCL B$TCB$ PTR SYMREF;
      324     6229    1   DCL B$JIT$ PTR SYMREF;
      325     6230    1   DCL TOP_PCL_CMD BIT(1) SYMREF;          /* Top of parse tree                  */
      326     6231    1   DCL TOP_STD_N BIT(1) SYMREF;
      327     6232    1   DCL TOP_REVIEW_CMD BIT(1) SYMREF;
      328     6233        /**/
      329     6234        /*  FPTS  */
      330     6235        /**/
      331     6236        %FPT_FID(FPTN = FPT_FID_IN,
      332     6237                 NAME = IN_NAME,
      333     6238                 ACCT = IN_ACCT,
      334     6239                 PASS = IN_PASS,
      335     6240                 RES  = IN_RES,
      336     6241                 SN   = IN_SN,
      337     6242                 WSN  = IN_WSN,
      338     6243                 ASN  = IN_ASN,
      339     6244                 RESULTS = RESULTS_FID_IN,
      340     6245                 STCLASS = "STATIC SYMDEF");
      341     6268        %VLR_FID(FPTN = RESULTS_FID_IN,
      342     6269                STCLASS = "STATIC SYMDEF");
      343     6288        %VLR_FID(FPTN = RESULTS_FID_FROM,
      344     6289                     STCLASS = "STATIC SYMDEF");
      345     6308        %FPT_PROMPT(FPTN = FPT_PROMPT,
      346     6309                    DCB  = M$UC,
      347     6310                    STCLASS = "STATIC SYMDEF");
      348     6338        %FPT_ERRMSG(FPTN = FPT_ERRMSG,
      349     6339                    FILENAME = ERRMSG_NAME,
      350     6340                    FILEACCT = ERRMSG_ACCT,
      351     6341                    FILEPASS = ERRMSG_PASS,
      352     6342                    CODE = ERR_CODE,
      353     6343                    RESULTS = VLR_ERRMSG,
      354     6344                    INCLCODE = NO,
      355     6345                    BUF = ERR_BUF,
      356     6346                    STCLASS = "STATIC SYMDEF");
PL6.E3A0      #001=VP_DATA_D File=VP_DATA_D.:E05TSI                              WED 07/30/97 07:59 Page:13
      357     6373        %VLR_ERRMSG(FPTN = VLR_ERRMSG,
      358     6374                    STCLASS = "STATIC SYMDEF");
      359     6396        %FPT_OPEN(FPTN = FPT_OPEN_OUT_SAVE,
      360     6397                  STCLASS = "STATIC SYMDEF");
      361     6506        %FPT_OPEN(FPTN = FPT_OPEN_OUT,
      362     6507                LOAD = YES,
      363     6508                REASSIGN = NO,
      364     6509                  STCLASS = "STATIC SYMDEF");
      365     6618        %FPT_OPEN(FPTN   = FPT_OPEN_EI,
      366     6619                  DCB    = M$EI,
      367     6620                  FUN    = IN,
      368     6621                  ACS    = SEQUEN,
      369     6622                  STCLASS = "STATIC SYMDEF");
      370     6731        %FPT_OPEN(FPTN = FPT_OPEN_EI_SAVE,
      371     6732                  STCLASS = "STATIC SYMDEF");
      372     6841        %FPT_READ(FPTN = FPT_READ_UC,
      373     6842                  DCB  = M$UC,
      374     6843                  STCLASS = "STATIC SYMDEF");
      375     6882        %FPT_READ(FPTN = FPT_READ_STD,
      376     6883                  DCB  = M$STD1,
      377     6884                  BUF  = PARSE_IN_BUF,
      378     6885                  STCLASS = "CONSTANT SYMDEF");
      379     6924        %FPT_WRITE(FPTN = FPT_WRITE_UC,
      380     6925                   DCB  = M$UC,
      381     6926                   STCLASS = "STATIC SYMDEF");
      382     6957        %FPT_WRITE(FPTN = FPT_WRITE_ME,
      383     6958                   DCB  = M$ME,
      384     6959                   WAIT = YES,
      385     6960                  STCLASS = "STATIC SYMDEF");
      386     6991        %FPT_WRITE(FPTN = FPT_WRITE_OUT,
      387     6992                   WAIT = YES,
      388     6993                   CONT = NO,
      389     6994                    FULL = YES,
      390     6995                    NEWKEY = YES,
      391     6996                   REWRITE = NO,
      392     6997                    NOTIME = YES,
      393     6998                   BIN = NO,
PL6.E3A0      #001=VP_DATA_D File=VP_DATA_D.:E05TSI                              WED 07/30/97 07:59 Page:14
      394     6999                   TRANS = NO,
      395     7000                   STCLASS = "STATIC SYMDEF");
      396     7031        %FPT_CLOSE(FPTN=FPT_CLOSE_EI,
      397     7032                   DCB =M$EI,
      398     7033                   STCLASS ="STATIC SYMDEF");
      399     7075        %FPT_CLOSE(FPTN=FPT_CLOSE_READ,
      400     7076                   DCB =M$READFILE,
      401     7077                   STCLASS = "CONSTANT SYMDEF");
      402     7119        %FPT_CLOSE(FPTN = FPT_CLSEI_FT,         /* CLOSE FT, WITHOUT POSITIONING      */
      403     7120                   NOMARKS = YES,
      404     7121                   DCB  = M$EI,
      405     7122                   STCLASS = "STATIC SYMDEF");
      406     7164        %FPT_CLOSE(FPTN = FPT_CLOSE_PTL,        /* CLOSE MT, WITH POSITION TO  BEGIN  */
      407     7165                   NOMARKS = YES,
      408     7166                   POS = PTL,
      409     7167                   DCB  = M$EI,
      410     7168                   STCLASS = "CONSTANT SYMDEF");
      411     7210        %FPT_CLOSE(FPTN = FPT_CLOSE_STD,
      412     7211                  DCB  = M$STD1,
      413     7212                   STCLASS = "CONSTANT SYMDEF");
      414     7254        %FPT_CLOSE(FPTN = FPT_CLOSE_SI,
      415     7255                  DCB = M$SI,
      416     7256                  STCLASS = "STATIC SYMDEF");
      417     7298        %FPT_WEOF(FPTN = FPT_WEOF,
      418     7299                  STCLASS = "STATIC SYMDEF");
      419     7313    1   END VP_DATA_D;

PL6.E3A0      #001=VP_DATA_D File=VP_DATA_D.:E05TSI                              WED 07/30/97 07:59 Page:15
--  Include file information  --

   B_MICROPS_C.:E05TOU  is referenced.
   XU_MACRO_C.:E05TOU  is referenced.
   VP_MACRO_C.:E05TOU  is referenced.
   XS_MACRO_C.:E05TOU  is referenced.
   VP_PERR_C.:E05TOU  is referenced.
   CP_6_SUBS.:E05TOU  is referenced.
   CP_6.:E05TOU  cannot be made into a system file and is referenced.
   B$JIT_C.:E05TOU  was found in the system file and is never referenced.
   CP_6_C.:E05TOU  was found in the system file and is referenced.
      No diagnostics issued in procedure VP_DATA_D.

   No code generated for procedure VP_DATA_D .
   Procedure VP_DATA_D requires 4 words of local(AUTO) storage.

    No errors detected in file VP_DATA_D.:E05TSI    .

PL6.E3A0      #001=VP_DATA_D File=VP_DATA_D.:E05TSI                              WED 07/30/97 07:59 Page:16

 Object Unit name= VP_DATA_D                                  File name= VP_DATA_D.:E05TOU
 UTS= JUL 30 '97 07:59:29.68 WED                              Compiler= PL-6/E31         Sev=      00
 SharedLib= :SHARED_SYSTEM                                    Alt SharedLib=


    ****  Control sections  ****

 Sect   Type Bound  Init  Size OctSiz  Section name(segment info)
    0   DCB   even  none     0      0  M$UC
    1   Data  even  none  4834  11342  VP_DATA_D
    2  RoData even  UTS    232    350  VP_DATA_D
    3   DCB   even  none     0      0  M$EI
    4   DCB   even  none     0      0  M$EO
    5   DCB   even  none     0      0  M$EO1
    6   DCB   even  none     0      0  M$ME
    7   DCB   even  none     0      0  M$SI
    8   DCB   even  none     0      0  M$READFILE
    9   DCB   even  none     0      0  M$DO
   10   DCB   even  none     0      0  M$STD1
   11   DCB   even  none     0      0  M$SORT1
   12   Proc  even  none     0      0  VP_DATA_D

    ****  Entry defs  ****

                              Check   Calling
                             calling  sequence
  Sect OctLoc Primary Altret sequence   type   Parms  Name
    12      0   yes            yes     ~proc       0  VP_DATA_D
PL6.E3A0      #001=VP_DATA_D File=VP_DATA_D.:E05TSI                              WED 07/30/97 07:59 Page:17

  ****  Data defs  ****

 Sect OctLoc  Name                           Sect OctLoc  Name
    1      0  PARSE_IN_BUF                       1    400  PARSE_WORK_AREA
    1   1401  PARSE_INPUT_OFFSET                 1   1402  STD_WORK$
    1   1403  SUCCESS_NODE                       1   1404  COMMAND_STUFFED
    1   1405  PRE_PARSED                         1   1406  READ_FILE
    1   1407  PCB                                1   1426  GETCMD
    1   1500  INPUT_ERR                          1   1501  OUTPUT_ERR
    1   1502  ERR_FLG                            1   1503  ERROR_SEVERITY
    1   1504  HIGHEST_SEVERITY                   1   1505  ERROR_DCB
    1   1506  TRAP_COUNT                         1   1507  ERR_BUF
    1   1545  ERR_LEN                            1   1546  ABORT_STEP
    1   1550  ABORT_CMD                          1   1552  ABORT_PCL
    1   1554  TRAP_PCL                           1   1556  CLEAN_POINT
    1   1560  ERR_CODE                           1   1561  HELP_ERR_CODE
    1   1562  HELP_KEYWORD                       1   1572  ERR_SAVE_REL
    1   1573  ERRMSG_ACCT                        1   1575  ERRMSG_PASS
    1   1577  ERRMSG_NAME                        2      0  TEST_PATTERN
    2      1  MIN_PAGES                          1   1607  USE_CONT
    1   1610  LIST_IDX                           1   1611  LIST_BUF$
    1   1612  LIST_SIZE                          1   1613  USER_LABELS$
    1   1614  EOF_SOURCE                         1   1615  CON_DUP_TBL
    1   1616  REC_SEL_CNT                        1   1617  THIS_STD_FILE
    1   1620  OUT_COL                            1   1621  TEST_MODE
    1   1622  FROM_SYS                           1   1623  PCL_VER_DAT
    1   1625  TICKS_PER_DAY                      1   1626  NOW_UTS
    1   1630  BREAK_LOC                          1   1632  BREAKS
    1   1633  OLD_BREAKS                         1   1634  BREAK_MESSAGE_REPORTER
    1   1636  FPARAM_BUF                         1   5636  FPARAM$
    1   5637  FPARAM_BOUND                       1   5640  SORTING_INPUT
    1   5641  CMD_MASK                           1   5643  ME_WIDTH
    1   5644  OUTPUT_WIDTH                       1   5645  OUTPUT_PWIDTH
    1   5646  TOT_FILES                          1   5653  TOT_GRANS
    1   5660  TOT_RECS                           1   5661  SPEC_BUF
    1   5724  ONE_TIME                           1   5725  SINGLE_INSPEC
    1   5726  USABLE_LEN                         1   5727  TABS
PL6.E3A0      #001=VP_DATA_D File=VP_DATA_D.:E05TSI                              WED 07/30/97 07:59 Page:18
    1   5740  OCB                                1   6236  EO_OCB
    1   6534  DIN_NAME                           1   6544  IN_NAME
    1   6554  IN_ACCT                            1   6556  IN_PASS
    1   6560  IN_RES                             1   6561  IN_SN
    1   6620  OUT_SN                             1   6657  LAST_VOL
    1   6662  IN_WSN                             1   6664  IN_ASN
    1   6665  FROM_NAME                          1   6675  FROM_ACCT
    1   6677  FROM_PASS                          1   6701  FROM_RES
    1   6702  FROM_SN                            1   6741  FROM_WSN
    1   6743  FROM_ASN                           1   6744  ANSISPAN_OPT
    1   6746  ICB                                1   7212  DEV_ICB
    1   7456  DEF_ICB                            2      2  ORG_TBL
    1   7722  IN_ARS                             1   7723  IN_DVBYTE
    1   7724  IN_EOMCHAR                         1   7726  IN_BUF_VECTOR
    1   7730  ACTUAL_IN_BUF_VECTOR               1   7732  EI_KEY
    1  10132  TMPKEY                             1  10333  KEY_AREA$
    1  10334  CUR_SEQ_NO                         1  10335  NRECS_IN_COPY_FILE
    2    174  MOP_ARY_MVZB                       1  10336  READ_MODE
    1  10337  WRITE_MODE                         1  10340  IBBUF_PTR$
    1  10341  OBBUF_PTR$                         1  10342  IBBUF_WSIZE
    1  10343  OBBUF_WSIZE                        1  10344  IKBUF_PTR$
    1  10345  OKBUF_PTR$                         1  10346  IFSFA_PARAM
    1  10364  OFSFA_PARAM                        1  10402  M$EI$
    1  10403  M$EI#                              1  10404  M$EO$
    1  10405  M$EO#                              1  10406  M$EO1$
    1  10407  M$EO1#                             1  10410  M$ME$
    1  10411  M$ME#                              1  10412  M$SI$
    1  10413  M$SI#                              1  10414  M$READFILE$
    1  10415  M$READFILE#                        1  10416  M$DO$
    1  10417  M$DO#                              1  10420  M$UC$
    1  10421  M$UC#                              1  10422  M$STD1$
    1  10423  M$STD1#                            1  10424  M$SORT1$
    1  10425  M$SORT1#                           1  10426  FPT_FID_IN
    1  10456  RESULTS_FID_IN                     1  10470  RESULTS_FID_FROM
    1  10502  FPT_PROMPT                         1  10514  FPT_ERRMSG
    1  10546  VLR_ERRMSG                         1  10552  FPT_OPEN_OUT_SAVE
    1  10644  FPT_OPEN_OUT                       1  10736  FPT_OPEN_EI
PL6.E3A0      #001=VP_DATA_D File=VP_DATA_D.:E05TSI                              WED 07/30/97 07:59 Page:19
    1  11030  FPT_OPEN_EI_SAVE                   1  11122  FPT_READ_UC
    2    200  FPT_READ_STD                       1  11140  FPT_WRITE_UC
    1  11154  FPT_WRITE_ME                       1  11170  FPT_WRITE_OUT
    1  11204  FPT_CLOSE_EI                       2    216  FPT_CLOSE_READ
    1  11242  FPT_CLSEI_FT                       2    254  FPT_CLOSE_PTL
    2    312  FPT_CLOSE_STD                      1  11300  FPT_CLOSE_SI
    1  11336  FPT_WEOF

  ****  Data refs  ****

  Flags:  r = read only, s = secondary
Flgs Name                             Flgs Name                             Flgs Name
     M$UC                                  M$EI                                  M$EO
     M$EO1                                 M$ME                                  M$SI
     M$READFILE                            M$DO                                  M$STD1
     M$SORT1

  ****  Segment refs  ****

  Flags:  r = read only, s = secondary
Flgs Name                             Flgs Name                             Flgs Name
     ISSID                                 NULLSID
PL6.E3A0      #001=VP_DATA_D File=VP_DATA_D.:E05TSI                              WED 07/30/97 07:59 Page:20

        1        1        /*M* VP_DATA_D All symdef data for PCL...Also contains DCB DCL's              */
        2        2        /*T***********************************************************/
        3        3        /*T*                                                         */
        4        4        /*T* Copyright (c) Bull HN Information Systems Inc., 1997    */
        5        5        /*T*                                                         */
        6        6        /*T***********************************************************/
        7        7        /*X* THI=1,DTI=1
        8        8        */
        9        9        VP_DATA_D: PROC;
       10       10        %INCLUDE CP_6;
       11       91        %INCLUDE CP_6_SUBS;
       12      631        %INCLUDE VP_PERR_C;
       13      707        %INCLUDE XS_MACRO_C;                    /* FSFA MACROs                        */
       14      751        %INCLUDE VP_MACRO_C;
       15     1265        %INCLUDE XU_MACRO_C;
       16     4371        %INCLUDE B_MICROPS_C;
       17     4543        /**/
       18     4544        /*  Parsing equipment  */
       19     4545        /**/
       20     4546    1   DCL PARSE_IN_BUF CHAR(1024) STATIC SYMDEF;
       21     4547    1   DCL PARSE_WORK_AREA(0:512) SBIN WORD STATIC SYMDEF;
       22     4548    1   DCL PARSE_INPUT_OFFSET SBIN WORD STATIC SYMDEF; /* Accumulates the lengths    */
       23     4549    1   DCL STD_WORK$ PTR STATIC SYMDEF;
       24     4550                                                /* of all previous pieces of a con-   */
       25     4551                                                /* tinued line.                       */
       26     4552    1   DCL SUCCESS_NODE BIT(1) STATIC SYMDEF;
       27     4553    1   DCL COMMAND_STUFFED BIT(1) STATIC SYMDEF;
       28     4554    1   DCL PRE_PARSED BIT(1) STATIC SYMDEF;
       29     4555    1   DCL READ_FILE BIT(1) STATIC SYMDEF INIT('0'B); /* Set if READ command effect  */
       30     4556        %P_PCB(NAME=PCB,
       31     4557               T=PARSE_IN_BUF,
       32     4558               STCLASS = "STATIC SYMDEF");
       33     4757        %XUG_GETCMD   (NAME=GETCMD, STCLASS=STATIC SYMDEF);
       34     5095        %EJECT;
PL6.E3A0      #001=VP_DATA_D File=VP_DATA_D.:E05TSI                              WED 07/30/97 07:59 Page:21
       35     5096        /**/
       36     5097        /*  Error control  */
       37     5098        /**/
       38     5099        %VLP_ERRCODE(FPTN = INPUT_ERR,STCLASS = "STATIC SYMDEF");
       39     5144        %VLP_ERRCODE(FPTN = OUTPUT_ERR,STCLASS = "STATIC SYMDEF");
       40     5189    1   DCL ERR_FLG BIT(1) ALIGNED STATIC SYMDEF; /* Set if VPL$ERR_PROC called with  */
       41     5190                                                /* SEV>1 this time through.           */
       42     5191    1   DCL ERROR_SEVERITY SBIN WORD STATIC SYMDEF INIT(2); /* Init to continue       */
       43     5192    1   DCL HIGHEST_SEVERITY SBIN WORD STATIC SYMDEF INIT(0); /* Default to set STEPCC */
       44     5193    1   DCL ERROR_DCB SBIN WORD STATIC SYMDEF INIT(0); /* DCB passed to M$ERRMSG      */
       45     5194    1   DCL TRAP_COUNT SBIN WORD STATIC SYMDEF INIT(0);
       46     5195    1   DCL ERR_BUF CHAR(120) STATIC SYMDEF;
       47     5196    1   DCL ERR_LEN SBIN WORD STATIC SYMDEF;
       48     5197    1   DCL ABORT_STEP REMEMBER DALIGNED STATIC SYMDEF;
       49     5198    1   DCL ABORT_CMD REMEMBER DALIGNED STATIC SYMDEF;
       50     5199    1   DCL ABORT_PCL REMEMBER DALIGNED STATIC SYMDEF;
       51     5200    1   DCL TRAP_PCL REMEMBER DALIGNED STATIC SYMDEF;
       52     5201    1   DCL CLEAN_POINT REMEMBER DALIGNED STATIC SYMDEF;
       53     5202    1   DCL 1 ERR_CODE STATIC SYMDEF,
       54     5203    1         2 FCG BIT(12) UNAL,
       55     5204    1         2 MID BIT(6) UNAL,
       56     5205    1         2 MON BIT(1) UNAL,
       57     5206    1         2 CODE UBIN(14) UNAL,
       58     5207    1         2 SEV UBIN(3) UNAL;
       59     5208    1   DCL 1 HELP_ERR_CODE STATIC SYMDEF,
       60     5209    1         2 FCG BIT(12) UNAL INIT('2620'O), /* VP IN SIXBIT                       */
       61     5210    1         2 MID BIT(6) UNAL INIT('04'O),    /* D IN SIXBIT                        */
       62     5211    1         2 CODE UBIN(15) UNAL,
       63     5212    1         2 SEV UBIN(3) UNAL INIT(0);
       64     5213        %VLP_NAME(FPTN = HELP_KEYWORD,LEN = 31,STCLASS = "STATIC SYMDEF");
       65     5240    1   DCL ERR_SAVE_REL SBIN WORD INIT(2) STATIC SYMDEF; /* INIT TO RELEASE          */
       66     5241    1   DCL ERRMSG_ACCT CHAR(8) STATIC SYMDEF INIT(':SYS');
       67     5242    1   DCL ERRMSG_PASS CHAR(8) STATIC SYMDEF INIT(' ');
       68     5243    1   DCL 1 ERRMSG_NAME STATIC SYMDEF,
       69     5244    1         2 LEN UBIN BYTE UNAL INIT(7),
       70     5245    1         2 STRING CHAR(31) UNAL INIT(':ERRMSG');
       71     5246        %EJECT;
PL6.E3A0      #001=VP_DATA_D File=VP_DATA_D.:E05TSI                              WED 07/30/97 07:59 Page:22
       72     5247        /**/
       73     5248        /*  Assorted bilge  */
       74     5249        /**/
       75     5250    1   DCL 1 TEST_PATTERN SYMDEF CONSTANT,
       76     5251    1         2 * CHAR(3) INIT('TST'),
       77     5252    1         2 * BIT(9)  INIT('000'O);
       78     5253    1   DCL MIN_PAGES SBIN WORD CONSTANT SYMDEF INIT(2);
       79     5254    1   DCL USE_CONT BIT(1) STATIC SYMDEF INIT('0'B);
       80     5255    1   DCL LIST_IDX SBIN STATIC SYMDEF INIT(0);
       81     5256    1   DCL LIST_BUF$ PTR STATIC SYMDEF INIT(ADDR(NIL));
              5256            /* Ptr to dynamic LIST area (BUF_BLOCK) */
       82     5257    1   DCL LIST_SIZE UBIN STATIC SYMDEF INIT(0); /* Size of LIST area                */
       83     5258    1   DCL USER_LABELS$ PTR STATIC SYMDEF INIT(ADDR(NIL));
              5258            /* Pointer to dynamically allocated user label area */
       84     5259    1   DCL EOF_SOURCE BIT(1) ALIGNED STATIC SYMDEF INIT('0'B);
              5259            /* Is the source file at EOF */
       85     5260    1   DCL CON_DUP_TBL(0:35) BIT(1) UNAL STATIC SYMDEF INIT('0'B*0);
       86     5261    1   DCL REC_SEL_CNT SBIN STATIC SYMDEF INIT(0);
       87     5262    1   DCL THIS_STD_FILE BIT(1) STATIC SYMDEF INIT('0'B); /* Set if current file STD */
       88     5263    1   DCL OUT_COL SBIN STATIC SYMDEF INIT(0);
       89     5264    1   DCL TEST_MODE SBIN WORD STATIC SYMDEF;
       90     5265    1   DCL FROM_SYS BIT(1) UNAL STATIC SYMDEF;
       91     5266    1   DCL PCL_VER_DAT CHAR(8) STATIC SYMDEF INIT('04/15/82'); /* Version date PCL   */
       92     5267    1   DCL TICKS_PER_DAY UBIN WORD STATIC SYMDEF INIT(8640000); /* SYSTEM UTS CONSTANT */
       93     5268    1   DCL NOW_UTS UBIN WORD STATIC SYMDEF;    /* UTS that this command was entered  */
       94     5269    1   DCL BREAK_LOC REMEMBER DALIGNED STATIC SYMDEF;
       95     5270    1   DCL BREAK_LOC_BITS REDEF BREAK_LOC BIT(72) ;
       96     5271    1   DCL BREAKS SBIN WORD STATIC SYMDEF;
       97     5272    1   DCL OLD_BREAKS SBIN WORD STATIC SYMDEF;
       98     5273    1   DCL BREAK_MESSAGE_REPORTER EPTR STATIC SYMDEF INIT (ENTADDR(NIL));
       99     5274    1   DCL FPARAM_BUF(0:1023) SBIN WORD DALIGNED STATIC SYMDEF;
      100     5275    1   DCL FPARAM$ PTR STATIC SYMDEF;
      101     5276    1   DCL FPARAM_BOUND SBIN STATIC SYMDEF;
      102     5277    1   DCL SORTING_INPUT BIT(1) STATIC SYMDEF;
      103     5278    1   DCL CMD_MASK(0:71) BIT(1) STATIC SYMDEF;
      104     5279    1   DCL ME_WIDTH UBIN WORD STATIC SYMDEF;
      105     5280    1   DCL OUTPUT_WIDTH SBIN WORD STATIC SYMDEF; /* True width                       */
PL6.E3A0      #001=VP_DATA_D File=VP_DATA_D.:E05TSI                              WED 07/30/97 07:59 Page:23
      106     5281    1   DCL OUTPUT_PWIDTH SBIN WORD STATIC SYMDEF; /* Practical width                 */
      107     5282    1   DCL TOT_FILES(0:4) SBIN WORD STATIC SYMDEF; /* Indexed by function            */
      108     5283    1   DCL TOT_GRANS(0:4) SBIN WORD STATIC SYMDEF; /* Indexed by function            */
      109     5284    1   DCL TOT_RECS SBIN WORD STATIC SYMDEF;
      110     5285    1   DCL 1 SPEC_BUF STATIC SYMDEF,
      111     5286    1         2 LEN UBIN BYTE UNAL,
      112     5287    1         2 STRING CHAR(139);
      113     5288    1   DCL 1 SPEC REDEF SPEC_BUF,
      114     5289    1         2 LEN UBIN BYTE UNAL,
      115     5290    1         2 TIM CHAR(5),
      116     5291    1         2 * CHAR(1),
      117     5292    1         2 TODAY CHAR(10),
      118     5293    1         2 * CHAR(1),
      119     5294    1         2 FID CHAR(122);
      120     5295    1   DCL ONE_TIME SBIN WORD STATIC SYMDEF;
      121     5296    1   DCL SINGLE_INSPEC SBIN WORD STATIC SYMDEF;
      122     5297    1   DCL USABLE_LEN SBIN WORD STATIC SYMDEF;
      123     5298    1   DCL TABS(0:30) UBIN BYTE UNAL STATIC SYMDEF;
      124     5299        %OCB(FPTN = OCB,STCLASS = "STATIC SYMDEF");
      125     5441        %OCB(FPTN = EO_OCB,STCLASS = "STATIC SYMDEF");
      126     5583    1   DCL 1 DIN_NAME STATIC SYMDEF,           /* From M$EI$ -> F$DCB.NAME           */
      127     5584    1         2 LEN UBIN BYTE UNAL INIT(0),
      128     5585    1         2 STRING CHAR(31) UNAL;
      129     5586    1   DCL 1 IN_NAME STATIC SYMDEF,
      130     5587    1         2 LEN UBIN BYTE UNAL,
      131     5588    1         2 STRING CHAR(31) UNAL;
      132     5589    1   DCL IN_ACCT CHAR(8) STATIC SYMDEF;
      133     5590    1   DCL IN_PASS CHAR(8) STATIC SYMDEF;
      134     5591    1   DCL IN_RES CHAR(4) STATIC SYMDEF;
      135     5592    1   DCL 1 IN_RES1 REDEF IN_RES,
      136     5593    1         2 OP CHAR(2),
      137     5594    1         2 * CHAR(2);
      138     5595        %PCL_SN(FPTN = IN_SN,STCLASS = "STATIC SYMDEF");
      139     5613        %PCL_SN(FPTN = OUT_SN,STCLASS = "STATIC SYMDEF");
      140     5631    1   DCL LAST_VOL(0:2) SBIN WORD STATIC SYMDEF; /* 0=INPUT, 1=OUTPUT, 2=UNKNOWN    */
      141     5632    1   DCL IN_WSN CHAR(8) STATIC SYMDEF;
      142     5633    1   DCL IN_ASN UBIN BYTE UNAL STATIC SYMDEF;
PL6.E3A0      #001=VP_DATA_D File=VP_DATA_D.:E05TSI                              WED 07/30/97 07:59 Page:24
      143     5634    1   DCL 1 FROM_NAME STATIC SYMDEF,
      144     5635    1         2 LEN UBIN BYTE UNAL,
      145     5636    1         2 STRING CHAR(31) UNAL;
      146     5637    1   DCL FROM_ACCT CHAR(8) STATIC SYMDEF;
      147     5638    1   DCL FROM_PASS CHAR(8) STATIC SYMDEF;
      148     5639    1   DCL FROM_RES CHAR(4) STATIC SYMDEF;
      149     5640        %PCL_SN(FPTN = FROM_SN,STCLASS = "STATIC SYMDEF");
      150     5658    1   DCL FROM_WSN CHAR(8) STATIC SYMDEF;
      151     5659    1   DCL FROM_ASN UBIN BYTE UNAL STATIC SYMDEF;
      152     5660    1   DCL ANSISPAN_OPT BIT(2) STATIC SYMDEF;
      153     5661        %ICB(FPTN = ICB,STCLASS = "STATIC SYMDEF");
      154     5775        %ICB(FPTN = DEV_ICB,STCLASS = "STATIC SYMDEF");
      155     5889        %ICB(FPTN = DEF_ICB,STCLASS = "STATIC SYMDEF");
      156     6003        %EJECT;
PL6.E3A0      #001=VP_DATA_D File=VP_DATA_D.:E05TSI                              WED 07/30/97 07:59 Page:25
      157     6004        /**/
      158     6005        /*  Master table of PCL ORGs and their attributes.  */
      159     6006        /**/
      160     6007    1   DCL 1 ORG_TBL(0:%MAX_ORG#) CONSTANT SYMDEF,
      161     6008                                                /* ORG_MON is the monitor's code for  */
      162     6009                                                /* that corresponds PCL's code for    */
      163     6010                                                /* this entry.                        */
      164     6011    1         2 ORG_MON UBIN BYTE CALIGNED INIT(0,
      165     6012    1           %CONSEC#,     %FIXED#,      %INDEXED#,   %KEYED#,     %RELATIVE#,
      166     6013    1           %UNDEF#,      %VARIABLE#,   %RANDOM#,    %UR#,        %IDS#,
      167     6014    1           %RESTRICT#,   %IREL#,       %FREE#,      %SYMB#,      %CG#,
      168     6015    1           %TERMINAL#,   %FPRG#,       %HANDLER#,   %DBGDCB#,    %DBGCG#,
      169     6016    1           %DBGSYSID#,   %SE#,         %X364#,      %FORM#,
      170     6017    1           0,            0),               /* SPARE (patching only)              */
      171     6018    1         2 NAME,
      172     6019                                                /* NAME.LEN is the length, in         */
      173     6020                                                /* characters, of the printable name  */
      174     6021                                                /* assigned to this ORG.              */
      175     6022    1           3 LEN UBIN BYTE CALIGNED INIT(5,
      176     6023    1             11,05,07,05,08,
      177     6024    1             09,08,06,11,03,
      178     6025    1             10,04,04,08,08,
      179     6026    1             08,10,07,06,05,
      180     6027    1             08,11,04,04,
      181     6028    1             05,05),
      182     6029                                                /* NAME.NAME is the actual text       */
      183     6030                                                /* for this ORG's name.               */
      184     6031    1           3 NAME CHAR(11) CALIGNED INIT('!BUG!',
      185     6032    1             'Consecutive','Fixed      ','Indexed    ','Keyed      ','Relative   ',
      186     6033    1             'Undefined  ','Variable   ','Random     ','Unit record','Ids        ',
      187     6034    1             'Restricted ','IREL       ','Free       ','Symbiont   ','Comgroup   ',
      188     6035    1             'Terminal   ','Forms prog ','Handler    ','DBGDCB     ','DBGCG      ',
      189     6036    1             'DBGSYSID   ','Screen Edit','X364       ','Form       ',
      190     6037    1             '!BUG!      ','!BUG!      '),
      191     6038                                                /* ABBR is an abbreviated form of the */
      192     6039                                                /* ORG's name, suitable for LISTs     */
      193     6040                                                /* and such.                          */
PL6.E3A0      #001=VP_DATA_D File=VP_DATA_D.:E05TSI                              WED 07/30/97 07:59 Page:26
      194     6041    1         2 ABBR CHAR(3) CALIGNED INIT('BUG',
      195     6042    1           'Con','Fix','Ind','Key','Rel',
      196     6043    1           'Und','Var','Ran','UR ','IDS',
      197     6044    1           'Res','Irl','Fre','Sym','CG ',
      198     6045    1           'Ter','Fpg','Hnd','DDC','DCG',
      199     6046    1           'DSI','SEd','X36','Frm',
      200     6047    1           'BUG','BUG'),
      201     6048                                                /* DEV_ALLOWED masks the possible     */
      202     6049                                                /* devices that allow this            */
      203     6050                                                /* organization to be used.           */
      204     6051                                                /* Note that these correspond to      */
      205     6052                                                /* OUTPUT masks.  See GET_OUT_DEV_MASK*/
      206     6053                                                /* in VPC$SETOUT.                     */
      207     6054    1         2 OUT_DEV_ALLOWED BIT(18) UNAL INIT('0'O,
      208     6055    1           '177'O,'006'O,'003'O,'003'O,'003'O,
      209     6056    1           '006'O,'006'O,'003'O,'073'O,'003'O,
      210     6057    1           '002'O,'003'O,'004'O,'001'O,'003'O,
      211     6058    1           '073'O,'073'O,'140'O,'140'O,'140'O,
      212     6059    1           '140'O,'140'O,'140'O,'140'O,
      213     6060    1           '000'O,'000'O);
      214     6061        %EJECT;
PL6.E3A0      #001=VP_DATA_D File=VP_DATA_D.:E05TSI                              WED 07/30/97 07:59 Page:27
      215     6062        /**/
      216     6063        /*  COPY Buffers  */
      217     6064        /**/
      218     6065    1   DCL IN_ARS SBIN WORD STATIC SYMDEF;
      219     6066    1   DCL 1 IN_DVBYTE STATIC SYMDEF,
      220     6067    1         2 TOP BIT(1) UNAL,
      221     6068    1         2 * BIT(1) UNAL,
      222     6069    1         2 VFC BIT(1) UNAL,
      223     6070    1         2 BIN BIT(1) UNAL,
      224     6071    1         2 TRANS BIT(1) UNAL,
      225     6072    1         2 * BIT(1) UNAL,
      226     6073    1         2 NODAT BIT(1) UNAL,
      227     6074    1         2 * BIT(1) UNAL;
      228     6075    1   DCL IN_EOMCHAR CHAR(1) STATIC SYMDEF;
      229     6076    1   DCL 1 IN_BUF_VECTOR DALIGNED STATIC SYMDEF, /* WITH SLACK                     */
      230     6077    1         2 BOUND UBIN(20) UNAL,
      231     6078    1         2 * BIT(16) UNAL,
      232     6079    1         2 PTR$ PTR;
      233     6080    1   DCL 1 ACTUAL_IN_BUF_VECTOR DALIGNED STATIC SYMDEF, /* NO SLACK                */
      234     6081    1         2 BOUND UBIN(20) UNAL,
      235     6082    1         2 * BIT(16) UNAL,
      236     6083    1         2 PTR$ PTR;
      237     6084    1   DCL 1 EI_KEY STATIC SYMDEF,
      238     6085    1         2 LEN UBIN BYTE UNAL,
      239     6086    1         2 KEY CHAR(511),
      240     6087    1         2 KEY_ARY(0:510) REDEF KEY CHAR(1),
      241     6088    1         2 OCT_KEY_ARY(0:1532) REDEF KEY UBIN(3) UNAL,
      242     6089    1         2 EKEY REDEF KEY,
      243     6090    1           3 KEY UBIN(27) UNAL,
      244     6091    1           3 * CHAR(508);
      245     6092        /* Key area used to hold key values until they get placed in dynamic
      246     6093        storage
      247     6094        */
      248     6095    1   DCL 1 TMPKEY STATIC SYMDEF,
      249     6096    1         2 LEN UBIN BYTE,
      250     6097    1         2 STRING CHAR(511);
      251     6098    1   DCL KEY_AREA$ PTR STATIC SYMDEF;        /* pointer to dynamic key storage     */
PL6.E3A0      #001=VP_DATA_D File=VP_DATA_D.:E05TSI                              WED 07/30/97 07:59 Page:28
      252     6099    1   DCL CUR_SEQ_NO SBIN WORD STATIC SYMDEF;
      253     6100    1   DCL NRECS_IN_COPY_FILE SBIN WORD STATIC SYMDEF INIT (-1);
      254     6101        %EJECT;
PL6.E3A0      #001=VP_DATA_D File=VP_DATA_D.:E05TSI                              WED 07/30/97 07:59 Page:29
      255     6102        /**/
      256     6103        /*  Handy table of Micro-operations.                                          */
      257     6104        /*                                                                            */
      258     6105        /*  All the microps in this table move digits, blanking leading zeroes.       */
      259     6106        /*  The n'th entry in the table does it for n digits.                         */
      260     6107        /**/
      261     6108    1   DCL MOP_ARY_MVZB(0:9) BIT(9) CALIGNED CONSTANT SYMDEF INIT ('0'B,
      262     6109    1       %MVZB1,
      263     6110    1       %MVZB2,
      264     6111    1       %MVZB3,
      265     6112    1       %MVZB4,
      266     6113    1       %MVZB5,
      267     6114    1       %MVZB6,
      268     6115    1       %MVZB7,
      269     6116    1       %MVZB8,
      270     6117    1       %MVZB9 );
      271     6118        /**/
      272     6119        /*  FSFA Routine Related  */
      273     6120        /**/
      274     6121    1   DCL READ_MODE SBIN WORD STATIC SYMDEF INIT(0);
      275     6122    1   DCL WRITE_MODE SBIN WORD STATIC SYMDEF INIT(0);
      276     6123    1   DCL IBBUF_PTR$ PTR STATIC SYMDEF INIT(ADDR(NIL));
      277     6124    1   DCL OBBUF_PTR$ PTR STATIC SYMDEF INIT(ADDR(NIL));
      278     6125    1   DCL IBBUF_WSIZE SBIN WORD STATIC SYMDEF INIT(0);
      279     6126    1   DCL OBBUF_WSIZE SBIN WORD STATIC SYMDEF INIT(0);
      280     6127    1   DCL IKBUF_PTR$ PTR STATIC SYMDEF INIT(ADDR(NIL));
      281     6128    1   DCL OKBUF_PTR$ PTR STATIC SYMDEF INIT(ADDR(NIL));
      282     6129        %XSA_PARAM(FPTN = IFSFA_PARAM,
      283     6130                   STCLASS = "STATIC SYMDEF");
      284     6160        %XSA_PARAM(FPTN = OFSFA_PARAM,
      285     6161                   STCLASS = "STATIC SYMDEF");
      286     6191        %EJECT;
PL6.E3A0      #001=VP_DATA_D File=VP_DATA_D.:E05TSI                              WED 07/30/97 07:59 Page:30
      287     6192        /**/
      288     6193        /*  DCB RELATED  */
      289     6194        /**/
      290     6195    1   DCL M$EI DCB;
      291     6196    1   DCL M$EI$ PTR STATIC SYMDEF;
      292     6197    1   DCL M$EI# SBIN WORD STATIC SYMDEF INIT(DCBNUM(M$EI));
      293     6198    1   DCL M$EO DCB;
      294     6199    1   DCL M$EO$ PTR STATIC SYMDEF;
      295     6200    1   DCL M$EO# SBIN WORD STATIC SYMDEF INIT(DCBNUM(M$EO));
      296     6201    1   DCL M$EO1 DCB;
      297     6202    1   DCL M$EO1$ PTR STATIC SYMDEF;
      298     6203    1   DCL M$EO1# SBIN WORD STATIC SYMDEF INIT(DCBNUM(M$EO1));
      299     6204    1   DCL M$ME DCB;
      300     6205    1   DCL M$ME$ PTR STATIC SYMDEF;
      301     6206    1   DCL M$ME# SBIN WORD STATIC SYMDEF INIT(DCBNUM(M$ME));
      302     6207    1   DCL M$SI DCB;
      303     6208    1   DCL M$SI$ PTR STATIC SYMDEF;
      304     6209    1   DCL M$SI# SBIN WORD STATIC SYMDEF INIT(DCBNUM(M$SI));
      305     6210    1   DCL M$READFILE DCB;
      306     6211    1   DCL M$READFILE$ PTR STATIC SYMDEF;
      307     6212    1   DCL M$READFILE# SBIN WORD STATIC SYMDEF INIT(DCBNUM(M$READFILE));
      308     6213    1   DCL M$DO DCB;
      309     6214    1   DCL M$DO$ PTR STATIC SYMDEF;
      310     6215    1   DCL M$DO# SBIN WORD STATIC SYMDEF INIT(DCBNUM(M$DO));
      311     6216    1   DCL M$UC$ PTR STATIC SYMDEF;
      312     6217    1   DCL M$UC# SBIN WORD STATIC SYMDEF INIT(DCBNUM(M$UC));
      313     6218    1   DCL M$STD1 DCB;
      314     6219    1   DCL M$STD1$ PTR STATIC SYMDEF;
      315     6220    1   DCL M$STD1# SBIN WORD STATIC SYMDEF INIT(DCBNUM(M$STD1));
      316     6221    1   DCL M$SORT1 DCB;
      317     6222    1   DCL M$SORT1$ PTR STATIC SYMDEF;
      318     6223    1   DCL M$SORT1# SBIN WORD STATIC SYMDEF INIT(DCBNUM(M$SORT1));
      319     6224        %EJECT;
PL6.E3A0      #001=VP_DATA_D File=VP_DATA_D.:E05TSI                              WED 07/30/97 07:59 Page:31
      320     6225        /**/
      321     6226        /*  EXTERNAL SYMBOLS  */
      322     6227        /**/
      323     6228    1   DCL B$TCB$ PTR SYMREF;
      324     6229    1   DCL B$JIT$ PTR SYMREF;
      325     6230    1   DCL TOP_PCL_CMD BIT(1) SYMREF;          /* Top of parse tree                  */
      326     6231    1   DCL TOP_STD_N BIT(1) SYMREF;
      327     6232    1   DCL TOP_REVIEW_CMD BIT(1) SYMREF;
      328     6233        /**/
      329     6234        /*  FPTS  */
      330     6235        /**/
      331     6236        %FPT_FID(FPTN = FPT_FID_IN,
      332     6237                 NAME = IN_NAME,
      333     6238                 ACCT = IN_ACCT,
      334     6239                 PASS = IN_PASS,
      335     6240                 RES  = IN_RES,
      336     6241                 SN   = IN_SN,
      337     6242                 WSN  = IN_WSN,
      338     6243                 ASN  = IN_ASN,
      339     6244                 RESULTS = RESULTS_FID_IN,
      340     6245                 STCLASS = "STATIC SYMDEF");
      341     6268        %VLR_FID(FPTN = RESULTS_FID_IN,
      342     6269                STCLASS = "STATIC SYMDEF");
      343     6288        %VLR_FID(FPTN = RESULTS_FID_FROM,
      344     6289                     STCLASS = "STATIC SYMDEF");
      345     6308        %FPT_PROMPT(FPTN = FPT_PROMPT,
      346     6309                    DCB  = M$UC,
      347     6310                    STCLASS = "STATIC SYMDEF");
      348     6338        %FPT_ERRMSG(FPTN = FPT_ERRMSG,
      349     6339                    FILENAME = ERRMSG_NAME,
      350     6340                    FILEACCT = ERRMSG_ACCT,
      351     6341                    FILEPASS = ERRMSG_PASS,
      352     6342                    CODE = ERR_CODE,
      353     6343                    RESULTS = VLR_ERRMSG,
      354     6344                    INCLCODE = NO,
      355     6345                    BUF = ERR_BUF,
      356     6346                    STCLASS = "STATIC SYMDEF");
PL6.E3A0      #001=VP_DATA_D File=VP_DATA_D.:E05TSI                              WED 07/30/97 07:59 Page:32
      357     6373        %VLR_ERRMSG(FPTN = VLR_ERRMSG,
      358     6374                    STCLASS = "STATIC SYMDEF");
      359     6396        %FPT_OPEN(FPTN = FPT_OPEN_OUT_SAVE,
      360     6397                  STCLASS = "STATIC SYMDEF");
      361     6506        %FPT_OPEN(FPTN = FPT_OPEN_OUT,
      362     6507                LOAD = YES,
      363     6508                REASSIGN = NO,
      364     6509                  STCLASS = "STATIC SYMDEF");
      365     6618        %FPT_OPEN(FPTN   = FPT_OPEN_EI,
      366     6619                  DCB    = M$EI,
      367     6620                  FUN    = IN,
      368     6621                  ACS    = SEQUEN,
      369     6622                  STCLASS = "STATIC SYMDEF");
      370     6731        %FPT_OPEN(FPTN = FPT_OPEN_EI_SAVE,
      371     6732                  STCLASS = "STATIC SYMDEF");
      372     6841        %FPT_READ(FPTN = FPT_READ_UC,
      373     6842                  DCB  = M$UC,
      374     6843                  STCLASS = "STATIC SYMDEF");
      375     6882        %FPT_READ(FPTN = FPT_READ_STD,
      376     6883                  DCB  = M$STD1,
      377     6884                  BUF  = PARSE_IN_BUF,
      378     6885                  STCLASS = "CONSTANT SYMDEF");
      379     6924        %FPT_WRITE(FPTN = FPT_WRITE_UC,
      380     6925                   DCB  = M$UC,
      381     6926                   STCLASS = "STATIC SYMDEF");
      382     6957        %FPT_WRITE(FPTN = FPT_WRITE_ME,
      383     6958                   DCB  = M$ME,
      384     6959                   WAIT = YES,
      385     6960                  STCLASS = "STATIC SYMDEF");
      386     6991        %FPT_WRITE(FPTN = FPT_WRITE_OUT,
      387     6992                   WAIT = YES,
      388     6993                   CONT = NO,
      389     6994                    FULL = YES,
      390     6995                    NEWKEY = YES,
      391     6996                   REWRITE = NO,
      392     6997                    NOTIME = YES,
      393     6998                   BIN = NO,
PL6.E3A0      #001=VP_DATA_D File=VP_DATA_D.:E05TSI                              WED 07/30/97 07:59 Page:33
      394     6999                   TRANS = NO,
      395     7000                   STCLASS = "STATIC SYMDEF");
      396     7031        %FPT_CLOSE(FPTN=FPT_CLOSE_EI,
      397     7032                   DCB =M$EI,
      398     7033                   STCLASS ="STATIC SYMDEF");
      399     7075        %FPT_CLOSE(FPTN=FPT_CLOSE_READ,
      400     7076                   DCB =M$READFILE,
      401     7077                   STCLASS = "CONSTANT SYMDEF");
      402     7119        %FPT_CLOSE(FPTN = FPT_CLSEI_FT,         /* CLOSE FT, WITHOUT POSITIONING      */
      403     7120                   NOMARKS = YES,
      404     7121                   DCB  = M$EI,
      405     7122                   STCLASS = "STATIC SYMDEF");
      406     7164        %FPT_CLOSE(FPTN = FPT_CLOSE_PTL,        /* CLOSE MT, WITH POSITION TO  BEGIN  */
      407     7165                   NOMARKS = YES,
      408     7166                   POS = PTL,
      409     7167                   DCB  = M$EI,
      410     7168                   STCLASS = "CONSTANT SYMDEF");
      411     7210        %FPT_CLOSE(FPTN = FPT_CLOSE_STD,
      412     7211                  DCB  = M$STD1,
      413     7212                   STCLASS = "CONSTANT SYMDEF");
      414     7254        %FPT_CLOSE(FPTN = FPT_CLOSE_SI,
      415     7255                  DCB = M$SI,
      416     7256                  STCLASS = "STATIC SYMDEF");
      417     7298        %FPT_WEOF(FPTN = FPT_WEOF,
      418     7299                  STCLASS = "STATIC SYMDEF");
      419     7313    1   END VP_DATA_D;

PL6.E3A0      #001=VP_DATA_D File=VP_DATA_D.:E05TSI                              WED 07/30/97 07:59 Page:34
--  Include file information  --

   B_MICROPS_C.:E05TOU  is referenced.
   XU_MACRO_C.:E05TOU  is referenced.
   VP_MACRO_C.:E05TOU  is referenced.
   XS_MACRO_C.:E05TOU  is referenced.
   VP_PERR_C.:E05TOU  is referenced.
   CP_6_SUBS.:E05TOU  is referenced.
   CP_6.:E05TOU  cannot be made into a system file and is referenced.
   B$JIT_C.:E05TOU  was found in the system file and is never referenced.
   CP_6_C.:E05TOU  was found in the system file and is referenced.
      No diagnostics issued in procedure VP_DATA_D.
PL6.E3A0      #001=VP_DATA_D File=VP_DATA_D.:E05TSI                              WED 07/30/97 07:59 Page:35

 **** Variables and constants ****

  ****  Section 001  Data  VP_DATA_D

  ****  Scalars and arrays  ****
OctLoc.c.b A Datatyp(siz) R M Lvl/name                 OctLoc.c.b A Datatyp(siz) R M Lvl/name

  1634-0-0/w EPTR        r     1 BREAK_MESSAGE_REPORTER
  1573-0-0/c CHAR(8)     r     1 ERRMSG_ACCT             1577-0-0/c STRC(288)   r     1 ERRMSG_NAME
  1575-0-0/c CHAR(8)     r     1 ERRMSG_PASS             1507-0-0/c CHAR(120)   r     1 ERR_BUF
  1560-0-0/b STRC        r     1 ERR_CODE               11204-0-0/d STRC(1080)  r     1 FPT_CLOSE_EI
 11300-0-0/d STRC(1080)  r     1 FPT_CLOSE_SI           11242-0-0/d STRC(1080)  r     1 FPT_CLSEI_FT
 10514-0-0/d STRC(936)   r     1 FPT_ERRMSG             10426-0-0/d STRC(864)   r     1 FPT_FID_IN
 10736-0-0/d STRC(2088)  r     1 FPT_OPEN_EI            11030-0-0/d STRC(2088)  r     1 FPT_OPEN_EI_SAVE
 10644-0-0/d STRC(2088)  r     1 FPT_OPEN_OUT           10552-0-0/d STRC(2088)  r     1 FPT_OPEN_OUT_SAVE
 10502-0-0/d STRC(360)   r     1 FPT_PROMPT             11122-0-0/d STRC(504)   r     1 FPT_READ_UC
 11336-0-0/d STRC(144)   r     1 FPT_WEOF               11154-0-0/d STRC(432)   r     1 FPT_WRITE_ME
 11170-0-0/d STRC(432)   r     1 FPT_WRITE_OUT          11140-0-0/d STRC(432)   r     1 FPT_WRITE_UC
  6554-0-0/c CHAR(8)     r     1 IN_ACCT                 6664-0-0/b UBIN(9)     r     1 IN_ASN
  6544-0-0/c STRC(288)   r     1 IN_NAME                 6556-0-0/c CHAR(8)     r     1 IN_PASS
  6560-0-0/c CHAR(4)     r     1 IN_RES                  6561-0-0/w STRC(1116)  r     1 IN_SN
  6662-0-0/c CHAR(8)     r     1 IN_WSN                     0-0-0/c CHAR(1024)  r     1 PARSE_IN_BUF
 10456-0-0/d STRC(324)   r     1 RESULTS_FID_IN         10546-0-0/d STRC(144)   r     1 VLR_ERRMSG

  ****  Section 002 RoData VP_DATA_D

  ****  Scalars and arrays  ****
OctLoc.c.b A Datatyp(siz) R M Lvl/name                 OctLoc.c.b A Datatyp(siz) R M Lvl/name

   254-0-0/d STRC(1080)  r     1 FPT_CLOSE_PTL            216-0-0/d STRC(1080)  r     1 FPT_CLOSE_READ
   312-0-0/d STRC(1080)  r     1 FPT_CLOSE_STD            200-0-0/d STRC(504)   r     1 FPT_READ_STD

  ****  BASED and DCB variables  ****

  ****  Scalars and arrays  ****
OctLoc.c.b A Datatyp(siz) R M Lvl/name                 OctLoc.c.b A Datatyp(siz) R M Lvl/name

PL6.E3A0      #001=VP_DATA_D File=VP_DATA_D.:E05TSI                              WED 07/30/97 07:59 Page:36
     0-0-0N  NULL        r     1 M$DO                       0-0-0N  NULL        r     1 M$EI
     0-0-0N  NULL        r     1 M$EO                       0-0-0N  NULL        r     1 M$EO1
     0-0-0N  NULL        r     1 M$ME                       0-0-0N  NULL        r     1 M$READFILE
     0-0-0N  NULL        r     1 M$SI                       0-0-0N  NULL        r     1 M$SORT1
     0-0-0N  NULL        r     1 M$STD1                     0-0-0N  NULL        r     1 M$UC


   No code generated for procedure VP_DATA_D .
   Procedure VP_DATA_D requires 4 words of local(AUTO) storage.

    No errors detected in file VP_DATA_D.:E05TSI    .
PL6.E3A0      #001=VP_DATA_D File=VP_DATA_D.:E05TSI                              WED 07/30/97 07:59 Page:37
          *** CROSS REFERENCE LISTING ***
**     DENOTES     IDENTIFIER DEFINITION
<<                 IDENTIFIER'S VALUE SET
>>                 IDENTIFIER'S VALUE USED
<>                 IDENTIFIER SET AND/OR USED
--                 IDENTIFIER REFERENCED
PL6.E3A0      #001=VP_DATA_D File=VP_DATA_D.:E05TSI                              WED 07/30/97 07:59 Page:38
          MINI XREF LISTING

BREAK_LOC
      5269**DCL      5270--REDEF
DEF_ICB.FID.STRING
      5909**DCL      5910--REDEF
DEV_ICB.FID.STRING
      5795**DCL      5796--REDEF
EI_KEY.KEY
      6086**DCL      6087--REDEF    6088--REDEF    6089--REDEF
EO_OCB.TYPE
      5488**DCL      5489--REDEF
ERRMSG_ACCT
      5241**DCL      6358--DCLINIT
ERRMSG_NAME
      5243**DCL      6358--DCLINIT
ERRMSG_PASS
      5242**DCL      6359--DCLINIT
ERR_BUF
      5195**DCL      6358--DCLINIT
ERR_CODE
      5202**DCL      6357--DCLINIT
FPT_CLOSE_EI.SN_
      7056**DCL      7056--REDEF
FPT_CLOSE_EI.UTL_
      7057**DCL      7057--REDEF
FPT_CLOSE_EI.V
      7061**DCL      7056--DCLINIT
FPT_CLOSE_EI.V.EXPIRE#
      7071**DCL      7071--REDEF
FPT_CLOSE_EI.V.TYPE#
      7069**DCL      7069--REDEF
FPT_CLOSE_EI.V.XTNSIZE#
      7066**DCL      7066--REDEF    7068--REDEF
PL6.E3A0      #001=VP_DATA_D File=VP_DATA_D.:E05TSI                              WED 07/30/97 07:59 Page:39
FPT_CLOSE_PTL.SN_
      7191**DCL      7191--REDEF
FPT_CLOSE_PTL.UTL_
      7192**DCL      7192--REDEF
FPT_CLOSE_PTL.V
      7196**DCL      7191--DCLINIT
FPT_CLOSE_PTL.V.EXPIRE#
      7206**DCL      7206--REDEF
FPT_CLOSE_PTL.V.TYPE#
      7204**DCL      7204--REDEF
FPT_CLOSE_PTL.V.XTNSIZE#
      7201**DCL      7201--REDEF    7203--REDEF
FPT_CLOSE_READ.SN_
      7100**DCL      7100--REDEF
FPT_CLOSE_READ.UTL_
      7101**DCL      7101--REDEF
FPT_CLOSE_READ.V
      7105**DCL      7100--DCLINIT
FPT_CLOSE_READ.V.EXPIRE#
      7115**DCL      7115--REDEF
FPT_CLOSE_READ.V.TYPE#
      7113**DCL      7113--REDEF
FPT_CLOSE_READ.V.XTNSIZE#
      7110**DCL      7110--REDEF    7112--REDEF
FPT_CLOSE_SI.SN_
      7279**DCL      7279--REDEF
FPT_CLOSE_SI.UTL_
      7280**DCL      7280--REDEF
FPT_CLOSE_SI.V
      7284**DCL      7279--DCLINIT
FPT_CLOSE_SI.V.EXPIRE#
      7294**DCL      7294--REDEF
FPT_CLOSE_SI.V.TYPE#
      7292**DCL      7292--REDEF
FPT_CLOSE_SI.V.XTNSIZE#
      7289**DCL      7289--REDEF    7291--REDEF
PL6.E3A0      #001=VP_DATA_D File=VP_DATA_D.:E05TSI                              WED 07/30/97 07:59 Page:40
FPT_CLOSE_STD.SN_
      7235**DCL      7235--REDEF
FPT_CLOSE_STD.UTL_
      7236**DCL      7236--REDEF
FPT_CLOSE_STD.V
      7240**DCL      7235--DCLINIT
FPT_CLOSE_STD.V.EXPIRE#
      7250**DCL      7250--REDEF
FPT_CLOSE_STD.V.TYPE#
      7248**DCL      7248--REDEF
FPT_CLOSE_STD.V.XTNSIZE#
      7245**DCL      7245--REDEF    7247--REDEF
FPT_CLSEI_FT.SN_
      7145**DCL      7145--REDEF
FPT_CLSEI_FT.UTL_
      7146**DCL      7146--REDEF
FPT_CLSEI_FT.V
      7150**DCL      7145--DCLINIT
FPT_CLSEI_FT.V.EXPIRE#
      7160**DCL      7160--REDEF
FPT_CLSEI_FT.V.TYPE#
      7158**DCL      7158--REDEF
FPT_CLSEI_FT.V.XTNSIZE#
      7155**DCL      7155--REDEF    7157--REDEF
FPT_ERRMSG.V
      6361**DCL      6357--DCLINIT
FPT_FID_IN.V
      6260**DCL      6256--DCLINIT
FPT_OPEN_EI.ACSVEH_
      6689**DCL      6690--REDEF
FPT_OPEN_EI.ALTKEYS_
      6695**DCL      6696--REDEF    6696--REDEF
FPT_OPEN_EI.HDR_
      6694**DCL      6695--REDEF
FPT_OPEN_EI.TAB_
      6693**DCL      6694--REDEF
PL6.E3A0      #001=VP_DATA_D File=VP_DATA_D.:E05TSI                              WED 07/30/97 07:59 Page:41
FPT_OPEN_EI.UHL_
      6687**DCL      6688--REDEF    6688--REDEF
FPT_OPEN_EI.V
      6696**DCL      6687--DCLINIT
FPT_OPEN_EI.V.FSN#
      6727**DCL      6727--REDEF    6727--REDEF
FPT_OPEN_EI.WSN_
      6693**DCL      6693--REDEF
FPT_OPEN_EI_SAVE.ACSVEH_
      6799**DCL      6800--REDEF
FPT_OPEN_EI_SAVE.ALTKEYS_
      6805**DCL      6806--REDEF    6806--REDEF
FPT_OPEN_EI_SAVE.HDR_
      6804**DCL      6805--REDEF
FPT_OPEN_EI_SAVE.TAB_
      6803**DCL      6804--REDEF
FPT_OPEN_EI_SAVE.UHL_
      6797**DCL      6798--REDEF    6798--REDEF
FPT_OPEN_EI_SAVE.V
      6806**DCL      6797--DCLINIT
FPT_OPEN_EI_SAVE.V.FSN#
      6837**DCL      6837--REDEF    6837--REDEF
FPT_OPEN_EI_SAVE.WSN_
      6803**DCL      6803--REDEF
FPT_OPEN_OUT.ACSVEH_
      6576**DCL      6577--REDEF
FPT_OPEN_OUT.ALTKEYS_
      6582**DCL      6583--REDEF    6583--REDEF
FPT_OPEN_OUT.HDR_
      6581**DCL      6582--REDEF
FPT_OPEN_OUT.TAB_
      6580**DCL      6581--REDEF
FPT_OPEN_OUT.UHL_
      6574**DCL      6575--REDEF    6575--REDEF
FPT_OPEN_OUT.V
      6583**DCL      6574--DCLINIT
PL6.E3A0      #001=VP_DATA_D File=VP_DATA_D.:E05TSI                              WED 07/30/97 07:59 Page:42
FPT_OPEN_OUT.V.FSN#
      6614**DCL      6614--REDEF    6614--REDEF
FPT_OPEN_OUT.WSN_
      6580**DCL      6580--REDEF
FPT_OPEN_OUT_SAVE.ACSVEH_
      6464**DCL      6465--REDEF
FPT_OPEN_OUT_SAVE.ALTKEYS_
      6470**DCL      6471--REDEF    6471--REDEF
FPT_OPEN_OUT_SAVE.HDR_
      6469**DCL      6470--REDEF
FPT_OPEN_OUT_SAVE.TAB_
      6468**DCL      6469--REDEF
FPT_OPEN_OUT_SAVE.UHL_
      6462**DCL      6463--REDEF    6463--REDEF
FPT_OPEN_OUT_SAVE.V
      6471**DCL      6462--DCLINIT
FPT_OPEN_OUT_SAVE.V.FSN#
      6502**DCL      6502--REDEF    6502--REDEF
FPT_OPEN_OUT_SAVE.WSN_
      6468**DCL      6468--REDEF
FPT_PROMPT.V
      6334**DCL      6328--DCLINIT
FPT_READ_STD.STATION_
      6905**DCL      6906--REDEF
FPT_READ_STD.V
      6906**DCL      6902--DCLINIT
FPT_READ_STD.V.DVBYTE.REREAD#
      6917**DCL      6917--REDEF
FPT_READ_STD.V.INDX#
      6915**DCL      6915--REDEF
FPT_READ_UC.STATION_
      6863**DCL      6864--REDEF
FPT_READ_UC.V
      6864**DCL      6860--DCLINIT
FPT_READ_UC.V.DVBYTE.REREAD#
      6875**DCL      6875--REDEF
PL6.E3A0      #001=VP_DATA_D File=VP_DATA_D.:E05TSI                              WED 07/30/97 07:59 Page:43
FPT_READ_UC.V.INDX#
      6873**DCL      6873--REDEF
FPT_WEOF.V
      7310**DCL      7310--DCLINIT
FPT_WRITE_ME.STATION_
      6979**DCL      6979--REDEF
FPT_WRITE_ME.V
      6980**DCL      6977--DCLINIT
FPT_WRITE_ME.V.DVBYTE.VFC#
      6986**DCL      6986--REDEF
FPT_WRITE_OUT.STATION_
      7019**DCL      7019--REDEF
FPT_WRITE_OUT.V
      7020**DCL      7017--DCLINIT
FPT_WRITE_OUT.V.DVBYTE.VFC#
      7026**DCL      7026--REDEF
FPT_WRITE_UC.STATION_
      6945**DCL      6945--REDEF
FPT_WRITE_UC.V
      6946**DCL      6943--DCLINIT
FPT_WRITE_UC.V.DVBYTE.VFC#
      6952**DCL      6952--REDEF
FROM_SN.SN
      5655**DCL      5656--REDEF
GETCMD.OUT$
      4775**DCL      4781--REDEF
ICB.FID.STRING
      5681**DCL      5682--REDEF
IFSFA_PARAM.EOMCHAR#
      6154**DCL      6155--REDEF
IFSFA_PARAM.SIG1
      6148**DCL      6148--REDEF
IFSFA_PARAM.SIG2
      6148**DCL      6149--REDEF
IN_ACCT
      5589**DCL      6257--DCLINIT
PL6.E3A0      #001=VP_DATA_D File=VP_DATA_D.:E05TSI                              WED 07/30/97 07:59 Page:44
IN_ASN
      5633**DCL      6259--DCLINIT
IN_NAME
      5586**DCL      6257--DCLINIT
IN_PASS
      5590**DCL      6258--DCLINIT
IN_RES
      5591**DCL      5592--REDEF    6259--DCLINIT
IN_SN
      5605**DCL      6258--DCLINIT
IN_SN.SN
      5610**DCL      5611--REDEF
IN_WSN
      5632**DCL      6258--DCLINIT
OCB.TYPE
      5346**DCL      5347--REDEF
OFSFA_PARAM.EOMCHAR#
      6185**DCL      6186--REDEF
OFSFA_PARAM.SIG1
      6179**DCL      6179--REDEF
OFSFA_PARAM.SIG2
      6179**DCL      6180--REDEF
OUT_SN.SN
      5628**DCL      5629--REDEF
PARSE_IN_BUF
      4546**DCL      4577--DCLINIT  6904--DCLINIT  6905--DCLINIT
RESULTS_FID_IN
      6280**DCL      6260--DCLINIT
SPEC_BUF
      5285**DCL      5288--REDEF
VLR_ERRMSG
      6385**DCL      6361--DCLINIT
