VERSION E05

PL6.E3A0      #001=VXD$B2C File=VXD$B2C.:E05TSI                                  WED 07/30/97 08:05 Page:1
        1        1        /*M* VXD$B2C - Converts binary to character. */
        2        2        /*M*  VXD$B2C - converts a binary number to a character string.   */
        3        3        /*T***********************************************************/
        4        4        /*T*                                                         */
        5        5        /*T* Copyright (c) Bull HN Information Systems Inc., 1997    */
        6        6        /*T*                                                         */
        7        7        /*T***********************************************************/
        8        8        /*X* DMR,PLM=6,IND=4,CSU=2,EXM=0,ECU=2,MOC,DCI=4,CRT=4          */
        9        9        VXD$B2C:
       10       10              PROC( BUFFER, BUF_START, TYPE, VALUE, BASE ) NOAUTO;
       11       11        /*
       12       12                          Include files
       13       13        */
       14       14        %INCLUDE B$OBJECT_C;
       15     3444        %INCLUDE VX_SWITCH_C;
       16     3452        %INCLUDE VX_SUBS_C;
       17     3670        %INCLUDE VX_MACRO_C;
       18     4807        %INCLUDE VX_DATA_R;
       19     6426        %INCLUDE B_MICROPS_C;
       20     6598        %BANNER(ARG=MOPSTR);

              6606    1   /*******************************************************************************
              6607    1   *                                                                              *
              6608    1   *                          MOPSTR                                                 *
              6609    1   *                                                                              *
              6610    1   *******************************************************************************/

       21     6614    1   DCL MOPSTR(0:4) BIT(9) CONSTANT INIT(%LTE3, '040'O, %MFLS11, %ENF00, %MVC1 );
       22     6615        %P;

              6623    1   /*******************************************************************************
              6624    1   *                                                                              *
              6625    1   *                          PARAMETERS                                              *
              6626    1   *                                                                              *
              6627    1   *******************************************************************************/

       23     6631    1   DCL BUFFER               CHAR(132)  UNAL;
PL6.E3A0      #001=VXD$B2C File=VXD$B2C.:E05TSI                                  WED 07/30/97 08:05 Page:2
       24     6632    1   DCL BUF_START            UBIN(36) ALIGNED;
       25     6633    1   DCL TYPE                 SBIN WORD ALIGNED;
       26     6634    1   DCL VALUE                SBIN WORD ALIGNED;
       27     6635    1   DCL VALUE_A(0:11) REDEF VALUE UBIN(3) UNAL;
       28     6636    1   DCL BASE                 UBIN(36) ALIGNED;
       29     6637        %C;

              6645    1   /*******************************************************************************
              6646    1   *                                                                              *
              6647    1   *                          CHAR                                                 *
              6648    1   *                                                                              *
              6649    1   *******************************************************************************/

       30     6653    1   DCL TEMP1                 CHAR(13)  UNAL;
       31     6654    1   DCL TEMP1_A(0:12) REDEF TEMP1 CHAR(1) UNAL;
       32     6655    1   DCL TEMP2                 CHAR(13)  UNAL;
       33     6656        %U;

              6664    1   /*******************************************************************************
              6665    1   *                                                                              *
              6666    1   *                          UBIN                                                 *
              6667    1   *                                                                              *
              6668    1   *******************************************************************************/

       34     6672    1   DCL J                    UBIN(36) ALIGNED;
       35     6673    1   DCL T_INDEX              UBIN(36) ALIGNED;
       36     6674    1   DCL SIZE                 UBIN(36) ALIGNED;
       37     6675        %EJECT;
PL6.E3A0      #001=VXD$B2C File=VXD$B2C.:E05TSI                                  WED 07/30/97 08:05 Page:3
       38     6676    2         IF BASE = 10 THEN DO;
       39     6677    2             CALL BINXCHAR( TEMP1, VALUE );
       40     6678    2            END;
       41     6679    2         ELSE DO;                          /* BASE 8 */
       42     6680    2             TEMP1_A(0) = '+';
       43     6681    3             DO J = 0 TO 11;
       44     6682    3                 CALL BINCHAR( TEMP1_A(J+1), VALUE_A(J) );
       45     6683    3                END;
       46     6684    2            END;
       47     6685    1         CALL EDITXCHAR( TEMP2, 0, 13, MOPSTR, TEMP1 );
       48     6686    1         CALL INDEX1R( T_INDEX, ' ', TEMP2 );
       49     6687    2         IF TYPE >= 0 THEN DO;
       50     6688    2             IF TYPE ~= 0 THEN SIZE = TYPE;
       51     6689    2             ELSE SIZE = 12;
       52     6690    2             T_INDEX = 13 - SIZE;
       53     6691    2            END;
       54     6692    2         ELSE DO;
       55     6693    2             SIZE = 12 - T_INDEX;
       56     6694    2             T_INDEX = T_INDEX + 1;
       57     6695    2             J = - TYPE;
       58     6696    3             DO CASE( J );
       59     6697    3               CASE(1);
       60     6698    3                 VX_EFIELD1.COUNT = SIZE;
       61     6699    3               CASE(2);
       62     6700    3                 VX_EFIELD2.COUNT = SIZE;
       63     6701    3               CASE(3);
       64     6702    3                 VX_EFIELD3.COUNT = SIZE;
       65     6703    3               END;
       66     6704    2            END;
       67     6705    1         CALL INSERT( BUFFER, BUF_START, SIZE, SUBSTR(TEMP2, T_INDEX, SIZE) );
       68     6706
       69     6707    1   END VXD$B2C;

PL6.E3A0      #001=VXD$B2C File=VXD$B2C.:E05TSI                                  WED 07/30/97 08:05 Page:4
--  Include file information  --

   B_MICROPS_C.:E05TOU  is referenced.
   VX_DATA_R.:E05TOU  cannot be made into a system file and is referenced.
   VX_MACRO_C.:E05TOU  is referenced.
   VX_SUBS_C.:E05TOU  is referenced.
   VX_SWITCH_C.:E05TOU  is referenced.
   B$OBJECT_C.:E05TOU  is referenced.
      No diagnostics issued in procedure VXD$B2C.

   Procedure VXD$B2C requires 88 words for executable code.
   Procedure VXD$B2C is declared NOAUTO and requires 22 words of local(STATIC) storage.

    No errors detected in file VXD$B2C.:E05TSI    .

PL6.E3A0      #001=VXD$B2C File=VXD$B2C.:E05TSI                                  WED 07/30/97 08:05 Page:5

 Object Unit name= VXD$B2C                                    File name= VXD$B2C.:E05TOU
 UTS= JUL 30 '97 08:05:56.80 WED                              Compiler= PL-6/E31         Sev=      00
 SharedLib= :SHARED_SYSTEM                                    Alt SharedLib=


    ****  Control sections  ****

 Sect   Type Bound  Init  Size OctSiz  Section name(segment info)
    0   Data  even  none    22     26  VXD$B2C
    1  RoData even  UTS      2      2  VXD$B2C
    2   Proc  even  none    88    130  VXD$B2C

    ****  Entry defs  ****

                              Check   Calling
                             calling  sequence
  Sect OctLoc Primary Altret sequence   type   Parms  Name
     2      0   yes            yes      Std        5  VXD$B2C

  ****  Entry refs  ****

         Check        Calling
        calling       sequence
Altret sequence SRef   type   Args  Name
                       nStd      0 X66_STATIC_5
                       Std       0 B_CONSPOOL_D

  ****  Data refs  ****

  Flags:  r = read only, s = secondary
Flgs Name                             Flgs Name                             Flgs Name
     VX_OU_HEAD                            VX_ERRORS                             VX_EFIELD1
     VX_EFIELD2                            VX_EFIELD3                            B_VECTNIL
PL6.E3A0      #001=VXD$B2C File=VXD$B2C.:E05TSI                                  WED 07/30/97 08:05 Page:6


        1        1        /*M* VXD$B2C - Converts binary to character. */
        2        2        /*M*  VXD$B2C - converts a binary number to a character string.   */
        3        3        /*T***********************************************************/
        4        4        /*T*                                                         */
        5        5        /*T* Copyright (c) Bull HN Information Systems Inc., 1997    */
        6        6        /*T*                                                         */
        7        7        /*T***********************************************************/
        8        8        /*X* DMR,PLM=6,IND=4,CSU=2,EXM=0,ECU=2,MOC,DCI=4,CRT=4          */
        9        9        VXD$B2C:
       10       10              PROC( BUFFER, BUF_START, TYPE, VALUE, BASE ) NOAUTO;

     10  2 000000   000000 700200 xent  VXD$B2C      TSX0  ! X66_STATIC_5
         2 000001   000000 000005 0                  ZERO    0,5

       11       11        /*
       12       12                          Include files
       13       13        */
       14       14        %INCLUDE B$OBJECT_C;
       15     3444        %INCLUDE VX_SWITCH_C;
       16     3452        %INCLUDE VX_SUBS_C;
       17     3670        %INCLUDE VX_MACRO_C;
       18     4807        %INCLUDE VX_DATA_R;
       19     6426        %INCLUDE B_MICROPS_C;
       20     6598        %BANNER(ARG=MOPSTR);

              6606    1   /*******************************************************************************
              6607    1   *                                                                              *
              6608    1   *                          MOPSTR                                                 *
              6609    1   *                                                                              *
              6610    1   *******************************************************************************/

       21     6614    1   DCL MOPSTR(0:4) BIT(9) CONSTANT INIT(%LTE3, '040'O, %MFLS11, %ENF00, %MVC1 );
       22     6615        %P;

              6623    1   /*******************************************************************************
              6624    1   *                                                                              *
PL6.E3A0      #001=VXD$B2C File=VXD$B2C.:E05TSI                                  WED 07/30/97 08:05 Page:7
              6625    1   *                          PARAMETERS                                             *
              6626    1   *                                                                              *
              6627    1   *******************************************************************************/

       23     6631    1   DCL BUFFER               CHAR(132)  UNAL;
       24     6632    1   DCL BUF_START            UBIN(36) ALIGNED;
       25     6633    1   DCL TYPE                 SBIN WORD ALIGNED;
       26     6634    1   DCL VALUE                SBIN WORD ALIGNED;
       27     6635    1   DCL VALUE_A(0:11) REDEF VALUE UBIN(3) UNAL;
       28     6636    1   DCL BASE                 UBIN(36) ALIGNED;
       29     6637        %C;

              6645    1   /*******************************************************************************
              6646    1   *                                                                              *
              6647    1   *                          CHAR                                                 *
              6648    1   *                                                                              *
              6649    1   *******************************************************************************/

       30     6653    1   DCL TEMP1                 CHAR(13)  UNAL;
       31     6654    1   DCL TEMP1_A(0:12) REDEF TEMP1 CHAR(1) UNAL;
       32     6655    1   DCL TEMP2                 CHAR(13)  UNAL;
       33     6656        %U;

              6664    1   /*******************************************************************************
              6665    1   *                                                                              *
              6666    1   *                          UBIN                                                 *
              6667    1   *                                                                              *
              6668    1   *******************************************************************************/

       34     6672    1   DCL J                    UBIN(36) ALIGNED;
       35     6673    1   DCL T_INDEX              UBIN(36) ALIGNED;
       36     6674    1   DCL SIZE                 UBIN(36) ALIGNED;
       37     6675        %EJECT;
PL6.E3A0      #001=VXD$B2C File=VXD$B2C.:E05TSI                                  WED 07/30/97 08:05 Page:8
       38     6676    2         IF BASE = 10 THEN DO;

   6676  2 000002   000005 470400 0                  LDP0    @BASE
         2 000003   000000 235100                    LDA     0,,PR0
         2 000004   000012 115007                    CMPA    10,DL
         2 000005   000013 601000 2                  TNZ     s:6680

       39     6677    2             CALL BINXCHAR( TEMP1, VALUE );

   6677  2 000006   000004 471400 0                  LDP1    @VALUE
         2 000007   000000 301500                    BTD
         2 000010   100000 000004                    NDSC9   0,,PR1                   cn=0,s=lsgnf,sf=0,n=4
         2 000011   000006 010015 0                  NDSC9   TEMP1                    cn=0,s=lsgns,sf=0,n=13

       40     6678    2            END;

   6678  2 000012   000037 710000 2                  TRA     s:6685

       41     6679    2         ELSE DO;                          /* BASE 8 */

       42     6680    2             TEMP1_A(0) = '+';

   6680  2 000013   053000 236003                    LDQ     22016,DU
         2 000014   000006 552040 0                  STBQ    TEMP1,'40'O

       43     6681    3             DO J = 0 TO 11;

   6681  2 000015   000016 450000 0                  STZ     J

       44     6682    3                 CALL BINCHAR( TEMP1_A(J+1), VALUE_A(J) );

   6682  2 000016   000016 236000 0                  LDQ     J
         2 000017   000003 402007                    MPY     3,DL
         2 000020   000004 470400 0                  LDP0    @VALUE
         2 000021   003000 061506                    CSR     bolr='003'O
         2 000022   000000 000003                    BDSC    0,Q,PR0                  by=0,bit=0,n=3
         2 000023   000022 000044 0                  BDSC    SIZE+2                   by=0,bit=0,n=36
PL6.E3A0      #001=VXD$B2C File=VXD$B2C.:E05TSI                                  WED 07/30/97 08:05 Page:9
         2 000024   000022 236000 0                  LDQ     SIZE+2
         2 000025   000000 235003                    LDA     0,DU
         2 000026   000024 757000 0                  STAQ    SIZE+4
         2 000027   000016 235000 0                  LDA     J
         2 000030   000005 301400                    BTD
         2 000031   000024 000010 0                  NDSC9   SIZE+4                   cn=0,s=lsgnf,sf=0,n=8
         2 000032   000006 230001 0                  NDSC9   TEMP1,A                  cn=1,s=nosgn,sf=0,n=1

       45     6683    3                END;

   6683  2 000033   000001 035007                    ADLA    1,DL
         2 000034   000016 755000 0                  STA     J
         2 000035   000014 115007                    CMPA    12,DL
         2 000036   000016 602000 2                  TNC     s:6682

       46     6684    2            END;

       47     6685    1         CALL EDITXCHAR( TEMP2, 0, 13, MOPSTR, TEMP1 );

   6685  2 000037   000000 024400                    MVNE
         2 000040   000006 010015 0                  NDSC9   TEMP1                    cn=0,s=lsgns,sf=0,n=13
         2 000041   000000 000005 1                  ADSC9   MOPSTR                   cn=0,n=5
         2 000042   000012 000015 0                  ADSC9   TEMP2                    cn=0,n=13

       48     6686    1         CALL INDEX1R( T_INDEX, ' ', TEMP2 );

   6686  2 000043   000000 125400                    SCMR    mask='000'O
         2 000044   000012 000015 0                  ADSC9   TEMP2                    cn=0,n=13
         2 000045   000035 000001 xsym               ADSC9   B_VECTNIL+29             cn=0,n=1
         2 000046   000017 000000 0                  ARG     T_INDEX
         2 000047   000052 606400 2                  TTN     s:6687
         2 000050   000014 236007                    LDQ     12,DL
         2 000051   000017 156000 0                  SSQ     T_INDEX

       49     6687    2         IF TYPE >= 0 THEN DO;

   6687  2 000052   000003 470400 0                  LDP0    @TYPE
PL6.E3A0      #001=VXD$B2C File=VXD$B2C.:E05TSI                                  WED 07/30/97 08:05 Page:10
         2 000053   000000 235100                    LDA     0,,PR0
         2 000054   000066 604000 2                  TMI     s:6693

       50     6688    2             IF TYPE ~= 0 THEN SIZE = TYPE;

   6688  2 000055   000060 600000 2                  TZE     s:6689

   6688  2 000056   000020 755000 0                  STA     SIZE
         2 000057   000062 710000 2                  TRA     s:6690

       51     6689    2             ELSE SIZE = 12;

   6689  2 000060   000014 236007                    LDQ     12,DL
         2 000061   000020 756000 0                  STQ     SIZE

       52     6690    2             T_INDEX = 13 - SIZE;

   6690  2 000062   000015 236007                    LDQ     13,DL
         2 000063   000020 136000 0                  SBLQ    SIZE
         2 000064   000017 756000 0                  STQ     T_INDEX

       53     6691    2            END;

   6691  2 000065   000116 710000 2                  TRA     s:6705

       54     6692    2         ELSE DO;

       55     6693    2             SIZE = 12 - T_INDEX;

   6693  2 000066   000014 236007                    LDQ     12,DL
         2 000067   000017 136000 0                  SBLQ    T_INDEX
         2 000070   000020 756000 0                  STQ     SIZE

       56     6694    2             T_INDEX = T_INDEX + 1;

   6694  2 000071   000017 235000 0                  LDA     T_INDEX
         2 000072   000001 035007                    ADLA    1,DL
PL6.E3A0      #001=VXD$B2C File=VXD$B2C.:E05TSI                                  WED 07/30/97 08:05 Page:11
         2 000073   000017 755000 0                  STA     T_INDEX

       57     6695    2             J = - TYPE;

   6695  2 000074   000000 235100                    LDA     0,,PR0
         2 000075   000000 531000                    NEG     0
         2 000076   000016 755000 0                  STA     J

       58     6696    3             DO CASE( J );

   6696  2 000077   000004 115007                    CMPA    4,DL
         2 000100   000102 602005 2                  TNC     s:6696+3,AL
         2 000101   000116 710000 2                  TRA     s:6705
         2 000102   000116 710000 2                  TRA     s:6705
         2 000103   000106 710000 2                  TRA     s:6698
         2 000104   000111 710000 2                  TRA     s:6700
         2 000105   000114 710000 2                  TRA     s:6702

       59     6697    3               CASE(1);

       60     6698    3                 VX_EFIELD1.COUNT = SIZE;

   6698  2 000106   000033 736000                    QLS     27
         2 000107   000000 552040 xsym               STBQ    VX_EFIELD1,'40'O
         2 000110   000116 710000 2                  TRA     s:6705

       61     6699    3               CASE(2);

       62     6700    3                 VX_EFIELD2.COUNT = SIZE;

   6700  2 000111   000033 736000                    QLS     27
         2 000112   000000 552040 xsym               STBQ    VX_EFIELD2,'40'O
         2 000113   000116 710000 2                  TRA     s:6705

       63     6701    3               CASE(3);

       64     6702    3                 VX_EFIELD3.COUNT = SIZE;
PL6.E3A0      #001=VXD$B2C File=VXD$B2C.:E05TSI                                  WED 07/30/97 08:05 Page:12

   6702  2 000114   000033 736000                    QLS     27
         2 000115   000000 552040 xsym               STBQ    VX_EFIELD3,'40'O

       65     6703    3               END;

       66     6704    2            END;

       67     6705    1         CALL INSERT( BUFFER, BUF_START, SIZE, SUBSTR(TEMP2, T_INDEX, SIZE) );

   6705  2 000116   000002 471400 0                  LDP1    @BUF_START
         2 000117   100000 235100                    LDA     0,,PR1
         2 000120   000020 720000 0                  LXL0    SIZE
         2 000121   000017 236000 0                  LDQ     T_INDEX
         2 000122   000001 473400 0                  LDP3    @BUFFER
         2 000123   040145 100446                    MLR     fill='040'O
         2 000124   000012 000010 0                  ADSC9   TEMP2,Q                  cn=0,n=*X0
         2 000125   300000 000010                    ADSC9   0,A,PR3                  cn=0,n=*X0

       68     6706
       69     6707    1   END VXD$B2C;

   6707  2 000126   000000 221200 0                  LDX1  ! 0
         2 000127   000001 702211                    TSX2  ! 1,X1

PL6.E3A0      #001=VXD$B2C File=VXD$B2C.:E05TSI                                  WED 07/30/97 08:05 Page:13
--  Include file information  --

   B_MICROPS_C.:E05TOU  is referenced.
   VX_DATA_R.:E05TOU  cannot be made into a system file and is referenced.
   VX_MACRO_C.:E05TOU  is referenced.
   VX_SUBS_C.:E05TOU  is referenced.
   VX_SWITCH_C.:E05TOU  is referenced.
   B$OBJECT_C.:E05TOU  is referenced.
      No diagnostics issued in procedure VXD$B2C.
PL6.E3A0      #001=VXD$B2C File=VXD$B2C.:E05TSI                                  WED 07/30/97 08:05 Page:14

 **** Variables and constants ****

  ****  Section 000  Data  VXD$B2C

  ****  Scalars and arrays  ****
OctLoc.c.b A Datatyp(siz) R M Lvl/name                 OctLoc.c.b A Datatyp(siz) R M Lvl/name

     5-0-0/w PTR         r     1 @BASE                      1-0-0/w PTR         r     1 @BUFFER
     2-0-0/w PTR         r     1 @BUF_START                 3-0-0/w PTR         r     1 @TYPE
     4-0-0/w PTR         r     1 @VALUE                    *0-0-0/w UBIN        r     1 BASE
    *0-0-0/c CHAR(132)   r     1 BUFFER                    *0-0-0/w UBIN        r     1 BUF_START
    16-0-0/w UBIN        r     1 J                         20-0-0/w UBIN        r     1 SIZE
     6-0-0/c CHAR(13)    r     1 TEMP1                      6-0-0/c CHAR        r     1 TEMP1_A(0:12)
    12-0-0/c CHAR(13)    r     1 TEMP2                     *0-0-0/w SBIN        r     1 TYPE
    17-0-0/w UBIN        r     1 T_INDEX                   *0-0-0/w SBIN        r     1 VALUE
    *0-0-0/w UBIN(3)     r     1 VALUE_A(0:11)

  ****  Section 001 RoData VXD$B2C

  ****  Scalars and arrays  ****
OctLoc.c.b A Datatyp(siz) R M Lvl/name                 OctLoc.c.b A Datatyp(siz) R M Lvl/name

     0-0-0/b BIT (9)     r     1 MOPSTR(0:4)

  ****  SYMREF variables  ****

  ****  Scalars and arrays  ****
OctLoc.c.b A Datatyp(siz) R M Lvl/name                 OctLoc.c.b A Datatyp(siz) R M Lvl/name

     0-0-0/w STRC(720)   r     1 VX_EFIELD1                 0-0-0/w STRC(720)   r     1 VX_EFIELD2
     0-0-0/w STRC(720)   r     1 VX_EFIELD3


   Procedure VXD$B2C requires 88 words for executable code.
   Procedure VXD$B2C is declared NOAUTO and requires 22 words of local(STATIC) storage.
PL6.E3A0      #001=VXD$B2C File=VXD$B2C.:E05TSI                                  WED 07/30/97 08:05 Page:15

    No errors detected in file VXD$B2C.:E05TSI    .
PL6.E3A0      #001=VXD$B2C File=VXD$B2C.:E05TSI                                  WED 07/30/97 08:05 Page:16
          *** CROSS REFERENCE LISTING ***
**     DENOTES     IDENTIFIER DEFINITION
<<                 IDENTIFIER'S VALUE SET
>>                 IDENTIFIER'S VALUE USED
<>                 IDENTIFIER SET AND/OR USED
--                 IDENTIFIER REFERENCED
PL6.E3A0      #001=VXD$B2C File=VXD$B2C.:E05TSI                                  WED 07/30/97 08:05 Page:17
          MINI XREF LISTING

BASE
      6636**DCL         9--PROC     6676>>IF
BUFFER
      6631**DCL         9--PROC     6705<<CALLBLT
BUF_START
      6632**DCL         9--PROC     6705>>CALLBLT
J
      6672**DCL      6681<<DOINDEX  6682>>CALLBLT  6682>>CALLBLT  6695<<ASSIGN   6696>>DOCASE
MOPSTR
      6614**DCL      6685>>CALLBLT
SIZE
      6674**DCL      6688<<ASSIGN   6689<<ASSIGN   6690>>ASSIGN   6693<<ASSIGN   6698>>ASSIGN   6700>>ASSIGN
      6702>>ASSIGN   6705>>CALLBLT  6705>>CALLBLT
TEMP1
      6653**DCL      6654--REDEF    6677<<CALLBLT  6685>>CALLBLT
TEMP1_A
      6654**DCL      6680<<ASSIGN   6682<<CALLBLT
TEMP2
      6655**DCL      6685<<CALLBLT  6686>>CALLBLT  6705>>CALLBLT
TYPE
      6633**DCL         9--PROC     6687>>IF       6688>>IF       6688>>ASSIGN   6695>>ASSIGN
T_INDEX
      6673**DCL      6686<<CALLBLT  6690<<ASSIGN   6693>>ASSIGN   6694<<ASSIGN   6694>>ASSIGN   6705>>CALLBLT
VALUE
      6634**DCL         9--PROC     6635--REDEF    6677>>CALLBLT
VALUE_A
      6635**DCL      6682>>CALLBLT
VX_BIAS.A
      5470**DCL      5471--REDEF
VX_CBUF.CHARS_A
      5404**DCL      5405--REDEF
VX_EBUF.CHARS_A
PL6.E3A0      #001=VXD$B2C File=VXD$B2C.:E05TSI                                  WED 07/30/97 08:05 Page:18
      5993**DCL      5994--REDEF
VX_EFIELD1.CHARS
      6002**DCL      6003--REDEF
VX_EFIELD1.COUNT
      6001**DCL      6698<<ASSIGN
VX_EFIELD2.CHARS
      6006**DCL      6007--REDEF
VX_EFIELD2.COUNT
      6005**DCL      6700<<ASSIGN
VX_EFIELD3.CHARS
      6010**DCL      6011--REDEF
VX_EFIELD3.COUNT
      6009**DCL      6702<<ASSIGN
VX_EI_KEY_BUF.KEY
      6386**DCL      6387--REDEF
VX_ERRORS
      5447**DCL      5458--REDEF
VX_ERRORS.CONFLICT_A
      5453**DCL      5454--REDEF
VX_ERRORS.UNSAT_A
      5449**DCL      5450--REDEF
VX_O.ACCTN_A$
      5599**DCL      5600--REDEF
VX_O.DCB_MATCH_A$
      5608**DCL      5609--REDEF
VX_O.DCB_MATCH_HIT_A
      5614**DCL      5615--REDEF
VX_O.FIDN_A$
      5593**DCL      5594--REDEF
VX_O.FID_A$
      5585**DCL      5586--REDEF
VX_O.INCLUDE_A$
      5605**DCL      5606--REDEF
VX_O.MAP_A
      5579**DCL      5580--REDEF
VX_O.NODCB_A
PL6.E3A0      #001=VXD$B2C File=VXD$B2C.:E05TSI                                  WED 07/30/97 08:05 Page:19
      5636**DCL      5637--REDEF
VX_O.NUM_A
      5524**DCL      5526--REDEF
VX_O.OPT_A
      5624**DCL      5625--REDEF
VX_O.PRIV_A
      5540**DCL      5542--REDEF
VX_O.SIN_A
      5493**DCL      5494--REDEF
VX_O.TCB_A
      5620**DCL      5621--REDEF
VX_OD.ACCTN_A$
      5797**DCL      5798--REDEF
VX_OD.DCB_MATCH_A$
      5806**DCL      5807--REDEF
VX_OD.FIDN_A$
      5791**DCL      5792--REDEF
VX_OD.FID_A$
      5783**DCL      5784--REDEF
VX_OD.INCLUDE_A$
      5803**DCL      5804--REDEF
VX_OD.MAP_A
      5777**DCL      5778--REDEF
VX_OD.NODCB_A
      5821**DCL      5822--REDEF
VX_OD.NUM_A
      5724**DCL      5725--REDEF
VX_OD.PRIV_A
      5739**DCL      5740--REDEF
VX_OD.SIN_A
      5693**DCL      5694--REDEF
VX_OD.VECTOR_A$
      5812**DCL      5813--REDEF
VX_OL.MAX_A
      5668**DCL      5670--REDEF
VX_OL.MIN_A
PL6.E3A0      #001=VXD$B2C File=VXD$B2C.:E05TSI                                  WED 07/30/97 08:05 Page:20
      5653**DCL      5654--REDEF
VX_ON.ACCTN_A$
      5942**DCL      5944--REDEF
VX_ON.DCB_MATCH_A$
      5953**DCL      5955--REDEF
VX_ON.FIDN_A$
      5935**DCL      5937--REDEF
VX_ON.FID_A$
      5926**DCL      5928--REDEF
VX_ON.INCLUDE_A$
      5949**DCL      5951--REDEF
VX_ON.MAP_A
      5919**DCL      5921--REDEF
VX_ON.NODCB_A$
      5969**DCL      5970--REDEF
VX_ON.NUM_A
      5864**DCL      5866--REDEF
VX_ON.PRIV_A
      5880**DCL      5882--REDEF
VX_ON.SIN_A
      5832**DCL      5834--REDEF
VX_ON.VECTOR_A$
      5960**DCL      5961--REDEF
VX_OUHEAD.VERSION
      5279**DCL      5281--REDEF
VX_OU_HEAD
      5222**DCL      5261--REDEF
VX_OU_HEAD.REC_A
      5234**DCL      5237--REDEF
VX_PASS2_REF.OU.L_START
      6172**DCL      6177--REDEF
VX_PASS2_REF.OU.L_STOP
      6178**DCL      6183--REDEF
VX_PASS2_REF.OU.MAX
      6166**DCL      6171--REDEF
VX_PASS2_REF.OU.SIZE
PL6.E3A0      #001=VXD$B2C File=VXD$B2C.:E05TSI                                  WED 07/30/97 08:05 Page:21
      6184**DCL      6189--REDEF
VX_PASS2_REF.SAT.COUNT
      6211**DCL      6217--REDEF
VX_PASS2_REF.SAT.ENT_SIZE
      6218**DCL      6224--REDEF
VX_PASS2_REF.SAT.L_START
      6197**DCL      6203--REDEF
VX_PASS2_REF.SAT.L_STOP
      6204**DCL      6210--REDEF
VX_PASS2_REF.SAT.MAX
      6191**DCL      6196--REDEF
VX_PASS2_REF.UNSAT.L_START
      6259**DCL      6264--REDEF
VX_PASS2_REF.UNSAT.L_STOP
      6265**DCL      6270--REDEF
VX_PASS2_REF.UNSAT.L_WHERE
      6271**DCL      6276--REDEF
VX_PASS2_REF.UNSAT.MAX
      6253**DCL      6258--REDEF
VX_PASS2_REF.UNSAT.PAGE#
      6283**DCL      6288--REDEF
VX_PASS2_REF.UNSAT.SIZE
      6277**DCL      6282--REDEF
VX_PHRASE.PHRASE
      5685**DCL      5687--REDEF
VX_PROGRAM_BIAS.A
      5463**DCL      5464--REDEF
VX_SPC.B$.MINE
      6354**DCL      6360--REDEF
VX_SPC.B$.NAME
      6333**DCL      6339--REDEF
VX_SPC.B$.SKIP
      6347**DCL      6353--REDEF
VX_SPC.B$.VALUE
      6340**DCL      6346--REDEF
VX_SPC.SEG.NAME
PL6.E3A0      #001=VXD$B2C File=VXD$B2C.:E05TSI                                  WED 07/30/97 08:05 Page:22
      6302**DCL      6308--REDEF
VX_SPC.SEG.VALUE
      6309**DCL      6315--REDEF
VX_TSX0_OVERLAY.H
      6077**DCL      6080--REDEF
