VERSION E05

PL6.E3A0      #001=VXI$INIT File=VXI$INIT.:E05TSI                                WED 07/30/97 08:12 Page:1
        1        1        /*M* VXI$INIT - performs initializations */
        2        2        /*T***********************************************************/
        3        3        /*T*                                                         */
        4        4        /*T* Copyright (c) Bull HN Information Systems Inc., 1997    */
        5        5        /*T*                                                         */
        6        6        /*T***********************************************************/
        7        7        /*X* DMR,PLM=6,IND=4,CSU=2,EXM=0,ECU=2,MOC,DCI=4,CRT=4,CTI=8,CCC */
        8        8        VXI$INIT:
        9        9              PROC;
       10       10        %INCLUDE VX_INC_C;
       11    10726        %PLIST;
       12    10727        %INCLUDE B$JIT;
       13    11017        %FPT_OPEN( FPTN=VX_SI_FPT_OPEN,
       14    11018                   DCB=M$SI,
       15    11019                   FUN=IN,
       16    11020                   STCLASS="STATIC SYMDEF");
       17    11129        %FPT_ERRMSG( FPTN=VX_FPT_ERRMSG_AUX,
       18    11130                   STCLASS="SYMREF");
       19    11157        %F$DCB;
       20    11214    1   DCL M$SI      DCB;
       21    11215    1   DCL M$DO      DCB;
       22    11216    1   DCL M$LO      DCB;
       23    11217    1   DCL M$OF      DCB;
       24    11218    1   DCL M$RF      DCB;
       25    11219    1   DCL M$LF      DCB;
       26    11220    1   DCL M$EI      DCB;
       27    11221        %FPT_TIME( FPTN= FPT_TIME,
       28    11222                   DATE=VX_HEADER.DATE_C,
       29    11223                   TIME=VX_HEADER.TIME_C,
       30    11224                   DAY =VX_HEADER.DAY_C,
       31    11225                   DEST=EXT,
       32    11226                   TSTAMP=VX_LINK_UTS);
       33    11245        %FPT_MONINFO( SITEINFO=VLR_SITEINFO );
       34    11260        %VLR_SITEINFO;
       35    11279        %FPT_INT (UENTRY=VXI$BREAK);
       36    11293    1   DCL VXW$WRITE  ENTRY(3);
       37    11294    1   DCL LINK_GREETING CHAR(80);
PL6.E3A0      #001=VXI$INIT File=VXI$INIT.:E05TSI                                WED 07/30/97 08:12 Page:2
       38    11295    1   DCL 1 B_VERSION ALIGNED SYMREF,
       39    11296    1         2 CNT UBIN BYTE UNAL,
       40    11297    1         2 TXT CHAR(6);
       41    11298    1   DCL I UBIN;
       42    11299    1   DCL VXF$OPEN_LO                       ENTRY ALTRET;
       43    11300    1   DCL VXI$BREAK ENTRY ASYNC ALTRET;
       44    11301        %RU_FLAVORS;
       45    11307        %EJECT;
PL6.E3A0      #001=VXI$INIT File=VXI$INIT.:E05TSI                                WED 07/30/97 08:12 Page:3
       46    11308    2         IF B$JIT$ -> B$JIT.MODE = %M_INT# THEN DO;
       47    11309    2             VX_ONLINE = 1;                /* Online */
       48    11310    2             VX_ERR_CODE.SEV = 0;
       49    11311    2            END;
       50    11312    2         ELSE DO;
       51    11313                                                /* Batch */
       52    11314    2             VX_ONLINE = 0;
       53    11315    2             VX_ERR_CODE.SEV = 7;
       54    11316    2            END;
       55    11317        /*                             Assign dcb addresses          */
       56    11318    1         M$UC$ = DCBADDR( DCBNUM( M$UC ) );
       57    11319    1         M$SI$ = DCBADDR( DCBNUM( M$SI ) );
       58    11320    1         M$DO$ = DCBADDR( DCBNUM( M$DO ) );
       59    11321    1         M$LO$ = DCBADDR( DCBNUM( M$LO ) );
       60    11322    1         M$OF$ = DCBADDR( DCBNUM( M$OF ) );
       61    11323    1         M$RF$ = DCBADDR( DCBNUM( M$RF ) );
       62    11324    1         M$LF$ = DCBADDR( DCBNUM( M$LF ) );
       63    11325    1         M$EI$ = DCBADDR( DCBNUM( M$EI ) );
       64    11326    1         CALL M$TIME( FPT_TIME );
       65    11327    1         CALL M$OPEN( VX_SI_FPT_OPEN ) ALTRET( IGNORE2 );
       66    11328    1   IGNORE2:;
       67    11329    1         VX_FPT_ERRMSG.V.INCLCODE# = VX_FCG_SWITCH;
       68    11330    1         VX_FPT_ERRMSG_AUX.V.INCLCODE# = VX_FCG_SWITCH;
       69    11331
       70    11332    1         CALL VXF$OPEN_LO;                 /* Open M$LO     */
       71    11333
       72    11334        /*                Initialize the run unit's head record    */
       73    11335    1         VX_RU_HEAD = '0'B;
       74    11336    1         VX_RU_HEAD.VERSION# = @LINK_VERSION#;
       75    11337    1         VX_RU_HEAD.FLAVOR = %HOST_RU;
       76    11338    1         VX_RU_HEAD.LIBNAME.TXT = ' ';
       77    11339    1         VX_RU_HEAD.ASLNAME.TXT = ' ';
       78    11340
       79    11341        /*                Get version.                                */
       80    11342    1         CALL M$MONINFO( FPT_MONINFO );
       81    11343    1         CALL CONCAT( VX_O.VERSION.TEXT, SUBSTR(VLR_SITEINFO.VERSION#,0,3),
       82    11344    1                 VLR_SITEINFO.MINI_ID# );
PL6.E3A0      #001=VXI$INIT File=VXI$INIT.:E05TSI                                WED 07/30/97 08:12 Page:4
       83    11345    1         CALL INDEX(I,' ',VX_O.VERSION.TEXT);
       84    11346    1         VX_O.VERSION.COUNT = I;
       85    11347    1         CALL CONCAT (LINK_GREETING, 'LINK ',SUBSTR(B_VERSION.TXT,0,B_VERSION.CNT),
             11347                  ' here');
       86    11348    1         CALL VXW$WRITE(LINK_GREETING,LENGTHC(LINK_GREETING),0);
       87    11349
       88    11350        /* Set interrupt routine */
       89    11351    1         CALL M$INT (FPT_INT) ALTRET (CONT);
       90    11352    1   CONT:
       91    11353    1   END VXI$INIT;
       92    11354        %EOD;

PL6.E3A0      #001=VXI$INIT File=VXI$INIT.:E05TSI                                WED 07/30/97 08:12 Page:5
--  Include file information  --

   B$JIT.:E05TOU  cannot be made into a system file and is referenced.
   F_DCB_D.:E05TOU  is referenced.
   VX_DCB_R.:E05TOU  cannot be made into a system file and is referenced.
   VX_DATA_R.:E05TOU  cannot be made into a system file and is referenced.
   VX_FIXED_R.:E05TOU  cannot be made into a system file and is referenced.
   XU_MACRO_C.:E05TOU  is referenced.
   CP_6.:E05TOU  cannot be made into a system file and is referenced.
   VX_MACRO_C.:E05TOU  is referenced.
   VX_PERR_C.:E05TOU  is referenced.
   VX_SUBS_C.:E05TOU  is referenced.
   VX_SWITCH_C.:E05TOU  is referenced.
   B$OBJECT_C.:E05TOU  is referenced.
   VX_INC_C.:E05TOU  is referenced.
   B$JIT_C.:E05TOU  was found in the system file and is referenced.
   CP_6_C.:E05TOU  was found in the system file and is referenced.
      No diagnostics issued in procedure VXI$INIT.

   Procedure VXI$INIT requires 122 words for executable code.
   Procedure VXI$INIT requires 28 words of local(AUTO) storage.

PL6.E3A0      #001=VXI$INIT File=VXI$INIT.:E05TSI                                WED 07/30/97 08:12 Page:6

 Object Unit name= VXI$INIT                                   File name= VXI$INIT.:E05TOU
 UTS= JUL 30 '97 08:12:38.00 WED                              Compiler= PL-6/E31         Sev=      00
 SharedLib= :SHARED_SYSTEM                                    Alt SharedLib=


    ****  Control sections  ****

 Sect   Type Bound  Init  Size OctSiz  Section name(segment info)
    0   DCB   even  none     0      0  M$UC
    1  LblCom even  none    96    140  VX_CONST_DCB
    2   Data  even  none   148    224  VXI$INIT
    3   DCB   even  none     0      0  M$SI
    4   DCB   even  none     0      0  M$DO
    5   DCB   even  none     0      0  M$LO
    6   DCB   even  none     0      0  M$OF
    7   DCB   even  none     0      0  M$RF
    8   DCB   even  none     0      0  M$LF
    9   DCB   even  none     0      0  M$EI
   10  RoData even  UTS      4      4  VXI$INIT
   11   Proc  even  none   122    172  VXI$INIT
   12  RoData even  none     6      6  VXI$INIT

    ****  Entry defs  ****

                              Check   Calling
                             calling  sequence
  Sect OctLoc Primary Altret sequence   type   Parms  Name
    11      0   yes            yes      Std        0  VXI$INIT

  ****  Data defs  ****

 Sect OctLoc  Name                           Sect OctLoc  Name
    2      0  VX_SI_FPT_OPEN
PL6.E3A0      #001=VXI$INIT File=VXI$INIT.:E05TSI                                WED 07/30/97 08:12 Page:7

  ****  Entry refs  ****

         Check        Calling
        calling       sequence
Altret sequence SRef   type   Args  Name
 yes     yes          Async      0 VXI$BREAK
         yes           Std       3 VXW$WRITE
 yes     yes           Std       0 VXF$OPEN_LO
                       nStd      0 X66_AUTO_0
                       Std       0 B_CONSPOOL_D
                       nStd      0 X66_ARET

  ****  Data refs  ****

  Flags:  r = read only, s = secondary
Flgs Name                             Flgs Name                             Flgs Name
     M$UC                                  VX_FPT_ERRMSG                         B$JIT$
     VX_RU_HEAD                            VX_OU_HEAD                            VX_FCG_SWITCH
     VX_LINK_UTS                           VX_ERRORS                             VX_ONLINE
     VX_O                                  VX_ERR_CODE                           VX_HEADER
     M$UC$                                 M$SI$                                 M$EI$
     M$DO$                                 M$LO$                                 M$OF$
     M$RF$                                 M$LF$                                 VX_FPT_ERRMSG_AUX
     M$SI                                  M$DO                                  M$LO
     M$OF                                  M$RF                                  M$LF
     M$EI                                  B_VERSION                             B_VECTNIL

  ****  Segment refs  ****

  Flags:  r = read only, s = secondary
Flgs Name                             Flgs Name                             Flgs Name
     NULLSID                               ISSID                                 ROSID
PL6.E3A0      #001=VXI$INIT File=VXI$INIT.:E05TSI                                WED 07/30/97 08:12 Page:8


        1        1        /*M* VXI$INIT - performs initializations */
        2        2        /*T***********************************************************/
        3        3        /*T*                                                         */
        4        4        /*T* Copyright (c) Bull HN Information Systems Inc., 1997    */
        5        5        /*T*                                                         */
        6        6        /*T***********************************************************/
        7        7        /*X* DMR,PLM=6,IND=4,CSU=2,EXM=0,ECU=2,MOC,DCI=4,CRT=4,CTI=8,CCC */
        8        8        VXI$INIT:
        9        9              PROC;

      9 11 000000   000000 700200 xent  VXI$INIT     TSX0  ! X66_AUTO_0
        11 000001   000034 000000                    ZERO    28,0

       10       10        %INCLUDE VX_INC_C;
       11    10726        %PLIST;
       12    10727        %INCLUDE B$JIT;
       13    11017        %FPT_OPEN( FPTN=VX_SI_FPT_OPEN,
       14    11018                   DCB=M$SI,
       15    11019                   FUN=IN,
       16    11020                   STCLASS="STATIC SYMDEF");
       17    11129        %FPT_ERRMSG( FPTN=VX_FPT_ERRMSG_AUX,
       18    11130                   STCLASS="SYMREF");
       19    11157        %F$DCB;
       20    11214    1   DCL M$SI      DCB;
       21    11215    1   DCL M$DO      DCB;
       22    11216    1   DCL M$LO      DCB;
       23    11217    1   DCL M$OF      DCB;
       24    11218    1   DCL M$RF      DCB;
       25    11219    1   DCL M$LF      DCB;
       26    11220    1   DCL M$EI      DCB;
       27    11221        %FPT_TIME( FPTN= FPT_TIME,
       28    11222                   DATE=VX_HEADER.DATE_C,
       29    11223                   TIME=VX_HEADER.TIME_C,
       30    11224                   DAY =VX_HEADER.DAY_C,
       31    11225                   DEST=EXT,
       32    11226                   TSTAMP=VX_LINK_UTS);
PL6.E3A0      #001=VXI$INIT File=VXI$INIT.:E05TSI                                WED 07/30/97 08:12 Page:9
       33    11245        %FPT_MONINFO( SITEINFO=VLR_SITEINFO );
       34    11260        %VLR_SITEINFO;
       35    11279        %FPT_INT (UENTRY=VXI$BREAK);
       36    11293    1   DCL VXW$WRITE  ENTRY(3);
       37    11294    1   DCL LINK_GREETING CHAR(80);
       38    11295    1   DCL 1 B_VERSION ALIGNED SYMREF,
       39    11296    1         2 CNT UBIN BYTE UNAL,
       40    11297    1         2 TXT CHAR(6);
       41    11298    1   DCL I UBIN;
       42    11299    1   DCL VXF$OPEN_LO                       ENTRY ALTRET;
       43    11300    1   DCL VXI$BREAK ENTRY ASYNC ALTRET;
       44    11301        %RU_FLAVORS;
       45    11307        %EJECT;
PL6.E3A0      #001=VXI$INIT File=VXI$INIT.:E05TSI                                WED 07/30/97 08:12 Page:10
       46    11308    2         IF B$JIT$ -> B$JIT.MODE = %M_INT# THEN DO;

  11308 11 000002   000000 470400 xsym               LDP0    B$JIT$
        11 000003   000000 236100                    LDQ     0,,PR0
        11 000004   740000 376003                    ANQ     -16384,DU
        11 000005   140000 116003                    CMPQ    49152,DU
        11 000006   000014 601000 11                 TNZ     s:11314

       47    11309    2             VX_ONLINE = 1;                /* Online */

  11309 11 000007   000001 235007                    LDA     1,DL
        11 000010   000000 755000 xsym               STA     VX_ONLINE

       48    11310    2             VX_ERR_CODE.SEV = 0;

  11310 11 000011   000000 236000 12                 LDQ     0
        11 000012   000000 356000 xsym               ANSQ    VX_ERR_CODE

       49    11311    2            END;

  11311 11 000013   000017 710000 11                 TRA     s:11318

       50    11312    2         ELSE DO;

       51    11313                                                /* Batch */
       52    11314    2             VX_ONLINE = 0;

  11314 11 000014   000000 450000 xsym               STZ     VX_ONLINE

       53    11315    2             VX_ERR_CODE.SEV = 7;

  11315 11 000015   000007 236007                    LDQ     7,DL
        11 000016   000000 256000 xsym               ORSQ    VX_ERR_CODE

       54    11316    2            END;

       55    11317        /*                             Assign dcb addresses          */
PL6.E3A0      #001=VXI$INIT File=VXI$INIT.:E05TSI                                WED 07/30/97 08:12 Page:11
       56    11318    1         M$UC$ = DCBADDR( DCBNUM( M$UC ) );

  11318 11 000017   000000 236007 xsym               LDQ     M$UC,DL
        11 000020   000001 471400 12                 LDP1    1
        11 000021   100000 473500                    LDP3    0,,PR1
        11 000022   300000 236106                    LDQ     0,QL,PR3
        11 000023   000000 756000 xsym               STQ     M$UC$

       57    11319    1         M$SI$ = DCBADDR( DCBNUM( M$SI ) );

  11319 11 000024   000000 236007 xsym               LDQ     M$SI,DL
        11 000025   300000 236106                    LDQ     0,QL,PR3
        11 000026   000000 756000 xsym               STQ     M$SI$

       58    11320    1         M$DO$ = DCBADDR( DCBNUM( M$DO ) );

  11320 11 000027   000000 236007 xsym               LDQ     M$DO,DL
        11 000030   300000 236106                    LDQ     0,QL,PR3
        11 000031   000000 756000 xsym               STQ     M$DO$

       59    11321    1         M$LO$ = DCBADDR( DCBNUM( M$LO ) );

  11321 11 000032   000000 236007 xsym               LDQ     M$LO,DL
        11 000033   300000 236106                    LDQ     0,QL,PR3
        11 000034   000000 756000 xsym               STQ     M$LO$

       60    11322    1         M$OF$ = DCBADDR( DCBNUM( M$OF ) );

  11322 11 000035   000000 236007 xsym               LDQ     M$OF,DL
        11 000036   300000 236106                    LDQ     0,QL,PR3
        11 000037   000000 756000 xsym               STQ     M$OF$

       61    11323    1         M$RF$ = DCBADDR( DCBNUM( M$RF ) );

  11323 11 000040   000000 236007 xsym               LDQ     M$RF,DL
        11 000041   300000 236106                    LDQ     0,QL,PR3
        11 000042   000000 756000 xsym               STQ     M$RF$
PL6.E3A0      #001=VXI$INIT File=VXI$INIT.:E05TSI                                WED 07/30/97 08:12 Page:12

       62    11324    1         M$LF$ = DCBADDR( DCBNUM( M$LF ) );

  11324 11 000043   000000 236007 xsym               LDQ     M$LF,DL
        11 000044   300000 236106                    LDQ     0,QL,PR3
        11 000045   000000 756000 xsym               STQ     M$LF$

       63    11325    1         M$EI$ = DCBADDR( DCBNUM( M$EI ) );

  11325 11 000046   000000 236007 xsym               LDQ     M$EI,DL
        11 000047   300000 236106                    LDQ     0,QL,PR3
        11 000050   000000 756000 xsym               STQ     M$EI$

       64    11326    1         CALL M$TIME( FPT_TIME );

  11326 11 000051   000072 630400 2                  EPPR0   FPT_TIME
        11 000052   020004 713400                    CLIMB   8196
        11 000053   402000 401760                    pmme    nvectors=5

       65    11327    1         CALL M$OPEN( VX_SI_FPT_OPEN ) ALTRET( IGNORE2 );

  11327 11 000054   000000 630400 2                  EPPR0   VX_SI_FPT_OPEN
        11 000055   450000 713400                    CLIMB   alt,open
        11 000056   410400 401760                    pmme    nvectors=18
        11 000057   000060 702000 11                 TSX2    IGNORE2

  11325 11 000060                       IGNORE2      null
       66    11328    1   IGNORE2:;
       67    11329    1         VX_FPT_ERRMSG.V.INCLCODE# = VX_FCG_SWITCH;

  11329 11 000060   000000 236000 xsym               LDQ     VX_FCG_SWITCH
        11 000061   000006 772000                    QRL     6
        11 000062   000030 676000 xsym               ERQ     VX_FPT_ERRMSG+24
        11 000063   004000 376003                    ANQ     2048,DU
        11 000064   000030 656000 xsym               ERSQ    VX_FPT_ERRMSG+24

       68    11330    1         VX_FPT_ERRMSG_AUX.V.INCLCODE# = VX_FCG_SWITCH;
PL6.E3A0      #001=VXI$INIT File=VXI$INIT.:E05TSI                                WED 07/30/97 08:12 Page:13

  11330 11 000065   000000 236000 xsym               LDQ     VX_FCG_SWITCH
        11 000066   000006 772000                    QRL     6
        11 000067   000030 676000 xsym               ERQ     VX_FPT_ERRMSG_AUX+24
        11 000070   004000 376003                    ANQ     2048,DU
        11 000071   000030 656000 xsym               ERSQ    VX_FPT_ERRMSG_AUX+24

       69    11331
       70    11332    1         CALL VXF$OPEN_LO;                 /* Open M$LO     */

  11332 11 000072   000002 631400 xsym               EPPR1   B_VECTNIL+2
        11 000073   000000 701000 xent               TSX1    VXF$OPEN_LO
        11 000074   000000 011000                    NOP     0

       71    11333
       72    11334        /*                Initialize the run unit's head record    */
       73    11335    1         VX_RU_HEAD = '0'B;

  11335 11 000075   000000 100400                    MLR     fill='000'O
        11 000076   000002 000001 xsym               ADSC9   B_VECTNIL+2              cn=0,n=1
        11 000077   000000 000240 xsym               ADSC9   VX_RU_HEAD               cn=0,n=160

       74    11336    1         VX_RU_HEAD.VERSION# = @LINK_VERSION#;

  11336 11 000100   012000 236003                    LDQ     5120,DU
        11 000101   000011 552040 xsym               STBQ    VX_RU_HEAD+9,'40'O

       75    11337    1         VX_RU_HEAD.FLAVOR = %HOST_RU;

  11337 11 000102   001000 236003                    LDQ     512,DU
        11 000103   000022 552040 xsym               STBQ    VX_RU_HEAD+18,'40'O

       76    11338    1         VX_RU_HEAD.LIBNAME.TXT = ' ';

  11338 11 000104   040000 100400                    MLR     fill='040'O
        11 000105   000035 000001 xsym               ADSC9   B_VECTNIL+29             cn=0,n=1
        11 000106   000030 200037 xsym               ADSC9   VX_RU_HEAD+24            cn=1,n=31
PL6.E3A0      #001=VXI$INIT File=VXI$INIT.:E05TSI                                WED 07/30/97 08:12 Page:14

       77    11339    1         VX_RU_HEAD.ASLNAME.TXT = ' ';

  11339 11 000107   040000 100400                    MLR     fill='040'O
        11 000110   000035 000001 xsym               ADSC9   B_VECTNIL+29             cn=0,n=1
        11 000111   000040 200037 xsym               ADSC9   VX_RU_HEAD+32            cn=1,n=31

       78    11340
       79    11341        /*                Get version.                                */
       80    11342    1         CALL M$MONINFO( FPT_MONINFO );

  11342 11 000112   000106 630400 2                  EPPR0   FPT_MONINFO
        11 000113   020023 713400                    CLIMB   8211
        11 000114   402400 401760                    pmme    nvectors=6

       81    11343    1         CALL CONCAT( VX_O.VERSION.TEXT, SUBSTR(VLR_SITEINFO.VERSION#,0,3),

  11343 11 000115   000206 236000 2                  LDQ     VLR_SITEINFO+52
        11 000116   000011 772000                    QRL     9
        11 000117   000172 552034 xsym               STBQ    VX_O+122,'34'O
        11 000120   000122 236000 2                  LDQ     VLR_SITEINFO
        11 000121   000002 376000 12                 ANQ     2
        11 000122   000040 276007                    ORQ     32,DL
        11 000123   000173 756000 xsym               STQ     VX_O+123

       82    11344    1                 VLR_SITEINFO.MINI_ID# );
       83    11345    1         CALL INDEX(I,' ',VX_O.VERSION.TEXT);

  11345 11 000124   000000 124400                    SCM     mask='000'O
        11 000125   000172 200006 xsym               ADSC9   VX_O+122                 cn=1,n=6
        11 000126   000035 000001 xsym               ADSC9   B_VECTNIL+29             cn=0,n=1
        11 000127   200027 000100                    ARG     I,,AUTO

       84    11346    1         VX_O.VERSION.COUNT = I;

  11346 11 000130   200027 236100                    LDQ     I,,AUTO
        11 000131   000033 736000                    QLS     27
PL6.E3A0      #001=VXI$INIT File=VXI$INIT.:E05TSI                                WED 07/30/97 08:12 Page:15
        11 000132   000172 552040 xsym               STBQ    VX_O+122,'40'O

       85    11347    1         CALL CONCAT (LINK_GREETING, 'LINK ',SUBSTR(B_VERSION.TXT,0,B_VERSION.CNT),
             11347                  ' here');

  11347 11 000133   000000 236000 xsym               LDQ     B_VERSION
        11 000134   000033 772000                    QRL     27
        11 000135   040100 100400                    MLR     fill='040'O
        11 000136   000000 000005 10                 ADSC9   0                        cn=0,n=5
        11 000137   200003 000005                    ADSC9   LINK_GREETING,,AUTO      cn=0,n=5
        11 000140   000000 620006                    EAX0    0,QL
        11 000141   040100 100440                    MLR     fill='040'O
        11 000142   000000 200010 xsym               ADSC9   B_VERSION                cn=1,n=*X0
        11 000143   200004 200113                    ADSC9   LINK_GREETING+1,,AUTO    cn=1,n=75
        11 000144   000113 116007                    CMPQ    75,DL
        11 000145   000153 603000 11                 TRC     s:11348
        11 000146   777664 620006                    EAX0    -76,QL
        11 000147   777777 660003                    ERX0    -1,DU
        11 000150   040146 100400                    MLR     fill='040'O
        11 000151   000002 000005 10                 ADSC9   2                        cn=0,n=5
        11 000152   200004 200010                    ADSC9   LINK_GREETING+1,Q,AUTO   cn=1,n=*X0

       86    11348    1         CALL VXW$WRITE(LINK_GREETING,LENGTHC(LINK_GREETING),0);

  11348 11 000153   000004 236000 12                 LDQ     4
        11 000154   200032 756100                    STQ     I+3,,AUTO
        11 000155   000005 236000 12                 LDQ     5
        11 000156   200031 756100                    STQ     I+2,,AUTO
        11 000157   200003 630500                    EPPR0   LINK_GREETING,,AUTO
        11 000160   200030 450500                    STP0    I+1,,AUTO
        11 000161   200030 630500                    EPPR0   I+1,,AUTO
        11 000162   000021 631400 xsym               EPPR1   B_VECTNIL+17
        11 000163   000000 701000 xent               TSX1    VXW$WRITE
        11 000164   000000 011000                    NOP     0

       87    11349
       88    11350        /* Set interrupt routine */
PL6.E3A0      #001=VXI$INIT File=VXI$INIT.:E05TSI                                WED 07/30/97 08:12 Page:16
       89    11351    1         CALL M$INT (FPT_INT) ALTRET (CONT);

  11351 11 000165   000220 630400 2                  EPPR0   FPT_INT
        11 000166   410002 713400                    CLIMB   alt,+4098
        11 000167   400000 401760                    pmme    nvectors=1
        11 000170   000171 702000 11                 TSX2    CONT

       90    11352    1   CONT:
       91    11353    1   END VXI$INIT;

  11353 11 000171                       CONT         null
  11353 11 000171   000000 702200 xent               TSX2  ! X66_ARET
       92    11354        %EOD;

PL6.E3A0      #001=VXI$INIT File=VXI$INIT.:E05TSI                                WED 07/30/97 08:12 Page:17
--  Include file information  --

   B$JIT.:E05TOU  cannot be made into a system file and is referenced.
   F_DCB_D.:E05TOU  is referenced.
   VX_DCB_R.:E05TOU  cannot be made into a system file and is referenced.
   VX_DATA_R.:E05TOU  cannot be made into a system file and is referenced.
   VX_FIXED_R.:E05TOU  cannot be made into a system file and is referenced.
   XU_MACRO_C.:E05TOU  is referenced.
   CP_6.:E05TOU  cannot be made into a system file and is referenced.
   VX_MACRO_C.:E05TOU  is referenced.
   VX_PERR_C.:E05TOU  is referenced.
   VX_SUBS_C.:E05TOU  is referenced.
   VX_SWITCH_C.:E05TOU  is referenced.
   B$OBJECT_C.:E05TOU  is referenced.
   VX_INC_C.:E05TOU  is referenced.
   B$JIT_C.:E05TOU  was found in the system file and is referenced.
   CP_6_C.:E05TOU  was found in the system file and is referenced.
      No diagnostics issued in procedure VXI$INIT.
PL6.E3A0      #001=VXI$INIT File=VXI$INIT.:E05TSI                                WED 07/30/97 08:12 Page:18

 **** Variables and constants ****

  ****  Section 002  Data  VXI$INIT

  ****  Scalars and arrays  ****
OctLoc.c.b A Datatyp(siz) R M Lvl/name                 OctLoc.c.b A Datatyp(siz) R M Lvl/name

   220-0-0/d STRC(144)   r     1 FPT_INT                  106-0-0/d STRC(432)   r     1 FPT_MONINFO
    72-0-0/d STRC(432)   r     1 FPT_TIME                 122-0-0/d STRC(2232)  r     1 VLR_SITEINFO
     0-0-0/d STRC(2088)  r     1 VX_SI_FPT_OPEN

  ****  Auto variables  ****

  ****  Scalars and arrays  ****
OctLoc.c.b A Datatyp(siz) R M Lvl/name                 OctLoc.c.b A Datatyp(siz) R M Lvl/name

    27-0-0/w UBIN        r     1 I                          3-0-0/c CHAR(80)    r     1 LINK_GREETING

  ****  SYMREF variables  ****

  ****  Scalars and arrays  ****
OctLoc.c.b A Datatyp(siz) R M Lvl/name                 OctLoc.c.b A Datatyp(siz) R M Lvl/name

     0-0-0/w PTR         r     1 B$JIT$                     0-0-0/w STRC(63)    r     1 B_VERSION
     0-0-0/w PTR         r     1 M$DO$                      0-0-0/w PTR         r     1 M$EI$
     0-0-0/w PTR         r     1 M$LF$                      0-0-0/w PTR         r     1 M$LO$
     0-0-0/w PTR         r     1 M$OF$                      0-0-0/w PTR         r     1 M$RF$
     0-0-0/w PTR         r     1 M$SI$                      0-0-0/w PTR         r     1 M$UC$
     0-0-0/w STRC        r     1 VX_ERR_CODE                0-0-0/w BIT         r     1 VX_FCG_SWITCH
     0-0-0/d STRC(936)   r     1 VX_FPT_ERRMSG              0-0-0/d STRC(936)   r     1 VX_FPT_ERRMSG_AUX
     0-0-0/c STRC(450)   r     1 VX_HEADER                  0-0-0/w UBIN        r     1 VX_LINK_UTS
     0-0-0/w STRC(4572)  r     1 VX_O                       0-0-0/w UBIN        r     1 VX_ONLINE
     0-0-0/w STRC(1440)  r     1 VX_RU_HEAD

  ****  BASED and DCB variables  ****

  ****  Scalars and arrays  ****
PL6.E3A0      #001=VXI$INIT File=VXI$INIT.:E05TSI                                WED 07/30/97 08:12 Page:19
OctLoc.c.b A Datatyp(siz) R M Lvl/name                 OctLoc.c.b A Datatyp(siz) R M Lvl/name

     0-0-0/d STRC(8856)  r     1 B$JIT                      0-0-0/d ASTR(3528)  r     1 F$DCB
     0-0-0N  NULL        r     1 M$DO                       0-0-0N  NULL        r     1 M$EI
     0-0-0N  NULL        r     1 M$LF                       0-0-0N  NULL        r     1 M$LO
     0-0-0N  NULL        r     1 M$OF                       0-0-0N  NULL        r     1 M$RF
     0-0-0N  NULL        r     1 M$SI                       0-0-0N  NULL        r     1 M$UC


   Procedure VXI$INIT requires 122 words for executable code.
   Procedure VXI$INIT requires 28 words of local(AUTO) storage.
PL6.E3A0      #001=VXI$INIT File=VXI$INIT.:E05TSI                                WED 07/30/97 08:12 Page:20
          *** CROSS REFERENCE LISTING ***
**     DENOTES     IDENTIFIER DEFINITION
<<                 IDENTIFIER'S VALUE SET
>>                 IDENTIFIER'S VALUE USED
<>                 IDENTIFIER SET AND/OR USED
--                 IDENTIFIER REFERENCED
PL6.E3A0      #001=VXI$INIT File=VXI$INIT.:E05TSI                                WED 07/30/97 08:12 Page:21
          MINI XREF LISTING

B$JIT.CPFLAGS1.SLEAZE
     10835**DCL     10835--REDEF
B$JIT.ERR.MID
     10742**DCL     10742--REDEF
B$JIT.JRESPEAK
     10903**DCL     10904--REDEF
B$JIT.MODE
     10736**DCL     11308>>IF
B$JIT.ORIGINATOR_PORT.FROM_CR
     11012**DCL     11012--REDEF   11013--REDEF
B$JIT.PNR
     10916**DCL     10916--REDEF
B$JIT.TSLINE
     11010**DCL     11011--REDEF
B$JIT$
      8910**DCL     10736--IMP-PTR 11308>>IF
B_VERSION.CNT
     11296**DCL     11347>>CALLBLT
B_VERSION.TXT
     11297**DCL     11347>>CALLBLT
CONT
     11353**LABEL   11351--CALLALT
F$DCB.ACTPOS
     11190**DCL     11190--REDEF
F$DCB.ARS#
     11164**DCL     11164--REDEF
F$DCB.ATTR
     11183**DCL     11184--REDEF
F$DCB.BORROW
     11198**DCL     11198--REDEF   11198--REDEF   11198--REDEF
F$DCB.DCBNAME.L
     11212**DCL     11212--IMP-SIZ
PL6.E3A0      #001=VXI$INIT File=VXI$INIT.:E05TSI                                WED 07/30/97 08:12 Page:22
F$DCB.EOMCHAR#
     11168**DCL     11168--REDEF
F$DCB.FLDID
     11193**DCL     11193--REDEF
F$DCB.FORM$
     11187**DCL     11187--REDEF
F$DCB.FSECT
     11203**DCL     11203--REDEF
F$DCB.FSN#
     11180**DCL     11180--REDEF   11180--REDEF   11181--REDEF
F$DCB.HEADER$
     11186**DCL     11186--REDEF
F$DCB.IXTNSIZE#
     11184**DCL     11184--REDEF
F$DCB.LASTSTA$
     11173**DCL     11173--REDEF
F$DCB.LVL
     11199**DCL     11199--REDEF
F$DCB.NAME#.C
     11174**DCL     11174--REDEF
F$DCB.NOEOF
     11196**DCL     11196--REDEF
F$DCB.NRECS#
     11185**DCL     11185--REDEF
F$DCB.NRECX
     11204**DCL     11204--REDEF
F$DCB.OHDR
     11196**DCL     11196--REDEF
F$DCB.ORG#
     11179**DCL     11179--REDEF
F$DCB.PRECNO
     11202**DCL     11202--REDEF
F$DCB.RCSZ
     11208**DCL     11208--REDEF
F$DCB.RES#
     11175**DCL     11175--REDEF
PL6.E3A0      #001=VXI$INIT File=VXI$INIT.:E05TSI                                WED 07/30/97 08:12 Page:23
F$DCB.SETX
     11187**DCL     11187--REDEF
F$DCB.TAB$
     11187**DCL     11187--REDEF
F$DCB.TDA
     11201**DCL     11202--REDEF
F$DCB.WSN#
     11175**DCL     11175--REDEF
FPT_INT
     11290**DCL     11351<>CALL
FPT_INT.V
     11290**DCL     11290--DCLINIT
FPT_MONINFO
     11256**DCL     11342<>CALL
FPT_TIME
     11237**DCL     11326<>CALL
FPT_TIME.V
     11241**DCL     11237--DCLINIT
I
     11298**DCL     11345<<CALLBLT 11346>>ASSIGN
IGNORE2
     11325**LABEL   11327--CALLALT
LINK_GREETING
     11294**DCL     11347<<CALLBLT 11348<>CALL    11348--CALL
M$DO
     11215**DCL     11320--ASSIGN
M$DO$
     10644**DCL     11320<<ASSIGN
M$EI
     11220**DCL     11325--ASSIGN
M$EI$
     10643**DCL     11325<<ASSIGN
M$INT
      5128**DCL-ENT 11351--CALL
M$LF
     11219**DCL     11324--ASSIGN
PL6.E3A0      #001=VXI$INIT File=VXI$INIT.:E05TSI                                WED 07/30/97 08:12 Page:24
M$LF$
     10648**DCL     11324<<ASSIGN
M$LO
     11216**DCL     11321--ASSIGN
M$LO$
     10645**DCL     11321<<ASSIGN
M$MONINFO
      5141**DCL-ENT 11342--CALL
M$OF
     11217**DCL     11322--ASSIGN
M$OF$
     10646**DCL     11322<<ASSIGN
M$OPEN
      5073**DCL-ENT 11327--CALL
M$RF
     11218**DCL     11323--ASSIGN
M$RF$
     10647**DCL     11323<<ASSIGN
M$SI
     11214**DCL     11319--ASSIGN
M$SI$
     10642**DCL     11319<<ASSIGN
M$TIME
      5140**DCL-ENT 11326--CALL
M$UC
      5097**DCL     11318--ASSIGN
M$UC$
     10641**DCL     11318<<ASSIGN
VLR_SITEINFO
     11271**DCL     11256--DCLINIT
VLR_SITEINFO.MINI_ID#
     11271**DCL     11343>>CALLBLT
VLR_SITEINFO.VERSION#
     11274**DCL     11343>>CALLBLT
VXF$OPEN_LO
     11299**DCL-ENT 11332--CALL
PL6.E3A0      #001=VXI$INIT File=VXI$INIT.:E05TSI                                WED 07/30/97 08:12 Page:25
VXI$BREAK
     11300**DCL-ENT 11290--DCLINIT
VXW$WRITE
     11293**DCL-ENT 11348--CALL
VX_BIAS.A
      9576**DCL      9577--REDEF
VX_CBUF.CHARS_A
      9510**DCL      9511--REDEF
VX_CONST_DCB.ACTPOS
     10692**DCL     10692--REDEF
VX_CONST_DCB.ARS#
     10651**DCL     10651--REDEF
VX_CONST_DCB.ATTR#
     10681**DCL     10681--REDEF   10683--REDEF
VX_CONST_DCB.BORROW
     10703**DCL     10703--REDEF   10703--REDEF   10703--REDEF
VX_CONST_DCB.EOMCHAR#
     10658**DCL     10659--REDEF
VX_CONST_DCB.FLDID
     10695**DCL     10696--REDEF
VX_CONST_DCB.FORM$
     10687**DCL     10687--REDEF
VX_CONST_DCB.FSECT
     10710**DCL     10710--REDEF
VX_CONST_DCB.FSN#
     10677**DCL     10677--REDEF   10677--REDEF   10678--REDEF
VX_CONST_DCB.HEADER$
     10686**DCL     10687--REDEF
VX_CONST_DCB.IXTNSIZE#
     10683**DCL     10684--REDEF
VX_CONST_DCB.LASTSTA$
     10667**DCL     10667--REDEF
VX_CONST_DCB.LVL
     10704**DCL     10704--REDEF
VX_CONST_DCB.NAME#.C
     10667**DCL     10668--REDEF
PL6.E3A0      #001=VXI$INIT File=VXI$INIT.:E05TSI                                WED 07/30/97 08:12 Page:26
VX_CONST_DCB.NOEOF
     10699**DCL     10699--REDEF
VX_CONST_DCB.NRECS#
     10684**DCL     10684--REDEF
VX_CONST_DCB.NRECX
     10711**DCL     10711--REDEF
VX_CONST_DCB.OHDR
     10700**DCL     10700--REDEF
VX_CONST_DCB.ORG#
     10675**DCL     10676--REDEF
VX_CONST_DCB.PRECNO
     10708**DCL     10708--REDEF
VX_CONST_DCB.RCSZ
     10716**DCL     10716--REDEF
VX_CONST_DCB.RES#
     10669**DCL     10669--REDEF
VX_CONST_DCB.SETX
     10688**DCL     10688--REDEF
VX_CONST_DCB.TAB$
     10687**DCL     10687--REDEF
VX_CONST_DCB.TDA
     10707**DCL     10708--REDEF
VX_CONST_DCB.WSN#
     10669**DCL     10670--REDEF
VX_EBUF.CHARS_A
     10099**DCL     10100--REDEF
VX_EFIELD1.CHARS
     10108**DCL     10109--REDEF
VX_EFIELD2.CHARS
     10112**DCL     10113--REDEF
VX_EFIELD3.CHARS
     10116**DCL     10117--REDEF
VX_EI_KEY_BUF.KEY
     10492**DCL     10493--REDEF
VX_ERRORS
      9553**DCL      9564--REDEF
PL6.E3A0      #001=VXI$INIT File=VXI$INIT.:E05TSI                                WED 07/30/97 08:12 Page:27
VX_ERRORS.CONFLICT_A
      9559**DCL      9560--REDEF
VX_ERRORS.UNSAT_A
      9555**DCL      9556--REDEF
VX_ERR_CODE.SEV
     10092**DCL     11310<<ASSIGN  11315<<ASSIGN
VX_FCG_SWITCH
      9523**DCL     11329>>ASSIGN  11330>>ASSIGN
VX_FPT_ERRMSG.V.INCLCODE#
      8506**DCL     11329<<ASSIGN
VX_FPT_ERRMSG_AUX.V.INCLCODE#
     11150**DCL     11330<<ASSIGN
VX_HEADER.DATE_C
     10141**DCL     11237--DCLINIT 11238--DCLINIT
VX_HEADER.DAY_C
     10139**DCL     11240--DCLINIT
VX_HEADER.TIME_C
     10143**DCL     11239--DCLINIT 11240--DCLINIT
VX_IMAGE_DATA.CPAGE#_A
      8690**DCL      8691--REDEF
VX_IMAGE_DATA.NODE_A$
      8702**DCL      8703--REDEF
VX_IMAGE_DATA.START_A$
      8694**DCL      8695--REDEF
VX_IMAGE_DATA.STOP_A$
      8698**DCL      8699--REDEF
VX_IMAGE_DS3.CPAGE#_A
      8759**DCL      8760--REDEF
VX_IMAGE_DS3.NODE_A$
      8771**DCL      8772--REDEF
VX_IMAGE_DS3.START_A$
      8763**DCL      8764--REDEF
VX_IMAGE_DS3.STOP_A$
      8767**DCL      8768--REDEF
VX_IMAGE_DS4.CPAGE#_A
      8782**DCL      8783--REDEF
PL6.E3A0      #001=VXI$INIT File=VXI$INIT.:E05TSI                                WED 07/30/97 08:12 Page:28
VX_IMAGE_DS4.NODE_A$
      8794**DCL      8795--REDEF
VX_IMAGE_DS4.START_A$
      8786**DCL      8787--REDEF
VX_IMAGE_DS4.STOP_A$
      8790**DCL      8791--REDEF
VX_IMAGE_DS5.CPAGE#_A
      8805**DCL      8806--REDEF
VX_IMAGE_DS5.NODE_A$
      8817**DCL      8818--REDEF
VX_IMAGE_DS5.START_A$
      8809**DCL      8810--REDEF
VX_IMAGE_DS5.STOP_A$
      8813**DCL      8814--REDEF
VX_IMAGE_DS6.CPAGE#_A
      8828**DCL      8829--REDEF
VX_IMAGE_DS6.NODE_A$
      8840**DCL      8841--REDEF
VX_IMAGE_DS6.START_A$
      8832**DCL      8833--REDEF
VX_IMAGE_DS6.STOP_A$
      8836**DCL      8837--REDEF
VX_IMAGE_DS7.CPAGE#_A
      8851**DCL      8852--REDEF
VX_IMAGE_DS7.NODE_A$
      8863**DCL      8864--REDEF
VX_IMAGE_DS7.START_A$
      8855**DCL      8856--REDEF
VX_IMAGE_DS7.STOP_A$
      8859**DCL      8860--REDEF
VX_IMAGE_DS8.CPAGE#_A
      8874**DCL      8875--REDEF
VX_IMAGE_DS8.NODE_A$
      8886**DCL      8887--REDEF
VX_IMAGE_DS8.START_A$
      8878**DCL      8879--REDEF
PL6.E3A0      #001=VXI$INIT File=VXI$INIT.:E05TSI                                WED 07/30/97 08:12 Page:29
VX_IMAGE_DS8.STOP_A$
      8882**DCL      8883--REDEF
VX_IMAGE_PROC.CPAGE#_A
      8713**DCL      8714--REDEF
VX_IMAGE_PROC.NODE_A$
      8725**DCL      8726--REDEF
VX_IMAGE_PROC.START_A$
      8717**DCL      8718--REDEF
VX_IMAGE_PROC.STOP_A$
      8721**DCL      8722--REDEF
VX_IMAGE_ROS.CPAGE#_A
      8736**DCL      8737--REDEF
VX_IMAGE_ROS.NODE_A$
      8748**DCL      8749--REDEF
VX_IMAGE_ROS.START_A$
      8740**DCL      8741--REDEF
VX_IMAGE_ROS.STOP_A$
      8744**DCL      8745--REDEF
VX_LINK_UTS
      9535**DCL     11241--DCLINIT
VX_M_VECTOR.F
      8541**DCL      8545--REDEF
VX_M_VECTOR_DP.F
      8576**DCL      8580--REDEF
VX_O.ACCTN_A$
      9705**DCL      9706--REDEF
VX_O.DCB_MATCH_A$
      9714**DCL      9715--REDEF
VX_O.DCB_MATCH_HIT_A
      9720**DCL      9721--REDEF
VX_O.FIDN_A$
      9699**DCL      9700--REDEF
VX_O.FID_A$
      9691**DCL      9692--REDEF
VX_O.INCLUDE_A$
      9711**DCL      9712--REDEF
PL6.E3A0      #001=VXI$INIT File=VXI$INIT.:E05TSI                                WED 07/30/97 08:12 Page:30
VX_O.MAP_A
      9685**DCL      9686--REDEF
VX_O.NODCB_A
      9742**DCL      9743--REDEF
VX_O.NUM_A
      9630**DCL      9632--REDEF
VX_O.OPT_A
      9730**DCL      9731--REDEF
VX_O.PRIV_A
      9646**DCL      9648--REDEF
VX_O.SIN_A
      9599**DCL      9600--REDEF
VX_O.TCB_A
      9726**DCL      9727--REDEF
VX_O.VERSION.COUNT
      9750**DCL     11346<<ASSIGN
VX_O.VERSION.TEXT
      9751**DCL     11343<<CALLBLT 11345>>CALLBLT
VX_OD.ACCTN_A$
      9903**DCL      9904--REDEF
VX_OD.DCB_MATCH_A$
      9912**DCL      9913--REDEF
VX_OD.FIDN_A$
      9897**DCL      9898--REDEF
VX_OD.FID_A$
      9889**DCL      9890--REDEF
VX_OD.INCLUDE_A$
      9909**DCL      9910--REDEF
VX_OD.MAP_A
      9883**DCL      9884--REDEF
VX_OD.NODCB_A
      9927**DCL      9928--REDEF
VX_OD.NUM_A
      9830**DCL      9831--REDEF
VX_OD.PRIV_A
      9845**DCL      9846--REDEF
PL6.E3A0      #001=VXI$INIT File=VXI$INIT.:E05TSI                                WED 07/30/97 08:12 Page:31
VX_OD.SIN_A
      9799**DCL      9800--REDEF
VX_OD.VECTOR_A$
      9918**DCL      9919--REDEF
VX_OL.MAX_A
      9774**DCL      9776--REDEF
VX_OL.MIN_A
      9759**DCL      9760--REDEF
VX_ON.ACCTN_A$
     10048**DCL     10050--REDEF
VX_ON.DCB_MATCH_A$
     10059**DCL     10061--REDEF
VX_ON.FIDN_A$
     10041**DCL     10043--REDEF
VX_ON.FID_A$
     10032**DCL     10034--REDEF
VX_ON.INCLUDE_A$
     10055**DCL     10057--REDEF
VX_ON.MAP_A
     10025**DCL     10027--REDEF
VX_ON.NODCB_A$
     10075**DCL     10076--REDEF
VX_ON.NUM_A
      9970**DCL      9972--REDEF
VX_ON.PRIV_A
      9986**DCL      9988--REDEF
VX_ON.SIN_A
      9938**DCL      9940--REDEF
VX_ON.VECTOR_A$
     10066**DCL     10067--REDEF
VX_ONLINE
      9596**DCL     11309<<ASSIGN  11314<<ASSIGN
VX_OUHEAD.VERSION
      9385**DCL      9387--REDEF
VX_OU_HEAD
      9328**DCL      9367--REDEF
PL6.E3A0      #001=VXI$INIT File=VXI$INIT.:E05TSI                                WED 07/30/97 08:12 Page:32
VX_OU_HEAD.REC_A
      9340**DCL      9343--REDEF
VX_O_KEY_BUF.FORM0
      8589**DCL      8592--REDEF    8599--REDEF
VX_O_KEY_BUF_L.FORM0
      8612**DCL      8615--REDEF    8622--REDEF
VX_PASS2_REF.OU.L_START
     10278**DCL     10283--REDEF
VX_PASS2_REF.OU.L_STOP
     10284**DCL     10289--REDEF
VX_PASS2_REF.OU.MAX
     10272**DCL     10277--REDEF
VX_PASS2_REF.OU.SIZE
     10290**DCL     10295--REDEF
VX_PASS2_REF.SAT.COUNT
     10317**DCL     10323--REDEF
VX_PASS2_REF.SAT.ENT_SIZE
     10324**DCL     10330--REDEF
VX_PASS2_REF.SAT.L_START
     10303**DCL     10309--REDEF
VX_PASS2_REF.SAT.L_STOP
     10310**DCL     10316--REDEF
VX_PASS2_REF.SAT.MAX
     10297**DCL     10302--REDEF
VX_PASS2_REF.UNSAT.L_START
     10365**DCL     10370--REDEF
VX_PASS2_REF.UNSAT.L_STOP
     10371**DCL     10376--REDEF
VX_PASS2_REF.UNSAT.L_WHERE
     10377**DCL     10382--REDEF
VX_PASS2_REF.UNSAT.MAX
     10359**DCL     10364--REDEF
VX_PASS2_REF.UNSAT.PAGE#
     10389**DCL     10394--REDEF
VX_PASS2_REF.UNSAT.SIZE
     10383**DCL     10388--REDEF
PL6.E3A0      #001=VXI$INIT File=VXI$INIT.:E05TSI                                WED 07/30/97 08:12 Page:33
VX_PHRASE.PHRASE
      9791**DCL      9793--REDEF
VX_PROGRAM_BIAS.A
      9569**DCL      9570--REDEF
VX_RU_HEAD
      8920**DCL     11335<<ASSIGN
VX_RU_HEAD.ASLNAME.TXT
      9110**DCL     11339<<ASSIGN
VX_RU_HEAD.FLAVOR
      9045**DCL     11337<<ASSIGN
VX_RU_HEAD.LIBNAME.TXT
      9100**DCL     11338<<ASSIGN
VX_RU_HEAD.VERSION#
      9000**DCL     11336<<ASSIGN
VX_R_KEY_BUF.FORM0
      8638**DCL      8642--REDEF    8648--REDEF
VX_SD.A
      8266**DCL      8267--REDEF
VX_SI_FPT_OPEN
     11085**DCL     11327<>CALL
VX_SI_FPT_OPEN.ACSVEH_
     11087**DCL     11088--REDEF
VX_SI_FPT_OPEN.ALTKEYS_
     11093**DCL     11094--REDEF   11094--REDEF
VX_SI_FPT_OPEN.HDR_
     11092**DCL     11093--REDEF
VX_SI_FPT_OPEN.TAB_
     11091**DCL     11092--REDEF
VX_SI_FPT_OPEN.UHL_
     11085**DCL     11086--REDEF   11086--REDEF
VX_SI_FPT_OPEN.V
     11094**DCL     11085--DCLINIT
VX_SI_FPT_OPEN.V.FSN#
     11125**DCL     11125--REDEF   11125--REDEF
VX_SI_FPT_OPEN.WSN_
     11091**DCL     11091--REDEF
PL6.E3A0      #001=VXI$INIT File=VXI$INIT.:E05TSI                                WED 07/30/97 08:12 Page:34
VX_SPC.B$.MINE
     10460**DCL     10466--REDEF
VX_SPC.B$.NAME
     10439**DCL     10445--REDEF
VX_SPC.B$.SKIP
     10453**DCL     10459--REDEF
VX_SPC.B$.VALUE
     10446**DCL     10452--REDEF
VX_SPC.SEG.NAME
     10408**DCL     10414--REDEF
VX_SPC.SEG.VALUE
     10415**DCL     10421--REDEF
VX_TSX0_OVERLAY.H
     10183**DCL     10186--REDEF

PL6.E3A0      #002=VXI$BREAK File=VXI$INIT.:E05TSI                               WED 07/30/97 08:14 Page:35
       93        1        /*T***********************************************************/
       94        2        /*T*                                                         */
       95        3        /*T* Copyright (c) Bull HN Information Systems Inc., 1997    */
       96        4        /*T*                                                         */
       97        5        /*T***********************************************************/
       98        6        %EJECT;
PL6.E3A0      #002=VXI$BREAK File=VXI$INIT.:E05TSI                               WED 07/30/97 08:14 Page:36
       99        7        /*M* VXI$BREAK - Break control procedure for LINK.   */
      100        8        /*X* DMR,PLM=6,IND=4,CSU=2,EXM=0,ECU=2,MOC,DCI=4,CRT=4,CTI=8,CCC */
      101        9
      102       10        VXI$BREAK: PROC  ASYNC ALTRET;
      103       11
      104       12        %INCLUDE CP_6;
      105       93        %INCLUDE VX_PERR_C;
      106      347        %INCLUDE VX_SUBS_C;
      107      565        %INCLUDE VX_MACRO_C;
      108     1702        %INCLUDE B$OBJECT_C;
      109     5132        %INCLUDE VX_DATA_R;
      110     6751        %FPT_TRMPRG( RSTBRK=YES, STCLASS=CONSTANT );
      111     6780
      112     6781    1   DCL VXE$ERRMSG ENTRY (3);
      113     6782    1   DCL M$OF DCB;
      114     6783
      115     6784
      116     6785    2         DO INHIBIT;
      117     6786    2             CALL M$TRMPRG( FPT_TRMPRG );
      118     6787    3             DO CASE (VX_STATE#);
      119     6788    3               CASE (@LINKING);
      120     6789        /*E* ERROR: VXI-E$LINKING_VX-0
      121     6790             MESSAGE: Linking % %FN% ....
      122     6791        */
      123     6792                      %ERRMSG(ERR#=E$LINKING_VX,LEVEL=@E$I_VX,MID='I',DCB#=M$OF);
      124     6801    3               CASE (@ALLOCATING);
      125     6802        /*E* ERROR: VXI-E$ALLOCATING_VX-0
      126     6803             MESSAGE: Allocating % %FN% ....
      127     6804        */
      128     6805                      %ERRMSG(ERR#=E$ALLOCATING_VX,LEVEL=@E$I_VX,MID='I',DCB#=M$OF);
      129     6814    3               CASE (ELSE);                /* Null statement, do nothing */
      130     6815    3               END;
      131     6816    2            END;
      132     6817
      133     6818
      134     6819    1   END VXI$BREAK;

PL6.E3A0      #002=VXI$BREAK File=VXI$INIT.:E05TSI                               WED 07/30/97 08:14 Page:37
--  Include file information  --

   VX_DATA_R.:E05TOU  cannot be made into a system file and is referenced.
   B$OBJECT_C.:E05TOU  is referenced.
   VX_MACRO_C.:E05TOU  is referenced.
   VX_SUBS_C.:E05TOU  is referenced.
   VX_PERR_C.:E05TOU  is referenced.
   CP_6.:E05TOU  cannot be made into a system file and is referenced.
   B$JIT_C.:E05TOU  was found in the system file and is never referenced.
   CP_6_C.:E05TOU  was found in the system file and is referenced.
      No diagnostics issued in procedure VXI$BREAK.

   Procedure VXI$BREAK requires 39 words for executable code.
   Procedure VXI$BREAK requires 8 words of local(AUTO) storage.

    No errors detected in file VXI$INIT.:E05TSI    .

PL6.E3A0      #002=VXI$BREAK File=VXI$INIT.:E05TSI                               WED 07/30/97 08:14 Page:38

 Object Unit name= VXI$BREAK                                  File name= VXI$INIT.:E05TOU
 UTS= JUL 30 '97 08:14:07.48 WED                              Compiler= PL-6/E31         Sev=      00
 SharedLib= :SHARED_SYSTEM                                    Alt SharedLib=


    ****  Control sections  ****

 Sect   Type Bound  Init  Size OctSiz  Section name(segment info)
    0   DCB   even  none     0      0  M$UC
    1  RoData even  UTS     10     12  VXI$BREAK
    2   DCB   even  none     0      0  M$OF
    3   Proc  even  none    39     47  VXI$BREAK
    4  RoData even  none     3      3  VXI$BREAK

    ****  Entry defs  ****

                              Check   Calling
                             calling  sequence
  Sect OctLoc Primary Altret sequence   type   Parms  Name
     3      0   yes    yes     yes     Async       0  VXI$BREAK

  ****  Entry refs  ****

         Check        Calling
        calling       sequence
Altret sequence SRef   type   Args  Name
         yes           Std       3 VXE$ERRMSG
                       nStd      0 X66_AAUTO
                       Std       0 B_CONSPOOL_D
                       nStd      0 X66_AARET
PL6.E3A0      #002=VXI$BREAK File=VXI$INIT.:E05TSI                               WED 07/30/97 08:14 Page:39

  ****  Data refs  ****

  Flags:  r = read only, s = secondary
Flgs Name                             Flgs Name                             Flgs Name
     M$UC                                  VX_OU_HEAD                            VX_ERRORS
     VX_STATE#                             M$OF                                  B_VECTNIL

  ****  Segment refs  ****

  Flags:  r = read only, s = secondary
Flgs Name                             Flgs Name                             Flgs Name
     ISSID                                 NULLSID
PL6.E3A0      #002=VXI$BREAK File=VXI$INIT.:E05TSI                               WED 07/30/97 08:14 Page:40


       93        1        /*T***********************************************************/
       94        2        /*T*                                                         */
       95        3        /*T* Copyright (c) Bull HN Information Systems Inc., 1997    */
       96        4        /*T*                                                         */
       97        5        /*T***********************************************************/
       98        6        %EJECT;
PL6.E3A0      #002=VXI$BREAK File=VXI$INIT.:E05TSI                               WED 07/30/97 08:14 Page:41
       99        7        /*M* VXI$BREAK - Break control procedure for LINK.   */
      100        8        /*X* DMR,PLM=6,IND=4,CSU=2,EXM=0,ECU=2,MOC,DCI=4,CRT=4,CTI=8,CCC */
      101        9
      102       10        VXI$BREAK: PROC  ASYNC ALTRET;

     10  3 000000   000000 700200 xent  VXI$BREAK    TSX0  ! X66_AAUTO
         3 000001   000010 000000                    ZERO    8,0

      103       11
      104       12        %INCLUDE CP_6;
      105       93        %INCLUDE VX_PERR_C;
      106      347        %INCLUDE VX_SUBS_C;
      107      565        %INCLUDE VX_MACRO_C;
      108     1702        %INCLUDE B$OBJECT_C;
      109     5132        %INCLUDE VX_DATA_R;
      110     6751        %FPT_TRMPRG( RSTBRK=YES, STCLASS=CONSTANT );
      111     6780
      112     6781    1   DCL VXE$ERRMSG ENTRY (3);
      113     6782    1   DCL M$OF DCB;
      114     6783
      115     6784
      116     6785    2         DO INHIBIT;

      117     6786    2             CALL M$TRMPRG( FPT_TRMPRG );

   6786  3 000002   000000 630600 1                  EPPR0 ! FPT_TRMPRG
         3 000003   160004 713600                    CLIMB ! 57348
         3 000004   400400 401760                    pmme    nvectors=2

      118     6787    3             DO CASE (VX_STATE#);

   6787  3 000005   000000 235200 xsym               LDA   ! VX_STATE#
         3 000006   000003 115207                    CMPA  ! 3,DL
         3 000007   000011 602205 3                  TNC   ! s:6787+4,AL
         3 000010   000046 710200 3                  TRA   ! s:6819
         3 000011   000046 710200 3                  TRA   ! s:6819
         3 000012   000014 710200 3                  TRA   ! s:6799
PL6.E3A0      #002=VXI$BREAK File=VXI$INIT.:E05TSI                               WED 07/30/97 08:14 Page:42
         3 000013   000031 710200 3                  TRA   ! s:6812

      119     6788    3               CASE (@LINKING);

      120     6789        /*E* ERROR: VXI-E$LINKING_VX-0
      121     6790             MESSAGE: Linking % %FN% ....
      122     6791        */
      123     6792                      %ERRMSG(ERR#=E$LINKING_VX,LEVEL=@E$I_VX,MID='I',DCB#=M$OF);

   6799  3 000014   000000 236207 xsym               LDQ   ! M$OF,DL
         3 000015   200004 756300                    STQ   ! 4,,AUTO
         3 000016   200004 630700                    EPPR0 ! 4,,AUTO
         3 000017   200007 450700                    STP0  ! 7,,AUTO
         3 000020   000000 236200 4                  LDQ   ! 0
         3 000021   200006 756300                    STQ   ! 6,,AUTO
         3 000022   000001 236200 4                  LDQ   ! 1
         3 000023   200005 756300                    STQ   ! 5,,AUTO
         3 000024   200005 630700                    EPPR0 ! 5,,AUTO
         3 000025   000021 631600 xsym               EPPR1 ! B_VECTNIL+17
         3 000026   000000 701200 xent               TSX1  ! VXE$ERRMSG
         3 000027   000000 011200                    NOP   ! 0
         3 000030   000046 710200 3                  TRA   ! s:6819

      124     6801    3               CASE (@ALLOCATING);

      125     6802        /*E* ERROR: VXI-E$ALLOCATING_VX-0
      126     6803             MESSAGE: Allocating % %FN% ....
      127     6804        */
      128     6805                      %ERRMSG(ERR#=E$ALLOCATING_VX,LEVEL=@E$I_VX,MID='I',DCB#=M$OF);

   6812  3 000031   000000 236207 xsym               LDQ   ! M$OF,DL
         3 000032   200004 756300                    STQ   ! 4,,AUTO
         3 000033   200004 630700                    EPPR0 ! 4,,AUTO
         3 000034   200007 450700                    STP0  ! 7,,AUTO
         3 000035   000000 236200 4                  LDQ   ! 0
         3 000036   200006 756300                    STQ   ! 6,,AUTO
         3 000037   000002 236200 4                  LDQ   ! 2
PL6.E3A0      #002=VXI$BREAK File=VXI$INIT.:E05TSI                               WED 07/30/97 08:14 Page:43
         3 000040   200005 756300                    STQ   ! 5,,AUTO
         3 000041   200005 630700                    EPPR0 ! 5,,AUTO
         3 000042   000021 631600 xsym               EPPR1 ! B_VECTNIL+17
         3 000043   000000 701200 xent               TSX1  ! VXE$ERRMSG
         3 000044   000000 011200                    NOP   ! 0
         3 000045   000046 710200 3                  TRA   ! s:6819

      129     6814    3               CASE (ELSE);                /* Null statement, do nothing */

      130     6815    3               END;

      131     6816    2            END;

      132     6817
      133     6818
      134     6819    1   END VXI$BREAK;

   6819  3 000046   000000 702200 xent               TSX2  ! X66_AARET

PL6.E3A0      #002=VXI$BREAK File=VXI$INIT.:E05TSI                               WED 07/30/97 08:14 Page:44
--  Include file information  --

   VX_DATA_R.:E05TOU  cannot be made into a system file and is referenced.
   B$OBJECT_C.:E05TOU  is referenced.
   VX_MACRO_C.:E05TOU  is referenced.
   VX_SUBS_C.:E05TOU  is referenced.
   VX_PERR_C.:E05TOU  is referenced.
   CP_6.:E05TOU  cannot be made into a system file and is referenced.
   B$JIT_C.:E05TOU  was found in the system file and is never referenced.
   CP_6_C.:E05TOU  was found in the system file and is referenced.
      No diagnostics issued in procedure VXI$BREAK.
PL6.E3A0      #002=VXI$BREAK File=VXI$INIT.:E05TSI                               WED 07/30/97 08:14 Page:45

 **** Variables and constants ****

  ****  Section 001 RoData VXI$BREAK

  ****  Scalars and arrays  ****
OctLoc.c.b A Datatyp(siz) R M Lvl/name                 OctLoc.c.b A Datatyp(siz) R M Lvl/name

     0-0-0/d STRC(288)   r     1 FPT_TRMPRG

  ****  SYMREF variables  ****

  ****  Scalars and arrays  ****
OctLoc.c.b A Datatyp(siz) R M Lvl/name                 OctLoc.c.b A Datatyp(siz) R M Lvl/name

     0-0-0/w UBIN        r     1 VX_STATE#

  ****  BASED and DCB variables  ****

  ****  Scalars and arrays  ****
OctLoc.c.b A Datatyp(siz) R M Lvl/name                 OctLoc.c.b A Datatyp(siz) R M Lvl/name

     0-0-0N  NULL        r     1 M$OF                       0-0-0N  NULL        r     1 M$UC


   Procedure VXI$BREAK requires 39 words for executable code.
   Procedure VXI$BREAK requires 8 words of local(AUTO) storage.

    No errors detected in file VXI$INIT.:E05TSI    .
PL6.E3A0      #002=VXI$BREAK File=VXI$INIT.:E05TSI                               WED 07/30/97 08:14 Page:46
          *** CROSS REFERENCE LISTING ***
**     DENOTES     IDENTIFIER DEFINITION
<<                 IDENTIFIER'S VALUE SET
>>                 IDENTIFIER'S VALUE USED
<>                 IDENTIFIER SET AND/OR USED
--                 IDENTIFIER REFERENCED
PL6.E3A0      #002=VXI$BREAK File=VXI$INIT.:E05TSI                               WED 07/30/97 08:14 Page:47
          MINI XREF LISTING

FPT_TRMPRG
      6767**DCL      6786<>CALL
FPT_TRMPRG.V
      6774**DCL      6769--DCLINIT
FPT_TRMPRG.V.CTLFLG.RSTBRK#
      6775**DCL      6776--REDEF
M$OF
      6782**DCL      6799<>CALL     6812<>CALL
M$TRMPRG
        46**DCL-ENT  6786--CALL
VXE$ERRMSG
      6781**DCL-ENT  6799--CALL     6812--CALL
VX_BIAS.A
      5795**DCL      5796--REDEF
VX_CBUF.CHARS_A
      5729**DCL      5730--REDEF
VX_EBUF.CHARS_A
      6318**DCL      6319--REDEF
VX_EFIELD1.CHARS
      6327**DCL      6328--REDEF
VX_EFIELD2.CHARS
      6331**DCL      6332--REDEF
VX_EFIELD3.CHARS
      6335**DCL      6336--REDEF
VX_EI_KEY_BUF.KEY
      6711**DCL      6712--REDEF
VX_ERRORS
      5772**DCL      5783--REDEF
VX_ERRORS.CONFLICT_A
      5778**DCL      5779--REDEF
VX_ERRORS.UNSAT_A
      5774**DCL      5775--REDEF
PL6.E3A0      #002=VXI$BREAK File=VXI$INIT.:E05TSI                               WED 07/30/97 08:14 Page:48
VX_O.ACCTN_A$
      5924**DCL      5925--REDEF
VX_O.DCB_MATCH_A$
      5933**DCL      5934--REDEF
VX_O.DCB_MATCH_HIT_A
      5939**DCL      5940--REDEF
VX_O.FIDN_A$
      5918**DCL      5919--REDEF
VX_O.FID_A$
      5910**DCL      5911--REDEF
VX_O.INCLUDE_A$
      5930**DCL      5931--REDEF
VX_O.MAP_A
      5904**DCL      5905--REDEF
VX_O.NODCB_A
      5961**DCL      5962--REDEF
VX_O.NUM_A
      5849**DCL      5851--REDEF
VX_O.OPT_A
      5949**DCL      5950--REDEF
VX_O.PRIV_A
      5865**DCL      5867--REDEF
VX_O.SIN_A
      5818**DCL      5819--REDEF
VX_O.TCB_A
      5945**DCL      5946--REDEF
VX_OD.ACCTN_A$
      6122**DCL      6123--REDEF
VX_OD.DCB_MATCH_A$
      6131**DCL      6132--REDEF
VX_OD.FIDN_A$
      6116**DCL      6117--REDEF
VX_OD.FID_A$
      6108**DCL      6109--REDEF
VX_OD.INCLUDE_A$
      6128**DCL      6129--REDEF
PL6.E3A0      #002=VXI$BREAK File=VXI$INIT.:E05TSI                               WED 07/30/97 08:14 Page:49
VX_OD.MAP_A
      6102**DCL      6103--REDEF
VX_OD.NODCB_A
      6146**DCL      6147--REDEF
VX_OD.NUM_A
      6049**DCL      6050--REDEF
VX_OD.PRIV_A
      6064**DCL      6065--REDEF
VX_OD.SIN_A
      6018**DCL      6019--REDEF
VX_OD.VECTOR_A$
      6137**DCL      6138--REDEF
VX_OL.MAX_A
      5993**DCL      5995--REDEF
VX_OL.MIN_A
      5978**DCL      5979--REDEF
VX_ON.ACCTN_A$
      6267**DCL      6269--REDEF
VX_ON.DCB_MATCH_A$
      6278**DCL      6280--REDEF
VX_ON.FIDN_A$
      6260**DCL      6262--REDEF
VX_ON.FID_A$
      6251**DCL      6253--REDEF
VX_ON.INCLUDE_A$
      6274**DCL      6276--REDEF
VX_ON.MAP_A
      6244**DCL      6246--REDEF
VX_ON.NODCB_A$
      6294**DCL      6295--REDEF
VX_ON.NUM_A
      6189**DCL      6191--REDEF
VX_ON.PRIV_A
      6205**DCL      6207--REDEF
VX_ON.SIN_A
      6157**DCL      6159--REDEF
PL6.E3A0      #002=VXI$BREAK File=VXI$INIT.:E05TSI                               WED 07/30/97 08:14 Page:50
VX_ON.VECTOR_A$
      6285**DCL      6286--REDEF
VX_OUHEAD.VERSION
      5604**DCL      5606--REDEF
VX_OU_HEAD
      5547**DCL      5586--REDEF
VX_OU_HEAD.REC_A
      5559**DCL      5562--REDEF
VX_PASS2_REF.OU.L_START
      6497**DCL      6502--REDEF
VX_PASS2_REF.OU.L_STOP
      6503**DCL      6508--REDEF
VX_PASS2_REF.OU.MAX
      6491**DCL      6496--REDEF
VX_PASS2_REF.OU.SIZE
      6509**DCL      6514--REDEF
VX_PASS2_REF.SAT.COUNT
      6536**DCL      6542--REDEF
VX_PASS2_REF.SAT.ENT_SIZE
      6543**DCL      6549--REDEF
VX_PASS2_REF.SAT.L_START
      6522**DCL      6528--REDEF
VX_PASS2_REF.SAT.L_STOP
      6529**DCL      6535--REDEF
VX_PASS2_REF.SAT.MAX
      6516**DCL      6521--REDEF
VX_PASS2_REF.UNSAT.L_START
      6584**DCL      6589--REDEF
VX_PASS2_REF.UNSAT.L_STOP
      6590**DCL      6595--REDEF
VX_PASS2_REF.UNSAT.L_WHERE
      6596**DCL      6601--REDEF
VX_PASS2_REF.UNSAT.MAX
      6578**DCL      6583--REDEF
VX_PASS2_REF.UNSAT.PAGE#
      6608**DCL      6613--REDEF
PL6.E3A0      #002=VXI$BREAK File=VXI$INIT.:E05TSI                               WED 07/30/97 08:14 Page:51
VX_PASS2_REF.UNSAT.SIZE
      6602**DCL      6607--REDEF
VX_PHRASE.PHRASE
      6010**DCL      6012--REDEF
VX_PROGRAM_BIAS.A
      5788**DCL      5789--REDEF
VX_SPC.B$.MINE
      6679**DCL      6685--REDEF
VX_SPC.B$.NAME
      6658**DCL      6664--REDEF
VX_SPC.B$.SKIP
      6672**DCL      6678--REDEF
VX_SPC.B$.VALUE
      6665**DCL      6671--REDEF
VX_SPC.SEG.NAME
      6627**DCL      6633--REDEF
VX_SPC.SEG.VALUE
      6634**DCL      6640--REDEF
VX_STATE#
      6750**DCL      6787>>DOCASE
VX_TSX0_OVERLAY.H
      6402**DCL      6405--REDEF
