VERSION E05

PL6.E3A0      #001=VXK$KEY File=VXK$KEY.:E05TSI                                  WED 07/30/97 08:17 Page:1
        1        1        /*M* VXK$KEY - sets up object unit and run unit keys.     */
        2        2        /*T***********************************************************/
        3        3        /*T*                                                         */
        4        4        /*T* Copyright (c) Bull HN Information Systems Inc., 1997    */
        5        5        /*T*                                                         */
        6        6        /*T***********************************************************/
        7        7        /*X* DMR,PLM=6,IND=4,CSU=2,EXM=0,ECU=2,MOC,DCI=4,CRT=4,CTI=8,CCC */
        8        8        /*D*  NAME:       VXK$KEY
        9        9              DESCRIPTION:
       10       10        PARM: 1         2         3         4         5         6
       11       11
       12       12              FTYPE     RTYPE     SECT#     PAGE#     VX_KEY_USEPREV VX_KEY_NAME$
       13       13                                  NODE#     OFFSET
       14       14
       15       15              FTYPE     FILE TYPE      RTYPE     RECORD TYPE
       16       16
       17       17                0       OBJECT          -2       TREE
       18       18                                        -1       HEAD
       19       19                                       0-9,      FORM1
       20       20                                       11-15
       21       21                                       11-15
       22       22                                         10      FORM2
       23       23                                                 PREVIOUS IF VX_KEY_USEPREV = @YES
       24       24
       25       25                1       RUN             -1       HEAD
       26       26                                       0-10      FORM1
       27       27                                       11-15     FORM2
       28       28
       29       29                2       LIBRARY        0-9,      FORM1
       30       30                                       11-15
       31       31                                         10      FORM2
       32       32                                                REFERENCE PROBE IF VX_KEY_NAME$ ~= ADDR(NIL)
       33       33
       34       34        */
       35       35        VXK$KEY:
       36       36              PROC( FTYPE, RTYPE, SECT#, PAGE# );
       37       37        %INCLUDE VX_INC_C;
PL6.E3A0      #001=VXK$KEY File=VXK$KEY.:E05TSI                                  WED 07/30/97 08:17 Page:2
       38    10753        %SET LISTMAC='1'B;
       39    10754        %SET LISTSUB='1'B;
       40    10755        %SET LISTEXP='1'B;
       41    10756        %T$H;
             10757        %LSET LISTDIR='0'B;

             10767    1   /*******************************************************************************
             10768    1   *                                                                              *
             10769    1   *                          T$H                                                 *
             10770    1   *                                                                              *
             10771    1   *******************************************************************************/

             10776    1   DCL 1 T$H           BASED     ALIGNED,  /* Text half-word                     */
             10777    1         2 COUNT        UBIN(18) UNAL,
             10778    1         2 CHARS        CHAR( T$H.COUNT )   UNAL;
       42    10781        %BANNER( ARG=SUBS );
             10782        %LSET LISTDIR='0'B;

             10789    1   /*******************************************************************************
             10790    1   *                                                                              *
             10791    1   *                          SUBS                                                 *
             10792    1   *                                                                              *
             10793    1   *******************************************************************************/

       43    10797        %B$RECORDSUBS;
             10798        %EQU TYPHEAD=0 ;
             10799        %EQU TYPDNAM=1 ;
             10800        %EQU TYPRNAM=2 ;
             10801        %EQU TYPSECT=3 ;
             10802        %EQU TYPEDEF=4 ;
             10803        %EQU TYPEREF=5 ;
             10804        %EQU TYPSDEF=6 ;
             10805        %EQU TYPSREF=7 ;
             10806        %EQU TYPSEGDEF=8 ;
             10807        %EQU TYPSEGREF=9 ;
             10808        %EQU TYPPROG=10 ;
             10809        %EQU SUBTYPPROG=0 ;
PL6.E3A0      #001=VXK$KEY File=VXK$KEY.:E05TSI                                  WED 07/30/97 08:17 Page:3
             10810        %EQU SUBTYPREL=1 ;
             10811        %EQU TYPLOGBLK=11 ;
             10812        %EQU TYPINTNTRY=12 ;
             10813        %EQU TYPEXST=13 ;
             10814        %EQU TYPVREBL=14 ;
             10815        %EQU TYPDBGNAM=15 ;
             10816        %EQU TYPLV1LB=16 ;
             10817        %EQU TYPLV1=17 ;
             10818        %EQU TYPDATASEG=18 ;
             10819        %EQU TYPRUM=20 ;
             10820        %EQU TYPBIRTH=21 ;
             10821        %EQU TYPPLOVER=22 ;
             10822        %EQU TYPCOMPID=23 ;
             10823        %EQU TYPROS=30 ;
       44    10825        %P;
             10826        %LSET LISTDIR='0'B;

             10833    1   /*******************************************************************************
             10834    1   *                                                                              *
             10835    1   *                          PARAMETERS                                              *
             10836    1   *                                                                              *
             10837    1   *******************************************************************************/

       45    10841    1   DCL FTYPE           SBIN WORD ALIGNED;
       46    10842    1   DCL RTYPE           SBIN WORD ALIGNED;
       47    10843    1   DCL SECT#           UBIN(36)     ALIGNED;
       48    10844    1   DCL NODE# REDEF SECT#    UBIN(36)  ALIGNED;
       49    10845    1   DCL PAGE#           UBIN(36)     ALIGNED;
       50    10846    1   DCL OFFSET REDEF PAGE#   UBIN(36)  ALIGNED;
       51    10847        %E;
             10848        %LSET LISTDIR='0'B;

             10855    1   /*******************************************************************************
             10856    1   *                                                                              *
             10857    1   *                          ENTRY                                                 *
             10858    1   *                                                                              *
             10859    1   *******************************************************************************/
PL6.E3A0      #001=VXK$KEY File=VXK$KEY.:E05TSI                                  WED 07/30/97 08:17 Page:4

       52    10863        %ENTRIES;
             10864    1   DCL VXE$ERROR       ENTRY(4);
             10865    1   DCL VXE$ERR         ENTRY(3);
             10866    1   DCL VXE$MERC        ENTRY;
             10867    1   DCL VXE$ERRMSG      ENTRY(3);
             10868    1   DCL VXR$READ        ENTRY( 3 );
             10869    1   DCL VXW$WRITE       ENTRY( 3 );
             10870    1   DCL VXW$WRITE_DO    ENTRY( 2 );
             10871    1   DCL VXD$B2C         ENTRY( 5 );
             10872    1   DCL VXD$C2B         ENTRY( 3 );
             10873    1   DCL VXA$GET         ENTRY( 3 );
             10874    1   DCL VXF$FREE        ENTRY( 3 );
             10875    1   DCL VXQ$SORT        ENTRY( 7 );
             10876    1   DCL VXY$YESNO       ENTRY( 1 );
       53    10878        %PTR;
             10879        %LSET LISTDIR='0'B;

             10886    1   /*******************************************************************************
             10887    1   *                                                                              *
             10888    1   *                          PTR                                                 *
             10889    1   *                                                                              *
             10890    1   *******************************************************************************/

       54    10894    1   DCL K$              PTR  ALIGNED   AUTO;
       55    10895        %S;
             10896        %LSET LISTDIR='0'B;

             10903    1   /*******************************************************************************
             10904    1   *                                                                              *
             10905    1   *                          SBIN                                                 *
             10906    1   *                                                                              *
             10907    1   *******************************************************************************/

       56    10911    1   DCL R               SBIN WORD ALIGNED   AUTO;
       57    10912        /**/
       58    10913        /**/
PL6.E3A0      #001=VXK$KEY File=VXK$KEY.:E05TSI                                  WED 07/30/97 08:17 Page:5
       59    10914        /**/
       60    10915        %LIST;
       61    10916        %O_KEY_BUF( KEYBUF=K$B,
       62    10917                    STCLASS="BASED(K$)",
       63    10918                    INT="");
             10919    1   DCL 1 K$B ALIGNED BASED(K$),
             10920    1          2 FORM0 ,
             10921    1           3 COUNT       UBIN( 9)  UNAL,
             10922    1           3 CHARS       CHAR(512) UNAL,
             10923    1         2 FORM1        REDEF     FORM0,
             10924    1           3 COUNT       UBIN( 9)  UNAL,
             10925    1           3 O777        UBIN( 9)  UNAL,   /* <- '777'O                          */
             10926    1           3 UTS         UBIN(36)  UNAL,
             10927    1           3 REC_TYPE    UBIN( 9)  UNAL,
             10928    1           3 PAGE#       UBIN( 9)  UNAL,
             10929    1           3 *           CHAR(505) UNAL,
             10930    1         2 FORM2        REDEF     FORM0,
             10931    1           3 COUNT       UBIN( 9)  UNAL,
             10932    1           3 O777        UBIN( 9)  UNAL,   /* <- '777'O                          */
             10933    1           3 UTS         UBIN(36)  UNAL,
             10934    1           3 D10         UBIN( 9)  UNAL,   /* <- 10                              */
             10935    1           3 SECT#       UBIN(18)  UNAL,
             10936    1           3 OFFSET      UBIN(18)  UNAL,
             10937    1           3 STYPE       UBIN( 9)  UNAL,
             10938    1           3 SEQUENCE    UBIN( 9)  UNAL,
             10939    1           3 *           CHAR(500) UNAL ;
       64    10941        %PLIST;
       65    10942        %EJECT;
PL6.E3A0      #001=VXK$KEY File=VXK$KEY.:E05TSI                                  WED 07/30/97 08:17 Page:6
       66    10943    1         R = RTYPE;
       67    10944    2         DO CASE(FTYPE);
       68    10945    2           CASE(0/*@OF*/);
       69    10946    2             K$=ADDR(VX_O_KEY_BUF);
       70    10947    3             IF VX_KEY_USEPREV = 1/*@YES*/ THEN DO;
       71    10948    3                 K$B.FORM0.COUNT = VX_O_KEY_BUF_L.FORM0.COUNT;
       72    10949    3                 K$B.FORM0.CHARS = VX_O_KEY_BUF_L.FORM0.CHARS;
       73    10950    3                 RETURN;
       74    10951    3                END;
       75    10952    3             IF R < 0 THEN DO;
       76    10953    3                 R = -R;
       77    10954    4                 DO CASE( R );
       78    10955    4                   CASE(1);                /* Head */
       79    10956    4                     K$B.FORM0.COUNT = SIZEC(VX_O_KEY_HEAD );
       80    10957    4                     K$B.FORM0.CHARS = VX_O_KEY_HEAD;
       81    10958    4                   CASE(2);                /* Tree */
       82    10959    4                     K$B.FORM0.COUNT = SIZEC(VX_O_KEY_TREE );
       83    10960    4                     K$B.FORM0.CHARS = VX_O_KEY_TREE;
       84    10961    4                   END;                    /* Do case */
       85    10962    3                 RETURN;                   /* If R<0 */
       86    10963    3                END;                       /* If R<0 */
       87    10964        /* Here => did not want previous key */
       88    10965    2   OBJECT:
       89    10966    2             K$B.FORM1.O777 = BITBIN('777'O);
       90    10967    2             K$B.FORM1.UTS  = VX_OU_HEAD.UTS;
       91    10968    2             K$B.FORM1.REC_TYPE = R;
       92    10969    2             IF ( R >= 1 AND R <= 9 )
       93    10970    2                     OR
       94    10971    3                     ( R >= 11 AND R <= 15 ) THEN DO;
       95    10972    3                 K$B.FORM1.COUNT = 7;
       96    10973    3                 K$B.FORM1.PAGE# = PAGE#;
       97    10974    3                 RETURN;
       98    10975    3                END;
       99    10976    3             ELSE IF R = 10 THEN DO;
      100    10977    3                     K$B.FORM2.COUNT = 11;
      101    10978    3                     K$B.FORM2.SECT# = SECT#;
      102    10979    3                     K$B.FORM2.OFFSET = OFFSET;
PL6.E3A0      #001=VXK$KEY File=VXK$KEY.:E05TSI                                  WED 07/30/97 08:17 Page:7
      103    10980    3                     K$B.FORM2.STYPE = 0;
      104    10981    3                     K$B.FORM2.SEQUENCE = 0;
      105    10982    3                     RETURN;
      106    10983    3                    END;
      107    10984    2           CASE(2/*@LF*/);
      108    10985    2             K$ = ADDR( VX_O_KEY_BUF );
      109    10986    2             IF VX_KEY_NAME$ = ADDR(NIL) THEN GOTO OBJECT;
      110    10987        /* Here => library searching */
      111    10988    2             K$B.FORM0.COUNT = VX_KEY_NAME$ -> T$H.COUNT;
      112    10989    2             K$B.FORM0.CHARS = VX_KEY_NAME$ -> T$H.CHARS;
      113    10990    2             RETURN;
      114    10991        %EJECT;
PL6.E3A0      #001=VXK$KEY File=VXK$KEY.:E05TSI                                  WED 07/30/97 08:17 Page:8
      115    10992        /*
      116    10993              Run file
      117    10994        */
      118    10995    2           CASE(1/*@RF*/);
      119    10996    2             K$ = ADDR( VX_R_KEY_BUF );
      120    10997    3             IF R < 0 THEN DO;
      121    10998    3                 R = -R;
      122    10999    4                 DO CASE(R);
      123    11000    4                   CASE(1);                /*Head*/
      124    11001    4                     VX_R_KEY_BUF.FORM0.COUNT = SIZEC(VX_R_KEY_HEAD);
      125    11002    4                     VX_R_KEY_BUF.FORM0.CHARS = VX_R_KEY_HEAD;
      126    11003    4                   END;                    /*Do case */
      127    11004    3                 RETURN;
      128    11005    3                END;                       /* If R<0 */
      129    11006        /* Here => not head */
      130    11007    2             VX_R_KEY_BUF.FORM1.NODE# = NODE#;
      131    11008    2             IF ( R>= 1 AND R <= 10 )
      132    11009    2                     OR
      133    11010    3                     R = 18 OR R = 30 THEN DO;
      134    11011    3                 VX_R_KEY_BUF.FORM1.COUNT = 5;
      135    11012    3                 VX_R_KEY_BUF.FORM1.REC_TYPE = R;
      136    11013    3                 VX_R_KEY_BUF.FORM1.OFFSET = OFFSET;
      137    11014    3                 RETURN;
      138    11015    3                END;
      139    11016    3             ELSE IF R >= 11 AND R <= 15 THEN DO;
      140    11017    3                     VX_R_KEY_BUF.FORM2.COUNT = 7;
      141    11018    3                     VX_R_KEY_BUF.FORM2.O777 = BITBIN('777'O);;
      142    11019    3                     VX_R_KEY_BUF.FORM2.P_ENTDEF = VX_P_ENTDEF;
      143    11020    3                     VX_R_KEY_BUF.FORM2.REC_TYPE = R;
      144    11021    3                     VX_R_KEY_BUF.FORM2.PAGE# = PAGE#;
      145    11022    3                     RETURN;
      146    11023    3                    END;
      147    11024    2           END;                            /*Do case(ftype*/
      148    11025    1   END VXK$KEY;

PL6.E3A0      #001=VXK$KEY File=VXK$KEY.:E05TSI                                  WED 07/30/97 08:17 Page:9
--  Include file information  --

   F_DCB_D.:E05TOU  is referenced.
   VX_DCB_R.:E05TOU  cannot be made into a system file and is referenced.
   VX_DATA_R.:E05TOU  cannot be made into a system file and is referenced.
   VX_FIXED_R.:E05TOU  cannot be made into a system file and is referenced.
   XU_MACRO_C.:E05TOU  is referenced.
   CP_6.:E05TOU  cannot be made into a system file and is referenced.
   VX_MACRO_C.:E05TOU  is referenced.
   VX_PERR_C.:E05TOU  is referenced.
   VX_SUBS_C.:E05TOU  is referenced.
   VX_SWITCH_C.:E05TOU  is referenced.
   B$OBJECT_C.:E05TOU  is referenced.
   VX_INC_C.:E05TOU  is referenced.
   B$JIT_C.:E05TOU  was found in the system file and is never referenced.
   CP_6_C.:E05TOU  was found in the system file and is referenced.
      No diagnostics issued in procedure VXK$KEY.

   Procedure VXK$KEY requires 159 words for executable code.
   Procedure VXK$KEY requires 10 words of local(AUTO) storage.

    No errors detected in file VXK$KEY.:E05TSI    .

PL6.E3A0      #001=VXK$KEY File=VXK$KEY.:E05TSI                                  WED 07/30/97 08:17 Page:10

 Object Unit name= VXK$KEY                                    File name= VXK$KEY.:E05TOU
 UTS= JUL 30 '97 08:17:01.80 WED                              Compiler= PL-6/E31         Sev=      00
 SharedLib= :SHARED_SYSTEM                                    Alt SharedLib=


    ****  Control sections  ****

 Sect   Type Bound  Init  Size OctSiz  Section name(segment info)
    0   DCB   even  none     0      0  M$UC
    1  LblCom even  none    96    140  VX_CONST_DCB
    2   Proc  even  none   159    237  VXK$KEY
    3  RoData even  none     2      2  VXK$KEY

    ****  Entry defs  ****

                              Check   Calling
                             calling  sequence
  Sect OctLoc Primary Altret sequence   type   Parms  Name
     2      0   yes            yes      Std        4  VXK$KEY

  ****  Entry refs  ****

         Check        Calling
        calling       sequence
Altret sequence SRef   type   Args  Name
                       nStd      0 X66_AUTO_4
                       nStd      0 X66_ARET
                       Std       0 B_CONSPOOL_D
PL6.E3A0      #001=VXK$KEY File=VXK$KEY.:E05TSI                                  WED 07/30/97 08:17 Page:11

  ****  Data refs  ****

  Flags:  r = read only, s = secondary
Flgs Name                             Flgs Name                             Flgs Name
     M$UC                                  VX_O_KEY_BUF                          VX_O_KEY_BUF_L
     VX_R_KEY_BUF                          VX_OU_HEAD                            VX_ERRORS
     VX_O_KEY_HEAD                         VX_O_KEY_TREE                         VX_R_KEY_HEAD
     VX_P_ENTDEF                           VX_KEY_USEPREV                        VX_KEY_NAME$
     B_VECTNIL

  ****  Segment refs  ****

  Flags:  r = read only, s = secondary
Flgs Name                             Flgs Name                             Flgs Name
     NULLSID                               ISSID
PL6.E3A0      #001=VXK$KEY File=VXK$KEY.:E05TSI                                  WED 07/30/97 08:17 Page:12


        1        1        /*M* VXK$KEY - sets up object unit and run unit keys.     */
        2        2        /*T***********************************************************/
        3        3        /*T*                                                         */
        4        4        /*T* Copyright (c) Bull HN Information Systems Inc., 1997    */
        5        5        /*T*                                                         */
        6        6        /*T***********************************************************/
        7        7        /*X* DMR,PLM=6,IND=4,CSU=2,EXM=0,ECU=2,MOC,DCI=4,CRT=4,CTI=8,CCC */
        8        8        /*D*  NAME:       VXK$KEY
        9        9              DESCRIPTION:
       10       10        PARM: 1         2         3         4         5         6
       11       11
       12       12              FTYPE     RTYPE     SECT#     PAGE#     VX_KEY_USEPREV VX_KEY_NAME$
       13       13                                  NODE#     OFFSET
       14       14
       15       15              FTYPE     FILE TYPE      RTYPE     RECORD TYPE
       16       16
       17       17                0       OBJECT          -2       TREE
       18       18                                        -1       HEAD
       19       19                                       0-9,      FORM1
       20       20                                       11-15
       21       21                                       11-15
       22       22                                         10      FORM2
       23       23                                                 PREVIOUS IF VX_KEY_USEPREV = @YES
       24       24
       25       25                1       RUN             -1       HEAD
       26       26                                       0-10      FORM1
       27       27                                       11-15     FORM2
       28       28
       29       29                2       LIBRARY        0-9,      FORM1
       30       30                                       11-15
       31       31                                         10      FORM2
       32       32                                               REFERENCE PROBE IF VX_KEY_NAME$ ~= ADDR(NIL)
       33       33
       34       34        */
       35       35        VXK$KEY:
       36       36              PROC( FTYPE, RTYPE, SECT#, PAGE# );
PL6.E3A0      #001=VXK$KEY File=VXK$KEY.:E05TSI                                  WED 07/30/97 08:17 Page:13

     36  2 000000   000000 700200 xent  VXK$KEY      TSX0  ! X66_AUTO_4
         2 000001   000012 000004                    ZERO    10,4

       37       37        %INCLUDE VX_INC_C;
       38    10753        %SET LISTMAC='1'B;
       39    10754        %SET LISTSUB='1'B;
       40    10755        %SET LISTEXP='1'B;
       41    10756        %T$H;
             10757        %LSET LISTDIR='0'B;

             10767    1   /*******************************************************************************
             10768    1   *                                                                              *
             10769    1   *                          T$H                                                 *
             10770    1   *                                                                              *
             10771    1   *******************************************************************************/

             10776    1   DCL 1 T$H           BASED     ALIGNED,  /* Text half-word                     */
             10777    1         2 COUNT        UBIN(18) UNAL,
             10778    1         2 CHARS        CHAR( T$H.COUNT )   UNAL;
       42    10781        %BANNER( ARG=SUBS );
             10782        %LSET LISTDIR='0'B;

             10789    1   /*******************************************************************************
             10790    1   *                                                                              *
             10791    1   *                          SUBS                                                 *
             10792    1   *                                                                              *
             10793    1   *******************************************************************************/

       43    10797        %B$RECORDSUBS;
             10798        %EQU TYPHEAD=0 ;
             10799        %EQU TYPDNAM=1 ;
             10800        %EQU TYPRNAM=2 ;
             10801        %EQU TYPSECT=3 ;
             10802        %EQU TYPEDEF=4 ;
             10803        %EQU TYPEREF=5 ;
             10804        %EQU TYPSDEF=6 ;
PL6.E3A0      #001=VXK$KEY File=VXK$KEY.:E05TSI                                  WED 07/30/97 08:17 Page:14
             10805        %EQU TYPSREF=7 ;
             10806        %EQU TYPSEGDEF=8 ;
             10807        %EQU TYPSEGREF=9 ;
             10808        %EQU TYPPROG=10 ;
             10809        %EQU SUBTYPPROG=0 ;
             10810        %EQU SUBTYPREL=1 ;
             10811        %EQU TYPLOGBLK=11 ;
             10812        %EQU TYPINTNTRY=12 ;
             10813        %EQU TYPEXST=13 ;
             10814        %EQU TYPVREBL=14 ;
             10815        %EQU TYPDBGNAM=15 ;
             10816        %EQU TYPLV1LB=16 ;
             10817        %EQU TYPLV1=17 ;
             10818        %EQU TYPDATASEG=18 ;
             10819        %EQU TYPRUM=20 ;
             10820        %EQU TYPBIRTH=21 ;
             10821        %EQU TYPPLOVER=22 ;
             10822        %EQU TYPCOMPID=23 ;
             10823        %EQU TYPROS=30 ;
       44    10825        %P;
             10826        %LSET LISTDIR='0'B;

             10833    1   /*******************************************************************************
             10834    1   *                                                                              *
             10835    1   *                          PARAMETERS                                             *
             10836    1   *                                                                              *
             10837    1   *******************************************************************************/

       45    10841    1   DCL FTYPE           SBIN WORD ALIGNED;
       46    10842    1   DCL RTYPE           SBIN WORD ALIGNED;
       47    10843    1   DCL SECT#           UBIN(36)     ALIGNED;
       48    10844    1   DCL NODE# REDEF SECT#    UBIN(36)  ALIGNED;
       49    10845    1   DCL PAGE#           UBIN(36)     ALIGNED;
       50    10846    1   DCL OFFSET REDEF PAGE#   UBIN(36)  ALIGNED;
       51    10847        %E;
             10848        %LSET LISTDIR='0'B;

PL6.E3A0      #001=VXK$KEY File=VXK$KEY.:E05TSI                                  WED 07/30/97 08:17 Page:15
             10855    1   /*******************************************************************************
             10856    1   *                                                                              *
             10857    1   *                          ENTRY                                                 *
             10858    1   *                                                                              *
             10859    1   *******************************************************************************/

       52    10863        %ENTRIES;
             10864    1   DCL VXE$ERROR       ENTRY(4);
             10865    1   DCL VXE$ERR         ENTRY(3);
             10866    1   DCL VXE$MERC        ENTRY;
             10867    1   DCL VXE$ERRMSG      ENTRY(3);
             10868    1   DCL VXR$READ        ENTRY( 3 );
             10869    1   DCL VXW$WRITE       ENTRY( 3 );
             10870    1   DCL VXW$WRITE_DO    ENTRY( 2 );
             10871    1   DCL VXD$B2C         ENTRY( 5 );
             10872    1   DCL VXD$C2B         ENTRY( 3 );
             10873    1   DCL VXA$GET         ENTRY( 3 );
             10874    1   DCL VXF$FREE        ENTRY( 3 );
             10875    1   DCL VXQ$SORT        ENTRY( 7 );
             10876    1   DCL VXY$YESNO       ENTRY( 1 );
       53    10878        %PTR;
             10879        %LSET LISTDIR='0'B;

             10886    1   /*******************************************************************************
             10887    1   *                                                                              *
             10888    1   *                          PTR                                                 *
             10889    1   *                                                                              *
             10890    1   *******************************************************************************/

       54    10894    1   DCL K$              PTR  ALIGNED   AUTO;
       55    10895        %S;
             10896        %LSET LISTDIR='0'B;

             10903    1   /*******************************************************************************
             10904    1   *                                                                              *
             10905    1   *                          SBIN                                                 *
             10906    1   *                                                                              *
PL6.E3A0      #001=VXK$KEY File=VXK$KEY.:E05TSI                                  WED 07/30/97 08:17 Page:16
             10907    1   *******************************************************************************/

       56    10911    1   DCL R               SBIN WORD ALIGNED   AUTO;
       57    10912        /**/
       58    10913        /**/
       59    10914        /**/
       60    10915        %LIST;
       61    10916        %O_KEY_BUF( KEYBUF=K$B,
       62    10917                    STCLASS="BASED(K$)",
       63    10918                    INT="");
             10919    1   DCL 1 K$B ALIGNED BASED(K$),
             10920    1          2 FORM0 ,
             10921    1           3 COUNT       UBIN( 9)  UNAL,
             10922    1           3 CHARS       CHAR(512) UNAL,
             10923    1         2 FORM1        REDEF     FORM0,
             10924    1           3 COUNT       UBIN( 9)  UNAL,
             10925    1           3 O777        UBIN( 9)  UNAL,   /* <- '777'O                          */
             10926    1           3 UTS         UBIN(36)  UNAL,
             10927    1           3 REC_TYPE    UBIN( 9)  UNAL,
             10928    1           3 PAGE#       UBIN( 9)  UNAL,
             10929    1           3 *           CHAR(505) UNAL,
             10930    1         2 FORM2        REDEF     FORM0,
             10931    1           3 COUNT       UBIN( 9)  UNAL,
             10932    1           3 O777        UBIN( 9)  UNAL,   /* <- '777'O                          */
             10933    1           3 UTS         UBIN(36)  UNAL,
             10934    1           3 D10         UBIN( 9)  UNAL,   /* <- 10                              */
             10935    1           3 SECT#       UBIN(18)  UNAL,
             10936    1           3 OFFSET      UBIN(18)  UNAL,
             10937    1           3 STYPE       UBIN( 9)  UNAL,
             10938    1           3 SEQUENCE    UBIN( 9)  UNAL,
             10939    1           3 *           CHAR(500) UNAL ;
       64    10941        %PLIST;
       65    10942        %EJECT;
PL6.E3A0      #001=VXK$KEY File=VXK$KEY.:E05TSI                                  WED 07/30/97 08:17 Page:17
       66    10943    1         R = RTYPE;

  10943  2 000002   200004 470500                    LDP0    @RTYPE,,AUTO
         2 000003   000000 235100                    LDA     0,,PR0
         2 000004   200010 755100                    STA     R,,AUTO

       67    10944    2         DO CASE(FTYPE);

  10944  2 000005   200003 471500                    LDP1    @FTYPE,,AUTO
         2 000006   100000 235100                    LDA     0,,PR1
         2 000007   000003 115007                    CMPA    3,DL
         2 000010   000012 602005 2                  TNC     s:10944+5,AL
         2 000011   000236 710000 2                  TRA     s:11025
         2 000012   000015 710000 2                  TRA     s:10946
         2 000013   000150 710000 2                  TRA     s:10996
         2 000014   000130 710000 2                  TRA     s:10985

       68    10945    2           CASE(0/*@OF*/);

       69    10946    2             K$=ADDR(VX_O_KEY_BUF);

  10946  2 000015   000000 236000 3                  LDQ     0
         2 000016   200007 756100                    STQ     K$,,AUTO

       70    10947    3             IF VX_KEY_USEPREV = 1/*@YES*/ THEN DO;

  10947  2 000017   000000 235000 xsym               LDA     VX_KEY_USEPREV
         2 000020   000001 115007                    CMPA    1,DL
         2 000021   000031 601000 2                  TNZ     s:10952

       71    10948    3                 K$B.FORM0.COUNT = VX_O_KEY_BUF_L.FORM0.COUNT;

  10948  2 000022   200007 473500                    LDP3    K$,,AUTO
         2 000023   000000 236000 xsym               LDQ     VX_O_KEY_BUF_L
         2 000024   300000 552140                    STBQ    0,'40'O,PR3

       72    10949    3                 K$B.FORM0.CHARS = VX_O_KEY_BUF_L.FORM0.CHARS;
PL6.E3A0      #001=VXK$KEY File=VXK$KEY.:E05TSI                                  WED 07/30/97 08:17 Page:18

  10949  2 000025   040100 100400                    MLR     fill='040'O
         2 000026   000000 201000 xsym               ADSC9   VX_O_KEY_BUF_L           cn=1,n=512
         2 000027   300000 201000                    ADSC9   0,,PR3                   cn=1,n=512

       73    10950    3                 RETURN;

  10950  2 000030   000000 702200 xent               TSX2  ! X66_ARET

       74    10951    3                END;
       75    10952    3             IF R < 0 THEN DO;

  10952  2 000031   200010 235100                    LDA     R,,AUTO
         2 000032   000061 605000 2                  TPL     OBJECT

       76    10953    3                 R = -R;

  10953  2 000033   000000 531000                    NEG     0
         2 000034   200010 755100                    STA     R,,AUTO

       77    10954    4                 DO CASE( R );

  10954  2 000035   000003 115007                    CMPA    3,DL
         2 000036   000040 602005 2                  TNC     s:10954+3,AL
         2 000037   000060 710000 2                  TRA     s:10962
         2 000040   000060 710000 2                  TRA     s:10962
         2 000041   000043 710000 2                  TRA     s:10956
         2 000042   000052 710000 2                  TRA     s:10959

       78    10955    4                   CASE(1);                /* Head */

       79    10956    4                     K$B.FORM0.COUNT = SIZEC(VX_O_KEY_HEAD );

  10956  2 000043   200007 473500                    LDP3    K$,,AUTO
         2 000044   001000 236003                    LDQ     512,DU
         2 000045   300000 552140                    STBQ    0,'40'O,PR3

PL6.E3A0      #001=VXK$KEY File=VXK$KEY.:E05TSI                                  WED 07/30/97 08:17 Page:19
       80    10957    4                     K$B.FORM0.CHARS = VX_O_KEY_HEAD;

  10957  2 000046   040100 100400                    MLR     fill='040'O
         2 000047   000000 000001 xsym               ADSC9   VX_O_KEY_HEAD            cn=0,n=1
         2 000050   300000 201000                    ADSC9   0,,PR3                   cn=1,n=512
         2 000051   000060 710000 2                  TRA     s:10962

       81    10958    4                   CASE(2);                /* Tree */

       82    10959    4                     K$B.FORM0.COUNT = SIZEC(VX_O_KEY_TREE );

  10959  2 000052   200007 473500                    LDP3    K$,,AUTO
         2 000053   006000 236003                    LDQ     3072,DU
         2 000054   300000 552140                    STBQ    0,'40'O,PR3

       83    10960    4                     K$B.FORM0.CHARS = VX_O_KEY_TREE;

  10960  2 000055   040100 100400                    MLR     fill='040'O
         2 000056   000000 000006 xsym               ADSC9   VX_O_KEY_TREE            cn=0,n=6
         2 000057   300000 201000                    ADSC9   0,,PR3                   cn=1,n=512

       84    10961    4                   END;                    /* Do case */

       85    10962    3                 RETURN;                   /* If R<0 */

  10962  2 000060   000000 702200 xent               TSX2  ! X66_ARET

       86    10963    3                END;                       /* If R<0 */
       87    10964        /* Here => did not want previous key */
       88    10965    2   OBJECT:
       89    10966    2             K$B.FORM1.O777 = BITBIN('777'O);

  10966  2 000061   200007 470500       OBJECT       LDP0    K$,,AUTO
         2 000062   000777 236003                    LDQ     511,DU
         2 000063   000000 552120                    STBQ    0,'20'O,PR0

       90    10967    2             K$B.FORM1.UTS  = VX_OU_HEAD.UTS;
PL6.E3A0      #001=VXK$KEY File=VXK$KEY.:E05TSI                                  WED 07/30/97 08:17 Page:20

  10967  2 000064   000100 100400                    MLR     fill='000'O
         2 000065   000000 000004 xsym               ADSC9   VX_OU_HEAD               cn=0,n=4
         2 000066   000000 400004                    ADSC9   0,,PR0                   cn=2,n=4

       91    10968    2             K$B.FORM1.REC_TYPE = R;

  10968  2 000067   200010 236100                    LDQ     R,,AUTO
         2 000070   000011 736000                    QLS     9
         2 000071   000001 552110                    STBQ    1,'10'O,PR0

       92    10969    2             IF ( R >= 1 AND R <= 9 )

  10969  2 000072   200010 235100                    LDA     R,,AUTO
         2 000073   000076 604400 2                  TMOZ    s:10969+4
         2 000074   000011 115007                    CMPA    9,DL
         2 000075   000102 604400 2                  TMOZ    s:10972
         2 000076   000013 115007                    CMPA    11,DL
         2 000077   000110 604000 2                  TMI     s:10976
         2 000100   000017 115007                    CMPA    15,DL
         2 000101   000110 605400 2                  TPNZ    s:10976

       93    10970    2                     OR
       94    10971    3                     ( R >= 11 AND R <= 15 ) THEN DO;

       95    10972    3                 K$B.FORM1.COUNT = 7;

  10972  2 000102   007000 236003                    LDQ     3584,DU
         2 000103   000000 552140                    STBQ    0,'40'O,PR0

       96    10973    3                 K$B.FORM1.PAGE# = PAGE#;

  10973  2 000104   200006 471500                    LDP1    @PAGE#,,AUTO
         2 000105   100000 236100                    LDQ     0,,PR1
         2 000106   000001 552104                    STBQ    1,'04'O,PR0

       97    10974    3                 RETURN;
PL6.E3A0      #001=VXK$KEY File=VXK$KEY.:E05TSI                                  WED 07/30/97 08:17 Page:21

  10974  2 000107   000000 702200 xent               TSX2  ! X66_ARET

       98    10975    3                END;
       99    10976    3             ELSE IF R = 10 THEN DO;

  10976  2 000110   000012 115007                    CMPA    10,DL
         2 000111   000236 601000 2                  TNZ     s:11025

      100    10977    3                     K$B.FORM2.COUNT = 11;

  10977  2 000112   013000 236003                    LDQ     5632,DU
         2 000113   000000 552140                    STBQ    0,'40'O,PR0

      101    10978    3                     K$B.FORM2.SECT# = SECT#;

  10978  2 000114   200005 471500                    LDP1    @SECT#,,AUTO
         2 000115   000100 101500                    MRL     fill='000'O
         2 000116   100000 000004                    ADSC9   0,,PR1                   cn=0,n=4
         2 000117   000001 600002                    ADSC9   1,,PR0                   cn=3,n=2

      102    10979    3                     K$B.FORM2.OFFSET = OFFSET;

  10979  2 000120   200006 473500                    LDP3    @PAGE#,,AUTO
         2 000121   300000 236100                    LDQ     0,,PR3
         2 000122   000011 736000                    QLS     9
         2 000123   000002 552130                    STBQ    2,'30'O,PR0

      103    10980    3                     K$B.FORM2.STYPE = 0;

  10980  2 000124   000000 236003                    LDQ     0,DU
         2 000125   000002 552104                    STBQ    2,'04'O,PR0

      104    10981    3                     K$B.FORM2.SEQUENCE = 0;

  10981  2 000126   000003 552140                    STBQ    3,'40'O,PR0

PL6.E3A0      #001=VXK$KEY File=VXK$KEY.:E05TSI                                  WED 07/30/97 08:17 Page:22
      105    10982    3                     RETURN;

  10982  2 000127   000000 702200 xent               TSX2  ! X66_ARET

      106    10983    3                    END;
      107    10984    2           CASE(2/*@LF*/);

      108    10985    2             K$ = ADDR( VX_O_KEY_BUF );

  10985  2 000130   000000 236000 3                  LDQ     0
         2 000131   200007 756100                    STQ     K$,,AUTO

      109    10986    2             IF VX_KEY_NAME$ = ADDR(NIL) THEN GOTO OBJECT;

  10986  2 000132   000000 236000 xsym               LDQ     VX_KEY_NAME$
         2 000133   000001 116000 xsym               CMPQ    B_VECTNIL+1
         2 000134   000061 600000 2                  TZE     OBJECT

      110    10987        /* Here => library searching */
      111    10988    2             K$B.FORM0.COUNT = VX_KEY_NAME$ -> T$H.COUNT;

  10988  2 000135   200007 473500                    LDP3    K$,,AUTO
         2 000136   000000 474400 xsym               LDP4    VX_KEY_NAME$
         2 000137   400000 236100                    LDQ     0,,PR4
         2 000140   000011 736000                    QLS     9
         2 000141   300000 552140                    STBQ    0,'40'O,PR3

      112    10989    2             K$B.FORM0.CHARS = VX_KEY_NAME$ -> T$H.CHARS;

  10989  2 000142   000000 474400 xsym               LDP4    VX_KEY_NAME$
         2 000143   400000 220100                    LDX0    0,,PR4
         2 000144   040100 100540                    MLR     fill='040'O
         2 000145   400000 400010                    ADSC9   0,,PR4                   cn=2,n=*X0
         2 000146   300000 201000                    ADSC9   0,,PR3                   cn=1,n=512

      113    10990    2             RETURN;

PL6.E3A0      #001=VXK$KEY File=VXK$KEY.:E05TSI                                  WED 07/30/97 08:17 Page:23
  10990  2 000147   000000 702200 xent               TSX2  ! X66_ARET

      114    10991        %EJECT;
PL6.E3A0      #001=VXK$KEY File=VXK$KEY.:E05TSI                                  WED 07/30/97 08:17 Page:24
      115    10992        /*
      116    10993              Run file
      117    10994        */
      118    10995    2           CASE(1/*@RF*/);

      119    10996    2             K$ = ADDR( VX_R_KEY_BUF );

  10996  2 000150   000001 236000 3                  LDQ     1
         2 000151   200007 756100                    STQ     K$,,AUTO

      120    10997    3             IF R < 0 THEN DO;

  10997  2 000152   200010 235100                    LDA     R,,AUTO
         2 000153   000171 605000 2                  TPL     s:11007

      121    10998    3                 R = -R;

  10998  2 000154   000000 531000                    NEG     0
         2 000155   200010 755100                    STA     R,,AUTO

      122    10999    4                 DO CASE(R);

  10999  2 000156   000002 115007                    CMPA    2,DL
         2 000157   000161 602005 2                  TNC     s:10999+3,AL
         2 000160   000170 710000 2                  TRA     s:11004
         2 000161   000170 710000 2                  TRA     s:11004
         2 000162   000163 710000 2                  TRA     s:11001

      123    11000    4                   CASE(1);                /*Head*/

      124    11001    4                     VX_R_KEY_BUF.FORM0.COUNT = SIZEC(VX_R_KEY_HEAD);

  11001  2 000163   004000 236003                    LDQ     2048,DU
         2 000164   000000 552040 xsym               STBQ    VX_R_KEY_BUF,'40'O

      125    11002    4                     VX_R_KEY_BUF.FORM0.CHARS = VX_R_KEY_HEAD;

PL6.E3A0      #001=VXK$KEY File=VXK$KEY.:E05TSI                                  WED 07/30/97 08:17 Page:25
  11002  2 000165   040000 100400                    MLR     fill='040'O
         2 000166   000000 000004 xsym               ADSC9   VX_R_KEY_HEAD            cn=0,n=4
         2 000167   000000 200005 xsym               ADSC9   VX_R_KEY_BUF             cn=1,n=5

      126    11003    4                   END;                    /*Do case */

      127    11004    3                 RETURN;

  11004  2 000170   000000 702200 xent               TSX2  ! X66_ARET

      128    11005    3                END;                       /* If R<0 */
      129    11006        /* Here => not head */
      130    11007    2             VX_R_KEY_BUF.FORM1.NODE# = NODE#;

  11007  2 000171   200005 473500                    LDP3    @SECT#,,AUTO
         2 000172   300000 720100                    LXL0    0,,PR3
         2 000173   000000 440000 xsym               SXL0    VX_R_KEY_BUF

      131    11008    2             IF ( R>= 1 AND R <= 10 )

  11008  2 000174   000000 115003                    CMPA    0,DU
         2 000175   000200 604400 2                  TMOZ    s:11008+4
         2 000176   000012 115007                    CMPA    10,DL
         2 000177   000204 604400 2                  TMOZ    s:11011
         2 000200   000022 115007                    CMPA    18,DL
         2 000201   000204 600000 2                  TZE     s:11011
         2 000202   000036 115007                    CMPA    30,DL
         2 000203   000215 601000 2                  TNZ     s:11016

      132    11009    2                     OR
      133    11010    3                     R = 18 OR R = 30 THEN DO;

      134    11011    3                 VX_R_KEY_BUF.FORM1.COUNT = 5;

  11011  2 000204   005000 236003                    LDQ     2560,DU
         2 000205   000000 552040 xsym               STBQ    VX_R_KEY_BUF,'40'O

PL6.E3A0      #001=VXK$KEY File=VXK$KEY.:E05TSI                                  WED 07/30/97 08:17 Page:26
      135    11012    3                 VX_R_KEY_BUF.FORM1.REC_TYPE = R;

  11012  2 000206   200010 236100                    LDQ     R,,AUTO
         2 000207   000022 736000                    QLS     18
         2 000210   000000 552020 xsym               STBQ    VX_R_KEY_BUF,'20'O

      136    11013    3                 VX_R_KEY_BUF.FORM1.OFFSET = OFFSET;

  11013  2 000211   200006 474500                    LDP4    @PAGE#,,AUTO
         2 000212   400000 720100                    LXL0    0,,PR4
         2 000213   000001 740000 xsym               STX0    VX_R_KEY_BUF+1

      137    11014    3                 RETURN;

  11014  2 000214   000000 702200 xent               TSX2  ! X66_ARET

      138    11015    3                END;
      139    11016    3             ELSE IF R >= 11 AND R <= 15 THEN DO;

  11016  2 000215   000013 115007                    CMPA    11,DL
         2 000216   000236 604000 2                  TMI     s:11025
         2 000217   000017 115007                    CMPA    15,DL
         2 000220   000236 605400 2                  TPNZ    s:11025

      140    11017    3                     VX_R_KEY_BUF.FORM2.COUNT = 7;

  11017  2 000221   007000 236003                    LDQ     3584,DU
         2 000222   000000 552040 xsym               STBQ    VX_R_KEY_BUF,'40'O

      141    11018    3                     VX_R_KEY_BUF.FORM2.O777 = BITBIN('777'O);;

  11018  2 000223   000777 236003                    LDQ     511,DU
         2 000224   000000 552020 xsym               STBQ    VX_R_KEY_BUF,'20'O

      142    11019    3                     VX_R_KEY_BUF.FORM2.P_ENTDEF = VX_P_ENTDEF;

  11019  2 000225   000000 720000 xsym               LXL0    VX_P_ENTDEF
PL6.E3A0      #001=VXK$KEY File=VXK$KEY.:E05TSI                                  WED 07/30/97 08:17 Page:27
         2 000226   000001 740000 xsym               STX0    VX_R_KEY_BUF+1

      143    11020    3                     VX_R_KEY_BUF.FORM2.REC_TYPE = R;

  11020  2 000227   200010 236100                    LDQ     R,,AUTO
         2 000230   000011 736000                    QLS     9
         2 000231   000001 552010 xsym               STBQ    VX_R_KEY_BUF+1,'10'O

      144    11021    3                     VX_R_KEY_BUF.FORM2.PAGE# = PAGE#;

  11021  2 000232   200006 474500                    LDP4    @PAGE#,,AUTO
         2 000233   400000 236100                    LDQ     0,,PR4
         2 000234   000001 552004 xsym               STBQ    VX_R_KEY_BUF+1,'04'O

      145    11022    3                     RETURN;

  11022  2 000235   000000 702200 xent               TSX2  ! X66_ARET

      146    11023    3                    END;
      147    11024    2           END;                            /*Do case(ftype*/

      148    11025    1   END VXK$KEY;

  11025  2 000236   000000 702200 xent               TSX2  ! X66_ARET

PL6.E3A0      #001=VXK$KEY File=VXK$KEY.:E05TSI                                  WED 07/30/97 08:17 Page:28
--  Include file information  --

   F_DCB_D.:E05TOU  is referenced.
   VX_DCB_R.:E05TOU  cannot be made into a system file and is referenced.
   VX_DATA_R.:E05TOU  cannot be made into a system file and is referenced.
   VX_FIXED_R.:E05TOU  cannot be made into a system file and is referenced.
   XU_MACRO_C.:E05TOU  is referenced.
   CP_6.:E05TOU  cannot be made into a system file and is referenced.
   VX_MACRO_C.:E05TOU  is referenced.
   VX_PERR_C.:E05TOU  is referenced.
   VX_SUBS_C.:E05TOU  is referenced.
   VX_SWITCH_C.:E05TOU  is referenced.
   B$OBJECT_C.:E05TOU  is referenced.
   VX_INC_C.:E05TOU  is referenced.
   B$JIT_C.:E05TOU  was found in the system file and is never referenced.
   CP_6_C.:E05TOU  was found in the system file and is referenced.
      No diagnostics issued in procedure VXK$KEY.
PL6.E3A0      #001=VXK$KEY File=VXK$KEY.:E05TSI                                  WED 07/30/97 08:17 Page:29

 **** Variables and constants ****

  ****  Auto variables  ****

  ****  Scalars and arrays  ****
OctLoc.c.b A Datatyp(siz) R M Lvl/name                 OctLoc.c.b A Datatyp(siz) R M Lvl/name

     3-0-0/w PTR         r     1 @FTYPE                     6-0-0/w PTR         r     1 @PAGE#
     4-0-0/w PTR         r     1 @RTYPE                     5-0-0/w PTR         r     1 @SECT#
    *0-0-0/w SBIN        r     1 FTYPE                      7-0-0/w PTR         r     1 K$
    *0-0-0/w UBIN        r     1 NODE#                     *0-0-0/w UBIN        r     1 OFFSET
    *0-0-0/w UBIN        r     1 PAGE#                     10-0-0/w SBIN        r     1 R
    *0-0-0/w SBIN        r     1 RTYPE                     *0-0-0/w UBIN        r     1 SECT#

  ****  SYMREF variables  ****

  ****  Scalars and arrays  ****
OctLoc.c.b A Datatyp(siz) R M Lvl/name                 OctLoc.c.b A Datatyp(siz) R M Lvl/name

     0-0-0/w PTR         r     1 VX_KEY_NAME$               0-0-0/w UBIN        r     1 VX_KEY_USEPREV
     0-0-0/w STRC(1044)  r     1 VX_OU_HEAD                 0-0-0/w STRC(4617)  r     1 VX_O_KEY_BUF
     0-0-0/w STRC(4617)  r     1 VX_O_KEY_BUF_L             0-0-0/c CHAR        r     1 VX_O_KEY_HEAD
     0-0-0/c CHAR(6)     r     1 VX_O_KEY_TREE              0-0-0/w UBIN        r     1 VX_P_ENTDEF
     0-0-0/w STRC(108)   r     1 VX_R_KEY_BUF               0-0-0/c CHAR(4)     r     1 VX_R_KEY_HEAD

  ****  BASED and DCB variables  ****

  ****  Scalars and arrays  ****
OctLoc.c.b A Datatyp(siz) R M Lvl/name                 OctLoc.c.b A Datatyp(siz) R M Lvl/name

     0-0-0/w STRC(4617)  r     1 K$B                        0-0-0/w ASTR(18)    r     1 T$H


   Procedure VXK$KEY requires 159 words for executable code.
   Procedure VXK$KEY requires 10 words of local(AUTO) storage.
PL6.E3A0      #001=VXK$KEY File=VXK$KEY.:E05TSI                                  WED 07/30/97 08:17 Page:30

    No errors detected in file VXK$KEY.:E05TSI    .
PL6.E3A0      #001=VXK$KEY File=VXK$KEY.:E05TSI                                  WED 07/30/97 08:17 Page:31
          *** CROSS REFERENCE LISTING ***
**     DENOTES     IDENTIFIER DEFINITION
<<                 IDENTIFIER'S VALUE SET
>>                 IDENTIFIER'S VALUE USED
<>                 IDENTIFIER SET AND/OR USED
--                 IDENTIFIER REFERENCED
PL6.E3A0      #001=VXK$KEY File=VXK$KEY.:E05TSI                                  WED 07/30/97 08:17 Page:32
          MINI XREF LISTING

FTYPE
     10841**DCL        35--PROC    10944>>DOCASE
K$
     10894**DCL     10919--IMP-PTR 10946<<ASSIGN  10948>>ASSIGN  10949>>ASSIGN  10956>>ASSIGN  10957>>ASSIGN
     10959>>ASSIGN  10960>>ASSIGN  10966>>ASSIGN  10967>>ASSIGN  10968>>ASSIGN  10972>>ASSIGN  10973>>ASSIGN
     10977>>ASSIGN  10978>>ASSIGN  10979>>ASSIGN  10980>>ASSIGN  10981>>ASSIGN  10985<<ASSIGN  10988>>ASSIGN
     10989>>ASSIGN  10996<<ASSIGN
K$B.FORM0
     10920**DCL     10923--REDEF   10930--REDEF
K$B.FORM0.CHARS
     10922**DCL     10949<<ASSIGN  10957<<ASSIGN  10960<<ASSIGN  10989<<ASSIGN
K$B.FORM0.COUNT
     10921**DCL     10948<<ASSIGN  10956<<ASSIGN  10959<<ASSIGN  10988<<ASSIGN
K$B.FORM1.COUNT
     10924**DCL     10972<<ASSIGN
K$B.FORM1.O777
     10925**DCL     10966<<ASSIGN
K$B.FORM1.PAGE#
     10928**DCL     10973<<ASSIGN
K$B.FORM1.REC_TYPE
     10927**DCL     10968<<ASSIGN
K$B.FORM1.UTS
     10926**DCL     10967<<ASSIGN
K$B.FORM2.COUNT
     10931**DCL     10977<<ASSIGN
K$B.FORM2.OFFSET
     10936**DCL     10979<<ASSIGN
K$B.FORM2.SECT#
     10935**DCL     10978<<ASSIGN
K$B.FORM2.SEQUENCE
     10938**DCL     10981<<ASSIGN
K$B.FORM2.STYPE
PL6.E3A0      #001=VXK$KEY File=VXK$KEY.:E05TSI                                  WED 07/30/97 08:17 Page:33
     10937**DCL     10980<<ASSIGN
NODE#
     10844**DCL     11007>>ASSIGN
OBJECT
     10966**LABEL   10986--GOTO
OFFSET
     10846**DCL     10979>>ASSIGN  11013>>ASSIGN
PAGE#
     10845**DCL        35--PROC    10846--REDEF   10973>>ASSIGN  11021>>ASSIGN
R
     10911**DCL     10943<<ASSIGN  10952>>IF      10953<<ASSIGN  10953>>ASSIGN  10954>>DOCASE  10968>>ASSIGN
     10969>>IF      10969>>IF      10969>>IF      10969>>IF      10976>>IF      10997>>IF      10998<<ASSIGN
     10998>>ASSIGN  10999>>DOCASE  11008>>IF      11008>>IF      11008>>IF      11008>>IF      11012>>ASSIGN
     11016>>IF      11016>>IF      11020>>ASSIGN
RTYPE
     10842**DCL        35--PROC    10943>>ASSIGN
SECT#
     10843**DCL        35--PROC    10844--REDEF   10978>>ASSIGN
T$H.CHARS
     10778**DCL     10989>>ASSIGN
T$H.COUNT
     10777**DCL     10778--IMP-SIZ 10988>>ASSIGN  10989>>ASSIGN
VX_BIAS.A
      9603**DCL      9604--REDEF
VX_CBUF.CHARS_A
      9537**DCL      9538--REDEF
VX_CONST_DCB.ACTPOS
     10719**DCL     10719--REDEF
VX_CONST_DCB.ARS#
     10678**DCL     10678--REDEF
VX_CONST_DCB.ATTR#
     10708**DCL     10708--REDEF   10710--REDEF
VX_CONST_DCB.BORROW
     10730**DCL     10730--REDEF   10730--REDEF   10730--REDEF
VX_CONST_DCB.EOMCHAR#
     10685**DCL     10686--REDEF
PL6.E3A0      #001=VXK$KEY File=VXK$KEY.:E05TSI                                  WED 07/30/97 08:17 Page:34
VX_CONST_DCB.FLDID
     10722**DCL     10723--REDEF
VX_CONST_DCB.FORM$
     10714**DCL     10714--REDEF
VX_CONST_DCB.FSECT
     10737**DCL     10737--REDEF
VX_CONST_DCB.FSN#
     10704**DCL     10704--REDEF   10704--REDEF   10705--REDEF
VX_CONST_DCB.HEADER$
     10713**DCL     10714--REDEF
VX_CONST_DCB.IXTNSIZE#
     10710**DCL     10711--REDEF
VX_CONST_DCB.LASTSTA$
     10694**DCL     10694--REDEF
VX_CONST_DCB.LVL
     10731**DCL     10731--REDEF
VX_CONST_DCB.NAME#.C
     10694**DCL     10695--REDEF
VX_CONST_DCB.NOEOF
     10726**DCL     10726--REDEF
VX_CONST_DCB.NRECS#
     10711**DCL     10711--REDEF
VX_CONST_DCB.NRECX
     10738**DCL     10738--REDEF
VX_CONST_DCB.OHDR
     10727**DCL     10727--REDEF
VX_CONST_DCB.ORG#
     10702**DCL     10703--REDEF
VX_CONST_DCB.PRECNO
     10735**DCL     10735--REDEF
VX_CONST_DCB.RCSZ
     10743**DCL     10743--REDEF
VX_CONST_DCB.RES#
     10696**DCL     10696--REDEF
VX_CONST_DCB.SETX
     10715**DCL     10715--REDEF
PL6.E3A0      #001=VXK$KEY File=VXK$KEY.:E05TSI                                  WED 07/30/97 08:17 Page:35
VX_CONST_DCB.TAB$
     10714**DCL     10714--REDEF
VX_CONST_DCB.TDA
     10734**DCL     10735--REDEF
VX_CONST_DCB.WSN#
     10696**DCL     10697--REDEF
VX_EBUF.CHARS_A
     10126**DCL     10127--REDEF
VX_EFIELD1.CHARS
     10135**DCL     10136--REDEF
VX_EFIELD2.CHARS
     10139**DCL     10140--REDEF
VX_EFIELD3.CHARS
     10143**DCL     10144--REDEF
VX_EI_KEY_BUF.KEY
     10519**DCL     10520--REDEF
VX_ERRORS
      9580**DCL      9591--REDEF
VX_ERRORS.CONFLICT_A
      9586**DCL      9587--REDEF
VX_ERRORS.UNSAT_A
      9582**DCL      9583--REDEF
VX_IMAGE_DATA.CPAGE#_A
      8717**DCL      8718--REDEF
VX_IMAGE_DATA.NODE_A$
      8729**DCL      8730--REDEF
VX_IMAGE_DATA.START_A$
      8721**DCL      8722--REDEF
VX_IMAGE_DATA.STOP_A$
      8725**DCL      8726--REDEF
VX_IMAGE_DS3.CPAGE#_A
      8786**DCL      8787--REDEF
VX_IMAGE_DS3.NODE_A$
      8798**DCL      8799--REDEF
VX_IMAGE_DS3.START_A$
      8790**DCL      8791--REDEF
PL6.E3A0      #001=VXK$KEY File=VXK$KEY.:E05TSI                                  WED 07/30/97 08:17 Page:36
VX_IMAGE_DS3.STOP_A$
      8794**DCL      8795--REDEF
VX_IMAGE_DS4.CPAGE#_A
      8809**DCL      8810--REDEF
VX_IMAGE_DS4.NODE_A$
      8821**DCL      8822--REDEF
VX_IMAGE_DS4.START_A$
      8813**DCL      8814--REDEF
VX_IMAGE_DS4.STOP_A$
      8817**DCL      8818--REDEF
VX_IMAGE_DS5.CPAGE#_A
      8832**DCL      8833--REDEF
VX_IMAGE_DS5.NODE_A$
      8844**DCL      8845--REDEF
VX_IMAGE_DS5.START_A$
      8836**DCL      8837--REDEF
VX_IMAGE_DS5.STOP_A$
      8840**DCL      8841--REDEF
VX_IMAGE_DS6.CPAGE#_A
      8855**DCL      8856--REDEF
VX_IMAGE_DS6.NODE_A$
      8867**DCL      8868--REDEF
VX_IMAGE_DS6.START_A$
      8859**DCL      8860--REDEF
VX_IMAGE_DS6.STOP_A$
      8863**DCL      8864--REDEF
VX_IMAGE_DS7.CPAGE#_A
      8878**DCL      8879--REDEF
VX_IMAGE_DS7.NODE_A$
      8890**DCL      8891--REDEF
VX_IMAGE_DS7.START_A$
      8882**DCL      8883--REDEF
VX_IMAGE_DS7.STOP_A$
      8886**DCL      8887--REDEF
VX_IMAGE_DS8.CPAGE#_A
      8901**DCL      8902--REDEF
PL6.E3A0      #001=VXK$KEY File=VXK$KEY.:E05TSI                                  WED 07/30/97 08:17 Page:37
VX_IMAGE_DS8.NODE_A$
      8913**DCL      8914--REDEF
VX_IMAGE_DS8.START_A$
      8905**DCL      8906--REDEF
VX_IMAGE_DS8.STOP_A$
      8909**DCL      8910--REDEF
VX_IMAGE_PROC.CPAGE#_A
      8740**DCL      8741--REDEF
VX_IMAGE_PROC.NODE_A$
      8752**DCL      8753--REDEF
VX_IMAGE_PROC.START_A$
      8744**DCL      8745--REDEF
VX_IMAGE_PROC.STOP_A$
      8748**DCL      8749--REDEF
VX_IMAGE_ROS.CPAGE#_A
      8763**DCL      8764--REDEF
VX_IMAGE_ROS.NODE_A$
      8775**DCL      8776--REDEF
VX_IMAGE_ROS.START_A$
      8767**DCL      8768--REDEF
VX_IMAGE_ROS.STOP_A$
      8771**DCL      8772--REDEF
VX_KEY_NAME$
     10184**DCL     10986>>IF      10988>>ASSIGN  10989>>ASSIGN  10989>>ASSIGN
VX_KEY_USEPREV
     10183**DCL     10947>>IF
VX_M_VECTOR.F
      8568**DCL      8572--REDEF
VX_M_VECTOR_DP.F
      8603**DCL      8607--REDEF
VX_O.ACCTN_A$
      9732**DCL      9733--REDEF
VX_O.DCB_MATCH_A$
      9741**DCL      9742--REDEF
VX_O.DCB_MATCH_HIT_A
      9747**DCL      9748--REDEF
PL6.E3A0      #001=VXK$KEY File=VXK$KEY.:E05TSI                                  WED 07/30/97 08:17 Page:38
VX_O.FIDN_A$
      9726**DCL      9727--REDEF
VX_O.FID_A$
      9718**DCL      9719--REDEF
VX_O.INCLUDE_A$
      9738**DCL      9739--REDEF
VX_O.MAP_A
      9712**DCL      9713--REDEF
VX_O.NODCB_A
      9769**DCL      9770--REDEF
VX_O.NUM_A
      9657**DCL      9659--REDEF
VX_O.OPT_A
      9757**DCL      9758--REDEF
VX_O.PRIV_A
      9673**DCL      9675--REDEF
VX_O.SIN_A
      9626**DCL      9627--REDEF
VX_O.TCB_A
      9753**DCL      9754--REDEF
VX_OD.ACCTN_A$
      9930**DCL      9931--REDEF
VX_OD.DCB_MATCH_A$
      9939**DCL      9940--REDEF
VX_OD.FIDN_A$
      9924**DCL      9925--REDEF
VX_OD.FID_A$
      9916**DCL      9917--REDEF
VX_OD.INCLUDE_A$
      9936**DCL      9937--REDEF
VX_OD.MAP_A
      9910**DCL      9911--REDEF
VX_OD.NODCB_A
      9954**DCL      9955--REDEF
VX_OD.NUM_A
      9857**DCL      9858--REDEF
PL6.E3A0      #001=VXK$KEY File=VXK$KEY.:E05TSI                                  WED 07/30/97 08:17 Page:39
VX_OD.PRIV_A
      9872**DCL      9873--REDEF
VX_OD.SIN_A
      9826**DCL      9827--REDEF
VX_OD.VECTOR_A$
      9945**DCL      9946--REDEF
VX_OL.MAX_A
      9801**DCL      9803--REDEF
VX_OL.MIN_A
      9786**DCL      9787--REDEF
VX_ON.ACCTN_A$
     10075**DCL     10077--REDEF
VX_ON.DCB_MATCH_A$
     10086**DCL     10088--REDEF
VX_ON.FIDN_A$
     10068**DCL     10070--REDEF
VX_ON.FID_A$
     10059**DCL     10061--REDEF
VX_ON.INCLUDE_A$
     10082**DCL     10084--REDEF
VX_ON.MAP_A
     10052**DCL     10054--REDEF
VX_ON.NODCB_A$
     10102**DCL     10103--REDEF
VX_ON.NUM_A
      9997**DCL      9999--REDEF
VX_ON.PRIV_A
     10013**DCL     10015--REDEF
VX_ON.SIN_A
      9965**DCL      9967--REDEF
VX_ON.VECTOR_A$
     10093**DCL     10094--REDEF
VX_OUHEAD.VERSION
      9412**DCL      9414--REDEF
VX_OU_HEAD
      9355**DCL      9394--REDEF
PL6.E3A0      #001=VXK$KEY File=VXK$KEY.:E05TSI                                  WED 07/30/97 08:17 Page:40
VX_OU_HEAD.REC_A
      9367**DCL      9370--REDEF
VX_OU_HEAD.UTS
      9356**DCL     10967>>ASSIGN
VX_O_KEY_BUF
      8615**DCL     10946--ASSIGN  10985--ASSIGN
VX_O_KEY_BUF.FORM0
      8616**DCL      8619--REDEF    8626--REDEF
VX_O_KEY_BUF_L.FORM0
      8639**DCL      8642--REDEF    8649--REDEF
VX_O_KEY_BUF_L.FORM0.CHARS
      8641**DCL     10949>>ASSIGN
VX_O_KEY_BUF_L.FORM0.COUNT
      8640**DCL     10948>>ASSIGN
VX_O_KEY_HEAD
     10174**DCL     10956--ASSIGN  10957>>ASSIGN
VX_O_KEY_TREE
     10176**DCL     10959--ASSIGN  10960>>ASSIGN
VX_PASS2_REF.OU.L_START
     10305**DCL     10310--REDEF
VX_PASS2_REF.OU.L_STOP
     10311**DCL     10316--REDEF
VX_PASS2_REF.OU.MAX
     10299**DCL     10304--REDEF
VX_PASS2_REF.OU.SIZE
     10317**DCL     10322--REDEF
VX_PASS2_REF.SAT.COUNT
     10344**DCL     10350--REDEF
VX_PASS2_REF.SAT.ENT_SIZE
     10351**DCL     10357--REDEF
VX_PASS2_REF.SAT.L_START
     10330**DCL     10336--REDEF
VX_PASS2_REF.SAT.L_STOP
     10337**DCL     10343--REDEF
VX_PASS2_REF.SAT.MAX
     10324**DCL     10329--REDEF
PL6.E3A0      #001=VXK$KEY File=VXK$KEY.:E05TSI                                  WED 07/30/97 08:17 Page:41
VX_PASS2_REF.UNSAT.L_START
     10392**DCL     10397--REDEF
VX_PASS2_REF.UNSAT.L_STOP
     10398**DCL     10403--REDEF
VX_PASS2_REF.UNSAT.L_WHERE
     10404**DCL     10409--REDEF
VX_PASS2_REF.UNSAT.MAX
     10386**DCL     10391--REDEF
VX_PASS2_REF.UNSAT.PAGE#
     10416**DCL     10421--REDEF
VX_PASS2_REF.UNSAT.SIZE
     10410**DCL     10415--REDEF
VX_PHRASE.PHRASE
      9818**DCL      9820--REDEF
VX_PROGRAM_BIAS.A
      9596**DCL      9597--REDEF
VX_P_ENTDEF
     10179**DCL     11019>>ASSIGN
VX_R_KEY_BUF
      8664**DCL     10996--ASSIGN
VX_R_KEY_BUF.FORM0
      8665**DCL      8669--REDEF    8675--REDEF
VX_R_KEY_BUF.FORM0.CHARS
      8667**DCL     11002<<ASSIGN
VX_R_KEY_BUF.FORM0.COUNT
      8666**DCL     11001<<ASSIGN
VX_R_KEY_BUF.FORM1.COUNT
      8670**DCL     11011<<ASSIGN
VX_R_KEY_BUF.FORM1.NODE#
      8672**DCL     11007<<ASSIGN
VX_R_KEY_BUF.FORM1.OFFSET
      8673**DCL     11013<<ASSIGN
VX_R_KEY_BUF.FORM1.REC_TYPE
      8671**DCL     11012<<ASSIGN
VX_R_KEY_BUF.FORM2.COUNT
      8676**DCL     11017<<ASSIGN
PL6.E3A0      #001=VXK$KEY File=VXK$KEY.:E05TSI                                  WED 07/30/97 08:17 Page:42
VX_R_KEY_BUF.FORM2.O777
      8677**DCL     11018<<ASSIGN
VX_R_KEY_BUF.FORM2.PAGE#
      8681**DCL     11021<<ASSIGN
VX_R_KEY_BUF.FORM2.P_ENTDEF
      8679**DCL     11019<<ASSIGN
VX_R_KEY_BUF.FORM2.REC_TYPE
      8680**DCL     11020<<ASSIGN
VX_R_KEY_HEAD
     10177**DCL     11001--ASSIGN  11002>>ASSIGN
VX_SD.A
      8293**DCL      8294--REDEF
VX_SPC.B$.MINE
     10487**DCL     10493--REDEF
VX_SPC.B$.NAME
     10466**DCL     10472--REDEF
VX_SPC.B$.SKIP
     10480**DCL     10486--REDEF
VX_SPC.B$.VALUE
     10473**DCL     10479--REDEF
VX_SPC.SEG.NAME
     10435**DCL     10441--REDEF
VX_SPC.SEG.VALUE
     10442**DCL     10448--REDEF
VX_TSX0_OVERLAY.H
     10210**DCL     10213--REDEF
