PL6.E3A0      #002=VXM$OVERLAY File=VXM$MAP.:E05TSI                              WED 07/30/97 08:21 Page:141
      589        1        /*T***********************************************************/
      590        2        /*T*                                                         */
      591        3        /*T* Copyright (c) Bull HN Information Systems Inc., 1997    */
      592        4        /*T*                                                         */
      593        5        /*T***********************************************************/
      594        6        /*X* DMR,PLM=6,IND=4,CSU=2,EXM=0,ECU=2,MOC,DCI=4,CRT=4,CTI=8,CCC */
      595        7        VXM$OVERLAY:
      596        8              PROC ( START$ );
      597        9
      598       10        %INCLUDE VX_INC_C;
      599    10726        %VX$WORD;

             10738    1   /*******************************************************************************
             10739    1   *                                                                              *
             10740    1   *                          VX$WORD                                                 *
             10741    1   *                                                                              *
             10742    1   *******************************************************************************/

             10747    1   DCL VX$WORD_A(0:0)       UBIN(36) ALIGNED    BASED PTR;
             10748    1   DCL VX$HALF_A(0:0)       UBIN(18) HALIGNED   BASED PTR;
             10749    1   DCL VX$BYTE_A(0:0)       UBIN( 9) CALIGNED   BASED PTR;
             10750    1   DCL VX$CHAR_A(0:0)       CHAR( 1) UNAL       BASED PTR;
             10751        /**/
             10752    1   DCL VX$WORD_SBIN_A(0:0)  SBIN WORD ALIGNED   BASED     PTR;
             10753    1   DCL VX$HALF_SBIN_A(0:0)  SBIN HALF HALIGNED  BASED     PTR;
             10754    1   DCL VX$BYTE_SBIN_A(0:0)  SBIN HALF CALIGNED  BASED     PTR;
             10755    1   DCL VX$BIT_A(0:0)        BIT(36)   ALIGNED   BASED     PTR;
      600    10758        %T$C;

             10770    1   /*******************************************************************************
             10771    1   *                                                                              *
             10772    1   *                          T$C                                                 *
             10773    1   *                                                                              *
             10774    1   *******************************************************************************/

             10779    1   DCL 1 T$C           BASED     ALIGNED,  /* Text count                         */
             10780    1         2 COUNT        UBIN( 9) UNAL,
PL6.E3A0      #002=VXM$OVERLAY File=VXM$MAP.:E05TSI                              WED 07/30/97 08:21 Page:142
             10781    1         2 CHARS        CHAR( T$C.COUNT )   UNAL;
             10782    1   DCL 1 T$C_UNAL      BASED     UNAL,     /* Text count                         */
             10783    1         2 COUNT        UBIN( 9) UNAL,
             10784    1         2 CHARS        CHAR( T$C_UNAL.COUNT ) UNAL;
      601    10787        %SET  LISTMAC='1'B;
      602    10788        %SET  LISTSUB='1'B;
      603    10789        %SET  LISTEXP='1'B;
      604    10790        %P;
             10791        %LSET LISTDIR='0'B;

             10798    1   /*******************************************************************************
             10799    1   *                                                                              *
             10800    1   *                          PARAMETERS                                              *
             10801    1   *                                                                              *
             10802    1   *******************************************************************************/

      605    10806    1   DCL   START$      PTR;                  /* Pointer to start of tree table */
      606    10807        %C;
             10808        %LSET LISTDIR='0'B;

             10815    1   /*******************************************************************************
             10816    1   *                                                                              *
             10817    1   *                          CHAR                                                 *
             10818    1   *                                                                              *
             10819    1   *******************************************************************************/

      607    10823    1   DCL  ROOT_NODE_LIT    CHAR(0)  STATIC  INIT(
      608    10824    1   'A******* ROOT NODE *******' );
      609    10825    1   DCL  SUMMARY_HEADING (0:2)    CHAR(81) STATIC  INIT(
      610    10826    1   'A                                 TOTAL   DATA   DATA   DATA   PROC   PROC   PROC',
      611    10827    1   'ANODE              <PARENT NODE>   SIZE    LOW   HIGH   SIZE    LOW   HIGH   SIZE',
      612    10828    1   'A------------------------------- ------ ------ ------ ------ ------ ------ ------')
             10828            ;
      613    10829    1   DCL   DECIMAL   CHAR(8)    AUTO;
      614    10830    1   DCL   SKIP_THREE_LINES    CHAR(2)     CONSTANT    INIT ( 'C ' );
      615    10831        %PTR;
             10832        %LSET LISTDIR='0'B;
PL6.E3A0      #002=VXM$OVERLAY File=VXM$MAP.:E05TSI                              WED 07/30/97 08:21 Page:143

             10839    1   /*******************************************************************************
             10840    1   *                                                                              *
             10841    1   *                          PTR                                                 *
             10842    1   *                                                                              *
             10843    1   *******************************************************************************/

      616    10847        %POINTER;
             10848    1   DCL P$         PTR       ALIGNED AUTO;
             10849    1   DCL Q$         PTR       ALIGNED AUTO;
             10850    1   DCL R$         PTR       ALIGNED AUTO;
      617    10852    1   DCL   CURR$       PTR     AUTO;
      618    10853    1   DCL   PARENT$     PTR     AUTO;
      619    10854        %B;
             10855        %LSET LISTDIR='0'B;

             10862    1   /*******************************************************************************
             10863    1   *                                                                              *
             10864    1   *                          BIT                                                 *
             10865    1   *                                                                              *
             10866    1   *******************************************************************************/

      620    10870    1   DCL MORE_LEVELS  BIT(1)   STATIC;
      621    10871        %U;
             10872        %LSET LISTDIR='0'B;

             10879    1   /*******************************************************************************
             10880    1   *                                                                              *
             10881    1   *                          UBIN                                                 *
             10882    1   *                                                                              *
             10883    1   *******************************************************************************/

      622    10887        %INDEX;
             10888    1   DCL I          UBIN(36) ALIGNED AUTO;
             10889    1   DCL SI REDEF I SBIN WORD ALIGNED;
             10890    1   DCL J          UBIN(36) ALIGNED AUTO;
             10891    1   DCL SJ REDEF J SBIN WORD ALIGNED;
PL6.E3A0      #002=VXM$OVERLAY File=VXM$MAP.:E05TSI                              WED 07/30/97 08:21 Page:144
             10892    1   DCL K          UBIN(36) ALIGNED AUTO;
             10893    1   DCL SK REDEF K SBIN WORD ALIGNED;
             10894    1   DCL L          UBIN(36) ALIGNED AUTO;
             10895    1   DCL SL REDEF L    SBIN WORD ALIGNED;
      623    10897    1   DCL       SIZE        UBIN        AUTO;
      624    10898        %E;
             10899        %LSET LISTDIR='0'B;

             10906    1   /*******************************************************************************
             10907    1   *                                                                              *
             10908    1   *                          ENTRY                                                 *
             10909    1   *                                                                              *
             10910    1   *******************************************************************************/

      625    10914    1   DCL VXM$LEVEL ENTRY(5);
      626    10915        %ENTRIES;
             10916    1   DCL VXE$ERROR       ENTRY(4);
             10917    1   DCL VXE$ERR         ENTRY(3);
             10918    1   DCL VXE$MERC        ENTRY;
             10919    1   DCL VXE$ERRMSG      ENTRY(3);
             10920    1   DCL VXR$READ        ENTRY( 3 );
             10921    1   DCL VXW$WRITE       ENTRY( 3 );
             10922    1   DCL VXW$WRITE_DO    ENTRY( 2 );
             10923    1   DCL VXD$B2C         ENTRY( 5 );
             10924    1   DCL VXD$C2B         ENTRY( 3 );
             10925    1   DCL VXA$GET         ENTRY( 3 );
             10926    1   DCL VXF$FREE        ENTRY( 3 );
             10927    1   DCL VXQ$SORT        ENTRY( 7 );
             10928    1   DCL VXY$YESNO       ENTRY( 1 );
      627    10930        %S;
             10931        %LSET LISTDIR='0'B;

             10938    1   /*******************************************************************************
             10939    1   *                                                                              *
             10940    1   *                          SBIN                                                 *
             10941    1   *                                                                              *
             10942    1   *******************************************************************************/
PL6.E3A0      #002=VXM$OVERLAY File=VXM$MAP.:E05TSI                              WED 07/30/97 08:21 Page:145

      628    10946    1   DCL       NODE_LEVEL_NUM      SBIN        AUTO;
      629    10947        %BANNER(ARG="VX$TREE_HEADER - VX$TREE_NODE");
             10948        %LSET LISTDIR='0'B;

             10955    1   /*******************************************************************************
             10956    1   *                                                                              *
             10957    1   *                          VX$TREE_HEADER - VX$TREE_NODE                           *
             10958    1   *                                                                              *
             10959    1   *******************************************************************************/

      630    10963        %B$TREE_TABLE(HDR_NAME=VX$TREE_HEADER, NODE_NAME=VX$TREE_NODE );
             10964    1   DCL 1 VX$TREE_HEADER BASED ALIGNED,
             10965              /*K*  HDR_NAME is the Tree table header.  */
             10966    1         2 NODES UBIN HALF UNAL,
             10967                /*K*  NODES is the number of nodes in the tree table.  */
             10968    1         2 SIZE UBIN HALF UNAL,
             10969                /*K*  SIZE is the total word size of the tree table
             10970                      (HDR + NODES + TEST pool).   */
             10971    1         2 LIB$ PTR,
             10972                /*K*  LIB$ is the pointer to the name of the shared library
             10973                      currently associated.  */
             10974    1         2 PRECSIZE UBIN HALF UNAL,
             10975                /*K*  PRECSIZE  is the maximum program record size in the
             10976                      Run Unit (from the Head record).  */
             10977    1         2 MAX_LIB_DATA UBIN HALF UNAL;
             10978                /*K*  MAX_LIB_DATA is the maximum reserved in the program
             10979                      image for the shared library data.  */
             10980    1   DCL 1 VX$TREE_NODE BASED ALIGNED,
             10981              /*K*  NODE_NAME is the node specification.  */
             10982    1         2 NAME$ PTR,
             10983                /*K*  NAME$ is the pointer to the name of the node.  */
             10984    1         2 FLGS,
             10985                /*K*  FLGS are control flags used by M$OLAY.  */
             10986    1           3 NOW_IN BIT(1) UNAL,
             10987                  /*K*  NOW_IN is set if this node is now in memory.  */
             10988    1           3 WAS_IN BIT(1) UNAL,
PL6.E3A0      #002=VXM$OVERLAY File=VXM$MAP.:E05TSI                              WED 07/30/97 08:21 Page:146
             10989                  /*K*  WAS_IN is set if this node was in memory.  */
             10990    1           3 * BIT(7) UNAL,
             10991                  /*K*  * is reserved for future use and must be zero.  */
             10992    1         2 AFLGS,
             10993                /*K*  AFLGS are access flags.  */
             10994    1           3 * BIT(6) UNAL,
             10995                  /*K*  * is reserved for future use and must be zero.  */
             10996    1           3 NOPATH BIT(1) UNAL,
             10997                  /*K*  NOPATH is set if this node is independently loaded
             10998                        (no backward path).  */
             10999    1           3 ENTER BIT(1) UNAL,
             11000                  /*K*  ENTER is set if ENTRY$ is valid.  */
             11001    1           3 CANCEL BIT(1) UNAL,
             11002                  /*K*  CANCEL is set if the overlay was removed by
             11003                        "CANCEL=YES".   */
             11004    1         2 BACK# SBIN HALF UNAL,
             11005                /*K*  BACK# is the backward link (parent).  */
             11006    1         2 FORWARD# SBIN HALF UNAL,
             11007                /*K*  FORWARD# is the forward link (daughter).  */
             11008    1         2 OVERLAY# SBIN HALF UNAL,
             11009                /*K*  OVERLAY# is the overlay link (same level).   */
             11010    1         2 PADDR UBIN HALF UNAL,
             11011                /*K*  PADDR is the address of procedure.  */
             11012    1         2 PSIZE UBIN HALF UNAL,
             11013                /*K*  PSIZE is the size of procedure.  */
             11014    1         2 DADDR UBIN HALF UNAL,
             11015                /*K*  DADDR is the address of data.  */
             11016    1         2 DSIZE UBIN HALF UNAL,
             11017                /*K*  DSIZE is the size of data.  */
             11018    1         2 ENTRY$ EPTR;
             11019                /*K*  ENTRY$ is the overlay entry point (see ENTER).  */
      631    11021        %BANNER(ARG=FPTS);
             11022        %LSET LISTDIR='0'B;

             11029    1   /*******************************************************************************
             11030    1   *                                                                              *
             11031    1   *                          FPTS                                                 *
PL6.E3A0      #002=VXM$OVERLAY File=VXM$MAP.:E05TSI                              WED 07/30/97 08:21 Page:147
             11032    1   *                                                                              *
             11033    1   *******************************************************************************/

      632    11037        %PLIST;
      633    11038        %FPT_WRITE( FPTN=VX_MAP_LO_FPT_WRITE, STCLASS=SYMREF);
      634    11069        %FPT_WRITE( FPTN=VX_MAP_LIT_LO_FPT_WRITE, STCLASS=SYMREF);
      635    11100        %EJECT;
PL6.E3A0      #002=VXM$OVERLAY File=VXM$MAP.:E05TSI                              WED 07/30/97 08:21 Page:148
      636    11101        /*
      637    11102              Variables for map(ping)
      638    11103        */
      639    11104    1   DCL VX_MAP$               PTR  ALIGNED   SYMREF;
      640    11105    1   DCL VX_MAP_ROS$           PTR  ALIGNED   SYMREF;
      641    11106    1   DCL VX_MAP_AREA$          PTR  ALIGNED   SYMREF;
      642    11107    1   DCL VX_MAP_TREE_START$    PTR  ALIGNED   SYMREF;
      643    11108    1   DCL VX_MAP_AREA_SIZE      UBIN(36) ALIGNED SYMREF;
      644    11109    1   DCL VX_MAP_NUM            SBIN WORD ALIGNED   SYMREF;
      645    11110    1   DCL VX_MAP_REC_SIZE_A(0:9)   UBIN(36)  ALIGNED   SYMREF;
      646    11111    1   DCL VX_CTAB               UBIN(36) ALIGNED SYMREF;
      647    11112    1   DCL VX_MAP_TABS_A(0:4)    UBIN(36)  ALIGNED   SYMREF;
      648    11113
      649    11114    1   DCL VX_MAP_WIDTH          UBIN(36)  ALIGNED   SYMREF;
      650    11115    1   DCL VX_MAP_WIDTH_HDR      UBIN(36)  ALIGNED   SYMREF;
      651    11116    1   DCL VX_MAX_CTAB           UBIN(36)  ALIGNED   SYMREF;
      652    11117    1   DCL 1 VX_MBUF ALIGNED SYMREF,
      653    11118    1         2 CHARS CHAR(132) UNAL,
      654    11119    1         2 CHARS_A(0:131) REDEF CHARS CHAR(1) UNAL,
      655    11120    1         2 LIT_BUF REDEF CHARS UNAL,
      656    11121    1           3 VFC CHAR(1) UNAL,
      657    11122    1           3 CHARS CHAR(131) UNAL;
      658    11123    1   DCL VX_HDR_FIELD1              UBIN(36)  ALIGNED   SYMREF;
      659    11124    1   DCL VX_HDR_FIELD2              UBIN(36)  ALIGNED   SYMREF;
      660    11125    1   DCL 1 VX_MAP_HDR0 ALIGNED SYMREF,
      661    11126    1         2 CHARS CHAR(132) UNAL,
      662    11127    1         2 CHARS_A(0:131) REDEF CHARS CHAR(1) UNAL,
      663    11128    1         2 LIT_BUF REDEF CHARS UNAL,
      664    11129    1           3 VFC CHAR(1) UNAL,
      665    11130    1           3 CHARS CHAR(131) UNAL;
      666    11131    1   DCL 1 VX_MAP_HDR ALIGNED SYMREF,
      667    11132    1         2 CHARS CHAR(132) UNAL,
      668    11133    1         2 CHARS_A(0:131) REDEF CHARS CHAR(1) UNAL,
      669    11134    1         2 LIT_BUF REDEF CHARS UNAL,
      670    11135    1           3 VFC CHAR(1) UNAL,
      671    11136    1           3 CHARS CHAR(131) UNAL;
      672    11137    1   DCL 1 VX_MAP_HDR1 ALIGNED SYMREF,
PL6.E3A0      #002=VXM$OVERLAY File=VXM$MAP.:E05TSI                              WED 07/30/97 08:21 Page:149
      673    11138    1         2 CHARS CHAR(132) UNAL,
      674    11139    1         2 CHARS_A(0:131) REDEF CHARS CHAR(1) UNAL,
      675    11140    1         2 LIT_BUF REDEF CHARS UNAL,
      676    11141    1           3 VFC CHAR(1) UNAL,
      677    11142    1           3 CHARS CHAR(131) UNAL;
      678    11143    1   DCL 1 VX_MAP_UTS_HDR ALIGNED SYMREF,
      679    11144    1         2 CHARS CHAR(132) UNAL,
      680    11145    1         2 CHARS_A(0:131) REDEF CHARS CHAR(1) UNAL,
      681    11146    1         2 LIT_BUF REDEF CHARS UNAL,
      682    11147    1           3 VFC CHAR(1) UNAL,
      683    11148    1           3 CHARS CHAR(131) UNAL;
      684    11149        %EJECT;
PL6.E3A0      #002=VXM$OVERLAY File=VXM$MAP.:E05TSI                              WED 07/30/97 08:21 Page:150
      685    11150        /*
      686    11151                          Write out headings
      687    11152        */
      688    11153    1         VX_MAP_LO_FPT_WRITE.BUF_.BOUND = VX_MAP_WIDTH_HDR;
      689    11154    1         VX_MAP_LO_FPT_WRITE.BUF_.BUF$ = ADDR( VX_MAP_HDR0 );
      690    11155    1         CALL INSERT( VX_MAP_HDR0.CHARS, VX_HDR_FIELD1+34, 20,
      691    11156    1                 'OVERLAY  SUMMARY' );
      692    11157    1         CALL M$WRITE( VX_MAP_LO_FPT_WRITE)           ALTRET(MAP_IO_ERROR);
      693    11158    1         VX_MAP_LO_FPT_WRITE.BUF_.BUF$ = ADDR( VX_MAP_HDR );
      694    11159    1         CALL M$WRITE( VX_MAP_LO_FPT_WRITE)           ALTRET(MAP_IO_ERROR);
      695    11160    1         VX_MAP_LO_FPT_WRITE.BUF_.BUF$ = ADDR( VX_MAP_UTS_HDR );
      696    11161    1         CALL M$WRITE( VX_MAP_LO_FPT_WRITE)           ALTRET(MAP_IO_ERROR);
      697    11162    1         VX_MAP_LO_FPT_WRITE.BUF_     =    VECTOR( VX_MBUF );
      698    11163    1         CURR$ = START$;
      699    11164        /*
      700    11165                                  Print out a summary for all the overlays
      701    11166        */
      702    11167    1         NODE_LEVEL_NUM = -1;
      703    11168    1         MORE_LEVELS = '1'B/*@TRUE_B*/;
      704    11169    2         DO WHILE ( MORE_LEVELS );
      705    11170    2             MORE_LEVELS = '0'B/*@FALSE_B*/;
      706    11171    2             NODE_LEVEL_NUM = NODE_LEVEL_NUM + 1;
      707    11172        /*
      708    11173                          Output a headings for the overlay summary
      709    11174        */
      710    11175    3             IF NODE_LEVEL_NUM = 0 THEN DO;
      711    11176                      %M_WRITE( BEFORE="VX_MBUF.CHARS='A';", CLEAR=" " );
      712    11185                      %WR_LIT( MES1=ROOT_NODE_LIT );
      713    11195    3                END;
      714    11196    3             ELSE DO;
      715    11197    3                 CALL VXD$B2C( DECIMAL, 0, 8, NODE_LEVEL_NUM, 10);
      716    11198    3                 CALL INDEX1R( I, ' ', DECIMAL);
      717    11199    3                 CALL CONCAT( VX_MBUF.CHARS, 'A******* LEVEL ', SUBSTR(DECIMAL, I),
      718    11200    3                         ' NODE(S) *******');
      719    11201                      %M_WRITE;
      720    11210    3                END;
      721    11211    3             DO I = 0 TO 2;
PL6.E3A0      #002=VXM$OVERLAY File=VXM$MAP.:E05TSI                              WED 07/30/97 08:21 Page:151
      722    11212                      %WR_LIT( MES1="SUMMARY_HEADING(I)" );
      723    11222    3                END;
      724    11223        /*
      725    11224                                  Print summary for nodes at next level
      726    11225        */
      727    11226    2             CALL VXM$LEVEL( START$, START$, NODE_LEVEL_NUM, 0, MORE_LEVELS );
      728    11227                  %WR_LIT( MES1=SKIP_THREE_LINES );
      729    11237    2            END;                           /* end do while (MORE_LEVELS) */
      730    11238    1         RETURN;
      731    11239
      732    11240
      733    11241
      734    11242    1   MAP_IO_ERROR:
      735    11243    1         CALL M$MERC                             ALTRET( MERC_ERROR );
      736    11244              %ERROR_IT;
      737    11247    1   MERC_ERROR:
      738    11248    1         CALL VXE$MERC;
      739    11249
      740    11250
      741    11251    1   END  VXM$OVERLAY;
      742    11252        %EOD;

PL6.E3A0      #002=VXM$OVERLAY File=VXM$MAP.:E05TSI                              WED 07/30/97 08:21 Page:152
--  Include file information  --

   F_DCB_D.:E05TOU  is referenced.
   VX_DCB_R.:E05TOU  cannot be made into a system file and is referenced.
   VX_DATA_R.:E05TOU  cannot be made into a system file and is referenced.
   VX_FIXED_R.:E05TOU  cannot be made into a system file and is referenced.
   XU_MACRO_C.:E05TOU  is referenced.
   CP_6.:E05TOU  cannot be made into a system file and is referenced.
   VX_MACRO_C.:E05TOU  is referenced.
   VX_PERR_C.:E05TOU  is referenced.
   VX_SUBS_C.:E05TOU  is referenced.
   VX_SWITCH_C.:E05TOU  is referenced.
   B$OBJECT_C.:E05TOU  is referenced.
   VX_INC_C.:E05TOU  is referenced.
   B$JIT_C.:E05TOU  was found in the system file and is never referenced.
   CP_6_C.:E05TOU  was found in the system file and is referenced.
      No diagnostics issued in procedure VXM$OVERLAY.

   Procedure VXM$OVERLAY requires 155 words for executable code.
   Procedure VXM$OVERLAY requires 24 words of local(AUTO) storage.

PL6.E3A0      #002=VXM$OVERLAY File=VXM$MAP.:E05TSI                              WED 07/30/97 08:21 Page:153

 Object Unit name= VXM$OVERLAY                                File name= VXM$MAP.:E05TOU
 UTS= JUL 30 '97 08:21:32.12 WED                              Compiler= PL-6/E31         Sev=      00
 SharedLib= :SHARED_SYSTEM                                    Alt SharedLib=


    ****  Control sections  ****

 Sect   Type Bound  Init  Size OctSiz  Section name(segment info)
    0   DCB   even  none     0      0  M$UC
    1  LblCom even  none    96    140  VX_CONST_DCB
    2   Data  even  none    69    105  VXM$OVERLAY
    3  RoData even  UTS     14     16  VXM$OVERLAY
    4   Proc  even  none   155    233  VXM$OVERLAY
    5  RoData even  none    20     24  VXM$OVERLAY

    ****  Entry defs  ****

                              Check   Calling
                             calling  sequence
  Sect OctLoc Primary Altret sequence   type   Parms  Name
     4      0   yes            yes      Std        1  VXM$OVERLAY

  ****  Entry refs  ****

         Check        Calling
        calling       sequence
Altret sequence SRef   type   Args  Name
         yes           Std       5 VXD$B2C
         yes           Std       5 VXM$LEVEL
         yes           Std       0 VXE$MERC
                       nStd      0 X66_AUTO_1
                       Std       0 B_CONSPOOL_D
                       nStd      0 X66_ARET
PL6.E3A0      #002=VXM$OVERLAY File=VXM$MAP.:E05TSI                              WED 07/30/97 08:21 Page:154

  ****  Data refs  ****

  Flags:  r = read only, s = secondary
Flgs Name                             Flgs Name                             Flgs Name
     M$UC                                  VX_OU_HEAD                            VX_ERRORS
     VX_MAP_LO_FPT_WRITE                   VX_MAP_LIT_LO_FPT_WRITE               VX_CTAB
     VX_MAP_WIDTH_HDR                      VX_MBUF                               VX_HDR_FIELD1
     VX_MAP_HDR0                           VX_MAP_HDR                            VX_MAP_UTS_HDR
     B_VECTNIL

  ****  Segment refs  ****

  Flags:  r = read only, s = secondary
Flgs Name                             Flgs Name                             Flgs Name
     NULLSID                               ISSID
PL6.E3A0      #002=VXM$OVERLAY File=VXM$MAP.:E05TSI                              WED 07/30/97 08:21 Page:155


      589        1        /*T***********************************************************/
      590        2        /*T*                                                         */
      591        3        /*T* Copyright (c) Bull HN Information Systems Inc., 1997    */
      592        4        /*T*                                                         */
      593        5        /*T***********************************************************/
      594        6        /*X* DMR,PLM=6,IND=4,CSU=2,EXM=0,ECU=2,MOC,DCI=4,CRT=4,CTI=8,CCC */
      595        7        VXM$OVERLAY:
      596        8              PROC ( START$ );

      8  4 000000   000000 700200 xent  VXM$OVERLAY  TSX0  ! X66_AUTO_1
         4 000001   000030 000001                    ZERO    24,1

      597        9
      598       10        %INCLUDE VX_INC_C;
      599    10726        %VX$WORD;

             10738    1   /*******************************************************************************
             10739    1   *                                                                              *
             10740    1   *                          VX$WORD                                                *
             10741    1   *                                                                              *
             10742    1   *******************************************************************************/

             10747    1   DCL VX$WORD_A(0:0)       UBIN(36) ALIGNED    BASED PTR;
             10748    1   DCL VX$HALF_A(0:0)       UBIN(18) HALIGNED   BASED PTR;
             10749    1   DCL VX$BYTE_A(0:0)       UBIN( 9) CALIGNED   BASED PTR;
             10750    1   DCL VX$CHAR_A(0:0)       CHAR( 1) UNAL       BASED PTR;
             10751        /**/
             10752    1   DCL VX$WORD_SBIN_A(0:0)  SBIN WORD ALIGNED   BASED     PTR;
             10753    1   DCL VX$HALF_SBIN_A(0:0)  SBIN HALF HALIGNED  BASED     PTR;
             10754    1   DCL VX$BYTE_SBIN_A(0:0)  SBIN HALF CALIGNED  BASED     PTR;
             10755    1   DCL VX$BIT_A(0:0)        BIT(36)   ALIGNED   BASED     PTR;
      600    10758        %T$C;

             10770    1   /*******************************************************************************
             10771    1   *                                                                              *
             10772    1   *                          T$C                                                 *
PL6.E3A0      #002=VXM$OVERLAY File=VXM$MAP.:E05TSI                              WED 07/30/97 08:21 Page:156
             10773    1   *                                                                              *
             10774    1   *******************************************************************************/

             10779    1   DCL 1 T$C           BASED     ALIGNED,  /* Text count                         */
             10780    1         2 COUNT        UBIN( 9) UNAL,
             10781    1         2 CHARS        CHAR( T$C.COUNT )   UNAL;
             10782    1   DCL 1 T$C_UNAL      BASED     UNAL,     /* Text count                         */
             10783    1         2 COUNT        UBIN( 9) UNAL,
             10784    1         2 CHARS        CHAR( T$C_UNAL.COUNT ) UNAL;
      601    10787        %SET  LISTMAC='1'B;
      602    10788        %SET  LISTSUB='1'B;
      603    10789        %SET  LISTEXP='1'B;
      604    10790        %P;
             10791        %LSET LISTDIR='0'B;

             10798    1   /*******************************************************************************
             10799    1   *                                                                              *
             10800    1   *                          PARAMETERS                                             *
             10801    1   *                                                                              *
             10802    1   *******************************************************************************/

      605    10806    1   DCL   START$      PTR;                  /* Pointer to start of tree table */
      606    10807        %C;
             10808        %LSET LISTDIR='0'B;

             10815    1   /*******************************************************************************
             10816    1   *                                                                              *
             10817    1   *                          CHAR                                                 *
             10818    1   *                                                                              *
             10819    1   *******************************************************************************/

      607    10823    1   DCL  ROOT_NODE_LIT    CHAR(0)  STATIC  INIT(
      608    10824    1   'A******* ROOT NODE *******' );
      609    10825    1   DCL  SUMMARY_HEADING (0:2)    CHAR(81) STATIC  INIT(
      610    10826    1   'A                                 TOTAL   DATA   DATA   DATA   PROC   PROC  PROC',
      611    10827    1   'ANODE              <PARENT NODE>   SIZE    LOW   HIGH   SIZE    LOW   HIGH  SIZE',
      612    10828    1  'A------------------------------- ------ ------ ------ ------ ------ ------ ------')
PL6.E3A0      #002=VXM$OVERLAY File=VXM$MAP.:E05TSI                              WED 07/30/97 08:21 Page:157
             10828            ;
      613    10829    1   DCL   DECIMAL   CHAR(8)    AUTO;
      614    10830    1   DCL   SKIP_THREE_LINES    CHAR(2)     CONSTANT    INIT ( 'C ' );
      615    10831        %PTR;
             10832        %LSET LISTDIR='0'B;

             10839    1   /*******************************************************************************
             10840    1   *                                                                              *
             10841    1   *                          PTR                                                 *
             10842    1   *                                                                              *
             10843    1   *******************************************************************************/

      616    10847        %POINTER;
             10848    1   DCL P$         PTR       ALIGNED AUTO;
             10849    1   DCL Q$         PTR       ALIGNED AUTO;
             10850    1   DCL R$         PTR       ALIGNED AUTO;
      617    10852    1   DCL   CURR$       PTR     AUTO;
      618    10853    1   DCL   PARENT$     PTR     AUTO;
      619    10854        %B;
             10855        %LSET LISTDIR='0'B;

             10862    1   /*******************************************************************************
             10863    1   *                                                                              *
             10864    1   *                          BIT                                                 *
             10865    1   *                                                                              *
             10866    1   *******************************************************************************/

      620    10870    1   DCL MORE_LEVELS  BIT(1)   STATIC;
      621    10871        %U;
             10872        %LSET LISTDIR='0'B;

             10879    1   /*******************************************************************************
             10880    1   *                                                                              *
             10881    1   *                          UBIN                                                 *
             10882    1   *                                                                              *
             10883    1   *******************************************************************************/

PL6.E3A0      #002=VXM$OVERLAY File=VXM$MAP.:E05TSI                              WED 07/30/97 08:21 Page:158
      622    10887        %INDEX;
             10888    1   DCL I          UBIN(36) ALIGNED AUTO;
             10889    1   DCL SI REDEF I SBIN WORD ALIGNED;
             10890    1   DCL J          UBIN(36) ALIGNED AUTO;
             10891    1   DCL SJ REDEF J SBIN WORD ALIGNED;
             10892    1   DCL K          UBIN(36) ALIGNED AUTO;
             10893    1   DCL SK REDEF K SBIN WORD ALIGNED;
             10894    1   DCL L          UBIN(36) ALIGNED AUTO;
             10895    1   DCL SL REDEF L    SBIN WORD ALIGNED;
      623    10897    1   DCL       SIZE        UBIN        AUTO;
      624    10898        %E;
             10899        %LSET LISTDIR='0'B;

             10906    1   /*******************************************************************************
             10907    1   *                                                                              *
             10908    1   *                          ENTRY                                                 *
             10909    1   *                                                                              *
             10910    1   *******************************************************************************/

      625    10914    1   DCL VXM$LEVEL ENTRY(5);
      626    10915        %ENTRIES;
             10916    1   DCL VXE$ERROR       ENTRY(4);
             10917    1   DCL VXE$ERR         ENTRY(3);
             10918    1   DCL VXE$MERC        ENTRY;
             10919    1   DCL VXE$ERRMSG      ENTRY(3);
             10920    1   DCL VXR$READ        ENTRY( 3 );
             10921    1   DCL VXW$WRITE       ENTRY( 3 );
             10922    1   DCL VXW$WRITE_DO    ENTRY( 2 );
             10923    1   DCL VXD$B2C         ENTRY( 5 );
             10924    1   DCL VXD$C2B         ENTRY( 3 );
             10925    1   DCL VXA$GET         ENTRY( 3 );
             10926    1   DCL VXF$FREE        ENTRY( 3 );
             10927    1   DCL VXQ$SORT        ENTRY( 7 );
             10928    1   DCL VXY$YESNO       ENTRY( 1 );
      627    10930        %S;
             10931        %LSET LISTDIR='0'B;

PL6.E3A0      #002=VXM$OVERLAY File=VXM$MAP.:E05TSI                              WED 07/30/97 08:21 Page:159
             10938    1   /*******************************************************************************
             10939    1   *                                                                              *
             10940    1   *                          SBIN                                                 *
             10941    1   *                                                                              *
             10942    1   *******************************************************************************/

      628    10946    1   DCL       NODE_LEVEL_NUM      SBIN        AUTO;
      629    10947        %BANNER(ARG="VX$TREE_HEADER - VX$TREE_NODE");
             10948        %LSET LISTDIR='0'B;

             10955    1   /*******************************************************************************
             10956    1   *                                                                              *
             10957    1   *                          VX$TREE_HEADER - VX$TREE_NODE                          *
             10958    1   *                                                                              *
             10959    1   *******************************************************************************/

      630    10963        %B$TREE_TABLE(HDR_NAME=VX$TREE_HEADER, NODE_NAME=VX$TREE_NODE );
             10964    1   DCL 1 VX$TREE_HEADER BASED ALIGNED,
             10965              /*K*  HDR_NAME is the Tree table header.  */
             10966    1         2 NODES UBIN HALF UNAL,
             10967                /*K*  NODES is the number of nodes in the tree table.  */
             10968    1         2 SIZE UBIN HALF UNAL,
             10969                /*K*  SIZE is the total word size of the tree table
             10970                      (HDR + NODES + TEST pool).   */
             10971    1         2 LIB$ PTR,
             10972                /*K*  LIB$ is the pointer to the name of the shared library
             10973                      currently associated.  */
             10974    1         2 PRECSIZE UBIN HALF UNAL,
             10975                /*K*  PRECSIZE  is the maximum program record size in the
             10976                      Run Unit (from the Head record).  */
             10977    1         2 MAX_LIB_DATA UBIN HALF UNAL;
             10978                /*K*  MAX_LIB_DATA is the maximum reserved in the program
             10979                      image for the shared library data.  */
             10980    1   DCL 1 VX$TREE_NODE BASED ALIGNED,
             10981              /*K*  NODE_NAME is the node specification.  */
             10982    1         2 NAME$ PTR,
             10983                /*K*  NAME$ is the pointer to the name of the node.  */
PL6.E3A0      #002=VXM$OVERLAY File=VXM$MAP.:E05TSI                              WED 07/30/97 08:21 Page:160
             10984    1         2 FLGS,
             10985                /*K*  FLGS are control flags used by M$OLAY.  */
             10986    1           3 NOW_IN BIT(1) UNAL,
             10987                  /*K*  NOW_IN is set if this node is now in memory.  */
             10988    1           3 WAS_IN BIT(1) UNAL,
             10989                  /*K*  WAS_IN is set if this node was in memory.  */
             10990    1           3 * BIT(7) UNAL,
             10991                  /*K*  * is reserved for future use and must be zero.  */
             10992    1         2 AFLGS,
             10993                /*K*  AFLGS are access flags.  */
             10994    1           3 * BIT(6) UNAL,
             10995                  /*K*  * is reserved for future use and must be zero.  */
             10996    1           3 NOPATH BIT(1) UNAL,
             10997                  /*K*  NOPATH is set if this node is independently loaded
             10998                        (no backward path).  */
             10999    1           3 ENTER BIT(1) UNAL,
             11000                  /*K*  ENTER is set if ENTRY$ is valid.  */
             11001    1           3 CANCEL BIT(1) UNAL,
             11002                  /*K*  CANCEL is set if the overlay was removed by
             11003                        "CANCEL=YES".   */
             11004    1         2 BACK# SBIN HALF UNAL,
             11005                /*K*  BACK# is the backward link (parent).  */
             11006    1         2 FORWARD# SBIN HALF UNAL,
             11007                /*K*  FORWARD# is the forward link (daughter).  */
             11008    1         2 OVERLAY# SBIN HALF UNAL,
             11009                /*K*  OVERLAY# is the overlay link (same level).   */
             11010    1         2 PADDR UBIN HALF UNAL,
             11011                /*K*  PADDR is the address of procedure.  */
             11012    1         2 PSIZE UBIN HALF UNAL,
             11013                /*K*  PSIZE is the size of procedure.  */
             11014    1         2 DADDR UBIN HALF UNAL,
             11015                /*K*  DADDR is the address of data.  */
             11016    1         2 DSIZE UBIN HALF UNAL,
             11017                /*K*  DSIZE is the size of data.  */
             11018    1         2 ENTRY$ EPTR;
             11019                /*K*  ENTRY$ is the overlay entry point (see ENTER).  */
      631    11021        %BANNER(ARG=FPTS);
PL6.E3A0      #002=VXM$OVERLAY File=VXM$MAP.:E05TSI                              WED 07/30/97 08:21 Page:161
             11022        %LSET LISTDIR='0'B;

             11029    1   /*******************************************************************************
             11030    1   *                                                                              *
             11031    1   *                          FPTS                                                 *
             11032    1   *                                                                              *
             11033    1   *******************************************************************************/

      632    11037        %PLIST;
      633    11038        %FPT_WRITE( FPTN=VX_MAP_LO_FPT_WRITE, STCLASS=SYMREF);
      634    11069        %FPT_WRITE( FPTN=VX_MAP_LIT_LO_FPT_WRITE, STCLASS=SYMREF);
      635    11100        %EJECT;
PL6.E3A0      #002=VXM$OVERLAY File=VXM$MAP.:E05TSI                              WED 07/30/97 08:21 Page:162
      636    11101        /*
      637    11102              Variables for map(ping)
      638    11103        */
      639    11104    1   DCL VX_MAP$               PTR  ALIGNED   SYMREF;
      640    11105    1   DCL VX_MAP_ROS$           PTR  ALIGNED   SYMREF;
      641    11106    1   DCL VX_MAP_AREA$          PTR  ALIGNED   SYMREF;
      642    11107    1   DCL VX_MAP_TREE_START$    PTR  ALIGNED   SYMREF;
      643    11108    1   DCL VX_MAP_AREA_SIZE      UBIN(36) ALIGNED SYMREF;
      644    11109    1   DCL VX_MAP_NUM            SBIN WORD ALIGNED   SYMREF;
      645    11110    1   DCL VX_MAP_REC_SIZE_A(0:9)   UBIN(36)  ALIGNED   SYMREF;
      646    11111    1   DCL VX_CTAB               UBIN(36) ALIGNED SYMREF;
      647    11112    1   DCL VX_MAP_TABS_A(0:4)    UBIN(36)  ALIGNED   SYMREF;
      648    11113
      649    11114    1   DCL VX_MAP_WIDTH          UBIN(36)  ALIGNED   SYMREF;
      650    11115    1   DCL VX_MAP_WIDTH_HDR      UBIN(36)  ALIGNED   SYMREF;
      651    11116    1   DCL VX_MAX_CTAB           UBIN(36)  ALIGNED   SYMREF;
      652    11117    1   DCL 1 VX_MBUF ALIGNED SYMREF,
      653    11118    1         2 CHARS CHAR(132) UNAL,
      654    11119    1         2 CHARS_A(0:131) REDEF CHARS CHAR(1) UNAL,
      655    11120    1         2 LIT_BUF REDEF CHARS UNAL,
      656    11121    1           3 VFC CHAR(1) UNAL,
      657    11122    1           3 CHARS CHAR(131) UNAL;
      658    11123    1   DCL VX_HDR_FIELD1              UBIN(36)  ALIGNED   SYMREF;
      659    11124    1   DCL VX_HDR_FIELD2              UBIN(36)  ALIGNED   SYMREF;
      660    11125    1   DCL 1 VX_MAP_HDR0 ALIGNED SYMREF,
      661    11126    1         2 CHARS CHAR(132) UNAL,
      662    11127    1         2 CHARS_A(0:131) REDEF CHARS CHAR(1) UNAL,
      663    11128    1         2 LIT_BUF REDEF CHARS UNAL,
      664    11129    1           3 VFC CHAR(1) UNAL,
      665    11130    1           3 CHARS CHAR(131) UNAL;
      666    11131    1   DCL 1 VX_MAP_HDR ALIGNED SYMREF,
      667    11132    1         2 CHARS CHAR(132) UNAL,
      668    11133    1         2 CHARS_A(0:131) REDEF CHARS CHAR(1) UNAL,
      669    11134    1         2 LIT_BUF REDEF CHARS UNAL,
      670    11135    1           3 VFC CHAR(1) UNAL,
      671    11136    1           3 CHARS CHAR(131) UNAL;
      672    11137    1   DCL 1 VX_MAP_HDR1 ALIGNED SYMREF,
PL6.E3A0      #002=VXM$OVERLAY File=VXM$MAP.:E05TSI                              WED 07/30/97 08:21 Page:163
      673    11138    1         2 CHARS CHAR(132) UNAL,
      674    11139    1         2 CHARS_A(0:131) REDEF CHARS CHAR(1) UNAL,
      675    11140    1         2 LIT_BUF REDEF CHARS UNAL,
      676    11141    1           3 VFC CHAR(1) UNAL,
      677    11142    1           3 CHARS CHAR(131) UNAL;
      678    11143    1   DCL 1 VX_MAP_UTS_HDR ALIGNED SYMREF,
      679    11144    1         2 CHARS CHAR(132) UNAL,
      680    11145    1         2 CHARS_A(0:131) REDEF CHARS CHAR(1) UNAL,
      681    11146    1         2 LIT_BUF REDEF CHARS UNAL,
      682    11147    1           3 VFC CHAR(1) UNAL,
      683    11148    1           3 CHARS CHAR(131) UNAL;
      684    11149        %EJECT;
PL6.E3A0      #002=VXM$OVERLAY File=VXM$MAP.:E05TSI                              WED 07/30/97 08:21 Page:164
      685    11150        /*
      686    11151                          Write out headings
      687    11152        */
      688    11153    1         VX_MAP_LO_FPT_WRITE.BUF_.BOUND = VX_MAP_WIDTH_HDR;

  11153  4 000002   000000 236000 xsym               LDQ     VX_MAP_WIDTH_HDR
         4 000003   000020 736000                    QLS     16
         4 000004   000004 676000 xsym               ERQ     VX_MAP_LO_FPT_WRITE+4
         4 000005   000034 376000 xsym               ANQ     B_VECTNIL+28
         4 000006   000004 656000 xsym               ERSQ    VX_MAP_LO_FPT_WRITE+4

      689    11154    1         VX_MAP_LO_FPT_WRITE.BUF_.BUF$ = ADDR( VX_MAP_HDR0 );

  11154  4 000007   000000 236000 5                  LDQ     0
         4 000010   000005 756000 xsym               STQ     VX_MAP_LO_FPT_WRITE+5

      690    11155    1         CALL INSERT( VX_MAP_HDR0.CHARS, VX_HDR_FIELD1+34, 20,

  11155  4 000011   000000 235000 xsym               LDA     VX_HDR_FIELD1
         4 000012   040005 100400                    MLR     fill='040'O
         4 000013   000001 000020 3                  ADSC9   SKIP_THREE_LINES+1       cn=0,n=16
         4 000014   000010 400024 xsym               ADSC9   VX_MAP_HDR0+8,A          cn=2,n=20

      691    11156    1                 'OVERLAY  SUMMARY' );
      692    11157    1         CALL M$WRITE( VX_MAP_LO_FPT_WRITE)           ALTRET(MAP_IO_ERROR);

  11157  4 000015   000000 630400 xsym               EPPR0   VX_MAP_LO_FPT_WRITE
         4 000016   440001 713400                    CLIMB   alt,write
         4 000017   401400 401760                    pmme    nvectors=4
         4 000020   000222 702000 4                  TSX2    MAP_IO_ERROR

      693    11158    1         VX_MAP_LO_FPT_WRITE.BUF_.BUF$ = ADDR( VX_MAP_HDR );

  11158  4 000021   000001 236000 5                  LDQ     1
         4 000022   000005 756000 xsym               STQ     VX_MAP_LO_FPT_WRITE+5

      694    11159    1         CALL M$WRITE( VX_MAP_LO_FPT_WRITE)           ALTRET(MAP_IO_ERROR);
PL6.E3A0      #002=VXM$OVERLAY File=VXM$MAP.:E05TSI                              WED 07/30/97 08:21 Page:165

  11159  4 000023   000000 630400 xsym               EPPR0   VX_MAP_LO_FPT_WRITE
         4 000024   440001 713400                    CLIMB   alt,write
         4 000025   401400 401760                    pmme    nvectors=4
         4 000026   000222 702000 4                  TSX2    MAP_IO_ERROR

      695    11160    1         VX_MAP_LO_FPT_WRITE.BUF_.BUF$ = ADDR( VX_MAP_UTS_HDR );

  11160  4 000027   000002 236000 5                  LDQ     2
         4 000030   000005 756000 xsym               STQ     VX_MAP_LO_FPT_WRITE+5

      696    11161    1         CALL M$WRITE( VX_MAP_LO_FPT_WRITE)           ALTRET(MAP_IO_ERROR);

  11161  4 000031   000000 630400 xsym               EPPR0   VX_MAP_LO_FPT_WRITE
         4 000032   440001 713400                    CLIMB   alt,write
         4 000033   401400 401760                    pmme    nvectors=4
         4 000034   000222 702000 4                  TSX2    MAP_IO_ERROR

      697    11162    1         VX_MAP_LO_FPT_WRITE.BUF_     =    VECTOR( VX_MBUF );

  11162  4 000035   000004 237000 5                  LDAQ    4
         4 000036   000004 757000 xsym               STAQ    VX_MAP_LO_FPT_WRITE+4

      698    11163    1         CURR$ = START$;

  11163  4 000037   200003 470500                    LDP0    @START$,,AUTO
         4 000040   000000 236100                    LDQ     0,,PR0
         4 000041   200011 756100                    STQ     CURR$,,AUTO

      699    11164        /*
      700    11165                                  Print out a summary for all the overlays
      701    11166        */
      702    11167    1         NODE_LEVEL_NUM = -1;

  11167  4 000042   000001 335007                    LCA     1,DL
         4 000043   200020 755100                    STA     NODE_LEVEL_NUM,,AUTO

PL6.E3A0      #002=VXM$OVERLAY File=VXM$MAP.:E05TSI                              WED 07/30/97 08:21 Page:166
      703    11168    1         MORE_LEVELS = '1'B/*@TRUE_B*/;

  11168  4 000044   400000 236003                    LDQ     -131072,DU
         4 000045   000104 756000 2                  STQ     MORE_LEVELS

      704    11169    2         DO WHILE ( MORE_LEVELS );

  11169  4 000046   000104 234000 2                  SZN     MORE_LEVELS
         4 000047   000221 605000 4                  TPL     s:11238

      705    11170    2             MORE_LEVELS = '0'B/*@FALSE_B*/;

  11170  4 000050   000104 450000 2                  STZ     MORE_LEVELS

      706    11171    2             NODE_LEVEL_NUM = NODE_LEVEL_NUM + 1;

  11171  4 000051   200020 054100                    AOS     NODE_LEVEL_NUM,,AUTO

      707    11172        /*
      708    11173                          Output a headings for the overlay summary
      709    11174        */
      710    11175    3             IF NODE_LEVEL_NUM = 0 THEN DO;

  11175  4 000052   000072 601000 4                  TNZ     s:11197

      711    11176                      %M_WRITE( BEFORE="VX_MBUF.CHARS='A';", CLEAR=" " );

  11177  4 000053   040000 100400                    MLR     fill='040'O
         4 000054   000006 000001 5                  ADSC9   6                        cn=0,n=1
         4 000055   000000 000204 xsym               ADSC9   VX_MBUF                  cn=0,n=132

  11178  4 000056   000000 630400 xsym               EPPR0   VX_MAP_LO_FPT_WRITE
         4 000057   440001 713400                    CLIMB   alt,write
         4 000060   401400 401760                    pmme    nvectors=4
         4 000061   000222 702000 4                  TSX2    MAP_IO_ERROR

  11183  4 000062   000000 450000 xsym               STZ     VX_CTAB
PL6.E3A0      #002=VXM$OVERLAY File=VXM$MAP.:E05TSI                              WED 07/30/97 08:21 Page:167

      712    11185                      %WR_LIT( MES1=ROOT_NODE_LIT );

  11186  4 000063   000010 237000 5                  LDAQ    8
         4 000064   000004 757000 xsym               STAQ    VX_MAP_LIT_LO_FPT_WRITE+4

  11187  4 000065   000000 630400 xsym               EPPR0   VX_MAP_LIT_LO_FPT_WRITE
         4 000066   440001 713400                    CLIMB   alt,write
         4 000067   401400 401760                    pmme    nvectors=4
         4 000070   000222 702000 4                  TSX2    MAP_IO_ERROR

      713    11195    3                END;

  11195  4 000071   000153 710000 4                  TRA     s:11211

      714    11196    3             ELSE DO;

      715    11197    3                 CALL VXD$B2C( DECIMAL, 0, 8, NODE_LEVEL_NUM, 10);

  11197  4 000072   000007 236000 5                  LDQ     7
         4 000073   200026 756100                    STQ     NODE_LEVEL_NUM+6,,AUTO
         4 000074   200020 630500                    EPPR0   NODE_LEVEL_NUM,,AUTO
         4 000075   200025 450500                    STP0    NODE_LEVEL_NUM+5,,AUTO
         4 000076   000012 236000 5                  LDQ     10
         4 000077   200024 756100                    STQ     NODE_LEVEL_NUM+4,,AUTO
         4 000100   000013 236000 5                  LDQ     11
         4 000101   200023 756100                    STQ     NODE_LEVEL_NUM+3,,AUTO
         4 000102   200004 631500                    EPPR1   DECIMAL,,AUTO
         4 000103   200022 451500                    STP1    NODE_LEVEL_NUM+2,,AUTO
         4 000104   200022 630500                    EPPR0   NODE_LEVEL_NUM+2,,AUTO
         4 000105   000023 631400 xsym               EPPR1   B_VECTNIL+19
         4 000106   000000 701000 xent               TSX1    VXD$B2C
         4 000107   000000 011000                    NOP     0

      716    11198    3                 CALL INDEX1R( I, ' ', DECIMAL);

  11198  4 000110   000000 125500                    SCMR    mask='000'O
PL6.E3A0      #002=VXM$OVERLAY File=VXM$MAP.:E05TSI                              WED 07/30/97 08:21 Page:168
         4 000111   200004 000010                    ADSC9   DECIMAL,,AUTO            cn=0,n=8
         4 000112   000035 000001 xsym               ADSC9   B_VECTNIL+29             cn=0,n=1
         4 000113   200013 000100                    ARG     I,,AUTO
         4 000114   000117 606400 4                  TTN     s:11199
         4 000115   000007 236007                    LDQ     7,DL
         4 000116   200013 156100                    SSQ     I,,AUTO

      717    11199    3                 CALL CONCAT( VX_MBUF.CHARS, 'A******* LEVEL ', SUBSTR(DECIMAL, I),

  11199  4 000117   040000 100400                    MLR     fill='040'O
         4 000120   000005 000017 3                  ADSC9   SKIP_THREE_LINES+5       cn=0,n=15
         4 000121   000000 000017 xsym               ADSC9   VX_MBUF                  cn=0,n=15
         4 000122   200013 720100                    LXL0    I,,AUTO
         4 000123   777767 620010                    EAX0    -9,X0
         4 000124   777777 660003                    ERX0    -1,DU
         4 000125   200013 235100                    LDA     I,,AUTO
         4 000126   040000 100545                    MLR     fill='040'O
         4 000127   200004 000010                    ADSC9   DECIMAL,A,AUTO           cn=0,n=*X0
         4 000130   000003 600165 xsym               ADSC9   VX_MBUF+3                cn=3,n=117
         4 000131   200013 236100                    LDQ     I,,AUTO
         4 000132   000135 604000 4                  TMI     s:11199+14
         4 000133   000014 116000 5                  CMPQ    12
         4 000134   000143 604000 4                  TMI     s:11203
         4 000135   000155 621006                    EAX1    109,QL
         4 000136   000027 675000 xsym               ERA     B_VECTNIL+23
         4 000137   000001 035007                    ADLA    1,DL
         4 000140   040045 100400                    MLR     fill='040'O
         4 000141   000011 000020 3                  ADSC9   SKIP_THREE_LINES+9       cn=0,n=16
         4 000142   000005 600011 xsym               ADSC9   VX_MBUF+5,A              cn=3,n=*X1

      718    11200    3                         ' NODE(S) *******');
      719    11201                      %M_WRITE;

  11203  4 000143   000000 630400 xsym               EPPR0   VX_MAP_LO_FPT_WRITE
         4 000144   440001 713400                    CLIMB   alt,write
         4 000145   401400 401760                    pmme    nvectors=4
         4 000146   000222 702000 4                  TSX2    MAP_IO_ERROR
PL6.E3A0      #002=VXM$OVERLAY File=VXM$MAP.:E05TSI                              WED 07/30/97 08:21 Page:169

  11207  4 000147   040000 100400                    MLR     fill='040'O
         4 000150   000015 000002 3                  ADSC9   SKIP_THREE_LINES+13      cn=0,n=2
         4 000151   000000 000204 xsym               ADSC9   VX_MBUF                  cn=0,n=132

  11208  4 000152   000000 450000 xsym               STZ     VX_CTAB

      720    11210    3                END;

      721    11211    3             DO I = 0 TO 2;

  11211  4 000153   200013 450100                    STZ     I,,AUTO

      722    11212                      %WR_LIT( MES1="SUMMARY_HEADING(I)" );

  11213  4 000154   000015 235000 5                  LDA     13
         4 000155   200013 236100                    LDQ     I,,AUTO
         4 000156   200022 755100                    STA     NODE_LEVEL_NUM+2,,AUTO
         4 000157   000017 402000 5                  MPY     15
         4 000160   000016 036000 5                  ADLQ    14
         4 000161   200022 235100                    LDA     NODE_LEVEL_NUM+2,,AUTO
         4 000162   000004 757000 xsym               STAQ    VX_MAP_LIT_LO_FPT_WRITE+4

  11214  4 000163   000000 630400 xsym               EPPR0   VX_MAP_LIT_LO_FPT_WRITE
         4 000164   440001 713400                    CLIMB   alt,write
         4 000165   401400 401760                    pmme    nvectors=4
         4 000166   000222 702000 4                  TSX2    MAP_IO_ERROR

      723    11222    3                END;

  11222  4 000167   200013 235100                    LDA     I,,AUTO
         4 000170   000001 035007                    ADLA    1,DL
         4 000171   200013 755100                    STA     I,,AUTO
         4 000172   000003 115007                    CMPA    3,DL
         4 000173   000154 602000 4                  TNC     s:11213

      724    11223        /*
PL6.E3A0      #002=VXM$OVERLAY File=VXM$MAP.:E05TSI                              WED 07/30/97 08:21 Page:170
      725    11224                                  Print summary for nodes at next level
      726    11225        */
      727    11226    2             CALL VXM$LEVEL( START$, START$, NODE_LEVEL_NUM, 0, MORE_LEVELS );

  11226  4 000174   000020 236000 5                  LDQ     16
         4 000175   200026 756100                    STQ     NODE_LEVEL_NUM+6,,AUTO
         4 000176   000013 236000 5                  LDQ     11
         4 000177   200025 756100                    STQ     NODE_LEVEL_NUM+5,,AUTO
         4 000200   200020 630500                    EPPR0   NODE_LEVEL_NUM,,AUTO
         4 000201   200024 450500                    STP0    NODE_LEVEL_NUM+4,,AUTO
         4 000202   200003 236100                    LDQ     @START$,,AUTO
         4 000203   200003 235100                    LDA     @START$,,AUTO
         4 000204   200022 757100                    STAQ    NODE_LEVEL_NUM+2,,AUTO
         4 000205   200022 630500                    EPPR0   NODE_LEVEL_NUM+2,,AUTO
         4 000206   000023 631400 xsym               EPPR1   B_VECTNIL+19
         4 000207   000000 701000 xent               TSX1    VXM$LEVEL
         4 000210   000000 011000                    NOP     0

      728    11227                  %WR_LIT( MES1=SKIP_THREE_LINES );

  11228  4 000211   000022 237000 5                  LDAQ    18
         4 000212   000004 757000 xsym               STAQ    VX_MAP_LIT_LO_FPT_WRITE+4

  11229  4 000213   000000 630400 xsym               EPPR0   VX_MAP_LIT_LO_FPT_WRITE
         4 000214   440001 713400                    CLIMB   alt,write
         4 000215   401400 401760                    pmme    nvectors=4
         4 000216   000222 702000 4                  TSX2    MAP_IO_ERROR

      729    11237    2            END;                           /* end do while (MORE_LEVELS) */

  11237  4 000217   000104 234000 2                  SZN     MORE_LEVELS
         4 000220   000050 604000 4                  TMI     s:11170

      730    11238    1         RETURN;

  11238  4 000221   000000 702200 xent               TSX2  ! X66_ARET

PL6.E3A0      #002=VXM$OVERLAY File=VXM$MAP.:E05TSI                              WED 07/30/97 08:21 Page:171
      731    11239
      732    11240
      733    11241
      734    11242    1   MAP_IO_ERROR:
      735    11243    1         CALL M$MERC                             ALTRET( MERC_ERROR );

  11243  4 000222   410007 713400       MAP_IO_ERROR CLIMB   alt,+4103
         4 000223   000000 401760                    pmme    nvectors=0
         4 000224   000227 702000 4                  TSX2    MERC_ERROR

      736    11244              %ERROR_IT;

  11245  4 000225   000002 713400                    CLIMB   err
         4 000226   000000 401760                    pmme    nvectors=0

      737    11247    1   MERC_ERROR:
      738    11248    1         CALL VXE$MERC;

  11248  4 000227   000002 631400 xsym  MERC_ERROR   EPPR1   B_VECTNIL+2
         4 000230   000000 701000 xent               TSX1    VXE$MERC
         4 000231   000000 011000                    NOP     0

      739    11249
      740    11250
      741    11251    1   END  VXM$OVERLAY;

  11251  4 000232   000000 702200 xent               TSX2  ! X66_ARET
      742    11252        %EOD;

PL6.E3A0      #002=VXM$OVERLAY File=VXM$MAP.:E05TSI                              WED 07/30/97 08:21 Page:172
--  Include file information  --

   F_DCB_D.:E05TOU  is referenced.
   VX_DCB_R.:E05TOU  cannot be made into a system file and is referenced.
   VX_DATA_R.:E05TOU  cannot be made into a system file and is referenced.
   VX_FIXED_R.:E05TOU  cannot be made into a system file and is referenced.
   XU_MACRO_C.:E05TOU  is referenced.
   CP_6.:E05TOU  cannot be made into a system file and is referenced.
   VX_MACRO_C.:E05TOU  is referenced.
   VX_PERR_C.:E05TOU  is referenced.
   VX_SUBS_C.:E05TOU  is referenced.
   VX_SWITCH_C.:E05TOU  is referenced.
   B$OBJECT_C.:E05TOU  is referenced.
   VX_INC_C.:E05TOU  is referenced.
   B$JIT_C.:E05TOU  was found in the system file and is never referenced.
   CP_6_C.:E05TOU  was found in the system file and is referenced.
      No diagnostics issued in procedure VXM$OVERLAY.
PL6.E3A0      #002=VXM$OVERLAY File=VXM$MAP.:E05TSI                              WED 07/30/97 08:21 Page:173

 **** Variables and constants ****

  ****  Section 002  Data  VXM$OVERLAY

  ****  Scalars and arrays  ****
OctLoc.c.b A Datatyp(siz) R M Lvl/name                 OctLoc.c.b A Datatyp(siz) R M Lvl/name

   104-0-0/b BIT         r     1 MORE_LEVELS                0-0-0/c CHAR(26)    r     1 ROOT_NODE_LIT
     7-0-0/c CHAR(81)    r     1 SUMMARY_HEADING(0:2)

  ****  Section 003 RoData VXM$OVERLAY

  ****  Scalars and arrays  ****
OctLoc.c.b A Datatyp(siz) R M Lvl/name                 OctLoc.c.b A Datatyp(siz) R M Lvl/name

     0-0-0/c CHAR(2)     r     1 SKIP_THREE_LINES

  ****  Auto variables  ****

  ****  Scalars and arrays  ****
OctLoc.c.b A Datatyp(siz) R M Lvl/name                 OctLoc.c.b A Datatyp(siz) R M Lvl/name

     3-0-0/w PTR         r     1 @START$                   11-0-0/w PTR         r     1 CURR$
     4-0-0/c CHAR(8)     r     1 DECIMAL                   13-0-0/w UBIN        r     1 I
    20-0-0/w SBIN        r     1 NODE_LEVEL_NUM            *0-0-0/w PTR         r     1 START$

  ****  SYMREF variables  ****

  ****  Scalars and arrays  ****
OctLoc.c.b A Datatyp(siz) R M Lvl/name                 OctLoc.c.b A Datatyp(siz) R M Lvl/name

     0-0-0/w UBIN        r     1 VX_CTAB                    0-0-0/w UBIN        r     1 VX_HDR_FIELD1
     0-0-0/w STRC(1188)  r     1 VX_MAP_HDR                 0-0-0/w STRC(1188)  r     1 VX_MAP_HDR0
     0-0-0/d STRC(432)   r     1 VX_MAP_LIT_LO_FPT_WRITE
     0-0-0/d STRC(432)   r     1 VX_MAP_LO_FPT_WRITE        0-0-0/w STRC(1188)  r     1 VX_MAP_UTS_HDR
     0-0-0/w UBIN        r     1 VX_MAP_WIDTH_HDR           0-0-0/w STRC(1188)  r     1 VX_MBUF

PL6.E3A0      #002=VXM$OVERLAY File=VXM$MAP.:E05TSI                              WED 07/30/97 08:21 Page:174
  ****  BASED and DCB variables  ****

  ****  Scalars and arrays  ****
OctLoc.c.b A Datatyp(siz) R M Lvl/name                 OctLoc.c.b A Datatyp(siz) R M Lvl/name

     0-0-0/w ASTR(9)     r     1 T$C                        0-0-0/c ASTR(9)     r     1 T$C_UNAL


   Procedure VXM$OVERLAY requires 155 words for executable code.
   Procedure VXM$OVERLAY requires 24 words of local(AUTO) storage.
PL6.E3A0      #002=VXM$OVERLAY File=VXM$MAP.:E05TSI                              WED 07/30/97 08:21 Page:175
          *** CROSS REFERENCE LISTING ***
**     DENOTES     IDENTIFIER DEFINITION
<<                 IDENTIFIER'S VALUE SET
>>                 IDENTIFIER'S VALUE USED
<>                 IDENTIFIER SET AND/OR USED
--                 IDENTIFIER REFERENCED
PL6.E3A0      #002=VXM$OVERLAY File=VXM$MAP.:E05TSI                              WED 07/30/97 08:21 Page:176
          MINI XREF LISTING

CURR$
     10852**DCL     11163<<ASSIGN
DECIMAL
     10829**DCL     11197<>CALL    11198>>CALLBLT 11199>>CALLBLT
I
     10888**DCL     10889--REDEF   11198<<CALLBLT 11199>>CALLBLT 11211<<DOINDEX 11213>>ASSIGN
J
     10890**DCL     10891--REDEF
K
     10892**DCL     10893--REDEF
L
     10894**DCL     10895--REDEF
M$ERR
      5085**DCL-ENT 11245--CALL
M$MERC
      5129**DCL-ENT 11243--CALL
M$WRITE
      5074**DCL-ENT 11157--CALL    11159--CALL    11161--CALL    11178--CALL    11187--CALL    11203--CALL
     11214--CALL    11229--CALL
MAP_IO_ERROR
     11243**LABEL   11157--CALLALT 11159--CALLALT 11161--CALLALT 11178--CALLALT 11187--CALLALT 11203--CALLALT
     11214--CALLALT 11229--CALLALT
MERC_ERROR
     11248**LABEL   11243--CALLALT
MORE_LEVELS
     10870**DCL     11168<<ASSIGN  11169>>DOWHILE 11170<<ASSIGN  11226<>CALL
NODE_LEVEL_NUM
     10946**DCL     11167<<ASSIGN  11171<<ASSIGN  11171>>ASSIGN  11175>>IF      11197<>CALL    11226<>CALL
ROOT_NODE_LIT
     10823**DCL     11186--ASSIGN
SKIP_THREE_LINES
     10830**DCL     11228--ASSIGN
PL6.E3A0      #002=VXM$OVERLAY File=VXM$MAP.:E05TSI                              WED 07/30/97 08:21 Page:177
START$
     10806**DCL         7--PROC    11163>>ASSIGN  11226<>CALL    11226<>CALL
SUMMARY_HEADING
     10825**DCL     11213--ASSIGN
T$C.COUNT
     10780**DCL     10781--IMP-SIZ
T$C_UNAL.COUNT
     10783**DCL     10784--IMP-SIZ
VXD$B2C
     10923**DCL-ENT 11197--CALL
VXE$MERC
     10918**DCL-ENT 11248--CALL
VXM$LEVEL
     10914**DCL-ENT 11226--CALL
VX_BIAS.A
      9576**DCL      9577--REDEF
VX_CBUF.CHARS_A
      9510**DCL      9511--REDEF
VX_CONST_DCB.ACTPOS
     10692**DCL     10692--REDEF
VX_CONST_DCB.ARS#
     10651**DCL     10651--REDEF
VX_CONST_DCB.ATTR#
     10681**DCL     10681--REDEF   10683--REDEF
VX_CONST_DCB.BORROW
     10703**DCL     10703--REDEF   10703--REDEF   10703--REDEF
VX_CONST_DCB.EOMCHAR#
     10658**DCL     10659--REDEF
VX_CONST_DCB.FLDID
     10695**DCL     10696--REDEF
VX_CONST_DCB.FORM$
     10687**DCL     10687--REDEF
VX_CONST_DCB.FSECT
     10710**DCL     10710--REDEF
VX_CONST_DCB.FSN#
     10677**DCL     10677--REDEF   10677--REDEF   10678--REDEF
PL6.E3A0      #002=VXM$OVERLAY File=VXM$MAP.:E05TSI                              WED 07/30/97 08:21 Page:178
VX_CONST_DCB.HEADER$
     10686**DCL     10687--REDEF
VX_CONST_DCB.IXTNSIZE#
     10683**DCL     10684--REDEF
VX_CONST_DCB.LASTSTA$
     10667**DCL     10667--REDEF
VX_CONST_DCB.LVL
     10704**DCL     10704--REDEF
VX_CONST_DCB.NAME#.C
     10667**DCL     10668--REDEF
VX_CONST_DCB.NOEOF
     10699**DCL     10699--REDEF
VX_CONST_DCB.NRECS#
     10684**DCL     10684--REDEF
VX_CONST_DCB.NRECX
     10711**DCL     10711--REDEF
VX_CONST_DCB.OHDR
     10700**DCL     10700--REDEF
VX_CONST_DCB.ORG#
     10675**DCL     10676--REDEF
VX_CONST_DCB.PRECNO
     10708**DCL     10708--REDEF
VX_CONST_DCB.RCSZ
     10716**DCL     10716--REDEF
VX_CONST_DCB.RES#
     10669**DCL     10669--REDEF
VX_CONST_DCB.SETX
     10688**DCL     10688--REDEF
VX_CONST_DCB.TAB$
     10687**DCL     10687--REDEF
VX_CONST_DCB.TDA
     10707**DCL     10708--REDEF
VX_CONST_DCB.WSN#
     10669**DCL     10670--REDEF
VX_CTAB
     11111**DCL     11183<<ASSIGN  11208<<ASSIGN
PL6.E3A0      #002=VXM$OVERLAY File=VXM$MAP.:E05TSI                              WED 07/30/97 08:21 Page:179
VX_EBUF.CHARS_A
     10099**DCL     10100--REDEF
VX_EFIELD1.CHARS
     10108**DCL     10109--REDEF
VX_EFIELD2.CHARS
     10112**DCL     10113--REDEF
VX_EFIELD3.CHARS
     10116**DCL     10117--REDEF
VX_EI_KEY_BUF.KEY
     10492**DCL     10493--REDEF
VX_ERRORS
      9553**DCL      9564--REDEF
VX_ERRORS.CONFLICT_A
      9559**DCL      9560--REDEF
VX_ERRORS.UNSAT_A
      9555**DCL      9556--REDEF
VX_HDR_FIELD1
     11123**DCL     11155>>CALLBLT
VX_IMAGE_DATA.CPAGE#_A
      8690**DCL      8691--REDEF
VX_IMAGE_DATA.NODE_A$
      8702**DCL      8703--REDEF
VX_IMAGE_DATA.START_A$
      8694**DCL      8695--REDEF
VX_IMAGE_DATA.STOP_A$
      8698**DCL      8699--REDEF
VX_IMAGE_DS3.CPAGE#_A
      8759**DCL      8760--REDEF
VX_IMAGE_DS3.NODE_A$
      8771**DCL      8772--REDEF
VX_IMAGE_DS3.START_A$
      8763**DCL      8764--REDEF
VX_IMAGE_DS3.STOP_A$
      8767**DCL      8768--REDEF
VX_IMAGE_DS4.CPAGE#_A
      8782**DCL      8783--REDEF
PL6.E3A0      #002=VXM$OVERLAY File=VXM$MAP.:E05TSI                              WED 07/30/97 08:21 Page:180
VX_IMAGE_DS4.NODE_A$
      8794**DCL      8795--REDEF
VX_IMAGE_DS4.START_A$
      8786**DCL      8787--REDEF
VX_IMAGE_DS4.STOP_A$
      8790**DCL      8791--REDEF
VX_IMAGE_DS5.CPAGE#_A
      8805**DCL      8806--REDEF
VX_IMAGE_DS5.NODE_A$
      8817**DCL      8818--REDEF
VX_IMAGE_DS5.START_A$
      8809**DCL      8810--REDEF
VX_IMAGE_DS5.STOP_A$
      8813**DCL      8814--REDEF
VX_IMAGE_DS6.CPAGE#_A
      8828**DCL      8829--REDEF
VX_IMAGE_DS6.NODE_A$
      8840**DCL      8841--REDEF
VX_IMAGE_DS6.START_A$
      8832**DCL      8833--REDEF
VX_IMAGE_DS6.STOP_A$
      8836**DCL      8837--REDEF
VX_IMAGE_DS7.CPAGE#_A
      8851**DCL      8852--REDEF
VX_IMAGE_DS7.NODE_A$
      8863**DCL      8864--REDEF
VX_IMAGE_DS7.START_A$
      8855**DCL      8856--REDEF
VX_IMAGE_DS7.STOP_A$
      8859**DCL      8860--REDEF
VX_IMAGE_DS8.CPAGE#_A
      8874**DCL      8875--REDEF
VX_IMAGE_DS8.NODE_A$
      8886**DCL      8887--REDEF
VX_IMAGE_DS8.START_A$
      8878**DCL      8879--REDEF
PL6.E3A0      #002=VXM$OVERLAY File=VXM$MAP.:E05TSI                              WED 07/30/97 08:21 Page:181
VX_IMAGE_DS8.STOP_A$
      8882**DCL      8883--REDEF
VX_IMAGE_PROC.CPAGE#_A
      8713**DCL      8714--REDEF
VX_IMAGE_PROC.NODE_A$
      8725**DCL      8726--REDEF
VX_IMAGE_PROC.START_A$
      8717**DCL      8718--REDEF
VX_IMAGE_PROC.STOP_A$
      8721**DCL      8722--REDEF
VX_IMAGE_ROS.CPAGE#_A
      8736**DCL      8737--REDEF
VX_IMAGE_ROS.NODE_A$
      8748**DCL      8749--REDEF
VX_IMAGE_ROS.START_A$
      8740**DCL      8741--REDEF
VX_IMAGE_ROS.STOP_A$
      8744**DCL      8745--REDEF
VX_MAP_HDR
     11131**DCL     11158--ASSIGN
VX_MAP_HDR.CHARS
     11132**DCL     11133--REDEF   11134--REDEF
VX_MAP_HDR0
     11125**DCL     11154--ASSIGN
VX_MAP_HDR0.CHARS
     11126**DCL     11127--REDEF   11128--REDEF   11155<<CALLBLT
VX_MAP_HDR1.CHARS
     11138**DCL     11139--REDEF   11140--REDEF
VX_MAP_LIT_LO_FPT_WRITE
     11086**DCL     11187<>CALL    11214<>CALL    11229<>CALL
VX_MAP_LIT_LO_FPT_WRITE.BUF_
     11086**DCL     11186<<ASSIGN  11213<<ASSIGN  11228<<ASSIGN
VX_MAP_LIT_LO_FPT_WRITE.STATION_
     11088**DCL     11088--REDEF
VX_MAP_LIT_LO_FPT_WRITE.V.DVBYTE.VFC#
     11095**DCL     11095--REDEF
PL6.E3A0      #002=VXM$OVERLAY File=VXM$MAP.:E05TSI                              WED 07/30/97 08:21 Page:182
VX_MAP_LO_FPT_WRITE
     11055**DCL     11157<>CALL    11159<>CALL    11161<>CALL    11178<>CALL    11203<>CALL
VX_MAP_LO_FPT_WRITE.BUF_
     11055**DCL     11162<<ASSIGN
VX_MAP_LO_FPT_WRITE.BUF_.BOUND
     11055**DCL     11153<<ASSIGN
VX_MAP_LO_FPT_WRITE.BUF_.BUF$
     11057**DCL     11154<<ASSIGN  11158<<ASSIGN  11160<<ASSIGN
VX_MAP_LO_FPT_WRITE.STATION_
     11057**DCL     11057--REDEF
VX_MAP_LO_FPT_WRITE.V.DVBYTE.VFC#
     11064**DCL     11064--REDEF
VX_MAP_UTS_HDR
     11143**DCL     11160--ASSIGN
VX_MAP_UTS_HDR.CHARS
     11144**DCL     11145--REDEF   11146--REDEF
VX_MAP_WIDTH_HDR
     11115**DCL     11153>>ASSIGN
VX_MBUF
     11117**DCL     11162--ASSIGN
VX_MBUF.CHARS
     11118**DCL     11119--REDEF   11120--REDEF   11177<<ASSIGN  11199<<CALLBLT 11207<<ASSIGN
VX_M_VECTOR.F
      8541**DCL      8545--REDEF
VX_M_VECTOR_DP.F
      8576**DCL      8580--REDEF
VX_O.ACCTN_A$
      9705**DCL      9706--REDEF
VX_O.DCB_MATCH_A$
      9714**DCL      9715--REDEF
VX_O.DCB_MATCH_HIT_A
      9720**DCL      9721--REDEF
VX_O.FIDN_A$
      9699**DCL      9700--REDEF
VX_O.FID_A$
      9691**DCL      9692--REDEF
PL6.E3A0      #002=VXM$OVERLAY File=VXM$MAP.:E05TSI                              WED 07/30/97 08:21 Page:183
VX_O.INCLUDE_A$
      9711**DCL      9712--REDEF
VX_O.MAP_A
      9685**DCL      9686--REDEF
VX_O.NODCB_A
      9742**DCL      9743--REDEF
VX_O.NUM_A
      9630**DCL      9632--REDEF
VX_O.OPT_A
      9730**DCL      9731--REDEF
VX_O.PRIV_A
      9646**DCL      9648--REDEF
VX_O.SIN_A
      9599**DCL      9600--REDEF
VX_O.TCB_A
      9726**DCL      9727--REDEF
VX_OD.ACCTN_A$
      9903**DCL      9904--REDEF
VX_OD.DCB_MATCH_A$
      9912**DCL      9913--REDEF
VX_OD.FIDN_A$
      9897**DCL      9898--REDEF
VX_OD.FID_A$
      9889**DCL      9890--REDEF
VX_OD.INCLUDE_A$
      9909**DCL      9910--REDEF
VX_OD.MAP_A
      9883**DCL      9884--REDEF
VX_OD.NODCB_A
      9927**DCL      9928--REDEF
VX_OD.NUM_A
      9830**DCL      9831--REDEF
VX_OD.PRIV_A
      9845**DCL      9846--REDEF
VX_OD.SIN_A
      9799**DCL      9800--REDEF
PL6.E3A0      #002=VXM$OVERLAY File=VXM$MAP.:E05TSI                              WED 07/30/97 08:21 Page:184
VX_OD.VECTOR_A$
      9918**DCL      9919--REDEF
VX_OL.MAX_A
      9774**DCL      9776--REDEF
VX_OL.MIN_A
      9759**DCL      9760--REDEF
VX_ON.ACCTN_A$
     10048**DCL     10050--REDEF
VX_ON.DCB_MATCH_A$
     10059**DCL     10061--REDEF
VX_ON.FIDN_A$
     10041**DCL     10043--REDEF
VX_ON.FID_A$
     10032**DCL     10034--REDEF
VX_ON.INCLUDE_A$
     10055**DCL     10057--REDEF
VX_ON.MAP_A
     10025**DCL     10027--REDEF
VX_ON.NODCB_A$
     10075**DCL     10076--REDEF
VX_ON.NUM_A
      9970**DCL      9972--REDEF
VX_ON.PRIV_A
      9986**DCL      9988--REDEF
VX_ON.SIN_A
      9938**DCL      9940--REDEF
VX_ON.VECTOR_A$
     10066**DCL     10067--REDEF
VX_OUHEAD.VERSION
      9385**DCL      9387--REDEF
VX_OU_HEAD
      9328**DCL      9367--REDEF
VX_OU_HEAD.REC_A
      9340**DCL      9343--REDEF
VX_O_KEY_BUF.FORM0
      8589**DCL      8592--REDEF    8599--REDEF
PL6.E3A0      #002=VXM$OVERLAY File=VXM$MAP.:E05TSI                              WED 07/30/97 08:21 Page:185
VX_O_KEY_BUF_L.FORM0
      8612**DCL      8615--REDEF    8622--REDEF
VX_PASS2_REF.OU.L_START
     10278**DCL     10283--REDEF
VX_PASS2_REF.OU.L_STOP
     10284**DCL     10289--REDEF
VX_PASS2_REF.OU.MAX
     10272**DCL     10277--REDEF
VX_PASS2_REF.OU.SIZE
     10290**DCL     10295--REDEF
VX_PASS2_REF.SAT.COUNT
     10317**DCL     10323--REDEF
VX_PASS2_REF.SAT.ENT_SIZE
     10324**DCL     10330--REDEF
VX_PASS2_REF.SAT.L_START
     10303**DCL     10309--REDEF
VX_PASS2_REF.SAT.L_STOP
     10310**DCL     10316--REDEF
VX_PASS2_REF.SAT.MAX
     10297**DCL     10302--REDEF
VX_PASS2_REF.UNSAT.L_START
     10365**DCL     10370--REDEF
VX_PASS2_REF.UNSAT.L_STOP
     10371**DCL     10376--REDEF
VX_PASS2_REF.UNSAT.L_WHERE
     10377**DCL     10382--REDEF
VX_PASS2_REF.UNSAT.MAX
     10359**DCL     10364--REDEF
VX_PASS2_REF.UNSAT.PAGE#
     10389**DCL     10394--REDEF
VX_PASS2_REF.UNSAT.SIZE
     10383**DCL     10388--REDEF
VX_PHRASE.PHRASE
      9791**DCL      9793--REDEF
VX_PROGRAM_BIAS.A
      9569**DCL      9570--REDEF
PL6.E3A0      #002=VXM$OVERLAY File=VXM$MAP.:E05TSI                              WED 07/30/97 08:21 Page:186
VX_R_KEY_BUF.FORM0
      8638**DCL      8642--REDEF    8648--REDEF
VX_SD.A
      8266**DCL      8267--REDEF
VX_SPC.B$.MINE
     10460**DCL     10466--REDEF
VX_SPC.B$.NAME
     10439**DCL     10445--REDEF
VX_SPC.B$.SKIP
     10453**DCL     10459--REDEF
VX_SPC.B$.VALUE
     10446**DCL     10452--REDEF
VX_SPC.SEG.NAME
     10408**DCL     10414--REDEF
VX_SPC.SEG.VALUE
     10415**DCL     10421--REDEF
VX_TSX0_OVERLAY.H
     10183**DCL     10186--REDEF

PL6.E3A0      #003=VXM$LEVEL File=VXM$MAP.:E05TSI                                WED 07/30/97 08:21 Page:187
      743        1        /*T***********************************************************/
      744        2        /*T*                                                         */
      745        3        /*T* Copyright (c) Bull HN Information Systems Inc., 1997    */
      746        4        /*T*                                                         */
      747        5        /*T***********************************************************/
      748        6        /*X* DMR,PLM=6,IND=4,CSU=2,EXM=0,ECU=2,MOC,DCI=4,CRT=4,CTI=8,CCC */
      749        7        VXM$LEVEL:
      750        8              PROC( START$, CURR$, DESIRED_LEVEL, CURRENT_LEVEL, MORE_LEVELS);
      751        9        %INCLUDE VX_INC_C;
      752    10725        %VX$WORD;

             10737    1   /*******************************************************************************
             10738    1   *                                                                              *
             10739    1   *                          VX$WORD                                                 *
             10740    1   *                                                                              *
             10741    1   *******************************************************************************/

             10746    1   DCL VX$WORD_A(0:0)       UBIN(36) ALIGNED    BASED PTR;
             10747    1   DCL VX$HALF_A(0:0)       UBIN(18) HALIGNED   BASED PTR;
             10748    1   DCL VX$BYTE_A(0:0)       UBIN( 9) CALIGNED   BASED PTR;
             10749    1   DCL VX$CHAR_A(0:0)       CHAR( 1) UNAL       BASED PTR;
             10750        /**/
             10751    1   DCL VX$WORD_SBIN_A(0:0)  SBIN WORD ALIGNED   BASED     PTR;
             10752    1   DCL VX$HALF_SBIN_A(0:0)  SBIN HALF HALIGNED  BASED     PTR;
             10753    1   DCL VX$BYTE_SBIN_A(0:0)  SBIN HALF CALIGNED  BASED     PTR;
             10754    1   DCL VX$BIT_A(0:0)        BIT(36)   ALIGNED   BASED     PTR;
      753    10757        %T$C;

             10769    1   /*******************************************************************************
             10770    1   *                                                                              *
             10771    1   *                          T$C                                                 *
             10772    1   *                                                                              *
             10773    1   *******************************************************************************/

             10778    1   DCL 1 T$C           BASED     ALIGNED,  /* Text count                         */
             10779    1         2 COUNT        UBIN( 9) UNAL,
             10780    1         2 CHARS        CHAR( T$C.COUNT )   UNAL;
PL6.E3A0      #003=VXM$LEVEL File=VXM$MAP.:E05TSI                                WED 07/30/97 08:21 Page:188
             10781    1   DCL 1 T$C_UNAL      BASED     UNAL,     /* Text count                         */
             10782    1         2 COUNT        UBIN( 9) UNAL,
             10783    1         2 CHARS        CHAR( T$C_UNAL.COUNT ) UNAL;
      754    10786        %SET LISTMAC='1'B;
      755    10787        %SET LISTSUB='1'B;
      756    10788        %SET LISTEXP='1'B;
      757    10789
      758    10790        %P;
             10791        %LSET LISTDIR='0'B;

             10798    1   /*******************************************************************************
             10799    1   *                                                                              *
             10800    1   *                          PARAMETERS                                              *
             10801    1   *                                                                              *
             10802    1   *******************************************************************************/

      759    10806    1   DCL  START$   PTR;                      /* Pointer to root node */
      760    10807    1   DCL  CURR$    PTR;                      /* Pointer to current node */
      761    10808    1   DCL  DESIRED_LEVEL  UBIN;               /* Desired level for node summaries */
      762    10809    1   DCL  CURRENT_LEVEL  UBIN;               /* Level the current node is at  */
      763    10810    1   DCL MORE_LEVELS BIT(1) ALIGNED;
             10810            /* Flag set if there are nodes below the desired level */
      764    10811        %C;
             10812        %LSET LISTDIR='0'B;

             10819    1   /*******************************************************************************
             10820    1   *                                                                              *
             10821    1   *                          CHAR                                                 *
             10822    1   *                                                                              *
             10823    1   *******************************************************************************/

      765    10827    1   DCL  SUMMARY  CHAR(81)   STATIC   INIT(
      766    10828    1             'A                                    9K');
      767    10829        %PTR;
             10830        %LSET LISTDIR='0'B;

             10837    1   /*******************************************************************************
PL6.E3A0      #003=VXM$LEVEL File=VXM$MAP.:E05TSI                                WED 07/30/97 08:21 Page:189
             10838    1   *                                                                              *
             10839    1   *                          PTR                                                 *
             10840    1   *                                                                              *
             10841    1   *******************************************************************************/

      768    10845    1   DCL   BACK$     PTR    AUTO;
      769    10846    1   DCL   FORWARD$  PTR    AUTO;
      770    10847    1   DCL   OVERLAY$  PTR    AUTO;
      771    10848        %POINTER;
             10849    1   DCL P$         PTR       ALIGNED AUTO;
             10850    1   DCL Q$         PTR       ALIGNED AUTO;
             10851    1   DCL R$         PTR       ALIGNED AUTO;
      772    10853        %U;
             10854        %LSET LISTDIR='0'B;

             10861    1   /*******************************************************************************
             10862    1   *                                                                              *
             10863    1   *                          UBIN                                                 *
             10864    1   *                                                                              *
             10865    1   *******************************************************************************/

      773    10869    1   DCL   LOW_INDEX (0:1)     UBIN    CONSTANT  INIT ( 40, 61 );
      774    10870    1   DCL   HIGH_INDEX(0:1)     UBIN    CONSTANT  INIT ( 47, 68 );
      775    10871    1   DCL   SIZE_INDEX(0:1)     UBIN    CONSTANT  INIT ( 54, 75 );
      776    10872    1   DCL   NAME_SIZE           UBIN    STATIC;
      777    10873    1   DCL   PARENT_NAME_SIZE    UBIN    STATIC;
      778    10874    1   DCL   I                   UBIN    STATIC;
      779    10875    1   DCL   SIZE                UBIN    STATIC;
      780    10876    1   DCL   NEXT_LEVEL          UBIN    AUTO;
      781    10877        %E;
             10878        %LSET LISTDIR='0'B;

             10885    1   /*******************************************************************************
             10886    1   *                                                                              *
             10887    1   *                          ENTRY                                                 *
             10888    1   *                                                                              *
             10889    1   *******************************************************************************/
PL6.E3A0      #003=VXM$LEVEL File=VXM$MAP.:E05TSI                                WED 07/30/97 08:21 Page:190

      782    10893        %ENTRIES;
             10894    1   DCL VXE$ERROR       ENTRY(4);
             10895    1   DCL VXE$ERR         ENTRY(3);
             10896    1   DCL VXE$MERC        ENTRY;
             10897    1   DCL VXE$ERRMSG      ENTRY(3);
             10898    1   DCL VXR$READ        ENTRY( 3 );
             10899    1   DCL VXW$WRITE       ENTRY( 3 );
             10900    1   DCL VXW$WRITE_DO    ENTRY( 2 );
             10901    1   DCL VXD$B2C         ENTRY( 5 );
             10902    1   DCL VXD$C2B         ENTRY( 3 );
             10903    1   DCL VXA$GET         ENTRY( 3 );
             10904    1   DCL VXF$FREE        ENTRY( 3 );
             10905    1   DCL VXQ$SORT        ENTRY( 7 );
             10906    1   DCL VXY$YESNO       ENTRY( 1 );
      783    10908        %S;
             10909        %LSET LISTDIR='0'B;

             10916    1   /*******************************************************************************
             10917    1   *                                                                              *
             10918    1   *                          SBIN                                                 *
             10919    1   *                                                                              *
             10920    1   *******************************************************************************/

      784    10924    1   DCL S_START (0:2/*@ROS*/)  SBIN    WORD    ALIGNED     AUTO;
      785    10925    1   DCL S_STOP  (0:2/*@ROS*/)  SBIN    WORD    ALIGNED     AUTO;
      786    10926    1   DCL S_SIZE  (0:2/*@ROS*/)  SBIN    WORD    ALIGNED     AUTO;
      787    10927        %BANNER(ARG="VX$TREE_HEADER - VX$TREE_NODE");
             10928        %LSET LISTDIR='0'B;

             10935    1   /*******************************************************************************
             10936    1   *                                                                              *
             10937    1   *                          VX$TREE_HEADER - VX$TREE_NODE                           *
             10938    1   *                                                                              *
             10939    1   *******************************************************************************/

      788    10943        %B$TREE_TABLE(HDR_NAME=VX$TREE_HEADER, NODE_NAME=VX$TREE_NODE );
PL6.E3A0      #003=VXM$LEVEL File=VXM$MAP.:E05TSI                                WED 07/30/97 08:21 Page:191
             10944    1   DCL 1 VX$TREE_HEADER BASED ALIGNED,
             10945              /*K*  HDR_NAME is the Tree table header.  */
             10946    1         2 NODES UBIN HALF UNAL,
             10947                /*K*  NODES is the number of nodes in the tree table.  */
             10948    1         2 SIZE UBIN HALF UNAL,
             10949                /*K*  SIZE is the total word size of the tree table
             10950                      (HDR + NODES + TEST pool).   */
             10951    1         2 LIB$ PTR,
             10952                /*K*  LIB$ is the pointer to the name of the shared library
             10953                      currently associated.  */
             10954    1         2 PRECSIZE UBIN HALF UNAL,
             10955                /*K*  PRECSIZE  is the maximum program record size in the
             10956                      Run Unit (from the Head record).  */
             10957    1         2 MAX_LIB_DATA UBIN HALF UNAL;
             10958                /*K*  MAX_LIB_DATA is the maximum reserved in the program
             10959                      image for the shared library data.  */
             10960    1   DCL 1 VX$TREE_NODE BASED ALIGNED,
             10961              /*K*  NODE_NAME is the node specification.  */
             10962    1         2 NAME$ PTR,
             10963                /*K*  NAME$ is the pointer to the name of the node.  */
             10964    1         2 FLGS,
             10965                /*K*  FLGS are control flags used by M$OLAY.  */
             10966    1           3 NOW_IN BIT(1) UNAL,
             10967                  /*K*  NOW_IN is set if this node is now in memory.  */
             10968    1           3 WAS_IN BIT(1) UNAL,
             10969                  /*K*  WAS_IN is set if this node was in memory.  */
             10970    1           3 * BIT(7) UNAL,
             10971                  /*K*  * is reserved for future use and must be zero.  */
             10972    1         2 AFLGS,
             10973                /*K*  AFLGS are access flags.  */
             10974    1           3 * BIT(6) UNAL,
             10975                  /*K*  * is reserved for future use and must be zero.  */
             10976    1           3 NOPATH BIT(1) UNAL,
             10977                  /*K*  NOPATH is set if this node is independently loaded
             10978                        (no backward path).  */
             10979    1           3 ENTER BIT(1) UNAL,
             10980                  /*K*  ENTER is set if ENTRY$ is valid.  */
PL6.E3A0      #003=VXM$LEVEL File=VXM$MAP.:E05TSI                                WED 07/30/97 08:21 Page:192
             10981    1           3 CANCEL BIT(1) UNAL,
             10982                  /*K*  CANCEL is set if the overlay was removed by
             10983                        "CANCEL=YES".   */
             10984    1         2 BACK# SBIN HALF UNAL,
             10985                /*K*  BACK# is the backward link (parent).  */
             10986    1         2 FORWARD# SBIN HALF UNAL,
             10987                /*K*  FORWARD# is the forward link (daughter).  */
             10988    1         2 OVERLAY# SBIN HALF UNAL,
             10989                /*K*  OVERLAY# is the overlay link (same level).   */
             10990    1         2 PADDR UBIN HALF UNAL,
             10991                /*K*  PADDR is the address of procedure.  */
             10992    1         2 PSIZE UBIN HALF UNAL,
             10993                /*K*  PSIZE is the size of procedure.  */
             10994    1         2 DADDR UBIN HALF UNAL,
             10995                /*K*  DADDR is the address of data.  */
             10996    1         2 DSIZE UBIN HALF UNAL,
             10997                /*K*  DSIZE is the size of data.  */
             10998    1         2 ENTRY$ EPTR;
             10999                /*K*  ENTRY$ is the overlay entry point (see ENTER).  */
      789    11001        %BANNER(ARG=FPTS);
             11002        %LSET LISTDIR='0'B;

             11009    1   /*******************************************************************************
             11010    1   *                                                                              *
             11011    1   *                          FPTS                                                 *
             11012    1   *                                                                              *
             11013    1   *******************************************************************************/

      790    11017        %PLIST;
      791    11018        %FPT_WRITE( FPTN=VX_MAP_LO_FPT_WRITE, STCLASS=SYMREF);
      792    11049        %FPT_WRITE( FPTN=VX_MAP_LIT_LO_FPT_WRITE, STCLASS=SYMREF);
      793    11080        %EJECT;
PL6.E3A0      #003=VXM$LEVEL File=VXM$MAP.:E05TSI                                WED 07/30/97 08:21 Page:193
      794    11081        /*
      795    11082              Variables for map(ping)
      796    11083        */
      797    11084    1   DCL VX_MAP$               PTR  ALIGNED   SYMREF;
      798    11085    1   DCL VX_MAP_TREE_START$    PTR  ALIGNED   SYMREF;
      799    11086    1   DCL VX_MAP_NUM            SBIN WORD ALIGNED   SYMREF;
      800    11087    1   DCL 1 VX_MBUF ALIGNED SYMREF,
      801    11088    1         2 CHARS CHAR(132) UNAL,
      802    11089    1         2 CHARS_A(0:131) REDEF CHARS CHAR(1) UNAL,
      803    11090    1         2 LIT_BUF REDEF CHARS UNAL,
      804    11091    1           3 VFC CHAR(1) UNAL,
      805    11092    1           3 CHARS CHAR(131) UNAL;
      806    11093        %EJECT;
PL6.E3A0      #003=VXM$LEVEL File=VXM$MAP.:E05TSI                                WED 07/30/97 08:21 Page:194
      807    11094    2         IF CURRENT_LEVEL = DESIRED_LEVEL THEN DO;
      808    11095        /*
      809    11096                                          Print a summary for each node at this
      810    11097                                          level and set MORE_LEVELS if there are
      811    11098                                          any nodes at a lower level
      812    11099        */
      813    11100    2             VX_MBUF.CHARS = 'A';
      814    11101    2             VX_MAP_LO_FPT_WRITE.BUF_ = VECTOR( VX_MBUF );
      815    11102    2             VX_MAP_LIT_LO_FPT_WRITE.BUF_ = VECTOR( SUMMARY );
      816    11103    2             CALL INSERT( SUMMARY, 0, 1, 'A' );
      817    11104    2             OVERLAY$ = CURR$;
      818    11105    3             DO WHILE ( OVERLAY$ ~= ADDR(NIL) );
      819    11106    3                 IF OVERLAY$->VX$TREE_NODE.FORWARD# > 0 THEN MORE_LEVELS = '1'B
             11106                          /*@TRUE_B*/;
      820    11107    3                 S_START(0/*@DATA*/) = OVERLAY$ -> VX$TREE_NODE.DADDR;
      821    11108    3                 S_START(1/*@PROC*/) = OVERLAY$ -> VX$TREE_NODE.PADDR;
      822    11109    3                 S_SIZE(0/*@DATA*/) = OVERLAY$ -> VX$TREE_NODE.DSIZE;
      823    11110    3                 S_SIZE(1/*@PROC*/) = OVERLAY$ -> VX$TREE_NODE.PSIZE;
      824    11111    3                 SIZE = (S_SIZE(0/*@DATA*/) + 1024/*@PAGE_SIZE*/-1) / 1024
             11111                          /*@PAGE_SIZE*/
      825    11112    3                         + (S_SIZE(1/*@PROC*/) + 1024/*@PAGE_SIZE*/-1) / 1024
             11112                                  /*@PAGE_SIZE*/;
      826    11113    3                 CALL VXD$B2C( SUMMARY, 33, 5, SIZE, 10 );
      827    11114    4                 DO I = 0/*@DATA*/ TO 1/*@PROC*/;
      828    11115    5                     IF S_SIZE(I) > 0 THEN DO;
      829    11116    5                         CALL VXD$B2C( SUMMARY, LOW_INDEX(I), 6, S_START(I), 8 );
      830    11117    5                         S_STOP(I) = S_START(I) + S_SIZE(I) - 1;
      831    11118    5                         CALL VXD$B2C( SUMMARY, HIGH_INDEX(I), 6, S_STOP(I), 8 );
      832    11119    5                        END;
      833    11120    5                     ELSE DO;
      834    11121    5                         CALL INSERT( SUMMARY, LOW_INDEX(I), , ' ' );
      835    11122    5                        END;
      836    11123    4                     CALL VXD$B2C( SUMMARY, SIZE_INDEX(I), 6, S_SIZE(I), 8 );
      837    11124    4                    END;                   /* do i = @DATA to @PROC  */
      838    11125    3                 R$ = ADDR( OVERLAY$ -> VX$TREE_NODE.NAME$ );
      839    11126    3                 P$ = PINCRW( VX_MAP_TREE_START$, R$ -> VX$HALF_A(0) );
      840    11127    3                 CALL INSERT( SUMMARY, 1, 31, P$ -> T$C_UNAL.CHARS );
PL6.E3A0      #003=VXM$LEVEL File=VXM$MAP.:E05TSI                                WED 07/30/97 08:21 Page:195
      841    11128    3                 NAME_SIZE = P$ -> T$C_UNAL.COUNT;
      842    11129    4                 IF DESIRED_LEVEL = 0 THEN DO; /* Processing the root node */
      843    11130    4                     CALL M$WRITE( VX_MAP_LIT_LO_FPT_WRITE ) ALTRET( MAP_IO_ERROR);
      844    11131    4                     RETURN;
      845    11132    4                    END;
      846    11133    3                 VX_MAP_NUM = CURR$ -> VX$TREE_NODE.BACK#;
      847    11134    3                 BACK$ = PINCRW( START$, VX_MAP_NUM * SIZEW(VX$TREE_NODE) );
      848    11135    3                 R$ = ADDR( BACK$ -> VX$TREE_NODE.NAME$ );
      849    11136    3                 P$ = PINCRW( VX_MAP_TREE_START$, R$ -> VX$HALF_A(0) );
      850    11137    3                 PARENT_NAME_SIZE = P$ -> T$C_UNAL.COUNT + 2;
      851    11138    3                 IF NAME_SIZE + PARENT_NAME_SIZE + 2 > 31
      852    11139    4                 THEN DO;
      853    11140    4                     CALL M$WRITE ( VX_MAP_LIT_LO_FPT_WRITE ) ALTRET (MAP_IO_ERROR);
      854    11141    4                     CALL INSERT( VX_MBUF.CHARS, 34-PARENT_NAME_SIZE,
      855    11142    4                             PARENT_NAME_SIZE, '<', P$ -> T$C_UNAL.CHARS, '>' );
      856    11143    4                     CALL M$WRITE( VX_MAP_LO_FPT_WRITE ) ALTRET ( MAP_IO_ERROR );
      857    11144    4                     VX_MBUF.CHARS = 'A';
      858    11145    4                    END;
      859    11146    4                 ELSE DO;
      860    11147    4                     CALL INSERT( SUMMARY, 32-PARENT_NAME_SIZE, PARENT_NAME_SIZE,
      861    11148    4                             '<', P$ -> T$C_UNAL.CHARS, '>' );
      862    11149    4                     CALL M$WRITE( VX_MAP_LIT_LO_FPT_WRITE ) ALTRET ( MAP_IO_ERROR );
      863    11150    4                    END;
      864    11151    3                 VX_MAP_NUM = OVERLAY$ -> VX$TREE_NODE.OVERLAY#;
      865    11152    3                 IF VX_MAP_NUM > 0 THEN
      866    11153    3                     OVERLAY$ = PINCRW( START$, VX_MAP_NUM * SIZEW(VX$TREE_NODE) );
      867    11154    3                 ELSE
      868    11155    3                     OVERLAY$ = ADDR( NIL );
      869    11156    3                END;                       /* end do while(OVERLAY$~=addr(nil))*/
      870    11157    2            END;                   /* if CURRENT_LEVEL = DESIRED_LEVEL then do */
      871    11158    2         ELSE DO;                  /* if CURRENT_LEVEL = DESIRED_LEVEL then do */
      872    11159                                    /* Not at the desired level for the node summaries.
      873    11160                                       For each node at this level, recursively continue
      874    11161                                       searching for the desired level.
      875    11162                                    */
      876    11163    2             NEXT_LEVEL = CURRENT_LEVEL + 1;
      877    11164    2             OVERLAY$ = CURR$;
PL6.E3A0      #003=VXM$LEVEL File=VXM$MAP.:E05TSI                                WED 07/30/97 08:21 Page:196
      878    11165    3             DO WHILE ( OVERLAY$ ~= ADDR(NIL) );
      879    11166    3                 VX_MAP_NUM = OVERLAY$ -> VX$TREE_NODE.FORWARD#;
      880    11167    4                 IF VX_MAP_NUM > 0 THEN DO;
      881    11168    4                     FORWARD$ = PINCRW( START$, VX_MAP_NUM * SIZEW(VX$TREE_NODE) );
      882    11169    4                     CALL VXM$LEVEL( START$, FORWARD$, DESIRED_LEVEL, NEXT_LEVEL,
             11169                              MORE_LEVELS );
      883    11170    4                    END;
      884    11171    3                 VX_MAP_NUM = OVERLAY$ -> VX$TREE_NODE.OVERLAY#;
      885    11172    3                 IF VX_MAP_NUM > 0 THEN
      886    11173    3                     OVERLAY$ = PINCRW( START$, VX_MAP_NUM * SIZEW(VX$TREE_NODE) );
      887    11174    3                 ELSE
      888    11175    3                     OVERLAY$ = ADDR(NIL);
      889    11176    3                END;                       /* end do while(OVERLAY$~=addr(nill))*/
      890    11177    2            END;                           /* end else do  */
      891    11178    1         RETURN;
      892    11179
      893    11180
      894    11181
      895    11182
      896    11183    1   MAP_IO_ERROR:
      897    11184    1         CALL M$MERC                             ALTRET( MERC_ERROR );
      898    11185              %ERROR_IT;
      899    11188    1   MERC_ERROR:
      900    11189    1         CALL VXE$MERC;
      901    11190
      902    11191
      903    11192    1   END VXM$LEVEL;
      904    11193        %EOD;

PL6.E3A0      #003=VXM$LEVEL File=VXM$MAP.:E05TSI                                WED 07/30/97 08:21 Page:197
--  Include file information  --

   F_DCB_D.:E05TOU  is referenced.
   VX_DCB_R.:E05TOU  cannot be made into a system file and is referenced.
   VX_DATA_R.:E05TOU  cannot be made into a system file and is referenced.
   VX_FIXED_R.:E05TOU  cannot be made into a system file and is referenced.
   XU_MACRO_C.:E05TOU  is referenced.
   CP_6.:E05TOU  cannot be made into a system file and is referenced.
   VX_MACRO_C.:E05TOU  is referenced.
   VX_PERR_C.:E05TOU  is referenced.
   VX_SUBS_C.:E05TOU  is referenced.
   VX_SWITCH_C.:E05TOU  is referenced.
   B$OBJECT_C.:E05TOU  is referenced.
   VX_INC_C.:E05TOU  is referenced.
   B$JIT_C.:E05TOU  was found in the system file and is never referenced.
   CP_6_C.:E05TOU  was found in the system file and is referenced.
      No diagnostics issued in procedure VXM$LEVEL.

   Procedure VXM$LEVEL requires 335 words for executable code.
   Procedure VXM$LEVEL requires 30 words of local(AUTO) storage.

PL6.E3A0      #003=VXM$LEVEL File=VXM$MAP.:E05TSI                                WED 07/30/97 08:21 Page:198

 Object Unit name= VXM$LEVEL                                  File name= VXM$MAP.:E05TOU
 UTS= JUL 30 '97 08:21:57.96 WED                              Compiler= PL-6/E31         Sev=      00
 SharedLib= :SHARED_SYSTEM                                    Alt SharedLib=


    ****  Control sections  ****

 Sect   Type Bound  Init  Size OctSiz  Section name(segment info)
    0   DCB   even  none     0      0  M$UC
    1  LblCom even  none    96    140  VX_CONST_DCB
    2   Data  even  none    25     31  VXM$LEVEL
    3  RoData even  UTS      6      6  VXM$LEVEL
    4   Proc  even  none   335    517  VXM$LEVEL
    5  RoData even  none    15     17  VXM$LEVEL

    ****  Entry defs  ****

                              Check   Calling
                             calling  sequence
  Sect OctLoc Primary Altret sequence   type   Parms  Name
     4      0   yes            yes      Std        5  VXM$LEVEL

  ****  Entry refs  ****

         Check        Calling
        calling       sequence
Altret sequence SRef   type   Args  Name
         yes           Std       5 VXD$B2C
         yes           Std       0 VXE$MERC
                       nStd      0 X66_AUTO_5
                       Std       0 B_CONSPOOL_D
                       nStd      0 X66_ARET
PL6.E3A0      #003=VXM$LEVEL File=VXM$MAP.:E05TSI                                WED 07/30/97 08:21 Page:199

  ****  Data refs  ****

  Flags:  r = read only, s = secondary
Flgs Name                             Flgs Name                             Flgs Name
     M$UC                                  VX_OU_HEAD                            VX_ERRORS
     VX_MAP_LO_FPT_WRITE                   VX_MAP_LIT_LO_FPT_WRITE               VX_MAP_TREE_START$
     VX_MAP_NUM                            VX_MBUF                               B_VECTNIL

  ****  Segment refs  ****

  Flags:  r = read only, s = secondary
Flgs Name                             Flgs Name                             Flgs Name
     NULLSID                               ISSID
PL6.E3A0      #003=VXM$LEVEL File=VXM$MAP.:E05TSI                                WED 07/30/97 08:21 Page:200


      743        1        /*T***********************************************************/
      744        2        /*T*                                                         */
      745        3        /*T* Copyright (c) Bull HN Information Systems Inc., 1997    */
      746        4        /*T*                                                         */
      747        5        /*T***********************************************************/
      748        6        /*X* DMR,PLM=6,IND=4,CSU=2,EXM=0,ECU=2,MOC,DCI=4,CRT=4,CTI=8,CCC */
      749        7        VXM$LEVEL:
      750        8              PROC( START$, CURR$, DESIRED_LEVEL, CURRENT_LEVEL, MORE_LEVELS);

      8  4 000000   000000 700200 xent  VXM$LEVEL    TSX0  ! X66_AUTO_5
         4 000001   000036 000005                    ZERO    30,5

      751        9        %INCLUDE VX_INC_C;
      752    10725        %VX$WORD;

             10737    1   /*******************************************************************************
             10738    1   *                                                                              *
             10739    1   *                          VX$WORD                                                *
             10740    1   *                                                                              *
             10741    1   *******************************************************************************/

             10746    1   DCL VX$WORD_A(0:0)       UBIN(36) ALIGNED    BASED PTR;
             10747    1   DCL VX$HALF_A(0:0)       UBIN(18) HALIGNED   BASED PTR;
             10748    1   DCL VX$BYTE_A(0:0)       UBIN( 9) CALIGNED   BASED PTR;
             10749    1   DCL VX$CHAR_A(0:0)       CHAR( 1) UNAL       BASED PTR;
             10750        /**/
             10751    1   DCL VX$WORD_SBIN_A(0:0)  SBIN WORD ALIGNED   BASED     PTR;
             10752    1   DCL VX$HALF_SBIN_A(0:0)  SBIN HALF HALIGNED  BASED     PTR;
             10753    1   DCL VX$BYTE_SBIN_A(0:0)  SBIN HALF CALIGNED  BASED     PTR;
             10754    1   DCL VX$BIT_A(0:0)        BIT(36)   ALIGNED   BASED     PTR;
      753    10757        %T$C;

             10769    1   /*******************************************************************************
             10770    1   *                                                                              *
             10771    1   *                          T$C                                                 *
             10772    1   *                                                                              *
PL6.E3A0      #003=VXM$LEVEL File=VXM$MAP.:E05TSI                                WED 07/30/97 08:21 Page:201
             10773    1   *******************************************************************************/

             10778    1   DCL 1 T$C           BASED     ALIGNED,  /* Text count                         */
             10779    1         2 COUNT        UBIN( 9) UNAL,
             10780    1         2 CHARS        CHAR( T$C.COUNT )   UNAL;
             10781    1   DCL 1 T$C_UNAL      BASED     UNAL,     /* Text count                         */
             10782    1         2 COUNT        UBIN( 9) UNAL,
             10783    1         2 CHARS        CHAR( T$C_UNAL.COUNT ) UNAL;
      754    10786        %SET LISTMAC='1'B;
      755    10787        %SET LISTSUB='1'B;
      756    10788        %SET LISTEXP='1'B;
      757    10789
      758    10790        %P;
             10791        %LSET LISTDIR='0'B;

             10798    1   /*******************************************************************************
             10799    1   *                                                                              *
             10800    1   *                          PARAMETERS                                             *
             10801    1   *                                                                              *
             10802    1   *******************************************************************************/

      759    10806    1   DCL  START$   PTR;                      /* Pointer to root node */
      760    10807    1   DCL  CURR$    PTR;                      /* Pointer to current node */
      761    10808    1   DCL  DESIRED_LEVEL  UBIN;               /* Desired level for node summaries */
      762    10809    1   DCL  CURRENT_LEVEL  UBIN;               /* Level the current node is at  */
      763    10810    1   DCL MORE_LEVELS BIT(1) ALIGNED;
             10810            /* Flag set if there are nodes below the desired level */
      764    10811        %C;
             10812        %LSET LISTDIR='0'B;

             10819    1   /*******************************************************************************
             10820    1   *                                                                              *
             10821    1   *                          CHAR                                                 *
             10822    1   *                                                                              *
             10823    1   *******************************************************************************/

      765    10827    1   DCL  SUMMARY  CHAR(81)   STATIC   INIT(
PL6.E3A0      #003=VXM$LEVEL File=VXM$MAP.:E05TSI                                WED 07/30/97 08:21 Page:202
      766    10828    1             'A                                    9K');
      767    10829        %PTR;
             10830        %LSET LISTDIR='0'B;

             10837    1   /*******************************************************************************
             10838    1   *                                                                              *
             10839    1   *                          PTR                                                 *
             10840    1   *                                                                              *
             10841    1   *******************************************************************************/

      768    10845    1   DCL   BACK$     PTR    AUTO;
      769    10846    1   DCL   FORWARD$  PTR    AUTO;
      770    10847    1   DCL   OVERLAY$  PTR    AUTO;
      771    10848        %POINTER;
             10849    1   DCL P$         PTR       ALIGNED AUTO;
             10850    1   DCL Q$         PTR       ALIGNED AUTO;
             10851    1   DCL R$         PTR       ALIGNED AUTO;
      772    10853        %U;
             10854        %LSET LISTDIR='0'B;

             10861    1   /*******************************************************************************
             10862    1   *                                                                              *
             10863    1   *                          UBIN                                                 *
             10864    1   *                                                                              *
             10865    1   *******************************************************************************/

      773    10869    1   DCL   LOW_INDEX (0:1)     UBIN    CONSTANT  INIT ( 40, 61 );
      774    10870    1   DCL   HIGH_INDEX(0:1)     UBIN    CONSTANT  INIT ( 47, 68 );
      775    10871    1   DCL   SIZE_INDEX(0:1)     UBIN    CONSTANT  INIT ( 54, 75 );
      776    10872    1   DCL   NAME_SIZE           UBIN    STATIC;
      777    10873    1   DCL   PARENT_NAME_SIZE    UBIN    STATIC;
      778    10874    1   DCL   I                   UBIN    STATIC;
      779    10875    1   DCL   SIZE                UBIN    STATIC;
      780    10876    1   DCL   NEXT_LEVEL          UBIN    AUTO;
      781    10877        %E;
             10878        %LSET LISTDIR='0'B;

PL6.E3A0      #003=VXM$LEVEL File=VXM$MAP.:E05TSI                                WED 07/30/97 08:21 Page:203
             10885    1   /*******************************************************************************
             10886    1   *                                                                              *
             10887    1   *                          ENTRY                                                 *
             10888    1   *                                                                              *
             10889    1   *******************************************************************************/

      782    10893        %ENTRIES;
             10894    1   DCL VXE$ERROR       ENTRY(4);
             10895    1   DCL VXE$ERR         ENTRY(3);
             10896    1   DCL VXE$MERC        ENTRY;
             10897    1   DCL VXE$ERRMSG      ENTRY(3);
             10898    1   DCL VXR$READ        ENTRY( 3 );
             10899    1   DCL VXW$WRITE       ENTRY( 3 );
             10900    1   DCL VXW$WRITE_DO    ENTRY( 2 );
             10901    1   DCL VXD$B2C         ENTRY( 5 );
             10902    1   DCL VXD$C2B         ENTRY( 3 );
             10903    1   DCL VXA$GET         ENTRY( 3 );
             10904    1   DCL VXF$FREE        ENTRY( 3 );
             10905    1   DCL VXQ$SORT        ENTRY( 7 );
             10906    1   DCL VXY$YESNO       ENTRY( 1 );
      783    10908        %S;
             10909        %LSET LISTDIR='0'B;

             10916    1   /*******************************************************************************
             10917    1   *                                                                              *
             10918    1   *                          SBIN                                                 *
             10919    1   *                                                                              *
             10920    1   *******************************************************************************/

      784    10924    1   DCL S_START (0:2/*@ROS*/)  SBIN    WORD    ALIGNED     AUTO;
      785    10925    1   DCL S_STOP  (0:2/*@ROS*/)  SBIN    WORD    ALIGNED     AUTO;
      786    10926    1   DCL S_SIZE  (0:2/*@ROS*/)  SBIN    WORD    ALIGNED     AUTO;
      787    10927        %BANNER(ARG="VX$TREE_HEADER - VX$TREE_NODE");
             10928        %LSET LISTDIR='0'B;

             10935    1   /*******************************************************************************
             10936    1   *                                                                              *
PL6.E3A0      #003=VXM$LEVEL File=VXM$MAP.:E05TSI                                WED 07/30/97 08:21 Page:204
             10937    1   *                          VX$TREE_HEADER - VX$TREE_NODE                          *
             10938    1   *                                                                              *
             10939    1   *******************************************************************************/

      788    10943        %B$TREE_TABLE(HDR_NAME=VX$TREE_HEADER, NODE_NAME=VX$TREE_NODE );
             10944    1   DCL 1 VX$TREE_HEADER BASED ALIGNED,
             10945              /*K*  HDR_NAME is the Tree table header.  */
             10946    1         2 NODES UBIN HALF UNAL,
             10947                /*K*  NODES is the number of nodes in the tree table.  */
             10948    1         2 SIZE UBIN HALF UNAL,
             10949                /*K*  SIZE is the total word size of the tree table
             10950                      (HDR + NODES + TEST pool).   */
             10951    1         2 LIB$ PTR,
             10952                /*K*  LIB$ is the pointer to the name of the shared library
             10953                      currently associated.  */
             10954    1         2 PRECSIZE UBIN HALF UNAL,
             10955                /*K*  PRECSIZE  is the maximum program record size in the
             10956                      Run Unit (from the Head record).  */
             10957    1         2 MAX_LIB_DATA UBIN HALF UNAL;
             10958                /*K*  MAX_LIB_DATA is the maximum reserved in the program
             10959                      image for the shared library data.  */
             10960    1   DCL 1 VX$TREE_NODE BASED ALIGNED,
             10961              /*K*  NODE_NAME is the node specification.  */
             10962    1         2 NAME$ PTR,
             10963                /*K*  NAME$ is the pointer to the name of the node.  */
             10964    1         2 FLGS,
             10965                /*K*  FLGS are control flags used by M$OLAY.  */
             10966    1           3 NOW_IN BIT(1) UNAL,
             10967                  /*K*  NOW_IN is set if this node is now in memory.  */
             10968    1           3 WAS_IN BIT(1) UNAL,
             10969                  /*K*  WAS_IN is set if this node was in memory.  */
             10970    1           3 * BIT(7) UNAL,
             10971                  /*K*  * is reserved for future use and must be zero.  */
             10972    1         2 AFLGS,
             10973                /*K*  AFLGS are access flags.  */
             10974    1           3 * BIT(6) UNAL,
             10975                  /*K*  * is reserved for future use and must be zero.  */
PL6.E3A0      #003=VXM$LEVEL File=VXM$MAP.:E05TSI                                WED 07/30/97 08:21 Page:205
             10976    1           3 NOPATH BIT(1) UNAL,
             10977                  /*K*  NOPATH is set if this node is independently loaded
             10978                        (no backward path).  */
             10979    1           3 ENTER BIT(1) UNAL,
             10980                  /*K*  ENTER is set if ENTRY$ is valid.  */
             10981    1           3 CANCEL BIT(1) UNAL,
             10982                  /*K*  CANCEL is set if the overlay was removed by
             10983                        "CANCEL=YES".   */
             10984    1         2 BACK# SBIN HALF UNAL,
             10985                /*K*  BACK# is the backward link (parent).  */
             10986    1         2 FORWARD# SBIN HALF UNAL,
             10987                /*K*  FORWARD# is the forward link (daughter).  */
             10988    1         2 OVERLAY# SBIN HALF UNAL,
             10989                /*K*  OVERLAY# is the overlay link (same level).   */
             10990    1         2 PADDR UBIN HALF UNAL,
             10991                /*K*  PADDR is the address of procedure.  */
             10992    1         2 PSIZE UBIN HALF UNAL,
             10993                /*K*  PSIZE is the size of procedure.  */
             10994    1         2 DADDR UBIN HALF UNAL,
             10995                /*K*  DADDR is the address of data.  */
             10996    1         2 DSIZE UBIN HALF UNAL,
             10997                /*K*  DSIZE is the size of data.  */
             10998    1         2 ENTRY$ EPTR;
             10999                /*K*  ENTRY$ is the overlay entry point (see ENTER).  */
      789    11001        %BANNER(ARG=FPTS);
             11002        %LSET LISTDIR='0'B;

             11009    1   /*******************************************************************************
             11010    1   *                                                                              *
             11011    1   *                          FPTS                                                 *
             11012    1   *                                                                              *
             11013    1   *******************************************************************************/

      790    11017        %PLIST;
      791    11018        %FPT_WRITE( FPTN=VX_MAP_LO_FPT_WRITE, STCLASS=SYMREF);
      792    11049        %FPT_WRITE( FPTN=VX_MAP_LIT_LO_FPT_WRITE, STCLASS=SYMREF);
      793    11080        %EJECT;
PL6.E3A0      #003=VXM$LEVEL File=VXM$MAP.:E05TSI                                WED 07/30/97 08:21 Page:206
      794    11081        /*
      795    11082              Variables for map(ping)
      796    11083        */
      797    11084    1   DCL VX_MAP$               PTR  ALIGNED   SYMREF;
      798    11085    1   DCL VX_MAP_TREE_START$    PTR  ALIGNED   SYMREF;
      799    11086    1   DCL VX_MAP_NUM            SBIN WORD ALIGNED   SYMREF;
      800    11087    1   DCL 1 VX_MBUF ALIGNED SYMREF,
      801    11088    1         2 CHARS CHAR(132) UNAL,
      802    11089    1         2 CHARS_A(0:131) REDEF CHARS CHAR(1) UNAL,
      803    11090    1         2 LIT_BUF REDEF CHARS UNAL,
      804    11091    1           3 VFC CHAR(1) UNAL,
      805    11092    1           3 CHARS CHAR(131) UNAL;
      806    11093        %EJECT;
PL6.E3A0      #003=VXM$LEVEL File=VXM$MAP.:E05TSI                                WED 07/30/97 08:21 Page:207
      807    11094    2         IF CURRENT_LEVEL = DESIRED_LEVEL THEN DO;

  11094  4 000002   200006 470500                    LDP0    @CURRENT_LEVEL,,AUTO
         4 000003   200005 471500                    LDP1    @DESIRED_LEVEL,,AUTO
         4 000004   000000 236100                    LDQ     0,,PR0
         4 000005   100000 116100                    CMPQ    0,,PR1
         4 000006   000426 601000 4                  TNZ     s:11163

      808    11095        /*
      809    11096                                          Print a summary for each node at this
      810    11097                                          level and set MORE_LEVELS if there are
      811    11098                                          any nodes at a lower level
      812    11099        */
      813    11100    2             VX_MBUF.CHARS = 'A';

  11100  4 000007   040000 100400                    MLR     fill='040'O
         4 000010   000000 000001 5                  ADSC9   0                        cn=0,n=1
         4 000011   000000 000204 xsym               ADSC9   VX_MBUF                  cn=0,n=132

      814    11101    2             VX_MAP_LO_FPT_WRITE.BUF_ = VECTOR( VX_MBUF );

  11101  4 000012   000002 237000 5                  LDAQ    2
         4 000013   000004 757000 xsym               STAQ    VX_MAP_LO_FPT_WRITE+4

      815    11102    2             VX_MAP_LIT_LO_FPT_WRITE.BUF_ = VECTOR( SUMMARY );

  11102  4 000014   000004 237000 5                  LDAQ    4
         4 000015   000004 757000 xsym               STAQ    VX_MAP_LIT_LO_FPT_WRITE+4

      816    11103    2             CALL INSERT( SUMMARY, 0, 1, 'A' );

  11103  4 000016   101000 236003                    LDQ     33280,DU
         4 000017   000000 552040 2                  STBQ    SUMMARY,'40'O

      817    11104    2             OVERLAY$ = CURR$;

  11104  4 000020   200004 473500                    LDP3    @CURR$,,AUTO
PL6.E3A0      #003=VXM$LEVEL File=VXM$MAP.:E05TSI                                WED 07/30/97 08:21 Page:208
         4 000021   300000 236100                    LDQ     0,,PR3
         4 000022   200012 756100                    STQ     OVERLAY$,,AUTO

      818    11105    3             DO WHILE ( OVERLAY$ ~= ADDR(NIL) );

  11105  4 000023   000422 710000 4                  TRA     s:11156

      819    11106    3                 IF OVERLAY$->VX$TREE_NODE.FORWARD# > 0 THEN MORE_LEVELS = '1'B
             11106                          /*@TRUE_B*/;

  11106  4 000024   200012 470500                    LDP0    OVERLAY$,,AUTO
         4 000025   000002 220100                    LDX0    2,,PR0
         4 000026   000032 604400 4                  TMOZ    s:11107

  11106  4 000027   400000 236003                    LDQ     -131072,DU
         4 000030   200007 471500                    LDP1    @MORE_LEVELS,,AUTO
         4 000031   100000 756100                    STQ     0,,PR1

      820    11107    3                 S_START(0/*@DATA*/) = OVERLAY$ -> VX$TREE_NODE.DADDR;

  11107  4 000032   000004 236100                    LDQ     4,,PR0
         4 000033   000022 772000                    QRL     18
         4 000034   200017 756100                    STQ     S_START,,AUTO

      821    11108    3                 S_START(1/*@PROC*/) = OVERLAY$ -> VX$TREE_NODE.PADDR;

  11108  4 000035   000003 236100                    LDQ     3,,PR0
         4 000036   000022 772000                    QRL     18
         4 000037   200020 756100                    STQ     S_START+1,,AUTO

      822    11109    3                 S_SIZE(0/*@DATA*/) = OVERLAY$ -> VX$TREE_NODE.DSIZE;

  11109  4 000040   000004 236100                    LDQ     4,,PR0
         4 000041   777777 376007                    ANQ     -1,DL
         4 000042   200025 756100                    STQ     S_SIZE,,AUTO

      823    11110    3                 S_SIZE(1/*@PROC*/) = OVERLAY$ -> VX$TREE_NODE.PSIZE;
PL6.E3A0      #003=VXM$LEVEL File=VXM$MAP.:E05TSI                                WED 07/30/97 08:21 Page:209

  11110  4 000043   000003 236100                    LDQ     3,,PR0
         4 000044   777777 376007                    ANQ     -1,DL
         4 000045   200026 756100                    STQ     S_SIZE+1,,AUTO

      824    11111    3                 SIZE = (S_SIZE(0/*@DATA*/) + 1024/*@PAGE_SIZE*/-1) / 1024
             11111                          /*@PAGE_SIZE*/

  11111  4 000046   200025 236100                    LDQ     S_SIZE,,AUTO
         4 000047   001777 036007                    ADLQ    1023,DL
         4 000050   002000 506007                    DIV     1024,DL
         4 000051   200030 756100                    STQ     S_SIZE+3,,AUTO
         4 000052   200026 236100                    LDQ     S_SIZE+1,,AUTO
         4 000053   001777 036007                    ADLQ    1023,DL
         4 000054   002000 506007                    DIV     1024,DL
         4 000055   200030 036100                    ADLQ    S_SIZE+3,,AUTO
         4 000056   000030 756000 2                  STQ     SIZE

      825    11112    3                         + (S_SIZE(1/*@PROC*/) + 1024/*@PAGE_SIZE*/-1) / 1024
             11112                                  /*@PAGE_SIZE*/;
      826    11113    3                 CALL VXD$B2C( SUMMARY, 33, 5, SIZE, 10 );

  11113  4 000057   000006 630400 5                  EPPR0   6
         4 000060   000023 631400 xsym               EPPR1   B_VECTNIL+19
         4 000061   000000 701000 xent               TSX1    VXD$B2C
         4 000062   000000 011000                    NOP     0

      827    11114    4                 DO I = 0/*@DATA*/ TO 1/*@PROC*/;

  11114  4 000063   000027 450000 2                  STZ     I

      828    11115    5                     IF S_SIZE(I) > 0 THEN DO;

  11115  4 000064   000027 720000 2                  LXL0    I
         4 000065   200025 235110                    LDA     S_SIZE,X0,AUTO
         4 000066   000131 604400 4                  TMOZ    s:11121

PL6.E3A0      #003=VXM$LEVEL File=VXM$MAP.:E05TSI                                WED 07/30/97 08:21 Page:210
      829    11116    5                         CALL VXD$B2C( SUMMARY, LOW_INDEX(I), 6, S_START(I), 8 );

  11116  4 000067   000013 236000 5                  LDQ     11
         4 000070   200034 756100                    STQ     S_SIZE+7,,AUTO
         4 000071   200017 630510                    EPPR0   S_START,X0,AUTO
         4 000072   200033 450500                    STP0    S_SIZE+6,,AUTO
         4 000073   000014 236000 5                  LDQ     12
         4 000074   200032 756100                    STQ     S_SIZE+5,,AUTO
         4 000075   000000 631410 3                  EPPR1   LOW_INDEX,X0
         4 000076   200031 451500                    STP1    S_SIZE+4,,AUTO
         4 000077   000005 236000 5                  LDQ     5
         4 000100   200030 756100                    STQ     S_SIZE+3,,AUTO
         4 000101   200030 630500                    EPPR0   S_SIZE+3,,AUTO
         4 000102   000023 631400 xsym               EPPR1   B_VECTNIL+19
         4 000103   000000 701000 xent               TSX1    VXD$B2C
         4 000104   000000 011000                    NOP     0

      830    11117    5                         S_STOP(I) = S_START(I) + S_SIZE(I) - 1;

  11117  4 000105   000027 720000 2                  LXL0    I
         4 000106   200017 236110                    LDQ     S_START,X0,AUTO
         4 000107   200025 036110                    ADLQ    S_SIZE,X0,AUTO
         4 000110   000001 136007                    SBLQ    1,DL
         4 000111   200022 756110                    STQ     S_STOP,X0,AUTO

      831    11118    5                         CALL VXD$B2C( SUMMARY, HIGH_INDEX(I), 6, S_STOP(I), 8 );

  11118  4 000112   000013 236000 5                  LDQ     11
         4 000113   200034 756100                    STQ     S_SIZE+7,,AUTO
         4 000114   200022 630510                    EPPR0   S_STOP,X0,AUTO
         4 000115   200033 450500                    STP0    S_SIZE+6,,AUTO
         4 000116   000014 236000 5                  LDQ     12
         4 000117   200032 756100                    STQ     S_SIZE+5,,AUTO
         4 000120   000002 631410 3                  EPPR1   HIGH_INDEX,X0
         4 000121   200031 451500                    STP1    S_SIZE+4,,AUTO
         4 000122   000005 236000 5                  LDQ     5
         4 000123   200030 756100                    STQ     S_SIZE+3,,AUTO
PL6.E3A0      #003=VXM$LEVEL File=VXM$MAP.:E05TSI                                WED 07/30/97 08:21 Page:211
         4 000124   200030 630500                    EPPR0   S_SIZE+3,,AUTO
         4 000125   000023 631400 xsym               EPPR1   B_VECTNIL+19
         4 000126   000000 701000 xent               TSX1    VXD$B2C
         4 000127   000000 011000                    NOP     0

      832    11119    5                        END;

  11119  4 000130   000143 710000 4                  TRA     s:11123

      833    11120    5                     ELSE DO;

      834    11121    5                         CALL INSERT( SUMMARY, LOW_INDEX(I), , ' ' );

  11121  4 000131   000000 235010 3                  LDA     LOW_INDEX,X0
         4 000132   200030 755100                    STA     S_SIZE+3,,AUTO
         4 000133   000000 235010 3                  LDA     LOW_INDEX,X0
         4 000134   000027 675000 xsym               ERA     B_VECTNIL+23
         4 000135   000122 035007                    ADLA    82,DL
         4 000136   000000 621005                    EAX1    0,AL
         4 000137   200030 235100                    LDA     S_SIZE+3,,AUTO
         4 000140   040045 100400                    MLR     fill='040'O
         4 000141   000035 000001 xsym               ADSC9   B_VECTNIL+29             cn=0,n=1
         4 000142   000000 000011 2                  ADSC9   SUMMARY,A                cn=0,n=*X1

      835    11122    5                        END;

      836    11123    4                     CALL VXD$B2C( SUMMARY, SIZE_INDEX(I), 6, S_SIZE(I), 8 );

  11123  4 000143   000013 236000 5                  LDQ     11
         4 000144   200034 756100                    STQ     S_SIZE+7,,AUTO
         4 000145   000027 720000 2                  LXL0    I
         4 000146   200025 630510                    EPPR0   S_SIZE,X0,AUTO
         4 000147   200033 450500                    STP0    S_SIZE+6,,AUTO
         4 000150   000014 236000 5                  LDQ     12
         4 000151   200032 756100                    STQ     S_SIZE+5,,AUTO
         4 000152   000004 631410 3                  EPPR1   SIZE_INDEX,X0
         4 000153   200031 451500                    STP1    S_SIZE+4,,AUTO
PL6.E3A0      #003=VXM$LEVEL File=VXM$MAP.:E05TSI                                WED 07/30/97 08:21 Page:212
         4 000154   000005 236000 5                  LDQ     5
         4 000155   200030 756100                    STQ     S_SIZE+3,,AUTO
         4 000156   200030 630500                    EPPR0   S_SIZE+3,,AUTO
         4 000157   000023 631400 xsym               EPPR1   B_VECTNIL+19
         4 000160   000000 701000 xent               TSX1    VXD$B2C
         4 000161   000000 011000                    NOP     0

      837    11124    4                    END;                   /* do i = @DATA to @PROC  */

  11124  4 000162   000027 235000 2                  LDA     I
         4 000163   000001 035007                    ADLA    1,DL
         4 000164   000027 755000 2                  STA     I
         4 000165   000002 115007                    CMPA    2,DL
         4 000166   000064 602000 4                  TNC     s:11115

      838    11125    3                 R$ = ADDR( OVERLAY$ -> VX$TREE_NODE.NAME$ );

  11125  4 000167   200012 236100                    LDQ     OVERLAY$,,AUTO
         4 000170   200015 756100                    STQ     R$,,AUTO

      839    11126    3                 P$ = PINCRW( VX_MAP_TREE_START$, R$ -> VX$HALF_A(0) );

  11126  4 000171   200015 470500                    LDP0    R$,,AUTO
         4 000172   000100 100500                    MLR     fill='000'O
         4 000173   000000 000002                    ADSC9   0,,PR0                   cn=0,n=2
         4 000174   200030 000004                    ADSC9   S_SIZE+3,,AUTO           cn=0,n=4
         4 000175   200030 220100                    LDX0    S_SIZE+3,,AUTO
         4 000176   000000 636010                    EAQ     0,X0
         4 000177   000000 036000 xsym               ADLQ    VX_MAP_TREE_START$
         4 000200   200013 756100                    STQ     P$,,AUTO

      840    11127    3                 CALL INSERT( SUMMARY, 1, 31, P$ -> T$C_UNAL.CHARS );

  11127  4 000201   200013 471500                    LDP1    P$,,AUTO
         4 000202   000100 101500                    MRL     fill='000'O
         4 000203   100000 000001                    ADSC9   0,,PR1                   cn=0,n=1
         4 000204   200030 000002                    ADSC9   S_SIZE+3,,AUTO           cn=0,n=2
PL6.E3A0      #003=VXM$LEVEL File=VXM$MAP.:E05TSI                                WED 07/30/97 08:21 Page:213
         4 000205   200030 220100                    LDX0    S_SIZE+3,,AUTO
         4 000206   040000 100540                    MLR     fill='040'O
         4 000207   100000 200010                    ADSC9   0,,PR1                   cn=1,n=*X0
         4 000210   000000 200037 2                  ADSC9   SUMMARY                  cn=1,n=31

      841    11128    3                 NAME_SIZE = P$ -> T$C_UNAL.COUNT;

  11128  4 000211   000000 101500                    MRL     fill='000'O
         4 000212   100000 000001                    ADSC9   0,,PR1                   cn=0,n=1
         4 000213   000025 000004 2                  ADSC9   NAME_SIZE                cn=0,n=4

      842    11129    4                 IF DESIRED_LEVEL = 0 THEN DO; /* Processing the root node */

  11129  4 000214   200005 473500                    LDP3    @DESIRED_LEVEL,,AUTO
         4 000215   300000 235100                    LDA     0,,PR3
         4 000216   000224 601000 4                  TNZ     s:11133

      843    11130    4                     CALL M$WRITE( VX_MAP_LIT_LO_FPT_WRITE ) ALTRET( MAP_IO_ERROR);

  11130  4 000217   000000 630400 xsym               EPPR0   VX_MAP_LIT_LO_FPT_WRITE
         4 000220   440001 713400                    CLIMB   alt,write
         4 000221   401400 401760                    pmme    nvectors=4
         4 000222   000506 702000 4                  TSX2    MAP_IO_ERROR

      844    11131    4                     RETURN;

  11131  4 000223   000000 702200 xent               TSX2  ! X66_ARET

      845    11132    4                    END;
      846    11133    3                 VX_MAP_NUM = CURR$ -> VX$TREE_NODE.BACK#;

  11133  4 000224   200004 474500                    LDP4    @CURR$,,AUTO
         4 000225   400000 475500                    LDP5    0,,PR4
         4 000226   500001 236100                    LDQ     1,,PR5
         4 000227   000022 736000                    QLS     18
         4 000230   000022 732000                    QRS     18
         4 000231   000000 756000 xsym               STQ     VX_MAP_NUM
PL6.E3A0      #003=VXM$LEVEL File=VXM$MAP.:E05TSI                                WED 07/30/97 08:21 Page:214

      847    11134    3                 BACK$ = PINCRW( START$, VX_MAP_NUM * SIZEW(VX$TREE_NODE) );

  11134  4 000232   200003 475500                    LDP5    @START$,,AUTO
         4 000233   500000 476500                    LDP6    0,,PR5
         4 000234   000006 402007                    MPY     6,DL
         4 000235   600000 637506                    EPPR7   0,QL,PR6
         4 000236   200010 457500                    STP7    BACK$,,AUTO

      848    11135    3                 R$ = ADDR( BACK$ -> VX$TREE_NODE.NAME$ );

  11135  4 000237   200010 236100                    LDQ     BACK$,,AUTO
         4 000240   200015 756100                    STQ     R$,,AUTO

      849    11136    3                 P$ = PINCRW( VX_MAP_TREE_START$, R$ -> VX$HALF_A(0) );

  11136  4 000241   200015 470500                    LDP0    R$,,AUTO
         4 000242   000100 100500                    MLR     fill='000'O
         4 000243   000000 000002                    ADSC9   0,,PR0                   cn=0,n=2
         4 000244   200030 000004                    ADSC9   S_SIZE+3,,AUTO           cn=0,n=4
         4 000245   200030 220100                    LDX0    S_SIZE+3,,AUTO
         4 000246   000000 636010                    EAQ     0,X0
         4 000247   000000 036000 xsym               ADLQ    VX_MAP_TREE_START$
         4 000250   200013 756100                    STQ     P$,,AUTO

      850    11137    3                 PARENT_NAME_SIZE = P$ -> T$C_UNAL.COUNT + 2;

  11137  4 000251   200013 471500                    LDP1    P$,,AUTO
         4 000252   000100 101500                    MRL     fill='000'O
         4 000253   100000 000001                    ADSC9   0,,PR1                   cn=0,n=1
         4 000254   200030 000004                    ADSC9   S_SIZE+3,,AUTO           cn=0,n=4
         4 000255   200030 236100                    LDQ     S_SIZE+3,,AUTO
         4 000256   000002 036007                    ADLQ    2,DL
         4 000257   000026 756000 2                  STQ     PARENT_NAME_SIZE

      851    11138    3                 IF NAME_SIZE + PARENT_NAME_SIZE + 2 > 31

PL6.E3A0      #003=VXM$LEVEL File=VXM$MAP.:E05TSI                                WED 07/30/97 08:21 Page:215
  11138  4 000260   000025 036000 2                  ADLQ    NAME_SIZE
         4 000261   000036 116007                    CMPQ    30,DL
         4 000262   000340 602000 4                  TNC     s:11147

      852    11139    4                 THEN DO;

      853    11140    4                     CALL M$WRITE ( VX_MAP_LIT_LO_FPT_WRITE ) ALTRET (MAP_IO_ERROR);

  11140  4 000263   000000 630400 xsym               EPPR0   VX_MAP_LIT_LO_FPT_WRITE
         4 000264   440001 713400                    CLIMB   alt,write
         4 000265   401400 401760                    pmme    nvectors=4
         4 000266   000506 702000 4                  TSX2    MAP_IO_ERROR

      854    11141    4                     CALL INSERT( VX_MBUF.CHARS, 34-PARENT_NAME_SIZE,

  11141  4 000267   200013 470500                    LDP0    P$,,AUTO
         4 000270   000100 101500                    MRL     fill='000'O
         4 000271   000000 000001                    ADSC9   0,,PR0                   cn=0,n=1
         4 000272   200030 000002                    ADSC9   S_SIZE+3,,AUTO           cn=0,n=2
         4 000273   200030 220100                    LDX0    S_SIZE+3,,AUTO
         4 000274   000000 235003                    LDA     0,DU
         4 000275   000026 135000 2                  SBLA    PARENT_NAME_SIZE
         4 000276   000026 721000 2                  LXL1    PARENT_NAME_SIZE
         4 000277   040045 100400                    MLR     fill='040'O
         4 000300   000015 000001 5                  ADSC9   13                       cn=0,n=1
         4 000301   000010 400011 xsym               ADSC9   VX_MBUF+8,A              cn=2,n=*X1
         4 000302   000026 236000 2                  LDQ     PARENT_NAME_SIZE
         4 000303   000002 116007                    CMPQ    2,DL
         4 000304   000330 602000 4                  TNC     s:11143
         4 000305   777777 622006                    EAX2    -1,QL
         4 000306   040045 100540                    MLR     fill='040'O
         4 000307   000000 200010                    ADSC9   0,,PR0                   cn=1,n=*X0
         4 000310   000010 600012 xsym               ADSC9   VX_MBUF+8,A              cn=3,n=*X2
         4 000311   000000 635010                    EAA     0,X0
         4 000312   000022 771000                    ARL     18
         4 000313   200031 755100                    STA     S_SIZE+4,,AUTO
         4 000314   200031 136100                    SBLQ    S_SIZE+4,,AUTO
PL6.E3A0      #003=VXM$LEVEL File=VXM$MAP.:E05TSI                                WED 07/30/97 08:21 Page:216
         4 000315   000001 116007                    CMPQ    1,DL
         4 000316   000330 604400 4                  TMOZ    s:11143
         4 000317   200032 756100                    STQ     S_SIZE+5,,AUTO
         4 000320   000000 636010                    EAQ     0,X0
         4 000321   000022 772000                    QRL     18
         4 000322   000026 136000 2                  SBLQ    PARENT_NAME_SIZE
         4 000323   200032 723100                    LXL3    S_SIZE+5,,AUTO
         4 000324   777777 624013                    EAX4    -1,X3
         4 000325   040046 100400                    MLR     fill='040'O
         4 000326   000016 000001 5                  ADSC9   14                       cn=0,n=1
         4 000327   000010 600014 xsym               ADSC9   VX_MBUF+8,Q              cn=3,n=*X4

      855    11142    4                             PARENT_NAME_SIZE, '<', P$ -> T$C_UNAL.CHARS, '>' );
      856    11143    4                     CALL M$WRITE( VX_MAP_LO_FPT_WRITE ) ALTRET ( MAP_IO_ERROR );

  11143  4 000330   000000 630400 xsym               EPPR0   VX_MAP_LO_FPT_WRITE
         4 000331   440001 713400                    CLIMB   alt,write
         4 000332   401400 401760                    pmme    nvectors=4
         4 000333   000506 702000 4                  TSX2    MAP_IO_ERROR

      857    11144    4                     VX_MBUF.CHARS = 'A';

  11144  4 000334   040000 100400                    MLR     fill='040'O
         4 000335   000000 000001 5                  ADSC9   0                        cn=0,n=1
         4 000336   000000 000204 xsym               ADSC9   VX_MBUF                  cn=0,n=132

      858    11145    4                    END;

  11145  4 000337   000404 710000 4                  TRA     s:11151

      859    11146    4                 ELSE DO;

      860    11147    4                     CALL INSERT( SUMMARY, 32-PARENT_NAME_SIZE, PARENT_NAME_SIZE,

  11147  4 000340   000100 101500                    MRL     fill='000'O
         4 000341   100000 000001                    ADSC9   0,,PR1                   cn=0,n=1
         4 000342   200030 000002                    ADSC9   S_SIZE+3,,AUTO           cn=0,n=2
PL6.E3A0      #003=VXM$LEVEL File=VXM$MAP.:E05TSI                                WED 07/30/97 08:21 Page:217
         4 000343   200030 220100                    LDX0    S_SIZE+3,,AUTO
         4 000344   000000 235003                    LDA     0,DU
         4 000345   000026 135000 2                  SBLA    PARENT_NAME_SIZE
         4 000346   000026 721000 2                  LXL1    PARENT_NAME_SIZE
         4 000347   040045 100400                    MLR     fill='040'O
         4 000350   000015 000001 5                  ADSC9   13                       cn=0,n=1
         4 000351   000010 000011 2                  ADSC9   SUMMARY+8,A              cn=0,n=*X1
         4 000352   000026 236000 2                  LDQ     PARENT_NAME_SIZE
         4 000353   000002 116007                    CMPQ    2,DL
         4 000354   000400 602000 4                  TNC     s:11149
         4 000355   777777 622006                    EAX2    -1,QL
         4 000356   040045 100540                    MLR     fill='040'O
         4 000357   100000 200010                    ADSC9   0,,PR1                   cn=1,n=*X0
         4 000360   000010 200012 2                  ADSC9   SUMMARY+8,A              cn=1,n=*X2
         4 000361   000000 635010                    EAA     0,X0
         4 000362   000022 771000                    ARL     18
         4 000363   200031 755100                    STA     S_SIZE+4,,AUTO
         4 000364   200031 136100                    SBLQ    S_SIZE+4,,AUTO
         4 000365   000001 116007                    CMPQ    1,DL
         4 000366   000400 604400 4                  TMOZ    s:11149
         4 000367   200032 756100                    STQ     S_SIZE+5,,AUTO
         4 000370   000000 636010                    EAQ     0,X0
         4 000371   000022 772000                    QRL     18
         4 000372   000026 136000 2                  SBLQ    PARENT_NAME_SIZE
         4 000373   200032 723100                    LXL3    S_SIZE+5,,AUTO
         4 000374   777777 624013                    EAX4    -1,X3
         4 000375   040046 100400                    MLR     fill='040'O
         4 000376   000016 000001 5                  ADSC9   14                       cn=0,n=1
         4 000377   000010 200014 2                  ADSC9   SUMMARY+8,Q              cn=1,n=*X4

      861    11148    4                             '<', P$ -> T$C_UNAL.CHARS, '>' );
      862    11149    4                     CALL M$WRITE( VX_MAP_LIT_LO_FPT_WRITE ) ALTRET ( MAP_IO_ERROR );

  11149  4 000400   000000 630400 xsym               EPPR0   VX_MAP_LIT_LO_FPT_WRITE
         4 000401   440001 713400                    CLIMB   alt,write
         4 000402   401400 401760                    pmme    nvectors=4
         4 000403   000506 702000 4                  TSX2    MAP_IO_ERROR
PL6.E3A0      #003=VXM$LEVEL File=VXM$MAP.:E05TSI                                WED 07/30/97 08:21 Page:218

      863    11150    4                    END;

      864    11151    3                 VX_MAP_NUM = OVERLAY$ -> VX$TREE_NODE.OVERLAY#;

  11151  4 000404   200012 470500                    LDP0    OVERLAY$,,AUTO
         4 000405   000002 236100                    LDQ     2,,PR0
         4 000406   000022 736000                    QLS     18
         4 000407   000022 732000                    QRS     18
         4 000410   000000 756000 xsym               STQ     VX_MAP_NUM

      865    11152    3                 IF VX_MAP_NUM > 0 THEN

  11152  4 000411   000420 604400 4                  TMOZ    s:11155

      866    11153    3                     OVERLAY$ = PINCRW( START$, VX_MAP_NUM * SIZEW(VX$TREE_NODE) );

  11153  4 000412   200003 471500                    LDP1    @START$,,AUTO
         4 000413   100000 473500                    LDP3    0,,PR1
         4 000414   000006 402007                    MPY     6,DL
         4 000415   300000 634506                    EPPR4   0,QL,PR3
         4 000416   200012 454500                    STP4    OVERLAY$,,AUTO
         4 000417   000422 710000 4                  TRA     s:11156

      867    11154    3                 ELSE
      868    11155    3                     OVERLAY$ = ADDR( NIL );

  11155  4 000420   000001 236000 xsym               LDQ     B_VECTNIL+1
         4 000421   200012 756100                    STQ     OVERLAY$,,AUTO

      869    11156    3                END;                       /* end do while(OVERLAY$~=addr(nil))*/

  11156  4 000422   200012 236100                    LDQ     OVERLAY$,,AUTO
         4 000423   000001 116000 xsym               CMPQ    B_VECTNIL+1
         4 000424   000024 601000 4                  TNZ     s:11106

      870    11157    2            END;                   /* if CURRENT_LEVEL = DESIRED_LEVEL then do */
PL6.E3A0      #003=VXM$LEVEL File=VXM$MAP.:E05TSI                                WED 07/30/97 08:21 Page:219

  11157  4 000425   000505 710000 4                  TRA     s:11178

      871    11158    2         ELSE DO;                  /* if CURRENT_LEVEL = DESIRED_LEVEL then do */

      872    11159                                    /* Not at the desired level for the node summaries.
      873    11160                                       For each node at this level, recursively continue
      874    11161                                       searching for the desired level.
      875    11162                                    */
      876    11163    2             NEXT_LEVEL = CURRENT_LEVEL + 1;

  11163  4 000426   000001 036007                    ADLQ    1,DL
         4 000427   200016 756100                    STQ     NEXT_LEVEL,,AUTO

      877    11164    2             OVERLAY$ = CURR$;

  11164  4 000430   200004 473500                    LDP3    @CURR$,,AUTO
         4 000431   300000 236100                    LDQ     0,,PR3
         4 000432   200012 756100                    STQ     OVERLAY$,,AUTO

      878    11165    3             DO WHILE ( OVERLAY$ ~= ADDR(NIL) );

  11165  4 000433   000502 710000 4                  TRA     s:11176

      879    11166    3                 VX_MAP_NUM = OVERLAY$ -> VX$TREE_NODE.FORWARD#;

  11166  4 000434   200012 470500                    LDP0    OVERLAY$,,AUTO
         4 000435   000002 236100                    LDQ     2,,PR0
         4 000436   000022 732000                    QRS     18
         4 000437   000000 756000 xsym               STQ     VX_MAP_NUM

      880    11167    4                 IF VX_MAP_NUM > 0 THEN DO;

  11167  4 000440   000464 604400 4                  TMOZ    s:11171

      881    11168    4                     FORWARD$ = PINCRW( START$, VX_MAP_NUM * SIZEW(VX$TREE_NODE) );

PL6.E3A0      #003=VXM$LEVEL File=VXM$MAP.:E05TSI                                WED 07/30/97 08:21 Page:220
  11168  4 000441   200003 471500                    LDP1    @START$,,AUTO
         4 000442   100000 473500                    LDP3    0,,PR1
         4 000443   000006 402007                    MPY     6,DL
         4 000444   300000 634506                    EPPR4   0,QL,PR3
         4 000445   200011 454500                    STP4    FORWARD$,,AUTO

      882    11169    4                     CALL VXM$LEVEL( START$, FORWARD$, DESIRED_LEVEL, NEXT_LEVEL,
             11169                              MORE_LEVELS );

  11169  4 000446   200007 236100                    LDQ     @MORE_LEVELS,,AUTO
         4 000447   200034 756100                    STQ     S_SIZE+7,,AUTO
         4 000450   200016 633500                    EPPR3   NEXT_LEVEL,,AUTO
         4 000451   200033 453500                    STP3    S_SIZE+6,,AUTO
         4 000452   200005 236100                    LDQ     @DESIRED_LEVEL,,AUTO
         4 000453   200032 756100                    STQ     S_SIZE+5,,AUTO
         4 000454   200011 635500                    EPPR5   FORWARD$,,AUTO
         4 000455   200031 455500                    STP5    S_SIZE+4,,AUTO
         4 000456   200003 236100                    LDQ     @START$,,AUTO
         4 000457   200030 756100                    STQ     S_SIZE+3,,AUTO
         4 000460   200030 630500                    EPPR0   S_SIZE+3,,AUTO
         4 000461   000023 631400 xsym               EPPR1   B_VECTNIL+19
         4 000462   000000 701000 4                  TSX1    s:8
         4 000463   000000 011000                    NOP     0

      883    11170    4                    END;

      884    11171    3                 VX_MAP_NUM = OVERLAY$ -> VX$TREE_NODE.OVERLAY#;

  11171  4 000464   200012 470500                    LDP0    OVERLAY$,,AUTO
         4 000465   000002 236100                    LDQ     2,,PR0
         4 000466   000022 736000                    QLS     18
         4 000467   000022 732000                    QRS     18
         4 000470   000000 756000 xsym               STQ     VX_MAP_NUM

      885    11172    3                 IF VX_MAP_NUM > 0 THEN

  11172  4 000471   000500 604400 4                  TMOZ    s:11175
PL6.E3A0      #003=VXM$LEVEL File=VXM$MAP.:E05TSI                                WED 07/30/97 08:21 Page:221

      886    11173    3                     OVERLAY$ = PINCRW( START$, VX_MAP_NUM * SIZEW(VX$TREE_NODE) );

  11173  4 000472   200003 471500                    LDP1    @START$,,AUTO
         4 000473   100000 473500                    LDP3    0,,PR1
         4 000474   000006 402007                    MPY     6,DL
         4 000475   300000 634506                    EPPR4   0,QL,PR3
         4 000476   200012 454500                    STP4    OVERLAY$,,AUTO
         4 000477   000502 710000 4                  TRA     s:11176

      887    11174    3                 ELSE
      888    11175    3                     OVERLAY$ = ADDR(NIL);

  11175  4 000500   000001 236000 xsym               LDQ     B_VECTNIL+1
         4 000501   200012 756100                    STQ     OVERLAY$,,AUTO

      889    11176    3                END;                       /* end do while(OVERLAY$~=addr(nill))*/

  11176  4 000502   200012 236100                    LDQ     OVERLAY$,,AUTO
         4 000503   000001 116000 xsym               CMPQ    B_VECTNIL+1
         4 000504   000434 601000 4                  TNZ     s:11166

      890    11177    2            END;                           /* end else do  */

      891    11178    1         RETURN;

  11178  4 000505   000000 702200 xent               TSX2  ! X66_ARET

      892    11179
      893    11180
      894    11181
      895    11182
      896    11183    1   MAP_IO_ERROR:
      897    11184    1         CALL M$MERC                             ALTRET( MERC_ERROR );

  11184  4 000506   410007 713400       MAP_IO_ERROR CLIMB   alt,+4103
         4 000507   000000 401760                    pmme    nvectors=0
PL6.E3A0      #003=VXM$LEVEL File=VXM$MAP.:E05TSI                                WED 07/30/97 08:21 Page:222
         4 000510   000513 702000 4                  TSX2    MERC_ERROR

      898    11185              %ERROR_IT;

  11186  4 000511   000002 713400                    CLIMB   err
         4 000512   000000 401760                    pmme    nvectors=0

      899    11188    1   MERC_ERROR:
      900    11189    1         CALL VXE$MERC;

  11189  4 000513   000002 631400 xsym  MERC_ERROR   EPPR1   B_VECTNIL+2
         4 000514   000000 701000 xent               TSX1    VXE$MERC
         4 000515   000000 011000                    NOP     0

      901    11190
      902    11191
      903    11192    1   END VXM$LEVEL;

  11192  4 000516   000000 702200 xent               TSX2  ! X66_ARET
      904    11193        %EOD;

PL6.E3A0      #003=VXM$LEVEL File=VXM$MAP.:E05TSI                                WED 07/30/97 08:21 Page:223
--  Include file information  --

   F_DCB_D.:E05TOU  is referenced.
   VX_DCB_R.:E05TOU  cannot be made into a system file and is referenced.
   VX_DATA_R.:E05TOU  cannot be made into a system file and is referenced.
   VX_FIXED_R.:E05TOU  cannot be made into a system file and is referenced.
   XU_MACRO_C.:E05TOU  is referenced.
   CP_6.:E05TOU  cannot be made into a system file and is referenced.
   VX_MACRO_C.:E05TOU  is referenced.
   VX_PERR_C.:E05TOU  is referenced.
   VX_SUBS_C.:E05TOU  is referenced.
   VX_SWITCH_C.:E05TOU  is referenced.
   B$OBJECT_C.:E05TOU  is referenced.
   VX_INC_C.:E05TOU  is referenced.
   B$JIT_C.:E05TOU  was found in the system file and is never referenced.
   CP_6_C.:E05TOU  was found in the system file and is referenced.
      No diagnostics issued in procedure VXM$LEVEL.
PL6.E3A0      #003=VXM$LEVEL File=VXM$MAP.:E05TSI                                WED 07/30/97 08:21 Page:224

 **** Variables and constants ****

  ****  Section 002  Data  VXM$LEVEL

  ****  Scalars and arrays  ****
OctLoc.c.b A Datatyp(siz) R M Lvl/name                 OctLoc.c.b A Datatyp(siz) R M Lvl/name

    27-0-0/w UBIN        r     1 I                         25-0-0/w UBIN        r     1 NAME_SIZE
    26-0-0/w UBIN        r     1 PARENT_NAME_SIZE          30-0-0/w UBIN        r     1 SIZE
     0-0-0/c CHAR(81)    r     1 SUMMARY

  ****  Section 003 RoData VXM$LEVEL

  ****  Scalars and arrays  ****
OctLoc.c.b A Datatyp(siz) R M Lvl/name                 OctLoc.c.b A Datatyp(siz) R M Lvl/name

     2-0-0/w UBIN        r     1 HIGH_INDEX(0:1)
     0-0-0/w UBIN        r     1 LOW_INDEX(0:1)
     4-0-0/w UBIN        r     1 SIZE_INDEX(0:1)

  ****  Auto variables  ****

  ****  Scalars and arrays  ****
OctLoc.c.b A Datatyp(siz) R M Lvl/name                 OctLoc.c.b A Datatyp(siz) R M Lvl/name

     4-0-0/w PTR         r     1 @CURR$                     6-0-0/w PTR         r     1 @CURRENT_LEVEL
     5-0-0/w PTR         r     1 @DESIRED_LEVEL             7-0-0/w PTR         r     1 @MORE_LEVELS
     3-0-0/w PTR         r     1 @START$                   10-0-0/w PTR         r     1 BACK$
    *0-0-0/w PTR         r     1 CURR$                     *0-0-0/w UBIN        r     1 CURRENT_LEVEL
    *0-0-0/w UBIN        r     1 DESIRED_LEVEL             11-0-0/w PTR         r     1 FORWARD$
    *0-0-0/w BIT         r     1 MORE_LEVELS               16-0-0/w UBIN        r     1 NEXT_LEVEL
    12-0-0/w PTR         r     1 OVERLAY$                  13-0-0/w PTR         r     1 P$
    15-0-0/w PTR         r     1 R$                        *0-0-0/w PTR         r     1 START$
    25-0-0/w SBIN        r     1 S_SIZE(0:2)
    17-0-0/w SBIN        r     1 S_START(0:2)
    22-0-0/w SBIN        r     1 S_STOP(0:2)

PL6.E3A0      #003=VXM$LEVEL File=VXM$MAP.:E05TSI                                WED 07/30/97 08:21 Page:225
  ****  SYMREF variables  ****

  ****  Scalars and arrays  ****
OctLoc.c.b A Datatyp(siz) R M Lvl/name                 OctLoc.c.b A Datatyp(siz) R M Lvl/name

     0-0-0/d STRC(432)   r     1 VX_MAP_LIT_LO_FPT_WRITE
     0-0-0/d STRC(432)   r     1 VX_MAP_LO_FPT_WRITE        0-0-0/w SBIN        r     1 VX_MAP_NUM
     0-0-0/w PTR         r     1 VX_MAP_TREE_START$         0-0-0/w STRC(1188)  r     1 VX_MBUF

  ****  BASED and DCB variables  ****

  ****  Scalars and arrays  ****
OctLoc.c.b A Datatyp(siz) R M Lvl/name                 OctLoc.c.b A Datatyp(siz) R M Lvl/name

     0-0-0/w ASTR(9)     r     1 T$C                        0-0-0/c ASTR(9)     r     1 T$C_UNAL
     0-0-0/h UBIN(18)    r     1 VX$HALF_A(0:0)
     0-0-0/w STRC(216)   r     1 VX$TREE_NODE


   Procedure VXM$LEVEL requires 335 words for executable code.
   Procedure VXM$LEVEL requires 30 words of local(AUTO) storage.
PL6.E3A0      #003=VXM$LEVEL File=VXM$MAP.:E05TSI                                WED 07/30/97 08:21 Page:226
          *** CROSS REFERENCE LISTING ***
**     DENOTES     IDENTIFIER DEFINITION
<<                 IDENTIFIER'S VALUE SET
>>                 IDENTIFIER'S VALUE USED
<>                 IDENTIFIER SET AND/OR USED
--                 IDENTIFIER REFERENCED
PL6.E3A0      #003=VXM$LEVEL File=VXM$MAP.:E05TSI                                WED 07/30/97 08:21 Page:227
          MINI XREF LISTING

BACK$
     10845**DCL     11134<<ASSIGN  11135>>ASSIGN
CURR$
     10807**DCL         7--PROC    11104>>ASSIGN  11133>>ASSIGN  11164>>ASSIGN
CURRENT_LEVEL
     10809**DCL         7--PROC    11094>>IF      11163>>ASSIGN
DESIRED_LEVEL
     10808**DCL         7--PROC    11094>>IF      11129>>IF      11169<>CALL
FORWARD$
     10846**DCL     11168<<ASSIGN  11169<>CALL
HIGH_INDEX
     10870**DCL     11118<>CALL
I
     10874**DCL     11114<<DOINDEX 11115>>IF      11116>>CALL    11116>>CALL    11117>>ASSIGN  11117>>ASSIGN
     11117>>ASSIGN  11118>>CALL    11118>>CALL    11121>>CALLBLT 11123>>CALL    11123>>CALL
LOW_INDEX
     10869**DCL     11116<>CALL    11121>>CALLBLT
M$ERR
      5084**DCL-ENT 11186--CALL
M$MERC
      5128**DCL-ENT 11184--CALL
M$WRITE
      5073**DCL-ENT 11130--CALL    11140--CALL    11143--CALL    11149--CALL
MAP_IO_ERROR
     11184**LABEL   11130--CALLALT 11140--CALLALT 11143--CALLALT 11149--CALLALT
MERC_ERROR
     11189**LABEL   11184--CALLALT
MORE_LEVELS
     10810**DCL         7--PROC    11106<<ASSIGN  11169<>CALL
NAME_SIZE
     10872**DCL     11128<<ASSIGN  11138>>IF
NEXT_LEVEL
PL6.E3A0      #003=VXM$LEVEL File=VXM$MAP.:E05TSI                                WED 07/30/97 08:21 Page:228
     10876**DCL     11163<<ASSIGN  11169<>CALL
OVERLAY$
     10847**DCL     11104<<ASSIGN  11105>>DOWHILE 11106>>IF      11107>>ASSIGN  11108>>ASSIGN  11109>>ASSIGN
     11110>>ASSIGN  11125>>ASSIGN  11151>>ASSIGN  11153<<ASSIGN  11155<<ASSIGN  11164<<ASSIGN  11165>>DOWHILE
     11166>>ASSIGN  11171>>ASSIGN  11173<<ASSIGN  11175<<ASSIGN
P$
     10849**DCL     11126<<ASSIGN  11127>>CALLBLT 11127>>CALLBLT 11128>>ASSIGN  11136<<ASSIGN  11137>>ASSIGN
     11141>>CALLBLT 11141>>CALLBLT 11147>>CALLBLT 11147>>CALLBLT
PARENT_NAME_SIZE
     10873**DCL     11137<<ASSIGN  11138>>IF      11141>>CALLBLT 11141>>CALLBLT 11147>>CALLBLT 11147>>CALLBLT
R$
     10851**DCL     11125<<ASSIGN  11126>>ASSIGN  11135<<ASSIGN  11136>>ASSIGN
SIZE
     10875**DCL     11111<<ASSIGN  11113<>CALL
SIZE_INDEX
     10871**DCL     11123<>CALL
START$
     10806**DCL         7--PROC    11134>>ASSIGN  11153>>ASSIGN  11168>>ASSIGN  11169<>CALL    11173>>ASSIGN
SUMMARY
     10827**DCL     11102--ASSIGN  11103<<CALLBLT 11113<>CALL    11116<>CALL    11118<>CALL    11121<<CALLBLT
     11123<>CALL    11127<<CALLBLT 11147<<CALLBLT
S_SIZE
     10926**DCL     11109<<ASSIGN  11110<<ASSIGN  11111>>ASSIGN  11111>>ASSIGN  11115>>IF      11117>>ASSIGN
     11123<>CALL
S_START
     10924**DCL     11107<<ASSIGN  11108<<ASSIGN  11116<>CALL    11117>>ASSIGN
S_STOP
     10925**DCL     11117<<ASSIGN  11118<>CALL
T$C.COUNT
     10779**DCL     10780--IMP-SIZ
T$C_UNAL.CHARS
     10783**DCL     11127>>CALLBLT 11141>>CALLBLT 11147>>CALLBLT
T$C_UNAL.COUNT
     10782**DCL     10783--IMP-SIZ 11127>>CALLBLT 11128>>ASSIGN  11137>>ASSIGN  11141>>CALLBLT 11147>>CALLBLT
VX$HALF_A
     10747**DCL     11126>>ASSIGN  11136>>ASSIGN
PL6.E3A0      #003=VXM$LEVEL File=VXM$MAP.:E05TSI                                WED 07/30/97 08:21 Page:229
VX$TREE_NODE
     10960**DCL     11134--ASSIGN  11153--ASSIGN  11168--ASSIGN  11173--ASSIGN
VX$TREE_NODE.BACK#
     10984**DCL     11133>>ASSIGN
VX$TREE_NODE.DADDR
     10994**DCL     11107>>ASSIGN
VX$TREE_NODE.DSIZE
     10996**DCL     11109>>ASSIGN
VX$TREE_NODE.FORWARD#
     10986**DCL     11106>>IF      11166>>ASSIGN
VX$TREE_NODE.NAME$
     10962**DCL     11125--ASSIGN  11135--ASSIGN
VX$TREE_NODE.OVERLAY#
     10988**DCL     11151>>ASSIGN  11171>>ASSIGN
VX$TREE_NODE.PADDR
     10990**DCL     11108>>ASSIGN
VX$TREE_NODE.PSIZE
     10992**DCL     11110>>ASSIGN
VXD$B2C
     10901**DCL-ENT 11113--CALL    11116--CALL    11118--CALL    11123--CALL
VXE$MERC
     10896**DCL-ENT 11189--CALL
VXM$LEVEL
         7**PROC    11169--CALL
VX_BIAS.A
      9575**DCL      9576--REDEF
VX_CBUF.CHARS_A
      9509**DCL      9510--REDEF
VX_CONST_DCB.ACTPOS
     10691**DCL     10691--REDEF
VX_CONST_DCB.ARS#
     10650**DCL     10650--REDEF
VX_CONST_DCB.ATTR#
     10680**DCL     10680--REDEF   10682--REDEF
VX_CONST_DCB.BORROW
     10702**DCL     10702--REDEF   10702--REDEF   10702--REDEF
PL6.E3A0      #003=VXM$LEVEL File=VXM$MAP.:E05TSI                                WED 07/30/97 08:21 Page:230
VX_CONST_DCB.EOMCHAR#
     10657**DCL     10658--REDEF
VX_CONST_DCB.FLDID
     10694**DCL     10695--REDEF
VX_CONST_DCB.FORM$
     10686**DCL     10686--REDEF
VX_CONST_DCB.FSECT
     10709**DCL     10709--REDEF
VX_CONST_DCB.FSN#
     10676**DCL     10676--REDEF   10676--REDEF   10677--REDEF
VX_CONST_DCB.HEADER$
     10685**DCL     10686--REDEF
VX_CONST_DCB.IXTNSIZE#
     10682**DCL     10683--REDEF
VX_CONST_DCB.LASTSTA$
     10666**DCL     10666--REDEF
VX_CONST_DCB.LVL
     10703**DCL     10703--REDEF
VX_CONST_DCB.NAME#.C
     10666**DCL     10667--REDEF
VX_CONST_DCB.NOEOF
     10698**DCL     10698--REDEF
VX_CONST_DCB.NRECS#
     10683**DCL     10683--REDEF
VX_CONST_DCB.NRECX
     10710**DCL     10710--REDEF
VX_CONST_DCB.OHDR
     10699**DCL     10699--REDEF
VX_CONST_DCB.ORG#
     10674**DCL     10675--REDEF
VX_CONST_DCB.PRECNO
     10707**DCL     10707--REDEF
VX_CONST_DCB.RCSZ
     10715**DCL     10715--REDEF
VX_CONST_DCB.RES#
     10668**DCL     10668--REDEF
PL6.E3A0      #003=VXM$LEVEL File=VXM$MAP.:E05TSI                                WED 07/30/97 08:21 Page:231
VX_CONST_DCB.SETX
     10687**DCL     10687--REDEF
VX_CONST_DCB.TAB$
     10686**DCL     10686--REDEF
VX_CONST_DCB.TDA
     10706**DCL     10707--REDEF
VX_CONST_DCB.WSN#
     10668**DCL     10669--REDEF
VX_EBUF.CHARS_A
     10098**DCL     10099--REDEF
VX_EFIELD1.CHARS
     10107**DCL     10108--REDEF
VX_EFIELD2.CHARS
     10111**DCL     10112--REDEF
VX_EFIELD3.CHARS
     10115**DCL     10116--REDEF
VX_EI_KEY_BUF.KEY
     10491**DCL     10492--REDEF
VX_ERRORS
      9552**DCL      9563--REDEF
VX_ERRORS.CONFLICT_A
      9558**DCL      9559--REDEF
VX_ERRORS.UNSAT_A
      9554**DCL      9555--REDEF
VX_IMAGE_DATA.CPAGE#_A
      8689**DCL      8690--REDEF
VX_IMAGE_DATA.NODE_A$
      8701**DCL      8702--REDEF
VX_IMAGE_DATA.START_A$
      8693**DCL      8694--REDEF
VX_IMAGE_DATA.STOP_A$
      8697**DCL      8698--REDEF
VX_IMAGE_DS3.CPAGE#_A
      8758**DCL      8759--REDEF
VX_IMAGE_DS3.NODE_A$
      8770**DCL      8771--REDEF
PL6.E3A0      #003=VXM$LEVEL File=VXM$MAP.:E05TSI                                WED 07/30/97 08:21 Page:232
VX_IMAGE_DS3.START_A$
      8762**DCL      8763--REDEF
VX_IMAGE_DS3.STOP_A$
      8766**DCL      8767--REDEF
VX_IMAGE_DS4.CPAGE#_A
      8781**DCL      8782--REDEF
VX_IMAGE_DS4.NODE_A$
      8793**DCL      8794--REDEF
VX_IMAGE_DS4.START_A$
      8785**DCL      8786--REDEF
VX_IMAGE_DS4.STOP_A$
      8789**DCL      8790--REDEF
VX_IMAGE_DS5.CPAGE#_A
      8804**DCL      8805--REDEF
VX_IMAGE_DS5.NODE_A$
      8816**DCL      8817--REDEF
VX_IMAGE_DS5.START_A$
      8808**DCL      8809--REDEF
VX_IMAGE_DS5.STOP_A$
      8812**DCL      8813--REDEF
VX_IMAGE_DS6.CPAGE#_A
      8827**DCL      8828--REDEF
VX_IMAGE_DS6.NODE_A$
      8839**DCL      8840--REDEF
VX_IMAGE_DS6.START_A$
      8831**DCL      8832--REDEF
VX_IMAGE_DS6.STOP_A$
      8835**DCL      8836--REDEF
VX_IMAGE_DS7.CPAGE#_A
      8850**DCL      8851--REDEF
VX_IMAGE_DS7.NODE_A$
      8862**DCL      8863--REDEF
VX_IMAGE_DS7.START_A$
      8854**DCL      8855--REDEF
VX_IMAGE_DS7.STOP_A$
      8858**DCL      8859--REDEF
PL6.E3A0      #003=VXM$LEVEL File=VXM$MAP.:E05TSI                                WED 07/30/97 08:21 Page:233
VX_IMAGE_DS8.CPAGE#_A
      8873**DCL      8874--REDEF
VX_IMAGE_DS8.NODE_A$
      8885**DCL      8886--REDEF
VX_IMAGE_DS8.START_A$
      8877**DCL      8878--REDEF
VX_IMAGE_DS8.STOP_A$
      8881**DCL      8882--REDEF
VX_IMAGE_PROC.CPAGE#_A
      8712**DCL      8713--REDEF
VX_IMAGE_PROC.NODE_A$
      8724**DCL      8725--REDEF
VX_IMAGE_PROC.START_A$
      8716**DCL      8717--REDEF
VX_IMAGE_PROC.STOP_A$
      8720**DCL      8721--REDEF
VX_IMAGE_ROS.CPAGE#_A
      8735**DCL      8736--REDEF
VX_IMAGE_ROS.NODE_A$
      8747**DCL      8748--REDEF
VX_IMAGE_ROS.START_A$
      8739**DCL      8740--REDEF
VX_IMAGE_ROS.STOP_A$
      8743**DCL      8744--REDEF
VX_MAP_LIT_LO_FPT_WRITE
     11066**DCL     11130<>CALL    11140<>CALL    11149<>CALL
VX_MAP_LIT_LO_FPT_WRITE.BUF_
     11066**DCL     11102<<ASSIGN
VX_MAP_LIT_LO_FPT_WRITE.STATION_
     11068**DCL     11068--REDEF
VX_MAP_LIT_LO_FPT_WRITE.V.DVBYTE.VFC#
     11075**DCL     11075--REDEF
VX_MAP_LO_FPT_WRITE
     11035**DCL     11143<>CALL
VX_MAP_LO_FPT_WRITE.BUF_
     11035**DCL     11101<<ASSIGN
PL6.E3A0      #003=VXM$LEVEL File=VXM$MAP.:E05TSI                                WED 07/30/97 08:21 Page:234
VX_MAP_LO_FPT_WRITE.STATION_
     11037**DCL     11037--REDEF
VX_MAP_LO_FPT_WRITE.V.DVBYTE.VFC#
     11044**DCL     11044--REDEF
VX_MAP_NUM
     11086**DCL     11133<<ASSIGN  11134>>ASSIGN  11151<<ASSIGN  11152>>IF      11153>>ASSIGN  11166<<ASSIGN
     11167>>IF      11168>>ASSIGN  11171<<ASSIGN  11172>>IF      11173>>ASSIGN
VX_MAP_TREE_START$
     11085**DCL     11126>>ASSIGN  11136>>ASSIGN
VX_MBUF
     11087**DCL     11101--ASSIGN
VX_MBUF.CHARS
     11088**DCL     11089--REDEF   11090--REDEF   11100<<ASSIGN  11141<<CALLBLT 11144<<ASSIGN
VX_M_VECTOR.F
      8540**DCL      8544--REDEF
VX_M_VECTOR_DP.F
      8575**DCL      8579--REDEF
VX_O.ACCTN_A$
      9704**DCL      9705--REDEF
VX_O.DCB_MATCH_A$
      9713**DCL      9714--REDEF
VX_O.DCB_MATCH_HIT_A
      9719**DCL      9720--REDEF
VX_O.FIDN_A$
      9698**DCL      9699--REDEF
VX_O.FID_A$
      9690**DCL      9691--REDEF
VX_O.INCLUDE_A$
      9710**DCL      9711--REDEF
VX_O.MAP_A
      9684**DCL      9685--REDEF
VX_O.NODCB_A
      9741**DCL      9742--REDEF
VX_O.NUM_A
      9629**DCL      9631--REDEF
VX_O.OPT_A
PL6.E3A0      #003=VXM$LEVEL File=VXM$MAP.:E05TSI                                WED 07/30/97 08:21 Page:235
      9729**DCL      9730--REDEF
VX_O.PRIV_A
      9645**DCL      9647--REDEF
VX_O.SIN_A
      9598**DCL      9599--REDEF
VX_O.TCB_A
      9725**DCL      9726--REDEF
VX_OD.ACCTN_A$
      9902**DCL      9903--REDEF
VX_OD.DCB_MATCH_A$
      9911**DCL      9912--REDEF
VX_OD.FIDN_A$
      9896**DCL      9897--REDEF
VX_OD.FID_A$
      9888**DCL      9889--REDEF
VX_OD.INCLUDE_A$
      9908**DCL      9909--REDEF
VX_OD.MAP_A
      9882**DCL      9883--REDEF
VX_OD.NODCB_A
      9926**DCL      9927--REDEF
VX_OD.NUM_A
      9829**DCL      9830--REDEF
VX_OD.PRIV_A
      9844**DCL      9845--REDEF
VX_OD.SIN_A
      9798**DCL      9799--REDEF
VX_OD.VECTOR_A$
      9917**DCL      9918--REDEF
VX_OL.MAX_A
      9773**DCL      9775--REDEF
VX_OL.MIN_A
      9758**DCL      9759--REDEF
VX_ON.ACCTN_A$
     10047**DCL     10049--REDEF
VX_ON.DCB_MATCH_A$
PL6.E3A0      #003=VXM$LEVEL File=VXM$MAP.:E05TSI                                WED 07/30/97 08:21 Page:236
     10058**DCL     10060--REDEF
VX_ON.FIDN_A$
     10040**DCL     10042--REDEF
VX_ON.FID_A$
     10031**DCL     10033--REDEF
VX_ON.INCLUDE_A$
     10054**DCL     10056--REDEF
VX_ON.MAP_A
     10024**DCL     10026--REDEF
VX_ON.NODCB_A$
     10074**DCL     10075--REDEF
VX_ON.NUM_A
      9969**DCL      9971--REDEF
VX_ON.PRIV_A
      9985**DCL      9987--REDEF
VX_ON.SIN_A
      9937**DCL      9939--REDEF
VX_ON.VECTOR_A$
     10065**DCL     10066--REDEF
VX_OUHEAD.VERSION
      9384**DCL      9386--REDEF
VX_OU_HEAD
      9327**DCL      9366--REDEF
VX_OU_HEAD.REC_A
      9339**DCL      9342--REDEF
VX_O_KEY_BUF.FORM0
      8588**DCL      8591--REDEF    8598--REDEF
VX_O_KEY_BUF_L.FORM0
      8611**DCL      8614--REDEF    8621--REDEF
VX_PASS2_REF.OU.L_START
     10277**DCL     10282--REDEF
VX_PASS2_REF.OU.L_STOP
     10283**DCL     10288--REDEF
VX_PASS2_REF.OU.MAX
     10271**DCL     10276--REDEF
VX_PASS2_REF.OU.SIZE
PL6.E3A0      #003=VXM$LEVEL File=VXM$MAP.:E05TSI                                WED 07/30/97 08:21 Page:237
     10289**DCL     10294--REDEF
VX_PASS2_REF.SAT.COUNT
     10316**DCL     10322--REDEF
VX_PASS2_REF.SAT.ENT_SIZE
     10323**DCL     10329--REDEF
VX_PASS2_REF.SAT.L_START
     10302**DCL     10308--REDEF
VX_PASS2_REF.SAT.L_STOP
     10309**DCL     10315--REDEF
VX_PASS2_REF.SAT.MAX
     10296**DCL     10301--REDEF
VX_PASS2_REF.UNSAT.L_START
     10364**DCL     10369--REDEF
VX_PASS2_REF.UNSAT.L_STOP
     10370**DCL     10375--REDEF
VX_PASS2_REF.UNSAT.L_WHERE
     10376**DCL     10381--REDEF
VX_PASS2_REF.UNSAT.MAX
     10358**DCL     10363--REDEF
VX_PASS2_REF.UNSAT.PAGE#
     10388**DCL     10393--REDEF
VX_PASS2_REF.UNSAT.SIZE
     10382**DCL     10387--REDEF
VX_PHRASE.PHRASE
      9790**DCL      9792--REDEF
VX_PROGRAM_BIAS.A
      9568**DCL      9569--REDEF
VX_R_KEY_BUF.FORM0
      8637**DCL      8641--REDEF    8647--REDEF
VX_SD.A
      8265**DCL      8266--REDEF
VX_SPC.B$.MINE
     10459**DCL     10465--REDEF
VX_SPC.B$.NAME
     10438**DCL     10444--REDEF
VX_SPC.B$.SKIP
PL6.E3A0      #003=VXM$LEVEL File=VXM$MAP.:E05TSI                                WED 07/30/97 08:21 Page:238
     10452**DCL     10458--REDEF
VX_SPC.B$.VALUE
     10445**DCL     10451--REDEF
VX_SPC.SEG.NAME
     10407**DCL     10413--REDEF
VX_SPC.SEG.VALUE
     10414**DCL     10420--REDEF
VX_TSX0_OVERLAY.H
     10182**DCL     10185--REDEF

PL6.E3A0      #004=VXX$CON File=VXM$MAP.:E05TSI                                  WED 07/30/97 08:22 Page:239
      905        1        /*T***********************************************************/
      906        2        /*T*                                                         */
      907        3        /*T* Copyright (c) Bull HN Information Systems Inc., 1997    */
      908        4        /*T*                                                         */
      909        5        /*T***********************************************************/
      910        6        VXX$CON: PROC  ASYNC;
      911        7
      912        8        %INCLUDE VX_INC_C;
      913    10724        %INCLUDE B$JIT;
      914    11014        %F$DCB;
      915    11071    1   DCL VXF$CLOSE       ENTRY(3);
      916    11072    1   DCL STEPCC     UBIN(36)  ALIGNED   AUTO;
      917    11073        %LIST;
      918    11074        %FPT_EXIT(FPTN=FPT_EXIT,
      919    11075                  STCLASS=STATIC);
             11076        %LSET LISTDIR='0'B;
             11086    1   DCL 1 FPT_EXIT STATIC DALIGNED,2 V_ BIT(72)INIT(VECTOR(FPT_EXIT.V))/**/,2 CODE_ BIT(
             11086            72)INIT(VECTOR(NIL))/**/,2
             11087    1   V DALIGNED,3 STEPCC# UBIN(9)UNAL INIT(0)/**/,3 CODE# REDEF STEPCC# BIT(9),3 * BIT(27
             11087            )INIT('0'B)
             11088    1   /**/,3 * BIT(36)INIT('0'B)/**/;
      920    11090
      921    11091
      922    11092
      923    11093    1         IF M$RF$ -> F$DCB.FCD# THEN CALL VXF$CLOSE( VX_RUF$, @RF, @SAVE );
      924    11094    1         IF M$LO$ -> F$DCB.FCD# THEN CALL VXF$CLOSE( VX_LOF$, @LO, @SAVE );
      925    11095    1         IF VX_ONLINE = @YES THEN CALL M$EXIT;
      926    11096    1         STEPCC = B$JIT$ -> B$JIT.STEPCC;
      927    11097    1         FPT_EXIT.V.STEPCC# = STEPCC;
      928    11098    2         IF STEPCC >= 6 THEN DO;
      929    11099    2             CALL M$XXX(FPT_EXIT);
      930    11100    2            END;
      931    11101    2         ELSE IF STEPCC >= 4 THEN DO;
      932    11102    2                 CALL M$ERR(FPT_EXIT);
      933    11103    2                END;
      934    11104    1             ELSE CALL M$EXIT(FPT_EXIT);
      935    11105    1   END VXX$CON;
PL6.E3A0      #004=VXX$CON File=VXM$MAP.:E05TSI                                  WED 07/30/97 08:22 Page:240

PL6.E3A0      #004=VXX$CON File=VXM$MAP.:E05TSI                                  WED 07/30/97 08:22 Page:241
--  Include file information  --

   B$JIT.:E05TOU  cannot be made into a system file and is referenced.
   F_DCB_D.:E05TOU  is referenced.
   VX_DCB_R.:E05TOU  cannot be made into a system file and is referenced.
   VX_DATA_R.:E05TOU  cannot be made into a system file and is referenced.
   VX_FIXED_R.:E05TOU  cannot be made into a system file and is referenced.
   XU_MACRO_C.:E05TOU  is referenced.
   CP_6.:E05TOU  cannot be made into a system file and is referenced.
   VX_MACRO_C.:E05TOU  is referenced.
   VX_PERR_C.:E05TOU  is referenced.
   VX_SUBS_C.:E05TOU  is referenced.
   VX_SWITCH_C.:E05TOU  is referenced.
   B$OBJECT_C.:E05TOU  is referenced.
   VX_INC_C.:E05TOU  is referenced.
   B$JIT_C.:E05TOU  was found in the system file and is referenced.
   CP_6_C.:E05TOU  was found in the system file and is referenced.
      No diagnostics issued in procedure VXX$CON.

   Procedure VXX$CON requires 47 words for executable code.
   Procedure VXX$CON requires 4 words of local(AUTO) storage.

    No errors detected in file VXM$MAP.:E05TSI    .

PL6.E3A0      #004=VXX$CON File=VXM$MAP.:E05TSI                                  WED 07/30/97 08:22 Page:242

 Object Unit name= VXX$CON                                    File name= VXM$MAP.:E05TOU
 UTS= JUL 30 '97 08:22:25.16 WED                              Compiler= PL-6/E31         Sev=      00
 SharedLib= :SHARED_SYSTEM                                    Alt SharedLib=


    ****  Control sections  ****

 Sect   Type Bound  Init  Size OctSiz  Section name(segment info)
    0   DCB   even  none     0      0  M$UC
    1  LblCom even  none    96    140  VX_CONST_DCB
    2   Data  even  none     6      6  VXX$CON
    3   Proc  even  none    47     57  VXX$CON
    4  RoData even  none     6      6  VXX$CON

    ****  Entry defs  ****

                              Check   Calling
                             calling  sequence
  Sect OctLoc Primary Altret sequence   type   Parms  Name
     3      0   yes            yes     Async       0  VXX$CON

  ****  Entry refs  ****

         Check        Calling
        calling       sequence
Altret sequence SRef   type   Args  Name
         yes           Std       3 VXF$CLOSE
                       nStd      0 X66_AAUTO
                       Std       0 B_CONSPOOL_D
                       nStd      0 X66_AARET
PL6.E3A0      #004=VXX$CON File=VXM$MAP.:E05TSI                                  WED 07/30/97 08:22 Page:243

  ****  Data refs  ****

  Flags:  r = read only, s = secondary
Flgs Name                             Flgs Name                             Flgs Name
     M$UC                                  B$JIT$                                VX_OU_HEAD
     VX_RUF$                               VX_LOF$                               VX_ERRORS
     VX_ONLINE                             M$LO$                                 M$RF$
     B_VECTNIL

  ****  Segment refs  ****

  Flags:  r = read only, s = secondary
Flgs Name                             Flgs Name                             Flgs Name
     NULLSID                               ISSID
PL6.E3A0      #004=VXX$CON File=VXM$MAP.:E05TSI                                  WED 07/30/97 08:22 Page:244


      905        1        /*T***********************************************************/
      906        2        /*T*                                                         */
      907        3        /*T* Copyright (c) Bull HN Information Systems Inc., 1997    */
      908        4        /*T*                                                         */
      909        5        /*T***********************************************************/
      910        6        VXX$CON: PROC  ASYNC;

      6  3 000000   000000 700200 xent  VXX$CON      TSX0  ! X66_AAUTO
         3 000001   000004 000000                    ZERO    4,0

      911        7
      912        8        %INCLUDE VX_INC_C;
      913    10724        %INCLUDE B$JIT;
      914    11014        %F$DCB;
      915    11071    1   DCL VXF$CLOSE       ENTRY(3);
      916    11072    1   DCL STEPCC     UBIN(36)  ALIGNED   AUTO;
      917    11073        %LIST;
      918    11074        %FPT_EXIT(FPTN=FPT_EXIT,
      919    11075                  STCLASS=STATIC);
             11076        %LSET LISTDIR='0'B;
             11086    1  DCL 1 FPT_EXIT STATIC DALIGNED,2 V_ BIT(72)INIT(VECTOR(FPT_EXIT.V))/**/,2 CODE_ BIT(
             11086            72)INIT(VECTOR(NIL))/**/,2
             11087    1  V DALIGNED,3 STEPCC# UBIN(9)UNAL INIT(0)/**/,3 CODE# REDEF STEPCC# BIT(9),3 * BIT(27
             11087            )INIT('0'B)
             11088    1   /**/,3 * BIT(36)INIT('0'B)/**/;
      920    11090
      921    11091
      922    11092
      923    11093    1         IF M$RF$ -> F$DCB.FCD# THEN CALL VXF$CLOSE( VX_RUF$, @RF, @SAVE );

  11093  3 000002   000000 470400 xsym               LDP0    M$RF$
         3 000003   000031 236100                    LDQ     25,,PR0
         3 000004   020000 316007                    CANQ    8192,DL
         3 000005   000012 600000 3                  TZE     s:11094

  11093  3 000006   000000 630400 4                  EPPR0   0
PL6.E3A0      #004=VXX$CON File=VXM$MAP.:E05TSI                                  WED 07/30/97 08:22 Page:245
         3 000007   000021 631400 xsym               EPPR1   B_VECTNIL+17
         3 000010   000000 701000 xent               TSX1    VXF$CLOSE
         3 000011   000000 011000                    NOP     0

      924    11094    1         IF M$LO$ -> F$DCB.FCD# THEN CALL VXF$CLOSE( VX_LOF$, @LO, @SAVE );

  11094  3 000012   000000 470400 xsym               LDP0    M$LO$
         3 000013   000031 236100                    LDQ     25,,PR0
         3 000014   020000 316007                    CANQ    8192,DL
         3 000015   000022 600000 3                  TZE     s:11095

  11094  3 000016   000003 630400 4                  EPPR0   3
         3 000017   000021 631400 xsym               EPPR1   B_VECTNIL+17
         3 000020   000000 701000 xent               TSX1    VXF$CLOSE
         3 000021   000000 011000                    NOP     0

      925    11095    1         IF VX_ONLINE = @YES THEN CALL M$EXIT;

  11095  3 000022   000000 235000 xsym               LDA     VX_ONLINE
         3 000023   000001 115007                    CMPA    1,DL
         3 000024   000027 601000 3                  TNZ     s:11096

  11095  3 000025   000001 713400                    CLIMB   exit
         3 000026   000000 401760                    pmme    nvectors=0

      926    11096    1         STEPCC = B$JIT$ -> B$JIT.STEPCC;

  11096  3 000027   000000 470400 xsym               LDP0    B$JIT$
         3 000030   000316 236100                    LDQ     206,,PR0
         3 000031   000022 772000                    QRL     18
         3 000032   000777 376007                    ANQ     511,DL
         3 000033   200003 756100                    STQ     STEPCC,,AUTO

      927    11097    1         FPT_EXIT.V.STEPCC# = STEPCC;

  11097  3 000034   000033 736000                    QLS     27
         3 000035   000004 552040 2                  STBQ    FPT_EXIT+4,'40'O
PL6.E3A0      #004=VXX$CON File=VXM$MAP.:E05TSI                                  WED 07/30/97 08:22 Page:246

      928    11098    2         IF STEPCC >= 6 THEN DO;

  11098  3 000036   200003 235100                    LDA     STEPCC,,AUTO
         3 000037   000006 115007                    CMPA    6,DL
         3 000040   000045 602000 3                  TNC     s:11101

      929    11099    2             CALL M$XXX(FPT_EXIT);

  11099  3 000041   000000 630400 2                  EPPR0   FPT_EXIT
         3 000042   000003 713400                    CLIMB   3
         3 000043   400400 401760                    pmme    nvectors=2

      930    11100    2            END;

  11100  3 000044   000056 710000 3                  TRA     s:11105

      931    11101    2         ELSE IF STEPCC >= 4 THEN DO;

  11101  3 000045   000004 115007                    CMPA    4,DL
         3 000046   000053 602000 3                  TNC     s:11104

      932    11102    2                 CALL M$ERR(FPT_EXIT);

  11102  3 000047   000000 630400 2                  EPPR0   FPT_EXIT
         3 000050   000002 713400                    CLIMB   err
         3 000051   400400 401760                    pmme    nvectors=2

      933    11103    2                END;

  11103  3 000052   000056 710000 3                  TRA     s:11105

      934    11104    1             ELSE CALL M$EXIT(FPT_EXIT);

  11104  3 000053   000000 630400 2                  EPPR0   FPT_EXIT
         3 000054   000001 713400                    CLIMB   exit
         3 000055   400400 401760                    pmme    nvectors=2
PL6.E3A0      #004=VXX$CON File=VXM$MAP.:E05TSI                                  WED 07/30/97 08:22 Page:247

      935    11105    1   END VXX$CON;

  11105  3 000056   000000 702200 xent               TSX2  ! X66_AARET

PL6.E3A0      #004=VXX$CON File=VXM$MAP.:E05TSI                                  WED 07/30/97 08:22 Page:248
--  Include file information  --

   B$JIT.:E05TOU  cannot be made into a system file and is referenced.
   F_DCB_D.:E05TOU  is referenced.
   VX_DCB_R.:E05TOU  cannot be made into a system file and is referenced.
   VX_DATA_R.:E05TOU  cannot be made into a system file and is referenced.
   VX_FIXED_R.:E05TOU  cannot be made into a system file and is referenced.
   XU_MACRO_C.:E05TOU  is referenced.
   CP_6.:E05TOU  cannot be made into a system file and is referenced.
   VX_MACRO_C.:E05TOU  is referenced.
   VX_PERR_C.:E05TOU  is referenced.
   VX_SUBS_C.:E05TOU  is referenced.
   VX_SWITCH_C.:E05TOU  is referenced.
   B$OBJECT_C.:E05TOU  is referenced.
   VX_INC_C.:E05TOU  is referenced.
   B$JIT_C.:E05TOU  was found in the system file and is referenced.
   CP_6_C.:E05TOU  was found in the system file and is referenced.
      No diagnostics issued in procedure VXX$CON.
PL6.E3A0      #004=VXX$CON File=VXM$MAP.:E05TSI                                  WED 07/30/97 08:22 Page:249

 **** Variables and constants ****

  ****  Section 002  Data  VXX$CON

  ****  Scalars and arrays  ****
OctLoc.c.b A Datatyp(siz) R M Lvl/name                 OctLoc.c.b A Datatyp(siz) R M Lvl/name

     0-0-0/d STRC(216)   r     1 FPT_EXIT

  ****  Auto variables  ****

  ****  Scalars and arrays  ****
OctLoc.c.b A Datatyp(siz) R M Lvl/name                 OctLoc.c.b A Datatyp(siz) R M Lvl/name

     3-0-0/w UBIN        r     1 STEPCC

  ****  SYMREF variables  ****

  ****  Scalars and arrays  ****
OctLoc.c.b A Datatyp(siz) R M Lvl/name                 OctLoc.c.b A Datatyp(siz) R M Lvl/name

     0-0-0/w PTR         r     1 B$JIT$                     0-0-0/w PTR         r     1 M$LO$
     0-0-0/w PTR         r     1 M$RF$                      0-0-0/w PTR         r     1 VX_LOF$
     0-0-0/w UBIN        r     1 VX_ONLINE                  0-0-0/w PTR         r     1 VX_RUF$

  ****  BASED and DCB variables  ****

  ****  Scalars and arrays  ****
OctLoc.c.b A Datatyp(siz) R M Lvl/name                 OctLoc.c.b A Datatyp(siz) R M Lvl/name

     0-0-0/d STRC(8856)  r     1 B$JIT                      0-0-0/d ASTR(3528)  r     1 F$DCB


   Procedure VXX$CON requires 47 words for executable code.
   Procedure VXX$CON requires 4 words of local(AUTO) storage.
PL6.E3A0      #004=VXX$CON File=VXM$MAP.:E05TSI                                  WED 07/30/97 08:22 Page:250

    No errors detected in file VXM$MAP.:E05TSI    .
PL6.E3A0      #004=VXX$CON File=VXM$MAP.:E05TSI                                  WED 07/30/97 08:22 Page:251
          *** CROSS REFERENCE LISTING ***
**     DENOTES     IDENTIFIER DEFINITION
<<                 IDENTIFIER'S VALUE SET
>>                 IDENTIFIER'S VALUE USED
<>                 IDENTIFIER SET AND/OR USED
--                 IDENTIFIER REFERENCED
PL6.E3A0      #004=VXX$CON File=VXM$MAP.:E05TSI                                  WED 07/30/97 08:22 Page:252
          MINI XREF LISTING

B$JIT.CPFLAGS1.SLEAZE
     10832**DCL     10832--REDEF
B$JIT.ERR.MID
     10739**DCL     10739--REDEF
B$JIT.JRESPEAK
     10900**DCL     10901--REDEF
B$JIT.ORIGINATOR_PORT.FROM_CR
     11009**DCL     11009--REDEF   11010--REDEF
B$JIT.PNR
     10913**DCL     10913--REDEF
B$JIT.STEPCC
     10965**DCL     11096>>ASSIGN
B$JIT.TSLINE
     11007**DCL     11008--REDEF
B$JIT$
      8908**DCL     10733--IMP-PTR 11096>>ASSIGN
F$DCB.ACTPOS
     11047**DCL     11047--REDEF
F$DCB.ARS#
     11021**DCL     11021--REDEF
F$DCB.ATTR
     11040**DCL     11041--REDEF
F$DCB.BORROW
     11055**DCL     11055--REDEF   11055--REDEF   11055--REDEF
F$DCB.DCBNAME.L
     11069**DCL     11069--IMP-SIZ
F$DCB.EOMCHAR#
     11025**DCL     11025--REDEF
F$DCB.FCD#
     11034**DCL     11093>>IF      11094>>IF
F$DCB.FLDID
     11050**DCL     11050--REDEF
PL6.E3A0      #004=VXX$CON File=VXM$MAP.:E05TSI                                  WED 07/30/97 08:22 Page:253
F$DCB.FORM$
     11044**DCL     11044--REDEF
F$DCB.FSECT
     11060**DCL     11060--REDEF
F$DCB.FSN#
     11037**DCL     11037--REDEF   11037--REDEF   11038--REDEF
F$DCB.HEADER$
     11043**DCL     11043--REDEF
F$DCB.IXTNSIZE#
     11041**DCL     11041--REDEF
F$DCB.LASTSTA$
     11030**DCL     11030--REDEF
F$DCB.LVL
     11056**DCL     11056--REDEF
F$DCB.NAME#.C
     11031**DCL     11031--REDEF
F$DCB.NOEOF
     11053**DCL     11053--REDEF
F$DCB.NRECS#
     11042**DCL     11042--REDEF
F$DCB.NRECX
     11061**DCL     11061--REDEF
F$DCB.OHDR
     11053**DCL     11053--REDEF
F$DCB.ORG#
     11036**DCL     11036--REDEF
F$DCB.PRECNO
     11059**DCL     11059--REDEF
F$DCB.RCSZ
     11065**DCL     11065--REDEF
F$DCB.RES#
     11032**DCL     11032--REDEF
F$DCB.SETX
     11044**DCL     11044--REDEF
F$DCB.TAB$
     11044**DCL     11044--REDEF
PL6.E3A0      #004=VXX$CON File=VXM$MAP.:E05TSI                                  WED 07/30/97 08:22 Page:254
F$DCB.TDA
     11058**DCL     11059--REDEF
F$DCB.WSN#
     11032**DCL     11032--REDEF
FPT_EXIT
     11086**DCL     11099<>CALL    11102<>CALL    11104<>CALL
FPT_EXIT.V
     11086**DCL     11086--DCLINIT
FPT_EXIT.V.STEPCC#
     11087**DCL     11087--REDEF   11097<<ASSIGN
M$ERR
      5083**DCL-ENT 11102--CALL
M$EXIT
      5083**DCL-ENT 11095--CALL    11104--CALL
M$LO$
     10643**DCL     11094>>IF
M$RF$
     10645**DCL     11093>>IF
M$XXX
      5083**DCL-ENT 11099--CALL
STEPCC
     11072**DCL     11096<<ASSIGN  11097>>ASSIGN  11098>>IF      11101>>IF
VXF$CLOSE
     11071**DCL-ENT 11093--CALL    11094--CALL
VX_BIAS.A
      9574**DCL      9575--REDEF
VX_CBUF.CHARS_A
      9508**DCL      9509--REDEF
VX_CONST_DCB.ACTPOS
     10690**DCL     10690--REDEF
VX_CONST_DCB.ARS#
     10649**DCL     10649--REDEF
VX_CONST_DCB.ATTR#
     10679**DCL     10679--REDEF   10681--REDEF
VX_CONST_DCB.BORROW
     10701**DCL     10701--REDEF   10701--REDEF   10701--REDEF
PL6.E3A0      #004=VXX$CON File=VXM$MAP.:E05TSI                                  WED 07/30/97 08:22 Page:255
VX_CONST_DCB.EOMCHAR#
     10656**DCL     10657--REDEF
VX_CONST_DCB.FLDID
     10693**DCL     10694--REDEF
VX_CONST_DCB.FORM$
     10685**DCL     10685--REDEF
VX_CONST_DCB.FSECT
     10708**DCL     10708--REDEF
VX_CONST_DCB.FSN#
     10675**DCL     10675--REDEF   10675--REDEF   10676--REDEF
VX_CONST_DCB.HEADER$
     10684**DCL     10685--REDEF
VX_CONST_DCB.IXTNSIZE#
     10681**DCL     10682--REDEF
VX_CONST_DCB.LASTSTA$
     10665**DCL     10665--REDEF
VX_CONST_DCB.LVL
     10702**DCL     10702--REDEF
VX_CONST_DCB.NAME#.C
     10665**DCL     10666--REDEF
VX_CONST_DCB.NOEOF
     10697**DCL     10697--REDEF
VX_CONST_DCB.NRECS#
     10682**DCL     10682--REDEF
VX_CONST_DCB.NRECX
     10709**DCL     10709--REDEF
VX_CONST_DCB.OHDR
     10698**DCL     10698--REDEF
VX_CONST_DCB.ORG#
     10673**DCL     10674--REDEF
VX_CONST_DCB.PRECNO
     10706**DCL     10706--REDEF
VX_CONST_DCB.RCSZ
     10714**DCL     10714--REDEF
VX_CONST_DCB.RES#
     10667**DCL     10667--REDEF
PL6.E3A0      #004=VXX$CON File=VXM$MAP.:E05TSI                                  WED 07/30/97 08:22 Page:256
VX_CONST_DCB.SETX
     10686**DCL     10686--REDEF
VX_CONST_DCB.TAB$
     10685**DCL     10685--REDEF
VX_CONST_DCB.TDA
     10705**DCL     10706--REDEF
VX_CONST_DCB.WSN#
     10667**DCL     10668--REDEF
VX_EBUF.CHARS_A
     10097**DCL     10098--REDEF
VX_EFIELD1.CHARS
     10106**DCL     10107--REDEF
VX_EFIELD2.CHARS
     10110**DCL     10111--REDEF
VX_EFIELD3.CHARS
     10114**DCL     10115--REDEF
VX_EI_KEY_BUF.KEY
     10490**DCL     10491--REDEF
VX_ERRORS
      9551**DCL      9562--REDEF
VX_ERRORS.CONFLICT_A
      9557**DCL      9558--REDEF
VX_ERRORS.UNSAT_A
      9553**DCL      9554--REDEF
VX_IMAGE_DATA.CPAGE#_A
      8688**DCL      8689--REDEF
VX_IMAGE_DATA.NODE_A$
      8700**DCL      8701--REDEF
VX_IMAGE_DATA.START_A$
      8692**DCL      8693--REDEF
VX_IMAGE_DATA.STOP_A$
      8696**DCL      8697--REDEF
VX_IMAGE_DS3.CPAGE#_A
      8757**DCL      8758--REDEF
VX_IMAGE_DS3.NODE_A$
      8769**DCL      8770--REDEF
PL6.E3A0      #004=VXX$CON File=VXM$MAP.:E05TSI                                  WED 07/30/97 08:22 Page:257
VX_IMAGE_DS3.START_A$
      8761**DCL      8762--REDEF
VX_IMAGE_DS3.STOP_A$
      8765**DCL      8766--REDEF
VX_IMAGE_DS4.CPAGE#_A
      8780**DCL      8781--REDEF
VX_IMAGE_DS4.NODE_A$
      8792**DCL      8793--REDEF
VX_IMAGE_DS4.START_A$
      8784**DCL      8785--REDEF
VX_IMAGE_DS4.STOP_A$
      8788**DCL      8789--REDEF
VX_IMAGE_DS5.CPAGE#_A
      8803**DCL      8804--REDEF
VX_IMAGE_DS5.NODE_A$
      8815**DCL      8816--REDEF
VX_IMAGE_DS5.START_A$
      8807**DCL      8808--REDEF
VX_IMAGE_DS5.STOP_A$
      8811**DCL      8812--REDEF
VX_IMAGE_DS6.CPAGE#_A
      8826**DCL      8827--REDEF
VX_IMAGE_DS6.NODE_A$
      8838**DCL      8839--REDEF
VX_IMAGE_DS6.START_A$
      8830**DCL      8831--REDEF
VX_IMAGE_DS6.STOP_A$
      8834**DCL      8835--REDEF
VX_IMAGE_DS7.CPAGE#_A
      8849**DCL      8850--REDEF
VX_IMAGE_DS7.NODE_A$
      8861**DCL      8862--REDEF
VX_IMAGE_DS7.START_A$
      8853**DCL      8854--REDEF
VX_IMAGE_DS7.STOP_A$
      8857**DCL      8858--REDEF
PL6.E3A0      #004=VXX$CON File=VXM$MAP.:E05TSI                                  WED 07/30/97 08:22 Page:258
VX_IMAGE_DS8.CPAGE#_A
      8872**DCL      8873--REDEF
VX_IMAGE_DS8.NODE_A$
      8884**DCL      8885--REDEF
VX_IMAGE_DS8.START_A$
      8876**DCL      8877--REDEF
VX_IMAGE_DS8.STOP_A$
      8880**DCL      8881--REDEF
VX_IMAGE_PROC.CPAGE#_A
      8711**DCL      8712--REDEF
VX_IMAGE_PROC.NODE_A$
      8723**DCL      8724--REDEF
VX_IMAGE_PROC.START_A$
      8715**DCL      8716--REDEF
VX_IMAGE_PROC.STOP_A$
      8719**DCL      8720--REDEF
VX_IMAGE_ROS.CPAGE#_A
      8734**DCL      8735--REDEF
VX_IMAGE_ROS.NODE_A$
      8746**DCL      8747--REDEF
VX_IMAGE_ROS.START_A$
      8738**DCL      8739--REDEF
VX_IMAGE_ROS.STOP_A$
      8742**DCL      8743--REDEF
VX_LOF$
      9542**DCL     11094<>CALL
VX_M_VECTOR.F
      8539**DCL      8543--REDEF
VX_M_VECTOR_DP.F
      8574**DCL      8578--REDEF
VX_O.ACCTN_A$
      9703**DCL      9704--REDEF
VX_O.DCB_MATCH_A$
      9712**DCL      9713--REDEF
VX_O.DCB_MATCH_HIT_A
      9718**DCL      9719--REDEF
PL6.E3A0      #004=VXX$CON File=VXM$MAP.:E05TSI                                  WED 07/30/97 08:22 Page:259
VX_O.FIDN_A$
      9697**DCL      9698--REDEF
VX_O.FID_A$
      9689**DCL      9690--REDEF
VX_O.INCLUDE_A$
      9709**DCL      9710--REDEF
VX_O.MAP_A
      9683**DCL      9684--REDEF
VX_O.NODCB_A
      9740**DCL      9741--REDEF
VX_O.NUM_A
      9628**DCL      9630--REDEF
VX_O.OPT_A
      9728**DCL      9729--REDEF
VX_O.PRIV_A
      9644**DCL      9646--REDEF
VX_O.SIN_A
      9597**DCL      9598--REDEF
VX_O.TCB_A
      9724**DCL      9725--REDEF
VX_OD.ACCTN_A$
      9901**DCL      9902--REDEF
VX_OD.DCB_MATCH_A$
      9910**DCL      9911--REDEF
VX_OD.FIDN_A$
      9895**DCL      9896--REDEF
VX_OD.FID_A$
      9887**DCL      9888--REDEF
VX_OD.INCLUDE_A$
      9907**DCL      9908--REDEF
VX_OD.MAP_A
      9881**DCL      9882--REDEF
VX_OD.NODCB_A
      9925**DCL      9926--REDEF
VX_OD.NUM_A
      9828**DCL      9829--REDEF
PL6.E3A0      #004=VXX$CON File=VXM$MAP.:E05TSI                                  WED 07/30/97 08:22 Page:260
VX_OD.PRIV_A
      9843**DCL      9844--REDEF
VX_OD.SIN_A
      9797**DCL      9798--REDEF
VX_OD.VECTOR_A$
      9916**DCL      9917--REDEF
VX_OL.MAX_A
      9772**DCL      9774--REDEF
VX_OL.MIN_A
      9757**DCL      9758--REDEF
VX_ON.ACCTN_A$
     10046**DCL     10048--REDEF
VX_ON.DCB_MATCH_A$
     10057**DCL     10059--REDEF
VX_ON.FIDN_A$
     10039**DCL     10041--REDEF
VX_ON.FID_A$
     10030**DCL     10032--REDEF
VX_ON.INCLUDE_A$
     10053**DCL     10055--REDEF
VX_ON.MAP_A
     10023**DCL     10025--REDEF
VX_ON.NODCB_A$
     10073**DCL     10074--REDEF
VX_ON.NUM_A
      9968**DCL      9970--REDEF
VX_ON.PRIV_A
      9984**DCL      9986--REDEF
VX_ON.SIN_A
      9936**DCL      9938--REDEF
VX_ON.VECTOR_A$
     10064**DCL     10065--REDEF
VX_ONLINE
      9594**DCL     11095>>IF
VX_OUHEAD.VERSION
      9383**DCL      9385--REDEF
PL6.E3A0      #004=VXX$CON File=VXM$MAP.:E05TSI                                  WED 07/30/97 08:22 Page:261
VX_OU_HEAD
      9326**DCL      9365--REDEF
VX_OU_HEAD.REC_A
      9338**DCL      9341--REDEF
VX_O_KEY_BUF.FORM0
      8587**DCL      8590--REDEF    8597--REDEF
VX_O_KEY_BUF_L.FORM0
      8610**DCL      8613--REDEF    8620--REDEF
VX_PASS2_REF.OU.L_START
     10276**DCL     10281--REDEF
VX_PASS2_REF.OU.L_STOP
     10282**DCL     10287--REDEF
VX_PASS2_REF.OU.MAX
     10270**DCL     10275--REDEF
VX_PASS2_REF.OU.SIZE
     10288**DCL     10293--REDEF
VX_PASS2_REF.SAT.COUNT
     10315**DCL     10321--REDEF
VX_PASS2_REF.SAT.ENT_SIZE
     10322**DCL     10328--REDEF
VX_PASS2_REF.SAT.L_START
     10301**DCL     10307--REDEF
VX_PASS2_REF.SAT.L_STOP
     10308**DCL     10314--REDEF
VX_PASS2_REF.SAT.MAX
     10295**DCL     10300--REDEF
VX_PASS2_REF.UNSAT.L_START
     10363**DCL     10368--REDEF
VX_PASS2_REF.UNSAT.L_STOP
     10369**DCL     10374--REDEF
VX_PASS2_REF.UNSAT.L_WHERE
     10375**DCL     10380--REDEF
VX_PASS2_REF.UNSAT.MAX
     10357**DCL     10362--REDEF
VX_PASS2_REF.UNSAT.PAGE#
     10387**DCL     10392--REDEF
PL6.E3A0      #004=VXX$CON File=VXM$MAP.:E05TSI                                  WED 07/30/97 08:22 Page:262
VX_PASS2_REF.UNSAT.SIZE
     10381**DCL     10386--REDEF
VX_PHRASE.PHRASE
      9789**DCL      9791--REDEF
VX_PROGRAM_BIAS.A
      9567**DCL      9568--REDEF
VX_RUF$
      9541**DCL     11093<>CALL
VX_R_KEY_BUF.FORM0
      8636**DCL      8640--REDEF    8646--REDEF
VX_SD.A
      8264**DCL      8265--REDEF
VX_SPC.B$.MINE
     10458**DCL     10464--REDEF
VX_SPC.B$.NAME
     10437**DCL     10443--REDEF
VX_SPC.B$.SKIP
     10451**DCL     10457--REDEF
VX_SPC.B$.VALUE
     10444**DCL     10450--REDEF
VX_SPC.SEG.NAME
     10406**DCL     10412--REDEF
VX_SPC.SEG.VALUE
     10413**DCL     10419--REDEF
VX_TSX0_OVERLAY.H
     10181**DCL     10184--REDEF
