PL6.E3A0      #002=VXO$PATCH File=VXO$IMPL.:E05TSI                               WED 07/30/97 08:26 Page:128
      720        1        /*M* VXO$PATCH - Builds an object unit for the DPATCH and IPATCH options. */
      721        2        /*T***********************************************************/
      722        3        /*T*                                                         */
      723        4        /*T* Copyright (c) Bull HN Information Systems Inc., 1997    */
      724        5        /*T*                                                         */
      725        6        /*T***********************************************************/
      726        7        /*F* NAME:        VXO$PATCH
      727        8             PURPOSE:     Generate an object unit file for the patch space defined
      728        9                          by the DPATCH and IPATCH link options.
      729       10             ENTRY:       VXO$DEL_PATCH_FILE - deletes *********************B_PATCH.
      730       11             DESCRIPTION:
      731       12                  VXO$PATCH generates an object unit file, ********************B_PATCH,
      732       13                  for the patch space area defined by the DPATCH and IPATCH link
      733       14                  options.  The object unit contains an procedure section and a data
      734       15                  section.  The primary entdef B_PATCHI defines the start of
      735       16                  the procedure section and the start of the instruction patch
      736       17                  space. The instruction patch space (its size is determined by
      737       18                  the the IPATCH option) is followed by a header for the instruction
      738       19                  patch space (SYMDEF B_PATCHIH) and a header for the data patch
      739       20                  space (SYMDEF B_PATCHDH).  Each header contains a pointer to the
      740       21                  start of the patch space ( ADDR(B_PATCHI) for B_PATCHIH and
      741       22                  ADDR(B_PATCHD) for B_PATCHDH) and a word containing the size of the
      742       23                  patch space ( VX_O.NUM.IPATCH for B_PATCHIH and VX_O.NUM.DPATCH for
      743       24                  B_PATCHDH).  The symdef B_PATCHD defines the start of the data
      744       25                  section.  The size of the data area is defined by the DPATCH option.
      745       26                  A VX$LST element is allocated for the patch space object unit file
      746       27                  and is added to the file list for the root node.
      747       28        */
      748       29        VXO$PATCH: PROC;
      749       30
      750       31         /*
      751       32            Include files
      752       33         */
      753       34        %INCLUDE CP_6;
      754      115        %INCLUDE CP_6_SUBS;
      755      655        %INCLUDE B$OBJECT_C;
      756     4085        %INCLUDE XU_MACRO_C;
PL6.E3A0      #002=VXO$PATCH File=VXO$IMPL.:E05TSI                               WED 07/30/97 08:26 Page:129
      757     7191        %INCLUDE VX_SUBS_C;
      758     7409        %INCLUDE VX_MACRO_C;
      759     8546        %INCLUDE VX_DATA_R;
      760    10165        %INCLUDE VX_FIXED_R;
      761    10827        %INCLUDE VX_PERR_C;
      762    11081        %INCLUDE B_SEGIDS_C;
      763    11620        %VX$NODE;

             11632    1   /*******************************************************************************
             11633    1   *                                                                              *
             11634    1   *                          VX$NODE                                                 *
             11635    1   *                                                                              *
             11636    1   *******************************************************************************/

             11652    1   DCL 1 VX$NODE      ALIGNED    BASED,
             11653    1         2 SON$ PTR /*(ADDR(NIL))*/, /* Son pointer                      */
             11654    1         2 BROTHER$ PTR /*(ADDR(NIL))*/, /* Brother pointer              */
             11655    1         2 FATHER$ PTR /*(ADDR(NIL))*/, /* Father pointer                */
             11656    1         2 PATH$ PTR /*(ADDR(NIL))*/, /* Path   pointer                  */
             11657    1         2 HEAD$       PTR /*(ADDR(NIL))*/, /* Head pointer to
             11658                              to list of file nodes for this node            */
             11659    1         2 TAIL$ PTR /*(ADDR(NIL))*/, /* Tail pointer to list            */
             11660    1         2 SHARED_LIB_HEAD$ PTR /*(ADDR(NIL))*/,
             11660                  /* Head pointer to shared library list */
             11661    1         2 LIB_HEAD$         PTR /*(ADDR(NIL))*/,
             11661                  /* Head pointer to list of shared libraries
             11662                                          which have been mapped to included libraries */
             11663    1         2 NUM          UBIN(36)  UNAL,    /* Node number                        */
             11664    1         2 DEPTH          UBIN(36)  UNAL,  /* Depth; ROOT=0*/
             11665    1         2 ADDR_START_A(0:2/*@ROS*/) SBIN WORD /*(0*3)*/, /* Array            */
             11666    1         2 ADDR_START REDEF  ADDR_START_A,
             11667    1           3 RDATA       SBIN WORD,   /* First address for this node in data     */
             11668    1           3 RPROC       SBIN WORD,   /* First address for this node in proc     */
             11669    1           3 ROS       SBIN WORD,          /* Last address for program in ros    */
             11670    1         2 ADDR_STOP_A(0:2/*@ROS*/) SBIN WORD /*(-1*3)*/, /* Array            */
             11671    1         2 ADDR_STOP  REDEF  ADDR_STOP_A,
             11672    1           3 RDATA       SBIN WORD,        /* Last address for this node in data */
PL6.E3A0      #002=VXO$PATCH File=VXO$IMPL.:E05TSI                               WED 07/30/97 08:26 Page:130
             11673    1           3 RPROC       SBIN WORD,        /* Last address for this node in proc */
             11674    1           3 ROS       SBIN WORD,          /* Last address for program in ros    */
             11675    1         2 START_PAGE#_A(0:2/*@ROS*/) SBIN WORD /*(0*3)*/, /* Array           */
             11676    1         2 START_PAGE# REDEF START_PAGE#_A,
             11677    1           3 RDATA       SBIN WORD,   /* First page    for this node in data     */
             11678    1           3 RPROC       SBIN WORD,   /* First page    for this node in proc     */
             11679    1           3 ROS       SBIN WORD,          /* First page   for program in ros    */
             11680    1         2 STOP_PAGE#_A(0:2/*@ROS*/) SBIN WORD /*(-1*3)*/, /* Array*/
             11681    1         2 STOP_PAGE#  REDEF STOP_PAGE#_A,
             11682    1           3 RDATA       SBIN WORD,   /* Last  page    for this node in data     */
             11683    1           3 RPROC       SBIN WORD,   /* Last  page    for this node in proc     */
             11684    1           3 ROS       SBIN WORD,          /* Last  page   for program in ros    */
             11685    1         2 START_SC_ALL$ PTR /*(ADDR(NIL))*/,
             11685                  /* Starting pointer for common sections for this node */
             11686    1         2 STOP_SC_ALL$ PTR /*(ADDR(NIL))*/,
             11686                  /* Stopping pointer for common sections for this node */
             11687    1         2 L_START,
             11688    1           3 SN$ PTR /*(ADDR(NIL))*/, /* Segment definition names        */
             11689    1           3 DN$ PTR /*(ADDR(NIL))*/, /* Def names                       */
             11690    1           3 RN$ PTR /*(ADDR(NIL))*/, /* Ref names                       */
             11691    1           3 SC$ PTR /*(ADDR(NIL))*/, /* Sections                        */
             11692    1           3 ED$ PTR /*(ADDR(NIL))*/, /* Entry defs*/
             11693    1           3 ER$ PTR /*(ADDR(NIL))*/, /* Entry refs*/
             11694    1           3 DD$ PTR /*(ADDR(NIL))*/, /* Data defs                       */
             11695    1           3 DR$ PTR /*(ADDR(NIL))*/, /* Data refs                       */
             11696    1           3 SD$ PTR /*(ADDR(NIL))*/, /* Seg defs                        */
             11697    1           3 SR$ PTR /*(ADDR(NIL))*/, /* Seg refs                        */
             11698    1         2 L_START_A$(0:9)     REDEF L_START PTR,
             11699    1         2 L_STOP,
             11700    1           3 SN$ PTR /*(ADDR(NIL))*/, /* Segment definition names        */
             11701    1           3 DN$ PTR /*(ADDR(NIL))*/, /* Def names                       */
             11702    1           3 RN$ PTR /*(ADDR(NIL))*/, /* Ref names                       */
             11703    1           3 SC$ PTR /*(ADDR(NIL))*/, /* Sections                        */
             11704    1           3 ED$ PTR /*(ADDR(NIL))*/, /* Entry defs*/
             11705    1           3 ER$ PTR /*(ADDR(NIL))*/, /* Entry refs*/
             11706    1           3 DD$ PTR /*(ADDR(NIL))*/, /* Data defs                       */
             11707    1           3 DR$ PTR /*(ADDR(NIL))*/, /* Data refs                       */
PL6.E3A0      #002=VXO$PATCH File=VXO$IMPL.:E05TSI                               WED 07/30/97 08:26 Page:131
             11708    1           3 SD$ PTR /*(ADDR(NIL))*/, /* Seg defs                        */
             11709    1           3 SR$ PTR /*(ADDR(NIL))*/, /* Seg refs                        */
             11710    1         2 L_STOP_A$(0:9) REDEF   L_STOP    PTR,
             11711    1         2 L_SIZE,
             11712    1           3 SN      UBIN /*(0)*/, /* Segment definition names           */
             11713    1           3 DN      UBIN /*(0)*/, /* Def names                          */
             11714    1           3 RN      UBIN /*(0)*/, /* Ref names                          */
             11715    1           3 SC      UBIN /*(0)*/, /* Sections                           */
             11716    1           3 ED      UBIN /*(0)*/, /* Entry defs*/
             11717    1           3 ER      UBIN /*(0)*/, /* Entry refs*/
             11718    1           3 DD      UBIN /*(0)*/, /* Data defs                          */
             11719    1           3 DR      UBIN /*(0)*/, /* Data refs                          */
             11720    1           3 SD      UBIN /*(0)*/, /* Seg defs                           */
             11721    1           3 SR      UBIN /*(0)*/, /* Seg refs                           */
             11722    1         2 L_SIZE_A(0:9)  REDEF   L_SIZE    UBIN,
             11723    1         2 L_PREV_SIZE,
             11724    1           3 SN      UBIN /*(0)*/, /* Segment definition names           */
             11725    1           3 DN      UBIN /*(0)*/, /* Def names                          */
             11726    1           3 RN      UBIN /*(0)*/, /* Ref names                          */
             11727    1           3 SC      UBIN /*(0)*/, /* Sections                           */
             11728    1           3 ED      UBIN /*(0)*/, /* Entry defs*/
             11729    1           3 ER      UBIN /*(0)*/, /* Entry refs*/
             11730    1           3 DD      UBIN /*(0)*/, /* Data defs                          */
             11731    1           3 DR      UBIN /*(0)*/, /* Data refs                          */
             11732    1           3 SD      UBIN /*(0)*/, /* Seg defs                           */
             11733    1           3 SR      UBIN /*(0)*/, /* Seg refs                           */
             11734    1         2 L_PREV_SIZE_A(0:9)  REDEF   L_PREV_SIZE    UBIN,
             11735    1         2 BIT_MAP                ALIGNED,
             11736    1           3 DATA                  ALIGNED,
             11737    1             4 BITS(0:255)          BIT(1)    UNAL /*('0'B*256)*/,
             11738    1           3 RPROC                 ALIGNED,
             11739    1             4 BITS(0:255)          BIT(1)    UNAL /*('0'B*256)*/,
             11740    1           3 ROS                   ALIGNED,
             11741    1             4 BITS(0:255)          BIT(1)    UNAL /*('0'B*256)*/,
             11742    1         2 L_SC_START,
             11743    1           3 SC_BLK_COM$ PTR /*(ADDR(NIL))*/, /* Blank common            */
             11744    1           3 SC_ROOT_LBL_COM$ PTR /*(ADDR(NIL))*/, /* Root labelled common */
PL6.E3A0      #002=VXO$PATCH File=VXO$IMPL.:E05TSI                               WED 07/30/97 08:26 Page:132
             11745    1           3 SC_LBL_COM$ PTR /*(ADDR(NIL))*/, /* Labelled common         */
             11746    1           3 SC_DCB$ PTR /*(ADDR(NIL))*/, /* Dcbs                        */
             11747    1         2 L_SC_START_A$(0:3)  REDEF L_SC_START PTR,
             11748    1         2 L_SC_STOP,
             11749    1           3 SC_BLK_COM$ PTR /*(ADDR(NIL))*/, /* Blank common            */
             11750    1           3 SC_ROOT_LBL_COM$ PTR /*(ADDR(NIL))*/, /* Root labelled common */
             11751    1           3 SC_LBL_COM$ PTR /*(ADDR(NIL))*/, /* Labelled common         */
             11752    1           3 SC_DCB$ PTR /*(ADDR(NIL))*/, /* Dcbs                        */
             11753    1         2 L_SC_STOP_A$(0:3)   REDEF L_SC_STOP  PTR,
             11754    1         2 PROMOTE_HEAD,
             11755    1           3 BLK_COM$              PTR /*(ADDR(NIL))*/,
             11756    1           3 LBL_COM$              PTR /*(ADDR(NIL))*/,
             11757    1         2 PROMOTE_HEAD_A$(0:1) REDEF PROMOTE_HEAD     PTR,
             11758    1         2 PROMOTE_TAIL,
             11759    1           3 BLK_COM$              PTR /*(ADDR(NIL))*/,
             11760    1           3 LBL_COM$              PTR /*(ADDR(NIL))*/,
             11761    1         2 PROMOTE_TAIL_A$(0:1) REDEF PROMOTE_TAIL     PTR,
             11762    1         2 HAVE_ASL          BIT(1)    UNAL /*('0'B)*/,
             11763    1         2 ALL_BLK_COM          BIT(1)    UNAL /*('0'B)*/,
             11764    1         2 USE_NODE          BIT(1)    UNAL /*('0'B)*/,
             11765    1         2 *                 BIT(33)   UNAL /*('0'B)*/,
             11766    1         2 BLANK_COMMON$     PTR       ALIGNED /*(ADDR(NIL))*/;

      764    11770        %VX$LST;

             11783    1   /*******************************************************************************
             11784    1   *                                                                              *
             11785    1   *                          VX$LST                                                 *
             11786    1   *                                                                              *
             11787    1   *******************************************************************************/

             11792    1   DCL 1 VX$LST                          ALIGNED BASED,
             11793    1         2 LINK$        PTR,               /* Link to next item                  */
             11794    1         2 TYPE         UBIN( 18) UNAL,    /* Type                               */
             11795    1         2 SUB_TYPE     UBIN( 18) UNAL,    /* Sub-type                           */
             11796    1         2 OBJECT_NAME$ PTR,               /* Pointer to object unit name        */
             11797    1         2 PRIOR$ REDEF OBJECT_NAME$ PTR,  /* Pointer to prior element in list   */
PL6.E3A0      #002=VXO$PATCH File=VXO$IMPL.:E05TSI                               WED 07/30/97 08:26 Page:133
             11798    1         2 SC_HEAD$     PTR,               /* Head pointer to section link list  */
             11799    1         2 LIBSRCH$ REDEF SC_HEAD$ PTR,    /* Pointer to account list for library*/
             11800    1         2 SC_TAIL$     PTR,               /* Tail pointer to section link list  */
             11801    1         2 LIB REDEF SC_TAIL$,             /* Used only by UNSAT library files   */
             11802    1           3 USED UBIN HALF UNAL,          /* 1 => library file used, 0=>not used*/
             11803    1           3 NEEDED UBIN HALF UNAL,   /* 1 => library file needed, 0=>not needed*/
             11804    1         2 P,
             11805    1           3 NAME_       ALIGNED,
             11806    1             4 BOUND      UBIN(20)  UNAL,
             11807    1             4 FLAGSV     UBIN(11)  UNAL,
             11808    1             4 *          BIT(5)    UNAL,
             11809    1             4 NAME$      PTR,
             11810    1           3 ACCT_       ALIGNED,
             11811    1             4 BOUND      UBIN(20)  UNAL,
             11812    1             4 FLAGSV     UBIN(11)  UNAL,
             11813    1             4 *          BIT(5)    UNAL,
             11814    1             4 ACCT$      PTR,
             11815    1           3 PASS_       ALIGNED,
             11816    1             4 BOUND      UBIN(20)  UNAL,
             11817    1             4 FLAGSV     UBIN(11)  UNAL,
             11818    1             4 *          BIT(5)    UNAL,
             11819    1             4 PASS$      PTR,
             11820    1           3 SN_         ALIGNED,
             11821    1             4 BOUND      UBIN(20)  UNAL,
             11822    1             4 FLAGSV     UBIN(11)  UNAL,
             11823    1             4 *          BIT(5)    UNAL,
             11824    1             4 SN$        PTR,
             11825    1           3 WSN_        ALIGNED,
             11826    1             4 BOUND      UBIN(20)  UNAL,
             11827    1             4 FLAGSV     UBIN(11)  UNAL,
             11828    1             4 *          BIT(5)    UNAL,
             11829    1             4 WSN$       PTR,
             11830    1           3 B           ALIGNED,
             11831    1             4 RES        BIT(1)    UNAL,
             11832    1             4 ASN        BIT(1)    UNAL,
             11833    1             4 ACCT       BIT(1)    UNAL,
             11834    1             4 *          BIT(33)   UNAL,
PL6.E3A0      #002=VXO$PATCH File=VXO$IMPL.:E05TSI                               WED 07/30/97 08:26 Page:134
             11835    1           3 RES         CHAR(4)   ALIGNED,
             11836    1           3 ASN         UBIN(36)  ALIGNED;
      765    11839        %VXR$TMPLT;

             11852    1   /*******************************************************************************
             11853    1   *                                                                              *
             11854    1   *                          VXR$TMPLT                                               *
             11855    1   *                                                                              *
             11856    1   *******************************************************************************/

             11861    1   DCL 1 VXR$TMPLT BASED ALIGNED,
             11862    1         2 NPOINTER SBIN HALF UNAL,
             11863                /*K*  NPOINTER is the word index to the symbol name.  */
             11864    1         2 SREF BIT(1) UNAL,
             11865                /*K*  SREF is set is this is a secondary reference.  */
             11866    1         2 READ_ONLY BIT(1) UNAL,
             11867    1         2 GOT BIT(1) UNAL,
             11868                /*K*  GOT is set if got the OU name displacement.  */
             11869    1         2 STATE REDEF GOT BIT(1) UNAL,
             11870    1         2 OPOINTER UBIN(15) UNAL;
             11871                /*K*  OPOINTER is the word index to the OU name.  */

             11893    1   /*******************************************************************************
             11894    1   *                                                                              *
             11895    1   *                          VXR$SAT                                                 *
             11896    1   *                                                                              *
             11897    1   *******************************************************************************/

             11901    1   DCL 1 VXR$SAT                 ALIGNED   BASED,
             11902    1         2 VALUE        UBIN(36)  ALIGNED,
             11903    1         2 SEG   REDEF  VALUE,
             11904    1           3 OFFSET     UBIN(18)  UNAL,
             11905    1           3 *          BIT(6)    UNAL,
             11906    1           3 SEGID      UBIN(12)  UNAL,
             11907    1         2 BELOW        BIT(1)    UNAL,
             11908    1         2 *            BIT(17)   UNAL,
             11909    1         2 NODE#        UBIN(18)  UNAL;
PL6.E3A0      #002=VXO$PATCH File=VXO$IMPL.:E05TSI                               WED 07/30/97 08:26 Page:135
      766    11911        %BANNER( ARG=FPTS );

             11919    1   /*******************************************************************************
             11920    1   *                                                                              *
             11921    1   *                          FPTS                                                 *
             11922    1   *                                                                              *
             11923    1   *******************************************************************************/

      767    11927        %FPT_OPEN(
      768    11928         ACS=DIRECT,
      769    11929         ASN=FILE,
      770    11930         DCB=M$OF,
      771    11931         FUN=CREATE,
      772    11932         SCRUB=YES,
      773    11933         NAME=VLP_NAME,
      774    11934         ORG=KEYED);
      775    12043        %VLP_NAME( NAME='********************B_PATCH', STCLASS=CONSTANT );
      776    12070        %FPT_WRITE( DCB=M$OF, KEY=FORM1_KEY, NEWKEY=YES, ONEWKEY=NO );
      777    12101        %BANNER( ARG=DCBS);

             12109    1   /*******************************************************************************
             12110    1   *                                                                              *
             12111    1   *                          DCBS                                                 *
             12112    1   *                                                                              *
             12113    1   *******************************************************************************/

      778    12117    1   DCL M$OF DCB;
      779    12118        %BANNER( ARG=SUBS );

             12126    1   /*******************************************************************************
             12127    1   *                                                                              *
             12128    1   *                          SUBS                                                 *
             12129    1   *                                                                              *
             12130    1   *******************************************************************************/

      780    12134        %B$RECORDSUBS;
      781    12162        %B$RELOCSUBS;
PL6.E3A0      #002=VXO$PATCH File=VXO$IMPL.:E05TSI                               WED 07/30/97 08:26 Page:136
      782    12192        %B$SECTIONSUBS;
      783    12207        %SUB_CST;
      784    12223        %BANNER( ARG=HEAD_KEY );

             12231    1   /*******************************************************************************
             12232    1   *                                                                              *
             12233    1   *                          HEAD_KEY                                                *
             12234    1   *                                                                              *
             12235    1   *******************************************************************************/

      785    12239    1   DCL 1 HEAD_KEY STATIC,
      786    12240    1         2 COUNT UBIN BYTE UNAL INIT(9),
      787    12241    1         2 TEXT CHAR(9) INIT('"B_PATCHI');
      788    12242        %BANNER( ARG=HEAD_RECORD );

             12250    1   /*******************************************************************************
             12251    1   *                                                                              *
             12252    1   *                          HEAD_RECORD                                             *
             12253    1   *                                                                              *
             12254    1   *******************************************************************************/

      789    12258    1   DCL 1 HEAD_RECORD STATIC ALIGNED,
      790    12259    1         2 UTS UBIN(36) UNAL INIT(0),
      791    12260    1         2 WORDSIZE UBIN BYTE UNAL INIT(36),
      792    12261    1         2 CMPLRID UBIN(27) UNAL INIT(0),
      793    12262    1         2 START_ADDRESS,
      794    12263    1           3 OPERAND_TYPE UBIN( 4) UNAL INIT(0),
      795    12264    1           3 * BIT ( 5) UNAL INIT('0'B),
      796    12265    1           3 OPERAND UBIN( 9) UNAL INIT(0),
      797    12266    1           3 OFFSET UBIN(18) UNAL INIT(0),
      798    12267    1         2 SEVLEV UBIN(18) UNAL INIT(0),
      799    12268    1         2 LB_SIZE UBIN(18) UNAL INIT(0),
      800    12269    1         2 PR_SIZE UBIN(18) UNAL INIT(100),
      801    12270    1         2 RL_SIZE UBIN(18) UNAL INIT(100),
      802    12271    1         2 DN_SIZE UBIN(18) UNAL INIT( SIZEW(DN_RECORD) ),
      803    12272    1         2 DN_PAGE UBIN(18) UNAL INIT( SIZEW(DN_RECORD) ),
      804    12273    1         2 RN_SIZE UBIN(18) UNAL INIT(0),
PL6.E3A0      #002=VXO$PATCH File=VXO$IMPL.:E05TSI                               WED 07/30/97 08:26 Page:137
      805    12274    1         2 RN_PAGE UBIN(18) UNAL INIT(0),
      806    12275    1         2 ED_SIZE UBIN(18) UNAL INIT( 0 ),
      807    12276    1         2 ED_PAGE UBIN(18) UNAL INIT( 0 ),
      808    12277    1         2 ER_SIZE UBIN(18) UNAL INIT(0),
      809    12278    1         2 ER_PAGE UBIN(18) UNAL INIT(0),
      810    12279    1         2 DD_SIZE UBIN(18) UNAL INIT( SIZEW(DD_RECORD.H) ),
      811    12280    1         2 DD_PAGE UBIN(18) UNAL INIT( SIZEW(DD_RECORD.H) ),
      812    12281    1         2 DR_SIZE UBIN(18) UNAL INIT(0),
      813    12282    1         2 DR_PAGE UBIN(18) UNAL INIT(0),
      814    12283    1         2 SD_SIZE UBIN(18) UNAL INIT(0),
      815    12284    1         2 SD_PAGE UBIN(18) UNAL INIT(0),
      816    12285    1         2 SR_SIZE UBIN(18) UNAL INIT(0),
      817    12286    1         2 SR_PAGE UBIN(18) UNAL INIT(0),
      818    12287    1         2 LIB,
      819    12288    1           3 COUNT UBIN( 9) UNAL INIT(0),
      820    12289    1           3 NAME CHAR(31) UNAL
      821    12290    1    INIT('                               '),
      822    12291    1         2 ALIB,
      823    12292    1           3 COUNT UBIN( 9) UNAL INIT(0),
      824    12293    1           3 NAME CHAR(31) UNAL
      825    12294    1    INIT('                               ');
      826    12295        %BANNER( ARG="DN_RECORD - Defined names");

             12303    1   /*******************************************************************************
             12304    1   *                                                                              *
             12305    1   *                          DN_RECORD - Defined names                               *
             12306    1   *                                                                              *
             12307    1   *******************************************************************************/

      827    12311    1   DCL 1 DN_RECORD STATIC ALIGNED,
      828    12312    1         2 B_PATCHI_NAME,
      829    12313    1           3 * UBIN HALF UNAL INIT(8),
      830    12314    1           3 * CHAR(8) INIT('B_PATCHI'),
      831    12315    1           3 * UBIN HALF UNAL INIT(0),
      832    12316    1         2 B_PATCHIH_NAME,
      833    12317    1           3 * UBIN HALF UNAL INIT(9),
      834    12318    1           3 * CHAR(9) INIT('B_PATCHIH'),
PL6.E3A0      #002=VXO$PATCH File=VXO$IMPL.:E05TSI                               WED 07/30/97 08:26 Page:138
      835    12319    1           3 * UBIN BYTE UNAL INIT(0),
      836    12320    1         2 B_PATCHDH_NAME,
      837    12321    1           3 * UBIN HALF UNAL INIT(9),
      838    12322    1           3 * CHAR(9) INIT('B_PATCHDH'),
      839    12323    1           3 * UBIN BYTE UNAL INIT(0),
      840    12324    1         2 B_PATCHD_NAME,
      841    12325    1           3 * UBIN HALF UNAL INIT(8),
      842    12326    1           3 * CHAR(8) INIT('B_PATCHD'),
      843    12327    1           3 * UBIN HALF UNAL INIT(0);
      844    12328        %BANNER( ARG="SC_RECORD - Defines Sections");

             12336    1   /*******************************************************************************
             12337    1   *                                                                              *
             12338    1   *                          SC_RECORD - Defines Sections                            *
             12339    1   *                                                                              *
             12340    1   *******************************************************************************/

      845    12344    1   DCL 1 SC_RECORD STATIC ALIGNED,
      846    12345    1         2 PROC_SECTION,
      847    12346    1           3 TYPE UBIN BYTE UNAL INIT( %CODESECTION ),
      848    12347    1           3 * BIT(1) INIT('0'B),
      849    12348    1           3 INITZERO BIT(1) INIT('1'B),
      850    12349    1           3 INITUTS BIT(1) INIT('0'B),
      851    12350    1           3 SEGMENT BIT(1) INIT('0'B),
      852    12351    1           3 * BIT(3) INIT('0'B),
      853    12352    1           3 BOUND BIT(2) INIT('0'B),
      854    12353    1           3 SIZE UBIN HALF UNAL INIT(4),
      855    12354    1           3 NPOINTER UBIN HALF UNAL INIT(0),
      856    12355    1           3 * UBIN HALF UNAL INIT(0),
      857    12356    1         2 DATA_SECTION,
      858    12357    1           3 TYPE UBIN BYTE UNAL INIT( %DATASECTION ),
      859    12358    1           3 * BIT(1) INIT('0'B),
      860    12359    1           3 INITZERO BIT(1) INIT('1'B),
      861    12360    1           3 INITUTS BIT(1) INIT('0'B),
      862    12361    1           3 SEGMENT BIT(1) INIT('0'B),
      863    12362    1           3 * BIT(3) INIT('0'B),
      864    12363    1           3 BOUND BIT(2) INIT('0'B),
PL6.E3A0      #002=VXO$PATCH File=VXO$IMPL.:E05TSI                               WED 07/30/97 08:26 Page:139
      865    12364    1           3 SIZE UBIN HALF UNAL INIT(0),
      866    12365    1           3 NPOINTER UBIN HALF UNAL INIT(9),
      867    12366    1           3 * UBIN HALF UNAL INIT(0);
      868    12367        %BANNER( ARG="ED_RECORD - Defines ENTDEFs");

             12375    1   /*******************************************************************************
             12376    1   *                                                                              *
             12377    1   *                          ED_RECORD - Defines ENTDEFs                             *
             12378    1   *                                                                              *
             12379    1   *******************************************************************************/

      869    12383    1   DCL 1 ED_RECORD STATIC ALIGNED,
      870    12384    1         2 B_PATCHI,
      871    12385    1           3 LFLAGS UBIN BYTE UNAL INIT(0),
      872    12386    1           3 SECTNUM UBIN BYTE UNAL INIT(0),
      873    12387    1           3 OFFSET UBIN HALF UNAL INIT(0),
      874    12388    1           3 NPOINTER UBIN HALF UNAL INIT(0),
      875    12389    1           3 PRI BIT(1) UNAL INIT('1'B),
      876    12390    1           3 ALT BIT(1) UNAL INIT('0'B),
      877    12391    1           3 CHECK BIT(1) UNAL INIT('1'B),
      878    12392    1           3 CST UBIN(4) UNAL INIT( %NSTD# ),
      879    12393    1           3 NPARAM UBIN(11) UNAL INIT(0);
      880    12394        %BANNER( ARG="DD_RECORD - Defines SYMDEFs");

             12402    1   /*******************************************************************************
             12403    1   *                                                                              *
             12404    1   *                          DD_RECORD - Defines SYMDEFs                             *
             12405    1   *                                                                              *
             12406    1   *******************************************************************************/

      881    12410    1   DCL 1 DD_RECORD STATIC ALIGNED,
      882    12411    1         2 H, /* Symdefs for patch space headers */
      883    12412    1           3 B_PATCHIH,
      884    12413    1             4 LFLAGS UBIN BYTE UNAL INIT(0),
      885    12414    1             4 SECTNUM UBIN BYTE UNAL INIT(0),
      886    12415    1             4 OFFSET UBIN HALF UNAL INIT(0),
      887    12416    1             4 NPOINTER UBIN HALF UNAL INIT(3),
PL6.E3A0      #002=VXO$PATCH File=VXO$IMPL.:E05TSI                               WED 07/30/97 08:26 Page:140
      888    12417    1             4 CONSTNT BIT(1) INIT('0'B),
      889    12418    1             4 * UBIN(17) UNAL INIT(0),
      890    12419    1           3 B_PATCHDH,
      891    12420    1             4 LFLAGS UBIN BYTE UNAL INIT(0),
      892    12421    1             4 SECTNUM UBIN BYTE UNAL INIT(0),
      893    12422    1             4 OFFSET UBIN HALF UNAL INIT(2),
      894    12423    1             4 NPOINTER UBIN HALF UNAL INIT(6),
      895    12424    1             4 CONSTNT BIT(1) INIT('0'B),
      896    12425    1             4 * UBIN(17) UNAL INIT(0),
      897    12426    1         2 B_PATCHD,
      898    12427    1           3 LFLAGS UBIN BYTE UNAL INIT(0),
      899    12428    1           3 SECTNUM UBIN BYTE UNAL INIT(1),
      900    12429    1           3 OFFSET UBIN HALF UNAL INIT(0),
      901    12430    1           3 NPOINTER UBIN HALF UNAL INIT(9),
      902    12431    1           3 CONSTNT BIT(1) INIT('0'B),
      903    12432    1           3 * UBIN(17) UNAL INIT(0);
      904    12433        %BANNER( ARG=FORM1_KEY );

             12441    1   /*******************************************************************************
             12442    1   *                                                                              *
             12443    1   *                          FORM1_KEY                                               *
             12444    1   *                                                                              *
             12445    1   *******************************************************************************/

      905    12449    1   DCL 1 FORM1_KEY STATIC ALIGNED,
      906    12450    1         2 COUNT UBIN BYTE UNAL INIT(7),
      907    12451    1         2 * BIT(9) UNAL INIT('777'O),
      908    12452    1         2 UTS UBIN UNAL INIT(0),
      909    12453    1         2 REC_TYPE UBIN BYTE UNAL,
      910    12454    1         2 PAGE# UBIN BYTE UNAL INIT(0);
      911    12455        %BANNER( ARG=FORM2_KEY );

             12463    1   /*******************************************************************************
             12464    1   *                                                                              *
             12465    1   *                          FORM2_KEY                                               *
             12466    1   *                                                                              *
             12467    1   *******************************************************************************/
PL6.E3A0      #002=VXO$PATCH File=VXO$IMPL.:E05TSI                               WED 07/30/97 08:26 Page:141

      912    12471    1   DCL 1 FORM2_KEY STATIC ALIGNED,
      913    12472    1         2 COUNT UBIN BYTE UNAL INIT(11),
      914    12473    1         2 * BIT(9) UNAL INIT('777'O),
      915    12474    1         2 UTS UBIN UNAL INIT(0),
      916    12475    1         2 REC_TYPE UBIN BYTE UNAL INIT(10),
      917    12476    1         2 SECT# UBIN HALF UNAL INIT(0),
      918    12477    1         2 OFFSET UBIN HALF UNAL INIT(0),
      919    12478    1         2 SUB_TYPE UBIN BYTE UNAL INIT(0);
      920    12479        %BANNER( ARG=FORM1_REC_TYPES );

             12487    1   /*******************************************************************************
             12488    1   *                                                                              *
             12489    1   *                          FORM1_REC_TYPES                                         *
             12490    1   *                                                                              *
             12491    1   *******************************************************************************/

      921    12495    1   DCL FORM1_REC_TYPES (0:3) UBIN CONSTANT INIT( %TYPDNAM, %TYPSECT, %TYPSDEF, %TYPEDEF
             12495            );
      922    12496        %BANNER( ARG=FORM1_BUF_ );

             12504    1   /*******************************************************************************
             12505    1   *                                                                              *
             12506    1   *                          FORM1_BUF_                                              *
             12507    1   *                                                                              *
             12508    1   *******************************************************************************/

      923    12512    1   DCL FORM1_BUF_ (0:3) BIT(72) STATIC INIT(
      924    12513    1    VECTOR( DN_RECORD ),
      925    12514    1    VECTOR( SC_RECORD ),
      926    12515    1    VECTOR( DD_RECORD.H ),
      927    12516    1    VECTOR( NIL ) );
      928    12517        %BANNER( ARG="PROC_RECORD - Defines patch space headers");

             12525    1   /*******************************************************************************
             12526    1   *                                                                              *
             12527    1   *                          PROC_RECORD - Defines patch space headers               *
PL6.E3A0      #002=VXO$PATCH File=VXO$IMPL.:E05TSI                               WED 07/30/97 08:26 Page:142
             12528    1   *                                                                              *
             12529    1   *******************************************************************************/

      929    12533    1   DCL 1 PROC_RECORD STATIC ALIGNED,
      930    12534    1         2 B_PATCHIH,
      931    12535    1           3 OFFSET UBIN HALF UNAL INIT(0),
      932    12536    1           3 * BIT(6) UNAL INIT('0'B),
      933    12537    1           3 SEGID BIT(12) UNAL INIT( %NULLSID ),
      934    12538    1           3 SIZE UBIN INIT(0),
      935    12539    1         2 B_PATCHDH,
      936    12540    1           3 OFFSET UBIN HALF UNAL INIT(0),
      937    12541    1           3 * BIT(6) UNAL INIT('0'B),
      938    12542    1           3 SEGID BIT(12) INIT( %NULLSID ),
      939    12543    1           3 SIZE UBIN INIT(0);
      940    12544        %BANNER( ARG="RELOC_RECORD - Relocation directives");

             12552    1   /*******************************************************************************
             12553    1   *                                                                              *
             12554    1   *                          RELOC_RECORD - Relocation directives                    *
             12555    1   *                                                                              *
             12556    1   *******************************************************************************/

      941    12560    1   DCL 1 RELOC_RECORD STATIC ALIGNED,
      942    12561    1         2 B_PATCHIH,
      943    12562    1           3 OPTYPE UBIN(4) UNAL INIT( %OPERCONST ),
      944    12563    1           3 OP BIT(1) INIT('0'B),
      945    12564    1           3 FIELD UBIN(4) UNAL INIT(0),
      946    12565    1           3 OPERAND UBIN BYTE UNAL INIT(0),
      947    12566    1           3 DISPLACEMENT UBIN HALF UNAL INIT(0),
      948    12567    1         2 B_PATCHDH,
      949    12568    1           3 OPTYPE UBIN(4) UNAL INIT( %OPERCONST ),
      950    12569    1           3 OP BIT(1) INIT('0'B),
      951    12570    1           3 FIELD UBIN(4) UNAL INIT(0),
      952    12571    1           3 OPERAND UBIN BYTE UNAL INIT(0),
      953    12572    1           3 DISPLACEMENT UBIN HALF UNAL INIT(2);
      954    12573        %U;

PL6.E3A0      #002=VXO$PATCH File=VXO$IMPL.:E05TSI                               WED 07/30/97 08:26 Page:143
             12581    1   /*******************************************************************************
             12582    1   *                                                                              *
             12583    1   *                          UBIN                                                 *
             12584    1   *                                                                              *
             12585    1   *******************************************************************************/

      955    12589    1   DCL NUM_FORM1_RECS UBIN STATIC INIT(2);
      956    12590    1   DCL I UBIN;
      957    12591    1   DCL DEF_RTYPE UBIN;
      958    12592    1   DCL REF_RTYPE UBIN;
      959    12593        %E;

             12601    1   /*******************************************************************************
             12602    1   *                                                                              *
             12603    1   *                          ENTRY                                                 *
             12604    1   *                                                                              *
             12605    1   *******************************************************************************/

      960    12609        %ENTRIES;
      961    12624    1   DCL VXO$OBJECT ENTRY (3);
      962    12625        %ENTRIES_IO;
      963    12633        %PTR;

             12641    1   /*******************************************************************************
             12642    1   *                                                                              *
             12643    1   *                          PTR                                                 *
             12644    1   *                                                                              *
             12645    1   *******************************************************************************/

      964    12649    1   DCL ALL$ PTR AUTO;
      965    12650    1   DCL CAND_Q$ PTR AUTO;
      966    12651    1   DCL CAND_P$ PTR AUTO;
      967    12652        %PLIST;
      968    12653        %EJECT;
PL6.E3A0      #002=VXO$PATCH File=VXO$IMPL.:E05TSI                               WED 07/30/97 08:26 Page:144
      969    12654    1       CALL M$OPEN( FPT_OPEN ) ALTRET( OPEN_ERROR ); /* Open new ou file */
      970    12655         /*
      971    12656            Set size for data patch area
      972    12657         */
      973    12658    2       IF VX_O.NUM.DPATCH > 0 THEN DO;
      974    12659    2           SC_RECORD.DATA_SECTION.SIZE = VX_O.NUM.DPATCH;
      975    12660    2           PROC_RECORD.B_PATCHDH.SIZE = VX_O.NUM.DPATCH;
      976    12661    2           PROC_RECORD.B_PATCHDH.SEGID = %ISSID;
      977    12662    2           RELOC_RECORD.B_PATCHDH.OPTYPE = %OPERSECT;
      978    12663    2           RELOC_RECORD.B_PATCHDH.OPERAND = 1;
      979    12664    2           FORM1_BUF_(2) = VECTOR(DD_RECORD);
      980    12665    2           HEAD_RECORD.DD_SIZE = SIZEW(DD_RECORD);
      981    12666    2           HEAD_RECORD.DD_PAGE = SIZEW(DD_RECORD);
      982    12667    2           END;
      983    12668         /*
      984    12669            Set the size for the instruction patch area
      985    12670         */
      986    12671    2       IF VX_O.NUM.IPATCH > 0 THEN DO;
      987    12672    2           SC_RECORD.PROC_SECTION.SIZE = VX_O.NUM.IPATCH + 4;
      988    12673    2           PROC_RECORD.B_PATCHIH.SIZE = VX_O.NUM.IPATCH;
      989    12674    2           PROC_RECORD.B_PATCHIH.SEGID = %ISSID;
      990    12675    2           RELOC_RECORD.B_PATCHIH.OPTYPE = %OPERSECT;
      991    12676    2           DD_RECORD.H.B_PATCHIH.OFFSET = VX_O.NUM.IPATCH;
      992    12677    2           DD_RECORD.H.B_PATCHDH.OFFSET = VX_O.NUM.IPATCH + 2;
      993    12678    2           FORM2_KEY.OFFSET = VX_O.NUM.IPATCH;
      994    12679    2           HEAD_RECORD.ED_SIZE = SIZEW(ED_RECORD);
      995    12680    2           HEAD_RECORD.ED_PAGE = SIZEW(ED_RECORD);
      996    12681    2           FORM1_BUF_(3) = VECTOR(ED_RECORD);
      997    12682    2           NUM_FORM1_RECS = 3;
      998    12683    2           END;
      999    12684         /*
     1000    12685            Write the defined names record, the sections record,
     1001    12686            the entdefs record, and the symdefs record to the
     1002    12687            object unit file, ********************B_PATCH
     1003    12688         */
     1004    12689    2       DO I = 0 TO NUM_FORM1_RECS;
     1005    12690    2           FPT_WRITE.BUF_ = FORM1_BUF_(I);
PL6.E3A0      #002=VXO$PATCH File=VXO$IMPL.:E05TSI                               WED 07/30/97 08:26 Page:145
     1006    12691    2           FORM1_KEY.REC_TYPE = FORM1_REC_TYPES(I);
     1007    12692    2           CALL M$WRITE( FPT_WRITE ) ALTRET( WRITE_ERROR );
     1008    12693    2           END;
     1009    12694         /*
     1010    12695            Write the program record, containing the patch space
     1011    12696            headers B_PATCHIH and B_PATCHDH to the ou file.
     1012    12697         */
     1013    12698    1       FPT_WRITE.KEY_ = VECTOR( FORM2_KEY );
     1014    12699    1       FPT_WRITE.BUF_ = VECTOR( PROC_RECORD );
     1015    12700    1       CALL M$WRITE( FPT_WRITE ) ALTRET( WRITE_ERROR );
     1016    12701         /*
     1017    12702            Write the relocation directives record to the ou file
     1018    12703         */
     1019    12704    1       FORM2_KEY.SUB_TYPE = 1;
     1020    12705    1       FPT_WRITE.BUF_ = VECTOR( RELOC_RECORD );
     1021    12706    1       CALL M$WRITE( FPT_WRITE ) ALTRET( WRITE_ERROR );
     1022    12707         /*
     1023    12708            Write the head record to the ou file
     1024    12709         */
     1025    12710    1       FPT_WRITE.KEY_ = VECTOR( HEAD_KEY );
     1026    12711    1       FPT_WRITE.BUF_ = VECTOR( HEAD_RECORD );
     1027    12712    1       CALL M$WRITE( FPT_WRITE ) ALTRET( WRITE_ERROR );
     1028    12713         /*
     1029    12714            Allocate a VX$LST list element for the new ou file
     1030    12715            ********************B_PATCH
     1031    12716         */
     1032    12717            %ALLOCATE( PTR$=ALL$, TYPE=@GDP, SIZE="SIZEW(VX$LST)" );
     1033    12724    1       ALL$ -> VX$LST.LINK$ = ADDR(NIL);
     1034    12725    1       ALL$ -> VX$LST.TYPE = @OF;
     1035    12726    1       ALL$ -> VX$LST.SUB_TYPE = @OF_ALL;
     1036    12727    1       ALL$ -> VX$LST.OBJECT_NAME$ = ADDR(NIL);
     1037    12728    1       ALL$ -> VX$LST.SC_HEAD$ = ADDR(NIL);
     1038    12729    1       ALL$ -> VX$LST.SC_TAIL$ = ADDR( ALL$ -> VX$LST.SC_HEAD$ );
     1039    12730    1       ALL$ -> VX$LST.P.NAME_ = VECTOR( VLP_NAME );
     1040    12731    1       ALL$ -> VX$LST.P.ACCT_ = VECTOR( NIL );
     1041    12732    1       ALL$ -> VX$LST.P.PASS_ = VECTOR( NIL );
     1042    12733    1       ALL$ -> VX$LST.P.SN_ = VECTOR( NIL );
PL6.E3A0      #002=VXO$PATCH File=VXO$IMPL.:E05TSI                               WED 07/30/97 08:26 Page:146
     1043    12734    1       ALL$ -> VX$LST.P.WSN_ = VECTOR( NIL );
     1044    12735    1       ALL$ -> VX$LST.P.B.RES = @FALSE_B;
     1045    12736    1       ALL$ -> VX$LST.P.B.ASN = @TRUE_B;
     1046    12737    1       ALL$ -> VX$LST.P.ASN = FPT_OPEN.V.ASN#;
     1047    12738         /*
     1048    12739            Add the new ou file to the file list for the root node
     1049    12740         */
     1050    12741    1       VX_ROOT$ -> VX$NODE.TAIL$ -> VX$LST.LINK$ = ALL$;
     1051    12742    1       VX_ROOT$ -> VX$NODE.TAIL$ = ALL$;
     1052    12743    1       CALL VXF$CLOSE( ALL$, @OF, @SAVE ); /* Close the new ou file */
     1053    12744    1       CALL VXF$OPEN (ALL$, 0);
     1054    12745    1       VX_OU_HEAD = HEAD_RECORD;
     1055    12746    1   /*    VX_CURR$ = VX_ROOT$;*/ VX_IN_PATCH = '1'B;
     1056    12747    1       CALL VXO$OBJECT (ALL$,0,ADDR(VX_PASS1_ALL_TYPE));
     1057    12748    1   /*    VX_CURR$ = addr (nil);*/ VX_IN_PATCH = '0'B;
     1058    12749    1       CALL VXF$CLOSE( ALL$, @OF, @SAVE ); /* Close the new ou file */
     1059    12750
     1060    12751    2       DO I = 1 TO SIZEW( VX_DEF_REC_A ) - 1;
     1061    12752    2           DEF_RTYPE = VX_DEF_REC_A(I);
     1062    12753    2           REF_RTYPE = VX_REF_MATCH_A( DEF_RTYPE );
     1063    12754    3           IF VX_ROOT$ -> VX$NODE.L_START_A$(DEF_RTYPE) ~= ADDR(NIL) THEN DO;
     1064    12755    3               CALL VXQ$SORT(
     1065    12756    3                  VX_ROOT$ -> VX$NODE.L_START.DN$,
     1066    12757    3                  VX_ROOT$ -> VX$NODE.L_START_A$(DEF_RTYPE),
     1067    12758    3                  VX_ROOT$ -> VX$NODE.L_STOP_A$(DEF_RTYPE),
     1068    12759    3                  2,
     1069    12760    3                  1,
     1070    12761    3                  2,
     1071    12762    3                  0 );
     1072    12763    3               END;
     1073    12764    2           END; /* Do i = 1 to sizew( VX_DEF_REC_A ) - 1; */
     1074    12765
     1075    12766         /* For searching data defs, incorporate the following into previous do loop */
     1076    12767    2       IF VX_CURR$ -> VX$NODE.L_START.ER$ ~= ADDR(NIL) THEN DO;
     1077    12768    2           CAND_P$ = VX_CURR$ -> VX$NODE.L_START.ER$;
     1078    12769    2           CAND_Q$ = VX_CURR$ -> VX$NODE.L_STOP.ER$;
     1079    12770    3           DO WHILE( CAND_P$ <= CAND_Q$ );
PL6.E3A0      #002=VXO$PATCH File=VXO$IMPL.:E05TSI                               WED 07/30/97 08:26 Page:147
     1080    12771    3               IF CAND_P$ -> VXR$TMPLT.SREF THEN
     1081    12772    3                   CAND_P$ -> VXR$TMPLT.STATE = '1'B;
     1082    12773    3               ELSE
     1083    12774    3                   CAND_P$ -> VXR$TMPLT.STATE = '0'B;
     1084    12775    3               CAND_P$ = PINCRW( CAND_P$, SIZEW( VXR$TMPLT ) );
     1085    12776    3               END; /* Do while( CAND_P$ <= CAND_Q$ ); */
     1086    12777
     1087    12778    2           CALL VXQ$SORT(
     1088    12779    2              VX_CURR$ -> VX$NODE.L_START.RN$,
     1089    12780    2              VX_CURR$ -> VX$NODE.L_START.ER$,
     1090    12781    2              VX_CURR$ -> VX$NODE.L_STOP.ER$,
     1091    12782    2              SIZEW( VXR$TMPLT ),
     1092    12783    2              1,
     1093    12784    2              0,
     1094    12785    2              0 );
     1095    12786    2           END; /* If VX_CURR$ -> VX$NODE.L_START.ER$ ~= addr(nil) then do; */
     1096    12787         /* End of incorporation */
     1097    12788    1       RETURN;
     1098    12789        %EJECT;
PL6.E3A0      #002=VXO$PATCH File=VXO$IMPL.:E05TSI                               WED 07/30/97 08:26 Page:148
     1099    12790    1   VXO$DEL_PATCH_FILE: ENTRY;
     1100    12791
     1101    12792    1       FPT_OPEN.V.FUN# = %IN#;
     1102    12793    1       FPT_OPEN.V.DELETE# = %YES#;
     1103    12794    1       CALL M$OPEN( FPT_OPEN ) ALTRET( OPEN_ERROR );
     1104    12795    1       RETURN;
     1105    12796
     1106    12797        %EJECT;
PL6.E3A0      #002=VXO$PATCH File=VXO$IMPL.:E05TSI                               WED 07/30/97 08:26 Page:149
     1107    12798    1   OPEN_ERROR:
     1108    12799        /*E*  ERROR: VXO-E$PATCH_OPEN_VX-0
     1109    12800              MESSAGE: Internal LINK error.  Unable to open %FN
     1110    12801              DESCRIPTION: Unable to open *********************B_PATCH. This file is
     1111    12802                      used to generate an object unit for the DPATCH and IPATCH options
     1112    12803        */
     1113    12804    1       VX_FPT_ERRMSG.V.DCB# = DCBNUM( M$OF );
     1114    12805            %SCREAM( ERR#=E$PATCH_OPEN_VX, MID="'O'", LEVEL=@E$F_D_VX );
     1115    12808    1       CALL M$MERC ALTRET(MERC_ERROR);
     1116    12809            %ERROR_IT;
     1117    12812
     1118    12813    1   WRITE_ERROR:
     1119    12814        /*E*  ERROR:      VXO-E$PATCH_WRITE_VX-0
     1120    12815              MESSAGE: Internal LINK error.  Unable to write to %FN
     1121    12816              DESCRIPTION: Unable to write to *********************B_PATCH file to
     1122    12817                           generate an object unit for the DPATCH and IPATCH options
     1123    12818        */
     1124    12819    1       VX_FPT_ERRMSG.V.DCB# = DCBNUM( M$OF );
     1125    12820            %SCREAM( ERR#=E$PATCH_WRITE_VX, MID="'O'", LEVEL=@E$F_D_VX );
     1126    12823    1       CALL M$MERC ALTRET(MERC_ERROR);
     1127    12824            %ERROR_IT;
     1128    12827    1   MERC_ERROR:
     1129    12828    1       CALL VXE$MERC;
     1130    12829
     1131    12830    1   END VXO$PATCH;

PL6.E3A0      #002=VXO$PATCH File=VXO$IMPL.:E05TSI                               WED 07/30/97 08:26 Page:150
--  Include file information  --

   B_SEGIDS_C.:E05TOU  is referenced.
   VX_PERR_C.:E05TOU  is referenced.
   VX_FIXED_R.:E05TOU  cannot be made into a system file and is referenced.
   VX_DATA_R.:E05TOU  cannot be made into a system file and is referenced.
   VX_MACRO_C.:E05TOU  is referenced.
   VX_SUBS_C.:E05TOU  is referenced.
   XU_MACRO_C.:E05TOU  is referenced.
   B$OBJECT_C.:E05TOU  is referenced.
   CP_6_SUBS.:E05TOU  is referenced.
   CP_6.:E05TOU  cannot be made into a system file and is referenced.
   B$JIT_C.:E05TOU  was found in the system file and is never referenced.
   CP_6_C.:E05TOU  was found in the system file and is referenced.
      No diagnostics issued in procedure VXO$PATCH.

   Procedure VXO$PATCH requires 337 words for executable code.
   Procedure VXO$PATCH requires 18 words of local(AUTO) storage.

    No errors detected in file VXO$IMPL.:E05TSI    .

PL6.E3A0      #002=VXO$PATCH File=VXO$IMPL.:E05TSI                               WED 07/30/97 08:26 Page:151

 Object Unit name= VXO$PATCH                                  File name= VXO$IMPL.:E05TOU
 UTS= JUL 30 '97 08:26:01.00 WED                              Compiler= PL-6/E31         Sev=      00
 SharedLib= :SHARED_SYSTEM                                    Alt SharedLib=


    ****  Control sections  ****

 Sect   Type Bound  Init  Size OctSiz  Section name(segment info)
    0   DCB   even  none     0      0  M$UC
    1   Data  even  none   146    222  VXO$PATCH
    2  RoData even  UTS     11     13  VXO$PATCH
    3   DCB   even  none     0      0  M$OF
    4   Proc  even  none   337    521  VXO$PATCH
    5  RoData even  none    43     53  VXO$PATCH

    ****  Entry defs  ****

                              Check   Calling
                             calling  sequence
  Sect OctLoc Primary Altret sequence   type   Parms  Name
     4      0   yes            yes      Std        0  VXO$PATCH
     4    452                  yes      Std        0  VXO$DEL_PATCH_FILE
PL6.E3A0      #002=VXO$PATCH File=VXO$IMPL.:E05TSI                               WED 07/30/97 08:26 Page:152

  ****  Entry refs  ****

         Check        Calling
        calling       sequence
Altret sequence SRef   type   Args  Name
         yes           Std       3 VXA$GET
 yes     yes           Std       3 VXF$OPEN
         yes           Std       3 VXF$CLOSE
         yes           Std       4 VXE$ERROR
         yes           Std       3 VXO$OBJECT
         yes           Std       7 VXQ$SORT
         yes           Std       0 VXE$MERC
                       nStd      0 X66_AUTO_0
                       Std       0 B_CONSPOOL_D
                       nStd      0 X66_ARET

  ****  Data refs  ****

  Flags:  r = read only, s = secondary
Flgs Name                             Flgs Name                             Flgs Name
     M$UC                                  VX_OU_HEAD                            VX_IN_PATCH
     VX_ROOT$                              VX_CURR$                              VX_ERRORS
     VX_M_FREE                             VX_M_ALL                              VX_M_BASE_PTR
     VX_O                                  VX_PASS1_ALL_TYPE                     VX_DEF_REC_A
     VX_REF_MATCH_A                        VX_FPT_ERRMSG                         M$OF
     B_VECTNIL

  ****  Segment refs  ****

  Flags:  r = read only, s = secondary
Flgs Name                             Flgs Name                             Flgs Name
     ISSID                                 NULLSID
PL6.E3A0      #002=VXO$PATCH File=VXO$IMPL.:E05TSI                               WED 07/30/97 08:26 Page:153


      720        1        /*M* VXO$PATCH - Builds an object unit for the DPATCH and IPATCH options. */
      721        2        /*T***********************************************************/
      722        3        /*T*                                                         */
      723        4        /*T* Copyright (c) Bull HN Information Systems Inc., 1997    */
      724        5        /*T*                                                         */
      725        6        /*T***********************************************************/
      726        7        /*F* NAME:        VXO$PATCH
      727        8             PURPOSE:     Generate an object unit file for the patch space defined
      728        9                          by the DPATCH and IPATCH link options.
      729       10             ENTRY:       VXO$DEL_PATCH_FILE - deletes *********************B_PATCH.
      730       11             DESCRIPTION:
      731       12                  VXO$PATCH generates an object unit file, ********************B_PATCH,
      732       13                  for the patch space area defined by the DPATCH and IPATCH link
      733       14                  options.  The object unit contains an procedure section and a data
      734       15                  section.  The primary entdef B_PATCHI defines the start of
      735       16                  the procedure section and the start of the instruction patch
      736       17                  space. The instruction patch space (its size is determined by
      737       18                  the the IPATCH option) is followed by a header for the instruction
      738       19                  patch space (SYMDEF B_PATCHIH) and a header for the data patch
      739       20                  space (SYMDEF B_PATCHDH).  Each header contains a pointer to the
      740       21                  start of the patch space ( ADDR(B_PATCHI) for B_PATCHIH and
      741       22                  ADDR(B_PATCHD) for B_PATCHDH) and a word containing the size of the
      742       23                  patch space ( VX_O.NUM.IPATCH for B_PATCHIH and VX_O.NUM.DPATCH for
      743       24                  B_PATCHDH).  The symdef B_PATCHD defines the start of the data
      744       25                  section.  The size of the data area is defined by the DPATCH option.
      745       26                  A VX$LST element is allocated for the patch space object unit file
      746       27                  and is added to the file list for the root node.
      747       28        */
      748       29        VXO$PATCH: PROC;

     29  4 000000   000000 700200 xent  VXO$PATCH    TSX0  ! X66_AUTO_0
         4 000001   000022 000000                    ZERO    18,0

      749       30
      750       31         /*
      751       32            Include files
PL6.E3A0      #002=VXO$PATCH File=VXO$IMPL.:E05TSI                               WED 07/30/97 08:26 Page:154
      752       33         */
      753       34        %INCLUDE CP_6;
      754      115        %INCLUDE CP_6_SUBS;
      755      655        %INCLUDE B$OBJECT_C;
      756     4085        %INCLUDE XU_MACRO_C;
      757     7191        %INCLUDE VX_SUBS_C;
      758     7409        %INCLUDE VX_MACRO_C;
      759     8546        %INCLUDE VX_DATA_R;
      760    10165        %INCLUDE VX_FIXED_R;
      761    10827        %INCLUDE VX_PERR_C;
      762    11081        %INCLUDE B_SEGIDS_C;
      763    11620        %VX$NODE;

             11632    1   /*******************************************************************************
             11633    1   *                                                                              *
             11634    1   *                          VX$NODE                                                *
             11635    1   *                                                                              *
             11636    1   *******************************************************************************/

             11652    1   DCL 1 VX$NODE      ALIGNED    BASED,
             11653    1         2 SON$ PTR /*(ADDR(NIL))*/, /* Son pointer                      */
             11654    1         2 BROTHER$ PTR /*(ADDR(NIL))*/, /* Brother pointer              */
             11655    1         2 FATHER$ PTR /*(ADDR(NIL))*/, /* Father pointer                */
             11656    1         2 PATH$ PTR /*(ADDR(NIL))*/, /* Path   pointer                  */
             11657    1         2 HEAD$       PTR /*(ADDR(NIL))*/, /* Head pointer to
             11658                              to list of file nodes for this node            */
             11659    1         2 TAIL$ PTR /*(ADDR(NIL))*/, /* Tail pointer to list            */
             11660    1         2 SHARED_LIB_HEAD$ PTR /*(ADDR(NIL))*/,
             11660                  /* Head pointer to shared library list */
             11661    1         2 LIB_HEAD$         PTR /*(ADDR(NIL))*/,
             11661                  /* Head pointer to list of shared libraries
             11662                                          which have been mapped to included libraries */
             11663    1         2 NUM          UBIN(36)  UNAL,    /* Node number                        */
             11664    1         2 DEPTH          UBIN(36)  UNAL,  /* Depth; ROOT=0*/
             11665    1         2 ADDR_START_A(0:2/*@ROS*/) SBIN WORD /*(0*3)*/, /* Array            */
             11666    1         2 ADDR_START REDEF  ADDR_START_A,
             11667    1           3 RDATA       SBIN WORD,   /* First address for this node in data     */
PL6.E3A0      #002=VXO$PATCH File=VXO$IMPL.:E05TSI                               WED 07/30/97 08:26 Page:155
             11668    1           3 RPROC       SBIN WORD,   /* First address for this node in proc     */
             11669    1           3 ROS       SBIN WORD,          /* Last address for program in ros    */
             11670    1         2 ADDR_STOP_A(0:2/*@ROS*/) SBIN WORD /*(-1*3)*/, /* Array            */
             11671    1         2 ADDR_STOP  REDEF  ADDR_STOP_A,
             11672    1           3 RDATA       SBIN WORD,        /* Last address for this node in data */
             11673    1           3 RPROC       SBIN WORD,        /* Last address for this node in proc */
             11674    1           3 ROS       SBIN WORD,          /* Last address for program in ros    */
             11675    1         2 START_PAGE#_A(0:2/*@ROS*/) SBIN WORD /*(0*3)*/, /* Array           */
             11676    1         2 START_PAGE# REDEF START_PAGE#_A,
             11677    1           3 RDATA       SBIN WORD,   /* First page    for this node in data     */
             11678    1           3 RPROC       SBIN WORD,   /* First page    for this node in proc     */
             11679    1           3 ROS       SBIN WORD,          /* First page   for program in ros    */
             11680    1         2 STOP_PAGE#_A(0:2/*@ROS*/) SBIN WORD /*(-1*3)*/, /* Array*/
             11681    1         2 STOP_PAGE#  REDEF STOP_PAGE#_A,
             11682    1           3 RDATA       SBIN WORD,   /* Last  page    for this node in data     */
             11683    1           3 RPROC       SBIN WORD,   /* Last  page    for this node in proc     */
             11684    1           3 ROS       SBIN WORD,          /* Last  page   for program in ros    */
             11685    1         2 START_SC_ALL$ PTR /*(ADDR(NIL))*/,
             11685                  /* Starting pointer for common sections for this node */
             11686    1         2 STOP_SC_ALL$ PTR /*(ADDR(NIL))*/,
             11686                  /* Stopping pointer for common sections for this node */
             11687    1         2 L_START,
             11688    1           3 SN$ PTR /*(ADDR(NIL))*/, /* Segment definition names        */
             11689    1           3 DN$ PTR /*(ADDR(NIL))*/, /* Def names                       */
             11690    1           3 RN$ PTR /*(ADDR(NIL))*/, /* Ref names                       */
             11691    1           3 SC$ PTR /*(ADDR(NIL))*/, /* Sections                        */
             11692    1           3 ED$ PTR /*(ADDR(NIL))*/, /* Entry defs*/
             11693    1           3 ER$ PTR /*(ADDR(NIL))*/, /* Entry refs*/
             11694    1           3 DD$ PTR /*(ADDR(NIL))*/, /* Data defs                       */
             11695    1           3 DR$ PTR /*(ADDR(NIL))*/, /* Data refs                       */
             11696    1           3 SD$ PTR /*(ADDR(NIL))*/, /* Seg defs                        */
             11697    1           3 SR$ PTR /*(ADDR(NIL))*/, /* Seg refs                        */
             11698    1         2 L_START_A$(0:9)     REDEF L_START PTR,
             11699    1         2 L_STOP,
             11700    1           3 SN$ PTR /*(ADDR(NIL))*/, /* Segment definition names        */
             11701    1           3 DN$ PTR /*(ADDR(NIL))*/, /* Def names                       */
             11702    1           3 RN$ PTR /*(ADDR(NIL))*/, /* Ref names                       */
PL6.E3A0      #002=VXO$PATCH File=VXO$IMPL.:E05TSI                               WED 07/30/97 08:26 Page:156
             11703    1           3 SC$ PTR /*(ADDR(NIL))*/, /* Sections                        */
             11704    1           3 ED$ PTR /*(ADDR(NIL))*/, /* Entry defs*/
             11705    1           3 ER$ PTR /*(ADDR(NIL))*/, /* Entry refs*/
             11706    1           3 DD$ PTR /*(ADDR(NIL))*/, /* Data defs                       */
             11707    1           3 DR$ PTR /*(ADDR(NIL))*/, /* Data refs                       */
             11708    1           3 SD$ PTR /*(ADDR(NIL))*/, /* Seg defs                        */
             11709    1           3 SR$ PTR /*(ADDR(NIL))*/, /* Seg refs                        */
             11710    1         2 L_STOP_A$(0:9) REDEF   L_STOP    PTR,
             11711    1         2 L_SIZE,
             11712    1           3 SN      UBIN /*(0)*/, /* Segment definition names           */
             11713    1           3 DN      UBIN /*(0)*/, /* Def names                          */
             11714    1           3 RN      UBIN /*(0)*/, /* Ref names                          */
             11715    1           3 SC      UBIN /*(0)*/, /* Sections                           */
             11716    1           3 ED      UBIN /*(0)*/, /* Entry defs*/
             11717    1           3 ER      UBIN /*(0)*/, /* Entry refs*/
             11718    1           3 DD      UBIN /*(0)*/, /* Data defs                          */
             11719    1           3 DR      UBIN /*(0)*/, /* Data refs                          */
             11720    1           3 SD      UBIN /*(0)*/, /* Seg defs                           */
             11721    1           3 SR      UBIN /*(0)*/, /* Seg refs                           */
             11722    1         2 L_SIZE_A(0:9)  REDEF   L_SIZE    UBIN,
             11723    1         2 L_PREV_SIZE,
             11724    1           3 SN      UBIN /*(0)*/, /* Segment definition names           */
             11725    1           3 DN      UBIN /*(0)*/, /* Def names                          */
             11726    1           3 RN      UBIN /*(0)*/, /* Ref names                          */
             11727    1           3 SC      UBIN /*(0)*/, /* Sections                           */
             11728    1           3 ED      UBIN /*(0)*/, /* Entry defs*/
             11729    1           3 ER      UBIN /*(0)*/, /* Entry refs*/
             11730    1           3 DD      UBIN /*(0)*/, /* Data defs                          */
             11731    1           3 DR      UBIN /*(0)*/, /* Data refs                          */
             11732    1           3 SD      UBIN /*(0)*/, /* Seg defs                           */
             11733    1           3 SR      UBIN /*(0)*/, /* Seg refs                           */
             11734    1         2 L_PREV_SIZE_A(0:9)  REDEF   L_PREV_SIZE    UBIN,
             11735    1         2 BIT_MAP                ALIGNED,
             11736    1           3 DATA                  ALIGNED,
             11737    1             4 BITS(0:255)          BIT(1)    UNAL /*('0'B*256)*/,
             11738    1           3 RPROC                 ALIGNED,
             11739    1             4 BITS(0:255)          BIT(1)    UNAL /*('0'B*256)*/,
PL6.E3A0      #002=VXO$PATCH File=VXO$IMPL.:E05TSI                               WED 07/30/97 08:26 Page:157
             11740    1           3 ROS                   ALIGNED,
             11741    1             4 BITS(0:255)          BIT(1)    UNAL /*('0'B*256)*/,
             11742    1         2 L_SC_START,
             11743    1           3 SC_BLK_COM$ PTR /*(ADDR(NIL))*/, /* Blank common            */
             11744    1           3 SC_ROOT_LBL_COM$ PTR /*(ADDR(NIL))*/, /* Root labelled common */
             11745    1           3 SC_LBL_COM$ PTR /*(ADDR(NIL))*/, /* Labelled common         */
             11746    1           3 SC_DCB$ PTR /*(ADDR(NIL))*/, /* Dcbs                        */
             11747    1         2 L_SC_START_A$(0:3)  REDEF L_SC_START PTR,
             11748    1         2 L_SC_STOP,
             11749    1           3 SC_BLK_COM$ PTR /*(ADDR(NIL))*/, /* Blank common            */
             11750    1           3 SC_ROOT_LBL_COM$ PTR /*(ADDR(NIL))*/, /* Root labelled common */
             11751    1           3 SC_LBL_COM$ PTR /*(ADDR(NIL))*/, /* Labelled common         */
             11752    1           3 SC_DCB$ PTR /*(ADDR(NIL))*/, /* Dcbs                        */
             11753    1         2 L_SC_STOP_A$(0:3)   REDEF L_SC_STOP  PTR,
             11754    1         2 PROMOTE_HEAD,
             11755    1           3 BLK_COM$              PTR /*(ADDR(NIL))*/,
             11756    1           3 LBL_COM$              PTR /*(ADDR(NIL))*/,
             11757    1         2 PROMOTE_HEAD_A$(0:1) REDEF PROMOTE_HEAD     PTR,
             11758    1         2 PROMOTE_TAIL,
             11759    1           3 BLK_COM$              PTR /*(ADDR(NIL))*/,
             11760    1           3 LBL_COM$              PTR /*(ADDR(NIL))*/,
             11761    1         2 PROMOTE_TAIL_A$(0:1) REDEF PROMOTE_TAIL     PTR,
             11762    1         2 HAVE_ASL          BIT(1)    UNAL /*('0'B)*/,
             11763    1         2 ALL_BLK_COM          BIT(1)    UNAL /*('0'B)*/,
             11764    1         2 USE_NODE          BIT(1)    UNAL /*('0'B)*/,
             11765    1         2 *                 BIT(33)   UNAL /*('0'B)*/,
             11766    1         2 BLANK_COMMON$     PTR       ALIGNED /*(ADDR(NIL))*/;

      764    11770        %VX$LST;

             11783    1   /*******************************************************************************
             11784    1   *                                                                              *
             11785    1   *                          VX$LST                                                 *
             11786    1   *                                                                              *
             11787    1   *******************************************************************************/

             11792    1   DCL 1 VX$LST                          ALIGNED BASED,
PL6.E3A0      #002=VXO$PATCH File=VXO$IMPL.:E05TSI                               WED 07/30/97 08:26 Page:158
             11793    1         2 LINK$        PTR,               /* Link to next item                  */
             11794    1         2 TYPE         UBIN( 18) UNAL,    /* Type                               */
             11795    1         2 SUB_TYPE     UBIN( 18) UNAL,    /* Sub-type                           */
             11796    1         2 OBJECT_NAME$ PTR,               /* Pointer to object unit name        */
             11797    1         2 PRIOR$ REDEF OBJECT_NAME$ PTR,  /* Pointer to prior element in list   */
             11798    1         2 SC_HEAD$     PTR,               /* Head pointer to section link list  */
             11799    1         2 LIBSRCH$ REDEF SC_HEAD$ PTR,    /* Pointer to account list for library*/
             11800    1         2 SC_TAIL$     PTR,               /* Tail pointer to section link list  */
             11801    1         2 LIB REDEF SC_TAIL$,             /* Used only by UNSAT library files   */
             11802    1           3 USED UBIN HALF UNAL,          /* 1 => library file used, 0=>not used*/
             11803    1           3 NEEDED UBIN HALF UNAL,   /* 1 => library file needed, 0=>not needed*/
             11804    1         2 P,
             11805    1           3 NAME_       ALIGNED,
             11806    1             4 BOUND      UBIN(20)  UNAL,
             11807    1             4 FLAGSV     UBIN(11)  UNAL,
             11808    1             4 *          BIT(5)    UNAL,
             11809    1             4 NAME$      PTR,
             11810    1           3 ACCT_       ALIGNED,
             11811    1             4 BOUND      UBIN(20)  UNAL,
             11812    1             4 FLAGSV     UBIN(11)  UNAL,
             11813    1             4 *          BIT(5)    UNAL,
             11814    1             4 ACCT$      PTR,
             11815    1           3 PASS_       ALIGNED,
             11816    1             4 BOUND      UBIN(20)  UNAL,
             11817    1             4 FLAGSV     UBIN(11)  UNAL,
             11818    1             4 *          BIT(5)    UNAL,
             11819    1             4 PASS$      PTR,
             11820    1           3 SN_         ALIGNED,
             11821    1             4 BOUND      UBIN(20)  UNAL,
             11822    1             4 FLAGSV     UBIN(11)  UNAL,
             11823    1             4 *          BIT(5)    UNAL,
             11824    1             4 SN$        PTR,
             11825    1           3 WSN_        ALIGNED,
             11826    1             4 BOUND      UBIN(20)  UNAL,
             11827    1             4 FLAGSV     UBIN(11)  UNAL,
             11828    1             4 *          BIT(5)    UNAL,
             11829    1             4 WSN$       PTR,
PL6.E3A0      #002=VXO$PATCH File=VXO$IMPL.:E05TSI                               WED 07/30/97 08:26 Page:159
             11830    1           3 B           ALIGNED,
             11831    1             4 RES        BIT(1)    UNAL,
             11832    1             4 ASN        BIT(1)    UNAL,
             11833    1             4 ACCT       BIT(1)    UNAL,
             11834    1             4 *          BIT(33)   UNAL,
             11835    1           3 RES         CHAR(4)   ALIGNED,
             11836    1           3 ASN         UBIN(36)  ALIGNED;
      765    11839        %VXR$TMPLT;

             11852    1   /*******************************************************************************
             11853    1   *                                                                              *
             11854    1   *                          VXR$TMPLT                                              *
             11855    1   *                                                                              *
             11856    1   *******************************************************************************/

             11861    1   DCL 1 VXR$TMPLT BASED ALIGNED,
             11862    1         2 NPOINTER SBIN HALF UNAL,
             11863                /*K*  NPOINTER is the word index to the symbol name.  */
             11864    1         2 SREF BIT(1) UNAL,
             11865                /*K*  SREF is set is this is a secondary reference.  */
             11866    1         2 READ_ONLY BIT(1) UNAL,
             11867    1         2 GOT BIT(1) UNAL,
             11868                /*K*  GOT is set if got the OU name displacement.  */
             11869    1         2 STATE REDEF GOT BIT(1) UNAL,
             11870    1         2 OPOINTER UBIN(15) UNAL;
             11871                /*K*  OPOINTER is the word index to the OU name.  */

             11893    1   /*******************************************************************************
             11894    1   *                                                                              *
             11895    1   *                          VXR$SAT                                                *
             11896    1   *                                                                              *
             11897    1   *******************************************************************************/

             11901    1   DCL 1 VXR$SAT                 ALIGNED   BASED,
             11902    1         2 VALUE        UBIN(36)  ALIGNED,
             11903    1         2 SEG   REDEF  VALUE,
             11904    1           3 OFFSET     UBIN(18)  UNAL,
PL6.E3A0      #002=VXO$PATCH File=VXO$IMPL.:E05TSI                               WED 07/30/97 08:26 Page:160
             11905    1           3 *          BIT(6)    UNAL,
             11906    1           3 SEGID      UBIN(12)  UNAL,
             11907    1         2 BELOW        BIT(1)    UNAL,
             11908    1         2 *            BIT(17)   UNAL,
             11909    1         2 NODE#        UBIN(18)  UNAL;
      766    11911        %BANNER( ARG=FPTS );

             11919    1   /*******************************************************************************
             11920    1   *                                                                              *
             11921    1   *                          FPTS                                                 *
             11922    1   *                                                                              *
             11923    1   *******************************************************************************/

      767    11927        %FPT_OPEN(
      768    11928         ACS=DIRECT,
      769    11929         ASN=FILE,
      770    11930         DCB=M$OF,
      771    11931         FUN=CREATE,
      772    11932         SCRUB=YES,
      773    11933         NAME=VLP_NAME,
      774    11934         ORG=KEYED);
      775    12043        %VLP_NAME( NAME='********************B_PATCH', STCLASS=CONSTANT );
      776    12070        %FPT_WRITE( DCB=M$OF, KEY=FORM1_KEY, NEWKEY=YES, ONEWKEY=NO );
      777    12101        %BANNER( ARG=DCBS);

             12109    1   /*******************************************************************************
             12110    1   *                                                                              *
             12111    1   *                          DCBS                                                 *
             12112    1   *                                                                              *
             12113    1   *******************************************************************************/

      778    12117    1   DCL M$OF DCB;
      779    12118        %BANNER( ARG=SUBS );

             12126    1   /*******************************************************************************
             12127    1   *                                                                              *
             12128    1   *                          SUBS                                                 *
PL6.E3A0      #002=VXO$PATCH File=VXO$IMPL.:E05TSI                               WED 07/30/97 08:26 Page:161
             12129    1   *                                                                              *
             12130    1   *******************************************************************************/

      780    12134        %B$RECORDSUBS;
      781    12162        %B$RELOCSUBS;
      782    12192        %B$SECTIONSUBS;
      783    12207        %SUB_CST;
      784    12223        %BANNER( ARG=HEAD_KEY );

             12231    1   /*******************************************************************************
             12232    1   *                                                                              *
             12233    1   *                          HEAD_KEY                                               *
             12234    1   *                                                                              *
             12235    1   *******************************************************************************/

      785    12239    1   DCL 1 HEAD_KEY STATIC,
      786    12240    1         2 COUNT UBIN BYTE UNAL INIT(9),
      787    12241    1         2 TEXT CHAR(9) INIT('"B_PATCHI');
      788    12242        %BANNER( ARG=HEAD_RECORD );

             12250    1   /*******************************************************************************
             12251    1   *                                                                              *
             12252    1   *                          HEAD_RECORD                                            *
             12253    1   *                                                                              *
             12254    1   *******************************************************************************/

      789    12258    1   DCL 1 HEAD_RECORD STATIC ALIGNED,
      790    12259    1         2 UTS UBIN(36) UNAL INIT(0),
      791    12260    1         2 WORDSIZE UBIN BYTE UNAL INIT(36),
      792    12261    1         2 CMPLRID UBIN(27) UNAL INIT(0),
      793    12262    1         2 START_ADDRESS,
      794    12263    1           3 OPERAND_TYPE UBIN( 4) UNAL INIT(0),
      795    12264    1           3 * BIT ( 5) UNAL INIT('0'B),
      796    12265    1           3 OPERAND UBIN( 9) UNAL INIT(0),
      797    12266    1           3 OFFSET UBIN(18) UNAL INIT(0),
      798    12267    1         2 SEVLEV UBIN(18) UNAL INIT(0),
      799    12268    1         2 LB_SIZE UBIN(18) UNAL INIT(0),
PL6.E3A0      #002=VXO$PATCH File=VXO$IMPL.:E05TSI                               WED 07/30/97 08:26 Page:162
      800    12269    1         2 PR_SIZE UBIN(18) UNAL INIT(100),
      801    12270    1         2 RL_SIZE UBIN(18) UNAL INIT(100),
      802    12271    1         2 DN_SIZE UBIN(18) UNAL INIT( SIZEW(DN_RECORD) ),
      803    12272    1         2 DN_PAGE UBIN(18) UNAL INIT( SIZEW(DN_RECORD) ),
      804    12273    1         2 RN_SIZE UBIN(18) UNAL INIT(0),
      805    12274    1         2 RN_PAGE UBIN(18) UNAL INIT(0),
      806    12275    1         2 ED_SIZE UBIN(18) UNAL INIT( 0 ),
      807    12276    1         2 ED_PAGE UBIN(18) UNAL INIT( 0 ),
      808    12277    1         2 ER_SIZE UBIN(18) UNAL INIT(0),
      809    12278    1         2 ER_PAGE UBIN(18) UNAL INIT(0),
      810    12279    1         2 DD_SIZE UBIN(18) UNAL INIT( SIZEW(DD_RECORD.H) ),
      811    12280    1         2 DD_PAGE UBIN(18) UNAL INIT( SIZEW(DD_RECORD.H) ),
      812    12281    1         2 DR_SIZE UBIN(18) UNAL INIT(0),
      813    12282    1         2 DR_PAGE UBIN(18) UNAL INIT(0),
      814    12283    1         2 SD_SIZE UBIN(18) UNAL INIT(0),
      815    12284    1         2 SD_PAGE UBIN(18) UNAL INIT(0),
      816    12285    1         2 SR_SIZE UBIN(18) UNAL INIT(0),
      817    12286    1         2 SR_PAGE UBIN(18) UNAL INIT(0),
      818    12287    1         2 LIB,
      819    12288    1           3 COUNT UBIN( 9) UNAL INIT(0),
      820    12289    1           3 NAME CHAR(31) UNAL
      821    12290    1    INIT('                               '),
      822    12291    1         2 ALIB,
      823    12292    1           3 COUNT UBIN( 9) UNAL INIT(0),
      824    12293    1           3 NAME CHAR(31) UNAL
      825    12294    1    INIT('                               ');
      826    12295        %BANNER( ARG="DN_RECORD - Defined names");

             12303    1   /*******************************************************************************
             12304    1   *                                                                              *
             12305    1   *                          DN_RECORD - Defined names                              *
             12306    1   *                                                                              *
             12307    1   *******************************************************************************/

      827    12311    1   DCL 1 DN_RECORD STATIC ALIGNED,
      828    12312    1         2 B_PATCHI_NAME,
      829    12313    1           3 * UBIN HALF UNAL INIT(8),
PL6.E3A0      #002=VXO$PATCH File=VXO$IMPL.:E05TSI                               WED 07/30/97 08:26 Page:163
      830    12314    1           3 * CHAR(8) INIT('B_PATCHI'),
      831    12315    1           3 * UBIN HALF UNAL INIT(0),
      832    12316    1         2 B_PATCHIH_NAME,
      833    12317    1           3 * UBIN HALF UNAL INIT(9),
      834    12318    1           3 * CHAR(9) INIT('B_PATCHIH'),
      835    12319    1           3 * UBIN BYTE UNAL INIT(0),
      836    12320    1         2 B_PATCHDH_NAME,
      837    12321    1           3 * UBIN HALF UNAL INIT(9),
      838    12322    1           3 * CHAR(9) INIT('B_PATCHDH'),
      839    12323    1           3 * UBIN BYTE UNAL INIT(0),
      840    12324    1         2 B_PATCHD_NAME,
      841    12325    1           3 * UBIN HALF UNAL INIT(8),
      842    12326    1           3 * CHAR(8) INIT('B_PATCHD'),
      843    12327    1           3 * UBIN HALF UNAL INIT(0);
      844    12328        %BANNER( ARG="SC_RECORD - Defines Sections");

             12336    1   /*******************************************************************************
             12337    1   *                                                                              *
             12338    1   *                          SC_RECORD - Defines Sections                           *
             12339    1   *                                                                              *
             12340    1   *******************************************************************************/

      845    12344    1   DCL 1 SC_RECORD STATIC ALIGNED,
      846    12345    1         2 PROC_SECTION,
      847    12346    1           3 TYPE UBIN BYTE UNAL INIT( %CODESECTION ),
      848    12347    1           3 * BIT(1) INIT('0'B),
      849    12348    1           3 INITZERO BIT(1) INIT('1'B),
      850    12349    1           3 INITUTS BIT(1) INIT('0'B),
      851    12350    1           3 SEGMENT BIT(1) INIT('0'B),
      852    12351    1           3 * BIT(3) INIT('0'B),
      853    12352    1           3 BOUND BIT(2) INIT('0'B),
      854    12353    1           3 SIZE UBIN HALF UNAL INIT(4),
      855    12354    1           3 NPOINTER UBIN HALF UNAL INIT(0),
      856    12355    1           3 * UBIN HALF UNAL INIT(0),
      857    12356    1         2 DATA_SECTION,
      858    12357    1           3 TYPE UBIN BYTE UNAL INIT( %DATASECTION ),
      859    12358    1           3 * BIT(1) INIT('0'B),
PL6.E3A0      #002=VXO$PATCH File=VXO$IMPL.:E05TSI                               WED 07/30/97 08:26 Page:164
      860    12359    1           3 INITZERO BIT(1) INIT('1'B),
      861    12360    1           3 INITUTS BIT(1) INIT('0'B),
      862    12361    1           3 SEGMENT BIT(1) INIT('0'B),
      863    12362    1           3 * BIT(3) INIT('0'B),
      864    12363    1           3 BOUND BIT(2) INIT('0'B),
      865    12364    1           3 SIZE UBIN HALF UNAL INIT(0),
      866    12365    1           3 NPOINTER UBIN HALF UNAL INIT(9),
      867    12366    1           3 * UBIN HALF UNAL INIT(0);
      868    12367        %BANNER( ARG="ED_RECORD - Defines ENTDEFs");

             12375    1   /*******************************************************************************
             12376    1   *                                                                              *
             12377    1   *                          ED_RECORD - Defines ENTDEFs                            *
             12378    1   *                                                                              *
             12379    1   *******************************************************************************/

      869    12383    1   DCL 1 ED_RECORD STATIC ALIGNED,
      870    12384    1         2 B_PATCHI,
      871    12385    1           3 LFLAGS UBIN BYTE UNAL INIT(0),
      872    12386    1           3 SECTNUM UBIN BYTE UNAL INIT(0),
      873    12387    1           3 OFFSET UBIN HALF UNAL INIT(0),
      874    12388    1           3 NPOINTER UBIN HALF UNAL INIT(0),
      875    12389    1           3 PRI BIT(1) UNAL INIT('1'B),
      876    12390    1           3 ALT BIT(1) UNAL INIT('0'B),
      877    12391    1           3 CHECK BIT(1) UNAL INIT('1'B),
      878    12392    1           3 CST UBIN(4) UNAL INIT( %NSTD# ),
      879    12393    1           3 NPARAM UBIN(11) UNAL INIT(0);
      880    12394        %BANNER( ARG="DD_RECORD - Defines SYMDEFs");

             12402    1   /*******************************************************************************
             12403    1   *                                                                              *
             12404    1   *                          DD_RECORD - Defines SYMDEFs                            *
             12405    1   *                                                                              *
             12406    1   *******************************************************************************/

      881    12410    1   DCL 1 DD_RECORD STATIC ALIGNED,
      882    12411    1         2 H, /* Symdefs for patch space headers */
PL6.E3A0      #002=VXO$PATCH File=VXO$IMPL.:E05TSI                               WED 07/30/97 08:26 Page:165
      883    12412    1           3 B_PATCHIH,
      884    12413    1             4 LFLAGS UBIN BYTE UNAL INIT(0),
      885    12414    1             4 SECTNUM UBIN BYTE UNAL INIT(0),
      886    12415    1             4 OFFSET UBIN HALF UNAL INIT(0),
      887    12416    1             4 NPOINTER UBIN HALF UNAL INIT(3),
      888    12417    1             4 CONSTNT BIT(1) INIT('0'B),
      889    12418    1             4 * UBIN(17) UNAL INIT(0),
      890    12419    1           3 B_PATCHDH,
      891    12420    1             4 LFLAGS UBIN BYTE UNAL INIT(0),
      892    12421    1             4 SECTNUM UBIN BYTE UNAL INIT(0),
      893    12422    1             4 OFFSET UBIN HALF UNAL INIT(2),
      894    12423    1             4 NPOINTER UBIN HALF UNAL INIT(6),
      895    12424    1             4 CONSTNT BIT(1) INIT('0'B),
      896    12425    1             4 * UBIN(17) UNAL INIT(0),
      897    12426    1         2 B_PATCHD,
      898    12427    1           3 LFLAGS UBIN BYTE UNAL INIT(0),
      899    12428    1           3 SECTNUM UBIN BYTE UNAL INIT(1),
      900    12429    1           3 OFFSET UBIN HALF UNAL INIT(0),
      901    12430    1           3 NPOINTER UBIN HALF UNAL INIT(9),
      902    12431    1           3 CONSTNT BIT(1) INIT('0'B),
      903    12432    1           3 * UBIN(17) UNAL INIT(0);
      904    12433        %BANNER( ARG=FORM1_KEY );

             12441    1   /*******************************************************************************
             12442    1   *                                                                              *
             12443    1   *                          FORM1_KEY                                              *
             12444    1   *                                                                              *
             12445    1   *******************************************************************************/

      905    12449    1   DCL 1 FORM1_KEY STATIC ALIGNED,
      906    12450    1         2 COUNT UBIN BYTE UNAL INIT(7),
      907    12451    1         2 * BIT(9) UNAL INIT('777'O),
      908    12452    1         2 UTS UBIN UNAL INIT(0),
      909    12453    1         2 REC_TYPE UBIN BYTE UNAL,
      910    12454    1         2 PAGE# UBIN BYTE UNAL INIT(0);
      911    12455        %BANNER( ARG=FORM2_KEY );

PL6.E3A0      #002=VXO$PATCH File=VXO$IMPL.:E05TSI                               WED 07/30/97 08:26 Page:166
             12463    1   /*******************************************************************************
             12464    1   *                                                                              *
             12465    1   *                          FORM2_KEY                                              *
             12466    1   *                                                                              *
             12467    1   *******************************************************************************/

      912    12471    1   DCL 1 FORM2_KEY STATIC ALIGNED,
      913    12472    1         2 COUNT UBIN BYTE UNAL INIT(11),
      914    12473    1         2 * BIT(9) UNAL INIT('777'O),
      915    12474    1         2 UTS UBIN UNAL INIT(0),
      916    12475    1         2 REC_TYPE UBIN BYTE UNAL INIT(10),
      917    12476    1         2 SECT# UBIN HALF UNAL INIT(0),
      918    12477    1         2 OFFSET UBIN HALF UNAL INIT(0),
      919    12478    1         2 SUB_TYPE UBIN BYTE UNAL INIT(0);
      920    12479        %BANNER( ARG=FORM1_REC_TYPES );

             12487    1   /*******************************************************************************
             12488    1   *                                                                              *
             12489    1   *                          FORM1_REC_TYPES                                        *
             12490    1   *                                                                              *
             12491    1   *******************************************************************************/

      921    12495    1  DCL FORM1_REC_TYPES (0:3) UBIN CONSTANT INIT( %TYPDNAM, %TYPSECT, %TYPSDEF, %TYPEDEF
             12495            );
      922    12496        %BANNER( ARG=FORM1_BUF_ );

             12504    1   /*******************************************************************************
             12505    1   *                                                                              *
             12506    1   *                          FORM1_BUF_                                             *
             12507    1   *                                                                              *
             12508    1   *******************************************************************************/

      923    12512    1   DCL FORM1_BUF_ (0:3) BIT(72) STATIC INIT(
      924    12513    1    VECTOR( DN_RECORD ),
      925    12514    1    VECTOR( SC_RECORD ),
      926    12515    1    VECTOR( DD_RECORD.H ),
      927    12516    1    VECTOR( NIL ) );
PL6.E3A0      #002=VXO$PATCH File=VXO$IMPL.:E05TSI                               WED 07/30/97 08:26 Page:167
      928    12517        %BANNER( ARG="PROC_RECORD - Defines patch space headers");

             12525    1   /*******************************************************************************
             12526    1   *                                                                              *
             12527    1   *                          PROC_RECORD - Defines patch space headers              *
             12528    1   *                                                                              *
             12529    1   *******************************************************************************/

      929    12533    1   DCL 1 PROC_RECORD STATIC ALIGNED,
      930    12534    1         2 B_PATCHIH,
      931    12535    1           3 OFFSET UBIN HALF UNAL INIT(0),
      932    12536    1           3 * BIT(6) UNAL INIT('0'B),
      933    12537    1           3 SEGID BIT(12) UNAL INIT( %NULLSID ),
      934    12538    1           3 SIZE UBIN INIT(0),
      935    12539    1         2 B_PATCHDH,
      936    12540    1           3 OFFSET UBIN HALF UNAL INIT(0),
      937    12541    1           3 * BIT(6) UNAL INIT('0'B),
      938    12542    1           3 SEGID BIT(12) INIT( %NULLSID ),
      939    12543    1           3 SIZE UBIN INIT(0);
      940    12544        %BANNER( ARG="RELOC_RECORD - Relocation directives");

             12552    1   /*******************************************************************************
             12553    1   *                                                                              *
             12554    1   *                          RELOC_RECORD - Relocation directives                   *
             12555    1   *                                                                              *
             12556    1   *******************************************************************************/

      941    12560    1   DCL 1 RELOC_RECORD STATIC ALIGNED,
      942    12561    1         2 B_PATCHIH,
      943    12562    1           3 OPTYPE UBIN(4) UNAL INIT( %OPERCONST ),
      944    12563    1           3 OP BIT(1) INIT('0'B),
      945    12564    1           3 FIELD UBIN(4) UNAL INIT(0),
      946    12565    1           3 OPERAND UBIN BYTE UNAL INIT(0),
      947    12566    1           3 DISPLACEMENT UBIN HALF UNAL INIT(0),
      948    12567    1         2 B_PATCHDH,
      949    12568    1           3 OPTYPE UBIN(4) UNAL INIT( %OPERCONST ),
      950    12569    1           3 OP BIT(1) INIT('0'B),
PL6.E3A0      #002=VXO$PATCH File=VXO$IMPL.:E05TSI                               WED 07/30/97 08:26 Page:168
      951    12570    1           3 FIELD UBIN(4) UNAL INIT(0),
      952    12571    1           3 OPERAND UBIN BYTE UNAL INIT(0),
      953    12572    1           3 DISPLACEMENT UBIN HALF UNAL INIT(2);
      954    12573        %U;

             12581    1   /*******************************************************************************
             12582    1   *                                                                              *
             12583    1   *                          UBIN                                                 *
             12584    1   *                                                                              *
             12585    1   *******************************************************************************/

      955    12589    1   DCL NUM_FORM1_RECS UBIN STATIC INIT(2);
      956    12590    1   DCL I UBIN;
      957    12591    1   DCL DEF_RTYPE UBIN;
      958    12592    1   DCL REF_RTYPE UBIN;
      959    12593        %E;

             12601    1   /*******************************************************************************
             12602    1   *                                                                              *
             12603    1   *                          ENTRY                                                 *
             12604    1   *                                                                              *
             12605    1   *******************************************************************************/

      960    12609        %ENTRIES;
      961    12624    1   DCL VXO$OBJECT ENTRY (3);
      962    12625        %ENTRIES_IO;
      963    12633        %PTR;

             12641    1   /*******************************************************************************
             12642    1   *                                                                              *
             12643    1   *                          PTR                                                 *
             12644    1   *                                                                              *
             12645    1   *******************************************************************************/

      964    12649    1   DCL ALL$ PTR AUTO;
      965    12650    1   DCL CAND_Q$ PTR AUTO;
      966    12651    1   DCL CAND_P$ PTR AUTO;
PL6.E3A0      #002=VXO$PATCH File=VXO$IMPL.:E05TSI                               WED 07/30/97 08:26 Page:169
      967    12652        %PLIST;
      968    12653        %EJECT;
PL6.E3A0      #002=VXO$PATCH File=VXO$IMPL.:E05TSI                               WED 07/30/97 08:26 Page:170
      969    12654    1       CALL M$OPEN( FPT_OPEN ) ALTRET( OPEN_ERROR ); /* Open new ou file */

  12654  4 000002   000000 630400 1                  EPPR0   FPT_OPEN
         4 000003   450000 713400                    CLIMB   alt,open
         4 000004   410400 401760                    pmme    nvectors=18
         4 000005   000465 702000 4                  TSX2    OPEN_ERROR

      970    12655         /*
      971    12656            Set size for data patch area
      972    12657         */
      973    12658    2       IF VX_O.NUM.DPATCH > 0 THEN DO;

  12658  4 000006   000045 235000 xsym               LDA     VX_O+37
         4 000007   000032 604400 4                  TMOZ    s:12671

      974    12659    2           SC_RECORD.DATA_SECTION.SIZE = VX_O.NUM.DPATCH;

  12659  4 000010   000000 620005                    EAX0    0,AL
         4 000011   000164 440000 1                  SXL0    SC_RECORD+2

      975    12660    2           PROC_RECORD.B_PATCHDH.SIZE = VX_O.NUM.DPATCH;

  12660  4 000012   000045 235000 xsym               LDA     VX_O+37
         4 000013   000216 755000 1                  STA     PROC_RECORD+3

      976    12661    2           PROC_RECORD.B_PATCHDH.SEGID = %ISSID;

  12661  4 000014   006000 236007                    LDQ     3072,DL
         4 000015   000215 752003 1                  STCQ    PROC_RECORD+2,'03'O

      977    12662    2           RELOC_RECORD.B_PATCHDH.OPTYPE = %OPERSECT;

  12662  4 000016   000220 236000 1                  LDQ     RELOC_RECORD+1
         4 000017   000000 376000 5                  ANQ     0
         4 000020   040000 276003                    ORQ     16384,DU
         4 000021   000220 756000 1                  STQ     RELOC_RECORD+1

PL6.E3A0      #002=VXO$PATCH File=VXO$IMPL.:E05TSI                               WED 07/30/97 08:26 Page:171
      978    12663    2           RELOC_RECORD.B_PATCHDH.OPERAND = 1;

  12663  4 000022   000001 236003                    LDQ     1,DU
         4 000023   000220 552020 1                  STBQ    RELOC_RECORD+1,'20'O

      979    12664    2           FORM1_BUF_(2) = VECTOR(DD_RECORD);

  12664  4 000024   000002 237000 5                  LDAQ    2
         4 000025   000207 755000 1                  STA     FORM1_BUF_+4
         4 000026   000210 756000 1                  STQ     FORM1_BUF_+5

      980    12665    2           HEAD_RECORD.DD_SIZE = SIZEW(DD_RECORD);

  12665  4 000027   000006 221003                    LDX1    6,DU
         4 000030   000122 741000 1                  STX1    HEAD_RECORD+9

      981    12666    2           HEAD_RECORD.DD_PAGE = SIZEW(DD_RECORD);

  12666  4 000031   000122 441000 1                  SXL1    HEAD_RECORD+9

      982    12667    2           END;

      983    12668         /*
      984    12669            Set the size for the instruction patch area
      985    12670         */
      986    12671    2       IF VX_O.NUM.IPATCH > 0 THEN DO;

  12671  4 000032   000046 235000 xsym               LDA     VX_O+38
         4 000033   000065 604400 4                  TMOZ    s:12689

      987    12672    2           SC_RECORD.PROC_SECTION.SIZE = VX_O.NUM.IPATCH + 4;

  12672  4 000034   000004 620005                    EAX0    4,AL
         4 000035   000162 440000 1                  SXL0    SC_RECORD

      988    12673    2           PROC_RECORD.B_PATCHIH.SIZE = VX_O.NUM.IPATCH;

PL6.E3A0      #002=VXO$PATCH File=VXO$IMPL.:E05TSI                               WED 07/30/97 08:26 Page:172
  12673  4 000036   000214 755000 1                  STA     PROC_RECORD+1

      989    12674    2           PROC_RECORD.B_PATCHIH.SEGID = %ISSID;

  12674  4 000037   006000 236007                    LDQ     3072,DL
         4 000040   000213 752003 1                  STCQ    PROC_RECORD,'03'O

      990    12675    2           RELOC_RECORD.B_PATCHIH.OPTYPE = %OPERSECT;

  12675  4 000041   000217 236000 1                  LDQ     RELOC_RECORD
         4 000042   000000 376000 5                  ANQ     0
         4 000043   040000 276003                    ORQ     16384,DU
         4 000044   000217 756000 1                  STQ     RELOC_RECORD

      991    12676    2           DD_RECORD.H.B_PATCHIH.OFFSET = VX_O.NUM.IPATCH;

  12676  4 000045   000000 621005                    EAX1    0,AL
         4 000046   000170 441000 1                  SXL1    DD_RECORD

      992    12677    2           DD_RECORD.H.B_PATCHDH.OFFSET = VX_O.NUM.IPATCH + 2;

  12677  4 000047   000046 722000 xsym               LXL2    VX_O+38
         4 000050   000002 623012                    EAX3    2,X2
         4 000051   000172 443000 1                  SXL3    DD_RECORD+2

      993    12678    2           FORM2_KEY.OFFSET = VX_O.NUM.IPATCH;

  12678  4 000052   000046 236000 xsym               LDQ     VX_O+38
         4 000053   000011 736000                    QLS     9
         4 000054   000202 552030 1                  STBQ    FORM2_KEY+2,'30'O

      994    12679    2           HEAD_RECORD.ED_SIZE = SIZEW(ED_RECORD);

  12679  4 000055   000002 224003                    LDX4    2,DU
         4 000056   000120 744000 1                  STX4    HEAD_RECORD+7

      995    12680    2           HEAD_RECORD.ED_PAGE = SIZEW(ED_RECORD);
PL6.E3A0      #002=VXO$PATCH File=VXO$IMPL.:E05TSI                               WED 07/30/97 08:26 Page:173

  12680  4 000057   000120 444000 1                  SXL4    HEAD_RECORD+7

      996    12681    2           FORM1_BUF_(3) = VECTOR(ED_RECORD);

  12681  4 000060   000004 237000 5                  LDAQ    4
         4 000061   000211 755000 1                  STA     FORM1_BUF_+6
         4 000062   000212 756000 1                  STQ     FORM1_BUF_+7

      997    12682    2           NUM_FORM1_RECS = 3;

  12682  4 000063   000003 235007                    LDA     3,DL
         4 000064   000221 755000 1                  STA     NUM_FORM1_RECS

      998    12683    2           END;

      999    12684         /*
     1000    12685            Write the defined names record, the sections record,
     1001    12686            the entdefs record, and the symdefs record to the
     1002    12687            object unit file, ********************B_PATCH
     1003    12688         */
     1004    12689    2       DO I = 0 TO NUM_FORM1_RECS;

  12689  4 000065   200003 450100                    STZ     I,,AUTO
         4 000066   000107 710000 4                  TRA     s:12693+3

     1005    12690    2           FPT_WRITE.BUF_ = FORM1_BUF_(I);

  12690  4 000067   200003 235100                    LDA     I,,AUTO
         4 000070   000003 735000                    ALS     3
         4 000071   000000 100405                    MLR     fill='000'O
         4 000072   000203 000010 1                  ADSC9   FORM1_BUF_,A             cn=0,n=8
         4 000073   000076 000010 1                  ADSC9   FPT_WRITE+4              cn=0,n=8

     1006    12691    2           FORM1_KEY.REC_TYPE = FORM1_REC_TYPES(I);

  12691  4 000074   200003 720100                    LXL0    I,,AUTO
PL6.E3A0      #002=VXO$PATCH File=VXO$IMPL.:E05TSI                               WED 07/30/97 08:26 Page:174
         4 000075   000007 236010 2                  LDQ     FORM1_REC_TYPES,X0
         4 000076   000011 736000                    QLS     9
         4 000077   000177 552010 1                  STBQ    FORM1_KEY+1,'10'O

     1007    12692    2           CALL M$WRITE( FPT_WRITE ) ALTRET( WRITE_ERROR );

  12692  4 000100   000072 630400 1                  EPPR0   FPT_WRITE
         4 000101   440001 713400                    CLIMB   alt,write
         4 000102   401400 401760                    pmme    nvectors=4
         4 000103   000501 702000 4                  TSX2    WRITE_ERROR

     1008    12693    2           END;

  12693  4 000104   200003 235100                    LDA     I,,AUTO
         4 000105   000001 035007                    ADLA    1,DL
         4 000106   200003 755100                    STA     I,,AUTO
         4 000107   000221 236000 1                  LDQ     NUM_FORM1_RECS
         4 000110   200003 116100                    CMPQ    I,,AUTO
         4 000111   000067 603000 4                  TRC     s:12690

     1009    12694         /*
     1010    12695            Write the program record, containing the patch space
     1011    12696            headers B_PATCHIH and B_PATCHDH to the ou file.
     1012    12697         */
     1013    12698    1       FPT_WRITE.KEY_ = VECTOR( FORM2_KEY );

  12698  4 000112   000006 237000 5                  LDAQ    6
         4 000113   000074 757000 1                  STAQ    FPT_WRITE+2

     1014    12699    1       FPT_WRITE.BUF_ = VECTOR( PROC_RECORD );

  12699  4 000114   000010 237000 5                  LDAQ    8
         4 000115   000076 757000 1                  STAQ    FPT_WRITE+4

     1015    12700    1       CALL M$WRITE( FPT_WRITE ) ALTRET( WRITE_ERROR );

  12700  4 000116   000072 630400 1                  EPPR0   FPT_WRITE
PL6.E3A0      #002=VXO$PATCH File=VXO$IMPL.:E05TSI                               WED 07/30/97 08:26 Page:175
         4 000117   440001 713400                    CLIMB   alt,write
         4 000120   401400 401760                    pmme    nvectors=4
         4 000121   000501 702000 4                  TSX2    WRITE_ERROR

     1016    12701         /*
     1017    12702            Write the relocation directives record to the ou file
     1018    12703         */
     1019    12704    1       FORM2_KEY.SUB_TYPE = 1;

  12704  4 000122   000001 236007                    LDQ     1,DL
         4 000123   000202 552004 1                  STBQ    FORM2_KEY+2,'04'O

     1020    12705    1       FPT_WRITE.BUF_ = VECTOR( RELOC_RECORD );

  12705  4 000124   000012 237000 5                  LDAQ    10
         4 000125   000076 757000 1                  STAQ    FPT_WRITE+4

     1021    12706    1       CALL M$WRITE( FPT_WRITE ) ALTRET( WRITE_ERROR );

  12706  4 000126   000072 630400 1                  EPPR0   FPT_WRITE
         4 000127   440001 713400                    CLIMB   alt,write
         4 000130   401400 401760                    pmme    nvectors=4
         4 000131   000501 702000 4                  TSX2    WRITE_ERROR

     1022    12707         /*
     1023    12708            Write the head record to the ou file
     1024    12709         */
     1025    12710    1       FPT_WRITE.KEY_ = VECTOR( HEAD_KEY );

  12710  4 000132   000014 237000 5                  LDAQ    12
         4 000133   000074 757000 1                  STAQ    FPT_WRITE+2

     1026    12711    1       FPT_WRITE.BUF_ = VECTOR( HEAD_RECORD );

  12711  4 000134   000016 237000 5                  LDAQ    14
         4 000135   000076 757000 1                  STAQ    FPT_WRITE+4

PL6.E3A0      #002=VXO$PATCH File=VXO$IMPL.:E05TSI                               WED 07/30/97 08:26 Page:176
     1027    12712    1       CALL M$WRITE( FPT_WRITE ) ALTRET( WRITE_ERROR );

  12712  4 000136   000072 630400 1                  EPPR0   FPT_WRITE
         4 000137   440001 713400                    CLIMB   alt,write
         4 000140   401400 401760                    pmme    nvectors=4
         4 000141   000501 702000 4                  TSX2    WRITE_ERROR

     1028    12713         /*
     1029    12714            Allocate a VX$LST list element for the new ou file
     1030    12715            ********************B_PATCH
     1031    12716         */
     1032    12717            %ALLOCATE( PTR$=ALL$, TYPE=@GDP, SIZE="SIZEW(VX$LST)" );

  12718  4 000142   000010 236000 xsym               LDQ     VX_M_ALL+8
         4 000143   000010 136000 xsym               SBLQ    VX_M_FREE+8
         4 000144   000022 116007                    CMPQ    18,DL
         4 000145   000155 604000 4                  TMI     s:12722

  12719  4 000146   000010 236000 xsym               LDQ     VX_M_FREE+8
         4 000147   000022 736000                    QLS     18
         4 000150   000010 036000 xsym               ADLQ    VX_M_BASE_PTR+8
         4 000151   200006 756100                    STQ     ALL$,,AUTO

  12720  4 000152   000022 236007                    LDQ     18,DL
         4 000153   000010 056000 xsym               ASQ     VX_M_FREE+8

  12721  4 000154   000167 710000 4                  TRA     s:12724

  12722  4 000155   000020 236000 5                  LDQ     16
         4 000156   200014 756100                    STQ     CAND_P$+4,,AUTO
         4 000157   000021 236000 5                  LDQ     17
         4 000160   200013 756100                    STQ     CAND_P$+3,,AUTO
         4 000161   200006 630500                    EPPR0   ALL$,,AUTO
         4 000162   200012 450500                    STP0    CAND_P$+2,,AUTO
         4 000163   200012 630500                    EPPR0   CAND_P$+2,,AUTO
         4 000164   000021 631400 xsym               EPPR1   B_VECTNIL+17
         4 000165   000000 701000 xent               TSX1    VXA$GET
PL6.E3A0      #002=VXO$PATCH File=VXO$IMPL.:E05TSI                               WED 07/30/97 08:26 Page:177
         4 000166   000000 011000                    NOP     0

     1033    12724    1       ALL$ -> VX$LST.LINK$ = ADDR(NIL);

  12724  4 000167   000001 236000 xsym               LDQ     B_VECTNIL+1
         4 000170   200006 470500                    LDP0    ALL$,,AUTO
         4 000171   000000 756100                    STQ     0,,PR0

     1034    12725    1       ALL$ -> VX$LST.TYPE = @OF;

  12725  4 000172   000000 220003                    LDX0    0,DU
         4 000173   200006 470500                    LDP0    ALL$,,AUTO
         4 000174   000001 740100                    STX0    1,,PR0

     1035    12726    1       ALL$ -> VX$LST.SUB_TYPE = @OF_ALL;

  12726  4 000175   200006 470500                    LDP0    ALL$,,AUTO
         4 000176   000001 440100                    SXL0    1,,PR0

     1036    12727    1       ALL$ -> VX$LST.OBJECT_NAME$ = ADDR(NIL);

  12727  4 000177   000001 236000 xsym               LDQ     B_VECTNIL+1
         4 000200   200006 470500                    LDP0    ALL$,,AUTO
         4 000201   000002 756100                    STQ     2,,PR0

     1037    12728    1       ALL$ -> VX$LST.SC_HEAD$ = ADDR(NIL);

  12728  4 000202   200006 470500                    LDP0    ALL$,,AUTO
         4 000203   000003 756100                    STQ     3,,PR0

     1038    12729    1       ALL$ -> VX$LST.SC_TAIL$ = ADDR( ALL$ -> VX$LST.SC_HEAD$ );

  12729  4 000204   200006 236100                    LDQ     ALL$,,AUTO
         4 000205   000003 036003                    ADLQ    3,DU
         4 000206   200006 470500                    LDP0    ALL$,,AUTO
         4 000207   000004 756100                    STQ     4,,PR0

PL6.E3A0      #002=VXO$PATCH File=VXO$IMPL.:E05TSI                               WED 07/30/97 08:26 Page:178
     1039    12730    1       ALL$ -> VX$LST.P.NAME_ = VECTOR( VLP_NAME );

  12730  4 000210   200006 470500                    LDP0    ALL$,,AUTO
         4 000211   000022 237000 5                  LDAQ    18
         4 000212   000005 755100                    STA     5,,PR0
         4 000213   000006 756100                    STQ     6,,PR0

     1040    12731    1       ALL$ -> VX$LST.P.ACCT_ = VECTOR( NIL );

  12731  4 000214   200006 470500                    LDP0    ALL$,,AUTO
         4 000215   000024 237000 5                  LDAQ    20
         4 000216   000007 755100                    STA     7,,PR0
         4 000217   000010 756100                    STQ     8,,PR0

     1041    12732    1       ALL$ -> VX$LST.P.PASS_ = VECTOR( NIL );

  12732  4 000220   000024 237000 5                  LDAQ    20
         4 000221   000011 755100                    STA     9,,PR0
         4 000222   000012 756100                    STQ     10,,PR0

     1042    12733    1       ALL$ -> VX$LST.P.SN_ = VECTOR( NIL );

  12733  4 000223   000024 237000 5                  LDAQ    20
         4 000224   000013 755100                    STA     11,,PR0
         4 000225   000014 756100                    STQ     12,,PR0

     1043    12734    1       ALL$ -> VX$LST.P.WSN_ = VECTOR( NIL );

  12734  4 000226   000024 237000 5                  LDAQ    20
         4 000227   000015 755100                    STA     13,,PR0
         4 000230   000016 756100                    STQ     14,,PR0

     1044    12735    1       ALL$ -> VX$LST.P.B.RES = @FALSE_B;

  12735  4 000231   000031 236000 xsym               LDQ     B_VECTNIL+25
         4 000232   000017 356100                    ANSQ    15,,PR0

PL6.E3A0      #002=VXO$PATCH File=VXO$IMPL.:E05TSI                               WED 07/30/97 08:26 Page:179
     1045    12736    1       ALL$ -> VX$LST.P.B.ASN = @TRUE_B;

  12736  4 000233   200000 236003                    LDQ     65536,DU
         4 000234   000017 256100                    ORSQ    15,,PR0

     1046    12737    1       ALL$ -> VX$LST.P.ASN = FPT_OPEN.V.ASN#;

  12737  4 000235   000045 236000 1                  LDQ     FPT_OPEN+37
         4 000236   000777 376007                    ANQ     511,DL
         4 000237   000021 756100                    STQ     17,,PR0

     1047    12738         /*
     1048    12739            Add the new ou file to the file list for the root node
     1049    12740         */
     1050    12741    1       VX_ROOT$ -> VX$NODE.TAIL$ -> VX$LST.LINK$ = ALL$;

  12741  4 000240   000000 471400 xsym               LDP1    VX_ROOT$
         4 000241   100005 473500                    LDP3    5,,PR1
         4 000242   200006 236100                    LDQ     ALL$,,AUTO
         4 000243   300000 756100                    STQ     0,,PR3

     1051    12742    1       VX_ROOT$ -> VX$NODE.TAIL$ = ALL$;

  12742  4 000244   200006 236100                    LDQ     ALL$,,AUTO
         4 000245   000000 470400 xsym               LDP0    VX_ROOT$
         4 000246   000005 756100                    STQ     5,,PR0

     1052    12743    1       CALL VXF$CLOSE( ALL$, @OF, @SAVE ); /* Close the new ou file */

  12743  4 000247   000026 236000 5                  LDQ     22
         4 000250   200014 756100                    STQ     CAND_P$+4,,AUTO
         4 000251   000027 236000 5                  LDQ     23
         4 000252   200013 756100                    STQ     CAND_P$+3,,AUTO
         4 000253   200006 631500                    EPPR1   ALL$,,AUTO
         4 000254   200012 451500                    STP1    CAND_P$+2,,AUTO
         4 000255   200012 630500                    EPPR0   CAND_P$+2,,AUTO
         4 000256   000021 631400 xsym               EPPR1   B_VECTNIL+17
PL6.E3A0      #002=VXO$PATCH File=VXO$IMPL.:E05TSI                               WED 07/30/97 08:26 Page:180
         4 000257   000000 701000 xent               TSX1    VXF$CLOSE
         4 000260   000000 011000                    NOP     0

     1053    12744    1       CALL VXF$OPEN (ALL$, 0);

  12744  4 000261   000027 236000 5                  LDQ     23
         4 000262   200013 756100                    STQ     CAND_P$+3,,AUTO
         4 000263   200006 630500                    EPPR0   ALL$,,AUTO
         4 000264   200012 450500                    STP0    CAND_P$+2,,AUTO
         4 000265   200012 630500                    EPPR0   CAND_P$+2,,AUTO
         4 000266   000020 631400 xsym               EPPR1   B_VECTNIL+16
         4 000267   000000 701000 xent               TSX1    VXF$OPEN
         4 000270   000000 011000                    NOP     0

     1054    12745    1       VX_OU_HEAD = HEAD_RECORD;

  12745  4 000271   000000 100400                    MLR     fill='000'O
         4 000272   000111 000164 1                  ADSC9   HEAD_RECORD              cn=0,n=116
         4 000273   000000 000164 xsym               ADSC9   VX_OU_HEAD               cn=0,n=116

     1055    12746    1   /*    VX_CURR$ = VX_ROOT$;*/ VX_IN_PATCH = '1'B;

  12746  4 000274   400000 236003                    LDQ     -131072,DU
         4 000275   000000 756000 xsym               STQ     VX_IN_PATCH

     1056    12747    1       CALL VXO$OBJECT (ALL$,0,ADDR(VX_PASS1_ALL_TYPE));

  12747  4 000276   000030 236000 5                  LDQ     24
         4 000277   200012 756100                    STQ     CAND_P$+2,,AUTO
         4 000300   200012 630500                    EPPR0   CAND_P$+2,,AUTO
         4 000301   200015 450500                    STP0    CAND_P$+5,,AUTO
         4 000302   000027 236000 5                  LDQ     23
         4 000303   200014 756100                    STQ     CAND_P$+4,,AUTO
         4 000304   200006 631500                    EPPR1   ALL$,,AUTO
         4 000305   200013 451500                    STP1    CAND_P$+3,,AUTO
         4 000306   200013 630500                    EPPR0   CAND_P$+3,,AUTO
         4 000307   000021 631400 xsym               EPPR1   B_VECTNIL+17
PL6.E3A0      #002=VXO$PATCH File=VXO$IMPL.:E05TSI                               WED 07/30/97 08:26 Page:181
         4 000310   000000 701000 xent               TSX1    VXO$OBJECT
         4 000311   000000 011000                    NOP     0

     1057    12748    1   /*    VX_CURR$ = addr (nil);*/ VX_IN_PATCH = '0'B;

  12748  4 000312   000000 450000 xsym               STZ     VX_IN_PATCH

     1058    12749    1       CALL VXF$CLOSE( ALL$, @OF, @SAVE ); /* Close the new ou file */

  12749  4 000313   000026 236000 5                  LDQ     22
         4 000314   200014 756100                    STQ     CAND_P$+4,,AUTO
         4 000315   000027 236000 5                  LDQ     23
         4 000316   200013 756100                    STQ     CAND_P$+3,,AUTO
         4 000317   200006 630500                    EPPR0   ALL$,,AUTO
         4 000320   200012 450500                    STP0    CAND_P$+2,,AUTO
         4 000321   200012 630500                    EPPR0   CAND_P$+2,,AUTO
         4 000322   000021 631400 xsym               EPPR1   B_VECTNIL+17
         4 000323   000000 701000 xent               TSX1    VXF$CLOSE
         4 000324   000000 011000                    NOP     0

     1059    12750
     1060    12751    2       DO I = 1 TO SIZEW( VX_DEF_REC_A ) - 1;

  12751  4 000325   000001 235007                    LDA     1,DL
         4 000326   200003 755100                    STA     I,,AUTO
         4 000327   000374 710000 4                  TRA     s:12764+3

     1061    12752    2           DEF_RTYPE = VX_DEF_REC_A(I);

  12752  4 000330   200003 720100                    LXL0    I,,AUTO
         4 000331   000000 235010 xsym               LDA     VX_DEF_REC_A,X0
         4 000332   200004 755100                    STA     DEF_RTYPE,,AUTO

     1062    12753    2           REF_RTYPE = VX_REF_MATCH_A( DEF_RTYPE );

  12753  4 000333   000000 235005 xsym               LDA     VX_REF_MATCH_A,AL
         4 000334   200005 755100                    STA     REF_RTYPE,,AUTO
PL6.E3A0      #002=VXO$PATCH File=VXO$IMPL.:E05TSI                               WED 07/30/97 08:26 Page:182

     1063    12754    3           IF VX_ROOT$ -> VX$NODE.L_START_A$(DEF_RTYPE) ~= ADDR(NIL) THEN DO;

  12754  4 000335   000000 470400 xsym               LDP0    VX_ROOT$
         4 000336   200004 721100                    LXL1    DEF_RTYPE,,AUTO
         4 000337   000030 236111                    LDQ     24,X1,PR0
         4 000340   000001 116000 xsym               CMPQ    B_VECTNIL+1
         4 000341   000371 600000 4                  TZE     s:12764

     1064    12755    3               CALL VXQ$SORT(

  12755  4 000342   000027 236000 5                  LDQ     23
         4 000343   200020 756100                    STQ     CAND_P$+8,,AUTO
         4 000344   000032 237000 5                  LDAQ    26
         4 000345   200016 757100                    STAQ    CAND_P$+6,,AUTO
         4 000346   000026 236000 5                  LDQ     22
         4 000347   200015 756100                    STQ     CAND_P$+5,,AUTO
         4 000350   200004 236100                    LDQ     DEF_RTYPE,,AUTO
         4 000351   000022 736000                    QLS     18
         4 000352   000042 036003                    ADLQ    34,DU
         4 000353   000000 036000 xsym               ADLQ    VX_ROOT$
         4 000354   200014 756100                    STQ     CAND_P$+4,,AUTO
         4 000355   200004 236100                    LDQ     DEF_RTYPE,,AUTO
         4 000356   000022 736000                    QLS     18
         4 000357   000030 036003                    ADLQ    24,DU
         4 000360   000000 036000 xsym               ADLQ    VX_ROOT$
         4 000361   200013 756100                    STQ     CAND_P$+3,,AUTO
         4 000362   000000 236000 xsym               LDQ     VX_ROOT$
         4 000363   000031 036003                    ADLQ    25,DU
         4 000364   200012 756100                    STQ     CAND_P$+2,,AUTO
         4 000365   200012 630500                    EPPR0   CAND_P$+2,,AUTO
         4 000366   000025 631400 xsym               EPPR1   B_VECTNIL+21
         4 000367   000000 701000 xent               TSX1    VXQ$SORT
         4 000370   000000 011000                    NOP     0

     1065    12756    3                  VX_ROOT$ -> VX$NODE.L_START.DN$,
     1066    12757    3                  VX_ROOT$ -> VX$NODE.L_START_A$(DEF_RTYPE),
PL6.E3A0      #002=VXO$PATCH File=VXO$IMPL.:E05TSI                               WED 07/30/97 08:26 Page:183
     1067    12758    3                  VX_ROOT$ -> VX$NODE.L_STOP_A$(DEF_RTYPE),
     1068    12759    3                  2,
     1069    12760    3                  1,
     1070    12761    3                  2,
     1071    12762    3                  0 );
     1072    12763    3               END;

     1073    12764    2           END; /* Do i = 1 to sizew( VX_DEF_REC_A ) - 1; */

  12764  4 000371   200003 235100                    LDA     I,,AUTO
         4 000372   000001 035007                    ADLA    1,DL
         4 000373   200003 755100                    STA     I,,AUTO
         4 000374   000004 115007                    CMPA    4,DL
         4 000375   000330 602000 4                  TNC     s:12752

     1074    12765
     1075    12766         /* For searching data defs, incorporate the following into previous do loop */
     1076    12767    2       IF VX_CURR$ -> VX$NODE.L_START.ER$ ~= ADDR(NIL) THEN DO;

  12767  4 000376   000000 470400 xsym               LDP0    VX_CURR$
         4 000377   000035 236100                    LDQ     29,,PR0
         4 000400   000001 116000 xsym               CMPQ    B_VECTNIL+1
         4 000401   000451 600000 4                  TZE     s:12788

     1077    12768    2           CAND_P$ = VX_CURR$ -> VX$NODE.L_START.ER$;

  12768  4 000402   200010 756100                    STQ     CAND_P$,,AUTO

     1078    12769    2           CAND_Q$ = VX_CURR$ -> VX$NODE.L_STOP.ER$;

  12769  4 000403   000047 236100                    LDQ     39,,PR0
         4 000404   200007 756100                    STQ     CAND_Q$,,AUTO

     1079    12770    3           DO WHILE( CAND_P$ <= CAND_Q$ );

  12770  4 000405   200010 116100                    CMPQ    CAND_P$,,AUTO
         4 000406   000426 602000 4                  TNC     s:12778
PL6.E3A0      #002=VXO$PATCH File=VXO$IMPL.:E05TSI                               WED 07/30/97 08:26 Page:184

     1080    12771    3               IF CAND_P$ -> VXR$TMPLT.SREF THEN

  12771  4 000407   200010 470500                    LDP0    CAND_P$,,AUTO
         4 000410   000000 236100                    LDQ     0,,PR0
         4 000411   400000 316007                    CANQ    -131072,DL
         4 000412   000416 600000 4                  TZE     s:12774

     1081    12772    3                   CAND_P$ -> VXR$TMPLT.STATE = '1'B;

  12772  4 000413   100000 236007                    LDQ     32768,DL
         4 000414   000000 256100                    ORSQ    0,,PR0
         4 000415   000420 710000 4                  TRA     s:12775

     1082    12773    3               ELSE
     1083    12774    3                   CAND_P$ -> VXR$TMPLT.STATE = '0'B;

  12774  4 000416   000034 236000 5                  LDQ     28
         4 000417   000000 356100                    ANSQ    0,,PR0

     1084    12775    3               CAND_P$ = PINCRW( CAND_P$, SIZEW( VXR$TMPLT ) );

  12775  4 000420   200010 236100                    LDQ     CAND_P$,,AUTO
         4 000421   000001 036003                    ADLQ    1,DU
         4 000422   200010 756100                    STQ     CAND_P$,,AUTO

     1085    12776    3               END; /* Do while( CAND_P$ <= CAND_Q$ ); */

  12776  4 000423   200007 116100                    CMPQ    CAND_Q$,,AUTO
         4 000424   000407 602000 4                  TNC     s:12771
         4 000425   000407 600000 4                  TZE     s:12771

     1086    12777
     1087    12778    2           CALL VXQ$SORT(

  12778  4 000426   000027 236000 5                  LDQ     23
         4 000427   200020 756100                    STQ     CAND_P$+8,,AUTO
PL6.E3A0      #002=VXO$PATCH File=VXO$IMPL.:E05TSI                               WED 07/30/97 08:26 Page:185
         4 000430   000036 237000 5                  LDAQ    30
         4 000431   200016 757100                    STAQ    CAND_P$+6,,AUTO
         4 000432   000032 236000 5                  LDQ     26
         4 000433   200015 756100                    STQ     CAND_P$+5,,AUTO
         4 000434   000000 236000 xsym               LDQ     VX_CURR$
         4 000435   000047 036003                    ADLQ    39,DU
         4 000436   200014 756100                    STQ     CAND_P$+4,,AUTO
         4 000437   000000 236000 xsym               LDQ     VX_CURR$
         4 000440   000035 036003                    ADLQ    29,DU
         4 000441   200013 756100                    STQ     CAND_P$+3,,AUTO
         4 000442   000000 236000 xsym               LDQ     VX_CURR$
         4 000443   000032 036003                    ADLQ    26,DU
         4 000444   200012 756100                    STQ     CAND_P$+2,,AUTO
         4 000445   200012 630500                    EPPR0   CAND_P$+2,,AUTO
         4 000446   000025 631400 xsym               EPPR1   B_VECTNIL+21
         4 000447   000000 701000 xent               TSX1    VXQ$SORT
         4 000450   000000 011000                    NOP     0

     1088    12779    2              VX_CURR$ -> VX$NODE.L_START.RN$,
     1089    12780    2              VX_CURR$ -> VX$NODE.L_START.ER$,
     1090    12781    2              VX_CURR$ -> VX$NODE.L_STOP.ER$,
     1091    12782    2              SIZEW( VXR$TMPLT ),
     1092    12783    2              1,
     1093    12784    2              0,
     1094    12785    2              0 );
     1095    12786    2           END; /* If VX_CURR$ -> VX$NODE.L_START.ER$ ~= addr(nil) then do; */

     1096    12787         /* End of incorporation */
     1097    12788    1       RETURN;

  12788  4 000451   000000 702200 xent               TSX2  ! X66_ARET

     1098    12789        %EJECT;
PL6.E3A0      #002=VXO$PATCH File=VXO$IMPL.:E05TSI                               WED 07/30/97 08:26 Page:186
     1099    12790    1   VXO$DEL_PATCH_FILE: ENTRY;

  12790  4 000452   000000 700200 xent  VXO$DEL_PAT* TSX0  ! X66_AUTO_0
         4 000453   000022 000000                    ZERO    18,0

     1100    12791
     1101    12792    1       FPT_OPEN.V.FUN# = %IN#;

  12792  4 000454   002000 236007                    LDQ     1024,DL
         4 000455   000045 552010 1                  STBQ    FPT_OPEN+37,'10'O

     1102    12793    1       FPT_OPEN.V.DELETE# = %YES#;

  12793  4 000456   040000 236007                    LDQ     16384,DL
         4 000457   000044 256000 1                  ORSQ    FPT_OPEN+36

     1103    12794    1       CALL M$OPEN( FPT_OPEN ) ALTRET( OPEN_ERROR );

  12794  4 000460   000000 630400 1                  EPPR0   FPT_OPEN
         4 000461   450000 713400                    CLIMB   alt,open
         4 000462   410400 401760                    pmme    nvectors=18
         4 000463   000465 702000 4                  TSX2    OPEN_ERROR

     1104    12795    1       RETURN;

  12795  4 000464   000000 702200 xent               TSX2  ! X66_ARET

     1105    12796
     1106    12797        %EJECT;
PL6.E3A0      #002=VXO$PATCH File=VXO$IMPL.:E05TSI                               WED 07/30/97 08:26 Page:187
     1107    12798    1   OPEN_ERROR:
     1108    12799        /*E*  ERROR: VXO-E$PATCH_OPEN_VX-0
     1109    12800              MESSAGE: Internal LINK error.  Unable to open %FN
     1110    12801              DESCRIPTION: Unable to open *********************B_PATCH. This file is
     1111    12802                      used to generate an object unit for the DPATCH and IPATCH options
     1112    12803        */
     1113    12804    1       VX_FPT_ERRMSG.V.DCB# = DCBNUM( M$OF );

  12804  4 000465   000000 236007 xsym  OPEN_ERROR   LDQ     M$OF,DL
         4 000466   000000 620006                    EAX0    0,QL
         4 000467   000026 740000 xsym               STX0    VX_FPT_ERRMSG+22

     1114    12805            %SCREAM( ERR#=E$PATCH_OPEN_VX, MID="'O'", LEVEL=@E$F_D_VX );

  12806  4 000470   000042 630400 5                  EPPR0   34
         4 000471   000022 631400 xsym               EPPR1   B_VECTNIL+18
         4 000472   000000 701000 xent               TSX1    VXE$ERROR
         4 000473   000000 011000                    NOP     0

     1115    12808    1       CALL M$MERC ALTRET(MERC_ERROR);

  12808  4 000474   410007 713400                    CLIMB   alt,+4103
         4 000475   000000 401760                    pmme    nvectors=0
         4 000476   000515 702000 4                  TSX2    MERC_ERROR

     1116    12809            %ERROR_IT;

  12810  4 000477   000002 713400                    CLIMB   err
         4 000500   000000 401760                    pmme    nvectors=0

     1117    12812
     1118    12813    1   WRITE_ERROR:
     1119    12814        /*E*  ERROR:      VXO-E$PATCH_WRITE_VX-0
     1120    12815              MESSAGE: Internal LINK error.  Unable to write to %FN
     1121    12816              DESCRIPTION: Unable to write to *********************B_PATCH file to
     1122    12817                           generate an object unit for the DPATCH and IPATCH options
     1123    12818        */
PL6.E3A0      #002=VXO$PATCH File=VXO$IMPL.:E05TSI                               WED 07/30/97 08:26 Page:188
     1124    12819    1       VX_FPT_ERRMSG.V.DCB# = DCBNUM( M$OF );

  12819  4 000501   000000 236007 xsym  WRITE_ERROR  LDQ     M$OF,DL
         4 000502   000000 620006                    EAX0    0,QL
         4 000503   000026 740000 xsym               STX0    VX_FPT_ERRMSG+22

     1125    12820            %SCREAM( ERR#=E$PATCH_WRITE_VX, MID="'O'", LEVEL=@E$F_D_VX );

  12821  4 000504   000047 630400 5                  EPPR0   39
         4 000505   000022 631400 xsym               EPPR1   B_VECTNIL+18
         4 000506   000000 701000 xent               TSX1    VXE$ERROR
         4 000507   000000 011000                    NOP     0

     1126    12823    1       CALL M$MERC ALTRET(MERC_ERROR);

  12823  4 000510   410007 713400                    CLIMB   alt,+4103
         4 000511   000000 401760                    pmme    nvectors=0
         4 000512   000515 702000 4                  TSX2    MERC_ERROR

     1127    12824            %ERROR_IT;

  12825  4 000513   000002 713400                    CLIMB   err
         4 000514   000000 401760                    pmme    nvectors=0

     1128    12827    1   MERC_ERROR:
     1129    12828    1       CALL VXE$MERC;

  12828  4 000515   000002 631400 xsym  MERC_ERROR   EPPR1   B_VECTNIL+2
         4 000516   000000 701000 xent               TSX1    VXE$MERC
         4 000517   000000 011000                    NOP     0

     1130    12829
     1131    12830    1   END VXO$PATCH;

  12830  4 000520   000000 702200 xent               TSX2  ! X66_ARET

PL6.E3A0      #002=VXO$PATCH File=VXO$IMPL.:E05TSI                               WED 07/30/97 08:26 Page:189
--  Include file information  --

   B_SEGIDS_C.:E05TOU  is referenced.
   VX_PERR_C.:E05TOU  is referenced.
   VX_FIXED_R.:E05TOU  cannot be made into a system file and is referenced.
   VX_DATA_R.:E05TOU  cannot be made into a system file and is referenced.
   VX_MACRO_C.:E05TOU  is referenced.
   VX_SUBS_C.:E05TOU  is referenced.
   XU_MACRO_C.:E05TOU  is referenced.
   B$OBJECT_C.:E05TOU  is referenced.
   CP_6_SUBS.:E05TOU  is referenced.
   CP_6.:E05TOU  cannot be made into a system file and is referenced.
   B$JIT_C.:E05TOU  was found in the system file and is never referenced.
   CP_6_C.:E05TOU  was found in the system file and is referenced.
      No diagnostics issued in procedure VXO$PATCH.
PL6.E3A0      #002=VXO$PATCH File=VXO$IMPL.:E05TSI                               WED 07/30/97 08:26 Page:190

 **** Variables and constants ****

  ****  Section 001  Data  VXO$PATCH

  ****  Scalars and arrays  ****
OctLoc.c.b A Datatyp(siz) R M Lvl/name                 OctLoc.c.b A Datatyp(siz) R M Lvl/name

   170-0-0/w STRC(216)   r     1 DD_RECORD                146-0-0/w STRC(432)   r     1 DN_RECORD
   166-0-0/w STRC(72)    r     1 ED_RECORD
   203-0-0/b BIT (72)    r     1 FORM1_BUF_(0:3)
   176-0-0/w STRC(72)    r     1 FORM1_KEY                200-0-0/w STRC(108)   r     1 FORM2_KEY
     0-0-0/d STRC(2088)  r     1 FPT_OPEN                  72-0-0/d STRC(432)   r     1 FPT_WRITE
   106-0-0/c STRC(90)    r     1 HEAD_KEY                 111-0-0/w STRC(1044)  r     1 HEAD_RECORD
   221-0-0/w UBIN        r     1 NUM_FORM1_RECS           213-0-0/w STRC(144)   r     1 PROC_RECORD
   217-0-0/w STRC(72)    r     1 RELOC_RECORD             162-0-0/w STRC(144)   r     1 SC_RECORD

  ****  Section 002 RoData VXO$PATCH

  ****  Scalars and arrays  ****
OctLoc.c.b A Datatyp(siz) R M Lvl/name                 OctLoc.c.b A Datatyp(siz) R M Lvl/name

     7-0-0/w UBIN        r     1 FORM1_REC_TYPES(0:3)
     0-0-0/c STRC(252)   r     1 VLP_NAME

  ****  Auto variables  ****

  ****  Scalars and arrays  ****
OctLoc.c.b A Datatyp(siz) R M Lvl/name                 OctLoc.c.b A Datatyp(siz) R M Lvl/name

     6-0-0/w PTR         r     1 ALL$                      10-0-0/w PTR         r     1 CAND_P$
     7-0-0/w PTR         r     1 CAND_Q$                    4-0-0/w UBIN        r     1 DEF_RTYPE
     3-0-0/w UBIN        r     1 I                          5-0-0/w UBIN        r     1 REF_RTYPE

  ****  SYMREF variables  ****

  ****  Scalars and arrays  ****
OctLoc.c.b A Datatyp(siz) R M Lvl/name                 OctLoc.c.b A Datatyp(siz) R M Lvl/name
PL6.E3A0      #002=VXO$PATCH File=VXO$IMPL.:E05TSI                               WED 07/30/97 08:26 Page:191

     0-0-0/w PTR         r     1 VX_CURR$
     0-0-0/w UBIN        r     1 VX_DEF_REC_A(0:3)
     0-0-0/d STRC(936)   r     1 VX_FPT_ERRMSG              0-0-0/b BIT         r     1 VX_IN_PATCH
     0-0-0/w SBIN        r     1 VX_M_ALL(0:8)
     0-0-0/w PTR         r     1 VX_M_BASE_PTR(0:8)
     0-0-0/w SBIN        r     1 VX_M_FREE(0:8)
     0-0-0/w STRC(4572)  r     1 VX_O                       0-0-0/w STRC(1044)  r     1 VX_OU_HEAD
     0-0-0/w SBIN        r     1 VX_PASS1_ALL_TYPE(0:9)
     0-0-0/w SBIN        r     1 VX_REF_MATCH_A(0:9)
     0-0-0/w PTR         r     1 VX_ROOT$

  ****  BASED and DCB variables  ****

  ****  Scalars and arrays  ****
OctLoc.c.b A Datatyp(siz) R M Lvl/name                 OctLoc.c.b A Datatyp(siz) R M Lvl/name

     0-0-0N  NULL        r     1 M$OF                       0-0-0/w STRC(648)   r     1 VX$LST
     0-0-0/w STRC(3672)  r     1 VX$NODE                    0-0-0/w STRC        r     1 VXR$TMPLT


   Procedure VXO$PATCH requires 337 words for executable code.
   Procedure VXO$PATCH requires 18 words of local(AUTO) storage.

    No errors detected in file VXO$IMPL.:E05TSI    .
PL6.E3A0      #002=VXO$PATCH File=VXO$IMPL.:E05TSI                               WED 07/30/97 08:26 Page:192
          *** CROSS REFERENCE LISTING ***
**     DENOTES     IDENTIFIER DEFINITION
<<                 IDENTIFIER'S VALUE SET
>>                 IDENTIFIER'S VALUE USED
<>                 IDENTIFIER SET AND/OR USED
--                 IDENTIFIER REFERENCED
PL6.E3A0      #002=VXO$PATCH File=VXO$IMPL.:E05TSI                               WED 07/30/97 08:26 Page:193
          MINI XREF LISTING

ALL$
     12649**DCL     12719<<ASSIGN  12722<>CALL    12724>>ASSIGN  12725>>ASSIGN  12726>>ASSIGN  12727>>ASSIGN
     12728>>ASSIGN  12729>>ASSIGN  12729>>ASSIGN  12730>>ASSIGN  12731>>ASSIGN  12732>>ASSIGN  12733>>ASSIGN
     12734>>ASSIGN  12735>>ASSIGN  12736>>ASSIGN  12737>>ASSIGN  12741>>ASSIGN  12742>>ASSIGN  12743<>CALL
     12744<>CALL    12747<>CALL    12749<>CALL
CAND_P$
     12651**DCL     12768<<ASSIGN  12770>>DOWHILE 12771>>IF      12772>>ASSIGN  12774>>ASSIGN  12775<<ASSIGN
     12775>>ASSIGN
CAND_Q$
     12650**DCL     12769<<ASSIGN  12770>>DOWHILE
DD_RECORD
     12410**DCL     12664--ASSIGN  12665--ASSIGN  12666--ASSIGN
DD_RECORD.H
     12411**DCL     12279--DCLINIT 12280--DCLINIT 12515--DCLINIT
DD_RECORD.H.B_PATCHDH.OFFSET
     12422**DCL     12677<<ASSIGN
DD_RECORD.H.B_PATCHIH.OFFSET
     12415**DCL     12676<<ASSIGN
DEF_RTYPE
     12591**DCL     12752<<ASSIGN  12753>>ASSIGN  12754>>IF      12755>>CALL    12755>>CALL
DN_RECORD
     12311**DCL     12271--DCLINIT 12272--DCLINIT 12513--DCLINIT
ED_RECORD
     12383**DCL     12679--ASSIGN  12680--ASSIGN  12681--ASSIGN
FORM1_BUF_
     12512**DCL     12664<<ASSIGN  12681<<ASSIGN  12690>>ASSIGN
FORM1_KEY
     12449**DCL     12087--DCLINIT
FORM1_KEY.REC_TYPE
     12453**DCL     12691<<ASSIGN
FORM1_REC_TYPES
     12495**DCL     12691>>ASSIGN
PL6.E3A0      #002=VXO$PATCH File=VXO$IMPL.:E05TSI                               WED 07/30/97 08:26 Page:194
FORM2_KEY
     12471**DCL     12698--ASSIGN
FORM2_KEY.OFFSET
     12477**DCL     12678<<ASSIGN
FORM2_KEY.SUB_TYPE
     12478**DCL     12704<<ASSIGN
FPT_OPEN
     11999**DCL     12654<>CALL    12794<>CALL
FPT_OPEN.ACSVEH_
     12001**DCL     12002--REDEF
FPT_OPEN.ALTKEYS_
     12007**DCL     12008--REDEF   12008--REDEF
FPT_OPEN.HDR_
     12006**DCL     12007--REDEF
FPT_OPEN.TAB_
     12005**DCL     12006--REDEF
FPT_OPEN.UHL_
     11999**DCL     12000--REDEF   12000--REDEF
FPT_OPEN.V
     12008**DCL     11999--DCLINIT
FPT_OPEN.V.ASN#
     12018**DCL     12737>>ASSIGN
FPT_OPEN.V.DELETE#
     12010**DCL     12793<<ASSIGN
FPT_OPEN.V.FSN#
     12039**DCL     12039--REDEF   12039--REDEF
FPT_OPEN.V.FUN#
     12018**DCL     12792<<ASSIGN
FPT_OPEN.WSN_
     12005**DCL     12005--REDEF
FPT_WRITE
     12087**DCL     12692<>CALL    12700<>CALL    12706<>CALL    12712<>CALL
FPT_WRITE.BUF_
     12087**DCL     12690<<ASSIGN  12699<<ASSIGN  12705<<ASSIGN  12711<<ASSIGN
FPT_WRITE.KEY_
     12087**DCL     12698<<ASSIGN  12710<<ASSIGN
PL6.E3A0      #002=VXO$PATCH File=VXO$IMPL.:E05TSI                               WED 07/30/97 08:26 Page:195
FPT_WRITE.STATION_
     12089**DCL     12089--REDEF
FPT_WRITE.V
     12090**DCL     12087--DCLINIT
FPT_WRITE.V.DVBYTE.VFC#
     12096**DCL     12096--REDEF
HEAD_KEY
     12239**DCL     12710--ASSIGN
HEAD_RECORD
     12258**DCL     12711--ASSIGN  12745>>ASSIGN
HEAD_RECORD.DD_PAGE
     12280**DCL     12666<<ASSIGN
HEAD_RECORD.DD_SIZE
     12279**DCL     12665<<ASSIGN
HEAD_RECORD.ED_PAGE
     12276**DCL     12680<<ASSIGN
HEAD_RECORD.ED_SIZE
     12275**DCL     12679<<ASSIGN
I
     12590**DCL     12689<<DOINDEX 12690>>ASSIGN  12691>>ASSIGN  12751<<DOINDEX 12752>>ASSIGN
M$ERR
        55**DCL-ENT 12810--CALL    12825--CALL
M$MERC
        99**DCL-ENT 12808--CALL    12823--CALL
M$OF
     12117**DCL     12804>>ASSIGN  12819>>ASSIGN
M$OPEN
        43**DCL-ENT 12654--CALL    12794--CALL
M$WRITE
        44**DCL-ENT 12692--CALL    12700--CALL    12706--CALL    12712--CALL
MERC_ERROR
     12828**LABEL   12808--CALLALT 12823--CALLALT
NUM_FORM1_RECS
     12589**DCL     12682<<ASSIGN  12689>>DOINDEX
OPEN_ERROR
     12804**LABEL   12654--CALLALT 12794--CALLALT
PL6.E3A0      #002=VXO$PATCH File=VXO$IMPL.:E05TSI                               WED 07/30/97 08:26 Page:196
PROC_RECORD
     12533**DCL     12699--ASSIGN
PROC_RECORD.B_PATCHDH.SEGID
     12542**DCL     12661<<ASSIGN
PROC_RECORD.B_PATCHDH.SIZE
     12543**DCL     12660<<ASSIGN
PROC_RECORD.B_PATCHIH.SEGID
     12537**DCL     12674<<ASSIGN
PROC_RECORD.B_PATCHIH.SIZE
     12538**DCL     12673<<ASSIGN
REF_RTYPE
     12592**DCL     12753<<ASSIGN
RELOC_RECORD
     12560**DCL     12705--ASSIGN
RELOC_RECORD.B_PATCHDH.OPERAND
     12571**DCL     12663<<ASSIGN
RELOC_RECORD.B_PATCHDH.OPTYPE
     12568**DCL     12662<<ASSIGN
RELOC_RECORD.B_PATCHIH.OPTYPE
     12562**DCL     12675<<ASSIGN
SC_RECORD
     12344**DCL     12514--DCLINIT
SC_RECORD.DATA_SECTION.SIZE
     12364**DCL     12659<<ASSIGN
SC_RECORD.PROC_SECTION.SIZE
     12353**DCL     12672<<ASSIGN
VLP_NAME
     12068**DCL     12000--DCLINIT 12730--ASSIGN
VX$LST
     11792**DCL     12718--IF      12720--ASSIGN  12722--CALL
VX$LST.LINK$
     11793**DCL     12724<<ASSIGN  12741<<ASSIGN
VX$LST.OBJECT_NAME$
     11796**DCL     11797--REDEF   12727<<ASSIGN
VX$LST.P.ACCT_
     11810**DCL     12731<<ASSIGN
PL6.E3A0      #002=VXO$PATCH File=VXO$IMPL.:E05TSI                               WED 07/30/97 08:26 Page:197
VX$LST.P.ASN
     11836**DCL     12737<<ASSIGN
VX$LST.P.B.ASN
     11832**DCL     12736<<ASSIGN
VX$LST.P.B.RES
     11831**DCL     12735<<ASSIGN
VX$LST.P.NAME_
     11805**DCL     12730<<ASSIGN
VX$LST.P.PASS_
     11815**DCL     12732<<ASSIGN
VX$LST.P.SN_
     11820**DCL     12733<<ASSIGN
VX$LST.P.WSN_
     11825**DCL     12734<<ASSIGN
VX$LST.SC_HEAD$
     11798**DCL     11799--REDEF   12728<<ASSIGN  12729--ASSIGN
VX$LST.SC_TAIL$
     11800**DCL     11801--REDEF   12729<<ASSIGN
VX$LST.SUB_TYPE
     11795**DCL     12726<<ASSIGN
VX$LST.TYPE
     11794**DCL     12725<<ASSIGN
VX$NODE.ADDR_START_A
     11665**DCL     11666--REDEF
VX$NODE.ADDR_STOP_A
     11670**DCL     11671--REDEF
VX$NODE.L_PREV_SIZE
     11723**DCL     11734--REDEF
VX$NODE.L_SC_START
     11742**DCL     11747--REDEF
VX$NODE.L_SC_STOP
     11748**DCL     11753--REDEF
VX$NODE.L_SIZE
     11711**DCL     11722--REDEF
VX$NODE.L_START
     11687**DCL     11698--REDEF
PL6.E3A0      #002=VXO$PATCH File=VXO$IMPL.:E05TSI                               WED 07/30/97 08:26 Page:198
VX$NODE.L_START.DN$
     11689**DCL     12755<>CALL
VX$NODE.L_START.ER$
     11693**DCL     12767>>IF      12768>>ASSIGN  12778<>CALL
VX$NODE.L_START.RN$
     11690**DCL     12778<>CALL
VX$NODE.L_START_A$
     11698**DCL     12754>>IF      12755<>CALL
VX$NODE.L_STOP
     11699**DCL     11710--REDEF
VX$NODE.L_STOP.ER$
     11705**DCL     12769>>ASSIGN  12778<>CALL
VX$NODE.L_STOP_A$
     11710**DCL     12755<>CALL
VX$NODE.PROMOTE_HEAD
     11754**DCL     11757--REDEF
VX$NODE.PROMOTE_TAIL
     11758**DCL     11761--REDEF
VX$NODE.START_PAGE#_A
     11675**DCL     11676--REDEF
VX$NODE.STOP_PAGE#_A
     11680**DCL     11681--REDEF
VX$NODE.TAIL$
     11659**DCL     12741>>ASSIGN  12742<<ASSIGN
VXA$GET
     12619**DCL-ENT 12722--CALL
VXE$ERROR
     12610**DCL-ENT 12806--CALL    12821--CALL
VXE$MERC
     12612**DCL-ENT 12828--CALL
VXF$CLOSE
     12627**DCL-ENT 12743--CALL    12749--CALL
VXF$OPEN
     12626**DCL-ENT 12744--CALL
VXO$OBJECT
     12624**DCL-ENT 12747--CALL
PL6.E3A0      #002=VXO$PATCH File=VXO$IMPL.:E05TSI                               WED 07/30/97 08:26 Page:199
VXQ$SORT
     12621**DCL-ENT 12755--CALL    12778--CALL
VXR$SAT.VALUE
     11902**DCL     11903--REDEF
VXR$TMPLT
     11861**DCL     12775--ASSIGN  12778--CALL
VXR$TMPLT.GOT
     11867**DCL     11869--REDEF
VXR$TMPLT.SREF
     11864**DCL     12771>>IF
VXR$TMPLT.STATE
     11869**DCL     12772<<ASSIGN  12774<<ASSIGN
VX_BIAS.A
      9209**DCL      9210--REDEF
VX_CBUF.CHARS_A
      9143**DCL      9144--REDEF
VX_CURR$
      9178**DCL     12767>>IF      12768>>ASSIGN  12769>>ASSIGN  12778>>CALL    12778>>CALL    12778>>CALL
VX_DEF_REC_A
      9850**DCL     12751--DOINDEX 12752>>ASSIGN
VX_EBUF.CHARS_A
      9732**DCL      9733--REDEF
VX_EFIELD1.CHARS
      9741**DCL      9742--REDEF
VX_EFIELD2.CHARS
      9745**DCL      9746--REDEF
VX_EFIELD3.CHARS
      9749**DCL      9750--REDEF
VX_EI_KEY_BUF.KEY
     10125**DCL     10126--REDEF
VX_ERRORS
      9186**DCL      9197--REDEF
VX_ERRORS.CONFLICT_A
      9192**DCL      9193--REDEF
VX_ERRORS.UNSAT_A
      9188**DCL      9189--REDEF
PL6.E3A0      #002=VXO$PATCH File=VXO$IMPL.:E05TSI                               WED 07/30/97 08:26 Page:200
VX_FPT_ERRMSG.V.DCB#
     10415**DCL     12804<<ASSIGN  12819<<ASSIGN
VX_IMAGE_DATA.CPAGE#_A
     10604**DCL     10605--REDEF
VX_IMAGE_DATA.NODE_A$
     10616**DCL     10617--REDEF
VX_IMAGE_DATA.START_A$
     10608**DCL     10609--REDEF
VX_IMAGE_DATA.STOP_A$
     10612**DCL     10613--REDEF
VX_IMAGE_DS3.CPAGE#_A
     10673**DCL     10674--REDEF
VX_IMAGE_DS3.NODE_A$
     10685**DCL     10686--REDEF
VX_IMAGE_DS3.START_A$
     10677**DCL     10678--REDEF
VX_IMAGE_DS3.STOP_A$
     10681**DCL     10682--REDEF
VX_IMAGE_DS4.CPAGE#_A
     10696**DCL     10697--REDEF
VX_IMAGE_DS4.NODE_A$
     10708**DCL     10709--REDEF
VX_IMAGE_DS4.START_A$
     10700**DCL     10701--REDEF
VX_IMAGE_DS4.STOP_A$
     10704**DCL     10705--REDEF
VX_IMAGE_DS5.CPAGE#_A
     10719**DCL     10720--REDEF
VX_IMAGE_DS5.NODE_A$
     10731**DCL     10732--REDEF
VX_IMAGE_DS5.START_A$
     10723**DCL     10724--REDEF
VX_IMAGE_DS5.STOP_A$
     10727**DCL     10728--REDEF
VX_IMAGE_DS6.CPAGE#_A
     10742**DCL     10743--REDEF
PL6.E3A0      #002=VXO$PATCH File=VXO$IMPL.:E05TSI                               WED 07/30/97 08:26 Page:201
VX_IMAGE_DS6.NODE_A$
     10754**DCL     10755--REDEF
VX_IMAGE_DS6.START_A$
     10746**DCL     10747--REDEF
VX_IMAGE_DS6.STOP_A$
     10750**DCL     10751--REDEF
VX_IMAGE_DS7.CPAGE#_A
     10765**DCL     10766--REDEF
VX_IMAGE_DS7.NODE_A$
     10777**DCL     10778--REDEF
VX_IMAGE_DS7.START_A$
     10769**DCL     10770--REDEF
VX_IMAGE_DS7.STOP_A$
     10773**DCL     10774--REDEF
VX_IMAGE_DS8.CPAGE#_A
     10788**DCL     10789--REDEF
VX_IMAGE_DS8.NODE_A$
     10800**DCL     10801--REDEF
VX_IMAGE_DS8.START_A$
     10792**DCL     10793--REDEF
VX_IMAGE_DS8.STOP_A$
     10796**DCL     10797--REDEF
VX_IMAGE_PROC.CPAGE#_A
     10627**DCL     10628--REDEF
VX_IMAGE_PROC.NODE_A$
     10639**DCL     10640--REDEF
VX_IMAGE_PROC.START_A$
     10631**DCL     10632--REDEF
VX_IMAGE_PROC.STOP_A$
     10635**DCL     10636--REDEF
VX_IMAGE_ROS.CPAGE#_A
     10650**DCL     10651--REDEF
VX_IMAGE_ROS.NODE_A$
     10662**DCL     10663--REDEF
VX_IMAGE_ROS.START_A$
     10654**DCL     10655--REDEF
PL6.E3A0      #002=VXO$PATCH File=VXO$IMPL.:E05TSI                               WED 07/30/97 08:26 Page:202
VX_IMAGE_ROS.STOP_A$
     10658**DCL     10659--REDEF
VX_IN_PATCH
      9173**DCL     12746<<ASSIGN  12748<<ASSIGN
VX_M_ALL
      9220**DCL     12718>>IF
VX_M_BASE_PTR
      9222**DCL     12719>>ASSIGN
VX_M_FREE
      9218**DCL     12718>>IF      12719>>ASSIGN  12720<<ASSIGN  12720>>ASSIGN
VX_M_VECTOR.F
     10455**DCL     10459--REDEF
VX_M_VECTOR_DP.F
     10490**DCL     10494--REDEF
VX_O.ACCTN_A$
      9338**DCL      9339--REDEF
VX_O.DCB_MATCH_A$
      9347**DCL      9348--REDEF
VX_O.DCB_MATCH_HIT_A
      9353**DCL      9354--REDEF
VX_O.FIDN_A$
      9332**DCL      9333--REDEF
VX_O.FID_A$
      9324**DCL      9325--REDEF
VX_O.INCLUDE_A$
      9344**DCL      9345--REDEF
VX_O.MAP_A
      9318**DCL      9319--REDEF
VX_O.NODCB_A
      9375**DCL      9376--REDEF
VX_O.NUM.DPATCH
      9274**DCL     12658>>IF      12659>>ASSIGN  12660>>ASSIGN
VX_O.NUM.IPATCH
      9275**DCL     12671>>IF      12672>>ASSIGN  12673>>ASSIGN  12676>>ASSIGN  12677>>ASSIGN  12678>>ASSIGN
VX_O.NUM_A
      9263**DCL      9265--REDEF
PL6.E3A0      #002=VXO$PATCH File=VXO$IMPL.:E05TSI                               WED 07/30/97 08:26 Page:203
VX_O.OPT_A
      9363**DCL      9364--REDEF
VX_O.PRIV_A
      9279**DCL      9281--REDEF
VX_O.SIN_A
      9232**DCL      9233--REDEF
VX_O.TCB_A
      9359**DCL      9360--REDEF
VX_OD.ACCTN_A$
      9536**DCL      9537--REDEF
VX_OD.DCB_MATCH_A$
      9545**DCL      9546--REDEF
VX_OD.FIDN_A$
      9530**DCL      9531--REDEF
VX_OD.FID_A$
      9522**DCL      9523--REDEF
VX_OD.INCLUDE_A$
      9542**DCL      9543--REDEF
VX_OD.MAP_A
      9516**DCL      9517--REDEF
VX_OD.NODCB_A
      9560**DCL      9561--REDEF
VX_OD.NUM_A
      9463**DCL      9464--REDEF
VX_OD.PRIV_A
      9478**DCL      9479--REDEF
VX_OD.SIN_A
      9432**DCL      9433--REDEF
VX_OD.VECTOR_A$
      9551**DCL      9552--REDEF
VX_OL.MAX_A
      9407**DCL      9409--REDEF
VX_OL.MIN_A
      9392**DCL      9393--REDEF
VX_ON.ACCTN_A$
      9681**DCL      9683--REDEF
PL6.E3A0      #002=VXO$PATCH File=VXO$IMPL.:E05TSI                               WED 07/30/97 08:26 Page:204
VX_ON.DCB_MATCH_A$
      9692**DCL      9694--REDEF
VX_ON.FIDN_A$
      9674**DCL      9676--REDEF
VX_ON.FID_A$
      9665**DCL      9667--REDEF
VX_ON.INCLUDE_A$
      9688**DCL      9690--REDEF
VX_ON.MAP_A
      9658**DCL      9660--REDEF
VX_ON.NODCB_A$
      9708**DCL      9709--REDEF
VX_ON.NUM_A
      9603**DCL      9605--REDEF
VX_ON.PRIV_A
      9619**DCL      9621--REDEF
VX_ON.SIN_A
      9571**DCL      9573--REDEF
VX_ON.VECTOR_A$
      9699**DCL      9700--REDEF
VX_OUHEAD.VERSION
      9018**DCL      9020--REDEF
VX_OU_HEAD
      8961**DCL      9000--REDEF   12745<<ASSIGN
VX_OU_HEAD.REC_A
      8973**DCL      8976--REDEF
VX_O_KEY_BUF.FORM0
     10503**DCL     10506--REDEF   10513--REDEF
VX_O_KEY_BUF_L.FORM0
     10526**DCL     10529--REDEF   10536--REDEF
VX_PASS1_ALL_TYPE
      9846**DCL     12747--CALL
VX_PASS2_REF.OU.L_START
      9911**DCL      9916--REDEF
VX_PASS2_REF.OU.L_STOP
      9917**DCL      9922--REDEF
PL6.E3A0      #002=VXO$PATCH File=VXO$IMPL.:E05TSI                               WED 07/30/97 08:26 Page:205
VX_PASS2_REF.OU.MAX
      9905**DCL      9910--REDEF
VX_PASS2_REF.OU.SIZE
      9923**DCL      9928--REDEF
VX_PASS2_REF.SAT.COUNT
      9950**DCL      9956--REDEF
VX_PASS2_REF.SAT.ENT_SIZE
      9957**DCL      9963--REDEF
VX_PASS2_REF.SAT.L_START
      9936**DCL      9942--REDEF
VX_PASS2_REF.SAT.L_STOP
      9943**DCL      9949--REDEF
VX_PASS2_REF.SAT.MAX
      9930**DCL      9935--REDEF
VX_PASS2_REF.UNSAT.L_START
      9998**DCL     10003--REDEF
VX_PASS2_REF.UNSAT.L_STOP
     10004**DCL     10009--REDEF
VX_PASS2_REF.UNSAT.L_WHERE
     10010**DCL     10015--REDEF
VX_PASS2_REF.UNSAT.MAX
      9992**DCL      9997--REDEF
VX_PASS2_REF.UNSAT.PAGE#
     10022**DCL     10027--REDEF
VX_PASS2_REF.UNSAT.SIZE
     10016**DCL     10021--REDEF
VX_PHRASE.PHRASE
      9424**DCL      9426--REDEF
VX_PROGRAM_BIAS.A
      9202**DCL      9203--REDEF
VX_REF_MATCH_A
      9853**DCL     12753>>ASSIGN
VX_ROOT$
      9175**DCL     12741>>ASSIGN  12742>>ASSIGN  12754>>IF      12755>>CALL    12755>>CALL    12755>>CALL
VX_R_KEY_BUF.FORM0
     10552**DCL     10556--REDEF   10562--REDEF
PL6.E3A0      #002=VXO$PATCH File=VXO$IMPL.:E05TSI                               WED 07/30/97 08:26 Page:206
VX_SD.A
     10180**DCL     10181--REDEF
VX_SPC.B$.MINE
     10093**DCL     10099--REDEF
VX_SPC.B$.NAME
     10072**DCL     10078--REDEF
VX_SPC.B$.SKIP
     10086**DCL     10092--REDEF
VX_SPC.B$.VALUE
     10079**DCL     10085--REDEF
VX_SPC.SEG.NAME
     10041**DCL     10047--REDEF
VX_SPC.SEG.VALUE
     10048**DCL     10054--REDEF
VX_TSX0_OVERLAY.H
      9816**DCL      9819--REDEF
WRITE_ERROR
     12819**LABEL   12692--CALLALT 12700--CALLALT 12706--CALLALT 12712--CALLALT
