VERSION E05

PL6.E3A0      #001=VXO$LLMU File=VXO$LLMU.:E05TSI                                WED 07/30/97 08:26 Page:1
        1        1        /*M* VXO$LLMU - Lists Library Modules Used */
        2        2        /*T***********************************************************/
        3        3        /*T*                                                         */
        4        4        /*T* Copyright (c) Bull HN Information Systems Inc., 1997    */
        5        5        /*T*                                                         */
        6        6        /*T***********************************************************/
        7        7        VXO$LLMU: PROC;
        8        8
        9        9                % INCLUDE B$OBJECT_C;
       10     3439                % INCLUDE VX_SUBS_C;
       11     3657                % INCLUDE CP_6;
       12     3738                % INCLUDE VX_DATA_R;
       13     5357                % INCLUDE VX_MACRO_C;
       14     6494                % INCLUDE VX_PERR_C;
       15     6748                % INCLUDE XU_FORMAT_C;
       16     6910                % INCLUDE XUF_ENTRY;
       17     6918                % FPT_OPEN (FPTN = OPEN_LLMU,
       18     6919                  DCB   = M$LLMU,
       19     6920                  NAME  = LLMU_FILE_NAME,
       20     6921                  ASN   = FILE,
       21     6922                  ACS   = SEQUEN,
       22     6923                  ORG   = CONSEC,
       23     6924                  FUN   = UPDATE,
       24     6925                  CTG   = YES);
       25     7034                % VLP_NAME (FPTN = LLMU_FILE_NAME,
       26     7035                  NAME = '***LLMU',
       27     7036                  LEN  = 7);
       28     7063                % FPT_WRITE (FPTN = WRITE_LLMU,
       29     7064                  BUF    = LLMU_BUF,
       30     7065                  DCB    = M$LLMU);
       31     7096                % FPT_REW (FPTN = REW_LLMU,
       32     7097                  DCB  = M$LLMU);
       33     7112                % FPT_DELREC (FPTN = DEL_LLMU,
       34     7113                  DCB = M$LLMU);
       35     7132                % FPT_READ (FPTN = READ_LLMU, DCB = M$LLMU, BUF = LLMU_BUF);
       36     7171                % FPT_CLOSE (FPTN =CLOSE_LLMU,
       37     7172                  DCB  = M$LLMU,
PL6.E3A0      #001=VXO$LLMU File=VXO$LLMU.:E05TSI                                WED 07/30/97 08:26 Page:2
       38     7173                  DISP = RELEASE);
       39     7215    1   DCL M$LLMU DCB;
       40     7216    1   DCL LLMU_BUF CHAR (87) STATIC INIT (' ');
       41     7217
       42     7218                % FPT_READ (FPTN=READ_LOOU, DCB=M$LOOU, BUF=LOOU_BUF,
       43     7219                           KEY=LOOU_KEY,KEYS=YES,KEYR=YES);
       44     7258                % FPT_CLOSE (FPTN =CLOSE_LOOU,
       45     7259                  DCB  = M$LOOU);
       46     7301
       47     7302    1   DCL M$LOOU DCB;
       48     7303    1   DCL LOOU_BUF CHAR (71) STATIC INIT (' ');
       49     7304    1   DCL LOOU_KEY CHAR(31) STATIC INIT (' ');
       50     7305
       51     7306        %F_FDS (NAME = F_FDS,
       52     7307                STCLASS = STATIC,
       53     7308                DCB = M$LO,
       54     7309                BUF = OUT_BUF,
       55     7310                TRUNC = NO,
       56     7311                WRAPTAB = 4);
       57     7424    1   DCL M$LO DCB;
       58     7425    1   DCL OUT_BUF CHAR (80) STATIC INIT (' ');
       59     7426
       60     7427        /* ENTRY DEFINITIONS */
       61     7428    1   DCL VXE$ERROR ENTRY (4);
       62     7429
       63     7430    1   DCL MODULES_USED CHAR (79) STATIC INIT (' ');
       64     7431    1   DCL MODULES_USED_HEADING CHAR (0) CONSTANT INIT
       65     7432    1      ('********  MODULES USED FROM %>A ARE:  ********');
       66     7433    1   DCL NODE_HEADING CHAR(0) CONSTANT INIT (
       67     7434    1   ' (Node) Module Name                      (Node) Module Name');
       68     7435    1   DCL NODE_UNDERLINE CHAR(0) CONSTANT INIT (
       69     7436    1   ' ------ -----------                      ------ -----------');
       70     7437    1   DCL BLANK_LINE CHAR (1) CONSTANT INIT (' ');
       71     7438    1   DCL LIB_NAME CHAR (40);
       72     7439    1   DCL MOD_NAME CHAR (31) BASED;
       73     7440    1   DCL LEN UBIN;
       74     7441    1   DCL LLMU_REC CHAR (LEN) BASED;
PL6.E3A0      #001=VXO$LLMU File=VXO$LLMU.:E05TSI                                WED 07/30/97 08:26 Page:3
       75     7442    1   DCL NODE_NUM CHAR(7) BASED (ND$);
       76     7443    1   DCL NODE# CHAR(7) BASED;
       77     7444    1   DCL ND$ PTR;
       78     7445    1   DCL MODULE UBIN;
       79     7446    1   DCL I UBIN;
       80     7447    1   DCL NODE2$ PTR;
       81     7448    1   DCL NODE1$ PTR;
       82     7449    1   DCL I1 UBIN;
       83     7450    1   DCL I2 UBIN;
       84     7451    1   DCL J1 UBIN;
       85     7452    1   DCL J2 UBIN;
       86     7453    1   DCL FOUND_MODULES BIT (1);
       87     7454    1   DCL MOD1$ PTR;
       88     7455    1   DCL MOD2$ PTR;
       89     7456    1   DCL MOD$  PTR;
       90     7457
       91     7458    1           CALL M$OPEN (OPEN_LLMU);
       92     7459    1           IF NOT VX_OD.SIN.NWARN THEN CALL CHECK_AMBIGIOUS_OUS;
       93     7460    2           IF VX_OD.SIN.LLMU THEN DO;
       94     7461    2              FOUND_MODULES = '0'B;
       95     7462    2              MOD1$ = PINCRC (ADDR(MODULES_USED),8);
       96     7463    2              MOD2$ = PINCRC (ADDR(MODULES_USED),48);
       97     7464    2              NODE1$ = ADDR(MODULES_USED);
       98     7465    2              NODE2$ = PINCRC(ADDR(MODULES_USED),40);
       99     7466    2              ND$ = PINCRC(ADDR(LLMU_BUF),80);
      100     7467
      101     7468    2   START:
      102     7469
      103     7470    2              MODULE = 1;
      104     7471    2              CALL M$REW (REW_LLMU);
      105     7472    3              CALL M$READ (READ_LLMU) WHENALTRETURN DO;
      106     7473    3                 IF FOUND_MODULES THEN
      107     7474    3                    CALL X$WRITE (F_FDS, VECTOR(BLANK_LINE));
      108     7475    3                 CALL M$CLOSE (CLOSE_LLMU);
      109     7476    3                 CALL M$CLOSE (CLOSE_LOOU);
      110     7477    3                 RETURN;
      111     7478    3                 END;
PL6.E3A0      #001=VXO$LLMU File=VXO$LLMU.:E05TSI                                WED 07/30/97 08:26 Page:4
      112     7479    2              FOUND_MODULES = '1'B;
      113     7480    2              CALL INDEX (I, ';', LLMU_BUF);
      114     7481    2              LEN = I;
      115     7482    2              LIB_NAME = ADDR (LLMU_BUF) -> LLMU_REC;
      116     7483    2              CALL X$WRITE (F_FDS, VECTOR(BLANK_LINE));
      117     7484    2              CALL X$WRITE (F_FDS, VECTOR(MODULES_USED_HEADING),VECTOR(LIB_NAME));
      118     7485    2              CALL X$WRITE (F_FDS, VECTOR(BLANK_LINE));
      119     7486    3              IF NODE_NUM ~= ' ' THEN DO;
      120     7487    3                 CALL X$WRITE(F_FDS,VECTOR(NODE_HEADING));
      121     7488    3                 CALL X$WRITE(F_FDS,VECTOR(NODE_UNDERLINE));
      122     7489    3                 CALL X$WRITE(F_FDS,VECTOR(BLANK_LINE)); END;
      123     7490    2              CALL INDEX (LEN, ' ', LLMU_BUF, I);
      124     7491    2              LEN = LEN - I;
      125     7492    2              MOD$ = PINCRC (ADDR (LLMU_BUF), I+1);
      126     7493    2              MOD1$ -> MOD_NAME = MOD$ -> LLMU_REC;
      127     7494    2              NODE1$->NODE# = NODE_NUM;
      128     7495    2              CALL M$DELREC (DEL_LLMU);
      129     7496    2              MODULE = 2;
      130     7497
      131     7498    2   READ_NEXT:
      132     7499
      133     7500    2              CALL M$READ (READ_LLMU) ALTRET (EOF);
      134     7501    3              IF SUBSTR(LIB_NAME,1,I-1) = SUBSTR (LLMU_BUF,1,I-1) THEN DO;
      135     7502    3                 CALL INDEX (LEN, ' ', LLMU_BUF, I);
      136     7503    4                 IF MODULE = 1 THEN DO;
      137     7504    4                    MOD1$ -> MOD_NAME = MOD$ -> LLMU_REC;
      138     7505    4                    NODE1$->NODE# = NODE_NUM;
      139     7506    4                    MODULE = 2;
      140     7507    4                    END;
      141     7508    4                 ELSE DO;
      142     7509    4                    MOD2$ -> MOD_NAME = MOD$ -> LLMU_REC;
      143     7510    4                    NODE2$->NODE# = NODE_NUM;
      144     7511    4                    MODULE = 1;
      145     7512    4                    CALL X$WRITE (F_FDS, VECTOR (MODULES_USED));
      146     7513    4                    MODULES_USED = ' ';
      147     7514    4                    END;
      148     7515    3                 CALL M$DELREC (DEL_LLMU);
PL6.E3A0      #001=VXO$LLMU File=VXO$LLMU.:E05TSI                                WED 07/30/97 08:26 Page:5
      149     7516    3                 END;
      150     7517    2              GOTO READ_NEXT;
      151     7518
      152     7519    2   EOF:
      153     7520
      154     7521    3              IF MODULE = 2 THEN DO;
      155     7522    3                 CALL X$WRITE (F_FDS, VECTOR (MODULES_USED));
      156     7523    3                 MODULES_USED = ' ';
      157     7524    3                 END;
      158     7525    2              GOTO START;
      159     7526    2              END;                         /* If VX_OD.SIN.LLMU then do;         */
      160     7527    2           ELSE DO;
      161     7528    2              CALL M$CLOSE (CLOSE_LLMU);
      162     7529    2              CALL M$CLOSE (CLOSE_LOOU);
      163     7530    2              END;
      164     7531
      165     7532    1   CHECK_AMBIGIOUS_OUS: PROC;
      166     7533
      167     7534    2           CALL M$REW (REW_LLMU);
      168     7535    2   NEXT_LLMU:
      169     7536    3           CALL M$READ (READ_LLMU) WHENALTRETURN DO;
      170     7537    3              RETURN;
      171     7538    3              END;
      172     7539
      173     7540    2           CALL INDEX (I1,';',LLMU_BUF);
      174     7541    2           CALL INDEX (I2,' ',LLMU_BUF,I1+1);
      175     7542    2           CALL INDEX (J2,' ',LLMU_BUF);
      176     7543    2           LOOU_KEY=SUBSTR (LLMU_BUF,I1+1,I2-I1-1);
      177     7544    3           CALL M$READ (READ_LOOU) WHENRETURN DO;
      178     7545    3              CALL INDEX (J1,' ',LOOU_BUF);
      179     7546
      180     7547        /*E*  ERROR: VXO-E$AMBIGIOUS_ENTDEF_VX-0
      181     7548              MESSAGE: The ENTDEF %U1 was defined in the overlay in %U2,
      182     7549                       but a Library DEFinition (LDEF) also exists in %U3.
      183     7550                       The Library definition for %U1 was used. Others ignored.
      184     7551              DESCRIPTION: Self-explanatory.
      185     7552        */
PL6.E3A0      #001=VXO$LLMU File=VXO$LLMU.:E05TSI                                WED 07/30/97 08:26 Page:6
      186     7553    3              VX_EFIELD1.COUNT = I2-I1-1;
      187     7554    3              VX_EFIELD1.CHARS = SUBSTR(LLMU_BUF,I1+1,I2-I1-1);
      188     7555    3              VX_EFIELD2.COUNT = J1;
      189     7556    3              VX_EFIELD2.CHARS = SUBSTR(LOOU_BUF,0,J1);
      190     7557    3              VX_EFIELD3.COUNT = J2;
      191     7558    3              VX_EFIELD3.CHARS = SUBSTR(LLMU_BUF,0,J2);
      192     7559                   %SCREAM (ERR#=E$AMBIGIOUS_ENTDEF_VX,LEVEL=@E$W_VX,MID="'O'");
      193     7562    3              END;
      194     7563    3           WHENALTRETURN DO;
      195     7564    3              END; /* Dont do anything */
      196     7565    2           GOTO NEXT_LLMU;
      197     7566
      198     7567    2   END CHECK_AMBIGIOUS_OUS;
      199     7568
      200     7569    1   END VXO$LLMU;

PL6.E3A0      #001=VXO$LLMU File=VXO$LLMU.:E05TSI                                WED 07/30/97 08:26 Page:7
--  Include file information  --

   XUF_ENTRY.:E05TOU  cannot be made into a system file and is referenced.
   XU_FORMAT_C.:E05TOU  is referenced.
   VX_PERR_C.:E05TOU  is referenced.
   VX_MACRO_C.:E05TOU  is referenced.
   VX_DATA_R.:E05TOU  cannot be made into a system file and is referenced.
   CP_6.:E05TOU  cannot be made into a system file and is referenced.
   VX_SUBS_C.:E05TOU  is referenced.
   B$OBJECT_C.:E05TOU  is referenced.
   B$JIT_C.:E05TOU  was found in the system file and is never referenced.
   CP_6_C.:E05TOU  was found in the system file and is referenced.
      No diagnostics issued in procedure VXO$LLMU.

   Procedure VXO$LLMU requires 286 words for executable code.
   Procedure VXO$LLMU requires 38 words of local(AUTO) storage.

    No errors detected in file VXO$LLMU.:E05TSI    .

PL6.E3A0      #001=VXO$LLMU File=VXO$LLMU.:E05TSI                                WED 07/30/97 08:26 Page:8

 Object Unit name= VXO$LLMU                                   File name= VXO$LLMU.:E05TOU
 UTS= JUL 30 '97 08:26:42.12 WED                              Compiler= PL-6/E31         Sev=      00
 SharedLib= :SHARED_SYSTEM                                    Alt SharedLib=


    ****  Control sections  ****

 Sect   Type Bound  Init  Size OctSiz  Section name(segment info)
    0   DCB   even  none     0      0  M$UC
    1   Data  even  none   294    446  VXO$LLMU
    2   DCB   even  none     0      0  M$LLMU
    3   DCB   even  none     0      0  M$LOOU
    4   DCB   even  none     0      0  M$LO
    5  RoData even  UTS     43     53  VXO$LLMU
    6   Proc  even  none   286    436  VXO$LLMU
    7  RoData even  none    36     44  VXO$LLMU

    ****  Entry defs  ****

                              Check   Calling
                             calling  sequence
  Sect OctLoc Primary Altret sequence   type   Parms  Name
     6      0   yes            yes      Std        0  VXO$LLMU

  ****  Entry refs  ****

         Check        Calling
        calling       sequence
Altret sequence SRef   type   Args  Name
         yes           Std      22 X$WRITE
         yes           Std       4 VXE$ERROR
                       nStd      0 X66_AUTO_0
                       Std       0 B_CONSPOOL_D
                       nStd      0 X66_ARET
PL6.E3A0      #001=VXO$LLMU File=VXO$LLMU.:E05TSI                                WED 07/30/97 08:26 Page:9

  ****  Data refs  ****

  Flags:  r = read only, s = secondary
Flgs Name                             Flgs Name                             Flgs Name
     M$UC                                  VX_OU_HEAD                            VX_ERRORS
     VX_OD                                 VX_EFIELD1                            VX_EFIELD2
     VX_EFIELD3                            M$LLMU                                M$LOOU
     M$LO                                  B_VECTNIL

  ****  Segment refs  ****

  Flags:  r = read only, s = secondary
Flgs Name                             Flgs Name                             Flgs Name
     ISSID                                 NULLSID
PL6.E3A0      #001=VXO$LLMU File=VXO$LLMU.:E05TSI                                WED 07/30/97 08:26 Page:10


        1        1        /*M* VXO$LLMU - Lists Library Modules Used */
        2        2        /*T***********************************************************/
        3        3        /*T*                                                         */
        4        4        /*T* Copyright (c) Bull HN Information Systems Inc., 1997    */
        5        5        /*T*                                                         */
        6        6        /*T***********************************************************/
        7        7        VXO$LLMU: PROC;

      7  6 000000   000000 700200 xent  VXO$LLMU     TSX0  ! X66_AUTO_0
         6 000001   000046 000000                    ZERO    38,0

        8        8
        9        9                % INCLUDE B$OBJECT_C;
       10     3439                % INCLUDE VX_SUBS_C;
       11     3657                % INCLUDE CP_6;
       12     3738                % INCLUDE VX_DATA_R;
       13     5357                % INCLUDE VX_MACRO_C;
       14     6494                % INCLUDE VX_PERR_C;
       15     6748                % INCLUDE XU_FORMAT_C;
       16     6910                % INCLUDE XUF_ENTRY;
       17     6918                % FPT_OPEN (FPTN = OPEN_LLMU,
       18     6919                  DCB   = M$LLMU,
       19     6920                  NAME  = LLMU_FILE_NAME,
       20     6921                  ASN   = FILE,
       21     6922                  ACS   = SEQUEN,
       22     6923                  ORG   = CONSEC,
       23     6924                  FUN   = UPDATE,
       24     6925                  CTG   = YES);
       25     7034                % VLP_NAME (FPTN = LLMU_FILE_NAME,
       26     7035                  NAME = '***LLMU',
       27     7036                  LEN  = 7);
       28     7063                % FPT_WRITE (FPTN = WRITE_LLMU,
       29     7064                  BUF    = LLMU_BUF,
       30     7065                  DCB    = M$LLMU);
       31     7096                % FPT_REW (FPTN = REW_LLMU,
       32     7097                  DCB  = M$LLMU);
PL6.E3A0      #001=VXO$LLMU File=VXO$LLMU.:E05TSI                                WED 07/30/97 08:26 Page:11
       33     7112                % FPT_DELREC (FPTN = DEL_LLMU,
       34     7113                  DCB = M$LLMU);
       35     7132                % FPT_READ (FPTN = READ_LLMU, DCB = M$LLMU, BUF = LLMU_BUF);
       36     7171                % FPT_CLOSE (FPTN =CLOSE_LLMU,
       37     7172                  DCB  = M$LLMU,
       38     7173                  DISP = RELEASE);
       39     7215    1   DCL M$LLMU DCB;
       40     7216    1   DCL LLMU_BUF CHAR (87) STATIC INIT (' ');
       41     7217
       42     7218                % FPT_READ (FPTN=READ_LOOU, DCB=M$LOOU, BUF=LOOU_BUF,
       43     7219                           KEY=LOOU_KEY,KEYS=YES,KEYR=YES);
       44     7258                % FPT_CLOSE (FPTN =CLOSE_LOOU,
       45     7259                  DCB  = M$LOOU);
       46     7301
       47     7302    1   DCL M$LOOU DCB;
       48     7303    1   DCL LOOU_BUF CHAR (71) STATIC INIT (' ');
       49     7304    1   DCL LOOU_KEY CHAR(31) STATIC INIT (' ');
       50     7305
       51     7306        %F_FDS (NAME = F_FDS,
       52     7307                STCLASS = STATIC,
       53     7308                DCB = M$LO,
       54     7309                BUF = OUT_BUF,
       55     7310                TRUNC = NO,
       56     7311                WRAPTAB = 4);
       57     7424    1   DCL M$LO DCB;
       58     7425    1   DCL OUT_BUF CHAR (80) STATIC INIT (' ');
       59     7426
       60     7427        /* ENTRY DEFINITIONS */
       61     7428    1   DCL VXE$ERROR ENTRY (4);
       62     7429
       63     7430    1   DCL MODULES_USED CHAR (79) STATIC INIT (' ');
       64     7431    1   DCL MODULES_USED_HEADING CHAR (0) CONSTANT INIT
       65     7432    1      ('********  MODULES USED FROM %>A ARE:  ********');
       66     7433    1   DCL NODE_HEADING CHAR(0) CONSTANT INIT (
       67     7434    1   ' (Node) Module Name                      (Node) Module Name');
       68     7435    1   DCL NODE_UNDERLINE CHAR(0) CONSTANT INIT (
       69     7436    1   ' ------ -----------                      ------ -----------');
PL6.E3A0      #001=VXO$LLMU File=VXO$LLMU.:E05TSI                                WED 07/30/97 08:26 Page:12
       70     7437    1   DCL BLANK_LINE CHAR (1) CONSTANT INIT (' ');
       71     7438    1   DCL LIB_NAME CHAR (40);
       72     7439    1   DCL MOD_NAME CHAR (31) BASED;
       73     7440    1   DCL LEN UBIN;
       74     7441    1   DCL LLMU_REC CHAR (LEN) BASED;
       75     7442    1   DCL NODE_NUM CHAR(7) BASED (ND$);
       76     7443    1   DCL NODE# CHAR(7) BASED;
       77     7444    1   DCL ND$ PTR;
       78     7445    1   DCL MODULE UBIN;
       79     7446    1   DCL I UBIN;
       80     7447    1   DCL NODE2$ PTR;
       81     7448    1   DCL NODE1$ PTR;
       82     7449    1   DCL I1 UBIN;
       83     7450    1   DCL I2 UBIN;
       84     7451    1   DCL J1 UBIN;
       85     7452    1   DCL J2 UBIN;
       86     7453    1   DCL FOUND_MODULES BIT (1);
       87     7454    1   DCL MOD1$ PTR;
       88     7455    1   DCL MOD2$ PTR;
       89     7456    1   DCL MOD$  PTR;
       90     7457
       91     7458    1           CALL M$OPEN (OPEN_LLMU);

   7458  6 000002   000000 630400 1                  EPPR0   OPEN_LLMU
         6 000003   050000 713400                    CLIMB   open
         6 000004   410400 401760                    pmme    nvectors=18

       92     7459    1           IF NOT VX_OD.SIN.NWARN THEN CALL CHECK_AMBIGIOUS_OUS;

   7459  6 000005   000000 236000 xsym               LDQ     VX_OD
         6 000006   000400 316007                    CANQ    256,DL
         6 000007   000012 601000 6                  TNZ     s:7460

   7459  6 000010   000321 701000 6                  TSX1    CHECK_AMBIGIOUS_OUS
         6 000011   000000 011000                    NOP     0

       93     7460    2           IF VX_OD.SIN.LLMU THEN DO;
PL6.E3A0      #001=VXO$LLMU File=VXO$LLMU.:E05TSI                                WED 07/30/97 08:26 Page:13

   7460  6 000012   000000 236000 xsym               LDQ     VX_OD
         6 000013   004000 316007                    CANQ    2048,DL
         6 000014   000312 600000 6                  TZE     s:7528

       94     7461    2              FOUND_MODULES = '0'B;

   7461  6 000015   200027 450100                    STZ     FOUND_MODULES,,AUTO

       95     7462    2              MOD1$ = PINCRC (ADDR(MODULES_USED),8);

   7462  6 000016   000000 236000 7                  LDQ     0
         6 000017   200030 756100                    STQ     MOD1$,,AUTO

       96     7463    2              MOD2$ = PINCRC (ADDR(MODULES_USED),48);

   7463  6 000020   000001 236000 7                  LDQ     1
         6 000021   200031 756100                    STQ     MOD2$,,AUTO

       97     7464    2              NODE1$ = ADDR(MODULES_USED);

   7464  6 000022   000002 236000 7                  LDQ     2
         6 000023   200022 756100                    STQ     NODE1$,,AUTO

       98     7465    2              NODE2$ = PINCRC(ADDR(MODULES_USED),40);

   7465  6 000024   000003 236000 7                  LDQ     3
         6 000025   200021 756100                    STQ     NODE2$,,AUTO

       99     7466    2              ND$ = PINCRC(ADDR(LLMU_BUF),80);

   7466  6 000026   000004 236000 7                  LDQ     4
         6 000027   200016 756100                    STQ     ND$,,AUTO

      100     7467
      101     7468    2   START:
      102     7469
PL6.E3A0      #001=VXO$LLMU File=VXO$LLMU.:E05TSI                                WED 07/30/97 08:26 Page:14
      103     7470    2              MODULE = 1;

   7470  6 000030   000001 235007       START        LDA     1,DL
         6 000031   200017 755100                    STA     MODULE,,AUTO

      104     7471    2              CALL M$REW (REW_LLMU);

   7471  6 000032   000110 630400 1                  EPPR0   REW_LLMU
         6 000033   040006 713400                    CLIMB   16390
         6 000034   400000 401760                    pmme    nvectors=1

      105     7472    3              CALL M$READ (READ_LLMU) WHENALTRETURN DO;

   7472  6 000035   000130 630400 1                  EPPR0   READ_LLMU
         6 000036   440000 713400                    CLIMB   alt,read
         6 000037   401400 401760                    pmme    nvectors=4
         6 000040   000042 702000 6                  TSX2    s:7473
         6 000041   000057 710000 6                  TRA     s:7479

      106     7473    3                 IF FOUND_MODULES THEN

   7473  6 000042   200027 234100                    SZN     FOUND_MODULES,,AUTO
         6 000043   000050 605000 6                  TPL     s:7475

      107     7474    3                    CALL X$WRITE (F_FDS, VECTOR(BLANK_LINE));

   7474  6 000044   000010 630400 7                  EPPR0   8
         6 000045   000020 631400 xsym               EPPR1   B_VECTNIL+16
         6 000046   000000 701000 xent               TSX1    X$WRITE
         6 000047   000000 011000                    NOP     0

      108     7475    3                 CALL M$CLOSE (CLOSE_LLMU);

   7475  6 000050   000146 630400 1                  EPPR0   CLOSE_LLMU
         6 000051   050001 713400                    CLIMB   close
         6 000052   406000 401760                    pmme    nvectors=13

PL6.E3A0      #001=VXO$LLMU File=VXO$LLMU.:E05TSI                                WED 07/30/97 08:26 Page:15
      109     7476    3                 CALL M$CLOSE (CLOSE_LOOU);

   7476  6 000053   000250 630400 1                  EPPR0   CLOSE_LOOU
         6 000054   050001 713400                    CLIMB   close
         6 000055   406000 401760                    pmme    nvectors=13

      110     7477    3                 RETURN;

   7477  6 000056   000000 702200 xent               TSX2  ! X66_ARET

      111     7478    3                 END;
      112     7479    2              FOUND_MODULES = '1'B;

   7479  6 000057   400000 236003                    LDQ     -131072,DU
         6 000060   200027 756100                    STQ     FOUND_MODULES,,AUTO

      113     7480    2              CALL INDEX (I, ';', LLMU_BUF);

   7480  6 000061   000000 124400                    SCM     mask='000'O
         6 000062   000204 000127 1                  ADSC9   LLMU_BUF                 cn=0,n=87
         6 000063   000012 000001 7                  ADSC9   10                       cn=0,n=1
         6 000064   200020 000100                    ARG     I,,AUTO

      114     7481    2              LEN = I;

   7481  6 000065   200020 235100                    LDA     I,,AUTO
         6 000066   200015 755100                    STA     LEN,,AUTO

      115     7482    2              LIB_NAME = ADDR (LLMU_BUF) -> LLMU_REC;

   7482  6 000067   000000 620005                    EAX0    0,AL
         6 000070   040100 100440                    MLR     fill='040'O
         6 000071   000204 000010 1                  ADSC9   LLMU_BUF                 cn=0,n=*X0
         6 000072   200003 000050                    ADSC9   LIB_NAME,,AUTO           cn=0,n=40

      116     7483    2              CALL X$WRITE (F_FDS, VECTOR(BLANK_LINE));

PL6.E3A0      #001=VXO$LLMU File=VXO$LLMU.:E05TSI                                WED 07/30/97 08:26 Page:16
   7483  6 000073   000010 630400 7                  EPPR0   8
         6 000074   000020 631400 xsym               EPPR1   B_VECTNIL+16
         6 000075   000000 701000 xent               TSX1    X$WRITE
         6 000076   000000 011000                    NOP     0

      117     7484    2              CALL X$WRITE (F_FDS, VECTOR(MODULES_USED_HEADING),VECTOR(LIB_NAME));

   7484  6 000077   000013 235000 7                  LDA     11
         6 000100   200036 452500                    STP2    MOD$+4,,AUTO
         6 000101   200036 236100                    LDQ     MOD$+4,,AUTO
         6 000102   000003 036003                    ADLQ    3,DU
         6 000103   200040 757100                    STAQ    MOD$+6,,AUTO
         6 000104   200040 630500                    EPPR0   MOD$+6,,AUTO
         6 000105   200044 450500                    STP0    MOD$+10,,AUTO
         6 000106   000016 237000 7                  LDAQ    14
         6 000107   200042 757100                    STAQ    MOD$+8,,AUTO
         6 000110   200042 630500                    EPPR0   MOD$+8,,AUTO
         6 000111   000021 631400 xsym               EPPR1   B_VECTNIL+17
         6 000112   000000 701000 xent               TSX1    X$WRITE
         6 000113   000000 011000                    NOP     0

      118     7485    2              CALL X$WRITE (F_FDS, VECTOR(BLANK_LINE));

   7485  6 000114   000010 630400 7                  EPPR0   8
         6 000115   000020 631400 xsym               EPPR1   B_VECTNIL+16
         6 000116   000000 701000 xent               TSX1    X$WRITE
         6 000117   000000 011000                    NOP     0

      119     7486    3              IF NODE_NUM ~= ' ' THEN DO;

   7486  6 000120   200016 470500                    LDP0    ND$,,AUTO
         6 000121   040000 106500                    CMPC    fill='040'O
         6 000122   000000 000007                    ADSC9   0,,PR0                   cn=0,n=7
         6 000123   000035 000001 xsym               ADSC9   B_VECTNIL+29             cn=0,n=1
         6 000124   000141 600000 6                  TZE     s:7490

      120     7487    3                 CALL X$WRITE(F_FDS,VECTOR(NODE_HEADING));
PL6.E3A0      #001=VXO$LLMU File=VXO$LLMU.:E05TSI                                WED 07/30/97 08:26 Page:17

   7487  6 000125   000022 630400 7                  EPPR0   18
         6 000126   000020 631400 xsym               EPPR1   B_VECTNIL+16
         6 000127   000000 701000 xent               TSX1    X$WRITE
         6 000130   000000 011000                    NOP     0

      121     7488    3                 CALL X$WRITE(F_FDS,VECTOR(NODE_UNDERLINE));

   7488  6 000131   000026 630400 7                  EPPR0   22
         6 000132   000020 631400 xsym               EPPR1   B_VECTNIL+16
         6 000133   000000 701000 xent               TSX1    X$WRITE
         6 000134   000000 011000                    NOP     0

      122     7489    3                 CALL X$WRITE(F_FDS,VECTOR(BLANK_LINE)); END;

   7489  6 000135   000010 630400 7                  EPPR0   8
         6 000136   000020 631400 xsym               EPPR1   B_VECTNIL+16
         6 000137   000000 701000 xent               TSX1    X$WRITE
         6 000140   000000 011000                    NOP     0

      123     7490    2              CALL INDEX (LEN, ' ', LLMU_BUF, I);

   7490  6 000141   200020 720100                    LXL0    I,,AUTO
         6 000142   777650 620010                    EAX0    -88,X0
         6 000143   777777 660003                    ERX0    -1,DU
         6 000144   200020 236100                    LDQ     I,,AUTO
         6 000145   200020 235100                    LDA     I,,AUTO
         6 000146   000000 124445                    SCM     mask='000'O
         6 000147   000204 000010 1                  ADSC9   LLMU_BUF,A               cn=0,n=*X0
         6 000150   000035 000001 xsym               ADSC9   B_VECTNIL+29             cn=0,n=1
         6 000151   200015 000100                    ARG     LEN,,AUTO
         6 000152   200015 056100                    ASQ     LEN,,AUTO

      124     7491    2              LEN = LEN - I;

   7491  6 000153   200015 236100                    LDQ     LEN,,AUTO
         6 000154   200020 136100                    SBLQ    I,,AUTO
PL6.E3A0      #001=VXO$LLMU File=VXO$LLMU.:E05TSI                                WED 07/30/97 08:26 Page:18
         6 000155   200015 756100                    STQ     LEN,,AUTO

      125     7492    2              MOD$ = PINCRC (ADDR (LLMU_BUF), I+1);

   7492  6 000156   200020 236100                    LDQ     I,,AUTO
         6 000157   000020 736000                    QLS     16
         6 000160   000030 036000 7                  ADLQ    24
         6 000161   200032 756100                    STQ     MOD$,,AUTO

      126     7493    2              MOD1$ -> MOD_NAME = MOD$ -> LLMU_REC;

   7493  6 000162   200032 470500                    LDP0    MOD$,,AUTO
         6 000163   200015 721100                    LXL1    LEN,,AUTO
         6 000164   200030 471500                    LDP1    MOD1$,,AUTO
         6 000165   040100 100540                    MLR     fill='040'O
         6 000166   000000 000011                    ADSC9   0,,PR0                   cn=0,n=*X1
         6 000167   100000 000037                    ADSC9   0,,PR1                   cn=0,n=31

      127     7494    2              NODE1$->NODE# = NODE_NUM;

   7494  6 000170   200016 473500                    LDP3    ND$,,AUTO
         6 000171   200022 474500                    LDP4    NODE1$,,AUTO
         6 000172   040100 100500                    MLR     fill='040'O
         6 000173   300000 000007                    ADSC9   0,,PR3                   cn=0,n=7
         6 000174   400000 000007                    ADSC9   0,,PR4                   cn=0,n=7

      128     7495    2              CALL M$DELREC (DEL_LLMU);

   7495  6 000175   000116 630400 1                  EPPR0   DEL_LLMU
         6 000176   040002 713400                    CLIMB   16386
         6 000177   401400 401760                    pmme    nvectors=4

      129     7496    2              MODULE = 2;

   7496  6 000200   000002 235007                    LDA     2,DL
         6 000201   200017 755100                    STA     MODULE,,AUTO

PL6.E3A0      #001=VXO$LLMU File=VXO$LLMU.:E05TSI                                WED 07/30/97 08:26 Page:19
      130     7497
      131     7498    2   READ_NEXT:
      132     7499
      133     7500    2              CALL M$READ (READ_LLMU) ALTRET (EOF);

   7500  6 000202   000130 630400 1     READ_NEXT    EPPR0   READ_LLMU
         6 000203   440000 713400                    CLIMB   alt,read
         6 000204   401400 401760                    pmme    nvectors=4
         6 000205   000277 702000 6                  TSX2    EOF

      134     7501    3              IF SUBSTR(LIB_NAME,1,I-1) = SUBSTR (LLMU_BUF,1,I-1) THEN DO;

   7501  6 000206   200020 720100                    LXL0    I,,AUTO
         6 000207   777777 621010                    EAX1    -1,X0
         6 000210   040040 106540                    CMPC    fill='040'O
         6 000211   200003 200011                    ADSC9   LIB_NAME,,AUTO           cn=1,n=*X1
         6 000212   000204 200011 1                  ADSC9   LLMU_BUF                 cn=1,n=*X1
         6 000213   000276 601000 6                  TNZ     s:7517

      135     7502    3                 CALL INDEX (LEN, ' ', LLMU_BUF, I);

   7502  6 000214   200020 722100                    LXL2    I,,AUTO
         6 000215   777650 622012                    EAX2    -88,X2
         6 000216   777777 662003                    ERX2    -1,DU
         6 000217   200020 236100                    LDQ     I,,AUTO
         6 000220   200020 235100                    LDA     I,,AUTO
         6 000221   000000 124445                    SCM     mask='000'O
         6 000222   000204 000012 1                  ADSC9   LLMU_BUF,A               cn=0,n=*X2
         6 000223   000035 000001 xsym               ADSC9   B_VECTNIL+29             cn=0,n=1
         6 000224   200015 000100                    ARG     LEN,,AUTO
         6 000225   200015 056100                    ASQ     LEN,,AUTO

      136     7503    4                 IF MODULE = 1 THEN DO;

   7503  6 000226   200017 236100                    LDQ     MODULE,,AUTO
         6 000227   000001 116007                    CMPQ    1,DL
         6 000230   000247 601000 6                  TNZ     s:7509
PL6.E3A0      #001=VXO$LLMU File=VXO$LLMU.:E05TSI                                WED 07/30/97 08:26 Page:20

      137     7504    4                    MOD1$ -> MOD_NAME = MOD$ -> LLMU_REC;

   7504  6 000231   200032 470500                    LDP0    MOD$,,AUTO
         6 000232   200015 723100                    LXL3    LEN,,AUTO
         6 000233   200030 471500                    LDP1    MOD1$,,AUTO
         6 000234   040100 100540                    MLR     fill='040'O
         6 000235   000000 000013                    ADSC9   0,,PR0                   cn=0,n=*X3
         6 000236   100000 000037                    ADSC9   0,,PR1                   cn=0,n=31

      138     7505    4                    NODE1$->NODE# = NODE_NUM;

   7505  6 000237   200016 473500                    LDP3    ND$,,AUTO
         6 000240   200022 474500                    LDP4    NODE1$,,AUTO
         6 000241   040100 100500                    MLR     fill='040'O
         6 000242   300000 000007                    ADSC9   0,,PR3                   cn=0,n=7
         6 000243   400000 000007                    ADSC9   0,,PR4                   cn=0,n=7

      139     7506    4                    MODULE = 2;

   7506  6 000244   000002 235007                    LDA     2,DL
         6 000245   200017 755100                    STA     MODULE,,AUTO

      140     7507    4                    END;

   7507  6 000246   000273 710000 6                  TRA     s:7515

      141     7508    4                 ELSE DO;

      142     7509    4                    MOD2$ -> MOD_NAME = MOD$ -> LLMU_REC;

   7509  6 000247   200032 470500                    LDP0    MOD$,,AUTO
         6 000250   200015 723100                    LXL3    LEN,,AUTO
         6 000251   200031 471500                    LDP1    MOD2$,,AUTO
         6 000252   040100 100540                    MLR     fill='040'O
         6 000253   000000 000013                    ADSC9   0,,PR0                   cn=0,n=*X3
         6 000254   100000 000037                    ADSC9   0,,PR1                   cn=0,n=31
PL6.E3A0      #001=VXO$LLMU File=VXO$LLMU.:E05TSI                                WED 07/30/97 08:26 Page:21

      143     7510    4                    NODE2$->NODE# = NODE_NUM;

   7510  6 000255   200016 473500                    LDP3    ND$,,AUTO
         6 000256   200021 474500                    LDP4    NODE2$,,AUTO
         6 000257   040100 100500                    MLR     fill='040'O
         6 000260   300000 000007                    ADSC9   0,,PR3                   cn=0,n=7
         6 000261   400000 000007                    ADSC9   0,,PR4                   cn=0,n=7

      144     7511    4                    MODULE = 1;

   7511  6 000262   000001 235007                    LDA     1,DL
         6 000263   200017 755100                    STA     MODULE,,AUTO

      145     7512    4                    CALL X$WRITE (F_FDS, VECTOR (MODULES_USED));

   7512  6 000264   000034 630400 7                  EPPR0   28
         6 000265   000020 631400 xsym               EPPR1   B_VECTNIL+16
         6 000266   000000 701000 xent               TSX1    X$WRITE
         6 000267   000000 011000                    NOP     0

      146     7513    4                    MODULES_USED = ' ';

   7513  6 000270   040000 100400                    MLR     fill='040'O
         6 000271   000035 000001 xsym               ADSC9   B_VECTNIL+29             cn=0,n=1
         6 000272   000422 000117 1                  ADSC9   MODULES_USED             cn=0,n=79

      147     7514    4                    END;

      148     7515    3                 CALL M$DELREC (DEL_LLMU);

   7515  6 000273   000116 630400 1                  EPPR0   DEL_LLMU
         6 000274   040002 713400                    CLIMB   16386
         6 000275   401400 401760                    pmme    nvectors=4

      149     7516    3                 END;

PL6.E3A0      #001=VXO$LLMU File=VXO$LLMU.:E05TSI                                WED 07/30/97 08:26 Page:22
      150     7517    2              GOTO READ_NEXT;

   7517  6 000276   000202 710000 6                  TRA     READ_NEXT

      151     7518
      152     7519    2   EOF:
      153     7520
      154     7521    3              IF MODULE = 2 THEN DO;

   7521  6 000277   200017 235100       EOF          LDA     MODULE,,AUTO
         6 000300   000002 115007                    CMPA    2,DL
         6 000301   000311 601000 6                  TNZ     s:7525

      155     7522    3                 CALL X$WRITE (F_FDS, VECTOR (MODULES_USED));

   7522  6 000302   000034 630400 7                  EPPR0   28
         6 000303   000020 631400 xsym               EPPR1   B_VECTNIL+16
         6 000304   000000 701000 xent               TSX1    X$WRITE
         6 000305   000000 011000                    NOP     0

      156     7523    3                 MODULES_USED = ' ';

   7523  6 000306   040000 100400                    MLR     fill='040'O
         6 000307   000035 000001 xsym               ADSC9   B_VECTNIL+29             cn=0,n=1
         6 000310   000422 000117 1                  ADSC9   MODULES_USED             cn=0,n=79

      157     7524    3                 END;

      158     7525    2              GOTO START;

   7525  6 000311   000030 710000 6                  TRA     START

      159     7526    2              END;                         /* If VX_OD.SIN.LLMU then do;         */
      160     7527    2           ELSE DO;

      161     7528    2              CALL M$CLOSE (CLOSE_LLMU);

PL6.E3A0      #001=VXO$LLMU File=VXO$LLMU.:E05TSI                                WED 07/30/97 08:26 Page:23
   7528  6 000312   000146 630400 1                  EPPR0   CLOSE_LLMU
         6 000313   050001 713400                    CLIMB   close
         6 000314   406000 401760                    pmme    nvectors=13

      162     7529    2              CALL M$CLOSE (CLOSE_LOOU);

   7529  6 000315   000250 630400 1                  EPPR0   CLOSE_LOOU
         6 000316   050001 713400                    CLIMB   close
         6 000317   406000 401760                    pmme    nvectors=13

      163     7530    2              END;

   7530  6 000320   000435 710000 6                  TRA     s:7569

      164     7531
      165     7532    1   CHECK_AMBIGIOUS_OUS: PROC;

   7532  6 000321   200034 741300       CHECK_AMBIG* STX1  ! MOD$+2,,AUTO

      166     7533
      167     7534    2           CALL M$REW (REW_LLMU);

   7534  6 000322   000110 630400 1                  EPPR0   REW_LLMU
         6 000323   040006 713400                    CLIMB   16390
         6 000324   400000 401760                    pmme    nvectors=1

      168     7535    2   NEXT_LLMU:
      169     7536    3           CALL M$READ (READ_LLMU) WHENALTRETURN DO;

   7536  6 000325   000130 630400 1     NEXT_LLMU    EPPR0   READ_LLMU
         6 000326   440000 713400                    CLIMB   alt,read
         6 000327   401400 401760                    pmme    nvectors=4
         6 000330   000332 702000 6                  TSX2    s:7537
         6 000331   000334 710000 6                  TRA     s:7540

      170     7537    3              RETURN;

PL6.E3A0      #001=VXO$LLMU File=VXO$LLMU.:E05TSI                                WED 07/30/97 08:26 Page:24
   7537  6 000332   200034 221300                    LDX1  ! MOD$+2,,AUTO
         6 000333   000001 702211                    TSX2  ! 1,X1

      171     7538    3              END;
      172     7539
      173     7540    2           CALL INDEX (I1,';',LLMU_BUF);

   7540  6 000334   000000 124400                    SCM     mask='000'O
         6 000335   000204 000127 1                  ADSC9   LLMU_BUF                 cn=0,n=87
         6 000336   000012 000001 7                  ADSC9   10                       cn=0,n=1
         6 000337   200023 000100                    ARG     I1,,AUTO

      174     7541    2           CALL INDEX (I2,' ',LLMU_BUF,I1+1);

   7541  6 000340   200023 720100                    LXL0    I1,,AUTO
         6 000341   777651 620010                    EAX0    -87,X0
         6 000342   777777 660003                    ERX0    -1,DU
         6 000343   200023 236100                    LDQ     I1,,AUTO
         6 000344   000001 036007                    ADLQ    1,DL
         6 000345   200023 235100                    LDA     I1,,AUTO
         6 000346   000000 124445                    SCM     mask='000'O
         6 000347   000204 200010 1                  ADSC9   LLMU_BUF,A               cn=1,n=*X0
         6 000350   000035 000001 xsym               ADSC9   B_VECTNIL+29             cn=0,n=1
         6 000351   200024 000100                    ARG     I2,,AUTO
         6 000352   200024 056100                    ASQ     I2,,AUTO

      175     7542    2           CALL INDEX (J2,' ',LLMU_BUF);

   7542  6 000353   000000 124400                    SCM     mask='000'O
         6 000354   000204 000127 1                  ADSC9   LLMU_BUF                 cn=0,n=87
         6 000355   000035 000001 xsym               ADSC9   B_VECTNIL+29             cn=0,n=1
         6 000356   200026 000100                    ARG     J2,,AUTO

      176     7543    2           LOOU_KEY=SUBSTR (LLMU_BUF,I1+1,I2-I1-1);

   7543  6 000357   200024 236100                    LDQ     I2,,AUTO
         6 000360   200023 136100                    SBLQ    I1,,AUTO
PL6.E3A0      #001=VXO$LLMU File=VXO$LLMU.:E05TSI                                WED 07/30/97 08:26 Page:25
         6 000361   777777 621006                    EAX1    -1,QL
         6 000362   040000 100445                    MLR     fill='040'O
         6 000363   000204 200011 1                  ADSC9   LLMU_BUF,A               cn=1,n=*X1
         6 000364   000330 000037 1                  ADSC9   LOOU_KEY                 cn=0,n=31

      177     7544    3           CALL M$READ (READ_LOOU) WHENRETURN DO;

   7544  6 000365   000232 630400 1                  EPPR0   READ_LOOU
         6 000366   440000 713400                    CLIMB   alt,read
         6 000367   401400 401760                    pmme    nvectors=4
         6 000370   000434 702000 6                  TSX2    s:7565

      178     7545    3              CALL INDEX (J1,' ',LOOU_BUF);

   7545  6 000371   000000 124400                    SCM     mask='000'O
         6 000372   000306 000107 1                  ADSC9   LOOU_BUF                 cn=0,n=71
         6 000373   000035 000001 xsym               ADSC9   B_VECTNIL+29             cn=0,n=1
         6 000374   200025 000100                    ARG     J1,,AUTO

      179     7546
      180     7547        /*E*  ERROR: VXO-E$AMBIGIOUS_ENTDEF_VX-0
      181     7548              MESSAGE: The ENTDEF %U1 was defined in the overlay in %U2,
      182     7549                       but a Library DEFinition (LDEF) also exists in %U3.
      183     7550                       The Library definition for %U1 was used. Others ignored.
      184     7551              DESCRIPTION: Self-explanatory.
      185     7552        */
      186     7553    3              VX_EFIELD1.COUNT = I2-I1-1;

   7553  6 000375   200024 236100                    LDQ     I2,,AUTO
         6 000376   200023 136100                    SBLQ    I1,,AUTO
         6 000377   000001 136007                    SBLQ    1,DL
         6 000400   000033 736000                    QLS     27
         6 000401   000000 552040 xsym               STBQ    VX_EFIELD1,'40'O

      187     7554    3              VX_EFIELD1.CHARS = SUBSTR(LLMU_BUF,I1+1,I2-I1-1);

   7554  6 000402   200024 236100                    LDQ     I2,,AUTO
PL6.E3A0      #001=VXO$LLMU File=VXO$LLMU.:E05TSI                                WED 07/30/97 08:26 Page:26
         6 000403   200023 136100                    SBLQ    I1,,AUTO
         6 000404   777777 620006                    EAX0    -1,QL
         6 000405   200023 235100                    LDA     I1,,AUTO
         6 000406   040000 100445                    MLR     fill='040'O
         6 000407   000204 200010 1                  ADSC9   LLMU_BUF,A               cn=1,n=*X0
         6 000410   000000 200117 xsym               ADSC9   VX_EFIELD1               cn=1,n=79

      188     7555    3              VX_EFIELD2.COUNT = J1;

   7555  6 000411   200025 236100                    LDQ     J1,,AUTO
         6 000412   000033 736000                    QLS     27
         6 000413   000000 552040 xsym               STBQ    VX_EFIELD2,'40'O

      189     7556    3              VX_EFIELD2.CHARS = SUBSTR(LOOU_BUF,0,J1);

   7556  6 000414   200025 720100                    LXL0    J1,,AUTO
         6 000415   040000 100440                    MLR     fill='040'O
         6 000416   000306 000010 1                  ADSC9   LOOU_BUF                 cn=0,n=*X0
         6 000417   000000 200117 xsym               ADSC9   VX_EFIELD2               cn=1,n=79

      190     7557    3              VX_EFIELD3.COUNT = J2;

   7557  6 000420   200026 236100                    LDQ     J2,,AUTO
         6 000421   000033 736000                    QLS     27
         6 000422   000000 552040 xsym               STBQ    VX_EFIELD3,'40'O

      191     7558    3              VX_EFIELD3.CHARS = SUBSTR(LLMU_BUF,0,J2);

   7558  6 000423   200026 721100                    LXL1    J2,,AUTO
         6 000424   040000 100440                    MLR     fill='040'O
         6 000425   000204 000011 1                  ADSC9   LLMU_BUF                 cn=0,n=*X1
         6 000426   000000 200117 xsym               ADSC9   VX_EFIELD3               cn=1,n=79

      192     7559                   %SCREAM (ERR#=E$AMBIGIOUS_ENTDEF_VX,LEVEL=@E$W_VX,MID="'O'");

   7560  6 000427   000040 630400 7                  EPPR0   32
         6 000430   000022 631400 xsym               EPPR1   B_VECTNIL+18
PL6.E3A0      #001=VXO$LLMU File=VXO$LLMU.:E05TSI                                WED 07/30/97 08:26 Page:27
         6 000431   000000 701000 xent               TSX1    VXE$ERROR
         6 000432   000000 011000                    NOP     0

      193     7562    3              END;

   7562  6 000433   000434 710000 6                  TRA     s:7565

      194     7563    3           WHENALTRETURN DO;

      195     7564    3              END; /* Dont do anything */

      196     7565    2           GOTO NEXT_LLMU;

   7565  6 000434   000325 710000 6                  TRA     NEXT_LLMU

      197     7566
      198     7567    2   END CHECK_AMBIGIOUS_OUS;
      199     7568
      200     7569    1   END VXO$LLMU;

   7569  6 000435   000000 702200 xent               TSX2  ! X66_ARET

PL6.E3A0      #001=VXO$LLMU File=VXO$LLMU.:E05TSI                                WED 07/30/97 08:26 Page:28
--  Include file information  --

   XUF_ENTRY.:E05TOU  cannot be made into a system file and is referenced.
   XU_FORMAT_C.:E05TOU  is referenced.
   VX_PERR_C.:E05TOU  is referenced.
   VX_MACRO_C.:E05TOU  is referenced.
   VX_DATA_R.:E05TOU  cannot be made into a system file and is referenced.
   CP_6.:E05TOU  cannot be made into a system file and is referenced.
   VX_SUBS_C.:E05TOU  is referenced.
   B$OBJECT_C.:E05TOU  is referenced.
   B$JIT_C.:E05TOU  was found in the system file and is never referenced.
   CP_6_C.:E05TOU  was found in the system file and is referenced.
      No diagnostics issued in procedure VXO$LLMU.
PL6.E3A0      #001=VXO$LLMU File=VXO$LLMU.:E05TSI                                WED 07/30/97 08:26 Page:29

 **** Variables and constants ****

  ****  Section 001  Data  VXO$LLMU

  ****  Scalars and arrays  ****
OctLoc.c.b A Datatyp(siz) R M Lvl/name                 OctLoc.c.b A Datatyp(siz) R M Lvl/name

   146-0-0/d STRC(1080)  r     1 CLOSE_LLMU               250-0-0/d STRC(1080)  r     1 CLOSE_LOOU
   116-0-0/d STRC(360)   r     1 DEL_LLMU                 340-0-0/w STRC(1080)  r     1 F_FDS
   204-0-0/c CHAR(87)    r     1 LLMU_BUF                  72-0-0/c STRC(72)    r     1 LLMU_FILE_NAME
   306-0-0/c CHAR(71)    r     1 LOOU_BUF                 330-0-0/c CHAR(31)    r     1 LOOU_KEY
   422-0-0/c CHAR(79)    r     1 MODULES_USED               0-0-0/d STRC(2088)  r     1 OPEN_LLMU
   376-0-0/c CHAR(80)    r     1 OUT_BUF                  130-0-0/d STRC(504)   r     1 READ_LLMU
   232-0-0/d STRC(504)   r     1 READ_LOOU                110-0-0/d STRC(216)   r     1 REW_LLMU
    74-0-0/d STRC(432)   r     1 WRITE_LLMU

  ****  Section 005 RoData VXO$LLMU

  ****  Scalars and arrays  ****
OctLoc.c.b A Datatyp(siz) R M Lvl/name                 OctLoc.c.b A Datatyp(siz) R M Lvl/name

    52-0-0/c CHAR        r     1 BLANK_LINE                 0-0-0/c CHAR(46)    r     1 MODULES_USED_HEADING
    14-0-0/c CHAR(59)    r     1 NODE_HEADING              33-0-0/c CHAR(59)    r     1 NODE_UNDERLINE

  ****  Auto variables  ****

  ****  Scalars and arrays  ****
OctLoc.c.b A Datatyp(siz) R M Lvl/name                 OctLoc.c.b A Datatyp(siz) R M Lvl/name

    27-0-0/b BIT         r     1 FOUND_MODULES             20-0-0/w UBIN        r     1 I
    23-0-0/w UBIN        r     1 I1                        24-0-0/w UBIN        r     1 I2
    25-0-0/w UBIN        r     1 J1                        26-0-0/w UBIN        r     1 J2
    15-0-0/w UBIN        r     1 LEN                        3-0-0/c CHAR(40)    r     1 LIB_NAME
    32-0-0/w PTR         r     1 MOD$                      30-0-0/w PTR         r     1 MOD1$
    31-0-0/w PTR         r     1 MOD2$                     17-0-0/w UBIN        r     1 MODULE
    16-0-0/w PTR         r     1 ND$                       22-0-0/w PTR         r     1 NODE1$
    21-0-0/w PTR         r     1 NODE2$
PL6.E3A0      #001=VXO$LLMU File=VXO$LLMU.:E05TSI                                WED 07/30/97 08:26 Page:30

  ****  SYMREF variables  ****

  ****  Scalars and arrays  ****
OctLoc.c.b A Datatyp(siz) R M Lvl/name                 OctLoc.c.b A Datatyp(siz) R M Lvl/name

     0-0-0/w STRC(720)   r     1 VX_EFIELD1                 0-0-0/w STRC(720)   r     1 VX_EFIELD2
     0-0-0/w STRC(720)   r     1 VX_EFIELD3                 0-0-0/b STRC(116)   r     1 VX_OD

  ****  BASED and DCB variables  ****

  ****  Scalars and arrays  ****
OctLoc.c.b A Datatyp(siz) R M Lvl/name                 OctLoc.c.b A Datatyp(siz) R M Lvl/name

     0-0-0/c ACHR        r     1 LLMU_REC                   0-0-0N  NULL        r     1 M$LLMU
     0-0-0N  NULL        r     1 M$LO                       0-0-0N  NULL        r     1 M$LOOU
     0-0-0/c CHAR(31)    r     1 MOD_NAME                   0-0-0/c CHAR(7)     r     1 NODE#
     0-0-0/c CHAR(7)     r     1 NODE_NUM


   Procedure VXO$LLMU requires 286 words for executable code.
   Procedure VXO$LLMU requires 38 words of local(AUTO) storage.

    No errors detected in file VXO$LLMU.:E05TSI    .
PL6.E3A0      #001=VXO$LLMU File=VXO$LLMU.:E05TSI                                WED 07/30/97 08:26 Page:31
          *** CROSS REFERENCE LISTING ***
**     DENOTES     IDENTIFIER DEFINITION
<<                 IDENTIFIER'S VALUE SET
>>                 IDENTIFIER'S VALUE USED
<>                 IDENTIFIER SET AND/OR USED
--                 IDENTIFIER REFERENCED
PL6.E3A0      #001=VXO$LLMU File=VXO$LLMU.:E05TSI                                WED 07/30/97 08:26 Page:32
          MINI XREF LISTING

BLANK_LINE
      7437**DCL      7474--CALL     7483--CALL     7485--CALL     7489--CALL
CHECK_AMBIGIOUS_OUS
      7532**PROC     7459--CALL
CLOSE_LLMU
      7196**DCL      7475<>CALL     7528<>CALL
CLOSE_LLMU.SN_
      7196**DCL      7196--REDEF
CLOSE_LLMU.UTL_
      7197**DCL      7197--REDEF
CLOSE_LLMU.V
      7201**DCL      7196--DCLINIT
CLOSE_LLMU.V.EXPIRE#
      7211**DCL      7211--REDEF
CLOSE_LLMU.V.TYPE#
      7209**DCL      7209--REDEF
CLOSE_LLMU.V.XTNSIZE#
      7206**DCL      7206--REDEF    7208--REDEF
CLOSE_LOOU
      7282**DCL      7476<>CALL     7529<>CALL
CLOSE_LOOU.SN_
      7282**DCL      7282--REDEF
CLOSE_LOOU.UTL_
      7283**DCL      7283--REDEF
CLOSE_LOOU.V
      7287**DCL      7282--DCLINIT
CLOSE_LOOU.V.EXPIRE#
      7297**DCL      7297--REDEF
CLOSE_LOOU.V.TYPE#
      7295**DCL      7295--REDEF
CLOSE_LOOU.V.XTNSIZE#
      7292**DCL      7292--REDEF    7294--REDEF
PL6.E3A0      #001=VXO$LLMU File=VXO$LLMU.:E05TSI                                WED 07/30/97 08:26 Page:33
DEL_LLMU
      7124**DCL      7495<>CALL     7515<>CALL
DEL_LLMU.V
      7127**DCL      7124--DCLINIT
EOF
      7521**LABEL    7500--CALLALT
FOUND_MODULES
      7453**DCL      7461<<ASSIGN   7473>>IF       7479<<ASSIGN
F_FDS
      7325**DCL      7474<>CALL     7483<>CALL     7484<>CALL     7485<>CALL     7487<>CALL     7488<>CALL
      7489<>CALL     7512<>CALL     7522<>CALL
I
      7446**DCL      7480<<CALLBLT  7481>>ASSIGN   7490>>CALLBLT  7491>>ASSIGN   7492>>ASSIGN   7501>>IF
      7501>>IF       7502>>CALLBLT
I1
      7449**DCL      7540<<CALLBLT  7541>>CALLBLT  7543>>ASSIGN   7543>>ASSIGN   7553>>ASSIGN   7554>>ASSIGN
      7554>>ASSIGN
I2
      7450**DCL      7541<<CALLBLT  7543>>ASSIGN   7553>>ASSIGN   7554>>ASSIGN
J1
      7451**DCL      7545<<CALLBLT  7555>>ASSIGN   7556>>ASSIGN
J2
      7452**DCL      7542<<CALLBLT  7557>>ASSIGN   7558>>ASSIGN
LEN
      7440**DCL      7441--IMP-SIZ  7481<<ASSIGN   7482>>ASSIGN   7490<<CALLBLT  7491<<ASSIGN   7491>>ASSIGN
      7493>>ASSIGN   7502<<CALLBLT  7504>>ASSIGN   7509>>ASSIGN
LIB_NAME
      7438**DCL      7482<<ASSIGN   7484--CALL     7501>>IF
LLMU_BUF
      7216**DCL      7083--DCLINIT  7084--DCLINIT  7151--DCLINIT  7152--DCLINIT  7466--ASSIGN   7480>>CALLBLT
      7482--ASSIGN   7490>>CALLBLT  7492--ASSIGN   7501>>IF       7502>>CALLBLT  7540>>CALLBLT  7541>>CALLBLT
      7542>>CALLBLT  7543>>ASSIGN   7554>>ASSIGN   7558>>ASSIGN
LLMU_FILE_NAME
      7061**DCL      6991--DCLINIT
LLMU_REC
      7441**DCL      7482>>ASSIGN   7493>>ASSIGN   7504>>ASSIGN   7509>>ASSIGN
PL6.E3A0      #001=VXO$LLMU File=VXO$LLMU.:E05TSI                                WED 07/30/97 08:26 Page:34
LOOU_BUF
      7303**DCL      7238--DCLINIT  7239--DCLINIT  7545>>CALLBLT  7556>>ASSIGN
LOOU_KEY
      7304**DCL      7236--DCLINIT  7237--DCLINIT  7543<<ASSIGN
M$CLOSE
      3666**DCL-ENT  7475--CALL     7476--CALL     7528--CALL     7529--CALL
M$DELREC
      3668**DCL-ENT  7495--CALL     7515--CALL
M$OPEN
      3666**DCL-ENT  7458--CALL
M$READ
      3667**DCL-ENT  7472--CALL     7500--CALL     7536--CALL     7544--CALL
M$REW
      3669**DCL-ENT  7471--CALL     7534--CALL
MOD$
      7456**DCL      7492<<ASSIGN   7493>>ASSIGN   7504>>ASSIGN   7509>>ASSIGN
MOD1$
      7454**DCL      7462<<ASSIGN   7493>>ASSIGN   7504>>ASSIGN
MOD2$
      7455**DCL      7463<<ASSIGN   7509>>ASSIGN
MODULE
      7445**DCL      7470<<ASSIGN   7496<<ASSIGN   7503>>IF       7506<<ASSIGN   7511<<ASSIGN   7521>>IF
MODULES_USED
      7430**DCL      7462--ASSIGN   7463--ASSIGN   7464--ASSIGN   7465--ASSIGN   7512--CALL     7513<<ASSIGN
      7522--CALL     7523<<ASSIGN
MODULES_USED_HEADING
      7431**DCL      7484--CALL
MOD_NAME
      7439**DCL      7493<<ASSIGN   7504<<ASSIGN   7509<<ASSIGN
ND$
      7444**DCL      7442--IMP-PTR  7466<<ASSIGN   7486>>IF       7494>>ASSIGN   7505>>ASSIGN   7510>>ASSIGN
NEXT_LLMU IN PROCEDURE CHECK_AMBIGIOUS_OUS
      7536**LABEL    7565--GOTO
NODE#
      7443**DCL      7494<<ASSIGN   7505<<ASSIGN   7510<<ASSIGN
NODE1$
PL6.E3A0      #001=VXO$LLMU File=VXO$LLMU.:E05TSI                                WED 07/30/97 08:26 Page:35
      7448**DCL      7464<<ASSIGN   7494>>ASSIGN   7505>>ASSIGN
NODE2$
      7447**DCL      7465<<ASSIGN   7510>>ASSIGN
NODE_HEADING
      7433**DCL      7487--CALL
NODE_NUM
      7442**DCL      7486>>IF       7494>>ASSIGN   7505>>ASSIGN   7510>>ASSIGN
NODE_UNDERLINE
      7435**DCL      7488--CALL
OPEN_LLMU
      6990**DCL      7458<>CALL
OPEN_LLMU.ACSVEH_
      6992**DCL      6993--REDEF
OPEN_LLMU.ALTKEYS_
      6998**DCL      6999--REDEF    6999--REDEF
OPEN_LLMU.HDR_
      6997**DCL      6998--REDEF
OPEN_LLMU.TAB_
      6996**DCL      6997--REDEF
OPEN_LLMU.UHL_
      6990**DCL      6991--REDEF    6991--REDEF
OPEN_LLMU.V
      6999**DCL      6990--DCLINIT
OPEN_LLMU.V.FSN#
      7030**DCL      7030--REDEF    7030--REDEF
OPEN_LLMU.WSN_
      6996**DCL      6996--REDEF
OUT_BUF
      7425**DCL      7343--DCLINIT  7345--DCLINIT
READ_LLMU
      7149**DCL      7472<>CALL     7500<>CALL     7536<>CALL
READ_LLMU.STATION_
      7152**DCL      7153--REDEF
READ_LLMU.V
      7153**DCL      7149--DCLINIT
READ_LLMU.V.DVBYTE.REREAD#
PL6.E3A0      #001=VXO$LLMU File=VXO$LLMU.:E05TSI                                WED 07/30/97 08:26 Page:36
      7164**DCL      7164--REDEF
READ_LLMU.V.INDX#
      7162**DCL      7162--REDEF
READ_LOOU
      7236**DCL      7544<>CALL
READ_LOOU.STATION_
      7239**DCL      7240--REDEF
READ_LOOU.V
      7240**DCL      7236--DCLINIT
READ_LOOU.V.DVBYTE.REREAD#
      7251**DCL      7251--REDEF
READ_LOOU.V.INDX#
      7249**DCL      7249--REDEF
READ_NEXT
      7500**LABEL    7517--GOTO
REW_LLMU
      7108**DCL      7471<>CALL     7534<>CALL
REW_LLMU.V
      7108**DCL      7108--DCLINIT
START
      7470**LABEL    7525--GOTO
VXE$ERROR
      7428**DCL-ENT  7560--CALL
VX_BIAS.A
      4401**DCL      4402--REDEF
VX_CBUF.CHARS_A
      4335**DCL      4336--REDEF
VX_EBUF.CHARS_A
      4924**DCL      4925--REDEF
VX_EFIELD1.CHARS
      4933**DCL      4934--REDEF    7554<<ASSIGN
VX_EFIELD1.COUNT
      4932**DCL      7553<<ASSIGN
VX_EFIELD2.CHARS
      4937**DCL      4938--REDEF    7556<<ASSIGN
VX_EFIELD2.COUNT
PL6.E3A0      #001=VXO$LLMU File=VXO$LLMU.:E05TSI                                WED 07/30/97 08:26 Page:37
      4936**DCL      7555<<ASSIGN
VX_EFIELD3.CHARS
      4941**DCL      4942--REDEF    7558<<ASSIGN
VX_EFIELD3.COUNT
      4940**DCL      7557<<ASSIGN
VX_EI_KEY_BUF.KEY
      5317**DCL      5318--REDEF
VX_ERRORS
      4378**DCL      4389--REDEF
VX_ERRORS.CONFLICT_A
      4384**DCL      4385--REDEF
VX_ERRORS.UNSAT_A
      4380**DCL      4381--REDEF
VX_O.ACCTN_A$
      4530**DCL      4531--REDEF
VX_O.DCB_MATCH_A$
      4539**DCL      4540--REDEF
VX_O.DCB_MATCH_HIT_A
      4545**DCL      4546--REDEF
VX_O.FIDN_A$
      4524**DCL      4525--REDEF
VX_O.FID_A$
      4516**DCL      4517--REDEF
VX_O.INCLUDE_A$
      4536**DCL      4537--REDEF
VX_O.MAP_A
      4510**DCL      4511--REDEF
VX_O.NODCB_A
      4567**DCL      4568--REDEF
VX_O.NUM_A
      4455**DCL      4457--REDEF
VX_O.OPT_A
      4555**DCL      4556--REDEF
VX_O.PRIV_A
      4471**DCL      4473--REDEF
VX_O.SIN_A
PL6.E3A0      #001=VXO$LLMU File=VXO$LLMU.:E05TSI                                WED 07/30/97 08:26 Page:38
      4424**DCL      4425--REDEF
VX_O.TCB_A
      4551**DCL      4552--REDEF
VX_OD.ACCTN_A$
      4728**DCL      4729--REDEF
VX_OD.DCB_MATCH_A$
      4737**DCL      4738--REDEF
VX_OD.FIDN_A$
      4722**DCL      4723--REDEF
VX_OD.FID_A$
      4714**DCL      4715--REDEF
VX_OD.INCLUDE_A$
      4734**DCL      4735--REDEF
VX_OD.MAP_A
      4708**DCL      4709--REDEF
VX_OD.NODCB_A
      4752**DCL      4753--REDEF
VX_OD.NUM_A
      4655**DCL      4656--REDEF
VX_OD.PRIV_A
      4670**DCL      4671--REDEF
VX_OD.SIN.LLMU
      4650**DCL      7460>>IF
VX_OD.SIN.NWARN
      4653**DCL      7459>>IF
VX_OD.SIN_A
      4624**DCL      4625--REDEF
VX_OD.VECTOR_A$
      4743**DCL      4744--REDEF
VX_OL.MAX_A
      4599**DCL      4601--REDEF
VX_OL.MIN_A
      4584**DCL      4585--REDEF
VX_ON.ACCTN_A$
      4873**DCL      4875--REDEF
VX_ON.DCB_MATCH_A$
PL6.E3A0      #001=VXO$LLMU File=VXO$LLMU.:E05TSI                                WED 07/30/97 08:26 Page:39
      4884**DCL      4886--REDEF
VX_ON.FIDN_A$
      4866**DCL      4868--REDEF
VX_ON.FID_A$
      4857**DCL      4859--REDEF
VX_ON.INCLUDE_A$
      4880**DCL      4882--REDEF
VX_ON.MAP_A
      4850**DCL      4852--REDEF
VX_ON.NODCB_A$
      4900**DCL      4901--REDEF
VX_ON.NUM_A
      4795**DCL      4797--REDEF
VX_ON.PRIV_A
      4811**DCL      4813--REDEF
VX_ON.SIN_A
      4763**DCL      4765--REDEF
VX_ON.VECTOR_A$
      4891**DCL      4892--REDEF
VX_OUHEAD.VERSION
      4210**DCL      4212--REDEF
VX_OU_HEAD
      4153**DCL      4192--REDEF
VX_OU_HEAD.REC_A
      4165**DCL      4168--REDEF
VX_PASS2_REF.OU.L_START
      5103**DCL      5108--REDEF
VX_PASS2_REF.OU.L_STOP
      5109**DCL      5114--REDEF
VX_PASS2_REF.OU.MAX
      5097**DCL      5102--REDEF
VX_PASS2_REF.OU.SIZE
      5115**DCL      5120--REDEF
VX_PASS2_REF.SAT.COUNT
      5142**DCL      5148--REDEF
VX_PASS2_REF.SAT.ENT_SIZE
PL6.E3A0      #001=VXO$LLMU File=VXO$LLMU.:E05TSI                                WED 07/30/97 08:26 Page:40
      5149**DCL      5155--REDEF
VX_PASS2_REF.SAT.L_START
      5128**DCL      5134--REDEF
VX_PASS2_REF.SAT.L_STOP
      5135**DCL      5141--REDEF
VX_PASS2_REF.SAT.MAX
      5122**DCL      5127--REDEF
VX_PASS2_REF.UNSAT.L_START
      5190**DCL      5195--REDEF
VX_PASS2_REF.UNSAT.L_STOP
      5196**DCL      5201--REDEF
VX_PASS2_REF.UNSAT.L_WHERE
      5202**DCL      5207--REDEF
VX_PASS2_REF.UNSAT.MAX
      5184**DCL      5189--REDEF
VX_PASS2_REF.UNSAT.PAGE#
      5214**DCL      5219--REDEF
VX_PASS2_REF.UNSAT.SIZE
      5208**DCL      5213--REDEF
VX_PHRASE.PHRASE
      4616**DCL      4618--REDEF
VX_PROGRAM_BIAS.A
      4394**DCL      4395--REDEF
VX_SPC.B$.MINE
      5285**DCL      5291--REDEF
VX_SPC.B$.NAME
      5264**DCL      5270--REDEF
VX_SPC.B$.SKIP
      5278**DCL      5284--REDEF
VX_SPC.B$.VALUE
      5271**DCL      5277--REDEF
VX_SPC.SEG.NAME
      5233**DCL      5239--REDEF
VX_SPC.SEG.VALUE
      5240**DCL      5246--REDEF
VX_TSX0_OVERLAY.H
PL6.E3A0      #001=VXO$LLMU File=VXO$LLMU.:E05TSI                                WED 07/30/97 08:26 Page:41
      5008**DCL      5011--REDEF
WRITE_LLMU.STATION_
      7084**DCL      7084--REDEF
WRITE_LLMU.V
      7085**DCL      7082--DCLINIT
WRITE_LLMU.V.DVBYTE.VFC#
      7091**DCL      7091--REDEF
X$WRITE
      6916**DCL-ENT  7474--CALL     7483--CALL     7484--CALL     7485--CALL     7487--CALL     7488--CALL
      7489--CALL     7512--CALL     7522--CALL
