PL6.E3A0      #002=VXO$COMPACT File=VXO$OBJECT.:E05TSI                           WED 07/30/97 08:27 Page:149
      626        1        /*T***********************************************************/
      627        2        /*T*                                                         */
      628        3        /*T* Copyright (c) Bull HN Information Systems Inc., 1997    */
      629        4        /*T*                                                         */
      630        5        /*T***********************************************************/
      631        6        /*X* DMR,PLM=6,IND=4,CSU=2,EXM=0,ECU=2,MOC,DCI=4,CRT=4,CCE,AIC,CTI=8 */
      632        7        /*M* VXO$COMPACT - compacts the externally referenced names and entrefs
      633        8                           for the current node.       */
      634        9
      635       10        VXO$COMPACT: PROC;
      636       11
      637       12        %INCLUDE VX_INC_C;
      638    10728        %VX$NODE;

             10740    1   /*******************************************************************************
             10741    1   *                                                                              *
             10742    1   *                          VX$NODE                                                 *
             10743    1   *                                                                              *
             10744    1   *******************************************************************************/

             10760    1   DCL 1 VX$NODE      ALIGNED    BASED,
             10761    1         2 SON$ PTR /*(ADDR(NIL))*/, /* Son pointer                      */
             10762    1         2 BROTHER$ PTR /*(ADDR(NIL))*/, /* Brother pointer              */
             10763    1         2 FATHER$ PTR /*(ADDR(NIL))*/, /* Father pointer                */
             10764    1         2 PATH$ PTR /*(ADDR(NIL))*/, /* Path   pointer                  */
             10765    1         2 HEAD$       PTR /*(ADDR(NIL))*/, /* Head pointer to
             10766                              to list of file nodes for this node            */
             10767    1         2 TAIL$ PTR /*(ADDR(NIL))*/, /* Tail pointer to list            */
             10768    1         2 SHARED_LIB_HEAD$ PTR /*(ADDR(NIL))*/,
             10768                  /* Head pointer to shared library list */
             10769    1         2 LIB_HEAD$         PTR /*(ADDR(NIL))*/,
             10769                  /* Head pointer to list of shared libraries
             10770                                          which have been mapped to included libraries */
             10771    1         2 NUM          UBIN(36)  UNAL,    /* Node number                        */
             10772    1         2 DEPTH          UBIN(36)  UNAL,  /* Depth; ROOT=0*/
             10773    1         2 ADDR_START_A(0:2/*@ROS*/) SBIN WORD /*(0*3)*/, /* Array            */
             10774    1         2 ADDR_START REDEF  ADDR_START_A,
PL6.E3A0      #002=VXO$COMPACT File=VXO$OBJECT.:E05TSI                           WED 07/30/97 08:27 Page:150
             10775    1           3 RDATA       SBIN WORD,   /* First address for this node in data     */
             10776    1           3 RPROC       SBIN WORD,   /* First address for this node in proc     */
             10777    1           3 ROS       SBIN WORD,          /* Last address for program in ros    */
             10778    1         2 ADDR_STOP_A(0:2/*@ROS*/) SBIN WORD /*(-1*3)*/, /* Array            */
             10779    1         2 ADDR_STOP  REDEF  ADDR_STOP_A,
             10780    1           3 RDATA       SBIN WORD,        /* Last address for this node in data */
             10781    1           3 RPROC       SBIN WORD,        /* Last address for this node in proc */
             10782    1           3 ROS       SBIN WORD,          /* Last address for program in ros    */
             10783    1         2 START_PAGE#_A(0:2/*@ROS*/) SBIN WORD /*(0*3)*/, /* Array           */
             10784    1         2 START_PAGE# REDEF START_PAGE#_A,
             10785    1           3 RDATA       SBIN WORD,   /* First page    for this node in data     */
             10786    1           3 RPROC       SBIN WORD,   /* First page    for this node in proc     */
             10787    1           3 ROS       SBIN WORD,          /* First page   for program in ros    */
             10788    1         2 STOP_PAGE#_A(0:2/*@ROS*/) SBIN WORD /*(-1*3)*/, /* Array*/
             10789    1         2 STOP_PAGE#  REDEF STOP_PAGE#_A,
             10790    1           3 RDATA       SBIN WORD,   /* Last  page    for this node in data     */
             10791    1           3 RPROC       SBIN WORD,   /* Last  page    for this node in proc     */
             10792    1           3 ROS       SBIN WORD,          /* Last  page   for program in ros    */
             10793    1         2 START_SC_ALL$ PTR /*(ADDR(NIL))*/,
             10793                  /* Starting pointer for common sections for this node */
             10794    1         2 STOP_SC_ALL$ PTR /*(ADDR(NIL))*/,
             10794                  /* Stopping pointer for common sections for this node */
             10795    1         2 L_START,
             10796    1           3 SN$ PTR /*(ADDR(NIL))*/, /* Segment definition names        */
             10797    1           3 DN$ PTR /*(ADDR(NIL))*/, /* Def names                       */
             10798    1           3 RN$ PTR /*(ADDR(NIL))*/, /* Ref names                       */
             10799    1           3 SC$ PTR /*(ADDR(NIL))*/, /* Sections                        */
             10800    1           3 ED$ PTR /*(ADDR(NIL))*/, /* Entry defs*/
             10801    1           3 ER$ PTR /*(ADDR(NIL))*/, /* Entry refs*/
             10802    1           3 DD$ PTR /*(ADDR(NIL))*/, /* Data defs                       */
             10803    1           3 DR$ PTR /*(ADDR(NIL))*/, /* Data refs                       */
             10804    1           3 SD$ PTR /*(ADDR(NIL))*/, /* Seg defs                        */
             10805    1           3 SR$ PTR /*(ADDR(NIL))*/, /* Seg refs                        */
             10806    1         2 L_START_A$(0:9)     REDEF L_START PTR,
             10807    1         2 L_STOP,
             10808    1           3 SN$ PTR /*(ADDR(NIL))*/, /* Segment definition names        */
             10809    1           3 DN$ PTR /*(ADDR(NIL))*/, /* Def names                       */
PL6.E3A0      #002=VXO$COMPACT File=VXO$OBJECT.:E05TSI                           WED 07/30/97 08:27 Page:151
             10810    1           3 RN$ PTR /*(ADDR(NIL))*/, /* Ref names                       */
             10811    1           3 SC$ PTR /*(ADDR(NIL))*/, /* Sections                        */
             10812    1           3 ED$ PTR /*(ADDR(NIL))*/, /* Entry defs*/
             10813    1           3 ER$ PTR /*(ADDR(NIL))*/, /* Entry refs*/
             10814    1           3 DD$ PTR /*(ADDR(NIL))*/, /* Data defs                       */
             10815    1           3 DR$ PTR /*(ADDR(NIL))*/, /* Data refs                       */
             10816    1           3 SD$ PTR /*(ADDR(NIL))*/, /* Seg defs                        */
             10817    1           3 SR$ PTR /*(ADDR(NIL))*/, /* Seg refs                        */
             10818    1         2 L_STOP_A$(0:9) REDEF   L_STOP    PTR,
             10819    1         2 L_SIZE,
             10820    1           3 SN      UBIN /*(0)*/, /* Segment definition names           */
             10821    1           3 DN      UBIN /*(0)*/, /* Def names                          */
             10822    1           3 RN      UBIN /*(0)*/, /* Ref names                          */
             10823    1           3 SC      UBIN /*(0)*/, /* Sections                           */
             10824    1           3 ED      UBIN /*(0)*/, /* Entry defs*/
             10825    1           3 ER      UBIN /*(0)*/, /* Entry refs*/
             10826    1           3 DD      UBIN /*(0)*/, /* Data defs                          */
             10827    1           3 DR      UBIN /*(0)*/, /* Data refs                          */
             10828    1           3 SD      UBIN /*(0)*/, /* Seg defs                           */
             10829    1           3 SR      UBIN /*(0)*/, /* Seg refs                           */
             10830    1         2 L_SIZE_A(0:9)  REDEF   L_SIZE    UBIN,
             10831    1         2 L_PREV_SIZE,
             10832    1           3 SN      UBIN /*(0)*/, /* Segment definition names           */
             10833    1           3 DN      UBIN /*(0)*/, /* Def names                          */
             10834    1           3 RN      UBIN /*(0)*/, /* Ref names                          */
             10835    1           3 SC      UBIN /*(0)*/, /* Sections                           */
             10836    1           3 ED      UBIN /*(0)*/, /* Entry defs*/
             10837    1           3 ER      UBIN /*(0)*/, /* Entry refs*/
             10838    1           3 DD      UBIN /*(0)*/, /* Data defs                          */
             10839    1           3 DR      UBIN /*(0)*/, /* Data refs                          */
             10840    1           3 SD      UBIN /*(0)*/, /* Seg defs                           */
             10841    1           3 SR      UBIN /*(0)*/, /* Seg refs                           */
             10842    1         2 L_PREV_SIZE_A(0:9)  REDEF   L_PREV_SIZE    UBIN,
             10843    1         2 BIT_MAP                ALIGNED,
             10844    1           3 DATA                  ALIGNED,
             10845    1             4 BITS(0:255)          BIT(1)    UNAL /*('0'B*256)*/,
             10846    1           3 RPROC                 ALIGNED,
PL6.E3A0      #002=VXO$COMPACT File=VXO$OBJECT.:E05TSI                           WED 07/30/97 08:27 Page:152
             10847    1             4 BITS(0:255)          BIT(1)    UNAL /*('0'B*256)*/,
             10848    1           3 ROS                   ALIGNED,
             10849    1             4 BITS(0:255)          BIT(1)    UNAL /*('0'B*256)*/,
             10850    1         2 L_SC_START,
             10851    1           3 SC_BLK_COM$ PTR /*(ADDR(NIL))*/, /* Blank common            */
             10852    1           3 SC_ROOT_LBL_COM$ PTR /*(ADDR(NIL))*/, /* Root labelled common */
             10853    1           3 SC_LBL_COM$ PTR /*(ADDR(NIL))*/, /* Labelled common         */
             10854    1           3 SC_DCB$ PTR /*(ADDR(NIL))*/, /* Dcbs                        */
             10855    1         2 L_SC_START_A$(0:3)  REDEF L_SC_START PTR,
             10856    1         2 L_SC_STOP,
             10857    1           3 SC_BLK_COM$ PTR /*(ADDR(NIL))*/, /* Blank common            */
             10858    1           3 SC_ROOT_LBL_COM$ PTR /*(ADDR(NIL))*/, /* Root labelled common */
             10859    1           3 SC_LBL_COM$ PTR /*(ADDR(NIL))*/, /* Labelled common         */
             10860    1           3 SC_DCB$ PTR /*(ADDR(NIL))*/, /* Dcbs                        */
             10861    1         2 L_SC_STOP_A$(0:3)   REDEF L_SC_STOP  PTR,
             10862    1         2 PROMOTE_HEAD,
             10863    1           3 BLK_COM$              PTR /*(ADDR(NIL))*/,
             10864    1           3 LBL_COM$              PTR /*(ADDR(NIL))*/,
             10865    1         2 PROMOTE_HEAD_A$(0:1) REDEF PROMOTE_HEAD     PTR,
             10866    1         2 PROMOTE_TAIL,
             10867    1           3 BLK_COM$              PTR /*(ADDR(NIL))*/,
             10868    1           3 LBL_COM$              PTR /*(ADDR(NIL))*/,
             10869    1         2 PROMOTE_TAIL_A$(0:1) REDEF PROMOTE_TAIL     PTR,
             10870    1         2 HAVE_ASL          BIT(1)    UNAL /*('0'B)*/,
             10871    1         2 ALL_BLK_COM          BIT(1)    UNAL /*('0'B)*/,
             10872    1         2 USE_NODE          BIT(1)    UNAL /*('0'B)*/,
             10873    1         2 *                 BIT(33)   UNAL /*('0'B)*/,
             10874    1         2 BLANK_COMMON$     PTR       ALIGNED /*(ADDR(NIL))*/;

      639    10878        %SET LISTMAC='1'B;
      640    10879        %SET LISTSUB='1'B;
      641    10880        %SET LISTEXP='1'B;
      642    10881        %SET LISTDIR='0'B;

             10890    1   /*******************************************************************************
             10891    1   *                                                                              *
             10892    1   *                          B$EDEF                                                 *
PL6.E3A0      #002=VXO$COMPACT File=VXO$OBJECT.:E05TSI                           WED 07/30/97 08:27 Page:153
             10893    1   *                                                                              *
             10894    1   *******************************************************************************/

             10899    1   DCL 1 B$EDEF BASED ALIGNED,
             10900    1         2 LFLAGS UNAL,
             10901                /*K*  LFLAGS is the field reserved for loader to flag load
             10902                      time attributes of the definition and must be zero
             10903                      in the object unit. */
             10904    1           3 SOURCE UBIN(3) UNAL,
             10905                  /*K*  SOURCE - Source of this ENTDEF */
             10906    1           3 DEFINED BIT(1)  UNAL,
             10907                  /*K*  DEFINED - Set if this ENTDEF defined */
             10908    1           3 MULTIPLE BIT(1) UNAL,
             10909                  /*K*  MULTIPLE - Set if this ENTDEF is multiply defined. */
             10910    1           3 USED BIT(1) UNAL,
             10911                  /*K*  USED - Set if this ENTDEF is used. */
             10912    1           3 * BIT(2) UNAL,
             10913                  /*K*  * - Unused and must be zero. */
             10914    1           3 FAULTAGS BIT(1) UNAL,
             10915                  /*K*  FAULTAGS - Internal calls fault tags flag. */
             10916    1         2 OU UNAL,
             10917    1           3 SECTNUM UBIN BYTE UNAL,
             10918                  /*K*  SECTNUM contains an entry number into the section
             10919                        table (TYPE 3).  */
             10920    1           3 OFFSET UBIN HALF UNAL,
             10921                  /*K*  OFFSET is the word offset from the origin of the section. */
             10922    1         2 ISADDR REDEF OU UBIN(27) UNAL,
             10923                /*K*  ISADDR - Is Address (RU)  */
             10924    1         2 NPOINTER SBIN HALF UNAL,
             10925                /*K*  NPOINTER is a word displacement into the name record
             10926                      (TYPE 1) locating the name (of this entry). */
             10927    1         2 PRI BIT(1) UNAL,
             10928                /*K*  PRI is a one-bit flag denoting primary entry
             10929                      definition.
             10930                         PRI = 1, primary name (object unit name)
             10931                             = 0, not primary name                 */
             10932    1         2 ALT BIT(1) UNAL,
PL6.E3A0      #002=VXO$COMPACT File=VXO$OBJECT.:E05TSI                           WED 07/30/97 08:27 Page:154
             10933                /*K*  ALT is a one-bit flag denoting permissible alternate
             10934                      return.
             10935                         ALT = 1, alternate return allowed
             10936                             = 0, alternate return not allowed        */
             10937    1         2 CHECK BIT(1) UNAL,
             10938                /*K*  CHECK is a one-bit flag denoting arguments/parameter
             10939                      check and alternate return specification check.
             10940                         CHECK = 0, do not check for matching
             10941                                    arguments/parameters and alternate
             10942                                    return specification check.
             10943                               = 1, check for matching arguments/parameters
             10944                                    and alternate return specification.  */
             10945    1         2 CST UBIN(4) UNAL,
             10946                /*K*  CST is a 4-bit field denoting calling sequence type.
             10947                         CST =  0, Standard CP-6 Callable Procedure
             10948                         CST =  1, Nonstandard Call Type
             10949                         CST =  2, Standard CP-6 Procedure with MAIN attribute
             10950                         CST =  3, Standard CP-6 Procedure with ASYNC attribute
             10951                         CST =  4, Standard CP-6 Function Procedure; a
             10952                                   variable table entry will be present to
             10953                                   define the attributes of the function
             10954                         CST =  5, Same as 0, except USE, AVOID, or
             10955                                   MATERIALIZE attributes specified
             10956                         CST =  7, Same as 2, except USE, AVOID, or
             10957                                   MATERIALIZE attributes specified
             10958                         CST =  8, Same as 3, except USE, AVOID, or
             10959                                   MATERIALIZE attributes specified
             10960                         CST =  9, Same as 4, except USE, AVOID, or
             10961                                   MATERIALIZE attributes specified
             10962                         CST = 13, GCOS domain, save
             10963                         CST = 14, GCOS domain, no save
             10964                         CST = 15, Non-Callable Procedure.          */
             10965    1         2 NPARAM UBIN(11) UNAL;
             10966                /*K*  NPARAM is an 11-bit field denoting number of parameters. */

             10976    1   /*******************************************************************************
             10977    1   *                                                                              *
PL6.E3A0      #002=VXO$COMPACT File=VXO$OBJECT.:E05TSI                           WED 07/30/97 08:27 Page:155
             10978    1   *                          B$EREF                                                 *
             10979    1   *                                                                              *
             10980    1   *******************************************************************************/

             10985    1   DCL 1 B$EREF BASED ALIGNED,
             10986    1         2 NPOINTER SBIN HALF UNAL,
             10987                /*K*  NPOINTER is the word displacement into the record
             10988                      of REF names (TYPE 2) locating the ENTREF name.   */
             10989    1         2 SREF BIT(1),
             10990                /*K*  SREF indicates that the reference is a secondary
             10991                      reference and should not cause loading of a library routine. */
             10992    1         2 ALT BIT(1),
             10993                /*K*  ALT is a one-bit flag denoting permissible alternate return.
             10994                         ALT = 1, alternate return allowed
             10995                             = 0, alternate return not allowed    */
             10996    1         2 CHECK BIT(1),
             10997                /*K*  CHECK is a one-bit flag denoting arguments/parameter check
             10998                      and alternate return specification check.
             10999                         CHECK = 0, do not check for matching
             11000                                    arguments/parameters and
             11001                                    alternate return specification.
             11002                               = 1, check for matching arguments/parameters
             11003                                    and alternate return specification.  */
             11004    1         2 CST UBIN(4) UNAL,
             11005                /*K*  CST is a 4-bit field denoting calling sequence type.
             11006                         CST =  0, Standard CP-6 Callable Procedure.
             11007                         CST =  1, Nonstandard Call Type.
             11008                         CST =  2, Standard CP-6 Procedure with MAIN attribute
             11009                         CST =  3, Standard CP-6 Procedure with ASYNC attribute
             11010                         CST =  4, Standard CP-6 Function Procedure; a
             11011                                   variable table entry will be present to
             11012                                   define the attributes of the function.
             11013                         CST =  5, Same as 0, except USE, AVOID, or
             11014                                   MATERIALIZE attributes specified.
             11015                         CST =  7, Same as 2, except USE, AVOID, or
             11016                                   MATERIALIZE attributes specified.
             11017                         CST =  8, Same as 3, except USE, AVOID, or
PL6.E3A0      #002=VXO$COMPACT File=VXO$OBJECT.:E05TSI                           WED 07/30/97 08:27 Page:156
             11018                                   MATERIALIZE attributes specified.
             11019                         CST =  9, Same as 4, except USE, AVOID, or
             11020                                   MATERIALIZE attributes specified.
             11021                         CST = 13, GCOS domain, save
             11022                         CST = 14, GCOS domain, no save
             11023                         CST = 15, Non-Callable Procedure.       */
             11024    1         2 NPARAM UBIN(11) UNAL;
             11025                /*K*  NPARAM is an 11-bit field denoting number of parameters. */

             11035    1   /*******************************************************************************
             11036    1   *                                                                              *
             11037    1   *                          SUBS                                                 *
             11038    1   *                                                                              *
             11039    1   *******************************************************************************/


             11098    1   /*******************************************************************************
             11099    1   *                                                                              *
             11100    1   *                          TMPLT                                                 *
             11101    1   *                                                                              *
             11102    1   *******************************************************************************/

             11107    1   DCL 1 VX$TMPLT           ALIGNED BASED, /* Template for defs                  */
             11108    1         2 A(0:3)       UBIN(18)  UNAL,    /* Array access                       */
             11109    1         2 A_SBIN(0:3) REDEF A    SBIN HALF UNAL,
             11110    1         2 W       REDEF     A,            /* By name                            */
             11111    1           3 WORD0       UBIN(36)  UNAL,   /* First word                         */
             11112    1           3 WORD1       UBIN(36)  UNAL;   /* Second word                        */

             11123    1   /*******************************************************************************
             11124    1   *                                                                              *
             11125    1   *                          ENTRY                                                 *
             11126    1   *                                                                              *
             11127    1   *******************************************************************************/

      652    11131    1   DCL  VXA$GET    ENTRY( 3 );
      653    11132    1   DCL  VXF$FREE   ENTRY( 3 );
PL6.E3A0      #002=VXO$COMPACT File=VXO$OBJECT.:E05TSI                           WED 07/30/97 08:27 Page:157
      654    11133    1   DCL  VXQ$SORT   ENTRY( 7 );

             11142    1   /*******************************************************************************
             11143    1   *                                                                              *
             11144    1   *                          PTR                                                 *
             11145    1   *                                                                              *
             11146    1   *******************************************************************************/

             11151    1   DCL P$         PTR       ALIGNED AUTO;
             11152    1   DCL Q$         PTR       ALIGNED AUTO;
             11153    1   DCL R$         PTR       ALIGNED AUTO;
      657    11155    1   DCL ALL$            PTR  ALIGNED   AUTO;
      658    11156    1   DCL CURR$           PTR  ALIGNED   AUTO;
      659    11157    1   DCL PREV$           PTR  ALIGNED   AUTO;
      660    11158    1   DCL WHERE$          PTR  ALIGNED   AUTO;
      661    11159    1   DCL START$          PTR  ALIGNED   AUTO;
      662    11160    1   DCL TAIL$           PTR  ALIGNED   AUTO;
      663    11161    1   DCL MAKE$           PTR  ALIGNED   AUTO;
      664    11162    1   DCL ED_START$           PTR  ALIGNED   AUTO;
      665    11163    1   DCL RN_START$           PTR  ALIGNED   AUTO;
      666    11164    1   DCL ER_START$           PTR  ALIGNED   AUTO;
      667    11165    1   DCL TEMP_ER_START$           PTR  ALIGNED   AUTO;
      668    11166    1   DCL TEMP_RN_START$           PTR  ALIGNED   AUTO;
      669    11167    1   DCL ED_STOP$           PTR  ALIGNED   AUTO;
      670    11168    1   DCL ER_STOP$           PTR  ALIGNED   AUTO;
      671    11169    1   DCL TEMP_ER_STOP$           PTR  ALIGNED   AUTO;
      672    11170    1   DCL TEMP_RN_STOP$           PTR  ALIGNED   AUTO;
      673    11171    1   DCL CURR_ER_START$          PTR  ALIGNED   AUTO;

             11180    1   /*******************************************************************************
             11181    1   *                                                                              *
             11182    1   *                          UBIN                                                 *
             11183    1   *                                                                              *
             11184    1   *******************************************************************************/

             11189    1   DCL I          UBIN(36) ALIGNED AUTO;
             11190    1   DCL SI REDEF I SBIN WORD ALIGNED;
PL6.E3A0      #002=VXO$COMPACT File=VXO$OBJECT.:E05TSI                           WED 07/30/97 08:27 Page:158
             11191    1   DCL J          UBIN(36) ALIGNED AUTO;
             11192    1   DCL SJ REDEF J SBIN WORD ALIGNED;
             11193    1   DCL K          UBIN(36) ALIGNED AUTO;
             11194    1   DCL SK REDEF K SBIN WORD ALIGNED;
             11195    1   DCL L          UBIN(36) ALIGNED AUTO;
             11196    1   DCL SL REDEF L    SBIN WORD ALIGNED;
      676    11198    1   DCL REC_TYPE        UBIN(36)  ALIGNED   AUTO;
      677    11199    1   DCL ALL_TYPE        UBIN(36)  ALIGNED   AUTO;
      678    11200    1   DCL HEAD_INX        UBIN(36)  ALIGNED   AUTO;
      679    11201    1   DCL TSIZE           UBIN(36)  ALIGNED   AUTO;
      680    11202    1   DCL PAGE            UBIN(36)  ALIGNED   AUTO;
      681    11203    1   DCL GET             UBIN(36)  ALIGNED   AUTO;
      682    11204    1   DCL HALVE           UBIN(36)  ALIGNED   AUTO;
      683    11205    1   DCL NPAGE           UBIN(36)  ALIGNED   AUTO;
      684    11206    1   DCL TSIZE_READ      UBIN(36)  ALIGNED   AUTO;
      685    11207    1   DCL SC_TYPE         UBIN(36)  ALIGNED   AUTO;
      686    11208    1   DCL INDX            UBIN(36)  ALIGNED   AUTO;
      687    11209    1   DCL LAST_DISP       UBIN(36)  ALIGNED   AUTO;
      688    11210    1   DCL ED_SIZE         UBIN(36)  ALIGNED   AUTO;
      689    11211    1   DCL ER_SIZE         UBIN(36)  ALIGNED   AUTO;
      690    11212    1   DCL TEMP_ER_SIZE    UBIN(36)  ALIGNED   AUTO;
      691    11213    1   DCL TEMP_RN_SIZE    UBIN(36)  ALIGNED   AUTO;
      692    11214    1   DCL RN_FREE    UBIN(36)  ALIGNED   AUTO;
             11216    1   DCL 1 F$NAME_                 BASED,
             11217    1         2 COUNT             UBIN( 9) UNAL,
             11218    1         2 CHARS             CHAR( F$NAME_.COUNT ) UNAL;
             11219    1   DCL F$ACCT_         CHAR(8/*@F_ACCT_SIZEC*/) BASED;
             11220    1   DCL F$ACCT_A(0:7/*@F_ACCT_SIZEC1*/)     CHAR(1)   BASED;
             11221    1   DCL F$PASS_         CHAR(8/*@F_PASS_SIZEC*/) BASED;
             11222    1   DCL F$PASS_A(0:7/*@F_PASS_SIZEC1*/)     CHAR(1)   BASED;
      694    11224        /**/
      695    11225        /**/
      696    11226        /**/
             11235    1   DCL 1 B$DNAME BASED ALIGNED,
             11236    1         2 COUNT UBIN HALF UNAL /*(SIZEC(' ')) /**/,
             11237                /*K*  COUNT is the number of characters in the name */
             11243    1         2 TEXT CHAR(B$DNAME.COUNT) UNAL;
PL6.E3A0      #002=VXO$COMPACT File=VXO$OBJECT.:E05TSI                           WED 07/30/97 08:27 Page:159
             11247    1   DCL VX$TARGET_B           BIT( VX_TARGET_COUNT ) ALIGNED    BASED;
             11248    1   DCL VX$SOURCE_B           BIT( VX_SOURCE_COUNT ) ALIGNED    BASED;
             11249    1   DCL VX$TARGET_C         CHAR( VX_TARGET_COUNT ) ALIGNED BASED;
             11250    1   DCL VX$SOURCE_C         CHAR( VX_SOURCE_COUNT ) ALIGNED BASED;
             11253    1   DCL BIN_START$          PTR  ALIGNED   AUTO;
             11254    1   DCL BIN_STOP$           PTR  ALIGNED   AUTO;
             11255    1   DCL BIN_RESULT$         PTR  ALIGNED   AUTO;
             11256    1   DCL BIN_N$              PTR  ALIGNED   AUTO;
             11257    1   DCL BIN_MATCH$          PTR       ALIGNED   AUTO;
             11258    1   DCL BIN_NAME_DISP       UBIN(36)  ALIGNED   AUTO;
             11259    1   DCL BIN_SIZE            UBIN(36)  ALIGNED   AUTO;
             11262    1   DCL BIN_LOW             UBIN(36)  ALIGNED AUTO;
             11263    1   DCL BIN_HIGH            UBIN(36)  ALIGNED AUTO;
             11264    1   DCL BIN_MID             UBIN(36)  ALIGNED AUTO;
             11265    1   DCL BIN_NTEMP$          PTR        ALIGNED AUTO;
             11266    1   DCL BIN_START1$         PTR       ALIGNED AUTO;

PL6.E3A0      #002=VXO$COMPACT File=VXO$OBJECT.:E05TSI                           WED 07/30/97 08:27 Page:160
      703    11270    1         RN_START$ = VX_CURR$ -> VX$NODE.L_START.RN$;
      704    11271    2         IF VX_CURR$ -> VX$NODE.L_START.ER$ ~= ADDR(NIL) THEN DO;
      705    11272    3             IF VX_CURR$ -> VX$NODE.L_START.ED$ ~= ADDR(NIL) THEN DO;
      706    11273    3                 ED_SIZE = VX_CURR$ -> VX$NODE.L_SIZE.ED;
      707    11274                      %ALLOCATE(            /* Get space for temporary entdef list */
      708    11275                      PTR$ = ED_START$,
      709    11276                      TYPE = @ED_DS_1,
      710    11277                      SIZE = ED_SIZE );
      711    11284        /**/
      712    11285        /*                                                 Move ed to temp space
      713    11286        /**/
      714    11287    3                 VX_TARGET_COUNT = ED_SIZE * 4/*@CHAR_WORD*/;
      715    11288    3                 VX_SOURCE_COUNT = VX_TARGET_COUNT;
      716    11289    3                 ED_START$ -> VX$TARGET_C      =
      717    11290    3                         VX_CURR$ -> VX$NODE.L_START.ED$ -> VX$SOURCE_C;
      718    11291    3                 ED_STOP$ = PINCRW( ED_START$, ED_SIZE - SIZEW( B$EDEF) );
      719    11292    3                 BIN_N$ = VX_CURR$ -> VX$NODE.L_START.DN$;
      720    11293    3                 CALL VXQ$SORT( BIN_N$,
      721    11294    3                         ED_START$,
      722    11295    3                         ED_STOP$,
      723    11296    3                         SIZEW( B$EDEF ),
      724    11297    3                         1/*@BY_NAME*/,
      725    11298    3                         2,
      726    11299    3                         0 );
      727    11300        /**/
      728    11301        /*                                                 Now begin to process the entref's
      729    11302        /**/
      730    11303    3                 ER_START$ = VX_CURR$ -> VX$NODE.L_START.ER$;
      731    11304    3                 ER_STOP$ = VX_CURR$ -> VX$NODE.L_STOP.ER$;
      732    11305    3                 ER_SIZE = VX_CURR$ -> VX$NODE.L_SIZE.ER;
      733    11306                      %ALLOCATE(
      734    11307                      PTR$ = TEMP_ER_START$,
      735    11308                      TYPE = @ER_DS_1,
      736    11309                      SIZE = ER_SIZE);
      737    11316    3                 TEMP_ER_STOP$ = TEMP_ER_START$;
      738    11317    3                 BIN_START$ = ED_START$;
      739    11318    3                 BIN_STOP$ = ED_STOP$;
PL6.E3A0      #002=VXO$COMPACT File=VXO$OBJECT.:E05TSI                           WED 07/30/97 08:27 Page:161
      740    11319    3                 TEMP_RN_SIZE = 0;
      741    11320        /**/
      742    11321    4                 DO WHILE( ER_START$ <= ER_STOP$ );
      743    11322    4                     BIN_MATCH$ = PINCRW( RN_START$, ER_START$ -> B$EREF.NPOINTER );
      744    11323        /**/
      745    11324                          %BIN_SEARCH(
      746    11325                          START$=BIN_START$,
      747    11326                          STOP$=BIN_STOP$,
      748    11327                          RESULT$=BIN_RESULT$,
      749    11328                          N$=BIN_N$,
      750    11329                          MATCH$=BIN_MATCH$,
      751    11330                          NAME_DISP=2,
      752    11331                          SIZE="SIZEW(B$EDEF)",
      753    11332                          NEG=%@COMMENT,
      754    11333                          GEN=%@TNEMMOC,
      755    11334                          SPLIT=COMP_SPLIT,
      756    11335                          FOUND=COMP_FOUND,
      757    11336                          CHECK=COMP_CHECK,
      758    11337                          ALTRETURN=COMP_NOT_FOUND,
      759    11338                          EMPTY=COMP_NOT_FOUND);
             11340    4           IF BIN_START$ = ADDR(NIL) THEN GOTO COMP_NOT_FOUND;
             11341    5           IF POFFW( BIN_STOP$, BIN_START$ ) / SIZEW(B$EDEF) < 17 THEN DO;
             11342    5              BIN_RESULT$ = BIN_START$;        /* Sequential search                  */
             11343    6              DO WHILE( BIN_RESULT$ <= BIN_STOP$ );
             11344    6                 BIN_NTEMP$ = PINCRW( BIN_N$, BIN_RESULT$ -> VX$TMPLT.A(2) );
             11345    6                 IF BIN_NTEMP$ -> B$DNAME.TEXT
             11346    6                   >=
             11347    7                   BIN_MATCH$ -> B$DNAME.TEXT THEN DO;
             11348    7                    IF BIN_NTEMP$ -> B$DNAME.TEXT
             11349    7                      =
             11350    7                      BIN_MATCH$ -> B$DNAME.TEXT THEN GOTO COMP_FOUND;
             11351    7                    ELSE GOTO COMP_NOT_FOUND;
             11352    7                    END;
             11353    6                 BIN_RESULT$ = PINCRW( BIN_RESULT$, SIZEW(B$EDEF) );
             11354    6                 END;                      /* Do while                           */
             11355    5              GOTO COMP_NOT_FOUND;
             11356    5              END; /* If poffw( STOP$, START$ ) / size < TRADE_OFF_POINT then do; */
PL6.E3A0      #002=VXO$COMPACT File=VXO$OBJECT.:E05TSI                           WED 07/30/97 08:27 Page:162
             11357    5           ELSE DO;                        /* Binary search                      */
             11358    5              BIN_LOW = 0;
             11359    5              BIN_HIGH = POFFW( BIN_STOP$, BIN_START$ ) / SIZEW(B$EDEF) + 2;
             11360    5              BIN_START1$ = PINCRW( BIN_START$, -SIZEW(B$EDEF) );
             11361    5   COMP_SPLIT:     ;
             11362    5              BIN_MID = ( BIN_LOW + BIN_HIGH ) / 2;
             11363    5              BIN_RESULT$ = PINCRW( BIN_START1$, BIN_MID*SIZEW(B$EDEF) );
             11364    5              BIN_NTEMP$ = PINCRW( BIN_N$, BIN_RESULT$ -> VX$TMPLT.A(2) );
             11365    5              IF BIN_NTEMP$ -> B$DNAME.TEXT
             11366    5                <
             11367    6                BIN_MATCH$ -> B$DNAME.TEXT THEN DO;
             11368    6                 BIN_LOW = BIN_MID;
             11369    6                 GOTO COMP_CHECK;
             11370    6                 END;
             11371    5              IF BIN_NTEMP$ -> B$DNAME.TEXT
             11372    5                >
             11373    6                BIN_MATCH$ -> B$DNAME.TEXT THEN DO;
             11374    6                 BIN_HIGH = BIN_MID;
             11375    6   COMP_CHECK:        ;
             11376    6                 IF BIN_LOW + 1    < BIN_HIGH THEN GOTO COMP_SPLIT;
             11377                                                /* Here => looping or not found       */
             11378                                      /* Result -> < match => a boundary condition    */
             11379    6                 /*
             11380    6                   IF PINCRW( BIN_N$, BIN_RESULT$ -> VX$TMPLT.A(2) ) -> B$DNAME.TEXT
             11381    6                   <
             11382    6                   BIN_MATCH$ -> B$DNAME.TEXT THEN BIN_RESULT$ = PINCRW( BIN_RESULT$,
             11382                            SIZEW(B$EDEF) );
             11383    6                 /**/
             11384    6                   GOTO COMP_NOT_FOUND;
             11385    6                 END;
             11386    5              END;                         /* Else do;                           */
             11387    4   COMP_FOUND:
             11388        /* Here -> found */
      760    11390        /**/
      761    11391    4                     GOTO NEXT_ER;
      762    11392    4   COMP_NOT_FOUND:
      763    11393    4                     TEMP_RN_SIZE = TEMP_RN_SIZE +
PL6.E3A0      #002=VXO$COMPACT File=VXO$OBJECT.:E05TSI                           WED 07/30/97 08:27 Page:163
      764    11394                                  %TEXTH_SIZEW(
      765    11395                                  CNT="BIN_MATCH$->B$DNAME.COUNT");
      766    11398    4                     ;
      767    11399    4                     TEMP_ER_STOP$ -> B$EREF = ER_START$ -> B$EREF;
      768    11400    4                     TEMP_ER_STOP$ = PINCRW( TEMP_ER_STOP$, SIZEW( B$EREF ) );
      769    11401    4   NEXT_ER:
      770    11402    4                     ER_START$ = PINCRW( ER_START$, SIZEW( B$EREF ) );
      771    11403    4                    END;                   /* Do while( ER_START$ <= ER_STOP$ ); */
      772    11404        /**/
      773    11405        /*                                                 Release temp space for entdef's
      774    11406        /**/
      775    11407    3                 CALL VXF$FREE(      5/*@ED_DS_1*/, ED_SIZE, 0 );
      776    11408    4                 IF TEMP_ER_STOP$ > TEMP_ER_START$ THEN DO;
      777    11409        /**/
      778    11410    5                     IF TEMP_ER_STOP$ > PINCRW( TEMP_ER_START$, SIZEW( B$EREF) ) THEN
             11410                              DO;
      779    11411    5                         ER_START$ = TEMP_ER_START$;
      780    11412    5                         ER_STOP$  = PINCRW( TEMP_ER_STOP$, -SIZEW( B$EREF ) );
      781    11413    5                         CALL VXQ$SORT( RN_START$,
      782    11414    5                                 ER_START$,
      783    11415    5                                 ER_STOP$,
      784    11416    5                                 SIZEW(B$EREF),
      785    11417    5                                 1/*@BY_NAME*/,
      786    11418    5                                 0,
      787    11419    5                                 0    );
      788    11420    5                         TEMP_ER_STOP$ = TEMP_ER_START$;
      789    11421        /**/
      790    11422    6                         DO WHILE( ER_START$ <= ER_STOP$ );
      791    11423    6                             BIN_MATCH$ = PINCRW( RN_START$, ER_START$ -> B$EREF.
             11423                                      NPOINTER );
      792    11424    6                             CURR_ER_START$ = ER_START$;
      793    11425    6                             ER_START$ = PINCRW( ER_START$, SIZEW( B$EREF ) );
      794    11426    7                             IF ER_START$ <= ER_STOP$ THEN DO;
      795    11427    8                                 DO WHILE( PINCRW( RN_START$, ER_START$ -> B$EREF.
             11427                                          NPOINTER ) ->
      796    11428    8                                         B$DNAME.TEXT
      797    11429    8                                         =
PL6.E3A0      #002=VXO$COMPACT File=VXO$OBJECT.:E05TSI                           WED 07/30/97 08:27 Page:164
      798    11430    8                                         BIN_MATCH$ -> B$DNAME.TEXT );
      799    11431    8                                     ER_START$ = PINCRW( ER_START$, SIZEW( B$EREF ) );
      800    11432    8                                     IF ER_START$ > ER_STOP$ THEN GOTO JUMP_OUT_ER;
      801    11433    8                                    END;   /* Do while( pincrw ... */
      802    11434    7   JUMP_OUT_ER:
      803    11435        /**/
      804    11436    7                                END;       /* If ER_START$ <= ER_STOP$ then do; */
      805    11437    6                             IF TEMP_ER_STOP$ ~= CURR_ER_START$ THEN
      806    11438    6                                 TEMP_ER_STOP$ -> B$EREF = CURR_ER_START$ -> B$EREF;
      807    11439    6                             TEMP_ER_STOP$ = PINCRW( TEMP_ER_STOP$, SIZEW( B$EREF ) );
      808    11440    6                            END;           /* Do while( ER_START$ < ER_STOP$ ); */
      809    11441    5                        END;
             11441                 /* If TEMP_ER_STOP$ > pincrw( TEMP_ER_START$, sizew( B$EREF ) ) then do; */
      810    11442        /**/
      811    11443    4                     TEMP_ER_SIZE = POFFW( TEMP_ER_STOP$, TEMP_ER_START$ ) * SIZEW(
             11443                              B$EREF );
      812    11444    4                     VX_TARGET_COUNT = TEMP_ER_SIZE * 4/*@CHAR_WORD*/;
      813    11445    4                     VX_SOURCE_COUNT = VX_TARGET_COUNT; /* Move new list over old */
      814    11446    4                     VX_CURR$ -> VX$NODE.L_START.ER$ -> VX$TARGET_C =
      815    11447    4                             TEMP_ER_START$ -> VX$SOURCE_C;
      816    11448    4                     VX_CURR$ -> VX$NODE.L_STOP.ER$ =
      817    11449    4                             PINCRW( VX_CURR$ -> VX$NODE.L_START.ER$,
      818    11450    4                             TEMP_ER_SIZE - SIZEW( B$EREF ) );
      819    11451    4                     VX_CURR$ -> VX$NODE.L_SIZE.ER  = TEMP_ER_SIZE;
      820    11452    4                     VX_CURR$ -> VX$NODE.L_PREV_SIZE.ER = 0;
      821    11453        /**/
      822    11454    4                     CALL VXF$FREE(      1/*@ER_DS_1*/, ER_SIZE+ER_SIZE-TEMP_ER_SIZE, 1
             11454                              );
      823    11455    4                    END;           /* If TEMP_ER_STOP$ > TEMP_ER_START$ then do; */
      824    11456    4                 ELSE DO;      /* TEMP_ER_STOP$ = TEMP_ER_START$ => all matched */
      825    11457    4                     CALL VXF$FREE( 1/*@ER_DS_1*/, ER_SIZE+ER_SIZE, 1);
      826    11458    4                     VX_CURR$ -> VX$NODE.L_START.ER$ = ADDR(NIL);
      827    11459    4                     VX_CURR$ -> VX$NODE.L_STOP.ER$ = ADDR(NIL);
      828    11460    4                     VX_CURR$ -> VX$NODE.L_SIZE.ER = 0;
      829    11461    4                     VX_CURR$ -> VX$NODE.L_PREV_SIZE.ER = 0;
      830    11462    4                     GOTO POP_RN_NAME;
      831    11463    4                    END;                   /* Else do; */
PL6.E3A0      #002=VXO$COMPACT File=VXO$OBJECT.:E05TSI                           WED 07/30/97 08:27 Page:165
      832    11464    3                END; /* If VX_CURR$ -> VX$NODE.L_START.ED$ ~= addr(nil) then do; */
      833    11465    3             ELSE DO;
      834    11466    3                 TEMP_RN_SIZE = VX_CURR$ -> VX$NODE.L_SIZE.RN;
      835    11467    3                END;                       /* Else do; */
      836    11468        /**/
      837    11469        /*                                   Allocate space to rebuild the name pool */
      838    11470        /**/
      839    11471                  %ALLOCATE(
      840    11472                  PTR$ = TEMP_RN_START$,
      841    11473                  TYPE = @RN_DS_1,
      842    11474                  SIZE = TEMP_RN_SIZE );
      843    11481    2             TEMP_RN_STOP$ = TEMP_RN_START$;
      844    11482    2             ER_START$ = VX_CURR$ -> VX$NODE.L_START.ER$;
      845    11483    2             ER_STOP$  = VX_CURR$ -> VX$NODE.L_STOP.ER$;
      846    11484        /**/
      847    11485    3             DO WHILE( ER_START$ <= ER_STOP$ );
      848    11486    3                 WHERE$ = PINCRW( RN_START$,
      849    11487    3                         ER_START$ -> B$EREF.NPOINTER );
      850    11488    3                 ER_START$ -> B$EREF.NPOINTER = POFFW( TEMP_RN_STOP$, TEMP_RN_START$ );
      851    11489    3                 I = WHERE$ -> B$DNAME.COUNT;
      852    11490    3                 TEMP_RN_STOP$ -> B$DNAME.COUNT = I;
      853    11491    3                 TEMP_RN_STOP$ -> B$DNAME.TEXT = WHERE$ -> B$DNAME.TEXT;
      854    11492    3                 TEMP_RN_STOP$ = PINCRW( TEMP_RN_STOP$,
      855    11493                              %TEXTH_SIZEW(
      856    11494                              CNT=I);
      857    11497    3                 );
      858    11498    3                 ER_START$ = PINCRW( ER_START$, SIZEW( B$EREF) );
      859    11499    3                END;                       /* Do while( ER_START$ <= ER_STOP$ ); */
      860    11500        /**/
      861    11501        /*                                       Now move the temp name
      862    11502                                                      name pool over the original
      863    11503        /**/
      864    11504    2             RN_FREE = VX_CURR$ -> VX$NODE.L_SIZE.RN + TEMP_RN_SIZE;
      865    11505    2             TEMP_RN_SIZE = POFFW( TEMP_RN_STOP$, TEMP_RN_START$ );
      866    11506    2             RN_FREE = RN_FREE - TEMP_RN_SIZE;
      867    11507    2             VX_TARGET_COUNT = TEMP_RN_SIZE * 4/*@CHAR_WORD*/;
      868    11508    2             VX_SOURCE_COUNT = VX_TARGET_COUNT;
PL6.E3A0      #002=VXO$COMPACT File=VXO$OBJECT.:E05TSI                           WED 07/30/97 08:27 Page:166
      869    11509    2             VX_CURR$ -> VX$NODE.L_START.RN$ -> VX$TARGET_C =
      870    11510    2                     TEMP_RN_START$ -> VX$SOURCE_C;
      871    11511        /**/
      872    11512    2             CALL VXF$FREE(      0/*@RN_DS_1*/, RN_FREE, 1 );
      873    11513    2             VX_CURR$ -> VX$NODE.L_STOP.RN$ = PINCRW(
      874    11514    2                     VX_CURR$ -> VX$NODE.L_START.RN$,
      875    11515    2                     TEMP_RN_SIZE - 1/*@M_RN_ESZ*/ );
      876    11516    2             VX_CURR$ -> VX$NODE.L_SIZE.RN = TEMP_RN_SIZE;
      877    11517    2             VX_CURR$ -> VX$NODE.L_PREV_SIZE.RN = TEMP_RN_SIZE;
      878    11518    2            END;   /* If VX_CURR$ -> VX$NODE.L_START.ER$ ~= addr(nil) then do; */
      879    11519    2         ELSE DO;
      880    11520    2   POP_RN_NAME:
      881    11521    2             CALL VXF$FREE(      0/*@RN_DS_1*/, VX_CURR$ -> VX$NODE.L_SIZE.RN, 1);
      882    11522    2             VX_CURR$ -> VX$NODE.L_START.RN$ = ADDR(NIL);
      883    11523    2             VX_CURR$ -> VX$NODE.L_STOP.RN$ = ADDR(NIL);
      884    11524    2             VX_CURR$ -> VX$NODE.L_SIZE.RN = 0;
      885    11525    2             VX_CURR$ -> VX$NODE.L_PREV_SIZE.RN = 0;
      886    11526    2            END;                           /* Else do; */
      887    11527
      888    11528    1   END VXO$COMPACT;

PL6.E3A0      #002=VXO$COMPACT File=VXO$OBJECT.:E05TSI                           WED 07/30/97 08:27 Page:167
--  Include file information  --

   F_DCB_D.:E05TOU  is referenced.
   VX_DCB_R.:E05TOU  cannot be made into a system file and is referenced.
   VX_DATA_R.:E05TOU  cannot be made into a system file and is referenced.
   VX_FIXED_R.:E05TOU  cannot be made into a system file and is referenced.
   XU_MACRO_C.:E05TOU  is referenced.
   CP_6.:E05TOU  cannot be made into a system file and is referenced.
   VX_MACRO_C.:E05TOU  is referenced.
   VX_PERR_C.:E05TOU  is referenced.
   VX_SUBS_C.:E05TOU  is referenced.
   VX_SWITCH_C.:E05TOU  is referenced.
   B$OBJECT_C.:E05TOU  is referenced.
   VX_INC_C.:E05TOU  is referenced.
   B$JIT_C.:E05TOU  was found in the system file and is never referenced.
   CP_6_C.:E05TOU  was found in the system file and is referenced.
      No diagnostics issued in procedure VXO$COMPACT.

   Procedure VXO$COMPACT requires 509 words for executable code.
   Procedure VXO$COMPACT requires 64 words of local(AUTO) storage.

    No errors detected in file VXO$OBJECT.:E05TSI    .

PL6.E3A0      #002=VXO$COMPACT File=VXO$OBJECT.:E05TSI                           WED 07/30/97 08:27 Page:168

 Object Unit name= VXO$COMPACT                                File name= VXO$OBJECT.:E05TOU
 UTS= JUL 30 '97 08:27:57.72 WED                              Compiler= PL-6/E31         Sev=      00
 SharedLib= :SHARED_SYSTEM                                    Alt SharedLib=


    ****  Control sections  ****

 Sect   Type Bound  Init  Size OctSiz  Section name(segment info)
    0   DCB   even  none     0      0  M$UC
    1  LblCom even  none    96    140  VX_CONST_DCB
    2   Proc  even  none   509    775  VXO$COMPACT
    3  RoData even  none     6      6  VXO$COMPACT

    ****  Entry defs  ****

                              Check   Calling
                             calling  sequence
  Sect OctLoc Primary Altret sequence   type   Parms  Name
     2      0   yes            yes      Std        0  VXO$COMPACT

  ****  Entry refs  ****

         Check        Calling
        calling       sequence
Altret sequence SRef   type   Args  Name
         yes           Std       3 VXA$GET
         yes           Std       7 VXQ$SORT
         yes           Std       3 VXF$FREE
                       nStd      0 X66_AUTO_0
                       Std       0 B_CONSPOOL_D
                       nStd      0 X66_ARET
PL6.E3A0      #002=VXO$COMPACT File=VXO$OBJECT.:E05TSI                           WED 07/30/97 08:27 Page:169

  ****  Data refs  ****

  Flags:  r = read only, s = secondary
Flgs Name                             Flgs Name                             Flgs Name
     M$UC                                  VX_OU_HEAD                            VX_CURR$
     VX_ERRORS                             VX_M_FREE                             VX_M_ALL
     VX_M_BASE_PTR                         VX_TARGET_COUNT                       VX_SOURCE_COUNT
     B_VECTNIL

  ****  Segment refs  ****

  Flags:  r = read only, s = secondary
Flgs Name                             Flgs Name                             Flgs Name
     NULLSID                               ISSID
PL6.E3A0      #002=VXO$COMPACT File=VXO$OBJECT.:E05TSI                           WED 07/30/97 08:27 Page:170


      626        1        /*T***********************************************************/
      627        2        /*T*                                                         */
      628        3        /*T* Copyright (c) Bull HN Information Systems Inc., 1997    */
      629        4        /*T*                                                         */
      630        5        /*T***********************************************************/
      631        6        /*X* DMR,PLM=6,IND=4,CSU=2,EXM=0,ECU=2,MOC,DCI=4,CRT=4,CCE,AIC,CTI=8 */
      632        7        /*M* VXO$COMPACT - compacts the externally referenced names and entrefs
      633        8                           for the current node.       */
      634        9
      635       10        VXO$COMPACT: PROC;

     10  2 000000   000000 700200 xent  VXO$COMPACT  TSX0  ! X66_AUTO_0
         2 000001   000100 000000                    ZERO    64,0

      636       11
      637       12        %INCLUDE VX_INC_C;
      638    10728        %VX$NODE;

             10740    1   /*******************************************************************************
             10741    1   *                                                                              *
             10742    1   *                          VX$NODE                                                *
             10743    1   *                                                                              *
             10744    1   *******************************************************************************/

             10760    1   DCL 1 VX$NODE      ALIGNED    BASED,
             10761    1         2 SON$ PTR /*(ADDR(NIL))*/, /* Son pointer                      */
             10762    1         2 BROTHER$ PTR /*(ADDR(NIL))*/, /* Brother pointer              */
             10763    1         2 FATHER$ PTR /*(ADDR(NIL))*/, /* Father pointer                */
             10764    1         2 PATH$ PTR /*(ADDR(NIL))*/, /* Path   pointer                  */
             10765    1         2 HEAD$       PTR /*(ADDR(NIL))*/, /* Head pointer to
             10766                              to list of file nodes for this node            */
             10767    1         2 TAIL$ PTR /*(ADDR(NIL))*/, /* Tail pointer to list            */
             10768    1         2 SHARED_LIB_HEAD$ PTR /*(ADDR(NIL))*/,
             10768                  /* Head pointer to shared library list */
             10769    1         2 LIB_HEAD$         PTR /*(ADDR(NIL))*/,
             10769                  /* Head pointer to list of shared libraries
PL6.E3A0      #002=VXO$COMPACT File=VXO$OBJECT.:E05TSI                           WED 07/30/97 08:27 Page:171
             10770                                          which have been mapped to included libraries */
             10771    1         2 NUM          UBIN(36)  UNAL,    /* Node number                        */
             10772    1         2 DEPTH          UBIN(36)  UNAL,  /* Depth; ROOT=0*/
             10773    1         2 ADDR_START_A(0:2/*@ROS*/) SBIN WORD /*(0*3)*/, /* Array            */
             10774    1         2 ADDR_START REDEF  ADDR_START_A,
             10775    1           3 RDATA       SBIN WORD,   /* First address for this node in data     */
             10776    1           3 RPROC       SBIN WORD,   /* First address for this node in proc     */
             10777    1           3 ROS       SBIN WORD,          /* Last address for program in ros    */
             10778    1         2 ADDR_STOP_A(0:2/*@ROS*/) SBIN WORD /*(-1*3)*/, /* Array            */
             10779    1         2 ADDR_STOP  REDEF  ADDR_STOP_A,
             10780    1           3 RDATA       SBIN WORD,        /* Last address for this node in data */
             10781    1           3 RPROC       SBIN WORD,        /* Last address for this node in proc */
             10782    1           3 ROS       SBIN WORD,          /* Last address for program in ros    */
             10783    1         2 START_PAGE#_A(0:2/*@ROS*/) SBIN WORD /*(0*3)*/, /* Array           */
             10784    1         2 START_PAGE# REDEF START_PAGE#_A,
             10785    1           3 RDATA       SBIN WORD,   /* First page    for this node in data     */
             10786    1           3 RPROC       SBIN WORD,   /* First page    for this node in proc     */
             10787    1           3 ROS       SBIN WORD,          /* First page   for program in ros    */
             10788    1         2 STOP_PAGE#_A(0:2/*@ROS*/) SBIN WORD /*(-1*3)*/, /* Array*/
             10789    1         2 STOP_PAGE#  REDEF STOP_PAGE#_A,
             10790    1           3 RDATA       SBIN WORD,   /* Last  page    for this node in data     */
             10791    1           3 RPROC       SBIN WORD,   /* Last  page    for this node in proc     */
             10792    1           3 ROS       SBIN WORD,          /* Last  page   for program in ros    */
             10793    1         2 START_SC_ALL$ PTR /*(ADDR(NIL))*/,
             10793                  /* Starting pointer for common sections for this node */
             10794    1         2 STOP_SC_ALL$ PTR /*(ADDR(NIL))*/,
             10794                  /* Stopping pointer for common sections for this node */
             10795    1         2 L_START,
             10796    1           3 SN$ PTR /*(ADDR(NIL))*/, /* Segment definition names        */
             10797    1           3 DN$ PTR /*(ADDR(NIL))*/, /* Def names                       */
             10798    1           3 RN$ PTR /*(ADDR(NIL))*/, /* Ref names                       */
             10799    1           3 SC$ PTR /*(ADDR(NIL))*/, /* Sections                        */
             10800    1           3 ED$ PTR /*(ADDR(NIL))*/, /* Entry defs*/
             10801    1           3 ER$ PTR /*(ADDR(NIL))*/, /* Entry refs*/
             10802    1           3 DD$ PTR /*(ADDR(NIL))*/, /* Data defs                       */
             10803    1           3 DR$ PTR /*(ADDR(NIL))*/, /* Data refs                       */
             10804    1           3 SD$ PTR /*(ADDR(NIL))*/, /* Seg defs                        */
PL6.E3A0      #002=VXO$COMPACT File=VXO$OBJECT.:E05TSI                           WED 07/30/97 08:27 Page:172
             10805    1           3 SR$ PTR /*(ADDR(NIL))*/, /* Seg refs                        */
             10806    1         2 L_START_A$(0:9)     REDEF L_START PTR,
             10807    1         2 L_STOP,
             10808    1           3 SN$ PTR /*(ADDR(NIL))*/, /* Segment definition names        */
             10809    1           3 DN$ PTR /*(ADDR(NIL))*/, /* Def names                       */
             10810    1           3 RN$ PTR /*(ADDR(NIL))*/, /* Ref names                       */
             10811    1           3 SC$ PTR /*(ADDR(NIL))*/, /* Sections                        */
             10812    1           3 ED$ PTR /*(ADDR(NIL))*/, /* Entry defs*/
             10813    1           3 ER$ PTR /*(ADDR(NIL))*/, /* Entry refs*/
             10814    1           3 DD$ PTR /*(ADDR(NIL))*/, /* Data defs                       */
             10815    1           3 DR$ PTR /*(ADDR(NIL))*/, /* Data refs                       */
             10816    1           3 SD$ PTR /*(ADDR(NIL))*/, /* Seg defs                        */
             10817    1           3 SR$ PTR /*(ADDR(NIL))*/, /* Seg refs                        */
             10818    1         2 L_STOP_A$(0:9) REDEF   L_STOP    PTR,
             10819    1         2 L_SIZE,
             10820    1           3 SN      UBIN /*(0)*/, /* Segment definition names           */
             10821    1           3 DN      UBIN /*(0)*/, /* Def names                          */
             10822    1           3 RN      UBIN /*(0)*/, /* Ref names                          */
             10823    1           3 SC      UBIN /*(0)*/, /* Sections                           */
             10824    1           3 ED      UBIN /*(0)*/, /* Entry defs*/
             10825    1           3 ER      UBIN /*(0)*/, /* Entry refs*/
             10826    1           3 DD      UBIN /*(0)*/, /* Data defs                          */
             10827    1           3 DR      UBIN /*(0)*/, /* Data refs                          */
             10828    1           3 SD      UBIN /*(0)*/, /* Seg defs                           */
             10829    1           3 SR      UBIN /*(0)*/, /* Seg refs                           */
             10830    1         2 L_SIZE_A(0:9)  REDEF   L_SIZE    UBIN,
             10831    1         2 L_PREV_SIZE,
             10832    1           3 SN      UBIN /*(0)*/, /* Segment definition names           */
             10833    1           3 DN      UBIN /*(0)*/, /* Def names                          */
             10834    1           3 RN      UBIN /*(0)*/, /* Ref names                          */
             10835    1           3 SC      UBIN /*(0)*/, /* Sections                           */
             10836    1           3 ED      UBIN /*(0)*/, /* Entry defs*/
             10837    1           3 ER      UBIN /*(0)*/, /* Entry refs*/
             10838    1           3 DD      UBIN /*(0)*/, /* Data defs                          */
             10839    1           3 DR      UBIN /*(0)*/, /* Data refs                          */
             10840    1           3 SD      UBIN /*(0)*/, /* Seg defs                           */
             10841    1           3 SR      UBIN /*(0)*/, /* Seg refs                           */
PL6.E3A0      #002=VXO$COMPACT File=VXO$OBJECT.:E05TSI                           WED 07/30/97 08:27 Page:173
             10842    1         2 L_PREV_SIZE_A(0:9)  REDEF   L_PREV_SIZE    UBIN,
             10843    1         2 BIT_MAP                ALIGNED,
             10844    1           3 DATA                  ALIGNED,
             10845    1             4 BITS(0:255)          BIT(1)    UNAL /*('0'B*256)*/,
             10846    1           3 RPROC                 ALIGNED,
             10847    1             4 BITS(0:255)          BIT(1)    UNAL /*('0'B*256)*/,
             10848    1           3 ROS                   ALIGNED,
             10849    1             4 BITS(0:255)          BIT(1)    UNAL /*('0'B*256)*/,
             10850    1         2 L_SC_START,
             10851    1           3 SC_BLK_COM$ PTR /*(ADDR(NIL))*/, /* Blank common            */
             10852    1           3 SC_ROOT_LBL_COM$ PTR /*(ADDR(NIL))*/, /* Root labelled common */
             10853    1           3 SC_LBL_COM$ PTR /*(ADDR(NIL))*/, /* Labelled common         */
             10854    1           3 SC_DCB$ PTR /*(ADDR(NIL))*/, /* Dcbs                        */
             10855    1         2 L_SC_START_A$(0:3)  REDEF L_SC_START PTR,
             10856    1         2 L_SC_STOP,
             10857    1           3 SC_BLK_COM$ PTR /*(ADDR(NIL))*/, /* Blank common            */
             10858    1           3 SC_ROOT_LBL_COM$ PTR /*(ADDR(NIL))*/, /* Root labelled common */
             10859    1           3 SC_LBL_COM$ PTR /*(ADDR(NIL))*/, /* Labelled common         */
             10860    1           3 SC_DCB$ PTR /*(ADDR(NIL))*/, /* Dcbs                        */
             10861    1         2 L_SC_STOP_A$(0:3)   REDEF L_SC_STOP  PTR,
             10862    1         2 PROMOTE_HEAD,
             10863    1           3 BLK_COM$              PTR /*(ADDR(NIL))*/,
             10864    1           3 LBL_COM$              PTR /*(ADDR(NIL))*/,
             10865    1         2 PROMOTE_HEAD_A$(0:1) REDEF PROMOTE_HEAD     PTR,
             10866    1         2 PROMOTE_TAIL,
             10867    1           3 BLK_COM$              PTR /*(ADDR(NIL))*/,
             10868    1           3 LBL_COM$              PTR /*(ADDR(NIL))*/,
             10869    1         2 PROMOTE_TAIL_A$(0:1) REDEF PROMOTE_TAIL     PTR,
             10870    1         2 HAVE_ASL          BIT(1)    UNAL /*('0'B)*/,
             10871    1         2 ALL_BLK_COM          BIT(1)    UNAL /*('0'B)*/,
             10872    1         2 USE_NODE          BIT(1)    UNAL /*('0'B)*/,
             10873    1         2 *                 BIT(33)   UNAL /*('0'B)*/,
             10874    1         2 BLANK_COMMON$     PTR       ALIGNED /*(ADDR(NIL))*/;

      639    10878        %SET LISTMAC='1'B;
      640    10879        %SET LISTSUB='1'B;
      641    10880        %SET LISTEXP='1'B;
PL6.E3A0      #002=VXO$COMPACT File=VXO$OBJECT.:E05TSI                           WED 07/30/97 08:27 Page:174
      642    10881        %SET LISTDIR='0'B;

             10890    1   /*******************************************************************************
             10891    1   *                                                                              *
             10892    1   *                          B$EDEF                                                 *
             10893    1   *                                                                              *
             10894    1   *******************************************************************************/

             10899    1   DCL 1 B$EDEF BASED ALIGNED,
             10900    1         2 LFLAGS UNAL,
             10901                /*K*  LFLAGS is the field reserved for loader to flag load
             10902                      time attributes of the definition and must be zero
             10903                      in the object unit. */
             10904    1           3 SOURCE UBIN(3) UNAL,
             10905                  /*K*  SOURCE - Source of this ENTDEF */
             10906    1           3 DEFINED BIT(1)  UNAL,
             10907                  /*K*  DEFINED - Set if this ENTDEF defined */
             10908    1           3 MULTIPLE BIT(1) UNAL,
             10909                  /*K*  MULTIPLE - Set if this ENTDEF is multiply defined. */
             10910    1           3 USED BIT(1) UNAL,
             10911                  /*K*  USED - Set if this ENTDEF is used. */
             10912    1           3 * BIT(2) UNAL,
             10913                  /*K*  * - Unused and must be zero. */
             10914    1           3 FAULTAGS BIT(1) UNAL,
             10915                  /*K*  FAULTAGS - Internal calls fault tags flag. */
             10916    1         2 OU UNAL,
             10917    1           3 SECTNUM UBIN BYTE UNAL,
             10918                  /*K*  SECTNUM contains an entry number into the section
             10919                        table (TYPE 3).  */
             10920    1           3 OFFSET UBIN HALF UNAL,
             10921                  /*K*  OFFSET is the word offset from the origin of the section. */
             10922    1         2 ISADDR REDEF OU UBIN(27) UNAL,
             10923                /*K*  ISADDR - Is Address (RU)  */
             10924    1         2 NPOINTER SBIN HALF UNAL,
             10925                /*K*  NPOINTER is a word displacement into the name record
             10926                      (TYPE 1) locating the name (of this entry). */
             10927    1         2 PRI BIT(1) UNAL,
PL6.E3A0      #002=VXO$COMPACT File=VXO$OBJECT.:E05TSI                           WED 07/30/97 08:27 Page:175
             10928                /*K*  PRI is a one-bit flag denoting primary entry
             10929                      definition.
             10930                         PRI = 1, primary name (object unit name)
             10931                             = 0, not primary name                 */
             10932    1         2 ALT BIT(1) UNAL,
             10933                /*K*  ALT is a one-bit flag denoting permissible alternate
             10934                      return.
             10935                         ALT = 1, alternate return allowed
             10936                             = 0, alternate return not allowed        */
             10937    1         2 CHECK BIT(1) UNAL,
             10938                /*K*  CHECK is a one-bit flag denoting arguments/parameter
             10939                      check and alternate return specification check.
             10940                         CHECK = 0, do not check for matching
             10941                                    arguments/parameters and alternate
             10942                                    return specification check.
             10943                               = 1, check for matching arguments/parameters
             10944                                    and alternate return specification.  */
             10945    1         2 CST UBIN(4) UNAL,
             10946                /*K*  CST is a 4-bit field denoting calling sequence type.
             10947                         CST =  0, Standard CP-6 Callable Procedure
             10948                         CST =  1, Nonstandard Call Type
             10949                         CST =  2, Standard CP-6 Procedure with MAIN attribute
             10950                         CST =  3, Standard CP-6 Procedure with ASYNC attribute
             10951                         CST =  4, Standard CP-6 Function Procedure; a
             10952                                   variable table entry will be present to
             10953                                   define the attributes of the function
             10954                         CST =  5, Same as 0, except USE, AVOID, or
             10955                                   MATERIALIZE attributes specified
             10956                         CST =  7, Same as 2, except USE, AVOID, or
             10957                                   MATERIALIZE attributes specified
             10958                         CST =  8, Same as 3, except USE, AVOID, or
             10959                                   MATERIALIZE attributes specified
             10960                         CST =  9, Same as 4, except USE, AVOID, or
             10961                                   MATERIALIZE attributes specified
             10962                         CST = 13, GCOS domain, save
             10963                         CST = 14, GCOS domain, no save
             10964                         CST = 15, Non-Callable Procedure.          */
PL6.E3A0      #002=VXO$COMPACT File=VXO$OBJECT.:E05TSI                           WED 07/30/97 08:27 Page:176
             10965    1         2 NPARAM UBIN(11) UNAL;
             10966                /*K*  NPARAM is an 11-bit field denoting number of parameters. */

             10976    1   /*******************************************************************************
             10977    1   *                                                                              *
             10978    1   *                          B$EREF                                                 *
             10979    1   *                                                                              *
             10980    1   *******************************************************************************/

             10985    1   DCL 1 B$EREF BASED ALIGNED,
             10986    1         2 NPOINTER SBIN HALF UNAL,
             10987                /*K*  NPOINTER is the word displacement into the record
             10988                      of REF names (TYPE 2) locating the ENTREF name.   */
             10989    1         2 SREF BIT(1),
             10990                /*K*  SREF indicates that the reference is a secondary
             10991                      reference and should not cause loading of a library routine. */
             10992    1         2 ALT BIT(1),
             10993                /*K*  ALT is a one-bit flag denoting permissible alternate return.
             10994                         ALT = 1, alternate return allowed
             10995                             = 0, alternate return not allowed    */
             10996    1         2 CHECK BIT(1),
             10997                /*K*  CHECK is a one-bit flag denoting arguments/parameter check
             10998                      and alternate return specification check.
             10999                         CHECK = 0, do not check for matching
             11000                                    arguments/parameters and
             11001                                    alternate return specification.
             11002                               = 1, check for matching arguments/parameters
             11003                                    and alternate return specification.  */
             11004    1         2 CST UBIN(4) UNAL,
             11005                /*K*  CST is a 4-bit field denoting calling sequence type.
             11006                         CST =  0, Standard CP-6 Callable Procedure.
             11007                         CST =  1, Nonstandard Call Type.
             11008                         CST =  2, Standard CP-6 Procedure with MAIN attribute
             11009                         CST =  3, Standard CP-6 Procedure with ASYNC attribute
             11010                         CST =  4, Standard CP-6 Function Procedure; a
             11011                                   variable table entry will be present to
             11012                                   define the attributes of the function.
PL6.E3A0      #002=VXO$COMPACT File=VXO$OBJECT.:E05TSI                           WED 07/30/97 08:27 Page:177
             11013                         CST =  5, Same as 0, except USE, AVOID, or
             11014                                   MATERIALIZE attributes specified.
             11015                         CST =  7, Same as 2, except USE, AVOID, or
             11016                                   MATERIALIZE attributes specified.
             11017                         CST =  8, Same as 3, except USE, AVOID, or
             11018                                   MATERIALIZE attributes specified.
             11019                         CST =  9, Same as 4, except USE, AVOID, or
             11020                                   MATERIALIZE attributes specified.
             11021                         CST = 13, GCOS domain, save
             11022                         CST = 14, GCOS domain, no save
             11023                         CST = 15, Non-Callable Procedure.       */
             11024    1         2 NPARAM UBIN(11) UNAL;
             11025                /*K*  NPARAM is an 11-bit field denoting number of parameters. */

             11035    1   /*******************************************************************************
             11036    1   *                                                                              *
             11037    1   *                          SUBS                                                 *
             11038    1   *                                                                              *
             11039    1   *******************************************************************************/


             11098    1   /*******************************************************************************
             11099    1   *                                                                              *
             11100    1   *                          TMPLT                                                 *
             11101    1   *                                                                              *
             11102    1   *******************************************************************************/

             11107    1   DCL 1 VX$TMPLT           ALIGNED BASED, /* Template for defs                  */
             11108    1         2 A(0:3)       UBIN(18)  UNAL,    /* Array access                       */
             11109    1         2 A_SBIN(0:3) REDEF A    SBIN HALF UNAL,
             11110    1         2 W       REDEF     A,            /* By name                            */
             11111    1           3 WORD0       UBIN(36)  UNAL,   /* First word                         */
             11112    1           3 WORD1       UBIN(36)  UNAL;   /* Second word                        */

             11123    1   /*******************************************************************************
             11124    1   *                                                                              *
             11125    1   *                          ENTRY                                                 *
PL6.E3A0      #002=VXO$COMPACT File=VXO$OBJECT.:E05TSI                           WED 07/30/97 08:27 Page:178
             11126    1   *                                                                              *
             11127    1   *******************************************************************************/

      652    11131    1   DCL  VXA$GET    ENTRY( 3 );
      653    11132    1   DCL  VXF$FREE   ENTRY( 3 );
      654    11133    1   DCL  VXQ$SORT   ENTRY( 7 );

             11142    1   /*******************************************************************************
             11143    1   *                                                                              *
             11144    1   *                          PTR                                                 *
             11145    1   *                                                                              *
             11146    1   *******************************************************************************/

             11151    1   DCL P$         PTR       ALIGNED AUTO;
             11152    1   DCL Q$         PTR       ALIGNED AUTO;
             11153    1   DCL R$         PTR       ALIGNED AUTO;
      657    11155    1   DCL ALL$            PTR  ALIGNED   AUTO;
      658    11156    1   DCL CURR$           PTR  ALIGNED   AUTO;
      659    11157    1   DCL PREV$           PTR  ALIGNED   AUTO;
      660    11158    1   DCL WHERE$          PTR  ALIGNED   AUTO;
      661    11159    1   DCL START$          PTR  ALIGNED   AUTO;
      662    11160    1   DCL TAIL$           PTR  ALIGNED   AUTO;
      663    11161    1   DCL MAKE$           PTR  ALIGNED   AUTO;
      664    11162    1   DCL ED_START$           PTR  ALIGNED   AUTO;
      665    11163    1   DCL RN_START$           PTR  ALIGNED   AUTO;
      666    11164    1   DCL ER_START$           PTR  ALIGNED   AUTO;
      667    11165    1   DCL TEMP_ER_START$           PTR  ALIGNED   AUTO;
      668    11166    1   DCL TEMP_RN_START$           PTR  ALIGNED   AUTO;
      669    11167    1   DCL ED_STOP$           PTR  ALIGNED   AUTO;
      670    11168    1   DCL ER_STOP$           PTR  ALIGNED   AUTO;
      671    11169    1   DCL TEMP_ER_STOP$           PTR  ALIGNED   AUTO;
      672    11170    1   DCL TEMP_RN_STOP$           PTR  ALIGNED   AUTO;
      673    11171    1   DCL CURR_ER_START$          PTR  ALIGNED   AUTO;

             11180    1   /*******************************************************************************
             11181    1   *                                                                              *
             11182    1   *                          UBIN                                                 *
PL6.E3A0      #002=VXO$COMPACT File=VXO$OBJECT.:E05TSI                           WED 07/30/97 08:27 Page:179
             11183    1   *                                                                              *
             11184    1   *******************************************************************************/

             11189    1   DCL I          UBIN(36) ALIGNED AUTO;
             11190    1   DCL SI REDEF I SBIN WORD ALIGNED;
             11191    1   DCL J          UBIN(36) ALIGNED AUTO;
             11192    1   DCL SJ REDEF J SBIN WORD ALIGNED;
             11193    1   DCL K          UBIN(36) ALIGNED AUTO;
             11194    1   DCL SK REDEF K SBIN WORD ALIGNED;
             11195    1   DCL L          UBIN(36) ALIGNED AUTO;
             11196    1   DCL SL REDEF L    SBIN WORD ALIGNED;
      676    11198    1   DCL REC_TYPE        UBIN(36)  ALIGNED   AUTO;
      677    11199    1   DCL ALL_TYPE        UBIN(36)  ALIGNED   AUTO;
      678    11200    1   DCL HEAD_INX        UBIN(36)  ALIGNED   AUTO;
      679    11201    1   DCL TSIZE           UBIN(36)  ALIGNED   AUTO;
      680    11202    1   DCL PAGE            UBIN(36)  ALIGNED   AUTO;
      681    11203    1   DCL GET             UBIN(36)  ALIGNED   AUTO;
      682    11204    1   DCL HALVE           UBIN(36)  ALIGNED   AUTO;
      683    11205    1   DCL NPAGE           UBIN(36)  ALIGNED   AUTO;
      684    11206    1   DCL TSIZE_READ      UBIN(36)  ALIGNED   AUTO;
      685    11207    1   DCL SC_TYPE         UBIN(36)  ALIGNED   AUTO;
      686    11208    1   DCL INDX            UBIN(36)  ALIGNED   AUTO;
      687    11209    1   DCL LAST_DISP       UBIN(36)  ALIGNED   AUTO;
      688    11210    1   DCL ED_SIZE         UBIN(36)  ALIGNED   AUTO;
      689    11211    1   DCL ER_SIZE         UBIN(36)  ALIGNED   AUTO;
      690    11212    1   DCL TEMP_ER_SIZE    UBIN(36)  ALIGNED   AUTO;
      691    11213    1   DCL TEMP_RN_SIZE    UBIN(36)  ALIGNED   AUTO;
      692    11214    1   DCL RN_FREE    UBIN(36)  ALIGNED   AUTO;
             11216    1   DCL 1 F$NAME_                 BASED,
             11217    1         2 COUNT             UBIN( 9) UNAL,
             11218    1         2 CHARS             CHAR( F$NAME_.COUNT ) UNAL;
             11219    1   DCL F$ACCT_         CHAR(8/*@F_ACCT_SIZEC*/) BASED;
             11220    1   DCL F$ACCT_A(0:7/*@F_ACCT_SIZEC1*/)     CHAR(1)   BASED;
             11221    1   DCL F$PASS_         CHAR(8/*@F_PASS_SIZEC*/) BASED;
             11222    1   DCL F$PASS_A(0:7/*@F_PASS_SIZEC1*/)     CHAR(1)   BASED;
      694    11224        /**/
      695    11225        /**/
PL6.E3A0      #002=VXO$COMPACT File=VXO$OBJECT.:E05TSI                           WED 07/30/97 08:27 Page:180
      696    11226        /**/
             11235    1   DCL 1 B$DNAME BASED ALIGNED,
             11236    1         2 COUNT UBIN HALF UNAL /*(SIZEC(' ')) /**/,
             11237                /*K*  COUNT is the number of characters in the name */
             11243    1         2 TEXT CHAR(B$DNAME.COUNT) UNAL;
             11247    1   DCL VX$TARGET_B           BIT( VX_TARGET_COUNT ) ALIGNED    BASED;
             11248    1   DCL VX$SOURCE_B           BIT( VX_SOURCE_COUNT ) ALIGNED    BASED;
             11249    1   DCL VX$TARGET_C         CHAR( VX_TARGET_COUNT ) ALIGNED BASED;
             11250    1   DCL VX$SOURCE_C         CHAR( VX_SOURCE_COUNT ) ALIGNED BASED;
             11253    1   DCL BIN_START$          PTR  ALIGNED   AUTO;
             11254    1   DCL BIN_STOP$           PTR  ALIGNED   AUTO;
             11255    1   DCL BIN_RESULT$         PTR  ALIGNED   AUTO;
             11256    1   DCL BIN_N$              PTR  ALIGNED   AUTO;
             11257    1   DCL BIN_MATCH$          PTR       ALIGNED   AUTO;
             11258    1   DCL BIN_NAME_DISP       UBIN(36)  ALIGNED   AUTO;
             11259    1   DCL BIN_SIZE            UBIN(36)  ALIGNED   AUTO;
             11262    1   DCL BIN_LOW             UBIN(36)  ALIGNED AUTO;
             11263    1   DCL BIN_HIGH            UBIN(36)  ALIGNED AUTO;
             11264    1   DCL BIN_MID             UBIN(36)  ALIGNED AUTO;
             11265    1   DCL BIN_NTEMP$          PTR        ALIGNED AUTO;
             11266    1   DCL BIN_START1$         PTR       ALIGNED AUTO;

PL6.E3A0      #002=VXO$COMPACT File=VXO$OBJECT.:E05TSI                           WED 07/30/97 08:27 Page:181
      703    11270    1         RN_START$ = VX_CURR$ -> VX$NODE.L_START.RN$;

  11270  2 000002   000000 470400 xsym               LDP0    VX_CURR$
         2 000003   000032 236100                    LDQ     26,,PR0
         2 000004   200016 756100                    STQ     RN_START$,,AUTO

      704    11271    2         IF VX_CURR$ -> VX$NODE.L_START.ER$ ~= ADDR(NIL) THEN DO;

  11271  2 000005   000035 236100                    LDQ     29,,PR0
         2 000006   000001 116000 xsym               CMPQ    B_VECTNIL+1
         2 000007   000754 600000 2                  TZE     POP_RN_NAME

      705    11272    3             IF VX_CURR$ -> VX$NODE.L_START.ED$ ~= ADDR(NIL) THEN DO;

  11272  2 000010   000034 236100                    LDQ     28,,PR0
         2 000011   000001 116000 xsym               CMPQ    B_VECTNIL+1
         2 000012   000572 600000 2                  TZE     s:11466

      706    11273    3                 ED_SIZE = VX_CURR$ -> VX$NODE.L_SIZE.ED;

  11273  2 000013   000060 235100                    LDA     48,,PR0
         2 000014   200047 755100                    STA     ED_SIZE,,AUTO

      707    11274                      %ALLOCATE(            /* Get space for temporary entdef list */
      708    11275                      PTR$ = ED_START$,
      709    11276                      TYPE = @ED_DS_1,
      710    11277                      SIZE = ED_SIZE );

  11278  2 000015   000005 236000 xsym               LDQ     VX_M_ALL+5
         2 000016   000005 136000 xsym               SBLQ    VX_M_FREE+5
         2 000017   000032 604000 2                  TMI     s:11282
         2 000020   200047 116100                    CMPQ    ED_SIZE,,AUTO
         2 000021   000032 602000 2                  TNC     s:11282

  11279  2 000022   000005 236000 xsym               LDQ     VX_M_FREE+5
         2 000023   000022 736000                    QLS     18
         2 000024   000005 036000 xsym               ADLQ    VX_M_BASE_PTR+5
PL6.E3A0      #002=VXO$COMPACT File=VXO$OBJECT.:E05TSI                           WED 07/30/97 08:27 Page:182
         2 000025   200015 756100                    STQ     ED_START$,,AUTO

  11280  2 000026   000005 236000 xsym               LDQ     VX_M_FREE+5
         2 000027   200047 036100                    ADLQ    ED_SIZE,,AUTO
         2 000030   000005 756000 xsym               STQ     VX_M_FREE+5

  11281  2 000031   000044 710000 2                  TRA     s:11287

  11282  2 000032   200047 631500                    EPPR1   ED_SIZE,,AUTO
         2 000033   200072 451500                    STP1    BIN_START1$+3,,AUTO
         2 000034   000000 236000 3                  LDQ     0
         2 000035   200071 756100                    STQ     BIN_START1$+2,,AUTO
         2 000036   200015 633500                    EPPR3   ED_START$,,AUTO
         2 000037   200070 453500                    STP3    BIN_START1$+1,,AUTO
         2 000040   200070 630500                    EPPR0   BIN_START1$+1,,AUTO
         2 000041   000021 631400 xsym               EPPR1   B_VECTNIL+17
         2 000042   000000 701000 xent               TSX1    VXA$GET
         2 000043   000000 011000                    NOP     0

      711    11284        /**/
      712    11285        /*                                                 Move ed to temp space
      713    11286        /**/
      714    11287    3                 VX_TARGET_COUNT = ED_SIZE * 4/*@CHAR_WORD*/;

  11287  2 000044   200047 235100                    LDA     ED_SIZE,,AUTO
         2 000045   000002 735000                    ALS     2
         2 000046   000000 755000 xsym               STA     VX_TARGET_COUNT

      715    11288    3                 VX_SOURCE_COUNT = VX_TARGET_COUNT;

  11288  2 000047   000000 755000 xsym               STA     VX_SOURCE_COUNT

      716    11289    3                 ED_START$ -> VX$TARGET_C      =

  11289  2 000050   000000 470400 xsym               LDP0    VX_CURR$
         2 000051   000034 471500                    LDP1    28,,PR0
         2 000052   000000 620005                    EAX0    0,AL
PL6.E3A0      #002=VXO$COMPACT File=VXO$OBJECT.:E05TSI                           WED 07/30/97 08:27 Page:183
         2 000053   200015 473500                    LDP3    ED_START$,,AUTO
         2 000054   000000 721000 xsym               LXL1    VX_TARGET_COUNT
         2 000055   040140 100540                    MLR     fill='040'O
         2 000056   100000 000010                    ADSC9   0,,PR1                   cn=0,n=*X0
         2 000057   300000 000011                    ADSC9   0,,PR3                   cn=0,n=*X1

      717    11290    3                         VX_CURR$ -> VX$NODE.L_START.ED$ -> VX$SOURCE_C;
      718    11291    3                 ED_STOP$ = PINCRW( ED_START$, ED_SIZE - SIZEW( B$EDEF) );

  11291  2 000060   200047 236100                    LDQ     ED_SIZE,,AUTO
         2 000061   000022 736000                    QLS     18
         2 000062   000002 136003                    SBLQ    2,DU
         2 000063   200015 036100                    ADLQ    ED_START$,,AUTO
         2 000064   200022 756100                    STQ     ED_STOP$,,AUTO

      719    11292    3                 BIN_N$ = VX_CURR$ -> VX$NODE.L_START.DN$;

  11292  2 000065   000000 470400 xsym               LDP0    VX_CURR$
         2 000066   000031 236100                    LDQ     25,,PR0
         2 000067   200057 756100                    STQ     BIN_N$,,AUTO

      720    11293    3                 CALL VXQ$SORT( BIN_N$,

  11293  2 000070   000001 236000 3                  LDQ     1
         2 000071   200076 756100                    STQ     BIN_START1$+7,,AUTO
         2 000072   000002 237000 3                  LDAQ    2
         2 000073   200074 757100                    STAQ    BIN_START1$+5,,AUTO
         2 000074   000003 236000 3                  LDQ     3
         2 000075   200073 756100                    STQ     BIN_START1$+4,,AUTO
         2 000076   200022 631500                    EPPR1   ED_STOP$,,AUTO
         2 000077   200072 451500                    STP1    BIN_START1$+3,,AUTO
         2 000100   200015 633500                    EPPR3   ED_START$,,AUTO
         2 000101   200071 453500                    STP3    BIN_START1$+2,,AUTO
         2 000102   200057 634500                    EPPR4   BIN_N$,,AUTO
         2 000103   200070 454500                    STP4    BIN_START1$+1,,AUTO
         2 000104   200070 630500                    EPPR0   BIN_START1$+1,,AUTO
         2 000105   000025 631400 xsym               EPPR1   B_VECTNIL+21
PL6.E3A0      #002=VXO$COMPACT File=VXO$OBJECT.:E05TSI                           WED 07/30/97 08:27 Page:184
         2 000106   000000 701000 xent               TSX1    VXQ$SORT
         2 000107   000000 011000                    NOP     0

      721    11294    3                         ED_START$,
      722    11295    3                         ED_STOP$,
      723    11296    3                         SIZEW( B$EDEF ),
      724    11297    3                         1/*@BY_NAME*/,
      725    11298    3                         2,
      726    11299    3                         0 );
      727    11300        /**/
      728    11301        /*                                                Now begin to process the entref's
      729    11302        /**/
      730    11303    3                 ER_START$ = VX_CURR$ -> VX$NODE.L_START.ER$;

  11303  2 000110   000000 470400 xsym               LDP0    VX_CURR$
         2 000111   000035 236100                    LDQ     29,,PR0
         2 000112   200017 756100                    STQ     ER_START$,,AUTO

      731    11304    3                 ER_STOP$ = VX_CURR$ -> VX$NODE.L_STOP.ER$;

  11304  2 000113   000047 236100                    LDQ     39,,PR0
         2 000114   200023 756100                    STQ     ER_STOP$,,AUTO

      732    11305    3                 ER_SIZE = VX_CURR$ -> VX$NODE.L_SIZE.ER;

  11305  2 000115   000061 235100                    LDA     49,,PR0
         2 000116   200050 755100                    STA     ER_SIZE,,AUTO

      733    11306                      %ALLOCATE(
      734    11307                      PTR$ = TEMP_ER_START$,
      735    11308                      TYPE = @ER_DS_1,
      736    11309                      SIZE = ER_SIZE);

  11310  2 000117   000001 236000 xsym               LDQ     VX_M_ALL+1
         2 000120   000001 136000 xsym               SBLQ    VX_M_FREE+1
         2 000121   000134 604000 2                  TMI     s:11314
         2 000122   200050 116100                    CMPQ    ER_SIZE,,AUTO
PL6.E3A0      #002=VXO$COMPACT File=VXO$OBJECT.:E05TSI                           WED 07/30/97 08:27 Page:185
         2 000123   000134 602000 2                  TNC     s:11314

  11311  2 000124   000001 236000 xsym               LDQ     VX_M_FREE+1
         2 000125   000022 736000                    QLS     18
         2 000126   000001 036000 xsym               ADLQ    VX_M_BASE_PTR+1
         2 000127   200020 756100                    STQ     TEMP_ER_START$,,AUTO

  11312  2 000130   000001 236000 xsym               LDQ     VX_M_FREE+1
         2 000131   200050 036100                    ADLQ    ER_SIZE,,AUTO
         2 000132   000001 756000 xsym               STQ     VX_M_FREE+1

  11313  2 000133   000146 710000 2                  TRA     s:11316

  11314  2 000134   200050 631500                    EPPR1   ER_SIZE,,AUTO
         2 000135   200072 451500                    STP1    BIN_START1$+3,,AUTO
         2 000136   000002 236000 3                  LDQ     2
         2 000137   200071 756100                    STQ     BIN_START1$+2,,AUTO
         2 000140   200020 633500                    EPPR3   TEMP_ER_START$,,AUTO
         2 000141   200070 453500                    STP3    BIN_START1$+1,,AUTO
         2 000142   200070 630500                    EPPR0   BIN_START1$+1,,AUTO
         2 000143   000021 631400 xsym               EPPR1   B_VECTNIL+17
         2 000144   000000 701000 xent               TSX1    VXA$GET
         2 000145   000000 011000                    NOP     0

      737    11316    3                 TEMP_ER_STOP$ = TEMP_ER_START$;

  11316  2 000146   200020 236100                    LDQ     TEMP_ER_START$,,AUTO
         2 000147   200024 756100                    STQ     TEMP_ER_STOP$,,AUTO

      738    11317    3                 BIN_START$ = ED_START$;

  11317  2 000150   200015 236100                    LDQ     ED_START$,,AUTO
         2 000151   200054 756100                    STQ     BIN_START$,,AUTO

      739    11318    3                 BIN_STOP$ = ED_STOP$;

  11318  2 000152   200022 236100                    LDQ     ED_STOP$,,AUTO
PL6.E3A0      #002=VXO$COMPACT File=VXO$OBJECT.:E05TSI                           WED 07/30/97 08:27 Page:186
         2 000153   200055 756100                    STQ     BIN_STOP$,,AUTO

      740    11319    3                 TEMP_RN_SIZE = 0;

  11319  2 000154   200052 450100                    STZ     TEMP_RN_SIZE,,AUTO

      741    11320        /**/
      742    11321    4                 DO WHILE( ER_START$ <= ER_STOP$ );

  11321  2 000155   200023 236100                    LDQ     ER_STOP$,,AUTO
         2 000156   200017 116100                    CMPQ    ER_START$,,AUTO
         2 000157   000336 602000 2                  TNC     s:11407

      743    11322    4                     BIN_MATCH$ = PINCRW( RN_START$, ER_START$ -> B$EREF.NPOINTER );

  11322  2 000160   200017 470500                    LDP0    ER_START$,,AUTO
         2 000161   000000 220100                    LDX0    0,,PR0
         2 000162   000000 636010                    EAQ     0,X0
         2 000163   200016 036100                    ADLQ    RN_START$,,AUTO
         2 000164   200060 756100                    STQ     BIN_MATCH$,,AUTO

      744    11323        /**/
      745    11324                          %BIN_SEARCH(
      746    11325                          START$=BIN_START$,
      747    11326                          STOP$=BIN_STOP$,
      748    11327                          RESULT$=BIN_RESULT$,
      749    11328                          N$=BIN_N$,
      750    11329                          MATCH$=BIN_MATCH$,
      751    11330                          NAME_DISP=2,
      752    11331                          SIZE="SIZEW(B$EDEF)",
      753    11332                          NEG=%@COMMENT,
      754    11333                          GEN=%@TNEMMOC,
      755    11334                          SPLIT=COMP_SPLIT,
      756    11335                          FOUND=COMP_FOUND,
      757    11336                          CHECK=COMP_CHECK,
      758    11337                          ALTRETURN=COMP_NOT_FOUND,
      759    11338                          EMPTY=COMP_NOT_FOUND);
PL6.E3A0      #002=VXO$COMPACT File=VXO$OBJECT.:E05TSI                           WED 07/30/97 08:27 Page:187
             11340    4           IF BIN_START$ = ADDR(NIL) THEN GOTO COMP_NOT_FOUND;

  11340  2 000165   200054 236100                    LDQ     BIN_START$,,AUTO
         2 000166   000001 116000 xsym               CMPQ    B_VECTNIL+1
         2 000167   000312 600000 2                  TZE     COMP_NOT_FOUND

             11341    5           IF POFFW( BIN_STOP$, BIN_START$ ) / SIZEW(B$EDEF) < 17 THEN DO;

  11341  2 000170   200054 235100                    LDA     BIN_START$,,AUTO
         2 000171   000022 771000                    ARL     18
         2 000172   200070 755100                    STA     BIN_START1$+1,,AUTO
         2 000173   200055 236100                    LDQ     BIN_STOP$,,AUTO
         2 000174   000022 772000                    QRL     18
         2 000175   200070 136100                    SBLQ    BIN_START1$+1,,AUTO
         2 000176   000002 506007                    DIV     2,DL
         2 000177   000021 116007                    CMPQ    17,DL
         2 000200   000234 605000 2                  TPL     s:11358

             11342    5              BIN_RESULT$ = BIN_START$;        /* Sequential search                 */

  11342  2 000201   200054 236100                    LDQ     BIN_START$,,AUTO
         2 000202   200056 756100                    STQ     BIN_RESULT$,,AUTO

             11343    6              DO WHILE( BIN_RESULT$ <= BIN_STOP$ );

  11343  2 000203   200055 116100                    CMPQ    BIN_STOP$,,AUTO
         2 000204   000206 600000 2                  TZE     s:11344
         2 000205   000233 603000 2                  TRC     s:11355

             11344    6                 BIN_NTEMP$ = PINCRW( BIN_N$, BIN_RESULT$ -> VX$TMPLT.A(2) );

  11344  2 000206   200056 470500                    LDP0    BIN_RESULT$,,AUTO
         2 000207   000001 220100                    LDX0    1,,PR0
         2 000210   000000 636010                    EAQ     0,X0
         2 000211   200057 036100                    ADLQ    BIN_N$,,AUTO
         2 000212   200066 756100                    STQ     BIN_NTEMP$,,AUTO

PL6.E3A0      #002=VXO$COMPACT File=VXO$OBJECT.:E05TSI                           WED 07/30/97 08:27 Page:188
             11345    6                 IF BIN_NTEMP$ -> B$DNAME.TEXT

  11345  2 000213   200066 471500                    LDP1    BIN_NTEMP$,,AUTO
         2 000214   100000 221100                    LDX1    0,,PR1
         2 000215   200060 473500                    LDP3    BIN_MATCH$,,AUTO
         2 000216   300000 222100                    LDX2    0,,PR3
         2 000217   040140 106540                    CMPC    fill='040'O
         2 000220   100000 400011                    ADSC9   0,,PR1                   cn=2,n=*X1
         2 000221   300000 400012                    ADSC9   0,,PR3                   cn=2,n=*X2
         2 000222   000225 602000 2                  TNC     s:11353

             11346    6                   >=
             11347    7                   BIN_MATCH$ -> B$DNAME.TEXT THEN DO;

             11348    7                    IF BIN_NTEMP$ -> B$DNAME.TEXT

  11348  2 000223   000311 600000 2                  TZE     COMP_FOUND

             11349    7                      =
             11350    7                      BIN_MATCH$ -> B$DNAME.TEXT THEN GOTO COMP_FOUND;
             11351    7                    ELSE GOTO COMP_NOT_FOUND;

  11351  2 000224   000312 710000 2                  TRA     COMP_NOT_FOUND

             11352    7                    END;
             11353    6                 BIN_RESULT$ = PINCRW( BIN_RESULT$, SIZEW(B$EDEF) );

  11353  2 000225   200056 236100                    LDQ     BIN_RESULT$,,AUTO
         2 000226   000002 036003                    ADLQ    2,DU
         2 000227   200056 756100                    STQ     BIN_RESULT$,,AUTO

             11354    6                 END;                      /* Do while                           */

  11354  2 000230   200055 116100                    CMPQ    BIN_STOP$,,AUTO
         2 000231   000206 602000 2                  TNC     s:11344
         2 000232   000206 600000 2                  TZE     s:11344

PL6.E3A0      #002=VXO$COMPACT File=VXO$OBJECT.:E05TSI                           WED 07/30/97 08:27 Page:189
             11355    5              GOTO COMP_NOT_FOUND;

  11355  2 000233   000312 710000 2                  TRA     COMP_NOT_FOUND

             11356    5              END; /* If poffw( STOP$, START$ ) / size < TRADE_OFF_POINT then do; */
             11357    5           ELSE DO;                        /* Binary search                      */

             11358    5              BIN_LOW = 0;

  11358  2 000234   200063 450100                    STZ     BIN_LOW,,AUTO

             11359    5              BIN_HIGH = POFFW( BIN_STOP$, BIN_START$ ) / SIZEW(B$EDEF) + 2;

  11359  2 000235   200054 235100                    LDA     BIN_START$,,AUTO
         2 000236   000022 771000                    ARL     18
         2 000237   200070 755100                    STA     BIN_START1$+1,,AUTO
         2 000240   200055 236100                    LDQ     BIN_STOP$,,AUTO
         2 000241   000022 772000                    QRL     18
         2 000242   200070 136100                    SBLQ    BIN_START1$+1,,AUTO
         2 000243   000002 506007                    DIV     2,DL
         2 000244   000002 036007                    ADLQ    2,DL
         2 000245   200064 756100                    STQ     BIN_HIGH,,AUTO

             11360    5              BIN_START1$ = PINCRW( BIN_START$, -SIZEW(B$EDEF) );

  11360  2 000246   200054 236100                    LDQ     BIN_START$,,AUTO
         2 000247   777776 036003                    ADLQ    -2,DU
         2 000250   200067 756100                    STQ     BIN_START1$,,AUTO

  11360  2 000251                       COMP_SPLIT   null
             11361    5   COMP_SPLIT:     ;
             11362    5              BIN_MID = ( BIN_LOW + BIN_HIGH ) / 2;

  11362  2 000251   200063 236100                    LDQ     BIN_LOW,,AUTO
         2 000252   200064 036100                    ADLQ    BIN_HIGH,,AUTO
         2 000253   000001 772000                    QRL     1
         2 000254   200065 756100                    STQ     BIN_MID,,AUTO
PL6.E3A0      #002=VXO$COMPACT File=VXO$OBJECT.:E05TSI                           WED 07/30/97 08:27 Page:190

             11363    5              BIN_RESULT$ = PINCRW( BIN_START1$, BIN_MID*SIZEW(B$EDEF) );

  11363  2 000255   000023 736000                    QLS     19
         2 000256   200067 036100                    ADLQ    BIN_START1$,,AUTO
         2 000257   200056 756100                    STQ     BIN_RESULT$,,AUTO

             11364    5              BIN_NTEMP$ = PINCRW( BIN_N$, BIN_RESULT$ -> VX$TMPLT.A(2) );

  11364  2 000260   200056 470500                    LDP0    BIN_RESULT$,,AUTO
         2 000261   000001 220100                    LDX0    1,,PR0
         2 000262   000000 636010                    EAQ     0,X0
         2 000263   200057 036100                    ADLQ    BIN_N$,,AUTO
         2 000264   200066 756100                    STQ     BIN_NTEMP$,,AUTO

             11365    5              IF BIN_NTEMP$ -> B$DNAME.TEXT

  11365  2 000265   200066 471500                    LDP1    BIN_NTEMP$,,AUTO
         2 000266   100000 221100                    LDX1    0,,PR1
         2 000267   200060 473500                    LDP3    BIN_MATCH$,,AUTO
         2 000270   300000 222100                    LDX2    0,,PR3
         2 000271   040140 106540                    CMPC    fill='040'O
         2 000272   100000 400011                    ADSC9   0,,PR1                   cn=2,n=*X1
         2 000273   300000 400012                    ADSC9   0,,PR3                   cn=2,n=*X2
         2 000274   000300 603000 2                  TRC     s:11371

             11366    5                <
             11367    6                BIN_MATCH$ -> B$DNAME.TEXT THEN DO;

             11368    6                 BIN_LOW = BIN_MID;

  11368  2 000275   200065 235100                    LDA     BIN_MID,,AUTO
         2 000276   200063 755100                    STA     BIN_LOW,,AUTO

             11369    6                 GOTO COMP_CHECK;

  11369  2 000277   000304 710000 2                  TRA     COMP_CHECK
PL6.E3A0      #002=VXO$COMPACT File=VXO$OBJECT.:E05TSI                           WED 07/30/97 08:27 Page:191

             11370    6                 END;
             11371    5              IF BIN_NTEMP$ -> B$DNAME.TEXT

  11371  2 000300   000311 602000 2                  TNC     COMP_FOUND
         2 000301   000311 600000 2                  TZE     COMP_FOUND

             11372    5                >
             11373    6                BIN_MATCH$ -> B$DNAME.TEXT THEN DO;

             11374    6                 BIN_HIGH = BIN_MID;

  11374  2 000302   200065 235100                    LDA     BIN_MID,,AUTO
         2 000303   200064 755100                    STA     BIN_HIGH,,AUTO

  11374  2 000304                       COMP_CHECK   null
             11375    6   COMP_CHECK:        ;
             11376    6                 IF BIN_LOW + 1    < BIN_HIGH THEN GOTO COMP_SPLIT;

  11376  2 000304   200063 236100                    LDQ     BIN_LOW,,AUTO
         2 000305   000001 036007                    ADLQ    1,DL
         2 000306   200064 116100                    CMPQ    BIN_HIGH,,AUTO
         2 000307   000251 602000 2                  TNC     COMP_SPLIT

             11377                                                /* Here => looping or not found       */
             11378                                      /* Result -> < match => a boundary condition    */
             11379    6                 /*
             11380    6                   IF PINCRW( BIN_N$, BIN_RESULT$ -> VX$TMPLT.A(2) ) -> B$DNAME.TEXT
             11381    6                   <
             11382    6                   BIN_MATCH$ -> B$DNAME.TEXT THEN BIN_RESULT$ = PINCRW( BIN_RESULT$,
             11382                            SIZEW(B$EDEF) );
             11383    6                 /**/
             11384    6                   GOTO COMP_NOT_FOUND;

  11384  2 000310   000312 710000 2                  TRA     COMP_NOT_FOUND

             11385    6                 END;
PL6.E3A0      #002=VXO$COMPACT File=VXO$OBJECT.:E05TSI                           WED 07/30/97 08:27 Page:192
             11386    5              END;                         /* Else do;                           */
             11387    4   COMP_FOUND:
             11388        /* Here -> found */
      760    11390        /**/
      761    11391    4                     GOTO NEXT_ER;

  11391  2 000311   000330 710000 2     COMP_FOUND   TRA     NEXT_ER

      762    11392    4   COMP_NOT_FOUND:
      763    11393    4                     TEMP_RN_SIZE = TEMP_RN_SIZE +

  11393  2 000312   200060 470500       COMP_NOT_FO* LDP0    BIN_MATCH$,,AUTO
         2 000313   000000 236100                    LDQ     0,,PR0
         2 000314   000022 772000                    QRL     18
         2 000315   000005 036007                    ADLQ    5,DL
         2 000316   000002 772000                    QRL     2
         2 000317   200052 036100                    ADLQ    TEMP_RN_SIZE,,AUTO
         2 000320   200052 756100                    STQ     TEMP_RN_SIZE,,AUTO

      764    11394                                  %TEXTH_SIZEW(
      765    11395                                  CNT="BIN_MATCH$->B$DNAME.COUNT");
      766    11398    4                     ;
      767    11399    4                     TEMP_ER_STOP$ -> B$EREF = ER_START$ -> B$EREF;

  11399  2 000321   200017 471500                    LDP1    ER_START$,,AUTO
         2 000322   100000 236100                    LDQ     0,,PR1
         2 000323   200024 473500                    LDP3    TEMP_ER_STOP$,,AUTO
         2 000324   300000 756100                    STQ     0,,PR3

      768    11400    4                     TEMP_ER_STOP$ = PINCRW( TEMP_ER_STOP$, SIZEW( B$EREF ) );

  11400  2 000325   200024 236100                    LDQ     TEMP_ER_STOP$,,AUTO
         2 000326   000001 036003                    ADLQ    1,DU
         2 000327   200024 756100                    STQ     TEMP_ER_STOP$,,AUTO

      769    11401    4   NEXT_ER:
      770    11402    4                     ER_START$ = PINCRW( ER_START$, SIZEW( B$EREF ) );
PL6.E3A0      #002=VXO$COMPACT File=VXO$OBJECT.:E05TSI                           WED 07/30/97 08:27 Page:193

  11402  2 000330   200017 236100       NEXT_ER      LDQ     ER_START$,,AUTO
         2 000331   000001 036003                    ADLQ    1,DU
         2 000332   200017 756100                    STQ     ER_START$,,AUTO

      771    11403    4                    END;                   /* Do while( ER_START$ <= ER_STOP$ ); */

  11403  2 000333   200023 116100                    CMPQ    ER_STOP$,,AUTO
         2 000334   000160 602000 2                  TNC     s:11322
         2 000335   000160 600000 2                  TZE     s:11322

      772    11404        /**/
      773    11405        /*                                                 Release temp space for entdef's
      774    11406        /**/
      775    11407    3                 CALL VXF$FREE(      5/*@ED_DS_1*/, ED_SIZE, 0 );

  11407  2 000336   000001 236000 3                  LDQ     1
         2 000337   200072 756100                    STQ     BIN_START1$+3,,AUTO
         2 000340   200047 630500                    EPPR0   ED_SIZE,,AUTO
         2 000341   200071 450500                    STP0    BIN_START1$+2,,AUTO
         2 000342   000000 236000 3                  LDQ     0
         2 000343   200070 756100                    STQ     BIN_START1$+1,,AUTO
         2 000344   200070 630500                    EPPR0   BIN_START1$+1,,AUTO
         2 000345   000021 631400 xsym               EPPR1   B_VECTNIL+17
         2 000346   000000 701000 xent               TSX1    VXF$FREE
         2 000347   000000 011000                    NOP     0

      776    11408    4                 IF TEMP_ER_STOP$ > TEMP_ER_START$ THEN DO;

  11408  2 000350   200020 236100                    LDQ     TEMP_ER_START$,,AUTO
         2 000351   200024 116100                    CMPQ    TEMP_ER_STOP$,,AUTO
         2 000352   000547 603000 2                  TRC     s:11457

      777    11409        /**/
      778    11410    5                     IF TEMP_ER_STOP$ > PINCRW( TEMP_ER_START$, SIZEW( B$EREF) ) THEN
             11410                              DO;

PL6.E3A0      #002=VXO$COMPACT File=VXO$OBJECT.:E05TSI                           WED 07/30/97 08:27 Page:194
  11410  2 000353   000001 036003                    ADLQ    1,DU
         2 000354   200024 116100                    CMPQ    TEMP_ER_STOP$,,AUTO
         2 000355   000477 603000 2                  TRC     s:11443

      779    11411    5                         ER_START$ = TEMP_ER_START$;

  11411  2 000356   200020 236100                    LDQ     TEMP_ER_START$,,AUTO
         2 000357   200017 756100                    STQ     ER_START$,,AUTO

      780    11412    5                         ER_STOP$  = PINCRW( TEMP_ER_STOP$, -SIZEW( B$EREF ) );

  11412  2 000360   200024 236100                    LDQ     TEMP_ER_STOP$,,AUTO
         2 000361   777777 036003                    ADLQ    -1,DU
         2 000362   200023 756100                    STQ     ER_STOP$,,AUTO

      781    11413    5                         CALL VXQ$SORT( RN_START$,

  11413  2 000363   000001 236000 3                  LDQ     1
         2 000364   200076 756100                    STQ     BIN_START1$+7,,AUTO
         2 000365   000004 237000 3                  LDAQ    4
         2 000366   200074 757100                    STAQ    BIN_START1$+5,,AUTO
         2 000367   000002 236000 3                  LDQ     2
         2 000370   200073 756100                    STQ     BIN_START1$+4,,AUTO
         2 000371   200023 630500                    EPPR0   ER_STOP$,,AUTO
         2 000372   200072 450500                    STP0    BIN_START1$+3,,AUTO
         2 000373   200017 631500                    EPPR1   ER_START$,,AUTO
         2 000374   200071 451500                    STP1    BIN_START1$+2,,AUTO
         2 000375   200016 633500                    EPPR3   RN_START$,,AUTO
         2 000376   200070 453500                    STP3    BIN_START1$+1,,AUTO
         2 000377   200070 630500                    EPPR0   BIN_START1$+1,,AUTO
         2 000400   000025 631400 xsym               EPPR1   B_VECTNIL+21
         2 000401   000000 701000 xent               TSX1    VXQ$SORT
         2 000402   000000 011000                    NOP     0

      782    11414    5                                 ER_START$,
      783    11415    5                                 ER_STOP$,
      784    11416    5                                 SIZEW(B$EREF),
PL6.E3A0      #002=VXO$COMPACT File=VXO$OBJECT.:E05TSI                           WED 07/30/97 08:27 Page:195
      785    11417    5                                 1/*@BY_NAME*/,
      786    11418    5                                 0,
      787    11419    5                                 0    );
      788    11420    5                         TEMP_ER_STOP$ = TEMP_ER_START$;

  11420  2 000403   200020 236100                    LDQ     TEMP_ER_START$,,AUTO
         2 000404   200024 756100                    STQ     TEMP_ER_STOP$,,AUTO

      789    11421        /**/
      790    11422    6                         DO WHILE( ER_START$ <= ER_STOP$ );

  11422  2 000405   200023 236100                    LDQ     ER_STOP$,,AUTO
         2 000406   200017 116100                    CMPQ    ER_START$,,AUTO
         2 000407   000477 602000 2                  TNC     s:11443

      791    11423    6                             BIN_MATCH$ = PINCRW( RN_START$, ER_START$ -> B$EREF.
             11423                                      NPOINTER );

  11423  2 000410   200017 470500                    LDP0    ER_START$,,AUTO
         2 000411   000000 220100                    LDX0    0,,PR0
         2 000412   000000 636010                    EAQ     0,X0
         2 000413   200016 036100                    ADLQ    RN_START$,,AUTO
         2 000414   200060 756100                    STQ     BIN_MATCH$,,AUTO

      792    11424    6                             CURR_ER_START$ = ER_START$;

  11424  2 000415   200017 236100                    LDQ     ER_START$,,AUTO
         2 000416   200026 756100                    STQ     CURR_ER_START$,,AUTO

      793    11425    6                             ER_START$ = PINCRW( ER_START$, SIZEW( B$EREF ) );

  11425  2 000417   000001 036003                    ADLQ    1,DU
         2 000420   200017 756100                    STQ     ER_START$,,AUTO

      794    11426    7                             IF ER_START$ <= ER_STOP$ THEN DO;

  11426  2 000421   200023 116100                    CMPQ    ER_STOP$,,AUTO
PL6.E3A0      #002=VXO$COMPACT File=VXO$OBJECT.:E05TSI                           WED 07/30/97 08:27 Page:196
         2 000422   000424 600000 2                  TZE     s:11427
         2 000423   000462 603000 2                  TRC     JUMP_OUT_ER

      795    11427    8                                 DO WHILE( PINCRW( RN_START$, ER_START$ -> B$EREF.
             11427                                          NPOINTER ) ->

  11427  2 000424   200017 470500                    LDP0    ER_START$,,AUTO
         2 000425   000000 220100                    LDX0    0,,PR0
         2 000426   200016 471500                    LDP1    RN_START$,,AUTO
         2 000427   100000 221110                    LDX1    0,X0,PR1
         2 000430   200060 473500                    LDP3    BIN_MATCH$,,AUTO
         2 000431   300000 222100                    LDX2    0,,PR3
         2 000432   000000 635010                    EAA     0,X0
         2 000433   000020 731000                    ARS     16
         2 000434   040140 106545                    CMPC    fill='040'O
         2 000435   100000 400011                    ADSC9   0,A,PR1                  cn=2,n=*X1
         2 000436   300000 400012                    ADSC9   0,,PR3                   cn=2,n=*X2
         2 000437   000462 601000 2                  TNZ     JUMP_OUT_ER

      796    11428    8                                         B$DNAME.TEXT
      797    11429    8                                         =
      798    11430    8                                         BIN_MATCH$ -> B$DNAME.TEXT );
      799    11431    8                                     ER_START$ = PINCRW( ER_START$, SIZEW( B$EREF ) );

  11431  2 000440   200017 236100                    LDQ     ER_START$,,AUTO
         2 000441   000001 036003                    ADLQ    1,DU
         2 000442   200017 756100                    STQ     ER_START$,,AUTO

      800    11432    8                                     IF ER_START$ > ER_STOP$ THEN GOTO JUMP_OUT_ER;

  11432  2 000443   200023 116100                    CMPQ    ER_STOP$,,AUTO
         2 000444   000446 600000 2                  TZE     s:11433
         2 000445   000462 603000 2                  TRC     JUMP_OUT_ER

      801    11433    8                                    END;   /* Do while( pincrw ... */

  11433  2 000446   200017 470500                    LDP0    ER_START$,,AUTO
PL6.E3A0      #002=VXO$COMPACT File=VXO$OBJECT.:E05TSI                           WED 07/30/97 08:27 Page:197
         2 000447   000000 220100                    LDX0    0,,PR0
         2 000450   200016 471500                    LDP1    RN_START$,,AUTO
         2 000451   100000 221110                    LDX1    0,X0,PR1
         2 000452   200060 473500                    LDP3    BIN_MATCH$,,AUTO
         2 000453   300000 222100                    LDX2    0,,PR3
         2 000454   000000 635010                    EAA     0,X0
         2 000455   000020 731000                    ARS     16
         2 000456   040140 106545                    CMPC    fill='040'O
         2 000457   100000 400011                    ADSC9   0,A,PR1                  cn=2,n=*X1
         2 000460   300000 400012                    ADSC9   0,,PR3                   cn=2,n=*X2
         2 000461   000440 600000 2                  TZE     s:11431

      802    11434    7   JUMP_OUT_ER:
      803    11435        /**/
      804    11436    7                                END;       /* If ER_START$ <= ER_STOP$ then do; */

  11436  2 000462                       JUMP_OUT_ER  null
      805    11437    6                             IF TEMP_ER_STOP$ ~= CURR_ER_START$ THEN

  11437  2 000462   200024 236100                    LDQ     TEMP_ER_STOP$,,AUTO
         2 000463   200026 116100                    CMPQ    CURR_ER_START$,,AUTO
         2 000464   000471 600000 2                  TZE     s:11439

      806    11438    6                                 TEMP_ER_STOP$ -> B$EREF = CURR_ER_START$ -> B$EREF;

  11438  2 000465   200026 470500                    LDP0    CURR_ER_START$,,AUTO
         2 000466   000000 236100                    LDQ     0,,PR0
         2 000467   200024 471500                    LDP1    TEMP_ER_STOP$,,AUTO
         2 000470   100000 756100                    STQ     0,,PR1

      807    11439    6                             TEMP_ER_STOP$ = PINCRW( TEMP_ER_STOP$, SIZEW( B$EREF ) );

  11439  2 000471   200024 236100                    LDQ     TEMP_ER_STOP$,,AUTO
         2 000472   000001 036003                    ADLQ    1,DU
         2 000473   200024 756100                    STQ     TEMP_ER_STOP$,,AUTO

      808    11440    6                            END;           /* Do while( ER_START$ < ER_STOP$ ); */
PL6.E3A0      #002=VXO$COMPACT File=VXO$OBJECT.:E05TSI                           WED 07/30/97 08:27 Page:198

  11440  2 000474   200023 236100                    LDQ     ER_STOP$,,AUTO
         2 000475   200017 116100                    CMPQ    ER_START$,,AUTO
         2 000476   000410 603000 2                  TRC     s:11423

      809    11441    5                        END;
             11441                /* If TEMP_ER_STOP$ > pincrw( TEMP_ER_START$, sizew( B$EREF ) ) then do; */

      810    11442        /**/
      811    11443    4                     TEMP_ER_SIZE = POFFW( TEMP_ER_STOP$, TEMP_ER_START$ ) * SIZEW(
             11443                              B$EREF );

  11443  2 000477   200020 235100                    LDA     TEMP_ER_START$,,AUTO
         2 000500   000022 771000                    ARL     18
         2 000501   200070 755100                    STA     BIN_START1$+1,,AUTO
         2 000502   200024 236100                    LDQ     TEMP_ER_STOP$,,AUTO
         2 000503   000022 772000                    QRL     18
         2 000504   200070 136100                    SBLQ    BIN_START1$+1,,AUTO
         2 000505   200051 756100                    STQ     TEMP_ER_SIZE,,AUTO

      812    11444    4                     VX_TARGET_COUNT = TEMP_ER_SIZE * 4/*@CHAR_WORD*/;

  11444  2 000506   200051 235100                    LDA     TEMP_ER_SIZE,,AUTO
         2 000507   000002 735000                    ALS     2
         2 000510   000000 755000 xsym               STA     VX_TARGET_COUNT

      813    11445    4                     VX_SOURCE_COUNT = VX_TARGET_COUNT; /* Move new list over old */

  11445  2 000511   000000 755000 xsym               STA     VX_SOURCE_COUNT

      814    11446    4                     VX_CURR$ -> VX$NODE.L_START.ER$ -> VX$TARGET_C =

  11446  2 000512   000000 470400 xsym               LDP0    VX_CURR$
         2 000513   000035 471500                    LDP1    29,,PR0
         2 000514   200020 473500                    LDP3    TEMP_ER_START$,,AUTO
         2 000515   000000 620005                    EAX0    0,AL
         2 000516   000000 721000 xsym               LXL1    VX_TARGET_COUNT
PL6.E3A0      #002=VXO$COMPACT File=VXO$OBJECT.:E05TSI                           WED 07/30/97 08:27 Page:199
         2 000517   040140 100540                    MLR     fill='040'O
         2 000520   300000 000010                    ADSC9   0,,PR3                   cn=0,n=*X0
         2 000521   100000 000011                    ADSC9   0,,PR1                   cn=0,n=*X1

      815    11447    4                             TEMP_ER_START$ -> VX$SOURCE_C;
      816    11448    4                     VX_CURR$ -> VX$NODE.L_STOP.ER$ =

  11448  2 000522   000000 470400 xsym               LDP0    VX_CURR$
         2 000523   000035 471500                    LDP1    29,,PR0
         2 000524   177777 633506                    EPPR3   -1,QL,PR1
         2 000525   000047 453500                    STP3    39,,PR0

      817    11449    4                             PINCRW( VX_CURR$ -> VX$NODE.L_START.ER$,
      818    11450    4                             TEMP_ER_SIZE - SIZEW( B$EREF ) );
      819    11451    4                     VX_CURR$ -> VX$NODE.L_SIZE.ER  = TEMP_ER_SIZE;

  11451  2 000526   200051 235100                    LDA     TEMP_ER_SIZE,,AUTO
         2 000527   000061 755100                    STA     49,,PR0

      820    11452    4                     VX_CURR$ -> VX$NODE.L_PREV_SIZE.ER = 0;

  11452  2 000530   000073 450100                    STZ     59,,PR0

      821    11453        /**/
      822    11454    4                     CALL VXF$FREE(     1/*@ER_DS_1*/, ER_SIZE+ER_SIZE-TEMP_ER_SIZE, 1
             11454                              );

  11454  2 000531   200050 236100                    LDQ     ER_SIZE,,AUTO
         2 000532   200050 036100                    ADLQ    ER_SIZE,,AUTO
         2 000533   200051 136100                    SBLQ    TEMP_ER_SIZE,,AUTO
         2 000534   200070 756100                    STQ     BIN_START1$+1,,AUTO
         2 000535   000002 236000 3                  LDQ     2
         2 000536   200073 756100                    STQ     BIN_START1$+4,,AUTO
         2 000537   200070 631500                    EPPR1   BIN_START1$+1,,AUTO
         2 000540   200072 451500                    STP1    BIN_START1$+3,,AUTO
         2 000541   200071 756100                    STQ     BIN_START1$+2,,AUTO
         2 000542   200071 630500                    EPPR0   BIN_START1$+2,,AUTO
PL6.E3A0      #002=VXO$COMPACT File=VXO$OBJECT.:E05TSI                           WED 07/30/97 08:27 Page:200
         2 000543   000021 631400 xsym               EPPR1   B_VECTNIL+17
         2 000544   000000 701000 xent               TSX1    VXF$FREE
         2 000545   000000 011000                    NOP     0

      823    11455    4                    END;           /* If TEMP_ER_STOP$ > TEMP_ER_START$ then do; */

  11455  2 000546   000574 710000 2                  TRA     s:11475

      824    11456    4                 ELSE DO;      /* TEMP_ER_STOP$ = TEMP_ER_START$ => all matched */

      825    11457    4                     CALL VXF$FREE( 1/*@ER_DS_1*/, ER_SIZE+ER_SIZE, 1);

  11457  2 000547   200050 236100                    LDQ     ER_SIZE,,AUTO
         2 000550   200050 036100                    ADLQ    ER_SIZE,,AUTO
         2 000551   200070 756100                    STQ     BIN_START1$+1,,AUTO
         2 000552   000002 236000 3                  LDQ     2
         2 000553   200073 756100                    STQ     BIN_START1$+4,,AUTO
         2 000554   200070 630500                    EPPR0   BIN_START1$+1,,AUTO
         2 000555   200072 450500                    STP0    BIN_START1$+3,,AUTO
         2 000556   200071 756100                    STQ     BIN_START1$+2,,AUTO
         2 000557   200071 630500                    EPPR0   BIN_START1$+2,,AUTO
         2 000560   000021 631400 xsym               EPPR1   B_VECTNIL+17
         2 000561   000000 701000 xent               TSX1    VXF$FREE
         2 000562   000000 011000                    NOP     0

      826    11458    4                     VX_CURR$ -> VX$NODE.L_START.ER$ = ADDR(NIL);

  11458  2 000563   000001 236000 xsym               LDQ     B_VECTNIL+1
         2 000564   000000 470400 xsym               LDP0    VX_CURR$
         2 000565   000035 756100                    STQ     29,,PR0

      827    11459    4                     VX_CURR$ -> VX$NODE.L_STOP.ER$ = ADDR(NIL);

  11459  2 000566   000047 756100                    STQ     39,,PR0

      828    11460    4                     VX_CURR$ -> VX$NODE.L_SIZE.ER = 0;

PL6.E3A0      #002=VXO$COMPACT File=VXO$OBJECT.:E05TSI                           WED 07/30/97 08:27 Page:201
  11460  2 000567   000061 450100                    STZ     49,,PR0

      829    11461    4                     VX_CURR$ -> VX$NODE.L_PREV_SIZE.ER = 0;

  11461  2 000570   000073 450100                    STZ     59,,PR0

      830    11462    4                     GOTO POP_RN_NAME;

  11462  2 000571   000754 710000 2                  TRA     POP_RN_NAME

      831    11463    4                    END;                   /* Else do; */
      832    11464    3                END; /* If VX_CURR$ -> VX$NODE.L_START.ED$ ~= addr(nil) then do; */
      833    11465    3             ELSE DO;

      834    11466    3                 TEMP_RN_SIZE = VX_CURR$ -> VX$NODE.L_SIZE.RN;

  11466  2 000572   000056 235100                    LDA     46,,PR0
         2 000573   200052 755100                    STA     TEMP_RN_SIZE,,AUTO

      835    11467    3                END;                       /* Else do; */

      836    11468        /**/
      837    11469        /*                                   Allocate space to rebuild the name pool */
      838    11470        /**/
      839    11471                  %ALLOCATE(
      840    11472                  PTR$ = TEMP_RN_START$,
      841    11473                  TYPE = @RN_DS_1,
      842    11474                  SIZE = TEMP_RN_SIZE );

  11475  2 000574   000000 236000 xsym               LDQ     VX_M_ALL
         2 000575   000000 136000 xsym               SBLQ    VX_M_FREE
         2 000576   000611 604000 2                  TMI     s:11479
         2 000577   200052 116100                    CMPQ    TEMP_RN_SIZE,,AUTO
         2 000600   000611 602000 2                  TNC     s:11479

  11476  2 000601   000000 236000 xsym               LDQ     VX_M_FREE
         2 000602   000022 736000                    QLS     18
PL6.E3A0      #002=VXO$COMPACT File=VXO$OBJECT.:E05TSI                           WED 07/30/97 08:27 Page:202
         2 000603   000000 036000 xsym               ADLQ    VX_M_BASE_PTR
         2 000604   200021 756100                    STQ     TEMP_RN_START$,,AUTO

  11477  2 000605   000000 236000 xsym               LDQ     VX_M_FREE
         2 000606   200052 036100                    ADLQ    TEMP_RN_SIZE,,AUTO
         2 000607   000000 756000 xsym               STQ     VX_M_FREE

  11478  2 000610   000623 710000 2                  TRA     s:11481

  11479  2 000611   200052 630500                    EPPR0   TEMP_RN_SIZE,,AUTO
         2 000612   200072 450500                    STP0    BIN_START1$+3,,AUTO
         2 000613   000001 236000 3                  LDQ     1
         2 000614   200071 756100                    STQ     BIN_START1$+2,,AUTO
         2 000615   200021 631500                    EPPR1   TEMP_RN_START$,,AUTO
         2 000616   200070 451500                    STP1    BIN_START1$+1,,AUTO
         2 000617   200070 630500                    EPPR0   BIN_START1$+1,,AUTO
         2 000620   000021 631400 xsym               EPPR1   B_VECTNIL+17
         2 000621   000000 701000 xent               TSX1    VXA$GET
         2 000622   000000 011000                    NOP     0

      843    11481    2             TEMP_RN_STOP$ = TEMP_RN_START$;

  11481  2 000623   200021 236100                    LDQ     TEMP_RN_START$,,AUTO
         2 000624   200025 756100                    STQ     TEMP_RN_STOP$,,AUTO

      844    11482    2             ER_START$ = VX_CURR$ -> VX$NODE.L_START.ER$;

  11482  2 000625   000000 470400 xsym               LDP0    VX_CURR$
         2 000626   000035 236100                    LDQ     29,,PR0
         2 000627   200017 756100                    STQ     ER_START$,,AUTO

      845    11483    2             ER_STOP$  = VX_CURR$ -> VX$NODE.L_STOP.ER$;

  11483  2 000630   000047 236100                    LDQ     39,,PR0
         2 000631   200023 756100                    STQ     ER_STOP$,,AUTO

      846    11484        /**/
PL6.E3A0      #002=VXO$COMPACT File=VXO$OBJECT.:E05TSI                           WED 07/30/97 08:27 Page:203
      847    11485    3             DO WHILE( ER_START$ <= ER_STOP$ );

  11485  2 000632   200017 116100                    CMPQ    ER_START$,,AUTO
         2 000633   000700 602000 2                  TNC     s:11504

      848    11486    3                 WHERE$ = PINCRW( RN_START$,

  11486  2 000634   200017 470500                    LDP0    ER_START$,,AUTO
         2 000635   000000 220100                    LDX0    0,,PR0
         2 000636   000000 636010                    EAQ     0,X0
         2 000637   200016 036100                    ADLQ    RN_START$,,AUTO
         2 000640   200011 756100                    STQ     WHERE$,,AUTO

      849    11487    3                         ER_START$ -> B$EREF.NPOINTER );
      850    11488    3                ER_START$ -> B$EREF.NPOINTER = POFFW( TEMP_RN_STOP$, TEMP_RN_START$ );

  11488  2 000641   200021 235100                    LDA     TEMP_RN_START$,,AUTO
         2 000642   000022 771000                    ARL     18
         2 000643   200070 755100                    STA     BIN_START1$+1,,AUTO
         2 000644   200025 236100                    LDQ     TEMP_RN_STOP$,,AUTO
         2 000645   000022 772000                    QRL     18
         2 000646   200070 136100                    SBLQ    BIN_START1$+1,,AUTO
         2 000647   000000 620006                    EAX0    0,QL
         2 000650   000000 740100                    STX0    0,,PR0

      851    11489    3                 I = WHERE$ -> B$DNAME.COUNT;

  11489  2 000651   200011 470500                    LDP0    WHERE$,,AUTO
         2 000652   000000 236100                    LDQ     0,,PR0
         2 000653   000022 772000                    QRL     18
         2 000654   200027 756100                    STQ     I,,AUTO

      852    11490    3                 TEMP_RN_STOP$ -> B$DNAME.COUNT = I;

  11490  2 000655   000000 620006                    EAX0    0,QL
         2 000656   200025 471500                    LDP1    TEMP_RN_STOP$,,AUTO
         2 000657   100000 740100                    STX0    0,,PR1
PL6.E3A0      #002=VXO$COMPACT File=VXO$OBJECT.:E05TSI                           WED 07/30/97 08:27 Page:204

      853    11491    3                 TEMP_RN_STOP$ -> B$DNAME.TEXT = WHERE$ -> B$DNAME.TEXT;

  11491  2 000660   000000 221100                    LDX1    0,,PR0
         2 000661   040140 100540                    MLR     fill='040'O
         2 000662   000000 400011                    ADSC9   0,,PR0                   cn=2,n=*X1
         2 000663   100000 400010                    ADSC9   0,,PR1                   cn=2,n=*X0

      854    11492    3                 TEMP_RN_STOP$ = PINCRW( TEMP_RN_STOP$,

  11492  2 000664   200027 236100                    LDQ     I,,AUTO
         2 000665   000005 036007                    ADLQ    5,DL
         2 000666   000002 772000                    QRL     2
         2 000667   000022 736000                    QLS     18
         2 000670   200025 036100                    ADLQ    TEMP_RN_STOP$,,AUTO
         2 000671   200025 756100                    STQ     TEMP_RN_STOP$,,AUTO

      855    11493                              %TEXTH_SIZEW(
      856    11494                              CNT=I);
      857    11497    3                 );
      858    11498    3                 ER_START$ = PINCRW( ER_START$, SIZEW( B$EREF) );

  11498  2 000672   200017 236100                    LDQ     ER_START$,,AUTO
         2 000673   000001 036003                    ADLQ    1,DU
         2 000674   200017 756100                    STQ     ER_START$,,AUTO

      859    11499    3                END;                       /* Do while( ER_START$ <= ER_STOP$ ); */

  11499  2 000675   200023 116100                    CMPQ    ER_STOP$,,AUTO
         2 000676   000634 602000 2                  TNC     s:11486
         2 000677   000634 600000 2                  TZE     s:11486

      860    11500        /**/
      861    11501        /*                                       Now move the temp name
      862    11502                                                      name pool over the original
      863    11503        /**/
      864    11504    2             RN_FREE = VX_CURR$ -> VX$NODE.L_SIZE.RN + TEMP_RN_SIZE;
PL6.E3A0      #002=VXO$COMPACT File=VXO$OBJECT.:E05TSI                           WED 07/30/97 08:27 Page:205

  11504  2 000700   000000 470400 xsym               LDP0    VX_CURR$
         2 000701   000056 236100                    LDQ     46,,PR0
         2 000702   200052 036100                    ADLQ    TEMP_RN_SIZE,,AUTO
         2 000703   200053 756100                    STQ     RN_FREE,,AUTO

      865    11505    2             TEMP_RN_SIZE = POFFW( TEMP_RN_STOP$, TEMP_RN_START$ );

  11505  2 000704   200021 235100                    LDA     TEMP_RN_START$,,AUTO
         2 000705   000022 771000                    ARL     18
         2 000706   200070 755100                    STA     BIN_START1$+1,,AUTO
         2 000707   200025 236100                    LDQ     TEMP_RN_STOP$,,AUTO
         2 000710   000022 772000                    QRL     18
         2 000711   200070 136100                    SBLQ    BIN_START1$+1,,AUTO
         2 000712   200052 756100                    STQ     TEMP_RN_SIZE,,AUTO

      866    11506    2             RN_FREE = RN_FREE - TEMP_RN_SIZE;

  11506  2 000713   200053 236100                    LDQ     RN_FREE,,AUTO
         2 000714   200052 136100                    SBLQ    TEMP_RN_SIZE,,AUTO
         2 000715   200053 756100                    STQ     RN_FREE,,AUTO

      867    11507    2             VX_TARGET_COUNT = TEMP_RN_SIZE * 4/*@CHAR_WORD*/;

  11507  2 000716   200052 235100                    LDA     TEMP_RN_SIZE,,AUTO
         2 000717   000002 735000                    ALS     2
         2 000720   000000 755000 xsym               STA     VX_TARGET_COUNT

      868    11508    2             VX_SOURCE_COUNT = VX_TARGET_COUNT;

  11508  2 000721   000000 755000 xsym               STA     VX_SOURCE_COUNT

      869    11509    2             VX_CURR$ -> VX$NODE.L_START.RN$ -> VX$TARGET_C =

  11509  2 000722   000032 471500                    LDP1    26,,PR0
         2 000723   200021 473500                    LDP3    TEMP_RN_START$,,AUTO
         2 000724   000000 620005                    EAX0    0,AL
PL6.E3A0      #002=VXO$COMPACT File=VXO$OBJECT.:E05TSI                           WED 07/30/97 08:27 Page:206
         2 000725   000000 721000 xsym               LXL1    VX_TARGET_COUNT
         2 000726   040140 100540                    MLR     fill='040'O
         2 000727   300000 000010                    ADSC9   0,,PR3                   cn=0,n=*X0
         2 000730   100000 000011                    ADSC9   0,,PR1                   cn=0,n=*X1

      870    11510    2                     TEMP_RN_START$ -> VX$SOURCE_C;
      871    11511        /**/
      872    11512    2             CALL VXF$FREE(      0/*@RN_DS_1*/, RN_FREE, 1 );

  11512  2 000731   000002 236000 3                  LDQ     2
         2 000732   200072 756100                    STQ     BIN_START1$+3,,AUTO
         2 000733   200053 630500                    EPPR0   RN_FREE,,AUTO
         2 000734   200071 450500                    STP0    BIN_START1$+2,,AUTO
         2 000735   000001 236000 3                  LDQ     1
         2 000736   200070 756100                    STQ     BIN_START1$+1,,AUTO
         2 000737   200070 630500                    EPPR0   BIN_START1$+1,,AUTO
         2 000740   000021 631400 xsym               EPPR1   B_VECTNIL+17
         2 000741   000000 701000 xent               TSX1    VXF$FREE
         2 000742   000000 011000                    NOP     0

      873    11513    2             VX_CURR$ -> VX$NODE.L_STOP.RN$ = PINCRW(

  11513  2 000743   000000 470400 xsym               LDP0    VX_CURR$
         2 000744   000032 471500                    LDP1    26,,PR0
         2 000745   200052 720100                    LXL0    TEMP_RN_SIZE,,AUTO
         2 000746   177777 633510                    EPPR3   -1,X0,PR1
         2 000747   000044 453500                    STP3    36,,PR0

      874    11514    2                     VX_CURR$ -> VX$NODE.L_START.RN$,
      875    11515    2                     TEMP_RN_SIZE - 1/*@M_RN_ESZ*/ );
      876    11516    2             VX_CURR$ -> VX$NODE.L_SIZE.RN = TEMP_RN_SIZE;

  11516  2 000750   200052 235100                    LDA     TEMP_RN_SIZE,,AUTO
         2 000751   000056 755100                    STA     46,,PR0

      877    11517    2             VX_CURR$ -> VX$NODE.L_PREV_SIZE.RN = TEMP_RN_SIZE;

PL6.E3A0      #002=VXO$COMPACT File=VXO$OBJECT.:E05TSI                           WED 07/30/97 08:27 Page:207
  11517  2 000752   000070 755100                    STA     56,,PR0

      878    11518    2            END;   /* If VX_CURR$ -> VX$NODE.L_START.ER$ ~= addr(nil) then do; */

  11518  2 000753   000774 710000 2                  TRA     s:11528

      879    11519    2         ELSE DO;

      880    11520    2   POP_RN_NAME:
      881    11521    2             CALL VXF$FREE(      0/*@RN_DS_1*/, VX_CURR$ -> VX$NODE.L_SIZE.RN, 1);

  11521  2 000754   000002 236000 3     POP_RN_NAME  LDQ     2
         2 000755   200072 756100                    STQ     BIN_START1$+3,,AUTO
         2 000756   000000 236000 xsym               LDQ     VX_CURR$
         2 000757   000056 036003                    ADLQ    46,DU
         2 000760   000001 235000 3                  LDA     1
         2 000761   200070 757100                    STAQ    BIN_START1$+1,,AUTO
         2 000762   200070 630500                    EPPR0   BIN_START1$+1,,AUTO
         2 000763   000021 631400 xsym               EPPR1   B_VECTNIL+17
         2 000764   000000 701000 xent               TSX1    VXF$FREE
         2 000765   000000 011000                    NOP     0

      882    11522    2             VX_CURR$ -> VX$NODE.L_START.RN$ = ADDR(NIL);

  11522  2 000766   000001 236000 xsym               LDQ     B_VECTNIL+1
         2 000767   000000 470400 xsym               LDP0    VX_CURR$
         2 000770   000032 756100                    STQ     26,,PR0

      883    11523    2             VX_CURR$ -> VX$NODE.L_STOP.RN$ = ADDR(NIL);

  11523  2 000771   000044 756100                    STQ     36,,PR0

      884    11524    2             VX_CURR$ -> VX$NODE.L_SIZE.RN = 0;

  11524  2 000772   000056 450100                    STZ     46,,PR0

      885    11525    2             VX_CURR$ -> VX$NODE.L_PREV_SIZE.RN = 0;
PL6.E3A0      #002=VXO$COMPACT File=VXO$OBJECT.:E05TSI                           WED 07/30/97 08:27 Page:208

  11525  2 000773   000070 450100                    STZ     56,,PR0

      886    11526    2            END;                           /* Else do; */

      887    11527
      888    11528    1   END VXO$COMPACT;

  11528  2 000774   000000 702200 xent               TSX2  ! X66_ARET

PL6.E3A0      #002=VXO$COMPACT File=VXO$OBJECT.:E05TSI                           WED 07/30/97 08:27 Page:209
--  Include file information  --

   F_DCB_D.:E05TOU  is referenced.
   VX_DCB_R.:E05TOU  cannot be made into a system file and is referenced.
   VX_DATA_R.:E05TOU  cannot be made into a system file and is referenced.
   VX_FIXED_R.:E05TOU  cannot be made into a system file and is referenced.
   XU_MACRO_C.:E05TOU  is referenced.
   CP_6.:E05TOU  cannot be made into a system file and is referenced.
   VX_MACRO_C.:E05TOU  is referenced.
   VX_PERR_C.:E05TOU  is referenced.
   VX_SUBS_C.:E05TOU  is referenced.
   VX_SWITCH_C.:E05TOU  is referenced.
   B$OBJECT_C.:E05TOU  is referenced.
   VX_INC_C.:E05TOU  is referenced.
   B$JIT_C.:E05TOU  was found in the system file and is never referenced.
   CP_6_C.:E05TOU  was found in the system file and is referenced.
      No diagnostics issued in procedure VXO$COMPACT.
PL6.E3A0      #002=VXO$COMPACT File=VXO$OBJECT.:E05TSI                           WED 07/30/97 08:27 Page:210

 **** Variables and constants ****

  ****  Auto variables  ****

  ****  Scalars and arrays  ****
OctLoc.c.b A Datatyp(siz) R M Lvl/name                 OctLoc.c.b A Datatyp(siz) R M Lvl/name

    64-0-0/w UBIN        r     1 BIN_HIGH                  63-0-0/w UBIN        r     1 BIN_LOW
    60-0-0/w PTR         r     1 BIN_MATCH$                65-0-0/w UBIN        r     1 BIN_MID
    57-0-0/w PTR         r     1 BIN_N$                    66-0-0/w PTR         r     1 BIN_NTEMP$
    56-0-0/w PTR         r     1 BIN_RESULT$               54-0-0/w PTR         r     1 BIN_START$
    67-0-0/w PTR         r     1 BIN_START1$               55-0-0/w PTR         r     1 BIN_STOP$
    26-0-0/w PTR         r     1 CURR_ER_START$            47-0-0/w UBIN        r     1 ED_SIZE
    15-0-0/w PTR         r     1 ED_START$                 22-0-0/w PTR         r     1 ED_STOP$
    50-0-0/w UBIN        r     1 ER_SIZE                   17-0-0/w PTR         r     1 ER_START$
    23-0-0/w PTR         r     1 ER_STOP$                  27-0-0/w UBIN        r     1 I
    53-0-0/w UBIN        r     1 RN_FREE                   16-0-0/w PTR         r     1 RN_START$
    51-0-0/w UBIN        r     1 TEMP_ER_SIZE              20-0-0/w PTR         r     1 TEMP_ER_START$
    24-0-0/w PTR         r     1 TEMP_ER_STOP$             52-0-0/w UBIN        r     1 TEMP_RN_SIZE
    21-0-0/w PTR         r     1 TEMP_RN_START$            25-0-0/w PTR         r     1 TEMP_RN_STOP$
    11-0-0/w PTR         r     1 WHERE$

  ****  SYMREF variables  ****

  ****  Scalars and arrays  ****
OctLoc.c.b A Datatyp(siz) R M Lvl/name                 OctLoc.c.b A Datatyp(siz) R M Lvl/name

     0-0-0/w PTR         r     1 VX_CURR$
     0-0-0/w SBIN        r     1 VX_M_ALL(0:8)
     0-0-0/w PTR         r     1 VX_M_BASE_PTR(0:8)
     0-0-0/w SBIN        r     1 VX_M_FREE(0:8)
     0-0-0/w UBIN        r     1 VX_SOURCE_COUNT            0-0-0/w UBIN        r     1 VX_TARGET_COUNT

  ****  BASED and DCB variables  ****

  ****  Scalars and arrays  ****
OctLoc.c.b A Datatyp(siz) R M Lvl/name                 OctLoc.c.b A Datatyp(siz) R M Lvl/name
PL6.E3A0      #002=VXO$COMPACT File=VXO$OBJECT.:E05TSI                           WED 07/30/97 08:27 Page:211

     0-0-0/w ASTR(18)    r     1 B$DNAME                    0-0-0/w STRC(72)    r     1 B$EDEF
     0-0-0/w STRC        r     1 B$EREF                     0-0-0/c ASTR(9)     r     1 F$NAME_
     0-0-0/w STRC(3672)  r     1 VX$NODE                    0-0-0/w ACHR        r     1 VX$SOURCE_C
     0-0-0/w ACHR        r     1 VX$TARGET_C                0-0-0/w STRC(72)    r     1 VX$TMPLT


   Procedure VXO$COMPACT requires 509 words for executable code.
   Procedure VXO$COMPACT requires 64 words of local(AUTO) storage.

    No errors detected in file VXO$OBJECT.:E05TSI    .
PL6.E3A0      #002=VXO$COMPACT File=VXO$OBJECT.:E05TSI                           WED 07/30/97 08:27 Page:212
          *** CROSS REFERENCE LISTING ***
**     DENOTES     IDENTIFIER DEFINITION
<<                 IDENTIFIER'S VALUE SET
>>                 IDENTIFIER'S VALUE USED
<>                 IDENTIFIER SET AND/OR USED
--                 IDENTIFIER REFERENCED
PL6.E3A0      #002=VXO$COMPACT File=VXO$OBJECT.:E05TSI                           WED 07/30/97 08:27 Page:213
          MINI XREF LISTING

B$DNAME.COUNT
     11236**DCL     11243--IMP-SIZ 11345>>IF      11345>>IF      11348>>IF      11348>>IF      11365>>IF
     11365>>IF      11371>>IF      11371>>IF      11393>>ASSIGN  11427>>DOWHILE 11427>>DOWHILE 11489>>ASSIGN
     11490<<ASSIGN  11491>>ASSIGN  11491>>ASSIGN
B$DNAME.TEXT
     11243**DCL     11345>>IF      11345>>IF      11348>>IF      11348>>IF      11365>>IF      11365>>IF
     11371>>IF      11371>>IF      11427>>DOWHILE 11427>>DOWHILE 11491<<ASSIGN  11491>>ASSIGN
B$EDEF
     10899**DCL     11291--ASSIGN  11293--CALL    11341--IF      11353--ASSIGN  11359--ASSIGN  11360--ASSIGN
     11363--ASSIGN
B$EDEF.OU
     10916**DCL     10922--REDEF
B$EREF
     10985**DCL     11399<<ASSIGN  11399>>ASSIGN  11400--ASSIGN  11402--ASSIGN  11410--IF      11412--ASSIGN
     11413--CALL    11425--ASSIGN  11431--ASSIGN  11438<<ASSIGN  11438>>ASSIGN  11439--ASSIGN  11443--ASSIGN
     11448--ASSIGN  11498--ASSIGN
B$EREF.NPOINTER
     10986**DCL     11322>>ASSIGN  11423>>ASSIGN  11427>>DOWHILE 11427>>DOWHILE 11486>>ASSIGN  11488<<ASSIGN
BIN_HIGH
     11263**DCL     11359<<ASSIGN  11362>>ASSIGN  11374<<ASSIGN  11376>>IF
BIN_LOW
     11262**DCL     11358<<ASSIGN  11362>>ASSIGN  11368<<ASSIGN  11376>>IF
BIN_MATCH$
     11257**DCL     11322<<ASSIGN  11345>>IF      11345>>IF      11348>>IF      11348>>IF      11365>>IF
     11365>>IF      11371>>IF      11371>>IF      11393>>ASSIGN  11423<<ASSIGN  11427>>DOWHILE 11427>>DOWHILE
BIN_MID
     11264**DCL     11362<<ASSIGN  11363>>ASSIGN  11368>>ASSIGN  11374>>ASSIGN
BIN_N$
     11256**DCL     11292<<ASSIGN  11293<>CALL    11344>>ASSIGN  11364>>ASSIGN
BIN_NTEMP$
     11265**DCL     11344<<ASSIGN  11345>>IF      11345>>IF      11348>>IF      11348>>IF      11364<<ASSIGN
     11365>>IF      11365>>IF      11371>>IF      11371>>IF
PL6.E3A0      #002=VXO$COMPACT File=VXO$OBJECT.:E05TSI                           WED 07/30/97 08:27 Page:214
BIN_RESULT$
     11255**DCL     11342<<ASSIGN  11343>>DOWHILE 11344>>ASSIGN  11353<<ASSIGN  11353>>ASSIGN  11363<<ASSIGN
     11364>>ASSIGN
BIN_START$
     11253**DCL     11317<<ASSIGN  11340>>IF      11341>>IF      11342>>ASSIGN  11359>>ASSIGN  11360>>ASSIGN
BIN_START1$
     11266**DCL     11360<<ASSIGN  11363>>ASSIGN
BIN_STOP$
     11254**DCL     11318<<ASSIGN  11341>>IF      11343>>DOWHILE 11359>>ASSIGN
COMP_CHECK
     11374**LABEL   11369--GOTO
COMP_FOUND
     11391**LABEL   11350--GOTO
COMP_NOT_FOUND
     11393**LABEL   11340--GOTO    11351--GOTO    11355--GOTO    11384--GOTO
COMP_SPLIT
     11360**LABEL   11376--GOTO
CURR_ER_START$
     11171**DCL     11424<<ASSIGN  11437>>IF      11438>>ASSIGN
ED_SIZE
     11210**DCL     11273<<ASSIGN  11278>>IF      11280>>ASSIGN  11282<>CALL    11287>>ASSIGN  11291>>ASSIGN
     11407<>CALL
ED_START$
     11162**DCL     11279<<ASSIGN  11282<>CALL    11289>>ASSIGN  11291>>ASSIGN  11293<>CALL    11317>>ASSIGN
ED_STOP$
     11167**DCL     11291<<ASSIGN  11293<>CALL    11318>>ASSIGN
ER_SIZE
     11211**DCL     11305<<ASSIGN  11310>>IF      11312>>ASSIGN  11314<>CALL    11454>>CALL    11454>>CALL
     11457>>CALL    11457>>CALL
ER_START$
     11164**DCL     11303<<ASSIGN  11321>>DOWHILE 11322>>ASSIGN  11399>>ASSIGN  11402<<ASSIGN  11402>>ASSIGN
     11411<<ASSIGN  11413<>CALL    11422>>DOWHILE 11423>>ASSIGN  11424>>ASSIGN  11425<<ASSIGN  11425>>ASSIGN
     11426>>IF      11427>>DOWHILE 11427>>DOWHILE 11431<<ASSIGN  11431>>ASSIGN  11432>>IF      11482<<ASSIGN
     11485>>DOWHILE 11486>>ASSIGN  11488>>ASSIGN  11498<<ASSIGN  11498>>ASSIGN
ER_STOP$
     11168**DCL     11304<<ASSIGN  11321>>DOWHILE 11412<<ASSIGN  11413<>CALL    11422>>DOWHILE 11426>>IF
PL6.E3A0      #002=VXO$COMPACT File=VXO$OBJECT.:E05TSI                           WED 07/30/97 08:27 Page:215
     11432>>IF      11483<<ASSIGN  11485>>DOWHILE
F$NAME_.COUNT
     11217**DCL     11218--IMP-SIZ
I
     11189**DCL     11190--REDEF   11489<<ASSIGN  11490>>ASSIGN  11492>>ASSIGN
J
     11191**DCL     11192--REDEF
JUMP_OUT_ER
     11436**LABEL   11432--GOTO
K
     11193**DCL     11194--REDEF
L
     11195**DCL     11196--REDEF
NEXT_ER
     11402**LABEL   11391--GOTO
POP_RN_NAME
     11521**LABEL   11462--GOTO
RN_FREE
     11214**DCL     11504<<ASSIGN  11506<<ASSIGN  11506>>ASSIGN  11512<>CALL
RN_START$
     11163**DCL     11270<<ASSIGN  11322>>ASSIGN  11413<>CALL    11423>>ASSIGN  11427>>DOWHILE 11427>>DOWHILE
     11486>>ASSIGN
TEMP_ER_SIZE
     11212**DCL     11443<<ASSIGN  11444>>ASSIGN  11448>>ASSIGN  11451>>ASSIGN  11454>>CALL
TEMP_ER_START$
     11165**DCL     11311<<ASSIGN  11314<>CALL    11316>>ASSIGN  11408>>IF      11410>>IF      11411>>ASSIGN
     11420>>ASSIGN  11443>>ASSIGN  11446>>ASSIGN
TEMP_ER_STOP$
     11169**DCL     11316<<ASSIGN  11399>>ASSIGN  11400<<ASSIGN  11400>>ASSIGN  11408>>IF      11410>>IF
     11412>>ASSIGN  11420<<ASSIGN  11437>>IF      11438>>ASSIGN  11439<<ASSIGN  11439>>ASSIGN  11443>>ASSIGN
TEMP_RN_SIZE
     11213**DCL     11319<<ASSIGN  11393<<ASSIGN  11393>>ASSIGN  11466<<ASSIGN  11475>>IF      11477>>ASSIGN
     11479<>CALL    11504>>ASSIGN  11505<<ASSIGN  11506>>ASSIGN  11507>>ASSIGN  11513>>ASSIGN  11516>>ASSIGN
     11517>>ASSIGN
TEMP_RN_START$
     11166**DCL     11476<<ASSIGN  11479<>CALL    11481>>ASSIGN  11488>>ASSIGN  11505>>ASSIGN  11509>>ASSIGN
PL6.E3A0      #002=VXO$COMPACT File=VXO$OBJECT.:E05TSI                           WED 07/30/97 08:27 Page:216
TEMP_RN_STOP$
     11170**DCL     11481<<ASSIGN  11488>>ASSIGN  11490>>ASSIGN  11491>>ASSIGN  11491>>ASSIGN  11492<<ASSIGN
     11492>>ASSIGN  11505>>ASSIGN
VX$NODE.ADDR_START_A
     10773**DCL     10774--REDEF
VX$NODE.ADDR_STOP_A
     10778**DCL     10779--REDEF
VX$NODE.L_PREV_SIZE
     10831**DCL     10842--REDEF
VX$NODE.L_PREV_SIZE.ER
     10837**DCL     11452<<ASSIGN  11461<<ASSIGN
VX$NODE.L_PREV_SIZE.RN
     10834**DCL     11517<<ASSIGN  11525<<ASSIGN
VX$NODE.L_SC_START
     10850**DCL     10855--REDEF
VX$NODE.L_SC_STOP
     10856**DCL     10861--REDEF
VX$NODE.L_SIZE
     10819**DCL     10830--REDEF
VX$NODE.L_SIZE.ED
     10824**DCL     11273>>ASSIGN
VX$NODE.L_SIZE.ER
     10825**DCL     11305>>ASSIGN  11451<<ASSIGN  11460<<ASSIGN
VX$NODE.L_SIZE.RN
     10822**DCL     11466>>ASSIGN  11504>>ASSIGN  11516<<ASSIGN  11521<>CALL    11524<<ASSIGN
VX$NODE.L_START
     10795**DCL     10806--REDEF
VX$NODE.L_START.DN$
     10797**DCL     11292>>ASSIGN
VX$NODE.L_START.ED$
     10800**DCL     11272>>IF      11289>>ASSIGN
VX$NODE.L_START.ER$
     10801**DCL     11271>>IF      11303>>ASSIGN  11446>>ASSIGN  11448>>ASSIGN  11458<<ASSIGN  11482>>ASSIGN
VX$NODE.L_START.RN$
     10798**DCL     11270>>ASSIGN  11509>>ASSIGN  11513>>ASSIGN  11522<<ASSIGN
VX$NODE.L_STOP
PL6.E3A0      #002=VXO$COMPACT File=VXO$OBJECT.:E05TSI                           WED 07/30/97 08:27 Page:217
     10807**DCL     10818--REDEF
VX$NODE.L_STOP.ER$
     10813**DCL     11304>>ASSIGN  11448<<ASSIGN  11459<<ASSIGN  11483>>ASSIGN
VX$NODE.L_STOP.RN$
     10810**DCL     11513<<ASSIGN  11523<<ASSIGN
VX$NODE.PROMOTE_HEAD
     10862**DCL     10865--REDEF
VX$NODE.PROMOTE_TAIL
     10866**DCL     10869--REDEF
VX$NODE.START_PAGE#_A
     10783**DCL     10784--REDEF
VX$NODE.STOP_PAGE#_A
     10788**DCL     10789--REDEF
VX$SOURCE_C
     11250**DCL     11289>>ASSIGN  11446>>ASSIGN  11509>>ASSIGN
VX$TARGET_C
     11249**DCL     11289<<ASSIGN  11446<<ASSIGN  11509<<ASSIGN
VX$TMPLT.A
     11108**DCL     11109--REDEF   11110--REDEF   11344>>ASSIGN  11364>>ASSIGN
VXA$GET
     11131**DCL-ENT 11282--CALL    11314--CALL    11479--CALL
VXF$FREE
     11132**DCL-ENT 11407--CALL    11454--CALL    11457--CALL    11512--CALL    11521--CALL
VXQ$SORT
     11133**DCL-ENT 11293--CALL    11413--CALL
VX_BIAS.A
      9578**DCL      9579--REDEF
VX_CBUF.CHARS_A
      9512**DCL      9513--REDEF
VX_CONST_DCB.ACTPOS
     10694**DCL     10694--REDEF
VX_CONST_DCB.ARS#
     10653**DCL     10653--REDEF
VX_CONST_DCB.ATTR#
     10683**DCL     10683--REDEF   10685--REDEF
VX_CONST_DCB.BORROW
PL6.E3A0      #002=VXO$COMPACT File=VXO$OBJECT.:E05TSI                           WED 07/30/97 08:27 Page:218
     10705**DCL     10705--REDEF   10705--REDEF   10705--REDEF
VX_CONST_DCB.EOMCHAR#
     10660**DCL     10661--REDEF
VX_CONST_DCB.FLDID
     10697**DCL     10698--REDEF
VX_CONST_DCB.FORM$
     10689**DCL     10689--REDEF
VX_CONST_DCB.FSECT
     10712**DCL     10712--REDEF
VX_CONST_DCB.FSN#
     10679**DCL     10679--REDEF   10679--REDEF   10680--REDEF
VX_CONST_DCB.HEADER$
     10688**DCL     10689--REDEF
VX_CONST_DCB.IXTNSIZE#
     10685**DCL     10686--REDEF
VX_CONST_DCB.LASTSTA$
     10669**DCL     10669--REDEF
VX_CONST_DCB.LVL
     10706**DCL     10706--REDEF
VX_CONST_DCB.NAME#.C
     10669**DCL     10670--REDEF
VX_CONST_DCB.NOEOF
     10701**DCL     10701--REDEF
VX_CONST_DCB.NRECS#
     10686**DCL     10686--REDEF
VX_CONST_DCB.NRECX
     10713**DCL     10713--REDEF
VX_CONST_DCB.OHDR
     10702**DCL     10702--REDEF
VX_CONST_DCB.ORG#
     10677**DCL     10678--REDEF
VX_CONST_DCB.PRECNO
     10710**DCL     10710--REDEF
VX_CONST_DCB.RCSZ
     10718**DCL     10718--REDEF
VX_CONST_DCB.RES#
PL6.E3A0      #002=VXO$COMPACT File=VXO$OBJECT.:E05TSI                           WED 07/30/97 08:27 Page:219
     10671**DCL     10671--REDEF
VX_CONST_DCB.SETX
     10690**DCL     10690--REDEF
VX_CONST_DCB.TAB$
     10689**DCL     10689--REDEF
VX_CONST_DCB.TDA
     10709**DCL     10710--REDEF
VX_CONST_DCB.WSN#
     10671**DCL     10672--REDEF
VX_CURR$
      9547**DCL     11270>>ASSIGN  11271>>IF      11272>>IF      11273>>ASSIGN  11289>>ASSIGN  11292>>ASSIGN
     11303>>ASSIGN  11304>>ASSIGN  11305>>ASSIGN  11446>>ASSIGN  11448>>ASSIGN  11448>>ASSIGN  11451>>ASSIGN
     11452>>ASSIGN  11458>>ASSIGN  11459>>ASSIGN  11460>>ASSIGN  11461>>ASSIGN  11466>>ASSIGN  11482>>ASSIGN
     11483>>ASSIGN  11504>>ASSIGN  11509>>ASSIGN  11513>>ASSIGN  11513>>ASSIGN  11516>>ASSIGN  11517>>ASSIGN
     11521>>CALL    11522>>ASSIGN  11523>>ASSIGN  11524>>ASSIGN  11525>>ASSIGN
VX_EBUF.CHARS_A
     10101**DCL     10102--REDEF
VX_EFIELD1.CHARS
     10110**DCL     10111--REDEF
VX_EFIELD2.CHARS
     10114**DCL     10115--REDEF
VX_EFIELD3.CHARS
     10118**DCL     10119--REDEF
VX_EI_KEY_BUF.KEY
     10494**DCL     10495--REDEF
VX_ERRORS
      9555**DCL      9566--REDEF
VX_ERRORS.CONFLICT_A
      9561**DCL      9562--REDEF
VX_ERRORS.UNSAT_A
      9557**DCL      9558--REDEF
VX_IMAGE_DATA.CPAGE#_A
      8692**DCL      8693--REDEF
VX_IMAGE_DATA.NODE_A$
      8704**DCL      8705--REDEF
VX_IMAGE_DATA.START_A$
PL6.E3A0      #002=VXO$COMPACT File=VXO$OBJECT.:E05TSI                           WED 07/30/97 08:27 Page:220
      8696**DCL      8697--REDEF
VX_IMAGE_DATA.STOP_A$
      8700**DCL      8701--REDEF
VX_IMAGE_DS3.CPAGE#_A
      8761**DCL      8762--REDEF
VX_IMAGE_DS3.NODE_A$
      8773**DCL      8774--REDEF
VX_IMAGE_DS3.START_A$
      8765**DCL      8766--REDEF
VX_IMAGE_DS3.STOP_A$
      8769**DCL      8770--REDEF
VX_IMAGE_DS4.CPAGE#_A
      8784**DCL      8785--REDEF
VX_IMAGE_DS4.NODE_A$
      8796**DCL      8797--REDEF
VX_IMAGE_DS4.START_A$
      8788**DCL      8789--REDEF
VX_IMAGE_DS4.STOP_A$
      8792**DCL      8793--REDEF
VX_IMAGE_DS5.CPAGE#_A
      8807**DCL      8808--REDEF
VX_IMAGE_DS5.NODE_A$
      8819**DCL      8820--REDEF
VX_IMAGE_DS5.START_A$
      8811**DCL      8812--REDEF
VX_IMAGE_DS5.STOP_A$
      8815**DCL      8816--REDEF
VX_IMAGE_DS6.CPAGE#_A
      8830**DCL      8831--REDEF
VX_IMAGE_DS6.NODE_A$
      8842**DCL      8843--REDEF
VX_IMAGE_DS6.START_A$
      8834**DCL      8835--REDEF
VX_IMAGE_DS6.STOP_A$
      8838**DCL      8839--REDEF
VX_IMAGE_DS7.CPAGE#_A
PL6.E3A0      #002=VXO$COMPACT File=VXO$OBJECT.:E05TSI                           WED 07/30/97 08:27 Page:221
      8853**DCL      8854--REDEF
VX_IMAGE_DS7.NODE_A$
      8865**DCL      8866--REDEF
VX_IMAGE_DS7.START_A$
      8857**DCL      8858--REDEF
VX_IMAGE_DS7.STOP_A$
      8861**DCL      8862--REDEF
VX_IMAGE_DS8.CPAGE#_A
      8876**DCL      8877--REDEF
VX_IMAGE_DS8.NODE_A$
      8888**DCL      8889--REDEF
VX_IMAGE_DS8.START_A$
      8880**DCL      8881--REDEF
VX_IMAGE_DS8.STOP_A$
      8884**DCL      8885--REDEF
VX_IMAGE_PROC.CPAGE#_A
      8715**DCL      8716--REDEF
VX_IMAGE_PROC.NODE_A$
      8727**DCL      8728--REDEF
VX_IMAGE_PROC.START_A$
      8719**DCL      8720--REDEF
VX_IMAGE_PROC.STOP_A$
      8723**DCL      8724--REDEF
VX_IMAGE_ROS.CPAGE#_A
      8738**DCL      8739--REDEF
VX_IMAGE_ROS.NODE_A$
      8750**DCL      8751--REDEF
VX_IMAGE_ROS.START_A$
      8742**DCL      8743--REDEF
VX_IMAGE_ROS.STOP_A$
      8746**DCL      8747--REDEF
VX_M_ALL
      9589**DCL     11278>>IF      11310>>IF      11475>>IF
VX_M_BASE_PTR
      9591**DCL     11279>>ASSIGN  11311>>ASSIGN  11476>>ASSIGN
VX_M_FREE
PL6.E3A0      #002=VXO$COMPACT File=VXO$OBJECT.:E05TSI                           WED 07/30/97 08:27 Page:222
      9587**DCL     11278>>IF      11279>>ASSIGN  11280<<ASSIGN  11280>>ASSIGN  11310>>IF      11311>>ASSIGN
     11312<<ASSIGN  11312>>ASSIGN  11475>>IF      11476>>ASSIGN  11477<<ASSIGN  11477>>ASSIGN
VX_M_VECTOR.F
      8543**DCL      8547--REDEF
VX_M_VECTOR_DP.F
      8578**DCL      8582--REDEF
VX_O.ACCTN_A$
      9707**DCL      9708--REDEF
VX_O.DCB_MATCH_A$
      9716**DCL      9717--REDEF
VX_O.DCB_MATCH_HIT_A
      9722**DCL      9723--REDEF
VX_O.FIDN_A$
      9701**DCL      9702--REDEF
VX_O.FID_A$
      9693**DCL      9694--REDEF
VX_O.INCLUDE_A$
      9713**DCL      9714--REDEF
VX_O.MAP_A
      9687**DCL      9688--REDEF
VX_O.NODCB_A
      9744**DCL      9745--REDEF
VX_O.NUM_A
      9632**DCL      9634--REDEF
VX_O.OPT_A
      9732**DCL      9733--REDEF
VX_O.PRIV_A
      9648**DCL      9650--REDEF
VX_O.SIN_A
      9601**DCL      9602--REDEF
VX_O.TCB_A
      9728**DCL      9729--REDEF
VX_OD.ACCTN_A$
      9905**DCL      9906--REDEF
VX_OD.DCB_MATCH_A$
      9914**DCL      9915--REDEF
PL6.E3A0      #002=VXO$COMPACT File=VXO$OBJECT.:E05TSI                           WED 07/30/97 08:27 Page:223
VX_OD.FIDN_A$
      9899**DCL      9900--REDEF
VX_OD.FID_A$
      9891**DCL      9892--REDEF
VX_OD.INCLUDE_A$
      9911**DCL      9912--REDEF
VX_OD.MAP_A
      9885**DCL      9886--REDEF
VX_OD.NODCB_A
      9929**DCL      9930--REDEF
VX_OD.NUM_A
      9832**DCL      9833--REDEF
VX_OD.PRIV_A
      9847**DCL      9848--REDEF
VX_OD.SIN_A
      9801**DCL      9802--REDEF
VX_OD.VECTOR_A$
      9920**DCL      9921--REDEF
VX_OL.MAX_A
      9776**DCL      9778--REDEF
VX_OL.MIN_A
      9761**DCL      9762--REDEF
VX_ON.ACCTN_A$
     10050**DCL     10052--REDEF
VX_ON.DCB_MATCH_A$
     10061**DCL     10063--REDEF
VX_ON.FIDN_A$
     10043**DCL     10045--REDEF
VX_ON.FID_A$
     10034**DCL     10036--REDEF
VX_ON.INCLUDE_A$
     10057**DCL     10059--REDEF
VX_ON.MAP_A
     10027**DCL     10029--REDEF
VX_ON.NODCB_A$
     10077**DCL     10078--REDEF
PL6.E3A0      #002=VXO$COMPACT File=VXO$OBJECT.:E05TSI                           WED 07/30/97 08:27 Page:224
VX_ON.NUM_A
      9972**DCL      9974--REDEF
VX_ON.PRIV_A
      9988**DCL      9990--REDEF
VX_ON.SIN_A
      9940**DCL      9942--REDEF
VX_ON.VECTOR_A$
     10068**DCL     10069--REDEF
VX_OUHEAD.VERSION
      9387**DCL      9389--REDEF
VX_OU_HEAD
      9330**DCL      9369--REDEF
VX_OU_HEAD.REC_A
      9342**DCL      9345--REDEF
VX_O_KEY_BUF.FORM0
      8591**DCL      8594--REDEF    8601--REDEF
VX_O_KEY_BUF_L.FORM0
      8614**DCL      8617--REDEF    8624--REDEF
VX_PASS2_REF.OU.L_START
     10280**DCL     10285--REDEF
VX_PASS2_REF.OU.L_STOP
     10286**DCL     10291--REDEF
VX_PASS2_REF.OU.MAX
     10274**DCL     10279--REDEF
VX_PASS2_REF.OU.SIZE
     10292**DCL     10297--REDEF
VX_PASS2_REF.SAT.COUNT
     10319**DCL     10325--REDEF
VX_PASS2_REF.SAT.ENT_SIZE
     10326**DCL     10332--REDEF
VX_PASS2_REF.SAT.L_START
     10305**DCL     10311--REDEF
VX_PASS2_REF.SAT.L_STOP
     10312**DCL     10318--REDEF
VX_PASS2_REF.SAT.MAX
     10299**DCL     10304--REDEF
PL6.E3A0      #002=VXO$COMPACT File=VXO$OBJECT.:E05TSI                           WED 07/30/97 08:27 Page:225
VX_PASS2_REF.UNSAT.L_START
     10367**DCL     10372--REDEF
VX_PASS2_REF.UNSAT.L_STOP
     10373**DCL     10378--REDEF
VX_PASS2_REF.UNSAT.L_WHERE
     10379**DCL     10384--REDEF
VX_PASS2_REF.UNSAT.MAX
     10361**DCL     10366--REDEF
VX_PASS2_REF.UNSAT.PAGE#
     10391**DCL     10396--REDEF
VX_PASS2_REF.UNSAT.SIZE
     10385**DCL     10390--REDEF
VX_PHRASE.PHRASE
      9793**DCL      9795--REDEF
VX_PROGRAM_BIAS.A
      9571**DCL      9572--REDEF
VX_R_KEY_BUF.FORM0
      8640**DCL      8644--REDEF    8650--REDEF
VX_SD.A
      8268**DCL      8269--REDEF
VX_SOURCE_COUNT
     10127**DCL     11248--IMP-SIZ 11250--IMP-SIZ 11288<<ASSIGN  11289>>ASSIGN  11445<<ASSIGN  11446>>ASSIGN
     11508<<ASSIGN  11509>>ASSIGN
VX_SPC.B$.MINE
     10462**DCL     10468--REDEF
VX_SPC.B$.NAME
     10441**DCL     10447--REDEF
VX_SPC.B$.SKIP
     10455**DCL     10461--REDEF
VX_SPC.B$.VALUE
     10448**DCL     10454--REDEF
VX_SPC.SEG.NAME
     10410**DCL     10416--REDEF
VX_SPC.SEG.VALUE
     10417**DCL     10423--REDEF
VX_TARGET_COUNT
PL6.E3A0      #002=VXO$COMPACT File=VXO$OBJECT.:E05TSI                           WED 07/30/97 08:27 Page:226
     10126**DCL     11247--IMP-SIZ 11249--IMP-SIZ 11287<<ASSIGN  11288>>ASSIGN  11289>>ASSIGN  11444<<ASSIGN
     11445>>ASSIGN  11446>>ASSIGN  11507<<ASSIGN  11508>>ASSIGN  11509>>ASSIGN
VX_TSX0_OVERLAY.H
     10185**DCL     10188--REDEF
WHERE$
     11158**DCL     11486<<ASSIGN  11489>>ASSIGN  11491>>ASSIGN  11491>>ASSIGN
