VERSION E05

PL6.E3A0      #001=VXO$RUN File=VXO$RUN.:E05TSI                                  WED 07/30/97 08:29 Page:1
        1        1        /*M* VXO$RUN - processes run units for pass 1.      */
        2        2        /*T***********************************************************/
        3        3        /*T*                                                         */
        4        4        /*T* Copyright (c) Bull HN Information Systems Inc., 1997    */
        5        5        /*T*                                                         */
        6        6        /*T***********************************************************/
        7        7        /*X*  DMC,DMR,PLM=6,IND=4,SDI=2,CTI=8,DCI=4,CSU=2,ECU=2,ENI=4,
        8        8              THI=0,DTI=0,IAD=0,CCC                          */
        9        9        VXO$RUN: PROC( TYPE, SOURCE, ALL_TYPE );
       10       10
       11       11        %INCLUDE VX_INC_C;
       12    10727        %P;

             10735    1   /*******************************************************************************
             10736    1   *                                                                              *
             10737    1   *                          PARAMETERS                                              *
             10738    1   *                                                                              *
             10739    1   *******************************************************************************/

       13    10743    1   DCL TYPE            UBIN WORD ALIGNED;
       14    10744    1   DCL SOURCE          SBIN WORD ALIGNED;
       15    10745    1   DCL ALL_TYPE(0:0)   UBIN WORD ALIGNED;
       16    10746        %VX$LST;

             10759    1   /*******************************************************************************
             10760    1   *                                                                              *
             10761    1   *                          VX$LST                                                 *
             10762    1   *                                                                              *
             10763    1   *******************************************************************************/

             10768    1   DCL 1 VX$LST                          ALIGNED BASED,
             10769    1         2 LINK$        PTR,               /* Link to next item                  */
             10770    1         2 TYPE         UBIN( 18) UNAL,    /* Type                               */
             10771    1         2 SUB_TYPE     UBIN( 18) UNAL,    /* Sub-type                           */
             10772    1         2 OBJECT_NAME$ PTR,               /* Pointer to object unit name        */
             10773    1         2 PRIOR$ REDEF OBJECT_NAME$ PTR,  /* Pointer to prior element in list   */
             10774    1         2 SC_HEAD$     PTR,               /* Head pointer to section link list  */
PL6.E3A0      #001=VXO$RUN File=VXO$RUN.:E05TSI                                  WED 07/30/97 08:29 Page:2
             10775    1         2 LIBSRCH$ REDEF SC_HEAD$ PTR,    /* Pointer to account list for library*/
             10776    1         2 SC_TAIL$     PTR,               /* Tail pointer to section link list  */
             10777    1         2 LIB REDEF SC_TAIL$,             /* Used only by UNSAT library files   */
             10778    1           3 USED UBIN HALF UNAL,          /* 1 => library file used, 0=>not used*/
             10779    1           3 NEEDED UBIN HALF UNAL,   /* 1 => library file needed, 0=>not needed*/
             10780    1         2 P,
             10781    1           3 NAME_       ALIGNED,
             10782    1             4 BOUND      UBIN(20)  UNAL,
             10783    1             4 FLAGSV     UBIN(11)  UNAL,
             10784    1             4 *          BIT(5)    UNAL,
             10785    1             4 NAME$      PTR,
             10786    1           3 ACCT_       ALIGNED,
             10787    1             4 BOUND      UBIN(20)  UNAL,
             10788    1             4 FLAGSV     UBIN(11)  UNAL,
             10789    1             4 *          BIT(5)    UNAL,
             10790    1             4 ACCT$      PTR,
             10791    1           3 PASS_       ALIGNED,
             10792    1             4 BOUND      UBIN(20)  UNAL,
             10793    1             4 FLAGSV     UBIN(11)  UNAL,
             10794    1             4 *          BIT(5)    UNAL,
             10795    1             4 PASS$      PTR,
             10796    1           3 SN_         ALIGNED,
             10797    1             4 BOUND      UBIN(20)  UNAL,
             10798    1             4 FLAGSV     UBIN(11)  UNAL,
             10799    1             4 *          BIT(5)    UNAL,
             10800    1             4 SN$        PTR,
             10801    1           3 WSN_        ALIGNED,
             10802    1             4 BOUND      UBIN(20)  UNAL,
             10803    1             4 FLAGSV     UBIN(11)  UNAL,
             10804    1             4 *          BIT(5)    UNAL,
             10805    1             4 WSN$       PTR,
             10806    1           3 B           ALIGNED,
             10807    1             4 RES        BIT(1)    UNAL,
             10808    1             4 ASN        BIT(1)    UNAL,
             10809    1             4 ACCT       BIT(1)    UNAL,
             10810    1             4 *          BIT(33)   UNAL,
             10811    1           3 RES         CHAR(4)   ALIGNED,
PL6.E3A0      #001=VXO$RUN File=VXO$RUN.:E05TSI                                  WED 07/30/97 08:29 Page:3
             10812    1           3 ASN         UBIN(36)  ALIGNED;
       17    10815        %T$C;

             10827    1   /*******************************************************************************
             10828    1   *                                                                              *
             10829    1   *                          T$C                                                 *
             10830    1   *                                                                              *
             10831    1   *******************************************************************************/

             10836    1   DCL 1 T$C           BASED     ALIGNED,  /* Text count                         */
             10837    1         2 COUNT        UBIN( 9) UNAL,
             10838    1         2 CHARS        CHAR( T$C.COUNT )   UNAL;
             10839    1   DCL 1 T$C_UNAL      BASED     UNAL,     /* Text count                         */
             10840    1         2 COUNT        UBIN( 9) UNAL,
             10841    1         2 CHARS        CHAR( T$C_UNAL.COUNT ) UNAL;
       18    10844        %BANNER( ARG=SUBS );

             10852    1   /*******************************************************************************
             10853    1   *                                                                              *
             10854    1   *                          SUBS                                                 *
             10855    1   *                                                                              *
             10856    1   *******************************************************************************/

       19    10860        %B$RECORDSUBS;
       20    10888        %SUB_LINKFLAGS;
       21    10897        %E;

             10905    1   /*******************************************************************************
             10906    1   *                                                                              *
             10907    1   *                          ENTRY                                                 *
             10908    1   *                                                                              *
             10909    1   *******************************************************************************/

       22    10913        %ENTRIES;
       23    10928        %ENTRIES_IO;
       24    10936        %PTR;

PL6.E3A0      #001=VXO$RUN File=VXO$RUN.:E05TSI                                  WED 07/30/97 08:29 Page:4
             10944    1   /*******************************************************************************
             10945    1   *                                                                              *
             10946    1   *                          PTR                                                 *
             10947    1   *                                                                              *
             10948    1   *******************************************************************************/

       25    10952    1   DCL START$          PTR       ALIGNED   AUTO;
       26    10953        %U;

             10961    1   /*******************************************************************************
             10962    1   *                                                                              *
             10963    1   *                          UBIN                                                 *
             10964    1   *                                                                              *
             10965    1   *******************************************************************************/

       27    10969        %INDEX;
       28    10979    1   DCL REC_TYPE        UBIN(36)  ALIGNED   AUTO;
       29    10980    1   DCL TSIZE           UBIN(36)  ALIGNED   AUTO;
       30    10981    1   DCL TSIZE_READ      UBIN(36)  ALIGNED   AUTO;
       31    10982    1   DCL NPAGE           UBIN(36)  ALIGNED   AUTO;
       32    10983    1   DCL ALLOC_TYPE      UBIN(36)  ALIGNED   AUTO;
       33    10984    1   DCL LOOP            UBIN(36)  ALIGNED  AUTO;
       34    10985    1   DCL RUN_REC_TYPE(0:3) UBIN(36) ALIGNED CONSTANT INIT
       35    10986    1         ( %TYPDNAM, %TYPSDEF, %TYPSEGDEF, %TYPEDEF );
       36    10987    1   DCL M$OF DCB;
       37    10988        %EJECT;
PL6.E3A0      #001=VXO$RUN File=VXO$RUN.:E05TSI                                  WED 07/30/97 08:29 Page:5
       38    10989    2         DO CASE( TYPE );
       39    10990    2           CASE( @LF_SLIB );
       40    10991    2             VX_R_KEY_BUF.FORM0.COUNT = LENGTHC(VX_R_KEY_HEAD);
       41    10992    2             VX_R_KEY_BUF.FORM0.CHARS = VX_R_KEY_HEAD;
       42    10993    2             CALL VXI$READ( @OF, ADDR(VX_RU_HEAD_BUF),
       43    10994    2                     SIZEW(VX_RU_HEAD_BUF), @RF                )
       44    10995    2                     ALTRET( BAD_SLIB_HEAD );
       45    10996        /*E*  ERROR: VXO-E$LIB_SLIB_VX-0
       46    10997              MESSAGE: %FN (Shared Library) associated.
       47    10998              DESCRIPTION: See message.
       48    10999        */
       49    11000                  %ERRMSG( ERR#=E$LIB_SLIB_VX, MID='O', LEVEL=@E$I_VX, DCB#=M$OF );
       50    11009    2             LOOP = SIZEW( RUN_REC_TYPE ) - 1;
       51    11010    2           CASE( @LF_ALIB );
       52    11011    2             VX_R_KEY_BUF.FORM0.COUNT = LENGTHC(VX_R_KEY_HEAD);
       53    11012    2             VX_R_KEY_BUF.FORM0.CHARS = VX_R_KEY_HEAD;
       54    11013    2             CALL VXI$READ( @OF, ADDR(VX_RU_HEAD_BUF),
       55    11014    2                     SIZEW(VX_RU_HEAD_BUF), @RF                )
       56    11015    2                     ALTRET( BAD_ALIB_HEAD );
       57    11016        /*E*  ERROR: VXO-E$LIB_ALIB_VX-0
       58    11017              MESSAGE: %FN (Alternate Shared Library) associated.
       59    11018              DESCRIPTION: See message.
       60    11019        */
       61    11020                  %ERRMSG( ERR#=E$LIB_ALIB_VX, LEVEL=@E$I_VX, MID='O', DCB#=M$OF );
       62    11029    2             LOOP = SIZEW( RUN_REC_TYPE ) - 2;
       63    11030    2           CASE( ELSE );
       64    11031    2             LOOP = SIZEW( RUN_REC_TYPE ) - 2;
       65    11032    2           END;
       66    11033
       67    11034
       68    11035    2         DO I = 0 TO LOOP;
       69    11036    2             REC_TYPE = RUN_REC_TYPE(I);
       70    11037    3             DO CASE(I);
       71    11038    3               CASE(0);
       72    11039    3                 TSIZE = VX_RU_HEAD_BUF.NRECSIZE;
       73    11040    3               CASE(1);
       74    11041    3                 TSIZE = VX_RU_HEAD_BUF.EDRECSIZE;
PL6.E3A0      #001=VXO$RUN File=VXO$RUN.:E05TSI                                  WED 07/30/97 08:29 Page:6
       75    11042    3               CASE(2);
       76    11043    3                 TSIZE = VX_RU_HEAD_BUF.SDRECSIZE;
       77    11044    3               CASE(3);
       78    11045    3                 TSIZE = VX_RU_HEAD_BUF.EPRECSIZE;
       79    11046    3               END;                        /* Do case(i); */
       80    11047    3             IF TSIZE ~= 0 THEN DO;
       81    11048    3                 ALLOC_TYPE = ALL_TYPE(REC_TYPE);
       82    11049                      %ALLOCATE( PTR$=START$, TYPE=ALLOC_TYPE, SIZE=TSIZE );
       83    11056    3                 CALL VXU$PREAD(
       84    11057    3                         NPAGE,
       85    11058    3                         TSIZE_READ,
       86    11059    3                         @OF,
       87    11060    3                         @RF,
       88    11061    3                         REC_TYPE,
       89    11062    3                         START$,
       90    11063    3                         TSIZE,
       91    11064    3                         TSIZE,
       92    11065    3                         ALLOC_TYPE,
       93    11066    3                         TSIZE,
       94    11067    3                         VX_CURR$,
       95    11068    3                         SOURCE );
       96    11069    4                 IF TSIZE_READ < TSIZE THEN DO;
       97    11070    4                     CALL VXF$FREE( ALLOC_TYPE, TSIZE - TSIZE_READ, 1 );
       98    11071    4                     END;
       99    11072    3   SKIP:
      100    11073    3                 END;
      101    11074    2             END;
      102    11075
      103    11076
      104    11077    2         IF TYPE = @LF_SLIB THEN DO;
      105    11078    2             IF VX_SLIB_MAX_DATA < VX_RU_HEAD_BUF.RDATA THEN
      106    11079    2                 VX_SLIB_MAX_DATA = VX_RU_HEAD_BUF.RDATA;
             11079                          /* Set maximum data space for shared libraries */
      107    11080    2             TSIZE = ( VX_SLIB_INIT$ -> VX$LST.P.NAME_.NAME$ ->
      108    11081    2                     T$C.COUNT + @CHAR_WORD ) / @CHAR_WORD;
      109    11082    2             IF VX_TREE_SLIB_NAME < TSIZE THEN VX_TREE_SLIB_NAME = TSIZE;
      110    11083        /* Check if biases are in synch */
PL6.E3A0      #001=VXO$RUN File=VXO$RUN.:E05TSI                                  WED 07/30/97 08:29 Page:7
      111    11084    3             IF VX_RU_HEAD_BUF.BIAS ~= VX_O.NUM.DBIAS THEN DO;
      112    11085        /*E*  ERROR: VXO-E$LIB_BIAS_SYNCH_VX-0
      113    11086              MESSAGE: Program BIAS(%U1) is not in synch with shared library BIAS(%U2);
      114    11087                       Library bias will be used.
      115    11088              DESCRIPTION: Self-explanatory.
      116    11089        */
      117    11090    3                 L = VX_RU_HEAD_BUF.BIAS;
      118    11091                      %NUMBER( NUM1="VX_O.NUM.DBIAS", BASE1=8, NUM2=L, BASE2=8);
      119    11108                      %SCREAM(ERR#=E$LIB_BIAS_SYNCH_VX,LEVEL=@E$S_VX,MID="'O'");
      120    11111    3                 VX_O.NUM.DBIAS = L;
      121    11112    3                 END;
      122    11113        /*
      123    11114                                  Inhibit special area generation
      124    11115        */
      125    11116    2             VX_SPC_DATA_INSERT = @FALSE_B;
      126    11117    2             VX_BIAS.I.DATA = 0;
      127    11118    2             END;
      128    11119
      129    11120    1         RETURN;
      130    11121
      131    11122    1   BAD_ALIB_HEAD:
      132    11123        /*E*  ERROR: VXO-E$ALIB_HEAD_VX-0
      133    11124              MESSAGE: While reading head record for alternate shared library: %FN.
      134    11125              DESCRIPTION: See message.
      135    11126        */
      136    11127    1         CALL VXE$ERRMSG( , @E$F_D_VX );
      137    11128              %ERRMSG( ERR#=E$ALIB_HEAD_VX,LEVEL=@E$F_VX,MID='O',DCB#=M$OF);
      138    11137
      139    11138    1   BAD_SLIB_HEAD:
      140    11139        /*E*  ERROR: VXO-E$SLIB_HEAD_VX-0
      141    11140              MESSAGE: While reading head record for shared library: %FN.
      142    11141              DESCRIPTION: See message.
      143    11142        */
      144    11143    1         CALL VXE$ERRMSG( , @E$F_D_VX );
      145    11144              %ERRMSG( ERR#=E$SLIB_HEAD_VX, LEVEL=E$F_VX, MID='O', DCB#=M$OF );
      146    11153
      147    11154    1   END VXO$RUN;
PL6.E3A0      #001=VXO$RUN File=VXO$RUN.:E05TSI                                  WED 07/30/97 08:29 Page:8

PL6.E3A0      #001=VXO$RUN File=VXO$RUN.:E05TSI                                  WED 07/30/97 08:29 Page:9
--  Include file information  --

   F_DCB_D.:E05TOU  is referenced.
   VX_DCB_R.:E05TOU  cannot be made into a system file and is referenced.
   VX_DATA_R.:E05TOU  cannot be made into a system file and is referenced.
   VX_FIXED_R.:E05TOU  cannot be made into a system file and is referenced.
   XU_MACRO_C.:E05TOU  is referenced.
   CP_6.:E05TOU  cannot be made into a system file and is referenced.
   VX_MACRO_C.:E05TOU  is referenced.
   VX_PERR_C.:E05TOU  is referenced.
   VX_SUBS_C.:E05TOU  is referenced.
   VX_SWITCH_C.:E05TOU  is referenced.
   B$OBJECT_C.:E05TOU  is referenced.
   VX_INC_C.:E05TOU  is referenced.
   B$JIT_C.:E05TOU  was found in the system file and is never referenced.
   CP_6_C.:E05TOU  was found in the system file and is referenced.
      No diagnostics issued in procedure VXO$RUN.

   Procedure VXO$RUN requires 271 words for executable code.
   Procedure VXO$RUN requires 30 words of local(AUTO) storage.

    No errors detected in file VXO$RUN.:E05TSI    .

PL6.E3A0      #001=VXO$RUN File=VXO$RUN.:E05TSI                                  WED 07/30/97 08:29 Page:10

 Object Unit name= VXO$RUN                                    File name= VXO$RUN.:E05TOU
 UTS= JUL 30 '97 08:29:49.36 WED                              Compiler= PL-6/E31         Sev=      00
 SharedLib= :SHARED_SYSTEM                                    Alt SharedLib=


    ****  Control sections  ****

 Sect   Type Bound  Init  Size OctSiz  Section name(segment info)
    0   DCB   even  none     0      0  M$UC
    1  LblCom even  none    96    140  VX_CONST_DCB
    2  RoData even  UTS      8     10  VXO$RUN
    3   DCB   even  none     0      0  M$OF
    4   Proc  even  none   271    417  VXO$RUN
    5  RoData even  none    33     41  VXO$RUN

    ****  Entry defs  ****

                              Check   Calling
                             calling  sequence
  Sect OctLoc Primary Altret sequence   type   Parms  Name
     4      0   yes            yes      Std        3  VXO$RUN

  ****  Entry refs  ****

         Check        Calling
        calling       sequence
Altret sequence SRef   type   Args  Name
 yes     yes           Std       4 VXI$READ
         yes           Std      12 VXU$PREAD
         yes           Std       3 VXE$ERRMSG
         yes           Std       3 VXA$GET
         yes           Std       3 VXF$FREE
         yes           Std       4 VXE$ERROR
         yes           Std       5 VXD$B2C
                       nStd      0 X66_AUTO_3
                       Std       0 B_CONSPOOL_D
                       nStd      0 X66_ARET
PL6.E3A0      #001=VXO$RUN File=VXO$RUN.:E05TSI                                  WED 07/30/97 08:29 Page:11

  ****  Data refs  ****

  Flags:  r = read only, s = secondary
Flgs Name                             Flgs Name                             Flgs Name
     M$UC                                  VX_R_KEY_BUF                          VX_RU_HEAD_BUF
     VX_OU_HEAD                            VX_TREE_SLIB_NAME                     VX_CURR$
     VX_ERRORS                             VX_BIAS                               VX_M_FREE
     VX_M_ALL                              VX_M_BASE_PTR                         VX_O
     VX_EFIELD1                            VX_EFIELD2                            VX_R_KEY_HEAD
     VX_SLIB_INIT$                         VX_SLIB_MAX_DATA                      VX_SPC_DATA_INSERT
     M$OF                                  B_VECTNIL

  ****  Segment refs  ****

  Flags:  r = read only, s = secondary
Flgs Name                             Flgs Name                             Flgs Name
     NULLSID                               ISSID
PL6.E3A0      #001=VXO$RUN File=VXO$RUN.:E05TSI                                  WED 07/30/97 08:29 Page:12


        1        1        /*M* VXO$RUN - processes run units for pass 1.      */
        2        2        /*T***********************************************************/
        3        3        /*T*                                                         */
        4        4        /*T* Copyright (c) Bull HN Information Systems Inc., 1997    */
        5        5        /*T*                                                         */
        6        6        /*T***********************************************************/
        7        7        /*X*  DMC,DMR,PLM=6,IND=4,SDI=2,CTI=8,DCI=4,CSU=2,ECU=2,ENI=4,
        8        8              THI=0,DTI=0,IAD=0,CCC                          */
        9        9        VXO$RUN: PROC( TYPE, SOURCE, ALL_TYPE );

      9  4 000000   000000 700200 xent  VXO$RUN      TSX0  ! X66_AUTO_3
         4 000001   000036 000003                    ZERO    30,3

       10       10
       11       11        %INCLUDE VX_INC_C;
       12    10727        %P;

             10735    1   /*******************************************************************************
             10736    1   *                                                                              *
             10737    1   *                          PARAMETERS                                             *
             10738    1   *                                                                              *
             10739    1   *******************************************************************************/

       13    10743    1   DCL TYPE            UBIN WORD ALIGNED;
       14    10744    1   DCL SOURCE          SBIN WORD ALIGNED;
       15    10745    1   DCL ALL_TYPE(0:0)   UBIN WORD ALIGNED;
       16    10746        %VX$LST;

             10759    1   /*******************************************************************************
             10760    1   *                                                                              *
             10761    1   *                          VX$LST                                                 *
             10762    1   *                                                                              *
             10763    1   *******************************************************************************/

             10768    1   DCL 1 VX$LST                          ALIGNED BASED,
             10769    1         2 LINK$        PTR,               /* Link to next item                  */
PL6.E3A0      #001=VXO$RUN File=VXO$RUN.:E05TSI                                  WED 07/30/97 08:29 Page:13
             10770    1         2 TYPE         UBIN( 18) UNAL,    /* Type                               */
             10771    1         2 SUB_TYPE     UBIN( 18) UNAL,    /* Sub-type                           */
             10772    1         2 OBJECT_NAME$ PTR,               /* Pointer to object unit name        */
             10773    1         2 PRIOR$ REDEF OBJECT_NAME$ PTR,  /* Pointer to prior element in list   */
             10774    1         2 SC_HEAD$     PTR,               /* Head pointer to section link list  */
             10775    1         2 LIBSRCH$ REDEF SC_HEAD$ PTR,    /* Pointer to account list for library*/
             10776    1         2 SC_TAIL$     PTR,               /* Tail pointer to section link list  */
             10777    1         2 LIB REDEF SC_TAIL$,             /* Used only by UNSAT library files   */
             10778    1           3 USED UBIN HALF UNAL,          /* 1 => library file used, 0=>not used*/
             10779    1           3 NEEDED UBIN HALF UNAL,   /* 1 => library file needed, 0=>not needed*/
             10780    1         2 P,
             10781    1           3 NAME_       ALIGNED,
             10782    1             4 BOUND      UBIN(20)  UNAL,
             10783    1             4 FLAGSV     UBIN(11)  UNAL,
             10784    1             4 *          BIT(5)    UNAL,
             10785    1             4 NAME$      PTR,
             10786    1           3 ACCT_       ALIGNED,
             10787    1             4 BOUND      UBIN(20)  UNAL,
             10788    1             4 FLAGSV     UBIN(11)  UNAL,
             10789    1             4 *          BIT(5)    UNAL,
             10790    1             4 ACCT$      PTR,
             10791    1           3 PASS_       ALIGNED,
             10792    1             4 BOUND      UBIN(20)  UNAL,
             10793    1             4 FLAGSV     UBIN(11)  UNAL,
             10794    1             4 *          BIT(5)    UNAL,
             10795    1             4 PASS$      PTR,
             10796    1           3 SN_         ALIGNED,
             10797    1             4 BOUND      UBIN(20)  UNAL,
             10798    1             4 FLAGSV     UBIN(11)  UNAL,
             10799    1             4 *          BIT(5)    UNAL,
             10800    1             4 SN$        PTR,
             10801    1           3 WSN_        ALIGNED,
             10802    1             4 BOUND      UBIN(20)  UNAL,
             10803    1             4 FLAGSV     UBIN(11)  UNAL,
             10804    1             4 *          BIT(5)    UNAL,
             10805    1             4 WSN$       PTR,
             10806    1           3 B           ALIGNED,
PL6.E3A0      #001=VXO$RUN File=VXO$RUN.:E05TSI                                  WED 07/30/97 08:29 Page:14
             10807    1             4 RES        BIT(1)    UNAL,
             10808    1             4 ASN        BIT(1)    UNAL,
             10809    1             4 ACCT       BIT(1)    UNAL,
             10810    1             4 *          BIT(33)   UNAL,
             10811    1           3 RES         CHAR(4)   ALIGNED,
             10812    1           3 ASN         UBIN(36)  ALIGNED;
       17    10815        %T$C;

             10827    1   /*******************************************************************************
             10828    1   *                                                                              *
             10829    1   *                          T$C                                                 *
             10830    1   *                                                                              *
             10831    1   *******************************************************************************/

             10836    1   DCL 1 T$C           BASED     ALIGNED,  /* Text count                         */
             10837    1         2 COUNT        UBIN( 9) UNAL,
             10838    1         2 CHARS        CHAR( T$C.COUNT )   UNAL;
             10839    1   DCL 1 T$C_UNAL      BASED     UNAL,     /* Text count                         */
             10840    1         2 COUNT        UBIN( 9) UNAL,
             10841    1         2 CHARS        CHAR( T$C_UNAL.COUNT ) UNAL;
       18    10844        %BANNER( ARG=SUBS );

             10852    1   /*******************************************************************************
             10853    1   *                                                                              *
             10854    1   *                          SUBS                                                 *
             10855    1   *                                                                              *
             10856    1   *******************************************************************************/

       19    10860        %B$RECORDSUBS;
       20    10888        %SUB_LINKFLAGS;
       21    10897        %E;

             10905    1   /*******************************************************************************
             10906    1   *                                                                              *
             10907    1   *                          ENTRY                                                 *
             10908    1   *                                                                              *
             10909    1   *******************************************************************************/
PL6.E3A0      #001=VXO$RUN File=VXO$RUN.:E05TSI                                  WED 07/30/97 08:29 Page:15

       22    10913        %ENTRIES;
       23    10928        %ENTRIES_IO;
       24    10936        %PTR;

             10944    1   /*******************************************************************************
             10945    1   *                                                                              *
             10946    1   *                          PTR                                                 *
             10947    1   *                                                                              *
             10948    1   *******************************************************************************/

       25    10952    1   DCL START$          PTR       ALIGNED   AUTO;
       26    10953        %U;

             10961    1   /*******************************************************************************
             10962    1   *                                                                              *
             10963    1   *                          UBIN                                                 *
             10964    1   *                                                                              *
             10965    1   *******************************************************************************/

       27    10969        %INDEX;
       28    10979    1   DCL REC_TYPE        UBIN(36)  ALIGNED   AUTO;
       29    10980    1   DCL TSIZE           UBIN(36)  ALIGNED   AUTO;
       30    10981    1   DCL TSIZE_READ      UBIN(36)  ALIGNED   AUTO;
       31    10982    1   DCL NPAGE           UBIN(36)  ALIGNED   AUTO;
       32    10983    1   DCL ALLOC_TYPE      UBIN(36)  ALIGNED   AUTO;
       33    10984    1   DCL LOOP            UBIN(36)  ALIGNED  AUTO;
       34    10985    1   DCL RUN_REC_TYPE(0:3) UBIN(36) ALIGNED CONSTANT INIT
       35    10986    1         ( %TYPDNAM, %TYPSDEF, %TYPSEGDEF, %TYPEDEF );
       36    10987    1   DCL M$OF DCB;
       37    10988        %EJECT;
PL6.E3A0      #001=VXO$RUN File=VXO$RUN.:E05TSI                                  WED 07/30/97 08:29 Page:16
       38    10989    2         DO CASE( TYPE );

  10989  4 000002   200003 470500                    LDP0    @TYPE,,AUTO
         4 000003   000000 235100                    LDA     0,,PR0
         4 000004   000003 115007                    CMPA    3,DL
         4 000005   000007 602005 4                  TNC     s:10989+5,AL
         4 000006   000112 710000 4                  TRA     s:11031
         4 000007   000112 710000 4                  TRA     s:11031
         4 000010   000052 710000 4                  TRA     s:11011
         4 000011   000012 710000 4                  TRA     s:10991

       39    10990    2           CASE( @LF_SLIB );

       40    10991    2             VX_R_KEY_BUF.FORM0.COUNT = LENGTHC(VX_R_KEY_HEAD);

  10991  4 000012   004000 236003                    LDQ     2048,DU
         4 000013   000000 552040 xsym               STBQ    VX_R_KEY_BUF,'40'O

       41    10992    2             VX_R_KEY_BUF.FORM0.CHARS = VX_R_KEY_HEAD;

  10992  4 000014   040000 100400                    MLR     fill='040'O
         4 000015   000000 000004 xsym               ADSC9   VX_R_KEY_HEAD            cn=0,n=4
         4 000016   000000 200005 xsym               ADSC9   VX_R_KEY_BUF             cn=1,n=5

       42    10993    2             CALL VXI$READ( @OF, ADDR(VX_RU_HEAD_BUF),

  10993  4 000017   000000 236000 5                  LDQ     0
         4 000020   200022 756100                    STQ     LOOP+2,,AUTO
         4 000021   000002 237000 5                  LDAQ    2
         4 000022   200026 757100                    STAQ    LOOP+6,,AUTO
         4 000023   200022 631500                    EPPR1   LOOP+2,,AUTO
         4 000024   200025 451500                    STP1    LOOP+5,,AUTO
         4 000025   000004 236000 5                  LDQ     4
         4 000026   200024 756100                    STQ     LOOP+4,,AUTO
         4 000027   200024 630500                    EPPR0   LOOP+4,,AUTO
         4 000030   000022 631400 xsym               EPPR1   B_VECTNIL+18
         4 000031   000000 701000 xent               TSX1    VXI$READ
PL6.E3A0      #001=VXO$RUN File=VXO$RUN.:E05TSI                                  WED 07/30/97 08:29 Page:17
         4 000032   000373 702000 4                  TSX2    BAD_SLIB_HEAD

       43    10994    2                     SIZEW(VX_RU_HEAD_BUF), @RF                )
       44    10995    2                     ALTRET( BAD_SLIB_HEAD );
       45    10996        /*E*  ERROR: VXO-E$LIB_SLIB_VX-0
       46    10997              MESSAGE: %FN (Shared Library) associated.
       47    10998              DESCRIPTION: See message.
       48    10999        */
       49    11000                  %ERRMSG( ERR#=E$LIB_SLIB_VX, MID='O', LEVEL=@E$I_VX, DCB#=M$OF );

  11007  4 000033   000000 236007 xsym               LDQ     M$OF,DL
         4 000034   200022 756100                    STQ     LOOP+2,,AUTO
         4 000035   200022 630500                    EPPR0   LOOP+2,,AUTO
         4 000036   200025 450500                    STP0    LOOP+5,,AUTO
         4 000037   000003 236000 5                  LDQ     3
         4 000040   200024 756100                    STQ     LOOP+4,,AUTO
         4 000041   000005 236000 5                  LDQ     5
         4 000042   200023 756100                    STQ     LOOP+3,,AUTO
         4 000043   200023 630500                    EPPR0   LOOP+3,,AUTO
         4 000044   000021 631400 xsym               EPPR1   B_VECTNIL+17
         4 000045   000000 701000 xent               TSX1    VXE$ERRMSG
         4 000046   000000 011000                    NOP     0

       50    11009    2             LOOP = SIZEW( RUN_REC_TYPE ) - 1;

  11009  4 000047   000003 235007                    LDA     3,DL
         4 000050   200020 755100                    STA     LOOP,,AUTO
         4 000051   000114 710000 4                  TRA     s:11035

       51    11010    2           CASE( @LF_ALIB );

       52    11011    2             VX_R_KEY_BUF.FORM0.COUNT = LENGTHC(VX_R_KEY_HEAD);

  11011  4 000052   004000 236003                    LDQ     2048,DU
         4 000053   000000 552040 xsym               STBQ    VX_R_KEY_BUF,'40'O

       53    11012    2             VX_R_KEY_BUF.FORM0.CHARS = VX_R_KEY_HEAD;
PL6.E3A0      #001=VXO$RUN File=VXO$RUN.:E05TSI                                  WED 07/30/97 08:29 Page:18

  11012  4 000054   040000 100400                    MLR     fill='040'O
         4 000055   000000 000004 xsym               ADSC9   VX_R_KEY_HEAD            cn=0,n=4
         4 000056   000000 200005 xsym               ADSC9   VX_R_KEY_BUF             cn=1,n=5

       54    11013    2             CALL VXI$READ( @OF, ADDR(VX_RU_HEAD_BUF),

  11013  4 000057   000000 236000 5                  LDQ     0
         4 000060   200022 756100                    STQ     LOOP+2,,AUTO
         4 000061   000002 237000 5                  LDAQ    2
         4 000062   200026 757100                    STAQ    LOOP+6,,AUTO
         4 000063   200022 631500                    EPPR1   LOOP+2,,AUTO
         4 000064   200025 451500                    STP1    LOOP+5,,AUTO
         4 000065   000004 236000 5                  LDQ     4
         4 000066   200024 756100                    STQ     LOOP+4,,AUTO
         4 000067   200024 630500                    EPPR0   LOOP+4,,AUTO
         4 000070   000022 631400 xsym               EPPR1   B_VECTNIL+18
         4 000071   000000 701000 xent               TSX1    VXI$READ
         4 000072   000350 702000 4                  TSX2    BAD_ALIB_HEAD

       55    11014    2                     SIZEW(VX_RU_HEAD_BUF), @RF                )
       56    11015    2                     ALTRET( BAD_ALIB_HEAD );
       57    11016        /*E*  ERROR: VXO-E$LIB_ALIB_VX-0
       58    11017              MESSAGE: %FN (Alternate Shared Library) associated.
       59    11018              DESCRIPTION: See message.
       60    11019        */
       61    11020                  %ERRMSG( ERR#=E$LIB_ALIB_VX, LEVEL=@E$I_VX, MID='O', DCB#=M$OF );

  11027  4 000073   000000 236007 xsym               LDQ     M$OF,DL
         4 000074   200022 756100                    STQ     LOOP+2,,AUTO
         4 000075   200022 630500                    EPPR0   LOOP+2,,AUTO
         4 000076   200025 450500                    STP0    LOOP+5,,AUTO
         4 000077   000003 236000 5                  LDQ     3
         4 000100   200024 756100                    STQ     LOOP+4,,AUTO
         4 000101   000006 236000 5                  LDQ     6
         4 000102   200023 756100                    STQ     LOOP+3,,AUTO
         4 000103   200023 630500                    EPPR0   LOOP+3,,AUTO
PL6.E3A0      #001=VXO$RUN File=VXO$RUN.:E05TSI                                  WED 07/30/97 08:29 Page:19
         4 000104   000021 631400 xsym               EPPR1   B_VECTNIL+17
         4 000105   000000 701000 xent               TSX1    VXE$ERRMSG
         4 000106   000000 011000                    NOP     0

       62    11029    2             LOOP = SIZEW( RUN_REC_TYPE ) - 2;

  11029  4 000107   000002 235007                    LDA     2,DL
         4 000110   200020 755100                    STA     LOOP,,AUTO
         4 000111   000114 710000 4                  TRA     s:11035

       63    11030    2           CASE( ELSE );

       64    11031    2             LOOP = SIZEW( RUN_REC_TYPE ) - 2;

  11031  4 000112   000002 236007                    LDQ     2,DL
         4 000113   200020 756100                    STQ     LOOP,,AUTO

       65    11032    2           END;

       66    11033
       67    11034
       68    11035    2         DO I = 0 TO LOOP;

  11035  4 000114   200007 450100                    STZ     I,,AUTO
         4 000115   000262 710000 4                  TRA     SKIP+3

       69    11036    2             REC_TYPE = RUN_REC_TYPE(I);

  11036  4 000116   200007 720100                    LXL0    I,,AUTO
         4 000117   000000 235010 2                  LDA     RUN_REC_TYPE,X0
         4 000120   200013 755100                    STA     REC_TYPE,,AUTO

       70    11037    3             DO CASE(I);

  11037  4 000121   200007 236100                    LDQ     I,,AUTO
         4 000122   000004 116007                    CMPQ    4,DL
         4 000123   000125 602006 4                  TNC     s:11037+4,QL
PL6.E3A0      #001=VXO$RUN File=VXO$RUN.:E05TSI                                  WED 07/30/97 08:29 Page:20
         4 000124   000150 710000 4                  TRA     s:11047
         4 000125   000131 710000 4                  TRA     s:11039
         4 000126   000135 710000 4                  TRA     s:11041
         4 000127   000141 710000 4                  TRA     s:11043
         4 000130   000145 710000 4                  TRA     s:11045

       71    11038    3               CASE(0);

       72    11039    3                 TSIZE = VX_RU_HEAD_BUF.NRECSIZE;

  11039  4 000131   000006 236000 xsym               LDQ     VX_RU_HEAD_BUF+6
         4 000132   777777 376007                    ANQ     -1,DL
         4 000133   200014 756100                    STQ     TSIZE,,AUTO
         4 000134   000150 710000 4                  TRA     s:11047

       73    11040    3               CASE(1);

       74    11041    3                 TSIZE = VX_RU_HEAD_BUF.EDRECSIZE;

  11041  4 000135   000007 236000 xsym               LDQ     VX_RU_HEAD_BUF+7
         4 000136   777777 376007                    ANQ     -1,DL
         4 000137   200014 756100                    STQ     TSIZE,,AUTO
         4 000140   000150 710000 4                  TRA     s:11047

       75    11042    3               CASE(2);

       76    11043    3                 TSIZE = VX_RU_HEAD_BUF.SDRECSIZE;

  11043  4 000141   000010 235000 xsym               LDA     VX_RU_HEAD_BUF+8
         4 000142   000022 771000                    ARL     18
         4 000143   200014 755100                    STA     TSIZE,,AUTO
         4 000144   000150 710000 4                  TRA     s:11047

       77    11044    3               CASE(3);

       78    11045    3                 TSIZE = VX_RU_HEAD_BUF.EPRECSIZE;

PL6.E3A0      #001=VXO$RUN File=VXO$RUN.:E05TSI                                  WED 07/30/97 08:29 Page:21
  11045  4 000145   000007 235000 xsym               LDA     VX_RU_HEAD_BUF+7
         4 000146   000022 771000                    ARL     18
         4 000147   200014 755100                    STA     TSIZE,,AUTO

       79    11046    3               END;                        /* Do case(i); */

       80    11047    3             IF TSIZE ~= 0 THEN DO;

  11047  4 000150   200014 235100                    LDA     TSIZE,,AUTO
         4 000151   000257 600000 4                  TZE     SKIP

       81    11048    3                 ALLOC_TYPE = ALL_TYPE(REC_TYPE);

  11048  4 000152   200005 470500                    LDP0    @ALL_TYPE,,AUTO
         4 000153   200013 721100                    LXL1    REC_TYPE,,AUTO
         4 000154   000000 235111                    LDA     0,X1,PR0
         4 000155   200017 755100                    STA     ALLOC_TYPE,,AUTO

       82    11049                      %ALLOCATE( PTR$=START$, TYPE=ALLOC_TYPE, SIZE=TSIZE );

  11050  4 000156   200017 722100                    LXL2    ALLOC_TYPE,,AUTO
         4 000157   000000 236012 xsym               LDQ     VX_M_ALL,X2
         4 000160   000000 136005 xsym               SBLQ    VX_M_FREE,AL
         4 000161   000174 604000 4                  TMI     s:11054
         4 000162   200014 116100                    CMPQ    TSIZE,,AUTO
         4 000163   000174 602000 4                  TNC     s:11054

  11051  4 000164   000000 236012 xsym               LDQ     VX_M_FREE,X2
         4 000165   000000 471412 xsym               LDP1    VX_M_BASE_PTR,X2
         4 000166   100000 633506                    EPPR3   0,QL,PR1
         4 000167   200006 453500                    STP3    START$,,AUTO

  11052  4 000170   000000 236012 xsym               LDQ     VX_M_FREE,X2
         4 000171   200014 036100                    ADLQ    TSIZE,,AUTO
         4 000172   000000 756012 xsym               STQ     VX_M_FREE,X2

  11053  4 000173   000206 710000 4                  TRA     s:11056
PL6.E3A0      #001=VXO$RUN File=VXO$RUN.:E05TSI                                  WED 07/30/97 08:29 Page:22

  11054  4 000174   200014 631500                    EPPR1   TSIZE,,AUTO
         4 000175   200024 451500                    STP1    LOOP+4,,AUTO
         4 000176   200017 633500                    EPPR3   ALLOC_TYPE,,AUTO
         4 000177   200023 453500                    STP3    LOOP+3,,AUTO
         4 000200   200006 634500                    EPPR4   START$,,AUTO
         4 000201   200022 454500                    STP4    LOOP+2,,AUTO
         4 000202   200022 630500                    EPPR0   LOOP+2,,AUTO
         4 000203   000021 631400 xsym               EPPR1   B_VECTNIL+17
         4 000204   000000 701000 xent               TSX1    VXA$GET
         4 000205   000000 011000                    NOP     0

       83    11056    3                 CALL VXU$PREAD(

  11056  4 000206   200004 236100                    LDQ     @SOURCE,,AUTO
         4 000207   000010 235000 5                  LDA     8
         4 000210   200034 757100                    STAQ    LOOP+12,,AUTO
         4 000211   200014 630500                    EPPR0   TSIZE,,AUTO
         4 000212   200033 450500                    STP0    LOOP+11,,AUTO
         4 000213   200017 631500                    EPPR1   ALLOC_TYPE,,AUTO
         4 000214   200032 451500                    STP1    LOOP+10,,AUTO
         4 000215   200014 633500                    EPPR3   TSIZE,,AUTO
         4 000216   200031 453500                    STP3    LOOP+9,,AUTO
         4 000217   200014 634500                    EPPR4   TSIZE,,AUTO
         4 000220   200030 454500                    STP4    LOOP+8,,AUTO
         4 000221   200006 635500                    EPPR5   START$,,AUTO
         4 000222   200027 455500                    STP5    LOOP+7,,AUTO
         4 000223   200013 636500                    EPPR6   REC_TYPE,,AUTO
         4 000224   200026 456500                    STP6    LOOP+6,,AUTO
         4 000225   000012 237000 5                  LDAQ    10
         4 000226   200024 757100                    STAQ    LOOP+4,,AUTO
         4 000227   200015 637500                    EPPR7   TSIZE_READ,,AUTO
         4 000230   200023 457500                    STP7    LOOP+3,,AUTO
         4 000231   200016 630500                    EPPR0   NPAGE,,AUTO
         4 000232   200022 450500                    STP0    LOOP+2,,AUTO
         4 000233   200022 630500                    EPPR0   LOOP+2,,AUTO
         4 000234   000007 631400 5                  EPPR1   7
PL6.E3A0      #001=VXO$RUN File=VXO$RUN.:E05TSI                                  WED 07/30/97 08:29 Page:23
         4 000235   000000 701000 xent               TSX1    VXU$PREAD
         4 000236   000000 011000                    NOP     0

       84    11057    3                         NPAGE,
       85    11058    3                         TSIZE_READ,
       86    11059    3                         @OF,
       87    11060    3                         @RF,
       88    11061    3                         REC_TYPE,
       89    11062    3                         START$,
       90    11063    3                         TSIZE,
       91    11064    3                         TSIZE,
       92    11065    3                         ALLOC_TYPE,
       93    11066    3                         TSIZE,
       94    11067    3                         VX_CURR$,
       95    11068    3                         SOURCE );
       96    11069    4                 IF TSIZE_READ < TSIZE THEN DO;

  11069  4 000237   200015 236100                    LDQ     TSIZE_READ,,AUTO
         4 000240   200014 116100                    CMPQ    TSIZE,,AUTO
         4 000241   000257 603000 4                  TRC     SKIP

       97    11070    4                     CALL VXF$FREE( ALLOC_TYPE, TSIZE - TSIZE_READ, 1 );

  11070  4 000242   200014 236100                    LDQ     TSIZE,,AUTO
         4 000243   200015 136100                    SBLQ    TSIZE_READ,,AUTO
         4 000244   200022 756100                    STQ     LOOP+2,,AUTO
         4 000245   000003 236000 5                  LDQ     3
         4 000246   200025 756100                    STQ     LOOP+5,,AUTO
         4 000247   200022 630500                    EPPR0   LOOP+2,,AUTO
         4 000250   200024 450500                    STP0    LOOP+4,,AUTO
         4 000251   200017 631500                    EPPR1   ALLOC_TYPE,,AUTO
         4 000252   200023 451500                    STP1    LOOP+3,,AUTO
         4 000253   200023 630500                    EPPR0   LOOP+3,,AUTO
         4 000254   000021 631400 xsym               EPPR1   B_VECTNIL+17
         4 000255   000000 701000 xent               TSX1    VXF$FREE
         4 000256   000000 011000                    NOP     0

PL6.E3A0      #001=VXO$RUN File=VXO$RUN.:E05TSI                                  WED 07/30/97 08:29 Page:24
       98    11071    4                     END;

       99    11072    3   SKIP:
      100    11073    3                 END;

  11073  4 000257                       SKIP         null
      101    11074    2             END;

  11074  4 000257   200007 235100                    LDA     I,,AUTO
         4 000260   000001 035007                    ADLA    1,DL
         4 000261   200007 755100                    STA     I,,AUTO
         4 000262   200020 236100                    LDQ     LOOP,,AUTO
         4 000263   200007 116100                    CMPQ    I,,AUTO
         4 000264   000116 603000 4                  TRC     s:11036

      102    11075
      103    11076
      104    11077    2         IF TYPE = @LF_SLIB THEN DO;

  11077  4 000265   200003 470500                    LDP0    @TYPE,,AUTO
         4 000266   000000 235100                    LDA     0,,PR0
         4 000267   000002 115007                    CMPA    2,DL
         4 000270   000347 601000 4                  TNZ     s:11120

      105    11078    2             IF VX_SLIB_MAX_DATA < VX_RU_HEAD_BUF.RDATA THEN

  11078  4 000271   000002 236000 xsym               LDQ     VX_RU_HEAD_BUF+2
         4 000272   000014 376000 5                  ANQ     12
         4 000273   000000 116000 xsym               CMPQ    VX_SLIB_MAX_DATA
         4 000274   000277 602000 4                  TNC     s:11080
         4 000275   000277 600000 4                  TZE     s:11080

      106    11079    2                 VX_SLIB_MAX_DATA = VX_RU_HEAD_BUF.RDATA;
             11079                          /* Set maximum data space for shared libraries */

  11079  4 000276   000000 756000 xsym               STQ     VX_SLIB_MAX_DATA

PL6.E3A0      #001=VXO$RUN File=VXO$RUN.:E05TSI                                  WED 07/30/97 08:29 Page:25
      107    11080    2             TSIZE = ( VX_SLIB_INIT$ -> VX$LST.P.NAME_.NAME$ ->

  11080  4 000277   000000 471400 xsym               LDP1    VX_SLIB_INIT$
         4 000300   100006 473500                    LDP3    6,,PR1
         4 000301   300000 236100                    LDQ     0,,PR3
         4 000302   000033 772000                    QRL     27
         4 000303   000004 036007                    ADLQ    4,DL
         4 000304   000002 772000                    QRL     2
         4 000305   200014 756100                    STQ     TSIZE,,AUTO

      108    11081    2                     T$C.COUNT + @CHAR_WORD ) / @CHAR_WORD;
      109    11082    2             IF VX_TREE_SLIB_NAME < TSIZE THEN VX_TREE_SLIB_NAME = TSIZE;

  11082  4 000306   000000 116000 xsym               CMPQ    VX_TREE_SLIB_NAME
         4 000307   000312 602000 4                  TNC     s:11084
         4 000310   000312 600000 4                  TZE     s:11084

  11082  4 000311   000000 756000 xsym               STQ     VX_TREE_SLIB_NAME

      110    11083        /* Check if biases are in synch */
      111    11084    3             IF VX_RU_HEAD_BUF.BIAS ~= VX_O.NUM.DBIAS THEN DO;

  11084  4 000312   000023 236000 xsym               LDQ     VX_RU_HEAD_BUF+19
         4 000313   000014 376000 5                  ANQ     12
         4 000314   000037 116000 xsym               CMPQ    VX_O+31
         4 000315   000345 600000 4                  TZE     s:11116

      112    11085        /*E*  ERROR: VXO-E$LIB_BIAS_SYNCH_VX-0
      113    11086              MESSAGE: Program BIAS(%U1) is not in synch with shared library BIAS(%U2);
      114    11087                       Library bias will be used.
      115    11088              DESCRIPTION: Self-explanatory.
      116    11089        */
      117    11090    3                 L = VX_RU_HEAD_BUF.BIAS;

  11090  4 000316   200012 756100                    STQ     L,,AUTO

      118    11091                      %NUMBER( NUM1="VX_O.NUM.DBIAS", BASE1=8, NUM2=L, BASE2=8);
PL6.E3A0      #001=VXO$RUN File=VXO$RUN.:E05TSI                                  WED 07/30/97 08:29 Page:26

  11097  4 000317   000015 630400 5                  EPPR0   13
         4 000320   000023 631400 xsym               EPPR1   B_VECTNIL+19
         4 000321   000000 701000 xent               TSX1    VXD$B2C
         4 000322   000000 011000                    NOP     0

  11101  4 000323   000021 236000 5                  LDQ     17
         4 000324   200026 756100                    STQ     LOOP+6,,AUTO
         4 000325   200012 630500                    EPPR0   L,,AUTO
         4 000326   200025 450500                    STP0    LOOP+5,,AUTO
         4 000327   000023 236000 5                  LDQ     19
         4 000330   200024 756100                    STQ     LOOP+4,,AUTO
         4 000331   000024 237000 5                  LDAQ    20
         4 000332   200022 757100                    STAQ    LOOP+2,,AUTO
         4 000333   200022 630500                    EPPR0   LOOP+2,,AUTO
         4 000334   000023 631400 xsym               EPPR1   B_VECTNIL+19
         4 000335   000000 701000 xent               TSX1    VXD$B2C
         4 000336   000000 011000                    NOP     0

      119    11108                      %SCREAM(ERR#=E$LIB_BIAS_SYNCH_VX,LEVEL=@E$S_VX,MID="'O'");

  11109  4 000337   000030 630400 5                  EPPR0   24
         4 000340   000022 631400 xsym               EPPR1   B_VECTNIL+18
         4 000341   000000 701000 xent               TSX1    VXE$ERROR
         4 000342   000000 011000                    NOP     0

      120    11111    3                 VX_O.NUM.DBIAS = L;

  11111  4 000343   200012 235100                    LDA     L,,AUTO
         4 000344   000037 755000 xsym               STA     VX_O+31

      121    11112    3                 END;

      122    11113        /*
      123    11114                                  Inhibit special area generation
      124    11115        */
      125    11116    2             VX_SPC_DATA_INSERT = @FALSE_B;
PL6.E3A0      #001=VXO$RUN File=VXO$RUN.:E05TSI                                  WED 07/30/97 08:29 Page:27

  11116  4 000345   000000 450000 xsym               STZ     VX_SPC_DATA_INSERT

      126    11117    2             VX_BIAS.I.DATA = 0;

  11117  4 000346   000000 450000 xsym               STZ     VX_BIAS

      127    11118    2             END;

      128    11119
      129    11120    1         RETURN;

  11120  4 000347   000000 702200 xent               TSX2  ! X66_ARET

      130    11121
      131    11122    1   BAD_ALIB_HEAD:
      132    11123        /*E*  ERROR: VXO-E$ALIB_HEAD_VX-0
      133    11124              MESSAGE: While reading head record for alternate shared library: %FN.
      134    11125              DESCRIPTION: See message.
      135    11126        */
      136    11127    1         CALL VXE$ERRMSG( , @E$F_D_VX );

  11127  4 000350   000035 236000 5     BAD_ALIB_HE* LDQ     29
         4 000351   000001 235000 xsym               LDA     B_VECTNIL+1
         4 000352   200022 757100                    STAQ    LOOP+2,,AUTO
         4 000353   200022 630500                    EPPR0   LOOP+2,,AUTO
         4 000354   000020 631400 xsym               EPPR1   B_VECTNIL+16
         4 000355   000000 701000 xent               TSX1    VXE$ERRMSG
         4 000356   000000 011000                    NOP     0

      137    11128              %ERRMSG( ERR#=E$ALIB_HEAD_VX,LEVEL=@E$F_VX,MID='O',DCB#=M$OF);

  11135  4 000357   000000 236007 xsym               LDQ     M$OF,DL
         4 000360   200022 756100                    STQ     LOOP+2,,AUTO
         4 000361   200022 630500                    EPPR0   LOOP+2,,AUTO
         4 000362   200025 450500                    STP0    LOOP+5,,AUTO
         4 000363   000036 236000 5                  LDQ     30
PL6.E3A0      #001=VXO$RUN File=VXO$RUN.:E05TSI                                  WED 07/30/97 08:29 Page:28
         4 000364   200024 756100                    STQ     LOOP+4,,AUTO
         4 000365   000037 236000 5                  LDQ     31
         4 000366   200023 756100                    STQ     LOOP+3,,AUTO
         4 000367   200023 630500                    EPPR0   LOOP+3,,AUTO
         4 000370   000021 631400 xsym               EPPR1   B_VECTNIL+17
         4 000371   000000 701000 xent               TSX1    VXE$ERRMSG
         4 000372   000000 011000                    NOP     0

      138    11137
      139    11138    1   BAD_SLIB_HEAD:
      140    11139        /*E*  ERROR: VXO-E$SLIB_HEAD_VX-0
      141    11140              MESSAGE: While reading head record for shared library: %FN.
      142    11141              DESCRIPTION: See message.
      143    11142        */
      144    11143    1         CALL VXE$ERRMSG( , @E$F_D_VX );

  11143  4 000373   000035 236000 5     BAD_SLIB_HE* LDQ     29
         4 000374   000001 235000 xsym               LDA     B_VECTNIL+1
         4 000375   200022 757100                    STAQ    LOOP+2,,AUTO
         4 000376   200022 630500                    EPPR0   LOOP+2,,AUTO
         4 000377   000020 631400 xsym               EPPR1   B_VECTNIL+16
         4 000400   000000 701000 xent               TSX1    VXE$ERRMSG
         4 000401   000000 011000                    NOP     0

      145    11144              %ERRMSG( ERR#=E$SLIB_HEAD_VX, LEVEL=E$F_VX, MID='O', DCB#=M$OF );

  11151  4 000402   000000 236007 xsym               LDQ     M$OF,DL
         4 000403   200022 756100                    STQ     LOOP+2,,AUTO
         4 000404   200022 630500                    EPPR0   LOOP+2,,AUTO
         4 000405   200025 450500                    STP0    LOOP+5,,AUTO
         4 000406   000036 236000 5                  LDQ     30
         4 000407   200024 756100                    STQ     LOOP+4,,AUTO
         4 000410   000040 236000 5                  LDQ     32
         4 000411   200023 756100                    STQ     LOOP+3,,AUTO
         4 000412   200023 630500                    EPPR0   LOOP+3,,AUTO
         4 000413   000021 631400 xsym               EPPR1   B_VECTNIL+17
         4 000414   000000 701000 xent               TSX1    VXE$ERRMSG
PL6.E3A0      #001=VXO$RUN File=VXO$RUN.:E05TSI                                  WED 07/30/97 08:29 Page:29
         4 000415   000000 011000                    NOP     0

      146    11153
      147    11154    1   END VXO$RUN;

  11154  4 000416   000000 702200 xent               TSX2  ! X66_ARET

PL6.E3A0      #001=VXO$RUN File=VXO$RUN.:E05TSI                                  WED 07/30/97 08:29 Page:30
--  Include file information  --

   F_DCB_D.:E05TOU  is referenced.
   VX_DCB_R.:E05TOU  cannot be made into a system file and is referenced.
   VX_DATA_R.:E05TOU  cannot be made into a system file and is referenced.
   VX_FIXED_R.:E05TOU  cannot be made into a system file and is referenced.
   XU_MACRO_C.:E05TOU  is referenced.
   CP_6.:E05TOU  cannot be made into a system file and is referenced.
   VX_MACRO_C.:E05TOU  is referenced.
   VX_PERR_C.:E05TOU  is referenced.
   VX_SUBS_C.:E05TOU  is referenced.
   VX_SWITCH_C.:E05TOU  is referenced.
   B$OBJECT_C.:E05TOU  is referenced.
   VX_INC_C.:E05TOU  is referenced.
   B$JIT_C.:E05TOU  was found in the system file and is never referenced.
   CP_6_C.:E05TOU  was found in the system file and is referenced.
      No diagnostics issued in procedure VXO$RUN.
PL6.E3A0      #001=VXO$RUN File=VXO$RUN.:E05TSI                                  WED 07/30/97 08:29 Page:31

 **** Variables and constants ****

  ****  Section 002 RoData VXO$RUN

  ****  Scalars and arrays  ****
OctLoc.c.b A Datatyp(siz) R M Lvl/name                 OctLoc.c.b A Datatyp(siz) R M Lvl/name

     0-0-0/w UBIN        r     1 RUN_REC_TYPE(0:3)

  ****  Auto variables  ****

  ****  Scalars and arrays  ****
OctLoc.c.b A Datatyp(siz) R M Lvl/name                 OctLoc.c.b A Datatyp(siz) R M Lvl/name

     5-0-0/w PTR         r     1 @ALL_TYPE                  4-0-0/w PTR         r     1 @SOURCE
     3-0-0/w PTR         r     1 @TYPE                     17-0-0/w UBIN        r     1 ALLOC_TYPE
    *0-0-0/w UBIN        r     1 ALL_TYPE(0:0)
     7-0-0/w UBIN        r     1 I                         12-0-0/w UBIN        r     1 L
    20-0-0/w UBIN        r     1 LOOP                      16-0-0/w UBIN        r     1 NPAGE
    13-0-0/w UBIN        r     1 REC_TYPE                  *0-0-0/w SBIN        r     1 SOURCE
     6-0-0/w PTR         r     1 START$                    14-0-0/w UBIN        r     1 TSIZE
    15-0-0/w UBIN        r     1 TSIZE_READ                *0-0-0/w UBIN        r     1 TYPE

  ****  SYMREF variables  ****

  ****  Scalars and arrays  ****
OctLoc.c.b A Datatyp(siz) R M Lvl/name                 OctLoc.c.b A Datatyp(siz) R M Lvl/name

     0-0-0/w STRC(108)   r     1 VX_BIAS                    0-0-0/w PTR         r     1 VX_CURR$
     0-0-0/w STRC(720)   r     1 VX_EFIELD1                 0-0-0/w STRC(720)   r     1 VX_EFIELD2
     0-0-0/w SBIN        r     1 VX_M_ALL(0:8)
     0-0-0/w PTR         r     1 VX_M_BASE_PTR(0:8)
     0-0-0/w SBIN        r     1 VX_M_FREE(0:8)
     0-0-0/w STRC(4572)  r     1 VX_O                       0-0-0/w STRC(1440)  r     1 VX_RU_HEAD_BUF
     0-0-0/w STRC(108)   r     1 VX_R_KEY_BUF               0-0-0/c CHAR(4)     r     1 VX_R_KEY_HEAD
     0-0-0/w PTR         r     1 VX_SLIB_INIT$              0-0-0/w UBIN        r     1 VX_SLIB_MAX_DATA
     0-0-0/w BIT         r     1 VX_SPC_DATA_INSERT         0-0-0/w UBIN        r     1 VX_TREE_SLIB_NAME
PL6.E3A0      #001=VXO$RUN File=VXO$RUN.:E05TSI                                  WED 07/30/97 08:29 Page:32

  ****  BASED and DCB variables  ****

  ****  Scalars and arrays  ****
OctLoc.c.b A Datatyp(siz) R M Lvl/name                 OctLoc.c.b A Datatyp(siz) R M Lvl/name

     0-0-0N  NULL        r     1 M$OF                       0-0-0/w ASTR(9)     r     1 T$C
     0-0-0/c ASTR(9)     r     1 T$C_UNAL                   0-0-0/w STRC(648)   r     1 VX$LST


   Procedure VXO$RUN requires 271 words for executable code.
   Procedure VXO$RUN requires 30 words of local(AUTO) storage.

    No errors detected in file VXO$RUN.:E05TSI    .
PL6.E3A0      #001=VXO$RUN File=VXO$RUN.:E05TSI                                  WED 07/30/97 08:29 Page:33
          *** CROSS REFERENCE LISTING ***
**     DENOTES     IDENTIFIER DEFINITION
<<                 IDENTIFIER'S VALUE SET
>>                 IDENTIFIER'S VALUE USED
<>                 IDENTIFIER SET AND/OR USED
--                 IDENTIFIER REFERENCED
PL6.E3A0      #001=VXO$RUN File=VXO$RUN.:E05TSI                                  WED 07/30/97 08:29 Page:34
          MINI XREF LISTING

ALLOC_TYPE
     10983**DCL     11048<<ASSIGN  11050>>IF      11050>>IF      11051>>ASSIGN  11051>>ASSIGN  11052>>ASSIGN
     11052>>ASSIGN  11054<>CALL    11056<>CALL    11070<>CALL
ALL_TYPE
     10745**DCL         9--PROC    11048>>ASSIGN
BAD_ALIB_HEAD
     11127**LABEL   11013--CALLALT
BAD_SLIB_HEAD
     11143**LABEL   10993--CALLALT
I
     10970**DCL     10971--REDEF   11035<<DOINDEX 11036>>ASSIGN  11037>>DOCASE
J
     10972**DCL     10973--REDEF
K
     10974**DCL     10975--REDEF
L
     10976**DCL     10977--REDEF   11090<<ASSIGN  11101<>CALL    11111>>ASSIGN
LOOP
     10984**DCL     11009<<ASSIGN  11029<<ASSIGN  11031<<ASSIGN  11035>>DOINDEX
M$OF
     10987**DCL     11007<>CALL    11027<>CALL    11135<>CALL    11151<>CALL
NPAGE
     10982**DCL     11056<>CALL
REC_TYPE
     10979**DCL     11036<<ASSIGN  11048>>ASSIGN  11056<>CALL
RUN_REC_TYPE
     10985**DCL     11009--ASSIGN  11029--ASSIGN  11031--ASSIGN  11036>>ASSIGN
SOURCE
     10744**DCL         9--PROC    11056<>CALL
START$
     10952**DCL     11051<<ASSIGN  11054<>CALL    11056<>CALL
T$C.COUNT
PL6.E3A0      #001=VXO$RUN File=VXO$RUN.:E05TSI                                  WED 07/30/97 08:29 Page:35
     10837**DCL     10838--IMP-SIZ 11080>>ASSIGN
T$C_UNAL.COUNT
     10840**DCL     10841--IMP-SIZ
TSIZE
     10980**DCL     11039<<ASSIGN  11041<<ASSIGN  11043<<ASSIGN  11045<<ASSIGN  11047>>IF      11050>>IF
     11052>>ASSIGN  11054<>CALL    11056<>CALL    11056<>CALL    11056<>CALL    11069>>IF      11070>>CALL
     11080<<ASSIGN  11082>>IF      11082>>ASSIGN
TSIZE_READ
     10981**DCL     11056<>CALL    11069>>IF      11070>>CALL
TYPE
     10743**DCL         9--PROC    10989>>DOCASE  11077>>IF
VX$LST.OBJECT_NAME$
     10772**DCL     10773--REDEF
VX$LST.P.NAME_.NAME$
     10785**DCL     11080>>ASSIGN
VX$LST.SC_HEAD$
     10774**DCL     10775--REDEF
VX$LST.SC_TAIL$
     10776**DCL     10777--REDEF
VXA$GET
     10923**DCL-ENT 11054--CALL
VXD$B2C
     10921**DCL-ENT 11097--CALL    11101--CALL
VXE$ERRMSG
     10917**DCL-ENT 11007--CALL    11027--CALL    11127--CALL    11135--CALL    11143--CALL    11151--CALL
VXE$ERROR
     10914**DCL-ENT 11109--CALL
VXF$FREE
     10924**DCL-ENT 11070--CALL
VXI$READ
     10933**DCL-ENT 10993--CALL    11013--CALL
VXU$PREAD
     10931**DCL-ENT 11056--CALL
VX_BIAS.A
      9577**DCL      9578--REDEF
VX_BIAS.I.DATA
PL6.E3A0      #001=VXO$RUN File=VXO$RUN.:E05TSI                                  WED 07/30/97 08:29 Page:36
      9579**DCL     11117<<ASSIGN
VX_CBUF.CHARS_A
      9511**DCL      9512--REDEF
VX_CONST_DCB.ACTPOS
     10693**DCL     10693--REDEF
VX_CONST_DCB.ARS#
     10652**DCL     10652--REDEF
VX_CONST_DCB.ATTR#
     10682**DCL     10682--REDEF   10684--REDEF
VX_CONST_DCB.BORROW
     10704**DCL     10704--REDEF   10704--REDEF   10704--REDEF
VX_CONST_DCB.EOMCHAR#
     10659**DCL     10660--REDEF
VX_CONST_DCB.FLDID
     10696**DCL     10697--REDEF
VX_CONST_DCB.FORM$
     10688**DCL     10688--REDEF
VX_CONST_DCB.FSECT
     10711**DCL     10711--REDEF
VX_CONST_DCB.FSN#
     10678**DCL     10678--REDEF   10678--REDEF   10679--REDEF
VX_CONST_DCB.HEADER$
     10687**DCL     10688--REDEF
VX_CONST_DCB.IXTNSIZE#
     10684**DCL     10685--REDEF
VX_CONST_DCB.LASTSTA$
     10668**DCL     10668--REDEF
VX_CONST_DCB.LVL
     10705**DCL     10705--REDEF
VX_CONST_DCB.NAME#.C
     10668**DCL     10669--REDEF
VX_CONST_DCB.NOEOF
     10700**DCL     10700--REDEF
VX_CONST_DCB.NRECS#
     10685**DCL     10685--REDEF
VX_CONST_DCB.NRECX
PL6.E3A0      #001=VXO$RUN File=VXO$RUN.:E05TSI                                  WED 07/30/97 08:29 Page:37
     10712**DCL     10712--REDEF
VX_CONST_DCB.OHDR
     10701**DCL     10701--REDEF
VX_CONST_DCB.ORG#
     10676**DCL     10677--REDEF
VX_CONST_DCB.PRECNO
     10709**DCL     10709--REDEF
VX_CONST_DCB.RCSZ
     10717**DCL     10717--REDEF
VX_CONST_DCB.RES#
     10670**DCL     10670--REDEF
VX_CONST_DCB.SETX
     10689**DCL     10689--REDEF
VX_CONST_DCB.TAB$
     10688**DCL     10688--REDEF
VX_CONST_DCB.TDA
     10708**DCL     10709--REDEF
VX_CONST_DCB.WSN#
     10670**DCL     10671--REDEF
VX_CURR$
      9546**DCL     11056<>CALL
VX_EBUF.CHARS_A
     10100**DCL     10101--REDEF
VX_EFIELD1.CHARS
     10109**DCL     10110--REDEF
VX_EFIELD1.CHARS_A
     10110**DCL     11097<>CALL
VX_EFIELD2.CHARS
     10113**DCL     10114--REDEF
VX_EFIELD2.CHARS_A
     10114**DCL     11101<>CALL
VX_EFIELD3.CHARS
     10117**DCL     10118--REDEF
VX_EI_KEY_BUF.KEY
     10493**DCL     10494--REDEF
VX_ERRORS
PL6.E3A0      #001=VXO$RUN File=VXO$RUN.:E05TSI                                  WED 07/30/97 08:29 Page:38
      9554**DCL      9565--REDEF
VX_ERRORS.CONFLICT_A
      9560**DCL      9561--REDEF
VX_ERRORS.UNSAT_A
      9556**DCL      9557--REDEF
VX_IMAGE_DATA.CPAGE#_A
      8691**DCL      8692--REDEF
VX_IMAGE_DATA.NODE_A$
      8703**DCL      8704--REDEF
VX_IMAGE_DATA.START_A$
      8695**DCL      8696--REDEF
VX_IMAGE_DATA.STOP_A$
      8699**DCL      8700--REDEF
VX_IMAGE_DS3.CPAGE#_A
      8760**DCL      8761--REDEF
VX_IMAGE_DS3.NODE_A$
      8772**DCL      8773--REDEF
VX_IMAGE_DS3.START_A$
      8764**DCL      8765--REDEF
VX_IMAGE_DS3.STOP_A$
      8768**DCL      8769--REDEF
VX_IMAGE_DS4.CPAGE#_A
      8783**DCL      8784--REDEF
VX_IMAGE_DS4.NODE_A$
      8795**DCL      8796--REDEF
VX_IMAGE_DS4.START_A$
      8787**DCL      8788--REDEF
VX_IMAGE_DS4.STOP_A$
      8791**DCL      8792--REDEF
VX_IMAGE_DS5.CPAGE#_A
      8806**DCL      8807--REDEF
VX_IMAGE_DS5.NODE_A$
      8818**DCL      8819--REDEF
VX_IMAGE_DS5.START_A$
      8810**DCL      8811--REDEF
VX_IMAGE_DS5.STOP_A$
PL6.E3A0      #001=VXO$RUN File=VXO$RUN.:E05TSI                                  WED 07/30/97 08:29 Page:39
      8814**DCL      8815--REDEF
VX_IMAGE_DS6.CPAGE#_A
      8829**DCL      8830--REDEF
VX_IMAGE_DS6.NODE_A$
      8841**DCL      8842--REDEF
VX_IMAGE_DS6.START_A$
      8833**DCL      8834--REDEF
VX_IMAGE_DS6.STOP_A$
      8837**DCL      8838--REDEF
VX_IMAGE_DS7.CPAGE#_A
      8852**DCL      8853--REDEF
VX_IMAGE_DS7.NODE_A$
      8864**DCL      8865--REDEF
VX_IMAGE_DS7.START_A$
      8856**DCL      8857--REDEF
VX_IMAGE_DS7.STOP_A$
      8860**DCL      8861--REDEF
VX_IMAGE_DS8.CPAGE#_A
      8875**DCL      8876--REDEF
VX_IMAGE_DS8.NODE_A$
      8887**DCL      8888--REDEF
VX_IMAGE_DS8.START_A$
      8879**DCL      8880--REDEF
VX_IMAGE_DS8.STOP_A$
      8883**DCL      8884--REDEF
VX_IMAGE_PROC.CPAGE#_A
      8714**DCL      8715--REDEF
VX_IMAGE_PROC.NODE_A$
      8726**DCL      8727--REDEF
VX_IMAGE_PROC.START_A$
      8718**DCL      8719--REDEF
VX_IMAGE_PROC.STOP_A$
      8722**DCL      8723--REDEF
VX_IMAGE_ROS.CPAGE#_A
      8737**DCL      8738--REDEF
VX_IMAGE_ROS.NODE_A$
PL6.E3A0      #001=VXO$RUN File=VXO$RUN.:E05TSI                                  WED 07/30/97 08:29 Page:40
      8749**DCL      8750--REDEF
VX_IMAGE_ROS.START_A$
      8741**DCL      8742--REDEF
VX_IMAGE_ROS.STOP_A$
      8745**DCL      8746--REDEF
VX_M_ALL
      9588**DCL     11050>>IF
VX_M_BASE_PTR
      9590**DCL     11051>>ASSIGN
VX_M_FREE
      9586**DCL     11050>>IF      11051>>ASSIGN  11052<<ASSIGN  11052>>ASSIGN
VX_M_VECTOR.F
      8542**DCL      8546--REDEF
VX_M_VECTOR_DP.F
      8577**DCL      8581--REDEF
VX_O.ACCTN_A$
      9706**DCL      9707--REDEF
VX_O.DCB_MATCH_A$
      9715**DCL      9716--REDEF
VX_O.DCB_MATCH_HIT_A
      9721**DCL      9722--REDEF
VX_O.FIDN_A$
      9700**DCL      9701--REDEF
VX_O.FID_A$
      9692**DCL      9693--REDEF
VX_O.INCLUDE_A$
      9712**DCL      9713--REDEF
VX_O.MAP_A
      9686**DCL      9687--REDEF
VX_O.NODCB_A
      9743**DCL      9744--REDEF
VX_O.NUM.DBIAS
      9636**DCL     11084>>IF      11097<>CALL    11111<<ASSIGN
VX_O.NUM_A
      9631**DCL      9633--REDEF
VX_O.OPT_A
PL6.E3A0      #001=VXO$RUN File=VXO$RUN.:E05TSI                                  WED 07/30/97 08:29 Page:41
      9731**DCL      9732--REDEF
VX_O.PRIV_A
      9647**DCL      9649--REDEF
VX_O.SIN_A
      9600**DCL      9601--REDEF
VX_O.TCB_A
      9727**DCL      9728--REDEF
VX_OD.ACCTN_A$
      9904**DCL      9905--REDEF
VX_OD.DCB_MATCH_A$
      9913**DCL      9914--REDEF
VX_OD.FIDN_A$
      9898**DCL      9899--REDEF
VX_OD.FID_A$
      9890**DCL      9891--REDEF
VX_OD.INCLUDE_A$
      9910**DCL      9911--REDEF
VX_OD.MAP_A
      9884**DCL      9885--REDEF
VX_OD.NODCB_A
      9928**DCL      9929--REDEF
VX_OD.NUM_A
      9831**DCL      9832--REDEF
VX_OD.PRIV_A
      9846**DCL      9847--REDEF
VX_OD.SIN_A
      9800**DCL      9801--REDEF
VX_OD.VECTOR_A$
      9919**DCL      9920--REDEF
VX_OL.MAX_A
      9775**DCL      9777--REDEF
VX_OL.MIN_A
      9760**DCL      9761--REDEF
VX_ON.ACCTN_A$
     10049**DCL     10051--REDEF
VX_ON.DCB_MATCH_A$
PL6.E3A0      #001=VXO$RUN File=VXO$RUN.:E05TSI                                  WED 07/30/97 08:29 Page:42
     10060**DCL     10062--REDEF
VX_ON.FIDN_A$
     10042**DCL     10044--REDEF
VX_ON.FID_A$
     10033**DCL     10035--REDEF
VX_ON.INCLUDE_A$
     10056**DCL     10058--REDEF
VX_ON.MAP_A
     10026**DCL     10028--REDEF
VX_ON.NODCB_A$
     10076**DCL     10077--REDEF
VX_ON.NUM_A
      9971**DCL      9973--REDEF
VX_ON.PRIV_A
      9987**DCL      9989--REDEF
VX_ON.SIN_A
      9939**DCL      9941--REDEF
VX_ON.VECTOR_A$
     10067**DCL     10068--REDEF
VX_OUHEAD.VERSION
      9386**DCL      9388--REDEF
VX_OU_HEAD
      9329**DCL      9368--REDEF
VX_OU_HEAD.REC_A
      9341**DCL      9344--REDEF
VX_O_KEY_BUF.FORM0
      8590**DCL      8593--REDEF    8600--REDEF
VX_O_KEY_BUF_L.FORM0
      8613**DCL      8616--REDEF    8623--REDEF
VX_PASS2_REF.OU.L_START
     10279**DCL     10284--REDEF
VX_PASS2_REF.OU.L_STOP
     10285**DCL     10290--REDEF
VX_PASS2_REF.OU.MAX
     10273**DCL     10278--REDEF
VX_PASS2_REF.OU.SIZE
PL6.E3A0      #001=VXO$RUN File=VXO$RUN.:E05TSI                                  WED 07/30/97 08:29 Page:43
     10291**DCL     10296--REDEF
VX_PASS2_REF.SAT.COUNT
     10318**DCL     10324--REDEF
VX_PASS2_REF.SAT.ENT_SIZE
     10325**DCL     10331--REDEF
VX_PASS2_REF.SAT.L_START
     10304**DCL     10310--REDEF
VX_PASS2_REF.SAT.L_STOP
     10311**DCL     10317--REDEF
VX_PASS2_REF.SAT.MAX
     10298**DCL     10303--REDEF
VX_PASS2_REF.UNSAT.L_START
     10366**DCL     10371--REDEF
VX_PASS2_REF.UNSAT.L_STOP
     10372**DCL     10377--REDEF
VX_PASS2_REF.UNSAT.L_WHERE
     10378**DCL     10383--REDEF
VX_PASS2_REF.UNSAT.MAX
     10360**DCL     10365--REDEF
VX_PASS2_REF.UNSAT.PAGE#
     10390**DCL     10395--REDEF
VX_PASS2_REF.UNSAT.SIZE
     10384**DCL     10389--REDEF
VX_PHRASE.PHRASE
      9792**DCL      9794--REDEF
VX_PROGRAM_BIAS.A
      9570**DCL      9571--REDEF
VX_RU_HEAD_BUF
      9121**DCL     10993--CALL    10993--CALL    11013--CALL    11013--CALL
VX_RU_HEAD_BUF.BIAS
      9285**DCL     11084>>IF      11090>>ASSIGN
VX_RU_HEAD_BUF.EDRECSIZE
      9193**DCL     11041>>ASSIGN
VX_RU_HEAD_BUF.EPRECSIZE
      9190**DCL     11045>>ASSIGN
VX_RU_HEAD_BUF.NRECSIZE
PL6.E3A0      #001=VXO$RUN File=VXO$RUN.:E05TSI                                  WED 07/30/97 08:29 Page:44
      9187**DCL     11039>>ASSIGN
VX_RU_HEAD_BUF.RDATA
      9140**DCL     11078>>IF      11079>>ASSIGN
VX_RU_HEAD_BUF.SDRECSIZE
      9196**DCL     11043>>ASSIGN
VX_R_KEY_BUF.FORM0
      8639**DCL      8643--REDEF    8649--REDEF
VX_R_KEY_BUF.FORM0.CHARS
      8641**DCL     10992<<ASSIGN  11012<<ASSIGN
VX_R_KEY_BUF.FORM0.COUNT
      8640**DCL     10991<<ASSIGN  11011<<ASSIGN
VX_R_KEY_HEAD
     10151**DCL     10991--ASSIGN  10992>>ASSIGN  11011--ASSIGN  11012>>ASSIGN
VX_SD.A
      8267**DCL      8268--REDEF
VX_SLIB_INIT$
     10165**DCL     11080>>ASSIGN
VX_SLIB_MAX_DATA
     10167**DCL     11078>>IF      11079<<ASSIGN
VX_SPC.B$.MINE
     10461**DCL     10467--REDEF
VX_SPC.B$.NAME
     10440**DCL     10446--REDEF
VX_SPC.B$.SKIP
     10454**DCL     10460--REDEF
VX_SPC.B$.VALUE
     10447**DCL     10453--REDEF
VX_SPC.SEG.NAME
     10409**DCL     10415--REDEF
VX_SPC.SEG.VALUE
     10416**DCL     10422--REDEF
VX_SPC_DATA_INSERT
     10501**DCL     11116<<ASSIGN
VX_TREE_SLIB_NAME
      9498**DCL     11082>>IF      11082<<ASSIGN
VX_TSX0_OVERLAY.H
PL6.E3A0      #001=VXO$RUN File=VXO$RUN.:E05TSI                                  WED 07/30/97 08:29 Page:45
     10184**DCL     10187--REDEF
