VERSION E05

PL6.E3A0      #001=VXU$CHKSEV File=VXU$CHKSEV.:E05TSI                            WED 07/30/97 08:43 Page:1
        1        1        /*M* VXU$CHKSEV - To check the link's severity level against the maximum level toler
                 1        able*/
        2        2        /*T***********************************************************/
        3        3        /*T*                                                         */
        4        4        /*T* Copyright (c) Bull HN Information Systems Inc., 1997    */
        5        5        /*T*                                                         */
        6        6        /*T***********************************************************/
        7        7        /*X* DMR,PLM=6,IND=4,CSU=2,EXM=0,ECU=2,MOC,DCI=4,CRT=4,CTI=8,CCC */
        8        8        /*F* NAME:        VXU$CHKSEV
        9        9        PURPOSE:     To check the link's severity level against the maximum level tolerable.
       10       10             Description:
       11       11        VXU$CHKSEV checks the current severity level against the maximum permissible.
       12       12        If the current severity is less than or equal to the maximum, linking proceeds;
       13       13        otherwise an error message is produced and the linking process is aborted
       14       14                                                                       */
       15       15        VXU$CHKSEV:
       16       16              PROC( CHECK );
       17       17        %INCLUDE VX_INC_C;
       18    10733        %ENTRIES;
       19    10748    1   DCL CHECK           UBIN(36)  ALIGNED;
       20    10749        %EJECT;
PL6.E3A0      #001=VXU$CHKSEV File=VXU$CHKSEV.:E05TSI                            WED 07/30/97 08:43 Page:2
       21    10750    1         IF VX_ERR_SEV < CHECK THEN VX_ERR_SEV = CHECK;
       22    10751    2         IF VX_ERR_SEV > VX_O.NUM.SEVERITY THEN DO;
       23    10752        /*E*  ERROR: VXU-E$MAXSEV_VX-0
       24    10753              MESSAGE: Maximum severity exceeded: %U1
       25    10754            DESCRIPTION: Maximum error severity has been exceeded during the linking process
       26    10755        */
       27    10756    2             CALL VXD$B2C(    VX_EFIELD1.CHARS_A, 0, 2, VX_ERR_SEV, 10 );
       28    10757    2             VX_EFIELD1.COUNT = 2;
       29    10758                  %SCREAM(
       30    10759                  ERR#=E$MAXSEV_VX,
       31    10760                  MID="'U'",
       32    10761                  LEVEL=@E$F_VX,
       33    10762                  AUX=0);
       34    10765    2            END;
       35    10766    1   END VXU$CHKSEV;

PL6.E3A0      #001=VXU$CHKSEV File=VXU$CHKSEV.:E05TSI                            WED 07/30/97 08:43 Page:3
--  Include file information  --

   F_DCB_D.:E05TOU  is referenced.
   VX_DCB_R.:E05TOU  cannot be made into a system file and is referenced.
   VX_DATA_R.:E05TOU  cannot be made into a system file and is referenced.
   VX_FIXED_R.:E05TOU  cannot be made into a system file and is referenced.
   XU_MACRO_C.:E05TOU  is referenced.
   CP_6.:E05TOU  cannot be made into a system file and is referenced.
   VX_MACRO_C.:E05TOU  is referenced.
   VX_PERR_C.:E05TOU  is referenced.
   VX_SUBS_C.:E05TOU  is referenced.
   VX_SWITCH_C.:E05TOU  is referenced.
   B$OBJECT_C.:E05TOU  is referenced.
   VX_INC_C.:E05TOU  is referenced.
   B$JIT_C.:E05TOU  was found in the system file and is never referenced.
   CP_6_C.:E05TOU  was found in the system file and is referenced.
      No diagnostics issued in procedure VXU$CHKSEV.

   Procedure VXU$CHKSEV requires 23 words for executable code.
   Procedure VXU$CHKSEV requires 4 words of local(AUTO) storage.

    No errors detected in file VXU$CHKSEV.:E05TSI    .

PL6.E3A0      #001=VXU$CHKSEV File=VXU$CHKSEV.:E05TSI                            WED 07/30/97 08:43 Page:4

 Object Unit name= VXU$CHKSEV                                 File name= VXU$CHKSEV.:E05TOU
 UTS= JUL 30 '97 08:43:20.32 WED                              Compiler= PL-6/E31         Sev=      00
 SharedLib= :SHARED_SYSTEM                                    Alt SharedLib=


    ****  Control sections  ****

 Sect   Type Bound  Init  Size OctSiz  Section name(segment info)
    0   DCB   even  none     0      0  M$UC
    1  LblCom even  none    96    140  VX_CONST_DCB
    2   Proc  even  none    23     27  VXU$CHKSEV
    3  RoData even  none    10     12  VXU$CHKSEV

    ****  Entry defs  ****

                              Check   Calling
                             calling  sequence
  Sect OctLoc Primary Altret sequence   type   Parms  Name
     2      0   yes            yes      Std        1  VXU$CHKSEV

  ****  Entry refs  ****

         Check        Calling
        calling       sequence
Altret sequence SRef   type   Args  Name
         yes           Std       5 VXD$B2C
         yes           Std       4 VXE$ERROR
                       nStd      0 X66_AUTO_1
                       Std       0 B_CONSPOOL_D
                       nStd      0 X66_ARET
PL6.E3A0      #001=VXU$CHKSEV File=VXU$CHKSEV.:E05TSI                            WED 07/30/97 08:43 Page:5

  ****  Data refs  ****

  Flags:  r = read only, s = secondary
Flgs Name                             Flgs Name                             Flgs Name
     M$UC                                  VX_OU_HEAD                            VX_ERRORS
     VX_ERR_SEV                            VX_O                                  VX_EFIELD1
     B_VECTNIL

  ****  Segment refs  ****

  Flags:  r = read only, s = secondary
Flgs Name                             Flgs Name                             Flgs Name
     NULLSID                               ISSID
PL6.E3A0      #001=VXU$CHKSEV File=VXU$CHKSEV.:E05TSI                            WED 07/30/97 08:43 Page:6


        1        1       /*M* VXU$CHKSEV - To check the link's severity level against the maximum level toler
                 1        able*/
        2        2        /*T***********************************************************/
        3        3        /*T*                                                         */
        4        4        /*T* Copyright (c) Bull HN Information Systems Inc., 1997    */
        5        5        /*T*                                                         */
        6        6        /*T***********************************************************/
        7        7        /*X* DMR,PLM=6,IND=4,CSU=2,EXM=0,ECU=2,MOC,DCI=4,CRT=4,CTI=8,CCC */
        8        8        /*F* NAME:        VXU$CHKSEV
        9        9        PURPOSE:    To check the link's severity level against the maximum level tolerable.
       10       10             Description:
       11       11        VXU$CHKSEV checks the current severity level against the maximum permissible.
       12       12        If the current severity is less than or equal to the maximum, linking proceeds;
       13       13        otherwise an error message is produced and the linking process is aborted
       14       14                                                                       */
       15       15        VXU$CHKSEV:
       16       16              PROC( CHECK );

     16  2 000000   000000 700200 xent  VXU$CHKSEV   TSX0  ! X66_AUTO_1
         2 000001   000004 000001                    ZERO    4,1

       17       17        %INCLUDE VX_INC_C;
       18    10733        %ENTRIES;
       19    10748    1   DCL CHECK           UBIN(36)  ALIGNED;
       20    10749        %EJECT;
PL6.E3A0      #001=VXU$CHKSEV File=VXU$CHKSEV.:E05TSI                            WED 07/30/97 08:43 Page:7
       21    10750    1         IF VX_ERR_SEV < CHECK THEN VX_ERR_SEV = CHECK;

  10750  2 000002   200003 470500                    LDP0    @CHECK,,AUTO
         2 000003   000000 236000 xsym               LDQ     VX_ERR_SEV
         2 000004   000000 116100                    CMPQ    0,,PR0
         2 000005   000010 603000 2                  TRC     s:10751

  10750  2 000006   000000 235100                    LDA     0,,PR0
         2 000007   000000 755000 xsym               STA     VX_ERR_SEV

       22    10751    2         IF VX_ERR_SEV > VX_O.NUM.SEVERITY THEN DO;

  10751  2 000010   000000 236000 xsym               LDQ     VX_ERR_SEV
         2 000011   000014 604000 2                  TMI     s:10756
         2 000012   000041 116000 xsym               CMPQ    VX_O+33
         2 000013   000026 604400 2                  TMOZ    s:10766

       23    10752        /*E*  ERROR: VXU-E$MAXSEV_VX-0
       24    10753              MESSAGE: Maximum severity exceeded: %U1
       25    10754           DESCRIPTION: Maximum error severity has been exceeded during the linking process
       26    10755        */
       27    10756    2             CALL VXD$B2C(    VX_EFIELD1.CHARS_A, 0, 2, VX_ERR_SEV, 10 );

  10756  2 000014   000000 630400 3                  EPPR0   0
         2 000015   000023 631400 xsym               EPPR1   B_VECTNIL+19
         2 000016   000000 701000 xent               TSX1    VXD$B2C
         2 000017   000000 011000                    NOP     0

       28    10757    2             VX_EFIELD1.COUNT = 2;

  10757  2 000020   002000 236003                    LDQ     1024,DU
         2 000021   000000 552040 xsym               STBQ    VX_EFIELD1,'40'O

       29    10758                  %SCREAM(
       30    10759                  ERR#=E$MAXSEV_VX,
       31    10760                  MID="'U'",
       32    10761                  LEVEL=@E$F_VX,
PL6.E3A0      #001=VXU$CHKSEV File=VXU$CHKSEV.:E05TSI                            WED 07/30/97 08:43 Page:8
       33    10762                  AUX=0);

  10763  2 000022   000006 630400 3                  EPPR0   6
         2 000023   000022 631400 xsym               EPPR1   B_VECTNIL+18
         2 000024   000000 701000 xent               TSX1    VXE$ERROR
         2 000025   000000 011000                    NOP     0

       34    10765    2            END;

       35    10766    1   END VXU$CHKSEV;

  10766  2 000026   000000 702200 xent               TSX2  ! X66_ARET

PL6.E3A0      #001=VXU$CHKSEV File=VXU$CHKSEV.:E05TSI                            WED 07/30/97 08:43 Page:9
--  Include file information  --

   F_DCB_D.:E05TOU  is referenced.
   VX_DCB_R.:E05TOU  cannot be made into a system file and is referenced.
   VX_DATA_R.:E05TOU  cannot be made into a system file and is referenced.
   VX_FIXED_R.:E05TOU  cannot be made into a system file and is referenced.
   XU_MACRO_C.:E05TOU  is referenced.
   CP_6.:E05TOU  cannot be made into a system file and is referenced.
   VX_MACRO_C.:E05TOU  is referenced.
   VX_PERR_C.:E05TOU  is referenced.
   VX_SUBS_C.:E05TOU  is referenced.
   VX_SWITCH_C.:E05TOU  is referenced.
   B$OBJECT_C.:E05TOU  is referenced.
   VX_INC_C.:E05TOU  is referenced.
   B$JIT_C.:E05TOU  was found in the system file and is never referenced.
   CP_6_C.:E05TOU  was found in the system file and is referenced.
      No diagnostics issued in procedure VXU$CHKSEV.
PL6.E3A0      #001=VXU$CHKSEV File=VXU$CHKSEV.:E05TSI                            WED 07/30/97 08:43 Page:10

 **** Variables and constants ****

  ****  Auto variables  ****

  ****  Scalars and arrays  ****
OctLoc.c.b A Datatyp(siz) R M Lvl/name                 OctLoc.c.b A Datatyp(siz) R M Lvl/name

     3-0-0/w PTR         r     1 @CHECK                    *0-0-0/w UBIN        r     1 CHECK

  ****  SYMREF variables  ****

  ****  Scalars and arrays  ****
OctLoc.c.b A Datatyp(siz) R M Lvl/name                 OctLoc.c.b A Datatyp(siz) R M Lvl/name

     0-0-0/w STRC(720)   r     1 VX_EFIELD1                 0-0-0/w UBIN        r     1 VX_ERR_SEV
     0-0-0/w STRC(4572)  r     1 VX_O


   Procedure VXU$CHKSEV requires 23 words for executable code.
   Procedure VXU$CHKSEV requires 4 words of local(AUTO) storage.

    No errors detected in file VXU$CHKSEV.:E05TSI    .
PL6.E3A0      #001=VXU$CHKSEV File=VXU$CHKSEV.:E05TSI                            WED 07/30/97 08:43 Page:11
          *** CROSS REFERENCE LISTING ***
**     DENOTES     IDENTIFIER DEFINITION
<<                 IDENTIFIER'S VALUE SET
>>                 IDENTIFIER'S VALUE USED
<>                 IDENTIFIER SET AND/OR USED
--                 IDENTIFIER REFERENCED
PL6.E3A0      #001=VXU$CHKSEV File=VXU$CHKSEV.:E05TSI                            WED 07/30/97 08:43 Page:12
          MINI XREF LISTING

CHECK
     10748**DCL        15--PROC    10750>>IF      10750>>ASSIGN
VXD$B2C
     10741**DCL-ENT 10756--CALL
VXE$ERROR
     10734**DCL-ENT 10763--CALL
VX_BIAS.A
      9583**DCL      9584--REDEF
VX_CBUF.CHARS_A
      9517**DCL      9518--REDEF
VX_CONST_DCB.ACTPOS
     10699**DCL     10699--REDEF
VX_CONST_DCB.ARS#
     10658**DCL     10658--REDEF
VX_CONST_DCB.ATTR#
     10688**DCL     10688--REDEF   10690--REDEF
VX_CONST_DCB.BORROW
     10710**DCL     10710--REDEF   10710--REDEF   10710--REDEF
VX_CONST_DCB.EOMCHAR#
     10665**DCL     10666--REDEF
VX_CONST_DCB.FLDID
     10702**DCL     10703--REDEF
VX_CONST_DCB.FORM$
     10694**DCL     10694--REDEF
VX_CONST_DCB.FSECT
     10717**DCL     10717--REDEF
VX_CONST_DCB.FSN#
     10684**DCL     10684--REDEF   10684--REDEF   10685--REDEF
VX_CONST_DCB.HEADER$
     10693**DCL     10694--REDEF
VX_CONST_DCB.IXTNSIZE#
     10690**DCL     10691--REDEF
PL6.E3A0      #001=VXU$CHKSEV File=VXU$CHKSEV.:E05TSI                            WED 07/30/97 08:43 Page:13
VX_CONST_DCB.LASTSTA$
     10674**DCL     10674--REDEF
VX_CONST_DCB.LVL
     10711**DCL     10711--REDEF
VX_CONST_DCB.NAME#.C
     10674**DCL     10675--REDEF
VX_CONST_DCB.NOEOF
     10706**DCL     10706--REDEF
VX_CONST_DCB.NRECS#
     10691**DCL     10691--REDEF
VX_CONST_DCB.NRECX
     10718**DCL     10718--REDEF
VX_CONST_DCB.OHDR
     10707**DCL     10707--REDEF
VX_CONST_DCB.ORG#
     10682**DCL     10683--REDEF
VX_CONST_DCB.PRECNO
     10715**DCL     10715--REDEF
VX_CONST_DCB.RCSZ
     10723**DCL     10723--REDEF
VX_CONST_DCB.RES#
     10676**DCL     10676--REDEF
VX_CONST_DCB.SETX
     10695**DCL     10695--REDEF
VX_CONST_DCB.TAB$
     10694**DCL     10694--REDEF
VX_CONST_DCB.TDA
     10714**DCL     10715--REDEF
VX_CONST_DCB.WSN#
     10676**DCL     10677--REDEF
VX_EBUF.CHARS_A
     10106**DCL     10107--REDEF
VX_EFIELD1.CHARS
     10115**DCL     10116--REDEF
VX_EFIELD1.CHARS_A
     10116**DCL     10756<>CALL
PL6.E3A0      #001=VXU$CHKSEV File=VXU$CHKSEV.:E05TSI                            WED 07/30/97 08:43 Page:14
VX_EFIELD1.COUNT
     10114**DCL     10757<<ASSIGN
VX_EFIELD2.CHARS
     10119**DCL     10120--REDEF
VX_EFIELD3.CHARS
     10123**DCL     10124--REDEF
VX_EI_KEY_BUF.KEY
     10499**DCL     10500--REDEF
VX_ERRORS
      9560**DCL      9571--REDEF
VX_ERRORS.CONFLICT_A
      9566**DCL      9567--REDEF
VX_ERRORS.UNSAT_A
      9562**DCL      9563--REDEF
VX_ERR_SEV
      9573**DCL     10750>>IF      10750<<ASSIGN  10751>>IF      10756<>CALL
VX_IMAGE_DATA.CPAGE#_A
      8697**DCL      8698--REDEF
VX_IMAGE_DATA.NODE_A$
      8709**DCL      8710--REDEF
VX_IMAGE_DATA.START_A$
      8701**DCL      8702--REDEF
VX_IMAGE_DATA.STOP_A$
      8705**DCL      8706--REDEF
VX_IMAGE_DS3.CPAGE#_A
      8766**DCL      8767--REDEF
VX_IMAGE_DS3.NODE_A$
      8778**DCL      8779--REDEF
VX_IMAGE_DS3.START_A$
      8770**DCL      8771--REDEF
VX_IMAGE_DS3.STOP_A$
      8774**DCL      8775--REDEF
VX_IMAGE_DS4.CPAGE#_A
      8789**DCL      8790--REDEF
VX_IMAGE_DS4.NODE_A$
      8801**DCL      8802--REDEF
PL6.E3A0      #001=VXU$CHKSEV File=VXU$CHKSEV.:E05TSI                            WED 07/30/97 08:43 Page:15
VX_IMAGE_DS4.START_A$
      8793**DCL      8794--REDEF
VX_IMAGE_DS4.STOP_A$
      8797**DCL      8798--REDEF
VX_IMAGE_DS5.CPAGE#_A
      8812**DCL      8813--REDEF
VX_IMAGE_DS5.NODE_A$
      8824**DCL      8825--REDEF
VX_IMAGE_DS5.START_A$
      8816**DCL      8817--REDEF
VX_IMAGE_DS5.STOP_A$
      8820**DCL      8821--REDEF
VX_IMAGE_DS6.CPAGE#_A
      8835**DCL      8836--REDEF
VX_IMAGE_DS6.NODE_A$
      8847**DCL      8848--REDEF
VX_IMAGE_DS6.START_A$
      8839**DCL      8840--REDEF
VX_IMAGE_DS6.STOP_A$
      8843**DCL      8844--REDEF
VX_IMAGE_DS7.CPAGE#_A
      8858**DCL      8859--REDEF
VX_IMAGE_DS7.NODE_A$
      8870**DCL      8871--REDEF
VX_IMAGE_DS7.START_A$
      8862**DCL      8863--REDEF
VX_IMAGE_DS7.STOP_A$
      8866**DCL      8867--REDEF
VX_IMAGE_DS8.CPAGE#_A
      8881**DCL      8882--REDEF
VX_IMAGE_DS8.NODE_A$
      8893**DCL      8894--REDEF
VX_IMAGE_DS8.START_A$
      8885**DCL      8886--REDEF
VX_IMAGE_DS8.STOP_A$
      8889**DCL      8890--REDEF
PL6.E3A0      #001=VXU$CHKSEV File=VXU$CHKSEV.:E05TSI                            WED 07/30/97 08:43 Page:16
VX_IMAGE_PROC.CPAGE#_A
      8720**DCL      8721--REDEF
VX_IMAGE_PROC.NODE_A$
      8732**DCL      8733--REDEF
VX_IMAGE_PROC.START_A$
      8724**DCL      8725--REDEF
VX_IMAGE_PROC.STOP_A$
      8728**DCL      8729--REDEF
VX_IMAGE_ROS.CPAGE#_A
      8743**DCL      8744--REDEF
VX_IMAGE_ROS.NODE_A$
      8755**DCL      8756--REDEF
VX_IMAGE_ROS.START_A$
      8747**DCL      8748--REDEF
VX_IMAGE_ROS.STOP_A$
      8751**DCL      8752--REDEF
VX_M_VECTOR.F
      8548**DCL      8552--REDEF
VX_M_VECTOR_DP.F
      8583**DCL      8587--REDEF
VX_O.ACCTN_A$
      9712**DCL      9713--REDEF
VX_O.DCB_MATCH_A$
      9721**DCL      9722--REDEF
VX_O.DCB_MATCH_HIT_A
      9727**DCL      9728--REDEF
VX_O.FIDN_A$
      9706**DCL      9707--REDEF
VX_O.FID_A$
      9698**DCL      9699--REDEF
VX_O.INCLUDE_A$
      9718**DCL      9719--REDEF
VX_O.MAP_A
      9692**DCL      9693--REDEF
VX_O.NODCB_A
      9749**DCL      9750--REDEF
PL6.E3A0      #001=VXU$CHKSEV File=VXU$CHKSEV.:E05TSI                            WED 07/30/97 08:43 Page:17
VX_O.NUM.SEVERITY
      9644**DCL     10751>>IF
VX_O.NUM_A
      9637**DCL      9639--REDEF
VX_O.OPT_A
      9737**DCL      9738--REDEF
VX_O.PRIV_A
      9653**DCL      9655--REDEF
VX_O.SIN_A
      9606**DCL      9607--REDEF
VX_O.TCB_A
      9733**DCL      9734--REDEF
VX_OD.ACCTN_A$
      9910**DCL      9911--REDEF
VX_OD.DCB_MATCH_A$
      9919**DCL      9920--REDEF
VX_OD.FIDN_A$
      9904**DCL      9905--REDEF
VX_OD.FID_A$
      9896**DCL      9897--REDEF
VX_OD.INCLUDE_A$
      9916**DCL      9917--REDEF
VX_OD.MAP_A
      9890**DCL      9891--REDEF
VX_OD.NODCB_A
      9934**DCL      9935--REDEF
VX_OD.NUM_A
      9837**DCL      9838--REDEF
VX_OD.PRIV_A
      9852**DCL      9853--REDEF
VX_OD.SIN_A
      9806**DCL      9807--REDEF
VX_OD.VECTOR_A$
      9925**DCL      9926--REDEF
VX_OL.MAX_A
      9781**DCL      9783--REDEF
PL6.E3A0      #001=VXU$CHKSEV File=VXU$CHKSEV.:E05TSI                            WED 07/30/97 08:43 Page:18
VX_OL.MIN_A
      9766**DCL      9767--REDEF
VX_ON.ACCTN_A$
     10055**DCL     10057--REDEF
VX_ON.DCB_MATCH_A$
     10066**DCL     10068--REDEF
VX_ON.FIDN_A$
     10048**DCL     10050--REDEF
VX_ON.FID_A$
     10039**DCL     10041--REDEF
VX_ON.INCLUDE_A$
     10062**DCL     10064--REDEF
VX_ON.MAP_A
     10032**DCL     10034--REDEF
VX_ON.NODCB_A$
     10082**DCL     10083--REDEF
VX_ON.NUM_A
      9977**DCL      9979--REDEF
VX_ON.PRIV_A
      9993**DCL      9995--REDEF
VX_ON.SIN_A
      9945**DCL      9947--REDEF
VX_ON.VECTOR_A$
     10073**DCL     10074--REDEF
VX_OUHEAD.VERSION
      9392**DCL      9394--REDEF
VX_OU_HEAD
      9335**DCL      9374--REDEF
VX_OU_HEAD.REC_A
      9347**DCL      9350--REDEF
VX_O_KEY_BUF.FORM0
      8596**DCL      8599--REDEF    8606--REDEF
VX_O_KEY_BUF_L.FORM0
      8619**DCL      8622--REDEF    8629--REDEF
VX_PASS2_REF.OU.L_START
     10285**DCL     10290--REDEF
PL6.E3A0      #001=VXU$CHKSEV File=VXU$CHKSEV.:E05TSI                            WED 07/30/97 08:43 Page:19
VX_PASS2_REF.OU.L_STOP
     10291**DCL     10296--REDEF
VX_PASS2_REF.OU.MAX
     10279**DCL     10284--REDEF
VX_PASS2_REF.OU.SIZE
     10297**DCL     10302--REDEF
VX_PASS2_REF.SAT.COUNT
     10324**DCL     10330--REDEF
VX_PASS2_REF.SAT.ENT_SIZE
     10331**DCL     10337--REDEF
VX_PASS2_REF.SAT.L_START
     10310**DCL     10316--REDEF
VX_PASS2_REF.SAT.L_STOP
     10317**DCL     10323--REDEF
VX_PASS2_REF.SAT.MAX
     10304**DCL     10309--REDEF
VX_PASS2_REF.UNSAT.L_START
     10372**DCL     10377--REDEF
VX_PASS2_REF.UNSAT.L_STOP
     10378**DCL     10383--REDEF
VX_PASS2_REF.UNSAT.L_WHERE
     10384**DCL     10389--REDEF
VX_PASS2_REF.UNSAT.MAX
     10366**DCL     10371--REDEF
VX_PASS2_REF.UNSAT.PAGE#
     10396**DCL     10401--REDEF
VX_PASS2_REF.UNSAT.SIZE
     10390**DCL     10395--REDEF
VX_PHRASE.PHRASE
      9798**DCL      9800--REDEF
VX_PROGRAM_BIAS.A
      9576**DCL      9577--REDEF
VX_R_KEY_BUF.FORM0
      8645**DCL      8649--REDEF    8655--REDEF
VX_SD.A
      8273**DCL      8274--REDEF
PL6.E3A0      #001=VXU$CHKSEV File=VXU$CHKSEV.:E05TSI                            WED 07/30/97 08:43 Page:20
VX_SPC.B$.MINE
     10467**DCL     10473--REDEF
VX_SPC.B$.NAME
     10446**DCL     10452--REDEF
VX_SPC.B$.SKIP
     10460**DCL     10466--REDEF
VX_SPC.B$.VALUE
     10453**DCL     10459--REDEF
VX_SPC.SEG.NAME
     10415**DCL     10421--REDEF
VX_SPC.SEG.VALUE
     10422**DCL     10428--REDEF
VX_TSX0_OVERLAY.H
     10190**DCL     10193--REDEF
