VERSION E05

PL6.E3A0      #001=VXU$MERGE File=VXU$MERGE.:E05TSI                              WED 07/30/97 08:43 Page:1
        1        1        /*T***********************************************************/
        2        2        /*T*                                                         */
        3        3        /*T* Copyright (c) Bull HN Information Systems Inc., 1997    */
        4        4        /*T*                                                         */
        5        5        /*T***********************************************************/
        6        6        /*X* DMR,PLM=6,IND=4,CSU=2,EXM=0,ECU=2,MOC,DCI=4,CRT=4,CTI=8,CCC  */
        7        7        VXU$MERGE:
        8        8              PROC( TOOP$, BOTTOM$, LNAME$, LSTART$, LSTOP$, RNAME$, RSTART$, RSTOP$, SZ,
        9        9                      N_D );
       10       10        %INCLUDE VX_INC_C;
       11    10726              %TMPLT;

             10738    1   /*******************************************************************************
             10739    1   *                                                                              *
             10740    1   *                          TMPLT                                                 *
             10741    1   *                                                                              *
             10742    1   *******************************************************************************/

             10747    1   DCL 1 VX$TMPLT           ALIGNED BASED, /* Template for defs                  */
             10748    1         2 A(0:3)       UBIN(18)  UNAL,    /* Array access                       */
             10749    1         2 A_SBIN(0:3) REDEF A    SBIN HALF UNAL,
             10750    1         2 W       REDEF     A,            /* By name                            */
             10751    1           3 WORD0       UBIN(36)  UNAL,   /* First word                         */
             10752    1           3 WORD1       UBIN(36)  UNAL;   /* Second word                        */
       12    10755        %SET LISTMAC='1'B;
       13    10756        %SET LISTSUB='1'B;
       14    10757        %SET LISTEXP='1'B;
       15    10758        %SET LISTDIR='0'B;
             10767    1   DCL 1 B$DNAME BASED ALIGNED,
             10768    1         2 COUNT UBIN HALF UNAL /*(SIZEC(' ')) /**/,
             10769                /*K*  COUNT is the number of characters in the name */
             10775    1         2 TEXT CHAR(B$DNAME.COUNT) UNAL;

             10786    1   /*******************************************************************************
             10787    1   *                                                                              *
             10788    1   *                          PARAMETERS                                              *
             10789    1   *                                                                              *
PL6.E3A0      #001=VXU$MERGE File=VXU$MERGE.:E05TSI                              WED 07/30/97 08:43 Page:2
             10790    1   *******************************************************************************/

       18    10794    1   DCL TOOP$           PTR  ALIGNED;
       19    10795    1   DCL BOTTOM$         PTR  ALIGNED;
       20    10796    1   DCL LNAME$          PTR  ALIGNED;
       21    10797    1   DCL LSTART$         PTR  ALIGNED;
       22    10798    1   DCL LSTOP$          PTR  ALIGNED;
       23    10799    1   DCL RNAME$          PTR  ALIGNED;
       24    10800    1   DCL RSTART$         PTR  ALIGNED;
       25    10801    1   DCL RSTOP$          PTR  ALIGNED;
       26    10802    1   DCL SZ              UBIN(36)  ALIGNED;
       27    10803    1   DCL N_D             UBIN(36)  ALIGNED;

             10812    1   /*******************************************************************************
             10813    1   *                                                                              *
             10814    1   *                          PTR                                                 *
             10815    1   *                                                                              *
             10816    1   *******************************************************************************/

       29    10820    1   DCL TOP$            PTR  ALIGNED   AUTO;
       30    10821    1   DCL LNM$            PTR  ALIGNED   AUTO;
       31    10822    1   DCL LSTT$           PTR  ALIGNED   AUTO;
       32    10823    1   DCL LSTP$           PTR  ALIGNED   AUTO;
       33    10824    1   DCL RNM$            PTR  ALIGNED   AUTO;
       34    10825    1   DCL RSTT$           PTR  ALIGNED   AUTO;
       35    10826    1   DCL RSTP$           PTR  ALIGNED   AUTO;

             10835    1   /*******************************************************************************
             10836    1   *                                                                              *
             10837    1   *                          UBIN                                                 *
             10838    1   *                                                                              *
             10839    1   *******************************************************************************/

       37    10843    1   DCL SIZE            UBIN(36)  ALIGNED   AUTO;
       38    10844    1   DCL NAME_DISP       UBIN(36)  ALIGNED   AUTO;

             10853    1   /*******************************************************************************
PL6.E3A0      #001=VXU$MERGE File=VXU$MERGE.:E05TSI                              WED 07/30/97 08:43 Page:3
             10854    1   *                                                                              *
             10855    1   *                          SBIN                                                 *
             10856    1   *                                                                              *
             10857    1   *******************************************************************************/

       40    10861    1   DCL M_SIZE          SBIN WORD ALIGNED   AUTO;
       41    10862        /**/
       42    10863        /**/
       43    10864        /**/
             10866    1   DCL VX$TARGET_B           BIT( VX_TARGET_COUNT ) ALIGNED    BASED;
             10867    1   DCL VX$SOURCE_B           BIT( VX_SOURCE_COUNT ) ALIGNED    BASED;
             10868    1   DCL VX$TARGET_C         CHAR( VX_TARGET_COUNT ) ALIGNED BASED;
             10869    1   DCL VX$SOURCE_C         CHAR( VX_SOURCE_COUNT ) ALIGNED BASED;

PL6.E3A0      #001=VXU$MERGE File=VXU$MERGE.:E05TSI                              WED 07/30/97 08:43 Page:4
       47    10873    1         LSTT$ = LSTART$;
       48    10874    1         LSTP$ = LSTOP$;
       49    10875    1         RSTT$ = RSTART$;
       50    10876    1         RSTP$ = RSTOP$;
       51    10877    2         IF RSTT$ = ADDR(NIL) AND LSTT$ = ADDR(NIL) THEN DO;
       52    10878    2             TOOP$ = ADDR(NIL);
       53    10879    2             RETURN;
       54    10880    2            END;
       55    10881    1         LNM$ = LNAME$;
       56    10882    1         RNM$ = RNAME$;
       57    10883    1         SIZE = SZ;
       58    10884    1         M_SIZE = - SIZE;
       59    10885    1         VX_TARGET_COUNT = SIZE * 4/*@CHAR_WORD*/;
       60    10886    1         VX_SOURCE_COUNT = VX_TARGET_COUNT;
       61    10887    1         TOP$ = PINCRW( BOTTOM$, SIZE             );
       62    10888    1         IF RSTT$ = ADDR(NIL) THEN GOTO APPEND_LEFT;
       63    10889    1         IF LSTT$ = ADDR(NIL) THEN GOTO APPEND_RIGHT;
       64    10890    1         NAME_DISP = N_D;
       65    10891        /**/
       66    10892        /**/
       67    10893        /**/
       68    10894    1   DECIDE:
       69    10895    1         IF PINCRW( LNM$, LSTP$ -> VX$TMPLT.A(NAME_DISP)   ) -> B$DNAME.TEXT
       70    10896    1                 >=
       71    10897    1                 PINCRW( RNM$, RSTP$ -> VX$TMPLT.A(NAME_DISP)   ) -> B$DNAME.TEXT
       72    10898    1         THEN GOTO PICK_LEFT;
       73    10899    1         GOTO PICK_RIGHT;
       74    10900    1   APPEND_LEFT:
       75    10901    1         TOP$ = PINCRW( TOP$, M_SIZE            );
       76    10902    1         TOP$ -> VX$TARGET_C      =         LSTP$ -> VX$SOURCE_C;
       77    10903    1         IF LSTP$ = LSTT$ THEN GOTO LEAVE;
       78    10904    1         LSTP$ = PINCRW( LSTP$, M_SIZE            );
       79    10905    1         GOTO APPEND_LEFT;
       80    10906        /**/
       81    10907        /**/
       82    10908    1   LEAVE:
       83    10909    1         TOOP$ = TOP$;
PL6.E3A0      #001=VXU$MERGE File=VXU$MERGE.:E05TSI                              WED 07/30/97 08:43 Page:5
       84    10910    1         RETURN;
       85    10911        /**/
       86    10912        /**/
       87    10913    1   APPEND_RIGHT:
       88    10914    1         TOP$ = PINCRW( TOP$, M_SIZE            );
       89    10915    1         TOP$ -> VX$TARGET_C      =         RSTP$ -> VX$SOURCE_C;
       90    10916    1         IF RSTP$ = RSTT$ THEN GOTO LEAVE;
       91    10917    1         RSTP$ = PINCRW( RSTP$, M_SIZE            );
       92    10918    1         GOTO APPEND_RIGHT;
       93    10919        /**/
       94    10920        /**/
       95    10921        /**/
       96    10922    1   PICK_LEFT:
       97    10923    1         TOP$ = PINCRW( TOP$, M_SIZE            );
       98    10924    1         TOP$ -> VX$TARGET_C      =         LSTP$ -> VX$SOURCE_C;
       99    10925    1         IF LSTP$ = LSTT$ THEN GOTO APPEND_RIGHT;
      100    10926    1         LSTP$ = PINCRW( LSTP$, M_SIZE            );
      101    10927    1         GOTO DECIDE;
      102    10928        /**/
      103    10929        /**/
      104    10930        /**/
      105    10931    1   PICK_RIGHT:
      106    10932    1         TOP$ = PINCRW( TOP$, M_SIZE            );
      107    10933    1         TOP$ -> VX$TARGET_C      =         RSTP$ -> VX$SOURCE_C;
      108    10934    1         IF RSTP$ = RSTT$ THEN GOTO APPEND_LEFT;
      109    10935    1         RSTP$ = PINCRW( RSTP$, M_SIZE            );
      110    10936    1         GOTO DECIDE;
      111    10937    1   END VXU$MERGE;

PL6.E3A0      #001=VXU$MERGE File=VXU$MERGE.:E05TSI                              WED 07/30/97 08:43 Page:6
--  Include file information  --

   F_DCB_D.:E05TOU  is referenced.
   VX_DCB_R.:E05TOU  cannot be made into a system file and is referenced.
   VX_DATA_R.:E05TOU  cannot be made into a system file and is referenced.
   VX_FIXED_R.:E05TOU  cannot be made into a system file and is referenced.
   XU_MACRO_C.:E05TOU  is referenced.
   CP_6.:E05TOU  cannot be made into a system file and is referenced.
   VX_MACRO_C.:E05TOU  is referenced.
   VX_PERR_C.:E05TOU  is referenced.
   VX_SUBS_C.:E05TOU  is referenced.
   VX_SWITCH_C.:E05TOU  is referenced.
   B$OBJECT_C.:E05TOU  is referenced.
   VX_INC_C.:E05TOU  is referenced.
   B$JIT_C.:E05TOU  was found in the system file and is never referenced.
   CP_6_C.:E05TOU  was found in the system file and is referenced.
      No diagnostics issued in procedure VXU$MERGE.

   Procedure VXU$MERGE requires 165 words for executable code.
   Procedure VXU$MERGE requires 28 words of local(AUTO) storage.

    No errors detected in file VXU$MERGE.:E05TSI    .

PL6.E3A0      #001=VXU$MERGE File=VXU$MERGE.:E05TSI                              WED 07/30/97 08:43 Page:7

 Object Unit name= VXU$MERGE                                  File name= VXU$MERGE.:E05TOU
 UTS= JUL 30 '97 08:43:54.36 WED                              Compiler= PL-6/E31         Sev=      00
 SharedLib= :SHARED_SYSTEM                                    Alt SharedLib=


    ****  Control sections  ****

 Sect   Type Bound  Init  Size OctSiz  Section name(segment info)
    0   DCB   even  none     0      0  M$UC
    1  LblCom even  none    96    140  VX_CONST_DCB
    2   Proc  even  none   165    245  VXU$MERGE

    ****  Entry defs  ****

                              Check   Calling
                             calling  sequence
  Sect OctLoc Primary Altret sequence   type   Parms  Name
     2      0   yes            yes      Std       10  VXU$MERGE

  ****  Entry refs  ****

         Check        Calling
        calling       sequence
Altret sequence SRef   type   Args  Name
                       nStd      0 X66_AUTO_N
                       Std       0 B_CONSPOOL_D
                       nStd      0 X66_ARET

  ****  Data refs  ****

  Flags:  r = read only, s = secondary
Flgs Name                             Flgs Name                             Flgs Name
     M$UC                                  VX_OU_HEAD                            VX_ERRORS
     VX_TARGET_COUNT                       VX_SOURCE_COUNT                       B_VECTNIL
PL6.E3A0      #001=VXU$MERGE File=VXU$MERGE.:E05TSI                              WED 07/30/97 08:43 Page:8

  ****  Segment refs  ****

  Flags:  r = read only, s = secondary
Flgs Name                             Flgs Name                             Flgs Name
     NULLSID
PL6.E3A0      #001=VXU$MERGE File=VXU$MERGE.:E05TSI                              WED 07/30/97 08:43 Page:9


        1        1        /*T***********************************************************/
        2        2        /*T*                                                         */
        3        3        /*T* Copyright (c) Bull HN Information Systems Inc., 1997    */
        4        4        /*T*                                                         */
        5        5        /*T***********************************************************/
        6        6        /*X* DMR,PLM=6,IND=4,CSU=2,EXM=0,ECU=2,MOC,DCI=4,CRT=4,CTI=8,CCC  */
        7        7        VXU$MERGE:
        8        8              PROC( TOOP$, BOTTOM$, LNAME$, LSTART$, LSTOP$, RNAME$, RSTART$, RSTOP$, SZ,

      8  2 000000   000000 700200 xent  VXU$MERGE    TSX0  ! X66_AUTO_N
         2 000001   000034 000012                    ZERO    28,10

        9        9                      N_D );
       10       10        %INCLUDE VX_INC_C;
       11    10726              %TMPLT;

             10738    1   /*******************************************************************************
             10739    1   *                                                                              *
             10740    1   *                          TMPLT                                                 *
             10741    1   *                                                                              *
             10742    1   *******************************************************************************/

             10747    1   DCL 1 VX$TMPLT           ALIGNED BASED, /* Template for defs                  */
             10748    1         2 A(0:3)       UBIN(18)  UNAL,    /* Array access                       */
             10749    1         2 A_SBIN(0:3) REDEF A    SBIN HALF UNAL,
             10750    1         2 W       REDEF     A,            /* By name                            */
             10751    1           3 WORD0       UBIN(36)  UNAL,   /* First word                         */
             10752    1           3 WORD1       UBIN(36)  UNAL;   /* Second word                        */
       12    10755        %SET LISTMAC='1'B;
       13    10756        %SET LISTSUB='1'B;
       14    10757        %SET LISTEXP='1'B;
       15    10758        %SET LISTDIR='0'B;
             10767    1   DCL 1 B$DNAME BASED ALIGNED,
             10768    1         2 COUNT UBIN HALF UNAL /*(SIZEC(' ')) /**/,
             10769                /*K*  COUNT is the number of characters in the name */
             10775    1         2 TEXT CHAR(B$DNAME.COUNT) UNAL;
PL6.E3A0      #001=VXU$MERGE File=VXU$MERGE.:E05TSI                              WED 07/30/97 08:43 Page:10

             10786    1   /*******************************************************************************
             10787    1   *                                                                              *
             10788    1   *                          PARAMETERS                                             *
             10789    1   *                                                                              *
             10790    1   *******************************************************************************/

       18    10794    1   DCL TOOP$           PTR  ALIGNED;
       19    10795    1   DCL BOTTOM$         PTR  ALIGNED;
       20    10796    1   DCL LNAME$          PTR  ALIGNED;
       21    10797    1   DCL LSTART$         PTR  ALIGNED;
       22    10798    1   DCL LSTOP$          PTR  ALIGNED;
       23    10799    1   DCL RNAME$          PTR  ALIGNED;
       24    10800    1   DCL RSTART$         PTR  ALIGNED;
       25    10801    1   DCL RSTOP$          PTR  ALIGNED;
       26    10802    1   DCL SZ              UBIN(36)  ALIGNED;
       27    10803    1   DCL N_D             UBIN(36)  ALIGNED;

             10812    1   /*******************************************************************************
             10813    1   *                                                                              *
             10814    1   *                          PTR                                                 *
             10815    1   *                                                                              *
             10816    1   *******************************************************************************/

       29    10820    1   DCL TOP$            PTR  ALIGNED   AUTO;
       30    10821    1   DCL LNM$            PTR  ALIGNED   AUTO;
       31    10822    1   DCL LSTT$           PTR  ALIGNED   AUTO;
       32    10823    1   DCL LSTP$           PTR  ALIGNED   AUTO;
       33    10824    1   DCL RNM$            PTR  ALIGNED   AUTO;
       34    10825    1   DCL RSTT$           PTR  ALIGNED   AUTO;
       35    10826    1   DCL RSTP$           PTR  ALIGNED   AUTO;

             10835    1   /*******************************************************************************
             10836    1   *                                                                              *
             10837    1   *                          UBIN                                                 *
             10838    1   *                                                                              *
             10839    1   *******************************************************************************/
PL6.E3A0      #001=VXU$MERGE File=VXU$MERGE.:E05TSI                              WED 07/30/97 08:43 Page:11

       37    10843    1   DCL SIZE            UBIN(36)  ALIGNED   AUTO;
       38    10844    1   DCL NAME_DISP       UBIN(36)  ALIGNED   AUTO;

             10853    1   /*******************************************************************************
             10854    1   *                                                                              *
             10855    1   *                          SBIN                                                 *
             10856    1   *                                                                              *
             10857    1   *******************************************************************************/

       40    10861    1   DCL M_SIZE          SBIN WORD ALIGNED   AUTO;
       41    10862        /**/
       42    10863        /**/
       43    10864        /**/
             10866    1   DCL VX$TARGET_B           BIT( VX_TARGET_COUNT ) ALIGNED    BASED;
             10867    1   DCL VX$SOURCE_B           BIT( VX_SOURCE_COUNT ) ALIGNED    BASED;
             10868    1   DCL VX$TARGET_C         CHAR( VX_TARGET_COUNT ) ALIGNED BASED;
             10869    1   DCL VX$SOURCE_C         CHAR( VX_SOURCE_COUNT ) ALIGNED BASED;

PL6.E3A0      #001=VXU$MERGE File=VXU$MERGE.:E05TSI                              WED 07/30/97 08:43 Page:12
       47    10873    1         LSTT$ = LSTART$;

  10873  2 000002   200006 470500                    LDP0    @LSTART$,,AUTO
         2 000003   000000 236100                    LDQ     0,,PR0
         2 000004   200017 756100                    STQ     LSTT$,,AUTO

       48    10874    1         LSTP$ = LSTOP$;

  10874  2 000005   200007 471500                    LDP1    @LSTOP$,,AUTO
         2 000006   100000 236100                    LDQ     0,,PR1
         2 000007   200020 756100                    STQ     LSTP$,,AUTO

       49    10875    1         RSTT$ = RSTART$;

  10875  2 000010   200011 473500                    LDP3    @RSTART$,,AUTO
         2 000011   300000 236100                    LDQ     0,,PR3
         2 000012   200022 756100                    STQ     RSTT$,,AUTO

       50    10876    1         RSTP$ = RSTOP$;

  10876  2 000013   200012 474500                    LDP4    @RSTOP$,,AUTO
         2 000014   400000 236100                    LDQ     0,,PR4
         2 000015   200023 756100                    STQ     RSTP$,,AUTO

       51    10877    2         IF RSTT$ = ADDR(NIL) AND LSTT$ = ADDR(NIL) THEN DO;

  10877  2 000016   200022 236100                    LDQ     RSTT$,,AUTO
         2 000017   000001 116000 xsym               CMPQ    B_VECTNIL+1
         2 000020   000030 601000 2                  TNZ     s:10881
         2 000021   200017 236100                    LDQ     LSTT$,,AUTO
         2 000022   000001 116000 xsym               CMPQ    B_VECTNIL+1
         2 000023   000030 601000 2                  TNZ     s:10881

       52    10878    2             TOOP$ = ADDR(NIL);

  10878  2 000024   000001 236000 xsym               LDQ     B_VECTNIL+1
         2 000025   200003 475500                    LDP5    @TOOP$,,AUTO
PL6.E3A0      #001=VXU$MERGE File=VXU$MERGE.:E05TSI                              WED 07/30/97 08:43 Page:13
         2 000026   500000 756100                    STQ     0,,PR5

       53    10879    2             RETURN;

  10879  2 000027   000000 702200 xent               TSX2  ! X66_ARET

       54    10880    2            END;
       55    10881    1         LNM$ = LNAME$;

  10881  2 000030   200005 475500                    LDP5    @LNAME$,,AUTO
         2 000031   500000 236100                    LDQ     0,,PR5
         2 000032   200016 756100                    STQ     LNM$,,AUTO

       56    10882    1         RNM$ = RNAME$;

  10882  2 000033   200010 476500                    LDP6    @RNAME$,,AUTO
         2 000034   600000 236100                    LDQ     0,,PR6
         2 000035   200021 756100                    STQ     RNM$,,AUTO

       57    10883    1         SIZE = SZ;

  10883  2 000036   200013 477500                    LDP7    @SZ,,AUTO
         2 000037   700000 235100                    LDA     0,,PR7
         2 000040   200024 755100                    STA     SIZE,,AUTO

       58    10884    1         M_SIZE = - SIZE;

  10884  2 000041   000027 675000 xsym               ERA     B_VECTNIL+23
         2 000042   000001 035007                    ADLA    1,DL
         2 000043   200026 755100                    STA     M_SIZE,,AUTO

       59    10885    1         VX_TARGET_COUNT = SIZE * 4/*@CHAR_WORD*/;

  10885  2 000044   200024 235100                    LDA     SIZE,,AUTO
         2 000045   000002 735000                    ALS     2
         2 000046   000000 755000 xsym               STA     VX_TARGET_COUNT

PL6.E3A0      #001=VXU$MERGE File=VXU$MERGE.:E05TSI                              WED 07/30/97 08:43 Page:14
       60    10886    1         VX_SOURCE_COUNT = VX_TARGET_COUNT;

  10886  2 000047   000000 755000 xsym               STA     VX_SOURCE_COUNT

       61    10887    1         TOP$ = PINCRW( BOTTOM$, SIZE             );

  10887  2 000050   200004 470500                    LDP0    @BOTTOM$,,AUTO
         2 000051   000000 471500                    LDP1    0,,PR0
         2 000052   200024 720100                    LXL0    SIZE,,AUTO
         2 000053   100000 630510                    EPPR0   0,X0,PR1
         2 000054   200015 450500                    STP0    TOP$,,AUTO

       62    10888    1         IF RSTT$ = ADDR(NIL) THEN GOTO APPEND_LEFT;

  10888  2 000055   200022 236100                    LDQ     RSTT$,,AUTO
         2 000056   000001 116000 xsym               CMPQ    B_VECTNIL+1
         2 000057   000127 600000 2                  TZE     APPEND_LEFT

       63    10889    1         IF LSTT$ = ADDR(NIL) THEN GOTO APPEND_RIGHT;

  10889  2 000060   200017 236100                    LDQ     LSTT$,,AUTO
         2 000061   000001 116000 xsym               CMPQ    B_VECTNIL+1
         2 000062   000156 600000 2                  TZE     APPEND_RIGHT

       64    10890    1         NAME_DISP = N_D;

  10890  2 000063   200014 471500                    LDP1    @N_D,,AUTO
         2 000064   100000 235100                    LDA     0,,PR1
         2 000065   200025 755100                    STA     NAME_DISP,,AUTO

       65    10891        /**/
       66    10892        /**/
       67    10893        /**/
       68    10894    1   DECIDE:
       69    10895    1         IF PINCRW( LNM$, LSTP$ -> VX$TMPLT.A(NAME_DISP)   ) -> B$DNAME.TEXT

  10895  2 000066   200025 235100       DECIDE       LDA     NAME_DISP,,AUTO
PL6.E3A0      #001=VXU$MERGE File=VXU$MERGE.:E05TSI                              WED 07/30/97 08:43 Page:15
         2 000067   000001 735000                    ALS     1
         2 000070   200020 470500                    LDP0    LSTP$,,AUTO
         2 000071   000100 100505                    MLR     fill='000'O
         2 000072   000000 000002                    ADSC9   0,A,PR0                  cn=0,n=2
         2 000073   200030 000004                    ADSC9   M_SIZE+2,,AUTO           cn=0,n=4
         2 000074   200030 220100                    LDX0    M_SIZE+2,,AUTO
         2 000075   000100 100505                    MLR     fill='000'O
         2 000076   000000 000002                    ADSC9   0,A,PR0                  cn=0,n=2
         2 000077   200031 000004                    ADSC9   M_SIZE+3,,AUTO           cn=0,n=4
         2 000100   200031 221100                    LDX1    M_SIZE+3,,AUTO
         2 000101   200016 471500                    LDP1    LNM$,,AUTO
         2 000102   100000 222111                    LDX2    0,X1,PR1
         2 000103   200023 473500                    LDP3    RSTP$,,AUTO
         2 000104   000100 100505                    MLR     fill='000'O
         2 000105   300000 000002                    ADSC9   0,A,PR3                  cn=0,n=2
         2 000106   200032 000004                    ADSC9   M_SIZE+4,,AUTO           cn=0,n=4
         2 000107   200032 223100                    LDX3    M_SIZE+4,,AUTO
         2 000110   000100 100505                    MLR     fill='000'O
         2 000111   300000 000002                    ADSC9   0,A,PR3                  cn=0,n=2
         2 000112   200033 000004                    ADSC9   M_SIZE+5,,AUTO           cn=0,n=4
         2 000113   200033 224100                    LDX4    M_SIZE+5,,AUTO
         2 000114   200021 474500                    LDP4    RNM$,,AUTO
         2 000115   400000 225114                    LDX5    0,X4,PR4
         2 000116   000000 636010                    EAQ     0,X0
         2 000117   000020 772000                    QRL     16
         2 000120   000000 635013                    EAA     0,X3
         2 000121   000020 771000                    ARL     16
         2 000122   040145 106546                    CMPC    fill='040'O
         2 000123   100000 400012                    ADSC9   0,Q,PR1                  cn=2,n=*X2
         2 000124   400000 400015                    ADSC9   0,A,PR4                  cn=2,n=*X5
         2 000125   000201 603000 2                  TRC     PICK_LEFT

       70    10896    1                 >=
       71    10897    1                 PINCRW( RNM$, RSTP$ -> VX$TMPLT.A(NAME_DISP)   ) -> B$DNAME.TEXT
       72    10898    1         THEN GOTO PICK_LEFT;
       73    10899    1         GOTO PICK_RIGHT;

PL6.E3A0      #001=VXU$MERGE File=VXU$MERGE.:E05TSI                              WED 07/30/97 08:43 Page:16
  10899  2 000126   000223 710000 2                  TRA     PICK_RIGHT

       74    10900    1   APPEND_LEFT:
       75    10901    1         TOP$ = PINCRW( TOP$, M_SIZE            );

  10901  2 000127   200026 236100       APPEND_LEFT  LDQ     M_SIZE,,AUTO
         2 000130   000022 736000                    QLS     18
         2 000131   200015 036100                    ADLQ    TOP$,,AUTO
         2 000132   200015 756100                    STQ     TOP$,,AUTO

       76    10902    1         TOP$ -> VX$TARGET_C      =         LSTP$ -> VX$SOURCE_C;

  10902  2 000133   200020 470500                    LDP0    LSTP$,,AUTO
         2 000134   000000 720000 xsym               LXL0    VX_SOURCE_COUNT
         2 000135   200015 471500                    LDP1    TOP$,,AUTO
         2 000136   000000 721000 xsym               LXL1    VX_TARGET_COUNT
         2 000137   040140 100540                    MLR     fill='040'O
         2 000140   000000 000010                    ADSC9   0,,PR0                   cn=0,n=*X0
         2 000141   100000 000011                    ADSC9   0,,PR1                   cn=0,n=*X1

       77    10903    1         IF LSTP$ = LSTT$ THEN GOTO LEAVE;

  10903  2 000142   200020 236100                    LDQ     LSTP$,,AUTO
         2 000143   200017 116100                    CMPQ    LSTT$,,AUTO
         2 000144   000152 600000 2                  TZE     LEAVE

       78    10904    1         LSTP$ = PINCRW( LSTP$, M_SIZE            );

  10904  2 000145   200026 236100                    LDQ     M_SIZE,,AUTO
         2 000146   000022 736000                    QLS     18
         2 000147   200020 036100                    ADLQ    LSTP$,,AUTO
         2 000150   200020 756100                    STQ     LSTP$,,AUTO

       79    10905    1         GOTO APPEND_LEFT;

  10905  2 000151   000127 710000 2                  TRA     APPEND_LEFT

PL6.E3A0      #001=VXU$MERGE File=VXU$MERGE.:E05TSI                              WED 07/30/97 08:43 Page:17
       80    10906        /**/
       81    10907        /**/
       82    10908    1   LEAVE:
       83    10909    1         TOOP$ = TOP$;

  10909  2 000152   200015 236100       LEAVE        LDQ     TOP$,,AUTO
         2 000153   200003 470500                    LDP0    @TOOP$,,AUTO
         2 000154   000000 756100                    STQ     0,,PR0

       84    10910    1         RETURN;

  10910  2 000155   000000 702200 xent               TSX2  ! X66_ARET

       85    10911        /**/
       86    10912        /**/
       87    10913    1   APPEND_RIGHT:
       88    10914    1         TOP$ = PINCRW( TOP$, M_SIZE            );

  10914  2 000156   200026 236100       APPEND_RIGHT LDQ     M_SIZE,,AUTO
         2 000157   000022 736000                    QLS     18
         2 000160   200015 036100                    ADLQ    TOP$,,AUTO
         2 000161   200015 756100                    STQ     TOP$,,AUTO

       89    10915    1         TOP$ -> VX$TARGET_C      =         RSTP$ -> VX$SOURCE_C;

  10915  2 000162   200023 470500                    LDP0    RSTP$,,AUTO
         2 000163   000000 720000 xsym               LXL0    VX_SOURCE_COUNT
         2 000164   200015 471500                    LDP1    TOP$,,AUTO
         2 000165   000000 721000 xsym               LXL1    VX_TARGET_COUNT
         2 000166   040140 100540                    MLR     fill='040'O
         2 000167   000000 000010                    ADSC9   0,,PR0                   cn=0,n=*X0
         2 000170   100000 000011                    ADSC9   0,,PR1                   cn=0,n=*X1

       90    10916    1         IF RSTP$ = RSTT$ THEN GOTO LEAVE;

  10916  2 000171   200023 236100                    LDQ     RSTP$,,AUTO
         2 000172   200022 116100                    CMPQ    RSTT$,,AUTO
PL6.E3A0      #001=VXU$MERGE File=VXU$MERGE.:E05TSI                              WED 07/30/97 08:43 Page:18
         2 000173   000152 600000 2                  TZE     LEAVE

       91    10917    1         RSTP$ = PINCRW( RSTP$, M_SIZE            );

  10917  2 000174   200026 236100                    LDQ     M_SIZE,,AUTO
         2 000175   000022 736000                    QLS     18
         2 000176   200023 036100                    ADLQ    RSTP$,,AUTO
         2 000177   200023 756100                    STQ     RSTP$,,AUTO

       92    10918    1         GOTO APPEND_RIGHT;

  10918  2 000200   000156 710000 2                  TRA     APPEND_RIGHT

       93    10919        /**/
       94    10920        /**/
       95    10921        /**/
       96    10922    1   PICK_LEFT:
       97    10923    1         TOP$ = PINCRW( TOP$, M_SIZE            );

  10923  2 000201   200026 236100       PICK_LEFT    LDQ     M_SIZE,,AUTO
         2 000202   000022 736000                    QLS     18
         2 000203   200015 036100                    ADLQ    TOP$,,AUTO
         2 000204   200015 756100                    STQ     TOP$,,AUTO

       98    10924    1         TOP$ -> VX$TARGET_C      =         LSTP$ -> VX$SOURCE_C;

  10924  2 000205   000000 722000 xsym               LXL2    VX_SOURCE_COUNT
         2 000206   200015 475500                    LDP5    TOP$,,AUTO
         2 000207   000000 726000 xsym               LXL6    VX_TARGET_COUNT
         2 000210   040140 100540                    MLR     fill='040'O
         2 000211   000000 000012                    ADSC9   0,,PR0                   cn=0,n=*X2
         2 000212   500000 000016                    ADSC9   0,,PR5                   cn=0,n=*X6

       99    10925    1         IF LSTP$ = LSTT$ THEN GOTO APPEND_RIGHT;

  10925  2 000213   200020 236100                    LDQ     LSTP$,,AUTO
         2 000214   200017 116100                    CMPQ    LSTT$,,AUTO
PL6.E3A0      #001=VXU$MERGE File=VXU$MERGE.:E05TSI                              WED 07/30/97 08:43 Page:19
         2 000215   000156 600000 2                  TZE     APPEND_RIGHT

      100    10926    1         LSTP$ = PINCRW( LSTP$, M_SIZE            );

  10926  2 000216   200026 236100                    LDQ     M_SIZE,,AUTO
         2 000217   000022 736000                    QLS     18
         2 000220   200020 036100                    ADLQ    LSTP$,,AUTO
         2 000221   200020 756100                    STQ     LSTP$,,AUTO

      101    10927    1         GOTO DECIDE;

  10927  2 000222   000066 710000 2                  TRA     DECIDE

      102    10928        /**/
      103    10929        /**/
      104    10930        /**/
      105    10931    1   PICK_RIGHT:
      106    10932    1         TOP$ = PINCRW( TOP$, M_SIZE            );

  10932  2 000223   200026 236100       PICK_RIGHT   LDQ     M_SIZE,,AUTO
         2 000224   000022 736000                    QLS     18
         2 000225   200015 036100                    ADLQ    TOP$,,AUTO
         2 000226   200015 756100                    STQ     TOP$,,AUTO

      107    10933    1         TOP$ -> VX$TARGET_C      =         RSTP$ -> VX$SOURCE_C;

  10933  2 000227   000000 720000 xsym               LXL0    VX_SOURCE_COUNT
         2 000230   200015 475500                    LDP5    TOP$,,AUTO
         2 000231   000000 721000 xsym               LXL1    VX_TARGET_COUNT
         2 000232   040140 100540                    MLR     fill='040'O
         2 000233   300000 000010                    ADSC9   0,,PR3                   cn=0,n=*X0
         2 000234   500000 000011                    ADSC9   0,,PR5                   cn=0,n=*X1

      108    10934    1         IF RSTP$ = RSTT$ THEN GOTO APPEND_LEFT;

  10934  2 000235   200023 236100                    LDQ     RSTP$,,AUTO
         2 000236   200022 116100                    CMPQ    RSTT$,,AUTO
PL6.E3A0      #001=VXU$MERGE File=VXU$MERGE.:E05TSI                              WED 07/30/97 08:43 Page:20
         2 000237   000127 600000 2                  TZE     APPEND_LEFT

      109    10935    1         RSTP$ = PINCRW( RSTP$, M_SIZE            );

  10935  2 000240   200026 236100                    LDQ     M_SIZE,,AUTO
         2 000241   000022 736000                    QLS     18
         2 000242   200023 036100                    ADLQ    RSTP$,,AUTO
         2 000243   200023 756100                    STQ     RSTP$,,AUTO

      110    10936    1         GOTO DECIDE;

  10936  2 000244   000066 710000 2                  TRA     DECIDE
      111    10937    1   END VXU$MERGE;

PL6.E3A0      #001=VXU$MERGE File=VXU$MERGE.:E05TSI                              WED 07/30/97 08:43 Page:21
--  Include file information  --

   F_DCB_D.:E05TOU  is referenced.
   VX_DCB_R.:E05TOU  cannot be made into a system file and is referenced.
   VX_DATA_R.:E05TOU  cannot be made into a system file and is referenced.
   VX_FIXED_R.:E05TOU  cannot be made into a system file and is referenced.
   XU_MACRO_C.:E05TOU  is referenced.
   CP_6.:E05TOU  cannot be made into a system file and is referenced.
   VX_MACRO_C.:E05TOU  is referenced.
   VX_PERR_C.:E05TOU  is referenced.
   VX_SUBS_C.:E05TOU  is referenced.
   VX_SWITCH_C.:E05TOU  is referenced.
   B$OBJECT_C.:E05TOU  is referenced.
   VX_INC_C.:E05TOU  is referenced.
   B$JIT_C.:E05TOU  was found in the system file and is never referenced.
   CP_6_C.:E05TOU  was found in the system file and is referenced.
      No diagnostics issued in procedure VXU$MERGE.
PL6.E3A0      #001=VXU$MERGE File=VXU$MERGE.:E05TSI                              WED 07/30/97 08:43 Page:22

 **** Variables and constants ****

  ****  Auto variables  ****

  ****  Scalars and arrays  ****
OctLoc.c.b A Datatyp(siz) R M Lvl/name                 OctLoc.c.b A Datatyp(siz) R M Lvl/name

     4-0-0/w PTR         r     1 @BOTTOM$                   5-0-0/w PTR         r     1 @LNAME$
     6-0-0/w PTR         r     1 @LSTART$                   7-0-0/w PTR         r     1 @LSTOP$
    14-0-0/w PTR         r     1 @N_D                      10-0-0/w PTR         r     1 @RNAME$
    11-0-0/w PTR         r     1 @RSTART$                  12-0-0/w PTR         r     1 @RSTOP$
    13-0-0/w PTR         r     1 @SZ                        3-0-0/w PTR         r     1 @TOOP$
    *0-0-0/w PTR         r     1 BOTTOM$                   *0-0-0/w PTR         r     1 LNAME$
    16-0-0/w PTR         r     1 LNM$                      *0-0-0/w PTR         r     1 LSTART$
    *0-0-0/w PTR         r     1 LSTOP$                    20-0-0/w PTR         r     1 LSTP$
    17-0-0/w PTR         r     1 LSTT$                     26-0-0/w SBIN        r     1 M_SIZE
    25-0-0/w UBIN        r     1 NAME_DISP                 *0-0-0/w UBIN        r     1 N_D
    *0-0-0/w PTR         r     1 RNAME$                    21-0-0/w PTR         r     1 RNM$
    *0-0-0/w PTR         r     1 RSTART$                   *0-0-0/w PTR         r     1 RSTOP$
    23-0-0/w PTR         r     1 RSTP$                     22-0-0/w PTR         r     1 RSTT$
    24-0-0/w UBIN        r     1 SIZE                      *0-0-0/w UBIN        r     1 SZ
    *0-0-0/w PTR         r     1 TOOP$                     15-0-0/w PTR         r     1 TOP$

  ****  SYMREF variables  ****

  ****  Scalars and arrays  ****
OctLoc.c.b A Datatyp(siz) R M Lvl/name                 OctLoc.c.b A Datatyp(siz) R M Lvl/name

     0-0-0/w UBIN        r     1 VX_SOURCE_COUNT            0-0-0/w UBIN        r     1 VX_TARGET_COUNT

  ****  BASED and DCB variables  ****

  ****  Scalars and arrays  ****
OctLoc.c.b A Datatyp(siz) R M Lvl/name                 OctLoc.c.b A Datatyp(siz) R M Lvl/name

     0-0-0/w ASTR(18)    r     1 B$DNAME                    0-0-0/w ACHR        r     1 VX$SOURCE_C
     0-0-0/w ACHR        r     1 VX$TARGET_C                0-0-0/w STRC(72)    r     1 VX$TMPLT
PL6.E3A0      #001=VXU$MERGE File=VXU$MERGE.:E05TSI                              WED 07/30/97 08:43 Page:23


   Procedure VXU$MERGE requires 165 words for executable code.
   Procedure VXU$MERGE requires 28 words of local(AUTO) storage.

    No errors detected in file VXU$MERGE.:E05TSI    .
PL6.E3A0      #001=VXU$MERGE File=VXU$MERGE.:E05TSI                              WED 07/30/97 08:43 Page:24
          *** CROSS REFERENCE LISTING ***
**     DENOTES     IDENTIFIER DEFINITION
<<                 IDENTIFIER'S VALUE SET
>>                 IDENTIFIER'S VALUE USED
<>                 IDENTIFIER SET AND/OR USED
--                 IDENTIFIER REFERENCED
PL6.E3A0      #001=VXU$MERGE File=VXU$MERGE.:E05TSI                              WED 07/30/97 08:43 Page:25
          MINI XREF LISTING

APPEND_LEFT
     10901**LABEL   10888--GOTO    10905--GOTO    10934--GOTO
APPEND_RIGHT
     10914**LABEL   10889--GOTO    10918--GOTO    10925--GOTO
B$DNAME.COUNT
     10768**DCL     10775--IMP-SIZ 10895>>IF      10895>>IF
B$DNAME.TEXT
     10775**DCL     10895>>IF      10895>>IF
BOTTOM$
     10795**DCL         7--PROC    10887>>ASSIGN
DECIDE
     10895**LABEL   10927--GOTO    10936--GOTO
LEAVE
     10909**LABEL   10903--GOTO    10916--GOTO
LNAME$
     10796**DCL         7--PROC    10881>>ASSIGN
LNM$
     10821**DCL     10881<<ASSIGN  10895>>IF      10895>>IF
LSTART$
     10797**DCL         7--PROC    10873>>ASSIGN
LSTOP$
     10798**DCL         7--PROC    10874>>ASSIGN
LSTP$
     10823**DCL     10874<<ASSIGN  10895>>IF      10895>>IF      10902>>ASSIGN  10903>>IF      10904<<ASSIGN
     10904>>ASSIGN  10924>>ASSIGN  10925>>IF      10926<<ASSIGN  10926>>ASSIGN
LSTT$
     10822**DCL     10873<<ASSIGN  10877>>IF      10889>>IF      10903>>IF      10925>>IF
M_SIZE
     10861**DCL     10884<<ASSIGN  10901>>ASSIGN  10904>>ASSIGN  10914>>ASSIGN  10917>>ASSIGN  10923>>ASSIGN
     10926>>ASSIGN  10932>>ASSIGN  10935>>ASSIGN
NAME_DISP
     10844**DCL     10890<<ASSIGN  10895>>IF      10895>>IF      10895>>IF      10895>>IF
PL6.E3A0      #001=VXU$MERGE File=VXU$MERGE.:E05TSI                              WED 07/30/97 08:43 Page:26
N_D
     10803**DCL         7--PROC    10890>>ASSIGN
PICK_LEFT
     10923**LABEL   10898--GOTO
PICK_RIGHT
     10932**LABEL   10899--GOTO
RNAME$
     10799**DCL         7--PROC    10882>>ASSIGN
RNM$
     10824**DCL     10882<<ASSIGN  10895>>IF      10895>>IF
RSTART$
     10800**DCL         7--PROC    10875>>ASSIGN
RSTOP$
     10801**DCL         7--PROC    10876>>ASSIGN
RSTP$
     10826**DCL     10876<<ASSIGN  10895>>IF      10895>>IF      10915>>ASSIGN  10916>>IF      10917<<ASSIGN
     10917>>ASSIGN  10933>>ASSIGN  10934>>IF      10935<<ASSIGN  10935>>ASSIGN
RSTT$
     10825**DCL     10875<<ASSIGN  10877>>IF      10888>>IF      10916>>IF      10934>>IF
SIZE
     10843**DCL     10883<<ASSIGN  10884>>ASSIGN  10885>>ASSIGN  10887>>ASSIGN
SZ
     10802**DCL         7--PROC    10883>>ASSIGN
TOOP$
     10794**DCL         7--PROC    10878<<ASSIGN  10909<<ASSIGN
TOP$
     10820**DCL     10887<<ASSIGN  10901<<ASSIGN  10901>>ASSIGN  10902>>ASSIGN  10909>>ASSIGN  10914<<ASSIGN
     10914>>ASSIGN  10915>>ASSIGN  10923<<ASSIGN  10923>>ASSIGN  10924>>ASSIGN  10932<<ASSIGN  10932>>ASSIGN
     10933>>ASSIGN
VX$SOURCE_C
     10869**DCL     10902>>ASSIGN  10915>>ASSIGN  10924>>ASSIGN  10933>>ASSIGN
VX$TARGET_C
     10868**DCL     10902<<ASSIGN  10915<<ASSIGN  10924<<ASSIGN  10933<<ASSIGN
VX$TMPLT.A
     10748**DCL     10749--REDEF   10750--REDEF   10895>>IF      10895>>IF      10895>>IF      10895>>IF
VX_BIAS.A
PL6.E3A0      #001=VXU$MERGE File=VXU$MERGE.:E05TSI                              WED 07/30/97 08:43 Page:27
      9576**DCL      9577--REDEF
VX_CBUF.CHARS_A
      9510**DCL      9511--REDEF
VX_CONST_DCB.ACTPOS
     10692**DCL     10692--REDEF
VX_CONST_DCB.ARS#
     10651**DCL     10651--REDEF
VX_CONST_DCB.ATTR#
     10681**DCL     10681--REDEF   10683--REDEF
VX_CONST_DCB.BORROW
     10703**DCL     10703--REDEF   10703--REDEF   10703--REDEF
VX_CONST_DCB.EOMCHAR#
     10658**DCL     10659--REDEF
VX_CONST_DCB.FLDID
     10695**DCL     10696--REDEF
VX_CONST_DCB.FORM$
     10687**DCL     10687--REDEF
VX_CONST_DCB.FSECT
     10710**DCL     10710--REDEF
VX_CONST_DCB.FSN#
     10677**DCL     10677--REDEF   10677--REDEF   10678--REDEF
VX_CONST_DCB.HEADER$
     10686**DCL     10687--REDEF
VX_CONST_DCB.IXTNSIZE#
     10683**DCL     10684--REDEF
VX_CONST_DCB.LASTSTA$
     10667**DCL     10667--REDEF
VX_CONST_DCB.LVL
     10704**DCL     10704--REDEF
VX_CONST_DCB.NAME#.C
     10667**DCL     10668--REDEF
VX_CONST_DCB.NOEOF
     10699**DCL     10699--REDEF
VX_CONST_DCB.NRECS#
     10684**DCL     10684--REDEF
VX_CONST_DCB.NRECX
PL6.E3A0      #001=VXU$MERGE File=VXU$MERGE.:E05TSI                              WED 07/30/97 08:43 Page:28
     10711**DCL     10711--REDEF
VX_CONST_DCB.OHDR
     10700**DCL     10700--REDEF
VX_CONST_DCB.ORG#
     10675**DCL     10676--REDEF
VX_CONST_DCB.PRECNO
     10708**DCL     10708--REDEF
VX_CONST_DCB.RCSZ
     10716**DCL     10716--REDEF
VX_CONST_DCB.RES#
     10669**DCL     10669--REDEF
VX_CONST_DCB.SETX
     10688**DCL     10688--REDEF
VX_CONST_DCB.TAB$
     10687**DCL     10687--REDEF
VX_CONST_DCB.TDA
     10707**DCL     10708--REDEF
VX_CONST_DCB.WSN#
     10669**DCL     10670--REDEF
VX_EBUF.CHARS_A
     10099**DCL     10100--REDEF
VX_EFIELD1.CHARS
     10108**DCL     10109--REDEF
VX_EFIELD2.CHARS
     10112**DCL     10113--REDEF
VX_EFIELD3.CHARS
     10116**DCL     10117--REDEF
VX_EI_KEY_BUF.KEY
     10492**DCL     10493--REDEF
VX_ERRORS
      9553**DCL      9564--REDEF
VX_ERRORS.CONFLICT_A
      9559**DCL      9560--REDEF
VX_ERRORS.UNSAT_A
      9555**DCL      9556--REDEF
VX_IMAGE_DATA.CPAGE#_A
PL6.E3A0      #001=VXU$MERGE File=VXU$MERGE.:E05TSI                              WED 07/30/97 08:43 Page:29
      8690**DCL      8691--REDEF
VX_IMAGE_DATA.NODE_A$
      8702**DCL      8703--REDEF
VX_IMAGE_DATA.START_A$
      8694**DCL      8695--REDEF
VX_IMAGE_DATA.STOP_A$
      8698**DCL      8699--REDEF
VX_IMAGE_DS3.CPAGE#_A
      8759**DCL      8760--REDEF
VX_IMAGE_DS3.NODE_A$
      8771**DCL      8772--REDEF
VX_IMAGE_DS3.START_A$
      8763**DCL      8764--REDEF
VX_IMAGE_DS3.STOP_A$
      8767**DCL      8768--REDEF
VX_IMAGE_DS4.CPAGE#_A
      8782**DCL      8783--REDEF
VX_IMAGE_DS4.NODE_A$
      8794**DCL      8795--REDEF
VX_IMAGE_DS4.START_A$
      8786**DCL      8787--REDEF
VX_IMAGE_DS4.STOP_A$
      8790**DCL      8791--REDEF
VX_IMAGE_DS5.CPAGE#_A
      8805**DCL      8806--REDEF
VX_IMAGE_DS5.NODE_A$
      8817**DCL      8818--REDEF
VX_IMAGE_DS5.START_A$
      8809**DCL      8810--REDEF
VX_IMAGE_DS5.STOP_A$
      8813**DCL      8814--REDEF
VX_IMAGE_DS6.CPAGE#_A
      8828**DCL      8829--REDEF
VX_IMAGE_DS6.NODE_A$
      8840**DCL      8841--REDEF
VX_IMAGE_DS6.START_A$
PL6.E3A0      #001=VXU$MERGE File=VXU$MERGE.:E05TSI                              WED 07/30/97 08:43 Page:30
      8832**DCL      8833--REDEF
VX_IMAGE_DS6.STOP_A$
      8836**DCL      8837--REDEF
VX_IMAGE_DS7.CPAGE#_A
      8851**DCL      8852--REDEF
VX_IMAGE_DS7.NODE_A$
      8863**DCL      8864--REDEF
VX_IMAGE_DS7.START_A$
      8855**DCL      8856--REDEF
VX_IMAGE_DS7.STOP_A$
      8859**DCL      8860--REDEF
VX_IMAGE_DS8.CPAGE#_A
      8874**DCL      8875--REDEF
VX_IMAGE_DS8.NODE_A$
      8886**DCL      8887--REDEF
VX_IMAGE_DS8.START_A$
      8878**DCL      8879--REDEF
VX_IMAGE_DS8.STOP_A$
      8882**DCL      8883--REDEF
VX_IMAGE_PROC.CPAGE#_A
      8713**DCL      8714--REDEF
VX_IMAGE_PROC.NODE_A$
      8725**DCL      8726--REDEF
VX_IMAGE_PROC.START_A$
      8717**DCL      8718--REDEF
VX_IMAGE_PROC.STOP_A$
      8721**DCL      8722--REDEF
VX_IMAGE_ROS.CPAGE#_A
      8736**DCL      8737--REDEF
VX_IMAGE_ROS.NODE_A$
      8748**DCL      8749--REDEF
VX_IMAGE_ROS.START_A$
      8740**DCL      8741--REDEF
VX_IMAGE_ROS.STOP_A$
      8744**DCL      8745--REDEF
VX_M_VECTOR.F
PL6.E3A0      #001=VXU$MERGE File=VXU$MERGE.:E05TSI                              WED 07/30/97 08:43 Page:31
      8541**DCL      8545--REDEF
VX_M_VECTOR_DP.F
      8576**DCL      8580--REDEF
VX_O.ACCTN_A$
      9705**DCL      9706--REDEF
VX_O.DCB_MATCH_A$
      9714**DCL      9715--REDEF
VX_O.DCB_MATCH_HIT_A
      9720**DCL      9721--REDEF
VX_O.FIDN_A$
      9699**DCL      9700--REDEF
VX_O.FID_A$
      9691**DCL      9692--REDEF
VX_O.INCLUDE_A$
      9711**DCL      9712--REDEF
VX_O.MAP_A
      9685**DCL      9686--REDEF
VX_O.NODCB_A
      9742**DCL      9743--REDEF
VX_O.NUM_A
      9630**DCL      9632--REDEF
VX_O.OPT_A
      9730**DCL      9731--REDEF
VX_O.PRIV_A
      9646**DCL      9648--REDEF
VX_O.SIN_A
      9599**DCL      9600--REDEF
VX_O.TCB_A
      9726**DCL      9727--REDEF
VX_OD.ACCTN_A$
      9903**DCL      9904--REDEF
VX_OD.DCB_MATCH_A$
      9912**DCL      9913--REDEF
VX_OD.FIDN_A$
      9897**DCL      9898--REDEF
VX_OD.FID_A$
PL6.E3A0      #001=VXU$MERGE File=VXU$MERGE.:E05TSI                              WED 07/30/97 08:43 Page:32
      9889**DCL      9890--REDEF
VX_OD.INCLUDE_A$
      9909**DCL      9910--REDEF
VX_OD.MAP_A
      9883**DCL      9884--REDEF
VX_OD.NODCB_A
      9927**DCL      9928--REDEF
VX_OD.NUM_A
      9830**DCL      9831--REDEF
VX_OD.PRIV_A
      9845**DCL      9846--REDEF
VX_OD.SIN_A
      9799**DCL      9800--REDEF
VX_OD.VECTOR_A$
      9918**DCL      9919--REDEF
VX_OL.MAX_A
      9774**DCL      9776--REDEF
VX_OL.MIN_A
      9759**DCL      9760--REDEF
VX_ON.ACCTN_A$
     10048**DCL     10050--REDEF
VX_ON.DCB_MATCH_A$
     10059**DCL     10061--REDEF
VX_ON.FIDN_A$
     10041**DCL     10043--REDEF
VX_ON.FID_A$
     10032**DCL     10034--REDEF
VX_ON.INCLUDE_A$
     10055**DCL     10057--REDEF
VX_ON.MAP_A
     10025**DCL     10027--REDEF
VX_ON.NODCB_A$
     10075**DCL     10076--REDEF
VX_ON.NUM_A
      9970**DCL      9972--REDEF
VX_ON.PRIV_A
PL6.E3A0      #001=VXU$MERGE File=VXU$MERGE.:E05TSI                              WED 07/30/97 08:43 Page:33
      9986**DCL      9988--REDEF
VX_ON.SIN_A
      9938**DCL      9940--REDEF
VX_ON.VECTOR_A$
     10066**DCL     10067--REDEF
VX_OUHEAD.VERSION
      9385**DCL      9387--REDEF
VX_OU_HEAD
      9328**DCL      9367--REDEF
VX_OU_HEAD.REC_A
      9340**DCL      9343--REDEF
VX_O_KEY_BUF.FORM0
      8589**DCL      8592--REDEF    8599--REDEF
VX_O_KEY_BUF_L.FORM0
      8612**DCL      8615--REDEF    8622--REDEF
VX_PASS2_REF.OU.L_START
     10278**DCL     10283--REDEF
VX_PASS2_REF.OU.L_STOP
     10284**DCL     10289--REDEF
VX_PASS2_REF.OU.MAX
     10272**DCL     10277--REDEF
VX_PASS2_REF.OU.SIZE
     10290**DCL     10295--REDEF
VX_PASS2_REF.SAT.COUNT
     10317**DCL     10323--REDEF
VX_PASS2_REF.SAT.ENT_SIZE
     10324**DCL     10330--REDEF
VX_PASS2_REF.SAT.L_START
     10303**DCL     10309--REDEF
VX_PASS2_REF.SAT.L_STOP
     10310**DCL     10316--REDEF
VX_PASS2_REF.SAT.MAX
     10297**DCL     10302--REDEF
VX_PASS2_REF.UNSAT.L_START
     10365**DCL     10370--REDEF
VX_PASS2_REF.UNSAT.L_STOP
PL6.E3A0      #001=VXU$MERGE File=VXU$MERGE.:E05TSI                              WED 07/30/97 08:43 Page:34
     10371**DCL     10376--REDEF
VX_PASS2_REF.UNSAT.L_WHERE
     10377**DCL     10382--REDEF
VX_PASS2_REF.UNSAT.MAX
     10359**DCL     10364--REDEF
VX_PASS2_REF.UNSAT.PAGE#
     10389**DCL     10394--REDEF
VX_PASS2_REF.UNSAT.SIZE
     10383**DCL     10388--REDEF
VX_PHRASE.PHRASE
      9791**DCL      9793--REDEF
VX_PROGRAM_BIAS.A
      9569**DCL      9570--REDEF
VX_R_KEY_BUF.FORM0
      8638**DCL      8642--REDEF    8648--REDEF
VX_SD.A
      8266**DCL      8267--REDEF
VX_SOURCE_COUNT
     10125**DCL     10867--IMP-SIZ 10869--IMP-SIZ 10886<<ASSIGN  10902>>ASSIGN  10915>>ASSIGN  10924>>ASSIGN
     10933>>ASSIGN
VX_SPC.B$.MINE
     10460**DCL     10466--REDEF
VX_SPC.B$.NAME
     10439**DCL     10445--REDEF
VX_SPC.B$.SKIP
     10453**DCL     10459--REDEF
VX_SPC.B$.VALUE
     10446**DCL     10452--REDEF
VX_SPC.SEG.NAME
     10408**DCL     10414--REDEF
VX_SPC.SEG.VALUE
     10415**DCL     10421--REDEF
VX_TARGET_COUNT
     10124**DCL     10866--IMP-SIZ 10868--IMP-SIZ 10885<<ASSIGN  10886>>ASSIGN  10902>>ASSIGN  10915>>ASSIGN
     10924>>ASSIGN  10933>>ASSIGN
VX_TSX0_OVERLAY.H
PL6.E3A0      #001=VXU$MERGE File=VXU$MERGE.:E05TSI                              WED 07/30/97 08:43 Page:35
     10183**DCL     10186--REDEF
