PL6.E3A0      #002=VXU$NEW_SECTNUM File=VXU$PREAD.:E05TSI                        WED 07/30/97 08:46 Page:130
      526        1        /*T***********************************************************/
      527        2        /*T*                                                         */
      528        3        /*T* Copyright (c) Bull HN Information Systems Inc., 1997    */
      529        4        /*T*                                                         */
      530        5        /*T***********************************************************/
      531        6        VXU$NEW_SECTNUM: PROC(RU_DEF,NODE#,RU_SECT#,P_SECTNUM$);
      532        7
      533        8        %INCLUDE VX_INC_C;
      534    10724        %VX$SECTNUM;

             10737    1   /*******************************************************************************
             10738    1   *                                                                              *
             10739    1   *                          VX$SECTNUM                                              *
             10740    1   *                                                                              *
             10741    1   *******************************************************************************/

             10746    1   DCL 1 VX$SECTNUM ALIGNED BASED,
             10747    1         2 NEXT$ PTR,
             10748    1         2 SECT#    UBIN HALF HALIGNED,
             10749    1         2 NPOINTER UBIN HALF HALIGNED,
             10750    1         2 NODE#    UBIN HALF HALIGNED,
             10751    1         2 RU_SECT# UBIN HALF HALIGNED;
      535    10754        %B$RU_DEF(NAME=RU_DEF,STCLASS=);
      536    10811    1   DCL NODE#        SBIN;
      537    10812    1   DCL RU_SECT#     SBIN;
      538    10813    1   DCL P_SECTNUM$   PTR;
      539    10814    1   DCL SC_IDX       SBIN STATIC;
      540    10815    1   DCL SECTNUM$     PTR  STATIC;
      541    10816        %ENTRIES;
      542    10831
      543    10832
      544    10833    1         RU_DEF.AD.LOOKUP_SECTNUM='1'B;
      545    10834              %ALLOCATE(PTR$=SECTNUM$,TYPE=@GDP,SIZE="SIZEW(VX$SECTNUM)");
      546    10841    1         IF ADDR(P_SECTNUM$)~=ADDR(NIL) THEN P_SECTNUM$=SECTNUM$;
      547    10842    1         SC_IDX=MOD(RU_DEF.AD.SECTNUM+RU_DEF.NPOINTER+NODE#,1024);
      548    10843    1         SECTNUM$->VX$SECTNUM.NEXT$ =VX_SECTNUM$(SC_IDX);
      549    10844    1         SECTNUM$->VX$SECTNUM.NPOINTER=RU_DEF.NPOINTER;
PL6.E3A0      #002=VXU$NEW_SECTNUM File=VXU$PREAD.:E05TSI                        WED 07/30/97 08:46 Page:131
      550    10845    1         SECTNUM$->VX$SECTNUM.SECT# =RU_DEF.AD.SECTNUM;
      551    10846    1         SECTNUM$->VX$SECTNUM.NODE# =NODE#;
      552    10847    1         SECTNUM$->VX$SECTNUM.RU_SECT#=RU_SECT#;
      553    10848    1         VX_SECTNUM$(SC_IDX)=SECTNUM$;
      554    10849    1         RETURN;
      555    10850
      556    10851    1   VXU$FIND_SECTNUM: ENTRY(RU_DEF,NODE#,RU_SECT#,P_SECTNUM$);
      557    10852
      558    10853
      559    10854    1         SC_IDX=MOD(RU_DEF.AD.SECTNUM+RU_DEF.NPOINTER+NODE#,1024);
      560    10855    1         SECTNUM$=VX_SECTNUM$(SC_IDX);
      561    10856    2         DO WHILE('1'B);
      562    10857    2             IF SECTNUM$=ADDR(NIL)
      563    10858    3             THEN DO;
      564    10859        /*E* ERROR: VXU-E$CANT_FIND_SECTION_VX-C
      565    10860             MESSAGE: Internal link error: Unable to find section in VXU$FIND_SECTNUM
      566    10861        */
      567    10862                      %SCREAM( ERR#=E$CANT_FIND_SECTION_VX,LEVEL=@E$F_VX,MID="'U'" );
      568    10865    3                END;
      569    10866    2             IF SECTNUM$->VX$SECTNUM.NPOINTER =RU_DEF.NPOINTER
      570    10867    2                     AND SECTNUM$->VX$SECTNUM.SECT#=RU_DEF.AD.SECTNUM
      571    10868    2                     AND SECTNUM$->VX$SECTNUM.NODE#=NODE#
      572    10869    3             THEN DO;
      573    10870    3                 RU_SECT#=SECTNUM$->VX$SECTNUM.RU_SECT#;
      574    10871    3                 IF ADDR(P_SECTNUM$)~=ADDR(NIL) THEN P_SECTNUM$=SECTNUM$;
      575    10872    3                 RETURN;
      576    10873    3                END;
      577    10874    2             SECTNUM$=SECTNUM$->VX$SECTNUM.NEXT$;
      578    10875    2            END;
      579    10876
      580    10877    1   END VXU$NEW_SECTNUM;

PL6.E3A0      #002=VXU$NEW_SECTNUM File=VXU$PREAD.:E05TSI                        WED 07/30/97 08:46 Page:132
--  Include file information  --

   F_DCB_D.:E05TOU  is referenced.
   VX_DCB_R.:E05TOU  cannot be made into a system file and is referenced.
   VX_DATA_R.:E05TOU  cannot be made into a system file and is referenced.
   VX_FIXED_R.:E05TOU  cannot be made into a system file and is referenced.
   XU_MACRO_C.:E05TOU  is referenced.
   CP_6.:E05TOU  cannot be made into a system file and is referenced.
   VX_MACRO_C.:E05TOU  is referenced.
   VX_PERR_C.:E05TOU  is referenced.
   VX_SUBS_C.:E05TOU  is referenced.
   VX_SWITCH_C.:E05TOU  is referenced.
   B$OBJECT_C.:E05TOU  is referenced.
   VX_INC_C.:E05TOU  is referenced.
   B$JIT_C.:E05TOU  was found in the system file and is never referenced.
   CP_6_C.:E05TOU  was found in the system file and is referenced.
      No diagnostics issued in procedure VXU$NEW_SECTNUM.

   Procedure VXU$NEW_SECTNUM requires 117 words for executable code.
   Procedure VXU$NEW_SECTNUM requires 10 words of local(AUTO) storage.

    No errors detected in file VXU$PREAD.:E05TSI    .

PL6.E3A0      #002=VXU$NEW_SECTNUM File=VXU$PREAD.:E05TSI                        WED 07/30/97 08:46 Page:133

 Object Unit name= VXU$NEW_SECTNUM                            File name= VXU$PREAD.:E05TOU
 UTS= JUL 30 '97 08:46:32.08 WED                              Compiler= PL-6/E31         Sev=      00
 SharedLib= :SHARED_SYSTEM                                    Alt SharedLib=


    ****  Control sections  ****

 Sect   Type Bound  Init  Size OctSiz  Section name(segment info)
    0   DCB   even  none     0      0  M$UC
    1  LblCom even  none    96    140  VX_CONST_DCB
    2   Data  even  none     2      2  VXU$NEW_SECTNUM
    3   Proc  even  none   117    165  VXU$NEW_SECTNUM
    4  RoData even  none     9     11  VXU$NEW_SECTNUM

    ****  Entry defs  ****

                              Check   Calling
                             calling  sequence
  Sect OctLoc Primary Altret sequence   type   Parms  Name
     3      0   yes            yes      Std        4  VXU$NEW_SECTNUM
     3     72                  yes      Std        4  VXU$FIND_SECTNUM

  ****  Entry refs  ****

         Check        Calling
        calling       sequence
Altret sequence SRef   type   Args  Name
         yes           Std       3 VXA$GET
         yes           Std       4 VXE$ERROR
                       nStd      0 X66_AUTO_4
                       Std       0 B_CONSPOOL_D
                       nStd      0 X66_ARET
PL6.E3A0      #002=VXU$NEW_SECTNUM File=VXU$PREAD.:E05TSI                        WED 07/30/97 08:46 Page:134

  ****  Data refs  ****

  Flags:  r = read only, s = secondary
Flgs Name                             Flgs Name                             Flgs Name
     M$UC                                  VX_OU_HEAD                            VX_ERRORS
     VX_M_FREE                             VX_M_ALL                              VX_M_BASE_PTR
     VX_SECTNUM$                           B_VECTNIL

  ****  Segment refs  ****

  Flags:  r = read only, s = secondary
Flgs Name                             Flgs Name                             Flgs Name
     NULLSID                               ISSID
PL6.E3A0      #002=VXU$NEW_SECTNUM File=VXU$PREAD.:E05TSI                        WED 07/30/97 08:46 Page:135


      526        1        /*T***********************************************************/
      527        2        /*T*                                                         */
      528        3        /*T* Copyright (c) Bull HN Information Systems Inc., 1997    */
      529        4        /*T*                                                         */
      530        5        /*T***********************************************************/
      531        6        VXU$NEW_SECTNUM: PROC(RU_DEF,NODE#,RU_SECT#,P_SECTNUM$);

      6  3 000000   000000 700200 xent  VXU$NEW_SEC* TSX0  ! X66_AUTO_4
         3 000001   000012 000004                    ZERO    10,4

      532        7
      533        8        %INCLUDE VX_INC_C;
      534    10724        %VX$SECTNUM;

             10737    1   /*******************************************************************************
             10738    1   *                                                                              *
             10739    1   *                          VX$SECTNUM                                             *
             10740    1   *                                                                              *
             10741    1   *******************************************************************************/

             10746    1   DCL 1 VX$SECTNUM ALIGNED BASED,
             10747    1         2 NEXT$ PTR,
             10748    1         2 SECT#    UBIN HALF HALIGNED,
             10749    1         2 NPOINTER UBIN HALF HALIGNED,
             10750    1         2 NODE#    UBIN HALF HALIGNED,
             10751    1         2 RU_SECT# UBIN HALF HALIGNED;
      535    10754        %B$RU_DEF(NAME=RU_DEF,STCLASS=);
      536    10811    1   DCL NODE#        SBIN;
      537    10812    1   DCL RU_SECT#     SBIN;
      538    10813    1   DCL P_SECTNUM$   PTR;
      539    10814    1   DCL SC_IDX       SBIN STATIC;
      540    10815    1   DCL SECTNUM$     PTR  STATIC;
      541    10816        %ENTRIES;
      542    10831
      543    10832
      544    10833    1         RU_DEF.AD.LOOKUP_SECTNUM='1'B;
PL6.E3A0      #002=VXU$NEW_SECTNUM File=VXU$PREAD.:E05TSI                        WED 07/30/97 08:46 Page:136

  10833  3 000002   200003 470500                    LDP0    @RU_DEF,,AUTO
         3 000003   004000 236003                    LDQ     2048,DU
         3 000004   000000 256100                    ORSQ    0,,PR0

      545    10834              %ALLOCATE(PTR$=SECTNUM$,TYPE=@GDP,SIZE="SIZEW(VX$SECTNUM)");

  10835  3 000005   000010 236000 xsym               LDQ     VX_M_ALL+8
         3 000006   000010 136000 xsym               SBLQ    VX_M_FREE+8
         3 000007   000003 116007                    CMPQ    3,DL
         3 000010   000020 604000 3                  TMI     s:10839

  10836  3 000011   000010 236000 xsym               LDQ     VX_M_FREE+8
         3 000012   000022 736000                    QLS     18
         3 000013   000010 036000 xsym               ADLQ    VX_M_BASE_PTR+8
         3 000014   000001 756000 2                  STQ     SECTNUM$

  10837  3 000015   000003 236007                    LDQ     3,DL
         3 000016   000010 056000 xsym               ASQ     VX_M_FREE+8

  10838  3 000017   000024 710000 3                  TRA     s:10841

  10839  3 000020   000000 630400 4                  EPPR0   0
         3 000021   000021 631400 xsym               EPPR1   B_VECTNIL+17
         3 000022   000000 701000 xent               TSX1    VXA$GET
         3 000023   000000 011000                    NOP     0

      546    10841    1         IF ADDR(P_SECTNUM$)~=ADDR(NIL) THEN P_SECTNUM$=SECTNUM$;

  10841  3 000024   200006 236100                    LDQ     @P_SECTNUM$,,AUTO
         3 000025   000001 116000 xsym               CMPQ    B_VECTNIL+1
         3 000026   000032 600000 3                  TZE     s:10842

  10841  3 000027   000001 236000 2                  LDQ     SECTNUM$
         3 000030   200006 470500                    LDP0    @P_SECTNUM$,,AUTO
         3 000031   000000 756100                    STQ     0,,PR0

PL6.E3A0      #002=VXU$NEW_SECTNUM File=VXU$PREAD.:E05TSI                        WED 07/30/97 08:46 Page:137
      547    10842    1         SC_IDX=MOD(RU_DEF.AD.SECTNUM+RU_DEF.NPOINTER+NODE#,1024);

  10842  3 000032   200003 470500                    LDP0    @RU_DEF,,AUTO
         3 000033   000001 236100                    LDQ     1,,PR0
         3 000034   000022 732000                    QRS     18
         3 000035   200010 756100                    STQ     @P_SECTNUM$+2,,AUTO
         3 000036   000000 236100                    LDQ     0,,PR0
         3 000037   000022 772000                    QRL     18
         3 000040   003777 376007                    ANQ     2047,DL
         3 000041   200010 036100                    ADLQ    @P_SECTNUM$+2,,AUTO
         3 000042   200004 471500                    LDP1    @NODE#,,AUTO
         3 000043   100000 036100                    ADLQ    0,,PR1
         3 000044   002000 506007                    DIV     1024,DL
         3 000045   000000 755000 2                  STA     SC_IDX

      548    10843    1         SECTNUM$->VX$SECTNUM.NEXT$ =VX_SECTNUM$(SC_IDX);

  10843  3 000046   000000 236005 xsym               LDQ     VX_SECTNUM$,AL
         3 000047   000001 473400 2                  LDP3    SECTNUM$
         3 000050   300000 756100                    STQ     0,,PR3

      549    10844    1         SECTNUM$->VX$SECTNUM.NPOINTER=RU_DEF.NPOINTER;

  10844  3 000051   000001 220100                    LDX0    1,,PR0
         3 000052   000001 473400 2                  LDP3    SECTNUM$
         3 000053   300001 440100                    SXL0    1,,PR3

      550    10845    1         SECTNUM$->VX$SECTNUM.SECT# =RU_DEF.AD.SECTNUM;

  10845  3 000054   000000 220100                    LDX0    0,,PR0
         3 000055   003777 360003                    ANX0    2047,DU
         3 000056   000001 473400 2                  LDP3    SECTNUM$
         3 000057   300001 740100                    STX0    1,,PR3

      551    10846    1         SECTNUM$->VX$SECTNUM.NODE# =NODE#;

  10846  3 000060   100000 720100                    LXL0    0,,PR1
PL6.E3A0      #002=VXU$NEW_SECTNUM File=VXU$PREAD.:E05TSI                        WED 07/30/97 08:46 Page:138
         3 000061   000001 473400 2                  LDP3    SECTNUM$
         3 000062   300002 740100                    STX0    2,,PR3

      552    10847    1         SECTNUM$->VX$SECTNUM.RU_SECT#=RU_SECT#;

  10847  3 000063   200005 474500                    LDP4    @RU_SECT#,,AUTO
         3 000064   400000 721100                    LXL1    0,,PR4
         3 000065   300002 441100                    SXL1    2,,PR3

      553    10848    1         VX_SECTNUM$(SC_IDX)=SECTNUM$;

  10848  3 000066   000001 236000 2                  LDQ     SECTNUM$
         3 000067   000000 722000 2                  LXL2    SC_IDX
         3 000070   000000 756012 xsym               STQ     VX_SECTNUM$,X2

      554    10849    1         RETURN;

  10849  3 000071   000000 702200 xent               TSX2  ! X66_ARET

      555    10850
      556    10851    1   VXU$FIND_SECTNUM: ENTRY(RU_DEF,NODE#,RU_SECT#,P_SECTNUM$);

  10851  3 000072   000000 700200 xent  VXU$FIND_SE* TSX0  ! X66_AUTO_4
         3 000073   000012 000004                    ZERO    10,4

      557    10852
      558    10853
      559    10854    1         SC_IDX=MOD(RU_DEF.AD.SECTNUM+RU_DEF.NPOINTER+NODE#,1024);

  10854  3 000074   200003 470500                    LDP0    @RU_DEF,,AUTO
         3 000075   000001 236100                    LDQ     1,,PR0
         3 000076   000022 732000                    QRS     18
         3 000077   200010 756100                    STQ     @P_SECTNUM$+2,,AUTO
         3 000100   000000 236100                    LDQ     0,,PR0
         3 000101   000022 772000                    QRL     18
         3 000102   003777 376007                    ANQ     2047,DL
         3 000103   200010 036100                    ADLQ    @P_SECTNUM$+2,,AUTO
PL6.E3A0      #002=VXU$NEW_SECTNUM File=VXU$PREAD.:E05TSI                        WED 07/30/97 08:46 Page:139
         3 000104   200004 471500                    LDP1    @NODE#,,AUTO
         3 000105   100000 036100                    ADLQ    0,,PR1
         3 000106   002000 506007                    DIV     1024,DL
         3 000107   000000 755000 2                  STA     SC_IDX

      560    10855    1         SECTNUM$=VX_SECTNUM$(SC_IDX);

  10855  3 000110   000000 236005 xsym               LDQ     VX_SECTNUM$,AL
         3 000111   000001 756000 2                  STQ     SECTNUM$

      561    10856    2         DO WHILE('1'B);

      562    10857    2             IF SECTNUM$=ADDR(NIL)

  10857  3 000112   000001 236000 2                  LDQ     SECTNUM$
         3 000113   000001 116000 xsym               CMPQ    B_VECTNIL+1
         3 000114   000121 601000 3                  TNZ     s:10866

      563    10858    3             THEN DO;

      564    10859        /*E* ERROR: VXU-E$CANT_FIND_SECTION_VX-C
      565    10860             MESSAGE: Internal link error: Unable to find section in VXU$FIND_SECTNUM
      566    10861        */
      567    10862                      %SCREAM( ERR#=E$CANT_FIND_SECTION_VX,LEVEL=@E$F_VX,MID="'U'" );

  10863  3 000115   000005 630400 4                  EPPR0   5
         3 000116   000022 631400 xsym               EPPR1   B_VECTNIL+18
         3 000117   000000 701000 xent               TSX1    VXE$ERROR
         3 000120   000000 011000                    NOP     0

      568    10865    3                END;

      569    10866    2             IF SECTNUM$->VX$SECTNUM.NPOINTER =RU_DEF.NPOINTER

  10866  3 000121   200003 470500                    LDP0    @RU_DEF,,AUTO
         3 000122   000001 236100                    LDQ     1,,PR0
         3 000123   000022 732000                    QRS     18
PL6.E3A0      #002=VXU$NEW_SECTNUM File=VXU$PREAD.:E05TSI                        WED 07/30/97 08:46 Page:140
         3 000124   200010 756100                    STQ     @P_SECTNUM$+2,,AUTO
         3 000125   000001 471400 2                  LDP1    SECTNUM$
         3 000126   100001 236100                    LDQ     1,,PR1
         3 000127   777777 376007                    ANQ     -1,DL
         3 000130   200010 116100                    CMPQ    @P_SECTNUM$+2,,AUTO
         3 000131   000162 601000 3                  TNZ     s:10874
         3 000132   000000 236100                    LDQ     0,,PR0
         3 000133   000022 772000                    QRL     18
         3 000134   003777 376007                    ANQ     2047,DL
         3 000135   200011 756100                    STQ     @P_SECTNUM$+3,,AUTO
         3 000136   100001 236100                    LDQ     1,,PR1
         3 000137   000022 772000                    QRL     18
         3 000140   200011 116100                    CMPQ    @P_SECTNUM$+3,,AUTO
         3 000141   000162 601000 3                  TNZ     s:10874
         3 000142   200004 473500                    LDP3    @NODE#,,AUTO
         3 000143   100002 236100                    LDQ     2,,PR1
         3 000144   000022 772000                    QRL     18
         3 000145   300000 116100                    CMPQ    0,,PR3
         3 000146   000162 601000 3                  TNZ     s:10874

      570    10867    2                     AND SECTNUM$->VX$SECTNUM.SECT#=RU_DEF.AD.SECTNUM
      571    10868    2                     AND SECTNUM$->VX$SECTNUM.NODE#=NODE#
      572    10869    3             THEN DO;

      573    10870    3                 RU_SECT#=SECTNUM$->VX$SECTNUM.RU_SECT#;

  10870  3 000147   100002 236100                    LDQ     2,,PR1
         3 000150   777777 376007                    ANQ     -1,DL
         3 000151   200005 474500                    LDP4    @RU_SECT#,,AUTO
         3 000152   400000 756100                    STQ     0,,PR4

      574    10871    3                 IF ADDR(P_SECTNUM$)~=ADDR(NIL) THEN P_SECTNUM$=SECTNUM$;

  10871  3 000153   200006 236100                    LDQ     @P_SECTNUM$,,AUTO
         3 000154   000001 116000 xsym               CMPQ    B_VECTNIL+1
         3 000155   000161 600000 3                  TZE     s:10872

PL6.E3A0      #002=VXU$NEW_SECTNUM File=VXU$PREAD.:E05TSI                        WED 07/30/97 08:46 Page:141
  10871  3 000156   000001 236000 2                  LDQ     SECTNUM$
         3 000157   200006 471500                    LDP1    @P_SECTNUM$,,AUTO
         3 000160   100000 756100                    STQ     0,,PR1

      575    10872    3                 RETURN;

  10872  3 000161   000000 702200 xent               TSX2  ! X66_ARET

      576    10873    3                END;
      577    10874    2             SECTNUM$=SECTNUM$->VX$SECTNUM.NEXT$;

  10874  3 000162   100000 236100                    LDQ     0,,PR1
         3 000163   000001 756000 2                  STQ     SECTNUM$

      578    10875    2            END;

  10875  3 000164   000112 710000 3                  TRA     s:10857
      579    10876
      580    10877    1   END VXU$NEW_SECTNUM;

PL6.E3A0      #002=VXU$NEW_SECTNUM File=VXU$PREAD.:E05TSI                        WED 07/30/97 08:46 Page:142
--  Include file information  --

   F_DCB_D.:E05TOU  is referenced.
   VX_DCB_R.:E05TOU  cannot be made into a system file and is referenced.
   VX_DATA_R.:E05TOU  cannot be made into a system file and is referenced.
   VX_FIXED_R.:E05TOU  cannot be made into a system file and is referenced.
   XU_MACRO_C.:E05TOU  is referenced.
   CP_6.:E05TOU  cannot be made into a system file and is referenced.
   VX_MACRO_C.:E05TOU  is referenced.
   VX_PERR_C.:E05TOU  is referenced.
   VX_SUBS_C.:E05TOU  is referenced.
   VX_SWITCH_C.:E05TOU  is referenced.
   B$OBJECT_C.:E05TOU  is referenced.
   VX_INC_C.:E05TOU  is referenced.
   B$JIT_C.:E05TOU  was found in the system file and is never referenced.
   CP_6_C.:E05TOU  was found in the system file and is referenced.
      No diagnostics issued in procedure VXU$NEW_SECTNUM.
PL6.E3A0      #002=VXU$NEW_SECTNUM File=VXU$PREAD.:E05TSI                        WED 07/30/97 08:46 Page:143

 **** Variables and constants ****

  ****  Section 002  Data  VXU$NEW_SECTNUM

  ****  Scalars and arrays  ****
OctLoc.c.b A Datatyp(siz) R M Lvl/name                 OctLoc.c.b A Datatyp(siz) R M Lvl/name

     0-0-0/w SBIN        r     1 SC_IDX                     1-0-0/w PTR         r     1 SECTNUM$

  ****  Auto variables  ****

  ****  Scalars and arrays  ****
OctLoc.c.b A Datatyp(siz) R M Lvl/name                 OctLoc.c.b A Datatyp(siz) R M Lvl/name

     4-0-0/w PTR         r     1 @NODE#                     6-0-0/w PTR         r     1 @P_SECTNUM$
     3-0-0/w PTR         r     1 @RU_DEF                    5-0-0/w PTR         r     1 @RU_SECT#
    *0-0-0/w SBIN        r     1 NODE#                     *0-0-0/w PTR         r     1 P_SECTNUM$
    *0-0-0/w STRC(72)    r     1 RU_DEF                    *0-0-0/w SBIN        r     1 RU_SECT#

  ****  SYMREF variables  ****

  ****  Scalars and arrays  ****
OctLoc.c.b A Datatyp(siz) R M Lvl/name                 OctLoc.c.b A Datatyp(siz) R M Lvl/name

     0-0-0/w SBIN        r     1 VX_M_ALL(0:8)
     0-0-0/w PTR         r     1 VX_M_BASE_PTR(0:8)
     0-0-0/w SBIN        r     1 VX_M_FREE(0:8)
     0-0-0/w PTR         r     1 VX_SECTNUM$(0:1023)

  ****  BASED and DCB variables  ****

  ****  Scalars and arrays  ****
OctLoc.c.b A Datatyp(siz) R M Lvl/name                 OctLoc.c.b A Datatyp(siz) R M Lvl/name

     0-0-0/w STRC(108)   r     1 VX$SECTNUM

PL6.E3A0      #002=VXU$NEW_SECTNUM File=VXU$PREAD.:E05TSI                        WED 07/30/97 08:46 Page:144

   Procedure VXU$NEW_SECTNUM requires 117 words for executable code.
   Procedure VXU$NEW_SECTNUM requires 10 words of local(AUTO) storage.

    No errors detected in file VXU$PREAD.:E05TSI    .
PL6.E3A0      #002=VXU$NEW_SECTNUM File=VXU$PREAD.:E05TSI                        WED 07/30/97 08:46 Page:145
          *** CROSS REFERENCE LISTING ***
**     DENOTES     IDENTIFIER DEFINITION
<<                 IDENTIFIER'S VALUE SET
>>                 IDENTIFIER'S VALUE USED
<>                 IDENTIFIER SET AND/OR USED
--                 IDENTIFIER REFERENCED
PL6.E3A0      #002=VXU$NEW_SECTNUM File=VXU$PREAD.:E05TSI                        WED 07/30/97 08:46 Page:146
          MINI XREF LISTING

NODE#
     10811**DCL         6--PROC    10842>>ASSIGN  10846>>ASSIGN  10851--ENTRY   10854>>ASSIGN  10866>>IF
P_SECTNUM$
     10813**DCL         6--PROC    10841--IF      10841<<ASSIGN  10851--ENTRY   10871--IF      10871<<ASSIGN
RU_DEF
     10755**DCL         6--PROC    10851--ENTRY
RU_DEF.AD.ISADDR
     10778**DCL     10780--REDEF
RU_DEF.AD.LOOKUP_SECTNUM
     10772**DCL     10833<<ASSIGN
RU_DEF.AD.SECTNUM
     10775**DCL     10842>>ASSIGN  10845>>ASSIGN  10854>>ASSIGN  10866>>IF
RU_DEF.LFLAGS
     10791**DCL     10804--REDEF
RU_DEF.NPOINTER
     10782**DCL     10842>>ASSIGN  10844>>ASSIGN  10854>>ASSIGN  10866>>IF
RU_DEF.VALUE
     10756**DCL     10758--REDEF
RU_SECT#
     10812**DCL         6--PROC    10847>>ASSIGN  10851--ENTRY   10870<<ASSIGN
SC_IDX
     10814**DCL     10842<<ASSIGN  10843>>ASSIGN  10848>>ASSIGN  10854<<ASSIGN  10855>>ASSIGN
SECTNUM$
     10815**DCL     10836<<ASSIGN  10839<>CALL    10841>>ASSIGN  10843>>ASSIGN  10844>>ASSIGN  10845>>ASSIGN
     10846>>ASSIGN  10847>>ASSIGN  10848>>ASSIGN  10855<<ASSIGN  10857>>IF      10866>>IF      10866>>IF
     10866>>IF      10870>>ASSIGN  10871>>ASSIGN  10874<<ASSIGN  10874>>ASSIGN
VX$SECTNUM
     10746**DCL     10835--IF      10837--ASSIGN  10839--CALL
VX$SECTNUM.NEXT$
     10747**DCL     10843<<ASSIGN  10874>>ASSIGN
VX$SECTNUM.NODE#
     10750**DCL     10846<<ASSIGN  10866>>IF
PL6.E3A0      #002=VXU$NEW_SECTNUM File=VXU$PREAD.:E05TSI                        WED 07/30/97 08:46 Page:147
VX$SECTNUM.NPOINTER
     10749**DCL     10844<<ASSIGN  10866>>IF
VX$SECTNUM.RU_SECT#
     10751**DCL     10847<<ASSIGN  10870>>ASSIGN
VX$SECTNUM.SECT#
     10748**DCL     10845<<ASSIGN  10866>>IF
VXA$GET
     10826**DCL-ENT 10839--CALL
VXE$ERROR
     10817**DCL-ENT 10863--CALL
VX_BIAS.A
      9574**DCL      9575--REDEF
VX_CBUF.CHARS_A
      9508**DCL      9509--REDEF
VX_CONST_DCB.ACTPOS
     10690**DCL     10690--REDEF
VX_CONST_DCB.ARS#
     10649**DCL     10649--REDEF
VX_CONST_DCB.ATTR#
     10679**DCL     10679--REDEF   10681--REDEF
VX_CONST_DCB.BORROW
     10701**DCL     10701--REDEF   10701--REDEF   10701--REDEF
VX_CONST_DCB.EOMCHAR#
     10656**DCL     10657--REDEF
VX_CONST_DCB.FLDID
     10693**DCL     10694--REDEF
VX_CONST_DCB.FORM$
     10685**DCL     10685--REDEF
VX_CONST_DCB.FSECT
     10708**DCL     10708--REDEF
VX_CONST_DCB.FSN#
     10675**DCL     10675--REDEF   10675--REDEF   10676--REDEF
VX_CONST_DCB.HEADER$
     10684**DCL     10685--REDEF
VX_CONST_DCB.IXTNSIZE#
     10681**DCL     10682--REDEF
PL6.E3A0      #002=VXU$NEW_SECTNUM File=VXU$PREAD.:E05TSI                        WED 07/30/97 08:46 Page:148
VX_CONST_DCB.LASTSTA$
     10665**DCL     10665--REDEF
VX_CONST_DCB.LVL
     10702**DCL     10702--REDEF
VX_CONST_DCB.NAME#.C
     10665**DCL     10666--REDEF
VX_CONST_DCB.NOEOF
     10697**DCL     10697--REDEF
VX_CONST_DCB.NRECS#
     10682**DCL     10682--REDEF
VX_CONST_DCB.NRECX
     10709**DCL     10709--REDEF
VX_CONST_DCB.OHDR
     10698**DCL     10698--REDEF
VX_CONST_DCB.ORG#
     10673**DCL     10674--REDEF
VX_CONST_DCB.PRECNO
     10706**DCL     10706--REDEF
VX_CONST_DCB.RCSZ
     10714**DCL     10714--REDEF
VX_CONST_DCB.RES#
     10667**DCL     10667--REDEF
VX_CONST_DCB.SETX
     10686**DCL     10686--REDEF
VX_CONST_DCB.TAB$
     10685**DCL     10685--REDEF
VX_CONST_DCB.TDA
     10705**DCL     10706--REDEF
VX_CONST_DCB.WSN#
     10667**DCL     10668--REDEF
VX_EBUF.CHARS_A
     10097**DCL     10098--REDEF
VX_EFIELD1.CHARS
     10106**DCL     10107--REDEF
VX_EFIELD2.CHARS
     10110**DCL     10111--REDEF
PL6.E3A0      #002=VXU$NEW_SECTNUM File=VXU$PREAD.:E05TSI                        WED 07/30/97 08:46 Page:149
VX_EFIELD3.CHARS
     10114**DCL     10115--REDEF
VX_EI_KEY_BUF.KEY
     10490**DCL     10491--REDEF
VX_ERRORS
      9551**DCL      9562--REDEF
VX_ERRORS.CONFLICT_A
      9557**DCL      9558--REDEF
VX_ERRORS.UNSAT_A
      9553**DCL      9554--REDEF
VX_IMAGE_DATA.CPAGE#_A
      8688**DCL      8689--REDEF
VX_IMAGE_DATA.NODE_A$
      8700**DCL      8701--REDEF
VX_IMAGE_DATA.START_A$
      8692**DCL      8693--REDEF
VX_IMAGE_DATA.STOP_A$
      8696**DCL      8697--REDEF
VX_IMAGE_DS3.CPAGE#_A
      8757**DCL      8758--REDEF
VX_IMAGE_DS3.NODE_A$
      8769**DCL      8770--REDEF
VX_IMAGE_DS3.START_A$
      8761**DCL      8762--REDEF
VX_IMAGE_DS3.STOP_A$
      8765**DCL      8766--REDEF
VX_IMAGE_DS4.CPAGE#_A
      8780**DCL      8781--REDEF
VX_IMAGE_DS4.NODE_A$
      8792**DCL      8793--REDEF
VX_IMAGE_DS4.START_A$
      8784**DCL      8785--REDEF
VX_IMAGE_DS4.STOP_A$
      8788**DCL      8789--REDEF
VX_IMAGE_DS5.CPAGE#_A
      8803**DCL      8804--REDEF
PL6.E3A0      #002=VXU$NEW_SECTNUM File=VXU$PREAD.:E05TSI                        WED 07/30/97 08:46 Page:150
VX_IMAGE_DS5.NODE_A$
      8815**DCL      8816--REDEF
VX_IMAGE_DS5.START_A$
      8807**DCL      8808--REDEF
VX_IMAGE_DS5.STOP_A$
      8811**DCL      8812--REDEF
VX_IMAGE_DS6.CPAGE#_A
      8826**DCL      8827--REDEF
VX_IMAGE_DS6.NODE_A$
      8838**DCL      8839--REDEF
VX_IMAGE_DS6.START_A$
      8830**DCL      8831--REDEF
VX_IMAGE_DS6.STOP_A$
      8834**DCL      8835--REDEF
VX_IMAGE_DS7.CPAGE#_A
      8849**DCL      8850--REDEF
VX_IMAGE_DS7.NODE_A$
      8861**DCL      8862--REDEF
VX_IMAGE_DS7.START_A$
      8853**DCL      8854--REDEF
VX_IMAGE_DS7.STOP_A$
      8857**DCL      8858--REDEF
VX_IMAGE_DS8.CPAGE#_A
      8872**DCL      8873--REDEF
VX_IMAGE_DS8.NODE_A$
      8884**DCL      8885--REDEF
VX_IMAGE_DS8.START_A$
      8876**DCL      8877--REDEF
VX_IMAGE_DS8.STOP_A$
      8880**DCL      8881--REDEF
VX_IMAGE_PROC.CPAGE#_A
      8711**DCL      8712--REDEF
VX_IMAGE_PROC.NODE_A$
      8723**DCL      8724--REDEF
VX_IMAGE_PROC.START_A$
      8715**DCL      8716--REDEF
PL6.E3A0      #002=VXU$NEW_SECTNUM File=VXU$PREAD.:E05TSI                        WED 07/30/97 08:46 Page:151
VX_IMAGE_PROC.STOP_A$
      8719**DCL      8720--REDEF
VX_IMAGE_ROS.CPAGE#_A
      8734**DCL      8735--REDEF
VX_IMAGE_ROS.NODE_A$
      8746**DCL      8747--REDEF
VX_IMAGE_ROS.START_A$
      8738**DCL      8739--REDEF
VX_IMAGE_ROS.STOP_A$
      8742**DCL      8743--REDEF
VX_M_ALL
      9585**DCL     10835>>IF
VX_M_BASE_PTR
      9587**DCL     10836>>ASSIGN
VX_M_FREE
      9583**DCL     10835>>IF      10836>>ASSIGN  10837<<ASSIGN  10837>>ASSIGN
VX_M_VECTOR.F
      8539**DCL      8543--REDEF
VX_M_VECTOR_DP.F
      8574**DCL      8578--REDEF
VX_O.ACCTN_A$
      9703**DCL      9704--REDEF
VX_O.DCB_MATCH_A$
      9712**DCL      9713--REDEF
VX_O.DCB_MATCH_HIT_A
      9718**DCL      9719--REDEF
VX_O.FIDN_A$
      9697**DCL      9698--REDEF
VX_O.FID_A$
      9689**DCL      9690--REDEF
VX_O.INCLUDE_A$
      9709**DCL      9710--REDEF
VX_O.MAP_A
      9683**DCL      9684--REDEF
VX_O.NODCB_A
      9740**DCL      9741--REDEF
PL6.E3A0      #002=VXU$NEW_SECTNUM File=VXU$PREAD.:E05TSI                        WED 07/30/97 08:46 Page:152
VX_O.NUM_A
      9628**DCL      9630--REDEF
VX_O.OPT_A
      9728**DCL      9729--REDEF
VX_O.PRIV_A
      9644**DCL      9646--REDEF
VX_O.SIN_A
      9597**DCL      9598--REDEF
VX_O.TCB_A
      9724**DCL      9725--REDEF
VX_OD.ACCTN_A$
      9901**DCL      9902--REDEF
VX_OD.DCB_MATCH_A$
      9910**DCL      9911--REDEF
VX_OD.FIDN_A$
      9895**DCL      9896--REDEF
VX_OD.FID_A$
      9887**DCL      9888--REDEF
VX_OD.INCLUDE_A$
      9907**DCL      9908--REDEF
VX_OD.MAP_A
      9881**DCL      9882--REDEF
VX_OD.NODCB_A
      9925**DCL      9926--REDEF
VX_OD.NUM_A
      9828**DCL      9829--REDEF
VX_OD.PRIV_A
      9843**DCL      9844--REDEF
VX_OD.SIN_A
      9797**DCL      9798--REDEF
VX_OD.VECTOR_A$
      9916**DCL      9917--REDEF
VX_OL.MAX_A
      9772**DCL      9774--REDEF
VX_OL.MIN_A
      9757**DCL      9758--REDEF
PL6.E3A0      #002=VXU$NEW_SECTNUM File=VXU$PREAD.:E05TSI                        WED 07/30/97 08:46 Page:153
VX_ON.ACCTN_A$
     10046**DCL     10048--REDEF
VX_ON.DCB_MATCH_A$
     10057**DCL     10059--REDEF
VX_ON.FIDN_A$
     10039**DCL     10041--REDEF
VX_ON.FID_A$
     10030**DCL     10032--REDEF
VX_ON.INCLUDE_A$
     10053**DCL     10055--REDEF
VX_ON.MAP_A
     10023**DCL     10025--REDEF
VX_ON.NODCB_A$
     10073**DCL     10074--REDEF
VX_ON.NUM_A
      9968**DCL      9970--REDEF
VX_ON.PRIV_A
      9984**DCL      9986--REDEF
VX_ON.SIN_A
      9936**DCL      9938--REDEF
VX_ON.VECTOR_A$
     10064**DCL     10065--REDEF
VX_OUHEAD.VERSION
      9383**DCL      9385--REDEF
VX_OU_HEAD
      9326**DCL      9365--REDEF
VX_OU_HEAD.REC_A
      9338**DCL      9341--REDEF
VX_O_KEY_BUF.FORM0
      8587**DCL      8590--REDEF    8597--REDEF
VX_O_KEY_BUF_L.FORM0
      8610**DCL      8613--REDEF    8620--REDEF
VX_PASS2_REF.OU.L_START
     10276**DCL     10281--REDEF
VX_PASS2_REF.OU.L_STOP
     10282**DCL     10287--REDEF
PL6.E3A0      #002=VXU$NEW_SECTNUM File=VXU$PREAD.:E05TSI                        WED 07/30/97 08:46 Page:154
VX_PASS2_REF.OU.MAX
     10270**DCL     10275--REDEF
VX_PASS2_REF.OU.SIZE
     10288**DCL     10293--REDEF
VX_PASS2_REF.SAT.COUNT
     10315**DCL     10321--REDEF
VX_PASS2_REF.SAT.ENT_SIZE
     10322**DCL     10328--REDEF
VX_PASS2_REF.SAT.L_START
     10301**DCL     10307--REDEF
VX_PASS2_REF.SAT.L_STOP
     10308**DCL     10314--REDEF
VX_PASS2_REF.SAT.MAX
     10295**DCL     10300--REDEF
VX_PASS2_REF.UNSAT.L_START
     10363**DCL     10368--REDEF
VX_PASS2_REF.UNSAT.L_STOP
     10369**DCL     10374--REDEF
VX_PASS2_REF.UNSAT.L_WHERE
     10375**DCL     10380--REDEF
VX_PASS2_REF.UNSAT.MAX
     10357**DCL     10362--REDEF
VX_PASS2_REF.UNSAT.PAGE#
     10387**DCL     10392--REDEF
VX_PASS2_REF.UNSAT.SIZE
     10381**DCL     10386--REDEF
VX_PHRASE.PHRASE
      9789**DCL      9791--REDEF
VX_PROGRAM_BIAS.A
      9567**DCL      9568--REDEF
VX_R_KEY_BUF.FORM0
      8636**DCL      8640--REDEF    8646--REDEF
VX_SD.A
      8264**DCL      8265--REDEF
VX_SECTNUM$
     10228**DCL     10843>>ASSIGN  10848<<ASSIGN  10855>>ASSIGN
PL6.E3A0      #002=VXU$NEW_SECTNUM File=VXU$PREAD.:E05TSI                        WED 07/30/97 08:46 Page:155
VX_SPC.B$.MINE
     10458**DCL     10464--REDEF
VX_SPC.B$.NAME
     10437**DCL     10443--REDEF
VX_SPC.B$.SKIP
     10451**DCL     10457--REDEF
VX_SPC.B$.VALUE
     10444**DCL     10450--REDEF
VX_SPC.SEG.NAME
     10406**DCL     10412--REDEF
VX_SPC.SEG.VALUE
     10413**DCL     10419--REDEF
VX_TSX0_OVERLAY.H
     10181**DCL     10184--REDEF
