VERSION E05

PL6.E3A0      #001=VX_DCB_D File=VX_DCB_D.:E05TSI                                WED 07/30/97 08:49 Page:1
        1        1        /*T***********************************************************/
        2        2        /*T*                                                         */
        3        3        /*T* Copyright (c) Bull HN Information Systems Inc., 1997    */
        4        4        /*T*                                                         */
        5        5        /*T***********************************************************/
        6        6        /*X* DMR,PLM=5,IND=5,CSU=3,EXM=0,ECU=3,MOC,DCI=5,CRT=5          */
        7        7        VX_DCB_D: PROC;
        8        8
        9        9        /* ! ! */
       10       10        %INCLUDE VX_INC_NO_C;
       11     1707        /* ! R ! */
       12     1708        %INCLUDE F_DCB_D;
       13     1796        /* ! ! */
       14     1797    1   DCL M$SI                       DCB;
       15     1798    1   DCL M$DO                       DCB;
       16     1799    1   DCL M$LO                       DCB;
       17     1800        %M$DCB(
       18     1801              DCBN=M$OF,
       19     1802              CTG=NO,
       20     1803              ASN=FILE,
       21     1804              ORG=KEYED,
       22     1805              ACS=DIRECT,
       23     1806              FUN=IN,
       24     1807              DISP=NAMED);
       25     1881        %M$DCB(
       26     1882              DCBN=M$RF,
       27     1883              CTG=NO,
       28     1884              EXIST=NEWFILE,
       29     1885                   TYPE='R ',
       30     1886              ASN=FILE,
       31     1887              ORG=KEYED,
       32     1888              ACS=DIRECT,
       33     1889              FUN=UPDATE,
       34     1890              DISP=NAMED);
       35     1964        %M$DCB(
       36     1965              DCBN=M$LF,
       37     1966              CTG=NO,
PL6.E3A0      #001=VX_DCB_D File=VX_DCB_D.:E05TSI                                WED 07/30/97 08:49 Page:2
       38     1967              ASN=FILE,
       39     1968              ORG=KEYED,
       40     1969              ACS=DIRECT,
       41     1970              FUN=IN,
       42     1971              DISP=NAMED);
       43     2045        %M$DCB(
       44     2046              DCBN=M$EI,
       45     2047              CTG=NO,
       46     2048              ASN=FILE,
       47     2049              ORG=KEYED,
       48     2050              ACS=DIRECT,
       49     2051              FUN=IN,
       50     2052              DISP=NAMED);
       51     2126        /*
       52     2127
       53     2128        */
       54     2129        /* ! R ! */
       55     2130    1   DCL M$UC$                      PTR STATIC SYMDEF   INIT( ADDR( NIL) );
       56     2131    1   DCL M$SI$                      PTR STATIC SYMDEF   INIT( ADDR( NIL) );
       57     2132    1   DCL M$EI$                      PTR STATIC SYMDEF   INIT( ADDR( NIL) );
       58     2133    1   DCL M$DO$                      PTR STATIC SYMDEF   INIT( ADDR( NIL) );
       59     2134    1   DCL M$LO$                      PTR STATIC SYMDEF   INIT( ADDR( NIL) );
       60     2135    1   DCL M$OF$                      PTR STATIC SYMDEF   INIT( ADDR( NIL) );
       61     2136    1   DCL M$RF$                      PTR STATIC SYMDEF   INIT( ADDR( NIL) );
       62     2137    1   DCL M$LF$                      PTR STATIC SYMDEF   INIT( ADDR( NIL) );
       63     2138
       64     2139        /* ! ! */
       65     2140        %LIST;
       66     2141        %SET LISTSUB='1'B;
       67     2142        /* ! R ! */
       68     2143
       69     2144        %M$MDCB( DCBN=VX_CONST_DCB, STCLASS=EXT );
              2145    1   DCL 1 VX_CONST_DCB EXT,2 ARS# SBIN INIT(0),2 FLPW# REDEF ARS# BIT(36),2 * UBIN INIT(
              2145            0),2 TYC,3 EGV# BIT(1)INIT('0'B*0),3 OPER# BIT(1)
              2146    1   INIT('0'B*0),3 EOT# BIT(1)INIT('0'B*0),3 BOT# BIT(1)INIT('0'B*0),3 BOF# BIT(1)INIT(
              2146            '0'B*0),3 BLNKTP# BIT(1)INIT('0'B*0),3 EOF# BIT
              2147    1   (1)INIT('0'B*0),3 LD# BIT(1)INIT('0'B*0),3 IOERR# BIT(1)INIT('0'B*0),3 DI# BIT(1)
PL6.E3A0      #001=VX_DCB_D File=VX_DCB_D.:E05TSI                                WED 07/30/97 08:49 Page:3
              2147            INIT('0'B*0),3 EOD# BIT(1)INIT('0'B*0),3 MTRAP# BIT
              2148    1   (1)INIT('0'B*0),3 LDISC# BIT(1)INIT('0'B*0),3 DACT# BIT(1)INIT('0'B*0),3 TIMO# BIT(1
              2148            )INIT('0'B*0),3 PROT# BIT(1)INIT('0'B*0),3 FRAW#
              2149    1   BIT(1)INIT('0'B*0),3 LAST# BIT(1)INIT('0'B*0),3 CDALRT# BIT(1)INIT('0'B*0),3 XTRARD
              2149            BIT(1)INIT('0'B*0),3 CGKEYV BIT(1)INIT('0'B*0),3
              2150    1   CGLWRV BIT(1)INIT('0'B*0),3 CGFULL BIT(1)INIT('0'B*0),3 CGCRCW BIT(1)INIT('0'B*0),3
              2150            CGCWRV BIT(1)INIT('0'B*0),3 * BIT(11)INIT
              2151    1   ('0'B*0),2 DVBYTE,3 TOP# BIT(1)INIT('0'B),3 * BIT(1)INIT('0'B),3 VFC# BIT(1)INIT(
              2151            '0'B),3 BIN# BIT(1)INIT('0'B),3 TRANS# BIT(1)INIT
              2152    1   ('0'B),3 * BIT(3)INIT('0'B),2 BUPF BIT(1)INIT('0'B),2 RDL0# UBIN(9)UNAL INIT(0),2
              2152            SLIDE# UBIN(9)UNAL INIT(0),2 EOMCHAR# CHAR(1)INIT
              2153    1   (BITASC('501'O)),2 EOMVAL# REDEF EOMCHAR# UNAL,3 VFLG# BIT(1),3 VALUE# UBIN(8)UNAL,2
              2153            FFLG,3 READ# BIT(1)INIT('0'B),3 DELR# BIT(1)
              2154    1   INIT('0'B),3 WNEW# BIT(1)INIT('0'B),3 UPD# BIT(1)INIT('0'B),3 DELF# BIT(1)INIT('0'B)
              2154            ,3 NOLIST# BIT(1)INIT('0'B),3 REATTR# BIT(1)INIT
              2155    1   ('0'B),3 EXEC# BIT(1)INIT('0'B),3 CREATE# BIT(1)INIT('0'B),3 AU# BIT(1)INIT('0'B),3
              2155            AURD# BIT(1)INIT('0'B),3 TCTL# BIT(1)INIT('0'B),
              2156    1   3 * BIT(6)INIT('0'B),2 DDEV,3 LP# BIT(1)INIT('0'B),3 CP# BIT(1)INIT('0'B),3 IC# BIT(
              2156            1)INIT('0'B),3 XEQ# BIT(1)INIT('0'B),3 UCOUT#
              2157    1   BIT(1)INIT('0'B),3 GR# BIT(1)INIT('0'B),3 * BIT(3)INIT('0'B),2 WIDTH# UBIN(9)UNAL
              2157            INIT(0),2 RETRYCNT# UBIN(18)HALIGNED INIT(0),2
              2158    1   DESC,3 DELF# BIT(1)INIT('0'B),3 NOLIST# BIT(1)INIT('0'B),3 BUF# BIT(1)INIT('0'B),3
              2158            ODSTOW# BIT(1)INIT('0'B),3 BAD# BIT(1)INIT('0'B),
              2159    1   3 QS# BIT(1)INIT('0'B),3 * BIT(2)INIT('0'B),3 ARCHIVE# BIT(1)INIT('0'B),3 BUPM# BIT(
              2159            1)INIT('0'B),3 NBUF# BIT(1)INIT('0'B),3 ACTIVE#
              2160    1   BIT(1)INIT('0'B),3 TPB# BIT(1)INIT('0'B),3 TERMINATE# BIT(1)INIT('0'B),3 FETCH# BIT(
              2160            1)INIT('0'B),3 * BIT(3)INIT('0'B),2 SETSTA$ PTR
              2161    1   INIT(ADDR(NIL)),2 LASTSTA$ PTR INIT(ADDR(NIL)),2 TDEXTST$ REDEF LASTSTA$ PTR,2 NAME#
              2161            ,3 L UBIN(9)UNAL INIT(SIZEC(' ')),3 C CHAR(31)
              2162    1   INIT(' '),3 C17 REDEF C UNAL,4 CC CHAR(17),4 * CHAR(14),2 ACCT# CHAR(8)INIT(' '),2
              2162            PASS# CHAR(8)INIT(' '),2 PSN# CHAR(6)INIT
              2163    1   (' '),2 TYPE# CHAR(2)INIT(' '),2 RES# CHAR(4)INIT('ME'),2 RESNT REDEF RES# UNAL,3
              2163            TYP CHAR(2),3 NUM CHAR(2),2 WSN# CHAR(8)ALIGNED
              2164    1   INIT(' '),2 TDSTAT# REDEF WSN# BIT(72),2 IGNOREFSN# BIT(1)INIT('0'B),2 AU# BIT(1)
              2164            INIT('0'B),2 QISS# BIT(1)INIT('0'B),2 LOAD# BIT
              2165    1   (1)INIT('0'B),2 IOERROK# BIT(1)INIT('0'B),2 AMRSETSTA BIT(1)INIT('0'B),2 LSTAOR# BIT
              2165            (1)INIT('0'B),2 VOLACCESS# UBIN(2)UNAL INIT
PL6.E3A0      #001=VX_DCB_D File=VX_DCB_D.:E05TSI                                WED 07/30/97 08:49 Page:4
              2166    1   (0),2 UOPT#(0:8)BIT(1)INIT('0'B,'0'B,'0'B,'0'B,'0'B,'0'B,'0'B,'0'B,'0'B),2 PASSF#
              2166            BIT(1)INIT('0'B),2 CNVRT# BIT(1)
              2167    1   INIT('1'B),2 EBCDIC# BIT(1)INIT('0'B),2 FCI# BIT(1)INIT('0'B),2 FCD# BIT(1)INIT('0'B
              2167            ),2 AMR# BIT(1)INIT('0'B),2 CTG# BIT(1)INIT
              2168    1   ('0'B),2 EXIST# UBIN(2)UNAL INIT(3),2 SHARE# UBIN(2)UNAL INIT(0),2 COMP# BIT(1)INIT(
              2168            '0'B),2 XTEND# BIT(1)INIT('0'B),2 CVOL#
              2169    1   BIT(1)INIT('0'B),2 BLOCKED# BIT(1)INIT('1'B),2 SPANNED# BIT(1)INIT('1'B),2 BUPM# BIT
              2169            (2)INIT('01'B),2 ORG# UBIN(9)UNAL INIT
              2170    1   (0),2 DVTYPE# REDEF ORG# UBIN(9)UNAL,2 FUN# UBIN(9)UNAL INIT(0),2 ASN# UBIN(9)UNAL
              2170            INIT(3),2 DISP# UBIN(9)UNAL INIT(0),2
              2171    1   BLKL# UBIN(18)UNAL INIT(0),2 RECL# UBIN(18)UNAL INIT(0),2 FSN# UBIN(18)UNAL INIT(0),
              2171            2 DBGDCBNO# REDEF FSN# UBIN(18)UNAL,2
              2172    1   DBGSYSID# REDEF FSN# UBIN(18)UNAL,2 SYSID# REDEF FSN# UBIN(18)UNAL,2 FEXTX UBIN(9)
              2172            UNAL INIT(0),2 BOL# UBIN(9)UNAL INIT(0),2 EXPIRE#
              2173    1   SBIN INIT(0),2 KEYX# UBIN(18)UNAL INIT(0),2 KEYL# UBIN(9)UNAL INIT(0),2 ACS# UBIN(9)
              2173            UNAL INIT(0),2 XTNSIZE# UBIN(18)
              2174    1   UNAL INIT(2),2 LSLIDE# UBIN(9)UNAL INIT(510),2 LRDL0# UBIN(9)UNAL INIT(3),2 SPARE#
              2174            UBIN(9)UNAL INIT(1),2 WSR# UBIN
              2175    1   (9)UNAL INIT(0),2 %CHARTEXT('ATTR# BIT(18)') INIT('0'B)%CHARTEXT('/*') '0'B %
              2175            CHARTEXT('*/,2 ATTR REDEF ATTR#'),3 DENS# BIT(9),3
              2176    1   GRLGL# BIT(1),3 TRANSLGL# BIT(1),3 NOXLATE# BIT(1),3 UPPERCASE# BIT(1),3 NATL# BIT(1
              2176            ),3 TRUOVRPRT# BIT(1),3 APL# BIT(1),3 BIN# BIT
              2177    1   (1),3 LOWERCASE# BIT(1),2 TDFLG REDEF %CHARTEXT('ATTR#/*')'0'B %CHARTEXT('*/'),3
              2177            SDSK# BIT(1),3 * BIT(17),2 IXTNSIZE# SBIN WORD INIT
              2178    1   (2),2 CONNCT# REDEF IXTNSIZE# SBIN,2 NRECS# SBIN INIT(0),2 CHANTIME# REDEF NRECS#
              2178            SBIN,2 VOL# UBIN(9)UNAL INIT(0),2
              2179    1   MAXVOL# UBIN(9)UNAL INIT(0),2 CHAIN# UBIN(9)UNAL INIT(0),2 DENSITY# UBIN(9)UNAL INIT
              2179            (0),2 LINES# UBIN(18)UNAL INIT
              2180    1   (0),2 DVFC# CHAR(1)INIT(BINASC(0)),2 SEQ# BIT(1)INIT('0'B),2 SEQCOL# UBIN(8)UNAL
              2180            INIT(73),2 SEQID# CHAR(4)INIT(' '),2 HEADER$
              2181    1   PTR INIT(ADDR(NIL)),2 DQH$ REDEF HEADER$ PTR,2 TAB$ PTR INIT(ADDR(NIL)),2 DCT$ REDEF
              2181            TAB$ PTR,2 FORM$ PTR INIT(ADDR(NIL)),2 MPC$
              2182    1   REDEF FORM$ PTR,2 LDCTX UBIN(18)UNAL INIT(0),2 SETX UBIN(18)UNAL INIT(0),2 DEVADR
              2182            REDEF SETX,3 DVN# UBIN(6)UNAL,3 IOM# UBIN(3)UNAL,3
              2183    1   CHAN# UBIN(9)CALIGNED,2 * BIT(9)CALIGNED INIT('0'B),2 JRNLBYPASS# BIT(1)INIT('0'B),2
              2183            * BIT(4)INIT('0'B),2 GHSTACS# UBIN(4)INIT
              2184    1   (0)UNAL,2 ALTKEYX UBIN(18)UNAL INIT(0),2 CODE16$ PTR INIT(ADDR(NIL)),2 FPRGX UBIN
PL6.E3A0      #001=VX_DCB_D File=VX_DCB_D.:E05TSI                                WED 07/30/97 08:49 Page:5
              2184            HALF HALIGNED INIT(0),2 FIELDX UBIN HALF
              2185    1   HALIGNED INIT(0),2 EVENT SBIN INIT(0),2 VFCCHAR# CHAR(1)CALIGNED INIT(BINASC(0)),2
              2185            KEYTYPE# UBIN(9)CALIGNED INIT(0),2 KFIELDX
              2186    1   UBIN(18)HALIGNED INIT(0),2 STARTX UBIN(18)HALIGNED INIT(0),2 ACTPOS UBIN(18)HALIGNED
              2186            INIT(0),2 AUTHFFLG REDEF ACTPOS,3 READ# BIT(1),
              2187    1   3 DELR# BIT(1),3 WNEW# BIT(1),3 UPD# BIT(1),3 DELF# BIT(1),3 NOLIST# BIT(1),3
              2187            REATTR# BIT(1),3 EXEC# BIT(1),3 CREATE# BIT(1),3 AU#
              2188    1   BIT(1),3 AURD# BIT(1),3 TCTL# BIT(1),3 * BIT(6),2 DCB# UBIN(9)CALIGNED INIT(0),2 *
              2188            BIT(14)INIT('0'B),2 ANSISPANSEQ# BIT(1)INIT
              2189    1   ('1'B),2 PATH,3 IOM# UBIN(3)UNAL INIT(0),3 CHAN# UBIN(9)UNAL INIT(0),2 IRRECX UBIN(
              2189            18)HALIGNED INIT(0),2 FLDID UBIN(18)
              2190    1   HALIGNED INIT(0),2 BADARS# REDEF FLDID UBIN(18)HALIGNED,2 SEED# BIT(36)INIT('0'B),2
              2190            * UBIN INIT(0),2 FEXT BIT(1)INIT('0'B),2 STARF
              2191    1   BIT(1)INIT('0'B),2 SHARED BIT(1)INIT('0'B),2 FMOD BIT(1)INIT('0'B),2 GTYP UBIN(3)
              2191            UNAL INIT(0),2 EOP UBIN(2)UNAL INIT(0),2 AMFLG,3
              2192    1   ACCF BIT(1)INIT('0'B),3 ACSF BIT(1)INIT('0'B),3 INSF BIT(1)INIT('0'B),3 USRF BIT(1)
              2192            INIT('0'B),3 SNLF BIT(1)INIT('0'B),3 PROF BIT(1)
              2193    1   INIT('0'B),2 SEZ_OK BIT(1)INIT('0'B),2 MUST_CVOL BIT(1)INIT('0'B),2 NEW_FSECT BIT(1)
              2193            INIT('0'B),2 NOEOF BIT(1)INIT('0'B),2 MOUNT
              2194    1   REDEF NOEOF BIT(1),2 OHDR BIT(1)INIT('0'B),2 LDFLG REDEF OHDR BIT(1),2 SPAN BIT(1)
              2194            INIT('0'B),2 OWNER BIT(1)INIT('0'B),2 RA BIT(1)
              2195    1   INIT('0'B),2 RPOS BIT(1)INIT('0'B),2 STARX UBIN(3)UNAL INIT(0),2 CACHE BIT(1)INIT(
              2195            '0'B),2 ENQF BIT(1)INIT('0'B),2 GRPOS BIT(1)INIT
              2196    1   ('0'B),2 CONT BIT(1)INIT('0'B),2 WAIT UBIN(1)UNAL INIT(1),2 TRNC UBIN(2)UNAL INIT(0)
              2196            ,2 AFTRBLK BIT(1)INIT('0'B),2 LSTBLK BIT(1)INIT
              2197    1   ('0'B),2 BORROW SBIN INIT(0),2 LASTKEY$ REDEF BORROW PTR,2 LASTKEY REDEF BORROW SBIN
              2197            ,2 FTAM REDEF BORROW,3 CTX UBIN HALF UNAL,3 USR
              2198    1   UBIN BYTE UNAL,3 PMME UBIN(9)UNAL,2 CFU$ PTR INIT(ADDR(NIL)),2 TDALVL UBIN(3)UNAL
              2198            INIT(0),2 LVL UBIN(3)UNAL INIT(0),2 LPOOL REDEF
              2199    1   LVL UBIN(3)UNAL,2 WRCMP BIT(1)INIT('0'B),2 WCDATA BIT(1)INIT('0'B),2 UCOUT BIT(1)
              2199            INIT('0'B),2 TAPTYP,3 RWASC BIT(1)INIT('0'B),3 CP6F
              2200    1   BIT(1)INIT('0'B),3 USRBUF BIT(1)INIT('0'B),3 HAVLASTKEY BIT(1)INIT('0'B),3 NOCVOL
              2200            BIT(1)INIT('0'B),3 MANAGED BIT(1)INIT('0'B),3
              2201    1   PASTFM BIT(1)INIT('0'B),3 * BIT(2)INIT('0'B),2 CRECX UBIN(18)UNAL INIT(0),2 CBUFNUM
              2201            UBIN(3)UNAL INIT(0),2 IORG UBIN(6)UNAL INIT(0),2
              2202    1   TDA UBIN(27)UNAL INIT(0),2 BYTESLEFT REDEF TDA UBIN(27)UNAL,2 CRECNO SBIN INIT(0),2
              2202            PRECNO SBIN INIT(0),2 CSEED REDEF PRECNO SBIN,2
PL6.E3A0      #001=VX_DCB_D File=VX_DCB_D.:E05TSI                                WED 07/30/97 08:49 Page:6
              2203    1   HASH UBIN(27)UNAL INIT(0),2 FDCM UBIN(9)UNAL INIT(0),2 FCN(0:1),3 F BIT(1)INIT('0'B,
              2203            '0'B),3 CNT UBIN(8)UNAL INIT(0,0),2 BLKLEN UBIN
              2204    1   (18)UNAL INIT(0),2 UB$ PTR INIT(ADDR(NIL)),2 UBYTES UBIN INIT(0),2 FSECT UBIN(18)
              2204            UNAL INIT(0),2 INDX REDEF FSECT UBIN(18)UNAL,2
              2205    1   FPSTR UBIN(9)UNAL INIT(0),2 STR# UBIN(9)UNAL INIT(0),2 NRECX UBIN(18)UNAL INIT(0),2
              2205            MODCNT REDEF NRECX UBIN(18)UNAL,2 SEGX UBIN(18)
              2206    1   UNAL INIT(0),2 GDISP UBIN INIT(0),2 LOGSEC BIT(1)INIT('0'B),2 PRIVOPN BIT(1)INIT(
              2206            '0'B),2 OLDIOERR UBIN(2)UNAL INIT(0),2 * BIT(21)
              2207    1   INIT('0'B),2 REALSPAN BIT(1),2 DECRYPT BIT(1)INIT('0'B),2 PGINGRAN UBIN BYTE UNAL
              2207            INIT(0),2 IFMT UBIN(9)UNAL INIT(0),2 MEDIA UBIN(9)
              2208    1   UNAL INIT(0),2 IWL,3 TABIWL BIT(1)INIT('0'B),3 SEQIWL BIT(1)INIT('0'B),3 HDRIWL BIT(
              2208            1)INIT('0'B),3 * BIT(3)INIT('0'B),2 CTLCMDIN BIT
              2209    1   (1)INIT('0'B),2 UNIQUEBLD BIT(1)INIT('0'B),2 UPDCNT BIT(1)INIT('0'B),2 IASN UBIN(9)
              2209            UNAL INIT(0),2 MOVED SBIN(18)HALIGNED,2 * UBIN(9)
              2210    1   CALIGNED,2 CX UBIN(9)CALIGNED,2 CWORD CHAR(4)ALIGNED,2 RCSZ UBIN INIT(0),2 FEPSIZ
              2210            REDEF RCSZ,3 BUF UBIN HALF UNAL,3 KEY UBIN HALF
              2211    1   UNAL,2 ID ALIGNED,3 GX UBIN(10)UNAL,3 DA UBIN(26)UNAL,2 FEPIO,3 EVENT UBIN INIT(0),3
              2211            %CHARTEXT('KEYX/*') 0 %CHARTEXT('*/') UBIN
              2212    1   HALF HALIGNED INIT(0),3 BUFX UBIN HALF HALIGNED INIT(0),3 BPP(0:1)BIT(18)INIT('0'B*0
              2212            ),3 KPP(0:1)BIT(18)INIT('0'B*0),2 AGE SBIN INIT
              2213    1   (0),2 BFR(0:4),3 BUFUP BIT(1)INIT('0'B*0),3 SCRUB BIT(1)INIT('0'B*0),3 CHNG BIT(1)
              2213            INIT('0'B*0),3 CVM BIT(1)INIT('0'B*0),3 BUFX UBIN
              2214    1   (5)UNAL INIT(0*0),3 DA UBIN(27)UNAL INIT(0*0),2 BFR1(0:4)ALIGNED,3 FLAGS,4
              2214            ONE_WORD_HEADER BIT(1)INIT('0'B*0),4 * BIT(8)INIT
              2215    1   ('0'B*0),3 SIZ UBIN(9)UNAL INIT(0*0),3 CX UBIN(18)UNAL INIT(0*0),2 FEPIO2(0:3)UBIN
              2215            ALIGNED,2 FEPIO3(0:3)UBIN ALIGNED,2 * SBIN INIT
              2216    1   (29127);
       70     2218
       71     2219
       72     2220    1   DCL VX_DCB_SIZEW  UBIN WORD ALIGNED CONSTANT SYMDEF INIT( SIZEW(VX_CONST_DCB) );
       73     2221    1   DCL VX_DCB_SIZEC  UBIN WORD ALIGNED CONSTANT SYMDEF INIT( SIZEC(VX_CONST_DCB) );
       74     2222
       75     2223
       76     2224    1   END VX_DCB_D;

PL6.E3A0      #001=VX_DCB_D File=VX_DCB_D.:E05TSI                                WED 07/30/97 08:49 Page:7
--  Include file information  --

   F_DCB_D.:E05TOU  is referenced.
   CP_6.:E05TOU  cannot be made into a system file and is referenced.
   VX_MACRO_C.:E05TOU  is referenced.
   VX_PERR_C.:E05TOU  is referenced.
   VX_SUBS_C.:E05TOU  is referenced.
   VX_INC_NO_C.:E05TOU  is referenced.
   B$JIT_C.:E05TOU  was found in the system file and is never referenced.
   CP_6_C.:E05TOU  was found in the system file and is referenced.
      No diagnostics issued in procedure VX_DCB_D.

   No code generated for procedure VX_DCB_D .
   Procedure VX_DCB_D requires 4 words of local(AUTO) storage.

    No errors detected in file VX_DCB_D.:E05TSI    .

PL6.E3A0      #001=VX_DCB_D File=VX_DCB_D.:E05TSI                                WED 07/30/97 08:49 Page:8

 Object Unit name= VX_DCB_D                                   File name= VX_DCB_D.:E05TOU
 UTS= JUL 30 '97 08:49:58.56 WED                              Compiler= PL-6/E31         Sev=      00
 SharedLib= :SHARED_SYSTEM                                    Alt SharedLib=


    ****  Control sections  ****

 Sect   Type Bound  Init  Size OctSiz  Section name(segment info)
    0   DCB   even  none     0      0  M$UC
    1   DCB   even  none     0      0  M$SI
    2   DCB   even  none     0      0  M$DO
    3   DCB   even  none     0      0  M$LO
    4   DCB   even  none    98    142  M$OF
    5   DCB   even  none    98    142  M$RF
    6   DCB   even  none    98    142  M$LF
    7   DCB   even  none    98    142  M$EI
    8   Data  even  none     8     10  VX_DCB_D
    9  LblCom even  none    96    140  VX_CONST_DCB
   10  RoData even  UTS      2      2  VX_DCB_D
   11   Proc  even  none     0      0  VX_DCB_D

    ****  Entry defs  ****

                              Check   Calling
                             calling  sequence
  Sect OctLoc Primary Altret sequence   type   Parms  Name
    11      0   yes            yes     ~proc       0  VX_DCB_D
PL6.E3A0      #001=VX_DCB_D File=VX_DCB_D.:E05TSI                                WED 07/30/97 08:49 Page:9

  ****  Data defs  ****

 Sect OctLoc  Name                           Sect OctLoc  Name
    8      0  M$UC$                              8      1  M$SI$
    8      2  M$EI$                              8      3  M$DO$
    8      4  M$LO$                              8      5  M$OF$
    8      6  M$RF$                              8      7  M$LF$
   10      0  VX_DCB_SIZEW                      10      1  VX_DCB_SIZEC

  ****  Data refs  ****

  Flags:  r = read only, s = secondary
Flgs Name                             Flgs Name                             Flgs Name
     M$UC                                  M$SI                                  M$DO
     M$LO                                  M$OF                                  M$RF
     M$LF                                  M$EI

  ****  Segment refs  ****

  Flags:  r = read only, s = secondary
Flgs Name                             Flgs Name                             Flgs Name
     NULLSID
PL6.E3A0      #001=VX_DCB_D File=VX_DCB_D.:E05TSI                                WED 07/30/97 08:49 Page:10

        1        1        /*T***********************************************************/
        2        2        /*T*                                                         */
        3        3        /*T* Copyright (c) Bull HN Information Systems Inc., 1997    */
        4        4        /*T*                                                         */
        5        5        /*T***********************************************************/
        6        6        /*X* DMR,PLM=5,IND=5,CSU=3,EXM=0,ECU=3,MOC,DCI=5,CRT=5          */
        7        7        VX_DCB_D: PROC;
        8        8
        9        9        /* ! ! */
       10       10        %INCLUDE VX_INC_NO_C;
       11     1707        /* ! R ! */
       12     1708        %INCLUDE F_DCB_D;
       13     1796        /* ! ! */
       14     1797    1   DCL M$SI                       DCB;
       15     1798    1   DCL M$DO                       DCB;
       16     1799    1   DCL M$LO                       DCB;
       17     1800        %M$DCB(
       18     1801              DCBN=M$OF,
       19     1802              CTG=NO,
       20     1803              ASN=FILE,
       21     1804              ORG=KEYED,
       22     1805              ACS=DIRECT,
       23     1806              FUN=IN,
       24     1807              DISP=NAMED);
       25     1881        %M$DCB(
       26     1882              DCBN=M$RF,
       27     1883              CTG=NO,
       28     1884              EXIST=NEWFILE,
       29     1885                   TYPE='R ',
       30     1886              ASN=FILE,
       31     1887              ORG=KEYED,
       32     1888              ACS=DIRECT,
       33     1889              FUN=UPDATE,
       34     1890              DISP=NAMED);
       35     1964        %M$DCB(
       36     1965              DCBN=M$LF,
       37     1966              CTG=NO,
PL6.E3A0      #001=VX_DCB_D File=VX_DCB_D.:E05TSI                                WED 07/30/97 08:49 Page:11
       38     1967              ASN=FILE,
       39     1968              ORG=KEYED,
       40     1969              ACS=DIRECT,
       41     1970              FUN=IN,
       42     1971              DISP=NAMED);
       43     2045        %M$DCB(
       44     2046              DCBN=M$EI,
       45     2047              CTG=NO,
       46     2048              ASN=FILE,
       47     2049              ORG=KEYED,
       48     2050              ACS=DIRECT,
       49     2051              FUN=IN,
       50     2052              DISP=NAMED);
       51     2126        /*
       52     2127
       53     2128        */
       54     2129        /* ! R ! */
       55     2130    1   DCL M$UC$                      PTR STATIC SYMDEF   INIT( ADDR( NIL) );
       56     2131    1   DCL M$SI$                      PTR STATIC SYMDEF   INIT( ADDR( NIL) );
       57     2132    1   DCL M$EI$                      PTR STATIC SYMDEF   INIT( ADDR( NIL) );
       58     2133    1   DCL M$DO$                      PTR STATIC SYMDEF   INIT( ADDR( NIL) );
       59     2134    1   DCL M$LO$                      PTR STATIC SYMDEF   INIT( ADDR( NIL) );
       60     2135    1   DCL M$OF$                      PTR STATIC SYMDEF   INIT( ADDR( NIL) );
       61     2136    1   DCL M$RF$                      PTR STATIC SYMDEF   INIT( ADDR( NIL) );
       62     2137    1   DCL M$LF$                      PTR STATIC SYMDEF   INIT( ADDR( NIL) );
       63     2138
       64     2139        /* ! ! */
       65     2140        %LIST;
       66     2141        %SET LISTSUB='1'B;
       67     2142        /* ! R ! */
       68     2143
       69     2144        %M$MDCB( DCBN=VX_CONST_DCB, STCLASS=EXT );
              2145    1  DCL 1 VX_CONST_DCB EXT,2 ARS# SBIN INIT(0),2 FLPW# REDEF ARS# BIT(36),2 * UBIN INIT(
              2145            0),2 TYC,3 EGV# BIT(1)INIT('0'B*0),3 OPER# BIT(1)
              2146    1   INIT('0'B*0),3 EOT# BIT(1)INIT('0'B*0),3 BOT# BIT(1)INIT('0'B*0),3 BOF# BIT(1)INIT(
              2146            '0'B*0),3 BLNKTP# BIT(1)INIT('0'B*0),3 EOF# BIT
              2147    1   (1)INIT('0'B*0),3 LD# BIT(1)INIT('0'B*0),3 IOERR# BIT(1)INIT('0'B*0),3 DI# BIT(1)
PL6.E3A0      #001=VX_DCB_D File=VX_DCB_D.:E05TSI                                WED 07/30/97 08:49 Page:12
              2147            INIT('0'B*0),3 EOD# BIT(1)INIT('0'B*0),3 MTRAP# BIT
              2148    1  (1)INIT('0'B*0),3 LDISC# BIT(1)INIT('0'B*0),3 DACT# BIT(1)INIT('0'B*0),3 TIMO# BIT(1
              2148            )INIT('0'B*0),3 PROT# BIT(1)INIT('0'B*0),3 FRAW#
              2149    1   BIT(1)INIT('0'B*0),3 LAST# BIT(1)INIT('0'B*0),3 CDALRT# BIT(1)INIT('0'B*0),3 XTRARD
              2149            BIT(1)INIT('0'B*0),3 CGKEYV BIT(1)INIT('0'B*0),3
              2150    1   CGLWRV BIT(1)INIT('0'B*0),3 CGFULL BIT(1)INIT('0'B*0),3 CGCRCW BIT(1)INIT('0'B*0),3
              2150            CGCWRV BIT(1)INIT('0'B*0),3 * BIT(11)INIT
              2151    1   ('0'B*0),2 DVBYTE,3 TOP# BIT(1)INIT('0'B),3 * BIT(1)INIT('0'B),3 VFC# BIT(1)INIT(
              2151            '0'B),3 BIN# BIT(1)INIT('0'B),3 TRANS# BIT(1)INIT
              2152    1   ('0'B),3 * BIT(3)INIT('0'B),2 BUPF BIT(1)INIT('0'B),2 RDL0# UBIN(9)UNAL INIT(0),2
              2152            SLIDE# UBIN(9)UNAL INIT(0),2 EOMCHAR# CHAR(1)INIT
              2153    1  (BITASC('501'O)),2 EOMVAL# REDEF EOMCHAR# UNAL,3 VFLG# BIT(1),3 VALUE# UBIN(8)UNAL,2
              2153            FFLG,3 READ# BIT(1)INIT('0'B),3 DELR# BIT(1)
              2154    1  INIT('0'B),3 WNEW# BIT(1)INIT('0'B),3 UPD# BIT(1)INIT('0'B),3 DELF# BIT(1)INIT('0'B)
              2154            ,3 NOLIST# BIT(1)INIT('0'B),3 REATTR# BIT(1)INIT
              2155    1   ('0'B),3 EXEC# BIT(1)INIT('0'B),3 CREATE# BIT(1)INIT('0'B),3 AU# BIT(1)INIT('0'B),3
              2155            AURD# BIT(1)INIT('0'B),3 TCTL# BIT(1)INIT('0'B),
              2156    1  3 * BIT(6)INIT('0'B),2 DDEV,3 LP# BIT(1)INIT('0'B),3 CP# BIT(1)INIT('0'B),3 IC# BIT(
              2156            1)INIT('0'B),3 XEQ# BIT(1)INIT('0'B),3 UCOUT#
              2157    1   BIT(1)INIT('0'B),3 GR# BIT(1)INIT('0'B),3 * BIT(3)INIT('0'B),2 WIDTH# UBIN(9)UNAL
              2157            INIT(0),2 RETRYCNT# UBIN(18)HALIGNED INIT(0),2
              2158    1   DESC,3 DELF# BIT(1)INIT('0'B),3 NOLIST# BIT(1)INIT('0'B),3 BUF# BIT(1)INIT('0'B),3
              2158            ODSTOW# BIT(1)INIT('0'B),3 BAD# BIT(1)INIT('0'B),
              2159    1  3 QS# BIT(1)INIT('0'B),3 * BIT(2)INIT('0'B),3 ARCHIVE# BIT(1)INIT('0'B),3 BUPM# BIT(
              2159            1)INIT('0'B),3 NBUF# BIT(1)INIT('0'B),3 ACTIVE#
              2160    1  BIT(1)INIT('0'B),3 TPB# BIT(1)INIT('0'B),3 TERMINATE# BIT(1)INIT('0'B),3 FETCH# BIT(
              2160            1)INIT('0'B),3 * BIT(3)INIT('0'B),2 SETSTA$ PTR
              2161    1  INIT(ADDR(NIL)),2 LASTSTA$ PTR INIT(ADDR(NIL)),2 TDEXTST$ REDEF LASTSTA$ PTR,2 NAME#
              2161            ,3 L UBIN(9)UNAL INIT(SIZEC(' ')),3 C CHAR(31)
              2162    1   INIT(' '),3 C17 REDEF C UNAL,4 CC CHAR(17),4 * CHAR(14),2 ACCT# CHAR(8)INIT(' '),2
              2162            PASS# CHAR(8)INIT(' '),2 PSN# CHAR(6)INIT
              2163    1   (' '),2 TYPE# CHAR(2)INIT(' '),2 RES# CHAR(4)INIT('ME'),2 RESNT REDEF RES# UNAL,3
              2163            TYP CHAR(2),3 NUM CHAR(2),2 WSN# CHAR(8)ALIGNED
              2164    1   INIT(' '),2 TDSTAT# REDEF WSN# BIT(72),2 IGNOREFSN# BIT(1)INIT('0'B),2 AU# BIT(1)
              2164            INIT('0'B),2 QISS# BIT(1)INIT('0'B),2 LOAD# BIT
              2165    1  (1)INIT('0'B),2 IOERROK# BIT(1)INIT('0'B),2 AMRSETSTA BIT(1)INIT('0'B),2 LSTAOR# BIT
              2165            (1)INIT('0'B),2 VOLACCESS# UBIN(2)UNAL INIT
PL6.E3A0      #001=VX_DCB_D File=VX_DCB_D.:E05TSI                                WED 07/30/97 08:49 Page:13
              2166    1   (0),2 UOPT#(0:8)BIT(1)INIT('0'B,'0'B,'0'B,'0'B,'0'B,'0'B,'0'B,'0'B,'0'B),2 PASSF#
              2166            BIT(1)INIT('0'B),2 CNVRT# BIT(1)
              2167    1  INIT('1'B),2 EBCDIC# BIT(1)INIT('0'B),2 FCI# BIT(1)INIT('0'B),2 FCD# BIT(1)INIT('0'B
              2167            ),2 AMR# BIT(1)INIT('0'B),2 CTG# BIT(1)INIT
              2168    1  ('0'B),2 EXIST# UBIN(2)UNAL INIT(3),2 SHARE# UBIN(2)UNAL INIT(0),2 COMP# BIT(1)INIT(
              2168            '0'B),2 XTEND# BIT(1)INIT('0'B),2 CVOL#
              2169    1  BIT(1)INIT('0'B),2 BLOCKED# BIT(1)INIT('1'B),2 SPANNED# BIT(1)INIT('1'B),2 BUPM# BIT
              2169            (2)INIT('01'B),2 ORG# UBIN(9)UNAL INIT
              2170    1   (0),2 DVTYPE# REDEF ORG# UBIN(9)UNAL,2 FUN# UBIN(9)UNAL INIT(0),2 ASN# UBIN(9)UNAL
              2170            INIT(3),2 DISP# UBIN(9)UNAL INIT(0),2
              2171    1  BLKL# UBIN(18)UNAL INIT(0),2 RECL# UBIN(18)UNAL INIT(0),2 FSN# UBIN(18)UNAL INIT(0),
              2171            2 DBGDCBNO# REDEF FSN# UBIN(18)UNAL,2
              2172    1   DBGSYSID# REDEF FSN# UBIN(18)UNAL,2 SYSID# REDEF FSN# UBIN(18)UNAL,2 FEXTX UBIN(9)
              2172            UNAL INIT(0),2 BOL# UBIN(9)UNAL INIT(0),2 EXPIRE#
              2173    1  SBIN INIT(0),2 KEYX# UBIN(18)UNAL INIT(0),2 KEYL# UBIN(9)UNAL INIT(0),2 ACS# UBIN(9)
              2173            UNAL INIT(0),2 XTNSIZE# UBIN(18)
              2174    1   UNAL INIT(2),2 LSLIDE# UBIN(9)UNAL INIT(510),2 LRDL0# UBIN(9)UNAL INIT(3),2 SPARE#
              2174            UBIN(9)UNAL INIT(1),2 WSR# UBIN
              2175    1   (9)UNAL INIT(0),2 %CHARTEXT('ATTR# BIT(18)') INIT('0'B)%CHARTEXT('/*') '0'B %
              2175            CHARTEXT('*/,2 ATTR REDEF ATTR#'),3 DENS# BIT(9),3
              2176    1  GRLGL# BIT(1),3 TRANSLGL# BIT(1),3 NOXLATE# BIT(1),3 UPPERCASE# BIT(1),3 NATL# BIT(1
              2176            ),3 TRUOVRPRT# BIT(1),3 APL# BIT(1),3 BIN# BIT
              2177    1   (1),3 LOWERCASE# BIT(1),2 TDFLG REDEF %CHARTEXT('ATTR#/*')'0'B %CHARTEXT('*/'),3
              2177            SDSK# BIT(1),3 * BIT(17),2 IXTNSIZE# SBIN WORD INIT
              2178    1   (2),2 CONNCT# REDEF IXTNSIZE# SBIN,2 NRECS# SBIN INIT(0),2 CHANTIME# REDEF NRECS#
              2178            SBIN,2 VOL# UBIN(9)UNAL INIT(0),2
              2179    1  MAXVOL# UBIN(9)UNAL INIT(0),2 CHAIN# UBIN(9)UNAL INIT(0),2 DENSITY# UBIN(9)UNAL INIT
              2179            (0),2 LINES# UBIN(18)UNAL INIT
              2180    1   (0),2 DVFC# CHAR(1)INIT(BINASC(0)),2 SEQ# BIT(1)INIT('0'B),2 SEQCOL# UBIN(8)UNAL
              2180            INIT(73),2 SEQID# CHAR(4)INIT(' '),2 HEADER$
              2181    1  PTR INIT(ADDR(NIL)),2 DQH$ REDEF HEADER$ PTR,2 TAB$ PTR INIT(ADDR(NIL)),2 DCT$ REDEF
              2181            TAB$ PTR,2 FORM$ PTR INIT(ADDR(NIL)),2 MPC$
              2182    1   REDEF FORM$ PTR,2 LDCTX UBIN(18)UNAL INIT(0),2 SETX UBIN(18)UNAL INIT(0),2 DEVADR
              2182            REDEF SETX,3 DVN# UBIN(6)UNAL,3 IOM# UBIN(3)UNAL,3
              2183    1  CHAN# UBIN(9)CALIGNED,2 * BIT(9)CALIGNED INIT('0'B),2 JRNLBYPASS# BIT(1)INIT('0'B),2
              2183            * BIT(4)INIT('0'B),2 GHSTACS# UBIN(4)INIT
              2184    1   (0)UNAL,2 ALTKEYX UBIN(18)UNAL INIT(0),2 CODE16$ PTR INIT(ADDR(NIL)),2 FPRGX UBIN
PL6.E3A0      #001=VX_DCB_D File=VX_DCB_D.:E05TSI                                WED 07/30/97 08:49 Page:14
              2184            HALF HALIGNED INIT(0),2 FIELDX UBIN HALF
              2185    1   HALIGNED INIT(0),2 EVENT SBIN INIT(0),2 VFCCHAR# CHAR(1)CALIGNED INIT(BINASC(0)),2
              2185            KEYTYPE# UBIN(9)CALIGNED INIT(0),2 KFIELDX
              2186    1  UBIN(18)HALIGNED INIT(0),2 STARTX UBIN(18)HALIGNED INIT(0),2 ACTPOS UBIN(18)HALIGNED
              2186            INIT(0),2 AUTHFFLG REDEF ACTPOS,3 READ# BIT(1),
              2187    1   3 DELR# BIT(1),3 WNEW# BIT(1),3 UPD# BIT(1),3 DELF# BIT(1),3 NOLIST# BIT(1),3
              2187            REATTR# BIT(1),3 EXEC# BIT(1),3 CREATE# BIT(1),3 AU#
              2188    1   BIT(1),3 AURD# BIT(1),3 TCTL# BIT(1),3 * BIT(6),2 DCB# UBIN(9)CALIGNED INIT(0),2 *
              2188            BIT(14)INIT('0'B),2 ANSISPANSEQ# BIT(1)INIT
              2189    1   ('1'B),2 PATH,3 IOM# UBIN(3)UNAL INIT(0),3 CHAN# UBIN(9)UNAL INIT(0),2 IRRECX UBIN(
              2189            18)HALIGNED INIT(0),2 FLDID UBIN(18)
              2190    1   HALIGNED INIT(0),2 BADARS# REDEF FLDID UBIN(18)HALIGNED,2 SEED# BIT(36)INIT('0'B),2
              2190            * UBIN INIT(0),2 FEXT BIT(1)INIT('0'B),2 STARF
              2191    1   BIT(1)INIT('0'B),2 SHARED BIT(1)INIT('0'B),2 FMOD BIT(1)INIT('0'B),2 GTYP UBIN(3)
              2191            UNAL INIT(0),2 EOP UBIN(2)UNAL INIT(0),2 AMFLG,3
              2192    1   ACCF BIT(1)INIT('0'B),3 ACSF BIT(1)INIT('0'B),3 INSF BIT(1)INIT('0'B),3 USRF BIT(1)
              2192            INIT('0'B),3 SNLF BIT(1)INIT('0'B),3 PROF BIT(1)
              2193    1  INIT('0'B),2 SEZ_OK BIT(1)INIT('0'B),2 MUST_CVOL BIT(1)INIT('0'B),2 NEW_FSECT BIT(1)
              2193            INIT('0'B),2 NOEOF BIT(1)INIT('0'B),2 MOUNT
              2194    1   REDEF NOEOF BIT(1),2 OHDR BIT(1)INIT('0'B),2 LDFLG REDEF OHDR BIT(1),2 SPAN BIT(1)
              2194            INIT('0'B),2 OWNER BIT(1)INIT('0'B),2 RA BIT(1)
              2195    1   INIT('0'B),2 RPOS BIT(1)INIT('0'B),2 STARX UBIN(3)UNAL INIT(0),2 CACHE BIT(1)INIT(
              2195            '0'B),2 ENQF BIT(1)INIT('0'B),2 GRPOS BIT(1)INIT
              2196    1  ('0'B),2 CONT BIT(1)INIT('0'B),2 WAIT UBIN(1)UNAL INIT(1),2 TRNC UBIN(2)UNAL INIT(0)
              2196            ,2 AFTRBLK BIT(1)INIT('0'B),2 LSTBLK BIT(1)INIT
              2197    1  ('0'B),2 BORROW SBIN INIT(0),2 LASTKEY$ REDEF BORROW PTR,2 LASTKEY REDEF BORROW SBIN
              2197            ,2 FTAM REDEF BORROW,3 CTX UBIN HALF UNAL,3 USR
              2198    1   UBIN BYTE UNAL,3 PMME UBIN(9)UNAL,2 CFU$ PTR INIT(ADDR(NIL)),2 TDALVL UBIN(3)UNAL
              2198            INIT(0),2 LVL UBIN(3)UNAL INIT(0),2 LPOOL REDEF
              2199    1   LVL UBIN(3)UNAL,2 WRCMP BIT(1)INIT('0'B),2 WCDATA BIT(1)INIT('0'B),2 UCOUT BIT(1)
              2199            INIT('0'B),2 TAPTYP,3 RWASC BIT(1)INIT('0'B),3 CP6F
              2200    1   BIT(1)INIT('0'B),3 USRBUF BIT(1)INIT('0'B),3 HAVLASTKEY BIT(1)INIT('0'B),3 NOCVOL
              2200            BIT(1)INIT('0'B),3 MANAGED BIT(1)INIT('0'B),3
              2201    1   PASTFM BIT(1)INIT('0'B),3 * BIT(2)INIT('0'B),2 CRECX UBIN(18)UNAL INIT(0),2 CBUFNUM
              2201            UBIN(3)UNAL INIT(0),2 IORG UBIN(6)UNAL INIT(0),2
              2202    1   TDA UBIN(27)UNAL INIT(0),2 BYTESLEFT REDEF TDA UBIN(27)UNAL,2 CRECNO SBIN INIT(0),2
              2202            PRECNO SBIN INIT(0),2 CSEED REDEF PRECNO SBIN,2
PL6.E3A0      #001=VX_DCB_D File=VX_DCB_D.:E05TSI                                WED 07/30/97 08:49 Page:15
              2203    1  HASH UBIN(27)UNAL INIT(0),2 FDCM UBIN(9)UNAL INIT(0),2 FCN(0:1),3 F BIT(1)INIT('0'B,
              2203            '0'B),3 CNT UBIN(8)UNAL INIT(0,0),2 BLKLEN UBIN
              2204    1   (18)UNAL INIT(0),2 UB$ PTR INIT(ADDR(NIL)),2 UBYTES UBIN INIT(0),2 FSECT UBIN(18)
              2204            UNAL INIT(0),2 INDX REDEF FSECT UBIN(18)UNAL,2
              2205    1   FPSTR UBIN(9)UNAL INIT(0),2 STR# UBIN(9)UNAL INIT(0),2 NRECX UBIN(18)UNAL INIT(0),2
              2205            MODCNT REDEF NRECX UBIN(18)UNAL,2 SEGX UBIN(18)
              2206    1   UNAL INIT(0),2 GDISP UBIN INIT(0),2 LOGSEC BIT(1)INIT('0'B),2 PRIVOPN BIT(1)INIT(
              2206            '0'B),2 OLDIOERR UBIN(2)UNAL INIT(0),2 * BIT(21)
              2207    1   INIT('0'B),2 REALSPAN BIT(1),2 DECRYPT BIT(1)INIT('0'B),2 PGINGRAN UBIN BYTE UNAL
              2207            INIT(0),2 IFMT UBIN(9)UNAL INIT(0),2 MEDIA UBIN(9)
              2208    1  UNAL INIT(0),2 IWL,3 TABIWL BIT(1)INIT('0'B),3 SEQIWL BIT(1)INIT('0'B),3 HDRIWL BIT(
              2208            1)INIT('0'B),3 * BIT(3)INIT('0'B),2 CTLCMDIN BIT
              2209    1   (1)INIT('0'B),2 UNIQUEBLD BIT(1)INIT('0'B),2 UPDCNT BIT(1)INIT('0'B),2 IASN UBIN(9)
              2209            UNAL INIT(0),2 MOVED SBIN(18)HALIGNED,2 * UBIN(9)
              2210    1   CALIGNED,2 CX UBIN(9)CALIGNED,2 CWORD CHAR(4)ALIGNED,2 RCSZ UBIN INIT(0),2 FEPSIZ
              2210            REDEF RCSZ,3 BUF UBIN HALF UNAL,3 KEY UBIN HALF
              2211    1  UNAL,2 ID ALIGNED,3 GX UBIN(10)UNAL,3 DA UBIN(26)UNAL,2 FEPIO,3 EVENT UBIN INIT(0),3
              2211            %CHARTEXT('KEYX/*') 0 %CHARTEXT('*/') UBIN
              2212    1  HALF HALIGNED INIT(0),3 BUFX UBIN HALF HALIGNED INIT(0),3 BPP(0:1)BIT(18)INIT('0'B*0
              2212            ),3 KPP(0:1)BIT(18)INIT('0'B*0),2 AGE SBIN INIT
              2213    1   (0),2 BFR(0:4),3 BUFUP BIT(1)INIT('0'B*0),3 SCRUB BIT(1)INIT('0'B*0),3 CHNG BIT(1)
              2213            INIT('0'B*0),3 CVM BIT(1)INIT('0'B*0),3 BUFX UBIN
              2214    1   (5)UNAL INIT(0*0),3 DA UBIN(27)UNAL INIT(0*0),2 BFR1(0:4)ALIGNED,3 FLAGS,4
              2214            ONE_WORD_HEADER BIT(1)INIT('0'B*0),4 * BIT(8)INIT
              2215    1   ('0'B*0),3 SIZ UBIN(9)UNAL INIT(0*0),3 CX UBIN(18)UNAL INIT(0*0),2 FEPIO2(0:3)UBIN
              2215            ALIGNED,2 FEPIO3(0:3)UBIN ALIGNED,2 * SBIN INIT
              2216    1   (29127);
       70     2218
       71     2219
       72     2220    1   DCL VX_DCB_SIZEW  UBIN WORD ALIGNED CONSTANT SYMDEF INIT( SIZEW(VX_CONST_DCB) );
       73     2221    1   DCL VX_DCB_SIZEC  UBIN WORD ALIGNED CONSTANT SYMDEF INIT( SIZEC(VX_CONST_DCB) );
       74     2222
       75     2223
       76     2224    1   END VX_DCB_D;

PL6.E3A0      #001=VX_DCB_D File=VX_DCB_D.:E05TSI                                WED 07/30/97 08:49 Page:16
--  Include file information  --

   F_DCB_D.:E05TOU  is referenced.
   CP_6.:E05TOU  cannot be made into a system file and is referenced.
   VX_MACRO_C.:E05TOU  is referenced.
   VX_PERR_C.:E05TOU  is referenced.
   VX_SUBS_C.:E05TOU  is referenced.
   VX_INC_NO_C.:E05TOU  is referenced.
   B$JIT_C.:E05TOU  was found in the system file and is never referenced.
   CP_6_C.:E05TOU  was found in the system file and is referenced.
      No diagnostics issued in procedure VX_DCB_D.
PL6.E3A0      #001=VX_DCB_D File=VX_DCB_D.:E05TSI                                WED 07/30/97 08:49 Page:17

 **** Variables and constants ****

  ****  Section 009 LblCom VX_CONST_DCB

  ****  Scalars and arrays  ****
OctLoc.c.b A Datatyp(siz) R M Lvl/name                 OctLoc.c.b A Datatyp(siz) R M Lvl/name

     0-0-0/w STRC(3456)  r     1 VX_CONST_DCB

  ****  BASED and DCB variables  ****

  ****  Scalars and arrays  ****
OctLoc.c.b A Datatyp(siz) R M Lvl/name                 OctLoc.c.b A Datatyp(siz) R M Lvl/name

     0-0-0/d ASTR(3528)  r     1 M$EI                       0-0-0/d ASTR(3528)  r     1 M$LF
     0-0-0/d ASTR(3528)  r     1 M$OF                       0-0-0/d ASTR(3528)  r     1 M$RF


   No code generated for procedure VX_DCB_D .
   Procedure VX_DCB_D requires 4 words of local(AUTO) storage.

    No errors detected in file VX_DCB_D.:E05TSI    .
PL6.E3A0      #001=VX_DCB_D File=VX_DCB_D.:E05TSI                                WED 07/30/97 08:49 Page:18
          *** CROSS REFERENCE LISTING ***
**     DENOTES     IDENTIFIER DEFINITION
<<                 IDENTIFIER'S VALUE SET
>>                 IDENTIFIER'S VALUE USED
<>                 IDENTIFIER SET AND/OR USED
--                 IDENTIFIER REFERENCED
PL6.E3A0      #001=VX_DCB_D File=VX_DCB_D.:E05TSI                                WED 07/30/97 08:49 Page:19
          MINI XREF LISTING

M$EI.ACTPOS
      2094**DCL      2094--REDEF
M$EI.ARS#
      2053**DCL      2053--REDEF
M$EI.ATTR#
      2083**DCL      2083--REDEF    2085--REDEF
M$EI.BORROW
      2105**DCL      2105--REDEF    2105--REDEF    2105--REDEF
M$EI.DCBNAME.L
      2124**DCL      2124--IMP-SIZ
M$EI.EOMCHAR#
      2060**DCL      2061--REDEF
M$EI.FLDID
      2097**DCL      2098--REDEF
M$EI.FORM$
      2089**DCL      2089--REDEF
M$EI.FSECT
      2112**DCL      2112--REDEF
M$EI.FSN#
      2079**DCL      2079--REDEF    2079--REDEF    2080--REDEF
M$EI.HEADER$
      2088**DCL      2089--REDEF
M$EI.IXTNSIZE#
      2085**DCL      2086--REDEF
M$EI.LASTSTA$
      2069**DCL      2069--REDEF
M$EI.LVL
      2106**DCL      2106--REDEF
M$EI.NAME#.C
      2069**DCL      2070--REDEF
M$EI.NOEOF
      2101**DCL      2101--REDEF
PL6.E3A0      #001=VX_DCB_D File=VX_DCB_D.:E05TSI                                WED 07/30/97 08:49 Page:20
M$EI.NRECS#
      2086**DCL      2086--REDEF
M$EI.NRECX
      2113**DCL      2113--REDEF
M$EI.OHDR
      2102**DCL      2102--REDEF
M$EI.ORG#
      2077**DCL      2078--REDEF
M$EI.PRECNO
      2110**DCL      2110--REDEF
M$EI.RCSZ
      2118**DCL      2118--REDEF
M$EI.RES#
      2071**DCL      2071--REDEF
M$EI.SETX
      2090**DCL      2090--REDEF
M$EI.TAB$
      2089**DCL      2089--REDEF
M$EI.TDA
      2109**DCL      2110--REDEF
M$EI.WSN#
      2071**DCL      2072--REDEF
M$LF.ACTPOS
      2013**DCL      2013--REDEF
M$LF.ARS#
      1972**DCL      1972--REDEF
M$LF.ATTR#
      2002**DCL      2002--REDEF    2004--REDEF
M$LF.BORROW
      2024**DCL      2024--REDEF    2024--REDEF    2024--REDEF
M$LF.DCBNAME.L
      2043**DCL      2043--IMP-SIZ
M$LF.EOMCHAR#
      1979**DCL      1980--REDEF
M$LF.FLDID
      2016**DCL      2017--REDEF
PL6.E3A0      #001=VX_DCB_D File=VX_DCB_D.:E05TSI                                WED 07/30/97 08:49 Page:21
M$LF.FORM$
      2008**DCL      2008--REDEF
M$LF.FSECT
      2031**DCL      2031--REDEF
M$LF.FSN#
      1998**DCL      1998--REDEF    1998--REDEF    1999--REDEF
M$LF.HEADER$
      2007**DCL      2008--REDEF
M$LF.IXTNSIZE#
      2004**DCL      2005--REDEF
M$LF.LASTSTA$
      1988**DCL      1988--REDEF
M$LF.LVL
      2025**DCL      2025--REDEF
M$LF.NAME#.C
      1988**DCL      1989--REDEF
M$LF.NOEOF
      2020**DCL      2020--REDEF
M$LF.NRECS#
      2005**DCL      2005--REDEF
M$LF.NRECX
      2032**DCL      2032--REDEF
M$LF.OHDR
      2021**DCL      2021--REDEF
M$LF.ORG#
      1996**DCL      1997--REDEF
M$LF.PRECNO
      2029**DCL      2029--REDEF
M$LF.RCSZ
      2037**DCL      2037--REDEF
M$LF.RES#
      1990**DCL      1990--REDEF
M$LF.SETX
      2009**DCL      2009--REDEF
M$LF.TAB$
      2008**DCL      2008--REDEF
PL6.E3A0      #001=VX_DCB_D File=VX_DCB_D.:E05TSI                                WED 07/30/97 08:49 Page:22
M$LF.TDA
      2028**DCL      2029--REDEF
M$LF.WSN#
      1990**DCL      1991--REDEF
M$OF.ACTPOS
      1849**DCL      1849--REDEF
M$OF.ARS#
      1808**DCL      1808--REDEF
M$OF.ATTR#
      1838**DCL      1838--REDEF    1840--REDEF
M$OF.BORROW
      1860**DCL      1860--REDEF    1860--REDEF    1860--REDEF
M$OF.DCBNAME.L
      1879**DCL      1879--IMP-SIZ
M$OF.EOMCHAR#
      1815**DCL      1816--REDEF
M$OF.FLDID
      1852**DCL      1853--REDEF
M$OF.FORM$
      1844**DCL      1844--REDEF
M$OF.FSECT
      1867**DCL      1867--REDEF
M$OF.FSN#
      1834**DCL      1834--REDEF    1834--REDEF    1835--REDEF
M$OF.HEADER$
      1843**DCL      1844--REDEF
M$OF.IXTNSIZE#
      1840**DCL      1841--REDEF
M$OF.LASTSTA$
      1824**DCL      1824--REDEF
M$OF.LVL
      1861**DCL      1861--REDEF
M$OF.NAME#.C
      1824**DCL      1825--REDEF
M$OF.NOEOF
      1856**DCL      1856--REDEF
PL6.E3A0      #001=VX_DCB_D File=VX_DCB_D.:E05TSI                                WED 07/30/97 08:49 Page:23
M$OF.NRECS#
      1841**DCL      1841--REDEF
M$OF.NRECX
      1868**DCL      1868--REDEF
M$OF.OHDR
      1857**DCL      1857--REDEF
M$OF.ORG#
      1832**DCL      1833--REDEF
M$OF.PRECNO
      1865**DCL      1865--REDEF
M$OF.RCSZ
      1873**DCL      1873--REDEF
M$OF.RES#
      1826**DCL      1826--REDEF
M$OF.SETX
      1845**DCL      1845--REDEF
M$OF.TAB$
      1844**DCL      1844--REDEF
M$OF.TDA
      1864**DCL      1865--REDEF
M$OF.WSN#
      1826**DCL      1827--REDEF
M$RF.ACTPOS
      1932**DCL      1932--REDEF
M$RF.ARS#
      1891**DCL      1891--REDEF
M$RF.ATTR#
      1921**DCL      1921--REDEF    1923--REDEF
M$RF.BORROW
      1943**DCL      1943--REDEF    1943--REDEF    1943--REDEF
M$RF.DCBNAME.L
      1962**DCL      1962--IMP-SIZ
M$RF.EOMCHAR#
      1898**DCL      1899--REDEF
M$RF.FLDID
      1935**DCL      1936--REDEF
PL6.E3A0      #001=VX_DCB_D File=VX_DCB_D.:E05TSI                                WED 07/30/97 08:49 Page:24
M$RF.FORM$
      1927**DCL      1927--REDEF
M$RF.FSECT
      1950**DCL      1950--REDEF
M$RF.FSN#
      1917**DCL      1917--REDEF    1917--REDEF    1918--REDEF
M$RF.HEADER$
      1926**DCL      1927--REDEF
M$RF.IXTNSIZE#
      1923**DCL      1924--REDEF
M$RF.LASTSTA$
      1907**DCL      1907--REDEF
M$RF.LVL
      1944**DCL      1944--REDEF
M$RF.NAME#.C
      1907**DCL      1908--REDEF
M$RF.NOEOF
      1939**DCL      1939--REDEF
M$RF.NRECS#
      1924**DCL      1924--REDEF
M$RF.NRECX
      1951**DCL      1951--REDEF
M$RF.OHDR
      1940**DCL      1940--REDEF
M$RF.ORG#
      1915**DCL      1916--REDEF
M$RF.PRECNO
      1948**DCL      1948--REDEF
M$RF.RCSZ
      1956**DCL      1956--REDEF
M$RF.RES#
      1909**DCL      1909--REDEF
M$RF.SETX
      1928**DCL      1928--REDEF
M$RF.TAB$
      1927**DCL      1927--REDEF
PL6.E3A0      #001=VX_DCB_D File=VX_DCB_D.:E05TSI                                WED 07/30/97 08:49 Page:25
M$RF.TDA
      1947**DCL      1948--REDEF
M$RF.WSN#
      1909**DCL      1910--REDEF
VX_CONST_DCB
      2145**DCL      2220--DCLINIT  2221--DCLINIT
VX_CONST_DCB.ACTPOS
      2186**DCL      2186--REDEF
VX_CONST_DCB.ARS#
      2145**DCL      2145--REDEF
VX_CONST_DCB.ATTR#
      2175**DCL      2175--REDEF    2177--REDEF
VX_CONST_DCB.BORROW
      2197**DCL      2197--REDEF    2197--REDEF    2197--REDEF
VX_CONST_DCB.EOMCHAR#
      2152**DCL      2153--REDEF
VX_CONST_DCB.FLDID
      2189**DCL      2190--REDEF
VX_CONST_DCB.FORM$
      2181**DCL      2181--REDEF
VX_CONST_DCB.FSECT
      2204**DCL      2204--REDEF
VX_CONST_DCB.FSN#
      2171**DCL      2171--REDEF    2171--REDEF    2172--REDEF
VX_CONST_DCB.HEADER$
      2180**DCL      2181--REDEF
VX_CONST_DCB.IXTNSIZE#
      2177**DCL      2178--REDEF
VX_CONST_DCB.LASTSTA$
      2161**DCL      2161--REDEF
VX_CONST_DCB.LVL
      2198**DCL      2198--REDEF
VX_CONST_DCB.NAME#.C
      2161**DCL      2162--REDEF
VX_CONST_DCB.NOEOF
      2193**DCL      2193--REDEF
PL6.E3A0      #001=VX_DCB_D File=VX_DCB_D.:E05TSI                                WED 07/30/97 08:49 Page:26
VX_CONST_DCB.NRECS#
      2178**DCL      2178--REDEF
VX_CONST_DCB.NRECX
      2205**DCL      2205--REDEF
VX_CONST_DCB.OHDR
      2194**DCL      2194--REDEF
VX_CONST_DCB.ORG#
      2169**DCL      2170--REDEF
VX_CONST_DCB.PRECNO
      2202**DCL      2202--REDEF
VX_CONST_DCB.RCSZ
      2210**DCL      2210--REDEF
VX_CONST_DCB.RES#
      2163**DCL      2163--REDEF
VX_CONST_DCB.SETX
      2182**DCL      2182--REDEF
VX_CONST_DCB.TAB$
      2181**DCL      2181--REDEF
VX_CONST_DCB.TDA
      2201**DCL      2202--REDEF
VX_CONST_DCB.WSN#
      2163**DCL      2164--REDEF
