VERSION E05

PL6.E3A0      #001=VX_FIXED_D File=VX_FIXED_D.:E05TSI                            WED 07/30/97 08:50 Page:1
        1        1        /*T***********************************************************/
        2        2        /*T*                                                         */
        3        3        /*T* Copyright (c) Bull HN Information Systems Inc., 1997    */
        4        4        /*T*                                                         */
        5        5        /*T***********************************************************/
        6        6        /*X* DMR,PLM=5,IND=5,CSU=3,EXM=0,ECU=3,MOC,DCI=5,CRT=5          */
        7        7        VX_FIXED_D: PROC;
        8        8
        9        9        /* !R!
       10       10        DCL VX_SN_STOP$               PTR ALIGNED SYMREF;
       11       11        DCL VX_SN_SIZEW               UBIN(36) SYMREF;
       12       12        DCL 1 VX_SN SYMREF ALIGNED,
       13       13              2 COUNT UBIN(18) UNAL,
       14       14              2 TEXT CHAR(1) UNAL;
       15       15        DCL VX_SD_STOP$               PTR ALIGNED SYMREF;
       16       16        DCL VX_SD_SIZEW               UBIN(36) ALIGNED SYMREF;
       17       17        DCL 1 VX_SD ALIGNED SYMREF,
       18       18              2 A(0:3) UBIN(18) UNAL,
       19       19              2 I REDEF A,
       20       20                3 SCT UBIN(9) UNAL,
       21       21                3 SC# UBIN(9) UNAL,
       22       22                3 OFFSET UBIN(18) UNAL,
       23       23                3 NAME_DISP UBIN(18) UNAL,
       24       24                3 P UBIN(1) UNAL,
       25       25                3 A UBIN(1) UNAL,
       26       26                3 I UBIN(1) UNAL,
       27       27                3 CST UBIN(4) UNAL,
       28       28                3 NP UBIN(11) UNAL;
       29       29        */
       30       30        /* ! ! */
       31       31        %INCLUDE B$OBJECT_C;
       32     3461        %INCLUDE VX_SWITCH_C;
       33     3469        %INCLUDE VX_INC_NO_C;
       34     5166        %INCLUDE VX_DATA_R;
       35     6785        %INCLUDE XU_MACRO_C;
       36     9891        %EJECT;
PL6.E3A0      #001=VX_FIXED_D File=VX_FIXED_D.:E05TSI                            WED 07/30/97 08:50 Page:2
       37     9892                                                /*
       38     9893                                                                            COUNT =  102
       39     9894                                                */
       40     9895        /* !R! */
       41     9896    1   DCL VX_PRE_DCB_NAME$      PTR       ALIGNED   CONSTANT    SYMDEF  INIT(
       42     9897    1                                                 ADDR( VX_DCB_NAME ) );
       43     9898    1   DCL VX_PRE_DCB_START$     PTR       ALIGNED   CONSTANT    SYMDEF  INIT(
       44     9899    1                                                 ADDR( VX_DCB_ENTRIES ) );
       45     9900    1   DCL VX_PRE_DCB_STOP$      PTR       ALIGNED   CONSTANT    SYMDEF  INIT(
       46     9901    1                                                 ADDR( VX_DCB_ENTRIES.M$UC ) );
       47     9902    1   DCL VX_PRE_DCB_GOT(0:3)   BIT(1)    ALIGNED   STATIC    SYMDEF    INIT(@NO_B*0);
       48     9903        /* ! ! */
       49     9904    1   DCL 1 VX_DCB_NAME CONSTANT SYMDEF,
       50     9905              %HTEXT(NAME="M$STAR",STRING="'M$*'",SIZE=3);
       51     9910              %HTEXT(NAME="M$DO",STRING="'M$DO'",SIZE=4);
       52     9915              %HTEXT(NAME="M$LM",STRING="'M$LM'",SIZE=4);
       53     9920              %HTEXT(NAME="M$UC",STRING="'M$UC'",SIZE=4,LAST=";");
       54     9925    1   DCL 1 VX_DCB_ENTRIES CONSTANT SYMDEF,
       55     9926              %MAK_DEF(
       56     9927                        NAME=M$STAR,
       57     9928                                       INIT1="0",
       58     9929                                       INIT2=0,
       59     9930                                       INIT3="0",
       60     9931                                       INIT4="0",
       61     9932                                       INIT5="@M$STAR_DCB_NUM",
       62     9933                                       INIT6="0");
       63     9942              %MAK_DEF(
       64     9943                        NAME=M$DO,
       65     9944                                       INIT1="0",
       66     9945                                       INIT2=0,
       67     9946                                       INIT3="2",
       68     9947                                       INIT4="0",
       69     9948                                       INIT5="@M$DO_DCB_NUM",
       70     9949                                       INIT6="0");
       71     9958              %MAK_DEF(
       72     9959                        NAME=M$LM,
       73     9960                                       INIT1="0",
PL6.E3A0      #001=VX_FIXED_D File=VX_FIXED_D.:E05TSI                            WED 07/30/97 08:50 Page:3
       74     9961                                       INIT2=0,
       75     9962                                       INIT3="4",
       76     9963                                       INIT4="0",
       77     9964                                       INIT5="@M$LM_DCB_NUM",
       78     9965                                       INIT6="0");
       79     9974              %MAK_DEF(
       80     9975                        NAME=M$UC,
       81     9976                                       INIT1="0",
       82     9977                                       INIT2=0,
       83     9978                                       INIT3="6",
       84     9979                                       INIT4="0",
       85     9980                                       INIT5="@M$UC_DCB_NUM",
       86     9981                                       INIT6="0",LAST=";");
       87     9990        %EJECT;
PL6.E3A0      #001=VX_FIXED_D File=VX_FIXED_D.:E05TSI                            WED 07/30/97 08:50 Page:4
       88     9991        /*
       89     9992              PARSE STUFF
       90     9993        */
       91     9994        %LIST;
       92     9995        /* !R!
       93     9996        %P$PCB(NAME=VX_P_PCB_MAIN, STCLASS="SYMREF");
       94     9997        */
       95     9998        /* ! ! */
       96     9999        %P_PCB( NAME=VX_P_PCB_MAIN, STCLASS="STATIC SYMDEF");
             10000        /*F*  NAME:     P_PCB
             10001              FUNCTION: Parse Control Block.  This structure is used to pass data
             10002                  to the X$PARSE utility, and to receive X$PARSE's responses.
             10003        */
             10004         %LSET LISTDIR='0'B;
             10017    1   DCL 1 VX_P_PCB_MAIN STATIC SYMDEF ALIGNED,
             10018    1         2 TEXT$ PTR INIT(ADDR(NIL))/**/,
             10022    1         2 ROOT$ PTR INIT(ADDR(NIL))/**/,
             10026    1         2 WORK$ PTR INIT(ADDR(NIL))/**/,
             10030    1         2 OUT$ PTR INIT(ADDR(NIL))/**/,
             10035    1         2 U$$ EPTR INIT(ENTADDR(NIL))/**/,
             10047    1         2 WKSZ UBIN(18) UNAL INIT(0)/**/,
             10052    1         2 CMPRS BIT(1) UNAL INIT('1'B)/**/,
             10058    1         2 CONTINUE BIT(1) UNAL INIT('1'B)/**/,
             10062    1         2 NOLEADBLANKS BIT(1) UNAL INIT('0'B)/**/,
             10067    1         2 NXT BIT(1) UNAL INIT('0'B)/**/,
             10084    1         2 DYNMEM BIT(1) UNAL INIT('0'B)/**/,
             10089    1         2 KEYWORDS BIT (1) INIT ('0'B) /**/,
             10104    1         2 BLANKONLY BIT (1),
             10112    1         2 NXT_SZONLY BIT(1) UNAL INIT('0'B)/**/,
             10120    1         2 * BIT (10) INIT ('0'B) /**/,
             10121    1         2 ERROR ALIGNED,
             10126    1           3 FCG BIT(12) UNAL INIT('0'B)/**/,
             10127    1           3 MID BIT(6) UNAL INIT('0'B)/**/,
             10128    1           3 MON BIT(1) UNAL INIT('0'B)/**/,
             10129    1           3 CODE UBIN(14) UNAL INIT(0)/**/,
             10130    1           3 SEV UBIN(3) UNAL INIT(0)/**/,
             10131    1         2 COMMENT ALIGNED,
PL6.E3A0      #001=VX_FIXED_D File=VX_FIXED_D.:E05TSI                            WED 07/30/97 08:50 Page:5
             10135    1           3 LEAD CHAR(2) UNAL INIT(' "')/**/,
             10143    1           3 TRAIL CHAR(2) UNAL INIT(' "')/**/,
             10150    1         2 WK_USED UBIN(18) UNAL INIT(0)/**/,
             10154    1         2 VERSION_CODE UBIN(4) UNAL INIT(1)/**/,
             10159    1         2 OUTDCB# UBIN(14) UNAL INIT(DCBNUM(NIL))/**/,
             10164    1         2 NCHARS UBIN WORD INIT(0)/**/,
             10168    1         2 HI_CHAR UBIN WORD INIT(0)/**/,
             10175    1         2 HINODE$ PTR INIT(ADDR(NIL))/**/,
             10184    1         2 USER$ PTR INIT(ADDR(NIL))/**/,
             10190    1         2 OUTENT$ EPTR INIT(ENTADDR(NIL))/**/;
       97    10198        %PLIST;
       98    10199        %EJECT;
PL6.E3A0      #001=VX_FIXED_D File=VX_FIXED_D.:E05TSI                            WED 07/30/97 08:50 Page:6
       99    10200        /*
      100    10201                   FPT'S
      101    10202        */
      102    10203    1   DCL M$OF             DCB;
      103    10204    1   DCL M$RF             DCB;
      104    10205    1   DCL M$LF             DCB;
      105    10206    1   DCL M$SI             DCB;
      106    10207    1   DCL M$LO             DCB;
      107    10208    1   DCL M$DO             DCB;
      108    10209    1   DCL M$EI             DCB;
      109    10210        /* !R! */
      110    10211        %FPT_ERRMSG( FPTN=VX_FPT_ERRMSG,
      111    10212        /* ! ! */
      112    10213                   CODE = VX_ERR_CODE,
      113    10214                   BUF = VX_EBUF,
      114    10215                   OUTDCB1 = M$LO,
      115    10216                   FIELD1  = VX_EFIELD1,
      116    10217                   FIELD2  = VX_EFIELD2,
      117    10218                   FIELD3  = VX_EFIELD3,
      118    10219                   RESULTS = VX_ERR_RESULTS,
      119    10220        /*         FILENAME=ERRMSG_FILE,  Set up for testing purposes
      120    10221                   FILEACCT=ERRMSG_ACCT, */
      121    10222        /* !R! */
      122    10223                   STCLASS="STATIC SYMDEF");
      123    10250        /* ! ! */
      124    10251        %VLP_NAME(FPTN=ERRMSG_FILE,NAME=':ERRMSG',STCLASS="STATIC SYMDEF");
      125    10278        %VLP_ACCT(FPTN=ERRMSG_ACCT,ACCT=':SPGN',STCLASS="STATIC SYMDEF");
      126    10291        %VLR_ERRMSG( FPTN=VX_ERR_RESULTS, STCLASS="STATIC SYMDEF");
      127    10313        %LIST;
      128    10314        %EJECT;
PL6.E3A0      #001=VX_FIXED_D File=VX_FIXED_D.:E05TSI                            WED 07/30/97 08:50 Page:7
      129    10315        /* FOR MEMORY MANAGEMENT */
      130    10316        /* !R! */
      131    10317              %VECTOR( NAME=VX_M_VECTOR, STCLASS="STATIC SYMDEF"/* ! ! */,INT_U="INIT(0)",
             10317                  INT_B="INIT('0'B)");
             10318        %LSET LISTDIR='0'B;

             10330    1   /*******************************************************************************
             10331    1   *                                                                              *
             10332    1   *                          TEMPLATE FOR 2-WORD NSA VECTOR                          *
             10333    1   *                                                                              *
             10334    1   *******************************************************************************/

             10339    1   DCL 1 VX_M_VECTOR STATIC SYMDEF ALIGNED,
             10340    1         2 VSIZE UBIN(20) UNAL INIT(0),      /* Size field of vector               */
             10341    1         2 FLAGS BIT(9) UNAL INIT('0'B),       /* FLAGS...                           */
             10342    1         2 V BIT(2) UNAL INIT('0'B),           /* Vector type field                  */
             10343    1         2 Z5 BIT(5) UNAL INIT('0'B),          /* Unused                             */
             10344    1         2 F,
             10345    1           3 BASE UBIN(20) UNAL INIT(0),     /* Base for vector                    */
             10346    1           3 Z4 BIT(4) UNAL INIT('0'B),        /* Unused                             */
             10347    1           3 SEGID UBIN(12) UNAL INIT(0),    /* Segid                              */
             10348    1         2 P       REDEF     F,            /* To extract the pointer             */
             10349    1           3 POINTER          PTR UNAL;
      132    10352        /* !R!); */
      133    10353        %PLIST;
      134    10354              %VECTOR( NAME=VX_M_VECTOR_DP, STCLASS="STATIC SYMDEF"/* ! ! */,INT_U="INIT(0)"
             10354                  ,INT_B="INIT('0'B)");

             10367    1   /*******************************************************************************
             10368    1   *                                                                              *
             10369    1   *                          TEMPLATE FOR 2-WORD NSA VECTOR                          *
             10370    1   *                                                                              *
             10371    1   *******************************************************************************/

             10376    1   DCL 1 VX_M_VECTOR_DP STATIC SYMDEF ALIGNED,
             10377    1         2 VSIZE UBIN(20) UNAL INIT(0),      /* Size field of vector               */
             10378    1         2 FLAGS BIT(9) UNAL INIT('0'B),       /* FLAGS...                           */
PL6.E3A0      #001=VX_FIXED_D File=VX_FIXED_D.:E05TSI                            WED 07/30/97 08:50 Page:8
             10379    1         2 V BIT(2) UNAL INIT('0'B),           /* Vector type field                  */
             10380    1         2 Z5 BIT(5) UNAL INIT('0'B),          /* Unused                             */
             10381    1         2 F,
             10382    1           3 BASE UBIN(20) UNAL INIT(0),     /* Base for vector                    */
             10383    1           3 Z4 BIT(4) UNAL INIT('0'B),        /* Unused                             */
             10384    1           3 SEGID UBIN(12) UNAL INIT(0),    /* Segid                              */
             10385    1         2 P       REDEF     F,            /* To extract the pointer             */
             10386    1           3 POINTER          PTR UNAL;
      135    10389        /* !R!); */
      136    10390        /* ! ! */
      137    10391        %EJECT;
PL6.E3A0      #001=VX_FIXED_D File=VX_FIXED_D.:E05TSI                            WED 07/30/97 08:50 Page:9
      138    10392        /*
      139    10393              KEY BUFFERS
      140    10394        */
      141    10395        %LIST;
      142    10396        %SET LISTSUB='1'B;
      143    10397        /* !R! */
      144    10398        %O_KEY_BUF(KEYBUF=VX_O_KEY_BUF, STCLASS="STATIC SYMDEF"/* ! ! */, INT="INIT(0)");
             10399    1   DCL 1 VX_O_KEY_BUF ALIGNED STATIC SYMDEF,
             10400    1          2 FORM0 ,
             10401    1           3 COUNT       UBIN( 9)  UNAL INIT(0),
             10402    1           3 CHARS       CHAR(512) UNAL,
             10403    1         2 FORM1        REDEF     FORM0,
             10404    1           3 COUNT       UBIN( 9)  UNAL,
             10405    1           3 O777        UBIN( 9)  UNAL,   /* <- '777'O                          */
             10406    1           3 UTS         UBIN(36)  UNAL,
             10407    1           3 REC_TYPE    UBIN( 9)  UNAL,
             10408    1           3 PAGE#       UBIN( 9)  UNAL,
             10409    1           3 *           CHAR(505) UNAL,
             10410    1         2 FORM2        REDEF     FORM0,
             10411    1           3 COUNT       UBIN( 9)  UNAL,
             10412    1           3 O777        UBIN( 9)  UNAL,   /* <- '777'O                          */
             10413    1           3 UTS         UBIN(36)  UNAL,
             10414    1           3 D10         UBIN( 9)  UNAL,   /* <- 10                              */
             10415    1           3 SECT#       UBIN(18)  UNAL,
             10416    1           3 OFFSET      UBIN(18)  UNAL,
             10417    1           3 STYPE       UBIN( 9)  UNAL,
             10418    1           3 SEQUENCE    UBIN( 9)  UNAL,
             10419    1           3 *           CHAR(500) UNAL ;
      145    10421        /* !R!); */
      146    10422        %PLIST;
      147    10423        %O_KEY_BUF(KEYBUF=VX_O_KEY_BUF_L, STCLASS="STATIC SYMDEF"/* ! ! */, INT="INIT(0)");
      148    10446        /* !R!); */
      149    10447        %LIST;
      150    10448        %R_KEY_BUF(KEYBUF=VX_R_KEY_BUF, STCLASS="STATIC SYMDEF"/* ! ! */, INT="INIT(0)");
             10449    1   DCL 1 VX_R_KEY_BUF                        STATIC SYMDEF,
             10450    1         2 FORM0                  ALIGNED,
             10451    1           3 COUNT       UBIN( 9)  UNAL INIT(0),
PL6.E3A0      #001=VX_FIXED_D File=VX_FIXED_D.:E05TSI                            WED 07/30/97 08:50 Page:10
             10452    1           3 CHARS       CHAR( 5)  UNAL,
             10453    1           3 *           CHAR( 6)  UNAL,
             10454    1         2 FORM1        REDEF     FORM0,
             10455    1           3 COUNT       UBIN( 9)  UNAL,
             10456    1           3 REC_TYPE    UBIN( 9)  UNAL,
             10457    1           3 NODE#       UBIN(18)  UNAL,
             10458    1           3 OFFSET      UBIN(18)  UNAL,
             10459    1           3 *           CHAR( 6)  UNAL,
             10460    1         2 FORM2        REDEF     FORM0,
             10461    1           3 COUNT       UBIN( 9)  UNAL,
             10462    1           3 O777        UBIN( 9)  UNAL,   /* <- '777'O                          */
             10463    1           3 NODE#       UBIN(18)  UNAL,
             10464    1           3 P_ENTDEF    UBIN(18)  UNAL,
             10465    1           3 REC_TYPE    UBIN( 9)  UNAL,
             10466    1           3 PAGE#       UBIN( 9)  UNAL,
             10467    1           3 *           CHAR( 4)  UNAL;
      151    10469        /* !R!); */
      152    10470        %KEY_VARS(KEYVARS=VX_OK, STCLASS="STATIC SYMDEF"/* ! ! */, INT="INIT(0)", INT1=
             10470            "INIT(-1)",
      153    10471              INT_C="INIT(' ')");
             10472    1   DCL 1 VX_OK                  STATIC SYMDEF,
             10473    1         2 KFILE                  UBIN(36) ALIGNED INIT(0),
             10474    1         2 KTYPE                  SBIN WORD ALIGNED INIT(-1),
             10475    1         2 KRTYPE                 UBIN(36) ALIGNED INIT(0),
             10476    1         2 KPAGE#                 SBIN WORD ALIGNED INIT(-1),
             10477    1         2 KOFSET                 UBIN(36) ALIGNED INIT(0),
             10478    1         2 KSTYPE                 UBIN(36) ALIGNED INIT(0),
             10479    1         2 KSEQUENCE              SBIN WORD ALIGNED INIT(-1),
             10480    1         2 KSECT#                 UBIN(36) ALIGNED INIT(0),
             10481    1         2 KNODE#                 UBIN(36) ALIGNED INIT(0),
             10482    1         2 KPEDX                  UBIN(36) ALIGNED INIT(0),
             10483    1         2 KATYPE                 SBIN WORD ALIGNED INIT(-1),
             10484    1         2 OUNAME,
             10485    1           3 COUNT                 UBIN( 9) UNAL INIT(0),
             10486    1            3 CHARS             CHAR(31) UNAL INIT(' '),
             10487    1         2 FILE                   ALIGNED,
             10488    1           3 OFNAME                ALIGNED,
PL6.E3A0      #001=VX_FIXED_D File=VX_FIXED_D.:E05TSI                            WED 07/30/97 08:50 Page:11
             10489    1             4 COUNT                UBIN(9)   UNAL INIT(0),
             10490    1             4 CHARS                CHAR(40)  UNAL INIT(' '),
             10491    1           3 RFNAME                ALIGNED,
             10492    1             4 COUNT                UBIN(9)   UNAL INIT(0),
             10493    1             4 CHARS                CHAR(40)  UNAL INIT(' ');
      154    10495        /* !R!); */
      155    10496        %EJECT;
PL6.E3A0      #001=VX_FIXED_D File=VX_FIXED_D.:E05TSI                            WED 07/30/97 08:50 Page:12
      156    10497        /*
      157    10498              IMAGE FORMATION VARIABLES
      158    10499        */
      159    10500        %LIST;
      160    10501        %IMAGE_BUFFERS(
      161    10502              NAME=VX_IMAGE_DATA,
      162    10503              STCLASS="STATIC SYMDEF"
      163    10504        /* ! ! */
      164    10505              ,INT_PTR="INIT(ADDR(NIL)*0)",
      165    10506              INT_UBIN="INIT(0*0)",
      166    10507              INT_SBIN="INIT(-1*0)");
             10508    1   DCL 1 VX_IMAGE_DATA           ALIGNED        STATIC SYMDEF,
             10509    1         2 CPAGE#_A(0:1) SBIN WORD ALIGNED INIT(-1*0), /* Current page # in buffer # */
             10510    1         2 CPAGE# REDEF CPAGE#_A,
             10511    1           3 BUF0                  SBIN WORD ALIGNED,
             10512    1           3 BUF1                  SBIN WORD ALIGNED,
             10513    1         2 START_A$(0:1) PTR ALIGNED INIT(ADDR(NIL)*0),
             10513                  /* Pointer to start of buffer #    */
             10514    1         2 START$ REDEF START_A$,
             10515    1           3 BUF0$                 PTR       ALIGNED,
             10516    1           3 BUF1$                 PTR       ALIGNED,
             10517    1         2 STOP_A$(0:1)           PTR       ALIGNED INIT(ADDR(NIL)*0),
             10518    1         2 STOP$  REDEF STOP_A$,           /* Pointer to end of buffer #         */
             10519    1           3 BUF0$                 PTR       ALIGNED,
             10520    1           3 BUF1$                 PTR       ALIGNED,
             10521    1         2 NODE_A$(0:1) PTR ALIGNED INIT(ADDR(NIL)*0),
             10521                  /* Pointer to node  of buffer #     */
             10522    1         2 NODE$  REDEF NODE_A$,
             10523    1           3 BUF0$                 PTR       ALIGNED,
             10524    1           3 BUF1$                 PTR       ALIGNED,
             10525    1         2 BEGIN$                 PTR       ALIGNED,
             10526    1         2 END$                   PTR       ALIGNED,
             10527    1         2 SPAGE#                 UBIN(36)  ALIGNED INIT(0*0),
             10528    1         2 EPAGE#                 UBIN(36)  ALIGNED INIT(0*0);
      167    10530        /* !R!); */
      168    10531        %PLIST;
      169    10532        %IMAGE_BUFFERS(
PL6.E3A0      #001=VX_FIXED_D File=VX_FIXED_D.:E05TSI                            WED 07/30/97 08:50 Page:13
      170    10533              NAME=VX_IMAGE_PROC,
      171    10534              STCLASS="STATIC SYMDEF"
      172    10535        /* ! ! */
      173    10536              ,INT_PTR="INIT(ADDR(NIL)*0)",
      174    10537              INT_UBIN="INIT(0*0)",
      175    10538              INT_SBIN="INIT(-1*0)");
      176    10561        /* !R!); */
      177    10562        %IMAGE_BUFFERS(
      178    10563              NAME=VX_IMAGE_ROS,
      179    10564              STCLASS="STATIC SYMDEF"
      180    10565        /* ! ! */
      181    10566              ,INT_PTR="INIT(ADDR(NIL)*0)",
      182    10567              INT_UBIN="INIT(0*0)",
      183    10568              INT_SBIN="INIT(-1*0)");
      184    10591        /* !R!); */
      185    10592        %IMAGE_BUFFERS(
      186    10593              NAME=VX_IMAGE_DS3,
      187    10594              STCLASS="STATIC SYMDEF"
      188    10595        /* ! ! */
      189    10596              ,INT_PTR="INIT(ADDR(NIL)*0)",
      190    10597              INT_UBIN="INIT(0*0)",
      191    10598              INT_SBIN="INIT(-1*0)");
      192    10621        /* !R!); */
      193    10622        %IMAGE_BUFFERS(
      194    10623              NAME=VX_IMAGE_DS4,
      195    10624              STCLASS="STATIC SYMDEF"
      196    10625        /* ! ! */
      197    10626              ,INT_PTR="INIT(ADDR(NIL)*0)",
      198    10627              INT_UBIN="INIT(0*0)",
      199    10628              INT_SBIN="INIT(-1*0)");
      200    10651        /* !R!); */
      201    10652        %IMAGE_BUFFERS(
      202    10653              NAME=VX_IMAGE_DS5,
      203    10654              STCLASS="STATIC SYMDEF"
      204    10655        /* ! ! */
      205    10656              ,INT_PTR="INIT(ADDR(NIL)*0)",
      206    10657              INT_UBIN="INIT(0*0)",
PL6.E3A0      #001=VX_FIXED_D File=VX_FIXED_D.:E05TSI                            WED 07/30/97 08:50 Page:14
      207    10658              INT_SBIN="INIT(-1*0)");
      208    10681        /* !R!); */
      209    10682        %IMAGE_BUFFERS(
      210    10683              NAME=VX_IMAGE_DS6,
      211    10684              STCLASS="STATIC SYMDEF"
      212    10685        /* ! ! */
      213    10686              ,INT_PTR="INIT(ADDR(NIL)*0)",
      214    10687              INT_UBIN="INIT(0*0)",
      215    10688              INT_SBIN="INIT(-1*0)");
      216    10711        /* !R!); */
      217    10712        %IMAGE_BUFFERS(
      218    10713              NAME=VX_IMAGE_DS7,
      219    10714              STCLASS="STATIC SYMDEF"
      220    10715        /* ! ! */
      221    10716              ,INT_PTR="INIT(ADDR(NIL)*0)",
      222    10717              INT_UBIN="INIT(0*0)",
      223    10718              INT_SBIN="INIT(-1*0)");
      224    10741        /* !R!); */
      225    10742        %IMAGE_BUFFERS(
      226    10743              NAME=VX_IMAGE_DS8,
      227    10744              STCLASS="STATIC SYMDEF"
      228    10745        /* ! ! */
      229    10746              ,INT_PTR="INIT(ADDR(NIL)*0)",
      230    10747              INT_UBIN="INIT(0*0)",
      231    10748              INT_SBIN="INIT(-1*0)" /* !R!); */ );
      232    10771    1   DCL VX_RU_NAME$        PTR  ALIGNED   STATIC    SYMDEF INIT(ADDR(NIL));
      233    10772    1   DCL VX_IMAGE_PTR$(0:8) PTR  ALIGNED   STATIC    SYMDEF
      234    10773    1              INIT( ADDR(VX_IMAGE_DATA), ADDR(VX_IMAGE_PROC), ADDR(VX_IMAGE_ROS),
      235    10774    1                    ADDR(VX_IMAGE_DS3), ADDR(VX_IMAGE_DS4), ADDR(VX_IMAGE_DS5),
      236    10775    1                    ADDR(VX_IMAGE_DS6), ADDR(VX_IMAGE_DS7), ADDR(VX_IMAGE_DS8) );
      237    10776        /* !R!
      238    10777        DCL B$JIT$            PTR ALIGNED SYMREF;
      239    10778        DCL B$TCB$            PTR ALIGNED SYMREF;
      240    10779        DCL B$ROS$            PTR ALIGNED SYMREF;
      241    10780        */
      242    10781    1   END;

PL6.E3A0      #001=VX_FIXED_D File=VX_FIXED_D.:E05TSI                            WED 07/30/97 08:50 Page:15
--  Include file information  --

   XU_MACRO_C.:E05TOU  is referenced.
   VX_DATA_R.:E05TOU  cannot be made into a system file and is referenced.
   CP_6.:E05TOU  cannot be made into a system file and is referenced.
   VX_MACRO_C.:E05TOU  is referenced.
   VX_PERR_C.:E05TOU  is referenced.
   VX_SUBS_C.:E05TOU  is referenced.
   VX_INC_NO_C.:E05TOU  is referenced.
   VX_SWITCH_C.:E05TOU  is referenced.
   B$OBJECT_C.:E05TOU  is referenced.
   B$JIT_C.:E05TOU  was found in the system file and is never referenced.
   CP_6_C.:E05TOU  was found in the system file and is referenced.
      No diagnostics issued in procedure VX_FIXED_D.

   No code generated for procedure VX_FIXED_D .
   Procedure VX_FIXED_D requires 4 words of local(AUTO) storage.

    No errors detected in file VX_FIXED_D.:E05TSI    .

PL6.E3A0      #001=VX_FIXED_D File=VX_FIXED_D.:E05TSI                            WED 07/30/97 08:50 Page:16

 Object Unit name= VX_FIXED_D                                 File name= VX_FIXED_D.:E05TOU
 UTS= JUL 30 '97 08:50:32.32 WED                              Compiler= PL-6/E31         Sev=      00
 SharedLib= :SHARED_SYSTEM                                    Alt SharedLib=


    ****  Control sections  ****

 Sect   Type Bound  Init  Size OctSiz  Section name(segment info)
    0   DCB   even  none     0      0  M$UC
    1  RoData even  UTS     23     27  VX_FIXED_D
    2   Data  even  none   476    734  VX_FIXED_D
    3   DCB   even  none     0      0  M$OF
    4   DCB   even  none     0      0  M$RF
    5   DCB   even  none     0      0  M$LF
    6   DCB   even  none     0      0  M$SI
    7   DCB   even  none     0      0  M$LO
    8   DCB   even  none     0      0  M$DO
    9   DCB   even  none     0      0  M$EI
   10   Proc  even  none     0      0  VX_FIXED_D

    ****  Entry defs  ****

                              Check   Calling
                             calling  sequence
  Sect OctLoc Primary Altret sequence   type   Parms  Name
    10      0   yes            yes     ~proc       0  VX_FIXED_D
PL6.E3A0      #001=VX_FIXED_D File=VX_FIXED_D.:E05TSI                            WED 07/30/97 08:50 Page:17

  ****  Data defs  ****

 Sect OctLoc  Name                           Sect OctLoc  Name
    1      0  VX_PRE_DCB_NAME$                   1      1  VX_PRE_DCB_START$
    1      2  VX_PRE_DCB_STOP$                   2      0  VX_PRE_DCB_GOT
    1      3  VX_DCB_NAME                        1     13  VX_DCB_ENTRIES
    2      4  VX_P_PCB_MAIN                      2     22  VX_FPT_ERRMSG
    2     54  ERRMSG_FILE                        2     56  ERRMSG_ACCT
    2     60  VX_ERR_RESULTS                     2     64  VX_M_VECTOR
    2     66  VX_M_VECTOR_DP                     2     70  VX_O_KEY_BUF
    2    271  VX_O_KEY_BUF_L                     2    472  VX_R_KEY_BUF
    2    475  VX_OK                              2    546  VX_IMAGE_DATA
    2    562  VX_IMAGE_PROC                      2    576  VX_IMAGE_ROS
    2    612  VX_IMAGE_DS3                       2    626  VX_IMAGE_DS4
    2    642  VX_IMAGE_DS5                       2    656  VX_IMAGE_DS6
    2    672  VX_IMAGE_DS7                       2    706  VX_IMAGE_DS8
    2    722  VX_RU_NAME$                        2    723  VX_IMAGE_PTR$

  ****  Data refs  ****

  Flags:  r = read only, s = secondary
Flgs Name                             Flgs Name                             Flgs Name
     M$UC                                  VX_OU_HEAD                            VX_ERRORS
     VX_ERR_CODE                           VX_EBUF                               VX_EFIELD1
     VX_EFIELD2                            VX_EFIELD3                            M$OF
     M$RF                                  M$LF                                  M$SI
     M$LO                                  M$DO                                  M$EI

  ****  Segment refs  ****

  Flags:  r = read only, s = secondary
Flgs Name                             Flgs Name                             Flgs Name
     ISSID                                 NULLSID
PL6.E3A0      #001=VX_FIXED_D File=VX_FIXED_D.:E05TSI                            WED 07/30/97 08:50 Page:18

        1        1        /*T***********************************************************/
        2        2        /*T*                                                         */
        3        3        /*T* Copyright (c) Bull HN Information Systems Inc., 1997    */
        4        4        /*T*                                                         */
        5        5        /*T***********************************************************/
        6        6        /*X* DMR,PLM=5,IND=5,CSU=3,EXM=0,ECU=3,MOC,DCI=5,CRT=5          */
        7        7        VX_FIXED_D: PROC;
        8        8
        9        9        /* !R!
       10       10        DCL VX_SN_STOP$               PTR ALIGNED SYMREF;
       11       11        DCL VX_SN_SIZEW               UBIN(36) SYMREF;
       12       12        DCL 1 VX_SN SYMREF ALIGNED,
       13       13              2 COUNT UBIN(18) UNAL,
       14       14              2 TEXT CHAR(1) UNAL;
       15       15        DCL VX_SD_STOP$               PTR ALIGNED SYMREF;
       16       16        DCL VX_SD_SIZEW               UBIN(36) ALIGNED SYMREF;
       17       17        DCL 1 VX_SD ALIGNED SYMREF,
       18       18              2 A(0:3) UBIN(18) UNAL,
       19       19              2 I REDEF A,
       20       20                3 SCT UBIN(9) UNAL,
       21       21                3 SC# UBIN(9) UNAL,
       22       22                3 OFFSET UBIN(18) UNAL,
       23       23                3 NAME_DISP UBIN(18) UNAL,
       24       24                3 P UBIN(1) UNAL,
       25       25                3 A UBIN(1) UNAL,
       26       26                3 I UBIN(1) UNAL,
       27       27                3 CST UBIN(4) UNAL,
       28       28                3 NP UBIN(11) UNAL;
       29       29        */
       30       30        /* ! ! */
       31       31        %INCLUDE B$OBJECT_C;
       32     3461        %INCLUDE VX_SWITCH_C;
       33     3469        %INCLUDE VX_INC_NO_C;
       34     5166        %INCLUDE VX_DATA_R;
       35     6785        %INCLUDE XU_MACRO_C;
       36     9891        %EJECT;
PL6.E3A0      #001=VX_FIXED_D File=VX_FIXED_D.:E05TSI                            WED 07/30/97 08:50 Page:19
       37     9892                                                /*
       38     9893                                                                            COUNT =  102
       39     9894                                                */
       40     9895        /* !R! */
       41     9896    1   DCL VX_PRE_DCB_NAME$      PTR       ALIGNED   CONSTANT    SYMDEF  INIT(
       42     9897    1                                                 ADDR( VX_DCB_NAME ) );
       43     9898    1   DCL VX_PRE_DCB_START$     PTR       ALIGNED   CONSTANT    SYMDEF  INIT(
       44     9899    1                                                 ADDR( VX_DCB_ENTRIES ) );
       45     9900    1   DCL VX_PRE_DCB_STOP$      PTR       ALIGNED   CONSTANT    SYMDEF  INIT(
       46     9901    1                                                 ADDR( VX_DCB_ENTRIES.M$UC ) );
       47     9902    1   DCL VX_PRE_DCB_GOT(0:3)   BIT(1)    ALIGNED   STATIC    SYMDEF    INIT(@NO_B*0);
       48     9903        /* ! ! */
       49     9904    1   DCL 1 VX_DCB_NAME CONSTANT SYMDEF,
       50     9905              %HTEXT(NAME="M$STAR",STRING="'M$*'",SIZE=3);
       51     9910              %HTEXT(NAME="M$DO",STRING="'M$DO'",SIZE=4);
       52     9915              %HTEXT(NAME="M$LM",STRING="'M$LM'",SIZE=4);
       53     9920              %HTEXT(NAME="M$UC",STRING="'M$UC'",SIZE=4,LAST=";");
       54     9925    1   DCL 1 VX_DCB_ENTRIES CONSTANT SYMDEF,
       55     9926              %MAK_DEF(
       56     9927                        NAME=M$STAR,
       57     9928                                       INIT1="0",
       58     9929                                       INIT2=0,
       59     9930                                       INIT3="0",
       60     9931                                       INIT4="0",
       61     9932                                       INIT5="@M$STAR_DCB_NUM",
       62     9933                                       INIT6="0");
       63     9942              %MAK_DEF(
       64     9943                        NAME=M$DO,
       65     9944                                       INIT1="0",
       66     9945                                       INIT2=0,
       67     9946                                       INIT3="2",
       68     9947                                       INIT4="0",
       69     9948                                       INIT5="@M$DO_DCB_NUM",
       70     9949                                       INIT6="0");
       71     9958              %MAK_DEF(
       72     9959                        NAME=M$LM,
       73     9960                                       INIT1="0",
PL6.E3A0      #001=VX_FIXED_D File=VX_FIXED_D.:E05TSI                            WED 07/30/97 08:50 Page:20
       74     9961                                       INIT2=0,
       75     9962                                       INIT3="4",
       76     9963                                       INIT4="0",
       77     9964                                       INIT5="@M$LM_DCB_NUM",
       78     9965                                       INIT6="0");
       79     9974              %MAK_DEF(
       80     9975                        NAME=M$UC,
       81     9976                                       INIT1="0",
       82     9977                                       INIT2=0,
       83     9978                                       INIT3="6",
       84     9979                                       INIT4="0",
       85     9980                                       INIT5="@M$UC_DCB_NUM",
       86     9981                                       INIT6="0",LAST=";");
       87     9990        %EJECT;
PL6.E3A0      #001=VX_FIXED_D File=VX_FIXED_D.:E05TSI                            WED 07/30/97 08:50 Page:21
       88     9991        /*
       89     9992              PARSE STUFF
       90     9993        */
       91     9994        %LIST;
       92     9995        /* !R!
       93     9996        %P$PCB(NAME=VX_P_PCB_MAIN, STCLASS="SYMREF");
       94     9997        */
       95     9998        /* ! ! */
       96     9999        %P_PCB( NAME=VX_P_PCB_MAIN, STCLASS="STATIC SYMDEF");
             10000        /*F*  NAME:     P_PCB
             10001              FUNCTION: Parse Control Block.  This structure is used to pass data
             10002                  to the X$PARSE utility, and to receive X$PARSE's responses.
             10003        */
             10004         %LSET LISTDIR='0'B;
             10017    1   DCL 1 VX_P_PCB_MAIN STATIC SYMDEF ALIGNED,
             10018    1         2 TEXT$ PTR INIT(ADDR(NIL))/**/,
             10022    1         2 ROOT$ PTR INIT(ADDR(NIL))/**/,
             10026    1         2 WORK$ PTR INIT(ADDR(NIL))/**/,
             10030    1         2 OUT$ PTR INIT(ADDR(NIL))/**/,
             10035    1         2 U$$ EPTR INIT(ENTADDR(NIL))/**/,
             10047    1         2 WKSZ UBIN(18) UNAL INIT(0)/**/,
             10052    1         2 CMPRS BIT(1) UNAL INIT('1'B)/**/,
             10058    1         2 CONTINUE BIT(1) UNAL INIT('1'B)/**/,
             10062    1         2 NOLEADBLANKS BIT(1) UNAL INIT('0'B)/**/,
             10067    1         2 NXT BIT(1) UNAL INIT('0'B)/**/,
             10084    1         2 DYNMEM BIT(1) UNAL INIT('0'B)/**/,
             10089    1         2 KEYWORDS BIT (1) INIT ('0'B) /**/,
             10104    1         2 BLANKONLY BIT (1),
             10112    1         2 NXT_SZONLY BIT(1) UNAL INIT('0'B)/**/,
             10120    1         2 * BIT (10) INIT ('0'B) /**/,
             10121    1         2 ERROR ALIGNED,
             10126    1           3 FCG BIT(12) UNAL INIT('0'B)/**/,
             10127    1           3 MID BIT(6) UNAL INIT('0'B)/**/,
             10128    1           3 MON BIT(1) UNAL INIT('0'B)/**/,
             10129    1           3 CODE UBIN(14) UNAL INIT(0)/**/,
             10130    1           3 SEV UBIN(3) UNAL INIT(0)/**/,
             10131    1         2 COMMENT ALIGNED,
PL6.E3A0      #001=VX_FIXED_D File=VX_FIXED_D.:E05TSI                            WED 07/30/97 08:50 Page:22
             10135    1           3 LEAD CHAR(2) UNAL INIT(' "')/**/,
             10143    1           3 TRAIL CHAR(2) UNAL INIT(' "')/**/,
             10150    1         2 WK_USED UBIN(18) UNAL INIT(0)/**/,
             10154    1         2 VERSION_CODE UBIN(4) UNAL INIT(1)/**/,
             10159    1         2 OUTDCB# UBIN(14) UNAL INIT(DCBNUM(NIL))/**/,
             10164    1         2 NCHARS UBIN WORD INIT(0)/**/,
             10168    1         2 HI_CHAR UBIN WORD INIT(0)/**/,
             10175    1         2 HINODE$ PTR INIT(ADDR(NIL))/**/,
             10184    1         2 USER$ PTR INIT(ADDR(NIL))/**/,
             10190    1         2 OUTENT$ EPTR INIT(ENTADDR(NIL))/**/;
       97    10198        %PLIST;
       98    10199        %EJECT;
PL6.E3A0      #001=VX_FIXED_D File=VX_FIXED_D.:E05TSI                            WED 07/30/97 08:50 Page:23
       99    10200        /*
      100    10201                   FPT'S
      101    10202        */
      102    10203    1   DCL M$OF             DCB;
      103    10204    1   DCL M$RF             DCB;
      104    10205    1   DCL M$LF             DCB;
      105    10206    1   DCL M$SI             DCB;
      106    10207    1   DCL M$LO             DCB;
      107    10208    1   DCL M$DO             DCB;
      108    10209    1   DCL M$EI             DCB;
      109    10210        /* !R! */
      110    10211        %FPT_ERRMSG( FPTN=VX_FPT_ERRMSG,
      111    10212        /* ! ! */
      112    10213                   CODE = VX_ERR_CODE,
      113    10214                   BUF = VX_EBUF,
      114    10215                   OUTDCB1 = M$LO,
      115    10216                   FIELD1  = VX_EFIELD1,
      116    10217                   FIELD2  = VX_EFIELD2,
      117    10218                   FIELD3  = VX_EFIELD3,
      118    10219                   RESULTS = VX_ERR_RESULTS,
      119    10220        /*         FILENAME=ERRMSG_FILE,  Set up for testing purposes
      120    10221                   FILEACCT=ERRMSG_ACCT, */
      121    10222        /* !R! */
      122    10223                   STCLASS="STATIC SYMDEF");
      123    10250        /* ! ! */
      124    10251        %VLP_NAME(FPTN=ERRMSG_FILE,NAME=':ERRMSG',STCLASS="STATIC SYMDEF");
      125    10278        %VLP_ACCT(FPTN=ERRMSG_ACCT,ACCT=':SPGN',STCLASS="STATIC SYMDEF");
      126    10291        %VLR_ERRMSG( FPTN=VX_ERR_RESULTS, STCLASS="STATIC SYMDEF");
      127    10313        %LIST;
      128    10314        %EJECT;
PL6.E3A0      #001=VX_FIXED_D File=VX_FIXED_D.:E05TSI                            WED 07/30/97 08:50 Page:24
      129    10315        /* FOR MEMORY MANAGEMENT */
      130    10316        /* !R! */
      131    10317              %VECTOR( NAME=VX_M_VECTOR, STCLASS="STATIC SYMDEF"/* ! ! */,INT_U="INIT(0)",
             10317                  INT_B="INIT('0'B)");
             10318        %LSET LISTDIR='0'B;

             10330    1   /*******************************************************************************
             10331    1   *                                                                              *
             10332    1   *                          TEMPLATE FOR 2-WORD NSA VECTOR                         *
             10333    1   *                                                                              *
             10334    1   *******************************************************************************/

             10339    1   DCL 1 VX_M_VECTOR STATIC SYMDEF ALIGNED,
             10340    1         2 VSIZE UBIN(20) UNAL INIT(0),      /* Size field of vector               */
             10341    1         2 FLAGS BIT(9) UNAL INIT('0'B),       /* FLAGS...                          */
             10342    1         2 V BIT(2) UNAL INIT('0'B),           /* Vector type field                 */
             10343    1         2 Z5 BIT(5) UNAL INIT('0'B),          /* Unused                            */
             10344    1         2 F,
             10345    1           3 BASE UBIN(20) UNAL INIT(0),     /* Base for vector                    */
             10346    1           3 Z4 BIT(4) UNAL INIT('0'B),        /* Unused                            */
             10347    1           3 SEGID UBIN(12) UNAL INIT(0),    /* Segid                              */
             10348    1         2 P       REDEF     F,            /* To extract the pointer             */
             10349    1           3 POINTER          PTR UNAL;
      132    10352        /* !R!); */
      133    10353        %PLIST;
      134    10354             %VECTOR( NAME=VX_M_VECTOR_DP, STCLASS="STATIC SYMDEF"/* ! ! */,INT_U="INIT(0)"
             10354                  ,INT_B="INIT('0'B)");

             10367    1   /*******************************************************************************
             10368    1   *                                                                              *
             10369    1   *                          TEMPLATE FOR 2-WORD NSA VECTOR                         *
             10370    1   *                                                                              *
             10371    1   *******************************************************************************/

             10376    1   DCL 1 VX_M_VECTOR_DP STATIC SYMDEF ALIGNED,
             10377    1         2 VSIZE UBIN(20) UNAL INIT(0),      /* Size field of vector               */
             10378    1         2 FLAGS BIT(9) UNAL INIT('0'B),       /* FLAGS...                          */
PL6.E3A0      #001=VX_FIXED_D File=VX_FIXED_D.:E05TSI                            WED 07/30/97 08:50 Page:25
             10379    1         2 V BIT(2) UNAL INIT('0'B),           /* Vector type field                 */
             10380    1         2 Z5 BIT(5) UNAL INIT('0'B),          /* Unused                            */
             10381    1         2 F,
             10382    1           3 BASE UBIN(20) UNAL INIT(0),     /* Base for vector                    */
             10383    1           3 Z4 BIT(4) UNAL INIT('0'B),        /* Unused                            */
             10384    1           3 SEGID UBIN(12) UNAL INIT(0),    /* Segid                              */
             10385    1         2 P       REDEF     F,            /* To extract the pointer             */
             10386    1           3 POINTER          PTR UNAL;
      135    10389        /* !R!); */
      136    10390        /* ! ! */
      137    10391        %EJECT;
PL6.E3A0      #001=VX_FIXED_D File=VX_FIXED_D.:E05TSI                            WED 07/30/97 08:50 Page:26
      138    10392        /*
      139    10393              KEY BUFFERS
      140    10394        */
      141    10395        %LIST;
      142    10396        %SET LISTSUB='1'B;
      143    10397        /* !R! */
      144    10398        %O_KEY_BUF(KEYBUF=VX_O_KEY_BUF, STCLASS="STATIC SYMDEF"/* ! ! */, INT="INIT(0)");
             10399    1   DCL 1 VX_O_KEY_BUF ALIGNED STATIC SYMDEF,
             10400    1          2 FORM0 ,
             10401    1           3 COUNT       UBIN( 9)  UNAL INIT(0),
             10402    1           3 CHARS       CHAR(512) UNAL,
             10403    1         2 FORM1        REDEF     FORM0,
             10404    1           3 COUNT       UBIN( 9)  UNAL,
             10405    1           3 O777        UBIN( 9)  UNAL,   /* <- '777'O                          */
             10406    1           3 UTS         UBIN(36)  UNAL,
             10407    1           3 REC_TYPE    UBIN( 9)  UNAL,
             10408    1           3 PAGE#       UBIN( 9)  UNAL,
             10409    1           3 *           CHAR(505) UNAL,
             10410    1         2 FORM2        REDEF     FORM0,
             10411    1           3 COUNT       UBIN( 9)  UNAL,
             10412    1           3 O777        UBIN( 9)  UNAL,   /* <- '777'O                          */
             10413    1           3 UTS         UBIN(36)  UNAL,
             10414    1           3 D10         UBIN( 9)  UNAL,   /* <- 10                              */
             10415    1           3 SECT#       UBIN(18)  UNAL,
             10416    1           3 OFFSET      UBIN(18)  UNAL,
             10417    1           3 STYPE       UBIN( 9)  UNAL,
             10418    1           3 SEQUENCE    UBIN( 9)  UNAL,
             10419    1           3 *           CHAR(500) UNAL ;
      145    10421        /* !R!); */
      146    10422        %PLIST;
      147    10423        %O_KEY_BUF(KEYBUF=VX_O_KEY_BUF_L, STCLASS="STATIC SYMDEF"/* ! ! */, INT="INIT(0)");
      148    10446        /* !R!); */
      149    10447        %LIST;
      150    10448        %R_KEY_BUF(KEYBUF=VX_R_KEY_BUF, STCLASS="STATIC SYMDEF"/* ! ! */, INT="INIT(0)");
             10449    1   DCL 1 VX_R_KEY_BUF                        STATIC SYMDEF,
             10450    1         2 FORM0                  ALIGNED,
             10451    1           3 COUNT       UBIN( 9)  UNAL INIT(0),
PL6.E3A0      #001=VX_FIXED_D File=VX_FIXED_D.:E05TSI                            WED 07/30/97 08:50 Page:27
             10452    1           3 CHARS       CHAR( 5)  UNAL,
             10453    1           3 *           CHAR( 6)  UNAL,
             10454    1         2 FORM1        REDEF     FORM0,
             10455    1           3 COUNT       UBIN( 9)  UNAL,
             10456    1           3 REC_TYPE    UBIN( 9)  UNAL,
             10457    1           3 NODE#       UBIN(18)  UNAL,
             10458    1           3 OFFSET      UBIN(18)  UNAL,
             10459    1           3 *           CHAR( 6)  UNAL,
             10460    1         2 FORM2        REDEF     FORM0,
             10461    1           3 COUNT       UBIN( 9)  UNAL,
             10462    1           3 O777        UBIN( 9)  UNAL,   /* <- '777'O                          */
             10463    1           3 NODE#       UBIN(18)  UNAL,
             10464    1           3 P_ENTDEF    UBIN(18)  UNAL,
             10465    1           3 REC_TYPE    UBIN( 9)  UNAL,
             10466    1           3 PAGE#       UBIN( 9)  UNAL,
             10467    1           3 *           CHAR( 4)  UNAL;
      151    10469        /* !R!); */
      152    10470        %KEY_VARS(KEYVARS=VX_OK, STCLASS="STATIC SYMDEF"/* ! ! */, INT="INIT(0)", INT1=
             10470            "INIT(-1)",
      153    10471              INT_C="INIT(' ')");
             10472    1   DCL 1 VX_OK                  STATIC SYMDEF,
             10473    1         2 KFILE                  UBIN(36) ALIGNED INIT(0),
             10474    1         2 KTYPE                  SBIN WORD ALIGNED INIT(-1),
             10475    1         2 KRTYPE                 UBIN(36) ALIGNED INIT(0),
             10476    1         2 KPAGE#                 SBIN WORD ALIGNED INIT(-1),
             10477    1         2 KOFSET                 UBIN(36) ALIGNED INIT(0),
             10478    1         2 KSTYPE                 UBIN(36) ALIGNED INIT(0),
             10479    1         2 KSEQUENCE              SBIN WORD ALIGNED INIT(-1),
             10480    1         2 KSECT#                 UBIN(36) ALIGNED INIT(0),
             10481    1         2 KNODE#                 UBIN(36) ALIGNED INIT(0),
             10482    1         2 KPEDX                  UBIN(36) ALIGNED INIT(0),
             10483    1         2 KATYPE                 SBIN WORD ALIGNED INIT(-1),
             10484    1         2 OUNAME,
             10485    1           3 COUNT                 UBIN( 9) UNAL INIT(0),
             10486    1            3 CHARS             CHAR(31) UNAL INIT(' '),
             10487    1         2 FILE                   ALIGNED,
             10488    1           3 OFNAME                ALIGNED,
PL6.E3A0      #001=VX_FIXED_D File=VX_FIXED_D.:E05TSI                            WED 07/30/97 08:50 Page:28
             10489    1             4 COUNT                UBIN(9)   UNAL INIT(0),
             10490    1             4 CHARS                CHAR(40)  UNAL INIT(' '),
             10491    1           3 RFNAME                ALIGNED,
             10492    1             4 COUNT                UBIN(9)   UNAL INIT(0),
             10493    1             4 CHARS                CHAR(40)  UNAL INIT(' ');
      154    10495        /* !R!); */
      155    10496        %EJECT;
PL6.E3A0      #001=VX_FIXED_D File=VX_FIXED_D.:E05TSI                            WED 07/30/97 08:50 Page:29
      156    10497        /*
      157    10498              IMAGE FORMATION VARIABLES
      158    10499        */
      159    10500        %LIST;
      160    10501        %IMAGE_BUFFERS(
      161    10502              NAME=VX_IMAGE_DATA,
      162    10503              STCLASS="STATIC SYMDEF"
      163    10504        /* ! ! */
      164    10505              ,INT_PTR="INIT(ADDR(NIL)*0)",
      165    10506              INT_UBIN="INIT(0*0)",
      166    10507              INT_SBIN="INIT(-1*0)");
             10508    1   DCL 1 VX_IMAGE_DATA           ALIGNED        STATIC SYMDEF,
             10509    1        2 CPAGE#_A(0:1) SBIN WORD ALIGNED INIT(-1*0), /* Current page # in buffer # */
             10510    1         2 CPAGE# REDEF CPAGE#_A,
             10511    1           3 BUF0                  SBIN WORD ALIGNED,
             10512    1           3 BUF1                  SBIN WORD ALIGNED,
             10513    1         2 START_A$(0:1) PTR ALIGNED INIT(ADDR(NIL)*0),
             10513                  /* Pointer to start of buffer #    */
             10514    1         2 START$ REDEF START_A$,
             10515    1           3 BUF0$                 PTR       ALIGNED,
             10516    1           3 BUF1$                 PTR       ALIGNED,
             10517    1         2 STOP_A$(0:1)           PTR       ALIGNED INIT(ADDR(NIL)*0),
             10518    1         2 STOP$  REDEF STOP_A$,           /* Pointer to end of buffer #         */
             10519    1           3 BUF0$                 PTR       ALIGNED,
             10520    1           3 BUF1$                 PTR       ALIGNED,
             10521    1         2 NODE_A$(0:1) PTR ALIGNED INIT(ADDR(NIL)*0),
             10521                  /* Pointer to node  of buffer #     */
             10522    1         2 NODE$  REDEF NODE_A$,
             10523    1           3 BUF0$                 PTR       ALIGNED,
             10524    1           3 BUF1$                 PTR       ALIGNED,
             10525    1         2 BEGIN$                 PTR       ALIGNED,
             10526    1         2 END$                   PTR       ALIGNED,
             10527    1         2 SPAGE#                 UBIN(36)  ALIGNED INIT(0*0),
             10528    1         2 EPAGE#                 UBIN(36)  ALIGNED INIT(0*0);
      167    10530        /* !R!); */
      168    10531        %PLIST;
      169    10532        %IMAGE_BUFFERS(
PL6.E3A0      #001=VX_FIXED_D File=VX_FIXED_D.:E05TSI                            WED 07/30/97 08:50 Page:30
      170    10533              NAME=VX_IMAGE_PROC,
      171    10534              STCLASS="STATIC SYMDEF"
      172    10535        /* ! ! */
      173    10536              ,INT_PTR="INIT(ADDR(NIL)*0)",
      174    10537              INT_UBIN="INIT(0*0)",
      175    10538              INT_SBIN="INIT(-1*0)");
      176    10561        /* !R!); */
      177    10562        %IMAGE_BUFFERS(
      178    10563              NAME=VX_IMAGE_ROS,
      179    10564              STCLASS="STATIC SYMDEF"
      180    10565        /* ! ! */
      181    10566              ,INT_PTR="INIT(ADDR(NIL)*0)",
      182    10567              INT_UBIN="INIT(0*0)",
      183    10568              INT_SBIN="INIT(-1*0)");
      184    10591        /* !R!); */
      185    10592        %IMAGE_BUFFERS(
      186    10593              NAME=VX_IMAGE_DS3,
      187    10594              STCLASS="STATIC SYMDEF"
      188    10595        /* ! ! */
      189    10596              ,INT_PTR="INIT(ADDR(NIL)*0)",
      190    10597              INT_UBIN="INIT(0*0)",
      191    10598              INT_SBIN="INIT(-1*0)");
      192    10621        /* !R!); */
      193    10622        %IMAGE_BUFFERS(
      194    10623              NAME=VX_IMAGE_DS4,
      195    10624              STCLASS="STATIC SYMDEF"
      196    10625        /* ! ! */
      197    10626              ,INT_PTR="INIT(ADDR(NIL)*0)",
      198    10627              INT_UBIN="INIT(0*0)",
      199    10628              INT_SBIN="INIT(-1*0)");
      200    10651        /* !R!); */
      201    10652        %IMAGE_BUFFERS(
      202    10653              NAME=VX_IMAGE_DS5,
      203    10654              STCLASS="STATIC SYMDEF"
      204    10655        /* ! ! */
      205    10656              ,INT_PTR="INIT(ADDR(NIL)*0)",
      206    10657              INT_UBIN="INIT(0*0)",
PL6.E3A0      #001=VX_FIXED_D File=VX_FIXED_D.:E05TSI                            WED 07/30/97 08:50 Page:31
      207    10658              INT_SBIN="INIT(-1*0)");
      208    10681        /* !R!); */
      209    10682        %IMAGE_BUFFERS(
      210    10683              NAME=VX_IMAGE_DS6,
      211    10684              STCLASS="STATIC SYMDEF"
      212    10685        /* ! ! */
      213    10686              ,INT_PTR="INIT(ADDR(NIL)*0)",
      214    10687              INT_UBIN="INIT(0*0)",
      215    10688              INT_SBIN="INIT(-1*0)");
      216    10711        /* !R!); */
      217    10712        %IMAGE_BUFFERS(
      218    10713              NAME=VX_IMAGE_DS7,
      219    10714              STCLASS="STATIC SYMDEF"
      220    10715        /* ! ! */
      221    10716              ,INT_PTR="INIT(ADDR(NIL)*0)",
      222    10717              INT_UBIN="INIT(0*0)",
      223    10718              INT_SBIN="INIT(-1*0)");
      224    10741        /* !R!); */
      225    10742        %IMAGE_BUFFERS(
      226    10743              NAME=VX_IMAGE_DS8,
      227    10744              STCLASS="STATIC SYMDEF"
      228    10745        /* ! ! */
      229    10746              ,INT_PTR="INIT(ADDR(NIL)*0)",
      230    10747              INT_UBIN="INIT(0*0)",
      231    10748              INT_SBIN="INIT(-1*0)" /* !R!); */ );
      232    10771    1   DCL VX_RU_NAME$        PTR  ALIGNED   STATIC    SYMDEF INIT(ADDR(NIL));
      233    10772    1   DCL VX_IMAGE_PTR$(0:8) PTR  ALIGNED   STATIC    SYMDEF
      234    10773    1              INIT( ADDR(VX_IMAGE_DATA), ADDR(VX_IMAGE_PROC), ADDR(VX_IMAGE_ROS),
      235    10774    1                    ADDR(VX_IMAGE_DS3), ADDR(VX_IMAGE_DS4), ADDR(VX_IMAGE_DS5),
      236    10775    1                    ADDR(VX_IMAGE_DS6), ADDR(VX_IMAGE_DS7), ADDR(VX_IMAGE_DS8) );
      237    10776        /* !R!
      238    10777        DCL B$JIT$            PTR ALIGNED SYMREF;
      239    10778        DCL B$TCB$            PTR ALIGNED SYMREF;
      240    10779        DCL B$ROS$            PTR ALIGNED SYMREF;
      241    10780        */
      242    10781    1   END;

PL6.E3A0      #001=VX_FIXED_D File=VX_FIXED_D.:E05TSI                            WED 07/30/97 08:50 Page:32
--  Include file information  --

   XU_MACRO_C.:E05TOU  is referenced.
   VX_DATA_R.:E05TOU  cannot be made into a system file and is referenced.
   CP_6.:E05TOU  cannot be made into a system file and is referenced.
   VX_MACRO_C.:E05TOU  is referenced.
   VX_PERR_C.:E05TOU  is referenced.
   VX_SUBS_C.:E05TOU  is referenced.
   VX_INC_NO_C.:E05TOU  is referenced.
   VX_SWITCH_C.:E05TOU  is referenced.
   B$OBJECT_C.:E05TOU  is referenced.
   B$JIT_C.:E05TOU  was found in the system file and is never referenced.
   CP_6_C.:E05TOU  was found in the system file and is referenced.
      No diagnostics issued in procedure VX_FIXED_D.
PL6.E3A0      #001=VX_FIXED_D File=VX_FIXED_D.:E05TSI                            WED 07/30/97 08:50 Page:33

 **** Variables and constants ****

  ****  Section 001 RoData VX_FIXED_D

  ****  Scalars and arrays  ****
OctLoc.c.b A Datatyp(siz) R M Lvl/name                 OctLoc.c.b A Datatyp(siz) R M Lvl/name

    13-0-0/w STRC(432)   r     1 VX_DCB_ENTRIES             3-0-0/w STRC(288)   r     1 VX_DCB_NAME

  ****  Section 002  Data  VX_FIXED_D

  ****  Scalars and arrays  ****
OctLoc.c.b A Datatyp(siz) R M Lvl/name                 OctLoc.c.b A Datatyp(siz) R M Lvl/name

    60-0-0/d STRC(144)   r     1 VX_ERR_RESULTS            22-0-0/d STRC(936)   r     1 VX_FPT_ERRMSG
   546-0-0/w STRC(432)   r     1 VX_IMAGE_DATA            612-0-0/w STRC(432)   r     1 VX_IMAGE_DS3
   626-0-0/w STRC(432)   r     1 VX_IMAGE_DS4             642-0-0/w STRC(432)   r     1 VX_IMAGE_DS5
   656-0-0/w STRC(432)   r     1 VX_IMAGE_DS6             672-0-0/w STRC(432)   r     1 VX_IMAGE_DS7
   706-0-0/w STRC(432)   r     1 VX_IMAGE_DS8             562-0-0/w STRC(432)   r     1 VX_IMAGE_PROC
   576-0-0/w STRC(432)   r     1 VX_IMAGE_ROS

  ****  SYMREF variables  ****

  ****  Scalars and arrays  ****
OctLoc.c.b A Datatyp(siz) R M Lvl/name                 OctLoc.c.b A Datatyp(siz) R M Lvl/name

     0-0-0/w STRC(1197)  r     1 VX_EBUF                    0-0-0/w STRC(720)   r     1 VX_EFIELD1
     0-0-0/w STRC(720)   r     1 VX_EFIELD2                 0-0-0/w STRC(720)   r     1 VX_EFIELD3
     0-0-0/w STRC        r     1 VX_ERR_CODE

  ****  BASED and DCB variables  ****

  ****  Scalars and arrays  ****
OctLoc.c.b A Datatyp(siz) R M Lvl/name                 OctLoc.c.b A Datatyp(siz) R M Lvl/name

     0-0-0N  NULL        r     1 M$LO

PL6.E3A0      #001=VX_FIXED_D File=VX_FIXED_D.:E05TSI                            WED 07/30/97 08:50 Page:34

   No code generated for procedure VX_FIXED_D .
   Procedure VX_FIXED_D requires 4 words of local(AUTO) storage.

    No errors detected in file VX_FIXED_D.:E05TSI    .
PL6.E3A0      #001=VX_FIXED_D File=VX_FIXED_D.:E05TSI                            WED 07/30/97 08:50 Page:35
          *** CROSS REFERENCE LISTING ***
**     DENOTES     IDENTIFIER DEFINITION
<<                 IDENTIFIER'S VALUE SET
>>                 IDENTIFIER'S VALUE USED
<>                 IDENTIFIER SET AND/OR USED
--                 IDENTIFIER REFERENCED
PL6.E3A0      #001=VX_FIXED_D File=VX_FIXED_D.:E05TSI                            WED 07/30/97 08:50 Page:36
          MINI XREF LISTING

VX_BIAS.A
      5829**DCL      5830--REDEF
VX_CBUF.CHARS_A
      5763**DCL      5764--REDEF
VX_DCB_ENTRIES
      9925**DCL      9899--DCLINIT
VX_DCB_ENTRIES.M$UC
      9982**DCL      9901--DCLINIT
VX_DCB_NAME
      9904**DCL      9897--DCLINIT
VX_EBUF
      6351**DCL     10235--DCLINIT
VX_EBUF.CHARS_A
      6352**DCL      6353--REDEF
VX_EFIELD1
      6359**DCL     10236--DCLINIT
VX_EFIELD1.CHARS
      6361**DCL      6362--REDEF
VX_EFIELD2
      6363**DCL     10237--DCLINIT
VX_EFIELD2.CHARS
      6365**DCL      6366--REDEF
VX_EFIELD3
      6367**DCL     10237--DCLINIT
VX_EFIELD3.CHARS
      6369**DCL      6370--REDEF
VX_EI_KEY_BUF.KEY
      6745**DCL      6746--REDEF
VX_ERRORS
      5806**DCL      5817--REDEF
VX_ERRORS.CONFLICT_A
      5812**DCL      5813--REDEF
PL6.E3A0      #001=VX_FIXED_D File=VX_FIXED_D.:E05TSI                            WED 07/30/97 08:50 Page:37
VX_ERRORS.UNSAT_A
      5808**DCL      5809--REDEF
VX_ERR_CODE
      6341**DCL     10234--DCLINIT
VX_ERR_RESULTS
     10302**DCL     10238--DCLINIT
VX_FPT_ERRMSG.V
     10238**DCL     10234--DCLINIT
VX_IMAGE_DATA
     10508**DCL     10773--DCLINIT
VX_IMAGE_DATA.CPAGE#_A
     10509**DCL     10510--REDEF
VX_IMAGE_DATA.NODE_A$
     10521**DCL     10522--REDEF
VX_IMAGE_DATA.START_A$
     10513**DCL     10514--REDEF
VX_IMAGE_DATA.STOP_A$
     10517**DCL     10518--REDEF
VX_IMAGE_DS3
     10599**DCL     10774--DCLINIT
VX_IMAGE_DS3.CPAGE#_A
     10600**DCL     10601--REDEF
VX_IMAGE_DS3.NODE_A$
     10612**DCL     10613--REDEF
VX_IMAGE_DS3.START_A$
     10604**DCL     10605--REDEF
VX_IMAGE_DS3.STOP_A$
     10608**DCL     10609--REDEF
VX_IMAGE_DS4
     10629**DCL     10774--DCLINIT
VX_IMAGE_DS4.CPAGE#_A
     10630**DCL     10631--REDEF
VX_IMAGE_DS4.NODE_A$
     10642**DCL     10643--REDEF
VX_IMAGE_DS4.START_A$
     10634**DCL     10635--REDEF
PL6.E3A0      #001=VX_FIXED_D File=VX_FIXED_D.:E05TSI                            WED 07/30/97 08:50 Page:38
VX_IMAGE_DS4.STOP_A$
     10638**DCL     10639--REDEF
VX_IMAGE_DS5
     10659**DCL     10774--DCLINIT
VX_IMAGE_DS5.CPAGE#_A
     10660**DCL     10661--REDEF
VX_IMAGE_DS5.NODE_A$
     10672**DCL     10673--REDEF
VX_IMAGE_DS5.START_A$
     10664**DCL     10665--REDEF
VX_IMAGE_DS5.STOP_A$
     10668**DCL     10669--REDEF
VX_IMAGE_DS6
     10689**DCL     10775--DCLINIT
VX_IMAGE_DS6.CPAGE#_A
     10690**DCL     10691--REDEF
VX_IMAGE_DS6.NODE_A$
     10702**DCL     10703--REDEF
VX_IMAGE_DS6.START_A$
     10694**DCL     10695--REDEF
VX_IMAGE_DS6.STOP_A$
     10698**DCL     10699--REDEF
VX_IMAGE_DS7
     10719**DCL     10775--DCLINIT
VX_IMAGE_DS7.CPAGE#_A
     10720**DCL     10721--REDEF
VX_IMAGE_DS7.NODE_A$
     10732**DCL     10733--REDEF
VX_IMAGE_DS7.START_A$
     10724**DCL     10725--REDEF
VX_IMAGE_DS7.STOP_A$
     10728**DCL     10729--REDEF
VX_IMAGE_DS8
     10749**DCL     10775--DCLINIT
VX_IMAGE_DS8.CPAGE#_A
     10750**DCL     10751--REDEF
PL6.E3A0      #001=VX_FIXED_D File=VX_FIXED_D.:E05TSI                            WED 07/30/97 08:50 Page:39
VX_IMAGE_DS8.NODE_A$
     10762**DCL     10763--REDEF
VX_IMAGE_DS8.START_A$
     10754**DCL     10755--REDEF
VX_IMAGE_DS8.STOP_A$
     10758**DCL     10759--REDEF
VX_IMAGE_PROC
     10539**DCL     10773--DCLINIT
VX_IMAGE_PROC.CPAGE#_A
     10540**DCL     10541--REDEF
VX_IMAGE_PROC.NODE_A$
     10552**DCL     10553--REDEF
VX_IMAGE_PROC.START_A$
     10544**DCL     10545--REDEF
VX_IMAGE_PROC.STOP_A$
     10548**DCL     10549--REDEF
VX_IMAGE_ROS
     10569**DCL     10773--DCLINIT
VX_IMAGE_ROS.CPAGE#_A
     10570**DCL     10571--REDEF
VX_IMAGE_ROS.NODE_A$
     10582**DCL     10583--REDEF
VX_IMAGE_ROS.START_A$
     10574**DCL     10575--REDEF
VX_IMAGE_ROS.STOP_A$
     10578**DCL     10579--REDEF
VX_M_VECTOR.F
     10344**DCL     10348--REDEF
VX_M_VECTOR_DP.F
     10381**DCL     10385--REDEF
VX_O.ACCTN_A$
      5958**DCL      5959--REDEF
VX_O.DCB_MATCH_A$
      5967**DCL      5968--REDEF
VX_O.DCB_MATCH_HIT_A
      5973**DCL      5974--REDEF
PL6.E3A0      #001=VX_FIXED_D File=VX_FIXED_D.:E05TSI                            WED 07/30/97 08:50 Page:40
VX_O.FIDN_A$
      5952**DCL      5953--REDEF
VX_O.FID_A$
      5944**DCL      5945--REDEF
VX_O.INCLUDE_A$
      5964**DCL      5965--REDEF
VX_O.MAP_A
      5938**DCL      5939--REDEF
VX_O.NODCB_A
      5995**DCL      5996--REDEF
VX_O.NUM_A
      5883**DCL      5885--REDEF
VX_O.OPT_A
      5983**DCL      5984--REDEF
VX_O.PRIV_A
      5899**DCL      5901--REDEF
VX_O.SIN_A
      5852**DCL      5853--REDEF
VX_O.TCB_A
      5979**DCL      5980--REDEF
VX_OD.ACCTN_A$
      6156**DCL      6157--REDEF
VX_OD.DCB_MATCH_A$
      6165**DCL      6166--REDEF
VX_OD.FIDN_A$
      6150**DCL      6151--REDEF
VX_OD.FID_A$
      6142**DCL      6143--REDEF
VX_OD.INCLUDE_A$
      6162**DCL      6163--REDEF
VX_OD.MAP_A
      6136**DCL      6137--REDEF
VX_OD.NODCB_A
      6180**DCL      6181--REDEF
VX_OD.NUM_A
      6083**DCL      6084--REDEF
PL6.E3A0      #001=VX_FIXED_D File=VX_FIXED_D.:E05TSI                            WED 07/30/97 08:50 Page:41
VX_OD.PRIV_A
      6098**DCL      6099--REDEF
VX_OD.SIN_A
      6052**DCL      6053--REDEF
VX_OD.VECTOR_A$
      6171**DCL      6172--REDEF
VX_OL.MAX_A
      6027**DCL      6029--REDEF
VX_OL.MIN_A
      6012**DCL      6013--REDEF
VX_ON.ACCTN_A$
      6301**DCL      6303--REDEF
VX_ON.DCB_MATCH_A$
      6312**DCL      6314--REDEF
VX_ON.FIDN_A$
      6294**DCL      6296--REDEF
VX_ON.FID_A$
      6285**DCL      6287--REDEF
VX_ON.INCLUDE_A$
      6308**DCL      6310--REDEF
VX_ON.MAP_A
      6278**DCL      6280--REDEF
VX_ON.NODCB_A$
      6328**DCL      6329--REDEF
VX_ON.NUM_A
      6223**DCL      6225--REDEF
VX_ON.PRIV_A
      6239**DCL      6241--REDEF
VX_ON.SIN_A
      6191**DCL      6193--REDEF
VX_ON.VECTOR_A$
      6319**DCL      6320--REDEF
VX_OUHEAD.VERSION
      5638**DCL      5640--REDEF
VX_OU_HEAD
      5581**DCL      5620--REDEF
PL6.E3A0      #001=VX_FIXED_D File=VX_FIXED_D.:E05TSI                            WED 07/30/97 08:50 Page:42
VX_OU_HEAD.REC_A
      5593**DCL      5596--REDEF
VX_O_KEY_BUF.FORM0
     10400**DCL     10403--REDEF   10410--REDEF
VX_O_KEY_BUF_L.FORM0
     10425**DCL     10428--REDEF   10435--REDEF
VX_PASS2_REF.OU.L_START
      6531**DCL      6536--REDEF
VX_PASS2_REF.OU.L_STOP
      6537**DCL      6542--REDEF
VX_PASS2_REF.OU.MAX
      6525**DCL      6530--REDEF
VX_PASS2_REF.OU.SIZE
      6543**DCL      6548--REDEF
VX_PASS2_REF.SAT.COUNT
      6570**DCL      6576--REDEF
VX_PASS2_REF.SAT.ENT_SIZE
      6577**DCL      6583--REDEF
VX_PASS2_REF.SAT.L_START
      6556**DCL      6562--REDEF
VX_PASS2_REF.SAT.L_STOP
      6563**DCL      6569--REDEF
VX_PASS2_REF.SAT.MAX
      6550**DCL      6555--REDEF
VX_PASS2_REF.UNSAT.L_START
      6618**DCL      6623--REDEF
VX_PASS2_REF.UNSAT.L_STOP
      6624**DCL      6629--REDEF
VX_PASS2_REF.UNSAT.L_WHERE
      6630**DCL      6635--REDEF
VX_PASS2_REF.UNSAT.MAX
      6612**DCL      6617--REDEF
VX_PASS2_REF.UNSAT.PAGE#
      6642**DCL      6647--REDEF
VX_PASS2_REF.UNSAT.SIZE
      6636**DCL      6641--REDEF
PL6.E3A0      #001=VX_FIXED_D File=VX_FIXED_D.:E05TSI                            WED 07/30/97 08:50 Page:43
VX_PHRASE.PHRASE
      6044**DCL      6046--REDEF
VX_PROGRAM_BIAS.A
      5822**DCL      5823--REDEF
VX_R_KEY_BUF.FORM0
     10450**DCL     10454--REDEF   10460--REDEF
VX_SPC.B$.MINE
      6713**DCL      6719--REDEF
VX_SPC.B$.NAME
      6692**DCL      6698--REDEF
VX_SPC.B$.SKIP
      6706**DCL      6712--REDEF
VX_SPC.B$.VALUE
      6699**DCL      6705--REDEF
VX_SPC.SEG.NAME
      6661**DCL      6667--REDEF
VX_SPC.SEG.VALUE
      6668**DCL      6674--REDEF
VX_TSX0_OVERLAY.H
      6436**DCL      6439--REDEF
