VERSION E05

PL6.E3A0      #001=VX_SD_D File=VX_SD_D.:E05TSI                                  WED 07/30/97 08:50 Page:1
        1        1        /*M* VX_SD_D - defines segdefs for all segments known by the linker */
        2        2        /*T***********************************************************/
        3        3        /*T*                                                         */
        4        4        /*T* Copyright (c) Bull HN Information Systems Inc., 1997    */
        5        5        /*T*                                                         */
        6        6        /*T***********************************************************/
        7        7
        8        8        VX_SD_D:   PROC;
        9        9
       10       10
       11       11    1   DCL 1 VX_SN ALIGNED CONSTANT SYMDEF,
       12       12    1         2 AARDV2SID,                                          /* 0 */
       13       13    1           3 * UBIN HALF UNAL INIT(9),
       14       14    1           3 * CHAR(10) INIT('AARDV2SID'),
       15       15    1         2 ASLENTSID,                                          /* 3 */
       16       16    1           3 * UBIN HALF UNAL INIT(9),
       17       17    1           3 * CHAR(10) INIT('ASLENTSID'),
       18       18    1         2 ASLLSSID,                                           /* 6 */
       19       19    1           3 * UBIN HALF UNAL INIT(8),
       20       20    1           3 * CHAR(10) INIT('ASLLSSID'),
       21       21    1         2 ASRSID,                                             /* 9 */
       22       22    1           3 * UBIN HALF UNAL INIT(6),
       23       23    1           3 * CHAR(6) INIT('ASRSID'),
       24       24    1         2 ASSID,                                              /* 11 */
       25       25    1           3 * UBIN HALF UNAL INIT(5),
       26       26    1           3 * CHAR(6) INIT('ASSID'),
       27       27    1         2 AUTOSID,                                            /* 13 */
       28       28    1           3 * UBIN HALF UNAL INIT(7),
       29       29    1           3 * CHAR(10) INIT('AUTOSID'),
       30       30    1         2 BUFCACHESID,                                        /* 16 */
       31       31    1           3 * UBIN HALF UNAL INIT(11),
       32       32    1           3 * CHAR(14) INIT('BUFCACHESID'),
       33       33    1         2 BUFSID,                                             /* 20 */
       34       34    1           3 * UBIN HALF UNAL INIT(6),
       35       35    1           3 * CHAR(6) INIT('BUFSID'),
       36       36    1         2 CDTFSID,                                            /* 22 */
       37       37    1           3 * UBIN HALF UNAL INIT(7),
PL6.E3A0      #001=VX_SD_D File=VX_SD_D.:E05TSI                                  WED 07/30/97 08:50 Page:2
       38       38    1           3 * CHAR(10) INIT('CDTFSID'),
       39       39    1         2 CGCTXTSID,                                          /* 25 */
       40       40    1           3 * UBIN HALF UNAL INIT(9),
       41       41    1           3 * CHAR(10) INIT('CGCTXTSID'),
       42       42    1         2 CGPTSID,                                            /* 28 */
       43       43    1           3 * UBIN HALF UNAL INIT(7),
       44       44    1           3 * CHAR(10) INIT('CGPTSID'),
       45       45    1         2 COMMONSID,                                          /* 31 */
       46       46    1           3 * UBIN HALF UNAL INIT(9),
       47       47    1           3 * CHAR(10) INIT('COMMONSID'),
       48       48    1         2 CPGT10SID,                                          /* 34 */
       49       49    1           3 * UBIN HALF UNAL INIT(9),
       50       50    1           3 * CHAR(10) INIT('CPGT10SID'),
       51       51    1         2 CPGT11SID,                                          /* 37 */
       52       52    1           3 * UBIN HALF UNAL INIT(9),
       53       53    1           3 * CHAR(10) INIT('CPGT11SID'),
       54       54    1         2 CPGT12SID,                                          /* 40 */
       55       55    1           3 * UBIN HALF UNAL INIT(9),
       56       56    1           3 * CHAR(10) INIT('CPGT12SID'),
       57       57    1         2 CPGT13SID,                                          /* 43 */
       58       58    1           3 * UBIN HALF UNAL INIT(9),
       59       59    1           3 * CHAR(10) INIT('CPGT13SID'),
       60       60    1         2 CPGT14SID,                                          /* 46 */
       61       61    1           3 * UBIN HALF UNAL INIT(9),
       62       62    1           3 * CHAR(10) INIT('CPGT14SID'),
       63       63    1         2 CPGT15SID,                                          /* 49 */
       64       64    1           3 * UBIN HALF UNAL INIT(9),
       65       65    1           3 * CHAR(10) INIT('CPGT15SID'),
       66       66    1         2 CPGT16SID,                                          /* 52 */
       67       67    1           3 * UBIN HALF UNAL INIT(9),
       68       68    1           3 * CHAR(10) INIT('CPGT16SID'),
       69       69    1         2 CPGT1SID,                                           /* 55 */
       70       70    1           3 * UBIN HALF UNAL INIT(8),
       71       71    1           3 * CHAR(10) INIT('CPGT1SID'),
       72       72    1         2 CPGT2SID,                                           /* 58 */
       73       73    1           3 * UBIN HALF UNAL INIT(8),
       74       74    1           3 * CHAR(10) INIT('CPGT2SID'),
PL6.E3A0      #001=VX_SD_D File=VX_SD_D.:E05TSI                                  WED 07/30/97 08:50 Page:3
       75       75    1         2 CPGT3SID,                                           /* 61 */
       76       76    1           3 * UBIN HALF UNAL INIT(8),
       77       77    1           3 * CHAR(10) INIT('CPGT3SID'),
       78       78    1         2 CPGT4SID,                                           /* 64 */
       79       79    1           3 * UBIN HALF UNAL INIT(8),
       80       80    1           3 * CHAR(10) INIT('CPGT4SID'),
       81       81    1         2 CPGT5SID,                                           /* 67 */
       82       82    1           3 * UBIN HALF UNAL INIT(8),
       83       83    1           3 * CHAR(10) INIT('CPGT5SID'),
       84       84    1         2 CPGT6SID,                                           /* 70 */
       85       85    1           3 * UBIN HALF UNAL INIT(8),
       86       86    1           3 * CHAR(10) INIT('CPGT6SID'),
       87       87    1         2 CPGT7SID,                                           /* 73 */
       88       88    1           3 * UBIN HALF UNAL INIT(8),
       89       89    1           3 * CHAR(10) INIT('CPGT7SID'),
       90       90    1         2 CPGT8SID,                                           /* 76 */
       91       91    1           3 * UBIN HALF UNAL INIT(8),
       92       92    1           3 * CHAR(10) INIT('CPGT8SID'),
       93       93    1         2 CPGT9SID,                                           /* 79 */
       94       94    1           3 * UBIN HALF UNAL INIT(8),
       95       95    1           3 * CHAR(10) INIT('CPGT9SID'),
       96       96    1         2 CPLSSID,                                            /* 82 */
       97       97    1           3 * UBIN HALF UNAL INIT(7),
       98       98    1           3 * CHAR(10) INIT('CPLSSID'),
       99       99    1         2 CWSQ10SID,                                          /* 85 */
      100      100    1           3 * UBIN HALF UNAL INIT(9),
      101      101    1           3 * CHAR(10) INIT('CWSQ10SID'),
      102      102    1         2 CWSQ11SID,                                          /* 88 */
      103      103    1           3 * UBIN HALF UNAL INIT(9),
      104      104    1           3 * CHAR(10) INIT('CWSQ11SID'),
      105      105    1         2 CWSQ12SID,                                          /* 91 */
      106      106    1           3 * UBIN HALF UNAL INIT(9),
      107      107    1           3 * CHAR(10) INIT('CWSQ12SID'),
      108      108    1         2 CWSQ13SID,                                          /* 94 */
      109      109    1           3 * UBIN HALF UNAL INIT(9),
      110      110    1           3 * CHAR(10) INIT('CWSQ13SID'),
      111      111    1         2 CWSQ14SID,                                          /* 97 */
PL6.E3A0      #001=VX_SD_D File=VX_SD_D.:E05TSI                                  WED 07/30/97 08:50 Page:4
      112      112    1           3 * UBIN HALF UNAL INIT(9),
      113      113    1           3 * CHAR(10) INIT('CWSQ14SID'),
      114      114    1         2 CWSQ15SID,                                          /* 100 */
      115      115    1           3 * UBIN HALF UNAL INIT(9),
      116      116    1           3 * CHAR(10) INIT('CWSQ15SID'),
      117      117    1         2 CWSQ16SID,                                          /* 103 */
      118      118    1           3 * UBIN HALF UNAL INIT(9),
      119      119    1           3 * CHAR(10) INIT('CWSQ16SID'),
      120      120    1         2 CWSQ1SID,                                           /* 106 */
      121      121    1           3 * UBIN HALF UNAL INIT(8),
      122      122    1           3 * CHAR(10) INIT('CWSQ1SID'),
      123      123    1         2 CWSQ2SID,                                           /* 109 */
      124      124    1           3 * UBIN HALF UNAL INIT(8),
      125      125    1           3 * CHAR(10) INIT('CWSQ2SID'),
      126      126    1         2 CWSQ3SID,                                           /* 112 */
      127      127    1           3 * UBIN HALF UNAL INIT(8),
      128      128    1           3 * CHAR(10) INIT('CWSQ3SID'),
      129      129    1         2 CWSQ4SID,                                           /* 115 */
      130      130    1           3 * UBIN HALF UNAL INIT(8),
      131      131    1           3 * CHAR(10) INIT('CWSQ4SID'),
      132      132    1         2 CWSQ5SID,                                           /* 118 */
      133      133    1           3 * UBIN HALF UNAL INIT(8),
      134      134    1           3 * CHAR(10) INIT('CWSQ5SID'),
      135      135    1         2 CWSQ6SID,                                           /* 121 */
      136      136    1           3 * UBIN HALF UNAL INIT(8),
      137      137    1           3 * CHAR(10) INIT('CWSQ6SID'),
      138      138    1         2 CWSQ7SID,                                           /* 124 */
      139      139    1           3 * UBIN HALF UNAL INIT(8),
      140      140    1           3 * CHAR(10) INIT('CWSQ7SID'),
      141      141    1         2 CWSQ8SID,                                           /* 127 */
      142      142    1           3 * UBIN HALF UNAL INIT(8),
      143      143    1           3 * CHAR(10) INIT('CWSQ8SID'),
      144      144    1         2 CWSQ9SID,                                           /* 130 */
      145      145    1           3 * UBIN HALF UNAL INIT(8),
      146      146    1           3 * CHAR(10) INIT('CWSQ9SID'),
      147      147    1         2 DBLSSID,                                            /* 133 */
      148      148    1           3 * UBIN HALF UNAL INIT(7),
PL6.E3A0      #001=VX_SD_D File=VX_SD_D.:E05TSI                                  WED 07/30/97 08:50 Page:5
      149      149    1           3 * CHAR(10) INIT('DBLSSID'),
      150      150    1         2 DR0SID,                                             /* 136 */
      151      151    1           3 * UBIN HALF UNAL INIT(6),
      152      152    1           3 * CHAR(6) INIT('DR0SID'),
      153      153    1         2 DR1SID,                                             /* 138 */
      154      154    1           3 * UBIN HALF UNAL INIT(6),
      155      155    1           3 * CHAR(6) INIT('DR1SID'),
      156      156    1         2 DR2SID,                                             /* 140 */
      157      157    1           3 * UBIN HALF UNAL INIT(6),
      158      158    1           3 * CHAR(6) INIT('DR2SID'),
      159      159    1         2 DR3SID,                                             /* 142 */
      160      160    1           3 * UBIN HALF UNAL INIT(6),
      161      161    1           3 * CHAR(6) INIT('DR3SID'),
      162      162    1         2 DR4SID,                                             /* 144 */
      163      163    1           3 * UBIN HALF UNAL INIT(6),
      164      164    1           3 * CHAR(6) INIT('DR4SID'),
      165      165    1         2 DR5SID,                                             /* 146 */
      166      166    1           3 * UBIN HALF UNAL INIT(6),
      167      167    1           3 * CHAR(6) INIT('DR5SID'),
      168      168    1         2 DR6SID,                                             /* 148 */
      169      169    1           3 * UBIN HALF UNAL INIT(6),
      170      170    1           3 * CHAR(6) INIT('DR6SID'),
      171      171    1         2 DR7SID,                                             /* 150 */
      172      172    1           3 * UBIN HALF UNAL INIT(6),
      173      173    1           3 * CHAR(6) INIT('DR7SID'),
      174      174    1         2 AS0SID,                                             /* 152 */
      175      175    1           3 * UBIN HALF UNAL INIT(6),
      176      176    1           3 * CHAR(6) INIT('AS0SID'),
      177      177    1         2 DS1SID,                                             /* 154 */
      178      178    1           3 * UBIN HALF UNAL INIT(6),
      179      179    1           3 * CHAR(6) INIT('DS1SID'),
      180      180    1         2 DS2SID,                                             /* 156 */
      181      181    1           3 * UBIN HALF UNAL INIT(6),
      182      182    1           3 * CHAR(6) INIT('DS2SID'),
      183      183    1         2 DS3SID,                                             /* 158 */
      184      184    1           3 * UBIN HALF UNAL INIT(6),
      185      185    1           3 * CHAR(6) INIT('DS3SID'),
PL6.E3A0      #001=VX_SD_D File=VX_SD_D.:E05TSI                                  WED 07/30/97 08:50 Page:6
      186      186    1         2 DS4SID,                                             /* 160 */
      187      187    1           3 * UBIN HALF UNAL INIT(6),
      188      188    1           3 * CHAR(6) INIT('DS4SID'),
      189      189    1         2 DS5SID,                                             /* 162 */
      190      190    1           3 * UBIN HALF UNAL INIT(6),
      191      191    1           3 * CHAR(6) INIT('DS5SID'),
      192      192    1         2 DS6SID,                                             /* 164 */
      193      193    1           3 * UBIN HALF UNAL INIT(6),
      194      194    1           3 * CHAR(6) INIT('DS6SID'),
      195      195    1         2 DS7SID,                                             /* 166 */
      196      196    1           3 * UBIN HALF UNAL INIT(6),
      197      197    1           3 * CHAR(6) INIT('DS7SID'),
      198      198    1         2 DS8SID,                                             /* 168 */
      199      199    1           3 * UBIN HALF UNAL INIT(6),
      200      200    1           3 * CHAR(6) INIT('DS8SID'),
      201      201    1         2 DSDRSID,                                            /* 170 */
      202      202    1           3 * UBIN HALF UNAL INIT(7),
      203      203    1           3 * CHAR(10) INIT('DSDRSID'),
      204      204    1         2 ECCBSID,                                            /* 173 */
      205      205    1           3 * UBIN HALF UNAL INIT(7),
      206      206    1           3 * CHAR(10) INIT('ECCBSID'),
      207      207    1         2 FIRMSID,                                            /* 176 */
      208      208    1           3 * UBIN HALF UNAL INIT(7),
      209      209    1           3 * CHAR(10) INIT('FIRMSID'),
      210      210    1         2 IOENDSID,                                           /* 179 */
      211      211    1           3 * UBIN HALF UNAL INIT(8),
      212      212    1           3 * CHAR(10) INIT('IOENDSID'),
      213      213    1         2 IS2SID,                                             /* 182 */
      214      214    1           3 * UBIN HALF UNAL INIT(6),
      215      215    1           3 * CHAR(6) INIT('IS2SID'),
      216      216    1         2 ISBSID,                                             /* 184 */
      217      217    1           3 * UBIN HALF UNAL INIT(6),
      218      218    1           3 * CHAR(6) INIT('ISBSID'),
      219      219    1         2 ISRSID,                                             /* 186 */
      220      220    1           3 * UBIN HALF UNAL INIT(6),
      221      221    1           3 * CHAR(6) INIT('ISRSID'),
      222      222    1         2 ISSID,                                              /* 188 */
PL6.E3A0      #001=VX_SD_D File=VX_SD_D.:E05TSI                                  WED 07/30/97 08:50 Page:7
      223      223    1           3 * UBIN HALF UNAL INIT(5),
      224      224    1           3 * CHAR(6) INIT('ISSID'),
      225      225    1         2 JITPGSID,                                           /* 190 */
      226      226    1           3 * UBIN HALF UNAL INIT(8),
      227      227    1           3 * CHAR(10) INIT('JITPGSID'),
      228      228    1         2 JITSID,                                             /* 193 */
      229      229    1           3 * UBIN HALF UNAL INIT(6),
      230      230    1           3 * CHAR(6) INIT('JITSID'),
      231      231    1         2 LDCTNCSID,                                          /* 195 */
      232      232    1           3 * UBIN HALF UNAL INIT(9),
      233      233    1           3 * CHAR(10) INIT('LDCTNCSID'),
      234      234    1         2 LDCTSID,                                            /* 198 */
      235      235    1           3 * UBIN HALF UNAL INIT(7),
      236      236    1           3 * CHAR(10) INIT('LDCTSID'),
      237      237    1         2 LOWMEMSID,                                          /* 201 */
      238      238    1           3 * UBIN HALF UNAL INIT(9),
      239      239    1           3 * CHAR(10) INIT('LOWMEMSID'),
      240      240    1         2 LSREADSID,                                          /* 204 */
      241      241    1           3 * UBIN HALF UNAL INIT(9),
      242      242    1           3 * CHAR(10) INIT('LSREADSID'),
      243      243    1         2 LSRSID,                                             /* 207 */
      244      244    1           3 * UBIN HALF UNAL INIT(6),
      245      245    1           3 * CHAR(6) INIT('LSRSID'),
      246      246    1         2 LSSID,                                              /* 209 */
      247      247    1           3 * UBIN HALF UNAL INIT(5),
      248      248    1           3 * CHAR(6) INIT('LSSID'),
      249      249    1         2 MAGICASSID,                                         /* 211 */
      250      250    1           3 * UBIN HALF UNAL INIT(10),
      251      251    1           3 * CHAR(10) INIT('MAGICASSID'),
      252      252    1         2 MAGICECCBSID,                                       /* 214 */
      253      253    1           3 * UBIN HALF UNAL INIT(12),
      254      254    1           3 * CHAR(14) INIT('MAGICECCBSID'),
      255      255    1         2 MAGICLSSID,                                         /* 218 */
      256      256    1           3 * UBIN HALF UNAL INIT(10),
      257      257    1           3 * CHAR(10) INIT('MAGICLSSID'),
      258      258    1         2 MAGICPSSID,                                         /* 221 */
      259      259    1           3 * UBIN HALF UNAL INIT(10),
PL6.E3A0      #001=VX_SD_D File=VX_SD_D.:E05TSI                                  WED 07/30/97 08:50 Page:8
      260      260    1           3 * CHAR(10) INIT('MAGICPSSID'),
      261      261    1         2 MAGICSSSID,                                         /* 224 */
      262      262    1           3 * UBIN HALF UNAL INIT(10),
      263      263    1           3 * CHAR(10) INIT('MAGICSSSID'),
      264      264    1         2 MAGICTCBSID,                                        /* 227 */
      265      265    1           3 * UBIN HALF UNAL INIT(11),
      266      266    1           3 * CHAR(14) INIT('MAGICTCBSID'),
      267      267    1         2 MASTERHJITSID,                                      /* 231 */
      268      268    1           3 * UBIN HALF UNAL INIT(13),
      269      269    1           3 * CHAR(14) INIT('MASTERHJITSID'),
      270      270    1         2 MASTERPTSID,                                        /* 235 */
      271      271    1           3 * UBIN HALF UNAL INIT(11),
      272      272    1           3 * CHAR(14) INIT('MASTERPTSID'),
      273      273    1         2 MAXMONSID,                                          /* 239 */
      274      274    1           3 * UBIN HALF UNAL INIT(9),
      275      275    1           3 * CHAR(10) INIT('MAXMONSID'),
      276      276    1         2 MAXUSERSID,                                         /* 242 */
      277      277    1           3 * UBIN HALF UNAL INIT(10),
      278      278    1           3 * CHAR(10) INIT('MAXUSERSID'),
      279      279    1         2 MHJITSID,                                           /* 245 */
      280      280    1           3 * UBIN HALF UNAL INIT(8),
      281      281    1           3 * CHAR(10) INIT('MHJITSID'),
      282      282    1         2 MISC2SID,                                           /* 248 */
      283      283    1           3 * UBIN HALF UNAL INIT(8),
      284      284    1           3 * CHAR(10) INIT('MISC2SID'),
      285      285    1         2 MISCSID,                                            /* 251 */
      286      286    1           3 * UBIN HALF UNAL INIT(7),
      287      287    1           3 * CHAR(10) INIT('MISCSID'),
      288      288    1         2 MJITSID,                                            /* 254 */
      289      289    1           3 * UBIN HALF UNAL INIT(7),
      290      290    1           3 * CHAR(10) INIT('MJITSID'),
      291      291    1         2 MLS1SID,                                            /* 257 */
      292      292    1           3 * UBIN HALF UNAL INIT(7),
      293      293    1           3 * CHAR(10) INIT('MLS1SID'),
      294      294    1         2 MONSSSID,                                           /* 260 */
      295      295    1           3 * UBIN HALF UNAL INIT(8),
      296      296    1           3 * CHAR(10) INIT('MONSSSID'),
PL6.E3A0      #001=VX_SD_D File=VX_SD_D.:E05TSI                                  WED 07/30/97 08:50 Page:9
      297      297    1         2 MOUSESID,                                           /* 263 */
      298      298    1           3 * UBIN HALF UNAL INIT(8),
      299      299    1           3 * CHAR(10) INIT('MOUSESID'),
      300      300    1         2 MPTSID,                                             /* 266 */
      301      301    1           3 * UBIN HALF UNAL INIT(6),
      302      302    1           3 * CHAR(6) INIT('MPTSID'),
      303      303    1         2 MTSTACKSID,                                         /* 268 */
      304      304    1           3 * UBIN HALF UNAL INIT(10),
      305      305    1           3 * CHAR(10) INIT('MTSTACKSID'),
      306      306    1         2 NULLSID,                                            /* 271 */
      307      307    1           3 * UBIN HALF UNAL INIT(7),
      308      308    1           3 * CHAR(10) INIT('NULLSID'),
      309      309    1         2 PIASID,                                             /* 274 */
      310      310    1           3 * UBIN HALF UNAL INIT(6),
      311      311    1           3 * CHAR(6) INIT('PIASID'),
      312      312    1         2 PMMENTSID,                                          /* 276 */
      313      313    1           3 * UBIN HALF UNAL INIT(9),
      314      314    1           3 * CHAR(10) INIT('PMMENTSID'),
      315      315    1         2 PMMESID,                                            /* 279 */
      316      316    1           3 * UBIN HALF UNAL INIT(7),
      317      317    1           3 * CHAR(10) INIT('PMMESID'),
      318      318    1         2 PPUTSID,                                            /* 282 */
      319      319    1           3 * UBIN HALF UNAL INIT(7),
      320      320    1           3 * CHAR(10) INIT('PPUTSID'),
      321      321    1         2 PRIVSID,                                            /* 285 */
      322      322    1           3 * UBIN HALF UNAL INIT(7),
      323      323    1           3 * CHAR(10) INIT('PRIVSID'),
      324      324    1         2 PSRSID,                                             /* 288 */
      325      325    1           3 * UBIN HALF UNAL INIT(6),
      326      326    1           3 * CHAR(6) INIT('PSRSID'),
      327      327    1         2 RCVENTSID,                                          /* 290 */
      328      328    1           3 * UBIN HALF UNAL INIT(9),
      329      329    1           3 * CHAR(10) INIT('RCVENTSID'),
      330      330    1         2 RCVRTNSID,                                          /* 293 */
      331      331    1           3 * UBIN HALF UNAL INIT(9),
      332      332    1           3 * CHAR(10) INIT('RCVRTNSID'),
      333      333    1         2 REALSID,                                            /* 296 */
PL6.E3A0      #001=VX_SD_D File=VX_SD_D.:E05TSI                                  WED 07/30/97 08:50 Page:10
      334      334    1           3 * UBIN HALF UNAL INIT(7),
      335      335    1           3 * CHAR(10) INIT('REALSID'),
      336      336    1         2 REGENTSID,                                          /* 299 */
      337      337    1           3 * UBIN HALF UNAL INIT(9),
      338      338    1           3 * CHAR(10) INIT('REGENTSID'),
      339      339    1         2 RONCSID,                                            /* 302 */
      340      340    1           3 * UBIN HALF UNAL INIT(7),
      341      341    1           3 * CHAR(10) INIT('RONCSID'),
      342      342    1         2 ROSEG8SID,                                          /* 305 */
      343      343    1           3 * UBIN HALF UNAL INIT(9),
      344      344    1           3 * CHAR(10) INIT('ROSEG8SID'),
      345      345    1         2 ROSID,                                              /* 308 */
      346      346    1           3 * UBIN HALF UNAL INIT(5),
      347      347    1           3 * CHAR(6) INIT('ROSID'),
      348      348    1         2 SBUF1SID,                                           /* 310 */
      349      349    1           3 * UBIN HALF UNAL INIT(8),
      350      350    1           3 * CHAR(10) INIT('SBUF1SID'),
      351      351    1         2 SBUF2SID,                                           /* 313 */
      352      352    1           3 * UBIN HALF UNAL INIT(8),
      353      353    1           3 * CHAR(10) INIT('SBUF2SID'),
      354      354    1         2 SCRCHENTSID,                                        /* 316 */
      355      355    1           3 * UBIN HALF UNAL INIT(11),
      356      356    1           3 * CHAR(14) INIT('SCRCHENTSID'),
      357      357    1         2 SCUSID,                                             /* 320 */
      358      358    1           3 * UBIN HALF UNAL INIT(6),
      359      359    1           3 * CHAR(6) INIT('SCUSID'),
      360      360    1         2 SDS0SID,                                            /* 322 */
      361      361    1           3 * UBIN HALF UNAL INIT(7),
      362      362    1           3 * CHAR(10) INIT('SDS0SID'),
      363      363    1         2 SDS1SID,                                            /* 325 */
      364      364    1           3 * UBIN HALF UNAL INIT(7),
      365      365    1           3 * CHAR(10) INIT('SDS1SID'),
      366      366    1         2 SLV1HJITSID,                                        /* 328 */
      367      367    1           3 * UBIN HALF UNAL INIT(11),
      368      368    1           3 * CHAR(14) INIT('SLV1HJITSID'),
      369      369    1         2 SLV1PTSID,                                          /* 332 */
      370      370    1           3 * UBIN HALF UNAL INIT(9),
PL6.E3A0      #001=VX_SD_D File=VX_SD_D.:E05TSI                                  WED 07/30/97 08:50 Page:11
      371      371    1           3 * CHAR(10) INIT('SLV1PTSID'),
      372      372    1         2 SLV2HJITSID,                                        /* 335 */
      373      373    1           3 * UBIN HALF UNAL INIT(11),
      374      374    1           3 * CHAR(14) INIT('SLV2HJITSID'),
      375      375    1         2 SLV2PTSID,                                          /* 339 */
      376      376    1           3 * UBIN HALF UNAL INIT(9),
      377      377    1           3 * CHAR(10) INIT('SLV2PTSID'),
      378      378    1         2 SLV3HJITSID,                                        /* 342 */
      379      379    1           3 * UBIN HALF UNAL INIT(11),
      380      380    1           3 * CHAR(14) INIT('SLV3HJITSID'),
      381      381    1         2 SLV3PTSID,                                          /* 346 */
      382      382    1           3 * UBIN HALF UNAL INIT(9),
      383      383    1           3 * CHAR(10) INIT('SLV3PTSID'),
      384      384    1         2 SLV4HJITSID,                                        /* 349 */
      385      385    1           3 * UBIN HALF UNAL INIT(11),
      386      386    1           3 * CHAR(14) INIT('SLV4HJITSID'),
      387      387    1         2 SLV4PTSID,                                          /* 353 */
      388      388    1           3 * UBIN HALF UNAL INIT(9),
      389      389    1           3 * CHAR(10) INIT('SLV4PTSID'),
      390      390    1         2 SLV5HJITSID,                                        /* 356 */
      391      391    1           3 * UBIN HALF UNAL INIT(11),
      392      392    1           3 * CHAR(14) INIT('SLV5HJITSID'),
      393      393    1         2 SLV5PTSID,                                          /* 360 */
      394      394    1           3 * UBIN HALF UNAL INIT(9),
      395      395    1           3 * CHAR(10) INIT('SLV5PTSID'),
      396      396    1         2 SLV6HJITSID,                                        /* 363 */
      397      397    1           3 * UBIN HALF UNAL INIT(11),
      398      398    1           3 * CHAR(14) INIT('SLV6HJITSID'),
      399      399    1         2 SLV6PTSID,                                          /* 367 */
      400      400    1           3 * UBIN HALF UNAL INIT(9),
      401      401    1           3 * CHAR(10) INIT('SLV6PTSID'),
      402      402    1         2 SLV7HJITSID,                                        /* 370 */
      403      403    1           3 * UBIN HALF UNAL INIT(11),
      404      404    1           3 * CHAR(14) INIT('SLV7HJITSID'),
      405      405    1         2 SLV7PTSID,                                          /* 374 */
      406      406    1           3 * UBIN HALF UNAL INIT(9),
      407      407    1           3 * CHAR(10) INIT('SLV7PTSID'),
PL6.E3A0      #001=VX_SD_D File=VX_SD_D.:E05TSI                                  WED 07/30/97 08:50 Page:12
      408      408    1         2 SPCL1SID,                                           /* 377 */
      409      409    1           3 * UBIN HALF UNAL INIT(8),
      410      410    1           3 * CHAR(10) INIT('SPCL1SID'),
      411      411    1         2 SPCL2SID,                                           /* 380 */
      412      412    1           3 * UBIN HALF UNAL INIT(8),
      413      413    1           3 * CHAR(10) INIT('SPCL2SID'),
      414      414    1         2 SPCL3SID,                                           /* 383 */
      415      415    1           3 * UBIN HALF UNAL INIT(8),
      416      416    1           3 * CHAR(10) INIT('SPCL3SID'),
      417      417    1         2 SPCL4SID,                                           /* 386 */
      418      418    1           3 * UBIN HALF UNAL INIT(8),
      419      419    1           3 * CHAR(10) INIT('SPCL4SID'),
      420      420    1         2 SPCL5SID,                                           /* 389 */
      421      421    1           3 * UBIN HALF UNAL INIT(8),
      422      422    1           3 * CHAR(10) INIT('SPCL5SID'),
      423      423    1         2 SPCL6SID,                                           /* 392 */
      424      424    1           3 * UBIN HALF UNAL INIT(8),
      425      425    1           3 * CHAR(10) INIT('SPCL6SID'),
      426      426    1         2 SPCL7SID,                                           /* 395 */
      427      427    1           3 * UBIN HALF UNAL INIT(8),
      428      428    1           3 * CHAR(10) INIT('SPCL7SID'),
      429      429    1         2 SPCL8SID,                                           /* 398 */
      430      430    1           3 * UBIN HALF UNAL INIT(8),
      431      431    1           3 * CHAR(10) INIT('SPCL8SID'),
      432      432    1         2 SSRSID,                                             /* 401 */
      433      433    1           3 * UBIN HALF UNAL INIT(6),
      434      434    1           3 * CHAR(6) INIT('SSRSID'),
      435      435    1         2 TCBSID,                                             /* 403 */
      436      436    1           3 * UBIN HALF UNAL INIT(6),
      437      437    1           3 * CHAR(6) INIT('TCBSID'),
      438      438    1         2 TIGRSID,                                            /* 405 */
      439      439    1           3 * UBIN HALF UNAL INIT(7),
      440      440    1           3 * CHAR(10) INIT('TIGRSID'),
      441      441    1         2 TSTACKSID,                                          /* 408 */
      442      442    1           3 * UBIN HALF UNAL INIT(9),
      443      443    1           3 * CHAR(10) INIT('TSTACKSID'),
      444      444    1         2 UPTSID,                                             /* 411 */
PL6.E3A0      #001=VX_SD_D File=VX_SD_D.:E05TSI                                  WED 07/30/97 08:50 Page:13
      445      445    1           3 * UBIN HALF UNAL INIT(6),
      446      446    1           3 * CHAR(6) INIT('UPTSID'),
      447      447    1         2 USERHJITSID,                                        /* 413 */
      448      448    1           3 * UBIN HALF UNAL INIT(11),
      449      449    1           3 * CHAR(14) INIT('USERHJITSID'),
      450      450    1         2 USERISSID,                                          /* 417 */
      451      451    1           3 * UBIN HALF UNAL INIT(9),
      452      452    1           3 * CHAR(10) INIT('USERISSID'),
      453      453    1         2 USERLSSID,                                          /* 420 */
      454      454    1           3 * UBIN HALF UNAL INIT(9),
      455      455    1           3 * CHAR(10) INIT('USERLSSID'),
      456      456    1         2 USERSSSID,                                          /* 423 */
      457      457    1           3 * UBIN HALF UNAL INIT(9),
      458      458    1           3 * CHAR(10) INIT('USERSSSID'),
      459      459    1         2 VPTSID,                                          /* 426 */
      460      460    1           3 * UBIN HALF UNAL INIT(6),
      461      461    1           3 * CHAR(10) INIT('VPTSID'),
      462      462    1         2 WINDOWSID,                                          /* 429 */
      463      463    1           3 * UBIN HALF UNAL INIT(9),
      464      464    1           3 * CHAR(10) INIT('WINDOWSID'),
      465      465    1         2 WS3MLSNWSID,                                        /* 432 */
      466      466    1           3 * UBIN HALF UNAL INIT(11),
      467      467    1           3 * CHAR(14) INIT('WS3MLSNWSID'),
      468      468    1         2 WS3MLSSID,                                          /* 436 */
      469      469    1           3 * UBIN HALF UNAL INIT(9),
      470      470    1           3 * CHAR(10) INIT('WS3MLSSID'),
      471      471    1         2 XDLTENTSID,                                         /* 439 */
      472      472    1           3 * UBIN HALF UNAL INIT(10),
      473      473    1           3 * CHAR(10) INIT('XDLTENTSID'),
      474      474    1         2 XDRTNSID,                                           /* 442 */
      475      475    1           3 * UBIN HALF UNAL INIT(8),
      476      476    1           3 * CHAR(10) INIT('XDRTNSID'),
      477      477    1         2 IMXSID,                                             /* 445 */
      478      478    1           3 * UBIN HALF UNAL INIT(8),
      479      479    1           3 * CHAR(10) INIT('IMXSID');
      480      480        %EJECT;
PL6.E3A0      #001=VX_SD_D File=VX_SD_D.:E05TSI                                  WED 07/30/97 08:50 Page:14
      481      481    1   DCL 1 VX_SD ALIGNED CONSTANT SYMDEF,
      482      482    1         2 AARDV2SID,
      483      483    1           3 * UBIN WORD INIT(BITBIN('6156'O)),
      484      484    1           3 * UBIN HALF UNAL INIT(0),
      485      485    1           3 * UBIN HALF UNAL INIT(0),
      486      486    1         2 ASLENTSID,
      487      487    1           3 * UBIN WORD INIT(BITBIN('6025'O)),
      488      488    1           3 * UBIN HALF UNAL INIT(3),
      489      489    1           3 * UBIN HALF UNAL INIT(0),
      490      490    1         2 ASLLSSID,
      491      491    1           3 * UBIN WORD INIT(BITBIN('6033'O)),
      492      492    1           3 * UBIN HALF UNAL INIT(6),
      493      493    1           3 * UBIN HALF UNAL INIT(0),
      494      494    1         2 ASRSID,
      495      495    1           3 * UBIN WORD INIT(BITBIN('1766'O)),
      496      496    1           3 * UBIN HALF UNAL INIT(9),
      497      497    1           3 * UBIN HALF UNAL INIT(0),
      498      498    1         2 ASSID,
      499      499    1           3 * UBIN WORD INIT(BITBIN('6053'O)),
      500      500    1           3 * UBIN HALF UNAL INIT(11),
      501      501    1           3 * UBIN HALF UNAL INIT(0),
      502      502    1         2 AUTOSID,
      503      503    1           3 * UBIN WORD INIT(BITBIN('6004'O)),
      504      504    1           3 * UBIN HALF UNAL INIT(13),
      505      505    1           3 * UBIN HALF UNAL INIT(0),
      506      506    1         2 BUFCACHESID,
      507      507    1           3 * UBIN WORD INIT(BITBIN('6161'O)),
      508      508    1           3 * UBIN HALF UNAL INIT(16),
      509      509    1           3 * UBIN HALF UNAL INIT(0),
      510      510    1         2 BUFSID,
      511      511    1           3 * UBIN WORD INIT(BITBIN('6002'O)),
      512      512    1           3 * UBIN HALF UNAL INIT(20),
      513      513    1           3 * UBIN HALF UNAL INIT(0),
      514      514    1         2 CDTFSID,
      515      515    1           3 * UBIN WORD INIT(BITBIN('1761'O)),
      516      516    1           3 * UBIN HALF UNAL INIT(22),
      517      517    1           3 * UBIN HALF UNAL INIT(0),
PL6.E3A0      #001=VX_SD_D File=VX_SD_D.:E05TSI                                  WED 07/30/97 08:50 Page:15
      518      518    1         2 CGCTXTSID,
      519      519    1           3 * UBIN WORD INIT(BITBIN('6164'O)),
      520      520    1           3 * UBIN HALF UNAL INIT(25),
      521      521    1           3 * UBIN HALF UNAL INIT(0),
      522      522    1         2 CGPTSID,
      523      523    1           3 * UBIN WORD INIT(BITBIN('6163'O)),
      524      524    1           3 * UBIN HALF UNAL INIT(28),
      525      525    1           3 * UBIN HALF UNAL INIT(0),
      526      526    1         2 COMMONSID,
      527      527    1           3 * UBIN WORD INIT(BITBIN('6005'O)),
      528      528    1           3 * UBIN HALF UNAL INIT(31),
      529      529    1           3 * UBIN HALF UNAL INIT(0),
      530      530    1         2 CPGT10SID,
      531      531    1           3 * UBIN WORD INIT(BITBIN('6106'O)),
      532      532    1           3 * UBIN HALF UNAL INIT(34),
      533      533    1           3 * UBIN HALF UNAL INIT(0),
      534      534    1         2 CPGT11SID,
      535      535    1           3 * UBIN WORD INIT(BITBIN('6107'O)),
      536      536    1           3 * UBIN HALF UNAL INIT(37),
      537      537    1           3 * UBIN HALF UNAL INIT(0),
      538      538    1         2 CPGT12SID,
      539      539    1           3 * UBIN WORD INIT(BITBIN('6110'O)),
      540      540    1           3 * UBIN HALF UNAL INIT(40),
      541      541    1           3 * UBIN HALF UNAL INIT(0),
      542      542    1         2 CPGT13SID,
      543      543    1           3 * UBIN WORD INIT(BITBIN('6111'O)),
      544      544    1           3 * UBIN HALF UNAL INIT(43),
      545      545    1           3 * UBIN HALF UNAL INIT(0),
      546      546    1         2 CPGT14SID,
      547      547    1           3 * UBIN WORD INIT(BITBIN('6112'O)),
      548      548    1           3 * UBIN HALF UNAL INIT(46),
      549      549    1           3 * UBIN HALF UNAL INIT(0),
      550      550    1         2 CPGT15SID,
      551      551    1           3 * UBIN WORD INIT(BITBIN('6113'O)),
      552      552    1           3 * UBIN HALF UNAL INIT(49),
      553      553    1           3 * UBIN HALF UNAL INIT(0),
      554      554    1         2 CPGT16SID,
PL6.E3A0      #001=VX_SD_D File=VX_SD_D.:E05TSI                                  WED 07/30/97 08:50 Page:16
      555      555    1           3 * UBIN WORD INIT(BITBIN('6114'O)),
      556      556    1           3 * UBIN HALF UNAL INIT(52),
      557      557    1           3 * UBIN HALF UNAL INIT(0),
      558      558    1         2 CPGT1SID,
      559      559    1           3 * UBIN WORD INIT(BITBIN('6075'O)),
      560      560    1           3 * UBIN HALF UNAL INIT(55),
      561      561    1           3 * UBIN HALF UNAL INIT(0),
      562      562    1         2 CPGT2SID,
      563      563    1           3 * UBIN WORD INIT(BITBIN('6076'O)),
      564      564    1           3 * UBIN HALF UNAL INIT(58),
      565      565    1           3 * UBIN HALF UNAL INIT(0),
      566      566    1         2 CPGT3SID,
      567      567    1           3 * UBIN WORD INIT(BITBIN('6077'O)),
      568      568    1           3 * UBIN HALF UNAL INIT(61),
      569      569    1           3 * UBIN HALF UNAL INIT(0),
      570      570    1         2 CPGT4SID,
      571      571    1           3 * UBIN WORD INIT(BITBIN('6100'O)),
      572      572    1           3 * UBIN HALF UNAL INIT(64),
      573      573    1           3 * UBIN HALF UNAL INIT(0),
      574      574    1         2 CPGT5SID,
      575      575    1           3 * UBIN WORD INIT(BITBIN('6101'O)),
      576      576    1           3 * UBIN HALF UNAL INIT(67),
      577      577    1           3 * UBIN HALF UNAL INIT(0),
      578      578    1         2 CPGT6SID,
      579      579    1           3 * UBIN WORD INIT(BITBIN('6102'O)),
      580      580    1           3 * UBIN HALF UNAL INIT(70),
      581      581    1           3 * UBIN HALF UNAL INIT(0),
      582      582    1         2 CPGT7SID,
      583      583    1           3 * UBIN WORD INIT(BITBIN('6103'O)),
      584      584    1           3 * UBIN HALF UNAL INIT(73),
      585      585    1           3 * UBIN HALF UNAL INIT(0),
      586      586    1         2 CPGT8SID,
      587      587    1           3 * UBIN WORD INIT(BITBIN('6104'O)),
      588      588    1           3 * UBIN HALF UNAL INIT(76),
      589      589    1           3 * UBIN HALF UNAL INIT(0),
      590      590    1         2 CPGT9SID,
      591      591    1           3 * UBIN WORD INIT(BITBIN('6105'O)),
PL6.E3A0      #001=VX_SD_D File=VX_SD_D.:E05TSI                                  WED 07/30/97 08:50 Page:17
      592      592    1           3 * UBIN HALF UNAL INIT(79),
      593      593    1           3 * UBIN HALF UNAL INIT(0),
      594      594    1         2 CPLSSID,
      595      595    1           3 * UBIN WORD INIT(BITBIN('6034'O)),
      596      596    1           3 * UBIN HALF UNAL INIT(82),
      597      597    1           3 * UBIN HALF UNAL INIT(0),
      598      598    1         2 CWSQ10SID,
      599      599    1           3 * UBIN WORD INIT(BITBIN('6066'O)),
      600      600    1           3 * UBIN HALF UNAL INIT(85),
      601      601    1           3 * UBIN HALF UNAL INIT(0),
      602      602    1         2 CWSQ11SID,
      603      603    1           3 * UBIN WORD INIT(BITBIN('6067'O)),
      604      604    1           3 * UBIN HALF UNAL INIT(88),
      605      605    1           3 * UBIN HALF UNAL INIT(0),
      606      606    1         2 CWSQ12SID,
      607      607    1           3 * UBIN WORD INIT(BITBIN('6070'O)),
      608      608    1           3 * UBIN HALF UNAL INIT(91),
      609      609    1           3 * UBIN HALF UNAL INIT(0),
      610      610    1         2 CWSQ13SID,
      611      611    1           3 * UBIN WORD INIT(BITBIN('6071'O)),
      612      612    1           3 * UBIN HALF UNAL INIT(94),
      613      613    1           3 * UBIN HALF UNAL INIT(0),
      614      614    1         2 CWSQ14SID,
      615      615    1           3 * UBIN WORD INIT(BITBIN('6072'O)),
      616      616    1           3 * UBIN HALF UNAL INIT(97),
      617      617    1           3 * UBIN HALF UNAL INIT(0),
      618      618    1         2 CWSQ15SID,
      619      619    1           3 * UBIN WORD INIT(BITBIN('6073'O)),
      620      620    1           3 * UBIN HALF UNAL INIT(100),
      621      621    1           3 * UBIN HALF UNAL INIT(0),
      622      622    1         2 CWSQ16SID,
      623      623    1           3 * UBIN WORD INIT(BITBIN('6074'O)),
      624      624    1           3 * UBIN HALF UNAL INIT(103),
      625      625    1           3 * UBIN HALF UNAL INIT(0),
      626      626    1         2 CWSQ1SID,
      627      627    1           3 * UBIN WORD INIT(BITBIN('6055'O)),
      628      628    1           3 * UBIN HALF UNAL INIT(106),
PL6.E3A0      #001=VX_SD_D File=VX_SD_D.:E05TSI                                  WED 07/30/97 08:50 Page:18
      629      629    1           3 * UBIN HALF UNAL INIT(0),
      630      630    1         2 CWSQ2SID,
      631      631    1           3 * UBIN WORD INIT(BITBIN('6056'O)),
      632      632    1           3 * UBIN HALF UNAL INIT(109),
      633      633    1           3 * UBIN HALF UNAL INIT(0),
      634      634    1         2 CWSQ3SID,
      635      635    1           3 * UBIN WORD INIT(BITBIN('6057'O)),
      636      636    1           3 * UBIN HALF UNAL INIT(112),
      637      637    1           3 * UBIN HALF UNAL INIT(0),
      638      638    1         2 CWSQ4SID,
      639      639    1           3 * UBIN WORD INIT(BITBIN('6060'O)),
      640      640    1           3 * UBIN HALF UNAL INIT(115),
      641      641    1           3 * UBIN HALF UNAL INIT(0),
      642      642    1         2 CWSQ5SID,
      643      643    1           3 * UBIN WORD INIT(BITBIN('6061'O)),
      644      644    1           3 * UBIN HALF UNAL INIT(118),
      645      645    1           3 * UBIN HALF UNAL INIT(0),
      646      646    1         2 CWSQ6SID,
      647      647    1           3 * UBIN WORD INIT(BITBIN('6062'O)),
      648      648    1           3 * UBIN HALF UNAL INIT(121),
      649      649    1           3 * UBIN HALF UNAL INIT(0),
      650      650    1         2 CWSQ7SID,
      651      651    1           3 * UBIN WORD INIT(BITBIN('6063'O)),
      652      652    1           3 * UBIN HALF UNAL INIT(124),
      653      653    1           3 * UBIN HALF UNAL INIT(0),
      654      654    1         2 CWSQ8SID,
      655      655    1           3 * UBIN WORD INIT(BITBIN('6064'O)),
      656      656    1           3 * UBIN HALF UNAL INIT(127),
      657      657    1           3 * UBIN HALF UNAL INIT(0),
      658      658    1         2 CWSQ9SID,
      659      659    1           3 * UBIN WORD INIT(BITBIN('6065'O)),
      660      660    1           3 * UBIN HALF UNAL INIT(130),
      661      661    1           3 * UBIN HALF UNAL INIT(0),
      662      662    1         2 DBLSSID,
      663      663    1           3 * UBIN WORD INIT(BITBIN('6032'O)),
      664      664    1           3 * UBIN HALF UNAL INIT(133),
      665      665    1           3 * UBIN HALF UNAL INIT(0),
PL6.E3A0      #001=VX_SD_D File=VX_SD_D.:E05TSI                                  WED 07/30/97 08:50 Page:19
      666      666    1         2 DR0SID,
      667      667    1           3 * UBIN WORD INIT(BITBIN('1770'O)),
      668      668    1           3 * UBIN HALF UNAL INIT(136),
      669      669    1           3 * UBIN HALF UNAL INIT(0),
      670      670    1         2 DR1SID,
      671      671    1           3 * UBIN WORD INIT(BITBIN('1771'O)),
      672      672    1           3 * UBIN HALF UNAL INIT(138),
      673      673    1           3 * UBIN HALF UNAL INIT(0),
      674      674    1         2 DR2SID,
      675      675    1           3 * UBIN WORD INIT(BITBIN('1772'O)),
      676      676    1           3 * UBIN HALF UNAL INIT(140),
      677      677    1           3 * UBIN HALF UNAL INIT(0),
      678      678    1         2 DR3SID,
      679      679    1           3 * UBIN WORD INIT(BITBIN('1773'O)),
      680      680    1           3 * UBIN HALF UNAL INIT(142),
      681      681    1           3 * UBIN HALF UNAL INIT(0),
      682      682    1         2 DR4SID,
      683      683    1           3 * UBIN WORD INIT(BITBIN('1774'O)),
      684      684    1           3 * UBIN HALF UNAL INIT(144),
      685      685    1           3 * UBIN HALF UNAL INIT(0),
      686      686    1         2 DR5SID,
      687      687    1           3 * UBIN WORD INIT(BITBIN('1775'O)),
      688      688    1           3 * UBIN HALF UNAL INIT(146),
      689      689    1           3 * UBIN HALF UNAL INIT(0),
      690      690    1         2 DR6SID,
      691      691    1           3 * UBIN WORD INIT(BITBIN('1776'O)),
      692      692    1           3 * UBIN HALF UNAL INIT(148),
      693      693    1           3 * UBIN HALF UNAL INIT(0),
      694      694    1         2 DR7SID,
      695      695    1           3 * UBIN WORD INIT(BITBIN('1777'O)),
      696      696    1           3 * UBIN HALF UNAL INIT(150),
      697      697    1           3 * UBIN HALF UNAL INIT(0),
      698      698    1         2 AS0SID,
      699      699    1           3 * UBIN WORD INIT(BITBIN('4000'O)),
      700      700    1           3 * UBIN HALF UNAL INIT(152),
      701      701    1           3 * UBIN HALF UNAL INIT(0),
      702      702    1         2 DS1SID,
PL6.E3A0      #001=VX_SD_D File=VX_SD_D.:E05TSI                                  WED 07/30/97 08:50 Page:20
      703      703    1           3 * UBIN WORD INIT(BITBIN('6004'O)),
      704      704    1           3 * UBIN HALF UNAL INIT(154),
      705      705    1           3 * UBIN HALF UNAL INIT(0),
      706      706    1         2 DS2SID,
      707      707    1           3 * UBIN WORD INIT(BITBIN('6005'O)),
      708      708    1           3 * UBIN HALF UNAL INIT(156),
      709      709    1           3 * UBIN HALF UNAL INIT(0),
      710      710    1         2 DS3SID,
      711      711    1           3 * UBIN WORD INIT(BITBIN('6006'O)),
      712      712    1           3 * UBIN HALF UNAL INIT(158),
      713      713    1           3 * UBIN HALF UNAL INIT(0),
      714      714    1         2 DS4SID,
      715      715    1           3 * UBIN WORD INIT(BITBIN('6007'O)),
      716      716    1           3 * UBIN HALF UNAL INIT(160),
      717      717    1           3 * UBIN HALF UNAL INIT(0),
      718      718    1         2 DS5SID,
      719      719    1           3 * UBIN WORD INIT(BITBIN('6010'O)),
      720      720    1           3 * UBIN HALF UNAL INIT(162),
      721      721    1           3 * UBIN HALF UNAL INIT(0),
      722      722    1         2 DS6SID,
      723      723    1           3 * UBIN WORD INIT(BITBIN('6011'O)),
      724      724    1           3 * UBIN HALF UNAL INIT(164),
      725      725    1           3 * UBIN HALF UNAL INIT(0),
      726      726    1         2 DS7SID,
      727      727    1           3 * UBIN WORD INIT(BITBIN('6012'O)),
      728      728    1           3 * UBIN HALF UNAL INIT(166),
      729      729    1           3 * UBIN HALF UNAL INIT(0),
      730      730    1         2 DS8SID,
      731      731    1           3 * UBIN WORD INIT(BITBIN('6013'O)),
      732      732    1           3 * UBIN HALF UNAL INIT(168),
      733      733    1           3 * UBIN HALF UNAL INIT(0),
      734      734    1         2 DSDRSID,
      735      735    1           3 * UBIN WORD INIT(BITBIN('1763'O)),
      736      736    1           3 * UBIN HALF UNAL INIT(170),
      737      737    1           3 * UBIN HALF UNAL INIT(0),
      738      738    1         2 ECCBSID,
      739      739    1           3 * UBIN WORD INIT(BITBIN('6016'O)),
PL6.E3A0      #001=VX_SD_D File=VX_SD_D.:E05TSI                                  WED 07/30/97 08:50 Page:21
      740      740    1           3 * UBIN HALF UNAL INIT(173),
      741      741    1           3 * UBIN HALF UNAL INIT(0),
      742      742    1         2 FIRMSID,
      743      743    1           3 * UBIN WORD INIT(BITBIN('6157'O)),
      744      744    1           3 * UBIN HALF UNAL INIT(176),
      745      745    1           3 * UBIN HALF UNAL INIT(0),
      746      746    1         2 IOENDSID,
      747      747    1           3 * UBIN WORD INIT(BITBIN('6122'O)),
      748      748    1           3 * UBIN HALF UNAL INIT(179),
      749      749    1           3 * UBIN HALF UNAL INIT(0),
      750      750    1         2 IS2SID,
      751      751    1           3 * UBIN WORD INIT(BITBIN('6015'O)),
      752      752    1           3 * UBIN HALF UNAL INIT(182),
      753      753    1           3 * UBIN HALF UNAL INIT(0),
      754      754    1         2 ISBSID,
      755      755    1           3 * UBIN WORD INIT(BITBIN('6050'O)),
      756      756    1           3 * UBIN HALF UNAL INIT(184),
      757      757    1           3 * UBIN HALF UNAL INIT(0),
      758      758    1         2 ISRSID,
      759      759    1           3 * UBIN WORD INIT(BITBIN('1762'O)),
      760      760    1           3 * UBIN HALF UNAL INIT(186),
      761      761    1           3 * UBIN HALF UNAL INIT(0),
      762      762    1         2 ISSID,
      763      763    1           3 * UBIN WORD INIT(BITBIN('6000'O)),
      764      764    1           3 * UBIN HALF UNAL INIT(188),
      765      765    1           3 * UBIN HALF UNAL INIT(0),
      766      766    1         2 JITPGSID,
      767      767    1           3 * UBIN WORD INIT(BITBIN('6115'O)),
      768      768    1           3 * UBIN HALF UNAL INIT(190),
      769      769    1           3 * UBIN HALF UNAL INIT(0),
      770      770    1         2 JITSID,
      771      771    1           3 * UBIN WORD INIT(BITBIN('6001'O)),
      772      772    1           3 * UBIN HALF UNAL INIT(193),
      773      773    1           3 * UBIN HALF UNAL INIT(0),
      774      774    1         2 LDCTNCSID,
      775      775    1           3 * UBIN WORD INIT(BITBIN('6134'O)),
      776      776    1           3 * UBIN HALF UNAL INIT(195),
PL6.E3A0      #001=VX_SD_D File=VX_SD_D.:E05TSI                                  WED 07/30/97 08:50 Page:22
      777      777    1           3 * UBIN HALF UNAL INIT(0),
      778      778    1         2 LDCTSID,
      779      779    1           3 * UBIN WORD INIT(BITBIN('6013'O)),
      780      780    1           3 * UBIN HALF UNAL INIT(198),
      781      781    1           3 * UBIN HALF UNAL INIT(0),
      782      782    1         2 LOWMEMSID,
      783      783    1           3 * UBIN WORD INIT(BITBIN('6121'O)),
      784      784    1           3 * UBIN HALF UNAL INIT(201),
      785      785    1           3 * UBIN HALF UNAL INIT(0),
      786      786    1         2 LSREADSID,
      787      787    1           3 * UBIN WORD INIT(BITBIN('6173'O)),
      788      788    1           3 * UBIN HALF UNAL INIT(204),
      789      789    1           3 * UBIN HALF UNAL INIT(0),
      790      790    1         2 LSRSID,
      791      791    1           3 * UBIN WORD INIT(BITBIN('1765'O)),
      792      792    1           3 * UBIN HALF UNAL INIT(207),
      793      793    1           3 * UBIN HALF UNAL INIT(0),
      794      794    1         2 LSSID,
      795      795    1           3 * UBIN WORD INIT(BITBIN('6035'O)),
      796      796    1           3 * UBIN HALF UNAL INIT(209),
      797      797    1           3 * UBIN HALF UNAL INIT(0),
      798      798    1         2 MAGICASSID,
      799      799    1           3 * UBIN WORD INIT(BITBIN('6167'O)),
      800      800    1           3 * UBIN HALF UNAL INIT(211),
      801      801    1           3 * UBIN HALF UNAL INIT(0),
      802      802    1         2 MAGICECCBSID,
      803      803    1           3 * UBIN WORD INIT(BITBIN('6172'O)),
      804      804    1           3 * UBIN HALF UNAL INIT(214),
      805      805    1           3 * UBIN HALF UNAL INIT(0),
      806      806    1         2 MAGICLSSID,
      807      807    1           3 * UBIN WORD INIT(BITBIN('6166'O)),
      808      808    1           3 * UBIN HALF UNAL INIT(218),
      809      809    1           3 * UBIN HALF UNAL INIT(0),
      810      810    1         2 MAGICPSSID,
      811      811    1           3 * UBIN WORD INIT(BITBIN('6170'O)),
      812      812    1           3 * UBIN HALF UNAL INIT(221),
      813      813    1           3 * UBIN HALF UNAL INIT(0),
PL6.E3A0      #001=VX_SD_D File=VX_SD_D.:E05TSI                                  WED 07/30/97 08:50 Page:23
      814      814    1         2 MAGICSSSID,
      815      815    1           3 * UBIN WORD INIT(BITBIN('6165'O)),
      816      816    1           3 * UBIN HALF UNAL INIT(224),
      817      817    1           3 * UBIN HALF UNAL INIT(0),
      818      818    1         2 MAGICTCBSID,
      819      819    1           3 * UBIN WORD INIT(BITBIN('6171'O)),
      820      820    1           3 * UBIN HALF UNAL INIT(227),
      821      821    1           3 * UBIN HALF UNAL INIT(0),
      822      822    1         2 MASTERHJITSID,
      823      823    1           3 * UBIN WORD INIT(BITBIN('6145'O)),
      824      824    1           3 * UBIN HALF UNAL INIT(231),
      825      825    1           3 * UBIN HALF UNAL INIT(0),
      826      826    1         2 MASTERPTSID,
      827      827    1           3 * UBIN WORD INIT(BITBIN('6135'O)),
      828      828    1           3 * UBIN HALF UNAL INIT(235),
      829      829    1           3 * UBIN HALF UNAL INIT(0),
      830      830    1         2 MAXMONSID,
      831      831    1           3 * UBIN WORD INIT(BITBIN('6173'O)),
      832      832    1           3 * UBIN HALF UNAL INIT(239),
      833      833    1           3 * UBIN HALF UNAL INIT(0),
      834      834    1         2 MAXUSERSID,
      835      835    1           3 * UBIN WORD INIT(BITBIN('6031'O)),
      836      836    1           3 * UBIN HALF UNAL INIT(242),
      837      837    1           3 * UBIN HALF UNAL INIT(0),
      838      838    1         2 MHJITSID,
      839      839    1           3 * UBIN WORD INIT(BITBIN('6043'O)),
      840      840    1           3 * UBIN HALF UNAL INIT(245),
      841      841    1           3 * UBIN HALF UNAL INIT(0),
      842      842    1         2 MISC2SID,
      843      843    1           3 * UBIN WORD INIT(BITBIN('6130'O)),
      844      844    1           3 * UBIN HALF UNAL INIT(248),
      845      845    1           3 * UBIN HALF UNAL INIT(0),
      846      846    1         2 MISCSID,
      847      847    1           3 * UBIN WORD INIT(BITBIN('6054'O)),
      848      848    1           3 * UBIN HALF UNAL INIT(251),
      849      849    1           3 * UBIN HALF UNAL INIT(0),
      850      850    1         2 MJITSID,
PL6.E3A0      #001=VX_SD_D File=VX_SD_D.:E05TSI                                  WED 07/30/97 08:50 Page:24
      851      851    1           3 * UBIN WORD INIT(BITBIN('6042'O)),
      852      852    1           3 * UBIN HALF UNAL INIT(254),
      853      853    1           3 * UBIN HALF UNAL INIT(0),
      854      854    1         2 MLS1SID,
      855      855    1           3 * UBIN WORD INIT(BITBIN('6132'O)),
      856      856    1           3 * UBIN HALF UNAL INIT(257),
      857      857    1           3 * UBIN HALF UNAL INIT(0),
      858      858    1         2 MONSSSID,
      859      859    1           3 * UBIN WORD INIT(BITBIN('6044'O)),
      860      860    1           3 * UBIN HALF UNAL INIT(260),
      861      861    1           3 * UBIN HALF UNAL INIT(0),
      862      862    1         2 MOUSESID,
      863      863    1           3 * UBIN WORD INIT(BITBIN('6120'O)),
      864      864    1           3 * UBIN HALF UNAL INIT(263),
      865      865    1           3 * UBIN HALF UNAL INIT(0),
      866      866    1         2 MPTSID,
      867      867    1           3 * UBIN WORD INIT(BITBIN('6037'O)),
      868      868    1           3 * UBIN HALF UNAL INIT(266),
      869      869    1           3 * UBIN HALF UNAL INIT(0),
      870      870    1         2 MTSTACKSID,
      871      871    1           3 * UBIN WORD INIT(BITBIN('6041'O)),
      872      872    1           3 * UBIN HALF UNAL INIT(268),
      873      873    1           3 * UBIN HALF UNAL INIT(0),
      874      874    1         2 NULLSID,
      875      875    1           3 * UBIN WORD INIT(BITBIN('6014'O)),
      876      876    1           3 * UBIN HALF UNAL INIT(271),
      877      877    1           3 * UBIN HALF UNAL INIT(0),
      878      878    1         2 PIASID,
      879      879    1           3 * UBIN WORD INIT(BITBIN('6020'O)),
      880      880    1           3 * UBIN HALF UNAL INIT(274),
      881      881    1           3 * UBIN HALF UNAL INIT(0),
      882      882    1         2 PMMENTSID,
      883      883    1           3 * UBIN WORD INIT(BITBIN('6027'O)),
      884      884    1           3 * UBIN HALF UNAL INIT(276),
      885      885    1           3 * UBIN HALF UNAL INIT(0),
      886      886    1         2 PMMESID,
      887      887    1           3 * UBIN WORD INIT(BITBIN('1760'O)),
PL6.E3A0      #001=VX_SD_D File=VX_SD_D.:E05TSI                                  WED 07/30/97 08:50 Page:25
      888      888    1           3 * UBIN HALF UNAL INIT(279),
      889      889    1           3 * UBIN HALF UNAL INIT(0),
      890      890    1         2 PPUTSID,
      891      891    1           3 * UBIN WORD INIT(BITBIN('6116'O)),
      892      892    1           3 * UBIN HALF UNAL INIT(282),
      893      893    1           3 * UBIN HALF UNAL INIT(0),
      894      894    1         2 PRIVSID,
      895      895    1           3 * UBIN WORD INIT(BITBIN('6015'O)),
      896      896    1           3 * UBIN HALF UNAL INIT(285),
      897      897    1           3 * UBIN HALF UNAL INIT(0),
      898      898    1         2 PSRSID,
      899      899    1           3 * UBIN WORD INIT(BITBIN('1767'O)),
      900      900    1           3 * UBIN HALF UNAL INIT(288),
      901      901    1           3 * UBIN HALF UNAL INIT(0),
      902      902    1         2 RCVENTSID,
      903      903    1           3 * UBIN WORD INIT(BITBIN('6131'O)),
      904      904    1           3 * UBIN HALF UNAL INIT(290),
      905      905    1           3 * UBIN HALF UNAL INIT(0),
      906      906    1         2 RCVRTNSID,
      907      907    1           3 * UBIN WORD INIT(BITBIN('6127'O)),
      908      908    1           3 * UBIN HALF UNAL INIT(293),
      909      909    1           3 * UBIN HALF UNAL INIT(0),
      910      910    1         2 REALSID,
      911      911    1           3 * UBIN WORD INIT(BITBIN('6021'O)),
      912      912    1           3 * UBIN HALF UNAL INIT(296),
      913      913    1           3 * UBIN HALF UNAL INIT(0),
      914      914    1         2 REGENTSID,
      915      915    1           3 * UBIN WORD INIT(BITBIN('6030'O)),
      916      916    1           3 * UBIN HALF UNAL INIT(299),
      917      917    1           3 * UBIN HALF UNAL INIT(0),
      918      918    1         2 RONCSID,
      919      919    1           3 * UBIN WORD INIT(BITBIN('6124'O)),
      920      920    1           3 * UBIN HALF UNAL INIT(302),
      921      921    1           3 * UBIN HALF UNAL INIT(0),
      922      922    1         2 ROSEG8SID,
      923      923    1           3 * UBIN WORD INIT(BITBIN('6125'O)),
      924      924    1           3 * UBIN HALF UNAL INIT(305),
PL6.E3A0      #001=VX_SD_D File=VX_SD_D.:E05TSI                                  WED 07/30/97 08:50 Page:26
      925      925    1           3 * UBIN HALF UNAL INIT(0),
      926      926    1         2 ROSID,
      927      927    1           3 * UBIN WORD INIT(BITBIN('6003'O)),
      928      928    1           3 * UBIN HALF UNAL INIT(308),
      929      929    1           3 * UBIN HALF UNAL INIT(0),
      930      930    1         2 SBUF1SID,
      931      931    1           3 * UBIN WORD INIT(BITBIN('6046'O)),
      932      932    1           3 * UBIN HALF UNAL INIT(310),
      933      933    1           3 * UBIN HALF UNAL INIT(0),
      934      934    1         2 SBUF2SID,
      935      935    1           3 * UBIN WORD INIT(BITBIN('6047'O)),
      936      936    1           3 * UBIN HALF UNAL INIT(313),
      937      937    1           3 * UBIN HALF UNAL INIT(0),
      938      938    1         2 SCRCHENTSID,
      939      939    1           3 * UBIN WORD INIT(BITBIN('6025'O)),
      940      940    1           3 * UBIN HALF UNAL INIT(316),
      941      941    1           3 * UBIN HALF UNAL INIT(0),
      942      942    1         2 SCUSID,
      943      943    1           3 * UBIN WORD INIT(BITBIN('6051'O)),
      944      944    1           3 * UBIN HALF UNAL INIT(320),
      945      945    1           3 * UBIN HALF UNAL INIT(0),
      946      946    1         2 SDS0SID,
      947      947    1           3 * UBIN WORD INIT(BITBIN('6023'O)),
      948      948    1           3 * UBIN HALF UNAL INIT(322),
      949      949    1           3 * UBIN HALF UNAL INIT(0),
      950      950    1         2 SDS1SID,
      951      951    1           3 * UBIN WORD INIT(BITBIN('6024'O)),
      952      952    1           3 * UBIN HALF UNAL INIT(325),
      953      953    1           3 * UBIN HALF UNAL INIT(0),
      954      954    1         2 SLV1HJITSID,
      955      955    1           3 * UBIN WORD INIT(BITBIN('6146'O)),
      956      956    1           3 * UBIN HALF UNAL INIT(328),
      957      957    1           3 * UBIN HALF UNAL INIT(0),
      958      958    1         2 SLV1PTSID,
      959      959    1           3 * UBIN WORD INIT(BITBIN('6136'O)),
      960      960    1           3 * UBIN HALF UNAL INIT(332),
      961      961    1           3 * UBIN HALF UNAL INIT(0),
PL6.E3A0      #001=VX_SD_D File=VX_SD_D.:E05TSI                                  WED 07/30/97 08:50 Page:27
      962      962    1         2 SLV2HJITSID,
      963      963    1           3 * UBIN WORD INIT(BITBIN('6147'O)),
      964      964    1           3 * UBIN HALF UNAL INIT(335),
      965      965    1           3 * UBIN HALF UNAL INIT(0),
      966      966    1         2 SLV2PTSID,
      967      967    1           3 * UBIN WORD INIT(BITBIN('6137'O)),
      968      968    1           3 * UBIN HALF UNAL INIT(339),
      969      969    1           3 * UBIN HALF UNAL INIT(0),
      970      970    1         2 SLV3HJITSID,
      971      971    1           3 * UBIN WORD INIT(BITBIN('6150'O)),
      972      972    1           3 * UBIN HALF UNAL INIT(342),
      973      973    1           3 * UBIN HALF UNAL INIT(0),
      974      974    1         2 SLV3PTSID,
      975      975    1           3 * UBIN WORD INIT(BITBIN('6140'O)),
      976      976    1           3 * UBIN HALF UNAL INIT(346),
      977      977    1           3 * UBIN HALF UNAL INIT(0),
      978      978    1         2 SLV4HJITSID,
      979      979    1           3 * UBIN WORD INIT(BITBIN('6151'O)),
      980      980    1           3 * UBIN HALF UNAL INIT(349),
      981      981    1           3 * UBIN HALF UNAL INIT(0),
      982      982    1         2 SLV4PTSID,
      983      983    1           3 * UBIN WORD INIT(BITBIN('6141'O)),
      984      984    1           3 * UBIN HALF UNAL INIT(353),
      985      985    1           3 * UBIN HALF UNAL INIT(0),
      986      986    1         2 SLV5HJITSID,
      987      987    1           3 * UBIN WORD INIT(BITBIN('6152'O)),
      988      988    1           3 * UBIN HALF UNAL INIT(356),
      989      989    1           3 * UBIN HALF UNAL INIT(0),
      990      990    1         2 SLV5PTSID,
      991      991    1           3 * UBIN WORD INIT(BITBIN('6142'O)),
      992      992    1           3 * UBIN HALF UNAL INIT(360),
      993      993    1           3 * UBIN HALF UNAL INIT(0),
      994      994    1         2 SLV6HJITSID,
      995      995    1           3 * UBIN WORD INIT(BITBIN('6153'O)),
      996      996    1           3 * UBIN HALF UNAL INIT(363),
      997      997    1           3 * UBIN HALF UNAL INIT(0),
      998      998    1         2 SLV6PTSID,
PL6.E3A0      #001=VX_SD_D File=VX_SD_D.:E05TSI                                  WED 07/30/97 08:50 Page:28
      999      999    1           3 * UBIN WORD INIT(BITBIN('6143'O)),
     1000     1000    1           3 * UBIN HALF UNAL INIT(367),
     1001     1001    1           3 * UBIN HALF UNAL INIT(0),
     1002     1002    1         2 SLV7HJITSID,
     1003     1003    1           3 * UBIN WORD INIT(BITBIN('6154'O)),
     1004     1004    1           3 * UBIN HALF UNAL INIT(370),
     1005     1005    1           3 * UBIN HALF UNAL INIT(0),
     1006     1006    1         2 SLV7PTSID,
     1007     1007    1           3 * UBIN WORD INIT(BITBIN('6144'O)),
     1008     1008    1           3 * UBIN HALF UNAL INIT(374),
     1009     1009    1           3 * UBIN HALF UNAL INIT(0),
     1010     1010    1         2 SPCL1SID,
     1011     1011    1           3 * UBIN WORD INIT(BITBIN('6021'O)),
     1012     1012    1           3 * UBIN HALF UNAL INIT(377),
     1013     1013    1           3 * UBIN HALF UNAL INIT(0),
     1014     1014    1         2 SPCL2SID,
     1015     1015    1           3 * UBIN WORD INIT(BITBIN('6022'O)),
     1016     1016    1           3 * UBIN HALF UNAL INIT(380),
     1017     1017    1           3 * UBIN HALF UNAL INIT(0),
     1018     1018    1         2 SPCL3SID,
     1019     1019    1           3 * UBIN WORD INIT(BITBIN('6023'O)),
     1020     1020    1           3 * UBIN HALF UNAL INIT(383),
     1021     1021    1           3 * UBIN HALF UNAL INIT(0),
     1022     1022    1         2 SPCL4SID,
     1023     1023    1           3 * UBIN WORD INIT(BITBIN('6024'O)),
     1024     1024    1           3 * UBIN HALF UNAL INIT(386),
     1025     1025    1           3 * UBIN HALF UNAL INIT(0),
     1026     1026    1         2 SPCL5SID,
     1027     1027    1           3 * UBIN WORD INIT(BITBIN('6026'O)),
     1028     1028    1           3 * UBIN HALF UNAL INIT(389),
     1029     1029    1           3 * UBIN HALF UNAL INIT(0),
     1030     1030    1         2 SPCL6SID,
     1031     1031    1           3 * UBIN WORD INIT(BITBIN('6027'O)),
     1032     1032    1           3 * UBIN HALF UNAL INIT(392),
     1033     1033    1           3 * UBIN HALF UNAL INIT(0),
     1034     1034    1         2 SPCL7SID,
     1035     1035    1           3 * UBIN WORD INIT(BITBIN('6030'O)),
PL6.E3A0      #001=VX_SD_D File=VX_SD_D.:E05TSI                                  WED 07/30/97 08:50 Page:29
     1036     1036    1           3 * UBIN HALF UNAL INIT(395),
     1037     1037    1           3 * UBIN HALF UNAL INIT(0),
     1038     1038    1         2 SPCL8SID,
     1039     1039    1           3 * UBIN WORD INIT(BITBIN('6031'O)),
     1040     1040    1           3 * UBIN HALF UNAL INIT(398),
     1041     1041    1           3 * UBIN HALF UNAL INIT(0),
     1042     1042    1         2 SSRSID,
     1043     1043    1           3 * UBIN WORD INIT(BITBIN('1764'O)),
     1044     1044    1           3 * UBIN HALF UNAL INIT(401),
     1045     1045    1           3 * UBIN HALF UNAL INIT(0),
     1046     1046    1         2 TCBSID,
     1047     1047    1           3 * UBIN WORD INIT(BITBIN('6017'O)),
     1048     1048    1           3 * UBIN HALF UNAL INIT(403),
     1049     1049    1           3 * UBIN HALF UNAL INIT(0),
     1050     1050    1         2 TIGRSID,
     1051     1051    1           3 * UBIN WORD INIT(BITBIN('6123'O)),
     1052     1052    1           3 * UBIN HALF UNAL INIT(405),
     1053     1053    1           3 * UBIN HALF UNAL INIT(0),
     1054     1054    1         2 TSTACKSID,
     1055     1055    1           3 * UBIN WORD INIT(BITBIN('6020'O)),
     1056     1056    1           3 * UBIN HALF UNAL INIT(408),
     1057     1057    1           3 * UBIN HALF UNAL INIT(0),
     1058     1058    1         2 UPTSID,
     1059     1059    1           3 * UBIN WORD INIT(BITBIN('6036'O)),
     1060     1060    1           3 * UBIN HALF UNAL INIT(411),
     1061     1061    1           3 * UBIN HALF UNAL INIT(0),
     1062     1062    1         2 USERHJITSID,
     1063     1063    1           3 * UBIN WORD INIT(BITBIN('6045'O)),
     1064     1064    1           3 * UBIN HALF UNAL INIT(413),
     1065     1065    1           3 * UBIN HALF UNAL INIT(0),
     1066     1066    1         2 USERISSID,
     1067     1067    1           3 * UBIN WORD INIT(BITBIN('6040'O)),
     1068     1068    1           3 * UBIN HALF UNAL INIT(417),
     1069     1069    1           3 * UBIN HALF UNAL INIT(0),
     1070     1070    1         2 USERLSSID,
     1071     1071    1           3 * UBIN WORD INIT(BITBIN('6031'O)),
     1072     1072    1           3 * UBIN HALF UNAL INIT(420),
PL6.E3A0      #001=VX_SD_D File=VX_SD_D.:E05TSI                                  WED 07/30/97 08:50 Page:30
     1073     1073    1           3 * UBIN HALF UNAL INIT(0),
     1074     1074    1         2 USERSSSID,
     1075     1075    1           3 * UBIN WORD INIT(BITBIN('6022'O)),
     1076     1076    1           3 * UBIN HALF UNAL INIT(423),
     1077     1077    1           3 * UBIN HALF UNAL INIT(0),
     1078     1078    1         2 VPTSID,
     1079     1079    1           3 * UBIN WORD INIT(BITBIN('6117'O)),
     1080     1080    1           3 * UBIN HALF UNAL INIT(426),
     1081     1081    1           3 * UBIN HALF UNAL INIT(0),
     1082     1082    1         2 WINDOWSID,
     1083     1083    1           3 * UBIN WORD INIT(BITBIN('6052'O)),
     1084     1084    1           3 * UBIN HALF UNAL INIT(429),
     1085     1085    1           3 * UBIN HALF UNAL INIT(0),
     1086     1086    1         2 WS3MLSNWSID,
     1087     1087    1           3 * UBIN WORD INIT(BITBIN('6160'O)),
     1088     1088    1           3 * UBIN HALF UNAL INIT(432),
     1089     1089    1           3 * UBIN HALF UNAL INIT(0),
     1090     1090    1         2 WS3MLSSID,
     1091     1091    1           3 * UBIN WORD INIT(BITBIN('6133'O)),
     1092     1092    1           3 * UBIN HALF UNAL INIT(436),
     1093     1093    1           3 * UBIN HALF UNAL INIT(0),
     1094     1094    1         2 XDLTENTSID,
     1095     1095    1           3 * UBIN WORD INIT(BITBIN('6026'O)),
     1096     1096    1           3 * UBIN HALF UNAL INIT(439),
     1097     1097    1           3 * UBIN HALF UNAL INIT(0),
     1098     1098    1         2 XDRTNSID,
     1099     1099    1           3 * UBIN WORD INIT(BITBIN('6126'O)),
     1100     1100    1           3 * UBIN HALF UNAL INIT(442),
     1101     1101    1           3 * UBIN HALF UNAL INIT(0),
     1102     1102    1         2 IMXSID,
     1103     1103    1           3 * UBIN WORD INIT(BITBIN('6162'O)),
     1104     1104    1           3 * UBIN HALF UNAL INIT(445),
     1105     1105    1           3 * UBIN HALF UNAL INIT(0);
     1106     1106        %EJECT;
PL6.E3A0      #001=VX_SD_D File=VX_SD_D.:E05TSI                                  WED 07/30/97 08:50 Page:31
     1107     1107    1   DCL VX_SN_SIZEW  UBIN CONSTANT SYMDEF INIT( SIZEW(VX_SN) );
     1108     1108    1   DCL VX_SD_SIZEW  UBIN CONSTANT SYMDEF INIT( SIZEW(VX_SD) );
     1109     1109    1   DCL VX_SN_STOP$ PTR CONSTANT SYMDEF INIT(ADDR(VX_SN.IMXSID));
     1110     1110    1   DCL VX_SD_STOP$ PTR CONSTANT SYMDEF INIT(ADDR(VX_SD.IMXSID));
     1111     1111
     1112     1112
     1113     1113    1   END VX_SD_D;

PL6.E3A0      #001=VX_SD_D File=VX_SD_D.:E05TSI                                  WED 07/30/97 08:50 Page:32
      No diagnostics issued in procedure VX_SD_D.

   No code generated for procedure VX_SD_D .
   Procedure VX_SD_D requires 4 words of local(AUTO) storage.

    No errors detected in file VX_SD_D.:E05TSI    .

PL6.E3A0      #001=VX_SD_D File=VX_SD_D.:E05TSI                                  WED 07/30/97 08:50 Page:33

 Object Unit name= VX_SD_D                                    File name= VX_SD_D.:E05TOU
 UTS= JUL 30 '97 08:50:56.96 WED                              Compiler= PL-6/E31         Sev=      00
 SharedLib= :SHARED_SYSTEM                                    Alt SharedLib=


    ****  Control sections  ****

 Sect   Type Bound  Init  Size OctSiz  Section name(segment info)
    0  RoData even  UTS    764   1374  VX_SD_D
    1   Proc  even  none     0      0  VX_SD_D

    ****  Entry defs  ****

                              Check   Calling
                             calling  sequence
  Sect OctLoc Primary Altret sequence   type   Parms  Name
     1      0   yes            yes     ~proc       0  VX_SD_D

  ****  Data defs  ****

 Sect OctLoc  Name                           Sect OctLoc  Name
    0      0  VX_SN                              0    700  VX_SD
    0   1370  VX_SN_SIZEW                        0   1371  VX_SD_SIZEW
    0   1372  VX_SN_STOP$                        0   1373  VX_SD_STOP$

  ****  Segment refs  ****

  Flags:  r = read only, s = secondary
Flgs Name                             Flgs Name                             Flgs Name
     ISSID
PL6.E3A0      #001=VX_SD_D File=VX_SD_D.:E05TSI                                  WED 07/30/97 08:50 Page:34

        1        1        /*M* VX_SD_D - defines segdefs for all segments known by the linker */
        2        2        /*T***********************************************************/
        3        3        /*T*                                                         */
        4        4        /*T* Copyright (c) Bull HN Information Systems Inc., 1997    */
        5        5        /*T*                                                         */
        6        6        /*T***********************************************************/
        7        7
        8        8        VX_SD_D:   PROC;
        9        9
       10       10
       11       11    1   DCL 1 VX_SN ALIGNED CONSTANT SYMDEF,
       12       12    1         2 AARDV2SID,                                          /* 0 */
       13       13    1           3 * UBIN HALF UNAL INIT(9),
       14       14    1           3 * CHAR(10) INIT('AARDV2SID'),
       15       15    1         2 ASLENTSID,                                          /* 3 */
       16       16    1           3 * UBIN HALF UNAL INIT(9),
       17       17    1           3 * CHAR(10) INIT('ASLENTSID'),
       18       18    1         2 ASLLSSID,                                           /* 6 */
       19       19    1           3 * UBIN HALF UNAL INIT(8),
       20       20    1           3 * CHAR(10) INIT('ASLLSSID'),
       21       21    1         2 ASRSID,                                             /* 9 */
       22       22    1           3 * UBIN HALF UNAL INIT(6),
       23       23    1           3 * CHAR(6) INIT('ASRSID'),
       24       24    1         2 ASSID,                                              /* 11 */
       25       25    1           3 * UBIN HALF UNAL INIT(5),
       26       26    1           3 * CHAR(6) INIT('ASSID'),
       27       27    1         2 AUTOSID,                                            /* 13 */
       28       28    1           3 * UBIN HALF UNAL INIT(7),
       29       29    1           3 * CHAR(10) INIT('AUTOSID'),
       30       30    1         2 BUFCACHESID,                                        /* 16 */
       31       31    1           3 * UBIN HALF UNAL INIT(11),
       32       32    1           3 * CHAR(14) INIT('BUFCACHESID'),
       33       33    1         2 BUFSID,                                             /* 20 */
       34       34    1           3 * UBIN HALF UNAL INIT(6),
       35       35    1           3 * CHAR(6) INIT('BUFSID'),
       36       36    1         2 CDTFSID,                                            /* 22 */
       37       37    1           3 * UBIN HALF UNAL INIT(7),
PL6.E3A0      #001=VX_SD_D File=VX_SD_D.:E05TSI                                  WED 07/30/97 08:50 Page:35
       38       38    1           3 * CHAR(10) INIT('CDTFSID'),
       39       39    1         2 CGCTXTSID,                                          /* 25 */
       40       40    1           3 * UBIN HALF UNAL INIT(9),
       41       41    1           3 * CHAR(10) INIT('CGCTXTSID'),
       42       42    1         2 CGPTSID,                                            /* 28 */
       43       43    1           3 * UBIN HALF UNAL INIT(7),
       44       44    1           3 * CHAR(10) INIT('CGPTSID'),
       45       45    1         2 COMMONSID,                                          /* 31 */
       46       46    1           3 * UBIN HALF UNAL INIT(9),
       47       47    1           3 * CHAR(10) INIT('COMMONSID'),
       48       48    1         2 CPGT10SID,                                          /* 34 */
       49       49    1           3 * UBIN HALF UNAL INIT(9),
       50       50    1           3 * CHAR(10) INIT('CPGT10SID'),
       51       51    1         2 CPGT11SID,                                          /* 37 */
       52       52    1           3 * UBIN HALF UNAL INIT(9),
       53       53    1           3 * CHAR(10) INIT('CPGT11SID'),
       54       54    1         2 CPGT12SID,                                          /* 40 */
       55       55    1           3 * UBIN HALF UNAL INIT(9),
       56       56    1           3 * CHAR(10) INIT('CPGT12SID'),
       57       57    1         2 CPGT13SID,                                          /* 43 */
       58       58    1           3 * UBIN HALF UNAL INIT(9),
       59       59    1           3 * CHAR(10) INIT('CPGT13SID'),
       60       60    1         2 CPGT14SID,                                          /* 46 */
       61       61    1           3 * UBIN HALF UNAL INIT(9),
       62       62    1           3 * CHAR(10) INIT('CPGT14SID'),
       63       63    1         2 CPGT15SID,                                          /* 49 */
       64       64    1           3 * UBIN HALF UNAL INIT(9),
       65       65    1           3 * CHAR(10) INIT('CPGT15SID'),
       66       66    1         2 CPGT16SID,                                          /* 52 */
       67       67    1           3 * UBIN HALF UNAL INIT(9),
       68       68    1           3 * CHAR(10) INIT('CPGT16SID'),
       69       69    1         2 CPGT1SID,                                           /* 55 */
       70       70    1           3 * UBIN HALF UNAL INIT(8),
       71       71    1           3 * CHAR(10) INIT('CPGT1SID'),
       72       72    1         2 CPGT2SID,                                           /* 58 */
       73       73    1           3 * UBIN HALF UNAL INIT(8),
       74       74    1           3 * CHAR(10) INIT('CPGT2SID'),
PL6.E3A0      #001=VX_SD_D File=VX_SD_D.:E05TSI                                  WED 07/30/97 08:50 Page:36
       75       75    1         2 CPGT3SID,                                           /* 61 */
       76       76    1           3 * UBIN HALF UNAL INIT(8),
       77       77    1           3 * CHAR(10) INIT('CPGT3SID'),
       78       78    1         2 CPGT4SID,                                           /* 64 */
       79       79    1           3 * UBIN HALF UNAL INIT(8),
       80       80    1           3 * CHAR(10) INIT('CPGT4SID'),
       81       81    1         2 CPGT5SID,                                           /* 67 */
       82       82    1           3 * UBIN HALF UNAL INIT(8),
       83       83    1           3 * CHAR(10) INIT('CPGT5SID'),
       84       84    1         2 CPGT6SID,                                           /* 70 */
       85       85    1           3 * UBIN HALF UNAL INIT(8),
       86       86    1           3 * CHAR(10) INIT('CPGT6SID'),
       87       87    1         2 CPGT7SID,                                           /* 73 */
       88       88    1           3 * UBIN HALF UNAL INIT(8),
       89       89    1           3 * CHAR(10) INIT('CPGT7SID'),
       90       90    1         2 CPGT8SID,                                           /* 76 */
       91       91    1           3 * UBIN HALF UNAL INIT(8),
       92       92    1           3 * CHAR(10) INIT('CPGT8SID'),
       93       93    1         2 CPGT9SID,                                           /* 79 */
       94       94    1           3 * UBIN HALF UNAL INIT(8),
       95       95    1           3 * CHAR(10) INIT('CPGT9SID'),
       96       96    1         2 CPLSSID,                                            /* 82 */
       97       97    1           3 * UBIN HALF UNAL INIT(7),
       98       98    1           3 * CHAR(10) INIT('CPLSSID'),
       99       99    1         2 CWSQ10SID,                                          /* 85 */
      100      100    1           3 * UBIN HALF UNAL INIT(9),
      101      101    1           3 * CHAR(10) INIT('CWSQ10SID'),
      102      102    1         2 CWSQ11SID,                                          /* 88 */
      103      103    1           3 * UBIN HALF UNAL INIT(9),
      104      104    1           3 * CHAR(10) INIT('CWSQ11SID'),
      105      105    1         2 CWSQ12SID,                                          /* 91 */
      106      106    1           3 * UBIN HALF UNAL INIT(9),
      107      107    1           3 * CHAR(10) INIT('CWSQ12SID'),
      108      108    1         2 CWSQ13SID,                                          /* 94 */
      109      109    1           3 * UBIN HALF UNAL INIT(9),
      110      110    1           3 * CHAR(10) INIT('CWSQ13SID'),
      111      111    1         2 CWSQ14SID,                                          /* 97 */
PL6.E3A0      #001=VX_SD_D File=VX_SD_D.:E05TSI                                  WED 07/30/97 08:50 Page:37
      112      112    1           3 * UBIN HALF UNAL INIT(9),
      113      113    1           3 * CHAR(10) INIT('CWSQ14SID'),
      114      114    1         2 CWSQ15SID,                                          /* 100 */
      115      115    1           3 * UBIN HALF UNAL INIT(9),
      116      116    1           3 * CHAR(10) INIT('CWSQ15SID'),
      117      117    1         2 CWSQ16SID,                                          /* 103 */
      118      118    1           3 * UBIN HALF UNAL INIT(9),
      119      119    1           3 * CHAR(10) INIT('CWSQ16SID'),
      120      120    1         2 CWSQ1SID,                                           /* 106 */
      121      121    1           3 * UBIN HALF UNAL INIT(8),
      122      122    1           3 * CHAR(10) INIT('CWSQ1SID'),
      123      123    1         2 CWSQ2SID,                                           /* 109 */
      124      124    1           3 * UBIN HALF UNAL INIT(8),
      125      125    1           3 * CHAR(10) INIT('CWSQ2SID'),
      126      126    1         2 CWSQ3SID,                                           /* 112 */
      127      127    1           3 * UBIN HALF UNAL INIT(8),
      128      128    1           3 * CHAR(10) INIT('CWSQ3SID'),
      129      129    1         2 CWSQ4SID,                                           /* 115 */
      130      130    1           3 * UBIN HALF UNAL INIT(8),
      131      131    1           3 * CHAR(10) INIT('CWSQ4SID'),
      132      132    1         2 CWSQ5SID,                                           /* 118 */
      133      133    1           3 * UBIN HALF UNAL INIT(8),
      134      134    1           3 * CHAR(10) INIT('CWSQ5SID'),
      135      135    1         2 CWSQ6SID,                                           /* 121 */
      136      136    1           3 * UBIN HALF UNAL INIT(8),
      137      137    1           3 * CHAR(10) INIT('CWSQ6SID'),
      138      138    1         2 CWSQ7SID,                                           /* 124 */
      139      139    1           3 * UBIN HALF UNAL INIT(8),
      140      140    1           3 * CHAR(10) INIT('CWSQ7SID'),
      141      141    1         2 CWSQ8SID,                                           /* 127 */
      142      142    1           3 * UBIN HALF UNAL INIT(8),
      143      143    1           3 * CHAR(10) INIT('CWSQ8SID'),
      144      144    1         2 CWSQ9SID,                                           /* 130 */
      145      145    1           3 * UBIN HALF UNAL INIT(8),
      146      146    1           3 * CHAR(10) INIT('CWSQ9SID'),
      147      147    1         2 DBLSSID,                                            /* 133 */
      148      148    1           3 * UBIN HALF UNAL INIT(7),
PL6.E3A0      #001=VX_SD_D File=VX_SD_D.:E05TSI                                  WED 07/30/97 08:50 Page:38
      149      149    1           3 * CHAR(10) INIT('DBLSSID'),
      150      150    1         2 DR0SID,                                             /* 136 */
      151      151    1           3 * UBIN HALF UNAL INIT(6),
      152      152    1           3 * CHAR(6) INIT('DR0SID'),
      153      153    1         2 DR1SID,                                             /* 138 */
      154      154    1           3 * UBIN HALF UNAL INIT(6),
      155      155    1           3 * CHAR(6) INIT('DR1SID'),
      156      156    1         2 DR2SID,                                             /* 140 */
      157      157    1           3 * UBIN HALF UNAL INIT(6),
      158      158    1           3 * CHAR(6) INIT('DR2SID'),
      159      159    1         2 DR3SID,                                             /* 142 */
      160      160    1           3 * UBIN HALF UNAL INIT(6),
      161      161    1           3 * CHAR(6) INIT('DR3SID'),
      162      162    1         2 DR4SID,                                             /* 144 */
      163      163    1           3 * UBIN HALF UNAL INIT(6),
      164      164    1           3 * CHAR(6) INIT('DR4SID'),
      165      165    1         2 DR5SID,                                             /* 146 */
      166      166    1           3 * UBIN HALF UNAL INIT(6),
      167      167    1           3 * CHAR(6) INIT('DR5SID'),
      168      168    1         2 DR6SID,                                             /* 148 */
      169      169    1           3 * UBIN HALF UNAL INIT(6),
      170      170    1           3 * CHAR(6) INIT('DR6SID'),
      171      171    1         2 DR7SID,                                             /* 150 */
      172      172    1           3 * UBIN HALF UNAL INIT(6),
      173      173    1           3 * CHAR(6) INIT('DR7SID'),
      174      174    1         2 AS0SID,                                             /* 152 */
      175      175    1           3 * UBIN HALF UNAL INIT(6),
      176      176    1           3 * CHAR(6) INIT('AS0SID'),
      177      177    1         2 DS1SID,                                             /* 154 */
      178      178    1           3 * UBIN HALF UNAL INIT(6),
      179      179    1           3 * CHAR(6) INIT('DS1SID'),
      180      180    1         2 DS2SID,                                             /* 156 */
      181      181    1           3 * UBIN HALF UNAL INIT(6),
      182      182    1           3 * CHAR(6) INIT('DS2SID'),
      183      183    1         2 DS3SID,                                             /* 158 */
      184      184    1           3 * UBIN HALF UNAL INIT(6),
      185      185    1           3 * CHAR(6) INIT('DS3SID'),
PL6.E3A0      #001=VX_SD_D File=VX_SD_D.:E05TSI                                  WED 07/30/97 08:50 Page:39
      186      186    1         2 DS4SID,                                             /* 160 */
      187      187    1           3 * UBIN HALF UNAL INIT(6),
      188      188    1           3 * CHAR(6) INIT('DS4SID'),
      189      189    1         2 DS5SID,                                             /* 162 */
      190      190    1           3 * UBIN HALF UNAL INIT(6),
      191      191    1           3 * CHAR(6) INIT('DS5SID'),
      192      192    1         2 DS6SID,                                             /* 164 */
      193      193    1           3 * UBIN HALF UNAL INIT(6),
      194      194    1           3 * CHAR(6) INIT('DS6SID'),
      195      195    1         2 DS7SID,                                             /* 166 */
      196      196    1           3 * UBIN HALF UNAL INIT(6),
      197      197    1           3 * CHAR(6) INIT('DS7SID'),
      198      198    1         2 DS8SID,                                             /* 168 */
      199      199    1           3 * UBIN HALF UNAL INIT(6),
      200      200    1           3 * CHAR(6) INIT('DS8SID'),
      201      201    1         2 DSDRSID,                                            /* 170 */
      202      202    1           3 * UBIN HALF UNAL INIT(7),
      203      203    1           3 * CHAR(10) INIT('DSDRSID'),
      204      204    1         2 ECCBSID,                                            /* 173 */
      205      205    1           3 * UBIN HALF UNAL INIT(7),
      206      206    1           3 * CHAR(10) INIT('ECCBSID'),
      207      207    1         2 FIRMSID,                                            /* 176 */
      208      208    1           3 * UBIN HALF UNAL INIT(7),
      209      209    1           3 * CHAR(10) INIT('FIRMSID'),
      210      210    1         2 IOENDSID,                                           /* 179 */
      211      211    1           3 * UBIN HALF UNAL INIT(8),
      212      212    1           3 * CHAR(10) INIT('IOENDSID'),
      213      213    1         2 IS2SID,                                             /* 182 */
      214      214    1           3 * UBIN HALF UNAL INIT(6),
      215      215    1           3 * CHAR(6) INIT('IS2SID'),
      216      216    1         2 ISBSID,                                             /* 184 */
      217      217    1           3 * UBIN HALF UNAL INIT(6),
      218      218    1           3 * CHAR(6) INIT('ISBSID'),
      219      219    1         2 ISRSID,                                             /* 186 */
      220      220    1           3 * UBIN HALF UNAL INIT(6),
      221      221    1           3 * CHAR(6) INIT('ISRSID'),
      222      222    1         2 ISSID,                                              /* 188 */
PL6.E3A0      #001=VX_SD_D File=VX_SD_D.:E05TSI                                  WED 07/30/97 08:50 Page:40
      223      223    1           3 * UBIN HALF UNAL INIT(5),
      224      224    1           3 * CHAR(6) INIT('ISSID'),
      225      225    1         2 JITPGSID,                                           /* 190 */
      226      226    1           3 * UBIN HALF UNAL INIT(8),
      227      227    1           3 * CHAR(10) INIT('JITPGSID'),
      228      228    1         2 JITSID,                                             /* 193 */
      229      229    1           3 * UBIN HALF UNAL INIT(6),
      230      230    1           3 * CHAR(6) INIT('JITSID'),
      231      231    1         2 LDCTNCSID,                                          /* 195 */
      232      232    1           3 * UBIN HALF UNAL INIT(9),
      233      233    1           3 * CHAR(10) INIT('LDCTNCSID'),
      234      234    1         2 LDCTSID,                                            /* 198 */
      235      235    1           3 * UBIN HALF UNAL INIT(7),
      236      236    1           3 * CHAR(10) INIT('LDCTSID'),
      237      237    1         2 LOWMEMSID,                                          /* 201 */
      238      238    1           3 * UBIN HALF UNAL INIT(9),
      239      239    1           3 * CHAR(10) INIT('LOWMEMSID'),
      240      240    1         2 LSREADSID,                                          /* 204 */
      241      241    1           3 * UBIN HALF UNAL INIT(9),
      242      242    1           3 * CHAR(10) INIT('LSREADSID'),
      243      243    1         2 LSRSID,                                             /* 207 */
      244      244    1           3 * UBIN HALF UNAL INIT(6),
      245      245    1           3 * CHAR(6) INIT('LSRSID'),
      246      246    1         2 LSSID,                                              /* 209 */
      247      247    1           3 * UBIN HALF UNAL INIT(5),
      248      248    1           3 * CHAR(6) INIT('LSSID'),
      249      249    1         2 MAGICASSID,                                         /* 211 */
      250      250    1           3 * UBIN HALF UNAL INIT(10),
      251      251    1           3 * CHAR(10) INIT('MAGICASSID'),
      252      252    1         2 MAGICECCBSID,                                       /* 214 */
      253      253    1           3 * UBIN HALF UNAL INIT(12),
      254      254    1           3 * CHAR(14) INIT('MAGICECCBSID'),
      255      255    1         2 MAGICLSSID,                                         /* 218 */
      256      256    1           3 * UBIN HALF UNAL INIT(10),
      257      257    1           3 * CHAR(10) INIT('MAGICLSSID'),
      258      258    1         2 MAGICPSSID,                                         /* 221 */
      259      259    1           3 * UBIN HALF UNAL INIT(10),
PL6.E3A0      #001=VX_SD_D File=VX_SD_D.:E05TSI                                  WED 07/30/97 08:50 Page:41
      260      260    1           3 * CHAR(10) INIT('MAGICPSSID'),
      261      261    1         2 MAGICSSSID,                                         /* 224 */
      262      262    1           3 * UBIN HALF UNAL INIT(10),
      263      263    1           3 * CHAR(10) INIT('MAGICSSSID'),
      264      264    1         2 MAGICTCBSID,                                        /* 227 */
      265      265    1           3 * UBIN HALF UNAL INIT(11),
      266      266    1           3 * CHAR(14) INIT('MAGICTCBSID'),
      267      267    1         2 MASTERHJITSID,                                      /* 231 */
      268      268    1           3 * UBIN HALF UNAL INIT(13),
      269      269    1           3 * CHAR(14) INIT('MASTERHJITSID'),
      270      270    1         2 MASTERPTSID,                                        /* 235 */
      271      271    1           3 * UBIN HALF UNAL INIT(11),
      272      272    1           3 * CHAR(14) INIT('MASTERPTSID'),
      273      273    1         2 MAXMONSID,                                          /* 239 */
      274      274    1           3 * UBIN HALF UNAL INIT(9),
      275      275    1           3 * CHAR(10) INIT('MAXMONSID'),
      276      276    1         2 MAXUSERSID,                                         /* 242 */
      277      277    1           3 * UBIN HALF UNAL INIT(10),
      278      278    1           3 * CHAR(10) INIT('MAXUSERSID'),
      279      279    1         2 MHJITSID,                                           /* 245 */
      280      280    1           3 * UBIN HALF UNAL INIT(8),
      281      281    1           3 * CHAR(10) INIT('MHJITSID'),
      282      282    1         2 MISC2SID,                                           /* 248 */
      283      283    1           3 * UBIN HALF UNAL INIT(8),
      284      284    1           3 * CHAR(10) INIT('MISC2SID'),
      285      285    1         2 MISCSID,                                            /* 251 */
      286      286    1           3 * UBIN HALF UNAL INIT(7),
      287      287    1           3 * CHAR(10) INIT('MISCSID'),
      288      288    1         2 MJITSID,                                            /* 254 */
      289      289    1           3 * UBIN HALF UNAL INIT(7),
      290      290    1           3 * CHAR(10) INIT('MJITSID'),
      291      291    1         2 MLS1SID,                                            /* 257 */
      292      292    1           3 * UBIN HALF UNAL INIT(7),
      293      293    1           3 * CHAR(10) INIT('MLS1SID'),
      294      294    1         2 MONSSSID,                                           /* 260 */
      295      295    1           3 * UBIN HALF UNAL INIT(8),
      296      296    1           3 * CHAR(10) INIT('MONSSSID'),
PL6.E3A0      #001=VX_SD_D File=VX_SD_D.:E05TSI                                  WED 07/30/97 08:50 Page:42
      297      297    1         2 MOUSESID,                                           /* 263 */
      298      298    1           3 * UBIN HALF UNAL INIT(8),
      299      299    1           3 * CHAR(10) INIT('MOUSESID'),
      300      300    1         2 MPTSID,                                             /* 266 */
      301      301    1           3 * UBIN HALF UNAL INIT(6),
      302      302    1           3 * CHAR(6) INIT('MPTSID'),
      303      303    1         2 MTSTACKSID,                                         /* 268 */
      304      304    1           3 * UBIN HALF UNAL INIT(10),
      305      305    1           3 * CHAR(10) INIT('MTSTACKSID'),
      306      306    1         2 NULLSID,                                            /* 271 */
      307      307    1           3 * UBIN HALF UNAL INIT(7),
      308      308    1           3 * CHAR(10) INIT('NULLSID'),
      309      309    1         2 PIASID,                                             /* 274 */
      310      310    1           3 * UBIN HALF UNAL INIT(6),
      311      311    1           3 * CHAR(6) INIT('PIASID'),
      312      312    1         2 PMMENTSID,                                          /* 276 */
      313      313    1           3 * UBIN HALF UNAL INIT(9),
      314      314    1           3 * CHAR(10) INIT('PMMENTSID'),
      315      315    1         2 PMMESID,                                            /* 279 */
      316      316    1           3 * UBIN HALF UNAL INIT(7),
      317      317    1           3 * CHAR(10) INIT('PMMESID'),
      318      318    1         2 PPUTSID,                                            /* 282 */
      319      319    1           3 * UBIN HALF UNAL INIT(7),
      320      320    1           3 * CHAR(10) INIT('PPUTSID'),
      321      321    1         2 PRIVSID,                                            /* 285 */
      322      322    1           3 * UBIN HALF UNAL INIT(7),
      323      323    1           3 * CHAR(10) INIT('PRIVSID'),
      324      324    1         2 PSRSID,                                             /* 288 */
      325      325    1           3 * UBIN HALF UNAL INIT(6),
      326      326    1           3 * CHAR(6) INIT('PSRSID'),
      327      327    1         2 RCVENTSID,                                          /* 290 */
      328      328    1           3 * UBIN HALF UNAL INIT(9),
      329      329    1           3 * CHAR(10) INIT('RCVENTSID'),
      330      330    1         2 RCVRTNSID,                                          /* 293 */
      331      331    1           3 * UBIN HALF UNAL INIT(9),
      332      332    1           3 * CHAR(10) INIT('RCVRTNSID'),
      333      333    1         2 REALSID,                                            /* 296 */
PL6.E3A0      #001=VX_SD_D File=VX_SD_D.:E05TSI                                  WED 07/30/97 08:50 Page:43
      334      334    1           3 * UBIN HALF UNAL INIT(7),
      335      335    1           3 * CHAR(10) INIT('REALSID'),
      336      336    1         2 REGENTSID,                                          /* 299 */
      337      337    1           3 * UBIN HALF UNAL INIT(9),
      338      338    1           3 * CHAR(10) INIT('REGENTSID'),
      339      339    1         2 RONCSID,                                            /* 302 */
      340      340    1           3 * UBIN HALF UNAL INIT(7),
      341      341    1           3 * CHAR(10) INIT('RONCSID'),
      342      342    1         2 ROSEG8SID,                                          /* 305 */
      343      343    1           3 * UBIN HALF UNAL INIT(9),
      344      344    1           3 * CHAR(10) INIT('ROSEG8SID'),
      345      345    1         2 ROSID,                                              /* 308 */
      346      346    1           3 * UBIN HALF UNAL INIT(5),
      347      347    1           3 * CHAR(6) INIT('ROSID'),
      348      348    1         2 SBUF1SID,                                           /* 310 */
      349      349    1           3 * UBIN HALF UNAL INIT(8),
      350      350    1           3 * CHAR(10) INIT('SBUF1SID'),
      351      351    1         2 SBUF2SID,                                           /* 313 */
      352      352    1           3 * UBIN HALF UNAL INIT(8),
      353      353    1           3 * CHAR(10) INIT('SBUF2SID'),
      354      354    1         2 SCRCHENTSID,                                        /* 316 */
      355      355    1           3 * UBIN HALF UNAL INIT(11),
      356      356    1           3 * CHAR(14) INIT('SCRCHENTSID'),
      357      357    1         2 SCUSID,                                             /* 320 */
      358      358    1           3 * UBIN HALF UNAL INIT(6),
      359      359    1           3 * CHAR(6) INIT('SCUSID'),
      360      360    1         2 SDS0SID,                                            /* 322 */
      361      361    1           3 * UBIN HALF UNAL INIT(7),
      362      362    1           3 * CHAR(10) INIT('SDS0SID'),
      363      363    1         2 SDS1SID,                                            /* 325 */
      364      364    1           3 * UBIN HALF UNAL INIT(7),
      365      365    1           3 * CHAR(10) INIT('SDS1SID'),
      366      366    1         2 SLV1HJITSID,                                        /* 328 */
      367      367    1           3 * UBIN HALF UNAL INIT(11),
      368      368    1           3 * CHAR(14) INIT('SLV1HJITSID'),
      369      369    1         2 SLV1PTSID,                                          /* 332 */
      370      370    1           3 * UBIN HALF UNAL INIT(9),
PL6.E3A0      #001=VX_SD_D File=VX_SD_D.:E05TSI                                  WED 07/30/97 08:50 Page:44
      371      371    1           3 * CHAR(10) INIT('SLV1PTSID'),
      372      372    1         2 SLV2HJITSID,                                        /* 335 */
      373      373    1           3 * UBIN HALF UNAL INIT(11),
      374      374    1           3 * CHAR(14) INIT('SLV2HJITSID'),
      375      375    1         2 SLV2PTSID,                                          /* 339 */
      376      376    1           3 * UBIN HALF UNAL INIT(9),
      377      377    1           3 * CHAR(10) INIT('SLV2PTSID'),
      378      378    1         2 SLV3HJITSID,                                        /* 342 */
      379      379    1           3 * UBIN HALF UNAL INIT(11),
      380      380    1           3 * CHAR(14) INIT('SLV3HJITSID'),
      381      381    1         2 SLV3PTSID,                                          /* 346 */
      382      382    1           3 * UBIN HALF UNAL INIT(9),
      383      383    1           3 * CHAR(10) INIT('SLV3PTSID'),
      384      384    1         2 SLV4HJITSID,                                        /* 349 */
      385      385    1           3 * UBIN HALF UNAL INIT(11),
      386      386    1           3 * CHAR(14) INIT('SLV4HJITSID'),
      387      387    1         2 SLV4PTSID,                                          /* 353 */
      388      388    1           3 * UBIN HALF UNAL INIT(9),
      389      389    1           3 * CHAR(10) INIT('SLV4PTSID'),
      390      390    1         2 SLV5HJITSID,                                        /* 356 */
      391      391    1           3 * UBIN HALF UNAL INIT(11),
      392      392    1           3 * CHAR(14) INIT('SLV5HJITSID'),
      393      393    1         2 SLV5PTSID,                                          /* 360 */
      394      394    1           3 * UBIN HALF UNAL INIT(9),
      395      395    1           3 * CHAR(10) INIT('SLV5PTSID'),
      396      396    1         2 SLV6HJITSID,                                        /* 363 */
      397      397    1           3 * UBIN HALF UNAL INIT(11),
      398      398    1           3 * CHAR(14) INIT('SLV6HJITSID'),
      399      399    1         2 SLV6PTSID,                                          /* 367 */
      400      400    1           3 * UBIN HALF UNAL INIT(9),
      401      401    1           3 * CHAR(10) INIT('SLV6PTSID'),
      402      402    1         2 SLV7HJITSID,                                        /* 370 */
      403      403    1           3 * UBIN HALF UNAL INIT(11),
      404      404    1           3 * CHAR(14) INIT('SLV7HJITSID'),
      405      405    1         2 SLV7PTSID,                                          /* 374 */
      406      406    1           3 * UBIN HALF UNAL INIT(9),
      407      407    1           3 * CHAR(10) INIT('SLV7PTSID'),
PL6.E3A0      #001=VX_SD_D File=VX_SD_D.:E05TSI                                  WED 07/30/97 08:50 Page:45
      408      408    1         2 SPCL1SID,                                           /* 377 */
      409      409    1           3 * UBIN HALF UNAL INIT(8),
      410      410    1           3 * CHAR(10) INIT('SPCL1SID'),
      411      411    1         2 SPCL2SID,                                           /* 380 */
      412      412    1           3 * UBIN HALF UNAL INIT(8),
      413      413    1           3 * CHAR(10) INIT('SPCL2SID'),
      414      414    1         2 SPCL3SID,                                           /* 383 */
      415      415    1           3 * UBIN HALF UNAL INIT(8),
      416      416    1           3 * CHAR(10) INIT('SPCL3SID'),
      417      417    1         2 SPCL4SID,                                           /* 386 */
      418      418    1           3 * UBIN HALF UNAL INIT(8),
      419      419    1           3 * CHAR(10) INIT('SPCL4SID'),
      420      420    1         2 SPCL5SID,                                           /* 389 */
      421      421    1           3 * UBIN HALF UNAL INIT(8),
      422      422    1           3 * CHAR(10) INIT('SPCL5SID'),
      423      423    1         2 SPCL6SID,                                           /* 392 */
      424      424    1           3 * UBIN HALF UNAL INIT(8),
      425      425    1           3 * CHAR(10) INIT('SPCL6SID'),
      426      426    1         2 SPCL7SID,                                           /* 395 */
      427      427    1           3 * UBIN HALF UNAL INIT(8),
      428      428    1           3 * CHAR(10) INIT('SPCL7SID'),
      429      429    1         2 SPCL8SID,                                           /* 398 */
      430      430    1           3 * UBIN HALF UNAL INIT(8),
      431      431    1           3 * CHAR(10) INIT('SPCL8SID'),
      432      432    1         2 SSRSID,                                             /* 401 */
      433      433    1           3 * UBIN HALF UNAL INIT(6),
      434      434    1           3 * CHAR(6) INIT('SSRSID'),
      435      435    1         2 TCBSID,                                             /* 403 */
      436      436    1           3 * UBIN HALF UNAL INIT(6),
      437      437    1           3 * CHAR(6) INIT('TCBSID'),
      438      438    1         2 TIGRSID,                                            /* 405 */
      439      439    1           3 * UBIN HALF UNAL INIT(7),
      440      440    1           3 * CHAR(10) INIT('TIGRSID'),
      441      441    1         2 TSTACKSID,                                          /* 408 */
      442      442    1           3 * UBIN HALF UNAL INIT(9),
      443      443    1           3 * CHAR(10) INIT('TSTACKSID'),
      444      444    1         2 UPTSID,                                             /* 411 */
PL6.E3A0      #001=VX_SD_D File=VX_SD_D.:E05TSI                                  WED 07/30/97 08:50 Page:46
      445      445    1           3 * UBIN HALF UNAL INIT(6),
      446      446    1           3 * CHAR(6) INIT('UPTSID'),
      447      447    1         2 USERHJITSID,                                        /* 413 */
      448      448    1           3 * UBIN HALF UNAL INIT(11),
      449      449    1           3 * CHAR(14) INIT('USERHJITSID'),
      450      450    1         2 USERISSID,                                          /* 417 */
      451      451    1           3 * UBIN HALF UNAL INIT(9),
      452      452    1           3 * CHAR(10) INIT('USERISSID'),
      453      453    1         2 USERLSSID,                                          /* 420 */
      454      454    1           3 * UBIN HALF UNAL INIT(9),
      455      455    1           3 * CHAR(10) INIT('USERLSSID'),
      456      456    1         2 USERSSSID,                                          /* 423 */
      457      457    1           3 * UBIN HALF UNAL INIT(9),
      458      458    1           3 * CHAR(10) INIT('USERSSSID'),
      459      459    1         2 VPTSID,                                          /* 426 */
      460      460    1           3 * UBIN HALF UNAL INIT(6),
      461      461    1           3 * CHAR(10) INIT('VPTSID'),
      462      462    1         2 WINDOWSID,                                          /* 429 */
      463      463    1           3 * UBIN HALF UNAL INIT(9),
      464      464    1           3 * CHAR(10) INIT('WINDOWSID'),
      465      465    1         2 WS3MLSNWSID,                                        /* 432 */
      466      466    1           3 * UBIN HALF UNAL INIT(11),
      467      467    1           3 * CHAR(14) INIT('WS3MLSNWSID'),
      468      468    1         2 WS3MLSSID,                                          /* 436 */
      469      469    1           3 * UBIN HALF UNAL INIT(9),
      470      470    1           3 * CHAR(10) INIT('WS3MLSSID'),
      471      471    1         2 XDLTENTSID,                                         /* 439 */
      472      472    1           3 * UBIN HALF UNAL INIT(10),
      473      473    1           3 * CHAR(10) INIT('XDLTENTSID'),
      474      474    1         2 XDRTNSID,                                           /* 442 */
      475      475    1           3 * UBIN HALF UNAL INIT(8),
      476      476    1           3 * CHAR(10) INIT('XDRTNSID'),
      477      477    1         2 IMXSID,                                             /* 445 */
      478      478    1           3 * UBIN HALF UNAL INIT(8),
      479      479    1           3 * CHAR(10) INIT('IMXSID');
      480      480        %EJECT;
PL6.E3A0      #001=VX_SD_D File=VX_SD_D.:E05TSI                                  WED 07/30/97 08:50 Page:47
      481      481    1   DCL 1 VX_SD ALIGNED CONSTANT SYMDEF,
      482      482    1         2 AARDV2SID,
      483      483    1           3 * UBIN WORD INIT(BITBIN('6156'O)),
      484      484    1           3 * UBIN HALF UNAL INIT(0),
      485      485    1           3 * UBIN HALF UNAL INIT(0),
      486      486    1         2 ASLENTSID,
      487      487    1           3 * UBIN WORD INIT(BITBIN('6025'O)),
      488      488    1           3 * UBIN HALF UNAL INIT(3),
      489      489    1           3 * UBIN HALF UNAL INIT(0),
      490      490    1         2 ASLLSSID,
      491      491    1           3 * UBIN WORD INIT(BITBIN('6033'O)),
      492      492    1           3 * UBIN HALF UNAL INIT(6),
      493      493    1           3 * UBIN HALF UNAL INIT(0),
      494      494    1         2 ASRSID,
      495      495    1           3 * UBIN WORD INIT(BITBIN('1766'O)),
      496      496    1           3 * UBIN HALF UNAL INIT(9),
      497      497    1           3 * UBIN HALF UNAL INIT(0),
      498      498    1         2 ASSID,
      499      499    1           3 * UBIN WORD INIT(BITBIN('6053'O)),
      500      500    1           3 * UBIN HALF UNAL INIT(11),
      501      501    1           3 * UBIN HALF UNAL INIT(0),
      502      502    1         2 AUTOSID,
      503      503    1           3 * UBIN WORD INIT(BITBIN('6004'O)),
      504      504    1           3 * UBIN HALF UNAL INIT(13),
      505      505    1           3 * UBIN HALF UNAL INIT(0),
      506      506    1         2 BUFCACHESID,
      507      507    1           3 * UBIN WORD INIT(BITBIN('6161'O)),
      508      508    1           3 * UBIN HALF UNAL INIT(16),
      509      509    1           3 * UBIN HALF UNAL INIT(0),
      510      510    1         2 BUFSID,
      511      511    1           3 * UBIN WORD INIT(BITBIN('6002'O)),
      512      512    1           3 * UBIN HALF UNAL INIT(20),
      513      513    1           3 * UBIN HALF UNAL INIT(0),
      514      514    1         2 CDTFSID,
      515      515    1           3 * UBIN WORD INIT(BITBIN('1761'O)),
      516      516    1           3 * UBIN HALF UNAL INIT(22),
      517      517    1           3 * UBIN HALF UNAL INIT(0),
PL6.E3A0      #001=VX_SD_D File=VX_SD_D.:E05TSI                                  WED 07/30/97 08:50 Page:48
      518      518    1         2 CGCTXTSID,
      519      519    1           3 * UBIN WORD INIT(BITBIN('6164'O)),
      520      520    1           3 * UBIN HALF UNAL INIT(25),
      521      521    1           3 * UBIN HALF UNAL INIT(0),
      522      522    1         2 CGPTSID,
      523      523    1           3 * UBIN WORD INIT(BITBIN('6163'O)),
      524      524    1           3 * UBIN HALF UNAL INIT(28),
      525      525    1           3 * UBIN HALF UNAL INIT(0),
      526      526    1         2 COMMONSID,
      527      527    1           3 * UBIN WORD INIT(BITBIN('6005'O)),
      528      528    1           3 * UBIN HALF UNAL INIT(31),
      529      529    1           3 * UBIN HALF UNAL INIT(0),
      530      530    1         2 CPGT10SID,
      531      531    1           3 * UBIN WORD INIT(BITBIN('6106'O)),
      532      532    1           3 * UBIN HALF UNAL INIT(34),
      533      533    1           3 * UBIN HALF UNAL INIT(0),
      534      534    1         2 CPGT11SID,
      535      535    1           3 * UBIN WORD INIT(BITBIN('6107'O)),
      536      536    1           3 * UBIN HALF UNAL INIT(37),
      537      537    1           3 * UBIN HALF UNAL INIT(0),
      538      538    1         2 CPGT12SID,
      539      539    1           3 * UBIN WORD INIT(BITBIN('6110'O)),
      540      540    1           3 * UBIN HALF UNAL INIT(40),
      541      541    1           3 * UBIN HALF UNAL INIT(0),
      542      542    1         2 CPGT13SID,
      543      543    1           3 * UBIN WORD INIT(BITBIN('6111'O)),
      544      544    1           3 * UBIN HALF UNAL INIT(43),
      545      545    1           3 * UBIN HALF UNAL INIT(0),
      546      546    1         2 CPGT14SID,
      547      547    1           3 * UBIN WORD INIT(BITBIN('6112'O)),
      548      548    1           3 * UBIN HALF UNAL INIT(46),
      549      549    1           3 * UBIN HALF UNAL INIT(0),
      550      550    1         2 CPGT15SID,
      551      551    1           3 * UBIN WORD INIT(BITBIN('6113'O)),
      552      552    1           3 * UBIN HALF UNAL INIT(49),
      553      553    1           3 * UBIN HALF UNAL INIT(0),
      554      554    1         2 CPGT16SID,
PL6.E3A0      #001=VX_SD_D File=VX_SD_D.:E05TSI                                  WED 07/30/97 08:50 Page:49
      555      555    1           3 * UBIN WORD INIT(BITBIN('6114'O)),
      556      556    1           3 * UBIN HALF UNAL INIT(52),
      557      557    1           3 * UBIN HALF UNAL INIT(0),
      558      558    1         2 CPGT1SID,
      559      559    1           3 * UBIN WORD INIT(BITBIN('6075'O)),
      560      560    1           3 * UBIN HALF UNAL INIT(55),
      561      561    1           3 * UBIN HALF UNAL INIT(0),
      562      562    1         2 CPGT2SID,
      563      563    1           3 * UBIN WORD INIT(BITBIN('6076'O)),
      564      564    1           3 * UBIN HALF UNAL INIT(58),
      565      565    1           3 * UBIN HALF UNAL INIT(0),
      566      566    1         2 CPGT3SID,
      567      567    1           3 * UBIN WORD INIT(BITBIN('6077'O)),
      568      568    1           3 * UBIN HALF UNAL INIT(61),
      569      569    1           3 * UBIN HALF UNAL INIT(0),
      570      570    1         2 CPGT4SID,
      571      571    1           3 * UBIN WORD INIT(BITBIN('6100'O)),
      572      572    1           3 * UBIN HALF UNAL INIT(64),
      573      573    1           3 * UBIN HALF UNAL INIT(0),
      574      574    1         2 CPGT5SID,
      575      575    1           3 * UBIN WORD INIT(BITBIN('6101'O)),
      576      576    1           3 * UBIN HALF UNAL INIT(67),
      577      577    1           3 * UBIN HALF UNAL INIT(0),
      578      578    1         2 CPGT6SID,
      579      579    1           3 * UBIN WORD INIT(BITBIN('6102'O)),
      580      580    1           3 * UBIN HALF UNAL INIT(70),
      581      581    1           3 * UBIN HALF UNAL INIT(0),
      582      582    1         2 CPGT7SID,
      583      583    1           3 * UBIN WORD INIT(BITBIN('6103'O)),
      584      584    1           3 * UBIN HALF UNAL INIT(73),
      585      585    1           3 * UBIN HALF UNAL INIT(0),
      586      586    1         2 CPGT8SID,
      587      587    1           3 * UBIN WORD INIT(BITBIN('6104'O)),
      588      588    1           3 * UBIN HALF UNAL INIT(76),
      589      589    1           3 * UBIN HALF UNAL INIT(0),
      590      590    1         2 CPGT9SID,
      591      591    1           3 * UBIN WORD INIT(BITBIN('6105'O)),
PL6.E3A0      #001=VX_SD_D File=VX_SD_D.:E05TSI                                  WED 07/30/97 08:50 Page:50
      592      592    1           3 * UBIN HALF UNAL INIT(79),
      593      593    1           3 * UBIN HALF UNAL INIT(0),
      594      594    1         2 CPLSSID,
      595      595    1           3 * UBIN WORD INIT(BITBIN('6034'O)),
      596      596    1           3 * UBIN HALF UNAL INIT(82),
      597      597    1           3 * UBIN HALF UNAL INIT(0),
      598      598    1         2 CWSQ10SID,
      599      599    1           3 * UBIN WORD INIT(BITBIN('6066'O)),
      600      600    1           3 * UBIN HALF UNAL INIT(85),
      601      601    1           3 * UBIN HALF UNAL INIT(0),
      602      602    1         2 CWSQ11SID,
      603      603    1           3 * UBIN WORD INIT(BITBIN('6067'O)),
      604      604    1           3 * UBIN HALF UNAL INIT(88),
      605      605    1           3 * UBIN HALF UNAL INIT(0),
      606      606    1         2 CWSQ12SID,
      607      607    1           3 * UBIN WORD INIT(BITBIN('6070'O)),
      608      608    1           3 * UBIN HALF UNAL INIT(91),
      609      609    1           3 * UBIN HALF UNAL INIT(0),
      610      610    1         2 CWSQ13SID,
      611      611    1           3 * UBIN WORD INIT(BITBIN('6071'O)),
      612      612    1           3 * UBIN HALF UNAL INIT(94),
      613      613    1           3 * UBIN HALF UNAL INIT(0),
      614      614    1         2 CWSQ14SID,
      615      615    1           3 * UBIN WORD INIT(BITBIN('6072'O)),
      616      616    1           3 * UBIN HALF UNAL INIT(97),
      617      617    1           3 * UBIN HALF UNAL INIT(0),
      618      618    1         2 CWSQ15SID,
      619      619    1           3 * UBIN WORD INIT(BITBIN('6073'O)),
      620      620    1           3 * UBIN HALF UNAL INIT(100),
      621      621    1           3 * UBIN HALF UNAL INIT(0),
      622      622    1         2 CWSQ16SID,
      623      623    1           3 * UBIN WORD INIT(BITBIN('6074'O)),
      624      624    1           3 * UBIN HALF UNAL INIT(103),
      625      625    1           3 * UBIN HALF UNAL INIT(0),
      626      626    1         2 CWSQ1SID,
      627      627    1           3 * UBIN WORD INIT(BITBIN('6055'O)),
      628      628    1           3 * UBIN HALF UNAL INIT(106),
PL6.E3A0      #001=VX_SD_D File=VX_SD_D.:E05TSI                                  WED 07/30/97 08:50 Page:51
      629      629    1           3 * UBIN HALF UNAL INIT(0),
      630      630    1         2 CWSQ2SID,
      631      631    1           3 * UBIN WORD INIT(BITBIN('6056'O)),
      632      632    1           3 * UBIN HALF UNAL INIT(109),
      633      633    1           3 * UBIN HALF UNAL INIT(0),
      634      634    1         2 CWSQ3SID,
      635      635    1           3 * UBIN WORD INIT(BITBIN('6057'O)),
      636      636    1           3 * UBIN HALF UNAL INIT(112),
      637      637    1           3 * UBIN HALF UNAL INIT(0),
      638      638    1         2 CWSQ4SID,
      639      639    1           3 * UBIN WORD INIT(BITBIN('6060'O)),
      640      640    1           3 * UBIN HALF UNAL INIT(115),
      641      641    1           3 * UBIN HALF UNAL INIT(0),
      642      642    1         2 CWSQ5SID,
      643      643    1           3 * UBIN WORD INIT(BITBIN('6061'O)),
      644      644    1           3 * UBIN HALF UNAL INIT(118),
      645      645    1           3 * UBIN HALF UNAL INIT(0),
      646      646    1         2 CWSQ6SID,
      647      647    1           3 * UBIN WORD INIT(BITBIN('6062'O)),
      648      648    1           3 * UBIN HALF UNAL INIT(121),
      649      649    1           3 * UBIN HALF UNAL INIT(0),
      650      650    1         2 CWSQ7SID,
      651      651    1           3 * UBIN WORD INIT(BITBIN('6063'O)),
      652      652    1           3 * UBIN HALF UNAL INIT(124),
      653      653    1           3 * UBIN HALF UNAL INIT(0),
      654      654    1         2 CWSQ8SID,
      655      655    1           3 * UBIN WORD INIT(BITBIN('6064'O)),
      656      656    1           3 * UBIN HALF UNAL INIT(127),
      657      657    1           3 * UBIN HALF UNAL INIT(0),
      658      658    1         2 CWSQ9SID,
      659      659    1           3 * UBIN WORD INIT(BITBIN('6065'O)),
      660      660    1           3 * UBIN HALF UNAL INIT(130),
      661      661    1           3 * UBIN HALF UNAL INIT(0),
      662      662    1         2 DBLSSID,
      663      663    1           3 * UBIN WORD INIT(BITBIN('6032'O)),
      664      664    1           3 * UBIN HALF UNAL INIT(133),
      665      665    1           3 * UBIN HALF UNAL INIT(0),
PL6.E3A0      #001=VX_SD_D File=VX_SD_D.:E05TSI                                  WED 07/30/97 08:50 Page:52
      666      666    1         2 DR0SID,
      667      667    1           3 * UBIN WORD INIT(BITBIN('1770'O)),
      668      668    1           3 * UBIN HALF UNAL INIT(136),
      669      669    1           3 * UBIN HALF UNAL INIT(0),
      670      670    1         2 DR1SID,
      671      671    1           3 * UBIN WORD INIT(BITBIN('1771'O)),
      672      672    1           3 * UBIN HALF UNAL INIT(138),
      673      673    1           3 * UBIN HALF UNAL INIT(0),
      674      674    1         2 DR2SID,
      675      675    1           3 * UBIN WORD INIT(BITBIN('1772'O)),
      676      676    1           3 * UBIN HALF UNAL INIT(140),
      677      677    1           3 * UBIN HALF UNAL INIT(0),
      678      678    1         2 DR3SID,
      679      679    1           3 * UBIN WORD INIT(BITBIN('1773'O)),
      680      680    1           3 * UBIN HALF UNAL INIT(142),
      681      681    1           3 * UBIN HALF UNAL INIT(0),
      682      682    1         2 DR4SID,
      683      683    1           3 * UBIN WORD INIT(BITBIN('1774'O)),
      684      684    1           3 * UBIN HALF UNAL INIT(144),
      685      685    1           3 * UBIN HALF UNAL INIT(0),
      686      686    1         2 DR5SID,
      687      687    1           3 * UBIN WORD INIT(BITBIN('1775'O)),
      688      688    1           3 * UBIN HALF UNAL INIT(146),
      689      689    1           3 * UBIN HALF UNAL INIT(0),
      690      690    1         2 DR6SID,
      691      691    1           3 * UBIN WORD INIT(BITBIN('1776'O)),
      692      692    1           3 * UBIN HALF UNAL INIT(148),
      693      693    1           3 * UBIN HALF UNAL INIT(0),
      694      694    1         2 DR7SID,
      695      695    1           3 * UBIN WORD INIT(BITBIN('1777'O)),
      696      696    1           3 * UBIN HALF UNAL INIT(150),
      697      697    1           3 * UBIN HALF UNAL INIT(0),
      698      698    1         2 AS0SID,
      699      699    1           3 * UBIN WORD INIT(BITBIN('4000'O)),
      700      700    1           3 * UBIN HALF UNAL INIT(152),
      701      701    1           3 * UBIN HALF UNAL INIT(0),
      702      702    1         2 DS1SID,
PL6.E3A0      #001=VX_SD_D File=VX_SD_D.:E05TSI                                  WED 07/30/97 08:50 Page:53
      703      703    1           3 * UBIN WORD INIT(BITBIN('6004'O)),
      704      704    1           3 * UBIN HALF UNAL INIT(154),
      705      705    1           3 * UBIN HALF UNAL INIT(0),
      706      706    1         2 DS2SID,
      707      707    1           3 * UBIN WORD INIT(BITBIN('6005'O)),
      708      708    1           3 * UBIN HALF UNAL INIT(156),
      709      709    1           3 * UBIN HALF UNAL INIT(0),
      710      710    1         2 DS3SID,
      711      711    1           3 * UBIN WORD INIT(BITBIN('6006'O)),
      712      712    1           3 * UBIN HALF UNAL INIT(158),
      713      713    1           3 * UBIN HALF UNAL INIT(0),
      714      714    1         2 DS4SID,
      715      715    1           3 * UBIN WORD INIT(BITBIN('6007'O)),
      716      716    1           3 * UBIN HALF UNAL INIT(160),
      717      717    1           3 * UBIN HALF UNAL INIT(0),
      718      718    1         2 DS5SID,
      719      719    1           3 * UBIN WORD INIT(BITBIN('6010'O)),
      720      720    1           3 * UBIN HALF UNAL INIT(162),
      721      721    1           3 * UBIN HALF UNAL INIT(0),
      722      722    1         2 DS6SID,
      723      723    1           3 * UBIN WORD INIT(BITBIN('6011'O)),
      724      724    1           3 * UBIN HALF UNAL INIT(164),
      725      725    1           3 * UBIN HALF UNAL INIT(0),
      726      726    1         2 DS7SID,
      727      727    1           3 * UBIN WORD INIT(BITBIN('6012'O)),
      728      728    1           3 * UBIN HALF UNAL INIT(166),
      729      729    1           3 * UBIN HALF UNAL INIT(0),
      730      730    1         2 DS8SID,
      731      731    1           3 * UBIN WORD INIT(BITBIN('6013'O)),
      732      732    1           3 * UBIN HALF UNAL INIT(168),
      733      733    1           3 * UBIN HALF UNAL INIT(0),
      734      734    1         2 DSDRSID,
      735      735    1           3 * UBIN WORD INIT(BITBIN('1763'O)),
      736      736    1           3 * UBIN HALF UNAL INIT(170),
      737      737    1           3 * UBIN HALF UNAL INIT(0),
      738      738    1         2 ECCBSID,
      739      739    1           3 * UBIN WORD INIT(BITBIN('6016'O)),
PL6.E3A0      #001=VX_SD_D File=VX_SD_D.:E05TSI                                  WED 07/30/97 08:50 Page:54
      740      740    1           3 * UBIN HALF UNAL INIT(173),
      741      741    1           3 * UBIN HALF UNAL INIT(0),
      742      742    1         2 FIRMSID,
      743      743    1           3 * UBIN WORD INIT(BITBIN('6157'O)),
      744      744    1           3 * UBIN HALF UNAL INIT(176),
      745      745    1           3 * UBIN HALF UNAL INIT(0),
      746      746    1         2 IOENDSID,
      747      747    1           3 * UBIN WORD INIT(BITBIN('6122'O)),
      748      748    1           3 * UBIN HALF UNAL INIT(179),
      749      749    1           3 * UBIN HALF UNAL INIT(0),
      750      750    1         2 IS2SID,
      751      751    1           3 * UBIN WORD INIT(BITBIN('6015'O)),
      752      752    1           3 * UBIN HALF UNAL INIT(182),
      753      753    1           3 * UBIN HALF UNAL INIT(0),
      754      754    1         2 ISBSID,
      755      755    1           3 * UBIN WORD INIT(BITBIN('6050'O)),
      756      756    1           3 * UBIN HALF UNAL INIT(184),
      757      757    1           3 * UBIN HALF UNAL INIT(0),
      758      758    1         2 ISRSID,
      759      759    1           3 * UBIN WORD INIT(BITBIN('1762'O)),
      760      760    1           3 * UBIN HALF UNAL INIT(186),
      761      761    1           3 * UBIN HALF UNAL INIT(0),
      762      762    1         2 ISSID,
      763      763    1           3 * UBIN WORD INIT(BITBIN('6000'O)),
      764      764    1           3 * UBIN HALF UNAL INIT(188),
      765      765    1           3 * UBIN HALF UNAL INIT(0),
      766      766    1         2 JITPGSID,
      767      767    1           3 * UBIN WORD INIT(BITBIN('6115'O)),
      768      768    1           3 * UBIN HALF UNAL INIT(190),
      769      769    1           3 * UBIN HALF UNAL INIT(0),
      770      770    1         2 JITSID,
      771      771    1           3 * UBIN WORD INIT(BITBIN('6001'O)),
      772      772    1           3 * UBIN HALF UNAL INIT(193),
      773      773    1           3 * UBIN HALF UNAL INIT(0),
      774      774    1         2 LDCTNCSID,
      775      775    1           3 * UBIN WORD INIT(BITBIN('6134'O)),
      776      776    1           3 * UBIN HALF UNAL INIT(195),
PL6.E3A0      #001=VX_SD_D File=VX_SD_D.:E05TSI                                  WED 07/30/97 08:50 Page:55
      777      777    1           3 * UBIN HALF UNAL INIT(0),
      778      778    1         2 LDCTSID,
      779      779    1           3 * UBIN WORD INIT(BITBIN('6013'O)),
      780      780    1           3 * UBIN HALF UNAL INIT(198),
      781      781    1           3 * UBIN HALF UNAL INIT(0),
      782      782    1         2 LOWMEMSID,
      783      783    1           3 * UBIN WORD INIT(BITBIN('6121'O)),
      784      784    1           3 * UBIN HALF UNAL INIT(201),
      785      785    1           3 * UBIN HALF UNAL INIT(0),
      786      786    1         2 LSREADSID,
      787      787    1           3 * UBIN WORD INIT(BITBIN('6173'O)),
      788      788    1           3 * UBIN HALF UNAL INIT(204),
      789      789    1           3 * UBIN HALF UNAL INIT(0),
      790      790    1         2 LSRSID,
      791      791    1           3 * UBIN WORD INIT(BITBIN('1765'O)),
      792      792    1           3 * UBIN HALF UNAL INIT(207),
      793      793    1           3 * UBIN HALF UNAL INIT(0),
      794      794    1         2 LSSID,
      795      795    1           3 * UBIN WORD INIT(BITBIN('6035'O)),
      796      796    1           3 * UBIN HALF UNAL INIT(209),
      797      797    1           3 * UBIN HALF UNAL INIT(0),
      798      798    1         2 MAGICASSID,
      799      799    1           3 * UBIN WORD INIT(BITBIN('6167'O)),
      800      800    1           3 * UBIN HALF UNAL INIT(211),
      801      801    1           3 * UBIN HALF UNAL INIT(0),
      802      802    1         2 MAGICECCBSID,
      803      803    1           3 * UBIN WORD INIT(BITBIN('6172'O)),
      804      804    1           3 * UBIN HALF UNAL INIT(214),
      805      805    1           3 * UBIN HALF UNAL INIT(0),
      806      806    1         2 MAGICLSSID,
      807      807    1           3 * UBIN WORD INIT(BITBIN('6166'O)),
      808      808    1           3 * UBIN HALF UNAL INIT(218),
      809      809    1           3 * UBIN HALF UNAL INIT(0),
      810      810    1         2 MAGICPSSID,
      811      811    1           3 * UBIN WORD INIT(BITBIN('6170'O)),
      812      812    1           3 * UBIN HALF UNAL INIT(221),
      813      813    1           3 * UBIN HALF UNAL INIT(0),
PL6.E3A0      #001=VX_SD_D File=VX_SD_D.:E05TSI                                  WED 07/30/97 08:50 Page:56
      814      814    1         2 MAGICSSSID,
      815      815    1           3 * UBIN WORD INIT(BITBIN('6165'O)),
      816      816    1           3 * UBIN HALF UNAL INIT(224),
      817      817    1           3 * UBIN HALF UNAL INIT(0),
      818      818    1         2 MAGICTCBSID,
      819      819    1           3 * UBIN WORD INIT(BITBIN('6171'O)),
      820      820    1           3 * UBIN HALF UNAL INIT(227),
      821      821    1           3 * UBIN HALF UNAL INIT(0),
      822      822    1         2 MASTERHJITSID,
      823      823    1           3 * UBIN WORD INIT(BITBIN('6145'O)),
      824      824    1           3 * UBIN HALF UNAL INIT(231),
      825      825    1           3 * UBIN HALF UNAL INIT(0),
      826      826    1         2 MASTERPTSID,
      827      827    1           3 * UBIN WORD INIT(BITBIN('6135'O)),
      828      828    1           3 * UBIN HALF UNAL INIT(235),
      829      829    1           3 * UBIN HALF UNAL INIT(0),
      830      830    1         2 MAXMONSID,
      831      831    1           3 * UBIN WORD INIT(BITBIN('6173'O)),
      832      832    1           3 * UBIN HALF UNAL INIT(239),
      833      833    1           3 * UBIN HALF UNAL INIT(0),
      834      834    1         2 MAXUSERSID,
      835      835    1           3 * UBIN WORD INIT(BITBIN('6031'O)),
      836      836    1           3 * UBIN HALF UNAL INIT(242),
      837      837    1           3 * UBIN HALF UNAL INIT(0),
      838      838    1         2 MHJITSID,
      839      839    1           3 * UBIN WORD INIT(BITBIN('6043'O)),
      840      840    1           3 * UBIN HALF UNAL INIT(245),
      841      841    1           3 * UBIN HALF UNAL INIT(0),
      842      842    1         2 MISC2SID,
      843      843    1           3 * UBIN WORD INIT(BITBIN('6130'O)),
      844      844    1           3 * UBIN HALF UNAL INIT(248),
      845      845    1           3 * UBIN HALF UNAL INIT(0),
      846      846    1         2 MISCSID,
      847      847    1           3 * UBIN WORD INIT(BITBIN('6054'O)),
      848      848    1           3 * UBIN HALF UNAL INIT(251),
      849      849    1           3 * UBIN HALF UNAL INIT(0),
      850      850    1         2 MJITSID,
PL6.E3A0      #001=VX_SD_D File=VX_SD_D.:E05TSI                                  WED 07/30/97 08:50 Page:57
      851      851    1           3 * UBIN WORD INIT(BITBIN('6042'O)),
      852      852    1           3 * UBIN HALF UNAL INIT(254),
      853      853    1           3 * UBIN HALF UNAL INIT(0),
      854      854    1         2 MLS1SID,
      855      855    1           3 * UBIN WORD INIT(BITBIN('6132'O)),
      856      856    1           3 * UBIN HALF UNAL INIT(257),
      857      857    1           3 * UBIN HALF UNAL INIT(0),
      858      858    1         2 MONSSSID,
      859      859    1           3 * UBIN WORD INIT(BITBIN('6044'O)),
      860      860    1           3 * UBIN HALF UNAL INIT(260),
      861      861    1           3 * UBIN HALF UNAL INIT(0),
      862      862    1         2 MOUSESID,
      863      863    1           3 * UBIN WORD INIT(BITBIN('6120'O)),
      864      864    1           3 * UBIN HALF UNAL INIT(263),
      865      865    1           3 * UBIN HALF UNAL INIT(0),
      866      866    1         2 MPTSID,
      867      867    1           3 * UBIN WORD INIT(BITBIN('6037'O)),
      868      868    1           3 * UBIN HALF UNAL INIT(266),
      869      869    1           3 * UBIN HALF UNAL INIT(0),
      870      870    1         2 MTSTACKSID,
      871      871    1           3 * UBIN WORD INIT(BITBIN('6041'O)),
      872      872    1           3 * UBIN HALF UNAL INIT(268),
      873      873    1           3 * UBIN HALF UNAL INIT(0),
      874      874    1         2 NULLSID,
      875      875    1           3 * UBIN WORD INIT(BITBIN('6014'O)),
      876      876    1           3 * UBIN HALF UNAL INIT(271),
      877      877    1           3 * UBIN HALF UNAL INIT(0),
      878      878    1         2 PIASID,
      879      879    1           3 * UBIN WORD INIT(BITBIN('6020'O)),
      880      880    1           3 * UBIN HALF UNAL INIT(274),
      881      881    1           3 * UBIN HALF UNAL INIT(0),
      882      882    1         2 PMMENTSID,
      883      883    1           3 * UBIN WORD INIT(BITBIN('6027'O)),
      884      884    1           3 * UBIN HALF UNAL INIT(276),
      885      885    1           3 * UBIN HALF UNAL INIT(0),
      886      886    1         2 PMMESID,
      887      887    1           3 * UBIN WORD INIT(BITBIN('1760'O)),
PL6.E3A0      #001=VX_SD_D File=VX_SD_D.:E05TSI                                  WED 07/30/97 08:50 Page:58
      888      888    1           3 * UBIN HALF UNAL INIT(279),
      889      889    1           3 * UBIN HALF UNAL INIT(0),
      890      890    1         2 PPUTSID,
      891      891    1           3 * UBIN WORD INIT(BITBIN('6116'O)),
      892      892    1           3 * UBIN HALF UNAL INIT(282),
      893      893    1           3 * UBIN HALF UNAL INIT(0),
      894      894    1         2 PRIVSID,
      895      895    1           3 * UBIN WORD INIT(BITBIN('6015'O)),
      896      896    1           3 * UBIN HALF UNAL INIT(285),
      897      897    1           3 * UBIN HALF UNAL INIT(0),
      898      898    1         2 PSRSID,
      899      899    1           3 * UBIN WORD INIT(BITBIN('1767'O)),
      900      900    1           3 * UBIN HALF UNAL INIT(288),
      901      901    1           3 * UBIN HALF UNAL INIT(0),
      902      902    1         2 RCVENTSID,
      903      903    1           3 * UBIN WORD INIT(BITBIN('6131'O)),
      904      904    1           3 * UBIN HALF UNAL INIT(290),
      905      905    1           3 * UBIN HALF UNAL INIT(0),
      906      906    1         2 RCVRTNSID,
      907      907    1           3 * UBIN WORD INIT(BITBIN('6127'O)),
      908      908    1           3 * UBIN HALF UNAL INIT(293),
      909      909    1           3 * UBIN HALF UNAL INIT(0),
      910      910    1         2 REALSID,
      911      911    1           3 * UBIN WORD INIT(BITBIN('6021'O)),
      912      912    1           3 * UBIN HALF UNAL INIT(296),
      913      913    1           3 * UBIN HALF UNAL INIT(0),
      914      914    1         2 REGENTSID,
      915      915    1           3 * UBIN WORD INIT(BITBIN('6030'O)),
      916      916    1           3 * UBIN HALF UNAL INIT(299),
      917      917    1           3 * UBIN HALF UNAL INIT(0),
      918      918    1         2 RONCSID,
      919      919    1           3 * UBIN WORD INIT(BITBIN('6124'O)),
      920      920    1           3 * UBIN HALF UNAL INIT(302),
      921      921    1           3 * UBIN HALF UNAL INIT(0),
      922      922    1         2 ROSEG8SID,
      923      923    1           3 * UBIN WORD INIT(BITBIN('6125'O)),
      924      924    1           3 * UBIN HALF UNAL INIT(305),
PL6.E3A0      #001=VX_SD_D File=VX_SD_D.:E05TSI                                  WED 07/30/97 08:50 Page:59
      925      925    1           3 * UBIN HALF UNAL INIT(0),
      926      926    1         2 ROSID,
      927      927    1           3 * UBIN WORD INIT(BITBIN('6003'O)),
      928      928    1           3 * UBIN HALF UNAL INIT(308),
      929      929    1           3 * UBIN HALF UNAL INIT(0),
      930      930    1         2 SBUF1SID,
      931      931    1           3 * UBIN WORD INIT(BITBIN('6046'O)),
      932      932    1           3 * UBIN HALF UNAL INIT(310),
      933      933    1           3 * UBIN HALF UNAL INIT(0),
      934      934    1         2 SBUF2SID,
      935      935    1           3 * UBIN WORD INIT(BITBIN('6047'O)),
      936      936    1           3 * UBIN HALF UNAL INIT(313),
      937      937    1           3 * UBIN HALF UNAL INIT(0),
      938      938    1         2 SCRCHENTSID,
      939      939    1           3 * UBIN WORD INIT(BITBIN('6025'O)),
      940      940    1           3 * UBIN HALF UNAL INIT(316),
      941      941    1           3 * UBIN HALF UNAL INIT(0),
      942      942    1         2 SCUSID,
      943      943    1           3 * UBIN WORD INIT(BITBIN('6051'O)),
      944      944    1           3 * UBIN HALF UNAL INIT(320),
      945      945    1           3 * UBIN HALF UNAL INIT(0),
      946      946    1         2 SDS0SID,
      947      947    1           3 * UBIN WORD INIT(BITBIN('6023'O)),
      948      948    1           3 * UBIN HALF UNAL INIT(322),
      949      949    1           3 * UBIN HALF UNAL INIT(0),
      950      950    1         2 SDS1SID,
      951      951    1           3 * UBIN WORD INIT(BITBIN('6024'O)),
      952      952    1           3 * UBIN HALF UNAL INIT(325),
      953      953    1           3 * UBIN HALF UNAL INIT(0),
      954      954    1         2 SLV1HJITSID,
      955      955    1           3 * UBIN WORD INIT(BITBIN('6146'O)),
      956      956    1           3 * UBIN HALF UNAL INIT(328),
      957      957    1           3 * UBIN HALF UNAL INIT(0),
      958      958    1         2 SLV1PTSID,
      959      959    1           3 * UBIN WORD INIT(BITBIN('6136'O)),
      960      960    1           3 * UBIN HALF UNAL INIT(332),
      961      961    1           3 * UBIN HALF UNAL INIT(0),
PL6.E3A0      #001=VX_SD_D File=VX_SD_D.:E05TSI                                  WED 07/30/97 08:50 Page:60
      962      962    1         2 SLV2HJITSID,
      963      963    1           3 * UBIN WORD INIT(BITBIN('6147'O)),
      964      964    1           3 * UBIN HALF UNAL INIT(335),
      965      965    1           3 * UBIN HALF UNAL INIT(0),
      966      966    1         2 SLV2PTSID,
      967      967    1           3 * UBIN WORD INIT(BITBIN('6137'O)),
      968      968    1           3 * UBIN HALF UNAL INIT(339),
      969      969    1           3 * UBIN HALF UNAL INIT(0),
      970      970    1         2 SLV3HJITSID,
      971      971    1           3 * UBIN WORD INIT(BITBIN('6150'O)),
      972      972    1           3 * UBIN HALF UNAL INIT(342),
      973      973    1           3 * UBIN HALF UNAL INIT(0),
      974      974    1         2 SLV3PTSID,
      975      975    1           3 * UBIN WORD INIT(BITBIN('6140'O)),
      976      976    1           3 * UBIN HALF UNAL INIT(346),
      977      977    1           3 * UBIN HALF UNAL INIT(0),
      978      978    1         2 SLV4HJITSID,
      979      979    1           3 * UBIN WORD INIT(BITBIN('6151'O)),
      980      980    1           3 * UBIN HALF UNAL INIT(349),
      981      981    1           3 * UBIN HALF UNAL INIT(0),
      982      982    1         2 SLV4PTSID,
      983      983    1           3 * UBIN WORD INIT(BITBIN('6141'O)),
      984      984    1           3 * UBIN HALF UNAL INIT(353),
      985      985    1           3 * UBIN HALF UNAL INIT(0),
      986      986    1         2 SLV5HJITSID,
      987      987    1           3 * UBIN WORD INIT(BITBIN('6152'O)),
      988      988    1           3 * UBIN HALF UNAL INIT(356),
      989      989    1           3 * UBIN HALF UNAL INIT(0),
      990      990    1         2 SLV5PTSID,
      991      991    1           3 * UBIN WORD INIT(BITBIN('6142'O)),
      992      992    1           3 * UBIN HALF UNAL INIT(360),
      993      993    1           3 * UBIN HALF UNAL INIT(0),
      994      994    1         2 SLV6HJITSID,
      995      995    1           3 * UBIN WORD INIT(BITBIN('6153'O)),
      996      996    1           3 * UBIN HALF UNAL INIT(363),
      997      997    1           3 * UBIN HALF UNAL INIT(0),
      998      998    1         2 SLV6PTSID,
PL6.E3A0      #001=VX_SD_D File=VX_SD_D.:E05TSI                                  WED 07/30/97 08:50 Page:61
      999      999    1           3 * UBIN WORD INIT(BITBIN('6143'O)),
     1000     1000    1           3 * UBIN HALF UNAL INIT(367),
     1001     1001    1           3 * UBIN HALF UNAL INIT(0),
     1002     1002    1         2 SLV7HJITSID,
     1003     1003    1           3 * UBIN WORD INIT(BITBIN('6154'O)),
     1004     1004    1           3 * UBIN HALF UNAL INIT(370),
     1005     1005    1           3 * UBIN HALF UNAL INIT(0),
     1006     1006    1         2 SLV7PTSID,
     1007     1007    1           3 * UBIN WORD INIT(BITBIN('6144'O)),
     1008     1008    1           3 * UBIN HALF UNAL INIT(374),
     1009     1009    1           3 * UBIN HALF UNAL INIT(0),
     1010     1010    1         2 SPCL1SID,
     1011     1011    1           3 * UBIN WORD INIT(BITBIN('6021'O)),
     1012     1012    1           3 * UBIN HALF UNAL INIT(377),
     1013     1013    1           3 * UBIN HALF UNAL INIT(0),
     1014     1014    1         2 SPCL2SID,
     1015     1015    1           3 * UBIN WORD INIT(BITBIN('6022'O)),
     1016     1016    1           3 * UBIN HALF UNAL INIT(380),
     1017     1017    1           3 * UBIN HALF UNAL INIT(0),
     1018     1018    1         2 SPCL3SID,
     1019     1019    1           3 * UBIN WORD INIT(BITBIN('6023'O)),
     1020     1020    1           3 * UBIN HALF UNAL INIT(383),
     1021     1021    1           3 * UBIN HALF UNAL INIT(0),
     1022     1022    1         2 SPCL4SID,
     1023     1023    1           3 * UBIN WORD INIT(BITBIN('6024'O)),
     1024     1024    1           3 * UBIN HALF UNAL INIT(386),
     1025     1025    1           3 * UBIN HALF UNAL INIT(0),
     1026     1026    1         2 SPCL5SID,
     1027     1027    1           3 * UBIN WORD INIT(BITBIN('6026'O)),
     1028     1028    1           3 * UBIN HALF UNAL INIT(389),
     1029     1029    1           3 * UBIN HALF UNAL INIT(0),
     1030     1030    1         2 SPCL6SID,
     1031     1031    1           3 * UBIN WORD INIT(BITBIN('6027'O)),
     1032     1032    1           3 * UBIN HALF UNAL INIT(392),
     1033     1033    1           3 * UBIN HALF UNAL INIT(0),
     1034     1034    1         2 SPCL7SID,
     1035     1035    1           3 * UBIN WORD INIT(BITBIN('6030'O)),
PL6.E3A0      #001=VX_SD_D File=VX_SD_D.:E05TSI                                  WED 07/30/97 08:50 Page:62
     1036     1036    1           3 * UBIN HALF UNAL INIT(395),
     1037     1037    1           3 * UBIN HALF UNAL INIT(0),
     1038     1038    1         2 SPCL8SID,
     1039     1039    1           3 * UBIN WORD INIT(BITBIN('6031'O)),
     1040     1040    1           3 * UBIN HALF UNAL INIT(398),
     1041     1041    1           3 * UBIN HALF UNAL INIT(0),
     1042     1042    1         2 SSRSID,
     1043     1043    1           3 * UBIN WORD INIT(BITBIN('1764'O)),
     1044     1044    1           3 * UBIN HALF UNAL INIT(401),
     1045     1045    1           3 * UBIN HALF UNAL INIT(0),
     1046     1046    1         2 TCBSID,
     1047     1047    1           3 * UBIN WORD INIT(BITBIN('6017'O)),
     1048     1048    1           3 * UBIN HALF UNAL INIT(403),
     1049     1049    1           3 * UBIN HALF UNAL INIT(0),
     1050     1050    1         2 TIGRSID,
     1051     1051    1           3 * UBIN WORD INIT(BITBIN('6123'O)),
     1052     1052    1           3 * UBIN HALF UNAL INIT(405),
     1053     1053    1           3 * UBIN HALF UNAL INIT(0),
     1054     1054    1         2 TSTACKSID,
     1055     1055    1           3 * UBIN WORD INIT(BITBIN('6020'O)),
     1056     1056    1           3 * UBIN HALF UNAL INIT(408),
     1057     1057    1           3 * UBIN HALF UNAL INIT(0),
     1058     1058    1         2 UPTSID,
     1059     1059    1           3 * UBIN WORD INIT(BITBIN('6036'O)),
     1060     1060    1           3 * UBIN HALF UNAL INIT(411),
     1061     1061    1           3 * UBIN HALF UNAL INIT(0),
     1062     1062    1         2 USERHJITSID,
     1063     1063    1           3 * UBIN WORD INIT(BITBIN('6045'O)),
     1064     1064    1           3 * UBIN HALF UNAL INIT(413),
     1065     1065    1           3 * UBIN HALF UNAL INIT(0),
     1066     1066    1         2 USERISSID,
     1067     1067    1           3 * UBIN WORD INIT(BITBIN('6040'O)),
     1068     1068    1           3 * UBIN HALF UNAL INIT(417),
     1069     1069    1           3 * UBIN HALF UNAL INIT(0),
     1070     1070    1         2 USERLSSID,
     1071     1071    1           3 * UBIN WORD INIT(BITBIN('6031'O)),
     1072     1072    1           3 * UBIN HALF UNAL INIT(420),
PL6.E3A0      #001=VX_SD_D File=VX_SD_D.:E05TSI                                  WED 07/30/97 08:50 Page:63
     1073     1073    1           3 * UBIN HALF UNAL INIT(0),
     1074     1074    1         2 USERSSSID,
     1075     1075    1           3 * UBIN WORD INIT(BITBIN('6022'O)),
     1076     1076    1           3 * UBIN HALF UNAL INIT(423),
     1077     1077    1           3 * UBIN HALF UNAL INIT(0),
     1078     1078    1         2 VPTSID,
     1079     1079    1           3 * UBIN WORD INIT(BITBIN('6117'O)),
     1080     1080    1           3 * UBIN HALF UNAL INIT(426),
     1081     1081    1           3 * UBIN HALF UNAL INIT(0),
     1082     1082    1         2 WINDOWSID,
     1083     1083    1           3 * UBIN WORD INIT(BITBIN('6052'O)),
     1084     1084    1           3 * UBIN HALF UNAL INIT(429),
     1085     1085    1           3 * UBIN HALF UNAL INIT(0),
     1086     1086    1         2 WS3MLSNWSID,
     1087     1087    1           3 * UBIN WORD INIT(BITBIN('6160'O)),
     1088     1088    1           3 * UBIN HALF UNAL INIT(432),
     1089     1089    1           3 * UBIN HALF UNAL INIT(0),
     1090     1090    1         2 WS3MLSSID,
     1091     1091    1           3 * UBIN WORD INIT(BITBIN('6133'O)),
     1092     1092    1           3 * UBIN HALF UNAL INIT(436),
     1093     1093    1           3 * UBIN HALF UNAL INIT(0),
     1094     1094    1         2 XDLTENTSID,
     1095     1095    1           3 * UBIN WORD INIT(BITBIN('6026'O)),
     1096     1096    1           3 * UBIN HALF UNAL INIT(439),
     1097     1097    1           3 * UBIN HALF UNAL INIT(0),
     1098     1098    1         2 XDRTNSID,
     1099     1099    1           3 * UBIN WORD INIT(BITBIN('6126'O)),
     1100     1100    1           3 * UBIN HALF UNAL INIT(442),
     1101     1101    1           3 * UBIN HALF UNAL INIT(0),
     1102     1102    1         2 IMXSID,
     1103     1103    1           3 * UBIN WORD INIT(BITBIN('6162'O)),
     1104     1104    1           3 * UBIN HALF UNAL INIT(445),
     1105     1105    1           3 * UBIN HALF UNAL INIT(0);
     1106     1106        %EJECT;
PL6.E3A0      #001=VX_SD_D File=VX_SD_D.:E05TSI                                  WED 07/30/97 08:50 Page:64
     1107     1107    1   DCL VX_SN_SIZEW  UBIN CONSTANT SYMDEF INIT( SIZEW(VX_SN) );
     1108     1108    1   DCL VX_SD_SIZEW  UBIN CONSTANT SYMDEF INIT( SIZEW(VX_SD) );
     1109     1109    1   DCL VX_SN_STOP$ PTR CONSTANT SYMDEF INIT(ADDR(VX_SN.IMXSID));
     1110     1110    1   DCL VX_SD_STOP$ PTR CONSTANT SYMDEF INIT(ADDR(VX_SD.IMXSID));
     1111     1111
     1112     1112
     1113     1113    1   END VX_SD_D;

PL6.E3A0      #001=VX_SD_D File=VX_SD_D.:E05TSI                                  WED 07/30/97 08:50 Page:65
      No diagnostics issued in procedure VX_SD_D.
PL6.E3A0      #001=VX_SD_D File=VX_SD_D.:E05TSI                                  WED 07/30/97 08:50 Page:66

 **** Variables and constants ****

  ****  Section 000 RoData VX_SD_D

  ****  Scalars and arrays  ****
OctLoc.c.b A Datatyp(siz) R M Lvl/name                 OctLoc.c.b A Datatyp(siz) R M Lvl/name

   700-0-0/w STRC(11232) r     1 VX_SD                      0-0-0/w STRC(16128) r     1 VX_SN


   No code generated for procedure VX_SD_D .
   Procedure VX_SD_D requires 4 words of local(AUTO) storage.

    No errors detected in file VX_SD_D.:E05TSI    .
PL6.E3A0      #001=VX_SD_D File=VX_SD_D.:E05TSI                                  WED 07/30/97 08:50 Page:67
          *** CROSS REFERENCE LISTING ***
**     DENOTES     IDENTIFIER DEFINITION
<<                 IDENTIFIER'S VALUE SET
>>                 IDENTIFIER'S VALUE USED
<>                 IDENTIFIER SET AND/OR USED
--                 IDENTIFIER REFERENCED
PL6.E3A0      #001=VX_SD_D File=VX_SD_D.:E05TSI                                  WED 07/30/97 08:50 Page:68
          MINI XREF LISTING

VX_SD
       481**DCL      1108--DCLINIT
VX_SD.IMXSID
      1102**DCL      1110--DCLINIT
VX_SN
        11**DCL      1107--DCLINIT
VX_SN.IMXSID
       477**DCL      1109--DCLINIT
