VERSION E05

PL6.E3A0      #001=VYA$ND File=VYA$ND.:E05TSI                                    WED 07/30/97 08:51 Page:1
        1        1        /*T***********************************************************/
        2        2        /*T*                                                         */
        3        3        /*T* Copyright (c) Bull HN Information Systems Inc., 1997    */
        4        4        /*T*                                                         */
        5        5        /*T***********************************************************/
        6        6        /*X* DMR,PLM=6,IND=4,CSU=2,EXM=0,ECU=3,MOC,DCI=4,CRT=4,CTI=8,CCC     */
        7        7        VYA$ND:
        8        8              PROC( ALL$, FATHER$ );
        9        9        /*
       10       10                          Include files
       11       11        */
       12       12        %INCLUDE CP_6;
       13       93        %INCLUDE VY_SUBS_C;
       14      390        %INCLUDE VY_MACRO_C;
       15     1526        %INCLUDE VY_DATA_R;
       16     1934        %INCLUDE VY_FIXED_R;
       17     5594        %SET LISTDIR='0'B;
       18     5595        %P;

              5603    1   /*******************************************************************************
              5604    1   *                                                                              *
              5605    1   *                          PARAMETERS                                              *
              5606    1   *                                                                              *
              5607    1   *******************************************************************************/

       19     5611    1   DCL ALL$            PTR       ALIGNED;
       20     5612    1   DCL FATHER$         PTR       ALIGNED;
       21     5613        %VY$NODE;

              5625    1   /*******************************************************************************
              5626    1   *                                                                              *
              5627    1   *                          VY$NODE                                                 *
              5628    1   *                                                                              *
              5629    1   *******************************************************************************/

              5645    1   DCL 1 VY$NODE      ALIGNED    BASED,
              5646    1         2 SON$ PTR /*(ADDR(NIL))*/, /* Son pointer                      */
PL6.E3A0      #001=VYA$ND File=VYA$ND.:E05TSI                                    WED 07/30/97 08:51 Page:2
              5647    1         2 BROTHER$ PTR /*(ADDR(NIL))*/, /* Brother pointer              */
              5648    1         2 FATHER$ PTR /*(ADDR(NIL))*/, /* Father pointer                */
              5649    1         2 PATH$ PTR /*(ADDR(NIL))*/, /* Path   pointer                  */
              5650    1         2 HEAD$       PTR /*(ADDR(NIL))*/, /* Head pointer to
              5651                              to list of file nodes for this node            */
              5652    1         2 TAIL$ PTR /*(ADDR(NIL))*/, /* Tail pointer to list            */
              5653    1         2 SHARED_LIB_HEAD$ PTR /*(ADDR(NIL))*/,
              5653                  /* Head pointer to shared library list */
              5654    1         2 LIB_HEAD$         PTR /*(ADDR(NIL))*/,
              5654                  /* Head pointer to list of shared libraries
              5655                                          which have been mapped to included libraries */
              5656    1         2 NUM          UBIN(36)  UNAL,    /* Node number                        */
              5657    1         2 DEPTH          UBIN(36)  UNAL,  /* Depth; ROOT=0*/
              5658    1         2 ADDR_START_A(0:2/*@ROS*/) SBIN WORD /*(0*3)*/, /* Array            */
              5659    1         2 ADDR_START REDEF  ADDR_START_A,
              5660    1           3 RDATA       SBIN WORD,   /* First address for this node in data     */
              5661    1           3 RPROC       SBIN WORD,   /* First address for this node in proc     */
              5662    1           3 ROS       SBIN WORD,          /* Last address for program in ros    */
              5663    1         2 ADDR_STOP_A(0:2/*@ROS*/) SBIN WORD /*(-1*3)*/, /* Array            */
              5664    1         2 ADDR_STOP  REDEF  ADDR_STOP_A,
              5665    1           3 RDATA       SBIN WORD,        /* Last address for this node in data */
              5666    1           3 RPROC       SBIN WORD,        /* Last address for this node in proc */
              5667    1           3 ROS       SBIN WORD,          /* Last address for program in ros    */
              5668    1         2 START_PAGE#_A(0:2/*@ROS*/) SBIN WORD /*(0*3)*/, /* Array           */
              5669    1         2 START_PAGE# REDEF START_PAGE#_A,
              5670    1           3 RDATA       SBIN WORD,   /* First page    for this node in data     */
              5671    1           3 RPROC       SBIN WORD,   /* First page    for this node in proc     */
              5672    1           3 ROS       SBIN WORD,          /* First page   for program in ros    */
              5673    1         2 STOP_PAGE#_A(0:2/*@ROS*/) SBIN WORD /*(-1*3)*/, /* Array*/
              5674    1         2 STOP_PAGE#  REDEF STOP_PAGE#_A,
              5675    1           3 RDATA       SBIN WORD,   /* Last  page    for this node in data     */
              5676    1           3 RPROC       SBIN WORD,   /* Last  page    for this node in proc     */
              5677    1           3 ROS       SBIN WORD,          /* Last  page   for program in ros    */
              5678    1         2 START_SC_ALL$ PTR /*(ADDR(NIL))*/,
              5678                  /* Starting pointer for common sections for this node */
              5679    1         2 STOP_SC_ALL$ PTR /*(ADDR(NIL))*/,
              5679                  /* Stopping pointer for common sections for this node */
PL6.E3A0      #001=VYA$ND File=VYA$ND.:E05TSI                                    WED 07/30/97 08:51 Page:3
              5680    1         2 L_START,
              5681    1           3 SN$ PTR /*(ADDR(NIL))*/, /* Segment definition names        */
              5682    1           3 DN$ PTR /*(ADDR(NIL))*/, /* Def names                       */
              5683    1           3 RN$ PTR /*(ADDR(NIL))*/, /* Ref names                       */
              5684    1           3 SC$ PTR /*(ADDR(NIL))*/, /* Sections                        */
              5685    1           3 ED$ PTR /*(ADDR(NIL))*/, /* Entry defs*/
              5686    1           3 ER$ PTR /*(ADDR(NIL))*/, /* Entry refs*/
              5687    1           3 DD$ PTR /*(ADDR(NIL))*/, /* Data defs                       */
              5688    1           3 DR$ PTR /*(ADDR(NIL))*/, /* Data refs                       */
              5689    1           3 SD$ PTR /*(ADDR(NIL))*/, /* Seg defs                        */
              5690    1           3 SR$ PTR /*(ADDR(NIL))*/, /* Seg refs                        */
              5691    1         2 L_START_A$(0:9)     REDEF L_START PTR,
              5692    1         2 L_STOP,
              5693    1           3 SN$ PTR /*(ADDR(NIL))*/, /* Segment definition names        */
              5694    1           3 DN$ PTR /*(ADDR(NIL))*/, /* Def names                       */
              5695    1           3 RN$ PTR /*(ADDR(NIL))*/, /* Ref names                       */
              5696    1           3 SC$ PTR /*(ADDR(NIL))*/, /* Sections                        */
              5697    1           3 ED$ PTR /*(ADDR(NIL))*/, /* Entry defs*/
              5698    1           3 ER$ PTR /*(ADDR(NIL))*/, /* Entry refs*/
              5699    1           3 DD$ PTR /*(ADDR(NIL))*/, /* Data defs                       */
              5700    1           3 DR$ PTR /*(ADDR(NIL))*/, /* Data refs                       */
              5701    1           3 SD$ PTR /*(ADDR(NIL))*/, /* Seg defs                        */
              5702    1           3 SR$ PTR /*(ADDR(NIL))*/, /* Seg refs                        */
              5703    1         2 L_STOP_A$(0:9) REDEF   L_STOP    PTR,
              5704    1         2 L_SIZE,
              5705    1           3 SN      UBIN /*(0)*/, /* Segment definition names           */
              5706    1           3 DN      UBIN /*(0)*/, /* Def names                          */
              5707    1           3 RN      UBIN /*(0)*/, /* Ref names                          */
              5708    1           3 SC      UBIN /*(0)*/, /* Sections                           */
              5709    1           3 ED      UBIN /*(0)*/, /* Entry defs*/
              5710    1           3 ER      UBIN /*(0)*/, /* Entry refs*/
              5711    1           3 DD      UBIN /*(0)*/, /* Data defs                          */
              5712    1           3 DR      UBIN /*(0)*/, /* Data refs                          */
              5713    1           3 SD      UBIN /*(0)*/, /* Seg defs                           */
              5714    1           3 SR      UBIN /*(0)*/, /* Seg refs                           */
              5715    1         2 L_SIZE_A(0:9)  REDEF   L_SIZE    UBIN,
              5716    1         2 L_PREV_SIZE,
PL6.E3A0      #001=VYA$ND File=VYA$ND.:E05TSI                                    WED 07/30/97 08:51 Page:4
              5717    1           3 SN      UBIN /*(0)*/, /* Segment definition names           */
              5718    1           3 DN      UBIN /*(0)*/, /* Def names                          */
              5719    1           3 RN      UBIN /*(0)*/, /* Ref names                          */
              5720    1           3 SC      UBIN /*(0)*/, /* Sections                           */
              5721    1           3 ED      UBIN /*(0)*/, /* Entry defs*/
              5722    1           3 ER      UBIN /*(0)*/, /* Entry refs*/
              5723    1           3 DD      UBIN /*(0)*/, /* Data defs                          */
              5724    1           3 DR      UBIN /*(0)*/, /* Data refs                          */
              5725    1           3 SD      UBIN /*(0)*/, /* Seg defs                           */
              5726    1           3 SR      UBIN /*(0)*/, /* Seg refs                           */
              5727    1         2 L_PREV_SIZE_A(0:9)  REDEF   L_PREV_SIZE    UBIN,
              5728    1         2 BIT_MAP                ALIGNED,
              5729    1           3 DATA                  ALIGNED,
              5730    1             4 BITS(0:255)          BIT(1)    UNAL /*('0'B*256)*/,
              5731    1           3 RPROC                 ALIGNED,
              5732    1             4 BITS(0:255)          BIT(1)    UNAL /*('0'B*256)*/,
              5733    1           3 ROS                   ALIGNED,
              5734    1             4 BITS(0:255)          BIT(1)    UNAL /*('0'B*256)*/,
              5735    1         2 L_SC_START,
              5736    1           3 SC_BLK_COM$ PTR /*(ADDR(NIL))*/, /* Blank common            */
              5737    1           3 SC_ROOT_LBL_COM$ PTR /*(ADDR(NIL))*/, /* Root labelled common */
              5738    1           3 SC_LBL_COM$ PTR /*(ADDR(NIL))*/, /* Labelled common         */
              5739    1           3 SC_DCB$ PTR /*(ADDR(NIL))*/, /* Dcbs                        */
              5740    1         2 L_SC_START_A$(0:3)  REDEF L_SC_START PTR,
              5741    1         2 L_SC_STOP,
              5742    1           3 SC_BLK_COM$ PTR /*(ADDR(NIL))*/, /* Blank common            */
              5743    1           3 SC_ROOT_LBL_COM$ PTR /*(ADDR(NIL))*/, /* Root labelled common */
              5744    1           3 SC_LBL_COM$ PTR /*(ADDR(NIL))*/, /* Labelled common         */
              5745    1           3 SC_DCB$ PTR /*(ADDR(NIL))*/, /* Dcbs                        */
              5746    1         2 L_SC_STOP_A$(0:3)   REDEF L_SC_STOP  PTR,
              5747    1         2 PROMOTE_HEAD,
              5748    1           3 BLK_COM$              PTR /*(ADDR(NIL))*/,
              5749    1           3 LBL_COM$              PTR /*(ADDR(NIL))*/,
              5750    1         2 PROMOTE_HEAD_A$(0:1) REDEF PROMOTE_HEAD     PTR,
              5751    1         2 PROMOTE_TAIL,
              5752    1           3 BLK_COM$              PTR /*(ADDR(NIL))*/,
              5753    1           3 LBL_COM$              PTR /*(ADDR(NIL))*/,
PL6.E3A0      #001=VYA$ND File=VYA$ND.:E05TSI                                    WED 07/30/97 08:51 Page:5
              5754    1         2 PROMOTE_TAIL_A$(0:1) REDEF PROMOTE_TAIL     PTR,
              5755    1         2 HAVE_ASL          BIT(1)    UNAL /*('0'B)*/,
              5756    1         2 ALL_BLK_COM          BIT(1)    UNAL /*('0'B)*/,
              5757    1         2 *                 BIT(34)   UNAL /*('0'B)*/,
              5758    1         2 BLANK_COMMON$     PTR       ALIGNED /*(ADDR(NIL))*/;

       22     5762        %VY$NODE(NAME=INITIALIZED_NODE,STCLASS= CONSTANT);

              5774    1   /*******************************************************************************
              5775    1   *                                                                              *
              5776    1   *                          INITIALIZED_NODE                                        *
              5777    1   *                                                                              *
              5778    1   *******************************************************************************/

              5794    1   DCL 1 INITIALIZED_NODE      ALIGNED    CONSTANT,
              5795    1         2 SON$ PTR INIT(ADDR(NIL)) , /* Son pointer                      */
              5796    1         2 BROTHER$ PTR INIT(ADDR(NIL)) , /* Brother pointer              */
              5797    1         2 FATHER$ PTR INIT(ADDR(NIL)) , /* Father pointer                */
              5798    1         2 PATH$ PTR INIT(ADDR(NIL)) , /* Path   pointer                  */
              5799    1         2 HEAD$       PTR INIT(ADDR(NIL)) , /* Head pointer to
              5800                              to list of file nodes for this node            */
              5801    1         2 TAIL$ PTR INIT(ADDR(NIL)) , /* Tail pointer to list            */
              5802    1         2 SHARED_LIB_HEAD$ PTR INIT(ADDR(NIL)) ,
              5802                  /* Head pointer to shared library list */
              5803    1         2 LIB_HEAD$         PTR INIT(ADDR(NIL)) ,
              5803                  /* Head pointer to list of shared libraries
              5804                                          which have been mapped to included libraries */
              5805    1         2 NUM          UBIN(36)  UNAL,    /* Node number                        */
              5806    1         2 DEPTH          UBIN(36)  UNAL,  /* Depth; ROOT=0*/
              5807    1         2 ADDR_START_A(0:2/*@ROS*/) SBIN WORD INIT(0*3) , /* Array            */
              5808    1         2 ADDR_START REDEF  ADDR_START_A,
              5809    1           3 RDATA       SBIN WORD,   /* First address for this node in data     */
              5810    1           3 RPROC       SBIN WORD,   /* First address for this node in proc     */
              5811    1           3 ROS       SBIN WORD,          /* Last address for program in ros    */
              5812    1         2 ADDR_STOP_A(0:2/*@ROS*/) SBIN WORD INIT(-1*3) , /* Array            */
              5813    1         2 ADDR_STOP  REDEF  ADDR_STOP_A,
              5814    1           3 RDATA       SBIN WORD,        /* Last address for this node in data */
PL6.E3A0      #001=VYA$ND File=VYA$ND.:E05TSI                                    WED 07/30/97 08:51 Page:6
              5815    1           3 RPROC       SBIN WORD,        /* Last address for this node in proc */
              5816    1           3 ROS       SBIN WORD,          /* Last address for program in ros    */
              5817    1         2 START_PAGE#_A(0:2/*@ROS*/) SBIN WORD INIT(0*3) , /* Array           */
              5818    1         2 START_PAGE# REDEF START_PAGE#_A,
              5819    1           3 RDATA       SBIN WORD,   /* First page    for this node in data     */
              5820    1           3 RPROC       SBIN WORD,   /* First page    for this node in proc     */
              5821    1           3 ROS       SBIN WORD,          /* First page   for program in ros    */
              5822    1         2 STOP_PAGE#_A(0:2/*@ROS*/) SBIN WORD INIT(-1*3) , /* Array*/
              5823    1         2 STOP_PAGE#  REDEF STOP_PAGE#_A,
              5824    1           3 RDATA       SBIN WORD,   /* Last  page    for this node in data     */
              5825    1           3 RPROC       SBIN WORD,   /* Last  page    for this node in proc     */
              5826    1           3 ROS       SBIN WORD,          /* Last  page   for program in ros    */
              5827    1         2 START_SC_ALL$ PTR INIT(ADDR(NIL)) ,
              5827                  /* Starting pointer for common sections for this node */
              5828    1         2 STOP_SC_ALL$ PTR INIT(ADDR(NIL)) ,
              5828                  /* Stopping pointer for common sections for this node */
              5829    1         2 L_START,
              5830    1           3 SN$ PTR INIT(ADDR(NIL)) , /* Segment definition names        */
              5831    1           3 DN$ PTR INIT(ADDR(NIL)) , /* Def names                       */
              5832    1           3 RN$ PTR INIT(ADDR(NIL)) , /* Ref names                       */
              5833    1           3 SC$ PTR INIT(ADDR(NIL)) , /* Sections                        */
              5834    1           3 ED$ PTR INIT(ADDR(NIL)) , /* Entry defs*/
              5835    1           3 ER$ PTR INIT(ADDR(NIL)) , /* Entry refs*/
              5836    1           3 DD$ PTR INIT(ADDR(NIL)) , /* Data defs                       */
              5837    1           3 DR$ PTR INIT(ADDR(NIL)) , /* Data refs                       */
              5838    1           3 SD$ PTR INIT(ADDR(NIL)) , /* Seg defs                        */
              5839    1           3 SR$ PTR INIT(ADDR(NIL)) , /* Seg refs                        */
              5840    1         2 L_START_A$(0:9)     REDEF L_START PTR,
              5841    1         2 L_STOP,
              5842    1           3 SN$ PTR INIT(ADDR(NIL)) , /* Segment definition names        */
              5843    1           3 DN$ PTR INIT(ADDR(NIL)) , /* Def names                       */
              5844    1           3 RN$ PTR INIT(ADDR(NIL)) , /* Ref names                       */
              5845    1           3 SC$ PTR INIT(ADDR(NIL)) , /* Sections                        */
              5846    1           3 ED$ PTR INIT(ADDR(NIL)) , /* Entry defs*/
              5847    1           3 ER$ PTR INIT(ADDR(NIL)) , /* Entry refs*/
              5848    1           3 DD$ PTR INIT(ADDR(NIL)) , /* Data defs                       */
              5849    1           3 DR$ PTR INIT(ADDR(NIL)) , /* Data refs                       */
PL6.E3A0      #001=VYA$ND File=VYA$ND.:E05TSI                                    WED 07/30/97 08:51 Page:7
              5850    1           3 SD$ PTR INIT(ADDR(NIL)) , /* Seg defs                        */
              5851    1           3 SR$ PTR INIT(ADDR(NIL)) , /* Seg refs                        */
              5852    1         2 L_STOP_A$(0:9) REDEF   L_STOP    PTR,
              5853    1         2 L_SIZE,
              5854    1           3 SN      UBIN INIT(0) , /* Segment definition names           */
              5855    1           3 DN      UBIN INIT(0) , /* Def names                          */
              5856    1           3 RN      UBIN INIT(0) , /* Ref names                          */
              5857    1           3 SC      UBIN INIT(0) , /* Sections                           */
              5858    1           3 ED      UBIN INIT(0) , /* Entry defs*/
              5859    1           3 ER      UBIN INIT(0) , /* Entry refs*/
              5860    1           3 DD      UBIN INIT(0) , /* Data defs                          */
              5861    1           3 DR      UBIN INIT(0) , /* Data refs                          */
              5862    1           3 SD      UBIN INIT(0) , /* Seg defs                           */
              5863    1           3 SR      UBIN INIT(0) , /* Seg refs                           */
              5864    1         2 L_SIZE_A(0:9)  REDEF   L_SIZE    UBIN,
              5865    1         2 L_PREV_SIZE,
              5866    1           3 SN      UBIN INIT(0) , /* Segment definition names           */
              5867    1           3 DN      UBIN INIT(0) , /* Def names                          */
              5868    1           3 RN      UBIN INIT(0) , /* Ref names                          */
              5869    1           3 SC      UBIN INIT(0) , /* Sections                           */
              5870    1           3 ED      UBIN INIT(0) , /* Entry defs*/
              5871    1           3 ER      UBIN INIT(0) , /* Entry refs*/
              5872    1           3 DD      UBIN INIT(0) , /* Data defs                          */
              5873    1           3 DR      UBIN INIT(0) , /* Data refs                          */
              5874    1           3 SD      UBIN INIT(0) , /* Seg defs                           */
              5875    1           3 SR      UBIN INIT(0) , /* Seg refs                           */
              5876    1         2 L_PREV_SIZE_A(0:9)  REDEF   L_PREV_SIZE    UBIN,
              5877    1         2 BIT_MAP                ALIGNED,
              5878    1           3 DATA                  ALIGNED,
              5879    1             4 BITS(0:255)          BIT(1)    UNAL INIT('0'B*256) ,
              5880    1           3 RPROC                 ALIGNED,
              5881    1             4 BITS(0:255)          BIT(1)    UNAL INIT('0'B*256) ,
              5882    1           3 ROS                   ALIGNED,
              5883    1             4 BITS(0:255)          BIT(1)    UNAL INIT('0'B*256) ,
              5884    1         2 L_SC_START,
              5885    1           3 SC_BLK_COM$ PTR INIT(ADDR(NIL)) , /* Blank common            */
              5886    1           3 SC_ROOT_LBL_COM$ PTR INIT(ADDR(NIL)) , /* Root labelled common */
PL6.E3A0      #001=VYA$ND File=VYA$ND.:E05TSI                                    WED 07/30/97 08:51 Page:8
              5887    1           3 SC_LBL_COM$ PTR INIT(ADDR(NIL)) , /* Labelled common         */
              5888    1           3 SC_DCB$ PTR INIT(ADDR(NIL)) , /* Dcbs                        */
              5889    1         2 L_SC_START_A$(0:3)  REDEF L_SC_START PTR,
              5890    1         2 L_SC_STOP,
              5891    1           3 SC_BLK_COM$ PTR INIT(ADDR(NIL)) , /* Blank common            */
              5892    1           3 SC_ROOT_LBL_COM$ PTR INIT(ADDR(NIL)) , /* Root labelled common */
              5893    1           3 SC_LBL_COM$ PTR INIT(ADDR(NIL)) , /* Labelled common         */
              5894    1           3 SC_DCB$ PTR INIT(ADDR(NIL)) , /* Dcbs                        */
              5895    1         2 L_SC_STOP_A$(0:3)   REDEF L_SC_STOP  PTR,
              5896    1         2 PROMOTE_HEAD,
              5897    1           3 BLK_COM$              PTR INIT(ADDR(NIL)) ,
              5898    1           3 LBL_COM$              PTR INIT(ADDR(NIL)) ,
              5899    1         2 PROMOTE_HEAD_A$(0:1) REDEF PROMOTE_HEAD     PTR,
              5900    1         2 PROMOTE_TAIL,
              5901    1           3 BLK_COM$              PTR INIT(ADDR(NIL)) ,
              5902    1           3 LBL_COM$              PTR INIT(ADDR(NIL)) ,
              5903    1         2 PROMOTE_TAIL_A$(0:1) REDEF PROMOTE_TAIL     PTR,
              5904    1         2 HAVE_ASL          BIT(1)    UNAL INIT('0'B) ,
              5905    1         2 ALL_BLK_COM          BIT(1)    UNAL INIT('0'B) ,
              5906    1         2 *                 BIT(34)   UNAL INIT('0'B) ,
              5907    1         2 BLANK_COMMON$     PTR       ALIGNED INIT(ADDR(NIL)) ;

       23     5911        %VY$SC;

              5925    1   /*******************************************************************************
              5926    1   *                                                                              *
              5927    1   *                          VY$SC                                                 *
              5928    1   *                                                                              *
              5929    1   *******************************************************************************/

              5933    1   DCL 1 VY$SC               BASED     ALIGNED,
              5934    1         2 TYPE              UBIN(9)   UNAL,
              5935    1         2 EMPTY             BIT (1)   UNAL,
              5936    1         2 ATTR                        UNAL,
              5937    1           3 INT              UBIN(2)   UNAL,
              5938    1           3 SEGMENT          BIT(1)    UNAL,
              5939    1           3 ALL              BIT(1)    UNAL,
PL6.E3A0      #001=VYA$ND File=VYA$ND.:E05TSI                                    WED 07/30/97 08:51 Page:9
              5940    1           3 PRE_DCB          BIT(1) UNAL, /* '1'B => true; '0'B => false        */
              5941    1           3 MES_INIT         BIT (1)   UNAL,
              5942    1           3 ALIGN            UBIN(2)   UNAL,
              5943    1         2 ADDRESS           UBIN(18)  UNAL,
              5944    1         2 NAME_DISP         SBIN HALF UNAL,
              5945    1         2 SIZE              UBIN(18)  UNAL,
              5946    1         2 NODE#             UBIN(18)  UNAL,
              5947    1         2 COM_LINK          UBIN(18)  UNAL;

              5956    1   /*******************************************************************************
              5957    1   *                                                                              *
              5958    1   *                          VY$SECT                                                 *
              5959    1   *                                                                              *
              5960    1   *******************************************************************************/

              5964    1   DCL 1 VY$SECT       BASED     ALIGNED,
              5965    1         2 TYPE              UBIN(9)   UNAL,
              5966    1         2 EMPTY             BIT (1)   UNAL,
              5967    1         2 ATTR                        UNAL,
              5968    1           3 INT              UBIN(2)  UNAL,
              5969    1           3 SEGMENT          BIT (1)  UNAL,
              5970    1           3 *                UBIN(3)  UNAL,
              5971    1           3 ALIGN            UBIN(2)  UNAL,
              5972    1         2 SIZE              UBIN(18)  UNAL,
              5973    1         2 NAME_DISP         SBIN HALF UNAL,
              5974    1         2 SEG_NPOINTER      UBIN(18)  UNAL;
       24     5977        %PTR;

              5985    1   /*******************************************************************************
              5986    1   *                                                                              *
              5987    1   *                          PTR                                                 *
              5988    1   *                                                                              *
              5989    1   *******************************************************************************/

       25     5993    1   DCL GOT$            PTR       ALIGNED   STATIC;
       26     5994        %E;

PL6.E3A0      #001=VYA$ND File=VYA$ND.:E05TSI                                    WED 07/30/97 08:51 Page:10
              6002    1   /*******************************************************************************
              6003    1   *                                                                              *
              6004    1   *                          ENTRY                                                 *
              6005    1   *                                                                              *
              6006    1   *******************************************************************************/

       27     6010    1   DCL VYA$GET         ENTRY(3);

PL6.E3A0      #001=VYA$ND File=VYA$ND.:E05TSI                                    WED 07/30/97 08:51 Page:11
       29     6012        %BANNER(ARG="Begin  VYA$ND");

              6020    1   /*******************************************************************************
              6021    1   *                                                                              *
              6022    1   *                          Begin  VYA$ND                                           *
              6023    1   *                                                                              *
              6024    1   *******************************************************************************/

       30     6028    1         GOT$ = ALL$;
       31     6029    1         GOT$ -> VY$NODE = INITIALIZED_NODE;
       32     6030    1         GOT$ -> VY$NODE.FATHER$       = FATHER$;
       33     6031    1         GOT$ -> VY$NODE.TAIL$         =  ADDR( GOT$ -> VY$NODE.HEAD$ );
       34     6032    1         VY_NODE_NUMBER = VY_NODE_NUMBER + 1;
       35     6033    1         GOT$ -> VY$NODE.NUM           = VY_NODE_NUMBER;
       36     6034    1         IF FATHER$ = ADDR(NIL) THEN GOT$ -> VY$NODE.DEPTH = 0;
       37     6035    1         ELSE GOT$ -> VY$NODE.DEPTH = FATHER$ -> VY$NODE.DEPTH + 1;
       38     6036    1   END VYA$ND;

PL6.E3A0      #001=VYA$ND File=VYA$ND.:E05TSI                                    WED 07/30/97 08:51 Page:12
--  Include file information  --

   XU_MACRO_C.:E05TOU  is referenced.
   VY_FIXED_R.:E05TOU  cannot be made into a system file and is referenced.
   VY_DATA_R.:E05TOU  cannot be made into a system file and is referenced.
   VY_MACRO_C.:E05TOU  is referenced.
   VY_SUBS_C.:E05TOU  is referenced.
   CP_6.:E05TOU  cannot be made into a system file and is referenced.
   B$JIT_C.:E05TOU  was found in the system file and is never referenced.
   CP_6_C.:E05TOU  was found in the system file and is referenced.
      No diagnostics issued in procedure VYA$ND.

   Procedure VYA$ND requires 28 words for executable code.
   Procedure VYA$ND requires 6 words of local(AUTO) storage.

    No errors detected in file VYA$ND.:E05TSI    .

PL6.E3A0      #001=VYA$ND File=VYA$ND.:E05TSI                                    WED 07/30/97 08:51 Page:13

 Object Unit name= VYA$ND                                     File name= VYA$ND.:E05TOU
 UTS= JUL 30 '97 08:51:50.32 WED                              Compiler= PL-6/E31         Sev=      00
 SharedLib= :SHARED_SYSTEM                                    Alt SharedLib=


    ****  Control sections  ****

 Sect   Type Bound  Init  Size OctSiz  Section name(segment info)
    0   DCB   even  none     0      0  M$UC
    1  RoData even  UTS    102    146  VYA$ND
    2   Data  even  none     1      1  VYA$ND
    3   Proc  even  none    28     34  VYA$ND

    ****  Entry defs  ****

                              Check   Calling
                             calling  sequence
  Sect OctLoc Primary Altret sequence   type   Parms  Name
     3      0   yes            yes      Std        2  VYA$ND

  ****  Entry refs  ****

         Check        Calling
        calling       sequence
Altret sequence SRef   type   Args  Name
                       nStd      0 X66_AUTO_2
                       Std       0 B_CONSPOOL_D
                       nStd      0 X66_ARET

  ****  Data refs  ****

  Flags:  r = read only, s = secondary
Flgs Name                             Flgs Name                             Flgs Name
     M$UC                                  VY_NODE_NUMBER                        VY_ERRORS
     VY_PAR_UNWIND                         B_VECTNIL
PL6.E3A0      #001=VYA$ND File=VYA$ND.:E05TSI                                    WED 07/30/97 08:51 Page:14

  ****  Segment refs  ****

  Flags:  r = read only, s = secondary
Flgs Name                             Flgs Name                             Flgs Name
     NULLSID
PL6.E3A0      #001=VYA$ND File=VYA$ND.:E05TSI                                    WED 07/30/97 08:51 Page:15


        1        1        /*T***********************************************************/
        2        2        /*T*                                                         */
        3        3        /*T* Copyright (c) Bull HN Information Systems Inc., 1997    */
        4        4        /*T*                                                         */
        5        5        /*T***********************************************************/
        6        6        /*X* DMR,PLM=6,IND=4,CSU=2,EXM=0,ECU=3,MOC,DCI=4,CRT=4,CTI=8,CCC     */
        7        7        VYA$ND:
        8        8              PROC( ALL$, FATHER$ );

      8  3 000000   000000 700200 xent  VYA$ND       TSX0  ! X66_AUTO_2
         3 000001   000006 000002                    ZERO    6,2

        9        9        /*
       10       10                          Include files
       11       11        */
       12       12        %INCLUDE CP_6;
       13       93        %INCLUDE VY_SUBS_C;
       14      390        %INCLUDE VY_MACRO_C;
       15     1526        %INCLUDE VY_DATA_R;
       16     1934        %INCLUDE VY_FIXED_R;
       17     5594        %SET LISTDIR='0'B;
       18     5595        %P;

              5603    1   /*******************************************************************************
              5604    1   *                                                                              *
              5605    1   *                          PARAMETERS                                             *
              5606    1   *                                                                              *
              5607    1   *******************************************************************************/

       19     5611    1   DCL ALL$            PTR       ALIGNED;
       20     5612    1   DCL FATHER$         PTR       ALIGNED;
       21     5613        %VY$NODE;

              5625    1   /*******************************************************************************
              5626    1   *                                                                              *
              5627    1   *                          VY$NODE                                                *
PL6.E3A0      #001=VYA$ND File=VYA$ND.:E05TSI                                    WED 07/30/97 08:51 Page:16
              5628    1   *                                                                              *
              5629    1   *******************************************************************************/

              5645    1   DCL 1 VY$NODE      ALIGNED    BASED,
              5646    1         2 SON$ PTR /*(ADDR(NIL))*/, /* Son pointer                      */
              5647    1         2 BROTHER$ PTR /*(ADDR(NIL))*/, /* Brother pointer              */
              5648    1         2 FATHER$ PTR /*(ADDR(NIL))*/, /* Father pointer                */
              5649    1         2 PATH$ PTR /*(ADDR(NIL))*/, /* Path   pointer                  */
              5650    1         2 HEAD$       PTR /*(ADDR(NIL))*/, /* Head pointer to
              5651                              to list of file nodes for this node            */
              5652    1         2 TAIL$ PTR /*(ADDR(NIL))*/, /* Tail pointer to list            */
              5653    1         2 SHARED_LIB_HEAD$ PTR /*(ADDR(NIL))*/,
              5653                  /* Head pointer to shared library list */
              5654    1         2 LIB_HEAD$         PTR /*(ADDR(NIL))*/,
              5654                  /* Head pointer to list of shared libraries
              5655                                          which have been mapped to included libraries */
              5656    1         2 NUM          UBIN(36)  UNAL,    /* Node number                        */
              5657    1         2 DEPTH          UBIN(36)  UNAL,  /* Depth; ROOT=0*/
              5658    1         2 ADDR_START_A(0:2/*@ROS*/) SBIN WORD /*(0*3)*/, /* Array            */
              5659    1         2 ADDR_START REDEF  ADDR_START_A,
              5660    1           3 RDATA       SBIN WORD,   /* First address for this node in data     */
              5661    1           3 RPROC       SBIN WORD,   /* First address for this node in proc     */
              5662    1           3 ROS       SBIN WORD,          /* Last address for program in ros    */
              5663    1         2 ADDR_STOP_A(0:2/*@ROS*/) SBIN WORD /*(-1*3)*/, /* Array            */
              5664    1         2 ADDR_STOP  REDEF  ADDR_STOP_A,
              5665    1           3 RDATA       SBIN WORD,        /* Last address for this node in data */
              5666    1           3 RPROC       SBIN WORD,        /* Last address for this node in proc */
              5667    1           3 ROS       SBIN WORD,          /* Last address for program in ros    */
              5668    1         2 START_PAGE#_A(0:2/*@ROS*/) SBIN WORD /*(0*3)*/, /* Array           */
              5669    1         2 START_PAGE# REDEF START_PAGE#_A,
              5670    1           3 RDATA       SBIN WORD,   /* First page    for this node in data     */
              5671    1           3 RPROC       SBIN WORD,   /* First page    for this node in proc     */
              5672    1           3 ROS       SBIN WORD,          /* First page   for program in ros    */
              5673    1         2 STOP_PAGE#_A(0:2/*@ROS*/) SBIN WORD /*(-1*3)*/, /* Array*/
              5674    1         2 STOP_PAGE#  REDEF STOP_PAGE#_A,
              5675    1           3 RDATA       SBIN WORD,   /* Last  page    for this node in data     */
              5676    1           3 RPROC       SBIN WORD,   /* Last  page    for this node in proc     */
PL6.E3A0      #001=VYA$ND File=VYA$ND.:E05TSI                                    WED 07/30/97 08:51 Page:17
              5677    1           3 ROS       SBIN WORD,          /* Last  page   for program in ros    */
              5678    1         2 START_SC_ALL$ PTR /*(ADDR(NIL))*/,
              5678                  /* Starting pointer for common sections for this node */
              5679    1         2 STOP_SC_ALL$ PTR /*(ADDR(NIL))*/,
              5679                  /* Stopping pointer for common sections for this node */
              5680    1         2 L_START,
              5681    1           3 SN$ PTR /*(ADDR(NIL))*/, /* Segment definition names        */
              5682    1           3 DN$ PTR /*(ADDR(NIL))*/, /* Def names                       */
              5683    1           3 RN$ PTR /*(ADDR(NIL))*/, /* Ref names                       */
              5684    1           3 SC$ PTR /*(ADDR(NIL))*/, /* Sections                        */
              5685    1           3 ED$ PTR /*(ADDR(NIL))*/, /* Entry defs*/
              5686    1           3 ER$ PTR /*(ADDR(NIL))*/, /* Entry refs*/
              5687    1           3 DD$ PTR /*(ADDR(NIL))*/, /* Data defs                       */
              5688    1           3 DR$ PTR /*(ADDR(NIL))*/, /* Data refs                       */
              5689    1           3 SD$ PTR /*(ADDR(NIL))*/, /* Seg defs                        */
              5690    1           3 SR$ PTR /*(ADDR(NIL))*/, /* Seg refs                        */
              5691    1         2 L_START_A$(0:9)     REDEF L_START PTR,
              5692    1         2 L_STOP,
              5693    1           3 SN$ PTR /*(ADDR(NIL))*/, /* Segment definition names        */
              5694    1           3 DN$ PTR /*(ADDR(NIL))*/, /* Def names                       */
              5695    1           3 RN$ PTR /*(ADDR(NIL))*/, /* Ref names                       */
              5696    1           3 SC$ PTR /*(ADDR(NIL))*/, /* Sections                        */
              5697    1           3 ED$ PTR /*(ADDR(NIL))*/, /* Entry defs*/
              5698    1           3 ER$ PTR /*(ADDR(NIL))*/, /* Entry refs*/
              5699    1           3 DD$ PTR /*(ADDR(NIL))*/, /* Data defs                       */
              5700    1           3 DR$ PTR /*(ADDR(NIL))*/, /* Data refs                       */
              5701    1           3 SD$ PTR /*(ADDR(NIL))*/, /* Seg defs                        */
              5702    1           3 SR$ PTR /*(ADDR(NIL))*/, /* Seg refs                        */
              5703    1         2 L_STOP_A$(0:9) REDEF   L_STOP    PTR,
              5704    1         2 L_SIZE,
              5705    1           3 SN      UBIN /*(0)*/, /* Segment definition names           */
              5706    1           3 DN      UBIN /*(0)*/, /* Def names                          */
              5707    1           3 RN      UBIN /*(0)*/, /* Ref names                          */
              5708    1           3 SC      UBIN /*(0)*/, /* Sections                           */
              5709    1           3 ED      UBIN /*(0)*/, /* Entry defs*/
              5710    1           3 ER      UBIN /*(0)*/, /* Entry refs*/
              5711    1           3 DD      UBIN /*(0)*/, /* Data defs                          */
PL6.E3A0      #001=VYA$ND File=VYA$ND.:E05TSI                                    WED 07/30/97 08:51 Page:18
              5712    1           3 DR      UBIN /*(0)*/, /* Data refs                          */
              5713    1           3 SD      UBIN /*(0)*/, /* Seg defs                           */
              5714    1           3 SR      UBIN /*(0)*/, /* Seg refs                           */
              5715    1         2 L_SIZE_A(0:9)  REDEF   L_SIZE    UBIN,
              5716    1         2 L_PREV_SIZE,
              5717    1           3 SN      UBIN /*(0)*/, /* Segment definition names           */
              5718    1           3 DN      UBIN /*(0)*/, /* Def names                          */
              5719    1           3 RN      UBIN /*(0)*/, /* Ref names                          */
              5720    1           3 SC      UBIN /*(0)*/, /* Sections                           */
              5721    1           3 ED      UBIN /*(0)*/, /* Entry defs*/
              5722    1           3 ER      UBIN /*(0)*/, /* Entry refs*/
              5723    1           3 DD      UBIN /*(0)*/, /* Data defs                          */
              5724    1           3 DR      UBIN /*(0)*/, /* Data refs                          */
              5725    1           3 SD      UBIN /*(0)*/, /* Seg defs                           */
              5726    1           3 SR      UBIN /*(0)*/, /* Seg refs                           */
              5727    1         2 L_PREV_SIZE_A(0:9)  REDEF   L_PREV_SIZE    UBIN,
              5728    1         2 BIT_MAP                ALIGNED,
              5729    1           3 DATA                  ALIGNED,
              5730    1             4 BITS(0:255)          BIT(1)    UNAL /*('0'B*256)*/,
              5731    1           3 RPROC                 ALIGNED,
              5732    1             4 BITS(0:255)          BIT(1)    UNAL /*('0'B*256)*/,
              5733    1           3 ROS                   ALIGNED,
              5734    1             4 BITS(0:255)          BIT(1)    UNAL /*('0'B*256)*/,
              5735    1         2 L_SC_START,
              5736    1           3 SC_BLK_COM$ PTR /*(ADDR(NIL))*/, /* Blank common            */
              5737    1           3 SC_ROOT_LBL_COM$ PTR /*(ADDR(NIL))*/, /* Root labelled common */
              5738    1           3 SC_LBL_COM$ PTR /*(ADDR(NIL))*/, /* Labelled common         */
              5739    1           3 SC_DCB$ PTR /*(ADDR(NIL))*/, /* Dcbs                        */
              5740    1         2 L_SC_START_A$(0:3)  REDEF L_SC_START PTR,
              5741    1         2 L_SC_STOP,
              5742    1           3 SC_BLK_COM$ PTR /*(ADDR(NIL))*/, /* Blank common            */
              5743    1           3 SC_ROOT_LBL_COM$ PTR /*(ADDR(NIL))*/, /* Root labelled common */
              5744    1           3 SC_LBL_COM$ PTR /*(ADDR(NIL))*/, /* Labelled common         */
              5745    1           3 SC_DCB$ PTR /*(ADDR(NIL))*/, /* Dcbs                        */
              5746    1         2 L_SC_STOP_A$(0:3)   REDEF L_SC_STOP  PTR,
              5747    1         2 PROMOTE_HEAD,
              5748    1           3 BLK_COM$              PTR /*(ADDR(NIL))*/,
PL6.E3A0      #001=VYA$ND File=VYA$ND.:E05TSI                                    WED 07/30/97 08:51 Page:19
              5749    1           3 LBL_COM$              PTR /*(ADDR(NIL))*/,
              5750    1         2 PROMOTE_HEAD_A$(0:1) REDEF PROMOTE_HEAD     PTR,
              5751    1         2 PROMOTE_TAIL,
              5752    1           3 BLK_COM$              PTR /*(ADDR(NIL))*/,
              5753    1           3 LBL_COM$              PTR /*(ADDR(NIL))*/,
              5754    1         2 PROMOTE_TAIL_A$(0:1) REDEF PROMOTE_TAIL     PTR,
              5755    1         2 HAVE_ASL          BIT(1)    UNAL /*('0'B)*/,
              5756    1         2 ALL_BLK_COM          BIT(1)    UNAL /*('0'B)*/,
              5757    1         2 *                 BIT(34)   UNAL /*('0'B)*/,
              5758    1         2 BLANK_COMMON$     PTR       ALIGNED /*(ADDR(NIL))*/;

       22     5762        %VY$NODE(NAME=INITIALIZED_NODE,STCLASS= CONSTANT);

              5774    1   /*******************************************************************************
              5775    1   *                                                                              *
              5776    1   *                          INITIALIZED_NODE                                       *
              5777    1   *                                                                              *
              5778    1   *******************************************************************************/

              5794    1   DCL 1 INITIALIZED_NODE      ALIGNED    CONSTANT,
              5795    1         2 SON$ PTR INIT(ADDR(NIL)) , /* Son pointer                      */
              5796    1         2 BROTHER$ PTR INIT(ADDR(NIL)) , /* Brother pointer              */
              5797    1         2 FATHER$ PTR INIT(ADDR(NIL)) , /* Father pointer                */
              5798    1         2 PATH$ PTR INIT(ADDR(NIL)) , /* Path   pointer                  */
              5799    1         2 HEAD$       PTR INIT(ADDR(NIL)) , /* Head pointer to
              5800                              to list of file nodes for this node            */
              5801    1         2 TAIL$ PTR INIT(ADDR(NIL)) , /* Tail pointer to list            */
              5802    1         2 SHARED_LIB_HEAD$ PTR INIT(ADDR(NIL)) ,
              5802                  /* Head pointer to shared library list */
              5803    1         2 LIB_HEAD$         PTR INIT(ADDR(NIL)) ,
              5803                  /* Head pointer to list of shared libraries
              5804                                          which have been mapped to included libraries */
              5805    1         2 NUM          UBIN(36)  UNAL,    /* Node number                        */
              5806    1         2 DEPTH          UBIN(36)  UNAL,  /* Depth; ROOT=0*/
              5807    1         2 ADDR_START_A(0:2/*@ROS*/) SBIN WORD INIT(0*3) , /* Array            */
              5808    1         2 ADDR_START REDEF  ADDR_START_A,
              5809    1           3 RDATA       SBIN WORD,   /* First address for this node in data     */
PL6.E3A0      #001=VYA$ND File=VYA$ND.:E05TSI                                    WED 07/30/97 08:51 Page:20
              5810    1           3 RPROC       SBIN WORD,   /* First address for this node in proc     */
              5811    1           3 ROS       SBIN WORD,          /* Last address for program in ros    */
              5812    1         2 ADDR_STOP_A(0:2/*@ROS*/) SBIN WORD INIT(-1*3) , /* Array            */
              5813    1         2 ADDR_STOP  REDEF  ADDR_STOP_A,
              5814    1           3 RDATA       SBIN WORD,        /* Last address for this node in data */
              5815    1           3 RPROC       SBIN WORD,        /* Last address for this node in proc */
              5816    1           3 ROS       SBIN WORD,          /* Last address for program in ros    */
              5817    1         2 START_PAGE#_A(0:2/*@ROS*/) SBIN WORD INIT(0*3) , /* Array           */
              5818    1         2 START_PAGE# REDEF START_PAGE#_A,
              5819    1           3 RDATA       SBIN WORD,   /* First page    for this node in data     */
              5820    1           3 RPROC       SBIN WORD,   /* First page    for this node in proc     */
              5821    1           3 ROS       SBIN WORD,          /* First page   for program in ros    */
              5822    1         2 STOP_PAGE#_A(0:2/*@ROS*/) SBIN WORD INIT(-1*3) , /* Array*/
              5823    1         2 STOP_PAGE#  REDEF STOP_PAGE#_A,
              5824    1           3 RDATA       SBIN WORD,   /* Last  page    for this node in data     */
              5825    1           3 RPROC       SBIN WORD,   /* Last  page    for this node in proc     */
              5826    1           3 ROS       SBIN WORD,          /* Last  page   for program in ros    */
              5827    1         2 START_SC_ALL$ PTR INIT(ADDR(NIL)) ,
              5827                  /* Starting pointer for common sections for this node */
              5828    1         2 STOP_SC_ALL$ PTR INIT(ADDR(NIL)) ,
              5828                  /* Stopping pointer for common sections for this node */
              5829    1         2 L_START,
              5830    1           3 SN$ PTR INIT(ADDR(NIL)) , /* Segment definition names        */
              5831    1           3 DN$ PTR INIT(ADDR(NIL)) , /* Def names                       */
              5832    1           3 RN$ PTR INIT(ADDR(NIL)) , /* Ref names                       */
              5833    1           3 SC$ PTR INIT(ADDR(NIL)) , /* Sections                        */
              5834    1           3 ED$ PTR INIT(ADDR(NIL)) , /* Entry defs*/
              5835    1           3 ER$ PTR INIT(ADDR(NIL)) , /* Entry refs*/
              5836    1           3 DD$ PTR INIT(ADDR(NIL)) , /* Data defs                       */
              5837    1           3 DR$ PTR INIT(ADDR(NIL)) , /* Data refs                       */
              5838    1           3 SD$ PTR INIT(ADDR(NIL)) , /* Seg defs                        */
              5839    1           3 SR$ PTR INIT(ADDR(NIL)) , /* Seg refs                        */
              5840    1         2 L_START_A$(0:9)     REDEF L_START PTR,
              5841    1         2 L_STOP,
              5842    1           3 SN$ PTR INIT(ADDR(NIL)) , /* Segment definition names        */
              5843    1           3 DN$ PTR INIT(ADDR(NIL)) , /* Def names                       */
              5844    1           3 RN$ PTR INIT(ADDR(NIL)) , /* Ref names                       */
PL6.E3A0      #001=VYA$ND File=VYA$ND.:E05TSI                                    WED 07/30/97 08:51 Page:21
              5845    1           3 SC$ PTR INIT(ADDR(NIL)) , /* Sections                        */
              5846    1           3 ED$ PTR INIT(ADDR(NIL)) , /* Entry defs*/
              5847    1           3 ER$ PTR INIT(ADDR(NIL)) , /* Entry refs*/
              5848    1           3 DD$ PTR INIT(ADDR(NIL)) , /* Data defs                       */
              5849    1           3 DR$ PTR INIT(ADDR(NIL)) , /* Data refs                       */
              5850    1           3 SD$ PTR INIT(ADDR(NIL)) , /* Seg defs                        */
              5851    1           3 SR$ PTR INIT(ADDR(NIL)) , /* Seg refs                        */
              5852    1         2 L_STOP_A$(0:9) REDEF   L_STOP    PTR,
              5853    1         2 L_SIZE,
              5854    1           3 SN      UBIN INIT(0) , /* Segment definition names           */
              5855    1           3 DN      UBIN INIT(0) , /* Def names                          */
              5856    1           3 RN      UBIN INIT(0) , /* Ref names                          */
              5857    1           3 SC      UBIN INIT(0) , /* Sections                           */
              5858    1           3 ED      UBIN INIT(0) , /* Entry defs*/
              5859    1           3 ER      UBIN INIT(0) , /* Entry refs*/
              5860    1           3 DD      UBIN INIT(0) , /* Data defs                          */
              5861    1           3 DR      UBIN INIT(0) , /* Data refs                          */
              5862    1           3 SD      UBIN INIT(0) , /* Seg defs                           */
              5863    1           3 SR      UBIN INIT(0) , /* Seg refs                           */
              5864    1         2 L_SIZE_A(0:9)  REDEF   L_SIZE    UBIN,
              5865    1         2 L_PREV_SIZE,
              5866    1           3 SN      UBIN INIT(0) , /* Segment definition names           */
              5867    1           3 DN      UBIN INIT(0) , /* Def names                          */
              5868    1           3 RN      UBIN INIT(0) , /* Ref names                          */
              5869    1           3 SC      UBIN INIT(0) , /* Sections                           */
              5870    1           3 ED      UBIN INIT(0) , /* Entry defs*/
              5871    1           3 ER      UBIN INIT(0) , /* Entry refs*/
              5872    1           3 DD      UBIN INIT(0) , /* Data defs                          */
              5873    1           3 DR      UBIN INIT(0) , /* Data refs                          */
              5874    1           3 SD      UBIN INIT(0) , /* Seg defs                           */
              5875    1           3 SR      UBIN INIT(0) , /* Seg refs                           */
              5876    1         2 L_PREV_SIZE_A(0:9)  REDEF   L_PREV_SIZE    UBIN,
              5877    1         2 BIT_MAP                ALIGNED,
              5878    1           3 DATA                  ALIGNED,
              5879    1             4 BITS(0:255)          BIT(1)    UNAL INIT('0'B*256) ,
              5880    1           3 RPROC                 ALIGNED,
              5881    1             4 BITS(0:255)          BIT(1)    UNAL INIT('0'B*256) ,
PL6.E3A0      #001=VYA$ND File=VYA$ND.:E05TSI                                    WED 07/30/97 08:51 Page:22
              5882    1           3 ROS                   ALIGNED,
              5883    1             4 BITS(0:255)          BIT(1)    UNAL INIT('0'B*256) ,
              5884    1         2 L_SC_START,
              5885    1           3 SC_BLK_COM$ PTR INIT(ADDR(NIL)) , /* Blank common            */
              5886    1           3 SC_ROOT_LBL_COM$ PTR INIT(ADDR(NIL)) , /* Root labelled common */
              5887    1           3 SC_LBL_COM$ PTR INIT(ADDR(NIL)) , /* Labelled common         */
              5888    1           3 SC_DCB$ PTR INIT(ADDR(NIL)) , /* Dcbs                        */
              5889    1         2 L_SC_START_A$(0:3)  REDEF L_SC_START PTR,
              5890    1         2 L_SC_STOP,
              5891    1           3 SC_BLK_COM$ PTR INIT(ADDR(NIL)) , /* Blank common            */
              5892    1           3 SC_ROOT_LBL_COM$ PTR INIT(ADDR(NIL)) , /* Root labelled common */
              5893    1           3 SC_LBL_COM$ PTR INIT(ADDR(NIL)) , /* Labelled common         */
              5894    1           3 SC_DCB$ PTR INIT(ADDR(NIL)) , /* Dcbs                        */
              5895    1         2 L_SC_STOP_A$(0:3)   REDEF L_SC_STOP  PTR,
              5896    1         2 PROMOTE_HEAD,
              5897    1           3 BLK_COM$              PTR INIT(ADDR(NIL)) ,
              5898    1           3 LBL_COM$              PTR INIT(ADDR(NIL)) ,
              5899    1         2 PROMOTE_HEAD_A$(0:1) REDEF PROMOTE_HEAD     PTR,
              5900    1         2 PROMOTE_TAIL,
              5901    1           3 BLK_COM$              PTR INIT(ADDR(NIL)) ,
              5902    1           3 LBL_COM$              PTR INIT(ADDR(NIL)) ,
              5903    1         2 PROMOTE_TAIL_A$(0:1) REDEF PROMOTE_TAIL     PTR,
              5904    1         2 HAVE_ASL          BIT(1)    UNAL INIT('0'B) ,
              5905    1         2 ALL_BLK_COM          BIT(1)    UNAL INIT('0'B) ,
              5906    1         2 *                 BIT(34)   UNAL INIT('0'B) ,
              5907    1         2 BLANK_COMMON$     PTR       ALIGNED INIT(ADDR(NIL)) ;

       23     5911        %VY$SC;

              5925    1   /*******************************************************************************
              5926    1   *                                                                              *
              5927    1   *                          VY$SC                                                 *
              5928    1   *                                                                              *
              5929    1   *******************************************************************************/

              5933    1   DCL 1 VY$SC               BASED     ALIGNED,
              5934    1         2 TYPE              UBIN(9)   UNAL,
PL6.E3A0      #001=VYA$ND File=VYA$ND.:E05TSI                                    WED 07/30/97 08:51 Page:23
              5935    1         2 EMPTY             BIT (1)   UNAL,
              5936    1         2 ATTR                        UNAL,
              5937    1           3 INT              UBIN(2)   UNAL,
              5938    1           3 SEGMENT          BIT(1)    UNAL,
              5939    1           3 ALL              BIT(1)    UNAL,
              5940    1           3 PRE_DCB          BIT(1) UNAL, /* '1'B => true; '0'B => false        */
              5941    1           3 MES_INIT         BIT (1)   UNAL,
              5942    1           3 ALIGN            UBIN(2)   UNAL,
              5943    1         2 ADDRESS           UBIN(18)  UNAL,
              5944    1         2 NAME_DISP         SBIN HALF UNAL,
              5945    1         2 SIZE              UBIN(18)  UNAL,
              5946    1         2 NODE#             UBIN(18)  UNAL,
              5947    1         2 COM_LINK          UBIN(18)  UNAL;

              5956    1   /*******************************************************************************
              5957    1   *                                                                              *
              5958    1   *                          VY$SECT                                                *
              5959    1   *                                                                              *
              5960    1   *******************************************************************************/

              5964    1   DCL 1 VY$SECT       BASED     ALIGNED,
              5965    1         2 TYPE              UBIN(9)   UNAL,
              5966    1         2 EMPTY             BIT (1)   UNAL,
              5967    1         2 ATTR                        UNAL,
              5968    1           3 INT              UBIN(2)  UNAL,
              5969    1           3 SEGMENT          BIT (1)  UNAL,
              5970    1           3 *                UBIN(3)  UNAL,
              5971    1           3 ALIGN            UBIN(2)  UNAL,
              5972    1         2 SIZE              UBIN(18)  UNAL,
              5973    1         2 NAME_DISP         SBIN HALF UNAL,
              5974    1         2 SEG_NPOINTER      UBIN(18)  UNAL;
       24     5977        %PTR;

              5985    1   /*******************************************************************************
              5986    1   *                                                                              *
              5987    1   *                          PTR                                                 *
              5988    1   *                                                                              *
PL6.E3A0      #001=VYA$ND File=VYA$ND.:E05TSI                                    WED 07/30/97 08:51 Page:24
              5989    1   *******************************************************************************/

       25     5993    1   DCL GOT$            PTR       ALIGNED   STATIC;
       26     5994        %E;

              6002    1   /*******************************************************************************
              6003    1   *                                                                              *
              6004    1   *                          ENTRY                                                 *
              6005    1   *                                                                              *
              6006    1   *******************************************************************************/

       27     6010    1   DCL VYA$GET         ENTRY(3);

PL6.E3A0      #001=VYA$ND File=VYA$ND.:E05TSI                                    WED 07/30/97 08:51 Page:25
       29     6012        %BANNER(ARG="Begin  VYA$ND");

              6020    1   /*******************************************************************************
              6021    1   *                                                                              *
              6022    1   *                          Begin  VYA$ND                                          *
              6023    1   *                                                                              *
              6024    1   *******************************************************************************/

       30     6028    1         GOT$ = ALL$;

   6028  3 000002   200003 470500                    LDP0    @ALL$,,AUTO
         3 000003   000000 236100                    LDQ     0,,PR0
         3 000004   000000 756000 2                  STQ     GOT$

       31     6029    1         GOT$ -> VY$NODE = INITIALIZED_NODE;

   6029  3 000005   000000 471400 2                  LDP1    GOT$
         3 000006   000100 100400                    MLR     fill='000'O
         3 000007   000000 000630 1                  ADSC9   INITIALIZED_NODE         cn=0,n=408
         3 000010   100000 000630                    ADSC9   0,,PR1                   cn=0,n=408

       32     6030    1         GOT$ -> VY$NODE.FATHER$       = FATHER$;

   6030  3 000011   200004 473500                    LDP3    @FATHER$,,AUTO
         3 000012   300000 236100                    LDQ     0,,PR3
         3 000013   100002 756100                    STQ     2,,PR1

       33     6031    1         GOT$ -> VY$NODE.TAIL$         =  ADDR( GOT$ -> VY$NODE.HEAD$ );

   6031  3 000014   000000 236000 2                  LDQ     GOT$
         3 000015   000004 036003                    ADLQ    4,DU
         3 000016   100005 756100                    STQ     5,,PR1

       34     6032    1         VY_NODE_NUMBER = VY_NODE_NUMBER + 1;

   6032  3 000017   000000 054000 xsym               AOS     VY_NODE_NUMBER

PL6.E3A0      #001=VYA$ND File=VYA$ND.:E05TSI                                    WED 07/30/97 08:51 Page:26
       35     6033    1         GOT$ -> VY$NODE.NUM           = VY_NODE_NUMBER;

   6033  3 000020   000000 235000 xsym               LDA     VY_NODE_NUMBER
         3 000021   100010 755100                    STA     8,,PR1

       36     6034    1         IF FATHER$ = ADDR(NIL) THEN GOT$ -> VY$NODE.DEPTH = 0;

   6034  3 000022   300000 236100                    LDQ     0,,PR3
         3 000023   000001 116000 xsym               CMPQ    B_VECTNIL+1
         3 000024   000027 601000 3                  TNZ     s:6035

   6034  3 000025   100011 450100                    STZ     9,,PR1
         3 000026   000033 710000 3                  TRA     s:6036

       37     6035    1         ELSE GOT$ -> VY$NODE.DEPTH = FATHER$ -> VY$NODE.DEPTH + 1;

   6035  3 000027   300000 474500                    LDP4    0,,PR3
         3 000030   400011 235100                    LDA     9,,PR4
         3 000031   000001 035007                    ADLA    1,DL
         3 000032   100011 755100                    STA     9,,PR1

       38     6036    1   END VYA$ND;

   6036  3 000033   000000 702200 xent               TSX2  ! X66_ARET

PL6.E3A0      #001=VYA$ND File=VYA$ND.:E05TSI                                    WED 07/30/97 08:51 Page:27
--  Include file information  --

   XU_MACRO_C.:E05TOU  is referenced.
   VY_FIXED_R.:E05TOU  cannot be made into a system file and is referenced.
   VY_DATA_R.:E05TOU  cannot be made into a system file and is referenced.
   VY_MACRO_C.:E05TOU  is referenced.
   VY_SUBS_C.:E05TOU  is referenced.
   CP_6.:E05TOU  cannot be made into a system file and is referenced.
   B$JIT_C.:E05TOU  was found in the system file and is never referenced.
   CP_6_C.:E05TOU  was found in the system file and is referenced.
      No diagnostics issued in procedure VYA$ND.
PL6.E3A0      #001=VYA$ND File=VYA$ND.:E05TSI                                    WED 07/30/97 08:51 Page:28

 **** Variables and constants ****

  ****  Section 001 RoData VYA$ND

  ****  Scalars and arrays  ****
OctLoc.c.b A Datatyp(siz) R M Lvl/name                 OctLoc.c.b A Datatyp(siz) R M Lvl/name

     0-0-0/w STRC(3672)  r     1 INITIALIZED_NODE

  ****  Section 002  Data  VYA$ND

  ****  Scalars and arrays  ****
OctLoc.c.b A Datatyp(siz) R M Lvl/name                 OctLoc.c.b A Datatyp(siz) R M Lvl/name

     0-0-0/w PTR         r     1 GOT$

  ****  Auto variables  ****

  ****  Scalars and arrays  ****
OctLoc.c.b A Datatyp(siz) R M Lvl/name                 OctLoc.c.b A Datatyp(siz) R M Lvl/name

     3-0-0/w PTR         r     1 @ALL$                      4-0-0/w PTR         r     1 @FATHER$
    *0-0-0/w PTR         r     1 ALL$                      *0-0-0/w PTR         r     1 FATHER$

  ****  SYMREF variables  ****

  ****  Scalars and arrays  ****
OctLoc.c.b A Datatyp(siz) R M Lvl/name                 OctLoc.c.b A Datatyp(siz) R M Lvl/name

     0-0-0/w SBIN        r     1 VY_NODE_NUMBER

  ****  BASED and DCB variables  ****

  ****  Scalars and arrays  ****
OctLoc.c.b A Datatyp(siz) R M Lvl/name                 OctLoc.c.b A Datatyp(siz) R M Lvl/name

     0-0-0/w STRC(3672)  r     1 VY$NODE
PL6.E3A0      #001=VYA$ND File=VYA$ND.:E05TSI                                    WED 07/30/97 08:51 Page:29


   Procedure VYA$ND requires 28 words for executable code.
   Procedure VYA$ND requires 6 words of local(AUTO) storage.

    No errors detected in file VYA$ND.:E05TSI    .
PL6.E3A0      #001=VYA$ND File=VYA$ND.:E05TSI                                    WED 07/30/97 08:51 Page:30
          *** CROSS REFERENCE LISTING ***
**     DENOTES     IDENTIFIER DEFINITION
<<                 IDENTIFIER'S VALUE SET
>>                 IDENTIFIER'S VALUE USED
<>                 IDENTIFIER SET AND/OR USED
--                 IDENTIFIER REFERENCED
PL6.E3A0      #001=VYA$ND File=VYA$ND.:E05TSI                                    WED 07/30/97 08:51 Page:31
          MINI XREF LISTING

ALL$
      5611**DCL         7--PROC     6028>>ASSIGN
FATHER$
      5612**DCL         7--PROC     6030>>ASSIGN   6034>>IF       6035>>ASSIGN
GOT$
      5993**DCL      6028<<ASSIGN   6029>>ASSIGN   6030>>ASSIGN   6031>>ASSIGN   6031>>ASSIGN   6033>>ASSIGN
      6034>>ASSIGN   6035>>ASSIGN
INITIALIZED_NODE
      5794**DCL      6029>>ASSIGN
INITIALIZED_NODE.ADDR_START_A
      5807**DCL      5808--REDEF
INITIALIZED_NODE.ADDR_STOP_A
      5812**DCL      5813--REDEF
INITIALIZED_NODE.L_PREV_SIZE
      5865**DCL      5876--REDEF
INITIALIZED_NODE.L_SC_START
      5884**DCL      5889--REDEF
INITIALIZED_NODE.L_SC_STOP
      5890**DCL      5895--REDEF
INITIALIZED_NODE.L_SIZE
      5853**DCL      5864--REDEF
INITIALIZED_NODE.L_START
      5829**DCL      5840--REDEF
INITIALIZED_NODE.L_STOP
      5841**DCL      5852--REDEF
INITIALIZED_NODE.PROMOTE_HEAD
      5896**DCL      5899--REDEF
INITIALIZED_NODE.PROMOTE_TAIL
      5900**DCL      5903--REDEF
INITIALIZED_NODE.START_PAGE#_A
      5817**DCL      5818--REDEF
INITIALIZED_NODE.STOP_PAGE#_A
PL6.E3A0      #001=VYA$ND File=VYA$ND.:E05TSI                                    WED 07/30/97 08:51 Page:32
      5822**DCL      5823--REDEF
VY$NODE
      5645**DCL      6029<<ASSIGN
VY$NODE.ADDR_START_A
      5658**DCL      5659--REDEF
VY$NODE.ADDR_STOP_A
      5663**DCL      5664--REDEF
VY$NODE.DEPTH
      5657**DCL      6034<<ASSIGN   6035<<ASSIGN   6035>>ASSIGN
VY$NODE.FATHER$
      5648**DCL      6030<<ASSIGN
VY$NODE.HEAD$
      5650**DCL      6031--ASSIGN
VY$NODE.L_PREV_SIZE
      5716**DCL      5727--REDEF
VY$NODE.L_SC_START
      5735**DCL      5740--REDEF
VY$NODE.L_SC_STOP
      5741**DCL      5746--REDEF
VY$NODE.L_SIZE
      5704**DCL      5715--REDEF
VY$NODE.L_START
      5680**DCL      5691--REDEF
VY$NODE.L_STOP
      5692**DCL      5703--REDEF
VY$NODE.NUM
      5656**DCL      6033<<ASSIGN
VY$NODE.PROMOTE_HEAD
      5747**DCL      5750--REDEF
VY$NODE.PROMOTE_TAIL
      5751**DCL      5754--REDEF
VY$NODE.START_PAGE#_A
      5668**DCL      5669--REDEF
VY$NODE.STOP_PAGE#_A
      5673**DCL      5674--REDEF
VY$NODE.TAIL$
PL6.E3A0      #001=VYA$ND File=VYA$ND.:E05TSI                                    WED 07/30/97 08:51 Page:33
      5652**DCL      6031<<ASSIGN
VY_BIAS.A
      1573**DCL      1573--REDEF
VY_CBUF.CHARS_A
      1564**DCL      1564--REDEF
VY_EBUF.CHARS_A
      1865**DCL      1866--REDEF
VY_EFIELD1.CHARS
      1866**DCL      1866--REDEF
VY_EFIELD2.CHARS
      1867**DCL      1867--REDEF
VY_EFIELD3.CHARS
      1868**DCL      1868--REDEF
VY_ERRORS
      1569**DCL      1571--REDEF
VY_ERRORS.CONFLICT_A
      1570**DCL      1571--REDEF
VY_ERRORS.UNSAT_A
      1569**DCL      1570--REDEF
VY_IMAGE_DATA.CPAGE#_A
      5525**DCL      5526--REDEF
VY_IMAGE_DATA.NODE_A$
      5537**DCL      5538--REDEF
VY_IMAGE_DATA.START_A$
      5529**DCL      5530--REDEF
VY_IMAGE_DATA.STOP_A$
      5533**DCL      5534--REDEF
VY_IMAGE_PROC.CPAGE#_A
      5548**DCL      5549--REDEF
VY_IMAGE_PROC.NODE_A$
      5560**DCL      5561--REDEF
VY_IMAGE_PROC.START_A$
      5552**DCL      5553--REDEF
VY_IMAGE_PROC.STOP_A$
      5556**DCL      5557--REDEF
VY_IMAGE_ROS.CPAGE#_A
PL6.E3A0      #001=VYA$ND File=VYA$ND.:E05TSI                                    WED 07/30/97 08:51 Page:34
      5571**DCL      5572--REDEF
VY_IMAGE_ROS.NODE_A$
      5583**DCL      5584--REDEF
VY_IMAGE_ROS.START_A$
      5575**DCL      5576--REDEF
VY_IMAGE_ROS.STOP_A$
      5579**DCL      5580--REDEF
VY_MAP_HDR.CHARS
      1930**DCL      1931--REDEF    1931--REDEF
VY_MAP_LIT_LO_FPT_WRITE.STATION_
      5327**DCL      5327--REDEF
VY_MAP_LIT_LO_FPT_WRITE.V.DVBYTE.VFC#
      5334**DCL      5334--REDEF
VY_MAP_LO_FPT_WRITE.STATION_
      5296**DCL      5296--REDEF
VY_MAP_LO_FPT_WRITE.V.DVBYTE.VFC#
      5303**DCL      5303--REDEF
VY_MBUF.CHARS
      1929**DCL      1930--REDEF    1930--REDEF
VY_M_VECTOR.F
      5366**DCL      5370--REDEF
VY_M_VECTOR_DP.F
      5401**DCL      5405--REDEF
VY_NODE_NUMBER
      1567**DCL      6032<<ASSIGN   6032>>ASSIGN   6033>>ASSIGN
VY_O.DUPL_ATTCH
      1711**DCL      1715--REDEF
VY_O.MAP_ATTCH
      1699**DCL      1710--REDEF
VY_O.PRIMARY_OPTION
      1693**DCL      1698--REDEF
VY_O.SEV_ATTCH
      1716**DCL      1718--REDEF
VY_OD.DUPL_ATTCH
      1855**DCL      1859--REDEF
VY_OD.MAP_ATTCH
PL6.E3A0      #001=VYA$ND File=VYA$ND.:E05TSI                                    WED 07/30/97 08:51 Page:35
      1843**DCL      1854--REDEF
VY_OD.PRIMARY_OPTION
      1837**DCL      1842--REDEF
VY_OD.SEV_ATTCH
      1860**DCL      1862--REDEF
VY_OL_KEY_BUF.FORM0
      5434**DCL      5437--REDEF    5444--REDEF
VY_OU_HEAD.REC_A
      1554**DCL      1555--REDEF
VY_O_KEY_BUF.FORM0
      5411**DCL      5414--REDEF    5421--REDEF
VY_O_KEY_BUF_L.FORM0
      5457**DCL      5460--REDEF    5467--REDEF
VY_PAR_UNWIND
      1924**DCL      1924--REDEF
VY_PASS2_REF.OU.L_START
      1891**DCL      1892--REDEF
VY_PASS2_REF.OU.L_STOP
      1892**DCL      1893--REDEF
VY_PASS2_REF.OU.MAX
      1890**DCL      1891--REDEF
VY_PASS2_REF.OU.SIZE
      1893**DCL      1894--REDEF
VY_PASS2_REF.SAT.COUNT
      1897**DCL      1898--REDEF
VY_PASS2_REF.SAT.ENT_SIZE
      1899**DCL      1900--REDEF
VY_PASS2_REF.SAT.L_START
      1895**DCL      1896--REDEF
VY_PASS2_REF.SAT.L_STOP
      1896**DCL      1897--REDEF
VY_PASS2_REF.SAT.MAX
      1894**DCL      1895--REDEF
VY_PASS2_REF.UNSAT.L_START
      1901**DCL      1902--REDEF
VY_PASS2_REF.UNSAT.L_STOP
PL6.E3A0      #001=VYA$ND File=VYA$ND.:E05TSI                                    WED 07/30/97 08:51 Page:36
      1902**DCL      1903--REDEF
VY_PASS2_REF.UNSAT.L_WHERE
      1903**DCL      1904--REDEF
VY_PASS2_REF.UNSAT.MAX
      1900**DCL      1901--REDEF
VY_PASS2_REF.UNSAT.PAGE#
      1905**DCL      1906--REDEF
VY_PASS2_REF.UNSAT.SIZE
      1904**DCL      1905--REDEF
VY_PROGRAM_BIAS.A
      1572**DCL      1572--REDEF
VY_RU_HEAD.DATA_SEGMENT
      1540**DCL      1540--REDEF
VY_RU_HEAD.L
      1536**DCL      1537--REDEF
VY_RU_HEAD.MAP_BITS
      1537**DCL      1539--REDEF
VY_RU_HEAD.PBIT
      1533**DCL      1533--REDEF
VY_RU_HEAD_BUF.DATA_SEGMENT
      1550**DCL      1550--REDEF
VY_RU_HEAD_BUF.L
      1545**DCL      1546--REDEF
VY_RU_HEAD_BUF.MAP_BITS
      1547**DCL      1549--REDEF
VY_RU_HEAD_BUF.PBIT
      1542**DCL      1543--REDEF
VY_R_KEY_BUF.FORM0
      5480**DCL      5484--REDEF    5490--REDEF
VY_SI_KEY_BUF.KEY
      1920**DCL      1920--REDEF
VY_SPC.B$.MINE
      1915**DCL      1916--REDEF
VY_SPC.B$.NAME
      1912**DCL      1912--REDEF
VY_SPC.B$.SKIP
PL6.E3A0      #001=VYA$ND File=VYA$ND.:E05TSI                                    WED 07/30/97 08:51 Page:37
      1914**DCL      1915--REDEF
VY_SPC.B$.VALUE
      1913**DCL      1914--REDEF
VY_SPC.SEG.NAME
      1907**DCL      1908--REDEF
VY_SPC.SEG.VALUE
      1908**DCL      1909--REDEF
VY_TSX0_OVERLAY.H
      1879**DCL      1880--REDEF
