VERSION E05

PL6.E3A0      #001=VYD$C2B File=VYD$C2B.:E05TSI                                  WED 07/30/97 08:52 Page:1
        1        1        /*T***********************************************************/
        2        2        /*T*                                                         */
        3        3        /*T* Copyright (c) Bull HN Information Systems Inc., 1997    */
        4        4        /*T*                                                         */
        5        5        /*T***********************************************************/
        6        6        /*X* DMR,PLM=6,IND=4,CSU=2,EXM=0,ECU=2,MOC,DCI=4,CRT=4          */
        7        7        VYD$C2B:
        8        8              PROC( P_VALUE, STRING, P_BASE ) NOAUTO;
        9        9        %INCLUDE VY_INC_C;
       10     9185        %P;

              9193    1   /*******************************************************************************
              9194    1   *                                                                              *
              9195    1   *                          PARAMETERS                                              *
              9196    1   *                                                                              *
              9197    1   *******************************************************************************/

       11     9201    1   DCL P_VALUE           SBIN WORD ALIGNED;
       12     9202    1   DCL 1 STRING,
       13     9203    1         2 COUNT UBIN( 9) UNAL,
       14     9204    1         2 CHARS_A(0:0) CHAR( 1) UNAL;
       15     9205    1   DCL P_BASE          UBIN WORD ALIGNED;
       16     9206        %U;

              9214    1   /*******************************************************************************
              9215    1   *                                                                              *
              9216    1   *                          UBIN                                                 *
              9217    1   *                                                                              *
              9218    1   *******************************************************************************/

       17     9222    1   DCL I               UBIN WORD ALIGNED STATIC;
       18     9223    1   DCL START           UBIN WORD ALIGNED STATIC;
       19     9224    1   DCL STOP            UBIN WORD ALIGNED STATIC;
       20     9225    1   DCL BASE            UBIN WORD STATIC;
       21     9226        %S;

              9234    1   /*******************************************************************************
PL6.E3A0      #001=VYD$C2B File=VYD$C2B.:E05TSI                                  WED 07/30/97 08:52 Page:2
              9235    1   *                                                                              *
              9236    1   *                          SBIN                                                 *
              9237    1   *                                                                              *
              9238    1   *******************************************************************************/

       22     9242    1   DCL NEG             SBIN WORD ALIGNED STATIC;
       23     9243    1   DCL VALUE           SBIN WORD STATIC;
       24     9244        %EJECT;
PL6.E3A0      #001=VYD$C2B File=VYD$C2B.:E05TSI                                  WED 07/30/97 08:52 Page:3
       25     9245        %BANNER(ARG=Begin  VYD$C2B);

              9253    1   /*******************************************************************************
              9254    1   *                                                                              *
              9255    1   *                          Begin  VYD$C2B                                          *
              9256    1   *                                                                              *
              9257    1   *******************************************************************************/

       26     9261    1         NEG = 1;
       27     9262    1         START = 0;
       28     9263    1         BASE = P_BASE;
       29     9264    1         IF STRING.CHARS_A(0) = '+' THEN START = 1;
       30     9265    2         ELSE IF STRING.CHARS_A(0) = '-' THEN DO;
       31     9266    2                 START = 1;
       32     9267    2                 NEG = -1;
       33     9268    2                END;
       34     9269    1         VALUE = 0;
       35     9270    1         STOP = STRING.COUNT - 1;
       36     9271    2         DO I = START TO STOP;
       37     9272    2             VALUE = VALUE * BASE + ( ASCBIN(STRING.CHARS_A(I)) - BITBIN('060'O) );
       38     9273    2            END;
       39     9274    1         P_VALUE = NEG * VALUE;
       40     9275    1   END VYD$C2B;

PL6.E3A0      #001=VYD$C2B File=VYD$C2B.:E05TSI                                  WED 07/30/97 08:52 Page:4
--  Include file information  --

   B$OBJECT_C.:E05TOU  is referenced.
   VY_DCB_R.:E05TOU  cannot be made into a system file and is referenced.
   VY_DATA_R.:E05TOU  cannot be made into a system file and is referenced.
   XU_MACRO_C.:E05TOU  is referenced.
   VY_FIXED_R.:E05TOU  cannot be made into a system file and is referenced.
   CP_6.:E05TOU  cannot be made into a system file and is referenced.
   VY_MACRO_C.:E05TOU  is referenced.
   VY_PERR_C.:E05TOU  is referenced.
   VY_SUBS_C.:E05TOU  is referenced.
   VY_INC_NO_C.:E05TOU  is referenced.
   VY_SWITCH_C.:E05TOU  is referenced.
   VY_INC_C.:E05TOU  is referenced.
   B$JIT_C.:E05TOU  was found in the system file and is never referenced.
   CP_6_C.:E05TOU  was found in the system file and is referenced.
      No diagnostics issued in procedure VYD$C2B.

   Procedure VYD$C2B requires 57 words for executable code.
   Procedure VYD$C2B is declared NOAUTO and requires 12 words of local(STATIC) storage.

    No errors detected in file VYD$C2B.:E05TSI    .

PL6.E3A0      #001=VYD$C2B File=VYD$C2B.:E05TSI                                  WED 07/30/97 08:52 Page:5

 Object Unit name= VYD$C2B                                    File name= VYD$C2B.:E05TOU
 UTS= JUL 30 '97 08:52:30.28 WED                              Compiler= PL-6/E31         Sev=      00
 SharedLib= :SHARED_SYSTEM                                    Alt SharedLib=


    ****  Control sections  ****

 Sect   Type Bound  Init  Size OctSiz  Section name(segment info)
    0   Data  even  none    12     14  VYD$C2B
    1   DCB   even  none     0      0  M$UC
    2   Proc  even  none    57     71  VYD$C2B
    3  RoData even  none     2      2  VYD$C2B

    ****  Entry defs  ****

                              Check   Calling
                             calling  sequence
  Sect OctLoc Primary Altret sequence   type   Parms  Name
     2      0   yes            yes      Std        3  VYD$C2B

  ****  Entry refs  ****

         Check        Calling
        calling       sequence
Altret sequence SRef   type   Args  Name
                       nStd      0 X66_STATIC_3

  ****  Data refs  ****

  Flags:  r = read only, s = secondary
Flgs Name                             Flgs Name                             Flgs Name
     M$UC                                  VY_ERRORS                             VY_PAR_UNWIND
PL6.E3A0      #001=VYD$C2B File=VYD$C2B.:E05TSI                                  WED 07/30/97 08:52 Page:6


        1        1        /*T***********************************************************/
        2        2        /*T*                                                         */
        3        3        /*T* Copyright (c) Bull HN Information Systems Inc., 1997    */
        4        4        /*T*                                                         */
        5        5        /*T***********************************************************/
        6        6        /*X* DMR,PLM=6,IND=4,CSU=2,EXM=0,ECU=2,MOC,DCI=4,CRT=4          */
        7        7        VYD$C2B:
        8        8              PROC( P_VALUE, STRING, P_BASE ) NOAUTO;

      8  2 000000   000000 700200 xent  VYD$C2B      TSX0  ! X66_STATIC_3
         2 000001   000000 000003 0                  ZERO    0,3

        9        9        %INCLUDE VY_INC_C;
       10     9185        %P;

              9193    1   /*******************************************************************************
              9194    1   *                                                                              *
              9195    1   *                          PARAMETERS                                             *
              9196    1   *                                                                              *
              9197    1   *******************************************************************************/

       11     9201    1   DCL P_VALUE           SBIN WORD ALIGNED;
       12     9202    1   DCL 1 STRING,
       13     9203    1         2 COUNT UBIN( 9) UNAL,
       14     9204    1         2 CHARS_A(0:0) CHAR( 1) UNAL;
       15     9205    1   DCL P_BASE          UBIN WORD ALIGNED;
       16     9206        %U;

              9214    1   /*******************************************************************************
              9215    1   *                                                                              *
              9216    1   *                          UBIN                                                 *
              9217    1   *                                                                              *
              9218    1   *******************************************************************************/

       17     9222    1   DCL I               UBIN WORD ALIGNED STATIC;
       18     9223    1   DCL START           UBIN WORD ALIGNED STATIC;
PL6.E3A0      #001=VYD$C2B File=VYD$C2B.:E05TSI                                  WED 07/30/97 08:52 Page:7
       19     9224    1   DCL STOP            UBIN WORD ALIGNED STATIC;
       20     9225    1   DCL BASE            UBIN WORD STATIC;
       21     9226        %S;

              9234    1   /*******************************************************************************
              9235    1   *                                                                              *
              9236    1   *                          SBIN                                                 *
              9237    1   *                                                                              *
              9238    1   *******************************************************************************/

       22     9242    1   DCL NEG             SBIN WORD ALIGNED STATIC;
       23     9243    1   DCL VALUE           SBIN WORD STATIC;
       24     9244        %EJECT;
PL6.E3A0      #001=VYD$C2B File=VYD$C2B.:E05TSI                                  WED 07/30/97 08:52 Page:8
       25     9245        %BANNER(ARG=Begin  VYD$C2B);

              9253    1   /*******************************************************************************
              9254    1   *                                                                              *
              9255    1   *                          Begin  VYD$C2B                                         *
              9256    1   *                                                                              *
              9257    1   *******************************************************************************/

       26     9261    1         NEG = 1;

   9261  2 000002   000001 235007                    LDA     1,DL
         2 000003   000010 755000 0                  STA     NEG

       27     9262    1         START = 0;

   9262  2 000004   000005 450000 0                  STZ     START

       28     9263    1         BASE = P_BASE;

   9263  2 000005   000003 470400 0                  LDP0    @P_BASE
         2 000006   000000 235100                    LDA     0,,PR0
         2 000007   000007 755000 0                  STA     BASE

       29     9264    1         IF STRING.CHARS_A(0) = '+' THEN START = 1;

   9264  2 000010   000002 471400 0                  LDP1    @STRING
         2 000011   040000 106500                    CMPC    fill='040'O
         2 000012   100000 200001                    ADSC9   0,,PR1                   cn=1,n=1
         2 000013   000000 000001 3                  ADSC9   0                        cn=0,n=1
         2 000014   000020 601000 2                  TNZ     s:9265

   9264  2 000015   000001 236007                    LDQ     1,DL
         2 000016   000005 756000 0                  STQ     START
         2 000017   000030 710000 2                  TRA     s:9269

       30     9265    2         ELSE IF STRING.CHARS_A(0) = '-' THEN DO;

PL6.E3A0      #001=VYD$C2B File=VYD$C2B.:E05TSI                                  WED 07/30/97 08:52 Page:9
   9265  2 000020   040000 106500                    CMPC    fill='040'O
         2 000021   100000 200001                    ADSC9   0,,PR1                   cn=1,n=1
         2 000022   000001 000001 3                  ADSC9   1                        cn=0,n=1
         2 000023   000030 601000 2                  TNZ     s:9269

       31     9266    2                 START = 1;

   9266  2 000024   000001 236007                    LDQ     1,DL
         2 000025   000005 756000 0                  STQ     START

       32     9267    2                 NEG = -1;

   9267  2 000026   000001 335007                    LCA     1,DL
         2 000027   000010 755000 0                  STA     NEG

       33     9268    2                END;

       34     9269    1         VALUE = 0;

   9269  2 000030   000011 450000 0                  STZ     VALUE

       35     9270    1         STOP = STRING.COUNT - 1;

   9270  2 000031   000000 101500                    MRL     fill='000'O
         2 000032   100000 000001                    ADSC9   0,,PR1                   cn=0,n=1
         2 000033   000012 000004 0                  ADSC9   VALUE+1                  cn=0,n=4
         2 000034   000012 236000 0                  LDQ     VALUE+1
         2 000035   000001 136007                    SBLQ    1,DL
         2 000036   000006 756000 0                  STQ     STOP

       36     9271    2         DO I = START TO STOP;

   9271  2 000037   000005 235000 0                  LDA     START
         2 000040   000004 755000 0                  STA     I
         2 000041   000060 710000 2                  TRA     s:9273+2

       37     9272    2             VALUE = VALUE * BASE + ( ASCBIN(STRING.CHARS_A(I)) - BITBIN('060'O) );
PL6.E3A0      #001=VYD$C2B File=VYD$C2B.:E05TSI                                  WED 07/30/97 08:52 Page:10

   9272  2 000042   000011 236000 0                  LDQ     VALUE
         2 000043   000007 402000 0                  MPY     BASE
         2 000044   000002 470400 0                  LDP0    @STRING
         2 000045   000004 235000 0                  LDA     I
         2 000046   000000 101505                    MRL     fill='000'O
         2 000047   000000 200001                    ADSC9   0,A,PR0                  cn=1,n=1
         2 000050   000012 000004 0                  ADSC9   VALUE+1                  cn=0,n=4
         2 000051   000013 756000 0                  STQ     VALUE+2
         2 000052   000012 236000 0                  LDQ     VALUE+1
         2 000053   000013 036000 0                  ADLQ    VALUE+2
         2 000054   000060 136007                    SBLQ    48,DL
         2 000055   000011 756000 0                  STQ     VALUE

       38     9273    2            END;

   9273  2 000056   000001 035007                    ADLA    1,DL
         2 000057   000004 755000 0                  STA     I
         2 000060   000006 236000 0                  LDQ     STOP
         2 000061   000004 116000 0                  CMPQ    I
         2 000062   000042 603000 2                  TRC     s:9272

       39     9274    1         P_VALUE = NEG * VALUE;

   9274  2 000063   000010 236000 0                  LDQ     NEG
         2 000064   000011 402000 0                  MPY     VALUE
         2 000065   000001 470400 0                  LDP0    @P_VALUE
         2 000066   000000 756100                    STQ     0,,PR0

       40     9275    1   END VYD$C2B;

   9275  2 000067   000000 221200 0                  LDX1  ! 0
         2 000070   000001 702211                    TSX2  ! 1,X1

PL6.E3A0      #001=VYD$C2B File=VYD$C2B.:E05TSI                                  WED 07/30/97 08:52 Page:11
--  Include file information  --

   B$OBJECT_C.:E05TOU  is referenced.
   VY_DCB_R.:E05TOU  cannot be made into a system file and is referenced.
   VY_DATA_R.:E05TOU  cannot be made into a system file and is referenced.
   XU_MACRO_C.:E05TOU  is referenced.
   VY_FIXED_R.:E05TOU  cannot be made into a system file and is referenced.
   CP_6.:E05TOU  cannot be made into a system file and is referenced.
   VY_MACRO_C.:E05TOU  is referenced.
   VY_PERR_C.:E05TOU  is referenced.
   VY_SUBS_C.:E05TOU  is referenced.
   VY_INC_NO_C.:E05TOU  is referenced.
   VY_SWITCH_C.:E05TOU  is referenced.
   VY_INC_C.:E05TOU  is referenced.
   B$JIT_C.:E05TOU  was found in the system file and is never referenced.
   CP_6_C.:E05TOU  was found in the system file and is referenced.
      No diagnostics issued in procedure VYD$C2B.
PL6.E3A0      #001=VYD$C2B File=VYD$C2B.:E05TSI                                  WED 07/30/97 08:52 Page:12

 **** Variables and constants ****

  ****  Section 000  Data  VYD$C2B

  ****  Scalars and arrays  ****
OctLoc.c.b A Datatyp(siz) R M Lvl/name                 OctLoc.c.b A Datatyp(siz) R M Lvl/name

     3-0-0/w PTR         r     1 @P_BASE                    1-0-0/w PTR         r     1 @P_VALUE
     2-0-0/w PTR         r     1 @STRING                    7-0-0/w UBIN        r     1 BASE
     4-0-0/w UBIN        r     1 I                         10-0-0/w SBIN        r     1 NEG
    *0-0-0/w UBIN        r     1 P_BASE                    *0-0-0/w SBIN        r     1 P_VALUE
     5-0-0/w UBIN        r     1 START                      6-0-0/w UBIN        r     1 STOP
    *0-0-0/c STRC(18)    r     1 STRING                    11-0-0/w SBIN        r     1 VALUE


   Procedure VYD$C2B requires 57 words for executable code.
   Procedure VYD$C2B is declared NOAUTO and requires 12 words of local(STATIC) storage.

    No errors detected in file VYD$C2B.:E05TSI    .
PL6.E3A0      #001=VYD$C2B File=VYD$C2B.:E05TSI                                  WED 07/30/97 08:52 Page:13
          *** CROSS REFERENCE LISTING ***
**     DENOTES     IDENTIFIER DEFINITION
<<                 IDENTIFIER'S VALUE SET
>>                 IDENTIFIER'S VALUE USED
<>                 IDENTIFIER SET AND/OR USED
--                 IDENTIFIER REFERENCED
PL6.E3A0      #001=VYD$C2B File=VYD$C2B.:E05TSI                                  WED 07/30/97 08:52 Page:14
          MINI XREF LISTING

BASE
      9225**DCL      9263<<ASSIGN   9272>>ASSIGN
I
      9222**DCL      9271<<DOINDEX  9272>>ASSIGN
NEG
      9242**DCL      9261<<ASSIGN   9267<<ASSIGN   9274>>ASSIGN
P_BASE
      9205**DCL         7--PROC     9263>>ASSIGN
P_VALUE
      9201**DCL         7--PROC     9274<<ASSIGN
START
      9223**DCL      9262<<ASSIGN   9264<<ASSIGN   9266<<ASSIGN   9271>>DOINDEX
STOP
      9224**DCL      9270<<ASSIGN   9271>>DOINDEX
STRING
      9202**DCL         7--PROC
STRING.CHARS_A
      9204**DCL      9264>>IF       9265>>IF       9272>>ASSIGN
STRING.COUNT
      9203**DCL      9270>>ASSIGN
VALUE
      9243**DCL      9269<<ASSIGN   9272<<ASSIGN   9272>>ASSIGN   9274>>ASSIGN
VY_BIAS.A
      5385**DCL      5385--REDEF
VY_CBUF.CHARS_A
      5376**DCL      5376--REDEF
VY_EBUF.CHARS_A
      5677**DCL      5678--REDEF
VY_EFIELD1.CHARS
      5678**DCL      5678--REDEF
VY_EFIELD2.CHARS
      5679**DCL      5679--REDEF
PL6.E3A0      #001=VYD$C2B File=VYD$C2B.:E05TSI                                  WED 07/30/97 08:52 Page:15
VY_EFIELD3.CHARS
      5680**DCL      5680--REDEF
VY_ERRORS
      5381**DCL      5383--REDEF
VY_ERRORS.CONFLICT_A
      5382**DCL      5383--REDEF
VY_ERRORS.UNSAT_A
      5381**DCL      5382--REDEF
VY_IMAGE_DATA.CPAGE#_A
      5269**DCL      5270--REDEF
VY_IMAGE_DATA.NODE_A$
      5281**DCL      5282--REDEF
VY_IMAGE_DATA.START_A$
      5273**DCL      5274--REDEF
VY_IMAGE_DATA.STOP_A$
      5277**DCL      5278--REDEF
VY_IMAGE_PROC.CPAGE#_A
      5292**DCL      5293--REDEF
VY_IMAGE_PROC.NODE_A$
      5304**DCL      5305--REDEF
VY_IMAGE_PROC.START_A$
      5296**DCL      5297--REDEF
VY_IMAGE_PROC.STOP_A$
      5300**DCL      5301--REDEF
VY_IMAGE_ROS.CPAGE#_A
      5315**DCL      5316--REDEF
VY_IMAGE_ROS.NODE_A$
      5327**DCL      5328--REDEF
VY_IMAGE_ROS.START_A$
      5319**DCL      5320--REDEF
VY_IMAGE_ROS.STOP_A$
      5323**DCL      5324--REDEF
VY_MAP_HDR.CHARS
      5742**DCL      5743--REDEF    5743--REDEF
VY_MAP_LIT_LO_FPT_WRITE.STATION_
      5071**DCL      5071--REDEF
PL6.E3A0      #001=VYD$C2B File=VYD$C2B.:E05TSI                                  WED 07/30/97 08:52 Page:16
VY_MAP_LIT_LO_FPT_WRITE.V.DVBYTE.VFC#
      5078**DCL      5078--REDEF
VY_MAP_LO_FPT_WRITE.STATION_
      5040**DCL      5040--REDEF
VY_MAP_LO_FPT_WRITE.V.DVBYTE.VFC#
      5047**DCL      5047--REDEF
VY_MBUF.CHARS
      5741**DCL      5742--REDEF    5742--REDEF
VY_M_VECTOR.F
      5110**DCL      5114--REDEF
VY_M_VECTOR_DP.F
      5145**DCL      5149--REDEF
VY_O.DUPL_ATTCH
      5523**DCL      5527--REDEF
VY_O.MAP_ATTCH
      5511**DCL      5522--REDEF
VY_O.PRIMARY_OPTION
      5505**DCL      5510--REDEF
VY_O.SEV_ATTCH
      5528**DCL      5530--REDEF
VY_OD.DUPL_ATTCH
      5667**DCL      5671--REDEF
VY_OD.MAP_ATTCH
      5655**DCL      5666--REDEF
VY_OD.PRIMARY_OPTION
      5649**DCL      5654--REDEF
VY_OD.SEV_ATTCH
      5672**DCL      5674--REDEF
VY_OL_KEY_BUF.FORM0
      5178**DCL      5181--REDEF    5188--REDEF
VY_OU_HEAD.REC_A
      5366**DCL      5367--REDEF
VY_O_KEY_BUF.FORM0
      5155**DCL      5158--REDEF    5165--REDEF
VY_O_KEY_BUF_L.FORM0
      5201**DCL      5204--REDEF    5211--REDEF
PL6.E3A0      #001=VYD$C2B File=VYD$C2B.:E05TSI                                  WED 07/30/97 08:52 Page:17
VY_PAR_UNWIND
      5736**DCL      5736--REDEF
VY_PASS2_REF.OU.L_START
      5703**DCL      5704--REDEF
VY_PASS2_REF.OU.L_STOP
      5704**DCL      5705--REDEF
VY_PASS2_REF.OU.MAX
      5702**DCL      5703--REDEF
VY_PASS2_REF.OU.SIZE
      5705**DCL      5706--REDEF
VY_PASS2_REF.SAT.COUNT
      5709**DCL      5710--REDEF
VY_PASS2_REF.SAT.ENT_SIZE
      5711**DCL      5712--REDEF
VY_PASS2_REF.SAT.L_START
      5707**DCL      5708--REDEF
VY_PASS2_REF.SAT.L_STOP
      5708**DCL      5709--REDEF
VY_PASS2_REF.SAT.MAX
      5706**DCL      5707--REDEF
VY_PASS2_REF.UNSAT.L_START
      5713**DCL      5714--REDEF
VY_PASS2_REF.UNSAT.L_STOP
      5714**DCL      5715--REDEF
VY_PASS2_REF.UNSAT.L_WHERE
      5715**DCL      5716--REDEF
VY_PASS2_REF.UNSAT.MAX
      5712**DCL      5713--REDEF
VY_PASS2_REF.UNSAT.PAGE#
      5717**DCL      5718--REDEF
VY_PASS2_REF.UNSAT.SIZE
      5716**DCL      5717--REDEF
VY_PROGRAM_BIAS.A
      5384**DCL      5384--REDEF
VY_RU_HEAD.DATA_SEGMENT
      5352**DCL      5352--REDEF
PL6.E3A0      #001=VYD$C2B File=VYD$C2B.:E05TSI                                  WED 07/30/97 08:52 Page:18
VY_RU_HEAD.L
      5348**DCL      5349--REDEF
VY_RU_HEAD.MAP_BITS
      5349**DCL      5351--REDEF
VY_RU_HEAD.PBIT
      5345**DCL      5345--REDEF
VY_RU_HEAD_BUF.DATA_SEGMENT
      5362**DCL      5362--REDEF
VY_RU_HEAD_BUF.L
      5357**DCL      5358--REDEF
VY_RU_HEAD_BUF.MAP_BITS
      5359**DCL      5361--REDEF
VY_RU_HEAD_BUF.PBIT
      5354**DCL      5355--REDEF
VY_R_KEY_BUF.FORM0
      5224**DCL      5228--REDEF    5234--REDEF
VY_SI_KEY_BUF.KEY
      5732**DCL      5732--REDEF
VY_SPC.B$.MINE
      5727**DCL      5728--REDEF
VY_SPC.B$.NAME
      5724**DCL      5724--REDEF
VY_SPC.B$.SKIP
      5726**DCL      5727--REDEF
VY_SPC.B$.VALUE
      5725**DCL      5726--REDEF
VY_SPC.SEG.NAME
      5719**DCL      5720--REDEF
VY_SPC.SEG.VALUE
      5720**DCL      5721--REDEF
VY_TSX0_OVERLAY.H
      5691**DCL      5692--REDEF
