VERSION E05

PL6.E3A0      #001=VYD$FLST File=VYD$FLST.:E05TSI                                WED 07/30/97 08:52 Page:1
        1        1        /*T***********************************************************/
        2        2        /*T*                                                         */
        3        3        /*T* Copyright (c) Bull HN Information Systems Inc., 1997    */
        4        4        /*T*                                                         */
        5        5        /*T***********************************************************/
        6        6        /*X* DMR,PLM=6,IND=4,CSU=2,EXM=0,ECU=2,MOC,DCI=4,CRT=4,CTI=8,CCC  */
        7        7        VYD$FLST:
        8        8              PROC( FIRST_P$, LAST_P$, OB_P$, TYPE );
        9        9        %INCLUDE VY_INC_C;
       10     9185        %VY$LST;

              9197    1   /*******************************************************************************
              9198    1   *                                                                              *
              9199    1   *                          VY$LST                                                 *
              9200    1   *                                                                              *
              9201    1   *******************************************************************************/

              9206    1   DCL 1 VY$LST                        ALIGNED BASED,
              9207    1         2 LINK$        PTR,               /* Link to next item                  */
              9208    1         2 TYPE         UBIN( 18) UNAL,    /* Type                               */
              9209    1         2 SUB_TYPE     UBIN( 18) UNAL,    /* Sub-type                           */
              9210    1         2 OBJECT_NAME$ PTR,               /* Pointer to object unit name        */
              9211    1         2 SC_HEAD$     PTR,               /* Head pointer to section link list  */
              9212    1         2 SC_TAIL$     PTR,               /* Tail pointer to section link list  */
              9213    1         2 P,
              9214    1           3 NAME_       ALIGNED,
              9215    1             4 BOUND      UBIN(20)  UNAL,
              9216    1             4 FLAGSV     UBIN(11)  UNAL,
              9217    1             4 *          BIT(5)    UNAL,
              9218    1             4 NAME$      PTR,
              9219    1           3 ACCT_       ALIGNED,
              9220    1             4 BOUND      UBIN(20)  UNAL,
              9221    1             4 FLAGSV     UBIN(11)  UNAL,
              9222    1             4 *          BIT(5)    UNAL,
              9223    1             4 ACCT$      PTR,
              9224    1           3 PASS_       ALIGNED,
              9225    1             4 BOUND      UBIN(20)  UNAL,
PL6.E3A0      #001=VYD$FLST File=VYD$FLST.:E05TSI                                WED 07/30/97 08:52 Page:2
              9226    1             4 FLAGSV     UBIN(11)  UNAL,
              9227    1             4 *          BIT(5)    UNAL,
              9228    1             4 PASS$      PTR,
              9229    1           3 SN_         ALIGNED,
              9230    1             4 BOUND      UBIN(20)  UNAL,
              9231    1             4 FLAGSV     UBIN(11)  UNAL,
              9232    1             4 *          BIT(5)    UNAL,
              9233    1             4 SN$        PTR,
              9234    1           3 WSN_        ALIGNED,
              9235    1             4 BOUND      UBIN(20)  UNAL,
              9236    1             4 FLAGSV     UBIN(11)  UNAL,
              9237    1             4 *          BIT(5)    UNAL,
              9238    1             4 WSN$       PTR,
              9239    1           3 B           ALIGNED,
              9240    1             4 RES        BIT(1)    UNAL,
              9241    1             4 ASN        BIT(1)    UNAL,
              9242    1             4 *          BIT(34)   UNAL,
              9243    1           3 RES         CHAR(4)   ALIGNED,
              9244    1           3 ASN         UBIN(36)  ALIGNED;
       11     9247        %PARSE$OUT( NAME=O$B, STCLASS="BASED");
       12     9292        %P;

              9300    1   /*******************************************************************************
              9301    1   *                                                                              *
              9302    1   *                          PARAMETERS                                              *
              9303    1   *                                                                              *
              9304    1   *******************************************************************************/

       13     9308    1   DCL FIRST_P$        PTR       ALIGNED;
       14     9309    1   DCL LAST_P$         PTR       ALIGNED;
       15     9310    1   DCL OB_P$           PTR       ALIGNED;
       16     9311    1   DCL TYPE            UBIN(36)  ALIGNED;
       17     9312        %PTR;

              9320    1   /*******************************************************************************
              9321    1   *                                                                              *
              9322    1   *                          PTR                                                 *
PL6.E3A0      #001=VYD$FLST File=VYD$FLST.:E05TSI                                WED 07/30/97 08:52 Page:3
              9323    1   *                                                                              *
              9324    1   *******************************************************************************/

       18     9328    1   DCL LAST$           PTR       ALIGNED   STATIC/*AUTO*/;
       19     9329    1   DCL OB$             PTR       ALIGNED   STATIC/*AUTO*/;
       20     9330    1   DCL WHERE$          PTR       ALIGNED   STATIC/*AUTO*/;
       21     9331        %POINTER;
       22     9336        %E;

              9344    1   /*******************************************************************************
              9345    1   *                                                                              *
              9346    1   *                          ENTRY                                                 *
              9347    1   *                                                                              *
              9348    1   *******************************************************************************/

       23     9352    1   DCL VYS$LST         ENTRY(6)  ALTRET;
       24     9353        %U;

              9361    1   /*******************************************************************************
              9362    1   *                                                                              *
              9363    1   *                          UBIN                                                 *
              9364    1   *                                                                              *
              9365    1   *******************************************************************************/

       25     9369    1   DCL I               UBIN(36)  ALIGNED   STATIC/*AUTO*/;
       26     9370    1   DCL STOP       UBIN(36)       ALIGNED   STATIC/*AUTO*/;
       27     9371    1   DCL SUB_TYPE        UBIN(36)  ALIGNED;
       28     9372        %EJECT;
PL6.E3A0      #001=VYD$FLST File=VYD$FLST.:E05TSI                                WED 07/30/97 08:52 Page:4
       29     9373    1         OB$   = OB_P$;
       30     9374    1         STOP  = OB$ -> O$B.NSUBLKS - 1;
       31     9375    2         DO I = 0 TO STOP;
       32     9376    2             Q$ = OB$ -> O$B.SUBLK$(I) -> O$B.SUBLK$(0);
       33     9377    3             IF Q$ -> O$B.NSUBLKS = 2 THEN DO;
       34     9378    3                 P$ = Q$ -> O$B.SUBLK$(1);
       35     9379    3                 SUB_TYPE = 1/*@OF_LIST*/;
       36     9380    3                END;
       37     9381    3             ELSE DO;
       38     9382    3                 P$ = ADDR(NIL);
       39     9383    3                 SUB_TYPE = 0/*@OF_ALL*/;
       40     9384    3                END;
       41     9385    2             CALL VYS$LST( WHERE$, Q$ -> O$B.SUBLK$(0) -> O$B.SUBLK$(0), P$,
       42     9386    2                     TYPE, SUB_TYPE, 0 );
       43     9387    2             IF I = 0 THEN FIRST_P$ = WHERE$;
       44     9388    2             ELSE LAST$ -> VY$LST.LINK$ = WHERE$;
       45     9389    2             LAST$ = WHERE$;
       46     9390    2            END;
       47     9391    1         LAST_P$ = LAST$;
       48     9392    1   END VYD$FLST;

PL6.E3A0      #001=VYD$FLST File=VYD$FLST.:E05TSI                                WED 07/30/97 08:52 Page:5
--  Include file information  --

   B$OBJECT_C.:E05TOU  is referenced.
   VY_DCB_R.:E05TOU  cannot be made into a system file and is referenced.
   VY_DATA_R.:E05TOU  cannot be made into a system file and is referenced.
   XU_MACRO_C.:E05TOU  is referenced.
   VY_FIXED_R.:E05TOU  cannot be made into a system file and is referenced.
   CP_6.:E05TOU  cannot be made into a system file and is referenced.
   VY_MACRO_C.:E05TOU  is referenced.
   VY_PERR_C.:E05TOU  is referenced.
   VY_SUBS_C.:E05TOU  is referenced.
   VY_INC_NO_C.:E05TOU  is referenced.
   VY_SWITCH_C.:E05TOU  is referenced.
   VY_INC_C.:E05TOU  is referenced.
   B$JIT_C.:E05TOU  was found in the system file and is never referenced.
   CP_6_C.:E05TOU  was found in the system file and is referenced.
      No diagnostics issued in procedure VYD$FLST.

   Procedure VYD$FLST requires 65 words for executable code.
   Procedure VYD$FLST requires 14 words of local(AUTO) storage.

    No errors detected in file VYD$FLST.:E05TSI    .

PL6.E3A0      #001=VYD$FLST File=VYD$FLST.:E05TSI                                WED 07/30/97 08:52 Page:6

 Object Unit name= VYD$FLST                                   File name= VYD$FLST.:E05TOU
 UTS= JUL 30 '97 08:52:39.88 WED                              Compiler= PL-6/E31         Sev=      00
 SharedLib= :SHARED_SYSTEM                                    Alt SharedLib=


    ****  Control sections  ****

 Sect   Type Bound  Init  Size OctSiz  Section name(segment info)
    0   DCB   even  none     0      0  M$UC
    1   Data  even  none     8     10  VYD$FLST
    2   Proc  even  none    65    101  VYD$FLST
    3  RoData even  none     3      3  VYD$FLST

    ****  Entry defs  ****

                              Check   Calling
                             calling  sequence
  Sect OctLoc Primary Altret sequence   type   Parms  Name
     2      0   yes            yes      Std        4  VYD$FLST

  ****  Entry refs  ****

         Check        Calling
        calling       sequence
Altret sequence SRef   type   Args  Name
 yes     yes           Std       6 VYS$LST
                       nStd      0 X66_AUTO_4
                       Std       0 B_CONSPOOL_D
                       nStd      0 X66_ARET

  ****  Data refs  ****

  Flags:  r = read only, s = secondary
Flgs Name                             Flgs Name                             Flgs Name
     M$UC                                  VY_ERRORS                             VY_PAR_UNWIND
     B_VECTNIL
PL6.E3A0      #001=VYD$FLST File=VYD$FLST.:E05TSI                                WED 07/30/97 08:52 Page:7

  ****  Segment refs  ****

  Flags:  r = read only, s = secondary
Flgs Name                             Flgs Name                             Flgs Name
     ISSID
PL6.E3A0      #001=VYD$FLST File=VYD$FLST.:E05TSI                                WED 07/30/97 08:52 Page:8


        1        1        /*T***********************************************************/
        2        2        /*T*                                                         */
        3        3        /*T* Copyright (c) Bull HN Information Systems Inc., 1997    */
        4        4        /*T*                                                         */
        5        5        /*T***********************************************************/
        6        6        /*X* DMR,PLM=6,IND=4,CSU=2,EXM=0,ECU=2,MOC,DCI=4,CRT=4,CTI=8,CCC  */
        7        7        VYD$FLST:
        8        8              PROC( FIRST_P$, LAST_P$, OB_P$, TYPE );

      8  2 000000   000000 700200 xent  VYD$FLST     TSX0  ! X66_AUTO_4
         2 000001   000016 000004                    ZERO    14,4

        9        9        %INCLUDE VY_INC_C;
       10     9185        %VY$LST;

              9197    1   /*******************************************************************************
              9198    1   *                                                                              *
              9199    1   *                          VY$LST                                                 *
              9200    1   *                                                                              *
              9201    1   *******************************************************************************/

              9206    1   DCL 1 VY$LST                        ALIGNED BASED,
              9207    1         2 LINK$        PTR,               /* Link to next item                  */
              9208    1         2 TYPE         UBIN( 18) UNAL,    /* Type                               */
              9209    1         2 SUB_TYPE     UBIN( 18) UNAL,    /* Sub-type                           */
              9210    1         2 OBJECT_NAME$ PTR,               /* Pointer to object unit name        */
              9211    1         2 SC_HEAD$     PTR,               /* Head pointer to section link list  */
              9212    1         2 SC_TAIL$     PTR,               /* Tail pointer to section link list  */
              9213    1         2 P,
              9214    1           3 NAME_       ALIGNED,
              9215    1             4 BOUND      UBIN(20)  UNAL,
              9216    1             4 FLAGSV     UBIN(11)  UNAL,
              9217    1             4 *          BIT(5)    UNAL,
              9218    1             4 NAME$      PTR,
              9219    1           3 ACCT_       ALIGNED,
              9220    1             4 BOUND      UBIN(20)  UNAL,
PL6.E3A0      #001=VYD$FLST File=VYD$FLST.:E05TSI                                WED 07/30/97 08:52 Page:9
              9221    1             4 FLAGSV     UBIN(11)  UNAL,
              9222    1             4 *          BIT(5)    UNAL,
              9223    1             4 ACCT$      PTR,
              9224    1           3 PASS_       ALIGNED,
              9225    1             4 BOUND      UBIN(20)  UNAL,
              9226    1             4 FLAGSV     UBIN(11)  UNAL,
              9227    1             4 *          BIT(5)    UNAL,
              9228    1             4 PASS$      PTR,
              9229    1           3 SN_         ALIGNED,
              9230    1             4 BOUND      UBIN(20)  UNAL,
              9231    1             4 FLAGSV     UBIN(11)  UNAL,
              9232    1             4 *          BIT(5)    UNAL,
              9233    1             4 SN$        PTR,
              9234    1           3 WSN_        ALIGNED,
              9235    1             4 BOUND      UBIN(20)  UNAL,
              9236    1             4 FLAGSV     UBIN(11)  UNAL,
              9237    1             4 *          BIT(5)    UNAL,
              9238    1             4 WSN$       PTR,
              9239    1           3 B           ALIGNED,
              9240    1             4 RES        BIT(1)    UNAL,
              9241    1             4 ASN        BIT(1)    UNAL,
              9242    1             4 *          BIT(34)   UNAL,
              9243    1           3 RES         CHAR(4)   ALIGNED,
              9244    1           3 ASN         UBIN(36)  ALIGNED;
       11     9247        %PARSE$OUT( NAME=O$B, STCLASS="BASED");
       12     9292        %P;

              9300    1   /*******************************************************************************
              9301    1   *                                                                              *
              9302    1   *                          PARAMETERS                                             *
              9303    1   *                                                                              *
              9304    1   *******************************************************************************/

       13     9308    1   DCL FIRST_P$        PTR       ALIGNED;
       14     9309    1   DCL LAST_P$         PTR       ALIGNED;
       15     9310    1   DCL OB_P$           PTR       ALIGNED;
       16     9311    1   DCL TYPE            UBIN(36)  ALIGNED;
PL6.E3A0      #001=VYD$FLST File=VYD$FLST.:E05TSI                                WED 07/30/97 08:52 Page:10
       17     9312        %PTR;

              9320    1   /*******************************************************************************
              9321    1   *                                                                              *
              9322    1   *                          PTR                                                 *
              9323    1   *                                                                              *
              9324    1   *******************************************************************************/

       18     9328    1   DCL LAST$           PTR       ALIGNED   STATIC/*AUTO*/;
       19     9329    1   DCL OB$             PTR       ALIGNED   STATIC/*AUTO*/;
       20     9330    1   DCL WHERE$          PTR       ALIGNED   STATIC/*AUTO*/;
       21     9331        %POINTER;
       22     9336        %E;

              9344    1   /*******************************************************************************
              9345    1   *                                                                              *
              9346    1   *                          ENTRY                                                 *
              9347    1   *                                                                              *
              9348    1   *******************************************************************************/

       23     9352    1   DCL VYS$LST         ENTRY(6)  ALTRET;
       24     9353        %U;

              9361    1   /*******************************************************************************
              9362    1   *                                                                              *
              9363    1   *                          UBIN                                                 *
              9364    1   *                                                                              *
              9365    1   *******************************************************************************/

       25     9369    1   DCL I               UBIN(36)  ALIGNED   STATIC/*AUTO*/;
       26     9370    1   DCL STOP       UBIN(36)       ALIGNED   STATIC/*AUTO*/;
       27     9371    1   DCL SUB_TYPE        UBIN(36)  ALIGNED;
       28     9372        %EJECT;
PL6.E3A0      #001=VYD$FLST File=VYD$FLST.:E05TSI                                WED 07/30/97 08:52 Page:11
       29     9373    1         OB$   = OB_P$;

   9373  2 000002   200005 470500                    LDP0    @OB_P$,,AUTO
         2 000003   000000 236100                    LDQ     0,,PR0
         2 000004   000001 756000 1                  STQ     OB$

       30     9374    1         STOP  = OB$ -> O$B.NSUBLKS - 1;

   9374  2 000005   000001 471400 1                  LDP1    OB$
         2 000006   100001 236100                    LDQ     1,,PR1
         2 000007   000022 772000                    QRL     18
         2 000010   000001 136007                    SBLQ    1,DL
         2 000011   000007 756000 1                  STQ     STOP

       31     9375    2         DO I = 0 TO STOP;

   9375  2 000012   000006 450000 1                  STZ     I
         2 000013   000072 710000 2                  TRA     s:9390+2

       32     9376    2             Q$ = OB$ -> O$B.SUBLK$(I) -> O$B.SUBLK$(0);

   9376  2 000014   000001 470400 1                  LDP0    OB$
         2 000015   000006 720000 1                  LXL0    I
         2 000016   000003 471510                    LDP1    3,X0,PR0
         2 000017   100003 236100                    LDQ     3,,PR1
         2 000020   000004 756000 1                  STQ     Q$

       33     9377    3             IF Q$ -> O$B.NSUBLKS = 2 THEN DO;

   9377  2 000021   000004 473400 1                  LDP3    Q$
         2 000022   300001 221100                    LDX1    1,,PR3
         2 000023   000002 101003                    CMPX1   2,DU
         2 000024   000032 601000 2                  TNZ     s:9382

       34     9378    3                 P$ = Q$ -> O$B.SUBLK$(1);

   9378  2 000025   300004 236100                    LDQ     4,,PR3
PL6.E3A0      #001=VYD$FLST File=VYD$FLST.:E05TSI                                WED 07/30/97 08:52 Page:12
         2 000026   000003 756000 1                  STQ     P$

       35     9379    3                 SUB_TYPE = 1/*@OF_LIST*/;

   9379  2 000027   000001 235007                    LDA     1,DL
         2 000030   200007 755100                    STA     SUB_TYPE,,AUTO

       36     9380    3                END;

   9380  2 000031   000035 710000 2                  TRA     s:9385

       37     9381    3             ELSE DO;

       38     9382    3                 P$ = ADDR(NIL);

   9382  2 000032   000001 236000 xsym               LDQ     B_VECTNIL+1
         2 000033   000003 756000 1                  STQ     P$

       39     9383    3                 SUB_TYPE = 0/*@OF_ALL*/;

   9383  2 000034   200007 450100                    STZ     SUB_TYPE,,AUTO

       40     9384    3                END;

       41     9385    2             CALL VYS$LST( WHERE$, Q$ -> O$B.SUBLK$(0) -> O$B.SUBLK$(0), P$,

   9385  2 000035   300003 471500                    LDP1    3,,PR3
         2 000036   000000 236000 3                  LDQ     0
         2 000037   200015 756100                    STQ     SUB_TYPE+6,,AUTO
         2 000040   200007 634500                    EPPR4   SUB_TYPE,,AUTO
         2 000041   200014 454500                    STP4    SUB_TYPE+5,,AUTO
         2 000042   200006 236100                    LDQ     @TYPE,,AUTO
         2 000043   000001 235000 3                  LDA     1
         2 000044   200012 757100                    STAQ    SUB_TYPE+3,,AUTO
         2 000045   100003 635500                    EPPR5   3,,PR1
         2 000046   200011 455500                    STP5    SUB_TYPE+2,,AUTO
         2 000047   000002 236000 3                  LDQ     2
PL6.E3A0      #001=VYD$FLST File=VYD$FLST.:E05TSI                                WED 07/30/97 08:52 Page:13
         2 000050   200010 756100                    STQ     SUB_TYPE+1,,AUTO
         2 000051   200010 630500                    EPPR0   SUB_TYPE+1,,AUTO
         2 000052   000024 631400 xsym               EPPR1   B_VECTNIL+20
         2 000053   000000 701000 xent               TSX1    VYS$LST
         2 000054   000000 011000                    NOP     0

       42     9386    2                     TYPE, SUB_TYPE, 0 );
       43     9387    2             IF I = 0 THEN FIRST_P$ = WHERE$;

   9387  2 000055   000006 235000 1                  LDA     I
         2 000056   000063 601000 2                  TNZ     s:9388

   9387  2 000057   000002 236000 1                  LDQ     WHERE$
         2 000060   200003 470500                    LDP0    @FIRST_P$,,AUTO
         2 000061   000000 756100                    STQ     0,,PR0
         2 000062   000066 710000 2                  TRA     s:9389

       44     9388    2             ELSE LAST$ -> VY$LST.LINK$ = WHERE$;

   9388  2 000063   000002 236000 1                  LDQ     WHERE$
         2 000064   000000 470400 1                  LDP0    LAST$
         2 000065   000000 756100                    STQ     0,,PR0

       45     9389    2             LAST$ = WHERE$;

   9389  2 000066   000002 236000 1                  LDQ     WHERE$
         2 000067   000000 756000 1                  STQ     LAST$

       46     9390    2            END;

   9390  2 000070   000001 035007                    ADLA    1,DL
         2 000071   000006 755000 1                  STA     I
         2 000072   000007 236000 1                  LDQ     STOP
         2 000073   000006 116000 1                  CMPQ    I
         2 000074   000014 603000 2                  TRC     s:9376

       47     9391    1         LAST_P$ = LAST$;
PL6.E3A0      #001=VYD$FLST File=VYD$FLST.:E05TSI                                WED 07/30/97 08:52 Page:14

   9391  2 000075   000000 236000 1                  LDQ     LAST$
         2 000076   200004 470500                    LDP0    @LAST_P$,,AUTO
         2 000077   000000 756100                    STQ     0,,PR0

       48     9392    1   END VYD$FLST;

   9392  2 000100   000000 702200 xent               TSX2  ! X66_ARET

PL6.E3A0      #001=VYD$FLST File=VYD$FLST.:E05TSI                                WED 07/30/97 08:52 Page:15
--  Include file information  --

   B$OBJECT_C.:E05TOU  is referenced.
   VY_DCB_R.:E05TOU  cannot be made into a system file and is referenced.
   VY_DATA_R.:E05TOU  cannot be made into a system file and is referenced.
   XU_MACRO_C.:E05TOU  is referenced.
   VY_FIXED_R.:E05TOU  cannot be made into a system file and is referenced.
   CP_6.:E05TOU  cannot be made into a system file and is referenced.
   VY_MACRO_C.:E05TOU  is referenced.
   VY_PERR_C.:E05TOU  is referenced.
   VY_SUBS_C.:E05TOU  is referenced.
   VY_INC_NO_C.:E05TOU  is referenced.
   VY_SWITCH_C.:E05TOU  is referenced.
   VY_INC_C.:E05TOU  is referenced.
   B$JIT_C.:E05TOU  was found in the system file and is never referenced.
   CP_6_C.:E05TOU  was found in the system file and is referenced.
      No diagnostics issued in procedure VYD$FLST.
PL6.E3A0      #001=VYD$FLST File=VYD$FLST.:E05TSI                                WED 07/30/97 08:52 Page:16

 **** Variables and constants ****

  ****  Section 001  Data  VYD$FLST

  ****  Scalars and arrays  ****
OctLoc.c.b A Datatyp(siz) R M Lvl/name                 OctLoc.c.b A Datatyp(siz) R M Lvl/name

     6-0-0/w UBIN        r     1 I                          0-0-0/w PTR         r     1 LAST$
     1-0-0/w PTR         r     1 OB$                        3-0-0/w PTR         r     1 P$
     4-0-0/w PTR         r     1 Q$                         7-0-0/w UBIN        r     1 STOP
     2-0-0/w PTR         r     1 WHERE$

  ****  Auto variables  ****

  ****  Scalars and arrays  ****
OctLoc.c.b A Datatyp(siz) R M Lvl/name                 OctLoc.c.b A Datatyp(siz) R M Lvl/name

     3-0-0/w PTR         r     1 @FIRST_P$                  4-0-0/w PTR         r     1 @LAST_P$
     5-0-0/w PTR         r     1 @OB_P$                     6-0-0/w PTR         r     1 @TYPE
    *0-0-0/w PTR         r     1 FIRST_P$                  *0-0-0/w PTR         r     1 LAST_P$
    *0-0-0/w PTR         r     1 OB_P$                      7-0-0/w UBIN        r     1 SUB_TYPE
    *0-0-0/w UBIN        r     1 TYPE

  ****  BASED and DCB variables  ****

  ****  Scalars and arrays  ****
OctLoc.c.b A Datatyp(siz) R M Lvl/name                 OctLoc.c.b A Datatyp(siz) R M Lvl/name

     0-0-0/w STRC(144)   r     1 O$B                        0-0-0/w STRC(648)   r     1 VY$LST


   Procedure VYD$FLST requires 65 words for executable code.
   Procedure VYD$FLST requires 14 words of local(AUTO) storage.

    No errors detected in file VYD$FLST.:E05TSI    .
PL6.E3A0      #001=VYD$FLST File=VYD$FLST.:E05TSI                                WED 07/30/97 08:52 Page:17
          *** CROSS REFERENCE LISTING ***
**     DENOTES     IDENTIFIER DEFINITION
<<                 IDENTIFIER'S VALUE SET
>>                 IDENTIFIER'S VALUE USED
<>                 IDENTIFIER SET AND/OR USED
--                 IDENTIFIER REFERENCED
PL6.E3A0      #001=VYD$FLST File=VYD$FLST.:E05TSI                                WED 07/30/97 08:52 Page:18
          MINI XREF LISTING

FIRST_P$
      9308**DCL         7--PROC     9387<<ASSIGN
I
      9369**DCL      9375<<DOINDEX  9376>>ASSIGN   9387>>IF
LAST$
      9328**DCL      9388>>ASSIGN   9389<<ASSIGN   9391>>ASSIGN
LAST_P$
      9309**DCL         7--PROC     9391<<ASSIGN
O$B.NSUBLKS
      9265**DCL      9374>>ASSIGN   9377>>IF
O$B.SUBLK$
      9286**DCL      9376>>ASSIGN   9376>>ASSIGN   9378>>ASSIGN   9385>>CALL     9385<>CALL
OB$
      9329**DCL      9373<<ASSIGN   9374>>ASSIGN   9376>>ASSIGN
OB_P$
      9310**DCL         7--PROC     9373>>ASSIGN
P$
      9332**DCL      9378<<ASSIGN   9382<<ASSIGN   9385<>CALL
Q$
      9333**DCL      9376<<ASSIGN   9377>>IF       9378>>ASSIGN   9385>>CALL
STOP
      9370**DCL      9374<<ASSIGN   9375>>DOINDEX
SUB_TYPE
      9371**DCL      9379<<ASSIGN   9383<<ASSIGN   9385<>CALL
TYPE
      9311**DCL         7--PROC     9385<>CALL
VY$LST.LINK$
      9207**DCL      9388<<ASSIGN
VYS$LST
      9352**DCL-ENT  9385--CALL
VY_BIAS.A
      5385**DCL      5385--REDEF
PL6.E3A0      #001=VYD$FLST File=VYD$FLST.:E05TSI                                WED 07/30/97 08:52 Page:19
VY_CBUF.CHARS_A
      5376**DCL      5376--REDEF
VY_EBUF.CHARS_A
      5677**DCL      5678--REDEF
VY_EFIELD1.CHARS
      5678**DCL      5678--REDEF
VY_EFIELD2.CHARS
      5679**DCL      5679--REDEF
VY_EFIELD3.CHARS
      5680**DCL      5680--REDEF
VY_ERRORS
      5381**DCL      5383--REDEF
VY_ERRORS.CONFLICT_A
      5382**DCL      5383--REDEF
VY_ERRORS.UNSAT_A
      5381**DCL      5382--REDEF
VY_IMAGE_DATA.CPAGE#_A
      5269**DCL      5270--REDEF
VY_IMAGE_DATA.NODE_A$
      5281**DCL      5282--REDEF
VY_IMAGE_DATA.START_A$
      5273**DCL      5274--REDEF
VY_IMAGE_DATA.STOP_A$
      5277**DCL      5278--REDEF
VY_IMAGE_PROC.CPAGE#_A
      5292**DCL      5293--REDEF
VY_IMAGE_PROC.NODE_A$
      5304**DCL      5305--REDEF
VY_IMAGE_PROC.START_A$
      5296**DCL      5297--REDEF
VY_IMAGE_PROC.STOP_A$
      5300**DCL      5301--REDEF
VY_IMAGE_ROS.CPAGE#_A
      5315**DCL      5316--REDEF
VY_IMAGE_ROS.NODE_A$
      5327**DCL      5328--REDEF
PL6.E3A0      #001=VYD$FLST File=VYD$FLST.:E05TSI                                WED 07/30/97 08:52 Page:20
VY_IMAGE_ROS.START_A$
      5319**DCL      5320--REDEF
VY_IMAGE_ROS.STOP_A$
      5323**DCL      5324--REDEF
VY_MAP_HDR.CHARS
      5742**DCL      5743--REDEF    5743--REDEF
VY_MAP_LIT_LO_FPT_WRITE.STATION_
      5071**DCL      5071--REDEF
VY_MAP_LIT_LO_FPT_WRITE.V.DVBYTE.VFC#
      5078**DCL      5078--REDEF
VY_MAP_LO_FPT_WRITE.STATION_
      5040**DCL      5040--REDEF
VY_MAP_LO_FPT_WRITE.V.DVBYTE.VFC#
      5047**DCL      5047--REDEF
VY_MBUF.CHARS
      5741**DCL      5742--REDEF    5742--REDEF
VY_M_VECTOR.F
      5110**DCL      5114--REDEF
VY_M_VECTOR_DP.F
      5145**DCL      5149--REDEF
VY_O.DUPL_ATTCH
      5523**DCL      5527--REDEF
VY_O.MAP_ATTCH
      5511**DCL      5522--REDEF
VY_O.PRIMARY_OPTION
      5505**DCL      5510--REDEF
VY_O.SEV_ATTCH
      5528**DCL      5530--REDEF
VY_OD.DUPL_ATTCH
      5667**DCL      5671--REDEF
VY_OD.MAP_ATTCH
      5655**DCL      5666--REDEF
VY_OD.PRIMARY_OPTION
      5649**DCL      5654--REDEF
VY_OD.SEV_ATTCH
      5672**DCL      5674--REDEF
PL6.E3A0      #001=VYD$FLST File=VYD$FLST.:E05TSI                                WED 07/30/97 08:52 Page:21
VY_OL_KEY_BUF.FORM0
      5178**DCL      5181--REDEF    5188--REDEF
VY_OU_HEAD.REC_A
      5366**DCL      5367--REDEF
VY_O_KEY_BUF.FORM0
      5155**DCL      5158--REDEF    5165--REDEF
VY_O_KEY_BUF_L.FORM0
      5201**DCL      5204--REDEF    5211--REDEF
VY_PAR_UNWIND
      5736**DCL      5736--REDEF
VY_PASS2_REF.OU.L_START
      5703**DCL      5704--REDEF
VY_PASS2_REF.OU.L_STOP
      5704**DCL      5705--REDEF
VY_PASS2_REF.OU.MAX
      5702**DCL      5703--REDEF
VY_PASS2_REF.OU.SIZE
      5705**DCL      5706--REDEF
VY_PASS2_REF.SAT.COUNT
      5709**DCL      5710--REDEF
VY_PASS2_REF.SAT.ENT_SIZE
      5711**DCL      5712--REDEF
VY_PASS2_REF.SAT.L_START
      5707**DCL      5708--REDEF
VY_PASS2_REF.SAT.L_STOP
      5708**DCL      5709--REDEF
VY_PASS2_REF.SAT.MAX
      5706**DCL      5707--REDEF
VY_PASS2_REF.UNSAT.L_START
      5713**DCL      5714--REDEF
VY_PASS2_REF.UNSAT.L_STOP
      5714**DCL      5715--REDEF
VY_PASS2_REF.UNSAT.L_WHERE
      5715**DCL      5716--REDEF
VY_PASS2_REF.UNSAT.MAX
      5712**DCL      5713--REDEF
PL6.E3A0      #001=VYD$FLST File=VYD$FLST.:E05TSI                                WED 07/30/97 08:52 Page:22
VY_PASS2_REF.UNSAT.PAGE#
      5717**DCL      5718--REDEF
VY_PASS2_REF.UNSAT.SIZE
      5716**DCL      5717--REDEF
VY_PROGRAM_BIAS.A
      5384**DCL      5384--REDEF
VY_RU_HEAD.DATA_SEGMENT
      5352**DCL      5352--REDEF
VY_RU_HEAD.L
      5348**DCL      5349--REDEF
VY_RU_HEAD.MAP_BITS
      5349**DCL      5351--REDEF
VY_RU_HEAD.PBIT
      5345**DCL      5345--REDEF
VY_RU_HEAD_BUF.DATA_SEGMENT
      5362**DCL      5362--REDEF
VY_RU_HEAD_BUF.L
      5357**DCL      5358--REDEF
VY_RU_HEAD_BUF.MAP_BITS
      5359**DCL      5361--REDEF
VY_RU_HEAD_BUF.PBIT
      5354**DCL      5355--REDEF
VY_R_KEY_BUF.FORM0
      5224**DCL      5228--REDEF    5234--REDEF
VY_SI_KEY_BUF.KEY
      5732**DCL      5732--REDEF
VY_SPC.B$.MINE
      5727**DCL      5728--REDEF
VY_SPC.B$.NAME
      5724**DCL      5724--REDEF
VY_SPC.B$.SKIP
      5726**DCL      5727--REDEF
VY_SPC.B$.VALUE
      5725**DCL      5726--REDEF
VY_SPC.SEG.NAME
      5719**DCL      5720--REDEF
PL6.E3A0      #001=VYD$FLST File=VYD$FLST.:E05TSI                                WED 07/30/97 08:52 Page:23
VY_SPC.SEG.VALUE
      5720**DCL      5721--REDEF
VY_TSX0_OVERLAY.H
      5691**DCL      5692--REDEF
WHERE$
      9330**DCL      9385<>CALL     9387>>ASSIGN   9388>>ASSIGN   9389>>ASSIGN
