VERSION E05

PL6.E3A0      #001=VYI$INIT File=VYI$INIT.:E05TSI                                WED 07/30/97 08:54 Page:1
        1        1        /*M* VYI$INIT - Initialization, Break handler and Exit for LEMUR */
        2        2        /*T***********************************************************/
        3        3        /*T*                                                         */
        4        4        /*T* Copyright (c) Bull HN Information Systems Inc., 1997    */
        5        5        /*T*                                                         */
        6        6        /*T***********************************************************/
        7        7        /*X* PLM=4,STI=0,IND=4,CTI=3,DCI=4,ECI=4,CSI=0,THI=0,DTI=0,ENI=4,
        8        8             CLM=0,SQB,NTB,MOC,CCI=3,NLB,MCL=0,EDMC*/
        9        9        VYI$INIT: PROC;
       10       10
       11       11        %INCLUDE CP_6;
       12       92        %INCLUDE VY_MACRO_C;
       13     1228        %INCLUDE VY_SUBS_C;
       14     1525        %INCLUDE VY_DATA_R;
       15     1933        %INCLUDE VY_FIXED_R;
       16     5593        %INCLUDE VY_DCB_R;
       17     5602        %INCLUDE B$JIT;
       18     5892        %E;

              5900    1   /*******************************************************************************
              5901    1   *                                                                              *
              5902    1   *                          ENTRY                                                 *
              5903    1   *                                                                              *
              5904    1   *******************************************************************************/

       19     5908    1   DCL VYE$ERRMSG ENTRY(1);
       20     5909    1   DCL VYI$BREAK ENTRY ASYNC ALTRET;
       21     5910    1   DCL VYI$ERR ENTRY;
       22     5911    1   DCL VYW$WRITE ENTRY(3) ALTRET;
       23     5912        %U;

              5920    1   /*******************************************************************************
              5921    1   *                                                                              *
              5922    1   *                          UBIN                                                 *
              5923    1   *                                                                              *
              5924    1   *******************************************************************************/

PL6.E3A0      #001=VYI$INIT File=VYI$INIT.:E05TSI                                WED 07/30/97 08:54 Page:2
       24     5928        %INDEX;
       25     5938        %BANNER( ARG=FPTS );

              5946    1   /*******************************************************************************
              5947    1   *                                                                              *
              5948    1   *                          FPTS                                                 *
              5949    1   *                                                                              *
              5950    1   *******************************************************************************/

       26     5954        %FPT_INT( UENTRY=VYI$BREAK, STCLASS=CONSTANT );
       27     5968        %FPT_CORRES( FPTN=FPT_CORRES, DCB1=M$LO, DCB2=M$DO);
       28     5982        %FPT_OPEN(FPTN=SI_FPT_OPEN,
       29     5983         DCB=M$SI,
       30     5984         STCLASS=CONSTANT);
       31     6093        %FPT_ERRMSG( FPTN=VY_FPT_ERRMSG_AUX,
       32     6094         STCLASS="SYMREF");
       33     6121        %BANNER( ARG=DCBS );

              6129    1   /*******************************************************************************
              6130    1   *                                                                              *
              6131    1   *                          DCBS                                                 *
              6132    1   *                                                                              *
              6133    1   *******************************************************************************/

       34     6137        %F$DCB;
       35     6194    1   DCL M$SI DCB;
       36     6195    1   DCL M$DO DCB;
       37     6196    1   DCL M$LO DCB;
       38     6197    1   DCL M$OF DCB;
       39     6198    1   DCL M$RF DCB;
       40     6199    1   DCL M$LF DCB;
       41     6200    1   DCL M$EI DCB;
       42     6201        %C;

              6209    1   /*******************************************************************************
              6210    1   *                                                                              *
              6211    1   *                          CHAR                                                 *
PL6.E3A0      #001=VYI$INIT File=VYI$INIT.:E05TSI                                WED 07/30/97 08:54 Page:3
              6212    1   *                                                                              *
              6213    1   *******************************************************************************/

       43     6217    1   DCL LEMUR_GREETING CHAR(80);
       44     6218    1   DCL 1 B_VERSION ALIGNED SYMREF,
       45     6219    1         2 CNT UBIN BYTE UNAL,
       46     6220    1         2 TXT CHAR(6);
       47     6221        %EJECT;
PL6.E3A0      #001=VYI$INIT File=VYI$INIT.:E05TSI                                WED 07/30/97 08:54 Page:4
       48     6222         /*                             Assign dcb addresses */
       49     6223    1       M$UC$ = DCBADDR( DCBNUM( M$UC ) );
       50     6224    1       M$SI$ = DCBADDR( DCBNUM( M$SI ) );
       51     6225    1       M$DO$ = DCBADDR( DCBNUM( M$DO ) );
       52     6226    1       M$LO$ = DCBADDR( DCBNUM( M$LO ) );
       53     6227    1       M$OF$ = DCBADDR( DCBNUM( M$OF ) );
       54     6228    1       M$RF$ = DCBADDR( DCBNUM( M$RF ) );
       55     6229    1       M$LF$ = DCBADDR( DCBNUM( M$LF ) );
       56     6230    1       M$EI$ = DCBADDR( DCBNUM( M$EI ) );
       57     6231         /*                             Check correspondence */
       58     6232    1       CALL M$CORRES( FPT_CORRES ) ALTRET( SAME );
       59     6233         /* Here=>different */
       60     6234    1       VY_FPT_ERRMSG.V.OUTDCB2# = DCBNUM( M$LO );
       61     6235    1       VY_DO_ECHO = @TRUE_B;
       62     6236    1       VY_FPT_ERRMSG_AUX.V.OUTDCB2# = DCBNUM( M$LO );
       63     6237    2       DO WHILE( '0'B );
       64     6238    2   SAME:   ;
       65     6239         /* Here=> dcb's are same */
       66     6240    2           VY_DO_ECHO = @FALSE_B;
       67     6241    2           VY_FPT_ERRMSG.V.OUTDCB2# = DCBNUM( NIL );
       68     6242    2           VY_FPT_ERRMSG_AUX.V.OUTDCB2# = DCBNUM( NIL );
       69     6243    2           END;
       70     6244    1       VY_FPT_ERRMSG.V.INCLCODE# = VY_FCG_SWITCH;
       71     6245    1       VY_FPT_ERRMSG_AUX.V.INCLCODE# = VY_FCG_SWITCH;
       72     6246
       73     6247    1       CALL M$OPEN( SI_FPT_OPEN) ALTRET(SI_ERR);
       74     6248    2       DO WHILE( '0'B );
       75     6249    2   SI_ERR: CALL VYE$ERRMSG;
       76     6250    2           CALL VYI$ERR;
       77     6251    2           END;
       78     6252    1       FPT_CORRES.V.DCB2# = DCBNUM(M$SI);
       79     6253    1       CALL M$CORRES( FPT_CORRES ) ALTRET(SAME_ONE );
       80     6254    1       VY_ECHO = @TRUE_B;
       81     6255    2       DO WHILE( '0'B );
       82     6256    2   SAME_ONE:
       83     6257    2           VY_ECHO = @FALSE_B;
       84     6258    2           END;
PL6.E3A0      #001=VYI$INIT File=VYI$INIT.:E05TSI                                WED 07/30/97 08:54 Page:5
       85     6259    2       IF B$JIT$ -> B$JIT.MODE = %M_INT# THEN DO;
       86     6260    2           VY_ONLINE = 1; /* Online */
       87     6261    2           VY_ERR_CODE.SEV = 0;
       88     6262    2           END;
       89     6263    2       ELSE DO;
       90     6264         /* Batch */
       91     6265    2           VY_ONLINE = 0;
       92     6266    2           VY_ERR_CODE.SEV = 7;
       93     6267    2           END;
       94     6268    1       VY_MAP_WIDTH = M$LO$ -> F$DCB.WIDTH#;
       95     6269    1       IF VY_MAP_WIDTH < 32 THEN VY_MAP_WIDTH = 32;
       96     6270    1       VY_MAX_CTAB = 0;
       97     6271    2       DO WHILE( VY_MAP_TABS_A(VY_MAX_CTAB) < VY_MAP_WIDTH );
       98     6272    2           VY_MAX_CTAB = VY_MAX_CTAB + 1;
       99     6273    2           END;
      100     6274    1       IF VY_MAX_CTAB > 5 THEN VY_MAX_CTAB = 5;
      101     6275    2       DO I = 0 TO SIZEW( VY_XREF_TABS_CONSTANT_A ) - 1;
      102     6276    2           J = VY_XREF_TABS_CONSTANT_A(I);
      103     6277    3           IF J < VY_MAP_WIDTH THEN DO;
      104     6278    3               VY_XREF_TABS_A(I) = J;
      105     6279    3               END;
      106     6280    3           ELSE DO;
      107     6281    3               VY_XREF_TABS_A(I) = 99999;
      108     6282    3               END;
      109     6283    2           END;
      110     6284    1       IF VY_XREF_TABS_A(I-1) ~= 99999 THEN VY_XREF_TABS_A(I-1) = 99999;
      111     6285    1       CALL M$INT(FPT_INT) ALTRET(ALT1);
      112     6286    2       DO WHILE( '0'B );
      113     6287    2   ALT1:   CALL VYE$ERRMSG;
      114     6288    2           END;
      115     6289    1       CALL CONCAT(LEMUR_GREETING,'LEMUR ',SUBSTR(B_VERSION.TXT,0,B_VERSION.CNT),
              6289                ' here');
      116     6290    1       CALL VYW$WRITE( LEMUR_GREETING, LENGTHC(LEMUR_GREETING), 1 );
      117     6291    1   END VYI$INIT;
      118     6292        %EOD;

PL6.E3A0      #001=VYI$INIT File=VYI$INIT.:E05TSI                                WED 07/30/97 08:54 Page:6
--  Include file information  --

   B$JIT.:E05TOU  cannot be made into a system file and is referenced.
   VY_DCB_R.:E05TOU  cannot be made into a system file and is referenced.
   XU_MACRO_C.:E05TOU  is referenced.
   VY_FIXED_R.:E05TOU  cannot be made into a system file and is referenced.
   VY_DATA_R.:E05TOU  cannot be made into a system file and is referenced.
   VY_SUBS_C.:E05TOU  is referenced.
   VY_MACRO_C.:E05TOU  is referenced.
   CP_6.:E05TOU  cannot be made into a system file and is referenced.
   B$JIT_C.:E05TOU  was found in the system file and is referenced.
   CP_6_C.:E05TOU  was found in the system file and is referenced.
      No diagnostics issued in procedure VYI$INIT.

   Procedure VYI$INIT requires 176 words for executable code.
   Procedure VYI$INIT requires 32 words of local(AUTO) storage.

PL6.E3A0      #001=VYI$INIT File=VYI$INIT.:E05TSI                                WED 07/30/97 08:54 Page:7

 Object Unit name= VYI$INIT                                   File name= VYI$INIT.:E05TOU
 UTS= JUL 30 '97 08:54:04.76 WED                              Compiler= PL-6/E31         Sev=      00
 SharedLib= :SHARED_SYSTEM                                    Alt SharedLib=


    ****  Control sections  ****

 Sect   Type Bound  Init  Size OctSiz  Section name(segment info)
    0   DCB   even  none     0      0  M$UC
    1  RoData even  UTS     66    102  VYI$INIT
    2   Data  even  none     4      4  VYI$INIT
    3   DCB   even  none     0      0  M$SI
    4   DCB   even  none     0      0  M$DO
    5   DCB   even  none     0      0  M$LO
    6   DCB   even  none     0      0  M$OF
    7   DCB   even  none     0      0  M$RF
    8   DCB   even  none     0      0  M$LF
    9   DCB   even  none     0      0  M$EI
   10   Proc  even  none   176    260  VYI$INIT
   11  RoData even  none     5      5  VYI$INIT

    ****  Entry defs  ****

                              Check   Calling
                             calling  sequence
  Sect OctLoc Primary Altret sequence   type   Parms  Name
    10      0   yes            yes      Std        0  VYI$INIT
PL6.E3A0      #001=VYI$INIT File=VYI$INIT.:E05TSI                                WED 07/30/97 08:54 Page:8

  ****  Entry refs  ****

         Check        Calling
        calling       sequence
Altret sequence SRef   type   Args  Name
 yes     yes          Async      0 VYI$BREAK
         yes           Std       1 VYE$ERRMSG
         yes           Std       0 VYI$ERR
 yes     yes           Std       3 VYW$WRITE
                       nStd      0 X66_AUTO_0
                       Std       0 B_CONSPOOL_D
                       nStd      0 X66_ARET

  ****  Data refs  ****

  Flags:  r = read only, s = secondary
Flgs Name                             Flgs Name                             Flgs Name
     M$UC                                  VY_FCG_SWITCH                         VY_ERRORS
     VY_ONLINE                             VY_ERR_CODE                           VY_ECHO
     VY_DO_ECHO                            VY_PAR_UNWIND                    r    VY_MAP_TABS_A
     VY_MAP_WIDTH                          VY_MAX_CTAB                      r    VY_XREF_TABS_CONSTANT_A
     VY_XREF_TABS_A                        VY_FPT_ERRMSG                         B$JIT$
     M$UC$                                 M$SI$                                 M$EI$
     M$DO$                                 M$LO$                                 M$OF$
     M$RF$                                 M$LF$                                 VY_FPT_ERRMSG_AUX
     M$SI                                  M$DO                                  M$LO
     M$OF                                  M$RF                                  M$LF
     M$EI                                  B_VERSION                             B_VECTNIL

  ****  Segment refs  ****

  Flags:  r = read only, s = secondary
Flgs Name                             Flgs Name                             Flgs Name
     ISSID                                 NULLSID                               ROSID
PL6.E3A0      #001=VYI$INIT File=VYI$INIT.:E05TSI                                WED 07/30/97 08:54 Page:9


        1        1        /*M* VYI$INIT - Initialization, Break handler and Exit for LEMUR */
        2        2        /*T***********************************************************/
        3        3        /*T*                                                         */
        4        4        /*T* Copyright (c) Bull HN Information Systems Inc., 1997    */
        5        5        /*T*                                                         */
        6        6        /*T***********************************************************/
        7        7        /*X* PLM=4,STI=0,IND=4,CTI=3,DCI=4,ECI=4,CSI=0,THI=0,DTI=0,ENI=4,
        8        8             CLM=0,SQB,NTB,MOC,CCI=3,NLB,MCL=0,EDMC*/
        9        9        VYI$INIT: PROC;

      9 10 000000   000000 700200 xent  VYI$INIT     TSX0  ! X66_AUTO_0
        10 000001   000040 000000                    ZERO    32,0

       10       10
       11       11        %INCLUDE CP_6;
       12       92        %INCLUDE VY_MACRO_C;
       13     1228        %INCLUDE VY_SUBS_C;
       14     1525        %INCLUDE VY_DATA_R;
       15     1933        %INCLUDE VY_FIXED_R;
       16     5593        %INCLUDE VY_DCB_R;
       17     5602        %INCLUDE B$JIT;
       18     5892        %E;

              5900    1   /*******************************************************************************
              5901    1   *                                                                              *
              5902    1   *                          ENTRY                                                 *
              5903    1   *                                                                              *
              5904    1   *******************************************************************************/

       19     5908    1   DCL VYE$ERRMSG ENTRY(1);
       20     5909    1   DCL VYI$BREAK ENTRY ASYNC ALTRET;
       21     5910    1   DCL VYI$ERR ENTRY;
       22     5911    1   DCL VYW$WRITE ENTRY(3) ALTRET;
       23     5912        %U;

              5920    1   /*******************************************************************************
PL6.E3A0      #001=VYI$INIT File=VYI$INIT.:E05TSI                                WED 07/30/97 08:54 Page:10
              5921    1   *                                                                              *
              5922    1   *                          UBIN                                                 *
              5923    1   *                                                                              *
              5924    1   *******************************************************************************/

       24     5928        %INDEX;
       25     5938        %BANNER( ARG=FPTS );

              5946    1   /*******************************************************************************
              5947    1   *                                                                              *
              5948    1   *                          FPTS                                                 *
              5949    1   *                                                                              *
              5950    1   *******************************************************************************/

       26     5954        %FPT_INT( UENTRY=VYI$BREAK, STCLASS=CONSTANT );
       27     5968        %FPT_CORRES( FPTN=FPT_CORRES, DCB1=M$LO, DCB2=M$DO);
       28     5982        %FPT_OPEN(FPTN=SI_FPT_OPEN,
       29     5983         DCB=M$SI,
       30     5984         STCLASS=CONSTANT);
       31     6093        %FPT_ERRMSG( FPTN=VY_FPT_ERRMSG_AUX,
       32     6094         STCLASS="SYMREF");
       33     6121        %BANNER( ARG=DCBS );

              6129    1   /*******************************************************************************
              6130    1   *                                                                              *
              6131    1   *                          DCBS                                                 *
              6132    1   *                                                                              *
              6133    1   *******************************************************************************/

       34     6137        %F$DCB;
       35     6194    1   DCL M$SI DCB;
       36     6195    1   DCL M$DO DCB;
       37     6196    1   DCL M$LO DCB;
       38     6197    1   DCL M$OF DCB;
       39     6198    1   DCL M$RF DCB;
       40     6199    1   DCL M$LF DCB;
       41     6200    1   DCL M$EI DCB;
PL6.E3A0      #001=VYI$INIT File=VYI$INIT.:E05TSI                                WED 07/30/97 08:54 Page:11
       42     6201        %C;

              6209    1   /*******************************************************************************
              6210    1   *                                                                              *
              6211    1   *                          CHAR                                                 *
              6212    1   *                                                                              *
              6213    1   *******************************************************************************/

       43     6217    1   DCL LEMUR_GREETING CHAR(80);
       44     6218    1   DCL 1 B_VERSION ALIGNED SYMREF,
       45     6219    1         2 CNT UBIN BYTE UNAL,
       46     6220    1         2 TXT CHAR(6);
       47     6221        %EJECT;
PL6.E3A0      #001=VYI$INIT File=VYI$INIT.:E05TSI                                WED 07/30/97 08:54 Page:12
       48     6222         /*                             Assign dcb addresses */
       49     6223    1       M$UC$ = DCBADDR( DCBNUM( M$UC ) );

   6223 10 000002   000000 236007 xsym               LDQ     M$UC,DL
        10 000003   000000 470400 11                 LDP0    0
        10 000004   000000 471500                    LDP1    0,,PR0
        10 000005   100000 236106                    LDQ     0,QL,PR1
        10 000006   000000 756000 xsym               STQ     M$UC$

       50     6224    1       M$SI$ = DCBADDR( DCBNUM( M$SI ) );

   6224 10 000007   000000 236007 xsym               LDQ     M$SI,DL
        10 000010   100000 236106                    LDQ     0,QL,PR1
        10 000011   000000 756000 xsym               STQ     M$SI$

       51     6225    1       M$DO$ = DCBADDR( DCBNUM( M$DO ) );

   6225 10 000012   000000 236007 xsym               LDQ     M$DO,DL
        10 000013   100000 236106                    LDQ     0,QL,PR1
        10 000014   000000 756000 xsym               STQ     M$DO$

       52     6226    1       M$LO$ = DCBADDR( DCBNUM( M$LO ) );

   6226 10 000015   000000 236007 xsym               LDQ     M$LO,DL
        10 000016   100000 236106                    LDQ     0,QL,PR1
        10 000017   000000 756000 xsym               STQ     M$LO$

       53     6227    1       M$OF$ = DCBADDR( DCBNUM( M$OF ) );

   6227 10 000020   000000 236007 xsym               LDQ     M$OF,DL
        10 000021   100000 236106                    LDQ     0,QL,PR1
        10 000022   000000 756000 xsym               STQ     M$OF$

       54     6228    1       M$RF$ = DCBADDR( DCBNUM( M$RF ) );

   6228 10 000023   000000 236007 xsym               LDQ     M$RF,DL
        10 000024   100000 236106                    LDQ     0,QL,PR1
PL6.E3A0      #001=VYI$INIT File=VYI$INIT.:E05TSI                                WED 07/30/97 08:54 Page:13
        10 000025   000000 756000 xsym               STQ     M$RF$

       55     6229    1       M$LF$ = DCBADDR( DCBNUM( M$LF ) );

   6229 10 000026   000000 236007 xsym               LDQ     M$LF,DL
        10 000027   100000 236106                    LDQ     0,QL,PR1
        10 000030   000000 756000 xsym               STQ     M$LF$

       56     6230    1       M$EI$ = DCBADDR( DCBNUM( M$EI ) );

   6230 10 000031   000000 236007 xsym               LDQ     M$EI,DL
        10 000032   100000 236106                    LDQ     0,QL,PR1
        10 000033   000000 756000 xsym               STQ     M$EI$

       57     6231         /*                             Check correspondence */
       58     6232    1       CALL M$CORRES( FPT_CORRES ) ALTRET( SAME );

   6232 10 000034   000000 630400 2                  EPPR0   FPT_CORRES
        10 000035   460000 713400                    CLIMB   alt,+24576
        10 000036   400000 401760                    pmme    nvectors=1
        10 000037   000051 702000 10                 TSX2    SAME

       59     6233         /* Here=>different */
       60     6234    1       VY_FPT_ERRMSG.V.OUTDCB2# = DCBNUM( M$LO );

   6234 10 000040   000000 236007 xsym               LDQ     M$LO,DL
        10 000041   000000 620006                    EAX0    0,QL
        10 000042   000027 740000 xsym               STX0    VY_FPT_ERRMSG+23

       61     6235    1       VY_DO_ECHO = @TRUE_B;

   6235 10 000043   400000 236003                    LDQ     -131072,DU
        10 000044   000000 756000 xsym               STQ     VY_DO_ECHO

       62     6236    1       VY_FPT_ERRMSG_AUX.V.OUTDCB2# = DCBNUM( M$LO );

   6236 10 000045   000000 236007 xsym               LDQ     M$LO,DL
PL6.E3A0      #001=VYI$INIT File=VYI$INIT.:E05TSI                                WED 07/30/97 08:54 Page:14
        10 000046   000000 621006                    EAX1    0,QL
        10 000047   000027 741000 xsym               STX1    VY_FPT_ERRMSG_AUX+23

       63     6237    2       DO WHILE( '0'B );

   6237 10 000050   000055 710000 10                 TRA     s:6244

   6232 10 000051                       SAME         null
       64     6238    2   SAME:   ;
       65     6239         /* Here=> dcb's are same */
       66     6240    2           VY_DO_ECHO = @FALSE_B;

   6240 10 000051   000000 450000 xsym               STZ     VY_DO_ECHO

       67     6241    2           VY_FPT_ERRMSG.V.OUTDCB2# = DCBNUM( NIL );

   6241 10 000052   000000 220003                    LDX0    0,DU
        10 000053   000027 740000 xsym               STX0    VY_FPT_ERRMSG+23

       68     6242    2           VY_FPT_ERRMSG_AUX.V.OUTDCB2# = DCBNUM( NIL );

   6242 10 000054   000027 740000 xsym               STX0    VY_FPT_ERRMSG_AUX+23

       69     6243    2           END;

       70     6244    1       VY_FPT_ERRMSG.V.INCLCODE# = VY_FCG_SWITCH;

   6244 10 000055   000000 236000 xsym               LDQ     VY_FCG_SWITCH
        10 000056   000006 772000                    QRL     6
        10 000057   000030 676000 xsym               ERQ     VY_FPT_ERRMSG+24
        10 000060   004000 376003                    ANQ     2048,DU
        10 000061   000030 656000 xsym               ERSQ    VY_FPT_ERRMSG+24

       71     6245    1       VY_FPT_ERRMSG_AUX.V.INCLCODE# = VY_FCG_SWITCH;

   6245 10 000062   000000 236000 xsym               LDQ     VY_FCG_SWITCH
        10 000063   000006 772000                    QRL     6
PL6.E3A0      #001=VYI$INIT File=VYI$INIT.:E05TSI                                WED 07/30/97 08:54 Page:15
        10 000064   000030 676000 xsym               ERQ     VY_FPT_ERRMSG_AUX+24
        10 000065   004000 376003                    ANQ     2048,DU
        10 000066   000030 656000 xsym               ERSQ    VY_FPT_ERRMSG_AUX+24

       72     6246
       73     6247    1       CALL M$OPEN( SI_FPT_OPEN) ALTRET(SI_ERR);

   6247 10 000067   000004 630400 1                  EPPR0   SI_FPT_OPEN
        10 000070   450000 713400                    CLIMB   alt,open
        10 000071   410400 401760                    pmme    nvectors=18
        10 000072   000074 702000 10                 TSX2    SI_ERR

       74     6248    2       DO WHILE( '0'B );

   6248 10 000073   000102 710000 10                 TRA     s:6252

       75     6249    2   SI_ERR: CALL VYE$ERRMSG;

   6249 10 000074   000002 631400 xsym  SI_ERR       EPPR1   B_VECTNIL+2
        10 000075   000000 701000 xent               TSX1    VYE$ERRMSG
        10 000076   000000 011000                    NOP     0

       76     6250    2           CALL VYI$ERR;

   6250 10 000077   000002 631400 xsym               EPPR1   B_VECTNIL+2
        10 000100   000000 701000 xent               TSX1    VYI$ERR
        10 000101   000000 011000                    NOP     0

       77     6251    2           END;

       78     6252    1       FPT_CORRES.V.DCB2# = DCBNUM(M$SI);

   6252 10 000102   000000 236007 xsym               LDQ     M$SI,DL
        10 000103   000000 620006                    EAX0    0,QL
        10 000104   000002 440000 2                  SXL0    FPT_CORRES+2

       79     6253    1       CALL M$CORRES( FPT_CORRES ) ALTRET(SAME_ONE );
PL6.E3A0      #001=VYI$INIT File=VYI$INIT.:E05TSI                                WED 07/30/97 08:54 Page:16

   6253 10 000105   000000 630400 2                  EPPR0   FPT_CORRES
        10 000106   460000 713400                    CLIMB   alt,+24576
        10 000107   400000 401760                    pmme    nvectors=1
        10 000110   000114 702000 10                 TSX2    SAME_ONE

       80     6254    1       VY_ECHO = @TRUE_B;

   6254 10 000111   400000 236003                    LDQ     -131072,DU
        10 000112   000000 756000 xsym               STQ     VY_ECHO

       81     6255    2       DO WHILE( '0'B );

   6255 10 000113   000115 710000 10                 TRA     s:6259

       82     6256    2   SAME_ONE:
       83     6257    2           VY_ECHO = @FALSE_B;

   6257 10 000114   000000 450000 xsym  SAME_ONE     STZ     VY_ECHO

       84     6258    2           END;

       85     6259    2       IF B$JIT$ -> B$JIT.MODE = %M_INT# THEN DO;

   6259 10 000115   000000 470400 xsym               LDP0    B$JIT$
        10 000116   000000 236100                    LDQ     0,,PR0
        10 000117   740000 376003                    ANQ     -16384,DU
        10 000120   140000 116003                    CMPQ    49152,DU
        10 000121   000127 601000 10                 TNZ     s:6265

       86     6260    2           VY_ONLINE = 1; /* Online */

   6260 10 000122   000001 235007                    LDA     1,DL
        10 000123   000000 755000 xsym               STA     VY_ONLINE

       87     6261    2           VY_ERR_CODE.SEV = 0;

PL6.E3A0      #001=VYI$INIT File=VYI$INIT.:E05TSI                                WED 07/30/97 08:54 Page:17
   6261 10 000124   000001 236000 11                 LDQ     1
        10 000125   000000 356000 xsym               ANSQ    VY_ERR_CODE

       88     6262    2           END;

   6262 10 000126   000132 710000 10                 TRA     s:6268

       89     6263    2       ELSE DO;

       90     6264         /* Batch */
       91     6265    2           VY_ONLINE = 0;

   6265 10 000127   000000 450000 xsym               STZ     VY_ONLINE

       92     6266    2           VY_ERR_CODE.SEV = 7;

   6266 10 000130   000007 236007                    LDQ     7,DL
        10 000131   000000 256000 xsym               ORSQ    VY_ERR_CODE

       93     6267    2           END;

       94     6268    1       VY_MAP_WIDTH = M$LO$ -> F$DCB.WIDTH#;

   6268 10 000132   000000 471400 xsym               LDP1    M$LO$
        10 000133   100004 236100                    LDQ     4,,PR1
        10 000134   000777 376007                    ANQ     511,DL
        10 000135   000000 756000 xsym               STQ     VY_MAP_WIDTH

       95     6269    1       IF VY_MAP_WIDTH < 32 THEN VY_MAP_WIDTH = 32;

   6269 10 000136   000040 116007                    CMPQ    32,DL
        10 000137   000142 605000 10                 TPL     s:6270

   6269 10 000140   000040 235007                    LDA     32,DL
        10 000141   000000 755000 xsym               STA     VY_MAP_WIDTH

       96     6270    1       VY_MAX_CTAB = 0;
PL6.E3A0      #001=VYI$INIT File=VYI$INIT.:E05TSI                                WED 07/30/97 08:54 Page:18

   6270 10 000142   000000 450000 xsym               STZ     VY_MAX_CTAB

       97     6271    2       DO WHILE( VY_MAP_TABS_A(VY_MAX_CTAB) < VY_MAP_WIDTH );

   6271 10 000143   000000 720000 xsym               LXL0    VY_MAX_CTAB
        10 000144   000000 236010 xsym               LDQ     VY_MAP_TABS_A,X0
        10 000145   000157 604000 10                 TMI     s:6274
        10 000146   000000 116000 xsym               CMPQ    VY_MAP_WIDTH
        10 000147   000157 605000 10                 TPL     s:6274

       98     6272    2           VY_MAX_CTAB = VY_MAX_CTAB + 1;

   6272 10 000150   000000 235000 xsym               LDA     VY_MAX_CTAB
        10 000151   000001 035007                    ADLA    1,DL
        10 000152   000000 755000 xsym               STA     VY_MAX_CTAB

       99     6273    2           END;

   6273 10 000153   000000 236005 xsym               LDQ     VY_MAP_TABS_A,AL
        10 000154   000157 604000 10                 TMI     s:6274
        10 000155   000000 116000 xsym               CMPQ    VY_MAP_WIDTH
        10 000156   000150 604000 10                 TMI     s:6272

      100     6274    1       IF VY_MAX_CTAB > 5 THEN VY_MAX_CTAB = 5;

   6274 10 000157   000000 235000 xsym               LDA     VY_MAX_CTAB
        10 000160   000006 115007                    CMPA    6,DL
        10 000161   000164 602000 10                 TNC     s:6275

   6274 10 000162   000005 236007                    LDQ     5,DL
        10 000163   000000 756000 xsym               STQ     VY_MAX_CTAB

      101     6275    2       DO I = 0 TO SIZEW( VY_XREF_TABS_CONSTANT_A ) - 1;

   6275 10 000164   200003 450100                    STZ     I,,AUTO
        10 000165   000204 710000 10                 TRA     s:6283+3
PL6.E3A0      #001=VYI$INIT File=VYI$INIT.:E05TSI                                WED 07/30/97 08:54 Page:19

      102     6276    2           J = VY_XREF_TABS_CONSTANT_A(I);

   6276 10 000166   200003 720100                    LXL0    I,,AUTO
        10 000167   000000 235010 xsym               LDA     VY_XREF_TABS_CONSTANT_A,X0
        10 000170   200004 755100                    STA     J,,AUTO

      103     6277    3           IF J < VY_MAP_WIDTH THEN DO;

   6277 10 000171   200004 236100                    LDQ     J,,AUTO
        10 000172   000177 604000 10                 TMI     s:6281
        10 000173   000000 116000 xsym               CMPQ    VY_MAP_WIDTH
        10 000174   000177 605000 10                 TPL     s:6281

      104     6278    3               VY_XREF_TABS_A(I) = J;

   6278 10 000175   000000 756010 xsym               STQ     VY_XREF_TABS_A,X0

      105     6279    3               END;

   6279 10 000176   000201 710000 10                 TRA     s:6283

      106     6280    3           ELSE DO;

      107     6281    3               VY_XREF_TABS_A(I) = 99999;

   6281 10 000177   303237 235007                    LDA     99999,DL
        10 000200   000000 755010 xsym               STA     VY_XREF_TABS_A,X0

      108     6282    3               END;

      109     6283    2           END;

   6283 10 000201   200003 235100                    LDA     I,,AUTO
        10 000202   000001 035007                    ADLA    1,DL
        10 000203   200003 755100                    STA     I,,AUTO
        10 000204   200003 235100                    LDA     I,,AUTO
PL6.E3A0      #001=VYI$INIT File=VYI$INIT.:E05TSI                                WED 07/30/97 08:54 Page:20
        10 000205   000014 115007                    CMPA    12,DL
        10 000206   000166 602000 10                 TNC     s:6276

      110     6284    1       IF VY_XREF_TABS_A(I-1) ~= 99999 THEN VY_XREF_TABS_A(I-1) = 99999;

   6284 10 000207   777777 235005 xsym               LDA     VY_XREF_TABS_A-1,AL
        10 000210   303237 115007                    CMPA    99999,DL
        10 000211   000215 600000 10                 TZE     s:6285

   6284 10 000212   303237 235007                    LDA     99999,DL
        10 000213   200003 720100                    LXL0    I,,AUTO
        10 000214   777777 755010 xsym               STA     VY_XREF_TABS_A-1,X0

      111     6285    1       CALL M$INT(FPT_INT) ALTRET(ALT1);

   6285 10 000215   000000 630400 1                  EPPR0   FPT_INT
        10 000216   410002 713400                    CLIMB   alt,+4098
        10 000217   400000 401760                    pmme    nvectors=1
        10 000220   000222 702000 10                 TSX2    ALT1

      112     6286    2       DO WHILE( '0'B );

   6286 10 000221   000225 710000 10                 TRA     s:6289

      113     6287    2   ALT1:   CALL VYE$ERRMSG;

   6287 10 000222   000002 631400 xsym  ALT1         EPPR1   B_VECTNIL+2
        10 000223   000000 701000 xent               TSX1    VYE$ERRMSG
        10 000224   000000 011000                    NOP     0

      114     6288    2           END;

      115     6289    1       CALL CONCAT(LEMUR_GREETING,'LEMUR ',SUBSTR(B_VERSION.TXT,0,B_VERSION.CNT),
              6289                ' here');

   6289 10 000225   000000 236000 xsym               LDQ     B_VERSION
        10 000226   000033 772000                    QRL     27
PL6.E3A0      #001=VYI$INIT File=VYI$INIT.:E05TSI                                WED 07/30/97 08:54 Page:21
        10 000227   040100 100400                    MLR     fill='040'O
        10 000230   000076 000006 1                  ADSC9   SI_FPT_OPEN+58           cn=0,n=6
        10 000231   200007 000006                    ADSC9   LEMUR_GREETING,,AUTO     cn=0,n=6
        10 000232   000000 620006                    EAX0    0,QL
        10 000233   040100 100440                    MLR     fill='040'O
        10 000234   000000 200010 xsym               ADSC9   B_VERSION                cn=1,n=*X0
        10 000235   200010 400112                    ADSC9   LEMUR_GREETING+1,,AUTO   cn=2,n=74
        10 000236   000112 116007                    CMPQ    74,DL
        10 000237   000245 603000 10                 TRC     s:6290
        10 000240   777665 620006                    EAX0    -75,QL
        10 000241   777777 660003                    ERX0    -1,DU
        10 000242   040146 100400                    MLR     fill='040'O
        10 000243   000100 000005 1                  ADSC9   SI_FPT_OPEN+60           cn=0,n=5
        10 000244   200010 400010                    ADSC9   LEMUR_GREETING+1,Q,AUTO  cn=2,n=*X0

      116     6290    1       CALL VYW$WRITE( LEMUR_GREETING, LENGTHC(LEMUR_GREETING), 1 );

   6290 10 000245   000003 236000 11                 LDQ     3
        10 000246   200036 756100                    STQ     LEMUR_GREETING+23,,AUTO
        10 000247   000004 236000 11                 LDQ     4
        10 000250   200035 756100                    STQ     LEMUR_GREETING+22,,AUTO
        10 000251   200007 630500                    EPPR0   LEMUR_GREETING,,AUTO
        10 000252   200034 450500                    STP0    LEMUR_GREETING+21,,AUTO
        10 000253   200034 630500                    EPPR0   LEMUR_GREETING+21,,AUTO
        10 000254   000021 631400 xsym               EPPR1   B_VECTNIL+17
        10 000255   000000 701000 xent               TSX1    VYW$WRITE
        10 000256   000000 011000                    NOP     0

      117     6291    1   END VYI$INIT;

   6291 10 000257   000000 702200 xent               TSX2  ! X66_ARET
      118     6292        %EOD;

PL6.E3A0      #001=VYI$INIT File=VYI$INIT.:E05TSI                                WED 07/30/97 08:54 Page:22
--  Include file information  --

   B$JIT.:E05TOU  cannot be made into a system file and is referenced.
   VY_DCB_R.:E05TOU  cannot be made into a system file and is referenced.
   XU_MACRO_C.:E05TOU  is referenced.
   VY_FIXED_R.:E05TOU  cannot be made into a system file and is referenced.
   VY_DATA_R.:E05TOU  cannot be made into a system file and is referenced.
   VY_SUBS_C.:E05TOU  is referenced.
   VY_MACRO_C.:E05TOU  is referenced.
   CP_6.:E05TOU  cannot be made into a system file and is referenced.
   B$JIT_C.:E05TOU  was found in the system file and is referenced.
   CP_6_C.:E05TOU  was found in the system file and is referenced.
      No diagnostics issued in procedure VYI$INIT.
PL6.E3A0      #001=VYI$INIT File=VYI$INIT.:E05TSI                                WED 07/30/97 08:54 Page:23

 **** Variables and constants ****

  ****  Section 001 RoData VYI$INIT

  ****  Scalars and arrays  ****
OctLoc.c.b A Datatyp(siz) R M Lvl/name                 OctLoc.c.b A Datatyp(siz) R M Lvl/name

     0-0-0/d STRC(144)   r     1 FPT_INT                    4-0-0/d STRC(2088)  r     1 SI_FPT_OPEN

  ****  Section 002  Data  VYI$INIT

  ****  Scalars and arrays  ****
OctLoc.c.b A Datatyp(siz) R M Lvl/name                 OctLoc.c.b A Datatyp(siz) R M Lvl/name

     0-0-0/d STRC(144)   r     1 FPT_CORRES

  ****  Auto variables  ****

  ****  Scalars and arrays  ****
OctLoc.c.b A Datatyp(siz) R M Lvl/name                 OctLoc.c.b A Datatyp(siz) R M Lvl/name

     3-0-0/w UBIN        r     1 I                          4-0-0/w UBIN        r     1 J
     7-0-0/c CHAR(80)    r     1 LEMUR_GREETING

  ****  SYMREF variables  ****

  ****  Scalars and arrays  ****
OctLoc.c.b A Datatyp(siz) R M Lvl/name                 OctLoc.c.b A Datatyp(siz) R M Lvl/name

     0-0-0/w PTR         r     1 B$JIT$                     0-0-0/w STRC(63)    r     1 B_VERSION
     0-0-0/w PTR         r     1 M$DO$                      0-0-0/w PTR         r     1 M$EI$
     0-0-0/w PTR         r     1 M$LF$                      0-0-0/w PTR         r     1 M$LO$
     0-0-0/w PTR         r     1 M$OF$                      0-0-0/w PTR         r     1 M$RF$
     0-0-0/w PTR         r     1 M$SI$                      0-0-0/w PTR         r     1 M$UC$
     0-0-0/w BIT         r     1 VY_DO_ECHO                 0-0-0/w BIT         r     1 VY_ECHO
     0-0-0/w STRC        r     1 VY_ERR_CODE                0-0-0/b BIT         r     1 VY_FCG_SWITCH
     0-0-0/d STRC(936)   r     1 VY_FPT_ERRMSG              0-0-0/d STRC(936)   r     1 VY_FPT_ERRMSG_AUX
PL6.E3A0      #001=VYI$INIT File=VYI$INIT.:E05TSI                                WED 07/30/97 08:54 Page:24
     0-0-0/w UBIN        r     1 VY_MAP_TABS_A(0:4)
     0-0-0/w SBIN        r     1 VY_MAP_WIDTH               0-0-0/w UBIN        r     1 VY_MAX_CTAB
     0-0-0/w UBIN        r     1 VY_ONLINE
     0-0-0/w UBIN        r     1 VY_XREF_TABS_A(0:11)
     0-0-0/w UBIN        r     1 VY_XREF_TABS_CONSTANT_A(0:11)

  ****  BASED and DCB variables  ****

  ****  Scalars and arrays  ****
OctLoc.c.b A Datatyp(siz) R M Lvl/name                 OctLoc.c.b A Datatyp(siz) R M Lvl/name

     0-0-0/d STRC(8856)  r     1 B$JIT                      0-0-0/d ASTR(3528)  r     1 F$DCB
     0-0-0N  NULL        r     1 M$DO                       0-0-0N  NULL        r     1 M$EI
     0-0-0N  NULL        r     1 M$LF                       0-0-0N  NULL        r     1 M$LO
     0-0-0N  NULL        r     1 M$OF                       0-0-0N  NULL        r     1 M$RF
     0-0-0N  NULL        r     1 M$SI                       0-0-0N  NULL        r     1 M$UC


   Procedure VYI$INIT requires 176 words for executable code.
   Procedure VYI$INIT requires 32 words of local(AUTO) storage.
PL6.E3A0      #001=VYI$INIT File=VYI$INIT.:E05TSI                                WED 07/30/97 08:54 Page:25
          *** CROSS REFERENCE LISTING ***
**     DENOTES     IDENTIFIER DEFINITION
<<                 IDENTIFIER'S VALUE SET
>>                 IDENTIFIER'S VALUE USED
<>                 IDENTIFIER SET AND/OR USED
--                 IDENTIFIER REFERENCED
PL6.E3A0      #001=VYI$INIT File=VYI$INIT.:E05TSI                                WED 07/30/97 08:54 Page:26
          MINI XREF LISTING

ALT1
      6287**LABEL    6285--CALLALT
B$JIT.CPFLAGS1.SLEAZE
      5710**DCL      5710--REDEF
B$JIT.ERR.MID
      5617**DCL      5617--REDEF
B$JIT.JRESPEAK
      5778**DCL      5779--REDEF
B$JIT.MODE
      5611**DCL      6259>>IF
B$JIT.ORIGINATOR_PORT.FROM_CR
      5887**DCL      5887--REDEF    5888--REDEF
B$JIT.PNR
      5791**DCL      5791--REDEF
B$JIT.TSLINE
      5885**DCL      5886--REDEF
B$JIT$
      5591**DCL      5611--IMP-PTR  6259>>IF
B_VERSION.CNT
      6219**DCL      6289>>CALLBLT
B_VERSION.TXT
      6220**DCL      6289>>CALLBLT
F$DCB.ACTPOS
      6170**DCL      6170--REDEF
F$DCB.ARS#
      6144**DCL      6144--REDEF
F$DCB.ATTR
      6163**DCL      6164--REDEF
F$DCB.BORROW
      6178**DCL      6178--REDEF    6178--REDEF    6178--REDEF
F$DCB.DCBNAME.L
      6192**DCL      6192--IMP-SIZ
PL6.E3A0      #001=VYI$INIT File=VYI$INIT.:E05TSI                                WED 07/30/97 08:54 Page:27
F$DCB.EOMCHAR#
      6148**DCL      6148--REDEF
F$DCB.FLDID
      6173**DCL      6173--REDEF
F$DCB.FORM$
      6167**DCL      6167--REDEF
F$DCB.FSECT
      6183**DCL      6183--REDEF
F$DCB.FSN#
      6160**DCL      6160--REDEF    6160--REDEF    6161--REDEF
F$DCB.HEADER$
      6166**DCL      6166--REDEF
F$DCB.IXTNSIZE#
      6164**DCL      6164--REDEF
F$DCB.LASTSTA$
      6153**DCL      6153--REDEF
F$DCB.LVL
      6179**DCL      6179--REDEF
F$DCB.NAME#.C
      6154**DCL      6154--REDEF
F$DCB.NOEOF
      6176**DCL      6176--REDEF
F$DCB.NRECS#
      6165**DCL      6165--REDEF
F$DCB.NRECX
      6184**DCL      6184--REDEF
F$DCB.OHDR
      6176**DCL      6176--REDEF
F$DCB.ORG#
      6159**DCL      6159--REDEF
F$DCB.PRECNO
      6182**DCL      6182--REDEF
F$DCB.RCSZ
      6188**DCL      6188--REDEF
F$DCB.RES#
      6155**DCL      6155--REDEF
PL6.E3A0      #001=VYI$INIT File=VYI$INIT.:E05TSI                                WED 07/30/97 08:54 Page:28
F$DCB.SETX
      6167**DCL      6167--REDEF
F$DCB.TAB$
      6167**DCL      6167--REDEF
F$DCB.TDA
      6181**DCL      6182--REDEF
F$DCB.WIDTH#
      6151**DCL      6268>>ASSIGN
F$DCB.WSN#
      6155**DCL      6155--REDEF
FPT_CORRES
      5979**DCL      6232<>CALL     6253<>CALL
FPT_CORRES.V
      5979**DCL      5979--DCLINIT
FPT_CORRES.V.DCB2#
      5980**DCL      6252<<ASSIGN
FPT_INT
      5965**DCL      6285<>CALL
FPT_INT.V
      5965**DCL      5965--DCLINIT
I
      5929**DCL      5930--REDEF    6275<<DOINDEX  6276>>ASSIGN   6278>>ASSIGN   6281>>ASSIGN   6284>>IF
      6284>>ASSIGN
J
      5931**DCL      5932--REDEF    6276<<ASSIGN   6277>>IF       6278>>ASSIGN
K
      5933**DCL      5934--REDEF
L
      5935**DCL      5936--REDEF
LEMUR_GREETING
      6217**DCL      6289<<CALLBLT  6290<>CALL     6290--CALL
M$CORRES
        25**DCL-ENT  6232--CALL     6253--CALL
M$DO
      6195**DCL      6225--ASSIGN
M$DO$
PL6.E3A0      #001=VYI$INIT File=VYI$INIT.:E05TSI                                WED 07/30/97 08:54 Page:29
      5600**DCL      6225<<ASSIGN
M$EI
      6200**DCL      6230--ASSIGN
M$EI$
      5600**DCL      6230<<ASSIGN
M$INT
        75**DCL-ENT  6285--CALL
M$LF
      6199**DCL      6229--ASSIGN
M$LF$
      5601**DCL      6229<<ASSIGN
M$LO
      6196**DCL      6226--ASSIGN   6234>>ASSIGN   6236>>ASSIGN
M$LO$
      5600**DCL      6226<<ASSIGN   6268>>ASSIGN
M$OF
      6197**DCL      6227--ASSIGN
M$OF$
      5600**DCL      6227<<ASSIGN
M$OPEN
        20**DCL-ENT  6247--CALL
M$RF
      6198**DCL      6228--ASSIGN
M$RF$
      5600**DCL      6228<<ASSIGN
M$SI
      6194**DCL      6224--ASSIGN   6252>>ASSIGN
M$SI$
      5600**DCL      6224<<ASSIGN
M$UC
        44**DCL      6223--ASSIGN
M$UC$
      5600**DCL      6223<<ASSIGN
SAME
      6232**LABEL    6232--CALLALT
SAME_ONE
PL6.E3A0      #001=VYI$INIT File=VYI$INIT.:E05TSI                                WED 07/30/97 08:54 Page:30
      6257**LABEL    6253--CALLALT
SI_ERR
      6249**LABEL    6247--CALLALT
SI_FPT_OPEN
      6049**DCL      6247<>CALL
SI_FPT_OPEN.ACSVEH_
      6051**DCL      6052--REDEF
SI_FPT_OPEN.ALTKEYS_
      6057**DCL      6058--REDEF    6058--REDEF
SI_FPT_OPEN.HDR_
      6056**DCL      6057--REDEF
SI_FPT_OPEN.TAB_
      6055**DCL      6056--REDEF
SI_FPT_OPEN.UHL_
      6049**DCL      6050--REDEF    6050--REDEF
SI_FPT_OPEN.V
      6058**DCL      6049--DCLINIT
SI_FPT_OPEN.V.FSN#
      6089**DCL      6089--REDEF    6089--REDEF
SI_FPT_OPEN.WSN_
      6055**DCL      6055--REDEF
VYE$ERRMSG
      5908**DCL-ENT  6249--CALL     6287--CALL
VYI$BREAK
      5909**DCL-ENT  5965--DCLINIT
VYI$ERR
      5910**DCL-ENT  6250--CALL
VYW$WRITE
      5911**DCL-ENT  6290--CALL
VY_BIAS.A
      1572**DCL      1572--REDEF
VY_CBUF.CHARS_A
      1563**DCL      1563--REDEF
VY_DO_ECHO
      1918**DCL      6235<<ASSIGN   6240<<ASSIGN
VY_EBUF.CHARS_A
PL6.E3A0      #001=VYI$INIT File=VYI$INIT.:E05TSI                                WED 07/30/97 08:54 Page:31
      1864**DCL      1865--REDEF
VY_ECHO
      1918**DCL      6254<<ASSIGN   6257<<ASSIGN
VY_EFIELD1.CHARS
      1865**DCL      1865--REDEF
VY_EFIELD2.CHARS
      1866**DCL      1866--REDEF
VY_EFIELD3.CHARS
      1867**DCL      1867--REDEF
VY_ERRORS
      1568**DCL      1570--REDEF
VY_ERRORS.CONFLICT_A
      1569**DCL      1570--REDEF
VY_ERRORS.UNSAT_A
      1568**DCL      1569--REDEF
VY_ERR_CODE.SEV
      1863**DCL      6261<<ASSIGN   6266<<ASSIGN
VY_FCG_SWITCH
      1563**DCL      6244>>ASSIGN   6245>>ASSIGN
VY_FPT_ERRMSG.V.INCLCODE#
      5068**DCL      6244<<ASSIGN
VY_FPT_ERRMSG.V.OUTDCB2#
      5064**DCL      6234<<ASSIGN   6241<<ASSIGN
VY_FPT_ERRMSG_AUX.V.INCLCODE#
      6114**DCL      6245<<ASSIGN
VY_FPT_ERRMSG_AUX.V.OUTDCB2#
      6110**DCL      6236<<ASSIGN   6242<<ASSIGN
VY_IMAGE_DATA.CPAGE#_A
      5524**DCL      5525--REDEF
VY_IMAGE_DATA.NODE_A$
      5536**DCL      5537--REDEF
VY_IMAGE_DATA.START_A$
      5528**DCL      5529--REDEF
VY_IMAGE_DATA.STOP_A$
      5532**DCL      5533--REDEF
VY_IMAGE_PROC.CPAGE#_A
PL6.E3A0      #001=VYI$INIT File=VYI$INIT.:E05TSI                                WED 07/30/97 08:54 Page:32
      5547**DCL      5548--REDEF
VY_IMAGE_PROC.NODE_A$
      5559**DCL      5560--REDEF
VY_IMAGE_PROC.START_A$
      5551**DCL      5552--REDEF
VY_IMAGE_PROC.STOP_A$
      5555**DCL      5556--REDEF
VY_IMAGE_ROS.CPAGE#_A
      5570**DCL      5571--REDEF
VY_IMAGE_ROS.NODE_A$
      5582**DCL      5583--REDEF
VY_IMAGE_ROS.START_A$
      5574**DCL      5575--REDEF
VY_IMAGE_ROS.STOP_A$
      5578**DCL      5579--REDEF
VY_MAP_HDR.CHARS
      1929**DCL      1930--REDEF    1930--REDEF
VY_MAP_LIT_LO_FPT_WRITE.STATION_
      5326**DCL      5326--REDEF
VY_MAP_LIT_LO_FPT_WRITE.V.DVBYTE.VFC#
      5333**DCL      5333--REDEF
VY_MAP_LO_FPT_WRITE.STATION_
      5295**DCL      5295--REDEF
VY_MAP_LO_FPT_WRITE.V.DVBYTE.VFC#
      5302**DCL      5302--REDEF
VY_MAP_TABS_A
      1927**DCL      6271>>DOWHILE
VY_MAP_WIDTH
      1927**DCL      6268<<ASSIGN   6269>>IF       6269<<ASSIGN   6271>>DOWHILE  6277>>IF
VY_MAX_CTAB
      1928**DCL      6270<<ASSIGN   6271>>DOWHILE  6272<<ASSIGN   6272>>ASSIGN   6274>>IF       6274<<ASSIGN
VY_MBUF.CHARS
      1928**DCL      1929--REDEF    1929--REDEF
VY_M_VECTOR.F
      5365**DCL      5369--REDEF
VY_M_VECTOR_DP.F
PL6.E3A0      #001=VYI$INIT File=VYI$INIT.:E05TSI                                WED 07/30/97 08:54 Page:33
      5400**DCL      5404--REDEF
VY_O.DUPL_ATTCH
      1710**DCL      1714--REDEF
VY_O.MAP_ATTCH
      1698**DCL      1709--REDEF
VY_O.PRIMARY_OPTION
      1692**DCL      1697--REDEF
VY_O.SEV_ATTCH
      1715**DCL      1717--REDEF
VY_OD.DUPL_ATTCH
      1854**DCL      1858--REDEF
VY_OD.MAP_ATTCH
      1842**DCL      1853--REDEF
VY_OD.PRIMARY_OPTION
      1836**DCL      1841--REDEF
VY_OD.SEV_ATTCH
      1859**DCL      1861--REDEF
VY_OL_KEY_BUF.FORM0
      5433**DCL      5436--REDEF    5443--REDEF
VY_ONLINE
      1574**DCL      6260<<ASSIGN   6265<<ASSIGN
VY_OU_HEAD.REC_A
      1553**DCL      1554--REDEF
VY_O_KEY_BUF.FORM0
      5410**DCL      5413--REDEF    5420--REDEF
VY_O_KEY_BUF_L.FORM0
      5456**DCL      5459--REDEF    5466--REDEF
VY_PAR_UNWIND
      1923**DCL      1923--REDEF
VY_PASS2_REF.OU.L_START
      1890**DCL      1891--REDEF
VY_PASS2_REF.OU.L_STOP
      1891**DCL      1892--REDEF
VY_PASS2_REF.OU.MAX
      1889**DCL      1890--REDEF
VY_PASS2_REF.OU.SIZE
PL6.E3A0      #001=VYI$INIT File=VYI$INIT.:E05TSI                                WED 07/30/97 08:54 Page:34
      1892**DCL      1893--REDEF
VY_PASS2_REF.SAT.COUNT
      1896**DCL      1897--REDEF
VY_PASS2_REF.SAT.ENT_SIZE
      1898**DCL      1899--REDEF
VY_PASS2_REF.SAT.L_START
      1894**DCL      1895--REDEF
VY_PASS2_REF.SAT.L_STOP
      1895**DCL      1896--REDEF
VY_PASS2_REF.SAT.MAX
      1893**DCL      1894--REDEF
VY_PASS2_REF.UNSAT.L_START
      1900**DCL      1901--REDEF
VY_PASS2_REF.UNSAT.L_STOP
      1901**DCL      1902--REDEF
VY_PASS2_REF.UNSAT.L_WHERE
      1902**DCL      1903--REDEF
VY_PASS2_REF.UNSAT.MAX
      1899**DCL      1900--REDEF
VY_PASS2_REF.UNSAT.PAGE#
      1904**DCL      1905--REDEF
VY_PASS2_REF.UNSAT.SIZE
      1903**DCL      1904--REDEF
VY_PROGRAM_BIAS.A
      1571**DCL      1571--REDEF
VY_RU_HEAD.DATA_SEGMENT
      1539**DCL      1539--REDEF
VY_RU_HEAD.L
      1535**DCL      1536--REDEF
VY_RU_HEAD.MAP_BITS
      1536**DCL      1538--REDEF
VY_RU_HEAD.PBIT
      1532**DCL      1532--REDEF
VY_RU_HEAD_BUF.DATA_SEGMENT
      1549**DCL      1549--REDEF
VY_RU_HEAD_BUF.L
PL6.E3A0      #001=VYI$INIT File=VYI$INIT.:E05TSI                                WED 07/30/97 08:54 Page:35
      1544**DCL      1545--REDEF
VY_RU_HEAD_BUF.MAP_BITS
      1546**DCL      1548--REDEF
VY_RU_HEAD_BUF.PBIT
      1541**DCL      1542--REDEF
VY_R_KEY_BUF.FORM0
      5479**DCL      5483--REDEF    5489--REDEF
VY_SI_KEY_BUF.KEY
      1919**DCL      1919--REDEF
VY_SPC.B$.MINE
      1914**DCL      1915--REDEF
VY_SPC.B$.NAME
      1911**DCL      1911--REDEF
VY_SPC.B$.SKIP
      1913**DCL      1914--REDEF
VY_SPC.B$.VALUE
      1912**DCL      1913--REDEF
VY_SPC.SEG.NAME
      1906**DCL      1907--REDEF
VY_SPC.SEG.VALUE
      1907**DCL      1908--REDEF
VY_TSX0_OVERLAY.H
      1878**DCL      1879--REDEF
VY_XREF_TABS_A
      1931**DCL      6278<<ASSIGN   6281<<ASSIGN   6284>>IF       6284<<ASSIGN
VY_XREF_TABS_CONSTANT_A
      1931**DCL      6275--DOINDEX  6276>>ASSIGN

PL6.E3A0      #002=VYI$BREAK File=VYI$INIT.:E05TSI                               WED 07/30/97 08:54 Page:36
      119        1        /*T***********************************************************/
      120        2        /*T*                                                         */
      121        3        /*T* Copyright (c) Bull HN Information Systems Inc., 1997    */
      122        4        /*T*                                                         */
      123        5        /*T***********************************************************/
      124        6
      125        7        VYI$BREAK: PROC ASYNC ALTRET;
      126        8
      127        9        %INCLUDE VY_INC_C;
      128     9185        %INCLUDE CP_6_SUBS;
      129     9725        %INCLUDE XU_FORMAT_C;
      130     9887        %INCLUDE XUF_ENTRY;
      131     9895        %C;

              9903    1   /*******************************************************************************
              9904    1   *                                                                              *
              9905    1   *                          CHAR                                                 *
              9906    1   *                                                                              *
              9907    1   *******************************************************************************/

      132     9911    1   DCL TYPE_C_TO_CONTINUE CHAR(0) CONSTANT INIT('@Type ''C'' to continue');
      133     9912    1   DCL CR CHAR(0) CONSTANT INIT('a');
      134     9913    1   DCL BUFFER CHAR(80);
      135     9914    1   DCL BREAK_BUF CHAR(0) CONSTANT INIT ('Break: File = %>A  Object unit = %>A');
      136     9915        %E;

              9923    1   /*******************************************************************************
              9924    1   *                                                                              *
              9925    1   *                          ENTRY                                                 *
              9926    1   *                                                                              *
              9927    1   *******************************************************************************/

      137     9931    1   DCL VYE$MERC ENTRY;
      138     9932    1   DCL VYF$CLOSE ENTRY(3);
      139     9933    1   DCL VYR$READ ENTRY(3) ALTRET;
      140     9934        %U;

PL6.E3A0      #002=VYI$BREAK File=VYI$INIT.:E05TSI                               WED 07/30/97 08:54 Page:37
              9942    1   /*******************************************************************************
              9943    1   *                                                                              *
              9944    1   *                          UBIN                                                 *
              9945    1   *                                                                              *
              9946    1   *******************************************************************************/

      141     9950    1   DCL SIZE UBIN;
      142     9951    1   DCL BREAK_COUNT UBIN STATIC INIT (0);
      143     9952        %B;

              9960    1   /*******************************************************************************
              9961    1   *                                                                              *
              9962    1   *                          BIT                                                 *
              9963    1   *                                                                              *
              9964    1   *******************************************************************************/

      144     9968    1   DCL BROKE BIT(1) ALIGNED STATIC INIT( '0'B/*@FALSE_B*/ );
      145     9969
      146     9970        %PLIST;
      147     9971        %BANNER(ARG=FPT);

              9979    1   /*******************************************************************************
              9980    1   *                                                                              *
              9981    1   *                          FPT                                                 *
              9982    1   *                                                                              *
              9983    1   *******************************************************************************/

      148     9987        %FPT_TRMPRG( RSTBRK=YES, STCLASS=CONSTANT );
      149    10016        %FPT_READ(FPTN=VY_UC_FPT_READ, STCLASS=SYMREF );
      150    10055        %FPT_WRITE( FPTN=UC_FPT_WRITE, BUF=TYPE_C_TO_CONTINUE, VFC=YES, DCB=M$UC );
      151    10086        %FPT_WRITE( FPTN=WRITE_CR, BUF=CR, VFC=YES, DCB=M$UC );
      152    10117        %FPT_CLOSE( FPTN=RF_FPT_CLOSE, DCB=M$RF, DISP=SAVE );
      153    10159        %FPT_CLOSE( FPTN=OF_FPT_CLOSE, DCB=M$OF, DISP=SAVE );
      154    10201        %F_FDS (NAME=F_FDS, STCLASS=STATIC, DCB=M$LO, BUF=OUT_BUF,TRUNC=NO, WRAPTAB=4);
      155    10314    1   DCL M$LO DCB;
      156    10315    1   DCL OUT_BUF CHAR(80) STATIC INIT (' ');
      157    10316        %BANNER( ARG=DCBS );
PL6.E3A0      #002=VYI$BREAK File=VYI$INIT.:E05TSI                               WED 07/30/97 08:54 Page:38

             10324    1   /*******************************************************************************
             10325    1   *                                                                              *
             10326    1   *                          DCBS                                                 *
             10327    1   *                                                                              *
             10328    1   *******************************************************************************/

      158    10332    1   DCL M$OF DCB;
      159    10333    1   DCL M$RF DCB;
      160    10334        %F$DCB;
      161    10391        %LIST;
      162    10392        %SET LISTSUB='1'B;
      163    10393        %EJECT;
PL6.E3A0      #002=VYI$BREAK File=VYI$INIT.:E05TSI                               WED 07/30/97 08:54 Page:39
      164    10394    2       DO INHIBIT;
      165    10395    2           CALL M$TRMPRG( FPT_TRMPRG );
      166    10396    2           BREAK_COUNT = BREAK_COUNT + 1;
      167    10397    2           IF BREAK_FLAG AND BREAK_COUNT = 1 THEN
      168    10398    2               CALL X$WRITE(F_FDS,VECTOR(BREAK_BUF),VECTOR(BREAK_FN),VECTOR(BREAK_OU));
      169    10399
      170    10400    2           IF BROKE THEN CALL M$CLRSTK ALTRET(IGNORE1);
      171    10401    2           ELSE
      172    10402    2               BROKE = '1'B /*@TRUE_B*/;
      173    10403    2   IGNORE1:
      174    10404         /* Command level? */
      175    10405    3           IF VY_PAR_UNWIND_B ~= '0'B THEN DO;
      176    10406    3               CALL M$WRITE( WRITE_CR ) ALTRET( CR_ERR );
      177    10407    4               DO WHILE( '0'B );
      178    10408    4   CR_ERR:         CALL M$CLRSTK ALTRET(IGNORE2);
      179    10409    4   IGNORE2:        END;
      180    10410    3               BREAK_COUNT = 0;
      181    10411    3               UNWIND TO VY_PAR_UNWIND;
      182    10412    3               END;
      183    10413
      184    10414    2           CALL M$WRITE( UC_FPT_WRITE ) ALTRET( IO_ERROR );
      185    10415    2           BUFFER = ' ';
      186    10416    2           VY_UC_FPT_READ.BUF_ = VECTOR( BUFFER );
      187    10417    2           CALL M$READ( VY_UC_FPT_READ ) ALTRET( IO_ERROR );
      188    10418    2           SIZE = M$UC$ -> F$DCB.ARS#;
      189    10419    2           IF SUBSTR(BUFFER,0,SIZE) = 'C' OR SUBSTR(BUFFER,0,SIZE) = 'c'
      190    10420    3           THEN DO;
      191    10421    3               BROKE = '0'B /*@FALSE_B*/;
      192    10422    3               BREAK_COUNT = 0;
      193    10423    3               RETURN;
      194    10424    3               END;
      195    10425
      196    10426    2   IO_ERROR:
      197    10427    2           CALL M$CLRSTK ALTRET(IGNORE3);
      198    10428    2   IGNORE3:
      199    10429
      200    10430    2           BROKE = '0'B /*@FALSE_B*/;
PL6.E3A0      #002=VYI$BREAK File=VYI$INIT.:E05TSI                               WED 07/30/97 08:54 Page:40
      201    10431    2           BREAK_COUNT = 0;
      202    10432    2           UNWIND TO VY_UNWIND;
      203    10433    2           END; /* Do inhibit; */
      204    10434
      205    10435
      206    10436    1   END VYI$BREAK;
      207    10437        %EOD;

PL6.E3A0      #002=VYI$BREAK File=VYI$INIT.:E05TSI                               WED 07/30/97 08:54 Page:41
--  Include file information  --

   XUF_ENTRY.:E05TOU  cannot be made into a system file and is referenced.
   XU_FORMAT_C.:E05TOU  is referenced.
   CP_6_SUBS.:E05TOU  is referenced.
   B$OBJECT_C.:E05TOU  is referenced.
   VY_DCB_R.:E05TOU  cannot be made into a system file and is referenced.
   VY_DATA_R.:E05TOU  cannot be made into a system file and is referenced.
   XU_MACRO_C.:E05TOU  is referenced.
   VY_FIXED_R.:E05TOU  cannot be made into a system file and is referenced.
   CP_6.:E05TOU  cannot be made into a system file and is referenced.
   VY_MACRO_C.:E05TOU  is referenced.
   VY_PERR_C.:E05TOU  is referenced.
   VY_SUBS_C.:E05TOU  is referenced.
   VY_INC_NO_C.:E05TOU  is referenced.
   VY_SWITCH_C.:E05TOU  is referenced.
   VY_INC_C.:E05TOU  is referenced.
   B$JIT_C.:E05TOU  was found in the system file and is never referenced.
   CP_6_C.:E05TOU  was found in the system file and is referenced.
      No diagnostics issued in procedure VYI$BREAK.

   Procedure VYI$BREAK requires 80 words for executable code.
   Procedure VYI$BREAK requires 26 words of local(AUTO) storage.

PL6.E3A0      #002=VYI$BREAK File=VYI$INIT.:E05TSI                               WED 07/30/97 08:54 Page:42

 Object Unit name= VYI$BREAK                                  File name= VYI$INIT.:E05TOU
 UTS= JUL 30 '97 08:54:46.60 WED                              Compiler= PL-6/E31         Sev=      00
 SharedLib= :SHARED_SYSTEM                                    Alt SharedLib=


    ****  Control sections  ****

 Sect   Type Bound  Init  Size OctSiz  Section name(segment info)
    0   DCB   even  none     0      0  M$UC
    1  RoData even  UTS     24     30  VYI$BREAK
    2   Data  even  none   136    210  VYI$BREAK
    3   DCB   even  none     0      0  M$LO
    4   DCB   even  none     0      0  M$OF
    5   DCB   even  none     0      0  M$RF
    6   Proc  even  none    80    120  VYI$BREAK
    7  RoData even  none    15     17  VYI$BREAK

    ****  Entry defs  ****

                              Check   Calling
                             calling  sequence
  Sect OctLoc Primary Altret sequence   type   Parms  Name
     6      0   yes    yes     yes     Async       0  VYI$BREAK

  ****  Entry refs  ****

         Check        Calling
        calling       sequence
Altret sequence SRef   type   Args  Name
         yes           Std      22 X$WRITE
                       nStd      0 X66_AAUTO
                       Std       0 B_CONSPOOL_D
                       nStd      0 X66_AAUNWIND
                       nStd      0 X66_AARET
PL6.E3A0      #002=VYI$BREAK File=VYI$INIT.:E05TSI                               WED 07/30/97 08:54 Page:43

  ****  Data refs  ****

  Flags:  r = read only, s = secondary
Flgs Name                             Flgs Name                             Flgs Name
     M$UC                                  VY_ERRORS                             BREAK_FN
     BREAK_OU                              BREAK_FLAG                            VY_UNWIND
     VY_PAR_UNWIND                         M$UC$                                 VY_UC_FPT_READ
     M$LO                                  M$OF                                  M$RF
     B_VECTNIL

  ****  Segment refs  ****

  Flags:  r = read only, s = secondary
Flgs Name                             Flgs Name                             Flgs Name
     ISSID                                 NULLSID
PL6.E3A0      #002=VYI$BREAK File=VYI$INIT.:E05TSI                               WED 07/30/97 08:54 Page:44


      119        1        /*T***********************************************************/
      120        2        /*T*                                                         */
      121        3        /*T* Copyright (c) Bull HN Information Systems Inc., 1997    */
      122        4        /*T*                                                         */
      123        5        /*T***********************************************************/
      124        6
      125        7        VYI$BREAK: PROC ASYNC ALTRET;

      7  6 000000   000000 700200 xent  VYI$BREAK    TSX0  ! X66_AAUTO
         6 000001   000032 000000                    ZERO    26,0

      126        8
      127        9        %INCLUDE VY_INC_C;
      128     9185        %INCLUDE CP_6_SUBS;
      129     9725        %INCLUDE XU_FORMAT_C;
      130     9887        %INCLUDE XUF_ENTRY;
      131     9895        %C;

              9903    1   /*******************************************************************************
              9904    1   *                                                                              *
              9905    1   *                          CHAR                                                 *
              9906    1   *                                                                              *
              9907    1   *******************************************************************************/

      132     9911    1   DCL TYPE_C_TO_CONTINUE CHAR(0) CONSTANT INIT('@Type ''C'' to continue');
      133     9912    1   DCL CR CHAR(0) CONSTANT INIT('a');
      134     9913    1   DCL BUFFER CHAR(80);
      135     9914    1   DCL BREAK_BUF CHAR(0) CONSTANT INIT ('Break: File = %>A  Object unit = %>A');
      136     9915        %E;

              9923    1   /*******************************************************************************
              9924    1   *                                                                              *
              9925    1   *                          ENTRY                                                 *
              9926    1   *                                                                              *
              9927    1   *******************************************************************************/

PL6.E3A0      #002=VYI$BREAK File=VYI$INIT.:E05TSI                               WED 07/30/97 08:54 Page:45
      137     9931    1   DCL VYE$MERC ENTRY;
      138     9932    1   DCL VYF$CLOSE ENTRY(3);
      139     9933    1   DCL VYR$READ ENTRY(3) ALTRET;
      140     9934        %U;

              9942    1   /*******************************************************************************
              9943    1   *                                                                              *
              9944    1   *                          UBIN                                                 *
              9945    1   *                                                                              *
              9946    1   *******************************************************************************/

      141     9950    1   DCL SIZE UBIN;
      142     9951    1   DCL BREAK_COUNT UBIN STATIC INIT (0);
      143     9952        %B;

              9960    1   /*******************************************************************************
              9961    1   *                                                                              *
              9962    1   *                          BIT                                                 *
              9963    1   *                                                                              *
              9964    1   *******************************************************************************/

      144     9968    1   DCL BROKE BIT(1) ALIGNED STATIC INIT( '0'B/*@FALSE_B*/ );
      145     9969
      146     9970        %PLIST;
      147     9971        %BANNER(ARG=FPT);

              9979    1   /*******************************************************************************
              9980    1   *                                                                              *
              9981    1   *                          FPT                                                 *
              9982    1   *                                                                              *
              9983    1   *******************************************************************************/

      148     9987        %FPT_TRMPRG( RSTBRK=YES, STCLASS=CONSTANT );
      149    10016        %FPT_READ(FPTN=VY_UC_FPT_READ, STCLASS=SYMREF );
      150    10055        %FPT_WRITE( FPTN=UC_FPT_WRITE, BUF=TYPE_C_TO_CONTINUE, VFC=YES, DCB=M$UC );
      151    10086        %FPT_WRITE( FPTN=WRITE_CR, BUF=CR, VFC=YES, DCB=M$UC );
      152    10117        %FPT_CLOSE( FPTN=RF_FPT_CLOSE, DCB=M$RF, DISP=SAVE );
PL6.E3A0      #002=VYI$BREAK File=VYI$INIT.:E05TSI                               WED 07/30/97 08:54 Page:46
      153    10159        %FPT_CLOSE( FPTN=OF_FPT_CLOSE, DCB=M$OF, DISP=SAVE );
      154    10201        %F_FDS (NAME=F_FDS, STCLASS=STATIC, DCB=M$LO, BUF=OUT_BUF,TRUNC=NO, WRAPTAB=4);
      155    10314    1   DCL M$LO DCB;
      156    10315    1   DCL OUT_BUF CHAR(80) STATIC INIT (' ');
      157    10316        %BANNER( ARG=DCBS );

             10324    1   /*******************************************************************************
             10325    1   *                                                                              *
             10326    1   *                          DCBS                                                 *
             10327    1   *                                                                              *
             10328    1   *******************************************************************************/

      158    10332    1   DCL M$OF DCB;
      159    10333    1   DCL M$RF DCB;
      160    10334        %F$DCB;
      161    10391        %LIST;
      162    10392        %SET LISTSUB='1'B;
      163    10393        %EJECT;
PL6.E3A0      #002=VYI$BREAK File=VYI$INIT.:E05TSI                               WED 07/30/97 08:54 Page:47
      164    10394    2       DO INHIBIT;

      165    10395    2           CALL M$TRMPRG( FPT_TRMPRG );

  10395  6 000002   000020 630600 1                  EPPR0 ! FPT_TRMPRG
         6 000003   160004 713600                    CLIMB ! 57348
         6 000004   400400 401760                    pmme    nvectors=2

      166    10396    2           BREAK_COUNT = BREAK_COUNT + 1;

  10396  6 000005   000000 235200 2                  LDA   ! BREAK_COUNT
         6 000006   000001 035207                    ADLA  ! 1,DL
         6 000007   000000 755200 2                  STA   ! BREAK_COUNT

      167    10397    2           IF BREAK_FLAG AND BREAK_COUNT = 1 THEN

  10397  6 000010   000000 234200 xsym               SZN   ! BREAK_FLAG
         6 000011   000020 605200 6                  TPL   ! s:10400
         6 000012   000001 115207                    CMPA  ! 1,DL
         6 000013   000020 601200 6                  TNZ   ! s:10400

      168    10398    2              CALL X$WRITE(F_FDS,VECTOR(BREAK_BUF),VECTOR(BREAK_FN),VECTOR(BREAK_OU));

  10398  6 000014   000006 630600 7                  EPPR0 ! 6
         6 000015   000022 631600 xsym               EPPR1 ! B_VECTNIL+18
         6 000016   000000 701200 xent               TSX1  ! X$WRITE
         6 000017   000000 011200                    NOP   ! 0

      169    10399
      170    10400    2           IF BROKE THEN CALL M$CLRSTK ALTRET(IGNORE1);

  10400  6 000020   000001 234200 2                  SZN   ! BROKE
         6 000021   000026 605200 6                  TPL   ! s:10402

  10400  6 000022   410013 713600                    CLIMB ! alt,+4107
         6 000023   000000 401760                    pmme    nvectors=0
         6 000024   000030 702200 6                  TSX2  ! IGNORE1
PL6.E3A0      #002=VYI$BREAK File=VYI$INIT.:E05TSI                               WED 07/30/97 08:54 Page:48
         6 000025   000030 710200 6                  TRA   ! IGNORE1

      171    10401    2           ELSE
      172    10402    2               BROKE = '1'B /*@TRUE_B*/;

  10402  6 000026   400000 236203                    LDQ   ! -131072,DU
         6 000027   000001 756200 2                  STQ   ! BROKE

      173    10403    2   IGNORE1:
      174    10404         /* Command level? */
      175    10405    3           IF VY_PAR_UNWIND_B ~= '0'B THEN DO;

  10405  6 000030   000000 237200 xsym  IGNORE1      LDAQ  ! VY_PAR_UNWIND
         6 000031   000012 117200 7                  CMPAQ ! 10
         6 000032   000047 600200 6                  TZE   ! s:10414

      176    10406    3               CALL M$WRITE( WRITE_CR ) ALTRET( CR_ERR );

  10406  6 000033   000016 630600 2                  EPPR0 ! WRITE_CR
         6 000034   440001 713600                    CLIMB ! alt,write
         6 000035   401400 401760                    pmme    nvectors=4
         6 000036   000040 702200 6                  TSX2  ! CR_ERR

      177    10407    4               DO WHILE( '0'B );

  10407  6 000037   000043 710200 6                  TRA   ! IGNORE2

      178    10408    4   CR_ERR:         CALL M$CLRSTK ALTRET(IGNORE2);

  10408  6 000040   410013 713600       CR_ERR       CLIMB ! alt,+4107
         6 000041   000000 401760                    pmme    nvectors=0
         6 000042   000043 702200 6                  TSX2  ! IGNORE2

      179    10409    4   IGNORE2:        END;

  10409  6 000043                       IGNORE2      null
      180    10410    3               BREAK_COUNT = 0;
PL6.E3A0      #002=VYI$BREAK File=VYI$INIT.:E05TSI                               WED 07/30/97 08:54 Page:49

  10410  6 000043   000000 450200 2                  STZ   ! BREAK_COUNT

      181    10411    3               UNWIND TO VY_PAR_UNWIND;

  10411  6 000044   000000 237200 xsym               LDAQ  ! VY_PAR_UNWIND
         6 000045   000000 700200 xent               TSX0  ! X66_AAUNWIND
         6 000046   000000 000200                    ZERO    0,128

      182    10412    3               END;
      183    10413
      184    10414    2           CALL M$WRITE( UC_FPT_WRITE ) ALTRET( IO_ERROR );

  10414  6 000047   000002 630600 2                  EPPR0 ! UC_FPT_WRITE
         6 000050   440001 713600                    CLIMB ! alt,write
         6 000051   401400 401760                    pmme    nvectors=4
         6 000052   000107 702200 6                  TSX2  ! IO_ERROR

      185    10415    2           BUFFER = ' ';

  10415  6 000053   040100 100600                    MLR   ! fill='040'O
         6 000054   000035 000001 xsym               ADSC9   B_VECTNIL+29             cn=0,n=1
         6 000055   200003 000120                    ADSC9   BUFFER,,AUTO             cn=0,n=80

      186    10416    2           VY_UC_FPT_READ.BUF_ = VECTOR( BUFFER );

  10416  6 000056   000014 235200 7                  LDA   ! 12
         6 000057   200030 452700                    STP2  ! SIZE+1,,AUTO
         6 000060   200030 236300                    LDQ   ! SIZE+1,,AUTO
         6 000061   000003 036203                    ADLQ  ! 3,DU
         6 000062   000004 757200 xsym               STAQ  ! VY_UC_FPT_READ+4

      187    10417    2           CALL M$READ( VY_UC_FPT_READ ) ALTRET( IO_ERROR );

  10417  6 000063   000000 630600 xsym               EPPR0 ! VY_UC_FPT_READ
         6 000064   440000 713600                    CLIMB ! alt,read
         6 000065   401400 401760                    pmme    nvectors=4
PL6.E3A0      #002=VYI$BREAK File=VYI$INIT.:E05TSI                               WED 07/30/97 08:54 Page:50
         6 000066   000107 702200 6                  TSX2  ! IO_ERROR

      188    10418    2           SIZE = M$UC$ -> F$DCB.ARS#;

  10418  6 000067   000000 470600 xsym               LDP0  ! M$UC$
         6 000070   000000 235300                    LDA   ! 0,,PR0
         6 000071   200027 755300                    STA   ! SIZE,,AUTO

      189    10419    2           IF SUBSTR(BUFFER,0,SIZE) = 'C' OR SUBSTR(BUFFER,0,SIZE) = 'c'

  10419  6 000072   000000 620205                    EAX0  ! 0,AL
         6 000073   040000 106740                    CMPC  ! fill='040'O
         6 000074   200003 000010                    ADSC9   BUFFER,,AUTO             cn=0,n=*X0
         6 000075   000015 000001 7                  ADSC9   13                       cn=0,n=1
         6 000076   000104 600200 6                  TZE   ! s:10421
         6 000077   200027 720300                    LXL0  ! SIZE,,AUTO
         6 000100   040000 106740                    CMPC  ! fill='040'O
         6 000101   200003 000010                    ADSC9   BUFFER,,AUTO             cn=0,n=*X0
         6 000102   000016 000001 7                  ADSC9   14                       cn=0,n=1
         6 000103   000107 601200 6                  TNZ   ! IO_ERROR

      190    10420    3           THEN DO;

      191    10421    3               BROKE = '0'B /*@FALSE_B*/;

  10421  6 000104   000001 450200 2                  STZ   ! BROKE

      192    10422    3               BREAK_COUNT = 0;

  10422  6 000105   000000 450200 2                  STZ   ! BREAK_COUNT

      193    10423    3               RETURN;

  10423  6 000106   000000 702200 xent               TSX2  ! X66_AARET

      194    10424    3               END;
      195    10425
PL6.E3A0      #002=VYI$BREAK File=VYI$INIT.:E05TSI                               WED 07/30/97 08:54 Page:51
      196    10426    2   IO_ERROR:
      197    10427    2           CALL M$CLRSTK ALTRET(IGNORE3);

  10427  6 000107   410013 713600       IO_ERROR     CLIMB ! alt,+4107
         6 000110   000000 401760                    pmme    nvectors=0
         6 000111   000112 702200 6                  TSX2  ! IGNORE3

      198    10428    2   IGNORE3:
      199    10429
      200    10430    2           BROKE = '0'B /*@FALSE_B*/;

  10430  6 000112   000001 450200 2     IGNORE3      STZ   ! BROKE

      201    10431    2           BREAK_COUNT = 0;

  10431  6 000113   000000 450200 2                  STZ   ! BREAK_COUNT

      202    10432    2           UNWIND TO VY_UNWIND;

  10432  6 000114   000000 237200 xsym               LDAQ  ! VY_UNWIND
         6 000115   000000 700200 xent               TSX0  ! X66_AAUNWIND
         6 000116   000000 000200                    ZERO    0,128

      203    10433    2           END; /* Do inhibit; */

      204    10434
      205    10435
      206    10436    1   END VYI$BREAK;

  10436  6 000117   000000 702200 xent               TSX2  ! X66_AARET
      207    10437        %EOD;

PL6.E3A0      #002=VYI$BREAK File=VYI$INIT.:E05TSI                               WED 07/30/97 08:54 Page:52
--  Include file information  --

   XUF_ENTRY.:E05TOU  cannot be made into a system file and is referenced.
   XU_FORMAT_C.:E05TOU  is referenced.
   CP_6_SUBS.:E05TOU  is referenced.
   B$OBJECT_C.:E05TOU  is referenced.
   VY_DCB_R.:E05TOU  cannot be made into a system file and is referenced.
   VY_DATA_R.:E05TOU  cannot be made into a system file and is referenced.
   XU_MACRO_C.:E05TOU  is referenced.
   VY_FIXED_R.:E05TOU  cannot be made into a system file and is referenced.
   CP_6.:E05TOU  cannot be made into a system file and is referenced.
   VY_MACRO_C.:E05TOU  is referenced.
   VY_PERR_C.:E05TOU  is referenced.
   VY_SUBS_C.:E05TOU  is referenced.
   VY_INC_NO_C.:E05TOU  is referenced.
   VY_SWITCH_C.:E05TOU  is referenced.
   VY_INC_C.:E05TOU  is referenced.
   B$JIT_C.:E05TOU  was found in the system file and is never referenced.
   CP_6_C.:E05TOU  was found in the system file and is referenced.
      No diagnostics issued in procedure VYI$BREAK.
PL6.E3A0      #002=VYI$BREAK File=VYI$INIT.:E05TSI                               WED 07/30/97 08:54 Page:53

 **** Variables and constants ****

  ****  Section 001 RoData VYI$BREAK

  ****  Scalars and arrays  ****
OctLoc.c.b A Datatyp(siz) R M Lvl/name                 OctLoc.c.b A Datatyp(siz) R M Lvl/name

     7-0-0/c CHAR        r     1 BREAK_BUF                  6-0-0/c CHAR        r     1 CR
    20-0-0/d STRC(288)   r     1 FPT_TRMPRG                 0-0-0/c CHAR(21)    r     1 TYPE_C_TO_CONTINUE

  ****  Section 002  Data  VYI$BREAK

  ****  Scalars and arrays  ****
OctLoc.c.b A Datatyp(siz) R M Lvl/name                 OctLoc.c.b A Datatyp(siz) R M Lvl/name

     0-0-0/w UBIN        r     1 BREAK_COUNT                1-0-0/w BIT         r     1 BROKE
   126-0-0/w STRC(1080)  r     1 F_FDS                     70-0-0/d STRC(1080)  r     1 OF_FPT_CLOSE
   164-0-0/c CHAR(80)    r     1 OUT_BUF                   32-0-0/d STRC(1080)  r     1 RF_FPT_CLOSE
     2-0-0/d STRC(432)   r     1 UC_FPT_WRITE              16-0-0/d STRC(432)   r     1 WRITE_CR

  ****  Auto variables  ****

  ****  Scalars and arrays  ****
OctLoc.c.b A Datatyp(siz) R M Lvl/name                 OctLoc.c.b A Datatyp(siz) R M Lvl/name

     3-0-0/c CHAR(80)    r     1 BUFFER                    27-0-0/w UBIN        r     1 SIZE

  ****  SYMREF variables  ****

  ****  Scalars and arrays  ****
OctLoc.c.b A Datatyp(siz) R M Lvl/name                 OctLoc.c.b A Datatyp(siz) R M Lvl/name

     0-0-0/b BIT         r     1 BREAK_FLAG                 0-0-0/c CHAR(31)    r     1 BREAK_FN
     0-0-0/c CHAR(511)   r     1 BREAK_OU                   0-0-0/w PTR         r     1 M$UC$
     0-0-0/d REMB        r     1 VY_PAR_UNWIND              0-0-0/d BIT (72)    r     1 VY_PAR_UNWIND_B
     0-0-0/d STRC(504)   r     1 VY_UC_FPT_READ             0-0-0/d REMB        r     1 VY_UNWIND

PL6.E3A0      #002=VYI$BREAK File=VYI$INIT.:E05TSI                               WED 07/30/97 08:54 Page:54
  ****  BASED and DCB variables  ****

  ****  Scalars and arrays  ****
OctLoc.c.b A Datatyp(siz) R M Lvl/name                 OctLoc.c.b A Datatyp(siz) R M Lvl/name

     0-0-0/d ASTR(3528)  r     1 F$DCB                      0-0-0N  NULL        r     1 M$LO
     0-0-0N  NULL        r     1 M$OF                       0-0-0N  NULL        r     1 M$RF
     0-0-0N  NULL        r     1 M$UC


   Procedure VYI$BREAK requires 80 words for executable code.
   Procedure VYI$BREAK requires 26 words of local(AUTO) storage.
PL6.E3A0      #002=VYI$BREAK File=VYI$INIT.:E05TSI                               WED 07/30/97 08:54 Page:55
          *** CROSS REFERENCE LISTING ***
**     DENOTES     IDENTIFIER DEFINITION
<<                 IDENTIFIER'S VALUE SET
>>                 IDENTIFIER'S VALUE USED
<>                 IDENTIFIER SET AND/OR USED
--                 IDENTIFIER REFERENCED
PL6.E3A0      #002=VYI$BREAK File=VYI$INIT.:E05TSI                               WED 07/30/97 08:54 Page:56
          MINI XREF LISTING

BREAK_BUF
      9914**DCL     10398--CALL
BREAK_COUNT
      9951**DCL     10396<<ASSIGN  10396>>ASSIGN  10397>>IF      10410<<ASSIGN  10422<<ASSIGN  10431<<ASSIGN
BREAK_FLAG
      5681**DCL     10397>>IF
BREAK_FN
      5680**DCL     10398--CALL
BREAK_OU
      5680**DCL     10398--CALL
BROKE
      9968**DCL     10400>>IF      10402<<ASSIGN  10421<<ASSIGN  10430<<ASSIGN
BUFFER
      9913**DCL     10415<<ASSIGN  10416--ASSIGN  10419>>IF      10419>>IF
CR
      9912**DCL     10104--DCLINIT 10105--DCLINIT
CR_ERR
     10408**LABEL   10406--CALLALT
F$DCB.ACTPOS
     10367**DCL     10367--REDEF
F$DCB.ARS#
     10341**DCL     10341--REDEF   10418>>ASSIGN
F$DCB.ATTR
     10360**DCL     10361--REDEF
F$DCB.BORROW
     10375**DCL     10375--REDEF   10375--REDEF   10375--REDEF
F$DCB.DCBNAME.L
     10389**DCL     10389--IMP-SIZ
F$DCB.EOMCHAR#
     10345**DCL     10345--REDEF
F$DCB.FLDID
     10370**DCL     10370--REDEF
PL6.E3A0      #002=VYI$BREAK File=VYI$INIT.:E05TSI                               WED 07/30/97 08:54 Page:57
F$DCB.FORM$
     10364**DCL     10364--REDEF
F$DCB.FSECT
     10380**DCL     10380--REDEF
F$DCB.FSN#
     10357**DCL     10357--REDEF   10357--REDEF   10358--REDEF
F$DCB.HEADER$
     10363**DCL     10363--REDEF
F$DCB.IXTNSIZE#
     10361**DCL     10361--REDEF
F$DCB.LASTSTA$
     10350**DCL     10350--REDEF
F$DCB.LVL
     10376**DCL     10376--REDEF
F$DCB.NAME#.C
     10351**DCL     10351--REDEF
F$DCB.NOEOF
     10373**DCL     10373--REDEF
F$DCB.NRECS#
     10362**DCL     10362--REDEF
F$DCB.NRECX
     10381**DCL     10381--REDEF
F$DCB.OHDR
     10373**DCL     10373--REDEF
F$DCB.ORG#
     10356**DCL     10356--REDEF
F$DCB.PRECNO
     10379**DCL     10379--REDEF
F$DCB.RCSZ
     10385**DCL     10385--REDEF
F$DCB.RES#
     10352**DCL     10352--REDEF
F$DCB.SETX
     10364**DCL     10364--REDEF
F$DCB.TAB$
     10364**DCL     10364--REDEF
PL6.E3A0      #002=VYI$BREAK File=VYI$INIT.:E05TSI                               WED 07/30/97 08:54 Page:58
F$DCB.TDA
     10378**DCL     10379--REDEF
F$DCB.WSN#
     10352**DCL     10352--REDEF
FPT_TRMPRG
     10003**DCL     10395<>CALL
FPT_TRMPRG.V
     10010**DCL     10005--DCLINIT
FPT_TRMPRG.V.CTLFLG.RSTBRK#
     10011**DCL     10012--REDEF
F_FDS
     10215**DCL     10398<>CALL
IGNORE1
     10405**LABEL   10400--CALLALT
IGNORE2
     10409**LABEL   10408--CALLALT
IGNORE3
     10430**LABEL   10427--CALLALT
IO_ERROR
     10427**LABEL   10414--CALLALT 10417--CALLALT
M$CLRSTK
      1664**DCL-ENT 10400--CALL    10408--CALL    10427--CALL
M$READ
      1607**DCL-ENT 10417--CALL
M$TRMPRG
      1631**DCL-ENT 10395--CALL
M$UC$
      5753**DCL     10418>>ASSIGN
M$WRITE
      1607**DCL-ENT 10406--CALL    10414--CALL
OF_FPT_CLOSE.SN_
     10182**DCL     10182--REDEF
OF_FPT_CLOSE.UTL_
     10183**DCL     10183--REDEF
OF_FPT_CLOSE.V
     10187**DCL     10182--DCLINIT
PL6.E3A0      #002=VYI$BREAK File=VYI$INIT.:E05TSI                               WED 07/30/97 08:54 Page:59
OF_FPT_CLOSE.V.EXPIRE#
     10197**DCL     10197--REDEF
OF_FPT_CLOSE.V.TYPE#
     10195**DCL     10195--REDEF
OF_FPT_CLOSE.V.XTNSIZE#
     10192**DCL     10192--REDEF   10194--REDEF
OUT_BUF
     10315**DCL     10233--DCLINIT 10235--DCLINIT
RF_FPT_CLOSE.SN_
     10140**DCL     10140--REDEF
RF_FPT_CLOSE.UTL_
     10141**DCL     10141--REDEF
RF_FPT_CLOSE.V
     10145**DCL     10140--DCLINIT
RF_FPT_CLOSE.V.EXPIRE#
     10155**DCL     10155--REDEF
RF_FPT_CLOSE.V.TYPE#
     10153**DCL     10153--REDEF
RF_FPT_CLOSE.V.XTNSIZE#
     10150**DCL     10150--REDEF   10152--REDEF
SIZE
      9950**DCL     10418<<ASSIGN  10419>>IF      10419>>IF
TYPE_C_TO_CONTINUE
      9911**DCL     10073--DCLINIT 10074--DCLINIT
UC_FPT_WRITE
     10072**DCL     10414<>CALL
UC_FPT_WRITE.STATION_
     10074**DCL     10074--REDEF
UC_FPT_WRITE.V
     10075**DCL     10072--DCLINIT
UC_FPT_WRITE.V.DVBYTE.VFC#
     10081**DCL     10081--REDEF
VY_BIAS.A
      5385**DCL      5385--REDEF
VY_CBUF.CHARS_A
      5376**DCL      5376--REDEF
PL6.E3A0      #002=VYI$BREAK File=VYI$INIT.:E05TSI                               WED 07/30/97 08:54 Page:60
VY_EBUF.CHARS_A
      5677**DCL      5678--REDEF
VY_EFIELD1.CHARS
      5678**DCL      5678--REDEF
VY_EFIELD2.CHARS
      5679**DCL      5679--REDEF
VY_EFIELD3.CHARS
      5680**DCL      5680--REDEF
VY_ERRORS
      5381**DCL      5383--REDEF
VY_ERRORS.CONFLICT_A
      5382**DCL      5383--REDEF
VY_ERRORS.UNSAT_A
      5381**DCL      5382--REDEF
VY_IMAGE_DATA.CPAGE#_A
      5269**DCL      5270--REDEF
VY_IMAGE_DATA.NODE_A$
      5281**DCL      5282--REDEF
VY_IMAGE_DATA.START_A$
      5273**DCL      5274--REDEF
VY_IMAGE_DATA.STOP_A$
      5277**DCL      5278--REDEF
VY_IMAGE_PROC.CPAGE#_A
      5292**DCL      5293--REDEF
VY_IMAGE_PROC.NODE_A$
      5304**DCL      5305--REDEF
VY_IMAGE_PROC.START_A$
      5296**DCL      5297--REDEF
VY_IMAGE_PROC.STOP_A$
      5300**DCL      5301--REDEF
VY_IMAGE_ROS.CPAGE#_A
      5315**DCL      5316--REDEF
VY_IMAGE_ROS.NODE_A$
      5327**DCL      5328--REDEF
VY_IMAGE_ROS.START_A$
      5319**DCL      5320--REDEF
PL6.E3A0      #002=VYI$BREAK File=VYI$INIT.:E05TSI                               WED 07/30/97 08:54 Page:61
VY_IMAGE_ROS.STOP_A$
      5323**DCL      5324--REDEF
VY_MAP_HDR.CHARS
      5742**DCL      5743--REDEF    5743--REDEF
VY_MAP_LIT_LO_FPT_WRITE.STATION_
      5071**DCL      5071--REDEF
VY_MAP_LIT_LO_FPT_WRITE.V.DVBYTE.VFC#
      5078**DCL      5078--REDEF
VY_MAP_LO_FPT_WRITE.STATION_
      5040**DCL      5040--REDEF
VY_MAP_LO_FPT_WRITE.V.DVBYTE.VFC#
      5047**DCL      5047--REDEF
VY_MBUF.CHARS
      5741**DCL      5742--REDEF    5742--REDEF
VY_M_VECTOR.F
      5110**DCL      5114--REDEF
VY_M_VECTOR_DP.F
      5145**DCL      5149--REDEF
VY_O.DUPL_ATTCH
      5523**DCL      5527--REDEF
VY_O.MAP_ATTCH
      5511**DCL      5522--REDEF
VY_O.PRIMARY_OPTION
      5505**DCL      5510--REDEF
VY_O.SEV_ATTCH
      5528**DCL      5530--REDEF
VY_OD.DUPL_ATTCH
      5667**DCL      5671--REDEF
VY_OD.MAP_ATTCH
      5655**DCL      5666--REDEF
VY_OD.PRIMARY_OPTION
      5649**DCL      5654--REDEF
VY_OD.SEV_ATTCH
      5672**DCL      5674--REDEF
VY_OL_KEY_BUF.FORM0
      5178**DCL      5181--REDEF    5188--REDEF
PL6.E3A0      #002=VYI$BREAK File=VYI$INIT.:E05TSI                               WED 07/30/97 08:54 Page:62
VY_OU_HEAD.REC_A
      5366**DCL      5367--REDEF
VY_O_KEY_BUF.FORM0
      5155**DCL      5158--REDEF    5165--REDEF
VY_O_KEY_BUF_L.FORM0
      5201**DCL      5204--REDEF    5211--REDEF
VY_PAR_UNWIND
      5736**DCL      5736--REDEF   10411>>UNWIND
VY_PAR_UNWIND_B
      5736**DCL     10405>>IF
VY_PASS2_REF.OU.L_START
      5703**DCL      5704--REDEF
VY_PASS2_REF.OU.L_STOP
      5704**DCL      5705--REDEF
VY_PASS2_REF.OU.MAX
      5702**DCL      5703--REDEF
VY_PASS2_REF.OU.SIZE
      5705**DCL      5706--REDEF
VY_PASS2_REF.SAT.COUNT
      5709**DCL      5710--REDEF
VY_PASS2_REF.SAT.ENT_SIZE
      5711**DCL      5712--REDEF
VY_PASS2_REF.SAT.L_START
      5707**DCL      5708--REDEF
VY_PASS2_REF.SAT.L_STOP
      5708**DCL      5709--REDEF
VY_PASS2_REF.SAT.MAX
      5706**DCL      5707--REDEF
VY_PASS2_REF.UNSAT.L_START
      5713**DCL      5714--REDEF
VY_PASS2_REF.UNSAT.L_STOP
      5714**DCL      5715--REDEF
VY_PASS2_REF.UNSAT.L_WHERE
      5715**DCL      5716--REDEF
VY_PASS2_REF.UNSAT.MAX
      5712**DCL      5713--REDEF
PL6.E3A0      #002=VYI$BREAK File=VYI$INIT.:E05TSI                               WED 07/30/97 08:54 Page:63
VY_PASS2_REF.UNSAT.PAGE#
      5717**DCL      5718--REDEF
VY_PASS2_REF.UNSAT.SIZE
      5716**DCL      5717--REDEF
VY_PROGRAM_BIAS.A
      5384**DCL      5384--REDEF
VY_RU_HEAD.DATA_SEGMENT
      5352**DCL      5352--REDEF
VY_RU_HEAD.L
      5348**DCL      5349--REDEF
VY_RU_HEAD.MAP_BITS
      5349**DCL      5351--REDEF
VY_RU_HEAD.PBIT
      5345**DCL      5345--REDEF
VY_RU_HEAD_BUF.DATA_SEGMENT
      5362**DCL      5362--REDEF
VY_RU_HEAD_BUF.L
      5357**DCL      5358--REDEF
VY_RU_HEAD_BUF.MAP_BITS
      5359**DCL      5361--REDEF
VY_RU_HEAD_BUF.PBIT
      5354**DCL      5355--REDEF
VY_R_KEY_BUF.FORM0
      5224**DCL      5228--REDEF    5234--REDEF
VY_SI_KEY_BUF.KEY
      5732**DCL      5732--REDEF
VY_SPC.B$.MINE
      5727**DCL      5728--REDEF
VY_SPC.B$.NAME
      5724**DCL      5724--REDEF
VY_SPC.B$.SKIP
      5726**DCL      5727--REDEF
VY_SPC.B$.VALUE
      5725**DCL      5726--REDEF
VY_SPC.SEG.NAME
      5719**DCL      5720--REDEF
PL6.E3A0      #002=VYI$BREAK File=VYI$INIT.:E05TSI                               WED 07/30/97 08:54 Page:64
VY_SPC.SEG.VALUE
      5720**DCL      5721--REDEF
VY_TSX0_OVERLAY.H
      5691**DCL      5692--REDEF
VY_UC_FPT_READ
     10033**DCL     10417<>CALL
VY_UC_FPT_READ.BUF_
     10035**DCL     10416<<ASSIGN
VY_UC_FPT_READ.STATION_
     10036**DCL     10037--REDEF
VY_UC_FPT_READ.V.DVBYTE.REREAD#
     10048**DCL     10048--REDEF
VY_UC_FPT_READ.V.INDX#
     10046**DCL     10046--REDEF
VY_UNWIND
      5736**DCL     10432>>UNWIND
WRITE_CR
     10103**DCL     10406<>CALL
WRITE_CR.STATION_
     10105**DCL     10105--REDEF
WRITE_CR.V
     10106**DCL     10103--DCLINIT
WRITE_CR.V.DVBYTE.VFC#
     10112**DCL     10112--REDEF
X$WRITE
      9893**DCL-ENT 10398--CALL

PL6.E3A0      #003=VYI$EXIT File=VYI$INIT.:E05TSI                                WED 07/30/97 08:55 Page:65
      208        1        /*T***********************************************************/
      209        2        /*T*                                                         */
      210        3        /*T* Copyright (c) Bull HN Information Systems Inc., 1997    */
      211        4        /*T*                                                         */
      212        5        /*T***********************************************************/
      213        6
      214        7        VYI$EXIT: PROC;
      215        8
      216        9        %INCLUDE VY_INC_C ;
      217     9185
      218     9186    1   DCL M$LO DCB;
      219     9187    1   DCL M$DO DCB;
      220     9188
      221     9189        %F$DCB ( DCBN = B$DCB, STCLASS = BASED );
      222     9246
      223     9247        %FPT_CLOSE ( FPTN = CLOSE_M$LO,
      224     9248         STCLASS = CONSTANT,
      225     9249         DCB = M$LO,
      226     9250         DISP = SAVE );
      227     9292
      228     9293        %FPT_CLOSE ( FPTN = CLOSE_M$DO,
      229     9294         STCLASS = CONSTANT,
      230     9295         DCB = M$DO,
      231     9296         DISP = SAVE );
      232     9338
      233     9339        %FPT_EXIT ( FPTN = FPT_EXIT,
      234     9340         STCLASS = STATIC,
      235     9341         STEPCC = 0 ) ;
      236     9356
      237     9357    1       CALL CLOSE;
      238     9358    1       IF VY_ERR_SEV > 1 THEN
      239     9359    1           FPT_EXIT.V.STEPCC# = ( ( ( VY_ERR_SEV + 2 ) / 2 ) * 2 ) ;
      240     9360    1       CALL M$EXIT ( FPT_EXIT ) ;
      241     9361
      242     9362    1   VYI$ERR: ENTRY;
      243     9363
      244     9364    1       CALL CLOSE;
PL6.E3A0      #003=VYI$EXIT File=VYI$INIT.:E05TSI                                WED 07/30/97 08:55 Page:66
      245     9365    1       CALL M$ERR;
      246     9366
      247     9367    1   CLOSE: PROC;
      248     9368
      249     9369    2       IF DCBADDR(DCBNUM(M$LO))->B$DCB.FCD# THEN
      250     9370    2           CALL M$CLOSE ( CLOSE_M$LO );
      251     9371    2       IF DCBADDR(DCBNUM(M$DO))->B$DCB.FCD# THEN
      252     9372    2           CALL M$CLOSE ( CLOSE_M$DO );
      253     9373
      254     9374    2   END CLOSE;
      255     9375    1   END VYI$EXIT;

PL6.E3A0      #003=VYI$EXIT File=VYI$INIT.:E05TSI                                WED 07/30/97 08:55 Page:67
--  Include file information  --

   B$OBJECT_C.:E05TOU  is referenced.
   VY_DCB_R.:E05TOU  cannot be made into a system file and is referenced.
   VY_DATA_R.:E05TOU  cannot be made into a system file and is referenced.
   XU_MACRO_C.:E05TOU  is referenced.
   VY_FIXED_R.:E05TOU  cannot be made into a system file and is referenced.
   CP_6.:E05TOU  cannot be made into a system file and is referenced.
   VY_MACRO_C.:E05TOU  is referenced.
   VY_PERR_C.:E05TOU  is referenced.
   VY_SUBS_C.:E05TOU  is referenced.
   VY_INC_NO_C.:E05TOU  is referenced.
   VY_SWITCH_C.:E05TOU  is referenced.
   VY_INC_C.:E05TOU  is referenced.
   B$JIT_C.:E05TOU  was found in the system file and is never referenced.
   CP_6_C.:E05TOU  was found in the system file and is referenced.
      No diagnostics issued in procedure VYI$EXIT.

   Procedure VYI$EXIT requires 48 words for executable code.
   Procedure VYI$EXIT requires 6 words of local(AUTO) storage.

    No errors detected in file VYI$INIT.:E05TSI    .

PL6.E3A0      #003=VYI$EXIT File=VYI$INIT.:E05TSI                                WED 07/30/97 08:55 Page:68

 Object Unit name= VYI$EXIT                                   File name= VYI$INIT.:E05TOU
 UTS= JUL 30 '97 08:55:28.84 WED                              Compiler= PL-6/E31         Sev=      00
 SharedLib= :SHARED_SYSTEM                                    Alt SharedLib=


    ****  Control sections  ****

 Sect   Type Bound  Init  Size OctSiz  Section name(segment info)
    0   DCB   even  none     0      0  M$UC
    1   DCB   even  none     0      0  M$LO
    2   DCB   even  none     0      0  M$DO
    3  RoData even  UTS     60     74  VYI$EXIT
    4   Data  even  none     6      6  VYI$EXIT
    5   Proc  even  none    48     60  VYI$EXIT
    6  RoData even  none     1      1  VYI$EXIT

    ****  Entry defs  ****

                              Check   Calling
                             calling  sequence
  Sect OctLoc Primary Altret sequence   type   Parms  Name
     5      0   yes            yes      Std        0  VYI$EXIT
     5     21                  yes      Std        0  VYI$ERR

  ****  Entry refs  ****

         Check        Calling
        calling       sequence
Altret sequence SRef   type   Args  Name
                       nStd      0 X66_AUTO_0
                       nStd      0 X66_ARET
PL6.E3A0      #003=VYI$EXIT File=VYI$INIT.:E05TSI                                WED 07/30/97 08:55 Page:69

  ****  Data refs  ****

  Flags:  r = read only, s = secondary
Flgs Name                             Flgs Name                             Flgs Name
     M$UC                                  VY_ERRORS                             VY_ERR_SEV
     VY_PAR_UNWIND                         M$LO                                  M$DO

  ****  Segment refs  ****

  Flags:  r = read only, s = secondary
Flgs Name                             Flgs Name                             Flgs Name
     ISSID                                 NULLSID                               ROSID
PL6.E3A0      #003=VYI$EXIT File=VYI$INIT.:E05TSI                                WED 07/30/97 08:55 Page:70


      208        1        /*T***********************************************************/
      209        2        /*T*                                                         */
      210        3        /*T* Copyright (c) Bull HN Information Systems Inc., 1997    */
      211        4        /*T*                                                         */
      212        5        /*T***********************************************************/
      213        6
      214        7        VYI$EXIT: PROC;

      7  5 000000   000000 700200 xent  VYI$EXIT     TSX0  ! X66_AUTO_0
         5 000001   000006 000000                    ZERO    6,0

      215        8
      216        9        %INCLUDE VY_INC_C ;
      217     9185
      218     9186    1   DCL M$LO DCB;
      219     9187    1   DCL M$DO DCB;
      220     9188
      221     9189        %F$DCB ( DCBN = B$DCB, STCLASS = BASED );
      222     9246
      223     9247        %FPT_CLOSE ( FPTN = CLOSE_M$LO,
      224     9248         STCLASS = CONSTANT,
      225     9249         DCB = M$LO,
      226     9250         DISP = SAVE );
      227     9292
      228     9293        %FPT_CLOSE ( FPTN = CLOSE_M$DO,
      229     9294         STCLASS = CONSTANT,
      230     9295         DCB = M$DO,
      231     9296         DISP = SAVE );
      232     9338
      233     9339        %FPT_EXIT ( FPTN = FPT_EXIT,
      234     9340         STCLASS = STATIC,
      235     9341         STEPCC = 0 ) ;
      236     9356
      237     9357    1       CALL CLOSE;

   9357  5 000002   000030 701000 5                  TSX1    CLOSE
PL6.E3A0      #003=VYI$EXIT File=VYI$INIT.:E05TSI                                WED 07/30/97 08:55 Page:71
         5 000003   000000 011000                    NOP     0

      238     9358    1       IF VY_ERR_SEV > 1 THEN

   9358  5 000004   000000 235000 xsym               LDA     VY_ERR_SEV
         5 000005   000002 115007                    CMPA    2,DL
         5 000006   000015 602000 5                  TNC     s:9360

      239     9359    1           FPT_EXIT.V.STEPCC# = ( ( ( VY_ERR_SEV + 2 ) / 2 ) * 2 ) ;

   9359  5 000007   000000 236000 xsym               LDQ     VY_ERR_SEV
         5 000010   000002 036007                    ADLQ    2,DL
         5 000011   000001 772000                    QRL     1
         5 000012   000001 736000                    QLS     1
         5 000013   000033 736000                    QLS     27
         5 000014   000004 552040 4                  STBQ    FPT_EXIT+4,'40'O

      240     9360    1       CALL M$EXIT ( FPT_EXIT ) ;

   9360  5 000015   000000 630400 4                  EPPR0   FPT_EXIT
         5 000016   000001 713400                    CLIMB   exit
         5 000017   400400 401760                    pmme    nvectors=2
         5 000020   000023 710000 5                  TRA     s:9364

      241     9361
      242     9362    1   VYI$ERR: ENTRY;

   9362  5 000021   000000 700200 xent  VYI$ERR      TSX0  ! X66_AUTO_0
         5 000022   000006 000000                    ZERO    6,0

      243     9363
      244     9364    1       CALL CLOSE;

   9364  5 000023   000030 701000 5                  TSX1    CLOSE
         5 000024   000000 011000                    NOP     0

      245     9365    1       CALL M$ERR;
PL6.E3A0      #003=VYI$EXIT File=VYI$INIT.:E05TSI                                WED 07/30/97 08:55 Page:72

   9365  5 000025   000002 713400                    CLIMB   err
         5 000026   000000 401760                    pmme    nvectors=0
         5 000027   000057 710000 5                  TRA     s:9375

      246     9366
      247     9367    1   CLOSE: PROC;

   9367  5 000030   200004 741300       CLOSE        STX1  ! 4,,AUTO

      248     9368
      249     9369    2       IF DCBADDR(DCBNUM(M$LO))->B$DCB.FCD# THEN

   9369  5 000031   000000 236007 xsym               LDQ     M$LO,DL
         5 000032   000000 470400 6                  LDP0    0
         5 000033   000000 471500                    LDP1    0,,PR0
         5 000034   100000 473506                    LDP3    0,QL,PR1
         5 000035   300031 236100                    LDQ     25,,PR3
         5 000036   020000 316007                    CANQ    8192,DL
         5 000037   000043 600000 5                  TZE     s:9371

      250     9370    2           CALL M$CLOSE ( CLOSE_M$LO );

   9370  5 000040   000000 630400 3                  EPPR0   CLOSE_M$LO
         5 000041   050001 713400                    CLIMB   close
         5 000042   406000 401760                    pmme    nvectors=13

      251     9371    2       IF DCBADDR(DCBNUM(M$DO))->B$DCB.FCD# THEN

   9371  5 000043   000000 236007 xsym               LDQ     M$DO,DL
         5 000044   000000 470400 6                  LDP0    0
         5 000045   000000 471500                    LDP1    0,,PR0
         5 000046   100000 473506                    LDP3    0,QL,PR1
         5 000047   300031 236100                    LDQ     25,,PR3
         5 000050   020000 316007                    CANQ    8192,DL
         5 000051   000055 600000 5                  TZE     s:9374

PL6.E3A0      #003=VYI$EXIT File=VYI$INIT.:E05TSI                                WED 07/30/97 08:55 Page:73
      252     9372    2           CALL M$CLOSE ( CLOSE_M$DO );

   9372  5 000052   000036 630400 3                  EPPR0   CLOSE_M$DO
         5 000053   050001 713400                    CLIMB   close
         5 000054   406000 401760                    pmme    nvectors=13

      253     9373
      254     9374    2   END CLOSE;

   9374  5 000055   200004 221300                    LDX1  ! 4,,AUTO
         5 000056   000001 702211                    TSX2  ! 1,X1

      255     9375    1   END VYI$EXIT;

   9375  5 000057   000000 702200 xent               TSX2  ! X66_ARET

PL6.E3A0      #003=VYI$EXIT File=VYI$INIT.:E05TSI                                WED 07/30/97 08:55 Page:74
--  Include file information  --

   B$OBJECT_C.:E05TOU  is referenced.
   VY_DCB_R.:E05TOU  cannot be made into a system file and is referenced.
   VY_DATA_R.:E05TOU  cannot be made into a system file and is referenced.
   XU_MACRO_C.:E05TOU  is referenced.
   VY_FIXED_R.:E05TOU  cannot be made into a system file and is referenced.
   CP_6.:E05TOU  cannot be made into a system file and is referenced.
   VY_MACRO_C.:E05TOU  is referenced.
   VY_PERR_C.:E05TOU  is referenced.
   VY_SUBS_C.:E05TOU  is referenced.
   VY_INC_NO_C.:E05TOU  is referenced.
   VY_SWITCH_C.:E05TOU  is referenced.
   VY_INC_C.:E05TOU  is referenced.
   B$JIT_C.:E05TOU  was found in the system file and is never referenced.
   CP_6_C.:E05TOU  was found in the system file and is referenced.
      No diagnostics issued in procedure VYI$EXIT.
PL6.E3A0      #003=VYI$EXIT File=VYI$INIT.:E05TSI                                WED 07/30/97 08:55 Page:75

 **** Variables and constants ****

  ****  Section 003 RoData VYI$EXIT

  ****  Scalars and arrays  ****
OctLoc.c.b A Datatyp(siz) R M Lvl/name                 OctLoc.c.b A Datatyp(siz) R M Lvl/name

    36-0-0/d STRC(1080)  r     1 CLOSE_M$DO                 0-0-0/d STRC(1080)  r     1 CLOSE_M$LO

  ****  Section 004  Data  VYI$EXIT

  ****  Scalars and arrays  ****
OctLoc.c.b A Datatyp(siz) R M Lvl/name                 OctLoc.c.b A Datatyp(siz) R M Lvl/name

     0-0-0/d STRC(216)   r     1 FPT_EXIT

  ****  SYMREF variables  ****

  ****  Scalars and arrays  ****
OctLoc.c.b A Datatyp(siz) R M Lvl/name                 OctLoc.c.b A Datatyp(siz) R M Lvl/name

     0-0-0/w UBIN        r     1 VY_ERR_SEV

  ****  BASED and DCB variables  ****

  ****  Scalars and arrays  ****
OctLoc.c.b A Datatyp(siz) R M Lvl/name                 OctLoc.c.b A Datatyp(siz) R M Lvl/name

     0-0-0/d ASTR(3528)  r     1 B$DCB                      0-0-0N  NULL        r     1 M$DO
     0-0-0N  NULL        r     1 M$LO


   Procedure VYI$EXIT requires 48 words for executable code.
   Procedure VYI$EXIT requires 6 words of local(AUTO) storage.
PL6.E3A0      #003=VYI$EXIT File=VYI$INIT.:E05TSI                                WED 07/30/97 08:55 Page:76

    No errors detected in file VYI$INIT.:E05TSI    .
PL6.E3A0      #003=VYI$EXIT File=VYI$INIT.:E05TSI                                WED 07/30/97 08:55 Page:77
          *** CROSS REFERENCE LISTING ***
**     DENOTES     IDENTIFIER DEFINITION
<<                 IDENTIFIER'S VALUE SET
>>                 IDENTIFIER'S VALUE USED
<>                 IDENTIFIER SET AND/OR USED
--                 IDENTIFIER REFERENCED
PL6.E3A0      #003=VYI$EXIT File=VYI$INIT.:E05TSI                                WED 07/30/97 08:55 Page:78
          MINI XREF LISTING

B$DCB.ACTPOS
      9222**DCL      9222--REDEF
B$DCB.ARS#
      9196**DCL      9196--REDEF
B$DCB.ATTR
      9215**DCL      9216--REDEF
B$DCB.BORROW
      9230**DCL      9230--REDEF    9230--REDEF    9230--REDEF
B$DCB.DCBNAME.L
      9244**DCL      9244--IMP-SIZ
B$DCB.EOMCHAR#
      9200**DCL      9200--REDEF
B$DCB.FCD#
      9209**DCL      9369>>IF       9371>>IF
B$DCB.FLDID
      9225**DCL      9225--REDEF
B$DCB.FORM$
      9219**DCL      9219--REDEF
B$DCB.FSECT
      9235**DCL      9235--REDEF
B$DCB.FSN#
      9212**DCL      9212--REDEF    9212--REDEF    9213--REDEF
B$DCB.HEADER$
      9218**DCL      9218--REDEF
B$DCB.IXTNSIZE#
      9216**DCL      9216--REDEF
B$DCB.LASTSTA$
      9205**DCL      9205--REDEF
B$DCB.LVL
      9231**DCL      9231--REDEF
B$DCB.NAME#.C
      9206**DCL      9206--REDEF
PL6.E3A0      #003=VYI$EXIT File=VYI$INIT.:E05TSI                                WED 07/30/97 08:55 Page:79
B$DCB.NOEOF
      9228**DCL      9228--REDEF
B$DCB.NRECS#
      9217**DCL      9217--REDEF
B$DCB.NRECX
      9236**DCL      9236--REDEF
B$DCB.OHDR
      9228**DCL      9228--REDEF
B$DCB.ORG#
      9211**DCL      9211--REDEF
B$DCB.PRECNO
      9234**DCL      9234--REDEF
B$DCB.RCSZ
      9240**DCL      9240--REDEF
B$DCB.RES#
      9207**DCL      9207--REDEF
B$DCB.SETX
      9219**DCL      9219--REDEF
B$DCB.TAB$
      9219**DCL      9219--REDEF
B$DCB.TDA
      9233**DCL      9234--REDEF
B$DCB.WSN#
      9207**DCL      9207--REDEF
CLOSE
      9367**PROC     9357--CALL     9364--CALL
CLOSE_M$DO
      9319**DCL      9372<>CALL
CLOSE_M$DO.SN_
      9319**DCL      9319--REDEF
CLOSE_M$DO.UTL_
      9320**DCL      9320--REDEF
CLOSE_M$DO.V
      9324**DCL      9319--DCLINIT
CLOSE_M$DO.V.EXPIRE#
      9334**DCL      9334--REDEF
PL6.E3A0      #003=VYI$EXIT File=VYI$INIT.:E05TSI                                WED 07/30/97 08:55 Page:80
CLOSE_M$DO.V.TYPE#
      9332**DCL      9332--REDEF
CLOSE_M$DO.V.XTNSIZE#
      9329**DCL      9329--REDEF    9331--REDEF
CLOSE_M$LO
      9273**DCL      9370<>CALL
CLOSE_M$LO.SN_
      9273**DCL      9273--REDEF
CLOSE_M$LO.UTL_
      9274**DCL      9274--REDEF
CLOSE_M$LO.V
      9278**DCL      9273--DCLINIT
CLOSE_M$LO.V.EXPIRE#
      9288**DCL      9288--REDEF
CLOSE_M$LO.V.TYPE#
      9286**DCL      9286--REDEF
CLOSE_M$LO.V.XTNSIZE#
      9283**DCL      9283--REDEF    9285--REDEF
FPT_EXIT
      9352**DCL      9360<>CALL
FPT_EXIT.V
      9352**DCL      9352--DCLINIT
FPT_EXIT.V.STEPCC#
      9353**DCL      9353--REDEF    9359<<ASSIGN
M$CLOSE
      1606**DCL-ENT  9370--CALL     9372--CALL
M$DO
      9187**DCL      9371--IF
M$ERR
      1618**DCL-ENT  9365--CALL
M$EXIT
      1618**DCL-ENT  9360--CALL
M$LO
      9186**DCL      9369--IF
VY_BIAS.A
      5385**DCL      5385--REDEF
PL6.E3A0      #003=VYI$EXIT File=VYI$INIT.:E05TSI                                WED 07/30/97 08:55 Page:81
VY_CBUF.CHARS_A
      5376**DCL      5376--REDEF
VY_EBUF.CHARS_A
      5677**DCL      5678--REDEF
VY_EFIELD1.CHARS
      5678**DCL      5678--REDEF
VY_EFIELD2.CHARS
      5679**DCL      5679--REDEF
VY_EFIELD3.CHARS
      5680**DCL      5680--REDEF
VY_ERRORS
      5381**DCL      5383--REDEF
VY_ERRORS.CONFLICT_A
      5382**DCL      5383--REDEF
VY_ERRORS.UNSAT_A
      5381**DCL      5382--REDEF
VY_ERR_SEV
      5384**DCL      9358>>IF       9359>>ASSIGN
VY_IMAGE_DATA.CPAGE#_A
      5269**DCL      5270--REDEF
VY_IMAGE_DATA.NODE_A$
      5281**DCL      5282--REDEF
VY_IMAGE_DATA.START_A$
      5273**DCL      5274--REDEF
VY_IMAGE_DATA.STOP_A$
      5277**DCL      5278--REDEF
VY_IMAGE_PROC.CPAGE#_A
      5292**DCL      5293--REDEF
VY_IMAGE_PROC.NODE_A$
      5304**DCL      5305--REDEF
VY_IMAGE_PROC.START_A$
      5296**DCL      5297--REDEF
VY_IMAGE_PROC.STOP_A$
      5300**DCL      5301--REDEF
VY_IMAGE_ROS.CPAGE#_A
      5315**DCL      5316--REDEF
PL6.E3A0      #003=VYI$EXIT File=VYI$INIT.:E05TSI                                WED 07/30/97 08:55 Page:82
VY_IMAGE_ROS.NODE_A$
      5327**DCL      5328--REDEF
VY_IMAGE_ROS.START_A$
      5319**DCL      5320--REDEF
VY_IMAGE_ROS.STOP_A$
      5323**DCL      5324--REDEF
VY_MAP_HDR.CHARS
      5742**DCL      5743--REDEF    5743--REDEF
VY_MAP_LIT_LO_FPT_WRITE.STATION_
      5071**DCL      5071--REDEF
VY_MAP_LIT_LO_FPT_WRITE.V.DVBYTE.VFC#
      5078**DCL      5078--REDEF
VY_MAP_LO_FPT_WRITE.STATION_
      5040**DCL      5040--REDEF
VY_MAP_LO_FPT_WRITE.V.DVBYTE.VFC#
      5047**DCL      5047--REDEF
VY_MBUF.CHARS
      5741**DCL      5742--REDEF    5742--REDEF
VY_M_VECTOR.F
      5110**DCL      5114--REDEF
VY_M_VECTOR_DP.F
      5145**DCL      5149--REDEF
VY_O.DUPL_ATTCH
      5523**DCL      5527--REDEF
VY_O.MAP_ATTCH
      5511**DCL      5522--REDEF
VY_O.PRIMARY_OPTION
      5505**DCL      5510--REDEF
VY_O.SEV_ATTCH
      5528**DCL      5530--REDEF
VY_OD.DUPL_ATTCH
      5667**DCL      5671--REDEF
VY_OD.MAP_ATTCH
      5655**DCL      5666--REDEF
VY_OD.PRIMARY_OPTION
      5649**DCL      5654--REDEF
PL6.E3A0      #003=VYI$EXIT File=VYI$INIT.:E05TSI                                WED 07/30/97 08:55 Page:83
VY_OD.SEV_ATTCH
      5672**DCL      5674--REDEF
VY_OL_KEY_BUF.FORM0
      5178**DCL      5181--REDEF    5188--REDEF
VY_OU_HEAD.REC_A
      5366**DCL      5367--REDEF
VY_O_KEY_BUF.FORM0
      5155**DCL      5158--REDEF    5165--REDEF
VY_O_KEY_BUF_L.FORM0
      5201**DCL      5204--REDEF    5211--REDEF
VY_PAR_UNWIND
      5736**DCL      5736--REDEF
VY_PASS2_REF.OU.L_START
      5703**DCL      5704--REDEF
VY_PASS2_REF.OU.L_STOP
      5704**DCL      5705--REDEF
VY_PASS2_REF.OU.MAX
      5702**DCL      5703--REDEF
VY_PASS2_REF.OU.SIZE
      5705**DCL      5706--REDEF
VY_PASS2_REF.SAT.COUNT
      5709**DCL      5710--REDEF
VY_PASS2_REF.SAT.ENT_SIZE
      5711**DCL      5712--REDEF
VY_PASS2_REF.SAT.L_START
      5707**DCL      5708--REDEF
VY_PASS2_REF.SAT.L_STOP
      5708**DCL      5709--REDEF
VY_PASS2_REF.SAT.MAX
      5706**DCL      5707--REDEF
VY_PASS2_REF.UNSAT.L_START
      5713**DCL      5714--REDEF
VY_PASS2_REF.UNSAT.L_STOP
      5714**DCL      5715--REDEF
VY_PASS2_REF.UNSAT.L_WHERE
      5715**DCL      5716--REDEF
PL6.E3A0      #003=VYI$EXIT File=VYI$INIT.:E05TSI                                WED 07/30/97 08:55 Page:84
VY_PASS2_REF.UNSAT.MAX
      5712**DCL      5713--REDEF
VY_PASS2_REF.UNSAT.PAGE#
      5717**DCL      5718--REDEF
VY_PASS2_REF.UNSAT.SIZE
      5716**DCL      5717--REDEF
VY_PROGRAM_BIAS.A
      5384**DCL      5384--REDEF
VY_RU_HEAD.DATA_SEGMENT
      5352**DCL      5352--REDEF
VY_RU_HEAD.L
      5348**DCL      5349--REDEF
VY_RU_HEAD.MAP_BITS
      5349**DCL      5351--REDEF
VY_RU_HEAD.PBIT
      5345**DCL      5345--REDEF
VY_RU_HEAD_BUF.DATA_SEGMENT
      5362**DCL      5362--REDEF
VY_RU_HEAD_BUF.L
      5357**DCL      5358--REDEF
VY_RU_HEAD_BUF.MAP_BITS
      5359**DCL      5361--REDEF
VY_RU_HEAD_BUF.PBIT
      5354**DCL      5355--REDEF
VY_R_KEY_BUF.FORM0
      5224**DCL      5228--REDEF    5234--REDEF
VY_SI_KEY_BUF.KEY
      5732**DCL      5732--REDEF
VY_SPC.B$.MINE
      5727**DCL      5728--REDEF
VY_SPC.B$.NAME
      5724**DCL      5724--REDEF
VY_SPC.B$.SKIP
      5726**DCL      5727--REDEF
VY_SPC.B$.VALUE
      5725**DCL      5726--REDEF
PL6.E3A0      #003=VYI$EXIT File=VYI$INIT.:E05TSI                                WED 07/30/97 08:55 Page:85
VY_SPC.SEG.NAME
      5719**DCL      5720--REDEF
VY_SPC.SEG.VALUE
      5720**DCL      5721--REDEF
VY_TSX0_OVERLAY.H
      5691**DCL      5692--REDEF
