VERSION E05

PL6.E3A0      #001=VYK$KEY File=VYK$KEY.:E05TSI                                  WED 07/30/97 08:56 Page:1
        1        1        /*T***********************************************************/
        2        2        /*T*                                                         */
        3        3        /*T* Copyright (c) Bull HN Information Systems Inc., 1997    */
        4        4        /*T*                                                         */
        5        5        /*T***********************************************************/
        6        6        /*X* DMR,PLM=6,IND=4,CSU=2,EXM=0,ECU=2,MOC,DCI=4,CRT=4,CTI=8,CCC */
        7        7        /*D*  NAME:       VYK$KEY
        8        8              DESCRIPTION:
        9        9        PARM: 1         2         3         4         5         6
       10       10
       11       11              FTYPE     RTYPE     SECT#     PAGE#     VY_KEY_USEPREV VY_KEY_NAME$
       12       12                                  NODE#     OFFSET
       13       13
       14       14              FTYPE     FILE TYPE      RTYPE     RECORD TYPE
       15       15
       16       16                0       OBJECT          -2       TREE
       17       17                                        -1       HEAD
       18       18                                       0-9,      FORM1
       19       19                                       11-15
       20       20                                       11-15
       21       21                                         10      FORM2
       22       22                                                 PREVIOUS IF VY_KEY_USEPREV = @YES
       23       23
       24       24                1       RUN             -1       HEAD
       25       25                                       0-10      FORM1
       26       26                                       11-15     FORM2
       27       27
       28       28                2       LIBRARY        0-9,      FORM1
       29       29                                       11-15
       30       30                                         10      FORM2
       31       31                                                REFERENCE PROBE IF VY_KEY_NAME$ ~= ADDR(NIL)
       32       32
       33       33        */
       34       34        VYK$KEY:
       35       35              PROC( FTYPE, RTYPE, SECT#, PAGE# );
       36       36        %INCLUDE VY_INC_C;
       37     9212        %SET LISTMAC='1'B;
PL6.E3A0      #001=VYK$KEY File=VYK$KEY.:E05TSI                                  WED 07/30/97 08:56 Page:2
       38     9213        %SET LISTSUB='1'B;
       39     9214        %SET LISTEXP='1'B;
       40     9215        %T$H;
              9216        %LSET LISTDIR='0'B;

              9226    1   /*******************************************************************************
              9227    1   *                                                                              *
              9228    1   *                          T$H                                                 *
              9229    1   *                                                                              *
              9230    1   *******************************************************************************/

              9235    1   DCL 1 T$H           BASED     ALIGNED,  /* Text half-word                     */
              9236    1         2 COUNT        UBIN(18) UNAL,
              9237    1         2 CHARS        CHAR( T$H.COUNT )   UNAL;
       41     9240        %BANNER( ARG=SUBS );
              9241        %LSET LISTDIR='0'B;

              9248    1   /*******************************************************************************
              9249    1   *                                                                              *
              9250    1   *                          SUBS                                                 *
              9251    1   *                                                                              *
              9252    1   *******************************************************************************/

       42     9256        %B$RECORDSUBS;
              9257        %EQU TYPHEAD=0 ;
              9258        %EQU TYPDNAM=1 ;
              9259        %EQU TYPRNAM=2 ;
              9260        %EQU TYPSECT=3 ;
              9261        %EQU TYPEDEF=4 ;
              9262        %EQU TYPEREF=5 ;
              9263        %EQU TYPSDEF=6 ;
              9264        %EQU TYPSREF=7 ;
              9265        %EQU TYPSEGDEF=8 ;
              9266        %EQU TYPSEGREF=9 ;
              9267        %EQU TYPPROG=10 ;
              9268        %EQU SUBTYPPROG=0 ;
              9269        %EQU SUBTYPREL=1 ;
PL6.E3A0      #001=VYK$KEY File=VYK$KEY.:E05TSI                                  WED 07/30/97 08:56 Page:3
              9270        %EQU TYPLOGBLK=11 ;
              9271        %EQU TYPINTNTRY=12 ;
              9272        %EQU TYPEXST=13 ;
              9273        %EQU TYPVREBL=14 ;
              9274        %EQU TYPDBGNAM=15 ;
              9275        %EQU TYPLV1LB=16 ;
              9276        %EQU TYPLV1=17 ;
              9277        %EQU TYPDATASEG=18 ;
              9278        %EQU TYPRUM=20 ;
              9279        %EQU TYPBIRTH=21 ;
              9280        %EQU TYPPLOVER=22 ;
              9281        %EQU TYPCOMPID=23 ;
              9282        %EQU TYPROS=30 ;
       43     9284        %P;
              9285        %LSET LISTDIR='0'B;

              9292    1   /*******************************************************************************
              9293    1   *                                                                              *
              9294    1   *                          PARAMETERS                                              *
              9295    1   *                                                                              *
              9296    1   *******************************************************************************/

       44     9300    1   DCL FTYPE           SBIN WORD ALIGNED;
       45     9301    1   DCL RTYPE           SBIN WORD ALIGNED;
       46     9302    1   DCL SECT#           UBIN(36)     ALIGNED;
       47     9303    1   DCL NODE# REDEF SECT#    UBIN(36)  ALIGNED;
       48     9304    1   DCL PAGE#           UBIN(36)     ALIGNED;
       49     9305    1   DCL OFFSET REDEF PAGE#   UBIN(36)  ALIGNED;
       50     9306        %E;
              9307        %LSET LISTDIR='0'B;

              9314    1   /*******************************************************************************
              9315    1   *                                                                              *
              9316    1   *                          ENTRY                                                 *
              9317    1   *                                                                              *
              9318    1   *******************************************************************************/

PL6.E3A0      #001=VYK$KEY File=VYK$KEY.:E05TSI                                  WED 07/30/97 08:56 Page:4
       51     9322        %ENTRIES;
              9323    1   DCL VYE$ERROR       ENTRY(4);
              9324    1   DCL VYE$ERR         ENTRY(3);
              9325    1   DCL VYE$MERC        ENTRY;
              9326    1   DCL VYE$ERRMSG      ENTRY(1);
              9327    1   DCL VYR$READ        ENTRY( 3 ) ALTRET;
              9328    1   DCL VYW$WRITE       ENTRY( 3 ) ALTRET;
              9329    1   DCL VYW$WRITE_DO    ENTRY( 2 ) ALTRET;
              9330    1   DCL VYD$B2C         ENTRY( 5 );
              9331    1   DCL VYD$C2B         ENTRY( 3 );
              9332    1   DCL VYA$GET         ENTRY( 3 );
              9333    1   DCL VYF$FREE        ENTRY( 3 );
              9334    1   DCL VYQ$SORT        ENTRY( 7 );
              9335    1   DCL VYY$YESNO       ENTRY( 1 );
       52     9337        %PTR;
              9338        %LSET LISTDIR='0'B;

              9345    1   /*******************************************************************************
              9346    1   *                                                                              *
              9347    1   *                          PTR                                                 *
              9348    1   *                                                                              *
              9349    1   *******************************************************************************/

       53     9353    1   DCL K$              PTR  ALIGNED   STATIC/*AUTO*/;
       54     9354        %S;
              9355        %LSET LISTDIR='0'B;

              9362    1   /*******************************************************************************
              9363    1   *                                                                              *
              9364    1   *                          SBIN                                                 *
              9365    1   *                                                                              *
              9366    1   *******************************************************************************/

       55     9370    1   DCL R               SBIN WORD ALIGNED   STATIC/*AUTO*/;
       56     9371        /**/
       57     9372        /**/
       58     9373        /**/
PL6.E3A0      #001=VYK$KEY File=VYK$KEY.:E05TSI                                  WED 07/30/97 08:56 Page:5
       59     9374        %LIST;
       60     9375        %O_KEY_BUF( KEYBUF=K$B,
       61     9376                    STCLASS="BASED(K$)",
       62     9377                    INT="");
              9378    1   DCL 1 K$B ALIGNED BASED(K$) ,
              9379    1          2 FORM0 ,
              9380    1           3 COUNT       UBIN( 9)  UNAL,
              9381    1           3 CHARS       CHAR(512) UNAL,
              9382    1         2 FORM1        REDEF     FORM0,
              9383    1           3 COUNT       UBIN( 9)  UNAL,
              9384    1           3 O777        UBIN( 9)  UNAL,   /* <- '777'O                          */
              9385    1           3 UTS         UBIN(36)  UNAL,
              9386    1           3 REC_TYPE    UBIN( 9)  UNAL,
              9387    1           3 PAGE#       UBIN( 9)  UNAL,
              9388    1           3 *           CHAR(505),
              9389    1         2 FORM2        REDEF     FORM0,
              9390    1           3 COUNT       UBIN( 9)  UNAL,
              9391    1           3 O777        UBIN( 9)  UNAL,   /* <- '777'O                          */
              9392    1           3 UTS         UBIN(36)  UNAL,
              9393    1           3 D10         UBIN( 9)  UNAL,   /* <- 10                              */
              9394    1           3 SECT#       UBIN(18)  UNAL,
              9395    1           3 OFFSET      UBIN(18)  UNAL,
              9396    1           3 STYPE       UBIN( 9)  UNAL,
              9397    1           3 SEQUENCE    UBIN( 9)  UNAL,
              9398    1           3 *           CHAR(500) ;
       63     9400        %PLIST;
       64     9401        %EJECT;
PL6.E3A0      #001=VYK$KEY File=VYK$KEY.:E05TSI                                  WED 07/30/97 08:56 Page:6
       65     9402    1         R = RTYPE;
       66     9403    2         DO CASE(FTYPE);
       67     9404    2           CASE(0/*@OF*/);
       68     9405    2             K$=ADDR(VY_O_KEY_BUF);
       69     9406    3             IF VY_KEY_USEPREV = 1/*@YES*/ THEN DO;
       70     9407    3                 K$B.FORM0.COUNT = VY_O_KEY_BUF_L.FORM0.COUNT;
       71     9408    3                 K$B.FORM0.CHARS = VY_O_KEY_BUF_L.FORM0.CHARS;
       72     9409    3                 RETURN;
       73     9410    3                END;
       74     9411    3             IF R < 0 THEN DO;
       75     9412    3                 R = -R;
       76     9413    4                 DO CASE( R );
       77     9414    4                   CASE(1);                /* Head */
       78     9415    4                     K$B.FORM0.COUNT = SIZEC(VY_O_KEY_HEAD );
       79     9416    4                     K$B.FORM0.CHARS = VY_O_KEY_HEAD;
       80     9417    4                   CASE(2);                /* Tree */
       81     9418    4                     K$B.FORM0.COUNT = SIZEC(VY_O_KEY_TREE );
       82     9419    4                     K$B.FORM0.CHARS = VY_O_KEY_TREE;
       83     9420    4                   END;                    /* Do case */
       84     9421    3                 RETURN;                   /* If R<0 */
       85     9422    3                END;                       /* If R<0 */
       86     9423        /* Here => did not want previous key */
       87     9424    2   OBJECT:
       88     9425    2             K$B.FORM1.O777 = BITBIN('777'O);
       89     9426    2             K$B.FORM1.UTS  = VY_OU_HEAD.UTS;
       90     9427    2             K$B.FORM1.REC_TYPE = R;
       91     9428    2             IF ( R >= 1 AND R <= 9 )
       92     9429    2                     OR
       93     9430    3                     ( R >= 11 AND R <= 15 ) THEN DO;
       94     9431    3                 K$B.FORM1.COUNT = 7;
       95     9432    3                 K$B.FORM1.PAGE# = PAGE#;
       96     9433    3                 RETURN;
       97     9434    3                END;
       98     9435    3             ELSE IF R = 10 THEN DO;
       99     9436    3                     K$B.FORM2.COUNT = 11;
      100     9437    3                     K$B.FORM2.SECT# = SECT#;
      101     9438    3                     K$B.FORM2.OFFSET = OFFSET;
PL6.E3A0      #001=VYK$KEY File=VYK$KEY.:E05TSI                                  WED 07/30/97 08:56 Page:7
      102     9439    3                     K$B.FORM2.STYPE = 0;
      103     9440    3                     K$B.FORM2.SEQUENCE = 0;
      104     9441    3                     RETURN;
      105     9442    3                    END;
      106     9443    2           CASE(2/*@LF*/);
      107     9444    2             K$ = ADDR( VY_O_KEY_BUF );
      108     9445    2             IF VY_KEY_NAME$ = ADDR(NIL) THEN GOTO OBJECT;
      109     9446        /* Here => library searching */
      110     9447    2             K$B.FORM0.COUNT = VY_KEY_NAME$ -> T$H.COUNT;
      111     9448    2             K$B.FORM0.CHARS = VY_KEY_NAME$ -> T$H.CHARS;
      112     9449    2             RETURN;
      113     9450        %EJECT;
PL6.E3A0      #001=VYK$KEY File=VYK$KEY.:E05TSI                                  WED 07/30/97 08:56 Page:8
      114     9451        /*
      115     9452              Run file
      116     9453        */
      117     9454    2           CASE(1/*@RF*/);
      118     9455    2             K$ = ADDR( VY_R_KEY_BUF );
      119     9456    3             IF R < 0 THEN DO;
      120     9457    3                 R = -R;
      121     9458    4                 DO CASE(R);
      122     9459    4                   CASE(1);                /*Head*/
      123     9460    4                     VY_R_KEY_BUF.FORM0.COUNT = SIZEC(VY_R_KEY_HEAD);
      124     9461    4                     VY_R_KEY_BUF.FORM0.CHARS = VY_R_KEY_HEAD;
      125     9462    4                   END;                    /*Do case */
      126     9463    3                 RETURN;
      127     9464    3                END;                       /* If R<0 */
      128     9465        /* Here => not head */
      129     9466    2             ELSE GOTO OBJECT;
      130     9467    2           END;                            /*Do case(ftype*/
      131     9468    1   END VYK$KEY;

PL6.E3A0      #001=VYK$KEY File=VYK$KEY.:E05TSI                                  WED 07/30/97 08:56 Page:9
--  Include file information  --

   B$OBJECT_C.:E05TOU  is referenced.
   VY_DCB_R.:E05TOU  cannot be made into a system file and is referenced.
   VY_DATA_R.:E05TOU  cannot be made into a system file and is referenced.
   XU_MACRO_C.:E05TOU  is referenced.
   VY_FIXED_R.:E05TOU  cannot be made into a system file and is referenced.
   CP_6.:E05TOU  cannot be made into a system file and is referenced.
   VY_MACRO_C.:E05TOU  is referenced.
   VY_PERR_C.:E05TOU  is referenced.
   VY_SUBS_C.:E05TOU  is referenced.
   VY_INC_NO_C.:E05TOU  is referenced.
   VY_SWITCH_C.:E05TOU  is referenced.
   VY_INC_C.:E05TOU  is referenced.
   B$JIT_C.:E05TOU  was found in the system file and is never referenced.
   CP_6_C.:E05TOU  was found in the system file and is referenced.
      No diagnostics issued in procedure VYK$KEY.

   Procedure VYK$KEY requires 122 words for executable code.
   Procedure VYK$KEY requires 8 words of local(AUTO) storage.

    No errors detected in file VYK$KEY.:E05TSI    .

PL6.E3A0      #001=VYK$KEY File=VYK$KEY.:E05TSI                                  WED 07/30/97 08:56 Page:10

 Object Unit name= VYK$KEY                                    File name= VYK$KEY.:E05TOU
 UTS= JUL 30 '97 08:56:15.68 WED                              Compiler= PL-6/E31         Sev=      00
 SharedLib= :SHARED_SYSTEM                                    Alt SharedLib=


    ****  Control sections  ****

 Sect   Type Bound  Init  Size OctSiz  Section name(segment info)
    0   DCB   even  none     0      0  M$UC
    1   Data  even  none     2      2  VYK$KEY
    2   Proc  even  none   122    172  VYK$KEY
    3  RoData even  none     2      2  VYK$KEY

    ****  Entry defs  ****

                              Check   Calling
                             calling  sequence
  Sect OctLoc Primary Altret sequence   type   Parms  Name
     2      0   yes            yes      Std        4  VYK$KEY

  ****  Entry refs  ****

         Check        Calling
        calling       sequence
Altret sequence SRef   type   Args  Name
                       nStd      0 X66_AUTO_4
                       nStd      0 X66_ARET
                       Std       0 B_CONSPOOL_D
PL6.E3A0      #001=VYK$KEY File=VYK$KEY.:E05TSI                                  WED 07/30/97 08:56 Page:11

  ****  Data refs  ****

  Flags:  r = read only, s = secondary
Flgs Name                             Flgs Name                             Flgs Name
     M$UC                                  VY_O_KEY_BUF                          VY_O_KEY_BUF_L
     VY_R_KEY_BUF                          VY_OU_HEAD                            VY_ERRORS
r    VY_O_KEY_HEAD                    r    VY_O_KEY_TREE                    r    VY_R_KEY_HEAD
     VY_KEY_USEPREV                        VY_KEY_NAME$                          VY_PAR_UNWIND
     B_VECTNIL

  ****  Segment refs  ****

  Flags:  r = read only, s = secondary
Flgs Name                             Flgs Name                             Flgs Name
     ISSID
PL6.E3A0      #001=VYK$KEY File=VYK$KEY.:E05TSI                                  WED 07/30/97 08:56 Page:12


        1        1        /*T***********************************************************/
        2        2        /*T*                                                         */
        3        3        /*T* Copyright (c) Bull HN Information Systems Inc., 1997    */
        4        4        /*T*                                                         */
        5        5        /*T***********************************************************/
        6        6        /*X* DMR,PLM=6,IND=4,CSU=2,EXM=0,ECU=2,MOC,DCI=4,CRT=4,CTI=8,CCC */
        7        7        /*D*  NAME:       VYK$KEY
        8        8              DESCRIPTION:
        9        9        PARM: 1         2         3         4         5         6
       10       10
       11       11              FTYPE     RTYPE     SECT#     PAGE#     VY_KEY_USEPREV VY_KEY_NAME$
       12       12                                  NODE#     OFFSET
       13       13
       14       14              FTYPE     FILE TYPE      RTYPE     RECORD TYPE
       15       15
       16       16                0       OBJECT          -2       TREE
       17       17                                        -1       HEAD
       18       18                                       0-9,      FORM1
       19       19                                       11-15
       20       20                                       11-15
       21       21                                         10      FORM2
       22       22                                                 PREVIOUS IF VY_KEY_USEPREV = @YES
       23       23
       24       24                1       RUN             -1       HEAD
       25       25                                       0-10      FORM1
       26       26                                       11-15     FORM2
       27       27
       28       28                2       LIBRARY        0-9,      FORM1
       29       29                                       11-15
       30       30                                         10      FORM2
       31       31                                               REFERENCE PROBE IF VY_KEY_NAME$ ~= ADDR(NIL)
       32       32
       33       33        */
       34       34        VYK$KEY:
       35       35              PROC( FTYPE, RTYPE, SECT#, PAGE# );

PL6.E3A0      #001=VYK$KEY File=VYK$KEY.:E05TSI                                  WED 07/30/97 08:56 Page:13
     35  2 000000   000000 700200 xent  VYK$KEY      TSX0  ! X66_AUTO_4
         2 000001   000010 000004                    ZERO    8,4

       36       36        %INCLUDE VY_INC_C;
       37     9212        %SET LISTMAC='1'B;
       38     9213        %SET LISTSUB='1'B;
       39     9214        %SET LISTEXP='1'B;
       40     9215        %T$H;
              9216        %LSET LISTDIR='0'B;

              9226    1   /*******************************************************************************
              9227    1   *                                                                              *
              9228    1   *                          T$H                                                 *
              9229    1   *                                                                              *
              9230    1   *******************************************************************************/

              9235    1   DCL 1 T$H           BASED     ALIGNED,  /* Text half-word                     */
              9236    1         2 COUNT        UBIN(18) UNAL,
              9237    1         2 CHARS        CHAR( T$H.COUNT )   UNAL;
       41     9240        %BANNER( ARG=SUBS );
              9241        %LSET LISTDIR='0'B;

              9248    1   /*******************************************************************************
              9249    1   *                                                                              *
              9250    1   *                          SUBS                                                 *
              9251    1   *                                                                              *
              9252    1   *******************************************************************************/

       42     9256        %B$RECORDSUBS;
              9257        %EQU TYPHEAD=0 ;
              9258        %EQU TYPDNAM=1 ;
              9259        %EQU TYPRNAM=2 ;
              9260        %EQU TYPSECT=3 ;
              9261        %EQU TYPEDEF=4 ;
              9262        %EQU TYPEREF=5 ;
              9263        %EQU TYPSDEF=6 ;
              9264        %EQU TYPSREF=7 ;
PL6.E3A0      #001=VYK$KEY File=VYK$KEY.:E05TSI                                  WED 07/30/97 08:56 Page:14
              9265        %EQU TYPSEGDEF=8 ;
              9266        %EQU TYPSEGREF=9 ;
              9267        %EQU TYPPROG=10 ;
              9268        %EQU SUBTYPPROG=0 ;
              9269        %EQU SUBTYPREL=1 ;
              9270        %EQU TYPLOGBLK=11 ;
              9271        %EQU TYPINTNTRY=12 ;
              9272        %EQU TYPEXST=13 ;
              9273        %EQU TYPVREBL=14 ;
              9274        %EQU TYPDBGNAM=15 ;
              9275        %EQU TYPLV1LB=16 ;
              9276        %EQU TYPLV1=17 ;
              9277        %EQU TYPDATASEG=18 ;
              9278        %EQU TYPRUM=20 ;
              9279        %EQU TYPBIRTH=21 ;
              9280        %EQU TYPPLOVER=22 ;
              9281        %EQU TYPCOMPID=23 ;
              9282        %EQU TYPROS=30 ;
       43     9284        %P;
              9285        %LSET LISTDIR='0'B;

              9292    1   /*******************************************************************************
              9293    1   *                                                                              *
              9294    1   *                          PARAMETERS                                             *
              9295    1   *                                                                              *
              9296    1   *******************************************************************************/

       44     9300    1   DCL FTYPE           SBIN WORD ALIGNED;
       45     9301    1   DCL RTYPE           SBIN WORD ALIGNED;
       46     9302    1   DCL SECT#           UBIN(36)     ALIGNED;
       47     9303    1   DCL NODE# REDEF SECT#    UBIN(36)  ALIGNED;
       48     9304    1   DCL PAGE#           UBIN(36)     ALIGNED;
       49     9305    1   DCL OFFSET REDEF PAGE#   UBIN(36)  ALIGNED;
       50     9306        %E;
              9307        %LSET LISTDIR='0'B;

              9314    1   /*******************************************************************************
PL6.E3A0      #001=VYK$KEY File=VYK$KEY.:E05TSI                                  WED 07/30/97 08:56 Page:15
              9315    1   *                                                                              *
              9316    1   *                          ENTRY                                                 *
              9317    1   *                                                                              *
              9318    1   *******************************************************************************/

       51     9322        %ENTRIES;
              9323    1   DCL VYE$ERROR       ENTRY(4);
              9324    1   DCL VYE$ERR         ENTRY(3);
              9325    1   DCL VYE$MERC        ENTRY;
              9326    1   DCL VYE$ERRMSG      ENTRY(1);
              9327    1   DCL VYR$READ        ENTRY( 3 ) ALTRET;
              9328    1   DCL VYW$WRITE       ENTRY( 3 ) ALTRET;
              9329    1   DCL VYW$WRITE_DO    ENTRY( 2 ) ALTRET;
              9330    1   DCL VYD$B2C         ENTRY( 5 );
              9331    1   DCL VYD$C2B         ENTRY( 3 );
              9332    1   DCL VYA$GET         ENTRY( 3 );
              9333    1   DCL VYF$FREE        ENTRY( 3 );
              9334    1   DCL VYQ$SORT        ENTRY( 7 );
              9335    1   DCL VYY$YESNO       ENTRY( 1 );
       52     9337        %PTR;
              9338        %LSET LISTDIR='0'B;

              9345    1   /*******************************************************************************
              9346    1   *                                                                              *
              9347    1   *                          PTR                                                 *
              9348    1   *                                                                              *
              9349    1   *******************************************************************************/

       53     9353    1   DCL K$              PTR  ALIGNED   STATIC/*AUTO*/;
       54     9354        %S;
              9355        %LSET LISTDIR='0'B;

              9362    1   /*******************************************************************************
              9363    1   *                                                                              *
              9364    1   *                          SBIN                                                 *
              9365    1   *                                                                              *
              9366    1   *******************************************************************************/
PL6.E3A0      #001=VYK$KEY File=VYK$KEY.:E05TSI                                  WED 07/30/97 08:56 Page:16

       55     9370    1   DCL R               SBIN WORD ALIGNED   STATIC/*AUTO*/;
       56     9371        /**/
       57     9372        /**/
       58     9373        /**/
       59     9374        %LIST;
       60     9375        %O_KEY_BUF( KEYBUF=K$B,
       61     9376                    STCLASS="BASED(K$)",
       62     9377                    INT="");
              9378    1   DCL 1 K$B ALIGNED BASED(K$) ,
              9379    1          2 FORM0 ,
              9380    1           3 COUNT       UBIN( 9)  UNAL,
              9381    1           3 CHARS       CHAR(512) UNAL,
              9382    1         2 FORM1        REDEF     FORM0,
              9383    1           3 COUNT       UBIN( 9)  UNAL,
              9384    1           3 O777        UBIN( 9)  UNAL,   /* <- '777'O                          */
              9385    1           3 UTS         UBIN(36)  UNAL,
              9386    1           3 REC_TYPE    UBIN( 9)  UNAL,
              9387    1           3 PAGE#       UBIN( 9)  UNAL,
              9388    1           3 *           CHAR(505),
              9389    1         2 FORM2        REDEF     FORM0,
              9390    1           3 COUNT       UBIN( 9)  UNAL,
              9391    1           3 O777        UBIN( 9)  UNAL,   /* <- '777'O                          */
              9392    1           3 UTS         UBIN(36)  UNAL,
              9393    1           3 D10         UBIN( 9)  UNAL,   /* <- 10                              */
              9394    1           3 SECT#       UBIN(18)  UNAL,
              9395    1           3 OFFSET      UBIN(18)  UNAL,
              9396    1           3 STYPE       UBIN( 9)  UNAL,
              9397    1           3 SEQUENCE    UBIN( 9)  UNAL,
              9398    1           3 *           CHAR(500) ;
       63     9400        %PLIST;
       64     9401        %EJECT;
PL6.E3A0      #001=VYK$KEY File=VYK$KEY.:E05TSI                                  WED 07/30/97 08:56 Page:17
       65     9402    1         R = RTYPE;

   9402  2 000002   200004 470500                    LDP0    @RTYPE,,AUTO
         2 000003   000000 235100                    LDA     0,,PR0
         2 000004   000001 755000 1                  STA     R

       66     9403    2         DO CASE(FTYPE);

   9403  2 000005   200003 471500                    LDP1    @FTYPE,,AUTO
         2 000006   100000 235100                    LDA     0,,PR1
         2 000007   000003 115007                    CMPA    3,DL
         2 000010   000012 602005 2                  TNC     s:9403+5,AL
         2 000011   000171 710000 2                  TRA     s:9468
         2 000012   000015 710000 2                  TRA     s:9405
         2 000013   000150 710000 2                  TRA     s:9455
         2 000014   000130 710000 2                  TRA     s:9444

       67     9404    2           CASE(0/*@OF*/);

       68     9405    2             K$=ADDR(VY_O_KEY_BUF);

   9405  2 000015   000000 236000 3                  LDQ     0
         2 000016   000000 756000 1                  STQ     K$

       69     9406    3             IF VY_KEY_USEPREV = 1/*@YES*/ THEN DO;

   9406  2 000017   000000 235000 xsym               LDA     VY_KEY_USEPREV
         2 000020   000001 115007                    CMPA    1,DL
         2 000021   000031 601000 2                  TNZ     s:9411

       70     9407    3                 K$B.FORM0.COUNT = VY_O_KEY_BUF_L.FORM0.COUNT;

   9407  2 000022   000000 473400 1                  LDP3    K$
         2 000023   000000 236000 xsym               LDQ     VY_O_KEY_BUF_L
         2 000024   300000 552140                    STBQ    0,'40'O,PR3

       71     9408    3                 K$B.FORM0.CHARS = VY_O_KEY_BUF_L.FORM0.CHARS;
PL6.E3A0      #001=VYK$KEY File=VYK$KEY.:E05TSI                                  WED 07/30/97 08:56 Page:18

   9408  2 000025   040100 100400                    MLR     fill='040'O
         2 000026   000000 201000 xsym               ADSC9   VY_O_KEY_BUF_L           cn=1,n=512
         2 000027   300000 201000                    ADSC9   0,,PR3                   cn=1,n=512

       72     9409    3                 RETURN;

   9409  2 000030   000000 702200 xent               TSX2  ! X66_ARET

       73     9410    3                END;
       74     9411    3             IF R < 0 THEN DO;

   9411  2 000031   000001 235000 1                  LDA     R
         2 000032   000061 605000 2                  TPL     OBJECT

       75     9412    3                 R = -R;

   9412  2 000033   000000 531000                    NEG     0
         2 000034   000001 755000 1                  STA     R

       76     9413    4                 DO CASE( R );

   9413  2 000035   000003 115007                    CMPA    3,DL
         2 000036   000040 602005 2                  TNC     s:9413+3,AL
         2 000037   000060 710000 2                  TRA     s:9421
         2 000040   000060 710000 2                  TRA     s:9421
         2 000041   000043 710000 2                  TRA     s:9415
         2 000042   000052 710000 2                  TRA     s:9418

       77     9414    4                   CASE(1);                /* Head */

       78     9415    4                     K$B.FORM0.COUNT = SIZEC(VY_O_KEY_HEAD );

   9415  2 000043   000000 473400 1                  LDP3    K$
         2 000044   001000 236003                    LDQ     512,DU
         2 000045   300000 552140                    STBQ    0,'40'O,PR3

PL6.E3A0      #001=VYK$KEY File=VYK$KEY.:E05TSI                                  WED 07/30/97 08:56 Page:19
       79     9416    4                     K$B.FORM0.CHARS = VY_O_KEY_HEAD;

   9416  2 000046   040100 100400                    MLR     fill='040'O
         2 000047   000000 000001 xsym               ADSC9   VY_O_KEY_HEAD            cn=0,n=1
         2 000050   300000 201000                    ADSC9   0,,PR3                   cn=1,n=512
         2 000051   000060 710000 2                  TRA     s:9421

       80     9417    4                   CASE(2);                /* Tree */

       81     9418    4                     K$B.FORM0.COUNT = SIZEC(VY_O_KEY_TREE );

   9418  2 000052   000000 473400 1                  LDP3    K$
         2 000053   005000 236003                    LDQ     2560,DU
         2 000054   300000 552140                    STBQ    0,'40'O,PR3

       82     9419    4                     K$B.FORM0.CHARS = VY_O_KEY_TREE;

   9419  2 000055   040100 100400                    MLR     fill='040'O
         2 000056   000000 000005 xsym               ADSC9   VY_O_KEY_TREE            cn=0,n=5
         2 000057   300000 201000                    ADSC9   0,,PR3                   cn=1,n=512

       83     9420    4                   END;                    /* Do case */

       84     9421    3                 RETURN;                   /* If R<0 */

   9421  2 000060   000000 702200 xent               TSX2  ! X66_ARET

       85     9422    3                END;                       /* If R<0 */
       86     9423        /* Here => did not want previous key */
       87     9424    2   OBJECT:
       88     9425    2             K$B.FORM1.O777 = BITBIN('777'O);

   9425  2 000061   000000 470400 1     OBJECT       LDP0    K$
         2 000062   000777 236003                    LDQ     511,DU
         2 000063   000000 552120                    STBQ    0,'20'O,PR0

       89     9426    2             K$B.FORM1.UTS  = VY_OU_HEAD.UTS;
PL6.E3A0      #001=VYK$KEY File=VYK$KEY.:E05TSI                                  WED 07/30/97 08:56 Page:20

   9426  2 000064   000100 100400                    MLR     fill='000'O
         2 000065   000000 000004 xsym               ADSC9   VY_OU_HEAD               cn=0,n=4
         2 000066   000000 400004                    ADSC9   0,,PR0                   cn=2,n=4

       90     9427    2             K$B.FORM1.REC_TYPE = R;

   9427  2 000067   000001 236000 1                  LDQ     R
         2 000070   000011 736000                    QLS     9
         2 000071   000001 552110                    STBQ    1,'10'O,PR0

       91     9428    2             IF ( R >= 1 AND R <= 9 )

   9428  2 000072   000001 235000 1                  LDA     R
         2 000073   000076 604400 2                  TMOZ    s:9428+4
         2 000074   000011 115007                    CMPA    9,DL
         2 000075   000102 604400 2                  TMOZ    s:9431
         2 000076   000013 115007                    CMPA    11,DL
         2 000077   000110 604000 2                  TMI     s:9435
         2 000100   000017 115007                    CMPA    15,DL
         2 000101   000110 605400 2                  TPNZ    s:9435

       92     9429    2                     OR
       93     9430    3                     ( R >= 11 AND R <= 15 ) THEN DO;

       94     9431    3                 K$B.FORM1.COUNT = 7;

   9431  2 000102   007000 236003                    LDQ     3584,DU
         2 000103   000000 552140                    STBQ    0,'40'O,PR0

       95     9432    3                 K$B.FORM1.PAGE# = PAGE#;

   9432  2 000104   200006 471500                    LDP1    @PAGE#,,AUTO
         2 000105   100000 236100                    LDQ     0,,PR1
         2 000106   000001 552104                    STBQ    1,'04'O,PR0

       96     9433    3                 RETURN;
PL6.E3A0      #001=VYK$KEY File=VYK$KEY.:E05TSI                                  WED 07/30/97 08:56 Page:21

   9433  2 000107   000000 702200 xent               TSX2  ! X66_ARET

       97     9434    3                END;
       98     9435    3             ELSE IF R = 10 THEN DO;

   9435  2 000110   000012 115007                    CMPA    10,DL
         2 000111   000171 601000 2                  TNZ     s:9468

       99     9436    3                     K$B.FORM2.COUNT = 11;

   9436  2 000112   013000 236003                    LDQ     5632,DU
         2 000113   000000 552140                    STBQ    0,'40'O,PR0

      100     9437    3                     K$B.FORM2.SECT# = SECT#;

   9437  2 000114   200005 471500                    LDP1    @SECT#,,AUTO
         2 000115   000100 101500                    MRL     fill='000'O
         2 000116   100000 000004                    ADSC9   0,,PR1                   cn=0,n=4
         2 000117   000001 600002                    ADSC9   1,,PR0                   cn=3,n=2

      101     9438    3                     K$B.FORM2.OFFSET = OFFSET;

   9438  2 000120   200006 473500                    LDP3    @PAGE#,,AUTO
         2 000121   300000 236100                    LDQ     0,,PR3
         2 000122   000011 736000                    QLS     9
         2 000123   000002 552130                    STBQ    2,'30'O,PR0

      102     9439    3                     K$B.FORM2.STYPE = 0;

   9439  2 000124   000000 236003                    LDQ     0,DU
         2 000125   000002 552104                    STBQ    2,'04'O,PR0

      103     9440    3                     K$B.FORM2.SEQUENCE = 0;

   9440  2 000126   000003 552140                    STBQ    3,'40'O,PR0

PL6.E3A0      #001=VYK$KEY File=VYK$KEY.:E05TSI                                  WED 07/30/97 08:56 Page:22
      104     9441    3                     RETURN;

   9441  2 000127   000000 702200 xent               TSX2  ! X66_ARET

      105     9442    3                    END;
      106     9443    2           CASE(2/*@LF*/);

      107     9444    2             K$ = ADDR( VY_O_KEY_BUF );

   9444  2 000130   000000 236000 3                  LDQ     0
         2 000131   000000 756000 1                  STQ     K$

      108     9445    2             IF VY_KEY_NAME$ = ADDR(NIL) THEN GOTO OBJECT;

   9445  2 000132   000000 236000 xsym               LDQ     VY_KEY_NAME$
         2 000133   000001 116000 xsym               CMPQ    B_VECTNIL+1
         2 000134   000061 600000 2                  TZE     OBJECT

      109     9446        /* Here => library searching */
      110     9447    2             K$B.FORM0.COUNT = VY_KEY_NAME$ -> T$H.COUNT;

   9447  2 000135   000000 473400 1                  LDP3    K$
         2 000136   000000 474400 xsym               LDP4    VY_KEY_NAME$
         2 000137   400000 236100                    LDQ     0,,PR4
         2 000140   000011 736000                    QLS     9
         2 000141   300000 552140                    STBQ    0,'40'O,PR3

      111     9448    2             K$B.FORM0.CHARS = VY_KEY_NAME$ -> T$H.CHARS;

   9448  2 000142   000000 474400 xsym               LDP4    VY_KEY_NAME$
         2 000143   400000 220100                    LDX0    0,,PR4
         2 000144   040100 100540                    MLR     fill='040'O
         2 000145   400000 400010                    ADSC9   0,,PR4                   cn=2,n=*X0
         2 000146   300000 201000                    ADSC9   0,,PR3                   cn=1,n=512

      112     9449    2             RETURN;

PL6.E3A0      #001=VYK$KEY File=VYK$KEY.:E05TSI                                  WED 07/30/97 08:56 Page:23
   9449  2 000147   000000 702200 xent               TSX2  ! X66_ARET

      113     9450        %EJECT;
PL6.E3A0      #001=VYK$KEY File=VYK$KEY.:E05TSI                                  WED 07/30/97 08:56 Page:24
      114     9451        /*
      115     9452              Run file
      116     9453        */
      117     9454    2           CASE(1/*@RF*/);

      118     9455    2             K$ = ADDR( VY_R_KEY_BUF );

   9455  2 000150   000001 236000 3                  LDQ     1
         2 000151   000000 756000 1                  STQ     K$

      119     9456    3             IF R < 0 THEN DO;

   9456  2 000152   000001 235000 1                  LDA     R
         2 000153   000061 605000 2                  TPL     OBJECT

      120     9457    3                 R = -R;

   9457  2 000154   000000 531000                    NEG     0
         2 000155   000001 755000 1                  STA     R

      121     9458    4                 DO CASE(R);

   9458  2 000156   000002 115007                    CMPA    2,DL
         2 000157   000161 602005 2                  TNC     s:9458+3,AL
         2 000160   000170 710000 2                  TRA     s:9463
         2 000161   000170 710000 2                  TRA     s:9463
         2 000162   000163 710000 2                  TRA     s:9460

      122     9459    4                   CASE(1);                /*Head*/

      123     9460    4                     VY_R_KEY_BUF.FORM0.COUNT = SIZEC(VY_R_KEY_HEAD);

   9460  2 000163   004000 236003                    LDQ     2048,DU
         2 000164   000000 552040 xsym               STBQ    VY_R_KEY_BUF,'40'O

      124     9461    4                     VY_R_KEY_BUF.FORM0.CHARS = VY_R_KEY_HEAD;

PL6.E3A0      #001=VYK$KEY File=VYK$KEY.:E05TSI                                  WED 07/30/97 08:56 Page:25
   9461  2 000165   040000 100400                    MLR     fill='040'O
         2 000166   000000 000004 xsym               ADSC9   VY_R_KEY_HEAD            cn=0,n=4
         2 000167   000000 200004 xsym               ADSC9   VY_R_KEY_BUF             cn=1,n=4

      125     9462    4                   END;                    /*Do case */

      126     9463    3                 RETURN;

   9463  2 000170   000000 702200 xent               TSX2  ! X66_ARET

      127     9464    3                END;                       /* If R<0 */
      128     9465        /* Here => not head */
      129     9466    2             ELSE GOTO OBJECT;
      130     9467    2           END;                            /*Do case(ftype*/

      131     9468    1   END VYK$KEY;

   9468  2 000171   000000 702200 xent               TSX2  ! X66_ARET

PL6.E3A0      #001=VYK$KEY File=VYK$KEY.:E05TSI                                  WED 07/30/97 08:56 Page:26
--  Include file information  --

   B$OBJECT_C.:E05TOU  is referenced.
   VY_DCB_R.:E05TOU  cannot be made into a system file and is referenced.
   VY_DATA_R.:E05TOU  cannot be made into a system file and is referenced.
   XU_MACRO_C.:E05TOU  is referenced.
   VY_FIXED_R.:E05TOU  cannot be made into a system file and is referenced.
   CP_6.:E05TOU  cannot be made into a system file and is referenced.
   VY_MACRO_C.:E05TOU  is referenced.
   VY_PERR_C.:E05TOU  is referenced.
   VY_SUBS_C.:E05TOU  is referenced.
   VY_INC_NO_C.:E05TOU  is referenced.
   VY_SWITCH_C.:E05TOU  is referenced.
   VY_INC_C.:E05TOU  is referenced.
   B$JIT_C.:E05TOU  was found in the system file and is never referenced.
   CP_6_C.:E05TOU  was found in the system file and is referenced.
      No diagnostics issued in procedure VYK$KEY.
PL6.E3A0      #001=VYK$KEY File=VYK$KEY.:E05TSI                                  WED 07/30/97 08:56 Page:27

 **** Variables and constants ****

  ****  Section 001  Data  VYK$KEY

  ****  Scalars and arrays  ****
OctLoc.c.b A Datatyp(siz) R M Lvl/name                 OctLoc.c.b A Datatyp(siz) R M Lvl/name

     0-0-0/w PTR         r     1 K$                         1-0-0/w SBIN        r     1 R

  ****  Auto variables  ****

  ****  Scalars and arrays  ****
OctLoc.c.b A Datatyp(siz) R M Lvl/name                 OctLoc.c.b A Datatyp(siz) R M Lvl/name

     3-0-0/w PTR         r     1 @FTYPE                     6-0-0/w PTR         r     1 @PAGE#
     4-0-0/w PTR         r     1 @RTYPE                     5-0-0/w PTR         r     1 @SECT#
    *0-0-0/w SBIN        r     1 FTYPE                     *0-0-0/w UBIN        r     1 OFFSET
    *0-0-0/w UBIN        r     1 PAGE#                     *0-0-0/w SBIN        r     1 RTYPE
    *0-0-0/w UBIN        r     1 SECT#

  ****  SYMREF variables  ****

  ****  Scalars and arrays  ****
OctLoc.c.b A Datatyp(siz) R M Lvl/name                 OctLoc.c.b A Datatyp(siz) R M Lvl/name

     0-0-0/w PTR         r     1 VY_KEY_NAME$               0-0-0/w UBIN        r     1 VY_KEY_USEPREV
     0-0-0/c STRC(1044)  r     1 VY_OU_HEAD                 0-0-0/w STRC(4617)  r     1 VY_O_KEY_BUF
     0-0-0/w STRC(4617)  r     1 VY_O_KEY_BUF_L             0-0-0/c CHAR        r     1 VY_O_KEY_HEAD
     0-0-0/c CHAR(5)     r     1 VY_O_KEY_TREE              0-0-0/w STRC(108)   r     1 VY_R_KEY_BUF
     0-0-0/c CHAR(4)     r     1 VY_R_KEY_HEAD

  ****  BASED and DCB variables  ****

  ****  Scalars and arrays  ****
OctLoc.c.b A Datatyp(siz) R M Lvl/name                 OctLoc.c.b A Datatyp(siz) R M Lvl/name

     0-0-0/w STRC(4617)  r     1 K$B                        0-0-0/w ASTR(18)    r     1 T$H
PL6.E3A0      #001=VYK$KEY File=VYK$KEY.:E05TSI                                  WED 07/30/97 08:56 Page:28


   Procedure VYK$KEY requires 122 words for executable code.
   Procedure VYK$KEY requires 8 words of local(AUTO) storage.

    No errors detected in file VYK$KEY.:E05TSI    .
PL6.E3A0      #001=VYK$KEY File=VYK$KEY.:E05TSI                                  WED 07/30/97 08:56 Page:29
          *** CROSS REFERENCE LISTING ***
**     DENOTES     IDENTIFIER DEFINITION
<<                 IDENTIFIER'S VALUE SET
>>                 IDENTIFIER'S VALUE USED
<>                 IDENTIFIER SET AND/OR USED
--                 IDENTIFIER REFERENCED
PL6.E3A0      #001=VYK$KEY File=VYK$KEY.:E05TSI                                  WED 07/30/97 08:56 Page:30
          MINI XREF LISTING

FTYPE
      9300**DCL        34--PROC     9403>>DOCASE
K$
      9353**DCL      9378--IMP-PTR  9405<<ASSIGN   9407>>ASSIGN   9408>>ASSIGN   9415>>ASSIGN   9416>>ASSIGN
      9418>>ASSIGN   9419>>ASSIGN   9425>>ASSIGN   9426>>ASSIGN   9427>>ASSIGN   9431>>ASSIGN   9432>>ASSIGN
      9436>>ASSIGN   9437>>ASSIGN   9438>>ASSIGN   9439>>ASSIGN   9440>>ASSIGN   9444<<ASSIGN   9447>>ASSIGN
      9448>>ASSIGN   9455<<ASSIGN
K$B.FORM0
      9379**DCL      9382--REDEF    9389--REDEF
K$B.FORM0.CHARS
      9381**DCL      9408<<ASSIGN   9416<<ASSIGN   9419<<ASSIGN   9448<<ASSIGN
K$B.FORM0.COUNT
      9380**DCL      9407<<ASSIGN   9415<<ASSIGN   9418<<ASSIGN   9447<<ASSIGN
K$B.FORM1.COUNT
      9383**DCL      9431<<ASSIGN
K$B.FORM1.O777
      9384**DCL      9425<<ASSIGN
K$B.FORM1.PAGE#
      9387**DCL      9432<<ASSIGN
K$B.FORM1.REC_TYPE
      9386**DCL      9427<<ASSIGN
K$B.FORM1.UTS
      9385**DCL      9426<<ASSIGN
K$B.FORM2.COUNT
      9390**DCL      9436<<ASSIGN
K$B.FORM2.OFFSET
      9395**DCL      9438<<ASSIGN
K$B.FORM2.SECT#
      9394**DCL      9437<<ASSIGN
K$B.FORM2.SEQUENCE
      9397**DCL      9440<<ASSIGN
K$B.FORM2.STYPE
PL6.E3A0      #001=VYK$KEY File=VYK$KEY.:E05TSI                                  WED 07/30/97 08:56 Page:31
      9396**DCL      9439<<ASSIGN
OBJECT
      9425**LABEL    9445--GOTO     9466--GOTO
OFFSET
      9305**DCL      9438>>ASSIGN
PAGE#
      9304**DCL        34--PROC     9305--REDEF    9432>>ASSIGN
R
      9370**DCL      9402<<ASSIGN   9411>>IF       9412<<ASSIGN   9412>>ASSIGN   9413>>DOCASE   9427>>ASSIGN
      9428>>IF       9428>>IF       9428>>IF       9428>>IF       9435>>IF       9456>>IF       9457<<ASSIGN
      9457>>ASSIGN   9458>>DOCASE
RTYPE
      9301**DCL        34--PROC     9402>>ASSIGN
SECT#
      9302**DCL        34--PROC     9303--REDEF    9437>>ASSIGN
T$H.CHARS
      9237**DCL      9448>>ASSIGN
T$H.COUNT
      9236**DCL      9237--IMP-SIZ  9447>>ASSIGN   9448>>ASSIGN
VY_BIAS.A
      5412**DCL      5412--REDEF
VY_CBUF.CHARS_A
      5403**DCL      5403--REDEF
VY_EBUF.CHARS_A
      5704**DCL      5705--REDEF
VY_EFIELD1.CHARS
      5705**DCL      5705--REDEF
VY_EFIELD2.CHARS
      5706**DCL      5706--REDEF
VY_EFIELD3.CHARS
      5707**DCL      5707--REDEF
VY_ERRORS
      5408**DCL      5410--REDEF
VY_ERRORS.CONFLICT_A
      5409**DCL      5410--REDEF
VY_ERRORS.UNSAT_A
PL6.E3A0      #001=VYK$KEY File=VYK$KEY.:E05TSI                                  WED 07/30/97 08:56 Page:32
      5408**DCL      5409--REDEF
VY_IMAGE_DATA.CPAGE#_A
      5296**DCL      5297--REDEF
VY_IMAGE_DATA.NODE_A$
      5308**DCL      5309--REDEF
VY_IMAGE_DATA.START_A$
      5300**DCL      5301--REDEF
VY_IMAGE_DATA.STOP_A$
      5304**DCL      5305--REDEF
VY_IMAGE_PROC.CPAGE#_A
      5319**DCL      5320--REDEF
VY_IMAGE_PROC.NODE_A$
      5331**DCL      5332--REDEF
VY_IMAGE_PROC.START_A$
      5323**DCL      5324--REDEF
VY_IMAGE_PROC.STOP_A$
      5327**DCL      5328--REDEF
VY_IMAGE_ROS.CPAGE#_A
      5342**DCL      5343--REDEF
VY_IMAGE_ROS.NODE_A$
      5354**DCL      5355--REDEF
VY_IMAGE_ROS.START_A$
      5346**DCL      5347--REDEF
VY_IMAGE_ROS.STOP_A$
      5350**DCL      5351--REDEF
VY_KEY_NAME$
      5713**DCL      9445>>IF       9447>>ASSIGN   9448>>ASSIGN   9448>>ASSIGN
VY_KEY_USEPREV
      5713**DCL      9406>>IF
VY_MAP_HDR.CHARS
      5769**DCL      5770--REDEF    5770--REDEF
VY_MAP_LIT_LO_FPT_WRITE.STATION_
      5098**DCL      5098--REDEF
VY_MAP_LIT_LO_FPT_WRITE.V.DVBYTE.VFC#
      5105**DCL      5105--REDEF
VY_MAP_LO_FPT_WRITE.STATION_
PL6.E3A0      #001=VYK$KEY File=VYK$KEY.:E05TSI                                  WED 07/30/97 08:56 Page:33
      5067**DCL      5067--REDEF
VY_MAP_LO_FPT_WRITE.V.DVBYTE.VFC#
      5074**DCL      5074--REDEF
VY_MBUF.CHARS
      5768**DCL      5769--REDEF    5769--REDEF
VY_M_VECTOR.F
      5137**DCL      5141--REDEF
VY_M_VECTOR_DP.F
      5172**DCL      5176--REDEF
VY_O.DUPL_ATTCH
      5550**DCL      5554--REDEF
VY_O.MAP_ATTCH
      5538**DCL      5549--REDEF
VY_O.PRIMARY_OPTION
      5532**DCL      5537--REDEF
VY_O.SEV_ATTCH
      5555**DCL      5557--REDEF
VY_OD.DUPL_ATTCH
      5694**DCL      5698--REDEF
VY_OD.MAP_ATTCH
      5682**DCL      5693--REDEF
VY_OD.PRIMARY_OPTION
      5676**DCL      5681--REDEF
VY_OD.SEV_ATTCH
      5699**DCL      5701--REDEF
VY_OL_KEY_BUF.FORM0
      5205**DCL      5208--REDEF    5215--REDEF
VY_OU_HEAD.REC_A
      5393**DCL      5394--REDEF
VY_OU_HEAD.UTS
      5391**DCL      9426>>ASSIGN
VY_O_KEY_BUF
      5181**DCL      9405--ASSIGN   9444--ASSIGN
VY_O_KEY_BUF.FORM0
      5182**DCL      5185--REDEF    5192--REDEF
VY_O_KEY_BUF_L.FORM0
PL6.E3A0      #001=VYK$KEY File=VYK$KEY.:E05TSI                                  WED 07/30/97 08:56 Page:34
      5228**DCL      5231--REDEF    5238--REDEF
VY_O_KEY_BUF_L.FORM0.CHARS
      5230**DCL      9408>>ASSIGN
VY_O_KEY_BUF_L.FORM0.COUNT
      5229**DCL      9407>>ASSIGN
VY_O_KEY_HEAD
      5712**DCL      9415--ASSIGN   9416>>ASSIGN
VY_O_KEY_TREE
      5712**DCL      9418--ASSIGN   9419>>ASSIGN
VY_PAR_UNWIND
      5763**DCL      5763--REDEF
VY_PASS2_REF.OU.L_START
      5730**DCL      5731--REDEF
VY_PASS2_REF.OU.L_STOP
      5731**DCL      5732--REDEF
VY_PASS2_REF.OU.MAX
      5729**DCL      5730--REDEF
VY_PASS2_REF.OU.SIZE
      5732**DCL      5733--REDEF
VY_PASS2_REF.SAT.COUNT
      5736**DCL      5737--REDEF
VY_PASS2_REF.SAT.ENT_SIZE
      5738**DCL      5739--REDEF
VY_PASS2_REF.SAT.L_START
      5734**DCL      5735--REDEF
VY_PASS2_REF.SAT.L_STOP
      5735**DCL      5736--REDEF
VY_PASS2_REF.SAT.MAX
      5733**DCL      5734--REDEF
VY_PASS2_REF.UNSAT.L_START
      5740**DCL      5741--REDEF
VY_PASS2_REF.UNSAT.L_STOP
      5741**DCL      5742--REDEF
VY_PASS2_REF.UNSAT.L_WHERE
      5742**DCL      5743--REDEF
VY_PASS2_REF.UNSAT.MAX
PL6.E3A0      #001=VYK$KEY File=VYK$KEY.:E05TSI                                  WED 07/30/97 08:56 Page:35
      5739**DCL      5740--REDEF
VY_PASS2_REF.UNSAT.PAGE#
      5744**DCL      5745--REDEF
VY_PASS2_REF.UNSAT.SIZE
      5743**DCL      5744--REDEF
VY_PROGRAM_BIAS.A
      5411**DCL      5411--REDEF
VY_RU_HEAD.DATA_SEGMENT
      5379**DCL      5379--REDEF
VY_RU_HEAD.L
      5375**DCL      5376--REDEF
VY_RU_HEAD.MAP_BITS
      5376**DCL      5378--REDEF
VY_RU_HEAD.PBIT
      5372**DCL      5372--REDEF
VY_RU_HEAD_BUF.DATA_SEGMENT
      5389**DCL      5389--REDEF
VY_RU_HEAD_BUF.L
      5384**DCL      5385--REDEF
VY_RU_HEAD_BUF.MAP_BITS
      5386**DCL      5388--REDEF
VY_RU_HEAD_BUF.PBIT
      5381**DCL      5382--REDEF
VY_R_KEY_BUF
      5250**DCL      9455--ASSIGN
VY_R_KEY_BUF.FORM0
      5251**DCL      5255--REDEF    5261--REDEF
VY_R_KEY_BUF.FORM0.CHARS
      5253**DCL      9461<<ASSIGN
VY_R_KEY_BUF.FORM0.COUNT
      5252**DCL      9460<<ASSIGN
VY_R_KEY_HEAD
      5713**DCL      9460--ASSIGN   9461>>ASSIGN
VY_SI_KEY_BUF.KEY
      5759**DCL      5759--REDEF
VY_SPC.B$.MINE
PL6.E3A0      #001=VYK$KEY File=VYK$KEY.:E05TSI                                  WED 07/30/97 08:56 Page:36
      5754**DCL      5755--REDEF
VY_SPC.B$.NAME
      5751**DCL      5751--REDEF
VY_SPC.B$.SKIP
      5753**DCL      5754--REDEF
VY_SPC.B$.VALUE
      5752**DCL      5753--REDEF
VY_SPC.SEG.NAME
      5746**DCL      5747--REDEF
VY_SPC.SEG.VALUE
      5747**DCL      5748--REDEF
VY_TSX0_OVERLAY.H
      5718**DCL      5719--REDEF
