VERSION E05

PL6.E3A0      #001=VYP$PARSE File=VYP$PARSE.:E05TSI                              WED 07/30/97 09:01 Page:1
        1        1        /*T***********************************************************/
        2        2        /*T*                                                         */
        3        3        /*T* Copyright (c) Bull HN Information Systems Inc., 1997    */
        4        4        /*T*                                                         */
        5        5        /*T***********************************************************/
        6        6        /*X* DMR,PLM=6,IND=4,CSU=2,EXM=0,ECU=2,MOC,DCI=4,CRT=4,CTI=8,CCC */
        7        7        %MACRO CHK_DUP_OPT(
        8        8              STRUCT=STRUCT,
        9        9              STRUCT_NAME$=STRUCT_NAME$,
       10       10              ERROR="GOTO SKIP_OPTION;");
       11       11              IF STRUCT THEN DO;
       12       12                  CALL VYP$DUP_OPT( STRUCT_NAME$ );
       13       13                  ERROR
       14       14                 END;
       15       15              ELSE STRUCT = @TRUE_B;
       16       16        %MEND;
       17       17        VYP$PARSE: PROC;
       18       18        /*
       19       19                  Include files
       20       20        */
       21       21        %INCLUDE VY_INC_C;
       22     9197        %INCLUDE XUH_MACRO_C;
       23     9281        %VY$LLIST;

              9293    1   /*******************************************************************************
              9294    1   *                                                                              *
              9295    1   *                          VY$LLIST                                                *
              9296    1   *                                                                              *
              9297    1   *******************************************************************************/

              9302    1   DCL 1 VY$LLIST                BASED     ALIGNED,
              9303    1         2 LINK$                  PTR  ALIGNED,
              9304    1         2 ITEM$                  PTR  ALIGNED;
       24     9307        %VY$NODE;

              9319    1   /*******************************************************************************
              9320    1   *                                                                              *
PL6.E3A0      #001=VYP$PARSE File=VYP$PARSE.:E05TSI                              WED 07/30/97 09:01 Page:2
              9321    1   *                          VY$NODE                                                 *
              9322    1   *                                                                              *
              9323    1   *******************************************************************************/

              9339    1   DCL 1 VY$NODE      ALIGNED    BASED,
              9340    1         2 SON$ PTR /*(ADDR(NIL))*/, /* Son pointer                      */
              9341    1         2 BROTHER$ PTR /*(ADDR(NIL))*/, /* Brother pointer              */
              9342    1         2 FATHER$ PTR /*(ADDR(NIL))*/, /* Father pointer                */
              9343    1         2 PATH$ PTR /*(ADDR(NIL))*/, /* Path   pointer                  */
              9344    1         2 HEAD$       PTR /*(ADDR(NIL))*/, /* Head pointer to
              9345                              to list of file nodes for this node            */
              9346    1         2 TAIL$ PTR /*(ADDR(NIL))*/, /* Tail pointer to list            */
              9347    1         2 SHARED_LIB_HEAD$ PTR /*(ADDR(NIL))*/,
              9347                  /* Head pointer to shared library list */
              9348    1         2 LIB_HEAD$         PTR /*(ADDR(NIL))*/,
              9348                  /* Head pointer to list of shared libraries
              9349                                          which have been mapped to included libraries */
              9350    1         2 NUM          UBIN(36)  UNAL,    /* Node number                        */
              9351    1         2 DEPTH          UBIN(36)  UNAL,  /* Depth; ROOT=0*/
              9352    1         2 ADDR_START_A(0:2/*@ROS*/) SBIN WORD /*(0*3)*/, /* Array            */
              9353    1         2 ADDR_START REDEF  ADDR_START_A,
              9354    1           3 RDATA       SBIN WORD,   /* First address for this node in data     */
              9355    1           3 RPROC       SBIN WORD,   /* First address for this node in proc     */
              9356    1           3 ROS       SBIN WORD,          /* Last address for program in ros    */
              9357    1         2 ADDR_STOP_A(0:2/*@ROS*/) SBIN WORD /*(-1*3)*/, /* Array            */
              9358    1         2 ADDR_STOP  REDEF  ADDR_STOP_A,
              9359    1           3 RDATA       SBIN WORD,        /* Last address for this node in data */
              9360    1           3 RPROC       SBIN WORD,        /* Last address for this node in proc */
              9361    1           3 ROS       SBIN WORD,          /* Last address for program in ros    */
              9362    1         2 START_PAGE#_A(0:2/*@ROS*/) SBIN WORD /*(0*3)*/, /* Array           */
              9363    1         2 START_PAGE# REDEF START_PAGE#_A,
              9364    1           3 RDATA       SBIN WORD,   /* First page    for this node in data     */
              9365    1           3 RPROC       SBIN WORD,   /* First page    for this node in proc     */
              9366    1           3 ROS       SBIN WORD,          /* First page   for program in ros    */
              9367    1         2 STOP_PAGE#_A(0:2/*@ROS*/) SBIN WORD /*(-1*3)*/, /* Array*/
              9368    1         2 STOP_PAGE#  REDEF STOP_PAGE#_A,
              9369    1           3 RDATA       SBIN WORD,   /* Last  page    for this node in data     */
PL6.E3A0      #001=VYP$PARSE File=VYP$PARSE.:E05TSI                              WED 07/30/97 09:01 Page:3
              9370    1           3 RPROC       SBIN WORD,   /* Last  page    for this node in proc     */
              9371    1           3 ROS       SBIN WORD,          /* Last  page   for program in ros    */
              9372    1         2 START_SC_ALL$ PTR /*(ADDR(NIL))*/,
              9372                  /* Starting pointer for common sections for this node */
              9373    1         2 STOP_SC_ALL$ PTR /*(ADDR(NIL))*/,
              9373                  /* Stopping pointer for common sections for this node */
              9374    1         2 L_START,
              9375    1           3 SN$ PTR /*(ADDR(NIL))*/, /* Segment definition names        */
              9376    1           3 DN$ PTR /*(ADDR(NIL))*/, /* Def names                       */
              9377    1           3 RN$ PTR /*(ADDR(NIL))*/, /* Ref names                       */
              9378    1           3 SC$ PTR /*(ADDR(NIL))*/, /* Sections                        */
              9379    1           3 ED$ PTR /*(ADDR(NIL))*/, /* Entry defs*/
              9380    1           3 ER$ PTR /*(ADDR(NIL))*/, /* Entry refs*/
              9381    1           3 DD$ PTR /*(ADDR(NIL))*/, /* Data defs                       */
              9382    1           3 DR$ PTR /*(ADDR(NIL))*/, /* Data refs                       */
              9383    1           3 SD$ PTR /*(ADDR(NIL))*/, /* Seg defs                        */
              9384    1           3 SR$ PTR /*(ADDR(NIL))*/, /* Seg refs                        */
              9385    1         2 L_START_A$(0:9)     REDEF L_START PTR,
              9386    1         2 L_STOP,
              9387    1           3 SN$ PTR /*(ADDR(NIL))*/, /* Segment definition names        */
              9388    1           3 DN$ PTR /*(ADDR(NIL))*/, /* Def names                       */
              9389    1           3 RN$ PTR /*(ADDR(NIL))*/, /* Ref names                       */
              9390    1           3 SC$ PTR /*(ADDR(NIL))*/, /* Sections                        */
              9391    1           3 ED$ PTR /*(ADDR(NIL))*/, /* Entry defs*/
              9392    1           3 ER$ PTR /*(ADDR(NIL))*/, /* Entry refs*/
              9393    1           3 DD$ PTR /*(ADDR(NIL))*/, /* Data defs                       */
              9394    1           3 DR$ PTR /*(ADDR(NIL))*/, /* Data refs                       */
              9395    1           3 SD$ PTR /*(ADDR(NIL))*/, /* Seg defs                        */
              9396    1           3 SR$ PTR /*(ADDR(NIL))*/, /* Seg refs                        */
              9397    1         2 L_STOP_A$(0:9) REDEF   L_STOP    PTR,
              9398    1         2 L_SIZE,
              9399    1           3 SN      UBIN /*(0)*/, /* Segment definition names           */
              9400    1           3 DN      UBIN /*(0)*/, /* Def names                          */
              9401    1           3 RN      UBIN /*(0)*/, /* Ref names                          */
              9402    1           3 SC      UBIN /*(0)*/, /* Sections                           */
              9403    1           3 ED      UBIN /*(0)*/, /* Entry defs*/
              9404    1           3 ER      UBIN /*(0)*/, /* Entry refs*/
PL6.E3A0      #001=VYP$PARSE File=VYP$PARSE.:E05TSI                              WED 07/30/97 09:01 Page:4
              9405    1           3 DD      UBIN /*(0)*/, /* Data defs                          */
              9406    1           3 DR      UBIN /*(0)*/, /* Data refs                          */
              9407    1           3 SD      UBIN /*(0)*/, /* Seg defs                           */
              9408    1           3 SR      UBIN /*(0)*/, /* Seg refs                           */
              9409    1         2 L_SIZE_A(0:9)  REDEF   L_SIZE    UBIN,
              9410    1         2 L_PREV_SIZE,
              9411    1           3 SN      UBIN /*(0)*/, /* Segment definition names           */
              9412    1           3 DN      UBIN /*(0)*/, /* Def names                          */
              9413    1           3 RN      UBIN /*(0)*/, /* Ref names                          */
              9414    1           3 SC      UBIN /*(0)*/, /* Sections                           */
              9415    1           3 ED      UBIN /*(0)*/, /* Entry defs*/
              9416    1           3 ER      UBIN /*(0)*/, /* Entry refs*/
              9417    1           3 DD      UBIN /*(0)*/, /* Data defs                          */
              9418    1           3 DR      UBIN /*(0)*/, /* Data refs                          */
              9419    1           3 SD      UBIN /*(0)*/, /* Seg defs                           */
              9420    1           3 SR      UBIN /*(0)*/, /* Seg refs                           */
              9421    1         2 L_PREV_SIZE_A(0:9)  REDEF   L_PREV_SIZE    UBIN,
              9422    1         2 BIT_MAP                ALIGNED,
              9423    1           3 DATA                  ALIGNED,
              9424    1             4 BITS(0:255)          BIT(1)    UNAL /*('0'B*256)*/,
              9425    1           3 RPROC                 ALIGNED,
              9426    1             4 BITS(0:255)          BIT(1)    UNAL /*('0'B*256)*/,
              9427    1           3 ROS                   ALIGNED,
              9428    1             4 BITS(0:255)          BIT(1)    UNAL /*('0'B*256)*/,
              9429    1         2 L_SC_START,
              9430    1           3 SC_BLK_COM$ PTR /*(ADDR(NIL))*/, /* Blank common            */
              9431    1           3 SC_ROOT_LBL_COM$ PTR /*(ADDR(NIL))*/, /* Root labelled common */
              9432    1           3 SC_LBL_COM$ PTR /*(ADDR(NIL))*/, /* Labelled common         */
              9433    1           3 SC_DCB$ PTR /*(ADDR(NIL))*/, /* Dcbs                        */
              9434    1         2 L_SC_START_A$(0:3)  REDEF L_SC_START PTR,
              9435    1         2 L_SC_STOP,
              9436    1           3 SC_BLK_COM$ PTR /*(ADDR(NIL))*/, /* Blank common            */
              9437    1           3 SC_ROOT_LBL_COM$ PTR /*(ADDR(NIL))*/, /* Root labelled common */
              9438    1           3 SC_LBL_COM$ PTR /*(ADDR(NIL))*/, /* Labelled common         */
              9439    1           3 SC_DCB$ PTR /*(ADDR(NIL))*/, /* Dcbs                        */
              9440    1         2 L_SC_STOP_A$(0:3)   REDEF L_SC_STOP  PTR,
              9441    1         2 PROMOTE_HEAD,
PL6.E3A0      #001=VYP$PARSE File=VYP$PARSE.:E05TSI                              WED 07/30/97 09:01 Page:5
              9442    1           3 BLK_COM$              PTR /*(ADDR(NIL))*/,
              9443    1           3 LBL_COM$              PTR /*(ADDR(NIL))*/,
              9444    1         2 PROMOTE_HEAD_A$(0:1) REDEF PROMOTE_HEAD     PTR,
              9445    1         2 PROMOTE_TAIL,
              9446    1           3 BLK_COM$              PTR /*(ADDR(NIL))*/,
              9447    1           3 LBL_COM$              PTR /*(ADDR(NIL))*/,
              9448    1         2 PROMOTE_TAIL_A$(0:1) REDEF PROMOTE_TAIL     PTR,
              9449    1         2 HAVE_ASL          BIT(1)    UNAL /*('0'B)*/,
              9450    1         2 ALL_BLK_COM          BIT(1)    UNAL /*('0'B)*/,
              9451    1         2 *                 BIT(34)   UNAL /*('0'B)*/,
              9452    1         2 BLANK_COMMON$     PTR       ALIGNED /*(ADDR(NIL))*/;

       25     9456        %T$C;

              9468    1   /*******************************************************************************
              9469    1   *                                                                              *
              9470    1   *                          T$C                                                 *
              9471    1   *                                                                              *
              9472    1   *******************************************************************************/

              9477    1   DCL 1 T$C           BASED     ALIGNED,  /* Text count                         */
              9478    1         2 COUNT        UBIN( 9) UNAL,
              9479    1         2 CHARS        CHAR( T$C.COUNT )   UNAL;
              9480    1   DCL 1 T$C_UNAL      BASED     UNAL,     /* Text count                         */
              9481    1         2 COUNT        UBIN( 9) UNAL,
              9482    1         2 CHARS        CHAR( T$C_UNAL.COUNT ) UNAL;
       26     9485        %B$DNAME( NAME=B$DNAME, STCLASS=BASED );
       27     9504        %EJECT;
PL6.E3A0      #001=VYP$PARSE File=VYP$PARSE.:E05TSI                              WED 07/30/97 09:01 Page:6
       28     9505        %INCLUDE XU_SUBS_C;
       29     9597        %INCLUDE XU_PERR_C;
       30     9788        %INCLUDE VY_PSUBS_C;
       31     9849        %PARSE$OUT( NAME=O$B, STCLASS="BASED");
       32     9894        %PARSE$SYM( NAME=O$S, STCLASS="BASED");
       33     9932        %P$LIT( NAME=P$LIT, STCLASS="BASED" );
       34     9985        %POINTER;
       35     9990        %INDEX;
       36    10000        %E;

             10008    1   /*******************************************************************************
             10009    1   *                                                                              *
             10010    1   *                          ENTRY                                                 *
             10011    1   *                                                                              *
             10012    1   *******************************************************************************/

       37    10016    1   DCL VYP$PAR         ENTRY(3)       ALTRET;
       38    10017    1   DCL X$PARSE ENTRY(1) ALTRET;
       39    10018    1   DCL VYA$GET         ENTRY(3);
       40    10019    1   DCL VYF$FREE        ENTRY(3);
       41    10020    1   DCL VYR$READ        ENTRY(2);
       42    10021    1   DCL VYW$WRITE       ENTRY(3) ALTRET;
       43    10022    1   DCL VYD$C2B         ENTRY(3);
       44    10023    1   DCL VYA$ND          ENTRY(2);
       45    10024    1   DCL VYD$FLST        ENTRY(4);
       46    10025    1   DCL VYS$LST         ENTRY(6) ALTRET;
       47    10026    1   DCL VYP$TREE        ENTRY(7);
       48    10027    1   DCL VYE$ERROR          ENTRY(4);
       49    10028        %U;

             10036    1   /*******************************************************************************
             10037    1   *                                                                              *
             10038    1   *                          UBIN                                                 *
             10039    1   *                                                                              *
             10040    1   *******************************************************************************/

       50    10044    1   DCL CHAR_COUNT      UBIN(36) ALIGNED    STATIC/*AUTO*/;
PL6.E3A0      #001=VYP$PARSE File=VYP$PARSE.:E05TSI                              WED 07/30/97 09:01 Page:7
       51    10045    1   DCL PWORK_SIZE      UBIN(36) ALIGNED    STATIC/*AUTO*/;
       52    10046    1   DCL SIZE            UBIN(36) ALIGNED    STATIC/*AUTO*/;
       53    10047    1   DCL STOP            UBIN(36) ALIGNED    STATIC/*AUTO*/;
       54    10048    1   DCL OPT_STOP        UBIN(36) ALIGNED    STATIC/*AUTO*/;
       55    10049    1   DCL ITEM_STOP       UBIN(36) ALIGNED    STATIC/*AUTO*/;
       56    10050    1   DCL KON_STOP        UBIN(36) ALIGNED    STATIC/*AUTO*/;
       57    10051    1   DCL ACCT_STOP       UBIN(36) ALIGNED    STATIC/*AUTO*/;
       58    10052    1   DCL CTEMP           UBIN(36) ALIGNED    STATIC/*AUTO*/;
       59    10053    1   DCL BASE            UBIN(36) ALIGNED    STATIC/*AUTO*/;
       60    10054        %PTR;

             10062    1   /*******************************************************************************
             10063    1   *                                                                              *
             10064    1   *                          PTR                                                 *
             10065    1   *                                                                              *
             10066    1   *******************************************************************************/

       61    10070    1   DCL HEAD$           PTR  ALIGNED   STATIC/*AUTO*/;
       62    10071    1   DCL TAIL$           PTR  ALIGNED   STATIC/*AUTO*/;
       63    10072    1   DCL DUMMY$          PTR  ALIGNED        STATIC/*AUTO*/;
       64    10073    1   DCL PWORK$          PTR  ALIGNED        STATIC/*AUTO*/;
       65    10074    1   DCL START$          PTR  ALIGNED        STATIC/*AUTO*/;
       66    10075    1   DCL LEVEL1$         PTR  ALIGNED        STATIC/*AUTO*/;
       67    10076    1   DCL LEVEL2$         PTR  ALIGNED        STATIC/*AUTO*/;
       68    10077    1   DCL LEVEL3$         PTR  ALIGNED        STATIC/*AUTO*/;
       69    10078    1   DCL CURR$           PTR  ALIGNED   STATIC/*AUTO*/;
       70    10079    1   DCL NODE$           PTR  ALIGNED   STATIC/*AUTO*/;
       71    10080    1   DCL ACCT$           PTR  ALIGNED   STATIC/*AUTO*/;
       72    10081    1   DCL SRCH_CURR$      PTR  ALIGNED   STATIC/*AUTO*/;
       73    10082    1   DCL PRIOR$          PTR  ALIGNED   STATIC/*AUTO*/;
       74    10083        /**/
       75    10084        /**/
       76    10085        /**/
       77    10086    1   DCL VY_N_START_SYMBOL    UBIN(36)       SYMREF;
       78    10087        /**/
       79    10088    1   DCL ACCT_NAME CHAR(8) BASED;
       80    10089    1   DCL 1 STAR_G         ALIGNED   CONSTANT,
PL6.E3A0      #001=VYP$PARSE File=VYP$PARSE.:E05TSI                              WED 07/30/97 09:01 Page:8
       81    10090    1         2 COUNT        UBIN(9)   UNAL INIT(2),
       82    10091    1         2 CHARS        CHAR(2)   UNAL INIT('*G');
       83    10092        %OPTIONS(NAME=VY_ON,STCLASS=SYMREF,DTYPE="PTR");
       84    10236        /*****************************************************************/
       85    10237        /*    Entry dcls   entry dcls   entry dcls   entry dcls   entry dcls   */
       86    10238        /**********************************************************************/
       87    10239    1   DCL X$HELP ENTRY(1) ALTRET ;
       88    10240    1   DCL VYE$ERRMSG ENTRY(1);
       89    10241        /********************************************************************/
       90    10242        /*   Dcbs   dcbs   dcbs   dcbs   dcbs   dcbs   dcbs   dcbs   dcbs   */
       91    10243        /********************************************************************/
       92    10244        /**/
       93    10245    1   DCL M$LO DCB ;
       94    10246    1   DCL M$DO DCB;
       95    10247        /***************************************************************************/
       96    10248        /*   Static data   static data   static data   static data   static data   */
       97    10249        /***************************************************************************/
       98    10250        /**/
       99    10251        %XUH_PARAM (NAME = XUH_PARAM ,
      100    10252                    PROCNAME = VLP_LEMUR,
      101    10253                    PROCACCT = VLP_ACCT ,
      102    10254                    OUTDCB1 = M$LO ,
      103    10255                    OUTDCB2 = M$DO,
      104    10256                    STCLASS = STATIC) ;
      105    10317        %VLP_NAME (FPTN = VLP_LEMUR,
      106    10318                    NAME = 'LEMUR',
      107    10319                    LEN = 5 ,
      108    10320                    STCLASS = CONSTANT) ;
      109    10347        %VLP_ACCT ( ACCT=':SYS', STCLASS=CONSTANT );
      110    10360
      111    10361        %EJECT;
PL6.E3A0      #001=VYP$PARSE File=VYP$PARSE.:E05TSI                              WED 07/30/97 09:01 Page:9
      112    10362        %EJECT;
PL6.E3A0      #001=VYP$PARSE File=VYP$PARSE.:E05TSI                              WED 07/30/97 09:01 Page:10
      113    10363    1         PWORK_SIZE = 1024/*@PAGE_SIZE*/;          /* Set initial space request */
      114    10364    1         BREAK_FLAG = '0'B;
      115    10365    1         CALL VYP$PAR( 0, ADDR(VY_N_START_SYMBOL), PWORK_SIZE) ALTRET(PARSE_ERROR);
      116    10366    1         VY_COMMAND = VY_P_PCB_MAIN.OUT$ -> O$B.SUBLK$(0) -> O$B.CODE;
      117    10367    1         STOP = VY_P_PCB_MAIN.OUT$ -> O$B.NSUBLKS;
      118    10368    2         DO CASE( VY_COMMAND );
      119    10369    2           CASE( 12/*@HELP_COMMAND_VAL*/ );
      120    10370    2             VY_HELP = '1'B;
      121    10371    2             XUH_PARAM.HELP$ = VY_P_PCB_MAIN.OUT$ -> O$B.SUBLK$(0) -> O$B.SUBLK$(0) ->
             10371                      O$B.SUBLK$(0);
      122    10372    2             XUH_PARAM.TOPICS# = '0'B ;
      123    10373    2             CALL X$HELP (XUH_PARAM) ALTRET (HELP_ERR) ;
      124    10374    3             DO WHILE( '0'B );
      125    10375    3   HELP_ERR:     CALL VYE$ERRMSG( XUH_PARAM.ERR );
      126    10376    3                 IF NOT XUH_PARAM.ERR.MON  AND  XUH_PARAM.ERR.ERR# = 301
      127    10377    4                 THEN DO;
      128    10378    4                     VY_HELP = '11'B;
      129    10379    4                    END;
      130    10380    3                END;
      131    10381    2           CASE( 15/*@NULL_COMMAND_VAL*/ );
      132    10382
      133    10383                                                /* Null or comment line - ignore. */
      134    10384
      135    10385    2           CASE( 13/*@QUESTION_VAL*/ );
      136    10386
      137    10387    3             IF VY_HELP THEN DO;
      138    10388    3                 IF VY_HELP.TOPICS THEN
      139    10389    3                     XUH_PARAM.TOPICS# = '1'B;
      140    10390    3                 ELSE
      141    10391    3                     XUH_PARAM.MORE# = '1'B;
      142    10392    3                 CALL X$HELP ( XUH_PARAM ) ALTRET( HELP_ERR );
      143    10393    3                END;
      144    10394
      145    10395    2           CASE( 14/*@DQUESTION_VAL*/ );
      146    10396    3             IF VY_HELP THEN DO;
      147    10397    3                 IF VY_HELP.TOPICS THEN
      148    10398    3                     XUH_PARAM.TOPICS# = '1'B;
PL6.E3A0      #001=VYP$PARSE File=VYP$PARSE.:E05TSI                              WED 07/30/97 09:01 Page:11
      149    10399    3                 ELSE
      150    10400    3                     XUH_PARAM.ALL# = '1'B;
      151    10401    3                 CALL X$HELP ( XUH_PARAM ) ALTRET( HELP_ERR );
      152    10402    3                END;
      153    10403    2           CASE(
      154    10404    2                        3/*@C_COPY_KEY_WORD*/,
      155    10405    2                        4/*@C_EXTRACT_KEY_WORD*/ );
      156    10406    2             BREAK_FLAG = '1'B;
      157    10407    2             CALL VYD$FLST( VY_ROOT$ -> VY$NODE.HEAD$,
      158    10408    2                     VY_ROOT$ -> VY$NODE.TAIL$,
      159    10409    2                     VY_P_PCB_MAIN.OUT$ -> O$B.SUBLK$(1),
      160    10410    2                     0/*@OF*/ );
      161    10411    2             VY_ON_OVER = VY_P_PCB_MAIN.OUT$ -> O$B.SUBLK$(2) -> O$B.CODE;
      162    10412    3             IF STOP >= 4 THEN DO;
      163    10413    3                 CALL VYS$LST( VY_RUF$,
      164    10414    3                         VY_P_PCB_MAIN.OUT$ -> O$B.SUBLK$(3) -> O$B.SUBLK$(0),
      165    10415    3                         ADDR(NIL),
      166    10416    3                         1/*@RF*/,
      167    10417    3                         0,
      168    10418    3                         0 );
      169    10419    4                 IF STOP >= 5 THEN DO;     /* Options */
      170    10420    4   DO_OPT:
      171    10421    4                     BASE= 4;
      172    10422    4   DO_OPTIONS:
      173    10423    4                     HEAD$ = VY_P_PCB_MAIN.OUT$ -> O$B.SUBLK$(BASE);
      174    10424    4                     OPT_STOP = HEAD$ -> O$B.NSUBLKS - 1;
      175    10425    5                     DO ITEM_STOP = 0 TO OPT_STOP;
      176    10426    5                         START$ = HEAD$ -> O$B.SUBLK$( ITEM_STOP );
      177    10427    5                         KON_STOP = START$ -> O$B.CODE - 1;
      178    10428    6                         IF (KON_STOP ~= 4 /*@C_SEARCH_OPTION*/) THEN DO;
      179    10429                                  %CHK_DUP_OPT(
      180    10430                                  STRUCT="VY_OD.PRIMARY_OPTION_A(KON_STOP)",
      181    10431                                  STRUCT_NAME$="VY_ON.PRIMARY_OPTION_A(KON_STOP)");
      182    10438    6                             VY_O.PRIMARY_OPTION_A(KON_STOP) = 1;
      183    10439    6                            END;
      184    10440    6                         ELSE DO;
      185    10441                                  %CHK_DUP_OPT(STRUCT="VY_OD_SEARCH",
PL6.E3A0      #001=VYP$PARSE File=VYP$PARSE.:E05TSI                              WED 07/30/97 09:01 Page:12
      186    10442                                  STRUCT_NAME$="VY_ON_SEARCH$");
      187    10449    6                            END;
      188    10450    6                         DO CASE( KON_STOP + 1 );
      189    10451    6                           CASE( 1 /*@C_MAP_OPTIONS*/ );
      190    10452    6                             STOP = START$ -> O$B.NSUBLKS - 1;
      191    10453    7                             DO BASE = 1 TO STOP;
      192    10454    7                                 I = START$ -> O$B.SUBLK$(BASE) -> O$B.CODE;
      193    10455                                      %CHK_DUP_OPT(
      194    10456                                      STRUCT="VY_OD.MAP_A(I)",
      195    10457                                      STRUCT_NAME$="VY_ON.MAP_A(I)",
      196    10458                                      ERROR="GOTO SKIP_OPTION_MAP;");
      197    10465    7                                 VY_O.MAP_A(I) = 1;
      198    10466    7   SKIP_OPTION_MAP:
      199    10467    7                                END;       /* Do base = 1 to stop; */
      200    10468    6                           CASE( 2 /*@C_DUPLICATE_OPTIONS*/ );
      201    10469    6                             I = START$ -> O$B.SUBLK$(1) -> O$B.CODE - 1;
      202    10470    6                             VY_O.DUPL_A(I) = 1;
      203    10471    6                             VY_O.PRIMARY_OPTION.DUPLICATE = I+1;
      204    10472    6                           CASE( 3 /*@C_SEVERITY_OPTIONS*/ );
      205    10473    6                             CALL VYD$C2B(  I,
      206    10474    6                                     START$ -> O$B.SUBLK$(1) -> O$B.SUBLK$(0)
      207    10475    6                                     -> T$C,
      208    10476    6                                     10 );
      209    10477    6                             VY_O.SEV_ATTCH.VAL = I;
      210    10478    6                             VY_OD.SEV_ATTCH.VAL = '1'B/*@TRUE_B*/;
      211    10479    6                             VY_O.PRIMARY_OPTION.SEVERITY = I;
      212    10480    6                           CASE (5 /*@C_SEARCH_OPTION*/);
      213    10481    6                             ACCT_STOP=START$->O$B.NSUBLKS-1;
      214    10482    6                             SRCH_CURR$ = ADDR(NIL);
      215    10483    7                             DO BASE = 1 TO ACCT_STOP;
      216    10484    7                                 ACCT$=START$->O$B.SUBLK$(BASE);
      217    10485                                      %ALLOCATE (PTR$=SRCH_CURR$,
      218    10486                                      TYPE=@GDP,
      219    10487                                      SIZE = "SIZEW(VY$LLIST)");
      220    10494    8                                 IF (BASE = 1) THEN DO;
      221    10495    8                                     VY_SRCH_LST$ = SRCH_CURR$;
      222    10496    8                                     VY_SRCH_LST$->VY$LLIST.LINK$=ADDR(NIL);
PL6.E3A0      #001=VYP$PARSE File=VYP$PARSE.:E05TSI                              WED 07/30/97 09:01 Page:13
      223    10497    8                                    END;
      224    10498                                      %ALLOCATE(PTR$=SRCH_CURR$->VY$LLIST.ITEM$,
      225    10499                                      TYPE=@GDP,
      226    10500                                      SIZE="(ACCT$->O$S.COUNT + 4)/4");
      227    10507    7                                 SRCH_CURR$->VY$LLIST.ITEM$->T$C.COUNT=ACCT$->O$S.COUNT
             10507                                          ;
      228    10508    7                                 SRCH_CURR$->VY$LLIST.ITEM$->T$C.CHARS=ACCT$->O$S.TEXT;
      229    10509    8                                 IF (BASE ~= 1) THEN DO;
      230    10510    8                                     PRIOR$->VY$LLIST.LINK$=SRCH_CURR$;
      231    10511    8                                     SRCH_CURR$->VY$LLIST.LINK$=ADDR(NIL);
      232    10512    8                                    END;
      233    10513    7                                 PRIOR$=SRCH_CURR$;
      234    10514    7                                END;
      235    10515    6                           END;            /* Do case( KON_STOP ); */
      236    10516    5   SKIP_OPTION:
      237    10517    5                        END;               /* Do ITEM_STOP = 0 to OPT_STOP; */
      238    10518    4                    END;                   /* If stop >= 5 then do; */
      239    10519    3                END;                       /* If stop >= 4 then do; */
      240    10520    2           CASE(
      241    10521    2                        5/*@C_DELETE_KEY_WORD*/,
      242    10522    2                        6/*@C_LIST_KEY_WORD*/ );
      243    10523    2             CALL VYD$FLST( VY_ROOT$ -> VY$NODE.HEAD$,
      244    10524    2                     VY_ROOT$ -> VY$NODE.TAIL$,
      245    10525    2                     VY_P_PCB_MAIN.OUT$ -> O$B.SUBLK$(1),
      246    10526    2                     0/*@OF*/ );
      247    10527        /* Need stuff here */
      248    10528    3             IF STOP >= 3 THEN DO;
      249    10529    3                 BASE = 2;
      250    10530    3                 GOTO DO_OPTIONS;
      251    10531    3                END;
      252    10532    2           CASE(
      253    10533    2                        9/*@C_DEFINE_KEY_WORD*/,
      254    10534    2                        10/*@C_DROP_KEY_WORD*/ );
      255    10535    2             VY_SYMBOL$ = ADDR(NIL);
      256    10536    2             HEAD$ = ADDR(NIL);
      257    10537    2             TAIL$ = ADDR(NIL);
      258    10538    2             CURR$ = VY_P_PCB_MAIN.OUT$ -> O$B.SUBLK$(1);
PL6.E3A0      #001=VYP$PARSE File=VYP$PARSE.:E05TSI                              WED 07/30/97 09:01 Page:14
      259    10539    2             OPT_STOP = CURR$ -> O$B.NSUBLKS - 1;
      260    10540    3             DO BASE = 0 TO OPT_STOP;
      261    10541    3                 START$ = CURR$ -> O$B.SUBLK$(BASE) -> O$B.SUBLK$(0);
      262    10542                      %ALLOCATE( PTR$=HEAD$, TYPE=@GDP, SIZE="SIZEW(VY$LLIST)" );
      263    10549    3                 HEAD$ -> VY$LLIST.LINK$ = ADDR(NIL);
      264    10550    3                 SIZE =
      265    10551                              %TEXTH_SIZEW( CNT="START$->T$C.COUNT");
      266    10554    3                 ;
      267    10555                      %ALLOCATE( PTR$=LEVEL1$, TYPE=@GDP, SIZE=SIZE );
      268    10562    3                 HEAD$ -> VY$LLIST.ITEM$ = LEVEL1$;
      269    10563    3                 LEVEL1$ -> B$DNAME.COUNT = START$ -> T$C.COUNT;
      270    10564    3                 LEVEL1$ -> B$DNAME.TEXT  = START$ -> T$C.CHARS;
      271    10565        /**/
      272    10566    3                 IF VY_SYMBOL$ = ADDR(NIL) THEN VY_SYMBOL$ = HEAD$;
      273    10567    3                 ELSE TAIL$ -> VY$LLIST.LINK$ = HEAD$;
      274    10568    3                 TAIL$ = HEAD$;
      275    10569    3                END;                       /* Do base = 0 to OPT_STOP; */
      276    10570    2             VY_ON_OVER = VY_P_PCB_MAIN.OUT$ -> O$B.SUBLK$(2) -> O$B.CODE;
      277    10571    2             CALL VYD$FLST( VY_ROOT$ -> VY$NODE.HEAD$,
      278    10572    2                     VY_ROOT$ -> VY$NODE.TAIL$,
      279    10573    2                     VY_P_PCB_MAIN.OUT$ -> O$B.SUBLK$(3),
      280    10574    2                     0/*@OF*/ );
      281    10575    2             IF STOP >= 5 THEN GOTO DO_OPT;
      282    10576    2           END;                            /* Do case( VY_COMMAND ); */
      283    10577    1         CALL VYF$FREE( 3/*@DS3*/, PWORK_SIZE, 0/*@NO*/ );
             10577                  /* Give back the work area */
      284    10578    1         RETURN;
      285    10579        %EJECT;
PL6.E3A0      #001=VYP$PARSE File=VYP$PARSE.:E05TSI                              WED 07/30/97 09:01 Page:15
      286    10580    1   PARSE_ERROR:;
      287    10581    1   VYP$DUP_OPT:
      288    10582    1         PROC( NAME$ );
      289    10583        %P;

             10591    1   /*******************************************************************************
             10592    1   *                                                                              *
             10593    1   *                          PARAMETERS                                              *
             10594    1   *                                                                              *
             10595    1   *******************************************************************************/

      290    10599    2   DCL NAME$           PTR;
      291    10600        /**/
      292    10601        /**/
      293    10602        /**/
      294    10603        /*E*  ERROR: VYP-E$DUP_OPT_VY-0
      295    10604              MESSAGE: Duplicate %U1 option ignored. First occurrence taken.
      296    10605              DESCRIPTION: SELF-EXPLANATORY.
      297    10606        */
      298    10607    2         VY_EFIELD1.COUNT = NAME$ -> P$LIT.COUNT;
      299    10608    2         VY_EFIELD1.CHARS = NAME$ -> P$LIT.TEXT;
      300    10609              %SCREAM(
      301    10610              ERR#=%E$DUP_OPT_VY,
      302    10611              MID="'P'",
      303    10612              LEVEL=%@E$W_VY);
      304    10615    2         RETURN;
      305    10616    2   END VYP$DUP_OPT;
      306    10617
      307    10618
      308    10619
      309    10620    1   END VYP$PARSE;

PL6.E3A0      #001=VYP$PARSE File=VYP$PARSE.:E05TSI                              WED 07/30/97 09:01 Page:16
--  Include file information  --

   VY_PSUBS_C.:E05TOU  is referenced.
   XU_PERR_C.:E05TOU  is referenced.
   XU_SUBS_C.:E05TOU  is referenced.
   XUH_MACRO_C.:E05TOU  is referenced.
   B$OBJECT_C.:E05TOU  is referenced.
   VY_DCB_R.:E05TOU  cannot be made into a system file and is referenced.
   VY_DATA_R.:E05TOU  cannot be made into a system file and is referenced.
   XU_MACRO_C.:E05TOU  is referenced.
   VY_FIXED_R.:E05TOU  cannot be made into a system file and is referenced.
   CP_6.:E05TOU  cannot be made into a system file and is referenced.
   VY_MACRO_C.:E05TOU  is referenced.
   VY_PERR_C.:E05TOU  is referenced.
   VY_SUBS_C.:E05TOU  is referenced.
   VY_INC_NO_C.:E05TOU  is referenced.
   VY_SWITCH_C.:E05TOU  is referenced.
   VY_INC_C.:E05TOU  is referenced.
   B$JIT_C.:E05TOU  was found in the system file and is never referenced.
   CP_6_C.:E05TOU  was found in the system file and is referenced.
      No diagnostics issued in procedure VYP$PARSE.

   Procedure VYP$PARSE requires 539 words for executable code.
   Procedure VYP$PARSE requires 14 words of local(AUTO) storage.

    No errors detected in file VYP$PARSE.:E05TSI    .

PL6.E3A0      #001=VYP$PARSE File=VYP$PARSE.:E05TSI                              WED 07/30/97 09:01 Page:17

 Object Unit name= VYP$PARSE                                  File name= VYP$PARSE.:E05TOU
 UTS= JUL 30 '97 09:01:10.72 WED                              Compiler= PL-6/E31         Sev=      00
 SharedLib= :SHARED_SYSTEM                                    Alt SharedLib=


    ****  Control sections  ****

 Sect   Type Bound  Init  Size OctSiz  Section name(segment info)
    0   DCB   even  none     0      0  M$UC
    1   Data  even  none    88    130  VYP$PARSE
    2  RoData even  UTS      5      5  VYP$PARSE
    3   DCB   even  none     0      0  M$LO
    4   DCB   even  none     0      0  M$DO
    5   Proc  even  none   539   1033  VYP$PARSE
    6  RoData even  none    31     37  VYP$PARSE

    ****  Entry defs  ****

                              Check   Calling
                             calling  sequence
  Sect OctLoc Primary Altret sequence   type   Parms  Name
     5      0   yes            yes      Std        0  VYP$PARSE
PL6.E3A0      #001=VYP$PARSE File=VYP$PARSE.:E05TSI                              WED 07/30/97 09:01 Page:18

  ****  Entry refs  ****

         Check        Calling
        calling       sequence
Altret sequence SRef   type   Args  Name
 yes     yes           Std       3 VYP$PAR
         yes           Std       3 VYA$GET
 yes     yes           Std       1 X$HELP
         yes           Std       1 VYE$ERRMSG
 yes     yes           Std       6 VYS$LST
         yes           Std       3 VYD$C2B
         yes           Std       3 VYF$FREE
         yes           Std       4 VYD$FLST
         yes           Std       4 VYE$ERROR
                       nStd      0 X66_AUTO_0
                       Std       0 B_CONSPOOL_D
                       nStd      0 X66_ARET

  ****  Data refs  ****

  Flags:  r = read only, s = secondary
Flgs Name                             Flgs Name                             Flgs Name
     M$UC                                  VY_P_PCB_MAIN                         VY_OD_SEARCH
     VY_ON_SEARCH$                         VY_SRCH_LST$                          VY_COMMAND
     VY_ON_OVER                            VY_ROOT$                              VY_RUF$
     VY_ERRORS                             VY_M_FREE                             VY_M_ALL
     VY_M_BASE_PTR                         VY_O                                  VY_OD
     VY_EFIELD1                            BREAK_FLAG                            VY_HELP
     VY_PAR_UNWIND                         VY_SYMBOL$                            VY_N_START_SYMBOL
     VY_ON                                 M$LO                                  M$DO
     B_VECTNIL
PL6.E3A0      #001=VYP$PARSE File=VYP$PARSE.:E05TSI                              WED 07/30/97 09:01 Page:19

  ****  Segment refs  ****

  Flags:  r = read only, s = secondary
Flgs Name                             Flgs Name                             Flgs Name
     ISSID                                 NULLSID
PL6.E3A0      #001=VYP$PARSE File=VYP$PARSE.:E05TSI                              WED 07/30/97 09:01 Page:20


        1        1        /*T***********************************************************/
        2        2        /*T*                                                         */
        3        3        /*T* Copyright (c) Bull HN Information Systems Inc., 1997    */
        4        4        /*T*                                                         */
        5        5        /*T***********************************************************/
        6        6        /*X* DMR,PLM=6,IND=4,CSU=2,EXM=0,ECU=2,MOC,DCI=4,CRT=4,CTI=8,CCC */
        7        7        %MACRO CHK_DUP_OPT(
        8        8              STRUCT=STRUCT,
        9        9              STRUCT_NAME$=STRUCT_NAME$,
       10       10              ERROR="GOTO SKIP_OPTION;");
       11       11              IF STRUCT THEN DO;
       12       12                  CALL VYP$DUP_OPT( STRUCT_NAME$ );
       13       13                  ERROR
       14       14                 END;
       15       15              ELSE STRUCT = @TRUE_B;
       16       16        %MEND;
       17       17        VYP$PARSE: PROC;

     17  5 000000   000000 700200 xent  VYP$PARSE    TSX0  ! X66_AUTO_0
         5 000001   000016 000000                    ZERO    14,0

       18       18        /*
       19       19                  Include files
       20       20        */
       21       21        %INCLUDE VY_INC_C;
       22     9197        %INCLUDE XUH_MACRO_C;
       23     9281        %VY$LLIST;

              9293    1   /*******************************************************************************
              9294    1   *                                                                              *
              9295    1   *                          VY$LLIST                                               *
              9296    1   *                                                                              *
              9297    1   *******************************************************************************/

              9302    1   DCL 1 VY$LLIST                BASED     ALIGNED,
              9303    1         2 LINK$                  PTR  ALIGNED,
PL6.E3A0      #001=VYP$PARSE File=VYP$PARSE.:E05TSI                              WED 07/30/97 09:01 Page:21
              9304    1         2 ITEM$                  PTR  ALIGNED;
       24     9307        %VY$NODE;

              9319    1   /*******************************************************************************
              9320    1   *                                                                              *
              9321    1   *                          VY$NODE                                                *
              9322    1   *                                                                              *
              9323    1   *******************************************************************************/

              9339    1   DCL 1 VY$NODE      ALIGNED    BASED,
              9340    1         2 SON$ PTR /*(ADDR(NIL))*/, /* Son pointer                      */
              9341    1         2 BROTHER$ PTR /*(ADDR(NIL))*/, /* Brother pointer              */
              9342    1         2 FATHER$ PTR /*(ADDR(NIL))*/, /* Father pointer                */
              9343    1         2 PATH$ PTR /*(ADDR(NIL))*/, /* Path   pointer                  */
              9344    1         2 HEAD$       PTR /*(ADDR(NIL))*/, /* Head pointer to
              9345                              to list of file nodes for this node            */
              9346    1         2 TAIL$ PTR /*(ADDR(NIL))*/, /* Tail pointer to list            */
              9347    1         2 SHARED_LIB_HEAD$ PTR /*(ADDR(NIL))*/,
              9347                  /* Head pointer to shared library list */
              9348    1         2 LIB_HEAD$         PTR /*(ADDR(NIL))*/,
              9348                  /* Head pointer to list of shared libraries
              9349                                          which have been mapped to included libraries */
              9350    1         2 NUM          UBIN(36)  UNAL,    /* Node number                        */
              9351    1         2 DEPTH          UBIN(36)  UNAL,  /* Depth; ROOT=0*/
              9352    1         2 ADDR_START_A(0:2/*@ROS*/) SBIN WORD /*(0*3)*/, /* Array            */
              9353    1         2 ADDR_START REDEF  ADDR_START_A,
              9354    1           3 RDATA       SBIN WORD,   /* First address for this node in data     */
              9355    1           3 RPROC       SBIN WORD,   /* First address for this node in proc     */
              9356    1           3 ROS       SBIN WORD,          /* Last address for program in ros    */
              9357    1         2 ADDR_STOP_A(0:2/*@ROS*/) SBIN WORD /*(-1*3)*/, /* Array            */
              9358    1         2 ADDR_STOP  REDEF  ADDR_STOP_A,
              9359    1           3 RDATA       SBIN WORD,        /* Last address for this node in data */
              9360    1           3 RPROC       SBIN WORD,        /* Last address for this node in proc */
              9361    1           3 ROS       SBIN WORD,          /* Last address for program in ros    */
              9362    1         2 START_PAGE#_A(0:2/*@ROS*/) SBIN WORD /*(0*3)*/, /* Array           */
              9363    1         2 START_PAGE# REDEF START_PAGE#_A,
              9364    1           3 RDATA       SBIN WORD,   /* First page    for this node in data     */
PL6.E3A0      #001=VYP$PARSE File=VYP$PARSE.:E05TSI                              WED 07/30/97 09:01 Page:22
              9365    1           3 RPROC       SBIN WORD,   /* First page    for this node in proc     */
              9366    1           3 ROS       SBIN WORD,          /* First page   for program in ros    */
              9367    1         2 STOP_PAGE#_A(0:2/*@ROS*/) SBIN WORD /*(-1*3)*/, /* Array*/
              9368    1         2 STOP_PAGE#  REDEF STOP_PAGE#_A,
              9369    1           3 RDATA       SBIN WORD,   /* Last  page    for this node in data     */
              9370    1           3 RPROC       SBIN WORD,   /* Last  page    for this node in proc     */
              9371    1           3 ROS       SBIN WORD,          /* Last  page   for program in ros    */
              9372    1         2 START_SC_ALL$ PTR /*(ADDR(NIL))*/,
              9372                  /* Starting pointer for common sections for this node */
              9373    1         2 STOP_SC_ALL$ PTR /*(ADDR(NIL))*/,
              9373                  /* Stopping pointer for common sections for this node */
              9374    1         2 L_START,
              9375    1           3 SN$ PTR /*(ADDR(NIL))*/, /* Segment definition names        */
              9376    1           3 DN$ PTR /*(ADDR(NIL))*/, /* Def names                       */
              9377    1           3 RN$ PTR /*(ADDR(NIL))*/, /* Ref names                       */
              9378    1           3 SC$ PTR /*(ADDR(NIL))*/, /* Sections                        */
              9379    1           3 ED$ PTR /*(ADDR(NIL))*/, /* Entry defs*/
              9380    1           3 ER$ PTR /*(ADDR(NIL))*/, /* Entry refs*/
              9381    1           3 DD$ PTR /*(ADDR(NIL))*/, /* Data defs                       */
              9382    1           3 DR$ PTR /*(ADDR(NIL))*/, /* Data refs                       */
              9383    1           3 SD$ PTR /*(ADDR(NIL))*/, /* Seg defs                        */
              9384    1           3 SR$ PTR /*(ADDR(NIL))*/, /* Seg refs                        */
              9385    1         2 L_START_A$(0:9)     REDEF L_START PTR,
              9386    1         2 L_STOP,
              9387    1           3 SN$ PTR /*(ADDR(NIL))*/, /* Segment definition names        */
              9388    1           3 DN$ PTR /*(ADDR(NIL))*/, /* Def names                       */
              9389    1           3 RN$ PTR /*(ADDR(NIL))*/, /* Ref names                       */
              9390    1           3 SC$ PTR /*(ADDR(NIL))*/, /* Sections                        */
              9391    1           3 ED$ PTR /*(ADDR(NIL))*/, /* Entry defs*/
              9392    1           3 ER$ PTR /*(ADDR(NIL))*/, /* Entry refs*/
              9393    1           3 DD$ PTR /*(ADDR(NIL))*/, /* Data defs                       */
              9394    1           3 DR$ PTR /*(ADDR(NIL))*/, /* Data refs                       */
              9395    1           3 SD$ PTR /*(ADDR(NIL))*/, /* Seg defs                        */
              9396    1           3 SR$ PTR /*(ADDR(NIL))*/, /* Seg refs                        */
              9397    1         2 L_STOP_A$(0:9) REDEF   L_STOP    PTR,
              9398    1         2 L_SIZE,
              9399    1           3 SN      UBIN /*(0)*/, /* Segment definition names           */
PL6.E3A0      #001=VYP$PARSE File=VYP$PARSE.:E05TSI                              WED 07/30/97 09:01 Page:23
              9400    1           3 DN      UBIN /*(0)*/, /* Def names                          */
              9401    1           3 RN      UBIN /*(0)*/, /* Ref names                          */
              9402    1           3 SC      UBIN /*(0)*/, /* Sections                           */
              9403    1           3 ED      UBIN /*(0)*/, /* Entry defs*/
              9404    1           3 ER      UBIN /*(0)*/, /* Entry refs*/
              9405    1           3 DD      UBIN /*(0)*/, /* Data defs                          */
              9406    1           3 DR      UBIN /*(0)*/, /* Data refs                          */
              9407    1           3 SD      UBIN /*(0)*/, /* Seg defs                           */
              9408    1           3 SR      UBIN /*(0)*/, /* Seg refs                           */
              9409    1         2 L_SIZE_A(0:9)  REDEF   L_SIZE    UBIN,
              9410    1         2 L_PREV_SIZE,
              9411    1           3 SN      UBIN /*(0)*/, /* Segment definition names           */
              9412    1           3 DN      UBIN /*(0)*/, /* Def names                          */
              9413    1           3 RN      UBIN /*(0)*/, /* Ref names                          */
              9414    1           3 SC      UBIN /*(0)*/, /* Sections                           */
              9415    1           3 ED      UBIN /*(0)*/, /* Entry defs*/
              9416    1           3 ER      UBIN /*(0)*/, /* Entry refs*/
              9417    1           3 DD      UBIN /*(0)*/, /* Data defs                          */
              9418    1           3 DR      UBIN /*(0)*/, /* Data refs                          */
              9419    1           3 SD      UBIN /*(0)*/, /* Seg defs                           */
              9420    1           3 SR      UBIN /*(0)*/, /* Seg refs                           */
              9421    1         2 L_PREV_SIZE_A(0:9)  REDEF   L_PREV_SIZE    UBIN,
              9422    1         2 BIT_MAP                ALIGNED,
              9423    1           3 DATA                  ALIGNED,
              9424    1             4 BITS(0:255)          BIT(1)    UNAL /*('0'B*256)*/,
              9425    1           3 RPROC                 ALIGNED,
              9426    1             4 BITS(0:255)          BIT(1)    UNAL /*('0'B*256)*/,
              9427    1           3 ROS                   ALIGNED,
              9428    1             4 BITS(0:255)          BIT(1)    UNAL /*('0'B*256)*/,
              9429    1         2 L_SC_START,
              9430    1           3 SC_BLK_COM$ PTR /*(ADDR(NIL))*/, /* Blank common            */
              9431    1           3 SC_ROOT_LBL_COM$ PTR /*(ADDR(NIL))*/, /* Root labelled common */
              9432    1           3 SC_LBL_COM$ PTR /*(ADDR(NIL))*/, /* Labelled common         */
              9433    1           3 SC_DCB$ PTR /*(ADDR(NIL))*/, /* Dcbs                        */
              9434    1         2 L_SC_START_A$(0:3)  REDEF L_SC_START PTR,
              9435    1         2 L_SC_STOP,
              9436    1           3 SC_BLK_COM$ PTR /*(ADDR(NIL))*/, /* Blank common            */
PL6.E3A0      #001=VYP$PARSE File=VYP$PARSE.:E05TSI                              WED 07/30/97 09:01 Page:24
              9437    1           3 SC_ROOT_LBL_COM$ PTR /*(ADDR(NIL))*/, /* Root labelled common */
              9438    1           3 SC_LBL_COM$ PTR /*(ADDR(NIL))*/, /* Labelled common         */
              9439    1           3 SC_DCB$ PTR /*(ADDR(NIL))*/, /* Dcbs                        */
              9440    1         2 L_SC_STOP_A$(0:3)   REDEF L_SC_STOP  PTR,
              9441    1         2 PROMOTE_HEAD,
              9442    1           3 BLK_COM$              PTR /*(ADDR(NIL))*/,
              9443    1           3 LBL_COM$              PTR /*(ADDR(NIL))*/,
              9444    1         2 PROMOTE_HEAD_A$(0:1) REDEF PROMOTE_HEAD     PTR,
              9445    1         2 PROMOTE_TAIL,
              9446    1           3 BLK_COM$              PTR /*(ADDR(NIL))*/,
              9447    1           3 LBL_COM$              PTR /*(ADDR(NIL))*/,
              9448    1         2 PROMOTE_TAIL_A$(0:1) REDEF PROMOTE_TAIL     PTR,
              9449    1         2 HAVE_ASL          BIT(1)    UNAL /*('0'B)*/,
              9450    1         2 ALL_BLK_COM          BIT(1)    UNAL /*('0'B)*/,
              9451    1         2 *                 BIT(34)   UNAL /*('0'B)*/,
              9452    1         2 BLANK_COMMON$     PTR       ALIGNED /*(ADDR(NIL))*/;

       25     9456        %T$C;

              9468    1   /*******************************************************************************
              9469    1   *                                                                              *
              9470    1   *                          T$C                                                 *
              9471    1   *                                                                              *
              9472    1   *******************************************************************************/

              9477    1   DCL 1 T$C           BASED     ALIGNED,  /* Text count                         */
              9478    1         2 COUNT        UBIN( 9) UNAL,
              9479    1         2 CHARS        CHAR( T$C.COUNT )   UNAL;
              9480    1   DCL 1 T$C_UNAL      BASED     UNAL,     /* Text count                         */
              9481    1         2 COUNT        UBIN( 9) UNAL,
              9482    1         2 CHARS        CHAR( T$C_UNAL.COUNT ) UNAL;
       26     9485        %B$DNAME( NAME=B$DNAME, STCLASS=BASED );
       27     9504        %EJECT;
PL6.E3A0      #001=VYP$PARSE File=VYP$PARSE.:E05TSI                              WED 07/30/97 09:01 Page:25
       28     9505        %INCLUDE XU_SUBS_C;
       29     9597        %INCLUDE XU_PERR_C;
       30     9788        %INCLUDE VY_PSUBS_C;
       31     9849        %PARSE$OUT( NAME=O$B, STCLASS="BASED");
       32     9894        %PARSE$SYM( NAME=O$S, STCLASS="BASED");
       33     9932        %P$LIT( NAME=P$LIT, STCLASS="BASED" );
       34     9985        %POINTER;
       35     9990        %INDEX;
       36    10000        %E;

             10008    1   /*******************************************************************************
             10009    1   *                                                                              *
             10010    1   *                          ENTRY                                                 *
             10011    1   *                                                                              *
             10012    1   *******************************************************************************/

       37    10016    1   DCL VYP$PAR         ENTRY(3)       ALTRET;
       38    10017    1   DCL X$PARSE ENTRY(1) ALTRET;
       39    10018    1   DCL VYA$GET         ENTRY(3);
       40    10019    1   DCL VYF$FREE        ENTRY(3);
       41    10020    1   DCL VYR$READ        ENTRY(2);
       42    10021    1   DCL VYW$WRITE       ENTRY(3) ALTRET;
       43    10022    1   DCL VYD$C2B         ENTRY(3);
       44    10023    1   DCL VYA$ND          ENTRY(2);
       45    10024    1   DCL VYD$FLST        ENTRY(4);
       46    10025    1   DCL VYS$LST         ENTRY(6) ALTRET;
       47    10026    1   DCL VYP$TREE        ENTRY(7);
       48    10027    1   DCL VYE$ERROR          ENTRY(4);
       49    10028        %U;

             10036    1   /*******************************************************************************
             10037    1   *                                                                              *
             10038    1   *                          UBIN                                                 *
             10039    1   *                                                                              *
             10040    1   *******************************************************************************/

       50    10044    1   DCL CHAR_COUNT      UBIN(36) ALIGNED    STATIC/*AUTO*/;
PL6.E3A0      #001=VYP$PARSE File=VYP$PARSE.:E05TSI                              WED 07/30/97 09:01 Page:26
       51    10045    1   DCL PWORK_SIZE      UBIN(36) ALIGNED    STATIC/*AUTO*/;
       52    10046    1   DCL SIZE            UBIN(36) ALIGNED    STATIC/*AUTO*/;
       53    10047    1   DCL STOP            UBIN(36) ALIGNED    STATIC/*AUTO*/;
       54    10048    1   DCL OPT_STOP        UBIN(36) ALIGNED    STATIC/*AUTO*/;
       55    10049    1   DCL ITEM_STOP       UBIN(36) ALIGNED    STATIC/*AUTO*/;
       56    10050    1   DCL KON_STOP        UBIN(36) ALIGNED    STATIC/*AUTO*/;
       57    10051    1   DCL ACCT_STOP       UBIN(36) ALIGNED    STATIC/*AUTO*/;
       58    10052    1   DCL CTEMP           UBIN(36) ALIGNED    STATIC/*AUTO*/;
       59    10053    1   DCL BASE            UBIN(36) ALIGNED    STATIC/*AUTO*/;
       60    10054        %PTR;

             10062    1   /*******************************************************************************
             10063    1   *                                                                              *
             10064    1   *                          PTR                                                 *
             10065    1   *                                                                              *
             10066    1   *******************************************************************************/

       61    10070    1   DCL HEAD$           PTR  ALIGNED   STATIC/*AUTO*/;
       62    10071    1   DCL TAIL$           PTR  ALIGNED   STATIC/*AUTO*/;
       63    10072    1   DCL DUMMY$          PTR  ALIGNED        STATIC/*AUTO*/;
       64    10073    1   DCL PWORK$          PTR  ALIGNED        STATIC/*AUTO*/;
       65    10074    1   DCL START$          PTR  ALIGNED        STATIC/*AUTO*/;
       66    10075    1   DCL LEVEL1$         PTR  ALIGNED        STATIC/*AUTO*/;
       67    10076    1   DCL LEVEL2$         PTR  ALIGNED        STATIC/*AUTO*/;
       68    10077    1   DCL LEVEL3$         PTR  ALIGNED        STATIC/*AUTO*/;
       69    10078    1   DCL CURR$           PTR  ALIGNED   STATIC/*AUTO*/;
       70    10079    1   DCL NODE$           PTR  ALIGNED   STATIC/*AUTO*/;
       71    10080    1   DCL ACCT$           PTR  ALIGNED   STATIC/*AUTO*/;
       72    10081    1   DCL SRCH_CURR$      PTR  ALIGNED   STATIC/*AUTO*/;
       73    10082    1   DCL PRIOR$          PTR  ALIGNED   STATIC/*AUTO*/;
       74    10083        /**/
       75    10084        /**/
       76    10085        /**/
       77    10086    1   DCL VY_N_START_SYMBOL    UBIN(36)       SYMREF;
       78    10087        /**/
       79    10088    1   DCL ACCT_NAME CHAR(8) BASED;
       80    10089    1   DCL 1 STAR_G         ALIGNED   CONSTANT,
PL6.E3A0      #001=VYP$PARSE File=VYP$PARSE.:E05TSI                              WED 07/30/97 09:01 Page:27
       81    10090    1         2 COUNT        UBIN(9)   UNAL INIT(2),
       82    10091    1         2 CHARS        CHAR(2)   UNAL INIT('*G');
       83    10092        %OPTIONS(NAME=VY_ON,STCLASS=SYMREF,DTYPE="PTR");
       84    10236        /*****************************************************************/
       85    10237        /*    Entry dcls   entry dcls   entry dcls   entry dcls   entry dcls   */
       86    10238        /**********************************************************************/
       87    10239    1   DCL X$HELP ENTRY(1) ALTRET ;
       88    10240    1   DCL VYE$ERRMSG ENTRY(1);
       89    10241        /********************************************************************/
       90    10242        /*   Dcbs   dcbs   dcbs   dcbs   dcbs   dcbs   dcbs   dcbs   dcbs   */
       91    10243        /********************************************************************/
       92    10244        /**/
       93    10245    1   DCL M$LO DCB ;
       94    10246    1   DCL M$DO DCB;
       95    10247        /***************************************************************************/
       96    10248        /*   Static data   static data   static data   static data   static data   */
       97    10249        /***************************************************************************/
       98    10250        /**/
       99    10251        %XUH_PARAM (NAME = XUH_PARAM ,
      100    10252                    PROCNAME = VLP_LEMUR,
      101    10253                    PROCACCT = VLP_ACCT ,
      102    10254                    OUTDCB1 = M$LO ,
      103    10255                    OUTDCB2 = M$DO,
      104    10256                    STCLASS = STATIC) ;
      105    10317        %VLP_NAME (FPTN = VLP_LEMUR,
      106    10318                    NAME = 'LEMUR',
      107    10319                    LEN = 5 ,
      108    10320                    STCLASS = CONSTANT) ;
      109    10347        %VLP_ACCT ( ACCT=':SYS', STCLASS=CONSTANT );
      110    10360
      111    10361        %EJECT;
PL6.E3A0      #001=VYP$PARSE File=VYP$PARSE.:E05TSI                              WED 07/30/97 09:01 Page:28
      112    10362        %EJECT;
PL6.E3A0      #001=VYP$PARSE File=VYP$PARSE.:E05TSI                              WED 07/30/97 09:01 Page:29
      113    10363    1         PWORK_SIZE = 1024/*@PAGE_SIZE*/;          /* Set initial space request */

  10363  5 000002   002000 235007                    LDA     1024,DL
         5 000003   000010 755000 1                  STA     PWORK_SIZE

      114    10364    1         BREAK_FLAG = '0'B;

  10364  5 000004   000000 450000 xsym               STZ     BREAK_FLAG

      115    10365    1         CALL VYP$PAR( 0, ADDR(VY_N_START_SYMBOL), PWORK_SIZE) ALTRET(PARSE_ERROR);

  10365  5 000005   000000 236000 6                  LDQ     0
         5 000006   200006 756100                    STQ     @NAME$+1,,AUTO
         5 000007   000001 236000 6                  LDQ     1
         5 000010   200011 756100                    STQ     @NAME$+4,,AUTO
         5 000011   200006 630500                    EPPR0   @NAME$+1,,AUTO
         5 000012   200010 450500                    STP0    @NAME$+3,,AUTO
         5 000013   000002 236000 6                  LDQ     2
         5 000014   200007 756100                    STQ     @NAME$+2,,AUTO
         5 000015   200007 630500                    EPPR0   @NAME$+2,,AUTO
         5 000016   000021 631400 xsym               EPPR1   B_VECTNIL+17
         5 000017   000000 701000 xent               TSX1    VYP$PAR
         5 000020   001012 702000 5                  TSX2    PARSE_ERROR

      116    10366    1         VY_COMMAND = VY_P_PCB_MAIN.OUT$ -> O$B.SUBLK$(0) -> O$B.CODE;

  10366  5 000021   000003 470400 xsym               LDP0    VY_P_PCB_MAIN+3
         5 000022   000003 471500                    LDP1    3,,PR0
         5 000023   100000 236100                    LDQ     0,,PR1
         5 000024   777777 376007                    ANQ     -1,DL
         5 000025   000000 756000 xsym               STQ     VY_COMMAND

      117    10367    1         STOP = VY_P_PCB_MAIN.OUT$ -> O$B.NSUBLKS;

  10367  5 000026   000001 236100                    LDQ     1,,PR0
         5 000027   000022 772000                    QRL     18
         5 000030   000012 756000 1                  STQ     STOP
PL6.E3A0      #001=VYP$PARSE File=VYP$PARSE.:E05TSI                              WED 07/30/97 09:01 Page:30

      118    10368    2         DO CASE( VY_COMMAND );

  10368  5 000031   000000 235000 xsym               LDA     VY_COMMAND
         5 000032   000017 115007                    CMPA    15,DL
         5 000033   000035 602005 5                  TNC     s:10368+4,AL
         5 000034   001005 710000 5                  TRA     s:10577
         5 000035   001005 710000 5                  TRA     s:10577
         5 000036   001005 710000 5                  TRA     s:10577
         5 000037   001005 710000 5                  TRA     s:10577
         5 000040   000144 710000 5                  TRA     s:10406
         5 000041   000144 710000 5                  TRA     s:10406
         5 000042   000574 710000 5                  TRA     s:10523
         5 000043   000574 710000 5                  TRA     s:10523
         5 000044   001005 710000 5                  TRA     s:10577
         5 000045   001005 710000 5                  TRA     s:10577
         5 000046   000621 710000 5                  TRA     s:10535
         5 000047   000621 710000 5                  TRA     s:10535
         5 000050   001005 710000 5                  TRA     s:10577
         5 000051   000054 710000 5                  TRA     s:10370
         5 000052   000106 710000 5                  TRA     s:10387
         5 000053   000125 710000 5                  TRA     s:10396

      119    10369    2           CASE( 12/*@HELP_COMMAND_VAL*/ );

      120    10370    2             VY_HELP = '1'B;

  10370  5 000054   400000 236003                    LDQ     -131072,DU
         5 000055   000000 756000 xsym               STQ     VY_HELP

      121    10371    2             XUH_PARAM.HELP$ = VY_P_PCB_MAIN.OUT$ -> O$B.SUBLK$(0) -> O$B.SUBLK$(0) ->
             10371                      O$B.SUBLK$(0);

  10371  5 000056   100003 473500                    LDP3    3,,PR1
         5 000057   300003 236100                    LDQ     3,,PR3
         5 000060   000047 756000 1                  STQ     XUH_PARAM+9

PL6.E3A0      #001=VYP$PARSE File=VYP$PARSE.:E05TSI                              WED 07/30/97 09:01 Page:31
      122    10372    2             XUH_PARAM.TOPICS# = '0'B ;

  10372  5 000061   000003 236000 6                  LDQ     3
         5 000062   000050 356000 1                  ANSQ    XUH_PARAM+10

      123    10373    2             CALL X$HELP (XUH_PARAM) ALTRET (HELP_ERR) ;

  10373  5 000063   000004 630400 6                  EPPR0   4
         5 000064   000017 631400 xsym               EPPR1   B_VECTNIL+15
         5 000065   000000 701000 xent               TSX1    X$HELP
         5 000066   000070 702000 5                  TSX2    HELP_ERR

      124    10374    3             DO WHILE( '0'B );

  10374  5 000067   001005 710000 5                  TRA     s:10577

      125    10375    3   HELP_ERR:     CALL VYE$ERRMSG( XUH_PARAM.ERR );

  10375  5 000070   000005 630400 6     HELP_ERR     EPPR0   5
         5 000071   000017 631400 xsym               EPPR1   B_VECTNIL+15
         5 000072   000000 701000 xent               TSX1    VYE$ERRMSG
         5 000073   000000 011000                    NOP     0

      126    10376    3                 IF NOT XUH_PARAM.ERR.MON  AND  XUH_PARAM.ERR.ERR# = 301

  10376  5 000074   000051 236000 1                  LDQ     XUH_PARAM+11
         5 000075   400000 316007                    CANQ    -131072,DL
         5 000076   000105 601000 5                  TNZ     s:10380
         5 000077   000051 236000 1                  LDQ     XUH_PARAM+11
         5 000100   377770 376007                    ANQ     131064,DL
         5 000101   004550 116007                    CMPQ    2408,DL
         5 000102   000105 601000 5                  TNZ     s:10380

      127    10377    4                 THEN DO;

      128    10378    4                     VY_HELP = '11'B;

PL6.E3A0      #001=VYP$PARSE File=VYP$PARSE.:E05TSI                              WED 07/30/97 09:01 Page:32
  10378  5 000103   600000 236003                    LDQ     -65536,DU
         5 000104   000000 756000 xsym               STQ     VY_HELP

      129    10379    4                    END;

      130    10380    3                END;

  10380  5 000105   001005 710000 5                  TRA     s:10577

      131    10381    2           CASE( 15/*@NULL_COMMAND_VAL*/ );

      132    10382
      133    10383                                                /* Null or comment line - ignore. */
      134    10384
      135    10385    2           CASE( 13/*@QUESTION_VAL*/ );

      136    10386
      137    10387    3             IF VY_HELP THEN DO;

  10387  5 000106   000000 236000 xsym               LDQ     VY_HELP
         5 000107   600000 316003                    CANQ    -65536,DU
         5 000110   001005 600000 5                  TZE     s:10577

      138    10388    3                 IF VY_HELP.TOPICS THEN

  10388  5 000111   200000 316003                    CANQ    65536,DU
         5 000112   000116 600000 5                  TZE     s:10391

      139    10389    3                     XUH_PARAM.TOPICS# = '1'B;

  10389  5 000113   000100 236003                    LDQ     64,DU
         5 000114   000050 256000 1                  ORSQ    XUH_PARAM+10
         5 000115   000120 710000 5                  TRA     s:10392

      140    10390    3                 ELSE
      141    10391    3                     XUH_PARAM.MORE# = '1'B;

PL6.E3A0      #001=VYP$PARSE File=VYP$PARSE.:E05TSI                              WED 07/30/97 09:01 Page:33
  10391  5 000116   000200 236003                    LDQ     128,DU
         5 000117   000050 256000 1                  ORSQ    XUH_PARAM+10

      142    10392    3                 CALL X$HELP ( XUH_PARAM ) ALTRET( HELP_ERR );

  10392  5 000120   000004 630400 6                  EPPR0   4
         5 000121   000017 631400 xsym               EPPR1   B_VECTNIL+15
         5 000122   000000 701000 xent               TSX1    X$HELP
         5 000123   000070 702000 5                  TSX2    HELP_ERR

      143    10393    3                END;

  10393  5 000124   001005 710000 5                  TRA     s:10577

      144    10394
      145    10395    2           CASE( 14/*@DQUESTION_VAL*/ );

      146    10396    3             IF VY_HELP THEN DO;

  10396  5 000125   000000 236000 xsym               LDQ     VY_HELP
         5 000126   600000 316003                    CANQ    -65536,DU
         5 000127   001005 600000 5                  TZE     s:10577

      147    10397    3                 IF VY_HELP.TOPICS THEN

  10397  5 000130   200000 316003                    CANQ    65536,DU
         5 000131   000135 600000 5                  TZE     s:10400

      148    10398    3                     XUH_PARAM.TOPICS# = '1'B;

  10398  5 000132   000100 236003                    LDQ     64,DU
         5 000133   000050 256000 1                  ORSQ    XUH_PARAM+10
         5 000134   000137 710000 5                  TRA     s:10401

      149    10399    3                 ELSE
      150    10400    3                     XUH_PARAM.ALL# = '1'B;

PL6.E3A0      #001=VYP$PARSE File=VYP$PARSE.:E05TSI                              WED 07/30/97 09:01 Page:34
  10400  5 000135   000400 236003                    LDQ     256,DU
         5 000136   000050 256000 1                  ORSQ    XUH_PARAM+10

      151    10401    3                 CALL X$HELP ( XUH_PARAM ) ALTRET( HELP_ERR );

  10401  5 000137   000004 630400 6                  EPPR0   4
         5 000140   000017 631400 xsym               EPPR1   B_VECTNIL+15
         5 000141   000000 701000 xent               TSX1    X$HELP
         5 000142   000070 702000 5                  TSX2    HELP_ERR

      152    10402    3                END;

  10402  5 000143   001005 710000 5                  TRA     s:10577

      153    10403    2           CASE(

      154    10404    2                        3/*@C_COPY_KEY_WORD*/,
      155    10405    2                        4/*@C_EXTRACT_KEY_WORD*/ );
      156    10406    2             BREAK_FLAG = '1'B;

  10406  5 000144   400000 236003                    LDQ     -131072,DU
         5 000145   000000 756000 xsym               STQ     BREAK_FLAG

      157    10407    2             CALL VYD$FLST( VY_ROOT$ -> VY$NODE.HEAD$,

  10407  5 000146   000002 236000 6                  LDQ     2
         5 000147   200011 756100                    STQ     @NAME$+4,,AUTO
         5 000150   000003 236000 xsym               LDQ     VY_P_PCB_MAIN+3
         5 000151   000004 036003                    ADLQ    4,DU
         5 000152   200010 756100                    STQ     @NAME$+3,,AUTO
         5 000153   000000 236000 xsym               LDQ     VY_ROOT$
         5 000154   000005 036003                    ADLQ    5,DU
         5 000155   200007 756100                    STQ     @NAME$+2,,AUTO
         5 000156   000000 236000 xsym               LDQ     VY_ROOT$
         5 000157   000004 036003                    ADLQ    4,DU
         5 000160   200006 756100                    STQ     @NAME$+1,,AUTO
         5 000161   200006 630500                    EPPR0   @NAME$+1,,AUTO
PL6.E3A0      #001=VYP$PARSE File=VYP$PARSE.:E05TSI                              WED 07/30/97 09:01 Page:35
         5 000162   000022 631400 xsym               EPPR1   B_VECTNIL+18
         5 000163   000000 701000 xent               TSX1    VYD$FLST
         5 000164   000000 011000                    NOP     0

      158    10408    2                     VY_ROOT$ -> VY$NODE.TAIL$,
      159    10409    2                     VY_P_PCB_MAIN.OUT$ -> O$B.SUBLK$(1),
      160    10410    2                     0/*@OF*/ );
      161    10411    2             VY_ON_OVER = VY_P_PCB_MAIN.OUT$ -> O$B.SUBLK$(2) -> O$B.CODE;

  10411  5 000165   000003 470400 xsym               LDP0    VY_P_PCB_MAIN+3
         5 000166   000005 471500                    LDP1    5,,PR0
         5 000167   100000 236100                    LDQ     0,,PR1
         5 000170   777777 376007                    ANQ     -1,DL
         5 000171   000000 756000 xsym               STQ     VY_ON_OVER

      162    10412    3             IF STOP >= 4 THEN DO;

  10412  5 000172   000012 235000 1                  LDA     STOP
         5 000173   000004 115007                    CMPA    4,DL
         5 000174   001005 602000 5                  TNC     s:10577

      163    10413    3                 CALL VYS$LST( VY_RUF$,

  10413  5 000175   000006 473500                    LDP3    6,,PR0
         5 000176   000001 236000 xsym               LDQ     B_VECTNIL+1
         5 000177   200006 756100                    STQ     @NAME$+1,,AUTO
         5 000200   000006 237000 6                  LDAQ    6
         5 000201   200014 757100                    STAQ    @NAME$+7,,AUTO
         5 000202   000010 236000 6                  LDQ     8
         5 000203   200013 756100                    STQ     @NAME$+6,,AUTO
         5 000204   200006 631500                    EPPR1   @NAME$+1,,AUTO
         5 000205   200012 451500                    STP1    @NAME$+5,,AUTO
         5 000206   300003 634500                    EPPR4   3,,PR3
         5 000207   200011 454500                    STP4    @NAME$+4,,AUTO
         5 000210   000011 236000 6                  LDQ     9
         5 000211   200010 756100                    STQ     @NAME$+3,,AUTO
         5 000212   200010 630500                    EPPR0   @NAME$+3,,AUTO
PL6.E3A0      #001=VYP$PARSE File=VYP$PARSE.:E05TSI                              WED 07/30/97 09:01 Page:36
         5 000213   000024 631400 xsym               EPPR1   B_VECTNIL+20
         5 000214   000000 701000 xent               TSX1    VYS$LST
         5 000215   000000 011000                    NOP     0

      164    10414    3                         VY_P_PCB_MAIN.OUT$ -> O$B.SUBLK$(3) -> O$B.SUBLK$(0),
      165    10415    3                         ADDR(NIL),
      166    10416    3                         1/*@RF*/,
      167    10417    3                         0,
      168    10418    3                         0 );
      169    10419    4                 IF STOP >= 5 THEN DO;     /* Options */

  10419  5 000216   000012 235000 1                  LDA     STOP
         5 000217   000005 115007                    CMPA    5,DL
         5 000220   001005 602000 5                  TNC     s:10577

      170    10420    4   DO_OPT:
      171    10421    4                     BASE= 4;

  10421  5 000221   000004 235007       DO_OPT       LDA     4,DL
         5 000222   000020 755000 1                  STA     BASE

      172    10422    4   DO_OPTIONS:
      173    10423    4                     HEAD$ = VY_P_PCB_MAIN.OUT$ -> O$B.SUBLK$(BASE);

  10423  5 000223   000003 470400 xsym  DO_OPTIONS   LDP0    VY_P_PCB_MAIN+3
         5 000224   000020 720000 1                  LXL0    BASE
         5 000225   000003 236110                    LDQ     3,X0,PR0
         5 000226   000021 756000 1                  STQ     HEAD$

      174    10424    4                     OPT_STOP = HEAD$ -> O$B.NSUBLKS - 1;

  10424  5 000227   000021 471400 1                  LDP1    HEAD$
         5 000230   100001 236100                    LDQ     1,,PR1
         5 000231   000022 772000                    QRL     18
         5 000232   000001 136007                    SBLQ    1,DL
         5 000233   000013 756000 1                  STQ     OPT_STOP

PL6.E3A0      #001=VYP$PARSE File=VYP$PARSE.:E05TSI                              WED 07/30/97 09:01 Page:37
      175    10425    5                     DO ITEM_STOP = 0 TO OPT_STOP;

  10425  5 000234   000014 450000 1                  STZ     ITEM_STOP
         5 000235   000570 710000 5                  TRA     SKIP_OPTION+3

      176    10426    5                         START$ = HEAD$ -> O$B.SUBLK$( ITEM_STOP );

  10426  5 000236   000021 470400 1                  LDP0    HEAD$
         5 000237   000014 720000 1                  LXL0    ITEM_STOP
         5 000240   000003 236110                    LDQ     3,X0,PR0
         5 000241   000025 756000 1                  STQ     START$

      177    10427    5                         KON_STOP = START$ -> O$B.CODE - 1;

  10427  5 000242   000025 471400 1                  LDP1    START$
         5 000243   100000 236100                    LDQ     0,,PR1
         5 000244   777777 376007                    ANQ     -1,DL
         5 000245   000001 136007                    SBLQ    1,DL
         5 000246   000015 756000 1                  STQ     KON_STOP

      178    10428    6                         IF (KON_STOP ~= 4 /*@C_SEARCH_OPTION*/) THEN DO;

  10428  5 000247   000004 116007                    CMPQ    4,DL
         5 000250   000270 600000 5                  TZE     s:10443

      179    10429                                  %CHK_DUP_OPT(
      180    10430                                  STRUCT="VY_OD.PRIMARY_OPTION_A(KON_STOP)",
      181    10431                                  STRUCT_NAME$="VY_ON.PRIMARY_OPTION_A(KON_STOP)");

  10432  5 000251   000000 066406                    CMPB    filb='0'B
         5 000252   000000 000001 xsym               BDSC    VY_OD,Q                  by=0,bit=0,n=1
         5 000253   000002 000022 xsym               BDSC    B_VECTNIL+2              by=0,bit=0,n=18
         5 000254   000262 600000 5                  TZE     s:10436

  10433  5 000255   000000 633406 xsym               EPPR3   VY_ON,QL
         5 000256   200005 453500                    STP3    5,,AUTO
         5 000257   001013 701000 5                  TSX1    VYP$DUP_OPT
PL6.E3A0      #001=VYP$PARSE File=VYP$PARSE.:E05TSI                              WED 07/30/97 09:01 Page:38
         5 000260   000000 011000                    NOP     0

  10434  5 000261   000565 710000 5                  TRA     SKIP_OPTION

  10436  5 000262   003006 060400                    CSL     bolr='003'O
         5 000263   000030 000001 xsym               BDSC    B_VECTNIL+24             by=0,bit=0,n=1
         5 000264   000000 000001 xsym               BDSC    VY_OD,Q                  by=0,bit=0,n=1

      182    10438    6                             VY_O.PRIMARY_OPTION_A(KON_STOP) = 1;

  10438  5 000265   000001 235007                    LDA     1,DL
         5 000266   000000 755006 xsym               STA     VY_O,QL

      183    10439    6                            END;

  10439  5 000267   000301 710000 5                  TRA     s:10450

      184    10440    6                         ELSE DO;

      185    10441                                  %CHK_DUP_OPT(STRUCT="VY_OD_SEARCH",
      186    10442                                  STRUCT_NAME$="VY_ON_SEARCH$");

  10443  5 000270   000000 234000 xsym               SZN     VY_OD_SEARCH
         5 000271   000277 605000 5                  TPL     s:10447

  10444  5 000272   000012 236000 6                  LDQ     10
         5 000273   200005 756100                    STQ     5,,AUTO
         5 000274   001013 701000 5                  TSX1    VYP$DUP_OPT
         5 000275   000000 011000                    NOP     0

  10445  5 000276   000565 710000 5                  TRA     SKIP_OPTION

  10447  5 000277   400000 236003                    LDQ     -131072,DU
         5 000300   000000 756000 xsym               STQ     VY_OD_SEARCH

      187    10449    6                            END;

PL6.E3A0      #001=VYP$PARSE File=VYP$PARSE.:E05TSI                              WED 07/30/97 09:01 Page:39
      188    10450    6                         DO CASE( KON_STOP + 1 );

  10450  5 000301   000015 235000 1                  LDA     KON_STOP
         5 000302   000001 035007                    ADLA    1,DL
         5 000303   000006 115007                    CMPA    6,DL
         5 000304   000306 602005 5                  TNC     s:10450+5,AL
         5 000305   000565 710000 5                  TRA     SKIP_OPTION
         5 000306   000565 710000 5                  TRA     SKIP_OPTION
         5 000307   000314 710000 5                  TRA     s:10452
         5 000310   000356 710000 5                  TRA     s:10469
         5 000311   000371 710000 5                  TRA     s:10473
         5 000312   000565 710000 5                  TRA     SKIP_OPTION
         5 000313   000412 710000 5                  TRA     s:10481

      189    10451    6                           CASE( 1 /*@C_MAP_OPTIONS*/ );

      190    10452    6                             STOP = START$ -> O$B.NSUBLKS - 1;

  10452  5 000314   100001 236100                    LDQ     1,,PR1
         5 000315   000022 772000                    QRL     18
         5 000316   000001 136007                    SBLQ    1,DL
         5 000317   000012 756000 1                  STQ     STOP

      191    10453    7                             DO BASE = 1 TO STOP;

  10453  5 000320   000001 235007                    LDA     1,DL
         5 000321   000020 755000 1                  STA     BASE
         5 000322   000352 710000 5                  TRA     SKIP_OPTION_MAP+3

      192    10454    7                                 I = START$ -> O$B.SUBLK$(BASE) -> O$B.CODE;

  10454  5 000323   000025 470400 1                  LDP0    START$
         5 000324   000020 720000 1                  LXL0    BASE
         5 000325   000003 471510                    LDP1    3,X0,PR0
         5 000326   100000 236100                    LDQ     0,,PR1
         5 000327   777777 376007                    ANQ     -1,DL
         5 000330   000003 756000 1                  STQ     I
PL6.E3A0      #001=VYP$PARSE File=VYP$PARSE.:E05TSI                              WED 07/30/97 09:01 Page:40

      193    10455                                      %CHK_DUP_OPT(
      194    10456                                      STRUCT="VY_OD.MAP_A(I)",
      195    10457                                      STRUCT_NAME$="VY_ON.MAP_A(I)",
      196    10458                                      ERROR="GOTO SKIP_OPTION_MAP;");

  10459  5 000331   000000 066406                    CMPB    filb='0'B
         5 000332   000001 000001 xsym               BDSC    VY_OD+1,Q                by=0,bit=0,n=1
         5 000333   000002 000022 xsym               BDSC    B_VECTNIL+2              by=0,bit=0,n=18
         5 000334   000342 600000 5                  TZE     s:10463

  10460  5 000335   000004 631406 xsym               EPPR1   VY_ON+4,QL
         5 000336   200005 451500                    STP1    5,,AUTO
         5 000337   001013 701000 5                  TSX1    VYP$DUP_OPT
         5 000340   000000 011000                    NOP     0

  10461  5 000341   000347 710000 5                  TRA     SKIP_OPTION_MAP

  10463  5 000342   003006 060400                    CSL     bolr='003'O
         5 000343   000030 000001 xsym               BDSC    B_VECTNIL+24             by=0,bit=0,n=1
         5 000344   000001 000001 xsym               BDSC    VY_OD+1,Q                by=0,bit=0,n=1

      197    10465    7                                 VY_O.MAP_A(I) = 1;

  10465  5 000345   000001 235007                    LDA     1,DL
         5 000346   000004 755006 xsym               STA     VY_O+4,QL

      198    10466    7   SKIP_OPTION_MAP:
      199    10467    7                                END;       /* Do base = 1 to stop; */

  10467  5 000347   000020 235000 1     SKIP_OPTION* LDA     BASE
         5 000350   000001 035007                    ADLA    1,DL
         5 000351   000020 755000 1                  STA     BASE
         5 000352   000012 236000 1                  LDQ     STOP
         5 000353   000020 116000 1                  CMPQ    BASE
         5 000354   000323 603000 5                  TRC     s:10454
         5 000355   000565 710000 5                  TRA     SKIP_OPTION
PL6.E3A0      #001=VYP$PARSE File=VYP$PARSE.:E05TSI                              WED 07/30/97 09:01 Page:41

      200    10468    6                           CASE( 2 /*@C_DUPLICATE_OPTIONS*/ );

      201    10469    6                             I = START$ -> O$B.SUBLK$(1) -> O$B.CODE - 1;

  10469  5 000356   100004 473500                    LDP3    4,,PR1
         5 000357   300000 236100                    LDQ     0,,PR3
         5 000360   777777 376007                    ANQ     -1,DL
         5 000361   000001 136007                    SBLQ    1,DL
         5 000362   000003 756000 1                  STQ     I

      202    10470    6                             VY_O.DUPL_A(I) = 1;

  10470  5 000363   000001 235007                    LDA     1,DL
         5 000364   000016 755006 xsym               STA     VY_O+14,QL

      203    10471    6                             VY_O.PRIMARY_OPTION.DUPLICATE = I+1;

  10471  5 000365   000003 236000 1                  LDQ     I
         5 000366   000001 036007                    ADLQ    1,DL
         5 000367   000001 756000 xsym               STQ     VY_O+1
         5 000370   000565 710000 5                  TRA     SKIP_OPTION

      204    10472    6                           CASE( 3 /*@C_SEVERITY_OPTIONS*/ );

      205    10473    6                             CALL VYD$C2B(  I,

  10473  5 000371   100004 473500                    LDP3    4,,PR1
         5 000372   300003 474500                    LDP4    3,,PR3
         5 000373   000013 236000 6                  LDQ     11
         5 000374   200010 756100                    STQ     @NAME$+3,,AUTO
         5 000375   200007 454500                    STP4    @NAME$+2,,AUTO
         5 000376   000014 236000 6                  LDQ     12
         5 000377   200006 756100                    STQ     @NAME$+1,,AUTO
         5 000400   200006 630500                    EPPR0   @NAME$+1,,AUTO
         5 000401   000021 631400 xsym               EPPR1   B_VECTNIL+17
         5 000402   000000 701000 xent               TSX1    VYD$C2B
PL6.E3A0      #001=VYP$PARSE File=VYP$PARSE.:E05TSI                              WED 07/30/97 09:01 Page:42
         5 000403   000000 011000                    NOP     0

      206    10474    6                                     START$ -> O$B.SUBLK$(1) -> O$B.SUBLK$(0)
      207    10475    6                                     -> T$C,
      208    10476    6                                     10 );
      209    10477    6                             VY_O.SEV_ATTCH.VAL = I;

  10477  5 000404   000003 235000 1                  LDA     I
         5 000405   000021 755000 xsym               STA     VY_O+17

      210    10478    6                             VY_OD.SEV_ATTCH.VAL = '1'B/*@TRUE_B*/;

  10478  5 000406   400000 236003                    LDQ     -131072,DU
         5 000407   000003 256000 xsym               ORSQ    VY_OD+3

      211    10479    6                             VY_O.PRIMARY_OPTION.SEVERITY = I;

  10479  5 000410   000002 755000 xsym               STA     VY_O+2
         5 000411   000565 710000 5                  TRA     SKIP_OPTION

      212    10480    6                           CASE (5 /*@C_SEARCH_OPTION*/);

      213    10481    6                             ACCT_STOP=START$->O$B.NSUBLKS-1;

  10481  5 000412   100001 236100                    LDQ     1,,PR1
         5 000413   000022 772000                    QRL     18
         5 000414   000001 136007                    SBLQ    1,DL
         5 000415   000016 756000 1                  STQ     ACCT_STOP

      214    10482    6                             SRCH_CURR$ = ADDR(NIL);

  10482  5 000416   000001 236000 xsym               LDQ     B_VECTNIL+1
         5 000417   000034 756000 1                  STQ     SRCH_CURR$

      215    10483    7                             DO BASE = 1 TO ACCT_STOP;

  10483  5 000420   000001 235007                    LDA     1,DL
PL6.E3A0      #001=VYP$PARSE File=VYP$PARSE.:E05TSI                              WED 07/30/97 09:01 Page:43
         5 000421   000020 755000 1                  STA     BASE
         5 000422   000562 710000 5                  TRA     s:10514+2

      216    10484    7                                 ACCT$=START$->O$B.SUBLK$(BASE);

  10484  5 000423   000025 470400 1                  LDP0    START$
         5 000424   000020 720000 1                  LXL0    BASE
         5 000425   000003 236110                    LDQ     3,X0,PR0
         5 000426   000033 756000 1                  STQ     ACCT$

      217    10485                                      %ALLOCATE (PTR$=SRCH_CURR$,
      218    10486                                      TYPE=@GDP,
      219    10487                                      SIZE = "SIZEW(VY$LLIST)");

  10488  5 000427   000010 236000 xsym               LDQ     VY_M_ALL+8
         5 000430   000010 136000 xsym               SBLQ    VY_M_FREE+8
         5 000431   000002 116007                    CMPQ    2,DL
         5 000432   000442 604000 5                  TMI     s:10492

  10489  5 000433   000010 236000 xsym               LDQ     VY_M_FREE+8
         5 000434   000022 736000                    QLS     18
         5 000435   000010 036000 xsym               ADLQ    VY_M_BASE_PTR+8
         5 000436   000034 756000 1                  STQ     SRCH_CURR$

  10490  5 000437   000002 236007                    LDQ     2,DL
         5 000440   000010 056000 xsym               ASQ     VY_M_FREE+8

  10491  5 000441   000446 710000 5                  TRA     s:10494

  10492  5 000442   000015 630400 6                  EPPR0   13
         5 000443   000021 631400 xsym               EPPR1   B_VECTNIL+17
         5 000444   000000 701000 xent               TSX1    VYA$GET
         5 000445   000000 011000                    NOP     0

      220    10494    8                                 IF (BASE = 1) THEN DO;

  10494  5 000446   000020 235000 1                  LDA     BASE
PL6.E3A0      #001=VYP$PARSE File=VYP$PARSE.:E05TSI                              WED 07/30/97 09:01 Page:44
         5 000447   000001 115007                    CMPA    1,DL
         5 000450   000456 601000 5                  TNZ     s:10501

      221    10495    8                                     VY_SRCH_LST$ = SRCH_CURR$;

  10495  5 000451   000034 236000 1                  LDQ     SRCH_CURR$
         5 000452   000000 756000 xsym               STQ     VY_SRCH_LST$

      222    10496    8                                     VY_SRCH_LST$->VY$LLIST.LINK$=ADDR(NIL);

  10496  5 000453   000001 236000 xsym               LDQ     B_VECTNIL+1
         5 000454   000000 470400 xsym               LDP0    VY_SRCH_LST$
         5 000455   000000 756100                    STQ     0,,PR0

      223    10497    8                                    END;

      224    10498                                      %ALLOCATE(PTR$=SRCH_CURR$->VY$LLIST.ITEM$,
      225    10499                                      TYPE=@GDP,
      226    10500                                      SIZE="(ACCT$->O$S.COUNT + 4)/4");

  10501  5 000456   000033 470400 1                  LDP0    ACCT$
         5 000457   000004 236100                    LDQ     4,,PR0
         5 000460   000033 772000                    QRL     27
         5 000461   000004 036007                    ADLQ    4,DL
         5 000462   000002 772000                    QRL     2
         5 000463   200006 756100                    STQ     @NAME$+1,,AUTO
         5 000464   000010 236000 xsym               LDQ     VY_M_ALL+8
         5 000465   000010 136000 xsym               SBLQ    VY_M_FREE+8
         5 000466   000505 604000 5                  TMI     s:10505
         5 000467   200006 116100                    CMPQ    @NAME$+1,,AUTO
         5 000470   000505 602000 5                  TNC     s:10505

  10502  5 000471   000010 236000 xsym               LDQ     VY_M_FREE+8
         5 000472   000022 736000                    QLS     18
         5 000473   000010 036000 xsym               ADLQ    VY_M_BASE_PTR+8
         5 000474   000034 471400 1                  LDP1    SRCH_CURR$
         5 000475   100001 756100                    STQ     1,,PR1
PL6.E3A0      #001=VYP$PARSE File=VYP$PARSE.:E05TSI                              WED 07/30/97 09:01 Page:45

  10503  5 000476   000004 236100                    LDQ     4,,PR0
         5 000477   000033 772000                    QRL     27
         5 000500   000004 036007                    ADLQ    4,DL
         5 000501   000002 772000                    QRL     2
         5 000502   000010 036000 xsym               ADLQ    VY_M_FREE+8
         5 000503   000010 756000 xsym               STQ     VY_M_FREE+8

  10504  5 000504   000525 710000 5                  TRA     s:10507

  10505  5 000505   000004 236100                    LDQ     4,,PR0
         5 000506   000033 772000                    QRL     27
         5 000507   000004 036007                    ADLQ    4,DL
         5 000510   000002 772000                    QRL     2
         5 000511   200006 756100                    STQ     @NAME$+1,,AUTO
         5 000512   200006 631500                    EPPR1   @NAME$+1,,AUTO
         5 000513   200011 451500                    STP1    @NAME$+4,,AUTO
         5 000514   000016 236000 6                  LDQ     14
         5 000515   200010 756100                    STQ     @NAME$+3,,AUTO
         5 000516   000034 236000 1                  LDQ     SRCH_CURR$
         5 000517   000001 036003                    ADLQ    1,DU
         5 000520   200007 756100                    STQ     @NAME$+2,,AUTO
         5 000521   200007 630500                    EPPR0   @NAME$+2,,AUTO
         5 000522   000021 631400 xsym               EPPR1   B_VECTNIL+17
         5 000523   000000 701000 xent               TSX1    VYA$GET
         5 000524   000000 011000                    NOP     0

      227    10507    7                                SRCH_CURR$->VY$LLIST.ITEM$->T$C.COUNT=ACCT$->O$S.COUNT
             10507                                          ;

  10507  5 000525   000034 470400 1                  LDP0    SRCH_CURR$
         5 000526   000001 471500                    LDP1    1,,PR0
         5 000527   000033 473400 1                  LDP3    ACCT$
         5 000530   300004 236100                    LDQ     4,,PR3
         5 000531   100000 552140                    STBQ    0,'40'O,PR1

      228    10508    7                                SRCH_CURR$->VY$LLIST.ITEM$->T$C.CHARS=ACCT$->O$S.TEXT;
PL6.E3A0      #001=VYP$PARSE File=VYP$PARSE.:E05TSI                              WED 07/30/97 09:01 Page:46

  10508  5 000532   000034 470400 1                  LDP0    SRCH_CURR$
         5 000533   000001 471500                    LDP1    1,,PR0
         5 000534   100000 236100                    LDQ     0,,PR1
         5 000535   000033 772000                    QRL     27
         5 000536   000000 620006                    EAX0    0,QL
         5 000537   300004 236100                    LDQ     4,,PR3
         5 000540   000033 772000                    QRL     27
         5 000541   000000 621006                    EAX1    0,QL
         5 000542   040140 100540                    MLR     fill='040'O
         5 000543   300004 200011                    ADSC9   4,,PR3                   cn=1,n=*X1
         5 000544   100000 200010                    ADSC9   0,,PR1                   cn=1,n=*X0

      229    10509    8                                 IF (BASE ~= 1) THEN DO;

  10509  5 000545   000020 235000 1                  LDA     BASE
         5 000546   000001 115007                    CMPA    1,DL
         5 000547   000556 600000 5                  TZE     s:10513

      230    10510    8                                     PRIOR$->VY$LLIST.LINK$=SRCH_CURR$;

  10510  5 000550   000034 236000 1                  LDQ     SRCH_CURR$
         5 000551   000035 470400 1                  LDP0    PRIOR$
         5 000552   000000 756100                    STQ     0,,PR0

      231    10511    8                                     SRCH_CURR$->VY$LLIST.LINK$=ADDR(NIL);

  10511  5 000553   000001 236000 xsym               LDQ     B_VECTNIL+1
         5 000554   000034 471400 1                  LDP1    SRCH_CURR$
         5 000555   100000 756100                    STQ     0,,PR1

      232    10512    8                                    END;

      233    10513    7                                 PRIOR$=SRCH_CURR$;

  10513  5 000556   000034 236000 1                  LDQ     SRCH_CURR$
         5 000557   000035 756000 1                  STQ     PRIOR$
PL6.E3A0      #001=VYP$PARSE File=VYP$PARSE.:E05TSI                              WED 07/30/97 09:01 Page:47

      234    10514    7                                END;

  10514  5 000560   000001 035007                    ADLA    1,DL
         5 000561   000020 755000 1                  STA     BASE
         5 000562   000016 236000 1                  LDQ     ACCT_STOP
         5 000563   000020 116000 1                  CMPQ    BASE
         5 000564   000423 603000 5                  TRC     s:10484

      235    10515    6                           END;            /* Do case( KON_STOP ); */

      236    10516    5   SKIP_OPTION:
      237    10517    5                        END;               /* Do ITEM_STOP = 0 to OPT_STOP; */

  10517  5 000565   000014 235000 1     SKIP_OPTION  LDA     ITEM_STOP
         5 000566   000001 035007                    ADLA    1,DL
         5 000567   000014 755000 1                  STA     ITEM_STOP
         5 000570   000013 236000 1                  LDQ     OPT_STOP
         5 000571   000014 116000 1                  CMPQ    ITEM_STOP
         5 000572   000236 603000 5                  TRC     s:10426

      238    10518    4                    END;                   /* If stop >= 5 then do; */

      239    10519    3                END;                       /* If stop >= 4 then do; */

  10519  5 000573   001005 710000 5                  TRA     s:10577

      240    10520    2           CASE(

      241    10521    2                        5/*@C_DELETE_KEY_WORD*/,
      242    10522    2                        6/*@C_LIST_KEY_WORD*/ );
      243    10523    2             CALL VYD$FLST( VY_ROOT$ -> VY$NODE.HEAD$,

  10523  5 000574   000002 236000 6                  LDQ     2
         5 000575   200011 756100                    STQ     @NAME$+4,,AUTO
         5 000576   000003 236000 xsym               LDQ     VY_P_PCB_MAIN+3
         5 000577   000004 036003                    ADLQ    4,DU
PL6.E3A0      #001=VYP$PARSE File=VYP$PARSE.:E05TSI                              WED 07/30/97 09:01 Page:48
         5 000600   200010 756100                    STQ     @NAME$+3,,AUTO
         5 000601   000000 236000 xsym               LDQ     VY_ROOT$
         5 000602   000005 036003                    ADLQ    5,DU
         5 000603   200007 756100                    STQ     @NAME$+2,,AUTO
         5 000604   000000 236000 xsym               LDQ     VY_ROOT$
         5 000605   000004 036003                    ADLQ    4,DU
         5 000606   200006 756100                    STQ     @NAME$+1,,AUTO
         5 000607   200006 630500                    EPPR0   @NAME$+1,,AUTO
         5 000610   000022 631400 xsym               EPPR1   B_VECTNIL+18
         5 000611   000000 701000 xent               TSX1    VYD$FLST
         5 000612   000000 011000                    NOP     0

      244    10524    2                     VY_ROOT$ -> VY$NODE.TAIL$,
      245    10525    2                     VY_P_PCB_MAIN.OUT$ -> O$B.SUBLK$(1),
      246    10526    2                     0/*@OF*/ );
      247    10527        /* Need stuff here */
      248    10528    3             IF STOP >= 3 THEN DO;

  10528  5 000613   000012 235000 1                  LDA     STOP
         5 000614   000003 115007                    CMPA    3,DL
         5 000615   001005 602000 5                  TNC     s:10577

      249    10529    3                 BASE = 2;

  10529  5 000616   000002 236007                    LDQ     2,DL
         5 000617   000020 756000 1                  STQ     BASE

      250    10530    3                 GOTO DO_OPTIONS;

  10530  5 000620   000223 710000 5                  TRA     DO_OPTIONS

      251    10531    3                END;
      252    10532    2           CASE(

      253    10533    2                        9/*@C_DEFINE_KEY_WORD*/,
      254    10534    2                        10/*@C_DROP_KEY_WORD*/ );
      255    10535    2             VY_SYMBOL$ = ADDR(NIL);
PL6.E3A0      #001=VYP$PARSE File=VYP$PARSE.:E05TSI                              WED 07/30/97 09:01 Page:49

  10535  5 000621   000001 236000 xsym               LDQ     B_VECTNIL+1
         5 000622   000000 756000 xsym               STQ     VY_SYMBOL$

      256    10536    2             HEAD$ = ADDR(NIL);

  10536  5 000623   000021 756000 1                  STQ     HEAD$

      257    10537    2             TAIL$ = ADDR(NIL);

  10537  5 000624   000022 756000 1                  STQ     TAIL$

      258    10538    2             CURR$ = VY_P_PCB_MAIN.OUT$ -> O$B.SUBLK$(1);

  10538  5 000625   000004 236100                    LDQ     4,,PR0
         5 000626   000031 756000 1                  STQ     CURR$

      259    10539    2             OPT_STOP = CURR$ -> O$B.NSUBLKS - 1;

  10539  5 000627   000031 471400 1                  LDP1    CURR$
         5 000630   100001 236100                    LDQ     1,,PR1
         5 000631   000022 772000                    QRL     18
         5 000632   000001 136007                    SBLQ    1,DL
         5 000633   000013 756000 1                  STQ     OPT_STOP

      260    10540    3             DO BASE = 0 TO OPT_STOP;

  10540  5 000634   000020 450000 1                  STZ     BASE
         5 000635   000753 710000 5                  TRA     s:10569+3

      261    10541    3                 START$ = CURR$ -> O$B.SUBLK$(BASE) -> O$B.SUBLK$(0);

  10541  5 000636   000031 470400 1                  LDP0    CURR$
         5 000637   000020 720000 1                  LXL0    BASE
         5 000640   000003 471510                    LDP1    3,X0,PR0
         5 000641   100003 236100                    LDQ     3,,PR1
         5 000642   000025 756000 1                  STQ     START$
PL6.E3A0      #001=VYP$PARSE File=VYP$PARSE.:E05TSI                              WED 07/30/97 09:01 Page:50

      262    10542                      %ALLOCATE( PTR$=HEAD$, TYPE=@GDP, SIZE="SIZEW(VY$LLIST)" );

  10543  5 000643   000010 236000 xsym               LDQ     VY_M_ALL+8
         5 000644   000010 136000 xsym               SBLQ    VY_M_FREE+8
         5 000645   000002 116007                    CMPQ    2,DL
         5 000646   000656 604000 5                  TMI     s:10547

  10544  5 000647   000010 236000 xsym               LDQ     VY_M_FREE+8
         5 000650   000022 736000                    QLS     18
         5 000651   000010 036000 xsym               ADLQ    VY_M_BASE_PTR+8
         5 000652   000021 756000 1                  STQ     HEAD$

  10545  5 000653   000002 236007                    LDQ     2,DL
         5 000654   000010 056000 xsym               ASQ     VY_M_FREE+8

  10546  5 000655   000662 710000 5                  TRA     s:10549

  10547  5 000656   000020 630400 6                  EPPR0   16
         5 000657   000021 631400 xsym               EPPR1   B_VECTNIL+17
         5 000660   000000 701000 xent               TSX1    VYA$GET
         5 000661   000000 011000                    NOP     0

      263    10549    3                 HEAD$ -> VY$LLIST.LINK$ = ADDR(NIL);

  10549  5 000662   000001 236000 xsym               LDQ     B_VECTNIL+1
         5 000663   000021 470400 1                  LDP0    HEAD$
         5 000664   000000 756100                    STQ     0,,PR0

      264    10550    3                 SIZE =

  10550  5 000665   000025 470400 1                  LDP0    START$
         5 000666   000000 236100                    LDQ     0,,PR0
         5 000667   000033 772000                    QRL     27
         5 000670   000005 036007                    ADLQ    5,DL
         5 000671   000002 772000                    QRL     2
         5 000672   000011 756000 1                  STQ     SIZE
PL6.E3A0      #001=VYP$PARSE File=VYP$PARSE.:E05TSI                              WED 07/30/97 09:01 Page:51

      265    10551                              %TEXTH_SIZEW( CNT="START$->T$C.COUNT");
      266    10554    3                 ;
      267    10555                      %ALLOCATE( PTR$=LEVEL1$, TYPE=@GDP, SIZE=SIZE );

  10556  5 000673   000010 236000 xsym               LDQ     VY_M_ALL+8
         5 000674   000010 136000 xsym               SBLQ    VY_M_FREE+8
         5 000675   000710 604000 5                  TMI     s:10560
         5 000676   000011 116000 1                  CMPQ    SIZE
         5 000677   000710 602000 5                  TNC     s:10560

  10557  5 000700   000010 236000 xsym               LDQ     VY_M_FREE+8
         5 000701   000022 736000                    QLS     18
         5 000702   000010 036000 xsym               ADLQ    VY_M_BASE_PTR+8
         5 000703   000026 756000 1                  STQ     LEVEL1$

  10558  5 000704   000010 236000 xsym               LDQ     VY_M_FREE+8
         5 000705   000011 036000 1                  ADLQ    SIZE
         5 000706   000010 756000 xsym               STQ     VY_M_FREE+8

  10559  5 000707   000714 710000 5                  TRA     s:10562

  10560  5 000710   000023 630400 6                  EPPR0   19
         5 000711   000021 631400 xsym               EPPR1   B_VECTNIL+17
         5 000712   000000 701000 xent               TSX1    VYA$GET
         5 000713   000000 011000                    NOP     0

      268    10562    3                 HEAD$ -> VY$LLIST.ITEM$ = LEVEL1$;

  10562  5 000714   000026 236000 1                  LDQ     LEVEL1$
         5 000715   000021 470400 1                  LDP0    HEAD$
         5 000716   000001 756100                    STQ     1,,PR0

      269    10563    3                 LEVEL1$ -> B$DNAME.COUNT = START$ -> T$C.COUNT;

  10563  5 000717   000025 470400 1                  LDP0    START$
         5 000720   000000 236100                    LDQ     0,,PR0
PL6.E3A0      #001=VYP$PARSE File=VYP$PARSE.:E05TSI                              WED 07/30/97 09:01 Page:52
         5 000721   000033 772000                    QRL     27
         5 000722   000000 620006                    EAX0    0,QL
         5 000723   000026 471400 1                  LDP1    LEVEL1$
         5 000724   100000 740100                    STX0    0,,PR1

      270    10564    3                 LEVEL1$ -> B$DNAME.TEXT  = START$ -> T$C.CHARS;

  10564  5 000725   000026 471400 1                  LDP1    LEVEL1$
         5 000726   100000 220100                    LDX0    0,,PR1
         5 000727   000000 236100                    LDQ     0,,PR0
         5 000730   000033 772000                    QRL     27
         5 000731   000000 621006                    EAX1    0,QL
         5 000732   040140 100540                    MLR     fill='040'O
         5 000733   000000 200011                    ADSC9   0,,PR0                   cn=1,n=*X1
         5 000734   100000 400010                    ADSC9   0,,PR1                   cn=2,n=*X0

      271    10565        /**/
      272    10566    3                 IF VY_SYMBOL$ = ADDR(NIL) THEN VY_SYMBOL$ = HEAD$;

  10566  5 000735   000000 236000 xsym               LDQ     VY_SYMBOL$
         5 000736   000001 116000 xsym               CMPQ    B_VECTNIL+1
         5 000737   000743 601000 5                  TNZ     s:10567

  10566  5 000740   000021 236000 1                  LDQ     HEAD$
         5 000741   000000 756000 xsym               STQ     VY_SYMBOL$
         5 000742   000746 710000 5                  TRA     s:10568

      273    10567    3                 ELSE TAIL$ -> VY$LLIST.LINK$ = HEAD$;

  10567  5 000743   000021 236000 1                  LDQ     HEAD$
         5 000744   000022 471400 1                  LDP1    TAIL$
         5 000745   100000 756100                    STQ     0,,PR1

      274    10568    3                 TAIL$ = HEAD$;

  10568  5 000746   000021 236000 1                  LDQ     HEAD$
         5 000747   000022 756000 1                  STQ     TAIL$
PL6.E3A0      #001=VYP$PARSE File=VYP$PARSE.:E05TSI                              WED 07/30/97 09:01 Page:53

      275    10569    3                END;                       /* Do base = 0 to OPT_STOP; */

  10569  5 000750   000020 235000 1                  LDA     BASE
         5 000751   000001 035007                    ADLA    1,DL
         5 000752   000020 755000 1                  STA     BASE
         5 000753   000013 236000 1                  LDQ     OPT_STOP
         5 000754   000020 116000 1                  CMPQ    BASE
         5 000755   000636 603000 5                  TRC     s:10541

      276    10570    2             VY_ON_OVER = VY_P_PCB_MAIN.OUT$ -> O$B.SUBLK$(2) -> O$B.CODE;

  10570  5 000756   000003 470400 xsym               LDP0    VY_P_PCB_MAIN+3
         5 000757   000005 471500                    LDP1    5,,PR0
         5 000760   100000 236100                    LDQ     0,,PR1
         5 000761   777777 376007                    ANQ     -1,DL
         5 000762   000000 756000 xsym               STQ     VY_ON_OVER

      277    10571    2             CALL VYD$FLST( VY_ROOT$ -> VY$NODE.HEAD$,

  10571  5 000763   000002 236000 6                  LDQ     2
         5 000764   200011 756100                    STQ     @NAME$+4,,AUTO
         5 000765   000003 236000 xsym               LDQ     VY_P_PCB_MAIN+3
         5 000766   000006 036003                    ADLQ    6,DU
         5 000767   200010 756100                    STQ     @NAME$+3,,AUTO
         5 000770   000000 236000 xsym               LDQ     VY_ROOT$
         5 000771   000005 036003                    ADLQ    5,DU
         5 000772   200007 756100                    STQ     @NAME$+2,,AUTO
         5 000773   000000 236000 xsym               LDQ     VY_ROOT$
         5 000774   000004 036003                    ADLQ    4,DU
         5 000775   200006 756100                    STQ     @NAME$+1,,AUTO
         5 000776   200006 630500                    EPPR0   @NAME$+1,,AUTO
         5 000777   000022 631400 xsym               EPPR1   B_VECTNIL+18
         5 001000   000000 701000 xent               TSX1    VYD$FLST
         5 001001   000000 011000                    NOP     0

      278    10572    2                     VY_ROOT$ -> VY$NODE.TAIL$,
PL6.E3A0      #001=VYP$PARSE File=VYP$PARSE.:E05TSI                              WED 07/30/97 09:01 Page:54
      279    10573    2                     VY_P_PCB_MAIN.OUT$ -> O$B.SUBLK$(3),
      280    10574    2                     0/*@OF*/ );
      281    10575    2             IF STOP >= 5 THEN GOTO DO_OPT;

  10575  5 001002   000012 235000 1                  LDA     STOP
         5 001003   000005 115007                    CMPA    5,DL
         5 001004   000221 603000 5                  TRC     DO_OPT

      282    10576    2           END;                            /* Do case( VY_COMMAND ); */

      283    10577    1         CALL VYF$FREE( 3/*@DS3*/, PWORK_SIZE, 0/*@NO*/ );
             10577                  /* Give back the work area */

  10577  5 001005   000026 630400 6                  EPPR0   22
         5 001006   000021 631400 xsym               EPPR1   B_VECTNIL+17
         5 001007   000000 701000 xent               TSX1    VYF$FREE
         5 001010   000000 011000                    NOP     0

      284    10578    1         RETURN;

  10578  5 001011   000000 702200 xent               TSX2  ! X66_ARET

      285    10579        %EJECT;
PL6.E3A0      #001=VYP$PARSE File=VYP$PARSE.:E05TSI                              WED 07/30/97 09:01 Page:55
      286    10580    1   PARSE_ERROR:;

  10580  5 001012   001032 710000 5     PARSE_ERROR  TRA     s:10620

      287    10581    1   VYP$DUP_OPT:

  10581  5 001013   200004 741300       VYP$DUP_OPT  STX1  ! 4,,AUTO

      288    10582    1         PROC( NAME$ );
      289    10583        %P;

             10591    1   /*******************************************************************************
             10592    1   *                                                                              *
             10593    1   *                          PARAMETERS                                             *
             10594    1   *                                                                              *
             10595    1   *******************************************************************************/

      290    10599    2   DCL NAME$           PTR;
      291    10600        /**/
      292    10601        /**/
      293    10602        /**/
      294    10603        /*E*  ERROR: VYP-E$DUP_OPT_VY-0
      295    10604              MESSAGE: Duplicate %U1 option ignored. First occurrence taken.
      296    10605              DESCRIPTION: SELF-EXPLANATORY.
      297    10606        */
      298    10607    2         VY_EFIELD1.COUNT = NAME$ -> P$LIT.COUNT;

  10607  5 001014   200005 470500                    LDP0    @NAME$,,AUTO
         5 001015   000000 471500                    LDP1    0,,PR0
         5 001016   100001 236100                    LDQ     1,,PR1
         5 001017   000000 552040 xsym               STBQ    VY_EFIELD1,'40'O

      299    10608    2         VY_EFIELD1.CHARS = NAME$ -> P$LIT.TEXT;

  10608  5 001020   000000 471500                    LDP1    0,,PR0
         5 001021   040000 100500                    MLR     fill='040'O
         5 001022   100001 200002                    ADSC9   1,,PR1                   cn=1,n=2
PL6.E3A0      #001=VYP$PARSE File=VYP$PARSE.:E05TSI                              WED 07/30/97 09:01 Page:56
         5 001023   000000 200117 xsym               ADSC9   VY_EFIELD1               cn=1,n=79

      300    10609              %SCREAM(
      301    10610              ERR#=%E$DUP_OPT_VY,
      302    10611              MID="'P'",
      303    10612              LEVEL=%@E$W_VY);

  10613  5 001024   000033 630400 6                  EPPR0   27
         5 001025   000022 631400 xsym               EPPR1   B_VECTNIL+18
         5 001026   000000 701000 xent               TSX1    VYE$ERROR
         5 001027   000000 011000                    NOP     0

      304    10615    2         RETURN;

  10615  5 001030   200004 221300                    LDX1  ! 4,,AUTO
         5 001031   000001 702211                    TSX2  ! 1,X1

      305    10616    2   END VYP$DUP_OPT;
      306    10617
      307    10618
      308    10619
      309    10620    1   END VYP$PARSE;

  10620  5 001032   000000 702200 xent               TSX2  ! X66_ARET

PL6.E3A0      #001=VYP$PARSE File=VYP$PARSE.:E05TSI                              WED 07/30/97 09:01 Page:57
--  Include file information  --

   VY_PSUBS_C.:E05TOU  is referenced.
   XU_PERR_C.:E05TOU  is referenced.
   XU_SUBS_C.:E05TOU  is referenced.
   XUH_MACRO_C.:E05TOU  is referenced.
   B$OBJECT_C.:E05TOU  is referenced.
   VY_DCB_R.:E05TOU  cannot be made into a system file and is referenced.
   VY_DATA_R.:E05TOU  cannot be made into a system file and is referenced.
   XU_MACRO_C.:E05TOU  is referenced.
   VY_FIXED_R.:E05TOU  cannot be made into a system file and is referenced.
   CP_6.:E05TOU  cannot be made into a system file and is referenced.
   VY_MACRO_C.:E05TOU  is referenced.
   VY_PERR_C.:E05TOU  is referenced.
   VY_SUBS_C.:E05TOU  is referenced.
   VY_INC_NO_C.:E05TOU  is referenced.
   VY_SWITCH_C.:E05TOU  is referenced.
   VY_INC_C.:E05TOU  is referenced.
   B$JIT_C.:E05TOU  was found in the system file and is never referenced.
   CP_6_C.:E05TOU  was found in the system file and is referenced.
      No diagnostics issued in procedure VYP$PARSE.
PL6.E3A0      #001=VYP$PARSE File=VYP$PARSE.:E05TSI                              WED 07/30/97 09:01 Page:58

 **** Variables and constants ****

  ****  Section 001  Data  VYP$PARSE

  ****  Scalars and arrays  ****
OctLoc.c.b A Datatyp(siz) R M Lvl/name                 OctLoc.c.b A Datatyp(siz) R M Lvl/name

    33-0-0/w PTR         r     1 ACCT$                     16-0-0/w UBIN        r     1 ACCT_STOP
    20-0-0/w UBIN        r     1 BASE                      31-0-0/w PTR         r     1 CURR$
    21-0-0/w PTR         r     1 HEAD$                      3-0-0/w UBIN        r     1 I
    14-0-0/w UBIN        r     1 ITEM_STOP                 15-0-0/w UBIN        r     1 KON_STOP
    26-0-0/w PTR         r     1 LEVEL1$                   13-0-0/w UBIN        r     1 OPT_STOP
    35-0-0/w PTR         r     1 PRIOR$                    10-0-0/w UBIN        r     1 PWORK_SIZE
    11-0-0/w UBIN        r     1 SIZE                      34-0-0/w PTR         r     1 SRCH_CURR$
    25-0-0/w PTR         r     1 START$                    12-0-0/w UBIN        r     1 STOP
    22-0-0/w PTR         r     1 TAIL$                     36-0-0/d STRC(2052)  r     1 XUH_PARAM

  ****  Section 002 RoData VYP$PARSE

  ****  Scalars and arrays  ****
OctLoc.c.b A Datatyp(siz) R M Lvl/name                 OctLoc.c.b A Datatyp(siz) R M Lvl/name

     3-0-0/c STRC(72)    r     1 VLP_ACCT                   1-0-0/c STRC(54)    r     1 VLP_LEMUR

  ****  Auto variables  ****

  ****  Scalars and arrays  ****
OctLoc.c.b A Datatyp(siz) R M Lvl/name                 OctLoc.c.b A Datatyp(siz) R M Lvl/name

     5-0-0/w PTR         r     1 @NAME$                    *0-0-0/w PTR         r     1 NAME$

  ****  SYMREF variables  ****

  ****  Scalars and arrays  ****
OctLoc.c.b A Datatyp(siz) R M Lvl/name                 OctLoc.c.b A Datatyp(siz) R M Lvl/name

     0-0-0/b BIT         r     1 BREAK_FLAG                 0-0-0/w UBIN        r     1 VY_COMMAND
PL6.E3A0      #001=VYP$PARSE File=VYP$PARSE.:E05TSI                              WED 07/30/97 09:01 Page:59
     0-0-0/w STRC(720)   r     1 VY_EFIELD1                 0-0-0/b STRC(2)     r     1 VY_HELP
     0-0-0/w SBIN        r     1 VY_M_ALL(0:8)
     0-0-0/w PTR         r     1 VY_M_BASE_PTR(0:8)
     0-0-0/w SBIN        r     1 VY_M_FREE(0:8)
     0-0-0/w UBIN        r     1 VY_N_START_SYMBOL          0-0-0/w STRC(648)   r     1 VY_O
     0-0-0/w STRC(144)   r     1 VY_OD                      0-0-0/b BIT         r     1 VY_OD_SEARCH
     0-0-0/w STRC(648)   r     1 VY_ON                      0-0-0/w UBIN        r     1 VY_ON_OVER
     0-0-0/w PTR         r     1 VY_ON_SEARCH$              0-0-0/w STRC(504)   r     1 VY_P_PCB_MAIN
     0-0-0/w PTR         r     1 VY_ROOT$                   0-0-0/w PTR         r     1 VY_RUF$
     0-0-0/w PTR         r     1 VY_SRCH_LST$               0-0-0/w PTR         r     1 VY_SYMBOL$

  ****  BASED and DCB variables  ****

  ****  Scalars and arrays  ****
OctLoc.c.b A Datatyp(siz) R M Lvl/name                 OctLoc.c.b A Datatyp(siz) R M Lvl/name

     0-0-0/w ASTR(18)    r     1 B$DNAME                    0-0-0N  NULL        r     1 M$DO
     0-0-0N  NULL        r     1 M$LO                       0-0-0/w STRC(144)   r     1 O$B
     0-0-0/w ASTR(153)   r     1 O$S                        0-0-0/w STRC(63)    r     1 P$LIT
     0-0-0/w ASTR(9)     r     1 T$C                        0-0-0/c ASTR(9)     r     1 T$C_UNAL
     0-0-0/w STRC(72)    r     1 VY$LLIST                   0-0-0/w STRC(3672)  r     1 VY$NODE


   Procedure VYP$PARSE requires 539 words for executable code.
   Procedure VYP$PARSE requires 14 words of local(AUTO) storage.

    No errors detected in file VYP$PARSE.:E05TSI    .
PL6.E3A0      #001=VYP$PARSE File=VYP$PARSE.:E05TSI                              WED 07/30/97 09:01 Page:60
          *** CROSS REFERENCE LISTING ***
**     DENOTES     IDENTIFIER DEFINITION
<<                 IDENTIFIER'S VALUE SET
>>                 IDENTIFIER'S VALUE USED
<>                 IDENTIFIER SET AND/OR USED
--                 IDENTIFIER REFERENCED
PL6.E3A0      #001=VYP$PARSE File=VYP$PARSE.:E05TSI                              WED 07/30/97 09:01 Page:61
          MINI XREF LISTING

ACCT$
     10080**DCL     10484<<ASSIGN  10501>>IF      10503>>ASSIGN  10505>>CALL    10507>>ASSIGN  10508>>ASSIGN
     10508>>ASSIGN
ACCT_STOP
     10051**DCL     10481<<ASSIGN  10483>>DOINDEX
B$DNAME.COUNT
      9494**DCL      9501--IMP-SIZ 10563<<ASSIGN  10564>>ASSIGN
B$DNAME.TEXT
      9501**DCL     10564<<ASSIGN
BASE
     10053**DCL     10421<<ASSIGN  10423>>ASSIGN  10453<<DOINDEX 10454>>ASSIGN  10483<<DOINDEX 10484>>ASSIGN
     10494>>IF      10509>>IF      10529<<ASSIGN  10540<<DOINDEX 10541>>ASSIGN
BREAK_FLAG
      5693**DCL     10364<<ASSIGN  10406<<ASSIGN
CURR$
     10078**DCL     10538<<ASSIGN  10539>>ASSIGN  10541>>ASSIGN
DO_OPT
     10421**LABEL   10575--GOTO
DO_OPTIONS
     10423**LABEL   10530--GOTO
HEAD$
     10070**DCL     10423<<ASSIGN  10424>>ASSIGN  10426>>ASSIGN  10536<<ASSIGN  10544<<ASSIGN  10547<>CALL
     10549>>ASSIGN  10562>>ASSIGN  10566>>ASSIGN  10567>>ASSIGN  10568>>ASSIGN
HELP_ERR
     10375**LABEL   10373--CALLALT 10392--CALLALT 10401--CALLALT
I
      9991**DCL      9992--REDEF   10454<<ASSIGN  10459>>IF      10460>>CALL    10463>>ASSIGN  10465>>ASSIGN
     10469<<ASSIGN  10470>>ASSIGN  10471>>ASSIGN  10473<>CALL    10477>>ASSIGN  10479>>ASSIGN
ITEM_STOP
     10049**DCL     10425<<DOINDEX 10426>>ASSIGN
J
      9993**DCL      9994--REDEF
PL6.E3A0      #001=VYP$PARSE File=VYP$PARSE.:E05TSI                              WED 07/30/97 09:01 Page:62
K
      9995**DCL      9996--REDEF
KON_STOP
     10050**DCL     10427<<ASSIGN  10428>>IF      10432>>IF      10433>>CALL    10436>>ASSIGN  10438>>ASSIGN
     10450>>DOCASE
L
      9997**DCL      9998--REDEF
LEVEL1$
     10075**DCL     10557<<ASSIGN  10560<>CALL    10562>>ASSIGN  10563>>ASSIGN  10564>>ASSIGN  10564>>ASSIGN
NAME$ IN PROCEDURE VYP$DUP_OPT
     10599**DCL     10582--PROC    10607>>ASSIGN  10608>>ASSIGN
O$B.CODE
      9863**DCL     10366>>ASSIGN  10411>>ASSIGN  10427>>ASSIGN  10454>>ASSIGN  10469>>ASSIGN  10570>>ASSIGN
O$B.NSUBLKS
      9867**DCL     10367>>ASSIGN  10424>>ASSIGN  10452>>ASSIGN  10481>>ASSIGN  10539>>ASSIGN
O$B.SUBLK$
      9888**DCL     10366>>ASSIGN  10371>>ASSIGN  10371>>ASSIGN  10371>>ASSIGN  10407<>CALL    10411>>ASSIGN
     10413>>CALL    10413<>CALL    10423>>ASSIGN  10426>>ASSIGN  10454>>ASSIGN  10469>>ASSIGN  10473>>CALL
     10473>>CALL    10473>>CALL    10473>>CALL    10484>>ASSIGN  10523<>CALL    10538>>ASSIGN  10541>>ASSIGN
     10541>>ASSIGN  10570>>ASSIGN  10571<>CALL
O$S.COUNT
      9924**DCL      9927--IMP-SIZ 10501>>IF      10503>>ASSIGN  10505>>CALL    10507>>ASSIGN  10508>>ASSIGN
O$S.TEXT
      9927**DCL     10508>>ASSIGN
OPT_STOP
     10048**DCL     10424<<ASSIGN  10425>>DOINDEX 10539<<ASSIGN  10540>>DOINDEX
P$LIT.COUNT
      9973**DCL     10607>>ASSIGN
P$LIT.TEXT
      9976**DCL     10608>>ASSIGN
PARSE_ERROR
     10580**LABEL   10365--CALLALT
PRIOR$
     10082**DCL     10510>>ASSIGN  10513<<ASSIGN
PWORK_SIZE
     10045**DCL     10363<<ASSIGN  10365<>CALL    10577<>CALL
PL6.E3A0      #001=VYP$PARSE File=VYP$PARSE.:E05TSI                              WED 07/30/97 09:01 Page:63
SIZE
     10046**DCL     10550<<ASSIGN  10556>>IF      10558>>ASSIGN  10560<>CALL
SKIP_OPTION
     10517**LABEL   10434--GOTO    10445--GOTO
SKIP_OPTION_MAP
     10467**LABEL   10461--GOTO
SRCH_CURR$
     10081**DCL     10482<<ASSIGN  10489<<ASSIGN  10492<>CALL    10495>>ASSIGN  10502>>ASSIGN  10505>>CALL
     10507>>ASSIGN  10508>>ASSIGN  10508>>ASSIGN  10510>>ASSIGN  10511>>ASSIGN  10513>>ASSIGN
START$
     10074**DCL     10426<<ASSIGN  10427>>ASSIGN  10452>>ASSIGN  10454>>ASSIGN  10469>>ASSIGN  10473>>CALL
     10473>>CALL    10481>>ASSIGN  10484>>ASSIGN  10541<<ASSIGN  10550>>ASSIGN  10563>>ASSIGN  10564>>ASSIGN
     10564>>ASSIGN
STOP
     10047**DCL     10367<<ASSIGN  10412>>IF      10419>>IF      10452<<ASSIGN  10453>>DOINDEX 10528>>IF
     10575>>IF
T$C
      9477**DCL     10473<>CALL
T$C.CHARS
      9479**DCL     10508<<ASSIGN  10564>>ASSIGN
T$C.COUNT
      9478**DCL      9479--IMP-SIZ 10473>>CALL    10507<<ASSIGN  10508>>ASSIGN  10550>>ASSIGN  10563>>ASSIGN
     10564>>ASSIGN
T$C_UNAL.COUNT
      9481**DCL      9482--IMP-SIZ
TAIL$
     10071**DCL     10537<<ASSIGN  10567>>ASSIGN  10568<<ASSIGN
VLP_ACCT
     10358**DCL     10281--DCLINIT
VLP_LEMUR
     10345**DCL     10280--DCLINIT
VY$LLIST
      9302**DCL     10488--IF      10490--ASSIGN  10492--CALL    10543--IF      10545--ASSIGN  10547--CALL
VY$LLIST.ITEM$
      9304**DCL     10502<<ASSIGN  10505<>CALL    10507>>ASSIGN  10508>>ASSIGN  10508>>ASSIGN  10562<<ASSIGN
VY$LLIST.LINK$
PL6.E3A0      #001=VYP$PARSE File=VYP$PARSE.:E05TSI                              WED 07/30/97 09:01 Page:64
      9303**DCL     10496<<ASSIGN  10510<<ASSIGN  10511<<ASSIGN  10549<<ASSIGN  10567<<ASSIGN
VY$NODE.ADDR_START_A
      9352**DCL      9353--REDEF
VY$NODE.ADDR_STOP_A
      9357**DCL      9358--REDEF
VY$NODE.HEAD$
      9344**DCL     10407<>CALL    10523<>CALL    10571<>CALL
VY$NODE.L_PREV_SIZE
      9410**DCL      9421--REDEF
VY$NODE.L_SC_START
      9429**DCL      9434--REDEF
VY$NODE.L_SC_STOP
      9435**DCL      9440--REDEF
VY$NODE.L_SIZE
      9398**DCL      9409--REDEF
VY$NODE.L_START
      9374**DCL      9385--REDEF
VY$NODE.L_STOP
      9386**DCL      9397--REDEF
VY$NODE.PROMOTE_HEAD
      9441**DCL      9444--REDEF
VY$NODE.PROMOTE_TAIL
      9445**DCL      9448--REDEF
VY$NODE.START_PAGE#_A
      9362**DCL      9363--REDEF
VY$NODE.STOP_PAGE#_A
      9367**DCL      9368--REDEF
VY$NODE.TAIL$
      9346**DCL     10407<>CALL    10523<>CALL    10571<>CALL
VYA$GET
     10018**DCL-ENT 10492--CALL    10505--CALL    10547--CALL    10560--CALL
VYD$C2B
     10022**DCL-ENT 10473--CALL
VYD$FLST
     10024**DCL-ENT 10407--CALL    10523--CALL    10571--CALL
VYE$ERRMSG
PL6.E3A0      #001=VYP$PARSE File=VYP$PARSE.:E05TSI                              WED 07/30/97 09:01 Page:65
     10240**DCL-ENT 10375--CALL
VYE$ERROR
     10027**DCL-ENT 10613--CALL
VYF$FREE
     10019**DCL-ENT 10577--CALL
VYP$DUP_OPT
     10582**PROC    10433--CALL    10444--CALL    10460--CALL
VYP$PAR
     10016**DCL-ENT 10365--CALL
VYS$LST
     10025**DCL-ENT 10413--CALL
VY_BIAS.A
      5397**DCL      5397--REDEF
VY_CBUF.CHARS_A
      5388**DCL      5388--REDEF
VY_COMMAND
      5388**DCL     10366<<ASSIGN  10368>>DOCASE
VY_EBUF.CHARS_A
      5689**DCL      5690--REDEF
VY_EFIELD1.CHARS
      5690**DCL      5690--REDEF   10608<<ASSIGN
VY_EFIELD1.COUNT
      5690**DCL     10607<<ASSIGN
VY_EFIELD2.CHARS
      5691**DCL      5691--REDEF
VY_EFIELD3.CHARS
      5692**DCL      5692--REDEF
VY_ERRORS
      5393**DCL      5395--REDEF
VY_ERRORS.CONFLICT_A
      5394**DCL      5395--REDEF
VY_ERRORS.UNSAT_A
      5393**DCL      5394--REDEF
VY_HELP
      5742**DCL     10370<<ASSIGN  10378<<ASSIGN  10387>>IF      10396>>IF
VY_HELP.TOPICS
PL6.E3A0      #001=VYP$PARSE File=VYP$PARSE.:E05TSI                              WED 07/30/97 09:01 Page:66
      5743**DCL     10388>>IF      10397>>IF
VY_IMAGE_DATA.CPAGE#_A
      5281**DCL      5282--REDEF
VY_IMAGE_DATA.NODE_A$
      5293**DCL      5294--REDEF
VY_IMAGE_DATA.START_A$
      5285**DCL      5286--REDEF
VY_IMAGE_DATA.STOP_A$
      5289**DCL      5290--REDEF
VY_IMAGE_PROC.CPAGE#_A
      5304**DCL      5305--REDEF
VY_IMAGE_PROC.NODE_A$
      5316**DCL      5317--REDEF
VY_IMAGE_PROC.START_A$
      5308**DCL      5309--REDEF
VY_IMAGE_PROC.STOP_A$
      5312**DCL      5313--REDEF
VY_IMAGE_ROS.CPAGE#_A
      5327**DCL      5328--REDEF
VY_IMAGE_ROS.NODE_A$
      5339**DCL      5340--REDEF
VY_IMAGE_ROS.START_A$
      5331**DCL      5332--REDEF
VY_IMAGE_ROS.STOP_A$
      5335**DCL      5336--REDEF
VY_MAP_HDR.CHARS
      5754**DCL      5755--REDEF    5755--REDEF
VY_MAP_LIT_LO_FPT_WRITE.STATION_
      5083**DCL      5083--REDEF
VY_MAP_LIT_LO_FPT_WRITE.V.DVBYTE.VFC#
      5090**DCL      5090--REDEF
VY_MAP_LO_FPT_WRITE.STATION_
      5052**DCL      5052--REDEF
VY_MAP_LO_FPT_WRITE.V.DVBYTE.VFC#
      5059**DCL      5059--REDEF
VY_MBUF.CHARS
PL6.E3A0      #001=VYP$PARSE File=VYP$PARSE.:E05TSI                              WED 07/30/97 09:01 Page:67
      5753**DCL      5754--REDEF    5754--REDEF
VY_M_ALL
      5398**DCL     10488>>IF      10501>>IF      10543>>IF      10556>>IF
VY_M_BASE_PTR
      5399**DCL     10489>>ASSIGN  10502>>ASSIGN  10544>>ASSIGN  10557>>ASSIGN
VY_M_FREE
      5398**DCL     10488>>IF      10489>>ASSIGN  10490<<ASSIGN  10490>>ASSIGN  10501>>IF      10502>>ASSIGN
     10503<<ASSIGN  10503>>ASSIGN  10543>>IF      10544>>ASSIGN  10545<<ASSIGN  10545>>ASSIGN  10556>>IF
     10557>>ASSIGN  10558<<ASSIGN  10558>>ASSIGN
VY_M_VECTOR.F
      5122**DCL      5126--REDEF
VY_M_VECTOR_DP.F
      5157**DCL      5161--REDEF
VY_N_START_SYMBOL
     10086**DCL     10365--CALL
VY_O.DUPL_A
      5539**DCL     10470<<ASSIGN
VY_O.DUPL_ATTCH
      5535**DCL      5539--REDEF
VY_O.MAP_A
      5534**DCL     10465<<ASSIGN
VY_O.MAP_ATTCH
      5523**DCL      5534--REDEF
VY_O.PRIMARY_OPTION
      5517**DCL      5522--REDEF
VY_O.PRIMARY_OPTION.DUPLICATE
      5519**DCL     10471<<ASSIGN
VY_O.PRIMARY_OPTION.SEVERITY
      5520**DCL     10479<<ASSIGN
VY_O.PRIMARY_OPTION_A
      5522**DCL     10438<<ASSIGN
VY_O.SEV_ATTCH
      5540**DCL      5542--REDEF
VY_O.SEV_ATTCH.VAL
      5541**DCL     10477<<ASSIGN
VY_OD.DUPL_ATTCH
PL6.E3A0      #001=VYP$PARSE File=VYP$PARSE.:E05TSI                              WED 07/30/97 09:01 Page:68
      5679**DCL      5683--REDEF
VY_OD.MAP_A
      5678**DCL     10459>>IF      10463<<ASSIGN
VY_OD.MAP_ATTCH
      5667**DCL      5678--REDEF
VY_OD.PRIMARY_OPTION
      5661**DCL      5666--REDEF
VY_OD.PRIMARY_OPTION_A
      5666**DCL     10432>>IF      10436<<ASSIGN
VY_OD.SEV_ATTCH
      5684**DCL      5686--REDEF
VY_OD.SEV_ATTCH.VAL
      5685**DCL     10478<<ASSIGN
VY_OD_SEARCH
      5384**DCL     10443>>IF      10447<<ASSIGN
VY_OL_KEY_BUF.FORM0
      5190**DCL      5193--REDEF    5200--REDEF
VY_ON.DUPL_ATTCH
     10227**DCL     10231--REDEF
VY_ON.MAP_A
     10226**DCL     10460<>CALL
VY_ON.MAP_ATTCH
     10215**DCL     10226--REDEF
VY_ON.PRIMARY_OPTION
     10209**DCL     10214--REDEF
VY_ON.PRIMARY_OPTION_A
     10214**DCL     10433<>CALL
VY_ON.SEV_ATTCH
     10232**DCL     10234--REDEF
VY_ON_OVER
      5388**DCL     10411<<ASSIGN  10570<<ASSIGN
VY_ON_SEARCH$
      5384**DCL     10444<>CALL
VY_OU_HEAD.REC_A
      5378**DCL      5379--REDEF
VY_O_KEY_BUF.FORM0
PL6.E3A0      #001=VYP$PARSE File=VYP$PARSE.:E05TSI                              WED 07/30/97 09:01 Page:69
      5167**DCL      5170--REDEF    5177--REDEF
VY_O_KEY_BUF_L.FORM0
      5213**DCL      5216--REDEF    5223--REDEF
VY_PAR_UNWIND
      5748**DCL      5748--REDEF
VY_PASS2_REF.OU.L_START
      5715**DCL      5716--REDEF
VY_PASS2_REF.OU.L_STOP
      5716**DCL      5717--REDEF
VY_PASS2_REF.OU.MAX
      5714**DCL      5715--REDEF
VY_PASS2_REF.OU.SIZE
      5717**DCL      5718--REDEF
VY_PASS2_REF.SAT.COUNT
      5721**DCL      5722--REDEF
VY_PASS2_REF.SAT.ENT_SIZE
      5723**DCL      5724--REDEF
VY_PASS2_REF.SAT.L_START
      5719**DCL      5720--REDEF
VY_PASS2_REF.SAT.L_STOP
      5720**DCL      5721--REDEF
VY_PASS2_REF.SAT.MAX
      5718**DCL      5719--REDEF
VY_PASS2_REF.UNSAT.L_START
      5725**DCL      5726--REDEF
VY_PASS2_REF.UNSAT.L_STOP
      5726**DCL      5727--REDEF
VY_PASS2_REF.UNSAT.L_WHERE
      5727**DCL      5728--REDEF
VY_PASS2_REF.UNSAT.MAX
      5724**DCL      5725--REDEF
VY_PASS2_REF.UNSAT.PAGE#
      5729**DCL      5730--REDEF
VY_PASS2_REF.UNSAT.SIZE
      5728**DCL      5729--REDEF
VY_PROGRAM_BIAS.A
PL6.E3A0      #001=VYP$PARSE File=VYP$PARSE.:E05TSI                              WED 07/30/97 09:01 Page:70
      5396**DCL      5396--REDEF
VY_P_PCB_MAIN.OUT$
      4864**DCL     10366>>ASSIGN  10367>>ASSIGN  10371>>ASSIGN  10407>>CALL    10411>>ASSIGN  10413>>CALL
     10423>>ASSIGN  10523>>CALL    10538>>ASSIGN  10570>>ASSIGN  10571>>CALL
VY_ROOT$
      5391**DCL     10407>>CALL    10407>>CALL    10523>>CALL    10523>>CALL    10571>>CALL    10571>>CALL
VY_RUF$
      5391**DCL     10413<>CALL
VY_RU_HEAD.DATA_SEGMENT
      5364**DCL      5364--REDEF
VY_RU_HEAD.L
      5360**DCL      5361--REDEF
VY_RU_HEAD.MAP_BITS
      5361**DCL      5363--REDEF
VY_RU_HEAD.PBIT
      5357**DCL      5357--REDEF
VY_RU_HEAD_BUF.DATA_SEGMENT
      5374**DCL      5374--REDEF
VY_RU_HEAD_BUF.L
      5369**DCL      5370--REDEF
VY_RU_HEAD_BUF.MAP_BITS
      5371**DCL      5373--REDEF
VY_RU_HEAD_BUF.PBIT
      5366**DCL      5367--REDEF
VY_R_KEY_BUF.FORM0
      5236**DCL      5240--REDEF    5246--REDEF
VY_SI_KEY_BUF.KEY
      5744**DCL      5744--REDEF
VY_SPC.B$.MINE
      5739**DCL      5740--REDEF
VY_SPC.B$.NAME
      5736**DCL      5736--REDEF
VY_SPC.B$.SKIP
      5738**DCL      5739--REDEF
VY_SPC.B$.VALUE
      5737**DCL      5738--REDEF
PL6.E3A0      #001=VYP$PARSE File=VYP$PARSE.:E05TSI                              WED 07/30/97 09:01 Page:71
VY_SPC.SEG.NAME
      5731**DCL      5732--REDEF
VY_SPC.SEG.VALUE
      5732**DCL      5733--REDEF
VY_SRCH_LST$
      5385**DCL     10495<<ASSIGN  10496>>ASSIGN
VY_SYMBOL$
      5749**DCL     10535<<ASSIGN  10566>>IF      10566<<ASSIGN
VY_TSX0_OVERLAY.H
      5703**DCL      5704--REDEF
X$HELP
     10239**DCL-ENT 10373--CALL    10392--CALL    10401--CALL
XUH_PARAM
     10276**DCL     10373<>CALL    10392<>CALL    10401<>CALL
XUH_PARAM.ALL#
     10288**DCL     10400<<ASSIGN
XUH_PARAM.ERR
     10293**DCL     10375<>CALL
XUH_PARAM.ERR.ERR#
     10297**DCL     10376>>IF
XUH_PARAM.ERR.MON
     10296**DCL     10376>>IF
XUH_PARAM.HELP$
     10286**DCL     10371<<ASSIGN
XUH_PARAM.MORE#
     10289**DCL     10391<<ASSIGN
XUH_PARAM.TOPICS#
     10290**DCL     10372<<ASSIGN  10389<<ASSIGN  10398<<ASSIGN
