VERSION E05

PL6.E3A0      #001=VYR$READ File=VYR$READ.:E05TSI                                WED 07/30/97 09:02 Page:1
        1        1        /*M* VYR$READ - reads the LEMUR command stream. */
        2        2        /*T***********************************************************/
        3        3        /*T*                                                         */
        4        4        /*T* Copyright (c) Bull HN Information Systems Inc., 1997    */
        5        5        /*T*                                                         */
        6        6        /*T***********************************************************/
        7        7        /*X*  DMC,DMR,PLM=6,IND=4,SDI=2,CTI=8,DCI=4,CSU=2,ECU=2,ENI=4,
        8        8              THI=0,DTI=0,IAD=0,CCC                          */
        9        9        /*
       10       10              Type      action
       11       11
       12       12               0        read thru M$SI
       13       13               2        read thru M$UC
       14       14        */
       15       15        VYR$READ: PROC( BUF, SIZE, TYPE )    ALTRET;
       16       16        /*
       17       17                  Include files
       18       18        */
       19       19        %INCLUDE VY_INC_C;
       20     9195        %INCLUDE CP_6_SUBS;
       21     9735        %INCLUDE B$JIT;
       22    10025        %INCLUDE B_MICROPS_C;
       23    10197        %INCLUDE B_ERRORS_C;
       24    11324        %B$TCB;
       25    11327        %B$ALT;
       26    11335        %PLIST;
       27    11336        %E;

             11344    1   /*******************************************************************************
             11345    1   *                                                                              *
             11346    1   *                          ENTRY                                                 *
             11347    1   *                                                                              *
             11348    1   *******************************************************************************/

       28    11352    1   DCL VYE$ERRMSG ENTRY(1);
       29    11353    1   DCL VYI$ERR    ENTRY;
       30    11354        %P;
PL6.E3A0      #001=VYR$READ File=VYR$READ.:E05TSI                                WED 07/30/97 09:02 Page:2

             11362    1   /*******************************************************************************
             11363    1   *                                                                              *
             11364    1   *                          PARAMETERS                                              *
             11365    1   *                                                                              *
             11366    1   *******************************************************************************/

       31    11370    1   DCL BUF        CHAR(256) UNAL;
       32    11371    1   DCL SIZE       UBIN(36)  ALIGNED;
       33    11372    1   DCL TYPE       UBIN(36)  ALIGNED;
       34    11373        %PTR;

             11381    1   /*******************************************************************************
             11382    1   *                                                                              *
             11383    1   *                          PTR                                                 *
             11384    1   *                                                                              *
             11385    1   *******************************************************************************/

       35    11389    1   DCL FPT$            PTR  ALIGNED   STATIC/*AUTO*/;
       36    11390    1   DCL DCB$            PTR  ALIGNED   STATIC/*AUTO*/;
       37    11391        %U;

             11399    1   /*******************************************************************************
             11400    1   *                                                                              *
             11401    1   *                          UBIN                                                 *
             11402    1   *                                                                              *
             11403    1   *******************************************************************************/

       38    11407        %LIST;
       39    11408        %INDEX;
             11409    1   DCL I          UBIN(36) ALIGNED STATIC/*AUTO*/;
             11410    1   DCL SI REDEF I SBIN WORD ALIGNED;
             11411    1   DCL J          UBIN(36) ALIGNED STATIC/*AUTO*/;
             11412    1   DCL SJ REDEF J SBIN WORD ALIGNED;
             11413    1   DCL K          UBIN(36) ALIGNED STATIC/*AUTO*/;
             11414    1   DCL SK REDEF K SBIN WORD ALIGNED;
             11415    1   DCL L          UBIN(36) ALIGNED STATIC/*AUTO*/;
PL6.E3A0      #001=VYR$READ File=VYR$READ.:E05TSI                                WED 07/30/97 09:02 Page:3
             11416    1   DCL SL REDEF L    SBIN WORD ALIGNED;
       40    11418    1   DCL CONSEC_NUM        UBIN    WORD    STATIC      INIT( 0 );
       41    11419        %PLIST;
       42    11420        %BANNER( ARG=FPTS );

             11428    1   /*******************************************************************************
             11429    1   *                                                                              *
             11430    1   *                          FPTS                                                 *
             11431    1   *                                                                              *
             11432    1   *******************************************************************************/

       43    11436        %FPT_READ( FPTN=VY_SI_FPT_READ,
       44    11437                   DCB=M$SI,
       45    11438                   KEY=VY_SI_KEY_BUF,
       46    11439                   KEYS=NO,
       47    11440                   KEYR=YES,
       48    11441                   STCLASS="STATIC SYMDEF");
       49    11480        %FPT_READ( FPTN=VY_UC_FPT_READ,
       50    11481                   DCB=M$UC,
       51    11482                   KEYS=NO,
       52    11483                   KEYR=NO,
       53    11484                   STCLASS="STATIC SYMDEF");
       54    11523        %FPT_WRITE( FPTN=VY_LO_FPT_WRITE,
       55    11524                   DCB=M$LO,
       56    11525                   STCLASS="STATIC SYMDEF");
       57    11556        %FPT_WRITE( FPTN=VY_DO_FPT_WRITE,
       58    11557                   DCB=M$DO,
       59    11558                   STCLASS="STATIC SYMDEF");
       60    11589        %FPT_PROMPT( FPTN=PROMPT_DASH,
       61    11590                   STCLASS=CONSTANT,
       62    11591                   PROMPT=DASH );
       63    11619        %FPT_PROMPT( FPTN=PROMPT_GT,
       64    11620                   STCLASS=CONSTANT,
       65    11621                   PROMPT=GT);
       66    11649        %FPT_WRITE( FPTN=VY_UC_FPT_WRITE,
       67    11650                    STCLASS="STATIC SYMDEF",
       68    11651                    DCB=M$UC,
PL6.E3A0      #001=VYR$READ File=VYR$READ.:E05TSI                                WED 07/30/97 09:02 Page:4
       69    11652                    WAIT=YES );
       70    11683    1   DCL GT   CHAR(1) CONSTANT CALIGNED INIT('>');
       71    11684    1   DCL PRM  CHAR(1)          CALIGNED;
       72    11685    1   DCL DASH CHAR(1) CONSTANT CALIGNED INIT('-');
       73    11686        %FPT_READ( FPTN=FPT$READ, STCLASS="BASED(FPT$)");
       74    11725        %BANNER( ARG=DCBS );

             11733    1   /*******************************************************************************
             11734    1   *                                                                              *
             11735    1   *                          DCBS                                                 *
             11736    1   *                                                                              *
             11737    1   *******************************************************************************/

       75    11741        %F$DCB;
       76    11798    1   DCL M$SI            DCB;
       77    11799    1   DCL M$LO            DCB;
       78    11800    1   DCL M$DO            DCB;
       79    11801        %C;

             11809    1   /*******************************************************************************
             11810    1   *                                                                              *
             11811    1   *                          CHAR                                                 *
             11812    1   *                                                                              *
             11813    1   *******************************************************************************/

       80    11817    1   DCL EDIT_KEY CHAR(8);
       81    11818    1   DCL CONSEC_KEY CHAR(9);
       82    11819        %BANNER( ARG="MICROP STRINGS" );

             11827    1   /*******************************************************************************
             11828    1   *                                                                              *
             11829    1   *                          MICROP STRINGS                                          *
             11830    1   *                                                                              *
             11831    1   *******************************************************************************/

       83    11835    1   DCL EDIT_MOPS(0:4) BIT(9) UNAL CONSTANT INIT('104'O,'321'O,'070'O,'207'O,'323'O);
       84    11836    1   DCL CONSEC_MOPS(0:1) BIT(9) UNAL CONSTANT INIT( '110'O, '321'O );
PL6.E3A0      #001=VYR$READ File=VYR$READ.:E05TSI                                WED 07/30/97 09:02 Page:5
       85    11837        %EJECT;
PL6.E3A0      #001=VYR$READ File=VYR$READ.:E05TSI                                WED 07/30/97 09:02 Page:6
       86    11838    2         DO CASE(TYPE);
       87    11839    2           CASE(0);                        /* M$SI */
       88    11840    2             FPT$ = ADDR( VY_SI_FPT_READ );
       89    11841    2             DCB$ = M$SI$;
       90    11842    2             CALL M$PROMPT ( PROMPT_DASH );
       91    11843    2             PRM = DASH;
       92    11844    2           CASE(2);                        /* M$UC */
       93    11845    2             FPT$ = ADDR( VY_UC_FPT_READ );
       94    11846    2             DCB$ = M$UC$;
       95    11847    2             CALL M$PROMPT ( PROMPT_GT );
       96    11848    2             PRM = GT;
       97    11849    2           END;
       98    11850
       99    11851    1         FPT$READ.BUF_ = VECTOR( BUF );
      100    11852    1         CALL M$READ( FPT$READ       )       ALTRET(READ_ERROR);
      101    11853    1         SIZE = DCB$  -> F$DCB.ARS#;
      102    11854    2         IF SIZE = 0 THEN DO;
      103    11855                  %ERROR_IT;
      104    11858    2             END;
      105    11859
      106    11860    2         IF M$SI$->F$DCB.DDEV.XEQ# OR M$SI$->F$DCB.DDEV.IC# THEN DO;
      107    11861    2             VY_LAST_LINE.SIZE = SIZE + 1;
      108    11862    2             VY_LAST_LINE.OFFSET = 1;
      109    11863    2             CALL CONCAT( VY_LAST_LINE.TEXT, PRM, SUBSTR(BUF,0,SIZE) );
      110    11864    2             END;
      111    11865    2         ELSE DO;
      112    11866    2             VY_LAST_LINE.SIZE = SIZE + 10;
      113    11867    2             VY_LAST_LINE.OFFSET = 10;
      114    11868    2             VY_LAST_LINE.TEXT = ' ';
      115    11869    2             IF M$SI$ -> F$DCB.ORG# = 2
      116    11870    2                     AND  VY_SI_KEY_BUF.COUNT = 3
      117    11871    2                     AND  VY_SI_KEY_BUF.EDIT.NUM <= 99999999
      118    11872    3             THEN DO;
      119    11873    3                 I = VY_SI_KEY_BUF.EDIT.NUM;
      120    11874    3                 CALL BINCHAR( EDIT_KEY, I );
      121    11875    3                 CALL EDITCHAR( VY_LAST_LINE.TEXT, 0, 9, EDIT_MOPS, EDIT_KEY );
      122    11876    3                 END;
PL6.E3A0      #001=VYR$READ File=VYR$READ.:E05TSI                                WED 07/30/97 09:02 Page:7
      123    11877    3             ELSE DO;
      124    11878    3                 CONSEC_NUM = CONSEC_NUM + 1;
      125    11879    3                 CALL BINCHAR( CONSEC_KEY, CONSEC_NUM );
      126    11880    3                 CALL EDITCHAR( VY_LAST_LINE.TEXT, 0, 9, CONSEC_MOPS, CONSEC_KEY );
      127    11881    3                 END;
      128    11882    2             CALL INSERT( VY_LAST_LINE.TEXT, 10, , SUBSTR(BUF,0,SIZE) );
      129    11883    2             END;
      130    11884    1         IF TYPE = 0  /* M$SI */   AND  (B$JIT.CPFLAGS1 & '000000000010'O)
      131    11885    1                 AND  ~ (M$SI$->F$DCB.DDEV.IC# & M$LO$->F$DCB.DDEV.IC#)
      132    11886    2         THEN DO;
      133    11887    2             VY_LO_FPT_WRITE.BUF_ = VECTOR( SUBSTR(VY_LAST_LINE.TEXT,0,VY_LAST_LINE.
             11887                      SIZE) );
      134    11888    2             CALL M$WRITE( VY_LO_FPT_WRITE ) ALTRET( WRITE_ERROR );
      135    11889    2             END;
      136    11890    1         RETURN;
      137    11891
      138    11892
      139    11893
      140    11894    1   READ_ERROR:
      141    11895    1         IF B$TCB$ -> B$TCB.ALT$ -> B$ALT.ERR.ERR#/*@ALT_ERROR*/ = 6 THEN ALTRETURN;
      142    11896    2         ELSE DO;
      143    11897    2             CALL VYE$ERRMSG;
      144    11898    2             CALL VYI$ERR;
      145    11899    2             END;
      146    11900
      147    11901        %EJECT;
PL6.E3A0      #001=VYR$READ File=VYR$READ.:E05TSI                                WED 07/30/97 09:02 Page:8
      148    11902    1   VYW$WRITE: ENTRY( BUF, SIZE, TYPE ) ALTRET;
      149    11903
      150    11904    2         IF TYPE = 0 /* M$UC */ THEN DO;
      151    11905    2             VY_UC_FPT_WRITE.BUF_.BUF$ = ADDR( BUF );
      152    11906    2             VY_UC_FPT_WRITE.BUF_.BOUND = SIZE - 1;
      153    11907    2             CALL M$WRITE ( VY_UC_FPT_WRITE );
      154    11908    2             END;
      155    11909    2         ELSE DO;
      156    11910    2             VY_LO_FPT_WRITE.BUF_.BUF$   = ADDR( BUF );
      157    11911    2             VY_LO_FPT_WRITE.BUF_.BOUND  = SIZE - 1;
      158    11912    2             CALL M$WRITE( VY_LO_FPT_WRITE )         ALTRET( WRITE_ERROR );
      159    11913    3             IF TYPE ~=0 AND VY_FPT_ERRMSG.V.OUTDCB2# ~= DCBNUM(NIL) THEN DO;
      160    11914    3                 VY_DO_FPT_WRITE.BUF_.BUF$   = ADDR( BUF );
      161    11915    3                 VY_DO_FPT_WRITE.BUF_.BOUND   = SIZE - 1;
      162    11916    3                 CALL M$WRITE( VY_DO_FPT_WRITE )     ALTRET( WRITE_ERROR );
      163    11917    3                 END;
      164    11918    2             END;
      165    11919    1         RETURN;
      166    11920
      167    11921
      168    11922
      169    11923    1   WRITE_ERROR:
      170    11924    1         CALL VYE$ERRMSG;
      171    11925              %ERROR_IT;
      172    11928        %EJECT;
PL6.E3A0      #001=VYR$READ File=VYR$READ.:E05TSI                                WED 07/30/97 09:02 Page:9
      173    11929    1   VYW$WRITE_DO: ENTRY( BUF, SIZE ) ALTRET;
      174    11930
      175    11931    1         VY_DO_FPT_WRITE.BUF_.BUF$   = ADDR( BUF );
      176    11932    1         VY_DO_FPT_WRITE.BUF_.BOUND  = SIZE - 1;
      177    11933    1         CALL M$WRITE( VY_DO_FPT_WRITE )         ALTRET( WRITE_ERROR );
      178    11934    1         RETURN;
      179    11935
      180    11936
      181    11937
      182    11938    1   END VYR$READ;

PL6.E3A0      #001=VYR$READ File=VYR$READ.:E05TSI                                WED 07/30/97 09:02 Page:10
--  Include file information  --

   B_ERRORS_C.:E05TOU  is referenced.
   B_MICROPS_C.:E05TOU  is referenced.
   B$JIT.:E05TOU  cannot be made into a system file and is referenced.
   CP_6_SUBS.:E05TOU  is referenced.
   B$OBJECT_C.:E05TOU  is referenced.
   VY_DCB_R.:E05TOU  cannot be made into a system file and is referenced.
   VY_DATA_R.:E05TOU  cannot be made into a system file and is referenced.
   XU_MACRO_C.:E05TOU  is referenced.
   VY_FIXED_R.:E05TOU  cannot be made into a system file and is referenced.
   CP_6.:E05TOU  cannot be made into a system file and is referenced.
   VY_MACRO_C.:E05TOU  is referenced.
   VY_PERR_C.:E05TOU  is referenced.
   VY_SUBS_C.:E05TOU  is referenced.
   VY_INC_NO_C.:E05TOU  is referenced.
   VY_SWITCH_C.:E05TOU  is referenced.
   VY_INC_C.:E05TOU  is referenced.
   B$JIT_C.:E05TOU  was found in the system file and is referenced.
   CP_6_C.:E05TOU  was found in the system file and is referenced.
      No diagnostics issued in procedure VYR$READ.

   Procedure VYR$READ requires 230 words for executable code.
   Procedure VYR$READ requires 14 words of local(AUTO) storage.

    No errors detected in file VYR$READ.:E05TSI    .

PL6.E3A0      #001=VYR$READ File=VYR$READ.:E05TSI                                WED 07/30/97 09:02 Page:11

 Object Unit name= VYR$READ                                   File name= VYR$READ.:E05TOU
 UTS= JUL 30 '97 09:02:32.96 WED                              Compiler= PL-6/E31         Sev=      00
 SharedLib= :SHARED_SYSTEM                                    Alt SharedLib=


    ****  Control sections  ****

 Sect   Type Bound  Init  Size OctSiz  Section name(segment info)
    0   DCB   even  none     0      0  M$UC
    1   Data  even  none    72    110  VYR$READ
    2  RoData even  UTS     25     31  VYR$READ
    3   DCB   even  none     0      0  M$SI
    4   DCB   even  none     0      0  M$LO
    5   DCB   even  none     0      0  M$DO
    6   Proc  even  none   230    346  VYR$READ
    7  RoData even  none     6      6  VYR$READ

    ****  Entry defs  ****

                              Check   Calling
                             calling  sequence
  Sect OctLoc Primary Altret sequence   type   Parms  Name
     6      0   yes    yes     yes      Std        3  VYR$READ
     6    236          yes     yes      Std        3  VYW$WRITE
     6    326          yes     yes      Std        2  VYW$WRITE_DO

  ****  Data defs  ****

 Sect OctLoc  Name                           Sect OctLoc  Name
    1     10  VY_SI_FPT_READ                     1     26  VY_UC_FPT_READ
    1     44  VY_LO_FPT_WRITE                    1     60  VY_DO_FPT_WRITE
    1     74  VY_UC_FPT_WRITE
PL6.E3A0      #001=VYR$READ File=VYR$READ.:E05TSI                                WED 07/30/97 09:02 Page:12

  ****  Entry refs  ****

         Check        Calling
        calling       sequence
Altret sequence SRef   type   Args  Name
         yes           Std       1 VYE$ERRMSG
         yes           Std       0 VYI$ERR
                       Std       0 B_CONSPOOL_D
                       nStd      0 X66_AUTO_3
                       nStd      0 X66_AUNWIND
                       nStd      0 X66_ARET
                       nStd      0 X66_AALT

  ****  Data refs  ****

  Flags:  r = read only, s = secondary
Flgs Name                             Flgs Name                             Flgs Name
     M$UC                                  VY_FPT_ERRMSG                         B$JIT$
     B$TCB$                                VY_ERRORS                             VY_SI_KEY_BUF
     VY_LAST_LINE                          VY_UNWIND                             VY_PAR_UNWIND
     M$UC$                                 M$SI$                                 M$LO$
     M$SI                                  M$LO                                  M$DO
     B_VECTNIL

  ****  Segment refs  ****

  Flags:  r = read only, s = secondary
Flgs Name                             Flgs Name                             Flgs Name
     ISSID                                 NULLSID
PL6.E3A0      #001=VYR$READ File=VYR$READ.:E05TSI                                WED 07/30/97 09:02 Page:13


        1        1        /*M* VYR$READ - reads the LEMUR command stream. */
        2        2        /*T***********************************************************/
        3        3        /*T*                                                         */
        4        4        /*T* Copyright (c) Bull HN Information Systems Inc., 1997    */
        5        5        /*T*                                                         */
        6        6        /*T***********************************************************/
        7        7        /*X*  DMC,DMR,PLM=6,IND=4,SDI=2,CTI=8,DCI=4,CSU=2,ECU=2,ENI=4,
        8        8              THI=0,DTI=0,IAD=0,CCC                          */
        9        9        /*
       10       10              Type      action
       11       11
       12       12               0        read thru M$SI
       13       13               2        read thru M$UC
       14       14        */
       15       15        VYR$READ: PROC( BUF, SIZE, TYPE )    ALTRET;

     15  6 000000   000000 700200 xent  VYR$READ     TSX0  ! X66_AUTO_3
         6 000001   000016 000003                    ZERO    14,3

       16       16        /*
       17       17                  Include files
       18       18        */
       19       19        %INCLUDE VY_INC_C;
       20     9195        %INCLUDE CP_6_SUBS;
       21     9735        %INCLUDE B$JIT;
       22    10025        %INCLUDE B_MICROPS_C;
       23    10197        %INCLUDE B_ERRORS_C;
       24    11324        %B$TCB;
       25    11327        %B$ALT;
       26    11335        %PLIST;
       27    11336        %E;

             11344    1   /*******************************************************************************
             11345    1   *                                                                              *
             11346    1   *                          ENTRY                                                 *
             11347    1   *                                                                              *
PL6.E3A0      #001=VYR$READ File=VYR$READ.:E05TSI                                WED 07/30/97 09:02 Page:14
             11348    1   *******************************************************************************/

       28    11352    1   DCL VYE$ERRMSG ENTRY(1);
       29    11353    1   DCL VYI$ERR    ENTRY;
       30    11354        %P;

             11362    1   /*******************************************************************************
             11363    1   *                                                                              *
             11364    1   *                          PARAMETERS                                             *
             11365    1   *                                                                              *
             11366    1   *******************************************************************************/

       31    11370    1   DCL BUF        CHAR(256) UNAL;
       32    11371    1   DCL SIZE       UBIN(36)  ALIGNED;
       33    11372    1   DCL TYPE       UBIN(36)  ALIGNED;
       34    11373        %PTR;

             11381    1   /*******************************************************************************
             11382    1   *                                                                              *
             11383    1   *                          PTR                                                 *
             11384    1   *                                                                              *
             11385    1   *******************************************************************************/

       35    11389    1   DCL FPT$            PTR  ALIGNED   STATIC/*AUTO*/;
       36    11390    1   DCL DCB$            PTR  ALIGNED   STATIC/*AUTO*/;
       37    11391        %U;

             11399    1   /*******************************************************************************
             11400    1   *                                                                              *
             11401    1   *                          UBIN                                                 *
             11402    1   *                                                                              *
             11403    1   *******************************************************************************/

       38    11407        %LIST;
       39    11408        %INDEX;
             11409    1   DCL I          UBIN(36) ALIGNED STATIC/*AUTO*/;
             11410    1   DCL SI REDEF I SBIN WORD ALIGNED;
PL6.E3A0      #001=VYR$READ File=VYR$READ.:E05TSI                                WED 07/30/97 09:02 Page:15
             11411    1   DCL J          UBIN(36) ALIGNED STATIC/*AUTO*/;
             11412    1   DCL SJ REDEF J SBIN WORD ALIGNED;
             11413    1   DCL K          UBIN(36) ALIGNED STATIC/*AUTO*/;
             11414    1   DCL SK REDEF K SBIN WORD ALIGNED;
             11415    1   DCL L          UBIN(36) ALIGNED STATIC/*AUTO*/;
             11416    1   DCL SL REDEF L    SBIN WORD ALIGNED;
       40    11418    1   DCL CONSEC_NUM        UBIN    WORD    STATIC      INIT( 0 );
       41    11419        %PLIST;
       42    11420        %BANNER( ARG=FPTS );

             11428    1   /*******************************************************************************
             11429    1   *                                                                              *
             11430    1   *                          FPTS                                                 *
             11431    1   *                                                                              *
             11432    1   *******************************************************************************/

       43    11436        %FPT_READ( FPTN=VY_SI_FPT_READ,
       44    11437                   DCB=M$SI,
       45    11438                   KEY=VY_SI_KEY_BUF,
       46    11439                   KEYS=NO,
       47    11440                   KEYR=YES,
       48    11441                   STCLASS="STATIC SYMDEF");
       49    11480        %FPT_READ( FPTN=VY_UC_FPT_READ,
       50    11481                   DCB=M$UC,
       51    11482                   KEYS=NO,
       52    11483                   KEYR=NO,
       53    11484                   STCLASS="STATIC SYMDEF");
       54    11523        %FPT_WRITE( FPTN=VY_LO_FPT_WRITE,
       55    11524                   DCB=M$LO,
       56    11525                   STCLASS="STATIC SYMDEF");
       57    11556        %FPT_WRITE( FPTN=VY_DO_FPT_WRITE,
       58    11557                   DCB=M$DO,
       59    11558                   STCLASS="STATIC SYMDEF");
       60    11589        %FPT_PROMPT( FPTN=PROMPT_DASH,
       61    11590                   STCLASS=CONSTANT,
       62    11591                   PROMPT=DASH );
       63    11619        %FPT_PROMPT( FPTN=PROMPT_GT,
PL6.E3A0      #001=VYR$READ File=VYR$READ.:E05TSI                                WED 07/30/97 09:02 Page:16
       64    11620                   STCLASS=CONSTANT,
       65    11621                   PROMPT=GT);
       66    11649        %FPT_WRITE( FPTN=VY_UC_FPT_WRITE,
       67    11650                    STCLASS="STATIC SYMDEF",
       68    11651                    DCB=M$UC,
       69    11652                    WAIT=YES );
       70    11683    1   DCL GT   CHAR(1) CONSTANT CALIGNED INIT('>');
       71    11684    1   DCL PRM  CHAR(1)          CALIGNED;
       72    11685    1   DCL DASH CHAR(1) CONSTANT CALIGNED INIT('-');
       73    11686        %FPT_READ( FPTN=FPT$READ, STCLASS="BASED(FPT$)");
       74    11725        %BANNER( ARG=DCBS );

             11733    1   /*******************************************************************************
             11734    1   *                                                                              *
             11735    1   *                          DCBS                                                 *
             11736    1   *                                                                              *
             11737    1   *******************************************************************************/

       75    11741        %F$DCB;
       76    11798    1   DCL M$SI            DCB;
       77    11799    1   DCL M$LO            DCB;
       78    11800    1   DCL M$DO            DCB;
       79    11801        %C;

             11809    1   /*******************************************************************************
             11810    1   *                                                                              *
             11811    1   *                          CHAR                                                 *
             11812    1   *                                                                              *
             11813    1   *******************************************************************************/

       80    11817    1   DCL EDIT_KEY CHAR(8);
       81    11818    1   DCL CONSEC_KEY CHAR(9);
       82    11819        %BANNER( ARG="MICROP STRINGS" );

             11827    1   /*******************************************************************************
             11828    1   *                                                                              *
             11829    1   *                          MICROP STRINGS                                         *
PL6.E3A0      #001=VYR$READ File=VYR$READ.:E05TSI                                WED 07/30/97 09:02 Page:17
             11830    1   *                                                                              *
             11831    1   *******************************************************************************/

       83    11835    1   DCL EDIT_MOPS(0:4) BIT(9) UNAL CONSTANT INIT('104'O,'321'O,'070'O,'207'O,'323'O);
       84    11836    1   DCL CONSEC_MOPS(0:1) BIT(9) UNAL CONSTANT INIT( '110'O, '321'O );
       85    11837        %EJECT;
PL6.E3A0      #001=VYR$READ File=VYR$READ.:E05TSI                                WED 07/30/97 09:02 Page:18
       86    11838    2         DO CASE(TYPE);

  11838  6 000002   200005 470500                    LDP0    @TYPE,,AUTO
         6 000003   000000 235100                    LDA     0,,PR0
         6 000004   000003 115007                    CMPA    3,DL
         6 000005   000007 602005 6                  TNC     s:11838+5,AL
         6 000006   000041 710000 6                  TRA     s:11851
         6 000007   000012 710000 6                  TRA     s:11840
         6 000010   000041 710000 6                  TRA     s:11851
         6 000011   000026 710000 6                  TRA     s:11845

       87    11839    2           CASE(0);                        /* M$SI */

       88    11840    2             FPT$ = ADDR( VY_SI_FPT_READ );

  11840  6 000012   000000 236000 7                  LDQ     0
         6 000013   000000 756000 1                  STQ     FPT$

       89    11841    2             DCB$ = M$SI$;

  11841  6 000014   000000 236000 xsym               LDQ     M$SI$
         6 000015   000001 756000 1                  STQ     DCB$

       90    11842    2             CALL M$PROMPT ( PROMPT_DASH );

  11842  6 000016   000000 630400 2                  EPPR0   PROMPT_DASH
         6 000017   160002 713400                    CLIMB   57346
         6 000020   401000 401760                    pmme    nvectors=3

       91    11843    2             PRM = DASH;

  11843  6 000021   000025 236000 2                  LDQ     DASH
         6 000022   777000 376003                    ANQ     -512,DU
         6 000023   000001 276000 7                  ORQ     1
         6 000024   200006 756100                    STQ     PRM,,AUTO
         6 000025   000041 710000 6                  TRA     s:11851

PL6.E3A0      #001=VYR$READ File=VYR$READ.:E05TSI                                WED 07/30/97 09:02 Page:19
       92    11844    2           CASE(2);                        /* M$UC */

       93    11845    2             FPT$ = ADDR( VY_UC_FPT_READ );

  11845  6 000026   000002 236000 7                  LDQ     2
         6 000027   000000 756000 1                  STQ     FPT$

       94    11846    2             DCB$ = M$UC$;

  11846  6 000030   000000 236000 xsym               LDQ     M$UC$
         6 000031   000001 756000 1                  STQ     DCB$

       95    11847    2             CALL M$PROMPT ( PROMPT_GT );

  11847  6 000032   000012 630400 2                  EPPR0   PROMPT_GT
         6 000033   160002 713400                    CLIMB   57346
         6 000034   401000 401760                    pmme    nvectors=3

       96    11848    2             PRM = GT;

  11848  6 000035   000024 236000 2                  LDQ     GT
         6 000036   777000 376003                    ANQ     -512,DU
         6 000037   000001 276000 7                  ORQ     1
         6 000040   200006 756100                    STQ     PRM,,AUTO

       97    11849    2           END;

       98    11850
       99    11851    1         FPT$READ.BUF_ = VECTOR( BUF );

  11851  6 000041   000003 235000 7                  LDA     3
         6 000042   200003 236100                    LDQ     @BUF,,AUTO
         6 000043   000000 470400 1                  LDP0    FPT$
         6 000044   000004 757100                    STAQ    4,,PR0

      100    11852    1         CALL M$READ( FPT$READ       )       ALTRET(READ_ERROR);

PL6.E3A0      #001=VYR$READ File=VYR$READ.:E05TSI                                WED 07/30/97 09:02 Page:20
  11852  6 000045   440000 713400                    CLIMB   alt,read
         6 000046   401400 401760                    pmme    nvectors=4
         6 000047   000220 702000 6                  TSX2    READ_ERROR

      101    11853    1         SIZE = DCB$  -> F$DCB.ARS#;

  11853  6 000050   000001 470400 1                  LDP0    DCB$
         6 000051   000000 235100                    LDA     0,,PR0
         6 000052   200004 471500                    LDP1    @SIZE,,AUTO
         6 000053   100000 755100                    STA     0,,PR1

      102    11854    2         IF SIZE = 0 THEN DO;

  11854  6 000054   000060 601000 6                  TNZ     s:11860

      103    11855                  %ERROR_IT;

  11856  6 000055   000000 237200 xsym               LDAQ  ! VY_UNWIND
         6 000056   000000 700200 xent               TSX0  ! X66_AUNWIND
         6 000057   000000 000200                    ZERO    0,128

      104    11858    2             END;
      105    11859
      106    11860    2         IF M$SI$->F$DCB.DDEV.XEQ# OR M$SI$->F$DCB.DDEV.IC# THEN DO;

  11860  6 000060   000000 473400 xsym               LDP3    M$SI$
         6 000061   300004 236100                    LDQ     4,,PR3
         6 000062   040000 316007                    CANQ    16384,DL
         6 000063   000066 601000 6                  TNZ     s:11861
         6 000064   100000 316007                    CANQ    32768,DL
         6 000065   000104 600000 6                  TZE     s:11866

      107    11861    2             VY_LAST_LINE.SIZE = SIZE + 1;

  11861  6 000066   000001 035007                    ADLA    1,DL
         6 000067   000000 755000 xsym               STA     VY_LAST_LINE

PL6.E3A0      #001=VYR$READ File=VYR$READ.:E05TSI                                WED 07/30/97 09:02 Page:21
      108    11862    2             VY_LAST_LINE.OFFSET = 1;

  11862  6 000070   000001 235007                    LDA     1,DL
         6 000071   000001 755000 xsym               STA     VY_LAST_LINE+1

      109    11863    2             CALL CONCAT( VY_LAST_LINE.TEXT, PRM, SUBSTR(BUF,0,SIZE) );

  11863  6 000072   100000 720100                    LXL0    0,,PR1
         6 000073   200006 236100                    LDQ     PRM,,AUTO
         6 000074   777000 376003                    ANQ     -512,DU
         6 000075   000001 276000 7                  ORQ     1
         6 000076   000002 756000 xsym               STQ     VY_LAST_LINE+2
         6 000077   200003 474500                    LDP4    @BUF,,AUTO
         6 000100   040000 100540                    MLR     fill='040'O
         6 000101   400000 000010                    ADSC9   0,,PR4                   cn=0,n=*X0
         6 000102   000002 200411 xsym               ADSC9   VY_LAST_LINE+2           cn=1,n=265

      110    11864    2             END;

  11864  6 000103   000163 710000 6                  TRA     s:11884

      111    11865    2         ELSE DO;

      112    11866    2             VY_LAST_LINE.SIZE = SIZE + 10;

  11866  6 000104   000012 035007                    ADLA    10,DL
         6 000105   000000 755000 xsym               STA     VY_LAST_LINE

      113    11867    2             VY_LAST_LINE.OFFSET = 10;

  11867  6 000106   000012 235007                    LDA     10,DL
         6 000107   000001 755000 xsym               STA     VY_LAST_LINE+1

      114    11868    2             VY_LAST_LINE.TEXT = ' ';

  11868  6 000110   040000 100400                    MLR     fill='040'O
         6 000111   000035 000001 xsym               ADSC9   B_VECTNIL+29             cn=0,n=1
PL6.E3A0      #001=VYR$READ File=VYR$READ.:E05TSI                                WED 07/30/97 09:02 Page:22
         6 000112   000002 000412 xsym               ADSC9   VY_LAST_LINE+2           cn=0,n=266

      115    11869    2             IF M$SI$ -> F$DCB.ORG# = 2

  11869  6 000113   300032 236100                    LDQ     26,,PR3
         6 000114   777000 376003                    ANQ     -512,DU
         6 000115   002000 116003                    CMPQ    1024,DU
         6 000116   000142 601000 6                  TNZ     s:11878
         6 000117   000000 236000 xsym               LDQ     VY_SI_KEY_BUF
         6 000120   777000 376003                    ANQ     -512,DU
         6 000121   003000 116003                    CMPQ    1536,DU
         6 000122   000142 601000 6                  TNZ     s:11878
         6 000123   000000 236000 xsym               LDQ     VY_SI_KEY_BUF
         6 000124   000032 376000 xsym               ANQ     B_VECTNIL+26
         6 000125   000004 116000 7                  CMPQ    4
         6 000126   000142 603000 6                  TRC     s:11878

      116    11870    2                     AND  VY_SI_KEY_BUF.COUNT = 3
      117    11871    2                     AND  VY_SI_KEY_BUF.EDIT.NUM <= 99999999
      118    11872    3             THEN DO;

      119    11873    3                 I = VY_SI_KEY_BUF.EDIT.NUM;

  11873  6 000127   000002 756000 1                  STQ     I

      120    11874    3                 CALL BINCHAR( EDIT_KEY, I );

  11874  6 000130   000000 235003                    LDA     0,DU
         6 000131   200014 757100                    STAQ    CONSEC_KEY+3,,AUTO
         6 000132   000100 301500                    BTD
         6 000133   200014 000010                    NDSC9   CONSEC_KEY+3,,AUTO       cn=0,s=lsgnf,sf=0,n=8
         6 000134   200007 030010                    NDSC9   EDIT_KEY,,AUTO           cn=0,s=nosgn,sf=0,n=8

      121    11875    3                 CALL EDITCHAR( VY_LAST_LINE.TEXT, 0, 9, EDIT_MOPS, EDIT_KEY );

  11875  6 000135   000000 024500                    MVNE
         6 000136   200007 030010                    NDSC9   EDIT_KEY,,AUTO           cn=0,s=nosgn,sf=0,n=8
PL6.E3A0      #001=VYR$READ File=VYR$READ.:E05TSI                                WED 07/30/97 09:02 Page:23
         6 000137   000026 000005 2                  ADSC9   EDIT_MOPS                cn=0,n=5
         6 000140   000002 000011 xsym               ADSC9   VY_LAST_LINE+2           cn=0,n=9

      122    11876    3                 END;

  11876  6 000141   000156 710000 6                  TRA     s:11882

      123    11877    3             ELSE DO;

      124    11878    3                 CONSEC_NUM = CONSEC_NUM + 1;

  11878  6 000142   000006 236000 1                  LDQ     CONSEC_NUM
         6 000143   000001 036007                    ADLQ    1,DL
         6 000144   000006 756000 1                  STQ     CONSEC_NUM

      125    11879    3                 CALL BINCHAR( CONSEC_KEY, CONSEC_NUM );

  11879  6 000145   000000 235003                    LDA     0,DU
         6 000146   200014 757100                    STAQ    CONSEC_KEY+3,,AUTO
         6 000147   000100 301500                    BTD
         6 000150   200014 000010                    NDSC9   CONSEC_KEY+3,,AUTO       cn=0,s=lsgnf,sf=0,n=8
         6 000151   200011 030011                    NDSC9   CONSEC_KEY,,AUTO         cn=0,s=nosgn,sf=0,n=9

      126    11880    3                 CALL EDITCHAR( VY_LAST_LINE.TEXT, 0, 9, CONSEC_MOPS, CONSEC_KEY );

  11880  6 000152   000000 024500                    MVNE
         6 000153   200011 030011                    NDSC9   CONSEC_KEY,,AUTO         cn=0,s=nosgn,sf=0,n=9
         6 000154   000030 000002 2                  ADSC9   CONSEC_MOPS              cn=0,n=2
         6 000155   000002 000011 xsym               ADSC9   VY_LAST_LINE+2           cn=0,n=9

      127    11881    3                 END;

      128    11882    2             CALL INSERT( VY_LAST_LINE.TEXT, 10, , SUBSTR(BUF,0,SIZE) );

  11882  6 000156   100000 720100                    LXL0    0,,PR1
         6 000157   200003 474500                    LDP4    @BUF,,AUTO
         6 000160   040000 100540                    MLR     fill='040'O
PL6.E3A0      #001=VYR$READ File=VYR$READ.:E05TSI                                WED 07/30/97 09:02 Page:24
         6 000161   400000 000010                    ADSC9   0,,PR4                   cn=0,n=*X0
         6 000162   000004 400400 xsym               ADSC9   VY_LAST_LINE+4           cn=2,n=256

      129    11883    2             END;

      130    11884    1         IF TYPE = 0  /* M$SI */   AND  (B$JIT.CPFLAGS1 & '000000000010'O)

  11884  6 000163   200005 470500                    LDP0    @TYPE,,AUTO
         6 000164   000000 235100                    LDA     0,,PR0
         6 000165   000217 601000 6                  TNZ     s:11890
         6 000166   000000 471400 xsym               LDP1    B$JIT$
         6 000167   100143 236100                    LDQ     99,,PR1
         6 000170   000012 376000 xsym               ANQ     B_VECTNIL+10
         6 000171   000217 600000 6                  TZE     s:11890
         6 000172   000000 473400 xsym               LDP3    M$LO$
         6 000173   300004 236100                    LDQ     4,,PR3
         6 000174   000024 736000                    QLS     20
         6 000175   400000 376003                    ANQ     -131072,DU
         6 000176   200014 756100                    STQ     CONSEC_KEY+3,,AUTO
         6 000177   000000 474400 xsym               LDP4    M$SI$
         6 000200   400004 236100                    LDQ     4,,PR4
         6 000201   000024 736000                    QLS     20
         6 000202   400000 376003                    ANQ     -131072,DU
         6 000203   200014 376100                    ANQ     CONSEC_KEY+3,,AUTO
         6 000204   400000 676003                    ERQ     -131072,DU
         6 000205   000217 600000 6                  TZE     s:11890

      131    11885    1                 AND  ~ (M$SI$->F$DCB.DDEV.IC# & M$LO$->F$DCB.DDEV.IC#)
      132    11886    2         THEN DO;

      133    11887    2             VY_LO_FPT_WRITE.BUF_ = VECTOR( SUBSTR(VY_LAST_LINE.TEXT,0,VY_LAST_LINE.
             11887                      SIZE) );

  11887  6 000206   000000 235000 xsym               LDA     VY_LAST_LINE
         6 000207   000020 735000                    ALS     16
         6 000210   000140 135007                    SBLA    96,DL
         6 000211   000005 236000 7                  LDQ     5
PL6.E3A0      #001=VYR$READ File=VYR$READ.:E05TSI                                WED 07/30/97 09:02 Page:25
         6 000212   000050 757000 1                  STAQ    VY_LO_FPT_WRITE+4

      134    11888    2             CALL M$WRITE( VY_LO_FPT_WRITE ) ALTRET( WRITE_ERROR );

  11888  6 000213   000044 630400 1                  EPPR0   VY_LO_FPT_WRITE
         6 000214   440001 713400                    CLIMB   alt,write
         6 000215   401400 401760                    pmme    nvectors=4
         6 000216   000320 702000 6                  TSX2    WRITE_ERROR

      135    11889    2             END;

      136    11890    1         RETURN;

  11890  6 000217   000000 702200 xent               TSX2  ! X66_ARET

      137    11891
      138    11892
      139    11893
      140    11894    1   READ_ERROR:
      141    11895    1         IF B$TCB$ -> B$TCB.ALT$ -> B$ALT.ERR.ERR#/*@ALT_ERROR*/ = 6 THEN ALTRETURN;

  11895  6 000220   000000 470400 xsym  READ_ERROR   LDP0    B$TCB$
         6 000221   000000 471500                    LDP1    0,,PR0
         6 000222   100102 236100                    LDQ     66,,PR1
         6 000223   377770 376007                    ANQ     131064,DL
         6 000224   000060 116007                    CMPQ    48,DL
         6 000225   000227 601000 6                  TNZ     s:11897

  11895  6 000226   000000 702200 xent               TSX2  ! X66_AALT

      142    11896    2         ELSE DO;

      143    11897    2             CALL VYE$ERRMSG;

  11897  6 000227   000002 631400 xsym               EPPR1   B_VECTNIL+2
         6 000230   000000 701000 xent               TSX1    VYE$ERRMSG
         6 000231   000000 011000                    NOP     0
PL6.E3A0      #001=VYR$READ File=VYR$READ.:E05TSI                                WED 07/30/97 09:02 Page:26

      144    11898    2             CALL VYI$ERR;

  11898  6 000232   000002 631400 xsym               EPPR1   B_VECTNIL+2
         6 000233   000000 701000 xent               TSX1    VYI$ERR
         6 000234   000000 011000                    NOP     0

      145    11899    2             END;

  11899  6 000235   000240 710000 6                  TRA     s:11904

      146    11900
      147    11901        %EJECT;
PL6.E3A0      #001=VYR$READ File=VYR$READ.:E05TSI                                WED 07/30/97 09:02 Page:27
      148    11902    1   VYW$WRITE: ENTRY( BUF, SIZE, TYPE ) ALTRET;

  11902  6 000236   000000 700200 xent  VYW$WRITE    TSX0  ! X66_AUTO_3
         6 000237   000016 000003                    ZERO    14,3

      149    11903
      150    11904    2         IF TYPE = 0 /* M$UC */ THEN DO;

  11904  6 000240   200005 470500                    LDP0    @TYPE,,AUTO
         6 000241   000000 235100                    LDA     0,,PR0
         6 000242   000260 601000 6                  TNZ     s:11910

      151    11905    2             VY_UC_FPT_WRITE.BUF_.BUF$ = ADDR( BUF );

  11905  6 000243   200003 236100                    LDQ     @BUF,,AUTO
         6 000244   000101 756000 1                  STQ     VY_UC_FPT_WRITE+5

      152    11906    2             VY_UC_FPT_WRITE.BUF_.BOUND = SIZE - 1;

  11906  6 000245   200004 471500                    LDP1    @SIZE,,AUTO
         6 000246   100000 236100                    LDQ     0,,PR1
         6 000247   000001 136007                    SBLQ    1,DL
         6 000250   000020 736000                    QLS     16
         6 000251   000100 676000 1                  ERQ     VY_UC_FPT_WRITE+4
         6 000252   000034 376000 xsym               ANQ     B_VECTNIL+28
         6 000253   000100 656000 1                  ERSQ    VY_UC_FPT_WRITE+4

      153    11907    2             CALL M$WRITE ( VY_UC_FPT_WRITE );

  11907  6 000254   000074 630400 1                  EPPR0   VY_UC_FPT_WRITE
         6 000255   040001 713400                    CLIMB   write
         6 000256   401400 401760                    pmme    nvectors=4

      154    11908    2             END;

  11908  6 000257   000317 710000 6                  TRA     s:11919

PL6.E3A0      #001=VYR$READ File=VYR$READ.:E05TSI                                WED 07/30/97 09:02 Page:28
      155    11909    2         ELSE DO;

      156    11910    2             VY_LO_FPT_WRITE.BUF_.BUF$   = ADDR( BUF );

  11910  6 000260   200003 236100                    LDQ     @BUF,,AUTO
         6 000261   000051 756000 1                  STQ     VY_LO_FPT_WRITE+5

      157    11911    2             VY_LO_FPT_WRITE.BUF_.BOUND  = SIZE - 1;

  11911  6 000262   200004 471500                    LDP1    @SIZE,,AUTO
         6 000263   100000 236100                    LDQ     0,,PR1
         6 000264   000001 136007                    SBLQ    1,DL
         6 000265   000020 736000                    QLS     16
         6 000266   000050 676000 1                  ERQ     VY_LO_FPT_WRITE+4
         6 000267   000034 376000 xsym               ANQ     B_VECTNIL+28
         6 000270   000050 656000 1                  ERSQ    VY_LO_FPT_WRITE+4

      158    11912    2             CALL M$WRITE( VY_LO_FPT_WRITE )         ALTRET( WRITE_ERROR );

  11912  6 000271   000044 630400 1                  EPPR0   VY_LO_FPT_WRITE
         6 000272   440001 713400                    CLIMB   alt,write
         6 000273   401400 401760                    pmme    nvectors=4
         6 000274   000320 702000 6                  TSX2    WRITE_ERROR

      159    11913    3             IF TYPE ~=0 AND VY_FPT_ERRMSG.V.OUTDCB2# ~= DCBNUM(NIL) THEN DO;

  11913  6 000275   200005 470500                    LDP0    @TYPE,,AUTO
         6 000276   000000 235100                    LDA     0,,PR0
         6 000277   000317 600000 6                  TZE     s:11919
         6 000300   000027 220000 xsym               LDX0    VY_FPT_ERRMSG+23
         6 000301   000317 600000 6                  TZE     s:11919

      160    11914    3                 VY_DO_FPT_WRITE.BUF_.BUF$   = ADDR( BUF );

  11914  6 000302   200003 236100                    LDQ     @BUF,,AUTO
         6 000303   000065 756000 1                  STQ     VY_DO_FPT_WRITE+5

PL6.E3A0      #001=VYR$READ File=VYR$READ.:E05TSI                                WED 07/30/97 09:02 Page:29
      161    11915    3                 VY_DO_FPT_WRITE.BUF_.BOUND   = SIZE - 1;

  11915  6 000304   200004 471500                    LDP1    @SIZE,,AUTO
         6 000305   100000 236100                    LDQ     0,,PR1
         6 000306   000001 136007                    SBLQ    1,DL
         6 000307   000020 736000                    QLS     16
         6 000310   000064 676000 1                  ERQ     VY_DO_FPT_WRITE+4
         6 000311   000034 376000 xsym               ANQ     B_VECTNIL+28
         6 000312   000064 656000 1                  ERSQ    VY_DO_FPT_WRITE+4

      162    11916    3                 CALL M$WRITE( VY_DO_FPT_WRITE )     ALTRET( WRITE_ERROR );

  11916  6 000313   000060 630400 1                  EPPR0   VY_DO_FPT_WRITE
         6 000314   440001 713400                    CLIMB   alt,write
         6 000315   401400 401760                    pmme    nvectors=4
         6 000316   000320 702000 6                  TSX2    WRITE_ERROR

      163    11917    3                 END;

      164    11918    2             END;

      165    11919    1         RETURN;

  11919  6 000317   000000 702200 xent               TSX2  ! X66_ARET

      166    11920
      167    11921
      168    11922
      169    11923    1   WRITE_ERROR:
      170    11924    1         CALL VYE$ERRMSG;

  11924  6 000320   000002 631400 xsym  WRITE_ERROR  EPPR1   B_VECTNIL+2
         6 000321   000000 701000 xent               TSX1    VYE$ERRMSG
         6 000322   000000 011000                    NOP     0

      171    11925              %ERROR_IT;

PL6.E3A0      #001=VYR$READ File=VYR$READ.:E05TSI                                WED 07/30/97 09:02 Page:30
  11926  6 000323   000000 237200 xsym               LDAQ  ! VY_UNWIND
         6 000324   000000 700200 xent               TSX0  ! X66_AUNWIND
         6 000325   000000 000200                    ZERO    0,128

      172    11928        %EJECT;
PL6.E3A0      #001=VYR$READ File=VYR$READ.:E05TSI                                WED 07/30/97 09:02 Page:31
      173    11929    1   VYW$WRITE_DO: ENTRY( BUF, SIZE ) ALTRET;

  11929  6 000326   000000 700200 xent  VYW$WRITE_DO TSX0  ! X66_AUTO_3
         6 000327   000016 000003                    ZERO    14,3

      174    11930
      175    11931    1         VY_DO_FPT_WRITE.BUF_.BUF$   = ADDR( BUF );

  11931  6 000330   200003 236100                    LDQ     @BUF,,AUTO
         6 000331   000065 756000 1                  STQ     VY_DO_FPT_WRITE+5

      176    11932    1         VY_DO_FPT_WRITE.BUF_.BOUND  = SIZE - 1;

  11932  6 000332   200004 470500                    LDP0    @SIZE,,AUTO
         6 000333   000000 236100                    LDQ     0,,PR0
         6 000334   000001 136007                    SBLQ    1,DL
         6 000335   000020 736000                    QLS     16
         6 000336   000064 676000 1                  ERQ     VY_DO_FPT_WRITE+4
         6 000337   000034 376000 xsym               ANQ     B_VECTNIL+28
         6 000340   000064 656000 1                  ERSQ    VY_DO_FPT_WRITE+4

      177    11933    1         CALL M$WRITE( VY_DO_FPT_WRITE )         ALTRET( WRITE_ERROR );

  11933  6 000341   000060 630400 1                  EPPR0   VY_DO_FPT_WRITE
         6 000342   440001 713400                    CLIMB   alt,write
         6 000343   401400 401760                    pmme    nvectors=4
         6 000344   000320 702000 6                  TSX2    WRITE_ERROR

      178    11934    1         RETURN;

  11934  6 000345   000000 702200 xent               TSX2  ! X66_ARET
      179    11935
      180    11936
      181    11937
      182    11938    1   END VYR$READ;

PL6.E3A0      #001=VYR$READ File=VYR$READ.:E05TSI                                WED 07/30/97 09:02 Page:32
--  Include file information  --

   B_ERRORS_C.:E05TOU  is referenced.
   B_MICROPS_C.:E05TOU  is referenced.
   B$JIT.:E05TOU  cannot be made into a system file and is referenced.
   CP_6_SUBS.:E05TOU  is referenced.
   B$OBJECT_C.:E05TOU  is referenced.
   VY_DCB_R.:E05TOU  cannot be made into a system file and is referenced.
   VY_DATA_R.:E05TOU  cannot be made into a system file and is referenced.
   XU_MACRO_C.:E05TOU  is referenced.
   VY_FIXED_R.:E05TOU  cannot be made into a system file and is referenced.
   CP_6.:E05TOU  cannot be made into a system file and is referenced.
   VY_MACRO_C.:E05TOU  is referenced.
   VY_PERR_C.:E05TOU  is referenced.
   VY_SUBS_C.:E05TOU  is referenced.
   VY_INC_NO_C.:E05TOU  is referenced.
   VY_SWITCH_C.:E05TOU  is referenced.
   VY_INC_C.:E05TOU  is referenced.
   B$JIT_C.:E05TOU  was found in the system file and is referenced.
   CP_6_C.:E05TOU  was found in the system file and is referenced.
      No diagnostics issued in procedure VYR$READ.
PL6.E3A0      #001=VYR$READ File=VYR$READ.:E05TSI                                WED 07/30/97 09:02 Page:33

 **** Variables and constants ****

  ****  Section 001  Data  VYR$READ

  ****  Scalars and arrays  ****
OctLoc.c.b A Datatyp(siz) R M Lvl/name                 OctLoc.c.b A Datatyp(siz) R M Lvl/name

     6-0-0/w UBIN        r     1 CONSEC_NUM                 1-0-0/w PTR         r     1 DCB$
     0-0-0/w PTR         r     1 FPT$                       2-0-0/w UBIN        r     1 I
    60-0-0/d STRC(432)   r     1 VY_DO_FPT_WRITE           44-0-0/d STRC(432)   r     1 VY_LO_FPT_WRITE
    10-0-0/d STRC(504)   r     1 VY_SI_FPT_READ            26-0-0/d STRC(504)   r     1 VY_UC_FPT_READ
    74-0-0/d STRC(432)   r     1 VY_UC_FPT_WRITE

  ****  Section 002 RoData VYR$READ

  ****  Scalars and arrays  ****
OctLoc.c.b A Datatyp(siz) R M Lvl/name                 OctLoc.c.b A Datatyp(siz) R M Lvl/name

    30-0-0/b BIT (9)     r     1 CONSEC_MOPS(0:1)
    25-0-0/c CHAR        r     1 DASH
    26-0-0/b BIT (9)     r     1 EDIT_MOPS(0:4)
    24-0-0/c CHAR        r     1 GT                         0-0-0/d STRC(360)   r     1 PROMPT_DASH
    12-0-0/d STRC(360)   r     1 PROMPT_GT

  ****  Auto variables  ****

  ****  Scalars and arrays  ****
OctLoc.c.b A Datatyp(siz) R M Lvl/name                 OctLoc.c.b A Datatyp(siz) R M Lvl/name

     3-0-0/w PTR         r     1 @BUF                       4-0-0/w PTR         r     1 @SIZE
     5-0-0/w PTR         r     1 @TYPE                     *0-0-0/c CHAR(256)   r     1 BUF
    11-0-0/c CHAR(9)     r     1 CONSEC_KEY                 7-0-0/c CHAR(8)     r     1 EDIT_KEY
     6-0-0/c CHAR        r     1 PRM                       *0-0-0/w UBIN        r     1 SIZE
    *0-0-0/w UBIN        r     1 TYPE

  ****  SYMREF variables  ****

PL6.E3A0      #001=VYR$READ File=VYR$READ.:E05TSI                                WED 07/30/97 09:02 Page:34
  ****  Scalars and arrays  ****
OctLoc.c.b A Datatyp(siz) R M Lvl/name                 OctLoc.c.b A Datatyp(siz) R M Lvl/name

     0-0-0/w PTR         r     1 B$JIT$                     0-0-0/w PTR         r     1 B$TCB$
     0-0-0/w PTR         r     1 M$LO$                      0-0-0/w PTR         r     1 M$SI$
     0-0-0/w PTR         r     1 M$UC$                      0-0-0/d STRC(936)   r     1 VY_FPT_ERRMSG
     0-0-0/w STRC(2466)  r     1 VY_LAST_LINE               0-0-0/w STRC(2304)  r     1 VY_SI_KEY_BUF
     0-0-0/d REMB        r     1 VY_UNWIND

  ****  BASED and DCB variables  ****

  ****  Scalars and arrays  ****
OctLoc.c.b A Datatyp(siz) R M Lvl/name                 OctLoc.c.b A Datatyp(siz) R M Lvl/name

     0-0-0/w STRC(2448)  r     1 B$ALT                      0-0-0/d STRC(8856)  r     1 B$JIT
     0-0-0/w STRC(144)   r     1 B$TCB                      0-0-0/d ASTR(3528)  r     1 F$DCB
     0-0-0/d STRC(504)   r     1 FPT$READ                   0-0-0N  NULL        r     1 M$DO
     0-0-0N  NULL        r     1 M$LO                       0-0-0N  NULL        r     1 M$SI
     0-0-0N  NULL        r     1 M$UC


   Procedure VYR$READ requires 230 words for executable code.
   Procedure VYR$READ requires 14 words of local(AUTO) storage.

    No errors detected in file VYR$READ.:E05TSI    .
PL6.E3A0      #001=VYR$READ File=VYR$READ.:E05TSI                                WED 07/30/97 09:02 Page:35
          *** CROSS REFERENCE LISTING ***
**     DENOTES     IDENTIFIER DEFINITION
<<                 IDENTIFIER'S VALUE SET
>>                 IDENTIFIER'S VALUE USED
<>                 IDENTIFIER SET AND/OR USED
--                 IDENTIFIER REFERENCED
PL6.E3A0      #001=VYR$READ File=VYR$READ.:E05TSI                                WED 07/30/97 09:02 Page:36
          MINI XREF LISTING

B$ALT.CODE
     11329**DCL     11329--REDEF   11330--REDEF   11330--REDEF
B$ALT.ERR.ERR#
     11331**DCL     11331--REDEF   11895>>IF
B$ALT.EVID
     11330**DCL     11330--REDEF   11330--REDEF
B$JIT.CPFLAGS1
      9838**DCL     11884>>IF
B$JIT.CPFLAGS1.SLEAZE
      9843**DCL      9843--REDEF
B$JIT.ERR.MID
      9750**DCL      9750--REDEF
B$JIT.JRESPEAK
      9911**DCL      9912--REDEF
B$JIT.ORIGINATOR_PORT.FROM_CR
     10020**DCL     10020--REDEF   10021--REDEF
B$JIT.PNR
      9924**DCL      9924--REDEF
B$JIT.TSLINE
     10018**DCL     10019--REDEF
B$JIT$
      5346**DCL      9744--IMP-PTR 11884>>IF
B$TCB.ALT$
     11325**DCL     11895>>IF
B$TCB$
      5346**DCL     11895>>IF
BUF
     11370**DCL        15--PROC    11851--ASSIGN  11863>>CALLBLT 11882>>CALLBLT 11902--ENTRY   11905--ASSIGN
     11910--ASSIGN  11914--ASSIGN  11929--ENTRY   11931--ASSIGN
CONSEC_KEY
     11818**DCL     11879<<CALLBLT 11880>>CALLBLT
CONSEC_MOPS
PL6.E3A0      #001=VYR$READ File=VYR$READ.:E05TSI                                WED 07/30/97 09:02 Page:37
     11836**DCL     11880>>CALLBLT
CONSEC_NUM
     11418**DCL     11878<<ASSIGN  11878>>ASSIGN  11879>>CALLBLT
DASH
     11685**DCL     11613--DCLINIT 11843>>ASSIGN
DCB$
     11390**DCL     11841<<ASSIGN  11846<<ASSIGN  11853>>ASSIGN
EDIT_KEY
     11817**DCL     11874<<CALLBLT 11875>>CALLBLT
EDIT_MOPS
     11835**DCL     11875>>CALLBLT
F$DCB.ACTPOS
     11774**DCL     11774--REDEF
F$DCB.ARS#
     11748**DCL     11748--REDEF   11853>>ASSIGN
F$DCB.ATTR
     11767**DCL     11768--REDEF
F$DCB.BORROW
     11782**DCL     11782--REDEF   11782--REDEF   11782--REDEF
F$DCB.DCBNAME.L
     11796**DCL     11796--IMP-SIZ
F$DCB.DDEV.IC#
     11754**DCL     11860>>IF      11884>>IF      11884>>IF
F$DCB.DDEV.XEQ#
     11755**DCL     11860>>IF
F$DCB.EOMCHAR#
     11752**DCL     11752--REDEF
F$DCB.FLDID
     11777**DCL     11777--REDEF
F$DCB.FORM$
     11771**DCL     11771--REDEF
F$DCB.FSECT
     11787**DCL     11787--REDEF
F$DCB.FSN#
     11764**DCL     11764--REDEF   11764--REDEF   11765--REDEF
F$DCB.HEADER$
PL6.E3A0      #001=VYR$READ File=VYR$READ.:E05TSI                                WED 07/30/97 09:02 Page:38
     11770**DCL     11770--REDEF
F$DCB.IXTNSIZE#
     11768**DCL     11768--REDEF
F$DCB.LASTSTA$
     11757**DCL     11757--REDEF
F$DCB.LVL
     11783**DCL     11783--REDEF
F$DCB.NAME#.C
     11758**DCL     11758--REDEF
F$DCB.NOEOF
     11780**DCL     11780--REDEF
F$DCB.NRECS#
     11769**DCL     11769--REDEF
F$DCB.NRECX
     11788**DCL     11788--REDEF
F$DCB.OHDR
     11780**DCL     11780--REDEF
F$DCB.ORG#
     11763**DCL     11763--REDEF   11869>>IF
F$DCB.PRECNO
     11786**DCL     11786--REDEF
F$DCB.RCSZ
     11792**DCL     11792--REDEF
F$DCB.RES#
     11759**DCL     11759--REDEF
F$DCB.SETX
     11771**DCL     11771--REDEF
F$DCB.TAB$
     11771**DCL     11771--REDEF
F$DCB.TDA
     11785**DCL     11786--REDEF
F$DCB.WSN#
     11759**DCL     11759--REDEF
FPT$
     11389**DCL     11703--IMP-PTR 11840<<ASSIGN  11845<<ASSIGN  11851>>ASSIGN  11852>>CALL
FPT$READ
PL6.E3A0      #001=VYR$READ File=VYR$READ.:E05TSI                                WED 07/30/97 09:02 Page:39
     11703**DCL     11852<>CALL
FPT$READ.BUF_
     11705**DCL     11851<<ASSIGN
FPT$READ.STATION_
     11706**DCL     11707--REDEF
FPT$READ.V.DVBYTE.REREAD#
     11718**DCL     11718--REDEF
FPT$READ.V.INDX#
     11716**DCL     11716--REDEF
GT
     11683**DCL     11643--DCLINIT 11848>>ASSIGN
I
     11409**DCL     11410--REDEF   11873<<ASSIGN  11874>>CALLBLT
J
     11411**DCL     11412--REDEF
K
     11413**DCL     11414--REDEF
L
     11415**DCL     11416--REDEF
M$LO$
      5763**DCL     11884>>IF
M$PROMPT
      1640**DCL-ENT 11842--CALL    11847--CALL
M$READ
      1617**DCL-ENT 11852--CALL
M$SI$
      5763**DCL     11841>>ASSIGN  11860>>IF      11860>>IF      11869>>IF      11884>>IF
M$UC$
      5763**DCL     11846>>ASSIGN
M$WRITE
      1617**DCL-ENT 11888--CALL    11907--CALL    11912--CALL    11916--CALL    11933--CALL
PRM
     11684**DCL     11843<<ASSIGN  11848<<ASSIGN  11863>>CALLBLT
PROMPT_DASH
     11607**DCL     11842<>CALL
PROMPT_DASH.V
PL6.E3A0      #001=VYR$READ File=VYR$READ.:E05TSI                                WED 07/30/97 09:02 Page:40
     11615**DCL     11609--DCLINIT
PROMPT_GT
     11637**DCL     11847<>CALL
PROMPT_GT.V
     11645**DCL     11639--DCLINIT
READ_ERROR
     11895**LABEL   11852--CALLALT
SIZE
     11371**DCL        15--PROC    11853<<ASSIGN  11854>>IF      11861>>ASSIGN  11863>>CALLBLT 11866>>ASSIGN
     11882>>CALLBLT 11902--ENTRY   11906>>ASSIGN  11911>>ASSIGN  11915>>ASSIGN  11929--ENTRY   11932>>ASSIGN
TYPE
     11372**DCL        15--PROC    11838>>DOCASE  11884>>IF      11902--ENTRY   11904>>IF      11913>>IF
VYE$ERRMSG
     11352**DCL-ENT 11897--CALL    11924--CALL
VYI$ERR
     11353**DCL-ENT 11898--CALL
VY_BIAS.A
      5395**DCL      5395--REDEF
VY_CBUF.CHARS_A
      5386**DCL      5386--REDEF
VY_DO_FPT_WRITE
     11575**DCL     11916<>CALL    11933<>CALL
VY_DO_FPT_WRITE.BUF_.BOUND
     11575**DCL     11915<<ASSIGN  11932<<ASSIGN
VY_DO_FPT_WRITE.BUF_.BUF$
     11577**DCL     11914<<ASSIGN  11931<<ASSIGN
VY_DO_FPT_WRITE.STATION_
     11577**DCL     11577--REDEF
VY_DO_FPT_WRITE.V
     11578**DCL     11575--DCLINIT
VY_DO_FPT_WRITE.V.DVBYTE.VFC#
     11584**DCL     11584--REDEF
VY_EBUF.CHARS_A
      5687**DCL      5688--REDEF
VY_EFIELD1.CHARS
      5688**DCL      5688--REDEF
PL6.E3A0      #001=VYR$READ File=VYR$READ.:E05TSI                                WED 07/30/97 09:02 Page:41
VY_EFIELD2.CHARS
      5689**DCL      5689--REDEF
VY_EFIELD3.CHARS
      5690**DCL      5690--REDEF
VY_ERRORS
      5391**DCL      5393--REDEF
VY_ERRORS.CONFLICT_A
      5392**DCL      5393--REDEF
VY_ERRORS.UNSAT_A
      5391**DCL      5392--REDEF
VY_FPT_ERRMSG.V.OUTDCB2#
      4819**DCL     11913>>IF
VY_IMAGE_DATA.CPAGE#_A
      5279**DCL      5280--REDEF
VY_IMAGE_DATA.NODE_A$
      5291**DCL      5292--REDEF
VY_IMAGE_DATA.START_A$
      5283**DCL      5284--REDEF
VY_IMAGE_DATA.STOP_A$
      5287**DCL      5288--REDEF
VY_IMAGE_PROC.CPAGE#_A
      5302**DCL      5303--REDEF
VY_IMAGE_PROC.NODE_A$
      5314**DCL      5315--REDEF
VY_IMAGE_PROC.START_A$
      5306**DCL      5307--REDEF
VY_IMAGE_PROC.STOP_A$
      5310**DCL      5311--REDEF
VY_IMAGE_ROS.CPAGE#_A
      5325**DCL      5326--REDEF
VY_IMAGE_ROS.NODE_A$
      5337**DCL      5338--REDEF
VY_IMAGE_ROS.START_A$
      5329**DCL      5330--REDEF
VY_IMAGE_ROS.STOP_A$
      5333**DCL      5334--REDEF
PL6.E3A0      #001=VYR$READ File=VYR$READ.:E05TSI                                WED 07/30/97 09:02 Page:42
VY_LAST_LINE.OFFSET
      5743**DCL     11862<<ASSIGN  11867<<ASSIGN
VY_LAST_LINE.SIZE
      5743**DCL     11861<<ASSIGN  11866<<ASSIGN  11887>>ASSIGN
VY_LAST_LINE.TEXT
      5743**DCL     11863<<CALLBLT 11868<<ASSIGN  11875<<CALLBLT 11880<<CALLBLT 11882<<CALLBLT 11887--ASSIGN
VY_LO_FPT_WRITE
     11542**DCL     11888<>CALL    11912<>CALL
VY_LO_FPT_WRITE.BUF_
     11542**DCL     11887<<ASSIGN
VY_LO_FPT_WRITE.BUF_.BOUND
     11542**DCL     11911<<ASSIGN
VY_LO_FPT_WRITE.BUF_.BUF$
     11544**DCL     11910<<ASSIGN
VY_LO_FPT_WRITE.STATION_
     11544**DCL     11544--REDEF
VY_LO_FPT_WRITE.V
     11545**DCL     11542--DCLINIT
VY_LO_FPT_WRITE.V.DVBYTE.VFC#
     11551**DCL     11551--REDEF
VY_MAP_HDR.CHARS
      5752**DCL      5753--REDEF    5753--REDEF
VY_MAP_LIT_LO_FPT_WRITE.STATION_
      5081**DCL      5081--REDEF
VY_MAP_LIT_LO_FPT_WRITE.V.DVBYTE.VFC#
      5088**DCL      5088--REDEF
VY_MAP_LO_FPT_WRITE.STATION_
      5050**DCL      5050--REDEF
VY_MAP_LO_FPT_WRITE.V.DVBYTE.VFC#
      5057**DCL      5057--REDEF
VY_MBUF.CHARS
      5751**DCL      5752--REDEF    5752--REDEF
VY_M_VECTOR.F
      5120**DCL      5124--REDEF
VY_M_VECTOR_DP.F
      5155**DCL      5159--REDEF
PL6.E3A0      #001=VYR$READ File=VYR$READ.:E05TSI                                WED 07/30/97 09:02 Page:43
VY_O.DUPL_ATTCH
      5533**DCL      5537--REDEF
VY_O.MAP_ATTCH
      5521**DCL      5532--REDEF
VY_O.PRIMARY_OPTION
      5515**DCL      5520--REDEF
VY_O.SEV_ATTCH
      5538**DCL      5540--REDEF
VY_OD.DUPL_ATTCH
      5677**DCL      5681--REDEF
VY_OD.MAP_ATTCH
      5665**DCL      5676--REDEF
VY_OD.PRIMARY_OPTION
      5659**DCL      5664--REDEF
VY_OD.SEV_ATTCH
      5682**DCL      5684--REDEF
VY_OL_KEY_BUF.FORM0
      5188**DCL      5191--REDEF    5198--REDEF
VY_OU_HEAD.REC_A
      5376**DCL      5377--REDEF
VY_O_KEY_BUF.FORM0
      5165**DCL      5168--REDEF    5175--REDEF
VY_O_KEY_BUF_L.FORM0
      5211**DCL      5214--REDEF    5221--REDEF
VY_PAR_UNWIND
      5746**DCL      5746--REDEF
VY_PASS2_REF.OU.L_START
      5713**DCL      5714--REDEF
VY_PASS2_REF.OU.L_STOP
      5714**DCL      5715--REDEF
VY_PASS2_REF.OU.MAX
      5712**DCL      5713--REDEF
VY_PASS2_REF.OU.SIZE
      5715**DCL      5716--REDEF
VY_PASS2_REF.SAT.COUNT
      5719**DCL      5720--REDEF
PL6.E3A0      #001=VYR$READ File=VYR$READ.:E05TSI                                WED 07/30/97 09:02 Page:44
VY_PASS2_REF.SAT.ENT_SIZE
      5721**DCL      5722--REDEF
VY_PASS2_REF.SAT.L_START
      5717**DCL      5718--REDEF
VY_PASS2_REF.SAT.L_STOP
      5718**DCL      5719--REDEF
VY_PASS2_REF.SAT.MAX
      5716**DCL      5717--REDEF
VY_PASS2_REF.UNSAT.L_START
      5723**DCL      5724--REDEF
VY_PASS2_REF.UNSAT.L_STOP
      5724**DCL      5725--REDEF
VY_PASS2_REF.UNSAT.L_WHERE
      5725**DCL      5726--REDEF
VY_PASS2_REF.UNSAT.MAX
      5722**DCL      5723--REDEF
VY_PASS2_REF.UNSAT.PAGE#
      5727**DCL      5728--REDEF
VY_PASS2_REF.UNSAT.SIZE
      5726**DCL      5727--REDEF
VY_PROGRAM_BIAS.A
      5394**DCL      5394--REDEF
VY_RU_HEAD.DATA_SEGMENT
      5362**DCL      5362--REDEF
VY_RU_HEAD.L
      5358**DCL      5359--REDEF
VY_RU_HEAD.MAP_BITS
      5359**DCL      5361--REDEF
VY_RU_HEAD.PBIT
      5355**DCL      5355--REDEF
VY_RU_HEAD_BUF.DATA_SEGMENT
      5372**DCL      5372--REDEF
VY_RU_HEAD_BUF.L
      5367**DCL      5368--REDEF
VY_RU_HEAD_BUF.MAP_BITS
      5369**DCL      5371--REDEF
PL6.E3A0      #001=VYR$READ File=VYR$READ.:E05TSI                                WED 07/30/97 09:02 Page:45
VY_RU_HEAD_BUF.PBIT
      5364**DCL      5365--REDEF
VY_R_KEY_BUF.FORM0
      5234**DCL      5238--REDEF    5244--REDEF
VY_SI_FPT_READ
     11458**DCL     11840--ASSIGN
VY_SI_FPT_READ.STATION_
     11461**DCL     11462--REDEF
VY_SI_FPT_READ.V
     11462**DCL     11458--DCLINIT
VY_SI_FPT_READ.V.DVBYTE.REREAD#
     11473**DCL     11473--REDEF
VY_SI_FPT_READ.V.INDX#
     11471**DCL     11471--REDEF
VY_SI_KEY_BUF
      5741**DCL     11458--DCLINIT 11459--DCLINIT
VY_SI_KEY_BUF.COUNT
      5742**DCL     11869>>IF
VY_SI_KEY_BUF.EDIT.NUM
      5742**DCL     11869>>IF      11873>>ASSIGN
VY_SI_KEY_BUF.KEY
      5742**DCL      5742--REDEF
VY_SPC.B$.MINE
      5737**DCL      5738--REDEF
VY_SPC.B$.NAME
      5734**DCL      5734--REDEF
VY_SPC.B$.SKIP
      5736**DCL      5737--REDEF
VY_SPC.B$.VALUE
      5735**DCL      5736--REDEF
VY_SPC.SEG.NAME
      5729**DCL      5730--REDEF
VY_SPC.SEG.VALUE
      5730**DCL      5731--REDEF
VY_TSX0_OVERLAY.H
      5701**DCL      5702--REDEF
PL6.E3A0      #001=VYR$READ File=VYR$READ.:E05TSI                                WED 07/30/97 09:02 Page:46
VY_UC_FPT_READ
     11501**DCL     11845--ASSIGN
VY_UC_FPT_READ.STATION_
     11504**DCL     11505--REDEF
VY_UC_FPT_READ.V
     11505**DCL     11501--DCLINIT
VY_UC_FPT_READ.V.DVBYTE.REREAD#
     11516**DCL     11516--REDEF
VY_UC_FPT_READ.V.INDX#
     11514**DCL     11514--REDEF
VY_UC_FPT_WRITE
     11669**DCL     11907<>CALL
VY_UC_FPT_WRITE.BUF_.BOUND
     11669**DCL     11906<<ASSIGN
VY_UC_FPT_WRITE.BUF_.BUF$
     11671**DCL     11905<<ASSIGN
VY_UC_FPT_WRITE.STATION_
     11671**DCL     11671--REDEF
VY_UC_FPT_WRITE.V
     11672**DCL     11669--DCLINIT
VY_UC_FPT_WRITE.V.DVBYTE.VFC#
     11678**DCL     11678--REDEF
VY_UNWIND
      5746**DCL     11856>>UNWIND  11926>>UNWIND
WRITE_ERROR
     11924**LABEL   11888--CALLALT 11912--CALLALT 11916--CALLALT 11933--CALLALT
