VERSION E05

PL6.E3A0      #001=VYS$LST File=VYS$LST.:E05TSI                                  WED 07/30/97 09:03 Page:1
        1        1        /*T***********************************************************/
        2        2        /*T*                                                         */
        3        3        /*T* Copyright (c) Bull HN Information Systems Inc., 1997    */
        4        4        /*T*                                                         */
        5        5        /*T***********************************************************/
        6        6        /*X* DMR,PLM=6,IND=4,CSU=2,EXM=0,ECU=2,MOC,DCI=4,CRT=4,CTI=8,CCC */
        7        7        VYS$LST:
        8        8              PROC( PREV$, TXT$, FIL$,   TYPE, SUB_TYPE, ON_ERROR ) ALTRET;
        9        9        %INCLUDE VY_INC_C;
       10     9185        %VY$LST;

              9197    1   /*******************************************************************************
              9198    1   *                                                                              *
              9199    1   *                          VY$LST                                                 *
              9200    1   *                                                                              *
              9201    1   *******************************************************************************/

              9206    1   DCL 1 VY$LST                        ALIGNED BASED,
              9207    1         2 LINK$        PTR,               /* Link to next item                  */
              9208    1         2 TYPE         UBIN( 18) UNAL,    /* Type                               */
              9209    1         2 SUB_TYPE     UBIN( 18) UNAL,    /* Sub-type                           */
              9210    1         2 OBJECT_NAME$ PTR,               /* Pointer to object unit name        */
              9211    1         2 SC_HEAD$     PTR,               /* Head pointer to section link list  */
              9212    1         2 SC_TAIL$     PTR,               /* Tail pointer to section link list  */
              9213    1         2 P,
              9214    1           3 NAME_       ALIGNED,
              9215    1             4 BOUND      UBIN(20)  UNAL,
              9216    1             4 FLAGSV     UBIN(11)  UNAL,
              9217    1             4 *          BIT(5)    UNAL,
              9218    1             4 NAME$      PTR,
              9219    1           3 ACCT_       ALIGNED,
              9220    1             4 BOUND      UBIN(20)  UNAL,
              9221    1             4 FLAGSV     UBIN(11)  UNAL,
              9222    1             4 *          BIT(5)    UNAL,
              9223    1             4 ACCT$      PTR,
              9224    1           3 PASS_       ALIGNED,
              9225    1             4 BOUND      UBIN(20)  UNAL,
PL6.E3A0      #001=VYS$LST File=VYS$LST.:E05TSI                                  WED 07/30/97 09:03 Page:2
              9226    1             4 FLAGSV     UBIN(11)  UNAL,
              9227    1             4 *          BIT(5)    UNAL,
              9228    1             4 PASS$      PTR,
              9229    1           3 SN_         ALIGNED,
              9230    1             4 BOUND      UBIN(20)  UNAL,
              9231    1             4 FLAGSV     UBIN(11)  UNAL,
              9232    1             4 *          BIT(5)    UNAL,
              9233    1             4 SN$        PTR,
              9234    1           3 WSN_        ALIGNED,
              9235    1             4 BOUND      UBIN(20)  UNAL,
              9236    1             4 FLAGSV     UBIN(11)  UNAL,
              9237    1             4 *          BIT(5)    UNAL,
              9238    1             4 WSN$       PTR,
              9239    1           3 B           ALIGNED,
              9240    1             4 RES        BIT(1)    UNAL,
              9241    1             4 ASN        BIT(1)    UNAL,
              9242    1             4 *          BIT(34)   UNAL,
              9243    1           3 RES         CHAR(4)   ALIGNED,
              9244    1           3 ASN         UBIN(36)  ALIGNED;
       11     9247        %VY$LLIST;

              9259    1   /*******************************************************************************
              9260    1   *                                                                              *
              9261    1   *                          VY$LLIST                                                *
              9262    1   *                                                                              *
              9263    1   *******************************************************************************/

              9268    1   DCL 1 VY$LLIST                BASED     ALIGNED,
              9269    1         2 LINK$                  PTR  ALIGNED,
              9270    1         2 ITEM$                  PTR  ALIGNED;
       12     9273        %T$C;

              9285    1   /*******************************************************************************
              9286    1   *                                                                              *
              9287    1   *                          T$C                                                 *
              9288    1   *                                                                              *
              9289    1   *******************************************************************************/
PL6.E3A0      #001=VYS$LST File=VYS$LST.:E05TSI                                  WED 07/30/97 09:03 Page:3

              9294    1   DCL 1 T$C           BASED     ALIGNED,  /* Text count                         */
              9295    1         2 COUNT        UBIN( 9) UNAL,
              9296    1         2 CHARS        CHAR( T$C.COUNT )   UNAL;
              9297    1   DCL 1 T$C_UNAL      BASED     UNAL,     /* Text count                         */
              9298    1         2 COUNT        UBIN( 9) UNAL,
              9299    1         2 CHARS        CHAR( T$C_UNAL.COUNT ) UNAL;
       13     9302        %PLIST;
       14     9303        %INCLUDE CP_6_SUBS;
       15     9843        %INCLUDE B$JIT;
       16    10133        %INCLUDE B_ERRORS_C;
       17    11260        %FILE;
       18    11269        %PARSE$OUT( NAME=O$B, STCLASS="BASED");
       19    11314        %FPT_FID( FPTN = FID,
       20    11315                        NAME = VLP_NAME,
       21    11316                        ACCT = VLP_ACCT,
       22    11317                        PASS = VLP_PASS,
       23    11318                        SN   = VLP_SN,
       24    11319                        WSN  = VLP_WSN,
       25    11320                        ASN  = F.ASN_,
       26    11321                        RES  = F.RES_,
       27    11322                        RESULTS = FR );
       28    11345    1   DCL 1 F ALIGNED STATIC,
       29    11346    1         2 ASN_ UBIN(9) ALIGNED,
       30    11347    1         2 RES_ CHAR(4) ALIGNED;
       31    11348        %VLP_NAME(FPTN=VLP_NAME,STCLASS=STATIC );
       32    11375        %VLP_ACCT(FPTN=VLP_ACCT,STCLASS=STATIC);
       33    11388        %VLP_PASS(FPTN=VLP_PASS,STCLASS=STATIC);
       34    11401        %VLP_SN  (FPTN=VLP_SN,N=9,STCLASS=STATIC);
       35    11414        %VLP_WSN (FPTN=VLP_WSN,STCLASS=STATIC);
       36    11427        %VLP_ACCT(FPTN=VLP$ACCT,STCLASS=BASED);
       37    11440        %VLP_PASS(FPTN=VLP$PASS,STCLASS=BASED);
       38    11453        %VLP_SN  (FPTN=VLP$SN,N=9,STCLASS=BASED);
       39    11466        %VLP_WSN (FPTN=VLP$WSN,STCLASS=BASED);
       40    11479        %PLIST;
       41    11480        /**/
       42    11481        %VLR_FID(FPTN=FR);
PL6.E3A0      #001=VYS$LST File=VYS$LST.:E05TSI                                  WED 07/30/97 09:03 Page:4
       43    11500        %P;

             11508    1   /*******************************************************************************
             11509    1   *                                                                              *
             11510    1   *                          PARAMETERS                                              *
             11511    1   *                                                                              *
             11512    1   *******************************************************************************/

       44    11516    1   DCL PREV$           PTR       ALIGNED;
       45    11517    1   DCL TXT$           PTR       ALIGNED;
       46    11518    1   DCL TYPE            UBIN(36)  ALIGNED;
       47    11519    1   DCL SUB_TYPE        UBIN(36)  ALIGNED;
       48    11520    1   DCL FIL$           PTR       ALIGNED;
       49    11521    1   DCL ON_ERROR        SBIN WORD ALIGNED;
       50    11522        %PTR;

             11530    1   /*******************************************************************************
             11531    1   *                                                                              *
             11532    1   *                          PTR                                                 *
             11533    1   *                                                                              *
             11534    1   *******************************************************************************/

       51    11538    1   DCL ALL$            PTR       ALIGNED   STATIC/*AUTO*/;
       52    11539    1   DCL CURR$           PTR       ALIGNED   STATIC/*AUTO*/;
       53    11540    1   DCL WORK$           PTR       ALIGNED   STATIC/*AUTO*/;
       54    11541    1   DCL WHERE$          PTR       ALIGNED   STATIC/*AUTO*/;
       55    11542    1   DCL TEXT$           PTR       ALIGNED   STATIC/*AUTO*/;
       56    11543    1   DCL FILE$           PTR       ALIGNED   STATIC/*AUTO*/;
       57    11544    1   DCL HEAD$           PTR       ALIGNED   STATIC/*AUTO*/;
       58    11545    1   DCL TAIL$           PTR       ALIGNED   STATIC/*AUTO*/;
       59    11546    1   DCL FL$             PTR       ALIGNED   STATIC/*AUTO*/;
       60    11547    1   DCL L$              PTR       ALIGNED   STATIC/*AUTO*/;
       61    11548        %E;

             11556    1   /*******************************************************************************
             11557    1   *                                                                              *
             11558    1   *                          ENTRY                                                 *
PL6.E3A0      #001=VYS$LST File=VYS$LST.:E05TSI                                  WED 07/30/97 09:03 Page:5
             11559    1   *                                                                              *
             11560    1   *******************************************************************************/

       62    11564    1   DCL VYA$GET         ENTRY(3);
       63    11565    1   DCL VYE$ERROR        ENTRY(4);
       64    11566    1   DCL VYP$PAR          ENTRY(3)  ALTRET;
       65    11567    1   DCL VYF$FREE         ENTRY(3);
       66    11568    1   DCL VYD$B2C          ENTRY(5);
       67    11569    1   DCL VYW$WRITE        ENTRY(3)  ALTRET;
       68    11570        %U;

             11578    1   /*******************************************************************************
             11579    1   *                                                                              *
             11580    1   *                          UBIN                                                 *
             11581    1   *                                                                              *
             11582    1   *******************************************************************************/

       69    11586    1   DCL SIZE            UBIN(36)  ALIGNED   STATIC/*AUTO*/;
       70    11587    1   DCL STOP            UBIN(36)  ALIGNED   STATIC/*AUTO*/;
       71    11588    1   DCL I               UBIN(36)  ALIGNED   STATIC/*AUTO*/;
       72    11589    1   DCL NM              UBIN(36)  ALIGNED   STATIC/*AUTO*/;
       73    11590    1   DCL J               UBIN(36)  ALIGNED   STATIC/*AUTO*/;
       74    11591    1   DCL NCHARS           UBIN(36)  ALIGNED   STATIC/*AUTO*/;
       75    11592    1   DCL WKSZ            UBIN(36)  ALIGNED   STATIC/*AUTO*/;
       76    11593    1   DCL SIZE_ALL        UBIN(36)  ALIGNED   STATIC/*AUTO*/;
       77    11594        /**/
       78    11595    1   DCL VY_N_START_FID   UBIN(36)  ALIGNED   SYMREF;
       79    11596        %C;

             11604    1   /*******************************************************************************
             11605    1   *                                                                              *
             11606    1   *                          CHAR                                                 *
             11607    1   *                                                                              *
             11608    1   *******************************************************************************/

       80    11612        %EJECT;
PL6.E3A0      #001=VYS$LST File=VYS$LST.:E05TSI                                  WED 07/30/97 09:03 Page:6
       81    11613    1         TEXT$ = TXT$;
       82    11614    1         SIZE_ALL = 0;
       83    11615    1         IF ON_ERROR = -8 THEN ALL$ = PREV$;
       84    11616    2         ELSE DO;
       85    11617                  %ALLOCATE( PTR$=ALL$, TYPE=@GDP, SIZE="SIZEW(VY$LST)" );
       86    11624    2             PREV$ = ALL$;
       87    11625    2             ALL$ -> VY$LST.LINK$ = ADDR(NIL);
       88    11626    2             ALL$ -> VY$LST.TYPE  = TYPE;
       89    11627    2             ALL$ -> VY$LST.SUB_TYPE = SUB_TYPE;
       90    11628    2             ALL$ -> VY$LST.OBJECT_NAME$ = ADDR(NIL);
       91    11629    2             ALL$ -> VY$LST.SC_HEAD$     = ADDR(NIL);
       92    11630    2             ALL$ -> VY$LST.SC_TAIL$     = ADDR( ALL$ -> VY$LST.SC_HEAD$ );
       93    11631    2            END;
       94    11632    1   RETRY:
       95    11633    1         FID.TEXTFID_ = VECTOR( TEXT$ -> T$C.CHARS );
       96    11634    1         CALL M$FID( FID )   ALTRET(FID_ERR);
       97    11635    2         IF F.ASN_ ~= 1 THEN DO;
       98    11636    3             IF ON_ERROR ~= -9 THEN DO;
       99    11637        /*E*  ERROR: VYS-E$NO_FILE_NAME_VY-0
      100    11638              MESSAGE: No file name in %U1.
      101    11639              DESCRIPTION: Self-explanatory.
      102    11640        */
      103    11641    3   REPORT_NO_NAME:
      104    11642    3                 J = 115;
      105    11643    3                 GOTO REPORT_ERROR;
      106    11644    3                END;
      107    11645    2            END;
      108    11646    1         ALL$ -> VY$LST.P.B.ASN = '1'B/*@TRUE_B*/;
      109    11647    1         ALL$ -> VY$LST.P.ASN = F.ASN_;
      110    11648    1         ALL$ -> VY$LST.P.NAME_ = VECTOR(NIL);
      111    11649    2         IF FR.NAME THEN DO;
      112    11650    2             ALL$ -> VY$LST.P.NAME_.BOUND = VLP_NAME.L#;
      113    11651    2             SIZE = ( VLP_NAME.L# + 4 ) / 4;
      114    11652                  %ALLOCATE(
      115    11653                  PTR$=WHERE$,
      116    11654                  TYPE=@GDP,
      117    11655                  SIZE=SIZE);
PL6.E3A0      #001=VYS$LST File=VYS$LST.:E05TSI                                  WED 07/30/97 09:03 Page:7
      118    11662    2             ALL$ -> VY$LST.P.NAME_.NAME$ = WHERE$;
      119    11663    2             WHERE$ -> T$C.COUNT = VLP_NAME.L#;
      120    11664    2             WHERE$ -> T$C.CHARS = VLP_NAME.NAME#;
      121    11665    2            END;
      122    11666    2         IF FR.RES THEN DO;
      123    11667    2             ALL$ -> VY$LST.P.B.RES = '1'B/*@TRUE_B*/;
      124    11668    2             ALL$ -> VY$LST.P.RES   = F.RES_;
      125    11669    2            END;
      126    11670    1         ELSE ALL$ -> VY$LST.P.B.RES = '0'B/*@FALSE_B*/;
      127    11671    2         IF FR.WSN THEN DO;
      128    11672                  %ALLOCATE(
      129    11673                  PTR$=WHERE$,
      130    11674                  TYPE=@GDP,
      131    11675                  SIZE="SIZEW(VLP_WSN)");
      132    11682    2             WHERE$ -> VLP$WSN = VLP_WSN;
      133    11683    2             ALL$ -> VY$LST.P.WSN_ = VECTOR( WHERE$ -> VLP$WSN );
      134    11684    2            END;
      135    11685    1         ELSE ALL$ -> VY$LST.P.WSN_ = VECTOR(NIL);
      136    11686    2         IF FR.SN THEN DO;
      137    11687                  %ALLOCATE(
      138    11688                  PTR$=WHERE$,
      139    11689                  TYPE=@GDP,
      140    11690                  SIZE="SIZEW(VLP_SN)");
      141    11697    2             WHERE$ -> VLP$SN = VLP_SN;
      142    11698    2             ALL$ -> VY$LST.P.SN_ = VECTOR( WHERE$ -> VLP$SN );
      143    11699    2            END;
      144    11700    1         ELSE ALL$ -> VY$LST.P.SN_ = VECTOR(NIL);
      145    11701    2         IF FR.PASS THEN DO;
      146    11702                  %ALLOCATE(
      147    11703                  PTR$=WHERE$,
      148    11704                  TYPE=@GDP,
      149    11705                  SIZE=@F_PASS_SIZEW);
      150    11712    2             WHERE$ -> VLP$PASS = VLP_PASS;
      151    11713    2             ALL$ -> VY$LST.P.PASS_ = VECTOR( WHERE$ -> VLP$PASS );
      152    11714    2            END;
      153    11715    1         ELSE ALL$ -> VY$LST.P.PASS_ = VECTOR(NIL);
      154    11716    1         ALL$ -> VY$LST.P.ACCT_.BOUND = 7/*@F_ACCT_SIZEC1*/;
PL6.E3A0      #001=VYS$LST File=VYS$LST.:E05TSI                                  WED 07/30/97 09:03 Page:8
      155    11717    2         IF FR.ACCT THEN DO;
      156    11718                  %ALLOCATE(
      157    11719                  PTR$=WHERE$,
      158    11720                  TYPE=@GDP,
      159    11721                  SIZE=@F_ACCT_SIZEW);
      160    11728    2             WHERE$ -> VLP$ACCT = VLP_ACCT;
      161    11729    2             ALL$ -> VY$LST.P.ACCT_ = VECTOR( WHERE$ -> VLP$ACCT );
      162    11730    2            END;
      163    11731    1         ELSE
      164    11732    1             ALL$ -> VY$LST.P.ACCT_ = VECTOR( NIL );
      165    11733    2         IF FIL$ ~= ADDR(NIL) THEN DO;
      166    11734    2             FL$ = FIL$;
      167    11735    2             HEAD$ = ADDR(NIL);
      168    11736    2             TAIL$ = ADDR(NIL);
      169    11737    2             NM = FL$ -> O$B.NSUBLKS - 1;
      170    11738    3             DO I = 0 TO NM;
      171    11739    3                 FILE$ = FL$ -> O$B.SUBLK$(I) -> O$B.SUBLK$(0);
      172    11740                      %ALLOCATE(
      173    11741                      PTR$ = L$,
      174    11742                      TYPE = @GDP,
      175    11743                      SIZE ="SIZEW(VY$LLIST)");
      176    11750    3                 L$ -> VY$LLIST.LINK$ = ADDR(NIL);
      177    11751    3                 IF TAIL$ = ADDR(NIL) THEN HEAD$ = L$;
      178    11752    3                 ELSE TAIL$ -> VY$LLIST.LINK$ = L$;
      179    11753    3                 TAIL$ = L$;
      180    11754    3                 J = (FILE$->T$C.COUNT + 4/*@CHAR_WORD*/ + LENGTHC(VY_O_KEY_HEAD) ) / 4
             11754                          /*@CHAR_WORD*/;
      181    11755                      %ALLOCATE(
      182    11756                      PTR$=WHERE$,
      183    11757                      TYPE=@GDP,
      184    11758                      SIZE=J);
      185    11765    3                 WHERE$ -> T$C.COUNT = FILE$ -> T$C.COUNT+LENGTHC(VY_O_KEY_HEAD);
             11765                          /* For object unit name and head byte */
      186    11766    3                 CALL CONCAT( WHERE$ -> T$C.CHARS, VY_O_KEY_HEAD, FILE$ -> T$C.CHARS );
      187    11767    3                 L$ -> VY$LLIST.ITEM$ = WHERE$;
      188    11768    3                END;                       /* Do i = 0 to nm; */
      189    11769    2             ALL$ -> VY$LST.OBJECT_NAME$ = HEAD$;
PL6.E3A0      #001=VYS$LST File=VYS$LST.:E05TSI                                  WED 07/30/97 09:03 Page:9
      190    11770    2            END;                           /* If FIL$ ~= addr(nil) then do; */
      191    11771    1         IF SIZE_ALL > 0 THEN CALL VYF$FREE( 3/*@DS3*/, SIZE_ALL, 1 );
      192    11772    1         RETURN;
      193    11773        %EJECT;
PL6.E3A0      #001=VYS$LST File=VYS$LST.:E05TSI                                  WED 07/30/97 09:03 Page:10
      194    11774    1   FID_ERR:;
      195    11775        /*E*  ERROR: VYS-E$FID_ERROR_VY-0
      196    11776              MESSAGE: Illegal fid in %U1.
      197    11777              DESCRIPTION: Self-explanatory.
      198    11778        */
      199    11779    1         J = 117;
      200    11780    1   REPORT_ERROR:
      201    11781    1         VY_EFIELD1.COUNT = TEXT$ -> T$C.COUNT;
      202    11782    1         VY_EFIELD1.CHARS = TEXT$ -> T$C.CHARS;
      203    11783    2         IF VY_ONLINE = 1/*@YES*/ THEN DO;
      204    11784                  %SCREAM( ERR#=J, LEVEL=%@E$S_VY, MID="'S'" );
      205    11787    2             WKSZ = 256/4;
      206    11788    2             CALL VYP$PAR( 2, ADDR(VY_N_START_FID), WKSZ );
      207    11789    2             SIZE_ALL = SIZE_ALL + WKSZ;
      208    11790    2             TEXT$ = VY_P_PCB_MAIN.OUT$ -> O$B.SUBLK$(0)->
      209    11791    2                     O$B.SUBLK$(0);
      210    11792    2             GOTO RETRY;
      211    11793    2            END;
      212    11794    2         ELSE DO;
      213    11795                  %ERROR_IT;
      214    11798    2            END;                           /* Else do; */
      215    11799    1   END VYS$LST;

PL6.E3A0      #001=VYS$LST File=VYS$LST.:E05TSI                                  WED 07/30/97 09:03 Page:11
--  Include file information  --

   B_ERRORS_C.:E05TOU  is referenced.
   B$JIT.:E05TOU  cannot be made into a system file and is referenced.
   CP_6_SUBS.:E05TOU  is referenced.
   B$OBJECT_C.:E05TOU  is referenced.
   VY_DCB_R.:E05TOU  cannot be made into a system file and is referenced.
   VY_DATA_R.:E05TOU  cannot be made into a system file and is referenced.
   XU_MACRO_C.:E05TOU  is referenced.
   VY_FIXED_R.:E05TOU  cannot be made into a system file and is referenced.
   CP_6.:E05TOU  cannot be made into a system file and is referenced.
   VY_MACRO_C.:E05TOU  is referenced.
   VY_PERR_C.:E05TOU  is referenced.
   VY_SUBS_C.:E05TOU  is referenced.
   VY_INC_NO_C.:E05TOU  is referenced.
   VY_SWITCH_C.:E05TOU  is referenced.
   VY_INC_C.:E05TOU  is referenced.
   B$JIT_C.:E05TOU  was found in the system file and is referenced.
   CP_6_C.:E05TOU  was found in the system file and is referenced.
      No diagnostics issued in procedure VYS$LST.

   Procedure VYS$LST requires 436 words for executable code.
   Procedure VYS$LST requires 14 words of local(AUTO) storage.

    No errors detected in file VYS$LST.:E05TSI    .

PL6.E3A0      #001=VYS$LST File=VYS$LST.:E05TSI                                  WED 07/30/97 09:03 Page:12

 Object Unit name= VYS$LST                                    File name= VYS$LST.:E05TOU
 UTS= JUL 30 '97 09:03:02.76 WED                              Compiler= PL-6/E31         Sev=      00
 SharedLib= :SHARED_SYSTEM                                    Alt SharedLib=


    ****  Control sections  ****

 Sect   Type Bound  Init  Size OctSiz  Section name(segment info)
    0   DCB   even  none     0      0  M$UC
    1   Data  even  none    84    124  VYS$LST
    2   Proc  even  none   436    664  VYS$LST
    3  RoData even  none    37     45  VYS$LST

    ****  Entry defs  ****

                              Check   Calling
                             calling  sequence
  Sect OctLoc Primary Altret sequence   type   Parms  Name
     2      0   yes    yes     yes      Std        6  VYS$LST

  ****  Entry refs  ****

         Check        Calling
        calling       sequence
Altret sequence SRef   type   Args  Name
         yes           Std       3 VYA$GET
         yes           Std       3 VYF$FREE
 yes     yes           Std       3 VYP$PAR
         yes           Std       4 VYE$ERROR
                       nStd      0 X66_AUTO_N
                       Std       0 B_CONSPOOL_D
                       nStd      0 X66_ARET
                       nStd      0 X66_AUNWIND
PL6.E3A0      #001=VYS$LST File=VYS$LST.:E05TSI                                  WED 07/30/97 09:03 Page:13

  ****  Data refs  ****

  Flags:  r = read only, s = secondary
Flgs Name                             Flgs Name                             Flgs Name
     M$UC                                  VY_P_PCB_MAIN                         B$JIT$
     VY_ERRORS                             VY_M_FREE                             VY_M_ALL
     VY_M_BASE_PTR                         VY_ONLINE                             VY_EFIELD1
r    VY_O_KEY_HEAD                         VY_UNWIND                             VY_PAR_UNWIND
     VY_N_START_FID                        B_VECTNIL

  ****  Segment refs  ****

  Flags:  r = read only, s = secondary
Flgs Name                             Flgs Name                             Flgs Name
     ISSID                                 NULLSID
PL6.E3A0      #001=VYS$LST File=VYS$LST.:E05TSI                                  WED 07/30/97 09:03 Page:14


        1        1        /*T***********************************************************/
        2        2        /*T*                                                         */
        3        3        /*T* Copyright (c) Bull HN Information Systems Inc., 1997    */
        4        4        /*T*                                                         */
        5        5        /*T***********************************************************/
        6        6        /*X* DMR,PLM=6,IND=4,CSU=2,EXM=0,ECU=2,MOC,DCI=4,CRT=4,CTI=8,CCC */
        7        7        VYS$LST:
        8        8              PROC( PREV$, TXT$, FIL$,   TYPE, SUB_TYPE, ON_ERROR ) ALTRET;

      8  2 000000   000000 700200 xent  VYS$LST      TSX0  ! X66_AUTO_N
         2 000001   000016 000006                    ZERO    14,6

        9        9        %INCLUDE VY_INC_C;
       10     9185        %VY$LST;

              9197    1   /*******************************************************************************
              9198    1   *                                                                              *
              9199    1   *                          VY$LST                                                 *
              9200    1   *                                                                              *
              9201    1   *******************************************************************************/

              9206    1   DCL 1 VY$LST                        ALIGNED BASED,
              9207    1         2 LINK$        PTR,               /* Link to next item                  */
              9208    1         2 TYPE         UBIN( 18) UNAL,    /* Type                               */
              9209    1         2 SUB_TYPE     UBIN( 18) UNAL,    /* Sub-type                           */
              9210    1         2 OBJECT_NAME$ PTR,               /* Pointer to object unit name        */
              9211    1         2 SC_HEAD$     PTR,               /* Head pointer to section link list  */
              9212    1         2 SC_TAIL$     PTR,               /* Tail pointer to section link list  */
              9213    1         2 P,
              9214    1           3 NAME_       ALIGNED,
              9215    1             4 BOUND      UBIN(20)  UNAL,
              9216    1             4 FLAGSV     UBIN(11)  UNAL,
              9217    1             4 *          BIT(5)    UNAL,
              9218    1             4 NAME$      PTR,
              9219    1           3 ACCT_       ALIGNED,
              9220    1             4 BOUND      UBIN(20)  UNAL,
PL6.E3A0      #001=VYS$LST File=VYS$LST.:E05TSI                                  WED 07/30/97 09:03 Page:15
              9221    1             4 FLAGSV     UBIN(11)  UNAL,
              9222    1             4 *          BIT(5)    UNAL,
              9223    1             4 ACCT$      PTR,
              9224    1           3 PASS_       ALIGNED,
              9225    1             4 BOUND      UBIN(20)  UNAL,
              9226    1             4 FLAGSV     UBIN(11)  UNAL,
              9227    1             4 *          BIT(5)    UNAL,
              9228    1             4 PASS$      PTR,
              9229    1           3 SN_         ALIGNED,
              9230    1             4 BOUND      UBIN(20)  UNAL,
              9231    1             4 FLAGSV     UBIN(11)  UNAL,
              9232    1             4 *          BIT(5)    UNAL,
              9233    1             4 SN$        PTR,
              9234    1           3 WSN_        ALIGNED,
              9235    1             4 BOUND      UBIN(20)  UNAL,
              9236    1             4 FLAGSV     UBIN(11)  UNAL,
              9237    1             4 *          BIT(5)    UNAL,
              9238    1             4 WSN$       PTR,
              9239    1           3 B           ALIGNED,
              9240    1             4 RES        BIT(1)    UNAL,
              9241    1             4 ASN        BIT(1)    UNAL,
              9242    1             4 *          BIT(34)   UNAL,
              9243    1           3 RES         CHAR(4)   ALIGNED,
              9244    1           3 ASN         UBIN(36)  ALIGNED;
       11     9247        %VY$LLIST;

              9259    1   /*******************************************************************************
              9260    1   *                                                                              *
              9261    1   *                          VY$LLIST                                               *
              9262    1   *                                                                              *
              9263    1   *******************************************************************************/

              9268    1   DCL 1 VY$LLIST                BASED     ALIGNED,
              9269    1         2 LINK$                  PTR  ALIGNED,
              9270    1         2 ITEM$                  PTR  ALIGNED;
       12     9273        %T$C;

PL6.E3A0      #001=VYS$LST File=VYS$LST.:E05TSI                                  WED 07/30/97 09:03 Page:16
              9285    1   /*******************************************************************************
              9286    1   *                                                                              *
              9287    1   *                          T$C                                                 *
              9288    1   *                                                                              *
              9289    1   *******************************************************************************/

              9294    1   DCL 1 T$C           BASED     ALIGNED,  /* Text count                         */
              9295    1         2 COUNT        UBIN( 9) UNAL,
              9296    1         2 CHARS        CHAR( T$C.COUNT )   UNAL;
              9297    1   DCL 1 T$C_UNAL      BASED     UNAL,     /* Text count                         */
              9298    1         2 COUNT        UBIN( 9) UNAL,
              9299    1         2 CHARS        CHAR( T$C_UNAL.COUNT ) UNAL;
       13     9302        %PLIST;
       14     9303        %INCLUDE CP_6_SUBS;
       15     9843        %INCLUDE B$JIT;
       16    10133        %INCLUDE B_ERRORS_C;
       17    11260        %FILE;
       18    11269        %PARSE$OUT( NAME=O$B, STCLASS="BASED");
       19    11314        %FPT_FID( FPTN = FID,
       20    11315                        NAME = VLP_NAME,
       21    11316                        ACCT = VLP_ACCT,
       22    11317                        PASS = VLP_PASS,
       23    11318                        SN   = VLP_SN,
       24    11319                        WSN  = VLP_WSN,
       25    11320                        ASN  = F.ASN_,
       26    11321                        RES  = F.RES_,
       27    11322                        RESULTS = FR );
       28    11345    1   DCL 1 F ALIGNED STATIC,
       29    11346    1         2 ASN_ UBIN(9) ALIGNED,
       30    11347    1         2 RES_ CHAR(4) ALIGNED;
       31    11348        %VLP_NAME(FPTN=VLP_NAME,STCLASS=STATIC );
       32    11375        %VLP_ACCT(FPTN=VLP_ACCT,STCLASS=STATIC);
       33    11388        %VLP_PASS(FPTN=VLP_PASS,STCLASS=STATIC);
       34    11401        %VLP_SN  (FPTN=VLP_SN,N=9,STCLASS=STATIC);
       35    11414        %VLP_WSN (FPTN=VLP_WSN,STCLASS=STATIC);
       36    11427        %VLP_ACCT(FPTN=VLP$ACCT,STCLASS=BASED);
       37    11440        %VLP_PASS(FPTN=VLP$PASS,STCLASS=BASED);
PL6.E3A0      #001=VYS$LST File=VYS$LST.:E05TSI                                  WED 07/30/97 09:03 Page:17
       38    11453        %VLP_SN  (FPTN=VLP$SN,N=9,STCLASS=BASED);
       39    11466        %VLP_WSN (FPTN=VLP$WSN,STCLASS=BASED);
       40    11479        %PLIST;
       41    11480        /**/
       42    11481        %VLR_FID(FPTN=FR);
       43    11500        %P;

             11508    1   /*******************************************************************************
             11509    1   *                                                                              *
             11510    1   *                          PARAMETERS                                             *
             11511    1   *                                                                              *
             11512    1   *******************************************************************************/

       44    11516    1   DCL PREV$           PTR       ALIGNED;
       45    11517    1   DCL TXT$           PTR       ALIGNED;
       46    11518    1   DCL TYPE            UBIN(36)  ALIGNED;
       47    11519    1   DCL SUB_TYPE        UBIN(36)  ALIGNED;
       48    11520    1   DCL FIL$           PTR       ALIGNED;
       49    11521    1   DCL ON_ERROR        SBIN WORD ALIGNED;
       50    11522        %PTR;

             11530    1   /*******************************************************************************
             11531    1   *                                                                              *
             11532    1   *                          PTR                                                 *
             11533    1   *                                                                              *
             11534    1   *******************************************************************************/

       51    11538    1   DCL ALL$            PTR       ALIGNED   STATIC/*AUTO*/;
       52    11539    1   DCL CURR$           PTR       ALIGNED   STATIC/*AUTO*/;
       53    11540    1   DCL WORK$           PTR       ALIGNED   STATIC/*AUTO*/;
       54    11541    1   DCL WHERE$          PTR       ALIGNED   STATIC/*AUTO*/;
       55    11542    1   DCL TEXT$           PTR       ALIGNED   STATIC/*AUTO*/;
       56    11543    1   DCL FILE$           PTR       ALIGNED   STATIC/*AUTO*/;
       57    11544    1   DCL HEAD$           PTR       ALIGNED   STATIC/*AUTO*/;
       58    11545    1   DCL TAIL$           PTR       ALIGNED   STATIC/*AUTO*/;
       59    11546    1   DCL FL$             PTR       ALIGNED   STATIC/*AUTO*/;
       60    11547    1   DCL L$              PTR       ALIGNED   STATIC/*AUTO*/;
PL6.E3A0      #001=VYS$LST File=VYS$LST.:E05TSI                                  WED 07/30/97 09:03 Page:18
       61    11548        %E;

             11556    1   /*******************************************************************************
             11557    1   *                                                                              *
             11558    1   *                          ENTRY                                                 *
             11559    1   *                                                                              *
             11560    1   *******************************************************************************/

       62    11564    1   DCL VYA$GET         ENTRY(3);
       63    11565    1   DCL VYE$ERROR        ENTRY(4);
       64    11566    1   DCL VYP$PAR          ENTRY(3)  ALTRET;
       65    11567    1   DCL VYF$FREE         ENTRY(3);
       66    11568    1   DCL VYD$B2C          ENTRY(5);
       67    11569    1   DCL VYW$WRITE        ENTRY(3)  ALTRET;
       68    11570        %U;

             11578    1   /*******************************************************************************
             11579    1   *                                                                              *
             11580    1   *                          UBIN                                                 *
             11581    1   *                                                                              *
             11582    1   *******************************************************************************/

       69    11586    1   DCL SIZE            UBIN(36)  ALIGNED   STATIC/*AUTO*/;
       70    11587    1   DCL STOP            UBIN(36)  ALIGNED   STATIC/*AUTO*/;
       71    11588    1   DCL I               UBIN(36)  ALIGNED   STATIC/*AUTO*/;
       72    11589    1   DCL NM              UBIN(36)  ALIGNED   STATIC/*AUTO*/;
       73    11590    1   DCL J               UBIN(36)  ALIGNED   STATIC/*AUTO*/;
       74    11591    1   DCL NCHARS           UBIN(36)  ALIGNED   STATIC/*AUTO*/;
       75    11592    1   DCL WKSZ            UBIN(36)  ALIGNED   STATIC/*AUTO*/;
       76    11593    1   DCL SIZE_ALL        UBIN(36)  ALIGNED   STATIC/*AUTO*/;
       77    11594        /**/
       78    11595    1   DCL VY_N_START_FID   UBIN(36)  ALIGNED   SYMREF;
       79    11596        %C;

             11604    1   /*******************************************************************************
             11605    1   *                                                                              *
             11606    1   *                          CHAR                                                 *
PL6.E3A0      #001=VYS$LST File=VYS$LST.:E05TSI                                  WED 07/30/97 09:03 Page:19
             11607    1   *                                                                              *
             11608    1   *******************************************************************************/

       80    11612        %EJECT;
PL6.E3A0      #001=VYS$LST File=VYS$LST.:E05TSI                                  WED 07/30/97 09:03 Page:20
       81    11613    1         TEXT$ = TXT$;

  11613  2 000002   200004 470500                    LDP0    @TXT$,,AUTO
         2 000003   000000 236100                    LDQ     0,,PR0
         2 000004   000106 756000 1                  STQ     TEXT$

       82    11614    1         SIZE_ALL = 0;

  11614  2 000005   000123 450000 1                  STZ     SIZE_ALL

       83    11615    1         IF ON_ERROR = -8 THEN ALL$ = PREV$;

  11615  2 000006   200010 471500                    LDP1    @ON_ERROR,,AUTO
         2 000007   100000 235100                    LDA     0,,PR1
         2 000010   000000 115000 3                  CMPA    0
         2 000011   000016 601000 2                  TNZ     s:11618

  11615  2 000012   200003 473500                    LDP3    @PREV$,,AUTO
         2 000013   300000 236100                    LDQ     0,,PR3
         2 000014   000102 756000 1                  STQ     ALL$
         2 000015   000064 710000 2                  TRA     RETRY

       84    11616    2         ELSE DO;

       85    11617                  %ALLOCATE( PTR$=ALL$, TYPE=@GDP, SIZE="SIZEW(VY$LST)" );

  11618  2 000016   000010 236000 xsym               LDQ     VY_M_ALL+8
         2 000017   000010 136000 xsym               SBLQ    VY_M_FREE+8
         2 000020   000022 116007                    CMPQ    18,DL
         2 000021   000031 604000 2                  TMI     s:11622

  11619  2 000022   000010 236000 xsym               LDQ     VY_M_FREE+8
         2 000023   000022 736000                    QLS     18
         2 000024   000010 036000 xsym               ADLQ    VY_M_BASE_PTR+8
         2 000025   000102 756000 1                  STQ     ALL$

  11620  2 000026   000022 236007                    LDQ     18,DL
PL6.E3A0      #001=VYS$LST File=VYS$LST.:E05TSI                                  WED 07/30/97 09:03 Page:21
         2 000027   000010 056000 xsym               ASQ     VY_M_FREE+8

  11621  2 000030   000035 710000 2                  TRA     s:11624

  11622  2 000031   000002 630400 3                  EPPR0   2
         2 000032   000021 631400 xsym               EPPR1   B_VECTNIL+17
         2 000033   000000 701000 xent               TSX1    VYA$GET
         2 000034   000000 011000                    NOP     0

       86    11624    2             PREV$ = ALL$;

  11624  2 000035   000102 236000 1                  LDQ     ALL$
         2 000036   200003 470500                    LDP0    @PREV$,,AUTO
         2 000037   000000 756100                    STQ     0,,PR0

       87    11625    2             ALL$ -> VY$LST.LINK$ = ADDR(NIL);

  11625  2 000040   000001 236000 xsym               LDQ     B_VECTNIL+1
         2 000041   000102 471400 1                  LDP1    ALL$
         2 000042   100000 756100                    STQ     0,,PR1

       88    11626    2             ALL$ -> VY$LST.TYPE  = TYPE;

  11626  2 000043   200006 471500                    LDP1    @TYPE,,AUTO
         2 000044   100000 720100                    LXL0    0,,PR1
         2 000045   000102 473400 1                  LDP3    ALL$
         2 000046   300001 740100                    STX0    1,,PR3

       89    11627    2             ALL$ -> VY$LST.SUB_TYPE = SUB_TYPE;

  11627  2 000047   200007 473500                    LDP3    @SUB_TYPE,,AUTO
         2 000050   300000 720100                    LXL0    0,,PR3
         2 000051   000102 474400 1                  LDP4    ALL$
         2 000052   400001 440100                    SXL0    1,,PR4

       90    11628    2             ALL$ -> VY$LST.OBJECT_NAME$ = ADDR(NIL);

PL6.E3A0      #001=VYS$LST File=VYS$LST.:E05TSI                                  WED 07/30/97 09:03 Page:22
  11628  2 000053   000001 236000 xsym               LDQ     B_VECTNIL+1
         2 000054   000102 474400 1                  LDP4    ALL$
         2 000055   400002 756100                    STQ     2,,PR4

       91    11629    2             ALL$ -> VY$LST.SC_HEAD$     = ADDR(NIL);

  11629  2 000056   000102 474400 1                  LDP4    ALL$
         2 000057   400003 756100                    STQ     3,,PR4

       92    11630    2             ALL$ -> VY$LST.SC_TAIL$     = ADDR( ALL$ -> VY$LST.SC_HEAD$ );

  11630  2 000060   000102 236000 1                  LDQ     ALL$
         2 000061   000003 036003                    ADLQ    3,DU
         2 000062   000102 474400 1                  LDP4    ALL$
         2 000063   400004 756100                    STQ     4,,PR4

       93    11631    2            END;

       94    11632    1   RETRY:
       95    11633    1         FID.TEXTFID_ = VECTOR( TEXT$ -> T$C.CHARS );

  11633  2 000064   000106 470400 1     RETRY        LDP0    TEXT$
         2 000065   000000 236100                    LDQ     0,,PR0
         2 000066   000033 772000                    QRL     27
         2 000067   000064 737000                    LLS     52
         2 000070   000140 135007                    SBLA    96,DL
         2 000071   000106 236000 1                  LDQ     TEXT$
         2 000072   200000 036007                    ADLQ    65536,DL
         2 000073   000002 757000 1                  STAQ    FID+2

       96    11634    1         CALL M$FID( FID )   ALTRET(FID_ERR);

  11634  2 000074   000000 630400 1                  EPPR0   FID
         2 000075   420001 713400                    CLIMB   alt,+8193
         2 000076   404400 401760                    pmme    nvectors=10
         2 000077   000611 702000 2                  TSX2    FID_ERR

PL6.E3A0      #001=VYS$LST File=VYS$LST.:E05TSI                                  WED 07/30/97 09:03 Page:23
       97    11635    2         IF F.ASN_ ~= 1 THEN DO;

  11635  2 000100   000030 236000 1                  LDQ     F
         2 000101   777000 376003                    ANQ     -512,DU
         2 000102   001000 116003                    CMPQ    512,DU
         2 000103   000113 600000 2                  TZE     s:11646

       98    11636    3             IF ON_ERROR ~= -9 THEN DO;

  11636  2 000104   200010 470500                    LDP0    @ON_ERROR,,AUTO
         2 000105   000000 235100                    LDA     0,,PR0
         2 000106   000005 115000 3                  CMPA    5
         2 000107   000113 600000 2                  TZE     s:11646

       99    11637        /*E*  ERROR: VYS-E$NO_FILE_NAME_VY-0
      100    11638              MESSAGE: No file name in %U1.
      101    11639              DESCRIPTION: Self-explanatory.
      102    11640        */
      103    11641    3   REPORT_NO_NAME:
      104    11642    3                 J = 115;

  11642  2 000110   000163 235007       REPORT_NO_N* LDA     115,DL
         2 000111   000120 755000 1                  STA     J

      105    11643    3                 GOTO REPORT_ERROR;

  11643  2 000112   000613 710000 2                  TRA     REPORT_ERROR

      106    11644    3                END;
      107    11645    2            END;
      108    11646    1         ALL$ -> VY$LST.P.B.ASN = '1'B/*@TRUE_B*/;

  11646  2 000113   000102 470400 1                  LDP0    ALL$
         2 000114   200000 236003                    LDQ     65536,DU
         2 000115   000017 256100                    ORSQ    15,,PR0

      109    11647    1         ALL$ -> VY$LST.P.ASN = F.ASN_;
PL6.E3A0      #001=VYS$LST File=VYS$LST.:E05TSI                                  WED 07/30/97 09:03 Page:24

  11647  2 000116   000102 470400 1                  LDP0    ALL$
         2 000117   000030 236000 1                  LDQ     F
         2 000120   000033 772000                    QRL     27
         2 000121   000021 756100                    STQ     17,,PR0

      110    11648    1         ALL$ -> VY$LST.P.NAME_ = VECTOR(NIL);

  11648  2 000122   000102 470400 1                  LDP0    ALL$
         2 000123   000006 237000 3                  LDAQ    6
         2 000124   000005 755100                    STA     5,,PR0
         2 000125   000006 756100                    STQ     6,,PR0

      111    11649    2         IF FR.NAME THEN DO;

  11649  2 000126   000070 234000 1                  SZN     FR
         2 000127   000202 605000 2                  TPL     s:11666

      112    11650    2             ALL$ -> VY$LST.P.NAME_.BOUND = VLP_NAME.L#;

  11650  2 000130   000102 470400 1                  LDP0    ALL$
         2 000131   000032 236000 1                  LDQ     VLP_NAME
         2 000132   777000 376003                    ANQ     -512,DU
         2 000133   000013 772000                    QRL     11
         2 000134   000005 676100                    ERQ     5,,PR0
         2 000135   000034 376000 xsym               ANQ     B_VECTNIL+28
         2 000136   000005 656100                    ERSQ    5,,PR0

      113    11651    2             SIZE = ( VLP_NAME.L# + 4 ) / 4;

  11651  2 000137   000032 236000 1                  LDQ     VLP_NAME
         2 000140   000033 772000                    QRL     27
         2 000141   000004 036007                    ADLQ    4,DL
         2 000142   000002 772000                    QRL     2
         2 000143   000114 756000 1                  STQ     SIZE

      114    11652                  %ALLOCATE(
PL6.E3A0      #001=VYS$LST File=VYS$LST.:E05TSI                                  WED 07/30/97 09:03 Page:25
      115    11653                  PTR$=WHERE$,
      116    11654                  TYPE=@GDP,
      117    11655                  SIZE=SIZE);

  11656  2 000144   000010 236000 xsym               LDQ     VY_M_ALL+8
         2 000145   000010 136000 xsym               SBLQ    VY_M_FREE+8
         2 000146   000161 604000 2                  TMI     s:11660
         2 000147   000114 116000 1                  CMPQ    SIZE
         2 000150   000161 602000 2                  TNC     s:11660

  11657  2 000151   000010 236000 xsym               LDQ     VY_M_FREE+8
         2 000152   000022 736000                    QLS     18
         2 000153   000010 036000 xsym               ADLQ    VY_M_BASE_PTR+8
         2 000154   000105 756000 1                  STQ     WHERE$

  11658  2 000155   000010 236000 xsym               LDQ     VY_M_FREE+8
         2 000156   000114 036000 1                  ADLQ    SIZE
         2 000157   000010 756000 xsym               STQ     VY_M_FREE+8

  11659  2 000160   000165 710000 2                  TRA     s:11662

  11660  2 000161   000010 630400 3                  EPPR0   8
         2 000162   000021 631400 xsym               EPPR1   B_VECTNIL+17
         2 000163   000000 701000 xent               TSX1    VYA$GET
         2 000164   000000 011000                    NOP     0

      118    11662    2             ALL$ -> VY$LST.P.NAME_.NAME$ = WHERE$;

  11662  2 000165   000105 236000 1                  LDQ     WHERE$
         2 000166   000102 470400 1                  LDP0    ALL$
         2 000167   000006 756100                    STQ     6,,PR0

      119    11663    2             WHERE$ -> T$C.COUNT = VLP_NAME.L#;

  11663  2 000170   000105 470400 1                  LDP0    WHERE$
         2 000171   000032 236000 1                  LDQ     VLP_NAME
         2 000172   000000 552140                    STBQ    0,'40'O,PR0
PL6.E3A0      #001=VYS$LST File=VYS$LST.:E05TSI                                  WED 07/30/97 09:03 Page:26

      120    11664    2             WHERE$ -> T$C.CHARS = VLP_NAME.NAME#;

  11664  2 000173   000105 470400 1                  LDP0    WHERE$
         2 000174   000000 236100                    LDQ     0,,PR0
         2 000175   000033 772000                    QRL     27
         2 000176   000000 620006                    EAX0    0,QL
         2 000177   040140 100400                    MLR     fill='040'O
         2 000200   000032 200037 1                  ADSC9   VLP_NAME                 cn=1,n=31
         2 000201   000000 200010                    ADSC9   0,,PR0                   cn=1,n=*X0

      121    11665    2            END;

      122    11666    2         IF FR.RES THEN DO;

  11666  2 000202   000070 236000 1                  LDQ     FR
         2 000203   004000 316003                    CANQ    2048,DU
         2 000204   000214 600000 2                  TZE     s:11670

      123    11667    2             ALL$ -> VY$LST.P.B.RES = '1'B/*@TRUE_B*/;

  11667  2 000205   000102 470400 1                  LDP0    ALL$
         2 000206   400000 236003                    LDQ     -131072,DU
         2 000207   000017 256100                    ORSQ    15,,PR0

      124    11668    2             ALL$ -> VY$LST.P.RES   = F.RES_;

  11668  2 000210   000031 236000 1                  LDQ     F+1
         2 000211   000102 470400 1                  LDP0    ALL$
         2 000212   000020 756100                    STQ     16,,PR0

      125    11669    2            END;

  11669  2 000213   000217 710000 2                  TRA     s:11671

      126    11670    1         ELSE ALL$ -> VY$LST.P.B.RES = '0'B/*@FALSE_B*/;

PL6.E3A0      #001=VYS$LST File=VYS$LST.:E05TSI                                  WED 07/30/97 09:03 Page:27
  11670  2 000214   000102 470400 1                  LDP0    ALL$
         2 000215   000031 236000 xsym               LDQ     B_VECTNIL+25
         2 000216   000017 356100                    ANSQ    15,,PR0

      127    11671    2         IF FR.WSN THEN DO;

  11671  2 000217   000070 236000 1                  LDQ     FR
         2 000220   020000 316003                    CANQ    8192,DU
         2 000221   000253 600000 2                  TZE     s:11685

      128    11672                  %ALLOCATE(
      129    11673                  PTR$=WHERE$,
      130    11674                  TYPE=@GDP,
      131    11675                  SIZE="SIZEW(VLP_WSN)");

  11676  2 000222   000010 236000 xsym               LDQ     VY_M_ALL+8
         2 000223   000010 136000 xsym               SBLQ    VY_M_FREE+8
         2 000224   000002 116007                    CMPQ    2,DL
         2 000225   000235 604000 2                  TMI     s:11680

  11677  2 000226   000010 236000 xsym               LDQ     VY_M_FREE+8
         2 000227   000022 736000                    QLS     18
         2 000230   000010 036000 xsym               ADLQ    VY_M_BASE_PTR+8
         2 000231   000105 756000 1                  STQ     WHERE$

  11678  2 000232   000002 236007                    LDQ     2,DL
         2 000233   000010 056000 xsym               ASQ     VY_M_FREE+8

  11679  2 000234   000241 710000 2                  TRA     s:11682

  11680  2 000235   000013 630400 3                  EPPR0   11
         2 000236   000021 631400 xsym               EPPR1   B_VECTNIL+17
         2 000237   000000 701000 xent               TSX1    VYA$GET
         2 000240   000000 011000                    NOP     0

      132    11682    2             WHERE$ -> VLP$WSN = VLP_WSN;

PL6.E3A0      #001=VYS$LST File=VYS$LST.:E05TSI                                  WED 07/30/97 09:03 Page:28
  11682  2 000241   000105 470400 1                  LDP0    WHERE$
         2 000242   000100 100400                    MLR     fill='000'O
         2 000243   000066 000010 1                  ADSC9   VLP_WSN                  cn=0,n=8
         2 000244   000000 000010                    ADSC9   0,,PR0                   cn=0,n=8

      133    11683    2             ALL$ -> VY$LST.P.WSN_ = VECTOR( WHERE$ -> VLP$WSN );

  11683  2 000245   000016 235000 3                  LDA     14
         2 000246   000105 236000 1                  LDQ     WHERE$
         2 000247   000102 470400 1                  LDP0    ALL$
         2 000250   000015 755100                    STA     13,,PR0
         2 000251   000016 756100                    STQ     14,,PR0

      134    11684    2            END;

  11684  2 000252   000257 710000 2                  TRA     s:11686

      135    11685    1         ELSE ALL$ -> VY$LST.P.WSN_ = VECTOR(NIL);

  11685  2 000253   000102 470400 1                  LDP0    ALL$
         2 000254   000006 237000 3                  LDAQ    6
         2 000255   000015 755100                    STA     13,,PR0
         2 000256   000016 756100                    STQ     14,,PR0

      136    11686    2         IF FR.SN THEN DO;

  11686  2 000257   000070 236000 1                  LDQ     FR
         2 000260   040000 316003                    CANQ    16384,DU
         2 000261   000313 600000 2                  TZE     s:11700

      137    11687                  %ALLOCATE(
      138    11688                  PTR$=WHERE$,
      139    11689                  TYPE=@GDP,
      140    11690                  SIZE="SIZEW(VLP_SN)");

  11691  2 000262   000010 236000 xsym               LDQ     VY_M_ALL+8
         2 000263   000010 136000 xsym               SBLQ    VY_M_FREE+8
PL6.E3A0      #001=VYS$LST File=VYS$LST.:E05TSI                                  WED 07/30/97 09:03 Page:29
         2 000264   000020 116007                    CMPQ    16,DL
         2 000265   000275 604000 2                  TMI     s:11695

  11692  2 000266   000010 236000 xsym               LDQ     VY_M_FREE+8
         2 000267   000022 736000                    QLS     18
         2 000270   000010 036000 xsym               ADLQ    VY_M_BASE_PTR+8
         2 000271   000105 756000 1                  STQ     WHERE$

  11693  2 000272   000020 236007                    LDQ     16,DL
         2 000273   000010 056000 xsym               ASQ     VY_M_FREE+8

  11694  2 000274   000301 710000 2                  TRA     s:11697

  11695  2 000275   000020 630400 3                  EPPR0   16
         2 000276   000021 631400 xsym               EPPR1   B_VECTNIL+17
         2 000277   000000 701000 xent               TSX1    VYA$GET
         2 000300   000000 011000                    NOP     0

      141    11697    2             WHERE$ -> VLP$SN = VLP_SN;

  11697  2 000301   000105 470400 1                  LDP0    WHERE$
         2 000302   000100 100400                    MLR     fill='000'O
         2 000303   000046 000072 1                  ADSC9   VLP_SN                   cn=0,n=58
         2 000304   000000 000072                    ADSC9   0,,PR0                   cn=0,n=58

      142    11698    2             ALL$ -> VY$LST.P.SN_ = VECTOR( WHERE$ -> VLP$SN );

  11698  2 000305   000023 235000 3                  LDA     19
         2 000306   000105 236000 1                  LDQ     WHERE$
         2 000307   000102 470400 1                  LDP0    ALL$
         2 000310   000013 755100                    STA     11,,PR0
         2 000311   000014 756100                    STQ     12,,PR0

      143    11699    2            END;

  11699  2 000312   000317 710000 2                  TRA     s:11701

PL6.E3A0      #001=VYS$LST File=VYS$LST.:E05TSI                                  WED 07/30/97 09:03 Page:30
      144    11700    1         ELSE ALL$ -> VY$LST.P.SN_ = VECTOR(NIL);

  11700  2 000313   000102 470400 1                  LDP0    ALL$
         2 000314   000006 237000 3                  LDAQ    6
         2 000315   000013 755100                    STA     11,,PR0
         2 000316   000014 756100                    STQ     12,,PR0

      145    11701    2         IF FR.PASS THEN DO;

  11701  2 000317   000070 236000 1                  LDQ     FR
         2 000320   100000 316003                    CANQ    32768,DU
         2 000321   000353 600000 2                  TZE     s:11715

      146    11702                  %ALLOCATE(
      147    11703                  PTR$=WHERE$,
      148    11704                  TYPE=@GDP,
      149    11705                  SIZE=@F_PASS_SIZEW);

  11706  2 000322   000010 236000 xsym               LDQ     VY_M_ALL+8
         2 000323   000010 136000 xsym               SBLQ    VY_M_FREE+8
         2 000324   000002 116007                    CMPQ    2,DL
         2 000325   000335 604000 2                  TMI     s:11710

  11707  2 000326   000010 236000 xsym               LDQ     VY_M_FREE+8
         2 000327   000022 736000                    QLS     18
         2 000330   000010 036000 xsym               ADLQ    VY_M_BASE_PTR+8
         2 000331   000105 756000 1                  STQ     WHERE$

  11708  2 000332   000002 236007                    LDQ     2,DL
         2 000333   000010 056000 xsym               ASQ     VY_M_FREE+8

  11709  2 000334   000341 710000 2                  TRA     s:11712

  11710  2 000335   000013 630400 3                  EPPR0   11
         2 000336   000021 631400 xsym               EPPR1   B_VECTNIL+17
         2 000337   000000 701000 xent               TSX1    VYA$GET
         2 000340   000000 011000                    NOP     0
PL6.E3A0      #001=VYS$LST File=VYS$LST.:E05TSI                                  WED 07/30/97 09:03 Page:31

      150    11712    2             WHERE$ -> VLP$PASS = VLP_PASS;

  11712  2 000341   000105 470400 1                  LDP0    WHERE$
         2 000342   000100 100400                    MLR     fill='000'O
         2 000343   000044 000010 1                  ADSC9   VLP_PASS                 cn=0,n=8
         2 000344   000000 000010                    ADSC9   0,,PR0                   cn=0,n=8

      151    11713    2             ALL$ -> VY$LST.P.PASS_ = VECTOR( WHERE$ -> VLP$PASS );

  11713  2 000345   000016 235000 3                  LDA     14
         2 000346   000105 236000 1                  LDQ     WHERE$
         2 000347   000102 470400 1                  LDP0    ALL$
         2 000350   000011 755100                    STA     9,,PR0
         2 000351   000012 756100                    STQ     10,,PR0

      152    11714    2            END;

  11714  2 000352   000357 710000 2                  TRA     s:11716

      153    11715    1         ELSE ALL$ -> VY$LST.P.PASS_ = VECTOR(NIL);

  11715  2 000353   000102 470400 1                  LDP0    ALL$
         2 000354   000006 237000 3                  LDAQ    6
         2 000355   000011 755100                    STA     9,,PR0
         2 000356   000012 756100                    STQ     10,,PR0

      154    11716    1         ALL$ -> VY$LST.P.ACCT_.BOUND = 7/*@F_ACCT_SIZEC1*/;

  11716  2 000357   000102 470400 1                  LDP0    ALL$
         2 000360   000007 236100                    LDQ     7,,PR0
         2 000361   177777 376007                    ANQ     65535,DL
         2 000362   000024 276000 3                  ORQ     20
         2 000363   000007 756100                    STQ     7,,PR0

      155    11717    2         IF FR.ACCT THEN DO;

PL6.E3A0      #001=VYS$LST File=VYS$LST.:E05TSI                                  WED 07/30/97 09:03 Page:32
  11717  2 000364   000070 236000 1                  LDQ     FR
         2 000365   200000 316003                    CANQ    65536,DU
         2 000366   000420 600000 2                  TZE     s:11732

      156    11718                  %ALLOCATE(
      157    11719                  PTR$=WHERE$,
      158    11720                  TYPE=@GDP,
      159    11721                  SIZE=@F_ACCT_SIZEW);

  11722  2 000367   000010 236000 xsym               LDQ     VY_M_ALL+8
         2 000370   000010 136000 xsym               SBLQ    VY_M_FREE+8
         2 000371   000002 116007                    CMPQ    2,DL
         2 000372   000402 604000 2                  TMI     s:11726

  11723  2 000373   000010 236000 xsym               LDQ     VY_M_FREE+8
         2 000374   000022 736000                    QLS     18
         2 000375   000010 036000 xsym               ADLQ    VY_M_BASE_PTR+8
         2 000376   000105 756000 1                  STQ     WHERE$

  11724  2 000377   000002 236007                    LDQ     2,DL
         2 000400   000010 056000 xsym               ASQ     VY_M_FREE+8

  11725  2 000401   000406 710000 2                  TRA     s:11728

  11726  2 000402   000013 630400 3                  EPPR0   11
         2 000403   000021 631400 xsym               EPPR1   B_VECTNIL+17
         2 000404   000000 701000 xent               TSX1    VYA$GET
         2 000405   000000 011000                    NOP     0

      160    11728    2             WHERE$ -> VLP$ACCT = VLP_ACCT;

  11728  2 000406   000105 470400 1                  LDP0    WHERE$
         2 000407   000100 100400                    MLR     fill='000'O
         2 000410   000042 000010 1                  ADSC9   VLP_ACCT                 cn=0,n=8
         2 000411   000000 000010                    ADSC9   0,,PR0                   cn=0,n=8

      161    11729    2             ALL$ -> VY$LST.P.ACCT_ = VECTOR( WHERE$ -> VLP$ACCT );
PL6.E3A0      #001=VYS$LST File=VYS$LST.:E05TSI                                  WED 07/30/97 09:03 Page:33

  11729  2 000412   000016 235000 3                  LDA     14
         2 000413   000105 236000 1                  LDQ     WHERE$
         2 000414   000102 470400 1                  LDP0    ALL$
         2 000415   000007 755100                    STA     7,,PR0
         2 000416   000010 756100                    STQ     8,,PR0

      162    11730    2            END;

  11730  2 000417   000424 710000 2                  TRA     s:11733

      163    11731    1         ELSE
      164    11732    1             ALL$ -> VY$LST.P.ACCT_ = VECTOR( NIL );

  11732  2 000420   000102 470400 1                  LDP0    ALL$
         2 000421   000006 237000 3                  LDAQ    6
         2 000422   000007 755100                    STA     7,,PR0
         2 000423   000010 756100                    STQ     8,,PR0

      165    11733    2         IF FIL$ ~= ADDR(NIL) THEN DO;

  11733  2 000424   200005 470500                    LDP0    @FIL$,,AUTO
         2 000425   000000 236100                    LDQ     0,,PR0
         2 000426   000001 116000 xsym               CMPQ    B_VECTNIL+1
         2 000427   000602 600000 2                  TZE     s:11771

      166    11734    2             FL$ = FIL$;

  11734  2 000430   000112 756000 1                  STQ     FL$

      167    11735    2             HEAD$ = ADDR(NIL);

  11735  2 000431   000001 236000 xsym               LDQ     B_VECTNIL+1
         2 000432   000110 756000 1                  STQ     HEAD$

      168    11736    2             TAIL$ = ADDR(NIL);

PL6.E3A0      #001=VYS$LST File=VYS$LST.:E05TSI                                  WED 07/30/97 09:03 Page:34
  11736  2 000433   000111 756000 1                  STQ     TAIL$

      169    11737    2             NM = FL$ -> O$B.NSUBLKS - 1;

  11737  2 000434   000112 471400 1                  LDP1    FL$
         2 000435   100001 236100                    LDQ     1,,PR1
         2 000436   000022 772000                    QRL     18
         2 000437   000001 136007                    SBLQ    1,DL
         2 000440   000117 756000 1                  STQ     NM

      170    11738    3             DO I = 0 TO NM;

  11738  2 000441   000116 450000 1                  STZ     I
         2 000442   000574 710000 2                  TRA     s:11768+3

      171    11739    3                 FILE$ = FL$ -> O$B.SUBLK$(I) -> O$B.SUBLK$(0);

  11739  2 000443   000112 470400 1                  LDP0    FL$
         2 000444   000116 720000 1                  LXL0    I
         2 000445   000003 471510                    LDP1    3,X0,PR0
         2 000446   100003 236100                    LDQ     3,,PR1
         2 000447   000107 756000 1                  STQ     FILE$

      172    11740                      %ALLOCATE(
      173    11741                      PTR$ = L$,
      174    11742                      TYPE = @GDP,
      175    11743                      SIZE ="SIZEW(VY$LLIST)");

  11744  2 000450   000010 236000 xsym               LDQ     VY_M_ALL+8
         2 000451   000010 136000 xsym               SBLQ    VY_M_FREE+8
         2 000452   000002 116007                    CMPQ    2,DL
         2 000453   000463 604000 2                  TMI     s:11748

  11745  2 000454   000010 236000 xsym               LDQ     VY_M_FREE+8
         2 000455   000022 736000                    QLS     18
         2 000456   000010 036000 xsym               ADLQ    VY_M_BASE_PTR+8
         2 000457   000113 756000 1                  STQ     L$
PL6.E3A0      #001=VYS$LST File=VYS$LST.:E05TSI                                  WED 07/30/97 09:03 Page:35

  11746  2 000460   000002 236007                    LDQ     2,DL
         2 000461   000010 056000 xsym               ASQ     VY_M_FREE+8

  11747  2 000462   000467 710000 2                  TRA     s:11750

  11748  2 000463   000025 630400 3                  EPPR0   21
         2 000464   000021 631400 xsym               EPPR1   B_VECTNIL+17
         2 000465   000000 701000 xent               TSX1    VYA$GET
         2 000466   000000 011000                    NOP     0

      176    11750    3                 L$ -> VY$LLIST.LINK$ = ADDR(NIL);

  11750  2 000467   000001 236000 xsym               LDQ     B_VECTNIL+1
         2 000470   000113 470400 1                  LDP0    L$
         2 000471   000000 756100                    STQ     0,,PR0

      177    11751    3                 IF TAIL$ = ADDR(NIL) THEN HEAD$ = L$;

  11751  2 000472   000111 236000 1                  LDQ     TAIL$
         2 000473   000001 116000 xsym               CMPQ    B_VECTNIL+1
         2 000474   000500 601000 2                  TNZ     s:11752

  11751  2 000475   000113 236000 1                  LDQ     L$
         2 000476   000110 756000 1                  STQ     HEAD$
         2 000477   000503 710000 2                  TRA     s:11753

      178    11752    3                 ELSE TAIL$ -> VY$LLIST.LINK$ = L$;

  11752  2 000500   000113 236000 1                  LDQ     L$
         2 000501   000111 470400 1                  LDP0    TAIL$
         2 000502   000000 756100                    STQ     0,,PR0

      179    11753    3                 TAIL$ = L$;

  11753  2 000503   000113 236000 1                  LDQ     L$
         2 000504   000111 756000 1                  STQ     TAIL$
PL6.E3A0      #001=VYS$LST File=VYS$LST.:E05TSI                                  WED 07/30/97 09:03 Page:36

      180    11754    3                J = (FILE$->T$C.COUNT + 4/*@CHAR_WORD*/ + LENGTHC(VY_O_KEY_HEAD) ) / 4
             11754                          /*@CHAR_WORD*/;

  11754  2 000505   000107 470400 1                  LDP0    FILE$
         2 000506   000000 236100                    LDQ     0,,PR0
         2 000507   000033 772000                    QRL     27
         2 000510   000005 036007                    ADLQ    5,DL
         2 000511   000002 772000                    QRL     2
         2 000512   000120 756000 1                  STQ     J

      181    11755                      %ALLOCATE(
      182    11756                      PTR$=WHERE$,
      183    11757                      TYPE=@GDP,
      184    11758                      SIZE=J);

  11759  2 000513   000010 236000 xsym               LDQ     VY_M_ALL+8
         2 000514   000010 136000 xsym               SBLQ    VY_M_FREE+8
         2 000515   000530 604000 2                  TMI     s:11763
         2 000516   000120 116000 1                  CMPQ    J
         2 000517   000530 602000 2                  TNC     s:11763

  11760  2 000520   000010 236000 xsym               LDQ     VY_M_FREE+8
         2 000521   000022 736000                    QLS     18
         2 000522   000010 036000 xsym               ADLQ    VY_M_BASE_PTR+8
         2 000523   000105 756000 1                  STQ     WHERE$

  11761  2 000524   000010 236000 xsym               LDQ     VY_M_FREE+8
         2 000525   000120 036000 1                  ADLQ    J
         2 000526   000010 756000 xsym               STQ     VY_M_FREE+8

  11762  2 000527   000534 710000 2                  TRA     s:11765

  11763  2 000530   000030 630400 3                  EPPR0   24
         2 000531   000021 631400 xsym               EPPR1   B_VECTNIL+17
         2 000532   000000 701000 xent               TSX1    VYA$GET
         2 000533   000000 011000                    NOP     0
PL6.E3A0      #001=VYS$LST File=VYS$LST.:E05TSI                                  WED 07/30/97 09:03 Page:37

      185    11765    3                 WHERE$ -> T$C.COUNT = FILE$ -> T$C.COUNT+LENGTHC(VY_O_KEY_HEAD);
             11765                          /* For object unit name and head byte */

  11765  2 000534   000107 470400 1                  LDP0    FILE$
         2 000535   000105 471400 1                  LDP1    WHERE$
         2 000536   000000 236100                    LDQ     0,,PR0
         2 000537   000033 772000                    QRL     27
         2 000540   000001 036007                    ADLQ    1,DL
         2 000541   000033 736000                    QLS     27
         2 000542   100000 552140                    STBQ    0,'40'O,PR1

      186    11766    3                CALL CONCAT( WHERE$ -> T$C.CHARS, VY_O_KEY_HEAD, FILE$ -> T$C.CHARS );

  11766  2 000543   000105 471400 1                  LDP1    WHERE$
         2 000544   100000 236100                    LDQ     0,,PR1
         2 000545   000033 772000                    QRL     27
         2 000546   000000 620006                    EAX0    0,QL
         2 000547   000000 236100                    LDQ     0,,PR0
         2 000550   000033 772000                    QRL     27
         2 000551   040140 100400                    MLR     fill='040'O
         2 000552   000000 000001 xsym               ADSC9   VY_O_KEY_HEAD            cn=0,n=1
         2 000553   100000 200010                    ADSC9   0,,PR1                   cn=1,n=*X0
         2 000554   000000 621006                    EAX1    0,QL
         2 000555   000000 636010                    EAQ     0,X0
         2 000556   000022 772000                    QRL     18
         2 000557   000002 116007                    CMPQ    2,DL
         2 000560   000566 602000 2                  TNC     s:11767
         2 000561   777777 622010                    EAX2    -1,X0
         2 000562   000105 471400 1                  LDP1    WHERE$
         2 000563   040140 100540                    MLR     fill='040'O
         2 000564   000000 200011                    ADSC9   0,,PR0                   cn=1,n=*X1
         2 000565   100000 400012                    ADSC9   0,,PR1                   cn=2,n=*X2

      187    11767    3                 L$ -> VY$LLIST.ITEM$ = WHERE$;

  11767  2 000566   000105 236000 1                  LDQ     WHERE$
PL6.E3A0      #001=VYS$LST File=VYS$LST.:E05TSI                                  WED 07/30/97 09:03 Page:38
         2 000567   000113 471400 1                  LDP1    L$
         2 000570   100001 756100                    STQ     1,,PR1

      188    11768    3                END;                       /* Do i = 0 to nm; */

  11768  2 000571   000116 235000 1                  LDA     I
         2 000572   000001 035007                    ADLA    1,DL
         2 000573   000116 755000 1                  STA     I
         2 000574   000117 236000 1                  LDQ     NM
         2 000575   000116 116000 1                  CMPQ    I
         2 000576   000443 603000 2                  TRC     s:11739

      189    11769    2             ALL$ -> VY$LST.OBJECT_NAME$ = HEAD$;

  11769  2 000577   000110 236000 1                  LDQ     HEAD$
         2 000600   000102 470400 1                  LDP0    ALL$
         2 000601   000002 756100                    STQ     2,,PR0

      190    11770    2            END;                           /* If FIL$ ~= addr(nil) then do; */

      191    11771    1         IF SIZE_ALL > 0 THEN CALL VYF$FREE( 3/*@DS3*/, SIZE_ALL, 1 );

  11771  2 000602   000123 235000 1                  LDA     SIZE_ALL
         2 000603   000610 600000 2                  TZE     s:11772

  11771  2 000604   000033 630400 3                  EPPR0   27
         2 000605   000021 631400 xsym               EPPR1   B_VECTNIL+17
         2 000606   000000 701000 xent               TSX1    VYF$FREE
         2 000607   000000 011000                    NOP     0

      192    11772    1         RETURN;

  11772  2 000610   000000 702200 xent               TSX2  ! X66_ARET

  11771  2 000611                       FID_ERR      null
      193    11773        %EJECT;
PL6.E3A0      #001=VYS$LST File=VYS$LST.:E05TSI                                  WED 07/30/97 09:03 Page:39
      194    11774    1   FID_ERR:;
      195    11775        /*E*  ERROR: VYS-E$FID_ERROR_VY-0
      196    11776              MESSAGE: Illegal fid in %U1.
      197    11777              DESCRIPTION: Self-explanatory.
      198    11778        */
      199    11779    1         J = 117;

  11779  2 000611   000165 235007                    LDA     117,DL
         2 000612   000120 755000 1                  STA     J

      200    11780    1   REPORT_ERROR:
      201    11781    1         VY_EFIELD1.COUNT = TEXT$ -> T$C.COUNT;

  11781  2 000613   000106 470400 1     REPORT_ERROR LDP0    TEXT$
         2 000614   000000 236100                    LDQ     0,,PR0
         2 000615   000000 552040 xsym               STBQ    VY_EFIELD1,'40'O

      202    11782    1         VY_EFIELD1.CHARS = TEXT$ -> T$C.CHARS;

  11782  2 000616   000000 236100                    LDQ     0,,PR0
         2 000617   000033 772000                    QRL     27
         2 000620   000000 620006                    EAX0    0,QL
         2 000621   040000 100540                    MLR     fill='040'O
         2 000622   000000 200010                    ADSC9   0,,PR0                   cn=1,n=*X0
         2 000623   000000 200117 xsym               ADSC9   VY_EFIELD1               cn=1,n=79

      203    11783    2         IF VY_ONLINE = 1/*@YES*/ THEN DO;

  11783  2 000624   000000 236000 xsym               LDQ     VY_ONLINE
         2 000625   000001 116007                    CMPQ    1,DL
         2 000626   000661 601000 2                  TNZ     s:11796

      204    11784                  %SCREAM( ERR#=J, LEVEL=%@E$S_VY, MID="'S'" );

  11785  2 000627   000037 630400 3                  EPPR0   31
         2 000630   000022 631400 xsym               EPPR1   B_VECTNIL+18
         2 000631   000000 701000 xent               TSX1    VYE$ERROR
PL6.E3A0      #001=VYS$LST File=VYS$LST.:E05TSI                                  WED 07/30/97 09:03 Page:40
         2 000632   000000 011000                    NOP     0

      205    11787    2             WKSZ = 256/4;

  11787  2 000633   000100 235007                    LDA     64,DL
         2 000634   000122 755000 1                  STA     WKSZ

      206    11788    2             CALL VYP$PAR( 2, ADDR(VY_N_START_FID), WKSZ );

  11788  2 000635   000043 236000 3                  LDQ     35
         2 000636   200012 756100                    STQ     @ON_ERROR+2,,AUTO
         2 000637   000044 236000 3                  LDQ     36
         2 000640   200015 756100                    STQ     @ON_ERROR+5,,AUTO
         2 000641   200012 630500                    EPPR0   @ON_ERROR+2,,AUTO
         2 000642   200014 450500                    STP0    @ON_ERROR+4,,AUTO
         2 000643   000015 236000 3                  LDQ     13
         2 000644   200013 756100                    STQ     @ON_ERROR+3,,AUTO
         2 000645   200013 630500                    EPPR0   @ON_ERROR+3,,AUTO
         2 000646   000021 631400 xsym               EPPR1   B_VECTNIL+17
         2 000647   000000 701000 xent               TSX1    VYP$PAR
         2 000650   000000 011000                    NOP     0

      207    11789    2             SIZE_ALL = SIZE_ALL + WKSZ;

  11789  2 000651   000123 236000 1                  LDQ     SIZE_ALL
         2 000652   000122 036000 1                  ADLQ    WKSZ
         2 000653   000123 756000 1                  STQ     SIZE_ALL

      208    11790    2             TEXT$ = VY_P_PCB_MAIN.OUT$ -> O$B.SUBLK$(0)->

  11790  2 000654   000003 470400 xsym               LDP0    VY_P_PCB_MAIN+3
         2 000655   000003 471500                    LDP1    3,,PR0
         2 000656   100003 236100                    LDQ     3,,PR1
         2 000657   000106 756000 1                  STQ     TEXT$

      209    11791    2                     O$B.SUBLK$(0);
      210    11792    2             GOTO RETRY;
PL6.E3A0      #001=VYS$LST File=VYS$LST.:E05TSI                                  WED 07/30/97 09:03 Page:41

  11792  2 000660   000064 710000 2                  TRA     RETRY

      211    11793    2            END;
      212    11794    2         ELSE DO;

      213    11795                  %ERROR_IT;

  11796  2 000661   000000 237200 xsym               LDAQ  ! VY_UNWIND
         2 000662   000000 700200 xent               TSX0  ! X66_AUNWIND
         2 000663   000000 000200                    ZERO    0,128
      214    11798    2            END;                           /* Else do; */
      215    11799    1   END VYS$LST;

PL6.E3A0      #001=VYS$LST File=VYS$LST.:E05TSI                                  WED 07/30/97 09:03 Page:42
--  Include file information  --

   B_ERRORS_C.:E05TOU  is referenced.
   B$JIT.:E05TOU  cannot be made into a system file and is referenced.
   CP_6_SUBS.:E05TOU  is referenced.
   B$OBJECT_C.:E05TOU  is referenced.
   VY_DCB_R.:E05TOU  cannot be made into a system file and is referenced.
   VY_DATA_R.:E05TOU  cannot be made into a system file and is referenced.
   XU_MACRO_C.:E05TOU  is referenced.
   VY_FIXED_R.:E05TOU  cannot be made into a system file and is referenced.
   CP_6.:E05TOU  cannot be made into a system file and is referenced.
   VY_MACRO_C.:E05TOU  is referenced.
   VY_PERR_C.:E05TOU  is referenced.
   VY_SUBS_C.:E05TOU  is referenced.
   VY_INC_NO_C.:E05TOU  is referenced.
   VY_SWITCH_C.:E05TOU  is referenced.
   VY_INC_C.:E05TOU  is referenced.
   B$JIT_C.:E05TOU  was found in the system file and is referenced.
   CP_6_C.:E05TOU  was found in the system file and is referenced.
      No diagnostics issued in procedure VYS$LST.
PL6.E3A0      #001=VYS$LST File=VYS$LST.:E05TSI                                  WED 07/30/97 09:03 Page:43

 **** Variables and constants ****

  ****  Section 001  Data  VYS$LST

  ****  Scalars and arrays  ****
OctLoc.c.b A Datatyp(siz) R M Lvl/name                 OctLoc.c.b A Datatyp(siz) R M Lvl/name

   102-0-0/w PTR         r     1 ALL$                      30-0-0/w STRC(72)    r     1 F
     0-0-0/d STRC(864)   r     1 FID                      107-0-0/w PTR         r     1 FILE$
   112-0-0/w PTR         r     1 FL$                       70-0-0/d STRC(324)   r     1 FR
   110-0-0/w PTR         r     1 HEAD$                    116-0-0/w UBIN        r     1 I
   120-0-0/w UBIN        r     1 J                        113-0-0/w PTR         r     1 L$
   117-0-0/w UBIN        r     1 NM                       114-0-0/w UBIN        r     1 SIZE
   123-0-0/w UBIN        r     1 SIZE_ALL                 111-0-0/w PTR         r     1 TAIL$
   106-0-0/w PTR         r     1 TEXT$                     42-0-0/c STRC(72)    r     1 VLP_ACCT
    32-0-0/c STRC(288)   r     1 VLP_NAME                  44-0-0/c STRC(72)    r     1 VLP_PASS
    46-0-0/d STRC(522)   r     1 VLP_SN                    66-0-0/c STRC(72)    r     1 VLP_WSN
   105-0-0/w PTR         r     1 WHERE$                   122-0-0/w UBIN        r     1 WKSZ

  ****  Auto variables  ****

  ****  Scalars and arrays  ****
OctLoc.c.b A Datatyp(siz) R M Lvl/name                 OctLoc.c.b A Datatyp(siz) R M Lvl/name

     5-0-0/w PTR         r     1 @FIL$                     10-0-0/w PTR         r     1 @ON_ERROR
     3-0-0/w PTR         r     1 @PREV$                     7-0-0/w PTR         r     1 @SUB_TYPE
     4-0-0/w PTR         r     1 @TXT$                      6-0-0/w PTR         r     1 @TYPE
    *0-0-0/w PTR         r     1 FIL$                      *0-0-0/w SBIN        r     1 ON_ERROR
    *0-0-0/w PTR         r     1 PREV$                     *0-0-0/w UBIN        r     1 SUB_TYPE
    *0-0-0/w PTR         r     1 TXT$                      *0-0-0/w UBIN        r     1 TYPE

  ****  SYMREF variables  ****

  ****  Scalars and arrays  ****
OctLoc.c.b A Datatyp(siz) R M Lvl/name                 OctLoc.c.b A Datatyp(siz) R M Lvl/name

     0-0-0/w PTR         r     1 B$JIT$                     0-0-0/w STRC(720)   r     1 VY_EFIELD1
PL6.E3A0      #001=VYS$LST File=VYS$LST.:E05TSI                                  WED 07/30/97 09:03 Page:44
     0-0-0/w SBIN        r     1 VY_M_ALL(0:8)
     0-0-0/w PTR         r     1 VY_M_BASE_PTR(0:8)
     0-0-0/w SBIN        r     1 VY_M_FREE(0:8)
     0-0-0/w UBIN        r     1 VY_N_START_FID             0-0-0/w UBIN        r     1 VY_ONLINE
     0-0-0/c CHAR        r     1 VY_O_KEY_HEAD              0-0-0/w STRC(504)   r     1 VY_P_PCB_MAIN
     0-0-0/d REMB        r     1 VY_UNWIND

  ****  BASED and DCB variables  ****

  ****  Scalars and arrays  ****
OctLoc.c.b A Datatyp(siz) R M Lvl/name                 OctLoc.c.b A Datatyp(siz) R M Lvl/name

     0-0-0/c ASTR(9)     r     1 F$NAME_                    0-0-0/w STRC(144)   r     1 O$B
     0-0-0/w ASTR(9)     r     1 T$C                        0-0-0/c ASTR(9)     r     1 T$C_UNAL
     0-0-0/c STRC(72)    r     1 VLP$ACCT                   0-0-0/c STRC(72)    r     1 VLP$PASS
     0-0-0/d STRC(522)   r     1 VLP$SN                     0-0-0/c STRC(72)    r     1 VLP$WSN
     0-0-0/w STRC(72)    r     1 VY$LLIST                   0-0-0/w STRC(648)   r     1 VY$LST


   Procedure VYS$LST requires 436 words for executable code.
   Procedure VYS$LST requires 14 words of local(AUTO) storage.

    No errors detected in file VYS$LST.:E05TSI    .
PL6.E3A0      #001=VYS$LST File=VYS$LST.:E05TSI                                  WED 07/30/97 09:03 Page:45
          *** CROSS REFERENCE LISTING ***
**     DENOTES     IDENTIFIER DEFINITION
<<                 IDENTIFIER'S VALUE SET
>>                 IDENTIFIER'S VALUE USED
<>                 IDENTIFIER SET AND/OR USED
--                 IDENTIFIER REFERENCED
PL6.E3A0      #001=VYS$LST File=VYS$LST.:E05TSI                                  WED 07/30/97 09:03 Page:46
          MINI XREF LISTING

ALL$
     11538**DCL     11615<<ASSIGN  11619<<ASSIGN  11622<>CALL    11624>>ASSIGN  11625>>ASSIGN  11626>>ASSIGN
     11627>>ASSIGN  11628>>ASSIGN  11629>>ASSIGN  11630>>ASSIGN  11630>>ASSIGN  11646>>ASSIGN  11647>>ASSIGN
     11648>>ASSIGN  11650>>ASSIGN  11662>>ASSIGN  11667>>ASSIGN  11668>>ASSIGN  11670>>ASSIGN  11683>>ASSIGN
     11685>>ASSIGN  11698>>ASSIGN  11700>>ASSIGN  11713>>ASSIGN  11715>>ASSIGN  11716>>ASSIGN  11729>>ASSIGN
     11732>>ASSIGN  11769>>ASSIGN
B$JIT.CPFLAGS1.SLEAZE
      9951**DCL      9951--REDEF
B$JIT.ERR.MID
      9858**DCL      9858--REDEF
B$JIT.JRESPEAK
     10019**DCL     10020--REDEF
B$JIT.ORIGINATOR_PORT.FROM_CR
     10128**DCL     10128--REDEF   10129--REDEF
B$JIT.PNR
     10032**DCL     10032--REDEF
B$JIT.TSLINE
     10126**DCL     10127--REDEF
B$JIT$
      5336**DCL      9852--IMP-PTR
F.ASN_
     11346**DCL     11336--DCLINIT 11635>>IF      11647>>ASSIGN
F.RES_
     11347**DCL     11336--DCLINIT 11668>>ASSIGN
F$NAME_.COUNT
     11262**DCL     11263--IMP-SIZ
FID
     11333**DCL     11634<>CALL
FID.TEXTFID_
     11333**DCL     11633<<ASSIGN
FID.V
     11337**DCL     11333--DCLINIT
PL6.E3A0      #001=VYS$LST File=VYS$LST.:E05TSI                                  WED 07/30/97 09:03 Page:47
FID_ERR
     11771**LABEL   11634--CALLALT
FIL$
     11520**DCL         7--PROC    11733>>IF      11734>>ASSIGN
FILE$
     11543**DCL     11739<<ASSIGN  11754>>ASSIGN  11765>>ASSIGN  11766>>CALLBLT 11766>>CALLBLT
FL$
     11546**DCL     11734<<ASSIGN  11737>>ASSIGN  11739>>ASSIGN
FR
     11492**DCL     11337--DCLINIT
FR.ACCT
     11492**DCL     11717>>IF
FR.NAME
     11492**DCL     11649>>IF
FR.PASS
     11492**DCL     11701>>IF
FR.RES
     11492**DCL     11666>>IF
FR.SN
     11492**DCL     11686>>IF
FR.WSN
     11492**DCL     11671>>IF
HEAD$
     11544**DCL     11735<<ASSIGN  11751<<ASSIGN  11769>>ASSIGN
I
     11588**DCL     11738<<DOINDEX 11739>>ASSIGN
J
     11590**DCL     11642<<ASSIGN  11754<<ASSIGN  11759>>IF      11761>>ASSIGN  11763<>CALL    11779<<ASSIGN
     11785<>CALL
L$
     11547**DCL     11745<<ASSIGN  11748<>CALL    11750>>ASSIGN  11751>>ASSIGN  11752>>ASSIGN  11753>>ASSIGN
     11767>>ASSIGN
M$FID
      1669**DCL-ENT 11634--CALL
NM
     11589**DCL     11737<<ASSIGN  11738>>DOINDEX
PL6.E3A0      #001=VYS$LST File=VYS$LST.:E05TSI                                  WED 07/30/97 09:03 Page:48
O$B.NSUBLKS
     11287**DCL     11737>>ASSIGN
O$B.SUBLK$
     11308**DCL     11739>>ASSIGN  11739>>ASSIGN  11790>>ASSIGN  11790>>ASSIGN
ON_ERROR
     11521**DCL         7--PROC    11615>>IF      11636>>IF
PREV$
     11516**DCL         7--PROC    11615>>ASSIGN  11624<<ASSIGN
REPORT_ERROR
     11781**LABEL   11643--GOTO
RETRY
     11633**LABEL   11792--GOTO
SIZE
     11586**DCL     11651<<ASSIGN  11656>>IF      11658>>ASSIGN  11660<>CALL
SIZE_ALL
     11593**DCL     11614<<ASSIGN  11771>>IF      11771<>CALL    11789<<ASSIGN  11789>>ASSIGN
SUB_TYPE
     11519**DCL         7--PROC    11627>>ASSIGN
T$C.CHARS
      9296**DCL     11633--ASSIGN  11664<<ASSIGN  11766<<CALLBLT 11766>>CALLBLT 11782>>ASSIGN
T$C.COUNT
      9295**DCL      9296--IMP-SIZ 11633>>ASSIGN  11663<<ASSIGN  11664>>ASSIGN  11754>>ASSIGN  11765<<ASSIGN
     11765>>ASSIGN  11766>>CALLBLT 11766>>CALLBLT 11781>>ASSIGN  11782>>ASSIGN
T$C_UNAL.COUNT
      9298**DCL      9299--IMP-SIZ
TAIL$
     11545**DCL     11736<<ASSIGN  11751>>IF      11752>>ASSIGN  11753<<ASSIGN
TEXT$
     11542**DCL     11613<<ASSIGN  11633>>ASSIGN  11633>>ASSIGN  11781>>ASSIGN  11782>>ASSIGN  11782>>ASSIGN
     11790<<ASSIGN
TXT$
     11517**DCL         7--PROC    11613>>ASSIGN
TYPE
     11518**DCL         7--PROC    11626>>ASSIGN
VLP$ACCT
     11438**DCL     11728<<ASSIGN  11729--ASSIGN
PL6.E3A0      #001=VYS$LST File=VYS$LST.:E05TSI                                  WED 07/30/97 09:03 Page:49
VLP$PASS
     11451**DCL     11712<<ASSIGN  11713--ASSIGN
VLP$SN
     11464**DCL     11697<<ASSIGN  11698--ASSIGN
VLP$WSN
     11477**DCL     11682<<ASSIGN  11683--ASSIGN
VLP_ACCT
     11386**DCL     11334--DCLINIT 11728>>ASSIGN
VLP_NAME
     11373**DCL     11334--DCLINIT
VLP_NAME.L#
     11373**DCL     11650>>ASSIGN  11651>>ASSIGN  11663>>ASSIGN
VLP_NAME.NAME#
     11373**DCL     11664>>ASSIGN
VLP_PASS
     11399**DCL     11335--DCLINIT 11712>>ASSIGN
VLP_SN
     11412**DCL     11335--DCLINIT 11691--IF      11693--ASSIGN  11695--CALL    11697>>ASSIGN
VLP_WSN
     11425**DCL     11335--DCLINIT 11676--IF      11678--ASSIGN  11680--CALL    11682>>ASSIGN
VY$LLIST
      9268**DCL     11744--IF      11746--ASSIGN  11748--CALL
VY$LLIST.ITEM$
      9270**DCL     11767<<ASSIGN
VY$LLIST.LINK$
      9269**DCL     11750<<ASSIGN  11752<<ASSIGN
VY$LST
      9206**DCL     11618--IF      11620--ASSIGN  11622--CALL
VY$LST.LINK$
      9207**DCL     11625<<ASSIGN
VY$LST.OBJECT_NAME$
      9210**DCL     11628<<ASSIGN  11769<<ASSIGN
VY$LST.P.ACCT_
      9219**DCL     11729<<ASSIGN  11732<<ASSIGN
VY$LST.P.ACCT_.BOUND
      9220**DCL     11716<<ASSIGN
PL6.E3A0      #001=VYS$LST File=VYS$LST.:E05TSI                                  WED 07/30/97 09:03 Page:50
VY$LST.P.ASN
      9244**DCL     11647<<ASSIGN
VY$LST.P.B.ASN
      9241**DCL     11646<<ASSIGN
VY$LST.P.B.RES
      9240**DCL     11667<<ASSIGN  11670<<ASSIGN
VY$LST.P.NAME_
      9214**DCL     11648<<ASSIGN
VY$LST.P.NAME_.BOUND
      9215**DCL     11650<<ASSIGN
VY$LST.P.NAME_.NAME$
      9218**DCL     11662<<ASSIGN
VY$LST.P.PASS_
      9224**DCL     11713<<ASSIGN  11715<<ASSIGN
VY$LST.P.RES
      9243**DCL     11668<<ASSIGN
VY$LST.P.SN_
      9229**DCL     11698<<ASSIGN  11700<<ASSIGN
VY$LST.P.WSN_
      9234**DCL     11683<<ASSIGN  11685<<ASSIGN
VY$LST.SC_HEAD$
      9211**DCL     11629<<ASSIGN  11630--ASSIGN
VY$LST.SC_TAIL$
      9212**DCL     11630<<ASSIGN
VY$LST.SUB_TYPE
      9209**DCL     11627<<ASSIGN
VY$LST.TYPE
      9208**DCL     11626<<ASSIGN
VYA$GET
     11564**DCL-ENT 11622--CALL    11660--CALL    11680--CALL    11695--CALL    11710--CALL    11726--CALL
     11748--CALL    11763--CALL
VYE$ERROR
     11565**DCL-ENT 11785--CALL
VYF$FREE
     11567**DCL-ENT 11771--CALL
VYP$PAR
PL6.E3A0      #001=VYS$LST File=VYS$LST.:E05TSI                                  WED 07/30/97 09:03 Page:51
     11566**DCL-ENT 11788--CALL
VY_BIAS.A
      5385**DCL      5385--REDEF
VY_CBUF.CHARS_A
      5376**DCL      5376--REDEF
VY_EBUF.CHARS_A
      5677**DCL      5678--REDEF
VY_EFIELD1.CHARS
      5678**DCL      5678--REDEF   11782<<ASSIGN
VY_EFIELD1.COUNT
      5678**DCL     11781<<ASSIGN
VY_EFIELD2.CHARS
      5679**DCL      5679--REDEF
VY_EFIELD3.CHARS
      5680**DCL      5680--REDEF
VY_ERRORS
      5381**DCL      5383--REDEF
VY_ERRORS.CONFLICT_A
      5382**DCL      5383--REDEF
VY_ERRORS.UNSAT_A
      5381**DCL      5382--REDEF
VY_IMAGE_DATA.CPAGE#_A
      5269**DCL      5270--REDEF
VY_IMAGE_DATA.NODE_A$
      5281**DCL      5282--REDEF
VY_IMAGE_DATA.START_A$
      5273**DCL      5274--REDEF
VY_IMAGE_DATA.STOP_A$
      5277**DCL      5278--REDEF
VY_IMAGE_PROC.CPAGE#_A
      5292**DCL      5293--REDEF
VY_IMAGE_PROC.NODE_A$
      5304**DCL      5305--REDEF
VY_IMAGE_PROC.START_A$
      5296**DCL      5297--REDEF
VY_IMAGE_PROC.STOP_A$
PL6.E3A0      #001=VYS$LST File=VYS$LST.:E05TSI                                  WED 07/30/97 09:03 Page:52
      5300**DCL      5301--REDEF
VY_IMAGE_ROS.CPAGE#_A
      5315**DCL      5316--REDEF
VY_IMAGE_ROS.NODE_A$
      5327**DCL      5328--REDEF
VY_IMAGE_ROS.START_A$
      5319**DCL      5320--REDEF
VY_IMAGE_ROS.STOP_A$
      5323**DCL      5324--REDEF
VY_MAP_HDR.CHARS
      5742**DCL      5743--REDEF    5743--REDEF
VY_MAP_LIT_LO_FPT_WRITE.STATION_
      5071**DCL      5071--REDEF
VY_MAP_LIT_LO_FPT_WRITE.V.DVBYTE.VFC#
      5078**DCL      5078--REDEF
VY_MAP_LO_FPT_WRITE.STATION_
      5040**DCL      5040--REDEF
VY_MAP_LO_FPT_WRITE.V.DVBYTE.VFC#
      5047**DCL      5047--REDEF
VY_MBUF.CHARS
      5741**DCL      5742--REDEF    5742--REDEF
VY_M_ALL
      5386**DCL     11618>>IF      11656>>IF      11676>>IF      11691>>IF      11706>>IF      11722>>IF
     11744>>IF      11759>>IF
VY_M_BASE_PTR
      5387**DCL     11619>>ASSIGN  11657>>ASSIGN  11677>>ASSIGN  11692>>ASSIGN  11707>>ASSIGN  11723>>ASSIGN
     11745>>ASSIGN  11760>>ASSIGN
VY_M_FREE
      5386**DCL     11618>>IF      11619>>ASSIGN  11620<<ASSIGN  11620>>ASSIGN  11656>>IF      11657>>ASSIGN
     11658<<ASSIGN  11658>>ASSIGN  11676>>IF      11677>>ASSIGN  11678<<ASSIGN  11678>>ASSIGN  11691>>IF
     11692>>ASSIGN  11693<<ASSIGN  11693>>ASSIGN  11706>>IF      11707>>ASSIGN  11708<<ASSIGN  11708>>ASSIGN
     11722>>IF      11723>>ASSIGN  11724<<ASSIGN  11724>>ASSIGN  11744>>IF      11745>>ASSIGN  11746<<ASSIGN
     11746>>ASSIGN  11759>>IF      11760>>ASSIGN  11761<<ASSIGN  11761>>ASSIGN
VY_M_VECTOR.F
      5110**DCL      5114--REDEF
VY_M_VECTOR_DP.F
PL6.E3A0      #001=VYS$LST File=VYS$LST.:E05TSI                                  WED 07/30/97 09:03 Page:53
      5145**DCL      5149--REDEF
VY_N_START_FID
     11595**DCL     11788--CALL
VY_O.DUPL_ATTCH
      5523**DCL      5527--REDEF
VY_O.MAP_ATTCH
      5511**DCL      5522--REDEF
VY_O.PRIMARY_OPTION
      5505**DCL      5510--REDEF
VY_O.SEV_ATTCH
      5528**DCL      5530--REDEF
VY_OD.DUPL_ATTCH
      5667**DCL      5671--REDEF
VY_OD.MAP_ATTCH
      5655**DCL      5666--REDEF
VY_OD.PRIMARY_OPTION
      5649**DCL      5654--REDEF
VY_OD.SEV_ATTCH
      5672**DCL      5674--REDEF
VY_OL_KEY_BUF.FORM0
      5178**DCL      5181--REDEF    5188--REDEF
VY_ONLINE
      5387**DCL     11783>>IF
VY_OU_HEAD.REC_A
      5366**DCL      5367--REDEF
VY_O_KEY_BUF.FORM0
      5155**DCL      5158--REDEF    5165--REDEF
VY_O_KEY_BUF_L.FORM0
      5201**DCL      5204--REDEF    5211--REDEF
VY_O_KEY_HEAD
      5685**DCL     11754--ASSIGN  11765--ASSIGN  11766>>CALLBLT
VY_PAR_UNWIND
      5736**DCL      5736--REDEF
VY_PASS2_REF.OU.L_START
      5703**DCL      5704--REDEF
VY_PASS2_REF.OU.L_STOP
PL6.E3A0      #001=VYS$LST File=VYS$LST.:E05TSI                                  WED 07/30/97 09:03 Page:54
      5704**DCL      5705--REDEF
VY_PASS2_REF.OU.MAX
      5702**DCL      5703--REDEF
VY_PASS2_REF.OU.SIZE
      5705**DCL      5706--REDEF
VY_PASS2_REF.SAT.COUNT
      5709**DCL      5710--REDEF
VY_PASS2_REF.SAT.ENT_SIZE
      5711**DCL      5712--REDEF
VY_PASS2_REF.SAT.L_START
      5707**DCL      5708--REDEF
VY_PASS2_REF.SAT.L_STOP
      5708**DCL      5709--REDEF
VY_PASS2_REF.SAT.MAX
      5706**DCL      5707--REDEF
VY_PASS2_REF.UNSAT.L_START
      5713**DCL      5714--REDEF
VY_PASS2_REF.UNSAT.L_STOP
      5714**DCL      5715--REDEF
VY_PASS2_REF.UNSAT.L_WHERE
      5715**DCL      5716--REDEF
VY_PASS2_REF.UNSAT.MAX
      5712**DCL      5713--REDEF
VY_PASS2_REF.UNSAT.PAGE#
      5717**DCL      5718--REDEF
VY_PASS2_REF.UNSAT.SIZE
      5716**DCL      5717--REDEF
VY_PROGRAM_BIAS.A
      5384**DCL      5384--REDEF
VY_P_PCB_MAIN.OUT$
      4852**DCL     11790>>ASSIGN
VY_RU_HEAD.DATA_SEGMENT
      5352**DCL      5352--REDEF
VY_RU_HEAD.L
      5348**DCL      5349--REDEF
VY_RU_HEAD.MAP_BITS
PL6.E3A0      #001=VYS$LST File=VYS$LST.:E05TSI                                  WED 07/30/97 09:03 Page:55
      5349**DCL      5351--REDEF
VY_RU_HEAD.PBIT
      5345**DCL      5345--REDEF
VY_RU_HEAD_BUF.DATA_SEGMENT
      5362**DCL      5362--REDEF
VY_RU_HEAD_BUF.L
      5357**DCL      5358--REDEF
VY_RU_HEAD_BUF.MAP_BITS
      5359**DCL      5361--REDEF
VY_RU_HEAD_BUF.PBIT
      5354**DCL      5355--REDEF
VY_R_KEY_BUF.FORM0
      5224**DCL      5228--REDEF    5234--REDEF
VY_SI_KEY_BUF.KEY
      5732**DCL      5732--REDEF
VY_SPC.B$.MINE
      5727**DCL      5728--REDEF
VY_SPC.B$.NAME
      5724**DCL      5724--REDEF
VY_SPC.B$.SKIP
      5726**DCL      5727--REDEF
VY_SPC.B$.VALUE
      5725**DCL      5726--REDEF
VY_SPC.SEG.NAME
      5719**DCL      5720--REDEF
VY_SPC.SEG.VALUE
      5720**DCL      5721--REDEF
VY_TSX0_OVERLAY.H
      5691**DCL      5692--REDEF
VY_UNWIND
      5736**DCL     11796>>UNWIND
WHERE$
     11541**DCL     11657<<ASSIGN  11660<>CALL    11662>>ASSIGN  11663>>ASSIGN  11664>>ASSIGN  11664>>ASSIGN
     11677<<ASSIGN  11680<>CALL    11682>>ASSIGN  11683>>ASSIGN  11692<<ASSIGN  11695<>CALL    11697>>ASSIGN
     11698>>ASSIGN  11707<<ASSIGN  11710<>CALL    11712>>ASSIGN  11713>>ASSIGN  11723<<ASSIGN  11726<>CALL
     11728>>ASSIGN  11729>>ASSIGN  11760<<ASSIGN  11763<>CALL    11765>>ASSIGN  11766>>CALLBLT 11766>>CALLBLT
PL6.E3A0      #001=VYS$LST File=VYS$LST.:E05TSI                                  WED 07/30/97 09:03 Page:56
     11767>>ASSIGN
WKSZ
     11592**DCL     11787<<ASSIGN  11788<>CALL    11789>>ASSIGN
