VERSION E05

PL6.E3A0      #001=VYU$ADD_UTS File=VYU$ADD_UTS.:E05TSI                          WED 07/30/97 09:03 Page:1
        1        1        /*T***********************************************************/
        2        2        /*T*                                                         */
        3        3        /*T* Copyright (c) Bull HN Information Systems Inc., 1997    */
        4        4        /*T*                                                         */
        5        5        /*T***********************************************************/
        6        6        /*X* DMR,PLM=6,IND=4,CSU=2,EXM=0,ECU=2,MOC,DCI=4,CRT=4,CTI=8,CCC  */
        7        7        VYU$ADD_UTS:
        8        8              PROC( DCB#, LEMUR_UTS, COMPILE_UTS )          ALTRET;
        9        9        %INCLUDE VY_INC_C;
       10     9185        %VY$UTS;

              9198    1   /*******************************************************************************
              9199    1   *                                                                              *
              9200    1   *                          VY$UTS                                                 *
              9201    1   *                                                                              *
              9202    1   *******************************************************************************/

              9207    1   DCL 1 VY$UTS           BASED,
              9208    1         2 I,
              9209    1           3 LEMUR    UBIN(36) ALIGNED,
              9210    1           3 COMPILER UBIN(36) ALIGNED,
              9211    1         2 A(0:1) REDEF I UBIN(36);
       11     9214        %P;

              9222    1   /*******************************************************************************
              9223    1   *                                                                              *
              9224    1   *                          PARAMETERS                                              *
              9225    1   *                                                                              *
              9226    1   *******************************************************************************/

       12     9230    1   DCL DCB#            UBIN(36)  ALIGNED;
       13     9231    1   DCL LEMUR_UTS       UBIN(36)  ALIGNED;
       14     9232    1   DCL COMPILE_UTS     UBIN(36)  ALIGNED;
       15     9233        %PTR;

              9241    1   /*******************************************************************************
              9242    1   *                                                                              *
PL6.E3A0      #001=VYU$ADD_UTS File=VYU$ADD_UTS.:E05TSI                          WED 07/30/97 09:03 Page:2
              9243    1   *                          PTR                                                 *
              9244    1   *                                                                              *
              9245    1   *******************************************************************************/

       16     9249    1   DCL P$         PTR  ALIGNED   STATIC/*AUTO*/;
       17     9250    1   DCL Q$         PTR  ALIGNED   STATIC/*AUTO*/;
       18     9251    1   DCL START$     PTR  ALIGNED   STATIC/*AUTO*/;
       19     9252    1   DCL STOP$      PTR  ALIGNED   STATIC/*AUTO*/;
       20     9253        %E;

              9261    1   /*******************************************************************************
              9262    1   *                                                                              *
              9263    1   *                          ENTRY                                                 *
              9264    1   *                                                                              *
              9265    1   *******************************************************************************/

       21     9269    1   DCL VYA$GET         ENTRY(3);
       22     9270    1   DCL VYF$FREE        ENTRY(3);
       23     9271    1   DCL VYU$FIND_UTS    ENTRY(5)       ALTRET;
       24     9272    1   DCL VYU$READ_UTS    ENTRY(4)       ALTRET;
       25     9273    1   DCL VYU$WRITE_UTS    ENTRY(4)       ALTRET;
       26     9274        %U;

              9282    1   /*******************************************************************************
              9283    1   *                                                                              *
              9284    1   *                          UBIN                                                 *
              9285    1   *                                                                              *
              9286    1   *******************************************************************************/

       27     9290    1   DCL UTS_SIZE        UBIN(36)  ALIGNED   STATIC/*AUTO*/;
       28     9291    1   DCL COMP_UTS        UBIN(36)  ALIGNED   STATIC/*AUTO*/;
       29     9292        %FPT_DELREC(FPTN=FPT_DELREC,
       30     9293                          STCLASS=STATIC,
       31     9294                          DCB=M$OF,
       32     9295                          KEY=VY_O_KEY_BUF);
       33     9314    1   DCL M$OF  DCB;
       34     9315    1   DCL M$RF  DCB;
PL6.E3A0      #001=VYU$ADD_UTS File=VYU$ADD_UTS.:E05TSI                          WED 07/30/97 09:03 Page:3
       35     9316        %EJECT;
PL6.E3A0      #001=VYU$ADD_UTS File=VYU$ADD_UTS.:E05TSI                          WED 07/30/97 09:03 Page:4
       36     9317    1         COMP_UTS = COMPILE_UTS;
       37     9318    1         CALL VYU$READ_UTS( 0/*@OF*/, START$, STOP$, UTS_SIZE ) ALTRET(CONTINUE);
       38     9319    1         CALL VYU$FIND_UTS( P$, COMPILE_UTS, 0, START$, STOP$ ) ALTRET(RELEASE_MEM);
       39     9320    1         COMP_UTS = P$ -> VY$UTS.I.COMPILER;
       40     9321    1   RELEASE_MEM:
       41     9322    1         CALL VYF$FREE( 8/*@UTS_DS*/, UTS_SIZE, 0 );
       42     9323    1   CONTINUE:
       43     9324    1         CALL VYU$READ_UTS( DCB#, VY_UTS_START$, VY_UTS_STOP$, UTS_SIZE )       ALTRET(
              9324                  NONE );
       44     9325    1         CALL VYU$FIND_UTS( P$, COMP_UTS, 1, VY_UTS_START$, VY_UTS_STOP$ )  ALTRET(
              9325                  NOT_FOUND_ADD);
       45     9326    1         P$ -> VY$UTS.I.LEMUR = LEMUR_UTS;
       46     9327    1         GOTO WRITE_IT;
       47     9328    1   NOT_FOUND_ADD:
       48     9329    1         VY_UTS_STOP$ = PINCRW( VY_UTS_STOP$, SIZEW( VY$UTS ) );
       49     9330    1   ADD_IT:
       50     9331    1         VY_UTS_STOP$ -> VY$UTS.I.LEMUR = LEMUR_UTS;
       51     9332    1         VY_UTS_STOP$ -> VY$UTS.I.COMPILER = COMP_UTS;
       52     9333    1   WRITE_IT:
       53     9334    1         CALL VYU$WRITE_UTS( DCB#, VY_UTS_START$, VY_UTS_STOP$, UTS_SIZE );
       54     9335    1         RETURN;
       55     9336    1   NONE:
       56     9337              %ALLOCATE(
       57     9338              PTR$=VY_UTS_START$,
       58     9339              TYPE=@UTS_DS,
       59     9340              SIZE="SIZEW(VY$UTS)");
       60     9347    1         VY_UTS_STOP$ = VY_UTS_START$;
       61     9348    1         UTS_SIZE = SIZEW(VY$UTS);
       62     9349    1         GOTO ADD_IT;
       63     9350    1   END VYU$ADD_UTS;

PL6.E3A0      #001=VYU$ADD_UTS File=VYU$ADD_UTS.:E05TSI                          WED 07/30/97 09:03 Page:5
--  Include file information  --

   B$OBJECT_C.:E05TOU  is referenced.
   VY_DCB_R.:E05TOU  cannot be made into a system file and is referenced.
   VY_DATA_R.:E05TOU  cannot be made into a system file and is referenced.
   XU_MACRO_C.:E05TOU  is referenced.
   VY_FIXED_R.:E05TOU  cannot be made into a system file and is referenced.
   CP_6.:E05TOU  cannot be made into a system file and is referenced.
   VY_MACRO_C.:E05TOU  is referenced.
   VY_PERR_C.:E05TOU  is referenced.
   VY_SUBS_C.:E05TOU  is referenced.
   VY_INC_NO_C.:E05TOU  is referenced.
   VY_SWITCH_C.:E05TOU  is referenced.
   VY_INC_C.:E05TOU  is referenced.
   B$JIT_C.:E05TOU  was found in the system file and is never referenced.
   CP_6_C.:E05TOU  was found in the system file and is referenced.
      No diagnostics issued in procedure VYU$ADD_UTS.

   Procedure VYU$ADD_UTS requires 85 words for executable code.
   Procedure VYU$ADD_UTS requires 12 words of local(AUTO) storage.

    No errors detected in file VYU$ADD_UTS.:E05TSI    .

PL6.E3A0      #001=VYU$ADD_UTS File=VYU$ADD_UTS.:E05TSI                          WED 07/30/97 09:03 Page:6

 Object Unit name= VYU$ADD_UTS                                File name= VYU$ADD_UTS.:E05TOU
 UTS= JUL 30 '97 09:03:45.36 WED                              Compiler= PL-6/E31         Sev=      00
 SharedLib= :SHARED_SYSTEM                                    Alt SharedLib=


    ****  Control sections  ****

 Sect   Type Bound  Init  Size OctSiz  Section name(segment info)
    0   DCB   even  none     0      0  M$UC
    1   Data  even  none    16     20  VYU$ADD_UTS
    2   DCB   even  none     0      0  M$OF
    3   DCB   even  none     0      0  M$RF
    4   Proc  even  none    85    125  VYU$ADD_UTS
    5  RoData even  none    19     23  VYU$ADD_UTS

    ****  Entry defs  ****

                              Check   Calling
                             calling  sequence
  Sect OctLoc Primary Altret sequence   type   Parms  Name
     4      0   yes    yes     yes      Std        3  VYU$ADD_UTS

  ****  Entry refs  ****

         Check        Calling
        calling       sequence
Altret sequence SRef   type   Args  Name
 yes     yes           Std       4 VYU$READ_UTS
 yes     yes           Std       5 VYU$FIND_UTS
         yes           Std       3 VYF$FREE
 yes     yes           Std       4 VYU$WRITE_UTS
         yes           Std       3 VYA$GET
                       nStd      0 X66_AUTO_3
                       Std       0 B_CONSPOOL_D
                       nStd      0 X66_ARET
PL6.E3A0      #001=VYU$ADD_UTS File=VYU$ADD_UTS.:E05TSI                          WED 07/30/97 09:03 Page:7

  ****  Data refs  ****

  Flags:  r = read only, s = secondary
Flgs Name                             Flgs Name                             Flgs Name
     M$UC                                  VY_O_KEY_BUF                          VY_ERRORS
     VY_M_FREE                             VY_M_ALL                              VY_M_BASE_PTR
     VY_PAR_UNWIND                         VY_UTS_START$                         VY_UTS_STOP$
     M$OF                                  M$RF                                  B_VECTNIL

  ****  Segment refs  ****

  Flags:  r = read only, s = secondary
Flgs Name                             Flgs Name                             Flgs Name
     ISSID                                 NULLSID
PL6.E3A0      #001=VYU$ADD_UTS File=VYU$ADD_UTS.:E05TSI                          WED 07/30/97 09:03 Page:8


        1        1        /*T***********************************************************/
        2        2        /*T*                                                         */
        3        3        /*T* Copyright (c) Bull HN Information Systems Inc., 1997    */
        4        4        /*T*                                                         */
        5        5        /*T***********************************************************/
        6        6        /*X* DMR,PLM=6,IND=4,CSU=2,EXM=0,ECU=2,MOC,DCI=4,CRT=4,CTI=8,CCC  */
        7        7        VYU$ADD_UTS:
        8        8              PROC( DCB#, LEMUR_UTS, COMPILE_UTS )          ALTRET;

      8  4 000000   000000 700200 xent  VYU$ADD_UTS  TSX0  ! X66_AUTO_3
         4 000001   000014 000003                    ZERO    12,3

        9        9        %INCLUDE VY_INC_C;
       10     9185        %VY$UTS;

              9198    1   /*******************************************************************************
              9199    1   *                                                                              *
              9200    1   *                          VY$UTS                                                 *
              9201    1   *                                                                              *
              9202    1   *******************************************************************************/

              9207    1   DCL 1 VY$UTS           BASED,
              9208    1         2 I,
              9209    1           3 LEMUR    UBIN(36) ALIGNED,
              9210    1           3 COMPILER UBIN(36) ALIGNED,
              9211    1         2 A(0:1) REDEF I UBIN(36);
       11     9214        %P;

              9222    1   /*******************************************************************************
              9223    1   *                                                                              *
              9224    1   *                          PARAMETERS                                             *
              9225    1   *                                                                              *
              9226    1   *******************************************************************************/

       12     9230    1   DCL DCB#            UBIN(36)  ALIGNED;
       13     9231    1   DCL LEMUR_UTS       UBIN(36)  ALIGNED;
PL6.E3A0      #001=VYU$ADD_UTS File=VYU$ADD_UTS.:E05TSI                          WED 07/30/97 09:03 Page:9
       14     9232    1   DCL COMPILE_UTS     UBIN(36)  ALIGNED;
       15     9233        %PTR;

              9241    1   /*******************************************************************************
              9242    1   *                                                                              *
              9243    1   *                          PTR                                                 *
              9244    1   *                                                                              *
              9245    1   *******************************************************************************/

       16     9249    1   DCL P$         PTR  ALIGNED   STATIC/*AUTO*/;
       17     9250    1   DCL Q$         PTR  ALIGNED   STATIC/*AUTO*/;
       18     9251    1   DCL START$     PTR  ALIGNED   STATIC/*AUTO*/;
       19     9252    1   DCL STOP$      PTR  ALIGNED   STATIC/*AUTO*/;
       20     9253        %E;

              9261    1   /*******************************************************************************
              9262    1   *                                                                              *
              9263    1   *                          ENTRY                                                 *
              9264    1   *                                                                              *
              9265    1   *******************************************************************************/

       21     9269    1   DCL VYA$GET         ENTRY(3);
       22     9270    1   DCL VYF$FREE        ENTRY(3);
       23     9271    1   DCL VYU$FIND_UTS    ENTRY(5)       ALTRET;
       24     9272    1   DCL VYU$READ_UTS    ENTRY(4)       ALTRET;
       25     9273    1   DCL VYU$WRITE_UTS    ENTRY(4)       ALTRET;
       26     9274        %U;

              9282    1   /*******************************************************************************
              9283    1   *                                                                              *
              9284    1   *                          UBIN                                                 *
              9285    1   *                                                                              *
              9286    1   *******************************************************************************/

       27     9290    1   DCL UTS_SIZE        UBIN(36)  ALIGNED   STATIC/*AUTO*/;
       28     9291    1   DCL COMP_UTS        UBIN(36)  ALIGNED   STATIC/*AUTO*/;
       29     9292        %FPT_DELREC(FPTN=FPT_DELREC,
PL6.E3A0      #001=VYU$ADD_UTS File=VYU$ADD_UTS.:E05TSI                          WED 07/30/97 09:03 Page:10
       30     9293                          STCLASS=STATIC,
       31     9294                          DCB=M$OF,
       32     9295                          KEY=VY_O_KEY_BUF);
       33     9314    1   DCL M$OF  DCB;
       34     9315    1   DCL M$RF  DCB;
       35     9316        %EJECT;
PL6.E3A0      #001=VYU$ADD_UTS File=VYU$ADD_UTS.:E05TSI                          WED 07/30/97 09:03 Page:11
       36     9317    1         COMP_UTS = COMPILE_UTS;

   9317  4 000002   200005 470500                    LDP0    @COMPILE_UTS,,AUTO
         4 000003   000000 235100                    LDA     0,,PR0
         4 000004   000005 755000 1                  STA     COMP_UTS

       37     9318    1         CALL VYU$READ_UTS( 0/*@OF*/, START$, STOP$, UTS_SIZE ) ALTRET(CONTINUE);

   9318  4 000005   000000 630400 5                  EPPR0   0
         4 000006   000022 631400 xsym               EPPR1   B_VECTNIL+18
         4 000007   000000 701000 xent               TSX1    VYU$READ_UTS
         4 000010   000033 702000 4                  TSX2    CONTINUE

       38     9319    1         CALL VYU$FIND_UTS( P$, COMPILE_UTS, 0, START$, STOP$ ) ALTRET(RELEASE_MEM);

   9319  4 000011   000002 236000 5                  LDQ     2
         4 000012   200012 756100                    STQ     @COMPILE_UTS+5,,AUTO
         4 000013   000000 237000 5                  LDAQ    0
         4 000014   200010 757100                    STAQ    @COMPILE_UTS+3,,AUTO
         4 000015   200005 236100                    LDQ     @COMPILE_UTS,,AUTO
         4 000016   000004 235000 5                  LDA     4
         4 000017   200006 757100                    STAQ    @COMPILE_UTS+1,,AUTO
         4 000020   200006 630500                    EPPR0   @COMPILE_UTS+1,,AUTO
         4 000021   000023 631400 xsym               EPPR1   B_VECTNIL+19
         4 000022   000000 701000 xent               TSX1    VYU$FIND_UTS
         4 000023   000027 702000 4                  TSX2    RELEASE_MEM

       39     9320    1         COMP_UTS = P$ -> VY$UTS.I.COMPILER;

   9320  4 000024   000000 470400 1                  LDP0    P$
         4 000025   000001 235100                    LDA     1,,PR0
         4 000026   000005 755000 1                  STA     COMP_UTS

       40     9321    1   RELEASE_MEM:
       41     9322    1         CALL VYF$FREE( 8/*@UTS_DS*/, UTS_SIZE, 0 );

   9322  4 000027   000005 630400 5     RELEASE_MEM  EPPR0   5
PL6.E3A0      #001=VYU$ADD_UTS File=VYU$ADD_UTS.:E05TSI                          WED 07/30/97 09:03 Page:12
         4 000030   000021 631400 xsym               EPPR1   B_VECTNIL+17
         4 000031   000000 701000 xent               TSX1    VYF$FREE
         4 000032   000000 011000                    NOP     0

       42     9323    1   CONTINUE:
       43     9324    1         CALL VYU$READ_UTS( DCB#, VY_UTS_START$, VY_UTS_STOP$, UTS_SIZE )      ALTRET(
              9324                  NONE );

   9324  4 000033   000010 237000 5     CONTINUE     LDAQ    8
         4 000034   200010 757100                    STAQ    @COMPILE_UTS+3,,AUTO
         4 000035   000012 236000 5                  LDQ     10
         4 000036   200003 235100                    LDA     @DCB#,,AUTO
         4 000037   200006 757100                    STAQ    @COMPILE_UTS+1,,AUTO
         4 000040   200006 630500                    EPPR0   @COMPILE_UTS+1,,AUTO
         4 000041   000022 631400 xsym               EPPR1   B_VECTNIL+18
         4 000042   000000 701000 xent               TSX1    VYU$READ_UTS
         4 000043   000101 702000 4                  TSX2    NONE

       44     9325    1         CALL VYU$FIND_UTS( P$, COMP_UTS, 1, VY_UTS_START$, VY_UTS_STOP$ )  ALTRET(
              9325                  NOT_FOUND_ADD);

   9325  4 000044   000013 630400 5                  EPPR0   11
         4 000045   000023 631400 xsym               EPPR1   B_VECTNIL+19
         4 000046   000000 701000 xent               TSX1    VYU$FIND_UTS
         4 000047   000055 702000 4                  TSX2    NOT_FOUND_ADD

       45     9326    1         P$ -> VY$UTS.I.LEMUR = LEMUR_UTS;

   9326  4 000050   200004 470500                    LDP0    @LEMUR_UTS,,AUTO
         4 000051   000000 471400 1                  LDP1    P$
         4 000052   000000 235100                    LDA     0,,PR0
         4 000053   100000 755100                    STA     0,,PR1

       46     9327    1         GOTO WRITE_IT;

   9327  4 000054   000067 710000 4                  TRA     WRITE_IT

PL6.E3A0      #001=VYU$ADD_UTS File=VYU$ADD_UTS.:E05TSI                          WED 07/30/97 09:03 Page:13
       47     9328    1   NOT_FOUND_ADD:
       48     9329    1         VY_UTS_STOP$ = PINCRW( VY_UTS_STOP$, SIZEW( VY$UTS ) );

   9329  4 000055   000000 236000 xsym  NOT_FOUND_A* LDQ     VY_UTS_STOP$
         4 000056   000002 036003                    ADLQ    2,DU
         4 000057   000000 756000 xsym               STQ     VY_UTS_STOP$

       49     9330    1   ADD_IT:
       50     9331    1         VY_UTS_STOP$ -> VY$UTS.I.LEMUR = LEMUR_UTS;

   9331  4 000060   200004 470500       ADD_IT       LDP0    @LEMUR_UTS,,AUTO
         4 000061   000000 471400 xsym               LDP1    VY_UTS_STOP$
         4 000062   000000 235100                    LDA     0,,PR0
         4 000063   100000 755100                    STA     0,,PR1

       51     9332    1         VY_UTS_STOP$ -> VY$UTS.I.COMPILER = COMP_UTS;

   9332  4 000064   000000 471400 xsym               LDP1    VY_UTS_STOP$
         4 000065   000005 235000 1                  LDA     COMP_UTS
         4 000066   100001 755100                    STA     1,,PR1

       52     9333    1   WRITE_IT:
       53     9334    1         CALL VYU$WRITE_UTS( DCB#, VY_UTS_START$, VY_UTS_STOP$, UTS_SIZE );

   9334  4 000067   000010 237000 5     WRITE_IT     LDAQ    8
         4 000070   200010 757100                    STAQ    @COMPILE_UTS+3,,AUTO
         4 000071   000012 236000 5                  LDQ     10
         4 000072   200003 235100                    LDA     @DCB#,,AUTO
         4 000073   200006 757100                    STAQ    @COMPILE_UTS+1,,AUTO
         4 000074   200006 630500                    EPPR0   @COMPILE_UTS+1,,AUTO
         4 000075   000022 631400 xsym               EPPR1   B_VECTNIL+18
         4 000076   000000 701000 xent               TSX1    VYU$WRITE_UTS
         4 000077   000000 011000                    NOP     0

       54     9335    1         RETURN;

   9335  4 000100   000000 702200 xent               TSX2  ! X66_ARET
PL6.E3A0      #001=VYU$ADD_UTS File=VYU$ADD_UTS.:E05TSI                          WED 07/30/97 09:03 Page:14

       55     9336    1   NONE:
       56     9337              %ALLOCATE(
       57     9338              PTR$=VY_UTS_START$,
       58     9339              TYPE=@UTS_DS,
       59     9340              SIZE="SIZEW(VY$UTS)");

   9341  4 000101   000010 236000 xsym  NONE         LDQ     VY_M_ALL+8
         4 000102   000010 136000 xsym               SBLQ    VY_M_FREE+8
         4 000103   000002 116007                    CMPQ    2,DL
         4 000104   000114 604000 4                  TMI     s:9345

   9342  4 000105   000010 236000 xsym               LDQ     VY_M_FREE+8
         4 000106   000022 736000                    QLS     18
         4 000107   000010 036000 xsym               ADLQ    VY_M_BASE_PTR+8
         4 000110   000000 756000 xsym               STQ     VY_UTS_START$

   9343  4 000111   000002 236007                    LDQ     2,DL
         4 000112   000010 056000 xsym               ASQ     VY_M_FREE+8

   9344  4 000113   000120 710000 4                  TRA     s:9347

   9345  4 000114   000020 630400 5                  EPPR0   16
         4 000115   000021 631400 xsym               EPPR1   B_VECTNIL+17
         4 000116   000000 701000 xent               TSX1    VYA$GET
         4 000117   000000 011000                    NOP     0

       60     9347    1         VY_UTS_STOP$ = VY_UTS_START$;

   9347  4 000120   000000 236000 xsym               LDQ     VY_UTS_START$
         4 000121   000000 756000 xsym               STQ     VY_UTS_STOP$

       61     9348    1         UTS_SIZE = SIZEW(VY$UTS);

   9348  4 000122   000002 235007                    LDA     2,DL
         4 000123   000004 755000 1                  STA     UTS_SIZE

PL6.E3A0      #001=VYU$ADD_UTS File=VYU$ADD_UTS.:E05TSI                          WED 07/30/97 09:03 Page:15
       62     9349    1         GOTO ADD_IT;

   9349  4 000124   000060 710000 4                  TRA     ADD_IT
       63     9350    1   END VYU$ADD_UTS;

PL6.E3A0      #001=VYU$ADD_UTS File=VYU$ADD_UTS.:E05TSI                          WED 07/30/97 09:03 Page:16
--  Include file information  --

   B$OBJECT_C.:E05TOU  is referenced.
   VY_DCB_R.:E05TOU  cannot be made into a system file and is referenced.
   VY_DATA_R.:E05TOU  cannot be made into a system file and is referenced.
   XU_MACRO_C.:E05TOU  is referenced.
   VY_FIXED_R.:E05TOU  cannot be made into a system file and is referenced.
   CP_6.:E05TOU  cannot be made into a system file and is referenced.
   VY_MACRO_C.:E05TOU  is referenced.
   VY_PERR_C.:E05TOU  is referenced.
   VY_SUBS_C.:E05TOU  is referenced.
   VY_INC_NO_C.:E05TOU  is referenced.
   VY_SWITCH_C.:E05TOU  is referenced.
   VY_INC_C.:E05TOU  is referenced.
   B$JIT_C.:E05TOU  was found in the system file and is never referenced.
   CP_6_C.:E05TOU  was found in the system file and is referenced.
      No diagnostics issued in procedure VYU$ADD_UTS.
PL6.E3A0      #001=VYU$ADD_UTS File=VYU$ADD_UTS.:E05TSI                          WED 07/30/97 09:03 Page:17

 **** Variables and constants ****

  ****  Section 001  Data  VYU$ADD_UTS

  ****  Scalars and arrays  ****
OctLoc.c.b A Datatyp(siz) R M Lvl/name                 OctLoc.c.b A Datatyp(siz) R M Lvl/name

     5-0-0/w UBIN        r     1 COMP_UTS                   6-0-0/d STRC(360)   r     1 FPT_DELREC
     0-0-0/w PTR         r     1 P$                         2-0-0/w PTR         r     1 START$
     3-0-0/w PTR         r     1 STOP$                      4-0-0/w UBIN        r     1 UTS_SIZE

  ****  Auto variables  ****

  ****  Scalars and arrays  ****
OctLoc.c.b A Datatyp(siz) R M Lvl/name                 OctLoc.c.b A Datatyp(siz) R M Lvl/name

     5-0-0/w PTR         r     1 @COMPILE_UTS               3-0-0/w PTR         r     1 @DCB#
     4-0-0/w PTR         r     1 @LEMUR_UTS                *0-0-0/w UBIN        r     1 COMPILE_UTS
    *0-0-0/w UBIN        r     1 DCB#                      *0-0-0/w UBIN        r     1 LEMUR_UTS

  ****  SYMREF variables  ****

  ****  Scalars and arrays  ****
OctLoc.c.b A Datatyp(siz) R M Lvl/name                 OctLoc.c.b A Datatyp(siz) R M Lvl/name

     0-0-0/w SBIN        r     1 VY_M_ALL(0:8)
     0-0-0/w PTR         r     1 VY_M_BASE_PTR(0:8)
     0-0-0/w SBIN        r     1 VY_M_FREE(0:8)
     0-0-0/w STRC(4617)  r     1 VY_O_KEY_BUF               0-0-0/w PTR         r     1 VY_UTS_START$
     0-0-0/w PTR         r     1 VY_UTS_STOP$

  ****  BASED and DCB variables  ****

  ****  Scalars and arrays  ****
OctLoc.c.b A Datatyp(siz) R M Lvl/name                 OctLoc.c.b A Datatyp(siz) R M Lvl/name

     0-0-0N  NULL        r     1 M$OF                       0-0-0/w STRC(72)    r     1 VY$UTS
PL6.E3A0      #001=VYU$ADD_UTS File=VYU$ADD_UTS.:E05TSI                          WED 07/30/97 09:03 Page:18


   Procedure VYU$ADD_UTS requires 85 words for executable code.
   Procedure VYU$ADD_UTS requires 12 words of local(AUTO) storage.

    No errors detected in file VYU$ADD_UTS.:E05TSI    .
PL6.E3A0      #001=VYU$ADD_UTS File=VYU$ADD_UTS.:E05TSI                          WED 07/30/97 09:03 Page:19
          *** CROSS REFERENCE LISTING ***
**     DENOTES     IDENTIFIER DEFINITION
<<                 IDENTIFIER'S VALUE SET
>>                 IDENTIFIER'S VALUE USED
<>                 IDENTIFIER SET AND/OR USED
--                 IDENTIFIER REFERENCED
PL6.E3A0      #001=VYU$ADD_UTS File=VYU$ADD_UTS.:E05TSI                          WED 07/30/97 09:03 Page:20
          MINI XREF LISTING

ADD_IT
      9331**LABEL    9349--GOTO
COMPILE_UTS
      9232**DCL         7--PROC     9317>>ASSIGN   9319<>CALL
COMP_UTS
      9291**DCL      9317<<ASSIGN   9320<<ASSIGN   9325<>CALL     9332>>ASSIGN
CONTINUE
      9324**LABEL    9318--CALLALT
DCB#
      9230**DCL         7--PROC     9324<>CALL     9334<>CALL
FPT_DELREC.V
      9309**DCL      9306--DCLINIT
LEMUR_UTS
      9231**DCL         7--PROC     9326>>ASSIGN   9331>>ASSIGN
NONE
      9341**LABEL    9324--CALLALT
NOT_FOUND_ADD
      9329**LABEL    9325--CALLALT
P$
      9249**DCL      9319<>CALL     9320>>ASSIGN   9325<>CALL     9326>>ASSIGN
RELEASE_MEM
      9322**LABEL    9319--CALLALT
START$
      9251**DCL      9318<>CALL     9319<>CALL
STOP$
      9252**DCL      9318<>CALL     9319<>CALL
UTS_SIZE
      9290**DCL      9318<>CALL     9322<>CALL     9324<>CALL     9334<>CALL     9348<<ASSIGN
VY$UTS
      9207**DCL      9329--ASSIGN   9341--IF       9343--ASSIGN   9345--CALL     9348--ASSIGN
VY$UTS.I
      9208**DCL      9211--REDEF
PL6.E3A0      #001=VYU$ADD_UTS File=VYU$ADD_UTS.:E05TSI                          WED 07/30/97 09:03 Page:21
VY$UTS.I.COMPILER
      9210**DCL      9320>>ASSIGN   9332<<ASSIGN
VY$UTS.I.LEMUR
      9209**DCL      9326<<ASSIGN   9331<<ASSIGN
VYA$GET
      9269**DCL-ENT  9345--CALL
VYF$FREE
      9270**DCL-ENT  9322--CALL
VYU$FIND_UTS
      9271**DCL-ENT  9319--CALL     9325--CALL
VYU$READ_UTS
      9272**DCL-ENT  9318--CALL     9324--CALL
VYU$WRITE_UTS
      9273**DCL-ENT  9334--CALL
VY_BIAS.A
      5385**DCL      5385--REDEF
VY_CBUF.CHARS_A
      5376**DCL      5376--REDEF
VY_EBUF.CHARS_A
      5677**DCL      5678--REDEF
VY_EFIELD1.CHARS
      5678**DCL      5678--REDEF
VY_EFIELD2.CHARS
      5679**DCL      5679--REDEF
VY_EFIELD3.CHARS
      5680**DCL      5680--REDEF
VY_ERRORS
      5381**DCL      5383--REDEF
VY_ERRORS.CONFLICT_A
      5382**DCL      5383--REDEF
VY_ERRORS.UNSAT_A
      5381**DCL      5382--REDEF
VY_IMAGE_DATA.CPAGE#_A
      5269**DCL      5270--REDEF
VY_IMAGE_DATA.NODE_A$
      5281**DCL      5282--REDEF
PL6.E3A0      #001=VYU$ADD_UTS File=VYU$ADD_UTS.:E05TSI                          WED 07/30/97 09:03 Page:22
VY_IMAGE_DATA.START_A$
      5273**DCL      5274--REDEF
VY_IMAGE_DATA.STOP_A$
      5277**DCL      5278--REDEF
VY_IMAGE_PROC.CPAGE#_A
      5292**DCL      5293--REDEF
VY_IMAGE_PROC.NODE_A$
      5304**DCL      5305--REDEF
VY_IMAGE_PROC.START_A$
      5296**DCL      5297--REDEF
VY_IMAGE_PROC.STOP_A$
      5300**DCL      5301--REDEF
VY_IMAGE_ROS.CPAGE#_A
      5315**DCL      5316--REDEF
VY_IMAGE_ROS.NODE_A$
      5327**DCL      5328--REDEF
VY_IMAGE_ROS.START_A$
      5319**DCL      5320--REDEF
VY_IMAGE_ROS.STOP_A$
      5323**DCL      5324--REDEF
VY_MAP_HDR.CHARS
      5742**DCL      5743--REDEF    5743--REDEF
VY_MAP_LIT_LO_FPT_WRITE.STATION_
      5071**DCL      5071--REDEF
VY_MAP_LIT_LO_FPT_WRITE.V.DVBYTE.VFC#
      5078**DCL      5078--REDEF
VY_MAP_LO_FPT_WRITE.STATION_
      5040**DCL      5040--REDEF
VY_MAP_LO_FPT_WRITE.V.DVBYTE.VFC#
      5047**DCL      5047--REDEF
VY_MBUF.CHARS
      5741**DCL      5742--REDEF    5742--REDEF
VY_M_ALL
      5386**DCL      9341>>IF
VY_M_BASE_PTR
      5387**DCL      9342>>ASSIGN
PL6.E3A0      #001=VYU$ADD_UTS File=VYU$ADD_UTS.:E05TSI                          WED 07/30/97 09:03 Page:23
VY_M_FREE
      5386**DCL      9341>>IF       9342>>ASSIGN   9343<<ASSIGN   9343>>ASSIGN
VY_M_VECTOR.F
      5110**DCL      5114--REDEF
VY_M_VECTOR_DP.F
      5145**DCL      5149--REDEF
VY_O.DUPL_ATTCH
      5523**DCL      5527--REDEF
VY_O.MAP_ATTCH
      5511**DCL      5522--REDEF
VY_O.PRIMARY_OPTION
      5505**DCL      5510--REDEF
VY_O.SEV_ATTCH
      5528**DCL      5530--REDEF
VY_OD.DUPL_ATTCH
      5667**DCL      5671--REDEF
VY_OD.MAP_ATTCH
      5655**DCL      5666--REDEF
VY_OD.PRIMARY_OPTION
      5649**DCL      5654--REDEF
VY_OD.SEV_ATTCH
      5672**DCL      5674--REDEF
VY_OL_KEY_BUF.FORM0
      5178**DCL      5181--REDEF    5188--REDEF
VY_OU_HEAD.REC_A
      5366**DCL      5367--REDEF
VY_O_KEY_BUF
      5154**DCL      9306--DCLINIT  9307--DCLINIT
VY_O_KEY_BUF.FORM0
      5155**DCL      5158--REDEF    5165--REDEF
VY_O_KEY_BUF_L.FORM0
      5201**DCL      5204--REDEF    5211--REDEF
VY_PAR_UNWIND
      5736**DCL      5736--REDEF
VY_PASS2_REF.OU.L_START
      5703**DCL      5704--REDEF
PL6.E3A0      #001=VYU$ADD_UTS File=VYU$ADD_UTS.:E05TSI                          WED 07/30/97 09:03 Page:24
VY_PASS2_REF.OU.L_STOP
      5704**DCL      5705--REDEF
VY_PASS2_REF.OU.MAX
      5702**DCL      5703--REDEF
VY_PASS2_REF.OU.SIZE
      5705**DCL      5706--REDEF
VY_PASS2_REF.SAT.COUNT
      5709**DCL      5710--REDEF
VY_PASS2_REF.SAT.ENT_SIZE
      5711**DCL      5712--REDEF
VY_PASS2_REF.SAT.L_START
      5707**DCL      5708--REDEF
VY_PASS2_REF.SAT.L_STOP
      5708**DCL      5709--REDEF
VY_PASS2_REF.SAT.MAX
      5706**DCL      5707--REDEF
VY_PASS2_REF.UNSAT.L_START
      5713**DCL      5714--REDEF
VY_PASS2_REF.UNSAT.L_STOP
      5714**DCL      5715--REDEF
VY_PASS2_REF.UNSAT.L_WHERE
      5715**DCL      5716--REDEF
VY_PASS2_REF.UNSAT.MAX
      5712**DCL      5713--REDEF
VY_PASS2_REF.UNSAT.PAGE#
      5717**DCL      5718--REDEF
VY_PASS2_REF.UNSAT.SIZE
      5716**DCL      5717--REDEF
VY_PROGRAM_BIAS.A
      5384**DCL      5384--REDEF
VY_RU_HEAD.DATA_SEGMENT
      5352**DCL      5352--REDEF
VY_RU_HEAD.L
      5348**DCL      5349--REDEF
VY_RU_HEAD.MAP_BITS
      5349**DCL      5351--REDEF
PL6.E3A0      #001=VYU$ADD_UTS File=VYU$ADD_UTS.:E05TSI                          WED 07/30/97 09:03 Page:25
VY_RU_HEAD.PBIT
      5345**DCL      5345--REDEF
VY_RU_HEAD_BUF.DATA_SEGMENT
      5362**DCL      5362--REDEF
VY_RU_HEAD_BUF.L
      5357**DCL      5358--REDEF
VY_RU_HEAD_BUF.MAP_BITS
      5359**DCL      5361--REDEF
VY_RU_HEAD_BUF.PBIT
      5354**DCL      5355--REDEF
VY_R_KEY_BUF.FORM0
      5224**DCL      5228--REDEF    5234--REDEF
VY_SI_KEY_BUF.KEY
      5732**DCL      5732--REDEF
VY_SPC.B$.MINE
      5727**DCL      5728--REDEF
VY_SPC.B$.NAME
      5724**DCL      5724--REDEF
VY_SPC.B$.SKIP
      5726**DCL      5727--REDEF
VY_SPC.B$.VALUE
      5725**DCL      5726--REDEF
VY_SPC.SEG.NAME
      5719**DCL      5720--REDEF
VY_SPC.SEG.VALUE
      5720**DCL      5721--REDEF
VY_TSX0_OVERLAY.H
      5691**DCL      5692--REDEF
VY_UTS_START$
      5738**DCL      9324<>CALL     9325<>CALL     9334<>CALL     9342<<ASSIGN   9345<>CALL     9347>>ASSIGN
VY_UTS_STOP$
      5738**DCL      9324<>CALL     9325<>CALL     9329<<ASSIGN   9329>>ASSIGN   9331>>ASSIGN   9332>>ASSIGN
      9334<>CALL     9347<<ASSIGN
WRITE_IT
      9334**LABEL    9327--GOTO
