VERSION E05

PL6.E3A0      #001=VYU$CHK_TARGET File=VYU$CHK_TARGET.:E05TSI                    WED 07/30/97 09:04 Page:1
        1        1        /*M* VYU$CHK_TARGET - Make sure the target is ok to copy/move to. */
        2        2        /*T***********************************************************/
        3        3        /*T*                                                         */
        4        4        /*T* Copyright (c) Bull HN Information Systems Inc., 1997    */
        5        5        /*T*                                                         */
        6        6        /*T***********************************************************/
        7        7        /*X* PLM=4,STI=0,IND=4,CTI=3,DCI=4,ECI=4,CSI=0,THI=0,DTI=0,ENI=4,
        8        8             CLM=0,SQB,NTB,MOC,CCI=3,NLB,MCL=0,EDMC*/
        9        9
       10       10        /*F*
       11       11        NAME: VYU$CHK_TARGET
       12       12        PURPOSE: Make sure the operation is ok.
       13       13        DESCRIPTION:
       14       14            Check some things to make sure it is ok to do the particular operation.
       15       15            It may be necessary to prepare the target.  This routine altrets if
       16       16            something is not Ok.
       17       17        */
       18       18
       19       19        /*E*
       20       20        ERROR: VYU-E$OU_SEV_LEV_VY-0
       21       21        MESSAGE: Severity level = %U1 in object unit %U2; in file %U3.
       22       22        */
       23       23
       24       24        /*E*
       25       25        ERROR: VYU-E$OU_UTS_CONF_VY-0
       26       26        MESSAGE: The compile time of object unit %U1 in file %U2
       27       27                 is the same as that of an object unit in the target file.
       28       28                 They may not both exist in the same library.
       29       29        */
       30       30
       31       31        /*E*
       32       32        ERROR: VYU-E$UNIT_EXISTS_VY-0
       33       33        MESSAGE: Object unit %U1 exists; 'ADDTO' illegal.
       34       34        */
       35       35
       36       36        %EJECT;
PL6.E3A0      #001=VYU$CHK_TARGET File=VYU$CHK_TARGET.:E05TSI                    WED 07/30/97 09:04 Page:2
       37       37        VYU$CHK_TARGET: PROC ALTRET;
       38       38        %INCLUDE VY_INC_C;
       39     9214
       40     9215    1   DCL M$RF DCB;
       41     9216        %E;

              9224    1   /*******************************************************************************
              9225    1   *                                                                              *
              9226    1   *                          ENTRY                                                 *
              9227    1   *                                                                              *
              9228    1   *******************************************************************************/

       42     9232        %ENTRIES_IO;
       43     9241        %ENTRIES;
       44     9256    1   DCL VYO$DEL_UNIT ENTRY(6);
       45     9257        %U;

              9265    1   /*******************************************************************************
              9266    1   *                                                                              *
              9267    1   *                          UBIN                                                 *
              9268    1   *                                                                              *
              9269    1   *******************************************************************************/

       46     9273    1   DCL NUMB1 UBIN;
       47     9274        %INCLUDE VY_PSUBS_C;
       48     9335        %FPT_READ( DCB=M$RF, KEYS=YES );
       49     9374        %B$OUHEAD( NAME=HEAD_REC, STCLASS="" );
       50     9492    1   DCL 1 UTS_KEY,
       51     9493    1         2 L UBIN BYTE CALIGNED,
       52     9494    1         2 O777 BIT(9) CALIGNED,
       53     9495    1         2 UTS UBIN WORD CALIGNED,
       54     9496    1         2 * CHAR(250) CALIGNED;
       55     9497        %EJECT;
PL6.E3A0      #001=VYU$CHK_TARGET File=VYU$CHK_TARGET.:E05TSI                    WED 07/30/97 09:04 Page:3
       56     9498        /*D*
       57     9499            First check the OU severity to be sure we don't copy a bad one over
       58     9500            a good one.
       59     9501        */
       60     9502
       61     9503    1       IF VY_O.PRIMARY_OPTION.SEVERITY < VY_OU_HEAD.SEVLEV
       62     9504    2       THEN DO;
       63     9505    2           NUMB1 = VY_OU_HEAD.SEVLEV;
       64     9506                %NUMBER( NUM1=NUMB1 );
       65     9523    2           VY_EFIELD2 = VY_OK.OUNAME;
       66     9524    2           VY_EFIELD3 = VY_OK.FILE.OFNAME;
       67     9525                %SCREAM( ERR#=%E$OU_SEV_LEV_VY, MID="'U'", LEVEL=%@E$S_VY );
       68     9528    2           ALTRETURN;
       69     9529    2           END;
       70     9530
       71     9531        /*D*
       72     9532            Now check to see if the OU already exists in the target file by looking
       73     9533            for its head record.  If it does, delete it if we are supposed to,
       74     9534            otherwise scream and quit.
       75     9535        */
       76     9536
       77     9537    1       FPT_READ.BUF_ = VECTOR(HEAD_REC);
       78     9538    1       FPT_READ.KEY_ = VECTOR(VY_O_KEY_BUF);
       79     9539    1       FPT_READ.V.KEYR# = '0'B;
       80     9540    1       CALL M$READ( FPT_READ ) ALTRET( EXIT#); /* Try to read head reocord */
       81     9541    2       DO CASE( VY_ON_OVER );
       82     9542    2       CASE( 3/*@C_INTO_KEY_WORD*/ );
       83     9543    2           CALL VYO$DEL_UNIT( 1/*@RF*/,
       84     9544    2              '1'B,
       85     9545    2              '1'B,
       86     9546    2              '0'B,
       87     9547    2              HEAD_REC.UTS,
       88     9548    2              0 );
       89     9549    2       CASE( ELSE );
       90     9550    2           VY_EFIELD1 = VY_OK.OUNAME;
       91     9551                %SCREAM( ERR#=%E$UNIT_EXISTS_VY, MID="'U'", LEVEL=%@E$S_VY );
       92     9554    2           ALTRETURN;
PL6.E3A0      #001=VYU$CHK_TARGET File=VYU$CHK_TARGET.:E05TSI                    WED 07/30/97 09:04 Page:4
       93     9555    2           END; /* Do case( VY_ON_OVER ); */
       94     9556    1   EXIT#:
       95     9557
       96     9558        /*D*
       97     9559            Now make sure that there is not already an OU in the target file
       98     9560            with a different head record but the same UTS.  If so, one of them
       99     9561            has to be recompiled because there just is no way to put them both
      100     9562            in the same file since the keys are all based on the UTS.
      101     9563        */
      102     9564
      103     9565    1       UTS_KEY.L = 5;
      104     9566    1       UTS_KEY.O777 = '777'O;
      105     9567    1       UTS_KEY.UTS = VY_OU_HEAD.UTS;
      106     9568    1       FPT_READ.KEY_ = VECTOR(UTS_KEY);
      107     9569    1       FPT_READ.V.KEYR# = '1'B;
      108     9570    1       CALL M$READ( FPT_READ ) ALTRET( IGNORE_ALT );
      109     9571    1   IGNORE_ALT: ;
      110     9572    1       IF UTS_KEY.L ~= 0 AND
      111     9573    1          UTS_KEY.UTS = VY_OU_HEAD.UTS
      112     9574    2       THEN DO;
      113     9575    2           VY_EFIELD1 = VY_OK.OUNAME;
      114     9576    2           VY_EFIELD2 = VY_OK.FILE.OFNAME;
      115     9577                %SCREAM( ERR#=%E$OU_UTS_CONF_VY, MID="'U'", LEVEL=%@E$S_VY );
      116     9580    2           ALTRETURN;
      117     9581    2           END;
      118     9582
      119     9583    1   END VYU$CHK_TARGET; /* Proc */

PL6.E3A0      #001=VYU$CHK_TARGET File=VYU$CHK_TARGET.:E05TSI                    WED 07/30/97 09:04 Page:5
--  Include file information  --

   VY_PSUBS_C.:E05TOU  is referenced.
   B$OBJECT_C.:E05TOU  is referenced.
   VY_DCB_R.:E05TOU  cannot be made into a system file and is referenced.
   VY_DATA_R.:E05TOU  cannot be made into a system file and is referenced.
   XU_MACRO_C.:E05TOU  is referenced.
   VY_FIXED_R.:E05TOU  cannot be made into a system file and is referenced.
   CP_6.:E05TOU  cannot be made into a system file and is referenced.
   VY_MACRO_C.:E05TOU  is referenced.
   VY_PERR_C.:E05TOU  is referenced.
   VY_SUBS_C.:E05TOU  is referenced.
   VY_INC_NO_C.:E05TOU  is referenced.
   VY_SWITCH_C.:E05TOU  is referenced.
   VY_INC_C.:E05TOU  is referenced.
   B$JIT_C.:E05TOU  was found in the system file and is never referenced.
   CP_6_C.:E05TOU  was found in the system file and is referenced.
      No diagnostics issued in procedure VYU$CHK_TARGET.

   Procedure VYU$CHK_TARGET requires 111 words for executable code.
   Procedure VYU$CHK_TARGET requires 104 words of local(AUTO) storage.

    No errors detected in file VYU$CHK_TARGET.:E05TSI    .

PL6.E3A0      #001=VYU$CHK_TARGET File=VYU$CHK_TARGET.:E05TSI                    WED 07/30/97 09:04 Page:6

 Object Unit name= VYU$CHK_TARGET                             File name= VYU$CHK_TARGET.:E05TOU
 UTS= JUL 30 '97 09:04:34.92 WED                              Compiler= PL-6/E31         Sev=      00
 SharedLib= :SHARED_SYSTEM                                    Alt SharedLib=


    ****  Control sections  ****

 Sect   Type Bound  Init  Size OctSiz  Section name(segment info)
    0   DCB   even  none     0      0  M$UC
    1   DCB   even  none     0      0  M$RF
    2   Data  even  none    14     16  VYU$CHK_TARGET
    3   Proc  even  none   111    157  VYU$CHK_TARGET
    4  RoData even  none    29     35  VYU$CHK_TARGET

    ****  Entry defs  ****

                              Check   Calling
                             calling  sequence
  Sect OctLoc Primary Altret sequence   type   Parms  Name
     3      0   yes    yes     yes      Std        0  VYU$CHK_TARGET

  ****  Entry refs  ****

         Check        Calling
        calling       sequence
Altret sequence SRef   type   Args  Name
         yes           Std       5 VYD$B2C
         yes           Std       6 VYO$DEL_UNIT
         yes           Std       4 VYE$ERROR
                       nStd      0 X66_AUTO_0
                       Std       0 B_CONSPOOL_D
                       nStd      0 X66_AALT
                       nStd      0 X66_ARET
PL6.E3A0      #001=VYU$CHK_TARGET File=VYU$CHK_TARGET.:E05TSI                    WED 07/30/97 09:04 Page:7

  ****  Data refs  ****

  Flags:  r = read only, s = secondary
Flgs Name                             Flgs Name                             Flgs Name
     M$UC                                  VY_O_KEY_BUF                          VY_OK
     VY_OU_HEAD                            VY_ON_OVER                            VY_ERRORS
     VY_O                                  VY_EFIELD1                            VY_EFIELD2
     VY_EFIELD3                            VY_PAR_UNWIND                         M$RF
     B_VECTNIL

  ****  Segment refs  ****

  Flags:  r = read only, s = secondary
Flgs Name                             Flgs Name                             Flgs Name
     ISSID                                 NULLSID
PL6.E3A0      #001=VYU$CHK_TARGET File=VYU$CHK_TARGET.:E05TSI                    WED 07/30/97 09:04 Page:8


        1        1        /*M* VYU$CHK_TARGET - Make sure the target is ok to copy/move to. */
        2        2        /*T***********************************************************/
        3        3        /*T*                                                         */
        4        4        /*T* Copyright (c) Bull HN Information Systems Inc., 1997    */
        5        5        /*T*                                                         */
        6        6        /*T***********************************************************/
        7        7        /*X* PLM=4,STI=0,IND=4,CTI=3,DCI=4,ECI=4,CSI=0,THI=0,DTI=0,ENI=4,
        8        8             CLM=0,SQB,NTB,MOC,CCI=3,NLB,MCL=0,EDMC*/
        9        9
       10       10        /*F*
       11       11        NAME: VYU$CHK_TARGET
       12       12        PURPOSE: Make sure the operation is ok.
       13       13        DESCRIPTION:
       14       14            Check some things to make sure it is ok to do the particular operation.
       15       15            It may be necessary to prepare the target.  This routine altrets if
       16       16            something is not Ok.
       17       17        */
       18       18
       19       19        /*E*
       20       20        ERROR: VYU-E$OU_SEV_LEV_VY-0
       21       21        MESSAGE: Severity level = %U1 in object unit %U2; in file %U3.
       22       22        */
       23       23
       24       24        /*E*
       25       25        ERROR: VYU-E$OU_UTS_CONF_VY-0
       26       26        MESSAGE: The compile time of object unit %U1 in file %U2
       27       27                 is the same as that of an object unit in the target file.
       28       28                 They may not both exist in the same library.
       29       29        */
       30       30
       31       31        /*E*
       32       32        ERROR: VYU-E$UNIT_EXISTS_VY-0
       33       33        MESSAGE: Object unit %U1 exists; 'ADDTO' illegal.
       34       34        */
       35       35
       36       36        %EJECT;
PL6.E3A0      #001=VYU$CHK_TARGET File=VYU$CHK_TARGET.:E05TSI                    WED 07/30/97 09:04 Page:9
       37       37        VYU$CHK_TARGET: PROC ALTRET;

     37  3 000000   000000 700200 xent  VYU$CHK_TAR* TSX0  ! X66_AUTO_0
         3 000001   000150 000000                    ZERO    104,0

       38       38        %INCLUDE VY_INC_C;
       39     9214
       40     9215    1   DCL M$RF DCB;
       41     9216        %E;

              9224    1   /*******************************************************************************
              9225    1   *                                                                              *
              9226    1   *                          ENTRY                                                 *
              9227    1   *                                                                              *
              9228    1   *******************************************************************************/

       42     9232        %ENTRIES_IO;
       43     9241        %ENTRIES;
       44     9256    1   DCL VYO$DEL_UNIT ENTRY(6);
       45     9257        %U;

              9265    1   /*******************************************************************************
              9266    1   *                                                                              *
              9267    1   *                          UBIN                                                 *
              9268    1   *                                                                              *
              9269    1   *******************************************************************************/

       46     9273    1   DCL NUMB1 UBIN;
       47     9274        %INCLUDE VY_PSUBS_C;
       48     9335        %FPT_READ( DCB=M$RF, KEYS=YES );
       49     9374        %B$OUHEAD( NAME=HEAD_REC, STCLASS="" );
       50     9492    1   DCL 1 UTS_KEY,
       51     9493    1         2 L UBIN BYTE CALIGNED,
       52     9494    1         2 O777 BIT(9) CALIGNED,
       53     9495    1         2 UTS UBIN WORD CALIGNED,
       54     9496    1         2 * CHAR(250) CALIGNED;
       55     9497        %EJECT;
PL6.E3A0      #001=VYU$CHK_TARGET File=VYU$CHK_TARGET.:E05TSI                    WED 07/30/97 09:04 Page:10
       56     9498        /*D*
       57     9499            First check the OU severity to be sure we don't copy a bad one over
       58     9500            a good one.
       59     9501        */
       60     9502
       61     9503    1       IF VY_O.PRIMARY_OPTION.SEVERITY < VY_OU_HEAD.SEVLEV

   9503  3 000002   000003 236000 xsym               LDQ     VY_OU_HEAD+3
         3 000003   000022 772000                    QRL     18
         3 000004   000002 116000 xsym               CMPQ    VY_O+2
         3 000005   000037 602000 3                  TNC     s:9537
         3 000006   000037 600000 3                  TZE     s:9537

       62     9504    2       THEN DO;

       63     9505    2           NUMB1 = VY_OU_HEAD.SEVLEV;

   9505  3 000007   200003 756100                    STQ     NUMB1,,AUTO

       64     9506                %NUMBER( NUM1=NUMB1 );

   9512  3 000010   000000 236000 4                  LDQ     0
         3 000011   200146 756100                    STQ     UTS_KEY+69,,AUTO
         3 000012   200003 630500                    EPPR0   NUMB1,,AUTO
         3 000013   200145 450500                    STP0    UTS_KEY+68,,AUTO
         3 000014   000001 236000 4                  LDQ     1
         3 000015   200144 756100                    STQ     UTS_KEY+67,,AUTO
         3 000016   000002 237000 4                  LDAQ    2
         3 000017   200142 757100                    STAQ    UTS_KEY+65,,AUTO
         3 000020   200142 630500                    EPPR0   UTS_KEY+65,,AUTO
         3 000021   000023 631400 xsym               EPPR1   B_VECTNIL+19
         3 000022   000000 701000 xent               TSX1    VYD$B2C
         3 000023   000000 011000                    NOP     0

       65     9523    2           VY_EFIELD2 = VY_OK.OUNAME;

   9523  3 000024   000000 100400                    MLR     fill='000'O
PL6.E3A0      #001=VYU$CHK_TARGET File=VYU$CHK_TARGET.:E05TSI                    WED 07/30/97 09:04 Page:11
         3 000025   000013 000120 xsym               ADSC9   VY_OK+11                 cn=0,n=80
         3 000026   000000 000120 xsym               ADSC9   VY_EFIELD2               cn=0,n=80

       66     9524    2           VY_EFIELD3 = VY_OK.FILE.OFNAME;

   9524  3 000027   000000 100400                    MLR     fill='000'O
         3 000030   000213 000051 xsym               ADSC9   VY_OK+139                cn=0,n=41
         3 000031   000000 000120 xsym               ADSC9   VY_EFIELD3               cn=0,n=80

       67     9525                %SCREAM( ERR#=%E$OU_SEV_LEV_VY, MID="'U'", LEVEL=%@E$S_VY );

   9526  3 000032   000006 630400 4                  EPPR0   6
         3 000033   000022 631400 xsym               EPPR1   B_VECTNIL+18
         3 000034   000000 701000 xent               TSX1    VYE$ERROR
         3 000035   000000 011000                    NOP     0

       68     9528    2           ALTRETURN;

   9528  3 000036   000000 702200 xent               TSX2  ! X66_AALT

       69     9529    2           END;
       70     9530
       71     9531        /*D*
       72     9532            Now check to see if the OU already exists in the target file by looking
       73     9533            for its head record.  If it does, delete it if we are supposed to,
       74     9534            otherwise scream and quit.
       75     9535        */
       76     9536
       77     9537    1       FPT_READ.BUF_ = VECTOR(HEAD_REC);

   9537  3 000037   000012 235000 4                  LDA     10
         3 000040   200142 452500                    STP2    UTS_KEY+65,,AUTO
         3 000041   200142 236100                    LDQ     UTS_KEY+65,,AUTO
         3 000042   000004 036003                    ADLQ    4,DU
         3 000043   000004 757000 2                  STAQ    FPT_READ+4

       78     9538    1       FPT_READ.KEY_ = VECTOR(VY_O_KEY_BUF);
PL6.E3A0      #001=VYU$CHK_TARGET File=VYU$CHK_TARGET.:E05TSI                    WED 07/30/97 09:04 Page:12

   9538  3 000044   000014 237000 4                  LDAQ    12
         3 000045   000002 757000 2                  STAQ    FPT_READ+2

       79     9539    1       FPT_READ.V.KEYR# = '0'B;

   9539  3 000046   000013 236000 4                  LDQ     11
         3 000047   000010 356000 2                  ANSQ    FPT_READ+8

       80     9540    1       CALL M$READ( FPT_READ ) ALTRET( EXIT#); /* Try to read head reocord */

   9540  3 000050   000000 630400 2                  EPPR0   FPT_READ
         3 000051   440000 713400                    CLIMB   alt,read
         3 000052   401400 401760                    pmme    nvectors=4
         3 000053   000111 702000 3                  TSX2    EXIT#

       81     9541    2       DO CASE( VY_ON_OVER );

   9541  3 000054   000000 235000 xsym               LDA     VY_ON_OVER
         3 000055   000004 115007                    CMPA    4,DL
         3 000056   000060 602005 3                  TNC     s:9541+4,AL
         3 000057   000101 710000 3                  TRA     s:9550
         3 000060   000101 710000 3                  TRA     s:9550
         3 000061   000101 710000 3                  TRA     s:9550
         3 000062   000101 710000 3                  TRA     s:9550
         3 000063   000064 710000 3                  TRA     s:9543

       82     9542    2       CASE( 3/*@C_INTO_KEY_WORD*/ );

       83     9543    2           CALL VYO$DEL_UNIT( 1/*@RF*/,

   9543  3 000064   000003 236000 4                  LDQ     3
         3 000065   200147 756100                    STQ     UTS_KEY+70,,AUTO
         3 000066   200004 630500                    EPPR0   HEAD_REC,,AUTO
         3 000067   200146 450500                    STP0    UTS_KEY+69,,AUTO
         3 000070   000016 237000 4                  LDAQ    14
         3 000071   200144 757100                    STAQ    UTS_KEY+67,,AUTO
PL6.E3A0      #001=VYU$CHK_TARGET File=VYU$CHK_TARGET.:E05TSI                    WED 07/30/97 09:04 Page:13
         3 000072   000020 237000 4                  LDAQ    16
         3 000073   200142 757100                    STAQ    UTS_KEY+65,,AUTO
         3 000074   200142 630500                    EPPR0   UTS_KEY+65,,AUTO
         3 000075   000024 631400 xsym               EPPR1   B_VECTNIL+20
         3 000076   000000 701000 xent               TSX1    VYO$DEL_UNIT
         3 000077   000000 011000                    NOP     0
         3 000100   000111 710000 3                  TRA     EXIT#

       84     9544    2              '1'B,
       85     9545    2              '1'B,
       86     9546    2              '0'B,
       87     9547    2              HEAD_REC.UTS,
       88     9548    2              0 );
       89     9549    2       CASE( ELSE );

       90     9550    2           VY_EFIELD1 = VY_OK.OUNAME;

   9550  3 000101   000000 100400                    MLR     fill='000'O
         3 000102   000013 000120 xsym               ADSC9   VY_OK+11                 cn=0,n=80
         3 000103   000000 000120 xsym               ADSC9   VY_EFIELD1               cn=0,n=80

       91     9551                %SCREAM( ERR#=%E$UNIT_EXISTS_VY, MID="'U'", LEVEL=%@E$S_VY );

   9552  3 000104   000023 630400 4                  EPPR0   19
         3 000105   000022 631400 xsym               EPPR1   B_VECTNIL+18
         3 000106   000000 701000 xent               TSX1    VYE$ERROR
         3 000107   000000 011000                    NOP     0

       92     9554    2           ALTRETURN;

   9554  3 000110   000000 702200 xent               TSX2  ! X66_AALT

       93     9555    2           END; /* Do case( VY_ON_OVER ); */

       94     9556    1   EXIT#:
       95     9557
       96     9558        /*D*
PL6.E3A0      #001=VYU$CHK_TARGET File=VYU$CHK_TARGET.:E05TSI                    WED 07/30/97 09:04 Page:14
       97     9559            Now make sure that there is not already an OU in the target file
       98     9560            with a different head record but the same UTS.  If so, one of them
       99     9561            has to be recompiled because there just is no way to put them both
      100     9562            in the same file since the keys are all based on the UTS.
      101     9563        */
      102     9564
      103     9565    1       UTS_KEY.L = 5;

   9565  3 000111   005000 236003       EXIT#        LDQ     2560,DU
         3 000112   200041 552140                    STBQ    UTS_KEY,'40'O,AUTO

      104     9566    1       UTS_KEY.O777 = '777'O;

   9566  3 000113   000777 236003                    LDQ     511,DU
         3 000114   200041 552120                    STBQ    UTS_KEY,'20'O,AUTO

      105     9567    1       UTS_KEY.UTS = VY_OU_HEAD.UTS;

   9567  3 000115   000100 100400                    MLR     fill='000'O
         3 000116   000000 000004 xsym               ADSC9   VY_OU_HEAD               cn=0,n=4
         3 000117   200041 400004                    ADSC9   UTS_KEY,,AUTO            cn=2,n=4

      106     9568    1       FPT_READ.KEY_ = VECTOR(UTS_KEY);

   9568  3 000120   000027 235000 4                  LDA     23
         3 000121   200142 452500                    STP2    UTS_KEY+65,,AUTO
         3 000122   200142 236100                    LDQ     UTS_KEY+65,,AUTO
         3 000123   000041 036003                    ADLQ    33,DU
         3 000124   000002 757000 2                  STAQ    FPT_READ+2

      107     9569    1       FPT_READ.V.KEYR# = '1'B;

   9569  3 000125   100000 236007                    LDQ     32768,DL
         3 000126   000010 256000 2                  ORSQ    FPT_READ+8

      108     9570    1       CALL M$READ( FPT_READ ) ALTRET( IGNORE_ALT );

PL6.E3A0      #001=VYU$CHK_TARGET File=VYU$CHK_TARGET.:E05TSI                    WED 07/30/97 09:04 Page:15
   9570  3 000127   000000 630400 2                  EPPR0   FPT_READ
         3 000130   440000 713400                    CLIMB   alt,read
         3 000131   401400 401760                    pmme    nvectors=4
         3 000132   000133 702000 3                  TSX2    IGNORE_ALT

   9569  3 000133                       IGNORE_ALT   null
      109     9571    1   IGNORE_ALT: ;
      110     9572    1       IF UTS_KEY.L ~= 0 AND

   9572  3 000133   200041 236100                    LDQ     UTS_KEY,,AUTO
         3 000134   777000 316003                    CANQ    -512,DU
         3 000135   000156 600000 3                  TZE     s:9583
         3 000136   200041 235100                    LDA     UTS_KEY,,AUTO
         3 000137   200042 236100                    LDQ     UTS_KEY+1,,AUTO
         3 000140   000022 773000                    LRL     18
         3 000141   000000 116000 xsym               CMPQ    VY_OU_HEAD
         3 000142   000156 601000 3                  TNZ     s:9583

      111     9573    1          UTS_KEY.UTS = VY_OU_HEAD.UTS
      112     9574    2       THEN DO;

      113     9575    2           VY_EFIELD1 = VY_OK.OUNAME;

   9575  3 000143   000000 100400                    MLR     fill='000'O
         3 000144   000013 000120 xsym               ADSC9   VY_OK+11                 cn=0,n=80
         3 000145   000000 000120 xsym               ADSC9   VY_EFIELD1               cn=0,n=80

      114     9576    2           VY_EFIELD2 = VY_OK.FILE.OFNAME;

   9576  3 000146   000000 100400                    MLR     fill='000'O
         3 000147   000213 000051 xsym               ADSC9   VY_OK+139                cn=0,n=41
         3 000150   000000 000120 xsym               ADSC9   VY_EFIELD2               cn=0,n=80

      115     9577                %SCREAM( ERR#=%E$OU_UTS_CONF_VY, MID="'U'", LEVEL=%@E$S_VY );

   9578  3 000151   000031 630400 4                  EPPR0   25
         3 000152   000022 631400 xsym               EPPR1   B_VECTNIL+18
PL6.E3A0      #001=VYU$CHK_TARGET File=VYU$CHK_TARGET.:E05TSI                    WED 07/30/97 09:04 Page:16
         3 000153   000000 701000 xent               TSX1    VYE$ERROR
         3 000154   000000 011000                    NOP     0

      116     9580    2           ALTRETURN;

   9580  3 000155   000000 702200 xent               TSX2  ! X66_AALT

      117     9581    2           END;
      118     9582
      119     9583    1   END VYU$CHK_TARGET; /* Proc */

   9583  3 000156   000000 702200 xent               TSX2  ! X66_ARET

PL6.E3A0      #001=VYU$CHK_TARGET File=VYU$CHK_TARGET.:E05TSI                    WED 07/30/97 09:04 Page:17
--  Include file information  --

   VY_PSUBS_C.:E05TOU  is referenced.
   B$OBJECT_C.:E05TOU  is referenced.
   VY_DCB_R.:E05TOU  cannot be made into a system file and is referenced.
   VY_DATA_R.:E05TOU  cannot be made into a system file and is referenced.
   XU_MACRO_C.:E05TOU  is referenced.
   VY_FIXED_R.:E05TOU  cannot be made into a system file and is referenced.
   CP_6.:E05TOU  cannot be made into a system file and is referenced.
   VY_MACRO_C.:E05TOU  is referenced.
   VY_PERR_C.:E05TOU  is referenced.
   VY_SUBS_C.:E05TOU  is referenced.
   VY_INC_NO_C.:E05TOU  is referenced.
   VY_SWITCH_C.:E05TOU  is referenced.
   VY_INC_C.:E05TOU  is referenced.
   B$JIT_C.:E05TOU  was found in the system file and is never referenced.
   CP_6_C.:E05TOU  was found in the system file and is referenced.
      No diagnostics issued in procedure VYU$CHK_TARGET.
PL6.E3A0      #001=VYU$CHK_TARGET File=VYU$CHK_TARGET.:E05TSI                    WED 07/30/97 09:04 Page:18

 **** Variables and constants ****

  ****  Section 002  Data  VYU$CHK_TARGET

  ****  Scalars and arrays  ****
OctLoc.c.b A Datatyp(siz) R M Lvl/name                 OctLoc.c.b A Datatyp(siz) R M Lvl/name

     0-0-0/d STRC(504)   r     1 FPT_READ

  ****  Auto variables  ****

  ****  Scalars and arrays  ****
OctLoc.c.b A Datatyp(siz) R M Lvl/name                 OctLoc.c.b A Datatyp(siz) R M Lvl/name

     4-0-0/w STRC(1044)  r     1 HEAD_REC                   3-0-0/w UBIN        r     1 NUMB1
    41-0-0/c STRC(2304)  r     1 UTS_KEY

  ****  SYMREF variables  ****

  ****  Scalars and arrays  ****
OctLoc.c.b A Datatyp(siz) R M Lvl/name                 OctLoc.c.b A Datatyp(siz) R M Lvl/name

     0-0-0/w STRC(720)   r     1 VY_EFIELD1                 0-0-0/w STRC(720)   r     1 VY_EFIELD2
     0-0-0/w STRC(720)   r     1 VY_EFIELD3                 0-0-0/w STRC(648)   r     1 VY_O
     0-0-0/w STRC(5796)  r     1 VY_OK                      0-0-0/w UBIN        r     1 VY_ON_OVER
     0-0-0/c STRC(1044)  r     1 VY_OU_HEAD                 0-0-0/w STRC(4617)  r     1 VY_O_KEY_BUF

  ****  BASED and DCB variables  ****

  ****  Scalars and arrays  ****
OctLoc.c.b A Datatyp(siz) R M Lvl/name                 OctLoc.c.b A Datatyp(siz) R M Lvl/name

     0-0-0N  NULL        r     1 M$RF


   Procedure VYU$CHK_TARGET requires 111 words for executable code.
PL6.E3A0      #001=VYU$CHK_TARGET File=VYU$CHK_TARGET.:E05TSI                    WED 07/30/97 09:04 Page:19
   Procedure VYU$CHK_TARGET requires 104 words of local(AUTO) storage.

    No errors detected in file VYU$CHK_TARGET.:E05TSI    .
PL6.E3A0      #001=VYU$CHK_TARGET File=VYU$CHK_TARGET.:E05TSI                    WED 07/30/97 09:04 Page:20
          *** CROSS REFERENCE LISTING ***
**     DENOTES     IDENTIFIER DEFINITION
<<                 IDENTIFIER'S VALUE SET
>>                 IDENTIFIER'S VALUE USED
<>                 IDENTIFIER SET AND/OR USED
--                 IDENTIFIER REFERENCED
PL6.E3A0      #001=VYU$CHK_TARGET File=VYU$CHK_TARGET.:E05TSI                    WED 07/30/97 09:04 Page:21
          MINI XREF LISTING

EXIT#
      9565**LABEL    9540--CALLALT
FPT_READ
      9352**DCL      9540<>CALL     9570<>CALL
FPT_READ.BUF_
      9354**DCL      9537<<ASSIGN
FPT_READ.KEY_
      9352**DCL      9538<<ASSIGN   9568<<ASSIGN
FPT_READ.STATION_
      9355**DCL      9356--REDEF
FPT_READ.V
      9356**DCL      9352--DCLINIT
FPT_READ.V.DVBYTE.REREAD#
      9367**DCL      9367--REDEF
FPT_READ.V.INDX#
      9365**DCL      9365--REDEF
FPT_READ.V.KEYR#
      9357**DCL      9539<<ASSIGN   9569<<ASSIGN
HEAD_REC
      9375**DCL      9537--ASSIGN
HEAD_REC.UTS
      9376**DCL      9543<>CALL
HEAD_REC.VERSION
      9393**DCL      9395--REDEF
IGNORE_ALT
      9569**LABEL    9570--CALLALT
M$READ
      1636**DCL-ENT  9540--CALL     9570--CALL
NUMB1
      9273**DCL      9505<<ASSIGN   9512<>CALL
UTS_KEY
      9492**DCL      9568--ASSIGN
PL6.E3A0      #001=VYU$CHK_TARGET File=VYU$CHK_TARGET.:E05TSI                    WED 07/30/97 09:04 Page:22
UTS_KEY.L
      9493**DCL      9565<<ASSIGN   9572>>IF
UTS_KEY.O777
      9494**DCL      9566<<ASSIGN
UTS_KEY.UTS
      9495**DCL      9567<<ASSIGN   9572>>IF
VYD$B2C
      9249**DCL-ENT  9512--CALL
VYE$ERROR
      9242**DCL-ENT  9526--CALL     9552--CALL     9578--CALL
VYO$DEL_UNIT
      9256**DCL-ENT  9543--CALL
VY_BIAS.A
      5414**DCL      5414--REDEF
VY_CBUF.CHARS_A
      5405**DCL      5405--REDEF
VY_EBUF.CHARS_A
      5706**DCL      5707--REDEF
VY_EFIELD1
      5707**DCL      9550<<ASSIGN   9575<<ASSIGN
VY_EFIELD1.CHARS
      5707**DCL      5707--REDEF
VY_EFIELD1.CHARS_A
      5707**DCL      9512<>CALL
VY_EFIELD2
      5708**DCL      9523<<ASSIGN   9576<<ASSIGN
VY_EFIELD2.CHARS
      5708**DCL      5708--REDEF
VY_EFIELD3
      5708**DCL      9524<<ASSIGN
VY_EFIELD3.CHARS
      5709**DCL      5709--REDEF
VY_ERRORS
      5410**DCL      5412--REDEF
VY_ERRORS.CONFLICT_A
      5411**DCL      5412--REDEF
PL6.E3A0      #001=VYU$CHK_TARGET File=VYU$CHK_TARGET.:E05TSI                    WED 07/30/97 09:04 Page:23
VY_ERRORS.UNSAT_A
      5410**DCL      5411--REDEF
VY_IMAGE_DATA.CPAGE#_A
      5298**DCL      5299--REDEF
VY_IMAGE_DATA.NODE_A$
      5310**DCL      5311--REDEF
VY_IMAGE_DATA.START_A$
      5302**DCL      5303--REDEF
VY_IMAGE_DATA.STOP_A$
      5306**DCL      5307--REDEF
VY_IMAGE_PROC.CPAGE#_A
      5321**DCL      5322--REDEF
VY_IMAGE_PROC.NODE_A$
      5333**DCL      5334--REDEF
VY_IMAGE_PROC.START_A$
      5325**DCL      5326--REDEF
VY_IMAGE_PROC.STOP_A$
      5329**DCL      5330--REDEF
VY_IMAGE_ROS.CPAGE#_A
      5344**DCL      5345--REDEF
VY_IMAGE_ROS.NODE_A$
      5356**DCL      5357--REDEF
VY_IMAGE_ROS.START_A$
      5348**DCL      5349--REDEF
VY_IMAGE_ROS.STOP_A$
      5352**DCL      5353--REDEF
VY_MAP_HDR.CHARS
      5771**DCL      5772--REDEF    5772--REDEF
VY_MAP_LIT_LO_FPT_WRITE.STATION_
      5100**DCL      5100--REDEF
VY_MAP_LIT_LO_FPT_WRITE.V.DVBYTE.VFC#
      5107**DCL      5107--REDEF
VY_MAP_LO_FPT_WRITE.STATION_
      5069**DCL      5069--REDEF
VY_MAP_LO_FPT_WRITE.V.DVBYTE.VFC#
      5076**DCL      5076--REDEF
PL6.E3A0      #001=VYU$CHK_TARGET File=VYU$CHK_TARGET.:E05TSI                    WED 07/30/97 09:04 Page:24
VY_MBUF.CHARS
      5770**DCL      5771--REDEF    5771--REDEF
VY_M_VECTOR.F
      5139**DCL      5143--REDEF
VY_M_VECTOR_DP.F
      5174**DCL      5178--REDEF
VY_O.DUPL_ATTCH
      5552**DCL      5556--REDEF
VY_O.MAP_ATTCH
      5540**DCL      5551--REDEF
VY_O.PRIMARY_OPTION
      5534**DCL      5539--REDEF
VY_O.PRIMARY_OPTION.SEVERITY
      5537**DCL      9503>>IF
VY_O.SEV_ATTCH
      5557**DCL      5559--REDEF
VY_OD.DUPL_ATTCH
      5696**DCL      5700--REDEF
VY_OD.MAP_ATTCH
      5684**DCL      5695--REDEF
VY_OD.PRIMARY_OPTION
      5678**DCL      5683--REDEF
VY_OD.SEV_ATTCH
      5701**DCL      5703--REDEF
VY_OK.FILE.OFNAME
      5289**DCL      9524>>ASSIGN   9576>>ASSIGN
VY_OK.OUNAME
      5285**DCL      9523>>ASSIGN   9550>>ASSIGN   9575>>ASSIGN
VY_OL_KEY_BUF.FORM0
      5207**DCL      5210--REDEF    5217--REDEF
VY_ON_OVER
      5405**DCL      9541>>DOCASE
VY_OU_HEAD.REC_A
      5395**DCL      5396--REDEF
VY_OU_HEAD.SEVLEV
      5395**DCL      9503>>IF       9505>>ASSIGN
PL6.E3A0      #001=VYU$CHK_TARGET File=VYU$CHK_TARGET.:E05TSI                    WED 07/30/97 09:04 Page:25
VY_OU_HEAD.UTS
      5393**DCL      9567>>ASSIGN   9572>>IF
VY_O_KEY_BUF
      5183**DCL      9538--ASSIGN
VY_O_KEY_BUF.FORM0
      5184**DCL      5187--REDEF    5194--REDEF
VY_O_KEY_BUF_L.FORM0
      5230**DCL      5233--REDEF    5240--REDEF
VY_PAR_UNWIND
      5765**DCL      5765--REDEF
VY_PASS2_REF.OU.L_START
      5732**DCL      5733--REDEF
VY_PASS2_REF.OU.L_STOP
      5733**DCL      5734--REDEF
VY_PASS2_REF.OU.MAX
      5731**DCL      5732--REDEF
VY_PASS2_REF.OU.SIZE
      5734**DCL      5735--REDEF
VY_PASS2_REF.SAT.COUNT
      5738**DCL      5739--REDEF
VY_PASS2_REF.SAT.ENT_SIZE
      5740**DCL      5741--REDEF
VY_PASS2_REF.SAT.L_START
      5736**DCL      5737--REDEF
VY_PASS2_REF.SAT.L_STOP
      5737**DCL      5738--REDEF
VY_PASS2_REF.SAT.MAX
      5735**DCL      5736--REDEF
VY_PASS2_REF.UNSAT.L_START
      5742**DCL      5743--REDEF
VY_PASS2_REF.UNSAT.L_STOP
      5743**DCL      5744--REDEF
VY_PASS2_REF.UNSAT.L_WHERE
      5744**DCL      5745--REDEF
VY_PASS2_REF.UNSAT.MAX
      5741**DCL      5742--REDEF
PL6.E3A0      #001=VYU$CHK_TARGET File=VYU$CHK_TARGET.:E05TSI                    WED 07/30/97 09:04 Page:26
VY_PASS2_REF.UNSAT.PAGE#
      5746**DCL      5747--REDEF
VY_PASS2_REF.UNSAT.SIZE
      5745**DCL      5746--REDEF
VY_PROGRAM_BIAS.A
      5413**DCL      5413--REDEF
VY_RU_HEAD.DATA_SEGMENT
      5381**DCL      5381--REDEF
VY_RU_HEAD.L
      5377**DCL      5378--REDEF
VY_RU_HEAD.MAP_BITS
      5378**DCL      5380--REDEF
VY_RU_HEAD.PBIT
      5374**DCL      5374--REDEF
VY_RU_HEAD_BUF.DATA_SEGMENT
      5391**DCL      5391--REDEF
VY_RU_HEAD_BUF.L
      5386**DCL      5387--REDEF
VY_RU_HEAD_BUF.MAP_BITS
      5388**DCL      5390--REDEF
VY_RU_HEAD_BUF.PBIT
      5383**DCL      5384--REDEF
VY_R_KEY_BUF.FORM0
      5253**DCL      5257--REDEF    5263--REDEF
VY_SI_KEY_BUF.KEY
      5761**DCL      5761--REDEF
VY_SPC.B$.MINE
      5756**DCL      5757--REDEF
VY_SPC.B$.NAME
      5753**DCL      5753--REDEF
VY_SPC.B$.SKIP
      5755**DCL      5756--REDEF
VY_SPC.B$.VALUE
      5754**DCL      5755--REDEF
VY_SPC.SEG.NAME
      5748**DCL      5749--REDEF
PL6.E3A0      #001=VYU$CHK_TARGET File=VYU$CHK_TARGET.:E05TSI                    WED 07/30/97 09:04 Page:27
VY_SPC.SEG.VALUE
      5749**DCL      5750--REDEF
VY_TSX0_OVERLAY.H
      5720**DCL      5721--REDEF
