VERSION E05

PL6.E3A0      #001=VYU$FIND_UTS File=VYU$FIND_UTS.:E05TSI                        WED 07/30/97 09:04 Page:1
        1        1        /*T***********************************************************/
        2        2        /*T*                                                         */
        3        3        /*T* Copyright (c) Bull HN Information Systems Inc., 1997    */
        4        4        /*T*                                                         */
        5        5        /*T***********************************************************/
        6        6        /*X* DMR,PLM=6,IND=4,CSU=2,EXM=0,ECU=2,MOC,DCI=4,CRT=4,CTI=8,CCC  */
        7        7        VYU$FIND_UTS:
        8        8              PROC( WHERE$, UTS, INX, START$, STP$ )                     ALTRET;
        9        9        %INCLUDE VY_INC_C;
       10     9185        %VY$UTS;

              9198    1   /*******************************************************************************
              9199    1   *                                                                              *
              9200    1   *                          VY$UTS                                                 *
              9201    1   *                                                                              *
              9202    1   *******************************************************************************/

              9207    1   DCL 1 VY$UTS           BASED,
              9208    1         2 I,
              9209    1           3 LEMUR    UBIN(36) ALIGNED,
              9210    1           3 COMPILER UBIN(36) ALIGNED,
              9211    1         2 A(0:1) REDEF I UBIN(36);
       11     9214        %P;

              9222    1   /*******************************************************************************
              9223    1   *                                                                              *
              9224    1   *                          PARAMETERS                                              *
              9225    1   *                                                                              *
              9226    1   *******************************************************************************/

       12     9230    1   DCL WHERE$          PTR;
       13     9231    1   DCL UTS             UBIN(36);
       14     9232    1   DCL INX             UBIN(36);
       15     9233    1   DCL START$     PTR  ALIGNED;
       16     9234    1   DCL STP$       PTR  ALIGNED;
       17     9235        %PTR;

PL6.E3A0      #001=VYU$FIND_UTS File=VYU$FIND_UTS.:E05TSI                        WED 07/30/97 09:04 Page:2
              9243    1   /*******************************************************************************
              9244    1   *                                                                              *
              9245    1   *                          PTR                                                 *
              9246    1   *                                                                              *
              9247    1   *******************************************************************************/

       18     9251    1   DCL P$         PTR  ALIGNED   STATIC/*AUTO*/;
       19     9252    1   DCL STOP$      PTR  ALIGNED   STATIC/*AUTO*/;
       20     9253        /**/
       21     9254        %EJECT;
PL6.E3A0      #001=VYU$FIND_UTS File=VYU$FIND_UTS.:E05TSI                        WED 07/30/97 09:04 Page:3
       22     9255    1         P$ = START$;
       23     9256    1         IF P$ = ADDR(NIL) THEN ALTRETURN;
       24     9257    1         STOP$ = STP$;
       25     9258    2         DO WHILE( P$ <= STOP$ );
       26     9259    3             IF P$ -> VY$UTS.A(INX) = UTS THEN DO;
       27     9260    3                 WHERE$ = P$;
       28     9261    3                 RETURN;
       29     9262    3                END;
       30     9263    2             P$ = PINCRW( P$, SIZEW( VY$UTS ) );
       31     9264    2            END;                           /* Do while( P$ <= STOP$ ); */
       32     9265        /**/
       33     9266    1         ALTRETURN;
       34     9267    1   END VYU$FIND_UTS;

PL6.E3A0      #001=VYU$FIND_UTS File=VYU$FIND_UTS.:E05TSI                        WED 07/30/97 09:04 Page:4
--  Include file information  --

   B$OBJECT_C.:E05TOU  is referenced.
   VY_DCB_R.:E05TOU  cannot be made into a system file and is referenced.
   VY_DATA_R.:E05TOU  cannot be made into a system file and is referenced.
   XU_MACRO_C.:E05TOU  is referenced.
   VY_FIXED_R.:E05TOU  cannot be made into a system file and is referenced.
   CP_6.:E05TOU  cannot be made into a system file and is referenced.
   VY_MACRO_C.:E05TOU  is referenced.
   VY_PERR_C.:E05TOU  is referenced.
   VY_SUBS_C.:E05TOU  is referenced.
   VY_INC_NO_C.:E05TOU  is referenced.
   VY_SWITCH_C.:E05TOU  is referenced.
   VY_INC_C.:E05TOU  is referenced.
   B$JIT_C.:E05TOU  was found in the system file and is never referenced.
   CP_6_C.:E05TOU  was found in the system file and is referenced.
      No diagnostics issued in procedure VYU$FIND_UTS.

   Procedure VYU$FIND_UTS requires 31 words for executable code.
   Procedure VYU$FIND_UTS requires 8 words of local(AUTO) storage.

    No errors detected in file VYU$FIND_UTS.:E05TSI    .

PL6.E3A0      #001=VYU$FIND_UTS File=VYU$FIND_UTS.:E05TSI                        WED 07/30/97 09:04 Page:5

 Object Unit name= VYU$FIND_UTS                               File name= VYU$FIND_UTS.:E05TOU
 UTS= JUL 30 '97 09:04:48.60 WED                              Compiler= PL-6/E31         Sev=      00
 SharedLib= :SHARED_SYSTEM                                    Alt SharedLib=


    ****  Control sections  ****

 Sect   Type Bound  Init  Size OctSiz  Section name(segment info)
    0   DCB   even  none     0      0  M$UC
    1   Data  even  none     2      2  VYU$FIND_UTS
    2   Proc  even  none    31     37  VYU$FIND_UTS

    ****  Entry defs  ****

                              Check   Calling
                             calling  sequence
  Sect OctLoc Primary Altret sequence   type   Parms  Name
     2      0   yes    yes     yes      Std        5  VYU$FIND_UTS

  ****  Entry refs  ****

         Check        Calling
        calling       sequence
Altret sequence SRef   type   Args  Name
                       nStd      0 X66_AUTO_5
                       Std       0 B_CONSPOOL_D
                       nStd      0 X66_AALT
                       nStd      0 X66_ARET

  ****  Data refs  ****

  Flags:  r = read only, s = secondary
Flgs Name                             Flgs Name                             Flgs Name
     M$UC                                  VY_ERRORS                             VY_PAR_UNWIND
     B_VECTNIL
PL6.E3A0      #001=VYU$FIND_UTS File=VYU$FIND_UTS.:E05TSI                        WED 07/30/97 09:04 Page:6


        1        1        /*T***********************************************************/
        2        2        /*T*                                                         */
        3        3        /*T* Copyright (c) Bull HN Information Systems Inc., 1997    */
        4        4        /*T*                                                         */
        5        5        /*T***********************************************************/
        6        6        /*X* DMR,PLM=6,IND=4,CSU=2,EXM=0,ECU=2,MOC,DCI=4,CRT=4,CTI=8,CCC  */
        7        7        VYU$FIND_UTS:
        8        8              PROC( WHERE$, UTS, INX, START$, STP$ )                     ALTRET;

      8  2 000000   000000 700200 xent  VYU$FIND_UTS TSX0  ! X66_AUTO_5
         2 000001   000010 000005                    ZERO    8,5

        9        9        %INCLUDE VY_INC_C;
       10     9185        %VY$UTS;

              9198    1   /*******************************************************************************
              9199    1   *                                                                              *
              9200    1   *                          VY$UTS                                                 *
              9201    1   *                                                                              *
              9202    1   *******************************************************************************/

              9207    1   DCL 1 VY$UTS           BASED,
              9208    1         2 I,
              9209    1           3 LEMUR    UBIN(36) ALIGNED,
              9210    1           3 COMPILER UBIN(36) ALIGNED,
              9211    1         2 A(0:1) REDEF I UBIN(36);
       11     9214        %P;

              9222    1   /*******************************************************************************
              9223    1   *                                                                              *
              9224    1   *                          PARAMETERS                                             *
              9225    1   *                                                                              *
              9226    1   *******************************************************************************/

       12     9230    1   DCL WHERE$          PTR;
       13     9231    1   DCL UTS             UBIN(36);
PL6.E3A0      #001=VYU$FIND_UTS File=VYU$FIND_UTS.:E05TSI                        WED 07/30/97 09:04 Page:7
       14     9232    1   DCL INX             UBIN(36);
       15     9233    1   DCL START$     PTR  ALIGNED;
       16     9234    1   DCL STP$       PTR  ALIGNED;
       17     9235        %PTR;

              9243    1   /*******************************************************************************
              9244    1   *                                                                              *
              9245    1   *                          PTR                                                 *
              9246    1   *                                                                              *
              9247    1   *******************************************************************************/

       18     9251    1   DCL P$         PTR  ALIGNED   STATIC/*AUTO*/;
       19     9252    1   DCL STOP$      PTR  ALIGNED   STATIC/*AUTO*/;
       20     9253        /**/
       21     9254        %EJECT;
PL6.E3A0      #001=VYU$FIND_UTS File=VYU$FIND_UTS.:E05TSI                        WED 07/30/97 09:04 Page:8
       22     9255    1         P$ = START$;

   9255  2 000002   200006 470500                    LDP0    @START$,,AUTO
         2 000003   000000 236100                    LDQ     0,,PR0
         2 000004   000000 756000 1                  STQ     P$

       23     9256    1         IF P$ = ADDR(NIL) THEN ALTRETURN;

   9256  2 000005   000001 116000 xsym               CMPQ    B_VECTNIL+1
         2 000006   000010 601000 2                  TNZ     s:9257

   9256  2 000007   000000 702200 xent               TSX2  ! X66_AALT

       24     9257    1         STOP$ = STP$;

   9257  2 000010   200007 471500                    LDP1    @STP$,,AUTO
         2 000011   100000 236100                    LDQ     0,,PR1
         2 000012   000001 756000 1                  STQ     STOP$

       25     9258    2         DO WHILE( P$ <= STOP$ );

   9258  2 000013   000000 116000 1                  CMPQ    P$
         2 000014   000036 602000 2                  TNC     s:9266

       26     9259    3             IF P$ -> VY$UTS.A(INX) = UTS THEN DO;

   9259  2 000015   200005 470500                    LDP0    @INX,,AUTO
         2 000016   000000 720100                    LXL0    0,,PR0
         2 000017   200004 471500                    LDP1    @UTS,,AUTO
         2 000020   000000 473400 1                  LDP3    P$
         2 000021   300000 236110                    LDQ     0,X0,PR3
         2 000022   100000 116100                    CMPQ    0,,PR1
         2 000023   000030 601000 2                  TNZ     s:9263

       27     9260    3                 WHERE$ = P$;

   9260  2 000024   000000 236000 1                  LDQ     P$
PL6.E3A0      #001=VYU$FIND_UTS File=VYU$FIND_UTS.:E05TSI                        WED 07/30/97 09:04 Page:9
         2 000025   200003 474500                    LDP4    @WHERE$,,AUTO
         2 000026   400000 756100                    STQ     0,,PR4

       28     9261    3                 RETURN;

   9261  2 000027   000000 702200 xent               TSX2  ! X66_ARET

       29     9262    3                END;
       30     9263    2             P$ = PINCRW( P$, SIZEW( VY$UTS ) );

   9263  2 000030   000000 236000 1                  LDQ     P$
         2 000031   000002 036003                    ADLQ    2,DU
         2 000032   000000 756000 1                  STQ     P$

       31     9264    2            END;                           /* Do while( P$ <= STOP$ ); */

   9264  2 000033   000001 116000 1                  CMPQ    STOP$
         2 000034   000015 602000 2                  TNC     s:9259
         2 000035   000015 600000 2                  TZE     s:9259

       32     9265        /**/
       33     9266    1         ALTRETURN;

   9266  2 000036   000000 702200 xent               TSX2  ! X66_AALT
       34     9267    1   END VYU$FIND_UTS;

PL6.E3A0      #001=VYU$FIND_UTS File=VYU$FIND_UTS.:E05TSI                        WED 07/30/97 09:04 Page:10
--  Include file information  --

   B$OBJECT_C.:E05TOU  is referenced.
   VY_DCB_R.:E05TOU  cannot be made into a system file and is referenced.
   VY_DATA_R.:E05TOU  cannot be made into a system file and is referenced.
   XU_MACRO_C.:E05TOU  is referenced.
   VY_FIXED_R.:E05TOU  cannot be made into a system file and is referenced.
   CP_6.:E05TOU  cannot be made into a system file and is referenced.
   VY_MACRO_C.:E05TOU  is referenced.
   VY_PERR_C.:E05TOU  is referenced.
   VY_SUBS_C.:E05TOU  is referenced.
   VY_INC_NO_C.:E05TOU  is referenced.
   VY_SWITCH_C.:E05TOU  is referenced.
   VY_INC_C.:E05TOU  is referenced.
   B$JIT_C.:E05TOU  was found in the system file and is never referenced.
   CP_6_C.:E05TOU  was found in the system file and is referenced.
      No diagnostics issued in procedure VYU$FIND_UTS.
PL6.E3A0      #001=VYU$FIND_UTS File=VYU$FIND_UTS.:E05TSI                        WED 07/30/97 09:04 Page:11

 **** Variables and constants ****

  ****  Section 001  Data  VYU$FIND_UTS

  ****  Scalars and arrays  ****
OctLoc.c.b A Datatyp(siz) R M Lvl/name                 OctLoc.c.b A Datatyp(siz) R M Lvl/name

     0-0-0/w PTR         r     1 P$                         1-0-0/w PTR         r     1 STOP$

  ****  Auto variables  ****

  ****  Scalars and arrays  ****
OctLoc.c.b A Datatyp(siz) R M Lvl/name                 OctLoc.c.b A Datatyp(siz) R M Lvl/name

     5-0-0/w PTR         r     1 @INX                       6-0-0/w PTR         r     1 @START$
     7-0-0/w PTR         r     1 @STP$                      4-0-0/w PTR         r     1 @UTS
     3-0-0/w PTR         r     1 @WHERE$                   *0-0-0/w UBIN        r     1 INX
    *0-0-0/w PTR         r     1 START$                    *0-0-0/w PTR         r     1 STP$
    *0-0-0/w UBIN        r     1 UTS                       *0-0-0/w PTR         r     1 WHERE$

  ****  BASED and DCB variables  ****

  ****  Scalars and arrays  ****
OctLoc.c.b A Datatyp(siz) R M Lvl/name                 OctLoc.c.b A Datatyp(siz) R M Lvl/name

     0-0-0/w STRC(72)    r     1 VY$UTS


   Procedure VYU$FIND_UTS requires 31 words for executable code.
   Procedure VYU$FIND_UTS requires 8 words of local(AUTO) storage.

    No errors detected in file VYU$FIND_UTS.:E05TSI    .
PL6.E3A0      #001=VYU$FIND_UTS File=VYU$FIND_UTS.:E05TSI                        WED 07/30/97 09:04 Page:12
          *** CROSS REFERENCE LISTING ***
**     DENOTES     IDENTIFIER DEFINITION
<<                 IDENTIFIER'S VALUE SET
>>                 IDENTIFIER'S VALUE USED
<>                 IDENTIFIER SET AND/OR USED
--                 IDENTIFIER REFERENCED
PL6.E3A0      #001=VYU$FIND_UTS File=VYU$FIND_UTS.:E05TSI                        WED 07/30/97 09:04 Page:13
          MINI XREF LISTING

INX
      9232**DCL         7--PROC     9259>>IF
P$
      9251**DCL      9255<<ASSIGN   9256>>IF       9258>>DOWHILE  9259>>IF       9260>>ASSIGN   9263<<ASSIGN
      9263>>ASSIGN
START$
      9233**DCL         7--PROC     9255>>ASSIGN
STOP$
      9252**DCL      9257<<ASSIGN   9258>>DOWHILE
STP$
      9234**DCL         7--PROC     9257>>ASSIGN
UTS
      9231**DCL         7--PROC     9259>>IF
VY$UTS
      9207**DCL      9263--ASSIGN
VY$UTS.A
      9211**DCL      9259>>IF
VY$UTS.I
      9208**DCL      9211--REDEF
VY_BIAS.A
      5385**DCL      5385--REDEF
VY_CBUF.CHARS_A
      5376**DCL      5376--REDEF
VY_EBUF.CHARS_A
      5677**DCL      5678--REDEF
VY_EFIELD1.CHARS
      5678**DCL      5678--REDEF
VY_EFIELD2.CHARS
      5679**DCL      5679--REDEF
VY_EFIELD3.CHARS
      5680**DCL      5680--REDEF
VY_ERRORS
PL6.E3A0      #001=VYU$FIND_UTS File=VYU$FIND_UTS.:E05TSI                        WED 07/30/97 09:04 Page:14
      5381**DCL      5383--REDEF
VY_ERRORS.CONFLICT_A
      5382**DCL      5383--REDEF
VY_ERRORS.UNSAT_A
      5381**DCL      5382--REDEF
VY_IMAGE_DATA.CPAGE#_A
      5269**DCL      5270--REDEF
VY_IMAGE_DATA.NODE_A$
      5281**DCL      5282--REDEF
VY_IMAGE_DATA.START_A$
      5273**DCL      5274--REDEF
VY_IMAGE_DATA.STOP_A$
      5277**DCL      5278--REDEF
VY_IMAGE_PROC.CPAGE#_A
      5292**DCL      5293--REDEF
VY_IMAGE_PROC.NODE_A$
      5304**DCL      5305--REDEF
VY_IMAGE_PROC.START_A$
      5296**DCL      5297--REDEF
VY_IMAGE_PROC.STOP_A$
      5300**DCL      5301--REDEF
VY_IMAGE_ROS.CPAGE#_A
      5315**DCL      5316--REDEF
VY_IMAGE_ROS.NODE_A$
      5327**DCL      5328--REDEF
VY_IMAGE_ROS.START_A$
      5319**DCL      5320--REDEF
VY_IMAGE_ROS.STOP_A$
      5323**DCL      5324--REDEF
VY_MAP_HDR.CHARS
      5742**DCL      5743--REDEF    5743--REDEF
VY_MAP_LIT_LO_FPT_WRITE.STATION_
      5071**DCL      5071--REDEF
VY_MAP_LIT_LO_FPT_WRITE.V.DVBYTE.VFC#
      5078**DCL      5078--REDEF
VY_MAP_LO_FPT_WRITE.STATION_
PL6.E3A0      #001=VYU$FIND_UTS File=VYU$FIND_UTS.:E05TSI                        WED 07/30/97 09:04 Page:15
      5040**DCL      5040--REDEF
VY_MAP_LO_FPT_WRITE.V.DVBYTE.VFC#
      5047**DCL      5047--REDEF
VY_MBUF.CHARS
      5741**DCL      5742--REDEF    5742--REDEF
VY_M_VECTOR.F
      5110**DCL      5114--REDEF
VY_M_VECTOR_DP.F
      5145**DCL      5149--REDEF
VY_O.DUPL_ATTCH
      5523**DCL      5527--REDEF
VY_O.MAP_ATTCH
      5511**DCL      5522--REDEF
VY_O.PRIMARY_OPTION
      5505**DCL      5510--REDEF
VY_O.SEV_ATTCH
      5528**DCL      5530--REDEF
VY_OD.DUPL_ATTCH
      5667**DCL      5671--REDEF
VY_OD.MAP_ATTCH
      5655**DCL      5666--REDEF
VY_OD.PRIMARY_OPTION
      5649**DCL      5654--REDEF
VY_OD.SEV_ATTCH
      5672**DCL      5674--REDEF
VY_OL_KEY_BUF.FORM0
      5178**DCL      5181--REDEF    5188--REDEF
VY_OU_HEAD.REC_A
      5366**DCL      5367--REDEF
VY_O_KEY_BUF.FORM0
      5155**DCL      5158--REDEF    5165--REDEF
VY_O_KEY_BUF_L.FORM0
      5201**DCL      5204--REDEF    5211--REDEF
VY_PAR_UNWIND
      5736**DCL      5736--REDEF
VY_PASS2_REF.OU.L_START
PL6.E3A0      #001=VYU$FIND_UTS File=VYU$FIND_UTS.:E05TSI                        WED 07/30/97 09:04 Page:16
      5703**DCL      5704--REDEF
VY_PASS2_REF.OU.L_STOP
      5704**DCL      5705--REDEF
VY_PASS2_REF.OU.MAX
      5702**DCL      5703--REDEF
VY_PASS2_REF.OU.SIZE
      5705**DCL      5706--REDEF
VY_PASS2_REF.SAT.COUNT
      5709**DCL      5710--REDEF
VY_PASS2_REF.SAT.ENT_SIZE
      5711**DCL      5712--REDEF
VY_PASS2_REF.SAT.L_START
      5707**DCL      5708--REDEF
VY_PASS2_REF.SAT.L_STOP
      5708**DCL      5709--REDEF
VY_PASS2_REF.SAT.MAX
      5706**DCL      5707--REDEF
VY_PASS2_REF.UNSAT.L_START
      5713**DCL      5714--REDEF
VY_PASS2_REF.UNSAT.L_STOP
      5714**DCL      5715--REDEF
VY_PASS2_REF.UNSAT.L_WHERE
      5715**DCL      5716--REDEF
VY_PASS2_REF.UNSAT.MAX
      5712**DCL      5713--REDEF
VY_PASS2_REF.UNSAT.PAGE#
      5717**DCL      5718--REDEF
VY_PASS2_REF.UNSAT.SIZE
      5716**DCL      5717--REDEF
VY_PROGRAM_BIAS.A
      5384**DCL      5384--REDEF
VY_RU_HEAD.DATA_SEGMENT
      5352**DCL      5352--REDEF
VY_RU_HEAD.L
      5348**DCL      5349--REDEF
VY_RU_HEAD.MAP_BITS
PL6.E3A0      #001=VYU$FIND_UTS File=VYU$FIND_UTS.:E05TSI                        WED 07/30/97 09:04 Page:17
      5349**DCL      5351--REDEF
VY_RU_HEAD.PBIT
      5345**DCL      5345--REDEF
VY_RU_HEAD_BUF.DATA_SEGMENT
      5362**DCL      5362--REDEF
VY_RU_HEAD_BUF.L
      5357**DCL      5358--REDEF
VY_RU_HEAD_BUF.MAP_BITS
      5359**DCL      5361--REDEF
VY_RU_HEAD_BUF.PBIT
      5354**DCL      5355--REDEF
VY_R_KEY_BUF.FORM0
      5224**DCL      5228--REDEF    5234--REDEF
VY_SI_KEY_BUF.KEY
      5732**DCL      5732--REDEF
VY_SPC.B$.MINE
      5727**DCL      5728--REDEF
VY_SPC.B$.NAME
      5724**DCL      5724--REDEF
VY_SPC.B$.SKIP
      5726**DCL      5727--REDEF
VY_SPC.B$.VALUE
      5725**DCL      5726--REDEF
VY_SPC.SEG.NAME
      5719**DCL      5720--REDEF
VY_SPC.SEG.VALUE
      5720**DCL      5721--REDEF
VY_TSX0_OVERLAY.H
      5691**DCL      5692--REDEF
WHERE$
      9230**DCL         7--PROC     9260<<ASSIGN
