VERSION E05

PL6.E3A0      #001=VY_DATA_D File=VY_DATA_D.:E05TSI                              WED 07/30/97 09:06 Page:1
        1        1        /*T***********************************************************/
        2        2        /*T*                                                         */
        3        3        /*T* Copyright (c) Bull HN Information Systems Inc., 1997    */
        4        4        /*T*                                                         */
        5        5        /*T***********************************************************/
        6        6        /*X* DMR,PLM=5,IND=5,CSU=3,EXM=0,ECU=3,MOC,DCI=5,CRT=5          */
        7        7        VY_DATA_D: PROC;
        8        8
        9        9        /* ! ! */
       10       10        %INCLUDE VY_SUBS_C;
       11      307        %INCLUDE VY_MACRO_C;
       12     1443        %INCLUDE VY_PERR_C;
       13     1575        %PLIST;
       14     1576        %INCLUDE CP_6;
       15     1657        %LIST;
       16     1658        %EJECT;
PL6.E3A0      #001=VY_DATA_D File=VY_DATA_D.:E05TSI                              WED 07/30/97 09:06 Page:2
       17     1659        %VYR$TMPLT;
              1660                %LSET LISTDIR='0'B;

              1673    1   /*******************************************************************************
              1674    1   *                                                                              *
              1675    1   *                          VYR$TMPLT                                               *
              1676    1   *                                                                              *
              1677    1   *******************************************************************************/

              1681    1   DCL 1 VYR$TMPLT                                         BASED ALIGNED,
              1682    1         2 NAME_DISP              UBIN(18)       UNAL,
              1683    1         2 ER                                    UNAL,
              1684    1           3 SREF                  BIT (1)        UNAL,
              1685    1           3 A                     UBIN(1)        UNAL,
              1686    1           3 I                     BIT(1)         UNAL,
              1687    1           3 CST                   UBIN(4)        UNAL,
              1688    1           3 NP                    UBIN(11)       UNAL,
              1689    1         2 CAND    REDEF     ER,
              1690    1           3 SREF                  BIT (1)        UNAL,
              1691    1           3 READ_ONLY             BIT(1)         UNAL,
              1692    1           3 STATE                 BIT(1)         UNAL,
              1693    1           3 *                     UBIN(15)       UNAL,
              1694    1         2 OU_NAME_DISP REDEF     ER,
              1695    1           3 SREF                  BIT (1)        UNAL,
              1696    1           3 READ_ONLY             BIT(1)         UNAL,
              1697    1           3 GOT                   BIT(1)         UNAL,
              1698    1           3 NAME_DISP             UBIN(15)       UNAL,
              1699    1         2 SAT     REDEF     ER,
              1700    1           3 BREF                  BIT ( 1)       UNAL,
              1701    1           3 *                     BIT (17)       UNAL;

              1710    1   /*******************************************************************************
              1711    1   *                                                                              *
              1712    1   *                          VYR$SAT                                                 *
              1713    1   *                                                                              *
              1714    1   *******************************************************************************/

PL6.E3A0      #001=VY_DATA_D File=VY_DATA_D.:E05TSI                              WED 07/30/97 09:06 Page:3
              1718    1   DCL 1 VYR$SAT                 ALIGNED   BASED,
              1719    1         2 VALUE        UBIN(36)  ALIGNED,
              1720    1         2 SEG   REDEF  VALUE,
              1721    1           3 OFFSET     UBIN(18)  UNAL,
              1722    1           3 *          BIT(6)    UNAL,
              1723    1           3 SEGID      UBIN(12)  UNAL,
              1724    1         2 BELOW        BIT(1)    UNAL,
              1725    1         2 *            BIT(17)   UNAL,
              1726    1         2 NODE#        UBIN(18)  UNAL;
       18     1729        %VY$SC;
              1730        %LSET LISTDIR='0'B;

              1743    1   /*******************************************************************************
              1744    1   *                                                                              *
              1745    1   *                          VY$SC                                                 *
              1746    1   *                                                                              *
              1747    1   *******************************************************************************/

              1751    1   DCL 1 VY$SC               BASED     ALIGNED,
              1752    1         2 TYPE              UBIN(9)   UNAL,
              1753    1         2 EMPTY             BIT (1)   UNAL,
              1754    1         2 ATTR                        UNAL,
              1755    1           3 INT              UBIN(2)   UNAL,
              1756    1           3 SEGMENT          BIT(1)    UNAL,
              1757    1           3 ALL              BIT(1)    UNAL,
              1758    1           3 PRE_DCB          BIT(1) UNAL, /* '1'B => true; '0'B => false        */
              1759    1           3 MES_INIT         BIT (1)   UNAL,
              1760    1           3 ALIGN            UBIN(2)   UNAL,
              1761    1         2 ADDRESS           UBIN(18)  UNAL,
              1762    1         2 NAME_DISP         SBIN HALF UNAL,
              1763    1         2 SIZE              UBIN(18)  UNAL,
              1764    1         2 NODE#             UBIN(18)  UNAL,
              1765    1         2 COM_LINK          UBIN(18)  UNAL;

              1774    1   /*******************************************************************************
              1775    1   *                                                                              *
              1776    1   *                          VY$SECT                                                 *
PL6.E3A0      #001=VY_DATA_D File=VY_DATA_D.:E05TSI                              WED 07/30/97 09:06 Page:4
              1777    1   *                                                                              *
              1778    1   *******************************************************************************/

              1782    1   DCL 1 VY$SECT       BASED     ALIGNED,
              1783    1         2 TYPE              UBIN(9)   UNAL,
              1784    1         2 EMPTY             BIT (1)   UNAL,
              1785    1         2 ATTR                        UNAL,
              1786    1           3 INT              UBIN(2)  UNAL,
              1787    1           3 SEGMENT          BIT (1)  UNAL,
              1788    1           3 *                UBIN(3)  UNAL,
              1789    1           3 ALIGN            UBIN(2)  UNAL,
              1790    1         2 SIZE              UBIN(18)  UNAL,
              1791    1         2 NAME_DISP         SBIN HALF UNAL,
              1792    1         2 SEG_NPOINTER      UBIN(18)  UNAL;
       19     1795        %TMPLT;
              1796        %LSET LISTDIR='0'B;

              1807    1   /*******************************************************************************
              1808    1   *                                                                              *
              1809    1   *                          TMPLT                                                 *
              1810    1   *                                                                              *
              1811    1   *******************************************************************************/

              1816    1   DCL 1 VY$TMPLT           ALIGNED BASED, /* Template for defs                  */
              1817    1         2 A(0:3)       UBIN(18)  UNAL,    /* Array access                       */
              1818    1         2 A_SBIN(0:3) REDEF A    SBIN HALF UNAL,
              1819    1         2 W       REDEF     A,            /* By name                            */
              1820    1           3 WORD0       UBIN(36)  UNAL,   /* First word                         */
              1821    1           3 WORD1       UBIN(36)  UNAL;   /* Second word                        */
       20     1824        %VY$NODE;
              1825        %LSET LISTDIR='0'B;

              1836    1   /*******************************************************************************
              1837    1   *                                                                              *
              1838    1   *                          VY$NODE                                                 *
              1839    1   *                                                                              *
              1840    1   *******************************************************************************/
PL6.E3A0      #001=VY_DATA_D File=VY_DATA_D.:E05TSI                              WED 07/30/97 09:06 Page:5

              1856    1   DCL 1 VY$NODE      ALIGNED    BASED,
              1857    1         2 SON$ PTR /*(ADDR(NIL))*/, /* Son pointer                      */
              1858    1         2 BROTHER$ PTR /*(ADDR(NIL))*/, /* Brother pointer              */
              1859    1         2 FATHER$ PTR /*(ADDR(NIL))*/, /* Father pointer                */
              1860    1         2 PATH$ PTR /*(ADDR(NIL))*/, /* Path   pointer                  */
              1861    1         2 HEAD$       PTR /*(ADDR(NIL))*/, /* Head pointer to
              1862                              to list of file nodes for this node            */
              1863    1         2 TAIL$ PTR /*(ADDR(NIL))*/, /* Tail pointer to list            */
              1864    1         2 SHARED_LIB_HEAD$ PTR /*(ADDR(NIL))*/,
              1864                  /* Head pointer to shared library list */
              1865    1         2 LIB_HEAD$         PTR /*(ADDR(NIL))*/,
              1865                  /* Head pointer to list of shared libraries
              1866                                          which have been mapped to included libraries */
              1867    1         2 NUM          UBIN(36)  UNAL,    /* Node number                        */
              1868    1         2 DEPTH          UBIN(36)  UNAL,  /* Depth; ROOT=0*/
              1869    1         2 ADDR_START_A(0:2/*@ROS*/) SBIN WORD /*(0*3)*/, /* Array            */
              1870    1         2 ADDR_START REDEF  ADDR_START_A,
              1871    1           3 RDATA       SBIN WORD,   /* First address for this node in data     */
              1872    1           3 RPROC       SBIN WORD,   /* First address for this node in proc     */
              1873    1           3 ROS       SBIN WORD,          /* Last address for program in ros    */
              1874    1         2 ADDR_STOP_A(0:2/*@ROS*/) SBIN WORD /*(-1*3)*/, /* Array            */
              1875    1         2 ADDR_STOP  REDEF  ADDR_STOP_A,
              1876    1           3 RDATA       SBIN WORD,        /* Last address for this node in data */
              1877    1           3 RPROC       SBIN WORD,        /* Last address for this node in proc */
              1878    1           3 ROS       SBIN WORD,          /* Last address for program in ros    */
              1879    1         2 START_PAGE#_A(0:2/*@ROS*/) SBIN WORD /*(0*3)*/, /* Array           */
              1880    1         2 START_PAGE# REDEF START_PAGE#_A,
              1881    1           3 RDATA       SBIN WORD,   /* First page    for this node in data     */
              1882    1           3 RPROC       SBIN WORD,   /* First page    for this node in proc     */
              1883    1           3 ROS       SBIN WORD,          /* First page   for program in ros    */
              1884    1         2 STOP_PAGE#_A(0:2/*@ROS*/) SBIN WORD /*(-1*3)*/, /* Array*/
              1885    1         2 STOP_PAGE#  REDEF STOP_PAGE#_A,
              1886    1           3 RDATA       SBIN WORD,   /* Last  page    for this node in data     */
              1887    1           3 RPROC       SBIN WORD,   /* Last  page    for this node in proc     */
              1888    1           3 ROS       SBIN WORD,          /* Last  page   for program in ros    */
              1889    1         2 START_SC_ALL$ PTR /*(ADDR(NIL))*/,
PL6.E3A0      #001=VY_DATA_D File=VY_DATA_D.:E05TSI                              WED 07/30/97 09:06 Page:6
              1889                  /* Starting pointer for common sections for this node */
              1890    1         2 STOP_SC_ALL$ PTR /*(ADDR(NIL))*/,
              1890                  /* Stopping pointer for common sections for this node */
              1891    1         2 L_START,
              1892    1           3 SN$ PTR /*(ADDR(NIL))*/, /* Segment definition names        */
              1893    1           3 DN$ PTR /*(ADDR(NIL))*/, /* Def names                       */
              1894    1           3 RN$ PTR /*(ADDR(NIL))*/, /* Ref names                       */
              1895    1           3 SC$ PTR /*(ADDR(NIL))*/, /* Sections                        */
              1896    1           3 ED$ PTR /*(ADDR(NIL))*/, /* Entry defs*/
              1897    1           3 ER$ PTR /*(ADDR(NIL))*/, /* Entry refs*/
              1898    1           3 DD$ PTR /*(ADDR(NIL))*/, /* Data defs                       */
              1899    1           3 DR$ PTR /*(ADDR(NIL))*/, /* Data refs                       */
              1900    1           3 SD$ PTR /*(ADDR(NIL))*/, /* Seg defs                        */
              1901    1           3 SR$ PTR /*(ADDR(NIL))*/, /* Seg refs                        */
              1902    1         2 L_START_A$(0:9)     REDEF L_START PTR,
              1903    1         2 L_STOP,
              1904    1           3 SN$ PTR /*(ADDR(NIL))*/, /* Segment definition names        */
              1905    1           3 DN$ PTR /*(ADDR(NIL))*/, /* Def names                       */
              1906    1           3 RN$ PTR /*(ADDR(NIL))*/, /* Ref names                       */
              1907    1           3 SC$ PTR /*(ADDR(NIL))*/, /* Sections                        */
              1908    1           3 ED$ PTR /*(ADDR(NIL))*/, /* Entry defs*/
              1909    1           3 ER$ PTR /*(ADDR(NIL))*/, /* Entry refs*/
              1910    1           3 DD$ PTR /*(ADDR(NIL))*/, /* Data defs                       */
              1911    1           3 DR$ PTR /*(ADDR(NIL))*/, /* Data refs                       */
              1912    1           3 SD$ PTR /*(ADDR(NIL))*/, /* Seg defs                        */
              1913    1           3 SR$ PTR /*(ADDR(NIL))*/, /* Seg refs                        */
              1914    1         2 L_STOP_A$(0:9) REDEF   L_STOP    PTR,
              1915    1         2 L_SIZE,
              1916    1           3 SN      UBIN /*(0)*/, /* Segment definition names           */
              1917    1           3 DN      UBIN /*(0)*/, /* Def names                          */
              1918    1           3 RN      UBIN /*(0)*/, /* Ref names                          */
              1919    1           3 SC      UBIN /*(0)*/, /* Sections                           */
              1920    1           3 ED      UBIN /*(0)*/, /* Entry defs*/
              1921    1           3 ER      UBIN /*(0)*/, /* Entry refs*/
              1922    1           3 DD      UBIN /*(0)*/, /* Data defs                          */
              1923    1           3 DR      UBIN /*(0)*/, /* Data refs                          */
              1924    1           3 SD      UBIN /*(0)*/, /* Seg defs                           */
PL6.E3A0      #001=VY_DATA_D File=VY_DATA_D.:E05TSI                              WED 07/30/97 09:06 Page:7
              1925    1           3 SR      UBIN /*(0)*/, /* Seg refs                           */
              1926    1         2 L_SIZE_A(0:9)  REDEF   L_SIZE    UBIN,
              1927    1         2 L_PREV_SIZE,
              1928    1           3 SN      UBIN /*(0)*/, /* Segment definition names           */
              1929    1           3 DN      UBIN /*(0)*/, /* Def names                          */
              1930    1           3 RN      UBIN /*(0)*/, /* Ref names                          */
              1931    1           3 SC      UBIN /*(0)*/, /* Sections                           */
              1932    1           3 ED      UBIN /*(0)*/, /* Entry defs*/
              1933    1           3 ER      UBIN /*(0)*/, /* Entry refs*/
              1934    1           3 DD      UBIN /*(0)*/, /* Data defs                          */
              1935    1           3 DR      UBIN /*(0)*/, /* Data refs                          */
              1936    1           3 SD      UBIN /*(0)*/, /* Seg defs                           */
              1937    1           3 SR      UBIN /*(0)*/, /* Seg refs                           */
              1938    1         2 L_PREV_SIZE_A(0:9)  REDEF   L_PREV_SIZE    UBIN,
              1939    1         2 BIT_MAP                ALIGNED,
              1940    1           3 DATA                  ALIGNED,
              1941    1             4 BITS(0:255)          BIT(1)    UNAL /*('0'B*256)*/,
              1942    1           3 RPROC                 ALIGNED,
              1943    1             4 BITS(0:255)          BIT(1)    UNAL /*('0'B*256)*/,
              1944    1           3 ROS                   ALIGNED,
              1945    1             4 BITS(0:255)          BIT(1)    UNAL /*('0'B*256)*/,
              1946    1         2 L_SC_START,
              1947    1           3 SC_BLK_COM$ PTR /*(ADDR(NIL))*/, /* Blank common            */
              1948    1           3 SC_ROOT_LBL_COM$ PTR /*(ADDR(NIL))*/, /* Root labelled common */
              1949    1           3 SC_LBL_COM$ PTR /*(ADDR(NIL))*/, /* Labelled common         */
              1950    1           3 SC_DCB$ PTR /*(ADDR(NIL))*/, /* Dcbs                        */
              1951    1         2 L_SC_START_A$(0:3)  REDEF L_SC_START PTR,
              1952    1         2 L_SC_STOP,
              1953    1           3 SC_BLK_COM$ PTR /*(ADDR(NIL))*/, /* Blank common            */
              1954    1           3 SC_ROOT_LBL_COM$ PTR /*(ADDR(NIL))*/, /* Root labelled common */
              1955    1           3 SC_LBL_COM$ PTR /*(ADDR(NIL))*/, /* Labelled common         */
              1956    1           3 SC_DCB$ PTR /*(ADDR(NIL))*/, /* Dcbs                        */
              1957    1         2 L_SC_STOP_A$(0:3)   REDEF L_SC_STOP  PTR,
              1958    1         2 PROMOTE_HEAD,
              1959    1           3 BLK_COM$              PTR /*(ADDR(NIL))*/,
              1960    1           3 LBL_COM$              PTR /*(ADDR(NIL))*/,
              1961    1         2 PROMOTE_HEAD_A$(0:1) REDEF PROMOTE_HEAD     PTR,
PL6.E3A0      #001=VY_DATA_D File=VY_DATA_D.:E05TSI                              WED 07/30/97 09:06 Page:8
              1962    1         2 PROMOTE_TAIL,
              1963    1           3 BLK_COM$              PTR /*(ADDR(NIL))*/,
              1964    1           3 LBL_COM$              PTR /*(ADDR(NIL))*/,
              1965    1         2 PROMOTE_TAIL_A$(0:1) REDEF PROMOTE_TAIL     PTR,
              1966    1         2 HAVE_ASL          BIT(1)    UNAL /*('0'B)*/,
              1967    1         2 ALL_BLK_COM          BIT(1)    UNAL /*('0'B)*/,
              1968    1         2 *                 BIT(34)   UNAL /*('0'B)*/,
              1969    1         2 BLANK_COMMON$     PTR       ALIGNED /*(ADDR(NIL))*/;

       21     1973        %VY$LST;
              1974        %LSET LISTDIR='0'B;

              1985    1   /*******************************************************************************
              1986    1   *                                                                              *
              1987    1   *                          VY$LST                                                 *
              1988    1   *                                                                              *
              1989    1   *******************************************************************************/

              1994    1   DCL 1 VY$LST                        ALIGNED BASED,
              1995    1         2 LINK$        PTR,               /* Link to next item                  */
              1996    1         2 TYPE         UBIN( 18) UNAL,    /* Type                               */
              1997    1         2 SUB_TYPE     UBIN( 18) UNAL,    /* Sub-type                           */
              1998    1         2 OBJECT_NAME$ PTR,               /* Pointer to object unit name        */
              1999    1         2 SC_HEAD$     PTR,               /* Head pointer to section link list  */
              2000    1         2 SC_TAIL$     PTR,               /* Tail pointer to section link list  */
              2001    1         2 P,
              2002    1           3 NAME_       ALIGNED,
              2003    1             4 BOUND      UBIN(20)  UNAL,
              2004    1             4 FLAGSV     UBIN(11)  UNAL,
              2005    1             4 *          BIT(5)    UNAL,
              2006    1             4 NAME$      PTR,
              2007    1           3 ACCT_       ALIGNED,
              2008    1             4 BOUND      UBIN(20)  UNAL,
              2009    1             4 FLAGSV     UBIN(11)  UNAL,
              2010    1             4 *          BIT(5)    UNAL,
              2011    1             4 ACCT$      PTR,
              2012    1           3 PASS_       ALIGNED,
PL6.E3A0      #001=VY_DATA_D File=VY_DATA_D.:E05TSI                              WED 07/30/97 09:06 Page:9
              2013    1             4 BOUND      UBIN(20)  UNAL,
              2014    1             4 FLAGSV     UBIN(11)  UNAL,
              2015    1             4 *          BIT(5)    UNAL,
              2016    1             4 PASS$      PTR,
              2017    1           3 SN_         ALIGNED,
              2018    1             4 BOUND      UBIN(20)  UNAL,
              2019    1             4 FLAGSV     UBIN(11)  UNAL,
              2020    1             4 *          BIT(5)    UNAL,
              2021    1             4 SN$        PTR,
              2022    1           3 WSN_        ALIGNED,
              2023    1             4 BOUND      UBIN(20)  UNAL,
              2024    1             4 FLAGSV     UBIN(11)  UNAL,
              2025    1             4 *          BIT(5)    UNAL,
              2026    1             4 WSN$       PTR,
              2027    1           3 B           ALIGNED,
              2028    1             4 RES        BIT(1)    UNAL,
              2029    1             4 ASN        BIT(1)    UNAL,
              2030    1             4 *          BIT(34)   UNAL,
              2031    1           3 RES         CHAR(4)   ALIGNED,
              2032    1           3 ASN         UBIN(36)  ALIGNED;
       22     2035        %EJECT;
PL6.E3A0      #001=VY_DATA_D File=VY_DATA_D.:E05TSI                              WED 07/30/97 09:06 Page:10
       23     2036        /* ! R ! */
       24     2037    1   DCL 1 VY_RU_HEAD STATIC SYMDEF,
       25     2038    1         2 PRIV BIT ( 36) UNAL INIT('0'B),
       26     2039    1         2 VPPGS UBIN( 9) UNAL INIT(0),
       27     2040    1         2 VDPGS UBIN( 9) UNAL INIT(0),
       28     2041    1         2 PBIT(0:8) BIT ( 1) UNAL INIT('0'B*0),
       29     2042    1         2 BITS REDEF PBIT,
       30     2043    1           3 S BIT ( 1) UNAL,
       31     2044    1           3 L BIT ( 1) UNAL,
       32     2045    1           3 A BIT ( 1) UNAL,
       33     2046    1           3 OVERLAID BIT ( 1) UNAL,
       34     2047    1           3 PROCACC BIT ( 1) UNAL,
       35     2048    1           3 NOCHARGE BIT ( 1) UNAL,
       36     2049    1           3 * BIT ( 1) UNAL,
       37     2050    1           3 * BIT ( 1) UNAL,
       38     2051    1           3 * BIT ( 1) UNAL,
       39     2052    1         2 SEVLEV UBIN( 9) UNAL INIT(0),
       40     2053    1         2 RDATA UBIN(18) UNAL INIT(0),
       41     2054    1         2 RPROC UBIN(18) UNAL INIT(0),
       42     2055    1         2 BIAS UBIN(18) UNAL INIT(0),
       43     2056    1         2 START UBIN(18) UNAL INIT(0),
       44     2057    1         2 DCB_NUM UBIN(18) UNAL INIT(0),
       45     2058    1         2 DCBPTR UBIN(18) UNAL INIT(0),
       46     2059    1         2 TREE_DISP UBIN(18) UNAL INIT(0),
       47     2060    1         2 TCB_SIZE UBIN(18) UNAL INIT(0),
       48     2061    1         2 PR_SIZE UBIN(18) UNAL INIT(0),
       49     2062    1         2 L UNAL,
       50     2063    1           3 DN_SIZE UBIN(18) UNAL INIT(0),
       51     2064    1           3 ED_SIZE UBIN(18) UNAL INIT(0),
       52     2065    1           3 DD_SIZE UBIN(18) UNAL INIT(0),
       53     2066    1           3 SD_SIZE UBIN(18) UNAL INIT(0),
       54     2067    1         2 L_A(0:3) REDEF L UBIN(18) UNAL,
       55     2068    1         2 ROS_SIZE UBIN(18) UNAL INIT(0),
       56     2069    1         2 VERSION UBIN(9) UNAL INIT( @LINK_VERSION# ),
       57     2070    1         2 MAP_BITS UNAL,
       58     2071    1           3 ED UNAL,
       59     2072    1             4 MULTIPLE BIT (1) UNAL INIT('0'B),
PL6.E3A0      #001=VY_DATA_D File=VY_DATA_D.:E05TSI                              WED 07/30/97 09:06 Page:11
       60     2073    1             4 CON BIT (1) UNAL INIT('0'B),
       61     2074    1             4 PRIMARY BIT (1) UNAL INIT('0'B),
       62     2075    1             4 SECONDARY BIT (1) UNAL INIT('0'B),
       63     2076    1           3 DD UNAL,
       64     2077    1             4 MULTIPLE BIT (1) UNAL INIT('0'B),
       65     2078    1             4 CON BIT (1) UNAL INIT('0'B),
       66     2079    1             4 PRIMARY BIT (1) UNAL INIT('0'B),
       67     2080    1             4 SECONDARY BIT (1) UNAL INIT('0'B),
       68     2081    1           3 SD UNAL,
       69     2082    1             4 MULTIPLE BIT (1) UNAL INIT('0'B),
       70     2083    1             4 CON BIT (1) UNAL INIT('0'B),
       71     2084    1             4 PRIMARY BIT (1) UNAL INIT('0'B),
       72     2085    1             4 SECONDARY BIT (1) UNAL INIT('0'B),
       73     2086    1         2 MAP_BITS_A(0:2) REDEF MAP_BITS UNAL,
       74     2087    1           3 MULTIPLE BIT(1) UNAL,
       75     2088    1           3 CON BIT(1) UNAL,
       76     2089    1           3 PRIMARY BIT(1) UNAL,
       77     2090    1           3 SECONDARY BIT(1) UNAL,
       78     2091    1         2 * BIT(15) UNAL INIT('0'B),
       79     2092    1         2 DATA_SEGMENT (0:5) UBIN UNAL INIT(0*0),
       80     2093    1         2 DATA_SEG (0:5) REDEF DATA_SEGMENT,
       81     2094    1           3 SIZ UBIN HALF UNAL,           /* Data seg word size */
       82     2095    1           3 * UBIN BYTE UNAL,
       83     2096    1           3 PROTECTION UBIN BYTE UNAL,    /* Date seg. protection */
       84     2097    1         2 LIB UNAL,
       85     2098    1           3 COUNT UBIN( 9) UNAL INIT(0),
       86     2099    1           3 CHARS CHAR(31) UNAL
       87     2100    1             INIT('                               '),
       88     2101    1         2 ALIB UNAL,
       89     2102    1           3 COUNT UBIN( 9) UNAL INIT(0),
       90     2103    1           3 CHARS CHAR(31) UNAL
       91     2104    1             INIT('                               ');
       92     2105    1   DCL 1 VY_RU_HEAD_BUF STATIC SYMDEF,
       93     2106    1         2 PRIV BIT ( 36) UNAL INIT('0'B),
       94     2107    1         2 VPPGS UBIN( 9) UNAL INIT(0),
       95     2108    1         2 VDPGS UBIN( 9) UNAL INIT(0),
       96     2109    1         2 PBIT(0:8) BIT ( 1) UNAL INIT('0'B*0),
PL6.E3A0      #001=VY_DATA_D File=VY_DATA_D.:E05TSI                              WED 07/30/97 09:06 Page:12
       97     2110    1         2 BITS REDEF PBIT,
       98     2111    1           3 S BIT ( 1) UNAL,
       99     2112    1           3 L BIT ( 1) UNAL,
      100     2113    1           3 A BIT ( 1) UNAL,
      101     2114    1           3 OVERLAID BIT ( 1) UNAL,
      102     2115    1           3 PROCACC BIT ( 1) UNAL,
      103     2116    1           3 NOCHARGE BIT ( 1) UNAL,
      104     2117    1           3 * BIT ( 1) UNAL,
      105     2118    1           3 * BIT ( 1) UNAL,
      106     2119    1           3 * BIT ( 1) UNAL,
      107     2120    1         2 SEVLEV UBIN( 9) UNAL INIT(0),
      108     2121    1         2 RDATA UBIN(18) UNAL INIT(0),
      109     2122    1         2 RPROC UBIN(18) UNAL INIT(0),
      110     2123    1         2 BIAS UBIN(18) UNAL INIT(0),
      111     2124    1         2 START UBIN(18) UNAL INIT(0),
      112     2125    1         2 DCB_NUM UBIN(18) UNAL INIT(0),
      113     2126    1         2 DCBPTR UBIN(18) UNAL INIT(0),
      114     2127    1         2 TREE_DISP UBIN(18) UNAL INIT(0),
      115     2128    1         2 TCB_SIZE UBIN(18) UNAL INIT(0),
      116     2129    1         2 PR_SIZE UBIN(18) UNAL INIT(0),
      117     2130    1         2 L UNAL,
      118     2131    1           3 DN_SIZE UBIN(18) UNAL INIT(0),
      119     2132    1           3 ED_SIZE UBIN(18) UNAL INIT(0),
      120     2133    1           3 DD_SIZE UBIN(18) UNAL INIT(0),
      121     2134    1           3 SD_SIZE UBIN(18) UNAL INIT(0),
      122     2135    1         2 L_A(0:3) REDEF L UBIN(18) UNAL,
      123     2136    1         2 ROS_SIZE UBIN(18) UNAL INIT(0),
      124     2137    1         2 VERSION UBIN(9) UNAL INIT( @LINK_VERSION# ),
      125     2138    1         2 MAP_BITS UNAL,
      126     2139    1           3 ED UNAL,
      127     2140    1             4 MULTIPLE BIT (1) UNAL INIT('0'B),
      128     2141    1             4 CON BIT (1) UNAL INIT('0'B),
      129     2142    1             4 PRIMARY BIT (1) UNAL INIT('0'B),
      130     2143    1             4 SECONDARY BIT (1) UNAL INIT('0'B),
      131     2144    1           3 DD UNAL,
      132     2145    1             4 MULTIPLE BIT (1) UNAL INIT('0'B),
      133     2146    1             4 CON BIT (1) UNAL INIT('0'B),
PL6.E3A0      #001=VY_DATA_D File=VY_DATA_D.:E05TSI                              WED 07/30/97 09:06 Page:13
      134     2147    1             4 PRIMARY BIT (1) UNAL INIT('0'B),
      135     2148    1             4 SECONDARY BIT (1) UNAL INIT('0'B),
      136     2149    1           3 SD UNAL,
      137     2150    1             4 MULTIPLE BIT (1) UNAL INIT('0'B),
      138     2151    1             4 CON BIT (1) UNAL INIT('0'B),
      139     2152    1             4 PRIMARY BIT (1) UNAL INIT('0'B),
      140     2153    1             4 SECONDARY BIT (1) UNAL INIT('0'B),
      141     2154    1         2 MAP_BITS_A(0:2) REDEF MAP_BITS UNAL,
      142     2155    1           3 MULTIPLE BIT(1) UNAL,
      143     2156    1           3 CON BIT(1) UNAL,
      144     2157    1           3 PRIMARY BIT(1) UNAL,
      145     2158    1           3 SECONDARY BIT(1) UNAL,
      146     2159    1         2 * BIT(15) UNAL INIT('0'B),
      147     2160    1         2 DATA_SEGMENT (0:5) UBIN UNAL INIT(0*0),
      148     2161    1         2 DATA_SEG (0:5) REDEF DATA_SEGMENT,
      149     2162    1           3 SIZ UBIN HALF UNAL,           /* Data seg word size */
      150     2163    1           3 * UBIN BYTE UNAL,
      151     2164    1           3 PROTECTION UBIN BYTE UNAL,    /* Date seg. protection */
      152     2165    1         2 LIB UNAL,
      153     2166    1           3 COUNT UBIN( 9) UNAL INIT(0),
      154     2167    1           3 CHARS CHAR(31) UNAL
      155     2168    1             INIT('                               '),
      156     2169    1         2 ALIB UNAL,
      157     2170    1           3 COUNT UBIN( 9) UNAL INIT(0),
      158     2171    1           3 CHARS CHAR(31) UNAL
      159     2172    1             INIT('                               ');
      160     2173        %EJECT;
PL6.E3A0      #001=VY_DATA_D File=VY_DATA_D.:E05TSI                              WED 07/30/97 09:06 Page:14
      161     2174        /*
      162     2175              BUFFER FOR OBJECT UNIT NAME FOR LIBRARY SEARCHES
      163     2176        */
      164     2177    1   DCL 1 VY_L_REC_BUF ALIGNED STATIC SYMDEF,
      165     2178    1         2 COUNT UBIN(9) UNAL INIT(0),
      166     2179    1         2 CHARS CHAR(511) UNAL INIT(' ');
      167     2180        /**/
      168     2181        /**/
      169     2182        /**/
      170     2183    1   DCL 1 VY_OU_HEAD STATIC SYMDEF,
      171     2184    1         2 UTS UBIN(36) UNAL INIT(0),
      172     2185    1         2 CMPLRID UNAL,
      173     2186    1           3 *      UBIN(9)   UNAL INIT(0),
      174     2187    1           3 ID     UBIN(9)   UNAL INIT(0),
      175     2188    1           3 VERS_LETTER CHAR(1) UNAL INIT(BINASC(0)),
      176     2189    1           3 VERS_NUMBER UBIN BYTE UNAL INIT(0),
      177     2190    1         2 START_ADDRESS,
      178     2191    1           3 OPERAND_TYPE UBIN( 4) UNAL INIT(0),
      179     2192    1           3 * BIT ( 5) UNAL INIT('0'B),
      180     2193    1           3 OPERAND UBIN( 9) UNAL INIT(0),
      181     2194    1           3 OFFSET UBIN(18) UNAL INIT(0),
      182     2195    1         2 SEVLEV UBIN(18) UNAL INIT(0),
      183     2196    1         2 LB_SIZE UBIN(18) UNAL INIT(0),
      184     2197    1         2 PR_SIZE UBIN(18) UNAL INIT(0),
      185     2198    1         2 RL_SIZE UBIN(18) UNAL INIT(0),
      186     2199    1         2 REC_A(0:7) UNAL,
      187     2200    1           3 SIZE UBIN(18) UNAL INIT(0*0),
      188     2201    1           3 PAGE UBIN(18) UNAL INIT(0*0),
      189     2202    1         2 REC REDEF REC_A,
      190     2203    1           3 DN_SIZE UBIN(18) UNAL ,
      191     2204    1           3 DN_PAGE UBIN(18) UNAL ,
      192     2205    1           3 RN_SIZE UBIN(18) UNAL ,
      193     2206    1           3 RN_PAGE UBIN(18) UNAL ,
      194     2207    1           3 ED_SIZE UBIN(18) UNAL ,
      195     2208    1           3 ED_PAGE UBIN(18) UNAL ,
      196     2209    1           3 ER_SIZE UBIN(18) UNAL ,
      197     2210    1           3 ER_PAGE UBIN(18) UNAL ,
PL6.E3A0      #001=VY_DATA_D File=VY_DATA_D.:E05TSI                              WED 07/30/97 09:06 Page:15
      198     2211    1           3 DD_SIZE UBIN(18) UNAL ,
      199     2212    1           3 DD_PAGE UBIN(18) UNAL ,
      200     2213    1           3 DR_SIZE UBIN(18) UNAL ,
      201     2214    1           3 DR_PAGE UBIN(18) UNAL ,
      202     2215    1           3 SD_SIZE UBIN(18) UNAL ,
      203     2216    1           3 SD_PAGE UBIN(18) UNAL ,
      204     2217    1           3 SR_SIZE UBIN(18) UNAL ,
      205     2218    1           3 SR_PAGE UBIN(18) UNAL ,
      206     2219    1         2 LIB,
      207     2220    1           3 COUNT UBIN( 9) UNAL INIT(0),
      208     2221    1           3 NAME CHAR(31) UNAL
      209     2222    1             INIT('                               '),
      210     2223    1         2 ALIB,
      211     2224    1           3 COUNT UBIN( 9) UNAL INIT(0),
      212     2225    1           3 NAME CHAR(31) UNAL
      213     2226    1             INIT('                               ');
      214     2227        %EJECT;
PL6.E3A0      #001=VY_DATA_D File=VY_DATA_D.:E05TSI                              WED 07/30/97 09:06 Page:16
      215     2228    1   DCL   VY_SC_START$         PTR                 STATIC    SYMDEF    INIT(ADDR(NIL));
      216     2229    1   DCL   VY_SC_ROOT_LBL_COM     UBIN(36)            STATIC    SYMDEF INIT(0);
      217     2230    1   DCL   VY_SC_LBL_COM       UBIN(36)            STATIC    SYMDEF INIT(0);
      218     2231    1   DCL   VY_SC_BLK_COM       UBIN(36)            STATIC    SYMDEF INIT(0);
      219     2232    1   DCL   VY_LAST_SC$         PTR                 STATIC    SYMDEF    INIT(ADDR(NIL));
      220     2233    1   DCL   VY_LAST_SC_BASE     UBIN(36)            STATIC    SYMDEF INIT(0);
      221     2234    1   DCL   VY_CURR_SC_ENTRIES  UBIN(36)            STATIC    SYMDEF INIT(0);
      222     2235        /* ! R !DCL   VY_OD_SEARCH      BIT(1)     SYMREF;
      223     2236        DCL   VY_ON_SEARCH$    PTR     SYMREF;
      224     2237        DCL   VY_SRCH_LST$     PTR     SYMREF;
      225     2238        */
      226     2239        /**/
      227     2240        /**/
      228     2241    1   DCL VY_TREE_ADR UBIN(36) STATIC SYMDEF INIT(0);
              2241            /* DISPLACEMENT INTO ROS FOR START OF TREE TABLE */
      229     2242    1   DCL VY_TREE_NAME_POOL UBIN(36) STATIC SYMDEF INIT(0);
              2242            /* ACCUMULATING SIZE OF NAME POOL FOR TREE TABLE */
      230     2243    1   DCL   VY_TREE_SLIB_NAME   UBIN(36)            STATIC    SYMDEF    INIT(0);
      231     2244                            /* MAX SIZE OF ALL LIBRARY NAMES ENCOUNTERED (TEXTC->WORD)*/
      232     2245    1   DCL   VY_TREE_ESZ         UBIN(36)            STATIC   SYMDEF INIT(5);
      233     2246    1   DCL   VY_TREE_PRE         UBIN(36)            STATIC   SYMDEF INIT(3);
      234     2247    1   DCL   VY_TREE_SIZE        UBIN(36)            STATIC   SYMDEF INIT(0);
      235     2248    1   DCL   VY_TREE_DISP        UBIN(36)            STATIC   SYMDEF INIT(0);
      236     2249    1   DCL   VY_TREE_LIB         UBIN(36)            STATIC   SYMDEF INIT(0);
      237     2250    1   DCL   VY_DCB_USER         UBIN(36)            STATIC   SYMDEF INIT(0);
      238     2251        %EJECT;
PL6.E3A0      #001=VY_DATA_D File=VY_DATA_D.:E05TSI                              WED 07/30/97 09:06 Page:17
      239     2252    1   DCL   VY_DUMMY            UBIN(36)            STATIC   SYMDEF INIT(0);
      240     2253    1   DCL 1 VY_CBUF STATIC SYMDEF,
      241     2254    1         2 CHARS_A(0:132) CHAR( 1) UNAL INIT(' '*0),
      242     2255    1         2 CHARS REDEF CHARS_A CHAR(133) UNAL;
      243     2256        /*
      244     2257              1-LINK    LINK
      245     2258              2-LYNX    LINK
      246     2259              3-LOAD    LINK
      247     2260              4-RUN     LINK, M$LDTR
      248     2261              5-MAP     MAP
      249     2262        */
      250     2263    1   DCL  VY_COMMAND          UBIN(36)            STATIC    SYMDEF    INIT(0);
      251     2264    1   DCL  VY_ON_OVER          UBIN(36)            STATIC    SYMDEF    INIT(0);
      252     2265    1   DCL  VY_FCG_SWITCH       BIT(1)        STATIC    SYMDEF    INIT('0'B);
      253     2266    1   DCL  VY_PASS             UBIN(36)            STATIC    SYMDEF    INIT(0);
      254     2267    1   DCL VY_DO_PASS1 UBIN(36) STATIC SYMDEF INIT(1);
              2267            /* SWITCH TO INDICATE DO PROCESSING FOR PASS1 */
      255     2268    1   DCL VY_DO_PASS2 UBIN(36) STATIC SYMDEF INIT(1);
              2268            /* SWITCH TO INDICATE DO PROCESSING FOR PASS2 */
      256     2269    1   DCL VY_COUNT_FID UBIN(36) STATIC SYMDEF INIT(0);
              2269            /* SWITCH TO INDICATE WHETHER TO COUNT FIDS */
      257     2270    1   DCL VY_FID_COUNT UBIN(36) STATIC SYMDEF INIT(0);
              2270            /* ACCUMULATED FID COUNT IF VY_COUNT_FID~=0 */
      258     2271    1   DCL VY_HAVE_ROOT_LBL_COM       BIT(1)    ALIGNED   STATIC    SYMDEF    INIT(@FALSE_B
              2271            );
      259     2272    1   DCL VY_GOT_ON_OVER UBIN(36) STATIC SYMDEF INIT(0);
              2272            /* SWITCH WHICH INDICATES WHETHER ON OR OVER WAS HIT*/
      260     2273    1   DCL VY_PRIMARY_ENTDEF_GOT BIT(1) STATIC SYMDEF INIT('0'B);
              2273            /* HAVE PRIMARY ENTDEF INDEX OR NOT */
      261     2274    1   DCL VY_LINK_UTS UBIN(36) STATIC SYMDEF INIT(0); /* UTS TO STAMP RUN FILE */
      262     2275    1   DCL VY_NODE_NUMBER SBIN WORD STATIC SYMDEF INIT(-1); /* NODE NUMBERS; >0=>TREE*/
      263     2276    1   DCL VY_ROOT$              PTR                 STATIC    SYMDEF    INIT(ADDR(NIL));
      264     2277    1   DCL VY_RUF$               PTR                 STATIC    SYMDEF    INIT(ADDR(NIL));
      265     2278    1   DCL VY_CURR$              PTR                 STATIC    SYMDEF    INIT(ADDR(NIL));
      266     2279    1   DCL VY_FCURR$             PTR                 STATIC    SYMDEF    INIT(ADDR(NIL));
      267     2280    1   DCL VY_OCURR$             PTR                 STATIC    SYMDEF    INIT(ADDR(NIL));
      268     2281    1   DCL 1 VY_NIL_V DALIGNED STATIC SYMDEF ,
PL6.E3A0      #001=VY_DATA_D File=VY_DATA_D.:E05TSI                              WED 07/30/97 09:06 Page:18
      269     2282    1         2 BOUND UBIN(20) UNAL INIT(SIZEV(NIL)),
      270     2283    1         2 FLAGSV UBIN(11) UNAL INIT(2045),
      271     2284    1         2 * BIT(5),
      272     2285    1         2 VY_NIL_V$ PTR INIT(ADDR(NIL));
      273     2286    1   DCL 1 VY_ERRORS STATIC SYMDEF,
      274     2287    1         2 MULTIPLE UBIN(36) ALIGNED INIT( 0),
      275     2288    1         2 UNSAT_A(0:1) UBIN(36) ALIGNED INIT( 0*0),
      276     2289    1         2 UNSAT REDEF UNSAT_A,
      277     2290    1           3 UNSAT_PRIMARY UBIN(36) ALIGNED,
      278     2291    1           3 UNSAT_SECONDARY UBIN(36) ALIGNED,
      279     2292    1         2 CONFLICT_A(0:2) UBIN(36) ALIGNED INIT( 0*0),
      280     2293    1         2 CONFLICT REDEF CONFLICT_A,
      281     2294    1           3 ALTRIT UBIN(36) ALIGNED,
      282     2295    1           3 PARM UBIN(36) ALIGNED,
      283     2296    1           3 CST UBIN(36) ALIGNED;
      284     2297    1   DCL VY_ERRORS_A(0:5) REDEF     VY_ERRORS  UBIN(36)ALIGNED;
      285     2298        /*    HIGHEST ERROR SEVERITY ENCOUNTERED                          */
      286     2299    1   DCL VY_ERR_SEV            UBIN(36)  ALIGNED STATIC SYMDEF    INIT( 0);
      287     2300        /*    STARTING ADDRESSES FOR EACH SECTION/SEGMENT                 */
      288     2301    1   DCL 1 VY_PROGRAM_BIAS STATIC SYMDEF,
      289     2302    1         2 A(0:2) UBIN(36) ALIGNED INIT( 0*0),
      290     2303    1         2 I REDEF A,
      291     2304    1           3 DATA UBIN(36) ALIGNED,
      292     2305    1           3 RPROC UBIN(36) ALIGNED,
      293     2306    1           3 ROS UBIN(36) ALIGNED;
      294     2307        /*    BIASES FOR EACH SECTION/SEGMENT                             */
      295     2308    1   DCL 1 VY_BIAS STATIC SYMDEF,
      296     2309    1         2 A(0:2) SBIN WORD ALIGNED INIT( 0*0),
      297     2310    1         2 I REDEF A,
      298     2311    1           3 DATA SBIN WORD ALIGNED,
      299     2312    1           3 RPROC SBIN WORD ALIGNED,
      300     2313    1           3 ROS SBIN WORD ALIGNED;
      301     2314        %EJECT;
PL6.E3A0      #001=VY_DATA_D File=VY_DATA_D.:E05TSI                              WED 07/30/97 09:06 Page:19
      302     2315        /*
      303     2316                        MEMORY VARIABLES FOR DYNAMIC SEGMENTS
      304     2317        */
      305     2318        /*    FIRST FREE WORD(RELATIVE) IN DATA SEGMENT(INDEX)       */
      306     2319    1   DCL VY_M_FREE(0:8)                  SBIN WORD STATIC    SYMDEF    INIT(0*0);
      307     2320        /*    LAST ALLOCATED(POSSIBLY UNUSED) WORD IN DATA SEGMENT(INDEXED) */
      308     2321    1   DCL VY_M_ALL(0:8)                   SBIN WORD STATIC    SYMDEF    INIT(0*0);
      309     2322        /*    BASE POINTER FOR SEGMENT                               */
      310     2323    1   DCL VY_M_BASE_PTR(0:8)              PTR       STATIC    SYMDEF    INIT(ADDR(NIL)*0);
      311     2324        /* TYPE -> SEGIDS */
      312     2325    1   DCL VY_M_SEGID(0:8)                   UBIN(36)  ALIGNED   STATIC    SYMDEF INIT(0*0)
              2325            ;
      313     2326        /*
      314     2327                        MEMORY VARIABLES FOR DYNAMIC PAGES
      315     2328        */
      316     2329        /*    FIRST FREE WORD(RELATIVE) IN DYNAMIC DATA PAGES     */
      317     2330    1   DCL VY_ONLINE UBIN(36) ALIGNED STATIC SYMDEF INIT(0);/*<>0 => ONLINE
      318     2331                                                =0 => NOT ONLINE */
      319     2332        %EJECT;
PL6.E3A0      #001=VY_DATA_D File=VY_DATA_D.:E05TSI                              WED 07/30/97 09:06 Page:20
      320     2333              %OPTIONS(NAME=VY_O,STCLASS="STATIC SYMDEF");
              2334        %LSET LISTEXP='1'B;
              2335        %LSET LISTSUB='1'B;
              2336        %LSET STR='STATIC SYMDEF         ';
              2337        %LSET STR1='UBIN(36)     ';
              2338        %IF '0'B;
              2344        %ELSE;
              2345        %LSET ATYPE=ALIGNED;
              2346        %LSET MAP_HB=9;
              2347        %LSET DUPL_HB=2;
              2348        %LSET SEV_HB=0;
              2349        %LSET PRI_HB=3;
              2350        %ENDIF;
              2351        %IF
              2353              '1'B;
              2354              %LSET INIT=INIT;
              2355              %IF '0'B;
              2388                   %ELSE;
              2389                        %IF '1'B;
              2390                    %LSET I_MAP    = 0;
              2391                    %LSET I_DUPLICATE  = 0;
              2392                    %LSET I_SEVERITY  = 4;
              2393                    %LSET I_NODEBUG  = 0;
              2394                    %LSET I_VALUE  = 0;
              2395                    %LSET I_DEF    = 0;
              2396                    %LSET I_REF    = 0;
              2397                    %LSET I_EDEF   = 0;
              2398                    %LSET I_EREF   = 0;
              2399                    %LSET I_DDEF   = 0;
              2400                    %LSET I_DREF   = 0;
              2401                    %LSET I_SDEF   = 0;
              2402                    %LSET I_SREF   = 0;
              2403                    %LSET I_INQUIRE  = 0;
              2404                    %LSET I_OVERWRITE  = 0;
              2405                    %LSET I_ERR    = 0;
              2406                    %LSET I_VAL    = 0;
              2407                   %ELSE;
PL6.E3A0      #001=VY_DATA_D File=VY_DATA_D.:E05TSI                              WED 07/30/97 09:06 Page:21
              2427              %ENDIF;
              2428        %ENDIF;
              2429           %ELSE;
              2448        %ENDIF;
              2449    1         DCL 1 VY_O          STATIC SYMDEF   ALIGNED,
              2450    1              2 PRIMARY_OPTION    ALIGNED,
              2451    1               3 MAP         UBIN(36)  ALIGNED   INIT(0)/**/,
              2452    1               3 DUPLICATE   UBIN(36)  ALIGNED   INIT(0)/**/,
              2453    1               3 SEVERITY    UBIN(36)  ALIGNED   INIT(4)/**/,
              2454    1               3 NODEBUG     UBIN(36)  ALIGNED   INIT(0)/**/,
              2455    1              2 PRIMARY_OPTION_A(0:3) REDEF     PRIMARY_OPTION UBIN(36),
              2456    1              2 MAP_ATTCH           ALIGNED,
              2457    1               3 *           UBIN(36)  ALIGNED   INIT(0)/**/,
              2458    1               3 DEF         UBIN(36)  ALIGNED   INIT(0)/**/,
              2459    1               3 REF         UBIN(36)  ALIGNED   INIT(0)/**/,
              2460    1               3 *           UBIN(36)  ALIGNED   INIT(0)/**/,
              2461    1               3 EDEF        UBIN(36)  ALIGNED   INIT(0)/**/,
              2462    1               3 EREF        UBIN(36)  ALIGNED   INIT(0)/**/,
              2463    1               3 DDEF        UBIN(36)  ALIGNED   INIT(0)/**/,
              2464    1               3 DREF        UBIN(36)  ALIGNED   INIT(0)/**/,
              2465    1               3 SDEF        UBIN(36)  ALIGNED   INIT(0)/**/,
              2466    1               3 SREF        UBIN(36)  ALIGNED   INIT(0)/**/,
              2467    1              2 MAP_A(0:9)          REDEF MAP_ATTCH   UBIN(36),
              2468    1              2 DUPL_ATTCH   ALIGNED,
              2469    1               3 INQUIRE     UBIN(36)  ALIGNED   INIT(0)/**/,
              2470    1               3 OVERWRITE   UBIN(36)  ALIGNED   INIT(0)/**/,
              2471    1               3 ERR         UBIN(36)  ALIGNED   INIT(0)/**/,
              2472    1              2 DUPL_A(0:2)         REDEF DUPL_ATTCH  UBIN(36),
              2473    1              2 SEV_ATTCH    ALIGNED,
              2474    1               3 VAL         UBIN(36)  ALIGNED   INIT(0)/**/,
              2475    1              2 SEV_A(0:0)          REDEF SEV_ATTCH   UBIN(36);
      321     2477        %EJECT;
PL6.E3A0      #001=VY_DATA_D File=VY_DATA_D.:E05TSI                              WED 07/30/97 09:06 Page:22
      322     2478        /* ! ! */
      323     2479              %OPTIONS(NAME=VY_O_CONSTANT,STCLASS="CONSTANT SYMDEF");
              2480        %LSET LISTEXP='1'B;
              2481        %LSET LISTSUB='1'B;
              2482        %LSET STR='CONSTANT SYMDEF         ';
              2483        %LSET STR1='UBIN(36)     ';
              2484        %IF '0'B;
              2490        %ELSE;
              2491        %LSET ATYPE=ALIGNED;
              2492        %LSET MAP_HB=9;
              2493        %LSET DUPL_HB=2;
              2494        %LSET SEV_HB=0;
              2495        %LSET PRI_HB=3;
              2496        %ENDIF;
              2497        %IF
              2499              '1'B;
              2500              %LSET INIT=INIT;
              2501              %IF '0'B;
              2534                   %ELSE;
              2535                        %IF '1'B;
              2536                    %LSET I_MAP    = 0;
              2537                    %LSET I_DUPLICATE  = 0;
              2538                    %LSET I_SEVERITY  = 4;
              2539                    %LSET I_NODEBUG  = 0;
              2540                    %LSET I_VALUE  = 0;
              2541                    %LSET I_DEF    = 0;
              2542                    %LSET I_REF    = 0;
              2543                    %LSET I_EDEF   = 0;
              2544                    %LSET I_EREF   = 0;
              2545                    %LSET I_DDEF   = 0;
              2546                    %LSET I_DREF   = 0;
              2547                    %LSET I_SDEF   = 0;
              2548                    %LSET I_SREF   = 0;
              2549                    %LSET I_INQUIRE  = 0;
              2550                    %LSET I_OVERWRITE  = 0;
              2551                    %LSET I_ERR    = 0;
              2552                    %LSET I_VAL    = 0;
PL6.E3A0      #001=VY_DATA_D File=VY_DATA_D.:E05TSI                              WED 07/30/97 09:06 Page:23
              2553                   %ELSE;
              2573              %ENDIF;
              2574        %ENDIF;
              2575           %ELSE;
              2594        %ENDIF;
              2595    1         DCL 1 VY_O_CONSTANT          CONSTANT SYMDEF   ALIGNED,
              2596    1              2 PRIMARY_OPTION    ALIGNED,
              2597    1               3 MAP         UBIN(36)  ALIGNED   INIT(0)/**/,
              2598    1               3 DUPLICATE   UBIN(36)  ALIGNED   INIT(0)/**/,
              2599    1               3 SEVERITY    UBIN(36)  ALIGNED   INIT(4)/**/,
              2600    1               3 NODEBUG     UBIN(36)  ALIGNED   INIT(0)/**/,
              2601    1              2 PRIMARY_OPTION_A(0:3) REDEF     PRIMARY_OPTION UBIN(36),
              2602    1              2 MAP_ATTCH           ALIGNED,
              2603    1               3 *           UBIN(36)  ALIGNED   INIT(0)/**/,
              2604    1               3 DEF         UBIN(36)  ALIGNED   INIT(0)/**/,
              2605    1               3 REF         UBIN(36)  ALIGNED   INIT(0)/**/,
              2606    1               3 *           UBIN(36)  ALIGNED   INIT(0)/**/,
              2607    1               3 EDEF        UBIN(36)  ALIGNED   INIT(0)/**/,
              2608    1               3 EREF        UBIN(36)  ALIGNED   INIT(0)/**/,
              2609    1               3 DDEF        UBIN(36)  ALIGNED   INIT(0)/**/,
              2610    1               3 DREF        UBIN(36)  ALIGNED   INIT(0)/**/,
              2611    1               3 SDEF        UBIN(36)  ALIGNED   INIT(0)/**/,
              2612    1               3 SREF        UBIN(36)  ALIGNED   INIT(0)/**/,
              2613    1              2 MAP_A(0:9)          REDEF MAP_ATTCH   UBIN(36),
              2614    1              2 DUPL_ATTCH   ALIGNED,
              2615    1               3 INQUIRE     UBIN(36)  ALIGNED   INIT(0)/**/,
              2616    1               3 OVERWRITE   UBIN(36)  ALIGNED   INIT(0)/**/,
              2617    1               3 ERR         UBIN(36)  ALIGNED   INIT(0)/**/,
              2618    1              2 DUPL_A(0:2)         REDEF DUPL_ATTCH  UBIN(36),
              2619    1              2 SEV_ATTCH    ALIGNED,
              2620    1               3 VAL         UBIN(36)  ALIGNED   INIT(0)/**/,
              2621    1              2 SEV_A(0:0)          REDEF SEV_ATTCH   UBIN(36);
      324     2623        /* ! R ! */
      325     2624        %EJECT;
PL6.E3A0      #001=VY_DATA_D File=VY_DATA_D.:E05TSI                              WED 07/30/97 09:06 Page:24
      326     2625              %OPTIONS(NAME=VY_OD,STCLASS="STATIC SYMDEF",DTYPE="BIT(1)");
              2626        %LSET LISTEXP='1'B;
              2627        %LSET LISTSUB='1'B;
              2628        %LSET STR='STATIC SYMDEF         ';
              2629        %LSET STR1='BIT(1)     ';
              2630        %IF '1'B;
              2631                   %LSET ATYPE=UNAL;
              2632                   %LSET MAP_HB=35;
              2633                   %LSET DUPL_HB=35;
              2634                   %LSET SEV_HB=35;
              2635                   %LSET PRI_HB=35;
              2636        %ELSE;
              2642        %ENDIF;
              2643        %IF
              2645              '1'B;
              2646              %LSET INIT=INIT;
              2647              %IF '0'B;
              2680                   %ELSE;
              2681                        %IF '0'B;
              2699                   %ELSE;
              2700                        %IF '1'B;
              2701                    %LSET I_MAP    = '0'B;
              2702                    %LSET I_DUPLICATE  = '0'B;
              2703                    %LSET I_SEVERITY  = '0'B;
              2704                    %LSET I_NODEBUG  = '0'B;
              2705                    %LSET I_VALUE  = '0'B;
              2706                    %LSET I_DEF    = '0'B;
              2707                    %LSET I_REF    = '0'B;
              2708                    %LSET I_EDEF   = '0'B;
              2709                    %LSET I_EREF   = '0'B;
              2710                    %LSET I_DDEF   = '0'B;
              2711                    %LSET I_DREF   = '0'B;
              2712                    %LSET I_SDEF   = '0'B;
              2713                    %LSET I_SREF   = '0'B;
              2714                    %LSET I_INQUIRE  = '0'B;
              2715                    %LSET I_OVERWRITE  = '0'B;
              2716                    %LSET I_ERR    = '0'B;
PL6.E3A0      #001=VY_DATA_D File=VY_DATA_D.:E05TSI                              WED 07/30/97 09:06 Page:25
              2717                    %LSET I_VAL    = '0'B;
              2718              %ENDIF;
              2719              %ENDIF;
              2720        %ENDIF;
              2721           %ELSE;
              2740        %ENDIF;
              2741    1         DCL 1 VY_OD          STATIC SYMDEF   ALIGNED,
              2742    1              2 PRIMARY_OPTION    ALIGNED,
              2743    1               3 MAP         BIT(1)  UNAL   INIT('0'B)/**/,
              2744    1               3 DUPLICATE   BIT(1)  UNAL   INIT('0'B)/**/,
              2745    1               3 SEVERITY    BIT(1)  UNAL   INIT('0'B)/**/,
              2746    1               3 NODEBUG     BIT(1)  UNAL   INIT('0'B)/**/,
              2747    1              2 PRIMARY_OPTION_A(0:35) REDEF     PRIMARY_OPTION BIT(1),
              2748    1              2 MAP_ATTCH           ALIGNED,
              2749    1               3 *           BIT(1)  UNAL   INIT('0'B)/**/,
              2750    1               3 DEF         BIT(1)  UNAL   INIT('0'B)/**/,
              2751    1               3 REF         BIT(1)  UNAL   INIT('0'B)/**/,
              2752    1               3 *           BIT(1)  UNAL   INIT('0'B)/**/,
              2753    1               3 EDEF        BIT(1)  UNAL   INIT('0'B)/**/,
              2754    1               3 EREF        BIT(1)  UNAL   INIT('0'B)/**/,
              2755    1               3 DDEF        BIT(1)  UNAL   INIT('0'B)/**/,
              2756    1               3 DREF        BIT(1)  UNAL   INIT('0'B)/**/,
              2757    1               3 SDEF        BIT(1)  UNAL   INIT('0'B)/**/,
              2758    1               3 SREF        BIT(1)  UNAL   INIT('0'B)/**/,
              2759    1              2 MAP_A(0:35)          REDEF MAP_ATTCH   BIT(1),
              2760    1              2 DUPL_ATTCH   ALIGNED,
              2761    1               3 INQUIRE     BIT(1)  UNAL   INIT('0'B)/**/,
              2762    1               3 OVERWRITE   BIT(1)  UNAL   INIT('0'B)/**/,
              2763    1               3 ERR         BIT(1)  UNAL   INIT('0'B)/**/,
              2764    1              2 DUPL_A(0:35)         REDEF DUPL_ATTCH  BIT(1),
              2765    1              2 SEV_ATTCH    ALIGNED,
              2766    1               3 VAL         BIT(1)  UNAL   INIT('0'B)/**/,
              2767    1              2 SEV_A(0:35)          REDEF SEV_ATTCH   BIT(1);
      327     2769        %EJECT;
PL6.E3A0      #001=VY_DATA_D File=VY_DATA_D.:E05TSI                              WED 07/30/97 09:06 Page:26
      328     2770        /* ! ! */
      329     2771              %OPTIONS(NAME=VY_ON,STCLASS="CONSTANT SYMDEF",DTYPE="PTR");
              2772        %LSET LISTEXP='1'B;
              2773        %LSET LISTSUB='1'B;
              2774        %LSET STR='CONSTANT SYMDEF         ';
              2775        %LSET STR1='PTR     ';
              2776        %IF '0'B;
              2782        %ELSE;
              2783        %LSET ATYPE=ALIGNED;
              2784        %LSET MAP_HB=9;
              2785        %LSET DUPL_HB=2;
              2786        %LSET SEV_HB=0;
              2787        %LSET PRI_HB=3;
              2788        %ENDIF;
              2789        %IF
              2791              '1'B;
              2792              %LSET INIT=INIT;
              2793              %IF '1'B;
              2794                    %LSET I_MAP    = ADDR(N_MAP_KEY_WORD);
              2795                    %LSET I_DUPLICATE  = ADDR(N_DUPLICATE_KEY_WORD);
              2796                    %LSET I_SEVERITY  = ADDR(N_SEVERITY_KEY_WORD);
              2797                    %LSET I_NODEBUG  = ADDR(N_NODEBUG_KEY_WORD);
              2798                    %LSET I_VALUE  = ADDR(NIL);
              2799                    %LSET I_DEF    = ADDR(N_DEF_KEY_WORD);
              2800                    %LSET I_REF    = ADDR(N_REF_KEY_WORD);
              2801                    %LSET I_EDEF   = ADDR(N_EDEF_KEY_WORD);
              2802                    %LSET I_EREF   = ADDR(N_EREF_KEY_WORD);
              2803                    %LSET I_DDEF   = ADDR(N_DDEF_KEY_WORD);
              2804                    %LSET I_DREF   = ADDR(N_DREF_KEY_WORD);
              2805                    %LSET I_SDEF   = ADDR(N_SDEF_KEY_WORD);
              2806                    %LSET I_SREF   = ADDR(N_SREF_KEY_WORD);
              2807                    %LSET I_INQUIRE  = ADDR(N_INQUIRE_KEY_WORD);
              2808                    %LSET I_OVERWRITE  = ADDR(N_OVERWRITE_KEY_WORD);
              2809                    %LSET I_ERR    = ADDR(N_ERROR_KEY_WORD);
              2810                    %LSET I_VAL    = ADDR(NIL);
              2811    1   DCL N_MAP_KEY_WORD UBIN(36) ALIGNED SYMREF;
              2812    1   DCL N_DUPLICATE_KEY_WORD UBIN(36) ALIGNED SYMREF;
PL6.E3A0      #001=VY_DATA_D File=VY_DATA_D.:E05TSI                              WED 07/30/97 09:06 Page:27
              2813    1   DCL N_SEVERITY_KEY_WORD UBIN(36) ALIGNED SYMREF;
              2814    1   DCL N_NODEBUG_KEY_WORD UBIN(36) ALIGNED SYMREF;
              2815    1   DCL N_DEF_KEY_WORD UBIN(36) ALIGNED SYMREF;
              2816    1   DCL N_REF_KEY_WORD UBIN(36) ALIGNED SYMREF;
              2817    1   DCL N_EDEF_KEY_WORD UBIN(36) ALIGNED SYMREF;
              2818    1   DCL N_EREF_KEY_WORD UBIN(36) ALIGNED SYMREF;
              2819    1   DCL N_DDEF_KEY_WORD UBIN(36) ALIGNED SYMREF;
              2820    1   DCL N_DREF_KEY_WORD UBIN(36) ALIGNED SYMREF;
              2821    1   DCL N_SDEF_KEY_WORD UBIN(36) ALIGNED SYMREF;
              2822    1   DCL N_SREF_KEY_WORD UBIN(36) ALIGNED SYMREF;
              2823    1   DCL N_INQUIRE_KEY_WORD UBIN(36) ALIGNED SYMREF;
              2824    1   DCL N_OVERWRITE_KEY_WORD UBIN(36) ALIGNED SYMREF;
              2825    1   DCL N_ERROR_KEY_WORD UBIN(36) ALIGNED SYMREF;
              2826                   %ELSE;
              2866        %ENDIF;
              2867           %ELSE;
              2886        %ENDIF;
              2887    1         DCL 1 VY_ON          CONSTANT SYMDEF   ALIGNED,
              2888    1              2 PRIMARY_OPTION    ALIGNED,
              2889    1               3 MAP         PTR  ALIGNED   INIT(ADDR(N_MAP_KEY_WORD))/**/,
              2890    1               3 DUPLICATE   PTR  ALIGNED   INIT(ADDR(N_DUPLICATE_KEY_WORD))/**/,
              2891    1               3 SEVERITY    PTR  ALIGNED   INIT(ADDR(N_SEVERITY_KEY_WORD))/**/,
              2892    1               3 NODEBUG     PTR  ALIGNED   INIT(ADDR(N_NODEBUG_KEY_WORD))/**/,
              2893    1              2 PRIMARY_OPTION_A(0:3) REDEF     PRIMARY_OPTION PTR,
              2894    1              2 MAP_ATTCH           ALIGNED,
              2895    1               3 *           PTR  ALIGNED   INIT(ADDR(NIL))/**/,
              2896    1               3 DEF         PTR  ALIGNED   INIT(ADDR(N_DEF_KEY_WORD))/**/,
              2897    1               3 REF         PTR  ALIGNED   INIT(ADDR(N_REF_KEY_WORD))/**/,
              2898    1               3 *           PTR  ALIGNED   INIT(ADDR(NIL))/**/,
              2899    1               3 EDEF        PTR  ALIGNED   INIT(ADDR(N_EDEF_KEY_WORD))/**/,
              2900    1               3 EREF        PTR  ALIGNED   INIT(ADDR(N_EREF_KEY_WORD))/**/,
              2901    1               3 DDEF        PTR  ALIGNED   INIT(ADDR(N_DDEF_KEY_WORD))/**/,
              2902    1               3 DREF        PTR  ALIGNED   INIT(ADDR(N_DREF_KEY_WORD))/**/,
              2903    1               3 SDEF        PTR  ALIGNED   INIT(ADDR(N_SDEF_KEY_WORD))/**/,
              2904    1               3 SREF        PTR  ALIGNED   INIT(ADDR(N_SREF_KEY_WORD))/**/,
              2905    1              2 MAP_A(0:9)          REDEF MAP_ATTCH   PTR,
              2906    1              2 DUPL_ATTCH   ALIGNED,
PL6.E3A0      #001=VY_DATA_D File=VY_DATA_D.:E05TSI                              WED 07/30/97 09:06 Page:28
              2907    1               3 INQUIRE     PTR  ALIGNED   INIT(ADDR(N_INQUIRE_KEY_WORD))/**/,
              2908    1               3 OVERWRITE   PTR  ALIGNED   INIT(ADDR(N_OVERWRITE_KEY_WORD))/**/,
              2909    1               3 ERR         PTR  ALIGNED   INIT(ADDR(N_ERROR_KEY_WORD))/**/,
              2910    1              2 DUPL_A(0:2)         REDEF DUPL_ATTCH  PTR,
              2911    1              2 SEV_ATTCH    ALIGNED,
              2912    1               3 VAL         PTR  ALIGNED   INIT(ADDR(NIL))/**/,
              2913    1              2 SEV_A(0:0)          REDEF SEV_ATTCH   PTR;
      330     2915        %EJECT;
PL6.E3A0      #001=VY_DATA_D File=VY_DATA_D.:E05TSI                              WED 07/30/97 09:06 Page:29
      331     2916    1   DCL 1 SIDCB_NAME          ALIGNED   CONSTANT,
      332     2917    1         2 COUNT        UBIN(18)  UNAL      INIT(4),
      333     2918    1         2 TEXT         CHAR(4)   UNAL      INIT('M$SI');
      334     2919    1   DCL 1 UIDCB_NAME          ALIGNED   CONSTANT,
      335     2920    1         2 COUNT        UBIN(18)  UNAL      INIT(4),
      336     2921    1         2 TEXT         CHAR(4)   UNAL      INIT('M$UI');
      337     2922    1   DCL 1 OUDCB_NAME          ALIGNED   CONSTANT,
      338     2923    1         2 COUNT        UBIN(18)  UNAL      INIT(4),
      339     2924    1         2 TEXT         CHAR(4)   UNAL      INIT('M$OU');
      340     2925    1   DCL 1 LODCB_NAME          ALIGNED   CONSTANT,
      341     2926    1         2 COUNT        UBIN(18)  UNAL      INIT(4),
      342     2927    1         2 TEXT         CHAR(4)   UNAL      INIT('M$LO');
      343     2928        /**/
      344     2929        /**/
      345     2930        /*
      346     2931              THIS STRUCTURE MUST PARALLEL THE OPTIONS STRUCTURE FOR NUMERIC ARGUMENTS
      347     2932        */
      348     2933    1   DCL 1 VY_OL ALIGNED CONSTANT SYMDEF,
      349     2934    1         2 MIN_A(0:12) SBIN WORD ALIGNED INIT(0*0),
      350     2935    1         2 MIN REDEF MIN_A,
      351     2936    1           3 BREF SBIN WORD ALIGNED,
      352     2937    1           3 DCBSLOTS SBIN WORD ALIGNED,
      353     2938    1           3 DBIAS SBIN WORD ALIGNED,
      354     2939    1           3 PBIAS SBIN WORD ALIGNED,
      355     2940    1           3 SEVERITY SBIN WORD ALIGNED,
      356     2941    1           3 START SBIN WORD ALIGNED,
      357     2942    1           3 TCB SBIN WORD ALIGNED,
      358     2943    1           3 REPORT SBIN WORD ALIGNED,
      359     2944    1           3 * SBIN WORD ALIGNED,
      360     2945    1           3 * SBIN WORD ALIGNED,
      361     2946    1           3 * SBIN WORD ALIGNED,
      362     2947    1           3 * SBIN WORD ALIGNED,
      363     2948    1           3 * SBIN WORD ALIGNED,
      364     2949    1         2 MAX_A(0:12) SBIN WORD ALIGNED INIT(
      365     2950    1           1024,
      366     2951    1           1024,
      367     2952    1           262143,
PL6.E3A0      #001=VY_DATA_D File=VY_DATA_D.:E05TSI                              WED 07/30/97 09:06 Page:30
      368     2953    1           262143,
      369     2954    1           11,
      370     2955    1           262143,
      371     2956    1           217,
      372     2957    1           11,
      373     2958    1           0*5),
      374     2959    1         2 MAX REDEF MAX_A,
      375     2960    1           3 BREF SBIN WORD ALIGNED,
      376     2961    1           3 DCBSLOTS SBIN WORD ALIGNED,
      377     2962    1           3 DBIAS SBIN WORD ALIGNED,
      378     2963    1           3 PBIAS SBIN WORD ALIGNED,
      379     2964    1           3 SEVERITY SBIN WORD ALIGNED,
      380     2965    1           3 START SBIN WORD ALIGNED,
      381     2966    1           3 TCB SBIN WORD ALIGNED,
      382     2967    1           3 REPORT SBIN WORD ALIGNED,
      383     2968    1           3 * SBIN WORD ALIGNED,
      384     2969    1           3 * SBIN WORD ALIGNED,
      385     2970    1           3 * SBIN WORD ALIGNED,
      386     2971    1           3 * SBIN WORD ALIGNED,
      387     2972    1           3 * SBIN WORD ALIGNED;
      388     2973    1   DCL 1 VY_PHRASE STATIC SYMDEF,
      389     2974    1         2 PHRASE CHAR(24) UNAL
      390     2975    1           INIT('DURING PASS * IN PHASE *'),
      391     2976    1         2 I REDEF PHRASE,
      392     2977    1           3 * CHAR(12) UNAL,
      393     2978    1           3 PASS CHAR( 1) UNAL,
      394     2979    1           3 * CHAR(10) UNAL,
      395     2980    1           3 PHASE CHAR( 1) UNAL;
      396     2981        %EJECT;
PL6.E3A0      #001=VY_DATA_D File=VY_DATA_D.:E05TSI                              WED 07/30/97 09:06 Page:31
      397     2982    1   DCL N_SEARCH_KEY_WORD     UBIN(36) ALIGNED SYMREF;
      398     2983    1   DCL VY_OD_SEARCH          BIT(1) STATIC SYMDEF INIT ('0'B);
      399     2984    1   DCL VY_ON_SEARCH$         PTR    STATIC SYMDEF INIT (ADDR(N_SEARCH_KEY_WORD));
      400     2985    1   DCL VY_SRCH_LST$          PTR    STATIC SYMDEF INIT (ADDR(NIL));
      401     2986    1   DCL B$JIT$      PTR       ALIGNED   SYMREF;
      402     2987        %EJECT;
PL6.E3A0      #001=VY_DATA_D File=VY_DATA_D.:E05TSI                              WED 07/30/97 09:06 Page:32
      403     2988        /* ! R ! */
      404     2989        /*
      405     2990              VARIABLES FOR ERRMSG
      406     2991        */
      407     2992    1   DCL 1 VY_ERR_CODE ALIGNED STATIC SYMDEF,
      408     2993    1         2 FCG UBIN(12) UNAL INIT( %@E$FCG_VY ),
      409     2994    1         2 MID UBIN(6) UNAL INIT(BITBIN('05'O)),
      410     2995    1         2 ERR# UBIN(15) UNAL INIT(0),
      411     2996    1         2 SEV UBIN(3) UNAL INIT(0);
      412     2997    1   DCL 1 VY_ERR_CODE_AUX ALIGNED STATIC SYMDEF,
      413     2998    1         2 FCG UBIN(12) UNAL INIT( %@E$FCG_VY ),
      414     2999    1         2 MID UBIN(6) UNAL INIT(BITBIN('05'O)),
      415     3000    1         2 ERR# UBIN(15) UNAL INIT(0),
      416     3001    1         2 SEV UBIN(3) UNAL INIT(0);
      417     3002    1   DCL 1 VY_EBUF ALIGNED STATIC SYMDEF,
      418     3003    1         2 CHARS_A(0:132) CHAR(1) UNAL INIT(' '*0),
      419     3004    1         2 CHARS REDEF CHARS_A CHAR(133) UNAL;
      420     3005    1   DCL 1 VY_EFIELD1 ALIGNED STATIC SYMDEF,
      421     3006    1         2 COUNT UBIN(9) UNAL INIT(0),
      422     3007    1         2 CHARS CHAR(79) UNAL INIT(' '),
      423     3008    1         2 CHARS_A(0:78) REDEF CHARS CHAR(1) UNAL;
      424     3009    1   DCL 1 VY_EFIELD2 ALIGNED STATIC SYMDEF,
      425     3010    1         2 COUNT UBIN(9) UNAL INIT(0),
      426     3011    1         2 CHARS CHAR(79) UNAL INIT(' '),
      427     3012    1         2 CHARS_A(0:78) REDEF CHARS CHAR(1) UNAL;
      428     3013    1   DCL 1 VY_EFIELD3 ALIGNED STATIC SYMDEF,
      429     3014    1         2 COUNT UBIN(9) UNAL INIT(0),
      430     3015    1         2 CHARS CHAR(79) UNAL INIT(' '),
      431     3016    1         2 CHARS_A(0:78) REDEF CHARS CHAR(1) UNAL;
      432     3017    1   DCL BREAK_FN CHAR(31) STATIC SYMDEF INIT (' ');
      433     3018    1   DCL BREAK_OU CHAR(511) STATIC SYMDEF INIT (' ');
      434     3019    1   DCL BREAK_FLAG BIT (1) STATIC SYMDEF INIT ('0'B);
      435     3020        /*
      436     3021              IMAGE FORMATION VARIABLES
      437     3022        */
      438     3023    1   DCL VY_IMAGE$ PTR ALIGNED STATIC SYMDEF INIT(ADDR(NIL));
              3023            /* PTR TO BUFFER VARIABLES */
PL6.E3A0      #001=VY_DATA_D File=VY_DATA_D.:E05TSI                              WED 07/30/97 09:06 Page:33
      439     3024    1   DCL VY_BADR(0:@ROS) SBIN WORD ALIGNED STATIC SYMDEF INIT(0*0);
              3024            /* STARTING ADDRESSES FOR PROC, DATA, ROS */
      440     3025    1   DCL VY_EADR(0:@ROS) SBIN WORD ALIGNED STATIC SYMDEF INIT(0*0);
              3025            /* ENDING ADDRESSES FOR PROC, DATA, ROS */
      441     3026    1   DCL VY_TARGET_COUNT  UBIN(36) ALIGNED    STATIC    SYMDEF    INIT(0);
      442     3027    1   DCL VY_SOURCE_COUNT  UBIN(36) ALIGNED    STATIC    SYMDEF    INIT(0);
      443     3028        /*
      444     3029              IO VARIABLES/GLOBAL
      445     3030        */
      446     3031    1   DCL VY_IO_STATUS          SBIN WORD ALIGNED   STATIC    SYMDEF INIT(-1);
      447     3032    1   DCL VY_IO_SIZEW           SBIN WORD ALIGNED   STATIC    SYMDEF INIT(0);
      448     3033    1   DCL VY_IO_SIZEC           SBIN WORD ALIGNED   STATIC    SYMDEF INIT(0);
      449     3034    1   DCL VY_IO_USEPREV         SBIN WORD ALIGNED   STATIC    SYMDEF INIT(0);
      450     3035    1   DCL VY_IO_SAVEPREV        SBIN WORD ALIGNED   STATIC    SYMDEF INIT(0);
      451     3036        %EJECT;
PL6.E3A0      #001=VY_DATA_D File=VY_DATA_D.:E05TSI                              WED 07/30/97 09:06 Page:34
      452     3037        /*
      453     3038              HEADER DEFINITION
      454     3039        */
      455     3040    1   DCL 1 VY_HEADER STATIC SYMDEF,
      456     3041    1         2 * CHAR(20) UNAL INIT('                    '),
      457     3042    1         2 DAY_C CHAR( 5) UNAL INIT('     '),
      458     3043    1         2 * CHAR( 2) UNAL INIT('  '),
      459     3044    1         2 DATE_C CHAR(10) UNAL INIT('          '),
      460     3045    1         2 * CHAR( 2) UNAL INIT('  '),
      461     3046    1         2 TIME_C CHAR(11) UNAL INIT('           ');
      462     3047        %EJECT;
PL6.E3A0      #001=VY_DATA_D File=VY_DATA_D.:E05TSI                              WED 07/30/97 09:06 Page:35
      463     3048        /*
      464     3049              CONSTANTS/VARIABLES FOR KEYS
      465     3050        */
      466     3051    1   DCL VY_O_KEY_HEAD         CHAR(1)   UNAL CONSTANT SYMDEF
      467     3052    1                   INIT( BITASC( '042'O ) );
      468     3053    1   DCL VY_O_KEY_TREE         CHAR(5)   UNAL CONSTANT SYMDEF INIT('"TREE');
      469     3054    1   DCL VY_R_KEY_HEAD         CHAR(4)   UNAL CONSTANT SYMDEF INIT('HEAD');
      470     3055    1   DCL VY_P_ENTDEF UBIN(36) STATIC SYMDEF INIT(0);
              3055            /* PRIMARY ENTDEF FOR DEBUG RECORDS */
      471     3056        /**/
      472     3057        /**/
      473     3058        /**/
      474     3059    1   DCL VY_KEY_USEPREV UBIN(36) STATIC SYMDEF INIT(0);
              3059            /* SWITCH TO INDICATE WHETHER TO USE PREVIOUS KEY OR NOT */
      475     3060    1   DCL VY_KEY_NAME$          PTR            STATIC    SYMDEF    INIT(ADDR(NIL));
      476     3061                                                /* PTR TO TEXTC NAME FOR LIB. EARCHES */
      477     3062        %EJECT;
PL6.E3A0      #001=VY_DATA_D File=VY_DATA_D.:E05TSI                              WED 07/30/97 09:06 Page:36
      478     3063        /*
      479     3064              LIBRARY VARIABLES
      480     3065        */
      481     3066    1   DCL VY_SLIB_HEAD$         PTR       ALIGNED   STATIC    SYMDEF    INIT(ADDR(NIL));
      482     3067                                                /* HEAD POINTER FOR SHARED LIBRARIES */
      483     3068    1   DCL VY_SLIB_INIT$         PTR       ALIGNED   STATIC    SYMDEF    INIT(ADDR(NIL));
      484     3069                       /* POINTER TO SHARED LIBRARY FILE WHICH WILL INITIALIZE DATA */
      485     3070    1   DCL VY_SLIB_MAX_DATA UBIN(36) ALIGNED STATIC SYMDEF INIT(0);
              3070            /* MAXIMUM DATA AREA ENCOUNTERED FOR SHARED LIBRARIES */
      486     3071        %EJECT;
PL6.E3A0      #001=VY_DATA_D File=VY_DATA_D.:E05TSI                              WED 07/30/97 09:06 Page:37
      487     3072        /*
      488     3073              SIZES
      489     3074        */
      490     3075    1   DCL VY_REC_BUF_START$     PTR       ALIGNED   STATIC    SYMDEF    INIT(ADDR(NIL));
      491     3076    1   DCL VY_REC_BUF_SIZE UBIN(36) ALIGNED STATIC SYMDEF INIT(0);
              3076            /* MAX SIZE FOR RECEIVING BUFFER */
      492     3077    1   DCL VY_BREF_START$        PTR       ALIGNED   STATIC    SYMDEF    INIT(ADDR(NIL));
      493     3078    1   DCL VY_NEXT_BREF$         PTR       ALIGNED   STATIC    SYMDEF    INIT(ADDR(NIL));
      494     3079    1   DCL VY_BREF_SIZE          UBIN(36)  ALIGNED   STATIC    SYMDEF    INIT(0);
      495     3080    1   DCL VY_BREF_ADR           UBIN(36)  ALIGNED   STATIC    SYMDEF    INIT(0);
      496     3081    1   DCL VY_BREF_INSTANCE      UBIN(36)  ALIGNED   STATIC    SYMDEF    INIT(0);
      497     3082    1   DCL VY_BREF_DEFINITION    UBIN(36)  ALIGNED   STATIC    SYMDEF    INIT(0);
      498     3083    1   DCL 1 VY_XSO$BREF ALIGNED CONSTANT SYMDEF,
      499     3084    1         2 COUNT UBIN(18) UNAL INIT(30),
      500     3085    1         2 CHARS CHAR(30) UNAL INIT(
      501     3086    1           '6XSO$BREF$$$$$$$$$$$$$$$$$$$$$');
      502     3087    1   DCL 1 VY_TSX0_OVERLAY ALIGNED STATIC SYMDEF,
      503     3088    1         2 H ALIGNED,
      504     3089    1           3 LEFT_HALF UBIN(18) UNAL INIT(0),
      505     3090    1           3 RIGHT_HALF UBIN(18) UNAL INIT( BITBIN('700000'O) ),
      506     3091    1         2 I REDEF H ALIGNED,
      507     3092    1           3 WORD0 UBIN(36) UNAL;
      508     3093        /**/
      509     3094        /**/
      510     3095    1   DCL VY_SLIB_AREA$         PTR       ALIGNED   STATIC    SYMDEF    INIT(ADDR(NIL) );
      511     3096    1   DCL VY_SLIB_AREA_SIZE     UBIN(36)  ALIGNED   STATIC    SYMDEF    INIT(0);
      512     3097    1   DCL VY_SC_X_NODE$         PTR       ALIGNED   STATIC    SYMDEF    INIT(ADDR(NIL) );
      513     3098    1   DCL   VY_DCB_USER_NEXT    UBIN(36)            STATIC   SYMDEF INIT(@DCB_NUM_START);
      514     3099    1   DCL VY_DCB_HEAD$          PTR       ALIGNED   STATIC    SYMDEF    INIT(ADDR(NIL) );
      515     3100    1   DCL VY_DCB_TAIL$          PTR       ALIGNED   STATIC    SYMDEF    INIT(ADDR(NIL) );
      516     3101    1   DCL VY_DCB_START$         PTR       ALIGNED   STATIC    SYMDEF    INIT(ADDR(NIL) );
      517     3102    1   DCL VY_DCB_STOP$          PTR       ALIGNED   STATIC    SYMDEF    INIT(ADDR(NIL) );
      518     3103    1   DCL VY_MERGE_START$       PTR       ALIGNED   STATIC    SYMDEF    INIT(ADDR(NIL) );
      519     3104    1   DCL VY_MERGE_STOP$        PTR       ALIGNED   STATIC    SYMDEF    INIT(ADDR(NIL) );
      520     3105    1   DCL VY_ROOT_DN_INC UBIN(36) ALIGNED STATIC SYMDEF INIT(0);
              3105            /* # OF WORDS IN DN LIST FOR DCB NAMES */
      521     3106    1   DCL VY_SYS           CHAR(8)   CONSTANT    SYMDEF  INIT(':SYS');
PL6.E3A0      #001=VY_DATA_D File=VY_DATA_D.:E05TSI                              WED 07/30/97 09:06 Page:38
      522     3107        %EJECT;
PL6.E3A0      #001=VY_DATA_D File=VY_DATA_D.:E05TSI                              WED 07/30/97 09:06 Page:39
      523     3108        /*
      524     3109              PRIMARY INDEX STRUCTURE ARRAYS FOR PASS 1
      525     3110        */
      526     3111    1   DCL VY_PASS1_REC_TYPE(0:8)     SBIN WORD ALIGNED   CONSTANT    SYMDEF
      527     3112    1              INIT(@DN,@RN,@SC,@ED,@ER,@DD,@DR,@SD,@SR);
      528     3113        /*
      529     3114              RECORD TYPES TO BE READ FROM RUN UNIT FILES ( SHARED LIBRARIES, ETC. )
      530     3115        */
      531     3116    1   DCL VY_PASS1_REC_TYPE_RUN(0:2) UBIN(36)  ALIGNED   CONSTANT    SYMDEF
      532     3117    1              INIT(     @DN,
      533     3118    1                        @ED,
      534     3119    1                        @DD );
      535     3120    1   DCL VY_PASS1_ALL_TYPE(0:9)     SBIN WORD ALIGNED   CONSTANT    SYMDEF
      536     3121    1         INIT( -1,@DN_DS_1,@RN_DS_1,@SC_DS_1,@ED_DS_1,@ER_DS_1,@DD_DS_1,@DR_DS_1,
              3121                  @SD_DS_1,@SR_DS_1);
      537     3122    1   DCL VY_PASS1_LIB_ALL_TYPE(0:9) SBIN WORD ALIGNED   CONSTANT    SYMDEF
      538     3123    1         INIT( -1,@DN_DS_1,@RN_DS_1,@SC_DS_1,@DN_DS_1,@SC_DS_1,@RN_DS_1,@RN_DS_1,
              3123                  @SD_DS_1,@SR_DS_1);
      539     3124    1   DCL VY_HEAD_INX(0:9)           SBIN WORD ALIGNED   CONSTANT    SYMDEF
      540     3125    1         INIT(-1, 0, 1, -1, 2, 3, 4, 5, 6, 7 );
      541     3126    1   DCL VY_REC_SIZE_A(0:@PN)  SBIN(36)  ALIGNED   CONSTANT    SYMDEF
      542     3127    1              INIT(     @M_SN_ESZ,
      543     3128    1                        @M_DN_ESZ,
      544     3129    1                        @M_RN_ESZ,
      545     3130    1                        @M_SC_ESZ,
      546     3131    1                        @M_ED_ESZ,
      547     3132    1                        @M_ER_ESZ,
      548     3133    1                        @M_DD_ESZ,
      549     3134    1                        @M_DR_ESZ,
      550     3135    1                        @M_SD_ESZ,
      551     3136    1                        @M_SR_ESZ,
      552     3137    1                        @M_PR_ESZ,
      553     3138    1                        @M_LB_ESZ,
      554     3139    1                        @M_IE_ESZ,
      555     3140    1                        @M_ES_ESZ,
      556     3141    1                        @M_VR_ESZ,
      557     3142    1                        @M_PN_ESZ);
PL6.E3A0      #001=VY_DATA_D File=VY_DATA_D.:E05TSI                              WED 07/30/97 09:06 Page:40
      558     3143    1   DCL VY_DEF_REC_A(0:2) UBIN(36) ALIGNED CONSTANT SYMDEF INIT(@DN,@ED,@DD);
              3143            /* LIST OF DEF RECORDS */
      559     3144    1   DCL VY_REF_REC_A(0:3) UBIN(36) ALIGNED CONSTANT SYMDEF INIT(@RN,@ER,@DR,@SR);
              3144            /* LIST OF REF RECORDS */
      560     3145    1   DCL VY_REF_MATCH_A(0:@SR) SBIN WORD ALIGNED   CONSTANT    SYMDEF
      561     3146    1              INIT(     -1,
      562     3147    1                        -1,
      563     3148    1                        -1,
      564     3149    1                        -1,
      565     3150    1                        @ER,
      566     3151    1                        @ED,
      567     3152    1                        @DR,
      568     3153    1                        @DD,
      569     3154    1                        @SR,
      570     3155    1                        @SD);              /* MATCH LIST REF <-> DEF */
      571     3156    1   DCL VY_MATCH_NAME_A(0:@SR)     UBIN(36)  ALIGNED   CONSTANT    SYMDEF
      572     3157    1              INIT(          9999,
      573     3158    1                             9999,
      574     3159    1                             9999,
      575     3160    1                              @DN,         /*SC*/
      576     3161    1                              @DN,         /*ED*/
      577     3162    1                              @RN,         /*ER*/
      578     3163    1                              @DN,         /*DD*/
      579     3164    1                              @RN,         /*DR*/
      580     3165    1                              @DN,         /*SD*/
      581     3166    1                              @RN);        /*SR*/
      582     3167    1   DCL VY_NAME_DISP_A(0:@SR)      UBIN(36)  ALIGNED   CONSTANT    SYMDEF
      583     3168    1              INIT(          9999,         /*SN*/
      584     3169    1                             9999,         /*DN*/
      585     3170    1                             9999,         /*RN*/
      586     3171    1                                2,         /*SC*/
      587     3172    1                                2,         /*ED*/
      588     3173    1                                0,         /*ER*/
      589     3174    1                                2,         /*DD*/
      590     3175    1                                0,         /*DR*/
      591     3176    1                                2,         /*SD*/
      592     3177    1                                0);        /*SR*/
PL6.E3A0      #001=VY_DATA_D File=VY_DATA_D.:E05TSI                              WED 07/30/97 09:06 Page:41
      593     3178    1   DCL VY_LAST_UTS           UBIN(36)  ALIGNED   STATIC    SYMDEF    INIT(BITBIN(
              3178            '777777777777'O));
      594     3179        %EJECT;
PL6.E3A0      #001=VY_DATA_D File=VY_DATA_D.:E05TSI                              WED 07/30/97 09:06 Page:42
      595     3180    1   DCL VY_SC_PASS2$               PTR       ALIGNED   STATIC    SYMDEF    INIT(ADDR(NIL
              3180            ));
      596     3181                                                /* PASS2 POINTER TO CURRENT ITEM IN LINK
      597     3182                                           LIST OF START/COUNT ITEMS FOR SECTIONS */
      598     3183    1   DCL VY_SC_BASE$                PTR       ALIGNED   STATIC    SYMDEF    INIT(ADDR(NIL
              3183            ));
      599     3184                            /* PASS2 BASE POINTER TO SECTIONS FOR CURRENT OBJECT UNIT */
      600     3185        /**/
      601     3186        /**/
      602     3187        /**/
      603     3188    1   DCL VY_PASS2_ALL_TYPE(0:9)     SBIN WORD ALIGNED   CONSTANT    SYMDEF
      604     3189    1         INIT( -1,@DN_DS_2,@RN_DS_2,@SC_DS_2,@ED_DS_2,@ER_DS_2,@DD_DS_2,@DR_DS_2,
              3189                  @SD_DS_2,@SR_DS_2);
      605     3190        /*
      606     3191              VARIABLES FOR DEFINITION TYPE RECORDS FROM OBJECT FILES FOR PASS 2
      607     3192        */
      608     3193        /**/
      609     3194        /**/
      610     3195        /**/
      611     3196        /*
      612     3197              VARIABLES FOR REFERENCE TYPE RECORDS FROM OBJECT FILES FOR PASS 2
      613     3198        */
      614     3199    1   DCL 1 VY_PASS2_REF ALIGNED STATIC SYMDEF,
      615     3200    1         2 OU ALIGNED,
      616     3201    1           3 MAX ALIGNED,
      617     3202    1             4 RN UBIN(36) ALIGNED INIT(0),
      618     3203    1             4 ER UBIN(36) ALIGNED INIT(0),
      619     3204    1             4 DR UBIN(36) ALIGNED INIT(0),
      620     3205    1             4 SR UBIN(36) ALIGNED INIT(0),
      621     3206    1           3 MAX_A(0:3) REDEF MAX UBIN(36) ALIGNED,
      622     3207    1           3 L_START ALIGNED,
      623     3208    1             4 RN$ PTR ALIGNED INIT(ADDR(NIL)),
      624     3209    1             4 ER$ PTR ALIGNED INIT(ADDR(NIL)),
      625     3210    1             4 DR$ PTR ALIGNED INIT(ADDR(NIL)),
      626     3211    1             4 SR$ PTR ALIGNED INIT(ADDR(NIL)),
      627     3212    1           3 L_START_A$(0:3) REDEF L_START PTR ALIGNED,
      628     3213    1           3 L_STOP ALIGNED,
PL6.E3A0      #001=VY_DATA_D File=VY_DATA_D.:E05TSI                              WED 07/30/97 09:06 Page:43
      629     3214    1             4 RN$ PTR ALIGNED INIT(ADDR(NIL)),
      630     3215    1             4 ER$ PTR ALIGNED INIT(ADDR(NIL)),
      631     3216    1             4 DR$ PTR ALIGNED INIT(ADDR(NIL)),
      632     3217    1             4 SR$ PTR ALIGNED INIT(ADDR(NIL)),
      633     3218    1           3 L_STOP_A$(0:3) REDEF L_STOP PTR ALIGNED,
      634     3219    1           3 SIZE ALIGNED,
      635     3220    1             4 RN UBIN(36) ALIGNED INIT(0),
      636     3221    1             4 ER UBIN(36) ALIGNED INIT(0),
      637     3222    1             4 DR UBIN(36) ALIGNED INIT(0),
      638     3223    1             4 SR UBIN(36) ALIGNED INIT(0),
      639     3224    1           3 SIZE_A(0:3) REDEF SIZE UBIN(36) ALIGNED,
      640     3225    1         2 SAT ALIGNED,
      641     3226    1           3 MAX ALIGNED,
      642     3227    1             4 RN UBIN(36) ALIGNED INIT(0),
      643     3228    1             4 ER UBIN(36) ALIGNED INIT(0),
      644     3229    1             4 DR UBIN(36) ALIGNED INIT(0),
      645     3230    1             4 SR UBIN(36) ALIGNED INIT(0),
      646     3231    1           3 MAX_A(0:3) REDEF MAX UBIN(36) ALIGNED,
      647     3232    1           3 L_START ALIGNED,
      648     3233    1             4 RN$ PTR ALIGNED INIT(ADDR(NIL)),
      649     3234    1             4 ER$ PTR ALIGNED INIT(ADDR(NIL)),
      650     3235    1             4 DR$ PTR ALIGNED INIT(ADDR(NIL)),
      651     3236    1             4 SR$ PTR ALIGNED INIT(ADDR(NIL)),
      652     3237    1             4 SC$ PTR ALIGNED INIT(ADDR(NIL)),
      653     3238    1           3 L_START_A$(0:4) REDEF L_START PTR ALIGNED,
      654     3239    1           3 L_STOP ALIGNED,
      655     3240    1             4 RN$ PTR ALIGNED INIT(ADDR(NIL)),
      656     3241    1             4 ER$ PTR ALIGNED INIT(ADDR(NIL)),
      657     3242    1             4 DR$ PTR ALIGNED INIT(ADDR(NIL)),
      658     3243    1             4 SR$ PTR ALIGNED INIT(ADDR(NIL)),
      659     3244    1             4 SC$ PTR ALIGNED INIT(ADDR(NIL)),
      660     3245    1           3 L_STOP_A$(0:4) REDEF L_STOP PTR ALIGNED,
      661     3246    1           3 COUNT ALIGNED,
      662     3247    1             4 RN UBIN(36) ALIGNED INIT(0),
      663     3248    1             4 ER UBIN(36) ALIGNED INIT(0),
      664     3249    1             4 DR UBIN(36) ALIGNED INIT(0),
      665     3250    1             4 SR UBIN(36) ALIGNED INIT(0),
PL6.E3A0      #001=VY_DATA_D File=VY_DATA_D.:E05TSI                              WED 07/30/97 09:06 Page:44
      666     3251    1             4 SC UBIN(36) ALIGNED INIT(0),
      667     3252    1           3 COUNT_A(0:4) REDEF COUNT UBIN(36) ALIGNED,
      668     3253    1           3 ENT_SIZE ALIGNED,
      669     3254    1             4 RN UBIN(36) ALIGNED INIT(@M_RN_ESZ),
      670     3255    1             4 ER UBIN(36) ALIGNED INIT(SIZEW(VYR$SAT)),
      671     3256    1             4 DR UBIN(36) ALIGNED INIT(SIZEW(VYR$SAT)),
      672     3257    1             4 SR UBIN(36) ALIGNED INIT(SIZEW(VYR$SAT)),
      673     3258    1             4 SC UBIN(36) ALIGNED INIT(SIZEW(VY$SC)),
      674     3259    1           3 ENT_SIZE_A(0:4) REDEF ENT_SIZE UBIN(36) ALIGNED,
      675     3260    1         2 UNSAT ALIGNED,
      676     3261    1           3 MAX ALIGNED,
      677     3262    1             4 RN UBIN(36) ALIGNED INIT(0),
      678     3263    1             4 ER UBIN(36) ALIGNED INIT(0),
      679     3264    1             4 DR UBIN(36) ALIGNED INIT(0),
      680     3265    1             4 SR UBIN(36) ALIGNED INIT(0),
      681     3266    1           3 MAX_A(0:3) REDEF MAX UBIN(36) ALIGNED,
      682     3267    1           3 L_START ALIGNED,
      683     3268    1             4 RN$ PTR ALIGNED INIT(ADDR(NIL)),
      684     3269    1             4 ER$ PTR ALIGNED INIT(ADDR(NIL)),
      685     3270    1             4 DR$ PTR ALIGNED INIT(ADDR(NIL)),
      686     3271    1             4 SR$ PTR ALIGNED INIT(ADDR(NIL)),
      687     3272    1           3 L_START_A$(0:3) REDEF L_START PTR ALIGNED,
      688     3273    1           3 L_STOP ALIGNED,
      689     3274    1             4 RN$ PTR ALIGNED INIT(ADDR(NIL)),
      690     3275    1             4 ER$ PTR ALIGNED INIT(ADDR(NIL)),
      691     3276    1             4 DR$ PTR ALIGNED INIT(ADDR(NIL)),
      692     3277    1             4 SR$ PTR ALIGNED INIT(ADDR(NIL)),
      693     3278    1           3 L_STOP_A$(0:3) REDEF L_STOP PTR ALIGNED,
      694     3279    1           3 L_WHERE ALIGNED,
      695     3280    1             4 RN$ PTR ALIGNED INIT(ADDR(NIL)),
      696     3281    1             4 ER$ PTR ALIGNED INIT(ADDR(NIL)),
      697     3282    1             4 DR$ PTR ALIGNED INIT(ADDR(NIL)),
      698     3283    1             4 SR$ PTR ALIGNED INIT(ADDR(NIL)),
      699     3284    1           3 L_WHERE_A$(0:3) REDEF L_WHERE PTR ALIGNED,
      700     3285    1           3 SIZE ALIGNED,
      701     3286    1             4 RN UBIN(36) ALIGNED INIT(0),
      702     3287    1             4 ER UBIN(36) ALIGNED INIT(0),
PL6.E3A0      #001=VY_DATA_D File=VY_DATA_D.:E05TSI                              WED 07/30/97 09:06 Page:45
      703     3288    1             4 DR UBIN(36) ALIGNED INIT(0),
      704     3289    1             4 SR UBIN(36) ALIGNED INIT(0),
      705     3290    1           3 SIZE_A(0:3) REDEF SIZE UBIN(36) ALIGNED,
      706     3291    1           3 PAGE# ALIGNED,
      707     3292    1             4 RN UBIN(36) ALIGNED INIT(0),
      708     3293    1             4 ER UBIN(36) ALIGNED INIT(0),
      709     3294    1             4 DR UBIN(36) ALIGNED INIT(0),
      710     3295    1             4 SR UBIN(36) ALIGNED INIT(0),
      711     3296    1           3 PAGE#_A(0:3) REDEF PAGE# UBIN(36) ALIGNED,
      712     3297    1           3 PREV_RN_SIZE UBIN(36) ALIGNED INIT(0);
      713     3298        %EJECT;
PL6.E3A0      #001=VY_DATA_D File=VY_DATA_D.:E05TSI                              WED 07/30/97 09:06 Page:46
      714     3299    1   DCL VY_HAVE_SPC UBIN(36) ALIGNED STATIC SYMDEF INIT(0);
              3299            /* COUNT OF SPECIAL SYMBOLS INSERTED BY LINK */
      715     3300    1   DCL 1 VY_SPC ALIGNED STATIC SYMDEF,
      716     3301    1         2 SEG ALIGNED,
      717     3302    1           3 NAME ALIGNED,
      718     3303    1             4 JIT$ PTR ALIGNED INIT(ADDR(VY_SPC.SEG.STRING.JIT)),
      719     3304    1             4 IS$ PTR ALIGNED INIT(ADDR(VY_SPC.SEG.STRING.IS)),
      720     3305    1             4 TCB$ PTR ALIGNED INIT(ADDR(VY_SPC.SEG.STRING.TCB)),
      721     3306    1             4 ROS$ PTR ALIGNED INIT(ADDR(VY_SPC.SEG.STRING.ROS)),
      722     3307    1             4 NUL$ PTR ALIGNED INIT(ADDR(VY_SPC.SEG.STRING.NUL)),
      723     3308    1           3 NAME_A$(0:4) REDEF NAME PTR ALIGNED,
      724     3309    1           3 VALUE ALIGNED,
      725     3310    1             4 JIT UBIN(36) ALIGNED INIT(0),
      726     3311    1             4 IS UBIN(36) ALIGNED INIT(0),
      727     3312    1             4 TCB UBIN(36) ALIGNED INIT(0),
      728     3313    1             4 ROS UBIN(36) ALIGNED INIT(0),
      729     3314    1             4 NUL UBIN(36) ALIGNED INIT(0),
      730     3315    1           3 VALUE_A(0:4) REDEF VALUE UBIN(36) ALIGNED,
      731     3316    1           3 STRING ALIGNED,
      732     3317    1             4 JIT ALIGNED,
      733     3318    1               5 COUNT UBIN(18) UNAL INIT(6),
      734     3319    1               5 CHARS CHAR(6) UNAL INIT('JITSID'),
      735     3320    1             4 IS ALIGNED,
      736     3321    1               5 COUNT UBIN(18) UNAL INIT(5),
      737     3322    1               5 CHARS CHAR(5) UNAL INIT('ISSID'),
      738     3323    1             4 TCB ALIGNED,
      739     3324    1               5 COUNT UBIN(18) UNAL INIT(6),
      740     3325    1               5 CHARS CHAR(6) UNAL INIT('TCBSID'),
      741     3326    1             4 ROS ALIGNED,
      742     3327    1               5 COUNT UBIN(18) UNAL INIT(5),
      743     3328    1               5 CHARS CHAR(5) UNAL INIT('ROSID'),
      744     3329    1             4 NUL ALIGNED,
      745     3330    1               5 COUNT UBIN(18) UNAL INIT(7),
      746     3331    1               5 CHARS CHAR(7) UNAL INIT('NULLSID'),
      747     3332    1         2 B$ ALIGNED,
      748     3333    1           3 NAME ALIGNED,
      749     3334    1             4 JIT$ PTR ALIGNED INIT(ADDR(VY_SPC.B$.STRING.JIT)),
PL6.E3A0      #001=VY_DATA_D File=VY_DATA_D.:E05TSI                              WED 07/30/97 09:06 Page:47
      750     3335    1             4 * PTR ALIGNED INIT(ADDR(NIL)),
      751     3336    1             4 TCB$ PTR ALIGNED INIT(ADDR(VY_SPC.B$.STRING.TCB)),
      752     3337    1             4 ROS$ PTR ALIGNED INIT(ADDR(VY_SPC.B$.STRING.ROS)),
      753     3338    1           3 NAME_A$(0:3) REDEF NAME PTR ALIGNED,
      754     3339    1           3 VALUE ALIGNED,
      755     3340    1             4 JIT UBIN(36) ALIGNED INIT(0),
      756     3341    1             4 DELTA UBIN(36) ALIGNED INIT(0),
      757     3342    1             4 TCB UBIN(36) ALIGNED INIT(0),
      758     3343    1             4 ROS UBIN(36) ALIGNED INIT(0),
      759     3344    1           3 VALUE_A(0:3) REDEF VALUE UBIN(36) ALIGNED,
      760     3345    1           3 SKIP ALIGNED,
      761     3346    1             4 JIT UBIN(36) ALIGNED INIT(0),
      762     3347    1             4 DELTA UBIN(36) ALIGNED INIT(0),
      763     3348    1             4 TCB UBIN(36) ALIGNED INIT(0),
      764     3349    1             4 ROS UBIN(36) ALIGNED INIT(0),
      765     3350    1           3 SKIP_A(0:3) REDEF SKIP UBIN(36) ALIGNED,
      766     3351    1           3 MINE ALIGNED,
      767     3352    1             4 JIT UBIN(36) ALIGNED INIT(0),
      768     3353    1             4 DELTA UBIN(36) ALIGNED INIT(0),
      769     3354    1             4 TCB UBIN(36) ALIGNED INIT(0),
      770     3355    1             4 ROS UBIN(36) ALIGNED INIT(0),
      771     3356    1           3 MINE_A(0:3) REDEF MINE UBIN(36) ALIGNED,
      772     3357    1           3 STRING ALIGNED,
      773     3358    1             4 JIT ALIGNED ,
      774     3359    1               5 COUNT UBIN(18) UNAL INIT(6),
      775     3360    1               5 CHARS CHAR(6) UNAL INIT('B$JIT$'),
      776     3361    1             4 TCB ALIGNED ,
      777     3362    1               5 COUNT UBIN(18) UNAL INIT(6),
      778     3363    1               5 CHARS CHAR(6) UNAL INIT('B$TCB$'),
      779     3364    1             4 ROS ALIGNED ,
      780     3365    1               5 COUNT UBIN(18) UNAL INIT(6),
      781     3366    1               5 CHARS CHAR(6) UNAL INIT('B$ROS$'),
      782     3367    1         2 FAULT SBIN WORD ALIGNED INIT(-1),
      783     3368    1         2 DELTA_DATA_ADR UBIN(36) ALIGNED INIT(0),
      784     3369    1         2 TCBSIZE SBIN WORD ALIGNED INIT(-1);
      785     3370        /**/
      786     3371        /**/
PL6.E3A0      #001=VY_DATA_D File=VY_DATA_D.:E05TSI                              WED 07/30/97 09:06 Page:48
      787     3372        /**/
      788     3373        /* ! ! */
      789     3374    1   DCL VY_DCB_OPTION_TEXT(0:3) CHAR(5) ALIGNED CONSTANT SYMDEF INIT(
      790     3375    1              'SIDCB',
      791     3376    1              'UIDCB',
      792     3377    1              'OUDCB',
      793     3378    1              'LODCB'   );
      794     3379        /* ! R ! */
      795     3380    1   DCL VY_SYNTAX_ERR     BIT(1)  ALIGNED     STATIC SYMDEF INIT(@FALSE_B);
      796     3381    1   DCL 1 VY_HELP                             STATIC SYMDEF,
      797     3382    1         2 LAST          BIT(1)  UNAL        INIT(@FALSE_B),
      798     3383    1         2 TOPICS        BIT(1)  UNAL        INIT(@FALSE_B);
      799     3384    1   DCL VY_ECHO            BIT( 1) ALIGNED    STATIC SYMDEF INIT(@FALSE_B);
      800     3385    1   DCL VY_DO_ECHO         BIT( 1) ALIGNED    STATIC SYMDEF INIT(@FALSE_B);
      801     3386    1   DCL 1 VY_SI_KEY_BUF ALIGNED STATIC SYMDEF,
      802     3387    1         2 COUNT UBIN(9) UNAL,
      803     3388    1         2 KEY CHAR(255),
      804     3389    1         2 EDIT REDEF KEY,
      805     3390    1           3 NUM UBIN(27) UNAL,
      806     3391    1           3 * CHAR(252);
      807     3392        /* ! ! */
      808     3393    1   DCL VY_EI_KEY_BUF CHAR(1) STATIC SYMDEF;
      809     3394        /* ! R ! */
      810     3395    1   DCL 1 VY_LAST_LINE ALIGNED STATIC SYMDEF,
      811     3396    1         2 SIZE UBIN,
      812     3397    1         2 OFFSET UBIN,
      813     3398    1         2 TEXT CHAR(266);
      814     3399        %EJECT;
PL6.E3A0      #001=VY_DATA_D File=VY_DATA_D.:E05TSI                              WED 07/30/97 09:06 Page:49
      815     3400    1   DCL VY_SPC_DATA_INSERT    BIT(1)    ALIGNED   STATIC    SYMDEF    INIT(@TRUE_B);
      816     3401    1   DCL VY_ROS_ALLOWED    BIT(1)    ALIGNED   STATIC    SYMDEF    INIT(@TRUE_B);
      817     3402    1   DCL VY_SHARED_LIB_ASS     UBIN(36)  ALIGNED   STATIC    SYMDEF    INIT(0);
      818     3403    1   DCL VY_IMAGE_BUFFER_SIZE  UBIN(36)  ALIGNED   CONSTANT    SYMDEF  INIT( 1024 );
      819     3404    1   DCL VY_RN_THRESHOLD  UBIN(36)       ALIGNED   CONSTANT    SYMDEF  INIT(30720);
      820     3405    1   DCL VY_REF_EXPONENTIAL_SWITCH  BIT(1)    ALIGNED   STATIC    SYMDEF    INIT(@FALSE_B
              3405            );
      821     3406    1   DCL VY_UNSAT_BUFFER_EXPAND_SWITCH   BIT(1)    ALIGNED   STATIC    SYMDEF    INIT(
              3406            @FALSE_B);
      822     3407    1   DCL VY_UNWIND REMEMBER STATIC SYMDEF ;
      823     3408    1   DCL VY_PAR_UNWIND REMEMBER STATIC SYMDEF ;
      824     3409        /* ! R !DCL VY_PAR_UNWIND_B REDEF VY_PAR_UNWIND BIT(72); */
      825     3410    1   DCL VY_LIB$               PTR  ALIGNED   STATIC    SYMDEF    INIT(ADDR(NIL) );
      826     3411    1   DCL VY_SYMBOL$            PTR  ALIGNED   STATIC    SYMDEF    INIT(ADDR(NIL) );
      827     3412    1   DCL VY_LIST_HEADER        BIT(1)    ALIGNED   STATIC    SYMDEF    INIT(@FALSE_B);
      828     3413    1   DCL VY_ED_START$          PTR  ALIGNED   STATIC    SYMDEF    INIT(ADDR(NIL));
      829     3414    1   DCL VY_ED_STOP$           PTR  ALIGNED   STATIC    SYMDEF    INIT(ADDR(NIL));
      830     3415    1   DCL VY_UTS_START$          PTR  ALIGNED   STATIC    SYMDEF    INIT(ADDR(NIL));
      831     3416    1   DCL VY_UTS_STOP$           PTR  ALIGNED   STATIC    SYMDEF    INIT(ADDR(NIL));
      832     3417    1   DCL 1 VY_O_KEY_UTS        ALIGNED        CONSTANT    SYMDEF,
      833     3418    1         2 COUNT        UBIN(9)   UNAL INIT(2),
      834     3419    1         2 CHARS        CHAR(2)   UNAL INIT('!"');
      835     3420    1   DCL VY_INV_OWRITE    BIT(1)    ALIGNED   STATIC    SYMDEF    INIT(@FALSE_B);
      836     3421    1   DCL VY_INPUT_OPEN         UBIN(36)  ALIGNED   STATIC    SYMDEF    INIT(0);
      837     3422    1   DCL VY_CTAB               UBIN(36) ALIGNED STATIC  SYMDEF    INIT(0);
      838     3423    1   DCL VY_MAP_TABS_A(0:4)    UBIN(36)  ALIGNED   CONSTANT    SYMDEF  INIT(
      839     3424    1              5, 35, 75, 105, 99999999 );
      840     3425    1   DCL VY_MAP_WIDTH          SBIN WORD ALIGNED   STATIC    SYMDEF    INIT(0);
      841     3426    1   DCL VY_MAP_WIDTH_HDR      SBIN WORD ALIGNED   STATIC    SYMDEF    INIT(0);
      842     3427    1   DCL VY_MAX_CTAB           UBIN(36)  ALIGNED   STATIC    SYMDEF    INIT(0);
      843     3428    1   DCL 1 VY_MBUF ALIGNED STATIC SYMDEF,
      844     3429    1         2 CHARS CHAR(132) UNAL INIT(' '),
      845     3430    1         2 CHARS_A(0:131) REDEF CHARS CHAR(1) UNAL,
      846     3431    1         2 LIT_BUF REDEF CHARS UNAL,
      847     3432    1           3 VFC CHAR(1) UNAL,
      848     3433    1           3 CHARS CHAR(131) UNAL;
      849     3434    1   DCL 1 VY_MAP_HDR ALIGNED STATIC SYMDEF,
PL6.E3A0      #001=VY_DATA_D File=VY_DATA_D.:E05TSI                              WED 07/30/97 09:06 Page:50
      850     3435    1         2 CHARS CHAR(132) UNAL INIT(' '),
      851     3436    1         2 CHARS_A(0:131) REDEF CHARS CHAR(1) UNAL,
      852     3437    1         2 LIT_BUF REDEF CHARS UNAL,
      853     3438    1           3 VFC CHAR(1) UNAL,
      854     3439    1           3 CHARS CHAR(131) UNAL;
      855     3440        /* ! ! */
      856     3441    1   DCL M$LO   DCB;
      857     3442        %FPT_WRITE( FPTN=VY_FPT_WRITE, DCB=M$LO, BUF=VY_CBUF, STCLASS="STATIC SYMDEF" );
              3443        %LSET LISTDIR='0'B;
              3459    1   DCL 1 VY_FPT_WRITE STATIC SYMDEF,2 V_ BIT(72)INIT(VECTOR(VY_FPT_WRITE.V))/**/,2 KEY_
              3459            BIT(72)INIT(VECTOR(NIL))/**/,2 BUF_,3
              3460    1   BOUND UBIN(20)UNAL INIT(SIZEV(VY_CBUF))/**/,3 * BIT(12)INIT('7772'O)/**/,3 * BIT(4)
              3460            INIT('0'B)
              3461    1   /**/,3 BUF$ PTR INIT(ADDR(VY_CBUF))/**/,2 STATION_ BIT(72)INIT(VECTOR(NIL))/**/,2
              3462    1   IDBUF_ REDEF STATION_ BIT(72),2 V DALIGNED,3 DCB# UBIN(18)UNAL INIT(DCBNUM(M$LO))
              3462            /**/,3 WAIT# BIT(1)INIT('1'B
              3463    1   )/**/ ,3 * BIT(2)INIT('0'B)/**/,3 ID# BIT(1)INIT('0'B)/**/,3 * BIT(1)INIT('0'B)
              3464    1   /**/,3 FULL# BIT(1)INIT('0'B)/**/ ,3 * BIT(3)INIT('0'B)/**/,3 ONEWKEY# BIT(1)INIT(
              3464            '1'B)
              3465    1   /**/ ,3 NEWKEY# BIT(1)INIT('0'B)/**/ ,3 REWRITE# BIT(1)INIT('0'B)/**/ ,3 NOTIME# BIT
              3465            (1)INIT
              3466    1   ('0'B)/**/ ,3 IOERROK# BIT(1)INIT('0'B)/**/ ,3 KEYTYPE# UBIN(4)INIT(0)/**/ UNAL,
              3467    1   3 EVENT# SBIN INIT(0)/**/,3 SEED# BIT(36)INIT('0'B)/**/,3 DVBYTE,4 TOP# BIT(1)INIT(
              3467            '0'B)
              3468    1   /**/,4 BP# BIT(1)INIT('0'B)/**/,4 VFC# BIT(1)INIT('0'B)/**/,4 REREAD# REDEF VFC# BIT
              3468            (1),4 BIN# BIT(1
              3469    1   )INIT('0'B)/**/,4 TRANS# BIT(1)INIT('0'B)/**/,4 RRR# BIT(1)INIT('0'B)/**/,4 NODAT#
              3469            BIT(1
              3470    1   )INIT('0'B)/**/,4 * BIT(1)INIT('0'B)/**/,4 CONT# BIT(1)INIT('0'B)/**/,3 * BIT(1)INIT
              3471    1   ('0'B)/**/,3 ODFNC# UBIN(8)UNAL INIT(0)/**/,3 * UBIN(18)UNAL INIT(0)/**/;
      858     3473        %FPT_WRITE( FPTN=VY_MAP_LO_FPT_WRITE,
      859     3474                   DCB=M$LO,
      860     3475                   BUF=VY_MBUF,
      861     3476                   VFC=YES,
      862     3477                   STCLASS="STATIC SYMDEF");
              3478        %LSET LISTDIR='0'B;
              3494    1   DCL 1 VY_MAP_LO_FPT_WRITE STATIC SYMDEF,2 V_ BIT(72)INIT(VECTOR(VY_MAP_LO_FPT_WRITE.
PL6.E3A0      #001=VY_DATA_D File=VY_DATA_D.:E05TSI                              WED 07/30/97 09:06 Page:51
              3494            V))/**/,2 KEY_ BIT(72)INIT(VECTOR(NIL))/**/,2 BUF_,3
              3495    1   BOUND UBIN(20)UNAL INIT(SIZEV(VY_MBUF))/**/,3 * BIT(12)INIT('7772'O)/**/,3 * BIT(4)
              3495            INIT('0'B)
              3496    1   /**/,3 BUF$ PTR INIT(ADDR(VY_MBUF))/**/,2 STATION_ BIT(72)INIT(VECTOR(NIL))/**/,2
              3497    1   IDBUF_ REDEF STATION_ BIT(72),2 V DALIGNED,3 DCB# UBIN(18)UNAL INIT(DCBNUM(M$LO))
              3497            /**/,3 WAIT# BIT(1)INIT('1'B
              3498    1   )/**/ ,3 * BIT(2)INIT('0'B)/**/,3 ID# BIT(1)INIT('0'B)/**/,3 * BIT(1)INIT('0'B)
              3499    1   /**/,3 FULL# BIT(1)INIT('0'B)/**/ ,3 * BIT(3)INIT('0'B)/**/,3 ONEWKEY# BIT(1)INIT(
              3499            '1'B)
              3500    1   /**/ ,3 NEWKEY# BIT(1)INIT('0'B)/**/ ,3 REWRITE# BIT(1)INIT('0'B)/**/ ,3 NOTIME# BIT
              3500            (1)INIT
              3501    1   ('0'B)/**/ ,3 IOERROK# BIT(1)INIT('0'B)/**/ ,3 KEYTYPE# UBIN(4)INIT(0)/**/ UNAL,
              3502    1   3 EVENT# SBIN INIT(0)/**/,3 SEED# BIT(36)INIT('0'B)/**/,3 DVBYTE,4 TOP# BIT(1)INIT(
              3502            '0'B)
              3503    1   /**/,4 BP# BIT(1)INIT('0'B)/**/,4 VFC# BIT(1)INIT('1'B)/**/,4 REREAD# REDEF VFC# BIT
              3503            (1),4 BIN# BIT(1
              3504    1   )INIT('0'B)/**/,4 TRANS# BIT(1)INIT('0'B)/**/,4 RRR# BIT(1)INIT('0'B)/**/,4 NODAT#
              3504            BIT(1
              3505    1   )INIT('0'B)/**/,4 * BIT(1)INIT('0'B)/**/,4 CONT# BIT(1)INIT('0'B)/**/,3 * BIT(1)INIT
              3506    1   ('0'B)/**/,3 ODFNC# UBIN(8)UNAL INIT(0)/**/,3 * UBIN(18)UNAL INIT(0)/**/;
      863     3508        /**/
      864     3509        %FPT_WRITE( FPTN=VY_MAP_LIT_LO_FPT_WRITE,
      865     3510                   DCB=M$LO,
      866     3511                   BUF=VY_MBUF,
      867     3512                   VFC=YES,
      868     3513                   STCLASS="STATIC SYMDEF");
              3514        %LSET LISTDIR='0'B;
              3530    1   DCL 1 VY_MAP_LIT_LO_FPT_WRITE STATIC SYMDEF,2 V_ BIT(72)INIT(VECTOR(
              3530            VY_MAP_LIT_LO_FPT_WRITE.V))/**/,2 KEY_ BIT(72)INIT(VECTOR(NIL))/**/,2 BUF_,3
              3531    1   BOUND UBIN(20)UNAL INIT(SIZEV(VY_MBUF))/**/,3 * BIT(12)INIT('7772'O)/**/,3 * BIT(4)
              3531            INIT('0'B)
              3532    1   /**/,3 BUF$ PTR INIT(ADDR(VY_MBUF))/**/,2 STATION_ BIT(72)INIT(VECTOR(NIL))/**/,2
              3533    1   IDBUF_ REDEF STATION_ BIT(72),2 V DALIGNED,3 DCB# UBIN(18)UNAL INIT(DCBNUM(M$LO))
              3533            /**/,3 WAIT# BIT(1)INIT('1'B
              3534    1   )/**/ ,3 * BIT(2)INIT('0'B)/**/,3 ID# BIT(1)INIT('0'B)/**/,3 * BIT(1)INIT('0'B)
              3535    1   /**/,3 FULL# BIT(1)INIT('0'B)/**/ ,3 * BIT(3)INIT('0'B)/**/,3 ONEWKEY# BIT(1)INIT(
              3535            '1'B)
PL6.E3A0      #001=VY_DATA_D File=VY_DATA_D.:E05TSI                              WED 07/30/97 09:06 Page:52
              3536    1   /**/ ,3 NEWKEY# BIT(1)INIT('0'B)/**/ ,3 REWRITE# BIT(1)INIT('0'B)/**/ ,3 NOTIME# BIT
              3536            (1)INIT
              3537    1   ('0'B)/**/ ,3 IOERROK# BIT(1)INIT('0'B)/**/ ,3 KEYTYPE# UBIN(4)INIT(0)/**/ UNAL,
              3538    1   3 EVENT# SBIN INIT(0)/**/,3 SEED# BIT(36)INIT('0'B)/**/,3 DVBYTE,4 TOP# BIT(1)INIT(
              3538            '0'B)
              3539    1   /**/,4 BP# BIT(1)INIT('0'B)/**/,4 VFC# BIT(1)INIT('1'B)/**/,4 REREAD# REDEF VFC# BIT
              3539            (1),4 BIN# BIT(1
              3540    1   )INIT('0'B)/**/,4 TRANS# BIT(1)INIT('0'B)/**/,4 RRR# BIT(1)INIT('0'B)/**/,4 NODAT#
              3540            BIT(1
              3541    1   )INIT('0'B)/**/,4 * BIT(1)INIT('0'B)/**/,4 CONT# BIT(1)INIT('0'B)/**/,3 * BIT(1)INIT
              3542    1   ('0'B)/**/,3 ODFNC# UBIN(8)UNAL INIT(0)/**/,3 * UBIN(18)UNAL INIT(0)/**/;
      869     3544        /* ! R ! */
      870     3545    1   DCL VY_COPY_EXTRACT       BIT(1)    ALIGNED   STATIC    SYMDEF    INIT(@FALSE_B);
      871     3546    1   DCL VY_XREF_TABS_CONSTANT_A(0:11)   UBIN(36)  ALIGNED   CONSTANT    SYMDEF  INIT(
      872     3547    1         22, 32, 42, 52, 62, 72, 82, 92, 102, 112, 122, 132 );
      873     3548    1   DCL VY_XREF_TABS_A(0:11) UBIN(36)   ALIGNED   STATIC    SYMDEF INIT(0*0);
      874     3549    1   END  VY_DATA_D;

PL6.E3A0      #001=VY_DATA_D File=VY_DATA_D.:E05TSI                              WED 07/30/97 09:06 Page:53
--  Include file information  --

   CP_6.:E05TOU  cannot be made into a system file and is referenced.
   VY_PERR_C.:E05TOU  is referenced.
   VY_MACRO_C.:E05TOU  is referenced.
   VY_SUBS_C.:E05TOU  is referenced.
   B$JIT_C.:E05TOU  was found in the system file and is never referenced.
   CP_6_C.:E05TOU  was found in the system file and is referenced.
      No diagnostics issued in procedure VY_DATA_D.

   No code generated for procedure VY_DATA_D .
   Procedure VY_DATA_D requires 4 words of local(AUTO) storage.

    No errors detected in file VY_DATA_D.:E05TSI    .

PL6.E3A0      #001=VY_DATA_D File=VY_DATA_D.:E05TSI                              WED 07/30/97 09:06 Page:54

 Object Unit name= VY_DATA_D                                  File name= VY_DATA_D.:E05TOU
 UTS= JUL 30 '97 09:06:38.36 WED                              Compiler= PL-6/E31         Sev=      00
 SharedLib= :SHARED_SYSTEM                                    Alt SharedLib=


    ****  Control sections  ****

 Sect   Type Bound  Init  Size OctSiz  Section name(segment info)
    0   DCB   even  none     0      0  M$UC
    1   Data  even  none  1051   2033  VY_DATA_D
    2  RoData even  UTS    217    331  VY_DATA_D
    3   DCB   even  none     0      0  M$LO
    4   Proc  even  none     0      0  VY_DATA_D

    ****  Entry defs  ****

                              Check   Calling
                             calling  sequence
  Sect OctLoc Primary Altret sequence   type   Parms  Name
     4      0   yes            yes     ~proc       0  VY_DATA_D
PL6.E3A0      #001=VY_DATA_D File=VY_DATA_D.:E05TSI                              WED 07/30/97 09:06 Page:55

  ****  Data defs  ****

 Sect OctLoc  Name                           Sect OctLoc  Name
    1      0  VY_RU_HEAD                         1     40  VY_RU_HEAD_BUF
    1    100  VY_L_REC_BUF                       1    300  VY_OU_HEAD
    1    335  VY_SC_START$                       1    336  VY_SC_ROOT_LBL_COM
    1    337  VY_SC_LBL_COM                      1    340  VY_SC_BLK_COM
    1    341  VY_LAST_SC$                        1    342  VY_LAST_SC_BASE
    1    343  VY_CURR_SC_ENTRIES                 1    344  VY_TREE_ADR
    1    345  VY_TREE_NAME_POOL                  1    346  VY_TREE_SLIB_NAME
    1    347  VY_TREE_ESZ                        1    350  VY_TREE_PRE
    1    351  VY_TREE_SIZE                       1    352  VY_TREE_DISP
    1    353  VY_TREE_LIB                        1    354  VY_DCB_USER
    1    355  VY_DUMMY                           1    356  VY_CBUF
    1    420  VY_COMMAND                         1    421  VY_ON_OVER
    1    422  VY_FCG_SWITCH                      1    423  VY_PASS
    1    424  VY_DO_PASS1                        1    425  VY_DO_PASS2
    1    426  VY_COUNT_FID                       1    427  VY_FID_COUNT
    1    430  VY_HAVE_ROOT_LBL_COM               1    431  VY_GOT_ON_OVER
    1    432  VY_PRIMARY_ENTDEF_GOT              1    433  VY_LINK_UTS
    1    434  VY_NODE_NUMBER                     1    435  VY_ROOT$
    1    436  VY_RUF$                            1    437  VY_CURR$
    1    440  VY_FCURR$                          1    441  VY_OCURR$
    1    442  VY_NIL_V                           1    444  VY_ERRORS
    1    452  VY_ERR_SEV                         1    453  VY_PROGRAM_BIAS
    1    456  VY_BIAS                            1    461  VY_M_FREE
    1    472  VY_M_ALL                           1    503  VY_M_BASE_PTR
    1    514  VY_M_SEGID                         1    525  VY_ONLINE
    1    526  VY_O                               2      0  VY_O_CONSTANT
    1    550  VY_OD                              2     22  VY_ON
    2     54  VY_OL                              1    554  VY_PHRASE
    1    562  VY_OD_SEARCH                       1    563  VY_ON_SEARCH$
    1    564  VY_SRCH_LST$                       1    565  VY_ERR_CODE
    1    566  VY_ERR_CODE_AUX                    1    567  VY_EBUF
    1    631  VY_EFIELD1                         1    655  VY_EFIELD2
    1    701  VY_EFIELD3                         1    725  BREAK_FN
    1    735  BREAK_OU                           1   1135  BREAK_FLAG
PL6.E3A0      #001=VY_DATA_D File=VY_DATA_D.:E05TSI                              WED 07/30/97 09:06 Page:56
    1   1136  VY_IMAGE$                          1   1137  VY_BADR
    1   1142  VY_EADR                            1   1145  VY_TARGET_COUNT
    1   1146  VY_SOURCE_COUNT                    1   1147  VY_IO_STATUS
    1   1150  VY_IO_SIZEW                        1   1151  VY_IO_SIZEC
    1   1152  VY_IO_USEPREV                      1   1153  VY_IO_SAVEPREV
    1   1154  VY_HEADER                          2    106  VY_O_KEY_HEAD
    2    107  VY_O_KEY_TREE                      2    111  VY_R_KEY_HEAD
    1   1171  VY_P_ENTDEF                        1   1172  VY_KEY_USEPREV
    1   1173  VY_KEY_NAME$                       1   1174  VY_SLIB_HEAD$
    1   1175  VY_SLIB_INIT$                      1   1176  VY_SLIB_MAX_DATA
    1   1177  VY_REC_BUF_START$                  1   1200  VY_REC_BUF_SIZE
    1   1201  VY_BREF_START$                     1   1202  VY_NEXT_BREF$
    1   1203  VY_BREF_SIZE                       1   1204  VY_BREF_ADR
    1   1205  VY_BREF_INSTANCE                   1   1206  VY_BREF_DEFINITION
    2    112  VY_XSO$BREF                        1   1207  VY_TSX0_OVERLAY
    1   1210  VY_SLIB_AREA$                      1   1211  VY_SLIB_AREA_SIZE
    1   1212  VY_SC_X_NODE$                      1   1213  VY_DCB_USER_NEXT
    1   1214  VY_DCB_HEAD$                       1   1215  VY_DCB_TAIL$
    1   1216  VY_DCB_START$                      1   1217  VY_DCB_STOP$
    1   1220  VY_MERGE_START$                    1   1221  VY_MERGE_STOP$
    1   1222  VY_ROOT_DN_INC                     2    122  VY_SYS
    2    124  VY_PASS1_REC_TYPE                  2    135  VY_PASS1_REC_TYPE_RUN
    2    140  VY_PASS1_ALL_TYPE                  2    152  VY_PASS1_LIB_ALL_TYPE
    2    164  VY_HEAD_INX                        2    176  VY_REC_SIZE_A
    2    216  VY_DEF_REC_A                       2    221  VY_REF_REC_A
    2    225  VY_REF_MATCH_A                     2    237  VY_MATCH_NAME_A
    2    251  VY_NAME_DISP_A                     1   1223  VY_LAST_UTS
    1   1224  VY_SC_PASS2$                       1   1225  VY_SC_BASE$
    2    263  VY_PASS2_ALL_TYPE                  1   1226  VY_PASS2_REF
    1   1327  VY_HAVE_SPC                        1   1330  VY_SPC
    2    275  VY_DCB_OPTION_TEXT                 1   1406  VY_SYNTAX_ERR
    1   1407  VY_HELP                            1   1410  VY_ECHO
    1   1411  VY_DO_ECHO                         1   1412  VY_SI_KEY_BUF
    1   1512  VY_EI_KEY_BUF                      1   1513  VY_LAST_LINE
    1   1620  VY_SPC_DATA_INSERT                 1   1621  VY_ROS_ALLOWED
    1   1622  VY_SHARED_LIB_ASS                  2    305  VY_IMAGE_BUFFER_SIZE
    2    306  VY_RN_THRESHOLD                    1   1623  VY_REF_EXPONENTIAL_SWITCH
PL6.E3A0      #001=VY_DATA_D File=VY_DATA_D.:E05TSI                              WED 07/30/97 09:06 Page:57
    1   1624  VY_UNSAT_BUFFER_EXPAND_SWITCH      1   1626  VY_UNWIND
    1   1630  VY_PAR_UNWIND                      1   1632  VY_LIB$
    1   1633  VY_SYMBOL$                         1   1634  VY_LIST_HEADER
    1   1635  VY_ED_START$                       1   1636  VY_ED_STOP$
    1   1637  VY_UTS_START$                      1   1640  VY_UTS_STOP$
    2    307  VY_O_KEY_UTS                       1   1641  VY_INV_OWRITE
    1   1642  VY_INPUT_OPEN                      1   1643  VY_CTAB
    2    310  VY_MAP_TABS_A                      1   1644  VY_MAP_WIDTH
    1   1645  VY_MAP_WIDTH_HDR                   1   1646  VY_MAX_CTAB
    1   1647  VY_MBUF                            1   1710  VY_MAP_HDR
    1   1752  VY_FPT_WRITE                       1   1766  VY_MAP_LO_FPT_WRITE
    1   2002  VY_MAP_LIT_LO_FPT_WRITE            1   2016  VY_COPY_EXTRACT
    2    315  VY_XREF_TABS_CONSTANT_A            1   2017  VY_XREF_TABS_A

  ****  Data refs  ****

  Flags:  r = read only, s = secondary
Flgs Name                             Flgs Name                             Flgs Name
     M$UC                                  N_MAP_KEY_WORD                        N_DUPLICATE_KEY_WORD
     N_SEVERITY_KEY_WORD                   N_NODEBUG_KEY_WORD                    N_DEF_KEY_WORD
     N_REF_KEY_WORD                        N_EDEF_KEY_WORD                       N_EREF_KEY_WORD
     N_DDEF_KEY_WORD                       N_DREF_KEY_WORD                       N_SDEF_KEY_WORD
     N_SREF_KEY_WORD                       N_INQUIRE_KEY_WORD                    N_OVERWRITE_KEY_WORD
     N_ERROR_KEY_WORD                      N_SEARCH_KEY_WORD                     M$LO

  ****  Segment refs  ****

  Flags:  r = read only, s = secondary
Flgs Name                             Flgs Name                             Flgs Name
     NULLSID                               ISSID
PL6.E3A0      #001=VY_DATA_D File=VY_DATA_D.:E05TSI                              WED 07/30/97 09:06 Page:58

        1        1        /*T***********************************************************/
        2        2        /*T*                                                         */
        3        3        /*T* Copyright (c) Bull HN Information Systems Inc., 1997    */
        4        4        /*T*                                                         */
        5        5        /*T***********************************************************/
        6        6        /*X* DMR,PLM=5,IND=5,CSU=3,EXM=0,ECU=3,MOC,DCI=5,CRT=5          */
        7        7        VY_DATA_D: PROC;
        8        8
        9        9        /* ! ! */
       10       10        %INCLUDE VY_SUBS_C;
       11      307        %INCLUDE VY_MACRO_C;
       12     1443        %INCLUDE VY_PERR_C;
       13     1575        %PLIST;
       14     1576        %INCLUDE CP_6;
       15     1657        %LIST;
       16     1658        %EJECT;
PL6.E3A0      #001=VY_DATA_D File=VY_DATA_D.:E05TSI                              WED 07/30/97 09:06 Page:59
       17     1659        %VYR$TMPLT;
              1660                %LSET LISTDIR='0'B;

              1673    1   /*******************************************************************************
              1674    1   *                                                                              *
              1675    1   *                          VYR$TMPLT                                              *
              1676    1   *                                                                              *
              1677    1   *******************************************************************************/

              1681    1   DCL 1 VYR$TMPLT                                         BASED ALIGNED,
              1682    1         2 NAME_DISP              UBIN(18)       UNAL,
              1683    1         2 ER                                    UNAL,
              1684    1           3 SREF                  BIT (1)        UNAL,
              1685    1           3 A                     UBIN(1)        UNAL,
              1686    1           3 I                     BIT(1)         UNAL,
              1687    1           3 CST                   UBIN(4)        UNAL,
              1688    1           3 NP                    UBIN(11)       UNAL,
              1689    1         2 CAND    REDEF     ER,
              1690    1           3 SREF                  BIT (1)        UNAL,
              1691    1           3 READ_ONLY             BIT(1)         UNAL,
              1692    1           3 STATE                 BIT(1)         UNAL,
              1693    1           3 *                     UBIN(15)       UNAL,
              1694    1         2 OU_NAME_DISP REDEF     ER,
              1695    1           3 SREF                  BIT (1)        UNAL,
              1696    1           3 READ_ONLY             BIT(1)         UNAL,
              1697    1           3 GOT                   BIT(1)         UNAL,
              1698    1           3 NAME_DISP             UBIN(15)       UNAL,
              1699    1         2 SAT     REDEF     ER,
              1700    1           3 BREF                  BIT ( 1)       UNAL,
              1701    1           3 *                     BIT (17)       UNAL;

              1710    1   /*******************************************************************************
              1711    1   *                                                                              *
              1712    1   *                          VYR$SAT                                                *
              1713    1   *                                                                              *
              1714    1   *******************************************************************************/

PL6.E3A0      #001=VY_DATA_D File=VY_DATA_D.:E05TSI                              WED 07/30/97 09:06 Page:60
              1718    1   DCL 1 VYR$SAT                 ALIGNED   BASED,
              1719    1         2 VALUE        UBIN(36)  ALIGNED,
              1720    1         2 SEG   REDEF  VALUE,
              1721    1           3 OFFSET     UBIN(18)  UNAL,
              1722    1           3 *          BIT(6)    UNAL,
              1723    1           3 SEGID      UBIN(12)  UNAL,
              1724    1         2 BELOW        BIT(1)    UNAL,
              1725    1         2 *            BIT(17)   UNAL,
              1726    1         2 NODE#        UBIN(18)  UNAL;
       18     1729        %VY$SC;
              1730        %LSET LISTDIR='0'B;

              1743    1   /*******************************************************************************
              1744    1   *                                                                              *
              1745    1   *                          VY$SC                                                 *
              1746    1   *                                                                              *
              1747    1   *******************************************************************************/

              1751    1   DCL 1 VY$SC               BASED     ALIGNED,
              1752    1         2 TYPE              UBIN(9)   UNAL,
              1753    1         2 EMPTY             BIT (1)   UNAL,
              1754    1         2 ATTR                        UNAL,
              1755    1           3 INT              UBIN(2)   UNAL,
              1756    1           3 SEGMENT          BIT(1)    UNAL,
              1757    1           3 ALL              BIT(1)    UNAL,
              1758    1           3 PRE_DCB          BIT(1) UNAL, /* '1'B => true; '0'B => false        */
              1759    1           3 MES_INIT         BIT (1)   UNAL,
              1760    1           3 ALIGN            UBIN(2)   UNAL,
              1761    1         2 ADDRESS           UBIN(18)  UNAL,
              1762    1         2 NAME_DISP         SBIN HALF UNAL,
              1763    1         2 SIZE              UBIN(18)  UNAL,
              1764    1         2 NODE#             UBIN(18)  UNAL,
              1765    1         2 COM_LINK          UBIN(18)  UNAL;

              1774    1   /*******************************************************************************
              1775    1   *                                                                              *
              1776    1   *                          VY$SECT                                                *
PL6.E3A0      #001=VY_DATA_D File=VY_DATA_D.:E05TSI                              WED 07/30/97 09:06 Page:61
              1777    1   *                                                                              *
              1778    1   *******************************************************************************/

              1782    1   DCL 1 VY$SECT       BASED     ALIGNED,
              1783    1         2 TYPE              UBIN(9)   UNAL,
              1784    1         2 EMPTY             BIT (1)   UNAL,
              1785    1         2 ATTR                        UNAL,
              1786    1           3 INT              UBIN(2)  UNAL,
              1787    1           3 SEGMENT          BIT (1)  UNAL,
              1788    1           3 *                UBIN(3)  UNAL,
              1789    1           3 ALIGN            UBIN(2)  UNAL,
              1790    1         2 SIZE              UBIN(18)  UNAL,
              1791    1         2 NAME_DISP         SBIN HALF UNAL,
              1792    1         2 SEG_NPOINTER      UBIN(18)  UNAL;
       19     1795        %TMPLT;
              1796        %LSET LISTDIR='0'B;

              1807    1   /*******************************************************************************
              1808    1   *                                                                              *
              1809    1   *                          TMPLT                                                 *
              1810    1   *                                                                              *
              1811    1   *******************************************************************************/

              1816    1   DCL 1 VY$TMPLT           ALIGNED BASED, /* Template for defs                  */
              1817    1         2 A(0:3)       UBIN(18)  UNAL,    /* Array access                       */
              1818    1         2 A_SBIN(0:3) REDEF A    SBIN HALF UNAL,
              1819    1         2 W       REDEF     A,            /* By name                            */
              1820    1           3 WORD0       UBIN(36)  UNAL,   /* First word                         */
              1821    1           3 WORD1       UBIN(36)  UNAL;   /* Second word                        */
       20     1824        %VY$NODE;
              1825        %LSET LISTDIR='0'B;

              1836    1   /*******************************************************************************
              1837    1   *                                                                              *
              1838    1   *                          VY$NODE                                                *
              1839    1   *                                                                              *
              1840    1   *******************************************************************************/
PL6.E3A0      #001=VY_DATA_D File=VY_DATA_D.:E05TSI                              WED 07/30/97 09:06 Page:62

              1856    1   DCL 1 VY$NODE      ALIGNED    BASED,
              1857    1         2 SON$ PTR /*(ADDR(NIL))*/, /* Son pointer                      */
              1858    1         2 BROTHER$ PTR /*(ADDR(NIL))*/, /* Brother pointer              */
              1859    1         2 FATHER$ PTR /*(ADDR(NIL))*/, /* Father pointer                */
              1860    1         2 PATH$ PTR /*(ADDR(NIL))*/, /* Path   pointer                  */
              1861    1         2 HEAD$       PTR /*(ADDR(NIL))*/, /* Head pointer to
              1862                              to list of file nodes for this node            */
              1863    1         2 TAIL$ PTR /*(ADDR(NIL))*/, /* Tail pointer to list            */
              1864    1         2 SHARED_LIB_HEAD$ PTR /*(ADDR(NIL))*/,
              1864                  /* Head pointer to shared library list */
              1865    1         2 LIB_HEAD$         PTR /*(ADDR(NIL))*/,
              1865                  /* Head pointer to list of shared libraries
              1866                                          which have been mapped to included libraries */
              1867    1         2 NUM          UBIN(36)  UNAL,    /* Node number                        */
              1868    1         2 DEPTH          UBIN(36)  UNAL,  /* Depth; ROOT=0*/
              1869    1         2 ADDR_START_A(0:2/*@ROS*/) SBIN WORD /*(0*3)*/, /* Array            */
              1870    1         2 ADDR_START REDEF  ADDR_START_A,
              1871    1           3 RDATA       SBIN WORD,   /* First address for this node in data     */
              1872    1           3 RPROC       SBIN WORD,   /* First address for this node in proc     */
              1873    1           3 ROS       SBIN WORD,          /* Last address for program in ros    */
              1874    1         2 ADDR_STOP_A(0:2/*@ROS*/) SBIN WORD /*(-1*3)*/, /* Array            */
              1875    1         2 ADDR_STOP  REDEF  ADDR_STOP_A,
              1876    1           3 RDATA       SBIN WORD,        /* Last address for this node in data */
              1877    1           3 RPROC       SBIN WORD,        /* Last address for this node in proc */
              1878    1           3 ROS       SBIN WORD,          /* Last address for program in ros    */
              1879    1         2 START_PAGE#_A(0:2/*@ROS*/) SBIN WORD /*(0*3)*/, /* Array           */
              1880    1         2 START_PAGE# REDEF START_PAGE#_A,
              1881    1           3 RDATA       SBIN WORD,   /* First page    for this node in data     */
              1882    1           3 RPROC       SBIN WORD,   /* First page    for this node in proc     */
              1883    1           3 ROS       SBIN WORD,          /* First page   for program in ros    */
              1884    1         2 STOP_PAGE#_A(0:2/*@ROS*/) SBIN WORD /*(-1*3)*/, /* Array*/
              1885    1         2 STOP_PAGE#  REDEF STOP_PAGE#_A,
              1886    1           3 RDATA       SBIN WORD,   /* Last  page    for this node in data     */
              1887    1           3 RPROC       SBIN WORD,   /* Last  page    for this node in proc     */
              1888    1           3 ROS       SBIN WORD,          /* Last  page   for program in ros    */
              1889    1         2 START_SC_ALL$ PTR /*(ADDR(NIL))*/,
PL6.E3A0      #001=VY_DATA_D File=VY_DATA_D.:E05TSI                              WED 07/30/97 09:06 Page:63
              1889                  /* Starting pointer for common sections for this node */
              1890    1         2 STOP_SC_ALL$ PTR /*(ADDR(NIL))*/,
              1890                  /* Stopping pointer for common sections for this node */
              1891    1         2 L_START,
              1892    1           3 SN$ PTR /*(ADDR(NIL))*/, /* Segment definition names        */
              1893    1           3 DN$ PTR /*(ADDR(NIL))*/, /* Def names                       */
              1894    1           3 RN$ PTR /*(ADDR(NIL))*/, /* Ref names                       */
              1895    1           3 SC$ PTR /*(ADDR(NIL))*/, /* Sections                        */
              1896    1           3 ED$ PTR /*(ADDR(NIL))*/, /* Entry defs*/
              1897    1           3 ER$ PTR /*(ADDR(NIL))*/, /* Entry refs*/
              1898    1           3 DD$ PTR /*(ADDR(NIL))*/, /* Data defs                       */
              1899    1           3 DR$ PTR /*(ADDR(NIL))*/, /* Data refs                       */
              1900    1           3 SD$ PTR /*(ADDR(NIL))*/, /* Seg defs                        */
              1901    1           3 SR$ PTR /*(ADDR(NIL))*/, /* Seg refs                        */
              1902    1         2 L_START_A$(0:9)     REDEF L_START PTR,
              1903    1         2 L_STOP,
              1904    1           3 SN$ PTR /*(ADDR(NIL))*/, /* Segment definition names        */
              1905    1           3 DN$ PTR /*(ADDR(NIL))*/, /* Def names                       */
              1906    1           3 RN$ PTR /*(ADDR(NIL))*/, /* Ref names                       */
              1907    1           3 SC$ PTR /*(ADDR(NIL))*/, /* Sections                        */
              1908    1           3 ED$ PTR /*(ADDR(NIL))*/, /* Entry defs*/
              1909    1           3 ER$ PTR /*(ADDR(NIL))*/, /* Entry refs*/
              1910    1           3 DD$ PTR /*(ADDR(NIL))*/, /* Data defs                       */
              1911    1           3 DR$ PTR /*(ADDR(NIL))*/, /* Data refs                       */
              1912    1           3 SD$ PTR /*(ADDR(NIL))*/, /* Seg defs                        */
              1913    1           3 SR$ PTR /*(ADDR(NIL))*/, /* Seg refs                        */
              1914    1         2 L_STOP_A$(0:9) REDEF   L_STOP    PTR,
              1915    1         2 L_SIZE,
              1916    1           3 SN      UBIN /*(0)*/, /* Segment definition names           */
              1917    1           3 DN      UBIN /*(0)*/, /* Def names                          */
              1918    1           3 RN      UBIN /*(0)*/, /* Ref names                          */
              1919    1           3 SC      UBIN /*(0)*/, /* Sections                           */
              1920    1           3 ED      UBIN /*(0)*/, /* Entry defs*/
              1921    1           3 ER      UBIN /*(0)*/, /* Entry refs*/
              1922    1           3 DD      UBIN /*(0)*/, /* Data defs                          */
              1923    1           3 DR      UBIN /*(0)*/, /* Data refs                          */
              1924    1           3 SD      UBIN /*(0)*/, /* Seg defs                           */
PL6.E3A0      #001=VY_DATA_D File=VY_DATA_D.:E05TSI                              WED 07/30/97 09:06 Page:64
              1925    1           3 SR      UBIN /*(0)*/, /* Seg refs                           */
              1926    1         2 L_SIZE_A(0:9)  REDEF   L_SIZE    UBIN,
              1927    1         2 L_PREV_SIZE,
              1928    1           3 SN      UBIN /*(0)*/, /* Segment definition names           */
              1929    1           3 DN      UBIN /*(0)*/, /* Def names                          */
              1930    1           3 RN      UBIN /*(0)*/, /* Ref names                          */
              1931    1           3 SC      UBIN /*(0)*/, /* Sections                           */
              1932    1           3 ED      UBIN /*(0)*/, /* Entry defs*/
              1933    1           3 ER      UBIN /*(0)*/, /* Entry refs*/
              1934    1           3 DD      UBIN /*(0)*/, /* Data defs                          */
              1935    1           3 DR      UBIN /*(0)*/, /* Data refs                          */
              1936    1           3 SD      UBIN /*(0)*/, /* Seg defs                           */
              1937    1           3 SR      UBIN /*(0)*/, /* Seg refs                           */
              1938    1         2 L_PREV_SIZE_A(0:9)  REDEF   L_PREV_SIZE    UBIN,
              1939    1         2 BIT_MAP                ALIGNED,
              1940    1           3 DATA                  ALIGNED,
              1941    1             4 BITS(0:255)          BIT(1)    UNAL /*('0'B*256)*/,
              1942    1           3 RPROC                 ALIGNED,
              1943    1             4 BITS(0:255)          BIT(1)    UNAL /*('0'B*256)*/,
              1944    1           3 ROS                   ALIGNED,
              1945    1             4 BITS(0:255)          BIT(1)    UNAL /*('0'B*256)*/,
              1946    1         2 L_SC_START,
              1947    1           3 SC_BLK_COM$ PTR /*(ADDR(NIL))*/, /* Blank common            */
              1948    1           3 SC_ROOT_LBL_COM$ PTR /*(ADDR(NIL))*/, /* Root labelled common */
              1949    1           3 SC_LBL_COM$ PTR /*(ADDR(NIL))*/, /* Labelled common         */
              1950    1           3 SC_DCB$ PTR /*(ADDR(NIL))*/, /* Dcbs                        */
              1951    1         2 L_SC_START_A$(0:3)  REDEF L_SC_START PTR,
              1952    1         2 L_SC_STOP,
              1953    1           3 SC_BLK_COM$ PTR /*(ADDR(NIL))*/, /* Blank common            */
              1954    1           3 SC_ROOT_LBL_COM$ PTR /*(ADDR(NIL))*/, /* Root labelled common */
              1955    1           3 SC_LBL_COM$ PTR /*(ADDR(NIL))*/, /* Labelled common         */
              1956    1           3 SC_DCB$ PTR /*(ADDR(NIL))*/, /* Dcbs                        */
              1957    1         2 L_SC_STOP_A$(0:3)   REDEF L_SC_STOP  PTR,
              1958    1         2 PROMOTE_HEAD,
              1959    1           3 BLK_COM$              PTR /*(ADDR(NIL))*/,
              1960    1           3 LBL_COM$              PTR /*(ADDR(NIL))*/,
              1961    1         2 PROMOTE_HEAD_A$(0:1) REDEF PROMOTE_HEAD     PTR,
PL6.E3A0      #001=VY_DATA_D File=VY_DATA_D.:E05TSI                              WED 07/30/97 09:06 Page:65
              1962    1         2 PROMOTE_TAIL,
              1963    1           3 BLK_COM$              PTR /*(ADDR(NIL))*/,
              1964    1           3 LBL_COM$              PTR /*(ADDR(NIL))*/,
              1965    1         2 PROMOTE_TAIL_A$(0:1) REDEF PROMOTE_TAIL     PTR,
              1966    1         2 HAVE_ASL          BIT(1)    UNAL /*('0'B)*/,
              1967    1         2 ALL_BLK_COM          BIT(1)    UNAL /*('0'B)*/,
              1968    1         2 *                 BIT(34)   UNAL /*('0'B)*/,
              1969    1         2 BLANK_COMMON$     PTR       ALIGNED /*(ADDR(NIL))*/;

       21     1973        %VY$LST;
              1974        %LSET LISTDIR='0'B;

              1985    1   /*******************************************************************************
              1986    1   *                                                                              *
              1987    1   *                          VY$LST                                                 *
              1988    1   *                                                                              *
              1989    1   *******************************************************************************/

              1994    1   DCL 1 VY$LST                        ALIGNED BASED,
              1995    1         2 LINK$        PTR,               /* Link to next item                  */
              1996    1         2 TYPE         UBIN( 18) UNAL,    /* Type                               */
              1997    1         2 SUB_TYPE     UBIN( 18) UNAL,    /* Sub-type                           */
              1998    1         2 OBJECT_NAME$ PTR,               /* Pointer to object unit name        */
              1999    1         2 SC_HEAD$     PTR,               /* Head pointer to section link list  */
              2000    1         2 SC_TAIL$     PTR,               /* Tail pointer to section link list  */
              2001    1         2 P,
              2002    1           3 NAME_       ALIGNED,
              2003    1             4 BOUND      UBIN(20)  UNAL,
              2004    1             4 FLAGSV     UBIN(11)  UNAL,
              2005    1             4 *          BIT(5)    UNAL,
              2006    1             4 NAME$      PTR,
              2007    1           3 ACCT_       ALIGNED,
              2008    1             4 BOUND      UBIN(20)  UNAL,
              2009    1             4 FLAGSV     UBIN(11)  UNAL,
              2010    1             4 *          BIT(5)    UNAL,
              2011    1             4 ACCT$      PTR,
              2012    1           3 PASS_       ALIGNED,
PL6.E3A0      #001=VY_DATA_D File=VY_DATA_D.:E05TSI                              WED 07/30/97 09:06 Page:66
              2013    1             4 BOUND      UBIN(20)  UNAL,
              2014    1             4 FLAGSV     UBIN(11)  UNAL,
              2015    1             4 *          BIT(5)    UNAL,
              2016    1             4 PASS$      PTR,
              2017    1           3 SN_         ALIGNED,
              2018    1             4 BOUND      UBIN(20)  UNAL,
              2019    1             4 FLAGSV     UBIN(11)  UNAL,
              2020    1             4 *          BIT(5)    UNAL,
              2021    1             4 SN$        PTR,
              2022    1           3 WSN_        ALIGNED,
              2023    1             4 BOUND      UBIN(20)  UNAL,
              2024    1             4 FLAGSV     UBIN(11)  UNAL,
              2025    1             4 *          BIT(5)    UNAL,
              2026    1             4 WSN$       PTR,
              2027    1           3 B           ALIGNED,
              2028    1             4 RES        BIT(1)    UNAL,
              2029    1             4 ASN        BIT(1)    UNAL,
              2030    1             4 *          BIT(34)   UNAL,
              2031    1           3 RES         CHAR(4)   ALIGNED,
              2032    1           3 ASN         UBIN(36)  ALIGNED;
       22     2035        %EJECT;
PL6.E3A0      #001=VY_DATA_D File=VY_DATA_D.:E05TSI                              WED 07/30/97 09:06 Page:67
       23     2036        /* ! R ! */
       24     2037    1   DCL 1 VY_RU_HEAD STATIC SYMDEF,
       25     2038    1         2 PRIV BIT ( 36) UNAL INIT('0'B),
       26     2039    1         2 VPPGS UBIN( 9) UNAL INIT(0),
       27     2040    1         2 VDPGS UBIN( 9) UNAL INIT(0),
       28     2041    1         2 PBIT(0:8) BIT ( 1) UNAL INIT('0'B*0),
       29     2042    1         2 BITS REDEF PBIT,
       30     2043    1           3 S BIT ( 1) UNAL,
       31     2044    1           3 L BIT ( 1) UNAL,
       32     2045    1           3 A BIT ( 1) UNAL,
       33     2046    1           3 OVERLAID BIT ( 1) UNAL,
       34     2047    1           3 PROCACC BIT ( 1) UNAL,
       35     2048    1           3 NOCHARGE BIT ( 1) UNAL,
       36     2049    1           3 * BIT ( 1) UNAL,
       37     2050    1           3 * BIT ( 1) UNAL,
       38     2051    1           3 * BIT ( 1) UNAL,
       39     2052    1         2 SEVLEV UBIN( 9) UNAL INIT(0),
       40     2053    1         2 RDATA UBIN(18) UNAL INIT(0),
       41     2054    1         2 RPROC UBIN(18) UNAL INIT(0),
       42     2055    1         2 BIAS UBIN(18) UNAL INIT(0),
       43     2056    1         2 START UBIN(18) UNAL INIT(0),
       44     2057    1         2 DCB_NUM UBIN(18) UNAL INIT(0),
       45     2058    1         2 DCBPTR UBIN(18) UNAL INIT(0),
       46     2059    1         2 TREE_DISP UBIN(18) UNAL INIT(0),
       47     2060    1         2 TCB_SIZE UBIN(18) UNAL INIT(0),
       48     2061    1         2 PR_SIZE UBIN(18) UNAL INIT(0),
       49     2062    1         2 L UNAL,
       50     2063    1           3 DN_SIZE UBIN(18) UNAL INIT(0),
       51     2064    1           3 ED_SIZE UBIN(18) UNAL INIT(0),
       52     2065    1           3 DD_SIZE UBIN(18) UNAL INIT(0),
       53     2066    1           3 SD_SIZE UBIN(18) UNAL INIT(0),
       54     2067    1         2 L_A(0:3) REDEF L UBIN(18) UNAL,
       55     2068    1         2 ROS_SIZE UBIN(18) UNAL INIT(0),
       56     2069    1         2 VERSION UBIN(9) UNAL INIT( @LINK_VERSION# ),
       57     2070    1         2 MAP_BITS UNAL,
       58     2071    1           3 ED UNAL,
       59     2072    1             4 MULTIPLE BIT (1) UNAL INIT('0'B),
PL6.E3A0      #001=VY_DATA_D File=VY_DATA_D.:E05TSI                              WED 07/30/97 09:06 Page:68
       60     2073    1             4 CON BIT (1) UNAL INIT('0'B),
       61     2074    1             4 PRIMARY BIT (1) UNAL INIT('0'B),
       62     2075    1             4 SECONDARY BIT (1) UNAL INIT('0'B),
       63     2076    1           3 DD UNAL,
       64     2077    1             4 MULTIPLE BIT (1) UNAL INIT('0'B),
       65     2078    1             4 CON BIT (1) UNAL INIT('0'B),
       66     2079    1             4 PRIMARY BIT (1) UNAL INIT('0'B),
       67     2080    1             4 SECONDARY BIT (1) UNAL INIT('0'B),
       68     2081    1           3 SD UNAL,
       69     2082    1             4 MULTIPLE BIT (1) UNAL INIT('0'B),
       70     2083    1             4 CON BIT (1) UNAL INIT('0'B),
       71     2084    1             4 PRIMARY BIT (1) UNAL INIT('0'B),
       72     2085    1             4 SECONDARY BIT (1) UNAL INIT('0'B),
       73     2086    1         2 MAP_BITS_A(0:2) REDEF MAP_BITS UNAL,
       74     2087    1           3 MULTIPLE BIT(1) UNAL,
       75     2088    1           3 CON BIT(1) UNAL,
       76     2089    1           3 PRIMARY BIT(1) UNAL,
       77     2090    1           3 SECONDARY BIT(1) UNAL,
       78     2091    1         2 * BIT(15) UNAL INIT('0'B),
       79     2092    1         2 DATA_SEGMENT (0:5) UBIN UNAL INIT(0*0),
       80     2093    1         2 DATA_SEG (0:5) REDEF DATA_SEGMENT,
       81     2094    1           3 SIZ UBIN HALF UNAL,           /* Data seg word size */
       82     2095    1           3 * UBIN BYTE UNAL,
       83     2096    1           3 PROTECTION UBIN BYTE UNAL,    /* Date seg. protection */
       84     2097    1         2 LIB UNAL,
       85     2098    1           3 COUNT UBIN( 9) UNAL INIT(0),
       86     2099    1           3 CHARS CHAR(31) UNAL
       87     2100    1             INIT('                               '),
       88     2101    1         2 ALIB UNAL,
       89     2102    1           3 COUNT UBIN( 9) UNAL INIT(0),
       90     2103    1           3 CHARS CHAR(31) UNAL
       91     2104    1             INIT('                               ');
       92     2105    1   DCL 1 VY_RU_HEAD_BUF STATIC SYMDEF,
       93     2106    1         2 PRIV BIT ( 36) UNAL INIT('0'B),
       94     2107    1         2 VPPGS UBIN( 9) UNAL INIT(0),
       95     2108    1         2 VDPGS UBIN( 9) UNAL INIT(0),
       96     2109    1         2 PBIT(0:8) BIT ( 1) UNAL INIT('0'B*0),
PL6.E3A0      #001=VY_DATA_D File=VY_DATA_D.:E05TSI                              WED 07/30/97 09:06 Page:69
       97     2110    1         2 BITS REDEF PBIT,
       98     2111    1           3 S BIT ( 1) UNAL,
       99     2112    1           3 L BIT ( 1) UNAL,
      100     2113    1           3 A BIT ( 1) UNAL,
      101     2114    1           3 OVERLAID BIT ( 1) UNAL,
      102     2115    1           3 PROCACC BIT ( 1) UNAL,
      103     2116    1           3 NOCHARGE BIT ( 1) UNAL,
      104     2117    1           3 * BIT ( 1) UNAL,
      105     2118    1           3 * BIT ( 1) UNAL,
      106     2119    1           3 * BIT ( 1) UNAL,
      107     2120    1         2 SEVLEV UBIN( 9) UNAL INIT(0),
      108     2121    1         2 RDATA UBIN(18) UNAL INIT(0),
      109     2122    1         2 RPROC UBIN(18) UNAL INIT(0),
      110     2123    1         2 BIAS UBIN(18) UNAL INIT(0),
      111     2124    1         2 START UBIN(18) UNAL INIT(0),
      112     2125    1         2 DCB_NUM UBIN(18) UNAL INIT(0),
      113     2126    1         2 DCBPTR UBIN(18) UNAL INIT(0),
      114     2127    1         2 TREE_DISP UBIN(18) UNAL INIT(0),
      115     2128    1         2 TCB_SIZE UBIN(18) UNAL INIT(0),
      116     2129    1         2 PR_SIZE UBIN(18) UNAL INIT(0),
      117     2130    1         2 L UNAL,
      118     2131    1           3 DN_SIZE UBIN(18) UNAL INIT(0),
      119     2132    1           3 ED_SIZE UBIN(18) UNAL INIT(0),
      120     2133    1           3 DD_SIZE UBIN(18) UNAL INIT(0),
      121     2134    1           3 SD_SIZE UBIN(18) UNAL INIT(0),
      122     2135    1         2 L_A(0:3) REDEF L UBIN(18) UNAL,
      123     2136    1         2 ROS_SIZE UBIN(18) UNAL INIT(0),
      124     2137    1         2 VERSION UBIN(9) UNAL INIT( @LINK_VERSION# ),
      125     2138    1         2 MAP_BITS UNAL,
      126     2139    1           3 ED UNAL,
      127     2140    1             4 MULTIPLE BIT (1) UNAL INIT('0'B),
      128     2141    1             4 CON BIT (1) UNAL INIT('0'B),
      129     2142    1             4 PRIMARY BIT (1) UNAL INIT('0'B),
      130     2143    1             4 SECONDARY BIT (1) UNAL INIT('0'B),
      131     2144    1           3 DD UNAL,
      132     2145    1             4 MULTIPLE BIT (1) UNAL INIT('0'B),
      133     2146    1             4 CON BIT (1) UNAL INIT('0'B),
PL6.E3A0      #001=VY_DATA_D File=VY_DATA_D.:E05TSI                              WED 07/30/97 09:06 Page:70
      134     2147    1             4 PRIMARY BIT (1) UNAL INIT('0'B),
      135     2148    1             4 SECONDARY BIT (1) UNAL INIT('0'B),
      136     2149    1           3 SD UNAL,
      137     2150    1             4 MULTIPLE BIT (1) UNAL INIT('0'B),
      138     2151    1             4 CON BIT (1) UNAL INIT('0'B),
      139     2152    1             4 PRIMARY BIT (1) UNAL INIT('0'B),
      140     2153    1             4 SECONDARY BIT (1) UNAL INIT('0'B),
      141     2154    1         2 MAP_BITS_A(0:2) REDEF MAP_BITS UNAL,
      142     2155    1           3 MULTIPLE BIT(1) UNAL,
      143     2156    1           3 CON BIT(1) UNAL,
      144     2157    1           3 PRIMARY BIT(1) UNAL,
      145     2158    1           3 SECONDARY BIT(1) UNAL,
      146     2159    1         2 * BIT(15) UNAL INIT('0'B),
      147     2160    1         2 DATA_SEGMENT (0:5) UBIN UNAL INIT(0*0),
      148     2161    1         2 DATA_SEG (0:5) REDEF DATA_SEGMENT,
      149     2162    1           3 SIZ UBIN HALF UNAL,           /* Data seg word size */
      150     2163    1           3 * UBIN BYTE UNAL,
      151     2164    1           3 PROTECTION UBIN BYTE UNAL,    /* Date seg. protection */
      152     2165    1         2 LIB UNAL,
      153     2166    1           3 COUNT UBIN( 9) UNAL INIT(0),
      154     2167    1           3 CHARS CHAR(31) UNAL
      155     2168    1             INIT('                               '),
      156     2169    1         2 ALIB UNAL,
      157     2170    1           3 COUNT UBIN( 9) UNAL INIT(0),
      158     2171    1           3 CHARS CHAR(31) UNAL
      159     2172    1             INIT('                               ');
      160     2173        %EJECT;
PL6.E3A0      #001=VY_DATA_D File=VY_DATA_D.:E05TSI                              WED 07/30/97 09:06 Page:71
      161     2174        /*
      162     2175              BUFFER FOR OBJECT UNIT NAME FOR LIBRARY SEARCHES
      163     2176        */
      164     2177    1   DCL 1 VY_L_REC_BUF ALIGNED STATIC SYMDEF,
      165     2178    1         2 COUNT UBIN(9) UNAL INIT(0),
      166     2179    1         2 CHARS CHAR(511) UNAL INIT(' ');
      167     2180        /**/
      168     2181        /**/
      169     2182        /**/
      170     2183    1   DCL 1 VY_OU_HEAD STATIC SYMDEF,
      171     2184    1         2 UTS UBIN(36) UNAL INIT(0),
      172     2185    1         2 CMPLRID UNAL,
      173     2186    1           3 *      UBIN(9)   UNAL INIT(0),
      174     2187    1           3 ID     UBIN(9)   UNAL INIT(0),
      175     2188    1           3 VERS_LETTER CHAR(1) UNAL INIT(BINASC(0)),
      176     2189    1           3 VERS_NUMBER UBIN BYTE UNAL INIT(0),
      177     2190    1         2 START_ADDRESS,
      178     2191    1           3 OPERAND_TYPE UBIN( 4) UNAL INIT(0),
      179     2192    1           3 * BIT ( 5) UNAL INIT('0'B),
      180     2193    1           3 OPERAND UBIN( 9) UNAL INIT(0),
      181     2194    1           3 OFFSET UBIN(18) UNAL INIT(0),
      182     2195    1         2 SEVLEV UBIN(18) UNAL INIT(0),
      183     2196    1         2 LB_SIZE UBIN(18) UNAL INIT(0),
      184     2197    1         2 PR_SIZE UBIN(18) UNAL INIT(0),
      185     2198    1         2 RL_SIZE UBIN(18) UNAL INIT(0),
      186     2199    1         2 REC_A(0:7) UNAL,
      187     2200    1           3 SIZE UBIN(18) UNAL INIT(0*0),
      188     2201    1           3 PAGE UBIN(18) UNAL INIT(0*0),
      189     2202    1         2 REC REDEF REC_A,
      190     2203    1           3 DN_SIZE UBIN(18) UNAL ,
      191     2204    1           3 DN_PAGE UBIN(18) UNAL ,
      192     2205    1           3 RN_SIZE UBIN(18) UNAL ,
      193     2206    1           3 RN_PAGE UBIN(18) UNAL ,
      194     2207    1           3 ED_SIZE UBIN(18) UNAL ,
      195     2208    1           3 ED_PAGE UBIN(18) UNAL ,
      196     2209    1           3 ER_SIZE UBIN(18) UNAL ,
      197     2210    1           3 ER_PAGE UBIN(18) UNAL ,
PL6.E3A0      #001=VY_DATA_D File=VY_DATA_D.:E05TSI                              WED 07/30/97 09:06 Page:72
      198     2211    1           3 DD_SIZE UBIN(18) UNAL ,
      199     2212    1           3 DD_PAGE UBIN(18) UNAL ,
      200     2213    1           3 DR_SIZE UBIN(18) UNAL ,
      201     2214    1           3 DR_PAGE UBIN(18) UNAL ,
      202     2215    1           3 SD_SIZE UBIN(18) UNAL ,
      203     2216    1           3 SD_PAGE UBIN(18) UNAL ,
      204     2217    1           3 SR_SIZE UBIN(18) UNAL ,
      205     2218    1           3 SR_PAGE UBIN(18) UNAL ,
      206     2219    1         2 LIB,
      207     2220    1           3 COUNT UBIN( 9) UNAL INIT(0),
      208     2221    1           3 NAME CHAR(31) UNAL
      209     2222    1             INIT('                               '),
      210     2223    1         2 ALIB,
      211     2224    1           3 COUNT UBIN( 9) UNAL INIT(0),
      212     2225    1           3 NAME CHAR(31) UNAL
      213     2226    1             INIT('                               ');
      214     2227        %EJECT;
PL6.E3A0      #001=VY_DATA_D File=VY_DATA_D.:E05TSI                              WED 07/30/97 09:06 Page:73
      215     2228    1   DCL   VY_SC_START$         PTR                 STATIC    SYMDEF    INIT(ADDR(NIL));
      216     2229    1   DCL   VY_SC_ROOT_LBL_COM     UBIN(36)            STATIC    SYMDEF INIT(0);
      217     2230    1   DCL   VY_SC_LBL_COM       UBIN(36)            STATIC    SYMDEF INIT(0);
      218     2231    1   DCL   VY_SC_BLK_COM       UBIN(36)            STATIC    SYMDEF INIT(0);
      219     2232    1   DCL   VY_LAST_SC$         PTR                 STATIC    SYMDEF    INIT(ADDR(NIL));
      220     2233    1   DCL   VY_LAST_SC_BASE     UBIN(36)            STATIC    SYMDEF INIT(0);
      221     2234    1   DCL   VY_CURR_SC_ENTRIES  UBIN(36)            STATIC    SYMDEF INIT(0);
      222     2235        /* ! R !DCL   VY_OD_SEARCH      BIT(1)     SYMREF;
      223     2236        DCL   VY_ON_SEARCH$    PTR     SYMREF;
      224     2237        DCL   VY_SRCH_LST$     PTR     SYMREF;
      225     2238        */
      226     2239        /**/
      227     2240        /**/
      228     2241    1   DCL VY_TREE_ADR UBIN(36) STATIC SYMDEF INIT(0);
              2241            /* DISPLACEMENT INTO ROS FOR START OF TREE TABLE */
      229     2242    1   DCL VY_TREE_NAME_POOL UBIN(36) STATIC SYMDEF INIT(0);
              2242            /* ACCUMULATING SIZE OF NAME POOL FOR TREE TABLE */
      230     2243    1   DCL   VY_TREE_SLIB_NAME   UBIN(36)            STATIC    SYMDEF    INIT(0);
      231     2244                            /* MAX SIZE OF ALL LIBRARY NAMES ENCOUNTERED (TEXTC->WORD)*/
      232     2245    1   DCL   VY_TREE_ESZ         UBIN(36)            STATIC   SYMDEF INIT(5);
      233     2246    1   DCL   VY_TREE_PRE         UBIN(36)            STATIC   SYMDEF INIT(3);
      234     2247    1   DCL   VY_TREE_SIZE        UBIN(36)            STATIC   SYMDEF INIT(0);
      235     2248    1   DCL   VY_TREE_DISP        UBIN(36)            STATIC   SYMDEF INIT(0);
      236     2249    1   DCL   VY_TREE_LIB         UBIN(36)            STATIC   SYMDEF INIT(0);
      237     2250    1   DCL   VY_DCB_USER         UBIN(36)            STATIC   SYMDEF INIT(0);
      238     2251        %EJECT;
PL6.E3A0      #001=VY_DATA_D File=VY_DATA_D.:E05TSI                              WED 07/30/97 09:06 Page:74
      239     2252    1   DCL   VY_DUMMY            UBIN(36)            STATIC   SYMDEF INIT(0);
      240     2253    1   DCL 1 VY_CBUF STATIC SYMDEF,
      241     2254    1         2 CHARS_A(0:132) CHAR( 1) UNAL INIT(' '*0),
      242     2255    1         2 CHARS REDEF CHARS_A CHAR(133) UNAL;
      243     2256        /*
      244     2257              1-LINK    LINK
      245     2258              2-LYNX    LINK
      246     2259              3-LOAD    LINK
      247     2260              4-RUN     LINK, M$LDTR
      248     2261              5-MAP     MAP
      249     2262        */
      250     2263    1   DCL  VY_COMMAND          UBIN(36)            STATIC    SYMDEF    INIT(0);
      251     2264    1   DCL  VY_ON_OVER          UBIN(36)            STATIC    SYMDEF    INIT(0);
      252     2265    1   DCL  VY_FCG_SWITCH       BIT(1)        STATIC    SYMDEF    INIT('0'B);
      253     2266    1   DCL  VY_PASS             UBIN(36)            STATIC    SYMDEF    INIT(0);
      254     2267    1   DCL VY_DO_PASS1 UBIN(36) STATIC SYMDEF INIT(1);
              2267            /* SWITCH TO INDICATE DO PROCESSING FOR PASS1 */
      255     2268    1   DCL VY_DO_PASS2 UBIN(36) STATIC SYMDEF INIT(1);
              2268            /* SWITCH TO INDICATE DO PROCESSING FOR PASS2 */
      256     2269    1   DCL VY_COUNT_FID UBIN(36) STATIC SYMDEF INIT(0);
              2269            /* SWITCH TO INDICATE WHETHER TO COUNT FIDS */
      257     2270    1   DCL VY_FID_COUNT UBIN(36) STATIC SYMDEF INIT(0);
              2270            /* ACCUMULATED FID COUNT IF VY_COUNT_FID~=0 */
      258     2271    1   DCL VY_HAVE_ROOT_LBL_COM       BIT(1)    ALIGNED   STATIC    SYMDEF   INIT(@FALSE_B
              2271            );
      259     2272    1   DCL VY_GOT_ON_OVER UBIN(36) STATIC SYMDEF INIT(0);
              2272            /* SWITCH WHICH INDICATES WHETHER ON OR OVER WAS HIT*/
      260     2273    1   DCL VY_PRIMARY_ENTDEF_GOT BIT(1) STATIC SYMDEF INIT('0'B);
              2273            /* HAVE PRIMARY ENTDEF INDEX OR NOT */
      261     2274    1   DCL VY_LINK_UTS UBIN(36) STATIC SYMDEF INIT(0); /* UTS TO STAMP RUN FILE */
      262     2275    1   DCL VY_NODE_NUMBER SBIN WORD STATIC SYMDEF INIT(-1); /* NODE NUMBERS; >0=>TREE*/
      263     2276    1   DCL VY_ROOT$              PTR                 STATIC    SYMDEF    INIT(ADDR(NIL));
      264     2277    1   DCL VY_RUF$               PTR                 STATIC    SYMDEF    INIT(ADDR(NIL));
      265     2278    1   DCL VY_CURR$              PTR                 STATIC    SYMDEF    INIT(ADDR(NIL));
      266     2279    1   DCL VY_FCURR$             PTR                 STATIC    SYMDEF    INIT(ADDR(NIL));
      267     2280    1   DCL VY_OCURR$             PTR                 STATIC    SYMDEF    INIT(ADDR(NIL));
      268     2281    1   DCL 1 VY_NIL_V DALIGNED STATIC SYMDEF ,
PL6.E3A0      #001=VY_DATA_D File=VY_DATA_D.:E05TSI                              WED 07/30/97 09:06 Page:75
      269     2282    1         2 BOUND UBIN(20) UNAL INIT(SIZEV(NIL)),
      270     2283    1         2 FLAGSV UBIN(11) UNAL INIT(2045),
      271     2284    1         2 * BIT(5),
      272     2285    1         2 VY_NIL_V$ PTR INIT(ADDR(NIL));
      273     2286    1   DCL 1 VY_ERRORS STATIC SYMDEF,
      274     2287    1         2 MULTIPLE UBIN(36) ALIGNED INIT( 0),
      275     2288    1         2 UNSAT_A(0:1) UBIN(36) ALIGNED INIT( 0*0),
      276     2289    1         2 UNSAT REDEF UNSAT_A,
      277     2290    1           3 UNSAT_PRIMARY UBIN(36) ALIGNED,
      278     2291    1           3 UNSAT_SECONDARY UBIN(36) ALIGNED,
      279     2292    1         2 CONFLICT_A(0:2) UBIN(36) ALIGNED INIT( 0*0),
      280     2293    1         2 CONFLICT REDEF CONFLICT_A,
      281     2294    1           3 ALTRIT UBIN(36) ALIGNED,
      282     2295    1           3 PARM UBIN(36) ALIGNED,
      283     2296    1           3 CST UBIN(36) ALIGNED;
      284     2297    1   DCL VY_ERRORS_A(0:5) REDEF     VY_ERRORS  UBIN(36)ALIGNED;
      285     2298        /*    HIGHEST ERROR SEVERITY ENCOUNTERED                          */
      286     2299    1   DCL VY_ERR_SEV            UBIN(36)  ALIGNED STATIC SYMDEF    INIT( 0);
      287     2300        /*    STARTING ADDRESSES FOR EACH SECTION/SEGMENT                 */
      288     2301    1   DCL 1 VY_PROGRAM_BIAS STATIC SYMDEF,
      289     2302    1         2 A(0:2) UBIN(36) ALIGNED INIT( 0*0),
      290     2303    1         2 I REDEF A,
      291     2304    1           3 DATA UBIN(36) ALIGNED,
      292     2305    1           3 RPROC UBIN(36) ALIGNED,
      293     2306    1           3 ROS UBIN(36) ALIGNED;
      294     2307        /*    BIASES FOR EACH SECTION/SEGMENT                             */
      295     2308    1   DCL 1 VY_BIAS STATIC SYMDEF,
      296     2309    1         2 A(0:2) SBIN WORD ALIGNED INIT( 0*0),
      297     2310    1         2 I REDEF A,
      298     2311    1           3 DATA SBIN WORD ALIGNED,
      299     2312    1           3 RPROC SBIN WORD ALIGNED,
      300     2313    1           3 ROS SBIN WORD ALIGNED;
      301     2314        %EJECT;
PL6.E3A0      #001=VY_DATA_D File=VY_DATA_D.:E05TSI                              WED 07/30/97 09:06 Page:76
      302     2315        /*
      303     2316                        MEMORY VARIABLES FOR DYNAMIC SEGMENTS
      304     2317        */
      305     2318        /*    FIRST FREE WORD(RELATIVE) IN DATA SEGMENT(INDEX)       */
      306     2319    1   DCL VY_M_FREE(0:8)                  SBIN WORD STATIC    SYMDEF    INIT(0*0);
      307     2320        /*    LAST ALLOCATED(POSSIBLY UNUSED) WORD IN DATA SEGMENT(INDEXED) */
      308     2321    1   DCL VY_M_ALL(0:8)                   SBIN WORD STATIC    SYMDEF    INIT(0*0);
      309     2322        /*    BASE POINTER FOR SEGMENT                               */
      310     2323    1   DCL VY_M_BASE_PTR(0:8)              PTR       STATIC    SYMDEF   INIT(ADDR(NIL)*0);
      311     2324        /* TYPE -> SEGIDS */
      312     2325    1   DCL VY_M_SEGID(0:8)                   UBIN(36)  ALIGNED   STATIC   SYMDEF INIT(0*0)
              2325            ;
      313     2326        /*
      314     2327                        MEMORY VARIABLES FOR DYNAMIC PAGES
      315     2328        */
      316     2329        /*    FIRST FREE WORD(RELATIVE) IN DYNAMIC DATA PAGES     */
      317     2330    1   DCL VY_ONLINE UBIN(36) ALIGNED STATIC SYMDEF INIT(0);/*<>0 => ONLINE
      318     2331                                                =0 => NOT ONLINE */
      319     2332        %EJECT;
PL6.E3A0      #001=VY_DATA_D File=VY_DATA_D.:E05TSI                              WED 07/30/97 09:06 Page:77
      320     2333              %OPTIONS(NAME=VY_O,STCLASS="STATIC SYMDEF");
              2334        %LSET LISTEXP='1'B;
              2335        %LSET LISTSUB='1'B;
              2336        %LSET STR='STATIC SYMDEF         ';
              2337        %LSET STR1='UBIN(36)     ';
              2338        %IF '0'B;
              2344        %ELSE;
              2345        %LSET ATYPE=ALIGNED;
              2346        %LSET MAP_HB=9;
              2347        %LSET DUPL_HB=2;
              2348        %LSET SEV_HB=0;
              2349        %LSET PRI_HB=3;
              2350        %ENDIF;
              2351        %IF
              2353              '1'B;
              2354              %LSET INIT=INIT;
              2355              %IF '0'B;
              2388                   %ELSE;
              2389                        %IF '1'B;
              2390                    %LSET I_MAP    = 0;
              2391                    %LSET I_DUPLICATE  = 0;
              2392                    %LSET I_SEVERITY  = 4;
              2393                    %LSET I_NODEBUG  = 0;
              2394                    %LSET I_VALUE  = 0;
              2395                    %LSET I_DEF    = 0;
              2396                    %LSET I_REF    = 0;
              2397                    %LSET I_EDEF   = 0;
              2398                    %LSET I_EREF   = 0;
              2399                    %LSET I_DDEF   = 0;
              2400                    %LSET I_DREF   = 0;
              2401                    %LSET I_SDEF   = 0;
              2402                    %LSET I_SREF   = 0;
              2403                    %LSET I_INQUIRE  = 0;
              2404                    %LSET I_OVERWRITE  = 0;
              2405                    %LSET I_ERR    = 0;
              2406                    %LSET I_VAL    = 0;
              2407                   %ELSE;
PL6.E3A0      #001=VY_DATA_D File=VY_DATA_D.:E05TSI                              WED 07/30/97 09:06 Page:78
              2427              %ENDIF;
              2428        %ENDIF;
              2429           %ELSE;
              2448        %ENDIF;
              2449    1         DCL 1 VY_O          STATIC SYMDEF   ALIGNED,
              2450    1              2 PRIMARY_OPTION    ALIGNED,
              2451    1               3 MAP         UBIN(36)  ALIGNED   INIT(0)/**/,
              2452    1               3 DUPLICATE   UBIN(36)  ALIGNED   INIT(0)/**/,
              2453    1               3 SEVERITY    UBIN(36)  ALIGNED   INIT(4)/**/,
              2454    1               3 NODEBUG     UBIN(36)  ALIGNED   INIT(0)/**/,
              2455    1              2 PRIMARY_OPTION_A(0:3) REDEF     PRIMARY_OPTION UBIN(36),
              2456    1              2 MAP_ATTCH           ALIGNED,
              2457    1               3 *           UBIN(36)  ALIGNED   INIT(0)/**/,
              2458    1               3 DEF         UBIN(36)  ALIGNED   INIT(0)/**/,
              2459    1               3 REF         UBIN(36)  ALIGNED   INIT(0)/**/,
              2460    1               3 *           UBIN(36)  ALIGNED   INIT(0)/**/,
              2461    1               3 EDEF        UBIN(36)  ALIGNED   INIT(0)/**/,
              2462    1               3 EREF        UBIN(36)  ALIGNED   INIT(0)/**/,
              2463    1               3 DDEF        UBIN(36)  ALIGNED   INIT(0)/**/,
              2464    1               3 DREF        UBIN(36)  ALIGNED   INIT(0)/**/,
              2465    1               3 SDEF        UBIN(36)  ALIGNED   INIT(0)/**/,
              2466    1               3 SREF        UBIN(36)  ALIGNED   INIT(0)/**/,
              2467    1              2 MAP_A(0:9)          REDEF MAP_ATTCH   UBIN(36),
              2468    1              2 DUPL_ATTCH   ALIGNED,
              2469    1               3 INQUIRE     UBIN(36)  ALIGNED   INIT(0)/**/,
              2470    1               3 OVERWRITE   UBIN(36)  ALIGNED   INIT(0)/**/,
              2471    1               3 ERR         UBIN(36)  ALIGNED   INIT(0)/**/,
              2472    1              2 DUPL_A(0:2)         REDEF DUPL_ATTCH  UBIN(36),
              2473    1              2 SEV_ATTCH    ALIGNED,
              2474    1               3 VAL         UBIN(36)  ALIGNED   INIT(0)/**/,
              2475    1              2 SEV_A(0:0)          REDEF SEV_ATTCH   UBIN(36);
      321     2477        %EJECT;
PL6.E3A0      #001=VY_DATA_D File=VY_DATA_D.:E05TSI                              WED 07/30/97 09:06 Page:79
      322     2478        /* ! ! */
      323     2479              %OPTIONS(NAME=VY_O_CONSTANT,STCLASS="CONSTANT SYMDEF");
              2480        %LSET LISTEXP='1'B;
              2481        %LSET LISTSUB='1'B;
              2482        %LSET STR='CONSTANT SYMDEF         ';
              2483        %LSET STR1='UBIN(36)     ';
              2484        %IF '0'B;
              2490        %ELSE;
              2491        %LSET ATYPE=ALIGNED;
              2492        %LSET MAP_HB=9;
              2493        %LSET DUPL_HB=2;
              2494        %LSET SEV_HB=0;
              2495        %LSET PRI_HB=3;
              2496        %ENDIF;
              2497        %IF
              2499              '1'B;
              2500              %LSET INIT=INIT;
              2501              %IF '0'B;
              2534                   %ELSE;
              2535                        %IF '1'B;
              2536                    %LSET I_MAP    = 0;
              2537                    %LSET I_DUPLICATE  = 0;
              2538                    %LSET I_SEVERITY  = 4;
              2539                    %LSET I_NODEBUG  = 0;
              2540                    %LSET I_VALUE  = 0;
              2541                    %LSET I_DEF    = 0;
              2542                    %LSET I_REF    = 0;
              2543                    %LSET I_EDEF   = 0;
              2544                    %LSET I_EREF   = 0;
              2545                    %LSET I_DDEF   = 0;
              2546                    %LSET I_DREF   = 0;
              2547                    %LSET I_SDEF   = 0;
              2548                    %LSET I_SREF   = 0;
              2549                    %LSET I_INQUIRE  = 0;
              2550                    %LSET I_OVERWRITE  = 0;
              2551                    %LSET I_ERR    = 0;
              2552                    %LSET I_VAL    = 0;
PL6.E3A0      #001=VY_DATA_D File=VY_DATA_D.:E05TSI                              WED 07/30/97 09:06 Page:80
              2553                   %ELSE;
              2573              %ENDIF;
              2574        %ENDIF;
              2575           %ELSE;
              2594        %ENDIF;
              2595    1         DCL 1 VY_O_CONSTANT          CONSTANT SYMDEF   ALIGNED,
              2596    1              2 PRIMARY_OPTION    ALIGNED,
              2597    1               3 MAP         UBIN(36)  ALIGNED   INIT(0)/**/,
              2598    1               3 DUPLICATE   UBIN(36)  ALIGNED   INIT(0)/**/,
              2599    1               3 SEVERITY    UBIN(36)  ALIGNED   INIT(4)/**/,
              2600    1               3 NODEBUG     UBIN(36)  ALIGNED   INIT(0)/**/,
              2601    1              2 PRIMARY_OPTION_A(0:3) REDEF     PRIMARY_OPTION UBIN(36),
              2602    1              2 MAP_ATTCH           ALIGNED,
              2603    1               3 *           UBIN(36)  ALIGNED   INIT(0)/**/,
              2604    1               3 DEF         UBIN(36)  ALIGNED   INIT(0)/**/,
              2605    1               3 REF         UBIN(36)  ALIGNED   INIT(0)/**/,
              2606    1               3 *           UBIN(36)  ALIGNED   INIT(0)/**/,
              2607    1               3 EDEF        UBIN(36)  ALIGNED   INIT(0)/**/,
              2608    1               3 EREF        UBIN(36)  ALIGNED   INIT(0)/**/,
              2609    1               3 DDEF        UBIN(36)  ALIGNED   INIT(0)/**/,
              2610    1               3 DREF        UBIN(36)  ALIGNED   INIT(0)/**/,
              2611    1               3 SDEF        UBIN(36)  ALIGNED   INIT(0)/**/,
              2612    1               3 SREF        UBIN(36)  ALIGNED   INIT(0)/**/,
              2613    1              2 MAP_A(0:9)          REDEF MAP_ATTCH   UBIN(36),
              2614    1              2 DUPL_ATTCH   ALIGNED,
              2615    1               3 INQUIRE     UBIN(36)  ALIGNED   INIT(0)/**/,
              2616    1               3 OVERWRITE   UBIN(36)  ALIGNED   INIT(0)/**/,
              2617    1               3 ERR         UBIN(36)  ALIGNED   INIT(0)/**/,
              2618    1              2 DUPL_A(0:2)         REDEF DUPL_ATTCH  UBIN(36),
              2619    1              2 SEV_ATTCH    ALIGNED,
              2620    1               3 VAL         UBIN(36)  ALIGNED   INIT(0)/**/,
              2621    1              2 SEV_A(0:0)          REDEF SEV_ATTCH   UBIN(36);
      324     2623        /* ! R ! */
      325     2624        %EJECT;
PL6.E3A0      #001=VY_DATA_D File=VY_DATA_D.:E05TSI                              WED 07/30/97 09:06 Page:81
      326     2625              %OPTIONS(NAME=VY_OD,STCLASS="STATIC SYMDEF",DTYPE="BIT(1)");
              2626        %LSET LISTEXP='1'B;
              2627        %LSET LISTSUB='1'B;
              2628        %LSET STR='STATIC SYMDEF         ';
              2629        %LSET STR1='BIT(1)     ';
              2630        %IF '1'B;
              2631                   %LSET ATYPE=UNAL;
              2632                   %LSET MAP_HB=35;
              2633                   %LSET DUPL_HB=35;
              2634                   %LSET SEV_HB=35;
              2635                   %LSET PRI_HB=35;
              2636        %ELSE;
              2642        %ENDIF;
              2643        %IF
              2645              '1'B;
              2646              %LSET INIT=INIT;
              2647              %IF '0'B;
              2680                   %ELSE;
              2681                        %IF '0'B;
              2699                   %ELSE;
              2700                        %IF '1'B;
              2701                    %LSET I_MAP    = '0'B;
              2702                    %LSET I_DUPLICATE  = '0'B;
              2703                    %LSET I_SEVERITY  = '0'B;
              2704                    %LSET I_NODEBUG  = '0'B;
              2705                    %LSET I_VALUE  = '0'B;
              2706                    %LSET I_DEF    = '0'B;
              2707                    %LSET I_REF    = '0'B;
              2708                    %LSET I_EDEF   = '0'B;
              2709                    %LSET I_EREF   = '0'B;
              2710                    %LSET I_DDEF   = '0'B;
              2711                    %LSET I_DREF   = '0'B;
              2712                    %LSET I_SDEF   = '0'B;
              2713                    %LSET I_SREF   = '0'B;
              2714                    %LSET I_INQUIRE  = '0'B;
              2715                    %LSET I_OVERWRITE  = '0'B;
              2716                    %LSET I_ERR    = '0'B;
PL6.E3A0      #001=VY_DATA_D File=VY_DATA_D.:E05TSI                              WED 07/30/97 09:06 Page:82
              2717                    %LSET I_VAL    = '0'B;
              2718              %ENDIF;
              2719              %ENDIF;
              2720        %ENDIF;
              2721           %ELSE;
              2740        %ENDIF;
              2741    1         DCL 1 VY_OD          STATIC SYMDEF   ALIGNED,
              2742    1              2 PRIMARY_OPTION    ALIGNED,
              2743    1               3 MAP         BIT(1)  UNAL   INIT('0'B)/**/,
              2744    1               3 DUPLICATE   BIT(1)  UNAL   INIT('0'B)/**/,
              2745    1               3 SEVERITY    BIT(1)  UNAL   INIT('0'B)/**/,
              2746    1               3 NODEBUG     BIT(1)  UNAL   INIT('0'B)/**/,
              2747    1              2 PRIMARY_OPTION_A(0:35) REDEF     PRIMARY_OPTION BIT(1),
              2748    1              2 MAP_ATTCH           ALIGNED,
              2749    1               3 *           BIT(1)  UNAL   INIT('0'B)/**/,
              2750    1               3 DEF         BIT(1)  UNAL   INIT('0'B)/**/,
              2751    1               3 REF         BIT(1)  UNAL   INIT('0'B)/**/,
              2752    1               3 *           BIT(1)  UNAL   INIT('0'B)/**/,
              2753    1               3 EDEF        BIT(1)  UNAL   INIT('0'B)/**/,
              2754    1               3 EREF        BIT(1)  UNAL   INIT('0'B)/**/,
              2755    1               3 DDEF        BIT(1)  UNAL   INIT('0'B)/**/,
              2756    1               3 DREF        BIT(1)  UNAL   INIT('0'B)/**/,
              2757    1               3 SDEF        BIT(1)  UNAL   INIT('0'B)/**/,
              2758    1               3 SREF        BIT(1)  UNAL   INIT('0'B)/**/,
              2759    1              2 MAP_A(0:35)          REDEF MAP_ATTCH   BIT(1),
              2760    1              2 DUPL_ATTCH   ALIGNED,
              2761    1               3 INQUIRE     BIT(1)  UNAL   INIT('0'B)/**/,
              2762    1               3 OVERWRITE   BIT(1)  UNAL   INIT('0'B)/**/,
              2763    1               3 ERR         BIT(1)  UNAL   INIT('0'B)/**/,
              2764    1              2 DUPL_A(0:35)         REDEF DUPL_ATTCH  BIT(1),
              2765    1              2 SEV_ATTCH    ALIGNED,
              2766    1               3 VAL         BIT(1)  UNAL   INIT('0'B)/**/,
              2767    1              2 SEV_A(0:35)          REDEF SEV_ATTCH   BIT(1);
      327     2769        %EJECT;
PL6.E3A0      #001=VY_DATA_D File=VY_DATA_D.:E05TSI                              WED 07/30/97 09:06 Page:83
      328     2770        /* ! ! */
      329     2771              %OPTIONS(NAME=VY_ON,STCLASS="CONSTANT SYMDEF",DTYPE="PTR");
              2772        %LSET LISTEXP='1'B;
              2773        %LSET LISTSUB='1'B;
              2774        %LSET STR='CONSTANT SYMDEF         ';
              2775        %LSET STR1='PTR     ';
              2776        %IF '0'B;
              2782        %ELSE;
              2783        %LSET ATYPE=ALIGNED;
              2784        %LSET MAP_HB=9;
              2785        %LSET DUPL_HB=2;
              2786        %LSET SEV_HB=0;
              2787        %LSET PRI_HB=3;
              2788        %ENDIF;
              2789        %IF
              2791              '1'B;
              2792              %LSET INIT=INIT;
              2793              %IF '1'B;
              2794                    %LSET I_MAP    = ADDR(N_MAP_KEY_WORD);
              2795                    %LSET I_DUPLICATE  = ADDR(N_DUPLICATE_KEY_WORD);
              2796                    %LSET I_SEVERITY  = ADDR(N_SEVERITY_KEY_WORD);
              2797                    %LSET I_NODEBUG  = ADDR(N_NODEBUG_KEY_WORD);
              2798                    %LSET I_VALUE  = ADDR(NIL);
              2799                    %LSET I_DEF    = ADDR(N_DEF_KEY_WORD);
              2800                    %LSET I_REF    = ADDR(N_REF_KEY_WORD);
              2801                    %LSET I_EDEF   = ADDR(N_EDEF_KEY_WORD);
              2802                    %LSET I_EREF   = ADDR(N_EREF_KEY_WORD);
              2803                    %LSET I_DDEF   = ADDR(N_DDEF_KEY_WORD);
              2804                    %LSET I_DREF   = ADDR(N_DREF_KEY_WORD);
              2805                    %LSET I_SDEF   = ADDR(N_SDEF_KEY_WORD);
              2806                    %LSET I_SREF   = ADDR(N_SREF_KEY_WORD);
              2807                    %LSET I_INQUIRE  = ADDR(N_INQUIRE_KEY_WORD);
              2808                    %LSET I_OVERWRITE  = ADDR(N_OVERWRITE_KEY_WORD);
              2809                    %LSET I_ERR    = ADDR(N_ERROR_KEY_WORD);
              2810                    %LSET I_VAL    = ADDR(NIL);
              2811    1   DCL N_MAP_KEY_WORD UBIN(36) ALIGNED SYMREF;
              2812    1   DCL N_DUPLICATE_KEY_WORD UBIN(36) ALIGNED SYMREF;
PL6.E3A0      #001=VY_DATA_D File=VY_DATA_D.:E05TSI                              WED 07/30/97 09:06 Page:84
              2813    1   DCL N_SEVERITY_KEY_WORD UBIN(36) ALIGNED SYMREF;
              2814    1   DCL N_NODEBUG_KEY_WORD UBIN(36) ALIGNED SYMREF;
              2815    1   DCL N_DEF_KEY_WORD UBIN(36) ALIGNED SYMREF;
              2816    1   DCL N_REF_KEY_WORD UBIN(36) ALIGNED SYMREF;
              2817    1   DCL N_EDEF_KEY_WORD UBIN(36) ALIGNED SYMREF;
              2818    1   DCL N_EREF_KEY_WORD UBIN(36) ALIGNED SYMREF;
              2819    1   DCL N_DDEF_KEY_WORD UBIN(36) ALIGNED SYMREF;
              2820    1   DCL N_DREF_KEY_WORD UBIN(36) ALIGNED SYMREF;
              2821    1   DCL N_SDEF_KEY_WORD UBIN(36) ALIGNED SYMREF;
              2822    1   DCL N_SREF_KEY_WORD UBIN(36) ALIGNED SYMREF;
              2823    1   DCL N_INQUIRE_KEY_WORD UBIN(36) ALIGNED SYMREF;
              2824    1   DCL N_OVERWRITE_KEY_WORD UBIN(36) ALIGNED SYMREF;
              2825    1   DCL N_ERROR_KEY_WORD UBIN(36) ALIGNED SYMREF;
              2826                   %ELSE;
              2866        %ENDIF;
              2867           %ELSE;
              2886        %ENDIF;
              2887    1         DCL 1 VY_ON          CONSTANT SYMDEF   ALIGNED,
              2888    1              2 PRIMARY_OPTION    ALIGNED,
              2889    1               3 MAP         PTR  ALIGNED   INIT(ADDR(N_MAP_KEY_WORD))/**/,
              2890    1               3 DUPLICATE   PTR  ALIGNED   INIT(ADDR(N_DUPLICATE_KEY_WORD))/**/,
              2891    1               3 SEVERITY    PTR  ALIGNED   INIT(ADDR(N_SEVERITY_KEY_WORD))/**/,
              2892    1               3 NODEBUG     PTR  ALIGNED   INIT(ADDR(N_NODEBUG_KEY_WORD))/**/,
              2893    1              2 PRIMARY_OPTION_A(0:3) REDEF     PRIMARY_OPTION PTR,
              2894    1              2 MAP_ATTCH           ALIGNED,
              2895    1               3 *           PTR  ALIGNED   INIT(ADDR(NIL))/**/,
              2896    1               3 DEF         PTR  ALIGNED   INIT(ADDR(N_DEF_KEY_WORD))/**/,
              2897    1               3 REF         PTR  ALIGNED   INIT(ADDR(N_REF_KEY_WORD))/**/,
              2898    1               3 *           PTR  ALIGNED   INIT(ADDR(NIL))/**/,
              2899    1               3 EDEF        PTR  ALIGNED   INIT(ADDR(N_EDEF_KEY_WORD))/**/,
              2900    1               3 EREF        PTR  ALIGNED   INIT(ADDR(N_EREF_KEY_WORD))/**/,
              2901    1               3 DDEF        PTR  ALIGNED   INIT(ADDR(N_DDEF_KEY_WORD))/**/,
              2902    1               3 DREF        PTR  ALIGNED   INIT(ADDR(N_DREF_KEY_WORD))/**/,
              2903    1               3 SDEF        PTR  ALIGNED   INIT(ADDR(N_SDEF_KEY_WORD))/**/,
              2904    1               3 SREF        PTR  ALIGNED   INIT(ADDR(N_SREF_KEY_WORD))/**/,
              2905    1              2 MAP_A(0:9)          REDEF MAP_ATTCH   PTR,
              2906    1              2 DUPL_ATTCH   ALIGNED,
PL6.E3A0      #001=VY_DATA_D File=VY_DATA_D.:E05TSI                              WED 07/30/97 09:06 Page:85
              2907    1               3 INQUIRE     PTR  ALIGNED   INIT(ADDR(N_INQUIRE_KEY_WORD))/**/,
              2908    1               3 OVERWRITE   PTR  ALIGNED   INIT(ADDR(N_OVERWRITE_KEY_WORD))/**/,
              2909    1               3 ERR         PTR  ALIGNED   INIT(ADDR(N_ERROR_KEY_WORD))/**/,
              2910    1              2 DUPL_A(0:2)         REDEF DUPL_ATTCH  PTR,
              2911    1              2 SEV_ATTCH    ALIGNED,
              2912    1               3 VAL         PTR  ALIGNED   INIT(ADDR(NIL))/**/,
              2913    1              2 SEV_A(0:0)          REDEF SEV_ATTCH   PTR;
      330     2915        %EJECT;
PL6.E3A0      #001=VY_DATA_D File=VY_DATA_D.:E05TSI                              WED 07/30/97 09:06 Page:86
      331     2916    1   DCL 1 SIDCB_NAME          ALIGNED   CONSTANT,
      332     2917    1         2 COUNT        UBIN(18)  UNAL      INIT(4),
      333     2918    1         2 TEXT         CHAR(4)   UNAL      INIT('M$SI');
      334     2919    1   DCL 1 UIDCB_NAME          ALIGNED   CONSTANT,
      335     2920    1         2 COUNT        UBIN(18)  UNAL      INIT(4),
      336     2921    1         2 TEXT         CHAR(4)   UNAL      INIT('M$UI');
      337     2922    1   DCL 1 OUDCB_NAME          ALIGNED   CONSTANT,
      338     2923    1         2 COUNT        UBIN(18)  UNAL      INIT(4),
      339     2924    1         2 TEXT         CHAR(4)   UNAL      INIT('M$OU');
      340     2925    1   DCL 1 LODCB_NAME          ALIGNED   CONSTANT,
      341     2926    1         2 COUNT        UBIN(18)  UNAL      INIT(4),
      342     2927    1         2 TEXT         CHAR(4)   UNAL      INIT('M$LO');
      343     2928        /**/
      344     2929        /**/
      345     2930        /*
      346     2931              THIS STRUCTURE MUST PARALLEL THE OPTIONS STRUCTURE FOR NUMERIC ARGUMENTS
      347     2932        */
      348     2933    1   DCL 1 VY_OL ALIGNED CONSTANT SYMDEF,
      349     2934    1         2 MIN_A(0:12) SBIN WORD ALIGNED INIT(0*0),
      350     2935    1         2 MIN REDEF MIN_A,
      351     2936    1           3 BREF SBIN WORD ALIGNED,
      352     2937    1           3 DCBSLOTS SBIN WORD ALIGNED,
      353     2938    1           3 DBIAS SBIN WORD ALIGNED,
      354     2939    1           3 PBIAS SBIN WORD ALIGNED,
      355     2940    1           3 SEVERITY SBIN WORD ALIGNED,
      356     2941    1           3 START SBIN WORD ALIGNED,
      357     2942    1           3 TCB SBIN WORD ALIGNED,
      358     2943    1           3 REPORT SBIN WORD ALIGNED,
      359     2944    1           3 * SBIN WORD ALIGNED,
      360     2945    1           3 * SBIN WORD ALIGNED,
      361     2946    1           3 * SBIN WORD ALIGNED,
      362     2947    1           3 * SBIN WORD ALIGNED,
      363     2948    1           3 * SBIN WORD ALIGNED,
      364     2949    1         2 MAX_A(0:12) SBIN WORD ALIGNED INIT(
      365     2950    1           1024,
      366     2951    1           1024,
      367     2952    1           262143,
PL6.E3A0      #001=VY_DATA_D File=VY_DATA_D.:E05TSI                              WED 07/30/97 09:06 Page:87
      368     2953    1           262143,
      369     2954    1           11,
      370     2955    1           262143,
      371     2956    1           217,
      372     2957    1           11,
      373     2958    1           0*5),
      374     2959    1         2 MAX REDEF MAX_A,
      375     2960    1           3 BREF SBIN WORD ALIGNED,
      376     2961    1           3 DCBSLOTS SBIN WORD ALIGNED,
      377     2962    1           3 DBIAS SBIN WORD ALIGNED,
      378     2963    1           3 PBIAS SBIN WORD ALIGNED,
      379     2964    1           3 SEVERITY SBIN WORD ALIGNED,
      380     2965    1           3 START SBIN WORD ALIGNED,
      381     2966    1           3 TCB SBIN WORD ALIGNED,
      382     2967    1           3 REPORT SBIN WORD ALIGNED,
      383     2968    1           3 * SBIN WORD ALIGNED,
      384     2969    1           3 * SBIN WORD ALIGNED,
      385     2970    1           3 * SBIN WORD ALIGNED,
      386     2971    1           3 * SBIN WORD ALIGNED,
      387     2972    1           3 * SBIN WORD ALIGNED;
      388     2973    1   DCL 1 VY_PHRASE STATIC SYMDEF,
      389     2974    1         2 PHRASE CHAR(24) UNAL
      390     2975    1           INIT('DURING PASS * IN PHASE *'),
      391     2976    1         2 I REDEF PHRASE,
      392     2977    1           3 * CHAR(12) UNAL,
      393     2978    1           3 PASS CHAR( 1) UNAL,
      394     2979    1           3 * CHAR(10) UNAL,
      395     2980    1           3 PHASE CHAR( 1) UNAL;
      396     2981        %EJECT;
PL6.E3A0      #001=VY_DATA_D File=VY_DATA_D.:E05TSI                              WED 07/30/97 09:06 Page:88
      397     2982    1   DCL N_SEARCH_KEY_WORD     UBIN(36) ALIGNED SYMREF;
      398     2983    1   DCL VY_OD_SEARCH          BIT(1) STATIC SYMDEF INIT ('0'B);
      399     2984    1   DCL VY_ON_SEARCH$         PTR    STATIC SYMDEF INIT (ADDR(N_SEARCH_KEY_WORD));
      400     2985    1   DCL VY_SRCH_LST$          PTR    STATIC SYMDEF INIT (ADDR(NIL));
      401     2986    1   DCL B$JIT$      PTR       ALIGNED   SYMREF;
      402     2987        %EJECT;
PL6.E3A0      #001=VY_DATA_D File=VY_DATA_D.:E05TSI                              WED 07/30/97 09:06 Page:89
      403     2988        /* ! R ! */
      404     2989        /*
      405     2990              VARIABLES FOR ERRMSG
      406     2991        */
      407     2992    1   DCL 1 VY_ERR_CODE ALIGNED STATIC SYMDEF,
      408     2993    1         2 FCG UBIN(12) UNAL INIT( %@E$FCG_VY ),
      409     2994    1         2 MID UBIN(6) UNAL INIT(BITBIN('05'O)),
      410     2995    1         2 ERR# UBIN(15) UNAL INIT(0),
      411     2996    1         2 SEV UBIN(3) UNAL INIT(0);
      412     2997    1   DCL 1 VY_ERR_CODE_AUX ALIGNED STATIC SYMDEF,
      413     2998    1         2 FCG UBIN(12) UNAL INIT( %@E$FCG_VY ),
      414     2999    1         2 MID UBIN(6) UNAL INIT(BITBIN('05'O)),
      415     3000    1         2 ERR# UBIN(15) UNAL INIT(0),
      416     3001    1         2 SEV UBIN(3) UNAL INIT(0);
      417     3002    1   DCL 1 VY_EBUF ALIGNED STATIC SYMDEF,
      418     3003    1         2 CHARS_A(0:132) CHAR(1) UNAL INIT(' '*0),
      419     3004    1         2 CHARS REDEF CHARS_A CHAR(133) UNAL;
      420     3005    1   DCL 1 VY_EFIELD1 ALIGNED STATIC SYMDEF,
      421     3006    1         2 COUNT UBIN(9) UNAL INIT(0),
      422     3007    1         2 CHARS CHAR(79) UNAL INIT(' '),
      423     3008    1         2 CHARS_A(0:78) REDEF CHARS CHAR(1) UNAL;
      424     3009    1   DCL 1 VY_EFIELD2 ALIGNED STATIC SYMDEF,
      425     3010    1         2 COUNT UBIN(9) UNAL INIT(0),
      426     3011    1         2 CHARS CHAR(79) UNAL INIT(' '),
      427     3012    1         2 CHARS_A(0:78) REDEF CHARS CHAR(1) UNAL;
      428     3013    1   DCL 1 VY_EFIELD3 ALIGNED STATIC SYMDEF,
      429     3014    1         2 COUNT UBIN(9) UNAL INIT(0),
      430     3015    1         2 CHARS CHAR(79) UNAL INIT(' '),
      431     3016    1         2 CHARS_A(0:78) REDEF CHARS CHAR(1) UNAL;
      432     3017    1   DCL BREAK_FN CHAR(31) STATIC SYMDEF INIT (' ');
      433     3018    1   DCL BREAK_OU CHAR(511) STATIC SYMDEF INIT (' ');
      434     3019    1   DCL BREAK_FLAG BIT (1) STATIC SYMDEF INIT ('0'B);
      435     3020        /*
      436     3021              IMAGE FORMATION VARIABLES
      437     3022        */
      438     3023    1   DCL VY_IMAGE$ PTR ALIGNED STATIC SYMDEF INIT(ADDR(NIL));
              3023            /* PTR TO BUFFER VARIABLES */
PL6.E3A0      #001=VY_DATA_D File=VY_DATA_D.:E05TSI                              WED 07/30/97 09:06 Page:90
      439     3024    1   DCL VY_BADR(0:@ROS) SBIN WORD ALIGNED STATIC SYMDEF INIT(0*0);
              3024            /* STARTING ADDRESSES FOR PROC, DATA, ROS */
      440     3025    1   DCL VY_EADR(0:@ROS) SBIN WORD ALIGNED STATIC SYMDEF INIT(0*0);
              3025            /* ENDING ADDRESSES FOR PROC, DATA, ROS */
      441     3026    1   DCL VY_TARGET_COUNT  UBIN(36) ALIGNED    STATIC    SYMDEF    INIT(0);
      442     3027    1   DCL VY_SOURCE_COUNT  UBIN(36) ALIGNED    STATIC    SYMDEF    INIT(0);
      443     3028        /*
      444     3029              IO VARIABLES/GLOBAL
      445     3030        */
      446     3031    1   DCL VY_IO_STATUS          SBIN WORD ALIGNED   STATIC    SYMDEF INIT(-1);
      447     3032    1   DCL VY_IO_SIZEW           SBIN WORD ALIGNED   STATIC    SYMDEF INIT(0);
      448     3033    1   DCL VY_IO_SIZEC           SBIN WORD ALIGNED   STATIC    SYMDEF INIT(0);
      449     3034    1   DCL VY_IO_USEPREV         SBIN WORD ALIGNED   STATIC    SYMDEF INIT(0);
      450     3035    1   DCL VY_IO_SAVEPREV        SBIN WORD ALIGNED   STATIC    SYMDEF INIT(0);
      451     3036        %EJECT;
PL6.E3A0      #001=VY_DATA_D File=VY_DATA_D.:E05TSI                              WED 07/30/97 09:06 Page:91
      452     3037        /*
      453     3038              HEADER DEFINITION
      454     3039        */
      455     3040    1   DCL 1 VY_HEADER STATIC SYMDEF,
      456     3041    1         2 * CHAR(20) UNAL INIT('                    '),
      457     3042    1         2 DAY_C CHAR( 5) UNAL INIT('     '),
      458     3043    1         2 * CHAR( 2) UNAL INIT('  '),
      459     3044    1         2 DATE_C CHAR(10) UNAL INIT('          '),
      460     3045    1         2 * CHAR( 2) UNAL INIT('  '),
      461     3046    1         2 TIME_C CHAR(11) UNAL INIT('           ');
      462     3047        %EJECT;
PL6.E3A0      #001=VY_DATA_D File=VY_DATA_D.:E05TSI                              WED 07/30/97 09:06 Page:92
      463     3048        /*
      464     3049              CONSTANTS/VARIABLES FOR KEYS
      465     3050        */
      466     3051    1   DCL VY_O_KEY_HEAD         CHAR(1)   UNAL CONSTANT SYMDEF
      467     3052    1                   INIT( BITASC( '042'O ) );
      468     3053    1   DCL VY_O_KEY_TREE         CHAR(5)   UNAL CONSTANT SYMDEF INIT('"TREE');
      469     3054    1   DCL VY_R_KEY_HEAD         CHAR(4)   UNAL CONSTANT SYMDEF INIT('HEAD');
      470     3055    1   DCL VY_P_ENTDEF UBIN(36) STATIC SYMDEF INIT(0);
              3055            /* PRIMARY ENTDEF FOR DEBUG RECORDS */
      471     3056        /**/
      472     3057        /**/
      473     3058        /**/
      474     3059    1   DCL VY_KEY_USEPREV UBIN(36) STATIC SYMDEF INIT(0);
              3059            /* SWITCH TO INDICATE WHETHER TO USE PREVIOUS KEY OR NOT */
      475     3060    1   DCL VY_KEY_NAME$          PTR            STATIC    SYMDEF    INIT(ADDR(NIL));
      476     3061                                                /* PTR TO TEXTC NAME FOR LIB. EARCHES */
      477     3062        %EJECT;
PL6.E3A0      #001=VY_DATA_D File=VY_DATA_D.:E05TSI                              WED 07/30/97 09:06 Page:93
      478     3063        /*
      479     3064              LIBRARY VARIABLES
      480     3065        */
      481     3066    1   DCL VY_SLIB_HEAD$         PTR       ALIGNED   STATIC    SYMDEF    INIT(ADDR(NIL));
      482     3067                                                /* HEAD POINTER FOR SHARED LIBRARIES */
      483     3068    1   DCL VY_SLIB_INIT$         PTR       ALIGNED   STATIC    SYMDEF    INIT(ADDR(NIL));
      484     3069                       /* POINTER TO SHARED LIBRARY FILE WHICH WILL INITIALIZE DATA */
      485     3070    1   DCL VY_SLIB_MAX_DATA UBIN(36) ALIGNED STATIC SYMDEF INIT(0);
              3070            /* MAXIMUM DATA AREA ENCOUNTERED FOR SHARED LIBRARIES */
      486     3071        %EJECT;
PL6.E3A0      #001=VY_DATA_D File=VY_DATA_D.:E05TSI                              WED 07/30/97 09:06 Page:94
      487     3072        /*
      488     3073              SIZES
      489     3074        */
      490     3075    1   DCL VY_REC_BUF_START$     PTR       ALIGNED   STATIC    SYMDEF    INIT(ADDR(NIL));
      491     3076    1   DCL VY_REC_BUF_SIZE UBIN(36) ALIGNED STATIC SYMDEF INIT(0);
              3076            /* MAX SIZE FOR RECEIVING BUFFER */
      492     3077    1   DCL VY_BREF_START$        PTR       ALIGNED   STATIC    SYMDEF    INIT(ADDR(NIL));
      493     3078    1   DCL VY_NEXT_BREF$         PTR       ALIGNED   STATIC    SYMDEF    INIT(ADDR(NIL));
      494     3079    1   DCL VY_BREF_SIZE          UBIN(36)  ALIGNED   STATIC    SYMDEF    INIT(0);
      495     3080    1   DCL VY_BREF_ADR           UBIN(36)  ALIGNED   STATIC    SYMDEF    INIT(0);
      496     3081    1   DCL VY_BREF_INSTANCE      UBIN(36)  ALIGNED   STATIC    SYMDEF    INIT(0);
      497     3082    1   DCL VY_BREF_DEFINITION    UBIN(36)  ALIGNED   STATIC    SYMDEF    INIT(0);
      498     3083    1   DCL 1 VY_XSO$BREF ALIGNED CONSTANT SYMDEF,
      499     3084    1         2 COUNT UBIN(18) UNAL INIT(30),
      500     3085    1         2 CHARS CHAR(30) UNAL INIT(
      501     3086    1           '6XSO$BREF$$$$$$$$$$$$$$$$$$$$$');
      502     3087    1   DCL 1 VY_TSX0_OVERLAY ALIGNED STATIC SYMDEF,
      503     3088    1         2 H ALIGNED,
      504     3089    1           3 LEFT_HALF UBIN(18) UNAL INIT(0),
      505     3090    1           3 RIGHT_HALF UBIN(18) UNAL INIT( BITBIN('700000'O) ),
      506     3091    1         2 I REDEF H ALIGNED,
      507     3092    1           3 WORD0 UBIN(36) UNAL;
      508     3093        /**/
      509     3094        /**/
      510     3095    1   DCL VY_SLIB_AREA$         PTR       ALIGNED   STATIC    SYMDEF    INIT(ADDR(NIL) );
      511     3096    1   DCL VY_SLIB_AREA_SIZE     UBIN(36)  ALIGNED   STATIC    SYMDEF    INIT(0);
      512     3097    1   DCL VY_SC_X_NODE$         PTR       ALIGNED   STATIC    SYMDEF    INIT(ADDR(NIL) );
      513     3098    1   DCL   VY_DCB_USER_NEXT    UBIN(36)            STATIC   SYMDEF INIT(@DCB_NUM_START);
      514     3099    1   DCL VY_DCB_HEAD$          PTR       ALIGNED   STATIC    SYMDEF    INIT(ADDR(NIL) );
      515     3100    1   DCL VY_DCB_TAIL$          PTR       ALIGNED   STATIC    SYMDEF    INIT(ADDR(NIL) );
      516     3101    1   DCL VY_DCB_START$         PTR       ALIGNED   STATIC    SYMDEF    INIT(ADDR(NIL) );
      517     3102    1   DCL VY_DCB_STOP$          PTR       ALIGNED   STATIC    SYMDEF    INIT(ADDR(NIL) );
      518     3103    1   DCL VY_MERGE_START$       PTR       ALIGNED   STATIC    SYMDEF    INIT(ADDR(NIL) );
      519     3104    1   DCL VY_MERGE_STOP$        PTR       ALIGNED   STATIC    SYMDEF    INIT(ADDR(NIL) );
      520     3105    1   DCL VY_ROOT_DN_INC UBIN(36) ALIGNED STATIC SYMDEF INIT(0);
              3105            /* # OF WORDS IN DN LIST FOR DCB NAMES */
      521     3106    1   DCL VY_SYS           CHAR(8)   CONSTANT    SYMDEF  INIT(':SYS');
PL6.E3A0      #001=VY_DATA_D File=VY_DATA_D.:E05TSI                              WED 07/30/97 09:06 Page:95
      522     3107        %EJECT;
PL6.E3A0      #001=VY_DATA_D File=VY_DATA_D.:E05TSI                              WED 07/30/97 09:06 Page:96
      523     3108        /*
      524     3109              PRIMARY INDEX STRUCTURE ARRAYS FOR PASS 1
      525     3110        */
      526     3111    1   DCL VY_PASS1_REC_TYPE(0:8)     SBIN WORD ALIGNED   CONSTANT    SYMDEF
      527     3112    1              INIT(@DN,@RN,@SC,@ED,@ER,@DD,@DR,@SD,@SR);
      528     3113        /*
      529     3114              RECORD TYPES TO BE READ FROM RUN UNIT FILES ( SHARED LIBRARIES, ETC. )
      530     3115        */
      531     3116    1   DCL VY_PASS1_REC_TYPE_RUN(0:2) UBIN(36)  ALIGNED   CONSTANT    SYMDEF
      532     3117    1              INIT(     @DN,
      533     3118    1                        @ED,
      534     3119    1                        @DD );
      535     3120    1   DCL VY_PASS1_ALL_TYPE(0:9)     SBIN WORD ALIGNED   CONSTANT    SYMDEF
      536     3121    1         INIT( -1,@DN_DS_1,@RN_DS_1,@SC_DS_1,@ED_DS_1,@ER_DS_1,@DD_DS_1,@DR_DS_1,
              3121                  @SD_DS_1,@SR_DS_1);
      537     3122    1   DCL VY_PASS1_LIB_ALL_TYPE(0:9) SBIN WORD ALIGNED   CONSTANT    SYMDEF
      538     3123    1         INIT( -1,@DN_DS_1,@RN_DS_1,@SC_DS_1,@DN_DS_1,@SC_DS_1,@RN_DS_1,@RN_DS_1,
              3123                  @SD_DS_1,@SR_DS_1);
      539     3124    1   DCL VY_HEAD_INX(0:9)           SBIN WORD ALIGNED   CONSTANT    SYMDEF
      540     3125    1         INIT(-1, 0, 1, -1, 2, 3, 4, 5, 6, 7 );
      541     3126    1   DCL VY_REC_SIZE_A(0:@PN)  SBIN(36)  ALIGNED   CONSTANT    SYMDEF
      542     3127    1              INIT(     @M_SN_ESZ,
      543     3128    1                        @M_DN_ESZ,
      544     3129    1                        @M_RN_ESZ,
      545     3130    1                        @M_SC_ESZ,
      546     3131    1                        @M_ED_ESZ,
      547     3132    1                        @M_ER_ESZ,
      548     3133    1                        @M_DD_ESZ,
      549     3134    1                        @M_DR_ESZ,
      550     3135    1                        @M_SD_ESZ,
      551     3136    1                        @M_SR_ESZ,
      552     3137    1                        @M_PR_ESZ,
      553     3138    1                        @M_LB_ESZ,
      554     3139    1                        @M_IE_ESZ,
      555     3140    1                        @M_ES_ESZ,
      556     3141    1                        @M_VR_ESZ,
      557     3142    1                        @M_PN_ESZ);
PL6.E3A0      #001=VY_DATA_D File=VY_DATA_D.:E05TSI                              WED 07/30/97 09:06 Page:97
      558     3143    1   DCL VY_DEF_REC_A(0:2) UBIN(36) ALIGNED CONSTANT SYMDEF INIT(@DN,@ED,@DD);
              3143            /* LIST OF DEF RECORDS */
      559     3144    1   DCL VY_REF_REC_A(0:3) UBIN(36) ALIGNED CONSTANT SYMDEF INIT(@RN,@ER,@DR,@SR);
              3144            /* LIST OF REF RECORDS */
      560     3145    1   DCL VY_REF_MATCH_A(0:@SR) SBIN WORD ALIGNED   CONSTANT    SYMDEF
      561     3146    1              INIT(     -1,
      562     3147    1                        -1,
      563     3148    1                        -1,
      564     3149    1                        -1,
      565     3150    1                        @ER,
      566     3151    1                        @ED,
      567     3152    1                        @DR,
      568     3153    1                        @DD,
      569     3154    1                        @SR,
      570     3155    1                        @SD);              /* MATCH LIST REF <-> DEF */
      571     3156    1   DCL VY_MATCH_NAME_A(0:@SR)     UBIN(36)  ALIGNED   CONSTANT    SYMDEF
      572     3157    1              INIT(          9999,
      573     3158    1                             9999,
      574     3159    1                             9999,
      575     3160    1                              @DN,         /*SC*/
      576     3161    1                              @DN,         /*ED*/
      577     3162    1                              @RN,         /*ER*/
      578     3163    1                              @DN,         /*DD*/
      579     3164    1                              @RN,         /*DR*/
      580     3165    1                              @DN,         /*SD*/
      581     3166    1                              @RN);        /*SR*/
      582     3167    1   DCL VY_NAME_DISP_A(0:@SR)      UBIN(36)  ALIGNED   CONSTANT    SYMDEF
      583     3168    1              INIT(          9999,         /*SN*/
      584     3169    1                             9999,         /*DN*/
      585     3170    1                             9999,         /*RN*/
      586     3171    1                                2,         /*SC*/
      587     3172    1                                2,         /*ED*/
      588     3173    1                                0,         /*ER*/
      589     3174    1                                2,         /*DD*/
      590     3175    1                                0,         /*DR*/
      591     3176    1                                2,         /*SD*/
      592     3177    1                                0);        /*SR*/
PL6.E3A0      #001=VY_DATA_D File=VY_DATA_D.:E05TSI                              WED 07/30/97 09:06 Page:98
      593     3178    1   DCL VY_LAST_UTS           UBIN(36)  ALIGNED   STATIC    SYMDEF    INIT(BITBIN(
              3178            '777777777777'O));
      594     3179        %EJECT;
PL6.E3A0      #001=VY_DATA_D File=VY_DATA_D.:E05TSI                              WED 07/30/97 09:06 Page:99
      595     3180    1   DCL VY_SC_PASS2$               PTR       ALIGNED   STATIC    SYMDEF   INIT(ADDR(NIL
              3180            ));
      596     3181                                                /* PASS2 POINTER TO CURRENT ITEM IN LINK
      597     3182                                           LIST OF START/COUNT ITEMS FOR SECTIONS */
      598     3183    1   DCL VY_SC_BASE$                PTR       ALIGNED   STATIC    SYMDEF   INIT(ADDR(NIL
              3183            ));
      599     3184                            /* PASS2 BASE POINTER TO SECTIONS FOR CURRENT OBJECT UNIT */
      600     3185        /**/
      601     3186        /**/
      602     3187        /**/
      603     3188    1   DCL VY_PASS2_ALL_TYPE(0:9)     SBIN WORD ALIGNED   CONSTANT    SYMDEF
      604     3189    1         INIT( -1,@DN_DS_2,@RN_DS_2,@SC_DS_2,@ED_DS_2,@ER_DS_2,@DD_DS_2,@DR_DS_2,
              3189                  @SD_DS_2,@SR_DS_2);
      605     3190        /*
      606     3191              VARIABLES FOR DEFINITION TYPE RECORDS FROM OBJECT FILES FOR PASS 2
      607     3192        */
      608     3193        /**/
      609     3194        /**/
      610     3195        /**/
      611     3196        /*
      612     3197              VARIABLES FOR REFERENCE TYPE RECORDS FROM OBJECT FILES FOR PASS 2
      613     3198        */
      614     3199    1   DCL 1 VY_PASS2_REF ALIGNED STATIC SYMDEF,
      615     3200    1         2 OU ALIGNED,
      616     3201    1           3 MAX ALIGNED,
      617     3202    1             4 RN UBIN(36) ALIGNED INIT(0),
      618     3203    1             4 ER UBIN(36) ALIGNED INIT(0),
      619     3204    1             4 DR UBIN(36) ALIGNED INIT(0),
      620     3205    1             4 SR UBIN(36) ALIGNED INIT(0),
      621     3206    1           3 MAX_A(0:3) REDEF MAX UBIN(36) ALIGNED,
      622     3207    1           3 L_START ALIGNED,
      623     3208    1             4 RN$ PTR ALIGNED INIT(ADDR(NIL)),
      624     3209    1             4 ER$ PTR ALIGNED INIT(ADDR(NIL)),
      625     3210    1             4 DR$ PTR ALIGNED INIT(ADDR(NIL)),
      626     3211    1             4 SR$ PTR ALIGNED INIT(ADDR(NIL)),
      627     3212    1           3 L_START_A$(0:3) REDEF L_START PTR ALIGNED,
      628     3213    1           3 L_STOP ALIGNED,
PL6.E3A0      #001=VY_DATA_D File=VY_DATA_D.:E05TSI                              WED 07/30/97 09:06 Page:100
      629     3214    1             4 RN$ PTR ALIGNED INIT(ADDR(NIL)),
      630     3215    1             4 ER$ PTR ALIGNED INIT(ADDR(NIL)),
      631     3216    1             4 DR$ PTR ALIGNED INIT(ADDR(NIL)),
      632     3217    1             4 SR$ PTR ALIGNED INIT(ADDR(NIL)),
      633     3218    1           3 L_STOP_A$(0:3) REDEF L_STOP PTR ALIGNED,
      634     3219    1           3 SIZE ALIGNED,
      635     3220    1             4 RN UBIN(36) ALIGNED INIT(0),
      636     3221    1             4 ER UBIN(36) ALIGNED INIT(0),
      637     3222    1             4 DR UBIN(36) ALIGNED INIT(0),
      638     3223    1             4 SR UBIN(36) ALIGNED INIT(0),
      639     3224    1           3 SIZE_A(0:3) REDEF SIZE UBIN(36) ALIGNED,
      640     3225    1         2 SAT ALIGNED,
      641     3226    1           3 MAX ALIGNED,
      642     3227    1             4 RN UBIN(36) ALIGNED INIT(0),
      643     3228    1             4 ER UBIN(36) ALIGNED INIT(0),
      644     3229    1             4 DR UBIN(36) ALIGNED INIT(0),
      645     3230    1             4 SR UBIN(36) ALIGNED INIT(0),
      646     3231    1           3 MAX_A(0:3) REDEF MAX UBIN(36) ALIGNED,
      647     3232    1           3 L_START ALIGNED,
      648     3233    1             4 RN$ PTR ALIGNED INIT(ADDR(NIL)),
      649     3234    1             4 ER$ PTR ALIGNED INIT(ADDR(NIL)),
      650     3235    1             4 DR$ PTR ALIGNED INIT(ADDR(NIL)),
      651     3236    1             4 SR$ PTR ALIGNED INIT(ADDR(NIL)),
      652     3237    1             4 SC$ PTR ALIGNED INIT(ADDR(NIL)),
      653     3238    1           3 L_START_A$(0:4) REDEF L_START PTR ALIGNED,
      654     3239    1           3 L_STOP ALIGNED,
      655     3240    1             4 RN$ PTR ALIGNED INIT(ADDR(NIL)),
      656     3241    1             4 ER$ PTR ALIGNED INIT(ADDR(NIL)),
      657     3242    1             4 DR$ PTR ALIGNED INIT(ADDR(NIL)),
      658     3243    1             4 SR$ PTR ALIGNED INIT(ADDR(NIL)),
      659     3244    1             4 SC$ PTR ALIGNED INIT(ADDR(NIL)),
      660     3245    1           3 L_STOP_A$(0:4) REDEF L_STOP PTR ALIGNED,
      661     3246    1           3 COUNT ALIGNED,
      662     3247    1             4 RN UBIN(36) ALIGNED INIT(0),
      663     3248    1             4 ER UBIN(36) ALIGNED INIT(0),
      664     3249    1             4 DR UBIN(36) ALIGNED INIT(0),
      665     3250    1             4 SR UBIN(36) ALIGNED INIT(0),
PL6.E3A0      #001=VY_DATA_D File=VY_DATA_D.:E05TSI                              WED 07/30/97 09:06 Page:101
      666     3251    1             4 SC UBIN(36) ALIGNED INIT(0),
      667     3252    1           3 COUNT_A(0:4) REDEF COUNT UBIN(36) ALIGNED,
      668     3253    1           3 ENT_SIZE ALIGNED,
      669     3254    1             4 RN UBIN(36) ALIGNED INIT(@M_RN_ESZ),
      670     3255    1             4 ER UBIN(36) ALIGNED INIT(SIZEW(VYR$SAT)),
      671     3256    1             4 DR UBIN(36) ALIGNED INIT(SIZEW(VYR$SAT)),
      672     3257    1             4 SR UBIN(36) ALIGNED INIT(SIZEW(VYR$SAT)),
      673     3258    1             4 SC UBIN(36) ALIGNED INIT(SIZEW(VY$SC)),
      674     3259    1           3 ENT_SIZE_A(0:4) REDEF ENT_SIZE UBIN(36) ALIGNED,
      675     3260    1         2 UNSAT ALIGNED,
      676     3261    1           3 MAX ALIGNED,
      677     3262    1             4 RN UBIN(36) ALIGNED INIT(0),
      678     3263    1             4 ER UBIN(36) ALIGNED INIT(0),
      679     3264    1             4 DR UBIN(36) ALIGNED INIT(0),
      680     3265    1             4 SR UBIN(36) ALIGNED INIT(0),
      681     3266    1           3 MAX_A(0:3) REDEF MAX UBIN(36) ALIGNED,
      682     3267    1           3 L_START ALIGNED,
      683     3268    1             4 RN$ PTR ALIGNED INIT(ADDR(NIL)),
      684     3269    1             4 ER$ PTR ALIGNED INIT(ADDR(NIL)),
      685     3270    1             4 DR$ PTR ALIGNED INIT(ADDR(NIL)),
      686     3271    1             4 SR$ PTR ALIGNED INIT(ADDR(NIL)),
      687     3272    1           3 L_START_A$(0:3) REDEF L_START PTR ALIGNED,
      688     3273    1           3 L_STOP ALIGNED,
      689     3274    1             4 RN$ PTR ALIGNED INIT(ADDR(NIL)),
      690     3275    1             4 ER$ PTR ALIGNED INIT(ADDR(NIL)),
      691     3276    1             4 DR$ PTR ALIGNED INIT(ADDR(NIL)),
      692     3277    1             4 SR$ PTR ALIGNED INIT(ADDR(NIL)),
      693     3278    1           3 L_STOP_A$(0:3) REDEF L_STOP PTR ALIGNED,
      694     3279    1           3 L_WHERE ALIGNED,
      695     3280    1             4 RN$ PTR ALIGNED INIT(ADDR(NIL)),
      696     3281    1             4 ER$ PTR ALIGNED INIT(ADDR(NIL)),
      697     3282    1             4 DR$ PTR ALIGNED INIT(ADDR(NIL)),
      698     3283    1             4 SR$ PTR ALIGNED INIT(ADDR(NIL)),
      699     3284    1           3 L_WHERE_A$(0:3) REDEF L_WHERE PTR ALIGNED,
      700     3285    1           3 SIZE ALIGNED,
      701     3286    1             4 RN UBIN(36) ALIGNED INIT(0),
      702     3287    1             4 ER UBIN(36) ALIGNED INIT(0),
PL6.E3A0      #001=VY_DATA_D File=VY_DATA_D.:E05TSI                              WED 07/30/97 09:06 Page:102
      703     3288    1             4 DR UBIN(36) ALIGNED INIT(0),
      704     3289    1             4 SR UBIN(36) ALIGNED INIT(0),
      705     3290    1           3 SIZE_A(0:3) REDEF SIZE UBIN(36) ALIGNED,
      706     3291    1           3 PAGE# ALIGNED,
      707     3292    1             4 RN UBIN(36) ALIGNED INIT(0),
      708     3293    1             4 ER UBIN(36) ALIGNED INIT(0),
      709     3294    1             4 DR UBIN(36) ALIGNED INIT(0),
      710     3295    1             4 SR UBIN(36) ALIGNED INIT(0),
      711     3296    1           3 PAGE#_A(0:3) REDEF PAGE# UBIN(36) ALIGNED,
      712     3297    1           3 PREV_RN_SIZE UBIN(36) ALIGNED INIT(0);
      713     3298        %EJECT;
PL6.E3A0      #001=VY_DATA_D File=VY_DATA_D.:E05TSI                              WED 07/30/97 09:06 Page:103
      714     3299    1   DCL VY_HAVE_SPC UBIN(36) ALIGNED STATIC SYMDEF INIT(0);
              3299            /* COUNT OF SPECIAL SYMBOLS INSERTED BY LINK */
      715     3300    1   DCL 1 VY_SPC ALIGNED STATIC SYMDEF,
      716     3301    1         2 SEG ALIGNED,
      717     3302    1           3 NAME ALIGNED,
      718     3303    1             4 JIT$ PTR ALIGNED INIT(ADDR(VY_SPC.SEG.STRING.JIT)),
      719     3304    1             4 IS$ PTR ALIGNED INIT(ADDR(VY_SPC.SEG.STRING.IS)),
      720     3305    1             4 TCB$ PTR ALIGNED INIT(ADDR(VY_SPC.SEG.STRING.TCB)),
      721     3306    1             4 ROS$ PTR ALIGNED INIT(ADDR(VY_SPC.SEG.STRING.ROS)),
      722     3307    1             4 NUL$ PTR ALIGNED INIT(ADDR(VY_SPC.SEG.STRING.NUL)),
      723     3308    1           3 NAME_A$(0:4) REDEF NAME PTR ALIGNED,
      724     3309    1           3 VALUE ALIGNED,
      725     3310    1             4 JIT UBIN(36) ALIGNED INIT(0),
      726     3311    1             4 IS UBIN(36) ALIGNED INIT(0),
      727     3312    1             4 TCB UBIN(36) ALIGNED INIT(0),
      728     3313    1             4 ROS UBIN(36) ALIGNED INIT(0),
      729     3314    1             4 NUL UBIN(36) ALIGNED INIT(0),
      730     3315    1           3 VALUE_A(0:4) REDEF VALUE UBIN(36) ALIGNED,
      731     3316    1           3 STRING ALIGNED,
      732     3317    1             4 JIT ALIGNED,
      733     3318    1               5 COUNT UBIN(18) UNAL INIT(6),
      734     3319    1               5 CHARS CHAR(6) UNAL INIT('JITSID'),
      735     3320    1             4 IS ALIGNED,
      736     3321    1               5 COUNT UBIN(18) UNAL INIT(5),
      737     3322    1               5 CHARS CHAR(5) UNAL INIT('ISSID'),
      738     3323    1             4 TCB ALIGNED,
      739     3324    1               5 COUNT UBIN(18) UNAL INIT(6),
      740     3325    1               5 CHARS CHAR(6) UNAL INIT('TCBSID'),
      741     3326    1             4 ROS ALIGNED,
      742     3327    1               5 COUNT UBIN(18) UNAL INIT(5),
      743     3328    1               5 CHARS CHAR(5) UNAL INIT('ROSID'),
      744     3329    1             4 NUL ALIGNED,
      745     3330    1               5 COUNT UBIN(18) UNAL INIT(7),
      746     3331    1               5 CHARS CHAR(7) UNAL INIT('NULLSID'),
      747     3332    1         2 B$ ALIGNED,
      748     3333    1           3 NAME ALIGNED,
      749     3334    1             4 JIT$ PTR ALIGNED INIT(ADDR(VY_SPC.B$.STRING.JIT)),
PL6.E3A0      #001=VY_DATA_D File=VY_DATA_D.:E05TSI                              WED 07/30/97 09:06 Page:104
      750     3335    1             4 * PTR ALIGNED INIT(ADDR(NIL)),
      751     3336    1             4 TCB$ PTR ALIGNED INIT(ADDR(VY_SPC.B$.STRING.TCB)),
      752     3337    1             4 ROS$ PTR ALIGNED INIT(ADDR(VY_SPC.B$.STRING.ROS)),
      753     3338    1           3 NAME_A$(0:3) REDEF NAME PTR ALIGNED,
      754     3339    1           3 VALUE ALIGNED,
      755     3340    1             4 JIT UBIN(36) ALIGNED INIT(0),
      756     3341    1             4 DELTA UBIN(36) ALIGNED INIT(0),
      757     3342    1             4 TCB UBIN(36) ALIGNED INIT(0),
      758     3343    1             4 ROS UBIN(36) ALIGNED INIT(0),
      759     3344    1           3 VALUE_A(0:3) REDEF VALUE UBIN(36) ALIGNED,
      760     3345    1           3 SKIP ALIGNED,
      761     3346    1             4 JIT UBIN(36) ALIGNED INIT(0),
      762     3347    1             4 DELTA UBIN(36) ALIGNED INIT(0),
      763     3348    1             4 TCB UBIN(36) ALIGNED INIT(0),
      764     3349    1             4 ROS UBIN(36) ALIGNED INIT(0),
      765     3350    1           3 SKIP_A(0:3) REDEF SKIP UBIN(36) ALIGNED,
      766     3351    1           3 MINE ALIGNED,
      767     3352    1             4 JIT UBIN(36) ALIGNED INIT(0),
      768     3353    1             4 DELTA UBIN(36) ALIGNED INIT(0),
      769     3354    1             4 TCB UBIN(36) ALIGNED INIT(0),
      770     3355    1             4 ROS UBIN(36) ALIGNED INIT(0),
      771     3356    1           3 MINE_A(0:3) REDEF MINE UBIN(36) ALIGNED,
      772     3357    1           3 STRING ALIGNED,
      773     3358    1             4 JIT ALIGNED ,
      774     3359    1               5 COUNT UBIN(18) UNAL INIT(6),
      775     3360    1               5 CHARS CHAR(6) UNAL INIT('B$JIT$'),
      776     3361    1             4 TCB ALIGNED ,
      777     3362    1               5 COUNT UBIN(18) UNAL INIT(6),
      778     3363    1               5 CHARS CHAR(6) UNAL INIT('B$TCB$'),
      779     3364    1             4 ROS ALIGNED ,
      780     3365    1               5 COUNT UBIN(18) UNAL INIT(6),
      781     3366    1               5 CHARS CHAR(6) UNAL INIT('B$ROS$'),
      782     3367    1         2 FAULT SBIN WORD ALIGNED INIT(-1),
      783     3368    1         2 DELTA_DATA_ADR UBIN(36) ALIGNED INIT(0),
      784     3369    1         2 TCBSIZE SBIN WORD ALIGNED INIT(-1);
      785     3370        /**/
      786     3371        /**/
PL6.E3A0      #001=VY_DATA_D File=VY_DATA_D.:E05TSI                              WED 07/30/97 09:06 Page:105
      787     3372        /**/
      788     3373        /* ! ! */
      789     3374    1   DCL VY_DCB_OPTION_TEXT(0:3) CHAR(5) ALIGNED CONSTANT SYMDEF INIT(
      790     3375    1              'SIDCB',
      791     3376    1              'UIDCB',
      792     3377    1              'OUDCB',
      793     3378    1              'LODCB'   );
      794     3379        /* ! R ! */
      795     3380    1   DCL VY_SYNTAX_ERR     BIT(1)  ALIGNED     STATIC SYMDEF INIT(@FALSE_B);
      796     3381    1   DCL 1 VY_HELP                             STATIC SYMDEF,
      797     3382    1         2 LAST          BIT(1)  UNAL        INIT(@FALSE_B),
      798     3383    1         2 TOPICS        BIT(1)  UNAL        INIT(@FALSE_B);
      799     3384    1   DCL VY_ECHO            BIT( 1) ALIGNED    STATIC SYMDEF INIT(@FALSE_B);
      800     3385    1   DCL VY_DO_ECHO         BIT( 1) ALIGNED    STATIC SYMDEF INIT(@FALSE_B);
      801     3386    1   DCL 1 VY_SI_KEY_BUF ALIGNED STATIC SYMDEF,
      802     3387    1         2 COUNT UBIN(9) UNAL,
      803     3388    1         2 KEY CHAR(255),
      804     3389    1         2 EDIT REDEF KEY,
      805     3390    1           3 NUM UBIN(27) UNAL,
      806     3391    1           3 * CHAR(252);
      807     3392        /* ! ! */
      808     3393    1   DCL VY_EI_KEY_BUF CHAR(1) STATIC SYMDEF;
      809     3394        /* ! R ! */
      810     3395    1   DCL 1 VY_LAST_LINE ALIGNED STATIC SYMDEF,
      811     3396    1         2 SIZE UBIN,
      812     3397    1         2 OFFSET UBIN,
      813     3398    1         2 TEXT CHAR(266);
      814     3399        %EJECT;
PL6.E3A0      #001=VY_DATA_D File=VY_DATA_D.:E05TSI                              WED 07/30/97 09:06 Page:106
      815     3400    1   DCL VY_SPC_DATA_INSERT    BIT(1)    ALIGNED   STATIC    SYMDEF    INIT(@TRUE_B);
      816     3401    1   DCL VY_ROS_ALLOWED    BIT(1)    ALIGNED   STATIC    SYMDEF    INIT(@TRUE_B);
      817     3402    1   DCL VY_SHARED_LIB_ASS     UBIN(36)  ALIGNED   STATIC    SYMDEF    INIT(0);
      818     3403    1   DCL VY_IMAGE_BUFFER_SIZE  UBIN(36)  ALIGNED   CONSTANT    SYMDEF  INIT( 1024 );
      819     3404    1   DCL VY_RN_THRESHOLD  UBIN(36)       ALIGNED   CONSTANT    SYMDEF  INIT(30720);
      820     3405    1   DCL VY_REF_EXPONENTIAL_SWITCH  BIT(1)    ALIGNED   STATIC    SYMDEF   INIT(@FALSE_B
              3405            );
      821     3406    1   DCL VY_UNSAT_BUFFER_EXPAND_SWITCH   BIT(1)    ALIGNED   STATIC    SYMDEF    INIT(
              3406            @FALSE_B);
      822     3407    1   DCL VY_UNWIND REMEMBER STATIC SYMDEF ;
      823     3408    1   DCL VY_PAR_UNWIND REMEMBER STATIC SYMDEF ;
      824     3409        /* ! R !DCL VY_PAR_UNWIND_B REDEF VY_PAR_UNWIND BIT(72); */
      825     3410    1   DCL VY_LIB$               PTR  ALIGNED   STATIC    SYMDEF    INIT(ADDR(NIL) );
      826     3411    1   DCL VY_SYMBOL$            PTR  ALIGNED   STATIC    SYMDEF    INIT(ADDR(NIL) );
      827     3412    1   DCL VY_LIST_HEADER        BIT(1)    ALIGNED   STATIC    SYMDEF    INIT(@FALSE_B);
      828     3413    1   DCL VY_ED_START$          PTR  ALIGNED   STATIC    SYMDEF    INIT(ADDR(NIL));
      829     3414    1   DCL VY_ED_STOP$           PTR  ALIGNED   STATIC    SYMDEF    INIT(ADDR(NIL));
      830     3415    1   DCL VY_UTS_START$          PTR  ALIGNED   STATIC    SYMDEF    INIT(ADDR(NIL));
      831     3416    1   DCL VY_UTS_STOP$           PTR  ALIGNED   STATIC    SYMDEF    INIT(ADDR(NIL));
      832     3417    1   DCL 1 VY_O_KEY_UTS        ALIGNED        CONSTANT    SYMDEF,
      833     3418    1         2 COUNT        UBIN(9)   UNAL INIT(2),
      834     3419    1         2 CHARS        CHAR(2)   UNAL INIT('!"');
      835     3420    1   DCL VY_INV_OWRITE    BIT(1)    ALIGNED   STATIC    SYMDEF    INIT(@FALSE_B);
      836     3421    1   DCL VY_INPUT_OPEN         UBIN(36)  ALIGNED   STATIC    SYMDEF    INIT(0);
      837     3422    1   DCL VY_CTAB               UBIN(36) ALIGNED STATIC  SYMDEF    INIT(0);
      838     3423    1   DCL VY_MAP_TABS_A(0:4)    UBIN(36)  ALIGNED   CONSTANT    SYMDEF  INIT(
      839     3424    1              5, 35, 75, 105, 99999999 );
      840     3425    1   DCL VY_MAP_WIDTH          SBIN WORD ALIGNED   STATIC    SYMDEF    INIT(0);
      841     3426    1   DCL VY_MAP_WIDTH_HDR      SBIN WORD ALIGNED   STATIC    SYMDEF    INIT(0);
      842     3427    1   DCL VY_MAX_CTAB           UBIN(36)  ALIGNED   STATIC    SYMDEF    INIT(0);
      843     3428    1   DCL 1 VY_MBUF ALIGNED STATIC SYMDEF,
      844     3429    1         2 CHARS CHAR(132) UNAL INIT(' '),
      845     3430    1         2 CHARS_A(0:131) REDEF CHARS CHAR(1) UNAL,
      846     3431    1         2 LIT_BUF REDEF CHARS UNAL,
      847     3432    1           3 VFC CHAR(1) UNAL,
      848     3433    1           3 CHARS CHAR(131) UNAL;
      849     3434    1   DCL 1 VY_MAP_HDR ALIGNED STATIC SYMDEF,
PL6.E3A0      #001=VY_DATA_D File=VY_DATA_D.:E05TSI                              WED 07/30/97 09:06 Page:107
      850     3435    1         2 CHARS CHAR(132) UNAL INIT(' '),
      851     3436    1         2 CHARS_A(0:131) REDEF CHARS CHAR(1) UNAL,
      852     3437    1         2 LIT_BUF REDEF CHARS UNAL,
      853     3438    1           3 VFC CHAR(1) UNAL,
      854     3439    1           3 CHARS CHAR(131) UNAL;
      855     3440        /* ! ! */
      856     3441    1   DCL M$LO   DCB;
      857     3442        %FPT_WRITE( FPTN=VY_FPT_WRITE, DCB=M$LO, BUF=VY_CBUF, STCLASS="STATIC SYMDEF" );
              3443        %LSET LISTDIR='0'B;
              3459    1  DCL 1 VY_FPT_WRITE STATIC SYMDEF,2 V_ BIT(72)INIT(VECTOR(VY_FPT_WRITE.V))/**/,2 KEY_
              3459            BIT(72)INIT(VECTOR(NIL))/**/,2 BUF_,3
              3460    1   BOUND UBIN(20)UNAL INIT(SIZEV(VY_CBUF))/**/,3 * BIT(12)INIT('7772'O)/**/,3 * BIT(4)
              3460            INIT('0'B)
              3461    1   /**/,3 BUF$ PTR INIT(ADDR(VY_CBUF))/**/,2 STATION_ BIT(72)INIT(VECTOR(NIL))/**/,2
              3462    1   IDBUF_ REDEF STATION_ BIT(72),2 V DALIGNED,3 DCB# UBIN(18)UNAL INIT(DCBNUM(M$LO))
              3462            /**/,3 WAIT# BIT(1)INIT('1'B
              3463    1   )/**/ ,3 * BIT(2)INIT('0'B)/**/,3 ID# BIT(1)INIT('0'B)/**/,3 * BIT(1)INIT('0'B)
              3464    1   /**/,3 FULL# BIT(1)INIT('0'B)/**/ ,3 * BIT(3)INIT('0'B)/**/,3 ONEWKEY# BIT(1)INIT(
              3464            '1'B)
              3465    1  /**/ ,3 NEWKEY# BIT(1)INIT('0'B)/**/ ,3 REWRITE# BIT(1)INIT('0'B)/**/ ,3 NOTIME# BIT
              3465            (1)INIT
              3466    1   ('0'B)/**/ ,3 IOERROK# BIT(1)INIT('0'B)/**/ ,3 KEYTYPE# UBIN(4)INIT(0)/**/ UNAL,
              3467    1   3 EVENT# SBIN INIT(0)/**/,3 SEED# BIT(36)INIT('0'B)/**/,3 DVBYTE,4 TOP# BIT(1)INIT(
              3467            '0'B)
              3468    1  /**/,4 BP# BIT(1)INIT('0'B)/**/,4 VFC# BIT(1)INIT('0'B)/**/,4 REREAD# REDEF VFC# BIT
              3468            (1),4 BIN# BIT(1
              3469    1   )INIT('0'B)/**/,4 TRANS# BIT(1)INIT('0'B)/**/,4 RRR# BIT(1)INIT('0'B)/**/,4 NODAT#
              3469            BIT(1
              3470    1  )INIT('0'B)/**/,4 * BIT(1)INIT('0'B)/**/,4 CONT# BIT(1)INIT('0'B)/**/,3 * BIT(1)INIT
              3471    1   ('0'B)/**/,3 ODFNC# UBIN(8)UNAL INIT(0)/**/,3 * UBIN(18)UNAL INIT(0)/**/;
      858     3473        %FPT_WRITE( FPTN=VY_MAP_LO_FPT_WRITE,
      859     3474                   DCB=M$LO,
      860     3475                   BUF=VY_MBUF,
      861     3476                   VFC=YES,
      862     3477                   STCLASS="STATIC SYMDEF");
              3478        %LSET LISTDIR='0'B;
              3494    1  DCL 1 VY_MAP_LO_FPT_WRITE STATIC SYMDEF,2 V_ BIT(72)INIT(VECTOR(VY_MAP_LO_FPT_WRITE.
PL6.E3A0      #001=VY_DATA_D File=VY_DATA_D.:E05TSI                              WED 07/30/97 09:06 Page:108
              3494            V))/**/,2 KEY_ BIT(72)INIT(VECTOR(NIL))/**/,2 BUF_,3
              3495    1   BOUND UBIN(20)UNAL INIT(SIZEV(VY_MBUF))/**/,3 * BIT(12)INIT('7772'O)/**/,3 * BIT(4)
              3495            INIT('0'B)
              3496    1   /**/,3 BUF$ PTR INIT(ADDR(VY_MBUF))/**/,2 STATION_ BIT(72)INIT(VECTOR(NIL))/**/,2
              3497    1   IDBUF_ REDEF STATION_ BIT(72),2 V DALIGNED,3 DCB# UBIN(18)UNAL INIT(DCBNUM(M$LO))
              3497            /**/,3 WAIT# BIT(1)INIT('1'B
              3498    1   )/**/ ,3 * BIT(2)INIT('0'B)/**/,3 ID# BIT(1)INIT('0'B)/**/,3 * BIT(1)INIT('0'B)
              3499    1   /**/,3 FULL# BIT(1)INIT('0'B)/**/ ,3 * BIT(3)INIT('0'B)/**/,3 ONEWKEY# BIT(1)INIT(
              3499            '1'B)
              3500    1  /**/ ,3 NEWKEY# BIT(1)INIT('0'B)/**/ ,3 REWRITE# BIT(1)INIT('0'B)/**/ ,3 NOTIME# BIT
              3500            (1)INIT
              3501    1   ('0'B)/**/ ,3 IOERROK# BIT(1)INIT('0'B)/**/ ,3 KEYTYPE# UBIN(4)INIT(0)/**/ UNAL,
              3502    1   3 EVENT# SBIN INIT(0)/**/,3 SEED# BIT(36)INIT('0'B)/**/,3 DVBYTE,4 TOP# BIT(1)INIT(
              3502            '0'B)
              3503    1  /**/,4 BP# BIT(1)INIT('0'B)/**/,4 VFC# BIT(1)INIT('1'B)/**/,4 REREAD# REDEF VFC# BIT
              3503            (1),4 BIN# BIT(1
              3504    1   )INIT('0'B)/**/,4 TRANS# BIT(1)INIT('0'B)/**/,4 RRR# BIT(1)INIT('0'B)/**/,4 NODAT#
              3504            BIT(1
              3505    1  )INIT('0'B)/**/,4 * BIT(1)INIT('0'B)/**/,4 CONT# BIT(1)INIT('0'B)/**/,3 * BIT(1)INIT
              3506    1   ('0'B)/**/,3 ODFNC# UBIN(8)UNAL INIT(0)/**/,3 * UBIN(18)UNAL INIT(0)/**/;
      863     3508        /**/
      864     3509        %FPT_WRITE( FPTN=VY_MAP_LIT_LO_FPT_WRITE,
      865     3510                   DCB=M$LO,
      866     3511                   BUF=VY_MBUF,
      867     3512                   VFC=YES,
      868     3513                   STCLASS="STATIC SYMDEF");
              3514        %LSET LISTDIR='0'B;
              3530    1   DCL 1 VY_MAP_LIT_LO_FPT_WRITE STATIC SYMDEF,2 V_ BIT(72)INIT(VECTOR(
              3530            VY_MAP_LIT_LO_FPT_WRITE.V))/**/,2 KEY_ BIT(72)INIT(VECTOR(NIL))/**/,2 BUF_,3
              3531    1   BOUND UBIN(20)UNAL INIT(SIZEV(VY_MBUF))/**/,3 * BIT(12)INIT('7772'O)/**/,3 * BIT(4)
              3531            INIT('0'B)
              3532    1   /**/,3 BUF$ PTR INIT(ADDR(VY_MBUF))/**/,2 STATION_ BIT(72)INIT(VECTOR(NIL))/**/,2
              3533    1   IDBUF_ REDEF STATION_ BIT(72),2 V DALIGNED,3 DCB# UBIN(18)UNAL INIT(DCBNUM(M$LO))
              3533            /**/,3 WAIT# BIT(1)INIT('1'B
              3534    1   )/**/ ,3 * BIT(2)INIT('0'B)/**/,3 ID# BIT(1)INIT('0'B)/**/,3 * BIT(1)INIT('0'B)
              3535    1   /**/,3 FULL# BIT(1)INIT('0'B)/**/ ,3 * BIT(3)INIT('0'B)/**/,3 ONEWKEY# BIT(1)INIT(
              3535            '1'B)
PL6.E3A0      #001=VY_DATA_D File=VY_DATA_D.:E05TSI                              WED 07/30/97 09:06 Page:109
              3536    1  /**/ ,3 NEWKEY# BIT(1)INIT('0'B)/**/ ,3 REWRITE# BIT(1)INIT('0'B)/**/ ,3 NOTIME# BIT
              3536            (1)INIT
              3537    1   ('0'B)/**/ ,3 IOERROK# BIT(1)INIT('0'B)/**/ ,3 KEYTYPE# UBIN(4)INIT(0)/**/ UNAL,
              3538    1   3 EVENT# SBIN INIT(0)/**/,3 SEED# BIT(36)INIT('0'B)/**/,3 DVBYTE,4 TOP# BIT(1)INIT(
              3538            '0'B)
              3539    1  /**/,4 BP# BIT(1)INIT('0'B)/**/,4 VFC# BIT(1)INIT('1'B)/**/,4 REREAD# REDEF VFC# BIT
              3539            (1),4 BIN# BIT(1
              3540    1   )INIT('0'B)/**/,4 TRANS# BIT(1)INIT('0'B)/**/,4 RRR# BIT(1)INIT('0'B)/**/,4 NODAT#
              3540            BIT(1
              3541    1  )INIT('0'B)/**/,4 * BIT(1)INIT('0'B)/**/,4 CONT# BIT(1)INIT('0'B)/**/,3 * BIT(1)INIT
              3542    1   ('0'B)/**/,3 ODFNC# UBIN(8)UNAL INIT(0)/**/,3 * UBIN(18)UNAL INIT(0)/**/;
      869     3544        /* ! R ! */
      870     3545    1   DCL VY_COPY_EXTRACT       BIT(1)    ALIGNED   STATIC    SYMDEF    INIT(@FALSE_B);
      871     3546    1   DCL VY_XREF_TABS_CONSTANT_A(0:11)   UBIN(36)  ALIGNED   CONSTANT    SYMDEF  INIT(
      872     3547    1         22, 32, 42, 52, 62, 72, 82, 92, 102, 112, 122, 132 );
      873     3548    1   DCL VY_XREF_TABS_A(0:11) UBIN(36)   ALIGNED   STATIC    SYMDEF INIT(0*0);
      874     3549    1   END  VY_DATA_D;

PL6.E3A0      #001=VY_DATA_D File=VY_DATA_D.:E05TSI                              WED 07/30/97 09:06 Page:110
--  Include file information  --

   CP_6.:E05TOU  cannot be made into a system file and is referenced.
   VY_PERR_C.:E05TOU  is referenced.
   VY_MACRO_C.:E05TOU  is referenced.
   VY_SUBS_C.:E05TOU  is referenced.
   B$JIT_C.:E05TOU  was found in the system file and is never referenced.
   CP_6_C.:E05TOU  was found in the system file and is referenced.
      No diagnostics issued in procedure VY_DATA_D.
PL6.E3A0      #001=VY_DATA_D File=VY_DATA_D.:E05TSI                              WED 07/30/97 09:06 Page:111

 **** Variables and constants ****

  ****  Section 001  Data  VY_DATA_D

  ****  Scalars and arrays  ****
OctLoc.c.b A Datatyp(siz) R M Lvl/name                 OctLoc.c.b A Datatyp(siz) R M Lvl/name

   356-0-0/c STRC(1197)  r     1 VY_CBUF                 1752-0-0/d STRC(432)   r     1 VY_FPT_WRITE
  2002-0-0/d STRC(432)   r     1 VY_MAP_LIT_LO_FPT_WRITE
  1766-0-0/d STRC(432)   r     1 VY_MAP_LO_FPT_WRITE     1647-0-0/w STRC(1188)  r     1 VY_MBUF
  1330-0-0/w STRC(1656)  r     1 VY_SPC

  ****  SYMREF variables  ****

  ****  Scalars and arrays  ****
OctLoc.c.b A Datatyp(siz) R M Lvl/name                 OctLoc.c.b A Datatyp(siz) R M Lvl/name

     0-0-0/w UBIN        r     1 N_DDEF_KEY_WORD            0-0-0/w UBIN        r     1 N_DEF_KEY_WORD
     0-0-0/w UBIN        r     1 N_DREF_KEY_WORD            0-0-0/w UBIN        r     1 N_DUPLICATE_KEY_WORD
     0-0-0/w UBIN        r     1 N_EDEF_KEY_WORD            0-0-0/w UBIN        r     1 N_EREF_KEY_WORD
     0-0-0/w UBIN        r     1 N_ERROR_KEY_WORD           0-0-0/w UBIN        r     1 N_INQUIRE_KEY_WORD
     0-0-0/w UBIN        r     1 N_MAP_KEY_WORD             0-0-0/w UBIN        r     1 N_NODEBUG_KEY_WORD
     0-0-0/w UBIN        r     1 N_OVERWRITE_KEY_WORD       0-0-0/w UBIN        r     1 N_REF_KEY_WORD
     0-0-0/w UBIN        r     1 N_SDEF_KEY_WORD            0-0-0/w UBIN        r     1 N_SEARCH_KEY_WORD
     0-0-0/w UBIN        r     1 N_SEVERITY_KEY_WORD        0-0-0/w UBIN        r     1 N_SREF_KEY_WORD

  ****  BASED and DCB variables  ****

  ****  Scalars and arrays  ****
OctLoc.c.b A Datatyp(siz) R M Lvl/name                 OctLoc.c.b A Datatyp(siz) R M Lvl/name

     0-0-0N  NULL        r     1 M$LO                       0-0-0/w STRC(108)   r     1 VY$SC
     0-0-0/w STRC(72)    r     1 VYR$SAT


   No code generated for procedure VY_DATA_D .
PL6.E3A0      #001=VY_DATA_D File=VY_DATA_D.:E05TSI                              WED 07/30/97 09:06 Page:112
   Procedure VY_DATA_D requires 4 words of local(AUTO) storage.

    No errors detected in file VY_DATA_D.:E05TSI    .
PL6.E3A0      #001=VY_DATA_D File=VY_DATA_D.:E05TSI                              WED 07/30/97 09:06 Page:113
          *** CROSS REFERENCE LISTING ***
**     DENOTES     IDENTIFIER DEFINITION
<<                 IDENTIFIER'S VALUE SET
>>                 IDENTIFIER'S VALUE USED
<>                 IDENTIFIER SET AND/OR USED
--                 IDENTIFIER REFERENCED
PL6.E3A0      #001=VY_DATA_D File=VY_DATA_D.:E05TSI                              WED 07/30/97 09:06 Page:114
          MINI XREF LISTING

N_DDEF_KEY_WORD
      2819**DCL      2901--DCLINIT
N_DEF_KEY_WORD
      2815**DCL      2896--DCLINIT
N_DREF_KEY_WORD
      2820**DCL      2902--DCLINIT
N_DUPLICATE_KEY_WORD
      2812**DCL      2890--DCLINIT
N_EDEF_KEY_WORD
      2817**DCL      2899--DCLINIT
N_EREF_KEY_WORD
      2818**DCL      2900--DCLINIT
N_ERROR_KEY_WORD
      2825**DCL      2909--DCLINIT
N_INQUIRE_KEY_WORD
      2823**DCL      2907--DCLINIT
N_MAP_KEY_WORD
      2811**DCL      2889--DCLINIT
N_NODEBUG_KEY_WORD
      2814**DCL      2892--DCLINIT
N_OVERWRITE_KEY_WORD
      2824**DCL      2908--DCLINIT
N_REF_KEY_WORD
      2816**DCL      2897--DCLINIT
N_SDEF_KEY_WORD
      2821**DCL      2903--DCLINIT
N_SEARCH_KEY_WORD
      2982**DCL      2984--DCLINIT
N_SEVERITY_KEY_WORD
      2813**DCL      2891--DCLINIT
N_SREF_KEY_WORD
      2822**DCL      2904--DCLINIT
PL6.E3A0      #001=VY_DATA_D File=VY_DATA_D.:E05TSI                              WED 07/30/97 09:06 Page:115
VY$NODE.ADDR_START_A
      1869**DCL      1870--REDEF
VY$NODE.ADDR_STOP_A
      1874**DCL      1875--REDEF
VY$NODE.L_PREV_SIZE
      1927**DCL      1938--REDEF
VY$NODE.L_SC_START
      1946**DCL      1951--REDEF
VY$NODE.L_SC_STOP
      1952**DCL      1957--REDEF
VY$NODE.L_SIZE
      1915**DCL      1926--REDEF
VY$NODE.L_START
      1891**DCL      1902--REDEF
VY$NODE.L_STOP
      1903**DCL      1914--REDEF
VY$NODE.PROMOTE_HEAD
      1958**DCL      1961--REDEF
VY$NODE.PROMOTE_TAIL
      1962**DCL      1965--REDEF
VY$NODE.START_PAGE#_A
      1879**DCL      1880--REDEF
VY$NODE.STOP_PAGE#_A
      1884**DCL      1885--REDEF
VY$SC
      1751**DCL      3258--DCLINIT
VY$TMPLT.A
      1817**DCL      1818--REDEF    1819--REDEF
VYR$SAT
      1718**DCL      3255--DCLINIT  3256--DCLINIT  3257--DCLINIT
VYR$SAT.VALUE
      1719**DCL      1720--REDEF
VYR$TMPLT.ER
      1683**DCL      1689--REDEF    1694--REDEF    1699--REDEF
VY_BIAS.A
      2309**DCL      2310--REDEF
PL6.E3A0      #001=VY_DATA_D File=VY_DATA_D.:E05TSI                              WED 07/30/97 09:06 Page:116
VY_CBUF
      2253**DCL      3460--DCLINIT  3461--DCLINIT
VY_CBUF.CHARS_A
      2254**DCL      2255--REDEF
VY_EBUF.CHARS_A
      3003**DCL      3004--REDEF
VY_EFIELD1.CHARS
      3007**DCL      3008--REDEF
VY_EFIELD2.CHARS
      3011**DCL      3012--REDEF
VY_EFIELD3.CHARS
      3015**DCL      3016--REDEF
VY_ERRORS
      2286**DCL      2297--REDEF
VY_ERRORS.CONFLICT_A
      2292**DCL      2293--REDEF
VY_ERRORS.UNSAT_A
      2288**DCL      2289--REDEF
VY_FPT_WRITE.STATION_
      3461**DCL      3461--REDEF
VY_FPT_WRITE.V
      3462**DCL      3459--DCLINIT
VY_FPT_WRITE.V.DVBYTE.VFC#
      3468**DCL      3468--REDEF
VY_MAP_HDR.CHARS
      3435**DCL      3436--REDEF    3437--REDEF
VY_MAP_LIT_LO_FPT_WRITE.STATION_
      3532**DCL      3532--REDEF
VY_MAP_LIT_LO_FPT_WRITE.V
      3533**DCL      3530--DCLINIT
VY_MAP_LIT_LO_FPT_WRITE.V.DVBYTE.VFC#
      3539**DCL      3539--REDEF
VY_MAP_LO_FPT_WRITE.STATION_
      3496**DCL      3496--REDEF
VY_MAP_LO_FPT_WRITE.V
      3497**DCL      3494--DCLINIT
PL6.E3A0      #001=VY_DATA_D File=VY_DATA_D.:E05TSI                              WED 07/30/97 09:06 Page:117
VY_MAP_LO_FPT_WRITE.V.DVBYTE.VFC#
      3503**DCL      3503--REDEF
VY_MBUF
      3428**DCL      3495--DCLINIT  3496--DCLINIT  3531--DCLINIT  3532--DCLINIT
VY_MBUF.CHARS
      3429**DCL      3430--REDEF    3431--REDEF
VY_O.DUPL_ATTCH
      2468**DCL      2472--REDEF
VY_O.MAP_ATTCH
      2456**DCL      2467--REDEF
VY_O.PRIMARY_OPTION
      2450**DCL      2455--REDEF
VY_O.SEV_ATTCH
      2473**DCL      2475--REDEF
VY_OD.DUPL_ATTCH
      2760**DCL      2764--REDEF
VY_OD.MAP_ATTCH
      2748**DCL      2759--REDEF
VY_OD.PRIMARY_OPTION
      2742**DCL      2747--REDEF
VY_OD.SEV_ATTCH
      2765**DCL      2767--REDEF
VY_OL.MAX_A
      2949**DCL      2959--REDEF
VY_OL.MIN_A
      2934**DCL      2935--REDEF
VY_ON.DUPL_ATTCH
      2906**DCL      2910--REDEF
VY_ON.MAP_ATTCH
      2894**DCL      2905--REDEF
VY_ON.PRIMARY_OPTION
      2888**DCL      2893--REDEF
VY_ON.SEV_ATTCH
      2911**DCL      2913--REDEF
VY_OU_HEAD.REC_A
      2199**DCL      2202--REDEF
PL6.E3A0      #001=VY_DATA_D File=VY_DATA_D.:E05TSI                              WED 07/30/97 09:06 Page:118
VY_O_CONSTANT.DUPL_ATTCH
      2614**DCL      2618--REDEF
VY_O_CONSTANT.MAP_ATTCH
      2602**DCL      2613--REDEF
VY_O_CONSTANT.PRIMARY_OPTION
      2596**DCL      2601--REDEF
VY_O_CONSTANT.SEV_ATTCH
      2619**DCL      2621--REDEF
VY_PASS2_REF.OU.L_START
      3207**DCL      3212--REDEF
VY_PASS2_REF.OU.L_STOP
      3213**DCL      3218--REDEF
VY_PASS2_REF.OU.MAX
      3201**DCL      3206--REDEF
VY_PASS2_REF.OU.SIZE
      3219**DCL      3224--REDEF
VY_PASS2_REF.SAT.COUNT
      3246**DCL      3252--REDEF
VY_PASS2_REF.SAT.ENT_SIZE
      3253**DCL      3259--REDEF
VY_PASS2_REF.SAT.L_START
      3232**DCL      3238--REDEF
VY_PASS2_REF.SAT.L_STOP
      3239**DCL      3245--REDEF
VY_PASS2_REF.SAT.MAX
      3226**DCL      3231--REDEF
VY_PASS2_REF.UNSAT.L_START
      3267**DCL      3272--REDEF
VY_PASS2_REF.UNSAT.L_STOP
      3273**DCL      3278--REDEF
VY_PASS2_REF.UNSAT.L_WHERE
      3279**DCL      3284--REDEF
VY_PASS2_REF.UNSAT.MAX
      3261**DCL      3266--REDEF
VY_PASS2_REF.UNSAT.PAGE#
      3291**DCL      3296--REDEF
PL6.E3A0      #001=VY_DATA_D File=VY_DATA_D.:E05TSI                              WED 07/30/97 09:06 Page:119
VY_PASS2_REF.UNSAT.SIZE
      3285**DCL      3290--REDEF
VY_PHRASE.PHRASE
      2974**DCL      2976--REDEF
VY_PROGRAM_BIAS.A
      2302**DCL      2303--REDEF
VY_RU_HEAD.DATA_SEGMENT
      2092**DCL      2093--REDEF
VY_RU_HEAD.L
      2062**DCL      2067--REDEF
VY_RU_HEAD.MAP_BITS
      2070**DCL      2086--REDEF
VY_RU_HEAD.PBIT
      2041**DCL      2042--REDEF
VY_RU_HEAD_BUF.DATA_SEGMENT
      2160**DCL      2161--REDEF
VY_RU_HEAD_BUF.L
      2130**DCL      2135--REDEF
VY_RU_HEAD_BUF.MAP_BITS
      2138**DCL      2154--REDEF
VY_RU_HEAD_BUF.PBIT
      2109**DCL      2110--REDEF
VY_SI_KEY_BUF.KEY
      3388**DCL      3389--REDEF
VY_SPC.B$.MINE
      3351**DCL      3356--REDEF
VY_SPC.B$.NAME
      3333**DCL      3338--REDEF
VY_SPC.B$.SKIP
      3345**DCL      3350--REDEF
VY_SPC.B$.STRING.JIT
      3358**DCL      3334--DCLINIT
VY_SPC.B$.STRING.ROS
      3364**DCL      3337--DCLINIT
VY_SPC.B$.STRING.TCB
      3361**DCL      3336--DCLINIT
PL6.E3A0      #001=VY_DATA_D File=VY_DATA_D.:E05TSI                              WED 07/30/97 09:06 Page:120
VY_SPC.B$.VALUE
      3339**DCL      3344--REDEF
VY_SPC.SEG.NAME
      3302**DCL      3308--REDEF
VY_SPC.SEG.STRING.IS
      3320**DCL      3304--DCLINIT
VY_SPC.SEG.STRING.JIT
      3317**DCL      3303--DCLINIT
VY_SPC.SEG.STRING.NUL
      3329**DCL      3307--DCLINIT
VY_SPC.SEG.STRING.ROS
      3326**DCL      3306--DCLINIT
VY_SPC.SEG.STRING.TCB
      3323**DCL      3305--DCLINIT
VY_SPC.SEG.VALUE
      3309**DCL      3315--REDEF
VY_TSX0_OVERLAY.H
      3088**DCL      3091--REDEF
