VERSION E05

PL6.E3A0      #001=VY_DCB_D File=VY_DCB_D.:E05TSI                                WED 07/30/97 09:06 Page:1
        1        1        /*T***********************************************************/
        2        2        /*T*                                                         */
        3        3        /*T* Copyright (c) Bull HN Information Systems Inc., 1997    */
        4        4        /*T*                                                         */
        5        5        /*T***********************************************************/
        6        6        /*X* DMR,PLM=5,IND=5,CSU=3,EXM=0,ECU=3,MOC,DCI=5,CRT=5          */
        7        7        VY_DCB_D:
        8        8             PROC;
        9        9        /* ! ! */                               /* Disable output to _R file */
       10       10              %INCLUDE VY_INC_NO_C;
       11     1666    1   DCL M$SI                       DCB;
       12     1667    1   DCL M$DO                       DCB;
       13     1668    1   DCL M$LO                       DCB;
       14     1669        %M$DCB(
       15     1670              DCBN=M$OF,
       16     1671              CTG=NO,
       17     1672              ASN=FILE,
       18     1673              ORG=KEYED,
       19     1674              ACS=DIRECT,
       20     1675              FUN=IN,
       21     1676              DISP=NAMED);
       22     1750        %M$DCB(
       23     1751              DCBN=M$RF,
       24     1752              CTG=NO,
       25     1753              EXIST=NEWFILE,
       26     1754                   TYPE='R ',
       27     1755              ASN=FILE,
       28     1756              ORG=KEYED,
       29     1757              ACS=DIRECT,
       30     1758              FUN=UPDATE,
       31     1759              DISP=NAMED);
       32     1833        %M$DCB(
       33     1834              DCBN=M$LF,
       34     1835              CTG=NO,
       35     1836              ASN=FILE,
       36     1837              ORG=KEYED,
       37     1838              ACS=DIRECT,
PL6.E3A0      #001=VY_DCB_D File=VY_DCB_D.:E05TSI                                WED 07/30/97 09:06 Page:2
       38     1839              FUN=IN,
       39     1840              DISP=NAMED);
       40     1914        %M$DCB(
       41     1915              DCBN=M$EI,
       42     1916              CTG=NO,
       43     1917              ASN=FILE,
       44     1918              ORG=KEYED,
       45     1919              ACS=DIRECT,
       46     1920              FUN=IN,
       47     1921              DISP=NAMED);
       48     1995
       49     1996        /* ! R ! */                             /* Enable _R file */
       50     1997    1   DCL M$UC$                      PTR STATIC SYMDEF   INIT( ADDR( NIL) );
       51     1998    1   DCL M$SI$                      PTR STATIC SYMDEF   INIT( ADDR( NIL) );
       52     1999    1   DCL M$EI$                      PTR STATIC SYMDEF   INIT( ADDR( NIL) );
       53     2000    1   DCL M$DO$                      PTR STATIC SYMDEF   INIT( ADDR( NIL) );
       54     2001    1   DCL M$LO$                      PTR STATIC SYMDEF   INIT( ADDR( NIL) );
       55     2002    1   DCL M$OF$                      PTR STATIC SYMDEF   INIT( ADDR( NIL) );
       56     2003    1   DCL M$RF$                      PTR STATIC SYMDEF   INIT( ADDR( NIL) );
       57     2004    1   DCL M$LF$                      PTR STATIC SYMDEF   INIT( ADDR( NIL) );
       58     2005    1   END;

PL6.E3A0      #001=VY_DCB_D File=VY_DCB_D.:E05TSI                                WED 07/30/97 09:06 Page:3
--  Include file information  --

   CP_6.:E05TOU  cannot be made into a system file and is referenced.
   VY_MACRO_C.:E05TOU  is referenced.
   VY_PERR_C.:E05TOU  is referenced.
   VY_SUBS_C.:E05TOU  is referenced.
   VY_INC_NO_C.:E05TOU  is referenced.
   B$JIT_C.:E05TOU  was found in the system file and is never referenced.
   CP_6_C.:E05TOU  was found in the system file and is referenced.
      No diagnostics issued in procedure VY_DCB_D.

   No code generated for procedure VY_DCB_D .
   Procedure VY_DCB_D requires 4 words of local(AUTO) storage.

    No errors detected in file VY_DCB_D.:E05TSI    .

PL6.E3A0      #001=VY_DCB_D File=VY_DCB_D.:E05TSI                                WED 07/30/97 09:06 Page:4

 Object Unit name= VY_DCB_D                                   File name= VY_DCB_D.:E05TOU
 UTS= JUL 30 '97 09:06:49.76 WED                              Compiler= PL-6/E31         Sev=      00
 SharedLib= :SHARED_SYSTEM                                    Alt SharedLib=


    ****  Control sections  ****

 Sect   Type Bound  Init  Size OctSiz  Section name(segment info)
    0   DCB   even  none     0      0  M$UC
    1   DCB   even  none     0      0  M$SI
    2   DCB   even  none     0      0  M$DO
    3   DCB   even  none     0      0  M$LO
    4   DCB   even  none    98    142  M$OF
    5   DCB   even  none    98    142  M$RF
    6   DCB   even  none    98    142  M$LF
    7   DCB   even  none    98    142  M$EI
    8   Data  even  none     8     10  VY_DCB_D
    9   Proc  even  none     0      0  VY_DCB_D

    ****  Entry defs  ****

                              Check   Calling
                             calling  sequence
  Sect OctLoc Primary Altret sequence   type   Parms  Name
     9      0   yes            yes     ~proc       0  VY_DCB_D

  ****  Data defs  ****

 Sect OctLoc  Name                           Sect OctLoc  Name
    8      0  M$UC$                              8      1  M$SI$
    8      2  M$EI$                              8      3  M$DO$
    8      4  M$LO$                              8      5  M$OF$
    8      6  M$RF$                              8      7  M$LF$
PL6.E3A0      #001=VY_DCB_D File=VY_DCB_D.:E05TSI                                WED 07/30/97 09:06 Page:5

  ****  Data refs  ****

  Flags:  r = read only, s = secondary
Flgs Name                             Flgs Name                             Flgs Name
     M$UC                                  M$SI                                  M$DO
     M$LO                                  M$OF                                  M$RF
     M$LF                                  M$EI

  ****  Segment refs  ****

  Flags:  r = read only, s = secondary
Flgs Name                             Flgs Name                             Flgs Name
     NULLSID
PL6.E3A0      #001=VY_DCB_D File=VY_DCB_D.:E05TSI                                WED 07/30/97 09:06 Page:6

        1        1        /*T***********************************************************/
        2        2        /*T*                                                         */
        3        3        /*T* Copyright (c) Bull HN Information Systems Inc., 1997    */
        4        4        /*T*                                                         */
        5        5        /*T***********************************************************/
        6        6        /*X* DMR,PLM=5,IND=5,CSU=3,EXM=0,ECU=3,MOC,DCI=5,CRT=5          */
        7        7        VY_DCB_D:
        8        8             PROC;
        9        9        /* ! ! */                               /* Disable output to _R file */
       10       10              %INCLUDE VY_INC_NO_C;
       11     1666    1   DCL M$SI                       DCB;
       12     1667    1   DCL M$DO                       DCB;
       13     1668    1   DCL M$LO                       DCB;
       14     1669        %M$DCB(
       15     1670              DCBN=M$OF,
       16     1671              CTG=NO,
       17     1672              ASN=FILE,
       18     1673              ORG=KEYED,
       19     1674              ACS=DIRECT,
       20     1675              FUN=IN,
       21     1676              DISP=NAMED);
       22     1750        %M$DCB(
       23     1751              DCBN=M$RF,
       24     1752              CTG=NO,
       25     1753              EXIST=NEWFILE,
       26     1754                   TYPE='R ',
       27     1755              ASN=FILE,
       28     1756              ORG=KEYED,
       29     1757              ACS=DIRECT,
       30     1758              FUN=UPDATE,
       31     1759              DISP=NAMED);
       32     1833        %M$DCB(
       33     1834              DCBN=M$LF,
       34     1835              CTG=NO,
       35     1836              ASN=FILE,
       36     1837              ORG=KEYED,
       37     1838              ACS=DIRECT,
PL6.E3A0      #001=VY_DCB_D File=VY_DCB_D.:E05TSI                                WED 07/30/97 09:06 Page:7
       38     1839              FUN=IN,
       39     1840              DISP=NAMED);
       40     1914        %M$DCB(
       41     1915              DCBN=M$EI,
       42     1916              CTG=NO,
       43     1917              ASN=FILE,
       44     1918              ORG=KEYED,
       45     1919              ACS=DIRECT,
       46     1920              FUN=IN,
       47     1921              DISP=NAMED);
       48     1995
       49     1996        /* ! R ! */                             /* Enable _R file */
       50     1997    1   DCL M$UC$                      PTR STATIC SYMDEF   INIT( ADDR( NIL) );
       51     1998    1   DCL M$SI$                      PTR STATIC SYMDEF   INIT( ADDR( NIL) );
       52     1999    1   DCL M$EI$                      PTR STATIC SYMDEF   INIT( ADDR( NIL) );
       53     2000    1   DCL M$DO$                      PTR STATIC SYMDEF   INIT( ADDR( NIL) );
       54     2001    1   DCL M$LO$                      PTR STATIC SYMDEF   INIT( ADDR( NIL) );
       55     2002    1   DCL M$OF$                      PTR STATIC SYMDEF   INIT( ADDR( NIL) );
       56     2003    1   DCL M$RF$                      PTR STATIC SYMDEF   INIT( ADDR( NIL) );
       57     2004    1   DCL M$LF$                      PTR STATIC SYMDEF   INIT( ADDR( NIL) );
       58     2005    1   END;

PL6.E3A0      #001=VY_DCB_D File=VY_DCB_D.:E05TSI                                WED 07/30/97 09:06 Page:8
--  Include file information  --

   CP_6.:E05TOU  cannot be made into a system file and is referenced.
   VY_MACRO_C.:E05TOU  is referenced.
   VY_PERR_C.:E05TOU  is referenced.
   VY_SUBS_C.:E05TOU  is referenced.
   VY_INC_NO_C.:E05TOU  is referenced.
   B$JIT_C.:E05TOU  was found in the system file and is never referenced.
   CP_6_C.:E05TOU  was found in the system file and is referenced.
      No diagnostics issued in procedure VY_DCB_D.
PL6.E3A0      #001=VY_DCB_D File=VY_DCB_D.:E05TSI                                WED 07/30/97 09:06 Page:9

 **** Variables and constants ****

  ****  BASED and DCB variables  ****

  ****  Scalars and arrays  ****
OctLoc.c.b A Datatyp(siz) R M Lvl/name                 OctLoc.c.b A Datatyp(siz) R M Lvl/name

     0-0-0/d ASTR(3528)  r     1 M$EI                       0-0-0/d ASTR(3528)  r     1 M$LF
     0-0-0/d ASTR(3528)  r     1 M$OF                       0-0-0/d ASTR(3528)  r     1 M$RF


   No code generated for procedure VY_DCB_D .
   Procedure VY_DCB_D requires 4 words of local(AUTO) storage.

    No errors detected in file VY_DCB_D.:E05TSI    .
PL6.E3A0      #001=VY_DCB_D File=VY_DCB_D.:E05TSI                                WED 07/30/97 09:06 Page:10
          *** CROSS REFERENCE LISTING ***
**     DENOTES     IDENTIFIER DEFINITION
<<                 IDENTIFIER'S VALUE SET
>>                 IDENTIFIER'S VALUE USED
<>                 IDENTIFIER SET AND/OR USED
--                 IDENTIFIER REFERENCED
PL6.E3A0      #001=VY_DCB_D File=VY_DCB_D.:E05TSI                                WED 07/30/97 09:06 Page:11
          MINI XREF LISTING

M$EI.ACTPOS
      1963**DCL      1963--REDEF
M$EI.ARS#
      1922**DCL      1922--REDEF
M$EI.ATTR#
      1952**DCL      1952--REDEF    1954--REDEF
M$EI.BORROW
      1974**DCL      1974--REDEF    1974--REDEF    1974--REDEF
M$EI.DCBNAME.L
      1993**DCL      1993--IMP-SIZ
M$EI.EOMCHAR#
      1929**DCL      1930--REDEF
M$EI.FLDID
      1966**DCL      1967--REDEF
M$EI.FORM$
      1958**DCL      1958--REDEF
M$EI.FSECT
      1981**DCL      1981--REDEF
M$EI.FSN#
      1948**DCL      1948--REDEF    1948--REDEF    1949--REDEF
M$EI.HEADER$
      1957**DCL      1958--REDEF
M$EI.IXTNSIZE#
      1954**DCL      1955--REDEF
M$EI.LASTSTA$
      1938**DCL      1938--REDEF
M$EI.LVL
      1975**DCL      1975--REDEF
M$EI.NAME#.C
      1938**DCL      1939--REDEF
M$EI.NOEOF
      1970**DCL      1970--REDEF
PL6.E3A0      #001=VY_DCB_D File=VY_DCB_D.:E05TSI                                WED 07/30/97 09:06 Page:12
M$EI.NRECS#
      1955**DCL      1955--REDEF
M$EI.NRECX
      1982**DCL      1982--REDEF
M$EI.OHDR
      1971**DCL      1971--REDEF
M$EI.ORG#
      1946**DCL      1947--REDEF
M$EI.PRECNO
      1979**DCL      1979--REDEF
M$EI.RCSZ
      1987**DCL      1987--REDEF
M$EI.RES#
      1940**DCL      1940--REDEF
M$EI.SETX
      1959**DCL      1959--REDEF
M$EI.TAB$
      1958**DCL      1958--REDEF
M$EI.TDA
      1978**DCL      1979--REDEF
M$EI.WSN#
      1940**DCL      1941--REDEF
M$LF.ACTPOS
      1882**DCL      1882--REDEF
M$LF.ARS#
      1841**DCL      1841--REDEF
M$LF.ATTR#
      1871**DCL      1871--REDEF    1873--REDEF
M$LF.BORROW
      1893**DCL      1893--REDEF    1893--REDEF    1893--REDEF
M$LF.DCBNAME.L
      1912**DCL      1912--IMP-SIZ
M$LF.EOMCHAR#
      1848**DCL      1849--REDEF
M$LF.FLDID
      1885**DCL      1886--REDEF
PL6.E3A0      #001=VY_DCB_D File=VY_DCB_D.:E05TSI                                WED 07/30/97 09:06 Page:13
M$LF.FORM$
      1877**DCL      1877--REDEF
M$LF.FSECT
      1900**DCL      1900--REDEF
M$LF.FSN#
      1867**DCL      1867--REDEF    1867--REDEF    1868--REDEF
M$LF.HEADER$
      1876**DCL      1877--REDEF
M$LF.IXTNSIZE#
      1873**DCL      1874--REDEF
M$LF.LASTSTA$
      1857**DCL      1857--REDEF
M$LF.LVL
      1894**DCL      1894--REDEF
M$LF.NAME#.C
      1857**DCL      1858--REDEF
M$LF.NOEOF
      1889**DCL      1889--REDEF
M$LF.NRECS#
      1874**DCL      1874--REDEF
M$LF.NRECX
      1901**DCL      1901--REDEF
M$LF.OHDR
      1890**DCL      1890--REDEF
M$LF.ORG#
      1865**DCL      1866--REDEF
M$LF.PRECNO
      1898**DCL      1898--REDEF
M$LF.RCSZ
      1906**DCL      1906--REDEF
M$LF.RES#
      1859**DCL      1859--REDEF
M$LF.SETX
      1878**DCL      1878--REDEF
M$LF.TAB$
      1877**DCL      1877--REDEF
PL6.E3A0      #001=VY_DCB_D File=VY_DCB_D.:E05TSI                                WED 07/30/97 09:06 Page:14
M$LF.TDA
      1897**DCL      1898--REDEF
M$LF.WSN#
      1859**DCL      1860--REDEF
M$OF.ACTPOS
      1718**DCL      1718--REDEF
M$OF.ARS#
      1677**DCL      1677--REDEF
M$OF.ATTR#
      1707**DCL      1707--REDEF    1709--REDEF
M$OF.BORROW
      1729**DCL      1729--REDEF    1729--REDEF    1729--REDEF
M$OF.DCBNAME.L
      1748**DCL      1748--IMP-SIZ
M$OF.EOMCHAR#
      1684**DCL      1685--REDEF
M$OF.FLDID
      1721**DCL      1722--REDEF
M$OF.FORM$
      1713**DCL      1713--REDEF
M$OF.FSECT
      1736**DCL      1736--REDEF
M$OF.FSN#
      1703**DCL      1703--REDEF    1703--REDEF    1704--REDEF
M$OF.HEADER$
      1712**DCL      1713--REDEF
M$OF.IXTNSIZE#
      1709**DCL      1710--REDEF
M$OF.LASTSTA$
      1693**DCL      1693--REDEF
M$OF.LVL
      1730**DCL      1730--REDEF
M$OF.NAME#.C
      1693**DCL      1694--REDEF
M$OF.NOEOF
      1725**DCL      1725--REDEF
PL6.E3A0      #001=VY_DCB_D File=VY_DCB_D.:E05TSI                                WED 07/30/97 09:06 Page:15
M$OF.NRECS#
      1710**DCL      1710--REDEF
M$OF.NRECX
      1737**DCL      1737--REDEF
M$OF.OHDR
      1726**DCL      1726--REDEF
M$OF.ORG#
      1701**DCL      1702--REDEF
M$OF.PRECNO
      1734**DCL      1734--REDEF
M$OF.RCSZ
      1742**DCL      1742--REDEF
M$OF.RES#
      1695**DCL      1695--REDEF
M$OF.SETX
      1714**DCL      1714--REDEF
M$OF.TAB$
      1713**DCL      1713--REDEF
M$OF.TDA
      1733**DCL      1734--REDEF
M$OF.WSN#
      1695**DCL      1696--REDEF
M$RF.ACTPOS
      1801**DCL      1801--REDEF
M$RF.ARS#
      1760**DCL      1760--REDEF
M$RF.ATTR#
      1790**DCL      1790--REDEF    1792--REDEF
M$RF.BORROW
      1812**DCL      1812--REDEF    1812--REDEF    1812--REDEF
M$RF.DCBNAME.L
      1831**DCL      1831--IMP-SIZ
M$RF.EOMCHAR#
      1767**DCL      1768--REDEF
M$RF.FLDID
      1804**DCL      1805--REDEF
PL6.E3A0      #001=VY_DCB_D File=VY_DCB_D.:E05TSI                                WED 07/30/97 09:06 Page:16
M$RF.FORM$
      1796**DCL      1796--REDEF
M$RF.FSECT
      1819**DCL      1819--REDEF
M$RF.FSN#
      1786**DCL      1786--REDEF    1786--REDEF    1787--REDEF
M$RF.HEADER$
      1795**DCL      1796--REDEF
M$RF.IXTNSIZE#
      1792**DCL      1793--REDEF
M$RF.LASTSTA$
      1776**DCL      1776--REDEF
M$RF.LVL
      1813**DCL      1813--REDEF
M$RF.NAME#.C
      1776**DCL      1777--REDEF
M$RF.NOEOF
      1808**DCL      1808--REDEF
M$RF.NRECS#
      1793**DCL      1793--REDEF
M$RF.NRECX
      1820**DCL      1820--REDEF
M$RF.OHDR
      1809**DCL      1809--REDEF
M$RF.ORG#
      1784**DCL      1785--REDEF
M$RF.PRECNO
      1817**DCL      1817--REDEF
M$RF.RCSZ
      1825**DCL      1825--REDEF
M$RF.RES#
      1778**DCL      1778--REDEF
M$RF.SETX
      1797**DCL      1797--REDEF
M$RF.TAB$
      1796**DCL      1796--REDEF
PL6.E3A0      #001=VY_DCB_D File=VY_DCB_D.:E05TSI                                WED 07/30/97 09:06 Page:17
M$RF.TDA
      1816**DCL      1817--REDEF
M$RF.WSN#
      1778**DCL      1779--REDEF
