VERSION E05

PL6.E3A0      #001=VY_FIXED_D File=VY_FIXED_D.:E05TSI                            WED 07/30/97 09:07 Page:1
        1        1        /*T***********************************************************/
        2        2        /*T*                                                         */
        3        3        /*T* Copyright (c) Bull HN Information Systems Inc., 1997    */
        4        4        /*T*                                                         */
        5        5        /*T***********************************************************/
        6        6        /*X* DMR,PLM=5,IND=5,CSU=3,EXM=0,ECU=3,MOC,DCI=5,CRT=5          */
        7        7        VY_FIXED_D:
        8        8             PROC;
        9        9        /* ! ! */                               /* Do not output to _R file */
       10       10              %INCLUDE VY_INC_NO_C;
       11     1666              %INCLUDE VY_DATA_R;
       12     2074              %INCLUDE VY_SWITCH_C;
       13     2081        /* ! R ! */                             /* Enable output to _R file */
       14     2082              %INCLUDE XU_MACRO_C;
       15     5188        %EJECT;
PL6.E3A0      #001=VY_FIXED_D File=VY_FIXED_D.:E05TSI                            WED 07/30/97 09:07 Page:2
       16     5189    1   DCL VY_PRE_DCB_NAME$      PTR       ALIGNED   CONSTANT    SYMDEF  INIT(
       17     5190    1                                                 ADDR( VY_DCB_NAME ) );
       18     5191    1   DCL VY_PRE_DCB_START$     PTR       ALIGNED   CONSTANT    SYMDEF  INIT(
       19     5192    1                                                 ADDR( VY_DCB_ENTRIES ) );
       20     5193    1   DCL VY_PRE_DCB_STOP$      PTR       ALIGNED   CONSTANT    SYMDEF  INIT(
       21     5194    1                                                 ADDR( VY_DCB_ENTRIES.M$UC ) );
       22     5195    1   DCL VY_PRE_DCB_GOT(0:3)   BIT(1)    ALIGNED   STATIC    SYMDEF    INIT('0'B/*@NO_B*/
              5195            *0);
       23     5196        /* ! ! */                               /* Do not output to _R file */
       24     5197    1   DCL 1 VY_DCB_NAME CONSTANT SYMDEF,
       25     5198              %HTEXT(NAME="M$STAR",STRING="'M$*'",SIZE=3);
       26     5203              %HTEXT(NAME="M$DO",STRING="'M$DO'",SIZE=4);
       27     5208              %HTEXT(NAME="M$LM",STRING="'M$LM'",SIZE=4);
       28     5213              %HTEXT(NAME="M$UC",STRING="'M$UC'",SIZE=4,LAST=";");
       29     5218    1   DCL 1 VY_DCB_ENTRIES CONSTANT SYMDEF,
       30     5219              %MAK_DEF(
       31     5220                        NAME=M$STAR,
       32     5221                                       INIT1="0",
       33     5222                                       INIT2=0,
       34     5223                                       INIT3="0",
       35     5224                                       INIT4="0",
       36     5225                                       INIT5="@M$STAR_DCB_NUM",
       37     5226                                       INIT6="0");
       38     5235              %MAK_DEF(
       39     5236                        NAME=M$DO,
       40     5237                                       INIT1="0",
       41     5238                                       INIT2=0,
       42     5239                                       INIT3="2",
       43     5240                                       INIT4="0",
       44     5241                                       INIT5="@M$DO_DCB_NUM",
       45     5242                                       INIT6="0");
       46     5251              %MAK_DEF(
       47     5252                        NAME=M$LM,
       48     5253                                       INIT1="0",
       49     5254                                       INIT2=0,
       50     5255                                       INIT3="4",
       51     5256                                       INIT4="0",
PL6.E3A0      #001=VY_FIXED_D File=VY_FIXED_D.:E05TSI                            WED 07/30/97 09:07 Page:3
       52     5257                                       INIT5="@M$LM_DCB_NUM",
       53     5258                                       INIT6="0");
       54     5267              %MAK_DEF(
       55     5268                        NAME=M$UC,
       56     5269                                       INIT1="0",
       57     5270                                       INIT2=0,
       58     5271                                       INIT3="6",
       59     5272                                       INIT4="0",
       60     5273                                       INIT5="@M$UC_DCB_NUM",
       61     5274                                       INIT6="0",LAST=";");
       62     5283        %EJECT;
PL6.E3A0      #001=VY_FIXED_D File=VY_FIXED_D.:E05TSI                            WED 07/30/97 09:07 Page:4
       63     5284        /*
       64     5285              PARSE STUFF
       65     5286        */
       66     5287    1   DCL VY_N_START_SYMBOL UBIN(36) SYMREF;
       67     5288        %LIST;
       68     5289        %P_PCB( NAME=VY_P_PCB_MAIN, R=VY_N_START_SYMBOL, STCLASS="STATIC SYMDEF",
       69     5290                U$=VYP$PAR_U, USERPTR=VY_FPT_WRITE );
              5291        /*F*  NAME:     P_PCB
              5292              FUNCTION: Parse Control Block.  This structure is used to pass data
              5293                  to the X$PARSE utility, and to receive X$PARSE's responses.
              5294        */
              5295         %LSET LISTDIR='0'B;
              5308    1   DCL 1 VY_P_PCB_MAIN STATIC SYMDEF ALIGNED,
              5309    1         2 TEXT$ PTR INIT(ADDR(NIL))/**/,
              5313    1         2 ROOT$ PTR INIT(ADDR(VY_N_START_SYMBOL))/**/,
              5317    1         2 WORK$ PTR INIT(ADDR(NIL))/**/,
              5321    1         2 OUT$ PTR INIT(ADDR(NIL))/**/,
              5326    1         2 U$$ EPTR INIT(ENTADDR(VYP$PAR_U))/**/,
              5338    1         2 WKSZ UBIN(18) UNAL INIT(0)/**/,
              5343    1         2 CMPRS BIT(1) UNAL INIT('1'B)/**/,
              5349    1         2 CONTINUE BIT(1) UNAL INIT('1'B)/**/,
              5353    1         2 NOLEADBLANKS BIT(1) UNAL INIT('0'B)/**/,
              5358    1         2 NXT BIT(1) UNAL INIT('0'B)/**/,
              5375    1         2 DYNMEM BIT(1) UNAL INIT('0'B)/**/,
              5380    1         2 KEYWORDS BIT (1) INIT ('0'B) /**/,
              5395    1         2 BLANKONLY BIT (1),
              5403    1         2 NXT_SZONLY BIT(1) UNAL INIT('0'B)/**/,
              5411    1         2 * BIT (10) INIT ('0'B) /**/,
              5412    1         2 ERROR ALIGNED,
              5417    1           3 FCG BIT(12) UNAL INIT('0'B)/**/,
              5418    1           3 MID BIT(6) UNAL INIT('0'B)/**/,
              5419    1           3 MON BIT(1) UNAL INIT('0'B)/**/,
              5420    1           3 CODE UBIN(14) UNAL INIT(0)/**/,
              5421    1           3 SEV UBIN(3) UNAL INIT(0)/**/,
              5422    1         2 COMMENT ALIGNED,
              5426    1           3 LEAD CHAR(2) UNAL INIT(' "')/**/,
              5434    1           3 TRAIL CHAR(2) UNAL INIT(' "')/**/,
PL6.E3A0      #001=VY_FIXED_D File=VY_FIXED_D.:E05TSI                            WED 07/30/97 09:07 Page:5
              5441    1         2 WK_USED UBIN(18) UNAL INIT(0)/**/,
              5445    1         2 VERSION_CODE UBIN(4) UNAL INIT(1)/**/,
              5450    1         2 OUTDCB# UBIN(14) UNAL INIT(DCBNUM(NIL))/**/,
              5455    1         2 NCHARS UBIN WORD INIT(0)/**/,
              5459    1         2 HI_CHAR UBIN WORD INIT(0)/**/,
              5466    1         2 HINODE$ PTR INIT(ADDR(NIL))/**/,
              5475    1         2 USER$ PTR INIT(ADDR(VY_FPT_WRITE))/**/,
              5481    1         2 OUTENT$ EPTR INIT(ENTADDR(NIL))/**/;
       70     5489    1   DCL VYP$PAR_U ENTRY(1) ALTRET;
       71     5490        %FPT_WRITE( FPTN=VY_FPT_WRITE, STCLASS=SYMREF );
              5491        %LSET LISTDIR='0'B;
              5507    1   DCL 1 VY_FPT_WRITE SYMREF,2 V_ BIT(72)/*(VECTOR(VY_FPT_WRITE.V))/**/,2 KEY_ BIT(72)
              5507            /*(VECTOR(NIL))/**/,2 BUF_,3
              5508    1   BOUND UBIN(20)UNAL /*(SIZEV(NIL))/**/,3 * BIT(12)/*('7772'O)/**/,3 * BIT(4)/*('0'B)
              5509    1   /**/,3 BUF$ PTR /*(ADDR(NIL))/**/,2 STATION_ BIT(72)/*(VECTOR(NIL))/**/,2
              5510    1   IDBUF_ REDEF STATION_ BIT(72),2 V DALIGNED,3 DCB# UBIN(18)UNAL /*(DCBNUM(NIL))/**/,3
              5510            WAIT# BIT(1)/*('1'B
              5511    1   )/**/ ,3 * BIT(2)/*('0'B)/**/,3 ID# BIT(1)/*('0'B)/**/,3 * BIT(1)/*('0'B)
              5512    1   /**/,3 FULL# BIT(1)/*('0'B)/**/ ,3 * BIT(3)/*('0'B)/**/,3 ONEWKEY# BIT(1)/*('1'B)
              5513    1   /**/ ,3 NEWKEY# BIT(1)/*('0'B)/**/ ,3 REWRITE# BIT(1)/*('0'B)/**/ ,3 NOTIME# BIT(1)
              5513            /*
              5514    1   ('0'B)/**/ ,3 IOERROK# BIT(1)/*('0'B)/**/ ,3 KEYTYPE# UBIN(4)/*(0)/**/ UNAL,
              5515    1   3 EVENT# SBIN /*(0)/**/,3 SEED# BIT(36)/*('0'B)/**/,3 DVBYTE,4 TOP# BIT(1)/*('0'B)
              5516    1   /**/,4 BP# BIT(1)/*('0'B)/**/,4 VFC# BIT(1)/*('0'B)/**/,4 REREAD# REDEF VFC# BIT(1),
              5516            4 BIN# BIT(1
              5517    1   )/*('0'B)/**/,4 TRANS# BIT(1)/*('0'B)/**/,4 RRR# BIT(1)/*('0'B)/**/,4 NODAT# BIT(1
              5518    1   )/*('0'B)/**/,4 * BIT(1)/*('0'B)/**/,4 CONT# BIT(1)/*('0'B)/**/,3 * BIT(1)/*
              5519    1   ('0'B)/**/,3 ODFNC# UBIN(8)UNAL /*(0)/**/,3 * UBIN(18)UNAL /*(0)/**/;
       72     5521        %PLIST;
       73     5522        %EJECT;
PL6.E3A0      #001=VY_FIXED_D File=VY_FIXED_D.:E05TSI                            WED 07/30/97 09:07 Page:6
       74     5523        /*
       75     5524                   FPT'S
       76     5525        */
       77     5526    1   DCL M$OF             DCB;
       78     5527    1   DCL M$RF             DCB;
       79     5528    1   DCL M$LF             DCB;
       80     5529    1   DCL M$SI             DCB;
       81     5530    1   DCL M$LO             DCB;
       82     5531    1   DCL M$DO             DCB;
       83     5532    1   DCL M$EI             DCB;
       84     5533        /* ! R ! */                             /* Enable output to _R file */
       85     5534        %FPT_ERRMSG( FPTN=VY_FPT_ERRMSG,
       86     5535        /* ! ! */  CODE = VY_ERR_CODE,
       87     5536                   BUF = VY_EBUF,
       88     5537                   OUTDCB1 = M$DO,
       89     5538                   FIELD1  = VY_EFIELD1,
       90     5539                   FIELD2  = VY_EFIELD2,
       91     5540                   FIELD3  = VY_EFIELD3,
       92     5541                   RESULTS = VY_ERR_RESULTS,
       93     5542        /* ! R ! */
       94     5543                   STCLASS="STATIC SYMDEF");
       95     5570        /* ! R !%P$PCB( NAME=VY_P_PCB_MAIN, STCLASS="SYMREF"); */
       96     5571        /* ! ! */                               /* Disable output to _R file */
       97     5572        %VLR_ERRMSG( FPTN=VY_ERR_RESULTS, STCLASS="STATIC SYMDEF");
       98     5594        %LIST;
       99     5595        %EJECT;
PL6.E3A0      #001=VY_FIXED_D File=VY_FIXED_D.:E05TSI                            WED 07/30/97 09:07 Page:7
      100     5596        /* ! R !%FPT_WRITE( FPTN=VY_MAP_LO_FPT_WRITE, STCLASS=SYMREF );
      101     5597        %FPT_WRITE( FPTN=VY_MAP_LIT_LO_FPT_WRITE, STCLASS=SYMREF );
      102     5598        */
      103     5599        /* FOR MEMORY MANAGEMENT */
      104     5600        /* ! R ! */                             /* Enable output to _R file */
      105     5601              %VECTOR( NAME=VY_M_VECTOR
      106     5602        /* ! ! */      ,INT_U="INIT(0)",INT_B="INIT('0'B)"
      107     5603        /* ! R ! */    ,STCLASS="STATIC SYMDEF");
              5604        %LSET LISTDIR='0'B;

              5616    1   /*******************************************************************************
              5617    1   *                                                                              *
              5618    1   *                          TEMPLATE FOR 2-WORD NSA VECTOR                          *
              5619    1   *                                                                              *
              5620    1   *******************************************************************************/

              5625    1   DCL 1 VY_M_VECTOR STATIC SYMDEF ALIGNED,
              5626    1         2 VSIZE UBIN(20) UNAL INIT(0),      /* Size field of vector               */
              5627    1         2 FLAGS BIT(9) UNAL INIT('0'B),       /* FLAGS...                           */
              5628    1         2 V BIT(2) UNAL INIT('0'B),           /* Vector type field                  */
              5629    1         2 Z5 BIT(5) UNAL INIT('0'B),          /* Unused                             */
              5630    1         2 F,
              5631    1           3 BASE UBIN(20) UNAL INIT(0),     /* Base for vector                    */
              5632    1           3 Z4 BIT(4) UNAL INIT('0'B),        /* Unused                             */
              5633    1           3 SEGID UBIN(12) UNAL INIT(0),    /* Segid                              */
              5634    1         2 P       REDEF     F,            /* To extract the pointer             */
              5635    1           3 POINTER          PTR UNAL;
      108     5638        %PLIST;
      109     5639              %VECTOR( NAME=VY_M_VECTOR_DP
      110     5640        /* ! ! */      ,INT_U="INIT(0)",INT_B="INIT('0'B)"
      111     5641        /* ! R ! */    ,STCLASS="STATIC SYMDEF");

              5654    1   /*******************************************************************************
              5655    1   *                                                                              *
              5656    1   *                          TEMPLATE FOR 2-WORD NSA VECTOR                          *
              5657    1   *                                                                              *
              5658    1   *******************************************************************************/
PL6.E3A0      #001=VY_FIXED_D File=VY_FIXED_D.:E05TSI                            WED 07/30/97 09:07 Page:8

              5663    1   DCL 1 VY_M_VECTOR_DP STATIC SYMDEF ALIGNED,
              5664    1         2 VSIZE UBIN(20) UNAL INIT(0),      /* Size field of vector               */
              5665    1         2 FLAGS BIT(9) UNAL INIT('0'B),       /* FLAGS...                           */
              5666    1         2 V BIT(2) UNAL INIT('0'B),           /* Vector type field                  */
              5667    1         2 Z5 BIT(5) UNAL INIT('0'B),          /* Unused                             */
              5668    1         2 F,
              5669    1           3 BASE UBIN(20) UNAL INIT(0),     /* Base for vector                    */
              5670    1           3 Z4 BIT(4) UNAL INIT('0'B),        /* Unused                             */
              5671    1           3 SEGID UBIN(12) UNAL INIT(0),    /* Segid                              */
              5672    1         2 P       REDEF     F,            /* To extract the pointer             */
              5673    1           3 POINTER          PTR UNAL;
      112     5676        %EJECT;
PL6.E3A0      #001=VY_FIXED_D File=VY_FIXED_D.:E05TSI                            WED 07/30/97 09:07 Page:9
      113     5677        /*
      114     5678              KEY BUFFERS
      115     5679        */
      116     5680        %LIST;
      117     5681        %O_KEY_BUF(KEYBUF=VY_O_KEY_BUF
      118     5682        /* ! ! */,INT="INIT(0)"
      119     5683        /* ! R ! */   ,STCLASS="STATIC SYMDEF");
              5684    1   DCL 1 VY_O_KEY_BUF ALIGNED STATIC SYMDEF ,
              5685    1          2 FORM0 ,
              5686    1           3 COUNT       UBIN( 9)  UNAL INIT(0),
              5687    1           3 CHARS       CHAR(512) UNAL,
              5688    1         2 FORM1        REDEF     FORM0,
              5689    1           3 COUNT       UBIN( 9)  UNAL,
              5690    1           3 O777        UBIN( 9)  UNAL,   /* <- '777'O                          */
              5691    1           3 UTS         UBIN(36)  UNAL,
              5692    1           3 REC_TYPE    UBIN( 9)  UNAL,
              5693    1           3 PAGE#       UBIN( 9)  UNAL,
              5694    1           3 *           CHAR(505),
              5695    1         2 FORM2        REDEF     FORM0,
              5696    1           3 COUNT       UBIN( 9)  UNAL,
              5697    1           3 O777        UBIN( 9)  UNAL,   /* <- '777'O                          */
              5698    1           3 UTS         UBIN(36)  UNAL,
              5699    1           3 D10         UBIN( 9)  UNAL,   /* <- 10                              */
              5700    1           3 SECT#       UBIN(18)  UNAL,
              5701    1           3 OFFSET      UBIN(18)  UNAL,
              5702    1           3 STYPE       UBIN( 9)  UNAL,
              5703    1           3 SEQUENCE    UBIN( 9)  UNAL,
              5704    1           3 *           CHAR(500) ;
      120     5706        %PLIST;
      121     5707        %O_KEY_BUF(KEYBUF=VY_OL_KEY_BUF
      122     5708        /* ! ! */,INT="INIT(0)"
      123     5709        /* ! R ! */   ,STCLASS="STATIC SYMDEF");
      124     5732        %O_KEY_BUF(KEYBUF=VY_O_KEY_BUF_L
      125     5733        /* ! ! */,INT="INIT(0)"
      126     5734        /* ! R ! */   ,STCLASS="STATIC SYMDEF");
      127     5757        %LIST;
      128     5758        %R_KEY_BUF(KEYBUF=VY_R_KEY_BUF
PL6.E3A0      #001=VY_FIXED_D File=VY_FIXED_D.:E05TSI                            WED 07/30/97 09:07 Page:10
      129     5759        /* ! ! */   , INT="INIT(0)"
      130     5760        /* ! R ! */   ,STCLASS="STATIC SYMDEF");
              5761    1   DCL 1 VY_R_KEY_BUF                        STATIC SYMDEF,
              5762    1         2 FORM0                  ALIGNED,
              5763    1           3 COUNT       UBIN( 9)  UNAL INIT(0),
              5764    1           3 CHARS       CHAR( 4)  UNAL,
              5765    1           3 *           CHAR( 7)  UNAL,
              5766    1         2 FORM1        REDEF     FORM0,
              5767    1           3 COUNT       UBIN( 9)  UNAL,
              5768    1           3 REC_TYPE    UBIN( 9)  UNAL,
              5769    1           3 NODE#       UBIN(18)  UNAL,
              5770    1           3 OFFSET      UBIN(18)  UNAL,
              5771    1           3 *           CHAR( 6)  UNAL,
              5772    1         2 FORM2        REDEF     FORM0,
              5773    1           3 COUNT       UBIN( 9)  UNAL,
              5774    1           3 O777        UBIN( 9)  UNAL,   /* <- '777'O                          */
              5775    1           3 NODE#       UBIN(18)  UNAL,
              5776    1           3 P_ENTDEF    UBIN(18)  UNAL,
              5777    1           3 REC_TYPE    UBIN( 9)  UNAL,
              5778    1           3 PAGE#       UBIN( 9)  UNAL,
              5779    1           3 *           CHAR( 4)  UNAL;
      131     5781        %KEY_VARS(KEYVARS=VY_OK,
      132     5782        /* ! ! */ INT="INIT(0)", INT1="INIT(-1)",
      133     5783              INT_C="INIT(' ')",
      134     5784        /* ! R ! */    STCLASS="STATIC SYMDEF");
              5785    1   DCL 1 VY_OK                  STATIC SYMDEF,
              5786    1         2 KFILE                  UBIN(36) ALIGNED INIT(0),
              5787    1         2 KTYPE                  SBIN WORD ALIGNED INIT(-1),
              5788    1         2 KRTYPE                 UBIN(36) ALIGNED INIT(0),
              5789    1         2 KPAGE#                 SBIN WORD ALIGNED INIT(-1),
              5790    1         2 KOFSET                 UBIN(36) ALIGNED INIT(0),
              5791    1         2 KSTYPE                 UBIN(36) ALIGNED INIT(0),
              5792    1         2 KSEQUENCE              SBIN WORD ALIGNED INIT(-1),
              5793    1         2 KSECT#                 UBIN(36) ALIGNED INIT(0),
              5794    1         2 KNODE#                 UBIN(36) ALIGNED INIT(0),
              5795    1         2 KPEDX                  UBIN(36) ALIGNED INIT(0),
              5796    1         2 KATYPE                 SBIN WORD ALIGNED INIT(-1),
PL6.E3A0      #001=VY_FIXED_D File=VY_FIXED_D.:E05TSI                            WED 07/30/97 09:07 Page:11
              5797    1         2 OUNAME,
              5798    1           3 COUNT                UBIN(9) UNAL INIT(0),
              5799    1           3 CHARS                CHAR(511) UNAL INIT(' '),
              5800    1         2 FILE                   ALIGNED,
              5801    1           3 OFNAME                ALIGNED,
              5802    1             4 COUNT                UBIN(9)   UNAL INIT(0),
              5803    1             4 CHARS                CHAR(40)  UNAL INIT(' '),
              5804    1           3 RFNAME                ALIGNED,
              5805    1             4 COUNT                UBIN(9)   UNAL INIT(0),
              5806    1             4 CHARS                CHAR(40)  UNAL INIT(' ');
      135     5808        %EJECT;
PL6.E3A0      #001=VY_FIXED_D File=VY_FIXED_D.:E05TSI                            WED 07/30/97 09:07 Page:12
      136     5809        /*
      137     5810              IMAGE FORMATION VARIABLES
      138     5811        */
      139     5812        %LIST;
      140     5813        /* ! R ! */                             /* Enable output to _R file */
      141     5814        %IMAGE_BUFFERS(
      142     5815              NAME=VY_IMAGE_DATA,
      143     5816        /* ! ! */ INT_PTR="INIT(ADDR(NIL)*0)",
      144     5817              INT_UBIN="INIT(0*0)",
      145     5818              INT_SBIN="INIT(-1*0)",
      146     5819        /* ! R ! */   STCLASS="STATIC SYMDEF");
              5820    1   DCL 1 VY_IMAGE_DATA           ALIGNED        STATIC SYMDEF,
              5821    1         2 CPAGE#_A(0:1) SBIN WORD ALIGNED INIT(-1*0), /* Current page # in buffer # */
              5822    1         2 CPAGE# REDEF CPAGE#_A,
              5823    1           3 BUF0                  SBIN WORD ALIGNED,
              5824    1           3 BUF1                  SBIN WORD ALIGNED,
              5825    1         2 START_A$(0:1) PTR ALIGNED INIT(ADDR(NIL)*0),
              5825                  /* Pointer to start of buffer #    */
              5826    1         2 START$ REDEF START_A$,
              5827    1           3 BUF0$                 PTR       ALIGNED,
              5828    1           3 BUF1$                 PTR       ALIGNED,
              5829    1         2 STOP_A$(0:1)           PTR       ALIGNED INIT(ADDR(NIL)*0),
              5830    1         2 STOP$  REDEF STOP_A$,           /* Pointer to end of buffer #         */
              5831    1           3 BUF0$                 PTR       ALIGNED,
              5832    1           3 BUF1$                 PTR       ALIGNED,
              5833    1         2 NODE_A$(0:1) PTR ALIGNED INIT(ADDR(NIL)*0),
              5833                  /* Pointer to node  of buffer #     */
              5834    1         2 NODE$  REDEF NODE_A$,
              5835    1           3 BUF0$                 PTR       ALIGNED,
              5836    1           3 BUF1$                 PTR       ALIGNED,
              5837    1         2 BEGIN$                 PTR       ALIGNED,
              5838    1         2 END$                   PTR       ALIGNED,
              5839    1         2 SPAGE#                 UBIN(36)  ALIGNED INIT(0*0),
              5840    1         2 EPAGE#                 UBIN(36)  ALIGNED INIT(0*0);
      147     5842        %PLIST;
      148     5843        %IMAGE_BUFFERS(
      149     5844              NAME=VY_IMAGE_PROC,
PL6.E3A0      #001=VY_FIXED_D File=VY_FIXED_D.:E05TSI                            WED 07/30/97 09:07 Page:13
      150     5845        /* ! ! */  INT_PTR="INIT(ADDR(NIL)*0)",
      151     5846              INT_UBIN="INIT(0*0)",
      152     5847              INT_SBIN="INIT(-1*0)",
      153     5848        /* ! R ! */   STCLASS="STATIC SYMDEF");
      154     5871        %IMAGE_BUFFERS(
      155     5872              NAME=VY_IMAGE_ROS,
      156     5873        /* ! ! */  INT_PTR="INIT(ADDR(NIL)*0)",
      157     5874              INT_UBIN="INIT(0*0)",
      158     5875              INT_SBIN="INIT(-1*0)",
      159     5876        /* ! R ! */    STCLASS="STATIC SYMDEF");
      160     5899    1   DCL VY_IMAGE_PTR$(0:2/*@ROS*/)     PTR  ALIGNED   STATIC    SYMDEF
      161     5900    1              INIT( ADDR(VY_IMAGE_DATA), ADDR(VY_IMAGE_PROC), ADDR(VY_IMAGE_ROS) );
      162     5901        /* ! R !
      163     5902        DCL B$JIT$        PTR ALIGNED SYMREF;
      164     5903        DCL B$TCB$        PTR ALIGNED SYMREF;
      165     5904        DCL B$ROS$        PTR ALIGNED SYMREF;
      166     5905        */
      167     5906    1   END;

PL6.E3A0      #001=VY_FIXED_D File=VY_FIXED_D.:E05TSI                            WED 07/30/97 09:07 Page:14
--  Include file information  --

   XU_MACRO_C.:E05TOU  is referenced.
   VY_SWITCH_C.:E05TOU  is referenced.
   VY_DATA_R.:E05TOU  cannot be made into a system file and is referenced.
   CP_6.:E05TOU  cannot be made into a system file and is referenced.
   VY_MACRO_C.:E05TOU  is referenced.
   VY_PERR_C.:E05TOU  is referenced.
   VY_SUBS_C.:E05TOU  is referenced.
   VY_INC_NO_C.:E05TOU  is referenced.
   B$JIT_C.:E05TOU  was found in the system file and is never referenced.
   CP_6_C.:E05TOU  was found in the system file and is referenced.
      No diagnostics issued in procedure VY_FIXED_D.

   No code generated for procedure VY_FIXED_D .
   Procedure VY_FIXED_D requires 4 words of local(AUTO) storage.

    No errors detected in file VY_FIXED_D.:E05TSI    .

PL6.E3A0      #001=VY_FIXED_D File=VY_FIXED_D.:E05TSI                            WED 07/30/97 09:07 Page:15

 Object Unit name= VY_FIXED_D                                 File name= VY_FIXED_D.:E05TOU
 UTS= JUL 30 '97 09:07:38.76 WED                              Compiler= PL-6/E31         Sev=      00
 SharedLib= :SHARED_SYSTEM                                    Alt SharedLib=


    ****  Control sections  ****

 Sect   Type Bound  Init  Size OctSiz  Section name(segment info)
    0   DCB   even  none     0      0  M$UC
    1  RoData even  UTS     23     27  VY_FIXED_D
    2   Data  even  none   642   1202  VY_FIXED_D
    3   DCB   even  none     0      0  M$OF
    4   DCB   even  none     0      0  M$RF
    5   DCB   even  none     0      0  M$LF
    6   DCB   even  none     0      0  M$SI
    7   DCB   even  none     0      0  M$LO
    8   DCB   even  none     0      0  M$DO
    9   DCB   even  none     0      0  M$EI
   10   Proc  even  none     0      0  VY_FIXED_D

    ****  Entry defs  ****

                              Check   Calling
                             calling  sequence
  Sect OctLoc Primary Altret sequence   type   Parms  Name
    10      0   yes            yes     ~proc       0  VY_FIXED_D
PL6.E3A0      #001=VY_FIXED_D File=VY_FIXED_D.:E05TSI                            WED 07/30/97 09:07 Page:16

  ****  Data defs  ****

 Sect OctLoc  Name                           Sect OctLoc  Name
    1      0  VY_PRE_DCB_NAME$                   1      1  VY_PRE_DCB_START$
    1      2  VY_PRE_DCB_STOP$                   2      0  VY_PRE_DCB_GOT
    1      3  VY_DCB_NAME                        1     13  VY_DCB_ENTRIES
    2      4  VY_P_PCB_MAIN                      2     22  VY_FPT_ERRMSG
    2     54  VY_ERR_RESULTS                     2     60  VY_M_VECTOR
    2     62  VY_M_VECTOR_DP                     2     64  VY_O_KEY_BUF
    2    265  VY_OL_KEY_BUF                      2    466  VY_O_KEY_BUF_L
    2    667  VY_R_KEY_BUF                       2    672  VY_OK
    2   1133  VY_IMAGE_DATA                      2   1147  VY_IMAGE_PROC
    2   1163  VY_IMAGE_ROS                       2   1177  VY_IMAGE_PTR$

  ****  Entry refs  ****

         Check        Calling
        calling       sequence
Altret sequence SRef   type   Args  Name
 yes     yes           Std       1 VYP$PAR_U

  ****  Data refs  ****

  Flags:  r = read only, s = secondary
Flgs Name                             Flgs Name                             Flgs Name
     M$UC                                  VY_ERRORS                             VY_ERR_CODE
     VY_EBUF                               VY_EFIELD1                            VY_EFIELD2
     VY_EFIELD3                            VY_PAR_UNWIND                         VY_N_START_SYMBOL
     VY_FPT_WRITE                          M$OF                                  M$RF
     M$LF                                  M$SI                                  M$LO
     M$DO                                  M$EI
PL6.E3A0      #001=VY_FIXED_D File=VY_FIXED_D.:E05TSI                            WED 07/30/97 09:07 Page:17

  ****  Segment refs  ****

  Flags:  r = read only, s = secondary
Flgs Name                             Flgs Name                             Flgs Name
     ISSID                                 NULLSID
PL6.E3A0      #001=VY_FIXED_D File=VY_FIXED_D.:E05TSI                            WED 07/30/97 09:07 Page:18

        1        1        /*T***********************************************************/
        2        2        /*T*                                                         */
        3        3        /*T* Copyright (c) Bull HN Information Systems Inc., 1997    */
        4        4        /*T*                                                         */
        5        5        /*T***********************************************************/
        6        6        /*X* DMR,PLM=5,IND=5,CSU=3,EXM=0,ECU=3,MOC,DCI=5,CRT=5          */
        7        7        VY_FIXED_D:
        8        8             PROC;
        9        9        /* ! ! */                               /* Do not output to _R file */
       10       10              %INCLUDE VY_INC_NO_C;
       11     1666              %INCLUDE VY_DATA_R;
       12     2074              %INCLUDE VY_SWITCH_C;
       13     2081        /* ! R ! */                             /* Enable output to _R file */
       14     2082              %INCLUDE XU_MACRO_C;
       15     5188        %EJECT;
PL6.E3A0      #001=VY_FIXED_D File=VY_FIXED_D.:E05TSI                            WED 07/30/97 09:07 Page:19
       16     5189    1   DCL VY_PRE_DCB_NAME$      PTR       ALIGNED   CONSTANT    SYMDEF  INIT(
       17     5190    1                                                 ADDR( VY_DCB_NAME ) );
       18     5191    1   DCL VY_PRE_DCB_START$     PTR       ALIGNED   CONSTANT    SYMDEF  INIT(
       19     5192    1                                                 ADDR( VY_DCB_ENTRIES ) );
       20     5193    1   DCL VY_PRE_DCB_STOP$      PTR       ALIGNED   CONSTANT    SYMDEF  INIT(
       21     5194    1                                                 ADDR( VY_DCB_ENTRIES.M$UC ) );
       22     5195    1   DCL VY_PRE_DCB_GOT(0:3)   BIT(1)    ALIGNED   STATIC    SYMDEF   INIT('0'B/*@NO_B*/
              5195            *0);
       23     5196        /* ! ! */                               /* Do not output to _R file */
       24     5197    1   DCL 1 VY_DCB_NAME CONSTANT SYMDEF,
       25     5198              %HTEXT(NAME="M$STAR",STRING="'M$*'",SIZE=3);
       26     5203              %HTEXT(NAME="M$DO",STRING="'M$DO'",SIZE=4);
       27     5208              %HTEXT(NAME="M$LM",STRING="'M$LM'",SIZE=4);
       28     5213              %HTEXT(NAME="M$UC",STRING="'M$UC'",SIZE=4,LAST=";");
       29     5218    1   DCL 1 VY_DCB_ENTRIES CONSTANT SYMDEF,
       30     5219              %MAK_DEF(
       31     5220                        NAME=M$STAR,
       32     5221                                       INIT1="0",
       33     5222                                       INIT2=0,
       34     5223                                       INIT3="0",
       35     5224                                       INIT4="0",
       36     5225                                       INIT5="@M$STAR_DCB_NUM",
       37     5226                                       INIT6="0");
       38     5235              %MAK_DEF(
       39     5236                        NAME=M$DO,
       40     5237                                       INIT1="0",
       41     5238                                       INIT2=0,
       42     5239                                       INIT3="2",
       43     5240                                       INIT4="0",
       44     5241                                       INIT5="@M$DO_DCB_NUM",
       45     5242                                       INIT6="0");
       46     5251              %MAK_DEF(
       47     5252                        NAME=M$LM,
       48     5253                                       INIT1="0",
       49     5254                                       INIT2=0,
       50     5255                                       INIT3="4",
       51     5256                                       INIT4="0",
PL6.E3A0      #001=VY_FIXED_D File=VY_FIXED_D.:E05TSI                            WED 07/30/97 09:07 Page:20
       52     5257                                       INIT5="@M$LM_DCB_NUM",
       53     5258                                       INIT6="0");
       54     5267              %MAK_DEF(
       55     5268                        NAME=M$UC,
       56     5269                                       INIT1="0",
       57     5270                                       INIT2=0,
       58     5271                                       INIT3="6",
       59     5272                                       INIT4="0",
       60     5273                                       INIT5="@M$UC_DCB_NUM",
       61     5274                                       INIT6="0",LAST=";");
       62     5283        %EJECT;
PL6.E3A0      #001=VY_FIXED_D File=VY_FIXED_D.:E05TSI                            WED 07/30/97 09:07 Page:21
       63     5284        /*
       64     5285              PARSE STUFF
       65     5286        */
       66     5287    1   DCL VY_N_START_SYMBOL UBIN(36) SYMREF;
       67     5288        %LIST;
       68     5289        %P_PCB( NAME=VY_P_PCB_MAIN, R=VY_N_START_SYMBOL, STCLASS="STATIC SYMDEF",
       69     5290                U$=VYP$PAR_U, USERPTR=VY_FPT_WRITE );
              5291        /*F*  NAME:     P_PCB
              5292              FUNCTION: Parse Control Block.  This structure is used to pass data
              5293                  to the X$PARSE utility, and to receive X$PARSE's responses.
              5294        */
              5295         %LSET LISTDIR='0'B;
              5308    1   DCL 1 VY_P_PCB_MAIN STATIC SYMDEF ALIGNED,
              5309    1         2 TEXT$ PTR INIT(ADDR(NIL))/**/,
              5313    1         2 ROOT$ PTR INIT(ADDR(VY_N_START_SYMBOL))/**/,
              5317    1         2 WORK$ PTR INIT(ADDR(NIL))/**/,
              5321    1         2 OUT$ PTR INIT(ADDR(NIL))/**/,
              5326    1         2 U$$ EPTR INIT(ENTADDR(VYP$PAR_U))/**/,
              5338    1         2 WKSZ UBIN(18) UNAL INIT(0)/**/,
              5343    1         2 CMPRS BIT(1) UNAL INIT('1'B)/**/,
              5349    1         2 CONTINUE BIT(1) UNAL INIT('1'B)/**/,
              5353    1         2 NOLEADBLANKS BIT(1) UNAL INIT('0'B)/**/,
              5358    1         2 NXT BIT(1) UNAL INIT('0'B)/**/,
              5375    1         2 DYNMEM BIT(1) UNAL INIT('0'B)/**/,
              5380    1         2 KEYWORDS BIT (1) INIT ('0'B) /**/,
              5395    1         2 BLANKONLY BIT (1),
              5403    1         2 NXT_SZONLY BIT(1) UNAL INIT('0'B)/**/,
              5411    1         2 * BIT (10) INIT ('0'B) /**/,
              5412    1         2 ERROR ALIGNED,
              5417    1           3 FCG BIT(12) UNAL INIT('0'B)/**/,
              5418    1           3 MID BIT(6) UNAL INIT('0'B)/**/,
              5419    1           3 MON BIT(1) UNAL INIT('0'B)/**/,
              5420    1           3 CODE UBIN(14) UNAL INIT(0)/**/,
              5421    1           3 SEV UBIN(3) UNAL INIT(0)/**/,
              5422    1         2 COMMENT ALIGNED,
              5426    1           3 LEAD CHAR(2) UNAL INIT(' "')/**/,
              5434    1           3 TRAIL CHAR(2) UNAL INIT(' "')/**/,
PL6.E3A0      #001=VY_FIXED_D File=VY_FIXED_D.:E05TSI                            WED 07/30/97 09:07 Page:22
              5441    1         2 WK_USED UBIN(18) UNAL INIT(0)/**/,
              5445    1         2 VERSION_CODE UBIN(4) UNAL INIT(1)/**/,
              5450    1         2 OUTDCB# UBIN(14) UNAL INIT(DCBNUM(NIL))/**/,
              5455    1         2 NCHARS UBIN WORD INIT(0)/**/,
              5459    1         2 HI_CHAR UBIN WORD INIT(0)/**/,
              5466    1         2 HINODE$ PTR INIT(ADDR(NIL))/**/,
              5475    1         2 USER$ PTR INIT(ADDR(VY_FPT_WRITE))/**/,
              5481    1         2 OUTENT$ EPTR INIT(ENTADDR(NIL))/**/;
       70     5489    1   DCL VYP$PAR_U ENTRY(1) ALTRET;
       71     5490        %FPT_WRITE( FPTN=VY_FPT_WRITE, STCLASS=SYMREF );
              5491        %LSET LISTDIR='0'B;
              5507    1   DCL 1 VY_FPT_WRITE SYMREF,2 V_ BIT(72)/*(VECTOR(VY_FPT_WRITE.V))/**/,2 KEY_ BIT(72)
              5507            /*(VECTOR(NIL))/**/,2 BUF_,3
              5508    1   BOUND UBIN(20)UNAL /*(SIZEV(NIL))/**/,3 * BIT(12)/*('7772'O)/**/,3 * BIT(4)/*('0'B)
              5509    1   /**/,3 BUF$ PTR /*(ADDR(NIL))/**/,2 STATION_ BIT(72)/*(VECTOR(NIL))/**/,2
              5510    1  IDBUF_ REDEF STATION_ BIT(72),2 V DALIGNED,3 DCB# UBIN(18)UNAL /*(DCBNUM(NIL))/**/,3
              5510            WAIT# BIT(1)/*('1'B
              5511    1   )/**/ ,3 * BIT(2)/*('0'B)/**/,3 ID# BIT(1)/*('0'B)/**/,3 * BIT(1)/*('0'B)
              5512    1   /**/,3 FULL# BIT(1)/*('0'B)/**/ ,3 * BIT(3)/*('0'B)/**/,3 ONEWKEY# BIT(1)/*('1'B)
              5513    1   /**/ ,3 NEWKEY# BIT(1)/*('0'B)/**/ ,3 REWRITE# BIT(1)/*('0'B)/**/ ,3 NOTIME# BIT(1)
              5513            /*
              5514    1   ('0'B)/**/ ,3 IOERROK# BIT(1)/*('0'B)/**/ ,3 KEYTYPE# UBIN(4)/*(0)/**/ UNAL,
              5515    1   3 EVENT# SBIN /*(0)/**/,3 SEED# BIT(36)/*('0'B)/**/,3 DVBYTE,4 TOP# BIT(1)/*('0'B)
              5516    1  /**/,4 BP# BIT(1)/*('0'B)/**/,4 VFC# BIT(1)/*('0'B)/**/,4 REREAD# REDEF VFC# BIT(1),
              5516            4 BIN# BIT(1
              5517    1   )/*('0'B)/**/,4 TRANS# BIT(1)/*('0'B)/**/,4 RRR# BIT(1)/*('0'B)/**/,4 NODAT# BIT(1
              5518    1   )/*('0'B)/**/,4 * BIT(1)/*('0'B)/**/,4 CONT# BIT(1)/*('0'B)/**/,3 * BIT(1)/*
              5519    1   ('0'B)/**/,3 ODFNC# UBIN(8)UNAL /*(0)/**/,3 * UBIN(18)UNAL /*(0)/**/;
       72     5521        %PLIST;
       73     5522        %EJECT;
PL6.E3A0      #001=VY_FIXED_D File=VY_FIXED_D.:E05TSI                            WED 07/30/97 09:07 Page:23
       74     5523        /*
       75     5524                   FPT'S
       76     5525        */
       77     5526    1   DCL M$OF             DCB;
       78     5527    1   DCL M$RF             DCB;
       79     5528    1   DCL M$LF             DCB;
       80     5529    1   DCL M$SI             DCB;
       81     5530    1   DCL M$LO             DCB;
       82     5531    1   DCL M$DO             DCB;
       83     5532    1   DCL M$EI             DCB;
       84     5533        /* ! R ! */                             /* Enable output to _R file */
       85     5534        %FPT_ERRMSG( FPTN=VY_FPT_ERRMSG,
       86     5535        /* ! ! */  CODE = VY_ERR_CODE,
       87     5536                   BUF = VY_EBUF,
       88     5537                   OUTDCB1 = M$DO,
       89     5538                   FIELD1  = VY_EFIELD1,
       90     5539                   FIELD2  = VY_EFIELD2,
       91     5540                   FIELD3  = VY_EFIELD3,
       92     5541                   RESULTS = VY_ERR_RESULTS,
       93     5542        /* ! R ! */
       94     5543                   STCLASS="STATIC SYMDEF");
       95     5570        /* ! R !%P$PCB( NAME=VY_P_PCB_MAIN, STCLASS="SYMREF"); */
       96     5571        /* ! ! */                               /* Disable output to _R file */
       97     5572        %VLR_ERRMSG( FPTN=VY_ERR_RESULTS, STCLASS="STATIC SYMDEF");
       98     5594        %LIST;
       99     5595        %EJECT;
PL6.E3A0      #001=VY_FIXED_D File=VY_FIXED_D.:E05TSI                            WED 07/30/97 09:07 Page:24
      100     5596        /* ! R !%FPT_WRITE( FPTN=VY_MAP_LO_FPT_WRITE, STCLASS=SYMREF );
      101     5597        %FPT_WRITE( FPTN=VY_MAP_LIT_LO_FPT_WRITE, STCLASS=SYMREF );
      102     5598        */
      103     5599        /* FOR MEMORY MANAGEMENT */
      104     5600        /* ! R ! */                             /* Enable output to _R file */
      105     5601              %VECTOR( NAME=VY_M_VECTOR
      106     5602        /* ! ! */      ,INT_U="INIT(0)",INT_B="INIT('0'B)"
      107     5603        /* ! R ! */    ,STCLASS="STATIC SYMDEF");
              5604        %LSET LISTDIR='0'B;

              5616    1   /*******************************************************************************
              5617    1   *                                                                              *
              5618    1   *                          TEMPLATE FOR 2-WORD NSA VECTOR                         *
              5619    1   *                                                                              *
              5620    1   *******************************************************************************/

              5625    1   DCL 1 VY_M_VECTOR STATIC SYMDEF ALIGNED,
              5626    1         2 VSIZE UBIN(20) UNAL INIT(0),      /* Size field of vector               */
              5627    1         2 FLAGS BIT(9) UNAL INIT('0'B),       /* FLAGS...                          */
              5628    1         2 V BIT(2) UNAL INIT('0'B),           /* Vector type field                 */
              5629    1         2 Z5 BIT(5) UNAL INIT('0'B),          /* Unused                            */
              5630    1         2 F,
              5631    1           3 BASE UBIN(20) UNAL INIT(0),     /* Base for vector                    */
              5632    1           3 Z4 BIT(4) UNAL INIT('0'B),        /* Unused                            */
              5633    1           3 SEGID UBIN(12) UNAL INIT(0),    /* Segid                              */
              5634    1         2 P       REDEF     F,            /* To extract the pointer             */
              5635    1           3 POINTER          PTR UNAL;
      108     5638        %PLIST;
      109     5639              %VECTOR( NAME=VY_M_VECTOR_DP
      110     5640        /* ! ! */      ,INT_U="INIT(0)",INT_B="INIT('0'B)"
      111     5641        /* ! R ! */    ,STCLASS="STATIC SYMDEF");

              5654    1   /*******************************************************************************
              5655    1   *                                                                              *
              5656    1   *                          TEMPLATE FOR 2-WORD NSA VECTOR                         *
              5657    1   *                                                                              *
              5658    1   *******************************************************************************/
PL6.E3A0      #001=VY_FIXED_D File=VY_FIXED_D.:E05TSI                            WED 07/30/97 09:07 Page:25

              5663    1   DCL 1 VY_M_VECTOR_DP STATIC SYMDEF ALIGNED,
              5664    1         2 VSIZE UBIN(20) UNAL INIT(0),      /* Size field of vector               */
              5665    1         2 FLAGS BIT(9) UNAL INIT('0'B),       /* FLAGS...                          */
              5666    1         2 V BIT(2) UNAL INIT('0'B),           /* Vector type field                 */
              5667    1         2 Z5 BIT(5) UNAL INIT('0'B),          /* Unused                            */
              5668    1         2 F,
              5669    1           3 BASE UBIN(20) UNAL INIT(0),     /* Base for vector                    */
              5670    1           3 Z4 BIT(4) UNAL INIT('0'B),        /* Unused                            */
              5671    1           3 SEGID UBIN(12) UNAL INIT(0),    /* Segid                              */
              5672    1         2 P       REDEF     F,            /* To extract the pointer             */
              5673    1           3 POINTER          PTR UNAL;
      112     5676        %EJECT;
PL6.E3A0      #001=VY_FIXED_D File=VY_FIXED_D.:E05TSI                            WED 07/30/97 09:07 Page:26
      113     5677        /*
      114     5678              KEY BUFFERS
      115     5679        */
      116     5680        %LIST;
      117     5681        %O_KEY_BUF(KEYBUF=VY_O_KEY_BUF
      118     5682        /* ! ! */,INT="INIT(0)"
      119     5683        /* ! R ! */   ,STCLASS="STATIC SYMDEF");
              5684    1   DCL 1 VY_O_KEY_BUF ALIGNED STATIC SYMDEF ,
              5685    1          2 FORM0 ,
              5686    1           3 COUNT       UBIN( 9)  UNAL INIT(0),
              5687    1           3 CHARS       CHAR(512) UNAL,
              5688    1         2 FORM1        REDEF     FORM0,
              5689    1           3 COUNT       UBIN( 9)  UNAL,
              5690    1           3 O777        UBIN( 9)  UNAL,   /* <- '777'O                          */
              5691    1           3 UTS         UBIN(36)  UNAL,
              5692    1           3 REC_TYPE    UBIN( 9)  UNAL,
              5693    1           3 PAGE#       UBIN( 9)  UNAL,
              5694    1           3 *           CHAR(505),
              5695    1         2 FORM2        REDEF     FORM0,
              5696    1           3 COUNT       UBIN( 9)  UNAL,
              5697    1           3 O777        UBIN( 9)  UNAL,   /* <- '777'O                          */
              5698    1           3 UTS         UBIN(36)  UNAL,
              5699    1           3 D10         UBIN( 9)  UNAL,   /* <- 10                              */
              5700    1           3 SECT#       UBIN(18)  UNAL,
              5701    1           3 OFFSET      UBIN(18)  UNAL,
              5702    1           3 STYPE       UBIN( 9)  UNAL,
              5703    1           3 SEQUENCE    UBIN( 9)  UNAL,
              5704    1           3 *           CHAR(500) ;
      120     5706        %PLIST;
      121     5707        %O_KEY_BUF(KEYBUF=VY_OL_KEY_BUF
      122     5708        /* ! ! */,INT="INIT(0)"
      123     5709        /* ! R ! */   ,STCLASS="STATIC SYMDEF");
      124     5732        %O_KEY_BUF(KEYBUF=VY_O_KEY_BUF_L
      125     5733        /* ! ! */,INT="INIT(0)"
      126     5734        /* ! R ! */   ,STCLASS="STATIC SYMDEF");
      127     5757        %LIST;
      128     5758        %R_KEY_BUF(KEYBUF=VY_R_KEY_BUF
PL6.E3A0      #001=VY_FIXED_D File=VY_FIXED_D.:E05TSI                            WED 07/30/97 09:07 Page:27
      129     5759        /* ! ! */   , INT="INIT(0)"
      130     5760        /* ! R ! */   ,STCLASS="STATIC SYMDEF");
              5761    1   DCL 1 VY_R_KEY_BUF                        STATIC SYMDEF,
              5762    1         2 FORM0                  ALIGNED,
              5763    1           3 COUNT       UBIN( 9)  UNAL INIT(0),
              5764    1           3 CHARS       CHAR( 4)  UNAL,
              5765    1           3 *           CHAR( 7)  UNAL,
              5766    1         2 FORM1        REDEF     FORM0,
              5767    1           3 COUNT       UBIN( 9)  UNAL,
              5768    1           3 REC_TYPE    UBIN( 9)  UNAL,
              5769    1           3 NODE#       UBIN(18)  UNAL,
              5770    1           3 OFFSET      UBIN(18)  UNAL,
              5771    1           3 *           CHAR( 6)  UNAL,
              5772    1         2 FORM2        REDEF     FORM0,
              5773    1           3 COUNT       UBIN( 9)  UNAL,
              5774    1           3 O777        UBIN( 9)  UNAL,   /* <- '777'O                          */
              5775    1           3 NODE#       UBIN(18)  UNAL,
              5776    1           3 P_ENTDEF    UBIN(18)  UNAL,
              5777    1           3 REC_TYPE    UBIN( 9)  UNAL,
              5778    1           3 PAGE#       UBIN( 9)  UNAL,
              5779    1           3 *           CHAR( 4)  UNAL;
      131     5781        %KEY_VARS(KEYVARS=VY_OK,
      132     5782        /* ! ! */ INT="INIT(0)", INT1="INIT(-1)",
      133     5783              INT_C="INIT(' ')",
      134     5784        /* ! R ! */    STCLASS="STATIC SYMDEF");
              5785    1   DCL 1 VY_OK                  STATIC SYMDEF,
              5786    1         2 KFILE                  UBIN(36) ALIGNED INIT(0),
              5787    1         2 KTYPE                  SBIN WORD ALIGNED INIT(-1),
              5788    1         2 KRTYPE                 UBIN(36) ALIGNED INIT(0),
              5789    1         2 KPAGE#                 SBIN WORD ALIGNED INIT(-1),
              5790    1         2 KOFSET                 UBIN(36) ALIGNED INIT(0),
              5791    1         2 KSTYPE                 UBIN(36) ALIGNED INIT(0),
              5792    1         2 KSEQUENCE              SBIN WORD ALIGNED INIT(-1),
              5793    1         2 KSECT#                 UBIN(36) ALIGNED INIT(0),
              5794    1         2 KNODE#                 UBIN(36) ALIGNED INIT(0),
              5795    1         2 KPEDX                  UBIN(36) ALIGNED INIT(0),
              5796    1         2 KATYPE                 SBIN WORD ALIGNED INIT(-1),
PL6.E3A0      #001=VY_FIXED_D File=VY_FIXED_D.:E05TSI                            WED 07/30/97 09:07 Page:28
              5797    1         2 OUNAME,
              5798    1           3 COUNT                UBIN(9) UNAL INIT(0),
              5799    1           3 CHARS                CHAR(511) UNAL INIT(' '),
              5800    1         2 FILE                   ALIGNED,
              5801    1           3 OFNAME                ALIGNED,
              5802    1             4 COUNT                UBIN(9)   UNAL INIT(0),
              5803    1             4 CHARS                CHAR(40)  UNAL INIT(' '),
              5804    1           3 RFNAME                ALIGNED,
              5805    1             4 COUNT                UBIN(9)   UNAL INIT(0),
              5806    1             4 CHARS                CHAR(40)  UNAL INIT(' ');
      135     5808        %EJECT;
PL6.E3A0      #001=VY_FIXED_D File=VY_FIXED_D.:E05TSI                            WED 07/30/97 09:07 Page:29
      136     5809        /*
      137     5810              IMAGE FORMATION VARIABLES
      138     5811        */
      139     5812        %LIST;
      140     5813        /* ! R ! */                             /* Enable output to _R file */
      141     5814        %IMAGE_BUFFERS(
      142     5815              NAME=VY_IMAGE_DATA,
      143     5816        /* ! ! */ INT_PTR="INIT(ADDR(NIL)*0)",
      144     5817              INT_UBIN="INIT(0*0)",
      145     5818              INT_SBIN="INIT(-1*0)",
      146     5819        /* ! R ! */   STCLASS="STATIC SYMDEF");
              5820    1   DCL 1 VY_IMAGE_DATA           ALIGNED        STATIC SYMDEF,
              5821    1        2 CPAGE#_A(0:1) SBIN WORD ALIGNED INIT(-1*0), /* Current page # in buffer # */
              5822    1         2 CPAGE# REDEF CPAGE#_A,
              5823    1           3 BUF0                  SBIN WORD ALIGNED,
              5824    1           3 BUF1                  SBIN WORD ALIGNED,
              5825    1         2 START_A$(0:1) PTR ALIGNED INIT(ADDR(NIL)*0),
              5825                  /* Pointer to start of buffer #    */
              5826    1         2 START$ REDEF START_A$,
              5827    1           3 BUF0$                 PTR       ALIGNED,
              5828    1           3 BUF1$                 PTR       ALIGNED,
              5829    1         2 STOP_A$(0:1)           PTR       ALIGNED INIT(ADDR(NIL)*0),
              5830    1         2 STOP$  REDEF STOP_A$,           /* Pointer to end of buffer #         */
              5831    1           3 BUF0$                 PTR       ALIGNED,
              5832    1           3 BUF1$                 PTR       ALIGNED,
              5833    1         2 NODE_A$(0:1) PTR ALIGNED INIT(ADDR(NIL)*0),
              5833                  /* Pointer to node  of buffer #     */
              5834    1         2 NODE$  REDEF NODE_A$,
              5835    1           3 BUF0$                 PTR       ALIGNED,
              5836    1           3 BUF1$                 PTR       ALIGNED,
              5837    1         2 BEGIN$                 PTR       ALIGNED,
              5838    1         2 END$                   PTR       ALIGNED,
              5839    1         2 SPAGE#                 UBIN(36)  ALIGNED INIT(0*0),
              5840    1         2 EPAGE#                 UBIN(36)  ALIGNED INIT(0*0);
      147     5842        %PLIST;
      148     5843        %IMAGE_BUFFERS(
      149     5844              NAME=VY_IMAGE_PROC,
PL6.E3A0      #001=VY_FIXED_D File=VY_FIXED_D.:E05TSI                            WED 07/30/97 09:07 Page:30
      150     5845        /* ! ! */  INT_PTR="INIT(ADDR(NIL)*0)",
      151     5846              INT_UBIN="INIT(0*0)",
      152     5847              INT_SBIN="INIT(-1*0)",
      153     5848        /* ! R ! */   STCLASS="STATIC SYMDEF");
      154     5871        %IMAGE_BUFFERS(
      155     5872              NAME=VY_IMAGE_ROS,
      156     5873        /* ! ! */  INT_PTR="INIT(ADDR(NIL)*0)",
      157     5874              INT_UBIN="INIT(0*0)",
      158     5875              INT_SBIN="INIT(-1*0)",
      159     5876        /* ! R ! */    STCLASS="STATIC SYMDEF");
      160     5899    1   DCL VY_IMAGE_PTR$(0:2/*@ROS*/)     PTR  ALIGNED   STATIC    SYMDEF
      161     5900    1              INIT( ADDR(VY_IMAGE_DATA), ADDR(VY_IMAGE_PROC), ADDR(VY_IMAGE_ROS) );
      162     5901        /* ! R !
      163     5902        DCL B$JIT$        PTR ALIGNED SYMREF;
      164     5903        DCL B$TCB$        PTR ALIGNED SYMREF;
      165     5904        DCL B$ROS$        PTR ALIGNED SYMREF;
      166     5905        */
      167     5906    1   END;

PL6.E3A0      #001=VY_FIXED_D File=VY_FIXED_D.:E05TSI                            WED 07/30/97 09:07 Page:31
--  Include file information  --

   XU_MACRO_C.:E05TOU  is referenced.
   VY_SWITCH_C.:E05TOU  is referenced.
   VY_DATA_R.:E05TOU  cannot be made into a system file and is referenced.
   CP_6.:E05TOU  cannot be made into a system file and is referenced.
   VY_MACRO_C.:E05TOU  is referenced.
   VY_PERR_C.:E05TOU  is referenced.
   VY_SUBS_C.:E05TOU  is referenced.
   VY_INC_NO_C.:E05TOU  is referenced.
   B$JIT_C.:E05TOU  was found in the system file and is never referenced.
   CP_6_C.:E05TOU  was found in the system file and is referenced.
      No diagnostics issued in procedure VY_FIXED_D.
PL6.E3A0      #001=VY_FIXED_D File=VY_FIXED_D.:E05TSI                            WED 07/30/97 09:07 Page:32

 **** Variables and constants ****

  ****  Section 001 RoData VY_FIXED_D

  ****  Scalars and arrays  ****
OctLoc.c.b A Datatyp(siz) R M Lvl/name                 OctLoc.c.b A Datatyp(siz) R M Lvl/name

    13-0-0/w STRC(432)   r     1 VY_DCB_ENTRIES             3-0-0/w STRC(288)   r     1 VY_DCB_NAME

  ****  Section 002  Data  VY_FIXED_D

  ****  Scalars and arrays  ****
OctLoc.c.b A Datatyp(siz) R M Lvl/name                 OctLoc.c.b A Datatyp(siz) R M Lvl/name

    54-0-0/d STRC(144)   r     1 VY_ERR_RESULTS            22-0-0/d STRC(936)   r     1 VY_FPT_ERRMSG
  1133-0-0/w STRC(432)   r     1 VY_IMAGE_DATA           1147-0-0/w STRC(432)   r     1 VY_IMAGE_PROC
  1163-0-0/w STRC(432)   r     1 VY_IMAGE_ROS

  ****  SYMREF variables  ****

  ****  Scalars and arrays  ****
OctLoc.c.b A Datatyp(siz) R M Lvl/name                 OctLoc.c.b A Datatyp(siz) R M Lvl/name

     0-0-0/w STRC(1197)  r     1 VY_EBUF                    0-0-0/w STRC(720)   r     1 VY_EFIELD1
     0-0-0/w STRC(720)   r     1 VY_EFIELD2                 0-0-0/w STRC(720)   r     1 VY_EFIELD3
     0-0-0/w STRC        r     1 VY_ERR_CODE                0-0-0/d STRC(432)   r     1 VY_FPT_WRITE
     0-0-0/w UBIN        r     1 VY_N_START_SYMBOL

  ****  BASED and DCB variables  ****

  ****  Scalars and arrays  ****
OctLoc.c.b A Datatyp(siz) R M Lvl/name                 OctLoc.c.b A Datatyp(siz) R M Lvl/name

     0-0-0N  NULL        r     1 M$DO

PL6.E3A0      #001=VY_FIXED_D File=VY_FIXED_D.:E05TSI                            WED 07/30/97 09:07 Page:33

   No code generated for procedure VY_FIXED_D .
   Procedure VY_FIXED_D requires 4 words of local(AUTO) storage.

    No errors detected in file VY_FIXED_D.:E05TSI    .
PL6.E3A0      #001=VY_FIXED_D File=VY_FIXED_D.:E05TSI                            WED 07/30/97 09:07 Page:34
          *** CROSS REFERENCE LISTING ***
**     DENOTES     IDENTIFIER DEFINITION
<<                 IDENTIFIER'S VALUE SET
>>                 IDENTIFIER'S VALUE USED
<>                 IDENTIFIER SET AND/OR USED
--                 IDENTIFIER REFERENCED
PL6.E3A0      #001=VY_FIXED_D File=VY_FIXED_D.:E05TSI                            WED 07/30/97 09:07 Page:35
          MINI XREF LISTING

VYP$PAR_U
      5489**DCL-ENT  5326--DCLINIT
VY_BIAS.A
      1713**DCL      1713--REDEF
VY_CBUF.CHARS_A
      1704**DCL      1704--REDEF
VY_DCB_ENTRIES
      5218**DCL      5192--DCLINIT
VY_DCB_ENTRIES.M$UC
      5275**DCL      5194--DCLINIT
VY_DCB_NAME
      5197**DCL      5190--DCLINIT
VY_EBUF
      2005**DCL      5555--DCLINIT
VY_EBUF.CHARS_A
      2005**DCL      2006--REDEF
VY_EFIELD1
      2006**DCL      5556--DCLINIT
VY_EFIELD1.CHARS
      2006**DCL      2006--REDEF
VY_EFIELD2
      2007**DCL      5557--DCLINIT
VY_EFIELD2.CHARS
      2007**DCL      2007--REDEF
VY_EFIELD3
      2007**DCL      5557--DCLINIT
VY_EFIELD3.CHARS
      2008**DCL      2008--REDEF
VY_ERRORS
      1709**DCL      1711--REDEF
VY_ERRORS.CONFLICT_A
      1710**DCL      1711--REDEF
PL6.E3A0      #001=VY_FIXED_D File=VY_FIXED_D.:E05TSI                            WED 07/30/97 09:07 Page:36
VY_ERRORS.UNSAT_A
      1709**DCL      1710--REDEF
VY_ERR_CODE
      2004**DCL      5554--DCLINIT
VY_ERR_RESULTS
      5583**DCL      5558--DCLINIT
VY_FPT_ERRMSG.V
      5558**DCL      5554--DCLINIT
VY_FPT_WRITE
      5507**DCL      5475--DCLINIT
VY_FPT_WRITE.STATION_
      5509**DCL      5509--REDEF
VY_FPT_WRITE.V.DVBYTE.VFC#
      5516**DCL      5516--REDEF
VY_IMAGE_DATA
      5820**DCL      5900--DCLINIT
VY_IMAGE_DATA.CPAGE#_A
      5821**DCL      5822--REDEF
VY_IMAGE_DATA.NODE_A$
      5833**DCL      5834--REDEF
VY_IMAGE_DATA.START_A$
      5825**DCL      5826--REDEF
VY_IMAGE_DATA.STOP_A$
      5829**DCL      5830--REDEF
VY_IMAGE_PROC
      5849**DCL      5900--DCLINIT
VY_IMAGE_PROC.CPAGE#_A
      5850**DCL      5851--REDEF
VY_IMAGE_PROC.NODE_A$
      5862**DCL      5863--REDEF
VY_IMAGE_PROC.START_A$
      5854**DCL      5855--REDEF
VY_IMAGE_PROC.STOP_A$
      5858**DCL      5859--REDEF
VY_IMAGE_ROS
      5877**DCL      5900--DCLINIT
PL6.E3A0      #001=VY_FIXED_D File=VY_FIXED_D.:E05TSI                            WED 07/30/97 09:07 Page:37
VY_IMAGE_ROS.CPAGE#_A
      5878**DCL      5879--REDEF
VY_IMAGE_ROS.NODE_A$
      5890**DCL      5891--REDEF
VY_IMAGE_ROS.START_A$
      5882**DCL      5883--REDEF
VY_IMAGE_ROS.STOP_A$
      5886**DCL      5887--REDEF
VY_MAP_HDR.CHARS
      2070**DCL      2071--REDEF    2071--REDEF
VY_MBUF.CHARS
      2069**DCL      2070--REDEF    2070--REDEF
VY_M_VECTOR.F
      5630**DCL      5634--REDEF
VY_M_VECTOR_DP.F
      5668**DCL      5672--REDEF
VY_N_START_SYMBOL
      5287**DCL      5313--DCLINIT
VY_O.DUPL_ATTCH
      1851**DCL      1855--REDEF
VY_O.MAP_ATTCH
      1839**DCL      1850--REDEF
VY_O.PRIMARY_OPTION
      1833**DCL      1838--REDEF
VY_O.SEV_ATTCH
      1856**DCL      1858--REDEF
VY_OD.DUPL_ATTCH
      1995**DCL      1999--REDEF
VY_OD.MAP_ATTCH
      1983**DCL      1994--REDEF
VY_OD.PRIMARY_OPTION
      1977**DCL      1982--REDEF
VY_OD.SEV_ATTCH
      2000**DCL      2002--REDEF
VY_OL_KEY_BUF.FORM0
      5711**DCL      5714--REDEF    5721--REDEF
PL6.E3A0      #001=VY_FIXED_D File=VY_FIXED_D.:E05TSI                            WED 07/30/97 09:07 Page:38
VY_OU_HEAD.REC_A
      1694**DCL      1695--REDEF
VY_O_KEY_BUF.FORM0
      5685**DCL      5688--REDEF    5695--REDEF
VY_O_KEY_BUF_L.FORM0
      5736**DCL      5739--REDEF    5746--REDEF
VY_PAR_UNWIND
      2064**DCL      2064--REDEF
VY_PASS2_REF.OU.L_START
      2031**DCL      2032--REDEF
VY_PASS2_REF.OU.L_STOP
      2032**DCL      2033--REDEF
VY_PASS2_REF.OU.MAX
      2030**DCL      2031--REDEF
VY_PASS2_REF.OU.SIZE
      2033**DCL      2034--REDEF
VY_PASS2_REF.SAT.COUNT
      2037**DCL      2038--REDEF
VY_PASS2_REF.SAT.ENT_SIZE
      2039**DCL      2040--REDEF
VY_PASS2_REF.SAT.L_START
      2035**DCL      2036--REDEF
VY_PASS2_REF.SAT.L_STOP
      2036**DCL      2037--REDEF
VY_PASS2_REF.SAT.MAX
      2034**DCL      2035--REDEF
VY_PASS2_REF.UNSAT.L_START
      2041**DCL      2042--REDEF
VY_PASS2_REF.UNSAT.L_STOP
      2042**DCL      2043--REDEF
VY_PASS2_REF.UNSAT.L_WHERE
      2043**DCL      2044--REDEF
VY_PASS2_REF.UNSAT.MAX
      2040**DCL      2041--REDEF
VY_PASS2_REF.UNSAT.PAGE#
      2045**DCL      2046--REDEF
PL6.E3A0      #001=VY_FIXED_D File=VY_FIXED_D.:E05TSI                            WED 07/30/97 09:07 Page:39
VY_PASS2_REF.UNSAT.SIZE
      2044**DCL      2045--REDEF
VY_PROGRAM_BIAS.A
      1712**DCL      1712--REDEF
VY_RU_HEAD.DATA_SEGMENT
      1680**DCL      1680--REDEF
VY_RU_HEAD.L
      1676**DCL      1677--REDEF
VY_RU_HEAD.MAP_BITS
      1677**DCL      1679--REDEF
VY_RU_HEAD.PBIT
      1673**DCL      1673--REDEF
VY_RU_HEAD_BUF.DATA_SEGMENT
      1690**DCL      1690--REDEF
VY_RU_HEAD_BUF.L
      1685**DCL      1686--REDEF
VY_RU_HEAD_BUF.MAP_BITS
      1687**DCL      1689--REDEF
VY_RU_HEAD_BUF.PBIT
      1682**DCL      1683--REDEF
VY_R_KEY_BUF.FORM0
      5762**DCL      5766--REDEF    5772--REDEF
VY_SI_KEY_BUF.KEY
      2060**DCL      2060--REDEF
VY_SPC.B$.MINE
      2055**DCL      2056--REDEF
VY_SPC.B$.NAME
      2052**DCL      2052--REDEF
VY_SPC.B$.SKIP
      2054**DCL      2055--REDEF
VY_SPC.B$.VALUE
      2053**DCL      2054--REDEF
VY_SPC.SEG.NAME
      2047**DCL      2048--REDEF
VY_SPC.SEG.VALUE
      2048**DCL      2049--REDEF
PL6.E3A0      #001=VY_FIXED_D File=VY_FIXED_D.:E05TSI                            WED 07/30/97 09:07 Page:40
VY_TSX0_OVERLAY.H
      2019**DCL      2020--REDEF
