VERSION E05

 09:08 07/30/97  FILE=X6M$CSEQM.:E05TSI                                                                  1    BMAP - B00
                                         1  *M*    CSEQM   CALLING SEQUENCE ROUTINES FOR MONITOR(ET AL.)
                                         2  *T***********************************************************
                                         3  *T*                                                         *
                                         4  *T* Copyright (c) Bull HN Information Systems Inc., 1997    *
                                         5  *T*                                                         *
                                         6  *T***********************************************************
                                         7  *
                                         8  *
                                         9  *        THE CALLING SEQUENCE ROUTINES ASSUME THAT THE BASE OF THE
                                        10  *        AUTOMATIC STORAGE SEGMENT HAS THE FOLLOWING LAYOUT:
                                        11  *
                                        12  *        _________________________________________
                                        13  *        |                   |                   |
                                        14  *        |XXX                |NEG CURR OFFSET -1 |
                                        15  *        -----------------------------------------
                                        16  *        |                   |                   |
                                        17  *        |0                  |-1                 |
                                        18  *        -----------------------------------------
                                        19  *        |                   |                   |
                                        20  *        |LIMIT OFFSET       |0                  |
                                        21  *        _________________________________________
                                        22  *
                                        23  *
                                        24  *        EACH FRAME IS ASSUMED TO HAVE THE FOLLOWING FORMAT:
                                        25  *
                                        26  *        ________________________________________
                                        27  *        |                   |                   |
                                        28  *        |RETURN ADDRESS(ALT)|NEG PREV OFFSET -1 |
                                        29  *        -----------------------------------------
                                        30  *        |                   |                   |
                                        31  *        |EXTENSION(0)       |LANG FLAG (-1)     |
                                        32  *        -----------------------------------------
                                        33  *        |                   |                   |
                                        34  *        |NEXT FRAME OFFSET+1|LOC OF ENTRY(M+A)  |
                                        35  *        _________________________________________
                                        36  *
                                        37  *

 09:08 07/30/97  FILE=X6M$CSEQM.:E05TSI                                                                  2    BMAP - B00
                                        38           EJECT
             000000000000               39  PTRLISTPR EQU      0
             000000000001               40  DESCLISTPR EQU     1
             000000000002               41  AUTOPR   EQU       2
                                        42  *
                                        43           SEGREF    NULLSID

 09:08 07/30/97  FILE=X6M$CSEQM.:E05TSI                                                                  3    BMAP - B00
                                        44           EJECT
                                        45  *                                      OFFSETS IN AUTO FRAME HDR
             000000000000               46  RET_     EQU       0
             000000000000               47  PREV_    EQU       0
             000000000000               48  RET_PREV_ EQU      0
             000000000002               49  NEXT_    EQU       2
             000000000002               50  LOCOFENT_ EQU      2
             000000000003               51  PARMS_   EQU       3
                                        52  *                                      OFFSETS IN AUTO BASE
             000000000000               53  CURR_    EQU       0
             000000000002               54  LIMIT_   EQU       2
                                        55  *                                      REGISTERS
             000000000001               56  PARMREG1 EQU       1
             000000000003               57  PARMREG2 EQU       3
             000000000004               58  PARMREG3 EQU       4

 09:08 07/30/97  FILE=X6M$CSEQM.:E05TSI                                                                  4    BMAP - B00
                                        59           EJECT
                                        60  ALIGN    MACRO
                                        61  _1       SET       *-X66_ARET
                                        62  _2       SET       _1/4*4
                                        63  _2       SET       _1-_2
                                        64  _2       SET       4+#1-_2
                                        65           IFE       _2,1
                                        66           BSS       1
                                        67           IFE       _2,2
                                        68           BSS       2
                                        69           IFE       _2,3
                                        70           BSS       3
                                        71           IFE       _2,5
                                        72           BSS       1
                                        73           IFE       _2,6
                                        74           BSS       2
                                        75           IFE       _2,7
                                        76           BSS       3
                                        77           ENDM

 09:08 07/30/97  FILE=X6M$CSEQM.:E05TSI                                                                  5    BMAP - B00
                                        78           EJECT
                                        79  *
                                        80           ENTDEF    X66
                                        81  *
                                        82           ENTDEF    X66_AUTO_0,X66_AUTO_1,X66_AUTO_2
                                        83           ENTDEF    X66_AUTO_3,X66_AUTO_N
                                        84           ENTDEF    X66_AUTO_4,X66_AUTO_5
                                        85  *
                                        86           ENTDEF    X66_STATIC_0,X66_STATIC_1,X66_STATIC_2
                                        87           ENTDEF    X66_STATIC_3,X66_STATIC_N
                                        88           ENTDEF    X66_STATIC_4,X66_STATIC_5
                                        89  *
                                        90           ENTDEF    X66_ARET,X66_AALT
                                        91  *
                                        92           ENTDEF    X66_FARET,X66_FAALT
                                        93  *
                                        94           ENTDEF    X66_MSTATIC
                                        95           ENTDEF    X66_AUNWIND
                                        96  *
                                        97           ENTDEF    X66_PREGS_1,X66_PREGS_2,X66_PREGS_3
                                        98  *
                                        99           ENTDEF    X66_INDEX
                                       100  *
                                       101           ENTDEF    X66_FRAME_EXT,X66_FRAME_KEXT

 09:08 07/30/97  FILE=X6M$CSEQM.:E05TSI                                                                  6    BMAP - B00
                                       102           EJECT
                                       103           INHIB     ON
 0 000000                              104           USE       X66_JUNK,1
   000000    112125116113              105           ASCII     1,JUNK              TO MAKE SURE XDELTA FINDS RIGHT DEF FOR X66
 2 000000                              106           USE       X66_PROCED,1
   000000                              107  X66      NULL
                                       108  *
                                       109           EIGHT                         NEEDED TO MAKE ALIGN WORK
   000000    2 00000 2363 00           110  X66_ARET LDQ       RET_PREV_,,AUTOPR
   000001    2 00001 5276 06           111           SWDX      1+0,QL,AUTOPR
   000002    2 00001 7563 06           112           STQ       1+CURR_,QL,AUTOPR
   000003    000001 7102 02            113           TRA       1,QU
                                       114  *
   000004    2 00000 2363 00           115  X66_AALT LDQ       RET_PREV_,,AUTOPR
   000005    2 00001 5276 06           116           SWDX      1+0,QL,AUTOPR
   000006    2 00001 7563 06           117           STQ       1+CURR_,QL,AUTOPR
   000007    000000 7102 02            118           TRA       0,QU

 09:08 07/30/97  FILE=X6M$CSEQM.:E05TSI                                                                  7    BMAP - B00
                                       119           EJECT
                                       120  *
                                       121           ALIGN     4
   000010                              122  X66_AUTO_0 NULL
   000010    2 00002 3223 00           123           LCX2      NEXT_,,AUTOPR       NEG NEXT FRAME OFFSET
   000011    2 00001 5276 12           124           SWDX      1+0,2,AUTOPR        'NEXT' IS NOW CURRENT
   000012    2 00001 2373 12           125           LDAQ      1+CURR_,2,AUTOPR    GET OLD 'NEG CURRENT' ->A
                                       126  *                                      0, PL6 FLAG ->Q
   000013    2 00000 7573 00           127           STAQ      PREV_,,AUTOPR       'NEG CURRENT'->'NEG PREV'
                                       128  *                                      SET EXTENSION, FLAG
   000014    000000 2232 10            129           LDX3      0,0                 SIZE OF THIS FRAME
   000015    2 00000 7413 00           130           STX1      RET_,,AUTOPR        SAVE ALTRET ADDR
   000016    2 00001 6353 13           131           EAA       1+0,3,AUTOPR        CALCULATE NEW 'NEXT'
   000017    2 00001 4423 12           132           SXL2      1+CURR_,2,AUTOPR    SET 'NEG CURRENT'
   000020    2 00002 7553 00           133           STA       NEXT_,,AUTOPR       SET NEXT FRAME
   000021    000001 7102 10            134           TRA       1,0

 09:08 07/30/97  FILE=X6M$CSEQM.:E05TSI                                                                  8    BMAP - B00
                                       135           EJECT
                                       136  *
                                       137           ALIGN     4
   000024                              138  X66_AUTO_1 NULL
   000024    2 00002 3223 00           139           LCX2      NEXT_,,AUTOPR       NEG NEXT FRAME OFFSET
   000025    2 00001 5276 12           140           SWDX      1+0,2,AUTOPR        'NEXT' IS NOW CURRENT
   000026    2 00001 2373 12           141           LDAQ      1+CURR_,2,AUTOPR    GET OLD 'NEG CURRENT' ->A
                                       142  *                                      0, PL6 FLAG ->Q
   000027    2 00000 7573 00           143           STAQ      0,,AUTOPR           'NEG CURRENT'->'NEG PREV'
                                       144  *                                      SET EXTENSION, FLAG
   000030    2 00000 7413 00           145           STX1      RET_,,AUTOPR        SAVE ALTRET ADDR
   000031    000000 2232 10            146           LDX3      0,0                 SIZE OF THIS FRAME
   000032    1 00000 2243 00           147           LDX4      0,,DESCLISTPR       # OF ARGS PASSED
   000033    2 00001 4423 12           148           SXL2      1+CURR_,2,AUTOPR    SET 'NEG CURRENT'
   000034 (2)000044 6002 00            149           TZE       NULL1               GIVE ADDR(NIL)
   000035    0 00000 2363 00           150           LDQ       0,,PTRLISTPR        ADDR(ARG1)
   000036    2 00001 6353 13           151           EAA       1+0,3,AUTOPR        CALCULATE NEW 'NEXT'
   000037    2 00002 7573 00           152           STAQ      NEXT_,,AUTOPR       STORE NEXT FRAME,ADDR(ARG1)
   000040    000001 7102 10            153           TRA       1,0
                                       154  *
                                       155           ALIGN     4
   000044                              156  NULL1    NULL
   000044  X 000000 2362 07            157           LDQ       NULLSID,DL
   000045    2 00001 6353 13           158           EAA       1+0,3,AUTOPR        CALCULATE NEW 'NEXT'
   000046    2 00002 7573 00           159           STAQ      NEXT_,,AUTOPR
   000047    000001 7102 10            160           TRA       1,0

 09:08 07/30/97  FILE=X6M$CSEQM.:E05TSI                                                                  9    BMAP - B00
                                       161           EJECT
                                       162  *
                                       163           ALIGN     4
   000050                              164  X66_AUTO_2 NULL
   000050    2 00002 3223 00           165           LCX2      2,,AUTOPR           NEG NEXT FRAME OFFSET
   000051    2 00001 5276 12           166           SWDX      1+0,2,AUTOPR        'NEXT' IS NOW CURRENT
   000052    2 00001 2373 12           167           LDAQ      1+0,2,AUTOPR        GET OLD 'NEG CURRENT' ->A
                                       168  *                                      0, PL6 FLAG ->Q
   000053    2 00000 7573 00           169           STAQ      0,,AUTOPR           'NEG CURRENT'->'NEG PREV'
                                       170  *                                      SET EXTENSION, FLAG
   000054    2 00000 7413 00           171           STX1      0,,AUTOPR           SAVE ALTRET ADDR
   000055    1 00000 2243 00           172           LDX4      0,,DESCLISTPR       # OF ARGS PASSED
   000056    000001 1042 03            173           CMPX4     1,DU
   000057    2 00001 4423 12           174           SXL2      1+0,2,AUTOPR        SET 'NEG CURRENT'
   000060 (2)000070 6046 14            175           TMOZ      NULL2,4             GIVE 1 OR 2 ADDR(NIL)
   000061    000000 2232 10            176           LDX3      0,0                 SIZE OF THIS FRAME
   000062    0 00001 2363 00           177           LDQ       1,,PTRLISTPR        ADDR(ARG2)
   000063    2 00004 7563 00           178           STQ       4,,AUTOPR
   000064    0 00000 2363 00           179           LDQ       0,,PTRLISTPR        ADDR(ARG1)
   000065    2 00001 6353 13           180           EAA       1+0,3,AUTOPR        CALCULATE NEW 'NEXT'
   000066    2 00002 7573 00           181           STAQ      2,,AUTOPR
   000067    000001 7102 10            182           TRA       1,0
                                       183  *
                                       184           ALIGN     4
   000070                              185  NULL2    NULL
   000070 (2)000100 7102 00            186           TRA       NULL20              GIVE 2 NIL'S
   000071    000000 2232 10            187           LDX3      0,0                 SIZE OF THIS FRAME
   000072  X 000000 2362 07            188           LDQ       NULLSID,DL
   000073    2 00004 7563 00           189           STQ       4,,AUTOPR
   000074    0 00000 2363 00           190           LDQ       0,,PTRLISTPR        ADDR(ARG1)
   000075    2 00001 6353 13           191           EAA       1+0,3,AUTOPR        CALCULATE NEW 'NEXT'
   000076    2 00002 7573 00           192           STAQ      2,,AUTOPR
   000077    000001 7102 10            193           TRA       1,0
                                       194  *
                                       195           ALIGN     4
   000100                              196  NULL20   NULL
   000100    000000 2232 10            197           LDX3      0,0                 SIZE OF THIS FRAME
 09:08 07/30/97  FILE=X6M$CSEQM.:E05TSI                                                                  10   BMAP - B00
   000101  X 000000 2362 07            198           LDQ       NULLSID,DL
   000102    2 00001 6353 13           199           EAA       1+0,3,AUTOPR        CALCULATE NEW 'NEXT'
   000103    2 00004 7563 00           200           STQ       4,,AUTOPR
   000104    2 00002 7573 00           201           STAQ      2,,AUTOPR
   000105    000001 7102 10            202           TRA       1,0

 09:08 07/30/97  FILE=X6M$CSEQM.:E05TSI                                                                  11   BMAP - B00
                                       203           EJECT
                                       204  *
                                       205           ALIGN     4
   000110                              206  X66_AUTO_3 NULL
   000110    2 00002 3223 00           207           LCX2      2,,AUTOPR           NEG NEXT FRAME OFFSET
   000111    2 00001 5276 12           208           SWDX      1+0,2,AUTOPR        'NEXT' IS NOW CURRENT
   000112    2 00001 2373 12           209           LDAQ      1+0,2,AUTOPR        GET OLD 'NEG CURRENT' ->A
                                       210  *                                      0, PL6 FLAG ->Q
   000113    2 00000 7573 00           211           STAQ      0,,AUTOPR           'NEG CURRENT'->'NEG PREV'
                                       212  *                                      SET EXTENSION, FLAG
   000114    2 00000 7413 00           213           STX1      0,,AUTOPR           SAVE ALTRET ADDR
   000115    1 00000 2243 00           214           LDX4      0,,DESCLISTPR       # OF ARGS PASSED
   000116    000002 1042 03            215           CMPX4     2,DU
   000117    2 00001 4423 12           216           SXL2      1+0,2,AUTOPR        SET 'NEG CURRENT'
   000120 (2)000132 6046 14            217           TMOZ      NULL3,4             GIVE 1,2, OR 3 ADDR(NIL)
   000121    0 00001 2353 00           218           LDA       1,,PTRLISTPR        ADDR(ARG2)
   000122    0 00002 2363 00           219           LDQ       2,,PTRLISTPR        ADDR(ARG3)
   000123    2 00004 7573 00           220           STAQ      4,,AUTOPR
   000124    000000 2232 10            221           LDX3      0,0                 SIZE OF THIS FRAME
   000125    0 00000 2363 00           222           LDQ       0,,PTRLISTPR        ADDR(ARG1)
   000126    2 00001 6353 13           223           EAA       1+0,3,AUTOPR        CALCULATE NEW 'NEXT'
   000127    2 00002 7573 00           224           STAQ      2,,AUTOPR
   000130    000001 7102 10            225           TRA       1,0
                                       226  *
                                       227           ALIGN     2
   000132                              228  NULL3    NULL
   000132 (2)000155 7102 00            229           TRA       NULL30
   000133 (2)000144 7102 00            230           TRA       NULL31
   000134    000000 2232 10            231           LDX3      0,0                 SIZE OF THIS FRAME
   000135    0 00001 2353 00           232           LDA       1,,PTRLISTPR        ADDR(ARG2)
   000136  X 000000 2362 07            233           LDQ       NULLSID,DL
   000137    2 00004 7573 00           234           STAQ      4,,AUTOPR
   000140    0 00000 2363 00           235           LDQ       0,,PTRLISTPR        ADDR(ARG1)
   000141    2 00001 6353 13           236           EAA       1+0,3,AUTOPR        CALCULATE NEW 'NEXT'
   000142    2 00002 7573 00           237           STAQ      2,,AUTOPR
   000143    000001 7102 10            238           TRA       1,0
                                       239  *
 09:08 07/30/97  FILE=X6M$CSEQM.:E05TSI                                                                  12   BMAP - B00
                                       240           ALIGN     4
   000144                              241  NULL31   NULL
   000144    000000 2232 10            242           LDX3      0,0
   000145    0 00000 2363 00           243           LDQ       0,,PTRLISTPR
   000146    2 00001 6353 13           244           EAA       1+0,3,AUTOPR
   000147    2 00002 7573 00           245           STAQ      2,,AUTOPR
   000150 (2)000406 2372 00            246           LDAQ      NILPTR
   000151    2 00004 7573 00           247           STAQ      4,,AUTOPR
   000152    000001 7102 10            248           TRA       1,0
                                       249           ALIGN     1
   000155                              250  NULL30   NULL
   000155    000000 2232 10            251           LDX3      0,0
   000156 (2)000406 2372 00            252           LDAQ      NILPTR
   000157    2 00004 7573 00           253           STAQ      4,,AUTOPR
   000160    2 00001 6353 13           254           EAA       1+0,3,AUTOPR
   000161    2 00002 7573 00           255           STAQ      2,,AUTOPR
   000162    000001 7102 10            256           TRA       1,0

 09:08 07/30/97  FILE=X6M$CSEQM.:E05TSI                                                                  13   BMAP - B00
                                       257           EJECT
                                       258  *
                                       259           ALIGN     4
   000164                              260  X66_AUTO_4 NULL
   000164    2 00002 3223 00           261           LCX2      2,,AUTOPR           NEG NEXT FRAME OFFSET
   000165    2 00001 5276 12           262           SWDX      1+0,2,AUTOPR        'NEXT' IS NOW CURRENT
   000166    2 00001 2373 12           263           LDAQ      1+0,2,AUTOPR        GET OLD 'NEG CURRENT' ->A
                                       264  *                                      0, PL6 FLAG ->Q
   000167    2 00000 7573 00           265           STAQ      0,,AUTOPR           'NEG CURRENT'->'NEG PREV'
                                       266  *                                      SET EXTENSION, FLAG
   000170    2 00000 7413 00           267           STX1      0,,AUTOPR           SAVE ALTRET ADDR
   000171    1 00000 2243 00           268           LDX4      0,,DESCLISTPR       # OF ARGS PASSED
   000172    000003 1042 03            269           CMPX4     3,DU
   000173    2 00001 4423 12           270           SXL2      1+0,2,AUTOPR        SET 'NEG CURRENT'
   000174 (2)000207 6046 14            271           TMOZ      NULL4,4             GIVE 1,2, OR 3 ADDR(NIL)
   000175    0 00001 2353 00           272           LDA       1,,PTRLISTPR        ADDR(ARG2)
   000176    0 00002 2363 00           273           LDQ       2,,PTRLISTPR        ADDR(ARG3)
   000177    2 00004 7573 00           274           STAQ      4,,AUTOPR
   000200    000000 2232 10            275           LDX3      0,0                 SIZE OF THIS FRAME
   000201    0 00000 2363 00           276           LDQ       0,,PTRLISTPR        ADDR(ARG1)
   000202    0 00003 2353 00           277           LDA       3,,PTRLISTPR
   000203    2 00006 7553 00           278           STA       6,,AUTOPR
   000204    2 00001 6353 13           279           EAA       1+0,3,AUTOPR        CALCULATE NEW 'NEXT'
   000205    2 00002 7573 00           280           STAQ      2,,AUTOPR
   000206    000001 7102 10            281           TRA          1,0
                                       282  *
                                       283           ALIGN     3
   000207                              284  NULL4    NULL
   000207 (2)000237 7102 00            285           TRA       NULL40
   000210 (2)000235 7102 00            286           TRA       NULL41
   000211 (2)000224 7102 00            287           TRA       NULL42
   000212    000000 2232 10            288           LDX3      0,0
   000213    0 00001 2353 00           289           LDA       1,,PTRLISTPR
   000214    0 00002 2363 00           290           LDQ       2,,PTRLISTPR
   000215    2 00004 7573 00           291           STAQ      4,,AUTOPR
   000216  X 000000 2362 07            292           LDQ       NULLSID,DL
   000217    2 00006 7563 00           293           STQ       6,,AUTOPR
 09:08 07/30/97  FILE=X6M$CSEQM.:E05TSI                                                                  14   BMAP - B00
   000220    2 00001 6353 13           294           EAA       1+0,3,AUTOPR
   000221    0 00000 2363 00           295           LDQ       0,,PTRLISTPR
   000222    2 00002 7573 00           296           STAQ      2,,AUTOPR
   000223    000001 7102 10            297           TRA          1,0
                                       298  *
                                       299           ALIGN     4
   000224                              300  NULL42   NULL
   000224  X 000000 2362 07            301           LDQ       NULLSID,DL
   000225    0 00001 2353 00           302           LDA       1,,PTRLISTPR
   000226                              303  NULL4C1  NULL
   000226    000000 2232 10            304           LDX3      0,0
   000227    2 00006 7563 00           305           STQ       6,,AUTOPR
   000230    2 00004 7573 00           306           STAQ      4,,AUTOPR
   000231    0 00000 2363 00           307           LDQ       0,,PTRLISTPR
   000232                              308  NULL4C2  NULL
   000232    2 00001 6353 13           309           EAA       1+0,3,AUTOPR
   000233    2 00002 7573 00           310           STAQ      2,,AUTOPR
   000234    000001 7102 10            311           TRA       1,0
                                       312  *
                                       313           ALIGN     1
   000235                              314  NULL41   NULL
   000235 (2)000406 2372 00            315           LDAQ      NILPTR
   000236 (2)000226 7102 00            316           TRA       NULL4C1
                                       317  *
                                       318           ALIGN     3
   000237                              319  NULL40   NULL
   000237 (2)000406 2372 00            320           LDAQ      NILPTR
   000240    000000 2232 10            321           LDX3      0,0
   000241    2 00006 7563 00           322           STQ       6,,AUTOPR
   000242    2 00004 7573 00           323           STAQ      4,,AUTOPR
   000243 (2)000232 7102 00            324           TRA       NULL4C2

 09:08 07/30/97  FILE=X6M$CSEQM.:E05TSI                                                                  15   BMAP - B00
                                       325           EJECT
                                       326  *
                                       327           ALIGN     4
   000244                              328  X66_AUTO_5 NULL
   000244    2 00002 3223 00           329           LCX2      2,,AUTOPR           NEG NEXT FRAME OFFSET
   000245    2 00001 5276 12           330           SWDX      1+0,2,AUTOPR        'NEXT' IS NOW CURRENT
   000246    2 00001 2373 12           331           LDAQ      1+0,2,AUTOPR        GET OLD 'NEG CURRENT' ->A
                                       332  *                                      0, PL6 FLAG ->Q
   000247    2 00000 7573 00           333           STAQ      0,,AUTOPR           'NEG CURRENT'->'NEG PREV'
                                       334  *                                      SET EXTENSION, FLAG
   000250    2 00000 7413 00           335           STX1      0,,AUTOPR           SAVE ALTRET ADDR
   000251    1 00000 2243 00           336           LDX4      0,,DESCLISTPR       # OF ARGS PASSED
   000252    000004 1042 03            337           CMPX4     4,DU
   000253    2 00001 4423 12           338           SXL2      1+0,2,AUTOPR        SET 'NEG CURRENT'
   000254 (2)000270 6046 14            339           TMOZ      NULL5,4             GIVE 1,2, OR 3 ADDR(NIL)
   000255    0 00004 2363 00           340           LDQ       4,,PTRLISTPR
   000256                              341  NULL5C0  NULL
   000256    0 00003 2353 00           342           LDA       3,,PTRLISTPR
   000257                              343  NULL5C1  NULL
   000257    2 00006 7573 00           344           STAQ      6,,AUTOPR
   000260    0 00002 2363 00           345           LDQ       2,,PTRLISTPR        ADDR(ARG3)
   000261                              346  NULL5C2  NULL
   000261    0 00001 2353 00           347           LDA       1,,PTRLISTPR        ADDR(ARG2)
   000262                              348  NULL5C3  NULL
   000262    000000 2232 10            349           LDX3      0,0                 SIZE OF THIS FRAME
   000263    2 00004 7573 00           350           STAQ      4,,AUTOPR
   000264    0 00000 2363 00           351           LDQ       0,,PTRLISTPR        ADDR(ARG1)
   000265                              352  NULL5C4  NULL
   000265    2 00001 6353 13           353           EAA       1+0,3,AUTOPR        CALCULATE NEW 'NEXT'
   000266    2 00002 7573 00           354           STAQ      2,,AUTOPR
   000267    000001 7102 10            355           TRA          1,0
                                       356  *
                                       357           ALIGN     4
   000270                              358  NULL5    NULL
   000270 (2)000311 7102 00            359           TRA       NULL50
   000271 (2)000304 7102 00            360           TRA       NULL51
   000272 (2)000300 7102 00            361           TRA       NULL52
 09:08 07/30/97  FILE=X6M$CSEQM.:E05TSI                                                                  16   BMAP - B00
   000273 (2)000276 7102 00            362           TRA       NULL53
   000274  X 000000 2362 07            363           LDQ       NULLSID,DL
   000275 (2)000256 7102 00            364           TRA       NULL5C0
                                       365  *
                                       366           EVEN
   000276                              367  NULL53   NULL
   000276 (2)000406 2372 00            368           LDAQ      NILPTR
   000277 (2)000257 7102 00            369           TRA       NULL5C1
                                       370  *
                                       371           ALIGN     4
   000300                              372  NULL52   NULL
   000300 (2)000406 2372 00            373           LDAQ      NILPTR
   000301    2 00006 7573 00           374           STAQ      6,,AUTOPR
   000302 (2)000261 7102 00            375           TRA       NULL5C2
                                       376  *
                                       377           ALIGN     4
   000304                              378  NULL51   NULL
   000304 (2)000406 2372 00            379           LDAQ      NILPTR
   000305    2 00006 7573 00           380           STAQ      6,,AUTOPR
   000306 (2)000262 7102 00            381           TRA       NULL5C3
                                       382  *
                                       383           ALIGN     1
   000311                              384  NULL50   NULL
   000311 (2)000406 2372 00            385           LDAQ      NILPTR
   000312    000000 2232 10            386           LDX3      0,0
   000313    2 00006 7573 00           387           STAQ      6,,AUTOPR
   000314    2 00004 7573 00           388           STAQ      4,,AUTOPR
   000315 (2)000265 7102 00            389           TRA       NULL5C4

 09:08 07/30/97  FILE=X6M$CSEQM.:E05TSI                                                                  17   BMAP - B00
                                       390           EJECT
                                       391  *
                                       392           ALIGN     4
   000320                              393  X66_AUTO_N NULL
   000320    2 00002 3223 00           394           LCX2      2,,AUTOPR           NEG NEXT FRAME OFFSET
   000321    2 00001 5276 12           395           SWDX      1+0,2,AUTOPR        'NEXT' IS NOW CURRENT
   000322    2 00001 2373 12           396           LDAQ      1+0,2,AUTOPR        GET OLD 'NEG CURRENT' ->A
                                       397  *                                      0, PL6 FLAG ->Q
   000323    2 00000 7573 00           398           STAQ      0,,AUTOPR           'NEG CURRENT'->'NEG PREV'
                                       399  *                                      SET EXTENSION, FLAG
   000324    000000 2362 10            400           LDQ       0,0                 SIZE OF THIS FRAME,#PARMS
   000325    2 00000 7413 00           401           STX1      0,,AUTOPR           SAVE ALTRET ADDR
   000326    2 00001 6353 02           402           EAA       1+0,QU,AUTOPR       CALCULATE NEW 'NEXT'
   000327    2 00001 4423 12           403           SXL2      1+0,2,AUTOPR        SET 'NEG CURRENT'
   000330    2 00002 7553 00           404           STA       2,,AUTOPR           SET NEXT FRAME
   000331    000000 6232 06            405           EAX3      0,QL                # PARAMS EXPECTED
   000332    1 00000 1233 00           406           SBLX3     0,,DESCLISTPR       CHECK AGAINST # OF ARGS
   000333 (2)000341 6056 00            407           TPNZ      NULLN
   000334    000002 7362 00            408           QLS       2                   BYTES TO MOVE TO Q
   000335    000 0 140 1007 40         409           MLR       (1,1),(1,1)
   000336    0 00000 0 0 0 0006        410           ADSC9     0,,Q,PTRLISTPR
   000337    2 00003 0 0 0 0006        411           ADSC9     3,,Q,AUTOPR
   000340    000001 7102 10            412           TRA       1,0
                                       413  *
                                       414           ALIGN     1
   000341                              415  NULLN    NULL
   000341    1 00000 2363 00           416           LDQ       0,,DESCLISTPR
   000342    1 00000 2353 00           417           LDA       0,,DESCLISTPR
   000343    000020 7322 00            418           QRS       16
   000344    000 0 140 1007 40         419           MLR       (1,1),(1,1)
   000345    0 00000 0 0 0 0006        420           ADSC9     0,,Q,PTRLISTPR
   000346    2 00003 0 0 0 0006        421           ADSC9     3,,Q,AUTOPR
   000347  X 000000 2362 07            422           LDQ       NULLSID,DL
   000350    2 00003 7563 01           423           STQ       1+2,AU,AUTOPR
   000351    000002 1032 03            424           CMPX3     2,DU
   000352    000001 6042 10            425           TMI       1,0
   000353    2 00004 7563 01           426           STQ       2+2,AU,AUTOPR
 09:08 07/30/97  FILE=X6M$CSEQM.:E05TSI                                                                  18   BMAP - B00
   000354    000001 6002 10            427           TZE       1,0
   000355    2 00005 7563 01           428           STQ       3+2,AU,AUTOPR
   000356    000004 1032 03            429           CMPX3     4,DU
   000357    000001 6042 10            430           TMI       1,0
   000360    2 00006 7563 01           431           STQ       4+2,AU,AUTOPR
   000361    000001 6002 10            432           TZE       1,0
   000362    2 00007 7563 01           433           STQ       5+2,AU,AUTOPR
   000363    000006 1232 03            434           SBLX3     6,DU
   000364    000001 6042 10            435           TMI       1,0
   000365    2 00010 7563 01           436           STQ       6+2,AU,AUTOPR
   000366    000001 6002 10            437           TZE       1,0
   000367    2 00002 6317 01           438           EPPR      DESCLISTPR,2,AU,AUTOPR
   000370    1 00006 7563 13           439           STQ       6,3,DESCLISTPR
   000371    000001 1232 03            440           SBLX3     1,DU
   000372    777776 6056 04            441           TPNZ      -2,IC
   000373    000001 7102 10            442           TRA       1,0

 09:08 07/30/97  FILE=X6M$CSEQM.:E05TSI                                                                  19   BMAP - B00
                                       443           EJECT
                                       444  *
   000374                              445  X66_STATIC_0 NULL
   000374    000000 2222 10            446           LDX2      0,0                 ADDR('STATIC AUTO' FRAME)
   000375    000000 7412 12            447           STX1      0,2                 RET ADDR
   000376    000001 7102 10            448           TRA       1,0

 09:08 07/30/97  FILE=X6M$CSEQM.:E05TSI                                                                  20   BMAP - B00
                                       449           EJECT
                                       450  *
                                       451           ALIGN     4
   000400                              452  X66_STATIC_1 NULL
   000400    000000 6352 11            453           EAA       0,1
   000401    000000 2222 10            454           LDX2      0,0
   000402    0 00000 2363 00           455           LDQ       0,,PTRLISTPR        ADDR(ARG1)
   000403    000000 7572 12            456           STAQ      0,2
   000404    000001 7102 10            457           TRA       1,0
                                       458  *
                                       459  *
   000405    000000 0112 00            460           EVEN
   000406
   000406    000000 X 000000           461  NILPTR   ZERO      0,NULLSID
   000407    000000 X 000000           462           ZERO      0,NULLSID

 09:08 07/30/97  FILE=X6M$CSEQM.:E05TSI                                                                  21   BMAP - B00
                                       463           EJECT
                                       464  *
                                       465           ALIGN     4
   000410                              466  X66_STATIC_2 NULL
   000410    0 00000 2363 00           467           LDQ       0,,PTRLISTPR
   000411    000000 2222 10            468           LDX2      0,0
   000412    000000 6352 11            469           EAA       0,1
   000413    000000 7572 12            470           STAQ      0,2
   000414    0 00001 2363 00           471           LDQ       1,,PTRLISTPR
   000415    000002 7562 12            472           STQ       2,2
   000416    000001 7102 10            473           TRA       1,0
                                       474  *

 09:08 07/30/97  FILE=X6M$CSEQM.:E05TSI                                                                  22   BMAP - B00
                                       475           EJECT
                                       476  *
                                       477           ALIGN     4
   000420                              478  X66_STATIC_3 NULL
   000420    0 00000 2363 00           479           LDQ       0,,PTRLISTPR
   000421    000000 2222 10            480           LDX2      0,0
   000422    000000 6352 11            481           EAA       0,1
   000423    000000 7572 12            482           STAQ      0,2
   000424    0 00001 2353 00           483           LDA       1,,PTRLISTPR
   000425    0 00002 2363 00           484           LDQ       2,,PTRLISTPR
   000426    000002 7572 12            485           STAQ      2,2
   000427    000001 7102 10            486           TRA       1,0
                                       487  *

 09:08 07/30/97  FILE=X6M$CSEQM.:E05TSI                                                                  23   BMAP - B00
                                       488           EJECT
                                       489  *
                                       490           ALIGN     4
   000430                              491  X66_STATIC_4 NULL
   000430    0 00000 2363 00           492           LDQ       0,,PTRLISTPR
   000431    000000 2222 10            493           LDX2      0,0
   000432    000000 6352 11            494           EAA       0,1
   000433    000000 7572 12            495           STAQ      0,2
   000434    0 00003 2353 00           496           LDA       3,,PTRLISTPR
   000435    000004 7552 12            497           STA       4,2
   000436    0 00001 2353 00           498           LDA       1,,PTRLISTPR
   000437    0 00002 2363 00           499           LDQ       2,,PTRLISTPR
   000440    000002 7572 12            500           STAQ      2,2
   000441    000001 7102 10            501           TRA       1,0
                                       502  *

 09:08 07/30/97  FILE=X6M$CSEQM.:E05TSI                                                                  24   BMAP - B00
                                       503           EJECT
                                       504  *
                                       505           ALIGN     4
   000444                              506  X66_STATIC_5 NULL
   000444    0 00000 2363 00           507           LDQ       0,,PTRLISTPR
   000445    000000 2222 10            508           LDX2      0,0
   000446    000000 6352 11            509           EAA       0,1
   000447    000000 7572 12            510           STAQ      0,2
   000450    0 00001 2353 00           511           LDA       1,,PTRLISTPR
   000451    0 00002 2363 00           512           LDQ       2,,PTRLISTPR
   000452    000002 7572 12            513           STAQ      2,2
   000453    0 00003 2353 00           514           LDA       3,,PTRLISTPR
   000454    0 00004 2363 00           515           LDQ       4,,PTRLISTPR
   000455    000004 7572 12            516           STAQ      4,2
   000456    000001 7102 10            517           TRA       1,0
                                       518  *

 09:08 07/30/97  FILE=X6M$CSEQM.:E05TSI                                                                  25   BMAP - B00
                                       519           EJECT
                                       520  *
                                       521           ALIGN     4
   000460                              522  X66_STATIC_N NULL
   000460    000000 2362 10            523           LDQ       0,0                 LOC OF FRAME,#PARAMS
   000461    000000 7412 02            524           STX1      0,QU                PUT AWAY RETURN
   000462    000024 7762 00            525           QLR       20
   000463    000 0 046 1007 40         526           MLR       (1,1),(,1,,Q)
   000464    0 00000 0 0 0 0002        527           ADSC9     0,,QU,PTRLISTPR
   000465    000001 0 0 0 0002         528           ADSC9     1,,QU
   000466    000001 7102 10            529           TRA       1,0
                                       530  *

 09:08 07/30/97  FILE=X6M$CSEQM.:E05TSI                                                                  26   BMAP - B00
                                       531           EJECT
                                       532  *
                                       533  *
   000467                              534  X66_PREGS_1 NULL
   000467    0 00000 4717 00           535           LDP1      0,,PTRLISTPR
   000470    000001 7102 10            536           TRA       1,0
                                       537  *
                                       538  *
   000471                              539  X66_PREGS_2 NULL
   000471    0 00000 4717 00           540           LDP1      0,,PTRLISTPR
   000472    0 00001 4737 00           541           LDP3      1,,PTRLISTPR
   000473    000001 7102 10            542           TRA       1,0
                                       543  *
                                       544  *
   000474                              545  X66_PREGS_3 NULL
   000474    0 00000 4717 00           546           LDP1      0,,PTRLISTPR
   000475    0 00001 4737 00           547           LDP3      1,,PTRLISTPR
   000476    0 00002 4747 00           548           LDP4      2,,PTRLISTPR
   000477    000001 7102 10            549           TRA       1,0

 09:08 07/30/97  FILE=X6M$CSEQM.:E05TSI                                                                  27   BMAP - B00
                                       550           EJECT
                                       551  *D*
                                       552  *D* X66_FARET,X66_FAALT Normal and alternate return routines for
                                       553  *D*                function procedures which require that EAQ and
                                       554  *D*                X0 be returned to caller. Uses X1 and X3.
                                       555  *D*
                                       556  *
                                       557           ALIGN     4
   000500                              558  X66_FARET NULL
   000500    2 00000 7233 00           559           LXL3      0,,AUTOPR
   000501    2 00000 2213 00           560           LDX1      0,,AUTOPR
   000502    2 00001 5276 13           561           SWDX      1+0,3,AUTOPR
   000503    2 00001 4433 13           562           SXL3      1+0,3,AUTOPR
   000504    000001 7102 11            563           TRA       1,1
                                       564  *
   000505                              565  X66_FAALT NULL
   000505    2 00000 7233 00           566           LXL3      0,,AUTOPR
   000506    2 00000 2213 00           567           LDX1      0,,AUTOPR
   000507    2 00001 5276 13           568           SWDX      1+0,3,AUTOPR
   000510    2 00001 4433 13           569           SXL3      1+0,3,AUTOPR
   000511    000000 7102 11            570           TRA       0,1

 09:08 07/30/97  FILE=X6M$CSEQM.:E05TSI                                                                  28   BMAP - B00
                                       571           EJECT
                                       572  *D*
                                       573  *D* X66_MAUNWIND,X66_MSUNWIND,X66_AAUNWIND,X66_ASUNWIND,
                                       574  *D* X66_AUNWIND,X66_SUNWIND
                                       575  *D*                MAIN, ASYNC, and callable procedure entries
                                       576  *D*                to do UNWIND.
                                       577  *
                                       578  *D*      A HAS AUTO PTR TO FRAME TO WHICH TO UNWIND
                                       579  *D*      Q HAS EPTR FORM OF ADDRESS OF WHERE TO GO
                                       580  *D*
                                       581  *D*                Call:TSX0 X66_xxUNWIND
                                       582  *D*                     ZERO return here if bad unwind variable.
                                       583  *D*
                                       584  *
   000512                              585  X66_MAUNWIND NULL
   000512                              586  X66_MSUNWIND NULL
   000512                              587  X66_AAUNWIND NULL
   000512                              588  X66_ASUNWIND NULL
   000512                              589  X66_AUNWIND NULL
   000512                              590  X66_SUNWIND NULL
   000512    2 00002 2223 00           591           LDX2      2,,AUTOPR       NEXT FRAME HDR SPACE
   000513    2 00000 6307 00           592           EPPR0     0,,AUTOPR
   000514    0 00000 5076 12           593           AWDX      0,2,0
   000515    0 00000 4527 00           594           STP       AUTOPR,0,,0
   000516    0 00001 7553 00           595           STA       1,,0
   000517    0 00000 1753 00           596           SBA       0,,0            VERIFY IF OK
   000520 (2)000520 6056 00            597           TPNZ      *               BAD IF NON-NEG
   000521    0 00001 3223 00           598           LCX2      1,,0
   000522    000001 1222 03            599           SBLX2     1,DU
   000523    2 00001 5276 12           600           SWDX      1+0,2,AUTOPR
   000524    2 00001 4423 12           601           SXL2      1+0,2,AUTOPR        SET CURRENT FRAME
   000525    000000 7102 02            602           TRA       0,QU
                                       603  *

 09:08 07/30/97  FILE=X6M$CSEQM.:E05TSI                                                                  29   BMAP - B00
                                       604           EJECT
                                       605  *
   000526                              606  X66_MSTATIC NULL
   000526    0 00000 4737 00           607           LDP3      0,,0                ADDR (AUTO$)
   000527    3 00000 4737 00           608           LDP3      0,,3                AUTO$
   000530    0 00001 4717 00           609           LDP1      1,,0                ADDR (SIZE)
   000531    1 00000 2353 00           610           LDA       0,,1
   000532    000002 7352 00            611           ALS       2                   BYTES IN SEG
   000533    000 0 140 1006 00         612           MLR       ,(1,1,,)            MOVE IN BASE AND FIRST FRAME
   000534 (2)000545 0 0 0 0040         613           ADSC9     AUTO_INIT,0,32
   000535    3 00000 0 0 0 0005        614           ADSC9     0,0,A,3             FILL WITH 0'S
   000536    000020 7352 00            615           ALS       16                  DONT REACCESS INCASE IN AUTO
   000537    3 00002 7553 00           616           STA       2,,3                PUT IT IN BASE
   000540    0 00002 4717 00           617           LDP1      2,,0                ADDR (PR2$)
   000541    3 00004 5077 00           618           AWD       4,,3                ADJUST TO FIRST FRAME
   000542    1 00000 4537 00           619           STP3      0,,1
   000543    3 00002 4413 00           620           SXL1      2,,3                SET MAIN ADDRESS
   000544    000001 7102 11            621           TRA       1,1
                                       622  *
   000545                              623  AUTO_INIT NULL
   000545    000000 777773             624           ZERO      0,-5                , -CUR - 1
   000546    000000 777777             625           ZERO      0,-1                , PL6FLAG
   000547    000000 000000             626           ZERO                          LIMIT,
   000550    000000 000000             627           ZERO                          XXX
   000551    000000 777773             628           ZERO      0,-5                , -PREV - 1
   000552    000000 777777             629           ZERO      0,-1                EXT , PL6FLAG
   000553    000011 000000             630           ZERO      9,0                 NEXT + 1 , MAIN
   000554    000000 000000             631           ZERO                          XXX

 09:08 07/30/97  FILE=X6M$CSEQM.:E05TSI                                                                  30   BMAP - B00
                                       632           EJECT
                                       633  *D*
                                       634  *D* X66_FRAME_EXT  Extend the current AUTO frame.
                                       635  *D*                Desired size in X1 (may be even or odd).
                                       636  *D*                Put the offset into left half of word 1.
                                       637  *D*                Return 1,X0.
                                       638  *D*                Return 0,X0 if cannot allocate.
                                       639  *D*                Use X1, X2, X3, X4, A.
                                       640  *D*                CAUTION: Multiple extensions lose value of previous
                                       641  *D*                (no automatic nest) but all storage goes away when
                                       642  *D*                current active procedure exits.
                                       643  *D*
                                       644  *D* X66_FRAME_KEXT Undo current frame extension.
                                       645  *D*                Put ext offset back as next frame offset.
                                       646  *D*                Put 0 in ext offset
                                       647  *D*
   000555                              648  X66_FRAME_EXT NULL
   000555    000000 6352 11            649           EAA       0,1
   000556    2 00002 2213 00           650           LDX1      2,,AUTOPR
   000557    000001 1212 03            651           SBLX1     1,DU
   000560    2 00001 7413 00           652           STX1      1,,AUTOPR           SAVE EXTENSION OFFSET
   000561    2 00002 0353 00           653           ADLA      2,,AUTOPR
   000562    000001 2752 03            654           ORA       =1,DU               INSURE NEXT FRAME EVEN, ODDLY
   000563    2 00002 7553 00           655           STA       2,,AUTOPR           SET NEXT FRAME ADDR
   000564    000001 7102 10            656           TRA       1,0
                                       657  *
   000565                              658  X66_FRAME_KEXT NULL
   000565    2 00001 2213 00           659           LDX1      1,,AUTOPR
   000566    2 00001 1413 00           660           SSX1      1,,AUTOPR
   000567    000001 0212 03            661           ADLX1     1,DU
   000570    2 00002 7413 00           662           STX1      2,,AUTOPR
   000571    000001 7102 10            663           TRA       1,0

 09:08 07/30/97  FILE=X6M$CSEQM.:E05TSI                                                                  31   BMAP - B00
                                       664         EJECT
                                       665  *D*
                                       666  *D* X66_INDEX      Routine to execute INDEX built in subroutine.
                                       667  *D*
                                       668         INHIB   OFF
                                       669  *D*                            CALL INDEX PL-6 INTRINSIC HIT.
                                       670  *D*                            CALL INDEX(RSLT,TINYSTR,BIGSTR,START)
                                       671  *D*                            ALTRET(NOTFOUND);
                                       672  *D*                            PL-6 GENERATED IN-LINE CODE WILL
                                       673  *D*                            SET UP ARGUMENTS, PTR-S, IN REGS--
                                       674  *D*                            LDP3  ADDR(TINYSTR)
                                       675  *D*                            LDX3  LENGTHC(TINYSTR)
                                       676  *D*                            LDP0  ADDR(BIGSTR)
                                       677  *D*                            LDX0  LENGTHC(BIGSTR)
                                       678  *D*                            LDQ   START
                                       679  *D*                            LDP1  ADDR(RSLT)
                                       680  *D*                            TSX1  6INDEX -- INTIMATE CODE ENTRY.
                                       681  *D*                            TRA   NOTFOUND
                                       682  *D*                            ...   NORMAL EXIT, OCCURANCE OF TINYSTR
                                       683  *D*                                  FOUND WITHIN SUBSTR(BIGSTR,START)
                                       684  *D*                                  AT CHAR NUMBER (RSLT).
                                       685  *D*
             000000000003              686  TINYADDR EQU       3
             000000000003              687  TINYLEN  EQU       3
             000000000000              688  BIGADDR  EQU       0
             000000000000              689  BIGLEN   EQU       0
             000000000001              690  RSLTADDR EQU       1
                                       691  *
                                       692  *                              ROUTINE USES, DESTROYS A-REG, Q-REG.
                                       693  *                              PR5,PR6,PR7, X5,X6,X7 -- UNTOUCHED.
                                       694  *                              OTHER PRN -- UNCHANGED.
                                       695  *                              OTHER XN  -- UNCHANGED.
                                       696  *
   000572                              697  X66_INDEX NULL
                                       698  *                              INITIALIZE CONDITION --
                                       699  *                              Q-REG -- CURRENT -START- VALUE,
                                       700  *                                    0 .LE. START .LE. LENC(BIGSTR)-1
 09:08 07/30/97  FILE=X6M$CSEQM.:E05TSI                                                                  32   BMAP - B00
                                       701  *                              A-REG + Q-REG = LENC(BIGSTR)
                                       702  *                              A-REG -- CHAR-COUNT REMAINING IN BIGSTR
                                       703  *                                    0 .LE. A-REG .LE. LENC(BIGSTR)
                                       704  *                              ALSO, INIT -RSLT- TO -START-
   000572    1 00000 7561 00           705         STQ     0,,RSLTADDR
   000573    000000 6350 10            706         EAA     ,BIGLEN
   000574    000022 7710 00            707         ARL     18
   000575    1 00000 1351 00           708         SBLA    0,,RSLTADDR
                                       709  *                              BRANCH BASED ON LENC(TINYSTR)
   000576    000003 1030 03            710         CMPX    TINYLEN,=3,DU
   000577 (2)000624 6030 00            711         TRC     6IND3           LENC(TINYSTR) .GE. 3
   000600    000001 1030 03            712         CMPX    TINYLEN,=1,DU
   000601 (2)000612 6054 00            713         TPNZ    6IND2           LENC(TINYSTR) .EQ. 2
                                       714  *                              FOR STRANGE CASE LENC(TINYSTR) .EQ. 0,
                                       715  *                              SEARCH FOR 0-LENGTH NULL STRING,
                                       716  *                              ASSUME FOUND IMMEDIATELY, AT START.
                                       717  *                              -RSLT- ALREADY SET TO -START-
                                       718  *                              NORMAL RETURN, FOUND.
   000602    000001 6040 11            719         TMI     1,1
                                       720  *                              LENC(TINYSTR) .EQ. 1.
                                       721  *                              -SCM- INSTRUC ON SUBSTR(BIGSTR,START)
   000603                              722  6IND1  NULL
   000603    000 0 100 1245 46         723         SCM     (1,1,,Q),(1,,,)
   000604    0 00000 0 0 0 0005        724         ADSC9   0,0,A,BIGADDR   SUBSTR(BIGSTR,START)=0-0,QL,BIGADDR
   000605    3 00000 0 0 0 0001        725         ADSC9   0,0,1,TINYADDR  TINYSTR=0-0,,TINYADDR LEN=1
   000606    1 00000 0001 00           726         ARG     0,,RSLTADDR     RSLT=0,,RSLTADDR
                                       727  *                              0 .LE. RSLT .LE. LENC(SUB(BIGSTR,STRT))
                                       728  *                              ADJUST SO THAT
                                       729  *                              START .LE. RSLT .LE. LENC(BIGSTR)
   000607    1 00000 0561 00           730         ASQ     0,,RSLTADDR
   000610    000001 6070 11            731         TTF     1,1             IF FOUND, MAKE NORMAL EXIT.
   000611    000000 7100 11            732         TRA     0,1             IF NOT FOUND, MAKE ALTRETURN EXIT.
                                       733  *
                                       734  *                              LENC(TINYSTR) .EQ. 2.
                                       735  *                              -SCD- INSTRUC ON SUBSTR(BIGSTR,START)
   000612                              736  6IND2  NULL
   000612    000 0 100 1205 46         737         SCD     (1,1,,Q),(1,,,)
 09:08 07/30/97  FILE=X6M$CSEQM.:E05TSI                                                                  33   BMAP - B00
   000613    0 00000 0 0 0 0005        738         ADSC9   0,0,A,BIGADDR   SUBSTR(BIGSTR,START)=0-0,QL,BIGADDR
   000614    3 00000 0 0 0 0002        739         ADSC9   0,0,2,TINYADDR  TINYSTR=0-0,,TINYADDR LEN=2
   000615    1 00000 0001 00           740         ARG     0,,RSLTADDR     RSLT=0,,RSLTADDR
                                       741  *                              0.LE. RSLT .LE.LENC(SUB(BIGSTR,STRT))-1
                                       742  *                              ADJUST SO THAT
                                       743  *                              START .LE. RSLT .LE. LENC(BIGSTR)-1
                                       744  *                              IF FOUND,
                                       745  *                              START .LE. RSLT .LE. LENC(BIGSTR)-2
   000616    1 00000 0561 00           746         ASQ     0,,RSLTADDR
   000617    000001 6070 11            747         TTF     1,1             IF FOUND, MAKE NORMAL EXIT.
                                       748  *                              IF LENC(SUBSTR(BIGSTR,START)) .GE. 1,
                                       749  *                              THEN -RSLT- .EQ. LENC(BIGSTR)-1.
                                       750  *                              ADJUST TO PROPER NOT-FOUND VALUE.
   000620    1 00000 0541 00           751         AOS     0,,RSLTADDR
                                       752  *                              NOTE -- BUG OCCURS IF
                                       753  *                              LENC(SUBSTR(BIGSTR,START)) .EQ. 0,
                                       754  *                              SINCE -SCD- INSTRUC SETS -RSLT- TO 0,
                                       755  *                              INSTEAD OF LENC(SUBSTR(BIGSTR,START))-1
                                       756  *                              AND ABOVE CODE MAKES LENC(BIGSTR)+1.
                                       757  *                              POSSIBLE FIX -- USE CODE SEQUENCE --
                                       758  *                              ASQ  0,,RSLTADDR
                                       759  *                              TTF  1,1   NORMAL RETURN, FOUND
                                       760  *                              STA  0,,RSLTADDR
                                       761  *                              ASQ  0,,RSLTADDR A+Q .EQ. LENC(BIGSTR)
                                       762  *                              TRA  0,1   ALTRETURN, NOT FOUND
                                       763  *                              HOWEVER, THIS WOULD PRODUCE RESULTS
                                       764  *                              WHICH DIFFER FROM THE IN-LINE CODE
                                       765  *                              FOR -CALL-INDEX2-, WHICH IS MORE
                                       766  *                              DIFFICULT TO PATCH UP.
   000621    000000 7100 11            767         TRA     0,1             MAKE ALTRETURN, NOT FOUND.
                                       768  *
                                       769  *                              LOOP TO SCAN THRU SUBSTR(BIGSTR,START).
                                       770  *                              -TINYSTR- DOES NOT OCCUR AT
                                       771  *                              CURRENT POINT WITHIN -BIGSTR-
                                       772  *                              STEP CURRENT POINT BY 1 CHAR.
   000622                              773  6IND3L NULL
   000622    000001 0360 07            774         ADLQ    =1,DL
 09:08 07/30/97  FILE=X6M$CSEQM.:E05TSI                                                                  34   BMAP - B00
   000623    000001 1350 07            775         SBLA    =1,DL
                                       776  *
                                       777  *                              LENC(TINYSTR) .GE. 3.
                                       778  *                              Q-REG -- CURRENT POINT WITHIN BIGSTR.
                                       779  *                              A-REG + Q-REG .EQ. LENC(BIGSTR).
   000624                              780  6IND3  NULL
                                       781  *
                                       782  *                              FIND CANDIDATE -TINYSTR- OCCURANCE.
                                       783  *                              USE -SCD- TO FIND NEXT OCCURANCE,
                                       784  *                              STARTING FROM -CURRENT-POINT IN BIGSTR
                                       785  *                              WHERE FIRST 2 CHARS OF -TINYSTR- ARE.
   000624    000 0 100 1205 46         786         SCD     (1,1,,Q),(1,,,)
   000625    0 00000 0 0 0 0005        787         ADSC9   0,0,A,BIGADDR   SUBSTR(BIGSTR,START)=0-0,QL,BIGADDR
   000626    3 00000 0 0 0 0002        788         ADSC9   0,0,2,TINYADDR  TINYSTR=0-0,,TINYADDR LEN=2
   000627    1 00000 0001 00           789         ARG     0,,RSLTADDR     RSLT=0,,RSLTADDR
                                       790  *                              IF END-OF-BIGSTR HIT,
                                       791  *                              THEN NO OCCURANCES OF TINYSTR.
   000630 (2)000644 6064 00            792         TTN     6IND3X
                                       793  *                              FIRST TWO CHARS OF TINYSTR FOUND.
                                       794  *                              0.LE. RSLT .LE.LENC(SUB(BIGSTR,CURR))-2
                                       795  *                              STEP CURRENT POSITION IN STRING
                                       796  *                              TO CHAR WHERE -SCD- STOPPED.
   000631    1 00000 0361 00           797         ADLQ    0,,RSLTADDR
   000632    1 00000 1351 00           798         SBLA    0,,RSLTADDR
                                       799  *                              Q-REG IS CURRENT POINT --
                                       800  *                              START .LE. CURR .LE. LENC(BIGSTR)
                                       801  *                              A-REG IS CHAR-COUNT REMAINING --
                                       802  *                              0.LE. A-REG .LE.LENC(SUB(BIGSTR,STRT0))
                                       803  *                              CHECK IF ENOUGH CHARS LEFT IN STRING
                                       804  *                              TO HOLD A FULL COPY OF -TINYSTR-
   000633    1 00000 4431 00           805         SXL     TINYLEN,0,,RSLTADDR
   000634    1 00000 1151 00           806         CMPA    0,,RSLTADDR
   000635 (2)000644 6040 00            807         TMI     6IND3X          LENC(STRING-LEFT) .LT. LENC(TINYSTR)
                                       808  *                              LENC(STRING-LEFT) .GE. LENC(TINYSTR)
                                       809  *                              CHECK FOR FULL -TINYSTR- OCCURANCE.
                                       810  *                              FILL-CHAR NOT NEEDED,
                                       811  *                              SINCE COMPARE LENGTH MATCH EXACTLY.
 09:08 07/30/97  FILE=X6M$CSEQM.:E05TSI                                                                  35   BMAP - B00
   000636    000 0 140 1065 46         812         CMPC    (1,1,,Q),(1,1,,)
   000637    0 00000 0 0 0 0013        813         ADSC9   0,0,TINYLEN,BIGADDR  SUBSTR(BIGSTR,CURR)=0-0,QL,BIGADDR
   000640    3 00000 0 0 0 0013        814         ADSC9   0,0,TINYLEN,TINYADDR TINYSTR=0-0,,TINYADDR
   000641 (2)000622 6010 00            815         TNZ     6IND3L          IF NOT FOUND HERE, LOOP.
                                       816  *                              -FOUND-
                                       817  *                              OCCURANCE OF -TINYSTR- FOUND IN BIGSTR
                                       818  *                              AT CURRENT POINT.
                                       819  *                              SET -RSLT-
                                       820  *                              MAKE -NORMAL- RETURN.
   000642    1 00000 7561 00           821         STQ     0,,RSLTADDR
   000643    000001 7100 11            822         TRA     1,1
                                       823  *                              -NOT-FOUND-
                                       824  *                              POINT IN -BIGSTR- REACHED WITH
                                       825  *                              INSUFFICENT CHARS LEFT TO HOLD TINYSTR.
                                       826  *                              SET -RSLT- TO LENGTHC(BIGSTR),
                                       827  *                              (WITH A-REG + Q-REG GIVING LENGTH),
                                       828  *                              MAKE -ALTRETURN- RETURN, NOT FOUND.
   000644                              829  6IND3X NULL
   000644    1 00000 7551 00           830         STA     0,,RSLTADDR
   000645    1 00000 0561 00           831         ASQ     0,,RSLTADDR
   000646    000000 7100 11            832         TRA     0,1
                                       833           END

  CONTROL SECTION TABLE

   0 CODE   EVEN  000001 X66_JUNK
   1 RODATA EVEN  000000 LITERALS
   2 CODE   EIGHT 000647 X66_PROCED

 09:08 07/30/97  FILE=X6M$CSEQM.:E05TSI       SYMBOL TABLE                                               36   BMAP - B00
 00101002 000000000603 6IND1         *722
 01101002 000000000612 6IND2          713      *736
 01101002 000000000624 6IND3          711      *780
 01101002 000000000622 6IND3L        *773       815
 01101002 000000000644 6IND3X         792       807      *829
 41000000 000000000002 AUTOPR         *41       110       111       112       115       116       117
                                      123       124       125       127       130       131       132
                                      133       139       140       141       143       145       148
                                      151       152       158       159       165       166       167
                                      169       171       174       178       180       181       189
                                      191       192       199       200       201       207       208
                                      209       211       213       216       220       223       224
                                      234       236       237       244       245       247       253
                                      254       255       261       262       263       265       267
                                      270       274       278       279       280       291       293
                                      294       296       305       306       309       310       322
                                      323       329       330       331       333       335       338
                                      344       350       353       354       374       380       387
                                      388       394       395       396       398       401       402
                                      403       404       411       421       423       426       428
                                      431       433       436       438       559       560       561
                                      562       566       567       568       569       591       592
                                      594       600       601       650       652       653       655
                                      659       660       662
 01101002 000000000545 AUTO_INIT      613      *623
 41000000 000000000000 BIGADDR       *688       724       738       787       813
 41000000 000000000000 BIGLEN        *689       706
 41000000 000000000000 CURR_          *53       112       117       125       132       141       148
 41000000 000000000001 DESCLISTPR     *40       147       172       214       268       336       406
                                      416       417       438       439
 40000000 000000000002 LIMIT_         *54
 40000000 000000000002 LOCOFENT_      *50
 41000000 000000000002 NEXT_          *49       123       133       139       152       159
 01101002 000000000406 NILPTR         246       252       315       320       368       373       379
                                      385      *461
 01101002 000000000044 NULL1          149      *156
 01101002 000000000070 NULL2          175      *185
 09:08 07/30/97  FILE=X6M$CSEQM.:E05TSI       SYMBOL TABLE                                               37   BMAP - B00
 01101002 000000000100 NULL20         186      *196
 01101002 000000000132 NULL3          217      *228
 01101002 000000000155 NULL30         229      *250
 01101002 000000000144 NULL31         230      *241
 01101002 000000000207 NULL4          271      *284
 01101002 000000000237 NULL40         285      *319
 01101002 000000000235 NULL41         286      *314
 01101002 000000000224 NULL42         287      *300
 01101002 000000000226 NULL4C1       *303       316
 01101002 000000000232 NULL4C2       *308       324
 01101002 000000000270 NULL5          339      *358
 01101002 000000000311 NULL50         359      *384
 01101002 000000000304 NULL51         360      *378
 01101002 000000000300 NULL52         361      *372
 01101002 000000000276 NULL53         362      *367
 01101002 000000000256 NULL5C0       *341       364
 01101002 000000000257 NULL5C1       *343       369
 01101002 000000000261 NULL5C2       *346       375
 01101002 000000000262 NULL5C3       *348       381
 01101002 000000000265 NULL5C4       *352       389
 01101002 000000000341 NULLN          407      *415
 03601000 000000000000 NULLSID        *43       157       188       198       233       292       301
                                      363       422       461       462
 40000000 000000000001 PARMREG1       *56
 40000000 000000000003 PARMREG2       *57
 40000000 000000000004 PARMREG3       *58
 40000000 000000000003 PARMS_         *51
 41000000 000000000000 PREV_          *47       127
 41000000 000000000000 PTRLISTPR      *39       150       177       179       190       218       219
                                      222       232       235       243       272       273       276
                                      277       289       290       295       302       307       340
                                      342       345       347       351       410       420       455
                                      467       471       479       483       484       492       496
                                      498       499       507       511       512       514       515
                                      527       535       540       541       546       547       548
 41000000 000000000000 RET_           *46       130       145
 41000000 000000000000 RET_PREV_      *48       110       115
 09:08 07/30/97  FILE=X6M$CSEQM.:E05TSI       SYMBOL TABLE                                               38   BMAP - B00
 41000000 000000000001 RSLTADDR      *690       705       708       726       730       740       746
                                      751       789       797       798       805       806       821
                                      830       831
 41000000 000000000003 TINYADDR      *686       725       739       788       814
 41000000 000000000003 TINYLEN       *687       710       712       805       813       814
 12101002 000000000000 X66             80      *107
 12101002 000000000004 X66_AALT        90      *115
 00101002 000000000512 X66_AAUNWIND  *587
 13101002 000000000000 X66_ARET        90      *110       121       137       155       163       184
                                      195       205       227       240       249       259       283
                                      299       313       318       327       357       371       377
                                      383       392       414       451       465       477       490
                                      505       521       557
 00101002 000000000512 X66_ASUNWIND  *588
 12101002 000000000512 X66_AUNWIND     95      *589
 12101002 000000000010 X66_AUTO_0      82      *122
 12101002 000000000024 X66_AUTO_1      82      *138
 12101002 000000000050 X66_AUTO_2      82      *164
 12101002 000000000110 X66_AUTO_3      83      *206
 12101002 000000000164 X66_AUTO_4      84      *260
 12101002 000000000244 X66_AUTO_5      84      *328
 12101002 000000000320 X66_AUTO_N      83      *393
 12101002 000000000505 X66_FAALT       92      *565
 12101002 000000000500 X66_FARET       92      *558
 12101002 000000000555 X66_FRAME_EXT  101      *648
 12101002 000000000565 X66_FRAME_KEXT           101      *658
 12101002 000000000572 X66_INDEX       99      *697
 00101002 000000000512 X66_MAUNWIND  *585
 12101002 000000000526 X66_MSTATIC     94      *606
 00101002 000000000512 X66_MSUNWIND  *586
 12101002 000000000467 X66_PREGS_1     97      *534
 12101002 000000000471 X66_PREGS_2     97      *539
 12101002 000000000474 X66_PREGS_3     97      *545
 12101002 000000000374 X66_STATIC_0    86      *445
 12101002 000000000400 X66_STATIC_1    86      *452
 12101002 000000000410 X66_STATIC_2    86      *466
 12101002 000000000420 X66_STATIC_3    87      *478
 09:08 07/30/97  FILE=X6M$CSEQM.:E05TSI       SYMBOL TABLE                                               39   BMAP - B00
 12101002 000000000430 X66_STATIC_4    88      *491
 12101002 000000000444 X66_STATIC_5    88      *506
 12101002 000000000460 X66_STATIC_N    87      *522
 00101002 000000000512 X66_SUNWIND   *590
 61000000 000000000500 _1            *121      *137      *155      *163      *184      *195      *205
                                     *227      *240      *249      *259      *283      *299      *313
                                     *318      *327      *357      *371      *377      *383      *392
                                     *414      *451      *465      *477      *490      *505      *521
                                     *557
 61000000 000000000010 _2            *121      *137      *155      *163      *184      *195      *205
                                     *227      *240      *249      *259      *283      *299      *313
                                     *318      *327      *357      *371      *377      *383      *392
                                     *414      *451      *465      *477      *490      *505      *521
                                     *557

      84 SYMBOLS

 09:08 07/30/97  FILE=X6M$CSEQM.:E05TSI       MACRO TABLE                                                40   BMAP - B00
 ALIGN          121       137       155       163       184       195       205       227       240
                249       259       283       299       313       318       327       357       371
                377       383       392       414       451       465       477       490       505
                521       557

       1 MACRO

    SYMBOL SPACE USED  1656 WORDS
     MACRO SPACE USED    65 WORDS
   INPUT RECORDS READ  1666
 STATEMENTS PROCESSED  1278
         ELAPSED TIME  0:12.92
             CPU TIME     6.85 SEC.
        ASSEMBLY RATE 11194 STATEMENTS/CPU MIN.

      NO ERRORS

