VERSION E05

 09:08 07/30/97  FILE=X6U$CSEQU.:E05TSI                                                                  1    BMAP - B00
                                         1  *M*      X66_CSEQU CALLING SEQUENCE ROUTINES FOR USER
                                         2  *T***********************************************************
                                         3  *T*                                                         *
                                         4  *T* Copyright (c) Bull HN Information Systems Inc., 1997    *
                                         5  *T*                                                         *
                                         6  *T***********************************************************
                                         7  *D*
                                         8  *D*      THE CALLING SEQUENCE ROUTINES ASSUME THAT THE BASE OF THE
                                         9  *D*      AUTOMATIC STORAGE SEGMENT HAS THE FOLLOWING LAYOUT:
                                        10  *D*      _________________________________________
                                        11  *D*      |                   |                   |
                                        12  *D*      |XXX                |NEG CURR OFFSET-1  |
                                        13  *D*      -----------------------------------------
                                        14  *D*      |                   |                   |
                                        15  *D*      |0                  |-1                 |
                                        16  *D*      -----------------------------------------
                                        17  *D*      |                   |                   |
                                        18  *D*      |LIMIT OFFSET       |AUTO_EXHAUSTED_LOC |
                                        19  *D*      _________________________________________
                                        20  *D*
                                        21  *D*
                                        22  *D*      EACH FRAME IS ASSUMED TO HAVE THE FOLLOWING FORMAT:
                                        23  *D*      ________________________________________
                                        24  *D*      |                   |                   |
                                        25  *D*      |RETURN ADDRESS(ALT)|NEG PREV OFFSET-1  |
                                        26  *D*      -----------------------------------------
                                        27  *D*      |                   |                   |
                                        28  *D*      |EXTENSION(0)       |LANG FLAG (-1)     |
                                        29  *D*      -----------------------------------------
                                        30  *D*      |                   |                   |
                                        31  *D*      |NEXT FRAME OFFSET+1|LOC OF ENTRY(M+A)  |
                                        32  *D*      _________________________________________
                                        33  *D*       parameter pointers(PTR) follow
                                        34  *D*
                                        35  *D*      STATIC 'FRAMES' ARE ASSUMED TO HAVE THE FOLLOWING FORMAT:
                                        36  *D*      -----------------------------------------
                                        37  *D*      |RETURN ADDRESS(ALT)|XXX                |
 09:08 07/30/97  FILE=X6U$CSEQU.:E05TSI                                                                  2    BMAP - B00
                                        38  *D*      -----------------------------------------
                                        39  *D*       parameter pointers(PTR) follow
                                        40  *D*

 09:08 07/30/97  FILE=X6U$CSEQU.:E05TSI                                                                  3    BMAP - B00
                                        41           EJECT
                                        42  ***************************************************************
                                        43  *        Please note that for proper operation of the         *
                                        44  *        MATERIALIZE clause of PL6, PR0 and PR1 must be       *
                                        45  *        preserved by all of the setup routines in here.      *
                                        46  *        This must never change.                              *
                                        47  ***************************************************************
             000000000000               48  PTRLISTPR EQU      0
             000000000001               49  DESCLISTPR EQU     1
             000000000002               50  AUTOPR   EQU       2
                                        51  *
                                        52           SEGREF    ISSID
                                        53           SEGREF    NULLSID
                                        54           SEGREF    DS1SID
                                        55           SEGREF    TCBSID
                                        56  *
             000000430001               57  GDS      BOOL      430001
             000000430002               58  FDS      BOOL      430002
             000000000001               59  EXIT     EQU       1
             000000000002               60  ERR      EQU       2
             000000000003               61  XXX      EQU       3
             000000010012               62  TRTN     EQU       4106
             000000010014               63  MERCS    EQU       4108
             000000040001               64  WRITE    BOOL      40001

 09:08 07/30/97  FILE=X6U$CSEQU.:E05TSI                                                                  4    BMAP - B00
                                        65           EJECT
                                        66  *                                      OFFSETS IN AUTO FRAME HDR
             000000000000               67  RET_     EQU       0
             000000000000               68  PREV_    EQU       0
             000000000000               69  RET_PREV_ EQU      0
             000000000002               70  NEXT_    EQU       2
             000000000002               71  LOCOFENT_ EQU      2
             000000000003               72  PARMS_   EQU       3
                                        73  *                                      OFFSETS IN AUTO BASE
             000000000000               74  CURR_    EQU       0
             000000000002               75  LIMIT_   EQU       2
                                        76  *                                      REGISTERS
             000000000001               77  PARMREG1 EQU       1
             000000000003               78  PARMREG2 EQU       3
             000000000004               79  PARMREG3 EQU       4

 09:08 07/30/97  FILE=X6U$CSEQU.:E05TSI                                                                  5    BMAP - B00
                                        80           EJECT
                                        81  *        ALIGN macro is used to reserve space up to the desired
                                        82  *        place within a four word block. The containing section must
                                        83  *        have the attribute EIGHT for ALIGN to work properly.
                                        84  *        Invoked as follows:
                                        85  *        ALIGN     {1,2,3,4}
                                        86  *
                                        87  ALIGN    MACRO
                                        88  _1       SET       *-X66_ARET
                                        89  _2       SET       _1/4*4
                                        90  _2       SET       _1-_2
                                        91  _2       SET       4+#1-_2
                                        92           IFE       _2,1
                                        93           BSS       1
                                        94           IFE       _2,2
                                        95           BSS       2
                                        96           IFE       _2,3
                                        97           BSS       3
                                        98           IFE       _2,5
                                        99           BSS       1
                                       100           IFE       _2,6
                                       101           BSS       2
                                       102           IFE       _2,7
                                       103           BSS       3
                                       104           ENDM

 09:08 07/30/97  FILE=X6U$CSEQU.:E05TSI                                                                  6    BMAP - B00
                                       105           EJECT
                                       106  *
                                       107           ENTDEF    X66_ARET,X66_AALT
                                       108           ENTDEF    X66_AUTO_0,X66_AUTO_1,X66_AUTO_2
                                       109           ENTDEF    X66_AUTO_3,X66_AUTO_N
                                       110           ENTDEF    X66_AUTO_4,X66_AUTO_5
                                       111           ENTDEF    X66_AUTO_Q
                                       112  *
                                       113           ENTDEF    X66_STATIC_0,X66_STATIC_1,X66_STATIC_2
                                       114           ENTDEF    X66_STATIC_3,X66_STATIC_N
                                       115           ENTDEF    X66_STATIC_4,X66_STATIC_5
                                       116  *
                                       117  *
                                       118           ENTDEF    X66_MAUTO,X66_MSTATIC
                                       119  *
                                       120           ENTDEF    X66_AAUTO,X66_ASTATIC
                                       121  *
                                       122           ENTDEF    X66_MARET,X66_MSRET
                                       123           ENTDEF    X66_MAALT,X66_MSALT
                                       124           ENTDEF    X66_AARET,X66_ASRET
                                       125           ENTDEF    X66_AAALT,X66_ASALT
                                       126  *
                                       127           ENTDEF    X66_FARET,X66_FAALT
                                       128  *
                                       129           ENTDEF    X66_MAUNWIND,X66_AAUNWIND,X66_AUNWIND
                                       130           ENTDEF    X66_MSUNWIND,X66_ASUNWIND,X66_SUNWIND
                                       131  *
                                       132           ENTDEF    X66_PREGS_1,X66_PREGS_2,X66_PREGS_3
                                       133  *
                                       134           ENTDEF    X66_INDEX
                                       135  *
                                       136           ENTDEF    X66_AUTO_ALLOC
                                       137           ENTDEF    X66_REL_AUTO,X66_AUTO_EX
                                       138           ENTDEF    X66_FRAME_EXT
                                       139           ENTDEF    X66_FRAME_KEXT
                                       140  *
                                       141           ENTDEF    X66_TRTN,X66_MERCS

 09:08 07/30/97  FILE=X6U$CSEQU.:E05TSI                                                                  7    BMAP - B00
                                       142           EJECT
                                       143           INHIB     ON
 0 000000                              144           USE       X66_PROCED,1
                                       145  *D*
                                       146  *D* X66_ARET       Normal return from current active AUTO procedure
                                       147  *D*                Uses Q; Sets PR2 to previous frame; other registers
                                       148  *D*                left unchanged.
                                       149  *
                                       150           EIGHT                         NEEDED TO MAKE ALIGN WORK
   000000                              151  X66      NULL
   000000    2 00000 2363 00           152  X66_ARET LDQ       RET_PREV_,,AUTOPR
   000001    2 00001 5276 06           153           SWDX      1+0,QL,AUTOPR
   000002    2 00001 7563 06           154           STQ       1+CURR_,QL,AUTOPR
   000003    000001 7102 02            155           TRA       1,QU
                                       156  *
                                       157  *D* X66_AALT       Alternate return from current active AUTO procedure
                                       158  *D*                Uses Q; Sets PR2 to previous frame; other registers
                                       159  *D*                left unchanged.
                                       160  *D*
                                       161  *
   000004    2 00000 2363 00           162  X66_AALT LDQ       RET_PREV_,,AUTOPR
   000005    2 00001 5276 06           163           SWDX      1+0,QL,AUTOPR
   000006    2 00001 7563 06           164           STQ       1+CURR_,QL,AUTOPR
   000007    000000 7102 02            165           TRA       0,QU

 09:08 07/30/97  FILE=X6U$CSEQU.:E05TSI                                                                  8    BMAP - B00
                                       166           EJECT
                                       167  *D*
                                       168  *D* X66_AUTO_0     Setup routine for AUTO procedures with no arguments
                                       169  *D*                expected.
                                       170  *D* X66_AUTO_1     Same but one arg expected
                                       171  *D* X66_AUTO_2     Same but two arg's expected
                                       172  *D* X66_AUTO_3     Same but three arg's expected
                                       173  *D* X66_AUTO_4     Same but four arg's expected
                                       174  *D* X66_AUTO_5     Same but five arg's expected
                                       175  *D* X66_AUTO_N     Same but any number of arg's expected. The number
                                       176  *D*                is specified in the right half of the word following
                                       177  *D*                the TSX0 X66_AUTO_N
                                       178  *D* X66_AUTO_Q     Same but frame size and number of arguments are
                                       179  *D*                contained in QU and QL respectively.
                                       180  *D*
                                       181  *D*                Each of the above routines sets up a new AUTO frame
                                       182  *D*                and sets up parameters in the new frame.
                                       183  *D*                Call: TSX0 X66_AUTO_n
                                       184  *D*                      ZERO frame size,number of args
                                       185  *D*                      continue ...
                                       186  *D*                CAUTION: Frame size must be even except for AUTO_Q
                                       187  *D*                Registers Used: A, Q, X0, X1, X2, X3, X4, PR0, PR1
                                       188  *D*
                                       189  *
                                       190  *
                                       191           ALIGN     4
   000010                              192  X66_AUTO_0 NULL
   000010    2 00002 3223 00           193           LCX2      NEXT_,,AUTOPR       NEG NEXT FRAME OFFSET
   000011    2 00001 5276 12           194           SWDX      1+0,2,AUTOPR        'NEXT' IS NOW CURRENT
   000012    2 00001 2373 12           195           LDAQ      1+CURR_,2,AUTOPR    GET OLD 'NEG CURRENT' ->A
                                       196  *                                      0, PL6 FLAG ->Q
   000013    2 00000 7573 00           197           STAQ      PREV_,,AUTOPR       'NEG CURRENT'->'NEG PREV'
                                       198  *                                      SET EXTENSION, FLAG
   000014    000000 2232 10            199           LDX3      0,0                 SIZE OF THIS FRAME
   000015    2 00000 7413 00           200           STX1      RET_,,AUTOPR        SAVE ALTRET ADDR
   000016    2 00001 6353 13           201           EAA       1+0,3,AUTOPR        CALCULATE NEW 'NEXT'
   000017    2 00001 4423 12           202           SXL2      1+CURR_,2,AUTOPR    SET 'NEG CURRENT'
 09:08 07/30/97  FILE=X6U$CSEQU.:E05TSI                                                                  9    BMAP - B00
   000020    2 00002 7553 00           203           STA       NEXT_,,AUTOPR       SET NEXT FRAME
   000021    2 00003 1153 12           204           CMPA      1+LIMIT_,2,AUTOPR   IS THERE ROOM?
   000022    000001 6022 10            205           TNC       1,0                 ENUF ROOM, GO
   000023 (0)001126 7102 00            206           TRA       ALLOCGO

 09:08 07/30/97  FILE=X6U$CSEQU.:E05TSI                                                                  10   BMAP - B00
                                       207           EJECT
                                       208  *
                                       209           ALIGN     4
   000024                              210  X66_AUTO_1 NULL
   000024    2 00002 3223 00           211           LCX2      NEXT_,,AUTOPR       NEG NEXT FRAME OFFSET
   000025    2 00001 5276 12           212           SWDX      1+0,2,AUTOPR        'NEXT' IS NOW CURRENT
   000026    2 00001 2373 12           213           LDAQ      1+CURR_,2,AUTOPR    GET OLD 'NEG CURRENT' ->A
                                       214  *                                      0, PL6 FLAG ->Q
   000027    2 00000 7573 00           215           STAQ      0,,AUTOPR           'NEG CURRENT'->'NEG PREV'
                                       216  *                                      SET EXTENSION, FLAG
   000030    2 00000 7413 00           217           STX1      RET_,,AUTOPR        SAVE ALTRET ADDR
   000031    000000 2232 10            218           LDX3      0,0                 SIZE OF THIS FRAME
   000032    1 00000 2243 00           219           LDX4      0,,DESCLISTPR       # OF ARGS PASSED
   000033    2 00001 4423 12           220           SXL2      1+CURR_,2,AUTOPR    SET 'NEG CURRENT'
   000034 (0)000044 6002 00            221           TZE       NULL1               GIVE ADDR(NIL)
   000035    0 00000 2363 00           222           LDQ       0,,PTRLISTPR        ADDR(ARG1)
   000036    2 00001 6353 13           223           EAA       1+0,3,AUTOPR        CALCULATE NEW 'NEXT'
   000037    2 00002 7573 00           224           STAQ      NEXT_,,AUTOPR       STORE NEXT FRAME,ADDR(ARG1)
   000040    2 00003 1153 12           225           CMPA      1+LIMIT_,2,AUTOPR   IS THERE ROOM?
   000041    000001 6022 10            226           TNC       1,0
   000042 (0)001126 7102 00            227           TRA       ALLOCGO
                                       228  *
                                       229           ALIGN     4
   000044                              230  NULL1    NULL
   000044  X 000000 2362 07            231           LDQ       NULLSID,DL
   000045    2 00001 6353 13           232           EAA       1+0,3,AUTOPR        CALCULATE NEW 'NEXT'
   000046    2 00003 1153 12           233           CMPA      1+LIMIT_,2,AUTOPR   IS THERE ROOM?
   000047    2 00002 7573 00           234           STAQ      NEXT_,,AUTOPR
   000050    000001 6022 10            235           TNC       1,0
   000051 (0)001126 7102 00            236           TRA       ALLOCGO

 09:08 07/30/97  FILE=X6U$CSEQU.:E05TSI                                                                  11   BMAP - B00
                                       237           EJECT
                                       238  *
                                       239           ALIGN     4
   000054                              240  X66_AUTO_2 NULL
   000054    2 00002 3223 00           241           LCX2      2,,AUTOPR           NEG NEXT FRAME OFFSET
   000055    2 00001 5276 12           242           SWDX      1+0,2,AUTOPR        'NEXT' IS NOW CURRENT
   000056    2 00001 2373 12           243           LDAQ      1+0,2,AUTOPR        GET OLD 'NEG CURRENT' ->A
                                       244  *                                      0, PL6 FLAG ->Q
   000057    2 00000 7573 00           245           STAQ      0,,AUTOPR           'NEG CURRENT'->'NEG PREV'
                                       246  *                                      SET EXTENSION, FLAG
   000060    2 00000 7413 00           247           STX1      0,,AUTOPR           SAVE ALTRET ADDR
   000061    1 00000 2243 00           248           LDX4      0,,DESCLISTPR       # OF ARGS PASSED
   000062    000001 1042 03            249           CMPX4     1,DU
   000063    2 00001 4423 12           250           SXL2      1+0,2,AUTOPR        SET 'NEG CURRENT'
   000064 (0)000100 6046 14            251           TMOZ      NULL2,4             GIVE 1 OR 2 ADDR(NIL)
   000065    000000 2232 10            252           LDX3      0,0                 SIZE OF THIS FRAME
   000066    0 00001 2363 00           253           LDQ       1,,PTRLISTPR        ADDR(ARG2)
   000067    2 00004 7563 00           254           STQ       4,,AUTOPR
   000070    0 00000 2363 00           255           LDQ       0,,PTRLISTPR        ADDR(ARG1)
   000071    2 00001 6353 13           256           EAA       1+0,3,AUTOPR        CALCULATE NEW 'NEXT'
   000072    2 00003 1153 12           257           CMPA      1+2,2,AUTOPR        IS THERE ROOM?
   000073    2 00002 7573 00           258           STAQ      2,,AUTOPR
   000074    000001 6022 10            259           TNC       1,0
   000075 (0)001126 7102 00            260           TRA       ALLOCGO
                                       261  *
                                       262           ALIGN     4
   000100                              263  NULL2    NULL
   000100 (0)000114 7102 00            264           TRA       NULL20              GIVE 2 NIL'S
   000101    000000 2232 10            265           LDX3      0,0                 SIZE OF THIS FRAME
   000102  X 000000 2362 07            266           LDQ       NULLSID,DL
   000103    2 00004 7563 00           267           STQ       4,,AUTOPR
   000104    0 00000 2363 00           268           LDQ       0,,PTRLISTPR        ADDR(ARG1)
   000105    2 00001 6353 13           269           EAA       1+0,3,AUTOPR        CALCULATE NEW 'NEXT'
   000106    2 00003 1153 12           270           CMPA      1+2,2,AUTOPR        IS THERE ROOM?
   000107    2 00002 7573 00           271           STAQ      2,,AUTOPR
   000110    000001 6022 10            272           TNC       1,0
   000111 (0)001126 7102 00            273           TRA       ALLOCGO
 09:08 07/30/97  FILE=X6U$CSEQU.:E05TSI                                                                  12   BMAP - B00
                                       274  *
                                       275           ALIGN     4
   000114                              276  NULL20   NULL
   000114    000000 2232 10            277           LDX3      0,0                 SIZE OF THIS FRAME
   000115  X 000000 2362 07            278           LDQ       NULLSID,DL
   000116    2 00001 6353 13           279           EAA       1+0,3,AUTOPR        CALCULATE NEW 'NEXT'
   000117    2 00004 7563 00           280           STQ       4,,AUTOPR
   000120    2 00002 7573 00           281           STAQ      2,,AUTOPR
   000121    2 00003 1153 12           282           CMPA      1+2,2,AUTOPR        IS THERE ROOM?
   000122    000001 6022 10            283           TNC       1,0
   000123 (0)001126 7102 00            284           TRA       ALLOCGO

 09:08 07/30/97  FILE=X6U$CSEQU.:E05TSI                                                                  13   BMAP - B00
                                       285           EJECT
                                       286  *
                                       287           ALIGN     4
   000124                              288  X66_AUTO_3 NULL
   000124    2 00002 3223 00           289           LCX2      2,,AUTOPR           NEG NEXT FRAME OFFSET
   000125    2 00001 5276 12           290           SWDX      1+0,2,AUTOPR        'NEXT' IS NOW CURRENT
   000126    2 00001 2373 12           291           LDAQ      1+0,2,AUTOPR        GET OLD 'NEG CURRENT' ->A
                                       292  *                                      0, PL6 FLAG ->Q
   000127    2 00000 7573 00           293           STAQ      0,,AUTOPR           'NEG CURRENT'->'NEG PREV'
                                       294  *                                      SET EXTENSION, FLAG
   000130    2 00000 7413 00           295           STX1      0,,AUTOPR           SAVE ALTRET ADDR
   000131    1 00000 2243 00           296           LDX4      0,,DESCLISTPR       # OF ARGS PASSED
   000132    000002 1042 03            297           CMPX4     2,DU
   000133    2 00001 4423 12           298           SXL2      1+0,2,AUTOPR        SET 'NEG CURRENT'
   000134 (0)000147 6046 14            299           TMOZ      NULL3,4             GIVE 1,2, OR 3 ADDR(NIL)
   000135    0 00001 2353 00           300           LDA       1,,PTRLISTPR        ADDR(ARG2)
   000136    0 00002 2363 00           301           LDQ       2,,PTRLISTPR        ADDR(ARG3)
   000137    2 00004 7573 00           302           STAQ      4,,AUTOPR
   000140    000000 2232 10            303           LDX3      0,0                 SIZE OF THIS FRAME
   000141    0 00000 2363 00           304           LDQ       0,,PTRLISTPR        ADDR(ARG1)
   000142    2 00001 6353 13           305           EAA       1+0,3,AUTOPR        CALCULATE NEW 'NEXT'
   000143    2 00002 7573 00           306           STAQ      2,,AUTOPR
   000144    2 00003 1153 12           307           CMPA      1+2,2,AUTOPR        IS THERE ROOM?
   000145    000001 6022 10            308           TNC       1,0
   000146 (0)001126 7102 00            309           TRA       ALLOCGO
                                       310  *
                                       311           ALIGN     3
   000147                              312  NULL3    NULL
   000147 (0)000175 7102 00            313           TRA       NULL30
   000150 (0)000164 7102 00            314           TRA       NULL31
   000151    0 00001 2353 00           315           LDA       1,,PTRLISTPR        ADDR(ARG2)
   000152  X 000000 2362 07            316           LDQ       NULLSID,DL
   000153    2 00004 7573 00           317           STAQ      4,,AUTOPR
   000154    000000 2232 10            318           LDX3      0,0                 SIZE OF THIS FRAME
   000155    0 00000 2363 00           319           LDQ       0,,PTRLISTPR        ADDR(ARG1)
   000156    2 00001 6353 13           320           EAA       1+0,3,AUTOPR        CALCULATE NEW 'NEXT'
   000157    2 00002 7573 00           321           STAQ      2,,AUTOPR
 09:08 07/30/97  FILE=X6U$CSEQU.:E05TSI                                                                  14   BMAP - B00
   000160    2 00003 1153 12           322           CMPA      1+2,2,AUTOPR        IS THERE ROOM?
   000161    000001 6022 10            323           TNC       1,0
   000162 (0)001126 7102 00            324           TRA       ALLOCGO
                                       325  *
                                       326           ALIGN     4
   000164                              327  NULL31   NULL
   000164 (3)000000 2372 00            328           LDAQ      NILPTR
   000165    2 00004 7573 00           329           STAQ      4,,AUTOPR
   000166    000000 2232 10            330           LDX3      0,0
   000167    0 00000 2363 00           331           LDQ       0,,PTRLISTPR
   000170    2 00001 6353 13           332           EAA       1+0,3,AUTOPR
   000171    2 00002 7573 00           333           STAQ      2,,AUTOPR
   000172    2 00003 1153 12           334           CMPA      1+2,2,AUTOPR
   000173    000001 6022 10            335           TNC       1,0
   000174 (0)001126 7102 00            336           TRA       ALLOCGO
                                       337           ALIGN     1
   000175                              338  NULL30   NULL
   000175    000000 2232 10            339           LDX3      0,0
   000176 (3)000000 2372 00            340           LDAQ      NILPTR
   000177    2 00004 7573 00           341           STAQ      4,,AUTOPR
   000200    2 00001 6353 13           342           EAA       1+0,3,AUTOPR
   000201    2 00002 7573 00           343           STAQ      2,,AUTOPR
   000202    2 00003 1153 12           344           CMPA      1+2,2,AUTOPR
   000203    000001 6022 10            345           TNC       1,0
   000204 (0)001126 7102 00            346           TRA       ALLOCGO

 09:08 07/30/97  FILE=X6U$CSEQU.:E05TSI                                                                  15   BMAP - B00
                                       347           EJECT
                                       348  *
                                       349           ALIGN     4
   000210                              350  X66_AUTO_4 NULL
   000210    2 00002 3223 00           351           LCX2      2,,AUTOPR           NEG NEXT FRAME OFFSET
   000211    2 00001 5276 12           352           SWDX      1+0,2,AUTOPR        'NEXT' IS NOW CURRENT
   000212    2 00001 2373 12           353           LDAQ      1+0,2,AUTOPR        GET OLD 'NEG CURRENT' ->A
                                       354  *                                      0, PL6 FLAG ->Q
   000213    2 00000 7573 00           355           STAQ      0,,AUTOPR           'NEG CURRENT'->'NEG PREV'
                                       356  *                                      SET EXTENSION, FLAG
   000214    2 00000 7413 00           357           STX1      0,,AUTOPR           SAVE ALTRET ADDR
   000215    1 00000 2243 00           358           LDX4      0,,DESCLISTPR       # OF ARGS PASSED
   000216    000003 1042 03            359           CMPX4     3,DU
   000217    2 00001 4423 12           360           SXL2      1+0,2,AUTOPR        SET 'NEG CURRENT'
   000220 (0)000235 6046 14            361           TMOZ      NULL4,4             GIVE 1,2, OR 3 ADDR(NIL)
   000221    0 00001 2353 00           362           LDA       1,,PTRLISTPR        ADDR(ARG2)
   000222    0 00002 2363 00           363           LDQ       2,,PTRLISTPR        ADDR(ARG3)
   000223    2 00004 7573 00           364           STAQ      4,,AUTOPR
   000224    000000 2232 10            365           LDX3      0,0                 SIZE OF THIS FRAME
   000225    0 00000 2363 00           366           LDQ       0,,PTRLISTPR        ADDR(ARG1)
   000226    0 00003 2353 00           367           LDA       3,,PTRLISTPR
   000227    2 00006 7553 00           368           STA       6,,AUTOPR
   000230    2 00001 6353 13           369           EAA       1+0,3,AUTOPR        CALCULATE NEW 'NEXT'
   000231    2 00002 7573 00           370           STAQ      2,,AUTOPR
   000232    2 00003 1153 12           371           CMPA      1+2,2,AUTOPR        IS THERE ROOM?
   000233    000001 6022 10            372           TNC       1,0
   000234 (0)001126 7102 00            373           TRA       ALLOCGO
                                       374  *
                                       375           ALIGN     1
   000235                              376  NULL4    NULL
   000235 (0)000275 7102 00            377           TRA       NULL40
   000236 (0)000270 7102 00            378           TRA       NULL41
   000237 (0)000254 7102 00            379           TRA       NULL42
   000240    000000 2232 10            380           LDX3      0,0
   000241    0 00001 2353 00           381           LDA       1,,PTRLISTPR
   000242    0 00002 2363 00           382           LDQ       2,,PTRLISTPR
   000243    2 00004 7573 00           383           STAQ      4,,AUTOPR
 09:08 07/30/97  FILE=X6U$CSEQU.:E05TSI                                                                  16   BMAP - B00
   000244  X 000000 2362 07            384           LDQ       NULLSID,DL
   000245    2 00006 7563 00           385           STQ       6,,AUTOPR
   000246    2 00001 6353 13           386           EAA       1+0,3,AUTOPR
   000247    0 00000 2363 00           387           LDQ       0,,PTRLISTPR
   000250    2 00002 7573 00           388           STAQ      2,,AUTOPR
   000251    2 00003 1153 12           389           CMPA      1+2,2,AUTOPR
   000252    000001 6022 10            390           TNC       1,0
   000253 (0)001126 7102 00            391           TRA       ALLOCGO
                                       392  *
                                       393           ALIGN     4
   000254                              394  NULL42   NULL
   000254  X 000000 2362 07            395           LDQ       NULLSID,DL
   000255    0 00001 2353 00           396           LDA       1,,PTRLISTPR
   000256                              397  NULL4C1  NULL
   000256    000000 2232 10            398           LDX3      0,0
   000257    2 00006 7563 00           399           STQ       6,,AUTOPR
   000260    2 00004 7573 00           400           STAQ      4,,AUTOPR
   000261    0 00000 2363 00           401           LDQ       0,,PTRLISTPR
   000262                              402  NULL4C2  NULL
   000262    2 00001 6353 13           403           EAA       1+0,3,AUTOPR
   000263    2 00002 7573 00           404           STAQ      2,,AUTOPR
   000264    2 00003 1153 12           405           CMPA      1+2,2,AUTOPR
   000265    000001 6022 10            406           TNC       1,0
   000266 (0)001126 7102 00            407           TRA       ALLOCGO
                                       408  *
                                       409           ALIGN     4
   000270                              410  NULL41   NULL
   000270 (3)000000 2372 00            411           LDAQ      NILPTR
   000271 (0)000256 7102 00            412           TRA       NULL4C1
                                       413  *
                                       414           ALIGN     1
   000275                              415  NULL40   NULL
   000275 (3)000000 2372 00            416           LDAQ      NILPTR
   000276    000000 2232 10            417           LDX3      0,0
   000277    2 00006 7563 00           418           STQ       6,,AUTOPR
   000300    2 00004 7573 00           419           STAQ      4,,AUTOPR
   000301 (0)000262 7102 00            420           TRA       NULL4C2

 09:08 07/30/97  FILE=X6U$CSEQU.:E05TSI                                                                  17   BMAP - B00
                                       421           EJECT
                                       422  *
                                       423           ALIGN     4
   000304                              424  X66_AUTO_5 NULL
   000304    2 00002 3223 00           425           LCX2      2,,AUTOPR           NEG NEXT FRAME OFFSET
   000305    2 00001 5276 12           426           SWDX      1+0,2,AUTOPR        'NEXT' IS NOW CURRENT
   000306    2 00001 2373 12           427           LDAQ      1+0,2,AUTOPR        GET OLD 'NEG CURRENT' ->A
                                       428  *                                      0, PL6 FLAG ->Q
   000307    2 00000 7573 00           429           STAQ      0,,AUTOPR           'NEG CURRENT'->'NEG PREV'
                                       430  *                                      SET EXTENSION, FLAG
   000310    2 00000 7413 00           431           STX1      0,,AUTOPR           SAVE ALTRET ADDR
   000311    1 00000 2243 00           432           LDX4      0,,DESCLISTPR       # OF ARGS PASSED
   000312    000004 1042 03            433           CMPX4     4,DU
   000313    2 00001 4423 12           434           SXL2      1+0,2,AUTOPR        SET 'NEG CURRENT'
   000314 (0)000334 6046 14            435           TMOZ      NULL5,4             GIVE 1,2, OR 3 ADDR(NIL)
   000315    0 00004 2363 00           436           LDQ       4,,PTRLISTPR
   000316                              437  NULL5C0  NULL
   000316    0 00003 2353 00           438           LDA       3,,PTRLISTPR
   000317                              439  NULL5C1  NULL
   000317    2 00006 7573 00           440           STAQ      6,,AUTOPR
   000320    0 00002 2363 00           441           LDQ       2,,PTRLISTPR        ADDR(ARG3)
   000321                              442  NULL5C2  NULL
   000321    0 00001 2353 00           443           LDA       1,,PTRLISTPR        ADDR(ARG2)
   000322                              444  NULL5C3  NULL
   000322    000000 2232 10            445           LDX3      0,0                 SIZE OF THIS FRAME
   000323    2 00004 7573 00           446           STAQ      4,,AUTOPR
   000324    0 00000 2363 00           447           LDQ       0,,PTRLISTPR        ADDR(ARG1)
   000325                              448  NULL5C4  NULL
   000325    2 00001 6353 13           449           EAA       1+0,3,AUTOPR        CALCULATE NEW 'NEXT'
   000326    2 00003 1153 12           450           CMPA      1+2,2,AUTOPR        IS THERE ROOM?
   000327    2 00002 7573 00           451           STAQ      2,,AUTOPR
   000330    000001 6022 10            452           TNC       1,0
   000331 (0)001126 7102 00            453           TRA       ALLOCGO
                                       454  *
                                       455           ALIGN     4
   000334                              456  NULL5    NULL
   000334 (0)000355 7102 00            457           TRA       NULL50
 09:08 07/30/97  FILE=X6U$CSEQU.:E05TSI                                                                  18   BMAP - B00
   000335 (0)000350 7102 00            458           TRA       NULL51
   000336 (0)000344 7102 00            459           TRA       NULL52
   000337 (0)000342 7102 00            460           TRA       NULL53
   000340  X 000000 2362 07            461           LDQ       NULLSID,DL
   000341 (0)000316 7102 00            462           TRA       NULL5C0
                                       463  *
                                       464           EVEN
   000342                              465  NULL53   NULL
   000342 (3)000000 2372 00            466           LDAQ      NILPTR
   000343 (0)000317 7102 00            467           TRA       NULL5C1
                                       468  *
                                       469           ALIGN     4
   000344                              470  NULL52   NULL
   000344 (3)000000 2372 00            471           LDAQ      NILPTR
   000345    2 00006 7573 00           472           STAQ      6,,AUTOPR
   000346 (0)000321 7102 00            473           TRA       NULL5C2
                                       474  *
                                       475           ALIGN     4
   000350                              476  NULL51   NULL
   000350 (3)000000 2372 00            477           LDAQ      NILPTR
   000351    2 00006 7573 00           478           STAQ      6,,AUTOPR
   000352 (0)000322 7102 00            479           TRA       NULL5C3
                                       480  *
                                       481           ALIGN     1
   000355                              482  NULL50   NULL
   000355 (3)000000 2372 00            483           LDAQ      NILPTR
   000356    000000 2232 10            484           LDX3      0,0
   000357    2 00006 7573 00           485           STAQ      6,,AUTOPR
   000360    2 00004 7573 00           486           STAQ      4,,AUTOPR
   000361 (0)000325 7102 00            487           TRA       NULL5C4

 09:08 07/30/97  FILE=X6U$CSEQU.:E05TSI                                                                  19   BMAP - B00
                                       488           EJECT
                                       489  *
                                       490           ALIGN     4
   000364                              491  X66_AUTO_N NULL
   000364    2 00002 3223 00           492           LCX2      2,,AUTOPR           NEG NEXT FRAME OFFSET
   000365    2 00001 5276 12           493           SWDX      1+0,2,AUTOPR        'NEXT' IS NOW CURRENT
   000366    2 00001 2373 12           494           LDAQ      1+0,2,AUTOPR        GET OLD 'NEG CURRENT' ->A
                                       495  *                                      0, PL6 FLAG ->Q
   000367    2 00000 7573 00           496           STAQ      0,,AUTOPR           'NEG CURRENT'->'NEG PREV'
                                       497  *                                      SET EXTENSION, FLAG
   000370    000000 2362 10            498           LDQ       0,0                 SIZE OF THIS FRAME,#PARMS
   000371                              499  GOTQ     NULL
   000371    2 00000 7413 00           500           STX1      0,,AUTOPR           SAVE ALTRET ADDR
   000372    2 00001 6353 02           501           EAA       1+0,QU,AUTOPR       CALCULATE NEW 'NEXT'
   000373    2 00001 4423 12           502           SXL2      1+0,2,AUTOPR        SET 'NEG CURRENT'
   000374                              503  TESTN    NULL
   000374    000000 6232 06            504           EAX3      0,QL                # PARAMS EXPECTED
   000375    2 00003 1153 12           505           CMPA      1+2,2,AUTOPR        IS THERE ROOM?
   000376 (0)000677 6032 00            506           TRC       ALLOCN              NEED SPACE
   000377    2 00002 7553 00           507           STA       2,,AUTOPR           SET NEXT FRAME
   000400    1 00000 1233 00           508           SBLX3     0,,DESCLISTPR       CHECK AGAINST # OF ARGS
   000401 (0)000410 6056 00            509           TPNZ      NULLN
   000402    000002 7362 00            510           QLS       2                   BYTES TO MOVE TO Q
   000403    000 0 140 1007 40         511           MLR       (1,1),(1,1)
   000404    0 00000 0 0 0 0006        512           ADSC9     0,,Q,PTRLISTPR
   000405    2 00003 0 0 0 0006        513           ADSC9     3,,Q,AUTOPR
   000406    000001 7102 10            514           TRA       1,0
                                       515  *
                                       516           ALIGN     4
   000410                              517  NULLN    NULL
   000410    1 00000 2363 00           518           LDQ       0,,DESCLISTPR
   000411    1 00000 2353 00           519           LDA       0,,DESCLISTPR
   000412    000020 7322 00            520           QRS       16
   000413    000 0 140 1007 40         521           MLR       (1,1),(1,1)
   000414    0 00000 0 0 0 0006        522           ADSC9     0,,Q,PTRLISTPR
   000415    2 00003 0 0 0 0006        523           ADSC9     3,,Q,AUTOPR
   000416  X 000000 2362 07            524           LDQ       NULLSID,DL
 09:08 07/30/97  FILE=X6U$CSEQU.:E05TSI                                                                  20   BMAP - B00
   000417    2 00003 7563 01           525           STQ       1+2,AU,AUTOPR
   000420    000002 1032 03            526           CMPX3     2,DU
   000421    000001 6042 10            527           TMI       1,0
   000422    2 00004 7563 01           528           STQ       2+2,AU,AUTOPR
   000423    000001 6002 10            529           TZE       1,0
   000424    2 00005 7563 01           530           STQ       3+2,AU,AUTOPR
   000425    000004 1032 03            531           CMPX3     4,DU
   000426    000001 6042 10            532           TMI       1,0
   000427    2 00006 7563 01           533           STQ       4+2,AU,AUTOPR
   000430    000001 6002 10            534           TZE       1,0
   000431    2 00007 7563 01           535           STQ       5+2,AU,AUTOPR
   000432    000006 1232 03            536           SBLX3     6,DU
   000433    000001 6042 10            537           TMI       1,0
   000434    2 00010 7563 01           538           STQ       6+2,AU,AUTOPR
   000435    000001 6002 10            539           TZE       1,0
   000436    2 00002 6337 01           540           EPPR      3,2,AU,AUTOPR
   000437    3 00006 7563 13           541           STQ       6,3,3
   000440    000001 1232 03            542           SBLX3     1,DU
   000441    777776 6056 04            543           TPNZ      -2,IC
   000442    000001 7102 10            544           TRA       1,0

 09:08 07/30/97  FILE=X6U$CSEQU.:E05TSI                                                                  21   BMAP - B00
                                       545           EJECT
                                       546  *
   000443                              547  X66_AUTO_Q NULL
   000443    2 00002 3223 00           548           LCX2      2,,AUTOPR           NEG NEXT FRAME OFFSET
   000444    2 00001 5276 12           549           SWDX      1+0,2,AUTOPR        'NEXT' IS NOW CURRENT
   000445    2 00002 7563 00           550           STQ       2,,AUTOPR
   000446    2 00001 2373 12           551           LDAQ      1+0,2,AUTOPR        GET OLD 'NEG CURRENT' ->A
                                       552  *                                      0, PL6 FLAG ->Q
   000447    2 00000 7573 00           553           STAQ      0,,AUTOPR           'NEG CURRENT'->'NEG PREV'
                                       554  *                                      SET EXTENSION, FLAG
   000450    2 00002 2363 00           555           LDQ       2,,AUTOPR
   000451    000001 0362 03            556           ADLQ      1,DU                ROUND TO INSURE EVEN
   000452 (3)000112 3762 00            557           ANQ       EVENUPPERMASK
   000453 (0)000371 7102 00            558           TRA       GOTQ

 09:08 07/30/97  FILE=X6U$CSEQU.:E05TSI                                                                  22   BMAP - B00
                                       559           EJECT
                                       560  *D*
                                       561  *D* X66_STATIC_0,X66_STATIC_1,...,X66_STATIC_N
                                       562  *D*                Complement of routines for setup of arguments
                                       563  *D*                for NOAUTO procedures.
                                       564  *D*                Return address is stored and param PTRS are set up
                                       565  *D*                Call: TSX0 X66_STATIC_n
                                       566  *D*                      ZERO 'frame' location,number of args
                                       567  *D*                      continue ...
                                       568  *D*                CAUTION: Frame loc must be double word address.
                                       569  *D*                Registers Used: A, Q, X0, X1, X2, X3, X4, PR0, PR1
                                       570  *D*
                                       571  *
   000454                              572  X66_STATIC_0 NULL
   000454    000000 2222 10            573           LDX2      0,0                 ADDR('STATIC AUTO' FRAME)
   000455    000000 7412 12            574           STX1      0,2                 RET ADDR
   000456    000001 7102 10            575           TRA       1,0

 09:08 07/30/97  FILE=X6U$CSEQU.:E05TSI                                                                  23   BMAP - B00
                                       576           EJECT
                                       577  *
                                       578           ALIGN     4
   000460                              579  X66_STATIC_1 NULL
   000460    1 00000 2233 00           580           LDX3      0,,DESCLISTPR       # OF ARGS PASSED
   000461 (0)000470 6002 00            581           TZE       NULL1S              GIVE ADDR(NIL)
   000462    000000 6352 11            582           EAA       0,1
   000463    000000 2222 10            583           LDX2      0,0
   000464    0 00000 2363 00           584           LDQ       0,,PTRLISTPR        ADDR(ARG1)
   000465    000000 7572 12            585           STAQ      0,2
   000466    000001 7102 10            586           TRA       1,0
                                       587  *
                                       588           ALIGN     4
   000470                              589  NULL1S   NULL
   000470    000000 2222 10            590           LDX2      0,0
   000471  X 000000 2362 07            591           LDQ       NULLSID,DL
   000472    000000 6352 11            592           EAA       0,1
   000473    000000 7572 12            593           STAQ      0,2
   000474    000001 7102 10            594           TRA       1,0

 09:08 07/30/97  FILE=X6U$CSEQU.:E05TSI                                                                  24   BMAP - B00
                                       595           EJECT
                                       596  *
                                       597           ALIGN     4
   000500                              598  X66_STATIC_2 NULL
   000500    1 00000 2233 00           599           LDX3      0,,DESCLISTPR       #ARGS
   000501    000000 2222 10            600           LDX2      0,0                 ADDR(RET,PARAM BLOCK)
   000502    000001 1032 03            601           CMPX3     1,DU
   000503    000000 7412 12            602           STX1      0,2
   000504 (0)000514 6046 13            603           TMOZ      NULL2S,3            NOT ENOUGH PASSED
   000505    0 00001 2363 00           604           LDQ       1,,PTRLISTPR
   000506    0 00000 2353 00           605           LDA       0,,PTRLISTPR
   000507    000002 7562 12            606           STQ       2,2
   000510    000001 7552 12            607           STA       1,2                 SAVE RET, PARAM1
   000511    000001 7102 10            608           TRA       1,0
                                       609  *
                                       610           ALIGN     4
   000514                              611  NULL2S   NULL
   000514 (0)000524 7102 00            612           TRA       NULL20S             NO ARGS PASSED
   000515    0 00000 2353 00           613           LDA       0,,PTRLISTPR
   000516  X 000000 2362 07            614           LDQ       NULLSID,DL
   000517    000001 7552 12            615           STA       1,2                 SAVE RET, PARAM1
   000520    000002 7562 12            616           STQ       2,2
   000521    000001 7102 10            617           TRA       1,0
                                       618  *
                                       619           ALIGN     4
   000524                              620  NULL20S  NULL
   000524  X 000000 2362 07            621           LDQ       NULLSID,DL
   000525    000002 7562 12            622           STQ       2,2
   000526    000001 7562 12            623           STQ       1,2                 SAVE RET, PARAM1
   000527    000001 7102 10            624           TRA       1,0

 09:08 07/30/97  FILE=X6U$CSEQU.:E05TSI                                                                  25   BMAP - B00
                                       625           EJECT
                                       626  *
                                       627           ALIGN     4
   000530                              628  X66_STATIC_3 NULL
   000530    1 00000 2233 00           629           LDX3      0,,DESCLISTPR
   000531    000000 2222 10            630           LDX2      0,0
   000532    000002 1032 03            631           CMPX3     2,DU
   000533    000000 7412 12            632           STX1      0,2
   000534 (0)000543 6046 13            633           TMOZ      NULL3S,3
   000535    0 00001 2353 00           634           LDA       1,,PTRLISTPR
   000536    0 00002 2363 00           635           LDQ       2,,PTRLISTPR
   000537    000002 7572 12            636           STAQ      2,2
   000540    0 00000 2363 00           637           LDQ       0,,PTRLISTPR
   000541    000001 7562 12            638           STQ       1,2
   000542    000001 7102 10            639           TRA       1,0
                                       640  *
                                       641           ALIGN     3
   000543                              642  NULL3S   NULL
   000543 (0)000564 7102 00            643           TRA       NULL30S
   000544 (0)000554 7102 00            644           TRA       NULL31S
   000545    0 00001 2353 00           645           LDA       1,,PTRLISTPR
   000546  X 000000 2362 07            646           LDQ       NULLSID,DL
   000547    000002 7572 12            647           STAQ      2,2
   000550    0 00000 2363 00           648           LDQ       0,,PTRLISTPR
   000551    000001 7562 12            649           STQ       1,2
   000552    000001 7102 10            650           TRA       1,0
                                       651  *
                                       652           ALIGN     4
   000554                              653  NULL31S  NULL
   000554    0 00000 2363 00           654           LDQ       0,,PTRLISTPR
   000555    000001 7562 12            655           STQ       1,2
   000556 (3)000000 2372 00            656           LDAQ      NILPTR
   000557    000002 7572 12            657           STAQ      2,2
   000560    000001 7102 10            658           TRA       1,0
                                       659  *
                                       660           ALIGN     4
   000564                              661  NULL30S  NULL
 09:08 07/30/97  FILE=X6U$CSEQU.:E05TSI                                                                  26   BMAP - B00
   000564 (3)000000 2372 00            662           LDAQ      NILPTR
   000565    000002 7572 12            663           STAQ      2,2
   000566    000001 7552 12            664           STA       1,2
   000567    000001 7102 10            665           TRA       1,0

 09:08 07/30/97  FILE=X6U$CSEQU.:E05TSI                                                                  27   BMAP - B00
                                       666           EJECT
                                       667  *
                                       668           ALIGN     4
   000570                              669  X66_STATIC_4 NULL
   000570    1 00000 2233 00           670           LDX3      0,,DESCLISTPR
   000571    000000 2222 10            671           LDX2      0,0
   000572    000003 1032 03            672           CMPX3     3,DU
   000573    000000 7412 12            673           STX1      0,2
   000574 (0)000605 6046 13            674           TMOZ      NULL4S,3
   000575    0 00003 2353 00           675           LDA       3,,PTRLISTPR
   000576                              676  COMM4S   NULL
   000576    0 00002 2363 00           677           LDQ       2,,PTRLISTPR
   000577                              678  COMM42S  NULL
   000577    000004 7552 12            679           STA       4,2
   000600    0 00001 2353 00           680           LDA       1,,PTRLISTPR
   000601                              681  COMM41S  NULL
   000601    000002 7572 12            682           STAQ      2,2
   000602    0 00000 2363 00           683           LDQ       0,,PTRLISTPR
   000603    000001 7562 12            684           STQ       1,2
   000604    000001 7102 10            685           TRA       1,0
                                       686  *
                                       687           ALIGN     1
   000605                              688  NULL4S   NULL
   000605 (0)000622 7102 00            689           TRA       NULL40S
   000606 (0)000614 7102 00            690           TRA       NULL41S
   000607 (0)000612 7102 00            691           TRA       NULL42S
   000610  X 000000 2352 07            692           LDA       NULLSID,DL
   000611 (0)000576 7102 00            693           TRA       COMM4S
                                       694  *
                                       695           EVEN
   000612                              696  NULL42S  NULL
   000612 (3)000000 2372 00            697           LDAQ      NILPTR
   000613 (0)000577 7102 00            698           TRA       COMM42S
                                       699  *
                                       700           EVEN
   000614                              701  NULL41S  NULL
   000614 (3)000000 2372 00            702           LDAQ      NILPTR
 09:08 07/30/97  FILE=X6U$CSEQU.:E05TSI                                                                  28   BMAP - B00
   000615    000004 7552 12            703           STA       4,2
   000616 (0)000601 7102 00            704           TRA       COMM41S
                                       705  *
                                       706           ALIGN     2
   000622                              707  NULL40S  NULL
   000622 (3)000000 2372 00            708           LDAQ      NILPTR
   000623    000004 7552 12            709           STA       4,2
   000624    000002 7572 12            710           STAQ      2,2
   000625    000001 7562 12            711           STQ       1,2
   000626    000001 7102 10            712           TRA       1,0

 09:08 07/30/97  FILE=X6U$CSEQU.:E05TSI                                                                  29   BMAP - B00
                                       713           EJECT
                                       714  *
                                       715           ALIGN     4
   000630                              716  X66_STATIC_5 NULL
   000630    1 00000 2233 00           717           LDX3      0,,DESCLISTPR
   000631    000000 2222 10            718           LDX2      0,0
   000632    000004 1032 03            719           CMPX3     4,DU
   000633    000000 7412 12            720           STX1      0,2
   000634 (0)000650 6046 13            721           TMOZ      NULL5S,3
   000635    0 00004 2363 00           722           LDQ       4,,PTRLISTPR
   000636                              723  COMM54S  NULL
   000636    0 00003 2353 00           724           LDA       3,,PTRLISTPR
   000637                              725  COMM53S  NULL
   000637    000004 7572 12            726           STAQ      4,2
   000640    0 00002 2363 00           727           LDQ       2,,PTRLISTPR
   000641                              728  COMM52S  NULL
   000641    0 00001 2353 00           729           LDA       1,,PTRLISTPR
   000642                              730  COMM51S  NULL
   000642    000002 7572 12            731           STAQ      2,2
   000643    0 00000 2363 00           732           LDQ       0,,PTRLISTPR
   000644    000001 7562 12            733           STQ       1,2
   000645    000001 7102 10            734           TRA       1,0
                                       735  *
                                       736           ALIGN     4
   000650                              737  NULL5S   NULL
   000650 (0)000672 7102 00            738           TRA       NULL50S
   000651 (0)000664 7102 00            739           TRA       NULL51S
   000652 (0)000660 7102 00            740           TRA       NULL52S
   000653 (0)000656 7102 00            741           TRA       NULL53S
   000654  X 000000 2362 07            742           LDQ       NULLSID,DL
   000655 (0)000636 7102 00            743           TRA       COMM54S
                                       744  *
                                       745           EVEN
   000656                              746  NULL53S  NULL
   000656 (3)000000 2372 00            747           LDAQ      NILPTR
   000657 (0)000637 7102 00            748           TRA       COMM53S
                                       749  *
 09:08 07/30/97  FILE=X6U$CSEQU.:E05TSI                                                                  30   BMAP - B00
                                       750           ALIGN     4
   000660                              751  NULL52S  NULL
   000660 (3)000000 2372 00            752           LDAQ      NILPTR
   000661    000004 7572 12            753           STAQ      4,2
   000662 (0)000641 7102 00            754           TRA       COMM52S
                                       755  *
                                       756           ALIGN     4
   000664                              757  NULL51S  NULL
   000664 (3)000000 2372 00            758           LDAQ      NILPTR
   000665    000004 7572 12            759           STAQ      4,2
   000666 (0)000642 7102 00            760           TRA       COMM51S
                                       761  *
                                       762           ALIGN     2
   000672                              763  NULL50S  NULL
   000672 (3)000000 2372 00            764           LDAQ      NILPTR
   000673    000004 7572 12            765           STAQ      4,2
   000674    000002 7572 12            766           STAQ      2,2
   000675    000001 7562 12            767           STQ       1,2
   000676    000001 7102 10            768           TRA       1,0
                                       769  *
                                       770  *
   000677                              771  ALLOCN   NULL
   000677    2 00002 7553 00           772           STA       2,,AUTOPR
   000700    2 00003 4507 00           773           STP0      3,,AUTOPR
   000701 (0)001131 7042 00            774           TSX4      X66_AUTO_ALLOC
   000702 (0)001102 7102 00            775           TRA       AUTONOTAVAIL
   000703    2 00003 4707 00           776           LDP0      3,,AUTOPR
   000704 (0)000374 7102 00            777           TRA       TESTN

 09:08 07/30/97  FILE=X6U$CSEQU.:E05TSI                                                                  31   BMAP - B00
                                       778           EJECT
                                       779  *
                                       780           ALIGN     4
   000710                              781  X66_STATIC_N NULL
   000710    000000 2362 10            782           LDQ       0,0                 LOC OF FRAME,#PARAMS
   000711    000000 7232 10            783           LXL3      0,0
   000712    1 00000 1233 00           784           SBLX3     0,,DESCLISTPR
   000713    000000 7412 02            785           STX1      0,QU                PUT AWAY RETURN
   000714 (0)000724 6056 00            786           TPNZ      NULLNS              NOT ENOUGH PASSED
   000715    000000 6352 00            787           EAA       0
   000716    000024 7772 00            788           LLR       20
   000717    000 0 045 1007 40         789           MLR       (1,1),(,1,,A)
   000720    0 00000 0 0 0 0002        790           ADSC9     0,,QU,PTRLISTPR
   000721    000001 0 0 0 0002         791           ADSC9     1,,QU
   000722    000001 7102 10            792           TRA       1,0
                                       793  *
                                       794           ALIGN     4
   000724                              795  NULLNS   NULL                X3 HAS #PARAMS
   000724    1 00000 2353 00           796           LDA       0,,DESCLISTPR       #ARGS
   000725    000020 7332 00            797           LRS       16
   000726    000 0 046 1007 40         798           MLR       (1,1),(,1,,Q)
   000727    0 00000 0 0 0 0005        799           ADSC9     0,,A,PTRLISTPR
   000730    000001 0 0 0 0005         800           ADSC9     1,,A
   000731    1 00000 2353 00           801           LDA       0,,DESCLISTPR
   000732    000000 0352 10            802           ADLA      0,0
   000733  X 000000 2362 07            803           LDQ       NULLSID,DL
   000734    000001 7562 01            804           STQ       1,AU
   000735    000002 1032 03            805           CMPX3     2,DU
   000736    000001 6042 10            806           TMI       1,0
   000737    000002 7562 01            807           STQ       2,AU
   000740    000001 6002 10            808           TZE       1,0
   000741    000003 7562 01            809           STQ       3,AU
   000742    000004 1032 03            810           CMPX3     4,DU
   000743    000001 6042 10            811           TMI       1,0
   000744    000004 7562 01            812           STQ       4,AU
   000745    000001 6002 10            813           TZE       1,0
   000746    000006 1232 03            814           SBLX3     6,DU
 09:08 07/30/97  FILE=X6U$CSEQU.:E05TSI                                                                  32   BMAP - B00
   000747    000005 7562 01            815           STQ       5,AU
   000750    000001 6042 10            816           TMI       1,0
   000751    000006 7562 01            817           STQ       6,AU
   000752    000001 6002 10            818           TZE       1,0
   000753    000000 6336 01            819           EPPR      3,0,AU
   000754    3 00006 7563 13           820           STQ       6,3,3
   000755    000001 1232 03            821           SBLX3     1,DU
   000756    777776 6056 04            822           TPNZ      -2,IC
   000757    000001 7102 10            823           TRA       1,0

 09:08 07/30/97  FILE=X6U$CSEQU.:E05TSI                                                                  33   BMAP - B00
                                       824           EJECT
                                       825  *D*
                                       826  *D* X66_PREGS_1,X66_PREGS_2,X66_PREGS_3
                                       827  *D*                Prepares arg pointers (or NIL) in
                                       828  *D*                PR1, PR1 AND PR3, OR PR1 AND PR3 AND PR4
                                       829  *D*                respectively. Uses X0,X1,X2
                                       830  *D*                Call:TSX0 X66_ PREGS_n
                                       831  *D*                     ZERO 0,number of args
                                       832  *D*                     ...
                                       833  *D*
                                       834  *
                                       835           ALIGN     4
   000760                              836  X66_PREGS_1 NULL
   000760    1 00000 2223 00           837           LDX2      0,,DESCLISTPR
   000761 (0)000777 6002 00            838           TZE       NULL1PR
   000762    0 00000 4717 00           839           LDP1      0,,PTRLISTPR
   000763    000001 7102 10            840           TRA       1,0

 09:08 07/30/97  FILE=X6U$CSEQU.:E05TSI                                                                  34   BMAP - B00
                                       841           EJECT
                                       842  *
                                       843           ALIGN     4
   000764                              844  X66_PREGS_2 NULL
   000764    1 00000 2223 00           845           LDX2      0,,DESCLISTPR
   000765    000001 1022 03            846           CMPX2     1,DU
   000766 (0)000772 6046 00            847           TMOZ      NULL2PR
   000767    0 00000 4717 00           848           LDP1      0,,PTRLISTPR
   000770    0 00001 4737 00           849           LDP3      1,,PTRLISTPR
   000771    000001 7102 10            850           TRA       1,0
                                       851  *
   000772                              852  NULL2PR  NULL
   000772 (0)000776 6042 00            853           TMI       NULL2PR0
   000773    0 00000 4717 00           854           LDP1      0,,PTRLISTPR
   000774  X 000000 4736 07            855           LDP3      NULLSID,DL
   000775    000001 7102 10            856           TRA       1,0
   000776                              857  NULL2PR0 NULL
   000776  X 000000 4736 07            858           LDP3      NULLSID,DL
   000777                              859  NULL1PR  NULL
   000777  X 000000 4716 07            860           LDP1      NULLSID,DL
   001000    000001 7102 10            861           TRA       1,0

 09:08 07/30/97  FILE=X6U$CSEQU.:E05TSI                                                                  35   BMAP - B00
                                       862           EJECT
                                       863  *
                                       864           ALIGN     4
   001004                              865  X66_PREGS_3 NULL
   001004    1 00000 2223 00           866           LDX2      0,,DESCLISTPR
   001005    000002 1022 03            867           CMPX2     2,DU
   001006 (0)001015 6046 00            868           TMOZ      NULL3PR
   001007    0 00000 4717 00           869           LDP1      0,,PTRLISTPR
   001010    0 00001 4737 00           870           LDP3      1,,PTRLISTPR
   001011    0 00002 4747 00           871           LDP4      2,,PTRLISTPR
   001012    000001 7102 10            872           TRA       1,0
   001013                              873  NULL3PR0 NULL
   001013  X 000000 4716 07            874           LDP1      NULLSID,DL
   001014 (0)001025 7102 00            875           TRA       NULL3PR1
   001015                              876  NULL3PR  NULL
   001015 (0)001022 6042 00            877           TMI       NULL3PR0OR1
   001016    0 00000 4717 00           878           LDP1      0,,PTRLISTPR
   001017    0 00001 4737 00           879           LDP3      1,,PTRLISTPR
   001020  X 000000 4746 07            880           LDP4      NULLSID,DL
   001021    000001 7102 10            881           TRA       1,0
                                       882  *
                                       883           EVEN
   001022                              884  NULL3PR0OR1 NULL
   001022    000000 0622 03            885           ADX2      0,DU
   001023 (0)001013 6002 00            886           TZE       NULL3PR0
   001024    0 00000 4717 00           887           LDP1      0,,PTRLISTPR
   001025                              888  NULL3PR1 NULL
   001025  X 000000 4736 07            889           LDP3      NULLSID,DL
   001026  X 000000 4746 07            890           LDP4      NULLSID,DL
   001027    000001 7102 10            891           TRA       1,0

 09:08 07/30/97  FILE=X6U$CSEQU.:E05TSI                                                                  36   BMAP - B00
                                       892           EJECT
                                       893  *D*
                                       894  *D* X66_FARET,X66_FAALT Normal and alternate return routines for
                                       895  *D*                function procedures which require that EAQ and
                                       896  *D*                X0 be returned to caller. Uses X1 and X3.
                                       897  *D*
                                       898  *
                                       899           ALIGN     4
   001030                              900  X66_FARET NULL
   001030    2 00000 7233 00           901           LXL3      0,,AUTOPR
   001031    2 00000 2213 00           902           LDX1      0,,AUTOPR
   001032    2 00001 5276 13           903           SWDX      1+0,3,AUTOPR
   001033    2 00001 4433 13           904           SXL3      1+0,3,AUTOPR
   001034    000001 7102 11            905           TRA       1,1
                                       906  *
   001035                              907  X66_FAALT NULL
   001035    2 00000 7233 00           908           LXL3      0,,AUTOPR
   001036    2 00000 2213 00           909           LDX1      0,,AUTOPR
   001037    2 00001 5276 13           910           SWDX      1+0,3,AUTOPR
   001040    2 00001 4433 13           911           SXL3      1+0,3,AUTOPR
   001041    000000 7102 11            912           TRA       0,1

 09:08 07/30/97  FILE=X6U$CSEQU.:E05TSI                                                                  37   BMAP - B00
                                       913           EJECT
                                       914  *D*
                                       915  *D* X66_MAUTO, X66_MSTATIC   These routines should be called to
                                       916  *D*                initialize AUTO storage for any program.
                                       917  *D*                If the need is only to initialize AUTO for
                                       918  *D*                possible future use, X66_MSTATIC should be called
                                       919  *D*                If, however, the calling procedure needs AUTO
                                       920  *D*                storage, X66_MAUTO should be invoked.
                                       921  *D*                In either case return is: TRA 1,X0.
                                       922  *D*                The following word is assumed to be a data word.
                                       923  *D*                For X66_MAUTO it must contain the size of desired
                                       924  *D*                frame in LH of word following TSX0.
                                       925  *D*                First all storage in the AUTO segment is released.
                                       926  *D*                Then the AUTO segment is allocated to desired size.
                                       927  *D*                Call:TSX0 X66_Mxxx
                                       928  *D*                     ZERO frame size,0
                                       929  *D*                     ...
                                       930  *D*                CAUTION: Frame size must be even.
                                       931  *D*                Uses:X0, X1, X2, X3, X4, PR0, PR2
                                       932  *D*
                                       933  *
   001042                              934  X66_MAUTO NULL
   001042 (0)001057 7022 00            935           TSX2      INITAUTO
   001043    000000 2242 10            936           LDX4      0,0
   001044    000004 1242 03            937           SBLX4     4,DU                FRAME SET FOR STAT OR AUTO
   001045    2 00002 0243 00           938           ADLX4     2,,AUTOPR
   001046    2 00002 7443 00           939           STX4      2,,AUTOPR
   001047    2 77776 1043 00           940           CMPX4     -2,,AUTOPR
   001050    000001 6022 10            941           TNC       1,0
   001051    2 00002 2353 00           942           LDA       2,,AUTOPR
   001052    2 77774 7223 00           943           LXL2      -4,,AUTOPR
   001053 (0)001131 7042 00            944           TSX4      X66_AUTO_ALLOC
   001054 (0)001102 7102 00            945           TRA       AUTONOTAVAIL
   001055    000001 7102 10            946           TRA       1,0

 09:08 07/30/97  FILE=X6U$CSEQU.:E05TSI                                                                  38   BMAP - B00
                                       947           EJECT
                                       948  *
   001056                              949  X66_MSTATIC NULL
   001056    000001 6222 10            950           EAX2      1,0
   001057 (3)000030 6306 00            951  INITAUTO EPPR0     GDSFPT64
   001060    430002 7134 00            952           PMME      FDS,2
   001061    1 001 000 40 1760
   001062    000002 7102 04            953           TRA       2,IC
   001063 (0)001057 7102 00            954           TRA       INITAUTO            RELEASE UNTIL ALL GONE
   001064 (3)000014 6306 00            955           EPPR0     GDSFPT
   001065    430001 7134 00            956           PMME      GDS,2
   001066    1 001 000 40 1760
   001067 (0)001102 7102 00            957           TRA       AUTONOTAVAIL
   001070  X 000000 4726 07            958           LDP       AUTOPR,DS1SID,DL
   001071    000 0 100 1006 00         959           MLR       ,(1)
   001072 (3)000004 0 0 0 0040         960           ADSC9     FRAME1,0,32
   001073    2 00000 0 0 0 0040        961           ADSC9     0,0,32,AUTOPR
   001074    2 00004 5077 00           962           AWD       4,,AUTOPR
   001075    2 00002 4403 00           963           SXL0      2,,AUTOPR           SAVE WHO THIS FRAME IS
   001076    000400 2232 03            964           LDX3      ALLOC,DU
   001077    2 77776 0233 00           965           ADLX3     -2,,AUTOPR
   001100    2 77776 7433 00           966           STX3      -2,,AUTOPR
   001101    000000 7102 12            967           TRA       0,2

 09:08 07/30/97  FILE=X6U$CSEQU.:E05TSI                                                                  39   BMAP - B00
                                       968           EJECT
   001102                              969  AUTONOTAVAIL NULL
   001102 (3)000042 6306 00            970           EPPR0     WAUTONOTAVAIL
   001103    040001 7134 00            971           PMME      WRITE,3             PUT OUT ERROR MSG
   001104    1 002 000 40 1760
   001105  X 000000 4726 07            972           LDP       AUTOPR,DS1SID,DL
   001106    2 00002 7223 00           973           LXL2      2,,AUTOPR
   001107 (0)001114 6002 00            974           TZE       AUTOABORT
   001110    777773 2212 03            975           LDX1      -5,DU
   001111    2 00000 4413 00           976           SXL1      0,,AUTOPR
   001112    2 00004 5077 00           977           AWD       4,,AUTOPR
   001113    000000 7102 12            978           TRA       0,X2
   001114                              979  AUTOABORT NULL
   001114    000003 7134 00            980           PMME      XXX,0               AND ABORT
   001115    0 000 000 40 1760
                                       981  *
                                       982  *
                                       983  *
                                       984  *D*
                                       985  *D*X66_AUTO_EX is provided to give the user program control when it is not
                                       986  *D*possible to allocate sufficient AUTOmatic storage due to authorization
                                       987  *D*restrictions or the AUTO segment being full. This must be used with care
                                       988  *D*and is restricted to being callable from the main program only. This
                                       989  *D*subroutine is used as follows:
                                       990  *D*
                                       991  *D*         CALL X66_AUTO_EX ALTRET (auto_failure_label);
                                       992  *D*
                                       993  *D*The subroutine will check if the current auto pointer indicates that
                                       994  *D*a MAIN procedure is active, and if so, will remember the ALTRET label
                                       995  *D*for later use. At such time as we are unable to allocate auto, the
                                       996  *D*auto frame for the MAIN procedure will be activated and control will be
                                       997  *D*transferred to the previously specified ALTRET address. The process is
                                       998  *D*analagous to unwinding to the altret label.
                                       999  *D*
                                      1000  *D*If X66_AUTO_EX is called with no ALTRET label, any previously remembered
                                      1001  *D*label will be forgotten.
                                      1002  *D*
 09:08 07/30/97  FILE=X6U$CSEQU.:E05TSI                                                                  40   BMAP - B00
   001116                             1003  X66_AUTO_EX NULL
   001116  X 000000 4716 07           1004           LDP1      DS1SID,DL
   001117    000000 2202 11           1005           LDX0      0,1
   001120 (0)001124 6002 00           1006           TZE       CANCEL
   001121    2 00000 6223 00          1007           EAX2      0,,2
   001122    000004 1022 03           1008           CMPX2     4,DU
   001123    000001 6012 11           1009           TNZ       1,1
   001124                             1010  CANCEL   NULL
   001124    1 00002 4403 00          1011           SXL0      2,,1
   001125    000001 7102 11           1012           TRA       1,1
                                      1013  *
                                      1014  *                                      ENTRY TO ALLOC, THEN DONE
   001126 (0)001131 7042 00           1015  ALLOCGO  TSX4      X66_AUTO_ALLOC
   001127 (0)001102 7102 00           1016           TRA       AUTONOTAVAIL
   001130    000001 7102 10           1017           TRA       1,0

 09:08 07/30/97  FILE=X6U$CSEQU.:E05TSI                                                                  41   BMAP - B00
                                      1018           EJECT
                                      1019  *
                                      1020  *D*
                                      1021  *D* X66_AUTO_ALLOC Allocate space in AUTO segment as dictated
                                      1022  *D*                by requirements of current frame header (next
                                      1023  *D*                frame offset) as compared to AUTO BASE (limit
                                      1024  *D*                offset).
                                      1025  *D*                Call:TSX4 X66_AUTO_ALLOC
                                      1026  *D*                     can't get
                                      1027  *D*                     ...
                                      1028  *D*                Assume: X2=-(current frame offset+1)
                                      1029  *D*                        A=contents(2,,PR2)
                                      1030  *D*                Uses:X3, X4
                                      1031  *D*
                                      1032  *
   001131                             1033  X66_AUTO_ALLOC NULL
   001131    2 00004 4507 12          1034           STP0      4,2,AUTOPR
   001132                             1035  X66_GETSP1 NULL
   001132    2 00003 1353 12          1036           SBLA      1+2,2,AUTOPR
   001133    037400 1152 03           1037           CMPA      ALLOC*63,DU
   001134 (0)001140 6022 00           1038           TNC       TRY16
   001135 (3)000030 6306 00           1039           EPPR0     GDSFPT64
   001136    040000 2232 03           1040           LDX3      ALLOC*64,DU
   001137 (0)001153 7102 00           1041           TRA       DOGDS
   001140    007400 1152 03           1042  TRY16    CMPA      ALLOC*15,DU
   001141 (0)001145 6022 00           1043           TNC       TRY4
   001142 (3)000024 6306 00           1044           EPPR0     GDSFPT16
   001143    010000 2232 03           1045           LDX3      ALLOC*16,DU
   001144 (0)001153 7102 00           1046           TRA       DOGDS
   001145 (3)000020 6306 00           1047  TRY4     EPPR0     GDSFPT4
   001146    002000 2232 03           1048           LDX3      ALLOC*4,DU
   001147    001400 1152 03           1049           CMPA      ALLOC*3,DU
   001150 (0)001153 6032 00           1050           TRC       DOGDS
   001151 (3)000014 6306 00           1051           EPPR0     GDSFPT
   001152    000400 2232 03           1052           LDX3      ALLOC,DU
   001153    2 00002 2353 00          1053  DOGDS    LDA       2,,AUTOPR
   001154    430001 7134 00           1054           PMME      GDS,2               TRY TO GET SPACE
 09:08 07/30/97  FILE=X6U$CSEQU.:E05TSI                                                                  42   BMAP - B00
   001155    1 001 000 40 1760
   001156    000000 7102 14           1055           TRA       0,4       CAN'T
   001157    2 00003 0233 12          1056           ADLX3     1+2,2,AUTOPR        UPDATE LAST FRAME
   001160    2 00003 7433 12          1057           STX3      1+2,2,AUTOPR
   001161    2 00003 1153 12          1058           CMPA      1+2,2,AUTOPR        RECHECK IF ENOUGH
   001162 (0)001132 6032 00           1059           TRC       X66_GETSP1
                                      1060  *                                      NOW MUST REFRESH DR'S TO
                                      1061  *                                      PROPER VALUES IN CASE ALLOC
                                      1062  *                                      CAUSED PAGE TABLE SHIFT
                                      1063  *                                      AND TO GET NEW BOUND OF AUTO
                                      1064  *                                      ALSO RESTORE PR0 TO PTRLIST
   001163    2 00004 4707 12          1065           LDP0      4,2,AUTOPR
   001164    2 00004 4517 12          1066           STP1      4,2,AUTOPR
   001165    2 00004 4717 12          1067           LDP1      4,2,AUTOPR
   001166    2 00004 4527 12          1068           STP2      4,2,AUTOPR
   001167    2 00004 4727 12          1069           LDP2      4,2,AUTOPR
   001170    2 00004 4537 12          1070           STP3      4,2,AUTOPR
   001171    2 00004 4737 12          1071           LDP3      4,2,AUTOPR
   001172    2 00004 4547 12          1072           STP4      4,2,AUTOPR
   001173    2 00004 4747 12          1073           LDP4      4,2,AUTOPR
   001174    2 00004 4557 12          1074           STP5      4,2,AUTOPR
   001175    2 00004 4757 12          1075           LDP5      4,2,AUTOPR
   001176    2 00004 4567 12          1076           STP6      4,2,AUTOPR
   001177    2 00004 4767 12          1077           LDP6      4,2,AUTOPR
   001200    2 00004 4577 12          1078           STP7      4,2,AUTOPR
   001201    2 00004 4777 12          1079           LDP7      4,2,AUTOPR
   001202    000001 7102 14           1080           TRA       1,4                 RESUME

 09:08 07/30/97  FILE=X6U$CSEQU.:E05TSI                                                                  43   BMAP - B00
                                      1081           EJECT
                                      1082  *
                                      1083  *D* X66_REL_AUTO   Externally callable routine to
                                      1084  *D*                release all of the auto segment
                                      1085  *D*                not currently in use.
                                      1086  *D*                Call: CALL X66_REL_AUTO
                                      1087  *D*
                                      1088  *
   001203                             1089  X66_REL_AUTO NULL
   001203  X 000000 4716 07           1090           LDP       1,DS1SID,DL
   001204    1 00002 2363 00          1091           LDQ       2,,1
   001205    2 00002 1363 00          1092           SBLQ      2,,2
   001206 (3)000030 6306 00           1093           EPPR0     GDSFPT64
   001207    040000 3232 03           1094           LCX3      ALLOC*64,DU
   001210    040000 1162 03           1095           CMPQ      ALLOC*64,DU
   001211 (0)001226 6032 00           1096           TRC       DOFDS
   001212 (3)000024 6306 00           1097           EPPR0     GDSFPT16
   001213    010000 3232 03           1098           LCX3      ALLOC*16,DU
   001214    010000 1162 03           1099           CMPQ      ALLOC*16,DU
   001215 (0)001226 6032 00           1100           TRC       DOFDS
   001216 (3)000020 6306 00           1101           EPPR0     GDSFPT4
   001217    002000 3232 03           1102           LCX3      ALLOC*4,DU
   001220    002000 1162 03           1103           CMPQ      ALLOC*4,DU
   001221 (0)001226 6032 00           1104           TRC       DOFDS
   001222 (3)000014 6306 00           1105           EPPR0     GDSFPT
   001223    000400 3232 03           1106           LCX3      ALLOC,DU
   001224    000400 1162 03           1107           CMPQ      ALLOC,DU
   001225    000001 6022 11           1108           TNC       1,1
   001226    430002 7134 00           1109  DOFDS    PMME      FDS,2
   001227    1 001 000 40 1760
   001230    000000 0112 00           1110           NOP
   001231    1 00002 0233 00          1111           ADLX3     2,,1
   001232    1 00002 7433 00          1112           STX3      2,,1
   001233 (0)001203 7102 00           1113           TRA       X66_REL_AUTO

 09:08 07/30/97  FILE=X6U$CSEQU.:E05TSI                                                                  44   BMAP - B00
                                      1114           EJECT
                                      1115  *D*
                                      1116  *D* X66_FRAME_EXT  Extend the current AUTO frame.
                                      1117  *D*                Desired size in X1 (may be even or odd).
                                      1118  *D*                Put the offset into left half of word 1.
                                      1119  *D*                Return 1,X0.
                                      1120  *D*                Return 0,X0 if cannot allocate.
                                      1121  *D*                Use X1, X2, X3, X4, A.
                                      1122  *D*                CAUTION: Multiple extensions lose value of previous
                                      1123  *D*                (no automatic nest) but all storage goes away when
                                      1124  *D*                current active procedure exits.
                                      1125  *D*
                                      1126  *D* X66_FRAME_KEXT Undo current frame extension.
                                      1127  *D*                Put ext offset back as next frame offset.
                                      1128  *D*                Put 0 in ext offset
                                      1129  *D*
   001234                             1130  X66_FRAME_EXT NULL
   001234    000000 6352 11           1131           EAA       0,1
   001235    2 00002 2213 00          1132           LDX1      2,,AUTOPR
   001236    000001 1212 03           1133           SBLX1     1,DU
   001237    2 00001 7413 00          1134           STX1      1,,AUTOPR           SAVE EXTENSION OFFSET
   001240    2 00002 0353 00          1135           ADLA      2,,AUTOPR
   001241    000001 2752 03           1136           ORA       =1,DU               INSURE NEXT FRAME EVEN, ODDLY
   001242    2 00000 6213 00          1137           EAX1      0,,AUTOPR
   001243    2 00001 5276 11          1138           SWDX      1,1,AUTOPR
   001244    2 00000 6223 00          1139           EAX2      0,,AUTOPR           NEG (CURR OFFSET+1)
   001245    2 00000 5076 11          1140           AWDX      0,1,AUTOPR          MAKE AUTO RIGHT
   001246    2 00002 7553 00          1141           STA       2,,AUTOPR           SET NEXT FRAME ADDR
   001247    2 00003 1153 12          1142           CMPA      1+2,2,AUTOPR        CHECK IF SPACE AVAIL
   001250    000001 6022 10           1143           TNC       1,0
   001251 (0)001131 7042 00           1144           TSX4      X66_AUTO_ALLOC
   001252    000000 7102 10           1145           TRA       0,0
   001253    000001 7102 10           1146           TRA       1,0
                                      1147  *
   001254                             1148  X66_FRAME_KEXT NULL
   001254    2 00001 2213 00          1149           LDX1      1,,AUTOPR
   001255    2 00001 1413 00          1150           SSX1      1,,AUTOPR
 09:08 07/30/97  FILE=X6U$CSEQU.:E05TSI                                                                  45   BMAP - B00
   001256    000001 0212 03           1151           ADLX1     1,DU
   001257    2 00002 7413 00          1152           STX1      2,,AUTOPR
   001260    000001 7102 10           1153           TRA       1,0

 09:08 07/30/97  FILE=X6U$CSEQU.:E05TSI                                                                  46   BMAP - B00
                                      1154           EJECT
                                      1155  *D*
                                      1156  *D* X66_AAUTO,X66_ASTATIC    Routines to be invoked by ASYNC procedures
                                      1157  *D*                with AUTO and NOAUTO attribute, respectively.
                                      1158  *D*                Usage is same as X66_AUTO_0 and X66_STATIC_0.
                                      1159  *D*
                                      1160  *
   001261                             1161  X66_AAUTO NULL
   001261  X 000000 4726 07           1162           LDP       AUTOPR,DS1SID,DL    GET TO BASE OF AUTO
   001262    2 00000 7223 00          1163           LXL2      0,,AUTOPR           FIND CURRENT FRAME
   001263    2 00001 5276 12          1164           SWDX      1+0,2,AUTOPR        AND ACTIVATE IT
   001264    2 00002 3223 00          1165           LCX2      2,,AUTOPR           BEGINNING OF X66_AUTO_0
   001265    2 00001 5276 12          1166           SWDX      1+0,2,AUTOPR        NEW FRAME
   001266    2 00001 2373 12          1167           LDAQ      1+CURR_,2,AUTOPR    GET OLD 'NEG CURRENT' ->A
                                      1168  *                                      0, PL6 FLAG ->Q
   001267    777777 3752 07           1169           ANA       =O777777,DL         0 TO ALTRET ADDRESS
   001270    2 00000 7573 00          1170           STAQ      PREV_,,AUTOPR       'NEG CURRENT'->'NEG PREV'
                                      1171  *                                      SET EXTENSION, FLAG
   001271    000000 2232 10           1172           LDX3      0,0                 SIZE OF THIS FRAME
   001272    2 00001 6353 13          1173           EAA       1+0,3,AUTOPR        CALCULATE NEW 'NEXT'
   001273    2 00001 4423 12          1174           SXL2      1+CURR_,2,AUTOPR    SET 'NEG CURRENT'
   001274    2 00002 7553 00          1175           STA       NEXT_,,AUTOPR       SET NEXT FRAME
   001275    2 00002 4403 00          1176           SXL0      2,,AUTOPR           SAVE WHO THIS FRAME IS
   001276    2 00003 1153 12          1177           CMPA      1+LIMIT_,2,AUTOPR   IS THERE ROOM?
   001277    000001 6022 10           1178           TNC       1,0                 ENUF ROOM, GO
   001300 (0)001126 7102 00           1179           TRA       ALLOCGO
                                      1180  *
                                      1181  *
   001301                             1182  X66_ASTATIC NULL
   001301  X 000000 4726 07           1183           LDP       AUTOPR,DS1SID,DL
   001302    2 00000 7223 00          1184           LXL2      0,,AUTOPR
   001303    2 00001 5276 12          1185           SWDX      1+0,2,AUTOPR
   001304    000000 2232 10           1186           LDX3      0,0                 ADDRESS OF FRAME
   001305    000000 4502 13           1187           STZ       0,3
   001306    000000 4402 13           1188           SXL0      0,3                 MARK IT FOR DELTA
   001307    000001 7102 10           1189           TRA       1,0

 09:08 07/30/97  FILE=X6U$CSEQU.:E05TSI                                                                  47   BMAP - B00
                                      1190           EJECT
                                      1191  *D*
                                      1192  *D* X66_MARET,X66_MSRET,X66_MAALT,X66_MSALT
                                      1193  *D* X66_AARET,X66_ASRET,X66_AAALT,X66_ASALT
                                      1194  *D*                Routines for return and altreturn from main and
                                      1195  *D*                async procedures.
                                      1196  *D*                Invoked by TRA or TSX2 (no return).
                                      1197  *D*
                                      1198  *
   001310                             1199  X66_MARET NULL
   001310                             1200  X66_MSRET NULL
   001310    000001 7134 00           1201           PMME      EXIT,0
   001311    0 000 000 40 1760
                                      1202  *
                                      1203  *
   001312                             1204  X66_MAALT NULL
   001312                             1205  X66_MSALT NULL
   001312    000002 7134 00           1206           PMME      ERR,0
   001313    0 000 000 40 1760
                                      1207  *
                                      1208  *
   001314                             1209  X66_AARET NULL
   001314    2 00000 2363 00          1210           LDQ       0,,AUTOPR           MUST RESET 'NEG CUR FRAME'
   001315    2 00001 5276 06          1211           SWDX      1+0,QL,AUTOPR
   001316    2 00001 7563 06          1212           STQ       1+0,QL,AUTOPR
   001317                             1213  X66_ASRET NULL
   001317    010012 7134 00           1214           PMME      TRTN,0
   001320    0 000 000 40 1760
                                      1215  *
                                      1216  *
   001321                             1217  X66_AAALT NULL
   001321    2 00000 2363 00          1218           LDQ       0,,AUTOPR
   001322    2 00001 5276 06          1219           SWDX      1+0,QL,AUTOPR
   001323    2 00001 7563 06          1220           STQ       1+0,QL,AUTOPR
   001324                             1221  X66_ASALT NULL
   001324    010014 7134 00           1222           PMME      MERCS,0
   001325    0 000 000 40 1760
 09:08 07/30/97  FILE=X6U$CSEQU.:E05TSI                                                                  48   BMAP - B00
                                      1223  *D*
                                      1224  *D* X66_TRTN,X66_MERCS
                                      1225  *D*
                                      1226  *D*                These two callable subroutines are provided
                                      1227  *D*                to allow ASYNC procedures which must execute
                                      1228  *D*                M$TRTN or M$MERCS with FPT's rather than
                                      1229  *D*                RETURN or ALTRETURN. The AUTO base is reset
                                      1230  *D*                from PR2 in the TCB frame being removed
                                      1231  *D*                properly, then the appropriate monitor service
                                      1232  *D*                is invoked with the passed FPT.
                                      1233  *D*
                                      1234  *
   001326                             1235  X66_TRTN NULL
   001326 (0)001342 7002 00           1236           TSX0      SETCUR
   001327    1 00000 2203 00          1237           LDX0      0,,1
   001330 (0)001317 6002 00           1238           TZE       X66_ASRET           NOTHING PASSED
   001331    0 00000 4707 00          1239           LDP0      0,,0
   001332    010012 7134 00           1240           PMME      TRTN,3
   001333    1 002 000 40 1760
                                      1241  *
                                      1242  *
   001334                             1243  X66_MERCS NULL
   001334 (0)001342 7002 00           1244           TSX0      SETCUR
   001335    1 00000 2203 00          1245           LDX0      0,,1
   001336 (0)001324 6002 00           1246           TZE       X66_ASALT           NOTHING PASSED
   001337    0 00000 4707 00          1247           LDP0      0,,0
   001340    010014 7134 00           1248           PMME      MERCS,1
   001341    1 000 000 40 1760
                                      1249  *
   001342  X 000000 4736 07           1250  SETCUR   LDP3      TCBSID,DL
   001343    3 00001 4737 00          1251           LDP3      1,,3                TOP STACK FRAME
   001344    3 00022 2353 00          1252           LDA       18,,3               SAVED PR2
   001345    000022 7712 00           1253           ARL       18
   001346    777777 6752 07           1254           ERA       -1,DL               NEG CUR -1
   001347  X 000000 4736 07           1255           LDP3      DS1SID,DL
   001350    3 00000 7553 00          1256           STA       0,,3
   001351    000000 7102 10           1257           TRA       0,0

 09:08 07/30/97  FILE=X6U$CSEQU.:E05TSI                                                                  49   BMAP - B00
                                      1258           EJECT
                                      1259  *D*
                                      1260  *D* X66_MAUNWIND,X66_MSUNWIND,X66_AAUNWIND,X66_ASUNWIND,
                                      1261  *D* X66_AUNWIND,X66_SUNWIND
                                      1262  *D*                MAIN, ASYNC, and callable procedure entries
                                      1263  *D*                to do UNWIND.
                                      1264  *
                                      1265  *D*      A HAS AUTO PTR TO FRAME TO WHICH TO UNWIND
                                      1266  *D*      Q HAS EPTR FORM OF ADDRESS OF WHERE TO GO
                                      1267  *D*
                                      1268  *D*                Call:TSX0 X66_xxUNWIND
                                      1269  *D*                     ZERO return here if bad unwind variable.
                                      1270  *D*
                                      1271  *
   001352                             1272  X66_MAUNWIND NULL
   001352                             1273  X66_MSUNWIND NULL
   001352                             1274  X66_AAUNWIND NULL
   001352                             1275  X66_ASUNWIND NULL
   001352                             1276  X66_AUNWIND NULL
   001352                             1277  X66_SUNWIND NULL
   001352    2 00002 2223 00          1278           LDX2      2,,AUTOPR       NEXT FRAME HDR SPACE
   001353    2 00000 6307 00          1279           EPPR0     0,,AUTOPR
   001354    0 00000 5076 12          1280           AWDX      0,2,0
   001355    0 00000 4527 00          1281           STP       AUTOPR,0,,0
   001356    0 00001 7553 00          1282           STA       1,,0
   001357    0 00000 1753 00          1283           SBA       0,,0            VERIFY IF OK
   001360 (0)001370 6056 00           1284           TPNZ      BADUNWIND       BAD IF NON-NEG
   001361 (3)000002 3172 00           1285           CANAQ     LOWMASK
   001362 (0)001370 6012 00           1286           TNZ       BADUNWIND
   001363    0 00001 3223 00          1287           LCX2      1,,0
   001364    000001 1222 03           1288           SBLX2     1,DU
   001365    2 00001 5276 12          1289           SWDX      1+0,2,AUTOPR
   001366    2 00001 4423 12          1290           SXL2      1+0,2,AUTOPR        SET CURRENT FRAME
   001367    000000 7102 02           1291           TRA       0,QU
                                      1292  *
   001370                             1293  BADUNWIND NULL
   001370    0 00000 4727 00          1294           LDP       AUTOPR,0,,0
 09:08 07/30/97  FILE=X6U$CSEQU.:E05TSI                                                                  50   BMAP - B00
   001371 (3)000034 6306 00           1295           EPPR0     WBADUNWIND
   001372    040001 7134 00           1296           PMME      WRITE,3
   001373    1 002 000 40 1760
   001374    000000 7102 10           1297           TRA       0,0                 WRITE ERRMSG, THEN GO ZOP

 09:08 07/30/97  FILE=X6U$CSEQU.:E05TSI                                                                  51   BMAP - B00
                                      1298         EJECT
                                      1299  *D*
                                      1300  *D* X66_INDEX      Routine to execute INDEX built in subroutine.
                                      1301  *D*
                                      1302         INHIB   OFF
                                      1303  *D*                            CALL INDEX PL-6 INTRINSIC HIT.
                                      1304  *D*                            CALL INDEX(RSLT,TINYSTR,BIGSTR,START)
                                      1305  *D*                            ALTRET(NOTFOUND);
                                      1306  *D*                            PL-6 GENERATED IN-LINE CODE WILL
                                      1307  *D*                            SET UP ARGUMENTS, PTR-S, IN REGS--
                                      1308  *D*                            LDP3  ADDR(TINYSTR)
                                      1309  *D*                            LDX3  LENGTHC(TINYSTR)
                                      1310  *D*                            LDP0  ADDR(BIGSTR)
                                      1311  *D*                            LDX0  LENGTHC(BIGSTR)
                                      1312  *D*                            LDQ   START
                                      1313  *D*                            LDP1  ADDR(RSLT)
                                      1314  *D*                            TSX1  6INDEX -- INTIMATE CODE ENTRY.
                                      1315  *D*                            TRA   NOTFOUND
                                      1316  *D*                            ...   NORMAL EXIT, OCCURANCE OF TINYSTR
                                      1317  *D*                                  FOUND WITHIN SUBSTR(BIGSTR,START)
                                      1318  *D*                                  AT CHAR NUMBER (RSLT).
                                      1319  *D*
             000000000003             1320  TINYADDR EQU       3
             000000000003             1321  TINYLEN  EQU       3
             000000000000             1322  BIGADDR  EQU       0
             000000000000             1323  BIGLEN   EQU       0
             000000000001             1324  RSLTADDR EQU       1
                                      1325  *
                                      1326  *                              ROUTINE USES, DESTROYS A-REG, Q-REG.
                                      1327  *                              PR5,PR6,PR7, X5,X6,X7 -- UNTOUCHED.
                                      1328  *                              OTHER PRN -- UNCHANGED.
                                      1329  *                              OTHER XN  -- UNCHANGED.
                                      1330  *
   001375                             1331  X66_INDEX NULL
                                      1332  *                              INITIALIZE CONDITION --
                                      1333  *                              Q-REG -- CURRENT -START- VALUE,
                                      1334  *                                    0 .LE. START .LE. LENC(BIGSTR)-1
 09:08 07/30/97  FILE=X6U$CSEQU.:E05TSI                                                                  52   BMAP - B00
                                      1335  *                              A-REG + Q-REG = LENC(BIGSTR)
                                      1336  *                              A-REG -- CHAR-COUNT REMAINING IN BIGSTR
                                      1337  *                                    0 .LE. A-REG .LE. LENC(BIGSTR)
                                      1338  *                              ALSO, INIT -RSLT- TO -START-
   001375    1 00000 7561 00          1339         STQ     0,,RSLTADDR
   001376    000000 6350 10           1340         EAA     ,BIGLEN
   001377    000022 7710 00           1341         ARL     18
   001400    1 00000 1351 00          1342         SBLA    0,,RSLTADDR
                                      1343  *                              BRANCH BASED ON LENC(TINYSTR)
   001401    000003 1030 03           1344         CMPX    TINYLEN,=3,DU
   001402 (0)001427 6030 00           1345         TRC     6IND3           LENC(TINYSTR) .GE. 3
   001403    000001 1030 03           1346         CMPX    TINYLEN,=1,DU
   001404 (0)001415 6054 00           1347         TPNZ    6IND2           LENC(TINYSTR) .EQ. 2
                                      1348  *                              FOR STRANGE CASE LENC(TINYSTR) .EQ. 0,
                                      1349  *                              SEARCH FOR 0-LENGTH NULL STRING,
                                      1350  *                              ASSUME FOUND IMMEDIATELY, AT START.
                                      1351  *                              -RSLT- ALREADY SET TO -START-
                                      1352  *                              NORMAL RETURN, FOUND.
   001405    000001 6040 11           1353         TMI     1,1
                                      1354  *                              LENC(TINYSTR) .EQ. 1.
                                      1355  *                              -SCM- INSTRUC ON SUBSTR(BIGSTR,START)
   001406                             1356  6IND1  NULL
   001406    000 0 100 1245 46        1357         SCM     (1,1,,Q),(1,,,)
   001407    0 00000 0 0 0 0005       1358         ADSC9   0,0,A,BIGADDR   SUBSTR(BIGSTR,START)=0-0,QL,BIGADDR
   001410    3 00000 0 0 0 0001       1359         ADSC9   0,0,1,TINYADDR  TINYSTR=0-0,,TINYADDR LEN=1
   001411    1 00000 0001 00          1360         ARG     0,,RSLTADDR     RSLT=0,,RSLTADDR
                                      1361  *                              0 .LE. RSLT .LE. LENC(SUB(BIGSTR,STRT))
                                      1362  *                              ADJUST SO THAT
                                      1363  *                              START .LE. RSLT .LE. LENC(BIGSTR)
   001412    1 00000 0561 00          1364         ASQ     0,,RSLTADDR
   001413    000001 6070 11           1365         TTF     1,1             IF FOUND, MAKE NORMAL EXIT.
   001414    000000 7100 11           1366         TRA     0,1             IF NOT FOUND, MAKE ALTRETURN EXIT.
                                      1367  *
                                      1368  *                              LENC(TINYSTR) .EQ. 2.
                                      1369  *                              -SCD- INSTRUC ON SUBSTR(BIGSTR,START)
   001415                             1370  6IND2  NULL
   001415    000 0 100 1205 46        1371         SCD     (1,1,,Q),(1,,,)
 09:08 07/30/97  FILE=X6U$CSEQU.:E05TSI                                                                  53   BMAP - B00
   001416    0 00000 0 0 0 0005       1372         ADSC9   0,0,A,BIGADDR   SUBSTR(BIGSTR,START)=0-0,QL,BIGADDR
   001417    3 00000 0 0 0 0002       1373         ADSC9   0,0,2,TINYADDR  TINYSTR=0-0,,TINYADDR LEN=2
   001420    1 00000 0001 00          1374         ARG     0,,RSLTADDR     RSLT=0,,RSLTADDR
                                      1375  *                              0.LE. RSLT .LE.LENC(SUB(BIGSTR,STRT))-1
                                      1376  *                              ADJUST SO THAT
                                      1377  *                              START .LE. RSLT .LE. LENC(BIGSTR)-1
                                      1378  *                              IF FOUND,
                                      1379  *                              START .LE. RSLT .LE. LENC(BIGSTR)-2
   001421    1 00000 0561 00          1380         ASQ     0,,RSLTADDR
   001422    000001 6070 11           1381         TTF     1,1             IF FOUND, MAKE NORMAL EXIT.
                                      1382  *                              IF LENC(SUBSTR(BIGSTR,START)) .GE. 1,
                                      1383  *                              THEN -RSLT- .EQ. LENC(BIGSTR)-1.
                                      1384  *                              ADJUST TO PROPER NOT-FOUND VALUE.
   001423    1 00000 0541 00          1385         AOS     0,,RSLTADDR
                                      1386  *                              NOTE -- BUG OCCURS IF
                                      1387  *                              LENC(SUBSTR(BIGSTR,START)) .EQ. 0,
                                      1388  *                              SINCE -SCD- INSTRUC SETS -RSLT- TO 0,
                                      1389  *                              INSTEAD OF LENC(SUBSTR(BIGSTR,START))-1
                                      1390  *                              AND ABOVE CODE MAKES LENC(BIGSTR)+1.
                                      1391  *                              POSSIBLE FIX -- USE CODE SEQUENCE --
                                      1392  *                              ASQ  0,,RSLTADDR
                                      1393  *                              TTF  1,1   NORMAL RETURN, FOUND
                                      1394  *                              STA  0,,RSLTADDR
                                      1395  *                              ASQ  0,,RSLTADDR A+Q .EQ. LENC(BIGSTR)
                                      1396  *                              TRA  0,1   ALTRETURN, NOT FOUND
                                      1397  *                              HOWEVER, THIS WOULD PRODUCE RESULTS
                                      1398  *                              WHICH DIFFER FROM THE IN-LINE CODE
                                      1399  *                              FOR -CALL-INDEX2-, WHICH IS MORE
                                      1400  *                              DIFFICULT TO PATCH UP.
   001424    000000 7100 11           1401         TRA     0,1             MAKE ALTRETURN, NOT FOUND.
                                      1402  *
                                      1403  *                              LOOP TO SCAN THRU SUBSTR(BIGSTR,START).
                                      1404  *                              -TINYSTR- DOES NOT OCCUR AT
                                      1405  *                              CURRENT POINT WITHIN -BIGSTR-
                                      1406  *                              STEP CURRENT POINT BY 1 CHAR.
   001425                             1407  6IND3L NULL
   001425    000001 0360 07           1408         ADLQ    =1,DL
 09:08 07/30/97  FILE=X6U$CSEQU.:E05TSI                                                                  54   BMAP - B00
   001426    000001 1350 07           1409         SBLA    =1,DL
                                      1410  *
                                      1411  *                              LENC(TINYSTR) .GE. 3.
                                      1412  *                              Q-REG -- CURRENT POINT WITHIN BIGSTR.
                                      1413  *                              A-REG + Q-REG .EQ. LENC(BIGSTR).
   001427                             1414  6IND3  NULL
                                      1415  *
                                      1416  *                              FIND CANDIDATE -TINYSTR- OCCURANCE.
                                      1417  *                              USE -SCD- TO FIND NEXT OCCURANCE,
                                      1418  *                              STARTING FROM -CURRENT-POINT IN BIGSTR
                                      1419  *                              WHERE FIRST 2 CHARS OF -TINYSTR- ARE.
   001427    000 0 100 1205 46        1420         SCD     (1,1,,Q),(1,,,)
   001430    0 00000 0 0 0 0005       1421         ADSC9   0,0,A,BIGADDR   SUBSTR(BIGSTR,START)=0-0,QL,BIGADDR
   001431    3 00000 0 0 0 0002       1422         ADSC9   0,0,2,TINYADDR  TINYSTR=0-0,,TINYADDR LEN=2
   001432    1 00000 0001 00          1423         ARG     0,,RSLTADDR     RSLT=0,,RSLTADDR
                                      1424  *                              IF END-OF-BIGSTR HIT,
                                      1425  *                              THEN NO OCCURANCES OF TINYSTR.
   001433 (0)001447 6064 00           1426         TTN     6IND3X
                                      1427  *                              FIRST TWO CHARS OF TINYSTR FOUND.
                                      1428  *                              0.LE. RSLT .LE.LENC(SUB(BIGSTR,CURR))-2
                                      1429  *                              STEP CURRENT POSITION IN STRING
                                      1430  *                              TO CHAR WHERE -SCD- STOPPED.
   001434    1 00000 0361 00          1431         ADLQ    0,,RSLTADDR
   001435    1 00000 1351 00          1432         SBLA    0,,RSLTADDR
                                      1433  *                              Q-REG IS CURRENT POINT --
                                      1434  *                              START .LE. CURR .LE. LENC(BIGSTR)
                                      1435  *                              A-REG IS CHAR-COUNT REMAINING --
                                      1436  *                              0.LE. A-REG .LE.LENC(SUB(BIGSTR,STRT0))
                                      1437  *                              CHECK IF ENOUGH CHARS LEFT IN STRING
                                      1438  *                              TO HOLD A FULL COPY OF -TINYSTR-
   001436    1 00000 4431 00          1439         SXL     TINYLEN,0,,RSLTADDR
   001437    1 00000 1151 00          1440         CMPA    0,,RSLTADDR
   001440 (0)001447 6040 00           1441         TMI     6IND3X          LENC(STRING-LEFT) .LT. LENC(TINYSTR)
                                      1442  *                              LENC(STRING-LEFT) .GE. LENC(TINYSTR)
                                      1443  *                              CHECK FOR FULL -TINYSTR- OCCURANCE.
                                      1444  *                              FILL-CHAR NOT NEEDED,
                                      1445  *                              SINCE COMPARE LENGTH MATCH EXACTLY.
 09:08 07/30/97  FILE=X6U$CSEQU.:E05TSI                                                                  55   BMAP - B00
   001441    000 0 140 1065 46        1446         CMPC    (1,1,,Q),(1,1,,)
   001442    0 00000 0 0 0 0013       1447         ADSC9   0,0,TINYLEN,BIGADDR  SUBSTR(BIGSTR,CURR)=0-0,QL,BIGADDR
   001443    3 00000 0 0 0 0013       1448         ADSC9   0,0,TINYLEN,TINYADDR TINYSTR=0-0,,TINYADDR
   001444 (0)001425 6010 00           1449         TNZ     6IND3L          IF NOT FOUND HERE, LOOP.
                                      1450  *                              -FOUND-
                                      1451  *                              OCCURANCE OF -TINYSTR- FOUND IN BIGSTR
                                      1452  *                              AT CURRENT POINT.
                                      1453  *                              SET -RSLT-
                                      1454  *                              MAKE -NORMAL- RETURN.
   001445    1 00000 7561 00          1455         STQ     0,,RSLTADDR
   001446    000001 7100 11           1456         TRA     1,1
                                      1457  *                              -NOT-FOUND-
                                      1458  *                              POINT IN -BIGSTR- REACHED WITH
                                      1459  *                              INSUFFICENT CHARS LEFT TO HOLD TINYSTR.
                                      1460  *                              SET -RSLT- TO LENGTHC(BIGSTR),
                                      1461  *                              (WITH A-REG + Q-REG GIVING LENGTH),
                                      1462  *                              MAKE -ALTRETURN- RETURN, NOT FOUND.
   001447                             1463  6IND3X NULL
   001447    1 00000 7551 00          1464         STA     0,,RSLTADDR
   001450    1 00000 0561 00          1465         ASQ     0,,RSLTADDR
   001451    000000 7100 11           1466         TRA     0,1

 09:08 07/30/97  FILE=X6U$CSEQU.:E05TSI                                                                  56   BMAP - B00
                                      1467           EJECT
                                      1468  *
 2 000000                             1469           USE       M$DO,5
                                      1470           SYMREF    M$DO
 3 000000                             1471           USE       X66_CONSTANT,6
                                      1472  *
             000000000400             1473  ALLOC    EQU       256
                                      1474  *
   000000    000000 X 000000          1475  NILPTR   ZERO      0,NULLSID
   000001    000000 X 000000          1476           ZERO      0,NULLSID
                                      1477  *
   000002    000000777777             1478  LOWMASK  OCT       777777
   000003    000000777777             1479           OCT       777777

 09:08 07/30/97  FILE=X6U$CSEQU.:E05TSI                                                                  57   BMAP - B00
                                      1480           EJECT
                                      1481  *
                                      1482  *
                                      1483  *                            THE FOLLOWING IS THE INITIAL
                                      1484  *                            SETTING OF THE BASE OF AUTO
                                      1485  *                            AND THE INITIAL FRAME OF AUTO
                                      1486  *                            IF THE MAIN PROGRAM IS AN
                                      1487  *                            AUTO ROUTINE, THE INITIAL FRAME
                                      1488  *                            WILL BELONG TO THE MAIN
                                      1489  *                            ELSE IT WILL BE A DUMMY FRAME.
   000004    000000 777773            1490  FRAME1   ZERO      0,-4-1      NEG CURRENT FRAME OFFSET(INITIAL)
   000005    000000 777777            1491           ZERO      0,-1      PL6 FLAG
   000006    777754 000000            1492           ZERO      -20,0     LAST VALID 'NEXT'VALUE
   000007    000000 000000            1493           ZERO
   000010    000000 777773            1494           ZERO      0,-4-1      RET, NEG PREV
   000011    000000 777777            1495           ZERO      0,-1      PL6 FLAG
   000012    000011 000000            1496           ZERO      1+8,0     NEXT FRAME
   000013    000000 000000            1497           ZERO                          UNUSED

 09:08 07/30/97  FILE=X6U$CSEQU.:E05TSI                                                                  58   BMAP - B00
                                      1498           EJECT
                                      1499  PMVEC    MACRO
                                      1500           CRSM      SAVE,OFF
                                      1501           IFE       '#3',''
                                      1502           VFD       20/0,11/2045,5/0
                                      1503           INE       '#3',''
                                      1504           VFD       20/#3-1,11/2045,5/0
                                      1505           VFD       18/#1,6/0,12/#2
                                      1506           CRSM      RESTORE
                                      1507           ENDM      PMVEC
                                      1508           EVEN
   000014                             1509  GDSFPT   NULL
   000014    0000007 3775 00          1510           PMVEC     GDSFPTV,ISSID,8
   000015 (3)000054 00 X 0000
   000016    0000000 3775 00          1511           PMVEC     0,NULLSID
   000017    000000 00 X 0000
   000020    0000007 3775 00          1512  GDSFPT4  PMVEC     GDSFPTV4,ISSID,8
   000021 (3)000055 00 X 0000
   000022    0000000 3775 00          1513           PMVEC     0,NULLSID
   000023    000000 00 X 0000
   000024    0000007 3775 00          1514  GDSFPT16 PMVEC     GDSFPTV16,ISSID,8
   000025 (3)000056 00 X 0000
   000026    0000000 3775 00          1515           PMVEC     0,NULLSID
   000027    000000 00 X 0000
   000030    0000007 3775 00          1516  GDSFPT64 PMVEC     GDSFPTV64,ISSID,8
   000031 (3)000057 00 X 0000
   000032    0000000 3775 00          1517           PMVEC     0,NULLSID
   000033    000000 00 X 0000
                                      1518           EVEN
   000034                             1519  WBADUNWIND NULL
   000034    0000017 3775 00          1520           PMVEC     WRV,ISSID,16
   000035 (3)000050 00 X 0000
   000036    0000000 3775 00          1521           PMVEC     0,NULLSID
   000037    000000 00 X 0000
   000040    0000047 3775 00          1522           PMVEC     MBADUNWIND,ISSID,40
   000041 (3)000100 00 X 0000
                                      1523           EVEN
 09:08 07/30/97  FILE=X6U$CSEQU.:E05TSI                                                                  59   BMAP - B00
   000042                             1524  WAUTONOTAVAIL NULL
   000042    0000017 3775 00          1525           PMVEC     WRV,ISSID,16
   000043 (3)000050 00 X 0000
   000044    0000000 3775 00          1526           PMVEC     0,NULLSID
   000045    000000 00 X 0000
   000046    0000077 3775 00          1527           PMVEC     MAUTONOTAVAIL,ISSID,64
   000047 (3)000060 00 X 0000
                                      1528           EVEN
   000050  X 000000 1 000000          1529  WRV      VFD       18/M$DO,1/1,17/0
   000051    000000 000000            1530           ZERO
   000052    000000 000000            1531           ZERO
   000053    000000 000000            1532           ZERO
                                      1533  *
   000054    1 000000 000400          1534  GDSFPTV  VFD       1/1,17/0,18/ALLOC
   000055    1 000000 002000          1535  GDSFPTV4 VFD       1/1,17/0,18/ALLOC*4
   000056    1 000000 010000          1536  GDSFPTV16 VFD      1/1,17/0,18/ALLOC*16
   000057    1 000000 040000          1537  GDSFPTV64 VFD      1/1,17/0,18/ALLOC*64
                                      1538  *
   000060                             1539  MAUTONOTAVAIL NULL
   000060    052052040101             1540           ASCII     16,** Auto segment is full or User Memory Authorization reached *
   000061    165164157040
   000062    163145147155
   000063    145156164040
   000064    151163040146
   000065    165154154040
   000066    157162040125
   000067    163145162040
   000070    115145155157
   000071    162171040101
   000072    165164150157
   000073    162151172141
   000074    164151157156
   000075    040162145141
   000076    143150145144
   000077    040052052040
   000100                             1541  MBADUNWIND NULL
   000100    111155160162             1542           ASCII     10,Improper UNWIND, IPR follows at unwind.
 09:08 07/30/97  FILE=X6U$CSEQU.:E05TSI                                                                  60   BMAP - B00
   000101    157160145162
   000102    040125116127
   000103    111116104054
   000104    040111120122
   000105    040146157154
   000106    154157167163
   000107    040141164040
   000110    165156167151
   000111    156144056040
   000112    777776777777             1543  EVENUPPERMASK OCT 777776777777
                                      1544           END

  CONTROL SECTION TABLE

   0 CODE   EIGHT 001452 X66_PROCED
   1 RODATA EVEN  000000 LITERALS
   2 DCB    EVEN  000000 M$DO
   3 RODATA EVEN  000113 X66_CONSTANT

 09:08 07/30/97  FILE=X6U$CSEQU.:E05TSI       SYMBOL TABLE                                               61   BMAP - B00
 00101000 000000001406 6IND1        *1356
 01101000 000000001415 6IND2         1347     *1370
 01101000 000000001427 6IND3         1345     *1414
 01101000 000000001425 6IND3L       *1407      1449
 01101000 000000001447 6IND3X        1426      1441     *1463
 41000000 000000000400 ALLOC          964      1037      1040      1042      1045      1048      1049
                                     1052      1094      1095      1098      1099      1102      1103
                                     1106      1107     *1473      1534      1535      1536      1537
 01101000 000000001126 ALLOCGO        206       227       236       260       273       284       309
                                      324       336       346       373       391       407       453
                                    *1015      1179
 01101000 000000000677 ALLOCN         506      *771
 01101000 000000001114 AUTOABORT      974      *979
 01101000 000000001102 AUTONOTAVAIL   775       945       957      *969      1016
 41000000 000000000002 AUTOPR         *50       152       153       154       162       163       164
                                      193       194       195       197       200       201       202
                                      203       204       211       212       213       215       217
                                      220       223       224       225       232       233       234
                                      241       242       243       245       247       250       254
                                      256       257       258       267       269       270       271
                                      279       280       281       282       289       290       291
                                      293       295       298       302       305       306       307
                                      317       320       321       322       329       332       333
                                      334       341       342       343       344       351       352
                                      353       355       357       360       364       368       369
                                      370       371       383       385       386       388       389
                                      399       400       403       404       405       418       419
                                      425       426       427       429       431       434       440
                                      446       449       450       451       472       478       485
                                      486       492       493       494       496       500       501
                                      502       505       507       513       523       525       528
                                      530       533       535       538       540       548       549
                                      550       551       553       555       772       773       776
                                      901       902       903       904       908       909       910
                                      911       938       939       940       942       943       958
                                      961       962       963       965       966       972       973
                                      976       977      1034      1036      1053      1056      1057
 09:08 07/30/97  FILE=X6U$CSEQU.:E05TSI       SYMBOL TABLE                                               62   BMAP - B00
                                     1058      1065      1066      1067      1068      1069      1070
                                     1071      1072      1073      1074      1075      1076      1077
                                     1078      1079      1132      1134      1135      1137      1138
                                     1139      1140      1141      1142      1149      1150      1152
                                     1162      1163      1164      1165      1166      1167      1170
                                     1173      1174      1175      1176      1177      1183      1184
                                     1185      1210      1211      1212      1218      1219      1220
                                     1278      1279      1281      1289      1290      1294
 01101000 000000001370 BADUNWIND     1284      1286     *1293
 41000000 000000000000 BIGADDR      *1322      1358      1372      1421      1447
 41000000 000000000000 BIGLEN       *1323      1340
 01101000 000000001124 CANCEL        1006     *1010
 01101000 000000000601 COMM41S       *681       704
 01101000 000000000577 COMM42S       *678       698
 01101000 000000000576 COMM4S        *676       693
 01101000 000000000642 COMM51S       *730       760
 01101000 000000000641 COMM52S       *728       754
 01101000 000000000637 COMM53S       *725       748
 01101000 000000000636 COMM54S       *723       743
 41000000 000000000000 CURR_          *74       154       164       195       202       213       220
                                     1167      1174
 41000000 000000000001 DESCLISTPR     *49       219       248       296       358       432       508
                                      518       519       580       599       629       670       717
                                      784       796       801       837       845       866
 01101000 000000001226 DOFDS         1096      1100      1104     *1109
 01101000 000000001153 DOGDS         1041      1046      1050     *1053
 03601002 000000000000 DS1SID         *54       958       972      1004      1090      1162      1183
                                     1255
 41000000 000000000002 ERR            *60      1206
 01101003 000000000112 EVENUPPERMASK  557     *1543
 41000000 000000000001 EXIT           *59      1201
 41000000 000000430002 FDS            *58       952      1109
 01101003 000000000004 FRAME1         960     *1490
 41000000 000000430001 GDS            *57       956      1054
 01101003 000000000014 GDSFPT         955      1051      1105     *1509
 01101003 000000000024 GDSFPT16      1044      1097     *1514
 01101003 000000000020 GDSFPT4       1047      1101     *1512
 09:08 07/30/97  FILE=X6U$CSEQU.:E05TSI       SYMBOL TABLE                                               63   BMAP - B00
 01101003 000000000030 GDSFPT64       951      1039      1093     *1516
 01101003 000000000054 GDSFPTV       1510     *1534
 01101003 000000000056 GDSFPTV16     1514     *1536
 01101003 000000000055 GDSFPTV4      1512     *1535
 01101003 000000000057 GDSFPTV64     1516     *1537
 01101000 000000000371 GOTQ          *499       558
 01101000 000000001057 INITAUTO       935      *951       954
 03601000 000000000000 ISSID          *52      1510      1512      1514      1516      1520      1522
                                     1525      1527
 41000000 000000000002 LIMIT_         *75       204       225       233      1177
 40000000 000000000002 LOCOFENT_      *71
 01101003 000000000002 LOWMASK       1285     *1478
 03301000 000000000000 M$DO         *1470      1529
 01101003 000000000060 MAUTONOTAVAIL 1527     *1539
 01101003 000000000100 MBADUNWIND    1522     *1541
 41000000 000000010014 MERCS          *63      1222      1248
 41000000 000000000002 NEXT_          *70       193       203       211       224       234      1175
 01101003 000000000000 NILPTR         328       340       411       416       466       471       477
                                      483       656       662       697       702       708       747
                                      752       758       764     *1475
 01101000 000000000044 NULL1          221      *230
 01101000 000000000777 NULL1PR        838      *859
 01101000 000000000470 NULL1S         581      *589
 01101000 000000000100 NULL2          251      *263
 01101000 000000000114 NULL20         264      *276
 01101000 000000000524 NULL20S        612      *620
 01101000 000000000772 NULL2PR        847      *852
 01101000 000000000776 NULL2PR0       853      *857
 01101000 000000000514 NULL2S         603      *611
 01101000 000000000147 NULL3          299      *312
 01101000 000000000175 NULL30         313      *338
 01101000 000000000564 NULL30S        643      *661
 01101000 000000000164 NULL31         314      *327
 01101000 000000000554 NULL31S        644      *653
 01101000 000000001015 NULL3PR        868      *876
 01101000 000000001013 NULL3PR0      *873       886
 01101000 000000001022 NULL3PR0OR1    877      *884
 09:08 07/30/97  FILE=X6U$CSEQU.:E05TSI       SYMBOL TABLE                                               64   BMAP - B00
 01101000 000000001025 NULL3PR1       875      *888
 01101000 000000000543 NULL3S         633      *642
 01101000 000000000235 NULL4          361      *376
 01101000 000000000275 NULL40         377      *415
 01101000 000000000622 NULL40S        689      *707
 01101000 000000000270 NULL41         378      *410
 01101000 000000000614 NULL41S        690      *701
 01101000 000000000254 NULL42         379      *394
 01101000 000000000612 NULL42S        691      *696
 01101000 000000000256 NULL4C1       *397       412
 01101000 000000000262 NULL4C2       *402       420
 01101000 000000000605 NULL4S         674      *688
 01101000 000000000334 NULL5          435      *456
 01101000 000000000355 NULL50         457      *482
 01101000 000000000672 NULL50S        738      *763
 01101000 000000000350 NULL51         458      *476
 01101000 000000000664 NULL51S        739      *757
 01101000 000000000344 NULL52         459      *470
 01101000 000000000660 NULL52S        740      *751
 01101000 000000000342 NULL53         460      *465
 01101000 000000000656 NULL53S        741      *746
 01101000 000000000316 NULL5C0       *437       462
 01101000 000000000317 NULL5C1       *439       467
 01101000 000000000321 NULL5C2       *442       473
 01101000 000000000322 NULL5C3       *444       479
 01101000 000000000325 NULL5C4       *448       487
 01101000 000000000650 NULL5S         721      *737
 01101000 000000000410 NULLN          509      *517
 01101000 000000000724 NULLNS         786      *795
 03601001 000000000000 NULLSID        *53       231       266       278       316       384       395
                                      461       524       591       614       621       646       692
                                      742       803       855       858       860       874       880
                                      889       890      1475      1476      1511      1513      1515
                                     1517      1521      1526
 40000000 000000000001 PARMREG1       *77
 40000000 000000000003 PARMREG2       *78
 40000000 000000000004 PARMREG3       *79
 09:08 07/30/97  FILE=X6U$CSEQU.:E05TSI       SYMBOL TABLE                                               65   BMAP - B00
 40000000 000000000003 PARMS_         *72
 41000000 000000000000 PREV_          *68       197      1170
 41000000 000000000000 PTRLISTPR      *48       222       253       255       268       300       301
                                      304       315       319       331       362       363       366
                                      367       381       382       387       396       401       436
                                      438       441       443       447       512       522       584
                                      604       605       613       634       635       637       645
                                      648       654       675       677       680       683       722
                                      724       727       729       732       790       799       839
                                      848       849       854       869       870       871       878
                                      879       887
 41000000 000000000000 RET_           *67       200       217
 41000000 000000000000 RET_PREV_      *69       152       162
 41000000 000000000001 RSLTADDR     *1324      1339      1342      1360      1364      1374      1380
                                     1385      1423      1431      1432      1439      1440      1455
                                     1464      1465
 01101000 000000001342 SETCUR        1236      1244     *1250
 03601003 000000000000 TCBSID         *55      1250
 01101000 000000000374 TESTN         *503       777
 41000000 000000000003 TINYADDR     *1320      1359      1373      1422      1448
 41000000 000000000003 TINYLEN      *1321      1344      1346      1439      1447      1448
 41000000 000000010012 TRTN           *62      1214      1240
 01101000 000000001140 TRY16         1038     *1042
 01101000 000000001145 TRY4          1043     *1047
 01101003 000000000042 WAUTONOTAVAIL  970     *1524
 01101003 000000000034 WBADUNWIND    1295     *1519
 41000000 000000040001 WRITE          *64       971      1296
 01101003 000000000050 WRV           1520      1525     *1529
 00101000 000000000000 X66           *151
 12101000 000000001321 X66_AAALT      125     *1217
 12101000 000000000004 X66_AALT       107      *162
 12101000 000000001314 X66_AARET      124     *1209
 12101000 000000001352 X66_AAUNWIND   129     *1274
 12101000 000000001261 X66_AAUTO      120     *1161
 13101000 000000000000 X66_ARET       107      *152       191       209       229       239       262
                                      275       287       311       326       337       349       375
                                      393       409       414       423       455       469       475
 09:08 07/30/97  FILE=X6U$CSEQU.:E05TSI       SYMBOL TABLE                                               66   BMAP - B00
                                      481       490       516       578       588       597       610
                                      619       627       641       652       660       668       687
                                      706       715       736       750       756       762       780
                                      794       835       843       864       899
 13101000 000000001324 X66_ASALT      125     *1221      1246
 13101000 000000001317 X66_ASRET      124     *1213      1238
 12101000 000000001301 X66_ASTATIC    120     *1182
 12101000 000000001352 X66_ASUNWIND   130     *1275
 12101000 000000001352 X66_AUNWIND    129     *1276
 12101000 000000000010 X66_AUTO_0     108      *192
 12101000 000000000024 X66_AUTO_1     108      *210
 12101000 000000000054 X66_AUTO_2     108      *240
 12101000 000000000124 X66_AUTO_3     109      *288
 12101000 000000000210 X66_AUTO_4     110      *350
 12101000 000000000304 X66_AUTO_5     110      *424
 13101000 000000001131 X66_AUTO_ALLOC           136       774       944      1015     *1033      1144
 12101000 000000001116 X66_AUTO_EX    137     *1003
 12101000 000000000364 X66_AUTO_N     109      *491
 12101000 000000000443 X66_AUTO_Q     111      *547
 12101000 000000001035 X66_FAALT      127      *907
 12101000 000000001030 X66_FARET      127      *900
 12101000 000000001234 X66_FRAME_EXT  138     *1130
 12101000 000000001254 X66_FRAME_KEXT           139     *1148
 01101000 000000001132 X66_GETSP1   *1035      1059
 12101000 000000001375 X66_INDEX      134     *1331
 12101000 000000001312 X66_MAALT      123     *1204
 12101000 000000001310 X66_MARET      122     *1199
 12101000 000000001352 X66_MAUNWIND   129     *1272
 12101000 000000001042 X66_MAUTO      118      *934
 12101000 000000001334 X66_MERCS      141     *1243
 12101000 000000001312 X66_MSALT      123     *1205
 12101000 000000001310 X66_MSRET      122     *1200
 12101000 000000001056 X66_MSTATIC    118      *949
 12101000 000000001352 X66_MSUNWIND   130     *1273
 12101000 000000000760 X66_PREGS_1    132      *836
 12101000 000000000764 X66_PREGS_2    132      *844
 12101000 000000001004 X66_PREGS_3    132      *865
 09:08 07/30/97  FILE=X6U$CSEQU.:E05TSI       SYMBOL TABLE                                               67   BMAP - B00
 13101000 000000001203 X66_REL_AUTO   137     *1089      1113
 12101000 000000000454 X66_STATIC_0   113      *572
 12101000 000000000460 X66_STATIC_1   113      *579
 12101000 000000000500 X66_STATIC_2   113      *598
 12101000 000000000530 X66_STATIC_3   114      *628
 12101000 000000000570 X66_STATIC_4   115      *669
 12101000 000000000630 X66_STATIC_5   115      *716
 12101000 000000000710 X66_STATIC_N   114      *781
 12101000 000000001352 X66_SUNWIND    130     *1277
 12101000 000000001326 X66_TRTN       141     *1235
 41000000 000000000003 XXX            *61       980
 61000000 000000001030 _1            *191      *209      *229      *239      *262      *275      *287
                                     *311      *326      *337      *349      *375      *393      *409
                                     *414      *423      *455      *469      *475      *481      *490
                                     *516      *578      *588      *597      *610      *619      *627
                                     *641      *652      *660      *668      *687      *706      *715
                                     *736      *750      *756      *762      *780      *794      *835
                                     *843      *864      *899
 61000000 000000000010 _2            *191      *209      *229      *239      *262      *275      *287
                                     *311      *326      *337      *349      *375      *393      *409
                                     *414      *423      *455      *469      *475      *481      *490
                                     *516      *578      *588      *597      *610      *619      *627
                                     *641      *652      *660      *668      *687      *706      *715
                                     *736      *750      *756      *762      *780      *794      *835
                                     *843      *864      *899

     174 SYMBOLS

 09:08 07/30/97  FILE=X6U$CSEQU.:E05TSI       MACRO TABLE                                                68   BMAP - B00
 ALIGN          191       209       229       239       262       275       287       311       326
                337       349       375       393       409       414       423       455       469
                475       481       490       516       578       588       597       610       619
                627       641       652       660       668       687       706       715       736
                750       756       762       780       794       835       843       864       899
 PMVEC         1510      1511      1512      1513      1514      1515      1516      1517      1520
               1521      1522      1525      1526      1527

       2 MACROS

    SYMBOL SPACE USED  3311 WORDS
     MACRO SPACE USED   108 WORDS
   INPUT RECORDS READ  3088
 STATEMENTS PROCESSED  2409
         ELAPSED TIME  0:24.44
             CPU TIME    12.79 SEC.
        ASSEMBLY RATE 11301 STATEMENTS/CPU MIN.

      NO ERRORS

