VERSION E05

 09:09 07/30/97  FILE=XSA$MON.:E05TSI                                                                    1    BMAP - B00
                                         1  *M*  XSA$MON Module to implement inter-monitor PMMEs *
                                         2  *T***********************************************************
                                         3  *T*                                                         *
                                         4  *T* Copyright (c) Bull HN Information Systems Inc., 1997    *
                                         5  *T*                                                         *
                                         6  *T***********************************************************
                                         7  *
                                         8  *
                                         9  *
                                        10                ENTREF    X66_AUTO_1
                                        11                ENTREF    UDN$MGSAVE
                                        12                ENTREF    UDN$MGRES
                                        13                ENTREF    UDN$BLDASR
                                        14                ENTREF    X66_ARET
                                        15                ENTREF    X66_AALT
                                        16                SYMREF    B$NULL$
                                        17                SYMREF    B_MPT
                                        18
                                        19                ENTDEF    XSA$MON
                                        20
                                        21                ENTDEF    M$MACCT
                                        22                ENTDEF    M$MFID
                                        23                ENTDEF    M$MUNFID
                                        24                ENTDEF    M$MGJOB
                                        25                ENTDEF    M$MREAD
                                        26                ENTDEF    M$MWRITE
                                        27                ENTDEF    M$MDELREC
                                        28                ENTDEF    M$MPRECORD
                                        29                ENTDEF    M$MPFIL
                                        30                ENTDEF    M$MOPEN
                                        31                ENTDEF    M$MCLOSE
                                        32                ENTDEF    M$MGETDCB
                                        33                ENTDEF    M$MJOBSTATS
                                        34                ENTDEF  M$MLIMIT
                                        35                ENTDEF  M$MRELRES
                                        36
                                        37
 09:09 07/30/97  FILE=XSA$MON.:E05TSI                                                                    2    BMAP - B00
                                        38                LODM      B_BMACROS_C
             000000000000               39                MONLS
             000000000001
             000000000002
             000000000003
             000000000004
             000000000004
             000000000005
             000000000006
             000000000007
             000000000010
             000000000011
             000000000012
             000000000013
             000000000013
             000000000014
             000000000015
             000000000016
             000000000017
             000000000020
             000000000021
             000000000022
             000000000023
             000000000024
             000000000025
             000000000026
             000000000027
             000000000030
             000000000031
             000000000032
             000000000033
             000000000034
             000000000035
             000000000036
             000000000037
             000000000040
             000000000041
 09:09 07/30/97  FILE=XSA$MON.:E05TSI                                                                    3    BMAP - B00
             000000000042
             000000000043
             000000000044
             000000000045
             000000000046
             000000000047
             000000000050
             000000000051
             000000000052
             000000000053
             000000000054
             000000000055
             000000000075
             000000000115
             000000000116
             000000000117
             000000000120
             000000000121
             000000000122
             000000000123
             000000000124
             000000000125
             000000000126
             000000000127
             000000000130
             000000000131
             000000000132
             000000000133
             000000000134
             000000000135
             000000000136
             000000000137
             000000000140
             000000000141
             000000000142
             000000000143
             000000000144
 09:09 07/30/97  FILE=XSA$MON.:E05TSI                                                                    4    BMAP - B00
             000000000145
             000000000146
             000000000147
             000000000150
             000000000151
             000000000152
             000000000153
             000000000154
             000000000155
             000000000155
             000000000156
             000000000156
             000000000157
             000000000160
             000000000161
             000000000162
             000000000163
             000000000164
             000000000165
             000000000166
             000000000167
             000000000170
             000000000171
             000000000172
             000000000173
             000000000174
             000000000175
             000000000176
             000000000177
             000000000200
             000000000201
             000000000202
             000000000000               40                MAGIC
             000000000001
             000000000002
             000000000003
             000000000004
 09:09 07/30/97  FILE=XSA$MON.:E05TSI                                                                    5    BMAP - B00
             000000000005
             000000000006
             000000000007
             000000000010
             000000000011
             000000000012
             000000000013
             000000000006
             000000000002               41  AUTO          EQU       2
             000000001762               42  ISR           BOOL      1762
                                        43  MPMME         MACRO
                                        44                TSX7      PMME
                                        45                ENDM

 09:09 07/30/97  FILE=XSA$MON.:E05TSI                                                                    6    BMAP - B00
                                        46                EJECT
                                        47                INHIB     ON
 0 000000                               48                USE       XSA$MON,1
   000000                               49  XSA$MON       NULL
                                        50  *
   000000                               51  M$MACCT    NULL
   000000 (0)000036 7072 00             52             MPMME
   000001    000005 000026              53             ZERO       5,=O000026
                                        54  *
   000002                               55  M$MFID        NULL
   000002 (0)000036 7072 00             56                MPMME
   000003    000012 020001              57                ZERO      10,=O20001
                                        58  *
   000004                               59  M$MUNFID      NULL
   000004 (0)000036 7072 00             60                MPMME
   000005    000012 020021              61                ZERO      10,=O20021
                                        62  *
   000006                               63  M$MGJOB       NULL
   000006 (0)000036 7072 00             64                MPMME
   000007    000006 020022              65                ZERO      6,=O20022
                                        66  *
   000010                               67  M$MREAD       NULL
   000010 (0)000036 7072 00             68                MPMME
   000011    000004 040000              69                ZERO      4,=O40000
                                        70  *
   000012                               71  M$MWRITE      NULL
   000012 (0)000036 7072 00             72                MPMME
   000013    000004 040001              73                ZERO      4,=O40001
                                        74  *
   000014                               75  M$MDELREC     NULL
   000014 (0)000036 7072 00             76                MPMME
   000015    000003 040002              77                ZERO      3,=O40002
                                        78  *
   000016                               79  M$MPRECORD    NULL
   000016 (0)000036 7072 00             80                MPMME
   000017    000003 040003              81                ZERO      3,=O40003
                                        82  *
 09:09 07/30/97  FILE=XSA$MON.:E05TSI                                                                    7    BMAP - B00
   000020                               83  M$MPFIL       NULL
   000020 (0)000036 7072 00             84                MPMME
   000021    000001 040004              85                ZERO      1,=O40004
                                        86  *
   000022                               87  M$MOPEN       NULL
   000022 (0)000036 7072 00             88                MPMME
   000023    000022 050000              89                ZERO      18,=O50000
                                        90  *
   000024                               91  M$MCLOSE      NULL
   000024 (0)000036 7072 00             92                MPMME
   000025    000015 050001              93                ZERO      13,=O50001
                                        94  *
   000026                               95  M$MGETDCB     NULL
   000026 (0)000036 7072 00             96                MPMME
   000027    000003 060002              97                ZERO      3,=O60002
                                        98  *
   000030                               99  M$MJOBSTATS NULL
   000030 (0)000036 7072 00            100             MPMME
   000031    000014 170001             101             ZERO       12,=O170001
                                       102  *
   000032                              103  M$MLIMIT NULL
   000032 (0)000036 7072 00            104           MPMME
   000033    000006 150000             105           ZERO    6,=O150000
                                       106  *
   000034                              107  M$MRELRES NULL
   000034 (0)000036 7072 00            108           MPMME
   000035    000006 150003             109           ZERO    6,=O150003
                                       110  *
                                       111  *
                                       112  *
                                       113  *
   000036                              114  PMME          NULL
   000036  X 000000 7002 00            115                TSX0      X66_AUTO_1
   000037    000020 000001             116                ZERO      MAGIC.ND*2+4,1
                                       117                                           : Build an
   000040  X 000000 7012 00            118                TSX1      UDN$BLDASR       : appropriate
   000041    000000 0112 00            119                NOP       0                : ASR.
 09:09 07/30/97  FILE=XSA$MON.:E05TSI                                                                    8    BMAP - B00
   000042    2 00004 6307 00           120                EPPR0     4,,AUTO          : Now
   000043    0 00000 4507 00           121                STP0      0,,0             : save the current
   000044  X 000000 7012 00            122                TSX1      UDN$MGSAVE       : magic segment in
   000045    000000 0112 00            123                NOP       0                : auto.
   000046    2 00003 4707 00           124                LDP0      3,,AUTO          : Point to the FPT.
   000047    000000 7202 17            125                LXL0      0,7              : Get PMME code.
   000050    2 00000 2213 00           126                LDX1      0,,AUTO          : If the caller specified
   000051    000000 2352 11            127                LDA       0,1              : an ALTRET then set the
   000052 (0)000067 1152 00            128                CMPA      LNOP             : ALTRET bit for the PMME
   000053 (0)000057 6002 00            129                TZE       NOALT            : handler, otherwise don't set
   000054 (0)000066 1152 00            130                CMPA      INOP             : it so that horrible things
   000055 (0)000057 6002 00            131                TZE       NOALT            : will happen if there is
   000056    400000 2602 03            132                ORX0      =O400000,DU      : an error.
   000057                              133  NOALT         NULL                       :
   000057    2 00003 2353 00           134                LDA       3,,2             : If there isn't any FPT, then
   000060  X 000000 1152 00            135                CMPA      B$NULL$          : climb with zero vectors, else
   000061 (0)000070 6002 00            136                TZE       NOVECT           : pick up the number of vectors
   000062    000000 2352 17            137                LDA       0,7              : there should be, and climb
   000063    000022 7712 00            138                ARL       18               : with that.
   000064    000002 7352 00            139                ALS       2                :
   000065 (0)000070 7102 05            140                TRA       NOVECT,AL        :
                                       141  *                                        :
   000066    000000 0112 00            142  INOP          NOP       0                :
                                       143                INHIB     OFF              :
   000067    000000 0110 00            144  LNOP          NOP       0                :
                                       145                INHIB     ON               :
                                       146                EVEN                       :
   000070                              147  NOVECT        NULL                       :
             000000000000              148  NV            SET       0                :
                                       149                DUP       4,20             : Generate a table of climbs,
   000070    000000 7134 00            150                ENTER     LS.PMME+3072,NV  : each with the correct number
   000071    0 000 000 20 6027
   000072 (0)000210 7102 00            151                TRA       ALTRET           : of vectors in
   000073 (0)000216 7102 00            152                TRA       NORMAL           : it.
             000000000001              153  NV            SET       NV+1
   000074    000000 7134 00
   000075    1 000 000 20 6027
 09:09 07/30/97  FILE=XSA$MON.:E05TSI                                                                    9    BMAP - B00
   000076 (0)000210 7102 00
   000077 (0)000216 7102 00
             000000000002
   000100    000000 7134 00
   000101    1 001 000 20 6027
   000102 (0)000210 7102 00
   000103 (0)000216 7102 00
             000000000003
   000104    000000 7134 00
   000105    1 002 000 20 6027
   000106 (0)000210 7102 00
   000107 (0)000216 7102 00
             000000000004
   000110    000000 7134 00
   000111    1 003 000 20 6027
   000112 (0)000210 7102 00
   000113 (0)000216 7102 00
             000000000005
   000114    000000 7134 00
   000115    1 004 000 20 6027
   000116 (0)000210 7102 00
   000117 (0)000216 7102 00
             000000000006
   000120    000000 7134 00
   000121    1 005 000 20 6027
   000122 (0)000210 7102 00
   000123 (0)000216 7102 00
             000000000007
   000124    000000 7134 00
   000125    1 006 000 20 6027
   000126 (0)000210 7102 00
   000127 (0)000216 7102 00
             000000000010
   000130    000000 7134 00
   000131    1 007 000 20 6027
   000132 (0)000210 7102 00
   000133 (0)000216 7102 00
 09:09 07/30/97  FILE=XSA$MON.:E05TSI                                                                    10   BMAP - B00
             000000000011
   000134    000000 7134 00
   000135    1 010 000 20 6027
   000136 (0)000210 7102 00
   000137 (0)000216 7102 00
             000000000012
   000140    000000 7134 00
   000141    1 011 000 20 6027
   000142 (0)000210 7102 00
   000143 (0)000216 7102 00
             000000000013
   000144    000000 7134 00
   000145    1 012 000 20 6027
   000146 (0)000210 7102 00
   000147 (0)000216 7102 00
             000000000014
   000150    000000 7134 00
   000151    1 013 000 20 6027
   000152 (0)000210 7102 00
   000153 (0)000216 7102 00
             000000000015
   000154    000000 7134 00
   000155    1 014 000 20 6027
   000156 (0)000210 7102 00
   000157 (0)000216 7102 00
             000000000016
   000160    000000 7134 00
   000161    1 015 000 20 6027
   000162 (0)000210 7102 00
   000163 (0)000216 7102 00
             000000000017
   000164    000000 7134 00
   000165    1 016 000 20 6027
   000166 (0)000210 7102 00
   000167 (0)000216 7102 00
             000000000020
   000170    000000 7134 00
 09:09 07/30/97  FILE=XSA$MON.:E05TSI                                                                    11   BMAP - B00
   000171    1 017 000 20 6027
   000172 (0)000210 7102 00
   000173 (0)000216 7102 00
             000000000021
   000174    000000 7134 00
   000175    1 020 000 20 6027
   000176 (0)000210 7102 00
   000177 (0)000216 7102 00
             000000000022
   000200    000000 7134 00
   000201    1 021 000 20 6027
   000202 (0)000210 7102 00
   000203 (0)000216 7102 00
             000000000023
   000204    000000 7134 00
   000205    1 022 000 20 6027
   000206 (0)000210 7102 00
   000207 (0)000216 7102 00
             000000000024
   000210    2 00004 6307 00           154  ALTRET        EPPR0     4,,AUTO          : Restore
   000211    2 00003 4507 00           155                STP0      3,,AUTO          : the
   000212    2 00003 6307 00           156                EPPR0     3,,AUTO          :
   000213  X 000000 7012 00            157                TSX1      UDN$MGRES        : magic
   000214    000000 0112 00            158                NOP       0                : segment
   000215  X 000000 7102 00            159                TRA       X66_AALT         : on
   000216    2 00004 6307 00           160  NORMAL        EPPR0     4,,AUTO          :
   000217    2 00003 4507 00           161                STP0      3,,AUTO          : the
   000220    2 00003 6307 00           162                EPPR0     3,,AUTO          :
   000221  X 000000 7012 00            163                TSX1      UDN$MGRES        : way
   000222    000000 0112 00            164                NOP       0                : back
   000223  X 000000 7102 00            165                TRA       X66_ARET         : out.
                                       166                END

  CONTROL SECTION TABLE

   0 CODE   EVEN  000224 XSA$MON
   1 RODATA EVEN  000000 LITERALS

 09:09 07/30/97  FILE=XSA$MON.:E05TSI         SYMBOL TABLE                                               12   BMAP - B00
 01101000 000000000210 ALTRET         151       153      *154
 41000000 000000000002 AUTO           *41       120       124       126       154       155       156
                                      160       161       162
 03301000 000000000000 B$NULL$        *16       135
 02301001 000000000000 B_MPT          *17
 01101000 000000000066 INOP           130      *142
 40000000 000000001762 ISR            *42
 01101000 000000000067 LNOP           128      *144
 41000000 000000000155 LS.AARDV       *39
 41000000 000000000156 LS.AARDV2      *39
 41000000 000000000033 LS.ASLLS       *39
 41000000 000000000053 LS.ASR         *39
 41000000 000000000002 LS.BUF         *39
 41000000 000000000161 LS.BUFCACH     *39
 40000000 000000000004 LS.CFU         *39
 41000000 000000000164 LS.CGCTXT      *39
 41000000 000000000163 LS.CGPT        *39
 41000000 000000000075 LS.CPGT1       *39
 41000000 000000000034 LS.CPLS        *39
 41000000 000000000055 LS.CWSQ1       *39
 41000000 000000000032 LS.DBLS        *39
 41000000 000000000004 LS.DS1         *39
 41000000 000000000005 LS.DS2         *39
 41000000 000000000006 LS.DS3         *39
 41000000 000000000007 LS.DS4         *39
 41000000 000000000010 LS.DS5         *39
 41000000 000000000011 LS.DS6         *39
 41000000 000000000012 LS.DS7         *39
 41000000 000000000013 LS.DS8         *39
 40000000 000000000202 LS.DVT         *39
 41000000 000000000016 LS.ECCB        *39
 41000000 000000000157 LS.FIRM        *39
 40000000 000000000155 LS.FLT         *39
 41000000 000000000045 LS.HJITU       *39
 41000000 000000000162 LS.IMX         *39
 41000000 000000000122 LS.IOEND       *39
 41000000 000000000176 LS.IPHY_MAP    *39
 09:09 07/30/97  FILE=XSA$MON.:E05TSI         SYMBOL TABLE                                               13   BMAP - B00
 41000000 000000000000 LS.IS          *39
 41000000 000000000050 LS.ISB         *39
 41000000 000000000115 LS.JITPG       *39
 41000000 000000000001 LS.JITU        *39
 40000000 000000000013 LS.LDCT        *39
 41000000 000000000134 LS.LDCTNC      *39
 41000000 000000000121 LS.LOWMEM      *39
 41000000 000000000167 LS.MAGAS       *39
 41000000 000000000172 LS.MAGECCB     *39
 41000000 000000000166 LS.MAGLS       *39
 41000000 000000000170 LS.MAGPS       *39
 41000000 000000000165 LS.MAGSS       *39
 41000000 000000000171 LS.MAGTCB      *39
 41000000 000000000043 LS.MHJIT       *39
 41000000 000000000177 LS.MINIQ_ENT   *39
 41000000 000000000054 LS.MISC        *39
 41000000 000000000130 LS.MISC2       *39
 41000000 000000000042 LS.MJIT        *39
 41000000 000000000035 LS.MLS         *39
 41000000 000000000132 LS.MLS1        *39
 41000000 000000000173 LS.MLSREAD     *39
 40000000 000000000156 LS.MONRL       *39
 41000000 000000000044 LS.MONSSS      *39
 41000000 000000000120 LS.MOUSE       *39
 41000000 000000000037 LS.MPT         *39
 41000000 000000000145 LS.MSTRHJ      *39
 41000000 000000000135 LS.MSTRPT      *39
 41000000 000000000041 LS.MTSTACK     *39
 41000000 000000000014 LS.NULL        *39
 41000000 000000000027 LS.PMME        *39       150       153
 41000000 000000000116 LS.PPUT        *39
 41000000 000000000131 LS.RCVENT      *39
 41000000 000000000127 LS.RCVRTN      *39
 41000000 000000000021 LS.REAL        *39
 41000000 000000000030 LS.REG         *39
 41000000 000000000124 LS.RONC        *39
 41000000 000000000003 LS.ROSEG       *39
 09:09 07/30/97  FILE=XSA$MON.:E05TSI         SYMBOL TABLE                                               14   BMAP - B00
 41000000 000000000125 LS.ROSEG8      *39
 41000000 000000000046 LS.SBUF1       *39
 41000000 000000000047 LS.SBUF2       *39
 41000000 000000000025 LS.SCR         *39
 41000000 000000000051 LS.SCU         *39
 41000000 000000000174 LS.SEGTBL      *39
 41000000 000000000146 LS.SLV1HJ      *39
 41000000 000000000136 LS.SLV1PT      *39
 41000000 000000000147 LS.SLV2HJ      *39
 41000000 000000000137 LS.SLV2PT      *39
 41000000 000000000150 LS.SLV3HJ      *39
 41000000 000000000140 LS.SLV3PT      *39
 41000000 000000000151 LS.SLV4HJ      *39
 41000000 000000000141 LS.SLV4PT      *39
 41000000 000000000152 LS.SLV5HJ      *39
 41000000 000000000142 LS.SLV5PT      *39
 41000000 000000000153 LS.SLV6HJ      *39
 41000000 000000000143 LS.SLV6PT      *39
 41000000 000000000154 LS.SLV7HJ      *39
 41000000 000000000144 LS.SLV7PT      *39
 41000000 000000000017 LS.TCB         *39
 41000000 000000000123 LS.TIGR        *39
 41000000 000000000020 LS.TSTACK      *39
 41000000 000000000031 LS.ULS         *39
 41000000 000000000036 LS.UPT         *39
 41000000 000000000023 LS.USDS0       *39
 41000000 000000000024 LS.USDS1       *39
 41000000 000000000040 LS.USRIS       *39
 41000000 000000000022 LS.USSS        *39
 41000000 000000000117 LS.VPT         *39
 41000000 000000000052 LS.WINDOW      *39
 41000000 000000000133 LS.WS3MLS      *39
 41000000 000000000160 LS.WS3MLSNW    *39
 41000000 000000000175 LS.WSQ0PT      *39
 41000000 000000000026 LS.XD          *39
 41000000 000000000126 LS.XDRTN       *39
 41000000 000000000201 LS.XLALT       *39
 09:09 07/30/97  FILE=XSA$MON.:E05TSI         SYMBOL TABLE                                               15   BMAP - B00
 41000000 000000000015 LS.XLAT        *39
 41000000 000000000200 LS.XLNORM      *39
 12101000 000000000000 M$MACCT         21       *51
 12101000 000000000024 M$MCLOSE        31       *91
 12101000 000000000014 M$MDELREC       27       *75
 12101000 000000000002 M$MFID          22       *55
 12101000 000000000026 M$MGETDCB       32       *95
 12101000 000000000006 M$MGJOB         24       *63
 12101000 000000000030 M$MJOBSTATS     33       *99
 12101000 000000000032 M$MLIMIT        34      *103
 12101000 000000000022 M$MOPEN         30       *87
 12101000 000000000020 M$MPFIL         29       *83
 12101000 000000000016 M$MPRECORD      28       *79
 12101000 000000000010 M$MREAD         25       *67
 12101000 000000000034 M$MRELRES       35      *107
 12101000 000000000004 M$MUNFID        23       *59
 12101000 000000000012 M$MWRITE        26       *71
 41000000 000000000006 MAGIC.ND       *40       116
 41000000 000000000002 MPT.AS         *40
 41000000 000000000010 MPT.ASDESC     *40
 41000000 000000000005 MPT.ECCB       *40
 40000000 000000000013 MPT.ECCBDESC   *40
 41000000 000000000001 MPT.LS         *40
 41000000 000000000007 MPT.LSDESC     *40
 41000000 000000000003 MPT.PS         *40
 41000000 000000000011 MPT.PSDESC     *40
 41000000 000000000000 MPT.SS         *40
 41000000 000000000006 MPT.SSDESC     *40
 41000000 000000000004 MPT.TCB        *40
 41000000 000000000012 MPT.TCBDESC    *40
 01101000 000000000057 NOALT          129       131      *133
 01101000 000000000216 NORMAL         152       153      *160
 01101000 000000000070 NOVECT         136       140      *147
 60000000 000000000024 NV            *148       150      *153
 01101000 000000000036 PMME            52        56        60        64        68        72        76
                                       80        84        88        92        96       100       104
                                      108      *114
 09:09 07/30/97  FILE=XSA$MON.:E05TSI         SYMBOL TABLE                                               16   BMAP - B00
 03201003 000000000000 UDN$BLDASR     *13       118
 03201002 000000000000 UDN$MGRES      *12       157       163
 03201001 000000000000 UDN$MGSAVE     *11       122
 03201005 000000000000 X66_AALT       *15       159
 03201004 000000000000 X66_ARET       *14       165
 03201000 000000000000 X66_AUTO_1     *10       115
 12101000 000000000000 XSA$MON         19       *49

     152 SYMBOLS

 09:09 07/30/97  FILE=XSA$MON.:E05TSI         MACRO TABLE                                                17   BMAP - B00
 MAGIC           40
 MONLS           39
 MPMME           52        56        60        64        68        72        76        80        84
                 88        92        96       100       104       108

      17 MACROS

    SYMBOL SPACE USED  1692 WORDS
     MACRO SPACE USED  3367 WORDS
   INPUT RECORDS READ   787
 STATEMENTS PROCESSED   537
         ELAPSED TIME  0:06.96
             CPU TIME     3.28 SEC.
        ASSEMBLY RATE  9823 STATEMENTS/CPU MIN.

      NO ERRORS

