VERSION E05

PL6.E3A0      #001=X$EVAL File=XUE$EVAL.:E05TSI                                  WED 07/30/97 09:12 Page:1
        1        1        /*M*    XUE$EVAL   implements expression evaluation     */
        2        2        /*T***********************************************************/
        3        3        /*T*                                                         */
        4        4        /*T* Copyright (c) Bull HN Information Systems Inc., 1997    */
        5        5        /*T*                                                         */
        6        6        /*T***********************************************************/
        7        7        /*X* DMC,PLM=4,IND=4,CTI=2,DTI=0,ENI=0,ECI=0,CSI=0,MCI,DCI=4 */
        8        8        /*F*    NAME:          X$EVAL
        9        9                PURPOSE:       To provide necessary setup for X$EVALUATE
       10       10                DESCRIPTION:   This routine will parse input text, setup
       11       11                               the free string space management macros,
       12       12                               handle errors and perform other setup functions
       13       13                               needed for X$EVALUATE.
       14       14        */
       15       15        X$EVAL: PROC (XUE_ECB) ALTRET;
       16       16        /***** Include files *****/
       17       17          %INCLUDE CP_6;
       18     5576          %INCLUDE CP_6_SUBS;
       19     6116          %INCLUDE XUE_MACRO_C;
       20     6860          %INCLUDE XUE_SUBS_C;
       21     7040          %INCLUDE XU_PERR_C;
       22     7231          %INCLUDE XUM_MACRO_C;
       23     7258        /***** Parameters *****/
       24     7259          %XUE_ECB (STCLASS=" ");
       25     7461        /***** Auto Structures *****/
       26     7462          %XUM$MCB (NAME=MCB,STCLASS=AUTO);
       27     7466    1   DCL EOF_NAME$ PTR CONSTANT INIT (ADDR(EOF_NAME));
       28     7467    1   DCL 1  EOF_NAME CONSTANT,
       29     7468    1         2  COUNT UBIN BYTE UNAL INIT(4),
       30     7469    1         2  TEXT CHAR(4) UNAL INIT ('$EOF');
       31     7470    1   DCL ZERO$ PTR CONSTANT INIT (ADDR(ZERO));
       32     7471    1   DCL 1  ZERO CONSTANT,
       33     7472    1         2  COUNT UBIN BYTE UNAL INIT (1),
       34     7473    1         2  TEXT CHAR(1) UNAL INIT('0');
       35     7474        /***** External Routines *****/
       36     7475          %XUE_ENTRIES (OMIT=X$EVAL);
       37     7499        /***** Error Codes *****/
PL6.E3A0      #001=X$EVAL File=XUE$EVAL.:E05TSI                                  WED 07/30/97 09:12 Page:2
       38     7500          %VLP_ERRCODE (FPTN=E_SMALLWORK,ERR#=%E$XUE#SMALLWORK,
       39     7501                        FCG='XU',MID='E',STCLASS=CONSTANT);
       40     7546          /*E*    ERROR: XUE-E$XUE#SMALLWORK-0
       41     7547                  MESSAGE: Expression too complex for workspace available.
       42     7548                  MESSAGE1: Try multiple simple expressions.
       43     7549        */
       44     7550        /***** Special ENTREFs to make library search work properly *****/
       45     7551    1   ENTREFS: PROC;
       46     7552    2   DCL XUE_FUNCTIONS ENTRY CONV (5);
       47     7553    2   DCL XUE_EXP ENTRY CONV (5);
       48     7554    2   END ENTREFS;
       49     7555        %EJECT;
PL6.E3A0      #001=X$EVAL File=XUE$EVAL.:E05TSI                                  WED 07/30/97 09:12 Page:3
       50     7556        /*
       51     7557             ***** Initialize ...
       52     7558        */
       53     7559    1       XUE_ECB.ERR = '0'B;
       54     7560    1       XUE_ECB.ERR_POS# = 0;
       55     7561    1       XUE_ECB.ERR_DCB# = 0;
       56     7562    1       MCB.FREE_HEAD$ = ADDR(NIL);
       57     7563    1       MCB.SEGMENT_BASE$ = XUE_ECB.WORK$;
       58     7564    1       MCB.HI_SEGMENT$ = MCB.SEGMENT_BASE$;
       59     7565    1       MCB.WKSZ = XUE_ECB.WKSZ#;
       60     7566    1       MCB.TYPE = 0; /* Byte allocation */
       61     7567    1       MCB.MIN_SIZE = 0;
       62     7568        /*
       63     7569             ***** Call X$EVALUATE ...
       64     7570        */
       65     7571    1       XUE_ECB.INTERNAL = '0'B;
       66     7572    1       CALL X$EVALUATE (XUE_ECB.TREE$,XUE_ECB,MCB) ALTRET(E_EVAL);
       67     7573        /*
       68     7574             ***** Do any required cleanup ...
       69     7575        */
       70     7576    1       IF XUE_ECB.INTERNAL.RESET_EOF#
       71     7577    1       THEN
       72     7578    2       DO;
       73     7579    2           CALL X$PUT_VAR (EOF_NAME$,ZERO$,XUE_ECB,0,%XUE_INTERNAL#) ALTRET(E_EVAL);
       74     7580    2           XUE_ECB.INTERNAL.RESET_EOF# = %NO#;
       75     7581    2       END;
       76     7582    1       RETURN;
       77     7583    1   E_EVAL:
       78     7584    1       IF XUE_ECB.ERR.CODE = %E$NOSPACE
       79     7585    1       THEN   /* Translate err code */
       80     7586    1           XUE_ECB.ERR = E_SMALLWORK;
       81     7587    1       ALTRETURN;
       82     7588    1   END X$EVAL;
       83     7589        %EOD;

PL6.E3A0      #001=X$EVAL File=XUE$EVAL.:E05TSI                                  WED 07/30/97 09:12 Page:4
--  Include file information  --

   XUM_MACRO_C.:E05TOU  is referenced.
   XU_PERR_C.:E05TOU  is referenced.
   XUE_SUBS_C.:E05TOU  is referenced.
   XUE_MACRO_C.:E05TOU  is referenced.
   CP_6_SUBS.:E05TOU  is referenced.
   CP_6_C.:E05TOU  is referenced.
   CP_6.:E05TOU  cannot be made into a system file and is referenced.
      No diagnostics issued in procedure X$EVAL.

   Procedure X$EVAL requires 55 words for executable code.
   Procedure X$EVAL requires 22 words of local(AUTO) storage.

PL6.E3A0      #001=X$EVAL File=XUE$EVAL.:E05TSI                                  WED 07/30/97 09:12 Page:5

 Object Unit name= X$EVAL                                     File name= XUE$EVAL.:E05TOU
 UTS= JUL 30 '97 09:12:29.44 WED                              Compiler= PL-6/E31         Sev=      00
 SharedLib= :SHARED_SYSTEM                                    Alt SharedLib=


    ****  Control sections  ****

 Sect   Type Bound  Init  Size OctSiz  Section name(segment info)
    0   DCB   even  none     0      0  M$UC
    1  RoData even  UTS      6      6  X$EVAL
    2   Proc  even  none    55     67  X$EVAL
    3  RoData even  none     4      4  X$EVAL

    ****  Entry defs  ****

                              Check   Calling
                             calling  sequence
  Sect OctLoc Primary Altret sequence   type   Parms  Name
     2      0   yes    yes     yes      Std        1  X$EVAL

  ****  Entry refs  ****

         Check        Calling
        calling       sequence
Altret sequence SRef   type   Args  Name
 yes     yes           Std       3 X$EVALUATE
 yes     yes           Std       5 X$PUT_VAR
         yes          ~proc      0 XUE_FUNCTIONS
         yes          ~proc      0 XUE_EXP
                       nStd      0 X66_AUTO_1
                       Std       0 B_CONSPOOL_D
                       nStd      0 X66_ARET
                       nStd      0 X66_AALT
PL6.E3A0      #001=X$EVAL File=XUE$EVAL.:E05TSI                                  WED 07/30/97 09:12 Page:6

  ****  Data refs  ****

  Flags:  r = read only, s = secondary
Flgs Name                             Flgs Name                             Flgs Name
     M$UC                                  B_VECTNIL

  ****  Segment refs  ****

  Flags:  r = read only, s = secondary
Flgs Name                             Flgs Name                             Flgs Name
     ISSID
PL6.E3A0      #001=X$EVAL File=XUE$EVAL.:E05TSI                                  WED 07/30/97 09:12 Page:7


        1        1        /*M*    XUE$EVAL   implements expression evaluation     */
        2        2        /*T***********************************************************/
        3        3        /*T*                                                         */
        4        4        /*T* Copyright (c) Bull HN Information Systems Inc., 1997    */
        5        5        /*T*                                                         */
        6        6        /*T***********************************************************/
        7        7        /*X* DMC,PLM=4,IND=4,CTI=2,DTI=0,ENI=0,ECI=0,CSI=0,MCI,DCI=4 */
        8        8        /*F*    NAME:          X$EVAL
        9        9                PURPOSE:       To provide necessary setup for X$EVALUATE
       10       10                DESCRIPTION:   This routine will parse input text, setup
       11       11                               the free string space management macros,
       12       12                               handle errors and perform other setup functions
       13       13                               needed for X$EVALUATE.
       14       14        */
       15       15        X$EVAL: PROC (XUE_ECB) ALTRET;

     15  2 000000   000000 700200 xent  X$EVAL       TSX0  ! X66_AUTO_1
         2 000001   000026 000001                    ZERO    22,1
         2 000002   000005 710000 2                  TRA     s:7559

       16       16        /***** Include files *****/
       17       17          %INCLUDE CP_6;
       18     5576          %INCLUDE CP_6_SUBS;
       19     6116          %INCLUDE XUE_MACRO_C;
       20     6860          %INCLUDE XUE_SUBS_C;
       21     7040          %INCLUDE XU_PERR_C;
       22     7231          %INCLUDE XUM_MACRO_C;
       23     7258        /***** Parameters *****/
       24     7259          %XUE_ECB (STCLASS=" ");
       25     7461        /***** Auto Structures *****/
       26     7462          %XUM$MCB (NAME=MCB,STCLASS=AUTO);
       27     7466    1   DCL EOF_NAME$ PTR CONSTANT INIT (ADDR(EOF_NAME));
       28     7467    1   DCL 1  EOF_NAME CONSTANT,
       29     7468    1         2  COUNT UBIN BYTE UNAL INIT(4),
       30     7469    1         2  TEXT CHAR(4) UNAL INIT ('$EOF');
       31     7470    1   DCL ZERO$ PTR CONSTANT INIT (ADDR(ZERO));
PL6.E3A0      #001=X$EVAL File=XUE$EVAL.:E05TSI                                  WED 07/30/97 09:12 Page:8
       32     7471    1   DCL 1  ZERO CONSTANT,
       33     7472    1         2  COUNT UBIN BYTE UNAL INIT (1),
       34     7473    1         2  TEXT CHAR(1) UNAL INIT('0');
       35     7474        /***** External Routines *****/
       36     7475          %XUE_ENTRIES (OMIT=X$EVAL);
       37     7499        /***** Error Codes *****/
       38     7500          %VLP_ERRCODE (FPTN=E_SMALLWORK,ERR#=%E$XUE#SMALLWORK,
       39     7501                        FCG='XU',MID='E',STCLASS=CONSTANT);
       40     7546          /*E*    ERROR: XUE-E$XUE#SMALLWORK-0
       41     7547                  MESSAGE: Expression too complex for workspace available.
       42     7548                  MESSAGE1: Try multiple simple expressions.
       43     7549        */
       44     7550        /***** Special ENTREFs to make library search work properly *****/
       45     7551    1   ENTREFS: PROC;

   7551  2 000003   200016 741300       ENTREFS      STX1  ! MCB+10,,AUTO

       46     7552    2   DCL XUE_FUNCTIONS ENTRY CONV (5);
       47     7553    2   DCL XUE_EXP ENTRY CONV (5);
       48     7554    2   END ENTREFS;

   7554  2 000004   000001 702211                    TSX2  ! 1,X1

       49     7555        %EJECT;
PL6.E3A0      #001=X$EVAL File=XUE$EVAL.:E05TSI                                  WED 07/30/97 09:12 Page:9
       50     7556        /*
       51     7557             ***** Initialize ...
       52     7558        */
       53     7559    1       XUE_ECB.ERR = '0'B;

   7559  2 000005   200003 470500                    LDP0    @XUE_ECB,,AUTO
         2 000006   000011 450100                    STZ     9,,PR0

       54     7560    1       XUE_ECB.ERR_POS# = 0;

   7560  2 000007   000000 220003                    LDX0    0,DU
         2 000010   000010 740100                    STX0    8,,PR0

       55     7561    1       XUE_ECB.ERR_DCB# = 0;

   7561  2 000011   000010 440100                    SXL0    8,,PR0

       56     7562    1       MCB.FREE_HEAD$ = ADDR(NIL);

   7562  2 000012   000001 236000 xsym               LDQ     B_VECTNIL+1
         2 000013   200005 756100                    STQ     MCB+1,,AUTO

       57     7563    1       MCB.SEGMENT_BASE$ = XUE_ECB.WORK$;

   7563  2 000014   000001 236100                    LDQ     1,,PR0
         2 000015   200006 756100                    STQ     MCB+2,,AUTO

       58     7564    1       MCB.HI_SEGMENT$ = MCB.SEGMENT_BASE$;

   7564  2 000016   200007 756100                    STQ     MCB+3,,AUTO

       59     7565    1       MCB.WKSZ = XUE_ECB.WKSZ#;

   7565  2 000017   000002 235100                    LDA     2,,PR0
         2 000020   200010 755100                    STA     MCB+4,,AUTO

       60     7566    1       MCB.TYPE = 0; /* Byte allocation */
PL6.E3A0      #001=X$EVAL File=XUE$EVAL.:E05TSI                                  WED 07/30/97 09:12 Page:10

   7566  2 000021   200011 450100                    STZ     MCB+5,,AUTO

       61     7567    1       MCB.MIN_SIZE = 0;

   7567  2 000022   200013 450100                    STZ     MCB+7,,AUTO

       62     7568        /*
       63     7569             ***** Call X$EVALUATE ...
       64     7570        */
       65     7571    1       XUE_ECB.INTERNAL = '0'B;

   7571  2 000023   000020 450100                    STZ     16,,PR0

       66     7572    1       CALL X$EVALUATE (XUE_ECB.TREE$,XUE_ECB,MCB) ALTRET(E_EVAL);

   7572  2 000024   200004 631500                    EPPR1   MCB,,AUTO
         2 000025   200022 451500                    STP1    MCB+14,,AUTO
         2 000026   200003 236100                    LDQ     @XUE_ECB,,AUTO
         2 000027   200003 235100                    LDA     @XUE_ECB,,AUTO
         2 000030   200020 757100                    STAQ    MCB+12,,AUTO
         2 000031   200020 630500                    EPPR0   MCB+12,,AUTO
         2 000032   000021 631400 xsym               EPPR1   B_VECTNIL+17
         2 000033   000000 701000 xent               TSX1    X$EVALUATE
         2 000034   000057 702000 2                  TSX2    E_EVAL

       67     7573        /*
       68     7574             ***** Do any required cleanup ...
       69     7575        */
       70     7576    1       IF XUE_ECB.INTERNAL.RESET_EOF#

   7576  2 000035   200003 470500                    LDP0    @XUE_ECB,,AUTO
         2 000036   000020 234100                    SZN     16,,PR0
         2 000037   000056 605000 2                  TPL     s:7582

       71     7577    1       THEN
       72     7578    2       DO;
PL6.E3A0      #001=X$EVAL File=XUE$EVAL.:E05TSI                                  WED 07/30/97 09:12 Page:11

       73     7579    2           CALL X$PUT_VAR (EOF_NAME$,ZERO$,XUE_ECB,0,%XUE_INTERNAL#) ALTRET(E_EVAL);

   7579  2 000040   000000 236000 3                  LDQ     0
         2 000041   200024 756100                    STQ     MCB+16,,AUTO
         2 000042   000001 236000 3                  LDQ     1
         2 000043   200003 235100                    LDA     @XUE_ECB,,AUTO
         2 000044   200022 757100                    STAQ    MCB+14,,AUTO
         2 000045   000002 237000 3                  LDAQ    2
         2 000046   200020 757100                    STAQ    MCB+12,,AUTO
         2 000047   200020 630500                    EPPR0   MCB+12,,AUTO
         2 000050   000023 631400 xsym               EPPR1   B_VECTNIL+19
         2 000051   000000 701000 xent               TSX1    X$PUT_VAR
         2 000052   000057 702000 2                  TSX2    E_EVAL

       74     7580    2           XUE_ECB.INTERNAL.RESET_EOF# = %NO#;

   7580  2 000053   200003 470500                    LDP0    @XUE_ECB,,AUTO
         2 000054   000031 236000 xsym               LDQ     B_VECTNIL+25
         2 000055   000020 356100                    ANSQ    16,,PR0

       75     7581    2       END;

       76     7582    1       RETURN;

   7582  2 000056   000000 702200 xent               TSX2  ! X66_ARET

       77     7583    1   E_EVAL:
       78     7584    1       IF XUE_ECB.ERR.CODE = %E$NOSPACE

   7584  2 000057   200003 470500       E_EVAL       LDP0    @XUE_ECB,,AUTO
         2 000060   000011 236100                    LDQ     9,,PR0
         2 000061   377770 376007                    ANQ     131064,DL
         2 000062   003120 116007                    CMPQ    1616,DL
         2 000063   000066 601000 2                  TNZ     s:7587

       79     7585    1       THEN   /* Translate err code */
PL6.E3A0      #001=X$EVAL File=XUE$EVAL.:E05TSI                                  WED 07/30/97 09:12 Page:12
       80     7586    1           XUE_ECB.ERR = E_SMALLWORK;

   7586  2 000064   000005 236000 1                  LDQ     E_SMALLWORK
         2 000065   000011 756100                    STQ     9,,PR0

       81     7587    1       ALTRETURN;

   7587  2 000066   000000 702200 xent               TSX2  ! X66_AALT
       82     7588    1   END X$EVAL;
       83     7589        %EOD;

PL6.E3A0      #001=X$EVAL File=XUE$EVAL.:E05TSI                                  WED 07/30/97 09:12 Page:13
--  Include file information  --

   XUM_MACRO_C.:E05TOU  is referenced.
   XU_PERR_C.:E05TOU  is referenced.
   XUE_SUBS_C.:E05TOU  is referenced.
   XUE_MACRO_C.:E05TOU  is referenced.
   CP_6_SUBS.:E05TOU  is referenced.
   CP_6_C.:E05TOU  is referenced.
   CP_6.:E05TOU  cannot be made into a system file and is referenced.
      No diagnostics issued in procedure X$EVAL.
PL6.E3A0      #001=X$EVAL File=XUE$EVAL.:E05TSI                                  WED 07/30/97 09:12 Page:14

 **** Variables and constants ****

  ****  Section 001 RoData X$EVAL

  ****  Scalars and arrays  ****
OctLoc.c.b A Datatyp(siz) R M Lvl/name                 OctLoc.c.b A Datatyp(siz) R M Lvl/name

     1-0-0/c STRC(45)    r     1 EOF_NAME                   0-0-0/w PTR         r     1 EOF_NAME$
     5-0-0/w STRC        r     1 E_SMALLWORK                4-0-0/c STRC(18)    r     1 ZERO
     3-0-0/w PTR         r     1 ZERO$

  ****  Auto variables  ****

  ****  Scalars and arrays  ****
OctLoc.c.b A Datatyp(siz) R M Lvl/name                 OctLoc.c.b A Datatyp(siz) R M Lvl/name

     3-0-0/w PTR         r     1 @XUE_ECB                   4-0-0/w STRC(324)   r     1 MCB
    *0-0-0/d STRC(1008)  r     1 XUE_ECB


   Procedure X$EVAL requires 55 words for executable code.
   Procedure X$EVAL requires 22 words of local(AUTO) storage.
PL6.E3A0      #001=X$EVAL File=XUE$EVAL.:E05TSI                                  WED 07/30/97 09:12 Page:15
          *** CROSS REFERENCE LISTING ***
**     DENOTES     IDENTIFIER DEFINITION
<<                 IDENTIFIER'S VALUE SET
>>                 IDENTIFIER'S VALUE USED
<>                 IDENTIFIER SET AND/OR USED
--                 IDENTIFIER REFERENCED
PL6.E3A0      #001=X$EVAL File=XUE$EVAL.:E05TSI                                  WED 07/30/97 09:12 Page:16
          MINI XREF LISTING

EOF_NAME
      7467**DCL      7466--DCLINIT
EOF_NAME$
      7466**DCL      7579<>CALL
E_EVAL
      7584**LABEL    7572--CALLALT  7579--CALLALT
E_SMALLWORK
      7513**DCL      7586>>ASSIGN
MCB
      7463**DCL      7572<>CALL
MCB.FREE_HEAD$
      7463**DCL      7562<<ASSIGN
MCB.HI_SEGMENT$
      7463**DCL      7564<<ASSIGN
MCB.MIN_SIZE
      7464**DCL      7567<<ASSIGN
MCB.SEGMENT_BASE$
      7463**DCL      7563<<ASSIGN   7564>>ASSIGN
MCB.TYPE
      7463**DCL      7566<<ASSIGN
MCB.WKSZ
      7463**DCL      7565<<ASSIGN
X$EVALUATE
      7480**DCL-ENT  7572--CALL
X$PUT_VAR
      7484**DCL-ENT  7579--CALL
XUE_ECB
      7273**DCL        15--PROC     7572<>CALL     7579<>CALL
XUE_ECB.ERR
      7357**DCL      7559<<ASSIGN   7586<<ASSIGN
XUE_ECB.ERR.CODE
      7361**DCL      7584>>IF
PL6.E3A0      #001=X$EVAL File=XUE$EVAL.:E05TSI                                  WED 07/30/97 09:12 Page:17
XUE_ECB.ERR_DCB#
      7349**DCL      7561<<ASSIGN
XUE_ECB.ERR_POS#
      7340**DCL      7560<<ASSIGN
XUE_ECB.INTERNAL
      7432**DCL      7571<<ASSIGN
XUE_ECB.INTERNAL.RESET_EOF#
      7433**DCL      7576>>IF       7580<<ASSIGN
XUE_ECB.TREE$
      7277**DCL      7572<>CALL
XUE_ECB.WKSZ#
      7288**DCL      7565>>ASSIGN
XUE_ECB.WORK$
      7283**DCL      7563>>ASSIGN
ZERO
      7471**DCL      7470--DCLINIT
ZERO$
      7470**DCL      7579<>CALL

