PL6.E3A0      #003=X$GET_VAR File=XUE$EVAL.:E05TSI                               WED 07/30/97 09:15 Page:385
     2501        1        /*T***********************************************************/
     2502        2        /*T*                                                         */
     2503        3        /*T* Copyright (c) Bull HN Information Systems Inc., 1997    */
     2504        4        /*T*                                                         */
     2505        5        /*T***********************************************************/
     2506        6        /*X* DMC,PLM=4,IND=4,CTI=2,DTI=0,ENI=0,ECI=0,CSI=0,MCI,DCI=4 */
     2507        7        /*F*    NAME:          X$GET_VAR
     2508        8                PURPOSE:       To retrieve the value for a specified VARIABLE.
     2509        9                DESCRIPTION:   COMMAND VARIABLES are stored in the *S
     2510       10                               file.
     2511       11        */
     2512       12        X$GET_VAR: PROC (VAR_NAME$,VALUE$,XUE_ECB,CHARPOS,TYPE) ALTRET;
     2513       13        /***** INCLUDES *****/
     2514       14          %INCLUDE B_MACROS_C;
     2515      125          %INCLUDE CP_6;
     2516     5684          %INCLUDE CP_6_SUBS;
     2517     6224          %INCLUDE XU_MACRO_C;
     2518     9330          %INCLUDE XU_PERR_C;
     2519     9521          %INCLUDE XUE_SUBS_C;
     2520     9701          %INCLUDE XUE_MACRO_C;
     2521    10445        /***** Parameters *****/
     2522    10446    1   DCL VAR_NAME$ PTR;
     2523    10447    1   DCL VALUE$ PTR;
     2524    10448          %XUE_ECB (STCLASS=" ");
     2525    10650    1   DCL CHARPOS UBIN WORD;
     2526    10651    1   DCL TYPE SBIN WORD;
     2527    10652        /***** Local Auto *****/
     2528    10653    1   DCL CHARPOS_ SBIN WORD;
     2529    10654    1   DCL FUNK_SHUN SBIN;
     2530    10655    1   DCL TYPE_ SBIN;
     2531    10656        /***** Based Structures *****/
     2532    10657          %VLP_NAMEV (FPTN = VAR_NAME,STCLASS ="BASED(VAR_NAME$)");
     2533    10664          %VLP_NAMEV (FPTN = VAR_VALUE,STCLASS ="BASED(VALUE$)");
     2534    10671          %XUE_VARPARAM (NAME=XUE_VARPARAM,VARILEN=NO,LEN=31,STCLASS=AUTO);
     2535    10773          %TEXTC (NAME=X$STRING,STCLASS=BASED);
     2536    10778          %F$DCB;
     2537    10835    1   DCL 1 U$STRING BASED ALIGNED,
PL6.E3A0      #003=X$GET_VAR File=XUE$EVAL.:E05TSI                               WED 07/30/97 09:15 Page:386
     2538    10836    1         2 SIZ UBIN BYTE UNAL,
     2539    10837    1         2 TEXT (0:0) CHAR(1) UNAL;
     2540    10838        /***** Fpts *****/
     2541    10839          %FPT_CMDVAR (FPTN=CFPT_CMDVAR,STCLASS=CONSTANT);
     2542    10856        /***** Based structures *****/
     2543    10857          %B$TCB (STCLASS = "BASED(B$TCB$)");
     2544    10860          %B$ALT (STCLASS = BASED);
     2545    10868          %FPT_CMDVAR (STCLASS = AUTO);
     2546    10885        /***** Symref Variables *****/
     2547    10886    1   DCL B$TCB$ PTR SYMREF;
     2548    10887        /***** Error Codes *****/
     2549    10888          /*E*    ERROR: XUE-E$XUE#NULLVAR$$-0
     2550    10889                  MESSAGE: VAR$$ is nil. User variables not possible.
     2551    10890          */
     2552    10891          %VLP_ERRCODE (FPTN=E_NULLVAR$$,ERR#=%E$XUE#NULLVAR$$,
     2553    10892                        FCG="XU",MID="E",STCLASS=CONSTANT);
     2554    10937          /*E*    ERROR: XUE-E$XUE#ILLVARNAME-0
     2555    10938                  MESSAGE: VARIABLE names must begin with an ALPHA character.
     2556    10939          */
     2557    10940          %VLP_ERRCODE (FPTN=E_ILLVARNAME,ERR#=%E$XUE#ILLVARNAME,
     2558    10941                        FCG="XU",MID="E",STCLASS=CONSTANT);
     2559    10986        /**/
     2560    10987    1       FUNK_SHUN = %XUE_FETCH#;
     2561    10988    1       GOTO COMMON_CODE;
     2562    10989        %EJECT;
PL6.E3A0      #003=X$GET_VAR File=XUE$EVAL.:E05TSI                               WED 07/30/97 09:15 Page:387
     2563    10990        /*F*    NAME:          X$PUT_VAR
     2564    10991                PURPOSE:       To stash values away for a specified VARIABLE.
     2565    10992                DESCRIPTION:   COMMAND VARIABLES are stored in the *S
     2566    10993                               file.
     2567    10994        */
     2568    10995    1   X$PUT_VAR: ENTRY (VAR_NAME$,VALUE$,XUE_ECB,CHARPOS,TYPE) ALTRET;
     2569    10996    1       FUNK_SHUN = %XUE_STORE#;
     2570    10997        /**/
     2571    10998    1   COMMON_CODE: ;
     2572    10999        /*
     2573    11000             ***** Provide defaults for optional parameters.
     2574    11001        */
     2575    11002    1       IF ADDR(CHARPOS) = ADDR(NIL)
     2576    11003    1       THEN
     2577    11004    1           CHARPOS_ = 0;
     2578    11005    1       ELSE
     2579    11006    1           CHARPOS_ = CHARPOS;
     2580    11007    1       IF ADDR(TYPE) = ADDR(NIL)
     2581    11008    1       THEN
     2582    11009    1           TYPE_ = %XUE_EXTERNAL#;
     2583    11010    1       ELSE
     2584    11011    1           TYPE_ = TYPE;
     2585    11012        %EJECT;
PL6.E3A0      #003=X$GET_VAR File=XUE$EVAL.:E05TSI                               WED 07/30/97 09:15 Page:388
     2586    11013        /*
     2587    11014             ***** Make sure that VARIABLE name is valid ...
     2588    11015                   Valid characters are ...
     2589    11016                   A-Z  a-z  0-9  #  @  _  $ (.SYMBOL)
     2590    11017                   The first character may not be ...
     2591    11018                   0-9  #  @  _
     2592    11019                   The $ is reserved to signify a function or a
     2593    11020                   hidden variable used by X$EVAL ...
     2594    11021        */
     2595    11022    1       IF VAR_NAME$ -> U$STRING.SIZ = 0
     2596    11023    1       THEN
     2597    11024    1           GOTO EVIL_NAME;
     2598    11025    1       IF VAR_NAME$ -> U$STRING.TEXT(0) = '#'
     2599    11026    1         OR VAR_NAME$ -> U$STRING.TEXT(0) = '@'
     2600    11027    1         OR VAR_NAME$ -> U$STRING.TEXT(0) = '_'
     2601    11028    1         OR (VAR_NAME$ -> U$STRING.TEXT(0) >= '0'
     2602    11029    1         AND VAR_NAME$ -> U$STRING.TEXT(0) <= '9')
     2603    11030    1       THEN   /* Invalid VARIABLE name */
     2604    11031    2       DO;
     2605    11032    2   EVIL_NAME: XUE_ECB.ERR = E_ILLVARNAME;
     2606    11033    2           ALTRETURN;
     2607    11034    2       END;
     2608    11035        /*
     2609    11036             ***** COMMAND VARIABLES, or
     2610    11037                   does the user want to manage variables?
     2611    11038        */
     2612    11039    1       IF XUE_ECB.FLAGS.CMDVARS# = %NO#
     2613    11040    1         AND TYPE_ = %XUE_EXTERNAL#
     2614    11041    1       THEN
     2615    11042    2       DO;   /* Let user do it */
     2616    11043    2           IF XUE_ECB.VAR$$ = ENTADDR(NIL)
     2617    11044    2           THEN   /* Wrong! */
     2618    11045    3           DO;
     2619    11046    3               XUE_ECB.ERR = E_NULLVAR$$;
     2620    11047    3               ALTRETURN;
     2621    11048    3           END;
     2622    11049    2           XUE_VARPARAM.CODE# = FUNK_SHUN;
PL6.E3A0      #003=X$GET_VAR File=XUE$EVAL.:E05TSI                               WED 07/30/97 09:15 Page:389
     2623    11050    2           XUE_VARPARAM.CPOS# = CHARPOS_;
     2624    11051    2           XUE_VARPARAM.VALUE$ = VALUE$;
     2625    11052    2           XUE_VARPARAM.ERR_POS# = 0;
     2626    11053    2           XUE_VARPARAM.ERR_DCB# = 0;
     2627    11054    2           XUE_VARPARAM.ERR = '0'B;
     2628    11055    2           XUE_VARPARAM.VARIABLE.COUNT# = VAR_NAME$ -> X$STRING.SIZ;
     2629    11056    2           XUE_VARPARAM.VARIABLE.TEXT# = VAR_NAME$ -> X$STRING.TEXT;
     2630    11057    2           XUE_VARPARAM.USER$ = XUE_ECB.USER$;
     2631    11058    2           CALL XUE_ECB.VAR$$ (XUE_VARPARAM) ALTRET(E_VAR$$);
     2632    11059    2       END;   /* Do ... end */
     2633    11060    1       ELSE
     2634    11061    2       DO;   /* Use COMMAND VARIABLES */
     2635    11062    2           FPT_CMDVAR = CFPT_CMDVAR;
     2636    11063    2           FPT_CMDVAR.V_ = VECTOR(FPT_CMDVAR.V);
     2637    11064    2           IF FUNK_SHUN = %XUE_FETCH# THEN
     2638    11065    2               FPT_CMDVAR.V.FUN# = %CMD_FETCH#;
     2639    11066    2           ELSE
     2640    11067    2               FPT_CMDVAR.V.FUN# = %CMD_STORE#;
     2641    11068    2           FPT_CMDVAR.NAME_ = VECTOR(VAR_NAME);
     2642    11069    2           FPT_CMDVAR.VALUE_ = VECTOR(VAR_VALUE);
     2643    11070    2           IF SUBSTR(VAR_NAME.NAME#,0,1) = '$'
     2644    11071    2             AND NOT XUE_ECB.FLAGS.PRIVATE#
     2645    11072    2           THEN                        /* Public CMDVAR with $name           */
     2646    11073    3           DO;
     2647    11074    3               IF FUNK_SHUN = %XUE_STORE#
     2648    11075    3                 AND TYPE_ = %XUE_EXTERNAL#
     2649    11076    3               THEN                   /* Can only STORE from inside!        */
     2650    11077    3                   GOTO EVIL_NAME;
     2651    11078    3               GOTO CONSIDER_PRIVATE;
     2652    11079    3           END;
     2653    11080    2           IF XUE_ECB.FLAGS.PRIVATE# THEN
     2654    11081    3           DO;   /* Store this as a PRIVATE COMMAND VARIABLE */
     2655    11082    3   CONSIDER_PRIVATE: ;
     2656    11083    3               FPT_CMDVAR.V.PRIVATE# = %YES#;
     2657    11084    3               IF XUE_ECB.PROCNAME_ ~= VECTOR(NIL)
     2658    11085    3               THEN   /* Assume good vector */
     2659    11086    3                   FPT_CMDVAR.PNAME_ = XUE_ECB.PROCNAME_;
PL6.E3A0      #003=X$GET_VAR File=XUE$EVAL.:E05TSI                               WED 07/30/97 09:15 Page:390
     2660    11087    3               ELSE   /* Get PROCNAME from M$LM */
     2661    11088    3                   FPT_CMDVAR.PNAME_ =
     2662    11089    3                     VECTOR(DCBADDR(%M$LM#) -> F$DCB.NAME#);
     2663    11090    3               IF XUE_ECB.PROCACCT_ ~= VECTOR(NIL)
     2664    11091    3               THEN   /* Assume good vector */
     2665    11092    3                   FPT_CMDVAR.PACCT_ = XUE_ECB.PROCACCT_;
     2666    11093    3               ELSE   /* Get PROCACCT from M$LM */
     2667    11094    3                   FPT_CMDVAR.PACCT_ =
     2668    11095    3                     VECTOR(DCBADDR(%M$LM#) -> F$DCB.ACCT#);
     2669    11096    3           END;
     2670    11097    2           CALL M$CMDVAR (FPT_CMDVAR) ALTRET(E_PMME);
     2671    11098    2       END;   /* Do ... end */
     2672    11099    1       RETURN;
     2673    11100        %EJECT;
PL6.E3A0      #003=X$GET_VAR File=XUE$EVAL.:E05TSI                               WED 07/30/97 09:15 Page:391
     2674    11101        /**/
     2675    11102    1   E_PMME:
     2676    11103    1       XUE_ECB.ERR = B$TCB.ALT$ -> B$ALT.ERR;
     2677    11104    1       XUE_ECB.ERR_POS# = CHARPOS_;
     2678    11105    1       ALTRETURN;
     2679    11106        /**/
     2680    11107    1   E_VAR$$:
     2681    11108    1       XUE_ECB.ERR = XUE_VARPARAM.ERR;
     2682    11109    1       XUE_ECB.ERR_POS# = XUE_VARPARAM.ERR_POS#;
     2683    11110    1       XUE_ECB.ERR_DCB# = XUE_VARPARAM.ERR_DCB#;
     2684    11111    1       ALTRETURN;
     2685    11112    1   END X$GET_VAR;
     2686    11113        %EOD;

PL6.E3A0      #003=X$GET_VAR File=XUE$EVAL.:E05TSI                               WED 07/30/97 09:15 Page:392
--  Include file information  --

   XUE_MACRO_C.:E05TOU  is referenced.
   XUE_SUBS_C.:E05TOU  is referenced.
   XU_PERR_C.:E05TOU  is referenced.
   XU_MACRO_C.:E05TOU  is referenced.
   CP_6_SUBS.:E05TOU  is referenced.
   CP_6_C.:E05TOU  is referenced.
   CP_6.:E05TOU  cannot be made into a system file and is referenced.
   B_MACROS_C.:E05TOU  is referenced.
      No diagnostics issued in procedure X$GET_VAR.

   Procedure X$GET_VAR requires 214 words for executable code.
   Procedure X$GET_VAR requires 42 words of local(AUTO) storage.

PL6.E3A0      #003=X$GET_VAR File=XUE$EVAL.:E05TSI                               WED 07/30/97 09:15 Page:393

 Object Unit name= X$GET_VAR                                  File name= XUE$EVAL.:E05TOU
 UTS= JUL 30 '97 09:15:39.60 WED                              Compiler= PL-6/E31         Sev=      00
 SharedLib= :SHARED_SYSTEM                                    Alt SharedLib=


    ****  Control sections  ****

 Sect   Type Bound  Init  Size OctSiz  Section name(segment info)
    0   DCB   even  none     0      0  M$UC
    1  RoData even  UTS     16     20  X$GET_VAR
    2   Proc  even  none   214    326  X$GET_VAR
    3  RoData even  none     6      6  X$GET_VAR

    ****  Entry defs  ****

                              Check   Calling
                             calling  sequence
  Sect OctLoc Primary Altret sequence   type   Parms  Name
     2      0   yes    yes     yes      Std        5  X$GET_VAR
     2      5          yes     yes      Std        5  X$PUT_VAR

  ****  Entry refs  ****

         Check        Calling
        calling       sequence
Altret sequence SRef   type   Args  Name
                       nStd      0 X66_AUTO_5
                       Std       0 B_CONSPOOL_D
                       nStd      0 X66_AALT
                       nStd      0 X66_ARET

  ****  Data refs  ****

  Flags:  r = read only, s = secondary
Flgs Name                             Flgs Name                             Flgs Name
     M$UC                                  B$TCB$                                B_VECTNIL
PL6.E3A0      #003=X$GET_VAR File=XUE$EVAL.:E05TSI                               WED 07/30/97 09:15 Page:394

  ****  Segment refs  ****

  Flags:  r = read only, s = secondary
Flgs Name                             Flgs Name                             Flgs Name
     ISSID                                 NULLSID                               ROSID
PL6.E3A0      #003=X$GET_VAR File=XUE$EVAL.:E05TSI                               WED 07/30/97 09:15 Page:395


     2501        1        /*T***********************************************************/
     2502        2        /*T*                                                         */
     2503        3        /*T* Copyright (c) Bull HN Information Systems Inc., 1997    */
     2504        4        /*T*                                                         */
     2505        5        /*T***********************************************************/
     2506        6        /*X* DMC,PLM=4,IND=4,CTI=2,DTI=0,ENI=0,ECI=0,CSI=0,MCI,DCI=4 */
     2507        7        /*F*    NAME:          X$GET_VAR
     2508        8                PURPOSE:       To retrieve the value for a specified VARIABLE.
     2509        9                DESCRIPTION:   COMMAND VARIABLES are stored in the *S
     2510       10                               file.
     2511       11        */
     2512       12        X$GET_VAR: PROC (VAR_NAME$,VALUE$,XUE_ECB,CHARPOS,TYPE) ALTRET;

     12  2 000000   000000 700200 xent  X$GET_VAR    TSX0  ! X66_AUTO_5
         2 000001   000052 000005                    ZERO    42,5

     2513       13        /***** INCLUDES *****/
     2514       14          %INCLUDE B_MACROS_C;
     2515      125          %INCLUDE CP_6;
     2516     5684          %INCLUDE CP_6_SUBS;
     2517     6224          %INCLUDE XU_MACRO_C;
     2518     9330          %INCLUDE XU_PERR_C;
     2519     9521          %INCLUDE XUE_SUBS_C;
     2520     9701          %INCLUDE XUE_MACRO_C;
     2521    10445        /***** Parameters *****/
     2522    10446    1   DCL VAR_NAME$ PTR;
     2523    10447    1   DCL VALUE$ PTR;
     2524    10448          %XUE_ECB (STCLASS=" ");
     2525    10650    1   DCL CHARPOS UBIN WORD;
     2526    10651    1   DCL TYPE SBIN WORD;
     2527    10652        /***** Local Auto *****/
     2528    10653    1   DCL CHARPOS_ SBIN WORD;
     2529    10654    1   DCL FUNK_SHUN SBIN;
     2530    10655    1   DCL TYPE_ SBIN;
     2531    10656        /***** Based Structures *****/
     2532    10657          %VLP_NAMEV (FPTN = VAR_NAME,STCLASS ="BASED(VAR_NAME$)");
PL6.E3A0      #003=X$GET_VAR File=XUE$EVAL.:E05TSI                               WED 07/30/97 09:15 Page:396
     2533    10664          %VLP_NAMEV (FPTN = VAR_VALUE,STCLASS ="BASED(VALUE$)");
     2534    10671          %XUE_VARPARAM (NAME=XUE_VARPARAM,VARILEN=NO,LEN=31,STCLASS=AUTO);
     2535    10773          %TEXTC (NAME=X$STRING,STCLASS=BASED);
     2536    10778          %F$DCB;
     2537    10835    1   DCL 1 U$STRING BASED ALIGNED,
     2538    10836    1         2 SIZ UBIN BYTE UNAL,
     2539    10837    1         2 TEXT (0:0) CHAR(1) UNAL;
     2540    10838        /***** Fpts *****/
     2541    10839          %FPT_CMDVAR (FPTN=CFPT_CMDVAR,STCLASS=CONSTANT);
     2542    10856        /***** Based structures *****/
     2543    10857          %B$TCB (STCLASS = "BASED(B$TCB$)");
     2544    10860          %B$ALT (STCLASS = BASED);
     2545    10868          %FPT_CMDVAR (STCLASS = AUTO);
     2546    10885        /***** Symref Variables *****/
     2547    10886    1   DCL B$TCB$ PTR SYMREF;
     2548    10887        /***** Error Codes *****/
     2549    10888          /*E*    ERROR: XUE-E$XUE#NULLVAR$$-0
     2550    10889                  MESSAGE: VAR$$ is nil. User variables not possible.
     2551    10890          */
     2552    10891          %VLP_ERRCODE (FPTN=E_NULLVAR$$,ERR#=%E$XUE#NULLVAR$$,
     2553    10892                        FCG="XU",MID="E",STCLASS=CONSTANT);
     2554    10937          /*E*    ERROR: XUE-E$XUE#ILLVARNAME-0
     2555    10938                  MESSAGE: VARIABLE names must begin with an ALPHA character.
     2556    10939          */
     2557    10940          %VLP_ERRCODE (FPTN=E_ILLVARNAME,ERR#=%E$XUE#ILLVARNAME,
     2558    10941                        FCG="XU",MID="E",STCLASS=CONSTANT);
     2559    10986        /**/
     2560    10987    1       FUNK_SHUN = %XUE_FETCH#;

  10987  2 000002   000001 235007                    LDA     1,DL
         2 000003   200011 755100                    STA     FUNK_SHUN,,AUTO

     2561    10988    1       GOTO COMMON_CODE;

  10988  2 000004   000011 710000 2                  TRA     COMMON_CODE

     2562    10989        %EJECT;
PL6.E3A0      #003=X$GET_VAR File=XUE$EVAL.:E05TSI                               WED 07/30/97 09:15 Page:397
     2563    10990        /*F*    NAME:          X$PUT_VAR
     2564    10991                PURPOSE:       To stash values away for a specified VARIABLE.
     2565    10992                DESCRIPTION:   COMMAND VARIABLES are stored in the *S
     2566    10993                               file.
     2567    10994        */
     2568    10995    1   X$PUT_VAR: ENTRY (VAR_NAME$,VALUE$,XUE_ECB,CHARPOS,TYPE) ALTRET;

  10995  2 000005   000000 700200 xent  X$PUT_VAR    TSX0  ! X66_AUTO_5
         2 000006   000052 000005                    ZERO    42,5

     2569    10996    1       FUNK_SHUN = %XUE_STORE#;

  10996  2 000007   000002 235007                    LDA     2,DL
         2 000010   200011 755100                    STA     FUNK_SHUN,,AUTO

  10996  2 000011                       COMMON_CODE  null
     2570    10997        /**/
     2571    10998    1   COMMON_CODE: ;
     2572    10999        /*
     2573    11000             ***** Provide defaults for optional parameters.
     2574    11001        */
     2575    11002    1       IF ADDR(CHARPOS) = ADDR(NIL)

  11002  2 000011   200006 236100                    LDQ     @CHARPOS,,AUTO
         2 000012   000001 116000 xsym               CMPQ    B_VECTNIL+1
         2 000013   000016 601000 2                  TNZ     s:11006

     2576    11003    1       THEN
     2577    11004    1           CHARPOS_ = 0;

  11004  2 000014   200010 450100                    STZ     CHARPOS_,,AUTO
         2 000015   000021 710000 2                  TRA     s:11007

     2578    11005    1       ELSE
     2579    11006    1           CHARPOS_ = CHARPOS;

  11006  2 000016   200006 470500                    LDP0    @CHARPOS,,AUTO
PL6.E3A0      #003=X$GET_VAR File=XUE$EVAL.:E05TSI                               WED 07/30/97 09:15 Page:398
         2 000017   000000 235100                    LDA     0,,PR0
         2 000020   200010 755100                    STA     CHARPOS_,,AUTO

     2580    11007    1       IF ADDR(TYPE) = ADDR(NIL)

  11007  2 000021   200007 236100                    LDQ     @TYPE,,AUTO
         2 000022   000001 116000 xsym               CMPQ    B_VECTNIL+1
         2 000023   000027 601000 2                  TNZ     s:11011

     2581    11008    1       THEN
     2582    11009    1           TYPE_ = %XUE_EXTERNAL#;

  11009  2 000024   000002 235007                    LDA     2,DL
         2 000025   200012 755100                    STA     TYPE_,,AUTO
         2 000026   000032 710000 2                  TRA     s:11022

     2583    11010    1       ELSE
     2584    11011    1           TYPE_ = TYPE;

  11011  2 000027   200007 470500                    LDP0    @TYPE,,AUTO
         2 000030   000000 235100                    LDA     0,,PR0
         2 000031   200012 755100                    STA     TYPE_,,AUTO

     2585    11012        %EJECT;
PL6.E3A0      #003=X$GET_VAR File=XUE$EVAL.:E05TSI                               WED 07/30/97 09:15 Page:399
     2586    11013        /*
     2587    11014             ***** Make sure that VARIABLE name is valid ...
     2588    11015                   Valid characters are ...
     2589    11016                   A-Z  a-z  0-9  #  @  _  $ (.SYMBOL)
     2590    11017                   The first character may not be ...
     2591    11018                   0-9  #  @  _
     2592    11019                   The $ is reserved to signify a function or a
     2593    11020                   hidden variable used by X$EVAL ...
     2594    11021        */
     2595    11022    1       IF VAR_NAME$ -> U$STRING.SIZ = 0

  11022  2 000032   200003 470500                    LDP0    @VAR_NAME$,,AUTO
         2 000033   000000 471500                    LDP1    0,,PR0
         2 000034   100000 236100                    LDQ     0,,PR1
         2 000035   777000 316003                    CANQ    -512,DU
         2 000036   000063 600000 2                  TZE     EVIL_NAME

     2596    11023    1       THEN
     2597    11024    1           GOTO EVIL_NAME;
     2598    11025    1       IF VAR_NAME$ -> U$STRING.TEXT(0) = '#'

  11025  2 000037   000777 376003                    ANQ     511,DU
         2 000040   000043 116003                    CMPQ    35,DU
         2 000041   000063 600000 2                  TZE     EVIL_NAME
         2 000042   100000 236100                    LDQ     0,,PR1
         2 000043   000777 376003                    ANQ     511,DU
         2 000044   000100 116003                    CMPQ    64,DU
         2 000045   000063 600000 2                  TZE     EVIL_NAME
         2 000046   100000 236100                    LDQ     0,,PR1
         2 000047   000777 376003                    ANQ     511,DU
         2 000050   000137 116003                    CMPQ    95,DU
         2 000051   000063 600000 2                  TZE     EVIL_NAME
         2 000052   100000 236100                    LDQ     0,,PR1
         2 000053   000777 376003                    ANQ     511,DU
         2 000054   000060 116003                    CMPQ    48,DU
         2 000055   000067 602000 2                  TNC     s:11039
         2 000056   100000 236100                    LDQ     0,,PR1
PL6.E3A0      #003=X$GET_VAR File=XUE$EVAL.:E05TSI                               WED 07/30/97 09:15 Page:400
         2 000057   000777 376003                    ANQ     511,DU
         2 000060   000071 116003                    CMPQ    57,DU
         2 000061   000063 600000 2                  TZE     EVIL_NAME
         2 000062   000067 603000 2                  TRC     s:11039

     2599    11026    1         OR VAR_NAME$ -> U$STRING.TEXT(0) = '@'
     2600    11027    1         OR VAR_NAME$ -> U$STRING.TEXT(0) = '_'
     2601    11028    1         OR (VAR_NAME$ -> U$STRING.TEXT(0) >= '0'
     2602    11029    1         AND VAR_NAME$ -> U$STRING.TEXT(0) <= '9')
     2603    11030    1       THEN   /* Invalid VARIABLE name */
     2604    11031    2       DO;

     2605    11032    2   EVIL_NAME: XUE_ECB.ERR = E_ILLVARNAME;

  11032  2 000063   000017 236000 1     EVIL_NAME    LDQ     E_ILLVARNAME
         2 000064   200005 470500                    LDP0    @XUE_ECB,,AUTO
         2 000065   000011 756100                    STQ     9,,PR0

     2606    11033    2           ALTRETURN;

  11033  2 000066   000000 702200 xent               TSX2  ! X66_AALT

     2607    11034    2       END;
     2608    11035        /*
     2609    11036             ***** COMMAND VARIABLES, or
     2610    11037                   does the user want to manage variables?
     2611    11038        */
     2612    11039    1       IF XUE_ECB.FLAGS.CMDVARS# = %NO#

  11039  2 000067   200005 473500                    LDP3    @XUE_ECB,,AUTO
         2 000070   300016 234100                    SZN     14,,PR3
         2 000071   000143 604000 2                  TMI     s:11062
         2 000072   000002 115007                    CMPA    2,DL
         2 000073   000143 601000 2                  TNZ     s:11062

     2613    11040    1         AND TYPE_ = %XUE_EXTERNAL#
     2614    11041    1       THEN
PL6.E3A0      #003=X$GET_VAR File=XUE$EVAL.:E05TSI                               WED 07/30/97 09:15 Page:401
     2615    11042    2       DO;   /* Let user do it */

     2616    11043    2           IF XUE_ECB.VAR$$ = ENTADDR(NIL)

  11043  2 000074   300006 236100                    LDQ     6,,PR3
         2 000075   000002 116000 xsym               CMPQ    B_VECTNIL+2
         2 000076   000102 601000 2                  TNZ     s:11049

     2617    11044    2           THEN   /* Wrong! */
     2618    11045    3           DO;

     2619    11046    3               XUE_ECB.ERR = E_NULLVAR$$;

  11046  2 000077   000016 236000 1                  LDQ     E_NULLVAR$$
         2 000100   300011 756100                    STQ     9,,PR3

     2620    11047    3               ALTRETURN;

  11047  2 000101   000000 702200 xent               TSX2  ! X66_AALT

     2621    11048    3           END;
     2622    11049    2           XUE_VARPARAM.CODE# = FUNK_SHUN;

  11049  2 000102   200011 235100                    LDA     FUNK_SHUN,,AUTO
         2 000103   200013 755100                    STA     XUE_VARPARAM,,AUTO

     2623    11050    2           XUE_VARPARAM.CPOS# = CHARPOS_;

  11050  2 000104   200010 236100                    LDQ     CHARPOS_,,AUTO
         2 000105   200014 756100                    STQ     XUE_VARPARAM+1,,AUTO

     2624    11051    2           XUE_VARPARAM.VALUE$ = VALUE$;

  11051  2 000106   200004 471500                    LDP1    @VALUE$,,AUTO
         2 000107   100000 236100                    LDQ     0,,PR1
         2 000110   200017 756100                    STQ     XUE_VARPARAM+4,,AUTO

PL6.E3A0      #003=X$GET_VAR File=XUE$EVAL.:E05TSI                               WED 07/30/97 09:15 Page:402
     2625    11052    2           XUE_VARPARAM.ERR_POS# = 0;

  11052  2 000111   000000 220003                    LDX0    0,DU
         2 000112   200015 740100                    STX0    XUE_VARPARAM+2,,AUTO

     2626    11053    2           XUE_VARPARAM.ERR_DCB# = 0;

  11053  2 000113   200015 440100                    SXL0    XUE_VARPARAM+2,,AUTO

     2627    11054    2           XUE_VARPARAM.ERR = '0'B;

  11054  2 000114   200016 450100                    STZ     XUE_VARPARAM+3,,AUTO

     2628    11055    2           XUE_VARPARAM.VARIABLE.COUNT# = VAR_NAME$ -> X$STRING.SIZ;

  11055  2 000115   000000 474500                    LDP4    0,,PR0
         2 000116   000100 100500                    MLR     fill='000'O
         2 000117   400000 000001                    ADSC9   0,,PR4                   cn=0,n=1
         2 000120   200021 000001                    ADSC9   XUE_VARPARAM+6,,AUTO     cn=0,n=1

     2629    11056    2           XUE_VARPARAM.VARIABLE.TEXT# = VAR_NAME$ -> X$STRING.TEXT;

  11056  2 000121   000000 474500                    LDP4    0,,PR0
         2 000122   000100 101500                    MRL     fill='000'O
         2 000123   400000 000001                    ADSC9   0,,PR4                   cn=0,n=1
         2 000124   200050 000002                    ADSC9   FPT_CMDVAR+14,,AUTO      cn=0,n=2
         2 000125   200050 221100                    LDX1    FPT_CMDVAR+14,,AUTO
         2 000126   040100 100540                    MLR     fill='040'O
         2 000127   400000 200011                    ADSC9   0,,PR4                   cn=1,n=*X1
         2 000130   200021 200037                    ADSC9   XUE_VARPARAM+6,,AUTO     cn=1,n=31

     2630    11057    2           XUE_VARPARAM.USER$ = XUE_ECB.USER$;

  11057  2 000131   300007 236100                    LDQ     7,,PR3
         2 000132   200020 756100                    STQ     XUE_VARPARAM+5,,AUTO

     2631    11058    2           CALL XUE_ECB.VAR$$ (XUE_VARPARAM) ALTRET(E_VAR$$);
PL6.E3A0      #003=X$GET_VAR File=XUE$EVAL.:E05TSI                               WED 07/30/97 09:15 Page:403

  11058  2 000133   200013 634500                    EPPR4   XUE_VARPARAM,,AUTO
         2 000134   200050 454500                    STP4    FPT_CMDVAR+14,,AUTO
         2 000135   200050 630500                    EPPR0   FPT_CMDVAR+14,,AUTO
         2 000136   300006 221100                    LDX1    6,,PR3
         2 000137   000017 631400 xsym               EPPR1   B_VECTNIL+15
         2 000140   000000 701011                    TSX1    0,X1
         2 000141   000316 702000 2                  TSX2    E_VAR$$

     2632    11059    2       END;   /* Do ... end */

  11059  2 000142   000305 710000 2                  TRA     s:11099

     2633    11060    1       ELSE
     2634    11061    2       DO;   /* Use COMMAND VARIABLES */

     2635    11062    2           FPT_CMDVAR = CFPT_CMDVAR;

  11062  2 000143   000100 100400                    MLR     fill='000'O
         2 000144   000000 000070 1                  ADSC9   CFPT_CMDVAR              cn=0,n=56
         2 000145   200032 000070                    ADSC9   FPT_CMDVAR,,AUTO         cn=0,n=56

     2636    11063    2           FPT_CMDVAR.V_ = VECTOR(FPT_CMDVAR.V);

  11063  2 000146   000000 235000 3                  LDA     0
         2 000147   200050 452500                    STP2    FPT_CMDVAR+14,,AUTO
         2 000150   200050 236100                    LDQ     FPT_CMDVAR+14,,AUTO
         2 000151   000046 036003                    ADLQ    38,DU
         2 000152   200032 757100                    STAQ    FPT_CMDVAR,,AUTO

     2637    11064    2           IF FUNK_SHUN = %XUE_FETCH# THEN

  11064  2 000153   200011 235100                    LDA     FUNK_SHUN,,AUTO
         2 000154   000001 115007                    CMPA    1,DL
         2 000155   000161 601000 2                  TNZ     s:11067

     2638    11065    2               FPT_CMDVAR.V.FUN# = %CMD_FETCH#;
PL6.E3A0      #003=X$GET_VAR File=XUE$EVAL.:E05TSI                               WED 07/30/97 09:15 Page:404

  11065  2 000156   002000 236003                    LDQ     1024,DU
         2 000157   200046 552140                    STBQ    FPT_CMDVAR+12,'40'O,AUTO
         2 000160   000163 710000 2                  TRA     s:11068

     2639    11066    2           ELSE
     2640    11067    2               FPT_CMDVAR.V.FUN# = %CMD_STORE#;

  11067  2 000161   001000 236003                    LDQ     512,DU
         2 000162   200046 552140                    STBQ    FPT_CMDVAR+12,'40'O,AUTO

     2641    11068    2           FPT_CMDVAR.NAME_ = VECTOR(VAR_NAME);

  11068  2 000163   000000 471500                    LDP1    0,,PR0
         2 000164   000100 101500                    MRL     fill='000'O
         2 000165   100000 000001                    ADSC9   0,,PR1                   cn=0,n=1
         2 000166   200050 000002                    ADSC9   FPT_CMDVAR+14,,AUTO      cn=0,n=2
         2 000167   200050 220100                    LDX0    FPT_CMDVAR+14,,AUTO
         2 000170   000001 621010                    EAX1    1,X0
         2 000171   000000 636011                    EAQ     0,X1
         2 000172   000022 772000                    QRL     18
         2 000173   000064 737000                    LLS     52
         2 000174   000140 135007                    SBLA    96,DL
         2 000175   200051 451500                    STP1    FPT_CMDVAR+15,,AUTO
         2 000176   200051 236100                    LDQ     FPT_CMDVAR+15,,AUTO
         2 000177   200034 757100                    STAQ    FPT_CMDVAR+2,,AUTO

     2642    11069    2           FPT_CMDVAR.VALUE_ = VECTOR(VAR_VALUE);

  11069  2 000200   200004 471500                    LDP1    @VALUE$,,AUTO
         2 000201   100000 474500                    LDP4    0,,PR1
         2 000202   000100 101500                    MRL     fill='000'O
         2 000203   400000 000001                    ADSC9   0,,PR4                   cn=0,n=1
         2 000204   200050 000002                    ADSC9   FPT_CMDVAR+14,,AUTO      cn=0,n=2
         2 000205   200050 220100                    LDX0    FPT_CMDVAR+14,,AUTO
         2 000206   000001 621010                    EAX1    1,X0
         2 000207   000000 635011                    EAA     0,X1
PL6.E3A0      #003=X$GET_VAR File=XUE$EVAL.:E05TSI                               WED 07/30/97 09:15 Page:405
         2 000210   000002 771000                    ARL     2
         2 000211   000140 135007                    SBLA    96,DL
         2 000212   200051 454500                    STP4    FPT_CMDVAR+15,,AUTO
         2 000213   200051 236100                    LDQ     FPT_CMDVAR+15,,AUTO
         2 000214   200036 757100                    STAQ    FPT_CMDVAR+4,,AUTO

     2643    11070    2           IF SUBSTR(VAR_NAME.NAME#,0,1) = '$'

  11070  2 000215   000000 474500                    LDP4    0,,PR0
         2 000216   000100 101500                    MRL     fill='000'O
         2 000217   400000 000001                    ADSC9   0,,PR4                   cn=0,n=1
         2 000220   200050 000002                    ADSC9   FPT_CMDVAR+14,,AUTO      cn=0,n=2
         2 000221   200050 220100                    LDX0    FPT_CMDVAR+14,,AUTO
         2 000222   040000 106500                    CMPC    fill='040'O
         2 000223   400000 200001                    ADSC9   0,,PR4                   cn=1,n=1
         2 000224   000001 000001 3                  ADSC9   1                        cn=0,n=1
         2 000225   000240 601000 2                  TNZ     s:11080
         2 000226   300016 236100                    LDQ     14,,PR3
         2 000227   200000 316003                    CANQ    65536,DU
         2 000230   000240 601000 2                  TNZ     s:11080

     2644    11071    2             AND NOT XUE_ECB.FLAGS.PRIVATE#
     2645    11072    2           THEN                        /* Public CMDVAR with $name           */
     2646    11073    3           DO;

     2647    11074    3               IF FUNK_SHUN = %XUE_STORE#

  11074  2 000231   200011 235100                    LDA     FUNK_SHUN,,AUTO
         2 000232   000002 115007                    CMPA    2,DL
         2 000233   000237 601000 2                  TNZ     s:11078
         2 000234   200012 235100                    LDA     TYPE_,,AUTO
         2 000235   000002 115007                    CMPA    2,DL
         2 000236   000063 600000 2                  TZE     EVIL_NAME

     2648    11075    3                 AND TYPE_ = %XUE_EXTERNAL#
     2649    11076    3               THEN                   /* Can only STORE from inside!        */
     2650    11077    3                   GOTO EVIL_NAME;
PL6.E3A0      #003=X$GET_VAR File=XUE$EVAL.:E05TSI                               WED 07/30/97 09:15 Page:406
     2651    11078    3               GOTO CONSIDER_PRIVATE;

  11078  2 000237   000243 710000 2                  TRA     CONSIDER_PRIVATE

     2652    11079    3           END;
     2653    11080    2           IF XUE_ECB.FLAGS.PRIVATE# THEN

  11080  2 000240   300016 236100                    LDQ     14,,PR3
         2 000241   200000 316003                    CANQ    65536,DU
         2 000242   000301 600000 2                  TZE     s:11097

     2654    11081    3           DO;   /* Store this as a PRIVATE COMMAND VARIABLE */

  11078  2 000243                       CONSIDER_PR* null
     2655    11082    3   CONSIDER_PRIVATE: ;
     2656    11083    3               FPT_CMDVAR.V.PRIVATE# = %YES#;

  11083  2 000243   000400 236003                    LDQ     256,DU
         2 000244   200046 256100                    ORSQ    FPT_CMDVAR+12,,AUTO

     2657    11084    3               IF XUE_ECB.PROCNAME_ ~= VECTOR(NIL)

  11084  2 000245   300012 237100                    LDAQ    10,,PR3
         2 000246   000002 117000 3                  CMPAQ   2
         2 000247   000253 600000 2                  TZE     s:11088

     2658    11085    3               THEN   /* Assume good vector */
     2659    11086    3                   FPT_CMDVAR.PNAME_ = XUE_ECB.PROCNAME_;

  11086  2 000250   300012 237100                    LDAQ    10,,PR3
         2 000251   200040 757100                    STAQ    FPT_CMDVAR+6,,AUTO
         2 000252   000263 710000 2                  TRA     s:11090

     2660    11087    3               ELSE   /* Get PROCNAME from M$LM */
     2661    11088    3                   FPT_CMDVAR.PNAME_ =

  11088  2 000253   000004 474400 3                  LDP4    4
PL6.E3A0      #003=X$GET_VAR File=XUE$EVAL.:E05TSI                               WED 07/30/97 09:15 Page:407
         2 000254   400000 475500                    LDP5    0,,PR4
         2 000255   500002 476500                    LDP6    2,,PR5
         2 000256   000005 235000 3                  LDA     5
         2 000257   200050 456500                    STP6    FPT_CMDVAR+14,,AUTO
         2 000260   200050 236100                    LDQ     FPT_CMDVAR+14,,AUTO
         2 000261   000010 036003                    ADLQ    8,DU
         2 000262   200040 757100                    STAQ    FPT_CMDVAR+6,,AUTO

     2662    11089    3                     VECTOR(DCBADDR(%M$LM#) -> F$DCB.NAME#);
     2663    11090    3               IF XUE_ECB.PROCACCT_ ~= VECTOR(NIL)

  11090  2 000263   300014 237100                    LDAQ    12,,PR3
         2 000264   000002 117000 3                  CMPAQ   2
         2 000265   000271 600000 2                  TZE     s:11094

     2664    11091    3               THEN   /* Assume good vector */
     2665    11092    3                   FPT_CMDVAR.PACCT_ = XUE_ECB.PROCACCT_;

  11092  2 000266   300014 237100                    LDAQ    12,,PR3
         2 000267   200042 757100                    STAQ    FPT_CMDVAR+8,,AUTO
         2 000270   000301 710000 2                  TRA     s:11097

     2666    11093    3               ELSE   /* Get PROCACCT from M$LM */
     2667    11094    3                   FPT_CMDVAR.PACCT_ =

  11094  2 000271   000004 474400 3                  LDP4    4
         2 000272   400000 475500                    LDP5    0,,PR4
         2 000273   500002 476500                    LDP6    2,,PR5
         2 000274   000000 235000 3                  LDA     0
         2 000275   200050 456500                    STP6    FPT_CMDVAR+14,,AUTO
         2 000276   200050 236100                    LDQ     FPT_CMDVAR+14,,AUTO
         2 000277   000020 036003                    ADLQ    16,DU
         2 000300   200042 757100                    STAQ    FPT_CMDVAR+8,,AUTO

     2668    11095    3                     VECTOR(DCBADDR(%M$LM#) -> F$DCB.ACCT#);
     2669    11096    3           END;

PL6.E3A0      #003=X$GET_VAR File=XUE$EVAL.:E05TSI                               WED 07/30/97 09:15 Page:408
     2670    11097    2           CALL M$CMDVAR (FPT_CMDVAR) ALTRET(E_PMME);

  11097  2 000301   200032 630500                    EPPR0   FPT_CMDVAR,,AUTO
         2 000302   420025 713400                    CLIMB   alt,+8213
         2 000303   402400 401760                    pmme    nvectors=6
         2 000304   000306 702000 2                  TSX2    E_PMME

     2671    11098    2       END;   /* Do ... end */

     2672    11099    1       RETURN;

  11099  2 000305   000000 702200 xent               TSX2  ! X66_ARET

     2673    11100        %EJECT;
PL6.E3A0      #003=X$GET_VAR File=XUE$EVAL.:E05TSI                               WED 07/30/97 09:15 Page:409
     2674    11101        /**/
     2675    11102    1   E_PMME:
     2676    11103    1       XUE_ECB.ERR = B$TCB.ALT$ -> B$ALT.ERR;

  11103  2 000306   000000 470400 xsym  E_PMME       LDP0    B$TCB$
         2 000307   000000 471500                    LDP1    0,,PR0
         2 000310   100102 236100                    LDQ     66,,PR1
         2 000311   200005 473500                    LDP3    @XUE_ECB,,AUTO
         2 000312   300011 756100                    STQ     9,,PR3

     2677    11104    1       XUE_ECB.ERR_POS# = CHARPOS_;

  11104  2 000313   200010 720100                    LXL0    CHARPOS_,,AUTO
         2 000314   300010 740100                    STX0    8,,PR3

     2678    11105    1       ALTRETURN;

  11105  2 000315   000000 702200 xent               TSX2  ! X66_AALT

     2679    11106        /**/
     2680    11107    1   E_VAR$$:
     2681    11108    1       XUE_ECB.ERR = XUE_VARPARAM.ERR;

  11108  2 000316   200016 236100       E_VAR$$      LDQ     XUE_VARPARAM+3,,AUTO
         2 000317   200005 470500                    LDP0    @XUE_ECB,,AUTO
         2 000320   000011 756100                    STQ     9,,PR0

     2682    11109    1       XUE_ECB.ERR_POS# = XUE_VARPARAM.ERR_POS#;

  11109  2 000321   200015 220100                    LDX0    XUE_VARPARAM+2,,AUTO
         2 000322   000010 740100                    STX0    8,,PR0

     2683    11110    1       XUE_ECB.ERR_DCB# = XUE_VARPARAM.ERR_DCB#;

  11110  2 000323   200015 721100                    LXL1    XUE_VARPARAM+2,,AUTO
         2 000324   000010 441100                    SXL1    8,,PR0

PL6.E3A0      #003=X$GET_VAR File=XUE$EVAL.:E05TSI                               WED 07/30/97 09:15 Page:410
     2684    11111    1       ALTRETURN;

  11111  2 000325   000000 702200 xent               TSX2  ! X66_AALT
     2685    11112    1   END X$GET_VAR;
     2686    11113        %EOD;

PL6.E3A0      #003=X$GET_VAR File=XUE$EVAL.:E05TSI                               WED 07/30/97 09:15 Page:411
--  Include file information  --

   XUE_MACRO_C.:E05TOU  is referenced.
   XUE_SUBS_C.:E05TOU  is referenced.
   XU_PERR_C.:E05TOU  is referenced.
   XU_MACRO_C.:E05TOU  is referenced.
   CP_6_SUBS.:E05TOU  is referenced.
   CP_6_C.:E05TOU  is referenced.
   CP_6.:E05TOU  cannot be made into a system file and is referenced.
   B_MACROS_C.:E05TOU  is referenced.
      No diagnostics issued in procedure X$GET_VAR.
PL6.E3A0      #003=X$GET_VAR File=XUE$EVAL.:E05TSI                               WED 07/30/97 09:15 Page:412

 **** Variables and constants ****

  ****  Section 001 RoData X$GET_VAR

  ****  Scalars and arrays  ****
OctLoc.c.b A Datatyp(siz) R M Lvl/name                 OctLoc.c.b A Datatyp(siz) R M Lvl/name

     0-0-0/d STRC(504)   r     1 CFPT_CMDVAR               17-0-0/w STRC        r     1 E_ILLVARNAME
    16-0-0/w STRC        r     1 E_NULLVAR$$

  ****  Auto variables  ****

  ****  Scalars and arrays  ****
OctLoc.c.b A Datatyp(siz) R M Lvl/name                 OctLoc.c.b A Datatyp(siz) R M Lvl/name

     6-0-0/w PTR         r     1 @CHARPOS                   7-0-0/w PTR         r     1 @TYPE
     4-0-0/w PTR         r     1 @VALUE$                    3-0-0/w PTR         r     1 @VAR_NAME$
     5-0-0/w PTR         r     1 @XUE_ECB                  *0-0-0/w UBIN        r     1 CHARPOS
    10-0-0/w SBIN        r     1 CHARPOS_                  32-0-0/d STRC(504)   r     1 FPT_CMDVAR
    11-0-0/w SBIN        r     1 FUNK_SHUN                 *0-0-0/w SBIN        r     1 TYPE
    12-0-0/w SBIN        r     1 TYPE_                     *0-0-0/w PTR         r     1 VALUE$
    *0-0-0/w PTR         r     1 VAR_NAME$                 *0-0-0/d STRC(1008)  r     1 XUE_ECB
    13-0-0/w STRC(504)   r     1 XUE_VARPARAM

  ****  SYMREF variables  ****

  ****  Scalars and arrays  ****
OctLoc.c.b A Datatyp(siz) R M Lvl/name                 OctLoc.c.b A Datatyp(siz) R M Lvl/name

     0-0-0/w PTR         r     1 B$TCB$

  ****  BASED and DCB variables  ****

  ****  Scalars and arrays  ****
OctLoc.c.b A Datatyp(siz) R M Lvl/name                 OctLoc.c.b A Datatyp(siz) R M Lvl/name

     0-0-0/w STRC(2448)  r     1 B$ALT                      0-0-0/w STRC(144)   r     1 B$TCB
PL6.E3A0      #003=X$GET_VAR File=XUE$EVAL.:E05TSI                               WED 07/30/97 09:15 Page:413
     0-0-0/d ASTR(3528)  r     1 F$DCB                      0-0-0/w STRC(18)    r     1 U$STRING
     0-0-0/c ASTR(9)     r     1 VAR_NAME                   0-0-0/c ASTR(9)     r     1 VAR_VALUE
     0-0-0/c ASTR(9)     r     1 X$STRING


   Procedure X$GET_VAR requires 214 words for executable code.
   Procedure X$GET_VAR requires 42 words of local(AUTO) storage.
PL6.E3A0      #003=X$GET_VAR File=XUE$EVAL.:E05TSI                               WED 07/30/97 09:15 Page:414
          *** CROSS REFERENCE LISTING ***
**     DENOTES     IDENTIFIER DEFINITION
<<                 IDENTIFIER'S VALUE SET
>>                 IDENTIFIER'S VALUE USED
<>                 IDENTIFIER SET AND/OR USED
--                 IDENTIFIER REFERENCED
PL6.E3A0      #003=X$GET_VAR File=XUE$EVAL.:E05TSI                               WED 07/30/97 09:15 Page:415
          MINI XREF LISTING

B$ALT.CODE
     10862**DCL     10862--REDEF   10863--REDEF   10863--REDEF
B$ALT.ERR
     10863**DCL     11103>>ASSIGN
B$ALT.ERR.ERR#
     10864**DCL     10864--REDEF
B$ALT.EVID
     10863**DCL     10863--REDEF   10863--REDEF
B$TCB.ALT$
     10858**DCL     11103>>ASSIGN
B$TCB$
     10886**DCL     10858--IMP-PTR 11103>>ASSIGN
CFPT_CMDVAR
     10850**DCL     11062>>ASSIGN
CFPT_CMDVAR.V
     10852**DCL     10850--DCLINIT
CHARPOS
     10650**DCL        12--PROC    10995--ENTRY   11002--IF      11006>>ASSIGN
CHARPOS_
     10653**DCL     11004<<ASSIGN  11006<<ASSIGN  11050>>ASSIGN  11104>>ASSIGN
COMMON_CODE
     10996**LABEL   10988--GOTO
CONSIDER_PRIVATE
     11078**LABEL   11078--GOTO
EVIL_NAME
     11032**LABEL   11024--GOTO    11077--GOTO
E_ILLVARNAME
     10953**DCL     11032>>ASSIGN
E_NULLVAR$$
     10904**DCL     11046>>ASSIGN
E_PMME
     11103**LABEL   11097--CALLALT
PL6.E3A0      #003=X$GET_VAR File=XUE$EVAL.:E05TSI                               WED 07/30/97 09:15 Page:416
E_VAR$$
     11108**LABEL   11058--CALLALT
F$DCB.ACCT#
     10795**DCL     11094--ASSIGN
F$DCB.ACTPOS
     10811**DCL     10811--REDEF
F$DCB.ARS#
     10785**DCL     10785--REDEF
F$DCB.ATTR
     10804**DCL     10805--REDEF
F$DCB.BORROW
     10819**DCL     10819--REDEF   10819--REDEF   10819--REDEF
F$DCB.DCBNAME.L
     10833**DCL     10833--IMP-SIZ
F$DCB.EOMCHAR#
     10789**DCL     10789--REDEF
F$DCB.FLDID
     10814**DCL     10814--REDEF
F$DCB.FORM$
     10808**DCL     10808--REDEF
F$DCB.FSECT
     10824**DCL     10824--REDEF
F$DCB.FSN#
     10801**DCL     10801--REDEF   10801--REDEF   10802--REDEF
F$DCB.HEADER$
     10807**DCL     10807--REDEF
F$DCB.IXTNSIZE#
     10805**DCL     10805--REDEF
F$DCB.LASTSTA$
     10794**DCL     10794--REDEF
F$DCB.LVL
     10820**DCL     10820--REDEF
F$DCB.NAME#
     10795**DCL     11088--ASSIGN
F$DCB.NAME#.C
     10795**DCL     10795--REDEF
PL6.E3A0      #003=X$GET_VAR File=XUE$EVAL.:E05TSI                               WED 07/30/97 09:15 Page:417
F$DCB.NOEOF
     10817**DCL     10817--REDEF
F$DCB.NRECS#
     10806**DCL     10806--REDEF
F$DCB.NRECX
     10825**DCL     10825--REDEF
F$DCB.OHDR
     10817**DCL     10817--REDEF
F$DCB.ORG#
     10800**DCL     10800--REDEF
F$DCB.PRECNO
     10823**DCL     10823--REDEF
F$DCB.RCSZ
     10829**DCL     10829--REDEF
F$DCB.RES#
     10796**DCL     10796--REDEF
F$DCB.SETX
     10808**DCL     10808--REDEF
F$DCB.TAB$
     10808**DCL     10808--REDEF
F$DCB.TDA
     10822**DCL     10823--REDEF
F$DCB.WSN#
     10796**DCL     10796--REDEF
FPT_CMDVAR
     10879**DCL     11062<<ASSIGN  11097<>CALL
FPT_CMDVAR.NAME_
     10879**DCL     11068<<ASSIGN
FPT_CMDVAR.PACCT_
     10880**DCL     11092<<ASSIGN  11094<<ASSIGN
FPT_CMDVAR.PNAME_
     10880**DCL     11086<<ASSIGN  11088<<ASSIGN
FPT_CMDVAR.V
     10881**DCL     11063--ASSIGN
FPT_CMDVAR.V.FUN#
     10881**DCL     11065<<ASSIGN  11067<<ASSIGN
PL6.E3A0      #003=X$GET_VAR File=XUE$EVAL.:E05TSI                               WED 07/30/97 09:15 Page:418
FPT_CMDVAR.V.PRIVATE#
     10882**DCL     11083<<ASSIGN
FPT_CMDVAR.VALUE_
     10879**DCL     11069<<ASSIGN
FPT_CMDVAR.V_
     10879**DCL     11063<<ASSIGN
FUNK_SHUN
     10654**DCL     10987<<ASSIGN  10996<<ASSIGN  11049>>ASSIGN  11064>>IF      11074>>IF
M$CMDVAR
      5681**DCL-ENT 11097--CALL
TYPE
     10651**DCL        12--PROC    10995--ENTRY   11007--IF      11011>>ASSIGN
TYPE_
     10655**DCL     11009<<ASSIGN  11011<<ASSIGN  11039>>IF      11074>>IF
U$STRING.SIZ
     10836**DCL     11022>>IF
U$STRING.TEXT
     10837**DCL     11025>>IF      11025>>IF      11025>>IF      11025>>IF      11025>>IF
VALUE$
     10447**DCL        12--PROC    10669--IMP-PTR 10995--ENTRY   11051>>ASSIGN  11069>>ASSIGN  11069>>ASSIGN
VAR_NAME
     10662**DCL     11068--ASSIGN
VAR_NAME.L#
     10662**DCL     10662--IMP-SIZ 11068>>ASSIGN  11070>>IF
VAR_NAME.NAME#
     10662**DCL     11070>>IF
VAR_NAME$
     10446**DCL        12--PROC    10662--IMP-PTR 10995--ENTRY   11022>>IF      11025>>IF      11025>>IF
     11025>>IF      11025>>IF      11025>>IF      11055>>ASSIGN  11056>>ASSIGN  11056>>ASSIGN  11068>>ASSIGN
     11068>>ASSIGN  11070>>IF      11070>>IF
VAR_VALUE
     10669**DCL     11069--ASSIGN
VAR_VALUE.L#
     10669**DCL     10669--IMP-SIZ 11069>>ASSIGN
X$STRING.SIZ
     10775**DCL     10776--IMP-SIZ 11055>>ASSIGN  11056>>ASSIGN
PL6.E3A0      #003=X$GET_VAR File=XUE$EVAL.:E05TSI                               WED 07/30/97 09:15 Page:419
X$STRING.TEXT
     10776**DCL     11056>>ASSIGN
XUE_ECB
     10462**DCL        12--PROC    10995--ENTRY
XUE_ECB.ERR
     10546**DCL     11032<<ASSIGN  11046<<ASSIGN  11103<<ASSIGN  11108<<ASSIGN
XUE_ECB.ERR_DCB#
     10538**DCL     11110<<ASSIGN
XUE_ECB.ERR_POS#
     10529**DCL     11104<<ASSIGN  11109<<ASSIGN
XUE_ECB.FLAGS.CMDVARS#
     10586**DCL     11039>>IF
XUE_ECB.FLAGS.PRIVATE#
     10597**DCL     11070>>IF      11080>>IF
XUE_ECB.PROCACCT_
     10577**DCL     11090>>IF      11092>>ASSIGN
XUE_ECB.PROCNAME_
     10561**DCL     11084>>IF      11086>>ASSIGN
XUE_ECB.USER$
     10521**DCL     11057>>ASSIGN
XUE_ECB.VAR$$
     10510**DCL     11043>>IF      11058>>CALL
XUE_VARPARAM
     10685**DCL     11058<>CALL
XUE_VARPARAM.CODE#
     10689**DCL     11049<<ASSIGN
XUE_VARPARAM.CPOS#
     10695**DCL     11050<<ASSIGN
XUE_VARPARAM.ERR
     10716**DCL     11054<<ASSIGN  11108>>ASSIGN
XUE_VARPARAM.ERR_DCB#
     10709**DCL     11053<<ASSIGN  11110>>ASSIGN
XUE_VARPARAM.ERR_POS#
     10701**DCL     11052<<ASSIGN  11109>>ASSIGN
XUE_VARPARAM.USER$
     10743**DCL     11057<<ASSIGN
PL6.E3A0      #003=X$GET_VAR File=XUE$EVAL.:E05TSI                               WED 07/30/97 09:15 Page:420
XUE_VARPARAM.VALUE$
     10730**DCL     11051<<ASSIGN
XUE_VARPARAM.VARIABLE.COUNT#
     10750**DCL     11055<<ASSIGN
XUE_VARPARAM.VARIABLE.TEXT#
     10762**DCL     11056<<ASSIGN

PL6.E3A0      #004=X$STRIP_BLANKS File=XUE$EVAL.:E05TSI                          WED 07/30/97 09:16 Page:421
     2687        1        /*T***********************************************************/
     2688        2        /*T*                                                         */
     2689        3        /*T* Copyright (c) Bull HN Information Systems Inc., 1997    */
     2690        4        /*T*                                                         */
     2691        5        /*T***********************************************************/
     2692        6        /*X* DMC,PLM=4,IND=4,CTI=2,DTI=0,ENI=0,ECI=0,CSI=0,MCI,DCI=4 */
     2693        7        X$STRIP_BLANKS: PROC (PTR$);
     2694        8          %INCLUDE B_MACROS_C;
     2695      119        %INCLUDE B$TABLES_C;
     2696      227          %TEXTC (NAME=X$STRING);
     2697      232    1   DCL PTR$ PTR;
     2698      233    1   DCL WHERE SBIN WORD AUTO;
     2699      234    1   DCL DUMMY SBIN WORD AUTO;
     2700      235        %B$SR_NON_BLANK (NAME=NON_BLANKS);
     2701      239        /**/
     2702      240    1       IF PTR$ -> X$STRING.TEXT = ' '
     2703      241    1       THEN   /* All BLANKS */
     2704      242    2       DO;   /* Return a NULL string */
     2705      243    2           PTR$ -> X$STRING.SIZ = 0;
     2706      244    2           RETURN;
     2707      245    2       END;
     2708      246        /*
     2709      247             ***** Search for first non-blank character
     2710      248                   starting at right end of string ...
     2711      249        */
     2712      250    1       CALL SEARCHR (WHERE,DUMMY,NON_BLANKS,PTR$->X$STRING.TEXT);
     2713      251    1       WHERE = WHERE + 1;
     2714      252    1       IF WHERE < PTR$ -> X$STRING.SIZ
     2715      253    1       THEN   /* Blank found */
     2716      254    1           IF SUBSTR(PTR$->X$STRING.TEXT,WHERE) = ' '
     2717      255    1           THEN   /* Not an imbedded blank */
     2718      256    2           DO;   /* Strip them */
     2719      257    2               PTR$ -> X$STRING.SIZ = WHERE;
     2720      258    2           END;
     2721      259        /*
     2722      260             ***** Search for first non-blank character
     2723      261                   starting at left end of string ...
PL6.E3A0      #004=X$STRIP_BLANKS File=XUE$EVAL.:E05TSI                          WED 07/30/97 09:16 Page:422
     2724      262        */
     2725      263    1       CALL SEARCH (WHERE,DUMMY,NON_BLANKS,PTR$->X$STRING.TEXT);
     2726      264    1       IF WHERE = 0
     2727      265    1       THEN   /* First character is non-blank */
     2728      266    1           RETURN;
     2729      267    1       IF SUBSTR(PTR$ -> X$STRING.TEXT,0,WHERE-1) = ' '
     2730      268    1       THEN   /* There were leading blanks */
     2731      269    2       DO;   /* Strip them */
     2732      270    2           PTR$ -> X$STRING.TEXT = SUBSTR(PTR$ -> X$STRING.TEXT,WHERE);
     2733      271    2           PTR$ -> X$STRING.SIZ = PTR$ -> X$STRING.SIZ - WHERE;
     2734      272    2       END;
     2735      273    1       RETURN;
     2736      274    1   END X$STRIP_BLANKS;
     2737      275        %EOD;

PL6.E3A0      #004=X$STRIP_BLANKS File=XUE$EVAL.:E05TSI                          WED 07/30/97 09:16 Page:423
--  Include file information  --

   B$TABLES_C.:E05TOU  cannot be made into a system file and is referenced.
   B_MACROS_C.:E05TOU  is referenced.
      No diagnostics issued in procedure X$STRIP_BLANKS.

   Procedure X$STRIP_BLANKS requires 118 words for executable code.
   Procedure X$STRIP_BLANKS requires 8 words of local(AUTO) storage.

PL6.E3A0      #004=X$STRIP_BLANKS File=XUE$EVAL.:E05TSI                          WED 07/30/97 09:16 Page:424

 Object Unit name= X$STRIP_BLANKS                             File name= XUE$EVAL.:E05TOU
 UTS= JUL 30 '97 09:16:13.88 WED                              Compiler= PL-6/E31         Sev=      00
 SharedLib= :SHARED_SYSTEM                                    Alt SharedLib=


    ****  Control sections  ****

 Sect   Type Bound  Init  Size OctSiz  Section name(segment info)
    0   Proc  even  none   118    166  X$STRIP_BLANKS

    ****  Entry defs  ****

                              Check   Calling
                             calling  sequence
  Sect OctLoc Primary Altret sequence   type   Parms  Name
     0      0   yes            yes      Std        1  X$STRIP_BLANKS

  ****  Entry refs  ****

         Check        Calling
        calling       sequence
Altret sequence SRef   type   Args  Name
         yes          ~proc      0 B_POINTER
                       nStd      0 X66_AUTO_1
                       Std       0 B_CONSPOOL_D
                       nStd      0 X66_ARET

  ****  Data refs  ****

  Flags:  r = read only, s = secondary
Flgs Name                             Flgs Name                             Flgs Name
r    B$SR_NON_BLANK$                       B_VECTNIL
PL6.E3A0      #004=X$STRIP_BLANKS File=XUE$EVAL.:E05TSI                          WED 07/30/97 09:16 Page:425


     2687        1        /*T***********************************************************/
     2688        2        /*T*                                                         */
     2689        3        /*T* Copyright (c) Bull HN Information Systems Inc., 1997    */
     2690        4        /*T*                                                         */
     2691        5        /*T***********************************************************/
     2692        6        /*X* DMC,PLM=4,IND=4,CTI=2,DTI=0,ENI=0,ECI=0,CSI=0,MCI,DCI=4 */
     2693        7        X$STRIP_BLANKS: PROC (PTR$);

      7  0 000000   000000 700200 xent  X$STRIP_BLA* TSX0  ! X66_AUTO_1
         0 000001   000010 000001                    ZERO    8,1

     2694        8          %INCLUDE B_MACROS_C;
     2695      119        %INCLUDE B$TABLES_C;
     2696      227          %TEXTC (NAME=X$STRING);
     2697      232    1   DCL PTR$ PTR;
     2698      233    1   DCL WHERE SBIN WORD AUTO;
     2699      234    1   DCL DUMMY SBIN WORD AUTO;
     2700      235        %B$SR_NON_BLANK (NAME=NON_BLANKS);
     2701      239        /**/
     2702      240    1       IF PTR$ -> X$STRING.TEXT = ' '

    240  0 000002   200003 470500                    LDP0    @PTR$,,AUTO
         0 000003   000000 471500                    LDP1    0,,PR0
         0 000004   000100 101500                    MRL     fill='000'O
         0 000005   100000 000001                    ADSC9   0,,PR1                   cn=0,n=1
         0 000006   200006 000002                    ADSC9   DUMMY+1,,AUTO            cn=0,n=2
         0 000007   200006 220100                    LDX0    DUMMY+1,,AUTO
         0 000010   040000 106540                    CMPC    fill='040'O
         0 000011   100000 200010                    ADSC9   0,,PR1                   cn=1,n=*X0
         0 000012   000035 000001 xsym               ADSC9   B_VECTNIL+29             cn=0,n=1
         0 000013   000021 601000 0                  TNZ     s:250

     2703      241    1       THEN   /* All BLANKS */
     2704      242    2       DO;   /* Return a NULL string */

     2705      243    2           PTR$ -> X$STRING.SIZ = 0;
PL6.E3A0      #004=X$STRIP_BLANKS File=XUE$EVAL.:E05TSI                          WED 07/30/97 09:16 Page:426

    243  0 000014   000000 471500                    LDP1    0,,PR0
         0 000015   000100 101400                    MRL     fill='000'O
         0 000016   000002 000004 xsym               ADSC9   B_VECTNIL+2              cn=0,n=4
         0 000017   100000 000001                    ADSC9   0,,PR1                   cn=0,n=1

     2706      244    2           RETURN;

    244  0 000020   000000 702200 xent               TSX2  ! X66_ARET

     2707      245    2       END;
     2708      246        /*
     2709      247             ***** Search for first non-blank character
     2710      248                   starting at right end of string ...
     2711      249        */
     2712      250    1       CALL SEARCHR (WHERE,DUMMY,NON_BLANKS,PTR$->X$STRING.TEXT);

    250  0 000021   000000 471500                    LDP1    0,,PR0
         0 000022   000100 101500                    MRL     fill='000'O
         0 000023   100000 000001                    ADSC9   0,,PR1                   cn=0,n=1
         0 000024   200006 000002                    ADSC9   DUMMY+1,,AUTO            cn=0,n=2
         0 000025   200006 220100                    LDX0    DUMMY+1,,AUTO
         0 000026   000000 636010                    EAQ     0,X0
         0 000027   000022 772000                    QRL     18
         0 000030   000000 473400 xsym               LDP3    B$SR_NON_BLANK$
         0 000031   000000 165540                    TCTR
         0 000032   100000 200010                    ADSC9   0,,PR1                   cn=1,n=*X0
         0 000033   300000 000100                    ARG     0,,PR3
         0 000034   200004 000100                    ARG     WHERE,,AUTO
         0 000035   200004 235100                    LDA     WHERE,,AUTO
         0 000036   000033 771000                    ARL     27
         0 000037   200005 755100                    STA     DUMMY,,AUTO
         0 000040   200004 551140                    STBA    WHERE,'40'O,AUTO
         0 000041   000044 606400 0                  TTN     s:251
         0 000042   200004 054100                    AOS     WHERE,,AUTO
         0 000043   200004 156100                    SSQ     WHERE,,AUTO

PL6.E3A0      #004=X$STRIP_BLANKS File=XUE$EVAL.:E05TSI                          WED 07/30/97 09:16 Page:427
     2713      251    1       WHERE = WHERE + 1;

    251  0 000044   200004 054100                    AOS     WHERE,,AUTO

     2714      252    1       IF WHERE < PTR$ -> X$STRING.SIZ

    252  0 000045   000000 471500                    LDP1    0,,PR0
         0 000046   000100 101500                    MRL     fill='000'O
         0 000047   100000 000001                    ADSC9   0,,PR1                   cn=0,n=1
         0 000050   200006 000004                    ADSC9   DUMMY+1,,AUTO            cn=0,n=4
         0 000051   200006 236100                    LDQ     DUMMY+1,,AUTO
         0 000052   200004 116100                    CMPQ    WHERE,,AUTO
         0 000053   000076 604400 0                  TMOZ    s:263

     2715      253    1       THEN   /* Blank found */
     2716      254    1           IF SUBSTR(PTR$->X$STRING.TEXT,WHERE) = ' '

    254  0 000054   000000 471500                    LDP1    0,,PR0
         0 000055   000100 101500                    MRL     fill='000'O
         0 000056   100000 000001                    ADSC9   0,,PR1                   cn=0,n=1
         0 000057   200006 000002                    ADSC9   DUMMY+1,,AUTO            cn=0,n=2
         0 000060   200006 220100                    LDX0    DUMMY+1,,AUTO
         0 000061   000000 636010                    EAQ     0,X0
         0 000062   000022 772000                    QRL     18
         0 000063   200004 136100                    SBLQ    WHERE,,AUTO
         0 000064   000000 621006                    EAX1    0,QL
         0 000065   200004 236100                    LDQ     WHERE,,AUTO
         0 000066   040000 106546                    CMPC    fill='040'O
         0 000067   100000 200011                    ADSC9   0,Q,PR1                  cn=1,n=*X1
         0 000070   000035 000001 xsym               ADSC9   B_VECTNIL+29             cn=0,n=1
         0 000071   000076 601000 0                  TNZ     s:263

     2717      255    1           THEN   /* Not an imbedded blank */
     2718      256    2           DO;   /* Strip them */

     2719      257    2               PTR$ -> X$STRING.SIZ = WHERE;

PL6.E3A0      #004=X$STRIP_BLANKS File=XUE$EVAL.:E05TSI                          WED 07/30/97 09:16 Page:428
    257  0 000072   000000 471500                    LDP1    0,,PR0
         0 000073   000100 101500                    MRL     fill='000'O
         0 000074   200004 000004                    ADSC9   WHERE,,AUTO              cn=0,n=4
         0 000075   100000 000001                    ADSC9   0,,PR1                   cn=0,n=1

     2720      258    2           END;

     2721      259        /*
     2722      260             ***** Search for first non-blank character
     2723      261                   starting at left end of string ...
     2724      262        */
     2725      263    1       CALL SEARCH (WHERE,DUMMY,NON_BLANKS,PTR$->X$STRING.TEXT);

    263  0 000076   000000 471500                    LDP1    0,,PR0
         0 000077   000100 101500                    MRL     fill='000'O
         0 000100   100000 000001                    ADSC9   0,,PR1                   cn=0,n=1
         0 000101   200006 000002                    ADSC9   DUMMY+1,,AUTO            cn=0,n=2
         0 000102   200006 220100                    LDX0    DUMMY+1,,AUTO
         0 000103   000000 164540                    TCT
         0 000104   100000 200010                    ADSC9   0,,PR1                   cn=1,n=*X0
         0 000105   300000 000100                    ARG     0,,PR3
         0 000106   200004 000100                    ARG     WHERE,,AUTO
         0 000107   200004 236100                    LDQ     WHERE,,AUTO
         0 000110   000044 737000                    LLS     36
         0 000111   000033 771000                    ARL     27
         0 000112   200005 755100                    STA     DUMMY,,AUTO
         0 000113   200004 551140                    STBA    WHERE,'40'O,AUTO

     2726      264    1       IF WHERE = 0

    264  0 000114   200004 236100                    LDQ     WHERE,,AUTO
         0 000115   000117 601000 0                  TNZ     s:267

     2727      265    1       THEN   /* First character is non-blank */
     2728      266    1           RETURN;

    266  0 000116   000000 702200 xent               TSX2  ! X66_ARET
PL6.E3A0      #004=X$STRIP_BLANKS File=XUE$EVAL.:E05TSI                          WED 07/30/97 09:16 Page:429

     2729      267    1       IF SUBSTR(PTR$ -> X$STRING.TEXT,0,WHERE-1) = ' '

    267  0 000117   000000 471500                    LDP1    0,,PR0
         0 000120   000100 101500                    MRL     fill='000'O
         0 000121   100000 000001                    ADSC9   0,,PR1                   cn=0,n=1
         0 000122   200006 000002                    ADSC9   DUMMY+1,,AUTO            cn=0,n=2
         0 000123   200006 220100                    LDX0    DUMMY+1,,AUTO
         0 000124   777777 621006                    EAX1    -1,QL
         0 000125   040000 106540                    CMPC    fill='040'O
         0 000126   100000 200011                    ADSC9   0,,PR1                   cn=1,n=*X1
         0 000127   000035 000001 xsym               ADSC9   B_VECTNIL+29             cn=0,n=1
         0 000130   000165 601000 0                  TNZ     s:273

     2730      268    1       THEN   /* There were leading blanks */
     2731      269    2       DO;   /* Strip them */

     2732      270    2           PTR$ -> X$STRING.TEXT = SUBSTR(PTR$ -> X$STRING.TEXT,WHERE);

    270  0 000131   000000 471500                    LDP1    0,,PR0
         0 000132   000100 101500                    MRL     fill='000'O
         0 000133   100000 000001                    ADSC9   0,,PR1                   cn=0,n=1
         0 000134   200006 000002                    ADSC9   DUMMY+1,,AUTO            cn=0,n=2
         0 000135   200006 220100                    LDX0    DUMMY+1,,AUTO
         0 000136   000000 474500                    LDP4    0,,PR0
         0 000137   000100 101500                    MRL     fill='000'O
         0 000140   400000 000001                    ADSC9   0,,PR4                   cn=0,n=1
         0 000141   200007 000002                    ADSC9   DUMMY+2,,AUTO            cn=0,n=2
         0 000142   200007 222100                    LDX2    DUMMY+2,,AUTO
         0 000143   000000 636012                    EAQ     0,X2
         0 000144   000022 772000                    QRL     18
         0 000145   200004 136100                    SBLQ    WHERE,,AUTO
         0 000146   000000 623006                    EAX3    0,QL
         0 000147   200004 236100                    LDQ     WHERE,,AUTO
         0 000150   040140 100546                    MLR     fill='040'O
         0 000151   400000 200013                    ADSC9   0,Q,PR4                  cn=1,n=*X3
         0 000152   100000 200010                    ADSC9   0,,PR1                   cn=1,n=*X0
PL6.E3A0      #004=X$STRIP_BLANKS File=XUE$EVAL.:E05TSI                          WED 07/30/97 09:16 Page:430

     2733      271    2           PTR$ -> X$STRING.SIZ = PTR$ -> X$STRING.SIZ - WHERE;

    271  0 000153   000000 471500                    LDP1    0,,PR0
         0 000154   000100 101500                    MRL     fill='000'O
         0 000155   100000 000001                    ADSC9   0,,PR1                   cn=0,n=1
         0 000156   200006 000004                    ADSC9   DUMMY+1,,AUTO            cn=0,n=4
         0 000157   200006 236100                    LDQ     DUMMY+1,,AUTO
         0 000160   200004 136100                    SBLQ    WHERE,,AUTO
         0 000161   200007 756100                    STQ     DUMMY+2,,AUTO
         0 000162   000100 101500                    MRL     fill='000'O
         0 000163   200007 000004                    ADSC9   DUMMY+2,,AUTO            cn=0,n=4
         0 000164   100000 000001                    ADSC9   0,,PR1                   cn=0,n=1

     2734      272    2       END;

     2735      273    1       RETURN;

    273  0 000165   000000 702200 xent               TSX2  ! X66_ARET
     2736      274    1   END X$STRIP_BLANKS;
     2737      275        %EOD;

PL6.E3A0      #004=X$STRIP_BLANKS File=XUE$EVAL.:E05TSI                          WED 07/30/97 09:16 Page:431
--  Include file information  --

   B$TABLES_C.:E05TOU  cannot be made into a system file and is referenced.
   B_MACROS_C.:E05TOU  is referenced.
      No diagnostics issued in procedure X$STRIP_BLANKS.
PL6.E3A0      #004=X$STRIP_BLANKS File=XUE$EVAL.:E05TSI                          WED 07/30/97 09:16 Page:432

 **** Variables and constants ****

  ****  Auto variables  ****

  ****  Scalars and arrays  ****
OctLoc.c.b A Datatyp(siz) R M Lvl/name                 OctLoc.c.b A Datatyp(siz) R M Lvl/name

     3-0-0/w PTR         r     1 @PTR$                      5-0-0/w SBIN        r     1 DUMMY
    *0-0-0/w PTR         r     1 PTR$                       4-0-0/w SBIN        r     1 WHERE

  ****  SYMREF variables  ****

  ****  Scalars and arrays  ****
OctLoc.c.b A Datatyp(siz) R M Lvl/name                 OctLoc.c.b A Datatyp(siz) R M Lvl/name

     0-0-0/w PTR         r     1 B$SR_NON_BLANK$

  ****  BASED and DCB variables  ****

  ****  Scalars and arrays  ****
OctLoc.c.b A Datatyp(siz) R M Lvl/name                 OctLoc.c.b A Datatyp(siz) R M Lvl/name

     0-0-0/d STRC(4608)  r     1 NON_BLANKS                 0-0-0/c ASTR(9)     r     1 X$STRING


   Procedure X$STRIP_BLANKS requires 118 words for executable code.
   Procedure X$STRIP_BLANKS requires 8 words of local(AUTO) storage.
PL6.E3A0      #004=X$STRIP_BLANKS File=XUE$EVAL.:E05TSI                          WED 07/30/97 09:16 Page:433
          *** CROSS REFERENCE LISTING ***
**     DENOTES     IDENTIFIER DEFINITION
<<                 IDENTIFIER'S VALUE SET
>>                 IDENTIFIER'S VALUE USED
<>                 IDENTIFIER SET AND/OR USED
--                 IDENTIFIER REFERENCED
PL6.E3A0      #004=X$STRIP_BLANKS File=XUE$EVAL.:E05TSI                          WED 07/30/97 09:16 Page:434
          MINI XREF LISTING

B$SR_NON_BLANK$
       236**DCL       237--IMP-PTR   250>>CALLBLT   263>>CALLBLT
DUMMY
       234**DCL       250<<CALLBLT   263<<CALLBLT
NON_BLANKS
       237**DCL       250>>CALLBLT   263>>CALLBLT
PTR$
       232**DCL         7--PROC      240>>IF        240>>IF        243>>ASSIGN    250>>CALLBLT   250>>CALLBLT
       252>>IF        254>>IF        254>>IF        257>>ASSIGN    263>>CALLBLT   263>>CALLBLT   267>>IF
       267>>IF        270>>ASSIGN    270>>ASSIGN    270>>ASSIGN    270>>ASSIGN    271>>ASSIGN    271>>ASSIGN
WHERE
       233**DCL       250<<CALLBLT   251<<ASSIGN    251>>ASSIGN    252>>IF        254>>IF        257>>ASSIGN
       263<<CALLBLT   264>>IF        267>>IF        270>>ASSIGN    271>>ASSIGN
X$STRING.SIZ
       229**DCL       230--IMP-SIZ   240>>IF        243<<ASSIGN    250>>CALLBLT   252>>IF        254>>IF
       257<<ASSIGN    263>>CALLBLT   267>>IF        270>>ASSIGN    270>>ASSIGN    271<<ASSIGN    271>>ASSIGN
X$STRING.TEXT
       230**DCL       240>>IF        250>>CALLBLT   254>>IF        263>>CALLBLT   267>>IF        270<<ASSIGN
       270>>ASSIGN

PL6.E3A0      #005=X$DEC_CONVERT File=XUE$EVAL.:E05TSI                           WED 07/30/97 09:16 Page:435
     2738        1        /*T***********************************************************/
     2739        2        /*T*                                                         */
     2740        3        /*T* Copyright (c) Bull HN Information Systems Inc., 1997    */
     2741        4        /*T*                                                         */
     2742        5        /*T***********************************************************/
     2743        6        /*X* DMC,PLM=4,IND=4,CTI=2,DTI=0,ENI=0,ECI=0,CSI=0,MCI,DCI=4 */
     2744        7        X$DEC_CONVERT: PROC (STRING$,VALUE) ALTRET;
     2745        8          %INCLUDE B_MACROS_C;
     2746      119          %INCLUDE XUE_MACRO_C;
     2747      863    1   DCL STRING$ PTR;
     2748      864    1   DCL VALUE SBIN WORD;
     2749      865        /***** Auto variables *****/
     2750      866    1   DCL WHERE SBIN WORD AUTO;
     2751      867    1   DCL RESULT SBIN WORD AUTO;
     2752      868        /***** External routines *****/
     2753      869          %XUE_ENTRIES (OMIT=X$DEC_CONVERT);
     2754      893        /***** Based structures *****/
     2755      894    1   DCL 1 B$STRING BASED,
     2756      895    1         2  SIZ UBIN BYTE UNAL,
     2757      896    1         2  TEXT (0:0) CHAR(1) UNAL;
     2758      897          %TEXTC (NAME=X$STRING);
     2759      902        /***** SEARCH table *****/
     2760      903    1   DCL DECIMAL_TABLE (0:511) UBIN BYTE UNAL CONSTANT INIT
     2761      904    1        ( 1*48, 0*10, 1*454);
     2762      905        /***** Max decimal value *****/
     2763      906    1   DCL HI_VALUE CHAR(0) CONSTANT INIT ('34359738367');
     2764      907        /*
     2765      908             ***** Initialize ...
     2766      909        */
     2767      910    1       RESULT = 0;
     2768      911        /*
     2769      912             ***** Strip any BLANKS ...
     2770      913        */
     2771      914    1       CALL X$STRIP_BLANKS (STRING$);
     2772      915        /*
     2773      916             ***** Null strings are not valid decimal strings ...
     2774      917        */
PL6.E3A0      #005=X$DEC_CONVERT File=XUE$EVAL.:E05TSI                           WED 07/30/97 09:16 Page:436
     2775      918    1       IF STRING$ -> X$STRING.SIZ = 0
     2776      919    1         OR (STRING$ -> X$STRING.SIZ = 1
     2777      920    1         AND STRING$ -> B$STRING.TEXT(0) = '-'
     2778      921    1         OR STRING$ -> B$STRING.TEXT(0) = '+')
     2779      922    1       THEN
     2780      923    1           ALTRETURN;
     2781      924        /*
     2782      925             ***** VERIFY that all chars are legal DECIMAL characters ...
     2783      926        */
     2784      927    1       IF STRING$ -> B$STRING.TEXT(0) = '+'
     2785      928    1         OR STRING$ -> B$STRING.TEXT(0) = '-'
     2786      929    1       THEN                               /* In XCHARBIN form                   */
     2787      930    2       DO;
     2788      931    2           CALL SEARCH (WHERE,RESULT,DECIMAL_TABLE,STRING$ ->
     2789      932    2             X$STRING.TEXT,1);      /* Skip SIGN char                     */
     2790      933    2           IF RESULT ~= 0
     2791      934    2           THEN                      /* Non DECIMAL found                  */
     2792      935    2               GOTO E_CONVERT;
     2793      936    2           IF (STRING$ -> X$STRING.SIZ -1) >= LENGTHC(HI_VALUE)
     2794      937    2             AND SUBSTR(STRING$ -> X$STRING.TEXT,1) > HI_VALUE
     2795      938    2           THEN                      /* Value too large                    */
     2796      939    3           DO;
     2797      940    3               ALTRETURN;
     2798      941    3           END;
     2799      942    2           CALL XCHARBIN (VALUE,STRING$->X$STRING.TEXT);
     2800      943    2       END;
     2801      944    1       ELSE                               /* In CHARBIN form                    */
     2802      945    2       DO;
     2803      946    2           CALL SEARCH (WHERE,RESULT,DECIMAL_TABLE,STRING$ ->
     2804      947    2             X$STRING.TEXT,0);      /* No SIGN char                       */
     2805      948    2           IF RESULT ~= 0
     2806      949    2           THEN                      /* Non DECIMAL found                  */
     2807      950    2               GOTO E_CONVERT;
     2808      951    2           IF STRING$ -> X$STRING.SIZ >= LENGTHC(HI_VALUE)
     2809      952    2             AND STRING$ -> X$STRING.TEXT > HI_VALUE
     2810      953    2           THEN                      /* Value too large                    */
     2811      954    3           DO;
PL6.E3A0      #005=X$DEC_CONVERT File=XUE$EVAL.:E05TSI                           WED 07/30/97 09:16 Page:437
     2812      955    3               ALTRETURN;
     2813      956    3           END;
     2814      957    2           CALL CHARBIN (VALUE,STRING$->X$STRING.TEXT);
     2815      958    2       END;
     2816      959    1       RETURN;
     2817      960        /**/
     2818      961    1   E_CONVERT:
     2819      962    1       ALTRETURN;
     2820      963    1   END X$DEC_CONVERT;
     2821      964        %EOD;

PL6.E3A0      #005=X$DEC_CONVERT File=XUE$EVAL.:E05TSI                           WED 07/30/97 09:16 Page:438
--  Include file information  --

   XUE_MACRO_C.:E05TOU  is referenced.
   B_MACROS_C.:E05TOU  is referenced.
      No diagnostics issued in procedure X$DEC_CONVERT.

   Procedure X$DEC_CONVERT requires 123 words for executable code.
   Procedure X$DEC_CONVERT requires 10 words of local(AUTO) storage.

PL6.E3A0      #005=X$DEC_CONVERT File=XUE$EVAL.:E05TSI                           WED 07/30/97 09:16 Page:439

 Object Unit name= X$DEC_CONVERT                              File name= XUE$EVAL.:E05TOU
 UTS= JUL 30 '97 09:16:19.08 WED                              Compiler= PL-6/E31         Sev=      00
 SharedLib= :SHARED_SYSTEM                                    Alt SharedLib=


    ****  Control sections  ****

 Sect   Type Bound  Init  Size OctSiz  Section name(segment info)
    0  RoData even  UTS    131    203  X$DEC_CONVERT
    1   Proc  even  none   123    173  X$DEC_CONVERT
    2  RoData even  none     2      2  X$DEC_CONVERT

    ****  Entry defs  ****

                              Check   Calling
                             calling  sequence
  Sect OctLoc Primary Altret sequence   type   Parms  Name
     1      0   yes    yes     yes      Std        2  X$DEC_CONVERT

  ****  Entry refs  ****

         Check        Calling
        calling       sequence
Altret sequence SRef   type   Args  Name
         yes           Std       1 X$STRIP_BLANKS
                       nStd      0 X66_AUTO_2
                       Std       0 B_CONSPOOL_D
                       nStd      0 X66_AALT
                       nStd      0 X66_ARET

  ****  Data refs  ****

  Flags:  r = read only, s = secondary
Flgs Name                             Flgs Name                             Flgs Name
     B_VECTNIL
PL6.E3A0      #005=X$DEC_CONVERT File=XUE$EVAL.:E05TSI                           WED 07/30/97 09:16 Page:440


     2738        1        /*T***********************************************************/
     2739        2        /*T*                                                         */
     2740        3        /*T* Copyright (c) Bull HN Information Systems Inc., 1997    */
     2741        4        /*T*                                                         */
     2742        5        /*T***********************************************************/
     2743        6        /*X* DMC,PLM=4,IND=4,CTI=2,DTI=0,ENI=0,ECI=0,CSI=0,MCI,DCI=4 */
     2744        7        X$DEC_CONVERT: PROC (STRING$,VALUE) ALTRET;

      7  1 000000   000000 700200 xent  X$DEC_CONVE* TSX0  ! X66_AUTO_2
         1 000001   000012 000002                    ZERO    10,2

     2745        8          %INCLUDE B_MACROS_C;
     2746      119          %INCLUDE XUE_MACRO_C;
     2747      863    1   DCL STRING$ PTR;
     2748      864    1   DCL VALUE SBIN WORD;
     2749      865        /***** Auto variables *****/
     2750      866    1   DCL WHERE SBIN WORD AUTO;
     2751      867    1   DCL RESULT SBIN WORD AUTO;
     2752      868        /***** External routines *****/
     2753      869          %XUE_ENTRIES (OMIT=X$DEC_CONVERT);
     2754      893        /***** Based structures *****/
     2755      894    1   DCL 1 B$STRING BASED,
     2756      895    1         2  SIZ UBIN BYTE UNAL,
     2757      896    1         2  TEXT (0:0) CHAR(1) UNAL;
     2758      897          %TEXTC (NAME=X$STRING);
     2759      902        /***** SEARCH table *****/
     2760      903    1   DCL DECIMAL_TABLE (0:511) UBIN BYTE UNAL CONSTANT INIT
     2761      904    1        ( 1*48, 0*10, 1*454);
     2762      905        /***** Max decimal value *****/
     2763      906    1   DCL HI_VALUE CHAR(0) CONSTANT INIT ('34359738367');
     2764      907        /*
     2765      908             ***** Initialize ...
     2766      909        */
     2767      910    1       RESULT = 0;

    910  1 000002   200006 450100                    STZ     RESULT,,AUTO
PL6.E3A0      #005=X$DEC_CONVERT File=XUE$EVAL.:E05TSI                           WED 07/30/97 09:16 Page:441

     2768      911        /*
     2769      912             ***** Strip any BLANKS ...
     2770      913        */
     2771      914    1       CALL X$STRIP_BLANKS (STRING$);

    914  1 000003   200003 630500                    EPPR0   @STRING$,,AUTO
         1 000004   000017 631400 xsym               EPPR1   B_VECTNIL+15
         1 000005   000000 701000 xent               TSX1    X$STRIP_BLANKS
         1 000006   000000 011000                    NOP     0

     2772      915        /*
     2773      916             ***** Null strings are not valid decimal strings ...
     2774      917        */
     2775      918    1       IF STRING$ -> X$STRING.SIZ = 0

    918  1 000007   200003 470500                    LDP0    @STRING$,,AUTO
         1 000010   000000 471500                    LDP1    0,,PR0
         1 000011   000100 101500                    MRL     fill='000'O
         1 000012   100000 000001                    ADSC9   0,,PR1                   cn=0,n=1
         1 000013   200010 000004                    ADSC9   RESULT+2,,AUTO           cn=0,n=4
         1 000014   200010 236100                    LDQ     RESULT+2,,AUTO
         1 000015   000000 116003                    CMPQ    0,DU
         1 000016   000040 600000 1                  TZE     s:923
         1 000017   000000 471500                    LDP1    0,,PR0
         1 000020   000100 101500                    MRL     fill='000'O
         1 000021   100000 000001                    ADSC9   0,,PR1                   cn=0,n=1
         1 000022   200011 000004                    ADSC9   RESULT+3,,AUTO           cn=0,n=4
         1 000023   200011 236100                    LDQ     RESULT+3,,AUTO
         1 000024   000001 116007                    CMPQ    1,DL
         1 000025   000033 601000 1                  TNZ     s:918+20
         1 000026   000000 471500                    LDP1    0,,PR0
         1 000027   040000 106500                    CMPC    fill='040'O
         1 000030   100000 200001                    ADSC9   0,,PR1                   cn=1,n=1
         1 000031   000000 000001 2                  ADSC9   0                        cn=0,n=1
         1 000032   000040 600000 1                  TZE     s:923
         1 000033   000000 471500                    LDP1    0,,PR0
PL6.E3A0      #005=X$DEC_CONVERT File=XUE$EVAL.:E05TSI                           WED 07/30/97 09:16 Page:442
         1 000034   040000 106500                    CMPC    fill='040'O
         1 000035   100000 200001                    ADSC9   0,,PR1                   cn=1,n=1
         1 000036   000001 000001 2                  ADSC9   1                        cn=0,n=1
         1 000037   000041 601000 1                  TNZ     s:927

     2776      919    1         OR (STRING$ -> X$STRING.SIZ = 1
     2777      920    1         AND STRING$ -> B$STRING.TEXT(0) = '-'
     2778      921    1         OR STRING$ -> B$STRING.TEXT(0) = '+')
     2779      922    1       THEN
     2780      923    1           ALTRETURN;

    923  1 000040   000000 702200 xent               TSX2  ! X66_AALT

     2781      924        /*
     2782      925             ***** VERIFY that all chars are legal DECIMAL characters ...
     2783      926        */
     2784      927    1       IF STRING$ -> B$STRING.TEXT(0) = '+'

    927  1 000041   000046 600000 1                  TZE     s:931
         1 000042   040000 106500                    CMPC    fill='040'O
         1 000043   100000 200001                    ADSC9   0,,PR1                   cn=1,n=1
         1 000044   000000 000001 2                  ADSC9   0                        cn=0,n=1
         1 000045   000122 601000 1                  TNZ     s:946

     2785      928    1         OR STRING$ -> B$STRING.TEXT(0) = '-'
     2786      929    1       THEN                               /* In XCHARBIN form                   */
     2787      930    2       DO;

     2788      931    2           CALL SEARCH (WHERE,RESULT,DECIMAL_TABLE,STRING$ ->

    931  1 000046   000100 101500                    MRL     fill='000'O
         1 000047   100000 000001                    ADSC9   0,,PR1                   cn=0,n=1
         1 000050   200010 000002                    ADSC9   RESULT+2,,AUTO           cn=0,n=2
         1 000051   200010 220100                    LDX0    RESULT+2,,AUTO
         1 000052   777777 621010                    EAX1    -1,X0
         1 000053   000000 164540                    TCT
         1 000054   100000 400011                    ADSC9   0,,PR1                   cn=2,n=*X1
PL6.E3A0      #005=X$DEC_CONVERT File=XUE$EVAL.:E05TSI                           WED 07/30/97 09:16 Page:443
         1 000055   000000 000000 0                  ARG     DECIMAL_TABLE
         1 000056   200005 000100                    ARG     WHERE,,AUTO
         1 000057   200005 235100                    LDA     WHERE,,AUTO
         1 000060   000033 771000                    ARL     27
         1 000061   200006 755100                    STA     RESULT,,AUTO
         1 000062   200005 551140                    STBA    WHERE,'40'O,AUTO
         1 000063   200005 054100                    AOS     WHERE,,AUTO

     2789      932    2             X$STRING.TEXT,1);      /* Skip SIGN char                     */
     2790      933    2           IF RESULT ~= 0

    933  1 000064   000000 115003                    CMPA    0,DU
         1 000065   000172 601000 1                  TNZ     E_CONVERT

     2791      934    2           THEN                      /* Non DECIMAL found                  */
     2792      935    2               GOTO E_CONVERT;
     2793      936    2           IF (STRING$ -> X$STRING.SIZ -1) >= LENGTHC(HI_VALUE)

    936  1 000066   000000 471500                    LDP1    0,,PR0
         1 000067   000100 101500                    MRL     fill='000'O
         1 000070   100000 000001                    ADSC9   0,,PR1                   cn=0,n=1
         1 000071   200010 000004                    ADSC9   RESULT+2,,AUTO           cn=0,n=4
         1 000072   200010 236100                    LDQ     RESULT+2,,AUTO
         1 000073   000014 116007                    CMPQ    12,DL
         1 000074   000110 604000 1                  TMI     s:942
         1 000075   000000 471500                    LDP1    0,,PR0
         1 000076   000100 101500                    MRL     fill='000'O
         1 000077   100000 000001                    ADSC9   0,,PR1                   cn=0,n=1
         1 000100   200011 000002                    ADSC9   RESULT+3,,AUTO           cn=0,n=2
         1 000101   200011 220100                    LDX0    RESULT+3,,AUTO
         1 000102   777777 621010                    EAX1    -1,X0
         1 000103   040140 106400                    CMPC    fill='040'O
         1 000104   000200 000013 0                  ADSC9   HI_VALUE                 cn=0,n=11
         1 000105   100000 400011                    ADSC9   0,,PR1                   cn=2,n=*X1
         1 000106   000110 603000 1                  TRC     s:942

     2794      937    2             AND SUBSTR(STRING$ -> X$STRING.TEXT,1) > HI_VALUE
PL6.E3A0      #005=X$DEC_CONVERT File=XUE$EVAL.:E05TSI                           WED 07/30/97 09:16 Page:444
     2795      938    2           THEN                      /* Value too large                    */
     2796      939    3           DO;

     2797      940    3               ALTRETURN;

    940  1 000107   000000 702200 xent               TSX2  ! X66_AALT

     2798      941    3           END;
     2799      942    2           CALL XCHARBIN (VALUE,STRING$->X$STRING.TEXT);

    942  1 000110   000000 471500                    LDP1    0,,PR0
         1 000111   000100 101500                    MRL     fill='000'O
         1 000112   100000 000001                    ADSC9   0,,PR1                   cn=0,n=1
         1 000113   200010 000002                    ADSC9   RESULT+2,,AUTO           cn=0,n=2
         1 000114   200010 220100                    LDX0    RESULT+2,,AUTO
         1 000115   200004 473500                    LDP3    @VALUE,,AUTO
         1 000116   000100 305540                    DTB
         1 000117   100000 210010                    NDSC9   0,,PR1                   cn=1,s=lsgns,sf=0,n=*X0
         1 000120   300000 000004                    NDSC9   0,,PR3                   cn=0,s=lsgnf,sf=0,n=4

     2800      943    2       END;

    943  1 000121   000171 710000 1                  TRA     s:959

     2801      944    1       ELSE                               /* In CHARBIN form                    */
     2802      945    2       DO;

     2803      946    2           CALL SEARCH (WHERE,RESULT,DECIMAL_TABLE,STRING$ ->

    946  1 000122   000100 101500                    MRL     fill='000'O
         1 000123   100000 000001                    ADSC9   0,,PR1                   cn=0,n=1
         1 000124   200010 000002                    ADSC9   RESULT+2,,AUTO           cn=0,n=2
         1 000125   200010 220100                    LDX0    RESULT+2,,AUTO
         1 000126   000000 164540                    TCT
         1 000127   100000 200010                    ADSC9   0,,PR1                   cn=1,n=*X0
         1 000130   000000 000000 0                  ARG     DECIMAL_TABLE
         1 000131   200005 000100                    ARG     WHERE,,AUTO
PL6.E3A0      #005=X$DEC_CONVERT File=XUE$EVAL.:E05TSI                           WED 07/30/97 09:16 Page:445
         1 000132   200005 235100                    LDA     WHERE,,AUTO
         1 000133   000033 771000                    ARL     27
         1 000134   200006 755100                    STA     RESULT,,AUTO
         1 000135   200005 551140                    STBA    WHERE,'40'O,AUTO

     2804      947    2             X$STRING.TEXT,0);      /* No SIGN char                       */
     2805      948    2           IF RESULT ~= 0

    948  1 000136   000172 601000 1                  TNZ     E_CONVERT

     2806      949    2           THEN                      /* Non DECIMAL found                  */
     2807      950    2               GOTO E_CONVERT;
     2808      951    2           IF STRING$ -> X$STRING.SIZ >= LENGTHC(HI_VALUE)

    951  1 000137   000000 471500                    LDP1    0,,PR0
         1 000140   000100 101500                    MRL     fill='000'O
         1 000141   100000 000001                    ADSC9   0,,PR1                   cn=0,n=1
         1 000142   200010 000004                    ADSC9   RESULT+2,,AUTO           cn=0,n=4
         1 000143   200010 236100                    LDQ     RESULT+2,,AUTO
         1 000144   000013 116007                    CMPQ    11,DL
         1 000145   000160 604000 1                  TMI     s:957
         1 000146   000000 471500                    LDP1    0,,PR0
         1 000147   000100 101500                    MRL     fill='000'O
         1 000150   100000 000001                    ADSC9   0,,PR1                   cn=0,n=1
         1 000151   200011 000002                    ADSC9   RESULT+3,,AUTO           cn=0,n=2
         1 000152   200011 220100                    LDX0    RESULT+3,,AUTO
         1 000153   040140 106400                    CMPC    fill='040'O
         1 000154   000200 000013 0                  ADSC9   HI_VALUE                 cn=0,n=11
         1 000155   100000 200010                    ADSC9   0,,PR1                   cn=1,n=*X0
         1 000156   000160 603000 1                  TRC     s:957

     2809      952    2             AND STRING$ -> X$STRING.TEXT > HI_VALUE
     2810      953    2           THEN                      /* Value too large                    */
     2811      954    3           DO;

     2812      955    3               ALTRETURN;

PL6.E3A0      #005=X$DEC_CONVERT File=XUE$EVAL.:E05TSI                           WED 07/30/97 09:16 Page:446
    955  1 000157   000000 702200 xent               TSX2  ! X66_AALT

     2813      956    3           END;
     2814      957    2           CALL CHARBIN (VALUE,STRING$->X$STRING.TEXT);

    957  1 000160   000000 471500                    LDP1    0,,PR0
         1 000161   000100 101500                    MRL     fill='000'O
         1 000162   100000 000001                    ADSC9   0,,PR1                   cn=0,n=1
         1 000163   200010 000002                    ADSC9   RESULT+2,,AUTO           cn=0,n=2
         1 000164   200010 220100                    LDX0    RESULT+2,,AUTO
         1 000165   200004 473500                    LDP3    @VALUE,,AUTO
         1 000166   000100 305540                    DTB
         1 000167   100000 230010                    NDSC9   0,,PR1                   cn=1,s=nosgn,sf=0,n=*X0
         1 000170   300000 000004                    NDSC9   0,,PR3                   cn=0,s=lsgnf,sf=0,n=4

     2815      958    2       END;

     2816      959    1       RETURN;

    959  1 000171   000000 702200 xent               TSX2  ! X66_ARET

     2817      960        /**/
     2818      961    1   E_CONVERT:
     2819      962    1       ALTRETURN;

    962  1 000172   000000 702200 xent  E_CONVERT    TSX2  ! X66_AALT
     2820      963    1   END X$DEC_CONVERT;
     2821      964        %EOD;

PL6.E3A0      #005=X$DEC_CONVERT File=XUE$EVAL.:E05TSI                           WED 07/30/97 09:16 Page:447
--  Include file information  --

   XUE_MACRO_C.:E05TOU  is referenced.
   B_MACROS_C.:E05TOU  is referenced.
      No diagnostics issued in procedure X$DEC_CONVERT.
PL6.E3A0      #005=X$DEC_CONVERT File=XUE$EVAL.:E05TSI                           WED 07/30/97 09:16 Page:448

 **** Variables and constants ****

  ****  Section 000 RoData X$DEC_CONVERT

  ****  Scalars and arrays  ****
OctLoc.c.b A Datatyp(siz) R M Lvl/name                 OctLoc.c.b A Datatyp(siz) R M Lvl/name

     0-0-0/b UBIN(9)     r     1 DECIMAL_TABLE(0:511)
   200-0-0/c CHAR(11)    r     1 HI_VALUE

  ****  Auto variables  ****

  ****  Scalars and arrays  ****
OctLoc.c.b A Datatyp(siz) R M Lvl/name                 OctLoc.c.b A Datatyp(siz) R M Lvl/name

     3-0-0/w PTR         r     1 @STRING$                   4-0-0/w PTR         r     1 @VALUE
     6-0-0/w SBIN        r     1 RESULT                    *0-0-0/w PTR         r     1 STRING$
    *0-0-0/w SBIN        r     1 VALUE                      5-0-0/w SBIN        r     1 WHERE

  ****  BASED and DCB variables  ****

  ****  Scalars and arrays  ****
OctLoc.c.b A Datatyp(siz) R M Lvl/name                 OctLoc.c.b A Datatyp(siz) R M Lvl/name

     0-0-0/c STRC(18)    r     1 B$STRING                   0-0-0/c ASTR(9)     r     1 X$STRING


   Procedure X$DEC_CONVERT requires 123 words for executable code.
   Procedure X$DEC_CONVERT requires 10 words of local(AUTO) storage.
PL6.E3A0      #005=X$DEC_CONVERT File=XUE$EVAL.:E05TSI                           WED 07/30/97 09:16 Page:449
          *** CROSS REFERENCE LISTING ***
**     DENOTES     IDENTIFIER DEFINITION
<<                 IDENTIFIER'S VALUE SET
>>                 IDENTIFIER'S VALUE USED
<>                 IDENTIFIER SET AND/OR USED
--                 IDENTIFIER REFERENCED
PL6.E3A0      #005=X$DEC_CONVERT File=XUE$EVAL.:E05TSI                           WED 07/30/97 09:16 Page:450
          MINI XREF LISTING

B$STRING.TEXT
       896**DCL       918>>IF        918>>IF        927>>IF        927>>IF
DECIMAL_TABLE
       903**DCL       931>>CALLBLT   946>>CALLBLT
E_CONVERT
       962**LABEL     935--GOTO      950--GOTO
HI_VALUE
       906**DCL       936--IF        936>>IF        951--IF        951>>IF
RESULT
       867**DCL       910<<ASSIGN    931<<CALLBLT   933>>IF        946<<CALLBLT   948>>IF
STRING$
       863**DCL         7--PROC      914<>CALL      918>>IF        918>>IF        918>>IF        918>>IF
       927>>IF        927>>IF        931>>CALLBLT   931>>CALLBLT   936>>IF        936>>IF        936>>IF
       942>>CALLBLT   942>>CALLBLT   946>>CALLBLT   946>>CALLBLT   951>>IF        951>>IF        951>>IF
       957>>CALLBLT   957>>CALLBLT
VALUE
       864**DCL         7--PROC      942<<CALLBLT   957<<CALLBLT
WHERE
       866**DCL       931<<CALLBLT   946<<CALLBLT
X$STRING.SIZ
       899**DCL       900--IMP-SIZ   918>>IF        918>>IF        931>>CALLBLT   936>>IF        936>>IF
       942>>CALLBLT   946>>CALLBLT   951>>IF        951>>IF        957>>CALLBLT
X$STRING.TEXT
       900**DCL       931>>CALLBLT   936>>IF        942>>CALLBLT   946>>CALLBLT   951>>IF        957>>CALLBLT
X$STRIP_BLANKS
       881**DCL-ENT   914--CALL

PL6.E3A0      #006=X$PRE_PROCESS File=XUE$EVAL.:E05TSI                           WED 07/30/97 09:16 Page:451
     2822        1        /*T***********************************************************/
     2823        2        /*T*                                                         */
     2824        3        /*T* Copyright (c) Bull HN Information Systems Inc., 1997    */
     2825        4        /*T*                                                         */
     2826        5        /*T***********************************************************/
     2827        6        /*X* DMC,PLM=4,IND=4,CTI=2,DTI=0,ENI=0,ECI=0,CSI=0,MCI,DCI=4 */
     2828        7        X$PRE_PROCESS: PROC (XUE_PPCB) ALTRET;
     2829        8        /**********************************************************************/
     2830        9        /*F*    NAME:        X$PRE_PROCESS
     2831       10                PURPOSE:     To do pre-parse expression processing.
     2832       11                DESCRIPTION: This routine scans for %expressions, evaluates
     2833       12                             them and then sticks the result back into the
     2834       13                             command. It only scans the record once. Thus
     2835       14                             %expressions may not have other %expressions
     2836       15                             imbedded.
     2837       16        */
     2838       17        /**********************************************************************/
     2839       18          %INCLUDE B_MACROS_C;
     2840      129          %INCLUDE CP_6;
     2841     5688          %INCLUDE CP_6_SUBS;
     2842     6228          %INCLUDE XU_MACRO_C;
     2843     9334          %INCLUDE XU_PERR_C;
     2844     9525          %INCLUDE XUE_MACRO_C;
     2845    10269        /***** External routines *****/
     2846    10270          %XUE_ENTRIES (OMIT=X$PRE_PROCESS);
     2847    10294    1   DCL X$PARSE ENTRY(1) ALTRET;
     2848    10295        /***** Parameters *****/
     2849    10296          %XUE_PPCB (NAME=XUE_PPCB,STCLASS=" ");
     2850    10563        /***** Character variables *****/
     2851    10564    1   DCL TEMPBUF CHAR(511) AUTO;
     2852    10565        %VLP_NAME (FPTN=COMMENT_L,LEN=2,STCLASS=AUTO);
     2853    10592        %VLP_NAME (FPTN=COMMENT_R,LEN=2,STCLASS=AUTO);
     2854    10619        /***** Word variables *****/
     2855    10620    1   DCL INDX1 SBIN WORD AUTO;
     2856    10621    1   DCL INDX2 SBIN WORD AUTO;
     2857    10622    1   DCL WHERE SBIN WORD AUTO;
     2858    10623    1   DCL RESULTS SBIN WORD AUTO;
PL6.E3A0      #006=X$PRE_PROCESS File=XUE$EVAL.:E05TSI                           WED 07/30/97 09:16 Page:452
     2859    10624    1   DCL START_INDX SBIN WORD AUTO;
     2860    10625    1   DCL STR_INDX SBIN WORD AUTO;
     2861    10626    1   DCL ERR_INDX SBIN WORD AUTO;
     2862    10627    1   DCL SAVE_WKSZ# UBIN WORD AUTO;
     2863    10628        /***** Ptrs *****/
     2864    10629    1   DCL SAVE_WORK$ PTR AUTO;
     2865    10630        /***** Based structures *****/
     2866    10631          %TEXTC (NAME=X$STRING);
     2867    10636    1   DCL IN$BUF CHAR(XUE_PPCB.ICHARS#) UNAL BASED (XUE_PPCB.INBUF$);
     2868    10637    1   DCL OUT$BUF CHAR(XUE_PPCB.OCHARS#) UNAL BASED (XUE_PPCB.OUTBUF$);
     2869    10638          %PARSE$OUT (NAME=P$B,STCLASS=BASED);
     2870    10683        /***** Bit variables *****/
     2871    10684        /***** Auto Structures *****/
     2872    10685          %P_PCB (NAME=PCB,STCLASS=AUTO);
     2873    10884        /***** Constants *****/
     2874    10885    1   DCL VERIFY_CHARS (0:511) UBIN BYTE UNAL CONSTANT INIT
     2875    10886    1       (1*36,0,0,1,1,0,1*7,0*10,1*7,0*26,1*6,0*26,1*389);
     2876    10887          %P_PCB (NAME = I_PCB,
     2877    10888                  CNTU = NO,                    /* Don't allow continuation           */
     2878    10889                  U$ = XUE$PP_SUCCESS,
     2879    10890                  STCLASS = CONSTANT);
     2880    11089        /***** Error codes *****/
     2881    11090          %VLP_ERRCODE (FPTN=E_TRUNCATE,ERR#=%E$XUE#TRUNCATE,
     2882    11091                        FCG="XU",MID="E",STCLASS=CONSTANT);
     2883    11136          /*E*    ERROR: XUE-E$XUE#TRUNCATE-0
     2884    11137              MESSAGE: The result of preparsing was longer than allowed. Truncation occured.
     2885    11138          */
     2886    11139        %EJECT;
PL6.E3A0      #006=X$PRE_PROCESS File=XUE$EVAL.:E05TSI                           WED 07/30/97 09:16 Page:453
     2887    11140        /*
     2888    11141             ***** Copy IN$BUF into OUT$BUF. OUT$BUF is used for
     2889    11142                   all work. IN$BUF must never be touched (may cause
     2890    11143                   memory fault, etc.). OUT$BUF will be unchanged if no
     2891    11144                   preprocessor expressions were found ...
     2892    11145        */
     2893    11146    1       OUT$BUF = IN$BUF;
     2894    11147    1       XUE_PPCB.RCHARS# = XUE_PPCB.ICHARS#;
     2895    11148    1       START_INDX = 0;
     2896    11149    1       ERR_INDX = 0;
     2897    11150        /*
     2898    11151             ***** Save WORK$ and WKSZ# ...
     2899    11152        */
     2900    11153    1       SAVE_WORK$ = XUE_PPCB.ECB.WORK$;
     2901    11154    1       SAVE_WKSZ# = XUE_PPCB.ECB.WKSZ#;
     2902    11155        /*
     2903    11156             ***** Search for any (%) PREPROCESSOR EXPRESSIONS ...
     2904    11157        */
     2905    11158    1       CALL INDEX (STR_INDX,'%',OUT$BUF,START_INDX) ALTRET(RETURN_TO_USER);
     2906    11159        /*
     2907    11160             ***** Initialize PCB ...
     2908    11161        */
     2909    11162    1       PCB = I_PCB;
     2910    11163    1       PCB.WKSZ = XUE_PPCB.ECB.WKSZ#;
     2911    11164    1       PCB.WORK$ = XUE_PPCB.ECB.WORK$;
     2912    11165    1       PCB.CONTINUE = %NO#;
     2913    11166    1       PCB.ROOT$ = XUE_PPCB.ROOT$;
     2914    11167    1       PCB.COMMENT.LEAD = XUE_PPCB.ECB.LEAD#;
     2915    11168    1       PCB.COMMENT.TRAIL = XUE_PPCB.ECB.TRAIL#;
     2916    11169        /*
     2917    11170             ***** Initialize comment delimiters ...
     2918    11171        */
     2919    11172    1       IF SUBSTR(XUE_PPCB.ECB.LEAD#,0,1) = ' '
     2920    11173    1       THEN
     2921    11174    2       DO;
     2922    11175    2           IF SUBSTR(XUE_PPCB.ECB.LEAD#,1,1) = ' '
     2923    11176    2           THEN
PL6.E3A0      #006=X$PRE_PROCESS File=XUE$EVAL.:E05TSI                           WED 07/30/97 09:16 Page:454
     2924    11177    3           DO;   /* No comment characters supplied */
     2925    11178    3               COMMENT_L.L# = 0;
     2926    11179    3           END;
     2927    11180    2           ELSE   /* One character delimiter */
     2928    11181    3           DO;
     2929    11182    3               COMMENT_L.L# = 1;
     2930    11183    3               COMMENT_L.NAME# = SUBSTR(XUE_PPCB.ECB.LEAD#,1,1);
     2931    11184    3           END;
     2932    11185    2       END;
     2933    11186    1       ELSE /* Two character delimiter */
     2934    11187    2       DO;
     2935    11188    2           COMMENT_L.L# = 2;
     2936    11189    2           COMMENT_L.NAME# = XUE_PPCB.ECB.LEAD#;
     2937    11190    2       END;
     2938    11191    1       IF SUBSTR(XUE_PPCB.ECB.TRAIL#,0,1) = ' '
     2939    11192    1       THEN
     2940    11193    2       DO;
     2941    11194    2           IF SUBSTR(XUE_PPCB.ECB.TRAIL#,1,1) = ' '
     2942    11195    2           THEN
     2943    11196    3           DO;   /* No comment characters supplied */
     2944    11197    3               COMMENT_R.L# = 0;
     2945    11198    3           END;
     2946    11199    2           ELSE   /* One character delimiter */
     2947    11200    3           DO;
     2948    11201    3               COMMENT_R.L# = 1;
     2949    11202    3               COMMENT_R.NAME# = SUBSTR(XUE_PPCB.ECB.TRAIL#,1,1);
     2950    11203    3           END;
     2951    11204    2       END;
     2952    11205    1       ELSE /* Two character delimiter */
     2953    11206    2       DO;
     2954    11207    2           COMMENT_R.L# = 2;
     2955    11208    2           COMMENT_R.NAME# = XUE_PPCB.ECB.TRAIL#;
     2956    11209    2       END;
     2957    11210        /*
     2958    11211             ***** Loop until no more PREPROCESSOR expressions found ...
     2959    11212        */
     2960    11213    2   MAIN_LOOP: DO WHILE (%YES#);
PL6.E3A0      #006=X$PRE_PROCESS File=XUE$EVAL.:E05TSI                           WED 07/30/97 09:16 Page:455
     2961    11214        /*
     2962    11215             ***** If the character following the % is not legal
     2963    11216                   in a %EXPRESSION then ignore it ...
     2964    11217        */
     2965    11218    2           CALL SEARCH (WHERE,RESULTS,VERIFY_CHARS,
     2966    11219    2             SUBSTR(OUT$BUF,STR_INDX+1,1));
     2967    11220    2           IF RESULTS ~= 0
     2968    11221    2           THEN   /* The character is illegal */
     2969    11222    3           DO;
     2970    11223    3               START_INDX = STR_INDX + 1;
     2971    11224    3               GOTO END_LOOP;
     2972    11225    3           END;
     2973    11226        /*
     2974    11227             ***** May be inside a comment
     2975    11228                   If so, then dont process ...
     2976    11229        */
     2977    11230        /*
     2978    11231             ***** If no leading comment delimiter is defined,
     2979    11232                   then no comments are allowed ...
     2980    11233        */
     2981    11234    2           IF COMMENT_L.L# = 0
     2982    11235    2           THEN
     2983    11236    2               GOTO END_COMMENT;
     2984    11237        /*
     2985    11238             ***** Look for matched comment pairs between last
     2986    11239                   preprocessor expression, or beginning of record, and
     2987    11240                   the beginning of this preprocessor expression.
     2988    11241                   Determine if this expression is within a comment ...
     2989    11242        */
     2990    11243    2           INDX1 = 0;
     2991    11244    3           DO WHILE (%YES#);
     2992    11245        /*
     2993    11246             ***** Find the left comment delimiter ...
     2994    11247        */
     2995    11248    3               CALL INDEX (INDX2,SUBSTR(COMMENT_L.NAME#,0,COMMENT_L.L#),
     2996    11249    3                 SUBSTR(OUT$BUF,0,STR_INDX),INDX1) ALTRET(END_COMMENT);
     2997    11250    3               INDX1 = INDX2 + 1; /* Where to look for closing delimiter */
PL6.E3A0      #006=X$PRE_PROCESS File=XUE$EVAL.:E05TSI                           WED 07/30/97 09:16 Page:456
     2998    11251        /*
     2999    11252             ***** Now find the right comment delimeter.
     3000    11253                   If none is found, then ignore the rest
     3001    11254                   of the information on the record ...
     3002    11255        */
     3003    11256    3               CALL INDEX (INDX2,SUBSTR(COMMENT_R.NAME#,0,COMMENT_R.L#),
     3004    11257    3                 SUBSTR(OUT$BUF,0,STR_INDX),INDX1)
     3005    11258    3               WHENALTRETURN
     3006    11259    4               DO;   /* Within quotes. Skip over it */
     3007    11260    4                   CALL INDEX (INDX2,SUBSTR(COMMENT_R.NAME#,0,COMMENT_R.L#),
     3008    11261    4                     OUT$BUF,INDX2) ALTRET(RETURN_TO_USER);
     3009    11262    4                   START_INDX = INDX2 + 1;
     3010    11263    4                   GOTO END_LOOP;
     3011    11264    4               END;
     3012    11265    3               INDX1 = INDX2 + 1; /* Where to look for new left delimiter */
     3013    11266    3           END; /* Do while ... end */
     3014    11267    2   END_COMMENT: ;   /* No left comment delimeter. No comment */
     3015    11268        /*
     3016    11269             ***** If this is two percents side by side then
     3017    11270                   pretend that it is one and start again ...
     3018    11271        */
     3019    11272    2           IF SUBSTR(OUT$BUF,STR_INDX+1,1) = '%'
     3020    11273    2           THEN /* Two percent signs */
     3021    11274    3           DO;
     3022    11275    3               CALL CONCAT(TEMPBUF,SUBSTR(OUT$BUF,0,STR_INDX),
     3023    11276    3                 SUBSTR(OUT$BUF,STR_INDX+1));
     3024    11277    3               XUE_PPCB.RCHARS# = XUE_PPCB.RCHARS# - 1;
     3025    11278    3               OUT$BUF = TEMPBUF;
     3026    11279    3               START_INDX = STR_INDX + 1;  /* Skip over % */
     3027    11280    3               ERR_INDX = ERR_INDX + 1;
     3028    11281    3               GOTO END_LOOP;
     3029    11282    3           END;
     3030    11283        /*
     3031    11284             ***** Evaluate the expression ...
     3032    11285        */
     3033    11286    2           PCB.TEXT$ = PINCRC(XUE_PPCB.OUTBUF$,STR_INDX);
     3034    11287    2           PCB.NCHARS = XUE_PPCB.RCHARS# - STR_INDX;
PL6.E3A0      #006=X$PRE_PROCESS File=XUE$EVAL.:E05TSI                           WED 07/30/97 09:16 Page:457
     3035    11288    2           CALL X$PARSE (PCB) ALTRET(E_PARSE);
     3036    11289        /*
     3037    11290             ***** Setup workarea for X$EVAL ...
     3038    11291        */
     3039    11292    2           XUE_PPCB.ECB.WORK$ = PINCRW(SAVE_WORK$,PCB.WK_USED+1);
     3040    11293    2           XUE_PPCB.ECB.WKSZ# = SAVE_WKSZ# - (PCB.WK_USED+1);
     3041    11294    2           XUE_PPCB.ECB.TREE$ = PCB.OUT$;
     3042    11295    2           CALL X$EVAL (XUE_PPCB.ECB.TREE$) ALTRET(E_PREPARSE);
     3043    11296        /*
     3044    11297             ***** Insert the resultant string into OUT$BUF ...
     3045    11298        */
     3046    11299    2           INDX1 = PCB.OUT$ -> P$B.SUBLK$(PCB.OUT$ -> P$B.NSUBLKS -1) ->
     3047    11300    2             P$B.CPOS + STR_INDX;
     3048    11301    2           IF STR_INDX = 0
     3049    11302    2           THEN   /* %exp at front of buffer */
     3050    11303    2               CALL CONCAT(TEMPBUF,XUE_PPCB.ECB.OUT$ -> X$STRING.TEXT,
     3051    11304    2                 SUBSTR(OUT$BUF,INDX1));
     3052    11305    2           ELSE
     3053    11306    2               CALL CONCAT(TEMPBUF,SUBSTR(OUT$BUF,0,STR_INDX),
     3054    11307    2                 XUE_PPCB.ECB.OUT$->X$STRING.TEXT,
     3055    11308    2                 SUBSTR(OUT$BUF,INDX1));
     3056    11309    2           OUT$BUF = TEMPBUF;
     3057    11310    2           XUE_PPCB.RCHARS# = XUE_PPCB.RCHARS# +
     3058    11311    2             (XUE_PPCB.ECB.OUT$ -> X$STRING.SIZ - (INDX1 - STR_INDX));
     3059    11312    2           ERR_INDX = ERR_INDX -
     3060    11313    2             (XUE_PPCB.ECB.OUT$ -> X$STRING.SIZ - (INDX1 - STR_INDX));
     3061    11314    2           IF XUE_PPCB.RCHARS# > XUE_PPCB.OCHARS#
     3062    11315    2           THEN   /* Truncated */
     3063    11316    3           DO;
     3064    11317                      /*   Show them the error of their ways!!! */
     3065    11318    3               XUE_PPCB.ECB.ERR = E_TRUNCATE;
     3066    11319    3               XUE_PPCB.RCHARS# = XUE_PPCB.OCHARS#;
     3067    11320    3               GOTO E_PREPARSE;
     3068    11321    3           END;
     3069    11322        /*
     3070    11323             ***** Move START_INDX past end of %exp ...
     3071    11324                   That is, do not rescan from front of command.
PL6.E3A0      #006=X$PRE_PROCESS File=XUE$EVAL.:E05TSI                           WED 07/30/97 09:16 Page:458
     3072    11325        */
     3073    11326    2           START_INDX = STR_INDX + XUE_PPCB.ECB.OUT$ -> X$STRING.SIZ;
     3074    11327    2   END_LOOP:
     3075    11328        /*
     3076    11329             ***** Reset WORK$ and WKSZ# ...
     3077    11330        */
     3078    11331    2           XUE_PPCB.ECB.WORK$ = SAVE_WORK$;
     3079    11332    2           XUE_PPCB.ECB.WKSZ# = SAVE_WKSZ#;
     3080    11333        /*
     3081    11334             ***** See if there are any more %expressions ...
     3082    11335        */
     3083    11336    2           IF START_INDX >= XUE_PPCB.RCHARS#
     3084    11337    2           THEN   /* No more chars to look at */
     3085    11338    2               GOTO RETURN_TO_USER;
     3086    11339    2           CALL INDEX (STR_INDX,'%',OUT$BUF,START_INDX) ALTRET(RETURN_TO_USER);
     3087    11340    2       END MAIN_LOOP; /* Do while ... end */
     3088    11341    1   RETURN_TO_USER:   /* Finished pre-parse processing */
     3089    11342    1       RETURN;
     3090    11343        %EJECT;
PL6.E3A0      #006=X$PRE_PROCESS File=XUE$EVAL.:E05TSI                           WED 07/30/97 09:16 Page:459
     3091    11344    2       DO WHILE (%NO#);
     3092    11345    2   E_PREPARSE:
     3093    11346    2           XUE_PPCB.ECB.ERR_POS# = XUE_PPCB.ECB.ERR_POS# + STR_INDX + ERR_INDX;
     3094    11347        /*
     3095    11348             ***** Reset WORK$ and WKSZ# ...
     3096    11349        */
     3097    11350    2           XUE_PPCB.ECB.WORK$ = SAVE_WORK$;
     3098    11351    2           XUE_PPCB.ECB.WKSZ# = SAVE_WKSZ#;
     3099    11352    2       END;
     3100    11353    2       DO WHILE (%NO#);
     3101    11354    2   E_PARSE:
     3102    11355    2           XUE_PPCB.ECB.ERR = PCB.ERROR;
     3103    11356    2           XUE_PPCB.ECB.ERR_POS# = PCB.HI_CHAR + STR_INDX + ERR_INDX;
     3104    11357    2       END;
     3105    11358        /*
     3106    11359             ***** Restore WORK$ and WKSZ# ...
     3107    11360        */
     3108    11361    1       ALTRETURN;
     3109    11362    1   END X$PRE_PROCESS;
     3110    11363        %EOD;

PL6.E3A0      #006=X$PRE_PROCESS File=XUE$EVAL.:E05TSI                           WED 07/30/97 09:16 Page:460
--  Include file information  --

   XUE_MACRO_C.:E05TOU  is referenced.
   XU_PERR_C.:E05TOU  is referenced.
   XU_MACRO_C.:E05TOU  is referenced.
   CP_6_SUBS.:E05TOU  is referenced.
   CP_6_C.:E05TOU  is referenced.
   CP_6.:E05TOU  cannot be made into a system file and is referenced.
   B_MACROS_C.:E05TOU  is referenced.
      No diagnostics issued in procedure X$PRE_PROCESS.

   Procedure X$PRE_PROCESS requires 425 words for executable code.
   Procedure X$PRE_PROCESS requires 162 words of local(AUTO) storage.

PL6.E3A0      #006=X$PRE_PROCESS File=XUE$EVAL.:E05TSI                           WED 07/30/97 09:16 Page:461

 Object Unit name= X$PRE_PROCESS                              File name= XUE$EVAL.:E05TOU
 UTS= JUL 30 '97 09:16:26.36 WED                              Compiler= PL-6/E31         Sev=      00
 SharedLib= :SHARED_SYSTEM                                    Alt SharedLib=


    ****  Control sections  ****

 Sect   Type Bound  Init  Size OctSiz  Section name(segment info)
    0   DCB   even  none     0      0  M$UC
    1  RoData even  UTS    143    217  X$PRE_PROCESS
    2   Proc  even  none   425    651  X$PRE_PROCESS
    3  RoData even  none     3      3  X$PRE_PROCESS

    ****  Entry defs  ****

                              Check   Calling
                             calling  sequence
  Sect OctLoc Primary Altret sequence   type   Parms  Name
     2      0   yes    yes     yes      Std        1  X$PRE_PROCESS

  ****  Entry refs  ****

         Check        Calling
        calling       sequence
Altret sequence SRef   type   Args  Name
         yes           Std       1 XUE$PP_SUCCESS
 yes     yes           Std       1 X$EVAL
 yes     yes           Std       1 X$PARSE
                       nStd      0 X66_AUTO_1
                       nStd      0 X66_INDEX
                       Std       0 B_CONSPOOL_D
                       nStd      0 X66_ARET
                       nStd      0 X66_AALT
PL6.E3A0      #006=X$PRE_PROCESS File=XUE$EVAL.:E05TSI                           WED 07/30/97 09:16 Page:462

  ****  Data refs  ****

  Flags:  r = read only, s = secondary
Flgs Name                             Flgs Name                             Flgs Name
     M$UC                                  B_VECTNIL

  ****  Segment refs  ****

  Flags:  r = read only, s = secondary
Flgs Name                             Flgs Name                             Flgs Name
     NULLSID
PL6.E3A0      #006=X$PRE_PROCESS File=XUE$EVAL.:E05TSI                           WED 07/30/97 09:16 Page:463


     2822        1        /*T***********************************************************/
     2823        2        /*T*                                                         */
     2824        3        /*T* Copyright (c) Bull HN Information Systems Inc., 1997    */
     2825        4        /*T*                                                         */
     2826        5        /*T***********************************************************/
     2827        6        /*X* DMC,PLM=4,IND=4,CTI=2,DTI=0,ENI=0,ECI=0,CSI=0,MCI,DCI=4 */
     2828        7        X$PRE_PROCESS: PROC (XUE_PPCB) ALTRET;

      7  2 000000   000000 700200 xent  X$PRE_PROCE* TSX0  ! X66_AUTO_1
         2 000001   000242 000001                    ZERO    162,1

     2829        8        /**********************************************************************/
     2830        9        /*F*    NAME:        X$PRE_PROCESS
     2831       10                PURPOSE:     To do pre-parse expression processing.
     2832       11                DESCRIPTION: This routine scans for %expressions, evaluates
     2833       12                             them and then sticks the result back into the
     2834       13                             command. It only scans the record once. Thus
     2835       14                             %expressions may not have other %expressions
     2836       15                             imbedded.
     2837       16        */
     2838       17        /**********************************************************************/
     2839       18          %INCLUDE B_MACROS_C;
     2840      129          %INCLUDE CP_6;
     2841     5688          %INCLUDE CP_6_SUBS;
     2842     6228          %INCLUDE XU_MACRO_C;
     2843     9334          %INCLUDE XU_PERR_C;
     2844     9525          %INCLUDE XUE_MACRO_C;
     2845    10269        /***** External routines *****/
     2846    10270          %XUE_ENTRIES (OMIT=X$PRE_PROCESS);
     2847    10294    1   DCL X$PARSE ENTRY(1) ALTRET;
     2848    10295        /***** Parameters *****/
     2849    10296          %XUE_PPCB (NAME=XUE_PPCB,STCLASS=" ");
     2850    10563        /***** Character variables *****/
     2851    10564    1   DCL TEMPBUF CHAR(511) AUTO;
     2852    10565        %VLP_NAME (FPTN=COMMENT_L,LEN=2,STCLASS=AUTO);
     2853    10592        %VLP_NAME (FPTN=COMMENT_R,LEN=2,STCLASS=AUTO);
PL6.E3A0      #006=X$PRE_PROCESS File=XUE$EVAL.:E05TSI                           WED 07/30/97 09:16 Page:464
     2854    10619        /***** Word variables *****/
     2855    10620    1   DCL INDX1 SBIN WORD AUTO;
     2856    10621    1   DCL INDX2 SBIN WORD AUTO;
     2857    10622    1   DCL WHERE SBIN WORD AUTO;
     2858    10623    1   DCL RESULTS SBIN WORD AUTO;
     2859    10624    1   DCL START_INDX SBIN WORD AUTO;
     2860    10625    1   DCL STR_INDX SBIN WORD AUTO;
     2861    10626    1   DCL ERR_INDX SBIN WORD AUTO;
     2862    10627    1   DCL SAVE_WKSZ# UBIN WORD AUTO;
     2863    10628        /***** Ptrs *****/
     2864    10629    1   DCL SAVE_WORK$ PTR AUTO;
     2865    10630        /***** Based structures *****/
     2866    10631          %TEXTC (NAME=X$STRING);
     2867    10636    1   DCL IN$BUF CHAR(XUE_PPCB.ICHARS#) UNAL BASED (XUE_PPCB.INBUF$);
     2868    10637    1   DCL OUT$BUF CHAR(XUE_PPCB.OCHARS#) UNAL BASED (XUE_PPCB.OUTBUF$);
     2869    10638          %PARSE$OUT (NAME=P$B,STCLASS=BASED);
     2870    10683        /***** Bit variables *****/
     2871    10684        /***** Auto Structures *****/
     2872    10685          %P_PCB (NAME=PCB,STCLASS=AUTO);
     2873    10884        /***** Constants *****/
     2874    10885    1   DCL VERIFY_CHARS (0:511) UBIN BYTE UNAL CONSTANT INIT
     2875    10886    1       (1*36,0,0,1,1,0,1*7,0*10,1*7,0*26,1*6,0*26,1*389);
     2876    10887          %P_PCB (NAME = I_PCB,
     2877    10888                  CNTU = NO,                    /* Don't allow continuation           */
     2878    10889                  U$ = XUE$PP_SUCCESS,
     2879    10890                  STCLASS = CONSTANT);
     2880    11089        /***** Error codes *****/
     2881    11090          %VLP_ERRCODE (FPTN=E_TRUNCATE,ERR#=%E$XUE#TRUNCATE,
     2882    11091                        FCG="XU",MID="E",STCLASS=CONSTANT);
     2883    11136          /*E*    ERROR: XUE-E$XUE#TRUNCATE-0
     2884    11137             MESSAGE: The result of preparsing was longer than allowed. Truncation occured.
     2885    11138          */
     2886    11139        %EJECT;
PL6.E3A0      #006=X$PRE_PROCESS File=XUE$EVAL.:E05TSI                           WED 07/30/97 09:16 Page:465
     2887    11140        /*
     2888    11141             ***** Copy IN$BUF into OUT$BUF. OUT$BUF is used for
     2889    11142                   all work. IN$BUF must never be touched (may cause
     2890    11143                   memory fault, etc.). OUT$BUF will be unchanged if no
     2891    11144                   preprocessor expressions were found ...
     2892    11145        */
     2893    11146    1       OUT$BUF = IN$BUF;

  11146  2 000002   200003 470500                    LDP0    @XUE_PPCB,,AUTO
         2 000003   000002 471500                    LDP1    2,,PR0
         2 000004   000003 720100                    LXL0    3,,PR0
         2 000005   000000 473500                    LDP3    0,,PR0
         2 000006   000001 721100                    LXL1    1,,PR0
         2 000007   040140 100540                    MLR     fill='040'O
         2 000010   300000 000011                    ADSC9   0,,PR3                   cn=0,n=*X1
         2 000011   100000 000010                    ADSC9   0,,PR1                   cn=0,n=*X0

     2894    11147    1       XUE_PPCB.RCHARS# = XUE_PPCB.ICHARS#;

  11147  2 000012   000001 235100                    LDA     1,,PR0
         2 000013   000004 755100                    STA     4,,PR0

     2895    11148    1       START_INDX = 0;

  11148  2 000014   200212 450100                    STZ     START_INDX,,AUTO

     2896    11149    1       ERR_INDX = 0;

  11149  2 000015   200214 450100                    STZ     ERR_INDX,,AUTO

     2897    11150        /*
     2898    11151             ***** Save WORK$ and WKSZ# ...
     2899    11152        */
     2900    11153    1       SAVE_WORK$ = XUE_PPCB.ECB.WORK$;

  11153  2 000016   000007 236100                    LDQ     7,,PR0
         2 000017   200216 756100                    STQ     SAVE_WORK$,,AUTO
PL6.E3A0      #006=X$PRE_PROCESS File=XUE$EVAL.:E05TSI                           WED 07/30/97 09:16 Page:466

     2901    11154    1       SAVE_WKSZ# = XUE_PPCB.ECB.WKSZ#;

  11154  2 000020   000010 235100                    LDA     8,,PR0
         2 000021   200215 755100                    STA     SAVE_WKSZ#,,AUTO

     2902    11155        /*
     2903    11156             ***** Search for any (%) PREPROCESSOR EXPRESSIONS ...
     2904    11157        */
     2905    11158    1       CALL INDEX (STR_INDX,'%',OUT$BUF,START_INDX) ALTRET(RETURN_TO_USER);

  11158  2 000022   000002 471500                    LDP1    2,,PR0
         2 000023   000003 720100                    LXL0    3,,PR0
         2 000024   000000 636010                    EAQ     0,X0
         2 000025   000022 772000                    QRL     18
         2 000026   200212 136100                    SBLQ    START_INDX,,AUTO
         2 000027   200236 756100                    STQ     PCB+15,,AUTO
         2 000030   200212 236100                    LDQ     START_INDX,,AUTO
         2 000031   200236 720100                    LXL0    PCB+15,,AUTO
         2 000032   200212 235100                    LDA     START_INDX,,AUTO
         2 000033   000000 124545                    SCM     mask='000'O
         2 000034   100000 000010                    ADSC9   0,A,PR1                  cn=0,n=*X0
         2 000035   000000 000001 3                  ADSC9   0                        cn=0,n=1
         2 000036   200213 000100                    ARG     STR_INDX,,AUTO
         2 000037   200213 056100                    ASQ     STR_INDX,,AUTO
         2 000040   000623 606400 2                  TTN     RETURN_TO_USER

     2906    11159        /*
     2907    11160             ***** Initialize PCB ...
     2908    11161        */
     2909    11162    1       PCB = I_PCB;

  11162  2 000041   000100 100400                    MLR     fill='000'O
         2 000042   000200 000070 1                  ADSC9   I_PCB                    cn=0,n=56
         2 000043   200217 000070                    ADSC9   PCB,,AUTO                cn=0,n=56

     2910    11163    1       PCB.WKSZ = XUE_PPCB.ECB.WKSZ#;
PL6.E3A0      #006=X$PRE_PROCESS File=XUE$EVAL.:E05TSI                           WED 07/30/97 09:16 Page:467

  11163  2 000044   000010 720100                    LXL0    8,,PR0
         2 000045   200224 740100                    STX0    PCB+5,,AUTO

     2911    11164    1       PCB.WORK$ = XUE_PPCB.ECB.WORK$;

  11164  2 000046   000007 236100                    LDQ     7,,PR0
         2 000047   200221 756100                    STQ     PCB+2,,AUTO

     2912    11165    1       PCB.CONTINUE = %NO#;

  11165  2 000050   000001 236000 3                  LDQ     1
         2 000051   200224 356100                    ANSQ    PCB+5,,AUTO

     2913    11166    1       PCB.ROOT$ = XUE_PPCB.ROOT$;

  11166  2 000052   000005 236100                    LDQ     5,,PR0
         2 000053   200220 756100                    STQ     PCB+1,,AUTO

     2914    11167    1       PCB.COMMENT.LEAD = XUE_PPCB.ECB.LEAD#;

  11167  2 000054   000027 221100                    LDX1    23,,PR0
         2 000055   200226 741100                    STX1    PCB+7,,AUTO

     2915    11168    1       PCB.COMMENT.TRAIL = XUE_PPCB.ECB.TRAIL#;

  11168  2 000056   000027 722100                    LXL2    23,,PR0
         2 000057   200226 442100                    SXL2    PCB+7,,AUTO

     2916    11169        /*
     2917    11170             ***** Initialize comment delimiters ...
     2918    11171        */
     2919    11172    1       IF SUBSTR(XUE_PPCB.ECB.LEAD#,0,1) = ' '

  11172  2 000060   000027 236100                    LDQ     23,,PR0
         2 000061   777000 376003                    ANQ     -512,DU
         2 000062   040000 116003                    CMPQ    16384,DU
PL6.E3A0      #006=X$PRE_PROCESS File=XUE$EVAL.:E05TSI                           WED 07/30/97 09:16 Page:468
         2 000063   000104 601000 2                  TNZ     s:11188

     2920    11173    1       THEN
     2921    11174    2       DO;

     2922    11175    2           IF SUBSTR(XUE_PPCB.ECB.LEAD#,1,1) = ' '

  11175  2 000064   000027 236100                    LDQ     23,,PR0
         2 000065   000777 376003                    ANQ     511,DU
         2 000066   000040 116003                    CMPQ    32,DU
         2 000067   000073 601000 2                  TNZ     s:11182

     2923    11176    2           THEN
     2924    11177    3           DO;   /* No comment characters supplied */

     2925    11178    3               COMMENT_L.L# = 0;

  11178  2 000070   000000 236003                    LDQ     0,DU
         2 000071   200204 552140                    STBQ    COMMENT_L,'40'O,AUTO

     2926    11179    3           END;

  11179  2 000072   000111 710000 2                  TRA     s:11191

     2927    11180    2           ELSE   /* One character delimiter */
     2928    11181    3           DO;

     2929    11182    3               COMMENT_L.L# = 1;

  11182  2 000073   001000 236003                    LDQ     512,DU
         2 000074   200204 552140                    STBQ    COMMENT_L,'40'O,AUTO

     2930    11183    3               COMMENT_L.NAME# = SUBSTR(XUE_PPCB.ECB.LEAD#,1,1);

  11183  2 000075   000027 236100                    LDQ     23,,PR0
         2 000076   000011 736000                    QLS     9
         2 000077   777000 376003                    ANQ     -512,DU
PL6.E3A0      #006=X$PRE_PROCESS File=XUE$EVAL.:E05TSI                           WED 07/30/97 09:16 Page:469
         2 000100   000002 276000 3                  ORQ     2
         2 000101   000011 772000                    QRL     9
         2 000102   200204 552130                    STBQ    COMMENT_L,'30'O,AUTO

     2931    11184    3           END;

     2932    11185    2       END;

  11185  2 000103   000111 710000 2                  TRA     s:11191

     2933    11186    1       ELSE /* Two character delimiter */
     2934    11187    2       DO;

     2935    11188    2           COMMENT_L.L# = 2;

  11188  2 000104   002000 236003                    LDQ     1024,DU
         2 000105   200204 552140                    STBQ    COMMENT_L,'40'O,AUTO

     2936    11189    2           COMMENT_L.NAME# = XUE_PPCB.ECB.LEAD#;

  11189  2 000106   000027 236100                    LDQ     23,,PR0
         2 000107   000011 772000                    QRL     9
         2 000110   200204 552130                    STBQ    COMMENT_L,'30'O,AUTO

     2937    11190    2       END;

     2938    11191    1       IF SUBSTR(XUE_PPCB.ECB.TRAIL#,0,1) = ' '

  11191  2 000111   000027 236100                    LDQ     23,,PR0
         2 000112   777000 376007                    ANQ     -512,DL
         2 000113   040000 116007                    CMPQ    16384,DL
         2 000114   000134 601000 2                  TNZ     s:11207

     2939    11192    1       THEN
     2940    11193    2       DO;

     2941    11194    2           IF SUBSTR(XUE_PPCB.ECB.TRAIL#,1,1) = ' '
PL6.E3A0      #006=X$PRE_PROCESS File=XUE$EVAL.:E05TSI                           WED 07/30/97 09:16 Page:470

  11194  2 000115   000027 236100                    LDQ     23,,PR0
         2 000116   000777 376007                    ANQ     511,DL
         2 000117   000040 116007                    CMPQ    32,DL
         2 000120   000124 601000 2                  TNZ     s:11201

     2942    11195    2           THEN
     2943    11196    3           DO;   /* No comment characters supplied */

     2944    11197    3               COMMENT_R.L# = 0;

  11197  2 000121   000000 236003                    LDQ     0,DU
         2 000122   200205 552140                    STBQ    COMMENT_R,'40'O,AUTO

     2945    11198    3           END;

  11198  2 000123   000141 710000 2                  TRA     MAIN_LOOP

     2946    11199    2           ELSE   /* One character delimiter */
     2947    11200    3           DO;

     2948    11201    3               COMMENT_R.L# = 1;

  11201  2 000124   001000 236003                    LDQ     512,DU
         2 000125   200205 552140                    STBQ    COMMENT_R,'40'O,AUTO

     2949    11202    3               COMMENT_R.NAME# = SUBSTR(XUE_PPCB.ECB.TRAIL#,1,1);

  11202  2 000126   000027 236100                    LDQ     23,,PR0
         2 000127   000033 736000                    QLS     27
         2 000130   000002 276000 3                  ORQ     2
         2 000131   000011 772000                    QRL     9
         2 000132   200205 552130                    STBQ    COMMENT_R,'30'O,AUTO

     2950    11203    3           END;

     2951    11204    2       END;
PL6.E3A0      #006=X$PRE_PROCESS File=XUE$EVAL.:E05TSI                           WED 07/30/97 09:16 Page:471

  11204  2 000133   000141 710000 2                  TRA     MAIN_LOOP

     2952    11205    1       ELSE /* Two character delimiter */
     2953    11206    2       DO;

     2954    11207    2           COMMENT_R.L# = 2;

  11207  2 000134   002000 236003                    LDQ     1024,DU
         2 000135   200205 552140                    STBQ    COMMENT_R,'40'O,AUTO

     2955    11208    2           COMMENT_R.NAME# = XUE_PPCB.ECB.TRAIL#;

  11208  2 000136   000027 236100                    LDQ     23,,PR0
         2 000137   000011 736000                    QLS     9
         2 000140   200205 552130                    STBQ    COMMENT_R,'30'O,AUTO

     2956    11209    2       END;

     2957    11210        /*
     2958    11211             ***** Loop until no more PREPROCESSOR expressions found ...
     2959    11212        */
     2960    11213    2   MAIN_LOOP: DO WHILE (%YES#);

  11213  2 000141                       MAIN_LOOP    null
     2961    11214        /*
     2962    11215             ***** If the character following the % is not legal
     2963    11216                   in a %EXPRESSION then ignore it ...
     2964    11217        */
     2965    11218    2           CALL SEARCH (WHERE,RESULTS,VERIFY_CHARS,

  11218  2 000141   200003 470500                    LDP0    @XUE_PPCB,,AUTO
         2 000142   000002 471500                    LDP1    2,,PR0
         2 000143   000003 720100                    LXL0    3,,PR0
         2 000144   200213 235100                    LDA     STR_INDX,,AUTO
         2 000145   000000 164505                    TCT
         2 000146   100000 200001                    ADSC9   0,A,PR1                  cn=1,n=1
PL6.E3A0      #006=X$PRE_PROCESS File=XUE$EVAL.:E05TSI                           WED 07/30/97 09:16 Page:472
         2 000147   000000 000000 1                  ARG     VERIFY_CHARS
         2 000150   200210 000100                    ARG     WHERE,,AUTO
         2 000151   200210 236100                    LDQ     WHERE,,AUTO
         2 000152   000044 737000                    LLS     36
         2 000153   000033 771000                    ARL     27
         2 000154   200211 755100                    STA     RESULTS,,AUTO
         2 000155   200210 551140                    STBA    WHERE,'40'O,AUTO

     2966    11219    2             SUBSTR(OUT$BUF,STR_INDX+1,1));
     2967    11220    2           IF RESULTS ~= 0

  11220  2 000156   000163 600000 2                  TZE     s:11234

     2968    11221    2           THEN   /* The character is illegal */
     2969    11222    3           DO;

     2970    11223    3               START_INDX = STR_INDX + 1;

  11223  2 000157   200213 236100                    LDQ     STR_INDX,,AUTO
         2 000160   000001 036007                    ADLQ    1,DL
         2 000161   200212 756100                    STQ     START_INDX,,AUTO

     2971    11224    3               GOTO END_LOOP;

  11224  2 000162   000572 710000 2                  TRA     END_LOOP

     2972    11225    3           END;
     2973    11226        /*
     2974    11227             ***** May be inside a comment
     2975    11228                   If so, then dont process ...
     2976    11229        */
     2977    11230        /*
     2978    11231             ***** If no leading comment delimiter is defined,
     2979    11232                   then no comments are allowed ...
     2980    11233        */
     2981    11234    2           IF COMMENT_L.L# = 0

PL6.E3A0      #006=X$PRE_PROCESS File=XUE$EVAL.:E05TSI                           WED 07/30/97 09:16 Page:473
  11234  2 000163   200204 236100                    LDQ     COMMENT_L,,AUTO
         2 000164   777000 316003                    CANQ    -512,DU
         2 000165   000261 600000 2                  TZE     END_COMMENT

     2982    11235    2           THEN
     2983    11236    2               GOTO END_COMMENT;
     2984    11237        /*
     2985    11238             ***** Look for matched comment pairs between last
     2986    11239                   preprocessor expression, or beginning of record, and
     2987    11240                   the beginning of this preprocessor expression.
     2988    11241                   Determine if this expression is within a comment ...
     2989    11242        */
     2990    11243    2           INDX1 = 0;

  11243  2 000166   200206 450100                    STZ     INDX1,,AUTO

     2991    11244    3           DO WHILE (%YES#);

     2992    11245        /*
     2993    11246             ***** Find the left comment delimiter ...
     2994    11247        */
     2995    11248    3               CALL INDEX (INDX2,SUBSTR(COMMENT_L.NAME#,0,COMMENT_L.L#),

  11248  2 000167   200204 236100                    LDQ     COMMENT_L,,AUTO
         2 000170   000033 772000                    QRL     27
         2 000171   200003 470500                    LDP0    @XUE_PPCB,,AUTO
         2 000172   000002 471500                    LDP1    2,,PR0
         2 000173   000003 720100                    LXL0    3,,PR0
         2 000174   200236 451500                    STP1    PCB+15,,AUTO
         2 000175   200207 631500                    EPPR1   INDX2,,AUTO
         2 000176   200204 633500                    EPPR3   COMMENT_L,,AUTO
         2 000177   000001 220003                    LDX0    1,DU
         2 000200   300000 500510                    A9BD    0,X0,PR3
         2 000201   000000 623006                    EAX3    0,QL
         2 000202   200236 470500                    LDP0    PCB+15,,AUTO
         2 000203   200213 720100                    LXL0    STR_INDX,,AUTO
         2 000204   200206 236100                    LDQ     INDX1,,AUTO
PL6.E3A0      #006=X$PRE_PROCESS File=XUE$EVAL.:E05TSI                           WED 07/30/97 09:16 Page:474
         2 000205   000000 701000 xent               TSX1    X66_INDEX
         2 000206   000261 710000 2                  TRA     END_COMMENT

     2996    11249    3                 SUBSTR(OUT$BUF,0,STR_INDX),INDX1) ALTRET(END_COMMENT);
     2997    11250    3               INDX1 = INDX2 + 1; /* Where to look for closing delimiter */

  11250  2 000207   200207 235100                    LDA     INDX2,,AUTO
         2 000210   000001 035007                    ADLA    1,DL
         2 000211   200206 755100                    STA     INDX1,,AUTO

     2998    11251        /*
     2999    11252             ***** Now find the right comment delimeter.
     3000    11253                   If none is found, then ignore the rest
     3001    11254                   of the information on the record ...
     3002    11255        */
     3003    11256    3               CALL INDEX (INDX2,SUBSTR(COMMENT_R.NAME#,0,COMMENT_R.L#),

  11256  2 000212   200205 236100                    LDQ     COMMENT_R,,AUTO
         2 000213   000033 772000                    QRL     27
         2 000214   200003 470500                    LDP0    @XUE_PPCB,,AUTO
         2 000215   000002 471500                    LDP1    2,,PR0
         2 000216   000003 721100                    LXL1    3,,PR0
         2 000217   200236 451500                    STP1    PCB+15,,AUTO
         2 000220   200207 631500                    EPPR1   INDX2,,AUTO
         2 000221   200205 633500                    EPPR3   COMMENT_R,,AUTO
         2 000222   000001 221003                    LDX1    1,DU
         2 000223   300000 500511                    A9BD    0,X1,PR3
         2 000224   000000 623006                    EAX3    0,QL
         2 000225   200236 470500                    LDP0    PCB+15,,AUTO
         2 000226   200206 236100                    LDQ     INDX1,,AUTO
         2 000227   000000 701000 xent               TSX1    X66_INDEX
         2 000230   000232 710000 2                  TRA     s:11260
         2 000231   000255 710000 2                  TRA     s:11265

     3004    11257    3                 SUBSTR(OUT$BUF,0,STR_INDX),INDX1)
     3005    11258    3               WHENALTRETURN
     3006    11259    4               DO;   /* Within quotes. Skip over it */
PL6.E3A0      #006=X$PRE_PROCESS File=XUE$EVAL.:E05TSI                           WED 07/30/97 09:16 Page:475

     3007    11260    4                   CALL INDEX (INDX2,SUBSTR(COMMENT_R.NAME#,0,COMMENT_R.L#),

  11260  2 000232   200205 236100                    LDQ     COMMENT_R,,AUTO
         2 000233   000033 772000                    QRL     27
         2 000234   200003 470500                    LDP0    @XUE_PPCB,,AUTO
         2 000235   000002 471500                    LDP1    2,,PR0
         2 000236   000003 720100                    LXL0    3,,PR0
         2 000237   200236 451500                    STP1    PCB+15,,AUTO
         2 000240   200207 631500                    EPPR1   INDX2,,AUTO
         2 000241   200205 633500                    EPPR3   COMMENT_R,,AUTO
         2 000242   000001 221003                    LDX1    1,DU
         2 000243   300000 500511                    A9BD    0,X1,PR3
         2 000244   000000 623006                    EAX3    0,QL
         2 000245   200236 470500                    LDP0    PCB+15,,AUTO
         2 000246   200207 236100                    LDQ     INDX2,,AUTO
         2 000247   000000 701000 xent               TSX1    X66_INDEX
         2 000250   000623 710000 2                  TRA     RETURN_TO_USER

     3008    11261    4                     OUT$BUF,INDX2) ALTRET(RETURN_TO_USER);
     3009    11262    4                   START_INDX = INDX2 + 1;

  11262  2 000251   200207 235100                    LDA     INDX2,,AUTO
         2 000252   000001 035007                    ADLA    1,DL
         2 000253   200212 755100                    STA     START_INDX,,AUTO

     3010    11263    4                   GOTO END_LOOP;

  11263  2 000254   000572 710000 2                  TRA     END_LOOP

     3011    11264    4               END;
     3012    11265    3               INDX1 = INDX2 + 1; /* Where to look for new left delimiter */

  11265  2 000255   200207 235100                    LDA     INDX2,,AUTO
         2 000256   000001 035007                    ADLA    1,DL
         2 000257   200206 755100                    STA     INDX1,,AUTO

PL6.E3A0      #006=X$PRE_PROCESS File=XUE$EVAL.:E05TSI                           WED 07/30/97 09:16 Page:476
     3013    11266    3           END; /* Do while ... end */

  11266  2 000260   000167 710000 2                  TRA     s:11248

  11262  2 000261                       END_COMMENT  null
     3014    11267    2   END_COMMENT: ;   /* No left comment delimeter. No comment */
     3015    11268        /*
     3016    11269             ***** If this is two percents side by side then
     3017    11270                   pretend that it is one and start again ...
     3018    11271        */
     3019    11272    2           IF SUBSTR(OUT$BUF,STR_INDX+1,1) = '%'

  11272  2 000261   200003 470500                    LDP0    @XUE_PPCB,,AUTO
         2 000262   000002 471500                    LDP1    2,,PR0
         2 000263   000003 720100                    LXL0    3,,PR0
         2 000264   200213 235100                    LDA     STR_INDX,,AUTO
         2 000265   040000 106505                    CMPC    fill='040'O
         2 000266   100000 200001                    ADSC9   0,A,PR1                  cn=1,n=1
         2 000267   000000 000001 3                  ADSC9   0                        cn=0,n=1
         2 000270   000327 601000 2                  TNZ     s:11286

     3020    11273    2           THEN /* Two percent signs */
     3021    11274    3           DO;

     3022    11275    3               CALL CONCAT(TEMPBUF,SUBSTR(OUT$BUF,0,STR_INDX),

  11275  2 000271   000000 636010                    EAQ     0,X0
         2 000272   000022 772000                    QRL     18
         2 000273   200213 136100                    SBLQ    STR_INDX,,AUTO
         2 000274   000000 621005                    EAX1    0,AL
         2 000275   040100 100540                    MLR     fill='040'O
         2 000276   100000 000011                    ADSC9   0,,PR1                   cn=0,n=*X1
         2 000277   200004 000777                    ADSC9   TEMPBUF,,AUTO            cn=0,n=511
         2 000300   200236 756100                    STQ     PCB+15,,AUTO
         2 000301   200213 236100                    LDQ     STR_INDX,,AUTO
         2 000302   000777 116007                    CMPQ    511,DL
         2 000303   000313 605000 2                  TPL     s:11277
PL6.E3A0      #006=X$PRE_PROCESS File=XUE$EVAL.:E05TSI                           WED 07/30/97 09:16 Page:477
         2 000304   200236 720100                    LXL0    PCB+15,,AUTO
         2 000305   777777 621010                    EAX1    -1,X0
         2 000306   777000 622006                    EAX2    -512,QL
         2 000307   777777 662003                    ERX2    -1,DU
         2 000310   040146 100546                    MLR     fill='040'O
         2 000311   100000 200011                    ADSC9   0,Q,PR1                  cn=1,n=*X1
         2 000312   200004 000012                    ADSC9   TEMPBUF,Q,AUTO           cn=0,n=*X2

     3023    11276    3                 SUBSTR(OUT$BUF,STR_INDX+1));
     3024    11277    3               XUE_PPCB.RCHARS# = XUE_PPCB.RCHARS# - 1;

  11277  2 000313   000004 235100                    LDA     4,,PR0
         2 000314   000001 135007                    SBLA    1,DL
         2 000315   000004 755100                    STA     4,,PR0

     3025    11278    3               OUT$BUF = TEMPBUF;

  11278  2 000316   000002 471500                    LDP1    2,,PR0
         2 000317   000003 720100                    LXL0    3,,PR0
         2 000320   040140 100500                    MLR     fill='040'O
         2 000321   200004 000777                    ADSC9   TEMPBUF,,AUTO            cn=0,n=511
         2 000322   100000 000010                    ADSC9   0,,PR1                   cn=0,n=*X0

     3026    11279    3               START_INDX = STR_INDX + 1;  /* Skip over % */

  11279  2 000323   000001 036007                    ADLQ    1,DL
         2 000324   200212 756100                    STQ     START_INDX,,AUTO

     3027    11280    3               ERR_INDX = ERR_INDX + 1;

  11280  2 000325   200214 054100                    AOS     ERR_INDX,,AUTO

     3028    11281    3               GOTO END_LOOP;

  11281  2 000326   000572 710000 2                  TRA     END_LOOP

     3029    11282    3           END;
PL6.E3A0      #006=X$PRE_PROCESS File=XUE$EVAL.:E05TSI                           WED 07/30/97 09:16 Page:478
     3030    11283        /*
     3031    11284             ***** Evaluate the expression ...
     3032    11285        */
     3033    11286    2           PCB.TEXT$ = PINCRC(XUE_PPCB.OUTBUF$,STR_INDX);

  11286  2 000327   200213 236100                    LDQ     STR_INDX,,AUTO
         2 000330   000011 402007                    MPY     9,DL
         2 000331   000000 116003                    CMPQ    0,DU
         2 000332   000334 605000 2                  TPL     s:11286+5
         2 000333   000044 036003                    ADLQ    36,DU
         2 000334   100000 503506                    ABD     0,QL,PR1
         2 000335   200217 451500                    STP1    PCB,,AUTO

     3034    11287    2           PCB.NCHARS = XUE_PPCB.RCHARS# - STR_INDX;

  11287  2 000336   000004 236100                    LDQ     4,,PR0
         2 000337   200213 136100                    SBLQ    STR_INDX,,AUTO
         2 000340   200230 756100                    STQ     PCB+9,,AUTO

     3035    11288    2           CALL X$PARSE (PCB) ALTRET(E_PARSE);

  11288  2 000341   200217 633500                    EPPR3   PCB,,AUTO
         2 000342   200236 453500                    STP3    PCB+15,,AUTO
         2 000343   200236 630500                    EPPR0   PCB+15,,AUTO
         2 000344   000017 631400 xsym               EPPR1   B_VECTNIL+15
         2 000345   000000 701000 xent               TSX1    X$PARSE
         2 000346   000640 702000 2                  TSX2    E_PARSE

     3036    11289        /*
     3037    11290             ***** Setup workarea for X$EVAL ...
     3038    11291        */
     3039    11292    2           XUE_PPCB.ECB.WORK$ = PINCRW(SAVE_WORK$,PCB.WK_USED+1);

  11292  2 000347   200227 236100                    LDQ     PCB+8,,AUTO
         2 000350   777777 376003                    ANQ     -1,DU
         2 000351   000001 036003                    ADLQ    1,DU
         2 000352   200216 036100                    ADLQ    SAVE_WORK$,,AUTO
PL6.E3A0      #006=X$PRE_PROCESS File=XUE$EVAL.:E05TSI                           WED 07/30/97 09:16 Page:479
         2 000353   200003 470500                    LDP0    @XUE_PPCB,,AUTO
         2 000354   000007 756100                    STQ     7,,PR0

     3040    11293    2           XUE_PPCB.ECB.WKSZ# = SAVE_WKSZ# - (PCB.WK_USED+1);

  11293  2 000355   200227 235100                    LDA     PCB+8,,AUTO
         2 000356   000022 771000                    ARL     18
         2 000357   200236 755100                    STA     PCB+15,,AUTO
         2 000360   200215 236100                    LDQ     SAVE_WKSZ#,,AUTO
         2 000361   200236 136100                    SBLQ    PCB+15,,AUTO
         2 000362   000001 136007                    SBLQ    1,DL
         2 000363   000010 756100                    STQ     8,,PR0

     3041    11294    2           XUE_PPCB.ECB.TREE$ = PCB.OUT$;

  11294  2 000364   200222 236100                    LDQ     PCB+3,,AUTO
         2 000365   000006 756100                    STQ     6,,PR0

     3042    11295    2           CALL X$EVAL (XUE_PPCB.ECB.TREE$) ALTRET(E_PREPARSE);

  11295  2 000366   200003 236100                    LDQ     @XUE_PPCB,,AUTO
         2 000367   000006 036003                    ADLQ    6,DU
         2 000370   200236 756100                    STQ     PCB+15,,AUTO
         2 000371   200236 630500                    EPPR0   PCB+15,,AUTO
         2 000372   000017 631400 xsym               EPPR1   B_VECTNIL+15
         2 000373   000000 701000 xent               TSX1    X$EVAL
         2 000374   000624 702000 2                  TSX2    E_PREPARSE

     3043    11296        /*
     3044    11297             ***** Insert the resultant string into OUT$BUF ...
     3045    11298        */
     3046    11299    2           INDX1 = PCB.OUT$ -> P$B.SUBLK$(PCB.OUT$ -> P$B.NSUBLKS -1) ->

  11299  2 000375   200222 470500                    LDP0    PCB+3,,AUTO
         2 000376   000001 220100                    LDX0    1,,PR0
         2 000377   000002 471510                    LDP1    2,X0,PR0
         2 000400   100002 236100                    LDQ     2,,PR1
PL6.E3A0      #006=X$PRE_PROCESS File=XUE$EVAL.:E05TSI                           WED 07/30/97 09:16 Page:480
         2 000401   200213 036100                    ADLQ    STR_INDX,,AUTO
         2 000402   200206 756100                    STQ     INDX1,,AUTO

     3047    11300    2             P$B.CPOS + STR_INDX;
     3048    11301    2           IF STR_INDX = 0

  11301  2 000403   200213 235100                    LDA     STR_INDX,,AUTO
         2 000404   000443 601000 2                  TNZ     s:11306

     3049    11302    2           THEN   /* %exp at front of buffer */
     3050    11303    2               CALL CONCAT(TEMPBUF,XUE_PPCB.ECB.OUT$ -> X$STRING.TEXT,

  11303  2 000405   200003 473500                    LDP3    @XUE_PPCB,,AUTO
         2 000406   300012 474500                    LDP4    10,,PR3
         2 000407   000100 101500                    MRL     fill='000'O
         2 000410   400000 000001                    ADSC9   0,,PR4                   cn=0,n=1
         2 000411   200236 000002                    ADSC9   PCB+15,,AUTO             cn=0,n=2
         2 000412   200236 220100                    LDX0    PCB+15,,AUTO
         2 000413   300002 471500                    LDP1    2,,PR3
         2 000414   300003 721100                    LXL1    3,,PR3
         2 000415   000000 636011                    EAQ     0,X1
         2 000416   000022 772000                    QRL     18
         2 000417   200206 136100                    SBLQ    INDX1,,AUTO
         2 000420   040100 100540                    MLR     fill='040'O
         2 000421   400000 200010                    ADSC9   0,,PR4                   cn=1,n=*X0
         2 000422   200004 000777                    ADSC9   TEMPBUF,,AUTO            cn=0,n=511
         2 000423   200237 756100                    STQ     PCB+16,,AUTO
         2 000424   000000 636010                    EAQ     0,X0
         2 000425   000022 772000                    QRL     18
         2 000426   000777 116007                    CMPQ    511,DL
         2 000427   000442 603000 2                  TRC     s:11303+29
         2 000430   200240 740100                    STX0    PCB+17,,AUTO
         2 000431   777000 620010                    EAX0    -512,X0
         2 000432   777777 660003                    ERX0    -1,DU
         2 000433   200237 721100                    LXL1    PCB+16,,AUTO
         2 000434   200206 236100                    LDQ     INDX1,,AUTO
         2 000435   200240 235100                    LDA     PCB+17,,AUTO
PL6.E3A0      #006=X$PRE_PROCESS File=XUE$EVAL.:E05TSI                           WED 07/30/97 09:16 Page:481
         2 000436   000022 771000                    ARL     18
         2 000437   040145 100546                    MLR     fill='040'O
         2 000440   100000 000011                    ADSC9   0,Q,PR1                  cn=0,n=*X1
         2 000441   200004 000010                    ADSC9   TEMPBUF,A,AUTO           cn=0,n=*X0
         2 000442   000516 710000 2                  TRA     s:11309

     3051    11304    2                 SUBSTR(OUT$BUF,INDX1));
     3052    11305    2           ELSE
     3053    11306    2               CALL CONCAT(TEMPBUF,SUBSTR(OUT$BUF,0,STR_INDX),

  11306  2 000443   200003 473500                    LDP3    @XUE_PPCB,,AUTO
         2 000444   300002 474500                    LDP4    2,,PR3
         2 000445   300003 721100                    LXL1    3,,PR3
         2 000446   300012 475500                    LDP5    10,,PR3
         2 000447   000100 101500                    MRL     fill='000'O
         2 000450   500000 000001                    ADSC9   0,,PR5                   cn=0,n=1
         2 000451   200236 000002                    ADSC9   PCB+15,,AUTO             cn=0,n=2
         2 000452   200236 220100                    LDX0    PCB+15,,AUTO
         2 000453   300002 471500                    LDP1    2,,PR3
         2 000454   300003 721100                    LXL1    3,,PR3
         2 000455   000000 636011                    EAQ     0,X1
         2 000456   000022 772000                    QRL     18
         2 000457   200206 136100                    SBLQ    INDX1,,AUTO
         2 000460   000000 622005                    EAX2    0,AL
         2 000461   040100 100540                    MLR     fill='040'O
         2 000462   400000 000012                    ADSC9   0,,PR4                   cn=0,n=*X2
         2 000463   200004 000777                    ADSC9   TEMPBUF,,AUTO            cn=0,n=511
         2 000464   200237 756100                    STQ     PCB+16,,AUTO
         2 000465   200213 236100                    LDQ     STR_INDX,,AUTO
         2 000466   000777 116007                    CMPQ    511,DL
         2 000467   000516 605000 2                  TPL     s:11309
         2 000470   777000 621006                    EAX1    -512,QL
         2 000471   777777 661003                    ERX1    -1,DU
         2 000472   040146 100540                    MLR     fill='040'O
         2 000473   500000 200010                    ADSC9   0,,PR5                   cn=1,n=*X0
         2 000474   200004 000011                    ADSC9   TEMPBUF,Q,AUTO           cn=0,n=*X1
         2 000475   000000 636010                    EAQ     0,X0
PL6.E3A0      #006=X$PRE_PROCESS File=XUE$EVAL.:E05TSI                           WED 07/30/97 09:16 Page:482
         2 000476   000022 772000                    QRL     18
         2 000477   200213 036100                    ADLQ    STR_INDX,,AUTO
         2 000500   000777 116007                    CMPQ    511,DL
         2 000501   000516 605000 2                  TPL     s:11309
         2 000502   200240 756100                    STQ     PCB+17,,AUTO
         2 000503   000000 636010                    EAQ     0,X0
         2 000504   000022 772000                    QRL     18
         2 000505   200213 036100                    ADLQ    STR_INDX,,AUTO
         2 000506   200240 722100                    LXL2    PCB+17,,AUTO
         2 000507   777000 622012                    EAX2    -512,X2
         2 000510   777777 662003                    ERX2    -1,DU
         2 000511   200237 723100                    LXL3    PCB+16,,AUTO
         2 000512   200206 235100                    LDA     INDX1,,AUTO
         2 000513   040146 100545                    MLR     fill='040'O
         2 000514   100000 000013                    ADSC9   0,A,PR1                  cn=0,n=*X3
         2 000515   200004 000012                    ADSC9   TEMPBUF,Q,AUTO           cn=0,n=*X2

     3054    11307    2                 XUE_PPCB.ECB.OUT$->X$STRING.TEXT,
     3055    11308    2                 SUBSTR(OUT$BUF,INDX1));
     3056    11309    2           OUT$BUF = TEMPBUF;

  11309  2 000516   300002 471500                    LDP1    2,,PR3
         2 000517   300003 720100                    LXL0    3,,PR3
         2 000520   040140 100500                    MLR     fill='040'O
         2 000521   200004 000777                    ADSC9   TEMPBUF,,AUTO            cn=0,n=511
         2 000522   100000 000010                    ADSC9   0,,PR1                   cn=0,n=*X0

     3057    11310    2           XUE_PPCB.RCHARS# = XUE_PPCB.RCHARS# +

  11310  2 000523   300012 470500                    LDP0    10,,PR3
         2 000524   200206 236100                    LDQ     INDX1,,AUTO
         2 000525   200213 136100                    SBLQ    STR_INDX,,AUTO
         2 000526   200236 756100                    STQ     PCB+15,,AUTO
         2 000527   000100 101500                    MRL     fill='000'O
         2 000530   000000 000001                    ADSC9   0,,PR0                   cn=0,n=1
         2 000531   200237 000004                    ADSC9   PCB+16,,AUTO             cn=0,n=4
         2 000532   200237 236100                    LDQ     PCB+16,,AUTO
PL6.E3A0      #006=X$PRE_PROCESS File=XUE$EVAL.:E05TSI                           WED 07/30/97 09:16 Page:483
         2 000533   200236 136100                    SBLQ    PCB+15,,AUTO
         2 000534   300004 036100                    ADLQ    4,,PR3
         2 000535   300004 756100                    STQ     4,,PR3

     3058    11311    2             (XUE_PPCB.ECB.OUT$ -> X$STRING.SIZ - (INDX1 - STR_INDX));
     3059    11312    2           ERR_INDX = ERR_INDX -

  11312  2 000536   300012 470500                    LDP0    10,,PR3
         2 000537   200206 236100                    LDQ     INDX1,,AUTO
         2 000540   200213 136100                    SBLQ    STR_INDX,,AUTO
         2 000541   200236 756100                    STQ     PCB+15,,AUTO
         2 000542   000100 101500                    MRL     fill='000'O
         2 000543   000000 000001                    ADSC9   0,,PR0                   cn=0,n=1
         2 000544   200237 000004                    ADSC9   PCB+16,,AUTO             cn=0,n=4
         2 000545   200237 236100                    LDQ     PCB+16,,AUTO
         2 000546   200236 136100                    SBLQ    PCB+15,,AUTO
         2 000547   200240 756100                    STQ     PCB+17,,AUTO
         2 000550   200214 236100                    LDQ     ERR_INDX,,AUTO
         2 000551   200240 136100                    SBLQ    PCB+17,,AUTO
         2 000552   200214 756100                    STQ     ERR_INDX,,AUTO

     3060    11313    2             (XUE_PPCB.ECB.OUT$ -> X$STRING.SIZ - (INDX1 - STR_INDX));
     3061    11314    2           IF XUE_PPCB.RCHARS# > XUE_PPCB.OCHARS#

  11314  2 000553   300003 236100                    LDQ     3,,PR3
         2 000554   300004 116100                    CMPQ    4,,PR3
         2 000555   000563 603000 2                  TRC     s:11326

     3062    11315    2           THEN   /* Truncated */
     3063    11316    3           DO;

     3064    11317                      /*   Show them the error of their ways!!! */
     3065    11318    3               XUE_PPCB.ECB.ERR = E_TRUNCATE;

  11318  2 000556   000216 236000 1                  LDQ     E_TRUNCATE
         2 000557   300017 756100                    STQ     15,,PR3

PL6.E3A0      #006=X$PRE_PROCESS File=XUE$EVAL.:E05TSI                           WED 07/30/97 09:16 Page:484
     3066    11319    3               XUE_PPCB.RCHARS# = XUE_PPCB.OCHARS#;

  11319  2 000560   300003 235100                    LDA     3,,PR3
         2 000561   300004 755100                    STA     4,,PR3

     3067    11320    3               GOTO E_PREPARSE;

  11320  2 000562   000624 710000 2                  TRA     E_PREPARSE

     3068    11321    3           END;
     3069    11322        /*
     3070    11323             ***** Move START_INDX past end of %exp ...
     3071    11324                   That is, do not rescan from front of command.
     3072    11325        */
     3073    11326    2           START_INDX = STR_INDX + XUE_PPCB.ECB.OUT$ -> X$STRING.SIZ;

  11326  2 000563   300012 470500                    LDP0    10,,PR3
         2 000564   000100 101500                    MRL     fill='000'O
         2 000565   000000 000001                    ADSC9   0,,PR0                   cn=0,n=1
         2 000566   200236 000004                    ADSC9   PCB+15,,AUTO             cn=0,n=4
         2 000567   200236 236100                    LDQ     PCB+15,,AUTO
         2 000570   200213 036100                    ADLQ    STR_INDX,,AUTO
         2 000571   200212 756100                    STQ     START_INDX,,AUTO

     3074    11327    2   END_LOOP:
     3075    11328        /*
     3076    11329             ***** Reset WORK$ and WKSZ# ...
     3077    11330        */
     3078    11331    2           XUE_PPCB.ECB.WORK$ = SAVE_WORK$;

  11331  2 000572   200216 236100       END_LOOP     LDQ     SAVE_WORK$,,AUTO
         2 000573   200003 470500                    LDP0    @XUE_PPCB,,AUTO
         2 000574   000007 756100                    STQ     7,,PR0

     3079    11332    2           XUE_PPCB.ECB.WKSZ# = SAVE_WKSZ#;

  11332  2 000575   200215 235100                    LDA     SAVE_WKSZ#,,AUTO
PL6.E3A0      #006=X$PRE_PROCESS File=XUE$EVAL.:E05TSI                           WED 07/30/97 09:16 Page:485
         2 000576   000010 755100                    STA     8,,PR0

     3080    11333        /*
     3081    11334             ***** See if there are any more %expressions ...
     3082    11335        */
     3083    11336    2           IF START_INDX >= XUE_PPCB.RCHARS#

  11336  2 000577   200212 236100                    LDQ     START_INDX,,AUTO
         2 000600   000603 604000 2                  TMI     s:11339
         2 000601   000004 116100                    CMPQ    4,,PR0
         2 000602   000623 603000 2                  TRC     RETURN_TO_USER

     3084    11337    2           THEN   /* No more chars to look at */
     3085    11338    2               GOTO RETURN_TO_USER;
     3086    11339    2           CALL INDEX (STR_INDX,'%',OUT$BUF,START_INDX) ALTRET(RETURN_TO_USER);

  11339  2 000603   000002 471500                    LDP1    2,,PR0
         2 000604   000003 720100                    LXL0    3,,PR0
         2 000605   000000 636010                    EAQ     0,X0
         2 000606   000022 772000                    QRL     18
         2 000607   200212 136100                    SBLQ    START_INDX,,AUTO
         2 000610   200236 756100                    STQ     PCB+15,,AUTO
         2 000611   200212 236100                    LDQ     START_INDX,,AUTO
         2 000612   200236 720100                    LXL0    PCB+15,,AUTO
         2 000613   200212 235100                    LDA     START_INDX,,AUTO
         2 000614   000000 124545                    SCM     mask='000'O
         2 000615   100000 000010                    ADSC9   0,A,PR1                  cn=0,n=*X0
         2 000616   000000 000001 3                  ADSC9   0                        cn=0,n=1
         2 000617   200213 000100                    ARG     STR_INDX,,AUTO
         2 000620   200213 056100                    ASQ     STR_INDX,,AUTO
         2 000621   000623 606400 2                  TTN     RETURN_TO_USER

     3087    11340    2       END MAIN_LOOP; /* Do while ... end */

  11340  2 000622   000141 710000 2                  TRA     MAIN_LOOP

     3088    11341    1   RETURN_TO_USER:   /* Finished pre-parse processing */
PL6.E3A0      #006=X$PRE_PROCESS File=XUE$EVAL.:E05TSI                           WED 07/30/97 09:16 Page:486
     3089    11342    1       RETURN;

  11342  2 000623   000000 702200 xent  RETURN_TO_U* TSX2  ! X66_ARET

     3090    11343        %EJECT;
PL6.E3A0      #006=X$PRE_PROCESS File=XUE$EVAL.:E05TSI                           WED 07/30/97 09:16 Page:487
     3091    11344    2       DO WHILE (%NO#);

     3092    11345    2   E_PREPARSE:
     3093    11346    2           XUE_PPCB.ECB.ERR_POS# = XUE_PPCB.ECB.ERR_POS# + STR_INDX + ERR_INDX;

  11346  2 000624   200003 470500       E_PREPARSE   LDP0    @XUE_PPCB,,AUTO
         2 000625   000016 236100                    LDQ     14,,PR0
         2 000626   000022 772000                    QRL     18
         2 000627   200213 036100                    ADLQ    STR_INDX,,AUTO
         2 000630   200214 036100                    ADLQ    ERR_INDX,,AUTO
         2 000631   000000 620006                    EAX0    0,QL
         2 000632   000016 740100                    STX0    14,,PR0

     3094    11347        /*
     3095    11348             ***** Reset WORK$ and WKSZ# ...
     3096    11349        */
     3097    11350    2           XUE_PPCB.ECB.WORK$ = SAVE_WORK$;

  11350  2 000633   200216 236100                    LDQ     SAVE_WORK$,,AUTO
         2 000634   000007 756100                    STQ     7,,PR0

     3098    11351    2           XUE_PPCB.ECB.WKSZ# = SAVE_WKSZ#;

  11351  2 000635   200215 235100                    LDA     SAVE_WKSZ#,,AUTO
         2 000636   000010 755100                    STA     8,,PR0

     3099    11352    2       END;

     3100    11353    2       DO WHILE (%NO#);

  11353  2 000637   000650 710000 2                  TRA     s:11361

     3101    11354    2   E_PARSE:
     3102    11355    2           XUE_PPCB.ECB.ERR = PCB.ERROR;

  11355  2 000640   200225 236100       E_PARSE      LDQ     PCB+6,,AUTO
         2 000641   200003 470500                    LDP0    @XUE_PPCB,,AUTO
PL6.E3A0      #006=X$PRE_PROCESS File=XUE$EVAL.:E05TSI                           WED 07/30/97 09:16 Page:488
         2 000642   000017 756100                    STQ     15,,PR0

     3103    11356    2           XUE_PPCB.ECB.ERR_POS# = PCB.HI_CHAR + STR_INDX + ERR_INDX;

  11356  2 000643   200231 236100                    LDQ     PCB+10,,AUTO
         2 000644   200213 036100                    ADLQ    STR_INDX,,AUTO
         2 000645   200214 036100                    ADLQ    ERR_INDX,,AUTO
         2 000646   000000 620006                    EAX0    0,QL
         2 000647   000016 740100                    STX0    14,,PR0

     3104    11357    2       END;

     3105    11358        /*
     3106    11359             ***** Restore WORK$ and WKSZ# ...
     3107    11360        */
     3108    11361    1       ALTRETURN;

  11361  2 000650   000000 702200 xent               TSX2  ! X66_AALT
     3109    11362    1   END X$PRE_PROCESS;
     3110    11363        %EOD;

PL6.E3A0      #006=X$PRE_PROCESS File=XUE$EVAL.:E05TSI                           WED 07/30/97 09:16 Page:489
--  Include file information  --

   XUE_MACRO_C.:E05TOU  is referenced.
   XU_PERR_C.:E05TOU  is referenced.
   XU_MACRO_C.:E05TOU  is referenced.
   CP_6_SUBS.:E05TOU  is referenced.
   CP_6_C.:E05TOU  is referenced.
   CP_6.:E05TOU  cannot be made into a system file and is referenced.
   B_MACROS_C.:E05TOU  is referenced.
      No diagnostics issued in procedure X$PRE_PROCESS.
PL6.E3A0      #006=X$PRE_PROCESS File=XUE$EVAL.:E05TSI                           WED 07/30/97 09:16 Page:490

 **** Variables and constants ****

  ****  Section 001 RoData X$PRE_PROCESS

  ****  Scalars and arrays  ****
OctLoc.c.b A Datatyp(siz) R M Lvl/name                 OctLoc.c.b A Datatyp(siz) R M Lvl/name

   216-0-0/w STRC        r     1 E_TRUNCATE               200-0-0/w STRC(504)   r     1 I_PCB
     0-0-0/b UBIN(9)     r     1 VERIFY_CHARS(0:511)

  ****  Auto variables  ****

  ****  Scalars and arrays  ****
OctLoc.c.b A Datatyp(siz) R M Lvl/name                 OctLoc.c.b A Datatyp(siz) R M Lvl/name

     3-0-0/w PTR         r     1 @XUE_PPCB                204-0-0/c STRC(27)    r     1 COMMENT_L
   205-0-0/c STRC(27)    r     1 COMMENT_R                214-0-0/w SBIN        r     1 ERR_INDX
   206-0-0/w SBIN        r     1 INDX1                    207-0-0/w SBIN        r     1 INDX2
   217-0-0/w STRC(504)   r     1 PCB                      211-0-0/w SBIN        r     1 RESULTS
   215-0-0/w UBIN        r     1 SAVE_WKSZ#               216-0-0/w PTR         r     1 SAVE_WORK$
   212-0-0/w SBIN        r     1 START_INDX               213-0-0/w SBIN        r     1 STR_INDX
     4-0-0/c CHAR(511)   r     1 TEMPBUF                  210-0-0/w SBIN        r     1 WHERE
    *0-0-0/d STRC(1224)  r     1 XUE_PPCB

  ****  BASED and DCB variables  ****

  ****  Scalars and arrays  ****
OctLoc.c.b A Datatyp(siz) R M Lvl/name                 OctLoc.c.b A Datatyp(siz) R M Lvl/name

     0-0-0/c ACHR        r     1 IN$BUF                     0-0-0/c ACHR        r     1 OUT$BUF
     0-0-0/w STRC(144)   r     1 P$B                        0-0-0/c ASTR(9)     r     1 X$STRING


   Procedure X$PRE_PROCESS requires 425 words for executable code.
   Procedure X$PRE_PROCESS requires 162 words of local(AUTO) storage.
PL6.E3A0      #006=X$PRE_PROCESS File=XUE$EVAL.:E05TSI                           WED 07/30/97 09:16 Page:491
          *** CROSS REFERENCE LISTING ***
**     DENOTES     IDENTIFIER DEFINITION
<<                 IDENTIFIER'S VALUE SET
>>                 IDENTIFIER'S VALUE USED
<>                 IDENTIFIER SET AND/OR USED
--                 IDENTIFIER REFERENCED
PL6.E3A0      #006=X$PRE_PROCESS File=XUE$EVAL.:E05TSI                           WED 07/30/97 09:16 Page:492
          MINI XREF LISTING

COMMENT_L.L#
     10590**DCL     11178<<ASSIGN  11182<<ASSIGN  11188<<ASSIGN  11234>>IF      11248>>CALLBLT
COMMENT_L.NAME#
     10590**DCL     11183<<ASSIGN  11189<<ASSIGN  11248>>CALLBLT
COMMENT_R.L#
     10617**DCL     11197<<ASSIGN  11201<<ASSIGN  11207<<ASSIGN  11256>>CALLBLT 11260>>CALLBLT
COMMENT_R.NAME#
     10617**DCL     11202<<ASSIGN  11208<<ASSIGN  11256>>CALLBLT 11260>>CALLBLT
END_COMMENT
     11262**LABEL   11236--GOTO    11248--CALLALT
END_LOOP
     11331**LABEL   11224--GOTO    11263--GOTO    11281--GOTO
ERR_INDX
     10626**DCL     11149<<ASSIGN  11280<<ASSIGN  11280>>ASSIGN  11312<<ASSIGN  11312>>ASSIGN  11346>>ASSIGN
     11356>>ASSIGN
E_PARSE
     11355**LABEL   11288--CALLALT
E_PREPARSE
     11346**LABEL   11295--CALLALT 11320--GOTO
E_TRUNCATE
     11103**DCL     11318>>ASSIGN
IN$BUF
     10636**DCL     11146>>ASSIGN
INDX1
     10620**DCL     11243<<ASSIGN  11248>>CALLBLT 11250<<ASSIGN  11256>>CALLBLT 11265<<ASSIGN  11299<<ASSIGN
     11303>>CALLBLT 11306>>CALLBLT 11310>>ASSIGN  11312>>ASSIGN
INDX2
     10621**DCL     11248<<CALLBLT 11250>>ASSIGN  11256<<CALLBLT 11260<<CALLBLT 11260>>CALLBLT 11262>>ASSIGN
     11265>>ASSIGN
I_PCB
     10908**DCL     11162>>ASSIGN
OUT$BUF
PL6.E3A0      #006=X$PRE_PROCESS File=XUE$EVAL.:E05TSI                           WED 07/30/97 09:16 Page:493
     10637**DCL     11146<<ASSIGN  11158>>CALLBLT 11218>>CALLBLT 11248>>CALLBLT 11256>>CALLBLT 11260>>CALLBLT
     11272>>IF      11275>>CALLBLT 11275>>CALLBLT 11278<<ASSIGN  11303>>CALLBLT 11306>>CALLBLT 11306>>CALLBLT
     11309<<ASSIGN  11339>>CALLBLT
P$B.CPOS
     10670**DCL     11299>>ASSIGN
P$B.NSUBLKS
     10656**DCL     11299>>ASSIGN
P$B.SUBLK$
     10677**DCL     11299>>ASSIGN
PCB
     10703**DCL     11162<<ASSIGN  11288<>CALL
PCB.COMMENT.LEAD
     10821**DCL     11167<<ASSIGN
PCB.COMMENT.TRAIL
     10829**DCL     11168<<ASSIGN
PCB.CONTINUE
     10744**DCL     11165<<ASSIGN
PCB.ERROR
     10807**DCL     11355>>ASSIGN
PCB.HI_CHAR
     10854**DCL     11356>>ASSIGN
PCB.NCHARS
     10850**DCL     11287<<ASSIGN
PCB.OUT$
     10716**DCL     11294>>ASSIGN  11299>>ASSIGN  11299>>ASSIGN
PCB.ROOT$
     10708**DCL     11166<<ASSIGN
PCB.TEXT$
     10704**DCL     11286<<ASSIGN
PCB.WKSZ
     10733**DCL     11163<<ASSIGN
PCB.WK_USED
     10836**DCL     11292>>ASSIGN  11293>>ASSIGN
PCB.WORK$
     10712**DCL     11164<<ASSIGN
RESULTS
PL6.E3A0      #006=X$PRE_PROCESS File=XUE$EVAL.:E05TSI                           WED 07/30/97 09:16 Page:494
     10623**DCL     11218<<CALLBLT 11220>>IF
RETURN_TO_USER
     11342**LABEL   11158--CALLALT 11260--CALLALT 11338--GOTO    11339--CALLALT
SAVE_WKSZ#
     10627**DCL     11154<<ASSIGN  11293>>ASSIGN  11332>>ASSIGN  11351>>ASSIGN
SAVE_WORK$
     10629**DCL     11153<<ASSIGN  11292>>ASSIGN  11331>>ASSIGN  11350>>ASSIGN
START_INDX
     10624**DCL     11148<<ASSIGN  11158>>CALLBLT 11223<<ASSIGN  11262<<ASSIGN  11279<<ASSIGN  11326<<ASSIGN
     11336>>IF      11339>>CALLBLT
STR_INDX
     10625**DCL     11158<<CALLBLT 11218>>CALLBLT 11223>>ASSIGN  11248>>CALLBLT 11256>>CALLBLT 11272>>IF
     11275>>CALLBLT 11275>>CALLBLT 11279>>ASSIGN  11286>>ASSIGN  11287>>ASSIGN  11299>>ASSIGN  11301>>IF
     11306>>CALLBLT 11310>>ASSIGN  11312>>ASSIGN  11326>>ASSIGN  11339<<CALLBLT 11346>>ASSIGN  11356>>ASSIGN
TEMPBUF
     10564**DCL     11275<<CALLBLT 11278>>ASSIGN  11303<<CALLBLT 11306<<CALLBLT 11309>>ASSIGN
VERIFY_CHARS
     10885**DCL     11218>>CALLBLT
WHERE
     10622**DCL     11218<<CALLBLT
X$EVAL
     10272**DCL-ENT 11295--CALL
X$PARSE
     10294**DCL-ENT 11288--CALL
X$STRING.SIZ
     10633**DCL     10634--IMP-SIZ 11303>>CALLBLT 11306>>CALLBLT 11310>>ASSIGN  11312>>ASSIGN  11326>>ASSIGN
X$STRING.TEXT
     10634**DCL     11303>>CALLBLT 11306>>CALLBLT
XUE$PP_SUCCESS
     10291**DCL-ENT 10926--DCLINIT
XUE_PPCB
     10311**DCL         7--PROC
XUE_PPCB.ECB.ERR
     10458**DCL     11318<<ASSIGN  11355<<ASSIGN
XUE_PPCB.ECB.ERR_POS#
     10441**DCL     11346<<ASSIGN  11346>>ASSIGN  11356<<ASSIGN
PL6.E3A0      #006=X$PRE_PROCESS File=XUE$EVAL.:E05TSI                           WED 07/30/97 09:16 Page:495
XUE_PPCB.ECB.LEAD#
     10536**DCL     11167>>ASSIGN  11172>>IF      11175>>IF      11183>>ASSIGN  11189>>ASSIGN
XUE_PPCB.ECB.OUT$
     10406**DCL     11303>>CALLBLT 11303>>CALLBLT 11306>>CALLBLT 11306>>CALLBLT 11310>>ASSIGN  11312>>ASSIGN
     11326>>ASSIGN
XUE_PPCB.ECB.TRAIL#
     10545**DCL     11168>>ASSIGN  11191>>IF      11194>>IF      11202>>ASSIGN  11208>>ASSIGN
XUE_PPCB.ECB.TREE$
     10378**DCL     11294<<ASSIGN  11295<>CALL
XUE_PPCB.ECB.WKSZ#
     10389**DCL     11154>>ASSIGN  11163>>ASSIGN  11293<<ASSIGN  11332<<ASSIGN  11351<<ASSIGN
XUE_PPCB.ECB.WORK$
     10384**DCL     11153>>ASSIGN  11164>>ASSIGN  11292<<ASSIGN  11331<<ASSIGN  11350<<ASSIGN
XUE_PPCB.ICHARS#
     10320**DCL     10636--IMP-SIZ 11146>>ASSIGN  11147>>ASSIGN
XUE_PPCB.INBUF$
     10315**DCL     10636--IMP-PTR 11146>>ASSIGN
XUE_PPCB.OCHARS#
     10334**DCL     10637--IMP-SIZ 11146>>ASSIGN  11158>>CALLBLT 11218>>CALLBLT 11248>>CALLBLT 11256>>CALLBLT
     11260>>CALLBLT 11272>>IF      11275>>CALLBLT 11275>>CALLBLT 11278>>ASSIGN  11303>>CALLBLT 11306>>CALLBLT
     11306>>CALLBLT 11309>>ASSIGN  11314>>IF      11319>>ASSIGN  11339>>CALLBLT
XUE_PPCB.OUTBUF$
     10327**DCL     10637--IMP-PTR 11146>>ASSIGN  11158>>CALLBLT 11218>>CALLBLT 11248>>CALLBLT 11256>>CALLBLT
     11260>>CALLBLT 11272>>IF      11275>>CALLBLT 11275>>CALLBLT 11278>>ASSIGN  11286>>ASSIGN  11303>>CALLBLT
     11306>>CALLBLT 11306>>CALLBLT 11309>>ASSIGN  11339>>CALLBLT
XUE_PPCB.RCHARS#
     10341**DCL     11147<<ASSIGN  11277<<ASSIGN  11277>>ASSIGN  11287>>ASSIGN  11310<<ASSIGN  11310>>ASSIGN
     11314>>IF      11319<<ASSIGN  11336>>IF
XUE_PPCB.ROOT$
     10348**DCL     11166>>ASSIGN

PL6.E3A0      #007=XUE$PP_SUCCESS File=XUE$EVAL.:E05TSI                          WED 07/30/97 09:17 Page:496
     3111        1        /*T***********************************************************/
     3112        2        /*T*                                                         */
     3113        3        /*T* Copyright (c) Bull HN Information Systems Inc., 1997    */
     3114        4        /*T*                                                         */
     3115        5        /*T***********************************************************/
     3116        6        /*X* DMC,PLM=4,IND=4,CTI=2,DTI=0,ENI=0,ECI=0,CSI=0,MCI,DCI=4 */
     3117        7        XUE$PP_SUCCESS: PROC(PARSE$PARAM);
     3118        8        /**********************************************************************/
     3119        9        /*F*    NAME:        XUE$PP_SUCCESS
     3120       10                PURPOSE:     To do success processing during parseing of expressiona.
     3121       11                DESCRIPTION: This routine insures that this token is distinct
     3122       12                             from the next one by insuring that there be a
     3123       13                             transition from alphanumeric to non, or vica versa.
     3124       14        */
     3125       15        /**********************************************************************/
     3126       16        /***** INCLUDES *****/
     3127       17          %INCLUDE XU_DATA_R;
     3128       28          %INCLUDE XU_MACRO_C;
     3129     3134          %INCLUDE XU_PERR_C;
     3130     3325        /***** Parameters *****/
     3131     3326        %PARSE$PARAM;
     3132     3407        /***** Based structures *****/
     3133     3408    1   DCL B$TEXT(0:0) CHAR(1) CALIGNED BASED(TEXT$);
     3134     3409          %P_PCB (NAME = P$PCB, STCLASS = BASED);
     3135     3608        /***** Local auto *****/
     3136     3609    1   DCL IDX SBIN AUTO;
     3137     3610    1   DCL TEXT$ PTR AUTO;
     3138     3611        %EJECT;
PL6.E3A0      #007=XUE$PP_SUCCESS File=XUE$EVAL.:E05TSI                          WED 07/30/97 09:17 Page:497
     3139     3612        /**/
     3140     3613        /* Insure that this function can be distinguished from the characters         */
     3141     3614        /* that follow.                                                               */
     3142     3615        /*                                                                            */
     3143     3616        /* A handy way to do this is to examine the last character of the function    */
     3144     3617        /* and the first character following it.  If these are both alphanumeric,     */
     3145     3618        /* a reader could have trouble figuring out where one stops and the           */
     3146     3619        /* next begins... error it.                                                   */
     3147     3620        /**/
     3148     3621    1       TEXT$ = PARSE$PARAM.PCB$ -> P$PCB.TEXT$;
     3149     3622    1       IDX = PARSE$PARAM.CHARPOS;
     3150     3623        /* Use parser table that has 'alphanumeric' flag        */
     3151     3624    1       IF SYMTTBL.ALNUM(ASCBIN(B$TEXT(IDX)))
     3152     3625    1         AND SYMTTBL.ALNUM(ASCBIN(B$TEXT(IDX-1)))
     3153     3626    1       THEN
     3154     3627    1           PARSE$PARAM.REJECT = '1'B;      /* No way!                            */
     3155     3628    1       ELSE
     3156     3629    1           PARSE$PARAM.ACCEPT = '1'B;      /* OK!                                */
     3157     3630    1       RETURN;
     3158     3631        /**/
     3159     3632    1   END XUE$PP_SUCCESS;

PL6.E3A0      #007=XUE$PP_SUCCESS File=XUE$EVAL.:E05TSI                          WED 07/30/97 09:17 Page:498
--  Include file information  --

   XU_PERR_C.:E05TOU  is referenced.
   XU_MACRO_C.:E05TOU  is referenced.
   XU_DATA_R.:E05TOU  cannot be made into a system file and is referenced.
      No diagnostics issued in procedure XUE$PP_SUCCESS.

   Procedure XUE$PP_SUCCESS requires 29 words for executable code.
   Procedure XUE$PP_SUCCESS requires 8 words of local(AUTO) storage.

    No errors detected in file XUE$EVAL.:E05TSI    .

PL6.E3A0      #007=XUE$PP_SUCCESS File=XUE$EVAL.:E05TSI                          WED 07/30/97 09:17 Page:499

 Object Unit name= XUE$PP_SUCCESS                             File name= XUE$EVAL.:E05TOU
 UTS= JUL 30 '97 09:17:09.64 WED                              Compiler= PL-6/E31         Sev=      00
 SharedLib= :SHARED_SYSTEM                                    Alt SharedLib=


    ****  Control sections  ****

 Sect   Type Bound  Init  Size OctSiz  Section name(segment info)
    0   Proc  even  none    29     35  XUE$PP_SUCCESS

    ****  Entry defs  ****

                              Check   Calling
                             calling  sequence
  Sect OctLoc Primary Altret sequence   type   Parms  Name
     0      0   yes            yes      Std        1  XUE$PP_SUCCESS

  ****  Entry refs  ****

         Check        Calling
        calling       sequence
Altret sequence SRef   type   Args  Name
         yes          ~proc      0 XU_DATA_D
                       nStd      0 X66_AUTO_1
                       nStd      0 X66_ARET

  ****  Data refs  ****

  Flags:  r = read only, s = secondary
Flgs Name                             Flgs Name                             Flgs Name
r    XUP_SYMTBL
PL6.E3A0      #007=XUE$PP_SUCCESS File=XUE$EVAL.:E05TSI                          WED 07/30/97 09:17 Page:500


     3111        1        /*T***********************************************************/
     3112        2        /*T*                                                         */
     3113        3        /*T* Copyright (c) Bull HN Information Systems Inc., 1997    */
     3114        4        /*T*                                                         */
     3115        5        /*T***********************************************************/
     3116        6        /*X* DMC,PLM=4,IND=4,CTI=2,DTI=0,ENI=0,ECI=0,CSI=0,MCI,DCI=4 */
     3117        7        XUE$PP_SUCCESS: PROC(PARSE$PARAM);

      7  0 000000   000000 700200 xent  XUE$PP_SUCC* TSX0  ! X66_AUTO_1
         0 000001   000010 000001                    ZERO    8,1

     3118        8        /**********************************************************************/
     3119        9        /*F*    NAME:        XUE$PP_SUCCESS
     3120       10                PURPOSE:     To do success processing during parseing of expressiona.
     3121       11                DESCRIPTION: This routine insures that this token is distinct
     3122       12                             from the next one by insuring that there be a
     3123       13                             transition from alphanumeric to non, or vica versa.
     3124       14        */
     3125       15        /**********************************************************************/
     3126       16        /***** INCLUDES *****/
     3127       17          %INCLUDE XU_DATA_R;
     3128       28          %INCLUDE XU_MACRO_C;
     3129     3134          %INCLUDE XU_PERR_C;
     3130     3325        /***** Parameters *****/
     3131     3326        %PARSE$PARAM;
     3132     3407        /***** Based structures *****/
     3133     3408    1   DCL B$TEXT(0:0) CHAR(1) CALIGNED BASED(TEXT$);
     3134     3409          %P_PCB (NAME = P$PCB, STCLASS = BASED);
     3135     3608        /***** Local auto *****/
     3136     3609    1   DCL IDX SBIN AUTO;
     3137     3610    1   DCL TEXT$ PTR AUTO;
     3138     3611        %EJECT;
PL6.E3A0      #007=XUE$PP_SUCCESS File=XUE$EVAL.:E05TSI                          WED 07/30/97 09:17 Page:501
     3139     3612        /**/
     3140     3613        /* Insure that this function can be distinguished from the characters         */
     3141     3614        /* that follow.                                                               */
     3142     3615        /*                                                                            */
     3143     3616        /* A handy way to do this is to examine the last character of the function    */
     3144     3617        /* and the first character following it.  If these are both alphanumeric,     */
     3145     3618        /* a reader could have trouble figuring out where one stops and the           */
     3146     3619        /* next begins... error it.                                                   */
     3147     3620        /**/
     3148     3621    1       TEXT$ = PARSE$PARAM.PCB$ -> P$PCB.TEXT$;

   3621  0 000002   200003 470500                    LDP0    @PARSE$PARAM,,AUTO
         0 000003   000005 471500                    LDP1    5,,PR0
         0 000004   100000 236100                    LDQ     0,,PR1
         0 000005   200005 756100                    STQ     TEXT$,,AUTO

     3149     3622    1       IDX = PARSE$PARAM.CHARPOS;

   3622  0 000006   000004 235100                    LDA     4,,PR0
         0 000007   200004 755100                    STA     IDX,,AUTO

     3150     3623        /* Use parser table that has 'alphanumeric' flag        */
     3151     3624    1       IF SYMTTBL.ALNUM(ASCBIN(B$TEXT(IDX)))

   3624  0 000010   200005 473500                    LDP3    TEXT$,,AUTO
         0 000011   000100 101505                    MRL     fill='000'O
         0 000012   300000 000001                    ADSC9   0,A,PR3                  cn=0,n=1
         0 000013   200006 000004                    ADSC9   TEXT$+1,,AUTO            cn=0,n=4
         0 000014   200006 236100                    LDQ     TEXT$+1,,AUTO
         0 000015   000000 236006 xsym               LDQ     XUP_SYMTBL,QL
         0 000016   100000 316003                    CANQ    32768,DU
         0 000017   000032 600000 0                  TZE     s:3629
         0 000020   000100 101505                    MRL     fill='000'O
         0 000021   377777 600001                    ADSC9   -1,A,PR3                 cn=3,n=1
         0 000022   200007 000004                    ADSC9   TEXT$+2,,AUTO            cn=0,n=4
         0 000023   200007 236100                    LDQ     TEXT$+2,,AUTO
         0 000024   000000 236006 xsym               LDQ     XUP_SYMTBL,QL
PL6.E3A0      #007=XUE$PP_SUCCESS File=XUE$EVAL.:E05TSI                          WED 07/30/97 09:17 Page:502
         0 000025   100000 316003                    CANQ    32768,DU
         0 000026   000032 600000 0                  TZE     s:3629

     3152     3625    1         AND SYMTTBL.ALNUM(ASCBIN(B$TEXT(IDX-1)))
     3153     3626    1       THEN
     3154     3627    1           PARSE$PARAM.REJECT = '1'B;      /* No way!                            */

   3627  0 000027   000200 236003                    LDQ     128,DU
         0 000030   000000 256100                    ORSQ    0,,PR0
         0 000031   000034 710000 0                  TRA     s:3630

     3155     3628    1       ELSE
     3156     3629    1           PARSE$PARAM.ACCEPT = '1'B;      /* OK!                                */

   3629  0 000032   000400 236003                    LDQ     256,DU
         0 000033   000000 256100                    ORSQ    0,,PR0

     3157     3630    1       RETURN;

   3630  0 000034   000000 702200 xent               TSX2  ! X66_ARET
     3158     3631        /**/
     3159     3632    1   END XUE$PP_SUCCESS;

PL6.E3A0      #007=XUE$PP_SUCCESS File=XUE$EVAL.:E05TSI                          WED 07/30/97 09:17 Page:503
--  Include file information  --

   XU_PERR_C.:E05TOU  is referenced.
   XU_MACRO_C.:E05TOU  is referenced.
   XU_DATA_R.:E05TOU  cannot be made into a system file and is referenced.
      No diagnostics issued in procedure XUE$PP_SUCCESS.
PL6.E3A0      #007=XUE$PP_SUCCESS File=XUE$EVAL.:E05TSI                          WED 07/30/97 09:17 Page:504

 **** Variables and constants ****

  ****  Auto variables  ****

  ****  Scalars and arrays  ****
OctLoc.c.b A Datatyp(siz) R M Lvl/name                 OctLoc.c.b A Datatyp(siz) R M Lvl/name

     3-0-0/w PTR         r     1 @PARSE$PARAM               4-0-0/w SBIN        r     1 IDX
    *0-0-0/w STRC(270)   r     1 PARSE$PARAM                5-0-0/w PTR         r     1 TEXT$

  ****  SYMREF variables  ****

  ****  Scalars and arrays  ****
OctLoc.c.b A Datatyp(siz) R M Lvl/name                 OctLoc.c.b A Datatyp(siz) R M Lvl/name

     0-0-0/b STRC        r     1 SYMTTBL(0:127)
     0-0-0/b BIT         r     1 XUP_SYMTBL(0:127)

  ****  BASED and DCB variables  ****

  ****  Scalars and arrays  ****
OctLoc.c.b A Datatyp(siz) R M Lvl/name                 OctLoc.c.b A Datatyp(siz) R M Lvl/name

     0-0-0/c CHAR        r     1 B$TEXT(0:0)                0-0-0/w STRC(504)   r     1 P$PCB


   Procedure XUE$PP_SUCCESS requires 29 words for executable code.
   Procedure XUE$PP_SUCCESS requires 8 words of local(AUTO) storage.

    No errors detected in file XUE$EVAL.:E05TSI    .
PL6.E3A0      #007=XUE$PP_SUCCESS File=XUE$EVAL.:E05TSI                          WED 07/30/97 09:17 Page:505
          *** CROSS REFERENCE LISTING ***
**     DENOTES     IDENTIFIER DEFINITION
<<                 IDENTIFIER'S VALUE SET
>>                 IDENTIFIER'S VALUE USED
<>                 IDENTIFIER SET AND/OR USED
--                 IDENTIFIER REFERENCED
PL6.E3A0      #007=XUE$PP_SUCCESS File=XUE$EVAL.:E05TSI                          WED 07/30/97 09:17 Page:506
          MINI XREF LISTING

B$TEXT
      3408**DCL      3624>>IF       3624>>IF
IDX
      3609**DCL      3622<<ASSIGN   3624>>IF       3624>>IF
P$PCB.TEXT$
      3428**DCL      3621>>ASSIGN
PARSE$PARAM
      3345**DCL         7--PROC
PARSE$PARAM.ACCEPT
      3352**DCL      3629<<ASSIGN
PARSE$PARAM.CHARPOS
      3383**DCL      3622>>ASSIGN
PARSE$PARAM.PCB$
      3389**DCL      3621>>ASSIGN
PARSE$PARAM.REJECT
      3357**DCL      3627<<ASSIGN
SYMTTBL.ALNUM
        26**DCL      3624>>IF       3624>>IF
TEXT$
      3610**DCL      3408--IMP-PTR  3621<<ASSIGN   3624>>IF       3624>>IF
XUP_SYMTBL
        25**DCL        25--REDEF
