PL6.E3A0      #003=XUF$DESC File=XUF$FORMAT.:E05TSI                              WED 07/30/97 09:17 Page:248
     1390        1        /*T***********************************************************/
     1391        2        /*T*                                                         */
     1392        3        /*T* Copyright (c) Bull HN Information Systems Inc., 1997    */
     1393        4        /*T*                                                         */
     1394        5        /*T***********************************************************/
     1395        6        XUF$DESC: PROC(DESC,BUF,SIZ);
     1396        7    1   DCL DESC VECTOR;
     1397        8    1   DCL 1 DCB# REDEF DESC,
     1398        9    1         2 N UBIN,
     1399       10    1         2 * UBIN;
     1400       11    1   DCL 1 ERRCD REDEF DESC,
     1401       12    1         2 CODE# BIT(36),
     1402       13    1         2 DCB# SBIN;
     1403       14    1   DCL BUF CHAR(120);
     1404       15    1   DCL SIZ SBIN;
     1405       16        /**/
     1406       17    1   DCL XUF$FORMAT ENTRY(1);
     1407       18        /**/
     1408       19    1   DCL 1 DFMT CONSTANT,
     1409       20    1         2 * CHAR(0) INIT('.%.1P%.34O-%.2O,BD=.%P%.18O-%.2O,'),
     1410       21    1         2 * CHAR(0) INIT('%12N=%0.3N[WSR=%.#:7&KD%#:8/='),
     1411       22    1         2 * CHAR(0) INIT('%1?WSQ=%.#:511&KD%#:512/='),
     1412       23    1         2 * CHAR(0) INIT('%?$?%%#!%],FL=.%.#KO,TY=%...32P%.4D%2P%Q');
     1413       24    1   DCL PFMT CHAR(0) CONSTANT
     1414       25    1   INIT('.%.18O-%.2D-%.4D,$%.2N[P%2?A%3?L%??%]S%.10D%2P%Q');
     1415       26
     1416       27        %INCLUDE CP_6;
     1417     5586              %FPT_UNFID (FPTN=FPT_UNFID_CONSTANT,
     1418     5587                          STCLASS=CONSTANT);
     1419     5605
     1420     5606              %FPT_UNFID (STCLASS=AUTO);
     1421     5624              %FPT_ERRMSG (FPTN=FPT_ERRMSG_CONSTANT,
     1422     5625                           STCLASS=CONSTANT, SUBMESS=YES, INCLCODE=NO);
     1423     5652
     1424     5653              %FPT_ERRMSG (STCLASS=AUTO);
     1425     5680
     1426     5681    1   DCL BVEC VECTOR BASED ALIGNED;
PL6.E3A0      #003=XUF$DESC File=XUF$FORMAT.:E05TSI                              WED 07/30/97 09:17 Page:249
     1427     5682        /**/
     1428     5683        %INCLUDE XU_FORMAT_C;
     1429     5845        %F_FDS (NAME=CFDS,NVECS=1,TRUNC=YES,STCLASS=CONSTANT);
     1430     5958        %F_FDS (NAME=AFDS,STCLASS=AUTO);
     1431     6071    1   DCL VECTR BIT(72);
     1432     6072        %EJECT;
PL6.E3A0      #003=XUF$DESC File=XUF$FORMAT.:E05TSI                              WED 07/30/97 09:17 Page:250
     1433     6073    1           VECTR=VECTOR(DFMT);
     1434     6074    1           GOTO FMTDP;
     1435     6075    1   XUF$PTR: ENTRY(DESC,BUF,SIZ);
     1436     6076    1           VECTR=VECTOR(PFMT);
     1437     6077    1   FMTDP:  ;
     1438     6078    1           AFDS=CFDS;
     1439     6079    1           AFDS.VECTR$=ADDR(VECTR);
     1440     6080    1           AFDS.FMT_=VECTR;
     1441     6081    1           VECTR=VECTOR(DESC);
     1442     6082    1           AFDS.BUF_=VECTOR(BUF);
     1443     6083    1           CALL XUF$FORMAT(AFDS);
     1444     6084    1           SIZ=AFDS.BUFX-1;
     1445     6085    1           RETURN;
     1446     6086        %EJECT;
PL6.E3A0      #003=XUF$DESC File=XUF$FORMAT.:E05TSI                              WED 07/30/97 09:17 Page:251
     1447     6087    1   XUF$UNFID: ENTRY (DESC, BUF, SIZ);
     1448     6088        /*
     1449     6089        **    Perform an M$UNFID of DCB# into BUF & SIZ.
     1450     6090        */
     1451     6091    1           FPT_UNFID = FPT_UNFID_CONSTANT;
     1452     6092    1           VBASE(ADDR(FPT_UNFID.V_)->BVEC) = ADDR(FPT_UNFID.V);
     1453     6093    1           FPT_UNFID.V.DCB# = DCB#.N;
     1454     6094    1           IF SIZ = 1 THEN FPT_UNFID.V.FORCE# = '1'B;
     1455     6095    1           FPT_UNFID.TEXTFID_ = VECTOR(BUF);
     1456     6096    1           FPT_UNFID.LEN_ = VECTOR(SIZ);
     1457     6097    2           CALL M$UNFID (FPT_UNFID) WHENALTRETURN DO; END;
     1458     6098    1           RETURN;
     1459     6099        %EJECT;
PL6.E3A0      #003=XUF$DESC File=XUF$FORMAT.:E05TSI                              WED 07/30/97 09:17 Page:252
     1460     6100    1   XUF$ERRMSG: ENTRY (DESC, BUF, SIZ);
     1461     6101    1           FPT_ERRMSG = FPT_ERRMSG_CONSTANT;
     1462     6102    1           VBASE(ADDR(FPT_ERRMSG.V_)->BVEC) = ADDR(FPT_ERRMSG.V);
     1463     6103    1           FPT_ERRMSG.CODE_ = VECTOR (ERRCD.CODE#);
     1464     6104    1           FPT_ERRMSG.V.DCB# = ERRCD.DCB#;
     1465     6105    1           FPT_ERRMSG.BUF_ = VECTOR (BUF);
     1466     6106    1           BUF = ' ';
     1467     6107    2           CALL M$ERRMSG (FPT_ERRMSG) WHENALTRETURN DO;
     1468     6108    2              BUF = ' ';
     1469     6109    2              END;
     1470     6110    1           SIZ = -1;
     1471     6111    2           DO UNTIL SUBSTR(BUF,SIZ)=' ';
     1472     6112    3              CALL INDEX (SIZ, ' ', BUF,SIZ+1) WHENALTRETURN DO;
     1473     6113    3                 RETURN;
     1474     6114    3                 END;
     1475     6115    2              END;
     1476     6116    1           RETURN;
     1477     6117    1   END XUF$DESC;
     1478     6118        %EOD;

PL6.E3A0      #003=XUF$DESC File=XUF$FORMAT.:E05TSI                              WED 07/30/97 09:17 Page:253
--  Include file information  --

   XU_FORMAT_C.:E05TOU  is referenced.
   CP_6_C.:E05TOU  is referenced.
   CP_6.:E05TOU  cannot be made into a system file and is referenced.
      No diagnostics issued in procedure XUF$DESC.

   Procedure XUF$DESC requires 125 words for executable code.
   Procedure XUF$DESC requires 88 words of local(AUTO) storage.

PL6.E3A0      #003=XUF$DESC File=XUF$FORMAT.:E05TSI                              WED 07/30/97 09:17 Page:254

 Object Unit name= XUF$DESC                                   File name= XUF$FORMAT.:E05TOU
 UTS= JUL 30 '97 09:17:09.36 WED                              Compiler= PL-6/E31         Sev=      00
 SharedLib= :SHARED_SYSTEM                                    Alt SharedLib=


    ****  Control sections  ****

 Sect   Type Bound  Init  Size OctSiz  Section name(segment info)
    0  RoData even  UTS    122    172  XUF$DESC
    1   DCB   even  none     0      0  M$UC
    2   Proc  even  none   125    175  XUF$DESC
    3  RoData even  none     6      6  XUF$DESC

    ****  Entry defs  ****

                              Check   Calling
                             calling  sequence
  Sect OctLoc Primary Altret sequence   type   Parms  Name
     2      0   yes            yes      Std        3  XUF$DESC
     2      5                  yes      Std        3  XUF$PTR
     2     42                  yes      Std        3  XUF$UNFID
     2     76                  yes      Std        3  XUF$ERRMSG

  ****  Entry refs  ****

         Check        Calling
        calling       sequence
Altret sequence SRef   type   Args  Name
         yes           Std       1 XUF$FORMAT
                       nStd      0 X66_AUTO_3
                       Std       0 B_CONSPOOL_D
                       nStd      0 X66_ARET
PL6.E3A0      #003=XUF$DESC File=XUF$FORMAT.:E05TSI                              WED 07/30/97 09:17 Page:255

  ****  Data refs  ****

  Flags:  r = read only, s = secondary
Flgs Name                             Flgs Name                             Flgs Name
     M$UC                                  B_VECTNIL

  ****  Segment refs  ****

  Flags:  r = read only, s = secondary
Flgs Name                             Flgs Name                             Flgs Name
     ISSID                                 NULLSID
PL6.E3A0      #003=XUF$DESC File=XUF$FORMAT.:E05TSI                              WED 07/30/97 09:17 Page:256


     1390        1        /*T***********************************************************/
     1391        2        /*T*                                                         */
     1392        3        /*T* Copyright (c) Bull HN Information Systems Inc., 1997    */
     1393        4        /*T*                                                         */
     1394        5        /*T***********************************************************/
     1395        6        XUF$DESC: PROC(DESC,BUF,SIZ);

      6  2 000000   000000 700200 xent  XUF$DESC     TSX0  ! X66_AUTO_3
         2 000001   000130 000003                    ZERO    88,3

     1396        7    1   DCL DESC VECTOR;
     1397        8    1   DCL 1 DCB# REDEF DESC,
     1398        9    1         2 N UBIN,
     1399       10    1         2 * UBIN;
     1400       11    1   DCL 1 ERRCD REDEF DESC,
     1401       12    1         2 CODE# BIT(36),
     1402       13    1         2 DCB# SBIN;
     1403       14    1   DCL BUF CHAR(120);
     1404       15    1   DCL SIZ SBIN;
     1405       16        /**/
     1406       17    1   DCL XUF$FORMAT ENTRY(1);
     1407       18        /**/
     1408       19    1   DCL 1 DFMT CONSTANT,
     1409       20    1         2 * CHAR(0) INIT('.%.1P%.34O-%.2O,BD=.%P%.18O-%.2O,'),
     1410       21    1         2 * CHAR(0) INIT('%12N=%0.3N[WSR=%.#:7&KD%#:8/='),
     1411       22    1         2 * CHAR(0) INIT('%1?WSQ=%.#:511&KD%#:512/='),
     1412       23    1         2 * CHAR(0) INIT('%?$?%%#!%],FL=.%.#KO,TY=%...32P%.4D%2P%Q');
     1413       24    1   DCL PFMT CHAR(0) CONSTANT
     1414       25    1   INIT('.%.18O-%.2D-%.4D,$%.2N[P%2?A%3?L%??%]S%.10D%2P%Q');
     1415       26
     1416       27        %INCLUDE CP_6;
     1417     5586              %FPT_UNFID (FPTN=FPT_UNFID_CONSTANT,
     1418     5587                          STCLASS=CONSTANT);
     1419     5605
     1420     5606              %FPT_UNFID (STCLASS=AUTO);
     1421     5624              %FPT_ERRMSG (FPTN=FPT_ERRMSG_CONSTANT,
PL6.E3A0      #003=XUF$DESC File=XUF$FORMAT.:E05TSI                              WED 07/30/97 09:17 Page:257
     1422     5625                           STCLASS=CONSTANT, SUBMESS=YES, INCLCODE=NO);
     1423     5652
     1424     5653              %FPT_ERRMSG (STCLASS=AUTO);
     1425     5680
     1426     5681    1   DCL BVEC VECTOR BASED ALIGNED;
     1427     5682        /**/
     1428     5683        %INCLUDE XU_FORMAT_C;
     1429     5845        %F_FDS (NAME=CFDS,NVECS=1,TRUNC=YES,STCLASS=CONSTANT);
     1430     5958        %F_FDS (NAME=AFDS,STCLASS=AUTO);
     1431     6071    1   DCL VECTR BIT(72);
     1432     6072        %EJECT;
PL6.E3A0      #003=XUF$DESC File=XUF$FORMAT.:E05TSI                              WED 07/30/97 09:17 Page:258
     1433     6073    1           VECTR=VECTOR(DFMT);

   6073  2 000002   000000 237000 3                  LDAQ    0
         2 000003   200124 757100                    STAQ    VECTR,,AUTO

     1434     6074    1           GOTO FMTDP;

   6074  2 000004   000011 710000 2                  TRA     FMTDP

     1435     6075    1   XUF$PTR: ENTRY(DESC,BUF,SIZ);

   6075  2 000005   000000 700200 xent  XUF$PTR      TSX0  ! X66_AUTO_3
         2 000006   000130 000003                    ZERO    88,3

     1436     6076    1           VECTR=VECTOR(PFMT);

   6076  2 000007   000002 237000 3                  LDAQ    2
         2 000010   200124 757100                    STAQ    VECTR,,AUTO

   6076  2 000011                       FMTDP        null
     1437     6077    1   FMTDP:  ;
     1438     6078    1           AFDS=CFDS;

   6078  2 000011   000100 100400                    MLR     fill='000'O
         2 000012   000134 000170 0                  ADSC9   CFDS                     cn=0,n=120
         2 000013   200066 000170                    ADSC9   AFDS,,AUTO               cn=0,n=120

     1439     6079    1           AFDS.VECTR$=ADDR(VECTR);

   6079  2 000014   200124 630500                    EPPR0   VECTR,,AUTO
         2 000015   200100 450500                    STP0    AFDS+10,,AUTO

     1440     6080    1           AFDS.FMT_=VECTR;

   6080  2 000016   200124 237100                    LDAQ    VECTR,,AUTO
         2 000017   200066 757100                    STAQ    AFDS,,AUTO

PL6.E3A0      #003=XUF$DESC File=XUF$FORMAT.:E05TSI                              WED 07/30/97 09:17 Page:259
     1441     6081    1           VECTR=VECTOR(DESC);

   6081  2 000020   000004 235000 3                  LDA     4
         2 000021   200003 236100                    LDQ     @DESC,,AUTO
         2 000022   200124 757100                    STAQ    VECTR,,AUTO

     1442     6082    1           AFDS.BUF_=VECTOR(BUF);

   6082  2 000023   000005 235000 3                  LDA     5
         2 000024   200004 236100                    LDQ     @BUF,,AUTO
         2 000025   200073 755100                    STA     AFDS+5,,AUTO
         2 000026   200074 756100                    STQ     AFDS+6,,AUTO

     1443     6083    1           CALL XUF$FORMAT(AFDS);

   6083  2 000027   200066 631500                    EPPR1   AFDS,,AUTO
         2 000030   200126 451500                    STP1    VECTR+2,,AUTO
         2 000031   200126 630500                    EPPR0   VECTR+2,,AUTO
         2 000032   000017 631400 xsym               EPPR1   B_VECTNIL+15
         2 000033   000000 701000 xent               TSX1    XUF$FORMAT
         2 000034   000000 011000                    NOP     0

     1444     6084    1           SIZ=AFDS.BUFX-1;

   6084  2 000035   200005 470500                    LDP0    @SIZ,,AUTO
         2 000036   200075 235100                    LDA     AFDS+7,,AUTO
         2 000037   000001 135007                    SBLA    1,DL
         2 000040   000000 755100                    STA     0,,PR0

     1445     6085    1           RETURN;

   6085  2 000041   000000 702200 xent               TSX2  ! X66_ARET

     1446     6086        %EJECT;
PL6.E3A0      #003=XUF$DESC File=XUF$FORMAT.:E05TSI                              WED 07/30/97 09:17 Page:260
     1447     6087    1   XUF$UNFID: ENTRY (DESC, BUF, SIZ);

   6087  2 000042   000000 700200 xent  XUF$UNFID    TSX0  ! X66_AUTO_3
         2 000043   000130 000003                    ZERO    88,3

     1448     6088        /*
     1449     6089        **    Perform an M$UNFID of DCB# into BUF & SIZ.
     1450     6090        */
     1451     6091    1           FPT_UNFID = FPT_UNFID_CONSTANT;

   6091  2 000044   000100 100400                    MLR     fill='000'O
         2 000045   000054 000130 0                  ADSC9   FPT_UNFID_CONSTANT       cn=0,n=88
         2 000046   200006 000130                    ADSC9   FPT_UNFID,,AUTO          cn=0,n=88

     1452     6092    1           VBASE(ADDR(FPT_UNFID.V_)->BVEC) = ADDR(FPT_UNFID.V);

   6092  2 000047   200032 630500                    EPPR0   FPT_UNFID+20,,AUTO
         2 000050   200007 450500                    STP0    FPT_UNFID+1,,AUTO

     1453     6093    1           FPT_UNFID.V.DCB# = DCB#.N;

   6093  2 000051   200003 471500                    LDP1    @DESC,,AUTO
         2 000052   100000 720100                    LXL0    0,,PR1
         2 000053   200032 740100                    STX0    FPT_UNFID+20,,AUTO

     1454     6094    1           IF SIZ = 1 THEN FPT_UNFID.V.FORCE# = '1'B;

   6094  2 000054   200005 473500                    LDP3    @SIZ,,AUTO
         2 000055   300000 235100                    LDA     0,,PR3
         2 000056   000001 115007                    CMPA    1,DL
         2 000057   000062 601000 2                  TNZ     s:6095

   6094  2 000060   400000 236007                    LDQ     -131072,DL
         2 000061   200032 256100                    ORSQ    FPT_UNFID+20,,AUTO

     1455     6095    1           FPT_UNFID.TEXTFID_ = VECTOR(BUF);

PL6.E3A0      #003=XUF$DESC File=XUF$FORMAT.:E05TSI                              WED 07/30/97 09:17 Page:261
   6095  2 000062   000005 235000 3                  LDA     5
         2 000063   200004 236100                    LDQ     @BUF,,AUTO
         2 000064   200010 757100                    STAQ    FPT_UNFID+2,,AUTO

     1456     6096    1           FPT_UNFID.LEN_ = VECTOR(SIZ);

   6096  2 000065   777640 235007                    LDA     -96,DL
         2 000066   200005 236100                    LDQ     @SIZ,,AUTO
         2 000067   200030 757100                    STAQ    FPT_UNFID+18,,AUTO

     1457     6097    2           CALL M$UNFID (FPT_UNFID) WHENALTRETURN DO; END;

   6097  2 000070   200006 630500                    EPPR0   FPT_UNFID,,AUTO
         2 000071   420021 713400                    CLIMB   alt,+8209
         2 000072   404400 401760                    pmme    nvectors=10
         2 000073   000075 702000 2                  TSX2    s:6098
         2 000074   000075 710000 2                  TRA     s:6098

     1458     6098    1           RETURN;

   6098  2 000075   000000 702200 xent               TSX2  ! X66_ARET

     1459     6099        %EJECT;
PL6.E3A0      #003=XUF$DESC File=XUF$FORMAT.:E05TSI                              WED 07/30/97 09:17 Page:262
     1460     6100    1   XUF$ERRMSG: ENTRY (DESC, BUF, SIZ);

   6100  2 000076   000000 700200 xent  XUF$ERRMSG   TSX0  ! X66_AUTO_3
         2 000077   000130 000003                    ZERO    88,3

     1461     6101    1           FPT_ERRMSG = FPT_ERRMSG_CONSTANT;

   6101  2 000100   000100 100400                    MLR     fill='000'O
         2 000101   000102 000150 0                  ADSC9   FPT_ERRMSG_CONSTANT      cn=0,n=104
         2 000102   200034 000150                    ADSC9   FPT_ERRMSG,,AUTO         cn=0,n=104

     1462     6102    1           VBASE(ADDR(FPT_ERRMSG.V_)->BVEC) = ADDR(FPT_ERRMSG.V);

   6102  2 000103   200062 630500                    EPPR0   FPT_ERRMSG+22,,AUTO
         2 000104   200035 450500                    STP0    FPT_ERRMSG+1,,AUTO

     1463     6103    1           FPT_ERRMSG.CODE_ = VECTOR (ERRCD.CODE#);

   6103  2 000105   777640 235007                    LDA     -96,DL
         2 000106   200003 236100                    LDQ     @DESC,,AUTO
         2 000107   200036 757100                    STAQ    FPT_ERRMSG+2,,AUTO

     1464     6104    1           FPT_ERRMSG.V.DCB# = ERRCD.DCB#;

   6104  2 000110   200003 471500                    LDP1    @DESC,,AUTO
         2 000111   100001 720100                    LXL0    1,,PR1
         2 000112   200062 740100                    STX0    FPT_ERRMSG+22,,AUTO

     1465     6105    1           FPT_ERRMSG.BUF_ = VECTOR (BUF);

   6105  2 000113   000005 235000 3                  LDA     5
         2 000114   200004 236100                    LDQ     @BUF,,AUTO
         2 000115   200040 757100                    STAQ    FPT_ERRMSG+4,,AUTO

     1466     6106    1           BUF = ' ';

   6106  2 000116   200004 473500                    LDP3    @BUF,,AUTO
PL6.E3A0      #003=XUF$DESC File=XUF$FORMAT.:E05TSI                              WED 07/30/97 09:17 Page:263
         2 000117   040100 100400                    MLR     fill='040'O
         2 000120   000035 000001 xsym               ADSC9   B_VECTNIL+29             cn=0,n=1
         2 000121   300000 000170                    ADSC9   0,,PR3                   cn=0,n=120

     1467     6107    2           CALL M$ERRMSG (FPT_ERRMSG) WHENALTRETURN DO;

   6107  2 000122   200034 630500                    EPPR0   FPT_ERRMSG,,AUTO
         2 000123   420000 713400                    CLIMB   alt,+8192
         2 000124   405000 401760                    pmme    nvectors=11
         2 000125   000127 702000 2                  TSX2    s:6108
         2 000126   000133 710000 2                  TRA     s:6110

     1468     6108    2              BUF = ' ';

   6108  2 000127   200004 470500                    LDP0    @BUF,,AUTO
         2 000130   040100 100400                    MLR     fill='040'O
         2 000131   000035 000001 xsym               ADSC9   B_VECTNIL+29             cn=0,n=1
         2 000132   000000 000170                    ADSC9   0,,PR0                   cn=0,n=120

     1469     6109    2              END;

     1470     6110    1           SIZ = -1;

   6110  2 000133   000001 335007                    LCA     1,DL
         2 000134   200005 470500                    LDP0    @SIZ,,AUTO
         2 000135   000000 755100                    STA     0,,PR0

     1471     6111    2           DO UNTIL SUBSTR(BUF,SIZ)=' ';

     1472     6112    3              CALL INDEX (SIZ, ' ', BUF,SIZ+1) WHENALTRETURN DO;

   6112  2 000136   200005 470500                    LDP0    @SIZ,,AUTO
         2 000137   000000 235100                    LDA     0,,PR0
         2 000140   200126 755100                    STA     VECTR+2,,AUTO
         2 000141   000000 235100                    LDA     0,,PR0
         2 000142   000027 675000 xsym               ERA     B_VECTNIL+23
         2 000143   000170 035007                    ADLA    120,DL
PL6.E3A0      #003=XUF$DESC File=XUF$FORMAT.:E05TSI                              WED 07/30/97 09:17 Page:264
         2 000144   000000 236100                    LDQ     0,,PR0
         2 000145   000001 036007                    ADLQ    1,DL
         2 000146   200004 471500                    LDP1    @BUF,,AUTO
         2 000147   000000 620005                    EAX0    0,AL
         2 000150   200126 235100                    LDA     VECTR+2,,AUTO
         2 000151   000000 124545                    SCM     mask='000'O
         2 000152   100000 200010                    ADSC9   0,A,PR1                  cn=1,n=*X0
         2 000153   000035 000001 xsym               ADSC9   B_VECTNIL+29             cn=0,n=1
         2 000154   000000 000100                    ARG     0,,PR0
         2 000155   000000 056100                    ASQ     0,,PR0
         2 000156   000160 606400 2                  TTN     s:6113
         2 000157   000161 710000 2                  TRA     s:6115

     1473     6113    3                 RETURN;

   6113  2 000160   000000 702200 xent               TSX2  ! X66_ARET

     1474     6114    3                 END;
     1475     6115    2              END;

   6115  2 000161   000000 235100                    LDA     0,,PR0
         2 000162   200126 755100                    STA     VECTR+2,,AUTO
         2 000163   000000 235100                    LDA     0,,PR0
         2 000164   000027 675000 xsym               ERA     B_VECTNIL+23
         2 000165   000171 035007                    ADLA    121,DL
         2 000166   000000 620005                    EAX0    0,AL
         2 000167   200126 235100                    LDA     VECTR+2,,AUTO
         2 000170   040000 106545                    CMPC    fill='040'O
         2 000171   100000 000010                    ADSC9   0,A,PR1                  cn=0,n=*X0
         2 000172   000035 000001 xsym               ADSC9   B_VECTNIL+29             cn=0,n=1
         2 000173   000136 601000 2                  TNZ     s:6112

     1476     6116    1           RETURN;

   6116  2 000174   000000 702200 xent               TSX2  ! X66_ARET
     1477     6117    1   END XUF$DESC;
     1478     6118        %EOD;
PL6.E3A0      #003=XUF$DESC File=XUF$FORMAT.:E05TSI                              WED 07/30/97 09:17 Page:265

PL6.E3A0      #003=XUF$DESC File=XUF$FORMAT.:E05TSI                              WED 07/30/97 09:17 Page:266
--  Include file information  --

   XU_FORMAT_C.:E05TOU  is referenced.
   CP_6_C.:E05TOU  is referenced.
   CP_6.:E05TOU  cannot be made into a system file and is referenced.
      No diagnostics issued in procedure XUF$DESC.
PL6.E3A0      #003=XUF$DESC File=XUF$FORMAT.:E05TSI                              WED 07/30/97 09:17 Page:267

 **** Variables and constants ****

  ****  Section 000 RoData XUF$DESC

  ****  Scalars and arrays  ****
OctLoc.c.b A Datatyp(siz) R M Lvl/name                 OctLoc.c.b A Datatyp(siz) R M Lvl/name

   134-0-0/w STRC(1080)  r     1 CFDS                       0-0-0/c STRC(1143)  r     1 DFMT
   102-0-0/d STRC(936)   r     1 FPT_ERRMSG_CONSTANT       54-0-0/d STRC(792)   r     1 FPT_UNFID_CONSTANT
    40-0-0/c CHAR(48)    r     1 PFMT

  ****  Auto variables  ****

  ****  Scalars and arrays  ****
OctLoc.c.b A Datatyp(siz) R M Lvl/name                 OctLoc.c.b A Datatyp(siz) R M Lvl/name

     4-0-0/w PTR         r     1 @BUF                       3-0-0/w PTR         r     1 @DESC
     5-0-0/w PTR         r     1 @SIZ                      66-0-0/w STRC(1080)  r     1 AFDS
    *0-0-0/c CHAR(120)   r     1 BUF                       *0-0-0/d STRC(72)    r     1 DCB#
    *0-0-0/d VECT        r     1 DESC                      *0-0-0/d STRC(72)    r     1 ERRCD
    34-0-0/d STRC(936)   r     1 FPT_ERRMSG                 6-0-0/d STRC(792)   r     1 FPT_UNFID
    *0-0-0/w SBIN        r     1 SIZ                      124-0-0/b BIT (72)    r     1 VECTR

  ****  BASED and DCB variables  ****

  ****  Scalars and arrays  ****
OctLoc.c.b A Datatyp(siz) R M Lvl/name                 OctLoc.c.b A Datatyp(siz) R M Lvl/name

     0-0-0/w VECT        r     1 BVEC


   Procedure XUF$DESC requires 125 words for executable code.
   Procedure XUF$DESC requires 88 words of local(AUTO) storage.
PL6.E3A0      #003=XUF$DESC File=XUF$FORMAT.:E05TSI                              WED 07/30/97 09:17 Page:268
          *** CROSS REFERENCE LISTING ***
**     DENOTES     IDENTIFIER DEFINITION
<<                 IDENTIFIER'S VALUE SET
>>                 IDENTIFIER'S VALUE USED
<>                 IDENTIFIER SET AND/OR USED
--                 IDENTIFIER REFERENCED
PL6.E3A0      #003=XUF$DESC File=XUF$FORMAT.:E05TSI                              WED 07/30/97 09:17 Page:269
          MINI XREF LISTING

AFDS
      5972**DCL      6078<<ASSIGN   6083<>CALL
AFDS.BUFX
      5996**DCL      6084>>ASSIGN
AFDS.BUF_
      5989**DCL      6082<<ASSIGN
AFDS.FMT_
      5976**DCL      6080<<ASSIGN
AFDS.VECTR$
      6002**DCL      6079<<ASSIGN
BUF
        14**DCL         6--PROC     6075--ENTRY    6082--ASSIGN   6087--ENTRY    6095--ASSIGN   6100--ENTRY
      6105--ASSIGN   6106<<ASSIGN   6108<<ASSIGN   6111>>DOUNTIL  6112>>CALLBLT
BVEC
      5681**DCL      6092<<ASSIGN   6102<<ASSIGN
CFDS
      5859**DCL      6078>>ASSIGN
DCB#.N
         9**DCL      6093>>ASSIGN
DESC
         7**DCL         6--PROC        8--REDEF      11--REDEF    6075--ENTRY    6081--ASSIGN   6087--ENTRY
      6100--ENTRY
DFMT
        19**DCL      6073--ASSIGN
ERRCD.CODE#
        12**DCL      6103--ASSIGN
ERRCD.DCB#
        13**DCL      6104>>ASSIGN
FMTDP
      6076**LABEL    6074--GOTO
FPT_ERRMSG
      5664**DCL      6101<<ASSIGN   6107<>CALL
PL6.E3A0      #003=XUF$DESC File=XUF$FORMAT.:E05TSI                              WED 07/30/97 09:17 Page:270
FPT_ERRMSG.BUF_
      5664**DCL      6105<<ASSIGN
FPT_ERRMSG.CODE_
      5664**DCL      6103<<ASSIGN
FPT_ERRMSG.V
      5668**DCL      6102--ASSIGN
FPT_ERRMSG.V.DCB#
      5668**DCL      6104<<ASSIGN
FPT_ERRMSG.V_
      5664**DCL      6102--ASSIGN
FPT_ERRMSG_CONSTANT
      5636**DCL      6101>>ASSIGN
FPT_ERRMSG_CONSTANT.V
      5640**DCL      5636--DCLINIT
FPT_UNFID
      5617**DCL      6091<<ASSIGN   6097<>CALL
FPT_UNFID.LEN_
      5620**DCL      6096<<ASSIGN
FPT_UNFID.TEXTFID_
      5617**DCL      6095<<ASSIGN
FPT_UNFID.V
      5621**DCL      6092--ASSIGN
FPT_UNFID.V.DCB#
      5621**DCL      6093<<ASSIGN
FPT_UNFID.V.FORCE#
      5621**DCL      6094<<ASSIGN
FPT_UNFID.V_
      5617**DCL      6092--ASSIGN
FPT_UNFID_CONSTANT
      5598**DCL      6091>>ASSIGN
FPT_UNFID_CONSTANT.V
      5602**DCL      5598--DCLINIT
M$ERRMSG
      5577**DCL-ENT  6107--CALL
M$UNFID
      5577**DCL-ENT  6097--CALL
PL6.E3A0      #003=XUF$DESC File=XUF$FORMAT.:E05TSI                              WED 07/30/97 09:17 Page:271
PFMT
        24**DCL      6076--ASSIGN
SIZ
        15**DCL         6--PROC     6075--ENTRY    6084<<ASSIGN   6087--ENTRY    6094>>IF       6096--ASSIGN
      6100--ENTRY    6110<<ASSIGN   6111>>DOUNTIL  6112<<CALLBLT  6112>>CALLBLT
VECTR
      6071**DCL      6073<<ASSIGN   6076<<ASSIGN   6079--ASSIGN   6080>>ASSIGN   6081<<ASSIGN
XUF$FORMAT
        17**DCL-ENT  6083--CALL

PL6.E3A0      #004=XUF$WRITE File=XUF$FORMAT.:E05TSI                             WED 07/30/97 09:17 Page:272
     1479        1        /*T***********************************************************/
     1480        2        /*T*                                                         */
     1481        3        /*T* Copyright (c) Bull HN Information Systems Inc., 1997    */
     1482        4        /*T*                                                         */
     1483        5        /*T***********************************************************/
     1484        6        XUF$WRITE: PROC(FDS,FMTVEC,P1,P2,P3,P4,P5,P6,P7,P8,P9,P10,P11,P12,P13,P14,P15,P16,
                 6            P17,P18,P19,P20);
     1485        7        /*P*    NAME:    XUF$WRITE
     1486        8                PURPOSE: MAKE IT EASIER TO CALL X$FORMAT
     1487        9        */
     1488       10        /*D*    NAME:    XUF$WRITE
     1489       11                CALL:    CALL XUF$WRITE(FDS,FMTVEC[,VEC1[,VEC2[,...,VEC20]]]);
     1490       12                         CALL X$WRITE(the same thing);
     1491       13                         NOTE:  DCL X$WRITE EPTR SYMREF
     1492       14                                (This is a trick so it can have a variable
     1493       15                                 number of arguments.)
     1494       16                INPUT:
     1495       17                         FDS - AN FDS WITH EVERYTHING BUT FMT_, VECTR$ AND
     1496       18                               NVECS# SPECIFIED.
     1497       19                         FMTVEC - VECTOR FRAMING FORMAT.
     1498       20                         VECn - A VECTOR FRAMING SOME DATA
     1499       21                DESCRIPTION:
     1500       22                   Builds an array of data vectors from VECn,  points
     1501       23                   FDS.VECTR$ to it,  fills in FDS.NVECS# and FDS.FMT_,
     1502       24                   and calls X$FORMAT.
     1503       25        */
     1504       26        %EJECT;
PL6.E3A0      #004=XUF$WRITE File=XUF$FORMAT.:E05TSI                             WED 07/30/97 09:17 Page:273
     1505       27    1   DCL FMTVEC BIT(72) ALIGNED;
     1506       28    1   DCL P1 BIT(72) ALIGNED;
     1507       29    1   DCL P2 BIT(72) ALIGNED;
     1508       30    1   DCL P3 BIT(72) ALIGNED;
     1509       31    1   DCL P4 BIT(72) ALIGNED;
     1510       32    1   DCL P5 BIT(72) ALIGNED;
     1511       33    1   DCL P6 BIT(72) ALIGNED;
     1512       34    1   DCL P7 BIT(72) ALIGNED;
     1513       35    1   DCL P8 BIT(72) ALIGNED;
     1514       36    1   DCL P9 BIT(72) ALIGNED;
     1515       37    1   DCL P10 BIT(72) ALIGNED;
     1516       38    1   DCL P11 BIT(72) ALIGNED;
     1517       39    1   DCL P12 BIT(72) ALIGNED;
     1518       40    1   DCL P13 BIT(72) ALIGNED;
     1519       41    1   DCL P14 BIT(72) ALIGNED;
     1520       42    1   DCL P15 BIT(72) ALIGNED;
     1521       43    1   DCL P16 BIT(72) ALIGNED;
     1522       44    1   DCL P17 BIT(72) ALIGNED;
     1523       45    1   DCL P18 BIT(72) ALIGNED;
     1524       46    1   DCL P19 BIT(72) ALIGNED;
     1525       47    1   DCL P20 BIT(72) ALIGNED;
     1526       48        /**/
     1527       49        %INCLUDE XU_FORMAT_C;
     1528      211        %F_FDS (NAME=FDS,STCLASS="");
     1529      324    1   DCL X$FORMAT ENTRY(1);
     1530      325        /**/
     1531      326        %INCLUDE B_SEGIDS_C;
     1532      865    1   DCL 1 X1$ CONSTANT ALIGNED,
     1533      866    1         2 ADR BIT(24) INIT('0'B),
     1534      867    1         2 SEGID BIT(12) INIT(%AUTOSID);
     1535      868    1   DCL AUTO$ REDEF X1$ PTR;
     1536      869    1   DCL 1 STK BASED(AUTO$) ALIGNED,
     1537      870    1         2 * SBIN HALF UNAL,
     1538      871    1         2 OFFSET SBIN HALF UNAL;
     1539      872    1   DCL ARG$ PTR;
     1540      873    1   DCL P$ PTR BASED;
     1541      874    1   DCL DATAPTR$(0:19) PTR BASED(ARG$);
PL6.E3A0      #004=XUF$WRITE File=XUF$FORMAT.:E05TSI                             WED 07/30/97 09:17 Page:274
     1542      875    1   DCL DATAVEC BIT(72) BASED ALIGNED;
     1543      876    1   DCL I SBIN;
     1544      877    1   DCL VECTR(0:19) BIT(72);
     1545      878        %EJECT;
PL6.E3A0      #004=XUF$WRITE File=XUF$FORMAT.:E05TSI                             WED 07/30/97 09:17 Page:275
     1546      879    1   X$WRITE: ENTRY(FDS,FMTVEC,P1,P2,P3,P4,P5,P6,P7,P8,P9,P10,P11,P12,P13,P14,P15,P16,P17
               879            ,P18,P19,P20);
     1547      880    1           ARG$=PINCRW(AUTO$,4-STK.OFFSET);
     1548      881    1           FDS.FMT_=FMTVEC;
     1549      882    1           I=0;
     1550      883    2           DO WHILE(I<20 AND DATAPTR$(I)~=ADDR(NIL));
     1551      884    2              VECTR(I)=DATAPTR$(I)->DATAVEC;
     1552      885    2              I=I+1;
     1553      886    2              END;
     1554      887    1           FDS.VECTR$=ADDR(VECTR);
     1555      888    1           FDS.NVECS#=I;
     1556      889    1           CALL X$FORMAT(FDS);
     1557      890    1           RETURN;
     1558      891    1   END XUF$WRITE;

PL6.E3A0      #004=XUF$WRITE File=XUF$FORMAT.:E05TSI                             WED 07/30/97 09:17 Page:276
--  Include file information  --

   B_SEGIDS_C.:E05TOU  is referenced.
   XU_FORMAT_C.:E05TOU  is referenced.
      No diagnostics issued in procedure XUF$WRITE.

   Procedure XUF$WRITE requires 45 words for executable code.
   Procedure XUF$WRITE requires 68 words of local(AUTO) storage.

    No errors detected in file XUF$FORMAT.:E05TSI    .

PL6.E3A0      #004=XUF$WRITE File=XUF$FORMAT.:E05TSI                             WED 07/30/97 09:17 Page:277

 Object Unit name= XUF$WRITE                                  File name= XUF$FORMAT.:E05TOU
 UTS= JUL 30 '97 09:17:31.08 WED                              Compiler= PL-6/E31         Sev=      00
 SharedLib= :SHARED_SYSTEM                                    Alt SharedLib=


    ****  Control sections  ****

 Sect   Type Bound  Init  Size OctSiz  Section name(segment info)
    0  RoData even  UTS      1      1  XUF$WRITE
    1   Proc  even  none    45     55  XUF$WRITE

    ****  Entry defs  ****

                              Check   Calling
                             calling  sequence
  Sect OctLoc Primary Altret sequence   type   Parms  Name
     1      0   yes            yes      Std       22  XUF$WRITE
     1      3                  yes      Std       22  X$WRITE

  ****  Entry refs  ****

         Check        Calling
        calling       sequence
Altret sequence SRef   type   Args  Name
         yes           Std       1 X$FORMAT
                       nStd      0 X66_AUTO_N
                       Std       0 B_CONSPOOL_D
                       nStd      0 X66_ARET

  ****  Data refs  ****

  Flags:  r = read only, s = secondary
Flgs Name                             Flgs Name                             Flgs Name
     B_VECTNIL
PL6.E3A0      #004=XUF$WRITE File=XUF$FORMAT.:E05TSI                             WED 07/30/97 09:17 Page:278


     1479        1        /*T***********************************************************/
     1480        2        /*T*                                                         */
     1481        3        /*T* Copyright (c) Bull HN Information Systems Inc., 1997    */
     1482        4        /*T*                                                         */
     1483        5        /*T***********************************************************/
     1484        6        XUF$WRITE: PROC(FDS,FMTVEC,P1,P2,P3,P4,P5,P6,P7,P8,P9,P10,P11,P12,P13,P14,P15,P16,
                 6            P17,P18,P19,P20);

      6  1 000000   000000 700200 xent  XUF$WRITE    TSX0  ! X66_AUTO_N
         1 000001   000104 000026                    ZERO    68,22
         1 000002   000005 710000 1                  TRA     s:880

     1485        7        /*P*    NAME:    XUF$WRITE
     1486        8                PURPOSE: MAKE IT EASIER TO CALL X$FORMAT
     1487        9        */
     1488       10        /*D*    NAME:    XUF$WRITE
     1489       11                CALL:    CALL XUF$WRITE(FDS,FMTVEC[,VEC1[,VEC2[,...,VEC20]]]);
     1490       12                         CALL X$WRITE(the same thing);
     1491       13                         NOTE:  DCL X$WRITE EPTR SYMREF
     1492       14                                (This is a trick so it can have a variable
     1493       15                                 number of arguments.)
     1494       16                INPUT:
     1495       17                         FDS - AN FDS WITH EVERYTHING BUT FMT_, VECTR$ AND
     1496       18                               NVECS# SPECIFIED.
     1497       19                         FMTVEC - VECTOR FRAMING FORMAT.
     1498       20                         VECn - A VECTOR FRAMING SOME DATA
     1499       21                DESCRIPTION:
     1500       22                   Builds an array of data vectors from VECn,  points
     1501       23                   FDS.VECTR$ to it,  fills in FDS.NVECS# and FDS.FMT_,
     1502       24                   and calls X$FORMAT.
     1503       25        */
     1504       26        %EJECT;
PL6.E3A0      #004=XUF$WRITE File=XUF$FORMAT.:E05TSI                             WED 07/30/97 09:17 Page:279
     1505       27    1   DCL FMTVEC BIT(72) ALIGNED;
     1506       28    1   DCL P1 BIT(72) ALIGNED;
     1507       29    1   DCL P2 BIT(72) ALIGNED;
     1508       30    1   DCL P3 BIT(72) ALIGNED;
     1509       31    1   DCL P4 BIT(72) ALIGNED;
     1510       32    1   DCL P5 BIT(72) ALIGNED;
     1511       33    1   DCL P6 BIT(72) ALIGNED;
     1512       34    1   DCL P7 BIT(72) ALIGNED;
     1513       35    1   DCL P8 BIT(72) ALIGNED;
     1514       36    1   DCL P9 BIT(72) ALIGNED;
     1515       37    1   DCL P10 BIT(72) ALIGNED;
     1516       38    1   DCL P11 BIT(72) ALIGNED;
     1517       39    1   DCL P12 BIT(72) ALIGNED;
     1518       40    1   DCL P13 BIT(72) ALIGNED;
     1519       41    1   DCL P14 BIT(72) ALIGNED;
     1520       42    1   DCL P15 BIT(72) ALIGNED;
     1521       43    1   DCL P16 BIT(72) ALIGNED;
     1522       44    1   DCL P17 BIT(72) ALIGNED;
     1523       45    1   DCL P18 BIT(72) ALIGNED;
     1524       46    1   DCL P19 BIT(72) ALIGNED;
     1525       47    1   DCL P20 BIT(72) ALIGNED;
     1526       48        /**/
     1527       49        %INCLUDE XU_FORMAT_C;
     1528      211        %F_FDS (NAME=FDS,STCLASS="");
     1529      324    1   DCL X$FORMAT ENTRY(1);
     1530      325        /**/
     1531      326        %INCLUDE B_SEGIDS_C;
     1532      865    1   DCL 1 X1$ CONSTANT ALIGNED,
     1533      866    1         2 ADR BIT(24) INIT('0'B),
     1534      867    1         2 SEGID BIT(12) INIT(%AUTOSID);
     1535      868    1   DCL AUTO$ REDEF X1$ PTR;
     1536      869    1   DCL 1 STK BASED(AUTO$) ALIGNED,
     1537      870    1         2 * SBIN HALF UNAL,
     1538      871    1         2 OFFSET SBIN HALF UNAL;
     1539      872    1   DCL ARG$ PTR;
     1540      873    1   DCL P$ PTR BASED;
     1541      874    1   DCL DATAPTR$(0:19) PTR BASED(ARG$);
PL6.E3A0      #004=XUF$WRITE File=XUF$FORMAT.:E05TSI                             WED 07/30/97 09:17 Page:280
     1542      875    1   DCL DATAVEC BIT(72) BASED ALIGNED;
     1543      876    1   DCL I SBIN;
     1544      877    1   DCL VECTR(0:19) BIT(72);
     1545      878        %EJECT;
PL6.E3A0      #004=XUF$WRITE File=XUF$FORMAT.:E05TSI                             WED 07/30/97 09:17 Page:281
     1546      879    1  X$WRITE: ENTRY(FDS,FMTVEC,P1,P2,P3,P4,P5,P6,P7,P8,P9,P10,P11,P12,P13,P14,P15,P16,P17
               879            ,P18,P19,P20);

    879  1 000003   000000 700200 xent  X$WRITE      TSX0  ! X66_AUTO_N
         1 000004   000104 000026                    ZERO    68,22

     1547      880    1           ARG$=PINCRW(AUTO$,4-STK.OFFSET);

    880  1 000005   000000 470400 0                  LDP0    X1$
         1 000006   000000 720100                    LXL0    0,,PR0
         1 000007   777773 636010                    EAQ     -5,X0
         1 000010   777777 676003                    ERQ     -1,DU
         1 000011   000000 036000 0                  ADLQ    X1$
         1 000012   200031 756100                    STQ     ARG$,,AUTO

     1548      881    1           FDS.FMT_=FMTVEC;

    881  1 000013   200004 471500                    LDP1    @FMTVEC,,AUTO
         1 000014   200003 473500                    LDP3    @FDS,,AUTO
         1 000015   000100 100500                    MLR     fill='000'O
         1 000016   100000 000010                    ADSC9   0,,PR1                   cn=0,n=8
         1 000017   300000 000010                    ADSC9   0,,PR3                   cn=0,n=8

     1549      882    1           I=0;

    882  1 000020   200032 450100                    STZ     I,,AUTO

     1550      883    2           DO WHILE(I<20 AND DATAPTR$(I)~=ADDR(NIL));

    883  1 000021   000034 710000 1                  TRA     s:886

     1551      884    2              VECTR(I)=DATAPTR$(I)->DATAVEC;

    884  1 000022   200032 235100                    LDA     I,,AUTO
         1 000023   000001 735000                    ALS     1
         1 000024   200031 470500                    LDP0    ARG$,,AUTO
         1 000025   200032 720100                    LXL0    I,,AUTO
PL6.E3A0      #004=XUF$WRITE File=XUF$FORMAT.:E05TSI                             WED 07/30/97 09:17 Page:282
         1 000026   000000 471510                    LDP1    0,X0,PR0
         1 000027   000002 735000                    ALS     2
         1 000030   000105 100500                    MLR     fill='000'O
         1 000031   100000 000010                    ADSC9   0,,PR1                   cn=0,n=8
         1 000032   200033 000010                    ADSC9   VECTR,A,AUTO             cn=0,n=8

     1552      885    2              I=I+1;

    885  1 000033   200032 054100                    AOS     I,,AUTO

     1553      886    2              END;

    886  1 000034   200032 235100                    LDA     I,,AUTO
         1 000035   000024 115007                    CMPA    20,DL
         1 000036   000043 605000 1                  TPL     s:887
         1 000037   200031 470500                    LDP0    ARG$,,AUTO
         1 000040   000000 236105                    LDQ     0,AL,PR0
         1 000041   000001 116000 xsym               CMPQ    B_VECTNIL+1
         1 000042   000022 601000 1                  TNZ     s:884

     1554      887    1           FDS.VECTR$=ADDR(VECTR);

    887  1 000043   200033 630500                    EPPR0   VECTR,,AUTO
         1 000044   200003 471500                    LDP1    @FDS,,AUTO
         1 000045   100012 450500                    STP0    10,,PR1

     1555      888    1           FDS.NVECS#=I;

    888  1 000046   200032 235100                    LDA     I,,AUTO
         1 000047   100011 755100                    STA     9,,PR1

     1556      889    1           CALL X$FORMAT(FDS);

    889  1 000050   200003 630500                    EPPR0   @FDS,,AUTO
         1 000051   000017 631400 xsym               EPPR1   B_VECTNIL+15
         1 000052   000000 701000 xent               TSX1    X$FORMAT
         1 000053   000000 011000                    NOP     0
PL6.E3A0      #004=XUF$WRITE File=XUF$FORMAT.:E05TSI                             WED 07/30/97 09:17 Page:283

     1557      890    1           RETURN;

    890  1 000054   000000 702200 xent               TSX2  ! X66_ARET
     1558      891    1   END XUF$WRITE;

PL6.E3A0      #004=XUF$WRITE File=XUF$FORMAT.:E05TSI                             WED 07/30/97 09:17 Page:284
--  Include file information  --

   B_SEGIDS_C.:E05TOU  is referenced.
   XU_FORMAT_C.:E05TOU  is referenced.
      No diagnostics issued in procedure XUF$WRITE.
PL6.E3A0      #004=XUF$WRITE File=XUF$FORMAT.:E05TSI                             WED 07/30/97 09:17 Page:285

 **** Variables and constants ****

  ****  Section 000 RoData XUF$WRITE

  ****  Scalars and arrays  ****
OctLoc.c.b A Datatyp(siz) R M Lvl/name                 OctLoc.c.b A Datatyp(siz) R M Lvl/name

     0-0-0/w PTR         r     1 AUTO$                      0-0-0/w STRC        r     1 X1$

  ****  Auto variables  ****

  ****  Scalars and arrays  ****
OctLoc.c.b A Datatyp(siz) R M Lvl/name                 OctLoc.c.b A Datatyp(siz) R M Lvl/name

     3-0-0/w PTR         r     1 @FDS                       4-0-0/w PTR         r     1 @FMTVEC
     5-0-0/w PTR         r     1 @P1                       16-0-0/w PTR         r     1 @P10
    17-0-0/w PTR         r     1 @P11                      20-0-0/w PTR         r     1 @P12
    21-0-0/w PTR         r     1 @P13                      22-0-0/w PTR         r     1 @P14
    23-0-0/w PTR         r     1 @P15                      24-0-0/w PTR         r     1 @P16
    25-0-0/w PTR         r     1 @P17                      26-0-0/w PTR         r     1 @P18
    27-0-0/w PTR         r     1 @P19                       6-0-0/w PTR         r     1 @P2
    30-0-0/w PTR         r     1 @P20                       7-0-0/w PTR         r     1 @P3
    10-0-0/w PTR         r     1 @P4                       11-0-0/w PTR         r     1 @P5
    12-0-0/w PTR         r     1 @P6                       13-0-0/w PTR         r     1 @P7
    14-0-0/w PTR         r     1 @P8                       15-0-0/w PTR         r     1 @P9
    31-0-0/w PTR         r     1 ARG$                      *0-0-0/w STRC(1080)  r     1 FDS
    *0-0-0/w BIT (72)    r     1 FMTVEC                    32-0-0/w SBIN        r     1 I
    *0-0-0/w BIT (72)    r     1 P1                        *0-0-0/w BIT (72)    r     1 P10
    *0-0-0/w BIT (72)    r     1 P11                       *0-0-0/w BIT (72)    r     1 P12
    *0-0-0/w BIT (72)    r     1 P13                       *0-0-0/w BIT (72)    r     1 P14
    *0-0-0/w BIT (72)    r     1 P15                       *0-0-0/w BIT (72)    r     1 P16
    *0-0-0/w BIT (72)    r     1 P17                       *0-0-0/w BIT (72)    r     1 P18
    *0-0-0/w BIT (72)    r     1 P19                       *0-0-0/w BIT (72)    r     1 P2
    *0-0-0/w BIT (72)    r     1 P20                       *0-0-0/w BIT (72)    r     1 P3
    *0-0-0/w BIT (72)    r     1 P4                        *0-0-0/w BIT (72)    r     1 P5
    *0-0-0/w BIT (72)    r     1 P6                        *0-0-0/w BIT (72)    r     1 P7
    *0-0-0/w BIT (72)    r     1 P8                        *0-0-0/w BIT (72)    r     1 P9
PL6.E3A0      #004=XUF$WRITE File=XUF$FORMAT.:E05TSI                             WED 07/30/97 09:17 Page:286
    33-0-0/b BIT (72)    r     1 VECTR(0:19)

  ****  BASED and DCB variables  ****

  ****  Scalars and arrays  ****
OctLoc.c.b A Datatyp(siz) R M Lvl/name                 OctLoc.c.b A Datatyp(siz) R M Lvl/name

     0-0-0/w PTR         r     1 DATAPTR$(0:19)
     0-0-0/w BIT (72)    r     1 DATAVEC                    0-0-0/w STRC        r     1 STK


   Procedure XUF$WRITE requires 45 words for executable code.
   Procedure XUF$WRITE requires 68 words of local(AUTO) storage.

    No errors detected in file XUF$FORMAT.:E05TSI    .
PL6.E3A0      #004=XUF$WRITE File=XUF$FORMAT.:E05TSI                             WED 07/30/97 09:17 Page:287
          *** CROSS REFERENCE LISTING ***
**     DENOTES     IDENTIFIER DEFINITION
<<                 IDENTIFIER'S VALUE SET
>>                 IDENTIFIER'S VALUE USED
<>                 IDENTIFIER SET AND/OR USED
--                 IDENTIFIER REFERENCED
PL6.E3A0      #004=XUF$WRITE File=XUF$FORMAT.:E05TSI                             WED 07/30/97 09:17 Page:288
          MINI XREF LISTING

ARG$
       872**DCL       874--IMP-PTR   880<<ASSIGN    883>>DOWHILE   884>>ASSIGN
AUTO$
       868**DCL       869--IMP-PTR   880>>ASSIGN    880>>ASSIGN
DATAPTR$
       874**DCL       883>>DOWHILE   884>>ASSIGN
DATAVEC
       875**DCL       884>>ASSIGN
FDS
       225**DCL         6--PROC      879--ENTRY     889<>CALL
FDS.FMT_
       229**DCL       881<<ASSIGN
FDS.NVECS#
       253**DCL       888<<ASSIGN
FDS.VECTR$
       255**DCL       887<<ASSIGN
FMTVEC
        27**DCL         6--PROC      879--ENTRY     881>>ASSIGN
I
       876**DCL       882<<ASSIGN    883>>DOWHILE   883>>DOWHILE   884>>ASSIGN    884>>ASSIGN    885<<ASSIGN
       885>>ASSIGN    888>>ASSIGN
P1
        28**DCL         6--PROC      879--ENTRY
P10
        37**DCL         6--PROC      879--ENTRY
P11
        38**DCL         6--PROC      879--ENTRY
P12
        39**DCL         6--PROC      879--ENTRY
P13
        40**DCL         6--PROC      879--ENTRY
P14
PL6.E3A0      #004=XUF$WRITE File=XUF$FORMAT.:E05TSI                             WED 07/30/97 09:17 Page:289
        41**DCL         6--PROC      879--ENTRY
P15
        42**DCL         6--PROC      879--ENTRY
P16
        43**DCL         6--PROC      879--ENTRY
P17
        44**DCL         6--PROC      879--ENTRY
P18
        45**DCL         6--PROC      879--ENTRY
P19
        46**DCL         6--PROC      879--ENTRY
P2
        29**DCL         6--PROC      879--ENTRY
P20
        47**DCL         6--PROC      879--ENTRY
P3
        30**DCL         6--PROC      879--ENTRY
P4
        31**DCL         6--PROC      879--ENTRY
P5
        32**DCL         6--PROC      879--ENTRY
P6
        33**DCL         6--PROC      879--ENTRY
P7
        34**DCL         6--PROC      879--ENTRY
P8
        35**DCL         6--PROC      879--ENTRY
P9
        36**DCL         6--PROC      879--ENTRY
STK.OFFSET
       871**DCL       880>>ASSIGN
VECTR
       877**DCL       884<<ASSIGN    887--ASSIGN
X$FORMAT
       324**DCL-ENT   889--CALL
X1$
PL6.E3A0      #004=XUF$WRITE File=XUF$FORMAT.:E05TSI                             WED 07/30/97 09:17 Page:290
       865**DCL       868--REDEF
