VERSION E05

PL6.E3A0      #001=XUF$FORMAT File=XUF$FORMAT.:E05TSI                            WED 07/30/97 09:15 Page:1
        1        1        /*M* XUF$FORMAT - PL6 CALLABLE OUTPUT FORMATTING ROUTINE */
        2        2        /*T***********************************************************/
        3        3        /*T*                                                         */
        4        4        /*T* Copyright (c) Bull HN Information Systems Inc., 1997    */
        5        5        /*T*                                                         */
        6        6        /*T***********************************************************/
        7        7        /*X* DMR */
        8        8        XUF$FORMAT: PROC(FDS);
        9        9        /*P*    NAME:    XUF$FORMAT
       10       10                PURPOSE: Provide for formatted writes in PL-6.             */
       11       11        /*D*    NAME:    XUF$FORMAT
       12       12                CALL:    CALL XUF$FORMAT(F_FDS);
       13       13                            or
       14       14                         CALL X$FORMAT(F_FDS);
       15       15                            or
       16       16                         CALL X$WRITE(FDS,VECTOR(FMT)[,DV1[,DV2[,DV3[,...]]]]);
       17       17
       18       18                         For the X$WRITE call each DVn is a data vector up to
       19       19                         a maximum of DV20.  To access X$WRITE:
       20       20                         DCL X$WRITE EPTR SYMREF;
       21       21
       22       22                INPUT:   Format Data Structure (FDS) which contains the
       23       23                         parameters describing the formatting operation.
       24       24                         The FDS strucure is in the F_FDS macro in the
       25       25                         include file XU_FORMAT_C.  The FDS parameters are:
       26       26
       27       27                Parameter   FDS name           Description
       28       28                ----------- ------------------ ------------------------------
       29       29                FMT         FDS.FMT_           Vector framing the format.
       30       30                            FDS.FMT_.BOUND
       31       31                            FDS.FMT_.FMT$
       32       32                BUF         FDS.BUF_           Vector framing output buffer.
       33       33                            FDS.BUF_.BOUND
       34       34                            FDS.BUF_.BUF$
       35       35                NVECS       FDS.NVECS#         Number of data vectors.
       36       36                VECTR       FDS.VECTR$         Pointer to array of data
       37       37                                               vectors.
PL6.E3A0      #001=XUF$FORMAT File=XUF$FORMAT.:E05TSI                            WED 07/30/97 09:15 Page:2
       38       38                DCB         FDS.DCB#           Output DCB.
       39       39                DVFC        FDS.DVFC#          Default VFC character.
       40       40                TRUNC       FDS.TRUNC#         If YES then output lines are
       41       41                                               truncated at the buffer size.
       42       42                                               If NO then the buffer is output
       43       43                                               if it fills up, then more
       44       44                                               characters are shoveled in.
       45       45                WRAPTAB     FDS.WRAPTAB#       Column to tab to after wrapping
       46       46                                               a line.
       47       47                TABDFLT     FDS.TABDFLT#       Magic number used to calculate
       48       48                                               next column to tab to for the
       49       49                                               '-' insertion code when CNT(0)=0.
       50       50                EDIT        FDS.EDIT#          ENTADDR of user supplied field
       51       51                                               editting routine.  For more
       52       52                                               information see description of
       53       53                                               %E insertion code.
       54       54                OUTPUT      FDS.OUTPUT#        ENTADDR of user supplied output
       55       55                                               routine.  This routine will be
       56       56                                               called whenever the buffer is
       57       57                                               to be output with the call:
       58       58                                               CALL OUTPUT(FPT_WRITE.BUF_,FDS);
       59       59                                               This call is made before the
       60       60                                               call to M$WRITE.  If the OUTPUT
       61       61                                               routine ALTRETURNS then the call
       62       62                                               to M$WRITE is skipped.
       63       63
       64       64                For more information on the FDS look at the F_FDS macro.
       65       65
       66       66                DESCRIPTION:   Characters are copied from the format to the
       67       67                output buffer until a % character is hit.  The formatting
       68       68                operation then proceeds based on the insertion code that
       69       69                follows.  If the insertion code requires data and all data
       70       70                has been used then the formatter returns to the user at
       71       71                this point.  If the end of the format is hit and data remains
       72       72                then the current buffer is output and formatting proceeds
       73       73                from the rescan point (see ^ insertion code).  The detailed
       74       74                operation of the formatter is described under the major
PL6.E3A0      #001=XUF$FORMAT File=XUF$FORMAT.:E05TSI                            WED 07/30/97 09:15 Page:3
       75       75                concepts that follow.
       76       76
       77       77                Counts
       78       78                ______
       79       79                   There are four values that are set to 0 when the %
       80       80                character is encountered and that may be specified between
       81       81                the % character and the insertion code.  If D is the insertion
       82       82                code then specifying counts would look like %n1.n2.n3.n4D
       83       83                where any n may be omitted.  The significance of the counts
       84       84                depends on the insertion code.  In the descriptions of the
       85       85                insertion codes they will be refered to as CNT(0) - CNT(3).
       86       86                In general if CNT(n) means do something that many times then
       87       87                CNT(n)=0 is the same as CNT(n)=1.
       88       88                   N  Obtain data for CNT.  If the N is preceeded by a decimal
       89       89                      number greater than 0 and less than 36 then that many
       90       90                      bits of data are obtained for the current CNT.  Other-
       91       91                      wise one word of data is obtained.
       92       92
       93       93                Flags
       94       94                -----
       95       95                   There are several flags that may be specified between the %
       96       96                character and the insertion code.  Again if D is the insertion
       97       97                code and Z is a flag then a flag would be specified as %ZD.
       98       98                The Flags are:
       99       99
      100      100                   Z  Produce leading zeroes.  This flag is significant only
      101      101                      for numeric insertion codes.  If this flag is set and
      102      102                      a number is put in a fixed width field then leading
      103      103                      zeroes will be put in the buffer instead of leading
      104      104                      blanks.
      105      105                   +  Signed number.  This flag is significant only for
      106      106                      numeric insertion codes.  If this flag is set then the
      107      107                      data obtained is interpreted as a signed number.  If
      108      108                      it is negative it will be preceeded by a '-' in the
      109      109                      field.  If this flag is not set then the data obtained
      110      110                      is interpreted as positive.
      111      111                   M  Keep most significant digits (characters).  if this
PL6.E3A0      #001=XUF$FORMAT File=XUF$FORMAT.:E05TSI                            WED 07/30/97 09:15 Page:4
      112      112                      flag is set and the string size exceeds the size
      113      113                      of a fixed width field the the leftmost characters of
      114      114                      the string are shoveled into the field.  If this flag
      115      115                      is not set the rightmost characters are put in the
      116      116                      field.
      117      117                   L  Left justify in field.  If this flag is set and the
      118      118                      string is smaller than the fixed width field then the
      119      119                      field will be filled on the right with blanks.  If
      120      120                      this flag is not set then the field will be filled on
      121      121                      the left with blanks.
      122      122                   <  Delete leading blanks.  If this flag is set then leading
      123      123                      blanks are deleted from the string before it is put
      124      124                      in the output buffer.
      125      125                   >  Delete trailing blanks.  If this flag is set then trailing
      126      126                      blanks are deleted from the string before it is put in
      127      127                      the output buffer.  For the '-' format this flag means
      128      128                      never tab backwards.
      129      129                   *  Insert stars on overflow.  If a numeric value exceeds the
      130      130                      specified field width then insert stars instead of the
      131      131                      truncated value.
      132      132                   &  Check field width.  If the field to be inserted will not
      133      133                      fit on the current line then dump the current line and
      134      134                      start a new one.
      135      135                   @  FEP mode.  The data processed for this insertion code is
      136      136                      assumed to be sparse L6 data with a slack bit at the top
      137      137                      of each byte.  For the S and P insertion codes this will
      138      138                      cause the specified bit values to be multiplied by 9/8.
      139      139                      For numeric insertion codes the slack bits will be
      140      140                      compressed out.  The number of bits specified should not
      141      141                      include slack bits.
      142      142
      143      143                Miscellaneous insertion codes
      144      144                -----------------------------
      145      145                   !  Skip to top of form.  The current buffer is output
      146      146                      then an M$DEVICE(PAGE=YES) is issued on DCB.
      147      147                   /  Print CNT(0) lines.  The first line is the current
      148      148                      buffer.  Subsequent lines are blank.
PL6.E3A0      #001=XUF$FORMAT File=XUF$FORMAT.:E05TSI                            WED 07/30/97 09:15 Page:5
      149      149                   -  Tab to column CNT(0).  If CNT(0) is 0 then tab to the
      150      150                      next multiple of FDS.TABDFLT# plus 1.
      151      151                   %  Put one % character in the buffer.
      152      152                   ^  Set rescan point.  If the end of format is hit and there
      153      153                      is still data remaining then the buffer is output and
      154      154                      the format pointer is set to the rescan point.  The
      155      155                      default is the beginning of the format.  CAUTION:  If
      156      156                      the rescan point is set to be within a repeat group
      157      157                      then strange things will happen.
      158      158                   (  Begin repeat group.  Repeat this section of the format
      159      159                      CNT(0) times.  CNT(0)=0 means skip it.  May be nested
      160      160                      until you run out of auto space.
      161      161                   )  End repeat group.
      162      162                   [  Begin If-Elseif-Endif group.  Format this section if
      163      163                      CNT(0)=CNT(1), until terminated by Elseif (?) or Endif(])
      164      164                      code.  May be nested until you run out of auto space.
      165      165                   ?  Elseif function in If-Elseif-Endif group.   Format this
      166      166                      section if CNT(0) matches the CNT(1) from the corresponding
      167      167                      If-code ([).  If CNT(0) is not specified, the section is
      168      168                      formatted if no match has yet been found (Else function).
      169      169                   ]  Endif of If-Elseif-Endif group.
      170      170                   S  Skip CNT(0) bytes of data plus CNT(1) bits of data.  If
      171      171                      both CNT(0) and CNT(1) are zero and data pointer is not
      172      172                      positioned to the beginning of a data vector then skip
      173      173                      to the next data vector.  If the CNT fields exceed the
      174      174                      size of the current data vector the results are
      175      175                      unpredictable.
      176      176                   R  Reserve buffer space.  Dumps current buffer if it is not
      177      177                      empty and there are not at least CNT(0) bytes remaining
      178      178                      in the output buffer.
      179      179                   Q  Quit processing format if no data remains.
      180      180                   P  Position data pointer to word CNT(1), character CNT(2),
      181      181                      bit CNT(3) of data vector CNT(0).  If CNT(0)=0 then
      182      182                      positioning is from the beginning of the current data
      183      183                      vector.  Data vectors are numbered 1 through NVECS.
      184      184                   V  Set VFC character.  This next character in the format
      185      185                      is put in character 0 of the buffer unless it is a %
PL6.E3A0      #001=XUF$FORMAT File=XUF$FORMAT.:E05TSI                            WED 07/30/97 09:15 Page:6
      186      186                      character, in which case one byte of data is obtained
      187      187                      for the VFC character.
      188      188                   X  Insert a space CNT(0) times.  CNT(0) may usefully be
      189      189                      negative, which erases the end of the current output line.
      190      190                   U  Convert UTS to time and date.  CNT(0) is the field width.
      191      191                      CNT(1) is number of bits of data to aquire for UTS, default
      192      192                      is 36.  CNT(2) is output format and has the following
      193      193                      values:
      194      194                         0 - HH:MM             (Time only)
      195      195                         1 - MM/DD/YY          (Date only)
      196      196                         2 - HH:MM MM/DD/YY    (Time and date)
      197      197                         3 - MM/DD/YY HH:MM    (Date and time)
      198      198                      The values 4 - 7 correspond with 0 - 3 except the system
      199      199                      clock is used as the source of the UTS instead of aquiring
      200      200                      data.  CNT(3) is the M$TIME format and has the following
      201      201                      values:
      202      202                         0 - M$TIME LOCAL format.
      203      203                         1 - M$TIME EXT format.
      204      204                         2 - M$TIME ANS format.
      205      205                         3 - Unused.
      206      206                      Values 4 -7 correspond with 0 - 3 except HH:MM becomes
      207      207                      HH:MM:SS.  Values 8 - 11 correspond with 0 - 3 except
      208      208                      HH:MM becomes HH:MM:SS.SS.
      209      209                   J  Convert standard error code.  CNT(0) is field width.
      210      210                      CNT(1) is number of bits of data to aquire for error
      211      211                      code.
      212      212                   F  Special formats.  Format is determined by the value of
      213      213                      CNT(1).  Currently defined values are:
      214      214                         1  Aquire two words of data and format as a descriptor.
      215      215                            CNT(0) is field width.
      216      216                         2  Aquire one word of data and format as a pointer.
      217      217                            CNT(0) is field width.
      218      218                         3  Aquire one word of data and use it as a dcb number
      219      219                            in a call to M$UNFID.  The resultant fid is placed
      220      220                            in the output buffer.  CNT(0) is field width.
      221      221                         4  Aquire one word of data and use it as a dcb number.
      222      222                            The associated dcb name is placed into the output
PL6.E3A0      #001=XUF$FORMAT File=XUF$FORMAT.:E05TSI                            WED 07/30/97 09:15 Page:7
      223      223                            buffer.  CNT(0) is field width.
      224      224                   E  Call edit routine.  If FDS.EDIT# is not ENTADDR(NIL)
      225      225                      then CALL FDS.EDIT#(FDS,CNT).  Where FDS is the current
      226      226                      FDS and CNT is the array of counts described earlier.
      227      227                      If the edit routine altrets the formatter will remain
      228      228                      in the insertion mode.  A normal return will cause the
      229      229                      formatter to begin looking for the next % character.
      230      230                      The edit routine may wish to examine the format string
      231      231                      and possibly alter the point at which fht formatter
      232      232                      resumes scanning it.  Such a need is accomplished by means of
      233      233                      the FDS fields FMTX, FMT_.FMT$, and FMT_.BOUND or FMTSIZE.
      234      234                      SUBSTR(FMT_.FMT$->char(FMTSIZE),FMTX-1,1) is the 'E' that
      235      235                      caused the edit routine to be called.  On return, FMTX
      236      236                      should be set to index the next character to be scanned.
      237      237
      238      238                Numeric insertion codes.
      239      239                ------------------------
      240      240                   The numeric insertion codes cause data to be obtained,
      241      241                converted to a text string and placed in the output buffer.
      242      242                CNT(0) specifies the width of the field in the output buffer.
      243      243                CNT(0)=0 means a variable width field, i.e. the field will be
      244      244                wide enough to contain the text string.  CNT(1) specifies
      245      245                the number of bits of data to be obtained.  If CNT(1) is
      246      246                larger than 36 then 36 bits of data are obtained.  If CNT(1)
      247      247                is zero then 36 bits or the remainder of the current data
      248      248                vector, whichever is smaller, are obtained.
      249      249
      250      250                   D  Convert to decimal number.
      251      251                   O  Convert to octal number.
      252      252                   B  Convert to binary number.
      253      253                   H  Convert to hexidecimal number.
      254      254                   Y  Convert to hexidecimal number in 8 of 9 format.
      255      255
      256      256                Examples:
      257      257                   Data        Format          Result
      258      258                   ----------- --------------- --------------------------
      259      259                   100         .%D.            .100.
PL6.E3A0      #001=XUF$FORMAT File=XUF$FORMAT.:E05TSI                            WED 07/30/97 09:15 Page:8
      260      260                   100         .%5D.           .  100.
      261      261                   100         .%5ZD.          .00100.
      262      262                   100         .%5LD.          .100  .
      263      263                   '777'O      .%H.            .1FF.
      264      264                   '777'O      .%Y.            .FF.
      265      265                   '777063'O   .%Y.            .FF33.
      266      266                   -100        .%D.            .68719476636.
      267      267                   -100        .%+D.           .-100.
      268      268                   -100        .%5+D.          . -100.
      269      269                   -100        .%5+LD.         .-100 .
      270      270                   -100        .%5+ZD.         .-0100.
      271      271
      272      272                Character insertion codes
      273      273                -------------------------
      274      274                   A  Insert CNT(1) characters into field CNT(0) characters
      275      275                      wide.  Default for CNT(1) is value of CNT(0).  If
      276      276                      CNT(1)=0 or exceeds the length of the current data vector
      277      277                      then the remainder of the current data vector is used.
      278      278                   T  The current data pointer is assumed to point to a
      279      279                      TEXTC string which is to be moved into a field CNT(0)
      280      280                      characters wide according to the setting of the L and
      281      281                      M flags.  CNT(0)=0 means move the entire string.
      282      282
      283      283                Note: When obtaining numeric data, bits are picked up
      284      284                      beginning at the current data pointer.  For character
      285      285                      data the data pointer is first aligned to the next
      286      286                      character boundary.
      287      287                                                                           */
      288      288        %EJECT;
PL6.E3A0      #001=XUF$FORMAT File=XUF$FORMAT.:E05TSI                            WED 07/30/97 09:15 Page:9
      289      289        %INCLUDE XU_FORMAT_C;
      290      451        %INCLUDE CP_6;
      291     6010        %F_FDS (NAME=FDS,STCLASS="");
      292     6123    1   DCL FMT CHAR(FDS.FMTSIZE) BASED(FDS.FMT_.FMT$);
      293     6124    1   DCL XUF$FORMAT1 ENTRY(1);
      294     6125        %FPT_DEVICE (FPTN=FPT_DEVICE,PAGE=YES,STCLASS=CONSTANT);
      295     6143        %FPT_DEVICE (FPTN=DEVICEFPT,STCLASS=AUTO);
      296     6161        %FPT_WRITE (VFC=YES,STCLASS=CONSTANT);
      297     6192        %FPT_WRITE (FPTN=WRITEFPT,STCLASS=AUTO);
      298     6223    1   DCL GLOBAL(0:99) UBIN;
      299     6224        %EJECT;
PL6.E3A0      #001=XUF$FORMAT File=XUF$FORMAT.:E05TSI                            WED 07/30/97 09:15 Page:10
      300     6225    1   X$FORMAT: ENTRY(FDS);
      301     6226    1           FDS.DONT_PRINT = '0'B;
      302     6227    1           FDS.FMTX=0;
      303     6228    1           FDS.FMTXMAX=0;
      304     6229    1           FDS.FMTSIZE=FDS.FMT_.BOUND+1;
      305     6230    1           FDS.BUFSIZE=FDS.BUF_.BOUND+1;
      306     6231    1           IF FDS.FMTSIZE > 1
      307     6232    2           THEN DO;
      308     6233    2              IF SUBSTR(FMT,0,2) = '%\'
      309     6234    3              THEN DO;
      310     6235    3                 FDS.DONT_PRINT = '1'B;
      311     6236    3                 FDS.FMTX = 2;
      312     6237    3                 END;
      313     6238    3              ELSE DO;
      314     6239    3                 FDS.BUFX = 1;
      315     6240    3                 FDS.BLNKBUF = '1'B;
      316     6241    3                 END;
      317     6242    2              END;
      318     6243    2           ELSE DO;
      319     6244    2              FDS.BUFX = 1;
      320     6245    2              FDS.BLNKBUF = '1'B;
      321     6246    2              END;
      322     6247    1           FDS.WRAP='0'B;
      323     6248    1           FDS.RESCAN=0;
      324     6249    1           FDS.MEMX=-1;
      325     6250    1           DEVICEFPT=FPT_DEVICE;
      326     6251    1           DEVICEFPT.V_=VECTOR(DEVICEFPT.V);
      327     6252    1           FDS.DEVICEFPT$=ADDR(DEVICEFPT);
      328     6253    1           WRITEFPT=FPT_WRITE;
      329     6254    1           WRITEFPT.V_=VECTOR(WRITEFPT.V);
      330     6255    1           FDS.WRITEFPT$=ADDR(WRITEFPT);
      331     6256    1           GLOBAL = '0'B;
      332     6257    1           FDS.GLOBAL$ = ADDR(GLOBAL);
      333     6258    1           REMEMBER XIT IN FDS.BAILOUT;
      334     6259    1           CALL XUF$FORMAT1 (FDS);
      335     6260    1   XIT:    RETURN;
      336     6261    1   END XUF$FORMAT;
PL6.E3A0      #001=XUF$FORMAT File=XUF$FORMAT.:E05TSI                            WED 07/30/97 09:15 Page:11
      337     6262        %EOD;

PL6.E3A0      #001=XUF$FORMAT File=XUF$FORMAT.:E05TSI                            WED 07/30/97 09:15 Page:12
--  Include file information  --

   CP_6_C.:E05TOU  is referenced.
   CP_6.:E05TOU  cannot be made into a system file and is referenced.
   XU_FORMAT_C.:E05TOU  is referenced.
      No diagnostics issued in procedure XUF$FORMAT.

   Procedure XUF$FORMAT requires 79 words for executable code.
   Procedure XUF$FORMAT requires 128 words of local(AUTO) storage.

PL6.E3A0      #001=XUF$FORMAT File=XUF$FORMAT.:E05TSI                            WED 07/30/97 09:15 Page:13

 Object Unit name= XUF$FORMAT                                 File name= XUF$FORMAT.:E05TOU
 UTS= JUL 30 '97 09:15:12.84 WED                              Compiler= PL-6/E31         Sev=      00
 SharedLib= :SHARED_SYSTEM                                    Alt SharedLib=


    ****  Control sections  ****

 Sect   Type Bound  Init  Size OctSiz  Section name(segment info)
    0   DCB   even  none     0      0  M$UC
    1  RoData even  UTS     23     27  XUF$FORMAT
    2   Proc  even  none    79    117  XUF$FORMAT
    3  RoData even  none     3      3  XUF$FORMAT

    ****  Entry defs  ****

                              Check   Calling
                             calling  sequence
  Sect OctLoc Primary Altret sequence   type   Parms  Name
     2      0   yes            yes      Std        1  XUF$FORMAT
     2      3                  yes      Std        1  X$FORMAT

  ****  Entry refs  ****

         Check        Calling
        calling       sequence
Altret sequence SRef   type   Args  Name
         yes           Std       1 XUF$FORMAT1
                       nStd      0 X66_AUTO_1
                       Std       0 B_CONSPOOL_D
                       nStd      0 X66_ARET

  ****  Data refs  ****

  Flags:  r = read only, s = secondary
Flgs Name                             Flgs Name                             Flgs Name
     M$UC                                  B_VECTNIL
PL6.E3A0      #001=XUF$FORMAT File=XUF$FORMAT.:E05TSI                            WED 07/30/97 09:15 Page:14

  ****  Segment refs  ****

  Flags:  r = read only, s = secondary
Flgs Name                             Flgs Name                             Flgs Name
     ISSID                                 NULLSID
PL6.E3A0      #001=XUF$FORMAT File=XUF$FORMAT.:E05TSI                            WED 07/30/97 09:15 Page:15


        1        1        /*M* XUF$FORMAT - PL6 CALLABLE OUTPUT FORMATTING ROUTINE */
        2        2        /*T***********************************************************/
        3        3        /*T*                                                         */
        4        4        /*T* Copyright (c) Bull HN Information Systems Inc., 1997    */
        5        5        /*T*                                                         */
        6        6        /*T***********************************************************/
        7        7        /*X* DMR */
        8        8        XUF$FORMAT: PROC(FDS);

      8  2 000000   000000 700200 xent  XUF$FORMAT   TSX0  ! X66_AUTO_1
         2 000001   000200 000001                    ZERO    128,1
         2 000002   000005 710000 2                  TRA     s:6226

        9        9        /*P*    NAME:    XUF$FORMAT
       10       10                PURPOSE: Provide for formatted writes in PL-6.             */
       11       11        /*D*    NAME:    XUF$FORMAT
       12       12                CALL:    CALL XUF$FORMAT(F_FDS);
       13       13                            or
       14       14                         CALL X$FORMAT(F_FDS);
       15       15                            or
       16       16                         CALL X$WRITE(FDS,VECTOR(FMT)[,DV1[,DV2[,DV3[,...]]]]);
       17       17
       18       18                         For the X$WRITE call each DVn is a data vector up to
       19       19                         a maximum of DV20.  To access X$WRITE:
       20       20                         DCL X$WRITE EPTR SYMREF;
       21       21
       22       22                INPUT:   Format Data Structure (FDS) which contains the
       23       23                         parameters describing the formatting operation.
       24       24                         The FDS strucure is in the F_FDS macro in the
       25       25                         include file XU_FORMAT_C.  The FDS parameters are:
       26       26
       27       27                Parameter   FDS name           Description
       28       28                ----------- ------------------ ------------------------------
       29       29                FMT         FDS.FMT_           Vector framing the format.
       30       30                            FDS.FMT_.BOUND
       31       31                            FDS.FMT_.FMT$
PL6.E3A0      #001=XUF$FORMAT File=XUF$FORMAT.:E05TSI                            WED 07/30/97 09:15 Page:16
       32       32                BUF         FDS.BUF_           Vector framing output buffer.
       33       33                            FDS.BUF_.BOUND
       34       34                            FDS.BUF_.BUF$
       35       35                NVECS       FDS.NVECS#         Number of data vectors.
       36       36                VECTR       FDS.VECTR$         Pointer to array of data
       37       37                                               vectors.
       38       38                DCB         FDS.DCB#           Output DCB.
       39       39                DVFC        FDS.DVFC#          Default VFC character.
       40       40                TRUNC       FDS.TRUNC#         If YES then output lines are
       41       41                                               truncated at the buffer size.
       42       42                                               If NO then the buffer is output
       43       43                                               if it fills up, then more
       44       44                                               characters are shoveled in.
       45       45                WRAPTAB     FDS.WRAPTAB#       Column to tab to after wrapping
       46       46                                               a line.
       47       47                TABDFLT     FDS.TABDFLT#       Magic number used to calculate
       48       48                                               next column to tab to for the
       49       49                                               '-' insertion code when CNT(0)=0.
       50       50                EDIT        FDS.EDIT#          ENTADDR of user supplied field
       51       51                                               editting routine.  For more
       52       52                                               information see description of
       53       53                                               %E insertion code.
       54       54                OUTPUT      FDS.OUTPUT#        ENTADDR of user supplied output
       55       55                                               routine.  This routine will be
       56       56                                               called whenever the buffer is
       57       57                                               to be output with the call:
       58       58                                               CALL OUTPUT(FPT_WRITE.BUF_,FDS);
       59       59                                               This call is made before the
       60       60                                               call to M$WRITE.  If the OUTPUT
       61       61                                               routine ALTRETURNS then the call
       62       62                                               to M$WRITE is skipped.
       63       63
       64       64                For more information on the FDS look at the F_FDS macro.
       65       65
       66       66                DESCRIPTION:   Characters are copied from the format to the
       67       67                output buffer until a % character is hit.  The formatting
       68       68                operation then proceeds based on the insertion code that
PL6.E3A0      #001=XUF$FORMAT File=XUF$FORMAT.:E05TSI                            WED 07/30/97 09:15 Page:17
       69       69                follows.  If the insertion code requires data and all data
       70       70                has been used then the formatter returns to the user at
       71       71                this point.  If the end of the format is hit and data remains
       72       72                then the current buffer is output and formatting proceeds
       73       73                from the rescan point (see ^ insertion code).  The detailed
       74       74                operation of the formatter is described under the major
       75       75                concepts that follow.
       76       76
       77       77                Counts
       78       78                ______
       79       79                   There are four values that are set to 0 when the %
       80       80                character is encountered and that may be specified between
       81       81                the % character and the insertion code.  If D is the insertion
       82       82                code then specifying counts would look like %n1.n2.n3.n4D
       83       83                where any n may be omitted.  The significance of the counts
       84       84                depends on the insertion code.  In the descriptions of the
       85       85                insertion codes they will be refered to as CNT(0) - CNT(3).
       86       86                In general if CNT(n) means do something that many times then
       87       87                CNT(n)=0 is the same as CNT(n)=1.
       88       88                   N  Obtain data for CNT.  If the N is preceeded by a decimal
       89       89                      number greater than 0 and less than 36 then that many
       90       90                      bits of data are obtained for the current CNT.  Other-
       91       91                      wise one word of data is obtained.
       92       92
       93       93                Flags
       94       94                -----
       95       95                   There are several flags that may be specified between the %
       96       96                character and the insertion code.  Again if D is the insertion
       97       97                code and Z is a flag then a flag would be specified as %ZD.
       98       98                The Flags are:
       99       99
      100      100                   Z  Produce leading zeroes.  This flag is significant only
      101      101                      for numeric insertion codes.  If this flag is set and
      102      102                      a number is put in a fixed width field then leading
      103      103                      zeroes will be put in the buffer instead of leading
      104      104                      blanks.
      105      105                   +  Signed number.  This flag is significant only for
PL6.E3A0      #001=XUF$FORMAT File=XUF$FORMAT.:E05TSI                            WED 07/30/97 09:15 Page:18
      106      106                      numeric insertion codes.  If this flag is set then the
      107      107                      data obtained is interpreted as a signed number.  If
      108      108                      it is negative it will be preceeded by a '-' in the
      109      109                      field.  If this flag is not set then the data obtained
      110      110                      is interpreted as positive.
      111      111                   M  Keep most significant digits (characters).  if this
      112      112                      flag is set and the string size exceeds the size
      113      113                      of a fixed width field the the leftmost characters of
      114      114                      the string are shoveled into the field.  If this flag
      115      115                      is not set the rightmost characters are put in the
      116      116                      field.
      117      117                   L  Left justify in field.  If this flag is set and the
      118      118                      string is smaller than the fixed width field then the
      119      119                      field will be filled on the right with blanks.  If
      120      120                      this flag is not set then the field will be filled on
      121      121                      the left with blanks.
      122      122                   <  Delete leading blanks.  If this flag is set then leading
      123      123                      blanks are deleted from the string before it is put
      124      124                      in the output buffer.
      125      125                   >  Delete trailing blanks.  If this flag is set then trailing
      126      126                      blanks are deleted from the string before it is put in
      127      127                      the output buffer.  For the '-' format this flag means
      128      128                      never tab backwards.
      129      129                   *  Insert stars on overflow.  If a numeric value exceeds the
      130      130                      specified field width then insert stars instead of the
      131      131                      truncated value.
      132      132                   &  Check field width.  If the field to be inserted will not
      133      133                      fit on the current line then dump the current line and
      134      134                      start a new one.
      135      135                   @  FEP mode.  The data processed for this insertion code is
      136      136                      assumed to be sparse L6 data with a slack bit at the top
      137      137                      of each byte.  For the S and P insertion codes this will
      138      138                      cause the specified bit values to be multiplied by 9/8.
      139      139                      For numeric insertion codes the slack bits will be
      140      140                      compressed out.  The number of bits specified should not
      141      141                      include slack bits.
      142      142
PL6.E3A0      #001=XUF$FORMAT File=XUF$FORMAT.:E05TSI                            WED 07/30/97 09:15 Page:19
      143      143                Miscellaneous insertion codes
      144      144                -----------------------------
      145      145                   !  Skip to top of form.  The current buffer is output
      146      146                      then an M$DEVICE(PAGE=YES) is issued on DCB.
      147      147                   /  Print CNT(0) lines.  The first line is the current
      148      148                      buffer.  Subsequent lines are blank.
      149      149                   -  Tab to column CNT(0).  If CNT(0) is 0 then tab to the
      150      150                      next multiple of FDS.TABDFLT# plus 1.
      151      151                   %  Put one % character in the buffer.
      152      152                   ^  Set rescan point.  If the end of format is hit and there
      153      153                      is still data remaining then the buffer is output and
      154      154                      the format pointer is set to the rescan point.  The
      155      155                      default is the beginning of the format.  CAUTION:  If
      156      156                      the rescan point is set to be within a repeat group
      157      157                      then strange things will happen.
      158      158                   (  Begin repeat group.  Repeat this section of the format
      159      159                      CNT(0) times.  CNT(0)=0 means skip it.  May be nested
      160      160                      until you run out of auto space.
      161      161                   )  End repeat group.
      162      162                   [  Begin If-Elseif-Endif group.  Format this section if
      163      163                      CNT(0)=CNT(1), until terminated by Elseif (?) or Endif(])
      164      164                      code.  May be nested until you run out of auto space.
      165      165                   ?  Elseif function in If-Elseif-Endif group.   Format this
      166      166                      section if CNT(0) matches the CNT(1) from the corresponding
      167      167                      If-code ([).  If CNT(0) is not specified, the section is
      168      168                      formatted if no match has yet been found (Else function).
      169      169                   ]  Endif of If-Elseif-Endif group.
      170      170                   S  Skip CNT(0) bytes of data plus CNT(1) bits of data.  If
      171      171                      both CNT(0) and CNT(1) are zero and data pointer is not
      172      172                      positioned to the beginning of a data vector then skip
      173      173                      to the next data vector.  If the CNT fields exceed the
      174      174                      size of the current data vector the results are
      175      175                      unpredictable.
      176      176                   R  Reserve buffer space.  Dumps current buffer if it is not
      177      177                      empty and there are not at least CNT(0) bytes remaining
      178      178                      in the output buffer.
      179      179                   Q  Quit processing format if no data remains.
PL6.E3A0      #001=XUF$FORMAT File=XUF$FORMAT.:E05TSI                            WED 07/30/97 09:15 Page:20
      180      180                   P  Position data pointer to word CNT(1), character CNT(2),
      181      181                      bit CNT(3) of data vector CNT(0).  If CNT(0)=0 then
      182      182                      positioning is from the beginning of the current data
      183      183                      vector.  Data vectors are numbered 1 through NVECS.
      184      184                   V  Set VFC character.  This next character in the format
      185      185                      is put in character 0 of the buffer unless it is a %
      186      186                      character, in which case one byte of data is obtained
      187      187                      for the VFC character.
      188      188                   X  Insert a space CNT(0) times.  CNT(0) may usefully be
      189      189                      negative, which erases the end of the current output line.
      190      190                   U  Convert UTS to time and date.  CNT(0) is the field width.
      191      191                      CNT(1) is number of bits of data to aquire for UTS, default
      192      192                      is 36.  CNT(2) is output format and has the following
      193      193                      values:
      194      194                         0 - HH:MM             (Time only)
      195      195                         1 - MM/DD/YY          (Date only)
      196      196                         2 - HH:MM MM/DD/YY    (Time and date)
      197      197                         3 - MM/DD/YY HH:MM    (Date and time)
      198      198                      The values 4 - 7 correspond with 0 - 3 except the system
      199      199                      clock is used as the source of the UTS instead of aquiring
      200      200                      data.  CNT(3) is the M$TIME format and has the following
      201      201                      values:
      202      202                         0 - M$TIME LOCAL format.
      203      203                         1 - M$TIME EXT format.
      204      204                         2 - M$TIME ANS format.
      205      205                         3 - Unused.
      206      206                      Values 4 -7 correspond with 0 - 3 except HH:MM becomes
      207      207                      HH:MM:SS.  Values 8 - 11 correspond with 0 - 3 except
      208      208                      HH:MM becomes HH:MM:SS.SS.
      209      209                   J  Convert standard error code.  CNT(0) is field width.
      210      210                      CNT(1) is number of bits of data to aquire for error
      211      211                      code.
      212      212                   F  Special formats.  Format is determined by the value of
      213      213                      CNT(1).  Currently defined values are:
      214      214                         1  Aquire two words of data and format as a descriptor.
      215      215                            CNT(0) is field width.
      216      216                         2  Aquire one word of data and format as a pointer.
PL6.E3A0      #001=XUF$FORMAT File=XUF$FORMAT.:E05TSI                            WED 07/30/97 09:15 Page:21
      217      217                            CNT(0) is field width.
      218      218                         3  Aquire one word of data and use it as a dcb number
      219      219                            in a call to M$UNFID.  The resultant fid is placed
      220      220                            in the output buffer.  CNT(0) is field width.
      221      221                         4  Aquire one word of data and use it as a dcb number.
      222      222                            The associated dcb name is placed into the output
      223      223                            buffer.  CNT(0) is field width.
      224      224                   E  Call edit routine.  If FDS.EDIT# is not ENTADDR(NIL)
      225      225                      then CALL FDS.EDIT#(FDS,CNT).  Where FDS is the current
      226      226                      FDS and CNT is the array of counts described earlier.
      227      227                      If the edit routine altrets the formatter will remain
      228      228                      in the insertion mode.  A normal return will cause the
      229      229                      formatter to begin looking for the next % character.
      230      230                      The edit routine may wish to examine the format string
      231      231                      and possibly alter the point at which fht formatter
      232      232                      resumes scanning it.  Such a need is accomplished by means of
      233      233                      the FDS fields FMTX, FMT_.FMT$, and FMT_.BOUND or FMTSIZE.
      234      234                      SUBSTR(FMT_.FMT$->char(FMTSIZE),FMTX-1,1) is the 'E' that
      235      235                      caused the edit routine to be called.  On return, FMTX
      236      236                      should be set to index the next character to be scanned.
      237      237
      238      238                Numeric insertion codes.
      239      239                ------------------------
      240      240                   The numeric insertion codes cause data to be obtained,
      241      241                converted to a text string and placed in the output buffer.
      242      242                CNT(0) specifies the width of the field in the output buffer.
      243      243                CNT(0)=0 means a variable width field, i.e. the field will be
      244      244                wide enough to contain the text string.  CNT(1) specifies
      245      245                the number of bits of data to be obtained.  If CNT(1) is
      246      246                larger than 36 then 36 bits of data are obtained.  If CNT(1)
      247      247                is zero then 36 bits or the remainder of the current data
      248      248                vector, whichever is smaller, are obtained.
      249      249
      250      250                   D  Convert to decimal number.
      251      251                   O  Convert to octal number.
      252      252                   B  Convert to binary number.
      253      253                   H  Convert to hexidecimal number.
PL6.E3A0      #001=XUF$FORMAT File=XUF$FORMAT.:E05TSI                            WED 07/30/97 09:15 Page:22
      254      254                   Y  Convert to hexidecimal number in 8 of 9 format.
      255      255
      256      256                Examples:
      257      257                   Data        Format          Result
      258      258                   ----------- --------------- --------------------------
      259      259                   100         .%D.            .100.
      260      260                   100         .%5D.           .  100.
      261      261                   100         .%5ZD.          .00100.
      262      262                   100         .%5LD.          .100  .
      263      263                   '777'O      .%H.            .1FF.
      264      264                   '777'O      .%Y.            .FF.
      265      265                   '777063'O   .%Y.            .FF33.
      266      266                   -100        .%D.            .68719476636.
      267      267                   -100        .%+D.           .-100.
      268      268                   -100        .%5+D.          . -100.
      269      269                   -100        .%5+LD.         .-100 .
      270      270                   -100        .%5+ZD.         .-0100.
      271      271
      272      272                Character insertion codes
      273      273                -------------------------
      274      274                   A  Insert CNT(1) characters into field CNT(0) characters
      275      275                      wide.  Default for CNT(1) is value of CNT(0).  If
      276      276                      CNT(1)=0 or exceeds the length of the current data vector
      277      277                      then the remainder of the current data vector is used.
      278      278                   T  The current data pointer is assumed to point to a
      279      279                      TEXTC string which is to be moved into a field CNT(0)
      280      280                      characters wide according to the setting of the L and
      281      281                      M flags.  CNT(0)=0 means move the entire string.
      282      282
      283      283                Note: When obtaining numeric data, bits are picked up
      284      284                      beginning at the current data pointer.  For character
      285      285                      data the data pointer is first aligned to the next
      286      286                      character boundary.
      287      287                                                                           */
      288      288        %EJECT;
PL6.E3A0      #001=XUF$FORMAT File=XUF$FORMAT.:E05TSI                            WED 07/30/97 09:15 Page:23
      289      289        %INCLUDE XU_FORMAT_C;
      290      451        %INCLUDE CP_6;
      291     6010        %F_FDS (NAME=FDS,STCLASS="");
      292     6123    1   DCL FMT CHAR(FDS.FMTSIZE) BASED(FDS.FMT_.FMT$);
      293     6124    1   DCL XUF$FORMAT1 ENTRY(1);
      294     6125        %FPT_DEVICE (FPTN=FPT_DEVICE,PAGE=YES,STCLASS=CONSTANT);
      295     6143        %FPT_DEVICE (FPTN=DEVICEFPT,STCLASS=AUTO);
      296     6161        %FPT_WRITE (VFC=YES,STCLASS=CONSTANT);
      297     6192        %FPT_WRITE (FPTN=WRITEFPT,STCLASS=AUTO);
      298     6223    1   DCL GLOBAL(0:99) UBIN;
      299     6224        %EJECT;
PL6.E3A0      #001=XUF$FORMAT File=XUF$FORMAT.:E05TSI                            WED 07/30/97 09:15 Page:24
      300     6225    1   X$FORMAT: ENTRY(FDS);

   6225  2 000003   000000 700200 xent  X$FORMAT     TSX0  ! X66_AUTO_1
         2 000004   000200 000001                    ZERO    128,1

      301     6226    1           FDS.DONT_PRINT = '0'B;

   6226  2 000005   200003 470500                    LDP0    @FDS,,AUTO
         2 000006   000000 236000 3                  LDQ     0
         2 000007   000013 356100                    ANSQ    11,,PR0

      302     6227    1           FDS.FMTX=0;

   6227  2 000010   000002 450100                    STZ     2,,PR0

      303     6228    1           FDS.FMTXMAX=0;

   6228  2 000011   000003 450100                    STZ     3,,PR0

      304     6229    1           FDS.FMTSIZE=FDS.FMT_.BOUND+1;

   6229  2 000012   000000 236100                    LDQ     0,,PR0
         2 000013   000020 772000                    QRL     16
         2 000014   000001 036007                    ADLQ    1,DL
         2 000015   000004 756100                    STQ     4,,PR0

      305     6230    1           FDS.BUFSIZE=FDS.BUF_.BOUND+1;

   6230  2 000016   000005 236100                    LDQ     5,,PR0
         2 000017   000020 772000                    QRL     16
         2 000020   000001 036007                    ADLQ    1,DL
         2 000021   000010 756100                    STQ     8,,PR0

      306     6231    1           IF FDS.FMTSIZE > 1

   6231  2 000022   000004 235100                    LDA     4,,PR0
         2 000023   000001 115007                    CMPA    1,DL
PL6.E3A0      #001=XUF$FORMAT File=XUF$FORMAT.:E05TSI                            WED 07/30/97 09:15 Page:25
         2 000024   000045 604400 2                  TMOZ    s:6244

      307     6232    2           THEN DO;

      308     6233    2              IF SUBSTR(FMT,0,2) = '%\'

   6233  2 000025   000001 471500                    LDP1    1,,PR0
         2 000026   000004 720100                    LXL0    4,,PR0
         2 000027   040000 106500                    CMPC    fill='040'O
         2 000030   100000 000002                    ADSC9   0,,PR1                   cn=0,n=2
         2 000031   000026 000002 1                  ADSC9   FPT_WRITE+12             cn=0,n=2
         2 000032   000040 601000 2                  TNZ     s:6239

      309     6234    3              THEN DO;

      310     6235    3                 FDS.DONT_PRINT = '1'B;

   6235  2 000033   000040 236007                    LDQ     32,DL
         2 000034   000013 256100                    ORSQ    11,,PR0

      311     6236    3                 FDS.FMTX = 2;

   6236  2 000035   000002 235007                    LDA     2,DL
         2 000036   000002 755100                    STA     2,,PR0

      312     6237    3                 END;

   6237  2 000037   000051 710000 2                  TRA     s:6247

      313     6238    3              ELSE DO;

      314     6239    3                 FDS.BUFX = 1;

   6239  2 000040   000001 235007                    LDA     1,DL
         2 000041   000007 755100                    STA     7,,PR0

      315     6240    3                 FDS.BLNKBUF = '1'B;
PL6.E3A0      #001=XUF$FORMAT File=XUF$FORMAT.:E05TSI                            WED 07/30/97 09:15 Page:26

   6240  2 000042   000100 236007                    LDQ     64,DL
         2 000043   000013 256100                    ORSQ    11,,PR0

      316     6241    3                 END;

      317     6242    2              END;

   6242  2 000044   000051 710000 2                  TRA     s:6247

      318     6243    2           ELSE DO;

      319     6244    2              FDS.BUFX = 1;

   6244  2 000045   000001 235007                    LDA     1,DL
         2 000046   000007 755100                    STA     7,,PR0

      320     6245    2              FDS.BLNKBUF = '1'B;

   6245  2 000047   000100 236007                    LDQ     64,DL
         2 000050   000013 256100                    ORSQ    11,,PR0

      321     6246    2              END;

      322     6247    1           FDS.WRAP='0'B;

   6247  2 000051   000001 236000 3                  LDQ     1
         2 000052   000013 356100                    ANSQ    11,,PR0

      323     6248    1           FDS.RESCAN=0;

   6248  2 000053   000020 450100                    STZ     16,,PR0

      324     6249    1           FDS.MEMX=-1;

   6249  2 000054   000001 335007                    LCA     1,DL
         2 000055   000026 755100                    STA     22,,PR0
PL6.E3A0      #001=XUF$FORMAT File=XUF$FORMAT.:E05TSI                            WED 07/30/97 09:15 Page:27

      325     6250    1           DEVICEFPT=FPT_DEVICE;

   6250  2 000056   000100 100400                    MLR     fill='000'O
         2 000057   000000 000050 1                  ADSC9   FPT_DEVICE               cn=0,n=40
         2 000060   200004 000050                    ADSC9   DEVICEFPT,,AUTO          cn=0,n=40

      326     6251    1           DEVICEFPT.V_=VECTOR(DEVICEFPT.V);

   6251  2 000061   000002 235000 3                  LDA     2
         2 000062   200176 452500                    STP2    GLOBAL+100,,AUTO
         2 000063   200176 236100                    LDQ     GLOBAL+100,,AUTO
         2 000064   000012 036003                    ADLQ    10,DU
         2 000065   200004 757100                    STAQ    DEVICEFPT,,AUTO

      327     6252    1           FDS.DEVICEFPT$=ADDR(DEVICEFPT);

   6252  2 000066   200004 631500                    EPPR1   DEVICEFPT,,AUTO
         2 000067   000030 451500                    STP1    24,,PR0

      328     6253    1           WRITEFPT=FPT_WRITE;

   6253  2 000070   000100 100400                    MLR     fill='000'O
         2 000071   000012 000060 1                  ADSC9   FPT_WRITE                cn=0,n=48
         2 000072   200016 000060                    ADSC9   WRITEFPT,,AUTO           cn=0,n=48

      329     6254    1           WRITEFPT.V_=VECTOR(WRITEFPT.V);

   6254  2 000073   000002 235000 3                  LDA     2
         2 000074   200176 452500                    STP2    GLOBAL+100,,AUTO
         2 000075   200176 236100                    LDQ     GLOBAL+100,,AUTO
         2 000076   000026 036003                    ADLQ    22,DU
         2 000077   200016 757100                    STAQ    WRITEFPT,,AUTO

      330     6255    1           FDS.WRITEFPT$=ADDR(WRITEFPT);

   6255  2 000100   200016 631500                    EPPR1   WRITEFPT,,AUTO
PL6.E3A0      #001=XUF$FORMAT File=XUF$FORMAT.:E05TSI                            WED 07/30/97 09:15 Page:28
         2 000101   000031 451500                    STP1    25,,PR0

      331     6256    1           GLOBAL = '0'B;

   6256  2 000102   000100 100400                    MLR     fill='000'O
         2 000103   000002 000001 xsym               ADSC9   B_VECTNIL+2              cn=0,n=1
         2 000104   200032 000620                    ADSC9   GLOBAL,,AUTO             cn=0,n=400

      332     6257    1           FDS.GLOBAL$ = ADDR(GLOBAL);

   6257  2 000105   200032 631500                    EPPR1   GLOBAL,,AUTO
         2 000106   000032 451500                    STP1    26,,PR0

      333     6258    1           REMEMBER XIT IN FDS.BAILOUT;

   6258  2 000107   000116 635000 2                  EAA     XIT
         2 000110   000021 452500                    STP2    17,,PR0
         2 000111   000022 755100                    STA     18,,PR0

      334     6259    1           CALL XUF$FORMAT1 (FDS);

   6259  2 000112   200003 630500                    EPPR0   @FDS,,AUTO
         2 000113   000017 631400 xsym               EPPR1   B_VECTNIL+15
         2 000114   000000 701000 xent               TSX1    XUF$FORMAT1
         2 000115   000000 011000                    NOP     0

      335     6260    1   XIT:    RETURN;

   6260  2 000116   000000 702200 xent  XIT          TSX2  ! X66_ARET
      336     6261    1   END XUF$FORMAT;
      337     6262        %EOD;

PL6.E3A0      #001=XUF$FORMAT File=XUF$FORMAT.:E05TSI                            WED 07/30/97 09:15 Page:29
--  Include file information  --

   CP_6_C.:E05TOU  is referenced.
   CP_6.:E05TOU  cannot be made into a system file and is referenced.
   XU_FORMAT_C.:E05TOU  is referenced.
      No diagnostics issued in procedure XUF$FORMAT.
PL6.E3A0      #001=XUF$FORMAT File=XUF$FORMAT.:E05TSI                            WED 07/30/97 09:15 Page:30

 **** Variables and constants ****

  ****  Section 001 RoData XUF$FORMAT

  ****  Scalars and arrays  ****
OctLoc.c.b A Datatyp(siz) R M Lvl/name                 OctLoc.c.b A Datatyp(siz) R M Lvl/name

     0-0-0/d STRC(360)   r     1 FPT_DEVICE                12-0-0/d STRC(432)   r     1 FPT_WRITE

  ****  Auto variables  ****

  ****  Scalars and arrays  ****
OctLoc.c.b A Datatyp(siz) R M Lvl/name                 OctLoc.c.b A Datatyp(siz) R M Lvl/name

     3-0-0/w PTR         r     1 @FDS                       4-0-0/d STRC(360)   r     1 DEVICEFPT
    *0-0-0/w STRC(1080)  r     1 FDS                       32-0-0/w UBIN        r     1 GLOBAL(0:99)
    16-0-0/d STRC(432)   r     1 WRITEFPT

  ****  BASED and DCB variables  ****

  ****  Scalars and arrays  ****
OctLoc.c.b A Datatyp(siz) R M Lvl/name                 OctLoc.c.b A Datatyp(siz) R M Lvl/name

     0-0-0/c ACHR        r     1 FMT


   Procedure XUF$FORMAT requires 79 words for executable code.
   Procedure XUF$FORMAT requires 128 words of local(AUTO) storage.
PL6.E3A0      #001=XUF$FORMAT File=XUF$FORMAT.:E05TSI                            WED 07/30/97 09:15 Page:31
          *** CROSS REFERENCE LISTING ***
**     DENOTES     IDENTIFIER DEFINITION
<<                 IDENTIFIER'S VALUE SET
>>                 IDENTIFIER'S VALUE USED
<>                 IDENTIFIER SET AND/OR USED
--                 IDENTIFIER REFERENCED
PL6.E3A0      #001=XUF$FORMAT File=XUF$FORMAT.:E05TSI                            WED 07/30/97 09:15 Page:32
          MINI XREF LISTING

DEVICEFPT
      6154**DCL      6250<<ASSIGN   6252--ASSIGN
DEVICEFPT.V
      6155**DCL      6251--ASSIGN
DEVICEFPT.V_
      6154**DCL      6251<<ASSIGN
FDS
      6024**DCL         8--PROC     6225--ENTRY    6259<>CALL
FDS.BAILOUT
      6096**DCL      6258<<REMEMBR
FDS.BLNKBUF
      6071**DCL      6240<<ASSIGN   6245<<ASSIGN
FDS.BUFSIZE
      6050**DCL      6230<<ASSIGN
FDS.BUFX
      6048**DCL      6239<<ASSIGN   6244<<ASSIGN
FDS.BUF_.BOUND
      6042**DCL      6230>>ASSIGN
FDS.DEVICEFPT$
      6108**DCL      6252<<ASSIGN
FDS.DONT_PRINT
      6073**DCL      6226<<ASSIGN   6235<<ASSIGN
FDS.FMTSIZE
      6039**DCL      6123--IMP-SIZ  6229<<ASSIGN   6231>>IF       6233>>IF
FDS.FMTX
      6035**DCL      6227<<ASSIGN   6236<<ASSIGN
FDS.FMTXMAX
      6037**DCL      6228<<ASSIGN
FDS.FMT_.BOUND
      6029**DCL      6229>>ASSIGN
FDS.FMT_.FMT$
      6031**DCL      6123--IMP-PTR  6233>>IF
PL6.E3A0      #001=XUF$FORMAT File=XUF$FORMAT.:E05TSI                            WED 07/30/97 09:15 Page:33
FDS.GLOBAL$
      6112**DCL      6257<<ASSIGN
FDS.MEMX
      6104**DCL      6249<<ASSIGN
FDS.RESCAN
      6094**DCL      6248<<ASSIGN
FDS.WRAP
      6075**DCL      6247<<ASSIGN
FDS.WRITEFPT$
      6110**DCL      6255<<ASSIGN
FMT
      6123**DCL      6233>>IF
FPT_DEVICE
      6136**DCL      6250>>ASSIGN
FPT_DEVICE.V
      6137**DCL      6136--DCLINIT
FPT_WRITE
      6178**DCL      6253>>ASSIGN
FPT_WRITE.STATION_
      6180**DCL      6180--REDEF
FPT_WRITE.V
      6181**DCL      6178--DCLINIT
FPT_WRITE.V.DVBYTE.VFC#
      6187**DCL      6187--REDEF
GLOBAL
      6223**DCL      6256<<ASSIGN   6257--ASSIGN
WRITEFPT
      6209**DCL      6253<<ASSIGN   6255--ASSIGN
WRITEFPT.STATION_
      6211**DCL      6211--REDEF
WRITEFPT.V
      6212**DCL      6254--ASSIGN
WRITEFPT.V.DVBYTE.VFC#
      6218**DCL      6218--REDEF
WRITEFPT.V_
      6209**DCL      6254<<ASSIGN
PL6.E3A0      #001=XUF$FORMAT File=XUF$FORMAT.:E05TSI                            WED 07/30/97 09:15 Page:34
XIT
      6260**LABEL    6258--REMEMBR
XUF$FORMAT1
      6124**DCL-ENT  6259--CALL

