PL6.E3A0      #009=XUG$DISABLE_COMMON File=XUG$COMMON.:E05TSI                    WED 07/30/97 09:24 Page:514
     2761        1        /*T***********************************************************/
     2762        2        /*T*                                                         */
     2763        3        /*T* Copyright (c) Bull HN Information Systems Inc., 1997    */
     2764        4        /*T*                                                         */
     2765        5        /*T***********************************************************/
     2766        6        XUG$DISABLE_COMMON: PROC (GETCMD) ;
     2767        7        /*X* DMC,PLM=4,IND=4,CTI=2,DTI=0,ENI=0,ECI=0,CSI=0,MCI,DCI=4 */
     2768        8    1   DCL FLG UBIN;
     2769        9        /**/
     2770       10        %INCLUDE CP_6;
     2771     5569        %INCLUDE CP_6_SUBS;
     2772     6109        /**/
     2773     6110        %FPT_WRITE (BUF=BRKMSG,DCB=M$UC,VFC=YES,STCLASS=CONSTANT);
     2774     6141        %FPT_READ (DCB=M$UC,STCLASS=CONSTANT,FPTN=FPT_READ_C);
     2775     6180        %FPT_READ (STCLASS=AUTO);
     2776     6219        %F$DCB;
     2777     6276    1   DCL 1 BRKMSG CONSTANT,
     2778     6277    1         2 * CHAR(1) INIT(%BITASC('037'O)),
     2779     6278    1         2 * CHAR(0) INIT('Break!  C to continue.');
     2780     6279        /**/
     2781     6280    1   DCL SAVECHAR CHAR(1);
     2782     6281    1   DCL CHARBASE CHAR(1) BASED;
     2783     6282        /**/
     2784     6283    1   DCL XUG$ PTR;
     2785     6284
     2786     6285        %INCLUDE XU_MACRO_C;
     2787     9391        %INCLUDE XUH_MACRO_C ;
     2788     9475    1   DCL XUG_BUILTIN_N ENTRY CONV(5) ; /* This is to satisfy the LINKer. */
     2789     9476        %XUG_GETCMD (NAME=GETCMD, STCLASS=PARAM) ;
     2790     9814        %XUG_PARAMS;
     2791    10258        %XUG_INIT (NAME=XUG_INIT_C, STCLASS=SYMREF);
     2792    10671        %XUG_INIT (NAME = XUG_INIT_A,STCLASS=AUTO);
     2793    11084    1   DCL XUG$INIT_COMMON ENTRY (2) ALTRET;
     2794    11085    1   DCL P$ PTR ;
     2795    11086    1   DCL XUG$WORK$ PTR BASED(P$) ;
     2796    11087        %EJECT;
PL6.E3A0      #009=XUG$DISABLE_COMMON File=XUG$COMMON.:E05TSI                    WED 07/30/97 09:24 Page:515
     2797    11088    1       IF GETCMD.WORK$ = ADDR(NIL)
     2798    11089    1       THEN
     2799    11090    2       DO ;
     2800    11091    2           XUG_INIT_A = XUG_INIT_C ;
     2801    11092    2           CALL XUG$INIT_COMMON (GETCMD,XUG_INIT_A) WHENALTRETURN
     2802    11093    3           DO ;
     2803    11094    3           END ; /* Whenaltreturn Do */
     2804    11095    2       END ; /* Then Do */
     2805    11096    1       XUG$ = GETCMD.WORK$ ;
     2806    11097    2       DO INHIBIT;
     2807    11098    2           XUG.DISLVL=XUG.DISLVL+1;
     2808    11099    2           IF XUG.DISLVL=1 THEN XUG.BIP=1;
     2809    11100    2       END;
     2810    11101    1       RETURN;
     2811    11102    1   XUG$CLRENABLE_COMMON: ENTRY (GETCMD) ;
     2812    11103    1       IF GETCMD.WORK$ = ADDR(NIL)
     2813    11104    1       THEN
     2814    11105    2       DO ;
     2815    11106    2           XUG_INIT_A = XUG_INIT_C ;
     2816    11107    2           CALL XUG$INIT_COMMON (GETCMD,XUG_INIT_A) WHENALTRETURN
     2817    11108    3           DO ;
     2818    11109    3           END ; /* Whenaltreturn Do */
     2819    11110    2       END ; /* Then Do */
     2820    11111    1       XUG$ = GETCMD.WORK$ ;
     2821    11112    1       XUG.BREAK='0'B;
     2822    11113    1   XUG$ENABLE_COMMON: ENTRY (GETCMD);
     2823    11114    1       IF GETCMD.WORK$ = ADDR(NIL)
     2824    11115    1       THEN
     2825    11116    2       DO ;
     2826    11117    2           XUG_INIT_A = XUG_INIT_C ;
     2827    11118    2           CALL XUG$INIT_COMMON (GETCMD,XUG_INIT_A) WHENALTRETURN
     2828    11119    3           DO ;
     2829    11120    3           END ; /* Whenaltreturn Do */
     2830    11121    2       END ; /* Then Do */
     2831    11122    1       XUG$ = GETCMD.WORK$ ;
     2832    11123    2       DO INHIBIT;
     2833    11124    2           IF XUG.DISLVL=0 THEN RETURN;
PL6.E3A0      #009=XUG$DISABLE_COMMON File=XUG$COMMON.:E05TSI                    WED 07/30/97 09:24 Page:516
     2834    11125    2           XUG.DISLVL=XUG.DISLVL-1;
     2835    11126    2           IF NOT XUG.DISLVL=0 THEN RETURN;
     2836    11127    2           XUG.BIP = 0;
     2837    11128    2           FLG = 0;
     2838    11129    2           IF XUG.BREAK
     2839    11130    2           THEN
     2840    11131    2               CALL BRKSUB ;
     2841    11132    2           RETURN;
     2842    11133    2       END;
     2843    11134        /**/
     2844    11135    1   XUG$SIMULATE_BREAK_COMMON: ENTRY (GETCMD);
     2845    11136    1       IF GETCMD.WORK$ = ADDR(NIL)
     2846    11137    2       THEN DO;
     2847    11138    2           XUG_INIT_A = XUG_INIT_C;
     2848    11139    3           CALL XUG$INIT_COMMON (GETCMD, XUG_INIT_A) WHENALTRETURN DO; END;
     2849    11140    2       END;
     2850    11141    1       XUG$ = GETCMD.WORK$;
     2851    11142    2       DO INHIBIT;
     2852    11143    2           XUG.BIP = XUG.BIP + 1;
     2853    11144    2           IF XUG.BIP > 1
     2854    11145    2           THEN
     2855    11146    2               RETURN;
     2856    11147    2           FLG = 0;
     2857    11148    2           CALL BRKSUB;
     2858    11149    2       END;
     2859    11150    1       RETURN;
     2860    11151    1   XUG$BRKSUB: ENTRY (GETCMD) ;
     2861    11152    1       P$ = ADDR(GETCMD) ;
     2862    11153    1       XUG$ = XUG$WORK$ ;
     2863    11154    1       FLG = 1;
     2864    11155    1       CALL BRKSUB;
     2865    11156    1       RETURN;
     2866    11157    1   BRKSUB: PROC;
     2867    11158    3       DO INHIBIT;
     2868    11159    3           XUG.BREAK='0'B;
     2869    11160    3           IF XUG.BRKMSG ~= ENTADDR(NIL) THEN
     2870    11161    3               CALL XUG.BRKMSG ALTRET (STDMSG);
PL6.E3A0      #009=XUG$DISABLE_COMMON File=XUG$COMMON.:E05TSI                    WED 07/30/97 09:24 Page:517
     2871    11162    3           ELSE
     2872    11163    4   STDMSG:     CALL M$WRITE (FPT_WRITE) WHENALTRETURN DO ;
     2873    11164    4               END ;
     2874    11165    3           FPT_READ = FPT_READ_C;
     2875    11166    3           FPT_READ.BUF_=XUG.BUFVEC;
     2876    11167    3           SAVECHAR=VBASE(XUG.BUFVEC)->CHARBASE;
     2877    11168    3           CALL M$READ (FPT_READ)
     2878    11169    4           WHENRETURN DO;
     2879    11170    4               XUG.BRKARS = DCBADDR(DCBNUM(M$UC)) -> F$DCB.ARS#;
     2880    11171    4               XUG.GOTCMD_EOMCHAR = DCBADDR(DCBNUM(M$UC)) -> F$DCB.EOMCHAR#;
     2881    11172    4           END;
     2882    11173    4           WHENALTRETURN DO;
     2883    11174    4               XUG.BRKARS = 0;
     2884    11175    4               XUG.GOTCMD_EOMCHAR = %EOM_EOR#;
     2885    11176    4           END;
     2886    11177    3           XUG.BIP=0;
     2887    11178    3           XUG.BREAK='0'B;
     2888    11179    4           IF XUG.BRKARS=1 AND (VBASE(XUG.BUFVEC)->CHARBASE='C' OR VBASE(XUG.BUFVEC)->
             11179                    CHARBASE='c') THEN DO INHIBIT;
     2889    11180    4               VBASE(XUG.BUFVEC)->CHARBASE=SAVECHAR;
     2890    11181    4               RETURN;
     2891    11182    4           END;
     2892    11183    3           IF FLG ~= 0
     2893    11184    3           THEN
     2894    11185    4               CALL M$CLRSTK WHENALTRETURN DO ;
     2895    11186    4               END ;
     2896    11187    3           IF XUG.BRKARS>0 THEN XUG.GOTCMD='1'B;
     2897    11188    3           CALL XUG.ABORT;
     2898    11189    3           RETURN;                    /* SHOULD NEVER GET HERE */
     2899    11190    3       END;
     2900    11191    2   END BRKSUB;
     2901    11192    1   END XUG$DISABLE_COMMON;
     2902    11193        %EOD;

PL6.E3A0      #009=XUG$DISABLE_COMMON File=XUG$COMMON.:E05TSI                    WED 07/30/97 09:24 Page:518
--  Include file information  --

   XUH_MACRO_C.:E05TOU  is referenced.
   XU_MACRO_C.:E05TOU  is referenced.
   CP_6_SUBS.:E05TOU  is referenced.
   CP_6_C.:E05TOU  is referenced.
   CP_6.:E05TOU  cannot be made into a system file and is referenced.
      No diagnostics issued in procedure XUG$DISABLE_COMMON.

   Procedure XUG$DISABLE_COMMON requires 222 words for executable code.
   Procedure XUG$DISABLE_COMMON requires 64 words of local(AUTO) storage.

PL6.E3A0      #009=XUG$DISABLE_COMMON File=XUG$COMMON.:E05TSI                    WED 07/30/97 09:24 Page:519

 Object Unit name= XUG$DISABLE_COMMON                         File name= XUG$COMMON.:E05TOU
 UTS= JUL 30 '97 09:24:56.00 WED                              Compiler= PL-6/E31         Sev=      00
 SharedLib= :SHARED_SYSTEM                                    Alt SharedLib=


    ****  Control sections  ****

 Sect   Type Bound  Init  Size OctSiz  Section name(segment info)
    0   DCB   even  none     0      0  M$UC
    1  RoData even  UTS     32     40  XUG$DISABLE_COMMON
    2   Proc  even  none   222    336  XUG$DISABLE_COMMON
    3  RoData even  none     4      4  XUG$DISABLE_COMMON

    ****  Entry defs  ****

                              Check   Calling
                             calling  sequence
  Sect OctLoc Primary Altret sequence   type   Parms  Name
     2      0   yes            yes      Std        1  XUG$DISABLE_COMMON
     2     35                  yes      Std        1  XUG$CLRENABLE_COMMON
     2     66                  yes      Std        1  XUG$ENABLE_COMMON
     2    134                  yes      Std        1  XUG$SIMULATE_BREAK_COMMON
     2    173                  yes      Std        1  XUG$BRKSUB

  ****  Entry refs  ****

         Check        Calling
        calling       sequence
Altret sequence SRef   type   Args  Name
         yes          ~proc      0 XUG_BUILTIN_N
 yes     yes           Std       2 XUG$INIT_COMMON
                       nStd      0 X66_AUTO_1
                       Std       0 B_CONSPOOL_D
                       nStd      0 X66_ARET
PL6.E3A0      #009=XUG$DISABLE_COMMON File=XUG$COMMON.:E05TSI                    WED 07/30/97 09:24 Page:520

  ****  Data refs  ****

  Flags:  r = read only, s = secondary
Flgs Name                             Flgs Name                             Flgs Name
     M$UC                                  XUG_INIT_C                            B_VECTNIL

  ****  Segment refs  ****

  Flags:  r = read only, s = secondary
Flgs Name                             Flgs Name                             Flgs Name
     ISSID                                 NULLSID                               ROSID
PL6.E3A0      #009=XUG$DISABLE_COMMON File=XUG$COMMON.:E05TSI                    WED 07/30/97 09:24 Page:521


     2761        1        /*T***********************************************************/
     2762        2        /*T*                                                         */
     2763        3        /*T* Copyright (c) Bull HN Information Systems Inc., 1997    */
     2764        4        /*T*                                                         */
     2765        5        /*T***********************************************************/
     2766        6        XUG$DISABLE_COMMON: PROC (GETCMD) ;

      6  2 000000   000000 700200 xent  XUG$DISABLE* TSX0  ! X66_AUTO_1
         2 000001   000100 000001                    ZERO    64,1

     2767        7        /*X* DMC,PLM=4,IND=4,CTI=2,DTI=0,ENI=0,ECI=0,CSI=0,MCI,DCI=4 */
     2768        8    1   DCL FLG UBIN;
     2769        9        /**/
     2770       10        %INCLUDE CP_6;
     2771     5569        %INCLUDE CP_6_SUBS;
     2772     6109        /**/
     2773     6110        %FPT_WRITE (BUF=BRKMSG,DCB=M$UC,VFC=YES,STCLASS=CONSTANT);
     2774     6141        %FPT_READ (DCB=M$UC,STCLASS=CONSTANT,FPTN=FPT_READ_C);
     2775     6180        %FPT_READ (STCLASS=AUTO);
     2776     6219        %F$DCB;
     2777     6276    1   DCL 1 BRKMSG CONSTANT,
     2778     6277    1         2 * CHAR(1) INIT(%BITASC('037'O)),
     2779     6278    1         2 * CHAR(0) INIT('Break!  C to continue.');
     2780     6279        /**/
     2781     6280    1   DCL SAVECHAR CHAR(1);
     2782     6281    1   DCL CHARBASE CHAR(1) BASED;
     2783     6282        /**/
     2784     6283    1   DCL XUG$ PTR;
     2785     6284
     2786     6285        %INCLUDE XU_MACRO_C;
     2787     9391        %INCLUDE XUH_MACRO_C ;
     2788     9475    1   DCL XUG_BUILTIN_N ENTRY CONV(5) ; /* This is to satisfy the LINKer. */
     2789     9476        %XUG_GETCMD (NAME=GETCMD, STCLASS=PARAM) ;
     2790     9814        %XUG_PARAMS;
     2791    10258        %XUG_INIT (NAME=XUG_INIT_C, STCLASS=SYMREF);
     2792    10671        %XUG_INIT (NAME = XUG_INIT_A,STCLASS=AUTO);
PL6.E3A0      #009=XUG$DISABLE_COMMON File=XUG$COMMON.:E05TSI                    WED 07/30/97 09:24 Page:522
     2793    11084    1   DCL XUG$INIT_COMMON ENTRY (2) ALTRET;
     2794    11085    1   DCL P$ PTR ;
     2795    11086    1   DCL XUG$WORK$ PTR BASED(P$) ;
     2796    11087        %EJECT;
PL6.E3A0      #009=XUG$DISABLE_COMMON File=XUG$COMMON.:E05TSI                    WED 07/30/97 09:24 Page:523
     2797    11088    1       IF GETCMD.WORK$ = ADDR(NIL)

  11088  2 000002   200003 470500                    LDP0    @GETCMD,,AUTO
         2 000003   000004 236100                    LDQ     4,,PR0
         2 000004   000001 116000 xsym               CMPQ    B_VECTNIL+1
         2 000005   000022 601000 2                  TNZ     s:11096

     2798    11089    1       THEN
     2799    11090    2       DO ;

     2800    11091    2           XUG_INIT_A = XUG_INIT_C ;

  11091  2 000006   000100 100400                    MLR     fill='000'O
         2 000007   000000 000220 xsym               ADSC9   XUG_INIT_C               cn=0,n=144
         2 000010   200026 000220                    ADSC9   XUG_INIT_A,,AUTO         cn=0,n=144

     2801    11092    2           CALL XUG$INIT_COMMON (GETCMD,XUG_INIT_A) WHENALTRETURN

  11092  2 000011   200026 631500                    EPPR1   XUG_INIT_A,,AUTO
         2 000012   200077 451500                    STP1    P$+5,,AUTO
         2 000013   200003 236100                    LDQ     @GETCMD,,AUTO
         2 000014   200076 756100                    STQ     P$+4,,AUTO
         2 000015   200076 630500                    EPPR0   P$+4,,AUTO
         2 000016   000020 631400 xsym               EPPR1   B_VECTNIL+16
         2 000017   000000 701000 xent               TSX1    XUG$INIT_COMMON
         2 000020   000022 702000 2                  TSX2    s:11096
         2 000021   000022 710000 2                  TRA     s:11096

     2802    11093    3           DO ;

     2803    11094    3           END ; /* Whenaltreturn Do */

     2804    11095    2       END ; /* Then Do */

     2805    11096    1       XUG$ = GETCMD.WORK$ ;

  11096  2 000022   200003 470500                    LDP0    @GETCMD,,AUTO
PL6.E3A0      #009=XUG$DISABLE_COMMON File=XUG$COMMON.:E05TSI                    WED 07/30/97 09:24 Page:524
         2 000023   000004 236100                    LDQ     4,,PR0
         2 000024   200025 756100                    STQ     XUG$,,AUTO

     2806    11097    2       DO INHIBIT;

     2807    11098    2           XUG.DISLVL=XUG.DISLVL+1;

  11098  2 000025   200025 471700                    LDP1  ! XUG$,,AUTO
         2 000026   100103 054300                    AOS   ! 67,,PR1

     2808    11099    2           IF XUG.DISLVL=1 THEN XUG.BIP=1;

  11099  2 000027   100103 235300                    LDA   ! 67,,PR1
         2 000030   000001 115207                    CMPA  ! 1,DL
         2 000031   000034 601200 2                  TNZ   ! s:11101

  11099  2 000032   000001 235207                    LDA   ! 1,DL
         2 000033   100102 755300                    STA   ! 66,,PR1

     2809    11100    2       END;

     2810    11101    1       RETURN;

  11101  2 000034   000000 702200 xent               TSX2  ! X66_ARET

     2811    11102    1   XUG$CLRENABLE_COMMON: ENTRY (GETCMD) ;

  11102  2 000035   000000 700200 xent  XUG$CLRENAB* TSX0  ! X66_AUTO_1
         2 000036   000100 000001                    ZERO    64,1

     2812    11103    1       IF GETCMD.WORK$ = ADDR(NIL)

  11103  2 000037   200003 470500                    LDP0    @GETCMD,,AUTO
         2 000040   000004 236100                    LDQ     4,,PR0
         2 000041   000001 116000 xsym               CMPQ    B_VECTNIL+1
         2 000042   000057 601000 2                  TNZ     s:11111

PL6.E3A0      #009=XUG$DISABLE_COMMON File=XUG$COMMON.:E05TSI                    WED 07/30/97 09:24 Page:525
     2813    11104    1       THEN
     2814    11105    2       DO ;

     2815    11106    2           XUG_INIT_A = XUG_INIT_C ;

  11106  2 000043   000100 100400                    MLR     fill='000'O
         2 000044   000000 000220 xsym               ADSC9   XUG_INIT_C               cn=0,n=144
         2 000045   200026 000220                    ADSC9   XUG_INIT_A,,AUTO         cn=0,n=144

     2816    11107    2           CALL XUG$INIT_COMMON (GETCMD,XUG_INIT_A) WHENALTRETURN

  11107  2 000046   200026 631500                    EPPR1   XUG_INIT_A,,AUTO
         2 000047   200077 451500                    STP1    P$+5,,AUTO
         2 000050   200003 236100                    LDQ     @GETCMD,,AUTO
         2 000051   200076 756100                    STQ     P$+4,,AUTO
         2 000052   200076 630500                    EPPR0   P$+4,,AUTO
         2 000053   000020 631400 xsym               EPPR1   B_VECTNIL+16
         2 000054   000000 701000 xent               TSX1    XUG$INIT_COMMON
         2 000055   000057 702000 2                  TSX2    s:11111
         2 000056   000057 710000 2                  TRA     s:11111

     2817    11108    3           DO ;

     2818    11109    3           END ; /* Whenaltreturn Do */

     2819    11110    2       END ; /* Then Do */

     2820    11111    1       XUG$ = GETCMD.WORK$ ;

  11111  2 000057   200003 470500                    LDP0    @GETCMD,,AUTO
         2 000060   000004 236100                    LDQ     4,,PR0
         2 000061   200025 756100                    STQ     XUG$,,AUTO

     2821    11112    1       XUG.BREAK='0'B;

  11112  2 000062   200025 471500                    LDP1    XUG$,,AUTO
         2 000063   000000 236000 3                  LDQ     0
PL6.E3A0      #009=XUG$DISABLE_COMMON File=XUG$COMMON.:E05TSI                    WED 07/30/97 09:24 Page:526
         2 000064   100071 356100                    ANSQ    57,,PR1
         2 000065   000070 710000 2                  TRA     s:11114

     2822    11113    1   XUG$ENABLE_COMMON: ENTRY (GETCMD);

  11113  2 000066   000000 700200 xent  XUG$ENABLE_* TSX0  ! X66_AUTO_1
         2 000067   000100 000001                    ZERO    64,1

     2823    11114    1       IF GETCMD.WORK$ = ADDR(NIL)

  11114  2 000070   200003 470500                    LDP0    @GETCMD,,AUTO
         2 000071   000004 236100                    LDQ     4,,PR0
         2 000072   000001 116000 xsym               CMPQ    B_VECTNIL+1
         2 000073   000110 601000 2                  TNZ     s:11122

     2824    11115    1       THEN
     2825    11116    2       DO ;

     2826    11117    2           XUG_INIT_A = XUG_INIT_C ;

  11117  2 000074   000100 100400                    MLR     fill='000'O
         2 000075   000000 000220 xsym               ADSC9   XUG_INIT_C               cn=0,n=144
         2 000076   200026 000220                    ADSC9   XUG_INIT_A,,AUTO         cn=0,n=144

     2827    11118    2           CALL XUG$INIT_COMMON (GETCMD,XUG_INIT_A) WHENALTRETURN

  11118  2 000077   200026 631500                    EPPR1   XUG_INIT_A,,AUTO
         2 000100   200077 451500                    STP1    P$+5,,AUTO
         2 000101   200003 236100                    LDQ     @GETCMD,,AUTO
         2 000102   200076 756100                    STQ     P$+4,,AUTO
         2 000103   200076 630500                    EPPR0   P$+4,,AUTO
         2 000104   000020 631400 xsym               EPPR1   B_VECTNIL+16
         2 000105   000000 701000 xent               TSX1    XUG$INIT_COMMON
         2 000106   000110 702000 2                  TSX2    s:11122
         2 000107   000110 710000 2                  TRA     s:11122

     2828    11119    3           DO ;
PL6.E3A0      #009=XUG$DISABLE_COMMON File=XUG$COMMON.:E05TSI                    WED 07/30/97 09:24 Page:527

     2829    11120    3           END ; /* Whenaltreturn Do */

     2830    11121    2       END ; /* Then Do */

     2831    11122    1       XUG$ = GETCMD.WORK$ ;

  11122  2 000110   200003 470500                    LDP0    @GETCMD,,AUTO
         2 000111   000004 236100                    LDQ     4,,PR0
         2 000112   200025 756100                    STQ     XUG$,,AUTO

     2832    11123    2       DO INHIBIT;

     2833    11124    2           IF XUG.DISLVL=0 THEN RETURN;

  11124  2 000113   200025 471700                    LDP1  ! XUG$,,AUTO
         2 000114   100103 235300                    LDA   ! 67,,PR1
         2 000115   000117 601200 2                  TNZ   ! s:11125

  11124  2 000116   000000 702200 xent               TSX2  ! X66_ARET

     2834    11125    2           XUG.DISLVL=XUG.DISLVL-1;

  11125  2 000117   000001 336207                    LCQ   ! 1,DL
         2 000120   100103 056300                    ASQ   ! 67,,PR1

     2835    11126    2           IF NOT XUG.DISLVL=0 THEN RETURN;

  11126  2 000121   000123 600200 2                  TZE   ! s:11127

  11126  2 000122   000000 702200 xent               TSX2  ! X66_ARET

     2836    11127    2           XUG.BIP = 0;

  11127  2 000123   100102 450300                    STZ   ! 66,,PR1

     2837    11128    2           FLG = 0;
PL6.E3A0      #009=XUG$DISABLE_COMMON File=XUG$COMMON.:E05TSI                    WED 07/30/97 09:24 Page:528

  11128  2 000124   200004 450300                    STZ   ! FLG,,AUTO

     2838    11129    2           IF XUG.BREAK

  11129  2 000125   100071 236300                    LDQ   ! 57,,PR1
         2 000126   040000 316203                    CANQ  ! 16384,DU
         2 000127   000132 600200 2                  TZE   ! s:11132

     2839    11130    2           THEN
     2840    11131    2               CALL BRKSUB ;

  11131  2 000130   000207 701200 2                  TSX1  ! BRKSUB
         2 000131   000000 011200                    NOP   ! 0

     2841    11132    2           RETURN;

  11132  2 000132   000000 702200 xent               TSX2  ! X66_ARET

     2842    11133    2       END;

  11133  2 000133   000136 710000 2                  TRA     s:11136

     2843    11134        /**/
     2844    11135    1   XUG$SIMULATE_BREAK_COMMON: ENTRY (GETCMD);

  11135  2 000134   000000 700200 xent  XUG$SIMULAT* TSX0  ! X66_AUTO_1
         2 000135   000100 000001                    ZERO    64,1

     2845    11136    1       IF GETCMD.WORK$ = ADDR(NIL)

  11136  2 000136   200003 470500                    LDP0    @GETCMD,,AUTO
         2 000137   000004 236100                    LDQ     4,,PR0
         2 000140   000001 116000 xsym               CMPQ    B_VECTNIL+1
         2 000141   000156 601000 2                  TNZ     s:11141

     2846    11137    2       THEN DO;
PL6.E3A0      #009=XUG$DISABLE_COMMON File=XUG$COMMON.:E05TSI                    WED 07/30/97 09:24 Page:529

     2847    11138    2           XUG_INIT_A = XUG_INIT_C;

  11138  2 000142   000100 100400                    MLR     fill='000'O
         2 000143   000000 000220 xsym               ADSC9   XUG_INIT_C               cn=0,n=144
         2 000144   200026 000220                    ADSC9   XUG_INIT_A,,AUTO         cn=0,n=144

     2848    11139    3           CALL XUG$INIT_COMMON (GETCMD, XUG_INIT_A) WHENALTRETURN DO; END;

  11139  2 000145   200026 631500                    EPPR1   XUG_INIT_A,,AUTO
         2 000146   200077 451500                    STP1    P$+5,,AUTO
         2 000147   200003 236100                    LDQ     @GETCMD,,AUTO
         2 000150   200076 756100                    STQ     P$+4,,AUTO
         2 000151   200076 630500                    EPPR0   P$+4,,AUTO
         2 000152   000020 631400 xsym               EPPR1   B_VECTNIL+16
         2 000153   000000 701000 xent               TSX1    XUG$INIT_COMMON
         2 000154   000156 702000 2                  TSX2    s:11141
         2 000155   000156 710000 2                  TRA     s:11141

     2849    11140    2       END;

     2850    11141    1       XUG$ = GETCMD.WORK$;

  11141  2 000156   200003 470500                    LDP0    @GETCMD,,AUTO
         2 000157   000004 236100                    LDQ     4,,PR0
         2 000160   200025 756100                    STQ     XUG$,,AUTO

     2851    11142    2       DO INHIBIT;

     2852    11143    2           XUG.BIP = XUG.BIP + 1;

  11143  2 000161   200025 471700                    LDP1  ! XUG$,,AUTO
         2 000162   100102 054300                    AOS   ! 66,,PR1

     2853    11144    2           IF XUG.BIP > 1

  11144  2 000163   100102 235300                    LDA   ! 66,,PR1
PL6.E3A0      #009=XUG$DISABLE_COMMON File=XUG$COMMON.:E05TSI                    WED 07/30/97 09:24 Page:530
         2 000164   000001 115207                    CMPA  ! 1,DL
         2 000165   000167 604600 2                  TMOZ  ! s:11147

     2854    11145    2           THEN
     2855    11146    2               RETURN;

  11146  2 000166   000000 702200 xent               TSX2  ! X66_ARET

     2856    11147    2           FLG = 0;

  11147  2 000167   200004 450300                    STZ   ! FLG,,AUTO

     2857    11148    2           CALL BRKSUB;

  11148  2 000170   000207 701200 2                  TSX1  ! BRKSUB
         2 000171   000000 011200                    NOP   ! 0

     2858    11149    2       END;

     2859    11150    1       RETURN;

  11150  2 000172   000000 702200 xent               TSX2  ! X66_ARET

     2860    11151    1   XUG$BRKSUB: ENTRY (GETCMD) ;

  11151  2 000173   000000 700200 xent  XUG$BRKSUB   TSX0  ! X66_AUTO_1
         2 000174   000100 000001                    ZERO    64,1

     2861    11152    1       P$ = ADDR(GETCMD) ;

  11152  2 000175   200003 236100                    LDQ     @GETCMD,,AUTO
         2 000176   200072 756100                    STQ     P$,,AUTO

     2862    11153    1       XUG$ = XUG$WORK$ ;

  11153  2 000177   200072 470500                    LDP0    P$,,AUTO
         2 000200   000000 236100                    LDQ     0,,PR0
PL6.E3A0      #009=XUG$DISABLE_COMMON File=XUG$COMMON.:E05TSI                    WED 07/30/97 09:24 Page:531
         2 000201   200025 756100                    STQ     XUG$,,AUTO

     2863    11154    1       FLG = 1;

  11154  2 000202   000001 235007                    LDA     1,DL
         2 000203   200004 755100                    STA     FLG,,AUTO

     2864    11155    1       CALL BRKSUB;

  11155  2 000204   000207 701000 2                  TSX1    BRKSUB
         2 000205   000000 011000                    NOP     0

     2865    11156    1       RETURN;

  11156  2 000206   000000 702200 xent               TSX2  ! X66_ARET

     2866    11157    1   BRKSUB: PROC;

  11157  2 000207   200074 741300       BRKSUB       STX1  ! P$+2,,AUTO

     2867    11158    3       DO INHIBIT;

     2868    11159    3           XUG.BREAK='0'B;

  11159  2 000210   200025 470700                    LDP0  ! XUG$,,AUTO
         2 000211   000000 236200 3                  LDQ   ! 0
         2 000212   000071 356300                    ANSQ  ! 57,,PR0

     2869    11160    3           IF XUG.BRKMSG ~= ENTADDR(NIL) THEN

  11160  2 000213   000022 236300                    LDQ   ! 18,,PR0
         2 000214   000002 116200 xsym               CMPQ  ! B_VECTNIL+2
         2 000215   000223 600200 2                  TZE   ! STDMSG

     2870    11161    3               CALL XUG.BRKMSG ALTRET (STDMSG);

  11161  2 000216   000022 220300                    LDX0  ! 18,,PR0
PL6.E3A0      #009=XUG$DISABLE_COMMON File=XUG$COMMON.:E05TSI                    WED 07/30/97 09:24 Page:532
         2 000217   000002 631600 xsym               EPPR1 ! B_VECTNIL+2
         2 000220   000000 701210                    TSX1  ! 0,X0
         2 000221   000223 702200 2                  TSX2  ! STDMSG
         2 000222   000230 710200 2                  TRA   ! s:11165

     2871    11162    3           ELSE
     2872    11163    4   STDMSG:     CALL M$WRITE (FPT_WRITE) WHENALTRETURN DO ;

  11163  2 000223   000000 630600 1     STDMSG       EPPR0 ! FPT_WRITE
         2 000224   440001 713600                    CLIMB ! alt,write
         2 000225   401400 401760                    pmme    nvectors=4
         2 000226   000230 702200 2                  TSX2  ! s:11165
         2 000227   000230 710200 2                  TRA   ! s:11165

     2873    11164    4               END ;

     2874    11165    3           FPT_READ = FPT_READ_C;

  11165  2 000230   000100 100600                    MLR   ! fill='000'O
         2 000231   000014 000070 1                  ADSC9   FPT_READ_C               cn=0,n=56
         2 000232   200006 000070                    ADSC9   FPT_READ,,AUTO           cn=0,n=56

     2875    11166    3           FPT_READ.BUF_=XUG.BUFVEC;

  11166  2 000233   200025 470700                    LDP0  ! XUG$,,AUTO
         2 000234   000000 237300                    LDAQ  ! 0,,PR0
         2 000235   200012 757300                    STAQ  ! FPT_READ+4,,AUTO

     2876    11167    3           SAVECHAR=VBASE(XUG.BUFVEC)->CHARBASE;

  11167  2 000236   000001 471700                    LDP1  ! 1,,PR0
         2 000237   040100 100700                    MLR   ! fill='040'O
         2 000240   100000 000001                    ADSC9   0,,PR1                   cn=0,n=1
         2 000241   200024 000001                    ADSC9   SAVECHAR,,AUTO           cn=0,n=1

     2877    11168    3           CALL M$READ (FPT_READ)

PL6.E3A0      #009=XUG$DISABLE_COMMON File=XUG$COMMON.:E05TSI                    WED 07/30/97 09:24 Page:533
  11168  2 000242   200006 630700                    EPPR0 ! FPT_READ,,AUTO
         2 000243   440000 713600                    CLIMB ! alt,read
         2 000244   401400 401760                    pmme    nvectors=4
         2 000245   000263 702200 2                  TSX2  ! s:11174

     2878    11169    4           WHENRETURN DO;

     2879    11170    4               XUG.BRKARS = DCBADDR(DCBNUM(M$UC)) -> F$DCB.ARS#;

  11170  2 000246   000000 236207 xsym               LDQ   ! M$UC,DL
         2 000247   000001 470600 3                  LDP0  ! 1
         2 000250   000000 471700                    LDP1  ! 0,,PR0
         2 000251   100000 473706                    LDP3  ! 0,QL,PR1
         2 000252   200025 474700                    LDP4  ! XUG$,,AUTO
         2 000253   300000 235300                    LDA   ! 0,,PR3
         2 000254   400101 755300                    STA   ! 65,,PR4

     2880    11171    4               XUG.GOTCMD_EOMCHAR = DCBADDR(DCBNUM(M$UC)) -> F$DCB.EOMCHAR#;

  11171  2 000255   000000 236207 xsym               LDQ   ! M$UC,DL
         2 000256   100000 473706                    LDP3  ! 0,QL,PR1
         2 000257   300003 236300                    LDQ   ! 3,,PR3
         2 000260   000033 736200                    QLS   ! 27
         2 000261   400266 552340                    STBQ  ! 182,'40'O,PR4

     2881    11172    4           END;

  11172  2 000262   000267 710200 2                  TRA   ! s:11177

     2882    11173    4           WHENALTRETURN DO;

     2883    11174    4               XUG.BRKARS = 0;

  11174  2 000263   200025 470700                    LDP0  ! XUG$,,AUTO
         2 000264   000101 450300                    STZ   ! 65,,PR0

     2884    11175    4               XUG.GOTCMD_EOMCHAR = %EOM_EOR#;
PL6.E3A0      #009=XUG$DISABLE_COMMON File=XUG$COMMON.:E05TSI                    WED 07/30/97 09:24 Page:534

  11175  2 000265   501000 236203                    LDQ   ! -97792,DU
         2 000266   000266 552340                    STBQ  ! 182,'40'O,PR0

     2885    11176    4           END;

     2886    11177    3           XUG.BIP=0;

  11177  2 000267   200025 470700                    LDP0  ! XUG$,,AUTO
         2 000270   000102 450300                    STZ   ! 66,,PR0

     2887    11178    3           XUG.BREAK='0'B;

  11178  2 000271   000000 236200 3                  LDQ   ! 0
         2 000272   000071 356300                    ANSQ  ! 57,,PR0

     2888    11179    4           IF XUG.BRKARS=1 AND (VBASE(XUG.BUFVEC)->CHARBASE='C' OR VBASE(XUG.BUFVEC)->
             11179                    CHARBASE='c') THEN DO INHIBIT;

  11179  2 000273   000101 235300                    LDA   ! 65,,PR0
         2 000274   000001 115207                    CMPA  ! 1,DL
         2 000275   000314 601200 2                  TNZ   ! s:11183
         2 000276   000001 471700                    LDP1  ! 1,,PR0
         2 000277   040000 106700                    CMPC  ! fill='040'O
         2 000300   100000 000001                    ADSC9   0,,PR1                   cn=0,n=1
         2 000301   000002 000001 3                  ADSC9   2                        cn=0,n=1
         2 000302   000307 600200 2                  TZE   ! s:11180
         2 000303   040000 106700                    CMPC  ! fill='040'O
         2 000304   100000 000001                    ADSC9   0,,PR1                   cn=0,n=1
         2 000305   000003 000001 3                  ADSC9   3                        cn=0,n=1
         2 000306   000314 601200 2                  TNZ   ! s:11183

     2889    11180    4               VBASE(XUG.BUFVEC)->CHARBASE=SAVECHAR;

  11180  2 000307   040100 100700                    MLR   ! fill='040'O
         2 000310   200024 000001                    ADSC9   SAVECHAR,,AUTO           cn=0,n=1
         2 000311   100000 000001                    ADSC9   0,,PR1                   cn=0,n=1
PL6.E3A0      #009=XUG$DISABLE_COMMON File=XUG$COMMON.:E05TSI                    WED 07/30/97 09:24 Page:535

     2890    11181    4               RETURN;

  11181  2 000312   200074 221300                    LDX1  ! P$+2,,AUTO
         2 000313   000001 702211                    TSX2  ! 1,X1

     2891    11182    4           END;

     2892    11183    3           IF FLG ~= 0

  11183  2 000314   200004 235300                    LDA   ! FLG,,AUTO
         2 000315   000322 600200 2                  TZE   ! s:11187

     2893    11184    3           THEN
     2894    11185    4               CALL M$CLRSTK WHENALTRETURN DO ;

  11185  2 000316   410013 713600                    CLIMB ! alt,+4107
         2 000317   000000 401760                    pmme    nvectors=0
         2 000320   000322 702200 2                  TSX2  ! s:11187
         2 000321   000322 710200 2                  TRA   ! s:11187

     2895    11186    4               END ;

     2896    11187    3           IF XUG.BRKARS>0 THEN XUG.GOTCMD='1'B;

  11187  2 000322   200025 470700                    LDP0  ! XUG$,,AUTO
         2 000323   000101 235300                    LDA   ! 65,,PR0
         2 000324   000327 604600 2                  TMOZ  ! s:11188

  11187  2 000325   100000 236203                    LDQ   ! 32768,DU
         2 000326   000071 256300                    ORSQ  ! 57,,PR0

     2897    11188    3           CALL XUG.ABORT;

  11188  2 000327   000020 220300                    LDX0  ! 16,,PR0
         2 000330   000002 631600 xsym               EPPR1 ! B_VECTNIL+2
         2 000331   000000 701210                    TSX1  ! 0,X0
PL6.E3A0      #009=XUG$DISABLE_COMMON File=XUG$COMMON.:E05TSI                    WED 07/30/97 09:24 Page:536
         2 000332   000000 011200                    NOP   ! 0

     2898    11189    3           RETURN;                    /* SHOULD NEVER GET HERE */

  11189  2 000333   200074 221300                    LDX1  ! P$+2,,AUTO
         2 000334   000001 702211                    TSX2  ! 1,X1

     2899    11190    3       END;

     2900    11191    2   END BRKSUB;

  11191  2 000335   000001 702211                    TSX2  ! 1,X1
     2901    11192    1   END XUG$DISABLE_COMMON;
     2902    11193        %EOD;

PL6.E3A0      #009=XUG$DISABLE_COMMON File=XUG$COMMON.:E05TSI                    WED 07/30/97 09:24 Page:537
--  Include file information  --

   XUH_MACRO_C.:E05TOU  is referenced.
   XU_MACRO_C.:E05TOU  is referenced.
   CP_6_SUBS.:E05TOU  is referenced.
   CP_6_C.:E05TOU  is referenced.
   CP_6.:E05TOU  cannot be made into a system file and is referenced.
      No diagnostics issued in procedure XUG$DISABLE_COMMON.
PL6.E3A0      #009=XUG$DISABLE_COMMON File=XUG$COMMON.:E05TSI                    WED 07/30/97 09:24 Page:538

 **** Variables and constants ****

  ****  Section 001 RoData XUG$DISABLE_COMMON

  ****  Scalars and arrays  ****
OctLoc.c.b A Datatyp(siz) R M Lvl/name                 OctLoc.c.b A Datatyp(siz) R M Lvl/name

    32-0-0/c STRC(207)   r     1 BRKMSG                    14-0-0/d STRC(504)   r     1 FPT_READ_C
     0-0-0/d STRC(432)   r     1 FPT_WRITE

  ****  Auto variables  ****

  ****  Scalars and arrays  ****
OctLoc.c.b A Datatyp(siz) R M Lvl/name                 OctLoc.c.b A Datatyp(siz) R M Lvl/name

     3-0-0/w PTR         r     1 @GETCMD                    4-0-0/w UBIN        r     1 FLG
     6-0-0/d STRC(504)   r     1 FPT_READ                  *0-0-0/d STRC(1512)  r     1 GETCMD
    72-0-0/w PTR         r     1 P$                        24-0-0/c CHAR        r     1 SAVECHAR
    25-0-0/w PTR         r     1 XUG$                      26-0-0/d STRC(1296)  r     1 XUG_INIT_A

  ****  SYMREF variables  ****

  ****  Scalars and arrays  ****
OctLoc.c.b A Datatyp(siz) R M Lvl/name                 OctLoc.c.b A Datatyp(siz) R M Lvl/name

     0-0-0/d STRC(1296)  r     1 XUG_INIT_C

  ****  BASED and DCB variables  ****

  ****  Scalars and arrays  ****
OctLoc.c.b A Datatyp(siz) R M Lvl/name                 OctLoc.c.b A Datatyp(siz) R M Lvl/name

     0-0-0/c CHAR        r     1 CHARBASE                   0-0-0/d ASTR(3528)  r     1 F$DCB
     0-0-0N  NULL        r     1 M$UC                       0-0-0/d STRC(9612)  r     1 XUG
     0-0-0/w PTR         r     1 XUG$WORK$

PL6.E3A0      #009=XUG$DISABLE_COMMON File=XUG$COMMON.:E05TSI                    WED 07/30/97 09:24 Page:539

   Procedure XUG$DISABLE_COMMON requires 222 words for executable code.
   Procedure XUG$DISABLE_COMMON requires 64 words of local(AUTO) storage.
PL6.E3A0      #009=XUG$DISABLE_COMMON File=XUG$COMMON.:E05TSI                    WED 07/30/97 09:24 Page:540
          *** CROSS REFERENCE LISTING ***
**     DENOTES     IDENTIFIER DEFINITION
<<                 IDENTIFIER'S VALUE SET
>>                 IDENTIFIER'S VALUE USED
<>                 IDENTIFIER SET AND/OR USED
--                 IDENTIFIER REFERENCED
PL6.E3A0      #009=XUG$DISABLE_COMMON File=XUG$COMMON.:E05TSI                    WED 07/30/97 09:24 Page:541
          MINI XREF LISTING

BRKMSG
      6276**DCL      6128--DCLINIT  6129--DCLINIT
BRKSUB
     11157**PROC    11131--CALL    11148--CALL    11155--CALL
CHARBASE
      6281**DCL     11167>>ASSIGN  11179>>IF      11179>>IF      11180<<ASSIGN
F$DCB.ACTPOS
      6252**DCL      6252--REDEF
F$DCB.ARS#
      6226**DCL      6226--REDEF   11170>>ASSIGN
F$DCB.ATTR
      6245**DCL      6246--REDEF
F$DCB.BORROW
      6260**DCL      6260--REDEF    6260--REDEF    6260--REDEF
F$DCB.DCBNAME.L
      6274**DCL      6274--IMP-SIZ
F$DCB.EOMCHAR#
      6230**DCL      6230--REDEF   11171>>ASSIGN
F$DCB.FLDID
      6255**DCL      6255--REDEF
F$DCB.FORM$
      6249**DCL      6249--REDEF
F$DCB.FSECT
      6265**DCL      6265--REDEF
F$DCB.FSN#
      6242**DCL      6242--REDEF    6242--REDEF    6243--REDEF
F$DCB.HEADER$
      6248**DCL      6248--REDEF
F$DCB.IXTNSIZE#
      6246**DCL      6246--REDEF
F$DCB.LASTSTA$
      6235**DCL      6235--REDEF
PL6.E3A0      #009=XUG$DISABLE_COMMON File=XUG$COMMON.:E05TSI                    WED 07/30/97 09:24 Page:542
F$DCB.LVL
      6261**DCL      6261--REDEF
F$DCB.NAME#.C
      6236**DCL      6236--REDEF
F$DCB.NOEOF
      6258**DCL      6258--REDEF
F$DCB.NRECS#
      6247**DCL      6247--REDEF
F$DCB.NRECX
      6266**DCL      6266--REDEF
F$DCB.OHDR
      6258**DCL      6258--REDEF
F$DCB.ORG#
      6241**DCL      6241--REDEF
F$DCB.PRECNO
      6264**DCL      6264--REDEF
F$DCB.RCSZ
      6270**DCL      6270--REDEF
F$DCB.RES#
      6237**DCL      6237--REDEF
F$DCB.SETX
      6249**DCL      6249--REDEF
F$DCB.TAB$
      6249**DCL      6249--REDEF
F$DCB.TDA
      6263**DCL      6264--REDEF
F$DCB.WSN#
      6237**DCL      6237--REDEF
FLG
         8**DCL     11128<<ASSIGN  11147<<ASSIGN  11154<<ASSIGN  11183>>IF
FPT_READ
      6197**DCL     11165<<ASSIGN  11168<>CALL
FPT_READ.BUF_
      6199**DCL     11166<<ASSIGN
FPT_READ.STATION_
      6200**DCL      6201--REDEF
PL6.E3A0      #009=XUG$DISABLE_COMMON File=XUG$COMMON.:E05TSI                    WED 07/30/97 09:24 Page:543
FPT_READ.V.DVBYTE.REREAD#
      6212**DCL      6212--REDEF
FPT_READ.V.INDX#
      6210**DCL      6210--REDEF
FPT_READ_C
      6158**DCL     11165>>ASSIGN
FPT_READ_C.STATION_
      6161**DCL      6162--REDEF
FPT_READ_C.V
      6162**DCL      6158--DCLINIT
FPT_READ_C.V.DVBYTE.REREAD#
      6173**DCL      6173--REDEF
FPT_READ_C.V.INDX#
      6171**DCL      6171--REDEF
FPT_WRITE
      6127**DCL     11163<>CALL
FPT_WRITE.STATION_
      6129**DCL      6129--REDEF
FPT_WRITE.V
      6130**DCL      6127--DCLINIT
FPT_WRITE.V.DVBYTE.VFC#
      6136**DCL      6136--REDEF
GETCMD
      9489**DCL         6--PROC    11092<>CALL    11102--ENTRY   11107<>CALL    11113--ENTRY   11118<>CALL
     11135--ENTRY   11139<>CALL    11151--ENTRY   11152--ASSIGN
GETCMD.OUT$
      9494**DCL      9500--REDEF
GETCMD.WORK$
      9522**DCL     11088>>IF      11096>>ASSIGN  11103>>IF      11111>>ASSIGN  11114>>IF      11122>>ASSIGN
     11136>>IF      11141>>ASSIGN
M$CLRSTK
      5555**DCL-ENT 11185--CALL
M$READ
      5498**DCL-ENT 11168--CALL
M$UC
      5521**DCL     11170--ASSIGN  11171--ASSIGN
PL6.E3A0      #009=XUG$DISABLE_COMMON File=XUG$COMMON.:E05TSI                    WED 07/30/97 09:24 Page:544
M$WRITE
      5498**DCL-ENT 11163--CALL
P$
     11085**DCL     11086--IMP-PTR 11152<<ASSIGN  11153>>ASSIGN
SAVECHAR
      6280**DCL     11167<<ASSIGN  11180>>ASSIGN
STDMSG IN PROCEDURE BRKSUB
     11163**LABEL   11161--CALLALT
XUG.ABORT
      9845**DCL     11188>>CALL
XUG.BIP
     10078**DCL     11099<<ASSIGN  11127<<ASSIGN  11143<<ASSIGN  11143>>ASSIGN  11144>>IF      11177<<ASSIGN
XUG.BREAK
      9926**DCL     11112<<ASSIGN  11129>>IF      11159<<ASSIGN  11178<<ASSIGN
XUG.BRKARS
     10075**DCL     11170<<ASSIGN  11174<<ASSIGN  11179>>IF      11187>>IF
XUG.BRKMSG
      9852**DCL     11160>>IF      11161>>CALL
XUG.BUF
     10253**DCL     10256--REDEF
XUG.BUFVEC
      9818**DCL     11166>>ASSIGN  11167>>ASSIGN  11179>>IF      11179>>IF      11180>>ASSIGN
XUG.DISLVL
     10081**DCL     11098<<ASSIGN  11098>>ASSIGN  11099>>IF      11124>>IF      11125<<ASSIGN  11125>>ASSIGN
     11126>>IF
XUG.GOTCMD
      9922**DCL     11187<<ASSIGN
XUG.GOTCMD_EOMCHAR
     10200**DCL     11171<<ASSIGN  11175<<ASSIGN
XUG$
      6283**DCL      9817--IMP-PTR 11096<<ASSIGN  11098>>ASSIGN  11098>>ASSIGN  11099>>IF      11099>>ASSIGN
     11111<<ASSIGN  11112>>ASSIGN  11122<<ASSIGN  11124>>IF      11125>>ASSIGN  11125>>ASSIGN  11126>>IF
     11127>>ASSIGN  11129>>IF      11141<<ASSIGN  11143>>ASSIGN  11143>>ASSIGN  11144>>IF      11153<<ASSIGN
     11159>>ASSIGN  11160>>IF      11161>>CALL    11166>>ASSIGN  11167>>ASSIGN  11170>>ASSIGN  11171>>ASSIGN
     11174>>ASSIGN  11175>>ASSIGN  11177>>ASSIGN  11178>>ASSIGN  11179>>IF      11179>>IF      11179>>IF
     11180>>ASSIGN  11187>>IF      11187>>ASSIGN  11188>>CALL
PL6.E3A0      #009=XUG$DISABLE_COMMON File=XUG$COMMON.:E05TSI                    WED 07/30/97 09:24 Page:545
XUG$INIT_COMMON
     11084**DCL-ENT 11092--CALL    11107--CALL    11118--CALL    11139--CALL
XUG$WORK$
     11086**DCL     11153>>ASSIGN
XUG_INIT_A
     10693**DCL     11091<<ASSIGN  11092<>CALL    11106<<ASSIGN  11107<>CALL    11117<<ASSIGN  11118<>CALL
     11138<<ASSIGN  11139<>CALL
XUG_INIT_C
     10280**DCL     11091>>ASSIGN  11106>>ASSIGN  11117>>ASSIGN  11138>>ASSIGN

PL6.E3A0      #010=XUG$ERRMSG_COMMON File=XUG$COMMON.:E05TSI                     WED 07/30/97 09:25 Page:546
     2903        1        /*T***********************************************************/
     2904        2        /*T*                                                         */
     2905        3        /*T* Copyright (c) Bull HN Information Systems Inc., 1997    */
     2906        4        /*T*                                                         */
     2907        5        /*T***********************************************************/
     2908        6        /* XUG$ERRMSG_COMMON - ERROR MESSAGE HANDLING ROUTINES FOR DEF */
     2909        7        /**/
     2910        8        XUG$ERRMSG_COMMON: PROC (GETCMD) ALTRET;
     2911        9        /*X* DMC,PLM=4,IND=4,CTI=2,DTI=0,ENI=0,ECI=0,CSI=0,MCI,DCI=4 */
     2912       10        %INCLUDE XU_MACRO_C ;
     2913     3116        %INCLUDE XU_PERR_C;
     2914     3307        %INCLUDE XUH_MACRO_C ;
     2915     3391        %INCLUDE XT_MACRO_M;
     2916     3717        %XUG_GETCMD (NAME=GETCMD, STCLASS=PARAM) ;
     2917     4055    1   DCL FID$ PTR;                           /* FOR XUG$SETERRMSG */
     2918     4056    1   DCL 1 FID BASED(FID$),
     2919     4057    1         2 L UBIN BYTE UNAL,
     2920     4058    1         2 C CHAR(FID.L);
     2921     4059        /**/
     2922     4060    1   DCL XUG$CORRES_COMMON ENTRY(2) ALTRET;
     2923     4061    1   DCL XUG$FINDDCB_COMMON ENTRY(2) ALTRET;
     2924     4062    1   DCL XUG$INIT_COMMON ENTRY(2) ALTRET;
     2925     4063    1   DCL XUG$OPENOUT_INTERNAL ENTRY(2);
     2926     4064        /**/
     2927     4065    1   DCL M$DO DCB;
     2928     4066    1   DCL M$LO# SBIN;
     2929     4067        %MACRO TEXTC (NAME=NAME,T#='',STCLASS=CONSTANT);
     2930     4068        DCL 1 NAME STCLASS,
     2931     4069              2 L UBIN BYTE UNAL INIT(SIZEC(T#)),
     2932     4070              2 C CHAR(0) INIT(T#);
     2933     4071        %MEND;
     2934     4072        %TEXTC (NAME=M$LO,T#='M$LO');
     2935     4077        %INCLUDE CP_6;
     2936     9636        %INCLUDE CP_6_SUBS;
     2937    10176    1   DCL ERRBUF CHAR(120) ;
     2938    10177        %FPT_ERRMSG (OUTDCB1=M$DO,SUBMESS=YES,INCLCODE=NO,
     2939    10178                     FLAGLEV=0,DCB=NIL,STCLASS=CONSTANT,FPTN=FPT_ERRMSG_C);
PL6.E3A0      #010=XUG$ERRMSG_COMMON File=XUG$COMMON.:E05TSI                     WED 07/30/97 09:25 Page:547
     2940    10205        %FPT_ERRMSG (STCLASS=AUTO);
     2941    10232        %VLP_ERRCODE  (FPTN=TEMP_ERRCODE, STCLASS=AUTO);
     2942    10277        %VLP_ERRCODE  (FPTN=BASED_ERRCODE, STCLASS=BASED);
     2943    10322        %VLP_ERRCODE  (FPTN=XUG_SYNERR, STCLASS=CONSTANT,
     2944    10323                       FCG=XU, MID=G, ERR#=%E$SYNERR, SEV=0);
     2945    10368        %VLP_ERRCODE  (FPTN=XUR_SYNERR, STCLASS=CONSTANT,
     2946    10369                       FCG=XU, MID=R, ERR#=%E$SYNERR, SEV=0);
     2947    10414        %VLR_ERRMSG (FPTN=XUG_ERRMSG,STCLASS=AUTO);
     2948    10436        %FPT_FID (FPTN=FPT_FID_C, STCLASS=CONSTANT) ;
     2949    10459        %FPT_FID (STCLASS=AUTO);
     2950    10482        %VLR_FID (STCLASS=AUTO);
     2951    10501        /*
     2952    10502        */
     2953    10503    1   DCL XUG$ PTR ;
     2954    10504    1   DCL DOWNGRADE_INHIBIT BIT (1);
     2955    10505    1   DCL DCB# UBIN;
     2956    10506
     2957    10507        %XUG_PARAMS;
     2958    10951        %XUG_INIT (NAME=XUG_INIT_C, STCLASS=SYMREF);
     2959    11364        %XUG_INIT (NAME = XUG_INIT_A,STCLASS=AUTO);
     2960    11777        %XT_PARAM (NAME= XT$PARAM , STCLASS=BASED);
     2961    12090        %EJECT;
PL6.E3A0      #010=XUG$ERRMSG_COMMON File=XUG$COMMON.:E05TSI                     WED 07/30/97 09:25 Page:548
     2962    12091    1       IF GETCMD.WORK$ = ADDR(NIL)
     2963    12092    2       THEN DO;
     2964    12093    2           XUG_INIT_A = XUG_INIT_C ;
     2965    12094    2           CALL XUG$INIT_COMMON (GETCMD,XUG_INIT_A) ALTRET(ALT) ;
     2966    12095    2       END ; /* Then Do */
     2967    12096    1       XUG$ = GETCMD.WORK$ ;
     2968    12097    1       XUG.HELP='0'B;
     2969    12098    1       DOWNGRADE_INHIBIT = %NO#;
     2970    12099    1       FPT_ERRMSG = FPT_ERRMSG_C;
     2971    12100    1       FPT_ERRMSG.V_ = VECTOR (FPT_ERRMSG.V);
     2972    12101    1       FPT_ERRMSG.RESULTS_ = VECTOR (XUG_ERRMSG);
     2973    12102    1       FPT_ERRMSG.BUF_ = VECTOR (ERRBUF);
     2974    12103    1       FPT_ERRMSG.CODE_ = VECTOR (XUG.ERRSAVE);
     2975    12104    1       IF NOT ( XUG.FILENAME.C = 0 )
     2976    12105    2       THEN DO;
     2977    12106    2           FPT_ERRMSG.FILEACCT_ = VECTOR (XUG.FILEACCT);
     2978    12107    2           FPT_ERRMSG.FILENAME_ = VECTOR (XUG.FILENAME);
     2979    12108    2           FPT_ERRMSG.FILEPASS_ = VECTOR (XUG.FILEPASS);
     2980    12109    2       END;
     2981    12110    1       FPT_ERRMSG.FIELD1_ = GETCMD.F1_;
     2982    12111    1       FPT_ERRMSG.FIELD2_ = GETCMD.F2_;
     2983    12112    1       FPT_ERRMSG.FIELD3_ = GETCMD.F3_;
     2984    12113    1       IF GETCMD.ERR_CODE = '0'B
     2985    12114    2       THEN DO;
     2986    12115    2           IF XUG.NO_INCREMENT
     2987    12116    2           THEN
     2988    12117    2               XUG.NO_INCREMENT = %NO#;
     2989    12118    3           ELSE DO;
     2990    12119    3               IF XUG.ERRSAVE.SEV = 7
     2991    12120    3               THEN
     2992    12121    3                   ALTRETURN;
     2993    12122    3               XUG.ERRSAVE.SEV = XUG.ERRSAVE.SEV + 1;
     2994    12123    3           END;
     2995    12124    2           FPT_ERRMSG.V.SUBMESS#='0'B;
     2996    12125    2           FPT_ERRMSG.FIELD1_ = XUG.F1SAVE;
     2997    12126    2           FPT_ERRMSG.FIELD2_ = XUG.F2SAVE;
     2998    12127    2           FPT_ERRMSG.FIELD3_ = XUG.F3SAVE;
PL6.E3A0      #010=XUG$ERRMSG_COMMON File=XUG$COMMON.:E05TSI                     WED 07/30/97 09:25 Page:549
     2999    12128    2       END;
     3000    12129    2       ELSE DO;
     3001    12130    2           IF GETCMD.INFOMSG#
     3002    12131    2             OR (XUG.NO_DOWNGRADE
     3003    12132    2             AND XUG.FIRST_ERROR
     3004    12133    2             AND XUG.LAST_FLAGLEV > GETCMD.FLGLEV#)
     3005    12134    3           THEN DO;
     3006    12135    3               DOWNGRADE_INHIBIT = %YES#;
     3007    12136    3               TEMP_ERRCODE = GETCMD.ERR_CODE;
     3008    12137    3               TEMP_ERRCODE.SEV = 0;
     3009    12138    3               FPT_ERRMSG.CODE_ = VECTOR (TEMP_ERRCODE);
     3010    12139    3           END;
     3011    12140    3           ELSE DO;
     3012    12141    3               XUG.ERRSAVE=GETCMD.ERR_CODE;
     3013    12142    3               XUG.ERRSAVE.SEV=0;
     3014    12143    3               XUG.LAST_FLAGLEV = GETCMD.FLGLEV#;
     3015    12144    3               XUG.FIRST_ERROR = %YES#;
     3016    12145    3               XUG.F1SAVE = GETCMD.F1_ ;
     3017    12146    3               XUG.F2SAVE = GETCMD.F2_ ;
     3018    12147    3               XUG.F3SAVE = GETCMD.F3_ ;
     3019    12148    3               IF GETCMD.XT_PARAM$ ~= ADDR(NIL)
     3020    12149    3               THEN
     3021    12150    3                   GETCMD.XT_PARAM$ -> XT$PARAM.ERR = XUG.ERRSAVE ;
     3022    12151    3           END;
     3023    12152    2           XUG.NO_INCREMENT = %NO#;
     3024    12153    2           FPT_ERRMSG.V.SUBMESS#='1'B;
     3025    12154    2           XUG.ERRDCB = DCBNUM(NIL);
     3026    12155    2       END;
     3027    12156    1       GETCMD.INFOMSG# = %NO# ;
     3028    12157    1       IF GETCMD.ERRDCB# ~= DCBNUM(NIL)
     3029    12158    1       THEN
     3030    12159    1           XUG.ERRDCB = GETCMD.ERRDCB# ;
     3031    12160    1       FPT_ERRMSG.V.DCB# = XUG.ERRDCB ;
     3032    12161    1       IF GETCMD.DCB_PARAM#=DCBNUM(NIL) AND GETCMD.DCB2_PARAM#=DCBNUM(NIL)
     3033    12162    2       THEN DO ;
     3034    12163    2           IF GETCMD.OUTDCB#~=DCBNUM(NIL)
     3035    12164    2           THEN
PL6.E3A0      #010=XUG$ERRMSG_COMMON File=XUG$COMMON.:E05TSI                     WED 07/30/97 09:25 Page:550
     3036    12165    2               FPT_ERRMSG.V.OUTDCB2#=GETCMD.OUTDCB#;
     3037    12166    3           ELSE DO;
     3038    12167    3               CALL XUG$FINDDCB_COMMON(M$LO,M$LO#) ALTRET(NO_LO);
     3039    12168    3               FPT_ERRMSG.V.OUTDCB2#=M$LO#;
     3040    12169    3           END;
     3041    12170    2   NO_LO: END;
     3042    12171    1       IF GETCMD.DCB_PARAM#~=DCBNUM(NIL) AND GETCMD.DCB2_PARAM#~=DCBNUM(NIL)
     3043    12172    2       THEN DO ;
     3044    12173    2           FPT_ERRMSG.V.OUTDCB1#=GETCMD.DCB_PARAM# ;
     3045    12174    2           FPT_ERRMSG.V.OUTDCB2# = GETCMD.DCB2_PARAM# ;
     3046    12175    2       END ;
     3047    12176    1       ELSE
     3048    12177    1           IF GETCMD.DCB_PARAM#~=DCBNUM(NIL)
     3049    12178    1           THEN
     3050    12179    1               FPT_ERRMSG.V.OUTDCB1#=GETCMD.DCB_PARAM# ;
     3051    12180    1           ELSE
     3052    12181    1               IF GETCMD.DCB2_PARAM#~=DCBNUM(NIL)
     3053    12182    1               THEN
     3054    12183    1                   FPT_ERRMSG.V.OUTDCB2#=GETCMD.DCB2_PARAM# ;
     3055    12184    1       DCB# = FPT_ERRMSG.V.OUTDCB1#;
     3056    12185    1       CALL XUG$OPENOUT_INTERNAL (GETCMD, DCB#);
     3057    12186    1       DCB# = FPT_ERRMSG.V.OUTDCB2#;
     3058    12187    1       CALL XUG$OPENOUT_INTERNAL (GETCMD, DCB#);
     3059    12188    1       IF GETCMD.ERRMSG_VFC# ~= ' '
     3060    12189    1       THEN
     3061    12190    1           FPT_ERRMSG.V.VFC# = GETCMD.ERRMSG_VFC# ;
     3062    12191    1       FPT_ERRMSG.V.FLAGLEV# = GETCMD.FLGLEV# ;
     3063    12192    1       IF NOT XUG.POINTED_TO_SYNERR
     3064    12193    1         OR (VBASE(BITVECT(FPT_ERRMSG.CODE_))->BASED_ERRCODE ~= XUG_SYNERR
     3065    12194    1         AND VBASE(BITVECT(FPT_ERRMSG.CODE_))->BASED_ERRCODE ~= XUR_SYNERR)
     3066    12195    2       THEN DO;
     3067    12196    2           CALL M$ERRMSG(FPT_ERRMSG) ALTRET(ALT);
     3068    12197    2           IF FPT_ERRMSG.V.SUBMESS# AND NOT DOWNGRADE_INHIBIT
     3069    12198    2           THEN
     3070    12199    2               XUG.ERRSAVE = XUG_ERRMSG.CODEUSED;
     3071    12200    2       END;
     3072    12201    1       RETURN;
PL6.E3A0      #010=XUG$ERRMSG_COMMON File=XUG$COMMON.:E05TSI                     WED 07/30/97 09:25 Page:551
     3073    12202        %EJECT;
PL6.E3A0      #010=XUG$ERRMSG_COMMON File=XUG$COMMON.:E05TSI                     WED 07/30/97 09:25 Page:552
     3074    12203    1   XUG$SETERRMSG_COMMON: ENTRY(GETCMD) ALTRET;
     3075    12204    1       IF GETCMD.WORK$ = ADDR (NIL)
     3076    12205    2       THEN DO;
     3077    12206    2           XUG_INIT_A = XUG_INIT_C ;
     3078    12207    2           CALL XUG$INIT_COMMON (GETCMD,XUG_INIT_A) ALTRET(ALT) ;
     3079    12208    2       END ; /* Then Do */
     3080    12209    1       XUG$ = GETCMD.WORK$ ;
     3081    12210    1       DOWNGRADE_INHIBIT = %NO#;
     3082    12211    1       IF GETCMD.ERR_CODE ~= '0'B
     3083    12212    2       THEN DO;
     3084    12213    2           XUG.ERRSAVE = GETCMD.ERR_CODE;
     3085    12214    2           XUG.NO_INCREMENT = %YES#;
     3086    12215    2           XUG.HELP = '0'B;
     3087    12216    2           IF GETCMD.XT_PARAM$ ~= ADDR(NIL)
     3088    12217    2           THEN
     3089    12218    2               GETCMD.XT_PARAM$ -> XT$PARAM.ERR = XUG.ERRSAVE ;
     3090    12219    2       END;
     3091    12220    1       FID$=GETCMD.ERRMFID$ ;
     3092    12221    2       IF FID$=ADDR(NIL) THEN DO;
     3093    12222    2           XUG.FILENAME.C = 0;
     3094    12223    2       END;
     3095    12224    2       ELSE DO;
     3096    12225    2           FPT_FID = FPT_FID_C;
     3097    12226    2           FPT_FID.ASN_ = VECTOR (VLR_FID);
     3098    12227    2           FPT_FID.RES_ = FPT_FID.ASN_;
     3099    12228    2           FPT_FID.RESULTS_ = FPT_FID.ASN_;
     3100    12229    2           FPT_FID.TEXTFID_ = VECTOR (FID.C);
     3101    12230    2           FPT_FID.ACCT_ = VECTOR (XUG.FILEACCT);
     3102    12231    2           FPT_FID.NAME_ = VECTOR (XUG.FILENAME);
     3103    12232    2           FPT_FID.PASS_ = VECTOR (XUG.FILEPASS);
     3104    12233    2           CALL M$FID (FPT_FID) ALTRET (ALT);
     3105    12234    2       END;
     3106    12235    1       RETURN;
     3107    12236    1   ALT:
     3108    12237    1       IF NOT DOWNGRADE_INHIBIT
     3109    12238    1       THEN
     3110    12239    1           XUG.ERRSAVE = '0'B;
PL6.E3A0      #010=XUG$ERRMSG_COMMON File=XUG$COMMON.:E05TSI                     WED 07/30/97 09:25 Page:553
     3111    12240    1       ALTRETURN;
     3112    12241    1   END XUG$ERRMSG_COMMON ;
     3113    12242        %EOD;

PL6.E3A0      #010=XUG$ERRMSG_COMMON File=XUG$COMMON.:E05TSI                     WED 07/30/97 09:25 Page:554
--  Include file information  --

   CP_6_SUBS.:E05TOU  is referenced.
   CP_6_C.:E05TOU  is referenced.
   CP_6.:E05TOU  cannot be made into a system file and is referenced.
   XT_MACRO_M.:TOOLE04  is referenced.
   XUH_MACRO_C.:E05TOU  is referenced.
   XU_PERR_C.:E05TOU  is referenced.
   XU_MACRO_C.:E05TOU  is referenced.
      No diagnostics issued in procedure XUG$ERRMSG_COMMON.

   Procedure XUG$ERRMSG_COMMON requires 341 words for executable code.
   Procedure XUG$ERRMSG_COMMON requires 144 words of local(AUTO) storage.

PL6.E3A0      #010=XUG$ERRMSG_COMMON File=XUG$COMMON.:E05TSI                     WED 07/30/97 09:25 Page:555

 Object Unit name= XUG$ERRMSG_COMMON                          File name= XUG$COMMON.:E05TOU
 UTS= JUL 30 '97 09:25:39.68 WED                              Compiler= PL-6/E31         Sev=      00
 SharedLib= :SHARED_SYSTEM                                    Alt SharedLib=


    ****  Control sections  ****

 Sect   Type Bound  Init  Size OctSiz  Section name(segment info)
    0   DCB   even  none     0      0  M$DO
    1  RoData even  UTS     54     66  XUG$ERRMSG_COMMON
    2   DCB   even  none     0      0  M$UC
    3   Proc  even  none   341    525  XUG$ERRMSG_COMMON
    4  RoData even  none    10     12  XUG$ERRMSG_COMMON

    ****  Entry defs  ****

                              Check   Calling
                             calling  sequence
  Sect OctLoc Primary Altret sequence   type   Parms  Name
     3      0   yes    yes     yes      Std        1  XUG$ERRMSG_COMMON
     3    374          yes     yes      Std        1  XUG$SETERRMSG_COMMON

  ****  Entry refs  ****

         Check        Calling
        calling       sequence
Altret sequence SRef   type   Args  Name
 yes     yes           Std       2 XUG$INIT_COMMON
 yes     yes           Std       2 XUG$FINDDCB_COMMON
         yes           Std       2 XUG$OPENOUT_INTERNAL
                       nStd      0 X66_AUTO_1
                       Std       0 B_CONSPOOL_D
                       nStd      0 X66_AALT
                       nStd      0 X66_ARET
PL6.E3A0      #010=XUG$ERRMSG_COMMON File=XUG$COMMON.:E05TSI                     WED 07/30/97 09:25 Page:556

  ****  Data refs  ****

  Flags:  r = read only, s = secondary
Flgs Name                             Flgs Name                             Flgs Name
     M$DO                                  M$UC                                  XUG_INIT_C
     B_VECTNIL

  ****  Segment refs  ****

  Flags:  r = read only, s = secondary
Flgs Name                             Flgs Name                             Flgs Name
     ISSID                                 NULLSID
PL6.E3A0      #010=XUG$ERRMSG_COMMON File=XUG$COMMON.:E05TSI                     WED 07/30/97 09:25 Page:557


     2903        1        /*T***********************************************************/
     2904        2        /*T*                                                         */
     2905        3        /*T* Copyright (c) Bull HN Information Systems Inc., 1997    */
     2906        4        /*T*                                                         */
     2907        5        /*T***********************************************************/
     2908        6        /* XUG$ERRMSG_COMMON - ERROR MESSAGE HANDLING ROUTINES FOR DEF */
     2909        7        /**/
     2910        8        XUG$ERRMSG_COMMON: PROC (GETCMD) ALTRET;

      8  3 000000   000000 700200 xent  XUG$ERRMSG_* TSX0  ! X66_AUTO_1
         3 000001   000220 000001                    ZERO    144,1

     2911        9        /*X* DMC,PLM=4,IND=4,CTI=2,DTI=0,ENI=0,ECI=0,CSI=0,MCI,DCI=4 */
     2912       10        %INCLUDE XU_MACRO_C ;
     2913     3116        %INCLUDE XU_PERR_C;
     2914     3307        %INCLUDE XUH_MACRO_C ;
     2915     3391        %INCLUDE XT_MACRO_M;
     2916     3717        %XUG_GETCMD (NAME=GETCMD, STCLASS=PARAM) ;
     2917     4055    1   DCL FID$ PTR;                           /* FOR XUG$SETERRMSG */
     2918     4056    1   DCL 1 FID BASED(FID$),
     2919     4057    1         2 L UBIN BYTE UNAL,
     2920     4058    1         2 C CHAR(FID.L);
     2921     4059        /**/
     2922     4060    1   DCL XUG$CORRES_COMMON ENTRY(2) ALTRET;
     2923     4061    1   DCL XUG$FINDDCB_COMMON ENTRY(2) ALTRET;
     2924     4062    1   DCL XUG$INIT_COMMON ENTRY(2) ALTRET;
     2925     4063    1   DCL XUG$OPENOUT_INTERNAL ENTRY(2);
     2926     4064        /**/
     2927     4065    1   DCL M$DO DCB;
     2928     4066    1   DCL M$LO# SBIN;
     2929     4067        %MACRO TEXTC (NAME=NAME,T#='',STCLASS=CONSTANT);
     2930     4068        DCL 1 NAME STCLASS,
     2931     4069              2 L UBIN BYTE UNAL INIT(SIZEC(T#)),
     2932     4070              2 C CHAR(0) INIT(T#);
     2933     4071        %MEND;
     2934     4072        %TEXTC (NAME=M$LO,T#='M$LO');
PL6.E3A0      #010=XUG$ERRMSG_COMMON File=XUG$COMMON.:E05TSI                     WED 07/30/97 09:25 Page:558
     2935     4077        %INCLUDE CP_6;
     2936     9636        %INCLUDE CP_6_SUBS;
     2937    10176    1   DCL ERRBUF CHAR(120) ;
     2938    10177        %FPT_ERRMSG (OUTDCB1=M$DO,SUBMESS=YES,INCLCODE=NO,
     2939    10178                     FLAGLEV=0,DCB=NIL,STCLASS=CONSTANT,FPTN=FPT_ERRMSG_C);
     2940    10205        %FPT_ERRMSG (STCLASS=AUTO);
     2941    10232        %VLP_ERRCODE  (FPTN=TEMP_ERRCODE, STCLASS=AUTO);
     2942    10277        %VLP_ERRCODE  (FPTN=BASED_ERRCODE, STCLASS=BASED);
     2943    10322        %VLP_ERRCODE  (FPTN=XUG_SYNERR, STCLASS=CONSTANT,
     2944    10323                       FCG=XU, MID=G, ERR#=%E$SYNERR, SEV=0);
     2945    10368        %VLP_ERRCODE  (FPTN=XUR_SYNERR, STCLASS=CONSTANT,
     2946    10369                       FCG=XU, MID=R, ERR#=%E$SYNERR, SEV=0);
     2947    10414        %VLR_ERRMSG (FPTN=XUG_ERRMSG,STCLASS=AUTO);
     2948    10436        %FPT_FID (FPTN=FPT_FID_C, STCLASS=CONSTANT) ;
     2949    10459        %FPT_FID (STCLASS=AUTO);
     2950    10482        %VLR_FID (STCLASS=AUTO);
     2951    10501        /*
     2952    10502        */
     2953    10503    1   DCL XUG$ PTR ;
     2954    10504    1   DCL DOWNGRADE_INHIBIT BIT (1);
     2955    10505    1   DCL DCB# UBIN;
     2956    10506
     2957    10507        %XUG_PARAMS;
     2958    10951        %XUG_INIT (NAME=XUG_INIT_C, STCLASS=SYMREF);
     2959    11364        %XUG_INIT (NAME = XUG_INIT_A,STCLASS=AUTO);
     2960    11777        %XT_PARAM (NAME= XT$PARAM , STCLASS=BASED);
     2961    12090        %EJECT;
PL6.E3A0      #010=XUG$ERRMSG_COMMON File=XUG$COMMON.:E05TSI                     WED 07/30/97 09:25 Page:559
     2962    12091    1       IF GETCMD.WORK$ = ADDR(NIL)

  12091  3 000002   200003 470500                    LDP0    @GETCMD,,AUTO
         3 000003   000004 236100                    LDQ     4,,PR0
         3 000004   000001 116000 xsym               CMPQ    B_VECTNIL+1
         3 000005   000021 601000 3                  TNZ     s:12096

     2963    12092    2       THEN DO;

     2964    12093    2           XUG_INIT_A = XUG_INIT_C ;

  12093  3 000006   000100 100400                    MLR     fill='000'O
         3 000007   000000 000220 xsym               ADSC9   XUG_INIT_C               cn=0,n=144
         3 000010   200152 000220                    ADSC9   XUG_INIT_A,,AUTO         cn=0,n=144

     2965    12094    2           CALL XUG$INIT_COMMON (GETCMD,XUG_INIT_A) ALTRET(ALT) ;

  12094  3 000011   200152 631500                    EPPR1   XUG_INIT_A,,AUTO
         3 000012   200217 451500                    STP1    XUG_INIT_A+37,,AUTO
         3 000013   200003 236100                    LDQ     @GETCMD,,AUTO
         3 000014   200216 756100                    STQ     XUG_INIT_A+36,,AUTO
         3 000015   200216 630500                    EPPR0   XUG_INIT_A+36,,AUTO
         3 000016   000020 631400 xsym               EPPR1   B_VECTNIL+16
         3 000017   000000 701000 xent               TSX1    XUG$INIT_COMMON
         3 000020   000520 702000 3                  TSX2    ALT

     2966    12095    2       END ; /* Then Do */

     2967    12096    1       XUG$ = GETCMD.WORK$ ;

  12096  3 000021   200003 470500                    LDP0    @GETCMD,,AUTO
         3 000022   000004 236100                    LDQ     4,,PR0
         3 000023   200146 756100                    STQ     XUG$,,AUTO

     2968    12097    1       XUG.HELP='0'B;

  12097  3 000024   200146 471500                    LDP1    XUG$,,AUTO
PL6.E3A0      #010=XUG$ERRMSG_COMMON File=XUG$COMMON.:E05TSI                     WED 07/30/97 09:25 Page:560
         3 000025   000000 236000 4                  LDQ     0
         3 000026   100071 356100                    ANSQ    57,,PR1

     2969    12098    1       DOWNGRADE_INHIBIT = %NO#;

  12098  3 000027   200147 450100                    STZ     DOWNGRADE_INHIBIT,,AUTO

     2970    12099    1       FPT_ERRMSG = FPT_ERRMSG_C;

  12099  3 000030   000100 100400                    MLR     fill='000'O
         3 000031   000002 000150 1                  ADSC9   FPT_ERRMSG_C             cn=0,n=104
         3 000032   200044 000150                    ADSC9   FPT_ERRMSG,,AUTO         cn=0,n=104

     2971    12100    1       FPT_ERRMSG.V_ = VECTOR (FPT_ERRMSG.V);

  12100  3 000033   000001 235000 4                  LDA     1
         3 000034   200216 452500                    STP2    XUG_INIT_A+36,,AUTO
         3 000035   200216 236100                    LDQ     XUG_INIT_A+36,,AUTO
         3 000036   000072 036003                    ADLQ    58,DU
         3 000037   200044 757100                    STAQ    FPT_ERRMSG,,AUTO

     2972    12101    1       FPT_ERRMSG.RESULTS_ = VECTOR (XUG_ERRMSG);

  12101  3 000040   000001 235000 4                  LDA     1
         3 000041   200216 452500                    STP2    XUG_INIT_A+36,,AUTO
         3 000042   200216 236100                    LDQ     XUG_INIT_A+36,,AUTO
         3 000043   000100 036003                    ADLQ    64,DU
         3 000044   200066 757100                    STAQ    FPT_ERRMSG+18,,AUTO

     2973    12102    1       FPT_ERRMSG.BUF_ = VECTOR (ERRBUF);

  12102  3 000045   000002 235000 4                  LDA     2
         3 000046   200216 452500                    STP2    XUG_INIT_A+36,,AUTO
         3 000047   200216 236100                    LDQ     XUG_INIT_A+36,,AUTO
         3 000050   000006 036003                    ADLQ    6,DU
         3 000051   200050 757100                    STAQ    FPT_ERRMSG+4,,AUTO

PL6.E3A0      #010=XUG$ERRMSG_COMMON File=XUG$COMMON.:E05TSI                     WED 07/30/97 09:25 Page:561
     2974    12103    1       FPT_ERRMSG.CODE_ = VECTOR (XUG.ERRSAVE);

  12103  3 000052   777640 235007                    LDA     -96,DL
         3 000053   200146 236100                    LDQ     XUG$,,AUTO
         3 000054   000067 036003                    ADLQ    55,DU
         3 000055   200046 757100                    STAQ    FPT_ERRMSG+2,,AUTO

     2975    12104    1       IF NOT ( XUG.FILENAME.C = 0 )

  12104  3 000056   100137 236100                    LDQ     95,,PR1
         3 000057   777000 316003                    CANQ    -512,DU
         3 000060   000075 600000 3                  TZE     s:12110

     2976    12105    2       THEN DO;

     2977    12106    2           FPT_ERRMSG.FILEACCT_ = VECTOR (XUG.FILEACCT);

  12106  3 000061   000003 235000 4                  LDA     3
         3 000062   200146 236100                    LDQ     XUG$,,AUTO
         3 000063   000147 036003                    ADLQ    103,DU
         3 000064   200054 757100                    STAQ    FPT_ERRMSG+8,,AUTO

     2978    12107    2           FPT_ERRMSG.FILENAME_ = VECTOR (XUG.FILENAME);

  12107  3 000065   000004 235000 4                  LDA     4
         3 000066   200146 236100                    LDQ     XUG$,,AUTO
         3 000067   000137 036003                    ADLQ    95,DU
         3 000070   200052 757100                    STAQ    FPT_ERRMSG+6,,AUTO

     2979    12108    2           FPT_ERRMSG.FILEPASS_ = VECTOR (XUG.FILEPASS);

  12108  3 000071   000003 235000 4                  LDA     3
         3 000072   200146 236100                    LDQ     XUG$,,AUTO
         3 000073   000151 036003                    ADLQ    105,DU
         3 000074   200056 757100                    STAQ    FPT_ERRMSG+10,,AUTO

     2980    12109    2       END;
PL6.E3A0      #010=XUG$ERRMSG_COMMON File=XUG$COMMON.:E05TSI                     WED 07/30/97 09:25 Page:562

     2981    12110    1       FPT_ERRMSG.FIELD1_ = GETCMD.F1_;

  12110  3 000075   000100 100500                    MLR     fill='000'O
         3 000076   000017 000010                    ADSC9   15,,PR0                  cn=0,n=8
         3 000077   200060 000010                    ADSC9   FPT_ERRMSG+12,,AUTO      cn=0,n=8

     2982    12111    1       FPT_ERRMSG.FIELD2_ = GETCMD.F2_;

  12111  3 000100   000100 100500                    MLR     fill='000'O
         3 000101   000021 000010                    ADSC9   17,,PR0                  cn=0,n=8
         3 000102   200062 000010                    ADSC9   FPT_ERRMSG+14,,AUTO      cn=0,n=8

     2983    12112    1       FPT_ERRMSG.FIELD3_ = GETCMD.F3_;

  12112  3 000103   000100 100500                    MLR     fill='000'O
         3 000104   000023 000010                    ADSC9   19,,PR0                  cn=0,n=8
         3 000105   200064 000010                    ADSC9   FPT_ERRMSG+16,,AUTO      cn=0,n=8

     2984    12113    1       IF GETCMD.ERR_CODE = '0'B

  12113  3 000106   000010 235100                    LDA     8,,PR0
         3 000107   000140 601000 3                  TNZ     s:12130

     2985    12114    2       THEN DO;

     2986    12115    2           IF XUG.NO_INCREMENT

  12115  3 000110   100071 236100                    LDQ     57,,PR1
         3 000111   000001 316007                    CANQ    1,DL
         3 000112   000116 600000 3                  TZE     s:12119

     2987    12116    2           THEN
     2988    12117    2               XUG.NO_INCREMENT = %NO#;

  12117  3 000113   000005 236000 4                  LDQ     5
         3 000114   100071 356100                    ANSQ    57,,PR1
PL6.E3A0      #010=XUG$ERRMSG_COMMON File=XUG$COMMON.:E05TSI                     WED 07/30/97 09:25 Page:563
         3 000115   000127 710000 3                  TRA     s:12124

     2989    12118    3           ELSE DO;

     2990    12119    3               IF XUG.ERRSAVE.SEV = 7

  12119  3 000116   100067 236100                    LDQ     55,,PR1
         3 000117   000007 376007                    ANQ     7,DL
         3 000120   000007 116007                    CMPQ    7,DL
         3 000121   000123 601000 3                  TNZ     s:12122

     2991    12120    3               THEN
     2992    12121    3                   ALTRETURN;

  12121  3 000122   000000 702200 xent               TSX2  ! X66_AALT

     2993    12122    3               XUG.ERRSAVE.SEV = XUG.ERRSAVE.SEV + 1;

  12122  3 000123   000001 036007                    ADLQ    1,DL
         3 000124   100067 676100                    ERQ     55,,PR1
         3 000125   000007 376007                    ANQ     7,DL
         3 000126   100067 656100                    ERSQ    55,,PR1

     2994    12123    3           END;

     2995    12124    2           FPT_ERRMSG.V.SUBMESS#='0'B;

  12124  3 000127   000006 236000 4                  LDQ     6
         3 000130   200074 356100                    ANSQ    FPT_ERRMSG+24,,AUTO

     2996    12125    2           FPT_ERRMSG.FIELD1_ = XUG.F1SAVE;

  12125  3 000131   100272 237100                    LDAQ    186,,PR1
         3 000132   200060 757100                    STAQ    FPT_ERRMSG+12,,AUTO

     2997    12126    2           FPT_ERRMSG.FIELD2_ = XUG.F2SAVE;

PL6.E3A0      #010=XUG$ERRMSG_COMMON File=XUG$COMMON.:E05TSI                     WED 07/30/97 09:25 Page:564
  12126  3 000133   100274 237100                    LDAQ    188,,PR1
         3 000134   200062 757100                    STAQ    FPT_ERRMSG+14,,AUTO

     2998    12127    2           FPT_ERRMSG.FIELD3_ = XUG.F3SAVE;

  12127  3 000135   100276 237100                    LDAQ    190,,PR1
         3 000136   200064 757100                    STAQ    FPT_ERRMSG+16,,AUTO

     2999    12128    2       END;

  12128  3 000137   000230 710000 3                  TRA     s:12156

     3000    12129    2       ELSE DO;

     3001    12130    2           IF GETCMD.INFOMSG#

  12130  3 000140   000006 430100                    FSZN    6,,PR0
         3 000141   000160 604000 3                  TMI     s:12135
         3 000142   100071 236100                    LDQ     57,,PR1
         3 000143   000004 316007                    CANQ    4,DL
         3 000144   000174 600000 3                  TZE     s:12141
         3 000145   000002 316007                    CANQ    2,DL
         3 000146   000174 600000 3                  TZE     s:12141
         3 000147   100266 236100                    LDQ     182,,PR1
         3 000150   000022 772000                    QRL     18
         3 000151   000777 376007                    ANQ     511,DL
         3 000152   200216 756100                    STQ     XUG_INIT_A+36,,AUTO
         3 000153   000006 236100                    LDQ     6,,PR0
         3 000154   000022 772000                    QRL     18
         3 000155   000777 376007                    ANQ     511,DL
         3 000156   200216 116100                    CMPQ    XUG_INIT_A+36,,AUTO
         3 000157   000174 605000 3                  TPL     s:12141

     3002    12131    2             OR (XUG.NO_DOWNGRADE
     3003    12132    2             AND XUG.FIRST_ERROR
     3004    12133    2             AND XUG.LAST_FLAGLEV > GETCMD.FLGLEV#)
     3005    12134    3           THEN DO;
PL6.E3A0      #010=XUG$ERRMSG_COMMON File=XUG$COMMON.:E05TSI                     WED 07/30/97 09:25 Page:565

     3006    12135    3               DOWNGRADE_INHIBIT = %YES#;

  12135  3 000160   400000 236003                    LDQ     -131072,DU
         3 000161   200147 756100                    STQ     DOWNGRADE_INHIBIT,,AUTO

     3007    12136    3               TEMP_ERRCODE = GETCMD.ERR_CODE;

  12136  3 000162   000010 236100                    LDQ     8,,PR0
         3 000163   200076 756100                    STQ     TEMP_ERRCODE,,AUTO

     3008    12137    3               TEMP_ERRCODE.SEV = 0;

  12137  3 000164   000007 236000 4                  LDQ     7
         3 000165   200076 356100                    ANSQ    TEMP_ERRCODE,,AUTO

     3009    12138    3               FPT_ERRMSG.CODE_ = VECTOR (TEMP_ERRCODE);

  12138  3 000166   777640 235007                    LDA     -96,DL
         3 000167   200216 452500                    STP2    XUG_INIT_A+36,,AUTO
         3 000170   200216 236100                    LDQ     XUG_INIT_A+36,,AUTO
         3 000171   000076 036003                    ADLQ    62,DU
         3 000172   200046 757100                    STAQ    FPT_ERRMSG+2,,AUTO

     3010    12139    3           END;

  12139  3 000173   000223 710000 3                  TRA     s:12152

     3011    12140    3           ELSE DO;

     3012    12141    3               XUG.ERRSAVE=GETCMD.ERR_CODE;

  12141  3 000174   000010 236100                    LDQ     8,,PR0
         3 000175   100067 756100                    STQ     55,,PR1

     3013    12142    3               XUG.ERRSAVE.SEV=0;

PL6.E3A0      #010=XUG$ERRMSG_COMMON File=XUG$COMMON.:E05TSI                     WED 07/30/97 09:25 Page:566
  12142  3 000176   000007 236000 4                  LDQ     7
         3 000177   100067 356100                    ANSQ    55,,PR1

     3014    12143    3               XUG.LAST_FLAGLEV = GETCMD.FLGLEV#;

  12143  3 000200   000006 236100                    LDQ     6,,PR0
         3 000201   100266 552120                    STBQ    182,'20'O,PR1

     3015    12144    3               XUG.FIRST_ERROR = %YES#;

  12144  3 000202   000002 236007                    LDQ     2,DL
         3 000203   100071 256100                    ORSQ    57,,PR1

     3016    12145    3               XUG.F1SAVE = GETCMD.F1_ ;

  12145  3 000204   000100 100500                    MLR     fill='000'O
         3 000205   000017 000010                    ADSC9   15,,PR0                  cn=0,n=8
         3 000206   100272 000010                    ADSC9   186,,PR1                 cn=0,n=8

     3017    12146    3               XUG.F2SAVE = GETCMD.F2_ ;

  12146  3 000207   000100 100500                    MLR     fill='000'O
         3 000210   000021 000010                    ADSC9   17,,PR0                  cn=0,n=8
         3 000211   100274 000010                    ADSC9   188,,PR1                 cn=0,n=8

     3018    12147    3               XUG.F3SAVE = GETCMD.F3_ ;

  12147  3 000212   000100 100500                    MLR     fill='000'O
         3 000213   000023 000010                    ADSC9   19,,PR0                  cn=0,n=8
         3 000214   100276 000010                    ADSC9   190,,PR1                 cn=0,n=8

     3019    12148    3               IF GETCMD.XT_PARAM$ ~= ADDR(NIL)

  12148  3 000215   000036 236100                    LDQ     30,,PR0
         3 000216   000001 116000 xsym               CMPQ    B_VECTNIL+1
         3 000217   000223 600000 3                  TZE     s:12152

PL6.E3A0      #010=XUG$ERRMSG_COMMON File=XUG$COMMON.:E05TSI                     WED 07/30/97 09:25 Page:567
     3020    12149    3               THEN
     3021    12150    3                   GETCMD.XT_PARAM$ -> XT$PARAM.ERR = XUG.ERRSAVE ;

  12150  3 000220   000036 473500                    LDP3    30,,PR0
         3 000221   100067 236100                    LDQ     55,,PR1
         3 000222   300001 756100                    STQ     1,,PR3

     3022    12151    3           END;

     3023    12152    2           XUG.NO_INCREMENT = %NO#;

  12152  3 000223   000005 236000 4                  LDQ     5
         3 000224   100071 356100                    ANSQ    57,,PR1

     3024    12153    2           FPT_ERRMSG.V.SUBMESS#='1'B;

  12153  3 000225   001000 236003                    LDQ     512,DU
         3 000226   200074 256100                    ORSQ    FPT_ERRMSG+24,,AUTO

     3025    12154    2           XUG.ERRDCB = DCBNUM(NIL);

  12154  3 000227   100070 450100                    STZ     56,,PR1

     3026    12155    2       END;

     3027    12156    1       GETCMD.INFOMSG# = %NO# ;

  12156  3 000230   000006 236000 4                  LDQ     6
         3 000231   000006 356100                    ANSQ    6,,PR0

     3028    12157    1       IF GETCMD.ERRDCB# ~= DCBNUM(NIL)

  12157  3 000232   000011 235100                    LDA     9,,PR0
         3 000233   000235 600000 3                  TZE     s:12160

     3029    12158    1       THEN
     3030    12159    1           XUG.ERRDCB = GETCMD.ERRDCB# ;
PL6.E3A0      #010=XUG$ERRMSG_COMMON File=XUG$COMMON.:E05TSI                     WED 07/30/97 09:25 Page:568

  12159  3 000234   100070 755100                    STA     56,,PR1

     3031    12160    1       FPT_ERRMSG.V.DCB# = XUG.ERRDCB ;

  12160  3 000235   100070 720100                    LXL0    56,,PR1
         3 000236   200072 740100                    STX0    FPT_ERRMSG+22,,AUTO

     3032    12161    1       IF GETCMD.DCB_PARAM#=DCBNUM(NIL) AND GETCMD.DCB2_PARAM#=DCBNUM(NIL)

  12161  3 000237   000014 235100                    LDA     12,,PR0
         3 000240   000262 601000 3                  TNZ     NO_LO
         3 000241   000015 235100                    LDA     13,,PR0
         3 000242   000262 601000 3                  TNZ     NO_LO

     3033    12162    2       THEN DO ;

     3034    12163    2           IF GETCMD.OUTDCB#~=DCBNUM(NIL)

  12163  3 000243   000013 235100                    LDA     11,,PR0
         3 000244   000250 600000 3                  TZE     s:12167

     3035    12164    2           THEN
     3036    12165    2               FPT_ERRMSG.V.OUTDCB2#=GETCMD.OUTDCB#;

  12165  3 000245   000013 721100                    LXL1    11,,PR0
         3 000246   200073 741100                    STX1    FPT_ERRMSG+23,,AUTO
         3 000247   000262 710000 3                  TRA     NO_LO

     3037    12166    3           ELSE DO;

     3038    12167    3               CALL XUG$FINDDCB_COMMON(M$LO,M$LO#) ALTRET(NO_LO);

  12167  3 000250   200005 633500                    EPPR3   M$LO#,,AUTO
         3 000251   200217 453500                    STP3    XUG_INIT_A+37,,AUTO
         3 000252   000010 236000 4                  LDQ     8
         3 000253   200216 756100                    STQ     XUG_INIT_A+36,,AUTO
PL6.E3A0      #010=XUG$ERRMSG_COMMON File=XUG$COMMON.:E05TSI                     WED 07/30/97 09:25 Page:569
         3 000254   200216 630500                    EPPR0   XUG_INIT_A+36,,AUTO
         3 000255   000020 631400 xsym               EPPR1   B_VECTNIL+16
         3 000256   000000 701000 xent               TSX1    XUG$FINDDCB_COMMON
         3 000257   000262 702000 3                  TSX2    NO_LO

     3039    12168    3               FPT_ERRMSG.V.OUTDCB2#=M$LO#;

  12168  3 000260   200005 720100                    LXL0    M$LO#,,AUTO
         3 000261   200073 740100                    STX0    FPT_ERRMSG+23,,AUTO

     3040    12169    3           END;

     3041    12170    2   NO_LO: END;

  12170  3 000262                       NO_LO        null
     3042    12171    1       IF GETCMD.DCB_PARAM#~=DCBNUM(NIL) AND GETCMD.DCB2_PARAM#~=DCBNUM(NIL)

  12171  3 000262   200003 470500                    LDP0    @GETCMD,,AUTO
         3 000263   000014 235100                    LDA     12,,PR0
         3 000264   000274 600000 3                  TZE     s:12177
         3 000265   000015 235100                    LDA     13,,PR0
         3 000266   000274 600000 3                  TZE     s:12177

     3043    12172    2       THEN DO ;

     3044    12173    2           FPT_ERRMSG.V.OUTDCB1#=GETCMD.DCB_PARAM# ;

  12173  3 000267   000014 720100                    LXL0    12,,PR0
         3 000270   200072 440100                    SXL0    FPT_ERRMSG+22,,AUTO

     3045    12174    2           FPT_ERRMSG.V.OUTDCB2# = GETCMD.DCB2_PARAM# ;

  12174  3 000271   000015 721100                    LXL1    13,,PR0
         3 000272   200073 741100                    STX1    FPT_ERRMSG+23,,AUTO

     3046    12175    2       END ;

PL6.E3A0      #010=XUG$ERRMSG_COMMON File=XUG$COMMON.:E05TSI                     WED 07/30/97 09:25 Page:570
  12175  3 000273   000305 710000 3                  TRA     s:12184

     3047    12176    1       ELSE
     3048    12177    1           IF GETCMD.DCB_PARAM#~=DCBNUM(NIL)

  12177  3 000274   000014 235100                    LDA     12,,PR0
         3 000275   000301 600000 3                  TZE     s:12181

     3049    12178    1           THEN
     3050    12179    1               FPT_ERRMSG.V.OUTDCB1#=GETCMD.DCB_PARAM# ;

  12179  3 000276   000014 720100                    LXL0    12,,PR0
         3 000277   200072 440100                    SXL0    FPT_ERRMSG+22,,AUTO
         3 000300   000305 710000 3                  TRA     s:12184

     3051    12180    1           ELSE
     3052    12181    1               IF GETCMD.DCB2_PARAM#~=DCBNUM(NIL)

  12181  3 000301   000015 235100                    LDA     13,,PR0
         3 000302   000305 600000 3                  TZE     s:12184

     3053    12182    1               THEN
     3054    12183    1                   FPT_ERRMSG.V.OUTDCB2#=GETCMD.DCB2_PARAM# ;

  12183  3 000303   000015 720100                    LXL0    13,,PR0
         3 000304   200073 740100                    STX0    FPT_ERRMSG+23,,AUTO

     3055    12184    1       DCB# = FPT_ERRMSG.V.OUTDCB1#;

  12184  3 000305   200072 236100                    LDQ     FPT_ERRMSG+22,,AUTO
         3 000306   777777 376007                    ANQ     -1,DL
         3 000307   200150 756100                    STQ     DCB#,,AUTO

     3056    12185    1       CALL XUG$OPENOUT_INTERNAL (GETCMD, DCB#);

  12185  3 000310   200150 631500                    EPPR1   DCB#,,AUTO
         3 000311   200217 451500                    STP1    XUG_INIT_A+37,,AUTO
PL6.E3A0      #010=XUG$ERRMSG_COMMON File=XUG$COMMON.:E05TSI                     WED 07/30/97 09:25 Page:571
         3 000312   200003 236100                    LDQ     @GETCMD,,AUTO
         3 000313   200216 756100                    STQ     XUG_INIT_A+36,,AUTO
         3 000314   200216 630500                    EPPR0   XUG_INIT_A+36,,AUTO
         3 000315   000020 631400 xsym               EPPR1   B_VECTNIL+16
         3 000316   000000 701000 xent               TSX1    XUG$OPENOUT_INTERNAL
         3 000317   000000 011000                    NOP     0

     3057    12186    1       DCB# = FPT_ERRMSG.V.OUTDCB2#;

  12186  3 000320   200073 235100                    LDA     FPT_ERRMSG+23,,AUTO
         3 000321   000022 771000                    ARL     18
         3 000322   200150 755100                    STA     DCB#,,AUTO

     3058    12187    1       CALL XUG$OPENOUT_INTERNAL (GETCMD, DCB#);

  12187  3 000323   200150 630500                    EPPR0   DCB#,,AUTO
         3 000324   200217 450500                    STP0    XUG_INIT_A+37,,AUTO
         3 000325   200003 236100                    LDQ     @GETCMD,,AUTO
         3 000326   200216 756100                    STQ     XUG_INIT_A+36,,AUTO
         3 000327   200216 630500                    EPPR0   XUG_INIT_A+36,,AUTO
         3 000330   000020 631400 xsym               EPPR1   B_VECTNIL+16
         3 000331   000000 701000 xent               TSX1    XUG$OPENOUT_INTERNAL
         3 000332   000000 011000                    NOP     0

     3059    12188    1       IF GETCMD.ERRMSG_VFC# ~= ' '

  12188  3 000333   200003 470500                    LDP0    @GETCMD,,AUTO
         3 000334   000007 236100                    LDQ     7,,PR0
         3 000335   777000 376003                    ANQ     -512,DU
         3 000336   040000 116003                    CMPQ    16384,DU
         3 000337   000343 600000 3                  TZE     s:12191

     3060    12189    1       THEN
     3061    12190    1           FPT_ERRMSG.V.VFC# = GETCMD.ERRMSG_VFC# ;

  12190  3 000340   000007 236100                    LDQ     7,,PR0
         3 000341   000033 772000                    QRL     27
PL6.E3A0      #010=XUG$ERRMSG_COMMON File=XUG$COMMON.:E05TSI                     WED 07/30/97 09:25 Page:572
         3 000342   200073 552104                    STBQ    FPT_ERRMSG+23,'04'O,AUTO

     3062    12191    1       FPT_ERRMSG.V.FLAGLEV# = GETCMD.FLGLEV# ;

  12191  3 000343   000006 236100                    LDQ     6,,PR0
         3 000344   000011 772000                    QRL     9
         3 000345   200073 552110                    STBQ    FPT_ERRMSG+23,'10'O,AUTO

     3063    12192    1       IF NOT XUG.POINTED_TO_SYNERR

  12192  3 000346   200146 471500                    LDP1    XUG$,,AUTO
         3 000347   100071 236100                    LDQ     57,,PR1
         3 000350   200000 316007                    CANQ    65536,DL
         3 000351   000360 600000 3                  TZE     s:12196
         3 000352   200047 473500                    LDP3    FPT_ERRMSG+3,,AUTO
         3 000353   300000 236100                    LDQ     0,,PR3
         3 000354   000034 116000 1                  CMPQ    XUG_SYNERR
         3 000355   000373 600000 3                  TZE     s:12201
         3 000356   000035 116000 1                  CMPQ    XUR_SYNERR
         3 000357   000373 600000 3                  TZE     s:12201

     3064    12193    1         OR (VBASE(BITVECT(FPT_ERRMSG.CODE_))->BASED_ERRCODE ~= XUG_SYNERR
     3065    12194    1         AND VBASE(BITVECT(FPT_ERRMSG.CODE_))->BASED_ERRCODE ~= XUR_SYNERR)
     3066    12195    2       THEN DO;

     3067    12196    2           CALL M$ERRMSG(FPT_ERRMSG) ALTRET(ALT);

  12196  3 000360   200044 630500                    EPPR0   FPT_ERRMSG,,AUTO
         3 000361   420000 713400                    CLIMB   alt,+8192
         3 000362   405000 401760                    pmme    nvectors=11
         3 000363   000520 702000 3                  TSX2    ALT

     3068    12197    2           IF FPT_ERRMSG.V.SUBMESS# AND NOT DOWNGRADE_INHIBIT

  12197  3 000364   200074 430100                    FSZN    FPT_ERRMSG+24,,AUTO
         3 000365   000373 605000 3                  TPL     s:12201
         3 000366   200147 234100                    SZN     DOWNGRADE_INHIBIT,,AUTO
PL6.E3A0      #010=XUG$ERRMSG_COMMON File=XUG$COMMON.:E05TSI                     WED 07/30/97 09:25 Page:573
         3 000367   000373 604000 3                  TMI     s:12201

     3069    12198    2           THEN
     3070    12199    2               XUG.ERRSAVE = XUG_ERRMSG.CODEUSED;

  12199  3 000370   200103 236100                    LDQ     XUG_ERRMSG+3,,AUTO
         3 000371   200146 470500                    LDP0    XUG$,,AUTO
         3 000372   000067 756100                    STQ     55,,PR0

     3071    12200    2       END;

     3072    12201    1       RETURN;

  12201  3 000373   000000 702200 xent               TSX2  ! X66_ARET

     3073    12202        %EJECT;
PL6.E3A0      #010=XUG$ERRMSG_COMMON File=XUG$COMMON.:E05TSI                     WED 07/30/97 09:25 Page:574
     3074    12203    1   XUG$SETERRMSG_COMMON: ENTRY(GETCMD) ALTRET;

  12203  3 000374   000000 700200 xent  XUG$SETERRM* TSX0  ! X66_AUTO_1
         3 000375   000220 000001                    ZERO    144,1

     3075    12204    1       IF GETCMD.WORK$ = ADDR (NIL)

  12204  3 000376   200003 470500                    LDP0    @GETCMD,,AUTO
         3 000377   000004 236100                    LDQ     4,,PR0
         3 000400   000001 116000 xsym               CMPQ    B_VECTNIL+1
         3 000401   000415 601000 3                  TNZ     s:12209

     3076    12205    2       THEN DO;

     3077    12206    2           XUG_INIT_A = XUG_INIT_C ;

  12206  3 000402   000100 100400                    MLR     fill='000'O
         3 000403   000000 000220 xsym               ADSC9   XUG_INIT_C               cn=0,n=144
         3 000404   200152 000220                    ADSC9   XUG_INIT_A,,AUTO         cn=0,n=144

     3078    12207    2           CALL XUG$INIT_COMMON (GETCMD,XUG_INIT_A) ALTRET(ALT) ;

  12207  3 000405   200152 631500                    EPPR1   XUG_INIT_A,,AUTO
         3 000406   200217 451500                    STP1    XUG_INIT_A+37,,AUTO
         3 000407   200003 236100                    LDQ     @GETCMD,,AUTO
         3 000410   200216 756100                    STQ     XUG_INIT_A+36,,AUTO
         3 000411   200216 630500                    EPPR0   XUG_INIT_A+36,,AUTO
         3 000412   000020 631400 xsym               EPPR1   B_VECTNIL+16
         3 000413   000000 701000 xent               TSX1    XUG$INIT_COMMON
         3 000414   000520 702000 3                  TSX2    ALT

     3079    12208    2       END ; /* Then Do */

     3080    12209    1       XUG$ = GETCMD.WORK$ ;

  12209  3 000415   200003 470500                    LDP0    @GETCMD,,AUTO
         3 000416   000004 236100                    LDQ     4,,PR0
PL6.E3A0      #010=XUG$ERRMSG_COMMON File=XUG$COMMON.:E05TSI                     WED 07/30/97 09:25 Page:575
         3 000417   200146 756100                    STQ     XUG$,,AUTO

     3081    12210    1       DOWNGRADE_INHIBIT = %NO#;

  12210  3 000420   200147 450100                    STZ     DOWNGRADE_INHIBIT,,AUTO

     3082    12211    1       IF GETCMD.ERR_CODE ~= '0'B

  12211  3 000421   000010 235100                    LDA     8,,PR0
         3 000422   000440 600000 3                  TZE     s:12220

     3083    12212    2       THEN DO;

     3084    12213    2           XUG.ERRSAVE = GETCMD.ERR_CODE;

  12213  3 000423   000010 236100                    LDQ     8,,PR0
         3 000424   200146 471500                    LDP1    XUG$,,AUTO
         3 000425   100067 756100                    STQ     55,,PR1

     3085    12214    2           XUG.NO_INCREMENT = %YES#;

  12214  3 000426   000001 236007                    LDQ     1,DL
         3 000427   100071 256100                    ORSQ    57,,PR1

     3086    12215    2           XUG.HELP = '0'B;

  12215  3 000430   000000 236000 4                  LDQ     0
         3 000431   100071 356100                    ANSQ    57,,PR1

     3087    12216    2           IF GETCMD.XT_PARAM$ ~= ADDR(NIL)

  12216  3 000432   000036 236100                    LDQ     30,,PR0
         3 000433   000001 116000 xsym               CMPQ    B_VECTNIL+1
         3 000434   000440 600000 3                  TZE     s:12220

     3088    12217    2           THEN
     3089    12218    2               GETCMD.XT_PARAM$ -> XT$PARAM.ERR = XUG.ERRSAVE ;
PL6.E3A0      #010=XUG$ERRMSG_COMMON File=XUG$COMMON.:E05TSI                     WED 07/30/97 09:25 Page:576

  12218  3 000435   000036 473500                    LDP3    30,,PR0
         3 000436   100067 236100                    LDQ     55,,PR1
         3 000437   300001 756100                    STQ     1,,PR3

     3090    12219    2       END;

     3091    12220    1       FID$=GETCMD.ERRMFID$ ;

  12220  3 000440   000002 236100                    LDQ     2,,PR0
         3 000441   200004 756100                    STQ     FID$,,AUTO

     3092    12221    2       IF FID$=ADDR(NIL) THEN DO;

  12221  3 000442   000001 116000 xsym               CMPQ    B_VECTNIL+1
         3 000443   000450 601000 3                  TNZ     s:12225

     3093    12222    2           XUG.FILENAME.C = 0;

  12222  3 000444   200146 471500                    LDP1    XUG$,,AUTO
         3 000445   000000 236003                    LDQ     0,DU
         3 000446   100137 552140                    STBQ    95,'40'O,PR1

     3094    12223    2       END;

  12223  3 000447   000517 710000 3                  TRA     s:12235

     3095    12224    2       ELSE DO;

     3096    12225    2           FPT_FID = FPT_FID_C;

  12225  3 000450   000100 100400                    MLR     fill='000'O
         3 000451   000036 000140 1                  ADSC9   FPT_FID_C                cn=0,n=96
         3 000452   200104 000140                    ADSC9   FPT_FID,,AUTO            cn=0,n=96

     3097    12226    2           FPT_FID.ASN_ = VECTOR (VLR_FID);

PL6.E3A0      #010=XUG$ERRMSG_COMMON File=XUG$COMMON.:E05TSI                     WED 07/30/97 09:25 Page:577
  12226  3 000453   000011 235000 4                  LDA     9
         3 000454   200216 452500                    STP2    XUG_INIT_A+36,,AUTO
         3 000455   200216 236100                    LDQ     XUG_INIT_A+36,,AUTO
         3 000456   000134 036003                    ADLQ    92,DU
         3 000457   200122 757100                    STAQ    FPT_FID+14,,AUTO

     3098    12227    2           FPT_FID.RES_ = FPT_FID.ASN_;

  12227  3 000460   200122 237100                    LDAQ    FPT_FID+14,,AUTO
         3 000461   200124 757100                    STAQ    FPT_FID+16,,AUTO

     3099    12228    2           FPT_FID.RESULTS_ = FPT_FID.ASN_;

  12228  3 000462   200122 237100                    LDAQ    FPT_FID+14,,AUTO
         3 000463   200126 757100                    STAQ    FPT_FID+18,,AUTO

     3100    12229    2           FPT_FID.TEXTFID_ = VECTOR (FID.C);

  12229  3 000464   200004 471500                    LDP1    FID$,,AUTO
         3 000465   000100 101500                    MRL     fill='000'O
         3 000466   100000 000001                    ADSC9   0,,PR1                   cn=0,n=1
         3 000467   200216 000002                    ADSC9   XUG_INIT_A+36,,AUTO      cn=0,n=2
         3 000470   200216 220100                    LDX0    XUG_INIT_A+36,,AUTO
         3 000471   000000 635010                    EAA     0,X0
         3 000472   000002 771000                    ARL     2
         3 000473   000140 135007                    SBLA    96,DL
         3 000474   200004 236100                    LDQ     FID$,,AUTO
         3 000475   200000 036007                    ADLQ    65536,DL
         3 000476   200106 757100                    STAQ    FPT_FID+2,,AUTO

     3101    12230    2           FPT_FID.ACCT_ = VECTOR (XUG.FILEACCT);

  12230  3 000477   000003 235000 4                  LDA     3
         3 000500   200146 236100                    LDQ     XUG$,,AUTO
         3 000501   000147 036003                    ADLQ    103,DU
         3 000502   200112 757100                    STAQ    FPT_FID+6,,AUTO

PL6.E3A0      #010=XUG$ERRMSG_COMMON File=XUG$COMMON.:E05TSI                     WED 07/30/97 09:25 Page:578
     3102    12231    2           FPT_FID.NAME_ = VECTOR (XUG.FILENAME);

  12231  3 000503   000004 235000 4                  LDA     4
         3 000504   200146 236100                    LDQ     XUG$,,AUTO
         3 000505   000137 036003                    ADLQ    95,DU
         3 000506   200110 757100                    STAQ    FPT_FID+4,,AUTO

     3103    12232    2           FPT_FID.PASS_ = VECTOR (XUG.FILEPASS);

  12232  3 000507   000003 235000 4                  LDA     3
         3 000510   200146 236100                    LDQ     XUG$,,AUTO
         3 000511   000151 036003                    ADLQ    105,DU
         3 000512   200114 757100                    STAQ    FPT_FID+8,,AUTO

     3104    12233    2           CALL M$FID (FPT_FID) ALTRET (ALT);

  12233  3 000513   200104 630500                    EPPR0   FPT_FID,,AUTO
         3 000514   420001 713400                    CLIMB   alt,+8193
         3 000515   404400 401760                    pmme    nvectors=10
         3 000516   000520 702000 3                  TSX2    ALT

     3105    12234    2       END;

     3106    12235    1       RETURN;

  12235  3 000517   000000 702200 xent               TSX2  ! X66_ARET

     3107    12236    1   ALT:
     3108    12237    1       IF NOT DOWNGRADE_INHIBIT

  12237  3 000520   200147 234100       ALT          SZN     DOWNGRADE_INHIBIT,,AUTO
         3 000521   000524 604000 3                  TMI     s:12240

     3109    12238    1       THEN
     3110    12239    1           XUG.ERRSAVE = '0'B;

  12239  3 000522   200146 470500                    LDP0    XUG$,,AUTO
PL6.E3A0      #010=XUG$ERRMSG_COMMON File=XUG$COMMON.:E05TSI                     WED 07/30/97 09:25 Page:579
         3 000523   000067 450100                    STZ     55,,PR0

     3111    12240    1       ALTRETURN;

  12240  3 000524   000000 702200 xent               TSX2  ! X66_AALT
     3112    12241    1   END XUG$ERRMSG_COMMON ;
     3113    12242        %EOD;

PL6.E3A0      #010=XUG$ERRMSG_COMMON File=XUG$COMMON.:E05TSI                     WED 07/30/97 09:25 Page:580
--  Include file information  --

   CP_6_SUBS.:E05TOU  is referenced.
   CP_6_C.:E05TOU  is referenced.
   CP_6.:E05TOU  cannot be made into a system file and is referenced.
   XT_MACRO_M.:TOOLE04  is referenced.
   XUH_MACRO_C.:E05TOU  is referenced.
   XU_PERR_C.:E05TOU  is referenced.
   XU_MACRO_C.:E05TOU  is referenced.
      No diagnostics issued in procedure XUG$ERRMSG_COMMON.
PL6.E3A0      #010=XUG$ERRMSG_COMMON File=XUG$COMMON.:E05TSI                     WED 07/30/97 09:25 Page:581

 **** Variables and constants ****

  ****  Section 001 RoData XUG$ERRMSG_COMMON

  ****  Scalars and arrays  ****
OctLoc.c.b A Datatyp(siz) R M Lvl/name                 OctLoc.c.b A Datatyp(siz) R M Lvl/name

     2-0-0/d STRC(936)   r     1 FPT_ERRMSG_C              36-0-0/d STRC(864)   r     1 FPT_FID_C
     0-0-0/c STRC(45)    r     1 M$LO                      34-0-0/w STRC        r     1 XUG_SYNERR
    35-0-0/w STRC        r     1 XUR_SYNERR

  ****  Auto variables  ****

  ****  Scalars and arrays  ****
OctLoc.c.b A Datatyp(siz) R M Lvl/name                 OctLoc.c.b A Datatyp(siz) R M Lvl/name

     3-0-0/w PTR         r     1 @GETCMD                  150-0-0/w UBIN        r     1 DCB#
   147-0-0/b BIT         r     1 DOWNGRADE_INHIBIT          6-0-0/c CHAR(120)   r     1 ERRBUF
     4-0-0/w PTR         r     1 FID$                      44-0-0/d STRC(936)   r     1 FPT_ERRMSG
   104-0-0/d STRC(864)   r     1 FPT_FID                   *0-0-0/d STRC(1512)  r     1 GETCMD
     5-0-0/w SBIN        r     1 M$LO#                     76-0-0/w STRC        r     1 TEMP_ERRCODE
   134-0-0/d STRC(324)   r     1 VLR_FID                  146-0-0/w PTR         r     1 XUG$
   100-0-0/d STRC(144)   r     1 XUG_ERRMSG               152-0-0/d STRC(1296)  r     1 XUG_INIT_A

  ****  SYMREF variables  ****

  ****  Scalars and arrays  ****
OctLoc.c.b A Datatyp(siz) R M Lvl/name                 OctLoc.c.b A Datatyp(siz) R M Lvl/name

     0-0-0/d STRC(1296)  r     1 XUG_INIT_C

  ****  BASED and DCB variables  ****

  ****  Scalars and arrays  ****
OctLoc.c.b A Datatyp(siz) R M Lvl/name                 OctLoc.c.b A Datatyp(siz) R M Lvl/name

     0-0-0/w STRC        r     1 BASED_ERRCODE              0-0-0/c ASTR(9)     r     1 FID
PL6.E3A0      #010=XUG$ERRMSG_COMMON File=XUG$COMMON.:E05TSI                     WED 07/30/97 09:25 Page:582
     0-0-0N  NULL        r     1 M$DO                       0-0-0/w STRC(1152)  r     1 XT$PARAM
     0-0-0/d STRC(9612)  r     1 XUG


   Procedure XUG$ERRMSG_COMMON requires 341 words for executable code.
   Procedure XUG$ERRMSG_COMMON requires 144 words of local(AUTO) storage.
PL6.E3A0      #010=XUG$ERRMSG_COMMON File=XUG$COMMON.:E05TSI                     WED 07/30/97 09:25 Page:583
          *** CROSS REFERENCE LISTING ***
**     DENOTES     IDENTIFIER DEFINITION
<<                 IDENTIFIER'S VALUE SET
>>                 IDENTIFIER'S VALUE USED
<>                 IDENTIFIER SET AND/OR USED
--                 IDENTIFIER REFERENCED
PL6.E3A0      #010=XUG$ERRMSG_COMMON File=XUG$COMMON.:E05TSI                     WED 07/30/97 09:25 Page:584
          MINI XREF LISTING

ALT
     12237**LABEL   12094--CALLALT 12196--CALLALT 12207--CALLALT 12233--CALLALT
BASED_ERRCODE
     10289**DCL     12192>>IF      12192>>IF
DCB#
     10505**DCL     12184<<ASSIGN  12185<>CALL    12186<<ASSIGN  12187<>CALL
DOWNGRADE_INHIBIT
     10504**DCL     12098<<ASSIGN  12135<<ASSIGN  12197>>IF      12210<<ASSIGN  12237>>IF
ERRBUF
     10176**DCL     12102--ASSIGN
FID.C
      4058**DCL     12229--ASSIGN
FID.L
      4057**DCL      4058--IMP-SIZ 12229>>ASSIGN
FID$
      4055**DCL      4056--IMP-PTR 12220<<ASSIGN  12221>>IF      12229>>ASSIGN  12229>>ASSIGN
FPT_ERRMSG
     10216**DCL     12099<<ASSIGN  12196<>CALL
FPT_ERRMSG.BUF_
     10216**DCL     12102<<ASSIGN
FPT_ERRMSG.CODE_
     10216**DCL     12103<<ASSIGN  12138<<ASSIGN  12192>>IF      12192>>IF
FPT_ERRMSG.FIELD1_
     10218**DCL     12110<<ASSIGN  12125<<ASSIGN
FPT_ERRMSG.FIELD2_
     10219**DCL     12111<<ASSIGN  12126<<ASSIGN
FPT_ERRMSG.FIELD3_
     10219**DCL     12112<<ASSIGN  12127<<ASSIGN
FPT_ERRMSG.FILEACCT_
     10217**DCL     12106<<ASSIGN
FPT_ERRMSG.FILENAME_
     10217**DCL     12107<<ASSIGN
PL6.E3A0      #010=XUG$ERRMSG_COMMON File=XUG$COMMON.:E05TSI                     WED 07/30/97 09:25 Page:585
FPT_ERRMSG.FILEPASS_
     10218**DCL     12108<<ASSIGN
FPT_ERRMSG.RESULTS_
     10219**DCL     12101<<ASSIGN
FPT_ERRMSG.V
     10220**DCL     12100--ASSIGN
FPT_ERRMSG.V.DCB#
     10220**DCL     12160<<ASSIGN
FPT_ERRMSG.V.FLAGLEV#
     10222**DCL     12191<<ASSIGN
FPT_ERRMSG.V.OUTDCB1#
     10221**DCL     12173<<ASSIGN  12179<<ASSIGN  12184>>ASSIGN
FPT_ERRMSG.V.OUTDCB2#
     10221**DCL     12165<<ASSIGN  12168<<ASSIGN  12174<<ASSIGN  12183<<ASSIGN  12186>>ASSIGN
FPT_ERRMSG.V.SUBMESS#
     10226**DCL     12124<<ASSIGN  12153<<ASSIGN  12197>>IF
FPT_ERRMSG.V.VFC#
     10222**DCL     12190<<ASSIGN
FPT_ERRMSG.V_
     10216**DCL     12100<<ASSIGN
FPT_ERRMSG_C
     10189**DCL     12099>>ASSIGN
FPT_ERRMSG_C.V
     10193**DCL     10189--DCLINIT
FPT_FID
     10470**DCL     12225<<ASSIGN  12233<>CALL
FPT_FID.ACCT_
     10471**DCL     12230<<ASSIGN
FPT_FID.ASN_
     10473**DCL     12226<<ASSIGN  12227>>ASSIGN  12228>>ASSIGN
FPT_FID.NAME_
     10471**DCL     12231<<ASSIGN
FPT_FID.PASS_
     10471**DCL     12232<<ASSIGN
FPT_FID.RESULTS_
     10473**DCL     12228<<ASSIGN
PL6.E3A0      #010=XUG$ERRMSG_COMMON File=XUG$COMMON.:E05TSI                     WED 07/30/97 09:25 Page:586
FPT_FID.RES_
     10473**DCL     12227<<ASSIGN
FPT_FID.TEXTFID_
     10470**DCL     12229<<ASSIGN
FPT_FID_C
     10447**DCL     12225>>ASSIGN
FPT_FID_C.V
     10451**DCL     10447--DCLINIT
GETCMD
      3730**DCL         8--PROC    12094<>CALL    12185<>CALL    12187<>CALL    12203--ENTRY   12207<>CALL
GETCMD.DCB2_PARAM#
      3915**DCL     12161>>IF      12171>>IF      12174>>ASSIGN  12181>>IF      12183>>ASSIGN
GETCMD.DCB_PARAM#
      3910**DCL     12161>>IF      12171>>IF      12173>>ASSIGN  12177>>IF      12179>>ASSIGN
GETCMD.ERRDCB#
      3889**DCL     12157>>IF      12159>>ASSIGN
GETCMD.ERRMFID$
      3749**DCL     12220>>ASSIGN
GETCMD.ERRMSG_VFC#
      3845**DCL     12188>>IF      12190>>ASSIGN
GETCMD.ERR_CODE
      3878**DCL     12113>>IF      12136>>ASSIGN  12141>>ASSIGN  12211>>IF      12213>>ASSIGN
GETCMD.F1_
      3927**DCL     12110>>ASSIGN  12145>>ASSIGN
GETCMD.F2_
      3931**DCL     12111>>ASSIGN  12146>>ASSIGN
GETCMD.F3_
      3935**DCL     12112>>ASSIGN  12147>>ASSIGN
GETCMD.FLGLEV#
      3835**DCL     12130>>IF      12143>>ASSIGN  12191>>ASSIGN
GETCMD.INFOMSG#
      3826**DCL     12130>>IF      12156<<ASSIGN
GETCMD.OUT$
      3735**DCL      3741--REDEF
GETCMD.OUTDCB#
      3906**DCL     12163>>IF      12165>>ASSIGN
PL6.E3A0      #010=XUG$ERRMSG_COMMON File=XUG$COMMON.:E05TSI                     WED 07/30/97 09:25 Page:587
GETCMD.WORK$
      3763**DCL     12091>>IF      12096>>ASSIGN  12204>>IF      12209>>ASSIGN
GETCMD.XT_PARAM$
      3999**DCL     12148>>IF      12150>>ASSIGN  12216>>IF      12218>>ASSIGN
M$ERRMSG
      9627**DCL-ENT 12196--CALL
M$FID
      9627**DCL-ENT 12233--CALL
M$LO
      4073**DCL     12167<>CALL
M$LO#
      4066**DCL     12167<>CALL    12168>>ASSIGN
NO_LO
     12170**LABEL   12167--CALLALT
TEMP_ERRCODE
     10244**DCL     12136<<ASSIGN  12138--ASSIGN
TEMP_ERRCODE.SEV
     10274**DCL     12137<<ASSIGN
VLR_FID
     10493**DCL     12226--ASSIGN
XT$PARAM.ERR
     11814**DCL     12150<<ASSIGN  12218<<ASSIGN
XUG.BUF
     10946**DCL     10949--REDEF
XUG.ERRDCB
     10606**DCL     12154<<ASSIGN  12159<<ASSIGN  12160>>ASSIGN
XUG.ERRSAVE
     10599**DCL     12103--ASSIGN  12141<<ASSIGN  12150>>ASSIGN  12199<<ASSIGN  12213<<ASSIGN  12218>>ASSIGN
     12239<<ASSIGN
XUG.ERRSAVE.SEV
     10603**DCL     12119>>IF      12122<<ASSIGN  12122>>ASSIGN  12142<<ASSIGN
XUG.F1SAVE
     10937**DCL     12125>>ASSIGN  12145<<ASSIGN
XUG.F2SAVE
     10940**DCL     12126>>ASSIGN  12146<<ASSIGN
XUG.F3SAVE
PL6.E3A0      #010=XUG$ERRMSG_COMMON File=XUG$COMMON.:E05TSI                     WED 07/30/97 09:25 Page:588
     10943**DCL     12127>>ASSIGN  12147<<ASSIGN
XUG.FILEACCT
     10815**DCL     12106--ASSIGN  12230--ASSIGN
XUG.FILENAME
     10810**DCL     12107--ASSIGN  12231--ASSIGN
XUG.FILENAME.C
     10811**DCL     12104>>IF      12222<<ASSIGN
XUG.FILEPASS
     10818**DCL     12108--ASSIGN  12232--ASSIGN
XUG.FIRST_ERROR
     10732**DCL     12130>>IF      12144<<ASSIGN
XUG.HELP
     10609**DCL     12097<<ASSIGN  12215<<ASSIGN
XUG.LAST_FLAGLEV
     10897**DCL     12130>>IF      12143<<ASSIGN
XUG.NO_DOWNGRADE
     10727**DCL     12130>>IF
XUG.NO_INCREMENT
     10736**DCL     12115>>IF      12117<<ASSIGN  12152<<ASSIGN  12214<<ASSIGN
XUG.POINTED_TO_SYNERR
     10691**DCL     12192>>IF
XUG$
     10503**DCL     10510--IMP-PTR 12096<<ASSIGN  12097>>ASSIGN  12103>>ASSIGN  12104>>IF      12106>>ASSIGN
     12107>>ASSIGN  12108>>ASSIGN  12115>>IF      12117>>ASSIGN  12119>>IF      12122>>ASSIGN  12122>>ASSIGN
     12125>>ASSIGN  12126>>ASSIGN  12127>>ASSIGN  12130>>IF      12130>>IF      12130>>IF      12141>>ASSIGN
     12142>>ASSIGN  12143>>ASSIGN  12144>>ASSIGN  12145>>ASSIGN  12146>>ASSIGN  12147>>ASSIGN  12150>>ASSIGN
     12152>>ASSIGN  12154>>ASSIGN  12159>>ASSIGN  12160>>ASSIGN  12192>>IF      12199>>ASSIGN  12209<<ASSIGN
     12213>>ASSIGN  12214>>ASSIGN  12215>>ASSIGN  12218>>ASSIGN  12222>>ASSIGN  12230>>ASSIGN  12231>>ASSIGN
     12232>>ASSIGN  12239>>ASSIGN
XUG$FINDDCB_COMMON
      4061**DCL-ENT 12167--CALL
XUG$INIT_COMMON
      4062**DCL-ENT 12094--CALL    12207--CALL
XUG$OPENOUT_INTERNAL
      4063**DCL-ENT 12185--CALL    12187--CALL
XUG_ERRMSG
PL6.E3A0      #010=XUG$ERRMSG_COMMON File=XUG$COMMON.:E05TSI                     WED 07/30/97 09:25 Page:589
     10425**DCL     12101--ASSIGN
XUG_ERRMSG.CODEUSED
     10433**DCL     12199>>ASSIGN
XUG_INIT_A
     11386**DCL     12093<<ASSIGN  12094<>CALL    12206<<ASSIGN  12207<>CALL
XUG_INIT_C
     10973**DCL     12093>>ASSIGN  12206>>ASSIGN
XUG_SYNERR
     10335**DCL     12192>>IF
XUR_SYNERR
     10381**DCL     12192>>IF

PL6.E3A0      #011=XUG$HELP_COMMON File=XUG$COMMON.:E05TSI                       WED 07/30/97 09:26 Page:590
     3114        1        /*T***********************************************************/
     3115        2        /*T*                                                         */
     3116        3        /*T* Copyright (c) Bull HN Information Systems Inc., 1997    */
     3117        4        /*T*                                                         */
     3118        5        /*T***********************************************************/
     3119        6        XUG$HELP_COMMON: PROC(GETCMD) ALTRET;
     3120        7        /*X* DMC,PLM=4,IND=4,CTI=2,DTI=0,ENI=0,ECI=0,CSI=0,MCI,DCI=4 */
     3121        8        %INCLUDE B$JIT;
     3122      611        %INCLUDE CP_6;
     3123     6170        %INCLUDE CP_6_SUBS;
     3124     6710        %INCLUDE XU_MACRO_C;
     3125     9816        %INCLUDE XU_PERR_C;
     3126    10007        %INCLUDE XUH_MACRO_C;
     3127    10091
     3128    10092        %XUG_GETCMD (NAME=GETCMD, STCLASS="") ;
     3129    10430        %XUH_PARAM (NAME=XUH$PARAM,STCLASS=BASED);
     3130    10491        %XUG_PARAMS;
     3131    10935        %XUG_INIT (NAME=XUG_INIT_C, STCLASS=SYMREF);
     3132    11348        %XUG_INIT (NAME = XUG_INIT_A,STCLASS=AUTO);
     3133    11761
     3134    11762        %MACRO TEXTC (NAME=NAME,T#='',STCLASS=CONSTANT);
     3135    11763        DCL 1 NAME STCLASS,
     3136    11764              2 L UBIN BYTE UNAL INIT(SIZEC(T#)),
     3137    11765              2 C CHAR(0) INIT(T#);
     3138    11766        %MEND;
     3139    11767
     3140    11768        %TEXTC( NAME=M$LO , T#='M$LO' );
     3141    11773        %TEXTC( NAME=M$DO , T#='M$DO' );
     3142    11778    1   DCL DCB# UBIN ;
     3143    11779
     3144    11780    1   DCL XUG$ PTR;
     3145    11781
     3146    11782        %VLP_ERRCODE (  FPTN=XUG#GIVING_HELP, STCLASS=CONSTANT,
     3147    11783                        FCG=XU, MID=G, ERR#=%E$XUG#GIVING_HELP, SEV=0);
     3148    11828
     3149    11829        %TEXTC (NAME=DEFAULT, T#='default');
     3150    11834
PL6.E3A0      #011=XUG$HELP_COMMON File=XUG$COMMON.:E05TSI                       WED 07/30/97 09:26 Page:591
     3151    11835    1   DCL AUTO_HELP BIT (1);
     3152    11836    1   DCL B$JIT$ PTR SYMREF READONLY;
     3153    11837    1   DCL XUG$CLRENABLE_COMMON ENTRY(1) ;
     3154    11838    1   DCL XUG$DISABLE_COMMON ENTRY(1) ;
     3155    11839    1   DCL XUG$ERRMSG_COMMON ENTRY(1) ALTRET;
     3156    11840    1   DCL XUG$INIT_COMMON ENTRY (2) ALTRET;
     3157    11841    1   DCL XUG$FINDDCB_COMMON ENTRY (2) ALTRET;
     3158    11842    1   DCL XUG$OPENOUT_INTERNAL ENTRY(2);
     3159    11843    1   DCL X$HELP ENTRY(1) ALTRET;
     3160    11844        %EJECT;
PL6.E3A0      #011=XUG$HELP_COMMON File=XUG$COMMON.:E05TSI                       WED 07/30/97 09:26 Page:592
     3161    11845    1       CALL SETUP ALTRET(ALT);
     3162    11846    1       AUTO_HELP = %NO#;
     3163    11847    1   CALL_HELP_UTILITY:
     3164    11848    1       XUG.HELP='1'B;
     3165    11849    1       CALL XUG$DISABLE_COMMON (GETCMD) ;
     3166    11850    1       CALL X$HELP(GETCMD.XUH$->XUH$PARAM) ALTRET(HELPALT);
     3167    11851    1       CALL XUG$CLRENABLE_COMMON(GETCMD) ;
     3168    11852    1       RETURN;
     3169    11853        /**/
     3170    11854    1   HELPALT:
     3171    11855    1       CALL XUG$CLRENABLE_COMMON(GETCMD) ;
     3172    11856    1       GETCMD.ERR_CODE = GETCMD.XUH$ -> XUH$PARAM.ERR ;
     3173    11857    1       GETCMD.ERRDCB# = GETCMD.XUH$ -> XUH$PARAM.ERR_DCB# ;
     3174    11858    1       CALL XUG$ERRMSG_COMMON(GETCMD) ALTRET(ALT) ;
     3175    11859    1       IF NOT GETCMD.XUH$->XUH$PARAM.ERR.MON AND
     3176    11860    1         (GETCMD.XUH$->XUH$PARAM.ERR.ERR#=%E$BDTOPIC OR
     3177    11861    1         GETCMD.XUH$->XUH$PARAM.ERR.ERR#=%E$NNATIVE)
     3178    11862    2       THEN DO;
     3179    11863    2           XUG.HELP='11'B;
     3180    11864    2       END;
     3181    11865    1       IF AUTO_HELP
     3182    11866    1       THEN
     3183    11867    1           RETURN;
     3184    11868    1   ALT: ALTRETURN;
     3185    11869        %EJECT;
PL6.E3A0      #011=XUG$HELP_COMMON File=XUG$COMMON.:E05TSI                       WED 07/30/97 09:26 Page:593
     3186    11870    1   XUG$MOREMSG_COMMON: ENTRY(GETCMD) ALTRET;
     3187    11871    1       CALL SETUP ALTRET(ALT);
     3188    11872    2       IF XUG.HELP THEN DO;
     3189    11873    2           IF XUG.HELP.TOPICS THEN
     3190    11874    2               GETCMD.XUH$->XUH$PARAM.TOPICS#='1'B;
     3191    11875    2           ELSE
     3192    11876    2               GETCMD.XUH$->XUH$PARAM.MORE#='1'B;
     3193    11877    2           CALL XUG$DISABLE_COMMON (GETCMD) ;
     3194    11878    2           CALL X$HELP (GETCMD.XUH$->XUH$PARAM) ALTRET (ALT_WITH_CLEAR);
     3195    11879    2           CALL XUG$CLRENABLE_COMMON(GETCMD) ;
     3196    11880    2       END;
     3197    11881    2       ELSE DO;
     3198    11882    2           GETCMD.ERR_CODE = '0'B ;
     3199    11883    2           CALL XUG$ERRMSG_COMMON(GETCMD) ALTRET(DIVERT_TO_HELP);
     3200    11884    2       END;
     3201    11885    1       RETURN;
     3202    11886        /**/
     3203    11887    1   XUG$ALLMSG_COMMON: ENTRY(GETCMD) ALTRET;
     3204    11888    1       CALL SETUP ALTRET(ALT);
     3205    11889    2       IF XUG.HELP THEN DO;
     3206    11890    2           IF XUG.HELP.TOPICS THEN
     3207    11891    2               GETCMD.XUH$->XUH$PARAM.TOPICS#='1'B;
     3208    11892    2           ELSE
     3209    11893    2               GETCMD.XUH$->XUH$PARAM.ALL#='1'B;
     3210    11894    2           CALL XUG$DISABLE_COMMON (GETCMD) ;
     3211    11895    2           CALL X$HELP (GETCMD.XUH$->XUH$PARAM) ALTRET (ALT_WITH_CLEAR);
     3212    11896    2           CALL XUG$CLRENABLE_COMMON(GETCMD) ;
     3213    11897    2       END;
     3214    11898    2       ELSE DO;
     3215    11899    2           GETCMD.ERR_CODE = '0'B ;
     3216    11900    2           CALL XUG$ERRMSG_COMMON(GETCMD) ALTRET(DIVERT_TO_HELP);
     3217    11901    3           DO WHILE('1'B);
     3218    11902    3               CALL XUG$ERRMSG_COMMON(GETCMD) ALTRET(DONE);
     3219    11903    3           END;
     3220    11904    2   DONE: END;
     3221    11905    1       RETURN;
     3222    11906        /**/
PL6.E3A0      #011=XUG$HELP_COMMON File=XUG$COMMON.:E05TSI                       WED 07/30/97 09:26 Page:594
     3223    11907    1   DIVERT_TO_HELP:
     3224    11908    1       IF XUG.DIVERT_TO_HELP AND NOT XUG.HELP
     3225    11909    2       THEN DO;
     3226    11910    2           XUG.DIVERT_TO_HELP = %NO#;
     3227    11911    2           AUTO_HELP = %YES#;
     3228    11912    2           GETCMD.ERR_CODE = XUG#GIVING_HELP;
     3229    11913        /*E*  ERROR:   XUG-E$XUG#GIVING_HELP
     3230    11914              MESSAGE:Searching for HELP information: the %U1 topic.
     3231    11915
     3232    11916        */
     3233    11917    2           IF XUG.HELP_TOPIC.COUNT = 0
     3234    11918    2           THEN
     3235    11919    2               GETCMD.F1_ = VECTOR (DEFAULT);
     3236    11920    2           ELSE
     3237    11921    2               GETCMD.F1_ = VECTOR (XUG.HELP_TOPIC);
     3238    11922    2           CALL XUG$ERRMSG_COMMON (GETCMD);
     3239    11923    2           GETCMD.XUH$ -> XUH$PARAM.HELP$ = ADDR (XUG.HELP_TOPIC);
     3240    11924    2           GOTO CALL_HELP_UTILITY;
     3241    11925    2       END;
     3242    11926
     3243    11927    1   ALT_WITH_CLEAR: CALL XUG$CLRENABLE_COMMON(GETCMD) ;
     3244    11928    1       ALTRETURN;
     3245    11929        %EJECT;
PL6.E3A0      #011=XUG$HELP_COMMON File=XUG$COMMON.:E05TSI                       WED 07/30/97 09:26 Page:595
     3246    11930    1   SETUP: PROC ALTRET ;
     3247    11931    2       IF GETCMD.WORK$ = ADDR(NIL)
     3248    11932    3       THEN DO;
     3249    11933    3           XUG_INIT_A = XUG_INIT_C ;
     3250    11934    3           CALL XUG$INIT_COMMON (GETCMD,XUG_INIT_A) ALTRET(ALT) ;
     3251    11935    3       END;
     3252    11936    2       XUG$ = GETCMD.WORK$ ;
     3253    11937    2       IF GETCMD.XUH$ = ADDR(NIL)
     3254    11938    2       THEN
     3255    11939    2           GETCMD.XUH$ = ADDR(XUG.XUH_PARAM);
     3256    11940    2       IF XUG.XUH_PARAM.OUTDCB1# = DCBNUM(NIL)
     3257    11941    2         AND XUG.XUH_PARAM.OUTDCB2# = DCBNUM(NIL)
     3258    11942    3       THEN DO;
     3259    11943    3           IF GETCMD.DCB_PARAM# ~= DCBNUM(NIL)
     3260    11944    3           THEN
     3261    11945    3               XUG.XUH_PARAM.OUTDCB1# = GETCMD.DCB_PARAM# ;
     3262    11946    4           ELSE DO;
     3263    11947    4               IF GETCMD.OUTDCB# ~= DCBNUM(NIL)
     3264    11948    4               THEN
     3265    11949    4                   XUG.XUH_PARAM.OUTDCB1# = GETCMD.OUTDCB# ;
     3266    11950    5               ELSE DO;
     3267    11951    5                   CALL XUG$FINDDCB_COMMON (M$LO, DCB#)
     3268    11952    6                   WHENRETURN DO;
     3269    11953    6                       XUG.XUH_PARAM.OUTDCB1# = DCB# ;
     3270    11954    6                   END;
     3271    11955    6                   WHENALTRETURN DO;
     3272    11956    6                       CALL XUG$FINDDCB_COMMON (M$DO, DCB#)
     3273    11957    7                       WHENRETURN DO;
     3274    11958    7                           XUG.XUH_PARAM.OUTDCB1# = DCB# ;
     3275    11959    7                       END;
     3276    11960    6                   END;
     3277    11961    5               END;
     3278    11962    4           END;
     3279    11963    3       END;
     3280    11964    2       DCB# = XUG.XUH_PARAM.OUTDCB1#;
     3281    11965    2       CALL XUG$OPENOUT_INTERNAL (GETCMD, DCB#);
     3282    11966    2       DCB# = XUG.XUH_PARAM.OUTDCB2#;
PL6.E3A0      #011=XUG$HELP_COMMON File=XUG$COMMON.:E05TSI                       WED 07/30/97 09:26 Page:596
     3283    11967    2       CALL XUG$OPENOUT_INTERNAL (GETCMD, DCB#);
     3284    11968    2       RETURN ;
     3285    11969    2   ALT:ALTRETURN ;
     3286    11970    2   END SETUP ;
     3287    11971    1   END XUG$HELP_COMMON ;
     3288    11972        %EOD;

PL6.E3A0      #011=XUG$HELP_COMMON File=XUG$COMMON.:E05TSI                       WED 07/30/97 09:26 Page:597
--  Include file information  --

   XUH_MACRO_C.:E05TOU  is referenced.
   XU_PERR_C.:E05TOU  is referenced.
   XU_MACRO_C.:E05TOU  is referenced.
   CP_6_SUBS.:E05TOU  is referenced.
   CP_6_C.:E05TOU  is referenced.
   CP_6.:E05TOU  cannot be made into a system file and is referenced.
   B$JIT_C.:E05TOU  is referenced.
   B$JIT.:E05TOU  cannot be made into a system file and is referenced.
      No diagnostics issued in procedure XUG$HELP_COMMON.

   Procedure XUG$HELP_COMMON requires 278 words for executable code.
   Procedure XUG$HELP_COMMON requires 48 words of local(AUTO) storage.

PL6.E3A0      #011=XUG$HELP_COMMON File=XUG$COMMON.:E05TSI                       WED 07/30/97 09:26 Page:598

 Object Unit name= XUG$HELP_COMMON                            File name= XUG$COMMON.:E05TOU
 UTS= JUL 30 '97 09:26:24.20 WED                              Compiler= PL-6/E31         Sev=      00
 SharedLib= :SHARED_SYSTEM                                    Alt SharedLib=


    ****  Control sections  ****

 Sect   Type Bound  Init  Size OctSiz  Section name(segment info)
    0   DCB   even  none     0      0  M$UC
    1  RoData even  UTS      7      7  XUG$HELP_COMMON
    2   Proc  even  none   278    426  XUG$HELP_COMMON
    3  RoData even  none     7      7  XUG$HELP_COMMON

    ****  Entry defs  ****

                              Check   Calling
                             calling  sequence
  Sect OctLoc Primary Altret sequence   type   Parms  Name
     2      0   yes    yes     yes      Std        1  XUG$HELP_COMMON
     2     72          yes     yes      Std        1  XUG$MOREMSG_COMMON
     2    144          yes     yes      Std        1  XUG$ALLMSG_COMMON
PL6.E3A0      #011=XUG$HELP_COMMON File=XUG$COMMON.:E05TSI                       WED 07/30/97 09:26 Page:599

  ****  Entry refs  ****

         Check        Calling
        calling       sequence
Altret sequence SRef   type   Args  Name
         yes           Std       1 XUG$DISABLE_COMMON
 yes     yes           Std       1 X$HELP
         yes           Std       1 XUG$CLRENABLE_COMMON
 yes     yes           Std       1 XUG$ERRMSG_COMMON
 yes     yes           Std       2 XUG$INIT_COMMON
 yes     yes           Std       2 XUG$FINDDCB_COMMON
         yes           Std       2 XUG$OPENOUT_INTERNAL
                       nStd      0 X66_AUTO_1
                       Std       0 B_CONSPOOL_D
                       nStd      0 X66_ARET
                       nStd      0 X66_AALT

  ****  Data refs  ****

  Flags:  r = read only, s = secondary
Flgs Name                             Flgs Name                             Flgs Name
     M$UC                                  XUG_INIT_C                       r    B$JIT$
     B_VECTNIL

  ****  Segment refs  ****

  Flags:  r = read only, s = secondary
Flgs Name                             Flgs Name                             Flgs Name
     ISSID
PL6.E3A0      #011=XUG$HELP_COMMON File=XUG$COMMON.:E05TSI                       WED 07/30/97 09:26 Page:600


     3114        1        /*T***********************************************************/
     3115        2        /*T*                                                         */
     3116        3        /*T* Copyright (c) Bull HN Information Systems Inc., 1997    */
     3117        4        /*T*                                                         */
     3118        5        /*T***********************************************************/
     3119        6        XUG$HELP_COMMON: PROC(GETCMD) ALTRET;

      6  2 000000   000000 700200 xent  XUG$HELP_CO* TSX0  ! X66_AUTO_1
         2 000001   000060 000001                    ZERO    48,1

     3120        7        /*X* DMC,PLM=4,IND=4,CTI=2,DTI=0,ENI=0,ECI=0,CSI=0,MCI,DCI=4 */
     3121        8        %INCLUDE B$JIT;
     3122      611        %INCLUDE CP_6;
     3123     6170        %INCLUDE CP_6_SUBS;
     3124     6710        %INCLUDE XU_MACRO_C;
     3125     9816        %INCLUDE XU_PERR_C;
     3126    10007        %INCLUDE XUH_MACRO_C;
     3127    10091
     3128    10092        %XUG_GETCMD (NAME=GETCMD, STCLASS="") ;
     3129    10430        %XUH_PARAM (NAME=XUH$PARAM,STCLASS=BASED);
     3130    10491        %XUG_PARAMS;
     3131    10935        %XUG_INIT (NAME=XUG_INIT_C, STCLASS=SYMREF);
     3132    11348        %XUG_INIT (NAME = XUG_INIT_A,STCLASS=AUTO);
     3133    11761
     3134    11762        %MACRO TEXTC (NAME=NAME,T#='',STCLASS=CONSTANT);
     3135    11763        DCL 1 NAME STCLASS,
     3136    11764              2 L UBIN BYTE UNAL INIT(SIZEC(T#)),
     3137    11765              2 C CHAR(0) INIT(T#);
     3138    11766        %MEND;
     3139    11767
     3140    11768        %TEXTC( NAME=M$LO , T#='M$LO' );
     3141    11773        %TEXTC( NAME=M$DO , T#='M$DO' );
     3142    11778    1   DCL DCB# UBIN ;
     3143    11779
     3144    11780    1   DCL XUG$ PTR;
     3145    11781
PL6.E3A0      #011=XUG$HELP_COMMON File=XUG$COMMON.:E05TSI                       WED 07/30/97 09:26 Page:601
     3146    11782        %VLP_ERRCODE (  FPTN=XUG#GIVING_HELP, STCLASS=CONSTANT,
     3147    11783                        FCG=XU, MID=G, ERR#=%E$XUG#GIVING_HELP, SEV=0);
     3148    11828
     3149    11829        %TEXTC (NAME=DEFAULT, T#='default');
     3150    11834
     3151    11835    1   DCL AUTO_HELP BIT (1);
     3152    11836    1   DCL B$JIT$ PTR SYMREF READONLY;
     3153    11837    1   DCL XUG$CLRENABLE_COMMON ENTRY(1) ;
     3154    11838    1   DCL XUG$DISABLE_COMMON ENTRY(1) ;
     3155    11839    1   DCL XUG$ERRMSG_COMMON ENTRY(1) ALTRET;
     3156    11840    1   DCL XUG$INIT_COMMON ENTRY (2) ALTRET;
     3157    11841    1   DCL XUG$FINDDCB_COMMON ENTRY (2) ALTRET;
     3158    11842    1   DCL XUG$OPENOUT_INTERNAL ENTRY(2);
     3159    11843    1   DCL X$HELP ENTRY(1) ALTRET;
     3160    11844        %EJECT;
PL6.E3A0      #011=XUG$HELP_COMMON File=XUG$COMMON.:E05TSI                       WED 07/30/97 09:26 Page:602
     3161    11845    1       CALL SETUP ALTRET(ALT);

  11845  2 000002   000273 701000 2                  TSX1    SETUP
         2 000003   000071 702000 2                  TSX2    ALT

     3162    11846    1       AUTO_HELP = %NO#;

  11846  2 000004   200052 450100                    STZ     AUTO_HELP,,AUTO

     3163    11847    1   CALL_HELP_UTILITY:
     3164    11848    1       XUG.HELP='1'B;

  11848  2 000005   200051 470500       CALL_HELP_U* LDP0    XUG$,,AUTO
         2 000006   000071 236100                    LDQ     57,,PR0
         2 000007   000000 376000 3                  ANQ     0
         2 000010   400000 276003                    ORQ     -131072,DU
         2 000011   000071 756100                    STQ     57,,PR0

     3165    11849    1       CALL XUG$DISABLE_COMMON (GETCMD) ;

  11849  2 000012   200003 630500                    EPPR0   @GETCMD,,AUTO
         2 000013   000017 631400 xsym               EPPR1   B_VECTNIL+15
         2 000014   000000 701000 xent               TSX1    XUG$DISABLE_COMMON
         2 000015   000000 011000                    NOP     0

     3166    11850    1       CALL X$HELP(GETCMD.XUH$->XUH$PARAM) ALTRET(HELPALT);

  11850  2 000016   200003 470500                    LDP0    @GETCMD,,AUTO
         2 000017   000005 471500                    LDP1    5,,PR0
         2 000020   200056 451500                    STP1    AUTO_HELP+4,,AUTO
         2 000021   200056 630500                    EPPR0   AUTO_HELP+4,,AUTO
         2 000022   000017 631400 xsym               EPPR1   B_VECTNIL+15
         2 000023   000000 701000 xent               TSX1    X$HELP
         2 000024   000032 702000 2                  TSX2    HELPALT

     3167    11851    1       CALL XUG$CLRENABLE_COMMON(GETCMD) ;

PL6.E3A0      #011=XUG$HELP_COMMON File=XUG$COMMON.:E05TSI                       WED 07/30/97 09:26 Page:603
  11851  2 000025   200003 630500                    EPPR0   @GETCMD,,AUTO
         2 000026   000017 631400 xsym               EPPR1   B_VECTNIL+15
         2 000027   000000 701000 xent               TSX1    XUG$CLRENABLE_COMMON
         2 000030   000000 011000                    NOP     0

     3168    11852    1       RETURN;

  11852  2 000031   000000 702200 xent               TSX2  ! X66_ARET

     3169    11853        /**/
     3170    11854    1   HELPALT:
     3171    11855    1       CALL XUG$CLRENABLE_COMMON(GETCMD) ;

  11855  2 000032   200003 630500       HELPALT      EPPR0   @GETCMD,,AUTO
         2 000033   000017 631400 xsym               EPPR1   B_VECTNIL+15
         2 000034   000000 701000 xent               TSX1    XUG$CLRENABLE_COMMON
         2 000035   000000 011000                    NOP     0

     3172    11856    1       GETCMD.ERR_CODE = GETCMD.XUH$ -> XUH$PARAM.ERR ;

  11856  2 000036   200003 470500                    LDP0    @GETCMD,,AUTO
         2 000037   000005 471500                    LDP1    5,,PR0
         2 000040   100013 236100                    LDQ     11,,PR1
         2 000041   000010 756100                    STQ     8,,PR0

     3173    11857    1       GETCMD.ERRDCB# = GETCMD.XUH$ -> XUH$PARAM.ERR_DCB# ;

  11857  2 000042   100014 235100                    LDA     12,,PR1
         2 000043   000011 755100                    STA     9,,PR0

     3174    11858    1       CALL XUG$ERRMSG_COMMON(GETCMD) ALTRET(ALT) ;

  11858  2 000044   200003 630500                    EPPR0   @GETCMD,,AUTO
         2 000045   000017 631400 xsym               EPPR1   B_VECTNIL+15
         2 000046   000000 701000 xent               TSX1    XUG$ERRMSG_COMMON
         2 000047   000071 702000 2                  TSX2    ALT

PL6.E3A0      #011=XUG$HELP_COMMON File=XUG$COMMON.:E05TSI                       WED 07/30/97 09:26 Page:604
     3175    11859    1       IF NOT GETCMD.XUH$->XUH$PARAM.ERR.MON AND

  11859  2 000050   200003 470500                    LDP0    @GETCMD,,AUTO
         2 000051   000005 471500                    LDP1    5,,PR0
         2 000052   100013 236100                    LDQ     11,,PR1
         2 000053   400000 316007                    CANQ    -131072,DL
         2 000054   000066 601000 2                  TNZ     s:11865
         2 000055   100013 236100                    LDQ     11,,PR1
         2 000056   377770 376007                    ANQ     131064,DL
         2 000057   004550 116007                    CMPQ    2408,DL
         2 000060   000063 600000 2                  TZE     s:11863
         2 000061   004560 116007                    CMPQ    2416,DL
         2 000062   000066 601000 2                  TNZ     s:11865

     3176    11860    1         (GETCMD.XUH$->XUH$PARAM.ERR.ERR#=%E$BDTOPIC OR
     3177    11861    1         GETCMD.XUH$->XUH$PARAM.ERR.ERR#=%E$NNATIVE)
     3178    11862    2       THEN DO;

     3179    11863    2           XUG.HELP='11'B;

  11863  2 000063   200051 473500                    LDP3    XUG$,,AUTO
         2 000064   600000 236003                    LDQ     -65536,DU
         2 000065   300071 256100                    ORSQ    57,,PR3

     3180    11864    2       END;

     3181    11865    1       IF AUTO_HELP

  11865  2 000066   200052 234100                    SZN     AUTO_HELP,,AUTO
         2 000067   000071 605000 2                  TPL     ALT

     3182    11866    1       THEN
     3183    11867    1           RETURN;

  11867  2 000070   000000 702200 xent               TSX2  ! X66_ARET

     3184    11868    1   ALT: ALTRETURN;
PL6.E3A0      #011=XUG$HELP_COMMON File=XUG$COMMON.:E05TSI                       WED 07/30/97 09:26 Page:605

  11868  2 000071   000000 702200 xent  ALT          TSX2  ! X66_AALT

     3185    11869        %EJECT;
PL6.E3A0      #011=XUG$HELP_COMMON File=XUG$COMMON.:E05TSI                       WED 07/30/97 09:26 Page:606
     3186    11870    1   XUG$MOREMSG_COMMON: ENTRY(GETCMD) ALTRET;

  11870  2 000072   000000 700200 xent  XUG$MOREMSG* TSX0  ! X66_AUTO_1
         2 000073   000060 000001                    ZERO    48,1

     3187    11871    1       CALL SETUP ALTRET(ALT);

  11871  2 000074   000273 701000 2                  TSX1    SETUP
         2 000075   000071 702000 2                  TSX2    ALT

     3188    11872    2       IF XUG.HELP THEN DO;

  11872  2 000076   200051 470500                    LDP0    XUG$,,AUTO
         2 000077   000071 236100                    LDQ     57,,PR0
         2 000100   600000 316003                    CANQ    -65536,DU
         2 000101   000135 600000 2                  TZE     s:11882

     3189    11873    2           IF XUG.HELP.TOPICS THEN

  11873  2 000102   200000 316003                    CANQ    65536,DU
         2 000103   000111 600000 2                  TZE     s:11876

     3190    11874    2               GETCMD.XUH$->XUH$PARAM.TOPICS#='1'B;

  11874  2 000104   200003 471500                    LDP1    @GETCMD,,AUTO
         2 000105   100005 473500                    LDP3    5,,PR1
         2 000106   000100 236003                    LDQ     64,DU
         2 000107   300012 256100                    ORSQ    10,,PR3
         2 000110   000115 710000 2                  TRA     s:11877

     3191    11875    2           ELSE
     3192    11876    2               GETCMD.XUH$->XUH$PARAM.MORE#='1'B;

  11876  2 000111   200003 471500                    LDP1    @GETCMD,,AUTO
         2 000112   100005 473500                    LDP3    5,,PR1
         2 000113   000200 236003                    LDQ     128,DU
         2 000114   300012 256100                    ORSQ    10,,PR3
PL6.E3A0      #011=XUG$HELP_COMMON File=XUG$COMMON.:E05TSI                       WED 07/30/97 09:26 Page:607

     3193    11877    2           CALL XUG$DISABLE_COMMON (GETCMD) ;

  11877  2 000115   200003 630500                    EPPR0   @GETCMD,,AUTO
         2 000116   000017 631400 xsym               EPPR1   B_VECTNIL+15
         2 000117   000000 701000 xent               TSX1    XUG$DISABLE_COMMON
         2 000120   000000 011000                    NOP     0

     3194    11878    2           CALL X$HELP (GETCMD.XUH$->XUH$PARAM) ALTRET (ALT_WITH_CLEAR);

  11878  2 000121   200003 470500                    LDP0    @GETCMD,,AUTO
         2 000122   000005 471500                    LDP1    5,,PR0
         2 000123   200056 451500                    STP1    AUTO_HELP+4,,AUTO
         2 000124   200056 630500                    EPPR0   AUTO_HELP+4,,AUTO
         2 000125   000017 631400 xsym               EPPR1   B_VECTNIL+15
         2 000126   000000 701000 xent               TSX1    X$HELP
         2 000127   000266 702000 2                  TSX2    ALT_WITH_CLEAR

     3195    11879    2           CALL XUG$CLRENABLE_COMMON(GETCMD) ;

  11879  2 000130   200003 630500                    EPPR0   @GETCMD,,AUTO
         2 000131   000017 631400 xsym               EPPR1   B_VECTNIL+15
         2 000132   000000 701000 xent               TSX1    XUG$CLRENABLE_COMMON
         2 000133   000000 011000                    NOP     0

     3196    11880    2       END;

  11880  2 000134   000143 710000 2                  TRA     s:11885

     3197    11881    2       ELSE DO;

     3198    11882    2           GETCMD.ERR_CODE = '0'B ;

  11882  2 000135   200003 471500                    LDP1    @GETCMD,,AUTO
         2 000136   100010 450100                    STZ     8,,PR1

     3199    11883    2           CALL XUG$ERRMSG_COMMON(GETCMD) ALTRET(DIVERT_TO_HELP);
PL6.E3A0      #011=XUG$HELP_COMMON File=XUG$COMMON.:E05TSI                       WED 07/30/97 09:26 Page:608

  11883  2 000137   200003 630500                    EPPR0   @GETCMD,,AUTO
         2 000140   000017 631400 xsym               EPPR1   B_VECTNIL+15
         2 000141   000000 701000 xent               TSX1    XUG$ERRMSG_COMMON
         2 000142   000223 702000 2                  TSX2    DIVERT_TO_HELP

     3200    11884    2       END;

     3201    11885    1       RETURN;

  11885  2 000143   000000 702200 xent               TSX2  ! X66_ARET

     3202    11886        /**/
     3203    11887    1   XUG$ALLMSG_COMMON: ENTRY(GETCMD) ALTRET;

  11887  2 000144   000000 700200 xent  XUG$ALLMSG_* TSX0  ! X66_AUTO_1
         2 000145   000060 000001                    ZERO    48,1

     3204    11888    1       CALL SETUP ALTRET(ALT);

  11888  2 000146   000273 701000 2                  TSX1    SETUP
         2 000147   000071 702000 2                  TSX2    ALT

     3205    11889    2       IF XUG.HELP THEN DO;

  11889  2 000150   200051 470500                    LDP0    XUG$,,AUTO
         2 000151   000071 236100                    LDQ     57,,PR0
         2 000152   600000 316003                    CANQ    -65536,DU
         2 000153   000207 600000 2                  TZE     s:11899

     3206    11890    2           IF XUG.HELP.TOPICS THEN

  11890  2 000154   200000 316003                    CANQ    65536,DU
         2 000155   000163 600000 2                  TZE     s:11893

     3207    11891    2               GETCMD.XUH$->XUH$PARAM.TOPICS#='1'B;

PL6.E3A0      #011=XUG$HELP_COMMON File=XUG$COMMON.:E05TSI                       WED 07/30/97 09:26 Page:609
  11891  2 000156   200003 471500                    LDP1    @GETCMD,,AUTO
         2 000157   100005 473500                    LDP3    5,,PR1
         2 000160   000100 236003                    LDQ     64,DU
         2 000161   300012 256100                    ORSQ    10,,PR3
         2 000162   000167 710000 2                  TRA     s:11894

     3208    11892    2           ELSE
     3209    11893    2               GETCMD.XUH$->XUH$PARAM.ALL#='1'B;

  11893  2 000163   200003 471500                    LDP1    @GETCMD,,AUTO
         2 000164   100005 473500                    LDP3    5,,PR1
         2 000165   000400 236003                    LDQ     256,DU
         2 000166   300012 256100                    ORSQ    10,,PR3

     3210    11894    2           CALL XUG$DISABLE_COMMON (GETCMD) ;

  11894  2 000167   200003 630500                    EPPR0   @GETCMD,,AUTO
         2 000170   000017 631400 xsym               EPPR1   B_VECTNIL+15
         2 000171   000000 701000 xent               TSX1    XUG$DISABLE_COMMON
         2 000172   000000 011000                    NOP     0

     3211    11895    2           CALL X$HELP (GETCMD.XUH$->XUH$PARAM) ALTRET (ALT_WITH_CLEAR);

  11895  2 000173   200003 470500                    LDP0    @GETCMD,,AUTO
         2 000174   000005 471500                    LDP1    5,,PR0
         2 000175   200056 451500                    STP1    AUTO_HELP+4,,AUTO
         2 000176   200056 630500                    EPPR0   AUTO_HELP+4,,AUTO
         2 000177   000017 631400 xsym               EPPR1   B_VECTNIL+15
         2 000200   000000 701000 xent               TSX1    X$HELP
         2 000201   000266 702000 2                  TSX2    ALT_WITH_CLEAR

     3212    11896    2           CALL XUG$CLRENABLE_COMMON(GETCMD) ;

  11896  2 000202   200003 630500                    EPPR0   @GETCMD,,AUTO
         2 000203   000017 631400 xsym               EPPR1   B_VECTNIL+15
         2 000204   000000 701000 xent               TSX1    XUG$CLRENABLE_COMMON
         2 000205   000000 011000                    NOP     0
PL6.E3A0      #011=XUG$HELP_COMMON File=XUG$COMMON.:E05TSI                       WED 07/30/97 09:26 Page:610

     3213    11897    2       END;

  11897  2 000206   000222 710000 2                  TRA     s:11905

     3214    11898    2       ELSE DO;

     3215    11899    2           GETCMD.ERR_CODE = '0'B ;

  11899  2 000207   200003 471500                    LDP1    @GETCMD,,AUTO
         2 000210   100010 450100                    STZ     8,,PR1

     3216    11900    2           CALL XUG$ERRMSG_COMMON(GETCMD) ALTRET(DIVERT_TO_HELP);

  11900  2 000211   200003 630500                    EPPR0   @GETCMD,,AUTO
         2 000212   000017 631400 xsym               EPPR1   B_VECTNIL+15
         2 000213   000000 701000 xent               TSX1    XUG$ERRMSG_COMMON
         2 000214   000223 702000 2                  TSX2    DIVERT_TO_HELP

     3217    11901    3           DO WHILE('1'B);

     3218    11902    3               CALL XUG$ERRMSG_COMMON(GETCMD) ALTRET(DONE);

  11902  2 000215   200003 630500                    EPPR0   @GETCMD,,AUTO
         2 000216   000017 631400 xsym               EPPR1   B_VECTNIL+15
         2 000217   000000 701000 xent               TSX1    XUG$ERRMSG_COMMON
         2 000220   000222 702000 2                  TSX2    s:11905

     3219    11903    3           END;

  11903  2 000221   000215 710000 2                  TRA     s:11902

     3220    11904    2   DONE: END;
     3221    11905    1       RETURN;

  11905  2 000222   000000 702200 xent               TSX2  ! X66_ARET

PL6.E3A0      #011=XUG$HELP_COMMON File=XUG$COMMON.:E05TSI                       WED 07/30/97 09:26 Page:611
     3222    11906        /**/
     3223    11907    1   DIVERT_TO_HELP:
     3224    11908    1       IF XUG.DIVERT_TO_HELP AND NOT XUG.HELP

  11908  2 000223   200051 470500       DIVERT_TO_H* LDP0    XUG$,,AUTO
         2 000224   000071 236100                    LDQ     57,,PR0
         2 000225   400000 316007                    CANQ    -131072,DL
         2 000226   000266 600000 2                  TZE     ALT_WITH_CLEAR
         2 000227   600000 316003                    CANQ    -65536,DU
         2 000230   000266 601000 2                  TNZ     ALT_WITH_CLEAR

     3225    11909    2       THEN DO;

     3226    11910    2           XUG.DIVERT_TO_HELP = %NO#;

  11910  2 000231   000001 236000 3                  LDQ     1
         2 000232   000071 356100                    ANSQ    57,,PR0

     3227    11911    2           AUTO_HELP = %YES#;

  11911  2 000233   400000 236003                    LDQ     -131072,DU
         2 000234   200052 756100                    STQ     AUTO_HELP,,AUTO

     3228    11912    2           GETCMD.ERR_CODE = XUG#GIVING_HELP;

  11912  2 000235   000004 236000 1                  LDQ     XUG#GIVING_HELP
         2 000236   200003 471500                    LDP1    @GETCMD,,AUTO
         2 000237   100010 756100                    STQ     8,,PR1

     3229    11913        /*E*  ERROR:   XUG-E$XUG#GIVING_HELP
     3230    11914              MESSAGE:Searching for HELP information: the %U1 topic.
     3231    11915
     3232    11916        */
     3233    11917    2           IF XUG.HELP_TOPIC.COUNT = 0

  11917  2 000240   000246 236100                    LDQ     166,,PR0
         2 000241   777000 316003                    CANQ    -512,DU
PL6.E3A0      #011=XUG$HELP_COMMON File=XUG$COMMON.:E05TSI                       WED 07/30/97 09:26 Page:612
         2 000242   000247 601000 2                  TNZ     s:11921

     3234    11918    2           THEN
     3235    11919    2               GETCMD.F1_ = VECTOR (DEFAULT);

  11919  2 000243   000002 237000 3                  LDAQ    2
         2 000244   100017 755100                    STA     15,,PR1
         2 000245   100020 756100                    STQ     16,,PR1
         2 000246   000254 710000 2                  TRA     s:11922

     3236    11920    2           ELSE
     3237    11921    2               GETCMD.F1_ = VECTOR (XUG.HELP_TOPIC);

  11921  2 000247   000004 235000 3                  LDA     4
         2 000250   200051 236100                    LDQ     XUG$,,AUTO
         2 000251   000246 036003                    ADLQ    166,DU
         2 000252   100017 755100                    STA     15,,PR1
         2 000253   100020 756100                    STQ     16,,PR1

     3238    11922    2           CALL XUG$ERRMSG_COMMON (GETCMD);

  11922  2 000254   200003 630500                    EPPR0   @GETCMD,,AUTO
         2 000255   000017 631400 xsym               EPPR1   B_VECTNIL+15
         2 000256   000000 701000 xent               TSX1    XUG$ERRMSG_COMMON
         2 000257   000000 011000                    NOP     0

     3239    11923    2           GETCMD.XUH$ -> XUH$PARAM.HELP$ = ADDR (XUG.HELP_TOPIC);

  11923  2 000260   200003 470500                    LDP0    @GETCMD,,AUTO
         2 000261   000005 471500                    LDP1    5,,PR0
         2 000262   200051 236100                    LDQ     XUG$,,AUTO
         2 000263   000246 036003                    ADLQ    166,DU
         2 000264   100011 756100                    STQ     9,,PR1

     3240    11924    2           GOTO CALL_HELP_UTILITY;

  11924  2 000265   000005 710000 2                  TRA     CALL_HELP_UTILITY
PL6.E3A0      #011=XUG$HELP_COMMON File=XUG$COMMON.:E05TSI                       WED 07/30/97 09:26 Page:613

     3241    11925    2       END;
     3242    11926
     3243    11927    1   ALT_WITH_CLEAR: CALL XUG$CLRENABLE_COMMON(GETCMD) ;

  11927  2 000266   200003 630500       ALT_WITH_CL* EPPR0   @GETCMD,,AUTO
         2 000267   000017 631400 xsym               EPPR1   B_VECTNIL+15
         2 000270   000000 701000 xent               TSX1    XUG$CLRENABLE_COMMON
         2 000271   000000 011000                    NOP     0

     3244    11928    1       ALTRETURN;

  11928  2 000272   000000 702200 xent               TSX2  ! X66_AALT

     3245    11929        %EJECT;
PL6.E3A0      #011=XUG$HELP_COMMON File=XUG$COMMON.:E05TSI                       WED 07/30/97 09:26 Page:614
     3246    11930    1   SETUP: PROC ALTRET ;

  11930  2 000273   200054 741300       SETUP        STX1  ! AUTO_HELP+2,,AUTO

     3247    11931    2       IF GETCMD.WORK$ = ADDR(NIL)

  11931  2 000274   200003 470500                    LDP0    @GETCMD,,AUTO
         2 000275   000004 236100                    LDQ     4,,PR0
         2 000276   000001 116000 xsym               CMPQ    B_VECTNIL+1
         2 000277   000313 601000 2                  TNZ     s:11936

     3248    11932    3       THEN DO;

     3249    11933    3           XUG_INIT_A = XUG_INIT_C ;

  11933  2 000300   000100 100400                    MLR     fill='000'O
         2 000301   000000 000220 xsym               ADSC9   XUG_INIT_C               cn=0,n=144
         2 000302   200004 000220                    ADSC9   XUG_INIT_A,,AUTO         cn=0,n=144

     3250    11934    3           CALL XUG$INIT_COMMON (GETCMD,XUG_INIT_A) ALTRET(ALT) ;

  11934  2 000303   200004 631500                    EPPR1   XUG_INIT_A,,AUTO
         2 000304   200057 451500                    STP1    AUTO_HELP+5,,AUTO
         2 000305   200003 236100                    LDQ     @GETCMD,,AUTO
         2 000306   200056 756100                    STQ     AUTO_HELP+4,,AUTO
         2 000307   200056 630500                    EPPR0   AUTO_HELP+4,,AUTO
         2 000310   000020 631400 xsym               EPPR1   B_VECTNIL+16
         2 000311   000000 701000 xent               TSX1    XUG$INIT_COMMON
         2 000312   000424 702000 2                  TSX2    ALT

     3251    11935    3       END;

     3252    11936    2       XUG$ = GETCMD.WORK$ ;

  11936  2 000313   200003 470500                    LDP0    @GETCMD,,AUTO
         2 000314   000004 236100                    LDQ     4,,PR0
         2 000315   200051 756100                    STQ     XUG$,,AUTO
PL6.E3A0      #011=XUG$HELP_COMMON File=XUG$COMMON.:E05TSI                       WED 07/30/97 09:26 Page:615

     3253    11937    2       IF GETCMD.XUH$ = ADDR(NIL)

  11937  2 000316   000005 236100                    LDQ     5,,PR0
         2 000317   000001 116000 xsym               CMPQ    B_VECTNIL+1
         2 000320   000324 601000 2                  TNZ     s:11940

     3254    11938    2       THEN
     3255    11939    2           GETCMD.XUH$ = ADDR(XUG.XUH_PARAM);

  11939  2 000321   200051 236100                    LDQ     XUG$,,AUTO
         2 000322   000154 036003                    ADLQ    108,DU
         2 000323   000005 756100                    STQ     5,,PR0

     3256    11940    2       IF XUG.XUH_PARAM.OUTDCB1# = DCBNUM(NIL)

  11940  2 000324   200051 471500                    LDP1    XUG$,,AUTO
         2 000325   100164 220100                    LDX0    116,,PR1
         2 000326   000372 601000 2                  TNZ     s:11964
         2 000327   100164 721100                    LXL1    116,,PR1
         2 000330   000372 601000 2                  TNZ     s:11964

     3257    11941    2         AND XUG.XUH_PARAM.OUTDCB2# = DCBNUM(NIL)
     3258    11942    3       THEN DO;

     3259    11943    3           IF GETCMD.DCB_PARAM# ~= DCBNUM(NIL)

  11943  2 000331   000014 235100                    LDA     12,,PR0
         2 000332   000336 600000 2                  TZE     s:11947

     3260    11944    3           THEN
     3261    11945    3               XUG.XUH_PARAM.OUTDCB1# = GETCMD.DCB_PARAM# ;

  11945  2 000333   000014 722100                    LXL2    12,,PR0
         2 000334   100164 742100                    STX2    116,,PR1
         2 000335   000372 710000 2                  TRA     s:11964

PL6.E3A0      #011=XUG$HELP_COMMON File=XUG$COMMON.:E05TSI                       WED 07/30/97 09:26 Page:616
     3262    11946    4           ELSE DO;

     3263    11947    4               IF GETCMD.OUTDCB# ~= DCBNUM(NIL)

  11947  2 000336   000013 235100                    LDA     11,,PR0
         2 000337   000343 600000 2                  TZE     s:11951

     3264    11948    4               THEN
     3265    11949    4                   XUG.XUH_PARAM.OUTDCB1# = GETCMD.OUTDCB# ;

  11949  2 000340   000013 722100                    LXL2    11,,PR0
         2 000341   100164 742100                    STX2    116,,PR1
         2 000342   000372 710000 2                  TRA     s:11964

     3266    11950    5               ELSE DO;

     3267    11951    5                   CALL XUG$FINDDCB_COMMON (M$LO, DCB#)

  11951  2 000343   200050 633500                    EPPR3   DCB#,,AUTO
         2 000344   200057 453500                    STP3    AUTO_HELP+5,,AUTO
         2 000345   000005 236000 3                  LDQ     5
         2 000346   200056 756100                    STQ     AUTO_HELP+4,,AUTO
         2 000347   200056 630500                    EPPR0   AUTO_HELP+4,,AUTO
         2 000350   000020 631400 xsym               EPPR1   B_VECTNIL+16
         2 000351   000000 701000 xent               TSX1    XUG$FINDDCB_COMMON
         2 000352   000357 702000 2                  TSX2    s:11956

     3268    11952    6                   WHENRETURN DO;

     3269    11953    6                       XUG.XUH_PARAM.OUTDCB1# = DCB# ;

  11953  2 000353   200050 720100                    LXL0    DCB#,,AUTO
         2 000354   200051 470500                    LDP0    XUG$,,AUTO
         2 000355   000164 740100                    STX0    116,,PR0

     3270    11954    6                   END;

PL6.E3A0      #011=XUG$HELP_COMMON File=XUG$COMMON.:E05TSI                       WED 07/30/97 09:26 Page:617
  11954  2 000356   000372 710000 2                  TRA     s:11964

     3271    11955    6                   WHENALTRETURN DO;

     3272    11956    6                       CALL XUG$FINDDCB_COMMON (M$DO, DCB#)

  11956  2 000357   200050 630500                    EPPR0   DCB#,,AUTO
         2 000360   200057 450500                    STP0    AUTO_HELP+5,,AUTO
         2 000361   000006 236000 3                  LDQ     6
         2 000362   200056 756100                    STQ     AUTO_HELP+4,,AUTO
         2 000363   200056 630500                    EPPR0   AUTO_HELP+4,,AUTO
         2 000364   000020 631400 xsym               EPPR1   B_VECTNIL+16
         2 000365   000000 701000 xent               TSX1    XUG$FINDDCB_COMMON
         2 000366   000372 702000 2                  TSX2    s:11964

     3273    11957    7                       WHENRETURN DO;

     3274    11958    7                           XUG.XUH_PARAM.OUTDCB1# = DCB# ;

  11958  2 000367   200050 720100                    LXL0    DCB#,,AUTO
         2 000370   200051 470500                    LDP0    XUG$,,AUTO
         2 000371   000164 740100                    STX0    116,,PR0

     3275    11959    7                       END;

     3276    11960    6                   END;

     3277    11961    5               END;

     3278    11962    4           END;

     3279    11963    3       END;

     3280    11964    2       DCB# = XUG.XUH_PARAM.OUTDCB1#;

  11964  2 000372   200051 470500                    LDP0    XUG$,,AUTO
         2 000373   000164 236100                    LDQ     116,,PR0
PL6.E3A0      #011=XUG$HELP_COMMON File=XUG$COMMON.:E05TSI                       WED 07/30/97 09:26 Page:618
         2 000374   000022 772000                    QRL     18
         2 000375   200050 756100                    STQ     DCB#,,AUTO

     3281    11965    2       CALL XUG$OPENOUT_INTERNAL (GETCMD, DCB#);

  11965  2 000376   200050 631500                    EPPR1   DCB#,,AUTO
         2 000377   200057 451500                    STP1    AUTO_HELP+5,,AUTO
         2 000400   200003 236100                    LDQ     @GETCMD,,AUTO
         2 000401   200056 756100                    STQ     AUTO_HELP+4,,AUTO
         2 000402   200056 630500                    EPPR0   AUTO_HELP+4,,AUTO
         2 000403   000020 631400 xsym               EPPR1   B_VECTNIL+16
         2 000404   000000 701000 xent               TSX1    XUG$OPENOUT_INTERNAL
         2 000405   000000 011000                    NOP     0

     3282    11966    2       DCB# = XUG.XUH_PARAM.OUTDCB2#;

  11966  2 000406   200051 470500                    LDP0    XUG$,,AUTO
         2 000407   000164 236100                    LDQ     116,,PR0
         2 000410   777777 376007                    ANQ     -1,DL
         2 000411   200050 756100                    STQ     DCB#,,AUTO

     3283    11967    2       CALL XUG$OPENOUT_INTERNAL (GETCMD, DCB#);

  11967  2 000412   200050 631500                    EPPR1   DCB#,,AUTO
         2 000413   200057 451500                    STP1    AUTO_HELP+5,,AUTO
         2 000414   200003 236100                    LDQ     @GETCMD,,AUTO
         2 000415   200056 756100                    STQ     AUTO_HELP+4,,AUTO
         2 000416   200056 630500                    EPPR0   AUTO_HELP+4,,AUTO
         2 000417   000020 631400 xsym               EPPR1   B_VECTNIL+16
         2 000420   000000 701000 xent               TSX1    XUG$OPENOUT_INTERNAL
         2 000421   000000 011000                    NOP     0

     3284    11968    2       RETURN ;

  11968  2 000422   200054 221300                    LDX1  ! AUTO_HELP+2,,AUTO
         2 000423   000001 702211                    TSX2  ! 1,X1

PL6.E3A0      #011=XUG$HELP_COMMON File=XUG$COMMON.:E05TSI                       WED 07/30/97 09:26 Page:619
     3285    11969    2   ALT:ALTRETURN ;

  11969  2 000424   200054 221300       ALT          LDX1  ! AUTO_HELP+2,,AUTO
         2 000425   000000 702211                    TSX2  ! 0,X1
     3286    11970    2   END SETUP ;
     3287    11971    1   END XUG$HELP_COMMON ;
     3288    11972        %EOD;

PL6.E3A0      #011=XUG$HELP_COMMON File=XUG$COMMON.:E05TSI                       WED 07/30/97 09:26 Page:620
--  Include file information  --

   XUH_MACRO_C.:E05TOU  is referenced.
   XU_PERR_C.:E05TOU  is referenced.
   XU_MACRO_C.:E05TOU  is referenced.
   CP_6_SUBS.:E05TOU  is referenced.
   CP_6_C.:E05TOU  is referenced.
   CP_6.:E05TOU  cannot be made into a system file and is referenced.
   B$JIT_C.:E05TOU  is referenced.
   B$JIT.:E05TOU  cannot be made into a system file and is referenced.
      No diagnostics issued in procedure XUG$HELP_COMMON.
PL6.E3A0      #011=XUG$HELP_COMMON File=XUG$COMMON.:E05TSI                       WED 07/30/97 09:26 Page:621

 **** Variables and constants ****

  ****  Section 001 RoData XUG$HELP_COMMON

  ****  Scalars and arrays  ****
OctLoc.c.b A Datatyp(siz) R M Lvl/name                 OctLoc.c.b A Datatyp(siz) R M Lvl/name

     5-0-0/c STRC(72)    r     1 DEFAULT                    2-0-0/c STRC(45)    r     1 M$DO
     0-0-0/c STRC(45)    r     1 M$LO                       4-0-0/w STRC        r     1 XUG#GIVING_HELP

  ****  Auto variables  ****

  ****  Scalars and arrays  ****
OctLoc.c.b A Datatyp(siz) R M Lvl/name                 OctLoc.c.b A Datatyp(siz) R M Lvl/name

     3-0-0/w PTR         r     1 @GETCMD                   52-0-0/b BIT         r     1 AUTO_HELP
    50-0-0/w UBIN        r     1 DCB#                      *0-0-0/d STRC(1512)  r     1 GETCMD
    51-0-0/w PTR         r     1 XUG$                       4-0-0/d STRC(1296)  r     1 XUG_INIT_A

  ****  SYMREF variables  ****

  ****  Scalars and arrays  ****
OctLoc.c.b A Datatyp(siz) R M Lvl/name                 OctLoc.c.b A Datatyp(siz) R M Lvl/name

     0-0-0/w PTR         r     1 B$JIT$                     0-0-0/d STRC(1296)  r     1 XUG_INIT_C

  ****  BASED and DCB variables  ****

  ****  Scalars and arrays  ****
OctLoc.c.b A Datatyp(siz) R M Lvl/name                 OctLoc.c.b A Datatyp(siz) R M Lvl/name

     0-0-0/d STRC(9612)  r     1 XUG                        0-0-0/d STRC(2052)  r     1 XUH$PARAM


   Procedure XUG$HELP_COMMON requires 278 words for executable code.
   Procedure XUG$HELP_COMMON requires 48 words of local(AUTO) storage.
PL6.E3A0      #011=XUG$HELP_COMMON File=XUG$COMMON.:E05TSI                       WED 07/30/97 09:26 Page:622
          *** CROSS REFERENCE LISTING ***
**     DENOTES     IDENTIFIER DEFINITION
<<                 IDENTIFIER'S VALUE SET
>>                 IDENTIFIER'S VALUE USED
<>                 IDENTIFIER SET AND/OR USED
--                 IDENTIFIER REFERENCED
PL6.E3A0      #011=XUG$HELP_COMMON File=XUG$COMMON.:E05TSI                       WED 07/30/97 09:26 Page:623
          MINI XREF LISTING

ALT
     11868**LABEL   11845--CALLALT 11858--CALLALT 11871--CALLALT 11888--CALLALT
ALT IN PROCEDURE SETUP
     11969**LABEL   11934--CALLALT
ALT_WITH_CLEAR
     11927**LABEL   11878--CALLALT 11895--CALLALT
AUTO_HELP
     11835**DCL     11846<<ASSIGN  11865>>IF      11911<<ASSIGN
B$JIT.CPFLAGS1.SLEAZE
       429**DCL       429--REDEF
B$JIT.ERR.MID
       336**DCL       336--REDEF
B$JIT.JRESPEAK
       497**DCL       498--REDEF
B$JIT.ORIGINATOR_PORT.FROM_CR
       606**DCL       606--REDEF     607--REDEF
B$JIT.PNR
       510**DCL       510--REDEF
B$JIT.TSLINE
       604**DCL       605--REDEF
B$JIT$
     11836**DCL       330--IMP-PTR
CALL_HELP_UTILITY
     11848**LABEL   11924--GOTO
DCB#
     11778**DCL     11951<>CALL    11953>>ASSIGN  11956<>CALL    11958>>ASSIGN  11964<<ASSIGN  11965<>CALL
     11966<<ASSIGN  11967<>CALL
DEFAULT
     11830**DCL     11919--ASSIGN
DIVERT_TO_HELP
     11908**LABEL   11883--CALLALT 11900--CALLALT
DONE
PL6.E3A0      #011=XUG$HELP_COMMON File=XUG$COMMON.:E05TSI                       WED 07/30/97 09:26 Page:624
     11904**LABEL   11902--CALLALT
GETCMD
     10105**DCL         6--PROC    11849<>CALL    11851<>CALL    11855<>CALL    11858<>CALL    11870--ENTRY
     11877<>CALL    11879<>CALL    11883<>CALL    11887--ENTRY   11894<>CALL    11896<>CALL    11900<>CALL
     11902<>CALL    11922<>CALL    11927<>CALL    11934<>CALL    11965<>CALL    11967<>CALL
GETCMD.DCB_PARAM#
     10285**DCL     11943>>IF      11945>>ASSIGN
GETCMD.ERRDCB#
     10264**DCL     11857<<ASSIGN
GETCMD.ERR_CODE
     10253**DCL     11856<<ASSIGN  11882<<ASSIGN  11899<<ASSIGN  11912<<ASSIGN
GETCMD.F1_
     10302**DCL     11919<<ASSIGN  11921<<ASSIGN
GETCMD.OUT$
     10110**DCL     10116--REDEF
GETCMD.OUTDCB#
     10281**DCL     11947>>IF      11949>>ASSIGN
GETCMD.WORK$
     10138**DCL     11931>>IF      11936>>ASSIGN
GETCMD.XUH$
     10143**DCL     11850>>CALL    11856>>ASSIGN  11857>>ASSIGN  11859>>IF      11859>>IF      11859>>IF
     11874>>ASSIGN  11876>>ASSIGN  11878>>CALL    11891>>ASSIGN  11893>>ASSIGN  11895>>CALL    11923>>ASSIGN
     11937>>IF      11939<<ASSIGN
HELPALT
     11855**LABEL   11850--CALLALT
M$DO
     11774**DCL     11956<>CALL
M$LO
     11769**DCL     11951<>CALL
SETUP
     11930**PROC    11845--CALL    11871--CALL    11888--CALL
X$HELP
     11843**DCL-ENT 11850--CALL    11878--CALL    11895--CALL
XUG.BUF
     10930**DCL     10933--REDEF
XUG.DIVERT_TO_HELP
PL6.E3A0      #011=XUG$HELP_COMMON File=XUG$COMMON.:E05TSI                       WED 07/30/97 09:26 Page:625
     10668**DCL     11908>>IF      11910<<ASSIGN
XUG.HELP
     10593**DCL     11848<<ASSIGN  11863<<ASSIGN  11872>>IF      11889>>IF      11908>>IF
XUG.HELP.TOPICS
     10595**DCL     11873>>IF      11890>>IF
XUG.HELP_TOPIC
     10868**DCL     11921--ASSIGN  11923--ASSIGN
XUG.HELP_TOPIC.COUNT
     10875**DCL     11917>>IF
XUG.XUH_PARAM
     10827**DCL     11939--ASSIGN
XUG.XUH_PARAM.OUTDCB1#
     10833**DCL     11940>>IF      11945<<ASSIGN  11949<<ASSIGN  11953<<ASSIGN  11958<<ASSIGN  11964>>ASSIGN
XUG.XUH_PARAM.OUTDCB2#
     10834**DCL     11940>>IF      11966>>ASSIGN
XUG#GIVING_HELP
     11795**DCL     11912>>ASSIGN
XUG$
     11780**DCL     10494--IMP-PTR 11848>>ASSIGN  11863>>ASSIGN  11872>>IF      11873>>IF      11889>>IF
     11890>>IF      11908>>IF      11908>>IF      11910>>ASSIGN  11917>>IF      11921>>ASSIGN  11923>>ASSIGN
     11936<<ASSIGN  11939>>ASSIGN  11940>>IF      11940>>IF      11945>>ASSIGN  11949>>ASSIGN  11953>>ASSIGN
     11958>>ASSIGN  11964>>ASSIGN  11966>>ASSIGN
XUG$CLRENABLE_COMMON
     11837**DCL-ENT 11851--CALL    11855--CALL    11879--CALL    11896--CALL    11927--CALL
XUG$DISABLE_COMMON
     11838**DCL-ENT 11849--CALL    11877--CALL    11894--CALL
XUG$ERRMSG_COMMON
     11839**DCL-ENT 11858--CALL    11883--CALL    11900--CALL    11902--CALL    11922--CALL
XUG$FINDDCB_COMMON
     11841**DCL-ENT 11951--CALL    11956--CALL
XUG$INIT_COMMON
     11840**DCL-ENT 11934--CALL
XUG$OPENOUT_INTERNAL
     11842**DCL-ENT 11965--CALL    11967--CALL
XUG_INIT_A
     11370**DCL     11933<<ASSIGN  11934<>CALL
PL6.E3A0      #011=XUG$HELP_COMMON File=XUG$COMMON.:E05TSI                       WED 07/30/97 09:26 Page:626
XUG_INIT_C
     10957**DCL     11933>>ASSIGN
XUH$PARAM
     10450**DCL     11850<>CALL    11878<>CALL    11895<>CALL
XUH$PARAM.ALL#
     10462**DCL     11893<<ASSIGN
XUH$PARAM.ERR
     10467**DCL     11856>>ASSIGN
XUH$PARAM.ERR.ERR#
     10471**DCL     11859>>IF      11859>>IF
XUH$PARAM.ERR.MON
     10470**DCL     11859>>IF
XUH$PARAM.ERR_DCB#
     10473**DCL     11857>>ASSIGN
XUH$PARAM.HELP$
     10460**DCL     11923<<ASSIGN
XUH$PARAM.MORE#
     10463**DCL     11876<<ASSIGN
XUH$PARAM.TOPICS#
     10464**DCL     11874<<ASSIGN  11891<<ASSIGN

PL6.E3A0      #012=XUG$FINDDCB_COMMON File=XUG$COMMON.:E05TSI                    WED 07/30/97 09:27 Page:627
     3289        1        /*T***********************************************************/
     3290        2        /*T*                                                         */
     3291        3        /*T* Copyright (c) Bull HN Information Systems Inc., 1997    */
     3292        4        /*T*                                                         */
     3293        5        /*T***********************************************************/
     3294        6        XUG$FINDDCB_COMMON: PROC(DCBNAME,DCB#) ALTRET;
     3295        7        /*X* DMC,PLM=4,IND=4,CTI=2,DTI=0,ENI=0,ECI=0,CSI=0,MCI,DCI=4 */
     3296        8    1   DCL 1 DCBNAME,
     3297        9    1         2 L UBIN BYTE UNAL,
     3298       10    1         2 C CHAR(DCBNAME.L);
     3299       11    1   DCL DCB# SBIN;
     3300       12        /**/
     3301       13        %INCLUDE CP_6;
     3302     5572        %INCLUDE B$ROSEG;
     3303     5635    1   DCL B$ROS$ PTR SYMREF;
     3304     5636        %F$DCB;
     3305     5693        /**/
     3306     5694        %FPT_GETDCB (MERGE=YES,STCLASS=CONSTANT,FPTN=FPT_GETDCB_C);
     3307     5709        %FPT_GETDCB (STCLASS=AUTO);
     3308     5724    1   DCL I SBIN;
     3309     5725    1   DCL GET BIT(1) ALIGNED;
     3310     5726        %EJECT;
PL6.E3A0      #012=XUG$FINDDCB_COMMON File=XUG$COMMON.:E05TSI                    WED 07/30/97 09:27 Page:628
     3311     5727    1       GET='0'B;
     3312     5728    1       GOTO FIND;
     3313     5729    1   XUG$GETDCB_COMMON: ENTRY(DCBNAME,DCB#) ALTRET;
     3314     5730    1       GET='1'B;
     3315     5731    1   FIND:
     3316     5732    2       DO I=1 TO B$ROS$->B$ROSEG.NUMDCBS;
     3317     5733    3           IF DCBADDR(I)~=ADDR(NIL) THEN DO;
     3318     5734    4               IF DCBADDR(I)->F$DCB.DCBNAME.N=DCBNAME.C THEN DO;
     3319     5735    4                   DCB#=I;
     3320     5736    4                   RETURN;
     3321     5737    4               END;
     3322     5738    3           END;
     3323     5739    2       END;
     3324     5740    1       IF NOT GET THEN ALTRETURN;
     3325     5741    1       FPT_GETDCB = FPT_GETDCB_C;
     3326     5742    1       FPT_GETDCB.DCBNAME_=VECTOR(DCBNAME);
     3327     5743    1       FPT_GETDCB.DCBNUM_=VECTOR(DCB#);
     3328     5744    1       CALL M$GETDCB(FPT_GETDCB) ALTRET(ALT);
     3329     5745    1       RETURN;
     3330     5746    1   ALT: ALTRETURN;
     3331     5747    1   END XUG$FINDDCB_COMMON;
     3332     5748        %EOD;

PL6.E3A0      #012=XUG$FINDDCB_COMMON File=XUG$COMMON.:E05TSI                    WED 07/30/97 09:27 Page:629
--  Include file information  --

   B$ROSEG.:E05TOU  cannot be made into a system file and is referenced.
   CP_6_C.:E05TOU  is referenced.
   CP_6.:E05TOU  cannot be made into a system file and is referenced.
      No diagnostics issued in procedure XUG$FINDDCB_COMMON.

   Procedure XUG$FINDDCB_COMMON requires 67 words for executable code.
   Procedure XUG$FINDDCB_COMMON requires 18 words of local(AUTO) storage.

PL6.E3A0      #012=XUG$FINDDCB_COMMON File=XUG$COMMON.:E05TSI                    WED 07/30/97 09:27 Page:630

 Object Unit name= XUG$FINDDCB_COMMON                         File name= XUG$COMMON.:E05TOU
 UTS= JUL 30 '97 09:27:05.24 WED                              Compiler= PL-6/E31         Sev=      00
 SharedLib= :SHARED_SYSTEM                                    Alt SharedLib=


    ****  Control sections  ****

 Sect   Type Bound  Init  Size OctSiz  Section name(segment info)
    0   DCB   even  none     0      0  M$UC
    1  RoData even  UTS      8     10  XUG$FINDDCB_COMMON
    2   Proc  even  none    67    103  XUG$FINDDCB_COMMON
    3  RoData even  none     1      1  XUG$FINDDCB_COMMON

    ****  Entry defs  ****

                              Check   Calling
                             calling  sequence
  Sect OctLoc Primary Altret sequence   type   Parms  Name
     2      0   yes    yes     yes      Std        2  XUG$FINDDCB_COMMON
     2      4          yes     yes      Std        2  XUG$GETDCB_COMMON

  ****  Entry refs  ****

         Check        Calling
        calling       sequence
Altret sequence SRef   type   Args  Name
                       nStd      0 X66_AUTO_2
                       Std       0 B_CONSPOOL_D
                       nStd      0 X66_ARET
                       nStd      0 X66_AALT

  ****  Data refs  ****

  Flags:  r = read only, s = secondary
Flgs Name                             Flgs Name                             Flgs Name
     M$UC                                  B$ROS$                                B_VECTNIL
PL6.E3A0      #012=XUG$FINDDCB_COMMON File=XUG$COMMON.:E05TSI                    WED 07/30/97 09:27 Page:631

  ****  Segment refs  ****

  Flags:  r = read only, s = secondary
Flgs Name                             Flgs Name                             Flgs Name
     ISSID                                 NULLSID                               ROSID
PL6.E3A0      #012=XUG$FINDDCB_COMMON File=XUG$COMMON.:E05TSI                    WED 07/30/97 09:27 Page:632


     3289        1        /*T***********************************************************/
     3290        2        /*T*                                                         */
     3291        3        /*T* Copyright (c) Bull HN Information Systems Inc., 1997    */
     3292        4        /*T*                                                         */
     3293        5        /*T***********************************************************/
     3294        6        XUG$FINDDCB_COMMON: PROC(DCBNAME,DCB#) ALTRET;

      6  2 000000   000000 700200 xent  XUG$FINDDCB* TSX0  ! X66_AUTO_2
         2 000001   000022 000002                    ZERO    18,2

     3295        7        /*X* DMC,PLM=4,IND=4,CTI=2,DTI=0,ENI=0,ECI=0,CSI=0,MCI,DCI=4 */
     3296        8    1   DCL 1 DCBNAME,
     3297        9    1         2 L UBIN BYTE UNAL,
     3298       10    1         2 C CHAR(DCBNAME.L);
     3299       11    1   DCL DCB# SBIN;
     3300       12        /**/
     3301       13        %INCLUDE CP_6;
     3302     5572        %INCLUDE B$ROSEG;
     3303     5635    1   DCL B$ROS$ PTR SYMREF;
     3304     5636        %F$DCB;
     3305     5693        /**/
     3306     5694        %FPT_GETDCB (MERGE=YES,STCLASS=CONSTANT,FPTN=FPT_GETDCB_C);
     3307     5709        %FPT_GETDCB (STCLASS=AUTO);
     3308     5724    1   DCL I SBIN;
     3309     5725    1   DCL GET BIT(1) ALIGNED;
     3310     5726        %EJECT;
PL6.E3A0      #012=XUG$FINDDCB_COMMON File=XUG$COMMON.:E05TSI                    WED 07/30/97 09:27 Page:633
     3311     5727    1       GET='0'B;

   5727  2 000002   200017 450100                    STZ     GET,,AUTO

     3312     5728    1       GOTO FIND;

   5728  2 000003   000010 710000 2                  TRA     FIND

     3313     5729    1   XUG$GETDCB_COMMON: ENTRY(DCBNAME,DCB#) ALTRET;

   5729  2 000004   000000 700200 xent  XUG$GETDCB_* TSX0  ! X66_AUTO_2
         2 000005   000022 000002                    ZERO    18,2

     3314     5730    1       GET='1'B;

   5730  2 000006   400000 236003                    LDQ     -131072,DU
         2 000007   200017 756100                    STQ     GET,,AUTO

     3315     5731    1   FIND:
     3316     5732    2       DO I=1 TO B$ROS$->B$ROSEG.NUMDCBS;

   5732  2 000010   000001 235007       FIND         LDA     1,DL
         2 000011   200016 755100                    STA     I,,AUTO
         2 000012   000044 710000 2                  TRA     s:5739+1

     3317     5733    3           IF DCBADDR(I)~=ADDR(NIL) THEN DO;

   5733  2 000013   000000 470400 3                  LDP0    0
         2 000014   000000 471500                    LDP1    0,,PR0
         2 000015   200016 720100                    LXL0    I,,AUTO
         2 000016   100000 236110                    LDQ     0,X0,PR1
         2 000017   000001 116000 xsym               CMPQ    B_VECTNIL+1
         2 000020   000043 600000 2                  TZE     s:5739

     3318     5734    4               IF DCBADDR(I)->F$DCB.DCBNAME.N=DCBNAME.C THEN DO;

   5734  2 000021   100000 473510                    LDP3    0,X0,PR1
PL6.E3A0      #012=XUG$FINDDCB_COMMON File=XUG$COMMON.:E05TSI                    WED 07/30/97 09:27 Page:634
         2 000022   300140 236100                    LDQ     96,,PR3
         2 000023   000033 772000                    QRL     27
         2 000024   000037 376007                    ANQ     31,DL
         2 000025   200003 474500                    LDP4    @DCBNAME,,AUTO
         2 000026   000100 101500                    MRL     fill='000'O
         2 000027   400000 000001                    ADSC9   0,,PR4                   cn=0,n=1
         2 000030   200020 000002                    ADSC9   GET+1,,AUTO              cn=0,n=2
         2 000031   200020 221100                    LDX1    GET+1,,AUTO
         2 000032   000000 622006                    EAX2    0,QL
         2 000033   040140 106540                    CMPC    fill='040'O
         2 000034   300140 200012                    ADSC9   96,,PR3                  cn=1,n=*X2
         2 000035   400000 200011                    ADSC9   0,,PR4                   cn=1,n=*X1
         2 000036   000043 601000 2                  TNZ     s:5739

     3319     5735    4                   DCB#=I;

   5735  2 000037   200004 475500                    LDP5    @DCB#,,AUTO
         2 000040   200016 235100                    LDA     I,,AUTO
         2 000041   500000 755100                    STA     0,,PR5

     3320     5736    4                   RETURN;

   5736  2 000042   000000 702200 xent               TSX2  ! X66_ARET

     3321     5737    4               END;
     3322     5738    3           END;
     3323     5739    2       END;

   5739  2 000043   200016 054100                    AOS     I,,AUTO
         2 000044   000000 470400 xsym               LDP0    B$ROS$
         2 000045   000002 236100                    LDQ     2,,PR0
         2 000046   000022 772000                    QRL     18
         2 000047   200016 116100                    CMPQ    I,,AUTO
         2 000050   000013 605000 2                  TPL     s:5733

     3324     5740    1       IF NOT GET THEN ALTRETURN;

PL6.E3A0      #012=XUG$FINDDCB_COMMON File=XUG$COMMON.:E05TSI                    WED 07/30/97 09:27 Page:635
   5740  2 000051   200017 234100                    SZN     GET,,AUTO
         2 000052   000054 604000 2                  TMI     s:5741

   5740  2 000053   000000 702200 xent               TSX2  ! X66_AALT

     3325     5741    1       FPT_GETDCB = FPT_GETDCB_C;

   5741  2 000054   000100 100400                    MLR     fill='000'O
         2 000055   000000 000040 1                  ADSC9   FPT_GETDCB_C             cn=0,n=32
         2 000056   200006 000040                    ADSC9   FPT_GETDCB,,AUTO         cn=0,n=32

     3326     5742    1       FPT_GETDCB.DCBNAME_=VECTOR(DCBNAME);

   5742  2 000057   200003 471500                    LDP1    @DCBNAME,,AUTO
         2 000060   000100 101500                    MRL     fill='000'O
         2 000061   100000 000001                    ADSC9   0,,PR1                   cn=0,n=1
         2 000062   200020 000002                    ADSC9   GET+1,,AUTO              cn=0,n=2
         2 000063   200020 220100                    LDX0    GET+1,,AUTO
         2 000064   000001 621010                    EAX1    1,X0
         2 000065   000000 635011                    EAA     0,X1
         2 000066   000002 771000                    ARL     2
         2 000067   000140 135007                    SBLA    96,DL
         2 000070   200003 236100                    LDQ     @DCBNAME,,AUTO
         2 000071   200010 757100                    STAQ    FPT_GETDCB+2,,AUTO

     3327     5743    1       FPT_GETDCB.DCBNUM_=VECTOR(DCB#);

   5743  2 000072   777640 235007                    LDA     -96,DL
         2 000073   200004 236100                    LDQ     @DCB#,,AUTO
         2 000074   200012 757100                    STAQ    FPT_GETDCB+4,,AUTO

     3328     5744    1       CALL M$GETDCB(FPT_GETDCB) ALTRET(ALT);

   5744  2 000075   200006 630500                    EPPR0   FPT_GETDCB,,AUTO
         2 000076   460002 713400                    CLIMB   alt,+24578
         2 000077   401000 401760                    pmme    nvectors=3
         2 000100   000102 702000 2                  TSX2    ALT
PL6.E3A0      #012=XUG$FINDDCB_COMMON File=XUG$COMMON.:E05TSI                    WED 07/30/97 09:27 Page:636

     3329     5745    1       RETURN;

   5745  2 000101   000000 702200 xent               TSX2  ! X66_ARET

     3330     5746    1   ALT: ALTRETURN;

   5746  2 000102   000000 702200 xent  ALT          TSX2  ! X66_AALT
     3331     5747    1   END XUG$FINDDCB_COMMON;
     3332     5748        %EOD;

PL6.E3A0      #012=XUG$FINDDCB_COMMON File=XUG$COMMON.:E05TSI                    WED 07/30/97 09:27 Page:637
--  Include file information  --

   B$ROSEG.:E05TOU  cannot be made into a system file and is referenced.
   CP_6_C.:E05TOU  is referenced.
   CP_6.:E05TOU  cannot be made into a system file and is referenced.
      No diagnostics issued in procedure XUG$FINDDCB_COMMON.
PL6.E3A0      #012=XUG$FINDDCB_COMMON File=XUG$COMMON.:E05TSI                    WED 07/30/97 09:27 Page:638

 **** Variables and constants ****

  ****  Section 001 RoData XUG$FINDDCB_COMMON

  ****  Scalars and arrays  ****
OctLoc.c.b A Datatyp(siz) R M Lvl/name                 OctLoc.c.b A Datatyp(siz) R M Lvl/name

     0-0-0/d STRC(288)   r     1 FPT_GETDCB_C

  ****  Auto variables  ****

  ****  Scalars and arrays  ****
OctLoc.c.b A Datatyp(siz) R M Lvl/name                 OctLoc.c.b A Datatyp(siz) R M Lvl/name

     4-0-0/w PTR         r     1 @DCB#                      3-0-0/w PTR         r     1 @DCBNAME
    *0-0-0/w SBIN        r     1 DCB#                      *0-0-0/c ASTR(9)     r     1 DCBNAME
     6-0-0/d STRC(288)   r     1 FPT_GETDCB                17-0-0/w BIT         r     1 GET
    16-0-0/w SBIN        r     1 I

  ****  SYMREF variables  ****

  ****  Scalars and arrays  ****
OctLoc.c.b A Datatyp(siz) R M Lvl/name                 OctLoc.c.b A Datatyp(siz) R M Lvl/name

     0-0-0/w PTR         r     1 B$ROS$

  ****  BASED and DCB variables  ****

  ****  Scalars and arrays  ****
OctLoc.c.b A Datatyp(siz) R M Lvl/name                 OctLoc.c.b A Datatyp(siz) R M Lvl/name

     0-0-0/d STRC(3024)  r     1 B$ROSEG                    0-0-0/d ASTR(3528)  r     1 F$DCB


   Procedure XUG$FINDDCB_COMMON requires 67 words for executable code.
   Procedure XUG$FINDDCB_COMMON requires 18 words of local(AUTO) storage.
PL6.E3A0      #012=XUG$FINDDCB_COMMON File=XUG$COMMON.:E05TSI                    WED 07/30/97 09:27 Page:639
          *** CROSS REFERENCE LISTING ***
**     DENOTES     IDENTIFIER DEFINITION
<<                 IDENTIFIER'S VALUE SET
>>                 IDENTIFIER'S VALUE USED
<>                 IDENTIFIER SET AND/OR USED
--                 IDENTIFIER REFERENCED
PL6.E3A0      #012=XUG$FINDDCB_COMMON File=XUG$COMMON.:E05TSI                    WED 07/30/97 09:27 Page:640
          MINI XREF LISTING

ALT
      5746**LABEL    5744--CALLALT
B$ROS$
      5635**DCL      5732>>DOINDEX
B$ROSEG.NUMDCBS
      5585**DCL      5732>>DOINDEX
DCB#
        11**DCL         6--PROC     5729--ENTRY    5735<<ASSIGN   5743--ASSIGN
DCBNAME
         8**DCL         6--PROC     5729--ENTRY    5742--ASSIGN
DCBNAME.C
        10**DCL      5734>>IF
DCBNAME.L
         9**DCL        10--IMP-SIZ  5734>>IF       5742>>ASSIGN
F$DCB.ACTPOS
      5669**DCL      5669--REDEF
F$DCB.ARS#
      5643**DCL      5643--REDEF
F$DCB.ATTR
      5662**DCL      5663--REDEF
F$DCB.BORROW
      5677**DCL      5677--REDEF    5677--REDEF    5677--REDEF
F$DCB.DCBNAME.L
      5691**DCL      5691--IMP-SIZ  5734>>IF
F$DCB.DCBNAME.N
      5691**DCL      5734>>IF
F$DCB.EOMCHAR#
      5647**DCL      5647--REDEF
F$DCB.FLDID
      5672**DCL      5672--REDEF
F$DCB.FORM$
      5666**DCL      5666--REDEF
PL6.E3A0      #012=XUG$FINDDCB_COMMON File=XUG$COMMON.:E05TSI                    WED 07/30/97 09:27 Page:641
F$DCB.FSECT
      5682**DCL      5682--REDEF
F$DCB.FSN#
      5659**DCL      5659--REDEF    5659--REDEF    5660--REDEF
F$DCB.HEADER$
      5665**DCL      5665--REDEF
F$DCB.IXTNSIZE#
      5663**DCL      5663--REDEF
F$DCB.LASTSTA$
      5652**DCL      5652--REDEF
F$DCB.LVL
      5678**DCL      5678--REDEF
F$DCB.NAME#.C
      5653**DCL      5653--REDEF
F$DCB.NOEOF
      5675**DCL      5675--REDEF
F$DCB.NRECS#
      5664**DCL      5664--REDEF
F$DCB.NRECX
      5683**DCL      5683--REDEF
F$DCB.OHDR
      5675**DCL      5675--REDEF
F$DCB.ORG#
      5658**DCL      5658--REDEF
F$DCB.PRECNO
      5681**DCL      5681--REDEF
F$DCB.RCSZ
      5687**DCL      5687--REDEF
F$DCB.RES#
      5654**DCL      5654--REDEF
F$DCB.SETX
      5666**DCL      5666--REDEF
F$DCB.TAB$
      5666**DCL      5666--REDEF
F$DCB.TDA
      5680**DCL      5681--REDEF
PL6.E3A0      #012=XUG$FINDDCB_COMMON File=XUG$COMMON.:E05TSI                    WED 07/30/97 09:27 Page:642
F$DCB.WSN#
      5654**DCL      5654--REDEF
FIND
      5732**LABEL    5728--GOTO
FPT_GETDCB
      5720**DCL      5741<<ASSIGN   5744<>CALL
FPT_GETDCB.DCBNAME_
      5720**DCL      5742<<ASSIGN
FPT_GETDCB.DCBNUM_
      5720**DCL      5743<<ASSIGN
FPT_GETDCB_C
      5705**DCL      5741>>ASSIGN
FPT_GETDCB_C.V
      5706**DCL      5705--DCLINIT
GET
      5725**DCL      5727<<ASSIGN   5730<<ASSIGN   5740>>IF
I
      5724**DCL      5732<<DOINDEX  5733--IF       5734--IF       5734--IF       5735>>ASSIGN
M$GETDCB
      5506**DCL-ENT  5744--CALL

PL6.E3A0      #013=XUG$CLOSE_DCBS_COMMON File=XUG$COMMON.:E05TSI                 WED 07/30/97 09:27 Page:643
     3333        1        /*T***********************************************************/
     3334        2        /*T*                                                         */
     3335        3        /*T* Copyright (c) Bull HN Information Systems Inc., 1997    */
     3336        4        /*T*                                                         */
     3337        5        /*T***********************************************************/
     3338        6        XUG$CLOSE_DCBS_COMMON: PROC(GETCMD) ;
     3339        7        /*X* DMC,PLM=4,IND=4,CTI=2,DTI=0,ENI=0,ECI=0,CSI=0,MCI,DCI=4 */
     3340        8        %INCLUDE CP_6;
     3341     5567        %INCLUDE CP_6_SUBS;
     3342     6107        %FPT_CLOSE (DISP=SAVE,STCLASS=CONSTANT,FPTN=FPT_CLOSE_C);
     3343     6149        %INCLUDE XU_MACRO_C ;
     3344     9255        /**/
     3345     9256        %XUG_GETCMD (NAME=GETCMD, STCLASS=PARAM) ;
     3346     9594
     3347     9595        %FPT_CLOSE (STCLASS=AUTO);
     3348     9637        %INCLUDE B$ROSEG;
     3349     9700    1   DCL B$ROS$ PTR SYMREF;
     3350     9701        %F$DCB;
     3351     9758    1   DCL CLOSEALL BIT(1) ;
     3352     9759        /**/
     3353     9760        /* BEGIN PROCEDURE */
     3354     9761        /**/
     3355     9762    1       FPT_CLOSE = FPT_CLOSE_C;
     3356     9763    1       FPT_CLOSE.V_ = VECTOR (FPT_CLOSE.V);
     3357     9764    1       IF GETCMD.DCB_PARAM# ~= DCBNUM(NIL)
     3358     9765    1       THEN
     3359     9766    2       DO ;
     3360     9767    2           FPT_CLOSE.V.DCB# = GETCMD.DCB_PARAM# ;
     3361     9768    2           CLOSEALL = '0'B ;
     3362     9769    2           GOTO DO_CLOSE ;
     3363     9770    2       END ;                        /* Then Do */
     3364     9771    1       ELSE
     3365     9772    1           CLOSEALL = '1'B ;
     3366     9773
     3367     9774    2       DO FPT_CLOSE.V.DCB#=%M$1STDCB# TO B$ROS$->B$ROSEG.NUMDCBS;
     3368     9775    2   DO_CLOSE:
     3369     9776    2           IF DCBADDR(FPT_CLOSE.V.DCB#)~=ADDR(NIL) THEN
PL6.E3A0      #013=XUG$CLOSE_DCBS_COMMON File=XUG$COMMON.:E05TSI                 WED 07/30/97 09:27 Page:644
     3370     9777    3               IF DCBADDR(FPT_CLOSE.V.DCB#)->F$DCB.FCD# THEN DO;
     3371     9778    3                   IF GETCMD.DISP# ~= 0
     3372     9779    3                   THEN
     3373     9780    3                       FPT_CLOSE.V.DISP# = GETCMD.DISP#;
     3374     9781    3                   ELSE
     3375     9782    3                       IF DCBADDR(FPT_CLOSE.V.DCB#) -> F$DCB.ORG# = %FPRG#
     3376     9783    3                       THEN
     3377     9784    3                           FPT_CLOSE.V.DISP# = %RELEASE#;
     3378     9785    3                       ELSE
     3379     9786    3                           FPT_CLOSE.V.DISP# = %SAVE#;
     3380     9787    3                   CALL M$CLOSE(FPT_CLOSE) ALTRET(NXT_DCB);
     3381     9788    3               END;
     3382     9789    2           IF CLOSEALL = '0'B
     3383     9790    2           THEN
     3384     9791    2               GOTO DONE ;
     3385     9792    2   NXT_DCB: END;
     3386     9793    1   DONE:
     3387     9794    1       RETURN;
     3388     9795    1   END XUG$CLOSE_DCBS_COMMON;
     3389     9796        %EOD;

PL6.E3A0      #013=XUG$CLOSE_DCBS_COMMON File=XUG$COMMON.:E05TSI                 WED 07/30/97 09:27 Page:645
--  Include file information  --

   B$ROSEG.:E05TOU  cannot be made into a system file and is referenced.
   XU_MACRO_C.:E05TOU  is referenced.
   CP_6_SUBS.:E05TOU  is referenced.
   CP_6_C.:E05TOU  is referenced.
   CP_6.:E05TOU  cannot be made into a system file and is referenced.
      No diagnostics issued in procedure XUG$CLOSE_DCBS_COMMON.

   Procedure XUG$CLOSE_DCBS_COMMON requires 61 words for executable code.
   Procedure XUG$CLOSE_DCBS_COMMON requires 38 words of local(AUTO) storage.

PL6.E3A0      #013=XUG$CLOSE_DCBS_COMMON File=XUG$COMMON.:E05TSI                 WED 07/30/97 09:27 Page:646

 Object Unit name= XUG$CLOSE_DCBS_COMMON                      File name= XUG$COMMON.:E05TOU
 UTS= JUL 30 '97 09:27:26.88 WED                              Compiler= PL-6/E31         Sev=      00
 SharedLib= :SHARED_SYSTEM                                    Alt SharedLib=


    ****  Control sections  ****

 Sect   Type Bound  Init  Size OctSiz  Section name(segment info)
    0   DCB   even  none     0      0  M$UC
    1  RoData even  UTS     30     36  XUG$CLOSE_DCBS_COMMON
    2   Proc  even  none    61     75  XUG$CLOSE_DCBS_COMMON
    3  RoData even  none     2      2  XUG$CLOSE_DCBS_COMMON

    ****  Entry defs  ****

                              Check   Calling
                             calling  sequence
  Sect OctLoc Primary Altret sequence   type   Parms  Name
     2      0   yes            yes      Std        1  XUG$CLOSE_DCBS_COMMON

  ****  Entry refs  ****

         Check        Calling
        calling       sequence
Altret sequence SRef   type   Args  Name
                       nStd      0 X66_AUTO_1
                       Std       0 B_CONSPOOL_D
                       nStd      0 X66_ARET

  ****  Data refs  ****

  Flags:  r = read only, s = secondary
Flgs Name                             Flgs Name                             Flgs Name
     M$UC                                  B$ROS$                                B_VECTNIL
PL6.E3A0      #013=XUG$CLOSE_DCBS_COMMON File=XUG$COMMON.:E05TSI                 WED 07/30/97 09:27 Page:647

  ****  Segment refs  ****

  Flags:  r = read only, s = secondary
Flgs Name                             Flgs Name                             Flgs Name
     ISSID                                 NULLSID                               ROSID
PL6.E3A0      #013=XUG$CLOSE_DCBS_COMMON File=XUG$COMMON.:E05TSI                 WED 07/30/97 09:27 Page:648


     3333        1        /*T***********************************************************/
     3334        2        /*T*                                                         */
     3335        3        /*T* Copyright (c) Bull HN Information Systems Inc., 1997    */
     3336        4        /*T*                                                         */
     3337        5        /*T***********************************************************/
     3338        6        XUG$CLOSE_DCBS_COMMON: PROC(GETCMD) ;

      6  2 000000   000000 700200 xent  XUG$CLOSE_D* TSX0  ! X66_AUTO_1
         2 000001   000046 000001                    ZERO    38,1

     3339        7        /*X* DMC,PLM=4,IND=4,CTI=2,DTI=0,ENI=0,ECI=0,CSI=0,MCI,DCI=4 */
     3340        8        %INCLUDE CP_6;
     3341     5567        %INCLUDE CP_6_SUBS;
     3342     6107        %FPT_CLOSE (DISP=SAVE,STCLASS=CONSTANT,FPTN=FPT_CLOSE_C);
     3343     6149        %INCLUDE XU_MACRO_C ;
     3344     9255        /**/
     3345     9256        %XUG_GETCMD (NAME=GETCMD, STCLASS=PARAM) ;
     3346     9594
     3347     9595        %FPT_CLOSE (STCLASS=AUTO);
     3348     9637        %INCLUDE B$ROSEG;
     3349     9700    1   DCL B$ROS$ PTR SYMREF;
     3350     9701        %F$DCB;
     3351     9758    1   DCL CLOSEALL BIT(1) ;
     3352     9759        /**/
     3353     9760        /* BEGIN PROCEDURE */
     3354     9761        /**/
     3355     9762    1       FPT_CLOSE = FPT_CLOSE_C;

   9762  2 000002   000100 100400                    MLR     fill='000'O
         2 000003   000000 000170 1                  ADSC9   FPT_CLOSE_C              cn=0,n=120
         2 000004   200004 000170                    ADSC9   FPT_CLOSE,,AUTO          cn=0,n=120

     3356     9763    1       FPT_CLOSE.V_ = VECTOR (FPT_CLOSE.V);

   9763  2 000005   000000 235000 3                  LDA     0
         2 000006   200044 452500                    STP2    CLOSEALL+2,,AUTO
PL6.E3A0      #013=XUG$CLOSE_DCBS_COMMON File=XUG$COMMON.:E05TSI                 WED 07/30/97 09:27 Page:649
         2 000007   200044 236100                    LDQ     CLOSEALL+2,,AUTO
         2 000010   000036 036003                    ADLQ    30,DU
         2 000011   200004 757100                    STAQ    FPT_CLOSE,,AUTO

     3357     9764    1       IF GETCMD.DCB_PARAM# ~= DCBNUM(NIL)

   9764  2 000012   200003 470500                    LDP0    @GETCMD,,AUTO
         2 000013   000014 235100                    LDA     12,,PR0
         2 000014   000021 600000 2                  TZE     s:9772

     3358     9765    1       THEN
     3359     9766    2       DO ;

     3360     9767    2           FPT_CLOSE.V.DCB# = GETCMD.DCB_PARAM# ;

   9767  2 000015   000014 720100                    LXL0    12,,PR0
         2 000016   200036 740100                    STX0    FPT_CLOSE+26,,AUTO

     3361     9768    2           CLOSEALL = '0'B ;

   9768  2 000017   200042 450100                    STZ     CLOSEALL,,AUTO

     3362     9769    2           GOTO DO_CLOSE ;

   9769  2 000020   000026 710000 2                  TRA     DO_CLOSE

     3363     9770    2       END ;                        /* Then Do */
     3364     9771    1       ELSE
     3365     9772    1           CLOSEALL = '1'B ;

   9772  2 000021   400000 236003                    LDQ     -131072,DU
         2 000022   200042 756100                    STQ     CLOSEALL,,AUTO

     3366     9773
     3367     9774    2       DO FPT_CLOSE.V.DCB#=%M$1STDCB# TO B$ROS$->B$ROSEG.NUMDCBS;

   9774  2 000023   000012 220003                    LDX0    10,DU
PL6.E3A0      #013=XUG$CLOSE_DCBS_COMMON File=XUG$COMMON.:E05TSI                 WED 07/30/97 09:27 Page:650
         2 000024   200036 740100                    STX0    FPT_CLOSE+26,,AUTO
         2 000025   000070 710000 2                  TRA     NXT_DCB+3

     3368     9775    2   DO_CLOSE:
     3369     9776    2           IF DCBADDR(FPT_CLOSE.V.DCB#)~=ADDR(NIL) THEN

   9776  2 000026   000001 470400 3     DO_CLOSE     LDP0    1
         2 000027   000000 471500                    LDP1    0,,PR0
         2 000030   200036 220100                    LDX0    FPT_CLOSE+26,,AUTO
         2 000031   100000 236110                    LDQ     0,X0,PR1
         2 000032   000001 116000 xsym               CMPQ    B_VECTNIL+1
         2 000033   000063 600000 2                  TZE     s:9789

     3370     9777    3               IF DCBADDR(FPT_CLOSE.V.DCB#)->F$DCB.FCD# THEN DO;

   9777  2 000034   100000 473510                    LDP3    0,X0,PR1
         2 000035   300031 236100                    LDQ     25,,PR3
         2 000036   020000 316007                    CANQ    8192,DL
         2 000037   000063 600000 2                  TZE     s:9789

     3371     9778    3                   IF GETCMD.DISP# ~= 0

   9778  2 000040   200003 474500                    LDP4    @GETCMD,,AUTO
         2 000041   400016 235100                    LDA     14,,PR4
         2 000042   000046 600000 2                  TZE     s:9782

     3372     9779    3                   THEN
     3373     9780    3                       FPT_CLOSE.V.DISP# = GETCMD.DISP#;

   9780  2 000043   400016 236100                    LDQ     14,,PR4
         2 000044   200036 552104                    STBQ    FPT_CLOSE+26,'04'O,AUTO
         2 000045   000057 710000 2                  TRA     s:9787

     3374     9781    3                   ELSE
     3375     9782    3                       IF DCBADDR(FPT_CLOSE.V.DCB#) -> F$DCB.ORG# = %FPRG#

   9782  2 000046   300032 236100                    LDQ     26,,PR3
PL6.E3A0      #013=XUG$CLOSE_DCBS_COMMON File=XUG$COMMON.:E05TSI                 WED 07/30/97 09:27 Page:651
         2 000047   777000 376003                    ANQ     -512,DU
         2 000050   012000 116003                    CMPQ    5120,DU
         2 000051   000055 601000 2                  TNZ     s:9786

     3376     9783    3                       THEN
     3377     9784    3                           FPT_CLOSE.V.DISP# = %RELEASE#;

   9784  2 000052   000001 236007                    LDQ     1,DL
         2 000053   200036 552104                    STBQ    FPT_CLOSE+26,'04'O,AUTO
         2 000054   000057 710000 2                  TRA     s:9787

     3378     9785    3                       ELSE
     3379     9786    3                           FPT_CLOSE.V.DISP# = %SAVE#;

   9786  2 000055   000002 236007                    LDQ     2,DL
         2 000056   200036 552104                    STBQ    FPT_CLOSE+26,'04'O,AUTO

     3380     9787    3                   CALL M$CLOSE(FPT_CLOSE) ALTRET(NXT_DCB);

   9787  2 000057   200004 630500                    EPPR0   FPT_CLOSE,,AUTO
         2 000060   450001 713400                    CLIMB   alt,close
         2 000061   406000 401760                    pmme    nvectors=13
         2 000062   000065 702000 2                  TSX2    NXT_DCB

     3381     9788    3               END;

     3382     9789    2           IF CLOSEALL = '0'B

   9789  2 000063   200042 234100                    SZN     CLOSEALL,,AUTO
         2 000064   000074 605000 2                  TPL     DONE

     3383     9790    2           THEN
     3384     9791    2               GOTO DONE ;
     3385     9792    2   NXT_DCB: END;

   9792  2 000065   200036 220100       NXT_DCB      LDX0    FPT_CLOSE+26,,AUTO
         2 000066   000001 621010                    EAX1    1,X0
PL6.E3A0      #013=XUG$CLOSE_DCBS_COMMON File=XUG$COMMON.:E05TSI                 WED 07/30/97 09:27 Page:652
         2 000067   200036 741100                    STX1    FPT_CLOSE+26,,AUTO
         2 000070   000000 470400 xsym               LDP0    B$ROS$
         2 000071   000002 220100                    LDX0    2,,PR0
         2 000072   200036 100100                    CMPX0   FPT_CLOSE+26,,AUTO
         2 000073   000026 603000 2                  TRC     DO_CLOSE

     3386     9793    1   DONE:
     3387     9794    1       RETURN;

   9794  2 000074   000000 702200 xent  DONE         TSX2  ! X66_ARET
     3388     9795    1   END XUG$CLOSE_DCBS_COMMON;
     3389     9796        %EOD;

PL6.E3A0      #013=XUG$CLOSE_DCBS_COMMON File=XUG$COMMON.:E05TSI                 WED 07/30/97 09:27 Page:653
--  Include file information  --

   B$ROSEG.:E05TOU  cannot be made into a system file and is referenced.
   XU_MACRO_C.:E05TOU  is referenced.
   CP_6_SUBS.:E05TOU  is referenced.
   CP_6_C.:E05TOU  is referenced.
   CP_6.:E05TOU  cannot be made into a system file and is referenced.
      No diagnostics issued in procedure XUG$CLOSE_DCBS_COMMON.
PL6.E3A0      #013=XUG$CLOSE_DCBS_COMMON File=XUG$COMMON.:E05TSI                 WED 07/30/97 09:27 Page:654

 **** Variables and constants ****

  ****  Section 001 RoData XUG$CLOSE_DCBS_COMMON

  ****  Scalars and arrays  ****
OctLoc.c.b A Datatyp(siz) R M Lvl/name                 OctLoc.c.b A Datatyp(siz) R M Lvl/name

     0-0-0/d STRC(1080)  r     1 FPT_CLOSE_C

  ****  Auto variables  ****

  ****  Scalars and arrays  ****
OctLoc.c.b A Datatyp(siz) R M Lvl/name                 OctLoc.c.b A Datatyp(siz) R M Lvl/name

     3-0-0/w PTR         r     1 @GETCMD                   42-0-0/b BIT         r     1 CLOSEALL
     4-0-0/d STRC(1080)  r     1 FPT_CLOSE                 *0-0-0/d STRC(1512)  r     1 GETCMD

  ****  SYMREF variables  ****

  ****  Scalars and arrays  ****
OctLoc.c.b A Datatyp(siz) R M Lvl/name                 OctLoc.c.b A Datatyp(siz) R M Lvl/name

     0-0-0/w PTR         r     1 B$ROS$

  ****  BASED and DCB variables  ****

  ****  Scalars and arrays  ****
OctLoc.c.b A Datatyp(siz) R M Lvl/name                 OctLoc.c.b A Datatyp(siz) R M Lvl/name

     0-0-0/d STRC(3024)  r     1 B$ROSEG                    0-0-0/d ASTR(3528)  r     1 F$DCB


   Procedure XUG$CLOSE_DCBS_COMMON requires 61 words for executable code.
   Procedure XUG$CLOSE_DCBS_COMMON requires 38 words of local(AUTO) storage.
PL6.E3A0      #013=XUG$CLOSE_DCBS_COMMON File=XUG$COMMON.:E05TSI                 WED 07/30/97 09:27 Page:655
          *** CROSS REFERENCE LISTING ***
**     DENOTES     IDENTIFIER DEFINITION
<<                 IDENTIFIER'S VALUE SET
>>                 IDENTIFIER'S VALUE USED
<>                 IDENTIFIER SET AND/OR USED
--                 IDENTIFIER REFERENCED
PL6.E3A0      #013=XUG$CLOSE_DCBS_COMMON File=XUG$COMMON.:E05TSI                 WED 07/30/97 09:27 Page:656
          MINI XREF LISTING

B$ROS$
      9700**DCL      9774>>DOINDEX
B$ROSEG.NUMDCBS
      9650**DCL      9774>>DOINDEX
CLOSEALL
      9758**DCL      9768<<ASSIGN   9772<<ASSIGN   9789>>IF
DONE
      9794**LABEL    9791--GOTO
DO_CLOSE
      9776**LABEL    9769--GOTO
F$DCB.ACTPOS
      9734**DCL      9734--REDEF
F$DCB.ARS#
      9708**DCL      9708--REDEF
F$DCB.ATTR
      9727**DCL      9728--REDEF
F$DCB.BORROW
      9742**DCL      9742--REDEF    9742--REDEF    9742--REDEF
F$DCB.DCBNAME.L
      9756**DCL      9756--IMP-SIZ
F$DCB.EOMCHAR#
      9712**DCL      9712--REDEF
F$DCB.FCD#
      9721**DCL      9777>>IF
F$DCB.FLDID
      9737**DCL      9737--REDEF
F$DCB.FORM$
      9731**DCL      9731--REDEF
F$DCB.FSECT
      9747**DCL      9747--REDEF
F$DCB.FSN#
      9724**DCL      9724--REDEF    9724--REDEF    9725--REDEF
PL6.E3A0      #013=XUG$CLOSE_DCBS_COMMON File=XUG$COMMON.:E05TSI                 WED 07/30/97 09:27 Page:657
F$DCB.HEADER$
      9730**DCL      9730--REDEF
F$DCB.IXTNSIZE#
      9728**DCL      9728--REDEF
F$DCB.LASTSTA$
      9717**DCL      9717--REDEF
F$DCB.LVL
      9743**DCL      9743--REDEF
F$DCB.NAME#.C
      9718**DCL      9718--REDEF
F$DCB.NOEOF
      9740**DCL      9740--REDEF
F$DCB.NRECS#
      9729**DCL      9729--REDEF
F$DCB.NRECX
      9748**DCL      9748--REDEF
F$DCB.OHDR
      9740**DCL      9740--REDEF
F$DCB.ORG#
      9723**DCL      9723--REDEF    9782>>IF
F$DCB.PRECNO
      9746**DCL      9746--REDEF
F$DCB.RCSZ
      9752**DCL      9752--REDEF
F$DCB.RES#
      9719**DCL      9719--REDEF
F$DCB.SETX
      9731**DCL      9731--REDEF
F$DCB.TAB$
      9731**DCL      9731--REDEF
F$DCB.TDA
      9745**DCL      9746--REDEF
F$DCB.WSN#
      9719**DCL      9719--REDEF
FPT_CLOSE
      9618**DCL      9762<<ASSIGN   9787<>CALL
PL6.E3A0      #013=XUG$CLOSE_DCBS_COMMON File=XUG$COMMON.:E05TSI                 WED 07/30/97 09:27 Page:658
FPT_CLOSE.SN_
      9618**DCL      9618--REDEF
FPT_CLOSE.UTL_
      9619**DCL      9619--REDEF
FPT_CLOSE.V
      9623**DCL      9763--ASSIGN
FPT_CLOSE.V.DCB#
      9624**DCL      9767<<ASSIGN   9774<<DOINDEX  9776--IF       9777--IF       9782--IF
FPT_CLOSE.V.DISP#
      9627**DCL      9780<<ASSIGN   9784<<ASSIGN   9786<<ASSIGN
FPT_CLOSE.V.EXPIRE#
      9633**DCL      9633--REDEF
FPT_CLOSE.V.TYPE#
      9631**DCL      9631--REDEF
FPT_CLOSE.V.XTNSIZE#
      9628**DCL      9628--REDEF    9630--REDEF
FPT_CLOSE.V_
      9618**DCL      9763<<ASSIGN
FPT_CLOSE_C
      6130**DCL      9762>>ASSIGN
FPT_CLOSE_C.SN_
      6130**DCL      6130--REDEF
FPT_CLOSE_C.UTL_
      6131**DCL      6131--REDEF
FPT_CLOSE_C.V
      6135**DCL      6130--DCLINIT
FPT_CLOSE_C.V.EXPIRE#
      6145**DCL      6145--REDEF
FPT_CLOSE_C.V.TYPE#
      6143**DCL      6143--REDEF
FPT_CLOSE_C.V.XTNSIZE#
      6140**DCL      6140--REDEF    6142--REDEF
GETCMD
      9269**DCL         6--PROC
GETCMD.DCB_PARAM#
      9449**DCL      9764>>IF       9767>>ASSIGN
PL6.E3A0      #013=XUG$CLOSE_DCBS_COMMON File=XUG$COMMON.:E05TSI                 WED 07/30/97 09:27 Page:659
GETCMD.DISP#
      9460**DCL      9778>>IF       9780>>ASSIGN
GETCMD.OUT$
      9274**DCL      9280--REDEF
M$CLOSE
      5495**DCL-ENT  9787--CALL
NXT_DCB
      9792**LABEL    9787--CALLALT

PL6.E3A0      #014=XUG$ERRCNVRT_COMMON File=XUG$COMMON.:E05TSI                   WED 07/30/97 09:27 Page:660
     3390        1        /*T***********************************************************/
     3391        2        /*T*                                                         */
     3392        3        /*T* Copyright (c) Bull HN Information Systems Inc., 1997    */
     3393        4        /*T*                                                         */
     3394        5        /*T***********************************************************/
     3395        6        /*P*  NAME:       XUG$ERRCNVRT_COMMON
     3396        7              PURPOSE:    Convert LCP-6 error code to CP-6 equivalent
     3397        8        */
     3398        9
     3399       10        XUG$ERRCNVRT_COMMON: PROC (LCP6_ERR, CP6_ERR);
     3400       11        /*X* DMC,PLM=4,IND=4,CTI=2,DTI=0,ENI=0,ECI=0,CSI=0,MCI,DCI=4 */
     3401       12
     3402       13    1   DCL 1 LCP6_ERR ALIGNED,
     3403       14    1         2 F1,
     3404       15    1           3 * BIT (1),
     3405       16    1           3 PART1 BIT (5),
     3406       17    1         2 F2,
     3407       18    1           3 PART1 BIT (3),
     3408       19    1           3 * BIT (1),
     3409       20    1           3 PART2 BIT (2),
     3410       21    1         2 MID BIT (5),
     3411       22    1         2 M BIT (1),
     3412       23    1         2 * BIT (1),
     3413       24    1         2 ERR#,
     3414       25    1           3 PART1 BIT (8),
     3415       26    1           3 * BIT (1),
     3416       27    1           3 PART2 BIT (5),
     3417       28    1         2 SEV BIT (3);
     3418       29
     3419       30    1   DCL 1 CP6_ERR ALIGNED,
     3420       31    1         2 F1,
     3421       32    1           3 * BIT (1),
     3422       33    1           3 PART1 BIT (5),
     3423       34    1         2 F2,
     3424       35    1           3 * BIT (1),
     3425       36    1           3 PART1 BIT (3),
     3426       37    1           3 PART2 BIT (2),
PL6.E3A0      #014=XUG$ERRCNVRT_COMMON File=XUG$COMMON.:E05TSI                   WED 07/30/97 09:27 Page:661
     3427       38    1         2 MID,
     3428       39    1           3 * BIT (1),
     3429       40    1           3 PART1 BIT (5),
     3430       41    1         2 M BIT (1),
     3431       42    1         2 ERR#,
     3432       43    1           3 * BIT (1),
     3433       44    1           3 PART1 BIT (8),
     3434       45    1           3 PART2 BIT (5),
     3435       46    1         2 SEV BIT (3);
     3436       47
     3437       48    1       CP6_ERR = '0'B;
     3438       49
     3439       50    1       CP6_ERR.F1.PART1 = LCP6_ERR.F1.PART1;
     3440       51    1       CP6_ERR.F2.PART1 = LCP6_ERR.F2.PART1;
     3441       52    1       CP6_ERR.F2.PART2 = LCP6_ERR.F2.PART2;
     3442       53    1       CP6_ERR.MID.PART1 = LCP6_ERR.MID;
     3443       54    1       CP6_ERR.M    = LCP6_ERR.M;
     3444       55    1       CP6_ERR.ERR#.PART1 = LCP6_ERR.ERR#.PART1;
     3445       56    1       CP6_ERR.ERR#.PART2 = LCP6_ERR.ERR#.PART2;
     3446       57    1       CP6_ERR.SEV  = LCP6_ERR.SEV;
     3447       58
     3448       59    1       RETURN;
     3449       60
     3450       61    1   END XUG$ERRCNVRT_COMMON;
     3451       62        %EOD;

PL6.E3A0      #014=XUG$ERRCNVRT_COMMON File=XUG$COMMON.:E05TSI                   WED 07/30/97 09:27 Page:662
      No diagnostics issued in procedure XUG$ERRCNVRT_COMMON.

   Procedure XUG$ERRCNVRT_COMMON requires 42 words for executable code.
   Procedure XUG$ERRCNVRT_COMMON requires 6 words of local(AUTO) storage.

PL6.E3A0      #014=XUG$ERRCNVRT_COMMON File=XUG$COMMON.:E05TSI                   WED 07/30/97 09:27 Page:663

 Object Unit name= XUG$ERRCNVRT_COMMON                        File name= XUG$COMMON.:E05TOU
 UTS= JUL 30 '97 09:27:57.04 WED                              Compiler= PL-6/E31         Sev=      00
 SharedLib= :SHARED_SYSTEM                                    Alt SharedLib=


    ****  Control sections  ****

 Sect   Type Bound  Init  Size OctSiz  Section name(segment info)
    0   Proc  even  none    42     52  XUG$ERRCNVRT_COMMON

    ****  Entry defs  ****

                              Check   Calling
                             calling  sequence
  Sect OctLoc Primary Altret sequence   type   Parms  Name
     0      0   yes            yes      Std        2  XUG$ERRCNVRT_COMMON

  ****  Entry refs  ****

         Check        Calling
        calling       sequence
Altret sequence SRef   type   Args  Name
                       nStd      0 X66_AUTO_2
                       nStd      0 X66_ARET
PL6.E3A0      #014=XUG$ERRCNVRT_COMMON File=XUG$COMMON.:E05TSI                   WED 07/30/97 09:27 Page:664


     3390        1        /*T***********************************************************/
     3391        2        /*T*                                                         */
     3392        3        /*T* Copyright (c) Bull HN Information Systems Inc., 1997    */
     3393        4        /*T*                                                         */
     3394        5        /*T***********************************************************/
     3395        6        /*P*  NAME:       XUG$ERRCNVRT_COMMON
     3396        7              PURPOSE:    Convert LCP-6 error code to CP-6 equivalent
     3397        8        */
     3398        9
     3399       10        XUG$ERRCNVRT_COMMON: PROC (LCP6_ERR, CP6_ERR);

     10  0 000000   000000 700200 xent  XUG$ERRCNVR* TSX0  ! X66_AUTO_2
         0 000001   000006 000002                    ZERO    6,2

     3400       11        /*X* DMC,PLM=4,IND=4,CTI=2,DTI=0,ENI=0,ECI=0,CSI=0,MCI,DCI=4 */
     3401       12
     3402       13    1   DCL 1 LCP6_ERR ALIGNED,
     3403       14    1         2 F1,
     3404       15    1           3 * BIT (1),
     3405       16    1           3 PART1 BIT (5),
     3406       17    1         2 F2,
     3407       18    1           3 PART1 BIT (3),
     3408       19    1           3 * BIT (1),
     3409       20    1           3 PART2 BIT (2),
     3410       21    1         2 MID BIT (5),
     3411       22    1         2 M BIT (1),
     3412       23    1         2 * BIT (1),
     3413       24    1         2 ERR#,
     3414       25    1           3 PART1 BIT (8),
     3415       26    1           3 * BIT (1),
     3416       27    1           3 PART2 BIT (5),
     3417       28    1         2 SEV BIT (3);
     3418       29
     3419       30    1   DCL 1 CP6_ERR ALIGNED,
     3420       31    1         2 F1,
     3421       32    1           3 * BIT (1),
PL6.E3A0      #014=XUG$ERRCNVRT_COMMON File=XUG$COMMON.:E05TSI                   WED 07/30/97 09:27 Page:665
     3422       33    1           3 PART1 BIT (5),
     3423       34    1         2 F2,
     3424       35    1           3 * BIT (1),
     3425       36    1           3 PART1 BIT (3),
     3426       37    1           3 PART2 BIT (2),
     3427       38    1         2 MID,
     3428       39    1           3 * BIT (1),
     3429       40    1           3 PART1 BIT (5),
     3430       41    1         2 M BIT (1),
     3431       42    1         2 ERR#,
     3432       43    1           3 * BIT (1),
     3433       44    1           3 PART1 BIT (8),
     3434       45    1           3 PART2 BIT (5),
     3435       46    1         2 SEV BIT (3);
     3436       47
     3437       48    1       CP6_ERR = '0'B;

     48  0 000002   200004 470500                    LDP0    @CP6_ERR,,AUTO
         0 000003   000000 450100                    STZ     0,,PR0

     3438       49
     3439       50    1       CP6_ERR.F1.PART1 = LCP6_ERR.F1.PART1;

     50  0 000004   200003 471500                    LDP1    @LCP6_ERR,,AUTO
         0 000005   100000 236100                    LDQ     0,,PR1
         0 000006   000000 676100                    ERQ     0,,PR0
         0 000007   370000 376003                    ANQ     126976,DU
         0 000010   000000 656100                    ERSQ    0,,PR0

     3440       51    1       CP6_ERR.F2.PART1 = LCP6_ERR.F2.PART1;

     51  0 000011   100000 236100                    LDQ     0,,PR1
         0 000012   000001 772000                    QRL     1
         0 000013   000000 676100                    ERQ     0,,PR0
         0 000014   003400 376003                    ANQ     1792,DU
         0 000015   000000 656100                    ERSQ    0,,PR0

PL6.E3A0      #014=XUG$ERRCNVRT_COMMON File=XUG$COMMON.:E05TSI                   WED 07/30/97 09:27 Page:666
     3441       52    1       CP6_ERR.F2.PART2 = LCP6_ERR.F2.PART2;

     52  0 000016   100000 236100                    LDQ     0,,PR1
         0 000017   000000 676100                    ERQ     0,,PR0
         0 000020   000300 376003                    ANQ     192,DU
         0 000021   000000 656100                    ERSQ    0,,PR0

     3442       53    1       CP6_ERR.MID.PART1 = LCP6_ERR.MID;

     53  0 000022   100000 236100                    LDQ     0,,PR1
         0 000023   000001 772000                    QRL     1
         0 000024   000000 676100                    ERQ     0,,PR0
         0 000025   000037 376003                    ANQ     31,DU
         0 000026   000000 656100                    ERSQ    0,,PR0

     3443       54    1       CP6_ERR.M    = LCP6_ERR.M;

     54  0 000027   100000 236100                    LDQ     0,,PR1
         0 000030   000001 772000                    QRL     1
         0 000031   000000 676100                    ERQ     0,,PR0
         0 000032   400000 376007                    ANQ     -131072,DL
         0 000033   000000 656100                    ERSQ    0,,PR0

     3444       55    1       CP6_ERR.ERR#.PART1 = LCP6_ERR.ERR#.PART1;

     55  0 000034   100000 236100                    LDQ     0,,PR1
         0 000035   000001 772000                    QRL     1
         0 000036   000000 676100                    ERQ     0,,PR0
         0 000037   177400 376007                    ANQ     65280,DL
         0 000040   000000 656100                    ERSQ    0,,PR0

     3445       56    1       CP6_ERR.ERR#.PART2 = LCP6_ERR.ERR#.PART2;

     56  0 000041   100000 236100                    LDQ     0,,PR1
         0 000042   000000 676100                    ERQ     0,,PR0
         0 000043   000370 376007                    ANQ     248,DL
         0 000044   000000 656100                    ERSQ    0,,PR0
PL6.E3A0      #014=XUG$ERRCNVRT_COMMON File=XUG$COMMON.:E05TSI                   WED 07/30/97 09:27 Page:667

     3446       57    1       CP6_ERR.SEV  = LCP6_ERR.SEV;

     57  0 000045   100000 236100                    LDQ     0,,PR1
         0 000046   000000 676100                    ERQ     0,,PR0
         0 000047   000007 376007                    ANQ     7,DL
         0 000050   000000 656100                    ERSQ    0,,PR0

     3447       58
     3448       59    1       RETURN;

     59  0 000051   000000 702200 xent               TSX2  ! X66_ARET
     3449       60
     3450       61    1   END XUG$ERRCNVRT_COMMON;
     3451       62        %EOD;

PL6.E3A0      #014=XUG$ERRCNVRT_COMMON File=XUG$COMMON.:E05TSI                   WED 07/30/97 09:27 Page:668
      No diagnostics issued in procedure XUG$ERRCNVRT_COMMON.
PL6.E3A0      #014=XUG$ERRCNVRT_COMMON File=XUG$COMMON.:E05TSI                   WED 07/30/97 09:27 Page:669

 **** Variables and constants ****

  ****  Auto variables  ****

  ****  Scalars and arrays  ****
OctLoc.c.b A Datatyp(siz) R M Lvl/name                 OctLoc.c.b A Datatyp(siz) R M Lvl/name

     4-0-0/w PTR         r     1 @CP6_ERR                   3-0-0/w PTR         r     1 @LCP6_ERR
    *0-0-0/w STRC        r     1 CP6_ERR                   *0-0-0/w STRC        r     1 LCP6_ERR


   Procedure XUG$ERRCNVRT_COMMON requires 42 words for executable code.
   Procedure XUG$ERRCNVRT_COMMON requires 6 words of local(AUTO) storage.
PL6.E3A0      #014=XUG$ERRCNVRT_COMMON File=XUG$COMMON.:E05TSI                   WED 07/30/97 09:27 Page:670
          *** CROSS REFERENCE LISTING ***
**     DENOTES     IDENTIFIER DEFINITION
<<                 IDENTIFIER'S VALUE SET
>>                 IDENTIFIER'S VALUE USED
<>                 IDENTIFIER SET AND/OR USED
--                 IDENTIFIER REFERENCED
PL6.E3A0      #014=XUG$ERRCNVRT_COMMON File=XUG$COMMON.:E05TSI                   WED 07/30/97 09:27 Page:671
          MINI XREF LISTING

CP6_ERR
        30**DCL        10--PROC       48<<ASSIGN
CP6_ERR.ERR#.PART1
        44**DCL        55<<ASSIGN
CP6_ERR.ERR#.PART2
        45**DCL        56<<ASSIGN
CP6_ERR.F1.PART1
        33**DCL        50<<ASSIGN
CP6_ERR.F2.PART1
        36**DCL        51<<ASSIGN
CP6_ERR.F2.PART2
        37**DCL        52<<ASSIGN
CP6_ERR.M
        41**DCL        54<<ASSIGN
CP6_ERR.MID.PART1
        40**DCL        53<<ASSIGN
CP6_ERR.SEV
        46**DCL        57<<ASSIGN
LCP6_ERR
        13**DCL        10--PROC
LCP6_ERR.ERR#.PART1
        25**DCL        55>>ASSIGN
LCP6_ERR.ERR#.PART2
        27**DCL        56>>ASSIGN
LCP6_ERR.F1.PART1
        16**DCL        50>>ASSIGN
LCP6_ERR.F2.PART1
        18**DCL        51>>ASSIGN
LCP6_ERR.F2.PART2
        20**DCL        52>>ASSIGN
LCP6_ERR.M
        22**DCL        54>>ASSIGN
PL6.E3A0      #014=XUG$ERRCNVRT_COMMON File=XUG$COMMON.:E05TSI                   WED 07/30/97 09:27 Page:672
LCP6_ERR.MID
        21**DCL        53>>ASSIGN
LCP6_ERR.SEV
        28**DCL        57>>ASSIGN

PL6.E3A0      #015=XUG$ERRTOLCP6_COMMON File=XUG$COMMON.:E05TSI                  WED 07/30/97 09:28 Page:673
     3452        1        /*T***********************************************************/
     3453        2        /*T*                                                         */
     3454        3        /*T* Copyright (c) Bull HN Information Systems Inc., 1997    */
     3455        4        /*T*                                                         */
     3456        5        /*T***********************************************************/
     3457        6        /*P*  NAME:       XUG$ERRTOLCP6_COMMON
     3458        7              PURPOSE:    Convert CP-6 error code to LCP-6 equivalent
     3459        8        */
     3460        9
     3461       10        XUG$ERRTOLCP6_COMMON: PROC (LCP6_ERR, CP6_ERR);
     3462       11        /*X* DMC,PLM=4,IND=4,CTI=2,DTI=0,ENI=0,ECI=0,CSI=0,MCI,DCI=4 */
     3463       12
     3464       13    1   DCL 1 LCP6_ERR ALIGNED,
     3465       14    1         2 F1,
     3466       15    1           3 * BIT (1),
     3467       16    1           3 PART1 BIT (5),
     3468       17    1         2 F2,
     3469       18    1           3 PART1 BIT (3),
     3470       19    1           3 * BIT (1),
     3471       20    1           3 PART2 BIT (2),
     3472       21    1         2 MID BIT (5),
     3473       22    1         2 M BIT (1),
     3474       23    1         2 * BIT (1),
     3475       24    1         2 ERR#,
     3476       25    1           3 PART1 BIT (8),
     3477       26    1           3 * BIT (1),
     3478       27    1           3 PART2 BIT (5),
     3479       28    1         2 SEV BIT (3);
     3480       29
     3481       30    1   DCL 1 CP6_ERR ALIGNED,
     3482       31    1         2 F1,
     3483       32    1           3 * BIT (1),
     3484       33    1           3 PART1 BIT (5),
     3485       34    1         2 F2,
     3486       35    1           3 * BIT (1),
     3487       36    1           3 PART1 BIT (3),
     3488       37    1           3 PART2 BIT (2),
PL6.E3A0      #015=XUG$ERRTOLCP6_COMMON File=XUG$COMMON.:E05TSI                  WED 07/30/97 09:28 Page:674
     3489       38    1         2 MID,
     3490       39    1           3 * BIT (1),
     3491       40    1           3 PART1 BIT (5),
     3492       41    1         2 M BIT (1),
     3493       42    1         2 ERR#,
     3494       43    1           3 * BIT (1),
     3495       44    1           3 PART1 BIT (8),
     3496       45    1           3 PART2 BIT (5),
     3497       46    1         2 SEV BIT (3);
     3498       47
     3499       48    1       LCP6_ERR = '0'B;
     3500       49
     3501       50    1       LCP6_ERR.F1.PART1 = CP6_ERR.F1.PART1;
     3502       51    1       LCP6_ERR.F2.PART1 = CP6_ERR.F2.PART1;
     3503       52    1       LCP6_ERR.F2.PART2 = CP6_ERR.F2.PART2;
     3504       53    1       LCP6_ERR.MID  = CP6_ERR.MID.PART1;
     3505       54    1       LCP6_ERR.M    = CP6_ERR.M;
     3506       55    1       LCP6_ERR.ERR#.PART1 = CP6_ERR.ERR#.PART1;
     3507       56    1       LCP6_ERR.ERR#.PART2 = CP6_ERR.ERR#.PART2;
     3508       57    1       LCP6_ERR.SEV  = CP6_ERR.SEV;
     3509       58
     3510       59    1       RETURN;
     3511       60
     3512       61    1   END XUG$ERRTOLCP6_COMMON;
     3513       62        %EOD;

PL6.E3A0      #015=XUG$ERRTOLCP6_COMMON File=XUG$COMMON.:E05TSI                  WED 07/30/97 09:28 Page:675
      No diagnostics issued in procedure XUG$ERRTOLCP6_COMMON.

   Procedure XUG$ERRTOLCP6_COMMON requires 42 words for executable code.
   Procedure XUG$ERRTOLCP6_COMMON requires 6 words of local(AUTO) storage.

PL6.E3A0      #015=XUG$ERRTOLCP6_COMMON File=XUG$COMMON.:E05TSI                  WED 07/30/97 09:28 Page:676

 Object Unit name= XUG$ERRTOLCP6_COMMON                       File name= XUG$COMMON.:E05TOU
 UTS= JUL 30 '97 09:28:00.60 WED                              Compiler= PL-6/E31         Sev=      00
 SharedLib= :SHARED_SYSTEM                                    Alt SharedLib=


    ****  Control sections  ****

 Sect   Type Bound  Init  Size OctSiz  Section name(segment info)
    0   Proc  even  none    42     52  XUG$ERRTOLCP6_COMMON

    ****  Entry defs  ****

                              Check   Calling
                             calling  sequence
  Sect OctLoc Primary Altret sequence   type   Parms  Name
     0      0   yes            yes      Std        2  XUG$ERRTOLCP6_COMMON

  ****  Entry refs  ****

         Check        Calling
        calling       sequence
Altret sequence SRef   type   Args  Name
                       nStd      0 X66_AUTO_2
                       nStd      0 X66_ARET
PL6.E3A0      #015=XUG$ERRTOLCP6_COMMON File=XUG$COMMON.:E05TSI                  WED 07/30/97 09:28 Page:677


     3452        1        /*T***********************************************************/
     3453        2        /*T*                                                         */
     3454        3        /*T* Copyright (c) Bull HN Information Systems Inc., 1997    */
     3455        4        /*T*                                                         */
     3456        5        /*T***********************************************************/
     3457        6        /*P*  NAME:       XUG$ERRTOLCP6_COMMON
     3458        7              PURPOSE:    Convert CP-6 error code to LCP-6 equivalent
     3459        8        */
     3460        9
     3461       10        XUG$ERRTOLCP6_COMMON: PROC (LCP6_ERR, CP6_ERR);

     10  0 000000   000000 700200 xent  XUG$ERRTOLC* TSX0  ! X66_AUTO_2
         0 000001   000006 000002                    ZERO    6,2

     3462       11        /*X* DMC,PLM=4,IND=4,CTI=2,DTI=0,ENI=0,ECI=0,CSI=0,MCI,DCI=4 */
     3463       12
     3464       13    1   DCL 1 LCP6_ERR ALIGNED,
     3465       14    1         2 F1,
     3466       15    1           3 * BIT (1),
     3467       16    1           3 PART1 BIT (5),
     3468       17    1         2 F2,
     3469       18    1           3 PART1 BIT (3),
     3470       19    1           3 * BIT (1),
     3471       20    1           3 PART2 BIT (2),
     3472       21    1         2 MID BIT (5),
     3473       22    1         2 M BIT (1),
     3474       23    1         2 * BIT (1),
     3475       24    1         2 ERR#,
     3476       25    1           3 PART1 BIT (8),
     3477       26    1           3 * BIT (1),
     3478       27    1           3 PART2 BIT (5),
     3479       28    1         2 SEV BIT (3);
     3480       29
     3481       30    1   DCL 1 CP6_ERR ALIGNED,
     3482       31    1         2 F1,
     3483       32    1           3 * BIT (1),
PL6.E3A0      #015=XUG$ERRTOLCP6_COMMON File=XUG$COMMON.:E05TSI                  WED 07/30/97 09:28 Page:678
     3484       33    1           3 PART1 BIT (5),
     3485       34    1         2 F2,
     3486       35    1           3 * BIT (1),
     3487       36    1           3 PART1 BIT (3),
     3488       37    1           3 PART2 BIT (2),
     3489       38    1         2 MID,
     3490       39    1           3 * BIT (1),
     3491       40    1           3 PART1 BIT (5),
     3492       41    1         2 M BIT (1),
     3493       42    1         2 ERR#,
     3494       43    1           3 * BIT (1),
     3495       44    1           3 PART1 BIT (8),
     3496       45    1           3 PART2 BIT (5),
     3497       46    1         2 SEV BIT (3);
     3498       47
     3499       48    1       LCP6_ERR = '0'B;

     48  0 000002   200003 470500                    LDP0    @LCP6_ERR,,AUTO
         0 000003   000000 450100                    STZ     0,,PR0

     3500       49
     3501       50    1       LCP6_ERR.F1.PART1 = CP6_ERR.F1.PART1;

     50  0 000004   200004 471500                    LDP1    @CP6_ERR,,AUTO
         0 000005   100000 236100                    LDQ     0,,PR1
         0 000006   000000 676100                    ERQ     0,,PR0
         0 000007   370000 376003                    ANQ     126976,DU
         0 000010   000000 656100                    ERSQ    0,,PR0

     3502       51    1       LCP6_ERR.F2.PART1 = CP6_ERR.F2.PART1;

     51  0 000011   100000 236100                    LDQ     0,,PR1
         0 000012   000001 736000                    QLS     1
         0 000013   000000 676100                    ERQ     0,,PR0
         0 000014   007000 376003                    ANQ     3584,DU
         0 000015   000000 656100                    ERSQ    0,,PR0

PL6.E3A0      #015=XUG$ERRTOLCP6_COMMON File=XUG$COMMON.:E05TSI                  WED 07/30/97 09:28 Page:679
     3503       52    1       LCP6_ERR.F2.PART2 = CP6_ERR.F2.PART2;

     52  0 000016   100000 236100                    LDQ     0,,PR1
         0 000017   000000 676100                    ERQ     0,,PR0
         0 000020   000300 376003                    ANQ     192,DU
         0 000021   000000 656100                    ERSQ    0,,PR0

     3504       53    1       LCP6_ERR.MID  = CP6_ERR.MID.PART1;

     53  0 000022   100000 236100                    LDQ     0,,PR1
         0 000023   000001 736000                    QLS     1
         0 000024   000000 676100                    ERQ     0,,PR0
         0 000025   000076 376003                    ANQ     62,DU
         0 000026   000000 656100                    ERSQ    0,,PR0

     3505       54    1       LCP6_ERR.M    = CP6_ERR.M;

     54  0 000027   100000 236100                    LDQ     0,,PR1
         0 000030   000001 736000                    QLS     1
         0 000031   000000 676100                    ERQ     0,,PR0
         0 000032   000001 376003                    ANQ     1,DU
         0 000033   000000 656100                    ERSQ    0,,PR0

     3506       55    1       LCP6_ERR.ERR#.PART1 = CP6_ERR.ERR#.PART1;

     55  0 000034   100000 236100                    LDQ     0,,PR1
         0 000035   000001 736000                    QLS     1
         0 000036   000000 676100                    ERQ     0,,PR0
         0 000037   377000 376007                    ANQ     130560,DL
         0 000040   000000 656100                    ERSQ    0,,PR0

     3507       56    1       LCP6_ERR.ERR#.PART2 = CP6_ERR.ERR#.PART2;

     56  0 000041   100000 236100                    LDQ     0,,PR1
         0 000042   000000 676100                    ERQ     0,,PR0
         0 000043   000370 376007                    ANQ     248,DL
         0 000044   000000 656100                    ERSQ    0,,PR0
PL6.E3A0      #015=XUG$ERRTOLCP6_COMMON File=XUG$COMMON.:E05TSI                  WED 07/30/97 09:28 Page:680

     3508       57    1       LCP6_ERR.SEV  = CP6_ERR.SEV;

     57  0 000045   100000 236100                    LDQ     0,,PR1
         0 000046   000000 676100                    ERQ     0,,PR0
         0 000047   000007 376007                    ANQ     7,DL
         0 000050   000000 656100                    ERSQ    0,,PR0

     3509       58
     3510       59    1       RETURN;

     59  0 000051   000000 702200 xent               TSX2  ! X66_ARET
     3511       60
     3512       61    1   END XUG$ERRTOLCP6_COMMON;
     3513       62        %EOD;

PL6.E3A0      #015=XUG$ERRTOLCP6_COMMON File=XUG$COMMON.:E05TSI                  WED 07/30/97 09:28 Page:681
      No diagnostics issued in procedure XUG$ERRTOLCP6_COMMON.
PL6.E3A0      #015=XUG$ERRTOLCP6_COMMON File=XUG$COMMON.:E05TSI                  WED 07/30/97 09:28 Page:682

 **** Variables and constants ****

  ****  Auto variables  ****

  ****  Scalars and arrays  ****
OctLoc.c.b A Datatyp(siz) R M Lvl/name                 OctLoc.c.b A Datatyp(siz) R M Lvl/name

     4-0-0/w PTR         r     1 @CP6_ERR                   3-0-0/w PTR         r     1 @LCP6_ERR
    *0-0-0/w STRC        r     1 CP6_ERR                   *0-0-0/w STRC        r     1 LCP6_ERR


   Procedure XUG$ERRTOLCP6_COMMON requires 42 words for executable code.
   Procedure XUG$ERRTOLCP6_COMMON requires 6 words of local(AUTO) storage.
PL6.E3A0      #015=XUG$ERRTOLCP6_COMMON File=XUG$COMMON.:E05TSI                  WED 07/30/97 09:28 Page:683
          *** CROSS REFERENCE LISTING ***
**     DENOTES     IDENTIFIER DEFINITION
<<                 IDENTIFIER'S VALUE SET
>>                 IDENTIFIER'S VALUE USED
<>                 IDENTIFIER SET AND/OR USED
--                 IDENTIFIER REFERENCED
PL6.E3A0      #015=XUG$ERRTOLCP6_COMMON File=XUG$COMMON.:E05TSI                  WED 07/30/97 09:28 Page:684
          MINI XREF LISTING

CP6_ERR
        30**DCL        10--PROC
CP6_ERR.ERR#.PART1
        44**DCL        55>>ASSIGN
CP6_ERR.ERR#.PART2
        45**DCL        56>>ASSIGN
CP6_ERR.F1.PART1
        33**DCL        50>>ASSIGN
CP6_ERR.F2.PART1
        36**DCL        51>>ASSIGN
CP6_ERR.F2.PART2
        37**DCL        52>>ASSIGN
CP6_ERR.M
        41**DCL        54>>ASSIGN
CP6_ERR.MID.PART1
        40**DCL        53>>ASSIGN
CP6_ERR.SEV
        46**DCL        57>>ASSIGN
LCP6_ERR
        13**DCL        10--PROC       48<<ASSIGN
LCP6_ERR.ERR#.PART1
        25**DCL        55<<ASSIGN
LCP6_ERR.ERR#.PART2
        27**DCL        56<<ASSIGN
LCP6_ERR.F1.PART1
        16**DCL        50<<ASSIGN
LCP6_ERR.F2.PART1
        18**DCL        51<<ASSIGN
LCP6_ERR.F2.PART2
        20**DCL        52<<ASSIGN
LCP6_ERR.M
        22**DCL        54<<ASSIGN
PL6.E3A0      #015=XUG$ERRTOLCP6_COMMON File=XUG$COMMON.:E05TSI                  WED 07/30/97 09:28 Page:685
LCP6_ERR.MID
        21**DCL        53<<ASSIGN
LCP6_ERR.SEV
        28**DCL        57<<ASSIGN

