PL6.E3A0      #016=XUG$BUILTIN_COMMON File=XUG$COMMON.:E05TSI                    WED 07/30/97 09:28 Page:686
     3514        1        /*T***********************************************************/
     3515        2        /*T*                                                         */
     3516        3        /*T* Copyright (c) Bull HN Information Systems Inc., 1997    */
     3517        4        /*T*                                                         */
     3518        5        /*T***********************************************************/
     3519        6        /* XUG$BUILTIN_COMMON   Routine to handle the BUILTIN commands.              */
     3520        7        XUG$BUILTIN_COMMON: PROC(GETCMD) ALTRET;
     3521        8        /*X* DMC,PLM=4,IND=4,CTI=2,DTI=0,ENI=0,ECI=0,CSI=0,MCI,DCI=4 */
     3522        9
     3523       10    1   DCL 1 ERR AUTO,
     3524       11    1         2 FCG BIT(12),
     3525       12    1         2 MID BIT(6),
     3526       13    1         2 MON BIT(1),
     3527       14    1         2 CODE UBIN(14) UNAL,
     3528       15    1         2 SEV UBIN(3) UNAL;
     3529       16
     3530       17        %INCLUDE XU_MACRO_C ;
     3531     3123        %XUG_GETCMD (NAME=GETCMD, STCLASS=PARAM) ;
     3532     3461        %EJECT ;
PL6.E3A0      #016=XUG$BUILTIN_COMMON File=XUG$COMMON.:E05TSI                    WED 07/30/97 09:28 Page:687
     3533     3462        %INCLUDE XU_SUBS_C ;
     3534     3554        %INCLUDE XU_PERR_C ;
     3535     3745        %INCLUDE XUH_MACRO_C ;
     3536     3829        %INCLUDE XT_MACRO_M;
     3537     4155        %INCLUDE XT_PERR_E ;
     3538     4216        %INCLUDE CP_6 ;
     3539     9775        %INCLUDE CP_6_SUBS ;
     3540    10315        %INCLUDE B$JIT ;
     3541    10918
     3542    10919    1   DCL XUG$MOREMSG_COMMON ENTRY(1) ALTRET ;
     3543    10920    1   DCL XUG$ALLMSG_COMMON ENTRY(1) ALTRET ;
     3544    10921    1   DCL XUG$HELP_COMMON ENTRY(1) ALTRET ;
     3545    10922    1   DCL XUG$ERRMSG_COMMON ENTRY(1) ALTRET ;
     3546    10923    1   DCL XUG$FINDDCB_COMMON ENTRY(2) ALTRET ;
     3547    10924    1   DCL XUG$OPENOUT_COMMON ENTRY (1) ALTRET;
     3548    10925    1   DCL XUG$SINPUT ENTRY(1) ALTRET;
     3549    10926    1   DCL XUG$ADAPTMEM ENTRY(1) ALTRET;
     3550    10927
     3551    10928    1   DCL XUG$ PTR ;
     3552    10929    1   DCL M$LM DCB ;
     3553    10930        %XUG_PARAMS ;
     3554    11374        %XT_PARAM (NAME=XT_PARAM, STCLASS="BASED(XT$)");
     3555    11687        %XT_PARAM (NAME=XT_PARAM_C, STCLASS=CONSTANT,GETMEM=XUG$ADAPTMEM);
     3556    12000    1   DCL B$TCB$ PTR SYMREF ;
     3557    12001    1   DCL B$JIT$ PTR SYMREF ;
     3558    12002        %P_PCB (NAME=P$PCB, STCLASS=BASED) ;
     3559    12201        %PARSE$OUT (NAME=P$B) ;
     3560    12246        %PARSE$SYM (NAME=P$S) ;
     3561    12284        %B$TCB (STCLASS="BASED(B$TCB$)") ;
     3562    12287        %B$EXCFR ;
     3563    12305        %B$ALT ;
     3564    12313        %EJECT ;
PL6.E3A0      #016=XUG$BUILTIN_COMMON File=XUG$COMMON.:E05TSI                    WED 07/30/97 09:28 Page:688
     3565    12314        %MACRO TEXTC (NAME=NAME,T#='',STCLASS=CONSTANT);
     3566    12315        DCL 1 NAME STCLASS,
     3567    12316              2 L UBIN BYTE UNAL INIT(SIZEC(T#)),
     3568    12317              2 C CHAR(0) INIT(T#);
     3569    12318        %MEND;
     3570    12319    1   DCL 1 NULL_HELP_TOPIC CONSTANT,
     3571    12320    1         2 LEN UBIN BYTE CALIGNED INIT (0);
     3572    12321    1   DCL CODE SBIN WORD ;
     3573    12322    1   DCL ASN UBIN (9) ;                      /* Fid assignment type */
     3574    12323    1   DCL OUTBUFF CHAR(80) ;
     3575    12324    1   DCL TBUFF CHAR(8) ;
     3576    12325    1   DCL TEMPBUFF CHAR(56) ;
     3577    12326    1   DCL BLK$ PTR ;
     3578    12327    1   DCL XT$ PTR;
     3579    12328    1   DCL CNT SBIN WORD ;
     3580    12329    1   DCL TSTOR SBIN WORD ;
     3581    12330    1   DCL M$LO# UBIN ;
     3582    12331        %TEXTC (NAME=M$LO, T#='M$LO') ;
     3583    12336        %FPT_EXIT (FPTN=FPT_EXIT_C, STCLASS=CONSTANT) ;
     3584    12351        %FPT_EXIT (FPTN=FPT_EXIT, STCLASS=AUTO) ;
     3585    12366        %FPT_YC (FPTN=FPT_YC_C, STCLASS=CONSTANT, NOERR=YES, LINK=YES) ;
     3586    12383        %FPT_YC (FPTN=FPT_YC, STCLASS=AUTO) ;
     3587    12400        %VLR_YC (FPTN=VLR_YC, STCLASS=AUTO) ;
     3588    12407        %FPT_WRITE (  FPTN = FPT_WRITE_C, WAIT=YES, STCLASS=CONSTANT) ;
     3589    12438        %FPT_WRITE (STCLASS=AUTO) ;
     3590    12469        %FPT_SETFMA(FPTN=FPT_SETFMA, STCLASS=AUTO) ;
     3591    12482        %FPT_SETFMA (FPTN=FPT_SETFMA_C, STCLASS=CONSTANT) ;
     3592    12495        %FPT_FID (FPTN=FPT_FID, STCLASS=AUTO) ;
     3593    12518        %FPT_FID (FPTN=FPT_FID_C, STCLASS=CONSTANT) ;
     3594    12541        %FPT_LDEV (FPTN=FPT_LDEV_C, STCLASS=CONSTANT) ;
     3595    12566        %FPT_LDEV (FPTN=FPT_LDEV, STCLASS=AUTO) ;
     3596    12591        %FPT_TIME (FPTN=FPT_TIME_C, STCLASS=CONSTANT) ;
     3597    12610        %FPT_TIME (FPTN=FPT_TIME, STCLASS=AUTO) ;
     3598    12629        %XUH_PARAM (NAME=XUH$PARAM, STCLASS="BASED(GETCMD.XUH$)") ;
     3599    12690        %VLP_NAME (FPTN=VLP_NAME, LEN=31, STCLASS=AUTO) ;
     3600    12717        %VLP_ACCT (FPTN=VLP_ACCT, STCLASS=AUTO) ;
     3601    12730        %VLP_SN (FPTN=VLP_SN, N=50, STCLASS=AUTO) ;
PL6.E3A0      #016=XUG$BUILTIN_COMMON File=XUG$COMMON.:E05TSI                    WED 07/30/97 09:28 Page:689
     3602    12743        %VLR_FID (FPTN=FID_RESULTS, STCLASS=AUTO) ;
     3603    12762        %VLP_ERRCODE (  FPTN=XUG#BDIRFID, STCLASS=CONSTANT,
     3604    12763                        FCG=XU, MID=G, ERR#=%E$XUG#BDIRFID, SEV=0) ;
     3605    12808        %VLP_ERRCODE (  FPTN=XUG#DOCMD2BIG, STCLASS=CONSTANT,
     3606    12809                        FCG=XU, MID=G, ERR#=%E$XUG#DOCMD2BIG, SEV=0) ;
     3607    12854        %VLP_ERRCODE (  FPTN=XUG#BIG4CHAR, STCLASS=CONSTANT,
     3608    12855                        FCG=XU, MID=G, ERR#=%E$XUG#BIG4CHAR, SEV=0) ;
     3609    12900        %VLP_ERRCODE (  FPTN=XUG#NO_MORE, STCLASS=CONSTANT,
     3610    12901                        FCG=XU, MID=G, ERR#=%E$XUG#NO_MORE, SEV=0) ;
     3611    12946        %VLP_ERRCODE (  FPTN=XUG#NO_ADAPT, STCLASS=CONSTANT,
     3612    12947                        FCG=XU, MID=G, ERR#=%E$XUG#NO_ADAPT, SEV=0);
     3613    12992        %VLP_ERRCODE (  FPTN=XT#CANT_ADAPT, STCLASS=CONSTANT,
     3614    12993                        FCG=XT, ERR#=%E$XT#CANT_ADAPT, SEV=0);
     3615    13038
     3616    13039        %EJECT ;
PL6.E3A0      #016=XUG$BUILTIN_COMMON File=XUG$COMMON.:E05TSI                    WED 07/30/97 09:28 Page:690
     3617    13040    1       XUG$ = GETCMD.WORK$ ;
     3618    13041    1       BLK$ = GETCMD.PCB$ -> P$PCB.OUT$ ;
     3619    13042    1       CODE = BLK$->P$B.CODE ;
     3620    13043    1       IF XUG.PRE_EXEC ~= ENTADDR(NIL)
     3621    13044    1       THEN
     3622    13045    1           CALL XUG.PRE_EXEC (GETCMD, CODE) ALTRET(BUILTIN_ERR) ;
     3623    13046
     3624    13047    2       DO CASE(CODE) ;
     3625    13048
     3626    13049    2       CASE(%XUG_CMD_DIR) ;
     3627    13050    2           CALL DIRECTORY_CMD ALTRET(BUILTIN_ERR) ;
     3628    13051
     3629    13052    2       CASE(%XUG_CMD_DO) ;
     3630    13053    2           CALL DO_CMD ALTRET(ALTRET_FROM_BUILTIN) ;
     3631    13054    2           RETURN;
     3632    13055
     3633    13056    2       CASE(%XUG_CMD_END) ;
     3634    13057    2           CALL END_CMD ;
     3635    13058
     3636    13059    2       CASE(%XUG_CMD_ERASE) ;
     3637    13060    2           CALL ERASE_CMD ALTRET(BUILTIN_ERR) ;
     3638    13061
     3639    13062    2       CASE(%XUG_CMD_NULL) ;
     3640    13063
     3641    13064    2       CASE(%XUG_CMD_HELP, %XUG_CMD_Q1, %XUG_CMD_Q2) ;
     3642    13065    2           CALL HELP_CMD ALTRET(BUILTIN_ERR) ;
     3643    13066
     3644    13067    2       CASE (%XUG_CMD_OUTPUT) ;
     3645    13068    2           CALL OUTPUT_CMD ALTRET (BUILTIN_ERR);
     3646    13069
     3647    13070    2       CASE(%XUG_CMD_PRINT) ;
     3648    13071    2           CALL PRINT_CMD ALTRET(BUILTIN_ERR) ;
     3649    13072
     3650    13073    2       CASE(%XUG_CMD_TIME) ;
     3651    13074    2           CALL TIME_DATE_CMD ALTRET(BUILTIN_ERR) ;
     3652    13075
     3653    13076    2       CASE(%XUG_CMD_ENTER);
PL6.E3A0      #016=XUG$BUILTIN_COMMON File=XUG$COMMON.:E05TSI                    WED 07/30/97 09:28 Page:691
     3654    13077    2           CALL ENTER_CMD ALTRET (ALTRET_FROM_BUILTIN);
     3655    13078    2           RETURN;
     3656    13079
     3657    13080    2       END ;                       /* Do Case */
     3658    13081
     3659    13082    1       IF XUG.POST_EXEC ~= ENTADDR(NIL)
     3660    13083    1       THEN
     3661    13084    1           CALL XUG.POST_EXEC (GETCMD, CODE) ALTRET(ALTRET_FROM_BUILTIN) ;
     3662    13085
     3663    13086    1       RETURN ;
     3664    13087
     3665    13088    1   BUILTIN_ERR:
     3666    13089
     3667    13090    1       IF XUG.POST_EXEC ~= ENTADDR(NIL)
     3668    13091    1       THEN
     3669    13092    1           CALL XUG.POST_EXEC (GETCMD, CODE);
     3670    13093
     3671    13094    1   ALTRET_FROM_BUILTIN:
     3672    13095
     3673    13096    1       ALTRETURN ;
     3674    13097
     3675    13098        %EJECT ;
PL6.E3A0      #016=XUG$BUILTIN_COMMON File=XUG$COMMON.:E05TSI                    WED 07/30/97 09:28 Page:692
     3676    13099    1   DIRECTORY_CMD: PROC ALTRET ;
     3677    13100        /**/
     3678    13101        /*
     3679    13102              ***** No options after command indicates directory info. is to be
     3680    13103                    displayed.
     3681    13104        */
     3682    13105    2       IF BLK$->P$B.NSUBLKS=0
     3683    13106    2       THEN
     3684    13107    3       DO ;
     3685    13108    3           OUTBUFF = '  Directory: ' ;
     3686    13109    3           CNT = 13 ;
     3687    13110    3           CALL INDEX(TSTOR,' ',B$JIT.FPSN) ;
     3688    13111    3           IF TSTOR>0
     3689    13112    3           THEN
     3690    13113    4           DO ;
     3691    13114    4               CALL INSERT(OUTBUFF, CNT, 3+TSTOR, 'DP#', B$JIT.FPSN) ;
     3692    13115    4               CNT = CNT + 3 + TSTOR ;
     3693    13116    4           END ;                     /* Then Do */
     3694    13117        /*
     3695    13118          *****  Insert the account.
     3696    13119        */
     3697    13120    3           CALL CONCAT(TEMPBUFF, '.', B$JIT.FACCN,' ') ;
     3698    13121    3           CALL INDEX(TSTOR,' ',TEMPBUFF) ;
     3699    13122    3           CALL INSERT(OUTBUFF, CNT, ,SUBSTR(TEMPBUFF,0,TSTOR)) ;
     3700    13123    3           CNT = CNT + TSTOR ;
     3701    13124    3           CALL OUTPUT_MESSAGE(CNT) ALTRET(DIR_ERR) ;
     3702    13125    3           RETURN ;
     3703    13126    3       END ;                        /* Then Do */
     3704    13127        /*
     3705    13128           *****  Set or Reset directory information in JIT.
     3706    13129        */
     3707    13130    2       FPT_SETFMA = FPT_SETFMA_C ;
     3708    13131    3       DO CASE(BLK$->P$B.SUBLK$(0)->P$B.CODE) ;
     3709    13132
     3710    13133    3       CASE(%XUG_CMD_DIR_RESET) ;
     3711    13134        /*
     3712    13135          *****   NOTE: No code required since default fpt is what is required.
PL6.E3A0      #016=XUG$BUILTIN_COMMON File=XUG$COMMON.:E05TSI                    WED 07/30/97 09:28 Page:693
     3713    13136        */
     3714    13137    3       CASE(%XUG_CMD_DIR_FID) ;
     3715    13138    3           FPT_FID = FPT_FID_C ;
     3716    13139    3           FPT_FID.V_ = VECTOR(FPT_FID.V) ;
     3717    13140    3           FPT_FID.TEXTFID_=VECTOR(BLK$->P$B.SUBLK$(0)->
     3718    13141    3             P$S.TEXT) ;
     3719    13142    3           FPT_FID.NAME_ = VECTOR(VLP_NAME) ;
     3720    13143    3           FPT_FID.ACCT_ = VECTOR(VLP_ACCT) ;
     3721    13144    3           FPT_FID.PASS_ = VECTOR(VLP_ACCT) ;
     3722    13145    3           FPT_FID.SN_ = VECTOR(VLP_SN) ;
     3723    13146    3           FPT_FID.WSN_ = VECTOR(VLP_ACCT) ;
     3724    13147    3           FPT_FID.ASN_ = VECTOR(ASN) ;
     3725    13148    3           FPT_FID.RES_ = VECTOR(TBUFF) ;
     3726    13149    3           FPT_FID.RESULTS_ = VECTOR(FID_RESULTS) ;
     3727    13150    3           CALL M$FID(FPT_FID) ALTRET(DIR_ERR) ;
     3728    13151        /*
     3729    13152          *****   Make sure the FID was legal.
     3730    13153        */
     3731    13154    3           IF FID_RESULTS.ACCT = %NO# OR VLP_ACCT.ACCT# = ' ' OR ASN ~= %FILE#
     3732    13155    3           THEN
     3733    13156    3               GOTO FID_ERR ;
     3734    13157    3           IF FID_RESULTS.NAME = %YES# OR FID_RESULTS.PASS = %YES# OR
     3735    13158    3             FID_RESULTS.WSN = %YES#
     3736    13159    3           THEN
     3737    13160    3               GOTO FID_ERR ;
     3738    13161    3           IF VLP_SN.NUM# > 1
     3739    13162    3           THEN
     3740    13163    3               GOTO FID_ERR ;
     3741    13164        /*
     3742    13165          *****   Determine if DP#NN.ACCT or .ACCT spec'd
     3743    13166        */
     3744    13167    3           FPT_SETFMA.ACCT_ = VECTOR(VLP_ACCT) ;
     3745    13168    3           IF FID_RESULTS.SN
     3746    13169    3           THEN                         /* Sn specified as well */
     3747    13170    3               FPT_SETFMA.PSN_ = VECTOR(VLP_SN.SN#) ;
     3748    13171    3       END ;                          /* Do Case */
     3749    13172    2       CALL M$SETFMA (FPT_SETFMA) ALTRET(DIR_ERR) ;
PL6.E3A0      #016=XUG$BUILTIN_COMMON File=XUG$COMMON.:E05TSI                    WED 07/30/97 09:28 Page:694
     3750    13173    2       RETURN ;
     3751    13174    2   DIR_ERR:
     3752    13175    2       GETCMD.ERR# = B$TCB.ALT$ ->B$EXCFR.ERR ;
     3753    13176    2       ALTRETURN ;
     3754    13177    2   FID_ERR:
     3755    13178    2       GETCMD.ERR# = XUG#BDIRFID ;
     3756    13179    2       GETCMD.PCB$->P$PCB.HI_CHAR = BLK$->P$B.SUBLK$(0)->P$B.CPOS ;
     3757    13180    2       ALTRETURN ;
     3758    13181        /*E*  ERROR:  XUG-E$XUG#BDIRFID
     3759    13182              MESSAGE0: FID may only consist of DP#SN.ACCOUNT or .ACCOUNT.
     3760    13183        */
     3761    13184
     3762    13185    2   END     DIRECTORY_CMD ;
     3763    13186        %EJECT ;
PL6.E3A0      #016=XUG$BUILTIN_COMMON File=XUG$COMMON.:E05TSI                    WED 07/30/97 09:28 Page:695
     3764    13187    1   END_CMD: PROC ;
     3765    13188
     3766    13189    2       FPT_EXIT = FPT_EXIT_C ;
     3767    13190    2       FPT_EXIT.V_ = VECTOR(FPT_EXIT.V) ;
     3768    13191    2       CALL M$EXIT (FPT_EXIT) ;
     3769    13192
     3770    13193    2   END     END_CMD ;
     3771    13194        %EJECT ;
PL6.E3A0      #016=XUG$BUILTIN_COMMON File=XUG$COMMON.:E05TSI                    WED 07/30/97 09:28 Page:696
     3772    13195    1   ENTER_CMD: PROC ALTRET;
     3773    13196
     3774    13197    2   DCL I SBIN;
     3775    13198
     3776    13199    2       IF GETCMD.XT_PARAM$ = ADDR(NIL)
     3777    13200    3       THEN DO;
     3778    13201    3           XT$ = PINCRW(XUG$, SIZEW(XUG) + SIZEW(P$PCB));
     3779    13202    3           XT_PARAM = XT_PARAM_C;
     3780    13203    3           XT_PARAM.XUG$ = XUG$ ;
     3781    13204    3           XT_PARAM.USER$ = ADDR(GETCMD);
     3782    13205    3           GETCMD.XT_PARAM$ = XT$;
     3783    13206    3           XT_PARAM.INDCB = GETCMD.INDCB# ;
     3784    13207    3           XT_PARAM.OUTDCB = GETCMD.OUTDCB# ;
     3785    13208
     3786    13209    3           CALL XUG.ADAPT$$ (XT_PARAM, %XT#RESTART)
     3787    13210    4           WHENALTRETURN DO;
     3788    13211    4               XUG.ADAPT$$ = ENTADDR(NIL);
     3789    13212    4               GETCMD.XT_PARAM$ = ADDR(NIL);
     3790    13213    4               IF XT_PARAM.ERR = XT#CANT_ADAPT
     3791    13214    4               THEN GETCMD.ERR# = XUG#NO_ADAPT ;
     3792    13215    4               ELSE GETCMD.ERR# = XT_PARAM.ERR ;
     3793    13216    4               ALTRETURN;
     3794    13217    4           END;
     3795    13218    3       END;
     3796    13219        /*E*  ERROR:   XUG-E$XUG#NO_ADAPT-0
     3797    13220              MESSAGE: The ADAPT dialog manager is not available.
     3798    13221              MESSAGE1: The ENTER command cannot be used because the Alternate Shared
     3799    13222                        Library (ADAPT_ASL) for the dialog manager is not installed.
     3800    13223        */
     3801    13224
     3802    13225    2       XT$ = GETCMD.XT_PARAM$;
     3803    13226    2       XT_PARAM.SCRIPT.PT$ = ADDR(NIL);
     3804    13227    2       XT_PARAM.FRAME.PT$ = ADDR(NIL);
     3805    13228    2       XT_PARAM.IBUF.PT$ = ADDR(NIL);
     3806    13229    2       XT_PARAM.SCRIPT.LEN = 0 ;
     3807    13230    2       XT_PARAM.FRAME.LEN = 0 ;
     3808    13231    2       XT_PARAM.IBUF.LEN = 0 ;
PL6.E3A0      #016=XUG$BUILTIN_COMMON File=XUG$COMMON.:E05TSI                    WED 07/30/97 09:28 Page:697
     3809    13232
     3810    13233    3       DO I = 0 TO BLK$ -> P$B.NSUBLKS - 1;
     3811    13234
     3812    13235    4           DO CASE (BLK$ -> P$B.SUBLK$(I) -> P$B.CODE);
     3813    13236
     3814    13237    4           CASE (%XUG_SCRIPTFID);
     3815    13238    4               XT_PARAM.SCRIPT.PT$ = BLK$ -> P$B.SUBLK$(I) -> P$S.TEXTC$;
     3816    13239    4           CASE (%XUG_FRAMENAME);
     3817    13240    4               XT_PARAM.FRAME.PT$ = BLK$ -> P$B.SUBLK$(I) -> P$S.TEXTC$;
     3818    13241    4           CASE (%XUG_TEXT);
     3819    13242    4               IF BLK$-> P$B.SUBLK$(I)-> P$S.COUNT > 0
     3820    13243    4               THEN
     3821    13244    4                   XT_PARAM.IBUF.PT$ = BLK$ -> P$B.SUBLK$(I) -> P$S.TEXTC$;
     3822    13245
     3823    13246    4           END;
     3824    13247
     3825    13248    3       END;
     3826    13249
     3827    13250    2       CALL XUG.ADAPT$$ (XT_PARAM, %XT#ENTER)
     3828    13251    3       WHENRETURN DO;
     3829    13252    3           RETURN;
     3830    13253    3       END;
     3831    13254    3       WHENALTRETURN DO;
     3832    13255    3           GETCMD.ERR# = XT_PARAM.ERR;
     3833    13256    3           ALTRETURN;
     3834    13257    3       END;
     3835    13258
     3836    13259    2   END ENTER_CMD;
     3837    13260
     3838    13261        %EJECT;
PL6.E3A0      #016=XUG$BUILTIN_COMMON File=XUG$COMMON.:E05TSI                    WED 07/30/97 09:28 Page:698
     3839    13262    1   DO_CMD: PROC ALTRET ;
     3840    13263
     3841    13264    2   DCL POST_EXEC EPTR;
     3842    13265
     3843    13266    2       POST_EXEC = XUG.POST_EXEC;
     3844    13267    2       IF BLK$->P$B.SUBLK$(0)->P$S.COUNT = 0
     3845    13268    2       THEN
     3846    13269    2           RETURN ;
     3847    13270    2       IF BLK$->P$B.SUBLK$(0)->P$S.COUNT > 256
     3848    13271    2       THEN
     3849    13272    3       DO ;
     3850    13273    3           GETCMD.ERR# = XUG#DOCMD2BIG ;
     3851    13274    3           GETCMD.PCB$->P$PCB.HI_CHAR = BLK$->P$B.SUBLK$(0)->P$S.CPOS+256 ;
     3852    13275    3           ALTRETURN;
     3853    13276    3       END ;                        /* Then Do */
     3854    13277        /*E*  ERROR:  XUG-E$XUG#DOCMD2BIG
     3855    13278              MESSAGE0: DO command too big.
     3856    13279              MESSAGE1: The DO command can be at most 256 characters long.
     3857    13280        */
     3858    13281    2       FPT_YC = FPT_YC_C ;
     3859    13282    2       FPT_YC.V_ = VECTOR(FPT_YC.V) ;
     3860    13283    2       FPT_YC.CMD_ = VECTOR(BLK$->P$B.SUBLK$(0)->P$S.TEXT) ;
     3861    13284    2       FPT_YC.REPLY_ = VECTOR(VLR_YC) ;
     3862    13285    2       FPT_YC.V.LINK# = %YES# ;
     3863    13286    2       IF XUG.DOCMD_SYNERR
     3864    13287    2       THEN
     3865    13288    2           FPT_YC.V.REPARSE# = %YES# ;
     3866    13289    2       ELSE
     3867    13290    2           FPT_YC.V.REPARSE# = %NO# ;
     3868    13291    2       XUG.DOCMD_SYNERR = %NO# ;
     3869    13292    2       CALL M$YC (FPT_YC) ALTRET(M$YC_ERR) ;
     3870    13293        /*
     3871    13294            Special handling of POST_EXEC routine is needed after linking to
     3872    13295            another program, because memory allocation by that program
     3873    13296            (notably COMMON) will require argument stack descriptors
     3874    13297            to be reloaded by programs that use them (notably APL).
     3875    13298        */
PL6.E3A0      #016=XUG$BUILTIN_COMMON File=XUG$COMMON.:E05TSI                    WED 07/30/97 09:28 Page:699
     3876    13299    2       IF POST_EXEC ~= ENTADDR(NIL)
     3877    13300    2       THEN
     3878    13301    2           CALL POST_EXEC (GETCMD,CODE) ALTRET(ALT);
     3879    13302    2       RETURN;
     3880    13303    2   M$YC_ERR:
     3881    13304    2       ERR = B$TCB.ALT$ -> B$EXCFR.ERR ;
     3882    13305    2       IF POST_EXEC ~= ENTADDR(NIL)
     3883    13306    2       THEN
     3884    13307    2           CALL POST_EXEC (GETCMD,CODE);
     3885    13308    2       IF B$JIT.CPFLAGS1 & %CP_EXIT#
             13308                /* callee M$EXIT/M$ERR/M$XXX with CODE=something */
     3886    13309    3       THEN DO;
     3887    13310    3           XUG.ERRSAVE = ERR;
     3888    13311    3           XUG.ERRDCB = DCBNUM(NIL);
     3889    13312    3           XUG.NO_INCREMENT = %YES#;
     3890    13313    3           XUG.FIRST_ERROR = %YES#;
     3891    13314    3           XUG.LAST_FLAGLEV = 0;
     3892    13315    3           RETURN;
     3893    13316    3       END;
     3894    13317    2       GETCMD.PCB$->P$PCB.HI_CHAR = VLR_YC.CPOS + BLK$->P$B.SUBLK$(0) ->
     3895    13318    2         P$S.CPOS ;
     3896    13319    2       IF NOT ERR.MON AND ERR.CODE=%E$SYNERR
     3897    13320    2       THEN
     3898    13321    3       DO ;
     3899    13322    3           CALL XUG$SINPUT (GETCMD);
     3900    13323    3           XUG.SYNERR=%YES# ;
     3901    13324    3           XUG.DOCMD_SYNERR=%YES# ;
     3902    13325    3           ERR.MID='07'O;
     3903    13326    3       END ;                        /* Then Do */
     3904    13327    2       GETCMD.ERR# = ERR;
     3905    13328    2   ALT: ALTRETURN;
     3906    13329
     3907    13330    2   END     DO_CMD ;
     3908    13331        %EJECT ;
PL6.E3A0      #016=XUG$BUILTIN_COMMON File=XUG$COMMON.:E05TSI                    WED 07/30/97 09:28 Page:700
     3909    13332    1   ERASE_CMD: PROC ALTRET ;
     3910    13333        /**/
     3911    13334    2   DCL I UBIN WORD ;
     3912    13335        /**/
     3913    13336    2       FPT_LDEV = FPT_LDEV_C ;
     3914    13337    2       FPT_LDEV.V_ = VECTOR(FPT_LDEV.V);
     3915    13338    2       FPT_LDEV.V.DELETE# = %YES#;
     3916    13339    2       IF BLK$->P$B.NSUBLKS = 0
     3917    13340    2       THEN
     3918    13341    3       DO;
     3919    13342    3           FPT_LDEV.V.STREAMNAME# = 'ALL';
     3920    13343    3           CALL M$LDEV(FPT_LDEV) ALTRET(ERASE_ERR);
     3921    13344    3           RETURN;
     3922    13345    3       END;
     3923    13346    2       I = 0;
     3924    13347    3       DO WHILE(I < BLK$->P$B.NSUBLKS);
     3925    13348    3           IF BLK$ -> P$B.SUBLK$(I)->P$S.COUNT > 4
     3926    13349    3           THEN
     3927    13350    4           DO ;
     3928    13351    4               GETCMD.ERR# = XUG#BIG4CHAR ;
     3929    13352    4               GETCMD.PCB$->P$PCB.HI_CHAR = BLK$->P$B.SUBLK$(I)->P$S.CPOS+4 ;
     3930    13353    4               ALTRETURN;
     3931    13354    4           END ;                     /* Then Do */
     3932    13355        /*E*  ERROR:  XUG-E$XUG#BIG4CHAR
     3933    13356              MESSAGE0: Only four or less characters allowed.
     3934    13357        */
     3935    13358    3           FPT_LDEV.V.STREAMNAME# = BLK$ -> P$B.SUBLK$(I) -> P$S.TEXT;
     3936    13359    3           CALL M$LDEV(FPT_LDEV) ALTRET(ERASE_ERR);
     3937    13360    3           I = I + 1;
     3938    13361    3       END;
     3939    13362    2       RETURN;
     3940    13363    2   ERASE_ERR:
     3941    13364    2       GETCMD.ERR# = B$TCB.ALT$->B$EXCFR.ERR ;
     3942    13365    2       GETCMD.PCB$->P$PCB.HI_CHAR = BLK$->P$B.SUBLK$(I)->P$S.CPOS ;
     3943    13366    2   ERASE_ALT:
     3944    13367    2       ALTRETURN;
     3945    13368    2   END     ERASE_CMD ;
PL6.E3A0      #016=XUG$BUILTIN_COMMON File=XUG$COMMON.:E05TSI                    WED 07/30/97 09:28 Page:701
     3946    13369        %EJECT ;
PL6.E3A0      #016=XUG$BUILTIN_COMMON File=XUG$COMMON.:E05TSI                    WED 07/30/97 09:28 Page:702
     3947    13370    1   HELP_CMD: PROC ALTRET ;
     3948    13371
     3949    13372    2       IF GETCMD.XUH$ = ADDR(NIL)
     3950    13373    2       THEN
     3951    13374    2           GETCMD.XUH$ = ADDR(XUG.XUH_PARAM);
     3952    13375
     3953    13376    3       DO CASE(CODE) ;
     3954    13377
     3955    13378    3       CASE(%XUG_CMD_Q1);
     3956    13379    3           CALL XUG$MOREMSG_COMMON(GETCMD) ALTRET(GIVE_ERR_MSG) ;
     3957    13380
     3958    13381    3       CASE(%XUG_CMD_Q2);
     3959    13382    3           CALL XUG$ALLMSG_COMMON(GETCMD) ALTRET(GIVE_ERR_MSG) ;
     3960    13383
     3961    13384    3       CASE(%XUG_CMD_HELP);
     3962    13385    3           IF BLK$ -> P$B.NSUBLKS = 0
     3963    13386    3           THEN
     3964    13387    3               XUH$PARAM.HELP$ = ADDR(NULL_HELP_TOPIC);
     3965    13388    3           ELSE
     3966    13389    3               XUH$PARAM.HELP$=BLK$->P$B.SUBLK$(0)->P$S.TEXTC$;
     3967    13390    3           CALL XUG$HELP_COMMON(GETCMD) ALTRET(NORMAL_RETURN) ;
     3968    13391    3       END ;                          /* Do Case */
     3969    13392    2   NORMAL_RETURN:
     3970    13393    2       RETURN ;
     3971    13394
     3972    13395    2   GIVE_ERR_MSG:
     3973    13396    2       GETCMD.ERR_CODE = XUG#NO_MORE ;
     3974    13397        /*E*   ERROR:   XUG-E$XUG#NO_MORE
     3975    13398               MESSAGE: No messages available.
     3976    13399               MESSAGE1: Th Th Th That's all fffolks!
     3977    13400                                                                          */
     3978    13401    2       GETCMD.ERRDCB# = B$TCB.ALT$->B$EXCFR.DCB# ;
     3979    13402    2       GETCMD.F1_ = VECTOR(NIL) ;
     3980    13403    2       GETCMD.F2_ = VECTOR(NIL) ;
     3981    13404    2       GETCMD.F3_ = VECTOR(NIL) ;
     3982    13405    2       GETCMD.FLGLEV# = 0 ;
     3983    13406    2       CALL XUG$ERRMSG_COMMON(GETCMD) ALTRET(HELP_ERR) ;
PL6.E3A0      #016=XUG$BUILTIN_COMMON File=XUG$COMMON.:E05TSI                    WED 07/30/97 09:28 Page:703
     3984    13407    2       RETURN ;
     3985    13408    2   HELP_ERR:
     3986    13409    2       GETCMD.ERR# = B$TCB.ALT$->B$EXCFR.ERR ;
     3987    13410    2       GETCMD.PCB$->P$PCB.HI_CHAR = 0 ;
     3988    13411    2       ALTRETURN ;
     3989    13412    2   END     HELP_CMD ;
     3990    13413        %EJECT ;
PL6.E3A0      #016=XUG$BUILTIN_COMMON File=XUG$COMMON.:E05TSI                    WED 07/30/97 09:28 Page:704
     3991    13414    1   OUTPUT_CMD: PROC ALTRET;
     3992    13415
     3993    13416    2       GETCMD.UTIL$ = BLK$;
     3994    13417    2       GETCMD.FPT$ = ADDR(NIL);
     3995    13418    2       TSTOR = GETCMD.DCB_PARAM#;
     3996    13419    2       GETCMD.DCB_PARAM# = GETCMD.OUTDCB#;
     3997    13420
     3998    13421    2       CALL XUG$OPENOUT_COMMON (GETCMD)
     3999    13422    3       WHENALTRETURN DO;
     4000    13423    3           GETCMD.DCB_PARAM# = TSTOR;
     4001    13424    3           ALTRETURN;
     4002    13425    3       END;
     4003    13426
     4004    13427    2       GETCMD.DCB_PARAM# = TSTOR;
     4005    13428    2       RETURN;
     4006    13429
     4007    13430    2   END OUTPUT_CMD;
     4008    13431        %EJECT;
PL6.E3A0      #016=XUG$BUILTIN_COMMON File=XUG$COMMON.:E05TSI                    WED 07/30/97 09:28 Page:705
     4009    13432    1   PRINT_CMD: PROC ALTRET ;
     4010    13433        /**/
     4011    13434    2   DCL I UBIN WORD ;
     4012    13435        /**/
     4013    13436    2       FPT_LDEV = FPT_LDEV_C ;
     4014    13437    2       FPT_LDEV.V_ = VECTOR(FPT_LDEV.V);
     4015    13438    2       IF BLK$->P$B.NSUBLKS = 0
     4016    13439    2       THEN
     4017    13440    3       DO;
     4018    13441    3           FPT_LDEV.V.STREAMNAME# = 'ALL';
     4019    13442    3           CALL M$LDEV(FPT_LDEV) ALTRET(PRINT_ERR) ;
     4020    13443    3           RETURN;
     4021    13444    3       END;
     4022    13445    2       I = 0;
     4023    13446    3       DO WHILE(I < BLK$->P$B.NSUBLKS);
     4024    13447    3           IF BLK$ -> P$B.SUBLK$(I)->P$S.COUNT > 4
     4025    13448    3           THEN
     4026    13449    4           DO ;
     4027    13450    4               GETCMD.ERR# = XUG#BIG4CHAR ;
     4028    13451    4               GETCMD.PCB$->P$PCB.HI_CHAR = BLK$->P$B.SUBLK$(I)->P$S.CPOS+4 ;
     4029    13452    4               ALTRETURN;
     4030    13453    4           END ;                     /* Then Do */
     4031    13454    3           FPT_LDEV.V.STREAMNAME# = BLK$ -> P$B.SUBLK$(I) -> P$S.TEXT;
     4032    13455    3           CALL M$LDEV(FPT_LDEV) ALTRET(PRINT_ERR);
     4033    13456    3           I = I + 1;
     4034    13457    3       END;
     4035    13458    2       RETURN;
     4036    13459    2   PRINT_ERR:
     4037    13460    2       GETCMD.ERR# = B$TCB.ALT$->B$EXCFR.ERR ;
     4038    13461    2       GETCMD.PCB$->P$PCB.HI_CHAR = BLK$->P$B.SUBLK$(I)->P$S.CPOS ;
     4039    13462    2       ALTRETURN;
     4040    13463    2   END     PRINT_CMD ;
     4041    13464        %EJECT ;
PL6.E3A0      #016=XUG$BUILTIN_COMMON File=XUG$COMMON.:E05TSI                    WED 07/30/97 09:28 Page:706
     4042    13465    1   TIME_DATE_CMD: PROC ALTRET ;
     4043    13466
     4044    13467    2   DCL 1 TMDATE,
     4045    13468    2         2 * CHAR(2),
     4046    13469    2         2 DATE CHAR(10),
     4047    13470    2         2 * CHAR(2),
     4048    13471    2         2 TIME,
     4049    13472    2           3 HR CHAR(3),
     4050    13473    2           3 MIN CHAR(2),
     4051    13474    2           3 SEC CHAR(3),
     4052    13475    2           3 MSEC CHAR(3),
     4053    13476    2         2 DAY CHAR(3) ;
     4054    13477    2   DCL TMDATEBUFF REDEF TMDATE CHAR(28);
     4055    13478
     4056    13479    2       TMDATEBUFF=' ';                /*Blank out buffer*/
     4057    13480    2       FPT_TIME = FPT_TIME_C;
     4058    13481    2       FPT_TIME.V_ = VECTOR(FPT_TIME.V);
     4059    13482    2       FPT_TIME.DAY_=VECTOR(TMDATE.DAY) ;
     4060    13483    2       FPT_TIME.DATE_=VECTOR(TMDATE.DATE);
     4061    13484    2       FPT_TIME.TIME_=VECTOR(TMDATE.TIME);
     4062    13485    2       CALL M$TIME(FPT_TIME) ALTRET(TIME_ERR) ;
     4063    13486    2       CNT = 19 ;
     4064    13487    2       OUTBUFF=SUBSTR(TMDATEBUFF,0,CNT) ;
     4065    13488    2       CALL OUTPUT_MESSAGE (CNT) ALTRET(TIME_ERR) ;
     4066    13489    2       RETURN ;
     4067    13490    2   TIME_ERR: ;
     4068    13491    2       GETCMD.ERR# = B$TCB.ALT$ -> B$EXCFR.ERR ;
     4069    13492    2       ALTRETURN ;
     4070    13493    2   END     TIME_DATE_CMD ;
     4071    13494        %EJECT;
PL6.E3A0      #016=XUG$BUILTIN_COMMON File=XUG$COMMON.:E05TSI                    WED 07/30/97 09:28 Page:707
     4072    13495    1   OUTPUT_MESSAGE: PROC (BOUND) ALTRET ;
     4073    13496
     4074    13497    2   DCL BOUND SBIN WORD ;
     4075    13498
     4076    13499    2       FPT_WRITE = FPT_WRITE_C ;
     4077    13500    2       FPT_WRITE.V_ = VECTOR(FPT_WRITE.V) ;
     4078    13501    2       FPT_WRITE.BUF_ = VECTOR(OUTBUFF) ;
     4079    13502    2       FPT_WRITE.BUF_.BOUND = BOUND - 1 ;
     4080    13503
     4081    13504    2       IF GETCMD.OUTDCB# ~= 0
     4082    13505    2       THEN
     4083    13506    2           M$LO# = GETCMD.OUTDCB# ;
     4084    13507    2       ELSE
     4085    13508    2           CALL XUG$FINDDCB_COMMON (M$LO, M$LO#) ALTRET(OUTPUT_ERR) ;
     4086    13509    2       FPT_WRITE.V.DCB# = M$LO# ;
     4087    13510    2       CALL M$WRITE (FPT_WRITE) ALTRET(OUTPUT_ERR) ;
     4088    13511    2       RETURN ;
     4089    13512
     4090    13513    2   OUTPUT_ERR:
     4091    13514    2       ALTRETURN ;
     4092    13515    2   END     OUTPUT_MESSAGE ;
     4093    13516    1   END   XUG$BUILTIN_COMMON ;
     4094    13517        %EOD;

PL6.E3A0      #016=XUG$BUILTIN_COMMON File=XUG$COMMON.:E05TSI                    WED 07/30/97 09:28 Page:708
--  Include file information  --

   B$JIT_C.:E05TOU  is referenced.
   B$JIT.:E05TOU  cannot be made into a system file and is referenced.
   CP_6_SUBS.:E05TOU  is referenced.
   CP_6_C.:E05TOU  is referenced.
   CP_6.:E05TOU  cannot be made into a system file and is referenced.
   XT_PERR_E.:TOOLE04  is referenced.
   XT_MACRO_M.:TOOLE04  is referenced.
   XUH_MACRO_C.:E05TOU  is referenced.
   XU_PERR_C.:E05TOU  is referenced.
   XU_SUBS_C.:E05TOU  is referenced.
   XU_MACRO_C.:E05TOU  is referenced.
      No diagnostics issued in procedure XUG$BUILTIN_COMMON.

   Procedure XUG$BUILTIN_COMMON requires 908 words for executable code.
   Procedure XUG$BUILTIN_COMMON requires 246 words of local(AUTO) storage.

PL6.E3A0      #016=XUG$BUILTIN_COMMON File=XUG$COMMON.:E05TSI                    WED 07/30/97 09:28 Page:709

 Object Unit name= XUG$BUILTIN_COMMON                         File name= XUG$COMMON.:E05TOU
 UTS= JUL 30 '97 09:28:03.84 WED                              Compiler= PL-6/E31         Sev=      00
 SharedLib= :SHARED_SYSTEM                                    Alt SharedLib=


    ****  Control sections  ****

 Sect   Type Bound  Init  Size OctSiz  Section name(segment info)
    0   DCB   even  none     0      0  M$UC
    1   DCB   even  none     0      0  M$LM
    2  RoData even  UTS    135    207  XUG$BUILTIN_COMMON
    3   Proc  even  none   908   1614  XUG$BUILTIN_COMMON
    4  RoData even  none    25     31  XUG$BUILTIN_COMMON

    ****  Entry defs  ****

                              Check   Calling
                             calling  sequence
  Sect OctLoc Primary Altret sequence   type   Parms  Name
     3      0   yes    yes     yes      Std        1  XUG$BUILTIN_COMMON
PL6.E3A0      #016=XUG$BUILTIN_COMMON File=XUG$COMMON.:E05TSI                    WED 07/30/97 09:28 Page:710

  ****  Entry refs  ****

         Check        Calling
        calling       sequence
Altret sequence SRef   type   Args  Name
 yes     yes           Std       1 XUG$ADAPTMEM
 yes     yes           Std       1 XUG$SINPUT
 yes     yes           Std       1 XUG$MOREMSG_COMMON
 yes     yes           Std       1 XUG$HELP_COMMON
 yes     yes           Std       1 XUG$ERRMSG_COMMON
 yes     yes           Std       1 XUG$ALLMSG_COMMON
 yes     yes           Std       1 XUG$OPENOUT_COMMON
 yes     yes           Std       2 XUG$FINDDCB_COMMON
                       nStd      0 X66_AUTO_1
                       Std       0 B_CONSPOOL_D
                       nStd      0 X66_ARET
                       nStd      0 X66_AALT

  ****  Data refs  ****

  Flags:  r = read only, s = secondary
Flgs Name                             Flgs Name                             Flgs Name
     M$UC                                  M$LM                                  B$TCB$
     B$JIT$                                B_VECTNIL

  ****  Segment refs  ****

  Flags:  r = read only, s = secondary
Flgs Name                             Flgs Name                             Flgs Name
     NULLSID                               ISSID
PL6.E3A0      #016=XUG$BUILTIN_COMMON File=XUG$COMMON.:E05TSI                    WED 07/30/97 09:28 Page:711


     3514        1        /*T***********************************************************/
     3515        2        /*T*                                                         */
     3516        3        /*T* Copyright (c) Bull HN Information Systems Inc., 1997    */
     3517        4        /*T*                                                         */
     3518        5        /*T***********************************************************/
     3519        6        /* XUG$BUILTIN_COMMON   Routine to handle the BUILTIN commands.              */
     3520        7        XUG$BUILTIN_COMMON: PROC(GETCMD) ALTRET;

      7  3 000000   000000 700200 xent  XUG$BUILTIN* TSX0  ! X66_AUTO_1
         3 000001   000366 000001                    ZERO    246,1

     3521        8        /*X* DMC,PLM=4,IND=4,CTI=2,DTI=0,ENI=0,ECI=0,CSI=0,MCI,DCI=4 */
     3522        9
     3523       10    1   DCL 1 ERR AUTO,
     3524       11    1         2 FCG BIT(12),
     3525       12    1         2 MID BIT(6),
     3526       13    1         2 MON BIT(1),
     3527       14    1         2 CODE UBIN(14) UNAL,
     3528       15    1         2 SEV UBIN(3) UNAL;
     3529       16
     3530       17        %INCLUDE XU_MACRO_C ;
     3531     3123        %XUG_GETCMD (NAME=GETCMD, STCLASS=PARAM) ;
     3532     3461        %EJECT ;
PL6.E3A0      #016=XUG$BUILTIN_COMMON File=XUG$COMMON.:E05TSI                    WED 07/30/97 09:28 Page:712
     3533     3462        %INCLUDE XU_SUBS_C ;
     3534     3554        %INCLUDE XU_PERR_C ;
     3535     3745        %INCLUDE XUH_MACRO_C ;
     3536     3829        %INCLUDE XT_MACRO_M;
     3537     4155        %INCLUDE XT_PERR_E ;
     3538     4216        %INCLUDE CP_6 ;
     3539     9775        %INCLUDE CP_6_SUBS ;
     3540    10315        %INCLUDE B$JIT ;
     3541    10918
     3542    10919    1   DCL XUG$MOREMSG_COMMON ENTRY(1) ALTRET ;
     3543    10920    1   DCL XUG$ALLMSG_COMMON ENTRY(1) ALTRET ;
     3544    10921    1   DCL XUG$HELP_COMMON ENTRY(1) ALTRET ;
     3545    10922    1   DCL XUG$ERRMSG_COMMON ENTRY(1) ALTRET ;
     3546    10923    1   DCL XUG$FINDDCB_COMMON ENTRY(2) ALTRET ;
     3547    10924    1   DCL XUG$OPENOUT_COMMON ENTRY (1) ALTRET;
     3548    10925    1   DCL XUG$SINPUT ENTRY(1) ALTRET;
     3549    10926    1   DCL XUG$ADAPTMEM ENTRY(1) ALTRET;
     3550    10927
     3551    10928    1   DCL XUG$ PTR ;
     3552    10929    1   DCL M$LM DCB ;
     3553    10930        %XUG_PARAMS ;
     3554    11374        %XT_PARAM (NAME=XT_PARAM, STCLASS="BASED(XT$)");
     3555    11687        %XT_PARAM (NAME=XT_PARAM_C, STCLASS=CONSTANT,GETMEM=XUG$ADAPTMEM);
     3556    12000    1   DCL B$TCB$ PTR SYMREF ;
     3557    12001    1   DCL B$JIT$ PTR SYMREF ;
     3558    12002        %P_PCB (NAME=P$PCB, STCLASS=BASED) ;
     3559    12201        %PARSE$OUT (NAME=P$B) ;
     3560    12246        %PARSE$SYM (NAME=P$S) ;
     3561    12284        %B$TCB (STCLASS="BASED(B$TCB$)") ;
     3562    12287        %B$EXCFR ;
     3563    12305        %B$ALT ;
     3564    12313        %EJECT ;
PL6.E3A0      #016=XUG$BUILTIN_COMMON File=XUG$COMMON.:E05TSI                    WED 07/30/97 09:28 Page:713
     3565    12314        %MACRO TEXTC (NAME=NAME,T#='',STCLASS=CONSTANT);
     3566    12315        DCL 1 NAME STCLASS,
     3567    12316              2 L UBIN BYTE UNAL INIT(SIZEC(T#)),
     3568    12317              2 C CHAR(0) INIT(T#);
     3569    12318        %MEND;
     3570    12319    1   DCL 1 NULL_HELP_TOPIC CONSTANT,
     3571    12320    1         2 LEN UBIN BYTE CALIGNED INIT (0);
     3572    12321    1   DCL CODE SBIN WORD ;
     3573    12322    1   DCL ASN UBIN (9) ;                      /* Fid assignment type */
     3574    12323    1   DCL OUTBUFF CHAR(80) ;
     3575    12324    1   DCL TBUFF CHAR(8) ;
     3576    12325    1   DCL TEMPBUFF CHAR(56) ;
     3577    12326    1   DCL BLK$ PTR ;
     3578    12327    1   DCL XT$ PTR;
     3579    12328    1   DCL CNT SBIN WORD ;
     3580    12329    1   DCL TSTOR SBIN WORD ;
     3581    12330    1   DCL M$LO# UBIN ;
     3582    12331        %TEXTC (NAME=M$LO, T#='M$LO') ;
     3583    12336        %FPT_EXIT (FPTN=FPT_EXIT_C, STCLASS=CONSTANT) ;
     3584    12351        %FPT_EXIT (FPTN=FPT_EXIT, STCLASS=AUTO) ;
     3585    12366        %FPT_YC (FPTN=FPT_YC_C, STCLASS=CONSTANT, NOERR=YES, LINK=YES) ;
     3586    12383        %FPT_YC (FPTN=FPT_YC, STCLASS=AUTO) ;
     3587    12400        %VLR_YC (FPTN=VLR_YC, STCLASS=AUTO) ;
     3588    12407        %FPT_WRITE (  FPTN = FPT_WRITE_C, WAIT=YES, STCLASS=CONSTANT) ;
     3589    12438        %FPT_WRITE (STCLASS=AUTO) ;
     3590    12469        %FPT_SETFMA(FPTN=FPT_SETFMA, STCLASS=AUTO) ;
     3591    12482        %FPT_SETFMA (FPTN=FPT_SETFMA_C, STCLASS=CONSTANT) ;
     3592    12495        %FPT_FID (FPTN=FPT_FID, STCLASS=AUTO) ;
     3593    12518        %FPT_FID (FPTN=FPT_FID_C, STCLASS=CONSTANT) ;
     3594    12541        %FPT_LDEV (FPTN=FPT_LDEV_C, STCLASS=CONSTANT) ;
     3595    12566        %FPT_LDEV (FPTN=FPT_LDEV, STCLASS=AUTO) ;
     3596    12591        %FPT_TIME (FPTN=FPT_TIME_C, STCLASS=CONSTANT) ;
     3597    12610        %FPT_TIME (FPTN=FPT_TIME, STCLASS=AUTO) ;
     3598    12629        %XUH_PARAM (NAME=XUH$PARAM, STCLASS="BASED(GETCMD.XUH$)") ;
     3599    12690        %VLP_NAME (FPTN=VLP_NAME, LEN=31, STCLASS=AUTO) ;
     3600    12717        %VLP_ACCT (FPTN=VLP_ACCT, STCLASS=AUTO) ;
     3601    12730        %VLP_SN (FPTN=VLP_SN, N=50, STCLASS=AUTO) ;
PL6.E3A0      #016=XUG$BUILTIN_COMMON File=XUG$COMMON.:E05TSI                    WED 07/30/97 09:28 Page:714
     3602    12743        %VLR_FID (FPTN=FID_RESULTS, STCLASS=AUTO) ;
     3603    12762        %VLP_ERRCODE (  FPTN=XUG#BDIRFID, STCLASS=CONSTANT,
     3604    12763                        FCG=XU, MID=G, ERR#=%E$XUG#BDIRFID, SEV=0) ;
     3605    12808        %VLP_ERRCODE (  FPTN=XUG#DOCMD2BIG, STCLASS=CONSTANT,
     3606    12809                        FCG=XU, MID=G, ERR#=%E$XUG#DOCMD2BIG, SEV=0) ;
     3607    12854        %VLP_ERRCODE (  FPTN=XUG#BIG4CHAR, STCLASS=CONSTANT,
     3608    12855                        FCG=XU, MID=G, ERR#=%E$XUG#BIG4CHAR, SEV=0) ;
     3609    12900        %VLP_ERRCODE (  FPTN=XUG#NO_MORE, STCLASS=CONSTANT,
     3610    12901                        FCG=XU, MID=G, ERR#=%E$XUG#NO_MORE, SEV=0) ;
     3611    12946        %VLP_ERRCODE (  FPTN=XUG#NO_ADAPT, STCLASS=CONSTANT,
     3612    12947                        FCG=XU, MID=G, ERR#=%E$XUG#NO_ADAPT, SEV=0);
     3613    12992        %VLP_ERRCODE (  FPTN=XT#CANT_ADAPT, STCLASS=CONSTANT,
     3614    12993                        FCG=XT, ERR#=%E$XT#CANT_ADAPT, SEV=0);
     3615    13038
     3616    13039        %EJECT ;
PL6.E3A0      #016=XUG$BUILTIN_COMMON File=XUG$COMMON.:E05TSI                    WED 07/30/97 09:28 Page:715
     3617    13040    1       XUG$ = GETCMD.WORK$ ;

  13040  3 000002   200003 470500                    LDP0    @GETCMD,,AUTO
         3 000003   000004 236100                    LDQ     4,,PR0
         3 000004   200005 756100                    STQ     XUG$,,AUTO

     3618    13041    1       BLK$ = GETCMD.PCB$ -> P$PCB.OUT$ ;

  13041  3 000005   000003 471500                    LDP1    3,,PR0
         3 000006   100003 236100                    LDQ     3,,PR1
         3 000007   200054 756100                    STQ     BLK$,,AUTO

     3619    13042    1       CODE = BLK$->P$B.CODE ;

  13042  3 000010   200054 473500                    LDP3    BLK$,,AUTO
         3 000011   300000 236100                    LDQ     0,,PR3
         3 000012   777777 376007                    ANQ     -1,DL
         3 000013   200006 756100                    STQ     CODE,,AUTO

     3620    13043    1       IF XUG.PRE_EXEC ~= ENTADDR(NIL)

  13043  3 000014   200005 471500                    LDP1    XUG$,,AUTO
         3 000015   100026 236100                    LDQ     22,,PR1
         3 000016   000002 116000 xsym               CMPQ    B_VECTNIL+2
         3 000017   000031 600000 3                  TZE     s:13047

     3621    13044    1       THEN
     3622    13045    1           CALL XUG.PRE_EXEC (GETCMD, CODE) ALTRET(BUILTIN_ERR) ;

  13045  3 000020   200006 634500                    EPPR4   CODE,,AUTO
         3 000021   200365 454500                    STP4    @BOUND+2,,AUTO
         3 000022   200003 236100                    LDQ     @GETCMD,,AUTO
         3 000023   200364 756100                    STQ     @BOUND+1,,AUTO
         3 000024   200364 630500                    EPPR0   @BOUND+1,,AUTO
         3 000025   100026 220100                    LDX0    22,,PR1
         3 000026   000020 631400 xsym               EPPR1   B_VECTNIL+16
         3 000027   000000 701010                    TSX1    0,X0
PL6.E3A0      #016=XUG$BUILTIN_COMMON File=XUG$COMMON.:E05TSI                    WED 07/30/97 09:28 Page:716
         3 000030   000127 702000 3                  TSX2    BUILTIN_ERR

     3623    13046
     3624    13047    2       DO CASE(CODE) ;

  13047  3 000031   200006 235100                    LDA     CODE,,AUTO
         3 000032   000020 115007                    CMPA    16,DL
         3 000033   000035 602005 3                  TNC     s:13047+4,AL
         3 000034   000110 710000 3                  TRA     s:13082
         3 000035   000110 710000 3                  TRA     s:13082
         3 000036   000055 710000 3                  TRA     s:13050
         3 000037   000060 710000 3                  TRA     s:13053
         3 000040   000063 710000 3                  TRA     s:13057
         3 000041   000066 710000 3                  TRA     s:13060
         3 000042   000071 710000 3                  TRA     s:13065
         3 000043   000110 710000 3                  TRA     s:13082
         3 000044   000077 710000 3                  TRA     s:13071
         3 000045   000071 710000 3                  TRA     s:13065
         3 000046   000071 710000 3                  TRA     s:13065
         3 000047   000102 710000 3                  TRA     s:13074
         3 000050   000110 710000 3                  TRA     s:13082
         3 000051   000110 710000 3                  TRA     s:13082
         3 000052   000110 710000 3                  TRA     s:13082
         3 000053   000074 710000 3                  TRA     s:13068
         3 000054   000105 710000 3                  TRA     s:13077

     3625    13048
     3626    13049    2       CASE(%XUG_CMD_DIR) ;

     3627    13050    2           CALL DIRECTORY_CMD ALTRET(BUILTIN_ERR) ;

  13050  3 000055   000146 701000 3                  TSX1    DIRECTORY_CMD
         3 000056   000127 702000 3                  TSX2    BUILTIN_ERR
         3 000057   000110 710000 3                  TRA     s:13082

     3628    13051
     3629    13052    2       CASE(%XUG_CMD_DO) ;
PL6.E3A0      #016=XUG$BUILTIN_COMMON File=XUG$COMMON.:E05TSI                    WED 07/30/97 09:28 Page:717

     3630    13053    2           CALL DO_CMD ALTRET(ALTRET_FROM_BUILTIN) ;

  13053  3 000060   000635 701000 3                  TSX1    DO_CMD
         3 000061   000145 702000 3                  TSX2    ALTRET_FROM_BUILTIN

     3631    13054    2           RETURN;

  13054  3 000062   000000 702200 xent               TSX2  ! X66_ARET

     3632    13055
     3633    13056    2       CASE(%XUG_CMD_END) ;

     3634    13057    2           CALL END_CMD ;

  13057  3 000063   000442 701000 3                  TSX1    END_CMD
         3 000064   000000 011000                    NOP     0
         3 000065   000110 710000 3                  TRA     s:13082

     3635    13058
     3636    13059    2       CASE(%XUG_CMD_ERASE) ;

     3637    13060    2           CALL ERASE_CMD ALTRET(BUILTIN_ERR) ;

  13060  3 000066   001047 701000 3                  TSX1    ERASE_CMD
         3 000067   000127 702000 3                  TSX2    BUILTIN_ERR
         3 000070   000110 710000 3                  TRA     s:13082

     3638    13061
     3639    13062    2       CASE(%XUG_CMD_NULL) ;

     3640    13063
     3641    13064    2       CASE(%XUG_CMD_HELP, %XUG_CMD_Q1, %XUG_CMD_Q2) ;

     3642    13065    2           CALL HELP_CMD ALTRET(BUILTIN_ERR) ;

  13065  3 000071   001170 701000 3                  TSX1    HELP_CMD
PL6.E3A0      #016=XUG$BUILTIN_COMMON File=XUG$COMMON.:E05TSI                    WED 07/30/97 09:28 Page:718
         3 000072   000127 702000 3                  TSX2    BUILTIN_ERR
         3 000073   000110 710000 3                  TRA     s:13082

     3643    13066
     3644    13067    2       CASE (%XUG_CMD_OUTPUT) ;

     3645    13068    2           CALL OUTPUT_CMD ALTRET (BUILTIN_ERR);

  13068  3 000074   001306 701000 3                  TSX1    OUTPUT_CMD
         3 000075   000127 702000 3                  TSX2    BUILTIN_ERR
         3 000076   000110 710000 3                  TRA     s:13082

     3646    13069
     3647    13070    2       CASE(%XUG_CMD_PRINT) ;

     3648    13071    2           CALL PRINT_CMD ALTRET(BUILTIN_ERR) ;

  13071  3 000077   001337 701000 3                  TSX1    PRINT_CMD
         3 000100   000127 702000 3                  TSX2    BUILTIN_ERR
         3 000101   000110 710000 3                  TRA     s:13082

     3649    13072
     3650    13073    2       CASE(%XUG_CMD_TIME) ;

     3651    13074    2           CALL TIME_DATE_CMD ALTRET(BUILTIN_ERR) ;

  13074  3 000102   001456 701000 3                  TSX1    TIME_DATE_CMD
         3 000103   000127 702000 3                  TSX2    BUILTIN_ERR
         3 000104   000110 710000 3                  TRA     s:13082

     3652    13075
     3653    13076    2       CASE(%XUG_CMD_ENTER);

     3654    13077    2           CALL ENTER_CMD ALTRET (ALTRET_FROM_BUILTIN);

  13077  3 000105   000460 701000 3                  TSX1    ENTER_CMD
         3 000106   000145 702000 3                  TSX2    ALTRET_FROM_BUILTIN
PL6.E3A0      #016=XUG$BUILTIN_COMMON File=XUG$COMMON.:E05TSI                    WED 07/30/97 09:28 Page:719

     3655    13078    2           RETURN;

  13078  3 000107   000000 702200 xent               TSX2  ! X66_ARET

     3656    13079
     3657    13080    2       END ;                       /* Do Case */

     3658    13081
     3659    13082    1       IF XUG.POST_EXEC ~= ENTADDR(NIL)

  13082  3 000110   200005 470500                    LDP0    XUG$,,AUTO
         3 000111   000027 236100                    LDQ     23,,PR0
         3 000112   000002 116000 xsym               CMPQ    B_VECTNIL+2
         3 000113   000126 600000 3                  TZE     s:13086

     3660    13083    1       THEN
     3661    13084    1           CALL XUG.POST_EXEC (GETCMD, CODE) ALTRET(ALTRET_FROM_BUILTIN) ;

  13084  3 000114   200006 631500                    EPPR1   CODE,,AUTO
         3 000115   200365 451500                    STP1    @BOUND+2,,AUTO
         3 000116   200003 236100                    LDQ     @GETCMD,,AUTO
         3 000117   200364 756100                    STQ     @BOUND+1,,AUTO
         3 000120   200364 630500                    EPPR0   @BOUND+1,,AUTO
         3 000121   200005 473500                    LDP3    XUG$,,AUTO
         3 000122   300027 220100                    LDX0    23,,PR3
         3 000123   000020 631400 xsym               EPPR1   B_VECTNIL+16
         3 000124   000000 701010                    TSX1    0,X0
         3 000125   000145 702000 3                  TSX2    ALTRET_FROM_BUILTIN

     3662    13085
     3663    13086    1       RETURN ;

  13086  3 000126   000000 702200 xent               TSX2  ! X66_ARET

     3664    13087
     3665    13088    1   BUILTIN_ERR:
PL6.E3A0      #016=XUG$BUILTIN_COMMON File=XUG$COMMON.:E05TSI                    WED 07/30/97 09:28 Page:720
     3666    13089
     3667    13090    1       IF XUG.POST_EXEC ~= ENTADDR(NIL)

  13090  3 000127   200005 470500       BUILTIN_ERR  LDP0    XUG$,,AUTO
         3 000130   000027 236100                    LDQ     23,,PR0
         3 000131   000002 116000 xsym               CMPQ    B_VECTNIL+2
         3 000132   000145 600000 3                  TZE     ALTRET_FROM_BUILTIN

     3668    13091    1       THEN
     3669    13092    1           CALL XUG.POST_EXEC (GETCMD, CODE);

  13092  3 000133   200006 631500                    EPPR1   CODE,,AUTO
         3 000134   200365 451500                    STP1    @BOUND+2,,AUTO
         3 000135   200003 236100                    LDQ     @GETCMD,,AUTO
         3 000136   200364 756100                    STQ     @BOUND+1,,AUTO
         3 000137   200364 630500                    EPPR0   @BOUND+1,,AUTO
         3 000140   200005 473500                    LDP3    XUG$,,AUTO
         3 000141   300027 220100                    LDX0    23,,PR3
         3 000142   000020 631400 xsym               EPPR1   B_VECTNIL+16
         3 000143   000000 701010                    TSX1    0,X0
         3 000144   000000 011000                    NOP     0

     3670    13093
     3671    13094    1   ALTRET_FROM_BUILTIN:
     3672    13095
     3673    13096    1       ALTRETURN ;

  13096  3 000145   000000 702200 xent  ALTRET_FROM* TSX2  ! X66_AALT

     3674    13097
     3675    13098        %EJECT ;
PL6.E3A0      #016=XUG$BUILTIN_COMMON File=XUG$COMMON.:E05TSI                    WED 07/30/97 09:28 Page:721
     3676    13099    1   DIRECTORY_CMD: PROC ALTRET ;

  13099  3 000146   200352 741300       DIRECTORY_C* STX1  ! FID_RESULTS+10,,AUTO

     3677    13100        /**/
     3678    13101        /*
     3679    13102              ***** No options after command indicates directory info. is to be
     3680    13103                    displayed.
     3681    13104        */
     3682    13105    2       IF BLK$->P$B.NSUBLKS=0

  13105  3 000147   200054 470500                    LDP0    BLK$,,AUTO
         3 000150   000001 220100                    LDX0    1,,PR0
         3 000151   000242 601000 3                  TNZ     s:13130

     3683    13106    2       THEN
     3684    13107    3       DO ;

     3685    13108    3           OUTBUFF = '  Directory: ' ;

  13108  3 000152   040100 100400                    MLR     fill='040'O
         3 000153   000200 000015 2                  ADSC9   XT#CANT_ADAPT+1          cn=0,n=13
         3 000154   200010 000120                    ADSC9   OUTBUFF,,AUTO            cn=0,n=80

     3686    13109    3           CNT = 13 ;

  13109  3 000155   000015 235007                    LDA     13,DL
         3 000156   200056 755100                    STA     CNT,,AUTO

     3687    13110    3           CALL INDEX(TSTOR,' ',B$JIT.FPSN) ;

  13110  3 000157   000000 471400 xsym               LDP1    B$JIT$
         3 000160   000000 124500                    SCM     mask='000'O
         3 000161   100021 000006                    ADSC9   17,,PR1                  cn=0,n=6
         3 000162   000035 000001 xsym               ADSC9   B_VECTNIL+29             cn=0,n=1
         3 000163   200057 000100                    ARG     TSTOR,,AUTO

PL6.E3A0      #016=XUG$BUILTIN_COMMON File=XUG$COMMON.:E05TSI                    WED 07/30/97 09:28 Page:722
     3688    13111    3           IF TSTOR>0

  13111  3 000164   200057 236100                    LDQ     TSTOR,,AUTO
         3 000165   000205 604400 3                  TMOZ    s:13120

     3689    13112    3           THEN
     3690    13113    4           DO ;

     3691    13114    4               CALL INSERT(OUTBUFF, CNT, 3+TSTOR, 'DP#', B$JIT.FPSN) ;

  13114  3 000166   000003 620006                    EAX0    3,QL
         3 000167   040145 100400                    MLR     fill='040'O
         3 000170   000204 000003 2                  ADSC9   XT#CANT_ADAPT+5          cn=0,n=3
         3 000171   200010 000010                    ADSC9   OUTBUFF,A,AUTO           cn=0,n=*X0
         3 000172   000000 116003                    CMPQ    0,DU
         3 000173   000201 604400 3                  TMOZ    s:13115
         3 000174   000000 621006                    EAX1    0,QL
         3 000175   200056 236100                    LDQ     CNT,,AUTO
         3 000176   040146 100500                    MLR     fill='040'O
         3 000177   100021 000006                    ADSC9   17,,PR1                  cn=0,n=6
         3 000200   200010 600011                    ADSC9   OUTBUFF,Q,AUTO           cn=3,n=*X1

     3692    13115    4               CNT = CNT + 3 + TSTOR ;

  13115  3 000201   200056 236100                    LDQ     CNT,,AUTO
         3 000202   200057 036100                    ADLQ    TSTOR,,AUTO
         3 000203   000003 036007                    ADLQ    3,DL
         3 000204   200056 756100                    STQ     CNT,,AUTO

     3693    13116    4           END ;                     /* Then Do */

     3694    13117        /*
     3695    13118          *****  Insert the account.
     3696    13119        */
     3697    13120    3           CALL CONCAT(TEMPBUFF, '.', B$JIT.FACCN,' ') ;

  13120  3 000205   056000 236003                    LDQ     23552,DU
PL6.E3A0      #016=XUG$BUILTIN_COMMON File=XUG$COMMON.:E05TSI                    WED 07/30/97 09:28 Page:723
         3 000206   200036 756100                    STQ     TEMPBUFF,,AUTO
         3 000207   040100 100500                    MLR     fill='040'O
         3 000210   100006 000010                    ADSC9   6,,PR1                   cn=0,n=8
         3 000211   200036 200010                    ADSC9   TEMPBUFF,,AUTO           cn=1,n=8
         3 000212   040100 100400                    MLR     fill='040'O
         3 000213   000035 000001 xsym               ADSC9   B_VECTNIL+29             cn=0,n=1
         3 000214   200040 200057                    ADSC9   TEMPBUFF+2,,AUTO         cn=1,n=47

     3698    13121    3           CALL INDEX(TSTOR,' ',TEMPBUFF) ;

  13121  3 000215   000000 124500                    SCM     mask='000'O
         3 000216   200036 000070                    ADSC9   TEMPBUFF,,AUTO           cn=0,n=56
         3 000217   000035 000001 xsym               ADSC9   B_VECTNIL+29             cn=0,n=1
         3 000220   200057 000100                    ARG     TSTOR,,AUTO

     3699    13122    3           CALL INSERT(OUTBUFF, CNT, ,SUBSTR(TEMPBUFF,0,TSTOR)) ;

  13122  3 000221   200056 720100                    LXL0    CNT,,AUTO
         3 000222   777657 620010                    EAX0    -81,X0
         3 000223   777777 660003                    ERX0    -1,DU
         3 000224   200057 721100                    LXL1    TSTOR,,AUTO
         3 000225   200056 235100                    LDA     CNT,,AUTO
         3 000226   040145 100540                    MLR     fill='040'O
         3 000227   200036 000011                    ADSC9   TEMPBUFF,,AUTO           cn=0,n=*X1
         3 000230   200010 000010                    ADSC9   OUTBUFF,A,AUTO           cn=0,n=*X0

     3700    13123    3           CNT = CNT + TSTOR ;

  13123  3 000231   200056 236100                    LDQ     CNT,,AUTO
         3 000232   200057 036100                    ADLQ    TSTOR,,AUTO
         3 000233   200056 756100                    STQ     CNT,,AUTO

     3701    13124    3           CALL OUTPUT_MESSAGE(CNT) ALTRET(DIR_ERR) ;

  13124  3 000234   200056 630500                    EPPR0   CNT,,AUTO
         3 000235   200363 450500                    STP0    TMDATE+8,,AUTO
         3 000236   001540 701000 3                  TSX1    OUTPUT_MESSAGE
PL6.E3A0      #016=XUG$BUILTIN_COMMON File=XUG$COMMON.:E05TSI                    WED 07/30/97 09:28 Page:724
         3 000237   000421 702000 3                  TSX2    DIR_ERR

     3702    13125    3           RETURN ;

  13125  3 000240   200352 221300                    LDX1  ! FID_RESULTS+10,,AUTO
         3 000241   000001 702211                    TSX2  ! 1,X1

     3703    13126    3       END ;                        /* Then Do */
     3704    13127        /*
     3705    13128           *****  Set or Reset directory information in JIT.
     3706    13129        */
     3707    13130    2       FPT_SETFMA = FPT_SETFMA_C ;

  13130  3 000242   000100 100400                    MLR     fill='000'O
         3 000243   000076 000020 2                  ADSC9   FPT_SETFMA_C             cn=0,n=16
         3 000244   200116 000020                    ADSC9   FPT_SETFMA,,AUTO         cn=0,n=16

     3708    13131    3       DO CASE(BLK$->P$B.SUBLK$(0)->P$B.CODE) ;

  13131  3 000245   000003 471500                    LDP1    3,,PR0
         3 000246   100000 236100                    LDQ     0,,PR1
         3 000247   777777 376007                    ANQ     -1,DL
         3 000250   000014 136007                    SBLQ    12,DL
         3 000251   000001 116007                    CMPQ    1,DL
         3 000252   000254 602006 3                  TNC     s:13131+7,QL
         3 000253   000413 710000 3                  TRA     s:13172
         3 000254   000255 710000 3                  TRA     s:13138

     3709    13132
     3710    13133    3       CASE(%XUG_CMD_DIR_RESET) ;

     3711    13134        /*
     3712    13135          *****   NOTE: No code required since default fpt is what is required.
     3713    13136        */
     3714    13137    3       CASE(%XUG_CMD_DIR_FID) ;

     3715    13138    3           FPT_FID = FPT_FID_C ;
PL6.E3A0      #016=XUG$BUILTIN_COMMON File=XUG$COMMON.:E05TSI                    WED 07/30/97 09:28 Page:725

  13138  3 000255   000100 100400                    MLR     fill='000'O
         3 000256   000102 000140 2                  ADSC9   FPT_FID_C                cn=0,n=96
         3 000257   200122 000140                    ADSC9   FPT_FID,,AUTO            cn=0,n=96

     3716    13139    3           FPT_FID.V_ = VECTOR(FPT_FID.V) ;

  13139  3 000260   000000 235000 4                  LDA     0
         3 000261   200364 452500                    STP2    @BOUND+1,,AUTO
         3 000262   200364 236100                    LDQ     @BOUND+1,,AUTO
         3 000263   000146 036003                    ADLQ    102,DU
         3 000264   200122 757100                    STAQ    FPT_FID,,AUTO

     3717    13140    3           FPT_FID.TEXTFID_=VECTOR(BLK$->P$B.SUBLK$(0)->

  13140  3 000265   000003 471500                    LDP1    3,,PR0
         3 000266   100004 236100                    LDQ     4,,PR1
         3 000267   000033 772000                    QRL     27
         3 000270   000064 737000                    LLS     52
         3 000271   000140 135007                    SBLA    96,DL
         3 000272   200364 451500                    STP1    @BOUND+1,,AUTO
         3 000273   200364 236100                    LDQ     @BOUND+1,,AUTO
         3 000274   000001 036000 4                  ADLQ    1
         3 000275   200124 757100                    STAQ    FPT_FID+2,,AUTO

     3718    13141    3             P$S.TEXT) ;
     3719    13142    3           FPT_FID.NAME_ = VECTOR(VLP_NAME) ;

  13142  3 000276   000002 235000 4                  LDA     2
         3 000277   200364 452500                    STP2    @BOUND+1,,AUTO
         3 000300   200364 236100                    LDQ     @BOUND+1,,AUTO
         3 000301   000212 036003                    ADLQ    138,DU
         3 000302   200126 757100                    STAQ    FPT_FID+4,,AUTO

     3720    13143    3           FPT_FID.ACCT_ = VECTOR(VLP_ACCT) ;

  13143  3 000303   000003 235000 4                  LDA     3
PL6.E3A0      #016=XUG$BUILTIN_COMMON File=XUG$COMMON.:E05TSI                    WED 07/30/97 09:28 Page:726
         3 000304   200364 452500                    STP2    @BOUND+1,,AUTO
         3 000305   200364 236100                    LDQ     @BOUND+1,,AUTO
         3 000306   000222 036003                    ADLQ    146,DU
         3 000307   200130 757100                    STAQ    FPT_FID+6,,AUTO

     3721    13144    3           FPT_FID.PASS_ = VECTOR(VLP_ACCT) ;

  13144  3 000310   000003 235000 4                  LDA     3
         3 000311   200364 452500                    STP2    @BOUND+1,,AUTO
         3 000312   200364 236100                    LDQ     @BOUND+1,,AUTO
         3 000313   000222 036003                    ADLQ    146,DU
         3 000314   200132 757100                    STAQ    FPT_FID+8,,AUTO

     3722    13145    3           FPT_FID.SN_ = VECTOR(VLP_SN) ;

  13145  3 000315   000004 235000 4                  LDA     4
         3 000316   200364 452500                    STP2    @BOUND+1,,AUTO
         3 000317   200364 236100                    LDQ     @BOUND+1,,AUTO
         3 000320   000224 036003                    ADLQ    148,DU
         3 000321   200134 757100                    STAQ    FPT_FID+10,,AUTO

     3723    13146    3           FPT_FID.WSN_ = VECTOR(VLP_ACCT) ;

  13146  3 000322   000003 235000 4                  LDA     3
         3 000323   200364 452500                    STP2    @BOUND+1,,AUTO
         3 000324   200364 236100                    LDQ     @BOUND+1,,AUTO
         3 000325   000222 036003                    ADLQ    146,DU
         3 000326   200136 757100                    STAQ    FPT_FID+12,,AUTO

     3724    13147    3           FPT_FID.ASN_ = VECTOR(ASN) ;

  13147  3 000327   777640 235007                    LDA     -96,DL
         3 000330   200364 452500                    STP2    @BOUND+1,,AUTO
         3 000331   200364 236100                    LDQ     @BOUND+1,,AUTO
         3 000332   000007 036003                    ADLQ    7,DU
         3 000333   200140 757100                    STAQ    FPT_FID+14,,AUTO

PL6.E3A0      #016=XUG$BUILTIN_COMMON File=XUG$COMMON.:E05TSI                    WED 07/30/97 09:28 Page:727
     3725    13148    3           FPT_FID.RES_ = VECTOR(TBUFF) ;

  13148  3 000334   000003 235000 4                  LDA     3
         3 000335   200364 452500                    STP2    @BOUND+1,,AUTO
         3 000336   200364 236100                    LDQ     @BOUND+1,,AUTO
         3 000337   000034 036003                    ADLQ    28,DU
         3 000340   200142 757100                    STAQ    FPT_FID+16,,AUTO

     3726    13149    3           FPT_FID.RESULTS_ = VECTOR(FID_RESULTS) ;

  13149  3 000341   000005 235000 4                  LDA     5
         3 000342   200364 452500                    STP2    @BOUND+1,,AUTO
         3 000343   200364 236100                    LDQ     @BOUND+1,,AUTO
         3 000344   000340 036003                    ADLQ    224,DU
         3 000345   200144 757100                    STAQ    FPT_FID+18,,AUTO

     3727    13150    3           CALL M$FID(FPT_FID) ALTRET(DIR_ERR) ;

  13150  3 000346   200122 630500                    EPPR0   FPT_FID,,AUTO
         3 000347   420001 713400                    CLIMB   alt,+8193
         3 000350   404400 401760                    pmme    nvectors=10
         3 000351   000421 702000 3                  TSX2    DIR_ERR

     3728    13151        /*
     3729    13152          *****   Make sure the FID was legal.
     3730    13153        */
     3731    13154    3           IF FID_RESULTS.ACCT = %NO# OR VLP_ACCT.ACCT# = ' ' OR ASN ~= %FILE#

  13154  3 000352   200340 236100                    LDQ     FID_RESULTS,,AUTO
         3 000353   200000 316003                    CANQ    65536,DU
         3 000354   000430 600000 3                  TZE     FID_ERR
         3 000355   200222 237100                    LDAQ    VLP_ACCT,,AUTO
         3 000356   000006 117000 4                  CMPAQ   6
         3 000357   000430 600000 3                  TZE     FID_ERR
         3 000360   200007 236100                    LDQ     ASN,,AUTO
         3 000361   777000 376003                    ANQ     -512,DU
         3 000362   001000 116003                    CMPQ    512,DU
PL6.E3A0      #016=XUG$BUILTIN_COMMON File=XUG$COMMON.:E05TSI                    WED 07/30/97 09:28 Page:728
         3 000363   000430 601000 3                  TNZ     FID_ERR

     3732    13155    3           THEN
     3733    13156    3               GOTO FID_ERR ;
     3734    13157    3           IF FID_RESULTS.NAME = %YES# OR FID_RESULTS.PASS = %YES# OR

  13157  3 000364   200340 234100                    SZN     FID_RESULTS,,AUTO
         3 000365   000430 604000 3                  TMI     FID_ERR
         3 000366   200340 236100                    LDQ     FID_RESULTS,,AUTO
         3 000367   100000 316003                    CANQ    32768,DU
         3 000370   000430 601000 3                  TNZ     FID_ERR
         3 000371   020000 316003                    CANQ    8192,DU
         3 000372   000430 601000 3                  TNZ     FID_ERR

     3735    13158    3             FID_RESULTS.WSN = %YES#
     3736    13159    3           THEN
     3737    13160    3               GOTO FID_ERR ;
     3738    13161    3           IF VLP_SN.NUM# > 1

  13161  3 000373   200224 235100                    LDA     VLP_SN,,AUTO
         3 000374   000001 115007                    CMPA    1,DL
         3 000375   000430 605400 3                  TPNZ    FID_ERR

     3739    13162    3           THEN
     3740    13163    3               GOTO FID_ERR ;
     3741    13164        /*
     3742    13165          *****   Determine if DP#NN.ACCT or .ACCT spec'd
     3743    13166        */
     3744    13167    3           FPT_SETFMA.ACCT_ = VECTOR(VLP_ACCT) ;

  13167  3 000376   000003 235000 4                  LDA     3
         3 000377   200364 452500                    STP2    @BOUND+1,,AUTO
         3 000400   200364 236100                    LDQ     @BOUND+1,,AUTO
         3 000401   000222 036003                    ADLQ    146,DU
         3 000402   200116 757100                    STAQ    FPT_SETFMA,,AUTO

     3745    13168    3           IF FID_RESULTS.SN
PL6.E3A0      #016=XUG$BUILTIN_COMMON File=XUG$COMMON.:E05TSI                    WED 07/30/97 09:28 Page:729

  13168  3 000403   200340 236100                    LDQ     FID_RESULTS,,AUTO
         3 000404   040000 316003                    CANQ    16384,DU
         3 000405   000413 600000 3                  TZE     s:13172

     3746    13169    3           THEN                         /* Sn specified as well */
     3747    13170    3               FPT_SETFMA.PSN_ = VECTOR(VLP_SN.SN#) ;

  13170  3 000406   000010 235000 4                  LDA     8
         3 000407   200364 452500                    STP2    @BOUND+1,,AUTO
         3 000410   200364 236100                    LDQ     @BOUND+1,,AUTO
         3 000411   000225 036003                    ADLQ    149,DU
         3 000412   200120 757100                    STAQ    FPT_SETFMA+2,,AUTO

     3748    13171    3       END ;                          /* Do Case */

     3749    13172    2       CALL M$SETFMA (FPT_SETFMA) ALTRET(DIR_ERR) ;

  13172  3 000413   200116 630500                    EPPR0   FPT_SETFMA,,AUTO
         3 000414   460001 713400                    CLIMB   alt,+24577
         3 000415   400400 401760                    pmme    nvectors=2
         3 000416   000421 702000 3                  TSX2    DIR_ERR

     3750    13173    2       RETURN ;

  13173  3 000417   200352 221300                    LDX1  ! FID_RESULTS+10,,AUTO
         3 000420   000001 702211                    TSX2  ! 1,X1

     3751    13174    2   DIR_ERR:
     3752    13175    2       GETCMD.ERR# = B$TCB.ALT$ ->B$EXCFR.ERR ;

  13175  3 000421   000000 470400 xsym  DIR_ERR      LDP0    B$TCB$
         3 000422   000000 471500                    LDP1    0,,PR0
         3 000423   100102 236100                    LDQ     66,,PR1
         3 000424   200003 473500                    LDP3    @GETCMD,,AUTO
         3 000425   300001 756100                    STQ     1,,PR3

PL6.E3A0      #016=XUG$BUILTIN_COMMON File=XUG$COMMON.:E05TSI                    WED 07/30/97 09:28 Page:730
     3753    13176    2       ALTRETURN ;

  13176  3 000426   200352 221300                    LDX1  ! FID_RESULTS+10,,AUTO
         3 000427   000000 702211                    TSX2  ! 0,X1

     3754    13177    2   FID_ERR:
     3755    13178    2       GETCMD.ERR# = XUG#BDIRFID ;

  13178  3 000430   000172 236000 2     FID_ERR      LDQ     XUG#BDIRFID
         3 000431   200003 470500                    LDP0    @GETCMD,,AUTO
         3 000432   000001 756100                    STQ     1,,PR0

     3756    13179    2       GETCMD.PCB$->P$PCB.HI_CHAR = BLK$->P$B.SUBLK$(0)->P$B.CPOS ;

  13179  3 000433   000003 471500                    LDP1    3,,PR0
         3 000434   200054 473500                    LDP3    BLK$,,AUTO
         3 000435   300003 474500                    LDP4    3,,PR3
         3 000436   400002 235100                    LDA     2,,PR4
         3 000437   100012 755100                    STA     10,,PR1

     3757    13180    2       ALTRETURN ;

  13180  3 000440   200352 221300                    LDX1  ! FID_RESULTS+10,,AUTO
         3 000441   000000 702211                    TSX2  ! 0,X1

     3758    13181        /*E*  ERROR:  XUG-E$XUG#BDIRFID
     3759    13182              MESSAGE0: FID may only consist of DP#SN.ACCOUNT or .ACCOUNT.
     3760    13183        */
     3761    13184
     3762    13185    2   END     DIRECTORY_CMD ;
     3763    13186        %EJECT ;
PL6.E3A0      #016=XUG$BUILTIN_COMMON File=XUG$COMMON.:E05TSI                    WED 07/30/97 09:28 Page:731
     3764    13187    1   END_CMD: PROC ;

  13187  3 000442   200352 741300       END_CMD      STX1  ! FID_RESULTS+10,,AUTO

     3765    13188
     3766    13189    2       FPT_EXIT = FPT_EXIT_C ;

  13189  3 000443   000100 100400                    MLR     fill='000'O
         3 000444   000044 000030 2                  ADSC9   FPT_EXIT_C               cn=0,n=24
         3 000445   200062 000030                    ADSC9   FPT_EXIT,,AUTO           cn=0,n=24

     3767    13190    2       FPT_EXIT.V_ = VECTOR(FPT_EXIT.V) ;

  13190  3 000446   000003 235000 4                  LDA     3
         3 000447   200364 452500                    STP2    @BOUND+1,,AUTO
         3 000450   200364 236100                    LDQ     @BOUND+1,,AUTO
         3 000451   000066 036003                    ADLQ    54,DU
         3 000452   200062 757100                    STAQ    FPT_EXIT,,AUTO

     3768    13191    2       CALL M$EXIT (FPT_EXIT) ;

  13191  3 000453   200062 630500                    EPPR0   FPT_EXIT,,AUTO
         3 000454   000001 713400                    CLIMB   exit
         3 000455   400400 401760                    pmme    nvectors=2

     3769    13192
     3770    13193    2   END     END_CMD ;

  13193  3 000456   200352 221300                    LDX1  ! FID_RESULTS+10,,AUTO
         3 000457   000001 702211                    TSX2  ! 1,X1

     3771    13194        %EJECT ;
PL6.E3A0      #016=XUG$BUILTIN_COMMON File=XUG$COMMON.:E05TSI                    WED 07/30/97 09:28 Page:732
     3772    13195    1   ENTER_CMD: PROC ALTRET;

  13195  3 000460   200352 741300       ENTER_CMD    STX1  ! FID_RESULTS+10,,AUTO

     3773    13196
     3774    13197    2   DCL I SBIN;
     3775    13198
     3776    13199    2       IF GETCMD.XT_PARAM$ = ADDR(NIL)

  13199  3 000461   200003 470500                    LDP0    @GETCMD,,AUTO
         3 000462   000036 236100                    LDQ     30,,PR0
         3 000463   000001 116000 xsym               CMPQ    B_VECTNIL+1
         3 000464   000540 601000 3                  TNZ     s:13225

     3777    13200    3       THEN DO;

     3778    13201    3           XT$ = PINCRW(XUG$, SIZEW(XUG) + SIZEW(P$PCB));

  13201  3 000465   200005 236100                    LDQ     XUG$,,AUTO
         3 000466   000432 036003                    ADLQ    282,DU
         3 000467   200055 756100                    STQ     XT$,,AUTO

     3779    13202    3           XT_PARAM = XT_PARAM_C;

  13202  3 000470   200055 471500                    LDP1    XT$,,AUTO
         3 000471   000100 100400                    MLR     fill='000'O
         3 000472   000000 000200 2                  ADSC9   XT_PARAM_C               cn=0,n=128
         3 000473   100000 000200                    ADSC9   0,,PR1                   cn=0,n=128

     3780    13203    3           XT_PARAM.XUG$ = XUG$ ;

  13203  3 000474   200005 236100                    LDQ     XUG$,,AUTO
         3 000475   100015 756100                    STQ     13,,PR1

     3781    13204    3           XT_PARAM.USER$ = ADDR(GETCMD);

  13204  3 000476   200003 236100                    LDQ     @GETCMD,,AUTO
PL6.E3A0      #016=XUG$BUILTIN_COMMON File=XUG$COMMON.:E05TSI                    WED 07/30/97 09:28 Page:733
         3 000477   100022 756100                    STQ     18,,PR1

     3782    13205    3           GETCMD.XT_PARAM$ = XT$;

  13205  3 000500   200055 236100                    LDQ     XT$,,AUTO
         3 000501   000036 756100                    STQ     30,,PR0

     3783    13206    3           XT_PARAM.INDCB = GETCMD.INDCB# ;

  13206  3 000502   000012 235100                    LDA     10,,PR0
         3 000503   100004 755100                    STA     4,,PR1

     3784    13207    3           XT_PARAM.OUTDCB = GETCMD.OUTDCB# ;

  13207  3 000504   000013 235100                    LDA     11,,PR0
         3 000505   100003 755100                    STA     3,,PR1

     3785    13208
     3786    13209    3           CALL XUG.ADAPT$$ (XT_PARAM, %XT#RESTART)

  13209  3 000506   000011 236000 4                  LDQ     9
         3 000507   200055 235100                    LDA     XT$,,AUTO
         3 000510   200364 757100                    STAQ    @BOUND+1,,AUTO
         3 000511   200364 630500                    EPPR0   @BOUND+1,,AUTO
         3 000512   200005 473500                    LDP3    XUG$,,AUTO
         3 000513   300270 220100                    LDX0    184,,PR3
         3 000514   000020 631400 xsym               EPPR1   B_VECTNIL+16
         3 000515   000000 701010                    TSX1    0,X0
         3 000516   000520 702000 3                  TSX2    s:13211
         3 000517   000540 710000 3                  TRA     s:13225

     3787    13210    4           WHENALTRETURN DO;

     3788    13211    4               XUG.ADAPT$$ = ENTADDR(NIL);

  13211  3 000520   000002 236000 xsym               LDQ     B_VECTNIL+2
         3 000521   200005 470500                    LDP0    XUG$,,AUTO
PL6.E3A0      #016=XUG$BUILTIN_COMMON File=XUG$COMMON.:E05TSI                    WED 07/30/97 09:28 Page:734
         3 000522   000270 756100                    STQ     184,,PR0

     3789    13212    4               GETCMD.XT_PARAM$ = ADDR(NIL);

  13212  3 000523   000001 236000 xsym               LDQ     B_VECTNIL+1
         3 000524   200003 471500                    LDP1    @GETCMD,,AUTO
         3 000525   100036 756100                    STQ     30,,PR1

     3790    13213    4               IF XT_PARAM.ERR = XT#CANT_ADAPT

  13213  3 000526   200055 473500                    LDP3    XT$,,AUTO
         3 000527   300001 236100                    LDQ     1,,PR3
         3 000530   000177 116000 2                  CMPQ    XT#CANT_ADAPT
         3 000531   000535 601000 3                  TNZ     s:13215

     3791    13214    4               THEN GETCMD.ERR# = XUG#NO_ADAPT ;

  13214  3 000532   000176 236000 2                  LDQ     XUG#NO_ADAPT
         3 000533   100001 756100                    STQ     1,,PR1
         3 000534   000536 710000 3                  TRA     s:13216

     3792    13215    4               ELSE GETCMD.ERR# = XT_PARAM.ERR ;

  13215  3 000535   100001 756100                    STQ     1,,PR1

     3793    13216    4               ALTRETURN;

  13216  3 000536   200352 221300                    LDX1  ! FID_RESULTS+10,,AUTO
         3 000537   000000 702211                    TSX2  ! 0,X1

     3794    13217    4           END;
     3795    13218    3       END;

     3796    13219        /*E*  ERROR:   XUG-E$XUG#NO_ADAPT-0
     3797    13220              MESSAGE: The ADAPT dialog manager is not available.
     3798    13221              MESSAGE1: The ENTER command cannot be used because the Alternate Shared
     3799    13222                        Library (ADAPT_ASL) for the dialog manager is not installed.
PL6.E3A0      #016=XUG$BUILTIN_COMMON File=XUG$COMMON.:E05TSI                    WED 07/30/97 09:28 Page:735
     3800    13223        */
     3801    13224
     3802    13225    2       XT$ = GETCMD.XT_PARAM$;

  13225  3 000540   200003 470500                    LDP0    @GETCMD,,AUTO
         3 000541   000036 236100                    LDQ     30,,PR0
         3 000542   200055 756100                    STQ     XT$,,AUTO

     3803    13226    2       XT_PARAM.SCRIPT.PT$ = ADDR(NIL);

  13226  3 000543   000001 236000 xsym               LDQ     B_VECTNIL+1
         3 000544   200055 471500                    LDP1    XT$,,AUTO
         3 000545   100010 756100                    STQ     8,,PR1

     3804    13227    2       XT_PARAM.FRAME.PT$ = ADDR(NIL);

  13227  3 000546   100012 756100                    STQ     10,,PR1

     3805    13228    2       XT_PARAM.IBUF.PT$ = ADDR(NIL);

  13228  3 000547   100016 756100                    STQ     14,,PR1

     3806    13229    2       XT_PARAM.SCRIPT.LEN = 0 ;

  13229  3 000550   100011 450100                    STZ     9,,PR1

     3807    13230    2       XT_PARAM.FRAME.LEN = 0 ;

  13230  3 000551   100013 450100                    STZ     11,,PR1

     3808    13231    2       XT_PARAM.IBUF.LEN = 0 ;

  13231  3 000552   100017 450100                    STZ     15,,PR1

     3809    13232
     3810    13233    3       DO I = 0 TO BLK$ -> P$B.NSUBLKS - 1;

PL6.E3A0      #016=XUG$BUILTIN_COMMON File=XUG$COMMON.:E05TSI                    WED 07/30/97 09:28 Page:736
  13233  3 000553   200353 450100                    STZ     I,,AUTO
         3 000554   000607 710000 3                  TRA     s:13248+1

     3811    13234
     3812    13235    4           DO CASE (BLK$ -> P$B.SUBLK$(I) -> P$B.CODE);

  13235  3 000555   200054 470500                    LDP0    BLK$,,AUTO
         3 000556   200353 720100                    LXL0    I,,AUTO
         3 000557   000003 471510                    LDP1    3,X0,PR0
         3 000560   100000 721100                    LXL1    0,,PR1
         3 000561   000004 101003                    CMPX1   4,DU
         3 000562   000564 602011 3                  TNC     s:13235+7,X1
         3 000563   000606 710000 3                  TRA     s:13248
         3 000564   000606 710000 3                  TRA     s:13248
         3 000565   000570 710000 3                  TRA     s:13238
         3 000566   000574 710000 3                  TRA     s:13240
         3 000567   000600 710000 3                  TRA     s:13242

     3813    13236
     3814    13237    4           CASE (%XUG_SCRIPTFID);

     3815    13238    4               XT_PARAM.SCRIPT.PT$ = BLK$ -> P$B.SUBLK$(I) -> P$S.TEXTC$;

  13238  3 000570   100003 236100                    LDQ     3,,PR1
         3 000571   200055 473500                    LDP3    XT$,,AUTO
         3 000572   300010 756100                    STQ     8,,PR3
         3 000573   000606 710000 3                  TRA     s:13248

     3816    13239    4           CASE (%XUG_FRAMENAME);

     3817    13240    4               XT_PARAM.FRAME.PT$ = BLK$ -> P$B.SUBLK$(I) -> P$S.TEXTC$;

  13240  3 000574   100003 236100                    LDQ     3,,PR1
         3 000575   200055 473500                    LDP3    XT$,,AUTO
         3 000576   300012 756100                    STQ     10,,PR3
         3 000577   000606 710000 3                  TRA     s:13248

PL6.E3A0      #016=XUG$BUILTIN_COMMON File=XUG$COMMON.:E05TSI                    WED 07/30/97 09:28 Page:737
     3818    13241    4           CASE (%XUG_TEXT);

     3819    13242    4               IF BLK$-> P$B.SUBLK$(I)-> P$S.COUNT > 0

  13242  3 000600   100004 236100                    LDQ     4,,PR1
         3 000601   777000 316003                    CANQ    -512,DU
         3 000602   000606 600000 3                  TZE     s:13248

     3820    13243    4               THEN
     3821    13244    4                   XT_PARAM.IBUF.PT$ = BLK$ -> P$B.SUBLK$(I) -> P$S.TEXTC$;

  13244  3 000603   100003 236100                    LDQ     3,,PR1
         3 000604   200055 473500                    LDP3    XT$,,AUTO
         3 000605   300016 756100                    STQ     14,,PR3

     3822    13245
     3823    13246    4           END;

     3824    13247
     3825    13248    3       END;

  13248  3 000606   200353 054100                    AOS     I,,AUTO
         3 000607   200054 470500                    LDP0    BLK$,,AUTO
         3 000610   000001 236100                    LDQ     1,,PR0
         3 000611   000022 772000                    QRL     18
         3 000612   200353 116100                    CMPQ    I,,AUTO
         3 000613   000555 605400 3                  TPNZ    s:13235

     3826    13249
     3827    13250    2       CALL XUG.ADAPT$$ (XT_PARAM, %XT#ENTER)

  13250  3 000614   000012 236000 4                  LDQ     10
         3 000615   200055 235100                    LDA     XT$,,AUTO
         3 000616   200364 757100                    STAQ    @BOUND+1,,AUTO
         3 000617   200364 630500                    EPPR0   @BOUND+1,,AUTO
         3 000620   200005 471500                    LDP1    XUG$,,AUTO
         3 000621   100270 220100                    LDX0    184,,PR1
PL6.E3A0      #016=XUG$BUILTIN_COMMON File=XUG$COMMON.:E05TSI                    WED 07/30/97 09:28 Page:738
         3 000622   000020 631400 xsym               EPPR1   B_VECTNIL+16
         3 000623   000000 701010                    TSX1    0,X0
         3 000624   000627 702000 3                  TSX2    s:13255

     3828    13251    3       WHENRETURN DO;

     3829    13252    3           RETURN;

  13252  3 000625   200352 221300                    LDX1  ! FID_RESULTS+10,,AUTO
         3 000626   000001 702211                    TSX2  ! 1,X1

     3830    13253    3       END;
     3831    13254    3       WHENALTRETURN DO;

     3832    13255    3           GETCMD.ERR# = XT_PARAM.ERR;

  13255  3 000627   200055 470500                    LDP0    XT$,,AUTO
         3 000630   000001 236100                    LDQ     1,,PR0
         3 000631   200003 471500                    LDP1    @GETCMD,,AUTO
         3 000632   100001 756100                    STQ     1,,PR1

     3833    13256    3           ALTRETURN;

  13256  3 000633   200352 221300                    LDX1  ! FID_RESULTS+10,,AUTO
         3 000634   000000 702211                    TSX2  ! 0,X1

     3834    13257    3       END;
     3835    13258
     3836    13259    2   END ENTER_CMD;
     3837    13260
     3838    13261        %EJECT;
PL6.E3A0      #016=XUG$BUILTIN_COMMON File=XUG$COMMON.:E05TSI                    WED 07/30/97 09:28 Page:739
     3839    13262    1   DO_CMD: PROC ALTRET ;

  13262  3 000635   200352 741300       DO_CMD       STX1  ! FID_RESULTS+10,,AUTO

     3840    13263
     3841    13264    2   DCL POST_EXEC EPTR;
     3842    13265
     3843    13266    2       POST_EXEC = XUG.POST_EXEC;

  13266  3 000636   200005 470500                    LDP0    XUG$,,AUTO
         3 000637   000027 236100                    LDQ     23,,PR0
         3 000640   200353 756100                    STQ     POST_EXEC,,AUTO

     3844    13267    2       IF BLK$->P$B.SUBLK$(0)->P$S.COUNT = 0

  13267  3 000641   200054 471500                    LDP1    BLK$,,AUTO
         3 000642   100003 473500                    LDP3    3,,PR1
         3 000643   300004 236100                    LDQ     4,,PR3
         3 000644   777000 316003                    CANQ    -512,DU
         3 000645   000647 601000 3                  TNZ     s:13270

     3845    13268    2       THEN
     3846    13269    2           RETURN ;

  13269  3 000646   000001 702211                    TSX2  ! 1,X1

     3847    13270    2       IF BLK$->P$B.SUBLK$(0)->P$S.COUNT > 256

  13270  3 000647   300004 236100                    LDQ     4,,PR3
         3 000650   777000 376003                    ANQ     -512,DU
         3 000651   401000 116003                    CMPQ    -130560,DU
         3 000652   000665 602000 3                  TNC     s:13281

     3848    13271    2       THEN
     3849    13272    3       DO ;

     3850    13273    3           GETCMD.ERR# = XUG#DOCMD2BIG ;
PL6.E3A0      #016=XUG$BUILTIN_COMMON File=XUG$COMMON.:E05TSI                    WED 07/30/97 09:28 Page:740

  13273  3 000653   000173 236000 2                  LDQ     XUG#DOCMD2BIG
         3 000654   200003 474500                    LDP4    @GETCMD,,AUTO
         3 000655   400001 756100                    STQ     1,,PR4

     3851    13274    3           GETCMD.PCB$->P$PCB.HI_CHAR = BLK$->P$B.SUBLK$(0)->P$S.CPOS+256 ;

  13274  3 000656   400003 473500                    LDP3    3,,PR4
         3 000657   100003 475500                    LDP5    3,,PR1
         3 000660   500002 235100                    LDA     2,,PR5
         3 000661   000400 035007                    ADLA    256,DL
         3 000662   300012 755100                    STA     10,,PR3

     3852    13275    3           ALTRETURN;

  13275  3 000663   200352 221300                    LDX1  ! FID_RESULTS+10,,AUTO
         3 000664   000000 702211                    TSX2  ! 0,X1

     3853    13276    3       END ;                        /* Then Do */
     3854    13277        /*E*  ERROR:  XUG-E$XUG#DOCMD2BIG
     3855    13278              MESSAGE0: DO command too big.
     3856    13279              MESSAGE1: The DO command can be at most 256 characters long.
     3857    13280        */
     3858    13281    2       FPT_YC = FPT_YC_C ;

  13281  3 000665   000100 100400                    MLR     fill='000'O
         3 000666   000052 000040 2                  ADSC9   FPT_YC_C                 cn=0,n=32
         3 000667   200070 000040                    ADSC9   FPT_YC,,AUTO             cn=0,n=32

     3859    13282    2       FPT_YC.V_ = VECTOR(FPT_YC.V) ;

  13282  3 000670   000003 235000 4                  LDA     3
         3 000671   200364 452500                    STP2    @BOUND+1,,AUTO
         3 000672   200364 236100                    LDQ     @BOUND+1,,AUTO
         3 000673   000076 036003                    ADLQ    62,DU
         3 000674   200072 757100                    STAQ    FPT_YC+2,,AUTO

PL6.E3A0      #016=XUG$BUILTIN_COMMON File=XUG$COMMON.:E05TSI                    WED 07/30/97 09:28 Page:741
     3860    13283    2       FPT_YC.CMD_ = VECTOR(BLK$->P$B.SUBLK$(0)->P$S.TEXT) ;

  13283  3 000675   100003 473500                    LDP3    3,,PR1
         3 000676   300004 236100                    LDQ     4,,PR3
         3 000677   000033 772000                    QRL     27
         3 000700   000064 737000                    LLS     52
         3 000701   000140 135007                    SBLA    96,DL
         3 000702   200364 453500                    STP3    @BOUND+1,,AUTO
         3 000703   200364 236100                    LDQ     @BOUND+1,,AUTO
         3 000704   000001 036000 4                  ADLQ    1
         3 000705   200070 757100                    STAQ    FPT_YC,,AUTO

     3861    13284    2       FPT_YC.REPLY_ = VECTOR(VLR_YC) ;

  13284  3 000706   000003 235000 4                  LDA     3
         3 000707   200364 452500                    STP2    @BOUND+1,,AUTO
         3 000710   200364 236100                    LDQ     @BOUND+1,,AUTO
         3 000711   000100 036003                    ADLQ    64,DU
         3 000712   200074 757100                    STAQ    FPT_YC+4,,AUTO

     3862    13285    2       FPT_YC.V.LINK# = %YES# ;

  13285  3 000713   100000 236003                    LDQ     32768,DU
         3 000714   200076 256100                    ORSQ    FPT_YC+6,,AUTO

     3863    13286    2       IF XUG.DOCMD_SYNERR

  13286  3 000715   000071 236100                    LDQ     57,,PR0
         3 000716   000100 316003                    CANQ    64,DU
         3 000717   000723 600000 3                  TZE     s:13290

     3864    13287    2       THEN
     3865    13288    2           FPT_YC.V.REPARSE# = %YES# ;

  13288  3 000720   040000 236003                    LDQ     16384,DU
         3 000721   200076 256100                    ORSQ    FPT_YC+6,,AUTO
         3 000722   000725 710000 3                  TRA     s:13291
PL6.E3A0      #016=XUG$BUILTIN_COMMON File=XUG$COMMON.:E05TSI                    WED 07/30/97 09:28 Page:742

     3866    13289    2       ELSE
     3867    13290    2           FPT_YC.V.REPARSE# = %NO# ;

  13290  3 000723   000013 236000 4                  LDQ     11
         3 000724   200076 356100                    ANSQ    FPT_YC+6,,AUTO

     3868    13291    2       XUG.DOCMD_SYNERR = %NO# ;

  13291  3 000725   000014 236000 4                  LDQ     12
         3 000726   000071 356100                    ANSQ    57,,PR0

     3869    13292    2       CALL M$YC (FPT_YC) ALTRET(M$YC_ERR) ;

  13292  3 000727   200070 630500                    EPPR0   FPT_YC,,AUTO
         3 000730   400011 713400                    CLIMB   alt,+9
         3 000731   401000 401760                    pmme    nvectors=3
         3 000732   000751 702000 3                  TSX2    M$YC_ERR

     3870    13293        /*
     3871    13294            Special handling of POST_EXEC routine is needed after linking to
     3872    13295            another program, because memory allocation by that program
     3873    13296            (notably COMMON) will require argument stack descriptors
     3874    13297            to be reloaded by programs that use them (notably APL).
     3875    13298        */
     3876    13299    2       IF POST_EXEC ~= ENTADDR(NIL)

  13299  3 000733   200353 236100                    LDQ     POST_EXEC,,AUTO
         3 000734   000002 116000 xsym               CMPQ    B_VECTNIL+2
         3 000735   000747 600000 3                  TZE     s:13302

     3877    13300    2       THEN
     3878    13301    2           CALL POST_EXEC (GETCMD,CODE) ALTRET(ALT);

  13301  3 000736   200006 630500                    EPPR0   CODE,,AUTO
         3 000737   200365 450500                    STP0    @BOUND+2,,AUTO
         3 000740   200003 236100                    LDQ     @GETCMD,,AUTO
PL6.E3A0      #016=XUG$BUILTIN_COMMON File=XUG$COMMON.:E05TSI                    WED 07/30/97 09:28 Page:743
         3 000741   200364 756100                    STQ     @BOUND+1,,AUTO
         3 000742   200364 630500                    EPPR0   @BOUND+1,,AUTO
         3 000743   200353 220100                    LDX0    POST_EXEC,,AUTO
         3 000744   000020 631400 xsym               EPPR1   B_VECTNIL+16
         3 000745   000000 701010                    TSX1    0,X0
         3 000746   001045 702000 3                  TSX2    ALT

     3879    13302    2       RETURN;

  13302  3 000747   200352 221300                    LDX1  ! FID_RESULTS+10,,AUTO
         3 000750   000001 702211                    TSX2  ! 1,X1

     3880    13303    2   M$YC_ERR:
     3881    13304    2       ERR = B$TCB.ALT$ -> B$EXCFR.ERR ;

  13304  3 000751   000000 470400 xsym  M$YC_ERR     LDP0    B$TCB$
         3 000752   000000 471500                    LDP1    0,,PR0
         3 000753   100102 236100                    LDQ     66,,PR1
         3 000754   200004 756100                    STQ     ERR,,AUTO

     3882    13305    2       IF POST_EXEC ~= ENTADDR(NIL)

  13305  3 000755   200353 236100                    LDQ     POST_EXEC,,AUTO
         3 000756   000002 116000 xsym               CMPQ    B_VECTNIL+2
         3 000757   000771 600000 3                  TZE     s:13308

     3883    13306    2       THEN
     3884    13307    2           CALL POST_EXEC (GETCMD,CODE);

  13307  3 000760   200006 633500                    EPPR3   CODE,,AUTO
         3 000761   200365 453500                    STP3    @BOUND+2,,AUTO
         3 000762   200003 236100                    LDQ     @GETCMD,,AUTO
         3 000763   200364 756100                    STQ     @BOUND+1,,AUTO
         3 000764   200364 630500                    EPPR0   @BOUND+1,,AUTO
         3 000765   200353 220100                    LDX0    POST_EXEC,,AUTO
         3 000766   000020 631400 xsym               EPPR1   B_VECTNIL+16
         3 000767   000000 701010                    TSX1    0,X0
PL6.E3A0      #016=XUG$BUILTIN_COMMON File=XUG$COMMON.:E05TSI                    WED 07/30/97 09:28 Page:744
         3 000770   000000 011000                    NOP     0

     3885    13308    2       IF B$JIT.CPFLAGS1 & %CP_EXIT#
             13308                /* callee M$EXIT/M$ERR/M$XXX with CODE=something */

  13308  3 000771   000000 470400 xsym               LDP0    B$JIT$
         3 000772   000143 236100                    LDQ     99,,PR0
         3 000773   000205 376000 2                  ANQ     XT#CANT_ADAPT+6
         3 000774   001011 600000 3                  TZE     s:13317

     3886    13309    3       THEN DO;

     3887    13310    3           XUG.ERRSAVE = ERR;

  13310  3 000775   200004 236100                    LDQ     ERR,,AUTO
         3 000776   200005 471500                    LDP1    XUG$,,AUTO
         3 000777   100067 756100                    STQ     55,,PR1

     3888    13311    3           XUG.ERRDCB = DCBNUM(NIL);

  13311  3 001000   100070 450100                    STZ     56,,PR1

     3889    13312    3           XUG.NO_INCREMENT = %YES#;

  13312  3 001001   000001 236007                    LDQ     1,DL
         3 001002   100071 256100                    ORSQ    57,,PR1

     3890    13313    3           XUG.FIRST_ERROR = %YES#;

  13313  3 001003   000002 236007                    LDQ     2,DL
         3 001004   100071 256100                    ORSQ    57,,PR1

     3891    13314    3           XUG.LAST_FLAGLEV = 0;

  13314  3 001005   000000 236003                    LDQ     0,DU
         3 001006   100266 552120                    STBQ    182,'20'O,PR1

PL6.E3A0      #016=XUG$BUILTIN_COMMON File=XUG$COMMON.:E05TSI                    WED 07/30/97 09:28 Page:745
     3892    13315    3           RETURN;

  13315  3 001007   200352 221300                    LDX1  ! FID_RESULTS+10,,AUTO
         3 001010   000001 702211                    TSX2  ! 1,X1

     3893    13316    3       END;
     3894    13317    2       GETCMD.PCB$->P$PCB.HI_CHAR = VLR_YC.CPOS + BLK$->P$B.SUBLK$(0) ->

  13317  3 001011   200003 471500                    LDP1    @GETCMD,,AUTO
         3 001012   100003 473500                    LDP3    3,,PR1
         3 001013   200054 474500                    LDP4    BLK$,,AUTO
         3 001014   400003 475500                    LDP5    3,,PR4
         3 001015   200100 236100                    LDQ     VLR_YC,,AUTO
         3 001016   500002 036100                    ADLQ    2,,PR5
         3 001017   300012 756100                    STQ     10,,PR3

     3895    13318    2         P$S.CPOS ;
     3896    13319    2       IF NOT ERR.MON AND ERR.CODE=%E$SYNERR

  13319  3 001020   200004 236100                    LDQ     ERR,,AUTO
         3 001021   400000 316007                    CANQ    -131072,DL
         3 001022   001042 601000 3                  TNZ     s:13327
         3 001023   200004 236100                    LDQ     ERR,,AUTO
         3 001024   377770 376007                    ANQ     131064,DL
         3 001025   000010 116007                    CMPQ    8,DL
         3 001026   001042 601000 3                  TNZ     s:13327

     3897    13320    2       THEN
     3898    13321    3       DO ;

     3899    13322    3           CALL XUG$SINPUT (GETCMD);

  13322  3 001027   200003 630500                    EPPR0   @GETCMD,,AUTO
         3 001030   000017 631400 xsym               EPPR1   B_VECTNIL+15
         3 001031   000000 701000 xent               TSX1    XUG$SINPUT
         3 001032   000000 011000                    NOP     0

PL6.E3A0      #016=XUG$BUILTIN_COMMON File=XUG$COMMON.:E05TSI                    WED 07/30/97 09:28 Page:746
     3900    13323    3           XUG.SYNERR=%YES# ;

  13323  3 001033   200005 470500                    LDP0    XUG$,,AUTO
         3 001034   004000 236003                    LDQ     2048,DU
         3 001035   000071 256100                    ORSQ    57,,PR0

     3901    13324    3           XUG.DOCMD_SYNERR=%YES# ;

  13324  3 001036   000100 236003                    LDQ     64,DU
         3 001037   000071 256100                    ORSQ    57,,PR0

     3902    13325    3           ERR.MID='07'O;

  13325  3 001040   000007 236003                    LDQ     7,DU
         3 001041   200004 752110                    STCQ    ERR,'10'O,AUTO

     3903    13326    3       END ;                        /* Then Do */

     3904    13327    2       GETCMD.ERR# = ERR;

  13327  3 001042   200004 236100                    LDQ     ERR,,AUTO
         3 001043   200003 470500                    LDP0    @GETCMD,,AUTO
         3 001044   000001 756100                    STQ     1,,PR0

     3905    13328    2   ALT: ALTRETURN;

  13328  3 001045   200352 221300       ALT          LDX1  ! FID_RESULTS+10,,AUTO
         3 001046   000000 702211                    TSX2  ! 0,X1

     3906    13329
     3907    13330    2   END     DO_CMD ;
     3908    13331        %EJECT ;
PL6.E3A0      #016=XUG$BUILTIN_COMMON File=XUG$COMMON.:E05TSI                    WED 07/30/97 09:28 Page:747
     3909    13332    1   ERASE_CMD: PROC ALTRET ;

  13332  3 001047   200352 741300       ERASE_CMD    STX1  ! FID_RESULTS+10,,AUTO

     3910    13333        /**/
     3911    13334    2   DCL I UBIN WORD ;
     3912    13335        /**/
     3913    13336    2       FPT_LDEV = FPT_LDEV_C ;

  13336  3 001050   000100 100400                    MLR     fill='000'O
         3 001051   000132 000120 2                  ADSC9   FPT_LDEV_C               cn=0,n=80
         3 001052   200152 000120                    ADSC9   FPT_LDEV,,AUTO           cn=0,n=80

     3914    13337    2       FPT_LDEV.V_ = VECTOR(FPT_LDEV.V);

  13337  3 001053   000015 235000 4                  LDA     13
         3 001054   200364 452500                    STP2    @BOUND+1,,AUTO
         3 001055   200364 236100                    LDQ     @BOUND+1,,AUTO
         3 001056   000170 036003                    ADLQ    120,DU
         3 001057   200152 757100                    STAQ    FPT_LDEV,,AUTO

     3915    13338    2       FPT_LDEV.V.DELETE# = %YES#;

  13338  3 001060   040000 236003                    LDQ     16384,DU
         3 001061   200171 256100                    ORSQ    FPT_LDEV+15,,AUTO

     3916    13339    2       IF BLK$->P$B.NSUBLKS = 0

  13339  3 001062   200054 470500                    LDP0    BLK$,,AUTO
         3 001063   000001 220100                    LDX0    1,,PR0
         3 001064   001077 601000 3                  TNZ     s:13346

     3917    13340    2       THEN
     3918    13341    3       DO;

     3919    13342    3           FPT_LDEV.V.STREAMNAME# = 'ALL';

PL6.E3A0      #016=XUG$BUILTIN_COMMON File=XUG$COMMON.:E05TSI                    WED 07/30/97 09:28 Page:748
  13342  3 001065   000206 236000 2                  LDQ     XT#CANT_ADAPT+7
         3 001066   000016 376000 4                  ANQ     14
         3 001067   000040 276007                    ORQ     32,DL
         3 001070   200170 756100                    STQ     FPT_LDEV+14,,AUTO

     3920    13343    3           CALL M$LDEV(FPT_LDEV) ALTRET(ERASE_ERR);

  13343  3 001071   200152 630500                    EPPR0   FPT_LDEV,,AUTO
         3 001072   460004 713400                    CLIMB   alt,+24580
         3 001073   403000 401760                    pmme    nvectors=7
         3 001074   001153 702000 3                  TSX2    ERASE_ERR

     3921    13344    3           RETURN;

  13344  3 001075   200352 221300                    LDX1  ! FID_RESULTS+10,,AUTO
         3 001076   000001 702211                    TSX2  ! 1,X1

     3922    13345    3       END;
     3923    13346    2       I = 0;

  13346  3 001077   200353 450100                    STZ     I,,AUTO

     3924    13347    3       DO WHILE(I < BLK$->P$B.NSUBLKS);

  13347  3 001100   000001 236100                    LDQ     1,,PR0
         3 001101   000022 772000                    QRL     18
         3 001102   200353 116100                    CMPQ    I,,AUTO
         3 001103   001151 602000 3                  TNC     s:13362
         3 001104   001151 600000 3                  TZE     s:13362

     3925    13348    3           IF BLK$ -> P$B.SUBLK$(I)->P$S.COUNT > 4

  13348  3 001105   200054 470500                    LDP0    BLK$,,AUTO
         3 001106   200353 720100                    LXL0    I,,AUTO
         3 001107   000003 471510                    LDP1    3,X0,PR0
         3 001110   100004 236100                    LDQ     4,,PR1
         3 001111   777000 376003                    ANQ     -512,DU
PL6.E3A0      #016=XUG$BUILTIN_COMMON File=XUG$COMMON.:E05TSI                    WED 07/30/97 09:28 Page:749
         3 001112   005000 116003                    CMPQ    2560,DU
         3 001113   001126 602000 3                  TNC     s:13358

     3926    13349    3           THEN
     3927    13350    4           DO ;

     3928    13351    4               GETCMD.ERR# = XUG#BIG4CHAR ;

  13351  3 001114   000174 236000 2                  LDQ     XUG#BIG4CHAR
         3 001115   200003 473500                    LDP3    @GETCMD,,AUTO
         3 001116   300001 756100                    STQ     1,,PR3

     3929    13352    4               GETCMD.PCB$->P$PCB.HI_CHAR = BLK$->P$B.SUBLK$(I)->P$S.CPOS+4 ;

  13352  3 001117   300003 471500                    LDP1    3,,PR3
         3 001120   000003 474510                    LDP4    3,X0,PR0
         3 001121   400002 235100                    LDA     2,,PR4
         3 001122   000004 035007                    ADLA    4,DL
         3 001123   100012 755100                    STA     10,,PR1

     3930    13353    4               ALTRETURN;

  13353  3 001124   200352 221300                    LDX1  ! FID_RESULTS+10,,AUTO
         3 001125   000000 702211                    TSX2  ! 0,X1

     3931    13354    4           END ;                     /* Then Do */
     3932    13355        /*E*  ERROR:  XUG-E$XUG#BIG4CHAR
     3933    13356              MESSAGE0: Only four or less characters allowed.
     3934    13357        */
     3935    13358    3           FPT_LDEV.V.STREAMNAME# = BLK$ -> P$B.SUBLK$(I) -> P$S.TEXT;

  13358  3 001126   100004 236100                    LDQ     4,,PR1
         3 001127   000033 772000                    QRL     27
         3 001130   000000 621006                    EAX1    0,QL
         3 001131   040100 100540                    MLR     fill='040'O
         3 001132   100004 200011                    ADSC9   4,,PR1                   cn=1,n=*X1
         3 001133   200170 000004                    ADSC9   FPT_LDEV+14,,AUTO        cn=0,n=4
PL6.E3A0      #016=XUG$BUILTIN_COMMON File=XUG$COMMON.:E05TSI                    WED 07/30/97 09:28 Page:750

     3936    13359    3           CALL M$LDEV(FPT_LDEV) ALTRET(ERASE_ERR);

  13359  3 001134   200152 630500                    EPPR0   FPT_LDEV,,AUTO
         3 001135   460004 713400                    CLIMB   alt,+24580
         3 001136   403000 401760                    pmme    nvectors=7
         3 001137   001153 702000 3                  TSX2    ERASE_ERR

     3937    13360    3           I = I + 1;

  13360  3 001140   200353 235100                    LDA     I,,AUTO
         3 001141   000001 035007                    ADLA    1,DL
         3 001142   200353 755100                    STA     I,,AUTO

     3938    13361    3       END;

  13361  3 001143   200054 470500                    LDP0    BLK$,,AUTO
         3 001144   000001 236100                    LDQ     1,,PR0
         3 001145   000022 772000                    QRL     18
         3 001146   200353 116100                    CMPQ    I,,AUTO
         3 001147   001151 600000 3                  TZE     s:13362
         3 001150   001105 603000 3                  TRC     s:13348

     3939    13362    2       RETURN;

  13362  3 001151   200352 221300                    LDX1  ! FID_RESULTS+10,,AUTO
         3 001152   000001 702211                    TSX2  ! 1,X1

     3940    13363    2   ERASE_ERR:
     3941    13364    2       GETCMD.ERR# = B$TCB.ALT$->B$EXCFR.ERR ;

  13364  3 001153   000000 470400 xsym  ERASE_ERR    LDP0    B$TCB$
         3 001154   000000 471500                    LDP1    0,,PR0
         3 001155   100102 236100                    LDQ     66,,PR1
         3 001156   200003 473500                    LDP3    @GETCMD,,AUTO
         3 001157   300001 756100                    STQ     1,,PR3

PL6.E3A0      #016=XUG$BUILTIN_COMMON File=XUG$COMMON.:E05TSI                    WED 07/30/97 09:28 Page:751
     3942    13365    2       GETCMD.PCB$->P$PCB.HI_CHAR = BLK$->P$B.SUBLK$(I)->P$S.CPOS ;

  13365  3 001160   300003 471500                    LDP1    3,,PR3
         3 001161   200054 474500                    LDP4    BLK$,,AUTO
         3 001162   200353 720100                    LXL0    I,,AUTO
         3 001163   400003 475510                    LDP5    3,X0,PR4
         3 001164   500002 235100                    LDA     2,,PR5
         3 001165   100012 755100                    STA     10,,PR1

     3943    13366    2   ERASE_ALT:
     3944    13367    2       ALTRETURN;

  13367  3 001166   200352 221300       ERASE_ALT    LDX1  ! FID_RESULTS+10,,AUTO
         3 001167   000000 702211                    TSX2  ! 0,X1

     3945    13368    2   END     ERASE_CMD ;
     3946    13369        %EJECT ;
PL6.E3A0      #016=XUG$BUILTIN_COMMON File=XUG$COMMON.:E05TSI                    WED 07/30/97 09:28 Page:752
     3947    13370    1   HELP_CMD: PROC ALTRET ;

  13370  3 001170   200352 741300       HELP_CMD     STX1  ! FID_RESULTS+10,,AUTO

     3948    13371
     3949    13372    2       IF GETCMD.XUH$ = ADDR(NIL)

  13372  3 001171   200003 470500                    LDP0    @GETCMD,,AUTO
         3 001172   000005 236100                    LDQ     5,,PR0
         3 001173   000001 116000 xsym               CMPQ    B_VECTNIL+1
         3 001174   001200 601000 3                  TNZ     s:13376

     3950    13373    2       THEN
     3951    13374    2           GETCMD.XUH$ = ADDR(XUG.XUH_PARAM);

  13374  3 001175   200005 236100                    LDQ     XUG$,,AUTO
         3 001176   000154 036003                    ADLQ    108,DU
         3 001177   000005 756100                    STQ     5,,PR0

     3952    13375
     3953    13376    3       DO CASE(CODE) ;

  13376  3 001200   200006 235100                    LDA     CODE,,AUTO
         3 001201   000005 135007                    SBLA    5,DL
         3 001202   000005 115007                    CMPA    5,DL
         3 001203   001205 602005 3                  TNC     s:13376+5,AL
         3 001204   001243 710000 3                  TRA     NORMAL_RETURN
         3 001205   001224 710000 3                  TRA     s:13385
         3 001206   001243 710000 3                  TRA     NORMAL_RETURN
         3 001207   001243 710000 3                  TRA     NORMAL_RETURN
         3 001210   001212 710000 3                  TRA     s:13379
         3 001211   001217 710000 3                  TRA     s:13382

     3954    13377
     3955    13378    3       CASE(%XUG_CMD_Q1);

     3956    13379    3           CALL XUG$MOREMSG_COMMON(GETCMD) ALTRET(GIVE_ERR_MSG) ;
PL6.E3A0      #016=XUG$BUILTIN_COMMON File=XUG$COMMON.:E05TSI                    WED 07/30/97 09:28 Page:753

  13379  3 001212   200003 630500                    EPPR0   @GETCMD,,AUTO
         3 001213   000017 631400 xsym               EPPR1   B_VECTNIL+15
         3 001214   000000 701000 xent               TSX1    XUG$MOREMSG_COMMON
         3 001215   001245 702000 3                  TSX2    GIVE_ERR_MSG
         3 001216   001243 710000 3                  TRA     NORMAL_RETURN

     3957    13380
     3958    13381    3       CASE(%XUG_CMD_Q2);

     3959    13382    3           CALL XUG$ALLMSG_COMMON(GETCMD) ALTRET(GIVE_ERR_MSG) ;

  13382  3 001217   200003 630500                    EPPR0   @GETCMD,,AUTO
         3 001220   000017 631400 xsym               EPPR1   B_VECTNIL+15
         3 001221   000000 701000 xent               TSX1    XUG$ALLMSG_COMMON
         3 001222   001245 702000 3                  TSX2    GIVE_ERR_MSG
         3 001223   001243 710000 3                  TRA     NORMAL_RETURN

     3960    13383
     3961    13384    3       CASE(%XUG_CMD_HELP);

     3962    13385    3           IF BLK$ -> P$B.NSUBLKS = 0

  13385  3 001224   200054 471500                    LDP1    BLK$,,AUTO
         3 001225   100001 220100                    LDX0    1,,PR1
         3 001226   001233 601000 3                  TNZ     s:13389

     3963    13386    3           THEN
     3964    13387    3               XUH$PARAM.HELP$ = ADDR(NULL_HELP_TOPIC);

  13387  3 001227   000005 473500                    LDP3    5,,PR0
         3 001230   000017 236000 4                  LDQ     15
         3 001231   300011 756100                    STQ     9,,PR3
         3 001232   001237 710000 3                  TRA     s:13390

     3965    13388    3           ELSE
     3966    13389    3               XUH$PARAM.HELP$=BLK$->P$B.SUBLK$(0)->P$S.TEXTC$;
PL6.E3A0      #016=XUG$BUILTIN_COMMON File=XUG$COMMON.:E05TSI                    WED 07/30/97 09:28 Page:754

  13389  3 001233   000005 473500                    LDP3    5,,PR0
         3 001234   100003 474500                    LDP4    3,,PR1
         3 001235   400003 236100                    LDQ     3,,PR4
         3 001236   300011 756100                    STQ     9,,PR3

     3967    13390    3           CALL XUG$HELP_COMMON(GETCMD) ALTRET(NORMAL_RETURN) ;

  13390  3 001237   200003 630500                    EPPR0   @GETCMD,,AUTO
         3 001240   000017 631400 xsym               EPPR1   B_VECTNIL+15
         3 001241   000000 701000 xent               TSX1    XUG$HELP_COMMON
         3 001242   001243 702000 3                  TSX2    NORMAL_RETURN

     3968    13391    3       END ;                          /* Do Case */

     3969    13392    2   NORMAL_RETURN:
     3970    13393    2       RETURN ;

  13393  3 001243   200352 221300       NORMAL_RETU* LDX1  ! FID_RESULTS+10,,AUTO
         3 001244   000001 702211                    TSX2  ! 1,X1

     3971    13394
     3972    13395    2   GIVE_ERR_MSG:
     3973    13396    2       GETCMD.ERR_CODE = XUG#NO_MORE ;

  13396  3 001245   000175 236000 2     GIVE_ERR_MSG LDQ     XUG#NO_MORE
         3 001246   200003 470500                    LDP0    @GETCMD,,AUTO
         3 001247   000010 756100                    STQ     8,,PR0

     3974    13397        /*E*   ERROR:   XUG-E$XUG#NO_MORE
     3975    13398               MESSAGE: No messages available.
     3976    13399               MESSAGE1: Th Th Th That's all fffolks!
     3977    13400                                                                          */
     3978    13401    2       GETCMD.ERRDCB# = B$TCB.ALT$->B$EXCFR.DCB# ;

  13401  3 001250   000000 471400 xsym               LDP1    B$TCB$
         3 001251   100000 473500                    LDP3    0,,PR1
PL6.E3A0      #016=XUG$BUILTIN_COMMON File=XUG$COMMON.:E05TSI                    WED 07/30/97 09:28 Page:755
         3 001252   300101 235100                    LDA     65,,PR3
         3 001253   000011 755100                    STA     9,,PR0

     3979    13402    2       GETCMD.F1_ = VECTOR(NIL) ;

  13402  3 001254   000020 237000 4                  LDAQ    16
         3 001255   000017 755100                    STA     15,,PR0
         3 001256   000020 756100                    STQ     16,,PR0

     3980    13403    2       GETCMD.F2_ = VECTOR(NIL) ;

  13403  3 001257   000020 237000 4                  LDAQ    16
         3 001260   000021 755100                    STA     17,,PR0
         3 001261   000022 756100                    STQ     18,,PR0

     3981    13404    2       GETCMD.F3_ = VECTOR(NIL) ;

  13404  3 001262   000020 237000 4                  LDAQ    16
         3 001263   000023 755100                    STA     19,,PR0
         3 001264   000024 756100                    STQ     20,,PR0

     3982    13405    2       GETCMD.FLGLEV# = 0 ;

  13405  3 001265   000000 236003                    LDQ     0,DU
         3 001266   000006 552120                    STBQ    6,'20'O,PR0

     3983    13406    2       CALL XUG$ERRMSG_COMMON(GETCMD) ALTRET(HELP_ERR) ;

  13406  3 001267   200003 630500                    EPPR0   @GETCMD,,AUTO
         3 001270   000017 631400 xsym               EPPR1   B_VECTNIL+15
         3 001271   000000 701000 xent               TSX1    XUG$ERRMSG_COMMON
         3 001272   001275 702000 3                  TSX2    HELP_ERR

     3984    13407    2       RETURN ;

  13407  3 001273   200352 221300                    LDX1  ! FID_RESULTS+10,,AUTO
         3 001274   000001 702211                    TSX2  ! 1,X1
PL6.E3A0      #016=XUG$BUILTIN_COMMON File=XUG$COMMON.:E05TSI                    WED 07/30/97 09:28 Page:756

     3985    13408    2   HELP_ERR:
     3986    13409    2       GETCMD.ERR# = B$TCB.ALT$->B$EXCFR.ERR ;

  13409  3 001275   000000 470400 xsym  HELP_ERR     LDP0    B$TCB$
         3 001276   000000 471500                    LDP1    0,,PR0
         3 001277   100102 236100                    LDQ     66,,PR1
         3 001300   200003 473500                    LDP3    @GETCMD,,AUTO
         3 001301   300001 756100                    STQ     1,,PR3

     3987    13410    2       GETCMD.PCB$->P$PCB.HI_CHAR = 0 ;

  13410  3 001302   300003 471500                    LDP1    3,,PR3
         3 001303   100012 450100                    STZ     10,,PR1

     3988    13411    2       ALTRETURN ;

  13411  3 001304   200352 221300                    LDX1  ! FID_RESULTS+10,,AUTO
         3 001305   000000 702211                    TSX2  ! 0,X1

     3989    13412    2   END     HELP_CMD ;
     3990    13413        %EJECT ;
PL6.E3A0      #016=XUG$BUILTIN_COMMON File=XUG$COMMON.:E05TSI                    WED 07/30/97 09:28 Page:757
     3991    13414    1   OUTPUT_CMD: PROC ALTRET;

  13414  3 001306   200352 741300       OUTPUT_CMD   STX1  ! FID_RESULTS+10,,AUTO

     3992    13415
     3993    13416    2       GETCMD.UTIL$ = BLK$;

  13416  3 001307   200054 236100                    LDQ     BLK$,,AUTO
         3 001310   200003 470500                    LDP0    @GETCMD,,AUTO
         3 001311   000044 756100                    STQ     36,,PR0

     3994    13417    2       GETCMD.FPT$ = ADDR(NIL);

  13417  3 001312   000001 236000 xsym               LDQ     B_VECTNIL+1
         3 001313   000043 756100                    STQ     35,,PR0

     3995    13418    2       TSTOR = GETCMD.DCB_PARAM#;

  13418  3 001314   000014 235100                    LDA     12,,PR0
         3 001315   200057 755100                    STA     TSTOR,,AUTO

     3996    13419    2       GETCMD.DCB_PARAM# = GETCMD.OUTDCB#;

  13419  3 001316   000013 235100                    LDA     11,,PR0
         3 001317   000014 755100                    STA     12,,PR0

     3997    13420
     3998    13421    2       CALL XUG$OPENOUT_COMMON (GETCMD)

  13421  3 001320   200003 630500                    EPPR0   @GETCMD,,AUTO
         3 001321   000017 631400 xsym               EPPR1   B_VECTNIL+15
         3 001322   000000 701000 xent               TSX1    XUG$OPENOUT_COMMON
         3 001323   001325 702000 3                  TSX2    s:13423
         3 001324   001332 710000 3                  TRA     s:13427

     3999    13422    3       WHENALTRETURN DO;

PL6.E3A0      #016=XUG$BUILTIN_COMMON File=XUG$COMMON.:E05TSI                    WED 07/30/97 09:28 Page:758
     4000    13423    3           GETCMD.DCB_PARAM# = TSTOR;

  13423  3 001325   200003 470500                    LDP0    @GETCMD,,AUTO
         3 001326   200057 235100                    LDA     TSTOR,,AUTO
         3 001327   000014 755100                    STA     12,,PR0

     4001    13424    3           ALTRETURN;

  13424  3 001330   200352 221300                    LDX1  ! FID_RESULTS+10,,AUTO
         3 001331   000000 702211                    TSX2  ! 0,X1

     4002    13425    3       END;
     4003    13426
     4004    13427    2       GETCMD.DCB_PARAM# = TSTOR;

  13427  3 001332   200003 470500                    LDP0    @GETCMD,,AUTO
         3 001333   200057 235100                    LDA     TSTOR,,AUTO
         3 001334   000014 755100                    STA     12,,PR0

     4005    13428    2       RETURN;

  13428  3 001335   200352 221300                    LDX1  ! FID_RESULTS+10,,AUTO
         3 001336   000001 702211                    TSX2  ! 1,X1

     4006    13429
     4007    13430    2   END OUTPUT_CMD;
     4008    13431        %EJECT;
PL6.E3A0      #016=XUG$BUILTIN_COMMON File=XUG$COMMON.:E05TSI                    WED 07/30/97 09:28 Page:759
     4009    13432    1   PRINT_CMD: PROC ALTRET ;

  13432  3 001337   200352 741300       PRINT_CMD    STX1  ! FID_RESULTS+10,,AUTO

     4010    13433        /**/
     4011    13434    2   DCL I UBIN WORD ;
     4012    13435        /**/
     4013    13436    2       FPT_LDEV = FPT_LDEV_C ;

  13436  3 001340   000100 100400                    MLR     fill='000'O
         3 001341   000132 000120 2                  ADSC9   FPT_LDEV_C               cn=0,n=80
         3 001342   200152 000120                    ADSC9   FPT_LDEV,,AUTO           cn=0,n=80

     4014    13437    2       FPT_LDEV.V_ = VECTOR(FPT_LDEV.V);

  13437  3 001343   000015 235000 4                  LDA     13
         3 001344   200364 452500                    STP2    @BOUND+1,,AUTO
         3 001345   200364 236100                    LDQ     @BOUND+1,,AUTO
         3 001346   000170 036003                    ADLQ    120,DU
         3 001347   200152 757100                    STAQ    FPT_LDEV,,AUTO

     4015    13438    2       IF BLK$->P$B.NSUBLKS = 0

  13438  3 001350   200054 470500                    LDP0    BLK$,,AUTO
         3 001351   000001 220100                    LDX0    1,,PR0
         3 001352   001365 601000 3                  TNZ     s:13445

     4016    13439    2       THEN
     4017    13440    3       DO;

     4018    13441    3           FPT_LDEV.V.STREAMNAME# = 'ALL';

  13441  3 001353   000206 236000 2                  LDQ     XT#CANT_ADAPT+7
         3 001354   000016 376000 4                  ANQ     14
         3 001355   000040 276007                    ORQ     32,DL
         3 001356   200170 756100                    STQ     FPT_LDEV+14,,AUTO

PL6.E3A0      #016=XUG$BUILTIN_COMMON File=XUG$COMMON.:E05TSI                    WED 07/30/97 09:28 Page:760
     4019    13442    3           CALL M$LDEV(FPT_LDEV) ALTRET(PRINT_ERR) ;

  13442  3 001357   200152 630500                    EPPR0   FPT_LDEV,,AUTO
         3 001360   460004 713400                    CLIMB   alt,+24580
         3 001361   403000 401760                    pmme    nvectors=7
         3 001362   001441 702000 3                  TSX2    PRINT_ERR

     4020    13443    3           RETURN;

  13443  3 001363   200352 221300                    LDX1  ! FID_RESULTS+10,,AUTO
         3 001364   000001 702211                    TSX2  ! 1,X1

     4021    13444    3       END;
     4022    13445    2       I = 0;

  13445  3 001365   200353 450100                    STZ     I,,AUTO

     4023    13446    3       DO WHILE(I < BLK$->P$B.NSUBLKS);

  13446  3 001366   000001 236100                    LDQ     1,,PR0
         3 001367   000022 772000                    QRL     18
         3 001370   200353 116100                    CMPQ    I,,AUTO
         3 001371   001437 602000 3                  TNC     s:13458
         3 001372   001437 600000 3                  TZE     s:13458

     4024    13447    3           IF BLK$ -> P$B.SUBLK$(I)->P$S.COUNT > 4

  13447  3 001373   200054 470500                    LDP0    BLK$,,AUTO
         3 001374   200353 720100                    LXL0    I,,AUTO
         3 001375   000003 471510                    LDP1    3,X0,PR0
         3 001376   100004 236100                    LDQ     4,,PR1
         3 001377   777000 376003                    ANQ     -512,DU
         3 001400   005000 116003                    CMPQ    2560,DU
         3 001401   001414 602000 3                  TNC     s:13454

     4025    13448    3           THEN
     4026    13449    4           DO ;
PL6.E3A0      #016=XUG$BUILTIN_COMMON File=XUG$COMMON.:E05TSI                    WED 07/30/97 09:28 Page:761

     4027    13450    4               GETCMD.ERR# = XUG#BIG4CHAR ;

  13450  3 001402   000174 236000 2                  LDQ     XUG#BIG4CHAR
         3 001403   200003 473500                    LDP3    @GETCMD,,AUTO
         3 001404   300001 756100                    STQ     1,,PR3

     4028    13451    4               GETCMD.PCB$->P$PCB.HI_CHAR = BLK$->P$B.SUBLK$(I)->P$S.CPOS+4 ;

  13451  3 001405   300003 471500                    LDP1    3,,PR3
         3 001406   000003 474510                    LDP4    3,X0,PR0
         3 001407   400002 235100                    LDA     2,,PR4
         3 001410   000004 035007                    ADLA    4,DL
         3 001411   100012 755100                    STA     10,,PR1

     4029    13452    4               ALTRETURN;

  13452  3 001412   200352 221300                    LDX1  ! FID_RESULTS+10,,AUTO
         3 001413   000000 702211                    TSX2  ! 0,X1

     4030    13453    4           END ;                     /* Then Do */
     4031    13454    3           FPT_LDEV.V.STREAMNAME# = BLK$ -> P$B.SUBLK$(I) -> P$S.TEXT;

  13454  3 001414   100004 236100                    LDQ     4,,PR1
         3 001415   000033 772000                    QRL     27
         3 001416   000000 621006                    EAX1    0,QL
         3 001417   040100 100540                    MLR     fill='040'O
         3 001420   100004 200011                    ADSC9   4,,PR1                   cn=1,n=*X1
         3 001421   200170 000004                    ADSC9   FPT_LDEV+14,,AUTO        cn=0,n=4

     4032    13455    3           CALL M$LDEV(FPT_LDEV) ALTRET(PRINT_ERR);

  13455  3 001422   200152 630500                    EPPR0   FPT_LDEV,,AUTO
         3 001423   460004 713400                    CLIMB   alt,+24580
         3 001424   403000 401760                    pmme    nvectors=7
         3 001425   001441 702000 3                  TSX2    PRINT_ERR

PL6.E3A0      #016=XUG$BUILTIN_COMMON File=XUG$COMMON.:E05TSI                    WED 07/30/97 09:28 Page:762
     4033    13456    3           I = I + 1;

  13456  3 001426   200353 235100                    LDA     I,,AUTO
         3 001427   000001 035007                    ADLA    1,DL
         3 001430   200353 755100                    STA     I,,AUTO

     4034    13457    3       END;

  13457  3 001431   200054 470500                    LDP0    BLK$,,AUTO
         3 001432   000001 236100                    LDQ     1,,PR0
         3 001433   000022 772000                    QRL     18
         3 001434   200353 116100                    CMPQ    I,,AUTO
         3 001435   001437 600000 3                  TZE     s:13458
         3 001436   001373 603000 3                  TRC     s:13447

     4035    13458    2       RETURN;

  13458  3 001437   200352 221300                    LDX1  ! FID_RESULTS+10,,AUTO
         3 001440   000001 702211                    TSX2  ! 1,X1

     4036    13459    2   PRINT_ERR:
     4037    13460    2       GETCMD.ERR# = B$TCB.ALT$->B$EXCFR.ERR ;

  13460  3 001441   000000 470400 xsym  PRINT_ERR    LDP0    B$TCB$
         3 001442   000000 471500                    LDP1    0,,PR0
         3 001443   100102 236100                    LDQ     66,,PR1
         3 001444   200003 473500                    LDP3    @GETCMD,,AUTO
         3 001445   300001 756100                    STQ     1,,PR3

     4038    13461    2       GETCMD.PCB$->P$PCB.HI_CHAR = BLK$->P$B.SUBLK$(I)->P$S.CPOS ;

  13461  3 001446   300003 471500                    LDP1    3,,PR3
         3 001447   200054 474500                    LDP4    BLK$,,AUTO
         3 001450   200353 720100                    LXL0    I,,AUTO
         3 001451   400003 475510                    LDP5    3,X0,PR4
         3 001452   500002 235100                    LDA     2,,PR5
         3 001453   100012 755100                    STA     10,,PR1
PL6.E3A0      #016=XUG$BUILTIN_COMMON File=XUG$COMMON.:E05TSI                    WED 07/30/97 09:28 Page:763

     4039    13462    2       ALTRETURN;

  13462  3 001454   200352 221300                    LDX1  ! FID_RESULTS+10,,AUTO
         3 001455   000000 702211                    TSX2  ! 0,X1

     4040    13463    2   END     PRINT_CMD ;
     4041    13464        %EJECT ;
PL6.E3A0      #016=XUG$BUILTIN_COMMON File=XUG$COMMON.:E05TSI                    WED 07/30/97 09:28 Page:764
     4042    13465    1   TIME_DATE_CMD: PROC ALTRET ;

  13465  3 001456   200352 741300       TIME_DATE_C* STX1  ! FID_RESULTS+10,,AUTO

     4043    13466
     4044    13467    2   DCL 1 TMDATE,
     4045    13468    2         2 * CHAR(2),
     4046    13469    2         2 DATE CHAR(10),
     4047    13470    2         2 * CHAR(2),
     4048    13471    2         2 TIME,
     4049    13472    2           3 HR CHAR(3),
     4050    13473    2           3 MIN CHAR(2),
     4051    13474    2           3 SEC CHAR(3),
     4052    13475    2           3 MSEC CHAR(3),
     4053    13476    2         2 DAY CHAR(3) ;
     4054    13477    2   DCL TMDATEBUFF REDEF TMDATE CHAR(28);
     4055    13478
     4056    13479    2       TMDATEBUFF=' ';                /*Blank out buffer*/

  13479  3 001457   040100 100400                    MLR     fill='040'O
         3 001460   000035 000001 xsym               ADSC9   B_VECTNIL+29             cn=0,n=1
         3 001461   200353 000034                    ADSC9   TMDATE,,AUTO             cn=0,n=28

     4057    13480    2       FPT_TIME = FPT_TIME_C;

  13480  3 001462   000100 100400                    MLR     fill='000'O
         3 001463   000156 000060 2                  ADSC9   FPT_TIME_C               cn=0,n=48
         3 001464   200176 000060                    ADSC9   FPT_TIME,,AUTO           cn=0,n=48

     4058    13481    2       FPT_TIME.V_ = VECTOR(FPT_TIME.V);

  13481  3 001465   000003 235000 4                  LDA     3
         3 001466   200364 452500                    STP2    @BOUND+1,,AUTO
         3 001467   200364 236100                    LDQ     @BOUND+1,,AUTO
         3 001470   000210 036003                    ADLQ    136,DU
         3 001471   200176 757100                    STAQ    FPT_TIME,,AUTO

PL6.E3A0      #016=XUG$BUILTIN_COMMON File=XUG$COMMON.:E05TSI                    WED 07/30/97 09:28 Page:765
     4059    13482    2       FPT_TIME.DAY_=VECTOR(TMDATE.DAY) ;

  13482  3 001472   577640 235007                    LDA     -65632,DL
         3 001473   200364 452500                    STP2    @BOUND+1,,AUTO
         3 001474   200364 236100                    LDQ     @BOUND+1,,AUTO
         3 001475   000022 036000 4                  ADLQ    18
         3 001476   200204 757100                    STAQ    FPT_TIME+6,,AUTO

     4060    13483    2       FPT_TIME.DATE_=VECTOR(TMDATE.DATE);

  13483  3 001477   000023 235000 4                  LDA     19
         3 001500   200364 452500                    STP2    @BOUND+1,,AUTO
         3 001501   200364 236100                    LDQ     @BOUND+1,,AUTO
         3 001502   000024 036000 4                  ADLQ    20
         3 001503   200200 757100                    STAQ    FPT_TIME+2,,AUTO

     4061    13484    2       FPT_TIME.TIME_=VECTOR(TMDATE.TIME);

  13484  3 001504   000025 235000 4                  LDA     21
         3 001505   200364 452500                    STP2    @BOUND+1,,AUTO
         3 001506   200364 236100                    LDQ     @BOUND+1,,AUTO
         3 001507   000026 036000 4                  ADLQ    22
         3 001510   200202 757100                    STAQ    FPT_TIME+4,,AUTO

     4062    13485    2       CALL M$TIME(FPT_TIME) ALTRET(TIME_ERR) ;

  13485  3 001511   200176 630500                    EPPR0   FPT_TIME,,AUTO
         3 001512   420004 713400                    CLIMB   alt,+8196
         3 001513   402000 401760                    pmme    nvectors=5
         3 001514   001531 702000 3                  TSX2    TIME_ERR

     4063    13486    2       CNT = 19 ;

  13486  3 001515   000023 235007                    LDA     19,DL
         3 001516   200056 755100                    STA     CNT,,AUTO

     4064    13487    2       OUTBUFF=SUBSTR(TMDATEBUFF,0,CNT) ;
PL6.E3A0      #016=XUG$BUILTIN_COMMON File=XUG$COMMON.:E05TSI                    WED 07/30/97 09:28 Page:766

  13487  3 001517   000000 620005                    EAX0    0,AL
         3 001520   040100 100540                    MLR     fill='040'O
         3 001521   200353 000010                    ADSC9   TMDATE,,AUTO             cn=0,n=*X0
         3 001522   200010 000120                    ADSC9   OUTBUFF,,AUTO            cn=0,n=80

     4065    13488    2       CALL OUTPUT_MESSAGE (CNT) ALTRET(TIME_ERR) ;

  13488  3 001523   200056 630500                    EPPR0   CNT,,AUTO
         3 001524   200363 450500                    STP0    TMDATE+8,,AUTO
         3 001525   001540 701000 3                  TSX1    OUTPUT_MESSAGE
         3 001526   001531 702000 3                  TSX2    TIME_ERR

     4066    13489    2       RETURN ;

  13489  3 001527   200352 221300                    LDX1  ! FID_RESULTS+10,,AUTO
         3 001530   000001 702211                    TSX2  ! 1,X1

  13487  3 001531                       TIME_ERR     null
     4067    13490    2   TIME_ERR: ;
     4068    13491    2       GETCMD.ERR# = B$TCB.ALT$ -> B$EXCFR.ERR ;

  13491  3 001531   000000 470400 xsym               LDP0    B$TCB$
         3 001532   000000 471500                    LDP1    0,,PR0
         3 001533   100102 236100                    LDQ     66,,PR1
         3 001534   200003 473500                    LDP3    @GETCMD,,AUTO
         3 001535   300001 756100                    STQ     1,,PR3

     4069    13492    2       ALTRETURN ;

  13492  3 001536   200352 221300                    LDX1  ! FID_RESULTS+10,,AUTO
         3 001537   000000 702211                    TSX2  ! 0,X1

     4070    13493    2   END     TIME_DATE_CMD ;
     4071    13494        %EJECT;
PL6.E3A0      #016=XUG$BUILTIN_COMMON File=XUG$COMMON.:E05TSI                    WED 07/30/97 09:28 Page:767
     4072    13495    1   OUTPUT_MESSAGE: PROC (BOUND) ALTRET ;

  13495  3 001540   200362 741300       OUTPUT_MESS* STX1  ! TMDATE+7,,AUTO

     4073    13496
     4074    13497    2   DCL BOUND SBIN WORD ;
     4075    13498
     4076    13499    2       FPT_WRITE = FPT_WRITE_C ;

  13499  3 001541   000100 100400                    MLR     fill='000'O
         3 001542   000062 000060 2                  ADSC9   FPT_WRITE_C              cn=0,n=48
         3 001543   200102 000060                    ADSC9   FPT_WRITE,,AUTO          cn=0,n=48

     4077    13500    2       FPT_WRITE.V_ = VECTOR(FPT_WRITE.V) ;

  13500  3 001544   000000 235000 4                  LDA     0
         3 001545   200364 452500                    STP2    @BOUND+1,,AUTO
         3 001546   200364 236100                    LDQ     @BOUND+1,,AUTO
         3 001547   000112 036003                    ADLQ    74,DU
         3 001550   200102 757100                    STAQ    FPT_WRITE,,AUTO

     4078    13501    2       FPT_WRITE.BUF_ = VECTOR(OUTBUFF) ;

  13501  3 001551   000027 235000 4                  LDA     23
         3 001552   200364 452500                    STP2    @BOUND+1,,AUTO
         3 001553   200364 236100                    LDQ     @BOUND+1,,AUTO
         3 001554   000010 036003                    ADLQ    8,DU
         3 001555   200106 757100                    STAQ    FPT_WRITE+4,,AUTO

     4079    13502    2       FPT_WRITE.BUF_.BOUND = BOUND - 1 ;

  13502  3 001556   200363 470500                    LDP0    @BOUND,,AUTO
         3 001557   000000 236100                    LDQ     0,,PR0
         3 001560   000001 136007                    SBLQ    1,DL
         3 001561   000020 736000                    QLS     16
         3 001562   200106 676100                    ERQ     FPT_WRITE+4,,AUTO
         3 001563   000034 376000 xsym               ANQ     B_VECTNIL+28
PL6.E3A0      #016=XUG$BUILTIN_COMMON File=XUG$COMMON.:E05TSI                    WED 07/30/97 09:28 Page:768
         3 001564   200106 656100                    ERSQ    FPT_WRITE+4,,AUTO

     4080    13503
     4081    13504    2       IF GETCMD.OUTDCB# ~= 0

  13504  3 001565   200003 471500                    LDP1    @GETCMD,,AUTO
         3 001566   100013 235100                    LDA     11,,PR1
         3 001567   001572 600000 3                  TZE     s:13508

     4082    13505    2       THEN
     4083    13506    2           M$LO# = GETCMD.OUTDCB# ;

  13506  3 001570   200060 755100                    STA     M$LO#,,AUTO
         3 001571   001602 710000 3                  TRA     s:13509

     4084    13507    2       ELSE
     4085    13508    2           CALL XUG$FINDDCB_COMMON (M$LO, M$LO#) ALTRET(OUTPUT_ERR) ;

  13508  3 001572   200060 633500                    EPPR3   M$LO#,,AUTO
         3 001573   200365 453500                    STP3    @BOUND+2,,AUTO
         3 001574   000030 236000 4                  LDQ     24
         3 001575   200364 756100                    STQ     @BOUND+1,,AUTO
         3 001576   200364 630500                    EPPR0   @BOUND+1,,AUTO
         3 001577   000020 631400 xsym               EPPR1   B_VECTNIL+16
         3 001600   000000 701000 xent               TSX1    XUG$FINDDCB_COMMON
         3 001601   001612 702000 3                  TSX2    OUTPUT_ERR

     4086    13509    2       FPT_WRITE.V.DCB# = M$LO# ;

  13509  3 001602   200060 720100                    LXL0    M$LO#,,AUTO
         3 001603   200112 740100                    STX0    FPT_WRITE+8,,AUTO

     4087    13510    2       CALL M$WRITE (FPT_WRITE) ALTRET(OUTPUT_ERR) ;

  13510  3 001604   200102 630500                    EPPR0   FPT_WRITE,,AUTO
         3 001605   440001 713400                    CLIMB   alt,write
         3 001606   401400 401760                    pmme    nvectors=4
PL6.E3A0      #016=XUG$BUILTIN_COMMON File=XUG$COMMON.:E05TSI                    WED 07/30/97 09:28 Page:769
         3 001607   001612 702000 3                  TSX2    OUTPUT_ERR

     4088    13511    2       RETURN ;

  13511  3 001610   200362 221300                    LDX1  ! TMDATE+7,,AUTO
         3 001611   000001 702211                    TSX2  ! 1,X1

     4089    13512
     4090    13513    2   OUTPUT_ERR:
     4091    13514    2       ALTRETURN ;

  13514  3 001612   200362 221300       OUTPUT_ERR   LDX1  ! TMDATE+7,,AUTO
         3 001613   000000 702211                    TSX2  ! 0,X1
     4092    13515    2   END     OUTPUT_MESSAGE ;
     4093    13516    1   END   XUG$BUILTIN_COMMON ;
     4094    13517        %EOD;

PL6.E3A0      #016=XUG$BUILTIN_COMMON File=XUG$COMMON.:E05TSI                    WED 07/30/97 09:28 Page:770
--  Include file information  --

   B$JIT_C.:E05TOU  is referenced.
   B$JIT.:E05TOU  cannot be made into a system file and is referenced.
   CP_6_SUBS.:E05TOU  is referenced.
   CP_6_C.:E05TOU  is referenced.
   CP_6.:E05TOU  cannot be made into a system file and is referenced.
   XT_PERR_E.:TOOLE04  is referenced.
   XT_MACRO_M.:TOOLE04  is referenced.
   XUH_MACRO_C.:E05TOU  is referenced.
   XU_PERR_C.:E05TOU  is referenced.
   XU_SUBS_C.:E05TOU  is referenced.
   XU_MACRO_C.:E05TOU  is referenced.
      No diagnostics issued in procedure XUG$BUILTIN_COMMON.
PL6.E3A0      #016=XUG$BUILTIN_COMMON File=XUG$COMMON.:E05TSI                    WED 07/30/97 09:28 Page:771

 **** Variables and constants ****

  ****  Section 002 RoData XUG$BUILTIN_COMMON

  ****  Scalars and arrays  ****
OctLoc.c.b A Datatyp(siz) R M Lvl/name                 OctLoc.c.b A Datatyp(siz) R M Lvl/name

    44-0-0/d STRC(216)   r     1 FPT_EXIT_C               102-0-0/d STRC(864)   r     1 FPT_FID_C
   132-0-0/d STRC(720)   r     1 FPT_LDEV_C                76-0-0/d STRC(144)   r     1 FPT_SETFMA_C
   156-0-0/d STRC(432)   r     1 FPT_TIME_C                62-0-0/d STRC(432)   r     1 FPT_WRITE_C
    52-0-0/d STRC(288)   r     1 FPT_YC_C                  41-0-0/c STRC(45)    r     1 M$LO
    40-0-0/c STRC(9)     r     1 NULL_HELP_TOPIC          177-0-0/w STRC        r     1 XT#CANT_ADAPT
     0-0-0/w STRC(1152)  r     1 XT_PARAM_C               172-0-0/w STRC        r     1 XUG#BDIRFID
   174-0-0/w STRC        r     1 XUG#BIG4CHAR             173-0-0/w STRC        r     1 XUG#DOCMD2BIG
   176-0-0/w STRC        r     1 XUG#NO_ADAPT             175-0-0/w STRC        r     1 XUG#NO_MORE

  ****  Auto variables  ****

  ****  Scalars and arrays  ****
OctLoc.c.b A Datatyp(siz) R M Lvl/name                 OctLoc.c.b A Datatyp(siz) R M Lvl/name

   363-0-0/w PTR         r     1 @BOUND                     3-0-0/w PTR         r     1 @GETCMD
     7-0-0/w UBIN(9)     r     1 ASN                       54-0-0/w PTR         r     1 BLK$
    *0-0-0/w SBIN        r     1 BOUND                     56-0-0/w SBIN        r     1 CNT
     6-0-0/w SBIN        r     1 CODE                       4-0-0/b STRC        r     1 ERR
   340-0-0/d STRC(324)   r     1 FID_RESULTS               62-0-0/d STRC(216)   r     1 FPT_EXIT
   122-0-0/d STRC(864)   r     1 FPT_FID                  152-0-0/d STRC(720)   r     1 FPT_LDEV
   116-0-0/d STRC(144)   r     1 FPT_SETFMA               176-0-0/d STRC(432)   r     1 FPT_TIME
   102-0-0/d STRC(432)   r     1 FPT_WRITE                 70-0-0/d STRC(288)   r     1 FPT_YC
    *0-0-0/d STRC(1512)  r     1 GETCMD                   353-0-0/w SBIN        r     1 I
   353-0-0/w UBIN        r     1 I                        353-0-0/w UBIN        r     1 I
    60-0-0/w UBIN        r     1 M$LO#                     10-0-0/c CHAR(80)    r     1 OUTBUFF
   353-0-0/w EPTR        r     1 POST_EXEC                 34-0-0/c CHAR(8)     r     1 TBUFF
    36-0-0/c CHAR(56)    r     1 TEMPBUFF                 353-0-0/c STRC(252)   r     1 TMDATE
   353-0-0/c CHAR(28)    r     1 TMDATEBUFF                57-0-0/w SBIN        r     1 TSTOR
   222-0-0/c STRC(72)    r     1 VLP_ACCT                 212-0-0/c STRC(288)   r     1 VLP_NAME
   224-0-0/d STRC(2736)  r     1 VLP_SN                   100-0-0/d STRC(72)    r     1 VLR_YC
PL6.E3A0      #016=XUG$BUILTIN_COMMON File=XUG$COMMON.:E05TSI                    WED 07/30/97 09:28 Page:772
    55-0-0/w PTR         r     1 XT$                        5-0-0/w PTR         r     1 XUG$

  ****  SYMREF variables  ****

  ****  Scalars and arrays  ****
OctLoc.c.b A Datatyp(siz) R M Lvl/name                 OctLoc.c.b A Datatyp(siz) R M Lvl/name

     0-0-0/w PTR         r     1 B$JIT$                     0-0-0/w PTR         r     1 B$TCB$

  ****  BASED and DCB variables  ****

  ****  Scalars and arrays  ****
OctLoc.c.b A Datatyp(siz) R M Lvl/name                 OctLoc.c.b A Datatyp(siz) R M Lvl/name

     0-0-0/w STRC(2448)  r     1 B$EXCFR                    0-0-0/d STRC(8856)  r     1 B$JIT
     0-0-0/w STRC(144)   r     1 B$TCB                      0-0-0/w STRC(144)   r     1 P$B
     0-0-0/w STRC(504)   r     1 P$PCB                      0-0-0/w ASTR(153)   r     1 P$S
     0-0-0/w STRC(1152)  r     1 XT_PARAM                   0-0-0/d STRC(9612)  r     1 XUG
     0-0-0/d STRC(2052)  r     1 XUH$PARAM


   Procedure XUG$BUILTIN_COMMON requires 908 words for executable code.
   Procedure XUG$BUILTIN_COMMON requires 246 words of local(AUTO) storage.
PL6.E3A0      #016=XUG$BUILTIN_COMMON File=XUG$COMMON.:E05TSI                    WED 07/30/97 09:28 Page:773
          *** CROSS REFERENCE LISTING ***
**     DENOTES     IDENTIFIER DEFINITION
<<                 IDENTIFIER'S VALUE SET
>>                 IDENTIFIER'S VALUE USED
<>                 IDENTIFIER SET AND/OR USED
--                 IDENTIFIER REFERENCED
PL6.E3A0      #016=XUG$BUILTIN_COMMON File=XUG$COMMON.:E05TSI                    WED 07/30/97 09:28 Page:774
          MINI XREF LISTING

ALT IN PROCEDURE DO_CMD
     13328**LABEL   13301--CALLALT
ALTRET_FROM_BUILTIN
     13096**LABEL   13053--CALLALT 13077--CALLALT 13084--CALLALT
ASN
     12322**DCL     13147--ASSIGN  13154>>IF
B$ALT.CODE
     12307**DCL     12307--REDEF   12308--REDEF   12308--REDEF
B$ALT.ERR.ERR#
     12309**DCL     12309--REDEF
B$ALT.EVID
     12308**DCL     12308--REDEF   12308--REDEF
B$EXCFR.ASL
     12288**DCL     12288--REDEF
B$EXCFR.DCB#
     12301**DCL     13401>>ASSIGN
B$EXCFR.ERR
     12302**DCL     13175>>ASSIGN  13304>>ASSIGN  13364>>ASSIGN  13409>>ASSIGN  13460>>ASSIGN  13491>>ASSIGN
B$EXCFR.ERR.ERR#
     12302**DCL     12302--REDEF
B$EXCFR.EVID
     12301**DCL     12301--REDEF   12302--REDEF
B$EXCFR.IR
     12289**DCL     12289--REDEF
B$EXCFR.PREVSZ
     12288**DCL     12288--REDEF
B$EXCFR.SUBC
     12300**DCL     12300--REDEF   12301--REDEF   12301--REDEF
B$JIT.CPFLAGS1
     10731**DCL     13308>>IF
B$JIT.CPFLAGS1.SLEAZE
     10736**DCL     10736--REDEF
PL6.E3A0      #016=XUG$BUILTIN_COMMON File=XUG$COMMON.:E05TSI                    WED 07/30/97 09:28 Page:775
B$JIT.ERR.MID
     10643**DCL     10643--REDEF
B$JIT.FACCN
     10642**DCL     13120>>CALLBLT
B$JIT.FPSN
     10723**DCL     13110>>CALLBLT 13114>>CALLBLT
B$JIT.JRESPEAK
     10804**DCL     10805--REDEF
B$JIT.ORIGINATOR_PORT.FROM_CR
     10913**DCL     10913--REDEF   10914--REDEF
B$JIT.PNR
     10817**DCL     10817--REDEF
B$JIT.TSLINE
     10911**DCL     10912--REDEF
B$JIT$
     12001**DCL     10637--IMP-PTR 13110>>CALLBLT 13114>>CALLBLT 13120>>CALLBLT 13308>>IF
B$TCB.ALT$
     12285**DCL     13175>>ASSIGN  13304>>ASSIGN  13364>>ASSIGN  13401>>ASSIGN  13409>>ASSIGN  13460>>ASSIGN
     13491>>ASSIGN
B$TCB$
     12000**DCL     12285--IMP-PTR 13175>>ASSIGN  13304>>ASSIGN  13364>>ASSIGN  13401>>ASSIGN  13409>>ASSIGN
     13460>>ASSIGN  13491>>ASSIGN
BLK$
     12326**DCL     12207--IMP-PTR 12253--IMP-PTR 13041<<ASSIGN  13042>>ASSIGN  13105>>IF      13131>>DOCASE
     13140>>ASSIGN  13140>>ASSIGN  13179>>ASSIGN  13233>>DOINDEX 13235>>DOCASE  13238>>ASSIGN  13240>>ASSIGN
     13242>>IF      13244>>ASSIGN  13267>>IF      13270>>IF      13274>>ASSIGN  13283>>ASSIGN  13283>>ASSIGN
     13317>>ASSIGN  13339>>IF      13347>>DOWHILE 13348>>IF      13352>>ASSIGN  13358>>ASSIGN  13358>>ASSIGN
     13365>>ASSIGN  13385>>IF      13389>>ASSIGN  13416>>ASSIGN  13438>>IF      13446>>DOWHILE 13447>>IF
     13451>>ASSIGN  13454>>ASSIGN  13454>>ASSIGN  13461>>ASSIGN
BOUND IN PROCEDURE OUTPUT_MESSAGE
     13497**DCL     13495--PROC    13502>>ASSIGN
BUILTIN_ERR
     13090**LABEL   13045--CALLALT 13050--CALLALT 13060--CALLALT 13065--CALLALT 13068--CALLALT 13071--CALLALT
     13074--CALLALT
CNT
     12328**DCL     13109<<ASSIGN  13114>>CALLBLT 13115<<ASSIGN  13115>>ASSIGN  13122>>CALLBLT 13123<<ASSIGN
PL6.E3A0      #016=XUG$BUILTIN_COMMON File=XUG$COMMON.:E05TSI                    WED 07/30/97 09:28 Page:776
     13123>>ASSIGN  13124<>CALL    13486<<ASSIGN  13487>>ASSIGN  13488<>CALL
CODE
     12321**DCL     13042<<ASSIGN  13045<>CALL    13047>>DOCASE  13084<>CALL    13092<>CALL    13301<>CALL
     13307<>CALL    13376>>DOCASE
DIRECTORY_CMD
     13099**PROC    13050--CALL
DIR_ERR IN PROCEDURE DIRECTORY_CMD
     13175**LABEL   13124--CALLALT 13150--CALLALT 13172--CALLALT
DO_CMD
     13262**PROC    13053--CALL
END_CMD
     13187**PROC    13057--CALL
ENTER_CMD
     13195**PROC    13077--CALL
ERASE_CMD
     13332**PROC    13060--CALL
ERASE_ERR IN PROCEDURE ERASE_CMD
     13364**LABEL   13343--CALLALT 13359--CALLALT
ERR
        10**DCL     13304<<ASSIGN  13310>>ASSIGN  13327>>ASSIGN
ERR.CODE
        14**DCL     13319>>IF
ERR.MID
        12**DCL     13325<<ASSIGN
ERR.MON
        13**DCL     13319>>IF
FID_ERR IN PROCEDURE DIRECTORY_CMD
     13178**LABEL   13156--GOTO    13160--GOTO    13163--GOTO
FID_RESULTS
     12754**DCL     13149--ASSIGN
FID_RESULTS.ACCT
     12754**DCL     13154>>IF
FID_RESULTS.NAME
     12754**DCL     13157>>IF
FID_RESULTS.PASS
     12754**DCL     13157>>IF
PL6.E3A0      #016=XUG$BUILTIN_COMMON File=XUG$COMMON.:E05TSI                    WED 07/30/97 09:28 Page:777
FID_RESULTS.SN
     12754**DCL     13168>>IF
FID_RESULTS.WSN
     12754**DCL     13157>>IF
FPT_EXIT
     12362**DCL     13189<<ASSIGN  13191<>CALL
FPT_EXIT.V
     12362**DCL     13190--ASSIGN
FPT_EXIT.V.STEPCC#
     12363**DCL     12363--REDEF
FPT_EXIT.V_
     12362**DCL     13190<<ASSIGN
FPT_EXIT_C
     12347**DCL     13189>>ASSIGN
FPT_EXIT_C.V
     12347**DCL     12347--DCLINIT
FPT_EXIT_C.V.STEPCC#
     12348**DCL     12348--REDEF
FPT_FID
     12506**DCL     13138<<ASSIGN  13150<>CALL
FPT_FID.ACCT_
     12507**DCL     13143<<ASSIGN
FPT_FID.ASN_
     12509**DCL     13147<<ASSIGN
FPT_FID.NAME_
     12507**DCL     13142<<ASSIGN
FPT_FID.PASS_
     12507**DCL     13144<<ASSIGN
FPT_FID.RESULTS_
     12509**DCL     13149<<ASSIGN
FPT_FID.RES_
     12509**DCL     13148<<ASSIGN
FPT_FID.SN_
     12508**DCL     13145<<ASSIGN
FPT_FID.TEXTFID_
     12506**DCL     13140<<ASSIGN
PL6.E3A0      #016=XUG$BUILTIN_COMMON File=XUG$COMMON.:E05TSI                    WED 07/30/97 09:28 Page:778
FPT_FID.V
     12510**DCL     13139--ASSIGN
FPT_FID.V_
     12506**DCL     13139<<ASSIGN
FPT_FID.WSN_
     12508**DCL     13146<<ASSIGN
FPT_FID_C
     12529**DCL     13138>>ASSIGN
FPT_FID_C.V
     12533**DCL     12529--DCLINIT
FPT_LDEV
     12578**DCL     13336<<ASSIGN  13343<>CALL    13359<>CALL    13436<<ASSIGN  13442<>CALL    13455<>CALL
FPT_LDEV.V
     12580**DCL     13337--ASSIGN  13437--ASSIGN
FPT_LDEV.V.DELETE#
     12582**DCL     13338<<ASSIGN
FPT_LDEV.V.STREAMNAME#
     12581**DCL     13342<<ASSIGN  13358<<ASSIGN  13441<<ASSIGN  13454<<ASSIGN
FPT_LDEV.V_
     12578**DCL     13337<<ASSIGN  13437<<ASSIGN
FPT_LDEV_C
     12553**DCL     13336>>ASSIGN  13436>>ASSIGN
FPT_LDEV_C.V
     12555**DCL     12553--DCLINIT
FPT_SETFMA
     12480**DCL     13130<<ASSIGN  13172<>CALL
FPT_SETFMA.ACCT_
     12480**DCL     13167<<ASSIGN
FPT_SETFMA.PSN_
     12480**DCL     13170<<ASSIGN
FPT_SETFMA_C
     12493**DCL     13130>>ASSIGN
FPT_TIME
     12621**DCL     13480<<ASSIGN  13485<>CALL
FPT_TIME.DATE_
     12621**DCL     13483<<ASSIGN
PL6.E3A0      #016=XUG$BUILTIN_COMMON File=XUG$COMMON.:E05TSI                    WED 07/30/97 09:28 Page:779
FPT_TIME.DAY_
     12624**DCL     13482<<ASSIGN
FPT_TIME.TIME_
     12623**DCL     13484<<ASSIGN
FPT_TIME.V
     12625**DCL     13481--ASSIGN
FPT_TIME.V_
     12621**DCL     13481<<ASSIGN
FPT_TIME_C
     12602**DCL     13480>>ASSIGN
FPT_TIME_C.V
     12606**DCL     12602--DCLINIT
FPT_WRITE
     12455**DCL     13499<<ASSIGN  13510<>CALL
FPT_WRITE.BUF_
     12455**DCL     13501<<ASSIGN
FPT_WRITE.BUF_.BOUND
     12455**DCL     13502<<ASSIGN
FPT_WRITE.STATION_
     12457**DCL     12457--REDEF
FPT_WRITE.V
     12458**DCL     13500--ASSIGN
FPT_WRITE.V.DCB#
     12458**DCL     13509<<ASSIGN
FPT_WRITE.V.DVBYTE.VFC#
     12464**DCL     12464--REDEF
FPT_WRITE.V_
     12455**DCL     13500<<ASSIGN
FPT_WRITE_C
     12424**DCL     13499>>ASSIGN
FPT_WRITE_C.STATION_
     12426**DCL     12426--REDEF
FPT_WRITE_C.V
     12427**DCL     12424--DCLINIT
FPT_WRITE_C.V.DVBYTE.VFC#
     12433**DCL     12433--REDEF
PL6.E3A0      #016=XUG$BUILTIN_COMMON File=XUG$COMMON.:E05TSI                    WED 07/30/97 09:28 Page:780
FPT_YC
     12396**DCL     13281<<ASSIGN  13292<>CALL
FPT_YC.CMD_
     12396**DCL     13283<<ASSIGN
FPT_YC.REPLY_
     12396**DCL     13284<<ASSIGN
FPT_YC.V
     12397**DCL     13282--ASSIGN
FPT_YC.V.LINK#
     12397**DCL     13285<<ASSIGN
FPT_YC.V.REPARSE#
     12398**DCL     13288<<ASSIGN  13290<<ASSIGN
FPT_YC.V_
     12396**DCL     13282<<ASSIGN
FPT_YC_C
     12379**DCL     13281>>ASSIGN
FPT_YC_C.V
     12380**DCL     12379--DCLINIT
GETCMD
      3136**DCL         7--PROC    13045<>CALL    13084<>CALL    13092<>CALL    13204--ASSIGN  13301<>CALL
     13307<>CALL    13322<>CALL    13379<>CALL    13382<>CALL    13390<>CALL    13406<>CALL    13421<>CALL
GETCMD.DCB_PARAM#
      3316**DCL     13418>>ASSIGN  13419<<ASSIGN  13423<<ASSIGN  13427<<ASSIGN
GETCMD.ERR#
      3147**DCL     13175<<ASSIGN  13178<<ASSIGN  13214<<ASSIGN  13215<<ASSIGN  13255<<ASSIGN  13273<<ASSIGN
     13327<<ASSIGN  13351<<ASSIGN  13364<<ASSIGN  13409<<ASSIGN  13450<<ASSIGN  13460<<ASSIGN  13491<<ASSIGN
GETCMD.ERRDCB#
      3295**DCL     13401<<ASSIGN
GETCMD.ERR_CODE
      3284**DCL     13396<<ASSIGN
GETCMD.F1_
      3333**DCL     13402<<ASSIGN
GETCMD.F2_
      3337**DCL     13403<<ASSIGN
GETCMD.F3_
      3341**DCL     13404<<ASSIGN
PL6.E3A0      #016=XUG$BUILTIN_COMMON File=XUG$COMMON.:E05TSI                    WED 07/30/97 09:28 Page:781
GETCMD.FLGLEV#
      3241**DCL     13405<<ASSIGN
GETCMD.FPT$
      3433**DCL     13417<<ASSIGN
GETCMD.INDCB#
      3307**DCL     13206>>ASSIGN
GETCMD.OUT$
      3141**DCL      3147--REDEF
GETCMD.OUTDCB#
      3312**DCL     13207>>ASSIGN  13419>>ASSIGN  13504>>IF      13506>>ASSIGN
GETCMD.PCB$
      3161**DCL     13041>>ASSIGN  13179>>ASSIGN  13274>>ASSIGN  13317>>ASSIGN  13352>>ASSIGN  13365>>ASSIGN
     13410>>ASSIGN  13451>>ASSIGN  13461>>ASSIGN
GETCMD.UTIL$
      3437**DCL     13416<<ASSIGN
GETCMD.WORK$
      3169**DCL     13040>>ASSIGN
GETCMD.XT_PARAM$
      3405**DCL     13199>>IF      13205<<ASSIGN  13212<<ASSIGN  13225>>ASSIGN
GETCMD.XUH$
      3174**DCL     12649--IMP-PTR 13372>>IF      13374<<ASSIGN  13387>>ASSIGN  13389>>ASSIGN
GIVE_ERR_MSG IN PROCEDURE HELP_CMD
     13396**LABEL   13379--CALLALT 13382--CALLALT
HELP_CMD
     13370**PROC    13065--CALL
HELP_ERR IN PROCEDURE HELP_CMD
     13409**LABEL   13406--CALLALT
I IN PROCEDURE ENTER_CMD
     13197**DCL     13233<<DOINDEX 13235>>DOCASE  13238>>ASSIGN  13240>>ASSIGN  13242>>IF      13244>>ASSIGN
I IN PROCEDURE ERASE_CMD
     13334**DCL     13346<<ASSIGN  13347>>DOWHILE 13348>>IF      13352>>ASSIGN  13358>>ASSIGN  13358>>ASSIGN
     13360<<ASSIGN  13360>>ASSIGN  13365>>ASSIGN
I IN PROCEDURE PRINT_CMD
     13434**DCL     13445<<ASSIGN  13446>>DOWHILE 13447>>IF      13451>>ASSIGN  13454>>ASSIGN  13454>>ASSIGN
     13456<<ASSIGN  13456>>ASSIGN  13461>>ASSIGN
M$EXIT
PL6.E3A0      #016=XUG$BUILTIN_COMMON File=XUG$COMMON.:E05TSI                    WED 07/30/97 09:28 Page:782
      9715**DCL-ENT 13191--CALL
M$FID
      9766**DCL-ENT 13150--CALL
M$LDEV
      9703**DCL-ENT 13343--CALL    13359--CALL    13442--CALL    13455--CALL
M$LO
     12332**DCL     13508<>CALL
M$LO#
     12330**DCL     13506<<ASSIGN  13508<>CALL    13509>>ASSIGN
M$SETFMA
      9703**DCL-ENT 13172--CALL
M$TIME
      9770**DCL-ENT 13485--CALL
M$WRITE
      9704**DCL-ENT 13510--CALL
M$YC
      9717**DCL-ENT 13292--CALL
M$YC_ERR IN PROCEDURE DO_CMD
     13304**LABEL   13292--CALLALT
NORMAL_RETURN IN PROCEDURE HELP_CMD
     13393**LABEL   13390--CALLALT
NULL_HELP_TOPIC
     12319**DCL     13387--ASSIGN
OUTBUFF
     12323**DCL     13108<<ASSIGN  13114<<CALLBLT 13122<<CALLBLT 13487<<ASSIGN  13501--ASSIGN
OUTPUT_CMD
     13414**PROC    13068--CALL
OUTPUT_ERR IN PROCEDURE OUTPUT_MESSAGE
     13514**LABEL   13508--CALLALT 13510--CALLALT
OUTPUT_MESSAGE
     13495**PROC    13124--CALL    13488--CALL
P$B.CODE
     12215**DCL     13042>>ASSIGN  13131>>DOCASE  13235>>DOCASE
P$B.CPOS
     12233**DCL     13179>>ASSIGN
P$B.NSUBLKS
PL6.E3A0      #016=XUG$BUILTIN_COMMON File=XUG$COMMON.:E05TSI                    WED 07/30/97 09:28 Page:783
     12219**DCL     13105>>IF      13233>>DOINDEX 13339>>IF      13347>>DOWHILE 13385>>IF      13438>>IF
     13446>>DOWHILE
P$B.SUBLK$
     12240**DCL     13131>>DOCASE  13140>>ASSIGN  13140>>ASSIGN  13179>>ASSIGN  13235>>DOCASE  13238>>ASSIGN
     13240>>ASSIGN  13242>>IF      13244>>ASSIGN  13267>>IF      13270>>IF      13274>>ASSIGN  13283>>ASSIGN
     13283>>ASSIGN  13317>>ASSIGN  13348>>IF      13352>>ASSIGN  13358>>ASSIGN  13358>>ASSIGN  13365>>ASSIGN
     13389>>ASSIGN  13447>>IF      13451>>ASSIGN  13454>>ASSIGN  13454>>ASSIGN  13461>>ASSIGN
P$PCB
     12020**DCL     13201--ASSIGN
P$PCB.HI_CHAR
     12171**DCL     13179<<ASSIGN  13274<<ASSIGN  13317<<ASSIGN  13352<<ASSIGN  13365<<ASSIGN  13410<<ASSIGN
     13451<<ASSIGN  13461<<ASSIGN
P$PCB.OUT$
     12033**DCL     13041>>ASSIGN
P$S.COUNT
     12276**DCL     12279--IMP-SIZ 13140>>ASSIGN  13242>>IF      13267>>IF      13270>>IF      13283>>ASSIGN
     13348>>IF      13358>>ASSIGN  13447>>IF      13454>>ASSIGN
P$S.CPOS
     12268**DCL     13274>>ASSIGN  13317>>ASSIGN  13352>>ASSIGN  13365>>ASSIGN  13451>>ASSIGN  13461>>ASSIGN
P$S.TEXT
     12279**DCL     13140--ASSIGN  13283--ASSIGN  13358>>ASSIGN  13454>>ASSIGN
P$S.TEXTC$
     12271**DCL     13238>>ASSIGN  13240>>ASSIGN  13244>>ASSIGN  13389>>ASSIGN
POST_EXEC IN PROCEDURE DO_CMD
     13264**DCL     13266<<ASSIGN  13299>>IF      13301>>CALL    13305>>IF      13307>>CALL
PRINT_CMD
     13432**PROC    13071--CALL
PRINT_ERR IN PROCEDURE PRINT_CMD
     13460**LABEL   13442--CALLALT 13455--CALLALT
TBUFF
     12324**DCL     13148--ASSIGN
TEMPBUFF
     12325**DCL     13120<<CALLBLT 13121>>CALLBLT 13122>>CALLBLT
TIME_DATE_CMD
     13465**PROC    13074--CALL
TIME_ERR IN PROCEDURE TIME_DATE_CMD
PL6.E3A0      #016=XUG$BUILTIN_COMMON File=XUG$COMMON.:E05TSI                    WED 07/30/97 09:28 Page:784
     13487**LABEL   13485--CALLALT 13488--CALLALT
TMDATE IN PROCEDURE TIME_DATE_CMD
     13467**DCL     13477--REDEF
TMDATE.DATE IN PROCEDURE TIME_DATE_CMD
     13469**DCL     13483--ASSIGN
TMDATE.DAY IN PROCEDURE TIME_DATE_CMD
     13476**DCL     13482--ASSIGN
TMDATE.TIME IN PROCEDURE TIME_DATE_CMD
     13471**DCL     13484--ASSIGN
TMDATEBUFF IN PROCEDURE TIME_DATE_CMD
     13477**DCL     13479<<ASSIGN  13487>>ASSIGN
TSTOR
     12329**DCL     13110<<CALLBLT 13111>>IF      13114>>CALLBLT 13115>>ASSIGN  13121<<CALLBLT 13122>>CALLBLT
     13123>>ASSIGN  13418<<ASSIGN  13423>>ASSIGN  13427>>ASSIGN
VLP_ACCT
     12728**DCL     13143--ASSIGN  13144--ASSIGN  13146--ASSIGN  13167--ASSIGN
VLP_ACCT.ACCT#
     12728**DCL     13154>>IF
VLP_NAME
     12715**DCL     13142--ASSIGN
VLP_SN
     12741**DCL     13145--ASSIGN
VLP_SN.NUM#
     12741**DCL     13161>>IF
VLP_SN.SN#
     12741**DCL     13170--ASSIGN
VLR_YC
     12405**DCL     13284--ASSIGN
VLR_YC.CPOS
     12405**DCL     13317>>ASSIGN
XT#CANT_ADAPT
     13005**DCL     13213>>IF
XT$
     12327**DCL     11387--IMP-PTR 13201<<ASSIGN  13202>>ASSIGN  13203>>ASSIGN  13204>>ASSIGN  13205>>ASSIGN
     13206>>ASSIGN  13207>>ASSIGN  13209>>CALL    13213>>IF      13215>>ASSIGN  13225<<ASSIGN  13226>>ASSIGN
     13227>>ASSIGN  13228>>ASSIGN  13229>>ASSIGN  13230>>ASSIGN  13231>>ASSIGN  13238>>ASSIGN  13240>>ASSIGN
PL6.E3A0      #016=XUG$BUILTIN_COMMON File=XUG$COMMON.:E05TSI                    WED 07/30/97 09:28 Page:785
     13244>>ASSIGN  13250>>CALL    13255>>ASSIGN
XT_PARAM
     11387**DCL     13202<<ASSIGN  13209<>CALL    13250<>CALL
XT_PARAM.ERR
     11411**DCL     13213>>IF      13215>>ASSIGN  13255>>ASSIGN
XT_PARAM.FRAME.LEN
     11529**DCL     13230<<ASSIGN
XT_PARAM.FRAME.PT$
     11528**DCL     13227<<ASSIGN  13240<<ASSIGN
XT_PARAM.IBUF.LEN
     11571**DCL     13231<<ASSIGN
XT_PARAM.IBUF.PT$
     11570**DCL     13228<<ASSIGN  13244<<ASSIGN
XT_PARAM.INDCB
     11435**DCL     13206<<ASSIGN
XT_PARAM.OUTDCB
     11428**DCL     13207<<ASSIGN
XT_PARAM.SCRIPT.LEN
     11497**DCL     13229<<ASSIGN
XT_PARAM.SCRIPT.PT$
     11496**DCL     13226<<ASSIGN  13238<<ASSIGN
XT_PARAM.USER$
     11604**DCL     13204<<ASSIGN
XT_PARAM.XUG$
     11547**DCL     13203<<ASSIGN
XT_PARAM_C
     11700**DCL     13202>>ASSIGN
XUG
     10933**DCL     13201--ASSIGN
XUG.ADAPT$$
     11356**DCL     13209>>CALL    13211<<ASSIGN  13250>>CALL
XUG.BUF
     11369**DCL     11372--REDEF
XUG.DOCMD_SYNERR
     11074**DCL     13286>>IF      13291<<ASSIGN  13324<<ASSIGN
XUG.ERRDCB
PL6.E3A0      #016=XUG$BUILTIN_COMMON File=XUG$COMMON.:E05TSI                    WED 07/30/97 09:28 Page:786
     11029**DCL     13311<<ASSIGN
XUG.ERRSAVE
     11022**DCL     13310<<ASSIGN
XUG.FIRST_ERROR
     11155**DCL     13313<<ASSIGN
XUG.LAST_FLAGLEV
     11320**DCL     13314<<ASSIGN
XUG.NO_INCREMENT
     11159**DCL     13312<<ASSIGN
XUG.POST_EXEC
     10986**DCL     13082>>IF      13084>>CALL    13090>>IF      13092>>CALL    13266>>ASSIGN
XUG.PRE_EXEC
     10982**DCL     13043>>IF      13045>>CALL
XUG.SYNERR
     11054**DCL     13323<<ASSIGN
XUG.XUH_PARAM
     11266**DCL     13374--ASSIGN
XUG#BDIRFID
     12775**DCL     13178>>ASSIGN
XUG#BIG4CHAR
     12867**DCL     13351>>ASSIGN  13450>>ASSIGN
XUG#DOCMD2BIG
     12821**DCL     13273>>ASSIGN
XUG#NO_ADAPT
     12959**DCL     13214>>ASSIGN
XUG#NO_MORE
     12913**DCL     13396>>ASSIGN
XUG$
     10928**DCL     10933--IMP-PTR 13040<<ASSIGN  13043>>IF      13045>>CALL    13082>>IF      13084>>CALL
     13090>>IF      13092>>CALL    13201>>ASSIGN  13203>>ASSIGN  13209>>CALL    13211>>ASSIGN  13250>>CALL
     13266>>ASSIGN  13286>>IF      13291>>ASSIGN  13310>>ASSIGN  13311>>ASSIGN  13312>>ASSIGN  13313>>ASSIGN
     13314>>ASSIGN  13323>>ASSIGN  13324>>ASSIGN  13374>>ASSIGN
XUG$ADAPTMEM
     10926**DCL-ENT 11894--DCLINIT
XUG$ALLMSG_COMMON
     10920**DCL-ENT 13382--CALL
PL6.E3A0      #016=XUG$BUILTIN_COMMON File=XUG$COMMON.:E05TSI                    WED 07/30/97 09:28 Page:787
XUG$ERRMSG_COMMON
     10922**DCL-ENT 13406--CALL
XUG$FINDDCB_COMMON
     10923**DCL-ENT 13508--CALL
XUG$HELP_COMMON
     10921**DCL-ENT 13390--CALL
XUG$MOREMSG_COMMON
     10919**DCL-ENT 13379--CALL
XUG$OPENOUT_COMMON
     10924**DCL-ENT 13421--CALL
XUG$SINPUT
     10925**DCL-ENT 13322--CALL
XUH$PARAM.HELP$
     12659**DCL     13387<<ASSIGN  13389<<ASSIGN

PL6.E3A0      #017=XUG$BLANK_PASSWORD_COMMON File=XUG$COMMON.:E05TSI             WED 07/30/97 09:29 Page:788
     4095        1        /*T***********************************************************/
     4096        2        /*T*                                                         */
     4097        3        /*T* Copyright (c) Bull HN Information Systems Inc., 1997    */
     4098        4        /*T*                                                         */
     4099        5        /*T***********************************************************/
     4100        6        /* XUG$BLANK_PASSWORD_COMMON   Routine to LOCATE and BLANK the PASSWORDs.    */
     4101        7        XUG$BLANK_PASSWORD_COMMON: PROC(GETCMD_PARAM, P_B) ALTRET ;
     4102        8        /*X* DMC,PLM=4,IND=4,CTI=2,DTI=0,ENI=0,ECI=0,CSI=0,MCI,DCI=4 */
     4103        9        %INCLUDE XU_MACRO_C ;
     4104     3115    1   DCL GETCMD_PARAM UBIN WORD ;
     4105     3116        %PARSE$OUT (NAME=P_B, STCLASS=PARAM) ;
     4106     3161
     4107     3162        %INCLUDE XU_SUBS_C ;
     4108     3254        %PARSE$OUT (NAME=P$B, STCLASS=BASED) ;
     4109     3299    1   DCL I UBIN ;
     4110     3300
     4111     3301    1   DCL XUG$PASSWORD_BLANKER ENTRY(2) ALTRET ;
     4112     3302
     4113     3303    2       DO CASE(P_B.NDTYPE) ;
     4114     3304
     4115     3305    2       CASE( %ALTERN#,
     4116     3306    2         %KONCAT#,
     4117     3307    2         %LIST#,
     4118     3308    2         %RALTERN#) ;
     4119     3309    3           DO I=0 TO P_B.NSUBLKS-1 ;
     4120     3310    3               CALL XUG$BLANK_PASSWORD_COMMON(GETCMD_PARAM,
     4121     3311    3                 P_B.SUBLK$(I)->P$B) ALTRET(BP_ALT) ;
     4122     3312    3           END ;                     /* Do I */
     4123     3313
     4124     3314    2       CASE( %FID#) ;
     4125     3315    2           CALL XUG$PASSWORD_BLANKER(GETCMD_PARAM, P_B) ALTRET(BP_ALT) ;
     4126     3316
     4127     3317    2       END ;                          /* Do Case */
     4128     3318
     4129     3319    1       RETURN ;
     4130     3320
     4131     3321    1   BP_ALT:
PL6.E3A0      #017=XUG$BLANK_PASSWORD_COMMON File=XUG$COMMON.:E05TSI             WED 07/30/97 09:29 Page:789
     4132     3322    1       ALTRETURN ;
     4133     3323    1   END     XUG$BLANK_PASSWORD_COMMON ;
     4134     3324        %EOD;

PL6.E3A0      #017=XUG$BLANK_PASSWORD_COMMON File=XUG$COMMON.:E05TSI             WED 07/30/97 09:29 Page:790
--  Include file information  --

   XU_SUBS_C.:E05TOU  is referenced.
   XU_MACRO_C.:E05TOU  is referenced.
      No diagnostics issued in procedure XUG$BLANK_PASSWORD_COMMON.

   Procedure XUG$BLANK_PASSWORD_COMMON requires 59 words for executable code.
   Procedure XUG$BLANK_PASSWORD_COMMON requires 8 words of local(AUTO) storage.

PL6.E3A0      #017=XUG$BLANK_PASSWORD_COMMON File=XUG$COMMON.:E05TSI             WED 07/30/97 09:29 Page:791

 Object Unit name= XUG$BLANK_PASSWORD_COMMON                  File name= XUG$COMMON.:E05TOU
 UTS= JUL 30 '97 09:29:13.00 WED                              Compiler= PL-6/E31         Sev=      00
 SharedLib= :SHARED_SYSTEM                                    Alt SharedLib=


    ****  Control sections  ****

 Sect   Type Bound  Init  Size OctSiz  Section name(segment info)
    0   Proc  even  none    59     73  XUG$BLANK_PASSWORD_COMMON

    ****  Entry defs  ****

                              Check   Calling
                             calling  sequence
  Sect OctLoc Primary Altret sequence   type   Parms  Name
     0      0   yes    yes     yes      Std        2  XUG$BLANK_PASSWORD_COMMON

  ****  Entry refs  ****

         Check        Calling
        calling       sequence
Altret sequence SRef   type   Args  Name
 yes     yes           Std       2 XUG$PASSWORD_BLANKER
                       nStd      0 X66_AUTO_2
                       Std       0 B_CONSPOOL_D
                       nStd      0 X66_ARET
                       nStd      0 X66_AALT

  ****  Data refs  ****

  Flags:  r = read only, s = secondary
Flgs Name                             Flgs Name                             Flgs Name
     B_VECTNIL
PL6.E3A0      #017=XUG$BLANK_PASSWORD_COMMON File=XUG$COMMON.:E05TSI             WED 07/30/97 09:29 Page:792


     4095        1        /*T***********************************************************/
     4096        2        /*T*                                                         */
     4097        3        /*T* Copyright (c) Bull HN Information Systems Inc., 1997    */
     4098        4        /*T*                                                         */
     4099        5        /*T***********************************************************/
     4100        6        /* XUG$BLANK_PASSWORD_COMMON   Routine to LOCATE and BLANK the PASSWORDs.    */
     4101        7        XUG$BLANK_PASSWORD_COMMON: PROC(GETCMD_PARAM, P_B) ALTRET ;

      7  0 000000   000000 700200 xent  XUG$BLANK_P* TSX0  ! X66_AUTO_2
         0 000001   000010 000002                    ZERO    8,2

     4102        8        /*X* DMC,PLM=4,IND=4,CTI=2,DTI=0,ENI=0,ECI=0,CSI=0,MCI,DCI=4 */
     4103        9        %INCLUDE XU_MACRO_C ;
     4104     3115    1   DCL GETCMD_PARAM UBIN WORD ;
     4105     3116        %PARSE$OUT (NAME=P_B, STCLASS=PARAM) ;
     4106     3161
     4107     3162        %INCLUDE XU_SUBS_C ;
     4108     3254        %PARSE$OUT (NAME=P$B, STCLASS=BASED) ;
     4109     3299    1   DCL I UBIN ;
     4110     3300
     4111     3301    1   DCL XUG$PASSWORD_BLANKER ENTRY(2) ALTRET ;
     4112     3302
     4113     3303    2       DO CASE(P_B.NDTYPE) ;

   3303  0 000002   200004 470500                    LDP0    @P_B,,AUTO
         0 000003   000000 220100                    LDX0    0,,PR0
         0 000004   000077 360003                    ANX0    63,DU
         0 000005   000027 100003                    CMPX0   23,DU
         0 000006   000010 602010 0                  TNC     s:3303+6,X0
         0 000007   000071 710000 0                  TRA     s:3319
         0 000010   000071 710000 0                  TRA     s:3319
         0 000011   000037 710000 0                  TRA     s:3309
         0 000012   000037 710000 0                  TRA     s:3309
         0 000013   000037 710000 0                  TRA     s:3309
         0 000014   000071 710000 0                  TRA     s:3319
         0 000015   000071 710000 0                  TRA     s:3319
PL6.E3A0      #017=XUG$BLANK_PASSWORD_COMMON File=XUG$COMMON.:E05TSI             WED 07/30/97 09:29 Page:793
         0 000016   000071 710000 0                  TRA     s:3319
         0 000017   000071 710000 0                  TRA     s:3319
         0 000020   000037 710000 0                  TRA     s:3309
         0 000021   000071 710000 0                  TRA     s:3319
         0 000022   000071 710000 0                  TRA     s:3319
         0 000023   000071 710000 0                  TRA     s:3319
         0 000024   000071 710000 0                  TRA     s:3319
         0 000025   000071 710000 0                  TRA     s:3319
         0 000026   000071 710000 0                  TRA     s:3319
         0 000027   000071 710000 0                  TRA     s:3319
         0 000030   000071 710000 0                  TRA     s:3319
         0 000031   000071 710000 0                  TRA     s:3319
         0 000032   000071 710000 0                  TRA     s:3319
         0 000033   000071 710000 0                  TRA     s:3319
         0 000034   000071 710000 0                  TRA     s:3319
         0 000035   000071 710000 0                  TRA     s:3319
         0 000036   000065 710000 0                  TRA     s:3315

     4114     3304
     4115     3305    2       CASE( %ALTERN#,

     4116     3306    2         %KONCAT#,
     4117     3307    2         %LIST#,
     4118     3308    2         %RALTERN#) ;
     4119     3309    3           DO I=0 TO P_B.NSUBLKS-1 ;

   3309  0 000037   200005 450100                    STZ     I,,AUTO
         0 000040   000056 710000 0                  TRA     s:3312+3

     4120     3310    3               CALL XUG$BLANK_PASSWORD_COMMON(GETCMD_PARAM,

   3310  0 000041   200004 470500                    LDP0    @P_B,,AUTO
         0 000042   200005 720100                    LXL0    I,,AUTO
         0 000043   000003 471510                    LDP1    3,X0,PR0
         0 000044   200007 451500                    STP1    I+2,,AUTO
         0 000045   200003 236100                    LDQ     @GETCMD_PARAM,,AUTO
         0 000046   200006 756100                    STQ     I+1,,AUTO
PL6.E3A0      #017=XUG$BLANK_PASSWORD_COMMON File=XUG$COMMON.:E05TSI             WED 07/30/97 09:29 Page:794
         0 000047   200006 630500                    EPPR0   I+1,,AUTO
         0 000050   000020 631400 xsym               EPPR1   B_VECTNIL+16
         0 000051   000000 701000 0                  TSX1    s:7
         0 000052   000072 702000 0                  TSX2    BP_ALT

     4121     3311    3                 P_B.SUBLK$(I)->P$B) ALTRET(BP_ALT) ;
     4122     3312    3           END ;                     /* Do I */

   3312  0 000053   200005 235100                    LDA     I,,AUTO
         0 000054   000001 035007                    ADLA    1,DL
         0 000055   200005 755100                    STA     I,,AUTO
         0 000056   200004 470500                    LDP0    @P_B,,AUTO
         0 000057   000001 236100                    LDQ     1,,PR0
         0 000060   000022 772000                    QRL     18
         0 000061   200005 116100                    CMPQ    I,,AUTO
         0 000062   000064 600000 0                  TZE     s:3312+9
         0 000063   000041 603000 0                  TRC     s:3310
         0 000064   000071 710000 0                  TRA     s:3319

     4123     3313
     4124     3314    2       CASE( %FID#) ;

     4125     3315    2           CALL XUG$PASSWORD_BLANKER(GETCMD_PARAM, P_B) ALTRET(BP_ALT) ;

   3315  0 000065   200003 630500                    EPPR0   @GETCMD_PARAM,,AUTO
         0 000066   000020 631400 xsym               EPPR1   B_VECTNIL+16
         0 000067   000000 701000 xent               TSX1    XUG$PASSWORD_BLANKER
         0 000070   000072 702000 0                  TSX2    BP_ALT

     4126     3316
     4127     3317    2       END ;                          /* Do Case */

     4128     3318
     4129     3319    1       RETURN ;

   3319  0 000071   000000 702200 xent               TSX2  ! X66_ARET

PL6.E3A0      #017=XUG$BLANK_PASSWORD_COMMON File=XUG$COMMON.:E05TSI             WED 07/30/97 09:29 Page:795
     4130     3320
     4131     3321    1   BP_ALT:
     4132     3322    1       ALTRETURN ;

   3322  0 000072   000000 702200 xent  BP_ALT       TSX2  ! X66_AALT
     4133     3323    1   END     XUG$BLANK_PASSWORD_COMMON ;
     4134     3324        %EOD;

PL6.E3A0      #017=XUG$BLANK_PASSWORD_COMMON File=XUG$COMMON.:E05TSI             WED 07/30/97 09:29 Page:796
--  Include file information  --

   XU_SUBS_C.:E05TOU  is referenced.
   XU_MACRO_C.:E05TOU  is referenced.
      No diagnostics issued in procedure XUG$BLANK_PASSWORD_COMMON.
PL6.E3A0      #017=XUG$BLANK_PASSWORD_COMMON File=XUG$COMMON.:E05TSI             WED 07/30/97 09:29 Page:797

 **** Variables and constants ****

  ****  Auto variables  ****

  ****  Scalars and arrays  ****
OctLoc.c.b A Datatyp(siz) R M Lvl/name                 OctLoc.c.b A Datatyp(siz) R M Lvl/name

     3-0-0/w PTR         r     1 @GETCMD_PARAM              4-0-0/w PTR         r     1 @P_B
    *0-0-0/w UBIN        r     1 GETCMD_PARAM               5-0-0/w UBIN        r     1 I
    *0-0-0/w STRC(144)   r     1 P_B

  ****  BASED and DCB variables  ****

  ****  Scalars and arrays  ****
OctLoc.c.b A Datatyp(siz) R M Lvl/name                 OctLoc.c.b A Datatyp(siz) R M Lvl/name

     0-0-0/w STRC(144)   r     1 P$B


   Procedure XUG$BLANK_PASSWORD_COMMON requires 59 words for executable code.
   Procedure XUG$BLANK_PASSWORD_COMMON requires 8 words of local(AUTO) storage.
PL6.E3A0      #017=XUG$BLANK_PASSWORD_COMMON File=XUG$COMMON.:E05TSI             WED 07/30/97 09:29 Page:798
          *** CROSS REFERENCE LISTING ***
**     DENOTES     IDENTIFIER DEFINITION
<<                 IDENTIFIER'S VALUE SET
>>                 IDENTIFIER'S VALUE USED
<>                 IDENTIFIER SET AND/OR USED
--                 IDENTIFIER REFERENCED
PL6.E3A0      #017=XUG$BLANK_PASSWORD_COMMON File=XUG$COMMON.:E05TSI             WED 07/30/97 09:29 Page:799
          MINI XREF LISTING

BP_ALT
      3322**LABEL    3310--CALLALT  3315--CALLALT
GETCMD_PARAM
      3115**DCL         7--PROC     3310<>CALL     3315<>CALL
I
      3299**DCL      3309<<DOINDEX  3310>>CALL
P$B
      3260**DCL      3310<>CALL
P_B
      3122**DCL         7--PROC     3315<>CALL
P_B.NDTYPE
      3125**DCL      3303>>DOCASE
P_B.NSUBLKS
      3134**DCL      3309>>DOINDEX
P_B.SUBLK$
      3155**DCL      3310>>CALL
XUG$BLANK_PASSWORD_COMMON
         7**PROC     3310--CALL
XUG$PASSWORD_BLANKER
      3301**DCL-ENT  3315--CALL

PL6.E3A0      #018=XUG$PASSWORD_BLANKER File=XUG$COMMON.:E05TSI                  WED 07/30/97 09:29 Page:800
     4135        1        /*T***********************************************************/
     4136        2        /*T*                                                         */
     4137        3        /*T* Copyright (c) Bull HN Information Systems Inc., 1997    */
     4138        4        /*T*                                                         */
     4139        5        /*T***********************************************************/
     4140        6        /* XUG$PASSWORD_BLANKER   Routine to do the actual BLANKing of PASSWORDs.    */
     4141        7        XUG$PASSWORD_BLANKER: PROC(GETCMD,P_S) ALTRET ;
     4142        8        /*X* DMC,PLM=4,IND=4,CTI=2,DTI=0,ENI=0,ECI=0,CSI=0,MCI,DCI=4 */
     4143        9        %INCLUDE XU_MACRO_C ;
     4144     3115        %XUG_GETCMD (NAME=GETCMD, STCLASS=PARAM) ;
     4145     3453        %PARSE$SYM (NAME=P_S, STCLASS=PARAM) ;
     4146     3491
     4147     3492        %INCLUDE CP_6 ;
     4148     9051        %INCLUDE XUH_MACRO_C ;
     4149     9135
     4150     9136    1   DCL I UBIN ;
     4151     9137    1   DCL XUG$ PTR ;
     4152     9138        %XUG_PARAMS ;
     4153     9582    1   DCL B$TCB$ PTR SYMREF ;
     4154     9583        %B$TCB(STCLASS="BASED(B$TCB$)") ;
     4155     9586        %B$ALT(STCLASS=BASED) ;
     4156     9594        %FPT_FID (FPTN=FPT_FID_C, STCLASS=CONSTANT) ;
     4157     9617        %FPT_FID (FPTN=FPT_FID, STCLASS=AUTO) ;
     4158     9640        %VLP_NAME (FPTN=VLP_NAME, STCLASS=AUTO) ;
     4159     9667        %VLP_ACCT (FPTN=VLP_ACCT, STCLASS=AUTO) ;
     4160     9680        %VLP_SN (FPTN=VLP_SN, N=50, STCLASS=AUTO) ;
     4161     9693        %VLR_FID (FPTN=FID_RESULTS, STCLASS=AUTO) ;
     4162     9712    1   DCL ASN UBIN(9) ;                       /* Fid assignment type */
     4163     9713    1   DCL TBUFF CHAR(8) ;
     4164     9714    1   DCL VARY$ PTR ;
     4165     9715    1   DCL VSIZE UBIN ;
     4166     9716    1   DCL VARY$STR CHAR(VSIZE) BASED(VARY$) ;
     4167     9717
     4168     9718    1       FPT_FID = FPT_FID_C ;
     4169     9719    1       FPT_FID.V_ = VECTOR(FPT_FID.V) ;
     4170     9720    1       FPT_FID.TEXTFID_=VECTOR(P_S.TEXT) ;
     4171     9721    1       FPT_FID.NAME_ = VECTOR(VLP_NAME) ;
PL6.E3A0      #018=XUG$PASSWORD_BLANKER File=XUG$COMMON.:E05TSI                  WED 07/30/97 09:29 Page:801
     4172     9722    1       FPT_FID.ACCT_ = VECTOR(VLP_ACCT) ;
     4173     9723    1       FPT_FID.PASS_ = VECTOR(VLP_ACCT) ;
     4174     9724    1       FPT_FID.SN_ = VECTOR(VLP_SN) ;
     4175     9725    1       FPT_FID.WSN_ = VECTOR(VLP_ACCT) ;
     4176     9726    1       FPT_FID.ASN_ = VECTOR(ASN) ;
     4177     9727    1       FPT_FID.RES_ = VECTOR(TBUFF) ;
     4178     9728    1       FPT_FID.RESULTS_ = VECTOR(FID_RESULTS) ;
     4179     9729    1       CALL M$FID(FPT_FID) ALTRET(BLANK_ALT) ;
     4180     9730
     4181     9731    1       IF FID_RESULTS.PASS
     4182     9732    1       THEN
     4183     9733    2       DO ;
     4184     9734    2           XUG$ = GETCMD.WORK$ ;
     4185     9735    2           VARY$ = PINCRC(VBASE(XUG.BUFVEC), P_S.CPOS) ;
     4186     9736    2           VARY$ = PINCRC(VARY$, FID_RESULTS.SINDEX.PASS-1) ;
     4187     9737    2           VSIZE = FID_RESULTS.CLENGTH.PASS+1 ;
     4188     9738    2           VARY$STR = ' ' ;
     4189     9739    2       END ;                        /* Then Do */
     4190     9740
     4191     9741    1   BLANK_ALT:
     4192     9742
     4193     9743    1       RETURN;
     4194     9744
     4195     9745    1   END     XUG$PASSWORD_BLANKER ;
     4196     9746        %EOD;

PL6.E3A0      #018=XUG$PASSWORD_BLANKER File=XUG$COMMON.:E05TSI                  WED 07/30/97 09:29 Page:802
--  Include file information  --

   XUH_MACRO_C.:E05TOU  is referenced.
   CP_6_C.:E05TOU  is referenced.
   CP_6.:E05TOU  cannot be made into a system file and is referenced.
   XU_MACRO_C.:E05TOU  is referenced.
      No diagnostics issued in procedure XUG$PASSWORD_BLANKER.

   Procedure XUG$PASSWORD_BLANKER requires 93 words for executable code.
   Procedure XUG$PASSWORD_BLANKER requires 136 words of local(AUTO) storage.

PL6.E3A0      #018=XUG$PASSWORD_BLANKER File=XUG$COMMON.:E05TSI                  WED 07/30/97 09:29 Page:803

 Object Unit name= XUG$PASSWORD_BLANKER                       File name= XUG$COMMON.:E05TOU
 UTS= JUL 30 '97 09:29:22.16 WED                              Compiler= PL-6/E31         Sev=      00
 SharedLib= :SHARED_SYSTEM                                    Alt SharedLib=


    ****  Control sections  ****

 Sect   Type Bound  Init  Size OctSiz  Section name(segment info)
    0   DCB   even  none     0      0  M$UC
    1  RoData even  UTS     24     30  XUG$PASSWORD_BLANKER
    2   Proc  even  none    93    135  XUG$PASSWORD_BLANKER
    3  RoData even  none     6      6  XUG$PASSWORD_BLANKER

    ****  Entry defs  ****

                              Check   Calling
                             calling  sequence
  Sect OctLoc Primary Altret sequence   type   Parms  Name
     2      0   yes    yes     yes      Std        2  XUG$PASSWORD_BLANKER

  ****  Entry refs  ****

         Check        Calling
        calling       sequence
Altret sequence SRef   type   Args  Name
                       nStd      0 X66_AUTO_2
                       Std       0 B_CONSPOOL_D
                       nStd      0 X66_ARET

  ****  Data refs  ****

  Flags:  r = read only, s = secondary
Flgs Name                             Flgs Name                             Flgs Name
     M$UC                                  B$TCB$                                B_VECTNIL
PL6.E3A0      #018=XUG$PASSWORD_BLANKER File=XUG$COMMON.:E05TSI                  WED 07/30/97 09:29 Page:804

  ****  Segment refs  ****

  Flags:  r = read only, s = secondary
Flgs Name                             Flgs Name                             Flgs Name
     ISSID                                 NULLSID
PL6.E3A0      #018=XUG$PASSWORD_BLANKER File=XUG$COMMON.:E05TSI                  WED 07/30/97 09:29 Page:805


     4135        1        /*T***********************************************************/
     4136        2        /*T*                                                         */
     4137        3        /*T* Copyright (c) Bull HN Information Systems Inc., 1997    */
     4138        4        /*T*                                                         */
     4139        5        /*T***********************************************************/
     4140        6        /* XUG$PASSWORD_BLANKER   Routine to do the actual BLANKing of PASSWORDs.    */
     4141        7        XUG$PASSWORD_BLANKER: PROC(GETCMD,P_S) ALTRET ;

      7  2 000000   000000 700200 xent  XUG$PASSWOR* TSX0  ! X66_AUTO_2
         2 000001   000210 000002                    ZERO    136,2

     4142        8        /*X* DMC,PLM=4,IND=4,CTI=2,DTI=0,ENI=0,ECI=0,CSI=0,MCI,DCI=4 */
     4143        9        %INCLUDE XU_MACRO_C ;
     4144     3115        %XUG_GETCMD (NAME=GETCMD, STCLASS=PARAM) ;
     4145     3453        %PARSE$SYM (NAME=P_S, STCLASS=PARAM) ;
     4146     3491
     4147     3492        %INCLUDE CP_6 ;
     4148     9051        %INCLUDE XUH_MACRO_C ;
     4149     9135
     4150     9136    1   DCL I UBIN ;
     4151     9137    1   DCL XUG$ PTR ;
     4152     9138        %XUG_PARAMS ;
     4153     9582    1   DCL B$TCB$ PTR SYMREF ;
     4154     9583        %B$TCB(STCLASS="BASED(B$TCB$)") ;
     4155     9586        %B$ALT(STCLASS=BASED) ;
     4156     9594        %FPT_FID (FPTN=FPT_FID_C, STCLASS=CONSTANT) ;
     4157     9617        %FPT_FID (FPTN=FPT_FID, STCLASS=AUTO) ;
     4158     9640        %VLP_NAME (FPTN=VLP_NAME, STCLASS=AUTO) ;
     4159     9667        %VLP_ACCT (FPTN=VLP_ACCT, STCLASS=AUTO) ;
     4160     9680        %VLP_SN (FPTN=VLP_SN, N=50, STCLASS=AUTO) ;
     4161     9693        %VLR_FID (FPTN=FID_RESULTS, STCLASS=AUTO) ;
     4162     9712    1   DCL ASN UBIN(9) ;                       /* Fid assignment type */
     4163     9713    1   DCL TBUFF CHAR(8) ;
     4164     9714    1   DCL VARY$ PTR ;
     4165     9715    1   DCL VSIZE UBIN ;
     4166     9716    1   DCL VARY$STR CHAR(VSIZE) BASED(VARY$) ;
PL6.E3A0      #018=XUG$PASSWORD_BLANKER File=XUG$COMMON.:E05TSI                  WED 07/30/97 09:29 Page:806
     4167     9717
     4168     9718    1       FPT_FID = FPT_FID_C ;

   9718  2 000002   000100 100400                    MLR     fill='000'O
         2 000003   000000 000140 1                  ADSC9   FPT_FID_C                cn=0,n=96
         2 000004   200010 000140                    ADSC9   FPT_FID,,AUTO            cn=0,n=96

     4169     9719    1       FPT_FID.V_ = VECTOR(FPT_FID.V) ;

   9719  2 000005   000000 235000 3                  LDA     0
         2 000006   200206 452500                    STP2    VSIZE+2,,AUTO
         2 000007   200206 236100                    LDQ     VSIZE+2,,AUTO
         2 000010   000034 036003                    ADLQ    28,DU
         2 000011   200010 757100                    STAQ    FPT_FID,,AUTO

     4170     9720    1       FPT_FID.TEXTFID_=VECTOR(P_S.TEXT) ;

   9720  2 000012   200004 470500                    LDP0    @P_S,,AUTO
         2 000013   000004 236100                    LDQ     4,,PR0
         2 000014   000033 772000                    QRL     27
         2 000015   000064 737000                    LLS     52
         2 000016   000140 135007                    SBLA    96,DL
         2 000017   200004 236100                    LDQ     @P_S,,AUTO
         2 000020   000001 036000 3                  ADLQ    1
         2 000021   200012 757100                    STAQ    FPT_FID+2,,AUTO

     4171     9721    1       FPT_FID.NAME_ = VECTOR(VLP_NAME) ;

   9721  2 000022   000002 235000 3                  LDA     2
         2 000023   200206 452500                    STP2    VSIZE+2,,AUTO
         2 000024   200206 236100                    LDQ     VSIZE+2,,AUTO
         2 000025   000040 036003                    ADLQ    32,DU
         2 000026   200014 757100                    STAQ    FPT_FID+4,,AUTO

     4172     9722    1       FPT_FID.ACCT_ = VECTOR(VLP_ACCT) ;

   9722  2 000027   000003 235000 3                  LDA     3
PL6.E3A0      #018=XUG$PASSWORD_BLANKER File=XUG$COMMON.:E05TSI                  WED 07/30/97 09:29 Page:807
         2 000030   200206 452500                    STP2    VSIZE+2,,AUTO
         2 000031   200206 236100                    LDQ     VSIZE+2,,AUTO
         2 000032   000050 036003                    ADLQ    40,DU
         2 000033   200016 757100                    STAQ    FPT_FID+6,,AUTO

     4173     9723    1       FPT_FID.PASS_ = VECTOR(VLP_ACCT) ;

   9723  2 000034   000003 235000 3                  LDA     3
         2 000035   200206 452500                    STP2    VSIZE+2,,AUTO
         2 000036   200206 236100                    LDQ     VSIZE+2,,AUTO
         2 000037   000050 036003                    ADLQ    40,DU
         2 000040   200020 757100                    STAQ    FPT_FID+8,,AUTO

     4174     9724    1       FPT_FID.SN_ = VECTOR(VLP_SN) ;

   9724  2 000041   000004 235000 3                  LDA     4
         2 000042   200206 452500                    STP2    VSIZE+2,,AUTO
         2 000043   200206 236100                    LDQ     VSIZE+2,,AUTO
         2 000044   000052 036003                    ADLQ    42,DU
         2 000045   200022 757100                    STAQ    FPT_FID+10,,AUTO

     4175     9725    1       FPT_FID.WSN_ = VECTOR(VLP_ACCT) ;

   9725  2 000046   000003 235000 3                  LDA     3
         2 000047   200206 452500                    STP2    VSIZE+2,,AUTO
         2 000050   200206 236100                    LDQ     VSIZE+2,,AUTO
         2 000051   000050 036003                    ADLQ    40,DU
         2 000052   200024 757100                    STAQ    FPT_FID+12,,AUTO

     4176     9726    1       FPT_FID.ASN_ = VECTOR(ASN) ;

   9726  2 000053   777640 235007                    LDA     -96,DL
         2 000054   200206 452500                    STP2    VSIZE+2,,AUTO
         2 000055   200206 236100                    LDQ     VSIZE+2,,AUTO
         2 000056   000200 036003                    ADLQ    128,DU
         2 000057   200026 757100                    STAQ    FPT_FID+14,,AUTO

PL6.E3A0      #018=XUG$PASSWORD_BLANKER File=XUG$COMMON.:E05TSI                  WED 07/30/97 09:29 Page:808
     4177     9727    1       FPT_FID.RES_ = VECTOR(TBUFF) ;

   9727  2 000060   000003 235000 3                  LDA     3
         2 000061   200206 452500                    STP2    VSIZE+2,,AUTO
         2 000062   200206 236100                    LDQ     VSIZE+2,,AUTO
         2 000063   000201 036003                    ADLQ    129,DU
         2 000064   200030 757100                    STAQ    FPT_FID+16,,AUTO

     4178     9728    1       FPT_FID.RESULTS_ = VECTOR(FID_RESULTS) ;

   9728  2 000065   000005 235000 3                  LDA     5
         2 000066   200206 452500                    STP2    VSIZE+2,,AUTO
         2 000067   200206 236100                    LDQ     VSIZE+2,,AUTO
         2 000070   000166 036003                    ADLQ    118,DU
         2 000071   200032 757100                    STAQ    FPT_FID+18,,AUTO

     4179     9729    1       CALL M$FID(FPT_FID) ALTRET(BLANK_ALT) ;

   9729  2 000072   200010 630500                    EPPR0   FPT_FID,,AUTO
         2 000073   420001 713400                    CLIMB   alt,+8193
         2 000074   404400 401760                    pmme    nvectors=10
         2 000075   000134 702000 2                  TSX2    BLANK_ALT

     4180     9730
     4181     9731    1       IF FID_RESULTS.PASS

   9731  2 000076   200166 236100                    LDQ     FID_RESULTS,,AUTO
         2 000077   100000 316003                    CANQ    32768,DU
         2 000100   000134 600000 2                  TZE     BLANK_ALT

     4182     9732    1       THEN
     4183     9733    2       DO ;

     4184     9734    2           XUG$ = GETCMD.WORK$ ;

   9734  2 000101   200003 470500                    LDP0    @GETCMD,,AUTO
         2 000102   000004 236100                    LDQ     4,,PR0
PL6.E3A0      #018=XUG$PASSWORD_BLANKER File=XUG$COMMON.:E05TSI                  WED 07/30/97 09:29 Page:809
         2 000103   200006 756100                    STQ     XUG$,,AUTO

     4185     9735    2           VARY$ = PINCRC(VBASE(XUG.BUFVEC), P_S.CPOS) ;

   9735  2 000104   200004 471500                    LDP1    @P_S,,AUTO
         2 000105   100002 236100                    LDQ     2,,PR1
         2 000106   200006 473500                    LDP3    XUG$,,AUTO
         2 000107   300001 474500                    LDP4    1,,PR3
         2 000110   000011 402007                    MPY     9,DL
         2 000111   400000 503506                    ABD     0,QL,PR4
         2 000112   200203 454500                    STP4    VARY$,,AUTO

     4186     9736    2           VARY$ = PINCRC(VARY$, FID_RESULTS.SINDEX.PASS-1) ;

   9736  2 000113   200171 236100                    LDQ     FID_RESULTS+3,,AUTO
         2 000114   000022 772000                    QRL     18
         2 000115   000777 376007                    ANQ     511,DL
         2 000116   000020 736000                    QLS     16
         2 000117   200000 136007                    SBLQ    65536,DL
         2 000120   200203 036100                    ADLQ    VARY$,,AUTO
         2 000121   200203 756100                    STQ     VARY$,,AUTO

     4187     9737    2           VSIZE = FID_RESULTS.CLENGTH.PASS+1 ;

   9737  2 000122   200173 236100                    LDQ     FID_RESULTS+5,,AUTO
         2 000123   000011 772000                    QRL     9
         2 000124   000777 376007                    ANQ     511,DL
         2 000125   000001 036007                    ADLQ    1,DL
         2 000126   200204 756100                    STQ     VSIZE,,AUTO

     4188     9738    2           VARY$STR = ' ' ;

   9738  2 000127   200203 474500                    LDP4    VARY$,,AUTO
         2 000130   000000 620006                    EAX0    0,QL
         2 000131   040140 100400                    MLR     fill='040'O
         2 000132   000035 000001 xsym               ADSC9   B_VECTNIL+29             cn=0,n=1
         2 000133   400000 000010                    ADSC9   0,,PR4                   cn=0,n=*X0
PL6.E3A0      #018=XUG$PASSWORD_BLANKER File=XUG$COMMON.:E05TSI                  WED 07/30/97 09:29 Page:810

     4189     9739    2       END ;                        /* Then Do */

     4190     9740
     4191     9741    1   BLANK_ALT:
     4192     9742
     4193     9743    1       RETURN;

   9743  2 000134   000000 702200 xent  BLANK_ALT    TSX2  ! X66_ARET
     4194     9744
     4195     9745    1   END     XUG$PASSWORD_BLANKER ;
     4196     9746        %EOD;

PL6.E3A0      #018=XUG$PASSWORD_BLANKER File=XUG$COMMON.:E05TSI                  WED 07/30/97 09:29 Page:811
--  Include file information  --

   XUH_MACRO_C.:E05TOU  is referenced.
   CP_6_C.:E05TOU  is referenced.
   CP_6.:E05TOU  cannot be made into a system file and is referenced.
   XU_MACRO_C.:E05TOU  is referenced.
      No diagnostics issued in procedure XUG$PASSWORD_BLANKER.
PL6.E3A0      #018=XUG$PASSWORD_BLANKER File=XUG$COMMON.:E05TSI                  WED 07/30/97 09:29 Page:812

 **** Variables and constants ****

  ****  Section 001 RoData XUG$PASSWORD_BLANKER

  ****  Scalars and arrays  ****
OctLoc.c.b A Datatyp(siz) R M Lvl/name                 OctLoc.c.b A Datatyp(siz) R M Lvl/name

     0-0-0/d STRC(864)   r     1 FPT_FID_C

  ****  Auto variables  ****

  ****  Scalars and arrays  ****
OctLoc.c.b A Datatyp(siz) R M Lvl/name                 OctLoc.c.b A Datatyp(siz) R M Lvl/name

     3-0-0/w PTR         r     1 @GETCMD                    4-0-0/w PTR         r     1 @P_S
   200-0-0/w UBIN(9)     r     1 ASN                      166-0-0/d STRC(324)   r     1 FID_RESULTS
    10-0-0/d STRC(864)   r     1 FPT_FID                   *0-0-0/d STRC(1512)  r     1 GETCMD
    *0-0-0/w ASTR(153)   r     1 P_S                      201-0-0/c CHAR(8)     r     1 TBUFF
   203-0-0/w PTR         r     1 VARY$                     50-0-0/c STRC(72)    r     1 VLP_ACCT
    40-0-0/c STRC(288)   r     1 VLP_NAME                  52-0-0/d STRC(2736)  r     1 VLP_SN
   204-0-0/w UBIN        r     1 VSIZE                      6-0-0/w PTR         r     1 XUG$

  ****  SYMREF variables  ****

  ****  Scalars and arrays  ****
OctLoc.c.b A Datatyp(siz) R M Lvl/name                 OctLoc.c.b A Datatyp(siz) R M Lvl/name

     0-0-0/w PTR         r     1 B$TCB$

  ****  BASED and DCB variables  ****

  ****  Scalars and arrays  ****
OctLoc.c.b A Datatyp(siz) R M Lvl/name                 OctLoc.c.b A Datatyp(siz) R M Lvl/name

     0-0-0/c ACHR        r     1 VARY$STR                   0-0-0/d STRC(9612)  r     1 XUG

PL6.E3A0      #018=XUG$PASSWORD_BLANKER File=XUG$COMMON.:E05TSI                  WED 07/30/97 09:29 Page:813

   Procedure XUG$PASSWORD_BLANKER requires 93 words for executable code.
   Procedure XUG$PASSWORD_BLANKER requires 136 words of local(AUTO) storage.
PL6.E3A0      #018=XUG$PASSWORD_BLANKER File=XUG$COMMON.:E05TSI                  WED 07/30/97 09:29 Page:814
          *** CROSS REFERENCE LISTING ***
**     DENOTES     IDENTIFIER DEFINITION
<<                 IDENTIFIER'S VALUE SET
>>                 IDENTIFIER'S VALUE USED
<>                 IDENTIFIER SET AND/OR USED
--                 IDENTIFIER REFERENCED
PL6.E3A0      #018=XUG$PASSWORD_BLANKER File=XUG$COMMON.:E05TSI                  WED 07/30/97 09:29 Page:815
          MINI XREF LISTING

ASN
      9712**DCL      9726--ASSIGN
B$ALT.CODE
      9588**DCL      9588--REDEF    9589--REDEF    9589--REDEF
B$ALT.ERR.ERR#
      9590**DCL      9590--REDEF
B$ALT.EVID
      9589**DCL      9589--REDEF    9589--REDEF
B$TCB$
      9582**DCL      9584--IMP-PTR
BLANK_ALT
      9743**LABEL    9729--CALLALT
FID_RESULTS
      9704**DCL      9728--ASSIGN
FID_RESULTS.CLENGTH.PASS
      9709**DCL      9737>>ASSIGN
FID_RESULTS.PASS
      9704**DCL      9731>>IF
FID_RESULTS.SINDEX.PASS
      9707**DCL      9736>>ASSIGN
FPT_FID
      9628**DCL      9718<<ASSIGN   9729<>CALL
FPT_FID.ACCT_
      9629**DCL      9722<<ASSIGN
FPT_FID.ASN_
      9631**DCL      9726<<ASSIGN
FPT_FID.NAME_
      9629**DCL      9721<<ASSIGN
FPT_FID.PASS_
      9629**DCL      9723<<ASSIGN
FPT_FID.RESULTS_
      9631**DCL      9728<<ASSIGN
PL6.E3A0      #018=XUG$PASSWORD_BLANKER File=XUG$COMMON.:E05TSI                  WED 07/30/97 09:29 Page:816
FPT_FID.RES_
      9631**DCL      9727<<ASSIGN
FPT_FID.SN_
      9630**DCL      9724<<ASSIGN
FPT_FID.TEXTFID_
      9628**DCL      9720<<ASSIGN
FPT_FID.V
      9632**DCL      9719--ASSIGN
FPT_FID.V_
      9628**DCL      9719<<ASSIGN
FPT_FID.WSN_
      9630**DCL      9725<<ASSIGN
FPT_FID_C
      9605**DCL      9718>>ASSIGN
FPT_FID_C.V
      9609**DCL      9605--DCLINIT
GETCMD
      3128**DCL         7--PROC
GETCMD.OUT$
      3133**DCL      3139--REDEF
GETCMD.WORK$
      3161**DCL      9734>>ASSIGN
M$FID
      9042**DCL-ENT  9729--CALL
P_S
      3460**DCL         7--PROC
P_S.COUNT
      3483**DCL      3486--IMP-SIZ  9720>>ASSIGN
P_S.CPOS
      3475**DCL      9735>>ASSIGN
P_S.TEXT
      3486**DCL      9720--ASSIGN
TBUFF
      9713**DCL      9727--ASSIGN
VARY$
      9714**DCL      9716--IMP-PTR  9735<<ASSIGN   9736<<ASSIGN   9736>>ASSIGN   9738>>ASSIGN
PL6.E3A0      #018=XUG$PASSWORD_BLANKER File=XUG$COMMON.:E05TSI                  WED 07/30/97 09:29 Page:817
VARY$STR
      9716**DCL      9738<<ASSIGN
VLP_ACCT
      9678**DCL      9722--ASSIGN   9723--ASSIGN   9725--ASSIGN
VLP_NAME
      9665**DCL      9721--ASSIGN
VLP_SN
      9691**DCL      9724--ASSIGN
VSIZE
      9715**DCL      9716--IMP-SIZ  9737<<ASSIGN   9738>>ASSIGN
XUG.BUF
      9577**DCL      9580--REDEF
XUG.BUFVEC
      9142**DCL      9735>>ASSIGN
XUG$
      9137**DCL      9141--IMP-PTR  9734<<ASSIGN   9735>>ASSIGN

PL6.E3A0      #019=XUG$OPENOUT_COMMON File=XUG$COMMON.:E05TSI                    WED 07/30/97 09:29 Page:818
     4197        1        /*T***********************************************************/
     4198        2        /*T*                                                         */
     4199        3        /*T* Copyright (c) Bull HN Information Systems Inc., 1997    */
     4200        4        /*T*                                                         */
     4201        5        /*T***********************************************************/
     4202        6        /*X* DMC,PLM=4,IND=4,CTI=2,DTI=0,ENI=0,ECI=0,CSI=0,MCI,DCI=4 */
     4203        7        XUG$OPENOUT_COMMON:PROC( GETCMD) ALTRET;
     4204        8        /*F*
     4205        9             NAME: XUG$OPENOUT_COMMON
     4206       10              DESCRIPTION: Common code for the (ON|TO|OVER|INTO) FID clause in
     4207       11                  commands.  Opens the requested DCB as specified by the user.
     4208       12
     4209       13             CALL:   CALL XUG$OPENOUT_COMMON( GETCMD) ALTRET(ERR);
     4210       14
     4211       15                  In case of an error, the dcb is left closed and the error is
     4212       16                  described by the ALTRET frame in the TCB.
     4213       17                  It is the responsibility of the calling program to re-open the
     4214       18                  DCB after an error, if required.
     4215       19                  Each of the parameters is optional.  All of the parameters
     4216       20                  are never modified.
     4217       21             INPUT:
     4218       22             GETCMD.DCB_PARAM# - The number of the DCB to be opened.  Overrides the DCB
     4219       23                  in the FPT_OPEN when both are passed.
     4220       24
     4221       25             GETCMD.UTIL$ - Pointer to the output block returned by X$PARSE,
     4222       26                  for the XUG$OPENOUT_SPEC or XUG$OPENOUT_OPT parse nodes.
     4223       27                  If omitted, the values in FPT_OPEN will be used.
     4224       28
     4225       29             GETCMD.FPT$ - A pointer to a FPT for M$OPEN.  FPT_OPEN.V.DCB# must be set
     4226       30                  to the number of the DCB to be opened, unless GETCMD.DCB_PARAM# is
     4227       31                  set.  The remaining M$OPEN parameters should be set to the desired
     4228       32                  values.  If omitted, the following default values, typical for
     4229       33                  the OUTPUT command, will be used:
     4230       34
     4231       35                       %FPT_OPEN (DCB=M$LO,
     4232       36                        SCRUB=YES,
     4233       37                        ORG=UR,
PL6.E3A0      #019=XUG$OPENOUT_COMMON File=XUG$COMMON.:E05TSI                    WED 07/30/97 09:29 Page:819
     4234       38                        ACS=SEQUEN,
     4235       39                        ASN=DEVICE,
     4236       40                        RES='ME',
     4237       41                        FUN=CREATE,
     4238       42                        EXIST=ERROR);
     4239       43
     4240       44                 Other parameters (SETDCB, REASSIGN)  may be of interest
     4241       45                 for other purposes.
     4242       46        */
     4243       47
     4244       48        %INCLUDE CP_6;
     4245     5607        %INCLUDE CP_6_SUBS;
     4246     6147        %INCLUDE XU_MACRO_C; /* XUR MACROs */
     4247     9253        %INCLUDE XU_SUBS_C; /* Parse node EQUs */
     4248     9345        %INCLUDE XU_PERR_C;
     4249     9536
     4250     9537        %XUG_GETCMD (NAME=GETCMD, STCLASS="");
     4251     9875        %PARSE$OUT (STCLASS="BASED(GETCMD.UTIL$)");
     4252     9920        %FPT_OPEN (STCLASS="BASED(GETCMD.FPT$)");
     4253    10029
     4254    10030    1   DCL M$LO# UBIN WORD;
     4255    10031    1   DCL BLK$ PTR;
     4256    10032    1   DCL OPT$ PTR;
     4257    10033    1   DCL TEMP UBIN;
     4258    10034    1   DCL SUBLK UBIN;
     4259    10035    1   DCL SECOND_TRY_FLAG BIT (1);
     4260    10036
     4261    10037    1   DCL 1 M$LO CONSTANT,
     4262    10038    1         2 L UBIN BYTE CALIGNED INIT (4),
     4263    10039    1         2 C CHAR (4) INIT ('M$LO');
     4264    10040
     4265    10041        %FPT_OPEN (FPTN=DEFAULT_OPEN,
     4266    10042         STCLASS=CONSTANT,
     4267    10043         SCRUB=YES,
     4268    10044         ORG=UR,
     4269    10045         ACS=SEQUEN,
     4270    10046         ASN=DEVICE,
PL6.E3A0      #019=XUG$OPENOUT_COMMON File=XUG$COMMON.:E05TSI                    WED 07/30/97 09:29 Page:820
     4271    10047         RES='ME',
     4272    10048         FUN=CREATE,
     4273    10049         EXIST=ERROR);
     4274    10158
     4275    10159        %F$DCB;
     4276    10216        %PARSE$OUT (NAME=O$BLK,
     4277    10217         STCLASS="BASED(BLK$)");
     4278    10262        %PARSE$SYM (NAME=O$SYM,
     4279    10263         STCLASS=BASED);
     4280    10301
     4281    10302        %FPT_FID(STCLASS=CONSTANT);
     4282    10325        %FPT_CLOSE(DISP=SAVE,
     4283    10326         STCLASS=CONSTANT);
     4284    10368
     4285    10369        %FPT_FID(FPTN=Y$FID,
     4286    10370         STCLASS=AUTO);
     4287    10393        %FPT_CLOSE(FPTN=Y$CLOSE,
     4288    10394         STCLASS=AUTO);
     4289    10436        %FPT_OPEN (FPTN=Y$OPEN,
     4290    10437         STCLASS=AUTO);
     4291    10546        %VLP_NAME(FPTN=Y$NAME,
     4292    10547         STCLASS=AUTO);
     4293    10574        %VLP_ACCT(FPTN=Y$ACCT,
     4294    10575         STCLASS=AUTO);
     4295    10588        %VLP_PASS(FPTN=Y$PASS,
     4296    10589         STCLASS=AUTO);
     4297    10602        %VLP_SN(FPTN=Y$SN,
     4298    10603         STCLASS=AUTO);
     4299    10616        %VLP_WSN(FPTN=Y$WSN,
     4300    10617         STCLASS=AUTO);
     4301    10630        %VLP_FORM(FPTN=Y$FORM,
     4302    10631          STCLASS=AUTO);
     4303    10644
     4304    10645        %VLP_ERRCODE (FPTN=XUG#BAD_OUTPUT_ORG, STCLASS=CONSTANT,
     4305    10646                      FCG=XU, MID=G, ERR#=%E$XUG#BAD_OUTPUT_ORG, SEV=0);
     4306    10691        %VLP_ERRCODE (FPTN=XUG#NO_M$LO_DCB, STCLASS=CONSTANT,
     4307    10692                      FCG=XU, MID=G, ERR#=%E$XUG#NO_M$LO_DCB, SEV=0);
PL6.E3A0      #019=XUG$OPENOUT_COMMON File=XUG$COMMON.:E05TSI                    WED 07/30/97 09:29 Page:821
     4308    10737
     4309    10738    1   DCL XUG$FINDDCB_COMMON ENTRY (2) ALTRET;
     4310    10739
     4311    10740    1   DCL B$TCB$ PTR SYMREF READONLY;
     4312    10741        %B$TCB;
     4313    10744        %B$ALT;
     4314    10752
     4315    10753    1       SECOND_TRY_FLAG = %NO#;
     4316    10754
     4317    10755    1   SETUP_FPT:
     4318    10756
     4319    10757    1       IF GETCMD.FPT$ = ADDR(NIL) OR SECOND_TRY_FLAG
     4320    10758    2       THEN DO;
     4321    10759
     4322    10760    2           Y$OPEN = DEFAULT_OPEN;
     4323    10761    2           IF GETCMD.DCB_PARAM# = DCBNUM(NIL)
     4324    10762    3           THEN DO;
     4325    10763
     4326    10764    3               CALL XUG$FINDDCB_COMMON (M$LO, M$LO#)
     4327    10765    4               WHENALTRETURN DO;
     4328    10766
     4329    10767    4                   GETCMD.ERRDCB# = DCBNUM(NIL);
     4330    10768    4                   GETCMD.ERR# = XUG#NO_M$LO_DCB;
     4331    10769
     4332    10770        /*E*  ERROR: XUG-E$XUG#NO_M$LO_DCB
     4333    10771              MESSAGE: The M$LO DCB does not exist.
     4334    10772        */
     4335    10773
     4336    10774    4                   ALTRETURN;
     4337    10775
     4338    10776    4               END;
     4339    10777
     4340    10778    3               Y$OPEN.V.DCB# = M$LO#;
     4341    10779
     4342    10780    3           END;
     4343    10781
     4344    10782    2       END;
PL6.E3A0      #019=XUG$OPENOUT_COMMON File=XUG$COMMON.:E05TSI                    WED 07/30/97 09:29 Page:822
     4345    10783
     4346    10784    1       ELSE Y$OPEN = FPT_OPEN;
     4347    10785    1       Y$OPEN.V_ = VECTOR(Y$OPEN.V);
     4348    10786
     4349    10787    1       IF GETCMD.DCB_PARAM# ~= DCBNUM(NIL)
     4350    10788    1       THEN Y$OPEN.V.DCB# = GETCMD.DCB_PARAM#;
     4351    10789
     4352    10790    1       IF GETCMD.UTIL$ ~= ADDR(NIL) AND NOT SECOND_TRY_FLAG    /* out$blk passed */
     4353    10791    2       THEN DO;
     4354    10792    2           OPT$ = OUT$BLK.SUBLK$(0); /* pointer to fid */
     4355    10793    2           IF OUT$BLK.NSUBLKS > 1
     4356    10794    2             AND (OUT$BLK.SUBLK$(OUT$BLK.NSUBLKS-1)->O$BLK.CODE ~= %XUG_OUTOPTS
     4357    10795    2             OR OUT$BLK.NSUBLKS > 2)
     4358    10796    3           THEN DO; /* preposition present */
     4359    10797    3               OPT$ = OUT$BLK.SUBLK$(1);
     4360    10798    4               DO CASE(OUT$BLK.SUBLK$(0)->O$BLK.CODE);
     4361    10799    4               CASE(%XUG_CREATE);
     4362    10800    4                   Y$OPEN.V.FUN# = %CREATE#;
     4363    10801    4                   Y$OPEN.V.EXIST# = %ERROR#;
     4364    10802    4               CASE(%XUG_REPLACE);
     4365    10803    4                   Y$OPEN.V.FUN# = %CREATE#;
     4366    10804    4                   Y$OPEN.V.EXIST# = %NEWFILE#;
     4367    10805    4               CASE(%XUG_EXTEND);
     4368    10806    4                   Y$OPEN.V.FUN# = %CREATE#;
     4369    10807    4                   Y$OPEN.V.EXIST# = %OLDFILE#;
     4370    10808    4               END /* CASE */;
     4371    10809    3           END /* IF preposition */;
     4372    10810
     4373    10811    3           IF OUT$BLK.NSUBLKS > 0 THEN DO; /* FID present */
     4374    10812    3               Y$FID = FPT_FID;
     4375    10813    3               Y$FID.V_ = VECTOR(Y$FID.V);
     4376    10814    3               Y$FID.ACCT_ = VECTOR(Y$ACCT);
     4377    10815    3               Y$FID.NAME_ = VECTOR(Y$NAME);
     4378    10816    3               Y$FID.PASS_ = VECTOR(Y$PASS);
     4379    10817    3               Y$FID.SN_ = VECTOR(Y$SN);
     4380    10818    3               Y$FID.WSN_ = VECTOR(Y$WSN);
     4381    10819    3               Y$FID.ASN_ = VECTOR(Y$OPEN.V.ASN#);
PL6.E3A0      #019=XUG$OPENOUT_COMMON File=XUG$COMMON.:E05TSI                    WED 07/30/97 09:29 Page:823
     4382    10820    3               Y$FID.RES_ = VECTOR(Y$OPEN.V.RES#);
     4383    10821
     4384    10822    3               Y$FID.TEXTFID_ = VECTOR (OPT$->O$SYM.TEXT);
     4385    10823    3               CALL M$FID(Y$FID) ALTRET(XUG$OPENOUT_X);
     4386    10824
     4387    10825    3               Y$OPEN.ACCT_ = VECTOR(Y$ACCT);
     4388    10826    3               Y$OPEN.NAME_ = VECTOR(Y$NAME);
     4389    10827    3               Y$OPEN.PASS_ = VECTOR(Y$PASS);
     4390    10828    3               Y$OPEN.SN_ = VECTOR(Y$SN);
     4391    10829    3               Y$OPEN.WSN_ = VECTOR(Y$WSN);
     4392    10830
     4393    10831    3               IF OUT$BLK.SUBLK$(OUT$BLK.NSUBLKS-1)->O$BLK.CODE = %XUG_OUTOPTS
     4394    10832    4               THEN DO; /* options present */
     4395    10833    4                   OPT$ = OUT$BLK.SUBLK$(OUT$BLK.NSUBLKS-1);
     4396    10834    5                   DO SUBLK = 0 TO OPT$->O$BLK.NSUBLKS-1;
     4397    10835    5                       BLK$ = OPT$->O$BLK.SUBLK$(SUBLK);
     4398    10836    6                       DO CASE (O$BLK.CODE);
     4399    10837    6                       CASE(%XUG_ORG_CONSEC);
     4400    10838    6                           Y$OPEN.V.ORG# = %CONSEC#;
     4401    10839    6                       CASE(%XUG_ORG_UR);
     4402    10840    6                           Y$OPEN.V.ORG# = %UR#;
     4403    10841    6                       CASE(%XUG_FORM);
     4404    10842    6                           Y$OPEN.FORM_ = VECTOR (Y$FORM);
     4405    10843    6                           Y$FORM.FORM# = O$BLK.SUBLK$(0)->O$SYM.TEXT;
     4406    10844    6                       CASE(%XUG_IXTNSIZE);
     4407    10845    6                           CALL CHARBIN (TEMP, O$BLK.SUBLK$(0)->O$SYM.TEXT);
     4408    10846    6                           Y$OPEN.V.IXTNSIZE# = TEMP;
     4409    10847    6                       CASE(%XUG_XTNSIZE);
     4410    10848    6                           CALL CHARBIN (TEMP, O$BLK.SUBLK$(0)->O$SYM.TEXT);
     4411    10849    6                           Y$OPEN.V.XTNSIZE# = TEMP;
     4412    10850    6                       END/*CASE*/;
     4413    10851    5                   END; /* DO options */
     4414    10852    4               END /* IF options */;
     4415    10853    3           END /* IF fid */;
     4416    10854    2       END /* out$blk */;
     4417    10855
     4418    10856    1       IF DCBADDR(Y$OPEN.V.DCB#) ~= ADDR(NIL)
PL6.E3A0      #019=XUG$OPENOUT_COMMON File=XUG$COMMON.:E05TSI                    WED 07/30/97 09:29 Page:824
     4419    10857    2       THEN IF DCBADDR(Y$OPEN.V.DCB#)->F$DCB.FCD# THEN DO; /* already open */
     4420    10858    2               Y$CLOSE = FPT_CLOSE;
     4421    10859    2               Y$CLOSE.V_ = VECTOR(Y$CLOSE.V);
     4422    10860    2               Y$CLOSE.V.DCB# = Y$OPEN.V.DCB#;
     4423    10861    2               CALL M$CLOSE(Y$CLOSE)
     4424    10862    3               WHENALTRETURN DO;
     4425    10863    3                   GETCMD.ERRDCB# = B$TCB$->B$TCB.ALT$->B$ALT.DCB#;
     4426    10864    3                   GETCMD.ERR# = B$TCB$->B$TCB.ALT$->B$ALT.ERR;
     4427    10865    3                   ALTRETURN;
     4428    10866    3               END;
     4429    10867    2           END;
     4430    10868
     4431    10869    1       CALL M$OPEN(Y$OPEN)
     4432    10870    2       WHENALTRETURN DO;
     4433    10871    2   XUG$OPENOUT_X:
     4434    10872    2           IF SECOND_TRY_FLAG
     4435    10873    2           THEN
     4436    10874    2               ALTRETURN;
     4437    10875
     4438    10876    2           GETCMD.ERRDCB# = DCBNUM(NIL);
     4439    10877    2           GETCMD.ERR# = B$TCB$->B$TCB.ALT$->B$ALT.ERR;
     4440    10878    2           SECOND_TRY_FLAG = %YES#;
     4441    10879
     4442    10880    2           GOTO SETUP_FPT;
     4443    10881
     4444    10882    2       END;
     4445    10883
     4446    10884    1       IF DCBADDR(Y$OPEN.V.DCB#) -> F$DCB.ORG# ~= Y$OPEN.V.ORG#
     4447    10885    1       THEN
     4448    10886    2       DO CASE (DCBADDR(Y$OPEN.V.DCB#) -> F$DCB.ORG#);
     4449    10887
     4450    10888    2       CASE (%KEYED#, %RANDOM#, %RELATIVE#, %INDEXED#, %IREL#, %SE#);
     4451    10889
     4452    10890    2           GETCMD.ERR# = XUG#BAD_OUTPUT_ORG;
     4453    10891    2           GETCMD.ERRDCB# = DCBNUM(NIL);
     4454    10892
     4455    10893        /*E*  ERROR:   XUG-E$XUG#BAD_OUTPUT_ORG
PL6.E3A0      #019=XUG$OPENOUT_COMMON File=XUG$COMMON.:E05TSI                    WED 07/30/97 09:29 Page:825
     4456    10894              MESSAGE: File already exists, and is keyed.  Output redirected to ME.
     4457    10895              MESSAGE1: You tried to direct output to a file which (1) already exists,
     4458    10896                       and (2) is of a "direct-access" organization - that is, each
     4459    10897                       record in the file must be identified by a unique key.  Output
     4460    10898                       may be directed only to files or devices which do not require
     4461    10899                       record keys.
     4462    10900        */
     4463    10901
     4464    10902    2           SECOND_TRY_FLAG = %YES#;
     4465    10903
     4466    10904    2           GOTO SETUP_FPT;
     4467    10905
     4468    10906    2       END;
     4469    10907
     4470    10908    1       IF SECOND_TRY_FLAG
     4471    10909    1       THEN
     4472    10910    1           ALTRETURN;
     4473    10911    1       ELSE
     4474    10912    1           RETURN;
     4475    10913
     4476    10914    1   END /* XUG$OPENOUT_COMMON */;

PL6.E3A0      #019=XUG$OPENOUT_COMMON File=XUG$COMMON.:E05TSI                    WED 07/30/97 09:29 Page:826
--  Include file information  --

   XU_PERR_C.:E05TOU  is referenced.
   XU_SUBS_C.:E05TOU  is referenced.
   XU_MACRO_C.:E05TOU  is referenced.
   CP_6_SUBS.:E05TOU  is referenced.
   CP_6_C.:E05TOU  is referenced.
   CP_6.:E05TOU  cannot be made into a system file and is referenced.
      No diagnostics issued in procedure XUG$OPENOUT_COMMON.

   Procedure XUG$OPENOUT_COMMON requires 351 words for executable code.
   Procedure XUG$OPENOUT_COMMON requires 144 words of local(AUTO) storage.

    No errors detected in file XUG$COMMON.:E05TSI    .

PL6.E3A0      #019=XUG$OPENOUT_COMMON File=XUG$COMMON.:E05TSI                    WED 07/30/97 09:29 Page:827

 Object Unit name= XUG$OPENOUT_COMMON                         File name= XUG$COMMON.:E05TOU
 UTS= JUL 30 '97 09:29:49.80 WED                              Compiler= PL-6/E31         Sev=      00
 SharedLib= :SHARED_SYSTEM                                    Alt SharedLib=


    ****  Control sections  ****

 Sect   Type Bound  Init  Size OctSiz  Section name(segment info)
    0   DCB   even  none     0      0  M$UC
    1  RoData even  UTS    116    164  XUG$OPENOUT_COMMON
    2   Proc  even  none   351    537  XUG$OPENOUT_COMMON
    3  RoData even  none    10     12  XUG$OPENOUT_COMMON

    ****  Entry defs  ****

                              Check   Calling
                             calling  sequence
  Sect OctLoc Primary Altret sequence   type   Parms  Name
     2      0   yes    yes     yes      Std        1  XUG$OPENOUT_COMMON

  ****  Entry refs  ****

         Check        Calling
        calling       sequence
Altret sequence SRef   type   Args  Name
 yes     yes           Std       2 XUG$FINDDCB_COMMON
                       nStd      0 X66_AUTO_1
                       Std       0 B_CONSPOOL_D
                       nStd      0 X66_AALT
                       nStd      0 X66_ARET

  ****  Data refs  ****

  Flags:  r = read only, s = secondary
Flgs Name                             Flgs Name                             Flgs Name
     M$UC                             r    B$TCB$                                B_VECTNIL
PL6.E3A0      #019=XUG$OPENOUT_COMMON File=XUG$COMMON.:E05TSI                    WED 07/30/97 09:29 Page:828

  ****  Segment refs  ****

  Flags:  r = read only, s = secondary
Flgs Name                             Flgs Name                             Flgs Name
     ISSID                                 NULLSID                               ROSID
PL6.E3A0      #019=XUG$OPENOUT_COMMON File=XUG$COMMON.:E05TSI                    WED 07/30/97 09:29 Page:829


     4197        1        /*T***********************************************************/
     4198        2        /*T*                                                         */
     4199        3        /*T* Copyright (c) Bull HN Information Systems Inc., 1997    */
     4200        4        /*T*                                                         */
     4201        5        /*T***********************************************************/
     4202        6        /*X* DMC,PLM=4,IND=4,CTI=2,DTI=0,ENI=0,ECI=0,CSI=0,MCI,DCI=4 */
     4203        7        XUG$OPENOUT_COMMON:PROC( GETCMD) ALTRET;

      7  2 000000   000000 700200 xent  XUG$OPENOUT* TSX0  ! X66_AUTO_1
         2 000001   000220 000001                    ZERO    144,1

     4204        8        /*F*
     4205        9             NAME: XUG$OPENOUT_COMMON
     4206       10              DESCRIPTION: Common code for the (ON|TO|OVER|INTO) FID clause in
     4207       11                  commands.  Opens the requested DCB as specified by the user.
     4208       12
     4209       13             CALL:   CALL XUG$OPENOUT_COMMON( GETCMD) ALTRET(ERR);
     4210       14
     4211       15                  In case of an error, the dcb is left closed and the error is
     4212       16                  described by the ALTRET frame in the TCB.
     4213       17                  It is the responsibility of the calling program to re-open the
     4214       18                  DCB after an error, if required.
     4215       19                  Each of the parameters is optional.  All of the parameters
     4216       20                  are never modified.
     4217       21             INPUT:
     4218       22             GETCMD.DCB_PARAM# - The number of the DCB to be opened.  Overrides the DCB
     4219       23                  in the FPT_OPEN when both are passed.
     4220       24
     4221       25             GETCMD.UTIL$ - Pointer to the output block returned by X$PARSE,
     4222       26                  for the XUG$OPENOUT_SPEC or XUG$OPENOUT_OPT parse nodes.
     4223       27                  If omitted, the values in FPT_OPEN will be used.
     4224       28
     4225       29             GETCMD.FPT$ - A pointer to a FPT for M$OPEN.  FPT_OPEN.V.DCB# must be set
     4226       30                  to the number of the DCB to be opened, unless GETCMD.DCB_PARAM# is
     4227       31                  set.  The remaining M$OPEN parameters should be set to the desired
     4228       32                  values.  If omitted, the following default values, typical for
PL6.E3A0      #019=XUG$OPENOUT_COMMON File=XUG$COMMON.:E05TSI                    WED 07/30/97 09:29 Page:830
     4229       33                  the OUTPUT command, will be used:
     4230       34
     4231       35                       %FPT_OPEN (DCB=M$LO,
     4232       36                        SCRUB=YES,
     4233       37                        ORG=UR,
     4234       38                        ACS=SEQUEN,
     4235       39                        ASN=DEVICE,
     4236       40                        RES='ME',
     4237       41                        FUN=CREATE,
     4238       42                        EXIST=ERROR);
     4239       43
     4240       44                 Other parameters (SETDCB, REASSIGN)  may be of interest
     4241       45                 for other purposes.
     4242       46        */
     4243       47
     4244       48        %INCLUDE CP_6;
     4245     5607        %INCLUDE CP_6_SUBS;
     4246     6147        %INCLUDE XU_MACRO_C; /* XUR MACROs */
     4247     9253        %INCLUDE XU_SUBS_C; /* Parse node EQUs */
     4248     9345        %INCLUDE XU_PERR_C;
     4249     9536
     4250     9537        %XUG_GETCMD (NAME=GETCMD, STCLASS="");
     4251     9875        %PARSE$OUT (STCLASS="BASED(GETCMD.UTIL$)");
     4252     9920        %FPT_OPEN (STCLASS="BASED(GETCMD.FPT$)");
     4253    10029
     4254    10030    1   DCL M$LO# UBIN WORD;
     4255    10031    1   DCL BLK$ PTR;
     4256    10032    1   DCL OPT$ PTR;
     4257    10033    1   DCL TEMP UBIN;
     4258    10034    1   DCL SUBLK UBIN;
     4259    10035    1   DCL SECOND_TRY_FLAG BIT (1);
     4260    10036
     4261    10037    1   DCL 1 M$LO CONSTANT,
     4262    10038    1         2 L UBIN BYTE CALIGNED INIT (4),
     4263    10039    1         2 C CHAR (4) INIT ('M$LO');
     4264    10040
     4265    10041        %FPT_OPEN (FPTN=DEFAULT_OPEN,
PL6.E3A0      #019=XUG$OPENOUT_COMMON File=XUG$COMMON.:E05TSI                    WED 07/30/97 09:29 Page:831
     4266    10042         STCLASS=CONSTANT,
     4267    10043         SCRUB=YES,
     4268    10044         ORG=UR,
     4269    10045         ACS=SEQUEN,
     4270    10046         ASN=DEVICE,
     4271    10047         RES='ME',
     4272    10048         FUN=CREATE,
     4273    10049         EXIST=ERROR);
     4274    10158
     4275    10159        %F$DCB;
     4276    10216        %PARSE$OUT (NAME=O$BLK,
     4277    10217         STCLASS="BASED(BLK$)");
     4278    10262        %PARSE$SYM (NAME=O$SYM,
     4279    10263         STCLASS=BASED);
     4280    10301
     4281    10302        %FPT_FID(STCLASS=CONSTANT);
     4282    10325        %FPT_CLOSE(DISP=SAVE,
     4283    10326         STCLASS=CONSTANT);
     4284    10368
     4285    10369        %FPT_FID(FPTN=Y$FID,
     4286    10370         STCLASS=AUTO);
     4287    10393        %FPT_CLOSE(FPTN=Y$CLOSE,
     4288    10394         STCLASS=AUTO);
     4289    10436        %FPT_OPEN (FPTN=Y$OPEN,
     4290    10437         STCLASS=AUTO);
     4291    10546        %VLP_NAME(FPTN=Y$NAME,
     4292    10547         STCLASS=AUTO);
     4293    10574        %VLP_ACCT(FPTN=Y$ACCT,
     4294    10575         STCLASS=AUTO);
     4295    10588        %VLP_PASS(FPTN=Y$PASS,
     4296    10589         STCLASS=AUTO);
     4297    10602        %VLP_SN(FPTN=Y$SN,
     4298    10603         STCLASS=AUTO);
     4299    10616        %VLP_WSN(FPTN=Y$WSN,
     4300    10617         STCLASS=AUTO);
     4301    10630        %VLP_FORM(FPTN=Y$FORM,
     4302    10631          STCLASS=AUTO);
PL6.E3A0      #019=XUG$OPENOUT_COMMON File=XUG$COMMON.:E05TSI                    WED 07/30/97 09:29 Page:832
     4303    10644
     4304    10645        %VLP_ERRCODE (FPTN=XUG#BAD_OUTPUT_ORG, STCLASS=CONSTANT,
     4305    10646                      FCG=XU, MID=G, ERR#=%E$XUG#BAD_OUTPUT_ORG, SEV=0);
     4306    10691        %VLP_ERRCODE (FPTN=XUG#NO_M$LO_DCB, STCLASS=CONSTANT,
     4307    10692                      FCG=XU, MID=G, ERR#=%E$XUG#NO_M$LO_DCB, SEV=0);
     4308    10737
     4309    10738    1   DCL XUG$FINDDCB_COMMON ENTRY (2) ALTRET;
     4310    10739
     4311    10740    1   DCL B$TCB$ PTR SYMREF READONLY;
     4312    10741        %B$TCB;
     4313    10744        %B$ALT;
     4314    10752
     4315    10753    1       SECOND_TRY_FLAG = %NO#;

  10753  2 000002   200011 450100                    STZ     SECOND_TRY_FLAG,,AUTO

     4316    10754
     4317    10755    1   SETUP_FPT:
     4318    10756
     4319    10757    1       IF GETCMD.FPT$ = ADDR(NIL) OR SECOND_TRY_FLAG

  10757  2 000003   200003 470500       SETUP_FPT    LDP0    @GETCMD,,AUTO
         2 000004   000043 236100                    LDQ     35,,PR0
         2 000005   000001 116000 xsym               CMPQ    B_VECTNIL+1
         2 000006   000011 600000 2                  TZE     s:10760
         2 000007   200011 234100                    SZN     SECOND_TRY_FLAG,,AUTO
         2 000010   000037 605000 2                  TPL     s:10784

     4320    10758    2       THEN DO;

     4321    10759
     4322    10760    2           Y$OPEN = DEFAULT_OPEN;

  10760  2 000011   000100 100400                    MLR     fill='000'O
         2 000012   000002 000350 1                  ADSC9   DEFAULT_OPEN             cn=0,n=232
         2 000013   200100 000350                    ADSC9   Y$OPEN,,AUTO             cn=0,n=232

PL6.E3A0      #019=XUG$OPENOUT_COMMON File=XUG$COMMON.:E05TSI                    WED 07/30/97 09:29 Page:833
     4323    10761    2           IF GETCMD.DCB_PARAM# = DCBNUM(NIL)

  10761  2 000014   000014 235100                    LDA     12,,PR0
         2 000015   000043 601000 2                  TNZ     s:10785

     4324    10762    3           THEN DO;

     4325    10763
     4326    10764    3               CALL XUG$FINDDCB_COMMON (M$LO, M$LO#)

  10764  2 000016   200004 631500                    EPPR1   M$LO#,,AUTO
         2 000017   200217 451500                    STP1    Y$FORM+3,,AUTO
         2 000020   000000 236000 3                  LDQ     0
         2 000021   200216 756100                    STQ     Y$FORM+2,,AUTO
         2 000022   200216 630500                    EPPR0   Y$FORM+2,,AUTO
         2 000023   000020 631400 xsym               EPPR1   B_VECTNIL+16
         2 000024   000000 701000 xent               TSX1    XUG$FINDDCB_COMMON
         2 000025   000027 702000 2                  TSX2    s:10767
         2 000026   000034 710000 2                  TRA     s:10778

     4327    10765    4               WHENALTRETURN DO;

     4328    10766
     4329    10767    4                   GETCMD.ERRDCB# = DCBNUM(NIL);

  10767  2 000027   200003 470500                    LDP0    @GETCMD,,AUTO
         2 000030   000011 450100                    STZ     9,,PR0

     4330    10768    4                   GETCMD.ERR# = XUG#NO_M$LO_DCB;

  10768  2 000031   000163 236000 1                  LDQ     XUG#NO_M$LO_DCB
         2 000032   000001 756100                    STQ     1,,PR0

     4331    10769
     4332    10770        /*E*  ERROR: XUG-E$XUG#NO_M$LO_DCB
     4333    10771              MESSAGE: The M$LO DCB does not exist.
     4334    10772        */
PL6.E3A0      #019=XUG$OPENOUT_COMMON File=XUG$COMMON.:E05TSI                    WED 07/30/97 09:29 Page:834
     4335    10773
     4336    10774    4                   ALTRETURN;

  10774  2 000033   000000 702200 xent               TSX2  ! X66_AALT

     4337    10775
     4338    10776    4               END;
     4339    10777
     4340    10778    3               Y$OPEN.V.DCB# = M$LO#;

  10778  2 000034   200004 720100                    LXL0    M$LO#,,AUTO
         2 000035   200144 740100                    STX0    Y$OPEN+36,,AUTO

     4341    10779
     4342    10780    3           END;

     4343    10781
     4344    10782    2       END;

  10782  2 000036   000043 710000 2                  TRA     s:10785

     4345    10783
     4346    10784    1       ELSE Y$OPEN = FPT_OPEN;

  10784  2 000037   000043 471500                    LDP1    35,,PR0
         2 000040   000100 100500                    MLR     fill='000'O
         2 000041   100000 000350                    ADSC9   0,,PR1                   cn=0,n=232
         2 000042   200100 000350                    ADSC9   Y$OPEN,,AUTO             cn=0,n=232

     4347    10785    1       Y$OPEN.V_ = VECTOR(Y$OPEN.V);

  10785  2 000043   000001 235000 3                  LDA     1
         2 000044   200216 452500                    STP2    Y$FORM+2,,AUTO
         2 000045   200216 236100                    LDQ     Y$FORM+2,,AUTO
         2 000046   000144 036003                    ADLQ    100,DU
         2 000047   200100 757100                    STAQ    Y$OPEN,,AUTO

PL6.E3A0      #019=XUG$OPENOUT_COMMON File=XUG$COMMON.:E05TSI                    WED 07/30/97 09:29 Page:835
     4348    10786
     4349    10787    1       IF GETCMD.DCB_PARAM# ~= DCBNUM(NIL)

  10787  2 000050   200003 470500                    LDP0    @GETCMD,,AUTO
         2 000051   000014 235100                    LDA     12,,PR0
         2 000052   000055 600000 2                  TZE     s:10790

     4350    10788    1       THEN Y$OPEN.V.DCB# = GETCMD.DCB_PARAM#;

  10788  2 000053   000014 720100                    LXL0    12,,PR0
         2 000054   200144 740100                    STX0    Y$OPEN+36,,AUTO

     4351    10789
     4352    10790    1       IF GETCMD.UTIL$ ~= ADDR(NIL) AND NOT SECOND_TRY_FLAG    /* out$blk passed */

  10790  2 000055   000044 236100                    LDQ     36,,PR0
         2 000056   000001 116000 xsym               CMPQ    B_VECTNIL+1
         2 000057   000373 600000 2                  TZE     s:10856
         2 000060   200011 234100                    SZN     SECOND_TRY_FLAG,,AUTO
         2 000061   000373 604000 2                  TMI     s:10856

     4353    10791    2       THEN DO;

     4354    10792    2           OPT$ = OUT$BLK.SUBLK$(0); /* pointer to fid */

  10792  2 000062   000044 471500                    LDP1    36,,PR0
         2 000063   100003 236100                    LDQ     3,,PR1
         2 000064   200006 756100                    STQ     OPT$,,AUTO

     4355    10793    2           IF OUT$BLK.NSUBLKS > 1

  10793  2 000065   100001 220100                    LDX0    1,,PR1
         2 000066   000002 100003                    CMPX0   2,DU
         2 000067   000133 602000 2                  TNC     s:10811
         2 000070   100002 473510                    LDP3    2,X0,PR1
         2 000071   300000 721100                    LXL1    0,,PR3
         2 000072   000004 101003                    CMPX1   4,DU
PL6.E3A0      #019=XUG$OPENOUT_COMMON File=XUG$COMMON.:E05TSI                    WED 07/30/97 09:29 Page:836
         2 000073   000076 601000 2                  TNZ     s:10797
         2 000074   000003 100003                    CMPX0   3,DU
         2 000075   000133 602000 2                  TNC     s:10811

     4356    10794    2             AND (OUT$BLK.SUBLK$(OUT$BLK.NSUBLKS-1)->O$BLK.CODE ~= %XUG_OUTOPTS
     4357    10795    2             OR OUT$BLK.NSUBLKS > 2)
     4358    10796    3           THEN DO; /* preposition present */

     4359    10797    3               OPT$ = OUT$BLK.SUBLK$(1);

  10797  2 000076   100004 236100                    LDQ     4,,PR1
         2 000077   200006 756100                    STQ     OPT$,,AUTO

     4360    10798    4               DO CASE(OUT$BLK.SUBLK$(0)->O$BLK.CODE);

  10798  2 000100   100003 474500                    LDP4    3,,PR1
         2 000101   400000 722100                    LXL2    0,,PR4
         2 000102   000004 102003                    CMPX2   4,DU
         2 000103   000105 602012 2                  TNC     s:10798+5,X2
         2 000104   000133 710000 2                  TRA     s:10811
         2 000105   000133 710000 2                  TRA     s:10811
         2 000106   000111 710000 2                  TRA     s:10800
         2 000107   000120 710000 2                  TRA     s:10803
         2 000110   000125 710000 2                  TRA     s:10806

     4361    10799    4               CASE(%XUG_CREATE);

     4362    10800    4                   Y$OPEN.V.FUN# = %CREATE#;

  10800  2 000111   003000 236007                    LDQ     1536,DL
         2 000112   200145 552110                    STBQ    Y$OPEN+37,'10'O,AUTO

     4363    10801    4                   Y$OPEN.V.EXIST# = %ERROR#;

  10801  2 000113   200144 236100                    LDQ     Y$OPEN+36,,AUTO
         2 000114   000002 376000 3                  ANQ     2
         2 000115   000200 276007                    ORQ     128,DL
PL6.E3A0      #019=XUG$OPENOUT_COMMON File=XUG$COMMON.:E05TSI                    WED 07/30/97 09:29 Page:837
         2 000116   200144 756100                    STQ     Y$OPEN+36,,AUTO
         2 000117   000133 710000 2                  TRA     s:10811

     4364    10802    4               CASE(%XUG_REPLACE);

     4365    10803    4                   Y$OPEN.V.FUN# = %CREATE#;

  10803  2 000120   003000 236007                    LDQ     1536,DL
         2 000121   200145 552110                    STBQ    Y$OPEN+37,'10'O,AUTO

     4366    10804    4                   Y$OPEN.V.EXIST# = %NEWFILE#;

  10804  2 000122   000600 236007                    LDQ     384,DL
         2 000123   200144 256100                    ORSQ    Y$OPEN+36,,AUTO
         2 000124   000133 710000 2                  TRA     s:10811

     4367    10805    4               CASE(%XUG_EXTEND);

     4368    10806    4                   Y$OPEN.V.FUN# = %CREATE#;

  10806  2 000125   003000 236007                    LDQ     1536,DL
         2 000126   200145 552110                    STBQ    Y$OPEN+37,'10'O,AUTO

     4369    10807    4                   Y$OPEN.V.EXIST# = %OLDFILE#;

  10807  2 000127   200144 236100                    LDQ     Y$OPEN+36,,AUTO
         2 000130   000002 376000 3                  ANQ     2
         2 000131   000400 276007                    ORQ     256,DL
         2 000132   200144 756100                    STQ     Y$OPEN+36,,AUTO

     4370    10808    4               END /* CASE */;

     4371    10809    3           END /* IF preposition */;

     4372    10810
     4373    10811    3           IF OUT$BLK.NSUBLKS > 0 THEN DO; /* FID present */

PL6.E3A0      #019=XUG$OPENOUT_COMMON File=XUG$COMMON.:E05TSI                    WED 07/30/97 09:29 Page:838
  10811  2 000133   000044 471500                    LDP1    36,,PR0
         2 000134   100001 220100                    LDX0    1,,PR1
         2 000135   000373 600000 2                  TZE     s:10856

     4374    10812    3               Y$FID = FPT_FID;

  10812  2 000136   000100 100400                    MLR     fill='000'O
         2 000137   000074 000140 1                  ADSC9   FPT_FID                  cn=0,n=96
         2 000140   200012 000140                    ADSC9   Y$FID,,AUTO              cn=0,n=96

     4375    10813    3               Y$FID.V_ = VECTOR(Y$FID.V);

  10813  2 000141   000003 235000 3                  LDA     3
         2 000142   200216 452500                    STP2    Y$FORM+2,,AUTO
         2 000143   200216 236100                    LDQ     Y$FORM+2,,AUTO
         2 000144   000036 036003                    ADLQ    30,DU
         2 000145   200012 757100                    STAQ    Y$FID,,AUTO

     4376    10814    3               Y$FID.ACCT_ = VECTOR(Y$ACCT);

  10814  2 000146   000004 235000 3                  LDA     4
         2 000147   200216 452500                    STP2    Y$FORM+2,,AUTO
         2 000150   200216 236100                    LDQ     Y$FORM+2,,AUTO
         2 000151   000202 036003                    ADLQ    130,DU
         2 000152   200020 757100                    STAQ    Y$FID+6,,AUTO

     4377    10815    3               Y$FID.NAME_ = VECTOR(Y$NAME);

  10815  2 000153   000005 235000 3                  LDA     5
         2 000154   200216 452500                    STP2    Y$FORM+2,,AUTO
         2 000155   200216 236100                    LDQ     Y$FORM+2,,AUTO
         2 000156   000172 036003                    ADLQ    122,DU
         2 000157   200016 757100                    STAQ    Y$FID+4,,AUTO

     4378    10816    3               Y$FID.PASS_ = VECTOR(Y$PASS);

  10816  2 000160   000004 235000 3                  LDA     4
PL6.E3A0      #019=XUG$OPENOUT_COMMON File=XUG$COMMON.:E05TSI                    WED 07/30/97 09:29 Page:839
         2 000161   200216 452500                    STP2    Y$FORM+2,,AUTO
         2 000162   200216 236100                    LDQ     Y$FORM+2,,AUTO
         2 000163   000204 036003                    ADLQ    132,DU
         2 000164   200022 757100                    STAQ    Y$FID+8,,AUTO

     4379    10817    3               Y$FID.SN_ = VECTOR(Y$SN);

  10817  2 000165   000003 235000 3                  LDA     3
         2 000166   200216 452500                    STP2    Y$FORM+2,,AUTO
         2 000167   200216 236100                    LDQ     Y$FORM+2,,AUTO
         2 000170   000206 036003                    ADLQ    134,DU
         2 000171   200024 757100                    STAQ    Y$FID+10,,AUTO

     4380    10818    3               Y$FID.WSN_ = VECTOR(Y$WSN);

  10818  2 000172   000004 235000 3                  LDA     4
         2 000173   200216 452500                    STP2    Y$FORM+2,,AUTO
         2 000174   200216 236100                    LDQ     Y$FORM+2,,AUTO
         2 000175   000212 036003                    ADLQ    138,DU
         2 000176   200026 757100                    STAQ    Y$FID+12,,AUTO

     4381    10819    3               Y$FID.ASN_ = VECTOR(Y$OPEN.V.ASN#);

  10819  2 000177   177640 235007                    LDA     65440,DL
         2 000200   200216 452500                    STP2    Y$FORM+2,,AUTO
         2 000201   200216 236100                    LDQ     Y$FORM+2,,AUTO
         2 000202   000006 036000 3                  ADLQ    6
         2 000203   200030 757100                    STAQ    Y$FID+14,,AUTO

     4382    10820    3               Y$FID.RES_ = VECTOR(Y$OPEN.V.RES#);

  10820  2 000204   777640 235007                    LDA     -96,DL
         2 000205   200216 452500                    STP2    Y$FORM+2,,AUTO
         2 000206   200216 236100                    LDQ     Y$FORM+2,,AUTO
         2 000207   000150 036003                    ADLQ    104,DU
         2 000210   200032 757100                    STAQ    Y$FID+16,,AUTO

PL6.E3A0      #019=XUG$OPENOUT_COMMON File=XUG$COMMON.:E05TSI                    WED 07/30/97 09:29 Page:840
     4383    10821
     4384    10822    3               Y$FID.TEXTFID_ = VECTOR (OPT$->O$SYM.TEXT);

  10822  2 000211   200006 471500                    LDP1    OPT$,,AUTO
         2 000212   100004 236100                    LDQ     4,,PR1
         2 000213   000033 772000                    QRL     27
         2 000214   000064 737000                    LLS     52
         2 000215   000140 135007                    SBLA    96,DL
         2 000216   200006 236100                    LDQ     OPT$,,AUTO
         2 000217   000007 036000 3                  ADLQ    7
         2 000220   200014 757100                    STAQ    Y$FID+2,,AUTO

     4385    10823    3               CALL M$FID(Y$FID) ALTRET(XUG$OPENOUT_X);

  10823  2 000221   200012 630500                    EPPR0   Y$FID,,AUTO
         2 000222   420001 713400                    CLIMB   alt,+8193
         2 000223   404400 401760                    pmme    nvectors=10
         2 000224   000441 702000 2                  TSX2    XUG$OPENOUT_X

     4386    10824
     4387    10825    3               Y$OPEN.ACCT_ = VECTOR(Y$ACCT);

  10825  2 000225   000004 235000 3                  LDA     4
         2 000226   200216 452500                    STP2    Y$FORM+2,,AUTO
         2 000227   200216 236100                    LDQ     Y$FORM+2,,AUTO
         2 000230   000202 036003                    ADLQ    130,DU
         2 000231   200124 757100                    STAQ    Y$OPEN+20,,AUTO

     4388    10826    3               Y$OPEN.NAME_ = VECTOR(Y$NAME);

  10826  2 000232   000005 235000 3                  LDA     5
         2 000233   200216 452500                    STP2    Y$FORM+2,,AUTO
         2 000234   200216 236100                    LDQ     Y$FORM+2,,AUTO
         2 000235   000172 036003                    ADLQ    122,DU
         2 000236   200106 757100                    STAQ    Y$OPEN+6,,AUTO

     4389    10827    3               Y$OPEN.PASS_ = VECTOR(Y$PASS);
PL6.E3A0      #019=XUG$OPENOUT_COMMON File=XUG$COMMON.:E05TSI                    WED 07/30/97 09:29 Page:841

  10827  2 000237   000004 235000 3                  LDA     4
         2 000240   200216 452500                    STP2    Y$FORM+2,,AUTO
         2 000241   200216 236100                    LDQ     Y$FORM+2,,AUTO
         2 000242   000204 036003                    ADLQ    132,DU
         2 000243   200110 757100                    STAQ    Y$OPEN+8,,AUTO

     4390    10828    3               Y$OPEN.SN_ = VECTOR(Y$SN);

  10828  2 000244   000003 235000 3                  LDA     3
         2 000245   200216 452500                    STP2    Y$FORM+2,,AUTO
         2 000246   200216 236100                    LDQ     Y$FORM+2,,AUTO
         2 000247   000206 036003                    ADLQ    134,DU
         2 000250   200102 757100                    STAQ    Y$OPEN+2,,AUTO

     4391    10829    3               Y$OPEN.WSN_ = VECTOR(Y$WSN);

  10829  2 000251   000004 235000 3                  LDA     4
         2 000252   200216 452500                    STP2    Y$FORM+2,,AUTO
         2 000253   200216 236100                    LDQ     Y$FORM+2,,AUTO
         2 000254   000212 036003                    ADLQ    138,DU
         2 000255   200132 757100                    STAQ    Y$OPEN+26,,AUTO

     4392    10830
     4393    10831    3               IF OUT$BLK.SUBLK$(OUT$BLK.NSUBLKS-1)->O$BLK.CODE = %XUG_OUTOPTS

  10831  2 000256   200003 470500                    LDP0    @GETCMD,,AUTO
         2 000257   000044 471500                    LDP1    36,,PR0
         2 000260   100001 220100                    LDX0    1,,PR1
         2 000261   100002 473510                    LDP3    2,X0,PR1
         2 000262   300000 721100                    LXL1    0,,PR3
         2 000263   000004 101003                    CMPX1   4,DU
         2 000264   000373 601000 2                  TNZ     s:10856

     4394    10832    4               THEN DO; /* options present */

     4395    10833    4                   OPT$ = OUT$BLK.SUBLK$(OUT$BLK.NSUBLKS-1);
PL6.E3A0      #019=XUG$OPENOUT_COMMON File=XUG$COMMON.:E05TSI                    WED 07/30/97 09:29 Page:842

  10833  2 000265   100002 236110                    LDQ     2,X0,PR1
         2 000266   200006 756100                    STQ     OPT$,,AUTO

     4396    10834    5                   DO SUBLK = 0 TO OPT$->O$BLK.NSUBLKS-1;

  10834  2 000267   200010 450100                    STZ     SUBLK,,AUTO
         2 000270   000365 710000 2                  TRA     s:10851+3

     4397    10835    5                       BLK$ = OPT$->O$BLK.SUBLK$(SUBLK);

  10835  2 000271   200006 470500                    LDP0    OPT$,,AUTO
         2 000272   200010 720100                    LXL0    SUBLK,,AUTO
         2 000273   000003 236110                    LDQ     3,X0,PR0
         2 000274   200005 756100                    STQ     BLK$,,AUTO

     4398    10836    6                       DO CASE (O$BLK.CODE);

  10836  2 000275   200005 471500                    LDP1    BLK$,,AUTO
         2 000276   100000 236100                    LDQ     0,,PR1
         2 000277   777777 376007                    ANQ     -1,DL
         2 000300   000005 136007                    SBLQ    5,DL
         2 000301   000005 116007                    CMPQ    5,DL
         2 000302   000304 602006 2                  TNC     s:10836+7,QL
         2 000303   000362 710000 2                  TRA     s:10851
         2 000304   000311 710000 2                  TRA     s:10838
         2 000305   000314 710000 2                  TRA     s:10840
         2 000306   000317 710000 2                  TRA     s:10842
         2 000307   000334 710000 2                  TRA     s:10845
         2 000310   000347 710000 2                  TRA     s:10848

     4399    10837    6                       CASE(%XUG_ORG_CONSEC);

     4400    10838    6                           Y$OPEN.V.ORG# = %CONSEC#;

  10838  2 000311   001000 236007                    LDQ     512,DL
         2 000312   200146 552110                    STBQ    Y$OPEN+38,'10'O,AUTO
PL6.E3A0      #019=XUG$OPENOUT_COMMON File=XUG$COMMON.:E05TSI                    WED 07/30/97 09:29 Page:843
         2 000313   000362 710000 2                  TRA     s:10851

     4401    10839    6                       CASE(%XUG_ORG_UR);

     4402    10840    6                           Y$OPEN.V.ORG# = %UR#;

  10840  2 000314   004000 236007                    LDQ     2048,DL
         2 000315   200146 552110                    STBQ    Y$OPEN+38,'10'O,AUTO
         2 000316   000362 710000 2                  TRA     s:10851

     4403    10841    6                       CASE(%XUG_FORM);

     4404    10842    6                           Y$OPEN.FORM_ = VECTOR (Y$FORM);

  10842  2 000317   000010 235000 3                  LDA     8
         2 000320   200216 452500                    STP2    Y$FORM+2,,AUTO
         2 000321   200216 236100                    LDQ     Y$FORM+2,,AUTO
         2 000322   000214 036003                    ADLQ    140,DU
         2 000323   200140 757100                    STAQ    Y$OPEN+32,,AUTO

     4405    10843    6                           Y$FORM.FORM# = O$BLK.SUBLK$(0)->O$SYM.TEXT;

  10843  2 000324   100003 473500                    LDP3    3,,PR1
         2 000325   300004 236100                    LDQ     4,,PR3
         2 000326   000033 772000                    QRL     27
         2 000327   000000 621006                    EAX1    0,QL
         2 000330   040100 100540                    MLR     fill='040'O
         2 000331   300004 200011                    ADSC9   4,,PR3                   cn=1,n=*X1
         2 000332   200214 000006                    ADSC9   Y$FORM,,AUTO             cn=0,n=6
         2 000333   000362 710000 2                  TRA     s:10851

     4406    10844    6                       CASE(%XUG_IXTNSIZE);

     4407    10845    6                           CALL CHARBIN (TEMP, O$BLK.SUBLK$(0)->O$SYM.TEXT);

  10845  2 000334   100003 473500                    LDP3    3,,PR1
         2 000335   300004 236100                    LDQ     4,,PR3
PL6.E3A0      #019=XUG$OPENOUT_COMMON File=XUG$COMMON.:E05TSI                    WED 07/30/97 09:29 Page:844
         2 000336   000033 772000                    QRL     27
         2 000337   000000 621006                    EAX1    0,QL
         2 000340   000100 305540                    DTB
         2 000341   300004 230011                    NDSC9   4,,PR3                   cn=1,s=nosgn,sf=0,n=*X1
         2 000342   200216 000010                    NDSC9   Y$FORM+2,,AUTO           cn=0,s=lsgnf,sf=0,n=8
         2 000343   200217 235100                    LDA     Y$FORM+3,,AUTO
         2 000344   200007 755100                    STA     TEMP,,AUTO

     4408    10846    6                           Y$OPEN.V.IXTNSIZE# = TEMP;

  10846  2 000345   200155 755100                    STA     Y$OPEN+45,,AUTO
         2 000346   000362 710000 2                  TRA     s:10851

     4409    10847    6                       CASE(%XUG_XTNSIZE);

     4410    10848    6                           CALL CHARBIN (TEMP, O$BLK.SUBLK$(0)->O$SYM.TEXT);

  10848  2 000347   100003 473500                    LDP3    3,,PR1
         2 000350   300004 236100                    LDQ     4,,PR3
         2 000351   000033 772000                    QRL     27
         2 000352   000000 621006                    EAX1    0,QL
         2 000353   000100 305540                    DTB
         2 000354   300004 230011                    NDSC9   4,,PR3                   cn=1,s=nosgn,sf=0,n=*X1
         2 000355   200216 000010                    NDSC9   Y$FORM+2,,AUTO           cn=0,s=lsgnf,sf=0,n=8
         2 000356   200217 235100                    LDA     Y$FORM+3,,AUTO
         2 000357   200007 755100                    STA     TEMP,,AUTO

     4411    10849    6                           Y$OPEN.V.XTNSIZE# = TEMP;

  10849  2 000360   000000 621005                    EAX1    0,AL
         2 000361   200154 441100                    SXL1    Y$OPEN+44,,AUTO

     4412    10850    6                       END/*CASE*/;

     4413    10851    5                   END; /* DO options */

  10851  2 000362   200010 235100                    LDA     SUBLK,,AUTO
PL6.E3A0      #019=XUG$OPENOUT_COMMON File=XUG$COMMON.:E05TSI                    WED 07/30/97 09:29 Page:845
         2 000363   000001 035007                    ADLA    1,DL
         2 000364   200010 755100                    STA     SUBLK,,AUTO
         2 000365   200006 470500                    LDP0    OPT$,,AUTO
         2 000366   000001 236100                    LDQ     1,,PR0
         2 000367   000022 772000                    QRL     18
         2 000370   200010 116100                    CMPQ    SUBLK,,AUTO
         2 000371   000373 600000 2                  TZE     s:10856
         2 000372   000271 603000 2                  TRC     s:10835

     4414    10852    4               END /* IF options */;

     4415    10853    3           END /* IF fid */;

     4416    10854    2       END /* out$blk */;

     4417    10855
     4418    10856    1       IF DCBADDR(Y$OPEN.V.DCB#) ~= ADDR(NIL)

  10856  2 000373   000011 470400 3                  LDP0    9
         2 000374   000000 471500                    LDP1    0,,PR0
         2 000375   200144 220100                    LDX0    Y$OPEN+36,,AUTO
         2 000376   100000 236110                    LDQ     0,X0,PR1
         2 000377   000001 116000 xsym               CMPQ    B_VECTNIL+1
         2 000400   000434 600000 2                  TZE     s:10869

     4419    10857    2       THEN IF DCBADDR(Y$OPEN.V.DCB#)->F$DCB.FCD# THEN DO; /* already open */

  10857  2 000401   100000 473510                    LDP3    0,X0,PR1
         2 000402   300031 236100                    LDQ     25,,PR3
         2 000403   020000 316007                    CANQ    8192,DL
         2 000404   000434 600000 2                  TZE     s:10869

     4420    10858    2               Y$CLOSE = FPT_CLOSE;

  10858  2 000405   000100 100400                    MLR     fill='000'O
         2 000406   000124 000170 1                  ADSC9   FPT_CLOSE                cn=0,n=120
         2 000407   200042 000170                    ADSC9   Y$CLOSE,,AUTO            cn=0,n=120
PL6.E3A0      #019=XUG$OPENOUT_COMMON File=XUG$COMMON.:E05TSI                    WED 07/30/97 09:29 Page:846

     4421    10859    2               Y$CLOSE.V_ = VECTOR(Y$CLOSE.V);

  10859  2 000410   000003 235000 3                  LDA     3
         2 000411   200216 452500                    STP2    Y$FORM+2,,AUTO
         2 000412   200216 236100                    LDQ     Y$FORM+2,,AUTO
         2 000413   000074 036003                    ADLQ    60,DU
         2 000414   200042 757100                    STAQ    Y$CLOSE,,AUTO

     4422    10860    2               Y$CLOSE.V.DCB# = Y$OPEN.V.DCB#;

  10860  2 000415   200074 740100                    STX0    Y$CLOSE+26,,AUTO

     4423    10861    2               CALL M$CLOSE(Y$CLOSE)

  10861  2 000416   200042 630500                    EPPR0   Y$CLOSE,,AUTO
         2 000417   450001 713400                    CLIMB   alt,close
         2 000420   406000 401760                    pmme    nvectors=13
         2 000421   000423 702000 2                  TSX2    s:10863
         2 000422   000434 710000 2                  TRA     s:10869

     4424    10862    3               WHENALTRETURN DO;

     4425    10863    3                   GETCMD.ERRDCB# = B$TCB$->B$TCB.ALT$->B$ALT.DCB#;

  10863  2 000423   000000 470400 xsym               LDP0    B$TCB$
         2 000424   000000 471500                    LDP1    0,,PR0
         2 000425   100101 235100                    LDA     65,,PR1
         2 000426   200003 473500                    LDP3    @GETCMD,,AUTO
         2 000427   300011 755100                    STA     9,,PR3

     4426    10864    3                   GETCMD.ERR# = B$TCB$->B$TCB.ALT$->B$ALT.ERR;

  10864  2 000430   000000 471500                    LDP1    0,,PR0
         2 000431   100102 236100                    LDQ     66,,PR1
         2 000432   300001 756100                    STQ     1,,PR3

PL6.E3A0      #019=XUG$OPENOUT_COMMON File=XUG$COMMON.:E05TSI                    WED 07/30/97 09:29 Page:847
     4427    10865    3                   ALTRETURN;

  10865  2 000433   000000 702200 xent               TSX2  ! X66_AALT

     4428    10866    3               END;
     4429    10867    2           END;

     4430    10868
     4431    10869    1       CALL M$OPEN(Y$OPEN)

  10869  2 000434   200100 630500                    EPPR0   Y$OPEN,,AUTO
         2 000435   450000 713400                    CLIMB   alt,open
         2 000436   410400 401760                    pmme    nvectors=18
         2 000437   000441 702000 2                  TSX2    XUG$OPENOUT_X
         2 000440   000455 710000 2                  TRA     s:10884

     4432    10870    2       WHENALTRETURN DO;

     4433    10871    2   XUG$OPENOUT_X:
     4434    10872    2           IF SECOND_TRY_FLAG

  10872  2 000441   200011 234100       XUG$OPENOUT* SZN     SECOND_TRY_FLAG,,AUTO
         2 000442   000444 605000 2                  TPL     s:10876

     4435    10873    2           THEN
     4436    10874    2               ALTRETURN;

  10874  2 000443   000000 702200 xent               TSX2  ! X66_AALT

     4437    10875
     4438    10876    2           GETCMD.ERRDCB# = DCBNUM(NIL);

  10876  2 000444   200003 470500                    LDP0    @GETCMD,,AUTO
         2 000445   000011 450100                    STZ     9,,PR0

     4439    10877    2           GETCMD.ERR# = B$TCB$->B$TCB.ALT$->B$ALT.ERR;

PL6.E3A0      #019=XUG$OPENOUT_COMMON File=XUG$COMMON.:E05TSI                    WED 07/30/97 09:29 Page:848
  10877  2 000446   000000 471400 xsym               LDP1    B$TCB$
         2 000447   100000 473500                    LDP3    0,,PR1
         2 000450   300102 236100                    LDQ     66,,PR3
         2 000451   000001 756100                    STQ     1,,PR0

     4440    10878    2           SECOND_TRY_FLAG = %YES#;

  10878  2 000452   400000 236003                    LDQ     -131072,DU
         2 000453   200011 756100                    STQ     SECOND_TRY_FLAG,,AUTO

     4441    10879
     4442    10880    2           GOTO SETUP_FPT;

  10880  2 000454   000003 710000 2                  TRA     SETUP_FPT

     4443    10881
     4444    10882    2       END;
     4445    10883
     4446    10884    1       IF DCBADDR(Y$OPEN.V.DCB#) -> F$DCB.ORG# ~= Y$OPEN.V.ORG#

  10884  2 000455   000011 470400 3                  LDP0    9
         2 000456   000000 471500                    LDP1    0,,PR0
         2 000457   200144 220100                    LDX0    Y$OPEN+36,,AUTO
         2 000460   100000 473510                    LDP3    0,X0,PR1
         2 000461   200146 236100                    LDQ     Y$OPEN+38,,AUTO
         2 000462   000011 772000                    QRL     9
         2 000463   000777 376007                    ANQ     511,DL
         2 000464   200216 756100                    STQ     Y$FORM+2,,AUTO
         2 000465   300032 236100                    LDQ     26,,PR3
         2 000466   000033 772000                    QRL     27
         2 000467   200216 116100                    CMPQ    Y$FORM+2,,AUTO
         2 000470   000533 600000 2                  TZE     s:10908

     4447    10885    1       THEN
     4448    10886    2       DO CASE (DCBADDR(Y$OPEN.V.DCB#) -> F$DCB.ORG#);

  10886  2 000471   000030 116007                    CMPQ    24,DL
PL6.E3A0      #019=XUG$OPENOUT_COMMON File=XUG$COMMON.:E05TSI                    WED 07/30/97 09:29 Page:849
         2 000472   000474 602006 2                  TNC     s:10886+3,QL
         2 000473   000533 710000 2                  TRA     s:10908
         2 000474   000533 710000 2                  TRA     s:10908
         2 000475   000533 710000 2                  TRA     s:10908
         2 000476   000524 710000 2                  TRA     s:10890
         2 000477   000524 710000 2                  TRA     s:10890
         2 000500   000533 710000 2                  TRA     s:10908
         2 000501   000524 710000 2                  TRA     s:10890
         2 000502   000524 710000 2                  TRA     s:10890
         2 000503   000533 710000 2                  TRA     s:10908
         2 000504   000533 710000 2                  TRA     s:10908
         2 000505   000533 710000 2                  TRA     s:10908
         2 000506   000533 710000 2                  TRA     s:10908
         2 000507   000533 710000 2                  TRA     s:10908
         2 000510   000533 710000 2                  TRA     s:10908
         2 000511   000524 710000 2                  TRA     s:10890
         2 000512   000533 710000 2                  TRA     s:10908
         2 000513   000533 710000 2                  TRA     s:10908
         2 000514   000533 710000 2                  TRA     s:10908
         2 000515   000533 710000 2                  TRA     s:10908
         2 000516   000533 710000 2                  TRA     s:10908
         2 000517   000533 710000 2                  TRA     s:10908
         2 000520   000533 710000 2                  TRA     s:10908
         2 000521   000533 710000 2                  TRA     s:10908
         2 000522   000533 710000 2                  TRA     s:10908
         2 000523   000524 710000 2                  TRA     s:10890

     4449    10887
     4450    10888    2       CASE (%KEYED#, %RANDOM#, %RELATIVE#, %INDEXED#, %IREL#, %SE#);

     4451    10889
     4452    10890    2           GETCMD.ERR# = XUG#BAD_OUTPUT_ORG;

  10890  2 000524   000162 236000 1                  LDQ     XUG#BAD_OUTPUT_ORG
         2 000525   200003 474500                    LDP4    @GETCMD,,AUTO
         2 000526   400001 756100                    STQ     1,,PR4

PL6.E3A0      #019=XUG$OPENOUT_COMMON File=XUG$COMMON.:E05TSI                    WED 07/30/97 09:29 Page:850
     4453    10891    2           GETCMD.ERRDCB# = DCBNUM(NIL);

  10891  2 000527   400011 450100                    STZ     9,,PR4

     4454    10892
     4455    10893        /*E*  ERROR:   XUG-E$XUG#BAD_OUTPUT_ORG
     4456    10894              MESSAGE: File already exists, and is keyed.  Output redirected to ME.
     4457    10895              MESSAGE1: You tried to direct output to a file which (1) already exists,
     4458    10896                       and (2) is of a "direct-access" organization - that is, each
     4459    10897                       record in the file must be identified by a unique key.  Output
     4460    10898                       may be directed only to files or devices which do not require
     4461    10899                       record keys.
     4462    10900        */
     4463    10901
     4464    10902    2           SECOND_TRY_FLAG = %YES#;

  10902  2 000530   400000 236003                    LDQ     -131072,DU
         2 000531   200011 756100                    STQ     SECOND_TRY_FLAG,,AUTO

     4465    10903
     4466    10904    2           GOTO SETUP_FPT;

  10904  2 000532   000003 710000 2                  TRA     SETUP_FPT

     4467    10905
     4468    10906    2       END;

     4469    10907
     4470    10908    1       IF SECOND_TRY_FLAG

  10908  2 000533   200011 234100                    SZN     SECOND_TRY_FLAG,,AUTO
         2 000534   000536 605000 2                  TPL     s:10912

     4471    10909    1       THEN
     4472    10910    1           ALTRETURN;

  10910  2 000535   000000 702200 xent               TSX2  ! X66_AALT
PL6.E3A0      #019=XUG$OPENOUT_COMMON File=XUG$COMMON.:E05TSI                    WED 07/30/97 09:29 Page:851

     4473    10911    1       ELSE
     4474    10912    1           RETURN;

  10912  2 000536   000000 702200 xent               TSX2  ! X66_ARET
     4475    10913
     4476    10914    1   END /* XUG$OPENOUT_COMMON */;

PL6.E3A0      #019=XUG$OPENOUT_COMMON File=XUG$COMMON.:E05TSI                    WED 07/30/97 09:29 Page:852
--  Include file information  --

   XU_PERR_C.:E05TOU  is referenced.
   XU_SUBS_C.:E05TOU  is referenced.
   XU_MACRO_C.:E05TOU  is referenced.
   CP_6_SUBS.:E05TOU  is referenced.
   CP_6_C.:E05TOU  is referenced.
   CP_6.:E05TOU  cannot be made into a system file and is referenced.
      No diagnostics issued in procedure XUG$OPENOUT_COMMON.
PL6.E3A0      #019=XUG$OPENOUT_COMMON File=XUG$COMMON.:E05TSI                    WED 07/30/97 09:29 Page:853

 **** Variables and constants ****

  ****  Section 001 RoData XUG$OPENOUT_COMMON

  ****  Scalars and arrays  ****
OctLoc.c.b A Datatyp(siz) R M Lvl/name                 OctLoc.c.b A Datatyp(siz) R M Lvl/name

     2-0-0/d STRC(2088)  r     1 DEFAULT_OPEN             124-0-0/d STRC(1080)  r     1 FPT_CLOSE
    74-0-0/d STRC(864)   r     1 FPT_FID                    0-0-0/c STRC(45)    r     1 M$LO
   162-0-0/w STRC        r     1 XUG#BAD_OUTPUT_ORG       163-0-0/w STRC        r     1 XUG#NO_M$LO_DCB

  ****  Auto variables  ****

  ****  Scalars and arrays  ****
OctLoc.c.b A Datatyp(siz) R M Lvl/name                 OctLoc.c.b A Datatyp(siz) R M Lvl/name

     3-0-0/w PTR         r     1 @GETCMD                    5-0-0/w PTR         r     1 BLK$
    *0-0-0/d STRC(1512)  r     1 GETCMD                     4-0-0/w UBIN        r     1 M$LO#
     6-0-0/w PTR         r     1 OPT$                      11-0-0/b BIT         r     1 SECOND_TRY_FLAG
    10-0-0/w UBIN        r     1 SUBLK                      7-0-0/w UBIN        r     1 TEMP
   202-0-0/c STRC(72)    r     1 Y$ACCT                    42-0-0/d STRC(1080)  r     1 Y$CLOSE
    12-0-0/d STRC(864)   r     1 Y$FID                    214-0-0/c STRC(54)    r     1 Y$FORM
   172-0-0/c STRC(288)   r     1 Y$NAME                   100-0-0/d STRC(2088)  r     1 Y$OPEN
   204-0-0/c STRC(72)    r     1 Y$PASS                   206-0-0/d STRC(90)    r     1 Y$SN
   212-0-0/c STRC(72)    r     1 Y$WSN

  ****  SYMREF variables  ****

  ****  Scalars and arrays  ****
OctLoc.c.b A Datatyp(siz) R M Lvl/name                 OctLoc.c.b A Datatyp(siz) R M Lvl/name

     0-0-0/w PTR         r     1 B$TCB$

  ****  BASED and DCB variables  ****

  ****  Scalars and arrays  ****
OctLoc.c.b A Datatyp(siz) R M Lvl/name                 OctLoc.c.b A Datatyp(siz) R M Lvl/name
PL6.E3A0      #019=XUG$OPENOUT_COMMON File=XUG$COMMON.:E05TSI                    WED 07/30/97 09:29 Page:854

     0-0-0/w STRC(2448)  r     1 B$ALT                      0-0-0/w STRC(144)   r     1 B$TCB
     0-0-0/d ASTR(3528)  r     1 F$DCB                      0-0-0/d STRC(2088)  r     1 FPT_OPEN
     0-0-0/w STRC(144)   r     1 O$BLK                      0-0-0/w ASTR(153)   r     1 O$SYM
     0-0-0/w STRC(144)   r     1 OUT$BLK


   Procedure XUG$OPENOUT_COMMON requires 351 words for executable code.
   Procedure XUG$OPENOUT_COMMON requires 144 words of local(AUTO) storage.

    No errors detected in file XUG$COMMON.:E05TSI    .
PL6.E3A0      #019=XUG$OPENOUT_COMMON File=XUG$COMMON.:E05TSI                    WED 07/30/97 09:29 Page:855
          *** CROSS REFERENCE LISTING ***
**     DENOTES     IDENTIFIER DEFINITION
<<                 IDENTIFIER'S VALUE SET
>>                 IDENTIFIER'S VALUE USED
<>                 IDENTIFIER SET AND/OR USED
--                 IDENTIFIER REFERENCED
PL6.E3A0      #019=XUG$OPENOUT_COMMON File=XUG$COMMON.:E05TSI                    WED 07/30/97 09:29 Page:856
          MINI XREF LISTING

B$ALT.CODE
     10746**DCL     10746--REDEF   10747--REDEF   10747--REDEF
B$ALT.DCB#
     10747**DCL     10863>>ASSIGN
B$ALT.ERR
     10747**DCL     10864>>ASSIGN  10877>>ASSIGN
B$ALT.ERR.ERR#
     10748**DCL     10748--REDEF
B$ALT.EVID
     10747**DCL     10747--REDEF   10747--REDEF
B$TCB.ALT$
     10742**DCL     10863>>ASSIGN  10864>>ASSIGN  10877>>ASSIGN
B$TCB$
     10740**DCL     10863>>ASSIGN  10864>>ASSIGN  10877>>ASSIGN
BLK$
     10031**DCL     10223--IMP-PTR 10835<<ASSIGN  10836>>DOCASE  10843>>ASSIGN  10843>>ASSIGN  10845>>CALLBLT
     10845>>CALLBLT 10848>>CALLBLT 10848>>CALLBLT
DEFAULT_OPEN
     10114**DCL     10760>>ASSIGN
DEFAULT_OPEN.ACSVEH_
     10116**DCL     10117--REDEF
DEFAULT_OPEN.ALTKEYS_
     10122**DCL     10123--REDEF   10123--REDEF
DEFAULT_OPEN.HDR_
     10121**DCL     10122--REDEF
DEFAULT_OPEN.TAB_
     10120**DCL     10121--REDEF
DEFAULT_OPEN.UHL_
     10114**DCL     10115--REDEF   10115--REDEF
DEFAULT_OPEN.V
     10123**DCL     10114--DCLINIT
DEFAULT_OPEN.V.FSN#
PL6.E3A0      #019=XUG$OPENOUT_COMMON File=XUG$COMMON.:E05TSI                    WED 07/30/97 09:29 Page:857
     10154**DCL     10154--REDEF   10154--REDEF
DEFAULT_OPEN.WSN_
     10120**DCL     10120--REDEF
F$DCB.ACTPOS
     10192**DCL     10192--REDEF
F$DCB.ARS#
     10166**DCL     10166--REDEF
F$DCB.ATTR
     10185**DCL     10186--REDEF
F$DCB.BORROW
     10200**DCL     10200--REDEF   10200--REDEF   10200--REDEF
F$DCB.DCBNAME.L
     10214**DCL     10214--IMP-SIZ
F$DCB.EOMCHAR#
     10170**DCL     10170--REDEF
F$DCB.FCD#
     10179**DCL     10857>>IF
F$DCB.FLDID
     10195**DCL     10195--REDEF
F$DCB.FORM$
     10189**DCL     10189--REDEF
F$DCB.FSECT
     10205**DCL     10205--REDEF
F$DCB.FSN#
     10182**DCL     10182--REDEF   10182--REDEF   10183--REDEF
F$DCB.HEADER$
     10188**DCL     10188--REDEF
F$DCB.IXTNSIZE#
     10186**DCL     10186--REDEF
F$DCB.LASTSTA$
     10175**DCL     10175--REDEF
F$DCB.LVL
     10201**DCL     10201--REDEF
F$DCB.NAME#.C
     10176**DCL     10176--REDEF
F$DCB.NOEOF
PL6.E3A0      #019=XUG$OPENOUT_COMMON File=XUG$COMMON.:E05TSI                    WED 07/30/97 09:29 Page:858
     10198**DCL     10198--REDEF
F$DCB.NRECS#
     10187**DCL     10187--REDEF
F$DCB.NRECX
     10206**DCL     10206--REDEF
F$DCB.OHDR
     10198**DCL     10198--REDEF
F$DCB.ORG#
     10181**DCL     10181--REDEF   10884>>IF      10886>>DOCASE
F$DCB.PRECNO
     10204**DCL     10204--REDEF
F$DCB.RCSZ
     10210**DCL     10210--REDEF
F$DCB.RES#
     10177**DCL     10177--REDEF
F$DCB.SETX
     10189**DCL     10189--REDEF
F$DCB.TAB$
     10189**DCL     10189--REDEF
F$DCB.TDA
     10203**DCL     10204--REDEF
F$DCB.WSN#
     10177**DCL     10177--REDEF
FPT_CLOSE
     10349**DCL     10858>>ASSIGN
FPT_CLOSE.SN_
     10349**DCL     10349--REDEF
FPT_CLOSE.UTL_
     10350**DCL     10350--REDEF
FPT_CLOSE.V
     10354**DCL     10349--DCLINIT
FPT_CLOSE.V.EXPIRE#
     10364**DCL     10364--REDEF
FPT_CLOSE.V.TYPE#
     10362**DCL     10362--REDEF
FPT_CLOSE.V.XTNSIZE#
PL6.E3A0      #019=XUG$OPENOUT_COMMON File=XUG$COMMON.:E05TSI                    WED 07/30/97 09:29 Page:859
     10359**DCL     10359--REDEF   10361--REDEF
FPT_FID
     10313**DCL     10812>>ASSIGN
FPT_FID.V
     10317**DCL     10313--DCLINIT
FPT_OPEN
      9985**DCL     10784>>ASSIGN
FPT_OPEN.ACSVEH_
      9987**DCL      9988--REDEF
FPT_OPEN.ALTKEYS_
      9993**DCL      9994--REDEF    9994--REDEF
FPT_OPEN.HDR_
      9992**DCL      9993--REDEF
FPT_OPEN.TAB_
      9991**DCL      9992--REDEF
FPT_OPEN.UHL_
      9985**DCL      9986--REDEF    9986--REDEF
FPT_OPEN.V.FSN#
     10025**DCL     10025--REDEF   10025--REDEF
FPT_OPEN.WSN_
      9991**DCL      9991--REDEF
GETCMD
      9550**DCL         7--PROC
GETCMD.DCB_PARAM#
      9730**DCL     10761>>IF      10787>>IF      10788>>ASSIGN
GETCMD.ERR#
      9561**DCL     10768<<ASSIGN  10864<<ASSIGN  10877<<ASSIGN  10890<<ASSIGN
GETCMD.ERRDCB#
      9709**DCL     10767<<ASSIGN  10863<<ASSIGN  10876<<ASSIGN  10891<<ASSIGN
GETCMD.FPT$
      9847**DCL      9985--IMP-PTR 10757>>IF      10784>>ASSIGN
GETCMD.OUT$
      9555**DCL      9561--REDEF
GETCMD.UTIL$
      9851**DCL      9881--IMP-PTR 10790>>IF      10792>>ASSIGN  10793>>IF      10793>>IF      10793>>IF
     10793>>IF      10797>>ASSIGN  10798>>DOCASE  10811>>IF      10831>>IF      10831>>IF      10833>>ASSIGN
PL6.E3A0      #019=XUG$OPENOUT_COMMON File=XUG$COMMON.:E05TSI                    WED 07/30/97 09:29 Page:860
     10833>>ASSIGN
M$CLOSE
      5535**DCL-ENT 10861--CALL
M$FID
      5598**DCL-ENT 10823--CALL
M$LO
     10037**DCL     10764<>CALL
M$LO#
     10030**DCL     10764<>CALL    10778>>ASSIGN
M$OPEN
      5535**DCL-ENT 10869--CALL
O$BLK.CODE
     10231**DCL     10793>>IF      10798>>DOCASE  10831>>IF      10836>>DOCASE
O$BLK.NSUBLKS
     10235**DCL     10834>>DOINDEX
O$BLK.SUBLK$
     10256**DCL     10835>>ASSIGN  10843>>ASSIGN  10843>>ASSIGN  10845>>CALLBLT 10845>>CALLBLT 10848>>CALLBLT
     10848>>CALLBLT
O$SYM.COUNT
     10293**DCL     10296--IMP-SIZ 10822>>ASSIGN  10843>>ASSIGN  10845>>CALLBLT 10848>>CALLBLT
O$SYM.TEXT
     10296**DCL     10822--ASSIGN  10843>>ASSIGN  10845>>CALLBLT 10848>>CALLBLT
OPT$
     10032**DCL     10792<<ASSIGN  10797<<ASSIGN  10822>>ASSIGN  10822>>ASSIGN  10833<<ASSIGN  10834>>DOINDEX
     10835>>ASSIGN
OUT$BLK.NSUBLKS
      9893**DCL     10793>>IF      10793>>IF      10793>>IF      10811>>IF      10831>>IF      10833>>ASSIGN
OUT$BLK.SUBLK$
      9914**DCL     10792>>ASSIGN  10793>>IF      10797>>ASSIGN  10798>>DOCASE  10831>>IF      10833>>ASSIGN
SECOND_TRY_FLAG
     10035**DCL     10753<<ASSIGN  10757>>IF      10790>>IF      10872>>IF      10878<<ASSIGN  10902<<ASSIGN
     10908>>IF
SETUP_FPT
     10757**LABEL   10880--GOTO    10904--GOTO
SUBLK
     10034**DCL     10834<<DOINDEX 10835>>ASSIGN
PL6.E3A0      #019=XUG$OPENOUT_COMMON File=XUG$COMMON.:E05TSI                    WED 07/30/97 09:29 Page:861
TEMP
     10033**DCL     10845<<CALLBLT 10846>>ASSIGN  10848<<CALLBLT 10849>>ASSIGN
XUG#BAD_OUTPUT_ORG
     10658**DCL     10890>>ASSIGN
XUG#NO_M$LO_DCB
     10704**DCL     10768>>ASSIGN
XUG$FINDDCB_COMMON
     10738**DCL-ENT 10764--CALL
XUG$OPENOUT_X
     10872**LABEL   10823--CALLALT
Y$ACCT
     10586**DCL     10814--ASSIGN  10825--ASSIGN
Y$CLOSE
     10417**DCL     10858<<ASSIGN  10861<>CALL
Y$CLOSE.SN_
     10417**DCL     10417--REDEF
Y$CLOSE.UTL_
     10418**DCL     10418--REDEF
Y$CLOSE.V
     10422**DCL     10859--ASSIGN
Y$CLOSE.V.DCB#
     10423**DCL     10860<<ASSIGN
Y$CLOSE.V.EXPIRE#
     10432**DCL     10432--REDEF
Y$CLOSE.V.TYPE#
     10430**DCL     10430--REDEF
Y$CLOSE.V.XTNSIZE#
     10427**DCL     10427--REDEF   10429--REDEF
Y$CLOSE.V_
     10417**DCL     10859<<ASSIGN
Y$FID
     10381**DCL     10812<<ASSIGN  10823<>CALL
Y$FID.ACCT_
     10382**DCL     10814<<ASSIGN
Y$FID.ASN_
     10384**DCL     10819<<ASSIGN
PL6.E3A0      #019=XUG$OPENOUT_COMMON File=XUG$COMMON.:E05TSI                    WED 07/30/97 09:29 Page:862
Y$FID.NAME_
     10382**DCL     10815<<ASSIGN
Y$FID.PASS_
     10382**DCL     10816<<ASSIGN
Y$FID.RES_
     10384**DCL     10820<<ASSIGN
Y$FID.SN_
     10383**DCL     10817<<ASSIGN
Y$FID.TEXTFID_
     10381**DCL     10822<<ASSIGN
Y$FID.V
     10385**DCL     10813--ASSIGN
Y$FID.V_
     10381**DCL     10813<<ASSIGN
Y$FID.WSN_
     10383**DCL     10818<<ASSIGN
Y$FORM
     10642**DCL     10842--ASSIGN
Y$FORM.FORM#
     10642**DCL     10843<<ASSIGN
Y$NAME
     10572**DCL     10815--ASSIGN  10826--ASSIGN
Y$OPEN
     10502**DCL     10760<<ASSIGN  10784<<ASSIGN  10869<>CALL
Y$OPEN.ACCT_
     10506**DCL     10825<<ASSIGN
Y$OPEN.ACSVEH_
     10504**DCL     10505--REDEF
Y$OPEN.ALTKEYS_
     10510**DCL     10511--REDEF   10511--REDEF
Y$OPEN.FORM_
     10510**DCL     10842<<ASSIGN
Y$OPEN.HDR_
     10509**DCL     10510--REDEF
Y$OPEN.NAME_
     10503**DCL     10826<<ASSIGN
PL6.E3A0      #019=XUG$OPENOUT_COMMON File=XUG$COMMON.:E05TSI                    WED 07/30/97 09:29 Page:863
Y$OPEN.PASS_
     10504**DCL     10827<<ASSIGN
Y$OPEN.SN_
     10502**DCL     10828<<ASSIGN
Y$OPEN.TAB_
     10508**DCL     10509--REDEF
Y$OPEN.UHL_
     10502**DCL     10503--REDEF   10503--REDEF
Y$OPEN.V
     10511**DCL     10785--ASSIGN
Y$OPEN.V.ASN#
     10521**DCL     10819--ASSIGN
Y$OPEN.V.DCB#
     10511**DCL     10778<<ASSIGN  10788<<ASSIGN  10856--IF      10857--IF      10860>>ASSIGN  10884--IF
     10886--DOCASE
Y$OPEN.V.EXIST#
     10515**DCL     10801<<ASSIGN  10804<<ASSIGN  10807<<ASSIGN
Y$OPEN.V.FSN#
     10542**DCL     10542--REDEF   10542--REDEF
Y$OPEN.V.FUN#
     10521**DCL     10800<<ASSIGN  10803<<ASSIGN  10806<<ASSIGN
Y$OPEN.V.IXTNSIZE#
     10530**DCL     10846<<ASSIGN
Y$OPEN.V.ORG#
     10522**DCL     10838<<ASSIGN  10840<<ASSIGN  10884>>IF
Y$OPEN.V.RES#
     10526**DCL     10820--ASSIGN
Y$OPEN.V.XTNSIZE#
     10530**DCL     10849<<ASSIGN
Y$OPEN.V_
     10502**DCL     10785<<ASSIGN
Y$OPEN.WSN_
     10508**DCL     10508--REDEF   10829<<ASSIGN
Y$PASS
     10600**DCL     10816--ASSIGN  10827--ASSIGN
Y$SN
PL6.E3A0      #019=XUG$OPENOUT_COMMON File=XUG$COMMON.:E05TSI                    WED 07/30/97 09:29 Page:864
     10614**DCL     10817--ASSIGN  10828--ASSIGN
Y$WSN
     10628**DCL     10818--ASSIGN  10829--ASSIGN
