PL6.E3A0      #001=XUG$COMMON File=XUG$COMMON.:E05TSI                            WED 07/30/97 09:17 Page:1
        1        1        /*M* XUG$COMMON - COMMON COMMAND READING AND ERROR REPORTING ROUTINES */
        2        2        /*T***********************************************************/
        3        3        /*T*                                                         */
        4        4        /*T* Copyright (c) Bull HN Information Systems Inc., 1997    */
        5        5        /*T*                                                         */
        6        6        /*T***********************************************************/
        7        7        /*X* DMC,PLM=4,IND=4,CTI=2,DTI=0,ENI=0,ECI=0,CSI=0,MCI,DCI=4 */
        8        8        XUG$COMMON: PROC (GETCMD, XUG_INIT) ALTRET;
        9        9        /**/
       10       10    1   DCL 1 VECBASE BASED,                    /* USED AS REDEF OF NODES */
       11       11    1         2 BOUND UBIN(20) UNAL,
       12       12    1         2 FLAGS BIT(16),
       13       13    1         2 P$ PTR;
       14       14    1   DCL PR$ PTR;
       15       15    1   DCL 1 PROMPT$C CALIGNED BASED(PR$),
       16       16    1         2 C CHAR(PSIZ);
       17       17    1   DCL PSIZ SBIN;
       18       18        %EJECT;
PL6.E3A0      #001=XUG$COMMON File=XUG$COMMON.:E05TSI                            WED 07/30/97 09:17 Page:2
       19       19    1   DCL X$PARSE ENTRY(1) ALTRET;
       20       20    1   DCL XUG$BLANK_PASSWORD_COMMON ENTRY(2) ALTRET ;
       21       21    1   DCL XUG$ERRMSG_COMMON ENTRY(1) ALTRET;
       22       22    1   DCL XUG$READCMD_COMMON ENTRY(3) ALTRET;
       23       23    1   DCL XUG$CORRES_COMMON ENTRY(2) ALTRET;
       24       24    1   DCL XUG$PU ENTRY(1) ALTRET ;
       25       25    1   DCL XUG$SETLAST ENTRY(1) ALTRET;
       26       26    1   DCL XUG$ECHOLAST_COMMON ENTRY(1) ALTRET;
       27       27    1   DCL XUG$DISABLE_COMMON ENTRY(1) ;
       28       28    1   DCL XUG$CLRENABLE_COMMON ENTRY(1) ;
       29       29    1   DCL XUG$GETDCB_COMMON ENTRY(2) ALTRET;
       30       30    1   DCL XUG$BUILTIN_COMMON ENTRY (1) ALTRET;
       31       31    1   DCL XUG$PRE_PROCESSOR ENTRY (2);
       32       32    1   DCL XUG$PP_CMDVARS ENTRY (2);
       33       33    1   DCL XUG$OPENOUT_INTERNAL ENTRY(2);
       34       34        /**/
       35       35        %INCLUDE B$JIT;
       36      638        %INCLUDE B$TABLES_C;
       37      746        %INCLUDE NK_VFC_C;
       38      820        %INCLUDE XU_MACRO_C;
       39     3926        %INCLUDE XUH_MACRO_C ;
       40     4010        %INCLUDE XT_MACRO_M;
       41     4336        %INCLUDE XU_PERR_C;
       42     4527        %INCLUDE XU_SUBS_C ;
       43     4619        %INCLUDE XU_DATA_R;
       44     4630        %B$XL_UPPER (NAME=TRANSTBL);
       45     4634        %P_PCB (STCLASS="BASED(P_PCB$)");
       46     4833        %P_PCB (STCLASS=CONSTANT,NAME=P_PCB_C);
       47     5032        %P$NODE (STCLASS=BASED);
       48     5126        %P$LIT (STCLASS=BASED, LEN="P$LIT.COUNT");
       49     5179        %PARSE$OUT (NAME=P$B, STCLASS=BASED) ;
       50     5224        %INCLUDE CP_6;
       51    10783        %INCLUDE CP_6_SUBS;
       52    11323        %INCLUDE B_SEGIDS_C ;
       53    11862        %F$DCB;
       54    11919        %MACRO TEXTC (NAME=NAME,T#='',STCLASS=CONSTANT);
       55    11920        DCL 1 NAME STCLASS,
PL6.E3A0      #001=XUG$COMMON File=XUG$COMMON.:E05TSI                            WED 07/30/97 09:17 Page:3
       56    11921              2 L UBIN BYTE UNAL INIT(SIZEC(T#)),
       57    11922              2 C CHAR(0) INIT(T#);
       58    11923        %MEND;
       59    11924        %TEXTC (NAME=M$SI,T#='M$SI');
       60    11929        %TEXTC (NAME=M$LO,T#='M$LO');
       61    11934        %SET GDSSIZ = 1024;
       62    11935        %FPT_GDS (FPTN=FPT_GDS_C, SEGSIZE=%GDSSIZ, STCLASS=CONSTANT);
       63    11951        %FPT_GDS (FPTN=FPT_GDS, STCLASS=AUTO);
       64    11967    1   DCL USER_GDSVEC VECTOR ;
       65    11968        %FPT_WRITE (WAIT=YES,STCLASS=CONSTANT,FPTN=FPT_WRITE_C);
       66    11999        %FPT_WRITE (STCLASS=AUTO);
       67    12030        %FPT_PROMPT (STCLASS=CONSTANT,FPTN=FPT_PROMPT_C);
       68    12058        %FPT_PROMPT (STCLASS=AUTO);
       69    12086        %FPT_OPEN (FPTN=FPT_OPEN_C, STCLASS=CONSTANT);
       70    12195        %FPT_OPEN (FPTN=FPT_OPEN, STCLASS=AUTO);
       71    12304        %FPT_SINPUT (FPTN=FPT_SINPUT_C, STCLASS=CONSTANT, POSITION=YES) ;
       72    12341        %FPT_SINPUT (FPTN=FPT_SINPUT, STCLASS=AUTO) ;
       73    12378        %FPT_MERC (FPTN=FPT_MERC, STCLASS=AUTO);
       74    12391        %FPT_MERC (FPTN=FPT_MERC_C, STCLASS=CONSTANT);
       75    12404        %VLP_ERRCODE (FPTN=XUG#SMALLWORK, STCLASS=CONSTANT,
       76    12405                      FCG=XU, MID=G, ERR#=%E$XUG#SMALLWORK, SEV=2) ;
       77    12450        %VLP_ERRCODE (FPTN=XUG#NOTCONTIGAREA, STCLASS="CONSTANT SYMDEF",
       78    12451                      FCG=XU, MID=G, ERR#=%E$XUG#NOTCONTIGAREA, SEV=2) ;
       79    12496        %VLP_ERRCODE (FPTN=XUG#AREANOTRTSZ, STCLASS="CONSTANT SYMDEF",
       80    12497                      FCG=XU, MID=G, ERR#=%E$XUG#AREANOTRTSZ, SEV=2) ;
       81    12542        %VLP_ERRCODE (FPTN=XUG#CANTEXPAND, STCLASS="CONSTANT SYMDEF",
       82    12543                      FCG=XU, MID=G, ERR#=%E$XUG#CANTEXPAND, SEV=2) ;
       83    12588        %VLP_ERRCODE (FPTN=XUG#PLERRMSG, STCLASS=CONSTANT,
       84    12589                      FCG=XU, MID=G, ERR#=%E$XUG#PLERRMSG, SEV=0) ;
       85    12634        %VLP_ERRCODE (FPTN=XUG#INCOR_PTD_XPND, STCLASS=CONSTANT,
       86    12635                      FCG=XU, MID=G, ERR#=%E$XUG#INCOR_PTD_XPND, SEV=0);
       87    12680        %VLP_ERRCODE (FPTN=XUG#INCOR_HERE_XPND, STCLASS=CONSTANT,
       88    12681                      FCG=XU, MID=G, ERR#=%E$XUG#INCOR_HERE_XPND, SEV=0) ;
       89    12726        %VLP_ERRCODE (FPTN=XUG#INCOR_HERE, STCLASS=CONSTANT,
       90    12727                      FCG=XU, MID=G, ERR#=%E$XUG#INCOR_HERE, SEV=0);
       91    12772        %VLP_ERRCODE (FPTN=XUG#NWALIGNED, STCLASS=CONSTANT,
       92    12773                      FCG=XU, MID=G, ERR#=%E$XUG#NWALIGNED, SEV=0) ;
PL6.E3A0      #001=XUG$COMMON File=XUG$COMMON.:E05TSI                            WED 07/30/97 09:17 Page:4
       93    12818        %VLP_ERRCODE (FPTN=XUG#LEGAL_INPUT_HERE, STCLASS=CONSTANT,
       94    12819                      FCG=XU, MID=G, ERR#=%E$XUG#LEGAL_INPUT_HERE, SEV=0);
       95    12864        %VLP_ERRCODE (FPTN=XUG#LEGAL_INPUT_QM, STCLASS=CONSTANT,
       96    12865                      FCG=XU, MID=G, ERR#=%E$XUG#LEGAL_INPUT_QM, SEV=0);
       97    12910        %VLP_ERRCODE (FPTN=XUG#SINGLE_LEGAL, STCLASS=CONSTANT,
       98    12911                      FCG=XU, MID=G, ERR#=%E$XUG#SINGLE_LEGAL, SEV=0);
       99    12956        %VLP_ERRCODE (FPTN=XUG#MULTI_LEGAL, STCLASS=CONSTANT,
      100    12957                      FCG=XU, MID=G, ERR#=%E$XUG#MULTI_LEGAL, SEV=0);
      101    13002        %VLP_ERRCODE (FPTN=XUG#SINGLE_CHOICE, STCLASS=CONSTANT,
      102    13003                      FCG=XU, MID=G, ERR#=%E$XUG#SINGLE_CHOICE, SEV=0);
      103    13048        %VLP_ERRCODE (FPTN=XUG#MULTI_CHOICE, STCLASS=CONSTANT,
      104    13049                      FCG=XU, MID=G, ERR#=%E$XUG#MULTI_CHOICE, SEV=0);
      105    13094        %VLP_ERRCODE (FPTN=XUG#NO_OTHER_CHOICE, STCLASS=CONSTANT,
      106    13095                      FCG=XU, MID=G, ERR#=%E$XUG#NO_OTHER_CHOICE, SEV=0);
      107    13140        %VLP_ERRCODE (FPTN=XUG#NO_MATCH, STCLASS=CONSTANT,
      108    13141                      FCG=XU, MID=G, ERR#=%E$XUG#NO_MATCH, SEV=0);
      109    13186        %VLP_ERRCODE (FPTN=XUG#FOLLOWED_BY, STCLASS=CONSTANT,
      110    13187                      FCG=XU, MID=G, ERR#=%E$XUG#FOLLOWED_BY, SEV=0);
      111    13232        %VLP_ERRCODE (FPTN=XUG#NULLROOT, STCLASS=CONSTANT,
      112    13233                      FCG=XU, MID=G, ERR#=%E$NULLROOT, SEV=0);
      113    13278        %VLP_ERRCODE (FPTN=XUG#PRE_C00, STCLASS=CONSTANT,
      114    13279                      FCG=XU, MID=G, ERR#=%E$PCB_PRE_C00, SEV=0);
      115    13324        %VLP_ERRCODE (FPTN=XUG#LINETOOLONG, STCLASS=CONSTANT,
      116    13325                      FCG=XU, MID=G, ERR#=%E$XUG#LINETOOLONG, SEV=0);
      117    13370        %VLP_ERRCODE (FPTN=TEMP_ERR, STCLASS=AUTO) ;
      118    13415    1   DCL XUG_NODES UBIN WORD SYMREF ;
      119    13416    1   DCL XUG_BUILTIN_N UBIN WORD SYMREF ;
      120    13417    1   DCL XUP$DMPCORRECTED ENTRY (1) OPTIONAL;
      121    13418    1   DCL XUS$CORRECT_SPELLING ENTRY (5) ALTRET;
      122    13419    1   DCL X66_REL_AUTO ENTRY;
      123    13420        %EJECT;
PL6.E3A0      #001=XUG$COMMON File=XUG$COMMON.:E05TSI                            WED 07/30/97 09:17 Page:5
      124    13421        %XUG_PARAMS ;
      125    13865        %XUG_GETCMD (NAME=GETCMD, STCLASS=PARAM) ;
      126    14203        %XUG_INIT (NAME=XUG_INIT, STCLASS=PARAM) ;
      127    14616        %XUG_INIT (NAME = XUG_INIT_C,STCLASS="CONSTANT SYMDEF",ADAPT=NIL);
      128    15029        %XUG_INIT (NAME = XUG_INIT_A,STCLASS=AUTO);
      129    15442        %XUG_RLT (NAME=RLT) ;
      130    15449        %XUH_PARAM (NAME=XUH_PARAM_C, STCLASS=CONSTANT) ;
      131    15510        %XT_PARAM (NAME=XT_PARAM, STCLASS="BASED(XT$)");
      132    15823        %EJECT;
PL6.E3A0      #001=XUG$COMMON File=XUG$COMMON.:E05TSI                            WED 07/30/97 09:17 Page:6
      133    15824    1   DCL XUG$ PTR ;
      134    15825    1   DCL XT$ PTR;
      135    15826    1   DCL XT_ VECTOR;
      136    15827    1   DCL P_PCB$ PTR ;
      137    15828    1   DCL ROOT$ PTR ;
      138    15829    1   DCL NODES$ PTR ;
      139    15830    1   DCL DUMMY$ PTR ;
      140    15831    1   DCL TEXT$ PTR ;
      141    15832    1   DCL TO$ PTR ;
      142    15833    1   DCL 1 SEG$ PTR ;
      143    15834    1   DCL 1 RSEG REDEF SEG$,
      144    15835    1         2 OFFSET UBIN(24) UNAL,
      145    15836    1         2 SID BIT(12) UNAL ;
      146    15837    1   DCL GDSVEC VECTOR ;
      147    15838    1   DCL XUG_OWNS_MEMORY BIT(1) ;
      148    15839    1   DCL STATIC_SZ SBIN WORD ;
      149    15840    1   DCL WORK_SZ SBIN WORD ;
      150    15841    1   DCL RLT_SZ SBIN ;
      151    15842    1   DCL WOFF SBIN ;
      152    15843    1   DCL WBUFSZ SBIN ;
      153    15844    1   DCL ARS SBIN;
      154    15845    1   DCL PROMPT_FLG BIT(1) ALIGNED;
      155    15846    1   DCL ERRPTR_FLG BIT(1) ;
      156    15847    1   DCL TWOCHARS CHAR(2);
      157    15848    1   DCL I SBIN;
      158    15849    1   DCL J SBIN;
      159    15850    1   DCL EPOS SBIN;
      160    15851    1   DCL TPOS SBIN;
      161    15852    1   DCL CSIZE SBIN;
      162    15853    1   DCL TCSIZE SBIN ;
      163    15854    1   DCL POFF SBIN WORD ;
      164    15855    1   DCL CHUNK_SIZE SBIN;
      165    15856    1   DCL OFFSET SBIN;
      166    15857    1   DCL OUTPUT_COUNT SBIN;
      167    15858    1   DCL OUTPUT_WIDTH SBIN;
      168    15859    1   DCL PROMPT_BUF CHAR(94) ;
      169    15860    1   DCL FIRST SBIN ;
PL6.E3A0      #001=XUG$COMMON File=XUG$COMMON.:E05TSI                            WED 07/30/97 09:17 Page:7
      170    15861    1   DCL LAST SBIN ;
      171    15862    1   DCL SAVE_PROMPT_ VECTOR;
      172    15863    1   DCL SAVE_RPROMPT_ VECTOR;
      173    15864    1   DCL SAVE_PROMPT_VFC BIT(1);
      174    15865    1   DCL SAVE_ERR BIT(36) ;
      175    15866    1   DCL SAVE_DCB UBIN WORD ;
      176    15867    1   DCL SAVE_F1 VECTOR;
      177    15868    1   DCL SAVE_F2 VECTOR;
      178    15869    1   DCL 1 FIELD1 ALIGNED,
      179    15870    1         2 CNT UBIN BYTE CALIGNED,
      180    15871    1         2 TXT CHAR(20) CALIGNED ;
      181    15872    1   DCL 1 FIELD2 ALIGNED,
      182    15873    1         2 CNT UBIN BYTE CALIGNED,
      183    15874    1         2 TXT CHAR(20) CALIGNED ;
      184    15875        /*
      185    15876        */
      186    15877    1   DCL CHARBASE CHAR(CSIZE) BASED;
      187    15878    1   DCL CHARARRAY(0:0) CHAR(1) BASED;
      188    15879    1   DCL UBIN$BUF9 UBIN(9) UNAL BASED ;
      189    15880    1   DCL P$ PTR BASED;
      190    15881    1   DCL INBUF CHAR(1024) BASED;
      191    15882    1   DCL 1 VEC$BUF BASED (SEG$) CHAR(CNT) ;
      192    15883    1   DCL OFF$ PTR ;
      193    15884    1   DCL DIFF SBIN ;
      194    15885    1   DCL CNT SBIN WORD ;
      195    15886    1   DCL OUTDCB# UBIN WORD ;
      196    15887    1   DCL B$JIT$ PTR SYMREF READONLY;
      197    15888    1   DCL B$TCB$ PTR SYMREF READONLY;
      198    15889        %B$TCB (STCLASS="BASED(B$TCB$)") ;
      199    15892        %B$ALT;
      200    15900        %EQU XUG_DFLT_WKSZ = 200 ;
      201    15901        %EQU EXPND_PARSEWK = 800 ;
      202    15902
      203    15903        /* Generate CONV(5) entries to force :LIB loading of parse
      204    15904           nodes and the like when necessary.  Bury these DCLs inside a
      205    15905           dummy PROC so that they don't conflict with SYMREFs referencing
      206    15906           the same names.
PL6.E3A0      #001=XUG$COMMON File=XUG$COMMON.:E05TSI                            WED 07/30/97 09:17 Page:8
      207    15907        */
      208    15908
      209    15909    1   GENERATE_CONV_5_ENTREFS: PROC;
      210    15910
      211    15911    2   DCL XU_OUTPUT_OPTIONS ENTRY CONV (5);
      212    15912    2   DCL XUG_BUILTIN_N ENTRY CONV (5);
      213    15913
      214    15914    2   END GENERATE_CONV_5_ENTREFS;
      215    15915
      216    15916        %EJECT;
PL6.E3A0      #001=XUG$COMMON File=XUG$COMMON.:E05TSI                            WED 07/30/97 09:17 Page:9
      217    15917    1   XUG$INIT_COMMON: ENTRY (GETCMD, XUG_INIT) ALTRET;
      218    15918
      219    15919    1       IF GETCMD.WORK$ = ADDR (NIL)
      220    15920    2       THEN DO;
      221    15921    2           IF VBASE(XUG_INIT.WORK_) ~= ADDR(NIL)
      222    15922    3           THEN DO;
      223    15923    3               IF VBOUND(XUG_INIT.WORK_) < (500 * 4 - 1)
      224    15924    3               THEN
      225    15925    4               DO ;
      226    15926    4                   GETCMD.ERR# = XUG#SMALLWORK ;
      227    15927    4                   ALTRETURN ;
      228    15928    4               END ; /* Then Do */
      229    15929    3               OFF$ = PALIGNW(VBASE(XUG_INIT.WORK_)) ;
      230    15930    3               DIFF = POFFC(OFF$, VBASE(XUG_INIT.WORK_)) ;
      231    15931    3               IF DIFF ~= 0
      232    15932    3               THEN
      233    15933    4               DO ;
      234    15934    4                   GETCMD.ERR# = XUG#NWALIGNED ;
      235    15935    4                   ALTRETURN ;
      236    15936    4               END ; /* Then Do */
      237    15937    3               GDSVEC = XUG_INIT.WORK_;
      238    15938    3               XUG_OWNS_MEMORY = %NO#;
      239    15939    3           END;
      240    15940    3           ELSE DO;
      241    15941    3               FPT_GDS = FPT_GDS_C ;
      242    15942    3               FPT_GDS.V_ = VECTOR(FPT_GDS.V) ;
      243    15943    3               FPT_GDS.RESULTS_ = VECTOR(GDSVEC) ;
      244    15944    3               GDSVEC = VECTOR(NIL) ;
      245    15945    3               RSEG = '0'B ;
      246    15946    4               DO CASE (XUG_INIT.WSEG#) ;
      247    15947
      248    15948    4               CASE(0) ;               /* Next available */
      249    15949    4                   RSEG.SID = %NULLSID ;
      250    15950
      251    15951    4               CASE(3) ;
      252    15952    4                   RSEG.SID = %DS3SID ;
      253    15953
PL6.E3A0      #001=XUG$COMMON File=XUG$COMMON.:E05TSI                            WED 07/30/97 09:17 Page:10
      254    15954    4               CASE(4) ;
      255    15955    4                   RSEG.SID = %DS4SID ;
      256    15956
      257    15957    4               CASE(5) ;
      258    15958    4                   RSEG.SID = %DS5SID ;
      259    15959
      260    15960    4               CASE(6) ;
      261    15961    4                   RSEG.SID = %DS6SID ;
      262    15962
      263    15963    4               CASE(7) ;
      264    15964    4                   RSEG.SID = %DS7SID ;
      265    15965
      266    15966    4               CASE(8) ;
      267    15967    4                   RSEG.SID = %DS8SID ;
      268    15968
      269    15969    4               CASE(ELSE) ;
      270    15970    4                   RSEG.SID = %NULLSID ;
      271    15971
      272    15972    4               END ;                   /* Do Case */
      273    15973    3               VBASE(GDSVEC) = SEG$ ;
      274    15974    3               CALL M$GDS (FPT_GDS)
      275    15975    4               WHENALTRETURN DO;
      276    15976    4                   TEMP_ERR = B$TCB.ALT$ -> B$ALT.ERR;
      277    15977    4                   TEMP_ERR.SEV = 4;
      278    15978    4                   FPT_MERC = FPT_MERC_C;
      279    15979    4                   FPT_MERC.JERR_ = VECTOR (TEMP_ERR);
      280    15980    4                   CALL M$MERC (FPT_MERC) ALTRET (MERC_PROBLEM);
      281    15981    4   MERC_PROBLEM:   CALL M$ERR;
      282    15982    4               END;
      283    15983    3               XUG_OWNS_MEMORY = %YES#;
      284    15984    3           END;
      285    15985    2           XUG$ = VBASE(GDSVEC) ;
      286    15986    2           GETCMD.WORK$ = XUG$ ;
      287    15987    2           XUG = '0'B;
      288    15988    2           XUG.GDSVEC = GDSVEC ;
      289    15989    2           XUG.XUG_OWNS_MEMORY = XUG_OWNS_MEMORY ;
      290    15990    2           STATIC_SZ = SIZEC(P_PCB) + SIZEC(XUG) + SIZEC(XT_PARAM);
PL6.E3A0      #001=XUG$COMMON File=XUG$COMMON.:E05TSI                            WED 07/30/97 09:17 Page:11
      291    15991    2           IF MOD(STATIC_SZ, 8) ~= 0
      292    15992    2           THEN STATIC_SZ = STATIC_SZ + (8 - MOD(STATIC_SZ, 8)) ;
      293    15993    2           RLT_SZ = (XUG_INIT.INIT_NRECS# * SIZEC(RLT(0))) ;
      294    15994    2           IF MOD(RLT_SZ, 8) ~= 0
      295    15995    2           THEN RLT_SZ = RLT_SZ + (8 - MOD(RLT_SZ, 8)) ;
      296    15996    2   SETUP_WORK:
      297    15997    2           WORK_SZ = VBOUND(GDSVEC) - STATIC_SZ - RLT_SZ ;
      298    15998    2           IF WORK_SZ <= XUG_INIT.CMDSZ# + %XUG_DFLT_WKSZ
      299    15999    2           THEN
      300    16000    2               IF XUG_OWNS_MEMORY
      301    16001    3               THEN DO ;
      302    16002    3                   CALL M$GDS (FPT_GDS) ALTRET (MALT) ;
      303    16003    3                   GOTO SETUP_WORK ;
      304    16004    3               END ;                  /* Then Do */
      305    16005    3               ELSE DO ;
      306    16006    3                   GETCMD.ERR# = XUG#SMALLWORK ;
      307    16007    3                   ALTRETURN ;
      308    16008    3               END ;                  /* Else Do */
      309    16009        /*E*  ERROR:    XUG-E$XUG#SMALLWORK
      310    16010              MESSAGE0: Work area too small for XUG$INIT to initialize.  Unable
      311    16011                        to continue.
      312    16012        */
      313    16013        /*E*  ERROR:    XUG-E$XUG#NWALIGNED
      314    16014              MESSAGE0: Work area is not WORD ALIGNED and XUG$INIT can not continue.
      315    16015                        Initialization aborted.
      316    16016        */
      317    16017    2           SEG$ = PINCRC(XUG$, STATIC_SZ) ;
      318    16018    2           CNT = WORK_SZ / 2 ;
      319    16019    2           XUG.PARSEVEC = VECTOR(VEC$BUF) ;
      320    16020    2           SEG$ = PINCRC(SEG$, CNT) ;
      321    16021    2           OFF$ = PALIGNW(SEG$) ;
      322    16022    2           DIFF = POFFC(OFF$, SEG$) ;
      323    16023    2           XUG.RLTVEC = VECTOR(OFF$ -> RLT(0)) ;
      324    16024    2           VBOUND(XUG.RLTVEC) = RLT_SZ - 1 ;
      325    16025    2           CNT = CNT - DIFF ;
      326    16026    2           WORK_SZ = CNT ;
      327    16027    2           XUG.RLTCNT = XUG_INIT.INIT_NRECS# ;
PL6.E3A0      #001=XUG$COMMON File=XUG$COMMON.:E05TSI                            WED 07/30/97 09:17 Page:12
      328    16028    2           XUG.NLINES = 0 ;
      329    16029    2           CNT = WORK_SZ - 4 ;
      330    16030    2           SEG$ = PINCRC(VBASE(XUG.RLTVEC), RLT_SZ + 4) ;
      331    16031    2           OFF$ = PALIGNW(SEG$) ;
      332    16032    2           DIFF = POFFC(OFF$, SEG$) ;
      333    16033    2           CNT = CNT - DIFF ;
      334    16034    2           CNT = CNT - MOD(CNT, 8) ;
      335    16035    2           XUG.BUFVEC = VECTOR (VEC$BUF) ;
      336    16036    2       END;
      337    16037    1       XUG$ = GETCMD.WORK$ ;
      338    16038    1       VBASE(XUG.RLTVEC) -> RLT = '0'B ;
      339    16039    1       XUG.POFF = 1;
      340    16040    1       XUG.PROMPT_VFC = %NO#;
      341    16041    1       XUG.PROMPT = '*';
      342    16042    1       XUG.REQ_PROMPT = XUG_INIT.REQ_PROMPT# ;
      343    16043    1       XUG.SYNTAX = XUG_INIT.SYNTAX#;
      344    16044    1       XUG.PREPROCESS = XUG_INIT.PREPROCESS#;
      345    16045    1       XUG.ABORT = XUG_INIT.ABORT$;
      346    16046    1       XUG.CONTINUE = XUG_INIT.CONTINUE$;
      347    16047    1       XUG.BRKMSG = XUG_INIT.BRKMSG$;
      348    16048    1       XUG.PREPROCESSOR$$ = XUG_INIT.PREPROCESSOR$$;
      349    16049    1       XUG.SPHANDLE = XUG_INIT.SPHANDLE$ ;
      350    16050    1       XUG.PRE_EXEC = XUG_INIT.PRE_EXEC$$ ;
      351    16051    1       XUG.POST_EXEC = XUG_INIT.POST_EXEC$$ ;
      352    16052    1       XUG.MOREMEM = XUG_INIT.MOREMEM$$ ;
      353    16053    1       XUG.XUH_PARAM = XUH_PARAM_C ;
      354    16054    1       XUG.XUH_PARAM.PROCACCT_ = XUG_INIT.PROCACCT_ ;
      355    16055    1       XUG.XUH_PARAM.PROCNAME_ = XUG_INIT.PROCNAME_ ;
      356    16056    1       XUG.ERRDCB = DCBNUM(NIL);
      357    16057    1       XUG.PPCB$ = XUG_INIT.PPCB$;
      358    16058    1       XUG.PP_PROCNAME_ = XUG_INIT.PP_PROCNAME_ ;
      359    16059    1       XUG.PP_DCB = XUG_INIT.PP_DCB#;
      360    16060    1       XUG.ADDL_RLTCNT = XUG_INIT.ADDL_NRECS# ;
      361    16061    1       XUG.CMDSZ = XUG_INIT.CMDSZ# ;
      362    16062    1       XUG.COMMANDS = XUG_INIT.COMMANDS# ;
      363    16063    1       XUG.INHIBITS = XUG_INIT.INHIBITS;
      364    16064    1       XUG.NO_DOWNGRADE = XUG_INIT.NO_DOWNGRADE#;
PL6.E3A0      #001=XUG$COMMON File=XUG$COMMON.:E05TSI                            WED 07/30/97 09:17 Page:13
      365    16065    1       XUG.DONT_REREAD_CCBUF = XUG_INIT.DONT_REREAD_CCBUF#;
      366    16066    1       XUG.DONT_STRIP_PROMPT = XUG_INIT.DONT_STRIP_PROMPT#;
      367    16067    1       XUG.GOODCMD = XUG_INIT.GOODCMD# ;
      368    16068    1       IF ENTADDR(XUS$CORRECT_SPELLING) ~= ENTADDR(NIL)
      369    16069    1       THEN
      370    16070    1           XUG.SPELLING = XUG_INIT.SPELLING#;
      371    16071    1       IF XUG_INIT.PCB$ = ADDR(NIL)
      372    16072    2       THEN DO;
      373    16073    2           P_PCB$ = PINCRW(XUG$, SIZEW(XUG));
      374    16074    2           P_PCB = P_PCB_C;
      375    16075    2           XUG.P_PCB$ = P_PCB$ ;
      376    16076    2       END;
      377    16077    1       ELSE
      378    16078    1           XUG.P_PCB$ = XUG_INIT.PCB$;
      379    16079    1       XUG.ADAPT$$ = XUG_INIT.ADAPT$$;
      380    16080    1       SEG$ = GETCMD.XT_PARAM$;
      381    16081    1       IF RSEG = '0'B
      382    16082    1       THEN
      383    16083    1           GETCMD.XT_PARAM$ = ADDR(NIL);
      384    16084    1       GETCMD.PCB$ = XUG.P_PCB$;
      385    16085    1       GETCMD.ECHO = XUG_INIT.ECHO#;
      386    16086    1       GETCMD.PASS = XUG_INIT.PASS#;
      387    16087    1       GETCMD.ALWAYS_SET_PROMPT# = XUG_INIT.ALWAYS_SET_PROMPT#;
      388    16088    1       GETCMD.PP_ROOT$ = XUG_INIT.PP_ROOT$;
      389    16089    1       XUG_INIT.PARAMS$ = XUG$;
      390    16090    1       XUG.FILENAME.C = 0 ;
      391    16091    1       XUG.FILENAME.TX = ' ' ;
      392    16092    1       XUG.FILEACCT = ' ' ;
      393    16093    1       XUG.FILEPASS = ' ' ;
      394    16094    1       XUG.F1SAVE = VECTOR(NIL);
      395    16095    1       XUG.F2SAVE = VECTOR(NIL);
      396    16096    1       XUG.F3SAVE = VECTOR(NIL);
      397    16097    1       RETURN;
      398    16098        /**/
      399    16099        %EJECT ;
PL6.E3A0      #001=XUG$COMMON File=XUG$COMMON.:E05TSI                            WED 07/30/97 09:17 Page:14
      400    16100    1   XUG$MOREMEM: ENTRY(GETCMD) ALTRET;
      401    16101    1       XUG$ = GETCMD.WORK$ ;
      402    16102    1       IF XUG.XUG_OWNS_MEMORY
      403    16103    2       THEN DO ;
      404    16104    2           FPT_GDS = FPT_GDS_C ;
      405    16105    2           FPT_GDS.V_ = VECTOR(FPT_GDS.V) ;
      406    16106    2           FPT_GDS.RESULTS_ = VECTOR(XUG.GDSVEC) ;
      407    16107    2           CALL M$GDS (FPT_GDS) ALTRET (CANT_EXPAND_SEGMENT);
      408    16108    2       END ;                        /* Then Do */
      409    16109    1       ELSE
      410    16110    1           IF XUG.MOREMEM = ENTADDR(NIL)
      411    16111    2           THEN DO;
      412    16112    2               GETCMD.ERR# = XUG#CANTEXPAND;
      413    16113        /*E*  ERROR:   XUG-E$XUG#CANTEXPAND
      414    16114              MESSAGE: Can't expand the GETCMD work area.
      415    16115              MESSAGE1: GETCMD cannot expand its work area;  the work area was provided
      416    16116                       by the program that calls GETCMD, and the program did not
      417    16117                       supply a routine that can expand the work area.
      418    16118        */
      419    16119    2               GOTO CANT_EXPAND_SEGMENT;
      420    16120    2           END;
      421    16121    2           ELSE DO;
      422    16122    2               CALL XUG.MOREMEM(%GDSSIZ,USER_GDSVEC,TEMP_ERR) WHENALTRETURN
      423    16123    3               DO ;
      424    16124    3                   GETCMD.ERR# = TEMP_ERR ;
      425    16125    3                   GOTO CANT_EXPAND_SEGMENT ;
      426    16126    3               END ;                  /* Whenaltreturn */
      427    16127    2               DUMMY$ = PINCRC(VBASE(XUG.GDSVEC), VBOUND(XUG.GDSVEC)+1) ;
      428    16128    2               IF DUMMY$ ~= VBASE(USER_GDSVEC)
      429    16129    2               THEN
      430    16130    3               DO ;
      431    16131    3                   GETCMD.ERR# = XUG#NOTCONTIGAREA ;
      432    16132    3                   GETCMD.PCB$->P_PCB.HI_CHAR = 0 ;
      433    16133    3                   GOTO CANT_EXPAND_SEGMENT ;
      434    16134    3               END ;                  /* Then Do */
      435    16135        /*E*   ERROR:   XUG-E$XUG#NOTCONTIGAREA
      436    16136               MESSAGE: Not a contiguous work area.
PL6.E3A0      #001=XUG$COMMON File=XUG$COMMON.:E05TSI                            WED 07/30/97 09:17 Page:15
      437    16137               MESSAGE1: The data expansion received from the user program is
      438    16138                          not contiguous with the present work area.
      439    16139        */
      440    16140    2               IF VBOUND(USER_GDSVEC)+1 ~= %GDSSIZ*4
      441    16141    2               THEN
      442    16142    3               DO ;
      443    16143    3                   GETCMD.ERR# = XUG#AREANOTRTSZ ;
      444    16144    3                   GOTO CANT_EXPAND_SEGMENT ;
      445    16145    3               END ;                  /* Then Do */
      446    16146        /*E*   ERROR:   XUG-E$XUG#AREANOTRTSZ
      447    16147               MESSAGE: Data area not the right size.
      448    16148               MESSAGE1: The data expansion received from the user program is
      449    16149                          not the amount that XUG$GETCMD requested.
      450    16150        */
      451    16151    2               VBOUND(XUG.GDSVEC) = VBOUND(XUG.GDSVEC) + %GDSSIZ*4 ;
      452    16152    2           END ;                     /* Then Do */
      453    16153        /*
      454    16154           If memory has been allocated for ADAPT at the top of the segment, move
      455    16155           its data up to the new top of the segment.
      456    16156        */
      457    16157    1       XT$ = GETCMD.XT_PARAM$;
      458    16158    1       IF XT$ ~= ADDR(NIL)
      459    16159    1         AND XT_PARAM.WS$ ~= ADDR(NIL)
      460    16160    2       THEN DO;
      461    16161    2           XT_ = XUG.BUFVEC;
      462    16162    2           VBASE(XT_) = XT_PARAM.WS$;
      463    16163    2           VBOUND(XT_) = XT_PARAM.WS_SIZE * 4 - 1;
      464    16164    2           CALL MOVER (XT_, %GDSSIZ, 0);
      465    16165    2           XT_PARAM.WS$ = VBASE(XT_);
      466    16166    2       END;
      467    16167        /*
      468    16168           Expand the RLT.
      469    16169        */
      470    16170    1       RLT_SZ = (XUG.ADDL_RLTCNT * SIZEC(RLT(0))) ;
      471    16171    1       IF MOD(RLT_SZ,8) ~= 0
      472    16172    1       THEN RLT_SZ = RLT_SZ + (8 - MOD(RLT_SZ, 8)) ;
      473    16173        /*
PL6.E3A0      #001=XUG$COMMON File=XUG$COMMON.:E05TSI                            WED 07/30/97 09:17 Page:16
      474    16174           Move the input buffer upwards, and adjust the read vector also.
      475    16175        */
      476    16176    1       WOFF = RLT_SZ / 4 + %EXPND_PARSEWK/4 ;
      477    16177    1       WBUFSZ = %GDSSIZ - WOFF ;
      478    16178    1       CALL MOVER (XUG.BUFVEC, WOFF, WBUFSZ) ;
      479    16179    1       VBASE(XUG.READVEC) = PINCRW(VBASE(XUG.READVEC),WOFF) ;
      480    16180    1       VBOUND(XUG.READVEC) = VBOUND(XUG.READVEC) + (WBUFSZ * 4) ;
      481    16181    1       VBASE(XUG.LAST) = PINCRW(VBASE(XUG.LAST), WOFF) ;
      482    16182        /*
      483    16183           Move the RLT upwards.  Expand the parse area to fill the new area at
      484    16184           the base of the non-static portion of the segment (no need to move data).
      485    16185        */
      486    16186    1       WOFF = %EXPND_PARSEWK/4 ;
      487    16187    1       WBUFSZ = RLT_SZ / 4 ;
      488    16188    1       CALL MOVER(XUG.RLTVEC, WOFF, WBUFSZ) ;
      489    16189    1       XUG.RLTCNT = XUG.RLTCNT + XUG.ADDL_RLTCNT ;
      490    16190    1       VBOUND(XUG.PARSEVEC) = VBOUND(XUG.PARSEVEC) + %EXPND_PARSEWK ;
      491    16191
      492    16192    1       RETURN ;
      493    16193
      494    16194    1   CANT_EXPAND_SEGMENT:
      495    16195
      496    16196    1       ALTRETURN;
      497    16197
      498    16198        %EJECT ;
PL6.E3A0      #001=XUG$COMMON File=XUG$COMMON.:E05TSI                            WED 07/30/97 09:17 Page:17
      499    16199    1   XUG$GETCMD_COMMON: ENTRY (GETCMD) ALTRET;
      500    16200    1       IF GETCMD.WORK$ = ADDR(NIL)
      501    16201    2       THEN DO;
      502    16202    2           XUG_INIT_A = XUG_INIT_C ;
      503    16203    2           CALL XUG$INIT_COMMON(GETCMD, XUG_INIT_A)
      504    16204    3           WHENALTRETURN DO;
      505    16205    3               ALTRETURN;
      506    16206    3           END;
      507    16207    2       END ; /* Then Do */
      508    16208    1       XUG$ = GETCMD.WORK$ ;
      509    16209    1       P_PCB$ = XUG.P_PCB$ ;
      510    16210    1       IF GETCMD.NODES$ ~= ADDR(NIL)
      511    16211    1       THEN
      512    16212    1           IF GETCMD.NODES$ -> P$NODE.TYPE = 0
      513    16213    2           THEN DO;
      514    16214    2               GETCMD.ERR# = XUG#PRE_C00;
      515    16215        /*E*     ERROR:   XUG-E$PCB_PRE_C00
      516    16216                 MESSAGE: Parse control block is pre-C00;  cannot parse.
      517    16217                 MESSAGE1: The parse nodes passed to XUG$GETCMD or XUR$GETCMD appear
      518    16218                          to be of pre-C00 vintage.  The format of X$PARSE nodes
      519    16219                          (produced by PARTRGE) was changed substantially for the
      520    16220                          C00 version of CP-6, and pre-C00 nodes/PCBs/PARSE$BLKs
      521    16221                          (etc.) are not compatible with this parser.  Your program
      522    16222                          must be updated if you wish to run it on a D00 (or later)
      523    16223                          version of CP-6.  This will require:
      524    16224
      525    16225                          1) Recompiling all PL-6 routines that use any of the parser's
      526    16226                             data structures;
      527    16227
      528    16228                          2) Re-PARTRGEing all of the program's parse nodes;  and
      529    16229
      530    16230                          3) Re-LINKing the run unit.
      531    16231
      532    16232                          Please see the "CP-6 C00 System Release Bulletin", or the
      533    16233                          Host Library Services manual (CE71) for the necessary
      534    16234                          information and procedures.
      535    16235        */
PL6.E3A0      #001=XUG$COMMON File=XUG$COMMON.:E05TSI                            WED 07/30/97 09:17 Page:18
      536    16236    2               ALTRETURN;
      537    16237    2           END;
      538    16238    1       XUG.USER$ = P_PCB.USER$ ;
      539    16239    1       P_PCB.USER$ = ADDR(GETCMD) ;
      540    16240    1       SAVE_PROMPT_ = GETCMD.PROMPT_;
      541    16241    1       SAVE_RPROMPT_ = GETCMD.RPROMPT_;
      542    16242    1       SAVE_PROMPT_VFC = GETCMD.PROMPT_VFC#;
      543    16243    1       REMEMBER PARSEALT IN XUG.REM_PARSE;
      544    16244
      545    16245    1   GETCMD:
      546    16246    1       GETCMD.PROMPT_ = SAVE_PROMPT_;
      547    16247    1       GETCMD.RPROMPT_ = SAVE_RPROMPT_;
      548    16248    1       GETCMD.PROMPT_VFC# = SAVE_PROMPT_VFC;
      549    16249    1       XUG.NLINES=0;
      550    16250    2       IF GETCMD.INDCB#=DCBNUM(NIL) THEN DO;
      551    16251    2           CALL XUG$GETDCB_COMMON(M$SI,GETCMD.INDCB#) ALTRET(MALT);
      552    16252    2       END;
      553    16253    2       IF GETCMD.OUTDCB#=DCBNUM(NIL) THEN DO;
      554    16254    2           CALL XUG$GETDCB_COMMON(M$LO,GETCMD.OUTDCB#) ALTRET(MALT);
      555    16255    2       END;
      556    16256    1       GETCMD.DCB_PARAM# = GETCMD.OUTDCB# ;
      557    16257    1       P_PCB.OUTDCB# = GETCMD.OUTDCB# ;
      558    16258    1       XUG.DCBS = '0'B;
      559    16259    1       XUG.DCBS.NUM(0)=GETCMD.INDCB#;
      560    16260    1       XUG.DCBS.NUM(1)=GETCMD.OUTDCB#;
      561    16261    1       XUG.DCBS.ERRPTR_CPOS(0) = -1 ;
      562    16262    1       XUG.NDCBS=0;
      563    16263    1       CALL XUG$SETPROMPT (GETCMD) ALTRET(MALT) ;
      564    16264    1       IF GETCMD.SFROUTINE$=ENTADDR(NIL) THEN XUG.SFROUTINE=ENTADDR(NIL);
      565    16265    1       ELSE XUG.SFROUTINE=GETCMD.SFROUTINE$ ;
      566    16266    1       XUG.READVEC=XUG.BUFVEC;
      567    16267    1       XUG.CPOS=0;
      568    16268    1       XUG.CCBUF_OFFC = 0 ;
      569    16269    1       XUG.PP_ERR = '0'B;
      570    16270    1       XUG.FIRST_ERROR = %NO#;
      571    16271    1       GETCMD.EOMCHAR# = %EOM_EOR#;
      572    16272    1       GETCMD.CONTINUED# = %NO# ;
PL6.E3A0      #001=XUG$COMMON File=XUG$COMMON.:E05TSI                            WED 07/30/97 09:17 Page:19
      573    16273    1       GETCMD.RCVD_PROMPT# = %NO# ;
      574    16274    1       GETCMD.ERR# = '0'B ;
      575    16275    1       IF XUG.SYNERR
      576    16276    1       THEN
      577    16277    1           TWOCHARS=SUBSTR(VBASE(XUG.BUFVEC)->INBUF,0,2);
      578    16278    1       IF GETCMD.TEXT_=VECTOR(NIL) THEN
      579    16279    2           IF XUG.GOTCMD THEN DO;
      580    16280    2               XUG.GOTCMD='0'B;
      581    16281    2               ARS = XUG.BRKARS;
      582    16282    2               GETCMD.EOMCHAR# = XUG.GOTCMD_EOMCHAR;
      583    16283    2               XUG.BRKARS = 0;
      584    16284    2               IF (NOT GETCMD.SKIP_PREPROCESS#) AND XUG.PREPROCESS
      585    16285    3               THEN DO;
      586    16286    3                   IF XUG.PREPROCESSOR$$ ~= ENTADDR(NIL)
      587    16287    4                   THEN DO;
      588    16288    4                       CALL XUG$PRE_PROCESSOR (GETCMD,ARS);
      589    16289    4                       CALL X66_REL_AUTO;
      590    16290    4                   END;
      591    16291    3                   ELSE
      592    16292    3                       CALL XUG$PP_CMDVARS (GETCMD,ARS);
      593    16293    3               END;
      594    16294    2               ELSE
      595    16295    2                   GETCMD.SKIP_PREPROCESS# = '0'B ;
      596    16296    2               VBOUND(XUG.READVEC) = ARS - 1;
      597    16297    2               CALL XUG$SETLAST(GETCMD);
      598    16298    2               GETCMD.TREAD# = %YES# ;
      599    16299    2               IF NOT (DCBADDR(GETCMD.OUTDCB#)-> F$DCB.DDEV.UCOUT# OR
      600    16300    2                 DCBADDR(DCBNUM(M$UC)) -> F$DCB.DVBYTE.TRANS#)
      601    16301    2               THEN
      602    16302    2                   CALL XUG$ECHOLAST_COMMON (GETCMD);
      603    16303    2               XUG.DCBS.NUM(0)=DCBNUM(M$UC);
      604    16304    2           END;
      605    16305    2           ELSE DO;
      606    16306    2               CALL XUG$DISABLE_COMMON(GETCMD);
      607    16307    2               CALL XUG$READCMD_COMMON(GETCMD,XUG.READVEC,ARS) ALTRET(RDALT1);
      608    16308    3               DO WHILE XUG.SYNERR;
      609    16309    4                   IF ARS=1 AND SUBSTR(VBASE(XUG.BUFVEC)->INBUF,0,1)='?' THEN DO;
PL6.E3A0      #001=XUG$COMMON File=XUG$COMMON.:E05TSI                            WED 07/30/97 09:17 Page:20
      610    16310    4   SHOW_ALTRN:
      611    16311    4                       IF XUG.PRE_EXEC ~= ENTADDR(NIL)
      612    16312    4                       THEN
      613    16313    4                           CALL XUG.PRE_EXEC (GETCMD, %XUG_CMD_Q1);
      614    16314    4                       CALL INSERT(VBASE(XUG.BUFVEC)->INBUF,0,2,TWOCHARS);
      615    16315    4                       IF XUG.DOCMD_SYNERR
      616    16316    4                       THEN
      617    16317    4                           GOTO NORMAL_PARSE ;
      618    16318    4                       IF XUG.NEED_ECHO AND GETCMD.TEXT_ = VECTOR(NIL)
      619    16319    5                       THEN DO;
      620    16320    5                           XUG.NLINES = 1 ;
      621    16321    5                           VBASE(XUG.RLTVEC)->RLT(1) = 1 ;
      622    16322    5                           SUBSTR(VBASE(XUG.BUFVEC)->INBUF,0,1) = '?' ;
      623    16323    5                           CALL XUG$ECHO_COMMON(GETCMD) ;
      624    16324    5                           SUBSTR(VBASE(XUG.BUFVEC)->INBUF,0,1) = SUBSTR(TWOCHARS,0,1)
             16324                                    ;
      625    16325    5                       END;
      626    16326    4   ALT_OUT:            P_PCB.NXT = '1'B;
      627    16327    4                       IF GETCMD.SYNERR_NODES$ ~= ADDR(NIL)
      628    16328    4                       THEN
      629    16329    4                           P_PCB.ROOT$ = GETCMD.SYNERR_NODES$;
      630    16330    4                       P_PCB.USER$ = ADDR(GETCMD) ;
      631    16331    4                       IF XUG.SPELLING AND NOT XUG.SPELLING_TRIED
      632    16332    4                       THEN
      633    16333    4                           CALL SPELLING_CHECKER (%NO#) ALTRET (READ_ANOTHER);
      634    16334    4                       XUG.SYNERR = %NO#;
      635    16335    4                       GETCMD.ERR_CODE = XUG#LEGAL_INPUT_HERE;
      636    16336    4                       CALL XUG$ERRMSG_COMMON (GETCMD);
      637    16337        /*E*  ERROR:   XUG-E$XUG#LEGAL_INPUT_HERE
      638    16338              MESSAGE0:Legal input at the point of error could be any of the following:
      639    16339        */
      640    16340    4                       CALL REPORT_ALTERNATIVES;
      641    16341    4   READ_ANOTHER:       IF XUG.POST_EXEC ~= ENTADDR(NIL)
      642    16342    4                       THEN
      643    16343    4                           CALL XUG.POST_EXEC (GETCMD, %XUG_CMD_Q1);
      644    16344    4                       P_PCB.USER$ = XUG.USER$ ;
      645    16345    4                       P_PCB.NXT='0'B;
PL6.E3A0      #001=XUG$COMMON File=XUG$COMMON.:E05TSI                            WED 07/30/97 09:17 Page:21
      646    16346    4                       IF GETCMD.TEXT_ = VECTOR(NIL)
      647    16347    5                       THEN DO;
      648    16348    5                           GETCMD.CONTINUED# = %NO#;
      649    16349    5                           GETCMD.RCVD_PROMPT# = %NO#;
      650    16350    5                           CALL XUG$READCMD_COMMON(GETCMD,XUG.READVEC,ARS)
      651    16351    5                             ALTRET(RDALT1);
      652    16352    5                       END;
      653    16353    5                       ELSE DO;
      654    16354    5                           IF GETCMD.ERR# = '0'B
      655    16355    6                           THEN DO;
      656    16356    6                               GETCMD.OUT$ = ADDR(NIL) ;
      657    16357    6                               GOTO GETCMD_RET ;
      658    16358    6                           END;
      659    16359    5                           GOTO GETCMD_ALT1 ;
      660    16360    5                       END;
      661    16361    4                   END;
      662    16362    3                   ELSE
      663    16363    3                       XUG.SYNERR = %NO#;
      664    16364    3               END;
      665    16365    2               CALL XUG$CLRENABLE_COMMON(GETCMD) ;
      666    16366    2           END;
      667    16367    2       ELSE DO;
      668    16368    2           J = 0;
      669    16369    2           IF VBASE(GETCMD.TEXT_) = ADDR(NIL) /* eg, VECTOR(ERASE) */
      670    16370    3           THEN DO;
      671    16371    3               CSIZE = 0;
      672    16372    3               TEXT$ = ADDR(XUG.BUF);
      673    16373    3           END;
      674    16374    3           ELSE DO;
      675    16375    3               CSIZE=VBOUND(GETCMD.TEXT_)+1 ;
      676    16376    3               IF CSIZE > XUG.CMDSZ
      677    16377    4               THEN DO;
      678    16378    4                   GETCMD.ERR# = XUG#LINETOOLONG;
      679    16379    4                   GOTO GETCMD_ALT;
      680    16380    4               END;
      681    16381        /*E* ERROR: XUG-E$XUG#LINETOOLONG
      682    16382             MESSAGE: Command line is too long.
PL6.E3A0      #001=XUG$COMMON File=XUG$COMMON.:E05TSI                            WED 07/30/97 09:17 Page:22
      683    16383        */
      684    16384    3               SEG$ = VBASE( GETCMD.TEXT_ );
      685    16385    3               IF RSEG.SID = %JITSID
      686    16386    3                 AND SEG$ > ADDR( B$JIT.CCBUF )
      687    16387    3                 AND SEG$ < PINCRC( ADDR( B$JIT.CCBUF ), SIZEC( B$JIT.CCBUF ))
      688    16388    4               THEN DO;
      689    16389    4                   XUG.CCBUF_OFFC = POFFC( SEG$ , ADDR( B$JIT.CCBUF ));
      690    16390    4                   XUG.CCBUF_REST = B$JIT.CCARS - XUG.CCBUF_OFFC -
      691    16391    4                     VBOUND( GETCMD.TEXT_ ) - 1 ;
      692    16392    4               END;
      693    16393    3               IF (NOT GETCMD.SKIP_PREPROCESS#) AND XUG.PREPROCESS
      694    16394    4               THEN DO;
      695    16395    4                   XUG.BUF = VBASE(GETCMD.TEXT_)->CHARBASE ;
      696    16396    4                   IF XUG.PREPROCESSOR$$ ~= ENTADDR(NIL)
      697    16397    5                   THEN DO;
      698    16398    5                       CALL XUG$PRE_PROCESSOR (GETCMD, CSIZE) ;
      699    16399    5                       CALL X66_REL_AUTO;
      700    16400    5                   END;
      701    16401    4                   ELSE
      702    16402    4                       CALL XUG$PP_CMDVARS (GETCMD, CSIZE) ;
      703    16403    4                   TEXT$ = ADDR(XUG.BUF);
      704    16404    4               END ;
      705    16405    4               ELSE DO;
      706    16406    4   DONT_PRE_PROC:
      707    16407    4                   GETCMD.SKIP_PREPROCESS# = '0'B ;
      708    16408    4                   TEXT$ = VBASE(GETCMD.TEXT_);
      709    16409    4               END;
      710    16410    3           END ;
      711    16411    2           IF CSIZE>=XUG.POFF AND
      712    16412    2             SUBSTR(TEXT$->CHARBASE,0,XUG.POFF) =
      713    16413    2             SUBSTR(XUG.PROMPT,BITBIN(XUG.PROMPT_VFC),XUG.POFF)
      714    16414    2             AND NOT XUG.DONT_STRIP_PROMPT
      715    16415    3           THEN DO ;
      716    16416    3               J = XUG.POFF ;
      717    16417    3               GETCMD.RCVD_PROMPT# = '1'B ;
      718    16418    3           END;
      719    16419    2           VBOUND(XUG.READVEC)=MAXIMUM(CSIZE-J,1)-1;
PL6.E3A0      #001=XUG$COMMON File=XUG$COMMON.:E05TSI                            WED 07/30/97 09:17 Page:23
      720    16420    2           VBASE(XUG.READVEC)->CHARBASE = SUBSTR(TEXT$->CHARBASE,J);
      721    16421    2           CALL XUG$SETLAST(GETCMD);
      722    16422    2           ARS = CSIZE - J;
      723    16423    2           IF GETCMD.NODES$ = ADDR(NIL)
      724    16424    3           THEN DO;
      725    16425    3               GETCMD.OUT$ = ADDR(NIL);
      726    16426    3               P_PCB.NCHARS = ARS;
      727    16427    3               GOTO GETCMD_RET;
      728    16428    3           END;
      729    16429    2           IF XUG.SYNERR AND ARS=1 AND SUBSTR(VBASE(XUG.READVEC)->INBUF,0,1)='?'
      730    16430    2           THEN
      731    16431    2               GOTO SHOW_ALTRN ;
      732    16432    2           XUG.SYNERR = %NO# ;
      733    16433    2       END;
      734    16434    1       XUG.PREV_CPOS = 0 ;
      735    16435    1       VBASE(XUG.RLTVEC)->RLT(0) = 0 ;
      736    16436    1       XUG.NLINES=1;
      737    16437    1       VBASE(XUG.RLTVEC)->RLT(1)=ARS;
      738    16438    1       IF XUG.PP_ERR
      739    16439    2       THEN DO;
      740    16440    2           GETCMD.ERR# = XUG.PP_ERR;
      741    16441    2           P_PCB.NCHARS = ARS ;
      742    16442    2           IF XUG.GOODCMD
      743    16443    2           THEN
      744    16444    2               GOTO ERRHAND;
      745    16445    2           ELSE
      746    16446    2               GOTO GETCMD_ALT;
      747    16447    2       END;
      748    16448    1   REPARSE:
      749    16449    1       P_PCB.TEXT$=VBASE(XUG.BUFVEC) ;
      750    16450    1       IF GETCMD.NODES$ = ADDR(NIL)
      751    16451    2       THEN DO;
      752    16452    2           GETCMD.OUT$ = ADDR(NIL);
      753    16453    2           GETCMD.ERR# = XUG#NULLROOT;
      754    16454        /*E*  ERROR:   XUG-E$NULLROOT
      755    16455              MESSAGE: Null syntax tree passed to XUG$GETCMD (or a similar routine).
      756    16456        */
PL6.E3A0      #001=XUG$COMMON File=XUG$COMMON.:E05TSI                            WED 07/30/97 09:17 Page:24
      757    16457    2           GOTO GETCMD_ALT;
      758    16458    2       END;
      759    16459    1       IF XUG.COMMANDS
      760    16460    2       THEN DO;
      761    16461    2           NODES$ = ADDR(XUG_NODES) ;
      762    16462    2           ROOT$ = ADDR(XUG.ROOT_NODE) ;
      763    16463    2           DUMMY$ = ADDR(XUG.DUMMY_NODE) ;
      764    16464    2           ROOT$->P$NODE = NODES$->P$NODE ;
      765    16465    2           XUG.ROOT_NODE.USER_NODE$ = DUMMY$ ;
      766    16466    2           XUG.ROOT_NODE.GETCMD_NODE$ = NODES$->P$NODE.SUBNDS$(1) ;
      767    16467    2           DUMMY$->P$NODE = NODES$->P$NODE.SUBNDS$(0)->P$NODE ;
      768    16468    2           XUG.DUMMY_NODE.SUBND$ = GETCMD.NODES$ ;
      769    16469    2       END ; /* Then Do */
      770    16470    1       ELSE
      771    16471    1           ROOT$ = GETCMD.NODES$ ;
      772    16472    1       P_PCB.ROOT$=ROOT$ ;
      773    16473    1       P_PCB.WORK$ = VBASE(XUG.PARSEVEC) ;
      774    16474    1       P_PCB.VERSION_CODE = 1;
      775    16475    1       P_PCB.WKSZ = (VBOUND(XUG.PARSEVEC)+1)/4 ;
      776    16476    1       P_PCB.NCHARS = ARS;
      777    16477    1       P_PCB.U$$ = ENTADDR(XUG$PU);
      778    16478    1       P_PCB.DYNMEM = '1'B ;
      779    16479    1       P_PCB.NXT = '0'B;
      780    16480    1       XUG.SPELLING_TRIED = %NO#;
      781    16481    1       XUG.QM_AFTER_SYNERR = '0'B;
      782    16482    1   NORMAL_PARSE:
      783    16483    1       CALL FETCH_HELP_TOPIC;
      784    16484    1       P_PCB.USER$ = ADDR(GETCMD);
      785    16485    1       XUG.PARSING_FREE_CMDS = %NO#;
      786    16486    1       CALL X$PARSE(P_PCB) ALTRET(PARSEALT);
      787    16487    1       IF GETCMD.PASS = %BLANK_PASS# OR (GETCMD.PASS = %MODE_PASS# AND
      788    16488    1         NOT (GETCMD.TREAD# OR DCBADDR(GETCMD.OUTDCB#)
      789    16489    1         ->F$DCB.DDEV.UCOUT#))
      790    16490    1       THEN
      791    16491    1           CALL XUG$BLANK_PASSWORD_COMMON (GETCMD, P_PCB.OUT$->P$B)
      792    16492    1             ALTRET(MALT) ;
      793    16493    1       IF XUG.NEED_ECHO
PL6.E3A0      #001=XUG$COMMON File=XUG$COMMON.:E05TSI                            WED 07/30/97 09:17 Page:25
      794    16494    2       THEN DO;
      795    16495    2           CALL XUG$ECHO_COMMON(GETCMD) ALTRET(MALT) ;
      796    16496    2           XUG.NEED_ECHO = '0'B ;
      797    16497    2       END ;                        /* Then Do */
      798    16498    1       GETCMD.BUF$ = VBASE(XUG.BUFVEC);
      799    16499    1       GETCMD.RLT$ = VBASE(XUG.RLTVEC);
      800    16500    1       GETCMD.NLINES = XUG.NLINES ;
      801    16501    1       IF XUG.COMMANDS
      802    16502    2       THEN DO;
      803    16503    2           J = P_PCB.OUT$->P$B.CODE ;
      804    16504    2           IF P_PCB.OUT$->P$B.NSUBLKS=0
      805    16505    3           THEN DO;
      806    16506    3               P_PCB.OUT$ -> P$B.CODE = 0;
      807    16507    3               P_PCB.OUT$ -> P$B.TEMP = %YES#;
      808    16508    3               P_PCB.OUT$ -> P$B.NDTYPE = 0;
      809    16509    3           END;
      810    16510    2           ELSE IF P_PCB.OUT$->P$B.NSUBLKS = 1 THEN
      811    16511    2                   P_PCB.OUT$ = P_PCB.OUT$ -> P$B.SUBLK$(0) ;
      812    16512    2           GETCMD.OUT$ = P_PCB.OUT$ ;
      813    16513    2           IF J = %XUG_USER_NODES
      814    16514    2           THEN
      815    16515    2               GOTO GETCMD_RET ;
      816    16516    2       END ; /* Then Do */
      817    16517    2       ELSE DO;
      818    16518    2           GETCMD.OUT$ = P_PCB.OUT$ ;
      819    16519    2   GETCMD_RET:
      820    16520    2           P_PCB.USER$ = XUG.USER$ ;
      821    16521    2           RETURN ;
      822    16522    2       END ; /* Else Do */
      823    16523    1       CALL XUG$BUILTIN_COMMON(GETCMD) ALTRET (ERRHAND);
      824    16524    1       IF GETCMD.TEXT_ ~= VECTOR(NIL)
      825    16525    2       THEN DO;
      826    16526    2           GETCMD.OUT$ = ADDR(NIL);
      827    16527    2           GOTO GETCMD_RET;
      828    16528    2       END;
      829    16529    1       GOTO GETCMD ;
      830    16530
PL6.E3A0      #001=XUG$COMMON File=XUG$COMMON.:E05TSI                            WED 07/30/97 09:17 Page:26
      831    16531    1   MALT: GETCMD.ERR#=B$TCB$->B$TCB.ALT$->B$ALT.ERR;
      832    16532    1       GETCMD.ERRDCB# = B$TCB$->B$TCB.ALT$->B$ALT.DCB#;
      833    16533    1       P_PCB.USER$ = XUG.USER$ ;
      834    16534    1       ALTRETURN;
      835    16535    1   PARSEALT:;
      836    16536    1       IF XUG.NEED_ECHO
      837    16537    1       THEN
      838    16538    2       DO ;
      839    16539    2           CALL XUG$ECHO_COMMON(GETCMD) ;
      840    16540    2           XUG.NEED_ECHO = '0'B ;
      841    16541    2       END ;                        /* Then Do */
      842    16542    1       GETCMD.BUF$ = VBASE(XUG.BUFVEC);
      843    16543    1       GETCMD.RLT$ = VBASE(XUG.RLTVEC);
      844    16544    1       GETCMD.NLINES = XUG.NLINES ;
      845    16545    1       P_PCB.USER$ = XUG.USER$ ;
      846    16546    1       ARS = P_PCB.NCHARS;
      847    16547    2       IF XUG.SYNTAX THEN DO;
      848    16548    3           IF NOT P_PCB.ERROR.MON AND P_PCB.ERROR.CODE=%E$SYNERR THEN DO;
      849    16549    3               I = P_PCB.HI_CHAR ;
      850    16550    3               J = I;
      851    16551    3               IF I > 0 AND I = ARS
      852    16552    3                 AND SUBSTR (VBASE(XUG.BUFVEC) -> INBUF, I-1, 1) = '?'
      853    16553    4               THEN DO;
      854    16554    4                   I = I - 1;
      855    16555    4                   P_PCB.HI_CHAR = I;
      856    16556    4               END;
      857    16557    3               XUG.SYNERR = %YES# ;
      858    16558    3               XUG.POINTED_TO_SYNERR = %NO# ;
      859    16559    3               GETCMD.SYNERR_NODES$ = P_PCB.ROOT$;
      860    16560    3               IF ARS > 0 AND I < ARS AND
      861    16561    3                 ((XUG.SPELLING AND NOT XUG.SPELLING_TRIED) OR
      862    16562    3                 SUBSTR(VBASE(XUG.BUFVEC) -> INBUF, I, 1) = '?')
      863    16563    4               THEN GIVE_ALTERNATIVES: DO;
      864    16564    4                   P_PCB.USER$ = ADDR(GETCMD) ;
      865    16565    4                   P_PCB.NXT = '1'B;
      866    16566    4                   IF XUG.SPELLING AND NOT XUG.SPELLING_TRIED
      867    16567    4                   THEN
PL6.E3A0      #001=XUG$COMMON File=XUG$COMMON.:E05TSI                            WED 07/30/97 09:17 Page:27
      868    16568    4                       CALL SPELLING_CHECKER (%YES#)
      869    16569    5                       WHENALTRETURN DO;
      870    16570    5                           P_PCB.HI_CHAR = J;
      871    16571    5                           GOTO RESTORE_USER$;
      872    16572    5                       END;
      873    16573    4                   IF SUBSTR(VBASE(XUG.BUFVEC) -> INBUF, I, 1) ~= '?'
      874    16574    5                   THEN DO;
      875    16575    5                       P_PCB.HI_CHAR = J;
      876    16576    5                       EXIT GIVE_ALTERNATIVES;
      877    16577    5                   END;
      878    16578    4                   XUG.SYNERR = '0'B;
      879    16579    4                   IF B$JIT.PRFLAGS.EXPOUND
      880    16580    5                   THEN DO;
      881    16581    5                       GETCMD.ERR_CODE = XUG#LEGAL_INPUT_QM;
      882    16582    5                       CALL XUG$ERRMSG_COMMON (GETCMD);
      883    16583    5                   END;
      884    16584        /*E*  ERROR:   XUG-E$XUG#LEGAL_INPUT_QM
      885    16585              MESSAGE0:Legal input at this point could be any of the following:
      886    16586        */
      887    16587    4                   CALL REPORT_ALTERNATIVES;
      888    16588    4                   P_PCB.HI_CHAR = J;
      889    16589    4   RESTORE_USER$:  P_PCB.USER$ = XUG.USER$ ;
      890    16590    4                   P_PCB.NXT='0'B;
      891    16591    4                   XUG.QM_AFTER_SYNERR = '1'B;
      892    16592    4                   IF GETCMD.TEXT_ = VECTOR(NIL)
      893    16593    4                   THEN
      894    16594    4                       GOTO GETCMD;   /* Bletch! */
      895    16595    4               END GIVE_ALTERNATIVES;
      896    16596    3               P_PCB.ERROR.MID='07'O;
      897    16597    3           END;
      898    16598        /*E*    ERROR:   XUG-E$SYNERR
      899    16599                MESSAGE: Your command was not processed because it contains something
      900    16600                         unexpected (a mis-spelled word, incorrect punctuation, or some
      901    16601                         other input which does not match this program's requirements).
      902    16602                         You may obtain a brief description of the expected input by
      903    16603                         entering as much of the command as you are sure of, followed
      904    16604                         by a single "?".
PL6.E3A0      #001=XUG$COMMON File=XUG$COMMON.:E05TSI                            WED 07/30/97 09:17 Page:28
      905    16605                                                                           */
      906    16606    2       END;
      907    16607    1       GETCMD.ERR#=P_PCB.ERROR;
      908    16608
      909    16609    1       IF XUG.GOODCMD AND NOT P_PCB.ERROR.MON
      910    16610    2       THEN DO;
      911    16611    2   ERRHAND:
      912    16612    2           GETCMD.ERR_CODE = GETCMD.ERR# ;
      913    16613    2           GETCMD.F1_ = VECTOR(NIL) ;
      914    16614    2           GETCMD.F2_ = VECTOR(NIL) ;
      915    16615    2           GETCMD.F3_ = VECTOR(NIL) ;
      916    16616    2           IF B$JIT.PRFLAGS.POINT OR XUG.NLINES > 1
      917    16617    2           THEN
      918    16618    2               CALL XUG$ECHOIF_COMMON(GETCMD) ;
      919    16619    2           CALL XUG$ERRPTR_COMMON(GETCMD) ALTRET(GETCMD_ALT1) ;
      920    16620    2           CALL XUG$ERRMSG_COMMON (GETCMD);
      921    16621    2           IF GETCMD.TEXT_ = VECTOR(NIL)
      922    16622    2           THEN
      923    16623    2               IF B$JIT.MODE = %M_INT# AND B$JIT.NEXTCC = %CC_FROMUC#
      924    16624    2               THEN
      925    16625    2                   GOTO GETCMD ;
      926    16626    2               ELSE ;
      927    16627    2           ELSE
      928    16628    2               IF B$JIT.PRFLAGS.EXPOUND AND GETCMD.TREAD# AND NOT XUG.QM_AFTER_SYNERR
      929    16629    2               THEN
      930    16630    2                   GOTO ALT_OUT;
      931    16631    2       END ;                        /* Then Do */
      932    16632    1       GOTO GETCMD_ALT1 ;
      933    16633    1   GETCMD_ALT:
      934    16634    1       XUG.DIVERT_TO_HELP = %NO# ;
      935    16635    1   GETCMD_ALT1:
      936    16636    1       P_PCB.USER$ = XUG.USER$;
      937    16637    1       ALTRETURN;
      938    16638    1   RDALT1:
      939    16639    1       GETCMD.ERR#=BINBIT(ARS,36);
      940    16640    1       XUG.DIVERT_TO_HELP = %NO# ;
      941    16641    1       P_PCB.USER$ = XUG.USER$ ;
PL6.E3A0      #001=XUG$COMMON File=XUG$COMMON.:E05TSI                            WED 07/30/97 09:17 Page:29
      942    16642    1       CALL XUG$CLRENABLE_COMMON(GETCMD) ;
      943    16643    1       ALTRETURN;
      944    16644        %EJECT;
PL6.E3A0      #001=XUG$COMMON File=XUG$COMMON.:E05TSI                            WED 07/30/97 09:17 Page:30
      945    16645    1   XUG$GETMORE_COMMON: ENTRY(GETCMD) ALTRET;
      946    16646        /**/
      947    16647    1       XUG$ = GETCMD.WORK$ ;
      948    16648    1       GETCMD.CONTINUED# = %YES# ;
      949    16649    1       P_PCB$ = XUG.P_PCB$ ;
      950    16650    1       VBASE(XUG.READVEC)=PINCRC(VBASE(XUG.BUFVEC),XUG.CPOS+1);
      951    16651    1       VBOUND(XUG.READVEC)=VBOUND(XUG.BUFVEC)-XUG.CPOS-1;
      952    16652    1       VBASE(XUG.RLTVEC)->RLT(XUG.NLINES)=XUG.CPOS - XUG.PREV_CPOS ;
      953    16653    1       IF XUG.PREV_CPOS = 0
      954    16654    1       THEN
      955    16655    1           VBASE(XUG.RLTVEC)->RLT(XUG.NLINES) = VBASE(XUG.RLTVEC)->
      956    16656    1             RLT(XUG.NLINES) + 1 ;
      957    16657    1       XUG.PREV_CPOS = XUG.CPOS ;
      958    16658    1       CALL XUG$READCMD_COMMON(GETCMD,XUG.READVEC,ARS) ALTRET(RDALT2);
      959    16659    1       IF XUG.NLINES >= XUG.RLTCNT
      960    16660    2       THEN CALL XUG$MOREMEM(GETCMD) WHENALTRETURN DO;
      961    16661    2               P_PCB.ERROR = GETCMD.ERR#;
      962    16662    2               UNWIND TO XUG.REM_PARSE;
      963    16663    2           END;
      964    16664    1       XUG.NLINES = XUG.NLINES + 1;
      965    16665    1       VBASE(XUG.RLTVEC)->RLT(XUG.NLINES)=ARS;
      966    16666    1       P_PCB.NCHARS = XUG.CPOS + ARS + 1 ;
      967    16667    1       IF XUG.PP_ERR = '0'B
      968    16668    1       THEN
      969    16669    1           RETURN;
      970    16670    1       P_PCB.ERROR = XUG.PP_ERR;
      971    16671    1       UNWIND TO XUG.REM_PARSE;
      972    16672    1   RDALT2: P_PCB.ERROR=BINBIT(ARS,36);
      973    16673    1       UNWIND TO XUG.REM_PARSE;
      974    16674        %EJECT;
PL6.E3A0      #001=XUG$COMMON File=XUG$COMMON.:E05TSI                            WED 07/30/97 09:17 Page:31
      975    16675    1   XUG$ERRPTR_COMMON: ENTRY(GETCMD) ALTRET;
      976    16676        /**/
      977    16677    1       XUG$ = GETCMD.WORK$ ;
      978    16678    1       P_PCB$ = XUG.P_PCB$ ;
      979    16679    1       IF GETCMD.DCB_PARAM# = DCBNUM( NIL )
      980    16680    1       THEN
      981    16681    1           GETCMD.DCB_PARAM# = GETCMD.OUTDCB# ;
      982    16682    1       IF GETCMD.DCB_PARAM# ~= DCBNUM(NIL)
      983    16683    1       THEN
      984    16684    1           OUTDCB# = GETCMD.DCB_PARAM# ;
      985    16685    1       ELSE
      986    16686    1           CALL XUG$GETDCB_COMMON(M$LO,OUTDCB#) ALTRET(MALT) ;
      987    16687    1       GETCMD.DCB_PARAM# = OUTDCB# ;
      988    16688    1       CALL XUG$OPENOUT_INTERNAL (GETCMD, OUTDCB#);
      989    16689    1       FPT_WRITE = FPT_WRITE_C;
      990    16690    1       FPT_WRITE.V_ = VECTOR(FPT_WRITE.V);
      991    16691    1       FPT_WRITE.BUF_ = VECTOR(XUG.BUF);
      992    16692    1       FPT_WRITE.V.DCB# = OUTDCB# ;
      993    16693    1       FPT_WRITE.V.DVBYTE.VFC# = %YES#;
      994    16694    1       IF GETCMD.USE_EPOS#
      995    16695    1       THEN
      996    16696    1           EPOS=GETCMD.EPOS# ;
      997    16697    1       ELSE
      998    16698    1           EPOS = P_PCB.HI_CHAR;
      999    16699    1       EPOS = MINIMUM (P_PCB.NCHARS, EPOS);
     1000    16700    2   SETFLG: DO I = 0 TO XUG.NDCBS;
     1001    16701    2           CALL XUG$CORRES_COMMON (OUTDCB#, BINBIT(XUG.DCBS.NUM(I),36))
     1002    16702    3           WHENALTRETURN DO;
     1003    16703    3               IF XUG.DCBS.ERRPTR_CPOS(I) = EPOS
     1004    16704    3               THEN
     1005    16705    3                   RETURN;
     1006    16706    3               XUG.DCBS.ERRPTR_CPOS(I) = EPOS;
     1007    16707    3               EXIT SETFLG;
     1008    16708    3           END;
     1009    16709    2       END SETFLG;
     1010    16710    1       IF XUG.QM_AFTER_SYNERR
     1011    16711    1       THEN
PL6.E3A0      #001=XUG$COMMON File=XUG$COMMON.:E05TSI                            WED 07/30/97 09:17 Page:32
     1012    16712    1           GOTO DO_SINPUT;
     1013    16713    1       IF B$JIT.PRFLAGS.POINT
     1014    16714    1       THEN
     1015    16715    2   POINT_TO_ERROR: DO;
     1016    16716    2           IF EPOS >= XUG.CPOS
     1017    16717    2             AND XUG.POFF + EPOS - XUG.CPOS < LENGTHC(XUG.BUFA) - 1
     1018    16718    2             AND (XUG.POFF = 0 OR NOT GETCMD.PROMPT_VFC# OR
     1019    16719    2             SUBSTR(XUG.PROMPT, 0, 1) ~= '@')
     1020    16720    3           THEN DO;
     1021    16721    3               TPOS=XUG.POFF+EPOS+XUG.CCBUF_OFFC-XUG.CPOS+1;
     1022    16722    3               IF GETCMD.RCVD_PROMPT# AND GETCMD.TREAD#
     1023    16723    3               THEN
     1024    16724    3                   TPOS = TPOS + XUG.POFF;
     1025    16725    3           END;
     1026    16726    3           ELSE DO;
     1027    16727    4               IF EPOS>15 THEN DO;
     1028    16728    4                   XUG.BUF=%CONCAT(VFC_TRANSITION0,'...');
     1029    16729    4                   CSIZE=30;
     1030    16730    4                   ADDR(XUG.BUFA(4))->CHARBASE=PINCRC(VBASE(XUG.BUFVEC),EPOS-15)->
             16730                            CHARBASE;
     1031    16731    4                   TPOS=19;
     1032    16732    5                   IF EPOS+15<P_PCB.NCHARS THEN DO;
     1033    16733    5                       CSIZE=3;
     1034    16734    5                       ADDR(XUG.BUFA(34))->CHARBASE='...';
     1035    16735    5                       I=36;
     1036    16736    5                   END;
     1037    16737    5                   ELSE DO;
     1038    16738    5                       I=18+P_PCB.NCHARS-EPOS;
     1039    16739    5                   END;
     1040    16740    4               END;
     1041    16741    4               ELSE DO;
     1042    16742    4                   TPOS=EPOS+1;
     1043    16743    4                   CSIZE=30;
     1044    16744    4                   CALL CONCAT (XUG.BUF, %VFC_TRANSITION0, VBASE(XUG.BUFVEC)->CHARBASE)
             16744                            ;
     1045    16745    5                   IF EPOS+15>P_PCB.NCHARS THEN DO;
     1046    16746    5                       I=P_PCB.NCHARS;
PL6.E3A0      #001=XUG$COMMON File=XUG$COMMON.:E05TSI                            WED 07/30/97 09:17 Page:33
     1047    16747    5                   END;
     1048    16748    5                   ELSE DO;
     1049    16749    5                       CSIZE=3;
     1050    16750    5                       ADDR(XUG.BUFA(EPOS+16)) -> CHARBASE = '...';
     1051    16751    5                       I=EPOS + 18;
     1052    16752    5                   END;
     1053    16753    4               END;
     1054    16754    3               FPT_WRITE.BUF_.BOUND=I;
     1055    16755    4               CALL M$WRITE(FPT_WRITE) WHENALTRETURN DO ;
     1056    16756    4               END ;
     1057    16757    3           END;
     1058    16758    2           XUG.BUF=%VFC_TRANSITION1;
     1059    16759    2           XUG.BUFA(TPOS)='^';
     1060    16760    2           XUG.CPOS=P_PCB.NCHARS;
     1061    16761    2           FPT_WRITE.BUF_.BOUND = TPOS;
     1062    16762    3           CALL M$WRITE(FPT_WRITE) WHENALTRETURN DO ;
     1063    16763    3           END ;
     1064    16764    2       END ;                        /* Then Do */
     1065    16765    1       IF NOT B$JIT.PRFLAGS.POINT
     1066    16766    1         OR (GETCMD.TREAD# AND XUG.SYNERR AND B$JIT.PRFLAGS.EXPOUND)
     1067    16767    2       THEN DO;
     1068    16768    2           SAVE_ERR = GETCMD.ERR_CODE ;
     1069    16769    2           SAVE_DCB = GETCMD.DCB_PARAM# ;
     1070    16770    2           SAVE_F1 = GETCMD.F1_;
     1071    16771    2           SAVE_F2 = GETCMD.F2_;
     1072    16772    2           XUG.CPOS=P_PCB.NCHARS;
     1073    16773    2           IF EPOS<16 OR XUG.CPOS<20
     1074    16774    3           THEN DO;
     1075    16775    3               CNT = 0 ;
     1076    16776    3               FIRST = 0 ;
     1077    16777    3               LAST = EPOS ;
     1078    16778    3           END ;                     /* Then Do */
     1079    16779    3           ELSE DO;
     1080    16780    3               CNT = 10 ;
     1081    16781    3               FIRST = EPOS-10 ;
     1082    16782    3               CALL SCAN_RECORD (-1, FIRST, LAST) ;
     1083    16783    3           END ;                     /* Else Do */
PL6.E3A0      #001=XUG$COMMON File=XUG$COMMON.:E05TSI                            WED 07/30/97 09:17 Page:34
     1084    16784    2           CSIZE = XUG.CPOS ;
     1085    16785    2           FIELD1.TXT = SUBSTR(VBASE(XUG.BUFVEC)->CHARBASE, FIRST,
     1086    16786    2             LAST - FIRST+CNT) ;
     1087    16787    2           FIELD1.CNT = LAST - FIRST + CNT ;
     1088    16788    2           GETCMD.F1_ = VECTOR(FIELD1) ;
     1089    16789    2           IF XUG.CPOS < 20 OR EPOS + 16 > XUG.CPOS
     1090    16790    3           THEN DO;
     1091    16791    3               FIRST = EPOS ;
     1092    16792    3               LAST = XUG.CPOS ;
     1093    16793    3           END ;                     /* Then Do */
     1094    16794    3           ELSE DO;
     1095    16795    3               FIRST = EPOS ;
     1096    16796    3               CALL SCAN_RECORD (1, FIRST+10, LAST) ;
     1097    16797    3           END ;                     /* Else Do */
     1098    16798    2           FIELD2.TXT = SUBSTR(VBASE(XUG.BUFVEC)->CHARBASE, FIRST,
     1099    16799    2             LAST - FIRST) ;
     1100    16800    2           FIELD2.CNT = LAST - FIRST ;
     1101    16801    2           GETCMD.F2_ = VECTOR(FIELD2) ;
     1102    16802    2           GETCMD.DCB_PARAM# = OUTDCB# ;
     1103    16803    2           IF XUG.SYNERR
     1104    16804    2           THEN
     1105    16805    2               IF B$JIT.PRFLAGS.POINT
     1106    16806    2               THEN
     1107    16807    2                   GETCMD.ERR_CODE = XUG#INCOR_PTD_XPND;
     1108    16808    2               ELSE
     1109    16809    2                   IF B$JIT.PRFLAGS.EXPOUND AND GETCMD.TREAD# AND NOT XUG.GOODCMD
     1110    16810    2                   THEN
     1111    16811    2                       GETCMD.ERR_CODE = XUG#INCOR_HERE_XPND;
     1112    16812    2                   ELSE
     1113    16813    2                       GETCMD.ERR_CODE = XUG#INCOR_HERE;
     1114    16814    2           ELSE
     1115    16815    2               GETCMD.ERR_CODE = XUG#PLERRMSG ;
     1116    16816    2           CALL XUG$ERRMSG_COMMON(GETCMD) ALTRET(EAT_IT) ;
     1117    16817    2   EAT_IT:
     1118    16818    2           GETCMD.ERR_CODE = SAVE_ERR ;
     1119    16819    2           GETCMD.DCB_PARAM# = SAVE_DCB ;
     1120    16820    2           GETCMD.F1_ = SAVE_F1 ;
PL6.E3A0      #001=XUG$COMMON File=XUG$COMMON.:E05TSI                            WED 07/30/97 09:17 Page:35
     1121    16821    2           GETCMD.F2_ = SAVE_F2 ;
     1122    16822        /*E*  ERROR:    XUG-E$XUG#PLERRMSG
     1123    16823              MESSAGE0: Error at <?>: '%%U1%<?>%%U2%'
     1124    16824        */
     1125    16825        /*E*  ERROR:    XUG-E$XUG#INCOR_HERE
     1126    16826              MESSAGE0: Incorrect input at <?>: '%%U1%<?>%%U2%'.
     1127    16827        */
     1128    16828        /*E*  ERROR:    XUG-E$XUG#INCOR_HERE_XPND
     1129    16829              MESSAGE0: Incorrect input at <?>: '%%U1%<?>%%U2%'.
     1130    16830                        Type a "?" for details.
     1131    16831        */
     1132    16832        /*E*  ERROR:    XUG-E$XUG#INCOR_PTD_XPND
     1133    16833              MESSAGE0: Incorrect input at the "^".  Type a "?" for details.
     1134    16834        */
     1135    16835    2       END ;                        /* Else Do */
     1136    16836    1   DO_SINPUT:
     1137    16837    1       XUG.POINTED_TO_SYNERR = XUG.SYNERR | XUG.QM_AFTER_SYNERR;
     1138    16838    1   XUG$SINPUT: ENTRY (GETCMD) ALTRET;
     1139    16839    1       XUG$ = GETCMD.WORK$ ;
     1140    16840    1       CSIZE = XUG.CPOS ;
     1141    16841    1       IF GETCMD.TREAD# AND NOT GETCMD.CONTINUED# AND CSIZE < 255
     1142    16842    1         AND CSIZE >= MAXIMUM (B$JIT.SINPUTSZ, 3)
     1143    16843    1         AND (B$JIT.PRFLAGS.POSITION OR (XUG.CCBUF_OFFC>0 AND XUG.DONT_REREAD_CCBUF))
     1144    16844    2       THEN DO;
     1145    16845    2           FPT_SINPUT = FPT_SINPUT_C ;
     1146    16846    2           FPT_SINPUT.V_ = VECTOR(FPT_SINPUT.V) ;
     1147    16847    2           FPT_SINPUT.V.DCB# = GETCMD.INDCB# ;
     1148    16848    2           XUG.BUF = ' ' ;
     1149    16849    2           POFF = 0 ;
     1150    16850    2           IF GETCMD.RCVD_PROMPT#
     1151    16851    2           THEN
     1152    16852    2               POFF = XUG.POFF ;
     1153    16853    2           TO$ = ADDR(XUG.BUF) ;
     1154    16854    2           IF B$JIT.PRFLAGS.POSITION
     1155    16855    3           THEN DO;
     1156    16856    3               TCSIZE = 0 ;
     1157    16857    3               IF NOT XUG.DONT_REREAD_CCBUF
PL6.E3A0      #001=XUG$COMMON File=XUG$COMMON.:E05TSI                            WED 07/30/97 09:17 Page:36
     1158    16858    3               THEN
     1159    16859    3                   TCSIZE = XUG.CCBUF_OFFC ;
     1160    16860    3               TO$ -> UBIN$BUF9 = EPOS + POFF + TCSIZE + 1 ;
     1161    16861    3           END;
     1162    16862    2           ELSE
     1163    16863    2               TO$ -> UBIN$BUF9 = 0 ;
     1164    16864    2           TO$ = PINCRC(TO$, 1) ;
     1165    16865    2           IF GETCMD.RCVD_PROMPT#
     1166    16866    3           THEN DO;
     1167    16867    3               TCSIZE = CSIZE ;
     1168    16868    3               CSIZE = POFF ;
     1169    16869    3               TO$ -> CHARBASE = SUBSTR(XUG.PROMPT,BITBIN(XUG.PROMPT_VFC),POFF) ;
     1170    16870    3               TO$ = PINCRC(TO$, POFF) ;
     1171    16871    3               CSIZE = TCSIZE ;
     1172    16872    3           END;
     1173    16873    2           TCSIZE = 0 ;
     1174    16874    2           IF XUG.CCBUF_OFFC > 0 AND NOT XUG.DONT_REREAD_CCBUF
     1175    16875    3           THEN DO;
     1176    16876    3               SUBSTR( TO$ -> CHARBASE , 0 , XUG.CCBUF_OFFC ) = B$JIT.CCBUF ;
     1177    16877    3               TO$ = PINCRC( TO$ , XUG.CCBUF_OFFC );
     1178    16878    3               TCSIZE = XUG.CCBUF_OFFC ;
     1179    16879    3           END;
     1180    16880    2           TO$ -> CHARBASE = VBASE( XUG.BUFVEC )-> CHARBASE ;
     1181    16881    2           IF XUG.CCBUF_REST > 0 AND NOT XUG.DONT_REREAD_CCBUF
     1182    16882    3           THEN DO;
     1183    16883    3               SUBSTR( PINCRC( TO$ , CSIZE )-> CHARBASE , 0 , XUG.CCBUF_REST ) =
     1184    16884    3                 SUBSTR( B$JIT.CCBUF , B$JIT.CCARS - XUG.CCBUF_REST );
     1185    16885    3               TCSIZE = TCSIZE + XUG.CCBUF_REST ;
     1186    16886    3           END;
     1187    16887    2           FPT_SINPUT.BUF_ = VECTOR(XUG.BUF) ;
     1188    16888    2           FPT_SINPUT.BUF_.BOUND = CSIZE + TCSIZE + POFF ;
     1189    16889    2           CALL M$SINPUT(FPT_SINPUT) ALTRET(SINPUT_ERR) ;
     1190    16890    2   SINPUT_ERR:
     1191    16891    2       END ;                        /* Then Do */
     1192    16892    1       RETURN;
     1193    16893        %EJECT;
PL6.E3A0      #001=XUG$COMMON File=XUG$COMMON.:E05TSI                            WED 07/30/97 09:17 Page:37
     1194    16894    1   XUG$ECHOIF_COMMON: ENTRY(GETCMD) ALTRET;
     1195    16895    1       XUG$ = GETCMD.WORK$ ;
     1196    16896    1       IF GETCMD.DCB_PARAM# = DCBNUM( NIL )
     1197    16897    1       THEN
     1198    16898    1           GETCMD.DCB_PARAM# = GETCMD.OUTDCB# ;
     1199    16899    1       IF GETCMD.DCB_PARAM# ~= DCBNUM(NIL)
     1200    16900    1       THEN
     1201    16901    1           OUTDCB# = GETCMD.DCB_PARAM# ;
     1202    16902    1       ELSE
     1203    16903    1           CALL XUG$GETDCB_COMMON(M$LO,OUTDCB#) ALTRET(MALT) ;
     1204    16904    1       IF DCBADDR(XUG.DCBS.NUM(0))->F$DCB.DDEV.XEQ# THEN I=1;
     1205    16905    1       ELSE I=0;
     1206    16906    2       DO I=I TO XUG.NDCBS;
     1207    16907    2           CALL XUG$CORRES_COMMON(OUTDCB#,BINBIT(XUG.DCBS.NUM(I),36))
     1208    16908    2             ALTRET(NO_ECHO);
     1209    16909    2       END;
     1210    16910    1       GOTO MAYBE_ECHO ;
     1211    16911    1   XUG$ECHO_COMMON: ENTRY(GETCMD) ALTRET;
     1212    16912    1       XUG$ = GETCMD.WORK$ ;
     1213    16913    1       IF GETCMD.DCB_PARAM# = DCBNUM( NIL )
     1214    16914    1       THEN
     1215    16915    1           GETCMD.DCB_PARAM# = GETCMD.OUTDCB# ;
     1216    16916    1       IF GETCMD.DCB_PARAM# ~= DCBNUM(NIL)
     1217    16917    1       THEN
     1218    16918    1           OUTDCB# = GETCMD.DCB_PARAM# ;
     1219    16919    1       ELSE
     1220    16920    1           CALL XUG$GETDCB_COMMON(M$LO,OUTDCB#) ALTRET(MALT) ;
     1221    16921    1   MAYBE_ECHO: ;
     1222    16922    1       GETCMD.DCB_PARAM# = OUTDCB# ;
     1223    16923    1       IF DCBADDR(GETCMD.INDCB#) -> F$DCB.DVBYTE.TRANS#
     1224    16924    1       THEN
     1225    16925    1           GOTO NO_ECHO ;
     1226    16926    1       IF XUG.NDCBS < 9 THEN
     1227    16927    1           XUG.NDCBS=XUG.NDCBS+1;
     1228    16928    1       XUG.DCBS.NUM(XUG.NDCBS)=OUTDCB# ;
     1229    16929    1       XUG.DCBS.ERRPTR_CPOS(XUG.NDCBS) = -1;
     1230    16930    1       CNT = 0 ;
PL6.E3A0      #001=XUG$COMMON File=XUG$COMMON.:E05TSI                            WED 07/30/97 09:17 Page:38
     1231    16931    2       DO J=1 TO XUG.NLINES-1 ;
     1232    16932    2           CNT = CNT + VBASE(XUG.RLTVEC) ->RLT(J) ;
     1233    16933    2       END ;                        /* Do J */
     1234    16934    1       XUG.CPOS = CNT ;
     1235    16935    1       FPT_WRITE = FPT_WRITE_C;
     1236    16936    1       FPT_WRITE.V_ = VECTOR(FPT_WRITE.V);
     1237    16937    1       FPT_WRITE.V.DCB#=OUTDCB# ;
     1238    16938    1       CALL XUG$OPENOUT_INTERNAL (GETCMD, OUTDCB#);
     1239    16939    1       IF GETCMD.RPROMPT_~=VECTOR(NIL) AND
     1240    16940    1         GETCMD.RPROMPT_~=VECTOR(ERASE)
     1241    16941    2       THEN DO;
     1242    16942    2           POFF = VBOUND(GETCMD.RPROMPT_)+1 ;
     1243    16943    2           CSIZE = POFF ;
     1244    16944    2           PROMPT_BUF = VBASE(GETCMD.RPROMPT_) -> CHARBASE ;
     1245    16945    2           FPT_WRITE.V.DVBYTE.VFC# = XUG.PROMPT_VFC ;
     1246    16946    2       END ;
     1247    16947    2       ELSE DO;
     1248    16948    2           POFF = XUG.POFF;
     1249    16949    2           PROMPT_BUF = SUBSTR(XUG.PROMPT,BITBIN(XUG.PROMPT_VFC),POFF);
     1250    16950    2       END;
     1251    16951    1       CNT = 0 ;
     1252    16952    1       OUTPUT_WIDTH = DCBADDR(OUTDCB#) -> F$DCB.WIDTH#;
     1253    16953    1       IF OUTPUT_WIDTH = 0
     1254    16954    1       THEN
     1255    16955    1           OUTPUT_WIDTH = 511;
     1256    16956    2       DO I=1 TO XUG.NLINES;
     1257    16957    2           OUTPUT_COUNT = POFF+VBASE(XUG.RLTVEC)->RLT(I);
     1258    16958    2           CALL CONCAT(XUG.BUF,SUBSTR(PROMPT_BUF,0,POFF),
     1259    16959    2             SUBSTR(VBASE(XUG.BUFVEC)->INBUF,CNT, OUTPUT_COUNT-POFF)) ;
     1260    16960    3           DO WHILE (OUTPUT_COUNT > 1);
     1261    16961    3               IF SUBSTR (XUG.BUF, OUTPUT_COUNT - 1, 1) ~= ' '
     1262    16962    3               THEN
     1263    16963    3                   EXIT;
     1264    16964    3               OUTPUT_COUNT = OUTPUT_COUNT - 1;
     1265    16965    3           END;
     1266    16966    2           IF I~=XUG.NLINES THEN
     1267    16967    3           DO ;
PL6.E3A0      #001=XUG$COMMON File=XUG$COMMON.:E05TSI                            WED 07/30/97 09:17 Page:39
     1268    16968    3               SUBSTR(XUG.BUF, OUTPUT_COUNT, 1) = ';';
     1269    16969    3               OUTPUT_COUNT = OUTPUT_COUNT + 1;
     1270    16970    3           END ; /* Then Do */
     1271    16971    2           OFFSET = 0;
     1272    16972    3           DO WHILE (OFFSET < OUTPUT_COUNT);
     1273    16973    3               CHUNK_SIZE = MINIMUM (OUTPUT_COUNT - OFFSET, OUTPUT_WIDTH);
     1274    16974    3               IF XUG.PROMPT_VFC AND OFFSET > 0
     1275    16975    4               THEN DO;
     1276    16976    4                   CHUNK_SIZE = CHUNK_SIZE + 1;
     1277    16977    4                   OFFSET = OFFSET - 1;
     1278    16978    4                   SUBSTR( XUG.BUF, OFFSET, 1 ) = SUBSTR( XUG.BUF, 0, 1 );
     1279    16979    4               END;
     1280    16980    3               FPT_WRITE.BUF_ = VECTOR (SUBSTR(XUG.BUF, OFFSET, CHUNK_SIZE));
     1281    16981    4               CALL M$WRITE(FPT_WRITE) WHENALTRETURN DO ;
     1282    16982    4               END ;
     1283    16983    3               OFFSET = OFFSET + CHUNK_SIZE;
     1284    16984    3           END;
     1285    16985    2           CNT = CNT + VBASE(XUG.RLTVEC)->RLT(I) ;
     1286    16986    2       END;
     1287    16987    1       RETURN;
     1288    16988    1   NO_ECHO:
     1289    16989    1       CNT = 0 ;
     1290    16990    2       DO J=1 TO XUG.NLINES-1 ;
     1291    16991    2           CNT = CNT + VBASE(XUG.RLTVEC) ->RLT(J) ;
     1292    16992    2       END ;                        /* Do J */
     1293    16993    1       XUG.CPOS = CNT ;
     1294    16994    1       RETURN;
     1295    16995
     1296    16996        %EJECT ;
PL6.E3A0      #001=XUG$COMMON File=XUG$COMMON.:E05TSI                            WED 07/30/97 09:17 Page:40
     1297    16997    1   XUG$SETPROMPT: ENTRY (GETCMD) ALTRET ;
     1298    16998
     1299    16999    1       XUG$ = GETCMD.WORK$ ;
     1300    17000    1       FPT_PROMPT = FPT_PROMPT_C;
     1301    17001    1       FPT_PROMPT.V_ = VECTOR(FPT_PROMPT.V);
     1302    17002    1       IF GETCMD.INDCB# ~= 0
     1303    17003    2       THEN DO;
     1304    17004    2           J = GETCMD.INDCB#;
     1305    17005    2           FPT_PROMPT.V.DCB# = J;
     1306    17006    2       END;
     1307    17007    1       ELSE
     1308    17008    1           J = DCBNUM(M$UC);
     1309    17009    1       PROMPT_FLG = ( GETCMD.ALWAYS_SET_PROMPT# | XUG.DEFER_SETTING_PROMPT );
     1310    17010    1       XUG.DEFER_SETTING_PROMPT = %NO# ;
     1311    17011    2       IF GETCMD.PROMPT_=VECTOR(NIL) THEN DO;
     1312    17012    2           IF XUG.POFF > 0 THEN PROMPT_FLG='1'B ;
     1313    17013    2           XUG.POFF=0;
     1314    17014    2           XUG.PROMPT_VFC=%NO#;
     1315    17015    2           XUG.PROMPT=' ';
     1316    17016    2           FPT_PROMPT.PROMPT_=GETCMD.PROMPT_ ;
     1317    17017    2       END;
     1318    17018    2       ELSE IF GETCMD.PROMPT_=VECTOR(ERASE) THEN DO;
     1319    17019    2               XUG.POFF=0;
     1320    17020    2               XUG.PROMPT_VFC=%NO#;
     1321    17021    2               XUG.PROMPT=' ';
     1322    17022    2           END ; /* Then Do */
     1323    17023    2           ELSE DO;
     1324    17024    2               PSIZ=VBOUND(GETCMD.PROMPT_) + 1 ;
     1325    17025    2               I = BITBIN(GETCMD.PROMPT_VFC#) ;
     1326    17026    2               FPT_PROMPT.V.DVBYTE#.VFC# = GETCMD.PROMPT_VFC# ;
     1327    17027    2               FPT_PROMPT.PROMPT_ = GETCMD.PROMPT_ ;
     1328    17028    2               POFF = PSIZ - I ;
     1329    17029    2               IF XUG.POFF~=POFF OR XUG.PROMPT_VFC~=GETCMD.PROMPT_VFC# OR
     1330    17030    2                 XUG.PROMPT~=VBASE(GETCMD.PROMPT_)->PROMPT$C.C THEN
     1331    17031    2                   PROMPT_FLG='1'B;
     1332    17032    2               XUG.POFF=POFF;
     1333    17033    2               XUG.PROMPT = VBASE(GETCMD.PROMPT_)->PROMPT$C.C ;
PL6.E3A0      #001=XUG$COMMON File=XUG$COMMON.:E05TSI                            WED 07/30/97 09:17 Page:41
     1334    17034    2               XUG.PROMPT_VFC = GETCMD.PROMPT_VFC# ;
     1335    17035    2           END;
     1336    17036    1       IF PROMPT_FLG
     1337    17037    2       THEN DO;
     1338    17038    2           IF GETCMD.TEXT_ ~= VECTOR(NIL)
     1339    17039    2             AND NOT GETCMD.ALWAYS_SET_PROMPT#
     1340    17040    2           THEN
     1341    17041    2               XUG.DEFER_SETTING_PROMPT = %YES# ;
     1342    17042    3           ELSE DO;
     1343    17043    3               IF NOT DCBADDR(J) -> F$DCB.FCD#
     1344    17044    4               THEN DO;
     1345    17045    4                   FPT_OPEN = FPT_OPEN_C;
     1346    17046    4                   FPT_OPEN.V_ = VECTOR (FPT_OPEN.V);
     1347    17047    4                   FPT_OPEN.V.DCB# = J;
     1348    17048    5                   CALL M$OPEN (FPT_OPEN) WHENALTRETURN DO; END;
     1349    17049    4               END;
     1350    17050    3               CALL M$PROMPT(FPT_PROMPT)
     1351    17051    4               WHENALTRETURN DO;
     1352    17052    4                   XUG.DEFER_SETTING_PROMPT = %YES# ;
     1353    17053    4               END;
     1354    17054    3           END;
     1355    17055    2       END;
     1356    17056
     1357    17057    1       RETURN ;
     1358    17058        %EJECT;
PL6.E3A0      #001=XUG$COMMON File=XUG$COMMON.:E05TSI                            WED 07/30/97 09:17 Page:42
     1359    17059    1   MOVER: PROC (VEC, OFFSET, SIZ) ;
     1360    17060
     1361    17061    2   DCL J SBIN ;
     1362    17062    2   DCL VEC VECTOR ;
     1363    17063    2   DCL OFFSET UBIN ;
     1364    17064    2   DCL SIZ UBIN ;
     1365    17065    2   DCL WDS(0:0) BIT(72) DALIGNED BASED ;
     1366    17066    2   DCL TO$ PTR ;
     1367    17067    2   DCL FROM$ PTR ;
     1368    17068
     1369    17069    2       FROM$ = VBASE(VEC) ;
     1370    17070    2       J = VBOUND(VEC) / 8 ;
     1371    17071    2       TO$ = PINCRW(FROM$, OFFSET) ;
     1372    17072    3       DO WHILE (J > 0) ;
     1373    17073    3           J = J - 1 ;
     1374    17074    3           TO$ -> WDS(J) = FROM$ -> WDS(J) ;
     1375    17075    3       END ;
     1376    17076    2       VBASE(VEC) = TO$ ;
     1377    17077    2       VBOUND(VEC) = VBOUND(VEC) + SIZ*4 ;
     1378    17078
     1379    17079    2       RETURN ;
     1380    17080    2   END   MOVER ;
     1381    17081        %EJECT;
PL6.E3A0      #001=XUG$COMMON File=XUG$COMMON.:E05TSI                            WED 07/30/97 09:17 Page:43
     1382    17082    1   REPORT_ALTERNATIVES: PROC;
     1383    17083
     1384    17084    2   DCL ONECHAR CHAR (1) BASED;
     1385    17085    2   DCL SAVED_HI_CHAR SBIN WORD;
     1386    17086    2   DCL SAVED_HINODE$ PTR;
     1387    17087    2   DCL SAVED_WK_USED SBIN WORD;
     1388    17088
     1389    17089    2       SAVED_HI_CHAR = P_PCB.HI_CHAR;
     1390    17090    2       SAVED_HINODE$ = P_PCB.HINODE$;
     1391    17091    2       SAVED_WK_USED = P_PCB.WK_USED;
     1392    17092
     1393    17093    2       XUG.PARSING_FREE_CMDS = %NO#;
     1394    17094    2       CALL X$PARSE (P_PCB);
     1395    17095
     1396    17096    2       IF NOT P_PCB.BLANKONLY
     1397    17097    2         OR P_PCB.HI_CHAR ~= P_PCB.NCHARS
     1398    17098    2       THEN
     1399    17099    2           RETURN;
     1400    17100
     1401    17101    2       PINCRC (P_PCB.TEXT$, P_PCB.NCHARS) -> ONECHAR = ' ';
     1402    17102    2       P_PCB.NCHARS = P_PCB.NCHARS + 1;
     1403    17103    2       P_PCB.NXT = %NO#;
     1404    17104    2       XUG.PARSING_FREE_CMDS = %NO#;
     1405    17105
     1406    17106    2       CALL X$PARSE (P_PCB)
     1407    17107    3       WHENALTRETURN DO;
     1408    17108
     1409    17109    3           IF P_PCB.ERROR.CODE = %E$SYNERR
     1410    17110    4           THEN DO;
     1411    17111
     1412    17112    4               GETCMD.ERR_CODE = XUG#FOLLOWED_BY;
     1413    17113    4               CALL XUG$ERRMSG_COMMON (GETCMD);
     1414    17114
     1415    17115        /*E*  ERROR:   XUG-E$XUG#FOLLOWED_BY
     1416    17116              MESSAGE:followed by:
     1417    17117        */
     1418    17118
PL6.E3A0      #001=XUG$COMMON File=XUG$COMMON.:E05TSI                            WED 07/30/97 09:17 Page:44
     1419    17119    4               XUG.PARSING_FREE_CMDS = %NO#;
     1420    17120    4               P_PCB.NXT = %YES#;
     1421    17121    4               CALL X$PARSE (P_PCB);
     1422    17122
     1423    17123    4           END;
     1424    17124
     1425    17125    3       END;
     1426    17126
     1427    17127    2       P_PCB.HI_CHAR = SAVED_HI_CHAR;
     1428    17128    2       P_PCB.HINODE$ = SAVED_HINODE$;
     1429    17129    2       P_PCB.NCHARS = P_PCB.NCHARS - 1;
     1430    17130    2       P_PCB.WK_USED = SAVED_WK_USED;
     1431    17131
     1432    17132    2       RETURN;
     1433    17133
     1434    17134    2   END REPORT_ALTERNATIVES;
     1435    17135
     1436    17136        %EJECT;
PL6.E3A0      #001=XUG$COMMON File=XUG$COMMON.:E05TSI                            WED 07/30/97 09:17 Page:45
     1437    17137    1   FETCH_HELP_TOPIC: PROC;
     1438    17138
     1439    17139    2   DCL LOW_CHAR SBIN WORD;
     1440    17140    2   DCL HIGH_CHAR SBIN WORD;
     1441    17141    2   DCL LENGTH SBIN WORD;
     1442    17142    2   DCL NCHARS SBIN WORD;
     1443    17143    2   DCL STRING$ PTR;
     1444    17144    2   DCL STRING CHAR (NCHARS) BASED (STRING$);
     1445    17145    2   DCL TSTRING CHAR (5);
     1446    17146    2   DCL BANG_OK BIT(1);
     1447    17147    2   DCL DO_OK BIT(1);
     1448    17148    2   DCL DO_CMD BIT(1);
     1449    17149
     1450    17150    2       BANG_OK = %NO#;
     1451    17151    2       DO_CMD = %NO#;
     1452    17152    2       DO_OK = ( XUG.COMMANDS & ~ XUG.INHIBITS.DO# );
     1453    17153    2       IF DO_OK
     1454    17154    3       THEN DO;
     1455    17155    3           CALL INDEX(LENGTH,'!',SUBSTR(XUG.PROMPT,BITBIN(XUG.PROMPT_VFC),XUG.POFF))
     1456    17156    4           WHENALTRETURN DO;
     1457    17157    4               BANG_OK = %YES#;
     1458    17158    4           END;
     1459    17159    3       END;
     1460    17160
     1461    17161    2       NCHARS = P_PCB.NCHARS;
     1462    17162
     1463    17163    2       STRING$ = P_PCB.TEXT$;
     1464    17164    2       LOW_CHAR = -1;
     1465    17165
     1466    17166    2   FIND_START_CHAR: ;
     1467    17167    3       DO UNTIL SYMTTBL.PL6SYM(ASCBIN(SUBSTR(STRING, LOW_CHAR, 1)));
     1468    17168
     1469    17169    3           LOW_CHAR = LOW_CHAR + 1;
     1470    17170
     1471    17171    3           IF LOW_CHAR = NCHARS
     1472    17172    3           THEN
     1473    17173    3               RETURN;
PL6.E3A0      #001=XUG$COMMON File=XUG$COMMON.:E05TSI                            WED 07/30/97 09:17 Page:46
     1474    17174
     1475    17175    3           IF BANG_OK AND SUBSTR(STRING,LOW_CHAR,1) = '!'
     1476    17176    3           THEN
     1477    17177    3               DO_CMD = %YES#;
     1478    17178
     1479    17179    3       END;
     1480    17180
     1481    17181    2       HIGH_CHAR = LOW_CHAR;
     1482    17182
     1483    17183    3       DO WHILE SYMTTBL.PL6SYM(ASCBIN(SUBSTR(STRING, HIGH_CHAR, 1)));
     1484    17184
     1485    17185    3           HIGH_CHAR = HIGH_CHAR + 1;
     1486    17186
     1487    17187    3           IF HIGH_CHAR = NCHARS
     1488    17188    3           THEN
     1489    17189    3               EXIT;
     1490    17190
     1491    17191    3       END;
     1492    17192
     1493    17193    2       LENGTH = HIGH_CHAR - LOW_CHAR;
     1494    17194
     1495    17195    2       IF LENGTH = 0
     1496    17196    2       THEN
     1497    17197    2           RETURN;
     1498    17198
     1499    17199    2       CALL XLATE (TSTRING, TRANSTBL, SUBSTR (STRING, LOW_CHAR, LENGTH));
     1500    17200
     1501    17201    2       IF TSTRING = 'HELP'
     1502    17202    2       THEN
     1503    17203    2           RETURN;
     1504    17204
     1505    17205    2       IF DO_OK AND NOT DO_CMD AND TSTRING = 'DO'
     1506    17206    3       THEN DO;
     1507    17207    3           DO_CMD = %YES# ;
     1508    17208    3           LOW_CHAR = HIGH_CHAR - 1;
     1509    17209    3           GOTO FIND_START_CHAR;
     1510    17210    3       END;
PL6.E3A0      #001=XUG$COMMON File=XUG$COMMON.:E05TSI                            WED 07/30/97 09:17 Page:47
     1511    17211
     1512    17212    2       IF NOT DO_CMD
     1513    17213    3       THEN DO;
     1514    17214    3           XUG.HELP_TOPIC.COUNT = LENGTH;
     1515    17215    3           XUG.HELP_TOPIC.TEXT = SUBSTR (STRING, LOW_CHAR, LENGTH);
     1516    17216    3       END;
     1517    17217    3       ELSE DO;
     1518    17218    3           XUG.HELP_TOPIC.COUNT = LENGTH + 7;
     1519    17219    3           CALL CONCAT(XUG.HELP_TOPIC.TEXT, '(IBEX) ',
     1520    17220    3             SUBSTR (STRING, LOW_CHAR, LENGTH));
     1521    17221    3       END;
     1522    17222    2       XUG.DIVERT_TO_HELP = %YES#;
     1523    17223
     1524    17224    2       RETURN;
     1525    17225
     1526    17226    2   END FETCH_HELP_TOPIC;
     1527    17227        %EJECT;
PL6.E3A0      #001=XUG$COMMON File=XUG$COMMON.:E05TSI                            WED 07/30/97 09:17 Page:48
     1528    17228    1   SCAN_RECORD: PROC (INCR, LOW, HIGH) ;
     1529    17229
     1530    17230    2   DCL INCR SBIN WORD ;
     1531    17231    2   DCL LOW SBIN WORD ;
     1532    17232    2   DCL HIGH SBIN WORD ;
     1533    17233
     1534    17234    2   DCL I SBIN WORD ;
     1535    17235    2   DCL LAST SBIN WORD ;
     1536    17236    2   DCL CHARVAL UBIN WORD ;
     1537    17237    2   DCL CURCHAR$ PTR ;
     1538    17238    2   DCL CUR$CHAR CHAR(1) BASED(CURCHAR$) ;
     1539    17239
     1540    17240    2       CURCHAR$ = VBASE(XUG.BUFVEC) ;
     1541    17241    2       CURCHAR$ = PINCRC(CURCHAR$, LOW) ;
     1542    17242    2       LAST = LOW ;
     1543    17243
     1544    17244    3   SCAN: DO I=0 TO 5 ;
     1545    17245    3           CHARVAL = ASCBIN(CUR$CHAR) ;
     1546    17246    3           IF CHARVAL <= ASCBIN(' ') OR CHARVAL > 127
     1547    17247    3           THEN
     1548    17248    3               EXIT SCAN ;
     1549    17249    3           IF SYMTTBL.GENERIC_DSTRING(CHARVAL) AND NOT SYMTTBL.FID(CHARVAL)
     1550    17250    3           THEN
     1551    17251    3               EXIT SCAN ;
     1552    17252    3           LAST = LAST + INCR ;
     1553    17253    3           CURCHAR$ = PINCRC(CURCHAR$, INCR) ;
     1554    17254    3       END SCAN ;
     1555    17255
     1556    17256    2       IF INCR > 0
     1557    17257    2       THEN                            /* Right motion */
     1558    17258    2           HIGH = LAST ;
     1559    17259    2       ELSE                            /* Left motion */
     1560    17260    3       DO ;
     1561    17261    3           HIGH = LOW ;
     1562    17262    3           LOW = LAST ;
     1563    17263    3       END ;                        /* Else Do */
     1564    17264
PL6.E3A0      #001=XUG$COMMON File=XUG$COMMON.:E05TSI                            WED 07/30/97 09:17 Page:49
     1565    17265    2       RETURN ;
     1566    17266    2   END     SCAN_RECORD ;
     1567    17267        %EJECT;
PL6.E3A0      #001=XUG$COMMON File=XUG$COMMON.:E05TSI                            WED 07/30/97 09:17 Page:50
     1568    17268    1   SPELLING_CHECKER: PROC (QM_REQUIRED) ALTRET;
     1569    17269
     1570    17270        /*I*  NAME:    SPELLING_CHECKER
     1571    17271              DESCRIPTION: This routine drives spelling-error detection for keywords
     1572    17272                       in commands.  It is called with a single flag, which (if true)
     1573    17273                       indicates that the first non-alphabetic character at or to the
     1574    17274                       right of the point of error must be a "?" (this is used to
     1575    17275                       request partial-prefix-known displays, such as the IBEX
     1576    17276                       command "!TERMINAL P?" to determine all options which begin
     1577    17277                       with the letter P.  SPELLING_CHECKER contains the special
     1578    17278                       interfaces to X$PARSE and XUS$CORRECT.  Its RETURN/ALTRETURN
     1579    17279                       behavior is inverted from the normal style - it ALTRETURNS if
     1580    17280                       it is able to suggest one or more alternative/completed
     1581    17281                       spellings of a keyword, and RETURNs if it cannot.
     1582    17282        */
     1583    17283
     1584    17284    2   DCL QM_REQUIRED BIT (1) ALIGNED PARAM ;
     1585    17285
     1586    17286    2   DCL BADCHAR SBIN WORD;
     1587    17287    2   DCL FIRSTCHAR SBIN WORD;
     1588    17288    2   DCL FIRST_LEGAL$ PTR;
     1589    17289    2   DCL KEYWORDS$ PTR;
     1590    17290    2   DCL KEYWORDS_FOUND SBIN WORD;
     1591    17291    2   DCL LASTCHAR SBIN WORD;
     1592    17292    2   DCL LEGAL_BITS (0:0) BIT (1) BASED UNAL;
     1593    17293    2   DCL LEN SBIN WORD;
     1594    17294    2   DCL NCHARS SBIN WORD;
     1595    17295    2   DCL QM_HIT BIT (1);
     1596    17296    2   DCL SAVED_HI_CHAR SBIN WORD;
     1597    17297    2   DCL SAVED_HINODE$ PTR;
     1598    17298    2   DCL SAVED_WK_USED SBIN WORD;
     1599    17299    2   DCL STRING$ PTR;
     1600    17300    2   DCL STRING CHAR (NCHARS) BASED (STRING$);
     1601    17301
     1602    17302    2   DCL 1 TEXTC,
     1603    17303    2         2 COUNT UBIN BYTE CALIGNED,
     1604    17304    2         2 TEXT CHAR (63);
PL6.E3A0      #001=XUG$COMMON File=XUG$COMMON.:E05TSI                            WED 07/30/97 09:17 Page:51
     1605    17305
     1606    17306    2   DCL 1 LEGAL_TEXTC,
     1607    17307    2         2 COUNT UBIN BYTE CALIGNED,
     1608    17308    2         2 TEXT CHAR (63);
     1609    17309
     1610    17310    2   DCL 1 BASED_TEXTC BASED ALIGNED,
     1611    17311    2         2 COUNT UBIN BYTE CALIGNED,
     1612    17312    2         2 TEXT CHAR (63);
     1613    17313
     1614    17314        %P$KEYWORDS (STCLASS="BASED(KEYWORDS$)");
     1615    17332
     1616    17333    2       XUG.SPELLING_TRIED = %YES#;
     1617    17334    2       BADCHAR = P_PCB.HI_CHAR;
     1618    17335    2       NCHARS = P_PCB.NCHARS;
     1619    17336    2       STRING$ = VBASE (XUG.BUFVEC);
     1620    17337
     1621    17338    2       IF BADCHAR >= NCHARS
     1622    17339    2       THEN
     1623    17340    2           RETURN;
     1624    17341
     1625    17342    2       IF SUBSTR (STRING, BADCHAR, 1) ~= '?'
     1626    17343    2         AND NOT SYMTTBL.ALPHA (ASCBIN(SUBSTR(STRING, BADCHAR, 1)))
     1627    17344    2       THEN
     1628    17345    2           RETURN;
     1629    17346
     1630    17347    2       FIRSTCHAR = BADCHAR;
     1631    17348
     1632    17349    3       DO WHILE FIRSTCHAR > 0;
     1633    17350
     1634    17351    3           IF NOT SYMTTBL.ALPHA (ASCBIN(SUBSTR(STRING, FIRSTCHAR - 1, 1)))
     1635    17352    3           THEN
     1636    17353    3               EXIT;
     1637    17354
     1638    17355    3           FIRSTCHAR = FIRSTCHAR - 1;
     1639    17356
     1640    17357    3       END;
     1641    17358
PL6.E3A0      #001=XUG$COMMON File=XUG$COMMON.:E05TSI                            WED 07/30/97 09:17 Page:52
     1642    17359    2       LASTCHAR = FIRSTCHAR;
     1643    17360
     1644    17361    3       DO WHILE LASTCHAR < NCHARS - 1;
     1645    17362
     1646    17363    3           IF NOT SYMTTBL.ALPHA (ASCBIN(SUBSTR(STRING, LASTCHAR + 1, 1)))
     1647    17364    3           THEN
     1648    17365    3               EXIT;
     1649    17366
     1650    17367    3           LASTCHAR = LASTCHAR + 1;
     1651    17368
     1652    17369    3       END;
     1653    17370
     1654    17371    2       LEN = LASTCHAR - FIRSTCHAR + 1;
     1655    17372
     1656    17373    2       IF LEN <= 0
     1657    17374    2       THEN
     1658    17375    2           RETURN;
     1659    17376
     1660    17377    2       QM_HIT = %NO#;
     1661    17378
     1662    17379    2       IF LASTCHAR < NCHARS - 1
     1663    17380    2       THEN
     1664    17381    2           IF SUBSTR (STRING, LASTCHAR + 1, 1) = '?'
     1665    17382    2           THEN
     1666    17383    2               QM_HIT = %YES#;
     1667    17384
     1668    17385    2       TEXTC.COUNT = LEN;
     1669    17386    2       CALL XLATE (TEXTC.TEXT, TRANSTBL, SUBSTR (STRING, FIRSTCHAR, LEN));
     1670    17387
     1671    17388    2       IF QM_REQUIRED AND NOT QM_HIT
     1672    17389    3       THEN DO;
     1673    17390    3           XUG.SPELLING_TRIED = %NO#;
     1674    17391    3           RETURN;
     1675    17392    3       END;
     1676    17393
     1677    17394    2       SAVED_HI_CHAR = P_PCB.HI_CHAR;
     1678    17395    2       SAVED_WK_USED = P_PCB.WK_USED;
PL6.E3A0      #001=XUG$COMMON File=XUG$COMMON.:E05TSI                            WED 07/30/97 09:17 Page:53
     1679    17396    2       SAVED_HINODE$ = P_PCB.HINODE$;
     1680    17397
     1681    17398    2       P_PCB.HI_CHAR = FIRSTCHAR;
     1682    17399    2       P_PCB.KEYWORDS = %YES#;
     1683    17400    2       P_PCB.ERROR = '0'B;
     1684    17401    2       P_PCB.NXT_SZONLY = %YES#;
     1685    17402    2       XUG.PARSING_FREE_CMDS = %NO#;
     1686    17403
     1687    17404    2       CALL X$PARSE (P_PCB);
     1688    17405    2       P_PCB.NXT_SZONLY = %NO#;
     1689    17406    2       CALL X$PARSE (P_PCB);
     1690    17407
     1691    17408    2       P_PCB.KEYWORDS = %NO#;
     1692    17409
     1693    17410    2       IF P_PCB.ERROR.MON OR P_PCB.ERROR.CODE ~= %E$SYNERR
     1694    17411    2       THEN
     1695    17412    2           GOTO CORRECTION_FAILED;
     1696    17413
     1697    17414    2       KEYWORDS$ = P_PCB.OUT$;
     1698    17415
     1699    17416    2       KEYWORDS_FOUND = P$KEYWORDS.KEYWORD_COUNT;
     1700    17417
     1701    17418    2       IF KEYWORDS_FOUND = 0
     1702    17419    2       THEN
     1703    17420    2           GOTO CORRECTION_FAILED;
     1704    17421
     1705    17422    2       CALL XUS$CORRECT_SPELLING (P$KEYWORDS.KEYWORD_COUNT, P$KEYWORDS.KEYWORDS$,
     1706    17423    2         TEXTC, %YES#, P$KEYWORDS.LEGAL$ -> LEGAL_BITS);
     1707    17424
     1708    17425    2       FIRST_LEGAL$ = ADDR(NIL);
     1709    17426
     1710    17427    3       DO I = 0 TO KEYWORDS_FOUND - 1;
     1711    17428
     1712    17429    3           IF LEN <= 2 AND NOT P$KEYWORDS.LEGAL$ -> LEGAL_BITS(I) AND
     1713    17430    3             TEXTC.TEXT = SUBSTR(P$KEYWORDS.KEYWORDS$(I) -> BASED_TEXTC.TEXT, 0, LEN)
     1714    17431    4           THEN DO;
     1715    17432
PL6.E3A0      #001=XUG$COMMON File=XUG$COMMON.:E05TSI                            WED 07/30/97 09:17 Page:54
     1716    17433    4               P$KEYWORDS.LEGAL$ -> LEGAL_BITS(I) = %YES#;
     1717    17434    4               P$KEYWORDS.KEYWORD_COUNT = P$KEYWORDS.KEYWORD_COUNT + 1;
     1718    17435
     1719    17436    4           END;
     1720    17437
     1721    17438    3           IF P$KEYWORDS.LEGAL$ -> LEGAL_BITS(I)
     1722    17439    3             AND FIRST_LEGAL$ = ADDR(NIL)
     1723    17440    3           THEN
     1724    17441    3               FIRST_LEGAL$ = P$KEYWORDS.KEYWORDS$(I);
     1725    17442
     1726    17443    3       END;
     1727    17444
     1728    17445    2       GETCMD.F1_ = VECTOR (TEXTC);
     1729    17446
     1730    17447    2       IF FIRST_LEGAL$ = ADDR(NIL)
     1731    17448    2       THEN
     1732    17449    2           GETCMD.F2_ = VECTOR(NIL);
     1733    17450
     1734    17451    3       ELSE DO;
     1735    17452
     1736    17453        /*N* KLUGE - similar to the one in XUP$DMPNXT.  Beware - if the format of
     1737    17454             P$LIT ever changes, this may explode messily.
     1738    17455        */
     1739    17456
     1740    17457    3           FIRST_LEGAL$ = PINCRW(FIRST_LEGAL$, -1);
     1741    17458
     1742    17459    3           IF FIRST_LEGAL$ -> P$LIT.ABREV = 0
     1743    17460    4           THEN DO;
     1744    17461
     1745    17462    4               LEGAL_TEXTC.COUNT = FIRST_LEGAL$ -> P$LIT.COUNT;
     1746    17463    4               LEGAL_TEXTC.TEXT = FIRST_LEGAL$ -> P$LIT.TEXT;
     1747    17464
     1748    17465    4           END;
     1749    17466
     1750    17467    4           ELSE DO;
     1751    17468
     1752    17469    4               LEGAL_TEXTC.COUNT = FIRST_LEGAL$ -> P$LIT.COUNT + 1;
PL6.E3A0      #001=XUG$COMMON File=XUG$COMMON.:E05TSI                            WED 07/30/97 09:17 Page:55
     1753    17470    4               LEGAL_TEXTC.TEXT = FIRST_LEGAL$ -> P$LIT.TEXT;
     1754    17471
     1755    17472    4               SUBSTR (LEGAL_TEXTC.TEXT, FIRST_LEGAL$ -> P$LIT.ABREV) = '/';
     1756    17473    4               SUBSTR (LEGAL_TEXTC.TEXT, FIRST_LEGAL$ -> P$LIT.ABREV + 1) =
     1757    17474    4                 SUBSTR (FIRST_LEGAL$ -> P$LIT.TEXT, FIRST_LEGAL$ -> P$LIT.ABREV);
     1758    17475
     1759    17476    4           END;
     1760    17477
     1761    17478    3           GETCMD.F2_ = VECTOR (LEGAL_TEXTC);
     1762    17479
     1763    17480    3       END;
     1764    17481
     1765    17482    2       IF P$KEYWORDS.KEYWORD_COUNT = 0
     1766    17483    2       THEN
     1767    17484    2           GETCMD.ERR_CODE = XUG#NO_MATCH;
     1768    17485    2       ELSE
     1769    17486    2           IF QM_HIT
     1770    17487    2           THEN
     1771    17488    2               IF P$KEYWORDS.KEYWORD_COUNT = 1
     1772    17489    2               THEN
     1773    17490    2                   IF TEXTC.TEXT = FIRST_LEGAL$ -> P$LIT.TEXT
     1774    17491    2                   THEN
     1775    17492    2                       GETCMD.ERR_CODE = XUG#NO_OTHER_CHOICE;
     1776    17493    2                   ELSE
     1777    17494    2                       GETCMD.ERR_CODE = XUG#SINGLE_CHOICE;
     1778    17495    2               ELSE
     1779    17496    2                   GETCMD.ERR_CODE = XUG#MULTI_CHOICE;
     1780    17497    2           ELSE
     1781    17498    2               IF P$KEYWORDS.KEYWORD_COUNT = 1
     1782    17499    2               THEN
     1783    17500    2                   GETCMD.ERR_CODE = XUG#SINGLE_LEGAL;
     1784    17501    2               ELSE
     1785    17502    2                   GETCMD.ERR_CODE = XUG#MULTI_LEGAL;
     1786    17503
     1787    17504        /*E*  ERROR:   XUG-E$XUG#MULTI_LEGAL
     1788    17505              MESSAGE:"%U1" is not legal here.  You might have meant one of:
     1789    17506        */
PL6.E3A0      #001=XUG$COMMON File=XUG$COMMON.:E05TSI                            WED 07/30/97 09:17 Page:56
     1790    17507        /*E*  ERROR:   XUG-E$XUG#SINGLE_LEGAL
     1791    17508              MESSAGE:"%U1" is not legal here.  You might have meant "%U2", instead.
     1792    17509        */
     1793    17510        /*E*  ERROR:   XUG-E$XUG#MULTI_CHOICE
     1794    17511              MESSAGE:Legal words which resemble "%U1" include:
     1795    17512        */
     1796    17513        /*E*  ERROR:   XUG-E$XUG#SINGLE_CHOICE
     1797    17514              MESSAGE:The only legal word which resembles "%U1" is "%U2".
     1798    17515        */
     1799    17516        /*E*  ERROR:   XUG-E$XUG#NO_OTHER_CHOICE
     1800    17517              MESSAGE:"%U1" is legal here;  no other legal word resembles it.
     1801    17518        */
     1802    17519        /*E*  ERROR:   XUG-E$XUG#NO_MATCH
     1803    17520              MESSAGE:"%U1" does not resemble any word which is legal here.
     1804    17521        */
     1805    17522
     1806    17523    2       CALL XUG$ERRMSG_COMMON (GETCMD);
     1807    17524
     1808    17525    2       IF P$KEYWORDS.KEYWORD_COUNT > 1
     1809    17526    3       THEN DO;
     1810    17527
     1811    17528    3           P$KEYWORDS.KEYWORD_COUNT = KEYWORDS_FOUND;
     1812    17529
     1813    17530    3           CALL XUP$DMPCORRECTED (P_PCB);
     1814    17531
     1815    17532    3       END;
     1816    17533
     1817    17534    2       P_PCB.HI_CHAR = SAVED_HI_CHAR;
     1818    17535    2       P_PCB.WK_USED = SAVED_WK_USED;
     1819    17536    2       P_PCB.HINODE$ = SAVED_HINODE$;
     1820    17537
     1821    17538    2       IF P$KEYWORDS.KEYWORD_COUNT = 0
     1822    17539    2         AND NOT QM_HIT
     1823    17540    2       THEN
     1824    17541    2           RETURN;
     1825    17542    2       ELSE
     1826    17543    2           ALTRETURN;
PL6.E3A0      #001=XUG$COMMON File=XUG$COMMON.:E05TSI                            WED 07/30/97 09:17 Page:57
     1827    17544
     1828    17545    2   CORRECTION_FAILED:
     1829    17546
     1830    17547    2       P_PCB.HI_CHAR = SAVED_HI_CHAR;
     1831    17548    2       P_PCB.WK_USED = SAVED_WK_USED;
     1832    17549    2       P_PCB.HINODE$ = SAVED_HINODE$;
     1833    17550
     1834    17551    2       RETURN;
     1835    17552
     1836    17553    2   END SPELLING_CHECKER;
     1837    17554        %EJECT;
PL6.E3A0      #001=XUG$COMMON File=XUG$COMMON.:E05TSI                            WED 07/30/97 09:17 Page:58
     1838    17555    1   END XUG$COMMON;
     1839    17556        %EOD;

PL6.E3A0      #001=XUG$COMMON File=XUG$COMMON.:E05TSI                            WED 07/30/97 09:17 Page:59
--  Include file information  --

   B_SEGIDS_C.:E05TOU  is referenced.
   CP_6_SUBS.:E05TOU  is referenced.
   CP_6_C.:E05TOU  is referenced.
   CP_6.:E05TOU  cannot be made into a system file and is referenced.
   XU_DATA_R.:E05TOU  cannot be made into a system file and is referenced.
   XU_SUBS_C.:E05TOU  is referenced.
   XU_PERR_C.:E05TOU  is referenced.
   XT_MACRO_M.:TOOLE04  is referenced.
   XUH_MACRO_C.:E05TOU  is referenced.
   XU_MACRO_C.:E05TOU  is referenced.
   NK_VFC_C.:E05TOU  is referenced.
   B$TABLES_C.:E05TOU  cannot be made into a system file and is referenced.
   B$JIT_C.:E05TOU  is referenced.
   B$JIT.:E05TOU  cannot be made into a system file and is referenced.
      No diagnostics issued in procedure XUG$COMMON.

   Procedure XUG$COMMON requires 3442 words for executable code.
   Procedure XUG$COMMON requires 288 words of local(AUTO) storage.

PL6.E3A0      #001=XUG$COMMON File=XUG$COMMON.:E05TSI                            WED 07/30/97 09:17 Page:60

 Object Unit name= XUG$COMMON                                 File name= XUG$COMMON.:E05TOU
 UTS= JUL 30 '97 09:17:45.40 WED                              Compiler= PL-6/E31         Sev=      00
 SharedLib= :SHARED_SYSTEM                                    Alt SharedLib=


    ****  Control sections  ****

 Sect   Type Bound  Init  Size OctSiz  Section name(segment info)
    0  RoData even  UTS    236    354  XUG$COMMON
    1   DCB   even  none     0      0  M$UC
    2   Proc  even  none  3442   6562  XUG$COMMON
    3  RoData even  none    48     60  XUG$COMMON

    ****  Entry defs  ****

                              Check   Calling
                             calling  sequence
  Sect OctLoc Primary Altret sequence   type   Parms  Name
     2      0   yes    yes     yes      Std        2  XUG$COMMON
     2      6          yes     yes      Std        2  XUG$INIT_COMMON
     2    666          yes     yes      Std        1  XUG$MOREMEM
     2   1160          yes     yes      Std        1  XUG$GETCMD_COMMON
     2   3117          yes     yes      Std        1  XUG$GETMORE_COMMON
     2   3266          yes     yes      Std        1  XUG$ERRPTR_COMMON
     2   4136          yes     yes      Std        1  XUG$SINPUT
     2   4405          yes     yes      Std        1  XUG$ECHOIF_COMMON
     2   4472          yes     yes      Std        1  XUG$ECHO_COMMON
     2   5071          yes     yes      Std        1  XUG$SETPROMPT

  ****  Data defs  ****

 Sect OctLoc  Name                           Sect OctLoc  Name
    0    163  XUG#NOTCONTIGAREA                  0    164  XUG#AREANOTRTSZ
    0    165  XUG#CANTEXPAND                     0    210  XUG_INIT_C
PL6.E3A0      #001=XUG$COMMON File=XUG$COMMON.:E05TSI                            WED 07/30/97 09:17 Page:61

  ****  Entry refs  ****

         Check        Calling
        calling       sequence
Altret sequence SRef   type   Args  Name
         yes          ~proc      0 B_POINTER
         yes           Std       2 XUG$PRE_PROCESSOR
 yes     yes           Std       1 XUG$ECHOLAST_COMMON
         yes           Std       1 XUG$DISABLE_COMMON
 yes     yes           Std       1 XUG$PU
 yes     yes           Std       2 XUG$BLANK_PASSWORD_COMMON
 yes     yes           Std       1 XUG$BUILTIN_COMMON
         yes          ~proc      0 XU_DATA_D
 yes     yes           Std       1 XUG$SETLAST
 yes     yes           Std       1 XUG$ERRMSG_COMMON
         yes           Std       1 XUG$CLRENABLE_COMMON
 yes     yes           Std       3 XUG$READCMD_COMMON
 yes     yes           Std       2 XUG$CORRES_COMMON
 yes     yes           Std       5 XUS$CORRECT_SPELLING
 yes     yes           Std       2 XUG$GETDCB_COMMON
         yes           Std       0 X66_REL_AUTO
         yes           Std       2 XUG$PP_CMDVARS
 yes     yes           Std       1 X$PARSE
         yes           Std       2 XUG$OPENOUT_INTERNAL
         yes          ~proc      0 XU_OUTPUT_OPTIONS
         yes          ~proc      0 XUG_BUILTIN_N
         yes    yes    Std       1 XUP$DMPCORRECTED
                       nStd      0 X66_AUTO_2
                       Std       0 B_CONSPOOL_D
                       nStd      0 X66_AALT
                       nStd      0 X66_ARET
                       nStd      0 X66_AUNWIND
PL6.E3A0      #001=XUG$COMMON File=XUG$COMMON.:E05TSI                            WED 07/30/97 09:17 Page:62

  ****  Data refs  ****

  Flags:  r = read only, s = secondary
Flgs Name                             Flgs Name                             Flgs Name
r    XUP_SYMTBL                       r    B$XL_UPPER$                           M$UC
     XUG_NODES                        r    B$JIT$                           r    B$TCB$
     B_VECTNIL

  ****  Segment refs  ****

  Flags:  r = read only, s = secondary
Flgs Name                             Flgs Name                             Flgs Name
     NULLSID                               ISSID                                 ROSID
PL6.E3A0      #001=XUG$COMMON File=XUG$COMMON.:E05TSI                            WED 07/30/97 09:17 Page:63


        1        1        /*M* XUG$COMMON - COMMON COMMAND READING AND ERROR REPORTING ROUTINES */
        2        2        /*T***********************************************************/
        3        3        /*T*                                                         */
        4        4        /*T* Copyright (c) Bull HN Information Systems Inc., 1997    */
        5        5        /*T*                                                         */
        6        6        /*T***********************************************************/
        7        7        /*X* DMC,PLM=4,IND=4,CTI=2,DTI=0,ENI=0,ECI=0,CSI=0,MCI,DCI=4 */
        8        8        XUG$COMMON: PROC (GETCMD, XUG_INIT) ALTRET;

      8  2 000000   000000 700200 xent  XUG$COMMON   TSX0  ! X66_AUTO_2
         2 000001   000440 000002                    ZERO    288,2
         2 000002   000005 710000 2                  TRA     s:15914+1

        9        9        /**/
       10       10    1   DCL 1 VECBASE BASED,                    /* USED AS REDEF OF NODES */
       11       11    1         2 BOUND UBIN(20) UNAL,
       12       12    1         2 FLAGS BIT(16),
       13       13    1         2 P$ PTR;
       14       14    1   DCL PR$ PTR;
       15       15    1   DCL 1 PROMPT$C CALIGNED BASED(PR$),
       16       16    1         2 C CHAR(PSIZ);
       17       17    1   DCL PSIZ SBIN;
       18       18        %EJECT;
PL6.E3A0      #001=XUG$COMMON File=XUG$COMMON.:E05TSI                            WED 07/30/97 09:17 Page:64
       19       19    1   DCL X$PARSE ENTRY(1) ALTRET;
       20       20    1   DCL XUG$BLANK_PASSWORD_COMMON ENTRY(2) ALTRET ;
       21       21    1   DCL XUG$ERRMSG_COMMON ENTRY(1) ALTRET;
       22       22    1   DCL XUG$READCMD_COMMON ENTRY(3) ALTRET;
       23       23    1   DCL XUG$CORRES_COMMON ENTRY(2) ALTRET;
       24       24    1   DCL XUG$PU ENTRY(1) ALTRET ;
       25       25    1   DCL XUG$SETLAST ENTRY(1) ALTRET;
       26       26    1   DCL XUG$ECHOLAST_COMMON ENTRY(1) ALTRET;
       27       27    1   DCL XUG$DISABLE_COMMON ENTRY(1) ;
       28       28    1   DCL XUG$CLRENABLE_COMMON ENTRY(1) ;
       29       29    1   DCL XUG$GETDCB_COMMON ENTRY(2) ALTRET;
       30       30    1   DCL XUG$BUILTIN_COMMON ENTRY (1) ALTRET;
       31       31    1   DCL XUG$PRE_PROCESSOR ENTRY (2);
       32       32    1   DCL XUG$PP_CMDVARS ENTRY (2);
       33       33    1   DCL XUG$OPENOUT_INTERNAL ENTRY(2);
       34       34        /**/
       35       35        %INCLUDE B$JIT;
       36      638        %INCLUDE B$TABLES_C;
       37      746        %INCLUDE NK_VFC_C;
       38      820        %INCLUDE XU_MACRO_C;
       39     3926        %INCLUDE XUH_MACRO_C ;
       40     4010        %INCLUDE XT_MACRO_M;
       41     4336        %INCLUDE XU_PERR_C;
       42     4527        %INCLUDE XU_SUBS_C ;
       43     4619        %INCLUDE XU_DATA_R;
       44     4630        %B$XL_UPPER (NAME=TRANSTBL);
       45     4634        %P_PCB (STCLASS="BASED(P_PCB$)");
       46     4833        %P_PCB (STCLASS=CONSTANT,NAME=P_PCB_C);
       47     5032        %P$NODE (STCLASS=BASED);
       48     5126        %P$LIT (STCLASS=BASED, LEN="P$LIT.COUNT");
       49     5179        %PARSE$OUT (NAME=P$B, STCLASS=BASED) ;
       50     5224        %INCLUDE CP_6;
       51    10783        %INCLUDE CP_6_SUBS;
       52    11323        %INCLUDE B_SEGIDS_C ;
       53    11862        %F$DCB;
       54    11919        %MACRO TEXTC (NAME=NAME,T#='',STCLASS=CONSTANT);
       55    11920        DCL 1 NAME STCLASS,
PL6.E3A0      #001=XUG$COMMON File=XUG$COMMON.:E05TSI                            WED 07/30/97 09:17 Page:65
       56    11921              2 L UBIN BYTE UNAL INIT(SIZEC(T#)),
       57    11922              2 C CHAR(0) INIT(T#);
       58    11923        %MEND;
       59    11924        %TEXTC (NAME=M$SI,T#='M$SI');
       60    11929        %TEXTC (NAME=M$LO,T#='M$LO');
       61    11934        %SET GDSSIZ = 1024;
       62    11935        %FPT_GDS (FPTN=FPT_GDS_C, SEGSIZE=%GDSSIZ, STCLASS=CONSTANT);
       63    11951        %FPT_GDS (FPTN=FPT_GDS, STCLASS=AUTO);
       64    11967    1   DCL USER_GDSVEC VECTOR ;
       65    11968        %FPT_WRITE (WAIT=YES,STCLASS=CONSTANT,FPTN=FPT_WRITE_C);
       66    11999        %FPT_WRITE (STCLASS=AUTO);
       67    12030        %FPT_PROMPT (STCLASS=CONSTANT,FPTN=FPT_PROMPT_C);
       68    12058        %FPT_PROMPT (STCLASS=AUTO);
       69    12086        %FPT_OPEN (FPTN=FPT_OPEN_C, STCLASS=CONSTANT);
       70    12195        %FPT_OPEN (FPTN=FPT_OPEN, STCLASS=AUTO);
       71    12304        %FPT_SINPUT (FPTN=FPT_SINPUT_C, STCLASS=CONSTANT, POSITION=YES) ;
       72    12341        %FPT_SINPUT (FPTN=FPT_SINPUT, STCLASS=AUTO) ;
       73    12378        %FPT_MERC (FPTN=FPT_MERC, STCLASS=AUTO);
       74    12391        %FPT_MERC (FPTN=FPT_MERC_C, STCLASS=CONSTANT);
       75    12404        %VLP_ERRCODE (FPTN=XUG#SMALLWORK, STCLASS=CONSTANT,
       76    12405                      FCG=XU, MID=G, ERR#=%E$XUG#SMALLWORK, SEV=2) ;
       77    12450        %VLP_ERRCODE (FPTN=XUG#NOTCONTIGAREA, STCLASS="CONSTANT SYMDEF",
       78    12451                      FCG=XU, MID=G, ERR#=%E$XUG#NOTCONTIGAREA, SEV=2) ;
       79    12496        %VLP_ERRCODE (FPTN=XUG#AREANOTRTSZ, STCLASS="CONSTANT SYMDEF",
       80    12497                      FCG=XU, MID=G, ERR#=%E$XUG#AREANOTRTSZ, SEV=2) ;
       81    12542        %VLP_ERRCODE (FPTN=XUG#CANTEXPAND, STCLASS="CONSTANT SYMDEF",
       82    12543                      FCG=XU, MID=G, ERR#=%E$XUG#CANTEXPAND, SEV=2) ;
       83    12588        %VLP_ERRCODE (FPTN=XUG#PLERRMSG, STCLASS=CONSTANT,
       84    12589                      FCG=XU, MID=G, ERR#=%E$XUG#PLERRMSG, SEV=0) ;
       85    12634        %VLP_ERRCODE (FPTN=XUG#INCOR_PTD_XPND, STCLASS=CONSTANT,
       86    12635                      FCG=XU, MID=G, ERR#=%E$XUG#INCOR_PTD_XPND, SEV=0);
       87    12680        %VLP_ERRCODE (FPTN=XUG#INCOR_HERE_XPND, STCLASS=CONSTANT,
       88    12681                      FCG=XU, MID=G, ERR#=%E$XUG#INCOR_HERE_XPND, SEV=0) ;
       89    12726        %VLP_ERRCODE (FPTN=XUG#INCOR_HERE, STCLASS=CONSTANT,
       90    12727                      FCG=XU, MID=G, ERR#=%E$XUG#INCOR_HERE, SEV=0);
       91    12772        %VLP_ERRCODE (FPTN=XUG#NWALIGNED, STCLASS=CONSTANT,
       92    12773                      FCG=XU, MID=G, ERR#=%E$XUG#NWALIGNED, SEV=0) ;
PL6.E3A0      #001=XUG$COMMON File=XUG$COMMON.:E05TSI                            WED 07/30/97 09:17 Page:66
       93    12818        %VLP_ERRCODE (FPTN=XUG#LEGAL_INPUT_HERE, STCLASS=CONSTANT,
       94    12819                      FCG=XU, MID=G, ERR#=%E$XUG#LEGAL_INPUT_HERE, SEV=0);
       95    12864        %VLP_ERRCODE (FPTN=XUG#LEGAL_INPUT_QM, STCLASS=CONSTANT,
       96    12865                      FCG=XU, MID=G, ERR#=%E$XUG#LEGAL_INPUT_QM, SEV=0);
       97    12910        %VLP_ERRCODE (FPTN=XUG#SINGLE_LEGAL, STCLASS=CONSTANT,
       98    12911                      FCG=XU, MID=G, ERR#=%E$XUG#SINGLE_LEGAL, SEV=0);
       99    12956        %VLP_ERRCODE (FPTN=XUG#MULTI_LEGAL, STCLASS=CONSTANT,
      100    12957                      FCG=XU, MID=G, ERR#=%E$XUG#MULTI_LEGAL, SEV=0);
      101    13002        %VLP_ERRCODE (FPTN=XUG#SINGLE_CHOICE, STCLASS=CONSTANT,
      102    13003                      FCG=XU, MID=G, ERR#=%E$XUG#SINGLE_CHOICE, SEV=0);
      103    13048        %VLP_ERRCODE (FPTN=XUG#MULTI_CHOICE, STCLASS=CONSTANT,
      104    13049                      FCG=XU, MID=G, ERR#=%E$XUG#MULTI_CHOICE, SEV=0);
      105    13094        %VLP_ERRCODE (FPTN=XUG#NO_OTHER_CHOICE, STCLASS=CONSTANT,
      106    13095                      FCG=XU, MID=G, ERR#=%E$XUG#NO_OTHER_CHOICE, SEV=0);
      107    13140        %VLP_ERRCODE (FPTN=XUG#NO_MATCH, STCLASS=CONSTANT,
      108    13141                      FCG=XU, MID=G, ERR#=%E$XUG#NO_MATCH, SEV=0);
      109    13186        %VLP_ERRCODE (FPTN=XUG#FOLLOWED_BY, STCLASS=CONSTANT,
      110    13187                      FCG=XU, MID=G, ERR#=%E$XUG#FOLLOWED_BY, SEV=0);
      111    13232        %VLP_ERRCODE (FPTN=XUG#NULLROOT, STCLASS=CONSTANT,
      112    13233                      FCG=XU, MID=G, ERR#=%E$NULLROOT, SEV=0);
      113    13278        %VLP_ERRCODE (FPTN=XUG#PRE_C00, STCLASS=CONSTANT,
      114    13279                      FCG=XU, MID=G, ERR#=%E$PCB_PRE_C00, SEV=0);
      115    13324        %VLP_ERRCODE (FPTN=XUG#LINETOOLONG, STCLASS=CONSTANT,
      116    13325                      FCG=XU, MID=G, ERR#=%E$XUG#LINETOOLONG, SEV=0);
      117    13370        %VLP_ERRCODE (FPTN=TEMP_ERR, STCLASS=AUTO) ;
      118    13415    1   DCL XUG_NODES UBIN WORD SYMREF ;
      119    13416    1   DCL XUG_BUILTIN_N UBIN WORD SYMREF ;
      120    13417    1   DCL XUP$DMPCORRECTED ENTRY (1) OPTIONAL;
      121    13418    1   DCL XUS$CORRECT_SPELLING ENTRY (5) ALTRET;
      122    13419    1   DCL X66_REL_AUTO ENTRY;
      123    13420        %EJECT;
PL6.E3A0      #001=XUG$COMMON File=XUG$COMMON.:E05TSI                            WED 07/30/97 09:17 Page:67
      124    13421        %XUG_PARAMS ;
      125    13865        %XUG_GETCMD (NAME=GETCMD, STCLASS=PARAM) ;
      126    14203        %XUG_INIT (NAME=XUG_INIT, STCLASS=PARAM) ;
      127    14616        %XUG_INIT (NAME = XUG_INIT_C,STCLASS="CONSTANT SYMDEF",ADAPT=NIL);
      128    15029        %XUG_INIT (NAME = XUG_INIT_A,STCLASS=AUTO);
      129    15442        %XUG_RLT (NAME=RLT) ;
      130    15449        %XUH_PARAM (NAME=XUH_PARAM_C, STCLASS=CONSTANT) ;
      131    15510        %XT_PARAM (NAME=XT_PARAM, STCLASS="BASED(XT$)");
      132    15823        %EJECT;
PL6.E3A0      #001=XUG$COMMON File=XUG$COMMON.:E05TSI                            WED 07/30/97 09:17 Page:68
      133    15824    1   DCL XUG$ PTR ;
      134    15825    1   DCL XT$ PTR;
      135    15826    1   DCL XT_ VECTOR;
      136    15827    1   DCL P_PCB$ PTR ;
      137    15828    1   DCL ROOT$ PTR ;
      138    15829    1   DCL NODES$ PTR ;
      139    15830    1   DCL DUMMY$ PTR ;
      140    15831    1   DCL TEXT$ PTR ;
      141    15832    1   DCL TO$ PTR ;
      142    15833    1   DCL 1 SEG$ PTR ;
      143    15834    1   DCL 1 RSEG REDEF SEG$,
      144    15835    1         2 OFFSET UBIN(24) UNAL,
      145    15836    1         2 SID BIT(12) UNAL ;
      146    15837    1   DCL GDSVEC VECTOR ;
      147    15838    1   DCL XUG_OWNS_MEMORY BIT(1) ;
      148    15839    1   DCL STATIC_SZ SBIN WORD ;
      149    15840    1   DCL WORK_SZ SBIN WORD ;
      150    15841    1   DCL RLT_SZ SBIN ;
      151    15842    1   DCL WOFF SBIN ;
      152    15843    1   DCL WBUFSZ SBIN ;
      153    15844    1   DCL ARS SBIN;
      154    15845    1   DCL PROMPT_FLG BIT(1) ALIGNED;
      155    15846    1   DCL ERRPTR_FLG BIT(1) ;
      156    15847    1   DCL TWOCHARS CHAR(2);
      157    15848    1   DCL I SBIN;
      158    15849    1   DCL J SBIN;
      159    15850    1   DCL EPOS SBIN;
      160    15851    1   DCL TPOS SBIN;
      161    15852    1   DCL CSIZE SBIN;
      162    15853    1   DCL TCSIZE SBIN ;
      163    15854    1   DCL POFF SBIN WORD ;
      164    15855    1   DCL CHUNK_SIZE SBIN;
      165    15856    1   DCL OFFSET SBIN;
      166    15857    1   DCL OUTPUT_COUNT SBIN;
      167    15858    1   DCL OUTPUT_WIDTH SBIN;
      168    15859    1   DCL PROMPT_BUF CHAR(94) ;
      169    15860    1   DCL FIRST SBIN ;
PL6.E3A0      #001=XUG$COMMON File=XUG$COMMON.:E05TSI                            WED 07/30/97 09:17 Page:69
      170    15861    1   DCL LAST SBIN ;
      171    15862    1   DCL SAVE_PROMPT_ VECTOR;
      172    15863    1   DCL SAVE_RPROMPT_ VECTOR;
      173    15864    1   DCL SAVE_PROMPT_VFC BIT(1);
      174    15865    1   DCL SAVE_ERR BIT(36) ;
      175    15866    1   DCL SAVE_DCB UBIN WORD ;
      176    15867    1   DCL SAVE_F1 VECTOR;
      177    15868    1   DCL SAVE_F2 VECTOR;
      178    15869    1   DCL 1 FIELD1 ALIGNED,
      179    15870    1         2 CNT UBIN BYTE CALIGNED,
      180    15871    1         2 TXT CHAR(20) CALIGNED ;
      181    15872    1   DCL 1 FIELD2 ALIGNED,
      182    15873    1         2 CNT UBIN BYTE CALIGNED,
      183    15874    1         2 TXT CHAR(20) CALIGNED ;
      184    15875        /*
      185    15876        */
      186    15877    1   DCL CHARBASE CHAR(CSIZE) BASED;
      187    15878    1   DCL CHARARRAY(0:0) CHAR(1) BASED;
      188    15879    1   DCL UBIN$BUF9 UBIN(9) UNAL BASED ;
      189    15880    1   DCL P$ PTR BASED;
      190    15881    1   DCL INBUF CHAR(1024) BASED;
      191    15882    1   DCL 1 VEC$BUF BASED (SEG$) CHAR(CNT) ;
      192    15883    1   DCL OFF$ PTR ;
      193    15884    1   DCL DIFF SBIN ;
      194    15885    1   DCL CNT SBIN WORD ;
      195    15886    1   DCL OUTDCB# UBIN WORD ;
      196    15887    1   DCL B$JIT$ PTR SYMREF READONLY;
      197    15888    1   DCL B$TCB$ PTR SYMREF READONLY;
      198    15889        %B$TCB (STCLASS="BASED(B$TCB$)") ;
      199    15892        %B$ALT;
      200    15900        %EQU XUG_DFLT_WKSZ = 200 ;
      201    15901        %EQU EXPND_PARSEWK = 800 ;
      202    15902
      203    15903        /* Generate CONV(5) entries to force :LIB loading of parse
      204    15904           nodes and the like when necessary.  Bury these DCLs inside a
      205    15905           dummy PROC so that they don't conflict with SYMREFs referencing
      206    15906           the same names.
PL6.E3A0      #001=XUG$COMMON File=XUG$COMMON.:E05TSI                            WED 07/30/97 09:17 Page:70
      207    15907        */
      208    15908
      209    15909    1   GENERATE_CONV_5_ENTREFS: PROC;

  15909  2 000003   200352 741300       GENERATE_CO* STX1  ! OUTDCB#+1,,AUTO

      210    15910
      211    15911    2   DCL XU_OUTPUT_OPTIONS ENTRY CONV (5);
      212    15912    2   DCL XUG_BUILTIN_N ENTRY CONV (5);
      213    15913
      214    15914    2   END GENERATE_CONV_5_ENTREFS;

  15914  2 000004   000001 702211                    TSX2  ! 1,X1
         2 000005   000010 710000 2                  TRA     s:15919

      215    15915
      216    15916        %EJECT;
PL6.E3A0      #001=XUG$COMMON File=XUG$COMMON.:E05TSI                            WED 07/30/97 09:17 Page:71
      217    15917    1   XUG$INIT_COMMON: ENTRY (GETCMD, XUG_INIT) ALTRET;

  15917  2 000006   000000 700200 xent  XUG$INIT_CO* TSX0  ! X66_AUTO_2
         2 000007   000440 000002                    ZERO    288,2

      218    15918
      219    15919    1       IF GETCMD.WORK$ = ADDR (NIL)

  15919  2 000010   200003 470500                    LDP0    @GETCMD,,AUTO
         2 000011   000004 236100                    LDQ     4,,PR0
         2 000012   000001 116000 xsym               CMPQ    B_VECTNIL+1
         2 000013   000415 601000 2                  TNZ     s:16037

      220    15920    2       THEN DO;

      221    15921    2           IF VBASE(XUG_INIT.WORK_) ~= ADDR(NIL)

  15921  2 000014   200004 471500                    LDP1    @XUG_INIT,,AUTO
         2 000015   100016 236100                    LDQ     14,,PR1
         2 000016   000001 116000 xsym               CMPQ    B_VECTNIL+1
         2 000017   000053 600000 2                  TZE     s:15941

      222    15922    3           THEN DO;

      223    15923    3               IF VBOUND(XUG_INIT.WORK_) < (500 * 4 - 1)

  15923  2 000020   100015 236100                    LDQ     13,,PR1
         2 000021   000034 376000 xsym               ANQ     B_VECTNIL+28
         2 000022   000000 116000 3                  CMPQ    0
         2 000023   000027 603000 2                  TRC     s:15929

      224    15924    3               THEN
      225    15925    4               DO ;

      226    15926    4                   GETCMD.ERR# = XUG#SMALLWORK ;

  15926  2 000024   000162 236000 0                  LDQ     XUG#SMALLWORK
PL6.E3A0      #001=XUG$COMMON File=XUG$COMMON.:E05TSI                            WED 07/30/97 09:17 Page:72
         2 000025   000001 756100                    STQ     1,,PR0

      227    15927    4                   ALTRETURN ;

  15927  2 000026   000000 702200 xent               TSX2  ! X66_AALT

      228    15928    4               END ; /* Then Do */
      229    15929    3               OFF$ = PALIGNW(VBASE(XUG_INIT.WORK_)) ;

  15929  2 000027   100016 236100                    LDQ     14,,PR1
         2 000030   770000 036007                    ADLQ    -4096,DL
         2 000031   000001 376000 3                  ANQ     1
         2 000032   200346 756100                    STQ     OFF$,,AUTO

      230    15930    3               DIFF = POFFC(OFF$, VBASE(XUG_INIT.WORK_)) ;

  15930  2 000033   100016 236100                    LDQ     14,,PR1
         2 000034   000020 772000                    QRL     16
         2 000035   200432 756100                    STQ     LEGAL_TEXTC+17,,AUTO
         2 000036   200346 236100                    LDQ     OFF$,,AUTO
         2 000037   000020 772000                    QRL     16
         2 000040   200432 136100                    SBLQ    LEGAL_TEXTC+17,,AUTO
         2 000041   200347 756100                    STQ     DIFF,,AUTO

      231    15931    3               IF DIFF ~= 0

  15931  2 000042   000046 600000 2                  TZE     s:15937

      232    15932    3               THEN
      233    15933    4               DO ;

      234    15934    4                   GETCMD.ERR# = XUG#NWALIGNED ;

  15934  2 000043   000172 236000 0                  LDQ     XUG#NWALIGNED
         2 000044   000001 756100                    STQ     1,,PR0

      235    15935    4                   ALTRETURN ;
PL6.E3A0      #001=XUG$COMMON File=XUG$COMMON.:E05TSI                            WED 07/30/97 09:17 Page:73

  15935  2 000045   000000 702200 xent               TSX2  ! X66_AALT

      236    15936    4               END ; /* Then Do */
      237    15937    3               GDSVEC = XUG_INIT.WORK_;

  15937  2 000046   000100 100500                    MLR     fill='000'O
         2 000047   100015 000010                    ADSC9   13,,PR1                  cn=0,n=8
         2 000050   200234 000010                    ADSC9   GDSVEC,,AUTO             cn=0,n=8

      238    15938    3               XUG_OWNS_MEMORY = %NO#;

  15938  2 000051   200236 450100                    STZ     XUG_OWNS_MEMORY,,AUTO

      239    15939    3           END;

  15939  2 000052   000175 710000 2                  TRA     s:15985

      240    15940    3           ELSE DO;

      241    15941    3               FPT_GDS = FPT_GDS_C ;

  15941  2 000053   000100 100400                    MLR     fill='000'O
         2 000054   000022 000030 0                  ADSC9   FPT_GDS_C                cn=0,n=24
         2 000055   200010 000030                    ADSC9   FPT_GDS,,AUTO            cn=0,n=24

      242    15942    3               FPT_GDS.V_ = VECTOR(FPT_GDS.V) ;

  15942  2 000056   000002 235000 3                  LDA     2
         2 000057   200432 452500                    STP2    LEGAL_TEXTC+17,,AUTO
         2 000060   200432 236100                    LDQ     LEGAL_TEXTC+17,,AUTO
         2 000061   000014 036003                    ADLQ    12,DU
         2 000062   200010 757100                    STAQ    FPT_GDS,,AUTO

      243    15943    3               FPT_GDS.RESULTS_ = VECTOR(GDSVEC) ;

  15943  2 000063   000002 235000 3                  LDA     2
PL6.E3A0      #001=XUG$COMMON File=XUG$COMMON.:E05TSI                            WED 07/30/97 09:17 Page:74
         2 000064   200432 452500                    STP2    LEGAL_TEXTC+17,,AUTO
         2 000065   200432 236100                    LDQ     LEGAL_TEXTC+17,,AUTO
         2 000066   000234 036003                    ADLQ    156,DU
         2 000067   200012 757100                    STAQ    FPT_GDS+2,,AUTO

      244    15944    3               GDSVEC = VECTOR(NIL) ;

  15944  2 000070   000004 237000 3                  LDAQ    4
         2 000071   200234 757100                    STAQ    GDSVEC,,AUTO

      245    15945    3               RSEG = '0'B ;

  15945  2 000072   200232 450100                    STZ     SEG$,,AUTO

      246    15946    4               DO CASE (XUG_INIT.WSEG#) ;

  15946  2 000073   100025 720100                    LXL0    21,,PR1
         2 000074   000777 360003                    ANX0    511,DU
         2 000075   000011 100003                    CMPX0   9,DU
         2 000076   000100 602010 2                  TNC     s:15946+5,X0
         2 000077   000136 710000 2                  TRA     s:15970
         2 000100   000111 710000 2                  TRA     s:15949
         2 000101   000136 710000 2                  TRA     s:15970
         2 000102   000136 710000 2                  TRA     s:15970
         2 000103   000114 710000 2                  TRA     s:15952
         2 000104   000117 710000 2                  TRA     s:15955
         2 000105   000122 710000 2                  TRA     s:15958
         2 000106   000125 710000 2                  TRA     s:15961
         2 000107   000130 710000 2                  TRA     s:15964
         2 000110   000133 710000 2                  TRA     s:15967

      247    15947
      248    15948    4               CASE(0) ;               /* Next available */

      249    15949    4                   RSEG.SID = %NULLSID ;

  15949  2 000111   006014 236007                    LDQ     3084,DL
PL6.E3A0      #001=XUG$COMMON File=XUG$COMMON.:E05TSI                            WED 07/30/97 09:17 Page:75
         2 000112   200232 752103                    STCQ    SEG$,'03'O,AUTO
         2 000113   000140 710000 2                  TRA     s:15973

      250    15950
      251    15951    4               CASE(3) ;

      252    15952    4                   RSEG.SID = %DS3SID ;

  15952  2 000114   006006 236007                    LDQ     3078,DL
         2 000115   200232 752103                    STCQ    SEG$,'03'O,AUTO
         2 000116   000140 710000 2                  TRA     s:15973

      253    15953
      254    15954    4               CASE(4) ;

      255    15955    4                   RSEG.SID = %DS4SID ;

  15955  2 000117   006007 236007                    LDQ     3079,DL
         2 000120   200232 752103                    STCQ    SEG$,'03'O,AUTO
         2 000121   000140 710000 2                  TRA     s:15973

      256    15956
      257    15957    4               CASE(5) ;

      258    15958    4                   RSEG.SID = %DS5SID ;

  15958  2 000122   006010 236007                    LDQ     3080,DL
         2 000123   200232 752103                    STCQ    SEG$,'03'O,AUTO
         2 000124   000140 710000 2                  TRA     s:15973

      259    15959
      260    15960    4               CASE(6) ;

      261    15961    4                   RSEG.SID = %DS6SID ;

  15961  2 000125   006011 236007                    LDQ     3081,DL
         2 000126   200232 752103                    STCQ    SEG$,'03'O,AUTO
PL6.E3A0      #001=XUG$COMMON File=XUG$COMMON.:E05TSI                            WED 07/30/97 09:17 Page:76
         2 000127   000140 710000 2                  TRA     s:15973

      262    15962
      263    15963    4               CASE(7) ;

      264    15964    4                   RSEG.SID = %DS7SID ;

  15964  2 000130   006012 236007                    LDQ     3082,DL
         2 000131   200232 752103                    STCQ    SEG$,'03'O,AUTO
         2 000132   000140 710000 2                  TRA     s:15973

      265    15965
      266    15966    4               CASE(8) ;

      267    15967    4                   RSEG.SID = %DS8SID ;

  15967  2 000133   006013 236007                    LDQ     3083,DL
         2 000134   200232 752103                    STCQ    SEG$,'03'O,AUTO
         2 000135   000140 710000 2                  TRA     s:15973

      268    15968
      269    15969    4               CASE(ELSE) ;

      270    15970    4                   RSEG.SID = %NULLSID ;

  15970  2 000136   006014 236007                    LDQ     3084,DL
         2 000137   200232 752103                    STCQ    SEG$,'03'O,AUTO

      271    15971
      272    15972    4               END ;                   /* Do Case */

      273    15973    3               VBASE(GDSVEC) = SEG$ ;

  15973  2 000140   200232 236100                    LDQ     SEG$,,AUTO
         2 000141   200235 756100                    STQ     GDSVEC+1,,AUTO

      274    15974    3               CALL M$GDS (FPT_GDS)
PL6.E3A0      #001=XUG$COMMON File=XUG$COMMON.:E05TSI                            WED 07/30/97 09:17 Page:77

  15974  2 000142   200010 630500                    EPPR0   FPT_GDS,,AUTO
         2 000143   430001 713400                    CLIMB   alt,gds
         2 000144   400400 401760                    pmme    nvectors=2
         2 000145   000147 702000 2                  TSX2    s:15976
         2 000146   000173 710000 2                  TRA     s:15983

      275    15975    4               WHENALTRETURN DO;

      276    15976    4                   TEMP_ERR = B$TCB.ALT$ -> B$ALT.ERR;

  15976  2 000147   000000 470400 xsym               LDP0    B$TCB$
         2 000150   000000 471500                    LDP1    0,,PR0
         2 000151   100102 236100                    LDQ     66,,PR1
         2 000152   200152 756100                    STQ     TEMP_ERR,,AUTO

      277    15977    4                   TEMP_ERR.SEV = 4;

  15977  2 000153   000003 376000 3                  ANQ     3
         2 000154   000004 276007                    ORQ     4,DL
         2 000155   200152 756100                    STQ     TEMP_ERR,,AUTO

      278    15978    4                   FPT_MERC = FPT_MERC_C;

  15978  2 000156   000160 237000 0                  LDAQ    FPT_MERC_C
         2 000157   200150 757100                    STAQ    FPT_MERC,,AUTO

      279    15979    4                   FPT_MERC.JERR_ = VECTOR (TEMP_ERR);

  15979  2 000160   777640 235007                    LDA     -96,DL
         2 000161   200432 452500                    STP2    LEGAL_TEXTC+17,,AUTO
         2 000162   200432 236100                    LDQ     LEGAL_TEXTC+17,,AUTO
         2 000163   000152 036003                    ADLQ    106,DU
         2 000164   200150 757100                    STAQ    FPT_MERC,,AUTO

      280    15980    4                   CALL M$MERC (FPT_MERC) ALTRET (MERC_PROBLEM);

PL6.E3A0      #001=XUG$COMMON File=XUG$COMMON.:E05TSI                            WED 07/30/97 09:17 Page:78
  15980  2 000165   200150 630500                    EPPR0   FPT_MERC,,AUTO
         2 000166   410007 713400                    CLIMB   alt,+4103
         2 000167   400000 401760                    pmme    nvectors=1
         2 000170   000171 702000 2                  TSX2    MERC_PROBLEM

      281    15981    4   MERC_PROBLEM:   CALL M$ERR;

  15981  2 000171   000002 713400       MERC_PROBLEM CLIMB   err
         2 000172   000000 401760                    pmme    nvectors=0

      282    15982    4               END;

      283    15983    3               XUG_OWNS_MEMORY = %YES#;

  15983  2 000173   400000 236003                    LDQ     -131072,DU
         2 000174   200236 756100                    STQ     XUG_OWNS_MEMORY,,AUTO

      284    15984    3           END;

      285    15985    2           XUG$ = VBASE(GDSVEC) ;

  15985  2 000175   200235 236100                    LDQ     GDSVEC+1,,AUTO
         2 000176   200220 756100                    STQ     XUG$,,AUTO

      286    15986    2           GETCMD.WORK$ = XUG$ ;

  15986  2 000177   200003 470500                    LDP0    @GETCMD,,AUTO
         2 000200   000004 756100                    STQ     4,,PR0

      287    15987    2           XUG = '0'B;

  15987  2 000201   200220 471500                    LDP1    XUG$,,AUTO
         2 000202   000100 100400                    MLR     fill='000'O
         2 000203   000002 000001 xsym               ADSC9   B_VECTNIL+2              cn=0,n=1
         2 000204   100000 002054                    ADSC9   0,,PR1                   cn=0,n=1068

      288    15988    2           XUG.GDSVEC = GDSVEC ;
PL6.E3A0      #001=XUG$COMMON File=XUG$COMMON.:E05TSI                            WED 07/30/97 09:17 Page:79

  15988  2 000205   200234 237100                    LDAQ    GDSVEC,,AUTO
         2 000206   100006 757100                    STAQ    6,,PR1

      289    15989    2           XUG.XUG_OWNS_MEMORY = XUG_OWNS_MEMORY ;

  15989  2 000207   200236 236100                    LDQ     XUG_OWNS_MEMORY,,AUTO
         2 000210   000012 772000                    QRL     10
         2 000211   100071 676100                    ERQ     57,,PR1
         2 000212   000200 376003                    ANQ     128,DU
         2 000213   100071 656100                    ERSQ    57,,PR1

      290    15990    2           STATIC_SZ = SIZEC(P_PCB) + SIZEC(XUG) + SIZEC(XT_PARAM);

  15990  2 000214   002350 236007                    LDQ     1256,DL
         2 000215   200237 756100                    STQ     STATIC_SZ,,AUTO

      291    15991    2           IF MOD(STATIC_SZ, 8) ~= 0

  15991  2 000216   000010 506007                    DIV     8,DL
         2 000217   000044 733000                    LRS     36
         2 000220   000000 116003                    CMPQ    0,DU
         2 000221   000231 600000 2                  TZE     s:15993

      292    15992    2           THEN STATIC_SZ = STATIC_SZ + (8 - MOD(STATIC_SZ, 8)) ;

  15992  2 000222   200237 236100                    LDQ     STATIC_SZ,,AUTO
         2 000223   000010 506007                    DIV     8,DL
         2 000224   200432 755100                    STA     LEGAL_TEXTC+17,,AUTO
         2 000225   200237 236100                    LDQ     STATIC_SZ,,AUTO
         2 000226   200432 136100                    SBLQ    LEGAL_TEXTC+17,,AUTO
         2 000227   000010 036007                    ADLQ    8,DL
         2 000230   200237 756100                    STQ     STATIC_SZ,,AUTO

      293    15993    2           RLT_SZ = (XUG_INIT.INIT_NRECS# * SIZEC(RLT(0))) ;

  15993  2 000231   200004 473500                    LDP3    @XUG_INIT,,AUTO
PL6.E3A0      #001=XUG$COMMON File=XUG$COMMON.:E05TSI                            WED 07/30/97 09:17 Page:80
         2 000232   300024 236100                    LDQ     20,,PR3
         2 000233   777777 376007                    ANQ     -1,DL
         2 000234   200241 756100                    STQ     RLT_SZ,,AUTO

      294    15994    2           IF MOD(RLT_SZ, 8) ~= 0

  15994  2 000235   000010 506007                    DIV     8,DL
         2 000236   000044 733000                    LRS     36
         2 000237   000000 116003                    CMPQ    0,DU
         2 000240   000250 600000 2                  TZE     SETUP_WORK

      295    15995    2           THEN RLT_SZ = RLT_SZ + (8 - MOD(RLT_SZ, 8)) ;

  15995  2 000241   200241 236100                    LDQ     RLT_SZ,,AUTO
         2 000242   000010 506007                    DIV     8,DL
         2 000243   200432 755100                    STA     LEGAL_TEXTC+17,,AUTO
         2 000244   200241 236100                    LDQ     RLT_SZ,,AUTO
         2 000245   200432 136100                    SBLQ    LEGAL_TEXTC+17,,AUTO
         2 000246   000010 036007                    ADLQ    8,DL
         2 000247   200241 756100                    STQ     RLT_SZ,,AUTO

      296    15996    2   SETUP_WORK:
      297    15997    2           WORK_SZ = VBOUND(GDSVEC) - STATIC_SZ - RLT_SZ ;

  15997  2 000250   200234 236100       SETUP_WORK   LDQ     GDSVEC,,AUTO
         2 000251   000020 772000                    QRL     16
         2 000252   200237 136100                    SBLQ    STATIC_SZ,,AUTO
         2 000253   200241 136100                    SBLQ    RLT_SZ,,AUTO
         2 000254   200240 756100                    STQ     WORK_SZ,,AUTO

      298    15998    2           IF WORK_SZ <= XUG_INIT.CMDSZ# + %XUG_DFLT_WKSZ

  15998  2 000255   200004 470500                    LDP0    @XUG_INIT,,AUTO
         2 000256   000023 236100                    LDQ     19,,PR0
         2 000257   000310 036007                    ADLQ    200,DL
         2 000260   000263 604000 2                  TMI     s:16000
         2 000261   200240 116100                    CMPQ    WORK_SZ,,AUTO
PL6.E3A0      #001=XUG$COMMON File=XUG$COMMON.:E05TSI                            WED 07/30/97 09:17 Page:81
         2 000262   000276 604000 2                  TMI     s:16017

      299    15999    2           THEN
      300    16000    2               IF XUG_OWNS_MEMORY

  16000  2 000263   200236 234100                    SZN     XUG_OWNS_MEMORY,,AUTO
         2 000264   000272 605000 2                  TPL     s:16006

      301    16001    3               THEN DO ;

      302    16002    3                   CALL M$GDS (FPT_GDS) ALTRET (MALT) ;

  16002  2 000265   200010 630500                    EPPR0   FPT_GDS,,AUTO
         2 000266   430001 713400                    CLIMB   alt,gds
         2 000267   400400 401760                    pmme    nvectors=2
         2 000270   002543 702000 2                  TSX2    MALT

      303    16003    3                   GOTO SETUP_WORK ;

  16003  2 000271   000250 710000 2                  TRA     SETUP_WORK

      304    16004    3               END ;                  /* Then Do */
      305    16005    3               ELSE DO ;

      306    16006    3                   GETCMD.ERR# = XUG#SMALLWORK ;

  16006  2 000272   000162 236000 0                  LDQ     XUG#SMALLWORK
         2 000273   200003 471500                    LDP1    @GETCMD,,AUTO
         2 000274   100001 756100                    STQ     1,,PR1

      307    16007    3                   ALTRETURN ;

  16007  2 000275   000000 702200 xent               TSX2  ! X66_AALT

      308    16008    3               END ;                  /* Else Do */
      309    16009        /*E*  ERROR:    XUG-E$XUG#SMALLWORK
      310    16010              MESSAGE0: Work area too small for XUG$INIT to initialize.  Unable
PL6.E3A0      #001=XUG$COMMON File=XUG$COMMON.:E05TSI                            WED 07/30/97 09:17 Page:82
      311    16011                        to continue.
      312    16012        */
      313    16013        /*E*  ERROR:    XUG-E$XUG#NWALIGNED
      314    16014              MESSAGE0: Work area is not WORD ALIGNED and XUG$INIT can not continue.
      315    16015                        Initialization aborted.
      316    16016        */
      317    16017    2           SEG$ = PINCRC(XUG$, STATIC_SZ) ;

  16017  2 000276   200237 236100                    LDQ     STATIC_SZ,,AUTO
         2 000277   000020 736000                    QLS     16
         2 000300   200220 036100                    ADLQ    XUG$,,AUTO
         2 000301   200232 756100                    STQ     SEG$,,AUTO

      318    16018    2           CNT = WORK_SZ / 2 ;

  16018  2 000302   200240 236100                    LDQ     WORK_SZ,,AUTO
         2 000303   000002 506007                    DIV     2,DL
         2 000304   200350 756100                    STQ     CNT,,AUTO

      319    16019    2           XUG.PARSEVEC = VECTOR(VEC$BUF) ;

  16019  2 000305   200350 235100                    LDA     CNT,,AUTO
         2 000306   000020 735000                    ALS     16
         2 000307   000140 135007                    SBLA    96,DL
         2 000310   200232 236100                    LDQ     SEG$,,AUTO
         2 000311   200220 471500                    LDP1    XUG$,,AUTO
         2 000312   100010 757100                    STAQ    8,,PR1

      320    16020    2           SEG$ = PINCRC(SEG$, CNT) ;

  16020  2 000313   200350 236100                    LDQ     CNT,,AUTO
         2 000314   000020 736000                    QLS     16
         2 000315   200232 036100                    ADLQ    SEG$,,AUTO
         2 000316   200232 756100                    STQ     SEG$,,AUTO

      321    16021    2           OFF$ = PALIGNW(SEG$) ;

PL6.E3A0      #001=XUG$COMMON File=XUG$COMMON.:E05TSI                            WED 07/30/97 09:17 Page:83
  16021  2 000317   770000 036007                    ADLQ    -4096,DL
         2 000320   000001 376000 3                  ANQ     1
         2 000321   200346 756100                    STQ     OFF$,,AUTO

      322    16022    2           DIFF = POFFC(OFF$, SEG$) ;

  16022  2 000322   200232 236100                    LDQ     SEG$,,AUTO
         2 000323   000020 772000                    QRL     16
         2 000324   200432 756100                    STQ     LEGAL_TEXTC+17,,AUTO
         2 000325   200346 236100                    LDQ     OFF$,,AUTO
         2 000326   000020 772000                    QRL     16
         2 000327   200432 136100                    SBLQ    LEGAL_TEXTC+17,,AUTO
         2 000330   200347 756100                    STQ     DIFF,,AUTO

      323    16023    2           XUG.RLTVEC = VECTOR(OFF$ -> RLT(0)) ;

  16023  2 000331   177640 235007                    LDA     65440,DL
         2 000332   200346 236100                    LDQ     OFF$,,AUTO
         2 000333   100012 757100                    STAQ    10,,PR1

      324    16024    2           VBOUND(XUG.RLTVEC) = RLT_SZ - 1 ;

  16024  2 000334   200241 236100                    LDQ     RLT_SZ,,AUTO
         2 000335   000001 136007                    SBLQ    1,DL
         2 000336   000020 736000                    QLS     16
         2 000337   100012 676100                    ERQ     10,,PR1
         2 000340   000034 376000 xsym               ANQ     B_VECTNIL+28
         2 000341   100012 656100                    ERSQ    10,,PR1

      325    16025    2           CNT = CNT - DIFF ;

  16025  2 000342   200350 236100                    LDQ     CNT,,AUTO
         2 000343   200347 136100                    SBLQ    DIFF,,AUTO
         2 000344   200350 756100                    STQ     CNT,,AUTO

      326    16026    2           WORK_SZ = CNT ;

PL6.E3A0      #001=XUG$COMMON File=XUG$COMMON.:E05TSI                            WED 07/30/97 09:17 Page:84
  16026  2 000345   200240 756100                    STQ     WORK_SZ,,AUTO

      327    16027    2           XUG.RLTCNT = XUG_INIT.INIT_NRECS# ;

  16027  2 000346   000024 236100                    LDQ     20,,PR0
         2 000347   777777 376007                    ANQ     -1,DL
         2 000350   100107 756100                    STQ     71,,PR1

      328    16028    2           XUG.NLINES = 0 ;

  16028  2 000351   100106 450100                    STZ     70,,PR1

      329    16029    2           CNT = WORK_SZ - 4 ;

  16029  2 000352   200240 235100                    LDA     WORK_SZ,,AUTO
         2 000353   000004 135007                    SBLA    4,DL
         2 000354   200350 755100                    STA     CNT,,AUTO

      330    16030    2           SEG$ = PINCRC(VBASE(XUG.RLTVEC), RLT_SZ + 4) ;

  16030  2 000355   100013 473500                    LDP3    11,,PR1
         2 000356   200241 236100                    LDQ     RLT_SZ,,AUTO
         2 000357   000011 402007                    MPY     9,DL
         2 000360   000000 116003                    CMPQ    0,DU
         2 000361   000363 605000 2                  TPL     s:16030+6
         2 000362   000044 036003                    ADLQ    36,DU
         2 000363   300001 503506                    ABD     1,QL,PR3
         2 000364   200232 453500                    STP3    SEG$,,AUTO

      331    16031    2           OFF$ = PALIGNW(SEG$) ;

  16031  2 000365   200232 236100                    LDQ     SEG$,,AUTO
         2 000366   770000 036007                    ADLQ    -4096,DL
         2 000367   000001 376000 3                  ANQ     1
         2 000370   200346 756100                    STQ     OFF$,,AUTO

      332    16032    2           DIFF = POFFC(OFF$, SEG$) ;
PL6.E3A0      #001=XUG$COMMON File=XUG$COMMON.:E05TSI                            WED 07/30/97 09:17 Page:85

  16032  2 000371   200232 236100                    LDQ     SEG$,,AUTO
         2 000372   000020 772000                    QRL     16
         2 000373   200432 756100                    STQ     LEGAL_TEXTC+17,,AUTO
         2 000374   200346 236100                    LDQ     OFF$,,AUTO
         2 000375   000020 772000                    QRL     16
         2 000376   200432 136100                    SBLQ    LEGAL_TEXTC+17,,AUTO
         2 000377   200347 756100                    STQ     DIFF,,AUTO

      333    16033    2           CNT = CNT - DIFF ;

  16033  2 000400   200350 236100                    LDQ     CNT,,AUTO
         2 000401   200347 136100                    SBLQ    DIFF,,AUTO
         2 000402   200350 756100                    STQ     CNT,,AUTO

      334    16034    2           CNT = CNT - MOD(CNT, 8) ;

  16034  2 000403   000010 506007                    DIV     8,DL
         2 000404   200432 755100                    STA     LEGAL_TEXTC+17,,AUTO
         2 000405   200350 236100                    LDQ     CNT,,AUTO
         2 000406   200432 136100                    SBLQ    LEGAL_TEXTC+17,,AUTO
         2 000407   200350 756100                    STQ     CNT,,AUTO

      335    16035    2           XUG.BUFVEC = VECTOR (VEC$BUF) ;

  16035  2 000410   200350 235100                    LDA     CNT,,AUTO
         2 000411   000020 735000                    ALS     16
         2 000412   000140 135007                    SBLA    96,DL
         2 000413   200232 236100                    LDQ     SEG$,,AUTO
         2 000414   100000 757100                    STAQ    0,,PR1

      336    16036    2       END;

      337    16037    1       XUG$ = GETCMD.WORK$ ;

  16037  2 000415   200003 470500                    LDP0    @GETCMD,,AUTO
         2 000416   000004 236100                    LDQ     4,,PR0
PL6.E3A0      #001=XUG$COMMON File=XUG$COMMON.:E05TSI                            WED 07/30/97 09:17 Page:86
         2 000417   200220 756100                    STQ     XUG$,,AUTO

      338    16038    1       VBASE(XUG.RLTVEC) -> RLT = '0'B ;

  16038  2 000420   200220 471500                    LDP1    XUG$,,AUTO
         2 000421   100013 473500                    LDP3    11,,PR1
         2 000422   000100 100400                    MLR     fill='000'O
         2 000423   000002 000001 xsym               ADSC9   B_VECTNIL+2              cn=0,n=1
         2 000424   300000 000001                    ADSC9   0,,PR3                   cn=0,n=1

      339    16039    1       XUG.POFF = 1;

  16039  2 000425   000001 235007                    LDA     1,DL
         2 000426   100036 755100                    STA     30,,PR1

      340    16040    1       XUG.PROMPT_VFC = %NO#;

  16040  2 000427   000006 236000 3                  LDQ     6
         2 000430   100071 356100                    ANSQ    57,,PR1

      341    16041    1       XUG.PROMPT = '*';

  16041  2 000431   040100 100400                    MLR     fill='040'O
         2 000432   000007 000001 3                  ADSC9   7                        cn=0,n=1
         2 000433   100037 000136                    ADSC9   31,,PR1                  cn=0,n=94

      342    16042    1       XUG.REQ_PROMPT = XUG_INIT.REQ_PROMPT# ;

  16042  2 000434   200004 473500                    LDP3    @XUG_INIT,,AUTO
         2 000435   300026 236100                    LDQ     22,,PR3
         2 000436   000006 772000                    QRL     6
         2 000437   100071 676100                    ERQ     57,,PR1
         2 000440   001000 376003                    ANQ     512,DU
         2 000441   100071 656100                    ERSQ    57,,PR1

      343    16043    1       XUG.SYNTAX = XUG_INIT.SYNTAX#;

PL6.E3A0      #001=XUG$COMMON File=XUG$COMMON.:E05TSI                            WED 07/30/97 09:17 Page:87
  16043  2 000442   300026 236100                    LDQ     22,,PR3
         2 000443   000002 772000                    QRL     2
         2 000444   100071 676100                    ERQ     57,,PR1
         2 000445   010000 376003                    ANQ     4096,DU
         2 000446   100071 656100                    ERSQ    57,,PR1

      344    16044    1       XUG.PREPROCESS = XUG_INIT.PREPROCESS#;

  16044  2 000447   300026 236100                    LDQ     22,,PR3
         2 000450   000006 772000                    QRL     6
         2 000451   100071 676100                    ERQ     57,,PR1
         2 000452   002000 376003                    ANQ     1024,DU
         2 000453   100071 656100                    ERSQ    57,,PR1

      345    16045    1       XUG.ABORT = XUG_INIT.ABORT$;

  16045  2 000454   300000 236100                    LDQ     0,,PR3
         2 000455   100020 756100                    STQ     16,,PR1

      346    16046    1       XUG.CONTINUE = XUG_INIT.CONTINUE$;

  16046  2 000456   300001 236100                    LDQ     1,,PR3
         2 000457   100021 756100                    STQ     17,,PR1

      347    16047    1       XUG.BRKMSG = XUG_INIT.BRKMSG$;

  16047  2 000460   300002 236100                    LDQ     2,,PR3
         2 000461   100022 756100                    STQ     18,,PR1

      348    16048    1       XUG.PREPROCESSOR$$ = XUG_INIT.PREPROCESSOR$$;

  16048  2 000462   300007 236100                    LDQ     7,,PR3
         2 000463   100023 756100                    STQ     19,,PR1

      349    16049    1       XUG.SPHANDLE = XUG_INIT.SPHANDLE$ ;

  16049  2 000464   300003 236100                    LDQ     3,,PR3
PL6.E3A0      #001=XUG$COMMON File=XUG$COMMON.:E05TSI                            WED 07/30/97 09:17 Page:88
         2 000465   100025 756100                    STQ     21,,PR1

      350    16050    1       XUG.PRE_EXEC = XUG_INIT.PRE_EXEC$$ ;

  16050  2 000466   300004 236100                    LDQ     4,,PR3
         2 000467   100026 756100                    STQ     22,,PR1

      351    16051    1       XUG.POST_EXEC = XUG_INIT.POST_EXEC$$ ;

  16051  2 000470   300005 236100                    LDQ     5,,PR3
         2 000471   100027 756100                    STQ     23,,PR1

      352    16052    1       XUG.MOREMEM = XUG_INIT.MOREMEM$$ ;

  16052  2 000472   300006 236100                    LDQ     6,,PR3
         2 000473   100030 756100                    STQ     24,,PR1

      353    16053    1       XUG.XUH_PARAM = XUH_PARAM_C ;

  16053  2 000474   000100 100400                    MLR     fill='000'O
         2 000475   000254 000344 0                  ADSC9   XUH_PARAM_C              cn=0,n=228
         2 000476   100154 000344                    ADSC9   108,,PR1                 cn=0,n=228

      354    16054    1       XUG.XUH_PARAM.PROCACCT_ = XUG_INIT.PROCACCT_ ;

  16054  2 000477   300012 237100                    LDAQ    10,,PR3
         2 000500   100156 757100                    STAQ    110,,PR1

      355    16055    1       XUG.XUH_PARAM.PROCNAME_ = XUG_INIT.PROCNAME_ ;

  16055  2 000501   300010 237100                    LDAQ    8,,PR3
         2 000502   100154 757100                    STAQ    108,,PR1

      356    16056    1       XUG.ERRDCB = DCBNUM(NIL);

  16056  2 000503   100070 450100                    STZ     56,,PR1

PL6.E3A0      #001=XUG$COMMON File=XUG$COMMON.:E05TSI                            WED 07/30/97 09:17 Page:89
      357    16057    1       XUG.PPCB$ = XUG_INIT.PPCB$;

  16057  2 000504   300020 236100                    LDQ     16,,PR3
         2 000505   100073 756100                    STQ     59,,PR1

      358    16058    1       XUG.PP_PROCNAME_ = XUG_INIT.PP_PROCNAME_ ;

  16058  2 000506   000100 100500                    MLR     fill='000'O
         2 000507   300021 000010                    ADSC9   17,,PR3                  cn=0,n=8
         2 000510   100074 000010                    ADSC9   60,,PR1                  cn=0,n=8

      359    16059    1       XUG.PP_DCB = XUG_INIT.PP_DCB#;

  16059  2 000511   300025 236100                    LDQ     21,,PR3
         2 000512   000022 736000                    QLS     18
         2 000513   000033 732000                    QRS     27
         2 000514   100077 756100                    STQ     63,,PR1

      360    16060    1       XUG.ADDL_RLTCNT = XUG_INIT.ADDL_NRECS# ;

  16060  2 000515   300024 236100                    LDQ     20,,PR3
         2 000516   000022 772000                    QRL     18
         2 000517   100110 756100                    STQ     72,,PR1

      361    16061    1       XUG.CMDSZ = XUG_INIT.CMDSZ# ;

  16061  2 000520   300023 235100                    LDA     19,,PR3
         2 000521   100111 755100                    STA     73,,PR1

      362    16062    1       XUG.COMMANDS = XUG_INIT.COMMANDS# ;

  16062  2 000522   300026 236100                    LDQ     22,,PR3
         2 000523   000004 772000                    QRL     4
         2 000524   100071 676100                    ERQ     57,,PR1
         2 000525   020000 376003                    ANQ     8192,DU
         2 000526   100071 656100                    ERSQ    57,,PR1

PL6.E3A0      #001=XUG$COMMON File=XUG$COMMON.:E05TSI                            WED 07/30/97 09:17 Page:90
      363    16063    1       XUG.INHIBITS = XUG_INIT.INHIBITS;

  16063  2 000527   300040 236100                    LDQ     32,,PR3
         2 000530   000026 772000                    QRL     22
         2 000531   100071 676100                    ERQ     57,,PR1
         2 000532   037770 376007                    ANQ     16376,DL
         2 000533   100071 656100                    ERSQ    57,,PR1

      364    16064    1       XUG.NO_DOWNGRADE = XUG_INIT.NO_DOWNGRADE#;

  16064  2 000534   300026 236100                    LDQ     22,,PR3
         2 000535   000032 772000                    QRL     26
         2 000536   100071 676100                    ERQ     57,,PR1
         2 000537   000004 376007                    ANQ     4,DL
         2 000540   100071 656100                    ERSQ    57,,PR1

      365    16065    1       XUG.DONT_REREAD_CCBUF = XUG_INIT.DONT_REREAD_CCBUF#;

  16065  2 000541   300026 236100                    LDQ     22,,PR3
         2 000542   000014 772000                    QRL     12
         2 000543   100266 676100                    ERQ     182,,PR1
         2 000544   100000 376007                    ANQ     32768,DL
         2 000545   100266 656100                    ERSQ    182,,PR1

      366    16066    1       XUG.DONT_STRIP_PROMPT = XUG_INIT.DONT_STRIP_PROMPT#;

  16066  2 000546   300026 236100                    LDQ     22,,PR3
         2 000547   000014 772000                    QRL     12
         2 000550   100266 676100                    ERQ     182,,PR1
         2 000551   040000 376007                    ANQ     16384,DL
         2 000552   100266 656100                    ERSQ    182,,PR1

      367    16067    1       XUG.GOODCMD = XUG_INIT.GOODCMD# ;

  16067  2 000553   300026 236100                    LDQ     22,,PR3
         2 000554   000012 772000                    QRL     10
         2 000555   100071 676100                    ERQ     57,,PR1
PL6.E3A0      #001=XUG$COMMON File=XUG$COMMON.:E05TSI                            WED 07/30/97 09:17 Page:91
         2 000556   000010 376003                    ANQ     8,DU
         2 000557   100071 656100                    ERSQ    57,,PR1

      368    16068    1       IF ENTADDR(XUS$CORRECT_SPELLING) ~= ENTADDR(NIL)

  16068  2 000560   000000 636000 xent               EAQ     XUS$CORRECT_SPELLING
         2 000561   000002 116000 xsym               CMPQ    B_VECTNIL+2
         2 000562   000570 600000 2                  TZE     s:16071

      369    16069    1       THEN
      370    16070    1           XUG.SPELLING = XUG_INIT.SPELLING#;

  16070  2 000563   300026 236100                    LDQ     22,,PR3
         2 000564   000013 772000                    QRL     11
         2 000565   100071 676100                    ERQ     57,,PR1
         2 000566   000002 376003                    ANQ     2,DU
         2 000567   100071 656100                    ERSQ    57,,PR1

      371    16071    1       IF XUG_INIT.PCB$ = ADDR(NIL)

  16071  2 000570   300017 236100                    LDQ     15,,PR3
         2 000571   000001 116000 xsym               CMPQ    B_VECTNIL+1
         2 000572   000604 601000 2                  TNZ     s:16078

      372    16072    2       THEN DO;

      373    16073    2           P_PCB$ = PINCRW(XUG$, SIZEW(XUG));

  16073  2 000573   200220 236100                    LDQ     XUG$,,AUTO
         2 000574   000414 036003                    ADLQ    268,DU
         2 000575   200224 756100                    STQ     P_PCB$,,AUTO

      374    16074    2           P_PCB = P_PCB_C;

  16074  2 000576   200224 474500                    LDP4    P_PCB$,,AUTO
         2 000577   000100 100400                    MLR     fill='000'O
         2 000600   000000 000070 0                  ADSC9   P_PCB_C                  cn=0,n=56
PL6.E3A0      #001=XUG$COMMON File=XUG$COMMON.:E05TSI                            WED 07/30/97 09:17 Page:92
         2 000601   400000 000070                    ADSC9   0,,PR4                   cn=0,n=56

      375    16075    2           XUG.P_PCB$ = P_PCB$ ;

  16075  2 000602   100072 756100                    STQ     58,,PR1

      376    16076    2       END;

  16076  2 000603   000605 710000 2                  TRA     s:16079

      377    16077    1       ELSE
      378    16078    1           XUG.P_PCB$ = XUG_INIT.PCB$;

  16078  2 000604   100072 756100                    STQ     58,,PR1

      379    16079    1       XUG.ADAPT$$ = XUG_INIT.ADAPT$$;

  16079  2 000605   300027 236100                    LDQ     23,,PR3
         2 000606   100270 756100                    STQ     184,,PR1

      380    16080    1       SEG$ = GETCMD.XT_PARAM$;

  16080  2 000607   000036 236100                    LDQ     30,,PR0
         2 000610   200232 756100                    STQ     SEG$,,AUTO

      381    16081    1       IF RSEG = '0'B

  16081  2 000611   200232 235100                    LDA     SEG$,,AUTO
         2 000612   000615 601000 2                  TNZ     s:16084

      382    16082    1       THEN
      383    16083    1           GETCMD.XT_PARAM$ = ADDR(NIL);

  16083  2 000613   000001 236000 xsym               LDQ     B_VECTNIL+1
         2 000614   000036 756100                    STQ     30,,PR0

      384    16084    1       GETCMD.PCB$ = XUG.P_PCB$;
PL6.E3A0      #001=XUG$COMMON File=XUG$COMMON.:E05TSI                            WED 07/30/97 09:17 Page:93

  16084  2 000615   100072 236100                    LDQ     58,,PR1
         2 000616   000003 756100                    STQ     3,,PR0

      385    16085    1       GETCMD.ECHO = XUG_INIT.ECHO#;

  16085  2 000617   300025 236100                    LDQ     21,,PR3
         2 000620   000002 772000                    QRL     2
         2 000621   000007 676100                    ERQ     7,,PR0
         2 000622   000600 376003                    ANQ     384,DU
         2 000623   000007 656100                    ERSQ    7,,PR0

      386    16086    1       GETCMD.PASS = XUG_INIT.PASS#;

  16086  2 000624   300025 236100                    LDQ     21,,PR3
         2 000625   000005 736000                    QLS     5
         2 000626   000007 676100                    ERQ     7,,PR0
         2 000627   000140 376003                    ANQ     96,DU
         2 000630   000007 656100                    ERSQ    7,,PR0

      387    16087    1       GETCMD.ALWAYS_SET_PROMPT# = XUG_INIT.ALWAYS_SET_PROMPT#;

  16087  2 000631   300026 236100                    LDQ     22,,PR3
         2 000632   000001 772000                    QRL     1
         2 000633   000006 676100                    ERQ     6,,PR0
         2 000634   002000 376003                    ANQ     1024,DU
         2 000635   000006 656100                    ERSQ    6,,PR0

      388    16088    1       GETCMD.PP_ROOT$ = XUG_INIT.PP_ROOT$;

  16088  2 000636   300034 236100                    LDQ     28,,PR3
         2 000637   000045 756100                    STQ     37,,PR0

      389    16089    1       XUG_INIT.PARAMS$ = XUG$;

  16089  2 000640   200220 236100                    LDQ     XUG$,,AUTO
         2 000641   300014 756100                    STQ     12,,PR3
PL6.E3A0      #001=XUG$COMMON File=XUG$COMMON.:E05TSI                            WED 07/30/97 09:17 Page:94

      390    16090    1       XUG.FILENAME.C = 0 ;

  16090  2 000642   000000 236003                    LDQ     0,DU
         2 000643   100137 552140                    STBQ    95,'40'O,PR1

      391    16091    1       XUG.FILENAME.TX = ' ' ;

  16091  2 000644   040100 100400                    MLR     fill='040'O
         2 000645   000035 000001 xsym               ADSC9   B_VECTNIL+29             cn=0,n=1
         2 000646   100137 200037                    ADSC9   95,,PR1                  cn=1,n=31

      392    16092    1       XUG.FILEACCT = ' ' ;

  16092  2 000647   000035 235000 xsym               LDA     B_VECTNIL+29
         2 000650   000035 236000 xsym               LDQ     B_VECTNIL+29
         2 000651   100147 755100                    STA     103,,PR1
         2 000652   100150 756100                    STQ     104,,PR1

      393    16093    1       XUG.FILEPASS = ' ' ;

  16093  2 000653   000035 235000 xsym               LDA     B_VECTNIL+29
         2 000654   000035 236000 xsym               LDQ     B_VECTNIL+29
         2 000655   100151 755100                    STA     105,,PR1
         2 000656   100152 756100                    STQ     106,,PR1

      394    16094    1       XUG.F1SAVE = VECTOR(NIL);

  16094  2 000657   000004 237000 3                  LDAQ    4
         2 000660   100272 757100                    STAQ    186,,PR1

      395    16095    1       XUG.F2SAVE = VECTOR(NIL);

  16095  2 000661   000004 237000 3                  LDAQ    4
         2 000662   100274 757100                    STAQ    188,,PR1

      396    16096    1       XUG.F3SAVE = VECTOR(NIL);
PL6.E3A0      #001=XUG$COMMON File=XUG$COMMON.:E05TSI                            WED 07/30/97 09:17 Page:95

  16096  2 000663   000004 237000 3                  LDAQ    4
         2 000664   100276 757100                    STAQ    190,,PR1

      397    16097    1       RETURN;

  16097  2 000665   000000 702200 xent               TSX2  ! X66_ARET

      398    16098        /**/
      399    16099        %EJECT ;
PL6.E3A0      #001=XUG$COMMON File=XUG$COMMON.:E05TSI                            WED 07/30/97 09:17 Page:96
      400    16100    1   XUG$MOREMEM: ENTRY(GETCMD) ALTRET;

  16100  2 000666   000000 700200 xent  XUG$MOREMEM  TSX0  ! X66_AUTO_2
         2 000667   000440 000002                    ZERO    288,2

      401    16101    1       XUG$ = GETCMD.WORK$ ;

  16101  2 000670   200003 470500                    LDP0    @GETCMD,,AUTO
         2 000671   000004 236100                    LDQ     4,,PR0
         2 000672   200220 756100                    STQ     XUG$,,AUTO

      402    16102    1       IF XUG.XUG_OWNS_MEMORY

  16102  2 000673   200220 471500                    LDP1    XUG$,,AUTO
         2 000674   100071 236100                    LDQ     57,,PR1
         2 000675   000200 316003                    CANQ    128,DU
         2 000676   000720 600000 2                  TZE     s:16110

      403    16103    2       THEN DO ;

      404    16104    2           FPT_GDS = FPT_GDS_C ;

  16104  2 000677   000100 100400                    MLR     fill='000'O
         2 000700   000022 000030 0                  ADSC9   FPT_GDS_C                cn=0,n=24
         2 000701   200010 000030                    ADSC9   FPT_GDS,,AUTO            cn=0,n=24

      405    16105    2           FPT_GDS.V_ = VECTOR(FPT_GDS.V) ;

  16105  2 000702   000002 235000 3                  LDA     2
         2 000703   200432 452500                    STP2    LEGAL_TEXTC+17,,AUTO
         2 000704   200432 236100                    LDQ     LEGAL_TEXTC+17,,AUTO
         2 000705   000014 036003                    ADLQ    12,DU
         2 000706   200010 757100                    STAQ    FPT_GDS,,AUTO

      406    16106    2           FPT_GDS.RESULTS_ = VECTOR(XUG.GDSVEC) ;

  16106  2 000707   000002 235000 3                  LDA     2
PL6.E3A0      #001=XUG$COMMON File=XUG$COMMON.:E05TSI                            WED 07/30/97 09:17 Page:97
         2 000710   200220 236100                    LDQ     XUG$,,AUTO
         2 000711   000006 036003                    ADLQ    6,DU
         2 000712   200012 757100                    STAQ    FPT_GDS+2,,AUTO

      407    16107    2           CALL M$GDS (FPT_GDS) ALTRET (CANT_EXPAND_SEGMENT);

  16107  2 000713   200010 630500                    EPPR0   FPT_GDS,,AUTO
         2 000714   430001 713400                    CLIMB   alt,gds
         2 000715   400400 401760                    pmme    nvectors=2
         2 000716   001157 702000 2                  TSX2    CANT_EXPAND_SEGMENT

      408    16108    2       END ;                        /* Then Do */

  16108  2 000717   001006 710000 2                  TRA     s:16157

      409    16109    1       ELSE
      410    16110    1           IF XUG.MOREMEM = ENTADDR(NIL)

  16110  2 000720   100030 236100                    LDQ     24,,PR1
         2 000721   000002 116000 xsym               CMPQ    B_VECTNIL+2
         2 000722   000726 601000 2                  TNZ     s:16122

      411    16111    2           THEN DO;

      412    16112    2               GETCMD.ERR# = XUG#CANTEXPAND;

  16112  2 000723   000165 236000 0                  LDQ     XUG#CANTEXPAND
         2 000724   000001 756100                    STQ     1,,PR0

      413    16113        /*E*  ERROR:   XUG-E$XUG#CANTEXPAND
      414    16114              MESSAGE: Can't expand the GETCMD work area.
      415    16115              MESSAGE1: GETCMD cannot expand its work area;  the work area was provided
      416    16116                       by the program that calls GETCMD, and the program did not
      417    16117                       supply a routine that can expand the work area.
      418    16118        */
      419    16119    2               GOTO CANT_EXPAND_SEGMENT;

PL6.E3A0      #001=XUG$COMMON File=XUG$COMMON.:E05TSI                            WED 07/30/97 09:17 Page:98
  16119  2 000725   001157 710000 2                  TRA     CANT_EXPAND_SEGMENT

      420    16120    2           END;
      421    16121    2           ELSE DO;

      422    16122    2               CALL XUG.MOREMEM(%GDSSIZ,USER_GDSVEC,TEMP_ERR) WHENALTRETURN

  16122  2 000726   200152 633500                    EPPR3   TEMP_ERR,,AUTO
         2 000727   200434 453500                    STP3    LEGAL_TEXTC+19,,AUTO
         2 000730   200016 634500                    EPPR4   USER_GDSVEC,,AUTO
         2 000731   200433 454500                    STP4    LEGAL_TEXTC+18,,AUTO
         2 000732   000011 236000 3                  LDQ     9
         2 000733   200432 756100                    STQ     LEGAL_TEXTC+17,,AUTO
         2 000734   200432 630500                    EPPR0   LEGAL_TEXTC+17,,AUTO
         2 000735   100030 220100                    LDX0    24,,PR1
         2 000736   000021 631400 xsym               EPPR1   B_VECTNIL+17
         2 000737   000000 701010                    TSX1    0,X0
         2 000740   000742 702000 2                  TSX2    s:16124
         2 000741   000746 710000 2                  TRA     s:16127

      423    16123    3               DO ;

      424    16124    3                   GETCMD.ERR# = TEMP_ERR ;

  16124  2 000742   200152 236100                    LDQ     TEMP_ERR,,AUTO
         2 000743   200003 470500                    LDP0    @GETCMD,,AUTO
         2 000744   000001 756100                    STQ     1,,PR0

      425    16125    3                   GOTO CANT_EXPAND_SEGMENT ;

  16125  2 000745   001157 710000 2                  TRA     CANT_EXPAND_SEGMENT

      426    16126    3               END ;                  /* Whenaltreturn */
      427    16127    2               DUMMY$ = PINCRC(VBASE(XUG.GDSVEC), VBOUND(XUG.GDSVEC)+1) ;

  16127  2 000746   200220 470500                    LDP0    XUG$,,AUTO
         2 000747   000006 236100                    LDQ     6,,PR0
PL6.E3A0      #001=XUG$COMMON File=XUG$COMMON.:E05TSI                            WED 07/30/97 09:17 Page:99
         2 000750   000020 772000                    QRL     16
         2 000751   000007 471500                    LDP1    7,,PR0
         2 000752   000011 402007                    MPY     9,DL
         2 000753   000011 036007                    ADLQ    9,DL
         2 000754   100000 503506                    ABD     0,QL,PR1
         2 000755   200227 451500                    STP1    DUMMY$,,AUTO

      428    16128    2               IF DUMMY$ ~= VBASE(USER_GDSVEC)

  16128  2 000756   200227 236100                    LDQ     DUMMY$,,AUTO
         2 000757   200017 116100                    CMPQ    USER_GDSVEC+1,,AUTO
         2 000760   000767 600000 2                  TZE     s:16140

      429    16129    2               THEN
      430    16130    3               DO ;

      431    16131    3                   GETCMD.ERR# = XUG#NOTCONTIGAREA ;

  16131  2 000761   000163 236000 0                  LDQ     XUG#NOTCONTIGAREA
         2 000762   200003 473500                    LDP3    @GETCMD,,AUTO
         2 000763   300001 756100                    STQ     1,,PR3

      432    16132    3                   GETCMD.PCB$->P_PCB.HI_CHAR = 0 ;

  16132  2 000764   300003 474500                    LDP4    3,,PR3
         2 000765   400012 450100                    STZ     10,,PR4

      433    16133    3                   GOTO CANT_EXPAND_SEGMENT ;

  16133  2 000766   001157 710000 2                  TRA     CANT_EXPAND_SEGMENT

      434    16134    3               END ;                  /* Then Do */
      435    16135        /*E*   ERROR:   XUG-E$XUG#NOTCONTIGAREA
      436    16136               MESSAGE: Not a contiguous work area.
      437    16137               MESSAGE1: The data expansion received from the user program is
      438    16138                          not contiguous with the present work area.
      439    16139        */
PL6.E3A0      #001=XUG$COMMON File=XUG$COMMON.:E05TSI                            WED 07/30/97 09:17 Page:100
      440    16140    2               IF VBOUND(USER_GDSVEC)+1 ~= %GDSSIZ*4

  16140  2 000767   200016 236100                    LDQ     USER_GDSVEC,,AUTO
         2 000770   000034 376000 xsym               ANQ     B_VECTNIL+28
         2 000771   000012 116000 3                  CMPQ    10
         2 000772   000777 600000 2                  TZE     s:16151

      441    16141    2               THEN
      442    16142    3               DO ;

      443    16143    3                   GETCMD.ERR# = XUG#AREANOTRTSZ ;

  16143  2 000773   000164 236000 0                  LDQ     XUG#AREANOTRTSZ
         2 000774   200003 473500                    LDP3    @GETCMD,,AUTO
         2 000775   300001 756100                    STQ     1,,PR3

      444    16144    3                   GOTO CANT_EXPAND_SEGMENT ;

  16144  2 000776   001157 710000 2                  TRA     CANT_EXPAND_SEGMENT

      445    16145    3               END ;                  /* Then Do */
      446    16146        /*E*   ERROR:   XUG-E$XUG#AREANOTRTSZ
      447    16147               MESSAGE: Data area not the right size.
      448    16148               MESSAGE1: The data expansion received from the user program is
      449    16149                          not the amount that XUG$GETCMD requested.
      450    16150        */
      451    16151    2               VBOUND(XUG.GDSVEC) = VBOUND(XUG.GDSVEC) + %GDSSIZ*4 ;

  16151  2 000777   000006 236100                    LDQ     6,,PR0
         2 001000   000020 772000                    QRL     16
         2 001001   010000 036007                    ADLQ    4096,DL
         2 001002   000020 736000                    QLS     16
         2 001003   000006 676100                    ERQ     6,,PR0
         2 001004   000034 376000 xsym               ANQ     B_VECTNIL+28
         2 001005   000006 656100                    ERSQ    6,,PR0

      452    16152    2           END ;                     /* Then Do */
PL6.E3A0      #001=XUG$COMMON File=XUG$COMMON.:E05TSI                            WED 07/30/97 09:17 Page:101

      453    16153        /*
      454    16154           If memory has been allocated for ADAPT at the top of the segment, move
      455    16155           its data up to the new top of the segment.
      456    16156        */
      457    16157    1       XT$ = GETCMD.XT_PARAM$;

  16157  2 001006   200003 470500                    LDP0    @GETCMD,,AUTO
         2 001007   000036 236100                    LDQ     30,,PR0
         2 001010   200221 756100                    STQ     XT$,,AUTO

      458    16158    1       IF XT$ ~= ADDR(NIL)

  16158  2 001011   000001 116000 xsym               CMPQ    B_VECTNIL+1
         2 001012   001044 600000 2                  TZE     s:16170
         2 001013   200221 471500                    LDP1    XT$,,AUTO
         2 001014   100000 236100                    LDQ     0,,PR1
         2 001015   000001 116000 xsym               CMPQ    B_VECTNIL+1
         2 001016   001044 600000 2                  TZE     s:16170

      459    16159    1         AND XT_PARAM.WS$ ~= ADDR(NIL)
      460    16160    2       THEN DO;

      461    16161    2           XT_ = XUG.BUFVEC;

  16161  2 001017   200220 473500                    LDP3    XUG$,,AUTO
         2 001020   300000 237100                    LDAQ    0,,PR3
         2 001021   200222 757100                    STAQ    XT_,,AUTO

      462    16162    2           VBASE(XT_) = XT_PARAM.WS$;

  16162  2 001022   100000 236100                    LDQ     0,,PR1
         2 001023   200223 756100                    STQ     XT_+1,,AUTO

      463    16163    2           VBOUND(XT_) = XT_PARAM.WS_SIZE * 4 - 1;

  16163  2 001024   100002 236100                    LDQ     2,,PR1
PL6.E3A0      #001=XUG$COMMON File=XUG$COMMON.:E05TSI                            WED 07/30/97 09:17 Page:102
         2 001025   000002 736000                    QLS     2
         2 001026   000001 136007                    SBLQ    1,DL
         2 001027   000020 736000                    QLS     16
         2 001030   200222 676100                    ERQ     XT_,,AUTO
         2 001031   000034 376000 xsym               ANQ     B_VECTNIL+28
         2 001032   200222 656100                    ERSQ    XT_,,AUTO

      464    16164    2           CALL MOVER (XT_, %GDSSIZ, 0);

  16164  2 001033   000014 237000 3                  LDAQ    12
         2 001034   200354 757100                    STAQ    @QM_REQUIRED+1,,AUTO
         2 001035   200222 634500                    EPPR4   XT_,,AUTO
         2 001036   200353 454500                    STP4    OUTDCB#+2,,AUTO
         2 001037   005315 701000 2                  TSX1    MOVER
         2 001040   000000 011000                    NOP     0

      465    16165    2           XT_PARAM.WS$ = VBASE(XT_);

  16165  2 001041   200223 236100                    LDQ     XT_+1,,AUTO
         2 001042   200221 470500                    LDP0    XT$,,AUTO
         2 001043   000000 756100                    STQ     0,,PR0

      466    16166    2       END;

      467    16167        /*
      468    16168           Expand the RLT.
      469    16169        */
      470    16170    1       RLT_SZ = (XUG.ADDL_RLTCNT * SIZEC(RLT(0))) ;

  16170  2 001044   200220 470500                    LDP0    XUG$,,AUTO
         2 001045   000110 235100                    LDA     72,,PR0
         2 001046   200241 755100                    STA     RLT_SZ,,AUTO

      471    16171    1       IF MOD(RLT_SZ,8) ~= 0

  16171  2 001047   200241 236100                    LDQ     RLT_SZ,,AUTO
         2 001050   000010 506007                    DIV     8,DL
PL6.E3A0      #001=XUG$COMMON File=XUG$COMMON.:E05TSI                            WED 07/30/97 09:17 Page:103
         2 001051   000044 733000                    LRS     36
         2 001052   000000 116003                    CMPQ    0,DU
         2 001053   001063 600000 2                  TZE     s:16176

      472    16172    1       THEN RLT_SZ = RLT_SZ + (8 - MOD(RLT_SZ, 8)) ;

  16172  2 001054   200241 236100                    LDQ     RLT_SZ,,AUTO
         2 001055   000010 506007                    DIV     8,DL
         2 001056   200432 755100                    STA     LEGAL_TEXTC+17,,AUTO
         2 001057   200241 236100                    LDQ     RLT_SZ,,AUTO
         2 001060   200432 136100                    SBLQ    LEGAL_TEXTC+17,,AUTO
         2 001061   000010 036007                    ADLQ    8,DL
         2 001062   200241 756100                    STQ     RLT_SZ,,AUTO

      473    16173        /*
      474    16174           Move the input buffer upwards, and adjust the read vector also.
      475    16175        */
      476    16176    1       WOFF = RLT_SZ / 4 + %EXPND_PARSEWK/4 ;

  16176  2 001063   200241 236100                    LDQ     RLT_SZ,,AUTO
         2 001064   000004 506007                    DIV     4,DL
         2 001065   000310 036007                    ADLQ    200,DL
         2 001066   200242 756100                    STQ     WOFF,,AUTO

      477    16177    1       WBUFSZ = %GDSSIZ - WOFF ;

  16177  2 001067   002000 235007                    LDA     1024,DL
         2 001070   200242 135100                    SBLA    WOFF,,AUTO
         2 001071   200243 755100                    STA     WBUFSZ,,AUTO

      478    16178    1       CALL MOVER (XUG.BUFVEC, WOFF, WBUFSZ) ;

  16178  2 001072   200243 631500                    EPPR1   WBUFSZ,,AUTO
         2 001073   200355 451500                    STP1    BADCHAR+1,,AUTO
         2 001074   200242 633500                    EPPR3   WOFF,,AUTO
         2 001075   200354 453500                    STP3    @QM_REQUIRED+1,,AUTO
         2 001076   200220 236100                    LDQ     XUG$,,AUTO
PL6.E3A0      #001=XUG$COMMON File=XUG$COMMON.:E05TSI                            WED 07/30/97 09:17 Page:104
         2 001077   200353 756100                    STQ     OUTDCB#+2,,AUTO
         2 001100   005315 701000 2                  TSX1    MOVER
         2 001101   000000 011000                    NOP     0

      479    16179    1       VBASE(XUG.READVEC) = PINCRW(VBASE(XUG.READVEC),WOFF) ;

  16179  2 001102   200220 470500                    LDP0    XUG$,,AUTO
         2 001103   000003 471500                    LDP1    3,,PR0
         2 001104   200242 720100                    LXL0    WOFF,,AUTO
         2 001105   100000 633510                    EPPR3   0,X0,PR1
         2 001106   000003 453500                    STP3    3,,PR0

      480    16180    1       VBOUND(XUG.READVEC) = VBOUND(XUG.READVEC) + (WBUFSZ * 4) ;

  16180  2 001107   000002 236100                    LDQ     2,,PR0
         2 001110   000020 772000                    QRL     16
         2 001111   200432 756100                    STQ     LEGAL_TEXTC+17,,AUTO
         2 001112   200243 236100                    LDQ     WBUFSZ,,AUTO
         2 001113   000002 736000                    QLS     2
         2 001114   200432 036100                    ADLQ    LEGAL_TEXTC+17,,AUTO
         2 001115   000020 736000                    QLS     16
         2 001116   000002 676100                    ERQ     2,,PR0
         2 001117   000034 376000 xsym               ANQ     B_VECTNIL+28
         2 001120   000002 656100                    ERSQ    2,,PR0

      481    16181    1       VBASE(XUG.LAST) = PINCRW(VBASE(XUG.LAST), WOFF) ;

  16181  2 001121   000005 471500                    LDP1    5,,PR0
         2 001122   200242 720100                    LXL0    WOFF,,AUTO
         2 001123   100000 633510                    EPPR3   0,X0,PR1
         2 001124   000005 453500                    STP3    5,,PR0

      482    16182        /*
      483    16183           Move the RLT upwards.  Expand the parse area to fill the new area at
      484    16184           the base of the non-static portion of the segment (no need to move data).
      485    16185        */
      486    16186    1       WOFF = %EXPND_PARSEWK/4 ;
PL6.E3A0      #001=XUG$COMMON File=XUG$COMMON.:E05TSI                            WED 07/30/97 09:17 Page:105

  16186  2 001125   000310 235007                    LDA     200,DL
         2 001126   200242 755100                    STA     WOFF,,AUTO

      487    16187    1       WBUFSZ = RLT_SZ / 4 ;

  16187  2 001127   200241 236100                    LDQ     RLT_SZ,,AUTO
         2 001130   000004 506007                    DIV     4,DL
         2 001131   200243 756100                    STQ     WBUFSZ,,AUTO

      488    16188    1       CALL MOVER(XUG.RLTVEC, WOFF, WBUFSZ) ;

  16188  2 001132   200243 631500                    EPPR1   WBUFSZ,,AUTO
         2 001133   200355 451500                    STP1    BADCHAR+1,,AUTO
         2 001134   200242 633500                    EPPR3   WOFF,,AUTO
         2 001135   200354 453500                    STP3    @QM_REQUIRED+1,,AUTO
         2 001136   200220 236100                    LDQ     XUG$,,AUTO
         2 001137   000012 036003                    ADLQ    10,DU
         2 001140   200353 756100                    STQ     OUTDCB#+2,,AUTO
         2 001141   005315 701000 2                  TSX1    MOVER
         2 001142   000000 011000                    NOP     0

      489    16189    1       XUG.RLTCNT = XUG.RLTCNT + XUG.ADDL_RLTCNT ;

  16189  2 001143   200220 470500                    LDP0    XUG$,,AUTO
         2 001144   000107 236100                    LDQ     71,,PR0
         2 001145   000110 036100                    ADLQ    72,,PR0
         2 001146   000107 756100                    STQ     71,,PR0

      490    16190    1       VBOUND(XUG.PARSEVEC) = VBOUND(XUG.PARSEVEC) + %EXPND_PARSEWK ;

  16190  2 001147   000010 236100                    LDQ     8,,PR0
         2 001150   000020 772000                    QRL     16
         2 001151   001440 036007                    ADLQ    800,DL
         2 001152   000020 736000                    QLS     16
         2 001153   000010 676100                    ERQ     8,,PR0
         2 001154   000034 376000 xsym               ANQ     B_VECTNIL+28
PL6.E3A0      #001=XUG$COMMON File=XUG$COMMON.:E05TSI                            WED 07/30/97 09:17 Page:106
         2 001155   000010 656100                    ERSQ    8,,PR0

      491    16191
      492    16192    1       RETURN ;

  16192  2 001156   000000 702200 xent               TSX2  ! X66_ARET

      493    16193
      494    16194    1   CANT_EXPAND_SEGMENT:
      495    16195
      496    16196    1       ALTRETURN;

  16196  2 001157   000000 702200 xent  CANT_EXPAND* TSX2  ! X66_AALT

      497    16197
      498    16198        %EJECT ;
PL6.E3A0      #001=XUG$COMMON File=XUG$COMMON.:E05TSI                            WED 07/30/97 09:17 Page:107
      499    16199    1   XUG$GETCMD_COMMON: ENTRY (GETCMD) ALTRET;

  16199  2 001160   000000 700200 xent  XUG$GETCMD_* TSX0  ! X66_AUTO_2
         2 001161   000440 000002                    ZERO    288,2

      500    16200    1       IF GETCMD.WORK$ = ADDR(NIL)

  16200  2 001162   200003 470500                    LDP0    @GETCMD,,AUTO
         2 001163   000004 236100                    LDQ     4,,PR0
         2 001164   000001 116000 xsym               CMPQ    B_VECTNIL+1
         2 001165   001203 601000 2                  TNZ     s:16208

      501    16201    2       THEN DO;

      502    16202    2           XUG_INIT_A = XUG_INIT_C ;

  16202  2 001166   000100 100400                    MLR     fill='000'O
         2 001167   000210 000220 0                  ADSC9   XUG_INIT_C               cn=0,n=144
         2 001170   200154 000220                    ADSC9   XUG_INIT_A,,AUTO         cn=0,n=144

      503    16203    2           CALL XUG$INIT_COMMON(GETCMD, XUG_INIT_A)

  16203  2 001171   200154 631500                    EPPR1   XUG_INIT_A,,AUTO
         2 001172   200433 451500                    STP1    LEGAL_TEXTC+18,,AUTO
         2 001173   200003 236100                    LDQ     @GETCMD,,AUTO
         2 001174   200432 756100                    STQ     LEGAL_TEXTC+17,,AUTO
         2 001175   200432 630500                    EPPR0   LEGAL_TEXTC+17,,AUTO
         2 001176   000020 631400 xsym               EPPR1   B_VECTNIL+16
         2 001177   000006 701000 2                  TSX1    s:15917
         2 001200   001202 702000 2                  TSX2    s:16205
         2 001201   001203 710000 2                  TRA     s:16208

      504    16204    3           WHENALTRETURN DO;

      505    16205    3               ALTRETURN;

  16205  2 001202   000000 702200 xent               TSX2  ! X66_AALT
PL6.E3A0      #001=XUG$COMMON File=XUG$COMMON.:E05TSI                            WED 07/30/97 09:17 Page:108

      506    16206    3           END;
      507    16207    2       END ; /* Then Do */

      508    16208    1       XUG$ = GETCMD.WORK$ ;

  16208  2 001203   200003 470500                    LDP0    @GETCMD,,AUTO
         2 001204   000004 236100                    LDQ     4,,PR0
         2 001205   200220 756100                    STQ     XUG$,,AUTO

      509    16209    1       P_PCB$ = XUG.P_PCB$ ;

  16209  2 001206   200220 471500                    LDP1    XUG$,,AUTO
         2 001207   100072 236100                    LDQ     58,,PR1
         2 001210   200224 756100                    STQ     P_PCB$,,AUTO

      510    16210    1       IF GETCMD.NODES$ ~= ADDR(NIL)

  16210  2 001211   000000 236100                    LDQ     0,,PR0
         2 001212   000001 116000 xsym               CMPQ    B_VECTNIL+1
         2 001213   001223 600000 2                  TZE     s:16238

      511    16211    1       THEN
      512    16212    1           IF GETCMD.NODES$ -> P$NODE.TYPE = 0

  16212  2 001214   000000 473500                    LDP3    0,,PR0
         2 001215   300000 236100                    LDQ     0,,PR3
         2 001216   700000 316003                    CANQ    -32768,DU
         2 001217   001223 601000 2                  TNZ     s:16238

      513    16213    2           THEN DO;

      514    16214    2               GETCMD.ERR# = XUG#PRE_C00;

  16214  2 001220   000205 236000 0                  LDQ     XUG#PRE_C00
         2 001221   000001 756100                    STQ     1,,PR0

PL6.E3A0      #001=XUG$COMMON File=XUG$COMMON.:E05TSI                            WED 07/30/97 09:17 Page:109
      515    16215        /*E*     ERROR:   XUG-E$PCB_PRE_C00
      516    16216                 MESSAGE: Parse control block is pre-C00;  cannot parse.
      517    16217                 MESSAGE1: The parse nodes passed to XUG$GETCMD or XUR$GETCMD appear
      518    16218                          to be of pre-C00 vintage.  The format of X$PARSE nodes
      519    16219                          (produced by PARTRGE) was changed substantially for the
      520    16220                          C00 version of CP-6, and pre-C00 nodes/PCBs/PARSE$BLKs
      521    16221                          (etc.) are not compatible with this parser.  Your program
      522    16222                          must be updated if you wish to run it on a D00 (or later)
      523    16223                          version of CP-6.  This will require:
      524    16224
      525    16225                          1) Recompiling all PL-6 routines that use any of the parser's
      526    16226                             data structures;
      527    16227
      528    16228                          2) Re-PARTRGEing all of the program's parse nodes;  and
      529    16229
      530    16230                          3) Re-LINKing the run unit.
      531    16231
      532    16232                          Please see the "CP-6 C00 System Release Bulletin", or the
      533    16233                          Host Library Services manual (CE71) for the necessary
      534    16234                          information and procedures.
      535    16235        */
      536    16236    2               ALTRETURN;

  16236  2 001222   000000 702200 xent               TSX2  ! X66_AALT

      537    16237    2           END;
      538    16238    1       XUG.USER$ = P_PCB.USER$ ;

  16238  2 001223   200224 473500                    LDP3    P_PCB$,,AUTO
         2 001224   300014 236100                    LDQ     12,,PR3
         2 001225   100076 756100                    STQ     62,,PR1

      539    16239    1       P_PCB.USER$ = ADDR(GETCMD) ;

  16239  2 001226   200003 236100                    LDQ     @GETCMD,,AUTO
         2 001227   300014 756100                    STQ     12,,PR3

PL6.E3A0      #001=XUG$COMMON File=XUG$COMMON.:E05TSI                            WED 07/30/97 09:17 Page:110
      540    16240    1       SAVE_PROMPT_ = GETCMD.PROMPT_;

  16240  2 001230   000100 100500                    MLR     fill='000'O
         2 001231   000025 000010                    ADSC9   21,,PR0                  cn=0,n=8
         2 001232   200316 000010                    ADSC9   SAVE_PROMPT_,,AUTO       cn=0,n=8

      541    16241    1       SAVE_RPROMPT_ = GETCMD.RPROMPT_;

  16241  2 001233   000100 100500                    MLR     fill='000'O
         2 001234   000027 000010                    ADSC9   23,,PR0                  cn=0,n=8
         2 001235   200320 000010                    ADSC9   SAVE_RPROMPT_,,AUTO      cn=0,n=8

      542    16242    1       SAVE_PROMPT_VFC = GETCMD.PROMPT_VFC#;

  16242  2 001236   000006 236100                    LDQ     6,,PR0
         2 001237   000005 736000                    QLS     5
         2 001240   400000 376003                    ANQ     -131072,DU
         2 001241   200322 756100                    STQ     SAVE_PROMPT_VFC,,AUTO

      543    16243    1       REMEMBER PARSEALT IN XUG.REM_PARSE;

  16243  2 001242   002560 635000 2                  EAA     PARSEALT
         2 001243   100014 452500                    STP2    12,,PR1
         2 001244   100015 755100                    STA     13,,PR1

      544    16244
      545    16245    1   GETCMD:
      546    16246    1       GETCMD.PROMPT_ = SAVE_PROMPT_;

  16246  2 001245   200003 470500       GETCMD       LDP0    @GETCMD,,AUTO
         2 001246   200316 237100                    LDAQ    SAVE_PROMPT_,,AUTO
         2 001247   000025 755100                    STA     21,,PR0
         2 001250   000026 756100                    STQ     22,,PR0

      547    16247    1       GETCMD.RPROMPT_ = SAVE_RPROMPT_;

  16247  2 001251   200320 237100                    LDAQ    SAVE_RPROMPT_,,AUTO
PL6.E3A0      #001=XUG$COMMON File=XUG$COMMON.:E05TSI                            WED 07/30/97 09:17 Page:111
         2 001252   000027 755100                    STA     23,,PR0
         2 001253   000030 756100                    STQ     24,,PR0

      548    16248    1       GETCMD.PROMPT_VFC# = SAVE_PROMPT_VFC;

  16248  2 001254   200322 236100                    LDQ     SAVE_PROMPT_VFC,,AUTO
         2 001255   000005 772000                    QRL     5
         2 001256   000006 676100                    ERQ     6,,PR0
         2 001257   010000 376003                    ANQ     4096,DU
         2 001260   000006 656100                    ERSQ    6,,PR0

      549    16249    1       XUG.NLINES=0;

  16249  2 001261   200220 471500                    LDP1    XUG$,,AUTO
         2 001262   100106 450100                    STZ     70,,PR1

      550    16250    2       IF GETCMD.INDCB#=DCBNUM(NIL) THEN DO;

  16250  2 001263   000012 235100                    LDA     10,,PR0
         2 001264   001275 601000 2                  TNZ     s:16253

      551    16251    2           CALL XUG$GETDCB_COMMON(M$SI,GETCMD.INDCB#) ALTRET(MALT);

  16251  2 001265   200003 236100                    LDQ     @GETCMD,,AUTO
         2 001266   000012 036003                    ADLQ    10,DU
         2 001267   000013 235000 3                  LDA     11
         2 001270   200432 757100                    STAQ    LEGAL_TEXTC+17,,AUTO
         2 001271   200432 630500                    EPPR0   LEGAL_TEXTC+17,,AUTO
         2 001272   000020 631400 xsym               EPPR1   B_VECTNIL+16
         2 001273   000000 701000 xent               TSX1    XUG$GETDCB_COMMON
         2 001274   002543 702000 2                  TSX2    MALT

      552    16252    2       END;

      553    16253    2       IF GETCMD.OUTDCB#=DCBNUM(NIL) THEN DO;

  16253  2 001275   200003 470500                    LDP0    @GETCMD,,AUTO
PL6.E3A0      #001=XUG$COMMON File=XUG$COMMON.:E05TSI                            WED 07/30/97 09:17 Page:112
         2 001276   000013 235100                    LDA     11,,PR0
         2 001277   001310 601000 2                  TNZ     s:16256

      554    16254    2           CALL XUG$GETDCB_COMMON(M$LO,GETCMD.OUTDCB#) ALTRET(MALT);

  16254  2 001300   200003 236100                    LDQ     @GETCMD,,AUTO
         2 001301   000013 036003                    ADLQ    11,DU
         2 001302   000016 235000 3                  LDA     14
         2 001303   200432 757100                    STAQ    LEGAL_TEXTC+17,,AUTO
         2 001304   200432 630500                    EPPR0   LEGAL_TEXTC+17,,AUTO
         2 001305   000020 631400 xsym               EPPR1   B_VECTNIL+16
         2 001306   000000 701000 xent               TSX1    XUG$GETDCB_COMMON
         2 001307   002543 702000 2                  TSX2    MALT

      555    16255    2       END;

      556    16256    1       GETCMD.DCB_PARAM# = GETCMD.OUTDCB# ;

  16256  2 001310   200003 470500                    LDP0    @GETCMD,,AUTO
         2 001311   000013 235100                    LDA     11,,PR0
         2 001312   000014 755100                    STA     12,,PR0

      557    16257    1       P_PCB.OUTDCB# = GETCMD.OUTDCB# ;

  16257  2 001313   200224 471500                    LDP1    P_PCB$,,AUTO
         2 001314   000013 236100                    LDQ     11,,PR0
         2 001315   100010 676100                    ERQ     8,,PR1
         2 001316   037777 376007                    ANQ     16383,DL
         2 001317   100010 656100                    ERSQ    8,,PR1

      558    16258    1       XUG.DCBS = '0'B;

  16258  2 001320   200220 473500                    LDP3    XUG$,,AUTO
         2 001321   000100 100400                    MLR     fill='000'O
         2 001322   000002 000001 xsym               ADSC9   B_VECTNIL+2              cn=0,n=1
         2 001323   300113 000120                    ADSC9   75,,PR3                  cn=0,n=80

PL6.E3A0      #001=XUG$COMMON File=XUG$COMMON.:E05TSI                            WED 07/30/97 09:17 Page:113
      559    16259    1       XUG.DCBS.NUM(0)=GETCMD.INDCB#;

  16259  2 001324   000012 720100                    LXL0    10,,PR0
         2 001325   300113 740100                    STX0    75,,PR3

      560    16260    1       XUG.DCBS.NUM(1)=GETCMD.OUTDCB#;

  16260  2 001326   000013 721100                    LXL1    11,,PR0
         2 001327   300115 741100                    STX1    77,,PR3

      561    16261    1       XUG.DCBS.ERRPTR_CPOS(0) = -1 ;

  16261  2 001330   777777 222003                    LDX2    -1,DU
         2 001331   300113 442100                    SXL2    75,,PR3

      562    16262    1       XUG.NDCBS=0;

  16262  2 001332   300112 450100                    STZ     74,,PR3

      563    16263    1       CALL XUG$SETPROMPT (GETCMD) ALTRET(MALT) ;

  16263  2 001333   200003 630500                    EPPR0   @GETCMD,,AUTO
         2 001334   000017 631400 xsym               EPPR1   B_VECTNIL+15
         2 001335   005071 701000 2                  TSX1    s:16997
         2 001336   002543 702000 2                  TSX2    MALT

      564    16264    1       IF GETCMD.SFROUTINE$=ENTADDR(NIL) THEN XUG.SFROUTINE=ENTADDR(NIL);

  16264  2 001337   200003 470500                    LDP0    @GETCMD,,AUTO
         2 001340   000033 236100                    LDQ     27,,PR0
         2 001341   000002 116000 xsym               CMPQ    B_VECTNIL+2
         2 001342   001347 601000 2                  TNZ     s:16265

  16264  2 001343   000002 236000 xsym               LDQ     B_VECTNIL+2
         2 001344   200220 471500                    LDP1    XUG$,,AUTO
         2 001345   100024 756100                    STQ     20,,PR1
         2 001346   001351 710000 2                  TRA     s:16266
PL6.E3A0      #001=XUG$COMMON File=XUG$COMMON.:E05TSI                            WED 07/30/97 09:17 Page:114

      565    16265    1       ELSE XUG.SFROUTINE=GETCMD.SFROUTINE$ ;

  16265  2 001347   200220 471500                    LDP1    XUG$,,AUTO
         2 001350   100024 756100                    STQ     20,,PR1

      566    16266    1       XUG.READVEC=XUG.BUFVEC;

  16266  2 001351   100000 237100                    LDAQ    0,,PR1
         2 001352   100002 757100                    STAQ    2,,PR1

      567    16267    1       XUG.CPOS=0;

  16267  2 001353   100104 450100                    STZ     68,,PR1

      568    16268    1       XUG.CCBUF_OFFC = 0 ;

  16268  2 001354   000000 220003                    LDX0    0,DU
         2 001355   100267 740100                    STX0    183,,PR1

      569    16269    1       XUG.PP_ERR = '0'B;

  16269  2 001356   100100 450100                    STZ     64,,PR1

      570    16270    1       XUG.FIRST_ERROR = %NO#;

  16270  2 001357   000017 236000 3                  LDQ     15
         2 001360   100071 356100                    ANSQ    57,,PR1

      571    16271    1       GETCMD.EOMCHAR# = %EOM_EOR#;

  16271  2 001361   501000 236007                    LDQ     -97792,DL
         2 001362   000007 552110                    STBQ    7,'10'O,PR0

      572    16272    1       GETCMD.CONTINUED# = %NO# ;

  16272  2 001363   000020 236000 3                  LDQ     16
PL6.E3A0      #001=XUG$COMMON File=XUG$COMMON.:E05TSI                            WED 07/30/97 09:17 Page:115
         2 001364   000006 356100                    ANSQ    6,,PR0

      573    16273    1       GETCMD.RCVD_PROMPT# = %NO# ;

  16273  2 001365   000021 236000 3                  LDQ     17
         2 001366   000006 356100                    ANSQ    6,,PR0

      574    16274    1       GETCMD.ERR# = '0'B ;

  16274  2 001367   000001 450100                    STZ     1,,PR0

      575    16275    1       IF XUG.SYNERR

  16275  2 001370   100071 236100                    LDQ     57,,PR1
         2 001371   004000 316003                    CANQ    2048,DU
         2 001372   001377 600000 2                  TZE     s:16278

      576    16276    1       THEN
      577    16277    1           TWOCHARS=SUBSTR(VBASE(XUG.BUFVEC)->INBUF,0,2);

  16277  2 001373   100001 473500                    LDP3    1,,PR1
         2 001374   040100 100500                    MLR     fill='040'O
         2 001375   300000 000002                    ADSC9   0,,PR3                   cn=0,n=2
         2 001376   200247 000002                    ADSC9   TWOCHARS,,AUTO           cn=0,n=2

      578    16278    1       IF GETCMD.TEXT_=VECTOR(NIL) THEN

  16278  2 001377   000034 237100                    LDAQ    28,,PR0
         2 001400   000004 117000 3                  CMPAQ   4
         2 001401   001761 601000 2                  TNZ     s:16368

      579    16279    2           IF XUG.GOTCMD THEN DO;

  16279  2 001402   100071 236100                    LDQ     57,,PR1
         2 001403   100000 316003                    CANQ    32768,DU
         2 001404   001520 600000 2                  TZE     s:16306

PL6.E3A0      #001=XUG$COMMON File=XUG$COMMON.:E05TSI                            WED 07/30/97 09:17 Page:116
      580    16280    2               XUG.GOTCMD='0'B;

  16280  2 001405   000020 236000 3                  LDQ     16
         2 001406   100071 356100                    ANSQ    57,,PR1

      581    16281    2               ARS = XUG.BRKARS;

  16281  2 001407   100101 235100                    LDA     65,,PR1
         2 001410   200244 755100                    STA     ARS,,AUTO

      582    16282    2               GETCMD.EOMCHAR# = XUG.GOTCMD_EOMCHAR;

  16282  2 001411   100266 236100                    LDQ     182,,PR1
         2 001412   000022 772000                    QRL     18
         2 001413   000007 552110                    STBQ    7,'10'O,PR0

      583    16283    2               XUG.BRKARS = 0;

  16283  2 001414   100101 450100                    STZ     65,,PR1

      584    16284    2               IF (NOT GETCMD.SKIP_PREPROCESS#) AND XUG.PREPROCESS

  16284  2 001415   000006 236100                    LDQ     6,,PR0
         2 001416   004000 316003                    CANQ    2048,DU
         2 001417   001453 601000 2                  TNZ     s:16295
         2 001420   100071 236100                    LDQ     57,,PR1
         2 001421   002000 316003                    CANQ    1024,DU
         2 001422   001453 600000 2                  TZE     s:16295

      585    16285    3               THEN DO;

      586    16286    3                   IF XUG.PREPROCESSOR$$ ~= ENTADDR(NIL)

  16286  2 001423   100023 236100                    LDQ     19,,PR1
         2 001424   000002 116000 xsym               CMPQ    B_VECTNIL+2
         2 001425   001442 600000 2                  TZE     s:16292

PL6.E3A0      #001=XUG$COMMON File=XUG$COMMON.:E05TSI                            WED 07/30/97 09:17 Page:117
      587    16287    4                   THEN DO;

      588    16288    4                       CALL XUG$PRE_PROCESSOR (GETCMD,ARS);

  16288  2 001426   200244 633500                    EPPR3   ARS,,AUTO
         2 001427   200433 453500                    STP3    LEGAL_TEXTC+18,,AUTO
         2 001430   200003 236100                    LDQ     @GETCMD,,AUTO
         2 001431   200432 756100                    STQ     LEGAL_TEXTC+17,,AUTO
         2 001432   200432 630500                    EPPR0   LEGAL_TEXTC+17,,AUTO
         2 001433   000020 631400 xsym               EPPR1   B_VECTNIL+16
         2 001434   000000 701000 xent               TSX1    XUG$PRE_PROCESSOR
         2 001435   000000 011000                    NOP     0

      589    16289    4                       CALL X66_REL_AUTO;

  16289  2 001436   000002 631400 xsym               EPPR1   B_VECTNIL+2
         2 001437   000000 701000 xent               TSX1    X66_REL_AUTO
         2 001440   000000 011000                    NOP     0

      590    16290    4                   END;

  16290  2 001441   001455 710000 2                  TRA     s:16296

      591    16291    3                   ELSE
      592    16292    3                       CALL XUG$PP_CMDVARS (GETCMD,ARS);

  16292  2 001442   200244 633500                    EPPR3   ARS,,AUTO
         2 001443   200433 453500                    STP3    LEGAL_TEXTC+18,,AUTO
         2 001444   200003 236100                    LDQ     @GETCMD,,AUTO
         2 001445   200432 756100                    STQ     LEGAL_TEXTC+17,,AUTO
         2 001446   200432 630500                    EPPR0   LEGAL_TEXTC+17,,AUTO
         2 001447   000020 631400 xsym               EPPR1   B_VECTNIL+16
         2 001450   000000 701000 xent               TSX1    XUG$PP_CMDVARS
         2 001451   000000 011000                    NOP     0

      593    16293    3               END;

PL6.E3A0      #001=XUG$COMMON File=XUG$COMMON.:E05TSI                            WED 07/30/97 09:17 Page:118
  16293  2 001452   001455 710000 2                  TRA     s:16296

      594    16294    2               ELSE
      595    16295    2                   GETCMD.SKIP_PREPROCESS# = '0'B ;

  16295  2 001453   000022 236000 3                  LDQ     18
         2 001454   000006 356100                    ANSQ    6,,PR0

      596    16296    2               VBOUND(XUG.READVEC) = ARS - 1;

  16296  2 001455   200220 470500                    LDP0    XUG$,,AUTO
         2 001456   200244 236100                    LDQ     ARS,,AUTO
         2 001457   000001 136007                    SBLQ    1,DL
         2 001460   000020 736000                    QLS     16
         2 001461   000002 676100                    ERQ     2,,PR0
         2 001462   000034 376000 xsym               ANQ     B_VECTNIL+28
         2 001463   000002 656100                    ERSQ    2,,PR0

      597    16297    2               CALL XUG$SETLAST(GETCMD);

  16297  2 001464   200003 630500                    EPPR0   @GETCMD,,AUTO
         2 001465   000017 631400 xsym               EPPR1   B_VECTNIL+15
         2 001466   000000 701000 xent               TSX1    XUG$SETLAST
         2 001467   000000 011000                    NOP     0

      598    16298    2               GETCMD.TREAD# = %YES# ;

  16298  2 001470   200003 470500                    LDP0    @GETCMD,,AUTO
         2 001471   200000 236003                    LDQ     65536,DU
         2 001472   000006 256100                    ORSQ    6,,PR0

      599    16299    2               IF NOT (DCBADDR(GETCMD.OUTDCB#)-> F$DCB.DDEV.UCOUT# OR

  16299  2 001473   000023 471400 3                  LDP1    19
         2 001474   100000 473500                    LDP3    0,,PR1
         2 001475   000013 720100                    LXL0    11,,PR0
         2 001476   300000 474510                    LDP4    0,X0,PR3
PL6.E3A0      #001=XUG$COMMON File=XUG$COMMON.:E05TSI                            WED 07/30/97 09:17 Page:119
         2 001477   400004 236100                    LDQ     4,,PR4
         2 001500   020000 316007                    CANQ    8192,DL
         2 001501   001513 601000 2                  TNZ     s:16303
         2 001502   000000 236007 xsym               LDQ     M$UC,DL
         2 001503   300000 475506                    LDP5    0,QL,PR3
         2 001504   500003 236100                    LDQ     3,,PR5
         2 001505   020000 316003                    CANQ    8192,DU
         2 001506   001513 601000 2                  TNZ     s:16303

      600    16300    2                 DCBADDR(DCBNUM(M$UC)) -> F$DCB.DVBYTE.TRANS#)
      601    16301    2               THEN
      602    16302    2                   CALL XUG$ECHOLAST_COMMON (GETCMD);

  16302  2 001507   200003 630500                    EPPR0   @GETCMD,,AUTO
         2 001510   000017 631400 xsym               EPPR1   B_VECTNIL+15
         2 001511   000000 701000 xent               TSX1    XUG$ECHOLAST_COMMON
         2 001512   000000 011000                    NOP     0

      603    16303    2               XUG.DCBS.NUM(0)=DCBNUM(M$UC);

  16303  2 001513   000000 236007 xsym               LDQ     M$UC,DL
         2 001514   000000 620006                    EAX0    0,QL
         2 001515   200220 470500                    LDP0    XUG$,,AUTO
         2 001516   000113 740100                    STX0    75,,PR0

      604    16304    2           END;

  16304  2 001517   002237 710000 2                  TRA     s:16434

      605    16305    2           ELSE DO;

      606    16306    2               CALL XUG$DISABLE_COMMON(GETCMD);

  16306  2 001520   200003 630500                    EPPR0   @GETCMD,,AUTO
         2 001521   000017 631400 xsym               EPPR1   B_VECTNIL+15
         2 001522   000000 701000 xent               TSX1    XUG$DISABLE_COMMON
         2 001523   000000 011000                    NOP     0
PL6.E3A0      #001=XUG$COMMON File=XUG$COMMON.:E05TSI                            WED 07/30/97 09:17 Page:120

      607    16307    2               CALL XUG$READCMD_COMMON(GETCMD,XUG.READVEC,ARS) ALTRET(RDALT1);

  16307  2 001524   200244 630500                    EPPR0   ARS,,AUTO
         2 001525   200434 450500                    STP0    LEGAL_TEXTC+19,,AUTO
         2 001526   200220 236100                    LDQ     XUG$,,AUTO
         2 001527   000002 036003                    ADLQ    2,DU
         2 001530   200003 235100                    LDA     @GETCMD,,AUTO
         2 001531   200432 757100                    STAQ    LEGAL_TEXTC+17,,AUTO
         2 001532   200432 630500                    EPPR0   LEGAL_TEXTC+17,,AUTO
         2 001533   000021 631400 xsym               EPPR1   B_VECTNIL+17
         2 001534   000000 701000 xent               TSX1    XUG$READCMD_COMMON
         2 001535   003101 702000 2                  TSX2    RDALT1

      608    16308    3               DO WHILE XUG.SYNERR;

  16308  2 001536   200220 470500                    LDP0    XUG$,,AUTO
         2 001537   000071 236100                    LDQ     57,,PR0
         2 001540   004000 316003                    CANQ    2048,DU
         2 001541   001754 600000 2                  TZE     s:16365

      609    16309    4                   IF ARS=1 AND SUBSTR(VBASE(XUG.BUFVEC)->INBUF,0,1)='?' THEN DO;

  16309  2 001542   200244 235100                    LDA     ARS,,AUTO
         2 001543   000001 115007                    CMPA    1,DL
         2 001544   001745 601000 2                  TNZ     s:16363
         2 001545   200220 470500                    LDP0    XUG$,,AUTO
         2 001546   000001 471500                    LDP1    1,,PR0
         2 001547   040000 106500                    CMPC    fill='040'O
         2 001550   100000 000001                    ADSC9   0,,PR1                   cn=0,n=1
         2 001551   000024 000001 3                  ADSC9   20                       cn=0,n=1
         2 001552   001745 601000 2                  TNZ     s:16363

      610    16310    4   SHOW_ALTRN:
      611    16311    4                       IF XUG.PRE_EXEC ~= ENTADDR(NIL)

  16311  2 001553   200220 470500       SHOW_ALTRN   LDP0    XUG$,,AUTO
PL6.E3A0      #001=XUG$COMMON File=XUG$COMMON.:E05TSI                            WED 07/30/97 09:17 Page:121
         2 001554   000026 236100                    LDQ     22,,PR0
         2 001555   000002 116000 xsym               CMPQ    B_VECTNIL+2
         2 001556   001570 600000 2                  TZE     s:16314

      612    16312    4                       THEN
      613    16313    4                           CALL XUG.PRE_EXEC (GETCMD, %XUG_CMD_Q1);

  16313  2 001557   000025 236000 3                  LDQ     21
         2 001560   200003 235100                    LDA     @GETCMD,,AUTO
         2 001561   200432 757100                    STAQ    LEGAL_TEXTC+17,,AUTO
         2 001562   200432 630500                    EPPR0   LEGAL_TEXTC+17,,AUTO
         2 001563   200220 471500                    LDP1    XUG$,,AUTO
         2 001564   100026 220100                    LDX0    22,,PR1
         2 001565   000020 631400 xsym               EPPR1   B_VECTNIL+16
         2 001566   000000 701010                    TSX1    0,X0
         2 001567   000000 011000                    NOP     0

      614    16314    4                       CALL INSERT(VBASE(XUG.BUFVEC)->INBUF,0,2,TWOCHARS);

  16314  2 001570   200220 470500                    LDP0    XUG$,,AUTO
         2 001571   000001 471500                    LDP1    1,,PR0
         2 001572   040100 100500                    MLR     fill='040'O
         2 001573   200247 000002                    ADSC9   TWOCHARS,,AUTO           cn=0,n=2
         2 001574   100000 000002                    ADSC9   0,,PR1                   cn=0,n=2

      615    16315    4                       IF XUG.DOCMD_SYNERR

  16315  2 001575   000071 236100                    LDQ     57,,PR0
         2 001576   000100 316003                    CANQ    64,DU
         2 001577   002372 601000 2                  TNZ     NORMAL_PARSE

      616    16316    4                       THEN
      617    16317    4                           GOTO NORMAL_PARSE ;
      618    16318    4                       IF XUG.NEED_ECHO AND GETCMD.TEXT_ = VECTOR(NIL)

  16318  2 001600   000020 316003                    CANQ    16,DU
         2 001601   001631 600000 2                  TZE     ALT_OUT
PL6.E3A0      #001=XUG$COMMON File=XUG$COMMON.:E05TSI                            WED 07/30/97 09:17 Page:122
         2 001602   200003 471500                    LDP1    @GETCMD,,AUTO
         2 001603   100034 237100                    LDAQ    28,,PR1
         2 001604   000004 117000 3                  CMPAQ   4
         2 001605   001631 601000 2                  TNZ     ALT_OUT

      619    16319    5                       THEN DO;

      620    16320    5                           XUG.NLINES = 1 ;

  16320  2 001606   000001 235007                    LDA     1,DL
         2 001607   000106 755100                    STA     70,,PR0

      621    16321    5                           VBASE(XUG.RLTVEC)->RLT(1) = 1 ;

  16321  2 001610   000013 473500                    LDP3    11,,PR0
         2 001611   000100 101400                    MRL     fill='000'O
         2 001612   000003 000004 xsym               ADSC9   B_VECTNIL+3              cn=0,n=4
         2 001613   300000 200001                    ADSC9   0,,PR3                   cn=1,n=1

      622    16322    5                           SUBSTR(VBASE(XUG.BUFVEC)->INBUF,0,1) = '?' ;

  16322  2 001614   000001 473500                    LDP3    1,,PR0
         2 001615   040100 100400                    MLR     fill='040'O
         2 001616   000024 000001 3                  ADSC9   20                       cn=0,n=1
         2 001617   300000 000001                    ADSC9   0,,PR3                   cn=0,n=1

      623    16323    5                           CALL XUG$ECHO_COMMON(GETCMD) ;

  16323  2 001620   200003 630500                    EPPR0   @GETCMD,,AUTO
         2 001621   000017 631400 xsym               EPPR1   B_VECTNIL+15
         2 001622   004472 701000 2                  TSX1    s:16911
         2 001623   000000 011000                    NOP     0

      624    16324    5                           SUBSTR(VBASE(XUG.BUFVEC)->INBUF,0,1) = SUBSTR(TWOCHARS,0,1)
             16324                                    ;

  16324  2 001624   200220 470500                    LDP0    XUG$,,AUTO
PL6.E3A0      #001=XUG$COMMON File=XUG$COMMON.:E05TSI                            WED 07/30/97 09:17 Page:123
         2 001625   000001 471500                    LDP1    1,,PR0
         2 001626   040100 100500                    MLR     fill='040'O
         2 001627   200247 000001                    ADSC9   TWOCHARS,,AUTO           cn=0,n=1
         2 001630   100000 000001                    ADSC9   0,,PR1                   cn=0,n=1

      625    16325    5                       END;

      626    16326    4   ALT_OUT:            P_PCB.NXT = '1'B;

  16326  2 001631   200224 470500       ALT_OUT      LDP0    P_PCB$,,AUTO
         2 001632   040000 236007                    LDQ     16384,DL
         2 001633   000005 256100                    ORSQ    5,,PR0

      627    16327    4                       IF GETCMD.SYNERR_NODES$ ~= ADDR(NIL)

  16327  2 001634   200003 471500                    LDP1    @GETCMD,,AUTO
         2 001635   100042 236100                    LDQ     34,,PR1
         2 001636   000001 116000 xsym               CMPQ    B_VECTNIL+1
         2 001637   001641 600000 2                  TZE     s:16330

      628    16328    4                       THEN
      629    16329    4                           P_PCB.ROOT$ = GETCMD.SYNERR_NODES$;

  16329  2 001640   000001 756100                    STQ     1,,PR0

      630    16330    4                       P_PCB.USER$ = ADDR(GETCMD) ;

  16330  2 001641   200003 236100                    LDQ     @GETCMD,,AUTO
         2 001642   000014 756100                    STQ     12,,PR0

      631    16331    4                       IF XUG.SPELLING AND NOT XUG.SPELLING_TRIED

  16331  2 001643   200220 473500                    LDP3    XUG$,,AUTO
         2 001644   300071 236100                    LDQ     57,,PR3
         2 001645   000002 316003                    CANQ    2,DU
         2 001646   001655 600000 2                  TZE     s:16334
         2 001647   000001 316003                    CANQ    1,DU
PL6.E3A0      #001=XUG$COMMON File=XUG$COMMON.:E05TSI                            WED 07/30/97 09:17 Page:124
         2 001650   001655 601000 2                  TNZ     s:16334

      632    16332    4                       THEN
      633    16333    4                           CALL SPELLING_CHECKER (%NO#) ALTRET (READ_ANOTHER);

  16333  2 001651   000015 236000 3                  LDQ     13
         2 001652   200353 756100                    STQ     OUTDCB#+2,,AUTO
         2 001653   006010 701000 2                  TSX1    SPELLING_CHECKER
         2 001654   001671 702000 2                  TSX2    READ_ANOTHER

      634    16334    4                       XUG.SYNERR = %NO#;

  16334  2 001655   200220 470500                    LDP0    XUG$,,AUTO
         2 001656   000022 236000 3                  LDQ     18
         2 001657   000071 356100                    ANSQ    57,,PR0

      635    16335    4                       GETCMD.ERR_CODE = XUG#LEGAL_INPUT_HERE;

  16335  2 001660   000173 236000 0                  LDQ     XUG#LEGAL_INPUT_HERE
         2 001661   200003 471500                    LDP1    @GETCMD,,AUTO
         2 001662   100010 756100                    STQ     8,,PR1

      636    16336    4                       CALL XUG$ERRMSG_COMMON (GETCMD);

  16336  2 001663   200003 630500                    EPPR0   @GETCMD,,AUTO
         2 001664   000017 631400 xsym               EPPR1   B_VECTNIL+15
         2 001665   000000 701000 xent               TSX1    XUG$ERRMSG_COMMON
         2 001666   000000 011000                    NOP     0

      637    16337        /*E*  ERROR:   XUG-E$XUG#LEGAL_INPUT_HERE
      638    16338              MESSAGE0:Legal input at the point of error could be any of the following:
      639    16339        */
      640    16340    4                       CALL REPORT_ALTERNATIVES;

  16340  2 001667   005367 701000 2                  TSX1    REPORT_ALTERNATIVES
         2 001670   000000 011000                    NOP     0

PL6.E3A0      #001=XUG$COMMON File=XUG$COMMON.:E05TSI                            WED 07/30/97 09:17 Page:125
      641    16341    4   READ_ANOTHER:       IF XUG.POST_EXEC ~= ENTADDR(NIL)

  16341  2 001671   200220 470500       READ_ANOTHER LDP0    XUG$,,AUTO
         2 001672   000027 236100                    LDQ     23,,PR0
         2 001673   000002 116000 xsym               CMPQ    B_VECTNIL+2
         2 001674   001706 600000 2                  TZE     s:16344

      642    16342    4                       THEN
      643    16343    4                           CALL XUG.POST_EXEC (GETCMD, %XUG_CMD_Q1);

  16343  2 001675   000025 236000 3                  LDQ     21
         2 001676   200003 235100                    LDA     @GETCMD,,AUTO
         2 001677   200432 757100                    STAQ    LEGAL_TEXTC+17,,AUTO
         2 001700   200432 630500                    EPPR0   LEGAL_TEXTC+17,,AUTO
         2 001701   200220 471500                    LDP1    XUG$,,AUTO
         2 001702   100027 220100                    LDX0    23,,PR1
         2 001703   000020 631400 xsym               EPPR1   B_VECTNIL+16
         2 001704   000000 701010                    TSX1    0,X0
         2 001705   000000 011000                    NOP     0

      644    16344    4                       P_PCB.USER$ = XUG.USER$ ;

  16344  2 001706   200220 470500                    LDP0    XUG$,,AUTO
         2 001707   000076 236100                    LDQ     62,,PR0
         2 001710   200224 471500                    LDP1    P_PCB$,,AUTO
         2 001711   100014 756100                    STQ     12,,PR1

      645    16345    4                       P_PCB.NXT='0'B;

  16345  2 001712   000026 236000 3                  LDQ     22
         2 001713   100005 356100                    ANSQ    5,,PR1

      646    16346    4                       IF GETCMD.TEXT_ = VECTOR(NIL)

  16346  2 001714   200003 473500                    LDP3    @GETCMD,,AUTO
         2 001715   300034 237100                    LDAQ    28,,PR3
         2 001716   000004 117000 3                  CMPAQ   4
PL6.E3A0      #001=XUG$COMMON File=XUG$COMMON.:E05TSI                            WED 07/30/97 09:17 Page:126
         2 001717   001737 601000 2                  TNZ     s:16354

      647    16347    5                       THEN DO;

      648    16348    5                           GETCMD.CONTINUED# = %NO#;

  16348  2 001720   000020 236000 3                  LDQ     16
         2 001721   300006 356100                    ANSQ    6,,PR3

      649    16349    5                           GETCMD.RCVD_PROMPT# = %NO#;

  16349  2 001722   000021 236000 3                  LDQ     17
         2 001723   300006 356100                    ANSQ    6,,PR3

      650    16350    5                           CALL XUG$READCMD_COMMON(GETCMD,XUG.READVEC,ARS)

  16350  2 001724   200244 634500                    EPPR4   ARS,,AUTO
         2 001725   200434 454500                    STP4    LEGAL_TEXTC+19,,AUTO
         2 001726   200220 236100                    LDQ     XUG$,,AUTO
         2 001727   000002 036003                    ADLQ    2,DU
         2 001730   200003 235100                    LDA     @GETCMD,,AUTO
         2 001731   200432 757100                    STAQ    LEGAL_TEXTC+17,,AUTO
         2 001732   200432 630500                    EPPR0   LEGAL_TEXTC+17,,AUTO
         2 001733   000021 631400 xsym               EPPR1   B_VECTNIL+17
         2 001734   000000 701000 xent               TSX1    XUG$READCMD_COMMON
         2 001735   003101 702000 2                  TSX2    RDALT1

      651    16351    5                             ALTRET(RDALT1);
      652    16352    5                       END;

  16352  2 001736   001750 710000 2                  TRA     s:16364

      653    16353    5                       ELSE DO;

      654    16354    5                           IF GETCMD.ERR# = '0'B

  16354  2 001737   300001 235100                    LDA     1,,PR3
PL6.E3A0      #001=XUG$COMMON File=XUG$COMMON.:E05TSI                            WED 07/30/97 09:17 Page:127
         2 001740   001744 601000 2                  TNZ     s:16359

      655    16355    6                           THEN DO;

      656    16356    6                               GETCMD.OUT$ = ADDR(NIL) ;

  16356  2 001741   000001 236000 xsym               LDQ     B_VECTNIL+1
         2 001742   300001 756100                    STQ     1,,PR3

      657    16357    6                               GOTO GETCMD_RET ;

  16357  2 001743   002522 710000 2                  TRA     GETCMD_RET

      658    16358    6                           END;
      659    16359    5                           GOTO GETCMD_ALT1 ;

  16359  2 001744   003074 710000 2                  TRA     GETCMD_ALT1

      660    16360    5                       END;
      661    16361    4                   END;
      662    16362    3                   ELSE
      663    16363    3                       XUG.SYNERR = %NO#;

  16363  2 001745   200220 470500                    LDP0    XUG$,,AUTO
         2 001746   000022 236000 3                  LDQ     18
         2 001747   000071 356100                    ANSQ    57,,PR0

      664    16364    3               END;

  16364  2 001750   200220 470500                    LDP0    XUG$,,AUTO
         2 001751   000071 236100                    LDQ     57,,PR0
         2 001752   004000 316003                    CANQ    2048,DU
         2 001753   001542 601000 2                  TNZ     s:16309

      665    16365    2               CALL XUG$CLRENABLE_COMMON(GETCMD) ;

  16365  2 001754   200003 630500                    EPPR0   @GETCMD,,AUTO
PL6.E3A0      #001=XUG$COMMON File=XUG$COMMON.:E05TSI                            WED 07/30/97 09:17 Page:128
         2 001755   000017 631400 xsym               EPPR1   B_VECTNIL+15
         2 001756   000000 701000 xent               TSX1    XUG$CLRENABLE_COMMON
         2 001757   000000 011000                    NOP     0

      666    16366    2           END;

  16366  2 001760   002237 710000 2                  TRA     s:16434

      667    16367    2       ELSE DO;

      668    16368    2           J = 0;

  16368  2 001761   200251 450100                    STZ     J,,AUTO

      669    16369    2           IF VBASE(GETCMD.TEXT_) = ADDR(NIL) /* eg, VECTOR(ERASE) */

  16369  2 001762   000035 236100                    LDQ     29,,PR0
         2 001763   000001 116000 xsym               CMPQ    B_VECTNIL+1
         2 001764   001772 601000 2                  TNZ     s:16375

      670    16370    3           THEN DO;

      671    16371    3               CSIZE = 0;

  16371  2 001765   200254 450100                    STZ     CSIZE,,AUTO

      672    16372    3               TEXT$ = ADDR(XUG.BUF);

  16372  2 001766   200220 236100                    LDQ     XUG$,,AUTO
         2 001767   000300 036003                    ADLQ    192,DU
         2 001770   200230 756100                    STQ     TEXT$,,AUTO

      673    16373    3           END;

  16373  2 001771   002126 710000 2                  TRA     s:16411

      674    16374    3           ELSE DO;
PL6.E3A0      #001=XUG$COMMON File=XUG$COMMON.:E05TSI                            WED 07/30/97 09:17 Page:129

      675    16375    3               CSIZE=VBOUND(GETCMD.TEXT_)+1 ;

  16375  2 001772   000034 236100                    LDQ     28,,PR0
         2 001773   000020 772000                    QRL     16
         2 001774   000001 036007                    ADLQ    1,DL
         2 001775   200254 756100                    STQ     CSIZE,,AUTO

      676    16376    3               IF CSIZE > XUG.CMDSZ

  16376  2 001776   002005 604000 2                  TMI     s:16384
         2 001777   100111 116100                    CMPQ    73,,PR1
         2 002000   002005 602000 2                  TNC     s:16384
         2 002001   002005 600000 2                  TZE     s:16384

      677    16377    4               THEN DO;

      678    16378    4                   GETCMD.ERR# = XUG#LINETOOLONG;

  16378  2 002002   000206 236000 0                  LDQ     XUG#LINETOOLONG
         2 002003   000001 756100                    STQ     1,,PR0

      679    16379    4                   GOTO GETCMD_ALT;

  16379  2 002004   003071 710000 2                  TRA     GETCMD_ALT

      680    16380    4               END;
      681    16381        /*E* ERROR: XUG-E$XUG#LINETOOLONG
      682    16382             MESSAGE: Command line is too long.
      683    16383        */
      684    16384    3               SEG$ = VBASE( GETCMD.TEXT_ );

  16384  2 002005   000035 236100                    LDQ     29,,PR0
         2 002006   200232 756100                    STQ     SEG$,,AUTO

      685    16385    3               IF RSEG.SID = %JITSID

PL6.E3A0      #001=XUG$COMMON File=XUG$COMMON.:E05TSI                            WED 07/30/97 09:17 Page:130
  16385  2 002007   200232 236100                    LDQ     SEG$,,AUTO
         2 002010   007777 376007                    ANQ     4095,DL
         2 002011   006001 116007                    CMPQ    3073,DL
         2 002012   002054 601000 2                  TNZ     s:16393
         2 002013   000000 236000 xsym               LDQ     B$JIT$
         2 002014   000033 036003                    ADLQ    27,DU
         2 002015   200232 116100                    CMPQ    SEG$,,AUTO
         2 002016   002054 603000 2                  TRC     s:16393
         2 002017   000000 236000 xsym               LDQ     B$JIT$
         2 002020   000133 036003                    ADLQ    91,DU
         2 002021   200232 116100                    CMPQ    SEG$,,AUTO
         2 002022   002054 602000 2                  TNC     s:16393
         2 002023   002054 600000 2                  TZE     s:16393

      686    16386    3                 AND SEG$ > ADDR( B$JIT.CCBUF )
      687    16387    3                 AND SEG$ < PINCRC( ADDR( B$JIT.CCBUF ), SIZEC( B$JIT.CCBUF ))
      688    16388    4               THEN DO;

      689    16389    4                   XUG.CCBUF_OFFC = POFFC( SEG$ , ADDR( B$JIT.CCBUF ));

  16389  2 002024   000000 236000 xsym               LDQ     B$JIT$
         2 002025   000033 036003                    ADLQ    27,DU
         2 002026   000020 772000                    QRL     16
         2 002027   200432 756100                    STQ     LEGAL_TEXTC+17,,AUTO
         2 002030   200232 236100                    LDQ     SEG$,,AUTO
         2 002031   000020 772000                    QRL     16
         2 002032   200432 136100                    SBLQ    LEGAL_TEXTC+17,,AUTO
         2 002033   000000 621006                    EAX1    0,QL
         2 002034   100267 741100                    STX1    183,,PR1

      690    16390    4                   XUG.CCBUF_REST = B$JIT.CCARS - XUG.CCBUF_OFFC -

  16390  2 002035   100267 236100                    LDQ     183,,PR1
         2 002036   000022 732000                    QRS     18
         2 002037   200432 756100                    STQ     LEGAL_TEXTC+17,,AUTO
         2 002040   000000 473400 xsym               LDP3    B$JIT$
         2 002041   300032 236100                    LDQ     26,,PR3
PL6.E3A0      #001=XUG$COMMON File=XUG$COMMON.:E05TSI                            WED 07/30/97 09:17 Page:131
         2 002042   000022 732000                    QRS     18
         2 002043   200432 136100                    SBLQ    LEGAL_TEXTC+17,,AUTO
         2 002044   200433 756100                    STQ     LEGAL_TEXTC+18,,AUTO
         2 002045   000034 236100                    LDQ     28,,PR0
         2 002046   000020 772000                    QRL     16
         2 002047   200434 756100                    STQ     LEGAL_TEXTC+19,,AUTO
         2 002050   200433 236100                    LDQ     LEGAL_TEXTC+18,,AUTO
         2 002051   200434 136100                    SBLQ    LEGAL_TEXTC+19,,AUTO
         2 002052   777777 621006                    EAX1    -1,QL
         2 002053   100267 441100                    SXL1    183,,PR1

      691    16391    4                     VBOUND( GETCMD.TEXT_ ) - 1 ;
      692    16392    4               END;

      693    16393    3               IF (NOT GETCMD.SKIP_PREPROCESS#) AND XUG.PREPROCESS

  16393  2 002054   000006 236100                    LDQ     6,,PR0
         2 002055   004000 316003                    CANQ    2048,DU
         2 002056   002122 601000 2                  TNZ     DONT_PRE_PROC
         2 002057   100071 236100                    LDQ     57,,PR1
         2 002060   002000 316003                    CANQ    1024,DU
         2 002061   002122 600000 2                  TZE     DONT_PRE_PROC

      694    16394    4               THEN DO;

      695    16395    4                   XUG.BUF = VBASE(GETCMD.TEXT_)->CHARBASE ;

  16395  2 002062   000035 473500                    LDP3    29,,PR0
         2 002063   200254 721100                    LXL1    CSIZE,,AUTO
         2 002064   040100 100540                    MLR     fill='040'O
         2 002065   300000 000011                    ADSC9   0,,PR3                   cn=0,n=*X1
         2 002066   100300 000454                    ADSC9   192,,PR1                 cn=0,n=300

      696    16396    4                   IF XUG.PREPROCESSOR$$ ~= ENTADDR(NIL)

  16396  2 002067   100023 236100                    LDQ     19,,PR1
         2 002070   000002 116000 xsym               CMPQ    B_VECTNIL+2
PL6.E3A0      #001=XUG$COMMON File=XUG$COMMON.:E05TSI                            WED 07/30/97 09:17 Page:132
         2 002071   002106 600000 2                  TZE     s:16402

      697    16397    5                   THEN DO;

      698    16398    5                       CALL XUG$PRE_PROCESSOR (GETCMD, CSIZE) ;

  16398  2 002072   200254 633500                    EPPR3   CSIZE,,AUTO
         2 002073   200433 453500                    STP3    LEGAL_TEXTC+18,,AUTO
         2 002074   200003 236100                    LDQ     @GETCMD,,AUTO
         2 002075   200432 756100                    STQ     LEGAL_TEXTC+17,,AUTO
         2 002076   200432 630500                    EPPR0   LEGAL_TEXTC+17,,AUTO
         2 002077   000020 631400 xsym               EPPR1   B_VECTNIL+16
         2 002100   000000 701000 xent               TSX1    XUG$PRE_PROCESSOR
         2 002101   000000 011000                    NOP     0

      699    16399    5                       CALL X66_REL_AUTO;

  16399  2 002102   000002 631400 xsym               EPPR1   B_VECTNIL+2
         2 002103   000000 701000 xent               TSX1    X66_REL_AUTO
         2 002104   000000 011000                    NOP     0

      700    16400    5                   END;

  16400  2 002105   002116 710000 2                  TRA     s:16403

      701    16401    4                   ELSE
      702    16402    4                       CALL XUG$PP_CMDVARS (GETCMD, CSIZE) ;

  16402  2 002106   200254 633500                    EPPR3   CSIZE,,AUTO
         2 002107   200433 453500                    STP3    LEGAL_TEXTC+18,,AUTO
         2 002110   200003 236100                    LDQ     @GETCMD,,AUTO
         2 002111   200432 756100                    STQ     LEGAL_TEXTC+17,,AUTO
         2 002112   200432 630500                    EPPR0   LEGAL_TEXTC+17,,AUTO
         2 002113   000020 631400 xsym               EPPR1   B_VECTNIL+16
         2 002114   000000 701000 xent               TSX1    XUG$PP_CMDVARS
         2 002115   000000 011000                    NOP     0

PL6.E3A0      #001=XUG$COMMON File=XUG$COMMON.:E05TSI                            WED 07/30/97 09:17 Page:133
      703    16403    4                   TEXT$ = ADDR(XUG.BUF);

  16403  2 002116   200220 236100                    LDQ     XUG$,,AUTO
         2 002117   000300 036003                    ADLQ    192,DU
         2 002120   200230 756100                    STQ     TEXT$,,AUTO

      704    16404    4               END ;

  16404  2 002121   002126 710000 2                  TRA     s:16411

      705    16405    4               ELSE DO;

      706    16406    4   DONT_PRE_PROC:
      707    16407    4                   GETCMD.SKIP_PREPROCESS# = '0'B ;

  16407  2 002122   000022 236000 3     DONT_PRE_PR* LDQ     18
         2 002123   000006 356100                    ANSQ    6,,PR0

      708    16408    4                   TEXT$ = VBASE(GETCMD.TEXT_);

  16408  2 002124   000035 236100                    LDQ     29,,PR0
         2 002125   200230 756100                    STQ     TEXT$,,AUTO

      709    16409    4               END;

      710    16410    3           END ;

      711    16411    2           IF CSIZE>=XUG.POFF AND

  16411  2 002126   200220 470500                    LDP0    XUG$,,AUTO
         2 002127   200254 236100                    LDQ     CSIZE,,AUTO
         2 002130   000036 116100                    CMPQ    30,,PR0
         2 002131   002154 604000 2                  TMI     s:16419
         2 002132   000036 720100                    LXL0    30,,PR0
         2 002133   000071 236100                    LDQ     57,,PR0
         2 002134   000024 772000                    QRL     20
         2 002135   000001 376007                    ANQ     1,DL
PL6.E3A0      #001=XUG$COMMON File=XUG$COMMON.:E05TSI                            WED 07/30/97 09:17 Page:134
         2 002136   000036 721100                    LXL1    30,,PR0
         2 002137   200230 471500                    LDP1    TEXT$,,AUTO
         2 002140   040146 106540                    CMPC    fill='040'O
         2 002141   100000 000010                    ADSC9   0,,PR1                   cn=0,n=*X0
         2 002142   000037 000011                    ADSC9   31,Q,PR0                 cn=0,n=*X1
         2 002143   002154 601000 2                  TNZ     s:16419
         2 002144   000266 236100                    LDQ     182,,PR0
         2 002145   040000 316007                    CANQ    16384,DL
         2 002146   002154 601000 2                  TNZ     s:16419

      712    16412    2             SUBSTR(TEXT$->CHARBASE,0,XUG.POFF) =
      713    16413    2             SUBSTR(XUG.PROMPT,BITBIN(XUG.PROMPT_VFC),XUG.POFF)
      714    16414    2             AND NOT XUG.DONT_STRIP_PROMPT
      715    16415    3           THEN DO ;

      716    16416    3               J = XUG.POFF ;

  16416  2 002147   000036 235100                    LDA     30,,PR0
         2 002150   200251 755100                    STA     J,,AUTO

      717    16417    3               GETCMD.RCVD_PROMPT# = '1'B ;

  16417  2 002151   200003 473500                    LDP3    @GETCMD,,AUTO
         2 002152   020000 236003                    LDQ     8192,DU
         2 002153   300006 256100                    ORSQ    6,,PR3

      718    16418    3           END;

      719    16419    2           VBOUND(XUG.READVEC)=MAXIMUM(CSIZE-J,1)-1;

  16419  2 002154   200254 236100                    LDQ     CSIZE,,AUTO
         2 002155   200251 136100                    SBLQ    J,,AUTO
         2 002156   000001 116007                    CMPQ    1,DL
         2 002157   002161 605000 2                  TPL     s:16419+5
         2 002160   000001 236007                    LDQ     1,DL
         2 002161   000001 136007                    SBLQ    1,DL
         2 002162   000020 736000                    QLS     16
PL6.E3A0      #001=XUG$COMMON File=XUG$COMMON.:E05TSI                            WED 07/30/97 09:17 Page:135
         2 002163   000002 676100                    ERQ     2,,PR0
         2 002164   000034 376000 xsym               ANQ     B_VECTNIL+28
         2 002165   000002 656100                    ERSQ    2,,PR0

      720    16420    2           VBASE(XUG.READVEC)->CHARBASE = SUBSTR(TEXT$->CHARBASE,J);

  16420  2 002166   000003 471500                    LDP1    3,,PR0
         2 002167   200254 236100                    LDQ     CSIZE,,AUTO
         2 002170   200251 136100                    SBLQ    J,,AUTO
         2 002171   200230 473500                    LDP3    TEXT$,,AUTO
         2 002172   000000 620006                    EAX0    0,QL
         2 002173   200251 235100                    LDA     J,,AUTO
         2 002174   200254 721100                    LXL1    CSIZE,,AUTO
         2 002175   040140 100545                    MLR     fill='040'O
         2 002176   300000 000010                    ADSC9   0,A,PR3                  cn=0,n=*X0
         2 002177   100000 000011                    ADSC9   0,,PR1                   cn=0,n=*X1

      721    16421    2           CALL XUG$SETLAST(GETCMD);

  16421  2 002200   200003 630500                    EPPR0   @GETCMD,,AUTO
         2 002201   000017 631400 xsym               EPPR1   B_VECTNIL+15
         2 002202   000000 701000 xent               TSX1    XUG$SETLAST
         2 002203   000000 011000                    NOP     0

      722    16422    2           ARS = CSIZE - J;

  16422  2 002204   200254 236100                    LDQ     CSIZE,,AUTO
         2 002205   200251 136100                    SBLQ    J,,AUTO
         2 002206   200244 756100                    STQ     ARS,,AUTO

      723    16423    2           IF GETCMD.NODES$ = ADDR(NIL)

  16423  2 002207   200003 470500                    LDP0    @GETCMD,,AUTO
         2 002210   000000 236100                    LDQ     0,,PR0
         2 002211   000001 116000 xsym               CMPQ    B_VECTNIL+1
         2 002212   002221 601000 2                  TNZ     s:16429

PL6.E3A0      #001=XUG$COMMON File=XUG$COMMON.:E05TSI                            WED 07/30/97 09:17 Page:136
      724    16424    3           THEN DO;

      725    16425    3               GETCMD.OUT$ = ADDR(NIL);

  16425  2 002213   000001 236000 xsym               LDQ     B_VECTNIL+1
         2 002214   000001 756100                    STQ     1,,PR0

      726    16426    3               P_PCB.NCHARS = ARS;

  16426  2 002215   200244 235100                    LDA     ARS,,AUTO
         2 002216   200224 471500                    LDP1    P_PCB$,,AUTO
         2 002217   100011 755100                    STA     9,,PR1

      727    16427    3               GOTO GETCMD_RET;

  16427  2 002220   002522 710000 2                  TRA     GETCMD_RET

      728    16428    3           END;
      729    16429    2           IF XUG.SYNERR AND ARS=1 AND SUBSTR(VBASE(XUG.READVEC)->INBUF,0,1)='?'

  16429  2 002221   200220 471500                    LDP1    XUG$,,AUTO
         2 002222   100071 236100                    LDQ     57,,PR1
         2 002223   004000 316003                    CANQ    2048,DU
         2 002224   002235 600000 2                  TZE     s:16432
         2 002225   200244 235100                    LDA     ARS,,AUTO
         2 002226   000001 115007                    CMPA    1,DL
         2 002227   002235 601000 2                  TNZ     s:16432
         2 002230   100003 473500                    LDP3    3,,PR1
         2 002231   040000 106500                    CMPC    fill='040'O
         2 002232   300000 000001                    ADSC9   0,,PR3                   cn=0,n=1
         2 002233   000024 000001 3                  ADSC9   20                       cn=0,n=1
         2 002234   001553 600000 2                  TZE     SHOW_ALTRN

      730    16430    2           THEN
      731    16431    2               GOTO SHOW_ALTRN ;
      732    16432    2           XUG.SYNERR = %NO# ;

PL6.E3A0      #001=XUG$COMMON File=XUG$COMMON.:E05TSI                            WED 07/30/97 09:17 Page:137
  16432  2 002235   000022 236000 3                  LDQ     18
         2 002236   100071 356100                    ANSQ    57,,PR1

      733    16433    2       END;

      734    16434    1       XUG.PREV_CPOS = 0 ;

  16434  2 002237   200220 470500                    LDP0    XUG$,,AUTO
         2 002240   000105 450100                    STZ     69,,PR0

      735    16435    1       VBASE(XUG.RLTVEC)->RLT(0) = 0 ;

  16435  2 002241   000013 471500                    LDP1    11,,PR0
         2 002242   000100 101400                    MRL     fill='000'O
         2 002243   000002 000004 xsym               ADSC9   B_VECTNIL+2              cn=0,n=4
         2 002244   100000 000001                    ADSC9   0,,PR1                   cn=0,n=1

      736    16436    1       XUG.NLINES=1;

  16436  2 002245   000001 235007                    LDA     1,DL
         2 002246   000106 755100                    STA     70,,PR0

      737    16437    1       VBASE(XUG.RLTVEC)->RLT(1)=ARS;

  16437  2 002247   000013 471500                    LDP1    11,,PR0
         2 002250   000100 101500                    MRL     fill='000'O
         2 002251   200244 000004                    ADSC9   ARS,,AUTO                cn=0,n=4
         2 002252   100000 200001                    ADSC9   0,,PR1                   cn=1,n=1

      738    16438    1       IF XUG.PP_ERR

  16438  2 002253   000100 235100                    LDA     64,,PR0
         2 002254   002267 600000 2                  TZE     REPARSE

      739    16439    2       THEN DO;

      740    16440    2           GETCMD.ERR# = XUG.PP_ERR;
PL6.E3A0      #001=XUG$COMMON File=XUG$COMMON.:E05TSI                            WED 07/30/97 09:17 Page:138

  16440  2 002255   000100 236100                    LDQ     64,,PR0
         2 002256   200003 471500                    LDP1    @GETCMD,,AUTO
         2 002257   100001 756100                    STQ     1,,PR1

      741    16441    2           P_PCB.NCHARS = ARS ;

  16441  2 002260   200244 235100                    LDA     ARS,,AUTO
         2 002261   200224 473500                    LDP3    P_PCB$,,AUTO
         2 002262   300011 755100                    STA     9,,PR3

      742    16442    2           IF XUG.GOODCMD

  16442  2 002263   000071 236100                    LDQ     57,,PR0
         2 002264   000010 316003                    CANQ    8,DU
         2 002265   002777 601000 2                  TNZ     ERRHAND

      743    16443    2           THEN
      744    16444    2               GOTO ERRHAND;
      745    16445    2           ELSE
      746    16446    2               GOTO GETCMD_ALT;

  16446  2 002266   003071 710000 2                  TRA     GETCMD_ALT

      747    16447    2       END;
      748    16448    1   REPARSE:
      749    16449    1       P_PCB.TEXT$=VBASE(XUG.BUFVEC) ;

  16449  2 002267   000001 236100       REPARSE      LDQ     1,,PR0
         2 002270   200224 471500                    LDP1    P_PCB$,,AUTO
         2 002271   100000 756100                    STQ     0,,PR1

      750    16450    1       IF GETCMD.NODES$ = ADDR(NIL)

  16450  2 002272   200003 473500                    LDP3    @GETCMD,,AUTO
         2 002273   300000 236100                    LDQ     0,,PR3
         2 002274   000001 116000 xsym               CMPQ    B_VECTNIL+1
PL6.E3A0      #001=XUG$COMMON File=XUG$COMMON.:E05TSI                            WED 07/30/97 09:17 Page:139
         2 002275   002303 601000 2                  TNZ     s:16459

      751    16451    2       THEN DO;

      752    16452    2           GETCMD.OUT$ = ADDR(NIL);

  16452  2 002276   000001 236000 xsym               LDQ     B_VECTNIL+1
         2 002277   300001 756100                    STQ     1,,PR3

      753    16453    2           GETCMD.ERR# = XUG#NULLROOT;

  16453  2 002300   000204 236000 0                  LDQ     XUG#NULLROOT
         2 002301   300001 756100                    STQ     1,,PR3

      754    16454        /*E*  ERROR:   XUG-E$NULLROOT
      755    16455              MESSAGE: Null syntax tree passed to XUG$GETCMD (or a similar routine).
      756    16456        */
      757    16457    2           GOTO GETCMD_ALT;

  16457  2 002302   003071 710000 2                  TRA     GETCMD_ALT

      758    16458    2       END;
      759    16459    1       IF XUG.COMMANDS

  16459  2 002303   000071 236100                    LDQ     57,,PR0
         2 002304   020000 316003                    CANQ    8192,DU
         2 002305   002336 600000 2                  TZE     s:16471

      760    16460    2       THEN DO;

      761    16461    2           NODES$ = ADDR(XUG_NODES) ;

  16461  2 002306   000027 236000 3                  LDQ     23
         2 002307   200226 756100                    STQ     NODES$,,AUTO

      762    16462    2           ROOT$ = ADDR(XUG.ROOT_NODE) ;

PL6.E3A0      #001=XUG$COMMON File=XUG$COMMON.:E05TSI                            WED 07/30/97 09:17 Page:140
  16462  2 002310   200220 236100                    LDQ     XUG$,,AUTO
         2 002311   000031 036003                    ADLQ    25,DU
         2 002312   200225 756100                    STQ     ROOT$,,AUTO

      763    16463    2           DUMMY$ = ADDR(XUG.DUMMY_NODE) ;

  16463  2 002313   200220 236100                    LDQ     XUG$,,AUTO
         2 002314   000034 036003                    ADLQ    28,DU
         2 002315   200227 756100                    STQ     DUMMY$,,AUTO

      764    16464    2           ROOT$->P$NODE = NODES$->P$NODE ;

  16464  2 002316   200226 474500                    LDP4    NODES$,,AUTO
         2 002317   200225 475500                    LDP5    ROOT$,,AUTO
         2 002320   000100 100500                    MLR     fill='000'O
         2 002321   400000 000010                    ADSC9   0,,PR4                   cn=0,n=8
         2 002322   500000 000010                    ADSC9   0,,PR5                   cn=0,n=8

      765    16465    2           XUG.ROOT_NODE.USER_NODE$ = DUMMY$ ;

  16465  2 002323   000032 756100                    STQ     26,,PR0

      766    16466    2           XUG.ROOT_NODE.GETCMD_NODE$ = NODES$->P$NODE.SUBNDS$(1) ;

  16466  2 002324   400002 236100                    LDQ     2,,PR4
         2 002325   000033 756100                    STQ     27,,PR0

      767    16467    2           DUMMY$->P$NODE = NODES$->P$NODE.SUBNDS$(0)->P$NODE ;

  16467  2 002326   400001 476500                    LDP6    1,,PR4
         2 002327   200227 477500                    LDP7    DUMMY$,,AUTO
         2 002330   000100 100500                    MLR     fill='000'O
         2 002331   600000 000010                    ADSC9   0,,PR6                   cn=0,n=8
         2 002332   700000 000010                    ADSC9   0,,PR7                   cn=0,n=8

      768    16468    2           XUG.DUMMY_NODE.SUBND$ = GETCMD.NODES$ ;

PL6.E3A0      #001=XUG$COMMON File=XUG$COMMON.:E05TSI                            WED 07/30/97 09:17 Page:141
  16468  2 002333   300000 236100                    LDQ     0,,PR3
         2 002334   000035 756100                    STQ     29,,PR0

      769    16469    2       END ; /* Then Do */

  16469  2 002335   002340 710000 2                  TRA     s:16472

      770    16470    1       ELSE
      771    16471    1           ROOT$ = GETCMD.NODES$ ;

  16471  2 002336   300000 236100                    LDQ     0,,PR3
         2 002337   200225 756100                    STQ     ROOT$,,AUTO

      772    16472    1       P_PCB.ROOT$=ROOT$ ;

  16472  2 002340   200225 236100                    LDQ     ROOT$,,AUTO
         2 002341   100001 756100                    STQ     1,,PR1

      773    16473    1       P_PCB.WORK$ = VBASE(XUG.PARSEVEC) ;

  16473  2 002342   000011 236100                    LDQ     9,,PR0
         2 002343   100002 756100                    STQ     2,,PR1

      774    16474    1       P_PCB.VERSION_CODE = 1;

  16474  2 002344   100010 236100                    LDQ     8,,PR1
         2 002345   000030 376000 3                  ANQ     24
         2 002346   040000 276007                    ORQ     16384,DL
         2 002347   100010 756100                    STQ     8,,PR1

      775    16475    1       P_PCB.WKSZ = (VBOUND(XUG.PARSEVEC)+1)/4 ;

  16475  2 002350   000010 236100                    LDQ     8,,PR0
         2 002351   000020 772000                    QRL     16
         2 002352   000001 036007                    ADLQ    1,DL
         2 002353   000002 772000                    QRL     2
         2 002354   000000 620006                    EAX0    0,QL
PL6.E3A0      #001=XUG$COMMON File=XUG$COMMON.:E05TSI                            WED 07/30/97 09:17 Page:142
         2 002355   100005 740100                    STX0    5,,PR1

      776    16476    1       P_PCB.NCHARS = ARS;

  16476  2 002356   200244 235100                    LDA     ARS,,AUTO
         2 002357   100011 755100                    STA     9,,PR1

      777    16477    1       P_PCB.U$$ = ENTADDR(XUG$PU);

  16477  2 002360   000000 636000 xent               EAQ     XUG$PU
         2 002361   100004 756100                    STQ     4,,PR1

      778    16478    1       P_PCB.DYNMEM = '1'B ;

  16478  2 002362   020000 236007                    LDQ     8192,DL
         2 002363   100005 256100                    ORSQ    5,,PR1

      779    16479    1       P_PCB.NXT = '0'B;

  16479  2 002364   000026 236000 3                  LDQ     22
         2 002365   100005 356100                    ANSQ    5,,PR1

      780    16480    1       XUG.SPELLING_TRIED = %NO#;

  16480  2 002366   000031 236000 3                  LDQ     25
         2 002367   000071 356100                    ANSQ    57,,PR0

      781    16481    1       XUG.QM_AFTER_SYNERR = '0'B;

  16481  2 002370   000032 236000 3                  LDQ     26
         2 002371   000071 356100                    ANSQ    57,,PR0

      782    16482    1   NORMAL_PARSE:
      783    16483    1       CALL FETCH_HELP_TOPIC;

  16483  2 002372   005504 701000 2     NORMAL_PARSE TSX1    FETCH_HELP_TOPIC
         2 002373   000000 011000                    NOP     0
PL6.E3A0      #001=XUG$COMMON File=XUG$COMMON.:E05TSI                            WED 07/30/97 09:17 Page:143

      784    16484    1       P_PCB.USER$ = ADDR(GETCMD);

  16484  2 002374   200003 236100                    LDQ     @GETCMD,,AUTO
         2 002375   200224 470500                    LDP0    P_PCB$,,AUTO
         2 002376   000014 756100                    STQ     12,,PR0

      785    16485    1       XUG.PARSING_FREE_CMDS = %NO#;

  16485  2 002377   200220 471500                    LDP1    XUG$,,AUTO
         2 002400   000033 236000 3                  LDQ     27
         2 002401   100266 356100                    ANSQ    182,,PR1

      786    16486    1       CALL X$PARSE(P_PCB) ALTRET(PARSEALT);

  16486  2 002402   200224 630500                    EPPR0   P_PCB$,,AUTO
         2 002403   000017 631400 xsym               EPPR1   B_VECTNIL+15
         2 002404   000000 701000 xent               TSX1    X$PARSE
         2 002405   002560 702000 2                  TSX2    PARSEALT

      787    16487    1       IF GETCMD.PASS = %BLANK_PASS# OR (GETCMD.PASS = %MODE_PASS# AND

  16487  2 002406   200003 470500                    LDP0    @GETCMD,,AUTO
         2 002407   000007 236100                    LDQ     7,,PR0
         2 002410   000140 376003                    ANQ     96,DU
         2 002411   000040 116003                    CMPQ    32,DU
         2 002412   002427 600000 2                  TZE     s:16491
         2 002413   000100 116003                    CMPQ    64,DU
         2 002414   002440 601000 2                  TNZ     s:16493
         2 002415   000006 236100                    LDQ     6,,PR0
         2 002416   200000 316003                    CANQ    65536,DU
         2 002417   002440 601000 2                  TNZ     s:16493
         2 002420   000023 471400 3                  LDP1    19
         2 002421   100000 473500                    LDP3    0,,PR1
         2 002422   000013 720100                    LXL0    11,,PR0
         2 002423   300000 474510                    LDP4    0,X0,PR3
         2 002424   400004 236100                    LDQ     4,,PR4
PL6.E3A0      #001=XUG$COMMON File=XUG$COMMON.:E05TSI                            WED 07/30/97 09:17 Page:144
         2 002425   020000 316007                    CANQ    8192,DL
         2 002426   002440 601000 2                  TNZ     s:16493

      788    16488    1         NOT (GETCMD.TREAD# OR DCBADDR(GETCMD.OUTDCB#)
      789    16489    1         ->F$DCB.DDEV.UCOUT#))
      790    16490    1       THEN
      791    16491    1           CALL XUG$BLANK_PASSWORD_COMMON (GETCMD, P_PCB.OUT$->P$B)

  16491  2 002427   200224 471500                    LDP1    P_PCB$,,AUTO
         2 002430   100003 473500                    LDP3    3,,PR1
         2 002431   200433 453500                    STP3    LEGAL_TEXTC+18,,AUTO
         2 002432   200003 236100                    LDQ     @GETCMD,,AUTO
         2 002433   200432 756100                    STQ     LEGAL_TEXTC+17,,AUTO
         2 002434   200432 630500                    EPPR0   LEGAL_TEXTC+17,,AUTO
         2 002435   000020 631400 xsym               EPPR1   B_VECTNIL+16
         2 002436   000000 701000 xent               TSX1    XUG$BLANK_PASSWORD_COMMON
         2 002437   002543 702000 2                  TSX2    MALT

      792    16492    1             ALTRET(MALT) ;
      793    16493    1       IF XUG.NEED_ECHO

  16493  2 002440   200220 470500                    LDP0    XUG$,,AUTO
         2 002441   000071 236100                    LDQ     57,,PR0
         2 002442   000020 316003                    CANQ    16,DU
         2 002443   002453 600000 2                  TZE     s:16498

      794    16494    2       THEN DO;

      795    16495    2           CALL XUG$ECHO_COMMON(GETCMD) ALTRET(MALT) ;

  16495  2 002444   200003 630500                    EPPR0   @GETCMD,,AUTO
         2 002445   000017 631400 xsym               EPPR1   B_VECTNIL+15
         2 002446   004472 701000 2                  TSX1    s:16911
         2 002447   002543 702000 2                  TSX2    MALT

      796    16496    2           XUG.NEED_ECHO = '0'B ;

PL6.E3A0      #001=XUG$COMMON File=XUG$COMMON.:E05TSI                            WED 07/30/97 09:17 Page:145
  16496  2 002450   200220 470500                    LDP0    XUG$,,AUTO
         2 002451   000034 236000 3                  LDQ     28
         2 002452   000071 356100                    ANSQ    57,,PR0

      797    16497    2       END ;                        /* Then Do */

      798    16498    1       GETCMD.BUF$ = VBASE(XUG.BUFVEC);

  16498  2 002453   000001 236100                    LDQ     1,,PR0
         2 002454   200003 471500                    LDP1    @GETCMD,,AUTO
         2 002455   100040 756100                    STQ     32,,PR1

      799    16499    1       GETCMD.RLT$ = VBASE(XUG.RLTVEC);

  16499  2 002456   000013 236100                    LDQ     11,,PR0
         2 002457   100041 756100                    STQ     33,,PR1

      800    16500    1       GETCMD.NLINES = XUG.NLINES ;

  16500  2 002460   000106 720100                    LXL0    70,,PR0
         2 002461   100046 740100                    STX0    38,,PR1

      801    16501    1       IF XUG.COMMANDS

  16501  2 002462   000071 236100                    LDQ     57,,PR0
         2 002463   020000 316003                    CANQ    8192,DU
         2 002464   002517 600000 2                  TZE     s:16518

      802    16502    2       THEN DO;

      803    16503    2           J = P_PCB.OUT$->P$B.CODE ;

  16503  2 002465   200224 473500                    LDP3    P_PCB$,,AUTO
         2 002466   300003 474500                    LDP4    3,,PR3
         2 002467   400000 236100                    LDQ     0,,PR4
         2 002470   777777 376007                    ANQ     -1,DL
         2 002471   200251 756100                    STQ     J,,AUTO
PL6.E3A0      #001=XUG$COMMON File=XUG$COMMON.:E05TSI                            WED 07/30/97 09:17 Page:146

      804    16504    2           IF P_PCB.OUT$->P$B.NSUBLKS=0

  16504  2 002472   400001 221100                    LDX1    1,,PR4
         2 002473   002505 601000 2                  TNZ     s:16510

      805    16505    3           THEN DO;

      806    16506    3               P_PCB.OUT$ -> P$B.CODE = 0;

  16506  2 002474   000000 222003                    LDX2    0,DU
         2 002475   400000 442100                    SXL2    0,,PR4

      807    16507    3               P_PCB.OUT$ -> P$B.TEMP = %YES#;

  16507  2 002476   300003 474500                    LDP4    3,,PR3
         2 002477   400000 236003                    LDQ     -131072,DU
         2 002500   400000 256100                    ORSQ    0,,PR4

      808    16508    3               P_PCB.OUT$ -> P$B.NDTYPE = 0;

  16508  2 002501   300003 474500                    LDP4    3,,PR3
         2 002502   000000 236003                    LDQ     0,DU
         2 002503   400000 752110                    STCQ    0,'10'O,PR4

      809    16509    3           END;

  16509  2 002504   002511 710000 2                  TRA     s:16512

      810    16510    2           ELSE IF P_PCB.OUT$->P$B.NSUBLKS = 1 THEN

  16510  2 002505   000001 101003                    CMPX1   1,DU
         2 002506   002511 601000 2                  TNZ     s:16512

      811    16511    2                   P_PCB.OUT$ = P_PCB.OUT$ -> P$B.SUBLK$(0) ;

  16511  2 002507   400003 236100                    LDQ     3,,PR4
PL6.E3A0      #001=XUG$COMMON File=XUG$COMMON.:E05TSI                            WED 07/30/97 09:17 Page:147
         2 002510   300003 756100                    STQ     3,,PR3

      812    16512    2           GETCMD.OUT$ = P_PCB.OUT$ ;

  16512  2 002511   300003 236100                    LDQ     3,,PR3
         2 002512   100001 756100                    STQ     1,,PR1

      813    16513    2           IF J = %XUG_USER_NODES

  16513  2 002513   200251 235100                    LDA     J,,AUTO
         2 002514   000001 115007                    CMPA    1,DL
         2 002515   002522 600000 2                  TZE     GETCMD_RET

      814    16514    2           THEN
      815    16515    2               GOTO GETCMD_RET ;
      816    16516    2       END ; /* Then Do */

  16516  2 002516   002527 710000 2                  TRA     s:16523

      817    16517    2       ELSE DO;

      818    16518    2           GETCMD.OUT$ = P_PCB.OUT$ ;

  16518  2 002517   200224 473500                    LDP3    P_PCB$,,AUTO
         2 002520   300003 236100                    LDQ     3,,PR3
         2 002521   100001 756100                    STQ     1,,PR1

      819    16519    2   GETCMD_RET:
      820    16520    2           P_PCB.USER$ = XUG.USER$ ;

  16520  2 002522   200220 470500       GETCMD_RET   LDP0    XUG$,,AUTO
         2 002523   000076 236100                    LDQ     62,,PR0
         2 002524   200224 471500                    LDP1    P_PCB$,,AUTO
         2 002525   100014 756100                    STQ     12,,PR1

      821    16521    2           RETURN ;

PL6.E3A0      #001=XUG$COMMON File=XUG$COMMON.:E05TSI                            WED 07/30/97 09:17 Page:148
  16521  2 002526   000000 702200 xent               TSX2  ! X66_ARET

      822    16522    2       END ; /* Else Do */
      823    16523    1       CALL XUG$BUILTIN_COMMON(GETCMD) ALTRET (ERRHAND);

  16523  2 002527   200003 630500                    EPPR0   @GETCMD,,AUTO
         2 002530   000017 631400 xsym               EPPR1   B_VECTNIL+15
         2 002531   000000 701000 xent               TSX1    XUG$BUILTIN_COMMON
         2 002532   002777 702000 2                  TSX2    ERRHAND

      824    16524    1       IF GETCMD.TEXT_ ~= VECTOR(NIL)

  16524  2 002533   200003 470500                    LDP0    @GETCMD,,AUTO
         2 002534   000034 237100                    LDAQ    28,,PR0
         2 002535   000004 117000 3                  CMPAQ   4
         2 002536   002542 600000 2                  TZE     s:16529

      825    16525    2       THEN DO;

      826    16526    2           GETCMD.OUT$ = ADDR(NIL);

  16526  2 002537   000001 236000 xsym               LDQ     B_VECTNIL+1
         2 002540   000001 756100                    STQ     1,,PR0

      827    16527    2           GOTO GETCMD_RET;

  16527  2 002541   002522 710000 2                  TRA     GETCMD_RET

      828    16528    2       END;
      829    16529    1       GOTO GETCMD ;

  16529  2 002542   001245 710000 2                  TRA     GETCMD

      830    16530
      831    16531    1   MALT: GETCMD.ERR#=B$TCB$->B$TCB.ALT$->B$ALT.ERR;

  16531  2 002543   000000 470400 xsym  MALT         LDP0    B$TCB$
PL6.E3A0      #001=XUG$COMMON File=XUG$COMMON.:E05TSI                            WED 07/30/97 09:17 Page:149
         2 002544   000000 471500                    LDP1    0,,PR0
         2 002545   100102 236100                    LDQ     66,,PR1
         2 002546   200003 473500                    LDP3    @GETCMD,,AUTO
         2 002547   300001 756100                    STQ     1,,PR3

      832    16532    1       GETCMD.ERRDCB# = B$TCB$->B$TCB.ALT$->B$ALT.DCB#;

  16532  2 002550   000000 471500                    LDP1    0,,PR0
         2 002551   100101 235100                    LDA     65,,PR1
         2 002552   300011 755100                    STA     9,,PR3

      833    16533    1       P_PCB.USER$ = XUG.USER$ ;

  16533  2 002553   200220 471500                    LDP1    XUG$,,AUTO
         2 002554   100076 236100                    LDQ     62,,PR1
         2 002555   200224 474500                    LDP4    P_PCB$,,AUTO
         2 002556   400014 756100                    STQ     12,,PR4

      834    16534    1       ALTRETURN;

  16534  2 002557   000000 702200 xent               TSX2  ! X66_AALT

  16533  2 002560                       PARSEALT     null
      835    16535    1   PARSEALT:;
      836    16536    1       IF XUG.NEED_ECHO

  16536  2 002560   200220 470500                    LDP0    XUG$,,AUTO
         2 002561   000071 236100                    LDQ     57,,PR0
         2 002562   000020 316003                    CANQ    16,DU
         2 002563   002573 600000 2                  TZE     s:16542

      837    16537    1       THEN
      838    16538    2       DO ;

      839    16539    2           CALL XUG$ECHO_COMMON(GETCMD) ;

  16539  2 002564   200003 630500                    EPPR0   @GETCMD,,AUTO
PL6.E3A0      #001=XUG$COMMON File=XUG$COMMON.:E05TSI                            WED 07/30/97 09:17 Page:150
         2 002565   000017 631400 xsym               EPPR1   B_VECTNIL+15
         2 002566   004472 701000 2                  TSX1    s:16911
         2 002567   000000 011000                    NOP     0

      840    16540    2           XUG.NEED_ECHO = '0'B ;

  16540  2 002570   200220 470500                    LDP0    XUG$,,AUTO
         2 002571   000034 236000 3                  LDQ     28
         2 002572   000071 356100                    ANSQ    57,,PR0

      841    16541    2       END ;                        /* Then Do */

      842    16542    1       GETCMD.BUF$ = VBASE(XUG.BUFVEC);

  16542  2 002573   000001 236100                    LDQ     1,,PR0
         2 002574   200003 471500                    LDP1    @GETCMD,,AUTO
         2 002575   100040 756100                    STQ     32,,PR1

      843    16543    1       GETCMD.RLT$ = VBASE(XUG.RLTVEC);

  16543  2 002576   000013 236100                    LDQ     11,,PR0
         2 002577   100041 756100                    STQ     33,,PR1

      844    16544    1       GETCMD.NLINES = XUG.NLINES ;

  16544  2 002600   000106 720100                    LXL0    70,,PR0
         2 002601   100046 740100                    STX0    38,,PR1

      845    16545    1       P_PCB.USER$ = XUG.USER$ ;

  16545  2 002602   000076 236100                    LDQ     62,,PR0
         2 002603   200224 473500                    LDP3    P_PCB$,,AUTO
         2 002604   300014 756100                    STQ     12,,PR3

      846    16546    1       ARS = P_PCB.NCHARS;

  16546  2 002605   300011 235100                    LDA     9,,PR3
PL6.E3A0      #001=XUG$COMMON File=XUG$COMMON.:E05TSI                            WED 07/30/97 09:17 Page:151
         2 002606   200244 755100                    STA     ARS,,AUTO

      847    16547    2       IF XUG.SYNTAX THEN DO;

  16547  2 002607   000071 236100                    LDQ     57,,PR0
         2 002610   010000 316003                    CANQ    4096,DU
         2 002611   002764 600000 2                  TZE     s:16607

      848    16548    3           IF NOT P_PCB.ERROR.MON AND P_PCB.ERROR.CODE=%E$SYNERR THEN DO;

  16548  2 002612   300006 236100                    LDQ     6,,PR3
         2 002613   400000 316007                    CANQ    -131072,DL
         2 002614   002764 601000 2                  TNZ     s:16607
         2 002615   300006 236100                    LDQ     6,,PR3
         2 002616   377770 376007                    ANQ     131064,DL
         2 002617   000010 116007                    CMPQ    8,DL
         2 002620   002764 601000 2                  TNZ     s:16607

      849    16549    3               I = P_PCB.HI_CHAR ;

  16549  2 002621   300012 235100                    LDA     10,,PR3
         2 002622   200250 755100                    STA     I,,AUTO

      850    16550    3               J = I;

  16550  2 002623   200251 755100                    STA     J,,AUTO

      851    16551    3               IF I > 0 AND I = ARS

  16551  2 002624   002641 604400 2                  TMOZ    s:16557
         2 002625   200250 236100                    LDQ     I,,AUTO
         2 002626   200244 116100                    CMPQ    ARS,,AUTO
         2 002627   002641 601000 2                  TNZ     s:16557
         2 002630   000001 474500                    LDP4    1,,PR0
         2 002631   040000 106506                    CMPC    fill='040'O
         2 002632   477777 600001                    ADSC9   -1,Q,PR4                 cn=3,n=1
         2 002633   000024 000001 3                  ADSC9   20                       cn=0,n=1
PL6.E3A0      #001=XUG$COMMON File=XUG$COMMON.:E05TSI                            WED 07/30/97 09:17 Page:152
         2 002634   002641 601000 2                  TNZ     s:16557

      852    16552    3                 AND SUBSTR (VBASE(XUG.BUFVEC) -> INBUF, I-1, 1) = '?'
      853    16553    4               THEN DO;

      854    16554    4                   I = I - 1;

  16554  2 002635   000001 336007                    LCQ     1,DL
         2 002636   200250 056100                    ASQ     I,,AUTO

      855    16555    4                   P_PCB.HI_CHAR = I;

  16555  2 002637   200250 235100                    LDA     I,,AUTO
         2 002640   300012 755100                    STA     10,,PR3

      856    16556    4               END;

      857    16557    3               XUG.SYNERR = %YES# ;

  16557  2 002641   004000 236003                    LDQ     2048,DU
         2 002642   000071 256100                    ORSQ    57,,PR0

      858    16558    3               XUG.POINTED_TO_SYNERR = %NO# ;

  16558  2 002643   000035 236000 3                  LDQ     29
         2 002644   000071 356100                    ANSQ    57,,PR0

      859    16559    3               GETCMD.SYNERR_NODES$ = P_PCB.ROOT$;

  16559  2 002645   300001 236100                    LDQ     1,,PR3
         2 002646   100042 756100                    STQ     34,,PR1

      860    16560    3               IF ARS > 0 AND I < ARS AND

  16560  2 002647   200244 235100                    LDA     ARS,,AUTO
         2 002650   002761 604400 2                  TMOZ    s:16596
         2 002651   200250 236100                    LDQ     I,,AUTO
PL6.E3A0      #001=XUG$COMMON File=XUG$COMMON.:E05TSI                            WED 07/30/97 09:17 Page:153
         2 002652   200244 116100                    CMPQ    ARS,,AUTO
         2 002653   002761 605000 2                  TPL     s:16596
         2 002654   000071 236100                    LDQ     57,,PR0
         2 002655   000002 316003                    CANQ    2,DU
         2 002656   002661 600000 2                  TZE     s:16560+10
         2 002657   000001 316003                    CANQ    1,DU
         2 002660   002667 600000 2                  TZE     GIVE_ALTERNATIVES
         2 002661   000001 474500                    LDP4    1,,PR0
         2 002662   200250 235100                    LDA     I,,AUTO
         2 002663   040000 106505                    CMPC    fill='040'O
         2 002664   400000 000001                    ADSC9   0,A,PR4                  cn=0,n=1
         2 002665   000024 000001 3                  ADSC9   20                       cn=0,n=1
         2 002666   002761 601000 2                  TNZ     s:16596

      861    16561    3                 ((XUG.SPELLING AND NOT XUG.SPELLING_TRIED) OR
      862    16562    3                 SUBSTR(VBASE(XUG.BUFVEC) -> INBUF, I, 1) = '?')
      863    16563    4               THEN GIVE_ALTERNATIVES: DO;

  16563  2 002667                       GIVE_ALTERN* null
      864    16564    4                   P_PCB.USER$ = ADDR(GETCMD) ;

  16564  2 002667   200003 236100                    LDQ     @GETCMD,,AUTO
         2 002670   300014 756100                    STQ     12,,PR3

      865    16565    4                   P_PCB.NXT = '1'B;

  16565  2 002671   040000 236007                    LDQ     16384,DL
         2 002672   300005 256100                    ORSQ    5,,PR3

      866    16566    4                   IF XUG.SPELLING AND NOT XUG.SPELLING_TRIED

  16566  2 002673   000071 236100                    LDQ     57,,PR0
         2 002674   000002 316003                    CANQ    2,DU
         2 002675   002711 600000 2                  TZE     s:16573
         2 002676   000001 316003                    CANQ    1,DU
         2 002677   002711 601000 2                  TNZ     s:16573

PL6.E3A0      #001=XUG$COMMON File=XUG$COMMON.:E05TSI                            WED 07/30/97 09:17 Page:154
      867    16567    4                   THEN
      868    16568    4                       CALL SPELLING_CHECKER (%YES#)

  16568  2 002700   000036 236000 3                  LDQ     30
         2 002701   200353 756100                    STQ     OUTDCB#+2,,AUTO
         2 002702   006010 701000 2                  TSX1    SPELLING_CHECKER
         2 002703   002705 702000 2                  TSX2    s:16570
         2 002704   002711 710000 2                  TRA     s:16573

      869    16569    5                       WHENALTRETURN DO;

      870    16570    5                           P_PCB.HI_CHAR = J;

  16570  2 002705   200251 235100                    LDA     J,,AUTO
         2 002706   200224 470500                    LDP0    P_PCB$,,AUTO
         2 002707   000012 755100                    STA     10,,PR0

      871    16571    5                           GOTO RESTORE_USER$;

  16571  2 002710   002746 710000 2                  TRA     RESTORE_USER$

      872    16572    5                       END;
      873    16573    4                   IF SUBSTR(VBASE(XUG.BUFVEC) -> INBUF, I, 1) ~= '?'

  16573  2 002711   200220 470500                    LDP0    XUG$,,AUTO
         2 002712   000001 471500                    LDP1    1,,PR0
         2 002713   200250 235100                    LDA     I,,AUTO
         2 002714   040000 106505                    CMPC    fill='040'O
         2 002715   100000 000001                    ADSC9   0,A,PR1                  cn=0,n=1
         2 002716   000024 000001 3                  ADSC9   20                       cn=0,n=1
         2 002717   002724 600000 2                  TZE     s:16578

      874    16574    5                   THEN DO;

      875    16575    5                       P_PCB.HI_CHAR = J;

  16575  2 002720   200251 236100                    LDQ     J,,AUTO
PL6.E3A0      #001=XUG$COMMON File=XUG$COMMON.:E05TSI                            WED 07/30/97 09:17 Page:155
         2 002721   200224 473500                    LDP3    P_PCB$,,AUTO
         2 002722   300012 756100                    STQ     10,,PR3

      876    16576    5                       EXIT GIVE_ALTERNATIVES;

  16576  2 002723   002761 710000 2                  TRA     s:16596

      877    16577    5                   END;
      878    16578    4                   XUG.SYNERR = '0'B;

  16578  2 002724   000022 236000 3                  LDQ     18
         2 002725   000071 356100                    ANSQ    57,,PR0

      879    16579    4                   IF B$JIT.PRFLAGS.EXPOUND

  16579  2 002726   000000 473400 xsym               LDP3    B$JIT$
         2 002727   300030 236100                    LDQ     24,,PR3
         2 002730   000100 316003                    CANQ    64,DU
         2 002731   002741 600000 2                  TZE     s:16587

      880    16580    5                   THEN DO;

      881    16581    5                       GETCMD.ERR_CODE = XUG#LEGAL_INPUT_QM;

  16581  2 002732   000174 236000 0                  LDQ     XUG#LEGAL_INPUT_QM
         2 002733   200003 474500                    LDP4    @GETCMD,,AUTO
         2 002734   400010 756100                    STQ     8,,PR4

      882    16582    5                       CALL XUG$ERRMSG_COMMON (GETCMD);

  16582  2 002735   200003 630500                    EPPR0   @GETCMD,,AUTO
         2 002736   000017 631400 xsym               EPPR1   B_VECTNIL+15
         2 002737   000000 701000 xent               TSX1    XUG$ERRMSG_COMMON
         2 002740   000000 011000                    NOP     0

      883    16583    5                   END;

PL6.E3A0      #001=XUG$COMMON File=XUG$COMMON.:E05TSI                            WED 07/30/97 09:17 Page:156
      884    16584        /*E*  ERROR:   XUG-E$XUG#LEGAL_INPUT_QM
      885    16585              MESSAGE0:Legal input at this point could be any of the following:
      886    16586        */
      887    16587    4                   CALL REPORT_ALTERNATIVES;

  16587  2 002741   005367 701000 2                  TSX1    REPORT_ALTERNATIVES
         2 002742   000000 011000                    NOP     0

      888    16588    4                   P_PCB.HI_CHAR = J;

  16588  2 002743   200251 235100                    LDA     J,,AUTO
         2 002744   200224 470500                    LDP0    P_PCB$,,AUTO
         2 002745   000012 755100                    STA     10,,PR0

      889    16589    4   RESTORE_USER$:  P_PCB.USER$ = XUG.USER$ ;

  16589  2 002746   200220 471500       RESTORE_USE* LDP1    XUG$,,AUTO
         2 002747   100076 236100                    LDQ     62,,PR1
         2 002750   000014 756100                    STQ     12,,PR0

      890    16590    4                   P_PCB.NXT='0'B;

  16590  2 002751   000026 236000 3                  LDQ     22
         2 002752   000005 356100                    ANSQ    5,,PR0

      891    16591    4                   XUG.QM_AFTER_SYNERR = '1'B;

  16591  2 002753   100000 236007                    LDQ     32768,DL
         2 002754   100071 256100                    ORSQ    57,,PR1

      892    16592    4                   IF GETCMD.TEXT_ = VECTOR(NIL)

  16592  2 002755   200003 473500                    LDP3    @GETCMD,,AUTO
         2 002756   300034 237100                    LDAQ    28,,PR3
         2 002757   000004 117000 3                  CMPAQ   4
         2 002760   001245 600000 2                  TZE     GETCMD

PL6.E3A0      #001=XUG$COMMON File=XUG$COMMON.:E05TSI                            WED 07/30/97 09:17 Page:157
      893    16593    4                   THEN
      894    16594    4                       GOTO GETCMD;   /* Bletch! */
      895    16595    4               END GIVE_ALTERNATIVES;

      896    16596    3               P_PCB.ERROR.MID='07'O;

  16596  2 002761   200224 470500                    LDP0    P_PCB$,,AUTO
         2 002762   000007 236003                    LDQ     7,DU
         2 002763   000006 752110                    STCQ    6,'10'O,PR0

      897    16597    3           END;

      898    16598        /*E*    ERROR:   XUG-E$SYNERR
      899    16599                MESSAGE: Your command was not processed because it contains something
      900    16600                         unexpected (a mis-spelled word, incorrect punctuation, or some
      901    16601                         other input which does not match this program's requirements).
      902    16602                         You may obtain a brief description of the expected input by
      903    16603                         entering as much of the command as you are sure of, followed
      904    16604                         by a single "?".
      905    16605                                                                           */
      906    16606    2       END;

      907    16607    1       GETCMD.ERR#=P_PCB.ERROR;

  16607  2 002764   200224 470500                    LDP0    P_PCB$,,AUTO
         2 002765   000006 236100                    LDQ     6,,PR0
         2 002766   200003 471500                    LDP1    @GETCMD,,AUTO
         2 002767   100001 756100                    STQ     1,,PR1

      908    16608
      909    16609    1       IF XUG.GOODCMD AND NOT P_PCB.ERROR.MON

  16609  2 002770   200220 473500                    LDP3    XUG$,,AUTO
         2 002771   300071 236100                    LDQ     57,,PR3
         2 002772   000010 316003                    CANQ    8,DU
         2 002773   003070 600000 2                  TZE     s:16632
         2 002774   000006 236100                    LDQ     6,,PR0
PL6.E3A0      #001=XUG$COMMON File=XUG$COMMON.:E05TSI                            WED 07/30/97 09:17 Page:158
         2 002775   400000 316007                    CANQ    -131072,DL
         2 002776   003070 601000 2                  TNZ     s:16632

      910    16610    2       THEN DO;

      911    16611    2   ERRHAND:
      912    16612    2           GETCMD.ERR_CODE = GETCMD.ERR# ;

  16612  2 002777   200003 470500       ERRHAND      LDP0    @GETCMD,,AUTO
         2 003000   000001 236100                    LDQ     1,,PR0
         2 003001   000010 756100                    STQ     8,,PR0

      913    16613    2           GETCMD.F1_ = VECTOR(NIL) ;

  16613  2 003002   000004 237000 3                  LDAQ    4
         2 003003   000017 755100                    STA     15,,PR0
         2 003004   000020 756100                    STQ     16,,PR0

      914    16614    2           GETCMD.F2_ = VECTOR(NIL) ;

  16614  2 003005   000004 237000 3                  LDAQ    4
         2 003006   000021 755100                    STA     17,,PR0
         2 003007   000022 756100                    STQ     18,,PR0

      915    16615    2           GETCMD.F3_ = VECTOR(NIL) ;

  16615  2 003010   000004 237000 3                  LDAQ    4
         2 003011   000023 755100                    STA     19,,PR0
         2 003012   000024 756100                    STQ     20,,PR0

      916    16616    2           IF B$JIT.PRFLAGS.POINT OR XUG.NLINES > 1

  16616  2 003013   000000 471400 xsym               LDP1    B$JIT$
         2 003014   100030 236100                    LDQ     24,,PR1
         2 003015   000200 316003                    CANQ    128,DU
         2 003016   003023 601000 2                  TNZ     s:16618
         2 003017   200220 473500                    LDP3    XUG$,,AUTO
PL6.E3A0      #001=XUG$COMMON File=XUG$COMMON.:E05TSI                            WED 07/30/97 09:17 Page:159
         2 003020   300106 235100                    LDA     70,,PR3
         2 003021   000001 115007                    CMPA    1,DL
         2 003022   003027 604400 2                  TMOZ    s:16619

      917    16617    2           THEN
      918    16618    2               CALL XUG$ECHOIF_COMMON(GETCMD) ;

  16618  2 003023   200003 630500                    EPPR0   @GETCMD,,AUTO
         2 003024   000017 631400 xsym               EPPR1   B_VECTNIL+15
         2 003025   004405 701000 2                  TSX1    s:16894
         2 003026   000000 011000                    NOP     0

      919    16619    2           CALL XUG$ERRPTR_COMMON(GETCMD) ALTRET(GETCMD_ALT1) ;

  16619  2 003027   200003 630500                    EPPR0   @GETCMD,,AUTO
         2 003030   000017 631400 xsym               EPPR1   B_VECTNIL+15
         2 003031   003266 701000 2                  TSX1    s:16675
         2 003032   003074 702000 2                  TSX2    GETCMD_ALT1

      920    16620    2           CALL XUG$ERRMSG_COMMON (GETCMD);

  16620  2 003033   200003 630500                    EPPR0   @GETCMD,,AUTO
         2 003034   000017 631400 xsym               EPPR1   B_VECTNIL+15
         2 003035   000000 701000 xent               TSX1    XUG$ERRMSG_COMMON
         2 003036   000000 011000                    NOP     0

      921    16621    2           IF GETCMD.TEXT_ = VECTOR(NIL)

  16621  2 003037   200003 470500                    LDP0    @GETCMD,,AUTO
         2 003040   000034 237100                    LDAQ    28,,PR0
         2 003041   000004 117000 3                  CMPAQ   4
         2 003042   003055 601000 2                  TNZ     s:16628

      922    16622    2           THEN
      923    16623    2               IF B$JIT.MODE = %M_INT# AND B$JIT.NEXTCC = %CC_FROMUC#

  16623  2 003043   000000 471400 xsym               LDP1    B$JIT$
PL6.E3A0      #001=XUG$COMMON File=XUG$COMMON.:E05TSI                            WED 07/30/97 09:17 Page:160
         2 003044   100000 236100                    LDQ     0,,PR1
         2 003045   740000 376003                    ANQ     -16384,DU
         2 003046   140000 116003                    CMPQ    49152,DU
         2 003047   003054 601000 2                  TNZ     s:16623+9
         2 003050   100151 236100                    LDQ     105,,PR1
         2 003051   000777 376003                    ANQ     511,DU
         2 003052   000003 116003                    CMPQ    3,DU
         2 003053   001245 600000 2                  TZE     GETCMD
         2 003054   003070 710000 2                  TRA     s:16632

      924    16624    2               THEN
      925    16625    2                   GOTO GETCMD ;
      926    16626    2               ELSE ;
      927    16627    2           ELSE
      928    16628    2               IF B$JIT.PRFLAGS.EXPOUND AND GETCMD.TREAD# AND NOT XUG.QM_AFTER_SYNERR

  16628  2 003055   000000 471400 xsym               LDP1    B$JIT$
         2 003056   100030 236100                    LDQ     24,,PR1
         2 003057   000100 316003                    CANQ    64,DU
         2 003060   003070 600000 2                  TZE     s:16632
         2 003061   000006 236100                    LDQ     6,,PR0
         2 003062   200000 316003                    CANQ    65536,DU
         2 003063   003070 600000 2                  TZE     s:16632
         2 003064   200220 473500                    LDP3    XUG$,,AUTO
         2 003065   300071 236100                    LDQ     57,,PR3
         2 003066   100000 316007                    CANQ    32768,DL
         2 003067   001631 600000 2                  TZE     ALT_OUT

      929    16629    2               THEN
      930    16630    2                   GOTO ALT_OUT;
      931    16631    2       END ;                        /* Then Do */

      932    16632    1       GOTO GETCMD_ALT1 ;

  16632  2 003070   003074 710000 2                  TRA     GETCMD_ALT1

      933    16633    1   GETCMD_ALT:
PL6.E3A0      #001=XUG$COMMON File=XUG$COMMON.:E05TSI                            WED 07/30/97 09:17 Page:161
      934    16634    1       XUG.DIVERT_TO_HELP = %NO# ;

  16634  2 003071   200220 470500       GETCMD_ALT   LDP0    XUG$,,AUTO
         2 003072   000033 236000 3                  LDQ     27
         2 003073   000071 356100                    ANSQ    57,,PR0

      935    16635    1   GETCMD_ALT1:
      936    16636    1       P_PCB.USER$ = XUG.USER$;

  16636  2 003074   200220 470500       GETCMD_ALT1  LDP0    XUG$,,AUTO
         2 003075   000076 236100                    LDQ     62,,PR0
         2 003076   200224 471500                    LDP1    P_PCB$,,AUTO
         2 003077   100014 756100                    STQ     12,,PR1

      937    16637    1       ALTRETURN;

  16637  2 003100   000000 702200 xent               TSX2  ! X66_AALT

      938    16638    1   RDALT1:
      939    16639    1       GETCMD.ERR#=BINBIT(ARS,36);

  16639  2 003101   200244 236100       RDALT1       LDQ     ARS,,AUTO
         2 003102   200003 470500                    LDP0    @GETCMD,,AUTO
         2 003103   000001 756100                    STQ     1,,PR0

      940    16640    1       XUG.DIVERT_TO_HELP = %NO# ;

  16640  2 003104   200220 471500                    LDP1    XUG$,,AUTO
         2 003105   000033 236000 3                  LDQ     27
         2 003106   100071 356100                    ANSQ    57,,PR1

      941    16641    1       P_PCB.USER$ = XUG.USER$ ;

  16641  2 003107   100076 236100                    LDQ     62,,PR1
         2 003110   200224 473500                    LDP3    P_PCB$,,AUTO
         2 003111   300014 756100                    STQ     12,,PR3

PL6.E3A0      #001=XUG$COMMON File=XUG$COMMON.:E05TSI                            WED 07/30/97 09:17 Page:162
      942    16642    1       CALL XUG$CLRENABLE_COMMON(GETCMD) ;

  16642  2 003112   200003 630500                    EPPR0   @GETCMD,,AUTO
         2 003113   000017 631400 xsym               EPPR1   B_VECTNIL+15
         2 003114   000000 701000 xent               TSX1    XUG$CLRENABLE_COMMON
         2 003115   000000 011000                    NOP     0

      943    16643    1       ALTRETURN;

  16643  2 003116   000000 702200 xent               TSX2  ! X66_AALT

      944    16644        %EJECT;
PL6.E3A0      #001=XUG$COMMON File=XUG$COMMON.:E05TSI                            WED 07/30/97 09:17 Page:163
      945    16645    1   XUG$GETMORE_COMMON: ENTRY(GETCMD) ALTRET;

  16645  2 003117   000000 700200 xent  XUG$GETMORE* TSX0  ! X66_AUTO_2
         2 003120   000440 000002                    ZERO    288,2

      946    16646        /**/
      947    16647    1       XUG$ = GETCMD.WORK$ ;

  16647  2 003121   200003 470500                    LDP0    @GETCMD,,AUTO
         2 003122   000004 236100                    LDQ     4,,PR0
         2 003123   200220 756100                    STQ     XUG$,,AUTO

      948    16648    1       GETCMD.CONTINUED# = %YES# ;

  16648  2 003124   100000 236003                    LDQ     32768,DU
         2 003125   000006 256100                    ORSQ    6,,PR0

      949    16649    1       P_PCB$ = XUG.P_PCB$ ;

  16649  2 003126   200220 471500                    LDP1    XUG$,,AUTO
         2 003127   100072 236100                    LDQ     58,,PR1
         2 003130   200224 756100                    STQ     P_PCB$,,AUTO

      950    16650    1       VBASE(XUG.READVEC)=PINCRC(VBASE(XUG.BUFVEC),XUG.CPOS+1);

  16650  2 003131   100104 236100                    LDQ     68,,PR1
         2 003132   100001 473500                    LDP3    1,,PR1
         2 003133   000011 402007                    MPY     9,DL
         2 003134   000011 036007                    ADLQ    9,DL
         2 003135   003137 605000 2                  TPL     s:16650+6
         2 003136   000044 036003                    ADLQ    36,DU
         2 003137   300000 503506                    ABD     0,QL,PR3
         2 003140   100003 453500                    STP3    3,,PR1

      951    16651    1       VBOUND(XUG.READVEC)=VBOUND(XUG.BUFVEC)-XUG.CPOS-1;

  16651  2 003141   100000 236100                    LDQ     0,,PR1
PL6.E3A0      #001=XUG$COMMON File=XUG$COMMON.:E05TSI                            WED 07/30/97 09:17 Page:164
         2 003142   000020 772000                    QRL     16
         2 003143   100104 136100                    SBLQ    68,,PR1
         2 003144   000001 136007                    SBLQ    1,DL
         2 003145   000020 736000                    QLS     16
         2 003146   100002 676100                    ERQ     2,,PR1
         2 003147   000034 376000 xsym               ANQ     B_VECTNIL+28
         2 003150   100002 656100                    ERSQ    2,,PR1

      952    16652    1       VBASE(XUG.RLTVEC)->RLT(XUG.NLINES)=XUG.CPOS - XUG.PREV_CPOS ;

  16652  2 003151   100013 474500                    LDP4    11,,PR1
         2 003152   100106 235100                    LDA     70,,PR1
         2 003153   100104 236100                    LDQ     68,,PR1
         2 003154   100105 136100                    SBLQ    69,,PR1
         2 003155   200432 756100                    STQ     LEGAL_TEXTC+17,,AUTO
         2 003156   000105 101500                    MRL     fill='000'O
         2 003157   200432 000004                    ADSC9   LEGAL_TEXTC+17,,AUTO     cn=0,n=4
         2 003160   400000 000001                    ADSC9   0,A,PR4                  cn=0,n=1

      953    16653    1       IF XUG.PREV_CPOS = 0

  16653  2 003161   100105 235100                    LDA     69,,PR1
         2 003162   003176 601000 2                  TNZ     s:16657

      954    16654    1       THEN
      955    16655    1           VBASE(XUG.RLTVEC)->RLT(XUG.NLINES) = VBASE(XUG.RLTVEC)->

  16655  2 003163   100013 473500                    LDP3    11,,PR1
         2 003164   100106 235100                    LDA     70,,PR1
         2 003165   000100 101505                    MRL     fill='000'O
         2 003166   300000 000001                    ADSC9   0,A,PR3                  cn=0,n=1
         2 003167   200433 000004                    ADSC9   LEGAL_TEXTC+18,,AUTO     cn=0,n=4
         2 003170   200433 236100                    LDQ     LEGAL_TEXTC+18,,AUTO
         2 003171   000001 036007                    ADLQ    1,DL
         2 003172   200432 756100                    STQ     LEGAL_TEXTC+17,,AUTO
         2 003173   000105 101500                    MRL     fill='000'O
         2 003174   200432 000004                    ADSC9   LEGAL_TEXTC+17,,AUTO     cn=0,n=4
PL6.E3A0      #001=XUG$COMMON File=XUG$COMMON.:E05TSI                            WED 07/30/97 09:17 Page:165
         2 003175   300000 000001                    ADSC9   0,A,PR3                  cn=0,n=1

      956    16656    1             RLT(XUG.NLINES) + 1 ;
      957    16657    1       XUG.PREV_CPOS = XUG.CPOS ;

  16657  2 003176   100104 235100                    LDA     68,,PR1
         2 003177   100105 755100                    STA     69,,PR1

      958    16658    1       CALL XUG$READCMD_COMMON(GETCMD,XUG.READVEC,ARS) ALTRET(RDALT2);

  16658  2 003200   200244 633500                    EPPR3   ARS,,AUTO
         2 003201   200434 453500                    STP3    LEGAL_TEXTC+19,,AUTO
         2 003202   200220 236100                    LDQ     XUG$,,AUTO
         2 003203   000002 036003                    ADLQ    2,DU
         2 003204   200003 235100                    LDA     @GETCMD,,AUTO
         2 003205   200432 757100                    STAQ    LEGAL_TEXTC+17,,AUTO
         2 003206   200432 630500                    EPPR0   LEGAL_TEXTC+17,,AUTO
         2 003207   000021 631400 xsym               EPPR1   B_VECTNIL+17
         2 003210   000000 701000 xent               TSX1    XUG$READCMD_COMMON
         2 003211   003257 702000 2                  TSX2    RDALT2

      959    16659    1       IF XUG.NLINES >= XUG.RLTCNT

  16659  2 003212   200220 470500                    LDP0    XUG$,,AUTO
         2 003213   000106 236100                    LDQ     70,,PR0
         2 003214   000107 116100                    CMPQ    71,,PR0
         2 003215   003233 604000 2                  TMI     s:16664

      960    16660    2       THEN CALL XUG$MOREMEM(GETCMD) WHENALTRETURN DO;

  16660  2 003216   200003 630500                    EPPR0   @GETCMD,,AUTO
         2 003217   000017 631400 xsym               EPPR1   B_VECTNIL+15
         2 003220   000666 701000 2                  TSX1    s:16100
         2 003221   003223 702000 2                  TSX2    s:16661
         2 003222   003233 710000 2                  TRA     s:16664

      961    16661    2               P_PCB.ERROR = GETCMD.ERR#;
PL6.E3A0      #001=XUG$COMMON File=XUG$COMMON.:E05TSI                            WED 07/30/97 09:17 Page:166

  16661  2 003223   200003 470500                    LDP0    @GETCMD,,AUTO
         2 003224   000001 236100                    LDQ     1,,PR0
         2 003225   200224 471500                    LDP1    P_PCB$,,AUTO
         2 003226   100006 756100                    STQ     6,,PR1

      962    16662    2               UNWIND TO XUG.REM_PARSE;

  16662  2 003227   200220 473700                    LDP3  ! XUG$,,AUTO
         2 003230   300014 237300                    LDAQ  ! 12,,PR3
         2 003231   000000 700200 xent               TSX0  ! X66_AUNWIND
         2 003232   000000 000200                    ZERO    0,128

      963    16663    2           END;
      964    16664    1       XUG.NLINES = XUG.NLINES + 1;

  16664  2 003233   200220 470500                    LDP0    XUG$,,AUTO
         2 003234   000106 054100                    AOS     70,,PR0

      965    16665    1       VBASE(XUG.RLTVEC)->RLT(XUG.NLINES)=ARS;

  16665  2 003235   000013 471500                    LDP1    11,,PR0
         2 003236   000106 235100                    LDA     70,,PR0
         2 003237   000105 101500                    MRL     fill='000'O
         2 003240   200244 000004                    ADSC9   ARS,,AUTO                cn=0,n=4
         2 003241   100000 000001                    ADSC9   0,A,PR1                  cn=0,n=1

      966    16666    1       P_PCB.NCHARS = XUG.CPOS + ARS + 1 ;

  16666  2 003242   000104 236100                    LDQ     68,,PR0
         2 003243   200244 036100                    ADLQ    ARS,,AUTO
         2 003244   000001 036007                    ADLQ    1,DL
         2 003245   200224 471500                    LDP1    P_PCB$,,AUTO
         2 003246   100011 756100                    STQ     9,,PR1

      967    16667    1       IF XUG.PP_ERR = '0'B

PL6.E3A0      #001=XUG$COMMON File=XUG$COMMON.:E05TSI                            WED 07/30/97 09:17 Page:167
  16667  2 003247   000100 235100                    LDA     64,,PR0
         2 003250   003252 601000 2                  TNZ     s:16670

      968    16668    1       THEN
      969    16669    1           RETURN;

  16669  2 003251   000000 702200 xent               TSX2  ! X66_ARET

      970    16670    1       P_PCB.ERROR = XUG.PP_ERR;

  16670  2 003252   000100 236100                    LDQ     64,,PR0
         2 003253   100006 756100                    STQ     6,,PR1

      971    16671    1       UNWIND TO XUG.REM_PARSE;

  16671  2 003254   000014 237300                    LDAQ  ! 12,,PR0
         2 003255   000000 700200 xent               TSX0  ! X66_AUNWIND
         2 003256   000000 000200                    ZERO    0,128

      972    16672    1   RDALT2: P_PCB.ERROR=BINBIT(ARS,36);

  16672  2 003257   200244 236100       RDALT2       LDQ     ARS,,AUTO
         2 003260   200224 470500                    LDP0    P_PCB$,,AUTO
         2 003261   000006 756100                    STQ     6,,PR0

      973    16673    1       UNWIND TO XUG.REM_PARSE;

  16673  2 003262   200220 471700                    LDP1  ! XUG$,,AUTO
         2 003263   100014 237300                    LDAQ  ! 12,,PR1
         2 003264   000000 700200 xent               TSX0  ! X66_AUNWIND
         2 003265   000000 000200                    ZERO    0,128

      974    16674        %EJECT;
PL6.E3A0      #001=XUG$COMMON File=XUG$COMMON.:E05TSI                            WED 07/30/97 09:17 Page:168
      975    16675    1   XUG$ERRPTR_COMMON: ENTRY(GETCMD) ALTRET;

  16675  2 003266   000000 700200 xent  XUG$ERRPTR_* TSX0  ! X66_AUTO_2
         2 003267   000440 000002                    ZERO    288,2

      976    16676        /**/
      977    16677    1       XUG$ = GETCMD.WORK$ ;

  16677  2 003270   200003 470500                    LDP0    @GETCMD,,AUTO
         2 003271   000004 236100                    LDQ     4,,PR0
         2 003272   200220 756100                    STQ     XUG$,,AUTO

      978    16678    1       P_PCB$ = XUG.P_PCB$ ;

  16678  2 003273   200220 471500                    LDP1    XUG$,,AUTO
         2 003274   100072 236100                    LDQ     58,,PR1
         2 003275   200224 756100                    STQ     P_PCB$,,AUTO

      979    16679    1       IF GETCMD.DCB_PARAM# = DCBNUM( NIL )

  16679  2 003276   000014 235100                    LDA     12,,PR0
         2 003277   003302 601000 2                  TNZ     s:16682

      980    16680    1       THEN
      981    16681    1           GETCMD.DCB_PARAM# = GETCMD.OUTDCB# ;

  16681  2 003300   000013 235100                    LDA     11,,PR0
         2 003301   000014 755100                    STA     12,,PR0

      982    16682    1       IF GETCMD.DCB_PARAM# ~= DCBNUM(NIL)

  16682  2 003302   003305 600000 2                  TZE     s:16686

      983    16683    1       THEN
      984    16684    1           OUTDCB# = GETCMD.DCB_PARAM# ;

  16684  2 003303   200351 755100                    STA     OUTDCB#,,AUTO
PL6.E3A0      #001=XUG$COMMON File=XUG$COMMON.:E05TSI                            WED 07/30/97 09:17 Page:169
         2 003304   003315 710000 2                  TRA     s:16687

      985    16685    1       ELSE
      986    16686    1           CALL XUG$GETDCB_COMMON(M$LO,OUTDCB#) ALTRET(MALT) ;

  16686  2 003305   200351 633500                    EPPR3   OUTDCB#,,AUTO
         2 003306   200433 453500                    STP3    LEGAL_TEXTC+18,,AUTO
         2 003307   000016 236000 3                  LDQ     14
         2 003310   200432 756100                    STQ     LEGAL_TEXTC+17,,AUTO
         2 003311   200432 630500                    EPPR0   LEGAL_TEXTC+17,,AUTO
         2 003312   000020 631400 xsym               EPPR1   B_VECTNIL+16
         2 003313   000000 701000 xent               TSX1    XUG$GETDCB_COMMON
         2 003314   002543 702000 2                  TSX2    MALT

      987    16687    1       GETCMD.DCB_PARAM# = OUTDCB# ;

  16687  2 003315   200351 235100                    LDA     OUTDCB#,,AUTO
         2 003316   200003 470500                    LDP0    @GETCMD,,AUTO
         2 003317   000014 755100                    STA     12,,PR0

      988    16688    1       CALL XUG$OPENOUT_INTERNAL (GETCMD, OUTDCB#);

  16688  2 003320   200351 631500                    EPPR1   OUTDCB#,,AUTO
         2 003321   200433 451500                    STP1    LEGAL_TEXTC+18,,AUTO
         2 003322   200003 236100                    LDQ     @GETCMD,,AUTO
         2 003323   200432 756100                    STQ     LEGAL_TEXTC+17,,AUTO
         2 003324   200432 630500                    EPPR0   LEGAL_TEXTC+17,,AUTO
         2 003325   000020 631400 xsym               EPPR1   B_VECTNIL+16
         2 003326   000000 701000 xent               TSX1    XUG$OPENOUT_INTERNAL
         2 003327   000000 011000                    NOP     0

      989    16689    1       FPT_WRITE = FPT_WRITE_C;

  16689  2 003330   000100 100400                    MLR     fill='000'O
         2 003331   000030 000060 0                  ADSC9   FPT_WRITE_C              cn=0,n=48
         2 003332   200020 000060                    ADSC9   FPT_WRITE,,AUTO          cn=0,n=48

PL6.E3A0      #001=XUG$COMMON File=XUG$COMMON.:E05TSI                            WED 07/30/97 09:17 Page:170
      990    16690    1       FPT_WRITE.V_ = VECTOR(FPT_WRITE.V);

  16690  2 003333   000037 235000 3                  LDA     31
         2 003334   200432 452500                    STP2    LEGAL_TEXTC+17,,AUTO
         2 003335   200432 236100                    LDQ     LEGAL_TEXTC+17,,AUTO
         2 003336   000030 036003                    ADLQ    24,DU
         2 003337   200020 757100                    STAQ    FPT_WRITE,,AUTO

      991    16691    1       FPT_WRITE.BUF_ = VECTOR(XUG.BUF);

  16691  2 003340   000040 235000 3                  LDA     32
         2 003341   200220 236100                    LDQ     XUG$,,AUTO
         2 003342   000300 036003                    ADLQ    192,DU
         2 003343   200024 757100                    STAQ    FPT_WRITE+4,,AUTO

      992    16692    1       FPT_WRITE.V.DCB# = OUTDCB# ;

  16692  2 003344   200351 720100                    LXL0    OUTDCB#,,AUTO
         2 003345   200030 740100                    STX0    FPT_WRITE+8,,AUTO

      993    16693    1       FPT_WRITE.V.DVBYTE.VFC# = %YES#;

  16693  2 003346   100000 236003                    LDQ     32768,DU
         2 003347   200033 256100                    ORSQ    FPT_WRITE+11,,AUTO

      994    16694    1       IF GETCMD.USE_EPOS#

  16694  2 003350   200003 470500                    LDP0    @GETCMD,,AUTO
         2 003351   000006 234100                    SZN     6,,PR0
         2 003352   003357 605000 2                  TPL     s:16698

      995    16695    1       THEN
      996    16696    1           EPOS=GETCMD.EPOS# ;

  16696  2 003353   000006 236100                    LDQ     6,,PR0
         2 003354   777777 376007                    ANQ     -1,DL
         2 003355   200252 756100                    STQ     EPOS,,AUTO
PL6.E3A0      #001=XUG$COMMON File=XUG$COMMON.:E05TSI                            WED 07/30/97 09:17 Page:171
         2 003356   003362 710000 2                  TRA     s:16699

      997    16697    1       ELSE
      998    16698    1           EPOS = P_PCB.HI_CHAR;

  16698  2 003357   200224 471500                    LDP1    P_PCB$,,AUTO
         2 003360   100012 235100                    LDA     10,,PR1
         2 003361   200252 755100                    STA     EPOS,,AUTO

      999    16699    1       EPOS = MINIMUM (P_PCB.NCHARS, EPOS);

  16699  2 003362   200252 236100                    LDQ     EPOS,,AUTO
         2 003363   200224 471500                    LDP1    P_PCB$,,AUTO
         2 003364   003371 604000 2                  TMI     s:16699+7
         2 003365   100011 116100                    CMPQ    9,,PR1
         2 003366   003371 602000 2                  TNC     s:16699+7
         2 003367   003371 600000 2                  TZE     s:16699+7
         2 003370   100011 236100                    LDQ     9,,PR1
         2 003371   200252 756100                    STQ     EPOS,,AUTO

     1000    16700    2   SETFLG: DO I = 0 TO XUG.NDCBS;

  16700  2 003372   200250 450100       SETFLG       STZ     I,,AUTO
         2 003373   003430 710000 2                  TRA     s:16709+1

     1001    16701    2           CALL XUG$CORRES_COMMON (OUTDCB#, BINBIT(XUG.DCBS.NUM(I),36))

  16701  2 003374   200250 235100                    LDA     I,,AUTO
         2 003375   000001 735000                    ALS     1
         2 003376   200220 470500                    LDP0    XUG$,,AUTO
         2 003377   000113 236105                    LDQ     75,AL,PR0
         2 003400   000022 772000                    QRL     18
         2 003401   200432 756100                    STQ     LEGAL_TEXTC+17,,AUTO
         2 003402   200432 631500                    EPPR1   LEGAL_TEXTC+17,,AUTO
         2 003403   200435 451500                    STP1    LEGAL_TEXTC+20,,AUTO
         2 003404   200351 633500                    EPPR3   OUTDCB#,,AUTO
         2 003405   200434 453500                    STP3    LEGAL_TEXTC+19,,AUTO
PL6.E3A0      #001=XUG$COMMON File=XUG$COMMON.:E05TSI                            WED 07/30/97 09:17 Page:172
         2 003406   200434 630500                    EPPR0   LEGAL_TEXTC+19,,AUTO
         2 003407   000020 631400 xsym               EPPR1   B_VECTNIL+16
         2 003410   000000 701000 xent               TSX1    XUG$CORRES_COMMON
         2 003411   003413 702000 2                  TSX2    s:16703
         2 003412   003427 710000 2                  TRA     s:16709

     1002    16702    3           WHENALTRETURN DO;

     1003    16703    3               IF XUG.DCBS.ERRPTR_CPOS(I) = EPOS

  16703  2 003413   200250 235100                    LDA     I,,AUTO
         2 003414   000001 735000                    ALS     1
         2 003415   200220 470500                    LDP0    XUG$,,AUTO
         2 003416   000113 236105                    LDQ     75,AL,PR0
         2 003417   000022 736000                    QLS     18
         2 003420   000022 732000                    QRS     18
         2 003421   200252 116100                    CMPQ    EPOS,,AUTO
         2 003422   003424 601000 2                  TNZ     s:16706

     1004    16704    3               THEN
     1005    16705    3                   RETURN;

  16705  2 003423   000000 702200 xent               TSX2  ! X66_ARET

     1006    16706    3               XUG.DCBS.ERRPTR_CPOS(I) = EPOS;

  16706  2 003424   200252 720100                    LXL0    EPOS,,AUTO
         2 003425   000113 440105                    SXL0    75,AL,PR0

     1007    16707    3               EXIT SETFLG;

  16707  2 003426   003434 710000 2                  TRA     s:16710

     1008    16708    3           END;
     1009    16709    2       END SETFLG;

  16709  2 003427   200250 054100                    AOS     I,,AUTO
PL6.E3A0      #001=XUG$COMMON File=XUG$COMMON.:E05TSI                            WED 07/30/97 09:17 Page:173
         2 003430   200220 470500                    LDP0    XUG$,,AUTO
         2 003431   200250 236100                    LDQ     I,,AUTO
         2 003432   000112 116100                    CMPQ    74,,PR0
         2 003433   003374 604400 2                  TMOZ    s:16701

     1010    16710    1       IF XUG.QM_AFTER_SYNERR

  16710  2 003434   000071 236100                    LDQ     57,,PR0
         2 003435   100000 316007                    CANQ    32768,DL
         2 003436   004120 601000 2                  TNZ     DO_SINPUT

     1011    16711    1       THEN
     1012    16712    1           GOTO DO_SINPUT;
     1013    16713    1       IF B$JIT.PRFLAGS.POINT

  16713  2 003437   000000 471400 xsym               LDP1    B$JIT$
         2 003440   100030 236100                    LDQ     24,,PR1
         2 003441   000200 316003                    CANQ    128,DU
         2 003442   003653 600000 2                  TZE     s:16765

     1014    16714    1       THEN
     1015    16715    2   POINT_TO_ERROR: DO;

  16715  2 003443                       POINT_TO_ER* null
     1016    16716    2           IF EPOS >= XUG.CPOS

  16716  2 003443   200252 236100                    LDQ     EPOS,,AUTO
         2 003444   000104 116100                    CMPQ    68,,PR0
         2 003445   003511 604000 2                  TMI     s:16727
         2 003446   000036 036100                    ADLQ    30,,PR0
         2 003447   000104 136100                    SBLQ    68,,PR0
         2 003450   000453 116007                    CMPQ    299,DL
         2 003451   003511 605000 2                  TPL     s:16727
         2 003452   000036 235100                    LDA     30,,PR0
         2 003453   003464 600000 2                  TZE     s:16721
         2 003454   200003 473500                    LDP3    @GETCMD,,AUTO
         2 003455   300006 236100                    LDQ     6,,PR3
PL6.E3A0      #001=XUG$COMMON File=XUG$COMMON.:E05TSI                            WED 07/30/97 09:17 Page:174
         2 003456   010000 316003                    CANQ    4096,DU
         2 003457   003464 600000 2                  TZE     s:16721
         2 003460   000037 236100                    LDQ     31,,PR0
         2 003461   777000 376003                    ANQ     -512,DU
         2 003462   100000 116003                    CMPQ    32768,DU
         2 003463   003511 600000 2                  TZE     s:16727

     1017    16717    2             AND XUG.POFF + EPOS - XUG.CPOS < LENGTHC(XUG.BUFA) - 1
     1018    16718    2             AND (XUG.POFF = 0 OR NOT GETCMD.PROMPT_VFC# OR
     1019    16719    2             SUBSTR(XUG.PROMPT, 0, 1) ~= '@')
     1020    16720    3           THEN DO;

     1021    16721    3               TPOS=XUG.POFF+EPOS+XUG.CCBUF_OFFC-XUG.CPOS+1;

  16721  2 003464   000036 236100                    LDQ     30,,PR0
         2 003465   200252 036100                    ADLQ    EPOS,,AUTO
         2 003466   200432 756100                    STQ     LEGAL_TEXTC+17,,AUTO
         2 003467   000267 236100                    LDQ     183,,PR0
         2 003470   000022 732000                    QRS     18
         2 003471   200433 756100                    STQ     LEGAL_TEXTC+18,,AUTO
         2 003472   200432 236100                    LDQ     LEGAL_TEXTC+17,,AUTO
         2 003473   200433 036100                    ADLQ    LEGAL_TEXTC+18,,AUTO
         2 003474   000104 136100                    SBLQ    68,,PR0
         2 003475   000001 036007                    ADLQ    1,DL
         2 003476   200253 756100                    STQ     TPOS,,AUTO

     1022    16722    3               IF GETCMD.RCVD_PROMPT# AND GETCMD.TREAD#

  16722  2 003477   200003 473500                    LDP3    @GETCMD,,AUTO
         2 003500   300006 236100                    LDQ     6,,PR3
         2 003501   020000 316003                    CANQ    8192,DU
         2 003502   003626 600000 2                  TZE     s:16758
         2 003503   200000 316003                    CANQ    65536,DU
         2 003504   003626 600000 2                  TZE     s:16758

     1023    16723    3               THEN
     1024    16724    3                   TPOS = TPOS + XUG.POFF;
PL6.E3A0      #001=XUG$COMMON File=XUG$COMMON.:E05TSI                            WED 07/30/97 09:17 Page:175

  16724  2 003505   200253 236100                    LDQ     TPOS,,AUTO
         2 003506   000036 036100                    ADLQ    30,,PR0
         2 003507   200253 756100                    STQ     TPOS,,AUTO

     1025    16725    3           END;

  16725  2 003510   003626 710000 2                  TRA     s:16758

     1026    16726    3           ELSE DO;

     1027    16727    4               IF EPOS>15 THEN DO;

  16727  2 003511   200252 235100                    LDA     EPOS,,AUTO
         2 003512   000017 115007                    CMPA    15,DL
         2 003513   003555 604400 2                  TMOZ    s:16742

     1028    16728    4                   XUG.BUF=%CONCAT(VFC_TRANSITION0,'...');

  16728  2 003514   040100 100400                    MLR     fill='040'O
         2 003515   000346 000004 0                  ADSC9   XUH_PARAM_C+58           cn=0,n=4
         2 003516   000300 000454                    ADSC9   192,,PR0                 cn=0,n=300

     1029    16729    4                   CSIZE=30;

  16729  2 003517   000036 236007                    LDQ     30,DL
         2 003520   200254 756100                    STQ     CSIZE,,AUTO

     1030    16730    4                   ADDR(XUG.BUFA(4))->CHARBASE=PINCRC(VBASE(XUG.BUFVEC),EPOS-15)->
             16730                            CHARBASE;

  16730  2 003521   000001 473500                    LDP3    1,,PR0
         2 003522   000000 620006                    EAX0    0,QL
         2 003523   200254 721100                    LXL1    CSIZE,,AUTO
         2 003524   040140 100545                    MLR     fill='040'O
         2 003525   377774 200010                    ADSC9   -4,A,PR3                 cn=1,n=*X0
         2 003526   000301 000011                    ADSC9   193,,PR0                 cn=0,n=*X1
PL6.E3A0      #001=XUG$COMMON File=XUG$COMMON.:E05TSI                            WED 07/30/97 09:17 Page:176

     1031    16731    4                   TPOS=19;

  16731  2 003527   000023 236007                    LDQ     19,DL
         2 003530   200253 756100                    STQ     TPOS,,AUTO

     1032    16732    5                   IF EPOS+15<P_PCB.NCHARS THEN DO;

  16732  2 003531   200224 474500                    LDP4    P_PCB$,,AUTO
         2 003532   200252 236100                    LDQ     EPOS,,AUTO
         2 003533   000017 036007                    ADLQ    15,DL
         2 003534   003537 604000 2                  TMI     s:16733
         2 003535   400011 116100                    CMPQ    9,,PR4
         2 003536   003550 603000 2                  TRC     s:16738

     1033    16733    5                       CSIZE=3;

  16733  2 003537   000003 235007                    LDA     3,DL
         2 003540   200254 755100                    STA     CSIZE,,AUTO

     1034    16734    5                       ADDR(XUG.BUFA(34))->CHARBASE='...';

  16734  2 003541   000000 620005                    EAX0    0,AL
         2 003542   040140 100400                    MLR     fill='040'O
         2 003543   000347 000003 0                  ADSC9   XUH_PARAM_C+59           cn=0,n=3
         2 003544   000310 400010                    ADSC9   200,,PR0                 cn=2,n=*X0

     1035    16735    5                       I=36;

  16735  2 003545   000044 235007                    LDA     36,DL
         2 003546   200250 755100                    STA     I,,AUTO

     1036    16736    5                   END;

  16736  2 003547   003614 710000 2                  TRA     s:16754

     1037    16737    5                   ELSE DO;
PL6.E3A0      #001=XUG$COMMON File=XUG$COMMON.:E05TSI                            WED 07/30/97 09:17 Page:177

     1038    16738    5                       I=18+P_PCB.NCHARS-EPOS;

  16738  2 003550   400011 236100                    LDQ     9,,PR4
         2 003551   200252 136100                    SBLQ    EPOS,,AUTO
         2 003552   000022 036007                    ADLQ    18,DL
         2 003553   200250 756100                    STQ     I,,AUTO

     1039    16739    5                   END;

     1040    16740    4               END;

  16740  2 003554   003614 710000 2                  TRA     s:16754

     1041    16741    4               ELSE DO;

     1042    16742    4                   TPOS=EPOS+1;

  16742  2 003555   000001 035007                    ADLA    1,DL
         2 003556   200253 755100                    STA     TPOS,,AUTO

     1043    16743    4                   CSIZE=30;

  16743  2 003557   000036 236007                    LDQ     30,DL
         2 003560   200254 756100                    STQ     CSIZE,,AUTO

     1044    16744    4                  CALL CONCAT (XUG.BUF, %VFC_TRANSITION0, VBASE(XUG.BUFVEC)->CHARBASE)
             16744                            ;

  16744  2 003561   000001 473500                    LDP3    1,,PR0
         2 003562   036000 236003                    LDQ     15360,DU
         2 003563   000300 552140                    STBQ    192,'40'O,PR0
         2 003564   200254 720100                    LXL0    CSIZE,,AUTO
         2 003565   040100 100540                    MLR     fill='040'O
         2 003566   300000 000010                    ADSC9   0,,PR3                   cn=0,n=*X0
         2 003567   000300 200453                    ADSC9   192,,PR0                 cn=1,n=299

PL6.E3A0      #001=XUG$COMMON File=XUG$COMMON.:E05TSI                            WED 07/30/97 09:17 Page:178
     1045    16745    5                   IF EPOS+15>P_PCB.NCHARS THEN DO;

  16745  2 003570   200224 470500                    LDP0    P_PCB$,,AUTO
         2 003571   200252 236100                    LDQ     EPOS,,AUTO
         2 003572   000017 036007                    ADLQ    15,DL
         2 003573   003602 604000 2                  TMI     s:16749
         2 003574   000011 116100                    CMPQ    9,,PR0
         2 003575   003602 602000 2                  TNC     s:16749
         2 003576   003602 600000 2                  TZE     s:16749

     1046    16746    5                       I=P_PCB.NCHARS;

  16746  2 003577   000011 235100                    LDA     9,,PR0
         2 003600   200250 755100                    STA     I,,AUTO

     1047    16747    5                   END;

  16747  2 003601   003614 710000 2                  TRA     s:16754

     1048    16748    5                   ELSE DO;

     1049    16749    5                       CSIZE=3;

  16749  2 003602   000003 235007                    LDA     3,DL
         2 003603   200254 755100                    STA     CSIZE,,AUTO

     1050    16750    5                       ADDR(XUG.BUFA(EPOS+16)) -> CHARBASE = '...';

  16750  2 003604   200220 471500                    LDP1    XUG$,,AUTO
         2 003605   000000 620005                    EAX0    0,AL
         2 003606   200252 235100                    LDA     EPOS,,AUTO
         2 003607   040145 100400                    MLR     fill='040'O
         2 003610   000347 000003 0                  ADSC9   XUH_PARAM_C+59           cn=0,n=3
         2 003611   100304 000010                    ADSC9   196,A,PR1                cn=0,n=*X0

     1051    16751    5                       I=EPOS + 18;

PL6.E3A0      #001=XUG$COMMON File=XUG$COMMON.:E05TSI                            WED 07/30/97 09:17 Page:179
  16751  2 003612   000022 035007                    ADLA    18,DL
         2 003613   200250 755100                    STA     I,,AUTO

     1052    16752    5                   END;

     1053    16753    4               END;

     1054    16754    3               FPT_WRITE.BUF_.BOUND=I;

  16754  2 003614   200250 236100                    LDQ     I,,AUTO
         2 003615   000020 736000                    QLS     16
         2 003616   200024 676100                    ERQ     FPT_WRITE+4,,AUTO
         2 003617   000034 376000 xsym               ANQ     B_VECTNIL+28
         2 003620   200024 656100                    ERSQ    FPT_WRITE+4,,AUTO

     1055    16755    4               CALL M$WRITE(FPT_WRITE) WHENALTRETURN DO ;

  16755  2 003621   200020 630500                    EPPR0   FPT_WRITE,,AUTO
         2 003622   440001 713400                    CLIMB   alt,write
         2 003623   401400 401760                    pmme    nvectors=4
         2 003624   003626 702000 2                  TSX2    s:16758
         2 003625   003626 710000 2                  TRA     s:16758

     1056    16756    4               END ;

     1057    16757    3           END;

     1058    16758    2           XUG.BUF=%VFC_TRANSITION1;

  16758  2 003626   200220 470500                    LDP0    XUG$,,AUTO
         2 003627   040100 100400                    MLR     fill='040'O
         2 003630   000041 000001 3                  ADSC9   33                       cn=0,n=1
         2 003631   000300 000454                    ADSC9   192,,PR0                 cn=0,n=300

     1059    16759    2           XUG.BUFA(TPOS)='^';

  16759  2 003632   200253 235100                    LDA     TPOS,,AUTO
PL6.E3A0      #001=XUG$COMMON File=XUG$COMMON.:E05TSI                            WED 07/30/97 09:17 Page:180
         2 003633   040105 100400                    MLR     fill='040'O
         2 003634   000042 000001 3                  ADSC9   34                       cn=0,n=1
         2 003635   000300 000001                    ADSC9   192,A,PR0                cn=0,n=1

     1060    16760    2           XUG.CPOS=P_PCB.NCHARS;

  16760  2 003636   200224 471500                    LDP1    P_PCB$,,AUTO
         2 003637   100011 235100                    LDA     9,,PR1
         2 003640   000104 755100                    STA     68,,PR0

     1061    16761    2           FPT_WRITE.BUF_.BOUND = TPOS;

  16761  2 003641   200253 236100                    LDQ     TPOS,,AUTO
         2 003642   000020 736000                    QLS     16
         2 003643   200024 676100                    ERQ     FPT_WRITE+4,,AUTO
         2 003644   000034 376000 xsym               ANQ     B_VECTNIL+28
         2 003645   200024 656100                    ERSQ    FPT_WRITE+4,,AUTO

     1062    16762    3           CALL M$WRITE(FPT_WRITE) WHENALTRETURN DO ;

  16762  2 003646   200020 630500                    EPPR0   FPT_WRITE,,AUTO
         2 003647   440001 713400                    CLIMB   alt,write
         2 003650   401400 401760                    pmme    nvectors=4
         2 003651   003653 702000 2                  TSX2    s:16765
         2 003652   003653 710000 2                  TRA     s:16765

     1063    16763    3           END ;

     1064    16764    2       END ;                        /* Then Do */

     1065    16765    1       IF NOT B$JIT.PRFLAGS.POINT

  16765  2 003653   000000 470400 xsym               LDP0    B$JIT$
         2 003654   000030 236100                    LDQ     24,,PR0
         2 003655   000200 316003                    CANQ    128,DU
         2 003656   003672 600000 2                  TZE     s:16768
         2 003657   200003 471500                    LDP1    @GETCMD,,AUTO
PL6.E3A0      #001=XUG$COMMON File=XUG$COMMON.:E05TSI                            WED 07/30/97 09:17 Page:181
         2 003660   100006 236100                    LDQ     6,,PR1
         2 003661   200000 316003                    CANQ    65536,DU
         2 003662   004120 600000 2                  TZE     DO_SINPUT
         2 003663   200220 473500                    LDP3    XUG$,,AUTO
         2 003664   300071 236100                    LDQ     57,,PR3
         2 003665   004000 316003                    CANQ    2048,DU
         2 003666   004120 600000 2                  TZE     DO_SINPUT
         2 003667   000030 236100                    LDQ     24,,PR0
         2 003670   000100 316003                    CANQ    64,DU
         2 003671   004120 600000 2                  TZE     DO_SINPUT

     1066    16766    1         OR (GETCMD.TREAD# AND XUG.SYNERR AND B$JIT.PRFLAGS.EXPOUND)
     1067    16767    2       THEN DO;

     1068    16768    2           SAVE_ERR = GETCMD.ERR_CODE ;

  16768  2 003672   200003 471500                    LDP1    @GETCMD,,AUTO
         2 003673   100010 236100                    LDQ     8,,PR1
         2 003674   200323 756100                    STQ     SAVE_ERR,,AUTO

     1069    16769    2           SAVE_DCB = GETCMD.DCB_PARAM# ;

  16769  2 003675   100014 235100                    LDA     12,,PR1
         2 003676   200324 755100                    STA     SAVE_DCB,,AUTO

     1070    16770    2           SAVE_F1 = GETCMD.F1_;

  16770  2 003677   000100 100500                    MLR     fill='000'O
         2 003700   100017 000010                    ADSC9   15,,PR1                  cn=0,n=8
         2 003701   200326 000010                    ADSC9   SAVE_F1,,AUTO            cn=0,n=8

     1071    16771    2           SAVE_F2 = GETCMD.F2_;

  16771  2 003702   000100 100500                    MLR     fill='000'O
         2 003703   100021 000010                    ADSC9   17,,PR1                  cn=0,n=8
         2 003704   200330 000010                    ADSC9   SAVE_F2,,AUTO            cn=0,n=8

PL6.E3A0      #001=XUG$COMMON File=XUG$COMMON.:E05TSI                            WED 07/30/97 09:17 Page:182
     1072    16772    2           XUG.CPOS=P_PCB.NCHARS;

  16772  2 003705   200224 473500                    LDP3    P_PCB$,,AUTO
         2 003706   300011 235100                    LDA     9,,PR3
         2 003707   200220 474500                    LDP4    XUG$,,AUTO
         2 003710   400104 755100                    STA     68,,PR4

     1073    16773    2           IF EPOS<16 OR XUG.CPOS<20

  16773  2 003711   200252 235100                    LDA     EPOS,,AUTO
         2 003712   000020 115007                    CMPA    16,DL
         2 003713   003717 604000 2                  TMI     s:16775
         2 003714   400104 235100                    LDA     68,,PR4
         2 003715   000024 115007                    CMPA    20,DL
         2 003716   003724 605000 2                  TPL     s:16780

     1074    16774    3           THEN DO;

     1075    16775    3               CNT = 0 ;

  16775  2 003717   200350 450100                    STZ     CNT,,AUTO

     1076    16776    3               FIRST = 0 ;

  16776  2 003720   200313 450100                    STZ     FIRST,,AUTO

     1077    16777    3               LAST = EPOS ;

  16777  2 003721   200252 235100                    LDA     EPOS,,AUTO
         2 003722   200314 755100                    STA     LAST,,AUTO

     1078    16778    3           END ;                     /* Then Do */

  16778  2 003723   003741 710000 2                  TRA     s:16784

     1079    16779    3           ELSE DO;

PL6.E3A0      #001=XUG$COMMON File=XUG$COMMON.:E05TSI                            WED 07/30/97 09:17 Page:183
     1080    16780    3               CNT = 10 ;

  16780  2 003724   000012 235007                    LDA     10,DL
         2 003725   200350 755100                    STA     CNT,,AUTO

     1081    16781    3               FIRST = EPOS-10 ;

  16781  2 003726   200252 235100                    LDA     EPOS,,AUTO
         2 003727   000012 135007                    SBLA    10,DL
         2 003730   200313 755100                    STA     FIRST,,AUTO

     1082    16782    3               CALL SCAN_RECORD (-1, FIRST, LAST) ;

  16782  2 003731   200314 635500                    EPPR5   LAST,,AUTO
         2 003732   200355 455500                    STP5    BADCHAR+1,,AUTO
         2 003733   200313 636500                    EPPR6   FIRST,,AUTO
         2 003734   200354 456500                    STP6    @QM_REQUIRED+1,,AUTO
         2 003735   000043 236000 3                  LDQ     35
         2 003736   200353 756100                    STQ     OUTDCB#+2,,AUTO
         2 003737   005721 701000 2                  TSX1    SCAN_RECORD
         2 003740   000000 011000                    NOP     0

     1083    16783    3           END ;                     /* Else Do */

     1084    16784    2           CSIZE = XUG.CPOS ;

  16784  2 003741   200220 470500                    LDP0    XUG$,,AUTO
         2 003742   000104 235100                    LDA     68,,PR0
         2 003743   200254 755100                    STA     CSIZE,,AUTO

     1085    16785    2           FIELD1.TXT = SUBSTR(VBASE(XUG.BUFVEC)->CHARBASE, FIRST,

  16785  2 003744   000001 471500                    LDP1    1,,PR0
         2 003745   200314 236100                    LDQ     LAST,,AUTO
         2 003746   200313 136100                    SBLQ    FIRST,,AUTO
         2 003747   200350 036100                    ADLQ    CNT,,AUTO
         2 003750   000000 620006                    EAX0    0,QL
PL6.E3A0      #001=XUG$COMMON File=XUG$COMMON.:E05TSI                            WED 07/30/97 09:17 Page:184
         2 003751   200313 236100                    LDQ     FIRST,,AUTO
         2 003752   040100 100546                    MLR     fill='040'O
         2 003753   100000 000010                    ADSC9   0,Q,PR1                  cn=0,n=*X0
         2 003754   200332 200024                    ADSC9   FIELD1,,AUTO             cn=1,n=20

     1086    16786    2             LAST - FIRST+CNT) ;
     1087    16787    2           FIELD1.CNT = LAST - FIRST + CNT ;

  16787  2 003755   200314 236100                    LDQ     LAST,,AUTO
         2 003756   200313 136100                    SBLQ    FIRST,,AUTO
         2 003757   200350 036100                    ADLQ    CNT,,AUTO
         2 003760   000033 736000                    QLS     27
         2 003761   200332 552140                    STBQ    FIELD1,'40'O,AUTO

     1088    16788    2           GETCMD.F1_ = VECTOR(FIELD1) ;

  16788  2 003762   000044 235000 3                  LDA     36
         2 003763   200432 452500                    STP2    LEGAL_TEXTC+17,,AUTO
         2 003764   200432 236100                    LDQ     LEGAL_TEXTC+17,,AUTO
         2 003765   000332 036003                    ADLQ    218,DU
         2 003766   200003 471500                    LDP1    @GETCMD,,AUTO
         2 003767   100017 755100                    STA     15,,PR1
         2 003770   100020 756100                    STQ     16,,PR1

     1089    16789    2           IF XUG.CPOS < 20 OR EPOS + 16 > XUG.CPOS

  16789  2 003771   000104 235100                    LDA     68,,PR0
         2 003772   000024 115007                    CMPA    20,DL
         2 003773   004000 604000 2                  TMI     s:16791
         2 003774   200252 236100                    LDQ     EPOS,,AUTO
         2 003775   000020 036007                    ADLQ    16,DL
         2 003776   000104 116100                    CMPQ    68,,PR0
         2 003777   004005 604400 2                  TMOZ    s:16795

     1090    16790    3           THEN DO;

     1091    16791    3               FIRST = EPOS ;
PL6.E3A0      #001=XUG$COMMON File=XUG$COMMON.:E05TSI                            WED 07/30/97 09:17 Page:185

  16791  2 004000   200252 236100                    LDQ     EPOS,,AUTO
         2 004001   200313 756100                    STQ     FIRST,,AUTO

     1092    16792    3               LAST = XUG.CPOS ;

  16792  2 004002   000104 235100                    LDA     68,,PR0
         2 004003   200314 755100                    STA     LAST,,AUTO

     1093    16793    3           END ;                     /* Then Do */

  16793  2 004004   004021 710000 2                  TRA     s:16798

     1094    16794    3           ELSE DO;

     1095    16795    3               FIRST = EPOS ;

  16795  2 004005   200252 235100                    LDA     EPOS,,AUTO
         2 004006   200313 755100                    STA     FIRST,,AUTO

     1096    16796    3               CALL SCAN_RECORD (1, FIRST+10, LAST) ;

  16796  2 004007   000012 035007                    ADLA    10,DL
         2 004010   200437 755100                    STA     LEGAL_TEXTC+22,,AUTO
         2 004011   200314 633500                    EPPR3   LAST,,AUTO
         2 004012   200355 453500                    STP3    BADCHAR+1,,AUTO
         2 004013   200437 634500                    EPPR4   LEGAL_TEXTC+22,,AUTO
         2 004014   200354 454500                    STP4    @QM_REQUIRED+1,,AUTO
         2 004015   000045 236000 3                  LDQ     37
         2 004016   200353 756100                    STQ     OUTDCB#+2,,AUTO
         2 004017   005721 701000 2                  TSX1    SCAN_RECORD
         2 004020   000000 011000                    NOP     0

     1097    16797    3           END ;                     /* Else Do */

     1098    16798    2           FIELD2.TXT = SUBSTR(VBASE(XUG.BUFVEC)->CHARBASE, FIRST,

PL6.E3A0      #001=XUG$COMMON File=XUG$COMMON.:E05TSI                            WED 07/30/97 09:17 Page:186
  16798  2 004021   200220 470500                    LDP0    XUG$,,AUTO
         2 004022   000001 471500                    LDP1    1,,PR0
         2 004023   200314 236100                    LDQ     LAST,,AUTO
         2 004024   200313 136100                    SBLQ    FIRST,,AUTO
         2 004025   000000 620006                    EAX0    0,QL
         2 004026   200313 235100                    LDA     FIRST,,AUTO
         2 004027   040100 100545                    MLR     fill='040'O
         2 004030   100000 000010                    ADSC9   0,A,PR1                  cn=0,n=*X0
         2 004031   200340 200024                    ADSC9   FIELD2,,AUTO             cn=1,n=20

     1099    16799    2             LAST - FIRST) ;
     1100    16800    2           FIELD2.CNT = LAST - FIRST ;

  16800  2 004032   200314 236100                    LDQ     LAST,,AUTO
         2 004033   200313 136100                    SBLQ    FIRST,,AUTO
         2 004034   000033 736000                    QLS     27
         2 004035   200340 552140                    STBQ    FIELD2,'40'O,AUTO

     1101    16801    2           GETCMD.F2_ = VECTOR(FIELD2) ;

  16801  2 004036   000044 235000 3                  LDA     36
         2 004037   200432 452500                    STP2    LEGAL_TEXTC+17,,AUTO
         2 004040   200432 236100                    LDQ     LEGAL_TEXTC+17,,AUTO
         2 004041   000340 036003                    ADLQ    224,DU
         2 004042   200003 471500                    LDP1    @GETCMD,,AUTO
         2 004043   100021 755100                    STA     17,,PR1
         2 004044   100022 756100                    STQ     18,,PR1

     1102    16802    2           GETCMD.DCB_PARAM# = OUTDCB# ;

  16802  2 004045   200351 235100                    LDA     OUTDCB#,,AUTO
         2 004046   100014 755100                    STA     12,,PR1

     1103    16803    2           IF XUG.SYNERR

  16803  2 004047   000071 236100                    LDQ     57,,PR0
         2 004050   004000 316003                    CANQ    2048,DU
PL6.E3A0      #001=XUG$COMMON File=XUG$COMMON.:E05TSI                            WED 07/30/97 09:17 Page:187
         2 004051   004077 600000 2                  TZE     s:16815

     1104    16804    2           THEN
     1105    16805    2               IF B$JIT.PRFLAGS.POINT

  16805  2 004052   000000 473400 xsym               LDP3    B$JIT$
         2 004053   300030 236100                    LDQ     24,,PR3
         2 004054   000200 316003                    CANQ    128,DU
         2 004055   004061 600000 2                  TZE     s:16809

     1106    16806    2               THEN
     1107    16807    2                   GETCMD.ERR_CODE = XUG#INCOR_PTD_XPND;

  16807  2 004056   000167 236000 0                  LDQ     XUG#INCOR_PTD_XPND
         2 004057   100010 756100                    STQ     8,,PR1
         2 004060   004101 710000 2                  TRA     s:16816

     1108    16808    2               ELSE
     1109    16809    2                   IF B$JIT.PRFLAGS.EXPOUND AND GETCMD.TREAD# AND NOT XUG.GOODCMD

  16809  2 004061   000100 316003                    CANQ    64,DU
         2 004062   004074 600000 2                  TZE     s:16813
         2 004063   100006 236100                    LDQ     6,,PR1
         2 004064   200000 316003                    CANQ    65536,DU
         2 004065   004074 600000 2                  TZE     s:16813
         2 004066   000071 236100                    LDQ     57,,PR0
         2 004067   000010 316003                    CANQ    8,DU
         2 004070   004074 601000 2                  TNZ     s:16813

     1110    16810    2                   THEN
     1111    16811    2                       GETCMD.ERR_CODE = XUG#INCOR_HERE_XPND;

  16811  2 004071   000170 236000 0                  LDQ     XUG#INCOR_HERE_XPND
         2 004072   100010 756100                    STQ     8,,PR1
         2 004073   004101 710000 2                  TRA     s:16816

     1112    16812    2                   ELSE
PL6.E3A0      #001=XUG$COMMON File=XUG$COMMON.:E05TSI                            WED 07/30/97 09:17 Page:188
     1113    16813    2                       GETCMD.ERR_CODE = XUG#INCOR_HERE;

  16813  2 004074   000171 236000 0                  LDQ     XUG#INCOR_HERE
         2 004075   100010 756100                    STQ     8,,PR1
         2 004076   004101 710000 2                  TRA     s:16816

     1114    16814    2           ELSE
     1115    16815    2               GETCMD.ERR_CODE = XUG#PLERRMSG ;

  16815  2 004077   000166 236000 0                  LDQ     XUG#PLERRMSG
         2 004100   100010 756100                    STQ     8,,PR1

     1116    16816    2           CALL XUG$ERRMSG_COMMON(GETCMD) ALTRET(EAT_IT) ;

  16816  2 004101   200003 630500                    EPPR0   @GETCMD,,AUTO
         2 004102   000017 631400 xsym               EPPR1   B_VECTNIL+15
         2 004103   000000 701000 xent               TSX1    XUG$ERRMSG_COMMON
         2 004104   004105 702000 2                  TSX2    EAT_IT

     1117    16817    2   EAT_IT:
     1118    16818    2           GETCMD.ERR_CODE = SAVE_ERR ;

  16818  2 004105   200323 236100       EAT_IT       LDQ     SAVE_ERR,,AUTO
         2 004106   200003 470500                    LDP0    @GETCMD,,AUTO
         2 004107   000010 756100                    STQ     8,,PR0

     1119    16819    2           GETCMD.DCB_PARAM# = SAVE_DCB ;

  16819  2 004110   200324 235100                    LDA     SAVE_DCB,,AUTO
         2 004111   000014 755100                    STA     12,,PR0

     1120    16820    2           GETCMD.F1_ = SAVE_F1 ;

  16820  2 004112   200326 237100                    LDAQ    SAVE_F1,,AUTO
         2 004113   000017 755100                    STA     15,,PR0
         2 004114   000020 756100                    STQ     16,,PR0

PL6.E3A0      #001=XUG$COMMON File=XUG$COMMON.:E05TSI                            WED 07/30/97 09:17 Page:189
     1121    16821    2           GETCMD.F2_ = SAVE_F2 ;

  16821  2 004115   200330 237100                    LDAQ    SAVE_F2,,AUTO
         2 004116   000021 755100                    STA     17,,PR0
         2 004117   000022 756100                    STQ     18,,PR0

     1122    16822        /*E*  ERROR:    XUG-E$XUG#PLERRMSG
     1123    16823              MESSAGE0: Error at <?>: '%%U1%<?>%%U2%'
     1124    16824        */
     1125    16825        /*E*  ERROR:    XUG-E$XUG#INCOR_HERE
     1126    16826              MESSAGE0: Incorrect input at <?>: '%%U1%<?>%%U2%'.
     1127    16827        */
     1128    16828        /*E*  ERROR:    XUG-E$XUG#INCOR_HERE_XPND
     1129    16829              MESSAGE0: Incorrect input at <?>: '%%U1%<?>%%U2%'.
     1130    16830                        Type a "?" for details.
     1131    16831        */
     1132    16832        /*E*  ERROR:    XUG-E$XUG#INCOR_PTD_XPND
     1133    16833              MESSAGE0: Incorrect input at the "^".  Type a "?" for details.
     1134    16834        */
     1135    16835    2       END ;                        /* Else Do */

     1136    16836    1   DO_SINPUT:
     1137    16837    1       XUG.POINTED_TO_SYNERR = XUG.SYNERR | XUG.QM_AFTER_SYNERR;

  16837  2 004120   200220 470500       DO_SINPUT    LDP0    XUG$,,AUTO
         2 004121   000071 236100                    LDQ     57,,PR0
         2 004122   000024 736000                    QLS     20
         2 004123   400000 376003                    ANQ     -131072,DU
         2 004124   200432 756100                    STQ     LEGAL_TEXTC+17,,AUTO
         2 004125   000071 236100                    LDQ     57,,PR0
         2 004126   000006 736000                    QLS     6
         2 004127   400000 376003                    ANQ     -131072,DU
         2 004130   200432 276100                    ORQ     LEGAL_TEXTC+17,,AUTO
         2 004131   000023 772000                    QRL     19
         2 004132   000071 676100                    ERQ     57,,PR0
         2 004133   200000 376007                    ANQ     65536,DL
         2 004134   000071 656100                    ERSQ    57,,PR0
PL6.E3A0      #001=XUG$COMMON File=XUG$COMMON.:E05TSI                            WED 07/30/97 09:17 Page:190
         2 004135   004140 710000 2                  TRA     s:16839

     1138    16838    1   XUG$SINPUT: ENTRY (GETCMD) ALTRET;

  16838  2 004136   000000 700200 xent  XUG$SINPUT   TSX0  ! X66_AUTO_2
         2 004137   000440 000002                    ZERO    288,2

     1139    16839    1       XUG$ = GETCMD.WORK$ ;

  16839  2 004140   200003 470500                    LDP0    @GETCMD,,AUTO
         2 004141   000004 236100                    LDQ     4,,PR0
         2 004142   200220 756100                    STQ     XUG$,,AUTO

     1140    16840    1       CSIZE = XUG.CPOS ;

  16840  2 004143   200220 471500                    LDP1    XUG$,,AUTO
         2 004144   100104 235100                    LDA     68,,PR1
         2 004145   200254 755100                    STA     CSIZE,,AUTO

     1141    16841    1       IF GETCMD.TREAD# AND NOT GETCMD.CONTINUED# AND CSIZE < 255

  16841  2 004146   000006 236100                    LDQ     6,,PR0
         2 004147   200000 316003                    CANQ    65536,DU
         2 004150   004404 600000 2                  TZE     SINPUT_ERR
         2 004151   100000 316003                    CANQ    32768,DU
         2 004152   004404 601000 2                  TNZ     SINPUT_ERR
         2 004153   000377 115007                    CMPA    255,DL
         2 004154   004404 605000 2                  TPL     SINPUT_ERR
         2 004155   000000 473400 xsym               LDP3    B$JIT$
         2 004156   300156 236100                    LDQ     110,,PR3
         2 004157   000033 772000                    QRL     27
         2 004160   000003 116007                    CMPQ    3,DL
         2 004161   004163 603000 2                  TRC     s:16841+13
         2 004162   000003 236007                    LDQ     3,DL
         2 004163   000000 116003                    CMPQ    0,DU
         2 004164   004404 604000 2                  TMI     SINPUT_ERR
         2 004165   200254 116100                    CMPQ    CSIZE,,AUTO
PL6.E3A0      #001=XUG$COMMON File=XUG$COMMON.:E05TSI                            WED 07/30/97 09:17 Page:191
         2 004166   004404 605400 2                  TPNZ    SINPUT_ERR
         2 004167   300030 236100                    LDQ     24,,PR3
         2 004170   000040 316003                    CANQ    32,DU
         2 004171   004177 601000 2                  TNZ     s:16845
         2 004172   100267 220100                    LDX0    183,,PR1
         2 004173   004404 604400 2                  TMOZ    SINPUT_ERR
         2 004174   100266 236100                    LDQ     182,,PR1
         2 004175   100000 316007                    CANQ    32768,DL
         2 004176   004404 600000 2                  TZE     SINPUT_ERR

     1142    16842    1         AND CSIZE >= MAXIMUM (B$JIT.SINPUTSZ, 3)
     1143    16843    1         AND (B$JIT.PRFLAGS.POSITION OR (XUG.CCBUF_OFFC>0 AND XUG.DONT_REREAD_CCBUF))
     1144    16844    2       THEN DO;

     1145    16845    2           FPT_SINPUT = FPT_SINPUT_C ;

  16845  2 004177   000100 100400                    MLR     fill='000'O
         2 004200   000150 000040 0                  ADSC9   FPT_SINPUT_C             cn=0,n=32
         2 004201   200140 000040                    ADSC9   FPT_SINPUT,,AUTO         cn=0,n=32

     1146    16846    2           FPT_SINPUT.V_ = VECTOR(FPT_SINPUT.V) ;

  16846  2 004202   000002 235000 3                  LDA     2
         2 004203   200432 452500                    STP2    LEGAL_TEXTC+17,,AUTO
         2 004204   200432 236100                    LDQ     LEGAL_TEXTC+17,,AUTO
         2 004205   000146 036003                    ADLQ    102,DU
         2 004206   200140 757100                    STAQ    FPT_SINPUT,,AUTO

     1147    16847    2           FPT_SINPUT.V.DCB# = GETCMD.INDCB# ;

  16847  2 004207   000012 720100                    LXL0    10,,PR0
         2 004210   200146 740100                    STX0    FPT_SINPUT+6,,AUTO

     1148    16848    2           XUG.BUF = ' ' ;

  16848  2 004211   040100 100400                    MLR     fill='040'O
         2 004212   000035 000001 xsym               ADSC9   B_VECTNIL+29             cn=0,n=1
PL6.E3A0      #001=XUG$COMMON File=XUG$COMMON.:E05TSI                            WED 07/30/97 09:17 Page:192
         2 004213   100300 000454                    ADSC9   192,,PR1                 cn=0,n=300

     1149    16849    2           POFF = 0 ;

  16849  2 004214   200256 450100                    STZ     POFF,,AUTO

     1150    16850    2           IF GETCMD.RCVD_PROMPT#

  16850  2 004215   000006 236100                    LDQ     6,,PR0
         2 004216   020000 316003                    CANQ    8192,DU
         2 004217   004222 600000 2                  TZE     s:16853

     1151    16851    2           THEN
     1152    16852    2               POFF = XUG.POFF ;

  16852  2 004220   100036 235100                    LDA     30,,PR1
         2 004221   200256 755100                    STA     POFF,,AUTO

     1153    16853    2           TO$ = ADDR(XUG.BUF) ;

  16853  2 004222   200220 236100                    LDQ     XUG$,,AUTO
         2 004223   000300 036003                    ADLQ    192,DU
         2 004224   200231 756100                    STQ     TO$,,AUTO

     1154    16854    2           IF B$JIT.PRFLAGS.POSITION

  16854  2 004225   300030 236100                    LDQ     24,,PR3
         2 004226   000040 316003                    CANQ    32,DU
         2 004227   004251 600000 2                  TZE     s:16863

     1155    16855    3           THEN DO;

     1156    16856    3               TCSIZE = 0 ;

  16856  2 004230   200255 450100                    STZ     TCSIZE,,AUTO

     1157    16857    3               IF NOT XUG.DONT_REREAD_CCBUF
PL6.E3A0      #001=XUG$COMMON File=XUG$COMMON.:E05TSI                            WED 07/30/97 09:17 Page:193

  16857  2 004231   100266 236100                    LDQ     182,,PR1
         2 004232   100000 316007                    CANQ    32768,DL
         2 004233   004237 601000 2                  TNZ     s:16860

     1158    16858    3               THEN
     1159    16859    3                   TCSIZE = XUG.CCBUF_OFFC ;

  16859  2 004234   100267 236100                    LDQ     183,,PR1
         2 004235   000022 732000                    QRS     18
         2 004236   200255 756100                    STQ     TCSIZE,,AUTO

     1160    16860    3               TO$ -> UBIN$BUF9 = EPOS + POFF + TCSIZE + 1 ;

  16860  2 004237   200252 236100                    LDQ     EPOS,,AUTO
         2 004240   200256 036100                    ADLQ    POFF,,AUTO
         2 004241   200255 036100                    ADLQ    TCSIZE,,AUTO
         2 004242   000001 036007                    ADLQ    1,DL
         2 004243   200432 756100                    STQ     LEGAL_TEXTC+17,,AUTO
         2 004244   200231 474500                    LDP4    TO$,,AUTO
         2 004245   003100 061500                    CSR     bolr='003'O
         2 004246   200432 000044                    BDSC    LEGAL_TEXTC+17,,AUTO     by=0,bit=0,n=36
         2 004247   400000 000011                    BDSC    0,,PR4                   by=0,bit=0,n=9

     1161    16861    3           END;

  16861  2 004250   004255 710000 2                  TRA     s:16864

     1162    16862    2           ELSE
     1163    16863    2               TO$ -> UBIN$BUF9 = 0 ;

  16863  2 004251   200231 474500                    LDP4    TO$,,AUTO
         2 004252   003100 061400                    CSR     bolr='003'O
         2 004253   000002 000044 xsym               BDSC    B_VECTNIL+2              by=0,bit=0,n=36
         2 004254   400000 000011                    BDSC    0,,PR4                   by=0,bit=0,n=9

     1164    16864    2           TO$ = PINCRC(TO$, 1) ;
PL6.E3A0      #001=XUG$COMMON File=XUG$COMMON.:E05TSI                            WED 07/30/97 09:17 Page:194

  16864  2 004255   200231 236100                    LDQ     TO$,,AUTO
         2 004256   200000 036007                    ADLQ    65536,DL
         2 004257   200231 756100                    STQ     TO$,,AUTO

     1165    16865    2           IF GETCMD.RCVD_PROMPT#

  16865  2 004260   000006 236100                    LDQ     6,,PR0
         2 004261   020000 316003                    CANQ    8192,DU
         2 004262   004306 600000 2                  TZE     s:16873

     1166    16866    3           THEN DO;

     1167    16867    3               TCSIZE = CSIZE ;

  16867  2 004263   200254 235100                    LDA     CSIZE,,AUTO
         2 004264   200255 755100                    STA     TCSIZE,,AUTO

     1168    16868    3               CSIZE = POFF ;

  16868  2 004265   200256 235100                    LDA     POFF,,AUTO
         2 004266   200254 755100                    STA     CSIZE,,AUTO

     1169    16869    3               TO$ -> CHARBASE = SUBSTR(XUG.PROMPT,BITBIN(XUG.PROMPT_VFC),POFF) ;

  16869  2 004267   100071 236100                    LDQ     57,,PR1
         2 004270   000024 772000                    QRL     20
         2 004271   000001 376007                    ANQ     1,DL
         2 004272   000000 620005                    EAX0    0,AL
         2 004273   200231 474500                    LDP4    TO$,,AUTO
         2 004274   200254 721100                    LXL1    CSIZE,,AUTO
         2 004275   040140 100546                    MLR     fill='040'O
         2 004276   100037 000010                    ADSC9   31,Q,PR1                 cn=0,n=*X0
         2 004277   400000 000011                    ADSC9   0,,PR4                   cn=0,n=*X1

     1170    16870    3               TO$ = PINCRC(TO$, POFF) ;

PL6.E3A0      #001=XUG$COMMON File=XUG$COMMON.:E05TSI                            WED 07/30/97 09:17 Page:195
  16870  2 004300   200256 236100                    LDQ     POFF,,AUTO
         2 004301   000020 736000                    QLS     16
         2 004302   200231 036100                    ADLQ    TO$,,AUTO
         2 004303   200231 756100                    STQ     TO$,,AUTO

     1171    16871    3               CSIZE = TCSIZE ;

  16871  2 004304   200255 235100                    LDA     TCSIZE,,AUTO
         2 004305   200254 755100                    STA     CSIZE,,AUTO

     1172    16872    3           END;

     1173    16873    2           TCSIZE = 0 ;

  16873  2 004306   200255 450100                    STZ     TCSIZE,,AUTO

     1174    16874    2           IF XUG.CCBUF_OFFC > 0 AND NOT XUG.DONT_REREAD_CCBUF

  16874  2 004307   100267 220100                    LDX0    183,,PR1
         2 004310   004330 604400 2                  TMOZ    s:16880
         2 004311   100266 236100                    LDQ     182,,PR1
         2 004312   100000 316007                    CANQ    32768,DL
         2 004313   004330 601000 2                  TNZ     s:16880

     1175    16875    3           THEN DO;

     1176    16876    3               SUBSTR( TO$ -> CHARBASE , 0 , XUG.CCBUF_OFFC ) = B$JIT.CCBUF ;

  16876  2 004314   200231 474500                    LDP4    TO$,,AUTO
         2 004315   040140 100500                    MLR     fill='040'O
         2 004316   300033 000400                    ADSC9   27,,PR3                  cn=0,n=256
         2 004317   400000 000010                    ADSC9   0,,PR4                   cn=0,n=*X0

     1177    16877    3               TO$ = PINCRC( TO$ , XUG.CCBUF_OFFC );

  16877  2 004320   100267 236100                    LDQ     183,,PR1
         2 004321   000022 732000                    QRS     18
PL6.E3A0      #001=XUG$COMMON File=XUG$COMMON.:E05TSI                            WED 07/30/97 09:17 Page:196
         2 004322   000020 736000                    QLS     16
         2 004323   200231 036100                    ADLQ    TO$,,AUTO
         2 004324   200231 756100                    STQ     TO$,,AUTO

     1178    16878    3               TCSIZE = XUG.CCBUF_OFFC ;

  16878  2 004325   100267 236100                    LDQ     183,,PR1
         2 004326   000022 732000                    QRS     18
         2 004327   200255 756100                    STQ     TCSIZE,,AUTO

     1179    16879    3           END;

     1180    16880    2           TO$ -> CHARBASE = VBASE( XUG.BUFVEC )-> CHARBASE ;

  16880  2 004330   100001 474500                    LDP4    1,,PR1
         2 004331   200254 720100                    LXL0    CSIZE,,AUTO
         2 004332   200231 475500                    LDP5    TO$,,AUTO
         2 004333   040140 100540                    MLR     fill='040'O
         2 004334   400000 000010                    ADSC9   0,,PR4                   cn=0,n=*X0
         2 004335   500000 000010                    ADSC9   0,,PR5                   cn=0,n=*X0

     1181    16881    2           IF XUG.CCBUF_REST > 0 AND NOT XUG.DONT_REREAD_CCBUF

  16881  2 004336   100267 720100                    LXL0    183,,PR1
         2 004337   004365 604400 2                  TMOZ    s:16887
         2 004340   100266 236100                    LDQ     182,,PR1
         2 004341   100000 316007                    CANQ    32768,DL
         2 004342   004365 601000 2                  TNZ     s:16887

     1182    16882    3           THEN DO;

     1183    16883    3               SUBSTR( PINCRC( TO$ , CSIZE )-> CHARBASE , 0 , XUG.CCBUF_REST ) =

  16883  2 004343   100267 236100                    LDQ     183,,PR1
         2 004344   000022 736000                    QLS     18
         2 004345   000022 732000                    QRS     18
         2 004346   200432 756100                    STQ     LEGAL_TEXTC+17,,AUTO
PL6.E3A0      #001=XUG$COMMON File=XUG$COMMON.:E05TSI                            WED 07/30/97 09:17 Page:197
         2 004347   300032 236100                    LDQ     26,,PR3
         2 004350   000022 732000                    QRS     18
         2 004351   200432 136100                    SBLQ    LEGAL_TEXTC+17,,AUTO
         2 004352   777377 621006                    EAX1    -257,QL
         2 004353   777777 661003                    ERX1    -1,DU
         2 004354   200254 235100                    LDA     CSIZE,,AUTO
         2 004355   040145 100546                    MLR     fill='040'O
         2 004356   300033 000011                    ADSC9   27,Q,PR3                 cn=0,n=*X1
         2 004357   500000 000010                    ADSC9   0,A,PR5                  cn=0,n=*X0

     1184    16884    3                 SUBSTR( B$JIT.CCBUF , B$JIT.CCARS - XUG.CCBUF_REST );
     1185    16885    3               TCSIZE = TCSIZE + XUG.CCBUF_REST ;

  16885  2 004360   100267 236100                    LDQ     183,,PR1
         2 004361   000022 736000                    QLS     18
         2 004362   000022 732000                    QRS     18
         2 004363   200255 036100                    ADLQ    TCSIZE,,AUTO
         2 004364   200255 756100                    STQ     TCSIZE,,AUTO

     1186    16886    3           END;

     1187    16887    2           FPT_SINPUT.BUF_ = VECTOR(XUG.BUF) ;

  16887  2 004365   000040 235000 3                  LDA     32
         2 004366   200220 236100                    LDQ     XUG$,,AUTO
         2 004367   000300 036003                    ADLQ    192,DU
         2 004370   200144 757100                    STAQ    FPT_SINPUT+4,,AUTO

     1188    16888    2           FPT_SINPUT.BUF_.BOUND = CSIZE + TCSIZE + POFF ;

  16888  2 004371   200254 236100                    LDQ     CSIZE,,AUTO
         2 004372   200255 036100                    ADLQ    TCSIZE,,AUTO
         2 004373   200256 036100                    ADLQ    POFF,,AUTO
         2 004374   000020 736000                    QLS     16
         2 004375   200144 676100                    ERQ     FPT_SINPUT+4,,AUTO
         2 004376   000034 376000 xsym               ANQ     B_VECTNIL+28
         2 004377   200144 656100                    ERSQ    FPT_SINPUT+4,,AUTO
PL6.E3A0      #001=XUG$COMMON File=XUG$COMMON.:E05TSI                            WED 07/30/97 09:17 Page:198

     1189    16889    2           CALL M$SINPUT(FPT_SINPUT) ALTRET(SINPUT_ERR) ;

  16889  2 004400   200140 630500                    EPPR0   FPT_SINPUT,,AUTO
         2 004401   560013 713400                    CLIMB   alt,+57355
         2 004402   401000 401760                    pmme    nvectors=3
         2 004403   004404 702000 2                  TSX2    SINPUT_ERR

     1190    16890    2   SINPUT_ERR:
     1191    16891    2       END ;                        /* Then Do */

  16891  2 004404                       SINPUT_ERR   null
     1192    16892    1       RETURN;

  16892  2 004404   000000 702200 xent               TSX2  ! X66_ARET

     1193    16893        %EJECT;
PL6.E3A0      #001=XUG$COMMON File=XUG$COMMON.:E05TSI                            WED 07/30/97 09:17 Page:199
     1194    16894    1   XUG$ECHOIF_COMMON: ENTRY(GETCMD) ALTRET;

  16894  2 004405   000000 700200 xent  XUG$ECHOIF_* TSX0  ! X66_AUTO_2
         2 004406   000440 000002                    ZERO    288,2

     1195    16895    1       XUG$ = GETCMD.WORK$ ;

  16895  2 004407   200003 470500                    LDP0    @GETCMD,,AUTO
         2 004410   000004 236100                    LDQ     4,,PR0
         2 004411   200220 756100                    STQ     XUG$,,AUTO

     1196    16896    1       IF GETCMD.DCB_PARAM# = DCBNUM( NIL )

  16896  2 004412   000014 235100                    LDA     12,,PR0
         2 004413   004416 601000 2                  TNZ     s:16899

     1197    16897    1       THEN
     1198    16898    1           GETCMD.DCB_PARAM# = GETCMD.OUTDCB# ;

  16898  2 004414   000013 235100                    LDA     11,,PR0
         2 004415   000014 755100                    STA     12,,PR0

     1199    16899    1       IF GETCMD.DCB_PARAM# ~= DCBNUM(NIL)

  16899  2 004416   004421 600000 2                  TZE     s:16903

     1200    16900    1       THEN
     1201    16901    1           OUTDCB# = GETCMD.DCB_PARAM# ;

  16901  2 004417   200351 755100                    STA     OUTDCB#,,AUTO
         2 004420   004431 710000 2                  TRA     s:16904

     1202    16902    1       ELSE
     1203    16903    1           CALL XUG$GETDCB_COMMON(M$LO,OUTDCB#) ALTRET(MALT) ;

  16903  2 004421   200351 631500                    EPPR1   OUTDCB#,,AUTO
         2 004422   200433 451500                    STP1    LEGAL_TEXTC+18,,AUTO
PL6.E3A0      #001=XUG$COMMON File=XUG$COMMON.:E05TSI                            WED 07/30/97 09:17 Page:200
         2 004423   000016 236000 3                  LDQ     14
         2 004424   200432 756100                    STQ     LEGAL_TEXTC+17,,AUTO
         2 004425   200432 630500                    EPPR0   LEGAL_TEXTC+17,,AUTO
         2 004426   000020 631400 xsym               EPPR1   B_VECTNIL+16
         2 004427   000000 701000 xent               TSX1    XUG$GETDCB_COMMON
         2 004430   002543 702000 2                  TSX2    MALT

     1204    16904    1       IF DCBADDR(XUG.DCBS.NUM(0))->F$DCB.DDEV.XEQ# THEN I=1;

  16904  2 004431   000023 470400 3                  LDP0    19
         2 004432   000000 471500                    LDP1    0,,PR0
         2 004433   200220 473500                    LDP3    XUG$,,AUTO
         2 004434   300113 220100                    LDX0    75,,PR3
         2 004435   100000 474510                    LDP4    0,X0,PR1
         2 004436   400004 236100                    LDQ     4,,PR4
         2 004437   040000 316007                    CANQ    16384,DL
         2 004440   004444 600000 2                  TZE     s:16905

  16904  2 004441   000001 235007                    LDA     1,DL
         2 004442   200250 755100                    STA     I,,AUTO
         2 004443   004445 710000 2                  TRA     s:16906

     1205    16905    1       ELSE I=0;

  16905  2 004444   200250 450100                    STZ     I,,AUTO

     1206    16906    2       DO I=I TO XUG.NDCBS;

  16906  2 004445   004465 710000 2                  TRA     s:16909+1

     1207    16907    2           CALL XUG$CORRES_COMMON(OUTDCB#,BINBIT(XUG.DCBS.NUM(I),36))

  16907  2 004446   200250 235100                    LDA     I,,AUTO
         2 004447   000001 735000                    ALS     1
         2 004450   200220 470500                    LDP0    XUG$,,AUTO
         2 004451   000113 236105                    LDQ     75,AL,PR0
         2 004452   000022 772000                    QRL     18
PL6.E3A0      #001=XUG$COMMON File=XUG$COMMON.:E05TSI                            WED 07/30/97 09:17 Page:201
         2 004453   200432 756100                    STQ     LEGAL_TEXTC+17,,AUTO
         2 004454   200432 631500                    EPPR1   LEGAL_TEXTC+17,,AUTO
         2 004455   200435 451500                    STP1    LEGAL_TEXTC+20,,AUTO
         2 004456   200351 633500                    EPPR3   OUTDCB#,,AUTO
         2 004457   200434 453500                    STP3    LEGAL_TEXTC+19,,AUTO
         2 004460   200434 630500                    EPPR0   LEGAL_TEXTC+19,,AUTO
         2 004461   000020 631400 xsym               EPPR1   B_VECTNIL+16
         2 004462   000000 701000 xent               TSX1    XUG$CORRES_COMMON
         2 004463   005044 702000 2                  TSX2    NO_ECHO

     1208    16908    2             ALTRET(NO_ECHO);
     1209    16909    2       END;

  16909  2 004464   200250 054100                    AOS     I,,AUTO
         2 004465   200220 470500                    LDP0    XUG$,,AUTO
         2 004466   200250 236100                    LDQ     I,,AUTO
         2 004467   000112 116100                    CMPQ    74,,PR0
         2 004470   004446 604400 2                  TMOZ    s:16907

     1210    16910    1       GOTO MAYBE_ECHO ;

  16910  2 004471   004516 710000 2                  TRA     MAYBE_ECHO

     1211    16911    1   XUG$ECHO_COMMON: ENTRY(GETCMD) ALTRET;

  16911  2 004472   000000 700200 xent  XUG$ECHO_CO* TSX0  ! X66_AUTO_2
         2 004473   000440 000002                    ZERO    288,2

     1212    16912    1       XUG$ = GETCMD.WORK$ ;

  16912  2 004474   200003 470500                    LDP0    @GETCMD,,AUTO
         2 004475   000004 236100                    LDQ     4,,PR0
         2 004476   200220 756100                    STQ     XUG$,,AUTO

     1213    16913    1       IF GETCMD.DCB_PARAM# = DCBNUM( NIL )

  16913  2 004477   000014 235100                    LDA     12,,PR0
PL6.E3A0      #001=XUG$COMMON File=XUG$COMMON.:E05TSI                            WED 07/30/97 09:17 Page:202
         2 004500   004503 601000 2                  TNZ     s:16916

     1214    16914    1       THEN
     1215    16915    1           GETCMD.DCB_PARAM# = GETCMD.OUTDCB# ;

  16915  2 004501   000013 235100                    LDA     11,,PR0
         2 004502   000014 755100                    STA     12,,PR0

     1216    16916    1       IF GETCMD.DCB_PARAM# ~= DCBNUM(NIL)

  16916  2 004503   004506 600000 2                  TZE     s:16920

     1217    16917    1       THEN
     1218    16918    1           OUTDCB# = GETCMD.DCB_PARAM# ;

  16918  2 004504   200351 755100                    STA     OUTDCB#,,AUTO
         2 004505   004516 710000 2                  TRA     MAYBE_ECHO

     1219    16919    1       ELSE
     1220    16920    1           CALL XUG$GETDCB_COMMON(M$LO,OUTDCB#) ALTRET(MALT) ;

  16920  2 004506   200351 631500                    EPPR1   OUTDCB#,,AUTO
         2 004507   200433 451500                    STP1    LEGAL_TEXTC+18,,AUTO
         2 004510   000016 236000 3                  LDQ     14
         2 004511   200432 756100                    STQ     LEGAL_TEXTC+17,,AUTO
         2 004512   200432 630500                    EPPR0   LEGAL_TEXTC+17,,AUTO
         2 004513   000020 631400 xsym               EPPR1   B_VECTNIL+16
         2 004514   000000 701000 xent               TSX1    XUG$GETDCB_COMMON
         2 004515   002543 702000 2                  TSX2    MALT

  16916  2 004516                       MAYBE_ECHO   null
     1221    16921    1   MAYBE_ECHO: ;
     1222    16922    1       GETCMD.DCB_PARAM# = OUTDCB# ;

  16922  2 004516   200351 235100                    LDA     OUTDCB#,,AUTO
         2 004517   200003 470500                    LDP0    @GETCMD,,AUTO
         2 004520   000014 755100                    STA     12,,PR0
PL6.E3A0      #001=XUG$COMMON File=XUG$COMMON.:E05TSI                            WED 07/30/97 09:17 Page:203

     1223    16923    1       IF DCBADDR(GETCMD.INDCB#) -> F$DCB.DVBYTE.TRANS#

  16923  2 004521   000023 471400 3                  LDP1    19
         2 004522   100000 473500                    LDP3    0,,PR1
         2 004523   000012 720100                    LXL0    10,,PR0
         2 004524   300000 474510                    LDP4    0,X0,PR3
         2 004525   400003 236100                    LDQ     3,,PR4
         2 004526   020000 316003                    CANQ    8192,DU
         2 004527   005044 601000 2                  TNZ     NO_ECHO

     1224    16924    1       THEN
     1225    16925    1           GOTO NO_ECHO ;
     1226    16926    1       IF XUG.NDCBS < 9 THEN

  16926  2 004530   200220 475500                    LDP5    XUG$,,AUTO
         2 004531   500112 235100                    LDA     74,,PR5
         2 004532   000011 115007                    CMPA    9,DL
         2 004533   004535 605000 2                  TPL     s:16928

     1227    16927    1           XUG.NDCBS=XUG.NDCBS+1;

  16927  2 004534   500112 054100                    AOS     74,,PR5

     1228    16928    1       XUG.DCBS.NUM(XUG.NDCBS)=OUTDCB# ;

  16928  2 004535   500112 235100                    LDA     74,,PR5
         2 004536   000001 735000                    ALS     1
         2 004537   200351 720100                    LXL0    OUTDCB#,,AUTO
         2 004540   500113 740105                    STX0    75,AL,PR5

     1229    16929    1       XUG.DCBS.ERRPTR_CPOS(XUG.NDCBS) = -1;

  16929  2 004541   500112 235100                    LDA     74,,PR5
         2 004542   000001 735000                    ALS     1
         2 004543   777777 220003                    LDX0    -1,DU
         2 004544   500113 440105                    SXL0    75,AL,PR5
PL6.E3A0      #001=XUG$COMMON File=XUG$COMMON.:E05TSI                            WED 07/30/97 09:17 Page:204

     1230    16930    1       CNT = 0 ;

  16930  2 004545   200350 450100                    STZ     CNT,,AUTO

     1231    16931    2       DO J=1 TO XUG.NLINES-1 ;

  16931  2 004546   000001 235007                    LDA     1,DL
         2 004547   200251 755100                    STA     J,,AUTO
         2 004550   004563 710000 2                  TRA     s:16933+1

     1232    16932    2           CNT = CNT + VBASE(XUG.RLTVEC) ->RLT(J) ;

  16932  2 004551   200220 470500                    LDP0    XUG$,,AUTO
         2 004552   000013 471500                    LDP1    11,,PR0
         2 004553   200251 235100                    LDA     J,,AUTO
         2 004554   000100 101505                    MRL     fill='000'O
         2 004555   100000 000001                    ADSC9   0,A,PR1                  cn=0,n=1
         2 004556   200432 000004                    ADSC9   LEGAL_TEXTC+17,,AUTO     cn=0,n=4
         2 004557   200432 236100                    LDQ     LEGAL_TEXTC+17,,AUTO
         2 004560   200350 036100                    ADLQ    CNT,,AUTO
         2 004561   200350 756100                    STQ     CNT,,AUTO

     1233    16933    2       END ;                        /* Do J */

  16933  2 004562   200251 054100                    AOS     J,,AUTO
         2 004563   200220 470500                    LDP0    XUG$,,AUTO
         2 004564   200251 236100                    LDQ     J,,AUTO
         2 004565   000106 116100                    CMPQ    70,,PR0
         2 004566   004551 604000 2                  TMI     s:16932

     1234    16934    1       XUG.CPOS = CNT ;

  16934  2 004567   200350 235100                    LDA     CNT,,AUTO
         2 004570   000104 755100                    STA     68,,PR0

     1235    16935    1       FPT_WRITE = FPT_WRITE_C;
PL6.E3A0      #001=XUG$COMMON File=XUG$COMMON.:E05TSI                            WED 07/30/97 09:17 Page:205

  16935  2 004571   000100 100400                    MLR     fill='000'O
         2 004572   000030 000060 0                  ADSC9   FPT_WRITE_C              cn=0,n=48
         2 004573   200020 000060                    ADSC9   FPT_WRITE,,AUTO          cn=0,n=48

     1236    16936    1       FPT_WRITE.V_ = VECTOR(FPT_WRITE.V);

  16936  2 004574   000037 235000 3                  LDA     31
         2 004575   200432 452500                    STP2    LEGAL_TEXTC+17,,AUTO
         2 004576   200432 236100                    LDQ     LEGAL_TEXTC+17,,AUTO
         2 004577   000030 036003                    ADLQ    24,DU
         2 004600   200020 757100                    STAQ    FPT_WRITE,,AUTO

     1237    16937    1       FPT_WRITE.V.DCB#=OUTDCB# ;

  16937  2 004601   200351 720100                    LXL0    OUTDCB#,,AUTO
         2 004602   200030 740100                    STX0    FPT_WRITE+8,,AUTO

     1238    16938    1       CALL XUG$OPENOUT_INTERNAL (GETCMD, OUTDCB#);

  16938  2 004603   200351 631500                    EPPR1   OUTDCB#,,AUTO
         2 004604   200433 451500                    STP1    LEGAL_TEXTC+18,,AUTO
         2 004605   200003 236100                    LDQ     @GETCMD,,AUTO
         2 004606   200432 756100                    STQ     LEGAL_TEXTC+17,,AUTO
         2 004607   200432 630500                    EPPR0   LEGAL_TEXTC+17,,AUTO
         2 004610   000020 631400 xsym               EPPR1   B_VECTNIL+16
         2 004611   000000 701000 xent               TSX1    XUG$OPENOUT_INTERNAL
         2 004612   000000 011000                    NOP     0

     1239    16939    1       IF GETCMD.RPROMPT_~=VECTOR(NIL) AND

  16939  2 004613   200003 470500                    LDP0    @GETCMD,,AUTO
         2 004614   000000 106500                    CMPC    fill='000'O
         2 004615   000027 000010                    ADSC9   23,,PR0                  cn=0,n=8
         2 004616   000004 000010 3                  ADSC9   4                        cn=0,n=8
         2 004617   004645 600000 2                  TZE     s:16948
         2 004620   000000 106500                    CMPC    fill='000'O
PL6.E3A0      #001=XUG$COMMON File=XUG$COMMON.:E05TSI                            WED 07/30/97 09:17 Page:206
         2 004621   000027 000010                    ADSC9   23,,PR0                  cn=0,n=8
         2 004622   000046 000010 3                  ADSC9   38                       cn=0,n=8
         2 004623   004645 600000 2                  TZE     s:16948

     1240    16940    1         GETCMD.RPROMPT_~=VECTOR(ERASE)
     1241    16941    2       THEN DO;

     1242    16942    2           POFF = VBOUND(GETCMD.RPROMPT_)+1 ;

  16942  2 004624   000027 236100                    LDQ     23,,PR0
         2 004625   000020 772000                    QRL     16
         2 004626   000001 036007                    ADLQ    1,DL
         2 004627   200256 756100                    STQ     POFF,,AUTO

     1243    16943    2           CSIZE = POFF ;

  16943  2 004630   200254 756100                    STQ     CSIZE,,AUTO

     1244    16944    2           PROMPT_BUF = VBASE(GETCMD.RPROMPT_) -> CHARBASE ;

  16944  2 004631   000030 471500                    LDP1    24,,PR0
         2 004632   000000 620006                    EAX0    0,QL
         2 004633   040100 100540                    MLR     fill='040'O
         2 004634   100000 000010                    ADSC9   0,,PR1                   cn=0,n=*X0
         2 004635   200263 000136                    ADSC9   PROMPT_BUF,,AUTO         cn=0,n=94

     1245    16945    2           FPT_WRITE.V.DVBYTE.VFC# = XUG.PROMPT_VFC ;

  16945  2 004636   200220 473500                    LDP3    XUG$,,AUTO
         2 004637   300071 236100                    LDQ     57,,PR3
         2 004640   000015 736000                    QLS     13
         2 004641   200033 676100                    ERQ     FPT_WRITE+11,,AUTO
         2 004642   100000 376003                    ANQ     32768,DU
         2 004643   200033 656100                    ERSQ    FPT_WRITE+11,,AUTO

     1246    16946    2       END ;

PL6.E3A0      #001=XUG$COMMON File=XUG$COMMON.:E05TSI                            WED 07/30/97 09:17 Page:207
  16946  2 004644   004657 710000 2                  TRA     s:16951

     1247    16947    2       ELSE DO;

     1248    16948    2           POFF = XUG.POFF;

  16948  2 004645   200220 471500                    LDP1    XUG$,,AUTO
         2 004646   100036 235100                    LDA     30,,PR1
         2 004647   200256 755100                    STA     POFF,,AUTO

     1249    16949    2           PROMPT_BUF = SUBSTR(XUG.PROMPT,BITBIN(XUG.PROMPT_VFC),POFF);

  16949  2 004650   100071 236100                    LDQ     57,,PR1
         2 004651   000024 772000                    QRL     20
         2 004652   000001 376007                    ANQ     1,DL
         2 004653   000000 620005                    EAX0    0,AL
         2 004654   040100 100546                    MLR     fill='040'O
         2 004655   100037 000010                    ADSC9   31,Q,PR1                 cn=0,n=*X0
         2 004656   200263 000136                    ADSC9   PROMPT_BUF,,AUTO         cn=0,n=94

     1250    16950    2       END;

     1251    16951    1       CNT = 0 ;

  16951  2 004657   200350 450100                    STZ     CNT,,AUTO

     1252    16952    1       OUTPUT_WIDTH = DCBADDR(OUTDCB#) -> F$DCB.WIDTH#;

  16952  2 004660   000023 471400 3                  LDP1    19
         2 004661   100000 473500                    LDP3    0,,PR1
         2 004662   200351 720100                    LXL0    OUTDCB#,,AUTO
         2 004663   300000 474510                    LDP4    0,X0,PR3
         2 004664   400004 236100                    LDQ     4,,PR4
         2 004665   000777 376007                    ANQ     511,DL
         2 004666   200262 756100                    STQ     OUTPUT_WIDTH,,AUTO

     1253    16953    1       IF OUTPUT_WIDTH = 0
PL6.E3A0      #001=XUG$COMMON File=XUG$COMMON.:E05TSI                            WED 07/30/97 09:17 Page:208

  16953  2 004667   004672 601000 2                  TNZ     s:16956

     1254    16954    1       THEN
     1255    16955    1           OUTPUT_WIDTH = 511;

  16955  2 004670   000777 235007                    LDA     511,DL
         2 004671   200262 755100                    STA     OUTPUT_WIDTH,,AUTO

     1256    16956    2       DO I=1 TO XUG.NLINES;

  16956  2 004672   000001 235007                    LDA     1,DL
         2 004673   200250 755100                    STA     I,,AUTO
         2 004674   005037 710000 2                  TRA     s:16986+1

     1257    16957    2           OUTPUT_COUNT = POFF+VBASE(XUG.RLTVEC)->RLT(I);

  16957  2 004675   200220 470500                    LDP0    XUG$,,AUTO
         2 004676   000013 471500                    LDP1    11,,PR0
         2 004677   200250 235100                    LDA     I,,AUTO
         2 004700   000100 101505                    MRL     fill='000'O
         2 004701   100000 000001                    ADSC9   0,A,PR1                  cn=0,n=1
         2 004702   200432 000004                    ADSC9   LEGAL_TEXTC+17,,AUTO     cn=0,n=4
         2 004703   200432 236100                    LDQ     LEGAL_TEXTC+17,,AUTO
         2 004704   200256 036100                    ADLQ    POFF,,AUTO
         2 004705   200261 756100                    STQ     OUTPUT_COUNT,,AUTO

     1258    16958    2           CALL CONCAT(XUG.BUF,SUBSTR(PROMPT_BUF,0,POFF),

  16958  2 004706   000001 471500                    LDP1    1,,PR0
         2 004707   200256 136100                    SBLQ    POFF,,AUTO
         2 004710   200256 720100                    LXL0    POFF,,AUTO
         2 004711   040100 100540                    MLR     fill='040'O
         2 004712   200263 000010                    ADSC9   PROMPT_BUF,,AUTO         cn=0,n=*X0
         2 004713   000300 000454                    ADSC9   192,,PR0                 cn=0,n=300
         2 004714   200432 756100                    STQ     LEGAL_TEXTC+17,,AUTO
         2 004715   200256 236100                    LDQ     POFF,,AUTO
PL6.E3A0      #001=XUG$COMMON File=XUG$COMMON.:E05TSI                            WED 07/30/97 09:17 Page:209
         2 004716   000454 116007                    CMPQ    300,DL
         2 004717   004727 605000 2                  TPL     s:16960
         2 004720   777323 621006                    EAX1    -301,QL
         2 004721   777777 661003                    ERX1    -1,DU
         2 004722   200432 722100                    LXL2    LEGAL_TEXTC+17,,AUTO
         2 004723   200350 235100                    LDA     CNT,,AUTO
         2 004724   040146 100545                    MLR     fill='040'O
         2 004725   100000 000012                    ADSC9   0,A,PR1                  cn=0,n=*X2
         2 004726   000300 000011                    ADSC9   192,Q,PR0                cn=0,n=*X1

     1259    16959    2             SUBSTR(VBASE(XUG.BUFVEC)->INBUF,CNT, OUTPUT_COUNT-POFF)) ;
     1260    16960    3           DO WHILE (OUTPUT_COUNT > 1);

  16960  2 004727   200261 235100                    LDA     OUTPUT_COUNT,,AUTO
         2 004730   000001 115007                    CMPA    1,DL
         2 004731   004745 604400 2                  TMOZ    s:16966

     1261    16961    3               IF SUBSTR (XUG.BUF, OUTPUT_COUNT - 1, 1) ~= ' '

  16961  2 004732   200220 470500                    LDP0    XUG$,,AUTO
         2 004733   200261 235100                    LDA     OUTPUT_COUNT,,AUTO
         2 004734   040000 106505                    CMPC    fill='040'O
         2 004735   000277 600001                    ADSC9   191,A,PR0                cn=3,n=1
         2 004736   000035 000001 xsym               ADSC9   B_VECTNIL+29             cn=0,n=1
         2 004737   004745 601000 2                  TNZ     s:16966

     1262    16962    3               THEN
     1263    16963    3                   EXIT;
     1264    16964    3               OUTPUT_COUNT = OUTPUT_COUNT - 1;

  16964  2 004740   000001 336007                    LCQ     1,DL
         2 004741   200261 056100                    ASQ     OUTPUT_COUNT,,AUTO

     1265    16965    3           END;

  16965  2 004742   200261 235100                    LDA     OUTPUT_COUNT,,AUTO
         2 004743   000001 115007                    CMPA    1,DL
PL6.E3A0      #001=XUG$COMMON File=XUG$COMMON.:E05TSI                            WED 07/30/97 09:17 Page:210
         2 004744   004732 605400 2                  TPNZ    s:16961

     1266    16966    2           IF I~=XUG.NLINES THEN

  16966  2 004745   200250 236100                    LDQ     I,,AUTO
         2 004746   000106 116100                    CMPQ    70,,PR0
         2 004747   004754 600000 2                  TZE     s:16971

     1267    16967    3           DO ;

     1268    16968    3               SUBSTR(XUG.BUF, OUTPUT_COUNT, 1) = ';';

  16968  2 004750   040105 100400                    MLR     fill='040'O
         2 004751   000050 000001 3                  ADSC9   40                       cn=0,n=1
         2 004752   000300 000001                    ADSC9   192,A,PR0                cn=0,n=1

     1269    16969    3               OUTPUT_COUNT = OUTPUT_COUNT + 1;

  16969  2 004753   200261 054100                    AOS     OUTPUT_COUNT,,AUTO

     1270    16970    3           END ; /* Then Do */

     1271    16971    2           OFFSET = 0;

  16971  2 004754   200260 450100                    STZ     OFFSET,,AUTO

     1272    16972    3           DO WHILE (OFFSET < OUTPUT_COUNT);

  16972  2 004755   200260 236100                    LDQ     OFFSET,,AUTO
         2 004756   200261 116100                    CMPQ    OUTPUT_COUNT,,AUTO
         2 004757   005025 605000 2                  TPL     s:16985

     1273    16973    3               CHUNK_SIZE = MINIMUM (OUTPUT_COUNT - OFFSET, OUTPUT_WIDTH);

  16973  2 004760   200261 236100                    LDQ     OUTPUT_COUNT,,AUTO
         2 004761   200260 136100                    SBLQ    OFFSET,,AUTO
         2 004762   200262 116100                    CMPQ    OUTPUT_WIDTH,,AUTO
PL6.E3A0      #001=XUG$COMMON File=XUG$COMMON.:E05TSI                            WED 07/30/97 09:17 Page:211
         2 004763   004765 604400 2                  TMOZ    s:16973+5
         2 004764   200262 236100                    LDQ     OUTPUT_WIDTH,,AUTO
         2 004765   200257 756100                    STQ     CHUNK_SIZE,,AUTO

     1274    16974    3               IF XUG.PROMPT_VFC AND OFFSET > 0

  16974  2 004766   200220 470500                    LDP0    XUG$,,AUTO
         2 004767   000071 236100                    LDQ     57,,PR0
         2 004770   000004 316003                    CANQ    4,DU
         2 004771   005003 600000 2                  TZE     s:16980
         2 004772   200260 235100                    LDA     OFFSET,,AUTO
         2 004773   005003 604400 2                  TMOZ    s:16980

     1275    16975    4               THEN DO;

     1276    16976    4                   CHUNK_SIZE = CHUNK_SIZE + 1;

  16976  2 004774   200257 054100                    AOS     CHUNK_SIZE,,AUTO

     1277    16977    4                   OFFSET = OFFSET - 1;

  16977  2 004775   000001 336007                    LCQ     1,DL
         2 004776   200260 056100                    ASQ     OFFSET,,AUTO

     1278    16978    4                   SUBSTR( XUG.BUF, OFFSET, 1 ) = SUBSTR( XUG.BUF, 0, 1 );

  16978  2 004777   200260 235100                    LDA     OFFSET,,AUTO
         2 005000   040105 100500                    MLR     fill='040'O
         2 005001   000300 000001                    ADSC9   192,,PR0                 cn=0,n=1
         2 005002   000300 000001                    ADSC9   192,A,PR0                cn=0,n=1

     1279    16979    4               END;

     1280    16980    3               FPT_WRITE.BUF_ = VECTOR (SUBSTR(XUG.BUF, OFFSET, CHUNK_SIZE));

  16980  2 005003   200257 235100                    LDA     CHUNK_SIZE,,AUTO
         2 005004   000020 735000                    ALS     16
PL6.E3A0      #001=XUG$COMMON File=XUG$COMMON.:E05TSI                            WED 07/30/97 09:17 Page:212
         2 005005   000140 135007                    SBLA    96,DL
         2 005006   200260 236100                    LDQ     OFFSET,,AUTO
         2 005007   000020 736000                    QLS     16
         2 005010   000300 036003                    ADLQ    192,DU
         2 005011   200220 036100                    ADLQ    XUG$,,AUTO
         2 005012   200024 757100                    STAQ    FPT_WRITE+4,,AUTO

     1281    16981    4               CALL M$WRITE(FPT_WRITE) WHENALTRETURN DO ;

  16981  2 005013   200020 630500                    EPPR0   FPT_WRITE,,AUTO
         2 005014   440001 713400                    CLIMB   alt,write
         2 005015   401400 401760                    pmme    nvectors=4
         2 005016   005020 702000 2                  TSX2    s:16983
         2 005017   005020 710000 2                  TRA     s:16983

     1282    16982    4               END ;

     1283    16983    3               OFFSET = OFFSET + CHUNK_SIZE;

  16983  2 005020   200260 236100                    LDQ     OFFSET,,AUTO
         2 005021   200257 036100                    ADLQ    CHUNK_SIZE,,AUTO
         2 005022   200260 756100                    STQ     OFFSET,,AUTO

     1284    16984    3           END;

  16984  2 005023   200261 116100                    CMPQ    OUTPUT_COUNT,,AUTO
         2 005024   004760 604000 2                  TMI     s:16973

     1285    16985    2           CNT = CNT + VBASE(XUG.RLTVEC)->RLT(I) ;

  16985  2 005025   200220 470500                    LDP0    XUG$,,AUTO
         2 005026   000013 471500                    LDP1    11,,PR0
         2 005027   200250 235100                    LDA     I,,AUTO
         2 005030   000100 101505                    MRL     fill='000'O
         2 005031   100000 000001                    ADSC9   0,A,PR1                  cn=0,n=1
         2 005032   200432 000004                    ADSC9   LEGAL_TEXTC+17,,AUTO     cn=0,n=4
         2 005033   200432 236100                    LDQ     LEGAL_TEXTC+17,,AUTO
PL6.E3A0      #001=XUG$COMMON File=XUG$COMMON.:E05TSI                            WED 07/30/97 09:17 Page:213
         2 005034   200350 036100                    ADLQ    CNT,,AUTO
         2 005035   200350 756100                    STQ     CNT,,AUTO

     1286    16986    2       END;

  16986  2 005036   200250 054100                    AOS     I,,AUTO
         2 005037   200220 470500                    LDP0    XUG$,,AUTO
         2 005040   200250 236100                    LDQ     I,,AUTO
         2 005041   000106 116100                    CMPQ    70,,PR0
         2 005042   004675 604400 2                  TMOZ    s:16957

     1287    16987    1       RETURN;

  16987  2 005043   000000 702200 xent               TSX2  ! X66_ARET

     1288    16988    1   NO_ECHO:
     1289    16989    1       CNT = 0 ;

  16989  2 005044   200350 450100       NO_ECHO      STZ     CNT,,AUTO

     1290    16990    2       DO J=1 TO XUG.NLINES-1 ;

  16990  2 005045   000001 235007                    LDA     1,DL
         2 005046   200251 755100                    STA     J,,AUTO
         2 005047   005062 710000 2                  TRA     s:16992+1

     1291    16991    2           CNT = CNT + VBASE(XUG.RLTVEC) ->RLT(J) ;

  16991  2 005050   200220 470500                    LDP0    XUG$,,AUTO
         2 005051   000013 471500                    LDP1    11,,PR0
         2 005052   200251 235100                    LDA     J,,AUTO
         2 005053   000100 101505                    MRL     fill='000'O
         2 005054   100000 000001                    ADSC9   0,A,PR1                  cn=0,n=1
         2 005055   200432 000004                    ADSC9   LEGAL_TEXTC+17,,AUTO     cn=0,n=4
         2 005056   200432 236100                    LDQ     LEGAL_TEXTC+17,,AUTO
         2 005057   200350 036100                    ADLQ    CNT,,AUTO
         2 005060   200350 756100                    STQ     CNT,,AUTO
PL6.E3A0      #001=XUG$COMMON File=XUG$COMMON.:E05TSI                            WED 07/30/97 09:17 Page:214

     1292    16992    2       END ;                        /* Do J */

  16992  2 005061   200251 054100                    AOS     J,,AUTO
         2 005062   200220 470500                    LDP0    XUG$,,AUTO
         2 005063   200251 236100                    LDQ     J,,AUTO
         2 005064   000106 116100                    CMPQ    70,,PR0
         2 005065   005050 604000 2                  TMI     s:16991

     1293    16993    1       XUG.CPOS = CNT ;

  16993  2 005066   200350 235100                    LDA     CNT,,AUTO
         2 005067   000104 755100                    STA     68,,PR0

     1294    16994    1       RETURN;

  16994  2 005070   000000 702200 xent               TSX2  ! X66_ARET

     1295    16995
     1296    16996        %EJECT ;
PL6.E3A0      #001=XUG$COMMON File=XUG$COMMON.:E05TSI                            WED 07/30/97 09:17 Page:215
     1297    16997    1   XUG$SETPROMPT: ENTRY (GETCMD) ALTRET ;

  16997  2 005071   000000 700200 xent  XUG$SETPROM* TSX0  ! X66_AUTO_2
         2 005072   000440 000002                    ZERO    288,2

     1298    16998
     1299    16999    1       XUG$ = GETCMD.WORK$ ;

  16999  2 005073   200003 470500                    LDP0    @GETCMD,,AUTO
         2 005074   000004 236100                    LDQ     4,,PR0
         2 005075   200220 756100                    STQ     XUG$,,AUTO

     1300    17000    1       FPT_PROMPT = FPT_PROMPT_C;

  17000  2 005076   000100 100400                    MLR     fill='000'O
         2 005077   000044 000050 0                  ADSC9   FPT_PROMPT_C             cn=0,n=40
         2 005100   200034 000050                    ADSC9   FPT_PROMPT,,AUTO         cn=0,n=40

     1301    17001    1       FPT_PROMPT.V_ = VECTOR(FPT_PROMPT.V);

  17001  2 005101   000037 235000 3                  LDA     31
         2 005102   200432 452500                    STP2    LEGAL_TEXTC+17,,AUTO
         2 005103   200432 236100                    LDQ     LEGAL_TEXTC+17,,AUTO
         2 005104   000042 036003                    ADLQ    34,DU
         2 005105   200034 757100                    STAQ    FPT_PROMPT,,AUTO

     1302    17002    1       IF GETCMD.INDCB# ~= 0

  17002  2 005106   000012 235100                    LDA     10,,PR0
         2 005107   005114 600000 2                  TZE     s:17008

     1303    17003    2       THEN DO;

     1304    17004    2           J = GETCMD.INDCB#;

  17004  2 005110   200251 755100                    STA     J,,AUTO

PL6.E3A0      #001=XUG$COMMON File=XUG$COMMON.:E05TSI                            WED 07/30/97 09:17 Page:216
     1305    17005    2           FPT_PROMPT.V.DCB# = J;

  17005  2 005111   000000 620005                    EAX0    0,AL
         2 005112   200042 740100                    STX0    FPT_PROMPT+6,,AUTO

     1306    17006    2       END;

  17006  2 005113   005116 710000 2                  TRA     s:17009

     1307    17007    1       ELSE
     1308    17008    1           J = DCBNUM(M$UC);

  17008  2 005114   000000 236007 xsym               LDQ     M$UC,DL
         2 005115   200251 756100                    STQ     J,,AUTO

     1309    17009    1       PROMPT_FLG = ( GETCMD.ALWAYS_SET_PROMPT# | XUG.DEFER_SETTING_PROMPT );

  17009  2 005116   200220 471500                    LDP1    XUG$,,AUTO
         2 005117   100266 236100                    LDQ     182,,PR1
         2 005120   000023 736000                    QLS     19
         2 005121   400000 376003                    ANQ     -131072,DU
         2 005122   200432 756100                    STQ     LEGAL_TEXTC+17,,AUTO
         2 005123   000006 236100                    LDQ     6,,PR0
         2 005124   000007 736000                    QLS     7
         2 005125   400000 376003                    ANQ     -131072,DU
         2 005126   200432 276100                    ORQ     LEGAL_TEXTC+17,,AUTO
         2 005127   200245 756100                    STQ     PROMPT_FLG,,AUTO

     1310    17010    1       XUG.DEFER_SETTING_PROMPT = %NO# ;

  17010  2 005130   000035 236000 3                  LDQ     29
         2 005131   100266 356100                    ANSQ    182,,PR1

     1311    17011    2       IF GETCMD.PROMPT_=VECTOR(NIL) THEN DO;

  17011  2 005132   000000 106500                    CMPC    fill='000'O
         2 005133   000025 000010                    ADSC9   21,,PR0                  cn=0,n=8
PL6.E3A0      #001=XUG$COMMON File=XUG$COMMON.:E05TSI                            WED 07/30/97 09:17 Page:217
         2 005134   000004 000010 3                  ADSC9   4                        cn=0,n=8
         2 005135   005154 601000 2                  TNZ     s:17018

     1312    17012    2           IF XUG.POFF > 0 THEN PROMPT_FLG='1'B ;

  17012  2 005136   100036 235100                    LDA     30,,PR1
         2 005137   005142 604400 2                  TMOZ    s:17013

  17012  2 005140   400000 236003                    LDQ     -131072,DU
         2 005141   200245 756100                    STQ     PROMPT_FLG,,AUTO

     1313    17013    2           XUG.POFF=0;

  17013  2 005142   100036 450100                    STZ     30,,PR1

     1314    17014    2           XUG.PROMPT_VFC=%NO#;

  17014  2 005143   000006 236000 3                  LDQ     6
         2 005144   100071 356100                    ANSQ    57,,PR1

     1315    17015    2           XUG.PROMPT=' ';

  17015  2 005145   040100 100400                    MLR     fill='040'O
         2 005146   000035 000001 xsym               ADSC9   B_VECTNIL+29             cn=0,n=1
         2 005147   100037 000136                    ADSC9   31,,PR1                  cn=0,n=94

     1316    17016    2           FPT_PROMPT.PROMPT_=GETCMD.PROMPT_ ;

  17016  2 005150   000100 100500                    MLR     fill='000'O
         2 005151   000025 000010                    ADSC9   21,,PR0                  cn=0,n=8
         2 005152   200040 000010                    ADSC9   FPT_PROMPT+4,,AUTO       cn=0,n=8

     1317    17017    2       END;

  17017  2 005153   005244 710000 2                  TRA     s:17036

     1318    17018    2       ELSE IF GETCMD.PROMPT_=VECTOR(ERASE) THEN DO;
PL6.E3A0      #001=XUG$COMMON File=XUG$COMMON.:E05TSI                            WED 07/30/97 09:17 Page:218

  17018  2 005154   000000 106500                    CMPC    fill='000'O
         2 005155   000025 000010                    ADSC9   21,,PR0                  cn=0,n=8
         2 005156   000046 000010 3                  ADSC9   38                       cn=0,n=8
         2 005157   005167 601000 2                  TNZ     s:17024

     1319    17019    2               XUG.POFF=0;

  17019  2 005160   100036 450100                    STZ     30,,PR1

     1320    17020    2               XUG.PROMPT_VFC=%NO#;

  17020  2 005161   000006 236000 3                  LDQ     6
         2 005162   100071 356100                    ANSQ    57,,PR1

     1321    17021    2               XUG.PROMPT=' ';

  17021  2 005163   040100 100400                    MLR     fill='040'O
         2 005164   000035 000001 xsym               ADSC9   B_VECTNIL+29             cn=0,n=1
         2 005165   100037 000136                    ADSC9   31,,PR1                  cn=0,n=94

     1322    17022    2           END ; /* Then Do */

  17022  2 005166   005244 710000 2                  TRA     s:17036

     1323    17023    2           ELSE DO;

     1324    17024    2               PSIZ=VBOUND(GETCMD.PROMPT_) + 1 ;

  17024  2 005167   000025 236100                    LDQ     21,,PR0
         2 005170   000020 772000                    QRL     16
         2 005171   000001 036007                    ADLQ    1,DL
         2 005172   200006 756100                    STQ     PSIZ,,AUTO

     1325    17025    2               I = BITBIN(GETCMD.PROMPT_VFC#) ;

  17025  2 005173   000006 236100                    LDQ     6,,PR0
PL6.E3A0      #001=XUG$COMMON File=XUG$COMMON.:E05TSI                            WED 07/30/97 09:17 Page:219
         2 005174   000036 772000                    QRL     30
         2 005175   000001 376007                    ANQ     1,DL
         2 005176   200250 756100                    STQ     I,,AUTO

     1326    17026    2               FPT_PROMPT.V.DVBYTE#.VFC# = GETCMD.PROMPT_VFC# ;

  17026  2 005177   000006 236100                    LDQ     6,,PR0
         2 005200   000003 736000                    QLS     3
         2 005201   200044 676100                    ERQ     FPT_PROMPT+8,,AUTO
         2 005202   100000 376003                    ANQ     32768,DU
         2 005203   200044 656100                    ERSQ    FPT_PROMPT+8,,AUTO

     1327    17027    2               FPT_PROMPT.PROMPT_ = GETCMD.PROMPT_ ;

  17027  2 005204   000100 100500                    MLR     fill='000'O
         2 005205   000025 000010                    ADSC9   21,,PR0                  cn=0,n=8
         2 005206   200040 000010                    ADSC9   FPT_PROMPT+4,,AUTO       cn=0,n=8

     1328    17028    2               POFF = PSIZ - I ;

  17028  2 005207   200006 236100                    LDQ     PSIZ,,AUTO
         2 005210   200250 136100                    SBLQ    I,,AUTO
         2 005211   200256 756100                    STQ     POFF,,AUTO

     1329    17029    2               IF XUG.POFF~=POFF OR XUG.PROMPT_VFC~=GETCMD.PROMPT_VFC# OR

  17029  2 005212   100036 116100                    CMPQ    30,,PR1
         2 005213   005226 601000 2                  TNZ     s:17031
         2 005214   000100 066500                    CMPB    filb='0'B
         2 005215   100071 260001                    BDSC    57,,PR1                  by=1,bit=6,n=1
         2 005216   000006 050001                    BDSC    6,,PR0                   by=0,bit=5,n=1
         2 005217   005226 601000 2                  TNZ     s:17031
         2 005220   000026 473500                    LDP3    22,,PR0
         2 005221   200006 720100                    LXL0    PSIZ,,AUTO
         2 005222   040140 106500                    CMPC    fill='040'O
         2 005223   100037 000136                    ADSC9   31,,PR1                  cn=0,n=94
         2 005224   300000 000010                    ADSC9   0,,PR3                   cn=0,n=*X0
PL6.E3A0      #001=XUG$COMMON File=XUG$COMMON.:E05TSI                            WED 07/30/97 09:17 Page:220
         2 005225   005230 600000 2                  TZE     s:17032

     1330    17030    2                 XUG.PROMPT~=VBASE(GETCMD.PROMPT_)->PROMPT$C.C THEN
     1331    17031    2                   PROMPT_FLG='1'B;

  17031  2 005226   400000 236003                    LDQ     -131072,DU
         2 005227   200245 756100                    STQ     PROMPT_FLG,,AUTO

     1332    17032    2               XUG.POFF=POFF;

  17032  2 005230   200256 235100                    LDA     POFF,,AUTO
         2 005231   100036 755100                    STA     30,,PR1

     1333    17033    2               XUG.PROMPT = VBASE(GETCMD.PROMPT_)->PROMPT$C.C ;

  17033  2 005232   000026 473500                    LDP3    22,,PR0
         2 005233   200006 720100                    LXL0    PSIZ,,AUTO
         2 005234   040100 100540                    MLR     fill='040'O
         2 005235   300000 000010                    ADSC9   0,,PR3                   cn=0,n=*X0
         2 005236   100037 000136                    ADSC9   31,,PR1                  cn=0,n=94

     1334    17034    2               XUG.PROMPT_VFC = GETCMD.PROMPT_VFC# ;

  17034  2 005237   000006 236100                    LDQ     6,,PR0
         2 005240   000012 772000                    QRL     10
         2 005241   100071 676100                    ERQ     57,,PR1
         2 005242   000004 376003                    ANQ     4,DU
         2 005243   100071 656100                    ERSQ    57,,PR1

     1335    17035    2           END;

     1336    17036    1       IF PROMPT_FLG

  17036  2 005244   200245 234100                    SZN     PROMPT_FLG,,AUTO
         2 005245   005314 605000 2                  TPL     s:17057

     1337    17037    2       THEN DO;
PL6.E3A0      #001=XUG$COMMON File=XUG$COMMON.:E05TSI                            WED 07/30/97 09:17 Page:221

     1338    17038    2           IF GETCMD.TEXT_ ~= VECTOR(NIL)

  17038  2 005246   000034 237100                    LDAQ    28,,PR0
         2 005247   000004 117000 3                  CMPAQ   4
         2 005250   005257 600000 2                  TZE     s:17043
         2 005251   000006 236100                    LDQ     6,,PR0
         2 005252   002000 316003                    CANQ    1024,DU
         2 005253   005257 601000 2                  TNZ     s:17043

     1339    17039    2             AND NOT GETCMD.ALWAYS_SET_PROMPT#
     1340    17040    2           THEN
     1341    17041    2               XUG.DEFER_SETTING_PROMPT = %YES# ;

  17041  2 005254   200000 236007                    LDQ     65536,DL
         2 005255   100266 256100                    ORSQ    182,,PR1
         2 005256   005314 710000 2                  TRA     s:17057

     1342    17042    3           ELSE DO;

     1343    17043    3               IF NOT DCBADDR(J) -> F$DCB.FCD#

  17043  2 005257   000023 473400 3                  LDP3    19
         2 005260   300000 474500                    LDP4    0,,PR3
         2 005261   200251 720100                    LXL0    J,,AUTO
         2 005262   400000 475510                    LDP5    0,X0,PR4
         2 005263   500031 236100                    LDQ     25,,PR5
         2 005264   020000 316007                    CANQ    8192,DL
         2 005265   005304 601000 2                  TNZ     s:17050

     1344    17044    4               THEN DO;

     1345    17045    4                   FPT_OPEN = FPT_OPEN_C;

  17045  2 005266   000100 100400                    MLR     fill='000'O
         2 005267   000056 000350 0                  ADSC9   FPT_OPEN_C               cn=0,n=232
         2 005270   200046 000350                    ADSC9   FPT_OPEN,,AUTO           cn=0,n=232
PL6.E3A0      #001=XUG$COMMON File=XUG$COMMON.:E05TSI                            WED 07/30/97 09:17 Page:222

     1346    17046    4                   FPT_OPEN.V_ = VECTOR (FPT_OPEN.V);

  17046  2 005271   000051 235000 3                  LDA     41
         2 005272   200432 452500                    STP2    LEGAL_TEXTC+17,,AUTO
         2 005273   200432 236100                    LDQ     LEGAL_TEXTC+17,,AUTO
         2 005274   000112 036003                    ADLQ    74,DU
         2 005275   200046 757100                    STAQ    FPT_OPEN,,AUTO

     1347    17047    4                   FPT_OPEN.V.DCB# = J;

  17047  2 005276   200112 740100                    STX0    FPT_OPEN+36,,AUTO

     1348    17048    5                   CALL M$OPEN (FPT_OPEN) WHENALTRETURN DO; END;

  17048  2 005277   200046 630500                    EPPR0   FPT_OPEN,,AUTO
         2 005300   450000 713400                    CLIMB   alt,open
         2 005301   410400 401760                    pmme    nvectors=18
         2 005302   005304 702000 2                  TSX2    s:17050
         2 005303   005304 710000 2                  TRA     s:17050

     1349    17049    4               END;

     1350    17050    3               CALL M$PROMPT(FPT_PROMPT)

  17050  2 005304   200034 630500                    EPPR0   FPT_PROMPT,,AUTO
         2 005305   560002 713400                    CLIMB   alt,+57346
         2 005306   401000 401760                    pmme    nvectors=3
         2 005307   005311 702000 2                  TSX2    s:17052
         2 005310   005314 710000 2                  TRA     s:17057

     1351    17051    4               WHENALTRETURN DO;

     1352    17052    4                   XUG.DEFER_SETTING_PROMPT = %YES# ;

  17052  2 005311   200220 470500                    LDP0    XUG$,,AUTO
         2 005312   200000 236007                    LDQ     65536,DL
PL6.E3A0      #001=XUG$COMMON File=XUG$COMMON.:E05TSI                            WED 07/30/97 09:17 Page:223
         2 005313   000266 256100                    ORSQ    182,,PR0

     1353    17053    4               END;

     1354    17054    3           END;

     1355    17055    2       END;

     1356    17056
     1357    17057    1       RETURN ;

  17057  2 005314   000000 702200 xent               TSX2  ! X66_ARET

     1358    17058        %EJECT;
PL6.E3A0      #001=XUG$COMMON File=XUG$COMMON.:E05TSI                            WED 07/30/97 09:17 Page:224
     1359    17059    1   MOVER: PROC (VEC, OFFSET, SIZ) ;

  17059  2 005315   200352 741300       MOVER        STX1  ! OUTDCB#+1,,AUTO

     1360    17060
     1361    17061    2   DCL J SBIN ;
     1362    17062    2   DCL VEC VECTOR ;
     1363    17063    2   DCL OFFSET UBIN ;
     1364    17064    2   DCL SIZ UBIN ;
     1365    17065    2   DCL WDS(0:0) BIT(72) DALIGNED BASED ;
     1366    17066    2   DCL TO$ PTR ;
     1367    17067    2   DCL FROM$ PTR ;
     1368    17068
     1369    17069    2       FROM$ = VBASE(VEC) ;

  17069  2 005316   200353 470500                    LDP0    @VEC,,AUTO
         2 005317   000001 236100                    LDQ     1,,PR0
         2 005320   200360 756100                    STQ     FROM$,,AUTO

     1370    17070    2       J = VBOUND(VEC) / 8 ;

  17070  2 005321   000000 236100                    LDQ     0,,PR0
         2 005322   000020 772000                    QRL     16
         2 005323   000003 772000                    QRL     3
         2 005324   200356 756100                    STQ     J,,AUTO

     1371    17071    2       TO$ = PINCRW(FROM$, OFFSET) ;

  17071  2 005325   200354 471500                    LDP1    @OFFSET,,AUTO
         2 005326   100000 720100                    LXL0    0,,PR1
         2 005327   000000 636010                    EAQ     0,X0
         2 005330   200360 036100                    ADLQ    FROM$,,AUTO
         2 005331   200357 756100                    STQ     TO$,,AUTO

     1372    17072    3       DO WHILE (J > 0) ;

  17072  2 005332   200356 235100                    LDA     J,,AUTO
PL6.E3A0      #001=XUG$COMMON File=XUG$COMMON.:E05TSI                            WED 07/30/97 09:17 Page:225
         2 005333   005347 604400 2                  TMOZ    s:17076

     1373    17073    3           J = J - 1 ;

  17073  2 005334   000001 336007                    LCQ     1,DL
         2 005335   200356 056100                    ASQ     J,,AUTO

     1374    17074    3           TO$ -> WDS(J) = FROM$ -> WDS(J) ;

  17074  2 005336   200356 235100                    LDA     J,,AUTO
         2 005337   000001 735000                    ALS     1
         2 005340   200360 470500                    LDP0    FROM$,,AUTO
         2 005341   000000 620005                    EAX0    0,AL
         2 005342   000000 237105                    LDAQ    0,AL,PR0
         2 005343   200357 471500                    LDP1    TO$,,AUTO
         2 005344   100000 757110                    STAQ    0,X0,PR1

     1375    17075    3       END ;

  17075  2 005345   200356 235100                    LDA     J,,AUTO
         2 005346   005334 605400 2                  TPNZ    s:17073

     1376    17076    2       VBASE(VEC) = TO$ ;

  17076  2 005347   200357 236100                    LDQ     TO$,,AUTO
         2 005350   200353 470500                    LDP0    @VEC,,AUTO
         2 005351   000001 756100                    STQ     1,,PR0

     1377    17077    2       VBOUND(VEC) = VBOUND(VEC) + SIZ*4 ;

  17077  2 005352   000000 236100                    LDQ     0,,PR0
         2 005353   000020 772000                    QRL     16
         2 005354   200432 756100                    STQ     LEGAL_TEXTC+17,,AUTO
         2 005355   200355 471500                    LDP1    @SIZ,,AUTO
         2 005356   100000 236100                    LDQ     0,,PR1
         2 005357   000002 736000                    QLS     2
         2 005360   200432 036100                    ADLQ    LEGAL_TEXTC+17,,AUTO
PL6.E3A0      #001=XUG$COMMON File=XUG$COMMON.:E05TSI                            WED 07/30/97 09:17 Page:226
         2 005361   000020 736000                    QLS     16
         2 005362   000000 676100                    ERQ     0,,PR0
         2 005363   000034 376000 xsym               ANQ     B_VECTNIL+28
         2 005364   000000 656100                    ERSQ    0,,PR0

     1378    17078
     1379    17079    2       RETURN ;

  17079  2 005365   200352 221300                    LDX1  ! OUTDCB#+1,,AUTO
         2 005366   000001 702211                    TSX2  ! 1,X1

     1380    17080    2   END   MOVER ;
     1381    17081        %EJECT;
PL6.E3A0      #001=XUG$COMMON File=XUG$COMMON.:E05TSI                            WED 07/30/97 09:17 Page:227
     1382    17082    1   REPORT_ALTERNATIVES: PROC;

  17082  2 005367   200352 741300       REPORT_ALTE* STX1  ! OUTDCB#+1,,AUTO

     1383    17083
     1384    17084    2   DCL ONECHAR CHAR (1) BASED;
     1385    17085    2   DCL SAVED_HI_CHAR SBIN WORD;
     1386    17086    2   DCL SAVED_HINODE$ PTR;
     1387    17087    2   DCL SAVED_WK_USED SBIN WORD;
     1388    17088
     1389    17089    2       SAVED_HI_CHAR = P_PCB.HI_CHAR;

  17089  2 005370   200224 470500                    LDP0    P_PCB$,,AUTO
         2 005371   000012 235100                    LDA     10,,PR0
         2 005372   200353 755100                    STA     SAVED_HI_CHAR,,AUTO

     1390    17090    2       SAVED_HINODE$ = P_PCB.HINODE$;

  17090  2 005373   000013 236100                    LDQ     11,,PR0
         2 005374   200354 756100                    STQ     SAVED_HINODE$,,AUTO

     1391    17091    2       SAVED_WK_USED = P_PCB.WK_USED;

  17091  2 005375   000010 236100                    LDQ     8,,PR0
         2 005376   000022 772000                    QRL     18
         2 005377   200355 756100                    STQ     SAVED_WK_USED,,AUTO

     1392    17092
     1393    17093    2       XUG.PARSING_FREE_CMDS = %NO#;

  17093  2 005400   200220 471500                    LDP1    XUG$,,AUTO
         2 005401   000033 236000 3                  LDQ     27
         2 005402   100266 356100                    ANSQ    182,,PR1

     1394    17094    2       CALL X$PARSE (P_PCB);

  17094  2 005403   200224 630500                    EPPR0   P_PCB$,,AUTO
PL6.E3A0      #001=XUG$COMMON File=XUG$COMMON.:E05TSI                            WED 07/30/97 09:17 Page:228
         2 005404   000017 631400 xsym               EPPR1   B_VECTNIL+15
         2 005405   000000 701000 xent               TSX1    X$PARSE
         2 005406   000000 011000                    NOP     0

     1395    17095
     1396    17096    2       IF NOT P_PCB.BLANKONLY

  17096  2 005407   200224 470500                    LDP0    P_PCB$,,AUTO
         2 005410   000005 236100                    LDQ     5,,PR0
         2 005411   004000 316007                    CANQ    2048,DL
         2 005412   005416 600000 2                  TZE     s:17099
         2 005413   000012 236100                    LDQ     10,,PR0
         2 005414   000011 116100                    CMPQ    9,,PR0
         2 005415   005420 600000 2                  TZE     s:17101

     1397    17097    2         OR P_PCB.HI_CHAR ~= P_PCB.NCHARS
     1398    17098    2       THEN
     1399    17099    2           RETURN;

  17099  2 005416   200352 221300                    LDX1  ! OUTDCB#+1,,AUTO
         2 005417   000001 702211                    TSX2  ! 1,X1

     1400    17100
     1401    17101    2       PINCRC (P_PCB.TEXT$, P_PCB.NCHARS) -> ONECHAR = ' ';

  17101  2 005420   000011 236100                    LDQ     9,,PR0
         2 005421   000000 471500                    LDP1    0,,PR0
         2 005422   040106 100400                    MLR     fill='040'O
         2 005423   000035 000001 xsym               ADSC9   B_VECTNIL+29             cn=0,n=1
         2 005424   100000 000001                    ADSC9   0,Q,PR1                  cn=0,n=1

     1402    17102    2       P_PCB.NCHARS = P_PCB.NCHARS + 1;

  17102  2 005425   000011 235100                    LDA     9,,PR0
         2 005426   000001 035007                    ADLA    1,DL
         2 005427   000011 755100                    STA     9,,PR0

PL6.E3A0      #001=XUG$COMMON File=XUG$COMMON.:E05TSI                            WED 07/30/97 09:17 Page:229
     1403    17103    2       P_PCB.NXT = %NO#;

  17103  2 005430   000026 236000 3                  LDQ     22
         2 005431   000005 356100                    ANSQ    5,,PR0

     1404    17104    2       XUG.PARSING_FREE_CMDS = %NO#;

  17104  2 005432   200220 471500                    LDP1    XUG$,,AUTO
         2 005433   000033 236000 3                  LDQ     27
         2 005434   100266 356100                    ANSQ    182,,PR1

     1405    17105
     1406    17106    2       CALL X$PARSE (P_PCB)

  17106  2 005435   200224 630500                    EPPR0   P_PCB$,,AUTO
         2 005436   000017 631400 xsym               EPPR1   B_VECTNIL+15
         2 005437   000000 701000 xent               TSX1    X$PARSE
         2 005440   005442 702000 2                  TSX2    s:17109
         2 005441   005470 710000 2                  TRA     s:17127

     1407    17107    3       WHENALTRETURN DO;

     1408    17108
     1409    17109    3           IF P_PCB.ERROR.CODE = %E$SYNERR

  17109  2 005442   200224 470500                    LDP0    P_PCB$,,AUTO
         2 005443   000006 236100                    LDQ     6,,PR0
         2 005444   377770 376007                    ANQ     131064,DL
         2 005445   000010 116007                    CMPQ    8,DL
         2 005446   005470 601000 2                  TNZ     s:17127

     1410    17110    4           THEN DO;

     1411    17111
     1412    17112    4               GETCMD.ERR_CODE = XUG#FOLLOWED_BY;

  17112  2 005447   000203 236000 0                  LDQ     XUG#FOLLOWED_BY
PL6.E3A0      #001=XUG$COMMON File=XUG$COMMON.:E05TSI                            WED 07/30/97 09:17 Page:230
         2 005450   200003 471500                    LDP1    @GETCMD,,AUTO
         2 005451   100010 756100                    STQ     8,,PR1

     1413    17113    4               CALL XUG$ERRMSG_COMMON (GETCMD);

  17113  2 005452   200003 630500                    EPPR0   @GETCMD,,AUTO
         2 005453   000017 631400 xsym               EPPR1   B_VECTNIL+15
         2 005454   000000 701000 xent               TSX1    XUG$ERRMSG_COMMON
         2 005455   000000 011000                    NOP     0

     1414    17114
     1415    17115        /*E*  ERROR:   XUG-E$XUG#FOLLOWED_BY
     1416    17116              MESSAGE:followed by:
     1417    17117        */
     1418    17118
     1419    17119    4               XUG.PARSING_FREE_CMDS = %NO#;

  17119  2 005456   200220 470500                    LDP0    XUG$,,AUTO
         2 005457   000033 236000 3                  LDQ     27
         2 005460   000266 356100                    ANSQ    182,,PR0

     1420    17120    4               P_PCB.NXT = %YES#;

  17120  2 005461   200224 471500                    LDP1    P_PCB$,,AUTO
         2 005462   040000 236007                    LDQ     16384,DL
         2 005463   100005 256100                    ORSQ    5,,PR1

     1421    17121    4               CALL X$PARSE (P_PCB);

  17121  2 005464   200224 630500                    EPPR0   P_PCB$,,AUTO
         2 005465   000017 631400 xsym               EPPR1   B_VECTNIL+15
         2 005466   000000 701000 xent               TSX1    X$PARSE
         2 005467   000000 011000                    NOP     0

     1422    17122
     1423    17123    4           END;

PL6.E3A0      #001=XUG$COMMON File=XUG$COMMON.:E05TSI                            WED 07/30/97 09:17 Page:231
     1424    17124
     1425    17125    3       END;

     1426    17126
     1427    17127    2       P_PCB.HI_CHAR = SAVED_HI_CHAR;

  17127  2 005470   200353 235100                    LDA     SAVED_HI_CHAR,,AUTO
         2 005471   200224 470500                    LDP0    P_PCB$,,AUTO
         2 005472   000012 755100                    STA     10,,PR0

     1428    17128    2       P_PCB.HINODE$ = SAVED_HINODE$;

  17128  2 005473   200354 236100                    LDQ     SAVED_HINODE$,,AUTO
         2 005474   000013 756100                    STQ     11,,PR0

     1429    17129    2       P_PCB.NCHARS = P_PCB.NCHARS - 1;

  17129  2 005475   000011 235100                    LDA     9,,PR0
         2 005476   000001 135007                    SBLA    1,DL
         2 005477   000011 755100                    STA     9,,PR0

     1430    17130    2       P_PCB.WK_USED = SAVED_WK_USED;

  17130  2 005500   200355 720100                    LXL0    SAVED_WK_USED,,AUTO
         2 005501   000010 740100                    STX0    8,,PR0

     1431    17131
     1432    17132    2       RETURN;

  17132  2 005502   200352 221300                    LDX1  ! OUTDCB#+1,,AUTO
         2 005503   000001 702211                    TSX2  ! 1,X1

     1433    17133
     1434    17134    2   END REPORT_ALTERNATIVES;
     1435    17135
     1436    17136        %EJECT;
PL6.E3A0      #001=XUG$COMMON File=XUG$COMMON.:E05TSI                            WED 07/30/97 09:17 Page:232
     1437    17137    1   FETCH_HELP_TOPIC: PROC;

  17137  2 005504   200352 741300       FETCH_HELP_* STX1  ! OUTDCB#+1,,AUTO

     1438    17138
     1439    17139    2   DCL LOW_CHAR SBIN WORD;
     1440    17140    2   DCL HIGH_CHAR SBIN WORD;
     1441    17141    2   DCL LENGTH SBIN WORD;
     1442    17142    2   DCL NCHARS SBIN WORD;
     1443    17143    2   DCL STRING$ PTR;
     1444    17144    2   DCL STRING CHAR (NCHARS) BASED (STRING$);
     1445    17145    2   DCL TSTRING CHAR (5);
     1446    17146    2   DCL BANG_OK BIT(1);
     1447    17147    2   DCL DO_OK BIT(1);
     1448    17148    2   DCL DO_CMD BIT(1);
     1449    17149
     1450    17150    2       BANG_OK = %NO#;

  17150  2 005505   200362 450100                    STZ     BANG_OK,,AUTO

     1451    17151    2       DO_CMD = %NO#;

  17151  2 005506   200364 450100                    STZ     DO_CMD,,AUTO

     1452    17152    2       DO_OK = ( XUG.COMMANDS & ~ XUG.INHIBITS.DO# );

  17152  2 005507   200220 470500                    LDP0    XUG$,,AUTO
         2 005510   000071 236100                    LDQ     57,,PR0
         2 005511   000030 736000                    QLS     24
         2 005512   400000 376003                    ANQ     -131072,DU
         2 005513   400000 676003                    ERQ     -131072,DU
         2 005514   200432 756100                    STQ     LEGAL_TEXTC+17,,AUTO
         2 005515   000071 236100                    LDQ     57,,PR0
         2 005516   000004 736000                    QLS     4
         2 005517   400000 376003                    ANQ     -131072,DU
         2 005520   200432 376100                    ANQ     LEGAL_TEXTC+17,,AUTO
         2 005521   200363 756100                    STQ     DO_OK,,AUTO
PL6.E3A0      #001=XUG$COMMON File=XUG$COMMON.:E05TSI                            WED 07/30/97 09:17 Page:233

     1453    17153    2       IF DO_OK

  17153  2 005522   200363 234100                    SZN     DO_OK,,AUTO
         2 005523   005540 605000 2                  TPL     s:17161

     1454    17154    3       THEN DO;

     1455    17155    3           CALL INDEX(LENGTH,'!',SUBSTR(XUG.PROMPT,BITBIN(XUG.PROMPT_VFC),XUG.POFF))

  17155  2 005524   000071 236100                    LDQ     57,,PR0
         2 005525   000024 772000                    QRL     20
         2 005526   000001 376007                    ANQ     1,DL
         2 005527   000036 720100                    LXL0    30,,PR0
         2 005530   000000 124546                    SCM     mask='000'O
         2 005531   000037 000010                    ADSC9   31,Q,PR0                 cn=0,n=*X0
         2 005532   000052 000001 3                  ADSC9   42                       cn=0,n=1
         2 005533   200355 000100                    ARG     LENGTH,,AUTO
         2 005534   005536 606400 2                  TTN     s:17157
         2 005535   005540 710000 2                  TRA     s:17161

     1456    17156    4           WHENALTRETURN DO;

     1457    17157    4               BANG_OK = %YES#;

  17157  2 005536   400000 236003                    LDQ     -131072,DU
         2 005537   200362 756100                    STQ     BANG_OK,,AUTO

     1458    17158    4           END;

     1459    17159    3       END;

     1460    17160
     1461    17161    2       NCHARS = P_PCB.NCHARS;

  17161  2 005540   200224 470500                    LDP0    P_PCB$,,AUTO
         2 005541   000011 235100                    LDA     9,,PR0
PL6.E3A0      #001=XUG$COMMON File=XUG$COMMON.:E05TSI                            WED 07/30/97 09:17 Page:234
         2 005542   200356 755100                    STA     NCHARS,,AUTO

     1462    17162
     1463    17163    2       STRING$ = P_PCB.TEXT$;

  17163  2 005543   000000 236100                    LDQ     0,,PR0
         2 005544   200357 756100                    STQ     STRING$,,AUTO

     1464    17164    2       LOW_CHAR = -1;

  17164  2 005545   000001 335007                    LCA     1,DL
         2 005546   200353 755100                    STA     LOW_CHAR,,AUTO

  17164  2 005547                       FIND_START_* null
     1465    17165
     1466    17166    2   FIND_START_CHAR: ;
     1467    17167    3       DO UNTIL SYMTTBL.PL6SYM(ASCBIN(SUBSTR(STRING, LOW_CHAR, 1)));

     1468    17168
     1469    17169    3           LOW_CHAR = LOW_CHAR + 1;

  17169  2 005547   200353 054100                    AOS     LOW_CHAR,,AUTO

     1470    17170
     1471    17171    3           IF LOW_CHAR = NCHARS

  17171  2 005550   200353 236100                    LDQ     LOW_CHAR,,AUTO
         2 005551   200356 116100                    CMPQ    NCHARS,,AUTO
         2 005552   005555 601000 2                  TNZ     s:17175

     1472    17172    3           THEN
     1473    17173    3               RETURN;

  17173  2 005553   200352 221300                    LDX1  ! OUTDCB#+1,,AUTO
         2 005554   000001 702211                    TSX2  ! 1,X1

     1474    17174
PL6.E3A0      #001=XUG$COMMON File=XUG$COMMON.:E05TSI                            WED 07/30/97 09:17 Page:235
     1475    17175    3           IF BANG_OK AND SUBSTR(STRING,LOW_CHAR,1) = '!'

  17175  2 005555   200362 234100                    SZN     BANG_OK,,AUTO
         2 005556   005566 605000 2                  TPL     s:17179
         2 005557   200357 470500                    LDP0    STRING$,,AUTO
         2 005560   040000 106506                    CMPC    fill='040'O
         2 005561   000000 000001                    ADSC9   0,Q,PR0                  cn=0,n=1
         2 005562   000052 000001 3                  ADSC9   42                       cn=0,n=1
         2 005563   005566 601000 2                  TNZ     s:17179

     1476    17176    3           THEN
     1477    17177    3               DO_CMD = %YES#;

  17177  2 005564   400000 236003                    LDQ     -131072,DU
         2 005565   200364 756100                    STQ     DO_CMD,,AUTO

     1478    17178
     1479    17179    3       END;

  17179  2 005566   200357 470500                    LDP0    STRING$,,AUTO
         2 005567   200353 235100                    LDA     LOW_CHAR,,AUTO
         2 005570   000100 101505                    MRL     fill='000'O
         2 005571   000000 000001                    ADSC9   0,A,PR0                  cn=0,n=1
         2 005572   200432 000004                    ADSC9   LEGAL_TEXTC+17,,AUTO     cn=0,n=4
         2 005573   200432 236100                    LDQ     LEGAL_TEXTC+17,,AUTO
         2 005574   000000 236006 xsym               LDQ     XUP_SYMTBL,QL
         2 005575   004000 316003                    CANQ    2048,DU
         2 005576   005547 600000 2                  TZE     FIND_START_CHAR

     1480    17180
     1481    17181    2       HIGH_CHAR = LOW_CHAR;

  17181  2 005577   200354 755100                    STA     HIGH_CHAR,,AUTO

     1482    17182
     1483    17183    3       DO WHILE SYMTTBL.PL6SYM(ASCBIN(SUBSTR(STRING, HIGH_CHAR, 1)));

PL6.E3A0      #001=XUG$COMMON File=XUG$COMMON.:E05TSI                            WED 07/30/97 09:17 Page:236
  17183  2 005600   000100 101505                    MRL     fill='000'O
         2 005601   000000 000001                    ADSC9   0,A,PR0                  cn=0,n=1
         2 005602   200432 000004                    ADSC9   LEGAL_TEXTC+17,,AUTO     cn=0,n=4
         2 005603   200432 236100                    LDQ     LEGAL_TEXTC+17,,AUTO
         2 005604   000000 236006 xsym               LDQ     XUP_SYMTBL,QL
         2 005605   004000 316003                    CANQ    2048,DU
         2 005606   005623 600000 2                  TZE     s:17193

     1484    17184
     1485    17185    3           HIGH_CHAR = HIGH_CHAR + 1;

  17185  2 005607   200354 054100                    AOS     HIGH_CHAR,,AUTO

     1486    17186
     1487    17187    3           IF HIGH_CHAR = NCHARS

  17187  2 005610   200354 236100                    LDQ     HIGH_CHAR,,AUTO
         2 005611   200356 116100                    CMPQ    NCHARS,,AUTO
         2 005612   005623 600000 2                  TZE     s:17193

     1488    17188    3           THEN
     1489    17189    3               EXIT;
     1490    17190
     1491    17191    3       END;

  17191  2 005613   200357 470500                    LDP0    STRING$,,AUTO
         2 005614   000100 101506                    MRL     fill='000'O
         2 005615   000000 000001                    ADSC9   0,Q,PR0                  cn=0,n=1
         2 005616   200432 000004                    ADSC9   LEGAL_TEXTC+17,,AUTO     cn=0,n=4
         2 005617   200432 236100                    LDQ     LEGAL_TEXTC+17,,AUTO
         2 005620   000000 236006 xsym               LDQ     XUP_SYMTBL,QL
         2 005621   004000 316003                    CANQ    2048,DU
         2 005622   005607 601000 2                  TNZ     s:17185

     1492    17192
     1493    17193    2       LENGTH = HIGH_CHAR - LOW_CHAR;

PL6.E3A0      #001=XUG$COMMON File=XUG$COMMON.:E05TSI                            WED 07/30/97 09:17 Page:237
  17193  2 005623   200354 236100                    LDQ     HIGH_CHAR,,AUTO
         2 005624   200353 136100                    SBLQ    LOW_CHAR,,AUTO
         2 005625   200355 756100                    STQ     LENGTH,,AUTO

     1494    17194
     1495    17195    2       IF LENGTH = 0

  17195  2 005626   005631 601000 2                  TNZ     s:17199

     1496    17196    2       THEN
     1497    17197    2           RETURN;

  17197  2 005627   200352 221300                    LDX1  ! OUTDCB#+1,,AUTO
         2 005630   000001 702211                    TSX2  ! 1,X1

     1498    17198
     1499    17199    2       CALL XLATE (TSTRING, TRANSTBL, SUBSTR (STRING, LOW_CHAR, LENGTH));

  17199  2 005631   200357 470500                    LDP0    STRING$,,AUTO
         2 005632   000000 620006                    EAX0    0,QL
         2 005633   200353 235100                    LDA     LOW_CHAR,,AUTO
         2 005634   000000 471400 xsym               LDP1    B$XL_UPPER$
         2 005635   040100 160545                    MVT     fill='040'O
         2 005636   000000 000010                    ADSC9   0,A,PR0                  cn=0,n=*X0
         2 005637   200360 000005                    ADSC9   TSTRING,,AUTO            cn=0,n=5
         2 005640   100000 000100                    ARG     0,,PR1

     1500    17200
     1501    17201    2       IF TSTRING = 'HELP'

  17201  2 005641   040000 106500                    CMPC    fill='040'O
         2 005642   200360 000005                    ADSC9   TSTRING,,AUTO            cn=0,n=5
         2 005643   000350 000004 0                  ADSC9   XUH_PARAM_C+60           cn=0,n=4
         2 005644   005647 601000 2                  TNZ     s:17205

     1502    17202    2       THEN
     1503    17203    2           RETURN;
PL6.E3A0      #001=XUG$COMMON File=XUG$COMMON.:E05TSI                            WED 07/30/97 09:17 Page:238

  17203  2 005645   200352 221300                    LDX1  ! OUTDCB#+1,,AUTO
         2 005646   000001 702211                    TSX2  ! 1,X1

     1504    17204
     1505    17205    2       IF DO_OK AND NOT DO_CMD AND TSTRING = 'DO'

  17205  2 005647   200363 234100                    SZN     DO_OK,,AUTO
         2 005650   005665 605000 2                  TPL     s:17212
         2 005651   200364 234100                    SZN     DO_CMD,,AUTO
         2 005652   005665 604000 2                  TMI     s:17212
         2 005653   040000 106500                    CMPC    fill='040'O
         2 005654   200360 000005                    ADSC9   TSTRING,,AUTO            cn=0,n=5
         2 005655   000351 000002 0                  ADSC9   XUH_PARAM_C+61           cn=0,n=2
         2 005656   005665 601000 2                  TNZ     s:17212

     1506    17206    3       THEN DO;

     1507    17207    3           DO_CMD = %YES# ;

  17207  2 005657   400000 236003                    LDQ     -131072,DU
         2 005660   200364 756100                    STQ     DO_CMD,,AUTO

     1508    17208    3           LOW_CHAR = HIGH_CHAR - 1;

  17208  2 005661   200354 235100                    LDA     HIGH_CHAR,,AUTO
         2 005662   000001 135007                    SBLA    1,DL
         2 005663   200353 755100                    STA     LOW_CHAR,,AUTO

     1509    17209    3           GOTO FIND_START_CHAR;

  17209  2 005664   005547 710000 2                  TRA     FIND_START_CHAR

     1510    17210    3       END;
     1511    17211
     1512    17212    2       IF NOT DO_CMD

PL6.E3A0      #001=XUG$COMMON File=XUG$COMMON.:E05TSI                            WED 07/30/97 09:17 Page:239
  17212  2 005665   200364 234100                    SZN     DO_CMD,,AUTO
         2 005666   005700 604000 2                  TMI     s:17218

     1513    17213    3       THEN DO;

     1514    17214    3           XUG.HELP_TOPIC.COUNT = LENGTH;

  17214  2 005667   200220 473500                    LDP3    XUG$,,AUTO
         2 005670   200355 236100                    LDQ     LENGTH,,AUTO
         2 005671   000033 736000                    QLS     27
         2 005672   300246 552140                    STBQ    166,'40'O,PR3

     1515    17215    3           XUG.HELP_TOPIC.TEXT = SUBSTR (STRING, LOW_CHAR, LENGTH);

  17215  2 005673   200355 720100                    LXL0    LENGTH,,AUTO
         2 005674   040100 100545                    MLR     fill='040'O
         2 005675   000000 000010                    ADSC9   0,A,PR0                  cn=0,n=*X0
         2 005676   300246 200077                    ADSC9   166,,PR3                 cn=1,n=63

     1516    17216    3       END;

  17216  2 005677   005714 710000 2                  TRA     s:17222

     1517    17217    3       ELSE DO;

     1518    17218    3           XUG.HELP_TOPIC.COUNT = LENGTH + 7;

  17218  2 005700   200220 473500                    LDP3    XUG$,,AUTO
         2 005701   200355 236100                    LDQ     LENGTH,,AUTO
         2 005702   000007 036007                    ADLQ    7,DL
         2 005703   000033 736000                    QLS     27
         2 005704   300246 552140                    STBQ    166,'40'O,PR3

     1519    17219    3           CALL CONCAT(XUG.HELP_TOPIC.TEXT, '(IBEX) ',

  17219  2 005705   040100 100400                    MLR     fill='040'O
         2 005706   000352 000007 0                  ADSC9   XUH_PARAM_C+62           cn=0,n=7
PL6.E3A0      #001=XUG$COMMON File=XUG$COMMON.:E05TSI                            WED 07/30/97 09:17 Page:240
         2 005707   300246 200007                    ADSC9   166,,PR3                 cn=1,n=7
         2 005710   200355 720100                    LXL0    LENGTH,,AUTO
         2 005711   040100 100545                    MLR     fill='040'O
         2 005712   000000 000010                    ADSC9   0,A,PR0                  cn=0,n=*X0
         2 005713   300250 000070                    ADSC9   168,,PR3                 cn=0,n=56

     1520    17220    3             SUBSTR (STRING, LOW_CHAR, LENGTH));
     1521    17221    3       END;

     1522    17222    2       XUG.DIVERT_TO_HELP = %YES#;

  17222  2 005714   200220 470500                    LDP0    XUG$,,AUTO
         2 005715   400000 236007                    LDQ     -131072,DL
         2 005716   000071 256100                    ORSQ    57,,PR0

     1523    17223
     1524    17224    2       RETURN;

  17224  2 005717   200352 221300                    LDX1  ! OUTDCB#+1,,AUTO
         2 005720   000001 702211                    TSX2  ! 1,X1

     1525    17225
     1526    17226    2   END FETCH_HELP_TOPIC;
     1527    17227        %EJECT;
PL6.E3A0      #001=XUG$COMMON File=XUG$COMMON.:E05TSI                            WED 07/30/97 09:17 Page:241
     1528    17228    1   SCAN_RECORD: PROC (INCR, LOW, HIGH) ;

  17228  2 005721   200352 741300       SCAN_RECORD  STX1  ! OUTDCB#+1,,AUTO

     1529    17229
     1530    17230    2   DCL INCR SBIN WORD ;
     1531    17231    2   DCL LOW SBIN WORD ;
     1532    17232    2   DCL HIGH SBIN WORD ;
     1533    17233
     1534    17234    2   DCL I SBIN WORD ;
     1535    17235    2   DCL LAST SBIN WORD ;
     1536    17236    2   DCL CHARVAL UBIN WORD ;
     1537    17237    2   DCL CURCHAR$ PTR ;
     1538    17238    2   DCL CUR$CHAR CHAR(1) BASED(CURCHAR$) ;
     1539    17239
     1540    17240    2       CURCHAR$ = VBASE(XUG.BUFVEC) ;

  17240  2 005722   200220 470500                    LDP0    XUG$,,AUTO
         2 005723   000001 236100                    LDQ     1,,PR0
         2 005724   200361 756100                    STQ     CURCHAR$,,AUTO

     1541    17241    2       CURCHAR$ = PINCRC(CURCHAR$, LOW) ;

  17241  2 005725   200354 471500                    LDP1    @LOW,,AUTO
         2 005726   100000 236100                    LDQ     0,,PR1
         2 005727   000020 736000                    QLS     16
         2 005730   200361 036100                    ADLQ    CURCHAR$,,AUTO
         2 005731   200361 756100                    STQ     CURCHAR$,,AUTO

     1542    17242    2       LAST = LOW ;

  17242  2 005732   100000 235100                    LDA     0,,PR1
         2 005733   200357 755100                    STA     LAST,,AUTO

     1543    17243
     1544    17244    3   SCAN: DO I=0 TO 5 ;

PL6.E3A0      #001=XUG$COMMON File=XUG$COMMON.:E05TSI                            WED 07/30/97 09:17 Page:242
  17244  2 005734   200356 450100       SCAN         STZ     I,,AUTO

     1545    17245    3           CHARVAL = ASCBIN(CUR$CHAR) ;

  17245  2 005735   200361 470500                    LDP0    CURCHAR$,,AUTO
         2 005736   000100 101500                    MRL     fill='000'O
         2 005737   000000 000001                    ADSC9   0,,PR0                   cn=0,n=1
         2 005740   200432 000004                    ADSC9   LEGAL_TEXTC+17,,AUTO     cn=0,n=4
         2 005741   200432 236100                    LDQ     LEGAL_TEXTC+17,,AUTO
         2 005742   200360 756100                    STQ     CHARVAL,,AUTO

     1546    17246    3           IF CHARVAL <= ASCBIN(' ') OR CHARVAL > 127

  17246  2 005743   000041 116007                    CMPQ    33,DL
         2 005744   005771 602000 2                  TNC     s:17256
         2 005745   000200 116007                    CMPQ    128,DL
         2 005746   005771 603000 2                  TRC     s:17256

     1547    17247    3           THEN
     1548    17248    3               EXIT SCAN ;
     1549    17249    3           IF SYMTTBL.GENERIC_DSTRING(CHARVAL) AND NOT SYMTTBL.FID(CHARVAL)

  17249  2 005747   000000 236006 xsym               LDQ     XUP_SYMTBL,QL
         2 005750   000200 316003                    CANQ    128,DU
         2 005751   005755 600000 2                  TZE     s:17252
         2 005752   200360 720100                    LXL0    CHARVAL,,AUTO
         2 005753   000000 234010 xsym               SZN     XUP_SYMTBL,X0
         2 005754   005771 605000 2                  TPL     s:17256

     1550    17250    3           THEN
     1551    17251    3               EXIT SCAN ;
     1552    17252    3           LAST = LAST + INCR ;

  17252  2 005755   200353 471500                    LDP1    @INCR,,AUTO
         2 005756   200357 236100                    LDQ     LAST,,AUTO
         2 005757   100000 036100                    ADLQ    0,,PR1
         2 005760   200357 756100                    STQ     LAST,,AUTO
PL6.E3A0      #001=XUG$COMMON File=XUG$COMMON.:E05TSI                            WED 07/30/97 09:17 Page:243

     1553    17253    3           CURCHAR$ = PINCRC(CURCHAR$, INCR) ;

  17253  2 005761   100000 236100                    LDQ     0,,PR1
         2 005762   000020 736000                    QLS     16
         2 005763   200361 036100                    ADLQ    CURCHAR$,,AUTO
         2 005764   200361 756100                    STQ     CURCHAR$,,AUTO

     1554    17254    3       END SCAN ;

  17254  2 005765   200356 054100                    AOS     I,,AUTO
         2 005766   200356 235100                    LDA     I,,AUTO
         2 005767   000005 115007                    CMPA    5,DL
         2 005770   005735 604400 2                  TMOZ    s:17245

     1555    17255
     1556    17256    2       IF INCR > 0

  17256  2 005771   200353 470500                    LDP0    @INCR,,AUTO
         2 005772   000000 235100                    LDA     0,,PR0
         2 005773   006000 604400 2                  TMOZ    s:17261

     1557    17257    2       THEN                            /* Right motion */
     1558    17258    2           HIGH = LAST ;

  17258  2 005774   200355 471500                    LDP1    @HIGH,,AUTO
         2 005775   200357 236100                    LDQ     LAST,,AUTO
         2 005776   100000 756100                    STQ     0,,PR1
         2 005777   006006 710000 2                  TRA     s:17265

     1559    17259    2       ELSE                            /* Left motion */
     1560    17260    3       DO ;

     1561    17261    3           HIGH = LOW ;

  17261  2 006000   200354 471500                    LDP1    @LOW,,AUTO
         2 006001   200355 473500                    LDP3    @HIGH,,AUTO
PL6.E3A0      #001=XUG$COMMON File=XUG$COMMON.:E05TSI                            WED 07/30/97 09:17 Page:244
         2 006002   100000 235100                    LDA     0,,PR1
         2 006003   300000 755100                    STA     0,,PR3

     1562    17262    3           LOW = LAST ;

  17262  2 006004   200357 236100                    LDQ     LAST,,AUTO
         2 006005   100000 756100                    STQ     0,,PR1

     1563    17263    3       END ;                        /* Else Do */

     1564    17264
     1565    17265    2       RETURN ;

  17265  2 006006   200352 221300                    LDX1  ! OUTDCB#+1,,AUTO
         2 006007   000001 702211                    TSX2  ! 1,X1

     1566    17266    2   END     SCAN_RECORD ;
     1567    17267        %EJECT;
PL6.E3A0      #001=XUG$COMMON File=XUG$COMMON.:E05TSI                            WED 07/30/97 09:17 Page:245
     1568    17268    1   SPELLING_CHECKER: PROC (QM_REQUIRED) ALTRET;

  17268  2 006010   200352 741300       SPELLING_CH* STX1  ! OUTDCB#+1,,AUTO

     1569    17269
     1570    17270        /*I*  NAME:    SPELLING_CHECKER
     1571    17271              DESCRIPTION: This routine drives spelling-error detection for keywords
     1572    17272                       in commands.  It is called with a single flag, which (if true)
     1573    17273                       indicates that the first non-alphabetic character at or to the
     1574    17274                       right of the point of error must be a "?" (this is used to
     1575    17275                       request partial-prefix-known displays, such as the IBEX
     1576    17276                       command "!TERMINAL P?" to determine all options which begin
     1577    17277                       with the letter P.  SPELLING_CHECKER contains the special
     1578    17278                       interfaces to X$PARSE and XUS$CORRECT.  Its RETURN/ALTRETURN
     1579    17279                       behavior is inverted from the normal style - it ALTRETURNS if
     1580    17280                       it is able to suggest one or more alternative/completed
     1581    17281                       spellings of a keyword, and RETURNs if it cannot.
     1582    17282        */
     1583    17283
     1584    17284    2   DCL QM_REQUIRED BIT (1) ALIGNED PARAM ;
     1585    17285
     1586    17286    2   DCL BADCHAR SBIN WORD;
     1587    17287    2   DCL FIRSTCHAR SBIN WORD;
     1588    17288    2   DCL FIRST_LEGAL$ PTR;
     1589    17289    2   DCL KEYWORDS$ PTR;
     1590    17290    2   DCL KEYWORDS_FOUND SBIN WORD;
     1591    17291    2   DCL LASTCHAR SBIN WORD;
     1592    17292    2   DCL LEGAL_BITS (0:0) BIT (1) BASED UNAL;
     1593    17293    2   DCL LEN SBIN WORD;
     1594    17294    2   DCL NCHARS SBIN WORD;
     1595    17295    2   DCL QM_HIT BIT (1);
     1596    17296    2   DCL SAVED_HI_CHAR SBIN WORD;
     1597    17297    2   DCL SAVED_HINODE$ PTR;
     1598    17298    2   DCL SAVED_WK_USED SBIN WORD;
     1599    17299    2   DCL STRING$ PTR;
     1600    17300    2   DCL STRING CHAR (NCHARS) BASED (STRING$);
     1601    17301
PL6.E3A0      #001=XUG$COMMON File=XUG$COMMON.:E05TSI                            WED 07/30/97 09:17 Page:246
     1602    17302    2   DCL 1 TEXTC,
     1603    17303    2         2 COUNT UBIN BYTE CALIGNED,
     1604    17304    2         2 TEXT CHAR (63);
     1605    17305
     1606    17306    2   DCL 1 LEGAL_TEXTC,
     1607    17307    2         2 COUNT UBIN BYTE CALIGNED,
     1608    17308    2         2 TEXT CHAR (63);
     1609    17309
     1610    17310    2   DCL 1 BASED_TEXTC BASED ALIGNED,
     1611    17311    2         2 COUNT UBIN BYTE CALIGNED,
     1612    17312    2         2 TEXT CHAR (63);
     1613    17313
     1614    17314        %P$KEYWORDS (STCLASS="BASED(KEYWORDS$)");
     1615    17332
     1616    17333    2       XUG.SPELLING_TRIED = %YES#;

  17333  2 006011   200220 470500                    LDP0    XUG$,,AUTO
         2 006012   000001 236003                    LDQ     1,DU
         2 006013   000071 256100                    ORSQ    57,,PR0

     1617    17334    2       BADCHAR = P_PCB.HI_CHAR;

  17334  2 006014   200224 471500                    LDP1    P_PCB$,,AUTO
         2 006015   100012 235100                    LDA     10,,PR1
         2 006016   200354 755100                    STA     BADCHAR,,AUTO

     1618    17335    2       NCHARS = P_PCB.NCHARS;

  17335  2 006017   100011 235100                    LDA     9,,PR1
         2 006020   200363 755100                    STA     NCHARS,,AUTO

     1619    17336    2       STRING$ = VBASE (XUG.BUFVEC);

  17336  2 006021   000001 236100                    LDQ     1,,PR0
         2 006022   200370 756100                    STQ     STRING$,,AUTO

     1620    17337
PL6.E3A0      #001=XUG$COMMON File=XUG$COMMON.:E05TSI                            WED 07/30/97 09:17 Page:247
     1621    17338    2       IF BADCHAR >= NCHARS

  17338  2 006023   200354 236100                    LDQ     BADCHAR,,AUTO
         2 006024   200363 116100                    CMPQ    NCHARS,,AUTO
         2 006025   006030 604000 2                  TMI     s:17342

     1622    17339    2       THEN
     1623    17340    2           RETURN;

  17340  2 006026   200352 221300                    LDX1  ! OUTDCB#+1,,AUTO
         2 006027   000001 702211                    TSX2  ! 1,X1

     1624    17341
     1625    17342    2       IF SUBSTR (STRING, BADCHAR, 1) ~= '?'

  17342  2 006030   200370 473500                    LDP3    STRING$,,AUTO
         2 006031   040000 106506                    CMPC    fill='040'O
         2 006032   300000 000001                    ADSC9   0,Q,PR3                  cn=0,n=1
         2 006033   000024 000001 3                  ADSC9   20                       cn=0,n=1
         2 006034   006046 600000 2                  TZE     s:17347
         2 006035   000100 101506                    MRL     fill='000'O
         2 006036   300000 000001                    ADSC9   0,Q,PR3                  cn=0,n=1
         2 006037   200432 000004                    ADSC9   LEGAL_TEXTC+17,,AUTO     cn=0,n=4
         2 006040   200432 236100                    LDQ     LEGAL_TEXTC+17,,AUTO
         2 006041   000000 236006 xsym               LDQ     XUP_SYMTBL,QL
         2 006042   040000 316003                    CANQ    16384,DU
         2 006043   006046 601000 2                  TNZ     s:17347

     1626    17343    2         AND NOT SYMTTBL.ALPHA (ASCBIN(SUBSTR(STRING, BADCHAR, 1)))
     1627    17344    2       THEN
     1628    17345    2           RETURN;

  17345  2 006044   200352 221300                    LDX1  ! OUTDCB#+1,,AUTO
         2 006045   000001 702211                    TSX2  ! 1,X1

     1629    17346
     1630    17347    2       FIRSTCHAR = BADCHAR;
PL6.E3A0      #001=XUG$COMMON File=XUG$COMMON.:E05TSI                            WED 07/30/97 09:17 Page:248

  17347  2 006046   200354 236100                    LDQ     BADCHAR,,AUTO
         2 006047   200355 756100                    STQ     FIRSTCHAR,,AUTO

     1631    17348
     1632    17349    3       DO WHILE FIRSTCHAR > 0;

  17349  2 006050   006065 604400 2                  TMOZ    s:17359

     1633    17350
     1634    17351    3           IF NOT SYMTTBL.ALPHA (ASCBIN(SUBSTR(STRING, FIRSTCHAR - 1, 1)))

  17351  2 006051   200370 470500                    LDP0    STRING$,,AUTO
         2 006052   200355 235100                    LDA     FIRSTCHAR,,AUTO
         2 006053   000100 101505                    MRL     fill='000'O
         2 006054   077777 600001                    ADSC9   -1,A,PR0                 cn=3,n=1
         2 006055   200432 000004                    ADSC9   LEGAL_TEXTC+17,,AUTO     cn=0,n=4
         2 006056   200432 236100                    LDQ     LEGAL_TEXTC+17,,AUTO
         2 006057   000000 236006 xsym               LDQ     XUP_SYMTBL,QL
         2 006060   040000 316003                    CANQ    16384,DU
         2 006061   006065 600000 2                  TZE     s:17359

     1635    17352    3           THEN
     1636    17353    3               EXIT;
     1637    17354
     1638    17355    3           FIRSTCHAR = FIRSTCHAR - 1;

  17355  2 006062   000001 336007                    LCQ     1,DL
         2 006063   200355 056100                    ASQ     FIRSTCHAR,,AUTO

     1639    17356
     1640    17357    3       END;

  17357  2 006064   006051 605400 2                  TPNZ    s:17351

     1641    17358
     1642    17359    2       LASTCHAR = FIRSTCHAR;
PL6.E3A0      #001=XUG$COMMON File=XUG$COMMON.:E05TSI                            WED 07/30/97 09:17 Page:249

  17359  2 006065   200355 235100                    LDA     FIRSTCHAR,,AUTO
         2 006066   200361 755100                    STA     LASTCHAR,,AUTO

     1643    17360
     1644    17361    3       DO WHILE LASTCHAR < NCHARS - 1;

  17361  2 006067   006102 710000 2                  TRA     s:17369

     1645    17362
     1646    17363    3           IF NOT SYMTTBL.ALPHA (ASCBIN(SUBSTR(STRING, LASTCHAR + 1, 1)))

  17363  2 006070   200370 470500                    LDP0    STRING$,,AUTO
         2 006071   200361 235100                    LDA     LASTCHAR,,AUTO
         2 006072   000100 101505                    MRL     fill='000'O
         2 006073   000000 200001                    ADSC9   0,A,PR0                  cn=1,n=1
         2 006074   200432 000004                    ADSC9   LEGAL_TEXTC+17,,AUTO     cn=0,n=4
         2 006075   200432 236100                    LDQ     LEGAL_TEXTC+17,,AUTO
         2 006076   000000 236006 xsym               LDQ     XUP_SYMTBL,QL
         2 006077   040000 316003                    CANQ    16384,DU
         2 006100   006106 600000 2                  TZE     s:17371

     1647    17364    3           THEN
     1648    17365    3               EXIT;
     1649    17366
     1650    17367    3           LASTCHAR = LASTCHAR + 1;

  17367  2 006101   200361 054100                    AOS     LASTCHAR,,AUTO

     1651    17368
     1652    17369    3       END;

  17369  2 006102   200363 236100                    LDQ     NCHARS,,AUTO
         2 006103   000001 136007                    SBLQ    1,DL
         2 006104   200361 116100                    CMPQ    LASTCHAR,,AUTO
         2 006105   006070 605400 2                  TPNZ    s:17363

PL6.E3A0      #001=XUG$COMMON File=XUG$COMMON.:E05TSI                            WED 07/30/97 09:17 Page:250
     1653    17370
     1654    17371    2       LEN = LASTCHAR - FIRSTCHAR + 1;

  17371  2 006106   200361 236100                    LDQ     LASTCHAR,,AUTO
         2 006107   200355 136100                    SBLQ    FIRSTCHAR,,AUTO
         2 006110   000001 036007                    ADLQ    1,DL
         2 006111   200362 756100                    STQ     LEN,,AUTO

     1655    17372
     1656    17373    2       IF LEN <= 0

  17373  2 006112   006115 605400 2                  TPNZ    s:17377

     1657    17374    2       THEN
     1658    17375    2           RETURN;

  17375  2 006113   200352 221300                    LDX1  ! OUTDCB#+1,,AUTO
         2 006114   000001 702211                    TSX2  ! 1,X1

     1659    17376
     1660    17377    2       QM_HIT = %NO#;

  17377  2 006115   200364 450100                    STZ     QM_HIT,,AUTO

     1661    17378
     1662    17379    2       IF LASTCHAR < NCHARS - 1

  17379  2 006116   200363 236100                    LDQ     NCHARS,,AUTO
         2 006117   000001 136007                    SBLQ    1,DL
         2 006120   200361 116100                    CMPQ    LASTCHAR,,AUTO
         2 006121   006132 604400 2                  TMOZ    s:17385

     1663    17380    2       THEN
     1664    17381    2           IF SUBSTR (STRING, LASTCHAR + 1, 1) = '?'

  17381  2 006122   200370 470500                    LDP0    STRING$,,AUTO
         2 006123   200361 235100                    LDA     LASTCHAR,,AUTO
PL6.E3A0      #001=XUG$COMMON File=XUG$COMMON.:E05TSI                            WED 07/30/97 09:17 Page:251
         2 006124   040000 106505                    CMPC    fill='040'O
         2 006125   000000 200001                    ADSC9   0,A,PR0                  cn=1,n=1
         2 006126   000024 000001 3                  ADSC9   20                       cn=0,n=1
         2 006127   006132 601000 2                  TNZ     s:17385

     1665    17382    2           THEN
     1666    17383    2               QM_HIT = %YES#;

  17383  2 006130   400000 236003                    LDQ     -131072,DU
         2 006131   200364 756100                    STQ     QM_HIT,,AUTO

     1667    17384
     1668    17385    2       TEXTC.COUNT = LEN;

  17385  2 006132   200362 236100                    LDQ     LEN,,AUTO
         2 006133   000033 736000                    QLS     27
         2 006134   200371 552140                    STBQ    TEXTC,'40'O,AUTO

     1669    17386    2       CALL XLATE (TEXTC.TEXT, TRANSTBL, SUBSTR (STRING, FIRSTCHAR, LEN));

  17386  2 006135   200370 470500                    LDP0    STRING$,,AUTO
         2 006136   200362 720100                    LXL0    LEN,,AUTO
         2 006137   200355 235100                    LDA     FIRSTCHAR,,AUTO
         2 006140   000000 471400 xsym               LDP1    B$XL_UPPER$
         2 006141   040100 160545                    MVT     fill='040'O
         2 006142   000000 000010                    ADSC9   0,A,PR0                  cn=0,n=*X0
         2 006143   200371 200077                    ADSC9   TEXTC,,AUTO              cn=1,n=63
         2 006144   100000 000100                    ARG     0,,PR1

     1670    17387
     1671    17388    2       IF QM_REQUIRED AND NOT QM_HIT

  17388  2 006145   200353 473500                    LDP3    @QM_REQUIRED,,AUTO
         2 006146   300000 234100                    SZN     0,,PR3
         2 006147   006157 605000 2                  TPL     s:17394
         2 006150   200364 234100                    SZN     QM_HIT,,AUTO
         2 006151   006157 604000 2                  TMI     s:17394
PL6.E3A0      #001=XUG$COMMON File=XUG$COMMON.:E05TSI                            WED 07/30/97 09:17 Page:252

     1672    17389    3       THEN DO;

     1673    17390    3           XUG.SPELLING_TRIED = %NO#;

  17390  2 006152   200220 474500                    LDP4    XUG$,,AUTO
         2 006153   000031 236000 3                  LDQ     25
         2 006154   400071 356100                    ANSQ    57,,PR4

     1674    17391    3           RETURN;

  17391  2 006155   200352 221300                    LDX1  ! OUTDCB#+1,,AUTO
         2 006156   000001 702211                    TSX2  ! 1,X1

     1675    17392    3       END;
     1676    17393
     1677    17394    2       SAVED_HI_CHAR = P_PCB.HI_CHAR;

  17394  2 006157   200224 474500                    LDP4    P_PCB$,,AUTO
         2 006160   400012 235100                    LDA     10,,PR4
         2 006161   200365 755100                    STA     SAVED_HI_CHAR,,AUTO

     1678    17395    2       SAVED_WK_USED = P_PCB.WK_USED;

  17395  2 006162   400010 236100                    LDQ     8,,PR4
         2 006163   000022 772000                    QRL     18
         2 006164   200367 756100                    STQ     SAVED_WK_USED,,AUTO

     1679    17396    2       SAVED_HINODE$ = P_PCB.HINODE$;

  17396  2 006165   400013 236100                    LDQ     11,,PR4
         2 006166   200366 756100                    STQ     SAVED_HINODE$,,AUTO

     1680    17397
     1681    17398    2       P_PCB.HI_CHAR = FIRSTCHAR;

  17398  2 006167   200355 235100                    LDA     FIRSTCHAR,,AUTO
PL6.E3A0      #001=XUG$COMMON File=XUG$COMMON.:E05TSI                            WED 07/30/97 09:17 Page:253
         2 006170   400012 755100                    STA     10,,PR4

     1682    17399    2       P_PCB.KEYWORDS = %YES#;

  17399  2 006171   010000 236007                    LDQ     4096,DL
         2 006172   400005 256100                    ORSQ    5,,PR4

     1683    17400    2       P_PCB.ERROR = '0'B;

  17400  2 006173   400006 450100                    STZ     6,,PR4

     1684    17401    2       P_PCB.NXT_SZONLY = %YES#;

  17401  2 006174   002000 236007                    LDQ     1024,DL
         2 006175   400005 256100                    ORSQ    5,,PR4

     1685    17402    2       XUG.PARSING_FREE_CMDS = %NO#;

  17402  2 006176   200220 475500                    LDP5    XUG$,,AUTO
         2 006177   000033 236000 3                  LDQ     27
         2 006200   500266 356100                    ANSQ    182,,PR5

     1686    17403
     1687    17404    2       CALL X$PARSE (P_PCB);

  17404  2 006201   200224 630500                    EPPR0   P_PCB$,,AUTO
         2 006202   000017 631400 xsym               EPPR1   B_VECTNIL+15
         2 006203   000000 701000 xent               TSX1    X$PARSE
         2 006204   000000 011000                    NOP     0

     1688    17405    2       P_PCB.NXT_SZONLY = %NO#;

  17405  2 006205   200224 470500                    LDP0    P_PCB$,,AUTO
         2 006206   000053 236000 3                  LDQ     43
         2 006207   000005 356100                    ANSQ    5,,PR0

     1689    17406    2       CALL X$PARSE (P_PCB);
PL6.E3A0      #001=XUG$COMMON File=XUG$COMMON.:E05TSI                            WED 07/30/97 09:17 Page:254

  17406  2 006210   200224 630500                    EPPR0   P_PCB$,,AUTO
         2 006211   000017 631400 xsym               EPPR1   B_VECTNIL+15
         2 006212   000000 701000 xent               TSX1    X$PARSE
         2 006213   000000 011000                    NOP     0

     1690    17407
     1691    17408    2       P_PCB.KEYWORDS = %NO#;

  17408  2 006214   200224 470500                    LDP0    P_PCB$,,AUTO
         2 006215   000054 236000 3                  LDQ     44
         2 006216   000005 356100                    ANSQ    5,,PR0

     1692    17409
     1693    17410    2       IF P_PCB.ERROR.MON OR P_PCB.ERROR.CODE ~= %E$SYNERR

  17410  2 006217   000006 236100                    LDQ     6,,PR0
         2 006220   400000 316007                    CANQ    -131072,DL
         2 006221   006552 601000 2                  TNZ     CORRECTION_FAILED
         2 006222   000006 236100                    LDQ     6,,PR0
         2 006223   377770 376007                    ANQ     131064,DL
         2 006224   000010 116007                    CMPQ    8,DL
         2 006225   006552 601000 2                  TNZ     CORRECTION_FAILED

     1694    17411    2       THEN
     1695    17412    2           GOTO CORRECTION_FAILED;
     1696    17413
     1697    17414    2       KEYWORDS$ = P_PCB.OUT$;

  17414  2 006226   000003 236100                    LDQ     3,,PR0
         2 006227   200357 756100                    STQ     KEYWORDS$,,AUTO

     1698    17415
     1699    17416    2       KEYWORDS_FOUND = P$KEYWORDS.KEYWORD_COUNT;

  17416  2 006230   200357 471500                    LDP1    KEYWORDS$,,AUTO
         2 006231   100000 235100                    LDA     0,,PR1
PL6.E3A0      #001=XUG$COMMON File=XUG$COMMON.:E05TSI                            WED 07/30/97 09:17 Page:255
         2 006232   200360 755100                    STA     KEYWORDS_FOUND,,AUTO

     1700    17417
     1701    17418    2       IF KEYWORDS_FOUND = 0

  17418  2 006233   006552 600000 2                  TZE     CORRECTION_FAILED

     1702    17419    2       THEN
     1703    17420    2           GOTO CORRECTION_FAILED;
     1704    17421
     1705    17422    2       CALL XUS$CORRECT_SPELLING (P$KEYWORDS.KEYWORD_COUNT, P$KEYWORDS.KEYWORDS$,

  17422  2 006234   100001 473500                    LDP3    1,,PR1
         2 006235   200436 453500                    STP3    LEGAL_TEXTC+21,,AUTO
         2 006236   000036 236000 3                  LDQ     30
         2 006237   200435 756100                    STQ     LEGAL_TEXTC+20,,AUTO
         2 006240   200371 634500                    EPPR4   TEXTC,,AUTO
         2 006241   200434 454500                    STP4    LEGAL_TEXTC+19,,AUTO
         2 006242   200357 236100                    LDQ     KEYWORDS$,,AUTO
         2 006243   000002 036003                    ADLQ    2,DU
         2 006244   200357 235100                    LDA     KEYWORDS$,,AUTO
         2 006245   200432 757100                    STAQ    LEGAL_TEXTC+17,,AUTO
         2 006246   200432 630500                    EPPR0   LEGAL_TEXTC+17,,AUTO
         2 006247   000023 631400 xsym               EPPR1   B_VECTNIL+19
         2 006250   000000 701000 xent               TSX1    XUS$CORRECT_SPELLING
         2 006251   000000 011000                    NOP     0

     1706    17423    2         TEXTC, %YES#, P$KEYWORDS.LEGAL$ -> LEGAL_BITS);
     1707    17424
     1708    17425    2       FIRST_LEGAL$ = ADDR(NIL);

  17425  2 006252   000001 236000 xsym               LDQ     B_VECTNIL+1
         2 006253   200356 756100                    STQ     FIRST_LEGAL$,,AUTO

     1709    17426
     1710    17427    3       DO I = 0 TO KEYWORDS_FOUND - 1;

PL6.E3A0      #001=XUG$COMMON File=XUG$COMMON.:E05TSI                            WED 07/30/97 09:17 Page:256
  17427  2 006254   200250 450100                    STZ     I,,AUTO
         2 006255   006330 710000 2                  TRA     s:17443+1

     1711    17428
     1712    17429    3           IF LEN <= 2 AND NOT P$KEYWORDS.LEGAL$ -> LEGAL_BITS(I) AND

  17429  2 006256   200362 235100                    LDA     LEN,,AUTO
         2 006257   000002 115007                    CMPA    2,DL
         2 006260   006310 605400 2                  TPNZ    s:17438
         2 006261   200357 470500                    LDP0    KEYWORDS$,,AUTO
         2 006262   000001 471500                    LDP1    1,,PR0
         2 006263   200250 236100                    LDQ     I,,AUTO
         2 006264   006266 605000 2                  TPL     s:17429+8
         2 006265   000044 036003                    ADLQ    36,DU
         2 006266   000000 066506                    CMPB    filb='0'B
         2 006267   100000 000001                    BDSC    0,Q,PR1                  by=0,bit=0,n=1
         2 006270   000002 000022 xsym               BDSC    B_VECTNIL+2              by=0,bit=0,n=18
         2 006271   006310 601000 2                  TNZ     s:17438
         2 006272   200250 720100                    LXL0    I,,AUTO
         2 006273   000002 473510                    LDP3    2,X0,PR0
         2 006274   000000 621005                    EAX1    0,AL
         2 006275   040140 106500                    CMPC    fill='040'O
         2 006276   200371 200077                    ADSC9   TEXTC,,AUTO              cn=1,n=63
         2 006277   300000 200011                    ADSC9   0,,PR3                   cn=1,n=*X1
         2 006300   006310 601000 2                  TNZ     s:17438

     1713    17430    3             TEXTC.TEXT = SUBSTR(P$KEYWORDS.KEYWORDS$(I) -> BASED_TEXTC.TEXT, 0, LEN)
     1714    17431    4           THEN DO;

     1715    17432
     1716    17433    4               P$KEYWORDS.LEGAL$ -> LEGAL_BITS(I) = %YES#;

  17433  2 006301   200250 235100                    LDA     I,,AUTO
         2 006302   006304 605000 2                  TPL     s:17433+3
         2 006303   000044 035003                    ADLA    36,DU
         2 006304   003105 060400                    CSL     bolr='003'O
         2 006305   000030 000001 xsym               BDSC    B_VECTNIL+24             by=0,bit=0,n=1
PL6.E3A0      #001=XUG$COMMON File=XUG$COMMON.:E05TSI                            WED 07/30/97 09:17 Page:257
         2 006306   100000 000001                    BDSC    0,A,PR1                  by=0,bit=0,n=1

     1717    17434    4               P$KEYWORDS.KEYWORD_COUNT = P$KEYWORDS.KEYWORD_COUNT + 1;

  17434  2 006307   000000 054100                    AOS     0,,PR0

     1718    17435
     1719    17436    4           END;

     1720    17437
     1721    17438    3           IF P$KEYWORDS.LEGAL$ -> LEGAL_BITS(I)

  17438  2 006310   200357 470500                    LDP0    KEYWORDS$,,AUTO
         2 006311   000001 471500                    LDP1    1,,PR0
         2 006312   200250 235100                    LDA     I,,AUTO
         2 006313   006315 605000 2                  TPL     s:17438+5
         2 006314   000044 035003                    ADLA    36,DU
         2 006315   000000 066505                    CMPB    filb='0'B
         2 006316   100000 000001                    BDSC    0,A,PR1                  by=0,bit=0,n=1
         2 006317   000002 000022 xsym               BDSC    B_VECTNIL+2              by=0,bit=0,n=18
         2 006320   006327 600000 2                  TZE     s:17443
         2 006321   200356 236100                    LDQ     FIRST_LEGAL$,,AUTO
         2 006322   000001 116000 xsym               CMPQ    B_VECTNIL+1
         2 006323   006327 601000 2                  TNZ     s:17443

     1722    17439    3             AND FIRST_LEGAL$ = ADDR(NIL)
     1723    17440    3           THEN
     1724    17441    3               FIRST_LEGAL$ = P$KEYWORDS.KEYWORDS$(I);

  17441  2 006324   200250 720100                    LXL0    I,,AUTO
         2 006325   000002 236110                    LDQ     2,X0,PR0
         2 006326   200356 756100                    STQ     FIRST_LEGAL$,,AUTO

     1725    17442
     1726    17443    3       END;

  17443  2 006327   200250 054100                    AOS     I,,AUTO
PL6.E3A0      #001=XUG$COMMON File=XUG$COMMON.:E05TSI                            WED 07/30/97 09:17 Page:258
         2 006330   200250 236100                    LDQ     I,,AUTO
         2 006331   200360 116100                    CMPQ    KEYWORDS_FOUND,,AUTO
         2 006332   006256 604000 2                  TMI     s:17429

     1727    17444
     1728    17445    2       GETCMD.F1_ = VECTOR (TEXTC);

  17445  2 006333   000055 235000 3                  LDA     45
         2 006334   200432 452500                    STP2    LEGAL_TEXTC+17,,AUTO
         2 006335   200432 236100                    LDQ     LEGAL_TEXTC+17,,AUTO
         2 006336   000371 036003                    ADLQ    249,DU
         2 006337   200003 470500                    LDP0    @GETCMD,,AUTO
         2 006340   000017 755100                    STA     15,,PR0
         2 006341   000020 756100                    STQ     16,,PR0

     1729    17446
     1730    17447    2       IF FIRST_LEGAL$ = ADDR(NIL)

  17447  2 006342   200356 236100                    LDQ     FIRST_LEGAL$,,AUTO
         2 006343   000001 116000 xsym               CMPQ    B_VECTNIL+1
         2 006344   006351 601000 2                  TNZ     s:17457

     1731    17448    2       THEN
     1732    17449    2           GETCMD.F2_ = VECTOR(NIL);

  17449  2 006345   000004 237000 3                  LDAQ    4
         2 006346   000021 755100                    STA     17,,PR0
         2 006347   000022 756100                    STQ     18,,PR0
         2 006350   006452 710000 2                  TRA     s:17482

     1733    17450
     1734    17451    3       ELSE DO;

     1735    17452
     1736    17453        /*N* KLUGE - similar to the one in XUP$DMPNXT.  Beware - if the format of
     1737    17454             P$LIT ever changes, this may explode messily.
     1738    17455        */
PL6.E3A0      #001=XUG$COMMON File=XUG$COMMON.:E05TSI                            WED 07/30/97 09:17 Page:259
     1739    17456
     1740    17457    3           FIRST_LEGAL$ = PINCRW(FIRST_LEGAL$, -1);

  17457  2 006351   777777 036003                    ADLQ    -1,DU
         2 006352   200356 756100                    STQ     FIRST_LEGAL$,,AUTO

     1741    17458
     1742    17459    3           IF FIRST_LEGAL$ -> P$LIT.ABREV = 0

  17459  2 006353   200356 471500                    LDP1    FIRST_LEGAL$,,AUTO
         2 006354   100000 236100                    LDQ     0,,PR1
         2 006355   000056 316000 3                  CANQ    46
         2 006356   006370 601000 2                  TNZ     s:17469

     1743    17460    4           THEN DO;

     1744    17461
     1745    17462    4               LEGAL_TEXTC.COUNT = FIRST_LEGAL$ -> P$LIT.COUNT;

  17462  2 006357   100001 236100                    LDQ     1,,PR1
         2 006360   200411 552140                    STBQ    LEGAL_TEXTC,'40'O,AUTO

     1746    17463    4               LEGAL_TEXTC.TEXT = FIRST_LEGAL$ -> P$LIT.TEXT;

  17463  2 006361   100001 236100                    LDQ     1,,PR1
         2 006362   000033 772000                    QRL     27
         2 006363   000000 620006                    EAX0    0,QL
         2 006364   040100 100540                    MLR     fill='040'O
         2 006365   100001 200010                    ADSC9   1,,PR1                   cn=1,n=*X0
         2 006366   200411 200077                    ADSC9   LEGAL_TEXTC,,AUTO        cn=1,n=63

     1747    17464
     1748    17465    4           END;

  17465  2 006367   006444 710000 2                  TRA     s:17478

     1749    17466
PL6.E3A0      #001=XUG$COMMON File=XUG$COMMON.:E05TSI                            WED 07/30/97 09:17 Page:260
     1750    17467    4           ELSE DO;

     1751    17468
     1752    17469    4               LEGAL_TEXTC.COUNT = FIRST_LEGAL$ -> P$LIT.COUNT + 1;

  17469  2 006370   100001 236100                    LDQ     1,,PR1
         2 006371   000033 772000                    QRL     27
         2 006372   000001 036007                    ADLQ    1,DL
         2 006373   000033 736000                    QLS     27
         2 006374   200411 552140                    STBQ    LEGAL_TEXTC,'40'O,AUTO

     1753    17470    4               LEGAL_TEXTC.TEXT = FIRST_LEGAL$ -> P$LIT.TEXT;

  17470  2 006375   100001 236100                    LDQ     1,,PR1
         2 006376   000033 772000                    QRL     27
         2 006377   000000 620006                    EAX0    0,QL
         2 006400   040100 100540                    MLR     fill='040'O
         2 006401   100001 200010                    ADSC9   1,,PR1                   cn=1,n=*X0
         2 006402   200411 200077                    ADSC9   LEGAL_TEXTC,,AUTO        cn=1,n=63

     1754    17471
     1755    17472    4               SUBSTR (LEGAL_TEXTC.TEXT, FIRST_LEGAL$ -> P$LIT.ABREV) = '/';

  17472  2 006403   100000 236100                    LDQ     0,,PR1
         2 006404   000020 772000                    QRL     16
         2 006405   000377 376007                    ANQ     255,DL
         2 006406   777700 620006                    EAX0    -64,QL
         2 006407   777777 660003                    ERX0    -1,DU
         2 006410   040146 100400                    MLR     fill='040'O
         2 006411   000057 000001 3                  ADSC9   47                       cn=0,n=1
         2 006412   200411 200010                    ADSC9   LEGAL_TEXTC,Q,AUTO       cn=1,n=*X0

     1756    17473    4               SUBSTR (LEGAL_TEXTC.TEXT, FIRST_LEGAL$ -> P$LIT.ABREV + 1) =

  17473  2 006413   100000 236100                    LDQ     0,,PR1
         2 006414   000020 772000                    QRL     16
         2 006415   000377 376007                    ANQ     255,DL
PL6.E3A0      #001=XUG$COMMON File=XUG$COMMON.:E05TSI                            WED 07/30/97 09:17 Page:261
         2 006416   777701 620006                    EAX0    -63,QL
         2 006417   777777 660003                    ERX0    -1,DU
         2 006420   200432 756100                    STQ     LEGAL_TEXTC+17,,AUTO
         2 006421   100001 236100                    LDQ     1,,PR1
         2 006422   000033 772000                    QRL     27
         2 006423   000000 621006                    EAX1    0,QL
         2 006424   100000 236100                    LDQ     0,,PR1
         2 006425   000020 772000                    QRL     16
         2 006426   000377 376007                    ANQ     255,DL
         2 006427   200433 756100                    STQ     LEGAL_TEXTC+18,,AUTO
         2 006430   000000 636011                    EAQ     0,X1
         2 006431   000022 772000                    QRL     18
         2 006432   200433 136100                    SBLQ    LEGAL_TEXTC+18,,AUTO
         2 006433   200434 756100                    STQ     LEGAL_TEXTC+19,,AUTO
         2 006434   100000 236100                    LDQ     0,,PR1
         2 006435   000020 772000                    QRL     16
         2 006436   000377 376007                    ANQ     255,DL
         2 006437   200434 721100                    LXL1    LEGAL_TEXTC+19,,AUTO
         2 006440   200432 235100                    LDA     LEGAL_TEXTC+17,,AUTO
         2 006441   040145 100546                    MLR     fill='040'O
         2 006442   100001 200011                    ADSC9   1,Q,PR1                  cn=1,n=*X1
         2 006443   200411 400010                    ADSC9   LEGAL_TEXTC,A,AUTO       cn=2,n=*X0

     1757    17474    4                 SUBSTR (FIRST_LEGAL$ -> P$LIT.TEXT, FIRST_LEGAL$ -> P$LIT.ABREV);
     1758    17475
     1759    17476    4           END;

     1760    17477
     1761    17478    3           GETCMD.F2_ = VECTOR (LEGAL_TEXTC);

  17478  2 006444   000055 235000 3                  LDA     45
         2 006445   200432 452500                    STP2    LEGAL_TEXTC+17,,AUTO
         2 006446   200432 236100                    LDQ     LEGAL_TEXTC+17,,AUTO
         2 006447   000411 036003                    ADLQ    265,DU
         2 006450   000021 755100                    STA     17,,PR0
         2 006451   000022 756100                    STQ     18,,PR0

PL6.E3A0      #001=XUG$COMMON File=XUG$COMMON.:E05TSI                            WED 07/30/97 09:17 Page:262
     1762    17479
     1763    17480    3       END;

     1764    17481
     1765    17482    2       IF P$KEYWORDS.KEYWORD_COUNT = 0

  17482  2 006452   200357 471500                    LDP1    KEYWORDS$,,AUTO
         2 006453   100000 235100                    LDA     0,,PR1
         2 006454   006460 601000 2                  TNZ     s:17486

     1766    17483    2       THEN
     1767    17484    2           GETCMD.ERR_CODE = XUG#NO_MATCH;

  17484  2 006455   000202 236000 0                  LDQ     XUG#NO_MATCH
         2 006456   000010 756100                    STQ     8,,PR0
         2 006457   006514 710000 2                  TRA     s:17523

     1768    17485    2       ELSE
     1769    17486    2           IF QM_HIT

  17486  2 006460   200364 234100                    SZN     QM_HIT,,AUTO
         2 006461   006505 605000 2                  TPL     s:17498

     1770    17487    2           THEN
     1771    17488    2               IF P$KEYWORDS.KEYWORD_COUNT = 1

  17488  2 006462   000001 115007                    CMPA    1,DL
         2 006463   006502 601000 2                  TNZ     s:17496

     1772    17489    2               THEN
     1773    17490    2                   IF TEXTC.TEXT = FIRST_LEGAL$ -> P$LIT.TEXT

  17490  2 006464   200356 473500                    LDP3    FIRST_LEGAL$,,AUTO
         2 006465   300001 236100                    LDQ     1,,PR3
         2 006466   000033 772000                    QRL     27
         2 006467   000000 620006                    EAX0    0,QL
         2 006470   040140 106500                    CMPC    fill='040'O
PL6.E3A0      #001=XUG$COMMON File=XUG$COMMON.:E05TSI                            WED 07/30/97 09:17 Page:263
         2 006471   200371 200077                    ADSC9   TEXTC,,AUTO              cn=1,n=63
         2 006472   300001 200010                    ADSC9   1,,PR3                   cn=1,n=*X0
         2 006473   006477 601000 2                  TNZ     s:17494

     1774    17491    2                   THEN
     1775    17492    2                       GETCMD.ERR_CODE = XUG#NO_OTHER_CHOICE;

  17492  2 006474   000201 236000 0                  LDQ     XUG#NO_OTHER_CHOICE
         2 006475   000010 756100                    STQ     8,,PR0
         2 006476   006514 710000 2                  TRA     s:17523

     1776    17493    2                   ELSE
     1777    17494    2                       GETCMD.ERR_CODE = XUG#SINGLE_CHOICE;

  17494  2 006477   000177 236000 0                  LDQ     XUG#SINGLE_CHOICE
         2 006500   000010 756100                    STQ     8,,PR0
         2 006501   006514 710000 2                  TRA     s:17523

     1778    17495    2               ELSE
     1779    17496    2                   GETCMD.ERR_CODE = XUG#MULTI_CHOICE;

  17496  2 006502   000200 236000 0                  LDQ     XUG#MULTI_CHOICE
         2 006503   000010 756100                    STQ     8,,PR0
         2 006504   006514 710000 2                  TRA     s:17523

     1780    17497    2           ELSE
     1781    17498    2               IF P$KEYWORDS.KEYWORD_COUNT = 1

  17498  2 006505   000001 115007                    CMPA    1,DL
         2 006506   006512 601000 2                  TNZ     s:17502

     1782    17499    2               THEN
     1783    17500    2                   GETCMD.ERR_CODE = XUG#SINGLE_LEGAL;

  17500  2 006507   000175 236000 0                  LDQ     XUG#SINGLE_LEGAL
         2 006510   000010 756100                    STQ     8,,PR0
         2 006511   006514 710000 2                  TRA     s:17523
PL6.E3A0      #001=XUG$COMMON File=XUG$COMMON.:E05TSI                            WED 07/30/97 09:17 Page:264

     1784    17501    2               ELSE
     1785    17502    2                   GETCMD.ERR_CODE = XUG#MULTI_LEGAL;

  17502  2 006512   000176 236000 0                  LDQ     XUG#MULTI_LEGAL
         2 006513   000010 756100                    STQ     8,,PR0

     1786    17503
     1787    17504        /*E*  ERROR:   XUG-E$XUG#MULTI_LEGAL
     1788    17505              MESSAGE:"%U1" is not legal here.  You might have meant one of:
     1789    17506        */
     1790    17507        /*E*  ERROR:   XUG-E$XUG#SINGLE_LEGAL
     1791    17508              MESSAGE:"%U1" is not legal here.  You might have meant "%U2", instead.
     1792    17509        */
     1793    17510        /*E*  ERROR:   XUG-E$XUG#MULTI_CHOICE
     1794    17511              MESSAGE:Legal words which resemble "%U1" include:
     1795    17512        */
     1796    17513        /*E*  ERROR:   XUG-E$XUG#SINGLE_CHOICE
     1797    17514              MESSAGE:The only legal word which resembles "%U1" is "%U2".
     1798    17515        */
     1799    17516        /*E*  ERROR:   XUG-E$XUG#NO_OTHER_CHOICE
     1800    17517              MESSAGE:"%U1" is legal here;  no other legal word resembles it.
     1801    17518        */
     1802    17519        /*E*  ERROR:   XUG-E$XUG#NO_MATCH
     1803    17520              MESSAGE:"%U1" does not resemble any word which is legal here.
     1804    17521        */
     1805    17522
     1806    17523    2       CALL XUG$ERRMSG_COMMON (GETCMD);

  17523  2 006514   200003 630500                    EPPR0   @GETCMD,,AUTO
         2 006515   000017 631400 xsym               EPPR1   B_VECTNIL+15
         2 006516   000000 701000 xent               TSX1    XUG$ERRMSG_COMMON
         2 006517   000000 011000                    NOP     0

     1807    17524
     1808    17525    2       IF P$KEYWORDS.KEYWORD_COUNT > 1

PL6.E3A0      #001=XUG$COMMON File=XUG$COMMON.:E05TSI                            WED 07/30/97 09:17 Page:265
  17525  2 006520   200357 470500                    LDP0    KEYWORDS$,,AUTO
         2 006521   000000 235100                    LDA     0,,PR0
         2 006522   000001 115007                    CMPA    1,DL
         2 006523   006532 604400 2                  TMOZ    s:17534

     1809    17526    3       THEN DO;

     1810    17527
     1811    17528    3           P$KEYWORDS.KEYWORD_COUNT = KEYWORDS_FOUND;

  17528  2 006524   200360 236100                    LDQ     KEYWORDS_FOUND,,AUTO
         2 006525   000000 756100                    STQ     0,,PR0

     1812    17529
     1813    17530    3           CALL XUP$DMPCORRECTED (P_PCB);

  17530  2 006526   200224 630500                    EPPR0   P_PCB$,,AUTO
         2 006527   000017 631400 xsym               EPPR1   B_VECTNIL+15
         2 006530   000000 701000 xent               TSX1    XUP$DMPCORRECTED
         2 006531   000000 011000                    NOP     0

     1814    17531
     1815    17532    3       END;

     1816    17533
     1817    17534    2       P_PCB.HI_CHAR = SAVED_HI_CHAR;

  17534  2 006532   200365 235100                    LDA     SAVED_HI_CHAR,,AUTO
         2 006533   200224 470500                    LDP0    P_PCB$,,AUTO
         2 006534   000012 755100                    STA     10,,PR0

     1818    17535    2       P_PCB.WK_USED = SAVED_WK_USED;

  17535  2 006535   200367 720100                    LXL0    SAVED_WK_USED,,AUTO
         2 006536   000010 740100                    STX0    8,,PR0

     1819    17536    2       P_PCB.HINODE$ = SAVED_HINODE$;
PL6.E3A0      #001=XUG$COMMON File=XUG$COMMON.:E05TSI                            WED 07/30/97 09:17 Page:266

  17536  2 006537   200366 236100                    LDQ     SAVED_HINODE$,,AUTO
         2 006540   000013 756100                    STQ     11,,PR0

     1820    17537
     1821    17538    2       IF P$KEYWORDS.KEYWORD_COUNT = 0

  17538  2 006541   200357 471500                    LDP1    KEYWORDS$,,AUTO
         2 006542   100000 235100                    LDA     0,,PR1
         2 006543   006550 601000 2                  TNZ     s:17543
         2 006544   200364 234100                    SZN     QM_HIT,,AUTO
         2 006545   006550 604000 2                  TMI     s:17543

     1822    17539    2         AND NOT QM_HIT
     1823    17540    2       THEN
     1824    17541    2           RETURN;

  17541  2 006546   200352 221300                    LDX1  ! OUTDCB#+1,,AUTO
         2 006547   000001 702211                    TSX2  ! 1,X1

     1825    17542    2       ELSE
     1826    17543    2           ALTRETURN;

  17543  2 006550   200352 221300                    LDX1  ! OUTDCB#+1,,AUTO
         2 006551   000000 702211                    TSX2  ! 0,X1

     1827    17544
     1828    17545    2   CORRECTION_FAILED:
     1829    17546
     1830    17547    2       P_PCB.HI_CHAR = SAVED_HI_CHAR;

  17547  2 006552   200365 235100       CORRECTION_* LDA     SAVED_HI_CHAR,,AUTO
         2 006553   000012 755100                    STA     10,,PR0

     1831    17548    2       P_PCB.WK_USED = SAVED_WK_USED;

  17548  2 006554   200367 720100                    LXL0    SAVED_WK_USED,,AUTO
PL6.E3A0      #001=XUG$COMMON File=XUG$COMMON.:E05TSI                            WED 07/30/97 09:17 Page:267
         2 006555   000010 740100                    STX0    8,,PR0

     1832    17549    2       P_PCB.HINODE$ = SAVED_HINODE$;

  17549  2 006556   200366 236100                    LDQ     SAVED_HINODE$,,AUTO
         2 006557   000013 756100                    STQ     11,,PR0

     1833    17550
     1834    17551    2       RETURN;

  17551  2 006560   200352 221300                    LDX1  ! OUTDCB#+1,,AUTO
         2 006561   000001 702211                    TSX2  ! 1,X1
     1835    17552
     1836    17553    2   END SPELLING_CHECKER;
     1837    17554        %EJECT;
PL6.E3A0      #001=XUG$COMMON File=XUG$COMMON.:E05TSI                            WED 07/30/97 09:17 Page:268
     1838    17555    1   END XUG$COMMON;
     1839    17556        %EOD;

PL6.E3A0      #001=XUG$COMMON File=XUG$COMMON.:E05TSI                            WED 07/30/97 09:17 Page:269
--  Include file information  --

   B_SEGIDS_C.:E05TOU  is referenced.
   CP_6_SUBS.:E05TOU  is referenced.
   CP_6_C.:E05TOU  is referenced.
   CP_6.:E05TOU  cannot be made into a system file and is referenced.
   XU_DATA_R.:E05TOU  cannot be made into a system file and is referenced.
   XU_SUBS_C.:E05TOU  is referenced.
   XU_PERR_C.:E05TOU  is referenced.
   XT_MACRO_M.:TOOLE04  is referenced.
   XUH_MACRO_C.:E05TOU  is referenced.
   XU_MACRO_C.:E05TOU  is referenced.
   NK_VFC_C.:E05TOU  is referenced.
   B$TABLES_C.:E05TOU  cannot be made into a system file and is referenced.
   B$JIT_C.:E05TOU  is referenced.
   B$JIT.:E05TOU  cannot be made into a system file and is referenced.
      No diagnostics issued in procedure XUG$COMMON.
PL6.E3A0      #001=XUG$COMMON File=XUG$COMMON.:E05TSI                            WED 07/30/97 09:17 Page:270

 **** Variables and constants ****

  ****  Section 000 RoData XUG$COMMON

  ****  Scalars and arrays  ****
OctLoc.c.b A Datatyp(siz) R M Lvl/name                 OctLoc.c.b A Datatyp(siz) R M Lvl/name

    22-0-0/d STRC(216)   r     1 FPT_GDS_C                160-0-0/d STRC(72)    r     1 FPT_MERC_C
    56-0-0/d STRC(2088)  r     1 FPT_OPEN_C                44-0-0/d STRC(360)   r     1 FPT_PROMPT_C
   150-0-0/d STRC(288)   r     1 FPT_SINPUT_C              30-0-0/d STRC(432)   r     1 FPT_WRITE_C
    20-0-0/c STRC(45)    r     1 M$LO                      16-0-0/c STRC(45)    r     1 M$SI
     0-0-0/w STRC(504)   r     1 P_PCB_C                  164-0-0/w STRC        r     1 XUG#AREANOTRTSZ
   165-0-0/w STRC        r     1 XUG#CANTEXPAND           203-0-0/w STRC        r     1 XUG#FOLLOWED_BY
   171-0-0/w STRC        r     1 XUG#INCOR_HERE           170-0-0/w STRC        r     1 XUG#INCOR_HERE_XPND
   167-0-0/w STRC        r     1 XUG#INCOR_PTD_XPND       173-0-0/w STRC        r     1 XUG#LEGAL_INPUT_HERE
   174-0-0/w STRC        r     1 XUG#LEGAL_INPUT_QM       206-0-0/w STRC        r     1 XUG#LINETOOLONG
   200-0-0/w STRC        r     1 XUG#MULTI_CHOICE         176-0-0/w STRC        r     1 XUG#MULTI_LEGAL
   163-0-0/w STRC        r     1 XUG#NOTCONTIGAREA        202-0-0/w STRC        r     1 XUG#NO_MATCH
   201-0-0/w STRC        r     1 XUG#NO_OTHER_CHOICE      204-0-0/w STRC        r     1 XUG#NULLROOT
   172-0-0/w STRC        r     1 XUG#NWALIGNED            166-0-0/w STRC        r     1 XUG#PLERRMSG
   205-0-0/w STRC        r     1 XUG#PRE_C00              177-0-0/w STRC        r     1 XUG#SINGLE_CHOICE
   175-0-0/w STRC        r     1 XUG#SINGLE_LEGAL         162-0-0/w STRC        r     1 XUG#SMALLWORK
   210-0-0/d STRC(1296)  r     1 XUG_INIT_C               254-0-0/d STRC(2052)  r     1 XUH_PARAM_C

  ****  Auto variables  ****

  ****  Scalars and arrays  ****
OctLoc.c.b A Datatyp(siz) R M Lvl/name                 OctLoc.c.b A Datatyp(siz) R M Lvl/name

     3-0-0/w PTR         r     1 @GETCMD                  355-0-0/w PTR         r     1 @HIGH
   353-0-0/w PTR         r     1 @INCR                    354-0-0/w PTR         r     1 @LOW
   354-0-0/w PTR         r     1 @OFFSET                  353-0-0/w PTR         r     1 @QM_REQUIRED
   355-0-0/w PTR         r     1 @SIZ                     353-0-0/w PTR         r     1 @VEC
     4-0-0/w PTR         r     1 @XUG_INIT                244-0-0/w SBIN        r     1 ARS
   354-0-0/w SBIN        r     1 BADCHAR                  362-0-0/b BIT         r     1 BANG_OK
   360-0-0/w UBIN        r     1 CHARVAL                  257-0-0/w SBIN        r     1 CHUNK_SIZE
   350-0-0/w SBIN        r     1 CNT                      254-0-0/w SBIN        r     1 CSIZE
PL6.E3A0      #001=XUG$COMMON File=XUG$COMMON.:E05TSI                            WED 07/30/97 09:17 Page:271
   361-0-0/w PTR         r     1 CURCHAR$                 347-0-0/w SBIN        r     1 DIFF
   364-0-0/b BIT         r     1 DO_CMD                   363-0-0/b BIT         r     1 DO_OK
   227-0-0/w PTR         r     1 DUMMY$                   252-0-0/w SBIN        r     1 EPOS
   332-0-0/w STRC(189)   r     1 FIELD1                   340-0-0/w STRC(189)   r     1 FIELD2
   313-0-0/w SBIN        r     1 FIRST                    355-0-0/w SBIN        r     1 FIRSTCHAR
   356-0-0/w PTR         r     1 FIRST_LEGAL$              10-0-0/d STRC(216)   r     1 FPT_GDS
   150-0-0/d STRC(72)    r     1 FPT_MERC                  46-0-0/d STRC(2088)  r     1 FPT_OPEN
    34-0-0/d STRC(360)   r     1 FPT_PROMPT               140-0-0/d STRC(288)   r     1 FPT_SINPUT
    20-0-0/d STRC(432)   r     1 FPT_WRITE                360-0-0/w PTR         r     1 FROM$
   234-0-0/d VECT        r     1 GDSVEC                    *0-0-0/d STRC(1512)  r     1 GETCMD
    *0-0-0/w SBIN        r     1 HIGH                     354-0-0/w SBIN        r     1 HIGH_CHAR
   250-0-0/w SBIN        r     1 I                        356-0-0/w SBIN        r     1 I
    *0-0-0/w SBIN        r     1 INCR                     251-0-0/w SBIN        r     1 J
   356-0-0/w SBIN        r     1 J                        357-0-0/w PTR         r     1 KEYWORDS$
   360-0-0/w SBIN        r     1 KEYWORDS_FOUND           314-0-0/w SBIN        r     1 LAST
   357-0-0/w SBIN        r     1 LAST                     361-0-0/w SBIN        r     1 LASTCHAR
   411-0-0/c STRC(576)   r     1 LEGAL_TEXTC              362-0-0/w SBIN        r     1 LEN
   355-0-0/w SBIN        r     1 LENGTH                    *0-0-0/w SBIN        r     1 LOW
   353-0-0/w SBIN        r     1 LOW_CHAR                 356-0-0/w SBIN        r     1 NCHARS
   363-0-0/w SBIN        r     1 NCHARS                   226-0-0/w PTR         r     1 NODES$
   346-0-0/w PTR         r     1 OFF$                     260-0-0/w SBIN        r     1 OFFSET
    *0-0-0/w UBIN        r     1 OFFSET                   351-0-0/w UBIN        r     1 OUTDCB#
   261-0-0/w SBIN        r     1 OUTPUT_COUNT             262-0-0/w SBIN        r     1 OUTPUT_WIDTH
   256-0-0/w SBIN        r     1 POFF                       5-0-0/w PTR         r     1 PR$
   263-0-0/c CHAR(94)    r     1 PROMPT_BUF               245-0-0/w BIT         r     1 PROMPT_FLG
     6-0-0/w SBIN        r     1 PSIZ                     224-0-0/w PTR         r     1 P_PCB$
   364-0-0/b BIT         r     1 QM_HIT                    *0-0-0/w BIT         r     1 QM_REQUIRED
   241-0-0/w SBIN        r     1 RLT_SZ                   225-0-0/w PTR         r     1 ROOT$
   232-0-0/w STRC        r     1 RSEG                     354-0-0/w PTR         r     1 SAVED_HINODE$
   366-0-0/w PTR         r     1 SAVED_HINODE$            353-0-0/w SBIN        r     1 SAVED_HI_CHAR
   365-0-0/w SBIN        r     1 SAVED_HI_CHAR            355-0-0/w SBIN        r     1 SAVED_WK_USED
   367-0-0/w SBIN        r     1 SAVED_WK_USED            324-0-0/w UBIN        r     1 SAVE_DCB
   323-0-0/b BIT         r     1 SAVE_ERR                 326-0-0/d VECT        r     1 SAVE_F1
   330-0-0/d VECT        r     1 SAVE_F2                  316-0-0/d VECT        r     1 SAVE_PROMPT_
   322-0-0/b BIT         r     1 SAVE_PROMPT_VFC          320-0-0/d VECT        r     1 SAVE_RPROMPT_
   232-0-0/w PTR         r     1 SEG$                      *0-0-0/w UBIN        r     1 SIZ
   237-0-0/w SBIN        r     1 STATIC_SZ                357-0-0/w PTR         r     1 STRING$
PL6.E3A0      #001=XUG$COMMON File=XUG$COMMON.:E05TSI                            WED 07/30/97 09:17 Page:272
   370-0-0/w PTR         r     1 STRING$                  255-0-0/w SBIN        r     1 TCSIZE
   152-0-0/w STRC        r     1 TEMP_ERR                 230-0-0/w PTR         r     1 TEXT$
   371-0-0/c STRC(576)   r     1 TEXTC                    231-0-0/w PTR         r     1 TO$
   357-0-0/w PTR         r     1 TO$                      253-0-0/w SBIN        r     1 TPOS
   360-0-0/c CHAR(5)     r     1 TSTRING                  247-0-0/c CHAR(2)     r     1 TWOCHARS
    16-0-0/d VECT        r     1 USER_GDSVEC               *0-0-0/d VECT        r     1 VEC
   243-0-0/w SBIN        r     1 WBUFSZ                   242-0-0/w SBIN        r     1 WOFF
   240-0-0/w SBIN        r     1 WORK_SZ                  221-0-0/w PTR         r     1 XT$
   222-0-0/d VECT        r     1 XT_                      220-0-0/w PTR         r     1 XUG$
    *0-0-0/d STRC(1296)  r     1 XUG_INIT                 154-0-0/d STRC(1296)  r     1 XUG_INIT_A
   236-0-0/b BIT         r     1 XUG_OWNS_MEMORY

  ****  SYMREF variables  ****

  ****  Scalars and arrays  ****
OctLoc.c.b A Datatyp(siz) R M Lvl/name                 OctLoc.c.b A Datatyp(siz) R M Lvl/name

     0-0-0/w PTR         r     1 B$JIT$                     0-0-0/w PTR         r     1 B$TCB$
     0-0-0/w PTR         r     1 B$XL_UPPER$                0-0-0/b STRC        r     1 SYMTTBL(0:127)
     0-0-0/w UBIN        r     1 XUG_NODES
     0-0-0/b BIT         r     1 XUP_SYMTBL(0:127)

  ****  BASED and DCB variables  ****

  ****  Scalars and arrays  ****
OctLoc.c.b A Datatyp(siz) R M Lvl/name                 OctLoc.c.b A Datatyp(siz) R M Lvl/name

     0-0-0/w STRC(2448)  r     1 B$ALT                      0-0-0/d STRC(8856)  r     1 B$JIT
     0-0-0/w STRC(144)   r     1 B$TCB                      0-0-0/w STRC(576)   r     1 BASED_TEXTC
     0-0-0/c ACHR        r     1 CHARBASE                   0-0-0/c CHAR        r     1 CUR$CHAR
     0-0-0/d ASTR(3528)  r     1 F$DCB                      0-0-0/c CHAR(1024)  r     1 INBUF
     0-0-0/b BIT         r     1 LEGAL_BITS(0:0)
     0-0-0N  NULL        r     1 M$UC                       0-0-0/c CHAR        r     1 ONECHAR
     0-0-0/w STRC(144)   r     1 P$B                        0-0-0/w STRC(108)   r     1 P$KEYWORDS
     0-0-0/w ASTR(45)    r     1 P$LIT                      0-0-0/w STRC(72)    r     1 P$NODE
     0-0-0/c ASTR(0)     r     1 PROMPT$C                   0-0-0/w STRC(504)   r     1 P_PCB
     0-0-0/c UBIN(9)     r     1 RLT(0:0)                   0-0-0/c ACHR        r     1 STRING
PL6.E3A0      #001=XUG$COMMON File=XUG$COMMON.:E05TSI                            WED 07/30/97 09:17 Page:273
     0-0-0/c ACHR        r     1 STRING                     0-0-0/d STRC(4608)  r     1 TRANSTBL
     0-0-0/b UBIN(9)     r     1 UBIN$BUF9                  0-0-0/c ACHR        r     1 VEC$BUF
     0-0-0/d BIT (72)    r     1 WDS(0:0)                   0-0-0/w STRC(1152)  r     1 XT_PARAM
     0-0-0/d STRC(9612)  r     1 XUG


   Procedure XUG$COMMON requires 3442 words for executable code.
   Procedure XUG$COMMON requires 288 words of local(AUTO) storage.
PL6.E3A0      #001=XUG$COMMON File=XUG$COMMON.:E05TSI                            WED 07/30/97 09:17 Page:274
          *** CROSS REFERENCE LISTING ***
**     DENOTES     IDENTIFIER DEFINITION
<<                 IDENTIFIER'S VALUE SET
>>                 IDENTIFIER'S VALUE USED
<>                 IDENTIFIER SET AND/OR USED
--                 IDENTIFIER REFERENCED
PL6.E3A0      #001=XUG$COMMON File=XUG$COMMON.:E05TSI                            WED 07/30/97 09:17 Page:275
          MINI XREF LISTING

ALT_OUT
     16326**LABEL   16630--GOTO
ARS
     15844**DCL     16281<<ASSIGN  16288<>CALL    16292<>CALL    16296>>ASSIGN  16307<>CALL    16309>>IF
     16350<>CALL    16422<<ASSIGN  16426>>ASSIGN  16429>>IF      16437>>ASSIGN  16441>>ASSIGN  16476>>ASSIGN
     16546<<ASSIGN  16551>>IF      16560>>IF      16560>>IF      16639>>ASSIGN  16658<>CALL    16665>>ASSIGN
     16666>>ASSIGN  16672>>ASSIGN
B$ALT.CODE
     15894**DCL     15894--REDEF   15895--REDEF   15895--REDEF
B$ALT.DCB#
     15895**DCL     16532>>ASSIGN
B$ALT.ERR
     15895**DCL     15976>>ASSIGN  16531>>ASSIGN
B$ALT.ERR.ERR#
     15896**DCL     15896--REDEF
B$ALT.EVID
     15895**DCL     15895--REDEF   15895--REDEF
B$JIT.CCARS
       450**DCL     16390>>ASSIGN  16883>>ASSIGN
B$JIT.CCBUF
       450**DCL     16385--IF      16385--IF      16385--IF      16389--ASSIGN  16876>>ASSIGN  16883>>ASSIGN
B$JIT.CPFLAGS1.SLEAZE
       456**DCL       456--REDEF
B$JIT.ERR.MID
       363**DCL       363--REDEF
B$JIT.JRESPEAK
       524**DCL       525--REDEF
B$JIT.MODE
       357**DCL     16623>>IF
B$JIT.NEXTCC
       504**DCL     16623>>IF
B$JIT.ORIGINATOR_PORT.FROM_CR
PL6.E3A0      #001=XUG$COMMON File=XUG$COMMON.:E05TSI                            WED 07/30/97 09:17 Page:276
       633**DCL       633--REDEF     634--REDEF
B$JIT.PNR
       537**DCL       537--REDEF
B$JIT.PRFLAGS.EXPOUND
       447**DCL     16579>>IF      16628>>IF      16765>>IF      16809>>IF
B$JIT.PRFLAGS.POINT
       447**DCL     16616>>IF      16713>>IF      16765>>IF      16805>>IF
B$JIT.PRFLAGS.POSITION
       447**DCL     16841>>IF      16854>>IF
B$JIT.SINPUTSZ
       511**DCL     16841>>IF
B$JIT.TSLINE
       631**DCL       632--REDEF
B$JIT$
     15887**DCL       357--IMP-PTR 16385>>IF      16385>>IF      16389>>ASSIGN  16390>>ASSIGN  16579>>IF
     16616>>IF      16623>>IF      16623>>IF      16628>>IF      16713>>IF      16765>>IF      16765>>IF
     16805>>IF      16809>>IF      16841>>IF      16841>>IF      16854>>IF      16876>>ASSIGN  16883>>ASSIGN
     16883>>ASSIGN
B$TCB.ALT$
     15890**DCL     15976>>ASSIGN  16531>>ASSIGN  16532>>ASSIGN
B$TCB$
     15888**DCL     15890--IMP-PTR 15976>>ASSIGN  16531>>ASSIGN  16532>>ASSIGN
B$XL_UPPER$
      4631**DCL      4632--IMP-PTR 17199>>CALLBLT 17386>>CALLBLT
BADCHAR IN PROCEDURE SPELLING_CHECKER
     17286**DCL     17334<<ASSIGN  17338>>IF      17342>>IF      17342>>IF      17347>>ASSIGN
BANG_OK IN PROCEDURE FETCH_HELP_TOPIC
     17146**DCL     17150<<ASSIGN  17157<<ASSIGN  17175>>IF
BASED_TEXTC.TEXT IN PROCEDURE SPELLING_CHECKER
     17312**DCL     17429>>IF
CANT_EXPAND_SEGMENT
     16196**LABEL   16107--CALLALT 16119--GOTO    16125--GOTO    16133--GOTO    16144--GOTO
CHARBASE
     15877**DCL     16395>>ASSIGN  16411>>IF      16420<<ASSIGN  16420>>ASSIGN  16730<<ASSIGN  16730>>ASSIGN
     16734<<ASSIGN  16744>>CALLBLT 16750<<ASSIGN  16785>>ASSIGN  16798>>ASSIGN  16869<<ASSIGN  16876<<ASSIGN
     16880<<ASSIGN  16880>>ASSIGN  16883<<ASSIGN  16944>>ASSIGN
PL6.E3A0      #001=XUG$COMMON File=XUG$COMMON.:E05TSI                            WED 07/30/97 09:17 Page:277
CHARVAL IN PROCEDURE SCAN_RECORD
     17236**DCL     17245<<ASSIGN  17246>>IF      17246>>IF      17249>>IF      17249>>IF
CHUNK_SIZE
     15855**DCL     16973<<ASSIGN  16976<<ASSIGN  16976>>ASSIGN  16980>>ASSIGN  16983>>ASSIGN
CNT
     15885**DCL     15882--IMP-SIZ 16018<<ASSIGN  16019>>ASSIGN  16020>>ASSIGN  16025<<ASSIGN  16025>>ASSIGN
     16026>>ASSIGN  16029<<ASSIGN  16033<<ASSIGN  16033>>ASSIGN  16034<<ASSIGN  16034>>ASSIGN  16034>>ASSIGN
     16035>>ASSIGN  16775<<ASSIGN  16780<<ASSIGN  16785>>ASSIGN  16787>>ASSIGN  16930<<ASSIGN  16932<<ASSIGN
     16932>>ASSIGN  16934>>ASSIGN  16951<<ASSIGN  16958>>CALLBLT 16985<<ASSIGN  16985>>ASSIGN  16989<<ASSIGN
     16991<<ASSIGN  16991>>ASSIGN  16993>>ASSIGN
CORRECTION_FAILED IN PROCEDURE SPELLING_CHECKER
     17547**LABEL   17412--GOTO    17420--GOTO
CSIZE
     15852**DCL     15877--IMP-SIZ 16371<<ASSIGN  16375<<ASSIGN  16376>>IF      16395>>ASSIGN  16398<>CALL
     16402<>CALL    16411>>IF      16411>>IF      16419>>ASSIGN  16420>>ASSIGN  16420>>ASSIGN  16422>>ASSIGN
     16729<<ASSIGN  16730>>ASSIGN  16730>>ASSIGN  16733<<ASSIGN  16734>>ASSIGN  16743<<ASSIGN  16744>>CALLBLT
     16749<<ASSIGN  16750>>ASSIGN  16784<<ASSIGN  16785>>ASSIGN  16798>>ASSIGN  16840<<ASSIGN  16841>>IF
     16841>>IF      16867>>ASSIGN  16868<<ASSIGN  16869>>ASSIGN  16871<<ASSIGN  16876>>ASSIGN  16880>>ASSIGN
     16880>>ASSIGN  16883>>ASSIGN  16883>>ASSIGN  16888>>ASSIGN  16943<<ASSIGN  16944>>ASSIGN
CUR$CHAR IN PROCEDURE SCAN_RECORD
     17238**DCL     17245>>ASSIGN
CURCHAR$ IN PROCEDURE SCAN_RECORD
     17237**DCL     17238--IMP-PTR 17240<<ASSIGN  17241<<ASSIGN  17241>>ASSIGN  17245>>ASSIGN  17253<<ASSIGN
     17253>>ASSIGN
DIFF
     15884**DCL     15930<<ASSIGN  15931>>IF      16022<<ASSIGN  16025>>ASSIGN  16032<<ASSIGN  16033>>ASSIGN
DO_CMD IN PROCEDURE FETCH_HELP_TOPIC
     17148**DCL     17151<<ASSIGN  17177<<ASSIGN  17205>>IF      17207<<ASSIGN  17212>>IF
DO_OK IN PROCEDURE FETCH_HELP_TOPIC
     17147**DCL     17152<<ASSIGN  17153>>IF      17205>>IF
DO_SINPUT
     16837**LABEL   16712--GOTO
DUMMY$
     15830**DCL     16127<<ASSIGN  16128>>IF      16463<<ASSIGN  16465>>ASSIGN  16467>>ASSIGN
EAT_IT
     16818**LABEL   16816--CALLALT
PL6.E3A0      #001=XUG$COMMON File=XUG$COMMON.:E05TSI                            WED 07/30/97 09:17 Page:278
EPOS
     15850**DCL     16696<<ASSIGN  16698<<ASSIGN  16699<<ASSIGN  16699>>ASSIGN  16703>>IF      16706>>ASSIGN
     16716>>IF      16716>>IF      16721>>ASSIGN  16727>>IF      16730>>ASSIGN  16732>>IF      16738>>ASSIGN
     16742>>ASSIGN  16745>>IF      16750>>ASSIGN  16751>>ASSIGN  16773>>IF      16777>>ASSIGN  16781>>ASSIGN
     16789>>IF      16791>>ASSIGN  16795>>ASSIGN  16860>>ASSIGN
ERRHAND
     16612**LABEL   16444--GOTO    16523--CALLALT
F$DCB.ACTPOS
     11895**DCL     11895--REDEF
F$DCB.ARS#
     11869**DCL     11869--REDEF
F$DCB.ATTR
     11888**DCL     11889--REDEF
F$DCB.BORROW
     11903**DCL     11903--REDEF   11903--REDEF   11903--REDEF
F$DCB.DCBNAME.L
     11917**DCL     11917--IMP-SIZ
F$DCB.DDEV.UCOUT#
     11876**DCL     16299>>IF      16487>>IF
F$DCB.DDEV.XEQ#
     11876**DCL     16904>>IF
F$DCB.DVBYTE.TRANS#
     11872**DCL     16299>>IF      16923>>IF
F$DCB.EOMCHAR#
     11873**DCL     11873--REDEF
F$DCB.FCD#
     11882**DCL     17043>>IF
F$DCB.FLDID
     11898**DCL     11898--REDEF
F$DCB.FORM$
     11892**DCL     11892--REDEF
F$DCB.FSECT
     11908**DCL     11908--REDEF
F$DCB.FSN#
     11885**DCL     11885--REDEF   11885--REDEF   11886--REDEF
F$DCB.HEADER$
PL6.E3A0      #001=XUG$COMMON File=XUG$COMMON.:E05TSI                            WED 07/30/97 09:17 Page:279
     11891**DCL     11891--REDEF
F$DCB.IXTNSIZE#
     11889**DCL     11889--REDEF
F$DCB.LASTSTA$
     11878**DCL     11878--REDEF
F$DCB.LVL
     11904**DCL     11904--REDEF
F$DCB.NAME#.C
     11879**DCL     11879--REDEF
F$DCB.NOEOF
     11901**DCL     11901--REDEF
F$DCB.NRECS#
     11890**DCL     11890--REDEF
F$DCB.NRECX
     11909**DCL     11909--REDEF
F$DCB.OHDR
     11901**DCL     11901--REDEF
F$DCB.ORG#
     11884**DCL     11884--REDEF
F$DCB.PRECNO
     11907**DCL     11907--REDEF
F$DCB.RCSZ
     11913**DCL     11913--REDEF
F$DCB.RES#
     11880**DCL     11880--REDEF
F$DCB.SETX
     11892**DCL     11892--REDEF
F$DCB.TAB$
     11892**DCL     11892--REDEF
F$DCB.TDA
     11906**DCL     11907--REDEF
F$DCB.WIDTH#
     11876**DCL     16952>>ASSIGN
F$DCB.WSN#
     11880**DCL     11880--REDEF
FETCH_HELP_TOPIC
PL6.E3A0      #001=XUG$COMMON File=XUG$COMMON.:E05TSI                            WED 07/30/97 09:17 Page:280
     17137**PROC    16483--CALL
FIELD1
     15869**DCL     16788--ASSIGN
FIELD1.CNT
     15870**DCL     16787<<ASSIGN
FIELD1.TXT
     15871**DCL     16785<<ASSIGN
FIELD2
     15872**DCL     16801--ASSIGN
FIELD2.CNT
     15873**DCL     16800<<ASSIGN
FIELD2.TXT
     15874**DCL     16798<<ASSIGN
FIND_START_CHAR IN PROCEDURE FETCH_HELP_TOPIC
     17164**LABEL   17209--GOTO
FIRST
     15860**DCL     16776<<ASSIGN  16781<<ASSIGN  16782<>CALL    16785>>ASSIGN  16785>>ASSIGN  16787>>ASSIGN
     16791<<ASSIGN  16795<<ASSIGN  16796>>CALL    16798>>ASSIGN  16798>>ASSIGN  16800>>ASSIGN
FIRSTCHAR IN PROCEDURE SPELLING_CHECKER
     17287**DCL     17347<<ASSIGN  17349>>DOWHILE 17351>>IF      17355<<ASSIGN  17355>>ASSIGN  17359>>ASSIGN
     17371>>ASSIGN  17386>>CALLBLT 17398>>ASSIGN
FIRST_LEGAL$ IN PROCEDURE SPELLING_CHECKER
     17288**DCL     17425<<ASSIGN  17438>>IF      17441<<ASSIGN  17447>>IF      17457<<ASSIGN  17457>>ASSIGN
     17459>>IF      17462>>ASSIGN  17463>>ASSIGN  17463>>ASSIGN  17469>>ASSIGN  17470>>ASSIGN  17470>>ASSIGN
     17472>>ASSIGN  17473>>ASSIGN  17473>>ASSIGN  17473>>ASSIGN  17473>>ASSIGN  17490>>IF      17490>>IF
FPT_GDS
     11962**DCL     15941<<ASSIGN  15974<>CALL    16002<>CALL    16104<<ASSIGN  16107<>CALL
FPT_GDS.RESULTS_
     11962**DCL     15943<<ASSIGN  16106<<ASSIGN
FPT_GDS.V
     11962**DCL     15942--ASSIGN  16105--ASSIGN
FPT_GDS.V_
     11962**DCL     15942<<ASSIGN  16105<<ASSIGN
FPT_GDS_C
     11946**DCL     15941>>ASSIGN  16104>>ASSIGN
FPT_GDS_C.V
PL6.E3A0      #001=XUG$COMMON File=XUG$COMMON.:E05TSI                            WED 07/30/97 09:17 Page:281
     11946**DCL     11946--DCLINIT
FPT_MERC
     12389**DCL     15978<<ASSIGN  15980<>CALL
FPT_MERC.JERR_
     12389**DCL     15979<<ASSIGN
FPT_MERC_C
     12402**DCL     15978>>ASSIGN
FPT_OPEN
     12260**DCL     17045<<ASSIGN  17048<>CALL
FPT_OPEN.ACSVEH_
     12262**DCL     12263--REDEF
FPT_OPEN.ALTKEYS_
     12268**DCL     12269--REDEF   12269--REDEF
FPT_OPEN.HDR_
     12267**DCL     12268--REDEF
FPT_OPEN.TAB_
     12266**DCL     12267--REDEF
FPT_OPEN.UHL_
     12260**DCL     12261--REDEF   12261--REDEF
FPT_OPEN.V
     12269**DCL     17046--ASSIGN
FPT_OPEN.V.DCB#
     12269**DCL     17047<<ASSIGN
FPT_OPEN.V.FSN#
     12300**DCL     12300--REDEF   12300--REDEF
FPT_OPEN.V_
     12260**DCL     17046<<ASSIGN
FPT_OPEN.WSN_
     12266**DCL     12266--REDEF
FPT_OPEN_C
     12151**DCL     17045>>ASSIGN
FPT_OPEN_C.ACSVEH_
     12153**DCL     12154--REDEF
FPT_OPEN_C.ALTKEYS_
     12159**DCL     12160--REDEF   12160--REDEF
FPT_OPEN_C.HDR_
PL6.E3A0      #001=XUG$COMMON File=XUG$COMMON.:E05TSI                            WED 07/30/97 09:17 Page:282
     12158**DCL     12159--REDEF
FPT_OPEN_C.TAB_
     12157**DCL     12158--REDEF
FPT_OPEN_C.UHL_
     12151**DCL     12152--REDEF   12152--REDEF
FPT_OPEN_C.V
     12160**DCL     12151--DCLINIT
FPT_OPEN_C.V.FSN#
     12191**DCL     12191--REDEF   12191--REDEF
FPT_OPEN_C.WSN_
     12157**DCL     12157--REDEF
FPT_PROMPT
     12074**DCL     17000<<ASSIGN  17050<>CALL
FPT_PROMPT.PROMPT_
     12080**DCL     17016<<ASSIGN  17027<<ASSIGN
FPT_PROMPT.V
     12082**DCL     17001--ASSIGN
FPT_PROMPT.V.DCB#
     12082**DCL     17005<<ASSIGN
FPT_PROMPT.V.DVBYTE#.VFC#
     12083**DCL     17026<<ASSIGN
FPT_PROMPT.V_
     12076**DCL     17001<<ASSIGN
FPT_PROMPT_C
     12046**DCL     17000>>ASSIGN
FPT_PROMPT_C.V
     12054**DCL     12048--DCLINIT
FPT_SINPUT
     12357**DCL     16845<<ASSIGN  16889<>CALL
FPT_SINPUT.BUF_
     12364**DCL     16887<<ASSIGN
FPT_SINPUT.BUF_.BOUND
     12364**DCL     16888<<ASSIGN
FPT_SINPUT.V
     12369**DCL     16846--ASSIGN
FPT_SINPUT.V.DCB#
PL6.E3A0      #001=XUG$COMMON File=XUG$COMMON.:E05TSI                            WED 07/30/97 09:17 Page:283
     12369**DCL     16847<<ASSIGN
FPT_SINPUT.V_
     12359**DCL     16846<<ASSIGN
FPT_SINPUT_C
     12320**DCL     16845>>ASSIGN
FPT_SINPUT_C.V
     12332**DCL     12322--DCLINIT
FPT_WRITE
     12016**DCL     16689<<ASSIGN  16755<>CALL    16762<>CALL    16935<<ASSIGN  16981<>CALL
FPT_WRITE.BUF_
     12016**DCL     16691<<ASSIGN  16980<<ASSIGN
FPT_WRITE.BUF_.BOUND
     12016**DCL     16754<<ASSIGN  16761<<ASSIGN
FPT_WRITE.STATION_
     12018**DCL     12018--REDEF
FPT_WRITE.V
     12019**DCL     16690--ASSIGN  16936--ASSIGN
FPT_WRITE.V.DCB#
     12019**DCL     16692<<ASSIGN  16937<<ASSIGN
FPT_WRITE.V.DVBYTE.VFC#
     12025**DCL     12025--REDEF   16693<<ASSIGN  16945<<ASSIGN
FPT_WRITE.V_
     12016**DCL     16690<<ASSIGN  16936<<ASSIGN
FPT_WRITE_C
     11985**DCL     16689>>ASSIGN  16935>>ASSIGN
FPT_WRITE_C.STATION_
     11987**DCL     11987--REDEF
FPT_WRITE_C.V
     11988**DCL     11985--DCLINIT
FPT_WRITE_C.V.DVBYTE.VFC#
     11994**DCL     11994--REDEF
FROM$ IN PROCEDURE MOVER
     17067**DCL     17069<<ASSIGN  17071>>ASSIGN  17074>>ASSIGN
GDSVEC
     15837**DCL     15937<<ASSIGN  15943--ASSIGN  15944<<ASSIGN  15973<<ASSIGN  15985>>ASSIGN  15988>>ASSIGN
     15997>>ASSIGN
PL6.E3A0      #001=XUG$COMMON File=XUG$COMMON.:E05TSI                            WED 07/30/97 09:17 Page:284
GETCMD
     16246**LABEL       8--PROC    15917--ENTRY   16100--ENTRY   16199--ENTRY   16203<>CALL    16239--ASSIGN
     16263<>CALL    16288<>CALL    16292<>CALL    16297<>CALL    16302<>CALL    16306<>CALL    16307<>CALL
     16313<>CALL    16323<>CALL    16330--ASSIGN  16336<>CALL    16343<>CALL    16350<>CALL    16365<>CALL
     16398<>CALL    16402<>CALL    16421<>CALL    16484--ASSIGN  16491<>CALL    16495<>CALL    16523<>CALL
     16529--GOTO    16539<>CALL    16564--ASSIGN  16582<>CALL    16594--GOTO    16618<>CALL    16619<>CALL
     16620<>CALL    16625--GOTO    16642<>CALL    16645--ENTRY   16658<>CALL    16660<>CALL    16675--ENTRY
     16688<>CALL    16816<>CALL    16838--ENTRY   16894--ENTRY   16911--ENTRY   16938<>CALL    16997--ENTRY
     17113<>CALL    17523<>CALL
GETCMD.ALWAYS_SET_PROMPT#
     13966**DCL     16087<<ASSIGN  17009>>ASSIGN  17038>>IF
GETCMD.BUF$
     14155**DCL     16498<<ASSIGN  16542<<ASSIGN
GETCMD.CONTINUED#
     13938**DCL     16272<<ASSIGN  16348<<ASSIGN  16648<<ASSIGN  16841>>IF
GETCMD.DCB_PARAM#
     14058**DCL     16256<<ASSIGN  16679>>IF      16681<<ASSIGN  16682>>IF      16684>>ASSIGN  16687<<ASSIGN
     16769>>ASSIGN  16802<<ASSIGN  16819<<ASSIGN  16896>>IF      16898<<ASSIGN  16899>>IF      16901>>ASSIGN
     16913>>IF      16915<<ASSIGN  16916>>IF      16918>>ASSIGN  16922<<ASSIGN
GETCMD.ECHO
     13998**DCL     16085<<ASSIGN
GETCMD.EOMCHAR#
     14018**DCL     16271<<ASSIGN  16282<<ASSIGN
GETCMD.EPOS#
     13988**DCL     16696>>ASSIGN
GETCMD.ERR#
     13889**DCL     15926<<ASSIGN  15934<<ASSIGN  16006<<ASSIGN  16112<<ASSIGN  16124<<ASSIGN  16131<<ASSIGN
     16143<<ASSIGN  16214<<ASSIGN  16274<<ASSIGN  16354>>IF      16378<<ASSIGN  16440<<ASSIGN  16453<<ASSIGN
     16531<<ASSIGN  16607<<ASSIGN  16612>>ASSIGN  16639<<ASSIGN  16661>>ASSIGN
GETCMD.ERRDCB#
     14037**DCL     16532<<ASSIGN
GETCMD.ERR_CODE
     14026**DCL     16335<<ASSIGN  16581<<ASSIGN  16612<<ASSIGN  16768>>ASSIGN  16807<<ASSIGN  16811<<ASSIGN
     16813<<ASSIGN  16815<<ASSIGN  16818<<ASSIGN  17112<<ASSIGN  17484<<ASSIGN  17492<<ASSIGN  17494<<ASSIGN
     17496<<ASSIGN  17500<<ASSIGN  17502<<ASSIGN
GETCMD.F1_
PL6.E3A0      #001=XUG$COMMON File=XUG$COMMON.:E05TSI                            WED 07/30/97 09:17 Page:285
     14075**DCL     16613<<ASSIGN  16770>>ASSIGN  16788<<ASSIGN  16820<<ASSIGN  17445<<ASSIGN
GETCMD.F2_
     14079**DCL     16614<<ASSIGN  16771>>ASSIGN  16801<<ASSIGN  16821<<ASSIGN  17449<<ASSIGN  17478<<ASSIGN
GETCMD.F3_
     14083**DCL     16615<<ASSIGN
GETCMD.INDCB#
     14049**DCL     16250>>IF      16251<>CALL    16259>>ASSIGN  16847>>ASSIGN  16923--IF      17002>>IF
     17004>>ASSIGN
GETCMD.NLINES
     14194**DCL     16500<<ASSIGN  16544<<ASSIGN
GETCMD.NODES$
     13879**DCL     16210>>IF      16212>>IF      16423>>IF      16450>>IF      16468>>ASSIGN  16471>>ASSIGN
GETCMD.OUT$
     13883**DCL     13889--REDEF   16356<<ASSIGN  16425<<ASSIGN  16452<<ASSIGN  16512<<ASSIGN  16518<<ASSIGN
     16526<<ASSIGN
GETCMD.OUTDCB#
     14054**DCL     16253>>IF      16254<>CALL    16256>>ASSIGN  16257>>ASSIGN  16260>>ASSIGN  16299--IF
     16487--IF      16681>>ASSIGN  16898>>ASSIGN  16915>>ASSIGN
GETCMD.PASS
     14008**DCL     16086<<ASSIGN  16487>>IF      16487>>IF
GETCMD.PCB$
     13903**DCL     16084<<ASSIGN  16132>>ASSIGN
GETCMD.PP_ROOT$
     14183**DCL     16088<<ASSIGN
GETCMD.PROMPT_
     14087**DCL     16240>>ASSIGN  16246<<ASSIGN  17011>>IF      17016>>ASSIGN  17018>>IF      17024>>ASSIGN
     17027>>ASSIGN  17029>>IF      17033>>ASSIGN
GETCMD.PROMPT_VFC#
     13953**DCL     16242>>ASSIGN  16248<<ASSIGN  16716>>IF      17025>>ASSIGN  17026>>ASSIGN  17029>>IF
     17034>>ASSIGN
GETCMD.RCVD_PROMPT#
     13948**DCL     16273<<ASSIGN  16349<<ASSIGN  16417<<ASSIGN  16722>>IF      16850>>IF      16865>>IF
GETCMD.RLT$
     14160**DCL     16499<<ASSIGN  16543<<ASSIGN
GETCMD.RPROMPT_
     14091**DCL     16241>>ASSIGN  16247<<ASSIGN  16939>>IF      16939>>IF      16942>>ASSIGN  16944>>ASSIGN
PL6.E3A0      #001=XUG$COMMON File=XUG$COMMON.:E05TSI                            WED 07/30/97 09:17 Page:286
GETCMD.SFROUTINE$
     14128**DCL     16264>>IF      16265>>ASSIGN
GETCMD.SKIP_PREPROCESS#
     13959**DCL     16284>>IF      16295<<ASSIGN  16393>>IF      16407<<ASSIGN
GETCMD.SYNERR_NODES$
     14167**DCL     16327>>IF      16329>>ASSIGN  16559<<ASSIGN
GETCMD.TEXT_
     14141**DCL     16278>>IF      16318>>IF      16346>>IF      16369>>IF      16375>>ASSIGN  16384>>ASSIGN
     16390>>ASSIGN  16395>>ASSIGN  16408>>ASSIGN  16524>>IF      16592>>IF      16621>>IF      17038>>IF
GETCMD.TREAD#
     13927**DCL     16298<<ASSIGN  16487>>IF      16628>>IF      16722>>IF      16765>>IF      16809>>IF
     16841>>IF
GETCMD.USE_EPOS#
     13921**DCL     16694>>IF
GETCMD.WORK$
     13911**DCL     15919>>IF      15986<<ASSIGN  16037>>ASSIGN  16101>>ASSIGN  16200>>IF      16208>>ASSIGN
     16647>>ASSIGN  16677>>ASSIGN  16839>>ASSIGN  16895>>ASSIGN  16912>>ASSIGN  16999>>ASSIGN
GETCMD.XT_PARAM$
     14147**DCL     16080>>ASSIGN  16083<<ASSIGN  16157>>ASSIGN
GETCMD_ALT
     16634**LABEL   16379--GOTO    16446--GOTO    16457--GOTO
GETCMD_ALT1
     16636**LABEL   16359--GOTO    16619--CALLALT 16632--GOTO
GETCMD_RET
     16520**LABEL   16357--GOTO    16427--GOTO    16515--GOTO    16527--GOTO
GIVE_ALTERNATIVES
     16563**LABEL   16576--EXIT
HIGH IN PROCEDURE SCAN_RECORD
     17232**DCL     17228--PROC    17258<<ASSIGN  17261<<ASSIGN
HIGH_CHAR IN PROCEDURE FETCH_HELP_TOPIC
     17140**DCL     17181<<ASSIGN  17183>>DOWHILE 17185<<ASSIGN  17185>>ASSIGN  17187>>IF      17193>>ASSIGN
     17208>>ASSIGN
I
     15848**DCL     16549<<ASSIGN  16550>>ASSIGN  16551>>IF      16551>>IF      16551>>IF      16554<<ASSIGN
     16554>>ASSIGN  16555>>ASSIGN  16560>>IF      16560>>IF      16573>>IF      16700<<DOINDEX 16701>>CALL
     16703>>IF      16706>>ASSIGN  16735<<ASSIGN  16738<<ASSIGN  16746<<ASSIGN  16751<<ASSIGN  16754>>ASSIGN
PL6.E3A0      #001=XUG$COMMON File=XUG$COMMON.:E05TSI                            WED 07/30/97 09:17 Page:287
     16904<<ASSIGN  16905<<ASSIGN  16906<<DOINDEX 16906>>DOINDEX 16907>>CALL    16956<<DOINDEX 16957>>ASSIGN
     16966>>IF      16985>>ASSIGN  17025<<ASSIGN  17028>>ASSIGN  17427<<DOINDEX 17429>>IF      17429>>IF
     17433>>ASSIGN  17438>>IF      17441>>ASSIGN
I IN PROCEDURE SCAN_RECORD
     17234**DCL     17244<<DOINDEX
INBUF
     15881**DCL     16277>>ASSIGN  16309>>IF      16314<<CALLBLT 16322<<ASSIGN  16324<<ASSIGN  16429>>IF
     16551>>IF      16560>>IF      16573>>IF      16958>>CALLBLT
INCR IN PROCEDURE SCAN_RECORD
     17230**DCL     17228--PROC    17252>>ASSIGN  17253>>ASSIGN  17256>>IF
J
     15849**DCL     16368<<ASSIGN  16416<<ASSIGN  16419>>ASSIGN  16420>>ASSIGN  16422>>ASSIGN  16503<<ASSIGN
     16513>>IF      16550<<ASSIGN  16570>>ASSIGN  16575>>ASSIGN  16588>>ASSIGN  16931<<DOINDEX 16932>>ASSIGN
     16990<<DOINDEX 16991>>ASSIGN  17004<<ASSIGN  17005>>ASSIGN  17008<<ASSIGN  17043--IF      17047>>ASSIGN
J IN PROCEDURE MOVER
     17061**DCL     17070<<ASSIGN  17072>>DOWHILE 17073<<ASSIGN  17073>>ASSIGN  17074>>ASSIGN  17074>>ASSIGN
KEYWORDS$ IN PROCEDURE SPELLING_CHECKER
     17289**DCL     17315--IMP-PTR 17414<<ASSIGN  17416>>ASSIGN  17422>>CALL    17422>>CALL    17422>>CALL
     17429>>IF      17429>>IF      17433>>ASSIGN  17434>>ASSIGN  17434>>ASSIGN  17438>>IF      17441>>ASSIGN
     17482>>IF      17488>>IF      17498>>IF      17525>>IF      17528>>ASSIGN  17538>>IF
KEYWORDS_FOUND IN PROCEDURE SPELLING_CHECKER
     17290**DCL     17416<<ASSIGN  17418>>IF      17427>>DOINDEX 17528>>ASSIGN
LAST
     15861**DCL     16777<<ASSIGN  16782<>CALL    16785>>ASSIGN  16787>>ASSIGN  16792<<ASSIGN  16796<>CALL
     16798>>ASSIGN  16800>>ASSIGN
LAST IN PROCEDURE SCAN_RECORD
     17235**DCL     17242<<ASSIGN  17252<<ASSIGN  17252>>ASSIGN  17258>>ASSIGN  17262>>ASSIGN
LASTCHAR IN PROCEDURE SPELLING_CHECKER
     17291**DCL     17359<<ASSIGN  17361>>DOWHILE 17363>>IF      17367<<ASSIGN  17367>>ASSIGN  17371>>ASSIGN
     17379>>IF      17381>>IF
LEGAL_BITS IN PROCEDURE SPELLING_CHECKER
     17292**DCL     17422<>CALL    17429>>IF      17433<<ASSIGN  17438>>IF
LEGAL_TEXTC IN PROCEDURE SPELLING_CHECKER
     17306**DCL     17478--ASSIGN
LEGAL_TEXTC.COUNT IN PROCEDURE SPELLING_CHECKER
     17307**DCL     17462<<ASSIGN  17469<<ASSIGN
PL6.E3A0      #001=XUG$COMMON File=XUG$COMMON.:E05TSI                            WED 07/30/97 09:17 Page:288
LEGAL_TEXTC.TEXT IN PROCEDURE SPELLING_CHECKER
     17308**DCL     17463<<ASSIGN  17470<<ASSIGN  17472<<ASSIGN  17473<<ASSIGN
LEN IN PROCEDURE SPELLING_CHECKER
     17293**DCL     17371<<ASSIGN  17373>>IF      17385>>ASSIGN  17386>>CALLBLT 17429>>IF      17429>>IF
LENGTH IN PROCEDURE FETCH_HELP_TOPIC
     17141**DCL     17155<<CALLBLT 17193<<ASSIGN  17195>>IF      17199>>CALLBLT 17214>>ASSIGN  17215>>ASSIGN
     17218>>ASSIGN  17219>>CALLBLT
LOW IN PROCEDURE SCAN_RECORD
     17231**DCL     17228--PROC    17241>>ASSIGN  17242>>ASSIGN  17261>>ASSIGN  17262<<ASSIGN
LOW_CHAR IN PROCEDURE FETCH_HELP_TOPIC
     17139**DCL     17164<<ASSIGN  17167>>DOUNTIL 17169<<ASSIGN  17169>>ASSIGN  17171>>IF      17175>>IF
     17181>>ASSIGN  17193>>ASSIGN  17199>>CALLBLT 17208<<ASSIGN  17215>>ASSIGN  17219>>CALLBLT
M$ERR
     10723**DCL-ENT 15981--CALL
M$GDS
     10746**DCL-ENT 15974--CALL    16002--CALL    16107--CALL
M$LO
     11930**DCL     16254<>CALL    16686<>CALL    16903<>CALL    16920<>CALL
M$MERC
     10767**DCL-ENT 15980--CALL
M$OPEN
     10711**DCL-ENT 17048--CALL
M$PROMPT
     10735**DCL-ENT 17050--CALL
M$SI
     11925**DCL     16251<>CALL
M$SINPUT
     10738**DCL-ENT 16889--CALL
M$UC
     10735**DCL     16299--IF      16303>>ASSIGN  17008>>ASSIGN
M$WRITE
     10712**DCL-ENT 16755--CALL    16762--CALL    16981--CALL
MALT
     16531**LABEL   16002--CALLALT 16251--CALLALT 16254--CALLALT 16263--CALLALT 16491--CALLALT 16495--CALLALT
     16686--CALLALT 16903--CALLALT 16920--CALLALT
MAYBE_ECHO
PL6.E3A0      #001=XUG$COMMON File=XUG$COMMON.:E05TSI                            WED 07/30/97 09:17 Page:289
     16916**LABEL   16910--GOTO
MERC_PROBLEM
     15981**LABEL   15980--CALLALT
MOVER
     17059**PROC    16164--CALL    16178--CALL    16188--CALL
NCHARS IN PROCEDURE FETCH_HELP_TOPIC
     17142**DCL     17144--IMP-SIZ 17161<<ASSIGN  17167>>DOUNTIL 17171>>IF      17175>>IF      17183>>DOWHILE
     17187>>IF      17199>>CALLBLT 17215>>ASSIGN  17219>>CALLBLT
NCHARS IN PROCEDURE SPELLING_CHECKER
     17294**DCL     17300--IMP-SIZ 17335<<ASSIGN  17338>>IF      17342>>IF      17342>>IF      17351>>IF
     17361>>DOWHILE 17363>>IF      17379>>IF      17381>>IF      17386>>CALLBLT
NODES$
     15829**DCL     16461<<ASSIGN  16464>>ASSIGN  16466>>ASSIGN  16467>>ASSIGN
NORMAL_PARSE
     16483**LABEL   16317--GOTO
NO_ECHO
     16989**LABEL   16907--CALLALT 16925--GOTO
OFF$
     15883**DCL     15929<<ASSIGN  15930>>ASSIGN  16021<<ASSIGN  16022>>ASSIGN  16023>>ASSIGN  16031<<ASSIGN
     16032>>ASSIGN
OFFSET
     15856**DCL     16971<<ASSIGN  16972>>DOWHILE 16973>>ASSIGN  16974>>IF      16977<<ASSIGN  16977>>ASSIGN
     16978>>ASSIGN  16980>>ASSIGN  16983<<ASSIGN  16983>>ASSIGN
OFFSET IN PROCEDURE MOVER
     17063**DCL     17059--PROC    17071>>ASSIGN
ONECHAR IN PROCEDURE REPORT_ALTERNATIVES
     17084**DCL     17101<<ASSIGN
OUTDCB#
     15886**DCL     16684<<ASSIGN  16686<>CALL    16687>>ASSIGN  16688<>CALL    16692>>ASSIGN  16701<>CALL
     16802>>ASSIGN  16901<<ASSIGN  16903<>CALL    16907<>CALL    16918<<ASSIGN  16920<>CALL    16922>>ASSIGN
     16928>>ASSIGN  16937>>ASSIGN  16938<>CALL    16952--ASSIGN
OUTPUT_COUNT
     15857**DCL     16957<<ASSIGN  16958>>CALLBLT 16960>>DOWHILE 16961>>IF      16964<<ASSIGN  16964>>ASSIGN
     16968>>ASSIGN  16969<<ASSIGN  16969>>ASSIGN  16972>>DOWHILE 16973>>ASSIGN
OUTPUT_WIDTH
     15858**DCL     16952<<ASSIGN  16953>>IF      16955<<ASSIGN  16973>>ASSIGN
PL6.E3A0      #001=XUG$COMMON File=XUG$COMMON.:E05TSI                            WED 07/30/97 09:17 Page:290
P$B
      5185**DCL     16491<>CALL
P$B.CODE
      5193**DCL     16503>>ASSIGN  16506<<ASSIGN
P$B.NDTYPE
      5188**DCL     16508<<ASSIGN
P$B.NSUBLKS
      5197**DCL     16504>>IF      16510>>IF
P$B.SUBLK$
      5218**DCL     16511>>ASSIGN
P$B.TEMP
      5186**DCL     16507<<ASSIGN
P$KEYWORDS.KEYWORDS$ IN PROCEDURE SPELLING_CHECKER
     17326**DCL     17422<>CALL    17429>>IF      17441>>ASSIGN
P$KEYWORDS.KEYWORD_COUNT IN PROCEDURE SPELLING_CHECKER
     17320**DCL     17416>>ASSIGN  17422<>CALL    17434<<ASSIGN  17434>>ASSIGN  17482>>IF      17488>>IF
     17498>>IF      17525>>IF      17528<<ASSIGN  17538>>IF
P$KEYWORDS.LEGAL$ IN PROCEDURE SPELLING_CHECKER
     17323**DCL     17422>>CALL    17429>>IF      17433>>ASSIGN  17438>>IF
P$LIT.ABREV
      5160**DCL     17459>>IF      17472>>ASSIGN  17473>>ASSIGN  17473>>ASSIGN
P$LIT.COUNT
      5167**DCL      5170--IMP-SIZ 17462>>ASSIGN  17463>>ASSIGN  17469>>ASSIGN  17470>>ASSIGN  17473>>ASSIGN
     17490>>IF
P$LIT.TEXT
      5170**DCL     17463>>ASSIGN  17470>>ASSIGN  17473>>ASSIGN  17490>>IF
P$NODE
      5050**DCL     16464<<ASSIGN  16464>>ASSIGN  16467<<ASSIGN  16467>>ASSIGN
P$NODE.SUBNDS$
      5116**DCL     16466>>ASSIGN  16467>>ASSIGN
P$NODE.TYPE
      5054**DCL     16212>>IF
PARSEALT
     16533**LABEL   16243--REMEMBR 16486--CALLALT
POFF
     15854**DCL     16849<<ASSIGN  16852<<ASSIGN  16860>>ASSIGN  16868>>ASSIGN  16869>>ASSIGN  16870>>ASSIGN
PL6.E3A0      #001=XUG$COMMON File=XUG$COMMON.:E05TSI                            WED 07/30/97 09:17 Page:291
     16888>>ASSIGN  16942<<ASSIGN  16943>>ASSIGN  16948<<ASSIGN  16949>>ASSIGN  16957>>ASSIGN  16958>>CALLBLT
     16958>>CALLBLT 17028<<ASSIGN  17029>>IF      17032>>ASSIGN
PR$
        14**DCL        15--IMP-PTR
PROMPT$C.C
        16**DCL     17029>>IF      17033>>ASSIGN
PROMPT_BUF
     15859**DCL     16944<<ASSIGN  16949<<ASSIGN  16958>>CALLBLT
PROMPT_FLG
     15845**DCL     17009<<ASSIGN  17012<<ASSIGN  17031<<ASSIGN  17036>>IF
PSIZ
        17**DCL        16--IMP-SIZ 17024<<ASSIGN  17028>>ASSIGN  17029>>IF      17033>>ASSIGN
P_PCB
      4652**DCL     15990--ASSIGN  16074<<ASSIGN  16486<>CALL    17094<>CALL    17106<>CALL    17121<>CALL
     17404<>CALL    17406<>CALL    17530<>CALL
P_PCB.BLANKONLY
      4739**DCL     17096>>IF
P_PCB.DYNMEM
      4719**DCL     16478<<ASSIGN
P_PCB.ERROR
      4756**DCL     16607>>ASSIGN  16661<<ASSIGN  16670<<ASSIGN  16672<<ASSIGN  17400<<ASSIGN
P_PCB.ERROR.CODE
      4764**DCL     16548>>IF      17109>>IF      17410>>IF
P_PCB.ERROR.MID
      4762**DCL     16596<<ASSIGN
P_PCB.ERROR.MON
      4763**DCL     16548>>IF      16609>>IF      17410>>IF
P_PCB.HINODE$
      4810**DCL     17090>>ASSIGN  17128<<ASSIGN  17396>>ASSIGN  17536<<ASSIGN  17549<<ASSIGN
P_PCB.HI_CHAR
      4803**DCL     16132<<ASSIGN  16549>>ASSIGN  16555<<ASSIGN  16570<<ASSIGN  16575<<ASSIGN  16588<<ASSIGN
     16698>>ASSIGN  17089>>ASSIGN  17096>>IF      17127<<ASSIGN  17334>>ASSIGN  17394>>ASSIGN  17398<<ASSIGN
     17534<<ASSIGN  17547<<ASSIGN
P_PCB.KEYWORDS
      4724**DCL     17399<<ASSIGN  17408<<ASSIGN
P_PCB.NCHARS
PL6.E3A0      #001=XUG$COMMON File=XUG$COMMON.:E05TSI                            WED 07/30/97 09:17 Page:292
      4799**DCL     16426<<ASSIGN  16441<<ASSIGN  16476<<ASSIGN  16546>>ASSIGN  16666<<ASSIGN  16699>>ASSIGN
     16732>>IF      16738>>ASSIGN  16745>>IF      16746>>ASSIGN  16760>>ASSIGN  16772>>ASSIGN  17096>>IF
     17101>>ASSIGN  17102<<ASSIGN  17102>>ASSIGN  17129<<ASSIGN  17129>>ASSIGN  17161>>ASSIGN  17335>>ASSIGN
P_PCB.NXT
      4702**DCL     16326<<ASSIGN  16345<<ASSIGN  16479<<ASSIGN  16565<<ASSIGN  16590<<ASSIGN  17103<<ASSIGN
     17120<<ASSIGN
P_PCB.NXT_SZONLY
      4747**DCL     17401<<ASSIGN  17405<<ASSIGN
P_PCB.OUT$
      4665**DCL     16491>>CALL    16503>>ASSIGN  16504>>IF      16506>>ASSIGN  16507>>ASSIGN  16508>>ASSIGN
     16510>>IF      16511<<ASSIGN  16511>>ASSIGN  16512>>ASSIGN  16518>>ASSIGN  17414>>ASSIGN
P_PCB.OUTDCB#
      4794**DCL     16257<<ASSIGN
P_PCB.ROOT$
      4657**DCL     16329<<ASSIGN  16472<<ASSIGN  16559>>ASSIGN
P_PCB.TEXT$
      4653**DCL     16449<<ASSIGN  17101>>ASSIGN  17163>>ASSIGN
P_PCB.U$$
      4670**DCL     16477<<ASSIGN
P_PCB.USER$
      4819**DCL     16238>>ASSIGN  16239<<ASSIGN  16330<<ASSIGN  16344<<ASSIGN  16484<<ASSIGN  16520<<ASSIGN
     16533<<ASSIGN  16545<<ASSIGN  16564<<ASSIGN  16589<<ASSIGN  16636<<ASSIGN  16641<<ASSIGN
P_PCB.VERSION_CODE
      4789**DCL     16474<<ASSIGN
P_PCB.WKSZ
      4682**DCL     16475<<ASSIGN
P_PCB.WK_USED
      4785**DCL     17091>>ASSIGN  17130<<ASSIGN  17395>>ASSIGN  17535<<ASSIGN  17548<<ASSIGN
P_PCB.WORK$
      4661**DCL     16473<<ASSIGN
P_PCB$
     15827**DCL      4652--IMP-PTR 16073<<ASSIGN  16074>>ASSIGN  16075>>ASSIGN  16209<<ASSIGN  16238>>ASSIGN
     16239>>ASSIGN  16257>>ASSIGN  16326>>ASSIGN  16329>>ASSIGN  16330>>ASSIGN  16344>>ASSIGN  16345>>ASSIGN
     16426>>ASSIGN  16441>>ASSIGN  16449>>ASSIGN  16472>>ASSIGN  16473>>ASSIGN  16474>>ASSIGN  16475>>ASSIGN
     16476>>ASSIGN  16477>>ASSIGN  16478>>ASSIGN  16479>>ASSIGN  16484>>ASSIGN  16486>>CALL    16491>>CALL
     16503>>ASSIGN  16504>>IF      16506>>ASSIGN  16507>>ASSIGN  16508>>ASSIGN  16510>>IF      16511>>ASSIGN
PL6.E3A0      #001=XUG$COMMON File=XUG$COMMON.:E05TSI                            WED 07/30/97 09:17 Page:293
     16511>>ASSIGN  16512>>ASSIGN  16518>>ASSIGN  16520>>ASSIGN  16533>>ASSIGN  16545>>ASSIGN  16546>>ASSIGN
     16548>>IF      16548>>IF      16549>>ASSIGN  16555>>ASSIGN  16559>>ASSIGN  16564>>ASSIGN  16565>>ASSIGN
     16570>>ASSIGN  16575>>ASSIGN  16588>>ASSIGN  16589>>ASSIGN  16590>>ASSIGN  16596>>ASSIGN  16607>>ASSIGN
     16609>>IF      16636>>ASSIGN  16641>>ASSIGN  16649<<ASSIGN  16661>>ASSIGN  16666>>ASSIGN  16670>>ASSIGN
     16672>>ASSIGN  16678<<ASSIGN  16698>>ASSIGN  16699>>ASSIGN  16732>>IF      16738>>ASSIGN  16745>>IF
     16746>>ASSIGN  16760>>ASSIGN  16772>>ASSIGN  17089>>ASSIGN  17090>>ASSIGN  17091>>ASSIGN  17094>>CALL
     17096>>IF      17096>>IF      17096>>IF      17101>>ASSIGN  17101>>ASSIGN  17102>>ASSIGN  17102>>ASSIGN
     17103>>ASSIGN  17106>>CALL    17109>>IF      17120>>ASSIGN  17121>>CALL    17127>>ASSIGN  17128>>ASSIGN
     17129>>ASSIGN  17129>>ASSIGN  17130>>ASSIGN  17161>>ASSIGN  17163>>ASSIGN  17334>>ASSIGN  17335>>ASSIGN
     17394>>ASSIGN  17395>>ASSIGN  17396>>ASSIGN  17398>>ASSIGN  17399>>ASSIGN  17400>>ASSIGN  17401>>ASSIGN
     17404>>CALL    17405>>ASSIGN  17406>>CALL    17408>>ASSIGN  17410>>IF      17410>>IF      17414>>ASSIGN
     17530>>CALL    17534>>ASSIGN  17535>>ASSIGN  17536>>ASSIGN  17547>>ASSIGN  17548>>ASSIGN  17549>>ASSIGN
P_PCB_C
      4851**DCL     16074>>ASSIGN
QM_HIT IN PROCEDURE SPELLING_CHECKER
     17295**DCL     17377<<ASSIGN  17383<<ASSIGN  17388>>IF      17486>>IF      17538>>IF
QM_REQUIRED IN PROCEDURE SPELLING_CHECKER
     17284**DCL     17268--PROC    17388>>IF
RDALT1
     16639**LABEL   16307--CALLALT 16350--CALLALT
RDALT2
     16672**LABEL   16658--CALLALT
READ_ANOTHER
     16341**LABEL   16333--CALLALT
REPORT_ALTERNATIVES
     17082**PROC    16340--CALL    16587--CALL
RESTORE_USER$
     16589**LABEL   16571--GOTO
RLT
     15445**DCL     15993--ASSIGN  16023--ASSIGN  16038<<ASSIGN  16170--ASSIGN  16321<<ASSIGN  16435<<ASSIGN
     16437<<ASSIGN  16652<<ASSIGN  16655<<ASSIGN  16655>>ASSIGN  16665<<ASSIGN  16932>>ASSIGN  16957>>ASSIGN
     16985>>ASSIGN  16991>>ASSIGN
RLT_SZ
     15841**DCL     15993<<ASSIGN  15994>>IF      15995<<ASSIGN  15995>>ASSIGN  15995>>ASSIGN  15997>>ASSIGN
     16024>>ASSIGN  16030>>ASSIGN  16170<<ASSIGN  16171>>IF      16172<<ASSIGN  16172>>ASSIGN  16172>>ASSIGN
     16176>>ASSIGN  16187>>ASSIGN
PL6.E3A0      #001=XUG$COMMON File=XUG$COMMON.:E05TSI                            WED 07/30/97 09:17 Page:294
ROOT$
     15828**DCL     16462<<ASSIGN  16464>>ASSIGN  16471<<ASSIGN  16472>>ASSIGN
RSEG
     15834**DCL     15945<<ASSIGN  16081>>IF
RSEG.SID
     15836**DCL     15949<<ASSIGN  15952<<ASSIGN  15955<<ASSIGN  15958<<ASSIGN  15961<<ASSIGN  15964<<ASSIGN
     15967<<ASSIGN  15970<<ASSIGN  16385>>IF
SAVED_HINODE$ IN PROCEDURE REPORT_ALTERNATIVES
     17086**DCL     17090<<ASSIGN  17128>>ASSIGN
SAVED_HINODE$ IN PROCEDURE SPELLING_CHECKER
     17297**DCL     17396<<ASSIGN  17536>>ASSIGN  17549>>ASSIGN
SAVED_HI_CHAR IN PROCEDURE REPORT_ALTERNATIVES
     17085**DCL     17089<<ASSIGN  17127>>ASSIGN
SAVED_HI_CHAR IN PROCEDURE SPELLING_CHECKER
     17296**DCL     17394<<ASSIGN  17534>>ASSIGN  17547>>ASSIGN
SAVED_WK_USED IN PROCEDURE REPORT_ALTERNATIVES
     17087**DCL     17091<<ASSIGN  17130>>ASSIGN
SAVED_WK_USED IN PROCEDURE SPELLING_CHECKER
     17298**DCL     17395<<ASSIGN  17535>>ASSIGN  17548>>ASSIGN
SAVE_DCB
     15866**DCL     16769<<ASSIGN  16819>>ASSIGN
SAVE_ERR
     15865**DCL     16768<<ASSIGN  16818>>ASSIGN
SAVE_F1
     15867**DCL     16770<<ASSIGN  16820>>ASSIGN
SAVE_F2
     15868**DCL     16771<<ASSIGN  16821>>ASSIGN
SAVE_PROMPT_
     15862**DCL     16240<<ASSIGN  16246>>ASSIGN
SAVE_PROMPT_VFC
     15864**DCL     16242<<ASSIGN  16248>>ASSIGN
SAVE_RPROMPT_
     15863**DCL     16241<<ASSIGN  16247>>ASSIGN
SCAN IN PROCEDURE SCAN_RECORD
     17244**LABEL   17248--EXIT    17251--EXIT
SCAN_RECORD
PL6.E3A0      #001=XUG$COMMON File=XUG$COMMON.:E05TSI                            WED 07/30/97 09:17 Page:295
     17228**PROC    16782--CALL    16796--CALL
SEG$
     15833**DCL     15834--REDEF   15882--IMP-PTR 15973>>ASSIGN  16017<<ASSIGN  16019>>ASSIGN  16020<<ASSIGN
     16020>>ASSIGN  16021>>ASSIGN  16022>>ASSIGN  16030<<ASSIGN  16031>>ASSIGN  16032>>ASSIGN  16035>>ASSIGN
     16080<<ASSIGN  16384<<ASSIGN  16385>>IF      16385>>IF      16389>>ASSIGN
SETFLG
     16700**LABEL   16707--EXIT
SETUP_WORK
     15997**LABEL   16003--GOTO
SHOW_ALTRN
     16311**LABEL   16431--GOTO
SINPUT_ERR
     16891**LABEL   16889--CALLALT
SIZ IN PROCEDURE MOVER
     17064**DCL     17059--PROC    17077>>ASSIGN
SPELLING_CHECKER
     17268**PROC    16333--CALL    16568--CALL
STATIC_SZ
     15839**DCL     15990<<ASSIGN  15991>>IF      15992<<ASSIGN  15992>>ASSIGN  15992>>ASSIGN  15997>>ASSIGN
     16017>>ASSIGN
STRING IN PROCEDURE FETCH_HELP_TOPIC
     17144**DCL     17167>>DOUNTIL 17175>>IF      17183>>DOWHILE 17199>>CALLBLT 17215>>ASSIGN  17219>>CALLBLT
STRING IN PROCEDURE SPELLING_CHECKER
     17300**DCL     17342>>IF      17342>>IF      17351>>IF      17363>>IF      17381>>IF      17386>>CALLBLT
STRING$ IN PROCEDURE FETCH_HELP_TOPIC
     17143**DCL     17144--IMP-PTR 17163<<ASSIGN  17167>>DOUNTIL 17175>>IF      17183>>DOWHILE 17199>>CALLBLT
     17215>>ASSIGN  17219>>CALLBLT
STRING$ IN PROCEDURE SPELLING_CHECKER
     17299**DCL     17300--IMP-PTR 17336<<ASSIGN  17342>>IF      17342>>IF      17351>>IF      17363>>IF
     17381>>IF      17386>>CALLBLT
SYMTTBL.ALPHA
      4628**DCL     17342>>IF      17351>>IF      17363>>IF
SYMTTBL.FID
      4627**DCL     17249>>IF
SYMTTBL.GENERIC_DSTRING
      4628**DCL     17249>>IF
PL6.E3A0      #001=XUG$COMMON File=XUG$COMMON.:E05TSI                            WED 07/30/97 09:17 Page:296
SYMTTBL.PL6SYM
      4628**DCL     17167>>DOUNTIL 17183>>DOWHILE
TCSIZE
     15853**DCL     16856<<ASSIGN  16859<<ASSIGN  16860>>ASSIGN  16867<<ASSIGN  16871>>ASSIGN  16873<<ASSIGN
     16878<<ASSIGN  16885<<ASSIGN  16885>>ASSIGN  16888>>ASSIGN
TEMP_ERR
     13382**DCL     15976<<ASSIGN  15979--ASSIGN  16122<>CALL    16124>>ASSIGN
TEMP_ERR.SEV
     13412**DCL     15977<<ASSIGN
TEXT$
     15831**DCL     16372<<ASSIGN  16403<<ASSIGN  16408<<ASSIGN  16411>>IF      16420>>ASSIGN
TEXTC IN PROCEDURE SPELLING_CHECKER
     17302**DCL     17422<>CALL    17445--ASSIGN
TEXTC.COUNT IN PROCEDURE SPELLING_CHECKER
     17303**DCL     17385<<ASSIGN
TEXTC.TEXT IN PROCEDURE SPELLING_CHECKER
     17304**DCL     17386<<CALLBLT 17429>>IF      17490>>IF
TO$
     15832**DCL     16853<<ASSIGN  16860>>ASSIGN  16863>>ASSIGN  16864<<ASSIGN  16864>>ASSIGN  16869>>ASSIGN
     16870<<ASSIGN  16870>>ASSIGN  16876>>ASSIGN  16877<<ASSIGN  16877>>ASSIGN  16880>>ASSIGN  16883>>ASSIGN
TO$ IN PROCEDURE MOVER
     17066**DCL     17071<<ASSIGN  17074>>ASSIGN  17076>>ASSIGN
TPOS
     15851**DCL     16721<<ASSIGN  16724<<ASSIGN  16724>>ASSIGN  16731<<ASSIGN  16742<<ASSIGN  16759>>ASSIGN
     16761>>ASSIGN
TRANSTBL
      4632**DCL     17199>>CALLBLT 17386>>CALLBLT
TSTRING IN PROCEDURE FETCH_HELP_TOPIC
     17145**DCL     17199<<CALLBLT 17201>>IF      17205>>IF
TWOCHARS
     15847**DCL     16277<<ASSIGN  16314>>CALLBLT 16324>>ASSIGN
UBIN$BUF9
     15879**DCL     16860<<ASSIGN  16863<<ASSIGN
USER_GDSVEC
     11967**DCL     16122<>CALL    16128>>IF      16140>>IF
VEC IN PROCEDURE MOVER
PL6.E3A0      #001=XUG$COMMON File=XUG$COMMON.:E05TSI                            WED 07/30/97 09:17 Page:297
     17062**DCL     17059--PROC    17069>>ASSIGN  17070>>ASSIGN  17076<<ASSIGN  17077<<ASSIGN  17077>>ASSIGN
VEC$BUF
     15882**DCL     16019--ASSIGN  16035--ASSIGN
WBUFSZ
     15843**DCL     16177<<ASSIGN  16178<>CALL    16180>>ASSIGN  16187<<ASSIGN  16188<>CALL
WDS IN PROCEDURE MOVER
     17065**DCL     17074<<ASSIGN  17074>>ASSIGN
WOFF
     15842**DCL     16176<<ASSIGN  16177>>ASSIGN  16178<>CALL    16179>>ASSIGN  16181>>ASSIGN  16186<<ASSIGN
     16188<>CALL
WORK_SZ
     15840**DCL     15997<<ASSIGN  15998>>IF      16018>>ASSIGN  16026<<ASSIGN  16029>>ASSIGN
X$PARSE
        19**DCL-ENT 16486--CALL    17094--CALL    17106--CALL    17121--CALL    17404--CALL    17406--CALL
X66_REL_AUTO
     13419**DCL-ENT 16289--CALL    16399--CALL
XT$
     15825**DCL     15523--IMP-PTR 16157<<ASSIGN  16158>>IF      16158>>IF      16162>>ASSIGN  16163>>ASSIGN
     16165>>ASSIGN
XT_
     15826**DCL     16161<<ASSIGN  16162<<ASSIGN  16163<<ASSIGN  16164<>CALL    16165>>ASSIGN
XT_PARAM
     15523**DCL     15990--ASSIGN
XT_PARAM.WS$
     15524**DCL     16158>>IF      16162>>ASSIGN  16165<<ASSIGN
XT_PARAM.WS_SIZE
     15558**DCL     16163>>ASSIGN
XUG
     13424**DCL     15987<<ASSIGN  15990--ASSIGN  16073--ASSIGN
XUG.ABORT
     13452**DCL     16045<<ASSIGN
XUG.ADAPT$$
     13847**DCL     16079<<ASSIGN
XUG.ADDL_RLTCNT
     13707**DCL     16060<<ASSIGN  16170>>ASSIGN  16189>>ASSIGN
XUG.BRKARS
PL6.E3A0      #001=XUG$COMMON File=XUG$COMMON.:E05TSI                            WED 07/30/97 09:17 Page:298
     13682**DCL     16281>>ASSIGN  16283<<ASSIGN
XUG.BRKMSG
     13459**DCL     16047<<ASSIGN
XUG.BUF
     13860**DCL     13863--REDEF   16372--ASSIGN  16395<<ASSIGN  16403--ASSIGN  16691--ASSIGN  16728<<ASSIGN
     16744<<CALLBLT 16758<<ASSIGN  16848<<ASSIGN  16853--ASSIGN  16887--ASSIGN  16958<<CALLBLT 16961>>IF
     16968<<ASSIGN  16978<<ASSIGN  16978>>ASSIGN  16980--ASSIGN
XUG.BUFA
     13863**DCL     16716--IF      16730--ASSIGN  16734--ASSIGN  16750--ASSIGN  16759<<ASSIGN
XUG.BUFVEC
     13425**DCL     16035<<ASSIGN  16161>>ASSIGN  16178<>CALL    16266>>ASSIGN  16277>>ASSIGN  16309>>IF
     16314>>CALLBLT 16322>>ASSIGN  16324>>ASSIGN  16449>>ASSIGN  16498>>ASSIGN  16542>>ASSIGN  16551>>IF
     16560>>IF      16573>>IF      16650>>ASSIGN  16651>>ASSIGN  16730>>ASSIGN  16744>>CALLBLT 16785>>ASSIGN
     16798>>ASSIGN  16880>>ASSIGN  16958>>CALLBLT 17240>>ASSIGN  17336>>ASSIGN
XUG.CCBUF_OFFC
     13838**DCL     16268<<ASSIGN  16389<<ASSIGN  16390>>ASSIGN  16721>>ASSIGN  16841>>IF      16859>>ASSIGN
     16874>>IF      16876>>ASSIGN  16877>>ASSIGN  16878>>ASSIGN
XUG.CCBUF_REST
     13843**DCL     16390<<ASSIGN  16881>>IF      16883>>ASSIGN  16883>>ASSIGN  16885>>ASSIGN
XUG.CMDSZ
     13711**DCL     16061<<ASSIGN  16376>>IF
XUG.COMMANDS
     13536**DCL     16062<<ASSIGN  16459>>IF      16501>>IF      17152>>ASSIGN
XUG.CONTINUE
     13455**DCL     16046<<ASSIGN
XUG.CPOS
     13692**DCL     16267<<ASSIGN  16650>>ASSIGN  16651>>ASSIGN  16652>>ASSIGN  16657>>ASSIGN  16666>>ASSIGN
     16716>>IF      16716>>IF      16721>>ASSIGN  16760<<ASSIGN  16772<<ASSIGN  16773>>IF      16784>>ASSIGN
     16789>>IF      16789>>IF      16792>>ASSIGN  16840>>ASSIGN  16934<<ASSIGN  16993<<ASSIGN
XUG.DCBS
     13717**DCL     16258<<ASSIGN
XUG.DCBS.ERRPTR_CPOS
     13719**DCL     16261<<ASSIGN  16703>>IF      16706<<ASSIGN  16929<<ASSIGN
XUG.DCBS.NUM
     13718**DCL     16259<<ASSIGN  16260<<ASSIGN  16303<<ASSIGN  16701>>CALL    16904--IF      16907>>CALL
     16928<<ASSIGN
PL6.E3A0      #001=XUG$COMMON File=XUG$COMMON.:E05TSI                            WED 07/30/97 09:17 Page:299
XUG.DEFER_SETTING_PROMPT
     13820**DCL     17009>>ASSIGN  17010<<ASSIGN  17041<<ASSIGN  17052<<ASSIGN
XUG.DIVERT_TO_HELP
     13598**DCL     16634<<ASSIGN  16640<<ASSIGN  17222<<ASSIGN
XUG.DOCMD_SYNERR
     13565**DCL     16315>>IF
XUG.DONT_REREAD_CCBUF
     13827**DCL     16065<<ASSIGN  16841>>IF      16857>>IF      16874>>IF      16881>>IF
XUG.DONT_STRIP_PROMPT
     13832**DCL     16066<<ASSIGN  16411>>IF
XUG.DUMMY_NODE
     13496**DCL     16463--ASSIGN
XUG.DUMMY_NODE.SUBND$
     13498**DCL     16468<<ASSIGN
XUG.ERRDCB
     13520**DCL     16056<<ASSIGN
XUG.F1SAVE
     13851**DCL     16094<<ASSIGN
XUG.F2SAVE
     13854**DCL     16095<<ASSIGN
XUG.F3SAVE
     13857**DCL     16096<<ASSIGN
XUG.FILEACCT
     13729**DCL     16092<<ASSIGN
XUG.FILENAME.C
     13725**DCL     16090<<ASSIGN
XUG.FILENAME.TX
     13726**DCL     16091<<ASSIGN
XUG.FILEPASS
     13732**DCL     16093<<ASSIGN
XUG.FIRST_ERROR
     13646**DCL     16270<<ASSIGN
XUG.GDSVEC
     13435**DCL     15988<<ASSIGN  16106--ASSIGN  16127>>ASSIGN  16127>>ASSIGN  16151<<ASSIGN  16151>>ASSIGN
XUG.GOODCMD
     13577**DCL     16067<<ASSIGN  16442>>IF      16609>>IF      16809>>IF
PL6.E3A0      #001=XUG$COMMON File=XUG$COMMON.:E05TSI                            WED 07/30/97 09:17 Page:300
XUG.GOTCMD
     13529**DCL     16279>>IF      16280<<ASSIGN
XUG.GOTCMD_EOMCHAR
     13807**DCL     16282>>ASSIGN
XUG.HELP_TOPIC.COUNT
     13805**DCL     17214<<ASSIGN  17218<<ASSIGN
XUG.HELP_TOPIC.TEXT
     13806**DCL     17215<<ASSIGN  17219<<CALLBLT
XUG.INHIBITS
     13626**DCL     16063<<ASSIGN
XUG.INHIBITS.DO#
     13632**DCL     17152>>ASSIGN
XUG.LAST
     13432**DCL     16181<<ASSIGN  16181>>ASSIGN
XUG.MOREMEM
     13481**DCL     16052<<ASSIGN  16110>>IF      16122>>CALL
XUG.NDCBS
     13714**DCL     16262<<ASSIGN  16700>>DOINDEX 16906>>DOINDEX 16926>>IF      16927<<ASSIGN  16927>>ASSIGN
     16928>>ASSIGN  16929>>ASSIGN
XUG.NEED_ECHO
     13573**DCL     16318>>IF      16493>>IF      16496<<ASSIGN  16536>>IF      16540<<ASSIGN
XUG.NLINES
     13699**DCL     16028<<ASSIGN  16249<<ASSIGN  16320<<ASSIGN  16436<<ASSIGN  16500>>ASSIGN  16544>>ASSIGN
     16616>>IF      16652>>ASSIGN  16655>>ASSIGN  16655>>ASSIGN  16659>>IF      16664<<ASSIGN  16664>>ASSIGN
     16665>>ASSIGN  16931>>DOINDEX 16956>>DOINDEX 16966>>IF      16990>>DOINDEX
XUG.NO_DOWNGRADE
     13641**DCL     16064<<ASSIGN
XUG.PARSEVEC
     13438**DCL     16019<<ASSIGN  16190<<ASSIGN  16190>>ASSIGN  16473>>ASSIGN  16475>>ASSIGN
XUG.PARSING_FREE_CMDS
     13815**DCL     16485<<ASSIGN  17093<<ASSIGN  17104<<ASSIGN  17119<<ASSIGN  17402<<ASSIGN
XUG.POFF
     13506**DCL     16039<<ASSIGN  16411>>IF      16411>>IF      16411>>IF      16416>>ASSIGN  16716>>IF
     16716>>IF      16721>>ASSIGN  16724>>ASSIGN  16852>>ASSIGN  16948>>ASSIGN  17012>>IF      17013<<ASSIGN
     17019<<ASSIGN  17029>>IF      17032<<ASSIGN  17155>>CALLBLT
XUG.POINTED_TO_SYNERR
PL6.E3A0      #001=XUG$COMMON File=XUG$COMMON.:E05TSI                            WED 07/30/97 09:17 Page:301
     13605**DCL     16558<<ASSIGN  16837<<ASSIGN
XUG.POST_EXEC
     13477**DCL     16051<<ASSIGN  16341>>IF      16343>>CALL
XUG.PPCB$
     13658**DCL     16057<<ASSIGN
XUG.PP_DCB
     13670**DCL     16059<<ASSIGN
XUG.PP_ERR
     13674**DCL     16269<<ASSIGN  16438>>IF      16440>>ASSIGN  16667>>IF      16670>>ASSIGN
XUG.PP_PROCNAME_
     13661**DCL     16058<<ASSIGN
XUG.PREPROCESS
     13549**DCL     16044<<ASSIGN  16284>>IF      16393>>IF
XUG.PREPROCESSOR$$
     13462**DCL     16048<<ASSIGN  16286>>IF      16396>>IF
XUG.PREV_CPOS
     13695**DCL     16434<<ASSIGN  16652>>ASSIGN  16653>>IF      16657<<ASSIGN
XUG.PRE_EXEC
     13473**DCL     16050<<ASSIGN  16311>>IF      16313>>CALL
XUG.PROMPT
     13509**DCL     16041<<ASSIGN  16411>>IF      16716>>IF      16869>>ASSIGN  16949>>ASSIGN  17015<<ASSIGN
     17021<<ASSIGN  17029>>IF      17033<<ASSIGN  17155>>CALLBLT
XUG.PROMPT_VFC
     13583**DCL     16040<<ASSIGN  16411>>IF      16869>>ASSIGN  16945>>ASSIGN  16949>>ASSIGN  16974>>IF
     17014<<ASSIGN  17020<<ASSIGN  17029>>IF      17034<<ASSIGN  17155>>CALLBLT
XUG.P_PCB$
     13655**DCL     16075<<ASSIGN  16078<<ASSIGN  16084>>ASSIGN  16209>>ASSIGN  16649>>ASSIGN  16678>>ASSIGN
XUG.QM_AFTER_SYNERR
     13612**DCL     16481<<ASSIGN  16591<<ASSIGN  16628>>IF      16710>>IF      16837>>ASSIGN
XUG.READVEC
     13428**DCL     16179<<ASSIGN  16179>>ASSIGN  16180<<ASSIGN  16180>>ASSIGN  16266<<ASSIGN  16296<<ASSIGN
     16307<>CALL    16350<>CALL    16419<<ASSIGN  16420>>ASSIGN  16429>>IF      16650<<ASSIGN  16651<<ASSIGN
     16658<>CALL
XUG.REM_PARSE
     13448**DCL     16243<<REMEMBR 16662>>UNWIND  16671>>UNWIND  16673>>UNWIND
XUG.REQ_PROMPT
PL6.E3A0      #001=XUG$COMMON File=XUG$COMMON.:E05TSI                            WED 07/30/97 09:17 Page:302
     13553**DCL     16042<<ASSIGN
XUG.RLTCNT
     13703**DCL     16027<<ASSIGN  16189<<ASSIGN  16189>>ASSIGN  16659>>IF
XUG.RLTVEC
     13442**DCL     16023<<ASSIGN  16024<<ASSIGN  16030>>ASSIGN  16038>>ASSIGN  16188<>CALL    16321>>ASSIGN
     16435>>ASSIGN  16437>>ASSIGN  16499>>ASSIGN  16543>>ASSIGN  16652>>ASSIGN  16655>>ASSIGN  16655>>ASSIGN
     16665>>ASSIGN  16932>>ASSIGN  16957>>ASSIGN  16985>>ASSIGN  16991>>ASSIGN
XUG.ROOT_NODE
     13486**DCL     16462--ASSIGN
XUG.ROOT_NODE.GETCMD_NODE$
     13489**DCL     16466<<ASSIGN
XUG.ROOT_NODE.USER_NODE$
     13488**DCL     16465<<ASSIGN
XUG.SFROUTINE
     13465**DCL     16264<<ASSIGN  16265<<ASSIGN
XUG.SPELLING
     13589**DCL     16070<<ASSIGN  16331>>IF      16560>>IF      16566>>IF
XUG.SPELLING_TRIED
     13593**DCL     16331>>IF      16480<<ASSIGN  16560>>IF      16566>>IF      17333<<ASSIGN  17390<<ASSIGN
XUG.SPHANDLE
     13468**DCL     16049<<ASSIGN
XUG.SYNERR
     13545**DCL     16275>>IF      16308>>DOWHILE 16334<<ASSIGN  16363<<ASSIGN  16429>>IF      16432<<ASSIGN
     16557<<ASSIGN  16578<<ASSIGN  16765>>IF      16803>>IF      16837>>ASSIGN
XUG.SYNTAX
     13540**DCL     16043<<ASSIGN  16547>>IF
XUG.USER$
     13665**DCL     16238<<ASSIGN  16344>>ASSIGN  16520>>ASSIGN  16533>>ASSIGN  16545>>ASSIGN  16589>>ASSIGN
     16636>>ASSIGN  16641>>ASSIGN
XUG.XUG_OWNS_MEMORY
     13561**DCL     15989<<ASSIGN  16102>>IF
XUG.XUH_PARAM
     13757**DCL     16053<<ASSIGN
XUG.XUH_PARAM.PROCACCT_
     13760**DCL     16054<<ASSIGN
XUG.XUH_PARAM.PROCNAME_
PL6.E3A0      #001=XUG$COMMON File=XUG$COMMON.:E05TSI                            WED 07/30/97 09:17 Page:303
     13759**DCL     16055<<ASSIGN
XUG#AREANOTRTSZ
     12509**DCL     16143>>ASSIGN
XUG#CANTEXPAND
     12555**DCL     16112>>ASSIGN
XUG#FOLLOWED_BY
     13199**DCL     17112>>ASSIGN
XUG#INCOR_HERE
     12739**DCL     16813>>ASSIGN
XUG#INCOR_HERE_XPND
     12693**DCL     16811>>ASSIGN
XUG#INCOR_PTD_XPND
     12647**DCL     16807>>ASSIGN
XUG#LEGAL_INPUT_HERE
     12831**DCL     16335>>ASSIGN
XUG#LEGAL_INPUT_QM
     12877**DCL     16581>>ASSIGN
XUG#LINETOOLONG
     13337**DCL     16378>>ASSIGN
XUG#MULTI_CHOICE
     13061**DCL     17496>>ASSIGN
XUG#MULTI_LEGAL
     12969**DCL     17502>>ASSIGN
XUG#NOTCONTIGAREA
     12463**DCL     16131>>ASSIGN
XUG#NO_MATCH
     13153**DCL     17484>>ASSIGN
XUG#NO_OTHER_CHOICE
     13107**DCL     17492>>ASSIGN
XUG#NULLROOT
     13245**DCL     16453>>ASSIGN
XUG#NWALIGNED
     12785**DCL     15934>>ASSIGN
XUG#PLERRMSG
     12601**DCL     16815>>ASSIGN
XUG#PRE_C00
PL6.E3A0      #001=XUG$COMMON File=XUG$COMMON.:E05TSI                            WED 07/30/97 09:17 Page:304
     13291**DCL     16214>>ASSIGN
XUG#SINGLE_CHOICE
     13015**DCL     17494>>ASSIGN
XUG#SINGLE_LEGAL
     12923**DCL     17500>>ASSIGN
XUG#SMALLWORK
     12417**DCL     15926>>ASSIGN  16006>>ASSIGN
XUG$
     15824**DCL     13424--IMP-PTR 15985<<ASSIGN  15986>>ASSIGN  15987>>ASSIGN  15988>>ASSIGN  15989>>ASSIGN
     16017>>ASSIGN  16019>>ASSIGN  16023>>ASSIGN  16024>>ASSIGN  16027>>ASSIGN  16028>>ASSIGN  16030>>ASSIGN
     16035>>ASSIGN  16037<<ASSIGN  16038>>ASSIGN  16039>>ASSIGN  16040>>ASSIGN  16041>>ASSIGN  16042>>ASSIGN
     16043>>ASSIGN  16044>>ASSIGN  16045>>ASSIGN  16046>>ASSIGN  16047>>ASSIGN  16048>>ASSIGN  16049>>ASSIGN
     16050>>ASSIGN  16051>>ASSIGN  16052>>ASSIGN  16053>>ASSIGN  16054>>ASSIGN  16055>>ASSIGN  16056>>ASSIGN
     16057>>ASSIGN  16058>>ASSIGN  16059>>ASSIGN  16060>>ASSIGN  16061>>ASSIGN  16062>>ASSIGN  16063>>ASSIGN
     16064>>ASSIGN  16065>>ASSIGN  16066>>ASSIGN  16067>>ASSIGN  16070>>ASSIGN  16073>>ASSIGN  16075>>ASSIGN
     16078>>ASSIGN  16079>>ASSIGN  16084>>ASSIGN  16089>>ASSIGN  16090>>ASSIGN  16091>>ASSIGN  16092>>ASSIGN
     16093>>ASSIGN  16094>>ASSIGN  16095>>ASSIGN  16096>>ASSIGN  16101<<ASSIGN  16102>>IF      16106>>ASSIGN
     16110>>IF      16122>>CALL    16127>>ASSIGN  16127>>ASSIGN  16151>>ASSIGN  16151>>ASSIGN  16161>>ASSIGN
     16170>>ASSIGN  16178>>CALL    16179>>ASSIGN  16179>>ASSIGN  16180>>ASSIGN  16180>>ASSIGN  16181>>ASSIGN
     16181>>ASSIGN  16188>>CALL    16189>>ASSIGN  16189>>ASSIGN  16189>>ASSIGN  16190>>ASSIGN  16190>>ASSIGN
     16208<<ASSIGN  16209>>ASSIGN  16238>>ASSIGN  16243>>REMEMBR 16249>>ASSIGN  16258>>ASSIGN  16259>>ASSIGN
     16260>>ASSIGN  16261>>ASSIGN  16262>>ASSIGN  16264>>ASSIGN  16265>>ASSIGN  16266>>ASSIGN  16266>>ASSIGN
     16267>>ASSIGN  16268>>ASSIGN  16269>>ASSIGN  16270>>ASSIGN  16275>>IF      16277>>ASSIGN  16279>>IF
     16280>>ASSIGN  16281>>ASSIGN  16282>>ASSIGN  16283>>ASSIGN  16284>>IF      16286>>IF      16296>>ASSIGN
     16303>>ASSIGN  16307>>CALL    16308>>DOWHILE 16309>>IF      16311>>IF      16313>>CALL    16314>>CALLBLT
     16315>>IF      16318>>IF      16320>>ASSIGN  16321>>ASSIGN  16322>>ASSIGN  16324>>ASSIGN  16331>>IF
     16331>>IF      16334>>ASSIGN  16341>>IF      16343>>CALL    16344>>ASSIGN  16350>>CALL    16363>>ASSIGN
     16372>>ASSIGN  16376>>IF      16389>>ASSIGN  16390>>ASSIGN  16390>>ASSIGN  16393>>IF      16395>>ASSIGN
     16396>>IF      16403>>ASSIGN  16411>>IF      16411>>IF      16411>>IF      16411>>IF      16411>>IF
     16411>>IF      16416>>ASSIGN  16419>>ASSIGN  16420>>ASSIGN  16429>>IF      16429>>IF      16432>>ASSIGN
     16434>>ASSIGN  16435>>ASSIGN  16436>>ASSIGN  16437>>ASSIGN  16438>>IF      16440>>ASSIGN  16442>>IF
     16449>>ASSIGN  16459>>IF      16462>>ASSIGN  16463>>ASSIGN  16465>>ASSIGN  16466>>ASSIGN  16468>>ASSIGN
     16473>>ASSIGN  16475>>ASSIGN  16480>>ASSIGN  16481>>ASSIGN  16485>>ASSIGN  16493>>IF      16496>>ASSIGN
     16498>>ASSIGN  16499>>ASSIGN  16500>>ASSIGN  16501>>IF      16520>>ASSIGN  16533>>ASSIGN  16536>>IF
     16540>>ASSIGN  16542>>ASSIGN  16543>>ASSIGN  16544>>ASSIGN  16545>>ASSIGN  16547>>IF      16551>>IF
     16557>>ASSIGN  16558>>ASSIGN  16560>>IF      16560>>IF      16560>>IF      16566>>IF      16566>>IF
PL6.E3A0      #001=XUG$COMMON File=XUG$COMMON.:E05TSI                            WED 07/30/97 09:17 Page:305
     16573>>IF      16578>>ASSIGN  16589>>ASSIGN  16591>>ASSIGN  16609>>IF      16616>>IF      16628>>IF
     16634>>ASSIGN  16636>>ASSIGN  16640>>ASSIGN  16641>>ASSIGN  16647<<ASSIGN  16649>>ASSIGN  16650>>ASSIGN
     16650>>ASSIGN  16650>>ASSIGN  16651>>ASSIGN  16651>>ASSIGN  16651>>ASSIGN  16652>>ASSIGN  16652>>ASSIGN
     16652>>ASSIGN  16652>>ASSIGN  16653>>IF      16655>>ASSIGN  16655>>ASSIGN  16655>>ASSIGN  16655>>ASSIGN
     16657>>ASSIGN  16657>>ASSIGN  16658>>CALL    16659>>IF      16659>>IF      16662>>UNWIND  16664>>ASSIGN
     16664>>ASSIGN  16665>>ASSIGN  16665>>ASSIGN  16666>>ASSIGN  16667>>IF      16670>>ASSIGN  16671>>UNWIND
     16673>>UNWIND  16677<<ASSIGN  16678>>ASSIGN  16691>>ASSIGN  16700>>DOINDEX 16701>>CALL    16703>>IF
     16706>>ASSIGN  16710>>IF      16716>>IF      16716>>IF      16716>>IF      16716>>IF      16716>>IF
     16721>>ASSIGN  16721>>ASSIGN  16721>>ASSIGN  16724>>ASSIGN  16728>>ASSIGN  16730>>ASSIGN  16730>>ASSIGN
     16734>>ASSIGN  16744>>CALLBLT 16744>>CALLBLT 16750>>ASSIGN  16758>>ASSIGN  16759>>ASSIGN  16760>>ASSIGN
     16765>>IF      16772>>ASSIGN  16773>>IF      16784>>ASSIGN  16785>>ASSIGN  16789>>IF      16789>>IF
     16792>>ASSIGN  16798>>ASSIGN  16803>>IF      16809>>IF      16837>>ASSIGN  16837>>ASSIGN  16837>>ASSIGN
     16839<<ASSIGN  16840>>ASSIGN  16841>>IF      16841>>IF      16848>>ASSIGN  16852>>ASSIGN  16853>>ASSIGN
     16857>>IF      16859>>ASSIGN  16869>>ASSIGN  16869>>ASSIGN  16874>>IF      16874>>IF      16876>>ASSIGN
     16877>>ASSIGN  16878>>ASSIGN  16880>>ASSIGN  16881>>IF      16881>>IF      16883>>ASSIGN  16883>>ASSIGN
     16885>>ASSIGN  16887>>ASSIGN  16895<<ASSIGN  16904>>IF      16906>>DOINDEX 16907>>CALL    16912<<ASSIGN
     16926>>IF      16927>>ASSIGN  16927>>ASSIGN  16928>>ASSIGN  16928>>ASSIGN  16929>>ASSIGN  16929>>ASSIGN
     16931>>DOINDEX 16932>>ASSIGN  16934>>ASSIGN  16945>>ASSIGN  16948>>ASSIGN  16949>>ASSIGN  16949>>ASSIGN
     16956>>DOINDEX 16957>>ASSIGN  16958>>CALLBLT 16958>>CALLBLT 16961>>IF      16966>>IF      16968>>ASSIGN
     16974>>IF      16978>>ASSIGN  16978>>ASSIGN  16980>>ASSIGN  16985>>ASSIGN  16990>>DOINDEX 16991>>ASSIGN
     16993>>ASSIGN  16999<<ASSIGN  17009>>ASSIGN  17010>>ASSIGN  17012>>IF      17013>>ASSIGN  17014>>ASSIGN
     17015>>ASSIGN  17019>>ASSIGN  17020>>ASSIGN  17021>>ASSIGN  17029>>IF      17029>>IF      17029>>IF
     17032>>ASSIGN  17033>>ASSIGN  17034>>ASSIGN  17041>>ASSIGN  17052>>ASSIGN  17093>>ASSIGN  17104>>ASSIGN
     17119>>ASSIGN  17152>>ASSIGN  17152>>ASSIGN  17155>>CALLBLT 17155>>CALLBLT 17155>>CALLBLT 17214>>ASSIGN
     17215>>ASSIGN  17218>>ASSIGN  17219>>CALLBLT 17222>>ASSIGN  17240>>ASSIGN  17333>>ASSIGN  17336>>ASSIGN
     17390>>ASSIGN  17402>>ASSIGN
XUG$BLANK_PASSWORD_COMMON
        20**DCL-ENT 16491--CALL
XUG$BUILTIN_COMMON
        30**DCL-ENT 16523--CALL
XUG$CLRENABLE_COMMON
        28**DCL-ENT 16365--CALL    16642--CALL
XUG$CORRES_COMMON
        23**DCL-ENT 16701--CALL    16907--CALL
XUG$DISABLE_COMMON
        27**DCL-ENT 16306--CALL
PL6.E3A0      #001=XUG$COMMON File=XUG$COMMON.:E05TSI                            WED 07/30/97 09:17 Page:306
XUG$ECHOIF_COMMON
     16894**ENTRY   16618--CALL
XUG$ECHOLAST_COMMON
        26**DCL-ENT 16302--CALL
XUG$ECHO_COMMON
     16911**ENTRY   16323--CALL    16495--CALL    16539--CALL
XUG$ERRMSG_COMMON
        21**DCL-ENT 16336--CALL    16582--CALL    16620--CALL    16816--CALL    17113--CALL    17523--CALL
XUG$ERRPTR_COMMON
     16675**ENTRY   16619--CALL
XUG$GETDCB_COMMON
        29**DCL-ENT 16251--CALL    16254--CALL    16686--CALL    16903--CALL    16920--CALL
XUG$INIT_COMMON
     15917**ENTRY   16203--CALL
XUG$MOREMEM
     16100**ENTRY   16660--CALL
XUG$OPENOUT_INTERNAL
        33**DCL-ENT 16688--CALL    16938--CALL
XUG$PP_CMDVARS
        32**DCL-ENT 16292--CALL    16402--CALL
XUG$PRE_PROCESSOR
        31**DCL-ENT 16288--CALL    16398--CALL
XUG$PU
        24**DCL-ENT 16477--ASSIGN
XUG$READCMD_COMMON
        22**DCL-ENT 16307--CALL    16350--CALL    16658--CALL
XUG$SETLAST
        25**DCL-ENT 16297--CALL    16421--CALL
XUG$SETPROMPT
     16997**ENTRY   16263--CALL
XUG_INIT
     14225**DCL         8--PROC    15917--ENTRY
XUG_INIT.ABORT$
     14226**DCL     16045>>ASSIGN
XUG_INIT.ADAPT$$
     14536**DCL     16079>>ASSIGN
PL6.E3A0      #001=XUG$COMMON File=XUG$COMMON.:E05TSI                            WED 07/30/97 09:17 Page:307
XUG_INIT.ADDL_NRECS#
     14382**DCL     16060>>ASSIGN
XUG_INIT.ALWAYS_SET_PROMPT#
     14504**DCL     16087>>ASSIGN
XUG_INIT.BRKMSG$
     14241**DCL     16047>>ASSIGN
XUG_INIT.CMDSZ#
     14376**DCL     15998>>IF      16061>>ASSIGN
XUG_INIT.COMMANDS#
     14433**DCL     16062>>ASSIGN
XUG_INIT.CONTINUE$
     14234**DCL     16046>>ASSIGN
XUG_INIT.DONT_REREAD_CCBUF#
     14519**DCL     16065>>ASSIGN
XUG_INIT.DONT_STRIP_PROMPT#
     14527**DCL     16066>>ASSIGN
XUG_INIT.ECHO#
     14396**DCL     16085>>ASSIGN
XUG_INIT.GOODCMD#
     14487**DCL     16067>>ASSIGN
XUG_INIT.INHIBITS
     14557**DCL     16063>>ASSIGN
XUG_INIT.INIT_NRECS#
     14389**DCL     15993>>ASSIGN  16027>>ASSIGN
XUG_INIT.MOREMEM$$
     14299**DCL     16052>>ASSIGN
XUG_INIT.NO_DOWNGRADE#
     14510**DCL     16064>>ASSIGN
XUG_INIT.PARAMS$
     14341**DCL     16089<<ASSIGN
XUG_INIT.PASS#
     14406**DCL     16086>>ASSIGN
XUG_INIT.PCB$
     14358**DCL     16071>>IF      16078>>ASSIGN
XUG_INIT.POST_EXEC$$
     14281**DCL     16051>>ASSIGN
PL6.E3A0      #001=XUG$COMMON File=XUG$COMMON.:E05TSI                            WED 07/30/97 09:17 Page:308
XUG_INIT.PPCB$
     14365**DCL     16057>>ASSIGN
XUG_INIT.PP_DCB#
     14414**DCL     16059>>ASSIGN
XUG_INIT.PP_PROCNAME_
     14370**DCL     16058>>ASSIGN
XUG_INIT.PP_ROOT$
     14549**DCL     16088>>ASSIGN
XUG_INIT.PREPROCESS#
     14468**DCL     16044>>ASSIGN
XUG_INIT.PREPROCESSOR$$
     14321**DCL     16048>>ASSIGN
XUG_INIT.PRE_EXEC$$
     14263**DCL     16050>>ASSIGN
XUG_INIT.PROCACCT_
     14335**DCL     16054>>ASSIGN
XUG_INIT.PROCNAME_
     14330**DCL     16055>>ASSIGN
XUG_INIT.REQ_PROMPT#
     14475**DCL     16042>>ASSIGN
XUG_INIT.SPELLING#
     14499**DCL     16070>>ASSIGN
XUG_INIT.SPHANDLE$
     14248**DCL     16049>>ASSIGN
XUG_INIT.SYNTAX#
     14482**DCL     16043>>ASSIGN
XUG_INIT.WORK_
     14345**DCL     15921>>IF      15923>>IF      15929>>ASSIGN  15930>>ASSIGN  15937>>ASSIGN
XUG_INIT.WSEG#
     14423**DCL     15946>>DOCASE
XUG_INIT_A
     15051**DCL     16202<<ASSIGN  16203<>CALL
XUG_INIT_C
     14638**DCL     16202>>ASSIGN
XUG_NODES
     13415**DCL     16461--ASSIGN
PL6.E3A0      #001=XUG$COMMON File=XUG$COMMON.:E05TSI                            WED 07/30/97 09:17 Page:309
XUG_OWNS_MEMORY
     15838**DCL     15938<<ASSIGN  15983<<ASSIGN  15989>>ASSIGN  16000>>IF
XUH_PARAM_C
     15469**DCL     16053>>ASSIGN
XUP$DMPCORRECTED
     13417**DCL-ENT 17530--CALL
XUP_SYMTBL
      4627**DCL      4627--REDEF
XUS$CORRECT_SPELLING
     13418**DCL-ENT 16068--IF      17422--CALL

