PL6.E3A0      #002=XUG$ADAPTMEM File=XUG$COMMON.:E05TSI                          WED 07/30/97 09:20 Page:310
     1840        1        /*T***********************************************************/
     1841        2        /*T*                                                         */
     1842        3        /*T* Copyright (c) Bull HN Information Systems Inc., 1997    */
     1843        4        /*T*                                                         */
     1844        5        /*T***********************************************************/
     1845        6        /*X* DMC,PLM=4,IND=4,CTI=2,DTI=0,ENI=0,ECI=0,CSI=0,MCI,DCI=4 */
     1846        7        XUG$ADAPTMEM: PROC (XT_PARAM) ALTRET;
     1847        8        /*D*  NAME: XUG$ADAPTMEM
     1848        9              DESCRIPTION: Called from within ADAPT to request expansion of
     1849       10                    ADAPT's workspace, which lives at the high end of the GETCMD
     1850       11                    data area.
     1851       12        */
     1852       13
     1853       14        %INCLUDE CP_6;
     1854     5573        %INCLUDE XU_MACRO_C;
     1855     8679        %INCLUDE XUH_MACRO_C;
     1856     8763        %INCLUDE XT_MACRO_M;
     1857     9089
     1858     9090        %XT_PARAM (NAME=XT_PARAM, STCLASS=PARAM);
     1859     9403
     1860     9404        %B$TCB (STCLASS="BASED(B$TCB$)");
     1861     9407        %B$ALT;
     1862     9415        %FPT_GDS (FPTN=FPT_GDS, STCLASS=AUTO);
     1863     9431        %FPT_GDS (FPTN=FPT_GDS_C, STCLASS=CONSTANT);
     1864     9447        %XUG_PARAMS;
     1865     9891
     1866     9892    1   DCL B$TCB$ PTR SYMREF READONLY;
     1867     9893
     1868     9894    1   DCL XUG$ PTR;
     1869     9895    1   DCL DUMMY$ PTR;
     1870     9896    1   DCL TEMP SBIN;
     1871     9897    1   DCL TEMP_ERR BIT (36);
     1872     9898    1   DCL TOP$ PTR;
     1873     9899    1   DCL USER_GDSVEC VECTOR;
     1874     9900
     1875     9901        %VLP_ERRCODE (FPTN=XUG#CANTEXPAND, STCLASS=SYMREF);
     1876     9946        %VLP_ERRCODE (FPTN=XUG#NOTCONTIGAREA, STCLASS=SYMREF);
PL6.E3A0      #002=XUG$ADAPTMEM File=XUG$COMMON.:E05TSI                          WED 07/30/97 09:20 Page:311
     1877     9991        %VLP_ERRCODE (FPTN=XUG#AREANOTRTSZ, STCLASS=SYMREF);
     1878    10036
     1879    10037    1       XUG$ = XT_PARAM.XUG$;
     1880    10038    1       TOP$ = PINCRW(VBASE(XUG.GDSVEC), (VBOUND(XUG.GDSVEC)+3)/4);
     1881    10039
     1882    10040    1       IF XUG.XUG_OWNS_MEMORY
     1883    10041    2       THEN DO ;
     1884    10042    2           FPT_GDS = FPT_GDS_C ;
     1885    10043    2           FPT_GDS.V_ = VECTOR(FPT_GDS.V) ;
     1886    10044    2           FPT_GDS.RESULTS_ = VECTOR(XUG.GDSVEC);
     1887    10045    2           IF XT_PARAM.WS_NEEDED > 0
     1888    10046    3           THEN DO;
     1889    10047    3               FPT_GDS.V.SEGSIZE# = XT_PARAM.WS_NEEDED;
     1890    10048    3               CALL M$GDS (FPT_GDS) ALTRET(GDS_ALT);
     1891    10049    3           END;
     1892    10050    3           ELSE DO;
     1893    10051    3               FPT_GDS.V.SEGSIZE# = - XT_PARAM.WS_NEEDED;
     1894    10052    3               CALL M$FDS (FPT_GDS) ALTRET(GDS_ALT);
     1895    10053    3           END;
     1896    10054    2           IF XT_PARAM.WS$ = ADDR(NIL)
     1897    10055    2           THEN
     1898    10056    2               XT_PARAM.WS$ = TOP$;
     1899    10057    2           XT_PARAM.WS_SIZE = XT_PARAM.WS_SIZE + XT_PARAM.WS_NEEDED;
     1900    10058    2           RETURN;
     1901    10059    2       END;
     1902    10060
     1903    10061    1       IF XUG.MOREMEM = ENTADDR(NIL)
     1904    10062    2       THEN DO;
     1905    10063    2           XT_PARAM.ERR = XUG#CANTEXPAND;
     1906    10064    2           ALTRETURN;
     1907    10065    2       END;
     1908    10066
     1909    10067    1       TEMP = XT_PARAM.WS_NEEDED;
     1910    10068
     1911    10069    1       CALL XUG.MOREMEM(TEMP, USER_GDSVEC, TEMP_ERR)
     1912    10070    2       WHENALTRETURN DO ;
     1913    10071    2           XT_PARAM.ERR = TEMP_ERR ;
PL6.E3A0      #002=XUG$ADAPTMEM File=XUG$COMMON.:E05TSI                          WED 07/30/97 09:20 Page:312
     1914    10072    2           ALTRETURN;
     1915    10073    2       END;
     1916    10074
     1917    10075    1       IF XT_PARAM.WS_NEEDED <= 0
     1918    10076    2       THEN DO;
     1919    10077    2           VBOUND(XUG.GDSVEC) = VBOUND(XUG.GDSVEC) + ( XT_PARAM.WS_NEEDED * 4 );
     1920    10078    2           XT_PARAM.WS_SIZE = XT_PARAM.WS_SIZE + XT_PARAM.WS_NEEDED ;
     1921    10079    2           RETURN ;
     1922    10080    2       END;
     1923    10081
     1924    10082    1       IF TOP$ ~= VBASE(USER_GDSVEC)
     1925    10083    2       THEN DO;
     1926    10084    2           XT_PARAM.ERR = XUG#NOTCONTIGAREA ;
     1927    10085    2           ALTRETURN;
     1928    10086    2       END;
     1929    10087
     1930    10088    1       IF VBOUND(USER_GDSVEC)+1 < XT_PARAM.WS_NEEDED * 4
     1931    10089    2       THEN DO;
     1932    10090    2           XT_PARAM.ERR = XUG#AREANOTRTSZ ;
     1933    10091    2           ALTRETURN;
     1934    10092    2       END;
     1935    10093
     1936    10094    1       VBOUND(XUG.GDSVEC) = VBOUND(XUG.GDSVEC) + VBOUND(USER_GDSVEC) + 1;
     1937    10095    1       XT_PARAM.WS_SIZE = XT_PARAM.WS_SIZE + VBOUND(USER_GDSVEC)/4 + 1;
     1938    10096
     1939    10097    1       IF XT_PARAM.WS$ = ADDR(NIL)
     1940    10098    1       THEN
     1941    10099    1           XT_PARAM.WS$ = TOP$;
     1942    10100
     1943    10101    1       RETURN;
     1944    10102
     1945    10103    1   GDS_ALT: ;
     1946    10104    1       IF XT_PARAM.ERR = '0'B
     1947    10105    1       THEN
     1948    10106    1           XT_PARAM.ERR = B$TCB.ALT$ -> B$ALT.ERR ;
     1949    10107    1       ALTRETURN ;
     1950    10108
PL6.E3A0      #002=XUG$ADAPTMEM File=XUG$COMMON.:E05TSI                          WED 07/30/97 09:20 Page:313
     1951    10109    1   END XUG$ADAPTMEM;
     1952    10110        %EOD;

PL6.E3A0      #002=XUG$ADAPTMEM File=XUG$COMMON.:E05TSI                          WED 07/30/97 09:20 Page:314
--  Include file information  --

   XT_MACRO_M.:TOOLE04  is referenced.
   XUH_MACRO_C.:E05TOU  is referenced.
   XU_MACRO_C.:E05TOU  is referenced.
   CP_6_C.:E05TOU  is referenced.
   CP_6.:E05TOU  cannot be made into a system file and is referenced.
      No diagnostics issued in procedure XUG$ADAPTMEM.

   Procedure XUG$ADAPTMEM requires 146 words for executable code.
   Procedure XUG$ADAPTMEM requires 22 words of local(AUTO) storage.

PL6.E3A0      #002=XUG$ADAPTMEM File=XUG$COMMON.:E05TSI                          WED 07/30/97 09:20 Page:315

 Object Unit name= XUG$ADAPTMEM                               File name= XUG$COMMON.:E05TOU
 UTS= JUL 30 '97 09:20:21.48 WED                              Compiler= PL-6/E31         Sev=      00
 SharedLib= :SHARED_SYSTEM                                    Alt SharedLib=


    ****  Control sections  ****

 Sect   Type Bound  Init  Size OctSiz  Section name(segment info)
    0   DCB   even  none     0      0  M$UC
    1  RoData even  UTS      6      6  XUG$ADAPTMEM
    2   Proc  even  none   146    222  XUG$ADAPTMEM
    3  RoData even  none     1      1  XUG$ADAPTMEM

    ****  Entry defs  ****

                              Check   Calling
                             calling  sequence
  Sect OctLoc Primary Altret sequence   type   Parms  Name
     2      0   yes    yes     yes      Std        1  XUG$ADAPTMEM

  ****  Entry refs  ****

         Check        Calling
        calling       sequence
Altret sequence SRef   type   Args  Name
                       nStd      0 X66_AUTO_1
                       Std       0 B_CONSPOOL_D
                       nStd      0 X66_ARET
                       nStd      0 X66_AALT

  ****  Data refs  ****

  Flags:  r = read only, s = secondary
Flgs Name                             Flgs Name                             Flgs Name
     M$UC                             r    B$TCB$                                XUG#CANTEXPAND
     XUG#NOTCONTIGAREA                     XUG#AREANOTRTSZ                       B_VECTNIL
PL6.E3A0      #002=XUG$ADAPTMEM File=XUG$COMMON.:E05TSI                          WED 07/30/97 09:20 Page:316

  ****  Segment refs  ****

  Flags:  r = read only, s = secondary
Flgs Name                             Flgs Name                             Flgs Name
     ISSID                                 NULLSID
PL6.E3A0      #002=XUG$ADAPTMEM File=XUG$COMMON.:E05TSI                          WED 07/30/97 09:20 Page:317


     1840        1        /*T***********************************************************/
     1841        2        /*T*                                                         */
     1842        3        /*T* Copyright (c) Bull HN Information Systems Inc., 1997    */
     1843        4        /*T*                                                         */
     1844        5        /*T***********************************************************/
     1845        6        /*X* DMC,PLM=4,IND=4,CTI=2,DTI=0,ENI=0,ECI=0,CSI=0,MCI,DCI=4 */
     1846        7        XUG$ADAPTMEM: PROC (XT_PARAM) ALTRET;

      7  2 000000   000000 700200 xent  XUG$ADAPTMEM TSX0  ! X66_AUTO_1
         2 000001   000026 000001                    ZERO    22,1

     1847        8        /*D*  NAME: XUG$ADAPTMEM
     1848        9              DESCRIPTION: Called from within ADAPT to request expansion of
     1849       10                    ADAPT's workspace, which lives at the high end of the GETCMD
     1850       11                    data area.
     1851       12        */
     1852       13
     1853       14        %INCLUDE CP_6;
     1854     5573        %INCLUDE XU_MACRO_C;
     1855     8679        %INCLUDE XUH_MACRO_C;
     1856     8763        %INCLUDE XT_MACRO_M;
     1857     9089
     1858     9090        %XT_PARAM (NAME=XT_PARAM, STCLASS=PARAM);
     1859     9403
     1860     9404        %B$TCB (STCLASS="BASED(B$TCB$)");
     1861     9407        %B$ALT;
     1862     9415        %FPT_GDS (FPTN=FPT_GDS, STCLASS=AUTO);
     1863     9431        %FPT_GDS (FPTN=FPT_GDS_C, STCLASS=CONSTANT);
     1864     9447        %XUG_PARAMS;
     1865     9891
     1866     9892    1   DCL B$TCB$ PTR SYMREF READONLY;
     1867     9893
     1868     9894    1   DCL XUG$ PTR;
     1869     9895    1   DCL DUMMY$ PTR;
     1870     9896    1   DCL TEMP SBIN;
     1871     9897    1   DCL TEMP_ERR BIT (36);
PL6.E3A0      #002=XUG$ADAPTMEM File=XUG$COMMON.:E05TSI                          WED 07/30/97 09:20 Page:318
     1872     9898    1   DCL TOP$ PTR;
     1873     9899    1   DCL USER_GDSVEC VECTOR;
     1874     9900
     1875     9901        %VLP_ERRCODE (FPTN=XUG#CANTEXPAND, STCLASS=SYMREF);
     1876     9946        %VLP_ERRCODE (FPTN=XUG#NOTCONTIGAREA, STCLASS=SYMREF);
     1877     9991        %VLP_ERRCODE (FPTN=XUG#AREANOTRTSZ, STCLASS=SYMREF);
     1878    10036
     1879    10037    1       XUG$ = XT_PARAM.XUG$;

  10037  2 000002   200003 470500                    LDP0    @XT_PARAM,,AUTO
         2 000003   000015 236100                    LDQ     13,,PR0
         2 000004   200012 756100                    STQ     XUG$,,AUTO

     1880    10038    1       TOP$ = PINCRW(VBASE(XUG.GDSVEC), (VBOUND(XUG.GDSVEC)+3)/4);

  10038  2 000005   200012 471500                    LDP1    XUG$,,AUTO
         2 000006   100006 236100                    LDQ     6,,PR1
         2 000007   000020 772000                    QRL     16
         2 000010   000003 036007                    ADLQ    3,DL
         2 000011   000002 772000                    QRL     2
         2 000012   100007 473500                    LDP3    7,,PR1
         2 000013   300000 634506                    EPPR4   0,QL,PR3
         2 000014   200016 454500                    STP4    TOP$,,AUTO

     1881    10039
     1882    10040    1       IF XUG.XUG_OWNS_MEMORY

  10040  2 000015   100071 236100                    LDQ     57,,PR1
         2 000016   000200 316003                    CANQ    128,DU
         2 000017   000067 600000 2                  TZE     s:10061

     1883    10041    2       THEN DO ;

     1884    10042    2           FPT_GDS = FPT_GDS_C ;

  10042  2 000020   000100 100400                    MLR     fill='000'O
         2 000021   000000 000030 1                  ADSC9   FPT_GDS_C                cn=0,n=24
PL6.E3A0      #002=XUG$ADAPTMEM File=XUG$COMMON.:E05TSI                          WED 07/30/97 09:20 Page:319
         2 000022   200004 000030                    ADSC9   FPT_GDS,,AUTO            cn=0,n=24

     1885    10043    2           FPT_GDS.V_ = VECTOR(FPT_GDS.V) ;

  10043  2 000023   000000 235000 3                  LDA     0
         2 000024   200022 452500                    STP2    USER_GDSVEC+2,,AUTO
         2 000025   200022 236100                    LDQ     USER_GDSVEC+2,,AUTO
         2 000026   000010 036003                    ADLQ    8,DU
         2 000027   200004 757100                    STAQ    FPT_GDS,,AUTO

     1886    10044    2           FPT_GDS.RESULTS_ = VECTOR(XUG.GDSVEC);

  10044  2 000030   000000 235000 3                  LDA     0
         2 000031   200012 236100                    LDQ     XUG$,,AUTO
         2 000032   000006 036003                    ADLQ    6,DU
         2 000033   200006 757100                    STAQ    FPT_GDS+2,,AUTO

     1887    10045    2           IF XT_PARAM.WS_NEEDED > 0

  10045  2 000034   000021 235100                    LDA     17,,PR0
         2 000035   000045 604400 2                  TMOZ    s:10051

     1888    10046    3           THEN DO;

     1889    10047    3               FPT_GDS.V.SEGSIZE# = XT_PARAM.WS_NEEDED;

  10047  2 000036   000021 720100                    LXL0    17,,PR0
         2 000037   200010 440100                    SXL0    FPT_GDS+4,,AUTO

     1890    10048    3               CALL M$GDS (FPT_GDS) ALTRET(GDS_ALT);

  10048  2 000040   200004 630500                    EPPR0   FPT_GDS,,AUTO
         2 000041   430001 713400                    CLIMB   alt,gds
         2 000042   400400 401760                    pmme    nvectors=2
         2 000043   000212 702000 2                  TSX2    GDS_ALT

     1891    10049    3           END;
PL6.E3A0      #002=XUG$ADAPTMEM File=XUG$COMMON.:E05TSI                          WED 07/30/97 09:20 Page:320

  10049  2 000044   000055 710000 2                  TRA     s:10054

     1892    10050    3           ELSE DO;

     1893    10051    3               FPT_GDS.V.SEGSIZE# = - XT_PARAM.WS_NEEDED;

  10051  2 000045   000021 720100                    LXL0    17,,PR0
         2 000046   777777 620010                    EAX0    -1,X0
         2 000047   777777 660003                    ERX0    -1,DU
         2 000050   200010 440100                    SXL0    FPT_GDS+4,,AUTO

     1894    10052    3               CALL M$FDS (FPT_GDS) ALTRET(GDS_ALT);

  10052  2 000051   200004 630500                    EPPR0   FPT_GDS,,AUTO
         2 000052   430002 713400                    CLIMB   alt,fds
         2 000053   400400 401760                    pmme    nvectors=2
         2 000054   000212 702000 2                  TSX2    GDS_ALT

     1895    10053    3           END;

     1896    10054    2           IF XT_PARAM.WS$ = ADDR(NIL)

  10054  2 000055   200003 470500                    LDP0    @XT_PARAM,,AUTO
         2 000056   000000 236100                    LDQ     0,,PR0
         2 000057   000001 116000 xsym               CMPQ    B_VECTNIL+1
         2 000060   000063 601000 2                  TNZ     s:10057

     1897    10055    2           THEN
     1898    10056    2               XT_PARAM.WS$ = TOP$;

  10056  2 000061   200016 236100                    LDQ     TOP$,,AUTO
         2 000062   000000 756100                    STQ     0,,PR0

     1899    10057    2           XT_PARAM.WS_SIZE = XT_PARAM.WS_SIZE + XT_PARAM.WS_NEEDED;

  10057  2 000063   000002 236100                    LDQ     2,,PR0
PL6.E3A0      #002=XUG$ADAPTMEM File=XUG$COMMON.:E05TSI                          WED 07/30/97 09:20 Page:321
         2 000064   000021 036100                    ADLQ    17,,PR0
         2 000065   000002 756100                    STQ     2,,PR0

     1900    10058    2           RETURN;

  10058  2 000066   000000 702200 xent               TSX2  ! X66_ARET

     1901    10059    2       END;
     1902    10060
     1903    10061    1       IF XUG.MOREMEM = ENTADDR(NIL)

  10061  2 000067   100030 236100                    LDQ     24,,PR1
         2 000070   000002 116000 xsym               CMPQ    B_VECTNIL+2
         2 000071   000075 601000 2                  TNZ     s:10067

     1904    10062    2       THEN DO;

     1905    10063    2           XT_PARAM.ERR = XUG#CANTEXPAND;

  10063  2 000072   000000 236000 xsym               LDQ     XUG#CANTEXPAND
         2 000073   000001 756100                    STQ     1,,PR0

     1906    10064    2           ALTRETURN;

  10064  2 000074   000000 702200 xent               TSX2  ! X66_AALT

     1907    10065    2       END;
     1908    10066
     1909    10067    1       TEMP = XT_PARAM.WS_NEEDED;

  10067  2 000075   000021 235100                    LDA     17,,PR0
         2 000076   200014 755100                    STA     TEMP,,AUTO

     1910    10068
     1911    10069    1       CALL XUG.MOREMEM(TEMP, USER_GDSVEC, TEMP_ERR)

  10069  2 000077   200015 633500                    EPPR3   TEMP_ERR,,AUTO
PL6.E3A0      #002=XUG$ADAPTMEM File=XUG$COMMON.:E05TSI                          WED 07/30/97 09:20 Page:322
         2 000100   200024 453500                    STP3    USER_GDSVEC+4,,AUTO
         2 000101   200020 635500                    EPPR5   USER_GDSVEC,,AUTO
         2 000102   200023 455500                    STP5    USER_GDSVEC+3,,AUTO
         2 000103   200014 636500                    EPPR6   TEMP,,AUTO
         2 000104   200022 456500                    STP6    USER_GDSVEC+2,,AUTO
         2 000105   200022 630500                    EPPR0   USER_GDSVEC+2,,AUTO
         2 000106   100030 220100                    LDX0    24,,PR1
         2 000107   000021 631400 xsym               EPPR1   B_VECTNIL+17
         2 000110   000000 701010                    TSX1    0,X0
         2 000111   000113 702000 2                  TSX2    s:10071
         2 000112   000117 710000 2                  TRA     s:10075

     1912    10070    2       WHENALTRETURN DO ;

     1913    10071    2           XT_PARAM.ERR = TEMP_ERR ;

  10071  2 000113   200015 236100                    LDQ     TEMP_ERR,,AUTO
         2 000114   200003 470500                    LDP0    @XT_PARAM,,AUTO
         2 000115   000001 756100                    STQ     1,,PR0

     1914    10072    2           ALTRETURN;

  10072  2 000116   000000 702200 xent               TSX2  ! X66_AALT

     1915    10073    2       END;
     1916    10074
     1917    10075    1       IF XT_PARAM.WS_NEEDED <= 0

  10075  2 000117   200003 470500                    LDP0    @XT_PARAM,,AUTO
         2 000120   000021 235100                    LDA     17,,PR0
         2 000121   000141 605400 2                  TPNZ    s:10082

     1918    10076    2       THEN DO;

     1919    10077    2           VBOUND(XUG.GDSVEC) = VBOUND(XUG.GDSVEC) + ( XT_PARAM.WS_NEEDED * 4 );

  10077  2 000122   200012 471500                    LDP1    XUG$,,AUTO
PL6.E3A0      #002=XUG$ADAPTMEM File=XUG$COMMON.:E05TSI                          WED 07/30/97 09:20 Page:323
         2 000123   100006 236100                    LDQ     6,,PR1
         2 000124   000020 772000                    QRL     16
         2 000125   200022 756100                    STQ     USER_GDSVEC+2,,AUTO
         2 000126   000021 236100                    LDQ     17,,PR0
         2 000127   000002 736000                    QLS     2
         2 000130   200022 036100                    ADLQ    USER_GDSVEC+2,,AUTO
         2 000131   000020 736000                    QLS     16
         2 000132   100006 676100                    ERQ     6,,PR1
         2 000133   000034 376000 xsym               ANQ     B_VECTNIL+28
         2 000134   100006 656100                    ERSQ    6,,PR1

     1920    10078    2           XT_PARAM.WS_SIZE = XT_PARAM.WS_SIZE + XT_PARAM.WS_NEEDED ;

  10078  2 000135   000002 236100                    LDQ     2,,PR0
         2 000136   000021 036100                    ADLQ    17,,PR0
         2 000137   000002 756100                    STQ     2,,PR0

     1921    10079    2           RETURN ;

  10079  2 000140   000000 702200 xent               TSX2  ! X66_ARET

     1922    10080    2       END;
     1923    10081
     1924    10082    1       IF TOP$ ~= VBASE(USER_GDSVEC)

  10082  2 000141   200016 236100                    LDQ     TOP$,,AUTO
         2 000142   200021 116100                    CMPQ    USER_GDSVEC+1,,AUTO
         2 000143   000147 600000 2                  TZE     s:10088

     1925    10083    2       THEN DO;

     1926    10084    2           XT_PARAM.ERR = XUG#NOTCONTIGAREA ;

  10084  2 000144   000000 236000 xsym               LDQ     XUG#NOTCONTIGAREA
         2 000145   000001 756100                    STQ     1,,PR0

     1927    10085    2           ALTRETURN;
PL6.E3A0      #002=XUG$ADAPTMEM File=XUG$COMMON.:E05TSI                          WED 07/30/97 09:20 Page:324

  10085  2 000146   000000 702200 xent               TSX2  ! X66_AALT

     1928    10086    2       END;
     1929    10087
     1930    10088    1       IF VBOUND(USER_GDSVEC)+1 < XT_PARAM.WS_NEEDED * 4

  10088  2 000147   000021 235100                    LDA     17,,PR0
         2 000150   000002 735000                    ALS     2
         2 000151   200022 755100                    STA     USER_GDSVEC+2,,AUTO
         2 000152   200020 236100                    LDQ     USER_GDSVEC,,AUTO
         2 000153   000020 772000                    QRL     16
         2 000154   000001 036007                    ADLQ    1,DL
         2 000155   200022 116100                    CMPQ    USER_GDSVEC+2,,AUTO
         2 000156   000162 605000 2                  TPL     s:10094

     1931    10089    2       THEN DO;

     1932    10090    2           XT_PARAM.ERR = XUG#AREANOTRTSZ ;

  10090  2 000157   000000 236000 xsym               LDQ     XUG#AREANOTRTSZ
         2 000160   000001 756100                    STQ     1,,PR0

     1933    10091    2           ALTRETURN;

  10091  2 000161   000000 702200 xent               TSX2  ! X66_AALT

     1934    10092    2       END;
     1935    10093
     1936    10094    1       VBOUND(XUG.GDSVEC) = VBOUND(XUG.GDSVEC) + VBOUND(USER_GDSVEC) + 1;

  10094  2 000162   200020 236100                    LDQ     USER_GDSVEC,,AUTO
         2 000163   000020 772000                    QRL     16
         2 000164   200022 756100                    STQ     USER_GDSVEC+2,,AUTO
         2 000165   200012 471500                    LDP1    XUG$,,AUTO
         2 000166   100006 236100                    LDQ     6,,PR1
         2 000167   000020 772000                    QRL     16
PL6.E3A0      #002=XUG$ADAPTMEM File=XUG$COMMON.:E05TSI                          WED 07/30/97 09:20 Page:325
         2 000170   200022 036100                    ADLQ    USER_GDSVEC+2,,AUTO
         2 000171   000001 036007                    ADLQ    1,DL
         2 000172   000020 736000                    QLS     16
         2 000173   100006 676100                    ERQ     6,,PR1
         2 000174   000034 376000 xsym               ANQ     B_VECTNIL+28
         2 000175   100006 656100                    ERSQ    6,,PR1

     1937    10095    1       XT_PARAM.WS_SIZE = XT_PARAM.WS_SIZE + VBOUND(USER_GDSVEC)/4 + 1;

  10095  2 000176   200020 236100                    LDQ     USER_GDSVEC,,AUTO
         2 000177   000020 772000                    QRL     16
         2 000200   000002 772000                    QRL     2
         2 000201   000002 036100                    ADLQ    2,,PR0
         2 000202   000001 036007                    ADLQ    1,DL
         2 000203   000002 756100                    STQ     2,,PR0

     1938    10096
     1939    10097    1       IF XT_PARAM.WS$ = ADDR(NIL)

  10097  2 000204   000000 236100                    LDQ     0,,PR0
         2 000205   000001 116000 xsym               CMPQ    B_VECTNIL+1
         2 000206   000211 601000 2                  TNZ     s:10101

     1940    10098    1       THEN
     1941    10099    1           XT_PARAM.WS$ = TOP$;

  10099  2 000207   200016 236100                    LDQ     TOP$,,AUTO
         2 000210   000000 756100                    STQ     0,,PR0

     1942    10100
     1943    10101    1       RETURN;

  10101  2 000211   000000 702200 xent               TSX2  ! X66_ARET

  10097  2 000212                       GDS_ALT      null
     1944    10102
     1945    10103    1   GDS_ALT: ;
PL6.E3A0      #002=XUG$ADAPTMEM File=XUG$COMMON.:E05TSI                          WED 07/30/97 09:20 Page:326
     1946    10104    1       IF XT_PARAM.ERR = '0'B

  10104  2 000212   200003 470500                    LDP0    @XT_PARAM,,AUTO
         2 000213   000001 235100                    LDA     1,,PR0
         2 000214   000221 601000 2                  TNZ     s:10107

     1947    10105    1       THEN
     1948    10106    1           XT_PARAM.ERR = B$TCB.ALT$ -> B$ALT.ERR ;

  10106  2 000215   000000 471400 xsym               LDP1    B$TCB$
         2 000216   100000 473500                    LDP3    0,,PR1
         2 000217   300102 236100                    LDQ     66,,PR3
         2 000220   000001 756100                    STQ     1,,PR0

     1949    10107    1       ALTRETURN ;

  10107  2 000221   000000 702200 xent               TSX2  ! X66_AALT
     1950    10108
     1951    10109    1   END XUG$ADAPTMEM;
     1952    10110        %EOD;

PL6.E3A0      #002=XUG$ADAPTMEM File=XUG$COMMON.:E05TSI                          WED 07/30/97 09:20 Page:327
--  Include file information  --

   XT_MACRO_M.:TOOLE04  is referenced.
   XUH_MACRO_C.:E05TOU  is referenced.
   XU_MACRO_C.:E05TOU  is referenced.
   CP_6_C.:E05TOU  is referenced.
   CP_6.:E05TOU  cannot be made into a system file and is referenced.
      No diagnostics issued in procedure XUG$ADAPTMEM.
PL6.E3A0      #002=XUG$ADAPTMEM File=XUG$COMMON.:E05TSI                          WED 07/30/97 09:20 Page:328

 **** Variables and constants ****

  ****  Section 001 RoData XUG$ADAPTMEM

  ****  Scalars and arrays  ****
OctLoc.c.b A Datatyp(siz) R M Lvl/name                 OctLoc.c.b A Datatyp(siz) R M Lvl/name

     0-0-0/d STRC(216)   r     1 FPT_GDS_C

  ****  Auto variables  ****

  ****  Scalars and arrays  ****
OctLoc.c.b A Datatyp(siz) R M Lvl/name                 OctLoc.c.b A Datatyp(siz) R M Lvl/name

     3-0-0/w PTR         r     1 @XT_PARAM                  4-0-0/d STRC(216)   r     1 FPT_GDS
    14-0-0/w SBIN        r     1 TEMP                      15-0-0/b BIT         r     1 TEMP_ERR
    16-0-0/w PTR         r     1 TOP$                      20-0-0/d VECT        r     1 USER_GDSVEC
    *0-0-0/w STRC(1152)  r     1 XT_PARAM                  12-0-0/w PTR         r     1 XUG$

  ****  SYMREF variables  ****

  ****  Scalars and arrays  ****
OctLoc.c.b A Datatyp(siz) R M Lvl/name                 OctLoc.c.b A Datatyp(siz) R M Lvl/name

     0-0-0/w PTR         r     1 B$TCB$                     0-0-0/w STRC        r     1 XUG#AREANOTRTSZ
     0-0-0/w STRC        r     1 XUG#CANTEXPAND             0-0-0/w STRC        r     1 XUG#NOTCONTIGAREA

  ****  BASED and DCB variables  ****

  ****  Scalars and arrays  ****
OctLoc.c.b A Datatyp(siz) R M Lvl/name                 OctLoc.c.b A Datatyp(siz) R M Lvl/name

     0-0-0/w STRC(2448)  r     1 B$ALT                      0-0-0/w STRC(144)   r     1 B$TCB
     0-0-0/d STRC(9612)  r     1 XUG

PL6.E3A0      #002=XUG$ADAPTMEM File=XUG$COMMON.:E05TSI                          WED 07/30/97 09:20 Page:329

   Procedure XUG$ADAPTMEM requires 146 words for executable code.
   Procedure XUG$ADAPTMEM requires 22 words of local(AUTO) storage.
PL6.E3A0      #002=XUG$ADAPTMEM File=XUG$COMMON.:E05TSI                          WED 07/30/97 09:20 Page:330
          *** CROSS REFERENCE LISTING ***
**     DENOTES     IDENTIFIER DEFINITION
<<                 IDENTIFIER'S VALUE SET
>>                 IDENTIFIER'S VALUE USED
<>                 IDENTIFIER SET AND/OR USED
--                 IDENTIFIER REFERENCED
PL6.E3A0      #002=XUG$ADAPTMEM File=XUG$COMMON.:E05TSI                          WED 07/30/97 09:20 Page:331
          MINI XREF LISTING

B$ALT.CODE
      9409**DCL      9409--REDEF    9410--REDEF    9410--REDEF
B$ALT.ERR
      9410**DCL     10106>>ASSIGN
B$ALT.ERR.ERR#
      9411**DCL      9411--REDEF
B$ALT.EVID
      9410**DCL      9410--REDEF    9410--REDEF
B$TCB.ALT$
      9405**DCL     10106>>ASSIGN
B$TCB$
      9892**DCL      9405--IMP-PTR 10106>>ASSIGN
FPT_GDS
      9426**DCL     10042<<ASSIGN  10048<>CALL    10052<>CALL
FPT_GDS.RESULTS_
      9426**DCL     10044<<ASSIGN
FPT_GDS.V
      9426**DCL     10043--ASSIGN
FPT_GDS.V.SEGSIZE#
      9429**DCL     10047<<ASSIGN  10051<<ASSIGN
FPT_GDS.V_
      9426**DCL     10043<<ASSIGN
FPT_GDS_C
      9442**DCL     10042>>ASSIGN
FPT_GDS_C.V
      9442**DCL      9442--DCLINIT
GDS_ALT
     10097**LABEL   10048--CALLALT 10052--CALLALT
M$FDS
      5536**DCL-ENT 10052--CALL
M$GDS
      5536**DCL-ENT 10048--CALL
PL6.E3A0      #002=XUG$ADAPTMEM File=XUG$COMMON.:E05TSI                          WED 07/30/97 09:20 Page:332
TEMP
      9896**DCL     10067<<ASSIGN  10069<>CALL
TEMP_ERR
      9897**DCL     10069<>CALL    10071>>ASSIGN
TOP$
      9898**DCL     10038<<ASSIGN  10056>>ASSIGN  10082>>IF      10099>>ASSIGN
USER_GDSVEC
      9899**DCL     10069<>CALL    10082>>IF      10088>>IF      10094>>ASSIGN  10095>>ASSIGN
XT_PARAM
      9103**DCL         7--PROC
XT_PARAM.ERR
      9127**DCL     10063<<ASSIGN  10071<<ASSIGN  10084<<ASSIGN  10090<<ASSIGN  10104>>IF      10106<<ASSIGN
XT_PARAM.WS$
      9104**DCL     10054>>IF      10056<<ASSIGN  10097>>IF      10099<<ASSIGN
XT_PARAM.WS_NEEDED
      9313**DCL     10045>>IF      10047>>ASSIGN  10051>>ASSIGN  10057>>ASSIGN  10067>>ASSIGN  10075>>IF
     10077>>ASSIGN  10078>>ASSIGN  10088>>IF
XT_PARAM.WS_SIZE
      9138**DCL     10057<<ASSIGN  10057>>ASSIGN  10078<<ASSIGN  10078>>ASSIGN  10095<<ASSIGN  10095>>ASSIGN
XT_PARAM.XUG$
      9263**DCL     10037>>ASSIGN
XUG.BUF
      9886**DCL      9889--REDEF
XUG.GDSVEC
      9461**DCL     10038>>ASSIGN  10038>>ASSIGN  10044--ASSIGN  10077<<ASSIGN  10077>>ASSIGN  10094<<ASSIGN
     10094>>ASSIGN
XUG.MOREMEM
      9507**DCL     10061>>IF      10069>>CALL
XUG.XUG_OWNS_MEMORY
      9587**DCL     10040>>IF
XUG#AREANOTRTSZ
     10003**DCL     10090>>ASSIGN
XUG#CANTEXPAND
      9913**DCL     10063>>ASSIGN
XUG#NOTCONTIGAREA
      9958**DCL     10084>>ASSIGN
PL6.E3A0      #002=XUG$ADAPTMEM File=XUG$COMMON.:E05TSI                          WED 07/30/97 09:20 Page:333
XUG$
      9894**DCL      9450--IMP-PTR 10037<<ASSIGN  10038>>ASSIGN  10038>>ASSIGN  10040>>IF      10044>>ASSIGN
     10061>>IF      10069>>CALL    10077>>ASSIGN  10077>>ASSIGN  10094>>ASSIGN  10094>>ASSIGN

PL6.E3A0      #003=XUG$PU File=XUG$COMMON.:E05TSI                                WED 07/30/97 09:21 Page:334
     1953        1        /*T***********************************************************/
     1954        2        /*T*                                                         */
     1955        3        /*T* Copyright (c) Bull HN Information Systems Inc., 1997    */
     1956        4        /*T*                                                         */
     1957        5        /*T***********************************************************/
     1958        6        XUG$PU: PROC(PARSE_PARAM) ALTRET ;
     1959        7        /*X* DMC,PLM=4,IND=4,CTI=2,DTI=0,ENI=0,ECI=0,CSI=0,MCI,DCI=4 */
     1960        8        %INCLUDE XU_MACRO_C;
     1961     3114        %INCLUDE XUH_MACRO_C ;
     1962     3198        %INCLUDE CP_6_SUBS;
     1963     3738        %PARSE$PARAM (NAME=PARSE_PARAM);
     1964     3819        %P_PCB (STCLASS=BASED) ;
     1965     4018        %INCLUDE XU_SUBS_C;
     1966     4110    1   DCL XUG$GETMORE_COMMON ENTRY(1) ALTRET;
     1967     4111    1   DCL XUG$MOREMEM ENTRY(1) ALTRET;
     1968     4112    1   DCL XUG$SETPROMPT ENTRY(1) ALTRET ;
     1969     4113        /*
     1970     4114        */
     1971     4115    1   DCL XUG$ PTR;
     1972     4116    1   DCL GETCMD$ PTR ;
     1973     4117        %EQU EXPND_PARSEWK = 800 ;
     1974     4118
     1975     4119    1   DCL CHR$ PTR ;
     1976     4120    1   DCL CHR CHAR( 1 ) BASED( CHR$ );
     1977     4121
     1978     4122        %XUG_PARAMS;
     1979     4566        %XUG_GETCMD (NAME=GET$CMD, STCLASS="BASED(GETCMD$)") ;
     1980     4904    1   DCL XUG_BUILTIN_N BIT (36) SYMREF READONLY;
     1981     4905        /**/
     1982     4906    1       GETCMD$ = PARSE_PARAM.USER$ ;
     1983     4907    1       XUG$ = GET$CMD.WORK$ ;
     1984     4908    2       DO CASE (PARSE_PARAM.TYPE);
     1985     4909    2       CASE (%INPUT#);
     1986     4910    2           IF NOT GET$CMD.CONTINUE_OK#
     1987     4911    2           THEN
     1988     4912    3           DO ;
     1989     4913    3               GET$CMD.CONTINUED# = '1'B ;
PL6.E3A0      #003=XUG$PU File=XUG$COMMON.:E05TSI                                WED 07/30/97 09:21 Page:335
     1990     4914    3               RETURN ;
     1991     4915    3           END ;                     /* Then Do */
     1992     4916    2           IF XUG.SPHANDLE ~= ENTADDR(NIL)
     1993     4917    2           THEN
     1994     4918    3           DO ;
     1995     4919    3               PARSE_PARAM.USER$ = XUG.USER$ ;
     1996     4920    3               CALL XUG.SPHANDLE(GET$CMD,PARSE_PARAM) ;
     1997     4921    3               CALL XUG$SETPROMPT(GET$CMD) ;
     1998     4922    3           END ;                     /* Then Do */
     1999     4923    2           XUG.CPOS = PARSE_PARAM.CHARPOS ;
     2000     4924    2           CALL XUG$GETMORE_COMMON (GET$CMD) ;
     2001     4925    2       CASE (%SPACE#);
     2002     4926    2           CALL XUG$MOREMEM(GET$CMD) WHENALTRETURN
     2003     4927    3           DO ;
     2004     4928    3               ALTRETURN ;
     2005     4929    3           END ;                  /* Whenaltreturn Do */
     2006     4930    2           PARSE_PARAM.WKSZ = PARSE_PARAM.WKSZ + %EXPND_PARSEWK/4 ;
     2007     4931    2           PARSE_PARAM.PCB$->P_PCB.TEXT$ = VBASE(XUG.BUFVEC) ;
     2008     4932    2       CASE (%SUCC#, %FAIL#);
     2009     4933    2           IF XUG.PARSING_FREE_CMDS
     2010     4934    3           THEN DO;
     2011     4935    3               IF PARSE_PARAM.CODE = %XUG_HELP_KWD
     2012     4936    3                 AND PARSE_PARAM.CHARPOS < PARSE_PARAM.PCB$->P_PCB.NCHARS
     2013     4937    4               THEN DO;
     2014     4938    4                   CHR$ = PINCRC(PARSE_PARAM.PCB$->P_PCB.TEXT$,PARSE_PARAM.CHARPOS);
     2015     4939    4                   IF CHR ~= ' ' AND CHR ~= '('
     2016     4940    4                   THEN
     2017     4941    4                       PARSE_PARAM.REJECT = %YES# ;
     2018     4942    4               END;
     2019     4943    3           END;
     2020     4944    2           ELSE IF XUG.SFROUTINE~=ENTADDR(NIL)
     2021     4945    3               THEN DO;
     2022     4946    3                   PARSE_PARAM.USER$ = XUG.USER$ ;
     2023     4947    3                   CALL XUG.SFROUTINE(PARSE_PARAM);
     2024     4948    3               END ;
     2025     4949    2       CASE (%PRE#);
     2026     4950    2           IF PARSE_PARAM.NODE$ = ADDR(XUG_BUILTIN_N)
PL6.E3A0      #003=XUG$PU File=XUG$COMMON.:E05TSI                                WED 07/30/97 09:21 Page:336
     2027     4951    2           THEN
     2028     4952    2               XUG.PARSING_FREE_CMDS = %YES#;
     2029     4953    2           ELSE
     2030     4954    2               IF XUG.PARSING_FREE_CMDS
     2031     4955    3               THEN DO;
     2032     4956    4                   DO CASE (PARSE_PARAM.CODE);
     2033     4957    4                   CASE (%XUG_CMD_DIR);
     2034     4958    4                       PARSE_PARAM.REJECT = XUG.INHIBITS.DIRECTORY#;
     2035     4959    4                   CASE (%XUG_CMD_DO);
     2036     4960    4                       PARSE_PARAM.REJECT = XUG.INHIBITS.DO#;
     2037     4961    4                   CASE (%XUG_CMD_END);
     2038     4962    4                       PARSE_PARAM.REJECT = XUG.INHIBITS.END#;
     2039     4963    4                   CASE (%XUG_CMD_ERASE);
     2040     4964    4                       PARSE_PARAM.REJECT = XUG.INHIBITS.ERASE#;
     2041     4965    4                   CASE (%XUG_CMD_HELP);
     2042     4966    4                       PARSE_PARAM.REJECT = XUG.INHIBITS.HELP#;
     2043     4967    4                   CASE (%XUG_CMD_NULL);
     2044     4968    4                       PARSE_PARAM.REJECT = XUG.INHIBITS.NULL#;
     2045     4969    4                   CASE (%XUG_CMD_OUTPUT);
     2046     4970    4                       PARSE_PARAM.REJECT = XUG.INHIBITS.OUTPUT#;
     2047     4971    4                   CASE (%XUG_CMD_PRINT);
     2048     4972    4                       PARSE_PARAM.REJECT = XUG.INHIBITS.PRINT#;
     2049     4973    4                   CASE (%XUG_CMD_Q1,%XUG_CMD_Q2);
     2050     4974    4                       PARSE_PARAM.REJECT = XUG.INHIBITS.QMARK#;
     2051     4975    4                   CASE (%XUG_CMD_TIME);
     2052     4976    4                       PARSE_PARAM.REJECT = XUG.INHIBITS.DATE#;
     2053     4977    4                   CASE (%XUG_CMD_ENTER);
     2054     4978    4                       PARSE_PARAM.REJECT = XUG.INHIBITS.ENTER# |
     2055     4979    4                         ( XUG.ADAPT$$ = ENTADDR(NIL) );
     2056     4980    4                   END;
     2057     4981    3               END;
     2058     4982    2               ELSE
     2059     4983    2                   IF XUG.SFROUTINE ~= ENTADDR(NIL)
     2060     4984    3                   THEN DO;
     2061     4985    3                       PARSE_PARAM.USER$ = XUG.USER$;
     2062     4986    3                       CALL XUG.SFROUTINE (PARSE_PARAM);
     2063     4987    3                   END;
PL6.E3A0      #003=XUG$PU File=XUG$COMMON.:E05TSI                                WED 07/30/97 09:21 Page:337
     2064     4988    2       END;
     2065     4989    1       RETURN;
     2066     4990    1   END XUG$PU;
     2067     4991        %EOD;

PL6.E3A0      #003=XUG$PU File=XUG$COMMON.:E05TSI                                WED 07/30/97 09:21 Page:338
--  Include file information  --

   XU_SUBS_C.:E05TOU  is referenced.
   CP_6_SUBS.:E05TOU  is referenced.
   XUH_MACRO_C.:E05TOU  is referenced.
   XU_MACRO_C.:E05TOU  is referenced.
      No diagnostics issued in procedure XUG$PU.

   Procedure XUG$PU requires 222 words for executable code.
   Procedure XUG$PU requires 10 words of local(AUTO) storage.

PL6.E3A0      #003=XUG$PU File=XUG$COMMON.:E05TSI                                WED 07/30/97 09:21 Page:339

 Object Unit name= XUG$PU                                     File name= XUG$COMMON.:E05TOU
 UTS= JUL 30 '97 09:21:01.96 WED                              Compiler= PL-6/E31         Sev=      00
 SharedLib= :SHARED_SYSTEM                                    Alt SharedLib=


    ****  Control sections  ****

 Sect   Type Bound  Init  Size OctSiz  Section name(segment info)
    0   Proc  even  none   222    336  XUG$PU
    1  RoData even  none     2      2  XUG$PU

    ****  Entry defs  ****

                              Check   Calling
                             calling  sequence
  Sect OctLoc Primary Altret sequence   type   Parms  Name
     0      0   yes    yes     yes      Std        1  XUG$PU

  ****  Entry refs  ****

         Check        Calling
        calling       sequence
Altret sequence SRef   type   Args  Name
 yes     yes           Std       1 XUG$SETPROMPT
 yes     yes           Std       1 XUG$GETMORE_COMMON
 yes     yes           Std       1 XUG$MOREMEM
                       nStd      0 X66_AUTO_1
                       nStd      0 X66_ARET
                       Std       0 B_CONSPOOL_D
                       nStd      0 X66_AALT

  ****  Data refs  ****

  Flags:  r = read only, s = secondary
Flgs Name                             Flgs Name                             Flgs Name
r    XUG_BUILTIN_N                         B_VECTNIL
PL6.E3A0      #003=XUG$PU File=XUG$COMMON.:E05TSI                                WED 07/30/97 09:21 Page:340

  ****  Segment refs  ****

  Flags:  r = read only, s = secondary
Flgs Name                             Flgs Name                             Flgs Name
     ISSID
PL6.E3A0      #003=XUG$PU File=XUG$COMMON.:E05TSI                                WED 07/30/97 09:21 Page:341


     1953        1        /*T***********************************************************/
     1954        2        /*T*                                                         */
     1955        3        /*T* Copyright (c) Bull HN Information Systems Inc., 1997    */
     1956        4        /*T*                                                         */
     1957        5        /*T***********************************************************/
     1958        6        XUG$PU: PROC(PARSE_PARAM) ALTRET ;

      6  0 000000   000000 700200 xent  XUG$PU       TSX0  ! X66_AUTO_1
         0 000001   000012 000001                    ZERO    10,1

     1959        7        /*X* DMC,PLM=4,IND=4,CTI=2,DTI=0,ENI=0,ECI=0,CSI=0,MCI,DCI=4 */
     1960        8        %INCLUDE XU_MACRO_C;
     1961     3114        %INCLUDE XUH_MACRO_C ;
     1962     3198        %INCLUDE CP_6_SUBS;
     1963     3738        %PARSE$PARAM (NAME=PARSE_PARAM);
     1964     3819        %P_PCB (STCLASS=BASED) ;
     1965     4018        %INCLUDE XU_SUBS_C;
     1966     4110    1   DCL XUG$GETMORE_COMMON ENTRY(1) ALTRET;
     1967     4111    1   DCL XUG$MOREMEM ENTRY(1) ALTRET;
     1968     4112    1   DCL XUG$SETPROMPT ENTRY(1) ALTRET ;
     1969     4113        /*
     1970     4114        */
     1971     4115    1   DCL XUG$ PTR;
     1972     4116    1   DCL GETCMD$ PTR ;
     1973     4117        %EQU EXPND_PARSEWK = 800 ;
     1974     4118
     1975     4119    1   DCL CHR$ PTR ;
     1976     4120    1   DCL CHR CHAR( 1 ) BASED( CHR$ );
     1977     4121
     1978     4122        %XUG_PARAMS;
     1979     4566        %XUG_GETCMD (NAME=GET$CMD, STCLASS="BASED(GETCMD$)") ;
     1980     4904    1   DCL XUG_BUILTIN_N BIT (36) SYMREF READONLY;
     1981     4905        /**/
     1982     4906    1       GETCMD$ = PARSE_PARAM.USER$ ;

   4906  0 000002   200003 470500                    LDP0    @PARSE_PARAM,,AUTO
PL6.E3A0      #003=XUG$PU File=XUG$COMMON.:E05TSI                                WED 07/30/97 09:21 Page:342
         0 000003   000006 236100                    LDQ     6,,PR0
         0 000004   200005 756100                    STQ     GETCMD$,,AUTO

     1983     4907    1       XUG$ = GET$CMD.WORK$ ;

   4907  0 000005   200005 471500                    LDP1    GETCMD$,,AUTO
         0 000006   100004 236100                    LDQ     4,,PR1
         0 000007   200004 756100                    STQ     XUG$,,AUTO

     1984     4908    2       DO CASE (PARSE_PARAM.TYPE);

   4908  0 000010   000000 236100                    LDQ     0,,PR0
         0 000011   000033 772000                    QRL     27
         0 000012   000006 116007                    CMPQ    6,DL
         0 000013   000015 602006 0                  TNC     s:4908+5,QL
         0 000014   000335 710000 0                  TRA     s:4989
         0 000015   000335 710000 0                  TRA     s:4989
         0 000016   000150 710000 0                  TRA     s:4950
         0 000017   000103 710000 0                  TRA     s:4933
         0 000020   000103 710000 0                  TRA     s:4933
         0 000021   000023 710000 0                  TRA     s:4910
         0 000022   000064 710000 0                  TRA     s:4926

     1985     4909    2       CASE (%INPUT#);

     1986     4910    2           IF NOT GET$CMD.CONTINUE_OK#

   4910  0 000023   100006 236100                    LDQ     6,,PR1
         0 000024   040000 316003                    CANQ    16384,DU
         0 000025   000031 601000 0                  TNZ     s:4916

     1987     4911    2           THEN
     1988     4912    3           DO ;

     1989     4913    3               GET$CMD.CONTINUED# = '1'B ;

   4913  0 000026   100000 236003                    LDQ     32768,DU
PL6.E3A0      #003=XUG$PU File=XUG$COMMON.:E05TSI                                WED 07/30/97 09:21 Page:343
         0 000027   100006 256100                    ORSQ    6,,PR1

     1990     4914    3               RETURN ;

   4914  0 000030   000000 702200 xent               TSX2  ! X66_ARET

     1991     4915    3           END ;                     /* Then Do */
     1992     4916    2           IF XUG.SPHANDLE ~= ENTADDR(NIL)

   4916  0 000031   200004 473500                    LDP3    XUG$,,AUTO
         0 000032   300025 236100                    LDQ     21,,PR3
         0 000033   000002 116000 xsym               CMPQ    B_VECTNIL+2
         0 000034   000053 600000 0                  TZE     s:4923

     1993     4917    2           THEN
     1994     4918    3           DO ;

     1995     4919    3               PARSE_PARAM.USER$ = XUG.USER$ ;

   4919  0 000035   300076 236100                    LDQ     62,,PR3
         0 000036   000006 756100                    STQ     6,,PR0

     1996     4920    3               CALL XUG.SPHANDLE(GET$CMD,PARSE_PARAM) ;

   4920  0 000037   200003 236100                    LDQ     @PARSE_PARAM,,AUTO
         0 000040   200005 235100                    LDA     GETCMD$,,AUTO
         0 000041   200010 757100                    STAQ    CHR$+2,,AUTO
         0 000042   200010 630500                    EPPR0   CHR$+2,,AUTO
         0 000043   300025 220100                    LDX0    21,,PR3
         0 000044   000020 631400 xsym               EPPR1   B_VECTNIL+16
         0 000045   000000 701010                    TSX1    0,X0
         0 000046   000000 011000                    NOP     0

     1997     4921    3               CALL XUG$SETPROMPT(GET$CMD) ;

   4921  0 000047   200005 630500                    EPPR0   GETCMD$,,AUTO
         0 000050   000017 631400 xsym               EPPR1   B_VECTNIL+15
PL6.E3A0      #003=XUG$PU File=XUG$COMMON.:E05TSI                                WED 07/30/97 09:21 Page:344
         0 000051   000000 701000 xent               TSX1    XUG$SETPROMPT
         0 000052   000000 011000                    NOP     0

     1998     4922    3           END ;                     /* Then Do */

     1999     4923    2           XUG.CPOS = PARSE_PARAM.CHARPOS ;

   4923  0 000053   200003 470500                    LDP0    @PARSE_PARAM,,AUTO
         0 000054   000004 235100                    LDA     4,,PR0
         0 000055   200004 471500                    LDP1    XUG$,,AUTO
         0 000056   100104 755100                    STA     68,,PR1

     2000     4924    2           CALL XUG$GETMORE_COMMON (GET$CMD) ;

   4924  0 000057   200005 630500                    EPPR0   GETCMD$,,AUTO
         0 000060   000017 631400 xsym               EPPR1   B_VECTNIL+15
         0 000061   000000 701000 xent               TSX1    XUG$GETMORE_COMMON
         0 000062   000000 011000                    NOP     0
         0 000063   000335 710000 0                  TRA     s:4989

     2001     4925    2       CASE (%SPACE#);

     2002     4926    2           CALL XUG$MOREMEM(GET$CMD) WHENALTRETURN

   4926  0 000064   200005 630500                    EPPR0   GETCMD$,,AUTO
         0 000065   000017 631400 xsym               EPPR1   B_VECTNIL+15
         0 000066   000000 701000 xent               TSX1    XUG$MOREMEM
         0 000067   000071 702000 0                  TSX2    s:4928
         0 000070   000072 710000 0                  TRA     s:4930

     2003     4927    3           DO ;

     2004     4928    3               ALTRETURN ;

   4928  0 000071   000000 702200 xent               TSX2  ! X66_AALT

     2005     4929    3           END ;                  /* Whenaltreturn Do */
PL6.E3A0      #003=XUG$PU File=XUG$COMMON.:E05TSI                                WED 07/30/97 09:21 Page:345
     2006     4930    2           PARSE_PARAM.WKSZ = PARSE_PARAM.WKSZ + %EXPND_PARSEWK/4 ;

   4930  0 000072   200003 470500                    LDP0    @PARSE_PARAM,,AUTO
         0 000073   000007 220100                    LDX0    7,,PR0
         0 000074   000310 621010                    EAX1    200,X0
         0 000075   000007 741100                    STX1    7,,PR0

     2007     4931    2           PARSE_PARAM.PCB$->P_PCB.TEXT$ = VBASE(XUG.BUFVEC) ;

   4931  0 000076   000005 471500                    LDP1    5,,PR0
         0 000077   200004 473500                    LDP3    XUG$,,AUTO
         0 000100   300001 236100                    LDQ     1,,PR3
         0 000101   100000 756100                    STQ     0,,PR1
         0 000102   000335 710000 0                  TRA     s:4989

     2008     4932    2       CASE (%SUCC#, %FAIL#);

     2009     4933    2           IF XUG.PARSING_FREE_CMDS

   4933  0 000103   200004 473500                    LDP3    XUG$,,AUTO
         0 000104   300266 236100                    LDQ     182,,PR3
         0 000105   400000 316007                    CANQ    -131072,DL
         0 000106   000135 600000 0                  TZE     s:4944

     2010     4934    3           THEN DO;

     2011     4935    3               IF PARSE_PARAM.CODE = %XUG_HELP_KWD

   4935  0 000107   000000 720100                    LXL0    0,,PR0
         0 000110   000020 100003                    CMPX0   16,DU
         0 000111   000335 601000 0                  TNZ     s:4989
         0 000112   000005 474500                    LDP4    5,,PR0
         0 000113   000004 236100                    LDQ     4,,PR0
         0 000114   400011 116100                    CMPQ    9,,PR4
         0 000115   000335 603000 0                  TRC     s:4989

     2012     4936    3                 AND PARSE_PARAM.CHARPOS < PARSE_PARAM.PCB$->P_PCB.NCHARS
PL6.E3A0      #003=XUG$PU File=XUG$COMMON.:E05TSI                                WED 07/30/97 09:21 Page:346
     2013     4937    4               THEN DO;

     2014     4938    4                   CHR$ = PINCRC(PARSE_PARAM.PCB$->P_PCB.TEXT$,PARSE_PARAM.CHARPOS);

   4938  0 000116   400000 475500                    LDP5    0,,PR4
         0 000117   000011 402007                    MPY     9,DL
         0 000120   500000 503506                    ABD     0,QL,PR5
         0 000121   200006 455500                    STP5    CHR$,,AUTO

     2015     4939    4                   IF CHR ~= ' ' AND CHR ~= '('

   4939  0 000122   040000 106500                    CMPC    fill='040'O
         0 000123   500000 000001                    ADSC9   0,,PR5                   cn=0,n=1
         0 000124   000035 000001 xsym               ADSC9   B_VECTNIL+29             cn=0,n=1
         0 000125   000335 600000 0                  TZE     s:4989
         0 000126   040000 106500                    CMPC    fill='040'O
         0 000127   500000 000001                    ADSC9   0,,PR5                   cn=0,n=1
         0 000130   000000 000001 1                  ADSC9   0                        cn=0,n=1
         0 000131   000335 600000 0                  TZE     s:4989

     2016     4940    4                   THEN
     2017     4941    4                       PARSE_PARAM.REJECT = %YES# ;

   4941  0 000132   000200 236003                    LDQ     128,DU
         0 000133   000000 256100                    ORSQ    0,,PR0

     2018     4942    4               END;

     2019     4943    3           END;

   4943  0 000134   000335 710000 0                  TRA     s:4989

     2020     4944    2           ELSE IF XUG.SFROUTINE~=ENTADDR(NIL)

   4944  0 000135   300024 236100                    LDQ     20,,PR3
         0 000136   000002 116000 xsym               CMPQ    B_VECTNIL+2
         0 000137   000335 600000 0                  TZE     s:4989
PL6.E3A0      #003=XUG$PU File=XUG$COMMON.:E05TSI                                WED 07/30/97 09:21 Page:347

     2021     4945    3               THEN DO;

     2022     4946    3                   PARSE_PARAM.USER$ = XUG.USER$ ;

   4946  0 000140   300076 236100                    LDQ     62,,PR3
         0 000141   000006 756100                    STQ     6,,PR0

     2023     4947    3                   CALL XUG.SFROUTINE(PARSE_PARAM);

   4947  0 000142   200003 630500                    EPPR0   @PARSE_PARAM,,AUTO
         0 000143   300024 220100                    LDX0    20,,PR3
         0 000144   000017 631400 xsym               EPPR1   B_VECTNIL+15
         0 000145   000000 701010                    TSX1    0,X0
         0 000146   000000 011000                    NOP     0

     2024     4948    3               END ;

   4948  0 000147   000335 710000 0                  TRA     s:4989

     2025     4949    2       CASE (%PRE#);

     2026     4950    2           IF PARSE_PARAM.NODE$ = ADDR(XUG_BUILTIN_N)

   4950  0 000150   000001 236000 1                  LDQ     1
         0 000151   000001 116100                    CMPQ    1,,PR0
         0 000152   000157 601000 0                  TNZ     s:4954

     2027     4951    2           THEN
     2028     4952    2               XUG.PARSING_FREE_CMDS = %YES#;

   4952  0 000153   200004 473500                    LDP3    XUG$,,AUTO
         0 000154   400000 236007                    LDQ     -131072,DL
         0 000155   300266 256100                    ORSQ    182,,PR3
         0 000156   000335 710000 0                  TRA     s:4989

     2029     4953    2           ELSE
PL6.E3A0      #003=XUG$PU File=XUG$COMMON.:E05TSI                                WED 07/30/97 09:21 Page:348
     2030     4954    2               IF XUG.PARSING_FREE_CMDS

   4954  0 000157   200004 473500                    LDP3    XUG$,,AUTO
         0 000160   300266 236100                    LDQ     182,,PR3
         0 000161   400000 316007                    CANQ    -131072,DL
         0 000162   000323 600000 0                  TZE     s:4983

     2031     4955    3               THEN DO;

     2032     4956    4                   DO CASE (PARSE_PARAM.CODE);

   4956  0 000163   000000 720100                    LXL0    0,,PR0
         0 000164   000020 100003                    CMPX0   16,DU
         0 000165   000167 602010 0                  TNC     s:4956+4,X0
         0 000166   000335 710000 0                  TRA     s:4989
         0 000167   000322 710000 0                  TRA     s:4981
         0 000170   000207 710000 0                  TRA     s:4958
         0 000171   000215 710000 0                  TRA     s:4960
         0 000172   000223 710000 0                  TRA     s:4962
         0 000173   000231 710000 0                  TRA     s:4964
         0 000174   000237 710000 0                  TRA     s:4966
         0 000175   000245 710000 0                  TRA     s:4968
         0 000176   000261 710000 0                  TRA     s:4972
         0 000177   000267 710000 0                  TRA     s:4974
         0 000200   000267 710000 0                  TRA     s:4974
         0 000201   000275 710000 0                  TRA     s:4976
         0 000202   000322 710000 0                  TRA     s:4981
         0 000203   000322 710000 0                  TRA     s:4981
         0 000204   000322 710000 0                  TRA     s:4981
         0 000205   000253 710000 0                  TRA     s:4970
         0 000206   000303 710000 0                  TRA     s:4978

     2033     4957    4                   CASE (%XUG_CMD_DIR);

     2034     4958    4                       PARSE_PARAM.REJECT = XUG.INHIBITS.DIRECTORY#;

   4958  0 000207   300071 236100                    LDQ     57,,PR3
PL6.E3A0      #003=XUG$PU File=XUG$COMMON.:E05TSI                                WED 07/30/97 09:21 Page:349
         0 000210   000015 736000                    QLS     13
         0 000211   000000 676100                    ERQ     0,,PR0
         0 000212   000200 376003                    ANQ     128,DU
         0 000213   000000 656100                    ERSQ    0,,PR0
         0 000214   000335 710000 0                  TRA     s:4989

     2035     4959    4                   CASE (%XUG_CMD_DO);

     2036     4960    4                       PARSE_PARAM.REJECT = XUG.INHIBITS.DO#;

   4960  0 000215   300071 236100                    LDQ     57,,PR3
         0 000216   000016 736000                    QLS     14
         0 000217   000000 676100                    ERQ     0,,PR0
         0 000220   000200 376003                    ANQ     128,DU
         0 000221   000000 656100                    ERSQ    0,,PR0
         0 000222   000335 710000 0                  TRA     s:4989

     2037     4961    4                   CASE (%XUG_CMD_END);

     2038     4962    4                       PARSE_PARAM.REJECT = XUG.INHIBITS.END#;

   4962  0 000223   300071 236100                    LDQ     57,,PR3
         0 000224   000017 736000                    QLS     15
         0 000225   000000 676100                    ERQ     0,,PR0
         0 000226   000200 376003                    ANQ     128,DU
         0 000227   000000 656100                    ERSQ    0,,PR0
         0 000230   000335 710000 0                  TRA     s:4989

     2039     4963    4                   CASE (%XUG_CMD_ERASE);

     2040     4964    4                       PARSE_PARAM.REJECT = XUG.INHIBITS.ERASE#;

   4964  0 000231   300071 236100                    LDQ     57,,PR3
         0 000232   000020 736000                    QLS     16
         0 000233   000000 676100                    ERQ     0,,PR0
         0 000234   000200 376003                    ANQ     128,DU
         0 000235   000000 656100                    ERSQ    0,,PR0
PL6.E3A0      #003=XUG$PU File=XUG$COMMON.:E05TSI                                WED 07/30/97 09:21 Page:350
         0 000236   000335 710000 0                  TRA     s:4989

     2041     4965    4                   CASE (%XUG_CMD_HELP);

     2042     4966    4                       PARSE_PARAM.REJECT = XUG.INHIBITS.HELP#;

   4966  0 000237   300071 236100                    LDQ     57,,PR3
         0 000240   000021 736000                    QLS     17
         0 000241   000000 676100                    ERQ     0,,PR0
         0 000242   000200 376003                    ANQ     128,DU
         0 000243   000000 656100                    ERSQ    0,,PR0
         0 000244   000335 710000 0                  TRA     s:4989

     2043     4967    4                   CASE (%XUG_CMD_NULL);

     2044     4968    4                       PARSE_PARAM.REJECT = XUG.INHIBITS.NULL#;

   4968  0 000245   300071 236100                    LDQ     57,,PR3
         0 000246   000022 736000                    QLS     18
         0 000247   000000 676100                    ERQ     0,,PR0
         0 000250   000200 376003                    ANQ     128,DU
         0 000251   000000 656100                    ERSQ    0,,PR0
         0 000252   000335 710000 0                  TRA     s:4989

     2045     4969    4                   CASE (%XUG_CMD_OUTPUT);

     2046     4970    4                       PARSE_PARAM.REJECT = XUG.INHIBITS.OUTPUT#;

   4970  0 000253   300071 236100                    LDQ     57,,PR3
         0 000254   000023 736000                    QLS     19
         0 000255   000000 676100                    ERQ     0,,PR0
         0 000256   000200 376003                    ANQ     128,DU
         0 000257   000000 656100                    ERSQ    0,,PR0
         0 000260   000335 710000 0                  TRA     s:4989

     2047     4971    4                   CASE (%XUG_CMD_PRINT);

PL6.E3A0      #003=XUG$PU File=XUG$COMMON.:E05TSI                                WED 07/30/97 09:21 Page:351
     2048     4972    4                       PARSE_PARAM.REJECT = XUG.INHIBITS.PRINT#;

   4972  0 000261   300071 236100                    LDQ     57,,PR3
         0 000262   000024 736000                    QLS     20
         0 000263   000000 676100                    ERQ     0,,PR0
         0 000264   000200 376003                    ANQ     128,DU
         0 000265   000000 656100                    ERSQ    0,,PR0
         0 000266   000335 710000 0                  TRA     s:4989

     2049     4973    4                   CASE (%XUG_CMD_Q1,%XUG_CMD_Q2);

     2050     4974    4                       PARSE_PARAM.REJECT = XUG.INHIBITS.QMARK#;

   4974  0 000267   300071 236100                    LDQ     57,,PR3
         0 000270   000025 736000                    QLS     21
         0 000271   000000 676100                    ERQ     0,,PR0
         0 000272   000200 376003                    ANQ     128,DU
         0 000273   000000 656100                    ERSQ    0,,PR0
         0 000274   000335 710000 0                  TRA     s:4989

     2051     4975    4                   CASE (%XUG_CMD_TIME);

     2052     4976    4                       PARSE_PARAM.REJECT = XUG.INHIBITS.DATE#;

   4976  0 000275   300071 236100                    LDQ     57,,PR3
         0 000276   000014 736000                    QLS     12
         0 000277   000000 676100                    ERQ     0,,PR0
         0 000300   000200 376003                    ANQ     128,DU
         0 000301   000000 656100                    ERSQ    0,,PR0
         0 000302   000335 710000 0                  TRA     s:4989

     2053     4977    4                   CASE (%XUG_CMD_ENTER);

     2054     4978    4                       PARSE_PARAM.REJECT = XUG.INHIBITS.ENTER# |

   4978  0 000303   400000 221003                    LDX1    -131072,DU
         0 000304   300270 236100                    LDQ     184,,PR3
PL6.E3A0      #003=XUG$PU File=XUG$COMMON.:E05TSI                                WED 07/30/97 09:21 Page:352
         0 000305   000002 116000 xsym               CMPQ    B_VECTNIL+2
         0 000306   000310 600000 0                  TZE     s:4978+5
         0 000307   000000 221003                    LDX1    0,DU
         0 000310   300071 236100                    LDQ     57,,PR3
         0 000311   000040 736000                    QLS     32
         0 000312   400000 376003                    ANQ     -131072,DU
         0 000313   200010 756100                    STQ     CHR$+2,,AUTO
         0 000314   000000 636011                    EAQ     0,X1
         0 000315   200010 276100                    ORQ     CHR$+2,,AUTO
         0 000316   000012 772000                    QRL     10
         0 000317   000000 676100                    ERQ     0,,PR0
         0 000320   000200 376003                    ANQ     128,DU
         0 000321   000000 656100                    ERSQ    0,,PR0

     2055     4979    4                         ( XUG.ADAPT$$ = ENTADDR(NIL) );
     2056     4980    4                   END;

     2057     4981    3               END;

   4981  0 000322   000335 710000 0                  TRA     s:4989

     2058     4982    2               ELSE
     2059     4983    2                   IF XUG.SFROUTINE ~= ENTADDR(NIL)

   4983  0 000323   300024 236100                    LDQ     20,,PR3
         0 000324   000002 116000 xsym               CMPQ    B_VECTNIL+2
         0 000325   000335 600000 0                  TZE     s:4989

     2060     4984    3                   THEN DO;

     2061     4985    3                       PARSE_PARAM.USER$ = XUG.USER$;

   4985  0 000326   300076 236100                    LDQ     62,,PR3
         0 000327   000006 756100                    STQ     6,,PR0

     2062     4986    3                       CALL XUG.SFROUTINE (PARSE_PARAM);

PL6.E3A0      #003=XUG$PU File=XUG$COMMON.:E05TSI                                WED 07/30/97 09:21 Page:353
   4986  0 000330   200003 630500                    EPPR0   @PARSE_PARAM,,AUTO
         0 000331   300024 220100                    LDX0    20,,PR3
         0 000332   000017 631400 xsym               EPPR1   B_VECTNIL+15
         0 000333   000000 701010                    TSX1    0,X0
         0 000334   000000 011000                    NOP     0

     2063     4987    3                   END;

     2064     4988    2       END;

     2065     4989    1       RETURN;

   4989  0 000335   000000 702200 xent               TSX2  ! X66_ARET
     2066     4990    1   END XUG$PU;
     2067     4991        %EOD;

PL6.E3A0      #003=XUG$PU File=XUG$COMMON.:E05TSI                                WED 07/30/97 09:21 Page:354
--  Include file information  --

   XU_SUBS_C.:E05TOU  is referenced.
   CP_6_SUBS.:E05TOU  is referenced.
   XUH_MACRO_C.:E05TOU  is referenced.
   XU_MACRO_C.:E05TOU  is referenced.
      No diagnostics issued in procedure XUG$PU.
PL6.E3A0      #003=XUG$PU File=XUG$COMMON.:E05TSI                                WED 07/30/97 09:21 Page:355

 **** Variables and constants ****

  ****  Auto variables  ****

  ****  Scalars and arrays  ****
OctLoc.c.b A Datatyp(siz) R M Lvl/name                 OctLoc.c.b A Datatyp(siz) R M Lvl/name

     3-0-0/w PTR         r     1 @PARSE_PARAM               6-0-0/w PTR         r     1 CHR$
     5-0-0/w PTR         r     1 GETCMD$                   *0-0-0/w STRC(270)   r     1 PARSE_PARAM
     4-0-0/w PTR         r     1 XUG$

  ****  SYMREF variables  ****

  ****  Scalars and arrays  ****
OctLoc.c.b A Datatyp(siz) R M Lvl/name                 OctLoc.c.b A Datatyp(siz) R M Lvl/name

     0-0-0/b BIT         r     1 XUG_BUILTIN_N

  ****  BASED and DCB variables  ****

  ****  Scalars and arrays  ****
OctLoc.c.b A Datatyp(siz) R M Lvl/name                 OctLoc.c.b A Datatyp(siz) R M Lvl/name

     0-0-0/c CHAR        r     1 CHR                        0-0-0/d STRC(1512)  r     1 GET$CMD
     0-0-0/w STRC(504)   r     1 P_PCB                      0-0-0/d STRC(9612)  r     1 XUG


   Procedure XUG$PU requires 222 words for executable code.
   Procedure XUG$PU requires 10 words of local(AUTO) storage.
PL6.E3A0      #003=XUG$PU File=XUG$COMMON.:E05TSI                                WED 07/30/97 09:21 Page:356
          *** CROSS REFERENCE LISTING ***
**     DENOTES     IDENTIFIER DEFINITION
<<                 IDENTIFIER'S VALUE SET
>>                 IDENTIFIER'S VALUE USED
<>                 IDENTIFIER SET AND/OR USED
--                 IDENTIFIER REFERENCED
PL6.E3A0      #003=XUG$PU File=XUG$COMMON.:E05TSI                                WED 07/30/97 09:21 Page:357
          MINI XREF LISTING

CHR
      4120**DCL      4939>>IF       4939>>IF
CHR$
      4119**DCL      4120--IMP-PTR  4938<<ASSIGN   4939>>IF       4939>>IF
GET$CMD
      4579**DCL      4920<>CALL     4921<>CALL     4924<>CALL     4926<>CALL
GET$CMD.CONTINUED#
      4639**DCL      4913<<ASSIGN
GET$CMD.CONTINUE_OK#
      4643**DCL      4910>>IF
GET$CMD.OUT$
      4584**DCL      4590--REDEF
GET$CMD.WORK$
      4612**DCL      4907>>ASSIGN
GETCMD$
      4116**DCL      4579--IMP-PTR  4906<<ASSIGN   4907>>ASSIGN   4910>>IF       4913>>ASSIGN   4920>>CALL
      4921>>CALL     4924>>CALL     4926>>CALL
PARSE_PARAM
      3757**DCL         6--PROC     4920<>CALL     4947<>CALL     4986<>CALL
PARSE_PARAM.CHARPOS
      3795**DCL      4923>>ASSIGN   4935>>IF       4938>>ASSIGN
PARSE_PARAM.CODE
      3778**DCL      4935>>IF       4956>>DOCASE
PARSE_PARAM.NODE$
      3783**DCL      4950>>IF
PARSE_PARAM.PCB$
      3801**DCL      4931>>ASSIGN   4935>>IF       4938>>ASSIGN
PARSE_PARAM.REJECT
      3769**DCL      4941<<ASSIGN   4958<<ASSIGN   4960<<ASSIGN   4962<<ASSIGN   4964<<ASSIGN   4966<<ASSIGN
      4968<<ASSIGN   4970<<ASSIGN   4972<<ASSIGN   4974<<ASSIGN   4976<<ASSIGN   4978<<ASSIGN
PARSE_PARAM.TYPE
      3758**DCL      4908>>DOCASE
PL6.E3A0      #003=XUG$PU File=XUG$COMMON.:E05TSI                                WED 07/30/97 09:21 Page:358
PARSE_PARAM.USER$
      3805**DCL      4906>>ASSIGN   4919<<ASSIGN   4946<<ASSIGN   4985<<ASSIGN
PARSE_PARAM.WKSZ
      3810**DCL      4930<<ASSIGN   4930>>ASSIGN
P_PCB.NCHARS
      3984**DCL      4935>>IF
P_PCB.TEXT$
      3838**DCL      4931<<ASSIGN   4938>>ASSIGN
XUG.ADAPT$$
      4548**DCL      4978>>ASSIGN
XUG.BUF
      4561**DCL      4564--REDEF
XUG.BUFVEC
      4126**DCL      4931>>ASSIGN
XUG.CPOS
      4393**DCL      4923<<ASSIGN
XUG.INHIBITS.DATE#
      4328**DCL      4976>>ASSIGN
XUG.INHIBITS.DIRECTORY#
      4332**DCL      4958>>ASSIGN
XUG.INHIBITS.DO#
      4333**DCL      4960>>ASSIGN
XUG.INHIBITS.END#
      4334**DCL      4962>>ASSIGN
XUG.INHIBITS.ENTER#
      4341**DCL      4978>>ASSIGN
XUG.INHIBITS.ERASE#
      4335**DCL      4964>>ASSIGN
XUG.INHIBITS.HELP#
      4336**DCL      4966>>ASSIGN
XUG.INHIBITS.NULL#
      4337**DCL      4968>>ASSIGN
XUG.INHIBITS.OUTPUT#
      4338**DCL      4970>>ASSIGN
XUG.INHIBITS.PRINT#
      4339**DCL      4972>>ASSIGN
PL6.E3A0      #003=XUG$PU File=XUG$COMMON.:E05TSI                                WED 07/30/97 09:21 Page:359
XUG.INHIBITS.QMARK#
      4340**DCL      4974>>ASSIGN
XUG.PARSING_FREE_CMDS
      4516**DCL      4933>>IF       4952<<ASSIGN   4954>>IF
XUG.SFROUTINE
      4166**DCL      4944>>IF       4947>>CALL     4983>>IF       4986>>CALL
XUG.SPHANDLE
      4169**DCL      4916>>IF       4920>>CALL
XUG.USER$
      4366**DCL      4919>>ASSIGN   4946>>ASSIGN   4985>>ASSIGN
XUG$
      4115**DCL      4125--IMP-PTR  4907<<ASSIGN   4916>>IF       4919>>ASSIGN   4920>>CALL     4923>>ASSIGN
      4931>>ASSIGN   4933>>IF       4944>>IF       4946>>ASSIGN   4947>>CALL     4952>>ASSIGN   4954>>IF
      4958>>ASSIGN   4960>>ASSIGN   4962>>ASSIGN   4964>>ASSIGN   4966>>ASSIGN   4968>>ASSIGN   4970>>ASSIGN
      4972>>ASSIGN   4974>>ASSIGN   4976>>ASSIGN   4978>>ASSIGN   4978>>ASSIGN   4983>>IF       4985>>ASSIGN
      4986>>CALL
XUG$GETMORE_COMMON
      4110**DCL-ENT  4924--CALL
XUG$MOREMEM
      4111**DCL-ENT  4926--CALL
XUG$SETPROMPT
      4112**DCL-ENT  4921--CALL
XUG_BUILTIN_N
      4904**DCL      4950--IF

PL6.E3A0      #004=XUG$READCMD_COMMON File=XUG$COMMON.:E05TSI                    WED 07/30/97 09:21 Page:360
     2068        1        /*T***********************************************************/
     2069        2        /*T*                                                         */
     2070        3        /*T* Copyright (c) Bull HN Information Systems Inc., 1997    */
     2071        4        /*T*                                                         */
     2072        5        /*T***********************************************************/
     2073        6        /* ROUTINE TO READ COMMAND LINE AND ECHO IF APPROPRIATE */
     2074        7        XUG$READCMD_COMMON: PROC(GETCMD,CMDBUF,ARS) ALTRET;
     2075        8        /*X* DMC,PLM=4,IND=4,CTI=2,DTI=0,ENI=0,ECI=0,CSI=0,MCI,DCI=4 */
     2076        9    1   DCL CMDBUF VECTOR PARAM ;
     2077       10    1   DCL 1 CHARPOS REDEF CMDBUF,
     2078       11    1         2 N UBIN WORD,
     2079       12    1         2 * UBIN WORD ;
     2080       13    1   DCL ARS SBIN;
     2081       14    1   DCL 1 ERR REDEF ARS,
     2082       15    1         2 FCG BIT(18),
     2083       16    1         2 MON BIT(1),
     2084       17    1         2 CODE UBIN(14) UNAL,
     2085       18    1         2 SEV UBIN(3) UNAL;
     2086       19    1   DCL BUFFER CHAR(ARS) BASED(CMDBUF$);
     2087       20    1   DCL CMDBUF$ PTR ;
     2088       21        %EJECT;
PL6.E3A0      #004=XUG$READCMD_COMMON File=XUG$COMMON.:E05TSI                    WED 07/30/97 09:21 Page:361
     2089       22    1   DCL XUG$ PTR;
     2090       23
     2091       24        %INCLUDE XU_MACRO_C;
     2092     3130        %INCLUDE XUH_MACRO_C ;
     2093     3214        %INCLUDE XU_SUBS_C;
     2094     3306        %INCLUDE XU_PERR_C ;
     2095     3497        %INCLUDE XT_MACRO_M;
     2096     3823        %INCLUDE XT_PERR_E ;
     2097     3884        %XUG_GETCMD (NAME=GETCMD, STCLASS=PARAM) ;
     2098     4222        %XUG_PARAMS;
     2099     4666        %XUG_INIT (NAME=XUG_INIT_C, STCLASS=SYMREF);
     2100     5079        %XUG_INIT (NAME = XUG_INIT_A,STCLASS=AUTO);
     2101     5492        %XT_PARAM (NAME=XT_PARAM, STCLASS="BASED(XT$)");
     2102     5805        %XT_PARAM (NAME=XT_PARAM_C, STCLASS=CONSTANT,GETMEM=XUG$ADAPTMEM);
     2103     6118        %P_PCB(STCLASS=BASED);
     2104     6317    1   DCL XUG$ADAPTMEM ENTRY(1) ALTRET;
     2105     6318    1   DCL XUG$OPENOUT_INTERNAL ENTRY(2);
     2106     6319    1   DCL CHARBASE CHAR(300) BASED;
     2107     6320    1   DCL OFFSET SBIN;
     2108     6321    1   DCL 1 T_ERR,
     2109     6322    1         2 FCG BIT(18),
     2110     6323    1         2 MON BIT(1),
     2111     6324    1         2 CODE UBIN(14) UNAL,
     2112     6325    1         2 SEV UBIN(3) UNAL;
     2113     6326        /**/
     2114     6327        %INCLUDE CP_6;
     2115    11886        %INCLUDE CP_6_SUBS;
     2116    12426        %MACRO TEXTC (NAME=NAME,T#='',STCLASS=CONSTANT);
     2117    12427        DCL 1 NAME STCLASS,
     2118    12428              2 L UBIN BYTE UNAL INIT(SIZEC(T#)),
     2119    12429              2 C CHAR(0) INIT(T#);
     2120    12430        %MEND;
     2121    12431        %TEXTC (NAME=M$LO,T#='M$LO');
     2122    12436    1   DCL DCB$ PTR ;
     2123    12437    1   DCL DCB$NUM UBIN WORD BASED(DCB$) ;
     2124    12438    1   DCL M$DO DCB;
     2125    12439    1   DCL XUG_IN$ PTR;
PL6.E3A0      #004=XUG$READCMD_COMMON File=XUG$COMMON.:E05TSI                    WED 07/30/97 09:21 Page:362
     2126    12440    1   DCL M$DO$ PTR;
     2127    12441    1   DCL PRE_PROCESSOR_ERROR BIT (1) AUTO;
     2128    12442    1   DCL PPCB$ PTR AUTO;
     2129    12443    1   DCL POFF SBIN WORD ;
     2130    12444    1   DCL PROMPT_BUF CHAR(94) ;
     2131    12445    1   DCL READR_EXISTS BIT (1);
     2132    12446    1   DCL CSIZE SBIN ;
     2133    12447    1   DCL VCHARBASE CHAR(CSIZE) BASED ;
     2134    12448    1   DCL XT$ PTR;
     2135    12449
     2136    12450    1   DCL XUG$PRE_PROCESSOR ENTRY (2);
     2137    12451    1   DCL XUG$PP_CMDVARS ENTRY (2);
     2138    12452    1   DCL XUG$MOREMEM ENTRY(1) ALTRET;
     2139    12453    1   DCL XUG$INIT_COMMON ENTRY (2) ALTRET;
     2140    12454    1   DCL XUG$GETDCB_COMMON ENTRY(2) ALTRET;
     2141    12455        %F$DCB;
     2142    12512        %FPT_READ (WAIT=YES,STCLASS=CONSTANT,FPTN=FPT_READ_C);
     2143    12551        %FPT_READ (STCLASS=AUTO);
     2144    12590        %FPT_WRITE (WAIT=YES,STCLASS=CONSTANT,FPTN=FPT_WRITE_C);
     2145    12621        %FPT_WRITE (STCLASS=AUTO);
     2146    12652        %FPT_CORRES (STCLASS=CONSTANT,FPTN=FPT_CORRES_C);
     2147    12666        %FPT_CORRES (STCLASS=AUTO);
     2148    12680        %FPT_OPEN (STCLASS=CONSTANT,FPTN=FPT_OPEN_C);
     2149    12789        %FPT_OPEN (STCLASS=AUTO);
     2150    12898        %VLP_ERRCODE (FPTN=XUG#NO_PROMPT, STCLASS=CONSTANT,
     2151    12899                      FCG=XU, MID=G, ERR#=%E$XUG#NO_PROMPT, SEV=0) ;
     2152    12944        %VLP_ERRCODE (FPTN=XT#EOD, STCLASS=CONSTANT,
     2153    12945                      FCG=XT, ERR#=%E$XT#EOD);
     2154    12990        %VLP_ERRCODE (FPTN=XT#CANT_ADAPT, STCLASS=CONSTANT,
     2155    12991                      FCG=XT, ERR#=%E$XT#CANT_ADAPT);
     2156    13036        %B$TCB;
     2157    13039        %B$ALT;
     2158    13047    1   DCL B$TCB$ PTR SYMREF;
     2159    13048    1   DCL B$JIT$ PTR SYMREF;
     2160    13049        %INCLUDE B$JIT;
     2161    13652        %EJECT;
PL6.E3A0      #004=XUG$READCMD_COMMON File=XUG$COMMON.:E05TSI                    WED 07/30/97 09:21 Page:363
     2162    13653    1       XUG$ = GETCMD.WORK$ ;
     2163    13654    1       CMDBUF$ = VBASE(CMDBUF) ;
     2164    13655    1       XUG_IN$ = DCBADDR(GETCMD.INDCB#);
     2165    13656    1       GETCMD.EOMCHAR# = %EOM_EOR#;
     2166    13657    1       READR_EXISTS = '0'B;
     2167    13658    1       XUG.PP_ERR = '0'B;
     2168    13659    1       XUG.BUF = ' ';
     2169    13660    1       IF XUG.ADAPT$$ ~= ENTADDR(NIL)
     2170    13661    1         AND GETCMD.XT_PARAM$ = ADDR(NIL)
     2171    13662    2       THEN DO;
     2172    13663    2           XT$ = PINCRW(XUG$, SIZEW(XUG) + SIZEW(P_PCB));
     2173    13664    2           XT_PARAM = XT_PARAM_C;
     2174    13665    2           XT_PARAM.XUG$ = XUG$ ;
     2175    13666    2           XT_PARAM.USER$ = ADDR(GETCMD);
     2176    13667    2           XT_PARAM.INDCB = GETCMD.INDCB#;
     2177    13668    2           XT_PARAM.OUTDCB = GETCMD.OUTDCB#;
     2178    13669    2           GETCMD.XT_PARAM$ = XT$;
     2179    13670    2           CALL XUG.ADAPT$$ (XT_PARAM, %XT#RESTART)
     2180    13671    3           WHENALTRETURN DO;
     2181    13672    3               XUG.ADAPT$$ = ENTADDR(NIL);
     2182    13673    3               GETCMD.XT_PARAM$ = ADDR(NIL);
     2183    13674    3               IF XT_PARAM.ERR ~= XT#CANT_ADAPT
     2184    13675    4               THEN DO;
     2185    13676    4                   GETCMD.ERR# = XT_PARAM.ERR;
     2186    13677    4                   ALTRETURN;
     2187    13678    4               END;
     2188    13679    3           END;
     2189    13680    2       END;
     2190    13681    1       XT$ = GETCMD.XT_PARAM$;
     2191    13682    1       IF XUG.ADAPT$$ ~= ENTADDR(NIL)
     2192    13683    1         AND XT_PARAM.ADAPTING
     2193    13684    1         AND XT_PARAM.INDCB = GETCMD.INDCB#  /* ie, if not secondary READ file */
     2194    13685    2       THEN DO;
     2195    13686    2           XT_PARAM.BUF.PT$ = ADDR(XUG.BUF);
     2196    13687    2           XT_PARAM.BUF.LEN = LENGTHC(XUG.BUF);
     2197    13688    2           XT_PARAM.PROMPT.PT$ = ADDR(XUG.PROMPT);
     2198    13689    2           XT_PARAM.PROMPT.LEN = XUG.POFF + BITBIN(XUG.PROMPT_VFC);
PL6.E3A0      #004=XUG$READCMD_COMMON File=XUG$COMMON.:E05TSI                    WED 07/30/97 09:21 Page:364
     2199    13690    2           XT_PARAM.PROMPT_VFC = XUG.PROMPT_VFC;
     2200    13691    2           OFFSET = 0;
     2201    13692    2           GETCMD.EOMCHAR# = %EOM_EOR#;
     2202    13693    2           GETCMD.TREAD# = %YES#;
     2203    13694    2           CALL XUG.ADAPT$$ (XT_PARAM, %XT#READ)
     2204    13695    3           WHENALTRETURN DO;
     2205    13696    3               IF XT_PARAM.ERR = XT#EOD
     2206    13697    3               THEN
     2207    13698    3                   GOTO NORMAL_READ ;
     2208    13699    3               ERR = XT_PARAM.ERR;
     2209    13700    3               ALTRETURN;
     2210    13701    3           END;
     2211    13702    2           ARS = XT_PARAM.ARS;
     2212    13703    2       END;
     2213    13704    2       ELSE DO;
     2214    13705    2   NORMAL_READ: ;
     2215    13706    2           IF GETCMD.READR$$ = ENTADDR(NIL)
     2216    13707    3           THEN DO;
     2217    13708    3               FPT_READ = FPT_READ_C;
     2218    13709    3               FPT_READ.V_ = VECTOR (FPT_READ.V);
     2219    13710    3               FPT_READ.V.DCB#=GETCMD.INDCB#;
     2220    13711    3               FPT_READ.BUF_=VECTOR(XUG.BUF);
     2221    13712    3               CALL M$READ(FPT_READ) ALTRET(BAD_READ);
     2222    13713    3               OFFSET = BITBIN (XUG_IN$ -> F$DCB.DVBYTE.VFC#);
     2223    13714    3               ARS=XUG_IN$->F$DCB.ARS# - OFFSET;
     2224    13715    3               GETCMD.EOMCHAR# = XUG_IN$ -> F$DCB.EOMCHAR#;
     2225    13716    3               IF (NOT XUG_IN$->F$DCB.DDEV.IC#) OR
     2226    13717    3                 (XUG_IN$ -> F$DCB.DDEV.XEQ#)
     2227    13718    3               THEN
     2228    13719    3                   GETCMD.TREAD# = '0'B ;
     2229    13720    3               ELSE
     2230    13721    3                   GETCMD.TREAD# = '1'B ;
     2231    13722    3           END;
     2232    13723    3           ELSE DO;
     2233    13724    3               T_ERR = '0'B ;
     2234    13725    3               READR_EXISTS = '1'B;
     2235    13726                                                /* GETCMD.READR$$ routine must
PL6.E3A0      #004=XUG$READCMD_COMMON File=XUG$COMMON.:E05TSI                    WED 07/30/97 09:21 Page:365
     2236    13727                                                    maintain GETCMD.TREAD#           */
     2237    13728    3               CALL GETCMD.READR$$ (VECTOR(XUG.BUF), ARS, GETCMD.READR$$, T_ERR,
     2238    13729    3                 GETCMD.EOMCHAR#)
     2239    13730    4               WHENALTRETURN DO ;
     2240    13731    4                   ERR = T_ERR ;
     2241    13732    4                   GOTO READ_ALT ;
     2242    13733    4               END ;                  /* Whenaltreturn Do */
     2243    13734    3               OFFSET = 0 ;
     2244    13735    3               XUG.POFF = 0 ;
     2245    13736    3               XUG.PROMPT = ' ' ;
     2246    13737    3               XUG.PROMPT_VFC = %NO# ;
     2247    13738    3           END;
     2248    13739    2       END;
     2249    13740    1       IF (NOT GETCMD.SKIP_PREPROCESS#) AND XUG.PREPROCESS
     2250    13741    2       THEN DO;
     2251    13742    2           IF XUG.PREPROCESSOR$$ ~= ENTADDR(NIL)
     2252    13743    2           THEN
     2253    13744    2               CALL XUG$PRE_PROCESSOR (GETCMD,ARS);
     2254    13745    2           ELSE
     2255    13746    2               CALL XUG$PP_CMDVARS (GETCMD,ARS);
     2256    13747    2       END;
     2257    13748    1       ELSE
     2258    13749    1           GETCMD.SKIP_PREPROCESS# = '0'B ;
     2259    13750    1       IF NOT READR_EXISTS
     2260    13751    1         AND NOT XUG.DONT_STRIP_PROMPT
     2261    13752    1         AND ARS>=XUG.POFF
     2262    13753    1         AND SUBSTR(XUG.BUF,OFFSET,XUG.POFF) =
     2263    13754    1         SUBSTR(XUG.PROMPT,BITBIN(XUG.PROMPT_VFC),XUG.POFF)
     2264    13755    2       THEN DO;
     2265    13756    2           GETCMD.RCVD_PROMPT# = '1'B ;
     2266    13757    2           OFFSET = OFFSET + XUG.POFF ;
     2267    13758               /* just in case there was a pre-processor error already ... */
     2268    13759    2           XUG.P_PCB$->P_PCB.HI_CHAR = XUG.P_PCB$->P_PCB.HI_CHAR - XUG.POFF;
     2269    13760    2           ARS = ARS - XUG.POFF ;
     2270    13761    2       END ; /* Then Do */
     2271    13762    1       VBASE(XUG.LAST) = VBASE(CMDBUF) ;
     2272    13763    1       IF ARS = 0
PL6.E3A0      #004=XUG$READCMD_COMMON File=XUG$COMMON.:E05TSI                    WED 07/30/97 09:21 Page:366
     2273    13764    1       THEN
     2274    13765    2       DO ;
     2275    13766    2           VBOUND(XUG.LAST)=ARS ;
     2276    13767    2           CSIZE = 1 ;
     2277    13768    2           VBASE(XUG.LAST) -> VCHARBASE = ' ' ;
     2278    13769    2       END ; /* Then Do */
     2279    13770    1       ELSE
     2280    13771    1           VBOUND(XUG.LAST)=ARS-1;
     2281    13772    1       IF ARS + 1 > VBOUND(CMDBUF)            /* leave 1 extra space for a blank */
     2282    13773    2       THEN DO;
     2283    13774    2           CALL XUG$MOREMEM(GETCMD) ALTRET(READ_ALT) ;
     2284    13775    2       END;
     2285    13776    1       BUFFER = SUBSTR (XUG.BUF , OFFSET , ARS);
     2286    13777    1       CALL MOVE_CMD;
     2287    13778    1       IF XUG.REQ_PROMPT AND NOT GETCMD.RCVD_PROMPT#
     2288    13779    1       THEN
     2289    13780    2       DO ;
     2290    13781    2           GETCMD.ERR# = XUG#NO_PROMPT;
     2291    13782    2           GOTO READ_ALT ;
     2292    13783    2       END ;                        /* Then Do */
     2293    13784        /*E*  ERROR:  XUG-E$XUG#NO_PROMPT
     2294    13785              MESSAGE0: No prompt received.
     2295    13786              MESSAGE1: No prompt received when one was required.
     2296    13787        */
     2297    13788    1       IF READR_EXISTS AND GETCMD.TREAD#
     2298    13789    1       THEN
     2299    13790    1           RETURN ;
     2300    13791    1       CALL XUG$OPENOUT_INTERNAL (GETCMD, GETCMD.OUTDCB#);
     2301    13792    1       IF (GETCMD.TREAD# AND DCBADDR(GETCMD.OUTDCB#)->F$DCB.DDEV.UCOUT#)
     2302    13793    1         OR DCBADDR(GETCMD.INDCB#)->F$DCB.DVBYTE.TRANS#
     2303    13794    1         OR (GETCMD.ECHO = %NEVER_ECHO#)
     2304    13795    1         OR (GETCMD.ECHO = %HONOR_FLAG# AND NOT (B$JIT.CPFLAGS1 & %CP_ECHO#))
     2305    13796    1       THEN
     2306    13797    1           RETURN;
     2307    13798    1       IF GETCMD.PASS ~= %LEAVE_PASS#
     2308    13799    1       THEN
     2309    13800    2       DO ;
PL6.E3A0      #004=XUG$READCMD_COMMON File=XUG$COMMON.:E05TSI                    WED 07/30/97 09:21 Page:367
     2310    13801    2           XUG.NEED_ECHO = '1'B ;
     2311    13802    2           RETURN ;
     2312    13803    2       END ;                        /* Then Do */
     2313    13804    1       FPT_WRITE.V.DCB#=GETCMD.OUTDCB#;
     2314    13805    1       CALL WRITE_CMD_WRAPPED;
     2315    13806    1       XUG.NDCBS=1;
     2316    13807    1       XUG.DCBS.ERRPTR_CPOS(1) = -1;
     2317    13808    1       RETURN;
     2318    13809        /**/
     2319    13810    1   BAD_READ:;
     2320    13811    1       ERR=B$TCB$->B$TCB.ALT$->B$ALT.ERR;
     2321    13812    1   READ_ALT:
     2322    13813    1       ALTRETURN;
     2323    13814        %EJECT;
PL6.E3A0      #004=XUG$READCMD_COMMON File=XUG$COMMON.:E05TSI                    WED 07/30/97 09:21 Page:368
     2324    13815    1   XUG$CORRES_COMMON: ENTRY(GETCMD,CMDBUF) ALTRET;
     2325    13816    1       DCB$ = ADDR(GETCMD) ;
     2326    13817    1       CALL OPEN (DCB$NUM);
     2327    13818    1       CALL OPEN (CHARPOS.N);
     2328    13819    1       FPT_CORRES = FPT_CORRES_C;
     2329    13820    1       FPT_CORRES.V_ = VECTOR (FPT_CORRES.V);
     2330    13821    1       FPT_CORRES.V.DCB1#=DCB$NUM ;
     2331    13822    1       FPT_CORRES.V.DCB2#=CHARPOS.N ;
     2332    13823    1       CALL M$CORRES(FPT_CORRES) ALTRET(CORRES);
     2333    13824    1       RETURN;
     2334    13825    1   CORRES: ALTRETURN;
     2335    13826        %EJECT;
PL6.E3A0      #004=XUG$READCMD_COMMON File=XUG$COMMON.:E05TSI                    WED 07/30/97 09:21 Page:369
     2336    13827    1   XUG$ECHOLAST_COMMON: ENTRY(GETCMD) ALTRET;
     2337    13828    1       XUG$ = GETCMD.WORK$ ;
     2338    13829    1       CALL MOVE_CMD;
     2339    13830    1       IF GETCMD.DCB_PARAM# = DCBNUM( NIL )
     2340    13831    1       THEN
     2341    13832    1           GETCMD.DCB_PARAM# = GETCMD.OUTDCB# ;
     2342    13833    1       IF GETCMD.DCB_PARAM# = DCBNUM(NIL)
     2343    13834    1       THEN
     2344    13835    1           CALL XUG$GETDCB_COMMON(M$LO,GETCMD.DCB_PARAM#) WHENALTRETURN
     2345    13836    2           DO ;
     2346    13837    2               GETCMD.ERR# = B$TCB$ -> B$TCB.ALT$ -> B$ALT.ERR ;
     2347    13838    2               GOTO CORRES ;
     2348    13839    2           END ;                     /* Whenaltreturn Do */
     2349    13840    1       CALL XUG$OPENOUT_INTERNAL (GETCMD, GETCMD.DCB_PARAM#);
     2350    13841    1       FPT_WRITE.V.DCB#=GETCMD.DCB_PARAM# ;
     2351    13842    1       CALL WRITE_CMD_WRAPPED;
     2352    13843    1       RETURN;
     2353    13844        %EJECT;
PL6.E3A0      #004=XUG$READCMD_COMMON File=XUG$COMMON.:E05TSI                    WED 07/30/97 09:21 Page:370
     2354    13845    1   XUG$SETLAST: ENTRY(GETCMD) ALTRET;
     2355    13846    1       IF GETCMD.WORK$ = ADDR(NIL)
     2356    13847    1       THEN
     2357    13848    2       DO ;
     2358    13849    2           XUG_INIT_A = XUG_INIT_C ;
     2359    13850    2           CALL XUG$INIT_COMMON (GETCMD,XUG_INIT_A) ALTRET (BAD_READ);
     2360    13851    2       END ; /* Then Do */
     2361    13852    1       XUG$ = GETCMD.WORK$ ;
     2362    13853    1       XUG.LAST=XUG.READVEC ;
     2363    13854    1       RETURN;
     2364    13855        %EJECT;
PL6.E3A0      #004=XUG$READCMD_COMMON File=XUG$COMMON.:E05TSI                    WED 07/30/97 09:21 Page:371
     2365    13856    1   MOVE_CMD: PROC;
     2366    13857    2       FPT_WRITE = FPT_WRITE_C;
     2367    13858    2       FPT_WRITE.V_ = VECTOR (FPT_WRITE.V);
     2368    13859    2       IF GETCMD.RPROMPT_~=VECTOR(NIL) AND
     2369    13860    2         GETCMD.RPROMPT_~=VECTOR(ERASE)
     2370    13861    3       THEN DO;
     2371    13862    3           POFF = VBOUND(GETCMD.RPROMPT_)+1 ;
     2372    13863    3           CSIZE = POFF ;
     2373    13864    3           PROMPT_BUF = VBASE(GETCMD.RPROMPT_) -> VCHARBASE ;
     2374    13865    3           FPT_WRITE.V.DVBYTE.VFC# = XUG.PROMPT_VFC ;
     2375    13866    3       END ;
     2376    13867    3       ELSE DO;
     2377    13868    3           POFF = XUG.POFF;
     2378    13869    3           PROMPT_BUF = SUBSTR(XUG.PROMPT,BITBIN(XUG.PROMPT_VFC),POFF);
     2379    13870    3       END;
     2380    13871    2       SUBSTR (XUG.BUF , 0 , POFF) = PROMPT_BUF;
     2381    13872    2       SUBSTR (XUG.BUF , POFF , VBOUND(XUG.LAST) + 1) = VBASE(XUG.LAST) -> CHARBASE;
     2382    13873    2       FPT_WRITE = FPT_WRITE_C;
     2383    13874    2       FPT_WRITE.V_ = VECTOR (FPT_WRITE.V);
     2384    13875    2       FPT_WRITE.BUF_=VECTOR(XUG.BUF);
     2385    13876    2       FPT_WRITE.BUF_.BOUND=POFF+VBOUND(XUG.LAST);
     2386    13877    2       RETURN;
     2387    13878    2   END MOVE_CMD;
     2388    13879        %EJECT;
PL6.E3A0      #004=XUG$READCMD_COMMON File=XUG$COMMON.:E05TSI                    WED 07/30/97 09:21 Page:372
     2389    13880    1   WRITE_CMD_WRAPPED: PROC;
     2390    13881    2   DCL CHUNK_SIZE SBIN;
     2391    13882    2   DCL OFFSET SBIN;
     2392    13883    2   DCL OUTPUT_COUNT SBIN;
     2393    13884    2   DCL OUTPUT_STRING CHAR (OUTPUT_COUNT) BASED (FPT_WRITE.BUF_.BUF$);
     2394    13885    2   DCL OUTPUT_WIDTH SBIN;
     2395    13886    2       OUTPUT_WIDTH = DCBADDR(FPT_WRITE.V.DCB#) -> F$DCB.WIDTH#;
     2396    13887    2       IF OUTPUT_WIDTH = 0
     2397    13888    2       THEN
     2398    13889    2           OUTPUT_WIDTH = 511;
     2399    13890    2       OUTPUT_COUNT = FPT_WRITE.BUF_.BOUND + 1;
     2400    13891    3       DO WHILE (OUTPUT_COUNT > 1);
     2401    13892    3           IF SUBSTR (OUTPUT_STRING, OUTPUT_COUNT - 1, 1) ~= ' '
     2402    13893    3           THEN
     2403    13894    3               EXIT;
     2404    13895    3           OUTPUT_COUNT = OUTPUT_COUNT - 1;
     2405    13896    3       END;
     2406    13897    2       OFFSET = 0;
     2407    13898    3       DO WHILE (OFFSET < OUTPUT_COUNT);
     2408    13899    3           CHUNK_SIZE = MINIMUM(OUTPUT_COUNT - OFFSET, OUTPUT_WIDTH);
     2409    13900    3           IF XUG.PROMPT_VFC AND OFFSET > 0
     2410    13901    4           THEN DO;
     2411    13902    4               CHUNK_SIZE = CHUNK_SIZE + 1;
     2412    13903    4               OFFSET = OFFSET - 1;
     2413    13904    4               SUBSTR( XUG.BUF, OFFSET, 1 ) = SUBSTR( XUG.BUF, 0, 1 );
     2414    13905    4           END;
     2415    13906    3           FPT_WRITE.BUF_.BOUND = CHUNK_SIZE - 1;
     2416    13907    4           CALL M$WRITE(FPT_WRITE) WHENALTRETURN DO ;
     2417    13908    4           END ;
     2418    13909    3           OFFSET = OFFSET + CHUNK_SIZE;
     2419    13910    3           FPT_WRITE.BUF_.BUF$ = PINCRC(FPT_WRITE.BUF_.BUF$, CHUNK_SIZE);
     2420    13911    3       END;
     2421    13912    2       RETURN;
     2422    13913    2   END WRITE_CMD_WRAPPED;
     2423    13914        %EJECT;
PL6.E3A0      #004=XUG$READCMD_COMMON File=XUG$COMMON.:E05TSI                    WED 07/30/97 09:21 Page:373
     2424    13915    1   OPEN: PROC(DCBNO);
     2425    13916    2   DCL DCBNO UBIN;
     2426    13917    2       IF DCBNO = DCBNUM(NIL)
     2427    13918    2       THEN
     2428    13919    2           RETURN;
     2429    13920    2       IF NOT DCBADDR(DCBNO) -> F$DCB.FCD#
     2430    13921    3       THEN DO;
     2431    13922    3           FPT_OPEN = FPT_OPEN_C;
     2432    13923    3           FPT_OPEN.V_ = VECTOR (FPT_OPEN.V);
     2433    13924    3           FPT_OPEN.V.DCB# = DCBNO;
     2434    13925    3           CALL M$OPEN (FPT_OPEN) ALTRET (IGNORE_ERROR_ON_OPEN);
     2435    13926    3   IGNORE_ERROR_ON_OPEN: ;
     2436    13927    3       END;
     2437    13928    2   END OPEN;
     2438    13929
     2439    13930    1   END XUG$READCMD_COMMON ;
     2440    13931        %EOD;

PL6.E3A0      #004=XUG$READCMD_COMMON File=XUG$COMMON.:E05TSI                    WED 07/30/97 09:21 Page:374
--  Include file information  --

   B$JIT_C.:E05TOU  is referenced.
   B$JIT.:E05TOU  cannot be made into a system file and is referenced.
   CP_6_SUBS.:E05TOU  is referenced.
   CP_6_C.:E05TOU  is referenced.
   CP_6.:E05TOU  cannot be made into a system file and is referenced.
   XT_PERR_E.:TOOLE04  is referenced.
   XT_MACRO_M.:TOOLE04  is referenced.
   XU_PERR_C.:E05TOU  is referenced.
   XU_SUBS_C.:E05TOU  is referenced.
   XUH_MACRO_C.:E05TOU  is referenced.
   XU_MACRO_C.:E05TOU  is referenced.
      No diagnostics issued in procedure XUG$READCMD_COMMON.

   Procedure XUG$READCMD_COMMON requires 670 words for executable code.
   Procedure XUG$READCMD_COMMON requires 182 words of local(AUTO) storage.

PL6.E3A0      #004=XUG$READCMD_COMMON File=XUG$COMMON.:E05TSI                    WED 07/30/97 09:21 Page:375

 Object Unit name= XUG$READCMD_COMMON                         File name= XUG$COMMON.:E05TOU
 UTS= JUL 30 '97 09:21:40.44 WED                              Compiler= PL-6/E31         Sev=      00
 SharedLib= :SHARED_SYSTEM                                    Alt SharedLib=


    ****  Control sections  ****

 Sect   Type Bound  Init  Size OctSiz  Section name(segment info)
    0  RoData even  UTS    125    175  XUG$READCMD_COMMON
    1   DCB   even  none     0      0  M$UC
    2   DCB   even  none     0      0  M$DO
    3   Proc  even  none   670   1236  XUG$READCMD_COMMON
    4  RoData even  none    17     21  XUG$READCMD_COMMON

    ****  Entry defs  ****

                              Check   Calling
                             calling  sequence
  Sect OctLoc Primary Altret sequence   type   Parms  Name
     3      0   yes    yes     yes      Std        3  XUG$READCMD_COMMON
     3    610          yes     yes      Std        2  XUG$CORRES_COMMON
     3    647          yes     yes      Std        1  XUG$ECHOLAST_COMMON
     3    721          yes     yes      Std        1  XUG$SETLAST
PL6.E3A0      #004=XUG$READCMD_COMMON File=XUG$COMMON.:E05TSI                    WED 07/30/97 09:21 Page:376

  ****  Entry refs  ****

         Check        Calling
        calling       sequence
Altret sequence SRef   type   Args  Name
 yes     yes           Std       1 XUG$ADAPTMEM
         yes           Std       2 XUG$PRE_PROCESSOR
         yes           Std       2 XUG$PP_CMDVARS
 yes     yes           Std       1 XUG$MOREMEM
         yes           Std       2 XUG$OPENOUT_INTERNAL
 yes     yes           Std       2 XUG$GETDCB_COMMON
 yes     yes           Std       2 XUG$INIT_COMMON
                       Std       0 B_CONSPOOL_D
                       nStd      0 X66_AUTO_3
                       nStd      0 X66_AALT
                       nStd      0 X66_ARET

  ****  Data refs  ****

  Flags:  r = read only, s = secondary
Flgs Name                             Flgs Name                             Flgs Name
     XUG_INIT_C                            M$UC                                  M$DO
     B$TCB$                                B$JIT$                                B_VECTNIL

  ****  Segment refs  ****

  Flags:  r = read only, s = secondary
Flgs Name                             Flgs Name                             Flgs Name
     NULLSID                               ISSID                                 ROSID
PL6.E3A0      #004=XUG$READCMD_COMMON File=XUG$COMMON.:E05TSI                    WED 07/30/97 09:21 Page:377


     2068        1        /*T***********************************************************/
     2069        2        /*T*                                                         */
     2070        3        /*T* Copyright (c) Bull HN Information Systems Inc., 1997    */
     2071        4        /*T*                                                         */
     2072        5        /*T***********************************************************/
     2073        6        /* ROUTINE TO READ COMMAND LINE AND ECHO IF APPROPRIATE */
     2074        7        XUG$READCMD_COMMON: PROC(GETCMD,CMDBUF,ARS) ALTRET;

      7  3 000000   000000 700200 xent  XUG$READCMD* TSX0  ! X66_AUTO_3
         3 000001   000266 000003                    ZERO    182,3

     2075        8        /*X* DMC,PLM=4,IND=4,CTI=2,DTI=0,ENI=0,ECI=0,CSI=0,MCI,DCI=4 */
     2076        9    1   DCL CMDBUF VECTOR PARAM ;
     2077       10    1   DCL 1 CHARPOS REDEF CMDBUF,
     2078       11    1         2 N UBIN WORD,
     2079       12    1         2 * UBIN WORD ;
     2080       13    1   DCL ARS SBIN;
     2081       14    1   DCL 1 ERR REDEF ARS,
     2082       15    1         2 FCG BIT(18),
     2083       16    1         2 MON BIT(1),
     2084       17    1         2 CODE UBIN(14) UNAL,
     2085       18    1         2 SEV UBIN(3) UNAL;
     2086       19    1   DCL BUFFER CHAR(ARS) BASED(CMDBUF$);
     2087       20    1   DCL CMDBUF$ PTR ;
     2088       21        %EJECT;
PL6.E3A0      #004=XUG$READCMD_COMMON File=XUG$COMMON.:E05TSI                    WED 07/30/97 09:21 Page:378
     2089       22    1   DCL XUG$ PTR;
     2090       23
     2091       24        %INCLUDE XU_MACRO_C;
     2092     3130        %INCLUDE XUH_MACRO_C ;
     2093     3214        %INCLUDE XU_SUBS_C;
     2094     3306        %INCLUDE XU_PERR_C ;
     2095     3497        %INCLUDE XT_MACRO_M;
     2096     3823        %INCLUDE XT_PERR_E ;
     2097     3884        %XUG_GETCMD (NAME=GETCMD, STCLASS=PARAM) ;
     2098     4222        %XUG_PARAMS;
     2099     4666        %XUG_INIT (NAME=XUG_INIT_C, STCLASS=SYMREF);
     2100     5079        %XUG_INIT (NAME = XUG_INIT_A,STCLASS=AUTO);
     2101     5492        %XT_PARAM (NAME=XT_PARAM, STCLASS="BASED(XT$)");
     2102     5805        %XT_PARAM (NAME=XT_PARAM_C, STCLASS=CONSTANT,GETMEM=XUG$ADAPTMEM);
     2103     6118        %P_PCB(STCLASS=BASED);
     2104     6317    1   DCL XUG$ADAPTMEM ENTRY(1) ALTRET;
     2105     6318    1   DCL XUG$OPENOUT_INTERNAL ENTRY(2);
     2106     6319    1   DCL CHARBASE CHAR(300) BASED;
     2107     6320    1   DCL OFFSET SBIN;
     2108     6321    1   DCL 1 T_ERR,
     2109     6322    1         2 FCG BIT(18),
     2110     6323    1         2 MON BIT(1),
     2111     6324    1         2 CODE UBIN(14) UNAL,
     2112     6325    1         2 SEV UBIN(3) UNAL;
     2113     6326        /**/
     2114     6327        %INCLUDE CP_6;
     2115    11886        %INCLUDE CP_6_SUBS;
     2116    12426        %MACRO TEXTC (NAME=NAME,T#='',STCLASS=CONSTANT);
     2117    12427        DCL 1 NAME STCLASS,
     2118    12428              2 L UBIN BYTE UNAL INIT(SIZEC(T#)),
     2119    12429              2 C CHAR(0) INIT(T#);
     2120    12430        %MEND;
     2121    12431        %TEXTC (NAME=M$LO,T#='M$LO');
     2122    12436    1   DCL DCB$ PTR ;
     2123    12437    1   DCL DCB$NUM UBIN WORD BASED(DCB$) ;
     2124    12438    1   DCL M$DO DCB;
     2125    12439    1   DCL XUG_IN$ PTR;
PL6.E3A0      #004=XUG$READCMD_COMMON File=XUG$COMMON.:E05TSI                    WED 07/30/97 09:21 Page:379
     2126    12440    1   DCL M$DO$ PTR;
     2127    12441    1   DCL PRE_PROCESSOR_ERROR BIT (1) AUTO;
     2128    12442    1   DCL PPCB$ PTR AUTO;
     2129    12443    1   DCL POFF SBIN WORD ;
     2130    12444    1   DCL PROMPT_BUF CHAR(94) ;
     2131    12445    1   DCL READR_EXISTS BIT (1);
     2132    12446    1   DCL CSIZE SBIN ;
     2133    12447    1   DCL VCHARBASE CHAR(CSIZE) BASED ;
     2134    12448    1   DCL XT$ PTR;
     2135    12449
     2136    12450    1   DCL XUG$PRE_PROCESSOR ENTRY (2);
     2137    12451    1   DCL XUG$PP_CMDVARS ENTRY (2);
     2138    12452    1   DCL XUG$MOREMEM ENTRY(1) ALTRET;
     2139    12453    1   DCL XUG$INIT_COMMON ENTRY (2) ALTRET;
     2140    12454    1   DCL XUG$GETDCB_COMMON ENTRY(2) ALTRET;
     2141    12455        %F$DCB;
     2142    12512        %FPT_READ (WAIT=YES,STCLASS=CONSTANT,FPTN=FPT_READ_C);
     2143    12551        %FPT_READ (STCLASS=AUTO);
     2144    12590        %FPT_WRITE (WAIT=YES,STCLASS=CONSTANT,FPTN=FPT_WRITE_C);
     2145    12621        %FPT_WRITE (STCLASS=AUTO);
     2146    12652        %FPT_CORRES (STCLASS=CONSTANT,FPTN=FPT_CORRES_C);
     2147    12666        %FPT_CORRES (STCLASS=AUTO);
     2148    12680        %FPT_OPEN (STCLASS=CONSTANT,FPTN=FPT_OPEN_C);
     2149    12789        %FPT_OPEN (STCLASS=AUTO);
     2150    12898        %VLP_ERRCODE (FPTN=XUG#NO_PROMPT, STCLASS=CONSTANT,
     2151    12899                      FCG=XU, MID=G, ERR#=%E$XUG#NO_PROMPT, SEV=0) ;
     2152    12944        %VLP_ERRCODE (FPTN=XT#EOD, STCLASS=CONSTANT,
     2153    12945                      FCG=XT, ERR#=%E$XT#EOD);
     2154    12990        %VLP_ERRCODE (FPTN=XT#CANT_ADAPT, STCLASS=CONSTANT,
     2155    12991                      FCG=XT, ERR#=%E$XT#CANT_ADAPT);
     2156    13036        %B$TCB;
     2157    13039        %B$ALT;
     2158    13047    1   DCL B$TCB$ PTR SYMREF;
     2159    13048    1   DCL B$JIT$ PTR SYMREF;
     2160    13049        %INCLUDE B$JIT;
     2161    13652        %EJECT;
PL6.E3A0      #004=XUG$READCMD_COMMON File=XUG$COMMON.:E05TSI                    WED 07/30/97 09:21 Page:380
     2162    13653    1       XUG$ = GETCMD.WORK$ ;

  13653  3 000002   200003 470500                    LDP0    @GETCMD,,AUTO
         3 000003   000004 236100                    LDQ     4,,PR0
         3 000004   200007 756100                    STQ     XUG$,,AUTO

     2163    13654    1       CMDBUF$ = VBASE(CMDBUF) ;

  13654  3 000005   200004 471500                    LDP1    @CMDBUF,,AUTO
         3 000006   100001 236100                    LDQ     1,,PR1
         3 000007   200006 756100                    STQ     CMDBUF$,,AUTO

     2164    13655    1       XUG_IN$ = DCBADDR(GETCMD.INDCB#);

  13655  3 000010   000000 473400 4                  LDP3    0
         3 000011   300000 474500                    LDP4    0,,PR3
         3 000012   000012 720100                    LXL0    10,,PR0
         3 000013   400000 236110                    LDQ     0,X0,PR4
         3 000014   200057 756100                    STQ     XUG_IN$,,AUTO

     2165    13656    1       GETCMD.EOMCHAR# = %EOM_EOR#;

  13656  3 000015   501000 236007                    LDQ     -97792,DL
         3 000016   000007 552110                    STBQ    7,'10'O,PR0

     2166    13657    1       READR_EXISTS = '0'B;

  13657  3 000017   200114 450100                    STZ     READR_EXISTS,,AUTO

     2167    13658    1       XUG.PP_ERR = '0'B;

  13658  3 000020   200007 475500                    LDP5    XUG$,,AUTO
         3 000021   500100 450100                    STZ     64,,PR5

     2168    13659    1       XUG.BUF = ' ';

  13659  3 000022   040100 100400                    MLR     fill='040'O
PL6.E3A0      #004=XUG$READCMD_COMMON File=XUG$COMMON.:E05TSI                    WED 07/30/97 09:21 Page:381
         3 000023   000035 000001 xsym               ADSC9   B_VECTNIL+29             cn=0,n=1
         3 000024   500300 000454                    ADSC9   192,,PR5                 cn=0,n=300

     2169    13660    1       IF XUG.ADAPT$$ ~= ENTADDR(NIL)

  13660  3 000025   500270 236100                    LDQ     184,,PR5
         3 000026   000002 116000 xsym               CMPQ    B_VECTNIL+2
         3 000027   000101 600000 3                  TZE     s:13681
         3 000030   000036 236100                    LDQ     30,,PR0
         3 000031   000001 116000 xsym               CMPQ    B_VECTNIL+1
         3 000032   000101 601000 3                  TNZ     s:13681

     2170    13661    1         AND GETCMD.XT_PARAM$ = ADDR(NIL)
     2171    13662    2       THEN DO;

     2172    13663    2           XT$ = PINCRW(XUG$, SIZEW(XUG) + SIZEW(P_PCB));

  13663  3 000033   200007 236100                    LDQ     XUG$,,AUTO
         3 000034   000432 036003                    ADLQ    282,DU
         3 000035   200116 756100                    STQ     XT$,,AUTO

     2173    13664    2           XT_PARAM = XT_PARAM_C;

  13664  3 000036   200116 476500                    LDP6    XT$,,AUTO
         3 000037   000100 100400                    MLR     fill='000'O
         3 000040   000000 000200 0                  ADSC9   XT_PARAM_C               cn=0,n=128
         3 000041   600000 000200                    ADSC9   0,,PR6                   cn=0,n=128

     2174    13665    2           XT_PARAM.XUG$ = XUG$ ;

  13665  3 000042   200007 236100                    LDQ     XUG$,,AUTO
         3 000043   600015 756100                    STQ     13,,PR6

     2175    13666    2           XT_PARAM.USER$ = ADDR(GETCMD);

  13666  3 000044   200003 236100                    LDQ     @GETCMD,,AUTO
         3 000045   600022 756100                    STQ     18,,PR6
PL6.E3A0      #004=XUG$READCMD_COMMON File=XUG$COMMON.:E05TSI                    WED 07/30/97 09:21 Page:382

     2176    13667    2           XT_PARAM.INDCB = GETCMD.INDCB#;

  13667  3 000046   000012 235100                    LDA     10,,PR0
         3 000047   600004 755100                    STA     4,,PR6

     2177    13668    2           XT_PARAM.OUTDCB = GETCMD.OUTDCB#;

  13668  3 000050   000013 235100                    LDA     11,,PR0
         3 000051   600003 755100                    STA     3,,PR6

     2178    13669    2           GETCMD.XT_PARAM$ = XT$;

  13669  3 000052   200116 236100                    LDQ     XT$,,AUTO
         3 000053   000036 756100                    STQ     30,,PR0

     2179    13670    2           CALL XUG.ADAPT$$ (XT_PARAM, %XT#RESTART)

  13670  3 000054   000001 236000 4                  LDQ     1
         3 000055   200116 235100                    LDA     XT$,,AUTO
         3 000056   200256 757100                    STAQ    OUTPUT_WIDTH+2,,AUTO
         3 000057   200256 630500                    EPPR0   OUTPUT_WIDTH+2,,AUTO
         3 000060   500270 220100                    LDX0    184,,PR5
         3 000061   000020 631400 xsym               EPPR1   B_VECTNIL+16
         3 000062   000000 701010                    TSX1    0,X0
         3 000063   000065 702000 3                  TSX2    s:13672
         3 000064   000101 710000 3                  TRA     s:13681

     2180    13671    3           WHENALTRETURN DO;

     2181    13672    3               XUG.ADAPT$$ = ENTADDR(NIL);

  13672  3 000065   000002 236000 xsym               LDQ     B_VECTNIL+2
         3 000066   200007 470500                    LDP0    XUG$,,AUTO
         3 000067   000270 756100                    STQ     184,,PR0

     2182    13673    3               GETCMD.XT_PARAM$ = ADDR(NIL);
PL6.E3A0      #004=XUG$READCMD_COMMON File=XUG$COMMON.:E05TSI                    WED 07/30/97 09:21 Page:383

  13673  3 000070   000001 236000 xsym               LDQ     B_VECTNIL+1
         3 000071   200003 471500                    LDP1    @GETCMD,,AUTO
         3 000072   100036 756100                    STQ     30,,PR1

     2183    13674    3               IF XT_PARAM.ERR ~= XT#CANT_ADAPT

  13674  3 000073   200116 473500                    LDP3    XT$,,AUTO
         3 000074   300001 236100                    LDQ     1,,PR3
         3 000075   000174 116000 0                  CMPQ    XT#CANT_ADAPT
         3 000076   000101 600000 3                  TZE     s:13681

     2184    13675    4               THEN DO;

     2185    13676    4                   GETCMD.ERR# = XT_PARAM.ERR;

  13676  3 000077   100001 756100                    STQ     1,,PR1

     2186    13677    4                   ALTRETURN;

  13677  3 000100   000000 702200 xent               TSX2  ! X66_AALT

     2187    13678    4               END;
     2188    13679    3           END;
     2189    13680    2       END;

     2190    13681    1       XT$ = GETCMD.XT_PARAM$;

  13681  3 000101   200003 470500                    LDP0    @GETCMD,,AUTO
         3 000102   000036 236100                    LDQ     30,,PR0
         3 000103   200116 756100                    STQ     XT$,,AUTO

     2191    13682    1       IF XUG.ADAPT$$ ~= ENTADDR(NIL)

  13682  3 000104   200007 471500                    LDP1    XUG$,,AUTO
         3 000105   100270 236100                    LDQ     184,,PR1
         3 000106   000002 116000 xsym               CMPQ    B_VECTNIL+2
PL6.E3A0      #004=XUG$READCMD_COMMON File=XUG$COMMON.:E05TSI                    WED 07/30/97 09:21 Page:384
         3 000107   000172 600000 3                  TZE     NORMAL_READ
         3 000110   200116 473500                    LDP3    XT$,,AUTO
         3 000111   300014 234100                    SZN     12,,PR3
         3 000112   000172 605000 3                  TPL     NORMAL_READ
         3 000113   300004 236100                    LDQ     4,,PR3
         3 000114   000172 604000 3                  TMI     NORMAL_READ
         3 000115   000012 116100                    CMPQ    10,,PR0
         3 000116   000172 601000 3                  TNZ     NORMAL_READ

     2192    13683    1         AND XT_PARAM.ADAPTING
     2193    13684    1         AND XT_PARAM.INDCB = GETCMD.INDCB#  /* ie, if not secondary READ file */
     2194    13685    2       THEN DO;

     2195    13686    2           XT_PARAM.BUF.PT$ = ADDR(XUG.BUF);

  13686  3 000117   200007 236100                    LDQ     XUG$,,AUTO
         3 000120   000300 036003                    ADLQ    192,DU
         3 000121   300005 756100                    STQ     5,,PR3

     2196    13687    2           XT_PARAM.BUF.LEN = LENGTHC(XUG.BUF);

  13687  3 000122   000454 235007                    LDA     300,DL
         3 000123   300006 755100                    STA     6,,PR3

     2197    13688    2           XT_PARAM.PROMPT.PT$ = ADDR(XUG.PROMPT);

  13688  3 000124   200007 236100                    LDQ     XUG$,,AUTO
         3 000125   000037 036003                    ADLQ    31,DU
         3 000126   300025 756100                    STQ     21,,PR3

     2198    13689    2           XT_PARAM.PROMPT.LEN = XUG.POFF + BITBIN(XUG.PROMPT_VFC);

  13689  3 000127   100071 236100                    LDQ     57,,PR1
         3 000130   000024 772000                    QRL     20
         3 000131   000001 376007                    ANQ     1,DL
         3 000132   100036 036100                    ADLQ    30,,PR1
         3 000133   300026 756100                    STQ     22,,PR3
PL6.E3A0      #004=XUG$READCMD_COMMON File=XUG$COMMON.:E05TSI                    WED 07/30/97 09:21 Page:385

     2199    13690    2           XT_PARAM.PROMPT_VFC = XUG.PROMPT_VFC;

  13690  3 000134   100071 236100                    LDQ     57,,PR1
         3 000135   000017 736000                    QLS     15
         3 000136   400000 376003                    ANQ     -131072,DU
         3 000137   300027 756100                    STQ     23,,PR3

     2200    13691    2           OFFSET = 0;

  13691  3 000140   200054 450100                    STZ     OFFSET,,AUTO

     2201    13692    2           GETCMD.EOMCHAR# = %EOM_EOR#;

  13692  3 000141   501000 236007                    LDQ     -97792,DL
         3 000142   000007 552110                    STBQ    7,'10'O,PR0

     2202    13693    2           GETCMD.TREAD# = %YES#;

  13693  3 000143   200000 236003                    LDQ     65536,DU
         3 000144   000006 256100                    ORSQ    6,,PR0

     2203    13694    2           CALL XUG.ADAPT$$ (XT_PARAM, %XT#READ)

  13694  3 000145   000002 236000 4                  LDQ     2
         3 000146   200116 235100                    LDA     XT$,,AUTO
         3 000147   200256 757100                    STAQ    OUTPUT_WIDTH+2,,AUTO
         3 000150   200256 630500                    EPPR0   OUTPUT_WIDTH+2,,AUTO
         3 000151   100270 220100                    LDX0    184,,PR1
         3 000152   000020 631400 xsym               EPPR1   B_VECTNIL+16
         3 000153   000000 701010                    TSX1    0,X0
         3 000154   000156 702000 3                  TSX2    s:13696
         3 000155   000165 710000 3                  TRA     s:13702

     2204    13695    3           WHENALTRETURN DO;

     2205    13696    3               IF XT_PARAM.ERR = XT#EOD
PL6.E3A0      #004=XUG$READCMD_COMMON File=XUG$COMMON.:E05TSI                    WED 07/30/97 09:21 Page:386

  13696  3 000156   200116 470500                    LDP0    XT$,,AUTO
         3 000157   000001 236100                    LDQ     1,,PR0
         3 000160   000173 116000 0                  CMPQ    XT#EOD
         3 000161   000172 600000 3                  TZE     NORMAL_READ

     2206    13697    3               THEN
     2207    13698    3                   GOTO NORMAL_READ ;
     2208    13699    3               ERR = XT_PARAM.ERR;

  13699  3 000162   200005 471500                    LDP1    @ARS,,AUTO
         3 000163   100000 756100                    STQ     0,,PR1

     2209    13700    3               ALTRETURN;

  13700  3 000164   000000 702200 xent               TSX2  ! X66_AALT

     2210    13701    3           END;
     2211    13702    2           ARS = XT_PARAM.ARS;

  13702  3 000165   200116 470500                    LDP0    XT$,,AUTO
         3 000166   000007 235100                    LDA     7,,PR0
         3 000167   200005 471500                    LDP1    @ARS,,AUTO
         3 000170   100000 755100                    STA     0,,PR1

     2212    13703    2       END;

  13703  3 000171   000316 710000 3                  TRA     s:13740

     2213    13704    2       ELSE DO;

  13702  3 000172                       NORMAL_READ  null
     2214    13705    2   NORMAL_READ: ;
     2215    13706    2           IF GETCMD.READR$$ = ENTADDR(NIL)

  13706  3 000172   200003 470500                    LDP0    @GETCMD,,AUTO
         3 000173   000032 236100                    LDQ     26,,PR0
PL6.E3A0      #004=XUG$READCMD_COMMON File=XUG$COMMON.:E05TSI                    WED 07/30/97 09:21 Page:387
         3 000174   000002 116000 xsym               CMPQ    B_VECTNIL+2
         3 000175   000250 601000 3                  TNZ     s:13724

     2216    13707    3           THEN DO;

     2217    13708    3               FPT_READ = FPT_READ_C;

  13708  3 000176   000100 100400                    MLR     fill='000'O
         3 000177   000042 000070 0                  ADSC9   FPT_READ_C               cn=0,n=56
         3 000200   200120 000070                    ADSC9   FPT_READ,,AUTO           cn=0,n=56

     2218    13709    3               FPT_READ.V_ = VECTOR (FPT_READ.V);

  13709  3 000201   000003 235000 4                  LDA     3
         3 000202   200256 452500                    STP2    OUTPUT_WIDTH+2,,AUTO
         3 000203   200256 236100                    LDQ     OUTPUT_WIDTH+2,,AUTO
         3 000204   000130 036003                    ADLQ    88,DU
         3 000205   200120 757100                    STAQ    FPT_READ,,AUTO

     2219    13710    3               FPT_READ.V.DCB#=GETCMD.INDCB#;

  13710  3 000206   000012 720100                    LXL0    10,,PR0
         3 000207   200130 740100                    STX0    FPT_READ+8,,AUTO

     2220    13711    3               FPT_READ.BUF_=VECTOR(XUG.BUF);

  13711  3 000210   000004 235000 4                  LDA     4
         3 000211   200007 236100                    LDQ     XUG$,,AUTO
         3 000212   000300 036003                    ADLQ    192,DU
         3 000213   200124 757100                    STAQ    FPT_READ+4,,AUTO

     2221    13712    3               CALL M$READ(FPT_READ) ALTRET(BAD_READ);

  13712  3 000214   200120 630500                    EPPR0   FPT_READ,,AUTO
         3 000215   440000 713400                    CLIMB   alt,read
         3 000216   401400 401760                    pmme    nvectors=4
         3 000217   000602 702000 3                  TSX2    BAD_READ
PL6.E3A0      #004=XUG$READCMD_COMMON File=XUG$COMMON.:E05TSI                    WED 07/30/97 09:21 Page:388

     2222    13713    3               OFFSET = BITBIN (XUG_IN$ -> F$DCB.DVBYTE.VFC#);

  13713  3 000220   200057 470500                    LDP0    XUG_IN$,,AUTO
         3 000221   000003 236100                    LDQ     3,,PR0
         3 000222   000041 772000                    QRL     33
         3 000223   000001 376007                    ANQ     1,DL
         3 000224   200054 756100                    STQ     OFFSET,,AUTO

     2223    13714    3               ARS=XUG_IN$->F$DCB.ARS# - OFFSET;

  13714  3 000225   000000 236100                    LDQ     0,,PR0
         3 000226   200054 136100                    SBLQ    OFFSET,,AUTO
         3 000227   200005 471500                    LDP1    @ARS,,AUTO
         3 000230   100000 756100                    STQ     0,,PR1

     2224    13715    3               GETCMD.EOMCHAR# = XUG_IN$ -> F$DCB.EOMCHAR#;

  13715  3 000231   200003 473500                    LDP3    @GETCMD,,AUTO
         3 000232   000003 236100                    LDQ     3,,PR0
         3 000233   000011 736000                    QLS     9
         3 000234   300007 552110                    STBQ    7,'10'O,PR3

     2225    13716    3               IF (NOT XUG_IN$->F$DCB.DDEV.IC#) OR

  13716  3 000235   000004 236100                    LDQ     4,,PR0
         3 000236   100000 316007                    CANQ    32768,DL
         3 000237   000242 600000 3                  TZE     s:13719
         3 000240   040000 316007                    CANQ    16384,DL
         3 000241   000245 600000 3                  TZE     s:13721

     2226    13717    3                 (XUG_IN$ -> F$DCB.DDEV.XEQ#)
     2227    13718    3               THEN
     2228    13719    3                   GETCMD.TREAD# = '0'B ;

  13719  3 000242   000005 236000 4                  LDQ     5
         3 000243   300006 356100                    ANSQ    6,,PR3
PL6.E3A0      #004=XUG$READCMD_COMMON File=XUG$COMMON.:E05TSI                    WED 07/30/97 09:21 Page:389
         3 000244   000316 710000 3                  TRA     s:13740

     2229    13720    3               ELSE
     2230    13721    3                   GETCMD.TREAD# = '1'B ;

  13721  3 000245   200000 236003                    LDQ     65536,DU
         3 000246   300006 256100                    ORSQ    6,,PR3

     2231    13722    3           END;

  13722  3 000247   000316 710000 3                  TRA     s:13740

     2232    13723    3           ELSE DO;

     2233    13724    3               T_ERR = '0'B ;

  13724  3 000250   200055 450100                    STZ     T_ERR,,AUTO

     2234    13725    3               READR_EXISTS = '1'B;

  13725  3 000251   400000 236003                    LDQ     -131072,DU
         3 000252   200114 756100                    STQ     READR_EXISTS,,AUTO

     2235    13726                                                /* GETCMD.READR$$ routine must
     2236    13727                                                    maintain GETCMD.TREAD#           */
     2237    13728    3               CALL GETCMD.READR$$ (VECTOR(XUG.BUF), ARS, GETCMD.READR$$, T_ERR,

  13728  3 000253   000004 235000 4                  LDA     4
         3 000254   200007 236100                    LDQ     XUG$,,AUTO
         3 000255   000300 036003                    ADLQ    192,DU
         3 000256   200256 757100                    STAQ    OUTPUT_WIDTH+2,,AUTO
         3 000257   200003 236100                    LDQ     @GETCMD,,AUTO
         3 000260   000006 036000 4                  ADLQ    6
         3 000261   200264 756100                    STQ     OUTPUT_WIDTH+8,,AUTO
         3 000262   200055 631500                    EPPR1   T_ERR,,AUTO
         3 000263   200263 451500                    STP1    OUTPUT_WIDTH+7,,AUTO
         3 000264   200003 236100                    LDQ     @GETCMD,,AUTO
PL6.E3A0      #004=XUG$READCMD_COMMON File=XUG$COMMON.:E05TSI                    WED 07/30/97 09:21 Page:390
         3 000265   000032 036003                    ADLQ    26,DU
         3 000266   200262 756100                    STQ     OUTPUT_WIDTH+6,,AUTO
         3 000267   200005 236100                    LDQ     @ARS,,AUTO
         3 000270   200261 756100                    STQ     OUTPUT_WIDTH+5,,AUTO
         3 000271   200256 633500                    EPPR3   OUTPUT_WIDTH+2,,AUTO
         3 000272   200260 453500                    STP3    OUTPUT_WIDTH+4,,AUTO
         3 000273   200260 630500                    EPPR0   OUTPUT_WIDTH+4,,AUTO
         3 000274   200003 474500                    LDP4    @GETCMD,,AUTO
         3 000275   400032 220100                    LDX0    26,,PR4
         3 000276   000023 631400 xsym               EPPR1   B_VECTNIL+19
         3 000277   000000 701010                    TSX1    0,X0
         3 000300   000302 702000 3                  TSX2    s:13731
         3 000301   000306 710000 3                  TRA     s:13734

     2238    13729    3                 GETCMD.EOMCHAR#)
     2239    13730    4               WHENALTRETURN DO ;

     2240    13731    4                   ERR = T_ERR ;

  13731  3 000302   200055 236100                    LDQ     T_ERR,,AUTO
         3 000303   200005 470500                    LDP0    @ARS,,AUTO
         3 000304   000000 756100                    STQ     0,,PR0

     2241    13732    4                   GOTO READ_ALT ;

  13732  3 000305   000607 710000 3                  TRA     READ_ALT

     2242    13733    4               END ;                  /* Whenaltreturn Do */
     2243    13734    3               OFFSET = 0 ;

  13734  3 000306   200054 450100                    STZ     OFFSET,,AUTO

     2244    13735    3               XUG.POFF = 0 ;

  13735  3 000307   200007 470500                    LDP0    XUG$,,AUTO
         3 000310   000036 450100                    STZ     30,,PR0

PL6.E3A0      #004=XUG$READCMD_COMMON File=XUG$COMMON.:E05TSI                    WED 07/30/97 09:21 Page:391
     2245    13736    3               XUG.PROMPT = ' ' ;

  13736  3 000311   040100 100400                    MLR     fill='040'O
         3 000312   000035 000001 xsym               ADSC9   B_VECTNIL+29             cn=0,n=1
         3 000313   000037 000136                    ADSC9   31,,PR0                  cn=0,n=94

     2246    13737    3               XUG.PROMPT_VFC = %NO# ;

  13737  3 000314   000007 236000 4                  LDQ     7
         3 000315   000071 356100                    ANSQ    57,,PR0

     2247    13738    3           END;

     2248    13739    2       END;

     2249    13740    1       IF (NOT GETCMD.SKIP_PREPROCESS#) AND XUG.PREPROCESS

  13740  3 000316   200003 470500                    LDP0    @GETCMD,,AUTO
         3 000317   000006 236100                    LDQ     6,,PR0
         3 000320   004000 316003                    CANQ    2048,DU
         3 000321   000351 601000 3                  TNZ     s:13749
         3 000322   200007 471500                    LDP1    XUG$,,AUTO
         3 000323   100071 236100                    LDQ     57,,PR1
         3 000324   002000 316003                    CANQ    1024,DU
         3 000325   000351 600000 3                  TZE     s:13749

     2250    13741    2       THEN DO;

     2251    13742    2           IF XUG.PREPROCESSOR$$ ~= ENTADDR(NIL)

  13742  3 000326   100023 236100                    LDQ     19,,PR1
         3 000327   000002 116000 xsym               CMPQ    B_VECTNIL+2
         3 000330   000341 600000 3                  TZE     s:13746

     2252    13743    2           THEN
     2253    13744    2               CALL XUG$PRE_PROCESSOR (GETCMD,ARS);

PL6.E3A0      #004=XUG$READCMD_COMMON File=XUG$COMMON.:E05TSI                    WED 07/30/97 09:21 Page:392
  13744  3 000331   200005 236100                    LDQ     @ARS,,AUTO
         3 000332   200003 235100                    LDA     @GETCMD,,AUTO
         3 000333   200256 757100                    STAQ    OUTPUT_WIDTH+2,,AUTO
         3 000334   200256 630500                    EPPR0   OUTPUT_WIDTH+2,,AUTO
         3 000335   000020 631400 xsym               EPPR1   B_VECTNIL+16
         3 000336   000000 701000 xent               TSX1    XUG$PRE_PROCESSOR
         3 000337   000000 011000                    NOP     0
         3 000340   000353 710000 3                  TRA     s:13750

     2254    13745    2           ELSE
     2255    13746    2               CALL XUG$PP_CMDVARS (GETCMD,ARS);

  13746  3 000341   200005 236100                    LDQ     @ARS,,AUTO
         3 000342   200003 235100                    LDA     @GETCMD,,AUTO
         3 000343   200256 757100                    STAQ    OUTPUT_WIDTH+2,,AUTO
         3 000344   200256 630500                    EPPR0   OUTPUT_WIDTH+2,,AUTO
         3 000345   000020 631400 xsym               EPPR1   B_VECTNIL+16
         3 000346   000000 701000 xent               TSX1    XUG$PP_CMDVARS
         3 000347   000000 011000                    NOP     0

     2256    13747    2       END;

  13747  3 000350   000353 710000 3                  TRA     s:13750

     2257    13748    1       ELSE
     2258    13749    1           GETCMD.SKIP_PREPROCESS# = '0'B ;

  13749  3 000351   000010 236000 4                  LDQ     8
         3 000352   000006 356100                    ANSQ    6,,PR0

     2259    13750    1       IF NOT READR_EXISTS

  13750  3 000353   200114 234100                    SZN     READR_EXISTS,,AUTO
         3 000354   000414 604000 3                  TMI     s:13762
         3 000355   200007 470500                    LDP0    XUG$,,AUTO
         3 000356   000266 236100                    LDQ     182,,PR0
         3 000357   040000 316007                    CANQ    16384,DL
PL6.E3A0      #004=XUG$READCMD_COMMON File=XUG$COMMON.:E05TSI                    WED 07/30/97 09:21 Page:393
         3 000360   000414 601000 3                  TNZ     s:13762
         3 000361   200005 471500                    LDP1    @ARS,,AUTO
         3 000362   100000 236100                    LDQ     0,,PR1
         3 000363   000036 116100                    CMPQ    30,,PR0
         3 000364   000414 604000 3                  TMI     s:13762
         3 000365   000036 720100                    LXL0    30,,PR0
         3 000366   000071 236100                    LDQ     57,,PR0
         3 000367   000024 772000                    QRL     20
         3 000370   000001 376007                    ANQ     1,DL
         3 000371   000036 721100                    LXL1    30,,PR0
         3 000372   200054 235100                    LDA     OFFSET,,AUTO
         3 000373   040146 106545                    CMPC    fill='040'O
         3 000374   000300 000010                    ADSC9   192,A,PR0                cn=0,n=*X0
         3 000375   000037 000011                    ADSC9   31,Q,PR0                 cn=0,n=*X1
         3 000376   000414 601000 3                  TNZ     s:13762

     2260    13751    1         AND NOT XUG.DONT_STRIP_PROMPT
     2261    13752    1         AND ARS>=XUG.POFF
     2262    13753    1         AND SUBSTR(XUG.BUF,OFFSET,XUG.POFF) =
     2263    13754    1         SUBSTR(XUG.PROMPT,BITBIN(XUG.PROMPT_VFC),XUG.POFF)
     2264    13755    2       THEN DO;

     2265    13756    2           GETCMD.RCVD_PROMPT# = '1'B ;

  13756  3 000377   200003 473500                    LDP3    @GETCMD,,AUTO
         3 000400   020000 236003                    LDQ     8192,DU
         3 000401   300006 256100                    ORSQ    6,,PR3

     2266    13757    2           OFFSET = OFFSET + XUG.POFF ;

  13757  3 000402   200054 236100                    LDQ     OFFSET,,AUTO
         3 000403   000036 036100                    ADLQ    30,,PR0
         3 000404   200054 756100                    STQ     OFFSET,,AUTO

     2267    13758               /* just in case there was a pre-processor error already ... */
     2268    13759    2           XUG.P_PCB$->P_PCB.HI_CHAR = XUG.P_PCB$->P_PCB.HI_CHAR - XUG.POFF;

PL6.E3A0      #004=XUG$READCMD_COMMON File=XUG$COMMON.:E05TSI                    WED 07/30/97 09:21 Page:394
  13759  3 000405   000072 474500                    LDP4    58,,PR0
         3 000406   400012 236100                    LDQ     10,,PR4
         3 000407   000036 136100                    SBLQ    30,,PR0
         3 000410   400012 756100                    STQ     10,,PR4

     2269    13760    2           ARS = ARS - XUG.POFF ;

  13760  3 000411   100000 236100                    LDQ     0,,PR1
         3 000412   000036 136100                    SBLQ    30,,PR0
         3 000413   100000 756100                    STQ     0,,PR1

     2270    13761    2       END ; /* Then Do */

     2271    13762    1       VBASE(XUG.LAST) = VBASE(CMDBUF) ;

  13762  3 000414   200004 470500                    LDP0    @CMDBUF,,AUTO
         3 000415   000001 236100                    LDQ     1,,PR0
         3 000416   200007 471500                    LDP1    XUG$,,AUTO
         3 000417   100005 756100                    STQ     5,,PR1

     2272    13763    1       IF ARS = 0

  13763  3 000420   200005 473500                    LDP3    @ARS,,AUTO
         3 000421   300000 235100                    LDA     0,,PR3
         3 000422   000440 601000 3                  TNZ     s:13771

     2273    13764    1       THEN
     2274    13765    2       DO ;

     2275    13766    2           VBOUND(XUG.LAST)=ARS ;

  13766  3 000423   300000 236100                    LDQ     0,,PR3
         3 000424   000020 736000                    QLS     16
         3 000425   100004 676100                    ERQ     4,,PR1
         3 000426   000034 376000 xsym               ANQ     B_VECTNIL+28
         3 000427   100004 656100                    ERSQ    4,,PR1

PL6.E3A0      #004=XUG$READCMD_COMMON File=XUG$COMMON.:E05TSI                    WED 07/30/97 09:21 Page:395
     2276    13767    2           CSIZE = 1 ;

  13767  3 000430   000001 235007                    LDA     1,DL
         3 000431   200115 755100                    STA     CSIZE,,AUTO

     2277    13768    2           VBASE(XUG.LAST) -> VCHARBASE = ' ' ;

  13768  3 000432   100005 474500                    LDP4    5,,PR1
         3 000433   000000 620005                    EAX0    0,AL
         3 000434   040140 100400                    MLR     fill='040'O
         3 000435   000035 000001 xsym               ADSC9   B_VECTNIL+29             cn=0,n=1
         3 000436   400000 000010                    ADSC9   0,,PR4                   cn=0,n=*X0

     2278    13769    2       END ; /* Then Do */

  13769  3 000437   000446 710000 3                  TRA     s:13772

     2279    13770    1       ELSE
     2280    13771    1           VBOUND(XUG.LAST)=ARS-1;

  13771  3 000440   300000 236100                    LDQ     0,,PR3
         3 000441   000001 136007                    SBLQ    1,DL
         3 000442   000020 736000                    QLS     16
         3 000443   100004 676100                    ERQ     4,,PR1
         3 000444   000034 376000 xsym               ANQ     B_VECTNIL+28
         3 000445   100004 656100                    ERSQ    4,,PR1

     2281    13772    1       IF ARS + 1 > VBOUND(CMDBUF)            /* leave 1 extra space for a blank */

  13772  3 000446   000000 236100                    LDQ     0,,PR0
         3 000447   000020 772000                    QRL     16
         3 000450   300000 116100                    CMPQ    0,,PR3
         3 000451   000456 605400 3                  TPNZ    s:13776

     2282    13773    2       THEN DO;

     2283    13774    2           CALL XUG$MOREMEM(GETCMD) ALTRET(READ_ALT) ;
PL6.E3A0      #004=XUG$READCMD_COMMON File=XUG$COMMON.:E05TSI                    WED 07/30/97 09:21 Page:396

  13774  3 000452   200003 630500                    EPPR0   @GETCMD,,AUTO
         3 000453   000017 631400 xsym               EPPR1   B_VECTNIL+15
         3 000454   000000 701000 xent               TSX1    XUG$MOREMEM
         3 000455   000607 702000 3                  TSX2    READ_ALT

     2284    13775    2       END;

     2285    13776    1       BUFFER = SUBSTR (XUG.BUF , OFFSET , ARS);

  13776  3 000456   200005 470500                    LDP0    @ARS,,AUTO
         3 000457   000000 720100                    LXL0    0,,PR0
         3 000460   200256 740100                    STX0    OUTPUT_WIDTH+2,,AUTO
         3 000461   200007 471500                    LDP1    XUG$,,AUTO
         3 000462   200054 235100                    LDA     OFFSET,,AUTO
         3 000463   200006 473500                    LDP3    CMDBUF$,,AUTO
         3 000464   200256 221100                    LDX1    OUTPUT_WIDTH+2,,AUTO
         3 000465   040140 100545                    MLR     fill='040'O
         3 000466   100300 000010                    ADSC9   192,A,PR1                cn=0,n=*X0
         3 000467   300000 000011                    ADSC9   0,,PR3                   cn=0,n=*X1

     2286    13777    1       CALL MOVE_CMD;

  13777  3 000470   000751 701000 3                  TSX1    MOVE_CMD
         3 000471   000000 011000                    NOP     0

     2287    13778    1       IF XUG.REQ_PROMPT AND NOT GETCMD.RCVD_PROMPT#

  13778  3 000472   200007 470500                    LDP0    XUG$,,AUTO
         3 000473   000071 430100                    FSZN    57,,PR0
         3 000474   000504 605000 3                  TPL     s:13788
         3 000475   200003 471500                    LDP1    @GETCMD,,AUTO
         3 000476   100006 236100                    LDQ     6,,PR1
         3 000477   020000 316003                    CANQ    8192,DU
         3 000500   000504 601000 3                  TNZ     s:13788

     2288    13779    1       THEN
PL6.E3A0      #004=XUG$READCMD_COMMON File=XUG$COMMON.:E05TSI                    WED 07/30/97 09:21 Page:397
     2289    13780    2       DO ;

     2290    13781    2           GETCMD.ERR# = XUG#NO_PROMPT;

  13781  3 000501   000172 236000 0                  LDQ     XUG#NO_PROMPT
         3 000502   100001 756100                    STQ     1,,PR1

     2291    13782    2           GOTO READ_ALT ;

  13782  3 000503   000607 710000 3                  TRA     READ_ALT

     2292    13783    2       END ;                        /* Then Do */
     2293    13784        /*E*  ERROR:  XUG-E$XUG#NO_PROMPT
     2294    13785              MESSAGE0: No prompt received.
     2295    13786              MESSAGE1: No prompt received when one was required.
     2296    13787        */
     2297    13788    1       IF READR_EXISTS AND GETCMD.TREAD#

  13788  3 000504   200114 234100                    SZN     READR_EXISTS,,AUTO
         3 000505   000513 605000 3                  TPL     s:13791
         3 000506   200003 471500                    LDP1    @GETCMD,,AUTO
         3 000507   100006 236100                    LDQ     6,,PR1
         3 000510   200000 316003                    CANQ    65536,DU
         3 000511   000513 600000 3                  TZE     s:13791

     2298    13789    1       THEN
     2299    13790    1           RETURN ;

  13790  3 000512   000000 702200 xent               TSX2  ! X66_ARET

     2300    13791    1       CALL XUG$OPENOUT_INTERNAL (GETCMD, GETCMD.OUTDCB#);

  13791  3 000513   200003 236100                    LDQ     @GETCMD,,AUTO
         3 000514   000013 036003                    ADLQ    11,DU
         3 000515   200003 235100                    LDA     @GETCMD,,AUTO
         3 000516   200256 757100                    STAQ    OUTPUT_WIDTH+2,,AUTO
         3 000517   200256 630500                    EPPR0   OUTPUT_WIDTH+2,,AUTO
PL6.E3A0      #004=XUG$READCMD_COMMON File=XUG$COMMON.:E05TSI                    WED 07/30/97 09:21 Page:398
         3 000520   000020 631400 xsym               EPPR1   B_VECTNIL+16
         3 000521   000000 701000 xent               TSX1    XUG$OPENOUT_INTERNAL
         3 000522   000000 011000                    NOP     0

     2301    13792    1       IF (GETCMD.TREAD# AND DCBADDR(GETCMD.OUTDCB#)->F$DCB.DDEV.UCOUT#)

  13792  3 000523   200003 470500                    LDP0    @GETCMD,,AUTO
         3 000524   000006 236100                    LDQ     6,,PR0
         3 000525   200000 316003                    CANQ    65536,DU
         3 000526   000536 600000 3                  TZE     s:13792+11
         3 000527   000000 471400 4                  LDP1    0
         3 000530   100000 473500                    LDP3    0,,PR1
         3 000531   000013 720100                    LXL0    11,,PR0
         3 000532   300000 474510                    LDP4    0,X0,PR3
         3 000533   400004 236100                    LDQ     4,,PR4
         3 000534   020000 316007                    CANQ    8192,DL
         3 000535   000560 601000 3                  TNZ     s:13797
         3 000536   000000 471400 4                  LDP1    0
         3 000537   100000 473500                    LDP3    0,,PR1
         3 000540   000012 720100                    LXL0    10,,PR0
         3 000541   300000 474510                    LDP4    0,X0,PR3
         3 000542   400003 236100                    LDQ     3,,PR4
         3 000543   020000 316003                    CANQ    8192,DU
         3 000544   000560 601000 3                  TNZ     s:13797
         3 000545   000007 236100                    LDQ     7,,PR0
         3 000546   000600 376003                    ANQ     384,DU
         3 000547   000400 116003                    CMPQ    256,DU
         3 000550   000560 600000 3                  TZE     s:13797
         3 000551   000007 236100                    LDQ     7,,PR0
         3 000552   000600 316003                    CANQ    384,DU
         3 000553   000561 601000 3                  TNZ     s:13798
         3 000554   000000 475400 xsym               LDP5    B$JIT$
         3 000555   500143 236100                    LDQ     99,,PR5
         3 000556   000012 376000 xsym               ANQ     B_VECTNIL+10
         3 000557   000561 601000 3                  TNZ     s:13798

     2302    13793    1         OR DCBADDR(GETCMD.INDCB#)->F$DCB.DVBYTE.TRANS#
PL6.E3A0      #004=XUG$READCMD_COMMON File=XUG$COMMON.:E05TSI                    WED 07/30/97 09:21 Page:399
     2303    13794    1         OR (GETCMD.ECHO = %NEVER_ECHO#)
     2304    13795    1         OR (GETCMD.ECHO = %HONOR_FLAG# AND NOT (B$JIT.CPFLAGS1 & %CP_ECHO#))
     2305    13796    1       THEN
     2306    13797    1           RETURN;

  13797  3 000560   000000 702200 xent               TSX2  ! X66_ARET

     2307    13798    1       IF GETCMD.PASS ~= %LEAVE_PASS#

  13798  3 000561   000007 236100                    LDQ     7,,PR0
         3 000562   000140 316003                    CANQ    96,DU
         3 000563   000570 600000 3                  TZE     s:13804

     2308    13799    1       THEN
     2309    13800    2       DO ;

     2310    13801    2           XUG.NEED_ECHO = '1'B ;

  13801  3 000564   200007 475500                    LDP5    XUG$,,AUTO
         3 000565   000020 236003                    LDQ     16,DU
         3 000566   500071 256100                    ORSQ    57,,PR5

     2311    13802    2           RETURN ;

  13802  3 000567   000000 702200 xent               TSX2  ! X66_ARET

     2312    13803    2       END ;                        /* Then Do */
     2313    13804    1       FPT_WRITE.V.DCB#=GETCMD.OUTDCB#;

  13804  3 000570   000013 721100                    LXL1    11,,PR0
         3 000571   200146 741100                    STX1    FPT_WRITE+8,,AUTO

     2314    13805    1       CALL WRITE_CMD_WRAPPED;

  13805  3 000572   001070 701000 3                  TSX1    WRITE_CMD_WRAPPED
         3 000573   000000 011000                    NOP     0

PL6.E3A0      #004=XUG$READCMD_COMMON File=XUG$COMMON.:E05TSI                    WED 07/30/97 09:21 Page:400
     2315    13806    1       XUG.NDCBS=1;

  13806  3 000574   000001 235007                    LDA     1,DL
         3 000575   200007 470500                    LDP0    XUG$,,AUTO
         3 000576   000112 755100                    STA     74,,PR0

     2316    13807    1       XUG.DCBS.ERRPTR_CPOS(1) = -1;

  13807  3 000577   777777 220003                    LDX0    -1,DU
         3 000600   000115 440100                    SXL0    77,,PR0

     2317    13808    1       RETURN;

  13808  3 000601   000000 702200 xent               TSX2  ! X66_ARET

  13807  3 000602                       BAD_READ     null
     2318    13809        /**/
     2319    13810    1   BAD_READ:;
     2320    13811    1       ERR=B$TCB$->B$TCB.ALT$->B$ALT.ERR;

  13811  3 000602   000000 470400 xsym               LDP0    B$TCB$
         3 000603   000000 471500                    LDP1    0,,PR0
         3 000604   100102 236100                    LDQ     66,,PR1
         3 000605   200005 473500                    LDP3    @ARS,,AUTO
         3 000606   300000 756100                    STQ     0,,PR3

     2321    13812    1   READ_ALT:
     2322    13813    1       ALTRETURN;

  13813  3 000607   000000 702200 xent  READ_ALT     TSX2  ! X66_AALT

     2323    13814        %EJECT;
PL6.E3A0      #004=XUG$READCMD_COMMON File=XUG$COMMON.:E05TSI                    WED 07/30/97 09:21 Page:401
     2324    13815    1   XUG$CORRES_COMMON: ENTRY(GETCMD,CMDBUF) ALTRET;

  13815  3 000610   000000 700200 xent  XUG$CORRES_* TSX0  ! X66_AUTO_3
         3 000611   000266 000003                    ZERO    182,3

     2325    13816    1       DCB$ = ADDR(GETCMD) ;

  13816  3 000612   200003 236100                    LDQ     @GETCMD,,AUTO
         3 000613   200056 756100                    STQ     DCB$,,AUTO

     2326    13817    1       CALL OPEN (DCB$NUM);

  13817  3 000614   200251 756100                    STQ     FPT_OPEN+59,,AUTO
         3 000615   001202 701000 3                  TSX1    OPEN
         3 000616   000000 011000                    NOP     0

     2327    13818    1       CALL OPEN (CHARPOS.N);

  13818  3 000617   200004 236100                    LDQ     @CMDBUF,,AUTO
         3 000620   200251 756100                    STQ     FPT_OPEN+59,,AUTO
         3 000621   001202 701000 3                  TSX1    OPEN
         3 000622   000000 011000                    NOP     0

     2328    13819    1       FPT_CORRES = FPT_CORRES_C;

  13819  3 000623   000100 100400                    MLR     fill='000'O
         3 000624   000074 000020 0                  ADSC9   FPT_CORRES_C             cn=0,n=16
         3 000625   200152 000020                    ADSC9   FPT_CORRES,,AUTO         cn=0,n=16

     2329    13820    1       FPT_CORRES.V_ = VECTOR (FPT_CORRES.V);

  13820  3 000626   000011 235000 4                  LDA     9
         3 000627   200256 452500                    STP2    OUTPUT_WIDTH+2,,AUTO
         3 000630   200256 236100                    LDQ     OUTPUT_WIDTH+2,,AUTO
         3 000631   000154 036003                    ADLQ    108,DU
         3 000632   200152 757100                    STAQ    FPT_CORRES,,AUTO

PL6.E3A0      #004=XUG$READCMD_COMMON File=XUG$COMMON.:E05TSI                    WED 07/30/97 09:21 Page:402
     2330    13821    1       FPT_CORRES.V.DCB1#=DCB$NUM ;

  13821  3 000633   200056 470500                    LDP0    DCB$,,AUTO
         3 000634   000000 720100                    LXL0    0,,PR0
         3 000635   200154 740100                    STX0    FPT_CORRES+2,,AUTO

     2331    13822    1       FPT_CORRES.V.DCB2#=CHARPOS.N ;

  13822  3 000636   200004 471500                    LDP1    @CMDBUF,,AUTO
         3 000637   100000 721100                    LXL1    0,,PR1
         3 000640   200154 441100                    SXL1    FPT_CORRES+2,,AUTO

     2332    13823    1       CALL M$CORRES(FPT_CORRES) ALTRET(CORRES);

  13823  3 000641   200152 630500                    EPPR0   FPT_CORRES,,AUTO
         3 000642   460000 713400                    CLIMB   alt,+24576
         3 000643   400000 401760                    pmme    nvectors=1
         3 000644   000646 702000 3                  TSX2    CORRES

     2333    13824    1       RETURN;

  13824  3 000645   000000 702200 xent               TSX2  ! X66_ARET

     2334    13825    1   CORRES: ALTRETURN;

  13825  3 000646   000000 702200 xent  CORRES       TSX2  ! X66_AALT

     2335    13826        %EJECT;
PL6.E3A0      #004=XUG$READCMD_COMMON File=XUG$COMMON.:E05TSI                    WED 07/30/97 09:21 Page:403
     2336    13827    1   XUG$ECHOLAST_COMMON: ENTRY(GETCMD) ALTRET;

  13827  3 000647   000000 700200 xent  XUG$ECHOLAS* TSX0  ! X66_AUTO_3
         3 000650   000266 000003                    ZERO    182,3

     2337    13828    1       XUG$ = GETCMD.WORK$ ;

  13828  3 000651   200003 470500                    LDP0    @GETCMD,,AUTO
         3 000652   000004 236100                    LDQ     4,,PR0
         3 000653   200007 756100                    STQ     XUG$,,AUTO

     2338    13829    1       CALL MOVE_CMD;

  13829  3 000654   000751 701000 3                  TSX1    MOVE_CMD
         3 000655   000000 011000                    NOP     0

     2339    13830    1       IF GETCMD.DCB_PARAM# = DCBNUM( NIL )

  13830  3 000656   200003 470500                    LDP0    @GETCMD,,AUTO
         3 000657   000014 235100                    LDA     12,,PR0
         3 000660   000663 601000 3                  TNZ     s:13833

     2340    13831    1       THEN
     2341    13832    1           GETCMD.DCB_PARAM# = GETCMD.OUTDCB# ;

  13832  3 000661   000013 235100                    LDA     11,,PR0
         3 000662   000014 755100                    STA     12,,PR0

     2342    13833    1       IF GETCMD.DCB_PARAM# = DCBNUM(NIL)

  13833  3 000663   000703 601000 3                  TNZ     s:13840

     2343    13834    1       THEN
     2344    13835    1           CALL XUG$GETDCB_COMMON(M$LO,GETCMD.DCB_PARAM#) WHENALTRETURN

  13835  3 000664   200003 236100                    LDQ     @GETCMD,,AUTO
         3 000665   000014 036003                    ADLQ    12,DU
PL6.E3A0      #004=XUG$READCMD_COMMON File=XUG$COMMON.:E05TSI                    WED 07/30/97 09:21 Page:404
         3 000666   000012 235000 4                  LDA     10
         3 000667   200256 757100                    STAQ    OUTPUT_WIDTH+2,,AUTO
         3 000670   200256 630500                    EPPR0   OUTPUT_WIDTH+2,,AUTO
         3 000671   000020 631400 xsym               EPPR1   B_VECTNIL+16
         3 000672   000000 701000 xent               TSX1    XUG$GETDCB_COMMON
         3 000673   000675 702000 3                  TSX2    s:13837
         3 000674   000703 710000 3                  TRA     s:13840

     2345    13836    2           DO ;

     2346    13837    2               GETCMD.ERR# = B$TCB$ -> B$TCB.ALT$ -> B$ALT.ERR ;

  13837  3 000675   000000 470400 xsym               LDP0    B$TCB$
         3 000676   000000 471500                    LDP1    0,,PR0
         3 000677   100102 236100                    LDQ     66,,PR1
         3 000700   200003 473500                    LDP3    @GETCMD,,AUTO
         3 000701   300001 756100                    STQ     1,,PR3

     2347    13838    2               GOTO CORRES ;

  13838  3 000702   000646 710000 3                  TRA     CORRES

     2348    13839    2           END ;                     /* Whenaltreturn Do */
     2349    13840    1       CALL XUG$OPENOUT_INTERNAL (GETCMD, GETCMD.DCB_PARAM#);

  13840  3 000703   200003 236100                    LDQ     @GETCMD,,AUTO
         3 000704   000014 036003                    ADLQ    12,DU
         3 000705   200003 235100                    LDA     @GETCMD,,AUTO
         3 000706   200256 757100                    STAQ    OUTPUT_WIDTH+2,,AUTO
         3 000707   200256 630500                    EPPR0   OUTPUT_WIDTH+2,,AUTO
         3 000710   000020 631400 xsym               EPPR1   B_VECTNIL+16
         3 000711   000000 701000 xent               TSX1    XUG$OPENOUT_INTERNAL
         3 000712   000000 011000                    NOP     0

     2350    13841    1       FPT_WRITE.V.DCB#=GETCMD.DCB_PARAM# ;

  13841  3 000713   200003 470500                    LDP0    @GETCMD,,AUTO
PL6.E3A0      #004=XUG$READCMD_COMMON File=XUG$COMMON.:E05TSI                    WED 07/30/97 09:21 Page:405
         3 000714   000014 720100                    LXL0    12,,PR0
         3 000715   200146 740100                    STX0    FPT_WRITE+8,,AUTO

     2351    13842    1       CALL WRITE_CMD_WRAPPED;

  13842  3 000716   001070 701000 3                  TSX1    WRITE_CMD_WRAPPED
         3 000717   000000 011000                    NOP     0

     2352    13843    1       RETURN;

  13843  3 000720   000000 702200 xent               TSX2  ! X66_ARET

     2353    13844        %EJECT;
PL6.E3A0      #004=XUG$READCMD_COMMON File=XUG$COMMON.:E05TSI                    WED 07/30/97 09:21 Page:406
     2354    13845    1   XUG$SETLAST: ENTRY(GETCMD) ALTRET;

  13845  3 000721   000000 700200 xent  XUG$SETLAST  TSX0  ! X66_AUTO_3
         3 000722   000266 000003                    ZERO    182,3

     2355    13846    1       IF GETCMD.WORK$ = ADDR(NIL)

  13846  3 000723   200003 470500                    LDP0    @GETCMD,,AUTO
         3 000724   000004 236100                    LDQ     4,,PR0
         3 000725   000001 116000 xsym               CMPQ    B_VECTNIL+1
         3 000726   000742 601000 3                  TNZ     s:13852

     2356    13847    1       THEN
     2357    13848    2       DO ;

     2358    13849    2           XUG_INIT_A = XUG_INIT_C ;

  13849  3 000727   000100 100400                    MLR     fill='000'O
         3 000730   000000 000220 xsym               ADSC9   XUG_INIT_C               cn=0,n=144
         3 000731   200010 000220                    ADSC9   XUG_INIT_A,,AUTO         cn=0,n=144

     2359    13850    2           CALL XUG$INIT_COMMON (GETCMD,XUG_INIT_A) ALTRET (BAD_READ);

  13850  3 000732   200010 631500                    EPPR1   XUG_INIT_A,,AUTO
         3 000733   200257 451500                    STP1    OUTPUT_WIDTH+3,,AUTO
         3 000734   200003 236100                    LDQ     @GETCMD,,AUTO
         3 000735   200256 756100                    STQ     OUTPUT_WIDTH+2,,AUTO
         3 000736   200256 630500                    EPPR0   OUTPUT_WIDTH+2,,AUTO
         3 000737   000020 631400 xsym               EPPR1   B_VECTNIL+16
         3 000740   000000 701000 xent               TSX1    XUG$INIT_COMMON
         3 000741   000602 702000 3                  TSX2    BAD_READ

     2360    13851    2       END ; /* Then Do */

     2361    13852    1       XUG$ = GETCMD.WORK$ ;

  13852  3 000742   200003 470500                    LDP0    @GETCMD,,AUTO
PL6.E3A0      #004=XUG$READCMD_COMMON File=XUG$COMMON.:E05TSI                    WED 07/30/97 09:21 Page:407
         3 000743   000004 236100                    LDQ     4,,PR0
         3 000744   200007 756100                    STQ     XUG$,,AUTO

     2362    13853    1       XUG.LAST=XUG.READVEC ;

  13853  3 000745   200007 471500                    LDP1    XUG$,,AUTO
         3 000746   100002 237100                    LDAQ    2,,PR1
         3 000747   100004 757100                    STAQ    4,,PR1

     2363    13854    1       RETURN;

  13854  3 000750   000000 702200 xent               TSX2  ! X66_ARET

     2364    13855        %EJECT;
PL6.E3A0      #004=XUG$READCMD_COMMON File=XUG$COMMON.:E05TSI                    WED 07/30/97 09:21 Page:408
     2365    13856    1   MOVE_CMD: PROC;

  13856  3 000751   200250 741300       MOVE_CMD     STX1  ! FPT_OPEN+58,,AUTO

     2366    13857    2       FPT_WRITE = FPT_WRITE_C;

  13857  3 000752   000100 100400                    MLR     fill='000'O
         3 000753   000060 000060 0                  ADSC9   FPT_WRITE_C              cn=0,n=48
         3 000754   200136 000060                    ADSC9   FPT_WRITE,,AUTO          cn=0,n=48

     2367    13858    2       FPT_WRITE.V_ = VECTOR (FPT_WRITE.V);

  13858  3 000755   000013 235000 4                  LDA     11
         3 000756   200256 452500                    STP2    OUTPUT_WIDTH+2,,AUTO
         3 000757   200256 236100                    LDQ     OUTPUT_WIDTH+2,,AUTO
         3 000760   000146 036003                    ADLQ    102,DU
         3 000761   200136 757100                    STAQ    FPT_WRITE,,AUTO

     2368    13859    2       IF GETCMD.RPROMPT_~=VECTOR(NIL) AND

  13859  3 000762   200003 470500                    LDP0    @GETCMD,,AUTO
         3 000763   000000 106500                    CMPC    fill='000'O
         3 000764   000027 000010                    ADSC9   23,,PR0                  cn=0,n=8
         3 000765   000014 000010 4                  ADSC9   12                       cn=0,n=8
         3 000766   001014 600000 3                  TZE     s:13868
         3 000767   000000 106500                    CMPC    fill='000'O
         3 000770   000027 000010                    ADSC9   23,,PR0                  cn=0,n=8
         3 000771   000016 000010 4                  ADSC9   14                       cn=0,n=8
         3 000772   001014 600000 3                  TZE     s:13868

     2369    13860    2         GETCMD.RPROMPT_~=VECTOR(ERASE)
     2370    13861    3       THEN DO;

     2371    13862    3           POFF = VBOUND(GETCMD.RPROMPT_)+1 ;

  13862  3 000773   000027 236100                    LDQ     23,,PR0
         3 000774   000020 772000                    QRL     16
PL6.E3A0      #004=XUG$READCMD_COMMON File=XUG$COMMON.:E05TSI                    WED 07/30/97 09:21 Page:409
         3 000775   000001 036007                    ADLQ    1,DL
         3 000776   200063 756100                    STQ     POFF,,AUTO

     2372    13863    3           CSIZE = POFF ;

  13863  3 000777   200115 756100                    STQ     CSIZE,,AUTO

     2373    13864    3           PROMPT_BUF = VBASE(GETCMD.RPROMPT_) -> VCHARBASE ;

  13864  3 001000   000030 471500                    LDP1    24,,PR0
         3 001001   000000 620006                    EAX0    0,QL
         3 001002   040100 100540                    MLR     fill='040'O
         3 001003   100000 000010                    ADSC9   0,,PR1                   cn=0,n=*X0
         3 001004   200064 000136                    ADSC9   PROMPT_BUF,,AUTO         cn=0,n=94

     2374    13865    3           FPT_WRITE.V.DVBYTE.VFC# = XUG.PROMPT_VFC ;

  13865  3 001005   200007 473500                    LDP3    XUG$,,AUTO
         3 001006   300071 236100                    LDQ     57,,PR3
         3 001007   000015 736000                    QLS     13
         3 001010   200151 676100                    ERQ     FPT_WRITE+11,,AUTO
         3 001011   100000 376003                    ANQ     32768,DU
         3 001012   200151 656100                    ERSQ    FPT_WRITE+11,,AUTO

     2375    13866    3       END ;

  13866  3 001013   001026 710000 3                  TRA     s:13871

     2376    13867    3       ELSE DO;

     2377    13868    3           POFF = XUG.POFF;

  13868  3 001014   200007 471500                    LDP1    XUG$,,AUTO
         3 001015   100036 235100                    LDA     30,,PR1
         3 001016   200063 755100                    STA     POFF,,AUTO

     2378    13869    3           PROMPT_BUF = SUBSTR(XUG.PROMPT,BITBIN(XUG.PROMPT_VFC),POFF);
PL6.E3A0      #004=XUG$READCMD_COMMON File=XUG$COMMON.:E05TSI                    WED 07/30/97 09:21 Page:410

  13869  3 001017   100071 236100                    LDQ     57,,PR1
         3 001020   000024 772000                    QRL     20
         3 001021   000001 376007                    ANQ     1,DL
         3 001022   000000 620005                    EAX0    0,AL
         3 001023   040100 100546                    MLR     fill='040'O
         3 001024   100037 000010                    ADSC9   31,Q,PR1                 cn=0,n=*X0
         3 001025   200064 000136                    ADSC9   PROMPT_BUF,,AUTO         cn=0,n=94

     2379    13870    3       END;

     2380    13871    2       SUBSTR (XUG.BUF , 0 , POFF) = PROMPT_BUF;

  13871  3 001026   200007 471500                    LDP1    XUG$,,AUTO
         3 001027   200063 720100                    LXL0    POFF,,AUTO
         3 001030   040140 100500                    MLR     fill='040'O
         3 001031   200064 000136                    ADSC9   PROMPT_BUF,,AUTO         cn=0,n=94
         3 001032   100300 000010                    ADSC9   192,,PR1                 cn=0,n=*X0

     2381    13872    2       SUBSTR (XUG.BUF , POFF , VBOUND(XUG.LAST) + 1) = VBASE(XUG.LAST) -> CHARBASE;

  13872  3 001033   100004 236100                    LDQ     4,,PR1
         3 001034   000020 772000                    QRL     16
         3 001035   000001 622006                    EAX2    1,QL
         3 001036   100005 473500                    LDP3    5,,PR1
         3 001037   200063 235100                    LDA     POFF,,AUTO
         3 001040   040145 100500                    MLR     fill='040'O
         3 001041   300000 000454                    ADSC9   0,,PR3                   cn=0,n=300
         3 001042   100300 000012                    ADSC9   192,A,PR1                cn=0,n=*X2

     2382    13873    2       FPT_WRITE = FPT_WRITE_C;

  13873  3 001043   000100 100400                    MLR     fill='000'O
         3 001044   000060 000060 0                  ADSC9   FPT_WRITE_C              cn=0,n=48
         3 001045   200136 000060                    ADSC9   FPT_WRITE,,AUTO          cn=0,n=48

     2383    13874    2       FPT_WRITE.V_ = VECTOR (FPT_WRITE.V);
PL6.E3A0      #004=XUG$READCMD_COMMON File=XUG$COMMON.:E05TSI                    WED 07/30/97 09:21 Page:411

  13874  3 001046   000013 235000 4                  LDA     11
         3 001047   200256 452500                    STP2    OUTPUT_WIDTH+2,,AUTO
         3 001050   200256 236100                    LDQ     OUTPUT_WIDTH+2,,AUTO
         3 001051   000146 036003                    ADLQ    102,DU
         3 001052   200136 757100                    STAQ    FPT_WRITE,,AUTO

     2384    13875    2       FPT_WRITE.BUF_=VECTOR(XUG.BUF);

  13875  3 001053   000004 235000 4                  LDA     4
         3 001054   200007 236100                    LDQ     XUG$,,AUTO
         3 001055   000300 036003                    ADLQ    192,DU
         3 001056   200142 757100                    STAQ    FPT_WRITE+4,,AUTO

     2385    13876    2       FPT_WRITE.BUF_.BOUND=POFF+VBOUND(XUG.LAST);

  13876  3 001057   100004 236100                    LDQ     4,,PR1
         3 001060   000020 772000                    QRL     16
         3 001061   200063 036100                    ADLQ    POFF,,AUTO
         3 001062   000020 736000                    QLS     16
         3 001063   200142 676100                    ERQ     FPT_WRITE+4,,AUTO
         3 001064   000034 376000 xsym               ANQ     B_VECTNIL+28
         3 001065   200142 656100                    ERSQ    FPT_WRITE+4,,AUTO

     2386    13877    2       RETURN;

  13877  3 001066   200250 221300                    LDX1  ! FPT_OPEN+58,,AUTO
         3 001067   000001 702211                    TSX2  ! 1,X1

     2387    13878    2   END MOVE_CMD;
     2388    13879        %EJECT;
PL6.E3A0      #004=XUG$READCMD_COMMON File=XUG$COMMON.:E05TSI                    WED 07/30/97 09:21 Page:412
     2389    13880    1   WRITE_CMD_WRAPPED: PROC;

  13880  3 001070   200250 741300       WRITE_CMD_W* STX1  ! FPT_OPEN+58,,AUTO

     2390    13881    2   DCL CHUNK_SIZE SBIN;
     2391    13882    2   DCL OFFSET SBIN;
     2392    13883    2   DCL OUTPUT_COUNT SBIN;
     2393    13884    2   DCL OUTPUT_STRING CHAR (OUTPUT_COUNT) BASED (FPT_WRITE.BUF_.BUF$);
     2394    13885    2   DCL OUTPUT_WIDTH SBIN;
     2395    13886    2       OUTPUT_WIDTH = DCBADDR(FPT_WRITE.V.DCB#) -> F$DCB.WIDTH#;

  13886  3 001071   000000 470400 4                  LDP0    0
         3 001072   000000 471500                    LDP1    0,,PR0
         3 001073   200146 220100                    LDX0    FPT_WRITE+8,,AUTO
         3 001074   100000 473510                    LDP3    0,X0,PR1
         3 001075   300004 236100                    LDQ     4,,PR3
         3 001076   000777 376007                    ANQ     511,DL
         3 001077   200254 756100                    STQ     OUTPUT_WIDTH,,AUTO

     2396    13887    2       IF OUTPUT_WIDTH = 0

  13887  3 001100   001103 601000 3                  TNZ     s:13890

     2397    13888    2       THEN
     2398    13889    2           OUTPUT_WIDTH = 511;

  13889  3 001101   000777 235007                    LDA     511,DL
         3 001102   200254 755100                    STA     OUTPUT_WIDTH,,AUTO

     2399    13890    2       OUTPUT_COUNT = FPT_WRITE.BUF_.BOUND + 1;

  13890  3 001103   200142 236100                    LDQ     FPT_WRITE+4,,AUTO
         3 001104   000020 772000                    QRL     16
         3 001105   000001 036007                    ADLQ    1,DL
         3 001106   200253 756100                    STQ     OUTPUT_COUNT,,AUTO

     2400    13891    3       DO WHILE (OUTPUT_COUNT > 1);
PL6.E3A0      #004=XUG$READCMD_COMMON File=XUG$COMMON.:E05TSI                    WED 07/30/97 09:21 Page:413

  13891  3 001107   000001 116007                    CMPQ    1,DL
         3 001110   001124 604400 3                  TMOZ    s:13897

     2401    13892    3           IF SUBSTR (OUTPUT_STRING, OUTPUT_COUNT - 1, 1) ~= ' '

  13892  3 001111   200143 470500                    LDP0    FPT_WRITE+5,,AUTO
         3 001112   200253 235100                    LDA     OUTPUT_COUNT,,AUTO
         3 001113   040000 106505                    CMPC    fill='040'O
         3 001114   077777 600001                    ADSC9   -1,A,PR0                 cn=3,n=1
         3 001115   000035 000001 xsym               ADSC9   B_VECTNIL+29             cn=0,n=1
         3 001116   001124 601000 3                  TNZ     s:13897

     2402    13893    3           THEN
     2403    13894    3               EXIT;
     2404    13895    3           OUTPUT_COUNT = OUTPUT_COUNT - 1;

  13895  3 001117   000001 336007                    LCQ     1,DL
         3 001120   200253 056100                    ASQ     OUTPUT_COUNT,,AUTO

     2405    13896    3       END;

  13896  3 001121   200253 235100                    LDA     OUTPUT_COUNT,,AUTO
         3 001122   000001 115007                    CMPA    1,DL
         3 001123   001111 605400 3                  TPNZ    s:13892

     2406    13897    2       OFFSET = 0;

  13897  3 001124   200252 450100                    STZ     OFFSET,,AUTO

     2407    13898    3       DO WHILE (OFFSET < OUTPUT_COUNT);

  13898  3 001125   200252 236100                    LDQ     OFFSET,,AUTO
         3 001126   200253 116100                    CMPQ    OUTPUT_COUNT,,AUTO
         3 001127   001200 605000 3                  TPL     s:13912

     2408    13899    3           CHUNK_SIZE = MINIMUM(OUTPUT_COUNT - OFFSET, OUTPUT_WIDTH);
PL6.E3A0      #004=XUG$READCMD_COMMON File=XUG$COMMON.:E05TSI                    WED 07/30/97 09:21 Page:414

  13899  3 001130   200253 236100                    LDQ     OUTPUT_COUNT,,AUTO
         3 001131   200252 136100                    SBLQ    OFFSET,,AUTO
         3 001132   200254 116100                    CMPQ    OUTPUT_WIDTH,,AUTO
         3 001133   001135 604400 3                  TMOZ    s:13899+5
         3 001134   200254 236100                    LDQ     OUTPUT_WIDTH,,AUTO
         3 001135   200251 756100                    STQ     CHUNK_SIZE,,AUTO

     2409    13900    3           IF XUG.PROMPT_VFC AND OFFSET > 0

  13900  3 001136   200007 470500                    LDP0    XUG$,,AUTO
         3 001137   000071 236100                    LDQ     57,,PR0
         3 001140   000004 316003                    CANQ    4,DU
         3 001141   001153 600000 3                  TZE     s:13906
         3 001142   200252 235100                    LDA     OFFSET,,AUTO
         3 001143   001153 604400 3                  TMOZ    s:13906

     2410    13901    4           THEN DO;

     2411    13902    4               CHUNK_SIZE = CHUNK_SIZE + 1;

  13902  3 001144   200251 054100                    AOS     CHUNK_SIZE,,AUTO

     2412    13903    4               OFFSET = OFFSET - 1;

  13903  3 001145   000001 336007                    LCQ     1,DL
         3 001146   200252 056100                    ASQ     OFFSET,,AUTO

     2413    13904    4               SUBSTR( XUG.BUF, OFFSET, 1 ) = SUBSTR( XUG.BUF, 0, 1 );

  13904  3 001147   200252 235100                    LDA     OFFSET,,AUTO
         3 001150   040105 100500                    MLR     fill='040'O
         3 001151   000300 000001                    ADSC9   192,,PR0                 cn=0,n=1
         3 001152   000300 000001                    ADSC9   192,A,PR0                cn=0,n=1

     2414    13905    4           END;

PL6.E3A0      #004=XUG$READCMD_COMMON File=XUG$COMMON.:E05TSI                    WED 07/30/97 09:21 Page:415
     2415    13906    3           FPT_WRITE.BUF_.BOUND = CHUNK_SIZE - 1;

  13906  3 001153   200251 236100                    LDQ     CHUNK_SIZE,,AUTO
         3 001154   000001 136007                    SBLQ    1,DL
         3 001155   000020 736000                    QLS     16
         3 001156   200142 676100                    ERQ     FPT_WRITE+4,,AUTO
         3 001157   000034 376000 xsym               ANQ     B_VECTNIL+28
         3 001160   200142 656100                    ERSQ    FPT_WRITE+4,,AUTO

     2416    13907    4           CALL M$WRITE(FPT_WRITE) WHENALTRETURN DO ;

  13907  3 001161   200136 630500                    EPPR0   FPT_WRITE,,AUTO
         3 001162   440001 713400                    CLIMB   alt,write
         3 001163   401400 401760                    pmme    nvectors=4
         3 001164   001166 702000 3                  TSX2    s:13909
         3 001165   001166 710000 3                  TRA     s:13909

     2417    13908    4           END ;

     2418    13909    3           OFFSET = OFFSET + CHUNK_SIZE;

  13909  3 001166   200252 236100                    LDQ     OFFSET,,AUTO
         3 001167   200251 036100                    ADLQ    CHUNK_SIZE,,AUTO
         3 001170   200252 756100                    STQ     OFFSET,,AUTO

     2419    13910    3           FPT_WRITE.BUF_.BUF$ = PINCRC(FPT_WRITE.BUF_.BUF$, CHUNK_SIZE);

  13910  3 001171   200251 236100                    LDQ     CHUNK_SIZE,,AUTO
         3 001172   000020 736000                    QLS     16
         3 001173   200143 036100                    ADLQ    FPT_WRITE+5,,AUTO
         3 001174   200143 756100                    STQ     FPT_WRITE+5,,AUTO

     2420    13911    3       END;

  13911  3 001175   200252 236100                    LDQ     OFFSET,,AUTO
         3 001176   200253 116100                    CMPQ    OUTPUT_COUNT,,AUTO
         3 001177   001130 604000 3                  TMI     s:13899
PL6.E3A0      #004=XUG$READCMD_COMMON File=XUG$COMMON.:E05TSI                    WED 07/30/97 09:21 Page:416

     2421    13912    2       RETURN;

  13912  3 001200   200250 221300                    LDX1  ! FPT_OPEN+58,,AUTO
         3 001201   000001 702211                    TSX2  ! 1,X1

     2422    13913    2   END WRITE_CMD_WRAPPED;
     2423    13914        %EJECT;
PL6.E3A0      #004=XUG$READCMD_COMMON File=XUG$COMMON.:E05TSI                    WED 07/30/97 09:21 Page:417
     2424    13915    1   OPEN: PROC(DCBNO);

  13915  3 001202   200250 741300       OPEN         STX1  ! FPT_OPEN+58,,AUTO

     2425    13916    2   DCL DCBNO UBIN;
     2426    13917    2       IF DCBNO = DCBNUM(NIL)

  13917  3 001203   200251 470500                    LDP0    @DCBNO,,AUTO
         3 001204   000000 235100                    LDA     0,,PR0
         3 001205   001207 601000 3                  TNZ     s:13920

     2427    13918    2       THEN
     2428    13919    2           RETURN;

  13919  3 001206   000001 702211                    TSX2  ! 1,X1

     2429    13920    2       IF NOT DCBADDR(DCBNO) -> F$DCB.FCD#

  13920  3 001207   000000 471400 4                  LDP1    0
         3 001210   100000 473500                    LDP3    0,,PR1
         3 001211   000000 720100                    LXL0    0,,PR0
         3 001212   300000 474510                    LDP4    0,X0,PR3
         3 001213   400031 236100                    LDQ     25,,PR4
         3 001214   020000 316007                    CANQ    8192,DL
         3 001215   001234 601000 3                  TNZ     IGNORE_ERROR_ON_OPEN

     2430    13921    3       THEN DO;

     2431    13922    3           FPT_OPEN = FPT_OPEN_C;

  13922  3 001216   000100 100400                    MLR     fill='000'O
         3 001217   000100 000350 0                  ADSC9   FPT_OPEN_C               cn=0,n=232
         3 001220   200156 000350                    ADSC9   FPT_OPEN,,AUTO           cn=0,n=232

     2432    13923    3           FPT_OPEN.V_ = VECTOR (FPT_OPEN.V);

  13923  3 001221   000020 235000 4                  LDA     16
PL6.E3A0      #004=XUG$READCMD_COMMON File=XUG$COMMON.:E05TSI                    WED 07/30/97 09:21 Page:418
         3 001222   200256 452500                    STP2    OUTPUT_WIDTH+2,,AUTO
         3 001223   200256 236100                    LDQ     OUTPUT_WIDTH+2,,AUTO
         3 001224   000222 036003                    ADLQ    146,DU
         3 001225   200156 757100                    STAQ    FPT_OPEN,,AUTO

     2433    13924    3           FPT_OPEN.V.DCB# = DCBNO;

  13924  3 001226   000000 720100                    LXL0    0,,PR0
         3 001227   200222 740100                    STX0    FPT_OPEN+36,,AUTO

     2434    13925    3           CALL M$OPEN (FPT_OPEN) ALTRET (IGNORE_ERROR_ON_OPEN);

  13925  3 001230   200156 630500                    EPPR0   FPT_OPEN,,AUTO
         3 001231   450000 713400                    CLIMB   alt,open
         3 001232   410400 401760                    pmme    nvectors=18
         3 001233   001234 702000 3                  TSX2    IGNORE_ERROR_ON_OPEN

  13924  3 001234                       IGNORE_ERRO* null
     2435    13926    3   IGNORE_ERROR_ON_OPEN: ;
     2436    13927    3       END;

     2437    13928    2   END OPEN;

  13928  3 001234   200250 221300                    LDX1  ! FPT_OPEN+58,,AUTO
         3 001235   000001 702211                    TSX2  ! 1,X1
     2438    13929
     2439    13930    1   END XUG$READCMD_COMMON ;
     2440    13931        %EOD;

PL6.E3A0      #004=XUG$READCMD_COMMON File=XUG$COMMON.:E05TSI                    WED 07/30/97 09:21 Page:419
--  Include file information  --

   B$JIT_C.:E05TOU  is referenced.
   B$JIT.:E05TOU  cannot be made into a system file and is referenced.
   CP_6_SUBS.:E05TOU  is referenced.
   CP_6_C.:E05TOU  is referenced.
   CP_6.:E05TOU  cannot be made into a system file and is referenced.
   XT_PERR_E.:TOOLE04  is referenced.
   XT_MACRO_M.:TOOLE04  is referenced.
   XU_PERR_C.:E05TOU  is referenced.
   XU_SUBS_C.:E05TOU  is referenced.
   XUH_MACRO_C.:E05TOU  is referenced.
   XU_MACRO_C.:E05TOU  is referenced.
      No diagnostics issued in procedure XUG$READCMD_COMMON.
PL6.E3A0      #004=XUG$READCMD_COMMON File=XUG$COMMON.:E05TSI                    WED 07/30/97 09:21 Page:420

 **** Variables and constants ****

  ****  Section 000 RoData XUG$READCMD_COMMON

  ****  Scalars and arrays  ****
OctLoc.c.b A Datatyp(siz) R M Lvl/name                 OctLoc.c.b A Datatyp(siz) R M Lvl/name

    74-0-0/d STRC(144)   r     1 FPT_CORRES_C             100-0-0/d STRC(2088)  r     1 FPT_OPEN_C
    42-0-0/d STRC(504)   r     1 FPT_READ_C                60-0-0/d STRC(432)   r     1 FPT_WRITE_C
    40-0-0/c STRC(45)    r     1 M$LO                     174-0-0/w STRC        r     1 XT#CANT_ADAPT
   173-0-0/w STRC        r     1 XT#EOD                     0-0-0/w STRC(1152)  r     1 XT_PARAM_C
   172-0-0/w STRC        r     1 XUG#NO_PROMPT

  ****  Auto variables  ****

  ****  Scalars and arrays  ****
OctLoc.c.b A Datatyp(siz) R M Lvl/name                 OctLoc.c.b A Datatyp(siz) R M Lvl/name

     5-0-0/w PTR         r     1 @ARS                       4-0-0/w PTR         r     1 @CMDBUF
   251-0-0/w PTR         r     1 @DCBNO                     3-0-0/w PTR         r     1 @GETCMD
    *0-0-0/w SBIN        r     1 ARS                       *0-0-0/d STRC(72)    r     1 CHARPOS
   251-0-0/w SBIN        r     1 CHUNK_SIZE                *0-0-0/d VECT        r     1 CMDBUF
     6-0-0/w PTR         r     1 CMDBUF$                  115-0-0/w SBIN        r     1 CSIZE
    56-0-0/w PTR         r     1 DCB$                      *0-0-0/w UBIN        r     1 DCBNO
    *0-0-0/w STRC        r     1 ERR                      152-0-0/d STRC(144)   r     1 FPT_CORRES
   156-0-0/d STRC(2088)  r     1 FPT_OPEN                 120-0-0/d STRC(504)   r     1 FPT_READ
   136-0-0/d STRC(432)   r     1 FPT_WRITE                 *0-0-0/d STRC(1512)  r     1 GETCMD
    54-0-0/w SBIN        r     1 OFFSET                   252-0-0/w SBIN        r     1 OFFSET
   253-0-0/w SBIN        r     1 OUTPUT_COUNT             254-0-0/w SBIN        r     1 OUTPUT_WIDTH
    63-0-0/w SBIN        r     1 POFF                      64-0-0/c CHAR(94)    r     1 PROMPT_BUF
   114-0-0/b BIT         r     1 READR_EXISTS              55-0-0/b STRC        r     1 T_ERR
   116-0-0/w PTR         r     1 XT$                        7-0-0/w PTR         r     1 XUG$
    57-0-0/w PTR         r     1 XUG_IN$                   10-0-0/d STRC(1296)  r     1 XUG_INIT_A

  ****  SYMREF variables  ****

  ****  Scalars and arrays  ****
PL6.E3A0      #004=XUG$READCMD_COMMON File=XUG$COMMON.:E05TSI                    WED 07/30/97 09:21 Page:421
OctLoc.c.b A Datatyp(siz) R M Lvl/name                 OctLoc.c.b A Datatyp(siz) R M Lvl/name

     0-0-0/w PTR         r     1 B$JIT$                     0-0-0/w PTR         r     1 B$TCB$
     0-0-0/d STRC(1296)  r     1 XUG_INIT_C

  ****  BASED and DCB variables  ****

  ****  Scalars and arrays  ****
OctLoc.c.b A Datatyp(siz) R M Lvl/name                 OctLoc.c.b A Datatyp(siz) R M Lvl/name

     0-0-0/w STRC(2448)  r     1 B$ALT                      0-0-0/d STRC(8856)  r     1 B$JIT
     0-0-0/w STRC(144)   r     1 B$TCB                      0-0-0/c ACHR        r     1 BUFFER
     0-0-0/c CHAR(300)   r     1 CHARBASE                   0-0-0/w UBIN        r     1 DCB$NUM
     0-0-0/d ASTR(3528)  r     1 F$DCB                      0-0-0/c ACHR        r     1 OUTPUT_STRING
     0-0-0/w STRC(504)   r     1 P_PCB                      0-0-0/c ACHR        r     1 VCHARBASE
     0-0-0/w STRC(1152)  r     1 XT_PARAM                   0-0-0/d STRC(9612)  r     1 XUG


   Procedure XUG$READCMD_COMMON requires 670 words for executable code.
   Procedure XUG$READCMD_COMMON requires 182 words of local(AUTO) storage.
PL6.E3A0      #004=XUG$READCMD_COMMON File=XUG$COMMON.:E05TSI                    WED 07/30/97 09:21 Page:422
          *** CROSS REFERENCE LISTING ***
**     DENOTES     IDENTIFIER DEFINITION
<<                 IDENTIFIER'S VALUE SET
>>                 IDENTIFIER'S VALUE USED
<>                 IDENTIFIER SET AND/OR USED
--                 IDENTIFIER REFERENCED
PL6.E3A0      #004=XUG$READCMD_COMMON File=XUG$COMMON.:E05TSI                    WED 07/30/97 09:21 Page:423
          MINI XREF LISTING

ARS
        13**DCL         7--PROC       14--REDEF      19--IMP-SIZ 13702<<ASSIGN  13714<<ASSIGN  13728<>CALL
     13744<>CALL    13746<>CALL    13750>>IF      13760<<ASSIGN  13760>>ASSIGN  13763>>IF      13766>>ASSIGN
     13771>>ASSIGN  13772>>IF      13776>>ASSIGN  13776>>ASSIGN
B$ALT.CODE
     13041**DCL     13041--REDEF   13042--REDEF   13042--REDEF
B$ALT.ERR
     13042**DCL     13811>>ASSIGN  13837>>ASSIGN
B$ALT.ERR.ERR#
     13043**DCL     13043--REDEF
B$ALT.EVID
     13042**DCL     13042--REDEF   13042--REDEF
B$JIT.CPFLAGS1
     13465**DCL     13792>>IF
B$JIT.CPFLAGS1.SLEAZE
     13470**DCL     13470--REDEF
B$JIT.ERR.MID
     13377**DCL     13377--REDEF
B$JIT.JRESPEAK
     13538**DCL     13539--REDEF
B$JIT.ORIGINATOR_PORT.FROM_CR
     13647**DCL     13647--REDEF   13648--REDEF
B$JIT.PNR
     13551**DCL     13551--REDEF
B$JIT.TSLINE
     13645**DCL     13646--REDEF
B$JIT$
     13048**DCL     13371--IMP-PTR 13792>>IF
B$TCB.ALT$
     13037**DCL     13811>>ASSIGN  13837>>ASSIGN
B$TCB$
     13047**DCL     13811>>ASSIGN  13837>>ASSIGN
PL6.E3A0      #004=XUG$READCMD_COMMON File=XUG$COMMON.:E05TSI                    WED 07/30/97 09:21 Page:424
BAD_READ
     13807**LABEL   13712--CALLALT 13850--CALLALT
BUFFER
        19**DCL     13776<<ASSIGN
CHARBASE
      6319**DCL     13872>>ASSIGN
CHARPOS.N
        11**DCL     13818<>CALL    13822>>ASSIGN
CHUNK_SIZE IN PROCEDURE WRITE_CMD_WRAPPED
     13881**DCL     13899<<ASSIGN  13902<<ASSIGN  13902>>ASSIGN  13906>>ASSIGN  13909>>ASSIGN  13910>>ASSIGN
CMDBUF
         9**DCL         7--PROC       10--REDEF   13654>>ASSIGN  13762>>ASSIGN  13772>>IF      13815--ENTRY
CMDBUF$
        20**DCL        19--IMP-PTR 13654<<ASSIGN  13776>>ASSIGN
CORRES
     13825**LABEL   13823--CALLALT 13838--GOTO
CSIZE
     12446**DCL     12447--IMP-SIZ 13767<<ASSIGN  13768>>ASSIGN  13863<<ASSIGN  13864>>ASSIGN
DCB$
     12436**DCL     12437--IMP-PTR 13816<<ASSIGN  13817>>CALL    13821>>ASSIGN
DCB$NUM
     12437**DCL     13817<>CALL    13821>>ASSIGN
DCBNO IN PROCEDURE OPEN
     13916**DCL     13915--PROC    13917>>IF      13920--IF      13924>>ASSIGN
ERR
        14**DCL     13699<<ASSIGN  13731<<ASSIGN  13811<<ASSIGN
F$DCB.ACTPOS
     12488**DCL     12488--REDEF
F$DCB.ARS#
     12462**DCL     12462--REDEF   13714>>ASSIGN
F$DCB.ATTR
     12481**DCL     12482--REDEF
F$DCB.BORROW
     12496**DCL     12496--REDEF   12496--REDEF   12496--REDEF
F$DCB.DCBNAME.L
     12510**DCL     12510--IMP-SIZ
PL6.E3A0      #004=XUG$READCMD_COMMON File=XUG$COMMON.:E05TSI                    WED 07/30/97 09:21 Page:425
F$DCB.DDEV.IC#
     12468**DCL     13716>>IF
F$DCB.DDEV.UCOUT#
     12469**DCL     13792>>IF
F$DCB.DDEV.XEQ#
     12469**DCL     13716>>IF
F$DCB.DVBYTE.TRANS#
     12465**DCL     13792>>IF
F$DCB.DVBYTE.VFC#
     12465**DCL     13713>>ASSIGN
F$DCB.EOMCHAR#
     12466**DCL     12466--REDEF   13715>>ASSIGN
F$DCB.FCD#
     12475**DCL     13920>>IF
F$DCB.FLDID
     12491**DCL     12491--REDEF
F$DCB.FORM$
     12485**DCL     12485--REDEF
F$DCB.FSECT
     12501**DCL     12501--REDEF
F$DCB.FSN#
     12478**DCL     12478--REDEF   12478--REDEF   12479--REDEF
F$DCB.HEADER$
     12484**DCL     12484--REDEF
F$DCB.IXTNSIZE#
     12482**DCL     12482--REDEF
F$DCB.LASTSTA$
     12471**DCL     12471--REDEF
F$DCB.LVL
     12497**DCL     12497--REDEF
F$DCB.NAME#.C
     12472**DCL     12472--REDEF
F$DCB.NOEOF
     12494**DCL     12494--REDEF
F$DCB.NRECS#
     12483**DCL     12483--REDEF
PL6.E3A0      #004=XUG$READCMD_COMMON File=XUG$COMMON.:E05TSI                    WED 07/30/97 09:21 Page:426
F$DCB.NRECX
     12502**DCL     12502--REDEF
F$DCB.OHDR
     12494**DCL     12494--REDEF
F$DCB.ORG#
     12477**DCL     12477--REDEF
F$DCB.PRECNO
     12500**DCL     12500--REDEF
F$DCB.RCSZ
     12506**DCL     12506--REDEF
F$DCB.RES#
     12473**DCL     12473--REDEF
F$DCB.SETX
     12485**DCL     12485--REDEF
F$DCB.TAB$
     12485**DCL     12485--REDEF
F$DCB.TDA
     12499**DCL     12500--REDEF
F$DCB.WIDTH#
     12469**DCL     13886>>ASSIGN
F$DCB.WSN#
     12473**DCL     12473--REDEF
FPT_CORRES
     12677**DCL     13819<<ASSIGN  13823<>CALL
FPT_CORRES.V
     12677**DCL     13820--ASSIGN
FPT_CORRES.V.DCB1#
     12677**DCL     13821<<ASSIGN
FPT_CORRES.V.DCB2#
     12678**DCL     13822<<ASSIGN
FPT_CORRES.V_
     12677**DCL     13820<<ASSIGN
FPT_CORRES_C
     12663**DCL     13819>>ASSIGN
FPT_CORRES_C.V
     12663**DCL     12663--DCLINIT
PL6.E3A0      #004=XUG$READCMD_COMMON File=XUG$COMMON.:E05TSI                    WED 07/30/97 09:21 Page:427
FPT_OPEN
     12854**DCL     13922<<ASSIGN  13925<>CALL
FPT_OPEN.ACSVEH_
     12856**DCL     12857--REDEF
FPT_OPEN.ALTKEYS_
     12862**DCL     12863--REDEF   12863--REDEF
FPT_OPEN.HDR_
     12861**DCL     12862--REDEF
FPT_OPEN.TAB_
     12860**DCL     12861--REDEF
FPT_OPEN.UHL_
     12854**DCL     12855--REDEF   12855--REDEF
FPT_OPEN.V
     12863**DCL     13923--ASSIGN
FPT_OPEN.V.DCB#
     12863**DCL     13924<<ASSIGN
FPT_OPEN.V.FSN#
     12894**DCL     12894--REDEF   12894--REDEF
FPT_OPEN.V_
     12854**DCL     13923<<ASSIGN
FPT_OPEN.WSN_
     12860**DCL     12860--REDEF
FPT_OPEN_C
     12745**DCL     13922>>ASSIGN
FPT_OPEN_C.ACSVEH_
     12747**DCL     12748--REDEF
FPT_OPEN_C.ALTKEYS_
     12753**DCL     12754--REDEF   12754--REDEF
FPT_OPEN_C.HDR_
     12752**DCL     12753--REDEF
FPT_OPEN_C.TAB_
     12751**DCL     12752--REDEF
FPT_OPEN_C.UHL_
     12745**DCL     12746--REDEF   12746--REDEF
FPT_OPEN_C.V
     12754**DCL     12745--DCLINIT
PL6.E3A0      #004=XUG$READCMD_COMMON File=XUG$COMMON.:E05TSI                    WED 07/30/97 09:21 Page:428
FPT_OPEN_C.V.FSN#
     12785**DCL     12785--REDEF   12785--REDEF
FPT_OPEN_C.WSN_
     12751**DCL     12751--REDEF
FPT_READ
     12568**DCL     13708<<ASSIGN  13712<>CALL
FPT_READ.BUF_
     12570**DCL     13711<<ASSIGN
FPT_READ.STATION_
     12571**DCL     12572--REDEF
FPT_READ.V
     12572**DCL     13709--ASSIGN
FPT_READ.V.DCB#
     12572**DCL     13710<<ASSIGN
FPT_READ.V.DVBYTE.REREAD#
     12583**DCL     12583--REDEF
FPT_READ.V.INDX#
     12581**DCL     12581--REDEF
FPT_READ.V_
     12568**DCL     13709<<ASSIGN
FPT_READ_C
     12529**DCL     13708>>ASSIGN
FPT_READ_C.STATION_
     12532**DCL     12533--REDEF
FPT_READ_C.V
     12533**DCL     12529--DCLINIT
FPT_READ_C.V.DVBYTE.REREAD#
     12544**DCL     12544--REDEF
FPT_READ_C.V.INDX#
     12542**DCL     12542--REDEF
FPT_WRITE
     12638**DCL     13857<<ASSIGN  13873<<ASSIGN  13907<>CALL
FPT_WRITE.BUF_
     12638**DCL     13875<<ASSIGN
FPT_WRITE.BUF_.BOUND
     12638**DCL     13876<<ASSIGN  13890>>ASSIGN  13906<<ASSIGN
PL6.E3A0      #004=XUG$READCMD_COMMON File=XUG$COMMON.:E05TSI                    WED 07/30/97 09:21 Page:429
FPT_WRITE.BUF_.BUF$
     12640**DCL     13884--IMP-PTR 13892>>IF      13910<<ASSIGN  13910>>ASSIGN
FPT_WRITE.STATION_
     12640**DCL     12640--REDEF
FPT_WRITE.V
     12641**DCL     13858--ASSIGN  13874--ASSIGN
FPT_WRITE.V.DCB#
     12641**DCL     13804<<ASSIGN  13841<<ASSIGN  13886--ASSIGN
FPT_WRITE.V.DVBYTE.VFC#
     12647**DCL     12647--REDEF   13865<<ASSIGN
FPT_WRITE.V_
     12638**DCL     13858<<ASSIGN  13874<<ASSIGN
FPT_WRITE_C
     12607**DCL     13857>>ASSIGN  13873>>ASSIGN
FPT_WRITE_C.STATION_
     12609**DCL     12609--REDEF
FPT_WRITE_C.V
     12610**DCL     12607--DCLINIT
FPT_WRITE_C.V.DVBYTE.VFC#
     12616**DCL     12616--REDEF
GETCMD
      3897**DCL         7--PROC    13666--ASSIGN  13744<>CALL    13746<>CALL    13774<>CALL    13791<>CALL
     13815--ENTRY   13816--ASSIGN  13827--ENTRY   13840<>CALL    13845--ENTRY   13850<>CALL
GETCMD.DCB_PARAM#
      4077**DCL     13830>>IF      13832<<ASSIGN  13833>>IF      13835<>CALL    13840<>CALL    13841>>ASSIGN
GETCMD.ECHO
      4017**DCL     13792>>IF      13792>>IF
GETCMD.EOMCHAR#
      4037**DCL     13656<<ASSIGN  13692<<ASSIGN  13715<<ASSIGN  13728<>CALL
GETCMD.ERR#
      3908**DCL     13676<<ASSIGN  13781<<ASSIGN  13837<<ASSIGN
GETCMD.INDCB#
      4068**DCL     13655--ASSIGN  13667>>ASSIGN  13682>>IF      13710>>ASSIGN  13792--IF
GETCMD.OUT$
      3902**DCL      3908--REDEF
GETCMD.OUTDCB#
PL6.E3A0      #004=XUG$READCMD_COMMON File=XUG$COMMON.:E05TSI                    WED 07/30/97 09:21 Page:430
      4073**DCL     13668>>ASSIGN  13791<>CALL    13792--IF      13804>>ASSIGN  13832>>ASSIGN
GETCMD.PASS
      4027**DCL     13798>>IF
GETCMD.RCVD_PROMPT#
      3967**DCL     13756<<ASSIGN  13778>>IF
GETCMD.READR$$
      4120**DCL     13706>>IF      13728>>CALL    13728<>CALL
GETCMD.RPROMPT_
      4110**DCL     13859>>IF      13859>>IF      13862>>ASSIGN  13864>>ASSIGN
GETCMD.SKIP_PREPROCESS#
      3978**DCL     13740>>IF      13749<<ASSIGN
GETCMD.TREAD#
      3946**DCL     13693<<ASSIGN  13719<<ASSIGN  13721<<ASSIGN  13788>>IF      13792>>IF
GETCMD.WORK$
      3930**DCL     13653>>ASSIGN  13828>>ASSIGN  13846>>IF      13852>>ASSIGN
GETCMD.XT_PARAM$
      4166**DCL     13660>>IF      13669<<ASSIGN  13673<<ASSIGN  13681>>ASSIGN
IGNORE_ERROR_ON_OPEN IN PROCEDURE OPEN
     13924**LABEL   13925--CALLALT
M$CORRES
     11819**DCL-ENT 13823--CALL
M$LO
     12432**DCL     13835<>CALL
M$OPEN
     11814**DCL-ENT 13925--CALL
M$READ
     11815**DCL-ENT 13712--CALL
M$WRITE
     11815**DCL-ENT 13907--CALL
MOVE_CMD
     13856**PROC    13777--CALL    13829--CALL
NORMAL_READ
     13702**LABEL   13698--GOTO
OFFSET
      6320**DCL     13691<<ASSIGN  13713<<ASSIGN  13714>>ASSIGN  13734<<ASSIGN  13750>>IF      13757<<ASSIGN
     13757>>ASSIGN  13776>>ASSIGN
PL6.E3A0      #004=XUG$READCMD_COMMON File=XUG$COMMON.:E05TSI                    WED 07/30/97 09:21 Page:431
OFFSET IN PROCEDURE WRITE_CMD_WRAPPED
     13882**DCL     13897<<ASSIGN  13898>>DOWHILE 13899>>ASSIGN  13900>>IF      13903<<ASSIGN  13903>>ASSIGN
     13904>>ASSIGN  13909<<ASSIGN  13909>>ASSIGN
OPEN
     13915**PROC    13817--CALL    13818--CALL
OUTPUT_COUNT IN PROCEDURE WRITE_CMD_WRAPPED
     13883**DCL     13884--IMP-SIZ 13890<<ASSIGN  13891>>DOWHILE 13892>>IF      13892>>IF      13895<<ASSIGN
     13895>>ASSIGN  13898>>DOWHILE 13899>>ASSIGN
OUTPUT_STRING IN PROCEDURE WRITE_CMD_WRAPPED
     13884**DCL     13892>>IF
OUTPUT_WIDTH IN PROCEDURE WRITE_CMD_WRAPPED
     13885**DCL     13886<<ASSIGN  13887>>IF      13889<<ASSIGN  13899>>ASSIGN
POFF
     12443**DCL     13862<<ASSIGN  13863>>ASSIGN  13868<<ASSIGN  13869>>ASSIGN  13871>>ASSIGN  13872>>ASSIGN
     13876>>ASSIGN
PROMPT_BUF
     12444**DCL     13864<<ASSIGN  13869<<ASSIGN  13871>>ASSIGN
P_PCB
      6136**DCL     13663--ASSIGN
P_PCB.HI_CHAR
      6287**DCL     13759<<ASSIGN  13759>>ASSIGN
READR_EXISTS
     12445**DCL     13657<<ASSIGN  13725<<ASSIGN  13750>>IF      13788>>IF
READ_ALT
     13813**LABEL   13732--GOTO    13774--CALLALT 13782--GOTO
T_ERR
      6321**DCL     13724<<ASSIGN  13728<>CALL    13731>>ASSIGN
VCHARBASE
     12447**DCL     13768<<ASSIGN  13864>>ASSIGN
WRITE_CMD_WRAPPED
     13880**PROC    13805--CALL    13842--CALL
XT#CANT_ADAPT
     13003**DCL     13674>>IF
XT#EOD
     12957**DCL     13696>>IF
XT$
PL6.E3A0      #004=XUG$READCMD_COMMON File=XUG$COMMON.:E05TSI                    WED 07/30/97 09:21 Page:432
     12448**DCL      5505--IMP-PTR 13663<<ASSIGN  13664>>ASSIGN  13665>>ASSIGN  13666>>ASSIGN  13667>>ASSIGN
     13668>>ASSIGN  13669>>ASSIGN  13670>>CALL    13674>>IF      13676>>ASSIGN  13681<<ASSIGN  13682>>IF
     13682>>IF      13686>>ASSIGN  13687>>ASSIGN  13688>>ASSIGN  13689>>ASSIGN  13690>>ASSIGN  13694>>CALL
     13696>>IF      13699>>ASSIGN  13702>>ASSIGN
XT_PARAM
      5505**DCL     13664<<ASSIGN  13670<>CALL    13694<>CALL
XT_PARAM.ADAPTING
      5659**DCL     13682>>IF
XT_PARAM.ARS
      5589**DCL     13702>>ASSIGN
XT_PARAM.BUF.LEN
      5580**DCL     13687<<ASSIGN
XT_PARAM.BUF.PT$
      5579**DCL     13686<<ASSIGN
XT_PARAM.ERR
      5529**DCL     13674>>IF      13676>>ASSIGN  13696>>IF      13699>>ASSIGN
XT_PARAM.INDCB
      5553**DCL     13667<<ASSIGN  13682>>IF
XT_PARAM.OUTDCB
      5546**DCL     13668<<ASSIGN
XT_PARAM.PROMPT.LEN
      5768**DCL     13689<<ASSIGN
XT_PARAM.PROMPT.PT$
      5767**DCL     13688<<ASSIGN
XT_PARAM.PROMPT_VFC
      5779**DCL     13690<<ASSIGN
XT_PARAM.USER$
      5722**DCL     13666<<ASSIGN
XT_PARAM.XUG$
      5665**DCL     13665<<ASSIGN
XT_PARAM_C
      5818**DCL     13664>>ASSIGN
XUG
      4225**DCL     13663--ASSIGN
XUG.ADAPT$$
      4648**DCL     13660>>IF      13670>>CALL    13672<<ASSIGN  13682>>IF      13694>>CALL
PL6.E3A0      #004=XUG$READCMD_COMMON File=XUG$COMMON.:E05TSI                    WED 07/30/97 09:21 Page:433
XUG.BUF
      4661**DCL      4664--REDEF   13659<<ASSIGN  13686--ASSIGN  13687--ASSIGN  13711--ASSIGN  13728--CALL
     13750>>IF      13776>>ASSIGN  13871<<ASSIGN  13872<<ASSIGN  13875--ASSIGN  13904<<ASSIGN  13904>>ASSIGN
XUG.DCBS.ERRPTR_CPOS
      4520**DCL     13807<<ASSIGN
XUG.DONT_STRIP_PROMPT
      4633**DCL     13750>>IF
XUG.LAST
      4233**DCL     13762<<ASSIGN  13766<<ASSIGN  13768>>ASSIGN  13771<<ASSIGN  13853<<ASSIGN  13872>>ASSIGN
     13872>>ASSIGN  13876>>ASSIGN
XUG.NDCBS
      4515**DCL     13806<<ASSIGN
XUG.NEED_ECHO
      4374**DCL     13801<<ASSIGN
XUG.POFF
      4307**DCL     13689>>ASSIGN  13735<<ASSIGN  13750>>IF      13750>>IF      13750>>IF      13757>>ASSIGN
     13759>>ASSIGN  13760>>ASSIGN  13868>>ASSIGN
XUG.PP_ERR
      4475**DCL     13658<<ASSIGN
XUG.PREPROCESS
      4350**DCL     13740>>IF
XUG.PREPROCESSOR$$
      4263**DCL     13742>>IF
XUG.PROMPT
      4310**DCL     13688--ASSIGN  13736<<ASSIGN  13750>>IF      13869>>ASSIGN
XUG.PROMPT_VFC
      4384**DCL     13689>>ASSIGN  13690>>ASSIGN  13737<<ASSIGN  13750>>IF      13865>>ASSIGN  13869>>ASSIGN
     13900>>IF
XUG.P_PCB$
      4456**DCL     13759>>ASSIGN  13759>>ASSIGN
XUG.READVEC
      4229**DCL     13853>>ASSIGN
XUG.REQ_PROMPT
      4354**DCL     13778>>IF
XUG#NO_PROMPT
     12911**DCL     13781>>ASSIGN
PL6.E3A0      #004=XUG$READCMD_COMMON File=XUG$COMMON.:E05TSI                    WED 07/30/97 09:21 Page:434
XUG$
        22**DCL      4225--IMP-PTR 13653<<ASSIGN  13658>>ASSIGN  13659>>ASSIGN  13660>>IF      13663>>ASSIGN
     13665>>ASSIGN  13670>>CALL    13672>>ASSIGN  13682>>IF      13686>>ASSIGN  13688>>ASSIGN  13689>>ASSIGN
     13689>>ASSIGN  13690>>ASSIGN  13694>>CALL    13711>>ASSIGN  13728>>CALL    13735>>ASSIGN  13736>>ASSIGN
     13737>>ASSIGN  13740>>IF      13742>>IF      13750>>IF      13750>>IF      13750>>IF      13750>>IF
     13750>>IF      13750>>IF      13750>>IF      13757>>ASSIGN  13759>>ASSIGN  13759>>ASSIGN  13759>>ASSIGN
     13760>>ASSIGN  13762>>ASSIGN  13766>>ASSIGN  13768>>ASSIGN  13771>>ASSIGN  13776>>ASSIGN  13778>>IF
     13801>>ASSIGN  13806>>ASSIGN  13807>>ASSIGN  13828<<ASSIGN  13852<<ASSIGN  13853>>ASSIGN  13853>>ASSIGN
     13865>>ASSIGN  13868>>ASSIGN  13869>>ASSIGN  13869>>ASSIGN  13871>>ASSIGN  13872>>ASSIGN  13872>>ASSIGN
     13872>>ASSIGN  13875>>ASSIGN  13876>>ASSIGN  13900>>IF      13904>>ASSIGN  13904>>ASSIGN
XUG$ADAPTMEM
      6317**DCL-ENT  6012--DCLINIT
XUG$GETDCB_COMMON
     12454**DCL-ENT 13835--CALL
XUG$INIT_COMMON
     12453**DCL-ENT 13850--CALL
XUG$MOREMEM
     12452**DCL-ENT 13774--CALL
XUG$OPENOUT_INTERNAL
      6318**DCL-ENT 13791--CALL    13840--CALL
XUG$PP_CMDVARS
     12451**DCL-ENT 13746--CALL
XUG$PRE_PROCESSOR
     12450**DCL-ENT 13744--CALL
XUG_IN$
     12439**DCL     13655<<ASSIGN  13713>>ASSIGN  13714>>ASSIGN  13715>>ASSIGN  13716>>IF      13716>>IF
XUG_INIT_A
      5101**DCL     13849<<ASSIGN  13850<>CALL
XUG_INIT_C
      4688**DCL     13849>>ASSIGN

PL6.E3A0      #005=XUG$OPENOUT_INTERNAL File=XUG$COMMON.:E05TSI                  WED 07/30/97 09:22 Page:435
     2441        1        /*T***********************************************************/
     2442        2        /*T*                                                         */
     2443        3        /*T* Copyright (c) Bull HN Information Systems Inc., 1997    */
     2444        4        /*T*                                                         */
     2445        5        /*T***********************************************************/
     2446        6        /*X* DMC,PLM=4,IND=4,CTI=2,DTI=0,ENI=0,ECI=0,CSI=0,MCI,DCI=4 */
     2447        7        XUG$OPENOUT_INTERNAL: PROC (GETCMD,DCB#);
     2448        8        /*D*  NAME: XUG$OPENOUT_INTERNAL
     2449        9              DESCRIPTION: Called within XUG before writing to a DCB.  If the
     2450       10                    DCB is closed, it calls XUG$OPENOUT_COMMON to open it and make
     2451       11                    sure it has an organization that allows unkeyed writes.
     2452       12        */
     2453       13
     2454       14        %INCLUDE CP_6;
     2455     5573        %INCLUDE XU_MACRO_C;
     2456     8679
     2457     8680        %XUG_GETCMD (NAME=GETCMD,STCLASS=PARAM);
     2458     9018    1   DCL DCB# UBIN PARAM;
     2459     9019
     2460     9020        %F$DCB;
     2461     9077        %FPT_OPEN (FPTN=FPT_OPEN_C, STCLASS=CONSTANT);
     2462     9186        %FPT_OPEN (FPTN=FPT_OPEN, STCLASS=AUTO);
     2463     9295
     2464     9296    1   DCL XUG$OPENOUT_COMMON ENTRY(1) ALTRET;
     2465     9297    1   DCL XUG$ERRMSG_COMMON ENTRY(1) ALTRET;
     2466     9298        /**/
     2467     9299
     2468     9300    1       IF DCB# ~= DCBNUM(NIL)
     2469     9301    1       THEN IF NOT DCBADDR(DCB#) -> F$DCB.FCD#
     2470     9302    2           THEN DO;
     2471     9303    2               FPT_OPEN = FPT_OPEN_C;
     2472     9304    2               FPT_OPEN.V_ = VECTOR (FPT_OPEN.V);
     2473     9305    2               FPT_OPEN.V.DCB# = GETCMD.DCB_PARAM#;
     2474     9306    2               GETCMD.DCB_PARAM# = DCB#;
     2475     9307    2               GETCMD.FPT$ = ADDR(FPT_OPEN);
     2476     9308    2               GETCMD.UTIL$ = ADDR(NIL);
     2477     9309    2               CALL XUG$OPENOUT_COMMON (GETCMD)
PL6.E3A0      #005=XUG$OPENOUT_INTERNAL File=XUG$COMMON.:E05TSI                  WED 07/30/97 09:22 Page:436
     2478     9310    3               WHENALTRETURN DO;
     2479     9311    3                   GETCMD.ERR_CODE = GETCMD.ERR#;
     2480     9312    3                   GETCMD.ERRDCB# = DCB#;
     2481     9313    3                   CALL XUG$ERRMSG_COMMON (GETCMD);
     2482     9314    3               END/*WHENALT*/;
     2483     9315    2               GETCMD.DCB_PARAM# = FPT_OPEN.V.DCB#;
     2484     9316    2           END;
     2485     9317    1       RETURN;
     2486     9318
     2487     9319    1   END XUG$OPENOUT_INTERNAL;
     2488     9320        %EOD;

PL6.E3A0      #005=XUG$OPENOUT_INTERNAL File=XUG$COMMON.:E05TSI                  WED 07/30/97 09:22 Page:437
--  Include file information  --

   XU_MACRO_C.:E05TOU  is referenced.
   CP_6_C.:E05TOU  is referenced.
   CP_6.:E05TOU  cannot be made into a system file and is referenced.
      No diagnostics issued in procedure XUG$OPENOUT_INTERNAL.

   Procedure XUG$OPENOUT_INTERNAL requires 49 words for executable code.
   Procedure XUG$OPENOUT_INTERNAL requires 66 words of local(AUTO) storage.

PL6.E3A0      #005=XUG$OPENOUT_INTERNAL File=XUG$COMMON.:E05TSI                  WED 07/30/97 09:22 Page:438

 Object Unit name= XUG$OPENOUT_INTERNAL                       File name= XUG$COMMON.:E05TOU
 UTS= JUL 30 '97 09:22:52.64 WED                              Compiler= PL-6/E31         Sev=      00
 SharedLib= :SHARED_SYSTEM                                    Alt SharedLib=


    ****  Control sections  ****

 Sect   Type Bound  Init  Size OctSiz  Section name(segment info)
    0   DCB   even  none     0      0  M$UC
    1  RoData even  UTS     58     72  XUG$OPENOUT_INTERNAL
    2   Proc  even  none    49     61  XUG$OPENOUT_INTERNAL
    3  RoData even  none     2      2  XUG$OPENOUT_INTERNAL

    ****  Entry defs  ****

                              Check   Calling
                             calling  sequence
  Sect OctLoc Primary Altret sequence   type   Parms  Name
     2      0   yes            yes      Std        2  XUG$OPENOUT_INTERNAL

  ****  Entry refs  ****

         Check        Calling
        calling       sequence
Altret sequence SRef   type   Args  Name
 yes     yes           Std       1 XUG$OPENOUT_COMMON
 yes     yes           Std       1 XUG$ERRMSG_COMMON
                       nStd      0 X66_AUTO_2
                       Std       0 B_CONSPOOL_D
                       nStd      0 X66_ARET

  ****  Data refs  ****

  Flags:  r = read only, s = secondary
Flgs Name                             Flgs Name                             Flgs Name
     M$UC                                  B_VECTNIL
PL6.E3A0      #005=XUG$OPENOUT_INTERNAL File=XUG$COMMON.:E05TSI                  WED 07/30/97 09:22 Page:439

  ****  Segment refs  ****

  Flags:  r = read only, s = secondary
Flgs Name                             Flgs Name                             Flgs Name
     ISSID                                 NULLSID                               ROSID
PL6.E3A0      #005=XUG$OPENOUT_INTERNAL File=XUG$COMMON.:E05TSI                  WED 07/30/97 09:22 Page:440


     2441        1        /*T***********************************************************/
     2442        2        /*T*                                                         */
     2443        3        /*T* Copyright (c) Bull HN Information Systems Inc., 1997    */
     2444        4        /*T*                                                         */
     2445        5        /*T***********************************************************/
     2446        6        /*X* DMC,PLM=4,IND=4,CTI=2,DTI=0,ENI=0,ECI=0,CSI=0,MCI,DCI=4 */
     2447        7        XUG$OPENOUT_INTERNAL: PROC (GETCMD,DCB#);

      7  2 000000   000000 700200 xent  XUG$OPENOUT* TSX0  ! X66_AUTO_2
         2 000001   000102 000002                    ZERO    66,2

     2448        8        /*D*  NAME: XUG$OPENOUT_INTERNAL
     2449        9              DESCRIPTION: Called within XUG before writing to a DCB.  If the
     2450       10                    DCB is closed, it calls XUG$OPENOUT_COMMON to open it and make
     2451       11                    sure it has an organization that allows unkeyed writes.
     2452       12        */
     2453       13
     2454       14        %INCLUDE CP_6;
     2455     5573        %INCLUDE XU_MACRO_C;
     2456     8679
     2457     8680        %XUG_GETCMD (NAME=GETCMD,STCLASS=PARAM);
     2458     9018    1   DCL DCB# UBIN PARAM;
     2459     9019
     2460     9020        %F$DCB;
     2461     9077        %FPT_OPEN (FPTN=FPT_OPEN_C, STCLASS=CONSTANT);
     2462     9186        %FPT_OPEN (FPTN=FPT_OPEN, STCLASS=AUTO);
     2463     9295
     2464     9296    1   DCL XUG$OPENOUT_COMMON ENTRY(1) ALTRET;
     2465     9297    1   DCL XUG$ERRMSG_COMMON ENTRY(1) ALTRET;
     2466     9298        /**/
     2467     9299
     2468     9300    1       IF DCB# ~= DCBNUM(NIL)

   9300  2 000002   200004 470500                    LDP0    @DCB#,,AUTO
         2 000003   000000 235100                    LDA     0,,PR0
         2 000004   000060 600000 2                  TZE     s:9317
PL6.E3A0      #005=XUG$OPENOUT_INTERNAL File=XUG$COMMON.:E05TSI                  WED 07/30/97 09:22 Page:441

     2469     9301    1       THEN IF NOT DCBADDR(DCB#) -> F$DCB.FCD#

   9301  2 000005   000000 471400 3                  LDP1    0
         2 000006   100000 473500                    LDP3    0,,PR1
         2 000007   000000 720100                    LXL0    0,,PR0
         2 000010   300000 474510                    LDP4    0,X0,PR3
         2 000011   400031 236100                    LDQ     25,,PR4
         2 000012   020000 316007                    CANQ    8192,DL
         2 000013   000060 601000 2                  TNZ     s:9317

     2470     9302    2           THEN DO;

     2471     9303    2               FPT_OPEN = FPT_OPEN_C;

   9303  2 000014   000100 100400                    MLR     fill='000'O
         2 000015   000000 000350 1                  ADSC9   FPT_OPEN_C               cn=0,n=232
         2 000016   200006 000350                    ADSC9   FPT_OPEN,,AUTO           cn=0,n=232

     2472     9304    2               FPT_OPEN.V_ = VECTOR (FPT_OPEN.V);

   9304  2 000017   000001 235000 3                  LDA     1
         2 000020   200100 452500                    STP2    FPT_OPEN+58,,AUTO
         2 000021   200100 236100                    LDQ     FPT_OPEN+58,,AUTO
         2 000022   000052 036003                    ADLQ    42,DU
         2 000023   200006 757100                    STAQ    FPT_OPEN,,AUTO

     2473     9305    2               FPT_OPEN.V.DCB# = GETCMD.DCB_PARAM#;

   9305  2 000024   200003 474500                    LDP4    @GETCMD,,AUTO
         2 000025   400014 720100                    LXL0    12,,PR4
         2 000026   200052 740100                    STX0    FPT_OPEN+36,,AUTO

     2474     9306    2               GETCMD.DCB_PARAM# = DCB#;

   9306  2 000027   000000 235100                    LDA     0,,PR0
         2 000030   400014 755100                    STA     12,,PR4
PL6.E3A0      #005=XUG$OPENOUT_INTERNAL File=XUG$COMMON.:E05TSI                  WED 07/30/97 09:22 Page:442

     2475     9307    2               GETCMD.FPT$ = ADDR(FPT_OPEN);

   9307  2 000031   200006 635500                    EPPR5   FPT_OPEN,,AUTO
         2 000032   400043 455500                    STP5    35,,PR4

     2476     9308    2               GETCMD.UTIL$ = ADDR(NIL);

   9308  2 000033   000001 236000 xsym               LDQ     B_VECTNIL+1
         2 000034   400044 756100                    STQ     36,,PR4

     2477     9309    2               CALL XUG$OPENOUT_COMMON (GETCMD)

   9309  2 000035   200003 630500                    EPPR0   @GETCMD,,AUTO
         2 000036   000017 631400 xsym               EPPR1   B_VECTNIL+15
         2 000037   000000 701000 xent               TSX1    XUG$OPENOUT_COMMON
         2 000040   000042 702000 2                  TSX2    s:9311
         2 000041   000054 710000 2                  TRA     s:9315

     2478     9310    3               WHENALTRETURN DO;

     2479     9311    3                   GETCMD.ERR_CODE = GETCMD.ERR#;

   9311  2 000042   200003 470500                    LDP0    @GETCMD,,AUTO
         2 000043   000001 236100                    LDQ     1,,PR0
         2 000044   000010 756100                    STQ     8,,PR0

     2480     9312    3                   GETCMD.ERRDCB# = DCB#;

   9312  2 000045   200004 471500                    LDP1    @DCB#,,AUTO
         2 000046   100000 235100                    LDA     0,,PR1
         2 000047   000011 755100                    STA     9,,PR0

     2481     9313    3                   CALL XUG$ERRMSG_COMMON (GETCMD);

   9313  2 000050   200003 630500                    EPPR0   @GETCMD,,AUTO
         2 000051   000017 631400 xsym               EPPR1   B_VECTNIL+15
PL6.E3A0      #005=XUG$OPENOUT_INTERNAL File=XUG$COMMON.:E05TSI                  WED 07/30/97 09:22 Page:443
         2 000052   000000 701000 xent               TSX1    XUG$ERRMSG_COMMON
         2 000053   000000 011000                    NOP     0

     2482     9314    3               END/*WHENALT*/;

     2483     9315    2               GETCMD.DCB_PARAM# = FPT_OPEN.V.DCB#;

   9315  2 000054   200052 235100                    LDA     FPT_OPEN+36,,AUTO
         2 000055   000022 771000                    ARL     18
         2 000056   200003 470500                    LDP0    @GETCMD,,AUTO
         2 000057   000014 755100                    STA     12,,PR0

     2484     9316    2           END;

     2485     9317    1       RETURN;

   9317  2 000060   000000 702200 xent               TSX2  ! X66_ARET
     2486     9318
     2487     9319    1   END XUG$OPENOUT_INTERNAL;
     2488     9320        %EOD;

PL6.E3A0      #005=XUG$OPENOUT_INTERNAL File=XUG$COMMON.:E05TSI                  WED 07/30/97 09:22 Page:444
--  Include file information  --

   XU_MACRO_C.:E05TOU  is referenced.
   CP_6_C.:E05TOU  is referenced.
   CP_6.:E05TOU  cannot be made into a system file and is referenced.
      No diagnostics issued in procedure XUG$OPENOUT_INTERNAL.
PL6.E3A0      #005=XUG$OPENOUT_INTERNAL File=XUG$COMMON.:E05TSI                  WED 07/30/97 09:22 Page:445

 **** Variables and constants ****

  ****  Section 001 RoData XUG$OPENOUT_INTERNAL

  ****  Scalars and arrays  ****
OctLoc.c.b A Datatyp(siz) R M Lvl/name                 OctLoc.c.b A Datatyp(siz) R M Lvl/name

     0-0-0/d STRC(2088)  r     1 FPT_OPEN_C

  ****  Auto variables  ****

  ****  Scalars and arrays  ****
OctLoc.c.b A Datatyp(siz) R M Lvl/name                 OctLoc.c.b A Datatyp(siz) R M Lvl/name

     4-0-0/w PTR         r     1 @DCB#                      3-0-0/w PTR         r     1 @GETCMD
    *0-0-0/w UBIN        r     1 DCB#                       6-0-0/d STRC(2088)  r     1 FPT_OPEN
    *0-0-0/d STRC(1512)  r     1 GETCMD

  ****  BASED and DCB variables  ****

  ****  Scalars and arrays  ****
OctLoc.c.b A Datatyp(siz) R M Lvl/name                 OctLoc.c.b A Datatyp(siz) R M Lvl/name

     0-0-0/d ASTR(3528)  r     1 F$DCB


   Procedure XUG$OPENOUT_INTERNAL requires 49 words for executable code.
   Procedure XUG$OPENOUT_INTERNAL requires 66 words of local(AUTO) storage.
PL6.E3A0      #005=XUG$OPENOUT_INTERNAL File=XUG$COMMON.:E05TSI                  WED 07/30/97 09:22 Page:446
          *** CROSS REFERENCE LISTING ***
**     DENOTES     IDENTIFIER DEFINITION
<<                 IDENTIFIER'S VALUE SET
>>                 IDENTIFIER'S VALUE USED
<>                 IDENTIFIER SET AND/OR USED
--                 IDENTIFIER REFERENCED
PL6.E3A0      #005=XUG$OPENOUT_INTERNAL File=XUG$COMMON.:E05TSI                  WED 07/30/97 09:22 Page:447
          MINI XREF LISTING

DCB#
      9018**DCL         7--PROC     9300>>IF       9301--IF       9306>>ASSIGN   9312>>ASSIGN
F$DCB.ACTPOS
      9053**DCL      9053--REDEF
F$DCB.ARS#
      9027**DCL      9027--REDEF
F$DCB.ATTR
      9046**DCL      9047--REDEF
F$DCB.BORROW
      9061**DCL      9061--REDEF    9061--REDEF    9061--REDEF
F$DCB.DCBNAME.L
      9075**DCL      9075--IMP-SIZ
F$DCB.EOMCHAR#
      9031**DCL      9031--REDEF
F$DCB.FCD#
      9040**DCL      9301>>IF
F$DCB.FLDID
      9056**DCL      9056--REDEF
F$DCB.FORM$
      9050**DCL      9050--REDEF
F$DCB.FSECT
      9066**DCL      9066--REDEF
F$DCB.FSN#
      9043**DCL      9043--REDEF    9043--REDEF    9044--REDEF
F$DCB.HEADER$
      9049**DCL      9049--REDEF
F$DCB.IXTNSIZE#
      9047**DCL      9047--REDEF
F$DCB.LASTSTA$
      9036**DCL      9036--REDEF
F$DCB.LVL
      9062**DCL      9062--REDEF
PL6.E3A0      #005=XUG$OPENOUT_INTERNAL File=XUG$COMMON.:E05TSI                  WED 07/30/97 09:22 Page:448
F$DCB.NAME#.C
      9037**DCL      9037--REDEF
F$DCB.NOEOF
      9059**DCL      9059--REDEF
F$DCB.NRECS#
      9048**DCL      9048--REDEF
F$DCB.NRECX
      9067**DCL      9067--REDEF
F$DCB.OHDR
      9059**DCL      9059--REDEF
F$DCB.ORG#
      9042**DCL      9042--REDEF
F$DCB.PRECNO
      9065**DCL      9065--REDEF
F$DCB.RCSZ
      9071**DCL      9071--REDEF
F$DCB.RES#
      9038**DCL      9038--REDEF
F$DCB.SETX
      9050**DCL      9050--REDEF
F$DCB.TAB$
      9050**DCL      9050--REDEF
F$DCB.TDA
      9064**DCL      9065--REDEF
F$DCB.WSN#
      9038**DCL      9038--REDEF
FPT_OPEN
      9251**DCL      9303<<ASSIGN   9307--ASSIGN
FPT_OPEN.ACSVEH_
      9253**DCL      9254--REDEF
FPT_OPEN.ALTKEYS_
      9259**DCL      9260--REDEF    9260--REDEF
FPT_OPEN.HDR_
      9258**DCL      9259--REDEF
FPT_OPEN.TAB_
      9257**DCL      9258--REDEF
PL6.E3A0      #005=XUG$OPENOUT_INTERNAL File=XUG$COMMON.:E05TSI                  WED 07/30/97 09:22 Page:449
FPT_OPEN.UHL_
      9251**DCL      9252--REDEF    9252--REDEF
FPT_OPEN.V
      9260**DCL      9304--ASSIGN
FPT_OPEN.V.DCB#
      9260**DCL      9305<<ASSIGN   9315>>ASSIGN
FPT_OPEN.V.FSN#
      9291**DCL      9291--REDEF    9291--REDEF
FPT_OPEN.V_
      9251**DCL      9304<<ASSIGN
FPT_OPEN.WSN_
      9257**DCL      9257--REDEF
FPT_OPEN_C
      9142**DCL      9303>>ASSIGN
FPT_OPEN_C.ACSVEH_
      9144**DCL      9145--REDEF
FPT_OPEN_C.ALTKEYS_
      9150**DCL      9151--REDEF    9151--REDEF
FPT_OPEN_C.HDR_
      9149**DCL      9150--REDEF
FPT_OPEN_C.TAB_
      9148**DCL      9149--REDEF
FPT_OPEN_C.UHL_
      9142**DCL      9143--REDEF    9143--REDEF
FPT_OPEN_C.V
      9151**DCL      9142--DCLINIT
FPT_OPEN_C.V.FSN#
      9182**DCL      9182--REDEF    9182--REDEF
FPT_OPEN_C.WSN_
      9148**DCL      9148--REDEF
GETCMD
      8693**DCL         7--PROC     9309<>CALL     9313<>CALL
GETCMD.DCB_PARAM#
      8873**DCL      9305>>ASSIGN   9306<<ASSIGN   9315<<ASSIGN
GETCMD.ERR#
      8704**DCL      9311>>ASSIGN
PL6.E3A0      #005=XUG$OPENOUT_INTERNAL File=XUG$COMMON.:E05TSI                  WED 07/30/97 09:22 Page:450
GETCMD.ERRDCB#
      8852**DCL      9312<<ASSIGN
GETCMD.ERR_CODE
      8841**DCL      9311<<ASSIGN
GETCMD.FPT$
      8990**DCL      9307<<ASSIGN
GETCMD.OUT$
      8698**DCL      8704--REDEF
GETCMD.UTIL$
      8994**DCL      9308<<ASSIGN
XUG$ERRMSG_COMMON
      9297**DCL-ENT  9313--CALL
XUG$OPENOUT_COMMON
      9296**DCL-ENT  9309--CALL

PL6.E3A0      #006=XUG$PRE_PROCESSOR File=XUG$COMMON.:E05TSI                     WED 07/30/97 09:23 Page:451
     2489        1        /*T***********************************************************/
     2490        2        /*T*                                                         */
     2491        3        /*T* Copyright (c) Bull HN Information Systems Inc., 1997    */
     2492        4        /*T*                                                         */
     2493        5        /*T***********************************************************/
     2494        6        XUG$PRE_PROCESSOR: PROC (GETCMD,ARS) ;
     2495        7        /*X* DMC,PLM=4,IND=4,CTI=2,DTI=0,ENI=0,ECI=0,CSI=0,MCI,DCI=4 */
     2496        8
     2497        9    1   DCL ARS SBIN;
     2498       10
     2499       11    1   DCL XUG$ PTR ;
     2500       12        %INCLUDE CP_6;
     2501     5571        %INCLUDE CP_6_SUBS;
     2502     6111        %INCLUDE XU_MACRO_C;
     2503     9217        %INCLUDE XUH_MACRO_C ;
     2504     9301        %INCLUDE XU_SUBS_C;
     2505     9393        %INCLUDE XUE_MACRO_C;
     2506    10137        %XUG_GETCMD (NAME=GETCMD, STCLASS=PARAM) ;
     2507    10475        %XUG_PARAMS;
     2508    10919        %XUE_PPCB  (NAME=CONSTANT_PPCB, STCLASS=CONSTANT, ROOT=XUE_PREEXP);
     2509    11186        %XUE_PPCB  (NAME=AUTO_PPCB, STCLASS=AUTO);
     2510    11453        %XUE_PPCB  (NAME=BASED_PPCB, STCLASS="BASED(PPCB$)");
     2511    11720        %P_PCB  (NAME=P_PCB, STCLASS="BASED(P_PCB$)") ;
     2512    11919        %FPT_GETDCB (FPTN=GET_WORK_DCB_C, STCLASS=CONSTANT, DCBNAME=WORK_DCB_NAME);
     2513    11934        %FPT_GETDCB (FPTN=GET_WORK_DCB, STCLASS=AUTO);
     2514    11949        %FPT_RELDCB (FPTN=RELEASE_WORK_DCB_C, STCLASS=CONSTANT);
     2515    11963        %FPT_GETDCB (FPTN=RELEASE_WORK_DCB, STCLASS=AUTO);
     2516    11978        %VLP_NAME (FPTN=WORK_DCB_NAME, STCLASS=CONSTANT,
     2517    11979                   NAME='GETCMD''s work DCB');
     2518    12006    1   DCL XUE_PREEXP UBIN SYMREF READONLY;
     2519    12007    1   DCL XUE_EXP ENTRY CONV (5);            /* Force UNSAT load of main XUE nodes */
     2520    12008    1   DCL XUE_FUNCTIONS ENTRY CONV (5);       /* Force UNSAT load of aux XUE nodes */
     2521    12009    1   DCL PPCB$ PTR AUTO;
     2522    12010    1   DCL P_PCB$ PTR AUTO ;
     2523    12011    1   DCL SCRATCH UBIN;
     2524    12012    1   DCL TEMP_BUFFER CHAR (300) AUTO;
     2525    12013    1   DCL WORK_DCB_ALLOCATED BIT (1);
PL6.E3A0      #006=XUG$PRE_PROCESSOR File=XUG$COMMON.:E05TSI                     WED 07/30/97 09:23 Page:452
     2526    12014    1   DCL PP_WORK (0:2047) UBIN WORD AUTO;
     2527    12015
     2528    12016    1       XUG$ = GETCMD.WORK$ ;
     2529    12017    1       CALL INDEX (SCRATCH, '%', XUG.BUF)
     2530    12018    2       WHENALTRETURN DO;
     2531    12019
     2532    12020    2           RETURN;
     2533    12021
     2534    12022    2       END;
     2535    12023
     2536    12024    1       P_PCB$ = XUG.P_PCB$ ;
     2537    12025    1       WORK_DCB_ALLOCATED = %NO#;
     2538    12026    1       IF XUG.PPCB$ = ADDR(NIL)
     2539    12027    2       THEN DO;
     2540    12028
     2541    12029    2           PPCB$ = ADDR(AUTO_PPCB);
     2542    12030    2           AUTO_PPCB = CONSTANT_PPCB;
     2543    12031    2           AUTO_PPCB.ECB.WORK$ = ADDR(PP_WORK);
     2544    12032    2           AUTO_PPCB.ECB.WKSZ# = SIZEW(PP_WORK);
     2545    12033    2           AUTO_PPCB.ECB.PROCNAME_ = XUG.PP_PROCNAME_ ;
     2546    12034    2           AUTO_PPCB.ECB.FUN$$ = GETCMD.PP_FUN$$ ;
     2547    12035
     2548    12036    2           IF GETCMD.PP_ROOT$ ~= ADDR(NIL)
     2549    12037    2           THEN
     2550    12038    2               AUTO_PPCB.ROOT$ = GETCMD.PP_ROOT$;
     2551    12039
     2552    12040    2           IF XUG.PP_DCB = DCBNUM(NIL)
     2553    12041    3           THEN DO;
     2554    12042
     2555    12043    3               GET_WORK_DCB = GET_WORK_DCB_C;
     2556    12044    3               GET_WORK_DCB.V_ = VECTOR (GET_WORK_DCB.V);
     2557    12045    3               GET_WORK_DCB.DCBNUM_ = VECTOR (SCRATCH);
     2558    12046
     2559    12047    3               CALL M$GETDCB (GET_WORK_DCB)
     2560    12048    4               WHENRETURN DO;
     2561    12049
     2562    12050    4                   AUTO_PPCB.ECB.WORK_DCB# = SCRATCH;
PL6.E3A0      #006=XUG$PRE_PROCESSOR File=XUG$COMMON.:E05TSI                     WED 07/30/97 09:23 Page:453
     2563    12051    4                   WORK_DCB_ALLOCATED = %YES#;
     2564    12052
     2565    12053    4               END;
     2566    12054
     2567    12055    3           END;
     2568    12056
     2569    12057    2           ELSE
     2570    12058    2               AUTO_PPCB.ECB.WORK_DCB# = XUG.PP_DCB;
     2571    12059
     2572    12060    2       END;
     2573    12061
     2574    12062    1       ELSE
     2575    12063    1           PPCB$ = XUG.PPCB$;
     2576    12064
     2577    12065    1       BASED_PPCB.INBUF$ = ADDR(XUG.BUF);
     2578    12066    1       BASED_PPCB.OUTBUF$ = ADDR(XUG.BUF);
     2579    12067    1       BASED_PPCB.ICHARS# = ARS;
     2580    12068    1       BASED_PPCB.OCHARS# = MINIMUM (XUG.CMDSZ, LENGTHC(XUG.BUF));
     2581    12069
     2582    12070    1       TEMP_BUFFER = XUG.BUF;
     2583    12071
     2584    12072    1       CALL XUG.PREPROCESSOR$$ (BASED_PPCB)
     2585    12073    2       WHENRETURN DO;
     2586    12074
     2587    12075    2           ARS = BASED_PPCB.RCHARS#;
     2588    12076
     2589    12077    2       END;
     2590    12078
     2591    12079    2       WHENALTRETURN DO;
     2592    12080
     2593    12081    2           XUG.BUF = TEMP_BUFFER;
     2594    12082    2           XUG.PP_ERR = BASED_PPCB.ECB.ERR;
     2595    12083
     2596    12084    2           P_PCB.HI_CHAR = XUG.CPOS + BASED_PPCB.ECB.ERR_POS#;
     2597    12085
     2598    12086    2       END;
     2599    12087
PL6.E3A0      #006=XUG$PRE_PROCESSOR File=XUG$COMMON.:E05TSI                     WED 07/30/97 09:23 Page:454
     2600    12088    1       IF WORK_DCB_ALLOCATED
     2601    12089    2       THEN DO;
     2602    12090
     2603    12091    2           RELEASE_WORK_DCB = RELEASE_WORK_DCB_C;
     2604    12092    2           RELEASE_WORK_DCB.V_ = VECTOR (RELEASE_WORK_DCB.V);
     2605    12093    2           RELEASE_WORK_DCB.V.DCB# = SCRATCH;
     2606    12094
     2607    12095    2           CALL M$RELDCB (RELEASE_WORK_DCB)
     2608    12096    3           WHENALTRETURN DO; END;            /* Ignore error when releasing DCB */
     2609    12097
     2610    12098    2       END;
     2611    12099
     2612    12100    1       RETURN;
     2613    12101
     2614    12102    1   END XUG$PRE_PROCESSOR;
     2615    12103        %EOD;

PL6.E3A0      #006=XUG$PRE_PROCESSOR File=XUG$COMMON.:E05TSI                     WED 07/30/97 09:23 Page:455
--  Include file information  --

   XUE_MACRO_C.:E05TOU  is referenced.
   XU_SUBS_C.:E05TOU  is referenced.
   XUH_MACRO_C.:E05TOU  is referenced.
   XU_MACRO_C.:E05TOU  is referenced.
   CP_6_SUBS.:E05TOU  is referenced.
   CP_6_C.:E05TOU  is referenced.
   CP_6.:E05TOU  cannot be made into a system file and is referenced.
      No diagnostics issued in procedure XUG$PRE_PROCESSOR.

   Procedure XUG$PRE_PROCESSOR requires 121 words for executable code.
   Procedure XUG$PRE_PROCESSOR requires 2186 words of local(AUTO) storage.

PL6.E3A0      #006=XUG$PRE_PROCESSOR File=XUG$COMMON.:E05TSI                     WED 07/30/97 09:23 Page:456

 Object Unit name= XUG$PRE_PROCESSOR                          File name= XUG$COMMON.:E05TOU
 UTS= JUL 30 '97 09:23:24.16 WED                              Compiler= PL-6/E31         Sev=      00
 SharedLib= :SHARED_SYSTEM                                    Alt SharedLib=


    ****  Control sections  ****

 Sect   Type Bound  Init  Size OctSiz  Section name(segment info)
    0   DCB   even  none     0      0  M$UC
    1  RoData even  UTS     51     63  XUG$PRE_PROCESSOR
    2   Proc  even  none   121    171  XUG$PRE_PROCESSOR
    3  RoData even  none     2      2  XUG$PRE_PROCESSOR

    ****  Entry defs  ****

                              Check   Calling
                             calling  sequence
  Sect OctLoc Primary Altret sequence   type   Parms  Name
     2      0   yes            yes      Std        2  XUG$PRE_PROCESSOR

  ****  Entry refs  ****

         Check        Calling
        calling       sequence
Altret sequence SRef   type   Args  Name
         yes          ~proc      0 XUE_EXP
         yes          ~proc      0 XUE_FUNCTIONS
                       nStd      0 X66_AUTO_2
                       nStd      0 X66_ARET
                       Std       0 B_CONSPOOL_D

  ****  Data refs  ****

  Flags:  r = read only, s = secondary
Flgs Name                             Flgs Name                             Flgs Name
     M$UC                             r    XUE_PREEXP                            B_VECTNIL
PL6.E3A0      #006=XUG$PRE_PROCESSOR File=XUG$COMMON.:E05TSI                     WED 07/30/97 09:23 Page:457

  ****  Segment refs  ****

  Flags:  r = read only, s = secondary
Flgs Name                             Flgs Name                             Flgs Name
     NULLSID                               ISSID
PL6.E3A0      #006=XUG$PRE_PROCESSOR File=XUG$COMMON.:E05TSI                     WED 07/30/97 09:23 Page:458


     2489        1        /*T***********************************************************/
     2490        2        /*T*                                                         */
     2491        3        /*T* Copyright (c) Bull HN Information Systems Inc., 1997    */
     2492        4        /*T*                                                         */
     2493        5        /*T***********************************************************/
     2494        6        XUG$PRE_PROCESSOR: PROC (GETCMD,ARS) ;

      6  2 000000   000000 700200 xent  XUG$PRE_PRO* TSX0  ! X66_AUTO_2
         2 000001   004212 000002                    ZERO    2186,2

     2495        7        /*X* DMC,PLM=4,IND=4,CTI=2,DTI=0,ENI=0,ECI=0,CSI=0,MCI,DCI=4 */
     2496        8
     2497        9    1   DCL ARS SBIN;
     2498       10
     2499       11    1   DCL XUG$ PTR ;
     2500       12        %INCLUDE CP_6;
     2501     5571        %INCLUDE CP_6_SUBS;
     2502     6111        %INCLUDE XU_MACRO_C;
     2503     9217        %INCLUDE XUH_MACRO_C ;
     2504     9301        %INCLUDE XU_SUBS_C;
     2505     9393        %INCLUDE XUE_MACRO_C;
     2506    10137        %XUG_GETCMD (NAME=GETCMD, STCLASS=PARAM) ;
     2507    10475        %XUG_PARAMS;
     2508    10919        %XUE_PPCB  (NAME=CONSTANT_PPCB, STCLASS=CONSTANT, ROOT=XUE_PREEXP);
     2509    11186        %XUE_PPCB  (NAME=AUTO_PPCB, STCLASS=AUTO);
     2510    11453        %XUE_PPCB  (NAME=BASED_PPCB, STCLASS="BASED(PPCB$)");
     2511    11720        %P_PCB  (NAME=P_PCB, STCLASS="BASED(P_PCB$)") ;
     2512    11919        %FPT_GETDCB (FPTN=GET_WORK_DCB_C, STCLASS=CONSTANT, DCBNAME=WORK_DCB_NAME);
     2513    11934        %FPT_GETDCB (FPTN=GET_WORK_DCB, STCLASS=AUTO);
     2514    11949        %FPT_RELDCB (FPTN=RELEASE_WORK_DCB_C, STCLASS=CONSTANT);
     2515    11963        %FPT_GETDCB (FPTN=RELEASE_WORK_DCB, STCLASS=AUTO);
     2516    11978        %VLP_NAME (FPTN=WORK_DCB_NAME, STCLASS=CONSTANT,
     2517    11979                   NAME='GETCMD''s work DCB');
     2518    12006    1   DCL XUE_PREEXP UBIN SYMREF READONLY;
     2519    12007    1   DCL XUE_EXP ENTRY CONV (5);            /* Force UNSAT load of main XUE nodes */
     2520    12008    1   DCL XUE_FUNCTIONS ENTRY CONV (5);       /* Force UNSAT load of aux XUE nodes */
PL6.E3A0      #006=XUG$PRE_PROCESSOR File=XUG$COMMON.:E05TSI                     WED 07/30/97 09:23 Page:459
     2521    12009    1   DCL PPCB$ PTR AUTO;
     2522    12010    1   DCL P_PCB$ PTR AUTO ;
     2523    12011    1   DCL SCRATCH UBIN;
     2524    12012    1   DCL TEMP_BUFFER CHAR (300) AUTO;
     2525    12013    1   DCL WORK_DCB_ALLOCATED BIT (1);
     2526    12014    1   DCL PP_WORK (0:2047) UBIN WORD AUTO;
     2527    12015
     2528    12016    1       XUG$ = GETCMD.WORK$ ;

  12016  2 000002   200003 470500                    LDP0    @GETCMD,,AUTO
         2 000003   000004 236100                    LDQ     4,,PR0
         2 000004   200005 756100                    STQ     XUG$,,AUTO

     2529    12017    1       CALL INDEX (SCRATCH, '%', XUG.BUF)

  12017  2 000005   200005 471500                    LDP1    XUG$,,AUTO
         2 000006   000000 124500                    SCM     mask='000'O
         2 000007   100300 000454                    ADSC9   192,,PR1                 cn=0,n=300
         2 000010   000000 000001 3                  ADSC9   0                        cn=0,n=1
         2 000011   200072 000100                    ARG     SCRATCH,,AUTO
         2 000012   000014 606400 2                  TTN     s:12020
         2 000013   000015 710000 2                  TRA     s:12024

     2530    12018    2       WHENALTRETURN DO;

     2531    12019
     2532    12020    2           RETURN;

  12020  2 000014   000000 702200 xent               TSX2  ! X66_ARET

     2533    12021
     2534    12022    2       END;
     2535    12023
     2536    12024    1       P_PCB$ = XUG.P_PCB$ ;

  12024  2 000015   100072 236100                    LDQ     58,,PR1
         2 000016   200071 756100                    STQ     P_PCB$,,AUTO
PL6.E3A0      #006=XUG$PRE_PROCESSOR File=XUG$COMMON.:E05TSI                     WED 07/30/97 09:23 Page:460

     2537    12025    1       WORK_DCB_ALLOCATED = %NO#;

  12025  2 000017   200206 450100                    STZ     WORK_DCB_ALLOCATED,,AUTO

     2538    12026    1       IF XUG.PPCB$ = ADDR(NIL)

  12026  2 000020   100073 236100                    LDQ     59,,PR1
         2 000021   000001 116000 xsym               CMPQ    B_VECTNIL+1
         2 000022   000076 601000 2                  TNZ     s:12063

     2539    12027    2       THEN DO;

     2540    12028
     2541    12029    2           PPCB$ = ADDR(AUTO_PPCB);

  12029  2 000023   200006 633500                    EPPR3   AUTO_PPCB,,AUTO
         2 000024   200070 453500                    STP3    PPCB$,,AUTO

     2542    12030    2           AUTO_PPCB = CONSTANT_PPCB;

  12030  2 000025   000100 100400                    MLR     fill='000'O
         2 000026   000000 000210 1                  ADSC9   CONSTANT_PPCB            cn=0,n=136
         2 000027   200006 000210                    ADSC9   AUTO_PPCB,,AUTO          cn=0,n=136

     2543    12031    2           AUTO_PPCB.ECB.WORK$ = ADDR(PP_WORK);

  12031  2 000030   200207 634500                    EPPR4   PP_WORK,,AUTO
         2 000031   200015 454500                    STP4    AUTO_PPCB+7,,AUTO

     2544    12032    2           AUTO_PPCB.ECB.WKSZ# = SIZEW(PP_WORK);

  12032  2 000032   004000 235007                    LDA     2048,DL
         2 000033   200016 755100                    STA     AUTO_PPCB+8,,AUTO

     2545    12033    2           AUTO_PPCB.ECB.PROCNAME_ = XUG.PP_PROCNAME_ ;

PL6.E3A0      #006=XUG$PRE_PROCESSOR File=XUG$COMMON.:E05TSI                     WED 07/30/97 09:23 Page:461
  12033  2 000034   100074 237100                    LDAQ    60,,PR1
         2 000035   200026 757100                    STAQ    AUTO_PPCB+16,,AUTO

     2546    12034    2           AUTO_PPCB.ECB.FUN$$ = GETCMD.PP_FUN$$ ;

  12034  2 000036   000031 236100                    LDQ     25,,PR0
         2 000037   200021 756100                    STQ     AUTO_PPCB+11,,AUTO

     2547    12035
     2548    12036    2           IF GETCMD.PP_ROOT$ ~= ADDR(NIL)

  12036  2 000040   000045 236100                    LDQ     37,,PR0
         2 000041   000001 116000 xsym               CMPQ    B_VECTNIL+1
         2 000042   000044 600000 2                  TZE     s:12040

     2549    12037    2           THEN
     2550    12038    2               AUTO_PPCB.ROOT$ = GETCMD.PP_ROOT$;

  12038  2 000043   200013 756100                    STQ     AUTO_PPCB+5,,AUTO

     2551    12039
     2552    12040    2           IF XUG.PP_DCB = DCBNUM(NIL)

  12040  2 000044   100077 235100                    LDA     63,,PR1
         2 000045   000074 601000 2                  TNZ     s:12058

     2553    12041    3           THEN DO;

     2554    12042
     2555    12043    3               GET_WORK_DCB = GET_WORK_DCB_C;

  12043  2 000046   000100 100400                    MLR     fill='000'O
         2 000047   000042 000040 1                  ADSC9   GET_WORK_DCB_C           cn=0,n=32
         2 000050   200050 000040                    ADSC9   GET_WORK_DCB,,AUTO       cn=0,n=32

     2556    12044    3               GET_WORK_DCB.V_ = VECTOR (GET_WORK_DCB.V);

PL6.E3A0      #006=XUG$PRE_PROCESSOR File=XUG$COMMON.:E05TSI                     WED 07/30/97 09:23 Page:462
  12044  2 000051   000001 235000 3                  LDA     1
         2 000052   204210 452500                    STP2    PP_WORK+2049,,AUTO
         2 000053   204210 236100                    LDQ     PP_WORK+2049,,AUTO
         2 000054   000056 036003                    ADLQ    46,DU
         2 000055   200050 757100                    STAQ    GET_WORK_DCB,,AUTO

     2557    12045    3               GET_WORK_DCB.DCBNUM_ = VECTOR (SCRATCH);

  12045  2 000056   777640 235007                    LDA     -96,DL
         2 000057   204210 452500                    STP2    PP_WORK+2049,,AUTO
         2 000060   204210 236100                    LDQ     PP_WORK+2049,,AUTO
         2 000061   000072 036003                    ADLQ    58,DU
         2 000062   200054 757100                    STAQ    GET_WORK_DCB+4,,AUTO

     2558    12046
     2559    12047    3               CALL M$GETDCB (GET_WORK_DCB)

  12047  2 000063   200050 630500                    EPPR0   GET_WORK_DCB,,AUTO
         2 000064   460002 713400                    CLIMB   alt,+24578
         2 000065   401000 401760                    pmme    nvectors=3
         2 000066   000073 702000 2                  TSX2    s:12055

     2560    12048    4               WHENRETURN DO;

     2561    12049
     2562    12050    4                   AUTO_PPCB.ECB.WORK_DCB# = SCRATCH;

  12050  2 000067   200072 235100                    LDA     SCRATCH,,AUTO
         2 000070   200017 755100                    STA     AUTO_PPCB+9,,AUTO

     2563    12051    4                   WORK_DCB_ALLOCATED = %YES#;

  12051  2 000071   400000 236003                    LDQ     -131072,DU
         2 000072   200206 756100                    STQ     WORK_DCB_ALLOCATED,,AUTO

     2564    12052
     2565    12053    4               END;
PL6.E3A0      #006=XUG$PRE_PROCESSOR File=XUG$COMMON.:E05TSI                     WED 07/30/97 09:23 Page:463

     2566    12054
     2567    12055    3           END;

  12055  2 000073   000077 710000 2                  TRA     s:12065

     2568    12056
     2569    12057    2           ELSE
     2570    12058    2               AUTO_PPCB.ECB.WORK_DCB# = XUG.PP_DCB;

  12058  2 000074   200017 755100                    STA     AUTO_PPCB+9,,AUTO

     2571    12059
     2572    12060    2       END;

  12060  2 000075   000077 710000 2                  TRA     s:12065

     2573    12061
     2574    12062    1       ELSE
     2575    12063    1           PPCB$ = XUG.PPCB$;

  12063  2 000076   200070 756100                    STQ     PPCB$,,AUTO

     2576    12064
     2577    12065    1       BASED_PPCB.INBUF$ = ADDR(XUG.BUF);

  12065  2 000077   200005 236100                    LDQ     XUG$,,AUTO
         2 000100   000300 036003                    ADLQ    192,DU
         2 000101   200070 470500                    LDP0    PPCB$,,AUTO
         2 000102   000000 756100                    STQ     0,,PR0

     2578    12066    1       BASED_PPCB.OUTBUF$ = ADDR(XUG.BUF);

  12066  2 000103   000002 756100                    STQ     2,,PR0

     2579    12067    1       BASED_PPCB.ICHARS# = ARS;

PL6.E3A0      #006=XUG$PRE_PROCESSOR File=XUG$COMMON.:E05TSI                     WED 07/30/97 09:23 Page:464
  12067  2 000104   200004 471500                    LDP1    @ARS,,AUTO
         2 000105   100000 235100                    LDA     0,,PR1
         2 000106   000001 755100                    STA     1,,PR0

     2580    12068    1       BASED_PPCB.OCHARS# = MINIMUM (XUG.CMDSZ, LENGTHC(XUG.BUF));

  12068  2 000107   000454 236007                    LDQ     300,DL
         2 000110   200005 473500                    LDP3    XUG$,,AUTO
         2 000111   300111 116100                    CMPQ    73,,PR3
         2 000112   000115 602000 2                  TNC     s:12068+6
         2 000113   000115 600000 2                  TZE     s:12068+6
         2 000114   300111 236100                    LDQ     73,,PR3
         2 000115   000003 756100                    STQ     3,,PR0

     2581    12069
     2582    12070    1       TEMP_BUFFER = XUG.BUF;

  12070  2 000116   040100 100500                    MLR     fill='040'O
         2 000117   300300 000454                    ADSC9   192,,PR3                 cn=0,n=300
         2 000120   200073 000454                    ADSC9   TEMP_BUFFER,,AUTO        cn=0,n=300

     2583    12071
     2584    12072    1       CALL XUG.PREPROCESSOR$$ (BASED_PPCB)

  12072  2 000121   200070 630500                    EPPR0   PPCB$,,AUTO
         2 000122   300023 220100                    LDX0    19,,PR3
         2 000123   000017 631400 xsym               EPPR1   B_VECTNIL+15
         2 000124   000000 701010                    TSX1    0,X0
         2 000125   000133 702000 2                  TSX2    s:12081

     2585    12073    2       WHENRETURN DO;

     2586    12074
     2587    12075    2           ARS = BASED_PPCB.RCHARS#;

  12075  2 000126   200070 470500                    LDP0    PPCB$,,AUTO
         2 000127   000004 235100                    LDA     4,,PR0
PL6.E3A0      #006=XUG$PRE_PROCESSOR File=XUG$COMMON.:E05TSI                     WED 07/30/97 09:23 Page:465
         2 000130   200004 471500                    LDP1    @ARS,,AUTO
         2 000131   100000 755100                    STA     0,,PR1

     2588    12076
     2589    12077    2       END;

  12077  2 000132   000147 710000 2                  TRA     s:12088

     2590    12078
     2591    12079    2       WHENALTRETURN DO;

     2592    12080
     2593    12081    2           XUG.BUF = TEMP_BUFFER;

  12081  2 000133   200005 470500                    LDP0    XUG$,,AUTO
         2 000134   040100 100500                    MLR     fill='040'O
         2 000135   200073 000454                    ADSC9   TEMP_BUFFER,,AUTO        cn=0,n=300
         2 000136   000300 000454                    ADSC9   192,,PR0                 cn=0,n=300

     2594    12082    2           XUG.PP_ERR = BASED_PPCB.ECB.ERR;

  12082  2 000137   200070 471500                    LDP1    PPCB$,,AUTO
         2 000140   100017 236100                    LDQ     15,,PR1
         2 000141   000100 756100                    STQ     64,,PR0

     2595    12083
     2596    12084    2           P_PCB.HI_CHAR = XUG.CPOS + BASED_PPCB.ECB.ERR_POS#;

  12084  2 000142   100016 236100                    LDQ     14,,PR1
         2 000143   000022 772000                    QRL     18
         2 000144   000104 036100                    ADLQ    68,,PR0
         2 000145   200071 473500                    LDP3    P_PCB$,,AUTO
         2 000146   300012 756100                    STQ     10,,PR3

     2597    12085
     2598    12086    2       END;

PL6.E3A0      #006=XUG$PRE_PROCESSOR File=XUG$COMMON.:E05TSI                     WED 07/30/97 09:23 Page:466
     2599    12087
     2600    12088    1       IF WORK_DCB_ALLOCATED

  12088  2 000147   200206 234100                    SZN     WORK_DCB_ALLOCATED,,AUTO
         2 000150   000170 605000 2                  TPL     s:12100

     2601    12089    2       THEN DO;

     2602    12090
     2603    12091    2           RELEASE_WORK_DCB = RELEASE_WORK_DCB_C;

  12091  2 000151   000100 100400                    MLR     fill='000'O
         2 000152   000052 000020 1                  ADSC9   RELEASE_WORK_DCB_C       cn=0,n=16
         2 000153   200060 000040                    ADSC9   RELEASE_WORK_DCB,,AUTO   cn=0,n=32

     2604    12092    2           RELEASE_WORK_DCB.V_ = VECTOR (RELEASE_WORK_DCB.V);

  12092  2 000154   000001 235000 3                  LDA     1
         2 000155   204210 452500                    STP2    PP_WORK+2049,,AUTO
         2 000156   204210 236100                    LDQ     PP_WORK+2049,,AUTO
         2 000157   000066 036003                    ADLQ    54,DU
         2 000160   200060 757100                    STAQ    RELEASE_WORK_DCB,,AUTO

     2605    12093    2           RELEASE_WORK_DCB.V.DCB# = SCRATCH;

  12093  2 000161   200072 720100                    LXL0    SCRATCH,,AUTO
         2 000162   200066 740100                    STX0    RELEASE_WORK_DCB+6,,AUTO

     2606    12094
     2607    12095    2           CALL M$RELDCB (RELEASE_WORK_DCB)

  12095  2 000163   200060 630500                    EPPR0   RELEASE_WORK_DCB,,AUTO
         2 000164   460003 713400                    CLIMB   alt,+24579
         2 000165   400000 401760                    pmme    nvectors=1
         2 000166   000170 702000 2                  TSX2    s:12100
         2 000167   000170 710000 2                  TRA     s:12100

PL6.E3A0      #006=XUG$PRE_PROCESSOR File=XUG$COMMON.:E05TSI                     WED 07/30/97 09:23 Page:467
     2608    12096    3           WHENALTRETURN DO; END;            /* Ignore error when releasing DCB */

     2609    12097
     2610    12098    2       END;

     2611    12099
     2612    12100    1       RETURN;

  12100  2 000170   000000 702200 xent               TSX2  ! X66_ARET
     2613    12101
     2614    12102    1   END XUG$PRE_PROCESSOR;
     2615    12103        %EOD;

PL6.E3A0      #006=XUG$PRE_PROCESSOR File=XUG$COMMON.:E05TSI                     WED 07/30/97 09:23 Page:468
--  Include file information  --

   XUE_MACRO_C.:E05TOU  is referenced.
   XU_SUBS_C.:E05TOU  is referenced.
   XUH_MACRO_C.:E05TOU  is referenced.
   XU_MACRO_C.:E05TOU  is referenced.
   CP_6_SUBS.:E05TOU  is referenced.
   CP_6_C.:E05TOU  is referenced.
   CP_6.:E05TOU  cannot be made into a system file and is referenced.
      No diagnostics issued in procedure XUG$PRE_PROCESSOR.
PL6.E3A0      #006=XUG$PRE_PROCESSOR File=XUG$COMMON.:E05TSI                     WED 07/30/97 09:23 Page:469

 **** Variables and constants ****

  ****  Section 001 RoData XUG$PRE_PROCESSOR

  ****  Scalars and arrays  ****
OctLoc.c.b A Datatyp(siz) R M Lvl/name                 OctLoc.c.b A Datatyp(siz) R M Lvl/name

     0-0-0/d STRC(1224)  r     1 CONSTANT_PPCB             42-0-0/d STRC(288)   r     1 GET_WORK_DCB_C
    52-0-0/d STRC(144)   r     1 RELEASE_WORK_DCB_C        56-0-0/c STRC(162)   r     1 WORK_DCB_NAME

  ****  Auto variables  ****

  ****  Scalars and arrays  ****
OctLoc.c.b A Datatyp(siz) R M Lvl/name                 OctLoc.c.b A Datatyp(siz) R M Lvl/name

     4-0-0/w PTR         r     1 @ARS                       3-0-0/w PTR         r     1 @GETCMD
    *0-0-0/w SBIN        r     1 ARS                        6-0-0/d STRC(1224)  r     1 AUTO_PPCB
    *0-0-0/d STRC(1512)  r     1 GETCMD                    50-0-0/d STRC(288)   r     1 GET_WORK_DCB
    70-0-0/w PTR         r     1 PPCB$                    207-0-0/w UBIN        r     1 PP_WORK(0:2047)
    71-0-0/w PTR         r     1 P_PCB$                    60-0-0/d STRC(288)   r     1 RELEASE_WORK_DCB
    72-0-0/w UBIN        r     1 SCRATCH                   73-0-0/c CHAR(300)   r     1 TEMP_BUFFER
   206-0-0/b BIT         r     1 WORK_DCB_ALLOCATED         5-0-0/w PTR         r     1 XUG$

  ****  SYMREF variables  ****

  ****  Scalars and arrays  ****
OctLoc.c.b A Datatyp(siz) R M Lvl/name                 OctLoc.c.b A Datatyp(siz) R M Lvl/name

     0-0-0/w UBIN        r     1 XUE_PREEXP

  ****  BASED and DCB variables  ****

  ****  Scalars and arrays  ****
OctLoc.c.b A Datatyp(siz) R M Lvl/name                 OctLoc.c.b A Datatyp(siz) R M Lvl/name

     0-0-0/d STRC(1224)  r     1 BASED_PPCB                 0-0-0/w STRC(504)   r     1 P_PCB
     0-0-0/d STRC(9612)  r     1 XUG
PL6.E3A0      #006=XUG$PRE_PROCESSOR File=XUG$COMMON.:E05TSI                     WED 07/30/97 09:23 Page:470


   Procedure XUG$PRE_PROCESSOR requires 121 words for executable code.
   Procedure XUG$PRE_PROCESSOR requires 2186 words of local(AUTO) storage.
PL6.E3A0      #006=XUG$PRE_PROCESSOR File=XUG$COMMON.:E05TSI                     WED 07/30/97 09:23 Page:471
          *** CROSS REFERENCE LISTING ***
**     DENOTES     IDENTIFIER DEFINITION
<<                 IDENTIFIER'S VALUE SET
>>                 IDENTIFIER'S VALUE USED
<>                 IDENTIFIER SET AND/OR USED
--                 IDENTIFIER REFERENCED
PL6.E3A0      #006=XUG$PRE_PROCESSOR File=XUG$COMMON.:E05TSI                     WED 07/30/97 09:23 Page:472
          MINI XREF LISTING

ARS
         9**DCL         6--PROC    12067>>ASSIGN  12075<<ASSIGN
AUTO_PPCB
     11201**DCL     12029--ASSIGN  12030<<ASSIGN
AUTO_PPCB.ECB.FUN$$
     11303**DCL     12034<<ASSIGN
AUTO_PPCB.ECB.PROCNAME_
     11363**DCL     12033<<ASSIGN
AUTO_PPCB.ECB.WKSZ#
     11279**DCL     12032<<ASSIGN
AUTO_PPCB.ECB.WORK$
     11274**DCL     12031<<ASSIGN
AUTO_PPCB.ECB.WORK_DCB#
     11286**DCL     12050<<ASSIGN  12058<<ASSIGN
AUTO_PPCB.ROOT$
     11238**DCL     12038<<ASSIGN
BASED_PPCB
     11468**DCL     12072<>CALL
BASED_PPCB.ECB.ERR
     11615**DCL     12082>>ASSIGN
BASED_PPCB.ECB.ERR_POS#
     11598**DCL     12084>>ASSIGN
BASED_PPCB.ICHARS#
     11477**DCL     12067<<ASSIGN
BASED_PPCB.INBUF$
     11472**DCL     12065<<ASSIGN
BASED_PPCB.OCHARS#
     11491**DCL     12068<<ASSIGN
BASED_PPCB.OUTBUF$
     11484**DCL     12066<<ASSIGN
BASED_PPCB.RCHARS#
     11498**DCL     12075>>ASSIGN
PL6.E3A0      #006=XUG$PRE_PROCESSOR File=XUG$COMMON.:E05TSI                     WED 07/30/97 09:23 Page:473
CONSTANT_PPCB
     10934**DCL     12030>>ASSIGN
GETCMD
     10150**DCL         6--PROC
GETCMD.OUT$
     10155**DCL     10161--REDEF
GETCMD.PP_FUN$$
     10368**DCL     12034>>ASSIGN
GETCMD.PP_ROOT$
     10455**DCL     12036>>IF      12038>>ASSIGN
GETCMD.WORK$
     10183**DCL     12016>>ASSIGN
GET_WORK_DCB
     11945**DCL     12043<<ASSIGN  12047<>CALL
GET_WORK_DCB.DCBNUM_
     11945**DCL     12045<<ASSIGN
GET_WORK_DCB.V
     11946**DCL     12044--ASSIGN
GET_WORK_DCB.V_
     11945**DCL     12044<<ASSIGN
GET_WORK_DCB_C
     11930**DCL     12043>>ASSIGN
GET_WORK_DCB_C.V
     11931**DCL     11930--DCLINIT
M$GETDCB
      5505**DCL-ENT 12047--CALL
M$RELDCB
      5505**DCL-ENT 12095--CALL
PPCB$
     12009**DCL     11468--IMP-PTR 12029<<ASSIGN  12063<<ASSIGN  12065>>ASSIGN  12066>>ASSIGN  12067>>ASSIGN
     12068>>ASSIGN  12072>>CALL    12075>>ASSIGN  12082>>ASSIGN  12084>>ASSIGN
PP_WORK
     12014**DCL     12031--ASSIGN  12032--ASSIGN
P_PCB.HI_CHAR
     11889**DCL     12084<<ASSIGN
P_PCB$
PL6.E3A0      #006=XUG$PRE_PROCESSOR File=XUG$COMMON.:E05TSI                     WED 07/30/97 09:23 Page:474
     12010**DCL     11738--IMP-PTR 12024<<ASSIGN  12084>>ASSIGN
RELEASE_WORK_DCB
     11974**DCL     12091<<ASSIGN  12095<>CALL
RELEASE_WORK_DCB.V
     11975**DCL     12092--ASSIGN
RELEASE_WORK_DCB.V.DCB#
     11975**DCL     12093<<ASSIGN
RELEASE_WORK_DCB.V_
     11974**DCL     12092<<ASSIGN
RELEASE_WORK_DCB_C
     11960**DCL     12091>>ASSIGN
RELEASE_WORK_DCB_C.V
     11960**DCL     11960--DCLINIT
SCRATCH
     12011**DCL     12017<<CALLBLT 12045--ASSIGN  12050>>ASSIGN  12093>>ASSIGN
TEMP_BUFFER
     12012**DCL     12070<<ASSIGN  12081>>ASSIGN
WORK_DCB_ALLOCATED
     12013**DCL     12025<<ASSIGN  12051<<ASSIGN  12088>>IF
WORK_DCB_NAME
     12004**DCL     11930--DCLINIT
XUE_PREEXP
     12006**DCL     10971--DCLINIT
XUG.BUF
     10914**DCL     10917--REDEF   12017>>CALLBLT 12065--ASSIGN  12066--ASSIGN  12068--ASSIGN  12070>>ASSIGN
     12081<<ASSIGN
XUG.CMDSZ
     10765**DCL     12068>>ASSIGN
XUG.CPOS
     10746**DCL     12084>>ASSIGN
XUG.PPCB$
     10712**DCL     12026>>IF      12063>>ASSIGN
XUG.PP_DCB
     10724**DCL     12040>>IF      12058>>ASSIGN
XUG.PP_ERR
     10728**DCL     12082<<ASSIGN
PL6.E3A0      #006=XUG$PRE_PROCESSOR File=XUG$COMMON.:E05TSI                     WED 07/30/97 09:23 Page:475
XUG.PP_PROCNAME_
     10715**DCL     12033>>ASSIGN
XUG.PREPROCESSOR$$
     10516**DCL     12072>>CALL
XUG.P_PCB$
     10709**DCL     12024>>ASSIGN
XUG$
        11**DCL     10478--IMP-PTR 12016<<ASSIGN  12017>>CALLBLT 12024>>ASSIGN  12026>>IF      12033>>ASSIGN
     12040>>IF      12058>>ASSIGN  12063>>ASSIGN  12065>>ASSIGN  12066>>ASSIGN  12068>>ASSIGN  12070>>ASSIGN
     12072>>CALL    12081>>ASSIGN  12082>>ASSIGN  12084>>ASSIGN

PL6.E3A0      #007=XUG$PP_CMDVARS File=XUG$COMMON.:E05TSI                        WED 07/30/97 09:23 Page:476
     2616        1        /*T***********************************************************/
     2617        2        /*T*                                                         */
     2618        3        /*T* Copyright (c) Bull HN Information Systems Inc., 1997    */
     2619        4        /*T*                                                         */
     2620        5        /*T***********************************************************/
     2621        6        XUG$PP_CMDVARS: PROC( GETCMD , ARS );
     2622        7        /*X* DMC,PLM=4,IND=4,CTI=2,DTI=0,ENI=0,ECI=0,CSI=0,MCI,DCI=4 */
     2623        8
     2624        9    1   DCL ARS SBIN;
     2625       10
     2626       11    1   DCL XUG$ PTR ;
     2627       12        %INCLUDE CP_6;
     2628     5571        %INCLUDE CP_6_SUBS;
     2629     6111        %INCLUDE XU_MACRO_C;
     2630     9217        %INCLUDE XU_PERR_C;
     2631     9408        %INCLUDE XU_DATA_R;
     2632     9419        %INCLUDE XUH_MACRO_C;
     2633     9503        %XUG_GETCMD( NAME= GETCMD , STCLASS=PARAM );
     2634     9841        %XUG_PARAMS;
     2635    10285        %P_PCB( NAME= P$PCB , STCLASS=BASED );
     2636    10484        %FPT_CMDVAR( STCLASS=AUTO );
     2637    10501        %FPT_CMDVAR( FPTN= FPT_CMDVAR_C , STCLASS=CONSTANT, FUN=FETCH );
     2638    10518        %VLP_ERRCODE( FPTN=XUG#PP_TRUNC, STCLASS=CONSTANT, FCG=XU, MID=G,
     2639    10519                      ERR#=%E$XUG#PP_TRUNC );
     2640    10564    1   DCL 1 TVAL ,
     2641    10565    1         2 LEN UBIN BYTE CALIGNED ,
     2642    10566    1         2 TXT CHAR( 300 );
     2643    10567    1   DCL 1 TNAM ,
     2644    10568    1         2 LEN UBIN BYTE CALIGNED ,
     2645    10569    1         2 TXT CHAR( 31 );
     2646    10570    1   DCL TBUF CHAR( 300 );
     2647    10571    1   DCL PPOS SBIN ;
     2648    10572    1   DCL START SBIN ;
     2649    10573    1   DCL NLEN SBIN ;
     2650    10574    1   DCL VLEN SBIN ;
     2651    10575    1   DCL XLEN SBIN ;
     2652    10576        %EJECT;
PL6.E3A0      #007=XUG$PP_CMDVARS File=XUG$COMMON.:E05TSI                        WED 07/30/97 09:23 Page:477
     2653    10577    1       XUG$ = GETCMD.WORK$ ;
     2654    10578    1       CALL INDEX( PPOS , '%' , SUBSTR( XUG.BUF , 0 , ARS ))
     2655    10579    2       WHENALTRETURN DO;
     2656    10580    2           RETURN ;
     2657    10581    2       END/*WHENALT*/;
     2658    10582
     2659    10583    1       FPT_CMDVAR = FPT_CMDVAR_C ;
     2660    10584    1       FPT_CMDVAR.V_ = VECTOR( FPT_CMDVAR.V );
     2661    10585    1       FPT_CMDVAR.VALUE_ = VECTOR( TVAL );
     2662    10586    1       FPT_CMDVAR.NAME_ = VECTOR( TNAM );
     2663    10587
     2664    10588    2       DO WHILE PPOS < ARS ;
     2665    10589    2           START = PPOS + 1 ;
     2666    10590    2           NLEN = 0 ;
     2667    10591    3           DO WHILE START + NLEN < ARS ;
     2668    10592    3               IF SYMTTBL.PL6SYM( ASCBIN( XUG.BUFA( START + NLEN ))) = %NO#
     2669    10593    3               THEN
     2670    10594    3                   EXIT ;
     2671    10595    3               NLEN = NLEN + 1 ;
     2672    10596    3           END/*WHILE*/;
     2673    10597    2           IF NLEN > 0 AND NLEN < 32
     2674    10598    3           THEN DO;
     2675    10599    3               IF PPOS > 0
     2676    10600    3                 AND XUG.BUFA( PPOS - 1 ) = '%'
     2677    10601    4               THEN DO;
     2678    10602    4                   SUBSTR( XUG.BUF , PPOS , ARS - START ) =
     2679    10603    4                     SUBSTR( XUG.BUF , START , ARS - START );
     2680    10604    4                   ARS = ARS - 1 ;
     2681    10605    4                   PPOS = PPOS + NLEN ;
     2682    10606    4               END/*IF*/;
     2683    10607    4               ELSE DO;
     2684    10608    4                   TNAM.LEN = NLEN ;
     2685    10609    4                   TNAM.TXT = SUBSTR( XUG.BUF , START , NLEN );
     2686    10610    4                   CALL M$CMDVAR( FPT_CMDVAR )
     2687    10611    5                   WHENRETURN DO;
     2688    10612    5                       XLEN = ARS - PPOS - NLEN - 1 ;
     2689    10613    5                       IF XLEN > 0
PL6.E3A0      #007=XUG$PP_CMDVARS File=XUG$COMMON.:E05TSI                        WED 07/30/97 09:23 Page:478
     2690    10614    5                       THEN
     2691    10615    5                           SUBSTR( TBUF , 0 , XLEN ) =
     2692    10616    5                             SUBSTR( XUG.BUF , ARS - XLEN , XLEN );
     2693    10617    5                       VLEN = TVAL.LEN ;
     2694    10618    5                       IF VLEN > 0
     2695    10619    5                       THEN
     2696    10620    5                           CALL INSERT( XUG.BUF , PPOS , VLEN , TVAL.TXT );
     2697    10621    5                       ARS = ARS + VLEN - NLEN - 1 ;
     2698    10622    5                       IF ARS > XUG.CMDSZ
     2699    10623    6                       THEN DO;
     2700    10624    6                           ARS = XUG.CMDSZ ;
     2701    10625    6                           XUG.PP_ERR = XUG#PP_TRUNC ;
     2702    10626    6                           XUG.P_PCB$ -> P$PCB.HI_CHAR = ARS ;
     2703    10627    6                           RETURN ;
     2704    10628    6                       END/*IF*/;
     2705    10629        /*E*    ERROR: XUG-E$XUG#PP_TRUNC-0
     2706    10630               MESSAGE: The result of command variable substitution was longer than allowed.
     2707    10631                         Truncation occurred.
     2708    10632        */
     2709    10633    5                       PPOS = PPOS + VLEN ;
     2710    10634    5                       IF XLEN > 0
     2711    10635    5                       THEN
     2712    10636    5                           SUBSTR( XUG.BUF , PPOS , XLEN ) =
     2713    10637    5                             SUBSTR( TBUF , 0 , XLEN );
     2714    10638    5                   END/*WHEN*/;
     2715    10639    5                   WHENALTRETURN DO;
     2716    10640    5                       PPOS = START + NLEN ;
     2717    10641    5                   END/*WHENALT*/;
     2718    10642    4               END/*ELSE*/;
     2719    10643    3           END/*IF*/;
     2720    10644    2           ELSE
     2721    10645    2               PPOS = START + NLEN ;
     2722    10646    2           CALL INDEX( PPOS , '%' , SUBSTR( XUG.BUF , 0 , ARS ), PPOS );
     2723    10647    2       END/*WHILE*/;
     2724    10648    1       RETURN ;
     2725    10649
     2726    10650    1   END XUG$PP_CMDVARS ;
PL6.E3A0      #007=XUG$PP_CMDVARS File=XUG$COMMON.:E05TSI                        WED 07/30/97 09:23 Page:479
     2727    10651        %EOD;

PL6.E3A0      #007=XUG$PP_CMDVARS File=XUG$COMMON.:E05TSI                        WED 07/30/97 09:23 Page:480
--  Include file information  --

   XUH_MACRO_C.:E05TOU  is referenced.
   XU_DATA_R.:E05TOU  cannot be made into a system file and is referenced.
   XU_PERR_C.:E05TOU  is referenced.
   XU_MACRO_C.:E05TOU  is referenced.
   CP_6_SUBS.:E05TOU  is referenced.
   CP_6_C.:E05TOU  is referenced.
   CP_6.:E05TOU  cannot be made into a system file and is referenced.
      No diagnostics issued in procedure XUG$PP_CMDVARS.

   Procedure XUG$PP_CMDVARS requires 179 words for executable code.
   Procedure XUG$PP_CMDVARS requires 186 words of local(AUTO) storage.

PL6.E3A0      #007=XUG$PP_CMDVARS File=XUG$COMMON.:E05TSI                        WED 07/30/97 09:23 Page:481

 Object Unit name= XUG$PP_CMDVARS                             File name= XUG$COMMON.:E05TOU
 UTS= JUL 30 '97 09:23:57.68 WED                              Compiler= PL-6/E31         Sev=      00
 SharedLib= :SHARED_SYSTEM                                    Alt SharedLib=


    ****  Control sections  ****

 Sect   Type Bound  Init  Size OctSiz  Section name(segment info)
    0   DCB   even  none     0      0  M$UC
    1  RoData even  UTS     15     17  XUG$PP_CMDVARS
    2   Proc  even  none   179    263  XUG$PP_CMDVARS
    3  RoData even  none     4      4  XUG$PP_CMDVARS

    ****  Entry defs  ****

                              Check   Calling
                             calling  sequence
  Sect OctLoc Primary Altret sequence   type   Parms  Name
     2      0   yes            yes      Std        2  XUG$PP_CMDVARS

  ****  Entry refs  ****

         Check        Calling
        calling       sequence
Altret sequence SRef   type   Args  Name
         yes          ~proc      0 XU_DATA_D
                       nStd      0 X66_AUTO_2
                       nStd      0 X66_ARET

  ****  Data refs  ****

  Flags:  r = read only, s = secondary
Flgs Name                             Flgs Name                             Flgs Name
     M$UC                             r    XUP_SYMTBL
PL6.E3A0      #007=XUG$PP_CMDVARS File=XUG$COMMON.:E05TSI                        WED 07/30/97 09:23 Page:482

  ****  Segment refs  ****

  Flags:  r = read only, s = secondary
Flgs Name                             Flgs Name                             Flgs Name
     ISSID                                 NULLSID
PL6.E3A0      #007=XUG$PP_CMDVARS File=XUG$COMMON.:E05TSI                        WED 07/30/97 09:23 Page:483


     2616        1        /*T***********************************************************/
     2617        2        /*T*                                                         */
     2618        3        /*T* Copyright (c) Bull HN Information Systems Inc., 1997    */
     2619        4        /*T*                                                         */
     2620        5        /*T***********************************************************/
     2621        6        XUG$PP_CMDVARS: PROC( GETCMD , ARS );

      6  2 000000   000000 700200 xent  XUG$PP_CMDV* TSX0  ! X66_AUTO_2
         2 000001   000272 000002                    ZERO    186,2

     2622        7        /*X* DMC,PLM=4,IND=4,CTI=2,DTI=0,ENI=0,ECI=0,CSI=0,MCI,DCI=4 */
     2623        8
     2624        9    1   DCL ARS SBIN;
     2625       10
     2626       11    1   DCL XUG$ PTR ;
     2627       12        %INCLUDE CP_6;
     2628     5571        %INCLUDE CP_6_SUBS;
     2629     6111        %INCLUDE XU_MACRO_C;
     2630     9217        %INCLUDE XU_PERR_C;
     2631     9408        %INCLUDE XU_DATA_R;
     2632     9419        %INCLUDE XUH_MACRO_C;
     2633     9503        %XUG_GETCMD( NAME= GETCMD , STCLASS=PARAM );
     2634     9841        %XUG_PARAMS;
     2635    10285        %P_PCB( NAME= P$PCB , STCLASS=BASED );
     2636    10484        %FPT_CMDVAR( STCLASS=AUTO );
     2637    10501        %FPT_CMDVAR( FPTN= FPT_CMDVAR_C , STCLASS=CONSTANT, FUN=FETCH );
     2638    10518        %VLP_ERRCODE( FPTN=XUG#PP_TRUNC, STCLASS=CONSTANT, FCG=XU, MID=G,
     2639    10519                      ERR#=%E$XUG#PP_TRUNC );
     2640    10564    1   DCL 1 TVAL ,
     2641    10565    1         2 LEN UBIN BYTE CALIGNED ,
     2642    10566    1         2 TXT CHAR( 300 );
     2643    10567    1   DCL 1 TNAM ,
     2644    10568    1         2 LEN UBIN BYTE CALIGNED ,
     2645    10569    1         2 TXT CHAR( 31 );
     2646    10570    1   DCL TBUF CHAR( 300 );
     2647    10571    1   DCL PPOS SBIN ;
PL6.E3A0      #007=XUG$PP_CMDVARS File=XUG$COMMON.:E05TSI                        WED 07/30/97 09:23 Page:484
     2648    10572    1   DCL START SBIN ;
     2649    10573    1   DCL NLEN SBIN ;
     2650    10574    1   DCL VLEN SBIN ;
     2651    10575    1   DCL XLEN SBIN ;
     2652    10576        %EJECT;
PL6.E3A0      #007=XUG$PP_CMDVARS File=XUG$COMMON.:E05TSI                        WED 07/30/97 09:23 Page:485
     2653    10577    1       XUG$ = GETCMD.WORK$ ;

  10577  2 000002   200003 470500                    LDP0    @GETCMD,,AUTO
         2 000003   000004 236100                    LDQ     4,,PR0
         2 000004   200005 756100                    STQ     XUG$,,AUTO

     2654    10578    1       CALL INDEX( PPOS , '%' , SUBSTR( XUG.BUF , 0 , ARS ))

  10578  2 000005   200004 471500                    LDP1    @ARS,,AUTO
         2 000006   100000 720100                    LXL0    0,,PR1
         2 000007   200005 473500                    LDP3    XUG$,,AUTO
         2 000010   000000 124540                    SCM     mask='000'O
         2 000011   300300 000010                    ADSC9   192,,PR3                 cn=0,n=*X0
         2 000012   000000 000001 3                  ADSC9   0                        cn=0,n=1
         2 000013   200263 000100                    ARG     PPOS,,AUTO
         2 000014   000016 606400 2                  TTN     s:10580
         2 000015   000017 710000 2                  TRA     s:10583

     2655    10579    2       WHENALTRETURN DO;

     2656    10580    2           RETURN ;

  10580  2 000016   000000 702200 xent               TSX2  ! X66_ARET

     2657    10581    2       END/*WHENALT*/;
     2658    10582
     2659    10583    1       FPT_CMDVAR = FPT_CMDVAR_C ;

  10583  2 000017   000100 100400                    MLR     fill='000'O
         2 000020   000000 000070 1                  ADSC9   FPT_CMDVAR_C             cn=0,n=56
         2 000021   200006 000070                    ADSC9   FPT_CMDVAR,,AUTO         cn=0,n=56

     2660    10584    1       FPT_CMDVAR.V_ = VECTOR( FPT_CMDVAR.V );

  10584  2 000022   000001 235000 3                  LDA     1
         2 000023   200270 452500                    STP2    XLEN+1,,AUTO
         2 000024   200270 236100                    LDQ     XLEN+1,,AUTO
PL6.E3A0      #007=XUG$PP_CMDVARS File=XUG$COMMON.:E05TSI                        WED 07/30/97 09:23 Page:486
         2 000025   000022 036003                    ADLQ    18,DU
         2 000026   200006 757100                    STAQ    FPT_CMDVAR,,AUTO

     2661    10585    1       FPT_CMDVAR.VALUE_ = VECTOR( TVAL );

  10585  2 000027   000002 235000 3                  LDA     2
         2 000030   200270 452500                    STP2    XLEN+1,,AUTO
         2 000031   200270 236100                    LDQ     XLEN+1,,AUTO
         2 000032   000024 036003                    ADLQ    20,DU
         2 000033   200012 757100                    STAQ    FPT_CMDVAR+4,,AUTO

     2662    10586    1       FPT_CMDVAR.NAME_ = VECTOR( TNAM );

  10586  2 000034   000003 235000 3                  LDA     3
         2 000035   200270 452500                    STP2    XLEN+1,,AUTO
         2 000036   200270 236100                    LDQ     XLEN+1,,AUTO
         2 000037   000140 036003                    ADLQ    96,DU
         2 000040   200010 757100                    STAQ    FPT_CMDVAR+2,,AUTO

     2663    10587
     2664    10588    2       DO WHILE PPOS < ARS ;

  10588  2 000041   200263 236100                    LDQ     PPOS,,AUTO
         2 000042   100000 116100                    CMPQ    0,,PR1
         2 000043   000262 605000 2                  TPL     s:10648

     2665    10589    2           START = PPOS + 1 ;

  10589  2 000044   200263 235100                    LDA     PPOS,,AUTO
         2 000045   000001 035007                    ADLA    1,DL
         2 000046   200264 755100                    STA     START,,AUTO

     2666    10590    2           NLEN = 0 ;

  10590  2 000047   200265 450100                    STZ     NLEN,,AUTO

     2667    10591    3           DO WHILE START + NLEN < ARS ;
PL6.E3A0      #007=XUG$PP_CMDVARS File=XUG$COMMON.:E05TSI                        WED 07/30/97 09:23 Page:487

  10591  2 000050   000064 710000 2                  TRA     s:10596

     2668    10592    3               IF SYMTTBL.PL6SYM( ASCBIN( XUG.BUFA( START + NLEN ))) = %NO#

  10592  2 000051   200264 236100                    LDQ     START,,AUTO
         2 000052   200265 036100                    ADLQ    NLEN,,AUTO
         2 000053   200005 470500                    LDP0    XUG$,,AUTO
         2 000054   000100 101506                    MRL     fill='000'O
         2 000055   000300 000001                    ADSC9   192,Q,PR0                cn=0,n=1
         2 000056   200270 000004                    ADSC9   XLEN+1,,AUTO             cn=0,n=4
         2 000057   200270 236100                    LDQ     XLEN+1,,AUTO
         2 000060   000000 236006 xsym               LDQ     XUP_SYMTBL,QL
         2 000061   004000 316003                    CANQ    2048,DU
         2 000062   000071 600000 2                  TZE     s:10597

     2669    10593    3               THEN
     2670    10594    3                   EXIT ;
     2671    10595    3               NLEN = NLEN + 1 ;

  10595  2 000063   200265 054100                    AOS     NLEN,,AUTO

     2672    10596    3           END/*WHILE*/;

  10596  2 000064   200264 236100                    LDQ     START,,AUTO
         2 000065   200265 036100                    ADLQ    NLEN,,AUTO
         2 000066   200004 470500                    LDP0    @ARS,,AUTO
         2 000067   000000 116100                    CMPQ    0,,PR0
         2 000070   000051 604000 2                  TMI     s:10592

     2673    10597    2           IF NLEN > 0 AND NLEN < 32

  10597  2 000071   200265 235100                    LDA     NLEN,,AUTO
         2 000072   000235 604400 2                  TMOZ    s:10645
         2 000073   000040 115007                    CMPA    32,DL
         2 000074   000235 605000 2                  TPL     s:10645

PL6.E3A0      #007=XUG$PP_CMDVARS File=XUG$COMMON.:E05TSI                        WED 07/30/97 09:23 Page:488
     2674    10598    3           THEN DO;

     2675    10599    3               IF PPOS > 0

  10599  2 000075   200263 236100                    LDQ     PPOS,,AUTO
         2 000076   000127 604400 2                  TMOZ    s:10608
         2 000077   200005 470500                    LDP0    XUG$,,AUTO
         2 000100   040000 106506                    CMPC    fill='040'O
         2 000101   000277 600001                    ADSC9   191,Q,PR0                cn=3,n=1
         2 000102   000000 000001 3                  ADSC9   0                        cn=0,n=1
         2 000103   000127 601000 2                  TNZ     s:10608

     2676    10600    3                 AND XUG.BUFA( PPOS - 1 ) = '%'
     2677    10601    4               THEN DO;

     2678    10602    4                   SUBSTR( XUG.BUF , PPOS , ARS - START ) =

  10602  2 000104   200004 471500                    LDP1    @ARS,,AUTO
         2 000105   100000 236100                    LDQ     0,,PR1
         2 000106   200264 136100                    SBLQ    START,,AUTO
         2 000107   200270 756100                    STQ     XLEN+1,,AUTO
         2 000110   100000 236100                    LDQ     0,,PR1
         2 000111   200264 136100                    SBLQ    START,,AUTO
         2 000112   000000 620006                    EAX0    0,QL
         2 000113   200264 236100                    LDQ     START,,AUTO
         2 000114   200270 721100                    LXL1    XLEN+1,,AUTO
         2 000115   200263 235100                    LDA     PPOS,,AUTO
         2 000116   040145 100546                    MLR     fill='040'O
         2 000117   000300 000010                    ADSC9   192,Q,PR0                cn=0,n=*X0
         2 000120   000300 000011                    ADSC9   192,A,PR0                cn=0,n=*X1

     2679    10603    4                     SUBSTR( XUG.BUF , START , ARS - START );
     2680    10604    4                   ARS = ARS - 1 ;

  10604  2 000121   000001 336007                    LCQ     1,DL
         2 000122   100000 056100                    ASQ     0,,PR1

PL6.E3A0      #007=XUG$PP_CMDVARS File=XUG$COMMON.:E05TSI                        WED 07/30/97 09:23 Page:489
     2681    10605    4                   PPOS = PPOS + NLEN ;

  10605  2 000123   200263 236100                    LDQ     PPOS,,AUTO
         2 000124   200265 036100                    ADLQ    NLEN,,AUTO
         2 000125   200263 756100                    STQ     PPOS,,AUTO

     2682    10606    4               END/*IF*/;

  10606  2 000126   000240 710000 2                  TRA     s:10646

     2683    10607    4               ELSE DO;

     2684    10608    4                   TNAM.LEN = NLEN ;

  10608  2 000127   200265 236100                    LDQ     NLEN,,AUTO
         2 000130   000033 736000                    QLS     27
         2 000131   200140 552140                    STBQ    TNAM,'40'O,AUTO

     2685    10609    4                   TNAM.TXT = SUBSTR( XUG.BUF , START , NLEN );

  10609  2 000132   200005 470500                    LDP0    XUG$,,AUTO
         2 000133   000000 620005                    EAX0    0,AL
         2 000134   200264 235100                    LDA     START,,AUTO
         2 000135   040100 100545                    MLR     fill='040'O
         2 000136   000300 000010                    ADSC9   192,A,PR0                cn=0,n=*X0
         2 000137   200140 200037                    ADSC9   TNAM,,AUTO               cn=1,n=31

     2686    10610    4                   CALL M$CMDVAR( FPT_CMDVAR )

  10610  2 000140   200006 630500                    EPPR0   FPT_CMDVAR,,AUTO
         2 000141   420025 713400                    CLIMB   alt,+8213
         2 000142   402400 401760                    pmme    nvectors=6
         2 000143   000231 702000 2                  TSX2    s:10640

     2687    10611    5                   WHENRETURN DO;

     2688    10612    5                       XLEN = ARS - PPOS - NLEN - 1 ;
PL6.E3A0      #007=XUG$PP_CMDVARS File=XUG$COMMON.:E05TSI                        WED 07/30/97 09:23 Page:490

  10612  2 000144   200004 470500                    LDP0    @ARS,,AUTO
         2 000145   000000 236100                    LDQ     0,,PR0
         2 000146   200263 136100                    SBLQ    PPOS,,AUTO
         2 000147   200265 136100                    SBLQ    NLEN,,AUTO
         2 000150   000001 136007                    SBLQ    1,DL
         2 000151   200267 756100                    STQ     XLEN,,AUTO

     2689    10613    5                       IF XLEN > 0

  10613  2 000152   000162 604400 2                  TMOZ    s:10617

     2690    10614    5                       THEN
     2691    10615    5                           SUBSTR( TBUF , 0 , XLEN ) =

  10615  2 000153   000000 236100                    LDQ     0,,PR0
         2 000154   200267 136100                    SBLQ    XLEN,,AUTO
         2 000155   200005 471500                    LDP1    XUG$,,AUTO
         2 000156   200267 720100                    LXL0    XLEN,,AUTO
         2 000157   040140 100546                    MLR     fill='040'O
         2 000160   100300 000010                    ADSC9   192,Q,PR1                cn=0,n=*X0
         2 000161   200150 000010                    ADSC9   TBUF,,AUTO               cn=0,n=*X0

     2692    10616    5                             SUBSTR( XUG.BUF , ARS - XLEN , XLEN );
     2693    10617    5                       VLEN = TVAL.LEN ;

  10617  2 000162   200024 236100                    LDQ     TVAL,,AUTO
         2 000163   000033 772000                    QRL     27
         2 000164   200266 756100                    STQ     VLEN,,AUTO

     2694    10618    5                       IF VLEN > 0

  10618  2 000165   000174 604400 2                  TMOZ    s:10621

     2695    10619    5                       THEN
     2696    10620    5                           CALL INSERT( XUG.BUF , PPOS , VLEN , TVAL.TXT );

PL6.E3A0      #007=XUG$PP_CMDVARS File=XUG$COMMON.:E05TSI                        WED 07/30/97 09:23 Page:491
  10620  2 000166   200005 471500                    LDP1    XUG$,,AUTO
         2 000167   000000 620006                    EAX0    0,QL
         2 000170   200263 235100                    LDA     PPOS,,AUTO
         2 000171   040145 100500                    MLR     fill='040'O
         2 000172   200024 200454                    ADSC9   TVAL,,AUTO               cn=1,n=300
         2 000173   100300 000010                    ADSC9   192,A,PR1                cn=0,n=*X0

     2697    10621    5                       ARS = ARS + VLEN - NLEN - 1 ;

  10621  2 000174   000000 236100                    LDQ     0,,PR0
         2 000175   200266 036100                    ADLQ    VLEN,,AUTO
         2 000176   200265 136100                    SBLQ    NLEN,,AUTO
         2 000177   000001 136007                    SBLQ    1,DL
         2 000200   000000 756100                    STQ     0,,PR0

     2698    10622    5                       IF ARS > XUG.CMDSZ

  10622  2 000201   200005 471500                    LDP1    XUG$,,AUTO
         2 000202   000216 604000 2                  TMI     s:10633
         2 000203   100111 116100                    CMPQ    73,,PR1
         2 000204   000216 602000 2                  TNC     s:10633
         2 000205   000216 600000 2                  TZE     s:10633

     2699    10623    6                       THEN DO;

     2700    10624    6                           ARS = XUG.CMDSZ ;

  10624  2 000206   100111 235100                    LDA     73,,PR1
         2 000207   000000 755100                    STA     0,,PR0

     2701    10625    6                           XUG.PP_ERR = XUG#PP_TRUNC ;

  10625  2 000210   000016 236000 1                  LDQ     XUG#PP_TRUNC
         2 000211   100100 756100                    STQ     64,,PR1

     2702    10626    6                           XUG.P_PCB$ -> P$PCB.HI_CHAR = ARS ;

PL6.E3A0      #007=XUG$PP_CMDVARS File=XUG$COMMON.:E05TSI                        WED 07/30/97 09:23 Page:492
  10626  2 000212   100072 473500                    LDP3    58,,PR1
         2 000213   000000 235100                    LDA     0,,PR0
         2 000214   300012 755100                    STA     10,,PR3

     2703    10627    6                           RETURN ;

  10627  2 000215   000000 702200 xent               TSX2  ! X66_ARET

     2704    10628    6                       END/*IF*/;
     2705    10629        /*E*    ERROR: XUG-E$XUG#PP_TRUNC-0
     2706    10630              MESSAGE: The result of command variable substitution was longer than allowed.
     2707    10631                         Truncation occurred.
     2708    10632        */
     2709    10633    5                       PPOS = PPOS + VLEN ;

  10633  2 000216   200263 236100                    LDQ     PPOS,,AUTO
         2 000217   200266 036100                    ADLQ    VLEN,,AUTO
         2 000220   200263 756100                    STQ     PPOS,,AUTO

     2710    10634    5                       IF XLEN > 0

  10634  2 000221   200267 235100                    LDA     XLEN,,AUTO
         2 000222   000230 604400 2                  TMOZ    s:10638

     2711    10635    5                       THEN
     2712    10636    5                           SUBSTR( XUG.BUF , PPOS , XLEN ) =

  10636  2 000223   000000 620005                    EAX0    0,AL
         2 000224   200267 721100                    LXL1    XLEN,,AUTO
         2 000225   040146 100540                    MLR     fill='040'O
         2 000226   200150 000010                    ADSC9   TBUF,,AUTO               cn=0,n=*X0
         2 000227   100300 000011                    ADSC9   192,Q,PR1                cn=0,n=*X1

     2713    10637    5                             SUBSTR( TBUF , 0 , XLEN );
     2714    10638    5                   END/*WHEN*/;

  10638  2 000230   000234 710000 2                  TRA     s:10643
PL6.E3A0      #007=XUG$PP_CMDVARS File=XUG$COMMON.:E05TSI                        WED 07/30/97 09:23 Page:493

     2715    10639    5                   WHENALTRETURN DO;

     2716    10640    5                       PPOS = START + NLEN ;

  10640  2 000231   200264 236100                    LDQ     START,,AUTO
         2 000232   200265 036100                    ADLQ    NLEN,,AUTO
         2 000233   200263 756100                    STQ     PPOS,,AUTO

     2717    10641    5                   END/*WHENALT*/;

     2718    10642    4               END/*ELSE*/;

     2719    10643    3           END/*IF*/;

  10643  2 000234   000240 710000 2                  TRA     s:10646

     2720    10644    2           ELSE
     2721    10645    2               PPOS = START + NLEN ;

  10645  2 000235   200264 236100                    LDQ     START,,AUTO
         2 000236   200265 036100                    ADLQ    NLEN,,AUTO
         2 000237   200263 756100                    STQ     PPOS,,AUTO

     2722    10646    2           CALL INDEX( PPOS , '%' , SUBSTR( XUG.BUF , 0 , ARS ), PPOS );

  10646  2 000240   200004 470500                    LDP0    @ARS,,AUTO
         2 000241   000000 720100                    LXL0    0,,PR0
         2 000242   000000 636010                    EAQ     0,X0
         2 000243   000022 772000                    QRL     18
         2 000244   200263 136100                    SBLQ    PPOS,,AUTO
         2 000245   200270 756100                    STQ     XLEN+1,,AUTO
         2 000246   200263 236100                    LDQ     PPOS,,AUTO
         2 000247   200005 471500                    LDP1    XUG$,,AUTO
         2 000250   200270 720100                    LXL0    XLEN+1,,AUTO
         2 000251   200263 235100                    LDA     PPOS,,AUTO
         2 000252   000000 124545                    SCM     mask='000'O
PL6.E3A0      #007=XUG$PP_CMDVARS File=XUG$COMMON.:E05TSI                        WED 07/30/97 09:23 Page:494
         2 000253   100300 000010                    ADSC9   192,A,PR1                cn=0,n=*X0
         2 000254   000000 000001 3                  ADSC9   0                        cn=0,n=1
         2 000255   200263 000100                    ARG     PPOS,,AUTO
         2 000256   200263 056100                    ASQ     PPOS,,AUTO

     2723    10647    2       END/*WHILE*/;

  10647  2 000257   200263 236100                    LDQ     PPOS,,AUTO
         2 000260   000000 116100                    CMPQ    0,,PR0
         2 000261   000044 604000 2                  TMI     s:10589

     2724    10648    1       RETURN ;

  10648  2 000262   000000 702200 xent               TSX2  ! X66_ARET
     2725    10649
     2726    10650    1   END XUG$PP_CMDVARS ;
     2727    10651        %EOD;

PL6.E3A0      #007=XUG$PP_CMDVARS File=XUG$COMMON.:E05TSI                        WED 07/30/97 09:23 Page:495
--  Include file information  --

   XUH_MACRO_C.:E05TOU  is referenced.
   XU_DATA_R.:E05TOU  cannot be made into a system file and is referenced.
   XU_PERR_C.:E05TOU  is referenced.
   XU_MACRO_C.:E05TOU  is referenced.
   CP_6_SUBS.:E05TOU  is referenced.
   CP_6_C.:E05TOU  is referenced.
   CP_6.:E05TOU  cannot be made into a system file and is referenced.
      No diagnostics issued in procedure XUG$PP_CMDVARS.
PL6.E3A0      #007=XUG$PP_CMDVARS File=XUG$COMMON.:E05TSI                        WED 07/30/97 09:23 Page:496

 **** Variables and constants ****

  ****  Section 001 RoData XUG$PP_CMDVARS

  ****  Scalars and arrays  ****
OctLoc.c.b A Datatyp(siz) R M Lvl/name                 OctLoc.c.b A Datatyp(siz) R M Lvl/name

     0-0-0/d STRC(504)   r     1 FPT_CMDVAR_C              16-0-0/w STRC        r     1 XUG#PP_TRUNC

  ****  Auto variables  ****

  ****  Scalars and arrays  ****
OctLoc.c.b A Datatyp(siz) R M Lvl/name                 OctLoc.c.b A Datatyp(siz) R M Lvl/name

     4-0-0/w PTR         r     1 @ARS                       3-0-0/w PTR         r     1 @GETCMD
    *0-0-0/w SBIN        r     1 ARS                        6-0-0/d STRC(504)   r     1 FPT_CMDVAR
    *0-0-0/d STRC(1512)  r     1 GETCMD                   265-0-0/w SBIN        r     1 NLEN
   263-0-0/w SBIN        r     1 PPOS                     264-0-0/w SBIN        r     1 START
   150-0-0/c CHAR(300)   r     1 TBUF                     140-0-0/c STRC(288)   r     1 TNAM
    24-0-0/c STRC(2709)  r     1 TVAL                     266-0-0/w SBIN        r     1 VLEN
   267-0-0/w SBIN        r     1 XLEN                       5-0-0/w PTR         r     1 XUG$

  ****  SYMREF variables  ****

  ****  Scalars and arrays  ****
OctLoc.c.b A Datatyp(siz) R M Lvl/name                 OctLoc.c.b A Datatyp(siz) R M Lvl/name

     0-0-0/b STRC        r     1 SYMTTBL(0:127)
     0-0-0/b BIT         r     1 XUP_SYMTBL(0:127)

  ****  BASED and DCB variables  ****

  ****  Scalars and arrays  ****
OctLoc.c.b A Datatyp(siz) R M Lvl/name                 OctLoc.c.b A Datatyp(siz) R M Lvl/name

     0-0-0/w STRC(504)   r     1 P$PCB                      0-0-0/d STRC(9612)  r     1 XUG

PL6.E3A0      #007=XUG$PP_CMDVARS File=XUG$COMMON.:E05TSI                        WED 07/30/97 09:23 Page:497

   Procedure XUG$PP_CMDVARS requires 179 words for executable code.
   Procedure XUG$PP_CMDVARS requires 186 words of local(AUTO) storage.
PL6.E3A0      #007=XUG$PP_CMDVARS File=XUG$COMMON.:E05TSI                        WED 07/30/97 09:23 Page:498
          *** CROSS REFERENCE LISTING ***
**     DENOTES     IDENTIFIER DEFINITION
<<                 IDENTIFIER'S VALUE SET
>>                 IDENTIFIER'S VALUE USED
<>                 IDENTIFIER SET AND/OR USED
--                 IDENTIFIER REFERENCED
PL6.E3A0      #007=XUG$PP_CMDVARS File=XUG$COMMON.:E05TSI                        WED 07/30/97 09:23 Page:499
          MINI XREF LISTING

ARS
         9**DCL         6--PROC    10578>>CALLBLT 10588>>DOWHILE 10591>>DOWHILE 10602>>ASSIGN  10602>>ASSIGN
     10604<<ASSIGN  10604>>ASSIGN  10612>>ASSIGN  10615>>ASSIGN  10621<<ASSIGN  10621>>ASSIGN  10622>>IF
     10624<<ASSIGN  10626>>ASSIGN  10646>>CALLBLT
FPT_CMDVAR
     10495**DCL     10583<<ASSIGN  10610<>CALL
FPT_CMDVAR.NAME_
     10495**DCL     10586<<ASSIGN
FPT_CMDVAR.V
     10497**DCL     10584--ASSIGN
FPT_CMDVAR.VALUE_
     10495**DCL     10585<<ASSIGN
FPT_CMDVAR.V_
     10495**DCL     10584<<ASSIGN
FPT_CMDVAR_C
     10512**DCL     10583>>ASSIGN
FPT_CMDVAR_C.V
     10514**DCL     10512--DCLINIT
GETCMD
      9516**DCL         6--PROC
GETCMD.OUT$
      9521**DCL      9527--REDEF
GETCMD.WORK$
      9549**DCL     10577>>ASSIGN
M$CMDVAR
      5568**DCL-ENT 10610--CALL
NLEN
     10573**DCL     10590<<ASSIGN  10591>>DOWHILE 10592>>IF      10595<<ASSIGN  10595>>ASSIGN  10597>>IF
     10597>>IF      10605>>ASSIGN  10608>>ASSIGN  10609>>ASSIGN  10612>>ASSIGN  10621>>ASSIGN  10640>>ASSIGN
     10645>>ASSIGN
P$PCB.HI_CHAR
     10454**DCL     10626<<ASSIGN
PL6.E3A0      #007=XUG$PP_CMDVARS File=XUG$COMMON.:E05TSI                        WED 07/30/97 09:23 Page:500
PPOS
     10571**DCL     10578<<CALLBLT 10588>>DOWHILE 10589>>ASSIGN  10599>>IF      10599>>IF      10602>>ASSIGN
     10605<<ASSIGN  10605>>ASSIGN  10612>>ASSIGN  10620>>CALLBLT 10633<<ASSIGN  10633>>ASSIGN  10636>>ASSIGN
     10640<<ASSIGN  10645<<ASSIGN  10646<<CALLBLT 10646>>CALLBLT
START
     10572**DCL     10589<<ASSIGN  10591>>DOWHILE 10592>>IF      10602>>ASSIGN  10602>>ASSIGN  10602>>ASSIGN
     10609>>ASSIGN  10640>>ASSIGN  10645>>ASSIGN
SYMTTBL.PL6SYM
      9417**DCL     10592>>IF
TBUF
     10570**DCL     10615<<ASSIGN  10636>>ASSIGN
TNAM
     10567**DCL     10586--ASSIGN
TNAM.LEN
     10568**DCL     10608<<ASSIGN
TNAM.TXT
     10569**DCL     10609<<ASSIGN
TVAL
     10564**DCL     10585--ASSIGN
TVAL.LEN
     10565**DCL     10617>>ASSIGN
TVAL.TXT
     10566**DCL     10620>>CALLBLT
VLEN
     10574**DCL     10617<<ASSIGN  10618>>IF      10620>>CALLBLT 10621>>ASSIGN  10633>>ASSIGN
XLEN
     10575**DCL     10612<<ASSIGN  10613>>IF      10615>>ASSIGN  10615>>ASSIGN  10615>>ASSIGN  10634>>IF
     10636>>ASSIGN  10636>>ASSIGN
XUG.BUF
     10280**DCL     10283--REDEF   10578>>CALLBLT 10602<<ASSIGN  10602>>ASSIGN  10609>>ASSIGN  10615>>ASSIGN
     10620<<CALLBLT 10636<<ASSIGN  10646>>CALLBLT
XUG.BUFA
     10283**DCL     10592>>IF      10599>>IF
XUG.CMDSZ
     10131**DCL     10622>>IF      10624>>ASSIGN
XUG.PP_ERR
PL6.E3A0      #007=XUG$PP_CMDVARS File=XUG$COMMON.:E05TSI                        WED 07/30/97 09:23 Page:501
     10094**DCL     10625<<ASSIGN
XUG.P_PCB$
     10075**DCL     10626>>ASSIGN
XUG#PP_TRUNC
     10531**DCL     10625>>ASSIGN
XUG$
        11**DCL      9844--IMP-PTR 10577<<ASSIGN  10578>>CALLBLT 10592>>IF      10599>>IF      10602>>ASSIGN
     10602>>ASSIGN  10609>>ASSIGN  10615>>ASSIGN  10620>>CALLBLT 10622>>IF      10624>>ASSIGN  10625>>ASSIGN
     10626>>ASSIGN  10636>>ASSIGN  10646>>CALLBLT
XUP_SYMTBL
      9416**DCL      9416--REDEF

PL6.E3A0      #008=XUG$BREAK_COMMON File=XUG$COMMON.:E05TSI                      WED 07/30/97 09:24 Page:502
     2728        1        /*T***********************************************************/
     2729        2        /*T*                                                         */
     2730        3        /*T* Copyright (c) Bull HN Information Systems Inc., 1997    */
     2731        4        /*T*                                                         */
     2732        5        /*T***********************************************************/
     2733        6        XUG$BREAK_COMMON: PROC (XUG_WORK$) ;
     2734        7        /*X* DMC,PLM=4,IND=4,CTI=2,DTI=0,ENI=0,ECI=0,CSI=0,MCI,DCI=4 */
     2735        8        %INCLUDE CP_6;
     2736     5567        /**/
     2737     5568        %FPT_TRMPRG (RSTBRK=YES,STCLASS=CONSTANT);
     2738     5597    1   DCL XUG$BRKSUB ENTRY(1) ;
     2739     5598        /**/
     2740     5599        %INCLUDE XU_MACRO_C;
     2741     8705        %INCLUDE XUH_MACRO_C ;
     2742     8789    1   DCL XUG_WORK$ PTR PARAM ;
     2743     8790        /**/
     2744     8791    1   DCL XUG$ PTR ;
     2745     8792
     2746     8793        %XUG_PARAMS;
     2747     9237        %EJECT;
PL6.E3A0      #008=XUG$BREAK_COMMON File=XUG$COMMON.:E05TSI                      WED 07/30/97 09:24 Page:503
     2748     9238    2       DO INHIBIT;
     2749     9239    2           XUG$ = XUG_WORK$ ;
     2750     9240    2           XUG.BIP=XUG.BIP+1;
     2751     9241    2           XUG.BREAK='1'B;
     2752     9242    3           CALL M$TRMPRG(FPT_TRMPRG) WHENALTRETURN DO ;
     2753     9243    3           END ;
     2754     9244    2           IF XUG.BIP>1 THEN RETURN;
     2755     9245    2           CALL XUG$BRKSUB (XUG_WORK$) ;
     2756     9246    2           IF XUG.CONTINUE~=ENTADDR(NIL) THEN CALL XUG.CONTINUE;
     2757     9247    2           RETURN;
     2758     9248    2       END;
     2759     9249    1   END XUG$BREAK_COMMON;
     2760     9250        %EOD;

PL6.E3A0      #008=XUG$BREAK_COMMON File=XUG$COMMON.:E05TSI                      WED 07/30/97 09:24 Page:504
--  Include file information  --

   XUH_MACRO_C.:E05TOU  is referenced.
   XU_MACRO_C.:E05TOU  is referenced.
   CP_6_C.:E05TOU  is referenced.
   CP_6.:E05TOU  cannot be made into a system file and is referenced.
      No diagnostics issued in procedure XUG$BREAK_COMMON.

   Procedure XUG$BREAK_COMMON requires 33 words for executable code.
   Procedure XUG$BREAK_COMMON requires 6 words of local(AUTO) storage.

PL6.E3A0      #008=XUG$BREAK_COMMON File=XUG$COMMON.:E05TSI                      WED 07/30/97 09:24 Page:505

 Object Unit name= XUG$BREAK_COMMON                           File name= XUG$COMMON.:E05TOU
 UTS= JUL 30 '97 09:24:30.80 WED                              Compiler= PL-6/E31         Sev=      00
 SharedLib= :SHARED_SYSTEM                                    Alt SharedLib=


    ****  Control sections  ****

 Sect   Type Bound  Init  Size OctSiz  Section name(segment info)
    0   DCB   even  none     0      0  M$UC
    1  RoData even  UTS      8     10  XUG$BREAK_COMMON
    2   Proc  even  none    33     41  XUG$BREAK_COMMON

    ****  Entry defs  ****

                              Check   Calling
                             calling  sequence
  Sect OctLoc Primary Altret sequence   type   Parms  Name
     2      0   yes            yes      Std        1  XUG$BREAK_COMMON

  ****  Entry refs  ****

         Check        Calling
        calling       sequence
Altret sequence SRef   type   Args  Name
         yes           Std       1 XUG$BRKSUB
                       nStd      0 X66_AUTO_1
                       nStd      0 X66_ARET
                       Std       0 B_CONSPOOL_D

  ****  Data refs  ****

  Flags:  r = read only, s = secondary
Flgs Name                             Flgs Name                             Flgs Name
     M$UC                                  B_VECTNIL
PL6.E3A0      #008=XUG$BREAK_COMMON File=XUG$COMMON.:E05TSI                      WED 07/30/97 09:24 Page:506

  ****  Segment refs  ****

  Flags:  r = read only, s = secondary
Flgs Name                             Flgs Name                             Flgs Name
     ISSID                                 NULLSID
PL6.E3A0      #008=XUG$BREAK_COMMON File=XUG$COMMON.:E05TSI                      WED 07/30/97 09:24 Page:507


     2728        1        /*T***********************************************************/
     2729        2        /*T*                                                         */
     2730        3        /*T* Copyright (c) Bull HN Information Systems Inc., 1997    */
     2731        4        /*T*                                                         */
     2732        5        /*T***********************************************************/
     2733        6        XUG$BREAK_COMMON: PROC (XUG_WORK$) ;

      6  2 000000   000000 700200 xent  XUG$BREAK_C* TSX0  ! X66_AUTO_1
         2 000001   000006 000001                    ZERO    6,1

     2734        7        /*X* DMC,PLM=4,IND=4,CTI=2,DTI=0,ENI=0,ECI=0,CSI=0,MCI,DCI=4 */
     2735        8        %INCLUDE CP_6;
     2736     5567        /**/
     2737     5568        %FPT_TRMPRG (RSTBRK=YES,STCLASS=CONSTANT);
     2738     5597    1   DCL XUG$BRKSUB ENTRY(1) ;
     2739     5598        /**/
     2740     5599        %INCLUDE XU_MACRO_C;
     2741     8705        %INCLUDE XUH_MACRO_C ;
     2742     8789    1   DCL XUG_WORK$ PTR PARAM ;
     2743     8790        /**/
     2744     8791    1   DCL XUG$ PTR ;
     2745     8792
     2746     8793        %XUG_PARAMS;
     2747     9237        %EJECT;
PL6.E3A0      #008=XUG$BREAK_COMMON File=XUG$COMMON.:E05TSI                      WED 07/30/97 09:24 Page:508
     2748     9238    2       DO INHIBIT;

     2749     9239    2           XUG$ = XUG_WORK$ ;

   9239  2 000002   200003 470700                    LDP0  ! @XUG_WORK$,,AUTO
         2 000003   000000 236300                    LDQ   ! 0,,PR0
         2 000004   200004 756300                    STQ   ! XUG$,,AUTO

     2750     9240    2           XUG.BIP=XUG.BIP+1;

   9240  2 000005   200004 471700                    LDP1  ! XUG$,,AUTO
         2 000006   100102 054300                    AOS   ! 66,,PR1

     2751     9241    2           XUG.BREAK='1'B;

   9241  2 000007   040000 236203                    LDQ   ! 16384,DU
         2 000010   100071 256300                    ORSQ  ! 57,,PR1

     2752     9242    3           CALL M$TRMPRG(FPT_TRMPRG) WHENALTRETURN DO ;

   9242  2 000011   000000 630600 1                  EPPR0 ! FPT_TRMPRG
         2 000012   560004 713600                    CLIMB ! alt,+57348
         2 000013   400400 401760                    pmme    nvectors=2
         2 000014   000016 702200 2                  TSX2  ! s:9244
         2 000015   000016 710200 2                  TRA   ! s:9244

     2753     9243    3           END ;

     2754     9244    2           IF XUG.BIP>1 THEN RETURN;

   9244  2 000016   200004 470700                    LDP0  ! XUG$,,AUTO
         2 000017   000102 235300                    LDA   ! 66,,PR0
         2 000020   000001 115207                    CMPA  ! 1,DL
         2 000021   000023 604600 2                  TMOZ  ! s:9245

   9244  2 000022   000000 702200 xent               TSX2  ! X66_ARET

PL6.E3A0      #008=XUG$BREAK_COMMON File=XUG$COMMON.:E05TSI                      WED 07/30/97 09:24 Page:509
     2755     9245    2           CALL XUG$BRKSUB (XUG_WORK$) ;

   9245  2 000023   200003 630700                    EPPR0 ! @XUG_WORK$,,AUTO
         2 000024   000017 631600 xsym               EPPR1 ! B_VECTNIL+15
         2 000025   000000 701200 xent               TSX1  ! XUG$BRKSUB
         2 000026   000000 011200                    NOP   ! 0

     2756     9246    2           IF XUG.CONTINUE~=ENTADDR(NIL) THEN CALL XUG.CONTINUE;

   9246  2 000027   200004 470700                    LDP0  ! XUG$,,AUTO
         2 000030   000021 236300                    LDQ   ! 17,,PR0
         2 000031   000002 116200 xsym               CMPQ  ! B_VECTNIL+2
         2 000032   000037 600200 2                  TZE   ! s:9247

   9246  2 000033   000021 220300                    LDX0  ! 17,,PR0
         2 000034   000002 631600 xsym               EPPR1 ! B_VECTNIL+2
         2 000035   000000 701210                    TSX1  ! 0,X0
         2 000036   000000 011200                    NOP   ! 0

     2757     9247    2           RETURN;

   9247  2 000037   000000 702200 xent               TSX2  ! X66_ARET

     2758     9248    2       END;

     2759     9249    1   END XUG$BREAK_COMMON;

   9249  2 000040   000000 702200 xent               TSX2  ! X66_ARET
     2760     9250        %EOD;

PL6.E3A0      #008=XUG$BREAK_COMMON File=XUG$COMMON.:E05TSI                      WED 07/30/97 09:24 Page:510
--  Include file information  --

   XUH_MACRO_C.:E05TOU  is referenced.
   XU_MACRO_C.:E05TOU  is referenced.
   CP_6_C.:E05TOU  is referenced.
   CP_6.:E05TOU  cannot be made into a system file and is referenced.
      No diagnostics issued in procedure XUG$BREAK_COMMON.
PL6.E3A0      #008=XUG$BREAK_COMMON File=XUG$COMMON.:E05TSI                      WED 07/30/97 09:24 Page:511

 **** Variables and constants ****

  ****  Section 001 RoData XUG$BREAK_COMMON

  ****  Scalars and arrays  ****
OctLoc.c.b A Datatyp(siz) R M Lvl/name                 OctLoc.c.b A Datatyp(siz) R M Lvl/name

     0-0-0/d STRC(288)   r     1 FPT_TRMPRG

  ****  Auto variables  ****

  ****  Scalars and arrays  ****
OctLoc.c.b A Datatyp(siz) R M Lvl/name                 OctLoc.c.b A Datatyp(siz) R M Lvl/name

     3-0-0/w PTR         r     1 @XUG_WORK$                 4-0-0/w PTR         r     1 XUG$
    *0-0-0/w PTR         r     1 XUG_WORK$

  ****  BASED and DCB variables  ****

  ****  Scalars and arrays  ****
OctLoc.c.b A Datatyp(siz) R M Lvl/name                 OctLoc.c.b A Datatyp(siz) R M Lvl/name

     0-0-0N  NULL        r     1 M$UC                       0-0-0/d STRC(9612)  r     1 XUG


   Procedure XUG$BREAK_COMMON requires 33 words for executable code.
   Procedure XUG$BREAK_COMMON requires 6 words of local(AUTO) storage.
PL6.E3A0      #008=XUG$BREAK_COMMON File=XUG$COMMON.:E05TSI                      WED 07/30/97 09:24 Page:512
          *** CROSS REFERENCE LISTING ***
**     DENOTES     IDENTIFIER DEFINITION
<<                 IDENTIFIER'S VALUE SET
>>                 IDENTIFIER'S VALUE USED
<>                 IDENTIFIER SET AND/OR USED
--                 IDENTIFIER REFERENCED
PL6.E3A0      #008=XUG$BREAK_COMMON File=XUG$COMMON.:E05TSI                      WED 07/30/97 09:24 Page:513
          MINI XREF LISTING

FPT_TRMPRG
      5584**DCL      9242<>CALL
FPT_TRMPRG.V
      5591**DCL      5586--DCLINIT
FPT_TRMPRG.V.CTLFLG.RSTBRK#
      5592**DCL      5593--REDEF
M$TRMPRG
      5520**DCL-ENT  9242--CALL
XUG.BIP
      9057**DCL      9240<<ASSIGN   9240>>ASSIGN   9244>>IF
XUG.BREAK
      8905**DCL      9241<<ASSIGN
XUG.BUF
      9232**DCL      9235--REDEF
XUG.CONTINUE
      8827**DCL      9246>>IF       9246>>CALL
XUG$
      8791**DCL      8796--IMP-PTR  9239<<ASSIGN   9240>>ASSIGN   9240>>ASSIGN   9241>>ASSIGN   9244>>IF
      9246>>IF       9246>>CALL
XUG$BRKSUB
      5597**DCL-ENT  9245--CALL
XUG_WORK$
      8789**DCL         6--PROC     9239>>ASSIGN   9245<>CALL

