VERSION E05

PL6.E3A0      #001=X$HELP File=XUH$HELP.:E05TSI                                  WED 07/30/97 09:19 Page:1
        1        1        /*T***********************************************************/
        2        2        /*T*                                                         */
        3        3        /*T* Copyright (c) Bull HN Information Systems Inc., 1997    */
        4        4        /*T*                                                         */
        5        5        /*T***********************************************************/
        6        6        /********************************************************************/
        7        7        /*M*       XUH$HELP    Common HELP interface to M$HELP              */
        8        8        /*                                                                  */
        9        9        /*X*       DFC,DMC                                                  */
       10       10        /*P*       NAME:    X$HELP
       11       11                   PURPOSE: To provide a common method of providing 'HELP'
       12       12                            in service processors. This routine requires
       13       13                            that the calling program parse the HELP command
       14       14                            using the PARTRGE nodes from XUH_NODES_D and
       15       15                            pass the information to this routine using the
       16       16                            macro XUH_PARAM from XUH_MACRO_C. This routine
       17       17                            will then pull the informatin out of the parse
       18       18                            tree and setup the fpt to call M$HELP.
       19       19        *********************************************************************/
       20       20        %EJECT;
PL6.E3A0      #001=X$HELP File=XUH$HELP.:E05TSI                                  WED 07/30/97 09:19 Page:2
       21       21        X$HELP: PROC (X$PARAM) ALTRET;
       22       22        /***** Include files *****/
       23       23          %INCLUDE B_ERRORS_C;
       24     1150          %INCLUDE B$JIT;
       25     1440          %INCLUDE B_MACROS_C;
       26     1551          %INCLUDE CP_6;
       27     1632          %INCLUDE CP_6_SUBS;
       28     2172          %INCLUDE XUH_MACRO_C;
       29     2256          %INCLUDE XUH_SUBS_C;
       30     2273          %INCLUDE XU_MACRO_C;
       31     5379          %INCLUDE XU_PERR_C;
       32     5570        /***** Fpts *****/
       33     5571          %FPT_FID (FPTN=FPT_FID,STCLASS=AUTO);
       34     5594          %FPT_FID (FPTN=CFPT_FID,STCLASS=CONSTANT);
       35     5617          %VLR_FID (FPTN=FID_RESULTS,STCLASS=AUTO);
       36     5636          %VLP_NAME (FPTN=FID_NAME,LEN=31,STCLASS=AUTO);
       37     5663          %VLP_ACCT (FPTN=FID_ACCT,STCLASS=AUTO);
       38     5676          %VLP_PASS (FPTN=FID_PASS,STCLASS=AUTO);
       39     5689          %VLP_WSN (FPTN=FID_WSN,STCLASS=AUTO);
       40     5702          %VLP_SN (FPTN=FID_SN,N=3,STCLASS=AUTO);
       41     5715          %FPT_HELP (FPTN=FPT_HELP,STCLASS=AUTO);
       42     5736          %FPT_HELP (FPTN=CFPT_HELP,STCLASS=CONSTANT);
       43     5757          %P_PCB (NAME=PCB,STCLASS=AUTO);
       44     5956          %P_PCB (NAME=CP$PCB,STCLASS=CONSTANT);
       45     6155          %VLR_HELP (FPTN=HELP_RESULTS,STCLASS=AUTO);
       46     6184          %VLP_NAME (FPTN=KEYWORD1,LEN=31,STCLASS=AUTO);
       47     6211          %VLP_NAME (FPTN=KEYWORD2,LEN=31,STCLASS=AUTO);
       48     6238        %SET LISTMAC='1'B;
       49     6239        %SET LISTSUB='1'B;
       50     6240        %SET LISTEXP='1'B;
       51     6241          %XUH_PARAM (NAME=X$PARAM,STCLASS=" ");
              6242        /**/
              6243        %LSET STR='         ';
              6244        %IF
              6246            '0'B;
              6248        %ELSE;
              6249          %LSET INIT=/*;
PL6.E3A0      #001=X$HELP File=XUH$HELP.:E05TSI                                  WED 07/30/97 09:19 Page:3
              6250        %ENDIF;
              6251        %IF '1'B;
              6252          %IF '1'B;
              6253            %LSET TERM=';';
              6254          %ELSE;
              6256          %ENDIF;
              6257        %ELSE;
              6259        %ENDIF;
              6260        %IF '1'B;
              6261    1   DCL  1  X$PARAM DALIGNED,
              6262        %ELSE;
              6264        %ENDIF;
              6265    1        2 PROCNAME_ VECTOR DALIGNED /*(VECTOR(NIL)) /**/,
              6266    1        2 PROCACCT_ VECTOR DALIGNED /*(VECTOR(NIL)) /**/,
              6267    1        2 PROCPASS_ VECTOR DALIGNED /*(VECTOR(NIL)) /**/,
              6268    1        2 KEYWORD_ VECTOR DALIGNED /*(VECTOR(NIL)) /**/,
              6269    1        2 OUTDCB1# UBIN HALF UNAL /*(DCBNUM(NIL)) /**/,
              6270    1        2 OUTDCB2# UBIN HALF UNAL /*(DCBNUM(NIL)) /**/,
              6271    1        2 HELP$ PTR /*(ADDR(NIL)) /**/,
              6272    1        2 VFC# CHAR(1) UNAL /*(BINASC(0)) /**/,
              6273    1        2 ALL# BIT(1) UNAL /*('0'B) /**/,
              6274    1        2 MORE# BIT(1) UNAL /*('0'B) /**/,
              6275    1        2 TOPICS# BIT(1) UNAL /*('0'B) /**/,
              6276    1        2 OTHER_PROC# BIT(1) UNAL /*('0'B) /**/,
              6277    1        2 * BIT(23) UNAL /*('0'B) /**/,
              6278    1        2 ERR,
              6279    1           3 FCG BIT(12) UNAL,
              6280    1           3 MID BIT(6) UNAL,
              6281    1           3 MON BIT(1) UNAL,
              6282    1           3 ERR# UBIN (14) UNAL,
              6283    1           3 SEV UBIN (3) UNAL,
              6284    1        2 ERR_DCB# UBIN WORD /*(0) /**/,
              6285    1        2 CHARPOS UBIN WORD /*(0) /**/,
              6286    1        2 HELP_CODE# UNAL,
              6287    1           3 LEN UBIN(9) UNAL /*(3) /**/,
              6288    1           3 TEXT CHAR(34) UNAL /*(' ') /**/,
              6289    1           3 PNAME,
PL6.E3A0      #001=X$HELP File=XUH$HELP.:E05TSI                                  WED 07/30/97 09:19 Page:4
              6290    1              4 LEN UBIN(9) UNAL /*(0) /**/,
              6291    1              4 TEXT CHAR(31) UNAL /*(' ') /**/,
              6292    1           3 PACCT CHAR(8) /*(' ') /**/,
              6293    1           3 PPASS CHAR(8) /*(' ') /**/,
              6294    1           3 PPSN CHAR(6) /*(' ') /**/,
              6295    1        2 PROCPSN_ VECTOR DALIGNED /*(VECTOR(NIL)) /**/,
              6296    1        2 SPARE3_ VECTOR DALIGNED /*(VECTOR(NIL)) /**/,
              6297    1        2 SPARE2_ VECTOR DALIGNED /*(VECTOR(NIL)) /**/,
              6298    1        2 SPARE1_ VECTOR DALIGNED /*(VECTOR(NIL)) /**/,
              6299    1        2 FPT_VERSION UBIN WORD /*(123457) /**/,
              6300    1        2 RESERVED (0:9) UBIN WORD /*(0*10) /**/ ;
       52     6302        %SET LISTMAC='0'B;
       53     6303        %SET LISTSUB='0'B;
       54     6304        %SET LISTEXP='0'B;
       55     6305        /***** Dcbs *****/
       56     6306    1     DCL M$DO DCB;
       57     6307        /***** CHAR/UBIN variables *****/
       58     6308    1     DCL WORK_AREA (0:200) UBIN WORD AUTO;
       59     6309    1     DCL INDX SBIN WORD AUTO;
       60     6310    1     DCL FID_ASN UBIN(9) AUTO;
       61     6311    1     DCL FID_RES CHAR(4) AUTO;
       62     6312        /***** Pointer variables *****/
       63     6313    1     DCL BLK$ PTR AUTO;
       64     6314    1     DCL P$ PTR AUTO;
       65     6315    1     DCL B$JIT$ PTR SYMREF READONLY;
       66     6316    1     DCL B$TCB$ PTR SYMREF READONLY;
       67     6317        /***** Based structures *****/
       68     6318          %PARSE$OUT (NAME=P$B,STCLASS=BASED);
       69     6363          %PARSE$SYM (NAME=P$S,STCLASS=BASED);
       70     6401          %B$TCB (STCLASS="BASED(B$TCB$)");
       71     6404          %F$DCB;
       72     6461          %B$ALT;
       73     6469          %TEXTC (NAME=X$STRING,STCLASS=BASED);
       74     6474          %VLP_NAME (FPTN=VLP$NAME,LEN=31,STCLASS=BASED);
       75     6501          %VLP_ACCT (FPTN=VLP$ACCT,STCLASS=BASED);
       76     6514          %VLP_PASS (FPTN=VLP$PASS,STCLASS=BASED);
       77     6527    1     DCL VLP$PSN CHAR(6) BASED;
PL6.E3A0      #001=X$HELP File=XUH$HELP.:E05TSI                                  WED 07/30/97 09:19 Page:5
       78     6528        /***** External routines *****/
       79     6529    1     DCL X$PARSE ENTRY(1) ALTRET;
       80     6530        /***** Symref data *****/
       81     6531    1     DCL XUH_HELP BIT(36) SYMREF;
       82     6532        /***** Special ENTREF to make library search work properly *****/
       83     6533    1     ENTREF: PROC;
       84     6534    2         DCL XUH_HELP ENTRY CONV(5);
       85     6535    2     END ENTREF;
       86     6536        /***** Structures *****/
       87     6537        %EJECT;
PL6.E3A0      #001=X$HELP File=XUH$HELP.:E05TSI                                  WED 07/30/97 09:19 Page:6
       88     6538        /**/
       89     6539        /***** Error codes *****/
       90     6540        /**/
       91     6541        /*E*    ERROR:  XUH-E$BDHELPFID-0
       92     6542                MESSAGE: Bad fid specification
       93     6543        */
       94     6544        /*E*    ERROR: XUH-E$BDTOPIC-0
       95     6545                MESSAGE::
       96     6546        No such topic.
       97     6547        Type ? for list of topics.
       98     6548        */
       99     6549        /*E*    ERROR:  XUH-E$NNATIVE-0
      100     6550                MESSAGE: That topic is not available in your native language.
      101     6551                         Type ? for list of topics.
      102     6552        */
      103     6553        /*E*    ERROR:  XUH-E$NULLKEYWORD-0
      104     6554                MESSAGE: X$HELP error. KEYWORD_ is nil.
      105     6555        */
      106     6556        %EJECT;
PL6.E3A0      #001=X$HELP File=XUH$HELP.:E05TSI                                  WED 07/30/97 09:19 Page:7
      107     6557        /*
      108     6558             ***** Initialize ...
      109     6559        */
      110     6560    1     FPT_HELP = CFPT_HELP;
      111     6561    1     FPT_HELP.V_ = VECTOR(FPT_HELP.V);
      112     6562    1     FPT_HELP.BUF_ = VECTOR(WORK_AREA);
      113     6563    1     FPT_HELP.RESULTS_ = VECTOR(HELP_RESULTS);
      114     6564    1     FPT_HELP.PROCNAME_ = VECTOR(X$PARAM.HELP_CODE#.PNAME);
      115     6565    1     FPT_HELP.PROCACCT_ = VECTOR(X$PARAM.HELP_CODE#.PACCT);
      116     6566    1     FPT_HELP.PROCPASS_ = VECTOR(X$PARAM.HELP_CODE#.PPASS);
      117     6567    1     IF X$PARAM.FPT_VERSION = 123457
      118     6568    1      THEN
      119     6569    1        FPT_HELP.PROCPSN_ = VECTOR(X$PARAM.HELP_CODE#.PPSN);
      120     6570    1     HELP_RESULTS = '0'B;
      121     6571    1     X$PARAM.ERR = '0'B;
      122     6572    1     X$PARAM.ERR_DCB# = 0;
      123     6573
      124     6574        /*
      125     6575             ***** Setup dcbs ...
      126     6576        */
      127     6577    1     IF X$PARAM.OUTDCB1# = 0
      128     6578    1     AND X$PARAM.OUTDCB2# = 0
      129     6579    1        THEN   /* Use M$DO */
      130     6580    1           FPT_HELP.V.OUTDCB1# = DCBNUM(M$DO);
      131     6581    1        ELSE   /* Use the dcbs passed */
      132     6582    2           DO;
      133     6583    2              FPT_HELP.V.OUTDCB1# = X$PARAM.OUTDCB1#;
      134     6584    2              FPT_HELP.V.OUTDCB2# = X$PARAM.OUTDCB2#;
      135     6585    2           END;
      136     6586        %EJECT;
PL6.E3A0      #001=X$HELP File=XUH$HELP.:E05TSI                                  WED 07/30/97 09:19 Page:8
      137     6587        /*
      138     6588             ***** Process ? or ?? (MORE# or ALL#) ...
      139     6589        */
      140     6590    1     IF X$PARAM.MORE#
      141     6591    1     OR X$PARAM.ALL#
      142     6592    1        THEN
      143     6593    2           DO;
      144     6594    2              HELP_RESULTS.CODEUSED.LEN = X$PARAM.HELP_CODE#.LEN;
      145     6595    2              HELP_RESULTS.CODEUSED.TEXT = X$PARAM.HELP_CODE#.TEXT;
      146     6596    2              IF X$PARAM.ALL#
      147     6597    2                 THEN
      148     6598    2                    FPT_HELP.V.ALL# = %YES#;
      149     6599    2                 ELSE
      150     6600    2                    FPT_HELP.V.MORE# = %YES#;
      151     6601    2              X$PARAM.ALL# = %NO#;
      152     6602    2              X$PARAM.MORE# = %NO#;
      153     6603    2              CALL M$HELP (FPT_HELP) ALTRET(E_HELP);
      154     6604    2              GOTO SAVE_INFO;
      155     6605    2           END;
      156     6606        /*
      157     6607             ***** X$PARAM.HELP_CODE# should be reset if
      158     6608                   ? or ?? processing is not being done ...
      159     6609        */
      160     6610    1     X$PARAM.HELP_CODE#.LEN = 0;
      161     6611    1     X$PARAM.HELP_CODE#.TEXT = ' ';
      162     6612        /**/
      163     6613        /*  The OTHER_PROC mechanism was evidently added as a partial implementation  */
      164     6614        /*  of the 'sticking' concept.                                                */
      165     6615        /*                                                                            */
      166     6616        /*  The only 'sticking' supported by X$HELP is this:  if you hit '?' or '?',  */
      167     6617        /*  you get elaboration from the last used HELP file.  If this code           */
      168     6618        /*  has been passed a 'HELP ...' command to parse, we clobber OTHER_PROC.     */
      169     6619        /**/
      170     6620    1     IF X$PARAM.HELP$ ~= ADDR(NIL) THEN
      171     6621    1        X$PARAM.OTHER_PROC# = %NO#;
      172     6622        %EJECT;
PL6.E3A0      #001=X$HELP File=XUH$HELP.:E05TSI                                  WED 07/30/97 09:19 Page:9
      173     6623        /*
      174     6624             ***** If OTHER_PROC# is not set, then it is
      175     6625                   necessary to setup PROCNAME, PROCACCT, PROCPSN, and PROCPASS ...
      176     6626        */
      177     6627    1     IF X$PARAM.OTHER_PROC# = %NO#
      178     6628    1        THEN   /* Setup as necessary */
      179     6629    2           DO;
      180     6630    2              IF VBASE(X$PARAM.PROCNAME_) ~= ADDR(NIL)
      181     6631    2                 THEN   /* Supplied by processor */
      182     6632    2                    X$PARAM.HELP_CODE#.PNAME = VBASE(X$PARAM.PROCNAME_) -> VLP$NAME;
      183     6633    2                 ELSE   /* Get out of M$LM */
      184     6634    2                    X$PARAM.HELP_CODE#.PNAME = DCBADDR(%M$LM#) -> F$DCB.NAME#;
      185     6635                 /**/
      186     6636    2              IF VBASE(X$PARAM.PROCACCT_) ~= ADDR(NIL)
      187     6637    2                 THEN   /* Supplied by processor */
      188     6638    2                    X$PARAM.HELP_CODE#.PACCT = VBASE(X$PARAM.PROCACCT_) -> VLP$ACCT.
              6638                             ACCT#;
      189     6639    2                 ELSE   /* Get out of M$LM */
      190     6640    2                    X$PARAM.HELP_CODE#.PACCT = DCBADDR(%M$LM#) -> F$DCB.ACCT#;
      191     6641                 /**/
      192     6642    2              IF X$PARAM.FPT_VERSION ~= 123457  /* If this FPT has no room       */
      193     6643    2                 THEN
      194     6644    2                   GOTO SKIP01;            /* Don't try to fill it               */
      195     6645    2              IF VBASE(X$PARAM.PROCPSN_) ~= ADDR(NIL)
      196     6646    2                 THEN   /* Supplied by processor */
      197     6647    2                    X$PARAM.HELP_CODE#.PPSN = VBASE(X$PARAM.PROCPSN_) -> VLP$PSN;
      198     6648    2                 ELSE   /* Get out of M$LM */
      199     6649    2                    X$PARAM.HELP_CODE#.PPSN = DCBADDR(%M$LM#) -> F$DCB.PSN#;
      200     6650    2   SKIP01:    ;
      201     6651                 /**/
      202     6652    2              IF VBASE(X$PARAM.PROCPASS_) ~= ADDR(NIL)
      203     6653    2                 THEN   /* Supplied by processor */
      204     6654    2                    X$PARAM.HELP_CODE#.PPASS = VBASE(X$PARAM.PROCPASS_) -> VLP$PASS.
              6654                             PASS#;
      205     6655    2           END;   /* Do ... setup ... end */
      206     6656        %EJECT;
PL6.E3A0      #001=X$HELP File=XUH$HELP.:E05TSI                                  WED 07/30/97 09:19 Page:10
      207     6657        /*
      208     6658             ***** If TOPICS were requested then
      209     6659                   list all available topics for this processor ...
      210     6660        */
      211     6661    1     IF X$PARAM.TOPICS#
      212     6662    1        THEN
      213     6663    2           DO;
      214     6664    2              X$PARAM.TOPICS# = %NO#;   /* Reset it */
      215     6665    2              FPT_HELP.V.LIST# = %YES#;
      216     6666    2              CALL M$HELP (FPT_HELP) ALTRET(E_HELP);
      217     6667    2              GOTO BACK;
      218     6668    2           END;
      219     6669        /*
      220     6670             ***** If X$HELP was passed a KEYWORD then the first
      221     6671                   level HELP message should be output. This is
      222     6672                   useful where the user has made a syntax error
      223     6673                   and typed ?? ...
      224     6674        */
      225     6675    1     IF X$PARAM.HELP$ = ADDR(NIL)
      226     6676    1        THEN   /* Must have passed a KEYWORD */
      227     6677    2           DO;
      228     6678    2              IF  X$PARAM.KEYWORD_ ~= VECTOR(NIL)
      229     6679    2                 THEN   /* Good info passed */
      230     6680    3                    DO;
      231     6681    3                       FPT_HELP.KEY1_ = X$PARAM.KEYWORD_;
      232     6682    3                       CALL M$HELP (FPT_HELP) ALTRET(E_HELP);
      233     6683    3                       GOTO SAVE_INFO;
      234     6684    3                    END;
      235     6685    2                 ELSE   /* Bozo passed bad info */
      236     6686    3                    DO;
      237     6687    3                       X$PARAM.ERR.FCG = '3025'O;
      238     6688    3                       X$PARAM.ERR.MID = '10'O;
      239     6689    3                       X$PARAM.ERR.MON = '0'O;
      240     6690    3                       X$PARAM.ERR.ERR# = %E$NULLKEYWORD;
      241     6691    3                       X$PARAM.ERR.SEV = 0;
      242     6692    3                       ALTRETURN;
      243     6693    3                    END;
PL6.E3A0      #001=X$HELP File=XUH$HELP.:E05TSI                                  WED 07/30/97 09:19 Page:11
      244     6694    2           END;
      245     6695        /*
      246     6696             ***** If HELP$ is not nil (got this far) then parse the command ...
      247     6697        */
      248     6698    1     PCB = CP$PCB;
      249     6699    1     PCB.ROOT$ = ADDR(XUH_HELP);
      250     6700    1     PCB.TEXT$ = ADDR(X$PARAM.HELP$ -> X$STRING.TEXT);
      251     6701    1     PCB.WORK$ = ADDR(WORK_AREA);
      252     6702    1     PCB.WKSZ = SIZEW(WORK_AREA);
      253     6703    1     PCB.NCHARS = X$PARAM.HELP$ -> X$STRING.SIZ;
      254     6704    1     CALL X$PARSE (PCB) ALTRET(E_PARSE);
      255     6705        /*
      256     6706             ***** Otherwise, a real HELP command was parsed ...
      257     6707        */
      258     6708    1     BLK$ = PCB.OUT$;
      259     6709        /**/
      260     6710    2     DO INDX = 0 TO BLK$ -> P$B.NSUBLKS - 1;
      261     6711    2        P$ = BLK$ -> P$B.SUBLK$(INDX);
      262     6712    3        DO CASE (P$ -> P$B.CODE);
      263     6713        %EJECT;
PL6.E3A0      #001=X$HELP File=XUH$HELP.:E05TSI                                  WED 07/30/97 09:19 Page:12
      264     6714    3           CASE (%FID_SPEC);
      265     6715    3              FPT_FID = CFPT_FID;
      266     6716    3              FPT_FID.TEXTFID_ =
      267     6717    3                    VECTOR(P$ -> P$B.SUBLK$(0) -> P$S.TEXT);
      268     6718    3              FPT_FID.NAME_ = VECTOR(FID_NAME);
      269     6719    3              FPT_FID.ACCT_ = VECTOR(FID_ACCT);
      270     6720    3              FPT_FID.PASS_ = VECTOR(FID_PASS);
      271     6721    3              FPT_FID.SN_ = VECTOR(FID_SN);
      272     6722    3              FPT_FID.WSN_ = VECTOR(FID_WSN);
      273     6723    3              FPT_FID.ASN_ = VECTOR(FID_ASN);
      274     6724    3              FPT_FID.RES_ = VECTOR(FID_RES);
      275     6725    3              FPT_FID.RESULTS_ = VECTOR(FID_RESULTS);
      276     6726    3              CALL M$FID (FPT_FID) ALTRET(E_FID);
      277     6727        /*
      278     6728             ***** Make sure that only usable FID was specified ...
      279     6729        */
      280     6730    3              IF FID_ASN ~= %FILE#
      281     6731    3                 THEN   /* Error */
      282     6732    4                    DO;
      283     6733    4                       X$PARAM.ERR.FCG = '3025'O;
      284     6734    4                       X$PARAM.ERR.MID = '10'O;
      285     6735    4                       X$PARAM.ERR.MON = '0'O;
      286     6736    4                       X$PARAM.ERR.ERR# = %E$BDHELPFID;
      287     6737    4                       X$PARAM.ERR.SEV = 0;
      288     6738    4                       ALTRETURN;
      289     6739    4                    END;
      290     6740        /*
      291     6741             ***** Stuff the NAME.ACCOUNT.PASS into FPT_HELP ...
      292     6742        */
      293     6743    3           X$PARAM.OTHER_PROC# = %YES#;   /* Processor specified */
      294     6744    3           IF FID_RESULTS.NAME
      295     6745    3              THEN
      296     6746    3                 IF FID_NAME.L# = 1
      297     6747    3                 AND FID_NAME.NAME# = '?'
      298     6748    3                    THEN   /* Special name */
      299     6749    4                       DO;
      300     6750    4                          X$PARAM.HELP_CODE#.PNAME.LEN = 1;
PL6.E3A0      #001=X$HELP File=XUH$HELP.:E05TSI                                  WED 07/30/97 09:19 Page:13
      301     6751    4                          X$PARAM.HELP_CODE#.PNAME.TEXT = ' ';
      302     6752    4                          FPT_HELP.V.LIST# = %YES#;
      303     6753    4                       END;
      304     6754    3                    ELSE   /* Processor name specified */
      305     6755    4                       DO;
      306     6756    4                          X$PARAM.HELP_CODE#.PNAME = FID_NAME;
      307     6757    4                       END;
      308     6758    3              ELSE   /* Get a list of TOPICS */
      309     6759    3                 FPT_HELP.V.LIST# = %YES#;
      310     6760    3           IF FID_RESULTS.ACCT
      311     6761    3              THEN
      312     6762    4                 DO;
      313     6763    4                    IF FID_ACCT.ACCT# = ' '
      314     6764    4                       THEN   /* Use File Mgt Acct */
      315     6765    4                          X$PARAM.HELP_CODE#.PACCT = B$JIT.FACCN;
      316     6766    4                       ELSE   /* Use specified acct */
      317     6767    4                          X$PARAM.HELP_CODE#.PACCT = FID_ACCT.ACCT#;
      318     6768    4                 END;
      319     6769    3              ELSE   /* Default is :SYS */
      320     6770    3                 X$PARAM.HELP_CODE#.PACCT = ':SYS';
      321     6771    3           IF X$PARAM.FPT_VERSION ~= 123457
      322     6772    3            THEN
      323     6773    3              GOTO SKIP02;
      324     6774    3           IF FID_RESULTS.SN AND FID_SN.NUM# = 1
      325     6775    3              THEN
      326     6776    3                 X$PARAM.HELP_CODE#.PPSN = FID_SN.SN#(0);
      327     6777    3              ELSE
      328     6778    3                 X$PARAM.HELP_CODE#.PPSN = ' ';
      329     6779    3   SKIP02: ;
      330     6780    3           IF FID_RESULTS.PASS
      331     6781    3              THEN
      332     6782    3                 X$PARAM.HELP_CODE#.PPASS = FID_PASS.PASS#;
      333     6783    3              ELSE
      334     6784    3                 X$PARAM.HELP_CODE#.PPASS = ' ';
      335     6785        %EJECT;
PL6.E3A0      #001=X$HELP File=XUH$HELP.:E05TSI                                  WED 07/30/97 09:19 Page:14
      336     6786    3           CASE (%TOPIC);
      337     6787    3              FPT_HELP.V.LIST# = %YES#;
      338     6788    3           CASE (%RANGE);
      339     6789    3              FPT_HELP.V.RANGE# = %YES#;
      340     6790    3           CASE (%KEYWORD1);
      341     6791    3              IF P$ -> P$S.COUNT ~= 0
      342     6792    3                 THEN
      343     6793    4                    DO;
      344     6794    4                       KEYWORD1.L# = P$ -> P$S.COUNT;
      345     6795    4                       KEYWORD1.NAME# = P$ -> P$S.TEXT;
      346     6796    4                       FPT_HELP.KEY1_ = VECTOR(KEYWORD1);
      347     6797    4                    END;
      348     6798    3           CASE (%KEYWORD2);
      349     6799    3              IF P$ -> P$S.COUNT ~= 0
      350     6800    3                 THEN
      351     6801    4                    DO;
      352     6802    4                       KEYWORD2.L# = P$ -> P$S.COUNT;
      353     6803    4                       KEYWORD2.NAME# = P$ -> P$S.TEXT;
      354     6804    4                       FPT_HELP.KEY2_ = VECTOR(KEYWORD2);
      355     6805    4                    END;
      356     6806    3        END;   /* Do case ... end */
      357     6807    2     END;   /* Do indx ... end */
      358     6808    1     X$PARAM.HELP$ = ADDR(NIL);   /* Throw away parse tree */
      359     6809    1     CALL M$HELP (FPT_HELP) ALTRET(E_HELP);
      360     6810        /*
      361     6811             ***** Save the RESULTS returned ...
      362     6812        */
      363     6813    1   SAVE_INFO:
      364     6814    1     X$PARAM.HELP_CODE#.LEN = HELP_RESULTS.CODEUSED.LEN;
      365     6815    1     X$PARAM.HELP_CODE#.TEXT = HELP_RESULTS.CODEUSED.TEXT;
      366     6816    1   BACK:   /* Check HELP_RESULTS before returning */
      367     6817    1     IF HELP_RESULTS.OUTERR1
      368     6818    1     AND HELP_RESULTS.ERRCODE1.ERR# ~= %E$BYD
      369     6819    1        THEN
      370     6820    2           DO;
      371     6821    2              X$PARAM.ERR = HELP_RESULTS.ERRCODE1;
      372     6822    2              X$PARAM.ERR_DCB# = X$PARAM.OUTDCB1#;
PL6.E3A0      #001=X$HELP File=XUH$HELP.:E05TSI                                  WED 07/30/97 09:19 Page:15
      373     6823    2              ALTRETURN;
      374     6824    2           END;
      375     6825    1     IF HELP_RESULTS.OUTERR2
      376     6826    1     AND HELP_RESULTS.ERRCODE2.ERR# ~= %E$CORRES
      377     6827    1     AND HELP_RESULTS.ERRCODE2.ERR# ~= %E$BYD
      378     6828    1        THEN
      379     6829    2           DO;
      380     6830    2              X$PARAM.ERR = HELP_RESULTS.ERRCODE2;
      381     6831    2              X$PARAM.ERR_DCB# = X$PARAM.OUTDCB2#;
      382     6832    2              ALTRETURN;
      383     6833    2           END;
      384     6834        /*
      385     6835             ***** Reset OTHER_PROC#
      386     6836                   Otherwise, the user could stay mapped into
      387     6837                   a processor (other than calling processor)
      388     6838                   without knowing it and get confused...
      389     6839        */
      390     6840    1     X$PARAM.OTHER_PROC# = %NO#;
      391     6841    1     RETURN;
      392     6842        %EJECT;
PL6.E3A0      #001=X$HELP File=XUH$HELP.:E05TSI                                  WED 07/30/97 09:19 Page:16
      393     6843        /*
      394     6844             ***** Some error occured ...
      395     6845        */
      396     6846    1   E_FID:
      397     6847    1     X$PARAM.ERR = B$TCB.ALT$ -> B$ALT.ERR;
      398     6848    1     ALTRETURN;
      399     6849        /**/
      400     6850    1   E_HELP:
      401     6851    1     IF HELP_RESULTS.NNATIVE
      402     6852    1        THEN
      403     6853    2           DO;
      404     6854    2              X$PARAM.ERR.FCG = '3025'O;
      405     6855    2              X$PARAM.ERR.MID = '10'O;
      406     6856    2              X$PARAM.ERR.MON = '0'O;
      407     6857    2              X$PARAM.ERR.ERR# = %E$NNATIVE;
      408     6858    2              X$PARAM.ERR.SEV = 0;
      409     6859    2              ALTRETURN;
      410     6860    2           END;
      411     6861    1     IF B$TCB.ALT$ -> B$ALT.ERR.CODE = %E$NOTOPIC
      412     6862    1        THEN
      413     6863    2           DO;
      414     6864    2              X$PARAM.ERR.FCG = '3025'O;
      415     6865    2              X$PARAM.ERR.MID = '10'O;
      416     6866    2              X$PARAM.ERR.MON = '0'O;
      417     6867    2              X$PARAM.ERR.ERR# = %E$BDTOPIC;
      418     6868    2              X$PARAM.ERR.SEV = 0;
      419     6869    2              ALTRETURN;
      420     6870    2           END;
      421     6871        /*
      422     6872             ***** Otherwise, get the error out of the TCB ...
      423     6873        */
      424     6874    1     X$PARAM.ERR = B$TCB.ALT$ -> B$ALT.ERR;
      425     6875    1     ALTRETURN;
      426     6876        /**/
      427     6877    1   E_PARSE:
      428     6878    1     X$PARAM.CHARPOS = PCB.HI_CHAR;
      429     6879    1     X$PARAM.ERR = PCB.ERROR;
PL6.E3A0      #001=X$HELP File=XUH$HELP.:E05TSI                                  WED 07/30/97 09:19 Page:17
      430     6880    1     ALTRETURN;
      431     6881    1   END X$HELP;

PL6.E3A0      #001=X$HELP File=XUH$HELP.:E05TSI                                  WED 07/30/97 09:19 Page:18
--  Include file information  --

   XU_PERR_C.:E05TOU  is referenced.
   XU_MACRO_C.:E05TOU  is referenced.
   XUH_SUBS_C.:E05TOU  is referenced.
   XUH_MACRO_C.:E05TOU  is referenced.
   CP_6_SUBS.:E05TOU  is referenced.
   CP_6.:E05TOU  cannot be made into a system file and is referenced.
   B_MACROS_C.:E05TOU  is referenced.
   B$JIT.:E05TOU  cannot be made into a system file and is referenced.
   B_ERRORS_C.:E05TOU  is referenced.
   B$JIT_C.:E05TOU  was found in the system file and is referenced.
   CP_6_C.:E05TOU  was found in the system file and is referenced.
      No diagnostics issued in procedure X$HELP.

   Procedure X$HELP requires 522 words for executable code.
   Procedure X$HELP requires 334 words of local(AUTO) storage.

    No errors detected in file XUH$HELP.:E05TSI    .

PL6.E3A0      #001=X$HELP File=XUH$HELP.:E05TSI                                  WED 07/30/97 09:19 Page:19

 Object Unit name= X$HELP                                     File name= XUH$HELP.:E05TOU
 UTS= JUL 30 '97 09:19:48.84 WED                              Compiler= PL-6/E31         Sev=      00
 SharedLib= :SHARED_SYSTEM                                    Alt SharedLib=


    ****  Control sections  ****

 Sect   Type Bound  Init  Size OctSiz  Section name(segment info)
    0   DCB   even  none     0      0  M$UC
    1  RoData even  UTS     61     75  X$HELP
    2   DCB   even  none     0      0  M$DO
    3   Proc  even  none   522   1012  X$HELP
    4  RoData even  none    28     34  X$HELP

    ****  Entry defs  ****

                              Check   Calling
                             calling  sequence
  Sect OctLoc Primary Altret sequence   type   Parms  Name
     3      0   yes    yes     yes      Std        1  X$HELP

  ****  Entry refs  ****

         Check        Calling
        calling       sequence
Altret sequence SRef   type   Args  Name
 yes     yes           Std       1 X$PARSE
         yes          ~proc      0 XUH_HELP
                       nStd      0 X66_AUTO_1
                       Std       0 B_CONSPOOL_D
                       nStd      0 X66_AALT
                       nStd      0 X66_ARET
PL6.E3A0      #001=X$HELP File=XUH$HELP.:E05TSI                                  WED 07/30/97 09:19 Page:20

  ****  Data refs  ****

  Flags:  r = read only, s = secondary
Flgs Name                             Flgs Name                             Flgs Name
     M$UC                                  M$DO                             r    B$JIT$
r    B$TCB$                                XUH_HELP                              B_VECTNIL

  ****  Segment refs  ****

  Flags:  r = read only, s = secondary
Flgs Name                             Flgs Name                             Flgs Name
     ISSID                                 NULLSID                               ROSID
PL6.E3A0      #001=X$HELP File=XUH$HELP.:E05TSI                                  WED 07/30/97 09:19 Page:21


        1        1        /*T***********************************************************/
        2        2        /*T*                                                         */
        3        3        /*T* Copyright (c) Bull HN Information Systems Inc., 1997    */
        4        4        /*T*                                                         */
        5        5        /*T***********************************************************/
        6        6        /********************************************************************/
        7        7        /*M*       XUH$HELP    Common HELP interface to M$HELP              */
        8        8        /*                                                                  */
        9        9        /*X*       DFC,DMC                                                  */
       10       10        /*P*       NAME:    X$HELP
       11       11                   PURPOSE: To provide a common method of providing 'HELP'
       12       12                            in service processors. This routine requires
       13       13                            that the calling program parse the HELP command
       14       14                            using the PARTRGE nodes from XUH_NODES_D and
       15       15                            pass the information to this routine using the
       16       16                            macro XUH_PARAM from XUH_MACRO_C. This routine
       17       17                            will then pull the informatin out of the parse
       18       18                            tree and setup the fpt to call M$HELP.
       19       19        *********************************************************************/
       20       20        %EJECT;
PL6.E3A0      #001=X$HELP File=XUH$HELP.:E05TSI                                  WED 07/30/97 09:19 Page:22
       21       21        X$HELP: PROC (X$PARAM) ALTRET;

     21  3 000000   000000 700200 xent  X$HELP       TSX0  ! X66_AUTO_1
         3 000001   000516 000001                    ZERO    334,1
         3 000002   000005 710000 3                  TRA     s:6560

       22       22        /***** Include files *****/
       23       23          %INCLUDE B_ERRORS_C;
       24     1150          %INCLUDE B$JIT;
       25     1440          %INCLUDE B_MACROS_C;
       26     1551          %INCLUDE CP_6;
       27     1632          %INCLUDE CP_6_SUBS;
       28     2172          %INCLUDE XUH_MACRO_C;
       29     2256          %INCLUDE XUH_SUBS_C;
       30     2273          %INCLUDE XU_MACRO_C;
       31     5379          %INCLUDE XU_PERR_C;
       32     5570        /***** Fpts *****/
       33     5571          %FPT_FID (FPTN=FPT_FID,STCLASS=AUTO);
       34     5594          %FPT_FID (FPTN=CFPT_FID,STCLASS=CONSTANT);
       35     5617          %VLR_FID (FPTN=FID_RESULTS,STCLASS=AUTO);
       36     5636          %VLP_NAME (FPTN=FID_NAME,LEN=31,STCLASS=AUTO);
       37     5663          %VLP_ACCT (FPTN=FID_ACCT,STCLASS=AUTO);
       38     5676          %VLP_PASS (FPTN=FID_PASS,STCLASS=AUTO);
       39     5689          %VLP_WSN (FPTN=FID_WSN,STCLASS=AUTO);
       40     5702          %VLP_SN (FPTN=FID_SN,N=3,STCLASS=AUTO);
       41     5715          %FPT_HELP (FPTN=FPT_HELP,STCLASS=AUTO);
       42     5736          %FPT_HELP (FPTN=CFPT_HELP,STCLASS=CONSTANT);
       43     5757          %P_PCB (NAME=PCB,STCLASS=AUTO);
       44     5956          %P_PCB (NAME=CP$PCB,STCLASS=CONSTANT);
       45     6155          %VLR_HELP (FPTN=HELP_RESULTS,STCLASS=AUTO);
       46     6184          %VLP_NAME (FPTN=KEYWORD1,LEN=31,STCLASS=AUTO);
       47     6211          %VLP_NAME (FPTN=KEYWORD2,LEN=31,STCLASS=AUTO);
       48     6238        %SET LISTMAC='1'B;
       49     6239        %SET LISTSUB='1'B;
       50     6240        %SET LISTEXP='1'B;
       51     6241          %XUH_PARAM (NAME=X$PARAM,STCLASS=" ");
              6242        /**/
PL6.E3A0      #001=X$HELP File=XUH$HELP.:E05TSI                                  WED 07/30/97 09:19 Page:23
              6243        %LSET STR='         ';
              6244        %IF
              6246            '0'B;
              6248        %ELSE;
              6249          %LSET INIT=/*;
              6250        %ENDIF;
              6251        %IF '1'B;
              6252          %IF '1'B;
              6253            %LSET TERM=';';
              6254          %ELSE;
              6256          %ENDIF;
              6257        %ELSE;
              6259        %ENDIF;
              6260        %IF '1'B;
              6261    1   DCL  1  X$PARAM DALIGNED,
              6262        %ELSE;
              6264        %ENDIF;
              6265    1        2 PROCNAME_ VECTOR DALIGNED /*(VECTOR(NIL)) /**/,
              6266    1        2 PROCACCT_ VECTOR DALIGNED /*(VECTOR(NIL)) /**/,
              6267    1        2 PROCPASS_ VECTOR DALIGNED /*(VECTOR(NIL)) /**/,
              6268    1        2 KEYWORD_ VECTOR DALIGNED /*(VECTOR(NIL)) /**/,
              6269    1        2 OUTDCB1# UBIN HALF UNAL /*(DCBNUM(NIL)) /**/,
              6270    1        2 OUTDCB2# UBIN HALF UNAL /*(DCBNUM(NIL)) /**/,
              6271    1        2 HELP$ PTR /*(ADDR(NIL)) /**/,
              6272    1        2 VFC# CHAR(1) UNAL /*(BINASC(0)) /**/,
              6273    1        2 ALL# BIT(1) UNAL /*('0'B) /**/,
              6274    1        2 MORE# BIT(1) UNAL /*('0'B) /**/,
              6275    1        2 TOPICS# BIT(1) UNAL /*('0'B) /**/,
              6276    1        2 OTHER_PROC# BIT(1) UNAL /*('0'B) /**/,
              6277    1        2 * BIT(23) UNAL /*('0'B) /**/,
              6278    1        2 ERR,
              6279    1           3 FCG BIT(12) UNAL,
              6280    1           3 MID BIT(6) UNAL,
              6281    1           3 MON BIT(1) UNAL,
              6282    1           3 ERR# UBIN (14) UNAL,
              6283    1           3 SEV UBIN (3) UNAL,
              6284    1        2 ERR_DCB# UBIN WORD /*(0) /**/,
PL6.E3A0      #001=X$HELP File=XUH$HELP.:E05TSI                                  WED 07/30/97 09:19 Page:24
              6285    1        2 CHARPOS UBIN WORD /*(0) /**/,
              6286    1        2 HELP_CODE# UNAL,
              6287    1           3 LEN UBIN(9) UNAL /*(3) /**/,
              6288    1           3 TEXT CHAR(34) UNAL /*(' ') /**/,
              6289    1           3 PNAME,
              6290    1              4 LEN UBIN(9) UNAL /*(0) /**/,
              6291    1              4 TEXT CHAR(31) UNAL /*(' ') /**/,
              6292    1           3 PACCT CHAR(8) /*(' ') /**/,
              6293    1           3 PPASS CHAR(8) /*(' ') /**/,
              6294    1           3 PPSN CHAR(6) /*(' ') /**/,
              6295    1        2 PROCPSN_ VECTOR DALIGNED /*(VECTOR(NIL)) /**/,
              6296    1        2 SPARE3_ VECTOR DALIGNED /*(VECTOR(NIL)) /**/,
              6297    1        2 SPARE2_ VECTOR DALIGNED /*(VECTOR(NIL)) /**/,
              6298    1        2 SPARE1_ VECTOR DALIGNED /*(VECTOR(NIL)) /**/,
              6299    1        2 FPT_VERSION UBIN WORD /*(123457) /**/,
              6300    1        2 RESERVED (0:9) UBIN WORD /*(0*10) /**/ ;
       52     6302        %SET LISTMAC='0'B;
       53     6303        %SET LISTSUB='0'B;
       54     6304        %SET LISTEXP='0'B;
       55     6305        /***** Dcbs *****/
       56     6306    1     DCL M$DO DCB;
       57     6307        /***** CHAR/UBIN variables *****/
       58     6308    1     DCL WORK_AREA (0:200) UBIN WORD AUTO;
       59     6309    1     DCL INDX SBIN WORD AUTO;
       60     6310    1     DCL FID_ASN UBIN(9) AUTO;
       61     6311    1     DCL FID_RES CHAR(4) AUTO;
       62     6312        /***** Pointer variables *****/
       63     6313    1     DCL BLK$ PTR AUTO;
       64     6314    1     DCL P$ PTR AUTO;
       65     6315    1     DCL B$JIT$ PTR SYMREF READONLY;
       66     6316    1     DCL B$TCB$ PTR SYMREF READONLY;
       67     6317        /***** Based structures *****/
       68     6318          %PARSE$OUT (NAME=P$B,STCLASS=BASED);
       69     6363          %PARSE$SYM (NAME=P$S,STCLASS=BASED);
       70     6401          %B$TCB (STCLASS="BASED(B$TCB$)");
       71     6404          %F$DCB;
       72     6461          %B$ALT;
PL6.E3A0      #001=X$HELP File=XUH$HELP.:E05TSI                                  WED 07/30/97 09:19 Page:25
       73     6469          %TEXTC (NAME=X$STRING,STCLASS=BASED);
       74     6474          %VLP_NAME (FPTN=VLP$NAME,LEN=31,STCLASS=BASED);
       75     6501          %VLP_ACCT (FPTN=VLP$ACCT,STCLASS=BASED);
       76     6514          %VLP_PASS (FPTN=VLP$PASS,STCLASS=BASED);
       77     6527    1     DCL VLP$PSN CHAR(6) BASED;
       78     6528        /***** External routines *****/
       79     6529    1     DCL X$PARSE ENTRY(1) ALTRET;
       80     6530        /***** Symref data *****/
       81     6531    1     DCL XUH_HELP BIT(36) SYMREF;
       82     6532        /***** Special ENTREF to make library search work properly *****/
       83     6533    1     ENTREF: PROC;

   6533  3 000003   200512 741300       ENTREF       STX1  ! P$+1,,AUTO

       84     6534    2         DCL XUH_HELP ENTRY CONV(5);
       85     6535    2     END ENTREF;

   6535  3 000004   000001 702211                    TSX2  ! 1,X1

       86     6536        /***** Structures *****/
       87     6537        %EJECT;
PL6.E3A0      #001=X$HELP File=XUH$HELP.:E05TSI                                  WED 07/30/97 09:19 Page:26
       88     6538        /**/
       89     6539        /***** Error codes *****/
       90     6540        /**/
       91     6541        /*E*    ERROR:  XUH-E$BDHELPFID-0
       92     6542                MESSAGE: Bad fid specification
       93     6543        */
       94     6544        /*E*    ERROR: XUH-E$BDTOPIC-0
       95     6545                MESSAGE::
       96     6546        No such topic.
       97     6547        Type ? for list of topics.
       98     6548        */
       99     6549        /*E*    ERROR:  XUH-E$NNATIVE-0
      100     6550                MESSAGE: That topic is not available in your native language.
      101     6551                         Type ? for list of topics.
      102     6552        */
      103     6553        /*E*    ERROR:  XUH-E$NULLKEYWORD-0
      104     6554                MESSAGE: X$HELP error. KEYWORD_ is nil.
      105     6555        */
      106     6556        %EJECT;
PL6.E3A0      #001=X$HELP File=XUH$HELP.:E05TSI                                  WED 07/30/97 09:19 Page:27
      107     6557        /*
      108     6558             ***** Initialize ...
      109     6559        */
      110     6560    1     FPT_HELP = CFPT_HELP;

   6560  3 000005   000100 100400                    MLR     fill='000'O
         3 000006   000030 000130 1                  ADSC9   CFPT_HELP                cn=0,n=88
         3 000007   200072 000130                    ADSC9   FPT_HELP,,AUTO           cn=0,n=88

      111     6561    1     FPT_HELP.V_ = VECTOR(FPT_HELP.V);

   6561  3 000010   000000 235000 4                  LDA     0
         3 000011   200514 452500                    STP2    P$+3,,AUTO
         3 000012   200514 236100                    LDQ     P$+3,,AUTO
         3 000013   000114 036003                    ADLQ    76,DU
         3 000014   200072 757100                    STAQ    FPT_HELP,,AUTO

      112     6562    1     FPT_HELP.BUF_ = VECTOR(WORK_AREA);

   6562  3 000015   000001 235000 4                  LDA     1
         3 000016   200514 452500                    STP2    P$+3,,AUTO
         3 000017   200514 236100                    LDQ     P$+3,,AUTO
         3 000020   000174 036003                    ADLQ    124,DU
         3 000021   200100 757100                    STAQ    FPT_HELP+6,,AUTO

      113     6563    1     FPT_HELP.RESULTS_ = VECTOR(HELP_RESULTS);

   6563  3 000022   000002 235000 4                  LDA     2
         3 000023   200514 452500                    STP2    P$+3,,AUTO
         3 000024   200514 236100                    LDQ     P$+3,,AUTO
         3 000025   000136 036003                    ADLQ    94,DU
         3 000026   200110 757100                    STAQ    FPT_HELP+14,,AUTO

      114     6564    1     FPT_HELP.PROCNAME_ = VECTOR(X$PARAM.HELP_CODE#.PNAME);

   6564  3 000027   000003 235000 4                  LDA     3
         3 000030   200003 236100                    LDQ     @X$PARAM,,AUTO
PL6.E3A0      #001=X$HELP File=XUH$HELP.:E05TSI                                  WED 07/30/97 09:19 Page:28
         3 000031   000004 036000 4                  ADLQ    4
         3 000032   200102 757100                    STAQ    FPT_HELP+8,,AUTO

      115     6565    1     FPT_HELP.PROCACCT_ = VECTOR(X$PARAM.HELP_CODE#.PACCT);

   6565  3 000033   000005 235000 4                  LDA     5
         3 000034   200003 236100                    LDQ     @X$PARAM,,AUTO
         3 000035   000006 036000 4                  ADLQ    6
         3 000036   200104 757100                    STAQ    FPT_HELP+10,,AUTO

      116     6566    1     FPT_HELP.PROCPASS_ = VECTOR(X$PARAM.HELP_CODE#.PPASS);

   6566  3 000037   000005 235000 4                  LDA     5
         3 000040   200003 236100                    LDQ     @X$PARAM,,AUTO
         3 000041   000007 036000 4                  ADLQ    7
         3 000042   200106 757100                    STAQ    FPT_HELP+12,,AUTO

      117     6567    1     IF X$PARAM.FPT_VERSION = 123457

   6567  3 000043   200003 470500                    LDP0    @X$PARAM,,AUTO
         3 000044   000056 235100                    LDA     46,,PR0
         3 000045   361101 115007                    CMPA    123457,DL
         3 000046   000053 601000 3                  TNZ     s:6570

      118     6568    1      THEN
      119     6569    1        FPT_HELP.PROCPSN_ = VECTOR(X$PARAM.HELP_CODE#.PPSN);

   6569  3 000047   000010 235000 4                  LDA     8
         3 000050   200003 236100                    LDQ     @X$PARAM,,AUTO
         3 000051   000011 036000 4                  ADLQ    9
         3 000052   200112 757100                    STAQ    FPT_HELP+16,,AUTO

      120     6570    1     HELP_RESULTS = '0'B;

   6570  3 000053   000100 100400                    MLR     fill='000'O
         3 000054   000002 000001 xsym               ADSC9   B_VECTNIL+2              cn=0,n=1
         3 000055   200136 000070                    ADSC9   HELP_RESULTS,,AUTO       cn=0,n=56
PL6.E3A0      #001=X$HELP File=XUH$HELP.:E05TSI                                  WED 07/30/97 09:19 Page:29

      121     6571    1     X$PARAM.ERR = '0'B;

   6571  3 000056   000013 450100                    STZ     11,,PR0

      122     6572    1     X$PARAM.ERR_DCB# = 0;

   6572  3 000057   000014 450100                    STZ     12,,PR0

      123     6573
      124     6574        /*
      125     6575             ***** Setup dcbs ...
      126     6576        */
      127     6577    1     IF X$PARAM.OUTDCB1# = 0

   6577  3 000060   000010 220100                    LDX0    8,,PR0
         3 000061   000070 601000 3                  TNZ     s:6583
         3 000062   000010 721100                    LXL1    8,,PR0
         3 000063   000070 601000 3                  TNZ     s:6583

      128     6578    1     AND X$PARAM.OUTDCB2# = 0
      129     6579    1        THEN   /* Use M$DO */
      130     6580    1           FPT_HELP.V.OUTDCB1# = DCBNUM(M$DO);

   6580  3 000064   000000 236007 xsym               LDQ     M$DO,DL
         3 000065   000000 622006                    EAX2    0,QL
         3 000066   200114 742100                    STX2    FPT_HELP+18,,AUTO
         3 000067   000073 710000 3                  TRA     s:6590

      131     6581    1        ELSE   /* Use the dcbs passed */
      132     6582    2           DO;

      133     6583    2              FPT_HELP.V.OUTDCB1# = X$PARAM.OUTDCB1#;

   6583  3 000070   200114 740100                    STX0    FPT_HELP+18,,AUTO

      134     6584    2              FPT_HELP.V.OUTDCB2# = X$PARAM.OUTDCB2#;
PL6.E3A0      #001=X$HELP File=XUH$HELP.:E05TSI                                  WED 07/30/97 09:19 Page:30

   6584  3 000071   000010 721100                    LXL1    8,,PR0
         3 000072   200114 441100                    SXL1    FPT_HELP+18,,AUTO

      135     6585    2           END;

      136     6586        %EJECT;
PL6.E3A0      #001=X$HELP File=XUH$HELP.:E05TSI                                  WED 07/30/97 09:19 Page:31
      137     6587        /*
      138     6588             ***** Process ? or ?? (MORE# or ALL#) ...
      139     6589        */
      140     6590    1     IF X$PARAM.MORE#

   6590  3 000073   000012 236100                    LDQ     10,,PR0
         3 000074   000200 316003                    CANQ    128,DU
         3 000075   000100 601000 3                  TNZ     s:6594
         3 000076   000400 316003                    CANQ    256,DU
         3 000077   000126 600000 3                  TZE     s:6610

      141     6591    1     OR X$PARAM.ALL#
      142     6592    1        THEN
      143     6593    2           DO;

      144     6594    2              HELP_RESULTS.CODEUSED.LEN = X$PARAM.HELP_CODE#.LEN;

   6594  3 000100   000016 236100                    LDQ     14,,PR0
         3 000101   200142 552140                    STBQ    HELP_RESULTS+4,'40'O,AUTO

      145     6595    2              HELP_RESULTS.CODEUSED.TEXT = X$PARAM.HELP_CODE#.TEXT;

   6595  3 000102   040100 100500                    MLR     fill='040'O
         3 000103   000016 200042                    ADSC9   14,,PR0                  cn=1,n=34
         3 000104   200142 200042                    ADSC9   HELP_RESULTS+4,,AUTO     cn=1,n=34

      146     6596    2              IF X$PARAM.ALL#

   6596  3 000105   000012 236100                    LDQ     10,,PR0
         3 000106   000400 316003                    CANQ    256,DU
         3 000107   000113 600000 3                  TZE     s:6600

      147     6597    2                 THEN
      148     6598    2                    FPT_HELP.V.ALL# = %YES#;

   6598  3 000110   000004 236007                    LDQ     4,DL
         3 000111   200115 256100                    ORSQ    FPT_HELP+19,,AUTO
PL6.E3A0      #001=X$HELP File=XUH$HELP.:E05TSI                                  WED 07/30/97 09:19 Page:32
         3 000112   000115 710000 3                  TRA     s:6601

      149     6599    2                 ELSE
      150     6600    2                    FPT_HELP.V.MORE# = %YES#;

   6600  3 000113   000002 236007                    LDQ     2,DL
         3 000114   200115 256100                    ORSQ    FPT_HELP+19,,AUTO

      151     6601    2              X$PARAM.ALL# = %NO#;

   6601  3 000115   000012 236000 4                  LDQ     10
         3 000116   000012 356100                    ANSQ    10,,PR0

      152     6602    2              X$PARAM.MORE# = %NO#;

   6602  3 000117   000013 236000 4                  LDQ     11
         3 000120   000012 356100                    ANSQ    10,,PR0

      153     6603    2              CALL M$HELP (FPT_HELP) ALTRET(E_HELP);

   6603  3 000121   200072 630500                    EPPR0   FPT_HELP,,AUTO
         3 000122   420024 713400                    CLIMB   alt,+8212
         3 000123   404000 401760                    pmme    nvectors=9
         3 000124   000733 702000 3                  TSX2    E_HELP

      154     6604    2              GOTO SAVE_INFO;

   6604  3 000125   000655 710000 3                  TRA     SAVE_INFO

      155     6605    2           END;
      156     6606        /*
      157     6607             ***** X$PARAM.HELP_CODE# should be reset if
      158     6608                   ? or ?? processing is not being done ...
      159     6609        */
      160     6610    1     X$PARAM.HELP_CODE#.LEN = 0;

   6610  3 000126   000000 236003                    LDQ     0,DU
PL6.E3A0      #001=X$HELP File=XUH$HELP.:E05TSI                                  WED 07/30/97 09:19 Page:33
         3 000127   000016 552140                    STBQ    14,'40'O,PR0

      161     6611    1     X$PARAM.HELP_CODE#.TEXT = ' ';

   6611  3 000130   040100 100400                    MLR     fill='040'O
         3 000131   000035 000001 xsym               ADSC9   B_VECTNIL+29             cn=0,n=1
         3 000132   000016 200042                    ADSC9   14,,PR0                  cn=1,n=34

      162     6612        /**/
      163     6613        /*  The OTHER_PROC mechanism was evidently added as a partial implementation  */
      164     6614        /*  of the 'sticking' concept.                                                */
      165     6615        /*                                                                            */
      166     6616        /*  The only 'sticking' supported by X$HELP is this:  if you hit '?' or '?',  */
      167     6617        /*  you get elaboration from the last used HELP file.  If this code           */
      168     6618        /*  has been passed a 'HELP ...' command to parse, we clobber OTHER_PROC.     */
      169     6619        /**/
      170     6620    1     IF X$PARAM.HELP$ ~= ADDR(NIL) THEN

   6620  3 000133   000011 236100                    LDQ     9,,PR0
         3 000134   000001 116000 xsym               CMPQ    B_VECTNIL+1
         3 000135   000140 600000 3                  TZE     s:6627

      171     6621    1        X$PARAM.OTHER_PROC# = %NO#;

   6621  3 000136   000014 236000 4                  LDQ     12
         3 000137   000012 356100                    ANSQ    10,,PR0

      172     6622        %EJECT;
PL6.E3A0      #001=X$HELP File=XUH$HELP.:E05TSI                                  WED 07/30/97 09:19 Page:34
      173     6623        /*
      174     6624             ***** If OTHER_PROC# is not set, then it is
      175     6625                   necessary to setup PROCNAME, PROCACCT, PROCPSN, and PROCPASS ...
      176     6626        */
      177     6627    1     IF X$PARAM.OTHER_PROC# = %NO#

   6627  3 000140   000012 236100                    LDQ     10,,PR0
         3 000141   000040 316003                    CANQ    32,DU
         3 000142   000227 601000 3                  TNZ     s:6661

      178     6628    1        THEN   /* Setup as necessary */
      179     6629    2           DO;

      180     6630    2              IF VBASE(X$PARAM.PROCNAME_) ~= ADDR(NIL)

   6630  3 000143   000001 236100                    LDQ     1,,PR0
         3 000144   000001 116000 xsym               CMPQ    B_VECTNIL+1
         3 000145   000153 600000 3                  TZE     s:6634

      181     6631    2                 THEN   /* Supplied by processor */
      182     6632    2                    X$PARAM.HELP_CODE#.PNAME = VBASE(X$PARAM.PROCNAME_) -> VLP$NAME;

   6632  3 000146   000001 471500                    LDP1    1,,PR0
         3 000147   000100 100500                    MLR     fill='000'O
         3 000150   100000 000040                    ADSC9   0,,PR1                   cn=0,n=32
         3 000151   000026 600040                    ADSC9   22,,PR0                  cn=3,n=32
         3 000152   000161 710000 3                  TRA     s:6636

      183     6633    2                 ELSE   /* Get out of M$LM */
      184     6634    2                    X$PARAM.HELP_CODE#.PNAME = DCBADDR(%M$LM#) -> F$DCB.NAME#;

   6634  3 000153   000015 471400 4                  LDP1    13
         3 000154   100000 473500                    LDP3    0,,PR1
         3 000155   300002 474500                    LDP4    2,,PR3
         3 000156   000100 100500                    MLR     fill='000'O
         3 000157   400010 000040                    ADSC9   8,,PR4                   cn=0,n=32
         3 000160   000026 600040                    ADSC9   22,,PR0                  cn=3,n=32
PL6.E3A0      #001=X$HELP File=XUH$HELP.:E05TSI                                  WED 07/30/97 09:19 Page:35

      185     6635                 /**/
      186     6636    2              IF VBASE(X$PARAM.PROCACCT_) ~= ADDR(NIL)

   6636  3 000161   000003 236100                    LDQ     3,,PR0
         3 000162   000001 116000 xsym               CMPQ    B_VECTNIL+1
         3 000163   000171 600000 3                  TZE     s:6640

      187     6637    2                 THEN   /* Supplied by processor */
      188     6638    2                    X$PARAM.HELP_CODE#.PACCT = VBASE(X$PARAM.PROCACCT_) -> VLP$ACCT.
              6638                             ACCT#;

   6638  3 000164   000003 471500                    LDP1    3,,PR0
         3 000165   040100 100500                    MLR     fill='040'O
         3 000166   100000 000010                    ADSC9   0,,PR1                   cn=0,n=8
         3 000167   000036 600010                    ADSC9   30,,PR0                  cn=3,n=8
         3 000170   000177 710000 3                  TRA     s:6642

      189     6639    2                 ELSE   /* Get out of M$LM */
      190     6640    2                    X$PARAM.HELP_CODE#.PACCT = DCBADDR(%M$LM#) -> F$DCB.ACCT#;

   6640  3 000171   000015 471400 4                  LDP1    13
         3 000172   100000 473500                    LDP3    0,,PR1
         3 000173   300002 474500                    LDP4    2,,PR3
         3 000174   040100 100500                    MLR     fill='040'O
         3 000175   400020 000010                    ADSC9   16,,PR4                  cn=0,n=8
         3 000176   000036 600010                    ADSC9   30,,PR0                  cn=3,n=8

      191     6641                 /**/
      192     6642    2              IF X$PARAM.FPT_VERSION ~= 123457  /* If this FPT has no room       */

   6642  3 000177   000056 235100                    LDA     46,,PR0
         3 000200   361101 115007                    CMPA    123457,DL
         3 000201   000220 601000 3                  TNZ     SKIP01

      193     6643    2                 THEN
      194     6644    2                   GOTO SKIP01;            /* Don't try to fill it               */
PL6.E3A0      #001=X$HELP File=XUH$HELP.:E05TSI                                  WED 07/30/97 09:19 Page:36
      195     6645    2              IF VBASE(X$PARAM.PROCPSN_) ~= ADDR(NIL)

   6645  3 000202   000047 236100                    LDQ     39,,PR0
         3 000203   000001 116000 xsym               CMPQ    B_VECTNIL+1
         3 000204   000212 600000 3                  TZE     s:6649

      196     6646    2                 THEN   /* Supplied by processor */
      197     6647    2                    X$PARAM.HELP_CODE#.PPSN = VBASE(X$PARAM.PROCPSN_) -> VLP$PSN;

   6647  3 000205   000047 471500                    LDP1    39,,PR0
         3 000206   040100 100500                    MLR     fill='040'O
         3 000207   100000 000006                    ADSC9   0,,PR1                   cn=0,n=6
         3 000210   000042 600006                    ADSC9   34,,PR0                  cn=3,n=6
         3 000211   000220 710000 3                  TRA     SKIP01

      198     6648    2                 ELSE   /* Get out of M$LM */
      199     6649    2                    X$PARAM.HELP_CODE#.PPSN = DCBADDR(%M$LM#) -> F$DCB.PSN#;

   6649  3 000212   000015 471400 4                  LDP1    13
         3 000213   100000 473500                    LDP3    0,,PR1
         3 000214   300002 474500                    LDP4    2,,PR3
         3 000215   040100 100500                    MLR     fill='040'O
         3 000216   400024 000006                    ADSC9   20,,PR4                  cn=0,n=6
         3 000217   000042 600006                    ADSC9   34,,PR0                  cn=3,n=6

   6645  3 000220                       SKIP01       null
      200     6650    2   SKIP01:    ;
      201     6651                 /**/
      202     6652    2              IF VBASE(X$PARAM.PROCPASS_) ~= ADDR(NIL)

   6652  3 000220   000005 236100                    LDQ     5,,PR0
         3 000221   000001 116000 xsym               CMPQ    B_VECTNIL+1
         3 000222   000227 600000 3                  TZE     s:6661

      203     6653    2                 THEN   /* Supplied by processor */
      204     6654    2                    X$PARAM.HELP_CODE#.PPASS = VBASE(X$PARAM.PROCPASS_) -> VLP$PASS.
              6654                             PASS#;
PL6.E3A0      #001=X$HELP File=XUH$HELP.:E05TSI                                  WED 07/30/97 09:19 Page:37

   6654  3 000223   000005 471500                    LDP1    5,,PR0
         3 000224   040100 100500                    MLR     fill='040'O
         3 000225   100000 000010                    ADSC9   0,,PR1                   cn=0,n=8
         3 000226   000040 600010                    ADSC9   32,,PR0                  cn=3,n=8

      205     6655    2           END;   /* Do ... setup ... end */

      206     6656        %EJECT;
PL6.E3A0      #001=X$HELP File=XUH$HELP.:E05TSI                                  WED 07/30/97 09:19 Page:38
      207     6657        /*
      208     6658             ***** If TOPICS were requested then
      209     6659                   list all available topics for this processor ...
      210     6660        */
      211     6661    1     IF X$PARAM.TOPICS#

   6661  3 000227   000012 236100                    LDQ     10,,PR0
         3 000230   000100 316003                    CANQ    64,DU
         3 000231   000243 600000 3                  TZE     s:6675

      212     6662    1        THEN
      213     6663    2           DO;

      214     6664    2              X$PARAM.TOPICS# = %NO#;   /* Reset it */

   6664  3 000232   000016 236000 4                  LDQ     14
         3 000233   000012 356100                    ANSQ    10,,PR0

      215     6665    2              FPT_HELP.V.LIST# = %YES#;

   6665  3 000234   000010 236007                    LDQ     8,DL
         3 000235   200115 256100                    ORSQ    FPT_HELP+19,,AUTO

      216     6666    2              CALL M$HELP (FPT_HELP) ALTRET(E_HELP);

   6666  3 000236   200072 630500                    EPPR0   FPT_HELP,,AUTO
         3 000237   420024 713400                    CLIMB   alt,+8212
         3 000240   404000 401760                    pmme    nvectors=9
         3 000241   000733 702000 3                  TSX2    E_HELP

      217     6667    2              GOTO BACK;

   6667  3 000242   000663 710000 3                  TRA     BACK

      218     6668    2           END;
      219     6669        /*
      220     6670             ***** If X$HELP was passed a KEYWORD then the first
PL6.E3A0      #001=X$HELP File=XUH$HELP.:E05TSI                                  WED 07/30/97 09:19 Page:39
      221     6671                   level HELP message should be output. This is
      222     6672                   useful where the user has made a syntax error
      223     6673                   and typed ?? ...
      224     6674        */
      225     6675    1     IF X$PARAM.HELP$ = ADDR(NIL)

   6675  3 000243   000011 236100                    LDQ     9,,PR0
         3 000244   000001 116000 xsym               CMPQ    B_VECTNIL+1
         3 000245   000275 601000 3                  TNZ     s:6698

      226     6676    1        THEN   /* Must have passed a KEYWORD */
      227     6677    2           DO;

      228     6678    2              IF  X$PARAM.KEYWORD_ ~= VECTOR(NIL)

   6678  3 000246   000006 237100                    LDAQ    6,,PR0
         3 000247   000020 117000 4                  CMPAQ   16
         3 000250   000260 600000 3                  TZE     s:6687

      229     6679    2                 THEN   /* Good info passed */
      230     6680    3                    DO;

      231     6681    3                       FPT_HELP.KEY1_ = X$PARAM.KEYWORD_;

   6681  3 000251   000006 237100                    LDAQ    6,,PR0
         3 000252   200074 757100                    STAQ    FPT_HELP+2,,AUTO

      232     6682    3                       CALL M$HELP (FPT_HELP) ALTRET(E_HELP);

   6682  3 000253   200072 630500                    EPPR0   FPT_HELP,,AUTO
         3 000254   420024 713400                    CLIMB   alt,+8212
         3 000255   404000 401760                    pmme    nvectors=9
         3 000256   000733 702000 3                  TSX2    E_HELP

      233     6683    3                       GOTO SAVE_INFO;

   6683  3 000257   000655 710000 3                  TRA     SAVE_INFO
PL6.E3A0      #001=X$HELP File=XUH$HELP.:E05TSI                                  WED 07/30/97 09:19 Page:40

      234     6684    3                    END;
      235     6685    2                 ELSE   /* Bozo passed bad info */
      236     6686    3                    DO;

      237     6687    3                       X$PARAM.ERR.FCG = '3025'O;

   6687  3 000260   302500 236003                    LDQ     99648,DU
         3 000261   000013 752160                    STCQ    11,'60'O,PR0

      238     6688    3                       X$PARAM.ERR.MID = '10'O;

   6688  3 000262   000010 236003                    LDQ     8,DU
         3 000263   000013 752110                    STCQ    11,'10'O,PR0

      239     6689    3                       X$PARAM.ERR.MON = '0'O;

   6689  3 000264   000017 236000 4                  LDQ     15
         3 000265   000013 356100                    ANSQ    11,,PR0

      240     6690    3                       X$PARAM.ERR.ERR# = %E$NULLKEYWORD;

   6690  3 000266   000013 236100                    LDQ     11,,PR0
         3 000267   000022 376000 4                  ANQ     18
         3 000270   004570 276007                    ORQ     2424,DL
         3 000271   000013 756100                    STQ     11,,PR0

      241     6691    3                       X$PARAM.ERR.SEV = 0;

   6691  3 000272   000023 236000 4                  LDQ     19
         3 000273   000013 356100                    ANSQ    11,,PR0

      242     6692    3                       ALTRETURN;

   6692  3 000274   000000 702200 xent               TSX2  ! X66_AALT

      243     6693    3                    END;
PL6.E3A0      #001=X$HELP File=XUH$HELP.:E05TSI                                  WED 07/30/97 09:19 Page:41
      244     6694    2           END;
      245     6695        /*
      246     6696             ***** If HELP$ is not nil (got this far) then parse the command ...
      247     6697        */
      248     6698    1     PCB = CP$PCB;

   6698  3 000275   000100 100400                    MLR     fill='000'O
         3 000276   000056 000070 1                  ADSC9   CP$PCB                   cn=0,n=56
         3 000277   200120 000070                    ADSC9   PCB,,AUTO                cn=0,n=56

      249     6699    1     PCB.ROOT$ = ADDR(XUH_HELP);

   6699  3 000300   000024 236000 4                  LDQ     20
         3 000301   200121 756100                    STQ     PCB+1,,AUTO

      250     6700    1     PCB.TEXT$ = ADDR(X$PARAM.HELP$ -> X$STRING.TEXT);

   6700  3 000302   000011 471500                    LDP1    9,,PR0
         3 000303   200514 451500                    STP1    P$+3,,AUTO
         3 000304   200514 236100                    LDQ     P$+3,,AUTO
         3 000305   200000 036007                    ADLQ    65536,DL
         3 000306   200120 756100                    STQ     PCB,,AUTO

      251     6701    1     PCB.WORK$ = ADDR(WORK_AREA);

   6701  3 000307   200174 631500                    EPPR1   WORK_AREA,,AUTO
         3 000310   200122 451500                    STP1    PCB+2,,AUTO

      252     6702    1     PCB.WKSZ = SIZEW(WORK_AREA);

   6702  3 000311   000311 220003                    LDX0    201,DU
         3 000312   200125 740100                    STX0    PCB+5,,AUTO

      253     6703    1     PCB.NCHARS = X$PARAM.HELP$ -> X$STRING.SIZ;

   6703  3 000313   000011 473500                    LDP3    9,,PR0
         3 000314   000100 101500                    MRL     fill='000'O
PL6.E3A0      #001=X$HELP File=XUH$HELP.:E05TSI                                  WED 07/30/97 09:19 Page:42
         3 000315   300000 000001                    ADSC9   0,,PR3                   cn=0,n=1
         3 000316   200131 000004                    ADSC9   PCB+9,,AUTO              cn=0,n=4

      254     6704    1     CALL X$PARSE (PCB) ALTRET(E_PARSE);

   6704  3 000317   200120 633500                    EPPR3   PCB,,AUTO
         3 000320   200514 453500                    STP3    P$+3,,AUTO
         3 000321   200514 630500                    EPPR0   P$+3,,AUTO
         3 000322   000017 631400 xsym               EPPR1   B_VECTNIL+15
         3 000323   000000 701000 xent               TSX1    X$PARSE
         3 000324   001004 702000 3                  TSX2    E_PARSE

      255     6705        /*
      256     6706             ***** Otherwise, a real HELP command was parsed ...
      257     6707        */
      258     6708    1     BLK$ = PCB.OUT$;

   6708  3 000325   200123 236100                    LDQ     PCB+3,,AUTO
         3 000326   200510 756100                    STQ     BLK$,,AUTO

      259     6709        /**/
      260     6710    2     DO INDX = 0 TO BLK$ -> P$B.NSUBLKS - 1;

   6710  3 000327   200505 450100                    STZ     INDX,,AUTO
         3 000330   000641 710000 3                  TRA     s:6807+1

      261     6711    2        P$ = BLK$ -> P$B.SUBLK$(INDX);

   6711  3 000331   200510 470500                    LDP0    BLK$,,AUTO
         3 000332   200505 720100                    LXL0    INDX,,AUTO
         3 000333   000003 236110                    LDQ     3,X0,PR0
         3 000334   200511 756100                    STQ     P$,,AUTO

      262     6712    3        DO CASE (P$ -> P$B.CODE);

   6712  3 000335   200511 471500                    LDP1    P$,,AUTO
         3 000336   100000 721100                    LXL1    0,,PR1
PL6.E3A0      #001=X$HELP File=XUH$HELP.:E05TSI                                  WED 07/30/97 09:19 Page:43
         3 000337   000007 101003                    CMPX1   7,DU
         3 000340   000342 602011 3                  TNC     s:6712+5,X1
         3 000341   000640 710000 3                  TRA     s:6807
         3 000342   000640 710000 3                  TRA     s:6807
         3 000343   000640 710000 3                  TRA     s:6807
         3 000344   000351 710000 3                  TRA     s:6715
         3 000345   000573 710000 3                  TRA     s:6787
         3 000346   000576 710000 3                  TRA     s:6789
         3 000347   000601 710000 3                  TRA     s:6791
         3 000350   000621 710000 3                  TRA     s:6799

      263     6713        %EJECT;
PL6.E3A0      #001=X$HELP File=XUH$HELP.:E05TSI                                  WED 07/30/97 09:19 Page:44
      264     6714    3           CASE (%FID_SPEC);

      265     6715    3              FPT_FID = CFPT_FID;

   6715  3 000351   000100 100400                    MLR     fill='000'O
         3 000352   000000 000140 1                  ADSC9   CFPT_FID                 cn=0,n=96
         3 000353   200004 000140                    ADSC9   FPT_FID,,AUTO            cn=0,n=96

      266     6716    3              FPT_FID.TEXTFID_ =

   6716  3 000354   100003 473500                    LDP3    3,,PR1
         3 000355   300004 236100                    LDQ     4,,PR3
         3 000356   000033 772000                    QRL     27
         3 000357   000064 737000                    LLS     52
         3 000360   000140 135007                    SBLA    96,DL
         3 000361   200514 453500                    STP3    P$+3,,AUTO
         3 000362   200514 236100                    LDQ     P$+3,,AUTO
         3 000363   000025 036000 4                  ADLQ    21
         3 000364   200006 757100                    STAQ    FPT_FID+2,,AUTO

      267     6717    3                    VECTOR(P$ -> P$B.SUBLK$(0) -> P$S.TEXT);
      268     6718    3              FPT_FID.NAME_ = VECTOR(FID_NAME);

   6718  3 000365   000003 235000 4                  LDA     3
         3 000366   200514 452500                    STP2    P$+3,,AUTO
         3 000367   200514 236100                    LDQ     P$+3,,AUTO
         3 000370   000046 036003                    ADLQ    38,DU
         3 000371   200010 757100                    STAQ    FPT_FID+4,,AUTO

      269     6719    3              FPT_FID.ACCT_ = VECTOR(FID_ACCT);

   6719  3 000372   000005 235000 4                  LDA     5
         3 000373   200514 452500                    STP2    P$+3,,AUTO
         3 000374   200514 236100                    LDQ     P$+3,,AUTO
         3 000375   000056 036003                    ADLQ    46,DU
         3 000376   200012 757100                    STAQ    FPT_FID+6,,AUTO

PL6.E3A0      #001=X$HELP File=XUH$HELP.:E05TSI                                  WED 07/30/97 09:19 Page:45
      270     6720    3              FPT_FID.PASS_ = VECTOR(FID_PASS);

   6720  3 000377   000005 235000 4                  LDA     5
         3 000400   200514 452500                    STP2    P$+3,,AUTO
         3 000401   200514 236100                    LDQ     P$+3,,AUTO
         3 000402   000060 036003                    ADLQ    48,DU
         3 000403   200014 757100                    STAQ    FPT_FID+8,,AUTO

      271     6721    3              FPT_FID.SN_ = VECTOR(FID_SN);

   6721  3 000404   000026 235000 4                  LDA     22
         3 000405   200514 452500                    STP2    P$+3,,AUTO
         3 000406   200514 236100                    LDQ     P$+3,,AUTO
         3 000407   000064 036003                    ADLQ    52,DU
         3 000410   200016 757100                    STAQ    FPT_FID+10,,AUTO

      272     6722    3              FPT_FID.WSN_ = VECTOR(FID_WSN);

   6722  3 000411   000005 235000 4                  LDA     5
         3 000412   200514 452500                    STP2    P$+3,,AUTO
         3 000413   200514 236100                    LDQ     P$+3,,AUTO
         3 000414   000062 036003                    ADLQ    50,DU
         3 000415   200020 757100                    STAQ    FPT_FID+12,,AUTO

      273     6723    3              FPT_FID.ASN_ = VECTOR(FID_ASN);

   6723  3 000416   777640 235007                    LDA     -96,DL
         3 000417   200514 452500                    STP2    P$+3,,AUTO
         3 000420   200514 236100                    LDQ     P$+3,,AUTO
         3 000421   000506 036003                    ADLQ    326,DU
         3 000422   200022 757100                    STAQ    FPT_FID+14,,AUTO

      274     6724    3              FPT_FID.RES_ = VECTOR(FID_RES);

   6724  3 000423   777640 235007                    LDA     -96,DL
         3 000424   200514 452500                    STP2    P$+3,,AUTO
         3 000425   200514 236100                    LDQ     P$+3,,AUTO
PL6.E3A0      #001=X$HELP File=XUH$HELP.:E05TSI                                  WED 07/30/97 09:19 Page:46
         3 000426   000507 036003                    ADLQ    327,DU
         3 000427   200024 757100                    STAQ    FPT_FID+16,,AUTO

      275     6725    3              FPT_FID.RESULTS_ = VECTOR(FID_RESULTS);

   6725  3 000430   000027 235000 4                  LDA     23
         3 000431   200514 452500                    STP2    P$+3,,AUTO
         3 000432   200514 236100                    LDQ     P$+3,,AUTO
         3 000433   000034 036003                    ADLQ    28,DU
         3 000434   200026 757100                    STAQ    FPT_FID+18,,AUTO

      276     6726    3              CALL M$FID (FPT_FID) ALTRET(E_FID);

   6726  3 000435   200004 630500                    EPPR0   FPT_FID,,AUTO
         3 000436   420001 713400                    CLIMB   alt,+8193
         3 000437   404400 401760                    pmme    nvectors=10
         3 000440   000725 702000 3                  TSX2    E_FID

      277     6727        /*
      278     6728             ***** Make sure that only usable FID was specified ...
      279     6729        */
      280     6730    3              IF FID_ASN ~= %FILE#

   6730  3 000441   200506 236100                    LDQ     FID_ASN,,AUTO
         3 000442   777000 376003                    ANQ     -512,DU
         3 000443   001000 116003                    CMPQ    512,DU
         3 000444   000463 600000 3                  TZE     s:6743

      281     6731    3                 THEN   /* Error */
      282     6732    4                    DO;

      283     6733    4                       X$PARAM.ERR.FCG = '3025'O;

   6733  3 000445   200003 470500                    LDP0    @X$PARAM,,AUTO
         3 000446   302500 236003                    LDQ     99648,DU
         3 000447   000013 752160                    STCQ    11,'60'O,PR0

PL6.E3A0      #001=X$HELP File=XUH$HELP.:E05TSI                                  WED 07/30/97 09:19 Page:47
      284     6734    4                       X$PARAM.ERR.MID = '10'O;

   6734  3 000450   000010 236003                    LDQ     8,DU
         3 000451   000013 752110                    STCQ    11,'10'O,PR0

      285     6735    4                       X$PARAM.ERR.MON = '0'O;

   6735  3 000452   000017 236000 4                  LDQ     15
         3 000453   000013 356100                    ANSQ    11,,PR0

      286     6736    4                       X$PARAM.ERR.ERR# = %E$BDHELPFID;

   6736  3 000454   000013 236100                    LDQ     11,,PR0
         3 000455   000022 376000 4                  ANQ     18
         3 000456   004540 276007                    ORQ     2400,DL
         3 000457   000013 756100                    STQ     11,,PR0

      287     6737    4                       X$PARAM.ERR.SEV = 0;

   6737  3 000460   000023 236000 4                  LDQ     19
         3 000461   000013 356100                    ANSQ    11,,PR0

      288     6738    4                       ALTRETURN;

   6738  3 000462   000000 702200 xent               TSX2  ! X66_AALT

      289     6739    4                    END;
      290     6740        /*
      291     6741             ***** Stuff the NAME.ACCOUNT.PASS into FPT_HELP ...
      292     6742        */
      293     6743    3           X$PARAM.OTHER_PROC# = %YES#;   /* Processor specified */

   6743  3 000463   200003 470500                    LDP0    @X$PARAM,,AUTO
         3 000464   000040 236003                    LDQ     32,DU
         3 000465   000012 256100                    ORSQ    10,,PR0

      294     6744    3           IF FID_RESULTS.NAME
PL6.E3A0      #001=X$HELP File=XUH$HELP.:E05TSI                                  WED 07/30/97 09:19 Page:48

   6744  3 000466   200034 234100                    SZN     FID_RESULTS,,AUTO
         3 000467   000514 605000 3                  TPL     s:6759

      295     6745    3              THEN
      296     6746    3                 IF FID_NAME.L# = 1

   6746  3 000470   200046 236100                    LDQ     FID_NAME,,AUTO
         3 000471   777000 376003                    ANQ     -512,DU
         3 000472   001000 116003                    CMPQ    512,DU
         3 000473   000510 601000 3                  TNZ     s:6756
         3 000474   040000 106500                    CMPC    fill='040'O
         3 000475   200046 200037                    ADSC9   FID_NAME,,AUTO           cn=1,n=31
         3 000476   000030 000001 4                  ADSC9   24                       cn=0,n=1
         3 000477   000510 601000 3                  TNZ     s:6756

      297     6747    3                 AND FID_NAME.NAME# = '?'
      298     6748    3                    THEN   /* Special name */
      299     6749    4                       DO;

      300     6750    4                          X$PARAM.HELP_CODE#.PNAME.LEN = 1;

   6750  3 000500   000001 236007                    LDQ     1,DL
         3 000501   000026 552104                    STBQ    22,'04'O,PR0

      301     6751    4                          X$PARAM.HELP_CODE#.PNAME.TEXT = ' ';

   6751  3 000502   040100 100400                    MLR     fill='040'O
         3 000503   000035 000001 xsym               ADSC9   B_VECTNIL+29             cn=0,n=1
         3 000504   000027 000037                    ADSC9   23,,PR0                  cn=0,n=31

      302     6752    4                          FPT_HELP.V.LIST# = %YES#;

   6752  3 000505   000010 236007                    LDQ     8,DL
         3 000506   200115 256100                    ORSQ    FPT_HELP+19,,AUTO

      303     6753    4                       END;
PL6.E3A0      #001=X$HELP File=XUH$HELP.:E05TSI                                  WED 07/30/97 09:19 Page:49

   6753  3 000507   000516 710000 3                  TRA     s:6760

      304     6754    3                    ELSE   /* Processor name specified */
      305     6755    4                       DO;

      306     6756    4                          X$PARAM.HELP_CODE#.PNAME = FID_NAME;

   6756  3 000510   000100 100500                    MLR     fill='000'O
         3 000511   200046 000040                    ADSC9   FID_NAME,,AUTO           cn=0,n=32
         3 000512   000026 600040                    ADSC9   22,,PR0                  cn=3,n=32

      307     6757    4                       END;

   6757  3 000513   000516 710000 3                  TRA     s:6760

      308     6758    3              ELSE   /* Get a list of TOPICS */
      309     6759    3                 FPT_HELP.V.LIST# = %YES#;

   6759  3 000514   000010 236007                    LDQ     8,DL
         3 000515   200115 256100                    ORSQ    FPT_HELP+19,,AUTO

      310     6760    3           IF FID_RESULTS.ACCT

   6760  3 000516   200034 236100                    LDQ     FID_RESULTS,,AUTO
         3 000517   200000 316003                    CANQ    65536,DU
         3 000520   000535 600000 3                  TZE     s:6770

      311     6761    3              THEN
      312     6762    4                 DO;

      313     6763    4                    IF FID_ACCT.ACCT# = ' '

   6763  3 000521   200056 237100                    LDAQ    FID_ACCT,,AUTO
         3 000522   000032 117000 4                  CMPAQ   26
         3 000523   000531 601000 3                  TNZ     s:6767

PL6.E3A0      #001=X$HELP File=XUH$HELP.:E05TSI                                  WED 07/30/97 09:19 Page:50
      314     6764    4                       THEN   /* Use File Mgt Acct */
      315     6765    4                          X$PARAM.HELP_CODE#.PACCT = B$JIT.FACCN;

   6765  3 000524   000000 471400 xsym               LDP1    B$JIT$
         3 000525   040100 100500                    MLR     fill='040'O
         3 000526   100006 000010                    ADSC9   6,,PR1                   cn=0,n=8
         3 000527   000036 600010                    ADSC9   30,,PR0                  cn=3,n=8
         3 000530   000540 710000 3                  TRA     s:6771

      316     6766    4                       ELSE   /* Use specified acct */
      317     6767    4                          X$PARAM.HELP_CODE#.PACCT = FID_ACCT.ACCT#;

   6767  3 000531   040100 100500                    MLR     fill='040'O
         3 000532   200056 000010                    ADSC9   FID_ACCT,,AUTO           cn=0,n=8
         3 000533   000036 600010                    ADSC9   30,,PR0                  cn=3,n=8

      318     6768    4                 END;

   6768  3 000534   000540 710000 3                  TRA     s:6771

      319     6769    3              ELSE   /* Default is :SYS */
      320     6770    3                 X$PARAM.HELP_CODE#.PACCT = ':SYS';

   6770  3 000535   040100 100400                    MLR     fill='040'O
         3 000536   000074 000004 1                  ADSC9   CP$PCB+14                cn=0,n=4
         3 000537   000036 600010                    ADSC9   30,,PR0                  cn=3,n=8

      321     6771    3           IF X$PARAM.FPT_VERSION ~= 123457

   6771  3 000540   000056 235100                    LDA     46,,PR0
         3 000541   361101 115007                    CMPA    123457,DL
         3 000542   000560 601000 3                  TNZ     SKIP02

      322     6772    3            THEN
      323     6773    3              GOTO SKIP02;
      324     6774    3           IF FID_RESULTS.SN AND FID_SN.NUM# = 1

PL6.E3A0      #001=X$HELP File=XUH$HELP.:E05TSI                                  WED 07/30/97 09:19 Page:51
   6774  3 000543   200034 236100                    LDQ     FID_RESULTS,,AUTO
         3 000544   040000 316003                    CANQ    16384,DU
         3 000545   000555 600000 3                  TZE     s:6778
         3 000546   200064 235100                    LDA     FID_SN,,AUTO
         3 000547   000001 115007                    CMPA    1,DL
         3 000550   000555 601000 3                  TNZ     s:6778

      325     6775    3              THEN
      326     6776    3                 X$PARAM.HELP_CODE#.PPSN = FID_SN.SN#(0);

   6776  3 000551   040100 100500                    MLR     fill='040'O
         3 000552   200065 000006                    ADSC9   FID_SN+1,,AUTO           cn=0,n=6
         3 000553   000042 600006                    ADSC9   34,,PR0                  cn=3,n=6
         3 000554   000560 710000 3                  TRA     SKIP02

      327     6777    3              ELSE
      328     6778    3                 X$PARAM.HELP_CODE#.PPSN = ' ';

   6778  3 000555   040100 100400                    MLR     fill='040'O
         3 000556   000035 000001 xsym               ADSC9   B_VECTNIL+29             cn=0,n=1
         3 000557   000042 600006                    ADSC9   34,,PR0                  cn=3,n=6

   6774  3 000560                       SKIP02       null
      329     6779    3   SKIP02: ;
      330     6780    3           IF FID_RESULTS.PASS

   6780  3 000560   200034 236100                    LDQ     FID_RESULTS,,AUTO
         3 000561   100000 316003                    CANQ    32768,DU
         3 000562   000567 600000 3                  TZE     s:6784

      331     6781    3              THEN
      332     6782    3                 X$PARAM.HELP_CODE#.PPASS = FID_PASS.PASS#;

   6782  3 000563   040100 100500                    MLR     fill='040'O
         3 000564   200060 000010                    ADSC9   FID_PASS,,AUTO           cn=0,n=8
         3 000565   000040 600010                    ADSC9   32,,PR0                  cn=3,n=8
         3 000566   000640 710000 3                  TRA     s:6807
PL6.E3A0      #001=X$HELP File=XUH$HELP.:E05TSI                                  WED 07/30/97 09:19 Page:52

      333     6783    3              ELSE
      334     6784    3                 X$PARAM.HELP_CODE#.PPASS = ' ';

   6784  3 000567   040100 100400                    MLR     fill='040'O
         3 000570   000035 000001 xsym               ADSC9   B_VECTNIL+29             cn=0,n=1
         3 000571   000040 600010                    ADSC9   32,,PR0                  cn=3,n=8
         3 000572   000640 710000 3                  TRA     s:6807

      335     6785        %EJECT;
PL6.E3A0      #001=X$HELP File=XUH$HELP.:E05TSI                                  WED 07/30/97 09:19 Page:53
      336     6786    3           CASE (%TOPIC);

      337     6787    3              FPT_HELP.V.LIST# = %YES#;

   6787  3 000573   000010 236007                    LDQ     8,DL
         3 000574   200115 256100                    ORSQ    FPT_HELP+19,,AUTO
         3 000575   000640 710000 3                  TRA     s:6807

      338     6788    3           CASE (%RANGE);

      339     6789    3              FPT_HELP.V.RANGE# = %YES#;

   6789  3 000576   000001 236007                    LDQ     1,DL
         3 000577   200115 256100                    ORSQ    FPT_HELP+19,,AUTO
         3 000600   000640 710000 3                  TRA     s:6807

      340     6790    3           CASE (%KEYWORD1);

      341     6791    3              IF P$ -> P$S.COUNT ~= 0

   6791  3 000601   100004 236100                    LDQ     4,,PR1
         3 000602   777000 316003                    CANQ    -512,DU
         3 000603   000640 600000 3                  TZE     s:6807

      342     6792    3                 THEN
      343     6793    4                    DO;

      344     6794    4                       KEYWORD1.L# = P$ -> P$S.COUNT;

   6794  3 000604   200154 552140                    STBQ    KEYWORD1,'40'O,AUTO

      345     6795    4                       KEYWORD1.NAME# = P$ -> P$S.TEXT;

   6795  3 000605   100004 236100                    LDQ     4,,PR1
         3 000606   000033 772000                    QRL     27
         3 000607   000000 621006                    EAX1    0,QL
         3 000610   040100 100540                    MLR     fill='040'O
PL6.E3A0      #001=X$HELP File=XUH$HELP.:E05TSI                                  WED 07/30/97 09:19 Page:54
         3 000611   100004 200011                    ADSC9   4,,PR1                   cn=1,n=*X1
         3 000612   200154 200037                    ADSC9   KEYWORD1,,AUTO           cn=1,n=31

      346     6796    4                       FPT_HELP.KEY1_ = VECTOR(KEYWORD1);

   6796  3 000613   000003 235000 4                  LDA     3
         3 000614   200514 452500                    STP2    P$+3,,AUTO
         3 000615   200514 236100                    LDQ     P$+3,,AUTO
         3 000616   000154 036003                    ADLQ    108,DU
         3 000617   200074 757100                    STAQ    FPT_HELP+2,,AUTO

      347     6797    4                    END;

   6797  3 000620   000640 710000 3                  TRA     s:6807

      348     6798    3           CASE (%KEYWORD2);

      349     6799    3              IF P$ -> P$S.COUNT ~= 0

   6799  3 000621   100004 236100                    LDQ     4,,PR1
         3 000622   777000 316003                    CANQ    -512,DU
         3 000623   000640 600000 3                  TZE     s:6807

      350     6800    3                 THEN
      351     6801    4                    DO;

      352     6802    4                       KEYWORD2.L# = P$ -> P$S.COUNT;

   6802  3 000624   200164 552140                    STBQ    KEYWORD2,'40'O,AUTO

      353     6803    4                       KEYWORD2.NAME# = P$ -> P$S.TEXT;

   6803  3 000625   100004 236100                    LDQ     4,,PR1
         3 000626   000033 772000                    QRL     27
         3 000627   000000 621006                    EAX1    0,QL
         3 000630   040100 100540                    MLR     fill='040'O
         3 000631   100004 200011                    ADSC9   4,,PR1                   cn=1,n=*X1
PL6.E3A0      #001=X$HELP File=XUH$HELP.:E05TSI                                  WED 07/30/97 09:19 Page:55
         3 000632   200164 200037                    ADSC9   KEYWORD2,,AUTO           cn=1,n=31

      354     6804    4                       FPT_HELP.KEY2_ = VECTOR(KEYWORD2);

   6804  3 000633   000003 235000 4                  LDA     3
         3 000634   200514 452500                    STP2    P$+3,,AUTO
         3 000635   200514 236100                    LDQ     P$+3,,AUTO
         3 000636   000164 036003                    ADLQ    116,DU
         3 000637   200076 757100                    STAQ    FPT_HELP+4,,AUTO

      355     6805    4                    END;

      356     6806    3        END;   /* Do case ... end */

      357     6807    2     END;   /* Do indx ... end */

   6807  3 000640   200505 054100                    AOS     INDX,,AUTO
         3 000641   200510 470500                    LDP0    BLK$,,AUTO
         3 000642   000001 236100                    LDQ     1,,PR0
         3 000643   000022 772000                    QRL     18
         3 000644   200505 116100                    CMPQ    INDX,,AUTO
         3 000645   000331 605400 3                  TPNZ    s:6711

      358     6808    1     X$PARAM.HELP$ = ADDR(NIL);   /* Throw away parse tree */

   6808  3 000646   000001 236000 xsym               LDQ     B_VECTNIL+1
         3 000647   200003 471500                    LDP1    @X$PARAM,,AUTO
         3 000650   100011 756100                    STQ     9,,PR1

      359     6809    1     CALL M$HELP (FPT_HELP) ALTRET(E_HELP);

   6809  3 000651   200072 630500                    EPPR0   FPT_HELP,,AUTO
         3 000652   420024 713400                    CLIMB   alt,+8212
         3 000653   404000 401760                    pmme    nvectors=9
         3 000654   000733 702000 3                  TSX2    E_HELP

      360     6810        /*
PL6.E3A0      #001=X$HELP File=XUH$HELP.:E05TSI                                  WED 07/30/97 09:19 Page:56
      361     6811             ***** Save the RESULTS returned ...
      362     6812        */
      363     6813    1   SAVE_INFO:
      364     6814    1     X$PARAM.HELP_CODE#.LEN = HELP_RESULTS.CODEUSED.LEN;

   6814  3 000655   200003 470500       SAVE_INFO    LDP0    @X$PARAM,,AUTO
         3 000656   200142 236100                    LDQ     HELP_RESULTS+4,,AUTO
         3 000657   000016 552140                    STBQ    14,'40'O,PR0

      365     6815    1     X$PARAM.HELP_CODE#.TEXT = HELP_RESULTS.CODEUSED.TEXT;

   6815  3 000660   040100 100500                    MLR     fill='040'O
         3 000661   200142 200042                    ADSC9   HELP_RESULTS+4,,AUTO     cn=1,n=34
         3 000662   000016 200042                    ADSC9   14,,PR0                  cn=1,n=34

      366     6816    1   BACK:   /* Check HELP_RESULTS before returning */
      367     6817    1     IF HELP_RESULTS.OUTERR1

   6817  3 000663   200136 236100       BACK         LDQ     HELP_RESULTS,,AUTO
         3 000664   010000 316003                    CANQ    4096,DU
         3 000665   000701 600000 3                  TZE     s:6825
         3 000666   200140 236100                    LDQ     HELP_RESULTS+2,,AUTO
         3 000667   377770 376007                    ANQ     131064,DL
         3 000670   020400 116007                    CMPQ    8448,DL
         3 000671   000701 600000 3                  TZE     s:6825

      368     6818    1     AND HELP_RESULTS.ERRCODE1.ERR# ~= %E$BYD
      369     6819    1        THEN
      370     6820    2           DO;

      371     6821    2              X$PARAM.ERR = HELP_RESULTS.ERRCODE1;

   6821  3 000672   200140 236100                    LDQ     HELP_RESULTS+2,,AUTO
         3 000673   200003 470500                    LDP0    @X$PARAM,,AUTO
         3 000674   000013 756100                    STQ     11,,PR0

      372     6822    2              X$PARAM.ERR_DCB# = X$PARAM.OUTDCB1#;
PL6.E3A0      #001=X$HELP File=XUH$HELP.:E05TSI                                  WED 07/30/97 09:19 Page:57

   6822  3 000675   000010 236100                    LDQ     8,,PR0
         3 000676   000022 772000                    QRL     18
         3 000677   000014 756100                    STQ     12,,PR0

      373     6823    2              ALTRETURN;

   6823  3 000700   000000 702200 xent               TSX2  ! X66_AALT

      374     6824    2           END;
      375     6825    1     IF HELP_RESULTS.OUTERR2

   6825  3 000701   200136 236100                    LDQ     HELP_RESULTS,,AUTO
         3 000702   004000 316003                    CANQ    2048,DU
         3 000703   000721 600000 3                  TZE     s:6840
         3 000704   200141 236100                    LDQ     HELP_RESULTS+3,,AUTO
         3 000705   377770 376007                    ANQ     131064,DL
         3 000706   001120 116007                    CMPQ    592,DL
         3 000707   000721 600000 3                  TZE     s:6840
         3 000710   020400 116007                    CMPQ    8448,DL
         3 000711   000721 600000 3                  TZE     s:6840

      376     6826    1     AND HELP_RESULTS.ERRCODE2.ERR# ~= %E$CORRES
      377     6827    1     AND HELP_RESULTS.ERRCODE2.ERR# ~= %E$BYD
      378     6828    1        THEN
      379     6829    2           DO;

      380     6830    2              X$PARAM.ERR = HELP_RESULTS.ERRCODE2;

   6830  3 000712   200141 236100                    LDQ     HELP_RESULTS+3,,AUTO
         3 000713   200003 470500                    LDP0    @X$PARAM,,AUTO
         3 000714   000013 756100                    STQ     11,,PR0

      381     6831    2              X$PARAM.ERR_DCB# = X$PARAM.OUTDCB2#;

   6831  3 000715   000010 236100                    LDQ     8,,PR0
         3 000716   777777 376007                    ANQ     -1,DL
PL6.E3A0      #001=X$HELP File=XUH$HELP.:E05TSI                                  WED 07/30/97 09:19 Page:58
         3 000717   000014 756100                    STQ     12,,PR0

      382     6832    2              ALTRETURN;

   6832  3 000720   000000 702200 xent               TSX2  ! X66_AALT

      383     6833    2           END;
      384     6834        /*
      385     6835             ***** Reset OTHER_PROC#
      386     6836                   Otherwise, the user could stay mapped into
      387     6837                   a processor (other than calling processor)
      388     6838                   without knowing it and get confused...
      389     6839        */
      390     6840    1     X$PARAM.OTHER_PROC# = %NO#;

   6840  3 000721   200003 470500                    LDP0    @X$PARAM,,AUTO
         3 000722   000014 236000 4                  LDQ     12
         3 000723   000012 356100                    ANSQ    10,,PR0

      391     6841    1     RETURN;

   6841  3 000724   000000 702200 xent               TSX2  ! X66_ARET

      392     6842        %EJECT;
PL6.E3A0      #001=X$HELP File=XUH$HELP.:E05TSI                                  WED 07/30/97 09:19 Page:59
      393     6843        /*
      394     6844             ***** Some error occured ...
      395     6845        */
      396     6846    1   E_FID:
      397     6847    1     X$PARAM.ERR = B$TCB.ALT$ -> B$ALT.ERR;

   6847  3 000725   000000 470400 xsym  E_FID        LDP0    B$TCB$
         3 000726   000000 471500                    LDP1    0,,PR0
         3 000727   100102 236100                    LDQ     66,,PR1
         3 000730   200003 473500                    LDP3    @X$PARAM,,AUTO
         3 000731   300013 756100                    STQ     11,,PR3

      398     6848    1     ALTRETURN;

   6848  3 000732   000000 702200 xent               TSX2  ! X66_AALT

      399     6849        /**/
      400     6850    1   E_HELP:
      401     6851    1     IF HELP_RESULTS.NNATIVE

   6851  3 000733   200136 236100       E_HELP       LDQ     HELP_RESULTS,,AUTO
         3 000734   002000 316003                    CANQ    1024,DU
         3 000735   000754 600000 3                  TZE     s:6861

      402     6852    1        THEN
      403     6853    2           DO;

      404     6854    2              X$PARAM.ERR.FCG = '3025'O;

   6854  3 000736   200003 470500                    LDP0    @X$PARAM,,AUTO
         3 000737   302500 236003                    LDQ     99648,DU
         3 000740   000013 752160                    STCQ    11,'60'O,PR0

      405     6855    2              X$PARAM.ERR.MID = '10'O;

   6855  3 000741   000010 236003                    LDQ     8,DU
         3 000742   000013 752110                    STCQ    11,'10'O,PR0
PL6.E3A0      #001=X$HELP File=XUH$HELP.:E05TSI                                  WED 07/30/97 09:19 Page:60

      406     6856    2              X$PARAM.ERR.MON = '0'O;

   6856  3 000743   000017 236000 4                  LDQ     15
         3 000744   000013 356100                    ANSQ    11,,PR0

      407     6857    2              X$PARAM.ERR.ERR# = %E$NNATIVE;

   6857  3 000745   000013 236100                    LDQ     11,,PR0
         3 000746   000022 376000 4                  ANQ     18
         3 000747   004560 276007                    ORQ     2416,DL
         3 000750   000013 756100                    STQ     11,,PR0

      408     6858    2              X$PARAM.ERR.SEV = 0;

   6858  3 000751   000023 236000 4                  LDQ     19
         3 000752   000013 356100                    ANSQ    11,,PR0

      409     6859    2              ALTRETURN;

   6859  3 000753   000000 702200 xent               TSX2  ! X66_AALT

      410     6860    2           END;
      411     6861    1     IF B$TCB.ALT$ -> B$ALT.ERR.CODE = %E$NOTOPIC

   6861  3 000754   000000 470400 xsym               LDP0    B$TCB$
         3 000755   000000 471500                    LDP1    0,,PR0
         3 000756   100102 236100                    LDQ     66,,PR1
         3 000757   377770 376007                    ANQ     131064,DL
         3 000760   015140 116007                    CMPQ    6752,DL
         3 000761   001000 601000 3                  TNZ     s:6874

      412     6862    1        THEN
      413     6863    2           DO;

      414     6864    2              X$PARAM.ERR.FCG = '3025'O;

PL6.E3A0      #001=X$HELP File=XUH$HELP.:E05TSI                                  WED 07/30/97 09:19 Page:61
   6864  3 000762   200003 473500                    LDP3    @X$PARAM,,AUTO
         3 000763   302500 236003                    LDQ     99648,DU
         3 000764   300013 752160                    STCQ    11,'60'O,PR3

      415     6865    2              X$PARAM.ERR.MID = '10'O;

   6865  3 000765   000010 236003                    LDQ     8,DU
         3 000766   300013 752110                    STCQ    11,'10'O,PR3

      416     6866    2              X$PARAM.ERR.MON = '0'O;

   6866  3 000767   000017 236000 4                  LDQ     15
         3 000770   300013 356100                    ANSQ    11,,PR3

      417     6867    2              X$PARAM.ERR.ERR# = %E$BDTOPIC;

   6867  3 000771   300013 236100                    LDQ     11,,PR3
         3 000772   000022 376000 4                  ANQ     18
         3 000773   004550 276007                    ORQ     2408,DL
         3 000774   300013 756100                    STQ     11,,PR3

      418     6868    2              X$PARAM.ERR.SEV = 0;

   6868  3 000775   000023 236000 4                  LDQ     19
         3 000776   300013 356100                    ANSQ    11,,PR3

      419     6869    2              ALTRETURN;

   6869  3 000777   000000 702200 xent               TSX2  ! X66_AALT

      420     6870    2           END;
      421     6871        /*
      422     6872             ***** Otherwise, get the error out of the TCB ...
      423     6873        */
      424     6874    1     X$PARAM.ERR = B$TCB.ALT$ -> B$ALT.ERR;

   6874  3 001000   100102 236100                    LDQ     66,,PR1
PL6.E3A0      #001=X$HELP File=XUH$HELP.:E05TSI                                  WED 07/30/97 09:19 Page:62
         3 001001   200003 473500                    LDP3    @X$PARAM,,AUTO
         3 001002   300013 756100                    STQ     11,,PR3

      425     6875    1     ALTRETURN;

   6875  3 001003   000000 702200 xent               TSX2  ! X66_AALT

      426     6876        /**/
      427     6877    1   E_PARSE:
      428     6878    1     X$PARAM.CHARPOS = PCB.HI_CHAR;

   6878  3 001004   200003 470500       E_PARSE      LDP0    @X$PARAM,,AUTO
         3 001005   200132 235100                    LDA     PCB+10,,AUTO
         3 001006   000015 755100                    STA     13,,PR0

      429     6879    1     X$PARAM.ERR = PCB.ERROR;

   6879  3 001007   200126 236100                    LDQ     PCB+6,,AUTO
         3 001010   000013 756100                    STQ     11,,PR0

      430     6880    1     ALTRETURN;

   6880  3 001011   000000 702200 xent               TSX2  ! X66_AALT
      431     6881    1   END X$HELP;

PL6.E3A0      #001=X$HELP File=XUH$HELP.:E05TSI                                  WED 07/30/97 09:19 Page:63
--  Include file information  --

   XU_PERR_C.:E05TOU  is referenced.
   XU_MACRO_C.:E05TOU  is referenced.
   XUH_SUBS_C.:E05TOU  is referenced.
   XUH_MACRO_C.:E05TOU  is referenced.
   CP_6_SUBS.:E05TOU  is referenced.
   CP_6.:E05TOU  cannot be made into a system file and is referenced.
   B_MACROS_C.:E05TOU  is referenced.
   B$JIT.:E05TOU  cannot be made into a system file and is referenced.
   B_ERRORS_C.:E05TOU  is referenced.
   B$JIT_C.:E05TOU  was found in the system file and is referenced.
   CP_6_C.:E05TOU  was found in the system file and is referenced.
      No diagnostics issued in procedure X$HELP.
PL6.E3A0      #001=X$HELP File=XUH$HELP.:E05TSI                                  WED 07/30/97 09:19 Page:64

 **** Variables and constants ****

  ****  Section 001 RoData X$HELP

  ****  Scalars and arrays  ****
OctLoc.c.b A Datatyp(siz) R M Lvl/name                 OctLoc.c.b A Datatyp(siz) R M Lvl/name

     0-0-0/d STRC(864)   r     1 CFPT_FID                  30-0-0/d STRC(792)   r     1 CFPT_HELP
    56-0-0/w STRC(504)   r     1 CP$PCB

  ****  Auto variables  ****

  ****  Scalars and arrays  ****
OctLoc.c.b A Datatyp(siz) R M Lvl/name                 OctLoc.c.b A Datatyp(siz) R M Lvl/name

     3-0-0/w PTR         r     1 @X$PARAM                 510-0-0/w PTR         r     1 BLK$
    56-0-0/c STRC(72)    r     1 FID_ACCT                 506-0-0/w UBIN(9)     r     1 FID_ASN
    46-0-0/c STRC(288)   r     1 FID_NAME                  60-0-0/c STRC(72)    r     1 FID_PASS
   507-0-0/c CHAR(4)     r     1 FID_RES                   34-0-0/d STRC(324)   r     1 FID_RESULTS
    64-0-0/d STRC(198)   r     1 FID_SN                    62-0-0/c STRC(72)    r     1 FID_WSN
     4-0-0/d STRC(864)   r     1 FPT_FID                   72-0-0/d STRC(792)   r     1 FPT_HELP
   136-0-0/d STRC(504)   r     1 HELP_RESULTS             505-0-0/w SBIN        r     1 INDX
   154-0-0/c STRC(288)   r     1 KEYWORD1                 164-0-0/c STRC(288)   r     1 KEYWORD2
   511-0-0/w PTR         r     1 P$                       120-0-0/w STRC(504)   r     1 PCB
   174-0-0/w UBIN        r     1 WORK_AREA(0:200)
    *0-0-0/d STRC(2052)  r     1 X$PARAM

  ****  SYMREF variables  ****

  ****  Scalars and arrays  ****
OctLoc.c.b A Datatyp(siz) R M Lvl/name                 OctLoc.c.b A Datatyp(siz) R M Lvl/name

     0-0-0/w PTR         r     1 B$JIT$                     0-0-0/w PTR         r     1 B$TCB$
     0-0-0/b BIT         r     1 XUH_HELP

  ****  BASED and DCB variables  ****

PL6.E3A0      #001=X$HELP File=XUH$HELP.:E05TSI                                  WED 07/30/97 09:19 Page:65
  ****  Scalars and arrays  ****
OctLoc.c.b A Datatyp(siz) R M Lvl/name                 OctLoc.c.b A Datatyp(siz) R M Lvl/name

     0-0-0/w STRC(2448)  r     1 B$ALT                      0-0-0/d STRC(8856)  r     1 B$JIT
     0-0-0/w STRC(144)   r     1 B$TCB                      0-0-0/d ASTR(3528)  r     1 F$DCB
     0-0-0N  NULL        r     1 M$DO                       0-0-0/w STRC(144)   r     1 P$B
     0-0-0/w ASTR(153)   r     1 P$S                        0-0-0/c STRC(72)    r     1 VLP$ACCT
     0-0-0/c STRC(288)   r     1 VLP$NAME                   0-0-0/c STRC(72)    r     1 VLP$PASS
     0-0-0/c CHAR(6)     r     1 VLP$PSN                    0-0-0/c ASTR(9)     r     1 X$STRING


   Procedure X$HELP requires 522 words for executable code.
   Procedure X$HELP requires 334 words of local(AUTO) storage.

    No errors detected in file XUH$HELP.:E05TSI    .
PL6.E3A0      #001=X$HELP File=XUH$HELP.:E05TSI                                  WED 07/30/97 09:19 Page:66
          *** CROSS REFERENCE LISTING ***
**     DENOTES     IDENTIFIER DEFINITION
<<                 IDENTIFIER'S VALUE SET
>>                 IDENTIFIER'S VALUE USED
<>                 IDENTIFIER SET AND/OR USED
--                 IDENTIFIER REFERENCED
PL6.E3A0      #001=X$HELP File=XUH$HELP.:E05TSI                                  WED 07/30/97 09:19 Page:67
          MINI XREF LISTING

B$ALT.CODE
      6463**DCL      6463--REDEF    6464--REDEF    6464--REDEF
B$ALT.ERR
      6464**DCL      6847>>ASSIGN   6874>>ASSIGN
B$ALT.ERR.CODE
      6465**DCL      6861>>IF
B$ALT.ERR.ERR#
      6465**DCL      6465--REDEF
B$ALT.EVID
      6464**DCL      6464--REDEF    6464--REDEF
B$JIT.CPFLAGS1.SLEAZE
      1258**DCL      1258--REDEF
B$JIT.ERR.MID
      1165**DCL      1165--REDEF
B$JIT.FACCN
      1164**DCL      6765>>ASSIGN
B$JIT.JRESPEAK
      1326**DCL      1327--REDEF
B$JIT.ORIGINATOR_PORT.FROM_CR
      1435**DCL      1435--REDEF    1436--REDEF
B$JIT.PNR
      1339**DCL      1339--REDEF
B$JIT.TSLINE
      1433**DCL      1434--REDEF
B$JIT$
      6315**DCL      1159--IMP-PTR  6765>>ASSIGN
B$TCB.ALT$
      6402**DCL      6847>>ASSIGN   6861>>IF       6874>>ASSIGN
B$TCB$
      6316**DCL      6402--IMP-PTR  6847>>ASSIGN   6861>>IF       6874>>ASSIGN
BACK
      6817**LABEL    6667--GOTO
PL6.E3A0      #001=X$HELP File=XUH$HELP.:E05TSI                                  WED 07/30/97 09:19 Page:68
BLK$
      6313**DCL      6708<<ASSIGN   6710>>DOINDEX  6711>>ASSIGN
CFPT_FID
      5605**DCL      6715>>ASSIGN
CFPT_FID.V
      5609**DCL      5605--DCLINIT
CFPT_HELP
      5747**DCL      6560>>ASSIGN
CFPT_HELP.V
      5751**DCL      5747--DCLINIT
CP$PCB
      5974**DCL      6698>>ASSIGN
E_FID
      6847**LABEL    6726--CALLALT
E_HELP
      6851**LABEL    6603--CALLALT  6666--CALLALT  6682--CALLALT  6809--CALLALT
E_PARSE
      6878**LABEL    6704--CALLALT
F$DCB.ACCT#
      6421**DCL      6640>>ASSIGN
F$DCB.ACTPOS
      6437**DCL      6437--REDEF
F$DCB.ARS#
      6411**DCL      6411--REDEF
F$DCB.ATTR
      6430**DCL      6431--REDEF
F$DCB.BORROW
      6445**DCL      6445--REDEF    6445--REDEF    6445--REDEF
F$DCB.DCBNAME.L
      6459**DCL      6459--IMP-SIZ
F$DCB.EOMCHAR#
      6415**DCL      6415--REDEF
F$DCB.FLDID
      6440**DCL      6440--REDEF
F$DCB.FORM$
      6434**DCL      6434--REDEF
PL6.E3A0      #001=X$HELP File=XUH$HELP.:E05TSI                                  WED 07/30/97 09:19 Page:69
F$DCB.FSECT
      6450**DCL      6450--REDEF
F$DCB.FSN#
      6427**DCL      6427--REDEF    6427--REDEF    6428--REDEF
F$DCB.HEADER$
      6433**DCL      6433--REDEF
F$DCB.IXTNSIZE#
      6431**DCL      6431--REDEF
F$DCB.LASTSTA$
      6420**DCL      6420--REDEF
F$DCB.LVL
      6446**DCL      6446--REDEF
F$DCB.NAME#
      6421**DCL      6634>>ASSIGN
F$DCB.NAME#.C
      6421**DCL      6421--REDEF
F$DCB.NOEOF
      6443**DCL      6443--REDEF
F$DCB.NRECS#
      6432**DCL      6432--REDEF
F$DCB.NRECX
      6451**DCL      6451--REDEF
F$DCB.OHDR
      6443**DCL      6443--REDEF
F$DCB.ORG#
      6426**DCL      6426--REDEF
F$DCB.PRECNO
      6449**DCL      6449--REDEF
F$DCB.PSN#
      6421**DCL      6649>>ASSIGN
F$DCB.RCSZ
      6455**DCL      6455--REDEF
F$DCB.RES#
      6422**DCL      6422--REDEF
F$DCB.SETX
      6434**DCL      6434--REDEF
PL6.E3A0      #001=X$HELP File=XUH$HELP.:E05TSI                                  WED 07/30/97 09:19 Page:70
F$DCB.TAB$
      6434**DCL      6434--REDEF
F$DCB.TDA
      6448**DCL      6449--REDEF
F$DCB.WSN#
      6422**DCL      6422--REDEF
FID_ACCT
      5674**DCL      6719--ASSIGN
FID_ACCT.ACCT#
      5674**DCL      6763>>IF       6767>>ASSIGN
FID_ASN
      6310**DCL      6723--ASSIGN   6730>>IF
FID_NAME
      5661**DCL      6718--ASSIGN   6756>>ASSIGN
FID_NAME.L#
      5661**DCL      6746>>IF
FID_NAME.NAME#
      5661**DCL      6746>>IF
FID_PASS
      5687**DCL      6720--ASSIGN
FID_PASS.PASS#
      5687**DCL      6782>>ASSIGN
FID_RES
      6311**DCL      6724--ASSIGN
FID_RESULTS
      5628**DCL      6725--ASSIGN
FID_RESULTS.ACCT
      5628**DCL      6760>>IF
FID_RESULTS.NAME
      5628**DCL      6744>>IF
FID_RESULTS.PASS
      5628**DCL      6780>>IF
FID_RESULTS.SN
      5628**DCL      6774>>IF
FID_SN
      5713**DCL      6721--ASSIGN
PL6.E3A0      #001=X$HELP File=XUH$HELP.:E05TSI                                  WED 07/30/97 09:19 Page:71
FID_SN.NUM#
      5713**DCL      6774>>IF
FID_SN.SN#
      5713**DCL      6776>>ASSIGN
FID_WSN
      5700**DCL      6722--ASSIGN
FPT_FID
      5582**DCL      6715<<ASSIGN   6726<>CALL
FPT_FID.ACCT_
      5583**DCL      6719<<ASSIGN
FPT_FID.ASN_
      5585**DCL      6723<<ASSIGN
FPT_FID.NAME_
      5583**DCL      6718<<ASSIGN
FPT_FID.PASS_
      5583**DCL      6720<<ASSIGN
FPT_FID.RESULTS_
      5585**DCL      6725<<ASSIGN
FPT_FID.RES_
      5585**DCL      6724<<ASSIGN
FPT_FID.SN_
      5584**DCL      6721<<ASSIGN
FPT_FID.TEXTFID_
      5582**DCL      6716<<ASSIGN
FPT_FID.WSN_
      5584**DCL      6722<<ASSIGN
FPT_HELP
      5726**DCL      6560<<ASSIGN   6603<>CALL     6666<>CALL     6682<>CALL     6809<>CALL
FPT_HELP.BUF_
      5727**DCL      6562<<ASSIGN
FPT_HELP.KEY1_
      5726**DCL      6681<<ASSIGN   6796<<ASSIGN
FPT_HELP.KEY2_
      5726**DCL      6804<<ASSIGN
FPT_HELP.PROCACCT_
      5728**DCL      6565<<ASSIGN
PL6.E3A0      #001=X$HELP File=XUH$HELP.:E05TSI                                  WED 07/30/97 09:19 Page:72
FPT_HELP.PROCNAME_
      5727**DCL      6564<<ASSIGN
FPT_HELP.PROCPASS_
      5728**DCL      6566<<ASSIGN
FPT_HELP.PROCPSN_
      5729**DCL      6569<<ASSIGN
FPT_HELP.RESULTS_
      5729**DCL      6563<<ASSIGN
FPT_HELP.V
      5730**DCL      6561--ASSIGN
FPT_HELP.V.ALL#
      5732**DCL      6598<<ASSIGN
FPT_HELP.V.LIST#
      5732**DCL      6665<<ASSIGN   6752<<ASSIGN   6759<<ASSIGN   6787<<ASSIGN
FPT_HELP.V.MORE#
      5733**DCL      6600<<ASSIGN
FPT_HELP.V.OUTDCB1#
      5730**DCL      6580<<ASSIGN   6583<<ASSIGN
FPT_HELP.V.OUTDCB2#
      5730**DCL      6584<<ASSIGN
FPT_HELP.V.RANGE#
      5733**DCL      6789<<ASSIGN
FPT_HELP.V_
      5726**DCL      6561<<ASSIGN
HELP_RESULTS
      6167**DCL      6563--ASSIGN   6570<<ASSIGN
HELP_RESULTS.CODEUSED.LEN
      6180**DCL      6594<<ASSIGN   6814>>ASSIGN
HELP_RESULTS.CODEUSED.TEXT
      6181**DCL      6595<<ASSIGN   6815>>ASSIGN
HELP_RESULTS.ERRCODE1
      6176**DCL      6821>>ASSIGN
HELP_RESULTS.ERRCODE1.ERR#
      6177**DCL      6817>>IF
HELP_RESULTS.ERRCODE2
      6178**DCL      6830>>ASSIGN
PL6.E3A0      #001=X$HELP File=XUH$HELP.:E05TSI                                  WED 07/30/97 09:19 Page:73
HELP_RESULTS.ERRCODE2.ERR#
      6179**DCL      6825>>IF       6825>>IF
HELP_RESULTS.NNATIVE
      6173**DCL      6851>>IF
HELP_RESULTS.OUTERR1
      6173**DCL      6817>>IF
HELP_RESULTS.OUTERR2
      6173**DCL      6825>>IF
INDX
      6309**DCL      6710<<DOINDEX  6711>>ASSIGN
KEYWORD1
      6209**DCL      6796--ASSIGN
KEYWORD1.L#
      6209**DCL      6794<<ASSIGN
KEYWORD1.NAME#
      6209**DCL      6795<<ASSIGN
KEYWORD2
      6236**DCL      6804--ASSIGN
KEYWORD2.L#
      6236**DCL      6802<<ASSIGN
KEYWORD2.NAME#
      6236**DCL      6803<<ASSIGN
M$DO
      6306**DCL      6580>>ASSIGN
M$FID
      1623**DCL-ENT  6726--CALL
M$HELP
      1623**DCL-ENT  6603--CALL     6666--CALL     6682--CALL     6809--CALL
P$
      6314**DCL      6711<<ASSIGN   6712>>DOCASE   6716>>ASSIGN   6716>>ASSIGN   6791>>IF       6794>>ASSIGN
      6795>>ASSIGN   6795>>ASSIGN   6799>>IF       6802>>ASSIGN   6803>>ASSIGN   6803>>ASSIGN
P$B.CODE
      6332**DCL      6712>>DOCASE
P$B.NSUBLKS
      6336**DCL      6710>>DOINDEX
P$B.SUBLK$
PL6.E3A0      #001=X$HELP File=XUH$HELP.:E05TSI                                  WED 07/30/97 09:19 Page:74
      6357**DCL      6711>>ASSIGN   6716>>ASSIGN   6716>>ASSIGN
P$S.COUNT
      6393**DCL      6396--IMP-SIZ  6716>>ASSIGN   6791>>IF       6794>>ASSIGN   6795>>ASSIGN   6799>>IF
      6802>>ASSIGN   6803>>ASSIGN
P$S.TEXT
      6396**DCL      6716--ASSIGN   6795>>ASSIGN   6803>>ASSIGN
PCB
      5775**DCL      6698<<ASSIGN   6704<>CALL
PCB.ERROR
      5879**DCL      6879>>ASSIGN
PCB.HI_CHAR
      5926**DCL      6878>>ASSIGN
PCB.NCHARS
      5922**DCL      6703<<ASSIGN
PCB.OUT$
      5788**DCL      6708>>ASSIGN
PCB.ROOT$
      5780**DCL      6699<<ASSIGN
PCB.TEXT$
      5776**DCL      6700<<ASSIGN
PCB.WKSZ
      5805**DCL      6702<<ASSIGN
PCB.WORK$
      5784**DCL      6701<<ASSIGN
SAVE_INFO
      6814**LABEL    6604--GOTO     6683--GOTO
SKIP01
      6645**LABEL    6644--GOTO
SKIP02
      6774**LABEL    6773--GOTO
VLP$ACCT.ACCT#
      6512**DCL      6638>>ASSIGN
VLP$NAME
      6499**DCL      6632>>ASSIGN
VLP$PASS.PASS#
      6525**DCL      6654>>ASSIGN
PL6.E3A0      #001=X$HELP File=XUH$HELP.:E05TSI                                  WED 07/30/97 09:19 Page:75
VLP$PSN
      6527**DCL      6647>>ASSIGN
WORK_AREA
      6308**DCL      6562--ASSIGN   6701--ASSIGN   6702--ASSIGN
X$PARAM
      6261**DCL        21--PROC
X$PARAM.ALL#
      6273**DCL      6590>>IF       6596>>IF       6601<<ASSIGN
X$PARAM.CHARPOS
      6285**DCL      6878<<ASSIGN
X$PARAM.ERR
      6278**DCL      6571<<ASSIGN   6821<<ASSIGN   6830<<ASSIGN   6847<<ASSIGN   6874<<ASSIGN   6879<<ASSIGN
X$PARAM.ERR.ERR#
      6282**DCL      6690<<ASSIGN   6736<<ASSIGN   6857<<ASSIGN   6867<<ASSIGN
X$PARAM.ERR.FCG
      6279**DCL      6687<<ASSIGN   6733<<ASSIGN   6854<<ASSIGN   6864<<ASSIGN
X$PARAM.ERR.MID
      6280**DCL      6688<<ASSIGN   6734<<ASSIGN   6855<<ASSIGN   6865<<ASSIGN
X$PARAM.ERR.MON
      6281**DCL      6689<<ASSIGN   6735<<ASSIGN   6856<<ASSIGN   6866<<ASSIGN
X$PARAM.ERR.SEV
      6283**DCL      6691<<ASSIGN   6737<<ASSIGN   6858<<ASSIGN   6868<<ASSIGN
X$PARAM.ERR_DCB#
      6284**DCL      6572<<ASSIGN   6822<<ASSIGN   6831<<ASSIGN
X$PARAM.FPT_VERSION
      6299**DCL      6567>>IF       6642>>IF       6771>>IF
X$PARAM.HELP$
      6271**DCL      6620>>IF       6675>>IF       6700>>ASSIGN   6703>>ASSIGN   6808<<ASSIGN
X$PARAM.HELP_CODE#.LEN
      6287**DCL      6594>>ASSIGN   6610<<ASSIGN   6814<<ASSIGN
X$PARAM.HELP_CODE#.PACCT
      6292**DCL      6565--ASSIGN   6638<<ASSIGN   6640<<ASSIGN   6765<<ASSIGN   6767<<ASSIGN   6770<<ASSIGN
X$PARAM.HELP_CODE#.PNAME
      6289**DCL      6564--ASSIGN   6632<<ASSIGN   6634<<ASSIGN   6756<<ASSIGN
X$PARAM.HELP_CODE#.PNAME.LEN
      6290**DCL      6750<<ASSIGN
PL6.E3A0      #001=X$HELP File=XUH$HELP.:E05TSI                                  WED 07/30/97 09:19 Page:76
X$PARAM.HELP_CODE#.PNAME.TEXT
      6291**DCL      6751<<ASSIGN
X$PARAM.HELP_CODE#.PPASS
      6293**DCL      6566--ASSIGN   6654<<ASSIGN   6782<<ASSIGN   6784<<ASSIGN
X$PARAM.HELP_CODE#.PPSN
      6294**DCL      6569--ASSIGN   6647<<ASSIGN   6649<<ASSIGN   6776<<ASSIGN   6778<<ASSIGN
X$PARAM.HELP_CODE#.TEXT
      6288**DCL      6595>>ASSIGN   6611<<ASSIGN   6815<<ASSIGN
X$PARAM.KEYWORD_
      6268**DCL      6678>>IF       6681>>ASSIGN
X$PARAM.MORE#
      6274**DCL      6590>>IF       6602<<ASSIGN
X$PARAM.OTHER_PROC#
      6276**DCL      6621<<ASSIGN   6627>>IF       6743<<ASSIGN   6840<<ASSIGN
X$PARAM.OUTDCB1#
      6269**DCL      6577>>IF       6583>>ASSIGN   6822>>ASSIGN
X$PARAM.OUTDCB2#
      6270**DCL      6577>>IF       6584>>ASSIGN   6831>>ASSIGN
X$PARAM.PROCACCT_
      6266**DCL      6636>>IF       6638>>ASSIGN
X$PARAM.PROCNAME_
      6265**DCL      6630>>IF       6632>>ASSIGN
X$PARAM.PROCPASS_
      6267**DCL      6652>>IF       6654>>ASSIGN
X$PARAM.PROCPSN_
      6295**DCL      6645>>IF       6647>>ASSIGN
X$PARAM.TOPICS#
      6275**DCL      6661>>IF       6664<<ASSIGN
X$PARSE
      6529**DCL-ENT  6704--CALL
X$STRING.SIZ
      6471**DCL      6472--IMP-SIZ  6703>>ASSIGN
X$STRING.TEXT
      6472**DCL      6700--ASSIGN
XUH_HELP
      6531**DCL      6699--ASSIGN
