VERSION E05

PL6.E3A0      #001=XUO$DNAME File=XUO$BUILD.:E05TSI                              WED 07/30/97 09:23 Page:1
        1        1        /*M*     XUO$DNAME -- THIS MODULE WILL BUILD OBJECT UNIT NAME RECORDS*/
        2        2        /*T***********************************************************/
        3        3        /*T*                                                         */
        4        4        /*T* Copyright (c) Bull HN Information Systems Inc., 1997    */
        5        5        /*T*                                                         */
        6        6        /*T***********************************************************/
        7        7        /*X* PLM=4,STI=0,IND=4,CTI=3,DCI=4,ECI=4,CSI=0,THI=0,DTI=0,
        8        8             ENI=4,CLM=0,SQB,NTB,MOC,CCI=3,NLB,MCL=0,EDMC */
        9        9        /*P*     NAME:     XUO$NAME
       10       10                 PURPOSE:  THIS MODULE WILL BUILD AND OUTPUT OBJECT UNIT NAME RECORDS.
       11       11                 DESCRIPTION:   THE XUO$NAME MODULE WILL BUILD AND OUTPUT THE
       12       12                      FOLLOWING NAME RECORDS:
       13       13                           1.   DEF NAMES
       14       14                           2.   REF NAMES
       15       15                           3.   DEBUG NAMES
       16       16                      THE MODULE WILL RETURN A 'NAME POINTER' TO THE CALLER.
       17       17        */
       18       18        /*D*
       19       19
       20       20        XUO$DNAME -- Externally Defined Names (Record Type 1)
       21       21
       22       22        NAME:  XUO$DNAME
       23       23
       24       24        PURPOSE:  To build an entry in the Externally Defined Names Record
       25       25
       26       26        DESCRIPTION:  This routine is used to build an entry in the
       27       27             Externally Defined Names record (Type 1).  The record
       28       28             is the collection of names pointed to by the following
       29       29             records:  Sections   (type 3)
       30       30                       ENTDEF     (type 4)
       31       31                       SYMDEF     (type 6)
       32       32                       SEGDEF     (type 8)
       33       33
       34       34        */
       35       35        /*D*
       36       36        CALL:  CALL XUO$DNAME (Name,
       37       37                        Name Pointer)
PL6.E3A0      #001=XUO$DNAME File=XUO$BUILD.:E05TSI                              WED 07/30/97 09:23 Page:2
       38       38
       39       39        INPUT:
       40       40            Name                Structure ALIGNED
       41       41                .Size           UBIN HALF UNALIGNED
       42       42                                The number of characters in the name.
       43       43                .Text           CHAR (Size)
       44       44                                The character string that is the
       45       45                                externally defined name.
       46       46
       47       47        OUTPUT:
       48       48            Name Pointer        UBIN
       49       49                                The value that represents the word
       50       50                                offset to the entry in the Defined
       51       51                                Names Text record.
       52       52
       53       53        B$OBJECT REFERENCE:  B$DNAME
       54       54
       55       55        */
       56       56        /*B*
       57       57        GLOBAL DATA:
       58       58             B_DNAME_CUR$
       59       59             B_DNAME_COUNT
       60       60             B_DNAME_PAGE
       61       61
       62       62        INTERFACE:
       63       63             XUO$OUWRITE
       64       64
       65       65        */
       66       66
       67       67        XUO$DNAME: PROC (P_NAME,P_NAME_POINTER);
       68       68         /*
       69       69            */
       70       70        %INCLUDE ZVA_SYSTEM_FILE;
       71     6321        %PAGE (ARG=INCLUDES);

              6334    1   /*******************************************************************************
              6335    1   *                                                                              *
PL6.E3A0      #001=XUO$DNAME File=XUO$BUILD.:E05TSI                              WED 07/30/97 09:23 Page:3
              6336    1   *        INCLUDES              INCLUDES                                            *
              6337    1   *                                                                              *
              6338    1   *******************************************************************************/

       72     6342        %INCLUDE B$OBJECT_C;
       73     9772        %INCLUDE XUO$OBJ_C;
       74    10182        %PAGE(ARG=SUBS);

             10195    1   /*******************************************************************************
             10196    1   *                                                                              *
             10197    1   *        SUBS              SUBS                                                  *
             10198    1   *                                                                              *
             10199    1   *******************************************************************************/

       75    10203        %B$RECORDSUBS;
       76    10231        %PLIST;
       77    10232        %PAGE (ARG=PARAMETERS);

             10245    1   /*******************************************************************************
             10246    1   *                                                                              *
             10247    1   *        PARAMETERS              PARAMETERS                                        *
             10248    1   *                                                                              *
             10249    1   *******************************************************************************/

       78    10253    1   DCL 1 P_NAME ALIGNED,
       79    10254    1         2 SIZE UBIN HALF UNAL,
       80    10255    1         2 TEXT CHAR(P_NAME.SIZE);
       81    10256         /*
       82    10257            */
       83    10258    1   DCL P_NAME_POINTER UBIN;
       84    10259         /*
       85    10260            */
       86    10261        %PAGE (ARG=DEF NAME DATA);

             10274    1   /*******************************************************************************
             10275    1   *                                                                              *
             10276    1   *        DEF NAME DATA              DEF NAME DATA                                  *
PL6.E3A0      #001=XUO$DNAME File=XUO$BUILD.:E05TSI                              WED 07/30/97 09:23 Page:4
             10277    1   *                                                                              *
             10278    1   *******************************************************************************/

       87    10282        %B$DNAME (NAME=B$DNAME,STCLASS="BASED(B_DNAME_CUR$)");
       88    10301        %B_DNAME_POINTERS;
       89    10321        %PLIST;
       90    10322        %PAGE (ARG=REF NAME DATA);

             10335    1   /*******************************************************************************
             10336    1   *                                                                              *
             10337    1   *        REF NAME DATA              REF NAME DATA                                  *
             10338    1   *                                                                              *
             10339    1   *******************************************************************************/

       91    10343        %B$DNAME (NAME=B$RNAME,STCLASS="BASED(B_RNAME_CUR$)");
       92    10362        %B_RNAME_POINTERS;
       93    10382        %PLIST;
       94    10383        %PAGE (ARG=DBG NAME DATA);

             10396    1   /*******************************************************************************
             10397    1   *                                                                              *
             10398    1   *        DBG NAME DATA              DBG NAME DATA                                  *
             10399    1   *                                                                              *
             10400    1   *******************************************************************************/

       95    10404        %B$DNAME (NAME=B$DBGNAME,STCLASS="BASED(B_DBGNAME_CUR$)");
       96    10423        %B_DBGNAME_POINTERS;
       97    10443        %PLIST;
       98    10444        %PAGE (ARG=ENTRY DCLS);

             10457    1   /*******************************************************************************
             10458    1   *                                                                              *
             10459    1   *        ENTRY DCLS              ENTRY DCLS                                        *
             10460    1   *                                                                              *
             10461    1   *******************************************************************************/

       99    10465    1   DCL XUO$OUWRITE ENTRY(2);
PL6.E3A0      #001=XUO$DNAME File=XUO$BUILD.:E05TSI                              WED 07/30/97 09:23 Page:5
      100    10466        %PAGE (ARG=LOCAL DATA);

             10479    1   /*******************************************************************************
             10480    1   *                                                                              *
             10481    1   *        LOCAL DATA              LOCAL DATA                                        *
             10482    1   *                                                                              *
             10483    1   *******************************************************************************/

      101    10487    1   DCL NAME_SIZE_TEMP UBIN;
      102    10488        %PAGE (ARG=DEF CODE);

             10501    1   /*******************************************************************************
             10502    1   *                                                                              *
             10503    1   *        DEF CODE              DEF CODE                                            *
             10504    1   *                                                                              *
             10505    1   *******************************************************************************/

      103    10509         /*
      104    10510         The following will check to see if the passed name will fit in the current
      105    10511         record.  If not the current record will be written and the pointer
      106    10512         re-initialized.  Then the text will be moved to the buffer.
      107    10513         */
      108    10514    1       NAME_SIZE_TEMP=SIZEW(P_NAME);
      109    10515    1       IF PINCRW(B_DNAME_CUR$,NAME_SIZE_TEMP)>=B_DNAME_END$ THEN
      110    10516    2       DO;
      111    10517         /*
      112    10518         Always write a full page of data
      113    10519         */
      114    10520    2           B_DNAME_CUR$=B_DNAME_END$;
      115    10521    2           CALL XUO$OUWRITE(%TYPDNAM);
      116    10522    2           B_DNAME_PAGE=B_DNAME_PAGE+1;
      117    10523    2           B_DNAME_COUNT=B_DNAME_PAGE*B_DNAME_PAGE_SIZE;
      118    10524    2           B_DNAME_CUR$=B_DNAME_BASE$;
      119    10525    2           END;
      120    10526         /*
      121    10527         The following section will add the text to the record
      122    10528         */
PL6.E3A0      #001=XUO$DNAME File=XUO$BUILD.:E05TSI                              WED 07/30/97 09:23 Page:6
      123    10529    1       P_NAME_POINTER=B_DNAME_COUNT;
      124    10530    1       B$DNAME.COUNT=P_NAME.SIZE;
      125    10531    1       B$DNAME.TEXT=P_NAME.TEXT;
      126    10532    1       B_DNAME_COUNT=B_DNAME_COUNT+NAME_SIZE_TEMP;
      127    10533    1       B_DNAME_CUR$=PINCRW(B_DNAME_CUR$,NAME_SIZE_TEMP);
      128    10534    1       RETURN;
      129    10535            %PAGE (ARG=REF CODE);

             10548    1   /*******************************************************************************
             10549    1   *                                                                              *
             10550    1   *        REF CODE              REF CODE                                            *
             10551    1   *                                                                              *
             10552    1   *******************************************************************************/

      130    10556        /*D*
      131    10557
      132    10558        XUO$RNAME --Externally Referenced Names Record (Record Type 2)
      133    10559
      134    10560        NAME:  XUO$RNAME
      135    10561
      136    10562        PURPOSE:  To build an entry into the Externally Referenced
      137    10563              Names Record.  (type 2)
      138    10564
      139    10565        DESCRIPTION:  This routine builds an entry in the Externally
      140    10566             Referenced Names Record. (type 2)  The record is the
      141    10567             collection of names pointed to by the following
      142    10568             records:   ENTREF    (type 5)
      143    10569                        SYMREF    (type 7)
      144    10570                        SEGREF    (type 9)
      145    10571
      146    10572        CALL:  CALL XUO$RNAME (Name,
      147    10573                         Name Pointer)
      148    10574
      149    10575        INPUT:
      150    10576            Name
      151    10577                .Size           UBIN HALF UNALIGNED
      152    10578                                The number of characters in the name.
PL6.E3A0      #001=XUO$DNAME File=XUO$BUILD.:E05TSI                              WED 07/30/97 09:23 Page:7
      153    10579                .Text           CHAR(Size)
      154    10580                                The character string that is the
      155    10581                                externally referenced name.
      156    10582
      157    10583        OUTPUT:
      158    10584            Name Pointer       UBIN ALIGNED
      159    10585                               The word offset to the entry in the
      160    10586                               Externally Referenced Names record
      161    10587                               locating the added text.
      162    10588
      163    10589        B$OBJECT REFERENCE:  B$RNAME
      164    10590        */
      165    10591        /*B*
      166    10592        GLOBAL DATA:
      167    10593            B_RNAME_CUR$
      168    10594            B_RNAME_COUNT
      169    10595            B_RNAME_PAGE
      170    10596
      171    10597        INTERFACE:
      172    10598            XUO$OUWRITE
      173    10599
      174    10600        */
      175    10601
      176    10602    1   XUO$RNAME: ENTRY (P_NAME,P_NAME_POINTER);
      177    10603         /*
      178    10604         The following will check to see if the passed name will fit in the current
      179    10605         record.  If not the current record will be written and the pointer
      180    10606         re-initialized.  Then the text will be moved to the buffer.
      181    10607         */
      182    10608    1       NAME_SIZE_TEMP=SIZEW(P_NAME);
      183    10609    1       IF PINCRW(B_RNAME_CUR$,NAME_SIZE_TEMP)>=B_RNAME_END$ THEN
      184    10610    2       DO;
      185    10611         /*
      186    10612         Always write a full page of data
      187    10613         */
      188    10614    2           B_RNAME_CUR$=B_RNAME_END$;
      189    10615    2           CALL XUO$OUWRITE(%TYPRNAM);
PL6.E3A0      #001=XUO$DNAME File=XUO$BUILD.:E05TSI                              WED 07/30/97 09:23 Page:8
      190    10616    2           B_RNAME_PAGE=B_RNAME_PAGE+1;
      191    10617    2           B_RNAME_COUNT=B_RNAME_PAGE*B_RNAME_PAGE_SIZE;
      192    10618    2           B_RNAME_CUR$=B_RNAME_BASE$;
      193    10619    2           END;
      194    10620         /*
      195    10621         The following section will add the text to the record
      196    10622         */
      197    10623    1       P_NAME_POINTER=B_RNAME_COUNT;
      198    10624    1       B$RNAME.COUNT=P_NAME.SIZE;
      199    10625    1       B$RNAME.TEXT=P_NAME.TEXT;
      200    10626    1       B_RNAME_COUNT=B_RNAME_COUNT+NAME_SIZE_TEMP;
      201    10627    1       B_RNAME_CUR$=PINCRW(B_RNAME_CUR$,NAME_SIZE_TEMP);
      202    10628    1       RETURN;
      203    10629            %PAGE (ARG=REF CODE);

             10642    1   /*******************************************************************************
             10643    1   *                                                                              *
             10644    1   *        REF CODE              REF CODE                                            *
             10645    1   *                                                                              *
             10646    1   *******************************************************************************/

      204    10650        /*D*
      205    10651
      206    10652        XUO$DBGNAME --Procedure Names Debug Record (Record Type 15)
      207    10653
      208    10654        NAME:  XUO$DBGNAME
      209    10655
      210    10656        PURPOSE:  To build an entry in the Procedure Names Debug
      211    10657            Record (Record Type 15).
      212    10658
      213    10659        DESCRIPTION:  This routine builds entries in the Procedure
      214    10660             Names Debug Record.  This record contains all debug
      215    10661             names; that is, all procedure names, entry names,
      216    10662             statement labels, and variable names.
      217    10663
      218    10664        CALL:  CALL XUO$DBGNAME (Name,
      219    10665                          Name Pointer)
PL6.E3A0      #001=XUO$DNAME File=XUO$BUILD.:E05TSI                              WED 07/30/97 09:23 Page:9
      220    10666
      221    10667        INPUT:
      222    10668            Name
      223    10669                .Size           UBIN HALF UNALIGNED
      224    10670                                The number of characters in the name.
      225    10671                .Text           CHAR(Size)
      226    10672                                The character string that is the
      227    10673                                name.
      228    10674
      229    10675        OUTPUT:
      230    10676            Name Pointer       UBIN ALIGNED
      231    10677                               The word offset to the entry in the
      232    10678                               Procedure Names Debug record
      233    10679                               locating the added text.
      234    10680
      235    10681        B$OBJECT REFERENCE:  B$DNAME
      236    10682        */
      237    10683        /*B*
      238    10684        GLOBAL DATA:
      239    10685            B_DBGNAME_CUR$
      240    10686            B_DBGNAME_COUNT
      241    10687            B_DBGNAME_PAGE
      242    10688
      243    10689        INTERFACE:
      244    10690            XUO$OUWRITE
      245    10691
      246    10692        */
      247    10693
      248    10694    1   XUO$DBGNAME: ENTRY (P_NAME,P_NAME_POINTER);
      249    10695         /*
      250    10696         The following will check to see if the passed name will fit in the current
      251    10697         record.  If not the current record will be written and the pointer
      252    10698         re-initialized.  Then the text will be moved to the buffer.
      253    10699         */
      254    10700    1       NAME_SIZE_TEMP=SIZEW(P_NAME);
      255    10701    1       IF PINCRW(B_DBGNAME_CUR$,NAME_SIZE_TEMP)>=B_DBGNAME_END$ THEN
      256    10702    2       DO;
PL6.E3A0      #001=XUO$DNAME File=XUO$BUILD.:E05TSI                              WED 07/30/97 09:23 Page:10
      257    10703         /*
      258    10704         Always write a full page of data
      259    10705         */
      260    10706    2           B_DBGNAME_CUR$=B_DBGNAME_END$;
      261    10707    2           CALL XUO$OUWRITE(%TYPDBGNAM);
      262    10708    2           B_DBGNAME_PAGE=B_DBGNAME_PAGE+1;
      263    10709    2           B_DBGNAME_COUNT=B_DBGNAME_PAGE*B_DBGNAME_PAGE_SIZE;
      264    10710    2           B_DBGNAME_CUR$=B_DBGNAME_BASE$;
      265    10711    2           END;
      266    10712         /*
      267    10713         The following section will add the text to the record
      268    10714         */
      269    10715    1       P_NAME_POINTER=B_DBGNAME_COUNT;
      270    10716    1       B$DBGNAME.COUNT=P_NAME.SIZE;
      271    10717    1       B$DBGNAME.TEXT=P_NAME.TEXT;
      272    10718    1       B_DBGNAME_COUNT=B_DBGNAME_COUNT+NAME_SIZE_TEMP;
      273    10719    1       B_DBGNAME_CUR$=PINCRW(B_DBGNAME_CUR$,NAME_SIZE_TEMP);
      274    10720    1       RETURN;
      275    10721    1   END XUO$DNAME;
      276    10722        %EOD;

PL6.E3A0      #001=XUO$DNAME File=XUO$BUILD.:E05TSI                              WED 07/30/97 09:23 Page:11
--  Include file information  --

   XUO$OBJ_C.:E05TOU  is referenced.
   B$OBJECT_C.:E05TOU  is referenced.
   CP_6_SUBS.:E05TOU  is referenced.
   CP_6_C.:E05TOU  is referenced.
   CP_6.:E05TOU  cannot be made into a system file and is referenced.
   ZVA_FLAGS.:TOOLE04  is referenced.
   ZVA_SYSTEM_FILE.:TOOLE04  is referenced.
      No diagnostics issued in procedure XUO$DNAME.

   Procedure XUO$DNAME requires 144 words for executable code.
   Procedure XUO$DNAME requires 6 words of local(AUTO) storage.

PL6.E3A0      #001=XUO$DNAME File=XUO$BUILD.:E05TSI                              WED 07/30/97 09:23 Page:12

 Object Unit name= XUO$DNAME                                  File name= XUO$BUILD.:E05TOU
 UTS= JUL 30 '97 09:23:32.52 WED                              Compiler= PL-6/E31         Sev=      00
 SharedLib= :SHARED_SYSTEM                                    Alt SharedLib=


    ****  Control sections  ****

 Sect   Type Bound  Init  Size OctSiz  Section name(segment info)
    0   DCB   even  none     0      0  M$UC
    1   Proc  even  none   144    220  XUO$DNAME
    2  RoData even  none     4      4  XUO$DNAME

    ****  Entry defs  ****

                              Check   Calling
                             calling  sequence
  Sect OctLoc Primary Altret sequence   type   Parms  Name
     1      0   yes            yes      Std        2  XUO$DNAME
     1     60                  yes      Std        2  XUO$RNAME
     1    140                  yes      Std        2  XUO$DBGNAME

  ****  Entry refs  ****

         Check        Calling
        calling       sequence
Altret sequence SRef   type   Args  Name
         yes           Std       2 XUO$OUWRITE
                       nStd      0 X66_AUTO_2
                       Std       0 B_CONSPOOL_D
                       nStd      0 X66_ARET
PL6.E3A0      #001=XUO$DNAME File=XUO$BUILD.:E05TSI                              WED 07/30/97 09:23 Page:13

  ****  Data refs  ****

  Flags:  r = read only, s = secondary
Flgs Name                             Flgs Name                             Flgs Name
     M$UC                                  B_DNAME_BASE$                         B_DNAME_CUR$
     B_DNAME_END$                          B_DNAME_COUNT                         B_DNAME_PAGE
     B_DNAME_PAGE_SIZE                     B_RNAME_BASE$                         B_RNAME_CUR$
     B_RNAME_END$                          B_RNAME_COUNT                         B_RNAME_PAGE
     B_RNAME_PAGE_SIZE                     B_DBGNAME_BASE$                       B_DBGNAME_CUR$
     B_DBGNAME_END$                        B_DBGNAME_COUNT                       B_DBGNAME_PAGE
     B_DBGNAME_PAGE_SIZE                   B_VECTNIL

  ****  Segment refs  ****

  Flags:  r = read only, s = secondary
Flgs Name                             Flgs Name                             Flgs Name
     ISSID
PL6.E3A0      #001=XUO$DNAME File=XUO$BUILD.:E05TSI                              WED 07/30/97 09:23 Page:14


        1        1        /*M*     XUO$DNAME -- THIS MODULE WILL BUILD OBJECT UNIT NAME RECORDS*/
        2        2        /*T***********************************************************/
        3        3        /*T*                                                         */
        4        4        /*T* Copyright (c) Bull HN Information Systems Inc., 1997    */
        5        5        /*T*                                                         */
        6        6        /*T***********************************************************/
        7        7        /*X* PLM=4,STI=0,IND=4,CTI=3,DCI=4,ECI=4,CSI=0,THI=0,DTI=0,
        8        8             ENI=4,CLM=0,SQB,NTB,MOC,CCI=3,NLB,MCL=0,EDMC */
        9        9        /*P*     NAME:     XUO$NAME
       10       10                 PURPOSE:  THIS MODULE WILL BUILD AND OUTPUT OBJECT UNIT NAME RECORDS.
       11       11                 DESCRIPTION:   THE XUO$NAME MODULE WILL BUILD AND OUTPUT THE
       12       12                      FOLLOWING NAME RECORDS:
       13       13                           1.   DEF NAMES
       14       14                           2.   REF NAMES
       15       15                           3.   DEBUG NAMES
       16       16                      THE MODULE WILL RETURN A 'NAME POINTER' TO THE CALLER.
       17       17        */
       18       18        /*D*
       19       19
       20       20        XUO$DNAME -- Externally Defined Names (Record Type 1)
       21       21
       22       22        NAME:  XUO$DNAME
       23       23
       24       24        PURPOSE:  To build an entry in the Externally Defined Names Record
       25       25
       26       26        DESCRIPTION:  This routine is used to build an entry in the
       27       27             Externally Defined Names record (Type 1).  The record
       28       28             is the collection of names pointed to by the following
       29       29             records:  Sections   (type 3)
       30       30                       ENTDEF     (type 4)
       31       31                       SYMDEF     (type 6)
       32       32                       SEGDEF     (type 8)
       33       33
       34       34        */
       35       35        /*D*
       36       36        CALL:  CALL XUO$DNAME (Name,
PL6.E3A0      #001=XUO$DNAME File=XUO$BUILD.:E05TSI                              WED 07/30/97 09:23 Page:15
       37       37                        Name Pointer)
       38       38
       39       39        INPUT:
       40       40            Name                Structure ALIGNED
       41       41                .Size           UBIN HALF UNALIGNED
       42       42                                The number of characters in the name.
       43       43                .Text           CHAR (Size)
       44       44                                The character string that is the
       45       45                                externally defined name.
       46       46
       47       47        OUTPUT:
       48       48            Name Pointer        UBIN
       49       49                                The value that represents the word
       50       50                                offset to the entry in the Defined
       51       51                                Names Text record.
       52       52
       53       53        B$OBJECT REFERENCE:  B$DNAME
       54       54
       55       55        */
       56       56        /*B*
       57       57        GLOBAL DATA:
       58       58             B_DNAME_CUR$
       59       59             B_DNAME_COUNT
       60       60             B_DNAME_PAGE
       61       61
       62       62        INTERFACE:
       63       63             XUO$OUWRITE
       64       64
       65       65        */
       66       66
       67       67        XUO$DNAME: PROC (P_NAME,P_NAME_POINTER);

     67  1 000000   000000 700200 xent  XUO$DNAME    TSX0  ! X66_AUTO_2
         1 000001   000006 000002                    ZERO    6,2

       68       68         /*
       69       69            */
PL6.E3A0      #001=XUO$DNAME File=XUO$BUILD.:E05TSI                              WED 07/30/97 09:23 Page:16
       70       70        %INCLUDE ZVA_SYSTEM_FILE;
       71     6321        %PAGE (ARG=INCLUDES);

              6334    1   /*******************************************************************************
              6335    1   *                                                                              *
              6336    1   *        INCLUDES              INCLUDES                                           *
              6337    1   *                                                                              *
              6338    1   *******************************************************************************/

       72     6342        %INCLUDE B$OBJECT_C;
       73     9772        %INCLUDE XUO$OBJ_C;
       74    10182        %PAGE(ARG=SUBS);

             10195    1   /*******************************************************************************
             10196    1   *                                                                              *
             10197    1   *        SUBS              SUBS                                                  *
             10198    1   *                                                                              *
             10199    1   *******************************************************************************/

       75    10203        %B$RECORDSUBS;
       76    10231        %PLIST;
       77    10232        %PAGE (ARG=PARAMETERS);

             10245    1   /*******************************************************************************
             10246    1   *                                                                              *
             10247    1   *        PARAMETERS              PARAMETERS                                       *
             10248    1   *                                                                              *
             10249    1   *******************************************************************************/

       78    10253    1   DCL 1 P_NAME ALIGNED,
       79    10254    1         2 SIZE UBIN HALF UNAL,
       80    10255    1         2 TEXT CHAR(P_NAME.SIZE);
       81    10256         /*
       82    10257            */
       83    10258    1   DCL P_NAME_POINTER UBIN;
       84    10259         /*
       85    10260            */
PL6.E3A0      #001=XUO$DNAME File=XUO$BUILD.:E05TSI                              WED 07/30/97 09:23 Page:17
       86    10261        %PAGE (ARG=DEF NAME DATA);

             10274    1   /*******************************************************************************
             10275    1   *                                                                              *
             10276    1   *        DEF NAME DATA              DEF NAME DATA                                 *
             10277    1   *                                                                              *
             10278    1   *******************************************************************************/

       87    10282        %B$DNAME (NAME=B$DNAME,STCLASS="BASED(B_DNAME_CUR$)");
       88    10301        %B_DNAME_POINTERS;
       89    10321        %PLIST;
       90    10322        %PAGE (ARG=REF NAME DATA);

             10335    1   /*******************************************************************************
             10336    1   *                                                                              *
             10337    1   *        REF NAME DATA              REF NAME DATA                                 *
             10338    1   *                                                                              *
             10339    1   *******************************************************************************/

       91    10343        %B$DNAME (NAME=B$RNAME,STCLASS="BASED(B_RNAME_CUR$)");
       92    10362        %B_RNAME_POINTERS;
       93    10382        %PLIST;
       94    10383        %PAGE (ARG=DBG NAME DATA);

             10396    1   /*******************************************************************************
             10397    1   *                                                                              *
             10398    1   *        DBG NAME DATA              DBG NAME DATA                                 *
             10399    1   *                                                                              *
             10400    1   *******************************************************************************/

       95    10404        %B$DNAME (NAME=B$DBGNAME,STCLASS="BASED(B_DBGNAME_CUR$)");
       96    10423        %B_DBGNAME_POINTERS;
       97    10443        %PLIST;
       98    10444        %PAGE (ARG=ENTRY DCLS);

             10457    1   /*******************************************************************************
             10458    1   *                                                                              *
PL6.E3A0      #001=XUO$DNAME File=XUO$BUILD.:E05TSI                              WED 07/30/97 09:23 Page:18
             10459    1   *        ENTRY DCLS              ENTRY DCLS                                       *
             10460    1   *                                                                              *
             10461    1   *******************************************************************************/

       99    10465    1   DCL XUO$OUWRITE ENTRY(2);
      100    10466        %PAGE (ARG=LOCAL DATA);

             10479    1   /*******************************************************************************
             10480    1   *                                                                              *
             10481    1   *        LOCAL DATA              LOCAL DATA                                       *
             10482    1   *                                                                              *
             10483    1   *******************************************************************************/

      101    10487    1   DCL NAME_SIZE_TEMP UBIN;
      102    10488        %PAGE (ARG=DEF CODE);

             10501    1   /*******************************************************************************
             10502    1   *                                                                              *
             10503    1   *        DEF CODE              DEF CODE                                           *
             10504    1   *                                                                              *
             10505    1   *******************************************************************************/

      103    10509         /*
      104    10510         The following will check to see if the passed name will fit in the current
      105    10511         record.  If not the current record will be written and the pointer
      106    10512         re-initialized.  Then the text will be moved to the buffer.
      107    10513         */
      108    10514    1       NAME_SIZE_TEMP=SIZEW(P_NAME);

  10514  1 000002   200003 470500                    LDP0    @P_NAME,,AUTO
         1 000003   000000 220100                    LDX0    0,,PR0
         1 000004   000002 621010                    EAX1    2,X0
         1 000005   000000 636011                    EAQ     0,X1
         1 000006   000022 772000                    QRL     18
         1 000007   000011 402007                    MPY     9,DL
         1 000010   000043 036007                    ADLQ    35,DL
         1 000011   000044 506007                    DIV     36,DL
PL6.E3A0      #001=XUO$DNAME File=XUO$BUILD.:E05TSI                              WED 07/30/97 09:23 Page:19
         1 000012   200005 756100                    STQ     NAME_SIZE_TEMP,,AUTO

      109    10515    1       IF PINCRW(B_DNAME_CUR$,NAME_SIZE_TEMP)>=B_DNAME_END$ THEN

  10515  1 000013   000022 736000                    QLS     18
         1 000014   000000 036000 xsym               ADLQ    B_DNAME_CUR$
         1 000015   000000 116000 xsym               CMPQ    B_DNAME_END$
         1 000016   000033 602000 1                  TNC     s:10529

      110    10516    2       DO;

      111    10517         /*
      112    10518         Always write a full page of data
      113    10519         */
      114    10520    2           B_DNAME_CUR$=B_DNAME_END$;

  10520  1 000017   000000 236000 xsym               LDQ     B_DNAME_END$
         1 000020   000000 756000 xsym               STQ     B_DNAME_CUR$

      115    10521    2           CALL XUO$OUWRITE(%TYPDNAM);

  10521  1 000021   000000 630400 2                  EPPR0   0
         1 000022   000017 631400 xsym               EPPR1   B_VECTNIL+15
         1 000023   000000 701000 xent               TSX1    XUO$OUWRITE
         1 000024   000000 011000                    NOP     0

      116    10522    2           B_DNAME_PAGE=B_DNAME_PAGE+1;

  10522  1 000025   000000 054000 xsym               AOS     B_DNAME_PAGE

      117    10523    2           B_DNAME_COUNT=B_DNAME_PAGE*B_DNAME_PAGE_SIZE;

  10523  1 000026   000000 236000 xsym               LDQ     B_DNAME_PAGE
         1 000027   000000 402000 xsym               MPY     B_DNAME_PAGE_SIZE
         1 000030   000000 756000 xsym               STQ     B_DNAME_COUNT

      118    10524    2           B_DNAME_CUR$=B_DNAME_BASE$;
PL6.E3A0      #001=XUO$DNAME File=XUO$BUILD.:E05TSI                              WED 07/30/97 09:23 Page:20

  10524  1 000031   000000 236000 xsym               LDQ     B_DNAME_BASE$
         1 000032   000000 756000 xsym               STQ     B_DNAME_CUR$

      119    10525    2           END;

      120    10526         /*
      121    10527         The following section will add the text to the record
      122    10528         */
      123    10529    1       P_NAME_POINTER=B_DNAME_COUNT;

  10529  1 000033   000000 235000 xsym               LDA     B_DNAME_COUNT
         1 000034   200004 470500                    LDP0    @P_NAME_POINTER,,AUTO
         1 000035   000000 755100                    STA     0,,PR0

      124    10530    1       B$DNAME.COUNT=P_NAME.SIZE;

  10530  1 000036   200003 471500                    LDP1    @P_NAME,,AUTO
         1 000037   100000 220100                    LDX0    0,,PR1
         1 000040   000000 473400 xsym               LDP3    B_DNAME_CUR$
         1 000041   300000 740100                    STX0    0,,PR3

      125    10531    1       B$DNAME.TEXT=P_NAME.TEXT;

  10531  1 000042   000000 473400 xsym               LDP3    B_DNAME_CUR$
         1 000043   300000 220100                    LDX0    0,,PR3
         1 000044   100000 221100                    LDX1    0,,PR1
         1 000045   040140 100540                    MLR     fill='040'O
         1 000046   100000 400011                    ADSC9   0,,PR1                   cn=2,n=*X1
         1 000047   300000 400010                    ADSC9   0,,PR3                   cn=2,n=*X0

      126    10532    1       B_DNAME_COUNT=B_DNAME_COUNT+NAME_SIZE_TEMP;

  10532  1 000050   000000 236000 xsym               LDQ     B_DNAME_COUNT
         1 000051   200005 036100                    ADLQ    NAME_SIZE_TEMP,,AUTO
         1 000052   000000 756000 xsym               STQ     B_DNAME_COUNT

PL6.E3A0      #001=XUO$DNAME File=XUO$BUILD.:E05TSI                              WED 07/30/97 09:23 Page:21
      127    10533    1       B_DNAME_CUR$=PINCRW(B_DNAME_CUR$,NAME_SIZE_TEMP);

  10533  1 000053   200005 236100                    LDQ     NAME_SIZE_TEMP,,AUTO
         1 000054   000022 736000                    QLS     18
         1 000055   000000 036000 xsym               ADLQ    B_DNAME_CUR$
         1 000056   000000 756000 xsym               STQ     B_DNAME_CUR$

      128    10534    1       RETURN;

  10534  1 000057   000000 702200 xent               TSX2  ! X66_ARET

      129    10535            %PAGE (ARG=REF CODE);

             10548    1   /*******************************************************************************
             10549    1   *                                                                              *
             10550    1   *        REF CODE              REF CODE                                           *
             10551    1   *                                                                              *
             10552    1   *******************************************************************************/

      130    10556        /*D*
      131    10557
      132    10558        XUO$RNAME --Externally Referenced Names Record (Record Type 2)
      133    10559
      134    10560        NAME:  XUO$RNAME
      135    10561
      136    10562        PURPOSE:  To build an entry into the Externally Referenced
      137    10563              Names Record.  (type 2)
      138    10564
      139    10565        DESCRIPTION:  This routine builds an entry in the Externally
      140    10566             Referenced Names Record. (type 2)  The record is the
      141    10567             collection of names pointed to by the following
      142    10568             records:   ENTREF    (type 5)
      143    10569                        SYMREF    (type 7)
      144    10570                        SEGREF    (type 9)
      145    10571
      146    10572        CALL:  CALL XUO$RNAME (Name,
      147    10573                         Name Pointer)
PL6.E3A0      #001=XUO$DNAME File=XUO$BUILD.:E05TSI                              WED 07/30/97 09:23 Page:22
      148    10574
      149    10575        INPUT:
      150    10576            Name
      151    10577                .Size           UBIN HALF UNALIGNED
      152    10578                                The number of characters in the name.
      153    10579                .Text           CHAR(Size)
      154    10580                                The character string that is the
      155    10581                                externally referenced name.
      156    10582
      157    10583        OUTPUT:
      158    10584            Name Pointer       UBIN ALIGNED
      159    10585                               The word offset to the entry in the
      160    10586                               Externally Referenced Names record
      161    10587                               locating the added text.
      162    10588
      163    10589        B$OBJECT REFERENCE:  B$RNAME
      164    10590        */
      165    10591        /*B*
      166    10592        GLOBAL DATA:
      167    10593            B_RNAME_CUR$
      168    10594            B_RNAME_COUNT
      169    10595            B_RNAME_PAGE
      170    10596
      171    10597        INTERFACE:
      172    10598            XUO$OUWRITE
      173    10599
      174    10600        */
      175    10601
      176    10602    1   XUO$RNAME: ENTRY (P_NAME,P_NAME_POINTER);

  10602  1 000060   000000 700200 xent  XUO$RNAME    TSX0  ! X66_AUTO_2
         1 000061   000006 000002                    ZERO    6,2

      177    10603         /*
      178    10604         The following will check to see if the passed name will fit in the current
      179    10605         record.  If not the current record will be written and the pointer
      180    10606         re-initialized.  Then the text will be moved to the buffer.
PL6.E3A0      #001=XUO$DNAME File=XUO$BUILD.:E05TSI                              WED 07/30/97 09:23 Page:23
      181    10607         */
      182    10608    1       NAME_SIZE_TEMP=SIZEW(P_NAME);

  10608  1 000062   200003 470500                    LDP0    @P_NAME,,AUTO
         1 000063   000000 220100                    LDX0    0,,PR0
         1 000064   000002 621010                    EAX1    2,X0
         1 000065   000000 636011                    EAQ     0,X1
         1 000066   000022 772000                    QRL     18
         1 000067   000011 402007                    MPY     9,DL
         1 000070   000043 036007                    ADLQ    35,DL
         1 000071   000044 506007                    DIV     36,DL
         1 000072   200005 756100                    STQ     NAME_SIZE_TEMP,,AUTO

      183    10609    1       IF PINCRW(B_RNAME_CUR$,NAME_SIZE_TEMP)>=B_RNAME_END$ THEN

  10609  1 000073   000022 736000                    QLS     18
         1 000074   000000 036000 xsym               ADLQ    B_RNAME_CUR$
         1 000075   000000 116000 xsym               CMPQ    B_RNAME_END$
         1 000076   000113 602000 1                  TNC     s:10623

      184    10610    2       DO;

      185    10611         /*
      186    10612         Always write a full page of data
      187    10613         */
      188    10614    2           B_RNAME_CUR$=B_RNAME_END$;

  10614  1 000077   000000 236000 xsym               LDQ     B_RNAME_END$
         1 000100   000000 756000 xsym               STQ     B_RNAME_CUR$

      189    10615    2           CALL XUO$OUWRITE(%TYPRNAM);

  10615  1 000101   000001 630400 2                  EPPR0   1
         1 000102   000017 631400 xsym               EPPR1   B_VECTNIL+15
         1 000103   000000 701000 xent               TSX1    XUO$OUWRITE
         1 000104   000000 011000                    NOP     0

PL6.E3A0      #001=XUO$DNAME File=XUO$BUILD.:E05TSI                              WED 07/30/97 09:23 Page:24
      190    10616    2           B_RNAME_PAGE=B_RNAME_PAGE+1;

  10616  1 000105   000000 054000 xsym               AOS     B_RNAME_PAGE

      191    10617    2           B_RNAME_COUNT=B_RNAME_PAGE*B_RNAME_PAGE_SIZE;

  10617  1 000106   000000 236000 xsym               LDQ     B_RNAME_PAGE
         1 000107   000000 402000 xsym               MPY     B_RNAME_PAGE_SIZE
         1 000110   000000 756000 xsym               STQ     B_RNAME_COUNT

      192    10618    2           B_RNAME_CUR$=B_RNAME_BASE$;

  10618  1 000111   000000 236000 xsym               LDQ     B_RNAME_BASE$
         1 000112   000000 756000 xsym               STQ     B_RNAME_CUR$

      193    10619    2           END;

      194    10620         /*
      195    10621         The following section will add the text to the record
      196    10622         */
      197    10623    1       P_NAME_POINTER=B_RNAME_COUNT;

  10623  1 000113   000000 235000 xsym               LDA     B_RNAME_COUNT
         1 000114   200004 470500                    LDP0    @P_NAME_POINTER,,AUTO
         1 000115   000000 755100                    STA     0,,PR0

      198    10624    1       B$RNAME.COUNT=P_NAME.SIZE;

  10624  1 000116   200003 471500                    LDP1    @P_NAME,,AUTO
         1 000117   100000 220100                    LDX0    0,,PR1
         1 000120   000000 473400 xsym               LDP3    B_RNAME_CUR$
         1 000121   300000 740100                    STX0    0,,PR3

      199    10625    1       B$RNAME.TEXT=P_NAME.TEXT;

  10625  1 000122   000000 473400 xsym               LDP3    B_RNAME_CUR$
         1 000123   300000 220100                    LDX0    0,,PR3
PL6.E3A0      #001=XUO$DNAME File=XUO$BUILD.:E05TSI                              WED 07/30/97 09:23 Page:25
         1 000124   100000 221100                    LDX1    0,,PR1
         1 000125   040140 100540                    MLR     fill='040'O
         1 000126   100000 400011                    ADSC9   0,,PR1                   cn=2,n=*X1
         1 000127   300000 400010                    ADSC9   0,,PR3                   cn=2,n=*X0

      200    10626    1       B_RNAME_COUNT=B_RNAME_COUNT+NAME_SIZE_TEMP;

  10626  1 000130   000000 236000 xsym               LDQ     B_RNAME_COUNT
         1 000131   200005 036100                    ADLQ    NAME_SIZE_TEMP,,AUTO
         1 000132   000000 756000 xsym               STQ     B_RNAME_COUNT

      201    10627    1       B_RNAME_CUR$=PINCRW(B_RNAME_CUR$,NAME_SIZE_TEMP);

  10627  1 000133   200005 236100                    LDQ     NAME_SIZE_TEMP,,AUTO
         1 000134   000022 736000                    QLS     18
         1 000135   000000 036000 xsym               ADLQ    B_RNAME_CUR$
         1 000136   000000 756000 xsym               STQ     B_RNAME_CUR$

      202    10628    1       RETURN;

  10628  1 000137   000000 702200 xent               TSX2  ! X66_ARET

      203    10629            %PAGE (ARG=REF CODE);

             10642    1   /*******************************************************************************
             10643    1   *                                                                              *
             10644    1   *        REF CODE              REF CODE                                           *
             10645    1   *                                                                              *
             10646    1   *******************************************************************************/

      204    10650        /*D*
      205    10651
      206    10652        XUO$DBGNAME --Procedure Names Debug Record (Record Type 15)
      207    10653
      208    10654        NAME:  XUO$DBGNAME
      209    10655
      210    10656        PURPOSE:  To build an entry in the Procedure Names Debug
PL6.E3A0      #001=XUO$DNAME File=XUO$BUILD.:E05TSI                              WED 07/30/97 09:23 Page:26
      211    10657            Record (Record Type 15).
      212    10658
      213    10659        DESCRIPTION:  This routine builds entries in the Procedure
      214    10660             Names Debug Record.  This record contains all debug
      215    10661             names; that is, all procedure names, entry names,
      216    10662             statement labels, and variable names.
      217    10663
      218    10664        CALL:  CALL XUO$DBGNAME (Name,
      219    10665                          Name Pointer)
      220    10666
      221    10667        INPUT:
      222    10668            Name
      223    10669                .Size           UBIN HALF UNALIGNED
      224    10670                                The number of characters in the name.
      225    10671                .Text           CHAR(Size)
      226    10672                                The character string that is the
      227    10673                                name.
      228    10674
      229    10675        OUTPUT:
      230    10676            Name Pointer       UBIN ALIGNED
      231    10677                               The word offset to the entry in the
      232    10678                               Procedure Names Debug record
      233    10679                               locating the added text.
      234    10680
      235    10681        B$OBJECT REFERENCE:  B$DNAME
      236    10682        */
      237    10683        /*B*
      238    10684        GLOBAL DATA:
      239    10685            B_DBGNAME_CUR$
      240    10686            B_DBGNAME_COUNT
      241    10687            B_DBGNAME_PAGE
      242    10688
      243    10689        INTERFACE:
      244    10690            XUO$OUWRITE
      245    10691
      246    10692        */
      247    10693
PL6.E3A0      #001=XUO$DNAME File=XUO$BUILD.:E05TSI                              WED 07/30/97 09:23 Page:27
      248    10694    1   XUO$DBGNAME: ENTRY (P_NAME,P_NAME_POINTER);

  10694  1 000140   000000 700200 xent  XUO$DBGNAME  TSX0  ! X66_AUTO_2
         1 000141   000006 000002                    ZERO    6,2

      249    10695         /*
      250    10696         The following will check to see if the passed name will fit in the current
      251    10697         record.  If not the current record will be written and the pointer
      252    10698         re-initialized.  Then the text will be moved to the buffer.
      253    10699         */
      254    10700    1       NAME_SIZE_TEMP=SIZEW(P_NAME);

  10700  1 000142   200003 470500                    LDP0    @P_NAME,,AUTO
         1 000143   000000 220100                    LDX0    0,,PR0
         1 000144   000002 621010                    EAX1    2,X0
         1 000145   000000 636011                    EAQ     0,X1
         1 000146   000022 772000                    QRL     18
         1 000147   000011 402007                    MPY     9,DL
         1 000150   000043 036007                    ADLQ    35,DL
         1 000151   000044 506007                    DIV     36,DL
         1 000152   200005 756100                    STQ     NAME_SIZE_TEMP,,AUTO

      255    10701    1       IF PINCRW(B_DBGNAME_CUR$,NAME_SIZE_TEMP)>=B_DBGNAME_END$ THEN

  10701  1 000153   000022 736000                    QLS     18
         1 000154   000000 036000 xsym               ADLQ    B_DBGNAME_CUR$
         1 000155   000000 116000 xsym               CMPQ    B_DBGNAME_END$
         1 000156   000173 602000 1                  TNC     s:10715

      256    10702    2       DO;

      257    10703         /*
      258    10704         Always write a full page of data
      259    10705         */
      260    10706    2           B_DBGNAME_CUR$=B_DBGNAME_END$;

  10706  1 000157   000000 236000 xsym               LDQ     B_DBGNAME_END$
PL6.E3A0      #001=XUO$DNAME File=XUO$BUILD.:E05TSI                              WED 07/30/97 09:23 Page:28
         1 000160   000000 756000 xsym               STQ     B_DBGNAME_CUR$

      261    10707    2           CALL XUO$OUWRITE(%TYPDBGNAM);

  10707  1 000161   000003 630400 2                  EPPR0   3
         1 000162   000017 631400 xsym               EPPR1   B_VECTNIL+15
         1 000163   000000 701000 xent               TSX1    XUO$OUWRITE
         1 000164   000000 011000                    NOP     0

      262    10708    2           B_DBGNAME_PAGE=B_DBGNAME_PAGE+1;

  10708  1 000165   000000 054000 xsym               AOS     B_DBGNAME_PAGE

      263    10709    2           B_DBGNAME_COUNT=B_DBGNAME_PAGE*B_DBGNAME_PAGE_SIZE;

  10709  1 000166   000000 236000 xsym               LDQ     B_DBGNAME_PAGE
         1 000167   000000 402000 xsym               MPY     B_DBGNAME_PAGE_SIZE
         1 000170   000000 756000 xsym               STQ     B_DBGNAME_COUNT

      264    10710    2           B_DBGNAME_CUR$=B_DBGNAME_BASE$;

  10710  1 000171   000000 236000 xsym               LDQ     B_DBGNAME_BASE$
         1 000172   000000 756000 xsym               STQ     B_DBGNAME_CUR$

      265    10711    2           END;

      266    10712         /*
      267    10713         The following section will add the text to the record
      268    10714         */
      269    10715    1       P_NAME_POINTER=B_DBGNAME_COUNT;

  10715  1 000173   000000 235000 xsym               LDA     B_DBGNAME_COUNT
         1 000174   200004 470500                    LDP0    @P_NAME_POINTER,,AUTO
         1 000175   000000 755100                    STA     0,,PR0

      270    10716    1       B$DBGNAME.COUNT=P_NAME.SIZE;

PL6.E3A0      #001=XUO$DNAME File=XUO$BUILD.:E05TSI                              WED 07/30/97 09:23 Page:29
  10716  1 000176   200003 471500                    LDP1    @P_NAME,,AUTO
         1 000177   100000 220100                    LDX0    0,,PR1
         1 000200   000000 473400 xsym               LDP3    B_DBGNAME_CUR$
         1 000201   300000 740100                    STX0    0,,PR3

      271    10717    1       B$DBGNAME.TEXT=P_NAME.TEXT;

  10717  1 000202   000000 473400 xsym               LDP3    B_DBGNAME_CUR$
         1 000203   300000 220100                    LDX0    0,,PR3
         1 000204   100000 221100                    LDX1    0,,PR1
         1 000205   040140 100540                    MLR     fill='040'O
         1 000206   100000 400011                    ADSC9   0,,PR1                   cn=2,n=*X1
         1 000207   300000 400010                    ADSC9   0,,PR3                   cn=2,n=*X0

      272    10718    1       B_DBGNAME_COUNT=B_DBGNAME_COUNT+NAME_SIZE_TEMP;

  10718  1 000210   000000 236000 xsym               LDQ     B_DBGNAME_COUNT
         1 000211   200005 036100                    ADLQ    NAME_SIZE_TEMP,,AUTO
         1 000212   000000 756000 xsym               STQ     B_DBGNAME_COUNT

      273    10719    1       B_DBGNAME_CUR$=PINCRW(B_DBGNAME_CUR$,NAME_SIZE_TEMP);

  10719  1 000213   200005 236100                    LDQ     NAME_SIZE_TEMP,,AUTO
         1 000214   000022 736000                    QLS     18
         1 000215   000000 036000 xsym               ADLQ    B_DBGNAME_CUR$
         1 000216   000000 756000 xsym               STQ     B_DBGNAME_CUR$

      274    10720    1       RETURN;

  10720  1 000217   000000 702200 xent               TSX2  ! X66_ARET
      275    10721    1   END XUO$DNAME;
      276    10722        %EOD;

PL6.E3A0      #001=XUO$DNAME File=XUO$BUILD.:E05TSI                              WED 07/30/97 09:23 Page:30
--  Include file information  --

   XUO$OBJ_C.:E05TOU  is referenced.
   B$OBJECT_C.:E05TOU  is referenced.
   CP_6_SUBS.:E05TOU  is referenced.
   CP_6_C.:E05TOU  is referenced.
   CP_6.:E05TOU  cannot be made into a system file and is referenced.
   ZVA_FLAGS.:TOOLE04  is referenced.
   ZVA_SYSTEM_FILE.:TOOLE04  is referenced.
      No diagnostics issued in procedure XUO$DNAME.
PL6.E3A0      #001=XUO$DNAME File=XUO$BUILD.:E05TSI                              WED 07/30/97 09:23 Page:31

 **** Variables and constants ****

  ****  Auto variables  ****

  ****  Scalars and arrays  ****
OctLoc.c.b A Datatyp(siz) R M Lvl/name                 OctLoc.c.b A Datatyp(siz) R M Lvl/name

     3-0-0/w PTR         r     1 @P_NAME                    4-0-0/w PTR         r     1 @P_NAME_POINTER
     5-0-0/w UBIN        r     1 NAME_SIZE_TEMP            *0-0-0/w ASTR(18)    r     1 P_NAME
    *0-0-0/w UBIN        r     1 P_NAME_POINTER

  ****  SYMREF variables  ****

  ****  Scalars and arrays  ****
OctLoc.c.b A Datatyp(siz) R M Lvl/name                 OctLoc.c.b A Datatyp(siz) R M Lvl/name

     0-0-0/w PTR         r     1 B_DBGNAME_BASE$            0-0-0/w SBIN        r     1 B_DBGNAME_COUNT
     0-0-0/w PTR         r     1 B_DBGNAME_CUR$             0-0-0/w PTR         r     1 B_DBGNAME_END$
     0-0-0/w SBIN        r     1 B_DBGNAME_PAGE             0-0-0/w UBIN        r     1 B_DBGNAME_PAGE_SIZE
     0-0-0/w PTR         r     1 B_DNAME_BASE$              0-0-0/w SBIN        r     1 B_DNAME_COUNT
     0-0-0/w PTR         r     1 B_DNAME_CUR$               0-0-0/w PTR         r     1 B_DNAME_END$
     0-0-0/w SBIN        r     1 B_DNAME_PAGE               0-0-0/w UBIN        r     1 B_DNAME_PAGE_SIZE
     0-0-0/w PTR         r     1 B_RNAME_BASE$              0-0-0/w SBIN        r     1 B_RNAME_COUNT
     0-0-0/w PTR         r     1 B_RNAME_CUR$               0-0-0/w PTR         r     1 B_RNAME_END$
     0-0-0/w SBIN        r     1 B_RNAME_PAGE               0-0-0/w UBIN        r     1 B_RNAME_PAGE_SIZE

  ****  BASED and DCB variables  ****

  ****  Scalars and arrays  ****
OctLoc.c.b A Datatyp(siz) R M Lvl/name                 OctLoc.c.b A Datatyp(siz) R M Lvl/name

     0-0-0/w ASTR(18)    r     1 B$DBGNAME                  0-0-0/w ASTR(18)    r     1 B$DNAME
     0-0-0/w ASTR(18)    r     1 B$RNAME


   Procedure XUO$DNAME requires 144 words for executable code.
PL6.E3A0      #001=XUO$DNAME File=XUO$BUILD.:E05TSI                              WED 07/30/97 09:23 Page:32
   Procedure XUO$DNAME requires 6 words of local(AUTO) storage.
PL6.E3A0      #001=XUO$DNAME File=XUO$BUILD.:E05TSI                              WED 07/30/97 09:23 Page:33
          *** CROSS REFERENCE LISTING ***
**     DENOTES     IDENTIFIER DEFINITION
<<                 IDENTIFIER'S VALUE SET
>>                 IDENTIFIER'S VALUE USED
<>                 IDENTIFIER SET AND/OR USED
--                 IDENTIFIER REFERENCED
PL6.E3A0      #001=XUO$DNAME File=XUO$BUILD.:E05TSI                              WED 07/30/97 09:23 Page:34
          MINI XREF LISTING

B$DBGNAME.COUNT
     10413**DCL     10420--IMP-SIZ 10716<<ASSIGN  10717>>ASSIGN
B$DBGNAME.TEXT
     10420**DCL     10717<<ASSIGN
B$DNAME.COUNT
     10291**DCL     10298--IMP-SIZ 10530<<ASSIGN  10531>>ASSIGN
B$DNAME.TEXT
     10298**DCL     10531<<ASSIGN
B$RNAME.COUNT
     10352**DCL     10359--IMP-SIZ 10624<<ASSIGN  10625>>ASSIGN
B$RNAME.TEXT
     10359**DCL     10625<<ASSIGN
B_DBGNAME_BASE$
     10435**DCL     10710>>ASSIGN
B_DBGNAME_COUNT
     10438**DCL     10709<<ASSIGN  10715>>ASSIGN  10718<<ASSIGN  10718>>ASSIGN
B_DBGNAME_CUR$
     10436**DCL     10412--IMP-PTR 10701>>IF      10706<<ASSIGN  10710<<ASSIGN  10716>>ASSIGN  10717>>ASSIGN
     10717>>ASSIGN  10719<<ASSIGN  10719>>ASSIGN
B_DBGNAME_END$
     10437**DCL     10701>>IF      10706>>ASSIGN
B_DBGNAME_PAGE
     10439**DCL     10708<<ASSIGN  10708>>ASSIGN  10709>>ASSIGN
B_DBGNAME_PAGE_SIZE
     10441**DCL     10709>>ASSIGN
B_DNAME_BASE$
     10313**DCL     10524>>ASSIGN
B_DNAME_COUNT
     10316**DCL     10523<<ASSIGN  10529>>ASSIGN  10532<<ASSIGN  10532>>ASSIGN
B_DNAME_CUR$
     10314**DCL     10290--IMP-PTR 10515>>IF      10520<<ASSIGN  10524<<ASSIGN  10530>>ASSIGN  10531>>ASSIGN
     10531>>ASSIGN  10533<<ASSIGN  10533>>ASSIGN
PL6.E3A0      #001=XUO$DNAME File=XUO$BUILD.:E05TSI                              WED 07/30/97 09:23 Page:35
B_DNAME_END$
     10315**DCL     10515>>IF      10520>>ASSIGN
B_DNAME_PAGE
     10317**DCL     10522<<ASSIGN  10522>>ASSIGN  10523>>ASSIGN
B_DNAME_PAGE_SIZE
     10319**DCL     10523>>ASSIGN
B_RNAME_BASE$
     10374**DCL     10618>>ASSIGN
B_RNAME_COUNT
     10377**DCL     10617<<ASSIGN  10623>>ASSIGN  10626<<ASSIGN  10626>>ASSIGN
B_RNAME_CUR$
     10375**DCL     10351--IMP-PTR 10609>>IF      10614<<ASSIGN  10618<<ASSIGN  10624>>ASSIGN  10625>>ASSIGN
     10625>>ASSIGN  10627<<ASSIGN  10627>>ASSIGN
B_RNAME_END$
     10376**DCL     10609>>IF      10614>>ASSIGN
B_RNAME_PAGE
     10378**DCL     10616<<ASSIGN  10616>>ASSIGN  10617>>ASSIGN
B_RNAME_PAGE_SIZE
     10380**DCL     10617>>ASSIGN
NAME_SIZE_TEMP
     10487**DCL     10514<<ASSIGN  10515>>IF      10532>>ASSIGN  10533>>ASSIGN  10608<<ASSIGN  10609>>IF
     10626>>ASSIGN  10627>>ASSIGN  10700<<ASSIGN  10701>>IF      10718>>ASSIGN  10719>>ASSIGN
P_NAME
     10253**DCL        67--PROC    10514--ASSIGN  10602--ENTRY   10608--ASSIGN  10694--ENTRY   10700--ASSIGN
P_NAME.SIZE
     10254**DCL     10255--IMP-SIZ 10514>>ASSIGN  10530>>ASSIGN  10531>>ASSIGN  10608>>ASSIGN  10624>>ASSIGN
     10625>>ASSIGN  10700>>ASSIGN  10716>>ASSIGN  10717>>ASSIGN
P_NAME.TEXT
     10255**DCL     10531>>ASSIGN  10625>>ASSIGN  10717>>ASSIGN
P_NAME_POINTER
     10258**DCL        67--PROC    10529<<ASSIGN  10602--ENTRY   10623<<ASSIGN  10694--ENTRY   10715<<ASSIGN
XUO$OUWRITE
     10465**DCL-ENT 10521--CALL    10615--CALL    10707--CALL

PL6.E3A0      #002=XUO$SECTBUILD File=XUO$BUILD.:E05TSI                          WED 07/30/97 09:24 Page:36
      277        1        /*M*     XUO$SECTBUILD -- THIS MODULE WILL ADD ENTRY TO SECTION TABLE */
      278        2        /*T***********************************************************/
      279        3        /*T*                                                         */
      280        4        /*T* Copyright (c) Bull HN Information Systems Inc., 1997    */
      281        5        /*T*                                                         */
      282        6        /*T***********************************************************/
      283        7        /*P*     NAME:     XUO$SECTBUILD
      284        8                 PURPOSE:  THIS MODULE WILL BUILD ENTRIES IN THE SECTION
      285        9                      RECORD.
      286       10                 DESCRIPTION:   THIS MODUE HAS THREE ENTRY POINTS THAT ARE CALLED WHICH ARE:
      287       11                      1.   XUO$SECTBUILD
      288       12                      2.   XUO$SECTSIZE
      289       13                      3.   XUO$SECTNAME
      290       14        */
      291       15        /*P*
      292       16
      293       17        NAME:  XUO$SECTBUILD
      294       18               XUO$SECTBUILD --Section Record (Record Type 3)
      295       19
      296       20        PURPOSE:  To build an entry in the Section Record.
      297       21
      298       22        DESCRIPTION:  This routine builds a new entry in the
      299       23            Section Record and returns the number of the section.
      300       24            This routine will altreturn if a new section cannot be
      301       25            allocated.  There is one record per object unit
      302       26            which defines the size and type of sections.  The
      303       27            section record contains one entry per section within
      304       28            the object unit.
      305       29
      306       30        */
      307       31        /*D*
      308       32
      309       33        CALL:  CALL XUO$SECTBUILD (Section Type,
      310       34                            Name Pointer,
      311       35                            Section Number,
      312       36                            Init,
      313       37                            Bound,
PL6.E3A0      #002=XUO$SECTBUILD File=XUO$BUILD.:E05TSI                          WED 07/30/97 09:24 Page:37
      314       38                            Segment Name Pointer)
      315       39
      316       40        INPUT:
      317       41            Section Type        UBIN ALIGNED
      318       42                                The code specifying the type of
      319       43                                section.
      320       44                                  0 - Data control section with
      321       45                                      write access
      322       46                                  1 - Procedure control section
      323       47                                  2 - Unlabeled common section
      324       48                                      The name pointer must be zero.
      325       49                                  3 - Labeled common section with
      326       50                                      mandatory name pointer.  This
      327       51                                      is for labeled common which
      328       52                                      must be in the root.
      329       53                                  4 - Labeled common section with
      330       54                                      mandatory name pointer.  This
      331       55                                      is for labeled common which
      332       56                                      need not be in the root.
      333       57                                  5 - DCB, word 1 is name pointer.
      334       58                                  6 - Data control section with read
      335       59                                      only access.  Word 1 = 0 or
      336       60                                      name pointer.
      337       61            Name Pointer        SBIN ALIGNED
      338       62                                Word offset into the Externally
      339       63                                Defined Names record (Type 1)
      340       64                                locating the name of this
      341       65                                control section.  If the field is
      342       66                                negative, the section has no name.
      343       67            Init                BIT(3) UNALIGNED where
      344       68                .Zero           BIT(1) UNALIGNED
      345       69                                Initialize with zero.
      346       70                .UTS            BIT(1) UNALIGNED
      347       71                                Initialize with UTS.
      348       72                .Segment        BIT(1) UNALIGNED
      349       73                                Indicates that this section is
      350       74                                to be placed in the segment specified
PL6.E3A0      #002=XUO$SECTBUILD File=XUO$BUILD.:E05TSI                          WED 07/30/97 09:24 Page:38
      351       75                                by Segment Name Pointer.
      352       76            Bound               UBIN ALIGNED
      353       77                                Represents the bound field of the
      354       78                                section.  This is optional and if
      355       79                                not specified will default to even
      356       80                                boundary.
      357       81                                  00 - starts on even word
      358       82                                  01 - starts on odd word
      359       83                                  10 - starts on multiple of 8
      360       84                                  11 - starts on page boundary
      361       85            Segment Name Pointer SBIN
      362       86                                Word offset into the Externally
      363       87                                Defined Names record (type 1).  The
      364       88                                name defined must match one of the
      365       89                                legal names recognized by the linker.
      366       90                                If Segment Name Pointer is not
      367       91                                specified, the linker will allocate
      368       92                                the control section in the 'default
      369       93                                data segment'.
      370       94        OUTPUT:
      371       95            Section Number      UBIN ALIGNED
      372       96                                The number of the newly created
      373       97                                section entry in the Section Record
      374       98
      375       99        B$OBJECT REFERENCE:  B$SECTION
      376      100        */
      377      101        /*B*
      378      102        GLOBAL DATA:
      379      103             B_SECTION_COUNT
      380      104             B_SECTION_CUR$
      381      105
      382      106        INTERFACE:  none
      383      107
      384      108        */
      385      109
      386      110        XUO$SECTBUILD: PROC(P_PARAM1,P_PARAM2,P_PARAM3,P_INIT_UTS_SEGMENT_ZERO,P_BOUND,
               110            P_SEG_NPOINTER) ALTRET;
PL6.E3A0      #002=XUO$SECTBUILD File=XUO$BUILD.:E05TSI                          WED 07/30/97 09:24 Page:39
      387      111         /*
      388      112            */
      389      113        %INCLUDE ZVA_SYSTEM_FILE;
      390     6364        %PAGE (ARG=INCLUDES);

              6377    1   /*******************************************************************************
              6378    1   *                                                                              *
              6379    1   *        INCLUDES              INCLUDES                                            *
              6380    1   *                                                                              *
              6381    1   *******************************************************************************/

      391     6385        %INCLUDE B$OBJECT_C;
      392     9815        %INCLUDE XUO$OBJ_C;
      393    10225        %INCLUDE XU_PERR_C;
      394    10416        %PAGE(ARG=SUBS);

             10429    1   /*******************************************************************************
             10430    1   *                                                                              *
             10431    1   *        SUBS              SUBS                                                  *
             10432    1   *                                                                              *
             10433    1   *******************************************************************************/

      395    10437        %B$SECTIONSUBS;
      396    10452        %PAGE (ARG=PARAMETERS);

             10465    1   /*******************************************************************************
             10466    1   *                                                                              *
             10467    1   *        PARAMETERS              PARAMETERS                                        *
             10468    1   *                                                                              *
             10469    1   *******************************************************************************/

      397    10473    1   DCL P_PARAM1 UBIN;
      398    10474         /*
      399    10475         The following defintion is for sectbuild
      400    10476            */
      401    10477    1   DCL P_SECTION_TYPE REDEF P_PARAM1 UBIN;
      402    10478         /*
PL6.E3A0      #002=XUO$SECTBUILD File=XUO$BUILD.:E05TSI                          WED 07/30/97 09:24 Page:40
      403    10479         The following defintion is for sectname/sectsize
      404    10480         */
      405    10481    1   DCL P_SECTION_NUMBER_IN REDEF P_PARAM1 UBIN;
      406    10482         /*
      407    10483            */
      408    10484    1   DCL P_PARAM2 UBIN;
      409    10485         /*
      410    10486         The following defintion is for sectbuild/sectname
      411    10487         */
      412    10488    1   DCL P_NAME_POINTER REDEF P_PARAM2 SBIN;
      413    10489         /*
      414    10490         The following definition is for sectsize
      415    10491            */
      416    10492    1   DCL P_SECTION_SIZE REDEF P_PARAM2 UBIN;
      417    10493         /*
      418    10494            */
      419    10495    1   DCL P_PARAM3 UBIN;
      420    10496         /*
      421    10497         The following defintion is for sectbuild
      422    10498            */
      423    10499    1   DCL P_SECTION_NUMBER_OUT REDEF P_PARAM3 UBIN;
      424    10500         /*
      425    10501         The following definition is for sectbuild
      426    10502         */
      427    10503    1   DCL 1 P_INIT_UTS_SEGMENT_ZERO UNAL PARAM,
      428    10504    1         2 ZERO BIT(1),
      429    10505    1         2 UTS BIT(1),
      430    10506    1         2 SEGMENT BIT(1);
      431    10507         /*
      432    10508         The following definition is for sectbuild
      433    10509         */
      434    10510    1   DCL P_BOUND UBIN;
      435    10511         /*
      436    10512         The following definition is for sectbuild
      437    10513         */
      438    10514    1   DCL P_SEG_NPOINTER SBIN;
      439    10515        %PAGE (ARG=SECTION DATA);
PL6.E3A0      #002=XUO$SECTBUILD File=XUO$BUILD.:E05TSI                          WED 07/30/97 09:24 Page:41

             10528    1   /*******************************************************************************
             10529    1   *                                                                              *
             10530    1   *        SECTION DATA              SECTION DATA                                    *
             10531    1   *                                                                              *
             10532    1   *******************************************************************************/

      440    10536        %B$SECTION (STCLASS="BASED(B_SECTION_CUR$)");
      441    10595        %B_SECTION_POINTERS;
      442    10614        %PLIST;
      443    10615        %PAGE (ARG=LOCAL);

             10628    1   /*******************************************************************************
             10629    1   *                                                                              *
             10630    1   *        LOCAL              LOCAL                                                  *
             10631    1   *                                                                              *
             10632    1   *******************************************************************************/

      444    10636    1   DCL SECTION_TEMP$ PTR;
      445    10637
      446    10638        %IF CP6;
      447    10639        %VLP_ERRCODE (FPTN=SECTION_TOO_BIG,
      448    10640         STCLASS=CONSTANT,
      449    10641         FCG=XU, MID=O, ERR#=%E$XUO#SECT_GE_256K, SEV=4);
      450    10686        %VLP_ERRCODE (FPTN=SECT_RECORD_FULL, STCLASS=CONSTANT,
      451    10687         FCG=XU,MID=O,ERR#=%E$XUO#SECT_RECORD_FULL, SEV=4);
      452    10732        %VLP_ERRCODE (FPTN=GT_512_SECTIONS, STCLASS=CONSTANT,
      453    10733         FCG=XU,MID=O,ERR#=%E$XUO#GT_512_SECTIONS, SEV=4);
      454    10778        %ENDIF;
      455    10779         /*
      456    10780            */
      457    10781        %PAGE (ARG=MISC);

             10794    1   /*******************************************************************************
             10795    1   *                                                                              *
             10796    1   *        MISC              MISC                                                  *
             10797    1   *                                                                              *
PL6.E3A0      #002=XUO$SECTBUILD File=XUO$BUILD.:E05TSI                          WED 07/30/97 09:24 Page:42
             10798    1   *******************************************************************************/

      458    10802    1   DCL XUO_ERROR_ROUTINE EPTR SYMREF;
      459    10803
      460    10804
      461    10805        %PAGE (ARG=SECTION BUILD);

             10818    1   /*******************************************************************************
             10819    1   *                                                                              *
             10820    1   *        SECTION BUILD              SECTION BUILD                                  *
             10821    1   *                                                                              *
             10822    1   *******************************************************************************/

      462    10826         /*
      463    10827         The following section will build a section entry
      464    10828         */
      465    10829    1       IF B_SECTION_CUR$<B_SECTION_END$ THEN
      466    10830    2       DO;
      467    10831    2           B$SECTION.TYPE=P_SECTION_TYPE;
      468    10832    2           IF ADDR(P_INIT_UTS_SEGMENT_ZERO)~=ADDR(NIL) THEN
      469    10833    3           DO;
      470    10834    3               B$SECTION.INITZERO=P_INIT_UTS_SEGMENT_ZERO.ZERO;
      471    10835    3               B$SECTION.INITUTS=P_INIT_UTS_SEGMENT_ZERO.UTS;
      472    10836    3               B$SECTION.SEGMENT=P_INIT_UTS_SEGMENT_ZERO.SEGMENT;
      473    10837    3               END;
      474    10838    2           IF ADDR(P_BOUND)~=ADDR(NIL) THEN
      475    10839    2               B$SECTION.BOUND=P_BOUND;
      476    10840    2           IF ADDR(P_SEG_NPOINTER)~=ADDR(NIL) THEN
      477    10841    2               B$SECTION.SEG_NPOINTER=P_SEG_NPOINTER;
      478    10842    2           B$SECTION.NPOINTER=P_NAME_POINTER;
      479    10843    2           B_SECTION_COUNT=B_SECTION_COUNT+1;
      480    10844    2           P_SECTION_NUMBER_OUT=B_SECTION_COUNT;
      481    10845    2           B_SECTION_CUR$=PINCRW(B_SECTION_CUR$,SIZEW(B$SECTION));
      482    10846    2           RETURN;
      483    10847    2           END;
      484    10848    2       ELSE DO;
      485    10849         /*
PL6.E3A0      #002=XUO$SECTBUILD File=XUO$BUILD.:E05TSI                          WED 07/30/97 09:24 Page:43
      486    10850         We cannot allocate any more sections--therefore give an altreturn.
      487    10851         */
      488    10852        %IF CP6;
      489    10853    2           IF XUO_ERROR_ROUTINE ~= ENTADDR(NIL)
      490    10854    2           THEN
      491    10855    2               IF B_SECTION_COUNT = 512
      492    10856    2               THEN
      493    10857    2                   CALL XUO_ERROR_ROUTINE (GT_512_SECTIONS);
      494    10858    2               ELSE
      495    10859    2                   CALL XUO_ERROR_ROUTINE (SECT_RECORD_FULL);
      496    10860
      497    10861        /*E*  ERROR:   XUO-E$XUO#GT_512_SECTIONS
      498    10862              MESSAGE:A fatal error has occurred while building an object unit.  An
      499    10863                      attempt has been made to create an object unit with more than 512
      500    10864                      control sections.  This exceeds the design capacity of CP-6
      501    10865                      object unit files.
      502    10866        */
      503    10867
      504    10868        /*E*  ERROR:   XUO-E$XUO#SECT_RECORD_FULL
      505    10869              MESSAGE:A fatal error has occurred while building an object unit.  The
      506    10870                      control-section record has overflowed, due to an attempt to
      507    10871                      build more control sections than were specified when the
      508    10872                      XUO$BUFINIT routine was called (or, if XUO$BUFINIT was not called,
      509    10873                      the default limit of 10 control sections).
      510    10874        */
      511    10875
      512    10876        %ENDIF;
      513    10877    2           ALTRETURN;
      514    10878    2           END;
      515    10879
      516    10880        %PAGE (ARG=Section build);

             10893    2   /*******************************************************************************
             10894    2   *                                                                              *
             10895    2   *        Section build              Section build                                  *
             10896    2   *                                                                              *
             10897    2   *******************************************************************************/
PL6.E3A0      #002=XUO$SECTBUILD File=XUO$BUILD.:E05TSI                          WED 07/30/97 09:24 Page:44

      517    10901        /*D*  NAME:    XUO$SECTNAME
      518    10902
      519    10903                                 PURPOSE:  This routine enters the section name pointer
      520    10904                                 into a previously created section record entry.
      521    10905
      522    10906                            DESCRIPTION:  This routine enters the section name pointer
      523    10907                            into the previously created section record entry.  If
      524    10908                            an invalid section number is passed in, this routine
      525    10909                            will altreturn.
      526    10910
      527    10911                            CALL:  Call XUO$SECTNAME (section number,
      528    10912                            name pointer)
      529    10913                            altreturn (label)
      530    10914
      531    10915                            INPUT:
      532    10916                            Section number      ubin aligned
      533    10917                            the number of the section record entry
      534    10918                            that is to be modified.
      535    10919                            Name pointer        sbin aligned
      536    10920                            word displacement into the externally
      537    10921                            defined names record (type 1) locating
      538    10922                            the name of this section.  If the field
      539    10923                            is negative, the section has no name.
      540    10924
      541    10925                            OUTPUT:
      542    10926                            updated entry in the section record
      543    10927
      544    10928                            global DATA:  none
      545    10929
      546    10930                            B$OBJECT REFERENCE:  B$SECTION
      547    10931                            */
      548    10932        /*B*
      549    10933        INTERFACE:
      550    10934             XUO$ERROR_ROUTINE
      551    10935
      552    10936        */
PL6.E3A0      #002=XUO$SECTBUILD File=XUO$BUILD.:E05TSI                          WED 07/30/97 09:24 Page:45
      553    10937
      554    10938    1   XUO$SECTNAME: ENTRY(P_PARAM1,P_PARAM2) ALTRET;
      555    10939         /*
      556    10940         This section will add the name pointer to the appropriate section
      557    10941         */
      558    10942    1       SECTION_TEMP$=PINCRW(B_SECTION_BASE$,P_SECTION_NUMBER_IN*SIZEW(B$SECTION));
      559    10943    1       IF SECTION_TEMP$<B_SECTION_CUR$ THEN
      560    10944    2       DO;
      561    10945    2           SECTION_TEMP$->B$SECTION.NPOINTER=P_NAME_POINTER;
      562    10946    2           RETURN;
      563    10947    2           END;
      564    10948    1       ELSE
      565    10949         /*
      566    10950         Give altreturn on invalid section number
      567    10951            */
      568    10952    1           ALTRETURN;
      569    10953        %PAGE (arg= section size add );

             10966    1   /*******************************************************************************
             10967    1   *                                                                              *
             10968    1   *        section size add              section size add                            *
             10969    1   *                                                                              *
             10970    1   *******************************************************************************/

      570    10974        /*D*
      571    10975
      572    10976        XUO$SECTSIZE --section record (record type 3)
      573    10977
      574    10978        NAME:  XUO$SECTSIZE
      575    10979
      576    10980        PURPOSE:  To enter the section size into a previously created
      577    10981                  entry in the section record.
      578    10982
      579    10983        DESCRIPTION:  This routine is used to enter the size of a
      580    10984                      section into a previously created entry in the section
      581    10985                      record.  This routine will altreturn if an invalid
      582    10986                      section number is passed.
PL6.E3A0      #002=XUO$SECTBUILD File=XUO$BUILD.:E05TSI                          WED 07/30/97 09:24 Page:46
      583    10987
      584    10988        CALL:  Call XUO$SECTSIZE (section number,
      585    10989                                  section size)
      586    10990                   altreturn (label)
      587    10991
      588    10992        INPUT:
      589    10993              Section number      ubin aligned
      590    10994                       the number of the section record entry
      591    10995                       that is to be modified.
      592    10996              Section size        ubin aligned
      593    10997                       the size in words of the section.
      594    10998
      595    10999        OUTPUT:
      596    11000              updated section record entry
      597    11001
      598    11002        B$OBJECT REFERENCE:  B$SECTION
      599    11003        */
      600    11004        /*B*
      601    11005        GLOBAL DATA:  none
      602    11006
      603    11007        INTERFACE:  none
      604    11008
      605    11009
      606    11010        */
      607    11011    1   XUO$SECTSIZE: ENTRY(P_PARAM1,P_PARAM2) ALTRET;
      608    11012         /*
      609    11013         This section will add the passed size to the appropriate section
      610    11014         */
      611    11015    1       SECTION_TEMP$=PINCRW(B_SECTION_BASE$,P_SECTION_NUMBER_IN*SIZEW(B$SECTION));
      612    11016    1       IF SECTION_TEMP$<B_SECTION_CUR$ THEN
      613    11017    2       DO;
      614    11018    2           IF P_SECTION_SIZE > 262143 /* 256k - 1 */
      615    11019    2           THEN
      616    11020         %IF CP6;
      617    11021    2               IF XUO_ERROR_ROUTINE = ENTADDR(NIL)
      618    11022    2               THEN
      619    11023    2                   ALTRETURN;
PL6.E3A0      #002=XUO$SECTBUILD File=XUO$BUILD.:E05TSI                          WED 07/30/97 09:24 Page:47
      620    11024    2               ELSE
      621    11025    2                   CALL XUO_ERROR_ROUTINE (SECTION_TOO_BIG);
      622    11026        %ELSE;
      623    11027 C              ALTRETURN;
      624    11028        %ENDIF;
      625    11029        /*E*  ERROR:   XUO-E$XUO#SECT_GE_256K
      626    11030              MESSAGE: You tried to build a control section of more than 262143 words.
      627    11031        */
      628    11032    2           SECTION_TEMP$->B$SECTION.SIZE=P_SECTION_SIZE;
      629    11033    2           RETURN;
      630    11034    2           END;
      631    11035    1       ELSE
      632    11036         /*
      633    11037         Give altreturn on invalid section number
      634    11038            */
      635    11039    1           ALTRETURN;
      636    11040         /*
      637    11041            */
      638    11042    1   END XUO$SECTBUILD;
      639    11043        %EOD;

PL6.E3A0      #002=XUO$SECTBUILD File=XUO$BUILD.:E05TSI                          WED 07/30/97 09:24 Page:48
--  Include file information  --

   XU_PERR_C.:E05TOU  is referenced.
   XUO$OBJ_C.:E05TOU  is referenced.
   B$OBJECT_C.:E05TOU  is referenced.
   CP_6_SUBS.:E05TOU  is referenced.
   CP_6_C.:E05TOU  is referenced.
   CP_6.:E05TOU  cannot be made into a system file and is referenced.
   ZVA_FLAGS.:TOOLE04  is referenced.
   ZVA_SYSTEM_FILE.:TOOLE04  is referenced.
      No diagnostics issued in procedure XUO$SECTBUILD.

   Procedure XUO$SECTBUILD requires 118 words for executable code.
   Procedure XUO$SECTBUILD requires 10 words of local(AUTO) storage.

PL6.E3A0      #002=XUO$SECTBUILD File=XUO$BUILD.:E05TSI                          WED 07/30/97 09:24 Page:49

 Object Unit name= XUO$SECTBUILD                              File name= XUO$BUILD.:E05TOU
 UTS= JUL 30 '97 09:24:06.40 WED                              Compiler= PL-6/E31         Sev=      00
 SharedLib= :SHARED_SYSTEM                                    Alt SharedLib=


    ****  Control sections  ****

 Sect   Type Bound  Init  Size OctSiz  Section name(segment info)
    0   DCB   even  none     0      0  M$UC
    1  RoData even  UTS      3      3  XUO$SECTBUILD
    2   Proc  even  none   118    166  XUO$SECTBUILD
    3  RoData even  none     3      3  XUO$SECTBUILD

    ****  Entry defs  ****

                              Check   Calling
                             calling  sequence
  Sect OctLoc Primary Altret sequence   type   Parms  Name
     2      0   yes    yes     yes      Std        6  XUO$SECTBUILD
     2    111          yes     yes      Std        2  XUO$SECTNAME
     2    131          yes     yes      Std        2  XUO$SECTSIZE

  ****  Entry refs  ****

         Check        Calling
        calling       sequence
Altret sequence SRef   type   Args  Name
                       nStd      0 X66_AUTO_N
                       Std       0 B_CONSPOOL_D
                       nStd      0 X66_ARET
                       nStd      0 X66_AALT
PL6.E3A0      #002=XUO$SECTBUILD File=XUO$BUILD.:E05TSI                          WED 07/30/97 09:24 Page:50

  ****  Data refs  ****

  Flags:  r = read only, s = secondary
Flgs Name                             Flgs Name                             Flgs Name
     M$UC                                  B_SECTION_BASE$                       B_SECTION_CUR$
     B_SECTION_END$                        B_SECTION_COUNT                       XUO_ERROR_ROUTINE
     B_VECTNIL

  ****  Segment refs  ****

  Flags:  r = read only, s = secondary
Flgs Name                             Flgs Name                             Flgs Name
     ISSID
PL6.E3A0      #002=XUO$SECTBUILD File=XUO$BUILD.:E05TSI                          WED 07/30/97 09:24 Page:51


      277        1        /*M*     XUO$SECTBUILD -- THIS MODULE WILL ADD ENTRY TO SECTION TABLE */
      278        2        /*T***********************************************************/
      279        3        /*T*                                                         */
      280        4        /*T* Copyright (c) Bull HN Information Systems Inc., 1997    */
      281        5        /*T*                                                         */
      282        6        /*T***********************************************************/
      283        7        /*P*     NAME:     XUO$SECTBUILD
      284        8                 PURPOSE:  THIS MODULE WILL BUILD ENTRIES IN THE SECTION
      285        9                      RECORD.
      286       10                 DESCRIPTION:  THIS MODUE HAS THREE ENTRY POINTS THAT ARE CALLED WHICH ARE:
      287       11                      1.   XUO$SECTBUILD
      288       12                      2.   XUO$SECTSIZE
      289       13                      3.   XUO$SECTNAME
      290       14        */
      291       15        /*P*
      292       16
      293       17        NAME:  XUO$SECTBUILD
      294       18               XUO$SECTBUILD --Section Record (Record Type 3)
      295       19
      296       20        PURPOSE:  To build an entry in the Section Record.
      297       21
      298       22        DESCRIPTION:  This routine builds a new entry in the
      299       23            Section Record and returns the number of the section.
      300       24            This routine will altreturn if a new section cannot be
      301       25            allocated.  There is one record per object unit
      302       26            which defines the size and type of sections.  The
      303       27            section record contains one entry per section within
      304       28            the object unit.
      305       29
      306       30        */
      307       31        /*D*
      308       32
      309       33        CALL:  CALL XUO$SECTBUILD (Section Type,
      310       34                            Name Pointer,
      311       35                            Section Number,
      312       36                            Init,
PL6.E3A0      #002=XUO$SECTBUILD File=XUO$BUILD.:E05TSI                          WED 07/30/97 09:24 Page:52
      313       37                            Bound,
      314       38                            Segment Name Pointer)
      315       39
      316       40        INPUT:
      317       41            Section Type        UBIN ALIGNED
      318       42                                The code specifying the type of
      319       43                                section.
      320       44                                  0 - Data control section with
      321       45                                      write access
      322       46                                  1 - Procedure control section
      323       47                                  2 - Unlabeled common section
      324       48                                      The name pointer must be zero.
      325       49                                  3 - Labeled common section with
      326       50                                      mandatory name pointer.  This
      327       51                                      is for labeled common which
      328       52                                      must be in the root.
      329       53                                  4 - Labeled common section with
      330       54                                      mandatory name pointer.  This
      331       55                                      is for labeled common which
      332       56                                      need not be in the root.
      333       57                                  5 - DCB, word 1 is name pointer.
      334       58                                  6 - Data control section with read
      335       59                                      only access.  Word 1 = 0 or
      336       60                                      name pointer.
      337       61            Name Pointer        SBIN ALIGNED
      338       62                                Word offset into the Externally
      339       63                                Defined Names record (Type 1)
      340       64                                locating the name of this
      341       65                                control section.  If the field is
      342       66                                negative, the section has no name.
      343       67            Init                BIT(3) UNALIGNED where
      344       68                .Zero           BIT(1) UNALIGNED
      345       69                                Initialize with zero.
      346       70                .UTS            BIT(1) UNALIGNED
      347       71                                Initialize with UTS.
      348       72                .Segment        BIT(1) UNALIGNED
      349       73                                Indicates that this section is
PL6.E3A0      #002=XUO$SECTBUILD File=XUO$BUILD.:E05TSI                          WED 07/30/97 09:24 Page:53
      350       74                                to be placed in the segment specified
      351       75                                by Segment Name Pointer.
      352       76            Bound               UBIN ALIGNED
      353       77                                Represents the bound field of the
      354       78                                section.  This is optional and if
      355       79                                not specified will default to even
      356       80                                boundary.
      357       81                                  00 - starts on even word
      358       82                                  01 - starts on odd word
      359       83                                  10 - starts on multiple of 8
      360       84                                  11 - starts on page boundary
      361       85            Segment Name Pointer SBIN
      362       86                                Word offset into the Externally
      363       87                                Defined Names record (type 1).  The
      364       88                                name defined must match one of the
      365       89                                legal names recognized by the linker.
      366       90                                If Segment Name Pointer is not
      367       91                                specified, the linker will allocate
      368       92                                the control section in the 'default
      369       93                                data segment'.
      370       94        OUTPUT:
      371       95            Section Number      UBIN ALIGNED
      372       96                                The number of the newly created
      373       97                                section entry in the Section Record
      374       98
      375       99        B$OBJECT REFERENCE:  B$SECTION
      376      100        */
      377      101        /*B*
      378      102        GLOBAL DATA:
      379      103             B_SECTION_COUNT
      380      104             B_SECTION_CUR$
      381      105
      382      106        INTERFACE:  none
      383      107
      384      108        */
      385      109
      386      110        XUO$SECTBUILD: PROC(P_PARAM1,P_PARAM2,P_PARAM3,P_INIT_UTS_SEGMENT_ZERO,P_BOUND,
PL6.E3A0      #002=XUO$SECTBUILD File=XUO$BUILD.:E05TSI                          WED 07/30/97 09:24 Page:54
               110            P_SEG_NPOINTER) ALTRET;

    110  2 000000   000000 700200 xent  XUO$SECTBUI* TSX0  ! X66_AUTO_N
         2 000001   000012 000006                    ZERO    10,6

      387      111         /*
      388      112            */
      389      113        %INCLUDE ZVA_SYSTEM_FILE;
      390     6364        %PAGE (ARG=INCLUDES);

              6377    1   /*******************************************************************************
              6378    1   *                                                                              *
              6379    1   *        INCLUDES              INCLUDES                                           *
              6380    1   *                                                                              *
              6381    1   *******************************************************************************/

      391     6385        %INCLUDE B$OBJECT_C;
      392     9815        %INCLUDE XUO$OBJ_C;
      393    10225        %INCLUDE XU_PERR_C;
      394    10416        %PAGE(ARG=SUBS);

             10429    1   /*******************************************************************************
             10430    1   *                                                                              *
             10431    1   *        SUBS              SUBS                                                  *
             10432    1   *                                                                              *
             10433    1   *******************************************************************************/

      395    10437        %B$SECTIONSUBS;
      396    10452        %PAGE (ARG=PARAMETERS);

             10465    1   /*******************************************************************************
             10466    1   *                                                                              *
             10467    1   *        PARAMETERS              PARAMETERS                                       *
             10468    1   *                                                                              *
             10469    1   *******************************************************************************/

      397    10473    1   DCL P_PARAM1 UBIN;
PL6.E3A0      #002=XUO$SECTBUILD File=XUO$BUILD.:E05TSI                          WED 07/30/97 09:24 Page:55
      398    10474         /*
      399    10475         The following defintion is for sectbuild
      400    10476            */
      401    10477    1   DCL P_SECTION_TYPE REDEF P_PARAM1 UBIN;
      402    10478         /*
      403    10479         The following defintion is for sectname/sectsize
      404    10480         */
      405    10481    1   DCL P_SECTION_NUMBER_IN REDEF P_PARAM1 UBIN;
      406    10482         /*
      407    10483            */
      408    10484    1   DCL P_PARAM2 UBIN;
      409    10485         /*
      410    10486         The following defintion is for sectbuild/sectname
      411    10487         */
      412    10488    1   DCL P_NAME_POINTER REDEF P_PARAM2 SBIN;
      413    10489         /*
      414    10490         The following definition is for sectsize
      415    10491            */
      416    10492    1   DCL P_SECTION_SIZE REDEF P_PARAM2 UBIN;
      417    10493         /*
      418    10494            */
      419    10495    1   DCL P_PARAM3 UBIN;
      420    10496         /*
      421    10497         The following defintion is for sectbuild
      422    10498            */
      423    10499    1   DCL P_SECTION_NUMBER_OUT REDEF P_PARAM3 UBIN;
      424    10500         /*
      425    10501         The following definition is for sectbuild
      426    10502         */
      427    10503    1   DCL 1 P_INIT_UTS_SEGMENT_ZERO UNAL PARAM,
      428    10504    1         2 ZERO BIT(1),
      429    10505    1         2 UTS BIT(1),
      430    10506    1         2 SEGMENT BIT(1);
      431    10507         /*
      432    10508         The following definition is for sectbuild
      433    10509         */
      434    10510    1   DCL P_BOUND UBIN;
PL6.E3A0      #002=XUO$SECTBUILD File=XUO$BUILD.:E05TSI                          WED 07/30/97 09:24 Page:56
      435    10511         /*
      436    10512         The following definition is for sectbuild
      437    10513         */
      438    10514    1   DCL P_SEG_NPOINTER SBIN;
      439    10515        %PAGE (ARG=SECTION DATA);

             10528    1   /*******************************************************************************
             10529    1   *                                                                              *
             10530    1   *        SECTION DATA              SECTION DATA                                   *
             10531    1   *                                                                              *
             10532    1   *******************************************************************************/

      440    10536        %B$SECTION (STCLASS="BASED(B_SECTION_CUR$)");
      441    10595        %B_SECTION_POINTERS;
      442    10614        %PLIST;
      443    10615        %PAGE (ARG=LOCAL);

             10628    1   /*******************************************************************************
             10629    1   *                                                                              *
             10630    1   *        LOCAL              LOCAL                                                 *
             10631    1   *                                                                              *
             10632    1   *******************************************************************************/

      444    10636    1   DCL SECTION_TEMP$ PTR;
      445    10637
      446    10638        %IF CP6;
      447    10639        %VLP_ERRCODE (FPTN=SECTION_TOO_BIG,
      448    10640         STCLASS=CONSTANT,
      449    10641         FCG=XU, MID=O, ERR#=%E$XUO#SECT_GE_256K, SEV=4);
      450    10686        %VLP_ERRCODE (FPTN=SECT_RECORD_FULL, STCLASS=CONSTANT,
      451    10687         FCG=XU,MID=O,ERR#=%E$XUO#SECT_RECORD_FULL, SEV=4);
      452    10732        %VLP_ERRCODE (FPTN=GT_512_SECTIONS, STCLASS=CONSTANT,
      453    10733         FCG=XU,MID=O,ERR#=%E$XUO#GT_512_SECTIONS, SEV=4);
      454    10778        %ENDIF;
      455    10779         /*
      456    10780            */
      457    10781        %PAGE (ARG=MISC);
PL6.E3A0      #002=XUO$SECTBUILD File=XUO$BUILD.:E05TSI                          WED 07/30/97 09:24 Page:57

             10794    1   /*******************************************************************************
             10795    1   *                                                                              *
             10796    1   *        MISC              MISC                                                  *
             10797    1   *                                                                              *
             10798    1   *******************************************************************************/

      458    10802    1   DCL XUO_ERROR_ROUTINE EPTR SYMREF;
      459    10803
      460    10804
      461    10805        %PAGE (ARG=SECTION BUILD);

             10818    1   /*******************************************************************************
             10819    1   *                                                                              *
             10820    1   *        SECTION BUILD              SECTION BUILD                                 *
             10821    1   *                                                                              *
             10822    1   *******************************************************************************/

      462    10826         /*
      463    10827         The following section will build a section entry
      464    10828         */
      465    10829    1       IF B_SECTION_CUR$<B_SECTION_END$ THEN

  10829  2 000002   000000 236000 xsym               LDQ     B_SECTION_CUR$
         2 000003   000000 116000 xsym               CMPQ    B_SECTION_END$
         2 000004   000067 603000 2                  TRC     s:10853

      466    10830    2       DO;

      467    10831    2           B$SECTION.TYPE=P_SECTION_TYPE;

  10831  2 000005   200003 470500                    LDP0    @P_PARAM1,,AUTO
         2 000006   000000 471400 xsym               LDP1    B_SECTION_CUR$
         2 000007   000000 236100                    LDQ     0,,PR0
         2 000010   000033 736000                    QLS     27
         2 000011   100000 552140                    STBQ    0,'40'O,PR1

PL6.E3A0      #002=XUO$SECTBUILD File=XUO$BUILD.:E05TSI                          WED 07/30/97 09:24 Page:58
      468    10832    2           IF ADDR(P_INIT_UTS_SEGMENT_ZERO)~=ADDR(NIL) THEN

  10832  2 000012   200006 236100                    LDQ     @P_INIT_UTS_SEGMENT_ZERO,,AUTO
         2 000013   000001 116000 xsym               CMPQ    B_VECTNIL+1
         2 000014   000032 600000 2                  TZE     s:10838

      469    10833    3           DO;

      470    10834    3               B$SECTION.INITZERO=P_INIT_UTS_SEGMENT_ZERO.ZERO;

  10834  2 000015   200006 471500                    LDP1    @P_INIT_UTS_SEGMENT_ZERO,,AUTO
         2 000016   000000 473400 xsym               LDP3    B_SECTION_CUR$
         2 000017   003100 060500                    CSL     bolr='003'O
         2 000020   100000 000001                    BDSC    0,,PR1                   by=0,bit=0,n=1
         2 000021   300000 210001                    BDSC    0,,PR3                   by=1,bit=1,n=1

      471    10835    3               B$SECTION.INITUTS=P_INIT_UTS_SEGMENT_ZERO.UTS;

  10835  2 000022   000000 473400 xsym               LDP3    B_SECTION_CUR$
         2 000023   003100 060500                    CSL     bolr='003'O
         2 000024   100000 010001                    BDSC    0,,PR1                   by=0,bit=1,n=1
         2 000025   300000 220001                    BDSC    0,,PR3                   by=1,bit=2,n=1

      472    10836    3               B$SECTION.SEGMENT=P_INIT_UTS_SEGMENT_ZERO.SEGMENT;

  10836  2 000026   000000 473400 xsym               LDP3    B_SECTION_CUR$
         2 000027   003100 060500                    CSL     bolr='003'O
         2 000030   100000 020001                    BDSC    0,,PR1                   by=0,bit=2,n=1
         2 000031   300000 230001                    BDSC    0,,PR3                   by=1,bit=3,n=1

      473    10837    3               END;

      474    10838    2           IF ADDR(P_BOUND)~=ADDR(NIL) THEN

  10838  2 000032   200007 236100                    LDQ     @P_BOUND,,AUTO
         2 000033   000001 116000 xsym               CMPQ    B_VECTNIL+1
         2 000034   000044 600000 2                  TZE     s:10840
PL6.E3A0      #002=XUO$SECTBUILD File=XUO$BUILD.:E05TSI                          WED 07/30/97 09:24 Page:59

      475    10839    2               B$SECTION.BOUND=P_BOUND;

  10839  2 000035   200007 471500                    LDP1    @P_BOUND,,AUTO
         2 000036   000000 473400 xsym               LDP3    B_SECTION_CUR$
         2 000037   100000 236100                    LDQ     0,,PR1
         2 000040   000022 736000                    QLS     18
         2 000041   300000 676100                    ERQ     0,,PR3
         2 000042   000003 376003                    ANQ     3,DU
         2 000043   300000 656100                    ERSQ    0,,PR3

      476    10840    2           IF ADDR(P_SEG_NPOINTER)~=ADDR(NIL) THEN

  10840  2 000044   200010 236100                    LDQ     @P_SEG_NPOINTER,,AUTO
         2 000045   000001 116000 xsym               CMPQ    B_VECTNIL+1
         2 000046   000053 600000 2                  TZE     s:10842

      477    10841    2               B$SECTION.SEG_NPOINTER=P_SEG_NPOINTER;

  10841  2 000047   200010 471500                    LDP1    @P_SEG_NPOINTER,,AUTO
         2 000050   100000 720100                    LXL0    0,,PR1
         2 000051   000000 473400 xsym               LDP3    B_SECTION_CUR$
         2 000052   300001 440100                    SXL0    1,,PR3

      478    10842    2           B$SECTION.NPOINTER=P_NAME_POINTER;

  10842  2 000053   200004 471500                    LDP1    @P_PARAM2,,AUTO
         2 000054   100000 720100                    LXL0    0,,PR1
         2 000055   000000 473400 xsym               LDP3    B_SECTION_CUR$
         2 000056   300001 740100                    STX0    1,,PR3

      479    10843    2           B_SECTION_COUNT=B_SECTION_COUNT+1;

  10843  2 000057   000000 054000 xsym               AOS     B_SECTION_COUNT

      480    10844    2           P_SECTION_NUMBER_OUT=B_SECTION_COUNT;

PL6.E3A0      #002=XUO$SECTBUILD File=XUO$BUILD.:E05TSI                          WED 07/30/97 09:24 Page:60
  10844  2 000060   000000 235000 xsym               LDA     B_SECTION_COUNT
         2 000061   200005 474500                    LDP4    @P_PARAM3,,AUTO
         2 000062   400000 755100                    STA     0,,PR4

      481    10845    2           B_SECTION_CUR$=PINCRW(B_SECTION_CUR$,SIZEW(B$SECTION));

  10845  2 000063   000000 236000 xsym               LDQ     B_SECTION_CUR$
         2 000064   000002 036003                    ADLQ    2,DU
         2 000065   000000 756000 xsym               STQ     B_SECTION_CUR$

      482    10846    2           RETURN;

  10846  2 000066   000000 702200 xent               TSX2  ! X66_ARET

      483    10847    2           END;
      484    10848    2       ELSE DO;

      485    10849         /*
      486    10850         We cannot allocate any more sections--therefore give an altreturn.
      487    10851         */
      488    10852        %IF CP6;
      489    10853    2           IF XUO_ERROR_ROUTINE ~= ENTADDR(NIL)

  10853  2 000067   000000 236000 xsym               LDQ     XUO_ERROR_ROUTINE
         2 000070   000002 116000 xsym               CMPQ    B_VECTNIL+2
         2 000071   000110 600000 2                  TZE     s:10877

      490    10854    2           THEN
      491    10855    2               IF B_SECTION_COUNT = 512

  10855  2 000072   000000 235000 xsym               LDA     B_SECTION_COUNT
         2 000073   001000 115007                    CMPA    512,DL
         2 000074   000103 601000 2                  TNZ     s:10859

      492    10856    2               THEN
      493    10857    2                   CALL XUO_ERROR_ROUTINE (GT_512_SECTIONS);

PL6.E3A0      #002=XUO$SECTBUILD File=XUO$BUILD.:E05TSI                          WED 07/30/97 09:24 Page:61
  10857  2 000075   000000 630400 3                  EPPR0   0
         2 000076   000000 220000 xsym               LDX0    XUO_ERROR_ROUTINE
         2 000077   000017 631400 xsym               EPPR1   B_VECTNIL+15
         2 000100   000000 701010                    TSX1    0,X0
         2 000101   000000 011000                    NOP     0
         2 000102   000110 710000 2                  TRA     s:10877

      494    10858    2               ELSE
      495    10859    2                   CALL XUO_ERROR_ROUTINE (SECT_RECORD_FULL);

  10859  2 000103   000001 630400 3                  EPPR0   1
         2 000104   000000 220000 xsym               LDX0    XUO_ERROR_ROUTINE
         2 000105   000017 631400 xsym               EPPR1   B_VECTNIL+15
         2 000106   000000 701010                    TSX1    0,X0
         2 000107   000000 011000                    NOP     0

      496    10860
      497    10861        /*E*  ERROR:   XUO-E$XUO#GT_512_SECTIONS
      498    10862              MESSAGE:A fatal error has occurred while building an object unit.  An
      499    10863                      attempt has been made to create an object unit with more than 512
      500    10864                      control sections.  This exceeds the design capacity of CP-6
      501    10865                      object unit files.
      502    10866        */
      503    10867
      504    10868        /*E*  ERROR:   XUO-E$XUO#SECT_RECORD_FULL
      505    10869              MESSAGE:A fatal error has occurred while building an object unit.  The
      506    10870                      control-section record has overflowed, due to an attempt to
      507    10871                      build more control sections than were specified when the
      508    10872                      XUO$BUFINIT routine was called (or, if XUO$BUFINIT was not called,
      509    10873                      the default limit of 10 control sections).
      510    10874        */
      511    10875
      512    10876        %ENDIF;
      513    10877    2           ALTRETURN;

  10877  2 000110   000000 702200 xent               TSX2  ! X66_AALT

PL6.E3A0      #002=XUO$SECTBUILD File=XUO$BUILD.:E05TSI                          WED 07/30/97 09:24 Page:62
      514    10878    2           END;
      515    10879
      516    10880        %PAGE (ARG=Section build);

             10893    2   /*******************************************************************************
             10894    2   *                                                                              *
             10895    2   *        Section build              Section build                                 *
             10896    2   *                                                                              *
             10897    2   *******************************************************************************/

      517    10901        /*D*  NAME:    XUO$SECTNAME
      518    10902
      519    10903                                 PURPOSE:  This routine enters the section name pointer
      520    10904                                 into a previously created section record entry.
      521    10905
      522    10906                            DESCRIPTION:  This routine enters the section name pointer
      523    10907                            into the previously created section record entry.  If
      524    10908                            an invalid section number is passed in, this routine
      525    10909                            will altreturn.
      526    10910
      527    10911                            CALL:  Call XUO$SECTNAME (section number,
      528    10912                            name pointer)
      529    10913                            altreturn (label)
      530    10914
      531    10915                            INPUT:
      532    10916                            Section number      ubin aligned
      533    10917                            the number of the section record entry
      534    10918                            that is to be modified.
      535    10919                            Name pointer        sbin aligned
      536    10920                            word displacement into the externally
      537    10921                            defined names record (type 1) locating
      538    10922                            the name of this section.  If the field
      539    10923                            is negative, the section has no name.
      540    10924
      541    10925                            OUTPUT:
      542    10926                            updated entry in the section record
      543    10927
PL6.E3A0      #002=XUO$SECTBUILD File=XUO$BUILD.:E05TSI                          WED 07/30/97 09:24 Page:63
      544    10928                            global DATA:  none
      545    10929
      546    10930                            B$OBJECT REFERENCE:  B$SECTION
      547    10931                            */
      548    10932        /*B*
      549    10933        INTERFACE:
      550    10934             XUO$ERROR_ROUTINE
      551    10935
      552    10936        */
      553    10937
      554    10938    1   XUO$SECTNAME: ENTRY(P_PARAM1,P_PARAM2) ALTRET;

  10938  2 000111   000000 700200 xent  XUO$SECTNAME TSX0  ! X66_AUTO_N
         2 000112   000012 000006                    ZERO    10,6

      555    10939         /*
      556    10940         This section will add the name pointer to the appropriate section
      557    10941         */
      558    10942    1       SECTION_TEMP$=PINCRW(B_SECTION_BASE$,P_SECTION_NUMBER_IN*SIZEW(B$SECTION));

  10942  2 000113   200003 470500                    LDP0    @P_PARAM1,,AUTO
         2 000114   000000 720100                    LXL0    0,,PR0
         2 000115   000000 636010                    EAQ     0,X0
         2 000116   000001 736000                    QLS     1
         2 000117   000000 036000 xsym               ADLQ    B_SECTION_BASE$
         2 000120   200011 756100                    STQ     SECTION_TEMP$,,AUTO

      559    10943    1       IF SECTION_TEMP$<B_SECTION_CUR$ THEN

  10943  2 000121   000000 116000 xsym               CMPQ    B_SECTION_CUR$
         2 000122   000130 603000 2                  TRC     s:10952

      560    10944    2       DO;

      561    10945    2           SECTION_TEMP$->B$SECTION.NPOINTER=P_NAME_POINTER;

  10945  2 000123   200004 471500                    LDP1    @P_PARAM2,,AUTO
PL6.E3A0      #002=XUO$SECTBUILD File=XUO$BUILD.:E05TSI                          WED 07/30/97 09:24 Page:64
         2 000124   100000 721100                    LXL1    0,,PR1
         2 000125   200011 473500                    LDP3    SECTION_TEMP$,,AUTO
         2 000126   300001 741100                    STX1    1,,PR3

      562    10946    2           RETURN;

  10946  2 000127   000000 702200 xent               TSX2  ! X66_ARET

      563    10947    2           END;
      564    10948    1       ELSE
      565    10949         /*
      566    10950         Give altreturn on invalid section number
      567    10951            */
      568    10952    1           ALTRETURN;

  10952  2 000130   000000 702200 xent               TSX2  ! X66_AALT

      569    10953        %PAGE (arg= section size add );

             10966    1   /*******************************************************************************
             10967    1   *                                                                              *
             10968    1   *        section size add              section size add                           *
             10969    1   *                                                                              *
             10970    1   *******************************************************************************/

      570    10974        /*D*
      571    10975
      572    10976        XUO$SECTSIZE --section record (record type 3)
      573    10977
      574    10978        NAME:  XUO$SECTSIZE
      575    10979
      576    10980        PURPOSE:  To enter the section size into a previously created
      577    10981                  entry in the section record.
      578    10982
      579    10983        DESCRIPTION:  This routine is used to enter the size of a
      580    10984                      section into a previously created entry in the section
      581    10985                      record.  This routine will altreturn if an invalid
PL6.E3A0      #002=XUO$SECTBUILD File=XUO$BUILD.:E05TSI                          WED 07/30/97 09:24 Page:65
      582    10986                      section number is passed.
      583    10987
      584    10988        CALL:  Call XUO$SECTSIZE (section number,
      585    10989                                  section size)
      586    10990                   altreturn (label)
      587    10991
      588    10992        INPUT:
      589    10993              Section number      ubin aligned
      590    10994                       the number of the section record entry
      591    10995                       that is to be modified.
      592    10996              Section size        ubin aligned
      593    10997                       the size in words of the section.
      594    10998
      595    10999        OUTPUT:
      596    11000              updated section record entry
      597    11001
      598    11002        B$OBJECT REFERENCE:  B$SECTION
      599    11003        */
      600    11004        /*B*
      601    11005        GLOBAL DATA:  none
      602    11006
      603    11007        INTERFACE:  none
      604    11008
      605    11009
      606    11010        */
      607    11011    1   XUO$SECTSIZE: ENTRY(P_PARAM1,P_PARAM2) ALTRET;

  11011  2 000131   000000 700200 xent  XUO$SECTSIZE TSX0  ! X66_AUTO_N
         2 000132   000012 000006                    ZERO    10,6

      608    11012         /*
      609    11013         This section will add the passed size to the appropriate section
      610    11014         */
      611    11015    1       SECTION_TEMP$=PINCRW(B_SECTION_BASE$,P_SECTION_NUMBER_IN*SIZEW(B$SECTION));

  11015  2 000133   200003 470500                    LDP0    @P_PARAM1,,AUTO
         2 000134   000000 720100                    LXL0    0,,PR0
PL6.E3A0      #002=XUO$SECTBUILD File=XUO$BUILD.:E05TSI                          WED 07/30/97 09:24 Page:66
         2 000135   000000 636010                    EAQ     0,X0
         2 000136   000001 736000                    QLS     1
         2 000137   000000 036000 xsym               ADLQ    B_SECTION_BASE$
         2 000140   200011 756100                    STQ     SECTION_TEMP$,,AUTO

      612    11016    1       IF SECTION_TEMP$<B_SECTION_CUR$ THEN

  11016  2 000141   000000 116000 xsym               CMPQ    B_SECTION_CUR$
         2 000142   000165 603000 2                  TRC     s:11039

      613    11017    2       DO;

      614    11018    2           IF P_SECTION_SIZE > 262143 /* 256k - 1 */

  11018  2 000143   200004 471500                    LDP1    @P_PARAM2,,AUTO
         2 000144   100000 235100                    LDA     0,,PR1
         2 000145   000001 115003                    CMPA    1,DU
         2 000146   000160 602000 2                  TNC     s:11032

      615    11019    2           THEN
      616    11020         %IF CP6;
      617    11021    2               IF XUO_ERROR_ROUTINE = ENTADDR(NIL)

  11021  2 000147   000000 236000 xsym               LDQ     XUO_ERROR_ROUTINE
         2 000150   000002 116000 xsym               CMPQ    B_VECTNIL+2
         2 000151   000153 601000 2                  TNZ     s:11025

      618    11022    2               THEN
      619    11023    2                   ALTRETURN;

  11023  2 000152   000000 702200 xent               TSX2  ! X66_AALT

      620    11024    2               ELSE
      621    11025    2                   CALL XUO_ERROR_ROUTINE (SECTION_TOO_BIG);

  11025  2 000153   000002 630400 3                  EPPR0   2
         2 000154   000000 220000 xsym               LDX0    XUO_ERROR_ROUTINE
PL6.E3A0      #002=XUO$SECTBUILD File=XUO$BUILD.:E05TSI                          WED 07/30/97 09:24 Page:67
         2 000155   000017 631400 xsym               EPPR1   B_VECTNIL+15
         2 000156   000000 701010                    TSX1    0,X0
         2 000157   000000 011000                    NOP     0

      622    11026        %ELSE;
      623    11027 C              ALTRETURN;
      624    11028        %ENDIF;
      625    11029        /*E*  ERROR:   XUO-E$XUO#SECT_GE_256K
      626    11030              MESSAGE: You tried to build a control section of more than 262143 words.
      627    11031        */
      628    11032    2           SECTION_TEMP$->B$SECTION.SIZE=P_SECTION_SIZE;

  11032  2 000160   200004 470500                    LDP0    @P_PARAM2,,AUTO
         2 000161   000000 720100                    LXL0    0,,PR0
         2 000162   200011 471500                    LDP1    SECTION_TEMP$,,AUTO
         2 000163   100000 440100                    SXL0    0,,PR1

      629    11033    2           RETURN;

  11033  2 000164   000000 702200 xent               TSX2  ! X66_ARET

      630    11034    2           END;
      631    11035    1       ELSE
      632    11036         /*
      633    11037         Give altreturn on invalid section number
      634    11038            */
      635    11039    1           ALTRETURN;

  11039  2 000165   000000 702200 xent               TSX2  ! X66_AALT
      636    11040         /*
      637    11041            */
      638    11042    1   END XUO$SECTBUILD;
      639    11043        %EOD;

PL6.E3A0      #002=XUO$SECTBUILD File=XUO$BUILD.:E05TSI                          WED 07/30/97 09:24 Page:68
--  Include file information  --

   XU_PERR_C.:E05TOU  is referenced.
   XUO$OBJ_C.:E05TOU  is referenced.
   B$OBJECT_C.:E05TOU  is referenced.
   CP_6_SUBS.:E05TOU  is referenced.
   CP_6_C.:E05TOU  is referenced.
   CP_6.:E05TOU  cannot be made into a system file and is referenced.
   ZVA_FLAGS.:TOOLE04  is referenced.
   ZVA_SYSTEM_FILE.:TOOLE04  is referenced.
      No diagnostics issued in procedure XUO$SECTBUILD.
PL6.E3A0      #002=XUO$SECTBUILD File=XUO$BUILD.:E05TSI                          WED 07/30/97 09:24 Page:69

 **** Variables and constants ****

  ****  Section 001 RoData XUO$SECTBUILD

  ****  Scalars and arrays  ****
OctLoc.c.b A Datatyp(siz) R M Lvl/name                 OctLoc.c.b A Datatyp(siz) R M Lvl/name

     2-0-0/w STRC        r     1 GT_512_SECTIONS            0-0-0/w STRC        r     1 SECTION_TOO_BIG
     1-0-0/w STRC        r     1 SECT_RECORD_FULL

  ****  Auto variables  ****

  ****  Scalars and arrays  ****
OctLoc.c.b A Datatyp(siz) R M Lvl/name                 OctLoc.c.b A Datatyp(siz) R M Lvl/name

     7-0-0/w PTR         r     1 @P_BOUND
     6-0-0/w PTR         r     1 @P_INIT_UTS_SEGMENT_ZERO
     3-0-0/w PTR         r     1 @P_PARAM1                  4-0-0/w PTR         r     1 @P_PARAM2
     5-0-0/w PTR         r     1 @P_PARAM3                 10-0-0/w PTR         r     1 @P_SEG_NPOINTER
    *0-0-0/w UBIN        r     1 P_BOUND
    *0-0-0/b STRC(3)     r     1 P_INIT_UTS_SEGMENT_ZERO
    *0-0-0/w SBIN        r     1 P_NAME_POINTER            *0-0-0/w UBIN        r     1 P_PARAM1
    *0-0-0/w UBIN        r     1 P_PARAM2                  *0-0-0/w UBIN        r     1 P_PARAM3
    *0-0-0/w UBIN        r     1 P_SECTION_NUMBER_IN       *0-0-0/w UBIN        r     1 P_SECTION_NUMBER_OUT
    *0-0-0/w UBIN        r     1 P_SECTION_SIZE            *0-0-0/w UBIN        r     1 P_SECTION_TYPE
    *0-0-0/w SBIN        r     1 P_SEG_NPOINTER            11-0-0/w PTR         r     1 SECTION_TEMP$

  ****  SYMREF variables  ****

  ****  Scalars and arrays  ****
OctLoc.c.b A Datatyp(siz) R M Lvl/name                 OctLoc.c.b A Datatyp(siz) R M Lvl/name

     0-0-0/w PTR         r     1 B_SECTION_BASE$            0-0-0/w SBIN        r     1 B_SECTION_COUNT
     0-0-0/w PTR         r     1 B_SECTION_CUR$             0-0-0/w PTR         r     1 B_SECTION_END$
     0-0-0/w EPTR        r     1 XUO_ERROR_ROUTINE

  ****  BASED and DCB variables  ****
PL6.E3A0      #002=XUO$SECTBUILD File=XUO$BUILD.:E05TSI                          WED 07/30/97 09:24 Page:70

  ****  Scalars and arrays  ****
OctLoc.c.b A Datatyp(siz) R M Lvl/name                 OctLoc.c.b A Datatyp(siz) R M Lvl/name

     0-0-0/w STRC(72)    r     1 B$SECTION


   Procedure XUO$SECTBUILD requires 118 words for executable code.
   Procedure XUO$SECTBUILD requires 10 words of local(AUTO) storage.
PL6.E3A0      #002=XUO$SECTBUILD File=XUO$BUILD.:E05TSI                          WED 07/30/97 09:24 Page:71
          *** CROSS REFERENCE LISTING ***
**     DENOTES     IDENTIFIER DEFINITION
<<                 IDENTIFIER'S VALUE SET
>>                 IDENTIFIER'S VALUE USED
<>                 IDENTIFIER SET AND/OR USED
--                 IDENTIFIER REFERENCED
PL6.E3A0      #002=XUO$SECTBUILD File=XUO$BUILD.:E05TSI                          WED 07/30/97 09:24 Page:72
          MINI XREF LISTING

B$SECTION
     10537**DCL     10845--ASSIGN  10942--ASSIGN  11015--ASSIGN
B$SECTION.BOUND
     10572**DCL     10839<<ASSIGN
B$SECTION.INITUTS
     10564**DCL     10835<<ASSIGN
B$SECTION.INITZERO
     10562**DCL     10834<<ASSIGN
B$SECTION.MBZ
     10584**DCL     10586--REDEF   10590--REDEF
B$SECTION.NPOINTER
     10580**DCL     10842<<ASSIGN  10945<<ASSIGN
B$SECTION.SEGMENT
     10566**DCL     10836<<ASSIGN
B$SECTION.SEG_NPOINTER
     10586**DCL     10841<<ASSIGN
B$SECTION.SIZE
     10578**DCL     11032<<ASSIGN
B$SECTION.TYPE
     10538**DCL     10831<<ASSIGN
B_SECTION_BASE$
     10607**DCL     10942>>ASSIGN  11015>>ASSIGN
B_SECTION_COUNT
     10610**DCL     10843<<ASSIGN  10843>>ASSIGN  10844>>ASSIGN  10855>>IF
B_SECTION_CUR$
     10608**DCL     10537--IMP-PTR 10829>>IF      10831>>ASSIGN  10834>>ASSIGN  10835>>ASSIGN  10836>>ASSIGN
     10839>>ASSIGN  10841>>ASSIGN  10842>>ASSIGN  10845<<ASSIGN  10845>>ASSIGN  10943>>IF      11016>>IF
B_SECTION_END$
     10609**DCL     10829>>IF
GT_512_SECTIONS
     10745**DCL     10857<>CALL
P_BOUND
PL6.E3A0      #002=XUO$SECTBUILD File=XUO$BUILD.:E05TSI                          WED 07/30/97 09:24 Page:73
     10510**DCL       110--PROC    10838--IF      10839>>ASSIGN
P_INIT_UTS_SEGMENT_ZERO
     10503**DCL       110--PROC    10832--IF
P_INIT_UTS_SEGMENT_ZERO.SEGMENT
     10506**DCL     10836>>ASSIGN
P_INIT_UTS_SEGMENT_ZERO.UTS
     10505**DCL     10835>>ASSIGN
P_INIT_UTS_SEGMENT_ZERO.ZERO
     10504**DCL     10834>>ASSIGN
P_NAME_POINTER
     10488**DCL     10842>>ASSIGN  10945>>ASSIGN
P_PARAM1
     10473**DCL       110--PROC    10477--REDEF   10481--REDEF   10938--ENTRY   11011--ENTRY
P_PARAM2
     10484**DCL       110--PROC    10488--REDEF   10492--REDEF   10938--ENTRY   11011--ENTRY
P_PARAM3
     10495**DCL       110--PROC    10499--REDEF
P_SECTION_NUMBER_IN
     10481**DCL     10942>>ASSIGN  11015>>ASSIGN
P_SECTION_NUMBER_OUT
     10499**DCL     10844<<ASSIGN
P_SECTION_SIZE
     10492**DCL     11018>>IF      11032>>ASSIGN
P_SECTION_TYPE
     10477**DCL     10831>>ASSIGN
P_SEG_NPOINTER
     10514**DCL       110--PROC    10840--IF      10841>>ASSIGN
SECTION_TEMP$
     10636**DCL     10942<<ASSIGN  10943>>IF      10945>>ASSIGN  11015<<ASSIGN  11016>>IF      11032>>ASSIGN
SECTION_TOO_BIG
     10653**DCL     11025<>CALL
SECT_RECORD_FULL
     10699**DCL     10859<>CALL
XUO_ERROR_ROUTINE
     10802**DCL     10853>>IF      10857>>CALL    10859>>CALL    11021>>IF      11025>>CALL

PL6.E3A0      #003=XUO$EDEF File=XUO$BUILD.:E05TSI                               WED 07/30/97 09:24 Page:74
      640        1        /*M*     XUO$EDEF -- THIS MODULE WILL BUILD OBJECT UNIT ENTDEF RECORDS*/
      641        2        /*T***********************************************************/
      642        3        /*T*                                                         */
      643        4        /*T* Copyright (c) Bull HN Information Systems Inc., 1997    */
      644        5        /*T*                                                         */
      645        6        /*T***********************************************************/
      646        7        /*P*
      647        8
      648        9
      649       10        NAME:  XUO$EDEF
      650       11               XUO$EDEF --External Procedure Definition (Record Type 4)
      651       12
      652       13        PURPOSE:  To build an entry in the External Procedure Definition Record
      653       14
      654       15        DESCRIPTION:  This routine builds an entry in the External
      655       16                  Procedure Definition Record.  There is one record
      656       17                  per object unit which defines the external
      657       18                  procedure definitions.  The record for External
      658       19                  Procedure Definition contains one entry
      659       20                  per external procedure name within the object unit.
      660       21                  A PL6 module with no ENTRY statements will contain one
      661       22                  entry.  Three level-0 ENTRY statements would produce an
      662       23                  ENTDEF record with four entries (one for the primary
      663       24                  procedure name, three for the three ENTRY names).
      664       25        */
      665       26        /*D*
      666       27
      667       28        CALL:  CALL XUO$EDEF(Section Number,
      668       29                      Section Offset,
      669       30                      Name Pointer,
      670       31                      Entry Flags,
      671       32                      Altreturn Flag,
      672       33                      Argument Check Flag,
      673       34                      Call Type,
      674       35                      Number Arguments)
      675       36
      676       37        INPUT:
PL6.E3A0      #003=XUO$EDEF File=XUO$BUILD.:E05TSI                               WED 07/30/97 09:24 Page:75
      677       38            Section Number      UBIN
      678       39                                Contains an entry number into the section
      679       40                                table (type 3).
      680       41            Section Offset      UBIN
      681       42                                Word offset from the origin of the section.
      682       43            Name Pointer        SBIN ALIGNED
      683       44                                The word displacement into the name record
      684       45                                (type 1) locating the name of this entry.
      685       46            Entry Flag          BIT (1) UNALIGNED
      686       47                                A flag denoting primary entry definition.
      687       48                                   0 = not a primary name
      688       49                                   1 = a primary name (object unit name)
      689       50            Altreturn Flag      BIT (1) UNALIGNED
      690       51                                A flag denoting permissible alternate
      691       52                                return.
      692       53                                   0 = alternate return not allowed
      693       54                                   1 = alternate return allowed
      694       55            Argument Check Flag BIT (1) UNALIGNED
      695       56                                CHECK is a one-bit flag denoting
      696       57                                arguments/parameters check and alternate
      697       58                                return specification check.
      698       59                                   0 = do not check for matching
      699       60                                       arguments/parameters and alternate
      700       61                                       return specification check.
      701       62                                   1 = check for matching arguments/parameters
      702       63            Call Type           UBIN
      703       64                                Denotes the calling sequence type
      704       65                                   0 = Standard CP-6 Callable Procedure
      705       66                                   1 = Nonstandard Call Type
      706       67                                   2 = Standard CP-6 Procedure with
      707       68                                       MAIN attribute
      708       69                                   3 = Standard CP-6 Procedure with
      709       70                                        ASYNC attribute
      710       71                                   4 = Standard CP-6 Function Procedure;
      711       72                                        a variable table entry will be
      712       73                                        present to define the attributes
      713       74                                        of the function.
PL6.E3A0      #003=XUO$EDEF File=XUO$BUILD.:E05TSI                               WED 07/30/97 09:24 Page:76
      714       75                                   5 = Same as 0, except USE, AVOID, or
      715       76                                       MATERIALIZE attributes specified
      716       77                                   7 = Same as 2, except USE, AVOID, or
      717       78                                       MATERIALIZE attributes specified
      718       79                                   8 = Same as 3, except USE, AVOID, or
      719       80                                       MATERIALIZE attributes specified
      720       81                                   9 = Same as 4, except USE, AVOID, or
      721       82                                       MATERIALIZE attributes specified
      722       83                                  13 = GCOS domain, save
      723       84                                  14 = GCOS domain, no save
      724       85                                  15 = Non-Callable Procedure.
      725       86            Number Arguments    UBIN
      726       87                                Denotes the number of parameters.
      727       88
      728       89        OUTPUT:  none
      729       90
      730       91        B$OBJECT REFERENCE:  B$EDEF
      731       92        */
      732       93        /*B*
      733       94
      734       95        GLOBAL DATA:
      735       96            B_EDEF_CUR$
      736       97            B_EDEF_COUNT
      737       98            B_EDEF_PAGE
      738       99        INTERFACE:
      739      100            XUO$WRITE
      740      101
      741      102        */
      742      103
      743      104        XUO$EDEF: PROC(P_SECTION_NUMBER,P_SECTION_OFFSET,P_NAME_POINTER,P_ENTRY_FLAG,
               104            P_ALTRETURN_FLAG,
      744      105               P_ARGUMENT_CHECK_FLAG,P_CALL_TYPE,P_NUMBER_ARGUMENTS);
      745      106         /*
      746      107            */
      747      108        %INCLUDE ZVA_SYSTEM_FILE;
      748     6359            %PAGE (ARG=INCLUDES);

PL6.E3A0      #003=XUO$EDEF File=XUO$BUILD.:E05TSI                               WED 07/30/97 09:24 Page:77
              6372    1   /*******************************************************************************
              6373    1   *                                                                              *
              6374    1   *        INCLUDES              INCLUDES                                            *
              6375    1   *                                                                              *
              6376    1   *******************************************************************************/

      749     6380        %INCLUDE B$OBJECT_C;
      750     9810        %INCLUDE XUO$OBJ_C;
      751    10220            %PAGE (ARG=SUBS);

             10233    1   /*******************************************************************************
             10234    1   *                                                                              *
             10235    1   *        SUBS              SUBS                                                  *
             10236    1   *                                                                              *
             10237    1   *******************************************************************************/

      752    10241            %B$RECORDSUBS;
      753    10269        %PLIST;
      754    10270            %PAGE (ARG=PARAMETERS);

             10283    1   /*******************************************************************************
             10284    1   *                                                                              *
             10285    1   *        PARAMETERS              PARAMETERS                                        *
             10286    1   *                                                                              *
             10287    1   *******************************************************************************/

      755    10291    1   DCL P_SECTION_NUMBER UBIN;
      756    10292    1   DCL P_SECTION_OFFSET UBIN;
      757    10293    1   DCL P_NAME_POINTER SBIN;
      758    10294    1   DCL P_ENTRY_FLAG BIT(1) UNAL;
      759    10295    1   DCL P_ALTRETURN_FLAG BIT(1) UNAL;
      760    10296    1   DCL P_ARGUMENT_CHECK_FLAG BIT(1) UNAL;
      761    10297    1   DCL P_CALL_TYPE UBIN;
      762    10298    1   DCL P_NUMBER_ARGUMENTS UBIN;
      763    10299         /*
      764    10300            */
      765    10301        %PAGE (ARG=PROC DEF DATA);
PL6.E3A0      #003=XUO$EDEF File=XUO$BUILD.:E05TSI                               WED 07/30/97 09:24 Page:78

             10314    1   /*******************************************************************************
             10315    1   *                                                                              *
             10316    1   *        PROC DEF DATA              PROC DEF DATA                                  *
             10317    1   *                                                                              *
             10318    1   *******************************************************************************/

      766    10322        %B$EDEF (STCLASS="BASED(EDEF_CUR$)");
      767    10392        %B_EDEF_POINTERS;
      768    10412    1   DCL EDEF_CUR$ PTR;
      769    10413        %PLIST;
      770    10414        %PAGE (ARG=ENTRY DCLS);

             10427    1   /*******************************************************************************
             10428    1   *                                                                              *
             10429    1   *        ENTRY DCLS              ENTRY DCLS                                        *
             10430    1   *                                                                              *
             10431    1   *******************************************************************************/

      771    10435    1   DCL XUO$OUWRITE ENTRY(2);
      772    10436        %PAGE (ARG=CODE);

             10449    1   /*******************************************************************************
             10450    1   *                                                                              *
             10451    1   *        CODE              CODE                                                  *
             10452    1   *                                                                              *
             10453    1   *******************************************************************************/

      773    10457         /*
      774    10458         The following will check to see if the passed information will
      775    10459         fit in the current record.  If not, the current record will be
      776    10460         written and the pointer re-initialized.  Then the text will be moved to
      777    10461         the buffer.
      778    10462         */
      779    10463    1       IF B_EDEF_CUR$>=B_EDEF_END$ THEN
      780    10464    2       DO;
      781    10465    2           CALL XUO$OUWRITE(%TYPEDEF);
PL6.E3A0      #003=XUO$EDEF File=XUO$BUILD.:E05TSI                               WED 07/30/97 09:24 Page:79
      782    10466    2           B_EDEF_PAGE=B_EDEF_PAGE+1;
      783    10467    2           B_EDEF_CUR$=B_EDEF_BASE$;
      784    10468    2           END;
      785    10469         /*
      786    10470         The following will build the procedure entry definition.
      787    10471         */
      788    10472    1       EDEF_CUR$=B_EDEF_CUR$;
      789    10473    1       B$EDEF.OU.SECTNUM=P_SECTION_NUMBER;
      790    10474    1       B$EDEF.OU.OFFSET=P_SECTION_OFFSET;
      791    10475    1       B$EDEF.NPOINTER=P_NAME_POINTER;
      792    10476    1       B$EDEF.PRI=P_ENTRY_FLAG;
      793    10477    1       B$EDEF.ALT=P_ALTRETURN_FLAG;
      794    10478    1       B$EDEF.CHECK=P_ARGUMENT_CHECK_FLAG;
      795    10479    1       B$EDEF.CST=P_CALL_TYPE;
      796    10480    1       B$EDEF.NPARAM=P_NUMBER_ARGUMENTS;
      797    10481    1       B_EDEF_COUNT=B_EDEF_COUNT+1;
      798    10482    1       B_EDEF_CUR$=PINCRW(B_EDEF_CUR$,SIZEW(B$EDEF));
      799    10483    1       RETURN;
      800    10484    1   END XUO$EDEF;
      801    10485        %EOD;

PL6.E3A0      #003=XUO$EDEF File=XUO$BUILD.:E05TSI                               WED 07/30/97 09:24 Page:80
--  Include file information  --

   XUO$OBJ_C.:E05TOU  is referenced.
   B$OBJECT_C.:E05TOU  is referenced.
   CP_6_SUBS.:E05TOU  is referenced.
   CP_6_C.:E05TOU  is referenced.
   CP_6.:E05TOU  cannot be made into a system file and is referenced.
   ZVA_FLAGS.:TOOLE04  is referenced.
   ZVA_SYSTEM_FILE.:TOOLE04  is referenced.
      No diagnostics issued in procedure XUO$EDEF.

   Procedure XUO$EDEF requires 52 words for executable code.
   Procedure XUO$EDEF requires 12 words of local(AUTO) storage.

PL6.E3A0      #003=XUO$EDEF File=XUO$BUILD.:E05TSI                               WED 07/30/97 09:24 Page:81

 Object Unit name= XUO$EDEF                                   File name= XUO$BUILD.:E05TOU
 UTS= JUL 30 '97 09:24:42.00 WED                              Compiler= PL-6/E31         Sev=      00
 SharedLib= :SHARED_SYSTEM                                    Alt SharedLib=


    ****  Control sections  ****

 Sect   Type Bound  Init  Size OctSiz  Section name(segment info)
    0   DCB   even  none     0      0  M$UC
    1   Proc  even  none    52     64  XUO$EDEF
    2  RoData even  none     1      1  XUO$EDEF

    ****  Entry defs  ****

                              Check   Calling
                             calling  sequence
  Sect OctLoc Primary Altret sequence   type   Parms  Name
     1      0   yes            yes      Std        8  XUO$EDEF

  ****  Entry refs  ****

         Check        Calling
        calling       sequence
Altret sequence SRef   type   Args  Name
         yes           Std       2 XUO$OUWRITE
                       nStd      0 X66_AUTO_N
                       Std       0 B_CONSPOOL_D
                       nStd      0 X66_ARET

  ****  Data refs  ****

  Flags:  r = read only, s = secondary
Flgs Name                             Flgs Name                             Flgs Name
     M$UC                                  B_EDEF_BASE$                          B_EDEF_CUR$
     B_EDEF_END$                           B_EDEF_COUNT                          B_EDEF_PAGE
     B_VECTNIL
PL6.E3A0      #003=XUO$EDEF File=XUO$BUILD.:E05TSI                               WED 07/30/97 09:24 Page:82

  ****  Segment refs  ****

  Flags:  r = read only, s = secondary
Flgs Name                             Flgs Name                             Flgs Name
     ISSID
PL6.E3A0      #003=XUO$EDEF File=XUO$BUILD.:E05TSI                               WED 07/30/97 09:24 Page:83


      640        1        /*M*     XUO$EDEF -- THIS MODULE WILL BUILD OBJECT UNIT ENTDEF RECORDS*/
      641        2        /*T***********************************************************/
      642        3        /*T*                                                         */
      643        4        /*T* Copyright (c) Bull HN Information Systems Inc., 1997    */
      644        5        /*T*                                                         */
      645        6        /*T***********************************************************/
      646        7        /*P*
      647        8
      648        9
      649       10        NAME:  XUO$EDEF
      650       11               XUO$EDEF --External Procedure Definition (Record Type 4)
      651       12
      652       13        PURPOSE:  To build an entry in the External Procedure Definition Record
      653       14
      654       15        DESCRIPTION:  This routine builds an entry in the External
      655       16                  Procedure Definition Record.  There is one record
      656       17                  per object unit which defines the external
      657       18                  procedure definitions.  The record for External
      658       19                  Procedure Definition contains one entry
      659       20                  per external procedure name within the object unit.
      660       21                  A PL6 module with no ENTRY statements will contain one
      661       22                  entry.  Three level-0 ENTRY statements would produce an
      662       23                  ENTDEF record with four entries (one for the primary
      663       24                  procedure name, three for the three ENTRY names).
      664       25        */
      665       26        /*D*
      666       27
      667       28        CALL:  CALL XUO$EDEF(Section Number,
      668       29                      Section Offset,
      669       30                      Name Pointer,
      670       31                      Entry Flags,
      671       32                      Altreturn Flag,
      672       33                      Argument Check Flag,
      673       34                      Call Type,
      674       35                      Number Arguments)
      675       36
PL6.E3A0      #003=XUO$EDEF File=XUO$BUILD.:E05TSI                               WED 07/30/97 09:24 Page:84
      676       37        INPUT:
      677       38            Section Number      UBIN
      678       39                                Contains an entry number into the section
      679       40                                table (type 3).
      680       41            Section Offset      UBIN
      681       42                                Word offset from the origin of the section.
      682       43            Name Pointer        SBIN ALIGNED
      683       44                                The word displacement into the name record
      684       45                                (type 1) locating the name of this entry.
      685       46            Entry Flag          BIT (1) UNALIGNED
      686       47                                A flag denoting primary entry definition.
      687       48                                   0 = not a primary name
      688       49                                   1 = a primary name (object unit name)
      689       50            Altreturn Flag      BIT (1) UNALIGNED
      690       51                                A flag denoting permissible alternate
      691       52                                return.
      692       53                                   0 = alternate return not allowed
      693       54                                   1 = alternate return allowed
      694       55            Argument Check Flag BIT (1) UNALIGNED
      695       56                                CHECK is a one-bit flag denoting
      696       57                                arguments/parameters check and alternate
      697       58                                return specification check.
      698       59                                   0 = do not check for matching
      699       60                                       arguments/parameters and alternate
      700       61                                       return specification check.
      701       62                                   1 = check for matching arguments/parameters
      702       63            Call Type           UBIN
      703       64                                Denotes the calling sequence type
      704       65                                   0 = Standard CP-6 Callable Procedure
      705       66                                   1 = Nonstandard Call Type
      706       67                                   2 = Standard CP-6 Procedure with
      707       68                                       MAIN attribute
      708       69                                   3 = Standard CP-6 Procedure with
      709       70                                        ASYNC attribute
      710       71                                   4 = Standard CP-6 Function Procedure;
      711       72                                        a variable table entry will be
      712       73                                        present to define the attributes
PL6.E3A0      #003=XUO$EDEF File=XUO$BUILD.:E05TSI                               WED 07/30/97 09:24 Page:85
      713       74                                        of the function.
      714       75                                   5 = Same as 0, except USE, AVOID, or
      715       76                                       MATERIALIZE attributes specified
      716       77                                   7 = Same as 2, except USE, AVOID, or
      717       78                                       MATERIALIZE attributes specified
      718       79                                   8 = Same as 3, except USE, AVOID, or
      719       80                                       MATERIALIZE attributes specified
      720       81                                   9 = Same as 4, except USE, AVOID, or
      721       82                                       MATERIALIZE attributes specified
      722       83                                  13 = GCOS domain, save
      723       84                                  14 = GCOS domain, no save
      724       85                                  15 = Non-Callable Procedure.
      725       86            Number Arguments    UBIN
      726       87                                Denotes the number of parameters.
      727       88
      728       89        OUTPUT:  none
      729       90
      730       91        B$OBJECT REFERENCE:  B$EDEF
      731       92        */
      732       93        /*B*
      733       94
      734       95        GLOBAL DATA:
      735       96            B_EDEF_CUR$
      736       97            B_EDEF_COUNT
      737       98            B_EDEF_PAGE
      738       99        INTERFACE:
      739      100            XUO$WRITE
      740      101
      741      102        */
      742      103
      743      104        XUO$EDEF: PROC(P_SECTION_NUMBER,P_SECTION_OFFSET,P_NAME_POINTER,P_ENTRY_FLAG,
               104            P_ALTRETURN_FLAG,

    104  1 000000   000000 700200 xent  XUO$EDEF     TSX0  ! X66_AUTO_N
         1 000001   000014 000010                    ZERO    12,8

      744      105               P_ARGUMENT_CHECK_FLAG,P_CALL_TYPE,P_NUMBER_ARGUMENTS);
PL6.E3A0      #003=XUO$EDEF File=XUO$BUILD.:E05TSI                               WED 07/30/97 09:24 Page:86
      745      106         /*
      746      107            */
      747      108        %INCLUDE ZVA_SYSTEM_FILE;
      748     6359            %PAGE (ARG=INCLUDES);

              6372    1   /*******************************************************************************
              6373    1   *                                                                              *
              6374    1   *        INCLUDES              INCLUDES                                           *
              6375    1   *                                                                              *
              6376    1   *******************************************************************************/

      749     6380        %INCLUDE B$OBJECT_C;
      750     9810        %INCLUDE XUO$OBJ_C;
      751    10220            %PAGE (ARG=SUBS);

             10233    1   /*******************************************************************************
             10234    1   *                                                                              *
             10235    1   *        SUBS              SUBS                                                  *
             10236    1   *                                                                              *
             10237    1   *******************************************************************************/

      752    10241            %B$RECORDSUBS;
      753    10269        %PLIST;
      754    10270            %PAGE (ARG=PARAMETERS);

             10283    1   /*******************************************************************************
             10284    1   *                                                                              *
             10285    1   *        PARAMETERS              PARAMETERS                                       *
             10286    1   *                                                                              *
             10287    1   *******************************************************************************/

      755    10291    1   DCL P_SECTION_NUMBER UBIN;
      756    10292    1   DCL P_SECTION_OFFSET UBIN;
      757    10293    1   DCL P_NAME_POINTER SBIN;
      758    10294    1   DCL P_ENTRY_FLAG BIT(1) UNAL;
      759    10295    1   DCL P_ALTRETURN_FLAG BIT(1) UNAL;
      760    10296    1   DCL P_ARGUMENT_CHECK_FLAG BIT(1) UNAL;
PL6.E3A0      #003=XUO$EDEF File=XUO$BUILD.:E05TSI                               WED 07/30/97 09:24 Page:87
      761    10297    1   DCL P_CALL_TYPE UBIN;
      762    10298    1   DCL P_NUMBER_ARGUMENTS UBIN;
      763    10299         /*
      764    10300            */
      765    10301        %PAGE (ARG=PROC DEF DATA);

             10314    1   /*******************************************************************************
             10315    1   *                                                                              *
             10316    1   *        PROC DEF DATA              PROC DEF DATA                                 *
             10317    1   *                                                                              *
             10318    1   *******************************************************************************/

      766    10322        %B$EDEF (STCLASS="BASED(EDEF_CUR$)");
      767    10392        %B_EDEF_POINTERS;
      768    10412    1   DCL EDEF_CUR$ PTR;
      769    10413        %PLIST;
      770    10414        %PAGE (ARG=ENTRY DCLS);

             10427    1   /*******************************************************************************
             10428    1   *                                                                              *
             10429    1   *        ENTRY DCLS              ENTRY DCLS                                       *
             10430    1   *                                                                              *
             10431    1   *******************************************************************************/

      771    10435    1   DCL XUO$OUWRITE ENTRY(2);
      772    10436        %PAGE (ARG=CODE);

             10449    1   /*******************************************************************************
             10450    1   *                                                                              *
             10451    1   *        CODE              CODE                                                  *
             10452    1   *                                                                              *
             10453    1   *******************************************************************************/

      773    10457         /*
      774    10458         The following will check to see if the passed information will
      775    10459         fit in the current record.  If not, the current record will be
      776    10460         written and the pointer re-initialized.  Then the text will be moved to
PL6.E3A0      #003=XUO$EDEF File=XUO$BUILD.:E05TSI                               WED 07/30/97 09:24 Page:88
      777    10461         the buffer.
      778    10462         */
      779    10463    1       IF B_EDEF_CUR$>=B_EDEF_END$ THEN

  10463  1 000002   000000 236000 xsym               LDQ     B_EDEF_CUR$
         1 000003   000000 116000 xsym               CMPQ    B_EDEF_END$
         1 000004   000014 602000 1                  TNC     s:10472

      780    10464    2       DO;

      781    10465    2           CALL XUO$OUWRITE(%TYPEDEF);

  10465  1 000005   000000 630400 2                  EPPR0   0
         1 000006   000017 631400 xsym               EPPR1   B_VECTNIL+15
         1 000007   000000 701000 xent               TSX1    XUO$OUWRITE
         1 000010   000000 011000                    NOP     0

      782    10466    2           B_EDEF_PAGE=B_EDEF_PAGE+1;

  10466  1 000011   000000 054000 xsym               AOS     B_EDEF_PAGE

      783    10467    2           B_EDEF_CUR$=B_EDEF_BASE$;

  10467  1 000012   000000 236000 xsym               LDQ     B_EDEF_BASE$
         1 000013   000000 756000 xsym               STQ     B_EDEF_CUR$

      784    10468    2           END;

      785    10469         /*
      786    10470         The following will build the procedure entry definition.
      787    10471         */
      788    10472    1       EDEF_CUR$=B_EDEF_CUR$;

  10472  1 000014   200013 756100                    STQ     EDEF_CUR$,,AUTO

      789    10473    1       B$EDEF.OU.SECTNUM=P_SECTION_NUMBER;

PL6.E3A0      #003=XUO$EDEF File=XUO$BUILD.:E05TSI                               WED 07/30/97 09:24 Page:89
  10473  1 000015   200003 470500                    LDP0    @P_SECTION_NUMBER,,AUTO
         1 000016   200013 471500                    LDP1    EDEF_CUR$,,AUTO
         1 000017   000000 236100                    LDQ     0,,PR0
         1 000020   000022 736000                    QLS     18
         1 000021   100000 552120                    STBQ    0,'20'O,PR1

      790    10474    1       B$EDEF.OU.OFFSET=P_SECTION_OFFSET;

  10474  1 000022   200004 473500                    LDP3    @P_SECTION_OFFSET,,AUTO
         1 000023   300000 720100                    LXL0    0,,PR3
         1 000024   100000 440100                    SXL0    0,,PR1

      791    10475    1       B$EDEF.NPOINTER=P_NAME_POINTER;

  10475  1 000025   200005 474500                    LDP4    @P_NAME_POINTER,,AUTO
         1 000026   400000 721100                    LXL1    0,,PR4
         1 000027   100001 741100                    STX1    1,,PR1

      792    10476    1       B$EDEF.PRI=P_ENTRY_FLAG;

  10476  1 000030   200006 475500                    LDP5    @P_ENTRY_FLAG,,AUTO
         1 000031   003100 060500                    CSL     bolr='003'O
         1 000032   500000 000001                    BDSC    0,,PR5                   by=0,bit=0,n=1
         1 000033   100001 400001                    BDSC    1,,PR1                   by=2,bit=0,n=1

      793    10477    1       B$EDEF.ALT=P_ALTRETURN_FLAG;

  10477  1 000034   200007 476500                    LDP6    @P_ALTRETURN_FLAG,,AUTO
         1 000035   003100 060500                    CSL     bolr='003'O
         1 000036   600000 000001                    BDSC    0,,PR6                   by=0,bit=0,n=1
         1 000037   100001 410001                    BDSC    1,,PR1                   by=2,bit=1,n=1

      794    10478    1       B$EDEF.CHECK=P_ARGUMENT_CHECK_FLAG;

  10478  1 000040   200010 477500                    LDP7    @P_ARGUMENT_CHECK_FLAG,,AUTO
         1 000041   003100 060500                    CSL     bolr='003'O
         1 000042   700000 000001                    BDSC    0,,PR7                   by=0,bit=0,n=1
PL6.E3A0      #003=XUO$EDEF File=XUO$BUILD.:E05TSI                               WED 07/30/97 09:24 Page:90
         1 000043   100001 420001                    BDSC    1,,PR1                   by=2,bit=2,n=1

      795    10479    1       B$EDEF.CST=P_CALL_TYPE;

  10479  1 000044   200011 470500                    LDP0    @P_CALL_TYPE,,AUTO
         1 000045   000000 236100                    LDQ     0,,PR0
         1 000046   000013 736000                    QLS     11
         1 000047   100001 676100                    ERQ     1,,PR1
         1 000050   074000 376007                    ANQ     30720,DL
         1 000051   100001 656100                    ERSQ    1,,PR1

      796    10480    1       B$EDEF.NPARAM=P_NUMBER_ARGUMENTS;

  10480  1 000052   200012 470500                    LDP0    @P_NUMBER_ARGUMENTS,,AUTO
         1 000053   000000 236100                    LDQ     0,,PR0
         1 000054   100001 676100                    ERQ     1,,PR1
         1 000055   003777 376007                    ANQ     2047,DL
         1 000056   100001 656100                    ERSQ    1,,PR1

      797    10481    1       B_EDEF_COUNT=B_EDEF_COUNT+1;

  10481  1 000057   000000 054000 xsym               AOS     B_EDEF_COUNT

      798    10482    1       B_EDEF_CUR$=PINCRW(B_EDEF_CUR$,SIZEW(B$EDEF));

  10482  1 000060   000000 236000 xsym               LDQ     B_EDEF_CUR$
         1 000061   000002 036003                    ADLQ    2,DU
         1 000062   000000 756000 xsym               STQ     B_EDEF_CUR$

      799    10483    1       RETURN;

  10483  1 000063   000000 702200 xent               TSX2  ! X66_ARET
      800    10484    1   END XUO$EDEF;
      801    10485        %EOD;

PL6.E3A0      #003=XUO$EDEF File=XUO$BUILD.:E05TSI                               WED 07/30/97 09:24 Page:91
--  Include file information  --

   XUO$OBJ_C.:E05TOU  is referenced.
   B$OBJECT_C.:E05TOU  is referenced.
   CP_6_SUBS.:E05TOU  is referenced.
   CP_6_C.:E05TOU  is referenced.
   CP_6.:E05TOU  cannot be made into a system file and is referenced.
   ZVA_FLAGS.:TOOLE04  is referenced.
   ZVA_SYSTEM_FILE.:TOOLE04  is referenced.
      No diagnostics issued in procedure XUO$EDEF.
PL6.E3A0      #003=XUO$EDEF File=XUO$BUILD.:E05TSI                               WED 07/30/97 09:24 Page:92

 **** Variables and constants ****

  ****  Auto variables  ****

  ****  Scalars and arrays  ****
OctLoc.c.b A Datatyp(siz) R M Lvl/name                 OctLoc.c.b A Datatyp(siz) R M Lvl/name

     7-0-0/w PTR         r     1 @P_ALTRETURN_FLAG
    10-0-0/w PTR         r     1 @P_ARGUMENT_CHECK_FLAG
    11-0-0/w PTR         r     1 @P_CALL_TYPE               6-0-0/w PTR         r     1 @P_ENTRY_FLAG
     5-0-0/w PTR         r     1 @P_NAME_POINTER           12-0-0/w PTR         r     1 @P_NUMBER_ARGUMENTS
     3-0-0/w PTR         r     1 @P_SECTION_NUMBER          4-0-0/w PTR         r     1 @P_SECTION_OFFSET
    13-0-0/w PTR         r     1 EDEF_CUR$                 *0-0-0/b BIT         r     1 P_ALTRETURN_FLAG
    *0-0-0/b BIT         r     1 P_ARGUMENT_CHECK_FLAG
    *0-0-0/w UBIN        r     1 P_CALL_TYPE               *0-0-0/b BIT         r     1 P_ENTRY_FLAG
    *0-0-0/w SBIN        r     1 P_NAME_POINTER            *0-0-0/w UBIN        r     1 P_NUMBER_ARGUMENTS
    *0-0-0/w UBIN        r     1 P_SECTION_NUMBER          *0-0-0/w UBIN        r     1 P_SECTION_OFFSET

  ****  SYMREF variables  ****

  ****  Scalars and arrays  ****
OctLoc.c.b A Datatyp(siz) R M Lvl/name                 OctLoc.c.b A Datatyp(siz) R M Lvl/name

     0-0-0/w PTR         r     1 B_EDEF_BASE$               0-0-0/w SBIN        r     1 B_EDEF_COUNT
     0-0-0/w PTR         r     1 B_EDEF_CUR$                0-0-0/w PTR         r     1 B_EDEF_END$
     0-0-0/w SBIN        r     1 B_EDEF_PAGE

  ****  BASED and DCB variables  ****

  ****  Scalars and arrays  ****
OctLoc.c.b A Datatyp(siz) R M Lvl/name                 OctLoc.c.b A Datatyp(siz) R M Lvl/name

     0-0-0/w STRC(72)    r     1 B$EDEF


   Procedure XUO$EDEF requires 52 words for executable code.
PL6.E3A0      #003=XUO$EDEF File=XUO$BUILD.:E05TSI                               WED 07/30/97 09:24 Page:93
   Procedure XUO$EDEF requires 12 words of local(AUTO) storage.
PL6.E3A0      #003=XUO$EDEF File=XUO$BUILD.:E05TSI                               WED 07/30/97 09:24 Page:94
          *** CROSS REFERENCE LISTING ***
**     DENOTES     IDENTIFIER DEFINITION
<<                 IDENTIFIER'S VALUE SET
>>                 IDENTIFIER'S VALUE USED
<>                 IDENTIFIER SET AND/OR USED
--                 IDENTIFIER REFERENCED
PL6.E3A0      #003=XUO$EDEF File=XUO$BUILD.:E05TSI                               WED 07/30/97 09:24 Page:95
          MINI XREF LISTING

B$EDEF
     10323**DCL     10482--ASSIGN
B$EDEF.ALT
     10356**DCL     10477<<ASSIGN
B$EDEF.CHECK
     10361**DCL     10478<<ASSIGN
B$EDEF.CST
     10369**DCL     10479<<ASSIGN
B$EDEF.NPARAM
     10389**DCL     10480<<ASSIGN
B$EDEF.NPOINTER
     10348**DCL     10475<<ASSIGN
B$EDEF.OU
     10340**DCL     10346--REDEF
B$EDEF.OU.OFFSET
     10344**DCL     10474<<ASSIGN
B$EDEF.OU.SECTNUM
     10341**DCL     10473<<ASSIGN
B$EDEF.PRI
     10351**DCL     10476<<ASSIGN
B_EDEF_BASE$
     10404**DCL     10467>>ASSIGN
B_EDEF_COUNT
     10407**DCL     10481<<ASSIGN  10481>>ASSIGN
B_EDEF_CUR$
     10405**DCL     10463>>IF      10467<<ASSIGN  10472>>ASSIGN  10482<<ASSIGN  10482>>ASSIGN
B_EDEF_END$
     10406**DCL     10463>>IF
B_EDEF_PAGE
     10408**DCL     10466<<ASSIGN  10466>>ASSIGN
EDEF_CUR$
     10412**DCL     10323--IMP-PTR 10472<<ASSIGN  10473>>ASSIGN  10474>>ASSIGN  10475>>ASSIGN  10476>>ASSIGN
PL6.E3A0      #003=XUO$EDEF File=XUO$BUILD.:E05TSI                               WED 07/30/97 09:24 Page:96
     10477>>ASSIGN  10478>>ASSIGN  10479>>ASSIGN  10480>>ASSIGN
P_ALTRETURN_FLAG
     10295**DCL       104--PROC    10477>>ASSIGN
P_ARGUMENT_CHECK_FLAG
     10296**DCL       104--PROC    10478>>ASSIGN
P_CALL_TYPE
     10297**DCL       104--PROC    10479>>ASSIGN
P_ENTRY_FLAG
     10294**DCL       104--PROC    10476>>ASSIGN
P_NAME_POINTER
     10293**DCL       104--PROC    10475>>ASSIGN
P_NUMBER_ARGUMENTS
     10298**DCL       104--PROC    10480>>ASSIGN
P_SECTION_NUMBER
     10291**DCL       104--PROC    10473>>ASSIGN
P_SECTION_OFFSET
     10292**DCL       104--PROC    10474>>ASSIGN
XUO$OUWRITE
     10435**DCL-ENT 10465--CALL

PL6.E3A0      #004=XUO$EREF File=XUO$BUILD.:E05TSI                               WED 07/30/97 09:25 Page:97
      802        1        /*M*     XUO$EREF -- THIS MODULE WILL BUILD OBJECT UNIT ENTREF RECORDS*/
      803        2        /*T***********************************************************/
      804        3        /*T*                                                         */
      805        4        /*T* Copyright (c) Bull HN Information Systems Inc., 1997    */
      806        5        /*T*                                                         */
      807        6        /*T***********************************************************/
      808        7        /*P*
      809        8
      810        9
      811       10        NAME:  XUO$EREF
      812       11               XUO$EREF --External Procedure Reference (Record Type 5)
      813       12
      814       13        PURPOSE:  To build an entry in the External Procedure Reference record
      815       14
      816       15        DESCRIPTION:  This routine builds an entry in the External
      817       16             Procedure Reference Record.  There is one record
      818       17             per object unit for external procedure references.
      819       18             There is one entry per name.
      820       19
      821       20        */
      822       21        /*D*
      823       22        CALL:  CALL XUO$EREF(Name Pointer,
      824       23                      Secondary Reference Flag,
      825       24                      Altreturn Flag,
      826       25                      Argument Check Flag,
      827       26                      Call Type,
      828       27                      Number Arguments,
      829       28                      Eref Number)
      830       29
      831       30        INPUT:
      832       31            Name Pointer        SBIN
      833       32                                The word displacement into the record of
      834       33                                referenced names (Record Type 2) locating
      835       34                                the name.
      836       35            Secondary Reference Flag BIT(1) UNALIGNED
      837       36                                Indicates that the reference is a secondary
      838       37                                reference and should not cause loading of a
PL6.E3A0      #004=XUO$EREF File=XUO$BUILD.:E05TSI                               WED 07/30/97 09:25 Page:98
      839       38                                library routine.
      840       39            Altreturn Flag      BIT(1) UNALIGNED
      841       40                                Denotes permissible alternate return.
      842       41                                   0 - alternate return not allowed
      843       42                                   1 - alternate return allowed
      844       43            Argument Check Flag BIT(1) UNALIGNED
      845       44                                Denotes arguments/parameter check and alternate
      846       45                                return specification check.
      847       46                                   0 - do not check for matching arguments/
      848       47                                       parameters and alternate return
      849       48                                       specification
      850       49                                   1 - check for matching arguments/parameters
      851       50                                       and alternate return specification
      852       51           Call Type            UBIN
      853       52                                Denotes the calling sequence type
      854       53                                   0 = Standard CP-6 Callable Procedure
      855       54                                   1 = Nonstandard Call Type
      856       55                                   2 = Standard CP-6 Procedure with
      857       56                                       MAIN attribute
      858       57                                   3 = Standard CP-6 Procedure with
      859       58                                        ASYNC attribute
      860       59                                   4 = Standard CP-6 Function Procedure;
      861       60                                        a variable table entry will be
      862       61                                        present to define the attributes
      863       62                                        of the function.
      864       63                                   5 = Same as 0, except USE, AVOID, or
      865       64                                       MATERIALIZE attributes specified
      866       65                                   7 = Same as 2, except USE, AVOID, or
      867       66                                       MATERIALIZE attributes specified
      868       67                                   8 = Same as 3, except USE, AVOID, or
      869       68                                       MATERIALIZE attributes specified
      870       69                                   9 = Same as 4, except USE, AVOID, or
      871       70                                       MATERIALIZE attributes specified
      872       71                                  13 = GCOS domain, save
      873       72                                  14 = GCOS domain, no save
      874       73                                  15 = Non-Callable Procedure.
      875       74           Number Arguments    UBIN
PL6.E3A0      #004=XUO$EREF File=XUO$BUILD.:E05TSI                               WED 07/30/97 09:25 Page:99
      876       75                               Denotes the number of parameters
      877       76
      878       77        OUTPUT:
      879       78           Eref Number         UBIN
      880       79                               The table entry number for the current External
      881       80                               Procedure Reference to be entered into the
      882       81                               External Procedure Reference record.  This value
      883       82                               is returned by the called routine.
      884       83
      885       84        B$OBJECT REFERENCE:  B$EREF
      886       85        */
      887       86        /*B*
      888       87        GLOBAL DATA:
      889       88            B_EREF_CUR$
      890       89            B_EREF_COUNT
      891       90            B_EREF_PAGE
      892       91
      893       92        INTERFACE:
      894       93            XUO$OUWRITE
      895       94
      896       95        */
      897       96
      898       97        XUO$EREF: PROC (P_NAME_POINTER,P_SREF_FLAG,P_ALTRETURN_FLAG,P_ARGUMENT_CHECK_FLAG,
                97            P_CALL_TYPE,
      899       98               P_NUMBER_ARGUMENTS,P_EREF_NUMBER);
      900       99         /*
      901      100            */
      902      101        %INCLUDE ZVA_SYSTEM_FILE;
      903     6352            %PAGE (ARG=INCLUDE);

              6365    1   /*******************************************************************************
              6366    1   *                                                                              *
              6367    1   *        INCLUDE              INCLUDE                                              *
              6368    1   *                                                                              *
              6369    1   *******************************************************************************/

      904     6373        %INCLUDE B$OBJECT_C;
PL6.E3A0      #004=XUO$EREF File=XUO$BUILD.:E05TSI                               WED 07/30/97 09:25 Page:100
      905     9803        %INCLUDE XUO$OBJ_C;
      906    10213            %PAGE (ARG=SUBS);

             10226    1   /*******************************************************************************
             10227    1   *                                                                              *
             10228    1   *        SUBS              SUBS                                                  *
             10229    1   *                                                                              *
             10230    1   *******************************************************************************/

      907    10234            %B$RECORDSUBS;
      908    10262        %PLIST;
      909    10263            %PAGE (ARG=PARAMETERS);

             10276    1   /*******************************************************************************
             10277    1   *                                                                              *
             10278    1   *        PARAMETERS              PARAMETERS                                        *
             10279    1   *                                                                              *
             10280    1   *******************************************************************************/

      910    10284    1   DCL P_NAME_POINTER SBIN;
      911    10285    1   DCL P_SREF_FLAG BIT(1) UNAL;
      912    10286    1   DCL P_ALTRETURN_FLAG BIT(1) UNAL;
      913    10287    1   DCL P_ARGUMENT_CHECK_FLAG BIT(1) UNAL;
      914    10288    1   DCL P_CALL_TYPE UBIN;
      915    10289    1   DCL P_NUMBER_ARGUMENTS UBIN;
      916    10290    1   DCL P_EREF_NUMBER UBIN;
      917    10291         /*
      918    10292            */
      919    10293        %PAGE (ARG=PROC REF DATA);

             10306    1   /*******************************************************************************
             10307    1   *                                                                              *
             10308    1   *        PROC REF DATA              PROC REF DATA                                  *
             10309    1   *                                                                              *
             10310    1   *******************************************************************************/

      920    10314        %B$EREF (STCLASS="BASED(EREF_CUR$)");
PL6.E3A0      #004=XUO$EREF File=XUO$BUILD.:E05TSI                               WED 07/30/97 09:25 Page:101
      921    10357        %B_EREF_POINTERS;
      922    10377    1   DCL EREF_CUR$ PTR;
      923    10378        %PLIST;
      924    10379        %PAGE (ARG=ENTRY DCLS);

             10392    1   /*******************************************************************************
             10393    1   *                                                                              *
             10394    1   *        ENTRY DCLS              ENTRY DCLS                                        *
             10395    1   *                                                                              *
             10396    1   *******************************************************************************/

      925    10400    1   DCL XUO$OUWRITE ENTRY(2);
      926    10401        %PAGE (ARG=CODE);

             10414    1   /*******************************************************************************
             10415    1   *                                                                              *
             10416    1   *        CODE              CODE                                                  *
             10417    1   *                                                                              *
             10418    1   *******************************************************************************/

      927    10422         /*
      928    10423         The following will check to see if the passed information will
      929    10424         fit in the current record. If not, the current record will be
      930    10425         written and pointer re-initialized. Then the text will be moved
      931    10426         to the buffer.
      932    10427         */
      933    10428    1       IF B_EREF_CUR$>=B_EREF_END$ THEN
      934    10429    2       DO;
      935    10430    2           CALL XUO$OUWRITE(%TYPEREF);
      936    10431    2           B_EREF_PAGE=B_EREF_PAGE+1;
      937    10432    2           B_EREF_CUR$=B_EREF_BASE$;
      938    10433    2           END;
      939    10434         /*
      940    10435         The following will build the procedure entry reference.
      941    10436         */
      942    10437    1       EREF_CUR$=B_EREF_CUR$;
      943    10438    1       B$EREF.NPOINTER=P_NAME_POINTER;
PL6.E3A0      #004=XUO$EREF File=XUO$BUILD.:E05TSI                               WED 07/30/97 09:25 Page:102
      944    10439    1       B$EREF.SREF=P_SREF_FLAG;
      945    10440    1       B$EREF.ALT=P_ALTRETURN_FLAG;
      946    10441    1       B$EREF.CHECK=P_ARGUMENT_CHECK_FLAG;
      947    10442    1       B$EREF.CST=P_CALL_TYPE;
      948    10443    1       B$EREF.NPARAM=P_NUMBER_ARGUMENTS;
      949    10444    1       B_EREF_COUNT=B_EREF_COUNT+1;
      950    10445    1       P_EREF_NUMBER=B_EREF_COUNT;
      951    10446    1       B_EREF_CUR$=PINCRW(B_EREF_CUR$,SIZEW(B$EREF));
      952    10447    1       RETURN;
      953    10448    1   END XUO$EREF;
      954    10449        %EOD;

PL6.E3A0      #004=XUO$EREF File=XUO$BUILD.:E05TSI                               WED 07/30/97 09:25 Page:103
--  Include file information  --

   XUO$OBJ_C.:E05TOU  is referenced.
   B$OBJECT_C.:E05TOU  is referenced.
   CP_6_SUBS.:E05TOU  is referenced.
   CP_6_C.:E05TOU  is referenced.
   CP_6.:E05TOU  cannot be made into a system file and is referenced.
   ZVA_FLAGS.:TOOLE04  is referenced.
   ZVA_SYSTEM_FILE.:TOOLE04  is referenced.
      No diagnostics issued in procedure XUO$EREF.

   Procedure XUO$EREF requires 48 words for executable code.
   Procedure XUO$EREF requires 12 words of local(AUTO) storage.

PL6.E3A0      #004=XUO$EREF File=XUO$BUILD.:E05TSI                               WED 07/30/97 09:25 Page:104

 Object Unit name= XUO$EREF                                   File name= XUO$BUILD.:E05TOU
 UTS= JUL 30 '97 09:25:17.64 WED                              Compiler= PL-6/E31         Sev=      00
 SharedLib= :SHARED_SYSTEM                                    Alt SharedLib=


    ****  Control sections  ****

 Sect   Type Bound  Init  Size OctSiz  Section name(segment info)
    0   DCB   even  none     0      0  M$UC
    1   Proc  even  none    48     60  XUO$EREF
    2  RoData even  none     1      1  XUO$EREF

    ****  Entry defs  ****

                              Check   Calling
                             calling  sequence
  Sect OctLoc Primary Altret sequence   type   Parms  Name
     1      0   yes            yes      Std        7  XUO$EREF

  ****  Entry refs  ****

         Check        Calling
        calling       sequence
Altret sequence SRef   type   Args  Name
         yes           Std       2 XUO$OUWRITE
                       nStd      0 X66_AUTO_N
                       Std       0 B_CONSPOOL_D
                       nStd      0 X66_ARET

  ****  Data refs  ****

  Flags:  r = read only, s = secondary
Flgs Name                             Flgs Name                             Flgs Name
     M$UC                                  B_EREF_BASE$                          B_EREF_CUR$
     B_EREF_END$                           B_EREF_COUNT                          B_EREF_PAGE
     B_VECTNIL
PL6.E3A0      #004=XUO$EREF File=XUO$BUILD.:E05TSI                               WED 07/30/97 09:25 Page:105

  ****  Segment refs  ****

  Flags:  r = read only, s = secondary
Flgs Name                             Flgs Name                             Flgs Name
     ISSID
PL6.E3A0      #004=XUO$EREF File=XUO$BUILD.:E05TSI                               WED 07/30/97 09:25 Page:106


      802        1        /*M*     XUO$EREF -- THIS MODULE WILL BUILD OBJECT UNIT ENTREF RECORDS*/
      803        2        /*T***********************************************************/
      804        3        /*T*                                                         */
      805        4        /*T* Copyright (c) Bull HN Information Systems Inc., 1997    */
      806        5        /*T*                                                         */
      807        6        /*T***********************************************************/
      808        7        /*P*
      809        8
      810        9
      811       10        NAME:  XUO$EREF
      812       11               XUO$EREF --External Procedure Reference (Record Type 5)
      813       12
      814       13        PURPOSE:  To build an entry in the External Procedure Reference record
      815       14
      816       15        DESCRIPTION:  This routine builds an entry in the External
      817       16             Procedure Reference Record.  There is one record
      818       17             per object unit for external procedure references.
      819       18             There is one entry per name.
      820       19
      821       20        */
      822       21        /*D*
      823       22        CALL:  CALL XUO$EREF(Name Pointer,
      824       23                      Secondary Reference Flag,
      825       24                      Altreturn Flag,
      826       25                      Argument Check Flag,
      827       26                      Call Type,
      828       27                      Number Arguments,
      829       28                      Eref Number)
      830       29
      831       30        INPUT:
      832       31            Name Pointer        SBIN
      833       32                                The word displacement into the record of
      834       33                                referenced names (Record Type 2) locating
      835       34                                the name.
      836       35            Secondary Reference Flag BIT(1) UNALIGNED
      837       36                                Indicates that the reference is a secondary
PL6.E3A0      #004=XUO$EREF File=XUO$BUILD.:E05TSI                               WED 07/30/97 09:25 Page:107
      838       37                                reference and should not cause loading of a
      839       38                                library routine.
      840       39            Altreturn Flag      BIT(1) UNALIGNED
      841       40                                Denotes permissible alternate return.
      842       41                                   0 - alternate return not allowed
      843       42                                   1 - alternate return allowed
      844       43            Argument Check Flag BIT(1) UNALIGNED
      845       44                                Denotes arguments/parameter check and alternate
      846       45                                return specification check.
      847       46                                   0 - do not check for matching arguments/
      848       47                                       parameters and alternate return
      849       48                                       specification
      850       49                                   1 - check for matching arguments/parameters
      851       50                                       and alternate return specification
      852       51           Call Type            UBIN
      853       52                                Denotes the calling sequence type
      854       53                                   0 = Standard CP-6 Callable Procedure
      855       54                                   1 = Nonstandard Call Type
      856       55                                   2 = Standard CP-6 Procedure with
      857       56                                       MAIN attribute
      858       57                                   3 = Standard CP-6 Procedure with
      859       58                                        ASYNC attribute
      860       59                                   4 = Standard CP-6 Function Procedure;
      861       60                                        a variable table entry will be
      862       61                                        present to define the attributes
      863       62                                        of the function.
      864       63                                   5 = Same as 0, except USE, AVOID, or
      865       64                                       MATERIALIZE attributes specified
      866       65                                   7 = Same as 2, except USE, AVOID, or
      867       66                                       MATERIALIZE attributes specified
      868       67                                   8 = Same as 3, except USE, AVOID, or
      869       68                                       MATERIALIZE attributes specified
      870       69                                   9 = Same as 4, except USE, AVOID, or
      871       70                                       MATERIALIZE attributes specified
      872       71                                  13 = GCOS domain, save
      873       72                                  14 = GCOS domain, no save
      874       73                                  15 = Non-Callable Procedure.
PL6.E3A0      #004=XUO$EREF File=XUO$BUILD.:E05TSI                               WED 07/30/97 09:25 Page:108
      875       74           Number Arguments    UBIN
      876       75                               Denotes the number of parameters
      877       76
      878       77        OUTPUT:
      879       78           Eref Number         UBIN
      880       79                               The table entry number for the current External
      881       80                               Procedure Reference to be entered into the
      882       81                               External Procedure Reference record.  This value
      883       82                               is returned by the called routine.
      884       83
      885       84        B$OBJECT REFERENCE:  B$EREF
      886       85        */
      887       86        /*B*
      888       87        GLOBAL DATA:
      889       88            B_EREF_CUR$
      890       89            B_EREF_COUNT
      891       90            B_EREF_PAGE
      892       91
      893       92        INTERFACE:
      894       93            XUO$OUWRITE
      895       94
      896       95        */
      897       96
      898       97        XUO$EREF: PROC (P_NAME_POINTER,P_SREF_FLAG,P_ALTRETURN_FLAG,P_ARGUMENT_CHECK_FLAG,
                97            P_CALL_TYPE,

     97  1 000000   000000 700200 xent  XUO$EREF     TSX0  ! X66_AUTO_N
         1 000001   000014 000007                    ZERO    12,7

      899       98               P_NUMBER_ARGUMENTS,P_EREF_NUMBER);
      900       99         /*
      901      100            */
      902      101        %INCLUDE ZVA_SYSTEM_FILE;
      903     6352            %PAGE (ARG=INCLUDE);

              6365    1   /*******************************************************************************
              6366    1   *                                                                              *
PL6.E3A0      #004=XUO$EREF File=XUO$BUILD.:E05TSI                               WED 07/30/97 09:25 Page:109
              6367    1   *        INCLUDE              INCLUDE                                             *
              6368    1   *                                                                              *
              6369    1   *******************************************************************************/

      904     6373        %INCLUDE B$OBJECT_C;
      905     9803        %INCLUDE XUO$OBJ_C;
      906    10213            %PAGE (ARG=SUBS);

             10226    1   /*******************************************************************************
             10227    1   *                                                                              *
             10228    1   *        SUBS              SUBS                                                  *
             10229    1   *                                                                              *
             10230    1   *******************************************************************************/

      907    10234            %B$RECORDSUBS;
      908    10262        %PLIST;
      909    10263            %PAGE (ARG=PARAMETERS);

             10276    1   /*******************************************************************************
             10277    1   *                                                                              *
             10278    1   *        PARAMETERS              PARAMETERS                                       *
             10279    1   *                                                                              *
             10280    1   *******************************************************************************/

      910    10284    1   DCL P_NAME_POINTER SBIN;
      911    10285    1   DCL P_SREF_FLAG BIT(1) UNAL;
      912    10286    1   DCL P_ALTRETURN_FLAG BIT(1) UNAL;
      913    10287    1   DCL P_ARGUMENT_CHECK_FLAG BIT(1) UNAL;
      914    10288    1   DCL P_CALL_TYPE UBIN;
      915    10289    1   DCL P_NUMBER_ARGUMENTS UBIN;
      916    10290    1   DCL P_EREF_NUMBER UBIN;
      917    10291         /*
      918    10292            */
      919    10293        %PAGE (ARG=PROC REF DATA);

             10306    1   /*******************************************************************************
             10307    1   *                                                                              *
PL6.E3A0      #004=XUO$EREF File=XUO$BUILD.:E05TSI                               WED 07/30/97 09:25 Page:110
             10308    1   *        PROC REF DATA              PROC REF DATA                                 *
             10309    1   *                                                                              *
             10310    1   *******************************************************************************/

      920    10314        %B$EREF (STCLASS="BASED(EREF_CUR$)");
      921    10357        %B_EREF_POINTERS;
      922    10377    1   DCL EREF_CUR$ PTR;
      923    10378        %PLIST;
      924    10379        %PAGE (ARG=ENTRY DCLS);

             10392    1   /*******************************************************************************
             10393    1   *                                                                              *
             10394    1   *        ENTRY DCLS              ENTRY DCLS                                       *
             10395    1   *                                                                              *
             10396    1   *******************************************************************************/

      925    10400    1   DCL XUO$OUWRITE ENTRY(2);
      926    10401        %PAGE (ARG=CODE);

             10414    1   /*******************************************************************************
             10415    1   *                                                                              *
             10416    1   *        CODE              CODE                                                  *
             10417    1   *                                                                              *
             10418    1   *******************************************************************************/

      927    10422         /*
      928    10423         The following will check to see if the passed information will
      929    10424         fit in the current record. If not, the current record will be
      930    10425         written and pointer re-initialized. Then the text will be moved
      931    10426         to the buffer.
      932    10427         */
      933    10428    1       IF B_EREF_CUR$>=B_EREF_END$ THEN

  10428  1 000002   000000 236000 xsym               LDQ     B_EREF_CUR$
         1 000003   000000 116000 xsym               CMPQ    B_EREF_END$
         1 000004   000014 602000 1                  TNC     s:10437

PL6.E3A0      #004=XUO$EREF File=XUO$BUILD.:E05TSI                               WED 07/30/97 09:25 Page:111
      934    10429    2       DO;

      935    10430    2           CALL XUO$OUWRITE(%TYPEREF);

  10430  1 000005   000000 630400 2                  EPPR0   0
         1 000006   000017 631400 xsym               EPPR1   B_VECTNIL+15
         1 000007   000000 701000 xent               TSX1    XUO$OUWRITE
         1 000010   000000 011000                    NOP     0

      936    10431    2           B_EREF_PAGE=B_EREF_PAGE+1;

  10431  1 000011   000000 054000 xsym               AOS     B_EREF_PAGE

      937    10432    2           B_EREF_CUR$=B_EREF_BASE$;

  10432  1 000012   000000 236000 xsym               LDQ     B_EREF_BASE$
         1 000013   000000 756000 xsym               STQ     B_EREF_CUR$

      938    10433    2           END;

      939    10434         /*
      940    10435         The following will build the procedure entry reference.
      941    10436         */
      942    10437    1       EREF_CUR$=B_EREF_CUR$;

  10437  1 000014   200012 756100                    STQ     EREF_CUR$,,AUTO

      943    10438    1       B$EREF.NPOINTER=P_NAME_POINTER;

  10438  1 000015   200003 470500                    LDP0    @P_NAME_POINTER,,AUTO
         1 000016   000000 720100                    LXL0    0,,PR0
         1 000017   200012 471500                    LDP1    EREF_CUR$,,AUTO
         1 000020   100000 740100                    STX0    0,,PR1

      944    10439    1       B$EREF.SREF=P_SREF_FLAG;

  10439  1 000021   200004 473500                    LDP3    @P_SREF_FLAG,,AUTO
PL6.E3A0      #004=XUO$EREF File=XUO$BUILD.:E05TSI                               WED 07/30/97 09:25 Page:112
         1 000022   003100 060500                    CSL     bolr='003'O
         1 000023   300000 000001                    BDSC    0,,PR3                   by=0,bit=0,n=1
         1 000024   100000 400001                    BDSC    0,,PR1                   by=2,bit=0,n=1

      945    10440    1       B$EREF.ALT=P_ALTRETURN_FLAG;

  10440  1 000025   200005 474500                    LDP4    @P_ALTRETURN_FLAG,,AUTO
         1 000026   003100 060500                    CSL     bolr='003'O
         1 000027   400000 000001                    BDSC    0,,PR4                   by=0,bit=0,n=1
         1 000030   100000 410001                    BDSC    0,,PR1                   by=2,bit=1,n=1

      946    10441    1       B$EREF.CHECK=P_ARGUMENT_CHECK_FLAG;

  10441  1 000031   200006 475500                    LDP5    @P_ARGUMENT_CHECK_FLAG,,AUTO
         1 000032   003100 060500                    CSL     bolr='003'O
         1 000033   500000 000001                    BDSC    0,,PR5                   by=0,bit=0,n=1
         1 000034   100000 420001                    BDSC    0,,PR1                   by=2,bit=2,n=1

      947    10442    1       B$EREF.CST=P_CALL_TYPE;

  10442  1 000035   200007 476500                    LDP6    @P_CALL_TYPE,,AUTO
         1 000036   600000 236100                    LDQ     0,,PR6
         1 000037   000013 736000                    QLS     11
         1 000040   100000 676100                    ERQ     0,,PR1
         1 000041   074000 376007                    ANQ     30720,DL
         1 000042   100000 656100                    ERSQ    0,,PR1

      948    10443    1       B$EREF.NPARAM=P_NUMBER_ARGUMENTS;

  10443  1 000043   200010 477500                    LDP7    @P_NUMBER_ARGUMENTS,,AUTO
         1 000044   700000 236100                    LDQ     0,,PR7
         1 000045   100000 676100                    ERQ     0,,PR1
         1 000046   003777 376007                    ANQ     2047,DL
         1 000047   100000 656100                    ERSQ    0,,PR1

      949    10444    1       B_EREF_COUNT=B_EREF_COUNT+1;

PL6.E3A0      #004=XUO$EREF File=XUO$BUILD.:E05TSI                               WED 07/30/97 09:25 Page:113
  10444  1 000050   000000 054000 xsym               AOS     B_EREF_COUNT

      950    10445    1       P_EREF_NUMBER=B_EREF_COUNT;

  10445  1 000051   000000 235000 xsym               LDA     B_EREF_COUNT
         1 000052   200011 470500                    LDP0    @P_EREF_NUMBER,,AUTO
         1 000053   000000 755100                    STA     0,,PR0

      951    10446    1       B_EREF_CUR$=PINCRW(B_EREF_CUR$,SIZEW(B$EREF));

  10446  1 000054   000000 236000 xsym               LDQ     B_EREF_CUR$
         1 000055   000001 036003                    ADLQ    1,DU
         1 000056   000000 756000 xsym               STQ     B_EREF_CUR$

      952    10447    1       RETURN;

  10447  1 000057   000000 702200 xent               TSX2  ! X66_ARET
      953    10448    1   END XUO$EREF;
      954    10449        %EOD;

PL6.E3A0      #004=XUO$EREF File=XUO$BUILD.:E05TSI                               WED 07/30/97 09:25 Page:114
--  Include file information  --

   XUO$OBJ_C.:E05TOU  is referenced.
   B$OBJECT_C.:E05TOU  is referenced.
   CP_6_SUBS.:E05TOU  is referenced.
   CP_6_C.:E05TOU  is referenced.
   CP_6.:E05TOU  cannot be made into a system file and is referenced.
   ZVA_FLAGS.:TOOLE04  is referenced.
   ZVA_SYSTEM_FILE.:TOOLE04  is referenced.
      No diagnostics issued in procedure XUO$EREF.
PL6.E3A0      #004=XUO$EREF File=XUO$BUILD.:E05TSI                               WED 07/30/97 09:25 Page:115

 **** Variables and constants ****

  ****  Auto variables  ****

  ****  Scalars and arrays  ****
OctLoc.c.b A Datatyp(siz) R M Lvl/name                 OctLoc.c.b A Datatyp(siz) R M Lvl/name

     5-0-0/w PTR         r     1 @P_ALTRETURN_FLAG
     6-0-0/w PTR         r     1 @P_ARGUMENT_CHECK_FLAG
     7-0-0/w PTR         r     1 @P_CALL_TYPE              11-0-0/w PTR         r     1 @P_EREF_NUMBER
     3-0-0/w PTR         r     1 @P_NAME_POINTER           10-0-0/w PTR         r     1 @P_NUMBER_ARGUMENTS
     4-0-0/w PTR         r     1 @P_SREF_FLAG              12-0-0/w PTR         r     1 EREF_CUR$
    *0-0-0/b BIT         r     1 P_ALTRETURN_FLAG
    *0-0-0/b BIT         r     1 P_ARGUMENT_CHECK_FLAG
    *0-0-0/w UBIN        r     1 P_CALL_TYPE               *0-0-0/w UBIN        r     1 P_EREF_NUMBER
    *0-0-0/w SBIN        r     1 P_NAME_POINTER            *0-0-0/w UBIN        r     1 P_NUMBER_ARGUMENTS
    *0-0-0/b BIT         r     1 P_SREF_FLAG

  ****  SYMREF variables  ****

  ****  Scalars and arrays  ****
OctLoc.c.b A Datatyp(siz) R M Lvl/name                 OctLoc.c.b A Datatyp(siz) R M Lvl/name

     0-0-0/w PTR         r     1 B_EREF_BASE$               0-0-0/w SBIN        r     1 B_EREF_COUNT
     0-0-0/w PTR         r     1 B_EREF_CUR$                0-0-0/w PTR         r     1 B_EREF_END$
     0-0-0/w SBIN        r     1 B_EREF_PAGE

  ****  BASED and DCB variables  ****

  ****  Scalars and arrays  ****
OctLoc.c.b A Datatyp(siz) R M Lvl/name                 OctLoc.c.b A Datatyp(siz) R M Lvl/name

     0-0-0/w STRC        r     1 B$EREF


   Procedure XUO$EREF requires 48 words for executable code.
PL6.E3A0      #004=XUO$EREF File=XUO$BUILD.:E05TSI                               WED 07/30/97 09:25 Page:116
   Procedure XUO$EREF requires 12 words of local(AUTO) storage.
PL6.E3A0      #004=XUO$EREF File=XUO$BUILD.:E05TSI                               WED 07/30/97 09:25 Page:117
          *** CROSS REFERENCE LISTING ***
**     DENOTES     IDENTIFIER DEFINITION
<<                 IDENTIFIER'S VALUE SET
>>                 IDENTIFIER'S VALUE USED
<>                 IDENTIFIER SET AND/OR USED
--                 IDENTIFIER REFERENCED
PL6.E3A0      #004=XUO$EREF File=XUO$BUILD.:E05TSI                               WED 07/30/97 09:25 Page:118
          MINI XREF LISTING

B$EREF
     10315**DCL     10446--ASSIGN
B$EREF.ALT
     10322**DCL     10440<<ASSIGN
B$EREF.CHECK
     10326**DCL     10441<<ASSIGN
B$EREF.CST
     10334**DCL     10442<<ASSIGN
B$EREF.NPARAM
     10354**DCL     10443<<ASSIGN
B$EREF.NPOINTER
     10316**DCL     10438<<ASSIGN
B$EREF.SREF
     10319**DCL     10439<<ASSIGN
B_EREF_BASE$
     10369**DCL     10432>>ASSIGN
B_EREF_COUNT
     10372**DCL     10444<<ASSIGN  10444>>ASSIGN  10445>>ASSIGN
B_EREF_CUR$
     10370**DCL     10428>>IF      10432<<ASSIGN  10437>>ASSIGN  10446<<ASSIGN  10446>>ASSIGN
B_EREF_END$
     10371**DCL     10428>>IF
B_EREF_PAGE
     10373**DCL     10431<<ASSIGN  10431>>ASSIGN
EREF_CUR$
     10377**DCL     10315--IMP-PTR 10437<<ASSIGN  10438>>ASSIGN  10439>>ASSIGN  10440>>ASSIGN  10441>>ASSIGN
     10442>>ASSIGN  10443>>ASSIGN
P_ALTRETURN_FLAG
     10286**DCL        97--PROC    10440>>ASSIGN
P_ARGUMENT_CHECK_FLAG
     10287**DCL        97--PROC    10441>>ASSIGN
P_CALL_TYPE
PL6.E3A0      #004=XUO$EREF File=XUO$BUILD.:E05TSI                               WED 07/30/97 09:25 Page:119
     10288**DCL        97--PROC    10442>>ASSIGN
P_EREF_NUMBER
     10290**DCL        97--PROC    10445<<ASSIGN
P_NAME_POINTER
     10284**DCL        97--PROC    10438>>ASSIGN
P_NUMBER_ARGUMENTS
     10289**DCL        97--PROC    10443>>ASSIGN
P_SREF_FLAG
     10285**DCL        97--PROC    10439>>ASSIGN
XUO$OUWRITE
     10400**DCL-ENT 10430--CALL

PL6.E3A0      #005=XUO$SDEF File=XUO$BUILD.:E05TSI                               WED 07/30/97 09:25 Page:120
      955        1        /*M*     XUO$SDEF -- THIS MODULE WILL BUILD OBJECT UNIT SYMDEF RECORDS*/
      956        2        /*T***********************************************************/
      957        3        /*T*                                                         */
      958        4        /*T* Copyright (c) Bull HN Information Systems Inc., 1997    */
      959        5        /*T*                                                         */
      960        6        /*T***********************************************************/
      961        7        /*P*
      962        8
      963        9
      964       10        NAME:  XUO$SDEF
      965       11               XUO$SDEF --External Data Definition Record (Record Type 6)
      966       12
      967       13        PURPOSE:  To build an entry in the External Data Definition Record
      968       14
      969       15        DESCRIPTION:  This routine builds an entry in the External
      970       16            Data Definition record for NON constant entries.
      971       17
      972       18        */
      973       19        /*D*
      974       20
      975       21        CALL:  CALL XUO$SDEF (Name Pointer,
      976       22                       Section  Number,
      977       23                       Section Offset)
      978       24
      979       25        INPUT:
      980       26            Name Pointer        UBIN ALIGNED
      981       27                                Word offset into the Externally
      982       28                                Defined names record (type 1)
      983       29                                locating the name.
      984       30            Section Number      UBIN ALIGNED
      985       31                                An entry into the Control Section
      986       32                                record.
      987       33            Section Offset      UBIN ALIGNED
      988       34                                Word offset from the origin of
      989       35                                the section.
      990       36
      991       37        OUTPUT:  none
PL6.E3A0      #005=XUO$SDEF File=XUO$BUILD.:E05TSI                               WED 07/30/97 09:25 Page:121
      992       38
      993       39        B$OBJECT REFERENCE:  B$SDEF
      994       40        */
      995       41        /*B*
      996       42        GLOBAL DATA:
      997       43            B_SDEF_CUR$
      998       44            B_SDEF_COUNT
      999       45            B_SDEF_PAGE
     1000       46
     1001       47        INTERFACE:
     1002       48            XUO$OUWRITE
     1003       49
     1004       50        */
     1005       51
     1006       52        XUO$SDEF: PROC(P_NAME_POINTER,P_PARAM2,P_SECTION_OFFSET);
     1007       53         /*
     1008       54            */
     1009       55        %INCLUDE ZVA_SYSTEM_FILE;
     1010     6306        %PAGE (ARG=INCLUDES);

              6319    1   /*******************************************************************************
              6320    1   *                                                                              *
              6321    1   *        INCLUDES              INCLUDES                                            *
              6322    1   *                                                                              *
              6323    1   *******************************************************************************/

     1011     6327        %INCLUDE B$OBJECT_C;
     1012     9757        %INCLUDE XUO$OBJ_C;
     1013    10167        %PAGE (ARG=SUBS);

             10180    1   /*******************************************************************************
             10181    1   *                                                                              *
             10182    1   *        SUBS              SUBS                                                  *
             10183    1   *                                                                              *
             10184    1   *******************************************************************************/

     1014    10188        %B$RECORDSUBS;
PL6.E3A0      #005=XUO$SDEF File=XUO$BUILD.:E05TSI                               WED 07/30/97 09:25 Page:122
     1015    10216        %PLIST;
     1016    10217        %PAGE (ARG=PARAMTERS);

             10230    1   /*******************************************************************************
             10231    1   *                                                                              *
             10232    1   *        PARAMTERS              PARAMTERS                                          *
             10233    1   *                                                                              *
             10234    1   *******************************************************************************/

     1017    10238    1   DCL P_NAME_POINTER SBIN;
     1018    10239    1   DCL P_PARAM2 UBIN;
     1019    10240         /*
     1020    10241         The following definition is for XUO$SDEF
     1021    10242            */
     1022    10243    1   DCL P_SECTION_NUMBER REDEF P_PARAM2 UBIN;
     1023    10244         /*
     1024    10245         The following definition is for XUO$SDEF_CONST
     1025    10246         */
     1026    10247    1   DCL P_CONST_VALUE REDEF P_PARAM2 UBIN;
     1027    10248         /**/
     1028    10249    1   DCL P_SECTION_OFFSET UBIN;
     1029    10250         /*
     1030    10251            */
     1031    10252        %PAGE (ARG=SDEF DATA);

             10265    1   /*******************************************************************************
             10266    1   *                                                                              *
             10267    1   *        SDEF DATA              SDEF DATA                                          *
             10268    1   *                                                                              *
             10269    1   *******************************************************************************/

     1032    10273        %B$SDEF (STCLASS="BASED(B_SDEF_CUR$)");
     1033    10327        %B_SDEF_POINTERS;
     1034    10347        %PLIST;
     1035    10348        %PAGE (ARG=ENTRY DCLS);

             10361    1   /*******************************************************************************
PL6.E3A0      #005=XUO$SDEF File=XUO$BUILD.:E05TSI                               WED 07/30/97 09:25 Page:123
             10362    1   *                                                                              *
             10363    1   *        ENTRY DCLS              ENTRY DCLS                                        *
             10364    1   *                                                                              *
             10365    1   *******************************************************************************/

     1036    10369    1   DCL XUO$OUWRITE ENTRY(2);
     1037    10370        %PAGE (ARG=LOCAL DATA);

             10383    1   /*******************************************************************************
             10384    1   *                                                                              *
             10385    1   *        LOCAL DATA              LOCAL DATA                                        *
             10386    1   *                                                                              *
             10387    1   *******************************************************************************/

     1038    10391    1   DCL SDEF_CONSTANT_FLAG BIT(1); /*0->XUO$SDEF*/
     1039    10392         /*1->XUO$SDEF_CONST*/
     1040    10393        %PAGE (ARG=CODE);

             10406    1   /*******************************************************************************
             10407    1   *                                                                              *
             10408    1   *        CODE              CODE                                                  *
             10409    1   *                                                                              *
             10410    1   *******************************************************************************/

     1041    10414    1       SDEF_CONSTANT_FLAG='0'B;
     1042    10415    1       GOTO SDEF_COMMON;
     1043    10416        /*D*
     1044    10417
     1045    10418        XUO$SDEF_CONST --External Data Definition Record (Record Type 6)
     1046    10419
     1047    10420        NAME:  XUO$SDEF_CONST
     1048    10421
     1049    10422        PURPOSE:  To build an entry in the External Data Definition Record
     1050    10423
     1051    10424        DESCRIPTION:  This routine generates entries in the External
     1052    10425            Data Definition record for constant entries.
     1053    10426
PL6.E3A0      #005=XUO$SDEF File=XUO$BUILD.:E05TSI                               WED 07/30/97 09:25 Page:124
     1054    10427        CALL:  CALL XUO$SDEF_CONST (Name Pointer,
     1055    10428                             Constant Value)
     1056    10429
     1057    10430        INPUT:
     1058    10431            Name Pointer        UBIN ALIGNED
     1059    10432                                Word offset into the Externally
     1060    10433                                Defined names record (type 1)
     1061    10434                                locating the name.
     1062    10435            Constant Value      UBIN ALIGNED
     1063    10436                                The constant SYMDEF
     1064    10437
     1065    10438        OUTPUT:  none
     1066    10439
     1067    10440        B$OBJECT REFERENCE:  B$SDEF
     1068    10441        */
     1069    10442
     1070    10443        /*B*
     1071    10444        GLOBAL DATA:
     1072    10445            B_SDEF_CUR$
     1073    10446            B_SDEF_COUNT
     1074    10447            B_SDEF_PAGE
     1075    10448
     1076    10449        INTERFACE:
     1077    10450            XUO$OUWRITE
     1078    10451
     1079    10452        */
     1080    10453
     1081    10454    1   XUO$SDEF_CONST: ENTRY(P_NAME_POINTER,P_PARAM2);
     1082    10455         /*
     1083    10456            */
     1084    10457    1       SDEF_CONSTANT_FLAG='1'B;
     1085    10458         /*
     1086    10459            */
     1087    10460    1   SDEF_COMMON: ;
     1088    10461         /*
     1089    10462         The following will check to see if the passed information will
     1090    10463         fit in the current record. If not, the current record will be
PL6.E3A0      #005=XUO$SDEF File=XUO$BUILD.:E05TSI                               WED 07/30/97 09:25 Page:125
     1091    10464         written and pointer re-initialized. Then the text will be moved
     1092    10465         to the buffer.
     1093    10466         */
     1094    10467    1       IF B_SDEF_CUR$>=B_SDEF_END$ THEN
     1095    10468    2       DO;
     1096    10469    2           CALL XUO$OUWRITE(%TYPSDEF);
     1097    10470    2           B_SDEF_PAGE=B_SDEF_PAGE+1;
     1098    10471    2           B_SDEF_CUR$=B_SDEF_BASE$;
     1099    10472    2           END;
     1100    10473         /*
     1101    10474         The following will build the symdef data table.
     1102    10475         */
     1103    10476    1       IF SDEF_CONSTANT_FLAG THEN
     1104    10477    2       DO;
     1105    10478    2           B$SDEF.VALUE=P_CONST_VALUE;
     1106    10479    2           B$SDEF.CONSTNT='1'B;
     1107    10480    2           END;
     1108    10481    1       ELSE
     1109    10482    2       DO;
     1110    10483    2           B$SDEF.AD.OU.SECTNUM=P_SECTION_NUMBER;
     1111    10484    2           B$SDEF.AD.OU.OFFSET=P_SECTION_OFFSET;
     1112    10485    2           END;
     1113    10486    1       B$SDEF.NPOINTER=P_NAME_POINTER;
     1114    10487    1       B_SDEF_COUNT=B_SDEF_COUNT+1;
     1115    10488    1       B_SDEF_CUR$=PINCRW(B_SDEF_CUR$,SIZEW(B$SDEF));
     1116    10489    1       RETURN;
     1117    10490    1   END XUO$SDEF;
     1118    10491        %EOD;

PL6.E3A0      #005=XUO$SDEF File=XUO$BUILD.:E05TSI                               WED 07/30/97 09:25 Page:126
--  Include file information  --

   XUO$OBJ_C.:E05TOU  is referenced.
   B$OBJECT_C.:E05TOU  is referenced.
   CP_6_SUBS.:E05TOU  is referenced.
   CP_6_C.:E05TOU  is referenced.
   CP_6.:E05TOU  cannot be made into a system file and is referenced.
   ZVA_FLAGS.:TOOLE04  is referenced.
   ZVA_SYSTEM_FILE.:TOOLE04  is referenced.
      No diagnostics issued in procedure XUO$SDEF.

   Procedure XUO$SDEF requires 46 words for executable code.
   Procedure XUO$SDEF requires 8 words of local(AUTO) storage.

PL6.E3A0      #005=XUO$SDEF File=XUO$BUILD.:E05TSI                               WED 07/30/97 09:25 Page:127

 Object Unit name= XUO$SDEF                                   File name= XUO$BUILD.:E05TOU
 UTS= JUL 30 '97 09:25:48.48 WED                              Compiler= PL-6/E31         Sev=      00
 SharedLib= :SHARED_SYSTEM                                    Alt SharedLib=


    ****  Control sections  ****

 Sect   Type Bound  Init  Size OctSiz  Section name(segment info)
    0   DCB   even  none     0      0  M$UC
    1   Proc  even  none    46     56  XUO$SDEF
    2  RoData even  none     1      1  XUO$SDEF

    ****  Entry defs  ****

                              Check   Calling
                             calling  sequence
  Sect OctLoc Primary Altret sequence   type   Parms  Name
     1      0   yes            yes      Std        3  XUO$SDEF
     1      4                  yes      Std        2  XUO$SDEF_CONST

  ****  Entry refs  ****

         Check        Calling
        calling       sequence
Altret sequence SRef   type   Args  Name
         yes           Std       2 XUO$OUWRITE
                       nStd      0 X66_AUTO_3
                       Std       0 B_CONSPOOL_D
                       nStd      0 X66_ARET
PL6.E3A0      #005=XUO$SDEF File=XUO$BUILD.:E05TSI                               WED 07/30/97 09:25 Page:128

  ****  Data refs  ****

  Flags:  r = read only, s = secondary
Flgs Name                             Flgs Name                             Flgs Name
     M$UC                                  B_SDEF_BASE$                          B_SDEF_CUR$
     B_SDEF_END$                           B_SDEF_COUNT                          B_SDEF_PAGE
     B_VECTNIL

  ****  Segment refs  ****

  Flags:  r = read only, s = secondary
Flgs Name                             Flgs Name                             Flgs Name
     ISSID
PL6.E3A0      #005=XUO$SDEF File=XUO$BUILD.:E05TSI                               WED 07/30/97 09:25 Page:129


      955        1        /*M*     XUO$SDEF -- THIS MODULE WILL BUILD OBJECT UNIT SYMDEF RECORDS*/
      956        2        /*T***********************************************************/
      957        3        /*T*                                                         */
      958        4        /*T* Copyright (c) Bull HN Information Systems Inc., 1997    */
      959        5        /*T*                                                         */
      960        6        /*T***********************************************************/
      961        7        /*P*
      962        8
      963        9
      964       10        NAME:  XUO$SDEF
      965       11               XUO$SDEF --External Data Definition Record (Record Type 6)
      966       12
      967       13        PURPOSE:  To build an entry in the External Data Definition Record
      968       14
      969       15        DESCRIPTION:  This routine builds an entry in the External
      970       16            Data Definition record for NON constant entries.
      971       17
      972       18        */
      973       19        /*D*
      974       20
      975       21        CALL:  CALL XUO$SDEF (Name Pointer,
      976       22                       Section  Number,
      977       23                       Section Offset)
      978       24
      979       25        INPUT:
      980       26            Name Pointer        UBIN ALIGNED
      981       27                                Word offset into the Externally
      982       28                                Defined names record (type 1)
      983       29                                locating the name.
      984       30            Section Number      UBIN ALIGNED
      985       31                                An entry into the Control Section
      986       32                                record.
      987       33            Section Offset      UBIN ALIGNED
      988       34                                Word offset from the origin of
      989       35                                the section.
      990       36
PL6.E3A0      #005=XUO$SDEF File=XUO$BUILD.:E05TSI                               WED 07/30/97 09:25 Page:130
      991       37        OUTPUT:  none
      992       38
      993       39        B$OBJECT REFERENCE:  B$SDEF
      994       40        */
      995       41        /*B*
      996       42        GLOBAL DATA:
      997       43            B_SDEF_CUR$
      998       44            B_SDEF_COUNT
      999       45            B_SDEF_PAGE
     1000       46
     1001       47        INTERFACE:
     1002       48            XUO$OUWRITE
     1003       49
     1004       50        */
     1005       51
     1006       52        XUO$SDEF: PROC(P_NAME_POINTER,P_PARAM2,P_SECTION_OFFSET);

     52  1 000000   000000 700200 xent  XUO$SDEF     TSX0  ! X66_AUTO_3
         1 000001   000010 000003                    ZERO    8,3

     1007       53         /*
     1008       54            */
     1009       55        %INCLUDE ZVA_SYSTEM_FILE;
     1010     6306        %PAGE (ARG=INCLUDES);

              6319    1   /*******************************************************************************
              6320    1   *                                                                              *
              6321    1   *        INCLUDES              INCLUDES                                           *
              6322    1   *                                                                              *
              6323    1   *******************************************************************************/

     1011     6327        %INCLUDE B$OBJECT_C;
     1012     9757        %INCLUDE XUO$OBJ_C;
     1013    10167        %PAGE (ARG=SUBS);

             10180    1   /*******************************************************************************
             10181    1   *                                                                              *
PL6.E3A0      #005=XUO$SDEF File=XUO$BUILD.:E05TSI                               WED 07/30/97 09:25 Page:131
             10182    1   *        SUBS              SUBS                                                  *
             10183    1   *                                                                              *
             10184    1   *******************************************************************************/

     1014    10188        %B$RECORDSUBS;
     1015    10216        %PLIST;
     1016    10217        %PAGE (ARG=PARAMTERS);

             10230    1   /*******************************************************************************
             10231    1   *                                                                              *
             10232    1   *        PARAMTERS              PARAMTERS                                         *
             10233    1   *                                                                              *
             10234    1   *******************************************************************************/

     1017    10238    1   DCL P_NAME_POINTER SBIN;
     1018    10239    1   DCL P_PARAM2 UBIN;
     1019    10240         /*
     1020    10241         The following definition is for XUO$SDEF
     1021    10242            */
     1022    10243    1   DCL P_SECTION_NUMBER REDEF P_PARAM2 UBIN;
     1023    10244         /*
     1024    10245         The following definition is for XUO$SDEF_CONST
     1025    10246         */
     1026    10247    1   DCL P_CONST_VALUE REDEF P_PARAM2 UBIN;
     1027    10248         /**/
     1028    10249    1   DCL P_SECTION_OFFSET UBIN;
     1029    10250         /*
     1030    10251            */
     1031    10252        %PAGE (ARG=SDEF DATA);

             10265    1   /*******************************************************************************
             10266    1   *                                                                              *
             10267    1   *        SDEF DATA              SDEF DATA                                         *
             10268    1   *                                                                              *
             10269    1   *******************************************************************************/

     1032    10273        %B$SDEF (STCLASS="BASED(B_SDEF_CUR$)");
PL6.E3A0      #005=XUO$SDEF File=XUO$BUILD.:E05TSI                               WED 07/30/97 09:25 Page:132
     1033    10327        %B_SDEF_POINTERS;
     1034    10347        %PLIST;
     1035    10348        %PAGE (ARG=ENTRY DCLS);

             10361    1   /*******************************************************************************
             10362    1   *                                                                              *
             10363    1   *        ENTRY DCLS              ENTRY DCLS                                       *
             10364    1   *                                                                              *
             10365    1   *******************************************************************************/

     1036    10369    1   DCL XUO$OUWRITE ENTRY(2);
     1037    10370        %PAGE (ARG=LOCAL DATA);

             10383    1   /*******************************************************************************
             10384    1   *                                                                              *
             10385    1   *        LOCAL DATA              LOCAL DATA                                       *
             10386    1   *                                                                              *
             10387    1   *******************************************************************************/

     1038    10391    1   DCL SDEF_CONSTANT_FLAG BIT(1); /*0->XUO$SDEF*/
     1039    10392         /*1->XUO$SDEF_CONST*/
     1040    10393        %PAGE (ARG=CODE);

             10406    1   /*******************************************************************************
             10407    1   *                                                                              *
             10408    1   *        CODE              CODE                                                  *
             10409    1   *                                                                              *
             10410    1   *******************************************************************************/

     1041    10414    1       SDEF_CONSTANT_FLAG='0'B;

  10414  1 000002   200006 450100                    STZ     SDEF_CONSTANT_FLAG,,AUTO

     1042    10415    1       GOTO SDEF_COMMON;

  10415  1 000003   000010 710000 1                  TRA     SDEF_COMMON

PL6.E3A0      #005=XUO$SDEF File=XUO$BUILD.:E05TSI                               WED 07/30/97 09:25 Page:133
     1043    10416        /*D*
     1044    10417
     1045    10418        XUO$SDEF_CONST --External Data Definition Record (Record Type 6)
     1046    10419
     1047    10420        NAME:  XUO$SDEF_CONST
     1048    10421
     1049    10422        PURPOSE:  To build an entry in the External Data Definition Record
     1050    10423
     1051    10424        DESCRIPTION:  This routine generates entries in the External
     1052    10425            Data Definition record for constant entries.
     1053    10426
     1054    10427        CALL:  CALL XUO$SDEF_CONST (Name Pointer,
     1055    10428                             Constant Value)
     1056    10429
     1057    10430        INPUT:
     1058    10431            Name Pointer        UBIN ALIGNED
     1059    10432                                Word offset into the Externally
     1060    10433                                Defined names record (type 1)
     1061    10434                                locating the name.
     1062    10435            Constant Value      UBIN ALIGNED
     1063    10436                                The constant SYMDEF
     1064    10437
     1065    10438        OUTPUT:  none
     1066    10439
     1067    10440        B$OBJECT REFERENCE:  B$SDEF
     1068    10441        */
     1069    10442
     1070    10443        /*B*
     1071    10444        GLOBAL DATA:
     1072    10445            B_SDEF_CUR$
     1073    10446            B_SDEF_COUNT
     1074    10447            B_SDEF_PAGE
     1075    10448
     1076    10449        INTERFACE:
     1077    10450            XUO$OUWRITE
     1078    10451
     1079    10452        */
PL6.E3A0      #005=XUO$SDEF File=XUO$BUILD.:E05TSI                               WED 07/30/97 09:25 Page:134
     1080    10453
     1081    10454    1   XUO$SDEF_CONST: ENTRY(P_NAME_POINTER,P_PARAM2);

  10454  1 000004   000000 700200 xent  XUO$SDEF_CO* TSX0  ! X66_AUTO_3
         1 000005   000010 000003                    ZERO    8,3

     1082    10455         /*
     1083    10456            */
     1084    10457    1       SDEF_CONSTANT_FLAG='1'B;

  10457  1 000006   400000 236003                    LDQ     -131072,DU
         1 000007   200006 756100                    STQ     SDEF_CONSTANT_FLAG,,AUTO

  10457  1 000010                       SDEF_COMMON  null
     1085    10458         /*
     1086    10459            */
     1087    10460    1   SDEF_COMMON: ;
     1088    10461         /*
     1089    10462         The following will check to see if the passed information will
     1090    10463         fit in the current record. If not, the current record will be
     1091    10464         written and pointer re-initialized. Then the text will be moved
     1092    10465         to the buffer.
     1093    10466         */
     1094    10467    1       IF B_SDEF_CUR$>=B_SDEF_END$ THEN

  10467  1 000010   000000 236000 xsym               LDQ     B_SDEF_CUR$
         1 000011   000000 116000 xsym               CMPQ    B_SDEF_END$
         1 000012   000022 602000 1                  TNC     s:10476

     1095    10468    2       DO;

     1096    10469    2           CALL XUO$OUWRITE(%TYPSDEF);

  10469  1 000013   000000 630400 2                  EPPR0   0
         1 000014   000017 631400 xsym               EPPR1   B_VECTNIL+15
         1 000015   000000 701000 xent               TSX1    XUO$OUWRITE
         1 000016   000000 011000                    NOP     0
PL6.E3A0      #005=XUO$SDEF File=XUO$BUILD.:E05TSI                               WED 07/30/97 09:25 Page:135

     1097    10470    2           B_SDEF_PAGE=B_SDEF_PAGE+1;

  10470  1 000017   000000 054000 xsym               AOS     B_SDEF_PAGE

     1098    10471    2           B_SDEF_CUR$=B_SDEF_BASE$;

  10471  1 000020   000000 236000 xsym               LDQ     B_SDEF_BASE$
         1 000021   000000 756000 xsym               STQ     B_SDEF_CUR$

     1099    10472    2           END;

     1100    10473         /*
     1101    10474         The following will build the symdef data table.
     1102    10475         */
     1103    10476    1       IF SDEF_CONSTANT_FLAG THEN

  10476  1 000022   200006 234100                    SZN     SDEF_CONSTANT_FLAG,,AUTO
         1 000023   000034 605000 1                  TPL     s:10483

     1104    10477    2       DO;

     1105    10478    2           B$SDEF.VALUE=P_CONST_VALUE;

  10478  1 000024   200004 470500                    LDP0    @P_PARAM2,,AUTO
         1 000025   000000 235100                    LDA     0,,PR0
         1 000026   000000 471400 xsym               LDP1    B_SDEF_CUR$
         1 000027   100000 755100                    STA     0,,PR1

     1106    10479    2           B$SDEF.CONSTNT='1'B;

  10479  1 000030   000000 471400 xsym               LDP1    B_SDEF_CUR$
         1 000031   400000 236007                    LDQ     -131072,DL
         1 000032   100001 256100                    ORSQ    1,,PR1

     1107    10480    2           END;

PL6.E3A0      #005=XUO$SDEF File=XUO$BUILD.:E05TSI                               WED 07/30/97 09:25 Page:136
  10480  1 000033   000045 710000 1                  TRA     s:10486

     1108    10481    1       ELSE
     1109    10482    2       DO;

     1110    10483    2           B$SDEF.AD.OU.SECTNUM=P_SECTION_NUMBER;

  10483  1 000034   200004 470500                    LDP0    @P_PARAM2,,AUTO
         1 000035   000000 471400 xsym               LDP1    B_SDEF_CUR$
         1 000036   000000 236100                    LDQ     0,,PR0
         1 000037   000022 736000                    QLS     18
         1 000040   100000 552120                    STBQ    0,'20'O,PR1

     1111    10484    2           B$SDEF.AD.OU.OFFSET=P_SECTION_OFFSET;

  10484  1 000041   200005 471500                    LDP1    @P_SECTION_OFFSET,,AUTO
         1 000042   100000 720100                    LXL0    0,,PR1
         1 000043   000000 473400 xsym               LDP3    B_SDEF_CUR$
         1 000044   300000 440100                    SXL0    0,,PR3

     1112    10485    2           END;

     1113    10486    1       B$SDEF.NPOINTER=P_NAME_POINTER;

  10486  1 000045   200003 471500                    LDP1    @P_NAME_POINTER,,AUTO
         1 000046   100000 720100                    LXL0    0,,PR1
         1 000047   000000 473400 xsym               LDP3    B_SDEF_CUR$
         1 000050   300001 740100                    STX0    1,,PR3

     1114    10487    1       B_SDEF_COUNT=B_SDEF_COUNT+1;

  10487  1 000051   000000 054000 xsym               AOS     B_SDEF_COUNT

     1115    10488    1       B_SDEF_CUR$=PINCRW(B_SDEF_CUR$,SIZEW(B$SDEF));

  10488  1 000052   000000 236000 xsym               LDQ     B_SDEF_CUR$
         1 000053   000002 036003                    ADLQ    2,DU
PL6.E3A0      #005=XUO$SDEF File=XUO$BUILD.:E05TSI                               WED 07/30/97 09:25 Page:137
         1 000054   000000 756000 xsym               STQ     B_SDEF_CUR$

     1116    10489    1       RETURN;

  10489  1 000055   000000 702200 xent               TSX2  ! X66_ARET
     1117    10490    1   END XUO$SDEF;
     1118    10491        %EOD;

PL6.E3A0      #005=XUO$SDEF File=XUO$BUILD.:E05TSI                               WED 07/30/97 09:25 Page:138
--  Include file information  --

   XUO$OBJ_C.:E05TOU  is referenced.
   B$OBJECT_C.:E05TOU  is referenced.
   CP_6_SUBS.:E05TOU  is referenced.
   CP_6_C.:E05TOU  is referenced.
   CP_6.:E05TOU  cannot be made into a system file and is referenced.
   ZVA_FLAGS.:TOOLE04  is referenced.
   ZVA_SYSTEM_FILE.:TOOLE04  is referenced.
      No diagnostics issued in procedure XUO$SDEF.
PL6.E3A0      #005=XUO$SDEF File=XUO$BUILD.:E05TSI                               WED 07/30/97 09:25 Page:139

 **** Variables and constants ****

  ****  Auto variables  ****

  ****  Scalars and arrays  ****
OctLoc.c.b A Datatyp(siz) R M Lvl/name                 OctLoc.c.b A Datatyp(siz) R M Lvl/name

     3-0-0/w PTR         r     1 @P_NAME_POINTER            4-0-0/w PTR         r     1 @P_PARAM2
     5-0-0/w PTR         r     1 @P_SECTION_OFFSET         *0-0-0/w UBIN        r     1 P_CONST_VALUE
    *0-0-0/w SBIN        r     1 P_NAME_POINTER            *0-0-0/w UBIN        r     1 P_PARAM2
    *0-0-0/w UBIN        r     1 P_SECTION_NUMBER          *0-0-0/w UBIN        r     1 P_SECTION_OFFSET
     6-0-0/b BIT         r     1 SDEF_CONSTANT_FLAG

  ****  SYMREF variables  ****

  ****  Scalars and arrays  ****
OctLoc.c.b A Datatyp(siz) R M Lvl/name                 OctLoc.c.b A Datatyp(siz) R M Lvl/name

     0-0-0/w PTR         r     1 B_SDEF_BASE$               0-0-0/w SBIN        r     1 B_SDEF_COUNT
     0-0-0/w PTR         r     1 B_SDEF_CUR$                0-0-0/w PTR         r     1 B_SDEF_END$
     0-0-0/w SBIN        r     1 B_SDEF_PAGE

  ****  BASED and DCB variables  ****

  ****  Scalars and arrays  ****
OctLoc.c.b A Datatyp(siz) R M Lvl/name                 OctLoc.c.b A Datatyp(siz) R M Lvl/name

     0-0-0/w STRC(72)    r     1 B$SDEF


   Procedure XUO$SDEF requires 46 words for executable code.
   Procedure XUO$SDEF requires 8 words of local(AUTO) storage.
PL6.E3A0      #005=XUO$SDEF File=XUO$BUILD.:E05TSI                               WED 07/30/97 09:25 Page:140
          *** CROSS REFERENCE LISTING ***
**     DENOTES     IDENTIFIER DEFINITION
<<                 IDENTIFIER'S VALUE SET
>>                 IDENTIFIER'S VALUE USED
<>                 IDENTIFIER SET AND/OR USED
--                 IDENTIFIER REFERENCED
PL6.E3A0      #005=XUO$SDEF File=XUO$BUILD.:E05TSI                               WED 07/30/97 09:25 Page:141
          MINI XREF LISTING

B$SDEF
     10274**DCL     10488--ASSIGN
B$SDEF.AD.OU
     10294**DCL     10300--REDEF
B$SDEF.AD.OU.OFFSET
     10298**DCL     10484<<ASSIGN
B$SDEF.AD.OU.SECTNUM
     10295**DCL     10483<<ASSIGN
B$SDEF.CONSTNT
     10305**DCL     10479<<ASSIGN
B$SDEF.NPOINTER
     10302**DCL     10486<<ASSIGN
B$SDEF.VALUE
     10275**DCL     10278--REDEF   10478<<ASSIGN
B_SDEF_BASE$
     10339**DCL     10471>>ASSIGN
B_SDEF_COUNT
     10342**DCL     10487<<ASSIGN  10487>>ASSIGN
B_SDEF_CUR$
     10340**DCL     10274--IMP-PTR 10467>>IF      10471<<ASSIGN  10478>>ASSIGN  10479>>ASSIGN  10483>>ASSIGN
     10484>>ASSIGN  10486>>ASSIGN  10488<<ASSIGN  10488>>ASSIGN
B_SDEF_END$
     10341**DCL     10467>>IF
B_SDEF_PAGE
     10343**DCL     10470<<ASSIGN  10470>>ASSIGN
P_CONST_VALUE
     10247**DCL     10478>>ASSIGN
P_NAME_POINTER
     10238**DCL        52--PROC    10454--ENTRY   10486>>ASSIGN
P_PARAM2
     10239**DCL        52--PROC    10243--REDEF   10247--REDEF   10454--ENTRY
P_SECTION_NUMBER
PL6.E3A0      #005=XUO$SDEF File=XUO$BUILD.:E05TSI                               WED 07/30/97 09:25 Page:142
     10243**DCL     10483>>ASSIGN
P_SECTION_OFFSET
     10249**DCL        52--PROC    10484>>ASSIGN
SDEF_COMMON
     10457**LABEL   10415--GOTO
SDEF_CONSTANT_FLAG
     10391**DCL     10414<<ASSIGN  10457<<ASSIGN  10476>>IF
XUO$OUWRITE
     10369**DCL-ENT 10469--CALL

PL6.E3A0      #006=XUO$SREF File=XUO$BUILD.:E05TSI                               WED 07/30/97 09:26 Page:143
     1119        1        /*M*     XUO$SREF -- THIS MODULE WILL BUILD OBJECT UNIT SYMREF RECORDS*/
     1120        2        /*T***********************************************************/
     1121        3        /*T*                                                         */
     1122        4        /*T* Copyright (c) Bull HN Information Systems Inc., 1997    */
     1123        5        /*T*                                                         */
     1124        6        /*T***********************************************************/
     1125        7        /*P*
     1126        8
     1127        9
     1128       10        NAME:  XUO$SREF
     1129       11               XUO$SREF --External Data Reference Record (Record Type 7)
     1130       12
     1131       13        PURPOSE:  To build an entry in the External Data Reference
     1132       14            Record (Record Type 7)
     1133       15
     1134       16        DESCRIPTION:  This routine adds an entry to the External
     1135       17            Data Reference Record (type 7).  There is one record per
     1136       18            object unit for external data references (i.e. SYMREF).
     1137       19            There is one entry per name.
     1138       20
     1139       21        */
     1140       22        /*D*
     1141       23        CALL:  CALL XUO$SREF (Name Pointer,
     1142       24                       Secondary Reference Flag,
     1143       25                       SYMREF Number,
     1144       26                       Read Only Flag)
     1145       27
     1146       28        INPUT:
     1147       29            Name Pointer        UBIN ALIGNED
     1148       30                                The word displacement into the
     1149       31                                record of Externally Referenced
     1150       32                                Names (type 2) locating the name.
     1151       33            Secondary Reference Flag BIT(1) UNALIGNED
     1152       34                                Indicates that the reference is a
     1153       35                                secondary reference and should not
     1154       36                                cause loading of a library routine.
     1155       37            Read Only Flag      BIT(1)
PL6.E3A0      #006=XUO$SREF File=XUO$BUILD.:E05TSI                               WED 07/30/97 09:26 Page:144
     1156       38                                Indicates that the corresponding
     1157       39                                SYMDEF item is in a read only section.
     1158       40                                If the section that the SYMREF applies
     1159       41                                to is not of type 1 (procedure) or
     1160       42                                type 6 (read only data) the linker will
     1161       43                                issue a warning diagnostic.
     1162       44
     1163       45        OUTPUT:
     1164       46            SYMREF Number       UBIN ALIGNED
     1165       47                                The entry number of the External Data
     1166       48                                Reference that was just added to the
     1167       49                                External Data Reference Record.
     1168       50
     1169       51        B$OBJECT REFERENCE:  B$SREF
     1170       52        */
     1171       53        /*B*
     1172       54        GLOBAL DATA:
     1173       55            B_SREF_CUR$
     1174       56            B_SREF_COUNT
     1175       57            B_SREF_PAGE
     1176       58
     1177       59        INTERFACE:
     1178       60            XUO$OUWRITE
     1179       61
     1180       62        */
     1181       63
     1182       64        XUO$SREF: PROC (P_NAME_POINTER,P_SREF_FLAG,P_SREF_NUMBER,P_READ_ONLY_FLAG);
     1183       65         /*
     1184       66            */
     1185       67        %INCLUDE ZVA_SYSTEM_FILE;
     1186     6318        %PAGE (ARG=INCLUDES);

              6331    1   /*******************************************************************************
              6332    1   *                                                                              *
              6333    1   *        INCLUDES              INCLUDES                                            *
              6334    1   *                                                                              *
              6335    1   *******************************************************************************/
PL6.E3A0      #006=XUO$SREF File=XUO$BUILD.:E05TSI                               WED 07/30/97 09:26 Page:145

     1187     6339        %INCLUDE B$OBJECT_C;
     1188     9769        %INCLUDE XUO$OBJ_C;
     1189    10179        %PAGE (ARG=SUBS);

             10192    1   /*******************************************************************************
             10193    1   *                                                                              *
             10194    1   *        SUBS              SUBS                                                  *
             10195    1   *                                                                              *
             10196    1   *******************************************************************************/

     1190    10200        %B$RECORDSUBS;
     1191    10228        %PLIST;
     1192    10229        %PAGE (ARG=PARAMETERS);

             10242    1   /*******************************************************************************
             10243    1   *                                                                              *
             10244    1   *        PARAMETERS              PARAMETERS                                        *
             10245    1   *                                                                              *
             10246    1   *******************************************************************************/

     1193    10250    1   DCL P_NAME_POINTER SBIN;
     1194    10251    1   DCL P_SREF_FLAG BIT(1) UNAL;
     1195    10252    1   DCL P_SREF_NUMBER UBIN;
     1196    10253    1   DCL P_READ_ONLY_FLAG BIT(1) UNAL;
     1197    10254         /*
     1198    10255            */
     1199    10256        %PAGE (ARG=SREF DATA);

             10269    1   /*******************************************************************************
             10270    1   *                                                                              *
             10271    1   *        SREF DATA              SREF DATA                                          *
             10272    1   *                                                                              *
             10273    1   *******************************************************************************/

     1200    10277        %B$SREF (STCLASS="BASED(B_SREF_CUR$)");
     1201    10291        %B_SREF_POINTERS;
PL6.E3A0      #006=XUO$SREF File=XUO$BUILD.:E05TSI                               WED 07/30/97 09:26 Page:146
     1202    10311        %PLIST;
     1203    10312        %PAGE (ARG=ENTRY DCLS);

             10325    1   /*******************************************************************************
             10326    1   *                                                                              *
             10327    1   *        ENTRY DCLS              ENTRY DCLS                                        *
             10328    1   *                                                                              *
             10329    1   *******************************************************************************/

     1204    10333    1   DCL XUO$OUWRITE ENTRY(2);
     1205    10334        %PAGE (ARG=CODE);

             10347    1   /*******************************************************************************
             10348    1   *                                                                              *
             10349    1   *        CODE              CODE                                                  *
             10350    1   *                                                                              *
             10351    1   *******************************************************************************/

     1206    10355         /*
     1207    10356         The following code will check to see if the passed information will fit
     1208    10357         in the current record. If not, the current record will be
     1209    10358         written and the pointer to it re-initialized. Then the text will
     1210    10359         be moved to the buffer.
     1211    10360         */
     1212    10361    1       IF B_SREF_CUR$>=B_SREF_END$ THEN
     1213    10362    2       DO;
     1214    10363    2           CALL XUO$OUWRITE(%TYPSREF);
     1215    10364    2           B_SREF_PAGE=B_SREF_PAGE+1;
     1216    10365    2           B_SREF_CUR$=B_SREF_BASE$;
     1217    10366    2           END;
     1218    10367         /*
     1219    10368         The following will build the symref data entry.
     1220    10369         */
     1221    10370    1       B$SREF.NPOINTER=P_NAME_POINTER;
     1222    10371    1       B$SREF.SREF=P_SREF_FLAG;
     1223    10372    1       IF ADDR(P_READ_ONLY_FLAG)~=ADDR(NIL) THEN
     1224    10373    1           B$SREF.READ_ONLY=P_READ_ONLY_FLAG;
PL6.E3A0      #006=XUO$SREF File=XUO$BUILD.:E05TSI                               WED 07/30/97 09:26 Page:147
     1225    10374    1       B_SREF_COUNT=B_SREF_COUNT+1;
     1226    10375    1       P_SREF_NUMBER=B_SREF_COUNT;
     1227    10376    1       B_SREF_CUR$=PINCRW(B_SREF_CUR$,SIZEW(B$SREF));
     1228    10377    1       RETURN;
     1229    10378    1   END XUO$SREF;
     1230    10379        %EOD;

PL6.E3A0      #006=XUO$SREF File=XUO$BUILD.:E05TSI                               WED 07/30/97 09:26 Page:148
--  Include file information  --

   XUO$OBJ_C.:E05TOU  is referenced.
   B$OBJECT_C.:E05TOU  is referenced.
   CP_6_SUBS.:E05TOU  is referenced.
   CP_6_C.:E05TOU  is referenced.
   CP_6.:E05TOU  cannot be made into a system file and is referenced.
   ZVA_FLAGS.:TOOLE04  is referenced.
   ZVA_SYSTEM_FILE.:TOOLE04  is referenced.
      No diagnostics issued in procedure XUO$SREF.

   Procedure XUO$SREF requires 37 words for executable code.
   Procedure XUO$SREF requires 8 words of local(AUTO) storage.

PL6.E3A0      #006=XUO$SREF File=XUO$BUILD.:E05TSI                               WED 07/30/97 09:26 Page:149

 Object Unit name= XUO$SREF                                   File name= XUO$BUILD.:E05TOU
 UTS= JUL 30 '97 09:26:19.56 WED                              Compiler= PL-6/E31         Sev=      00
 SharedLib= :SHARED_SYSTEM                                    Alt SharedLib=


    ****  Control sections  ****

 Sect   Type Bound  Init  Size OctSiz  Section name(segment info)
    0   DCB   even  none     0      0  M$UC
    1   Proc  even  none    37     45  XUO$SREF
    2  RoData even  none     1      1  XUO$SREF

    ****  Entry defs  ****

                              Check   Calling
                             calling  sequence
  Sect OctLoc Primary Altret sequence   type   Parms  Name
     1      0   yes            yes      Std        4  XUO$SREF

  ****  Entry refs  ****

         Check        Calling
        calling       sequence
Altret sequence SRef   type   Args  Name
         yes           Std       2 XUO$OUWRITE
                       nStd      0 X66_AUTO_4
                       Std       0 B_CONSPOOL_D
                       nStd      0 X66_ARET

  ****  Data refs  ****

  Flags:  r = read only, s = secondary
Flgs Name                             Flgs Name                             Flgs Name
     M$UC                                  B_SREF_BASE$                          B_SREF_CUR$
     B_SREF_END$                           B_SREF_COUNT                          B_SREF_PAGE
     B_VECTNIL
PL6.E3A0      #006=XUO$SREF File=XUO$BUILD.:E05TSI                               WED 07/30/97 09:26 Page:150

  ****  Segment refs  ****

  Flags:  r = read only, s = secondary
Flgs Name                             Flgs Name                             Flgs Name
     ISSID
PL6.E3A0      #006=XUO$SREF File=XUO$BUILD.:E05TSI                               WED 07/30/97 09:26 Page:151


     1119        1        /*M*     XUO$SREF -- THIS MODULE WILL BUILD OBJECT UNIT SYMREF RECORDS*/
     1120        2        /*T***********************************************************/
     1121        3        /*T*                                                         */
     1122        4        /*T* Copyright (c) Bull HN Information Systems Inc., 1997    */
     1123        5        /*T*                                                         */
     1124        6        /*T***********************************************************/
     1125        7        /*P*
     1126        8
     1127        9
     1128       10        NAME:  XUO$SREF
     1129       11               XUO$SREF --External Data Reference Record (Record Type 7)
     1130       12
     1131       13        PURPOSE:  To build an entry in the External Data Reference
     1132       14            Record (Record Type 7)
     1133       15
     1134       16        DESCRIPTION:  This routine adds an entry to the External
     1135       17            Data Reference Record (type 7).  There is one record per
     1136       18            object unit for external data references (i.e. SYMREF).
     1137       19            There is one entry per name.
     1138       20
     1139       21        */
     1140       22        /*D*
     1141       23        CALL:  CALL XUO$SREF (Name Pointer,
     1142       24                       Secondary Reference Flag,
     1143       25                       SYMREF Number,
     1144       26                       Read Only Flag)
     1145       27
     1146       28        INPUT:
     1147       29            Name Pointer        UBIN ALIGNED
     1148       30                                The word displacement into the
     1149       31                                record of Externally Referenced
     1150       32                                Names (type 2) locating the name.
     1151       33            Secondary Reference Flag BIT(1) UNALIGNED
     1152       34                                Indicates that the reference is a
     1153       35                                secondary reference and should not
     1154       36                                cause loading of a library routine.
PL6.E3A0      #006=XUO$SREF File=XUO$BUILD.:E05TSI                               WED 07/30/97 09:26 Page:152
     1155       37            Read Only Flag      BIT(1)
     1156       38                                Indicates that the corresponding
     1157       39                                SYMDEF item is in a read only section.
     1158       40                                If the section that the SYMREF applies
     1159       41                                to is not of type 1 (procedure) or
     1160       42                                type 6 (read only data) the linker will
     1161       43                                issue a warning diagnostic.
     1162       44
     1163       45        OUTPUT:
     1164       46            SYMREF Number       UBIN ALIGNED
     1165       47                                The entry number of the External Data
     1166       48                                Reference that was just added to the
     1167       49                                External Data Reference Record.
     1168       50
     1169       51        B$OBJECT REFERENCE:  B$SREF
     1170       52        */
     1171       53        /*B*
     1172       54        GLOBAL DATA:
     1173       55            B_SREF_CUR$
     1174       56            B_SREF_COUNT
     1175       57            B_SREF_PAGE
     1176       58
     1177       59        INTERFACE:
     1178       60            XUO$OUWRITE
     1179       61
     1180       62        */
     1181       63
     1182       64        XUO$SREF: PROC (P_NAME_POINTER,P_SREF_FLAG,P_SREF_NUMBER,P_READ_ONLY_FLAG);

     64  1 000000   000000 700200 xent  XUO$SREF     TSX0  ! X66_AUTO_4
         1 000001   000010 000004                    ZERO    8,4

     1183       65         /*
     1184       66            */
     1185       67        %INCLUDE ZVA_SYSTEM_FILE;
     1186     6318        %PAGE (ARG=INCLUDES);

PL6.E3A0      #006=XUO$SREF File=XUO$BUILD.:E05TSI                               WED 07/30/97 09:26 Page:153
              6331    1   /*******************************************************************************
              6332    1   *                                                                              *
              6333    1   *        INCLUDES              INCLUDES                                           *
              6334    1   *                                                                              *
              6335    1   *******************************************************************************/

     1187     6339        %INCLUDE B$OBJECT_C;
     1188     9769        %INCLUDE XUO$OBJ_C;
     1189    10179        %PAGE (ARG=SUBS);

             10192    1   /*******************************************************************************
             10193    1   *                                                                              *
             10194    1   *        SUBS              SUBS                                                  *
             10195    1   *                                                                              *
             10196    1   *******************************************************************************/

     1190    10200        %B$RECORDSUBS;
     1191    10228        %PLIST;
     1192    10229        %PAGE (ARG=PARAMETERS);

             10242    1   /*******************************************************************************
             10243    1   *                                                                              *
             10244    1   *        PARAMETERS              PARAMETERS                                       *
             10245    1   *                                                                              *
             10246    1   *******************************************************************************/

     1193    10250    1   DCL P_NAME_POINTER SBIN;
     1194    10251    1   DCL P_SREF_FLAG BIT(1) UNAL;
     1195    10252    1   DCL P_SREF_NUMBER UBIN;
     1196    10253    1   DCL P_READ_ONLY_FLAG BIT(1) UNAL;
     1197    10254         /*
     1198    10255            */
     1199    10256        %PAGE (ARG=SREF DATA);

             10269    1   /*******************************************************************************
             10270    1   *                                                                              *
             10271    1   *        SREF DATA              SREF DATA                                         *
PL6.E3A0      #006=XUO$SREF File=XUO$BUILD.:E05TSI                               WED 07/30/97 09:26 Page:154
             10272    1   *                                                                              *
             10273    1   *******************************************************************************/

     1200    10277        %B$SREF (STCLASS="BASED(B_SREF_CUR$)");
     1201    10291        %B_SREF_POINTERS;
     1202    10311        %PLIST;
     1203    10312        %PAGE (ARG=ENTRY DCLS);

             10325    1   /*******************************************************************************
             10326    1   *                                                                              *
             10327    1   *        ENTRY DCLS              ENTRY DCLS                                       *
             10328    1   *                                                                              *
             10329    1   *******************************************************************************/

     1204    10333    1   DCL XUO$OUWRITE ENTRY(2);
     1205    10334        %PAGE (ARG=CODE);

             10347    1   /*******************************************************************************
             10348    1   *                                                                              *
             10349    1   *        CODE              CODE                                                  *
             10350    1   *                                                                              *
             10351    1   *******************************************************************************/

     1206    10355         /*
     1207    10356         The following code will check to see if the passed information will fit
     1208    10357         in the current record. If not, the current record will be
     1209    10358         written and the pointer to it re-initialized. Then the text will
     1210    10359         be moved to the buffer.
     1211    10360         */
     1212    10361    1       IF B_SREF_CUR$>=B_SREF_END$ THEN

  10361  1 000002   000000 236000 xsym               LDQ     B_SREF_CUR$
         1 000003   000000 116000 xsym               CMPQ    B_SREF_END$
         1 000004   000014 602000 1                  TNC     s:10370

     1213    10362    2       DO;

PL6.E3A0      #006=XUO$SREF File=XUO$BUILD.:E05TSI                               WED 07/30/97 09:26 Page:155
     1214    10363    2           CALL XUO$OUWRITE(%TYPSREF);

  10363  1 000005   000000 630400 2                  EPPR0   0
         1 000006   000017 631400 xsym               EPPR1   B_VECTNIL+15
         1 000007   000000 701000 xent               TSX1    XUO$OUWRITE
         1 000010   000000 011000                    NOP     0

     1215    10364    2           B_SREF_PAGE=B_SREF_PAGE+1;

  10364  1 000011   000000 054000 xsym               AOS     B_SREF_PAGE

     1216    10365    2           B_SREF_CUR$=B_SREF_BASE$;

  10365  1 000012   000000 236000 xsym               LDQ     B_SREF_BASE$
         1 000013   000000 756000 xsym               STQ     B_SREF_CUR$

     1217    10366    2           END;

     1218    10367         /*
     1219    10368         The following will build the symref data entry.
     1220    10369         */
     1221    10370    1       B$SREF.NPOINTER=P_NAME_POINTER;

  10370  1 000014   200003 470500                    LDP0    @P_NAME_POINTER,,AUTO
         1 000015   000000 720100                    LXL0    0,,PR0
         1 000016   000000 471400 xsym               LDP1    B_SREF_CUR$
         1 000017   100000 740100                    STX0    0,,PR1

     1222    10371    1       B$SREF.SREF=P_SREF_FLAG;

  10371  1 000020   200004 471500                    LDP1    @P_SREF_FLAG,,AUTO
         1 000021   000000 473400 xsym               LDP3    B_SREF_CUR$
         1 000022   003100 060500                    CSL     bolr='003'O
         1 000023   100000 000001                    BDSC    0,,PR1                   by=0,bit=0,n=1
         1 000024   300000 400001                    BDSC    0,,PR3                   by=2,bit=0,n=1

     1223    10372    1       IF ADDR(P_READ_ONLY_FLAG)~=ADDR(NIL) THEN
PL6.E3A0      #006=XUO$SREF File=XUO$BUILD.:E05TSI                               WED 07/30/97 09:26 Page:156

  10372  1 000025   200006 236100                    LDQ     @P_READ_ONLY_FLAG,,AUTO
         1 000026   000001 116000 xsym               CMPQ    B_VECTNIL+1
         1 000027   000035 600000 1                  TZE     s:10374

     1224    10373    1           B$SREF.READ_ONLY=P_READ_ONLY_FLAG;

  10373  1 000030   200006 473500                    LDP3    @P_READ_ONLY_FLAG,,AUTO
         1 000031   000000 474400 xsym               LDP4    B_SREF_CUR$
         1 000032   003100 060500                    CSL     bolr='003'O
         1 000033   300000 000001                    BDSC    0,,PR3                   by=0,bit=0,n=1
         1 000034   400000 410001                    BDSC    0,,PR4                   by=2,bit=1,n=1

     1225    10374    1       B_SREF_COUNT=B_SREF_COUNT+1;

  10374  1 000035   000000 054000 xsym               AOS     B_SREF_COUNT

     1226    10375    1       P_SREF_NUMBER=B_SREF_COUNT;

  10375  1 000036   000000 235000 xsym               LDA     B_SREF_COUNT
         1 000037   200005 473500                    LDP3    @P_SREF_NUMBER,,AUTO
         1 000040   300000 755100                    STA     0,,PR3

     1227    10376    1       B_SREF_CUR$=PINCRW(B_SREF_CUR$,SIZEW(B$SREF));

  10376  1 000041   000000 236000 xsym               LDQ     B_SREF_CUR$
         1 000042   000001 036003                    ADLQ    1,DU
         1 000043   000000 756000 xsym               STQ     B_SREF_CUR$

     1228    10377    1       RETURN;

  10377  1 000044   000000 702200 xent               TSX2  ! X66_ARET
     1229    10378    1   END XUO$SREF;
     1230    10379        %EOD;

PL6.E3A0      #006=XUO$SREF File=XUO$BUILD.:E05TSI                               WED 07/30/97 09:26 Page:157
--  Include file information  --

   XUO$OBJ_C.:E05TOU  is referenced.
   B$OBJECT_C.:E05TOU  is referenced.
   CP_6_SUBS.:E05TOU  is referenced.
   CP_6_C.:E05TOU  is referenced.
   CP_6.:E05TOU  cannot be made into a system file and is referenced.
   ZVA_FLAGS.:TOOLE04  is referenced.
   ZVA_SYSTEM_FILE.:TOOLE04  is referenced.
      No diagnostics issued in procedure XUO$SREF.
PL6.E3A0      #006=XUO$SREF File=XUO$BUILD.:E05TSI                               WED 07/30/97 09:26 Page:158

 **** Variables and constants ****

  ****  Auto variables  ****

  ****  Scalars and arrays  ****
OctLoc.c.b A Datatyp(siz) R M Lvl/name                 OctLoc.c.b A Datatyp(siz) R M Lvl/name

     3-0-0/w PTR         r     1 @P_NAME_POINTER            6-0-0/w PTR         r     1 @P_READ_ONLY_FLAG
     4-0-0/w PTR         r     1 @P_SREF_FLAG               5-0-0/w PTR         r     1 @P_SREF_NUMBER
    *0-0-0/w SBIN        r     1 P_NAME_POINTER            *0-0-0/b BIT         r     1 P_READ_ONLY_FLAG
    *0-0-0/b BIT         r     1 P_SREF_FLAG               *0-0-0/w UBIN        r     1 P_SREF_NUMBER

  ****  SYMREF variables  ****

  ****  Scalars and arrays  ****
OctLoc.c.b A Datatyp(siz) R M Lvl/name                 OctLoc.c.b A Datatyp(siz) R M Lvl/name

     0-0-0/w PTR         r     1 B_SREF_BASE$               0-0-0/w SBIN        r     1 B_SREF_COUNT
     0-0-0/w PTR         r     1 B_SREF_CUR$                0-0-0/w PTR         r     1 B_SREF_END$
     0-0-0/w SBIN        r     1 B_SREF_PAGE

  ****  BASED and DCB variables  ****

  ****  Scalars and arrays  ****
OctLoc.c.b A Datatyp(siz) R M Lvl/name                 OctLoc.c.b A Datatyp(siz) R M Lvl/name

     0-0-0/w STRC        r     1 B$SREF


   Procedure XUO$SREF requires 37 words for executable code.
   Procedure XUO$SREF requires 8 words of local(AUTO) storage.
PL6.E3A0      #006=XUO$SREF File=XUO$BUILD.:E05TSI                               WED 07/30/97 09:26 Page:159
          *** CROSS REFERENCE LISTING ***
**     DENOTES     IDENTIFIER DEFINITION
<<                 IDENTIFIER'S VALUE SET
>>                 IDENTIFIER'S VALUE USED
<>                 IDENTIFIER SET AND/OR USED
--                 IDENTIFIER REFERENCED
PL6.E3A0      #006=XUO$SREF File=XUO$BUILD.:E05TSI                               WED 07/30/97 09:26 Page:160
          MINI XREF LISTING

B$SREF
     10278**DCL     10376--ASSIGN
B$SREF.NPOINTER
     10279**DCL     10370<<ASSIGN
B$SREF.READ_ONLY
     10285**DCL     10373<<ASSIGN
B$SREF.SREF
     10282**DCL     10371<<ASSIGN
B_SREF_BASE$
     10303**DCL     10365>>ASSIGN
B_SREF_COUNT
     10306**DCL     10374<<ASSIGN  10374>>ASSIGN  10375>>ASSIGN
B_SREF_CUR$
     10304**DCL     10278--IMP-PTR 10361>>IF      10365<<ASSIGN  10370>>ASSIGN  10371>>ASSIGN  10373>>ASSIGN
     10376<<ASSIGN  10376>>ASSIGN
B_SREF_END$
     10305**DCL     10361>>IF
B_SREF_PAGE
     10307**DCL     10364<<ASSIGN  10364>>ASSIGN
P_NAME_POINTER
     10250**DCL        64--PROC    10370>>ASSIGN
P_READ_ONLY_FLAG
     10253**DCL        64--PROC    10372--IF      10373>>ASSIGN
P_SREF_FLAG
     10251**DCL        64--PROC    10371>>ASSIGN
P_SREF_NUMBER
     10252**DCL        64--PROC    10375<<ASSIGN
XUO$OUWRITE
     10333**DCL-ENT 10363--CALL

