PL6.E3A0      #012=XUO$VREBL_CONT File=XUO$BUILD.:E05TSI                         WED 07/30/97 09:29 Page:309
     2481        1        /*M*     XUO$VREBL_CONT -- THIS MODULE WILL BUILD OBJECT UNIT VREBL CONTINUATION REC
                 1        ORD*/
     2482        2        /*T***********************************************************/
     2483        3        /*T*                                                         */
     2484        4        /*T* Copyright (c) Bull HN Information Systems Inc., 1997    */
     2485        5        /*T*                                                         */
     2486        6        /*T***********************************************************/
     2487        7        /*P*
     2488        8
     2489        9        NAME:  XUO$VREBL_CONT
     2490       10        XUO$VREBL_CONT --Variable Debug Record Continuation
     2491       11                         (Record Type 14)
     2492       12
     2493       13
     2494       14        PURPOSE:  To build continuation entries in the Variable
     2495       15            Debug Record (Record Type 14)
     2496       16
     2497       17        DESCRIPTION:  This routine builds continuation entries in the
     2498       18            Variable Debug Record.  It is used for dimensioned entries
     2499       19            of Array Type 3 or Array Type 4 (see XUO$VREBL - Array Type)
     2500       20            to describe the dimension attributes of the variable.
     2501       21
     2502       22        */
     2503       23        /*D*
     2504       24
     2505       25        CALL:  CALL XUO$VREBL_CONT (Offset,
     2506       26                             Data Type,
     2507       27                             Elements,
     2508       28                             Multiplier 1,
     2509       29                             Multiplier 2,
     2510       30                             Multiplier 3,
     2511       31                             Multiplier 4,
     2512       32                             Multiplier 5,
     2513       33                             Multiplier 6)
     2514       34
     2515       35        INPUT:
     2516       36            Offset              UBIN ALIGNED
PL6.E3A0      #012=XUO$VREBL_CONT File=XUO$BUILD.:E05TSI                         WED 07/30/97 09:29 Page:310
     2517       37                                Contains the value to be subtracted
     2518       38                                from the composite index calculated
     2519       39                                from index values and multipliers
     2520       40                                before multiplying by Element Size.
     2521       41            Data Type           UBIN ALIGNED
     2522       42                                Indicates the type of data described
     2523       43                                by this entry.  The defined data type
     2524       44                                codes are as follows:
     2525       45                      0              Type not specified.
     2526       46                      1              Real binary fixed single precision
     2527       47                                     (SBIN, INTEGER, COMP-6).
     2528       48                      2              Real binary fixed double precision.
     2529       49                      3              Real binary float single precision
     2530       50                                     (REAL).
     2531       51                      4              Real binary float double precision
     2532       52                                     (DOUBLE PRECISION).
     2533       53                      5              Complex binary fixed single precision.
     2534       54                      6              Complex binary fixed double precision.
     2535       55                      7              Complex binary float single precision
     2536       56                                     (COMPLEX).
     2537       57                      8              Complex binary float double precision
     2538       58                                     (DOUBLE COMPLEX).
     2539       59                      9              Packed decimal fixed, lead ASCII sign
     2540       60                                     (COMP-4).
     2541       61                     10              Packed decimal float.
     2542       62                     11              Packed decimal fixed complex,
     2543       63                                     lead ASCII sign.
     2544       64                     12              Packed decimal float complex.
     2545       65                     13              Pointer
     2546       66                     14              Offset
     2547       67                     15              Label
     2548       68                     16              Entry
     2549       69                     17              Structure
     2550       70                     18              Area
     2551       71                     19              Bit string
     2552       72                     20              Varying bit string
     2553       73                     21              Character string
PL6.E3A0      #012=XUO$VREBL_CONT File=XUO$BUILD.:E05TSI                         WED 07/30/97 09:29 Page:311
     2554       74                     22              Varying character string
     2555       75                     23              File
     2556       76                     24              UBIN
     2557       77                     25              Packed decimal fixed, trail ASCII sign
     2558       78                                     (COMP, COMP-4).
     2559       79                     26              Adjustable character string
     2560       80                     27              Adjustable bit string
     2561       81                     28              EPTR
     2562       82                     29              16 bit signed integer (COMP-1).
     2563       83                     30              32 bit signed integer (COMP-2).
     2564       84                     31              Packed decimal fixed, trail EBCDIC sign
     2565       85                                     (COMP-3).
     2566       86                     32              INDEX-1
     2567       87                     33              INDEX-2
     2568       88                     34              FORTRAN Every
     2569       89                     35              FORTRAN Logical
     2570       90                     36              FORTRAN Any (Never Passed)
     2571       91                     37              FORTRAN Label
     2572       92                     38              FORTRAN UCB
     2573       93                     39              Intrinsic Constant
     2574       94                     40              Packed decimal fixed, no sign (COMP,
     2575       95                                     COMP-3, COMP-4).
     2576       96                     41              Unpacked decimal fixed, no sign
     2577       97                     42              Unpacked decimal fixed lead sign
     2578       98                     43              Unpacked decimal fixed trail sign
     2579       99                     44              Unpacked decimal fixed lead over
     2580      100                                     punched sign
     2581      101                     45              Unpacked decimal fixed trail over
     2582      102                                     punched sign
     2583      103                     46              Adjustable structure
     2584      104                     47              Vector
     2585      105                     48              Remember
     2586      106                     49              Descriptor
     2587      107                     50              Unpacked decimal float
     2588      108                     51              Packed decimal fixed,
     2589      109                                     Lead EBCDIC sign
     2590      110                     52              Enumerated Type
PL6.E3A0      #012=XUO$VREBL_CONT File=XUO$BUILD.:E05TSI                         WED 07/30/97 09:29 Page:312
     2591      111                     53              Set
     2592      112                     54 - 59         Reserved
     2593      113                     60              Null entry
     2594      114                     61              Virtual array dimension entry
     2595      115                     62              Array dimension entry
     2596      116                     63              Reserved
     2597      117            Elements            UBIN ALIGNED
     2598      118                                Contains the total number of elements
     2599      119                                in the array, i.e., the product of all
     2600      120                                dimensions.
     2601      121            Multiplier N        UBIN ALIGNED
     2602      122                                The coefficient to be applied
     2603      123                                to index n in an array reference
     2604      124                                to be used in locating a particular
     2605      125                                element of an array.
     2606      126
     2607      127            The following example is included to clarify the use
     2608      128            of the various array parameters.
     2609      129
     2610      130            Assume an array A(LB1:UB1, LB2:UB2, ..., LBn:UBn).
     2611      131            Then for languages which vary the first dimension
     2612      132            most rapidly (e.g., FORTRAN):
     2613      133
     2614      134                 Multiplier(1)= 1
     2615      135                 Multiplier(j)= Multiplier(j-1) * (UB(j-1) -LB(j-1) +1)
     2616      136                                2 <= j <= N
     2617      137                 Elements = Multiplier n * (UBn -LBn *1)
     2618      138
     2619      139            And for languages which vary the last dimension most
     2620      140            rapidly (e.g., PL1):
     2621      141
     2622      142                 Multiplier(n)= 1
     2623      143                 Multiplier(j)= Multiplier(j+1) * (UB(j+1) -LB(j-1) +1)
     2624      144                                1 <= j <= N-1
     2625      145                 Elements = Multiplier(1) * (UB1 -LB1 +1)
     2626      146
     2627      147            In either case:
PL6.E3A0      #012=XUO$VREBL_CONT File=XUO$BUILD.:E05TSI                         WED 07/30/97 09:29 Page:313
     2628      148
     2629      149               Offset = The sum of (Multiplier(j) * LB(j))
     2630      150                        for j=1 to N
     2631      151
     2632      152            and the bit displacement from address to any element
     2633      153            A(x1, x2, ..., xn) is given by:
     2634      154
     2635      155             Bit displacement =
     2636      156
     2637      157                  The sum of (Multiplier(j)* X(j) -Offset)
     2638      158                              for j = 1 to N) * Element Size
     2639      159
     2640      160
     2641      161        OUTPUT:  none
     2642      162
     2643      163        B$OBJECT REFERENCE:  B$VREBLC
     2644      164        */
     2645      165        /*B*
     2646      166
     2647      167        GLOBAL DATA:
     2648      168            B_VREBL_CUR$
     2649      169            B_VREBL_COUNT
     2650      170            B_VREBL_PAGE
     2651      171
     2652      172        INTERFACE:
     2653      173             XUO$OUWRITE
     2654      174
     2655      175        */
     2656      176
     2657      177         /**/
     2658      178        XUO$VREBL_CONT: PROC(P_OFFSET,P_DATA_TYPE,P_ELEMENTS,P_MULTIPLIER_1,P_MULTIPLIER_2,
     2659      179               P_MULTIPLIER_3,P_MULTIPLIER_4,P_MULTIPLIER_5,P_MULTIPLIER_6);
     2660      180         /*
     2661      181            */
     2662      182        %INCLUDE ZVA_SYSTEM_FILE;
     2663     6433            %PAGE (ARG=INCLUDES);

PL6.E3A0      #012=XUO$VREBL_CONT File=XUO$BUILD.:E05TSI                         WED 07/30/97 09:29 Page:314
              6446    1   /*******************************************************************************
              6447    1   *                                                                              *
              6448    1   *        INCLUDES              INCLUDES                                            *
              6449    1   *                                                                              *
              6450    1   *******************************************************************************/

     2664     6454        %INCLUDE B$OBJECT_C;
     2665     9884         %INCLUDE XUO$OBJ_C;
     2666    10294            %PAGE (ARG=SUBS);

             10307    1   /*******************************************************************************
             10308    1   *                                                                              *
             10309    1   *        SUBS              SUBS                                                  *
             10310    1   *                                                                              *
             10311    1   *******************************************************************************/

     2667    10315            %B$RECORDSUBS;
     2668    10343            %VREBLSUBS;
     2669    10351            %VREBL_DATATYPES;
     2670    10426            %B$RELOCSUBS;
     2671    10456        %PLIST;
     2672    10457            %PAGE (ARG=PARAMETERS);

             10470    1   /*******************************************************************************
             10471    1   *                                                                              *
             10472    1   *        PARAMETERS              PARAMETERS                                        *
             10473    1   *                                                                              *
             10474    1   *******************************************************************************/

     2673    10478    1   DCL P_OFFSET UBIN;
     2674    10479    1   DCL P_DATA_TYPE UBIN;
     2675    10480    1   DCL P_ELEMENTS UBIN;
     2676    10481    1   DCL P_MULTIPLIER_1 UBIN;
     2677    10482    1   DCL P_MULTIPLIER_2 UBIN;
     2678    10483    1   DCL P_MULTIPLIER_3 UBIN;
     2679    10484    1   DCL P_MULTIPLIER_4 UBIN;
     2680    10485    1   DCL P_MULTIPLIER_5 UBIN;
PL6.E3A0      #012=XUO$VREBL_CONT File=XUO$BUILD.:E05TSI                         WED 07/30/97 09:29 Page:315
     2681    10486    1   DCL P_MULTIPLIER_6 UBIN;
     2682    10487        %PAGE (ARG=VREBLC DATA);

             10500    1   /*******************************************************************************
             10501    1   *                                                                              *
             10502    1   *        VREBLC DATA              VREBLC DATA                                      *
             10503    1   *                                                                              *
             10504    1   *******************************************************************************/

     2683    10508        %B$VREBLC (STCLASS="BASED(VREBL_CUR$)");
     2684    10581        %B_VREBL_POINTERS;
     2685    10601    1   DCL VREBL_CUR$ PTR;
     2686    10602        %PLIST;
     2687    10603        %PAGE (ARG=ENTRY DCL);

             10616    1   /*******************************************************************************
             10617    1   *                                                                              *
             10618    1   *        ENTRY DCL              ENTRY DCL                                          *
             10619    1   *                                                                              *
             10620    1   *******************************************************************************/

     2688    10624    1   DCL XUO$OUWRITE ENTRY(2);
     2689    10625        %PAGE (ARG=XUO$VREBL_CONT);

             10638    1   /*******************************************************************************
             10639    1   *                                                                              *
             10640    1   *        XUO$VREBL_CONT              XUO$VREBL_CONT                                *
             10641    1   *                                                                              *
             10642    1   *******************************************************************************/

     2690    10646         /*
     2691    10647         The following section will check to see if the passed information will
     2692    10648         fit in the current record.  If not, the current record will be
     2693    10649         written and the pointer reinitialized.  Then the text will be moved to
     2694    10650         the buffer.
     2695    10651         NOTE:    This should not happen but better safe than sorry.
     2696    10652         */
PL6.E3A0      #012=XUO$VREBL_CONT File=XUO$BUILD.:E05TSI                         WED 07/30/97 09:29 Page:316
     2697    10653    1       IF B_VREBL_CUR$>=B_VREBL_END$ THEN
     2698    10654    2       DO;
     2699    10655    2           CALL XUO$OUWRITE(%TYPVREBL);
     2700    10656    2           B_VREBL_PAGE=B_VREBL_PAGE+1;
     2701    10657    2           B_VREBL_CUR$=B_VREBL_BASE$;
     2702    10658    2           END;
     2703    10659         /*
     2704    10660         The following will build the continuation entry.
     2705    10661         */
     2706    10662    1       VREBL_CUR$=B_VREBL_CUR$;
     2707    10663    1       B$VREBLC='0'B;
     2708    10664    1       B$VREBLC.OFFSET=P_OFFSET;
     2709    10665    1       B$VREBLC.DATATYP=P_DATA_TYPE;
     2710    10666    1       B$VREBLC.ELEMENTS=P_ELEMENTS;
     2711    10667    1       B$VREBLC.OPNDTYP=%OPERCONST;
     2712    10668    1       IF P_DATA_TYPE=%VIRTUAL_ARRAY_DATATYPE THEN
     2713    10669    2       DO;
     2714    10670    2           B$VREBLC.MULT_61(0)=P_MULTIPLIER_1;
     2715    10671    2           IF ADDR(P_MULTIPLIER_2)~=ADDR(NIL) THEN
     2716    10672    3           DO;
     2717    10673    3               B$VREBLC.MULT_61(1)=P_MULTIPLIER_2;
     2718    10674    3               IF ADDR(P_MULTIPLIER_3)~=ADDR(NIL) THEN
     2719    10675    3                   B$VREBLC.MULT_61(2)=P_MULTIPLIER_3;
     2720    10676    3               END;
     2721    10677    2           END;
     2722    10678    1       ELSE
     2723    10679    2       DO;
     2724    10680    2           B$VREBLC.MULT_62(0)=P_MULTIPLIER_1;
     2725    10681    2           IF ADDR(P_MULTIPLIER_2)~=ADDR(NIL) THEN
     2726    10682    3           DO;
     2727    10683    3               B$VREBLC.MULT_62(1)=P_MULTIPLIER_2;
     2728    10684    3               IF ADDR(P_MULTIPLIER_3)~=ADDR(NIL) THEN
     2729    10685    4               DO;
     2730    10686    4                   B$VREBLC.MULT_62(2)=P_MULTIPLIER_3;
     2731    10687    4                   IF ADDR(P_MULTIPLIER_4)~=ADDR(NIL) THEN
     2732    10688    5                   DO;
     2733    10689    5                       B$VREBLC.MULT_62(3)=P_MULTIPLIER_4;
PL6.E3A0      #012=XUO$VREBL_CONT File=XUO$BUILD.:E05TSI                         WED 07/30/97 09:29 Page:317
     2734    10690    5                       IF ADDR(P_MULTIPLIER_5)~=ADDR(NIL) THEN
     2735    10691    6                       DO;
     2736    10692    6                           B$VREBLC.MULT_62(4)=P_MULTIPLIER_5;
     2737    10693    6                           IF ADDR(P_MULTIPLIER_6)~=ADDR(NIL) THEN
     2738    10694    6                               B$VREBLC.MULT_62(5)=P_MULTIPLIER_6;
     2739    10695    6                           END; /*MULT_62(4)*/
     2740    10696    5                       END; /*MULT_62(3)*/
     2741    10697    4                   END; /*MULT_62(2)*/
     2742    10698    3               END; /*MULT_62(1)*/
     2743    10699    2           END; /*MULT_62(0)*/
     2744    10700    1       B_VREBL_COUNT=B_VREBL_COUNT+1;
     2745    10701    1       B_VREBL_CUR$=PINCRW(B_VREBL_CUR$,SIZEW(B$VREBLC));
     2746    10702    1       RETURN;
     2747    10703         /**/
     2748    10704    1   END XUO$VREBL_CONT;
     2749    10705        %EOD;

PL6.E3A0      #012=XUO$VREBL_CONT File=XUO$BUILD.:E05TSI                         WED 07/30/97 09:29 Page:318
--  Include file information  --

   XUO$OBJ_C.:E05TOU  is referenced.
   B$OBJECT_C.:E05TOU  is referenced.
   CP_6_SUBS.:E05TOU  is referenced.
   CP_6_C.:E05TOU  is referenced.
   CP_6.:E05TOU  cannot be made into a system file and is referenced.
   ZVA_FLAGS.:TOOLE04  is referenced.
   ZVA_SYSTEM_FILE.:TOOLE04  is referenced.
      No diagnostics issued in procedure XUO$VREBL_CONT.

   Procedure XUO$VREBL_CONT requires 99 words for executable code.
   Procedure XUO$VREBL_CONT requires 14 words of local(AUTO) storage.

PL6.E3A0      #012=XUO$VREBL_CONT File=XUO$BUILD.:E05TSI                         WED 07/30/97 09:29 Page:319

 Object Unit name= XUO$VREBL_CONT                             File name= XUO$BUILD.:E05TOU
 UTS= JUL 30 '97 09:29:25.80 WED                              Compiler= PL-6/E31         Sev=      00
 SharedLib= :SHARED_SYSTEM                                    Alt SharedLib=


    ****  Control sections  ****

 Sect   Type Bound  Init  Size OctSiz  Section name(segment info)
    0   DCB   even  none     0      0  M$UC
    1   Proc  even  none    99    143  XUO$VREBL_CONT
    2  RoData even  none     4      4  XUO$VREBL_CONT

    ****  Entry defs  ****

                              Check   Calling
                             calling  sequence
  Sect OctLoc Primary Altret sequence   type   Parms  Name
     1      0   yes            yes      Std        9  XUO$VREBL_CONT

  ****  Entry refs  ****

         Check        Calling
        calling       sequence
Altret sequence SRef   type   Args  Name
         yes           Std       2 XUO$OUWRITE
                       nStd      0 X66_AUTO_N
                       Std       0 B_CONSPOOL_D
                       nStd      0 X66_ARET

  ****  Data refs  ****

  Flags:  r = read only, s = secondary
Flgs Name                             Flgs Name                             Flgs Name
     M$UC                                  B_VREBL_BASE$                         B_VREBL_CUR$
     B_VREBL_END$                          B_VREBL_COUNT                         B_VREBL_PAGE
     B_VECTNIL
PL6.E3A0      #012=XUO$VREBL_CONT File=XUO$BUILD.:E05TSI                         WED 07/30/97 09:29 Page:320

  ****  Segment refs  ****

  Flags:  r = read only, s = secondary
Flgs Name                             Flgs Name                             Flgs Name
     ISSID
PL6.E3A0      #012=XUO$VREBL_CONT File=XUO$BUILD.:E05TSI                         WED 07/30/97 09:29 Page:321


     2481        1        /*M*    XUO$VREBL_CONT -- THIS MODULE WILL BUILD OBJECT UNIT VREBL CONTINUATION REC
                 1        ORD*/
     2482        2        /*T***********************************************************/
     2483        3        /*T*                                                         */
     2484        4        /*T* Copyright (c) Bull HN Information Systems Inc., 1997    */
     2485        5        /*T*                                                         */
     2486        6        /*T***********************************************************/
     2487        7        /*P*
     2488        8
     2489        9        NAME:  XUO$VREBL_CONT
     2490       10        XUO$VREBL_CONT --Variable Debug Record Continuation
     2491       11                         (Record Type 14)
     2492       12
     2493       13
     2494       14        PURPOSE:  To build continuation entries in the Variable
     2495       15            Debug Record (Record Type 14)
     2496       16
     2497       17        DESCRIPTION:  This routine builds continuation entries in the
     2498       18            Variable Debug Record.  It is used for dimensioned entries
     2499       19            of Array Type 3 or Array Type 4 (see XUO$VREBL - Array Type)
     2500       20            to describe the dimension attributes of the variable.
     2501       21
     2502       22        */
     2503       23        /*D*
     2504       24
     2505       25        CALL:  CALL XUO$VREBL_CONT (Offset,
     2506       26                             Data Type,
     2507       27                             Elements,
     2508       28                             Multiplier 1,
     2509       29                             Multiplier 2,
     2510       30                             Multiplier 3,
     2511       31                             Multiplier 4,
     2512       32                             Multiplier 5,
     2513       33                             Multiplier 6)
     2514       34
     2515       35        INPUT:
PL6.E3A0      #012=XUO$VREBL_CONT File=XUO$BUILD.:E05TSI                         WED 07/30/97 09:29 Page:322
     2516       36            Offset              UBIN ALIGNED
     2517       37                                Contains the value to be subtracted
     2518       38                                from the composite index calculated
     2519       39                                from index values and multipliers
     2520       40                                before multiplying by Element Size.
     2521       41            Data Type           UBIN ALIGNED
     2522       42                                Indicates the type of data described
     2523       43                                by this entry.  The defined data type
     2524       44                                codes are as follows:
     2525       45                      0              Type not specified.
     2526       46                      1              Real binary fixed single precision
     2527       47                                     (SBIN, INTEGER, COMP-6).
     2528       48                      2              Real binary fixed double precision.
     2529       49                      3              Real binary float single precision
     2530       50                                     (REAL).
     2531       51                      4              Real binary float double precision
     2532       52                                     (DOUBLE PRECISION).
     2533       53                      5              Complex binary fixed single precision.
     2534       54                      6              Complex binary fixed double precision.
     2535       55                      7              Complex binary float single precision
     2536       56                                     (COMPLEX).
     2537       57                      8              Complex binary float double precision
     2538       58                                     (DOUBLE COMPLEX).
     2539       59                      9              Packed decimal fixed, lead ASCII sign
     2540       60                                     (COMP-4).
     2541       61                     10              Packed decimal float.
     2542       62                     11              Packed decimal fixed complex,
     2543       63                                     lead ASCII sign.
     2544       64                     12              Packed decimal float complex.
     2545       65                     13              Pointer
     2546       66                     14              Offset
     2547       67                     15              Label
     2548       68                     16              Entry
     2549       69                     17              Structure
     2550       70                     18              Area
     2551       71                     19              Bit string
     2552       72                     20              Varying bit string
PL6.E3A0      #012=XUO$VREBL_CONT File=XUO$BUILD.:E05TSI                         WED 07/30/97 09:29 Page:323
     2553       73                     21              Character string
     2554       74                     22              Varying character string
     2555       75                     23              File
     2556       76                     24              UBIN
     2557       77                     25              Packed decimal fixed, trail ASCII sign
     2558       78                                     (COMP, COMP-4).
     2559       79                     26              Adjustable character string
     2560       80                     27              Adjustable bit string
     2561       81                     28              EPTR
     2562       82                     29              16 bit signed integer (COMP-1).
     2563       83                     30              32 bit signed integer (COMP-2).
     2564       84                     31              Packed decimal fixed, trail EBCDIC sign
     2565       85                                     (COMP-3).
     2566       86                     32              INDEX-1
     2567       87                     33              INDEX-2
     2568       88                     34              FORTRAN Every
     2569       89                     35              FORTRAN Logical
     2570       90                     36              FORTRAN Any (Never Passed)
     2571       91                     37              FORTRAN Label
     2572       92                     38              FORTRAN UCB
     2573       93                     39              Intrinsic Constant
     2574       94                     40              Packed decimal fixed, no sign (COMP,
     2575       95                                     COMP-3, COMP-4).
     2576       96                     41              Unpacked decimal fixed, no sign
     2577       97                     42              Unpacked decimal fixed lead sign
     2578       98                     43              Unpacked decimal fixed trail sign
     2579       99                     44              Unpacked decimal fixed lead over
     2580      100                                     punched sign
     2581      101                     45              Unpacked decimal fixed trail over
     2582      102                                     punched sign
     2583      103                     46              Adjustable structure
     2584      104                     47              Vector
     2585      105                     48              Remember
     2586      106                     49              Descriptor
     2587      107                     50              Unpacked decimal float
     2588      108                     51              Packed decimal fixed,
     2589      109                                     Lead EBCDIC sign
PL6.E3A0      #012=XUO$VREBL_CONT File=XUO$BUILD.:E05TSI                         WED 07/30/97 09:29 Page:324
     2590      110                     52              Enumerated Type
     2591      111                     53              Set
     2592      112                     54 - 59         Reserved
     2593      113                     60              Null entry
     2594      114                     61              Virtual array dimension entry
     2595      115                     62              Array dimension entry
     2596      116                     63              Reserved
     2597      117            Elements            UBIN ALIGNED
     2598      118                                Contains the total number of elements
     2599      119                                in the array, i.e., the product of all
     2600      120                                dimensions.
     2601      121            Multiplier N        UBIN ALIGNED
     2602      122                                The coefficient to be applied
     2603      123                                to index n in an array reference
     2604      124                                to be used in locating a particular
     2605      125                                element of an array.
     2606      126
     2607      127            The following example is included to clarify the use
     2608      128            of the various array parameters.
     2609      129
     2610      130            Assume an array A(LB1:UB1, LB2:UB2, ..., LBn:UBn).
     2611      131            Then for languages which vary the first dimension
     2612      132            most rapidly (e.g., FORTRAN):
     2613      133
     2614      134                 Multiplier(1)= 1
     2615      135                 Multiplier(j)= Multiplier(j-1) * (UB(j-1) -LB(j-1) +1)
     2616      136                                2 <= j <= N
     2617      137                 Elements = Multiplier n * (UBn -LBn *1)
     2618      138
     2619      139            And for languages which vary the last dimension most
     2620      140            rapidly (e.g., PL1):
     2621      141
     2622      142                 Multiplier(n)= 1
     2623      143                 Multiplier(j)= Multiplier(j+1) * (UB(j+1) -LB(j-1) +1)
     2624      144                                1 <= j <= N-1
     2625      145                 Elements = Multiplier(1) * (UB1 -LB1 +1)
     2626      146
PL6.E3A0      #012=XUO$VREBL_CONT File=XUO$BUILD.:E05TSI                         WED 07/30/97 09:29 Page:325
     2627      147            In either case:
     2628      148
     2629      149               Offset = The sum of (Multiplier(j) * LB(j))
     2630      150                        for j=1 to N
     2631      151
     2632      152            and the bit displacement from address to any element
     2633      153            A(x1, x2, ..., xn) is given by:
     2634      154
     2635      155             Bit displacement =
     2636      156
     2637      157                  The sum of (Multiplier(j)* X(j) -Offset)
     2638      158                              for j = 1 to N) * Element Size
     2639      159
     2640      160
     2641      161        OUTPUT:  none
     2642      162
     2643      163        B$OBJECT REFERENCE:  B$VREBLC
     2644      164        */
     2645      165        /*B*
     2646      166
     2647      167        GLOBAL DATA:
     2648      168            B_VREBL_CUR$
     2649      169            B_VREBL_COUNT
     2650      170            B_VREBL_PAGE
     2651      171
     2652      172        INTERFACE:
     2653      173             XUO$OUWRITE
     2654      174
     2655      175        */
     2656      176
     2657      177         /**/
     2658      178        XUO$VREBL_CONT: PROC(P_OFFSET,P_DATA_TYPE,P_ELEMENTS,P_MULTIPLIER_1,P_MULTIPLIER_2,

    178  1 000000   000000 700200 xent  XUO$VREBL_C* TSX0  ! X66_AUTO_N
         1 000001   000016 000011                    ZERO    14,9

     2659      179               P_MULTIPLIER_3,P_MULTIPLIER_4,P_MULTIPLIER_5,P_MULTIPLIER_6);
PL6.E3A0      #012=XUO$VREBL_CONT File=XUO$BUILD.:E05TSI                         WED 07/30/97 09:29 Page:326
     2660      180         /*
     2661      181            */
     2662      182        %INCLUDE ZVA_SYSTEM_FILE;
     2663     6433            %PAGE (ARG=INCLUDES);

              6446    1   /*******************************************************************************
              6447    1   *                                                                              *
              6448    1   *        INCLUDES              INCLUDES                                           *
              6449    1   *                                                                              *
              6450    1   *******************************************************************************/

     2664     6454        %INCLUDE B$OBJECT_C;
     2665     9884         %INCLUDE XUO$OBJ_C;
     2666    10294            %PAGE (ARG=SUBS);

             10307    1   /*******************************************************************************
             10308    1   *                                                                              *
             10309    1   *        SUBS              SUBS                                                  *
             10310    1   *                                                                              *
             10311    1   *******************************************************************************/

     2667    10315            %B$RECORDSUBS;
     2668    10343            %VREBLSUBS;
     2669    10351            %VREBL_DATATYPES;
     2670    10426            %B$RELOCSUBS;
     2671    10456        %PLIST;
     2672    10457            %PAGE (ARG=PARAMETERS);

             10470    1   /*******************************************************************************
             10471    1   *                                                                              *
             10472    1   *        PARAMETERS              PARAMETERS                                       *
             10473    1   *                                                                              *
             10474    1   *******************************************************************************/

     2673    10478    1   DCL P_OFFSET UBIN;
     2674    10479    1   DCL P_DATA_TYPE UBIN;
     2675    10480    1   DCL P_ELEMENTS UBIN;
PL6.E3A0      #012=XUO$VREBL_CONT File=XUO$BUILD.:E05TSI                         WED 07/30/97 09:29 Page:327
     2676    10481    1   DCL P_MULTIPLIER_1 UBIN;
     2677    10482    1   DCL P_MULTIPLIER_2 UBIN;
     2678    10483    1   DCL P_MULTIPLIER_3 UBIN;
     2679    10484    1   DCL P_MULTIPLIER_4 UBIN;
     2680    10485    1   DCL P_MULTIPLIER_5 UBIN;
     2681    10486    1   DCL P_MULTIPLIER_6 UBIN;
     2682    10487        %PAGE (ARG=VREBLC DATA);

             10500    1   /*******************************************************************************
             10501    1   *                                                                              *
             10502    1   *        VREBLC DATA              VREBLC DATA                                     *
             10503    1   *                                                                              *
             10504    1   *******************************************************************************/

     2683    10508        %B$VREBLC (STCLASS="BASED(VREBL_CUR$)");
     2684    10581        %B_VREBL_POINTERS;
     2685    10601    1   DCL VREBL_CUR$ PTR;
     2686    10602        %PLIST;
     2687    10603        %PAGE (ARG=ENTRY DCL);

             10616    1   /*******************************************************************************
             10617    1   *                                                                              *
             10618    1   *        ENTRY DCL              ENTRY DCL                                         *
             10619    1   *                                                                              *
             10620    1   *******************************************************************************/

     2688    10624    1   DCL XUO$OUWRITE ENTRY(2);
     2689    10625        %PAGE (ARG=XUO$VREBL_CONT);

             10638    1   /*******************************************************************************
             10639    1   *                                                                              *
             10640    1   *        XUO$VREBL_CONT              XUO$VREBL_CONT                               *
             10641    1   *                                                                              *
             10642    1   *******************************************************************************/

     2690    10646         /*
     2691    10647         The following section will check to see if the passed information will
PL6.E3A0      #012=XUO$VREBL_CONT File=XUO$BUILD.:E05TSI                         WED 07/30/97 09:29 Page:328
     2692    10648         fit in the current record.  If not, the current record will be
     2693    10649         written and the pointer reinitialized.  Then the text will be moved to
     2694    10650         the buffer.
     2695    10651         NOTE:    This should not happen but better safe than sorry.
     2696    10652         */
     2697    10653    1       IF B_VREBL_CUR$>=B_VREBL_END$ THEN

  10653  1 000002   000000 236000 xsym               LDQ     B_VREBL_CUR$
         1 000003   000000 116000 xsym               CMPQ    B_VREBL_END$
         1 000004   000014 602000 1                  TNC     s:10662

     2698    10654    2       DO;

     2699    10655    2           CALL XUO$OUWRITE(%TYPVREBL);

  10655  1 000005   000001 630400 2                  EPPR0   1
         1 000006   000017 631400 xsym               EPPR1   B_VECTNIL+15
         1 000007   000000 701000 xent               TSX1    XUO$OUWRITE
         1 000010   000000 011000                    NOP     0

     2700    10656    2           B_VREBL_PAGE=B_VREBL_PAGE+1;

  10656  1 000011   000000 054000 xsym               AOS     B_VREBL_PAGE

     2701    10657    2           B_VREBL_CUR$=B_VREBL_BASE$;

  10657  1 000012   000000 236000 xsym               LDQ     B_VREBL_BASE$
         1 000013   000000 756000 xsym               STQ     B_VREBL_CUR$

     2702    10658    2           END;

     2703    10659         /*
     2704    10660         The following will build the continuation entry.
     2705    10661         */
     2706    10662    1       VREBL_CUR$=B_VREBL_CUR$;

  10662  1 000014   200014 756100                    STQ     VREBL_CUR$,,AUTO
PL6.E3A0      #012=XUO$VREBL_CONT File=XUO$BUILD.:E05TSI                         WED 07/30/97 09:29 Page:329

     2707    10663    1       B$VREBLC='0'B;

  10663  1 000015   200014 470500                    LDP0    VREBL_CUR$,,AUTO
         1 000016   000100 100400                    MLR     fill='000'O
         1 000017   000002 000001 xsym               ADSC9   B_VECTNIL+2              cn=0,n=1
         1 000020   000000 000024                    ADSC9   0,,PR0                   cn=0,n=20

     2708    10664    1       B$VREBLC.OFFSET=P_OFFSET;

  10664  1 000021   200003 471500                    LDP1    @P_OFFSET,,AUTO
         1 000022   100000 236100                    LDQ     0,,PR1
         1 000023   000010 736000                    QLS     8
         1 000024   000000 676100                    ERQ     0,,PR0
         1 000025   000002 376000 2                  ANQ     2
         1 000026   000000 656100                    ERSQ    0,,PR0

     2709    10665    1       B$VREBLC.DATATYP=P_DATA_TYPE;

  10665  1 000027   200004 473500                    LDP3    @P_DATA_TYPE,,AUTO
         1 000030   300000 236100                    LDQ     0,,PR3
         1 000031   000002 736000                    QLS     2
         1 000032   000000 676100                    ERQ     0,,PR0
         1 000033   000374 376007                    ANQ     252,DL
         1 000034   000000 656100                    ERSQ    0,,PR0

     2710    10666    1       B$VREBLC.ELEMENTS=P_ELEMENTS;

  10666  1 000035   200005 474500                    LDP4    @P_ELEMENTS,,AUTO
         1 000036   400000 236100                    LDQ     0,,PR4
         1 000037   000004 736000                    QLS     4
         1 000040   000001 676100                    ERQ     1,,PR0
         1 000041   000003 376000 2                  ANQ     3
         1 000042   000001 656100                    ERSQ    1,,PR0

     2711    10667    1       B$VREBLC.OPNDTYP=%OPERCONST;

PL6.E3A0      #012=XUO$VREBL_CONT File=XUO$BUILD.:E05TSI                         WED 07/30/97 09:29 Page:330
  10667  1 000043   000001 236100                    LDQ     1,,PR0
         1 000044   000003 376000 2                  ANQ     3
         1 000045   000004 276007                    ORQ     4,DL
         1 000046   000001 756100                    STQ     1,,PR0

     2712    10668    1       IF P_DATA_TYPE=%VIRTUAL_ARRAY_DATATYPE THEN

  10668  1 000047   300000 235100                    LDA     0,,PR3
         1 000050   000075 115007                    CMPA    61,DL
         1 000051   000072 601000 1                  TNZ     s:10680

     2713    10669    2       DO;

     2714    10670    2           B$VREBLC.MULT_61(0)=P_MULTIPLIER_1;

  10670  1 000052   200006 475500                    LDP5    @P_MULTIPLIER_1,,AUTO
         1 000053   500000 235100                    LDA     0,,PR5
         1 000054   000002 755100                    STA     2,,PR0

     2715    10671    2           IF ADDR(P_MULTIPLIER_2)~=ADDR(NIL) THEN

  10671  1 000055   200007 236100                    LDQ     @P_MULTIPLIER_2,,AUTO
         1 000056   000001 116000 xsym               CMPQ    B_VECTNIL+1
         1 000057   000136 600000 1                  TZE     s:10700

     2716    10672    3           DO;

     2717    10673    3               B$VREBLC.MULT_61(1)=P_MULTIPLIER_2;

  10673  1 000060   200007 476500                    LDP6    @P_MULTIPLIER_2,,AUTO
         1 000061   600000 235100                    LDA     0,,PR6
         1 000062   000003 755100                    STA     3,,PR0

     2718    10674    3               IF ADDR(P_MULTIPLIER_3)~=ADDR(NIL) THEN

  10674  1 000063   200010 236100                    LDQ     @P_MULTIPLIER_3,,AUTO
         1 000064   000001 116000 xsym               CMPQ    B_VECTNIL+1
PL6.E3A0      #012=XUO$VREBL_CONT File=XUO$BUILD.:E05TSI                         WED 07/30/97 09:29 Page:331
         1 000065   000136 600000 1                  TZE     s:10700

     2719    10675    3                   B$VREBLC.MULT_61(2)=P_MULTIPLIER_3;

  10675  1 000066   200010 477500                    LDP7    @P_MULTIPLIER_3,,AUTO
         1 000067   700000 235100                    LDA     0,,PR7
         1 000070   000004 755100                    STA     4,,PR0

     2720    10676    3               END;

     2721    10677    2           END;

  10677  1 000071   000136 710000 1                  TRA     s:10700

     2722    10678    1       ELSE
     2723    10679    2       DO;

     2724    10680    2           B$VREBLC.MULT_62(0)=P_MULTIPLIER_1;

  10680  1 000072   200006 475500                    LDP5    @P_MULTIPLIER_1,,AUTO
         1 000073   500000 720100                    LXL0    0,,PR5
         1 000074   000002 740100                    STX0    2,,PR0

     2725    10681    2           IF ADDR(P_MULTIPLIER_2)~=ADDR(NIL) THEN

  10681  1 000075   200007 236100                    LDQ     @P_MULTIPLIER_2,,AUTO
         1 000076   000001 116000 xsym               CMPQ    B_VECTNIL+1
         1 000077   000136 600000 1                  TZE     s:10700

     2726    10682    3           DO;

     2727    10683    3               B$VREBLC.MULT_62(1)=P_MULTIPLIER_2;

  10683  1 000100   200007 476500                    LDP6    @P_MULTIPLIER_2,,AUTO
         1 000101   600000 721100                    LXL1    0,,PR6
         1 000102   000002 441100                    SXL1    2,,PR0

PL6.E3A0      #012=XUO$VREBL_CONT File=XUO$BUILD.:E05TSI                         WED 07/30/97 09:29 Page:332
     2728    10684    3               IF ADDR(P_MULTIPLIER_3)~=ADDR(NIL) THEN

  10684  1 000103   200010 236100                    LDQ     @P_MULTIPLIER_3,,AUTO
         1 000104   000001 116000 xsym               CMPQ    B_VECTNIL+1
         1 000105   000136 600000 1                  TZE     s:10700

     2729    10685    4               DO;

     2730    10686    4                   B$VREBLC.MULT_62(2)=P_MULTIPLIER_3;

  10686  1 000106   200010 477500                    LDP7    @P_MULTIPLIER_3,,AUTO
         1 000107   700000 722100                    LXL2    0,,PR7
         1 000110   000003 742100                    STX2    3,,PR0

     2731    10687    4                   IF ADDR(P_MULTIPLIER_4)~=ADDR(NIL) THEN

  10687  1 000111   200011 236100                    LDQ     @P_MULTIPLIER_4,,AUTO
         1 000112   000001 116000 xsym               CMPQ    B_VECTNIL+1
         1 000113   000136 600000 1                  TZE     s:10700

     2732    10688    5                   DO;

     2733    10689    5                       B$VREBLC.MULT_62(3)=P_MULTIPLIER_4;

  10689  1 000114   200011 470500                    LDP0    @P_MULTIPLIER_4,,AUTO
         1 000115   000000 720100                    LXL0    0,,PR0
         1 000116   200014 470500                    LDP0    VREBL_CUR$,,AUTO
         1 000117   000003 440100                    SXL0    3,,PR0

     2734    10690    5                       IF ADDR(P_MULTIPLIER_5)~=ADDR(NIL) THEN

  10690  1 000120   200012 236100                    LDQ     @P_MULTIPLIER_5,,AUTO
         1 000121   000001 116000 xsym               CMPQ    B_VECTNIL+1
         1 000122   000136 600000 1                  TZE     s:10700

     2735    10691    6                       DO;

PL6.E3A0      #012=XUO$VREBL_CONT File=XUO$BUILD.:E05TSI                         WED 07/30/97 09:29 Page:333
     2736    10692    6                           B$VREBLC.MULT_62(4)=P_MULTIPLIER_5;

  10692  1 000123   200012 470500                    LDP0    @P_MULTIPLIER_5,,AUTO
         1 000124   000000 720100                    LXL0    0,,PR0
         1 000125   200014 470500                    LDP0    VREBL_CUR$,,AUTO
         1 000126   000004 740100                    STX0    4,,PR0

     2737    10693    6                           IF ADDR(P_MULTIPLIER_6)~=ADDR(NIL) THEN

  10693  1 000127   200013 236100                    LDQ     @P_MULTIPLIER_6,,AUTO
         1 000130   000001 116000 xsym               CMPQ    B_VECTNIL+1
         1 000131   000136 600000 1                  TZE     s:10700

     2738    10694    6                               B$VREBLC.MULT_62(5)=P_MULTIPLIER_6;

  10694  1 000132   200013 470500                    LDP0    @P_MULTIPLIER_6,,AUTO
         1 000133   000000 720100                    LXL0    0,,PR0
         1 000134   200014 470500                    LDP0    VREBL_CUR$,,AUTO
         1 000135   000004 440100                    SXL0    4,,PR0

     2739    10695    6                           END; /*MULT_62(4)*/

     2740    10696    5                       END; /*MULT_62(3)*/

     2741    10697    4                   END; /*MULT_62(2)*/

     2742    10698    3               END; /*MULT_62(1)*/

     2743    10699    2           END; /*MULT_62(0)*/

     2744    10700    1       B_VREBL_COUNT=B_VREBL_COUNT+1;

  10700  1 000136   000000 054000 xsym               AOS     B_VREBL_COUNT

     2745    10701    1       B_VREBL_CUR$=PINCRW(B_VREBL_CUR$,SIZEW(B$VREBLC));

  10701  1 000137   000000 236000 xsym               LDQ     B_VREBL_CUR$
PL6.E3A0      #012=XUO$VREBL_CONT File=XUO$BUILD.:E05TSI                         WED 07/30/97 09:29 Page:334
         1 000140   000005 036003                    ADLQ    5,DU
         1 000141   000000 756000 xsym               STQ     B_VREBL_CUR$

     2746    10702    1       RETURN;

  10702  1 000142   000000 702200 xent               TSX2  ! X66_ARET
     2747    10703         /**/
     2748    10704    1   END XUO$VREBL_CONT;
     2749    10705        %EOD;

PL6.E3A0      #012=XUO$VREBL_CONT File=XUO$BUILD.:E05TSI                         WED 07/30/97 09:29 Page:335
--  Include file information  --

   XUO$OBJ_C.:E05TOU  is referenced.
   B$OBJECT_C.:E05TOU  is referenced.
   CP_6_SUBS.:E05TOU  is referenced.
   CP_6_C.:E05TOU  is referenced.
   CP_6.:E05TOU  cannot be made into a system file and is referenced.
   ZVA_FLAGS.:TOOLE04  is referenced.
   ZVA_SYSTEM_FILE.:TOOLE04  is referenced.
      No diagnostics issued in procedure XUO$VREBL_CONT.
PL6.E3A0      #012=XUO$VREBL_CONT File=XUO$BUILD.:E05TSI                         WED 07/30/97 09:29 Page:336

 **** Variables and constants ****

  ****  Auto variables  ****

  ****  Scalars and arrays  ****
OctLoc.c.b A Datatyp(siz) R M Lvl/name                 OctLoc.c.b A Datatyp(siz) R M Lvl/name

     4-0-0/w PTR         r     1 @P_DATA_TYPE               5-0-0/w PTR         r     1 @P_ELEMENTS
     6-0-0/w PTR         r     1 @P_MULTIPLIER_1            7-0-0/w PTR         r     1 @P_MULTIPLIER_2
    10-0-0/w PTR         r     1 @P_MULTIPLIER_3           11-0-0/w PTR         r     1 @P_MULTIPLIER_4
    12-0-0/w PTR         r     1 @P_MULTIPLIER_5           13-0-0/w PTR         r     1 @P_MULTIPLIER_6
     3-0-0/w PTR         r     1 @P_OFFSET                 *0-0-0/w UBIN        r     1 P_DATA_TYPE
    *0-0-0/w UBIN        r     1 P_ELEMENTS                *0-0-0/w UBIN        r     1 P_MULTIPLIER_1
    *0-0-0/w UBIN        r     1 P_MULTIPLIER_2            *0-0-0/w UBIN        r     1 P_MULTIPLIER_3
    *0-0-0/w UBIN        r     1 P_MULTIPLIER_4            *0-0-0/w UBIN        r     1 P_MULTIPLIER_5
    *0-0-0/w UBIN        r     1 P_MULTIPLIER_6            *0-0-0/w UBIN        r     1 P_OFFSET
    14-0-0/w PTR         r     1 VREBL_CUR$

  ****  SYMREF variables  ****

  ****  Scalars and arrays  ****
OctLoc.c.b A Datatyp(siz) R M Lvl/name                 OctLoc.c.b A Datatyp(siz) R M Lvl/name

     0-0-0/w PTR         r     1 B_VREBL_BASE$              0-0-0/w SBIN        r     1 B_VREBL_COUNT
     0-0-0/w PTR         r     1 B_VREBL_CUR$               0-0-0/w PTR         r     1 B_VREBL_END$
     0-0-0/w SBIN        r     1 B_VREBL_PAGE

  ****  BASED and DCB variables  ****

  ****  Scalars and arrays  ****
OctLoc.c.b A Datatyp(siz) R M Lvl/name                 OctLoc.c.b A Datatyp(siz) R M Lvl/name

     0-0-0/w STRC(180)   r     1 B$VREBLC


   Procedure XUO$VREBL_CONT requires 99 words for executable code.
PL6.E3A0      #012=XUO$VREBL_CONT File=XUO$BUILD.:E05TSI                         WED 07/30/97 09:29 Page:337
   Procedure XUO$VREBL_CONT requires 14 words of local(AUTO) storage.
PL6.E3A0      #012=XUO$VREBL_CONT File=XUO$BUILD.:E05TSI                         WED 07/30/97 09:29 Page:338
          *** CROSS REFERENCE LISTING ***
**     DENOTES     IDENTIFIER DEFINITION
<<                 IDENTIFIER'S VALUE SET
>>                 IDENTIFIER'S VALUE USED
<>                 IDENTIFIER SET AND/OR USED
--                 IDENTIFIER REFERENCED
PL6.E3A0      #012=XUO$VREBL_CONT File=XUO$BUILD.:E05TSI                         WED 07/30/97 09:29 Page:339
          MINI XREF LISTING

B$VREBLC
     10509**DCL     10663<<ASSIGN  10701--ASSIGN
B$VREBLC.DATATYP
     10515**DCL     10665<<ASSIGN
B$VREBLC.ELEMENTS
     10521**DCL     10666<<ASSIGN
B$VREBLC.MULT_61
     10532**DCL     10556--REDEF   10670<<ASSIGN  10673<<ASSIGN  10675<<ASSIGN
B$VREBLC.MULT_62
     10556**DCL     10680<<ASSIGN  10683<<ASSIGN  10686<<ASSIGN  10689<<ASSIGN  10692<<ASSIGN  10694<<ASSIGN
B$VREBLC.OFFSET
     10510**DCL     10664<<ASSIGN
B$VREBLC.OPNDTYP
     10524**DCL     10667<<ASSIGN
B_VREBL_BASE$
     10593**DCL     10657>>ASSIGN
B_VREBL_COUNT
     10596**DCL     10700<<ASSIGN  10700>>ASSIGN
B_VREBL_CUR$
     10594**DCL     10653>>IF      10657<<ASSIGN  10662>>ASSIGN  10701<<ASSIGN  10701>>ASSIGN
B_VREBL_END$
     10595**DCL     10653>>IF
B_VREBL_PAGE
     10597**DCL     10656<<ASSIGN  10656>>ASSIGN
P_DATA_TYPE
     10479**DCL       178--PROC    10665>>ASSIGN  10668>>IF
P_ELEMENTS
     10480**DCL       178--PROC    10666>>ASSIGN
P_MULTIPLIER_1
     10481**DCL       178--PROC    10670>>ASSIGN  10680>>ASSIGN
P_MULTIPLIER_2
     10482**DCL       178--PROC    10671--IF      10673>>ASSIGN  10681--IF      10683>>ASSIGN
PL6.E3A0      #012=XUO$VREBL_CONT File=XUO$BUILD.:E05TSI                         WED 07/30/97 09:29 Page:340
P_MULTIPLIER_3
     10483**DCL       178--PROC    10674--IF      10675>>ASSIGN  10684--IF      10686>>ASSIGN
P_MULTIPLIER_4
     10484**DCL       178--PROC    10687--IF      10689>>ASSIGN
P_MULTIPLIER_5
     10485**DCL       178--PROC    10690--IF      10692>>ASSIGN
P_MULTIPLIER_6
     10486**DCL       178--PROC    10693--IF      10694>>ASSIGN
P_OFFSET
     10478**DCL       178--PROC    10664>>ASSIGN
VREBL_CUR$
     10601**DCL     10509--IMP-PTR 10662<<ASSIGN  10663>>ASSIGN  10664>>ASSIGN  10665>>ASSIGN  10666>>ASSIGN
     10667>>ASSIGN  10670>>ASSIGN  10673>>ASSIGN  10675>>ASSIGN  10680>>ASSIGN  10683>>ASSIGN  10686>>ASSIGN
     10689>>ASSIGN  10692>>ASSIGN  10694>>ASSIGN
XUO$OUWRITE
     10624**DCL-ENT 10655--CALL

PL6.E3A0      #013=XUO$VREBL_CONT_ADJ File=XUO$BUILD.:E05TSI                     WED 07/30/97 09:29 Page:341
     2750        1        /*M*     XUO$VREBL_CONT_ADJ -- THIS MODULE WILL BUILD OBJECT UNIT VREBL CONTINUATION
                 1         RECORD*/
     2751        2        /*T***********************************************************/
     2752        3        /*T*                                                         */
     2753        4        /*T* Copyright (c) Bull HN Information Systems Inc., 1997    */
     2754        5        /*T*                                                         */
     2755        6        /*T***********************************************************/
     2756        7        /*P*
     2757        8
     2758        9
     2759       10        NAME:  XUO$VREBL_CONT_ADJ
     2760       11        XUO$VREBL_CONT_ADJ --Variable Debug Record Continuation
     2761       12                             (Record Type 14)
     2762       13
     2763       14
     2764       15        PURPOSE:  To build Variable Debug Record continuation entries
     2765       16                  (Record Type 14)
     2766       17
     2767       18        DESCRIPTION:  This routine builds continuation entries in the
     2768       19            Variable Debug Record.  It is used for dimensioned entries
     2769       20            of Array Type 5 (See XUO$VREBL - Array Type)
     2770       21            that have adjustable offsets, elements or multipliers,
     2771       22            to describe the dimension attributes of the variable.
     2772       23
     2773       24        */
     2774       25        /*D*
     2775       26
     2776       27        CALL:  CALL XUO$VREBL_CONT_ADJ (Offset Flag,
     2777       28                                 Offset,
     2778       29                                 Data Type,
     2779       30                                 Elements Flag,
     2780       31                                 Elements,
     2781       32                                 Multiplier 1 Flag,
     2782       33                                 Multiplier 1,
     2783       34                                 Multiplier 2 Flag,
     2784       35                                 Multiplier 2,
     2785       36                                 Multiplier 3 Flag,
PL6.E3A0      #013=XUO$VREBL_CONT_ADJ File=XUO$BUILD.:E05TSI                     WED 07/30/97 09:29 Page:342
     2786       37                                 Multiplier 3)
     2787       38
     2788       39        INPUT:
     2789       40            Offset Flag         BIT(1) UNALIGNED
     2790       41                                Denotes the interpretation of the
     2791       42                                Offset field.  If the Flag = '0'B
     2792       43                                then Offset contains the value to
     2793       44                                be subtracted from the composite
     2794       45                                index calculated from index values
     2795       46                                and multipliers before multiplying
     2796       47                                by Element Size.  If the Flag = '1'B
     2797       48                                then Offset contains the variable
     2798       49                                table entry number of the variable
     2799       50                                containing the value to be subtracted
     2800       51                                from the composite index calculated
     2801       52                                from index values and multipliers
     2802       53                                before multiplying by Element Size.
     2803       54            Offset              UBIN ALIGNED
     2804       55                                Either a value or an entry number
     2805       56                                determined by the Offset Flag.
     2806       57            Data Type           UBIN ALIGNED
     2807       58                                Indicates the type of data described
     2808       59                                by this entry.  The defined data type
     2809       60                                codes are as follows:
     2810       61                      0              Type not specified.
     2811       62                      1              Real binary fixed single precision
     2812       63                                     (SBIN, INTEGER, COMP-6).
     2813       64                      2              Real binary fixed double precision.
     2814       65                      3              Real binary float single precision
     2815       66                                     (REAL).
     2816       67                      4              Real binary float double precision
     2817       68                                     (DOUBLE PRECISION).
     2818       69                      5              Complex binary fixed single precision.
     2819       70                      6              Complex binary fixed double precision.
     2820       71                      7              Complex binary float single precision
     2821       72                                     (COMPLEX).
     2822       73                      8              Complex binary float double precision
PL6.E3A0      #013=XUO$VREBL_CONT_ADJ File=XUO$BUILD.:E05TSI                     WED 07/30/97 09:29 Page:343
     2823       74                                     (DOUBLE COMPLEX).
     2824       75                      9              Packed decimal fixed, lead ASCII sign
     2825       76                                     (COMP-4).
     2826       77                     10              Packed decimal float.
     2827       78                     11              Packed decimal fixed complex,
     2828       79                                     lead ASCII sign.
     2829       80                     12              Packed decimal float complex.
     2830       81                     13              Pointer
     2831       82                     14              Offset
     2832       83                     15              Label
     2833       84                     16              Entry
     2834       85                     17              Structure
     2835       86                     18              Area
     2836       87                     19              Bit string
     2837       88                     20              Varying bit string
     2838       89                     21              Character string
     2839       90                     22              Varying character string
     2840       91                     23              File
     2841       92                     24              UBIN
     2842       93                     25              Packed decimal fixed, trail ASCII sign
     2843       94                                     (COMP, COMP-4).
     2844       95                     26              Adjustable character string
     2845       96                     27              Adjustable bit string
     2846       97                     28              EPTR
     2847       98                     29              16 bit signed integer (COMP-1).
     2848       99                     30              32 bit signed integer (COMP-2).
     2849      100                     31              Packed decimal fixed, trail EBCDIC sign
     2850      101                                     (COMP-3).
     2851      102                     32              INDEX-1
     2852      103                     33              INDEX-2
     2853      104                     34              FORTRAN Every
     2854      105                     35              FORTRAN Logical
     2855      106                     36              FORTRAN Any (Never Passed)
     2856      107                     37              FORTRAN Label
     2857      108                     38              FORTRAN UCB
     2858      109                     39              Intrinsic Constant
     2859      110                     40              Packed decimal fixed, no sign (COMP,
PL6.E3A0      #013=XUO$VREBL_CONT_ADJ File=XUO$BUILD.:E05TSI                     WED 07/30/97 09:29 Page:344
     2860      111                                     COMP-3, COMP-4).
     2861      112                     41              Unpacked decimal fixed, no sign
     2862      113                     42              Unpacked decimal fixed lead sign
     2863      114                     43              Unpacked decimal fixed trail sign
     2864      115                     44              Unpacked decimal fixed lead over
     2865      116                                     punched sign
     2866      117                     45              Unpacked decimal fixed trail over
     2867      118                                     punched sign
     2868      119                     46              Adjustable structure
     2869      120                     47              Vector
     2870      121                     48              Remember
     2871      122                     49              Descriptor
     2872      123                     50              Unpacked decimal float
     2873      124                     51              Packed decimal fixed,
     2874      125                                     Lead EBCDIC sign
     2875      126                     52              Enumerated Type
     2876      127                     53              Set
     2877      128                     54 - 59         Reserved
     2878      129                     60              Null entry
     2879      130                     61              Virtual array dimension entry
     2880      131                     62              Array dimension entry
     2881      132                     63              Reserved
     2882      133             Elements Flag       BIT(1) UNALIGNED
     2883      134                                 Denotes the interpretation of the
     2884      135                                 Elements field.  If Flag = '0'B
     2885      136                                 then Elements contains the total
     2886      137                                 number of elements in the array.
     2887      138                                 If Flag = '1'B then Elements contains
     2888      139                                 the variable record entry number
     2889      140                                 of the variable containing the
     2890      141                                 total number of elements in the array.
     2891      142             Elements            UBIN ALIGNED
     2892      143                                 Contains a value or an entry number
     2893      144                                 depending on the Elements Flag.
     2894      145             Multiplier Flag n   BIT(1) UNALIGNED
     2895      146                                 Denotes the interpretation of the
     2896      147                                 Multiplier n field.  If Flag = '0'B
PL6.E3A0      #013=XUO$VREBL_CONT_ADJ File=XUO$BUILD.:E05TSI                     WED 07/30/97 09:29 Page:345
     2897      148                                 then the Multiplier field contains
     2898      149                                 the actual multiplier.  If Flag = '1'B
     2899      150                                 then the Multiplier field contains
     2900      151                                 the variable record entry number of
     2901      152                                 the variable containing the actual
     2902      153                                 multiplier.
     2903      154             Multiplier n        UBIN ALIGNED
     2904      155                                 Contains the multiplier for the array
     2905      156                                 or a variable record entry number
     2906      157                                 as determined by the Multiplier Flag.
     2907      158
     2908      159            The following example is included to clarify the use
     2909      160            of the various array parameters.
     2910      161
     2911      162            Assume an array A(LB1:UB1, LB2:UB2, ..., LBn:UBn).
     2912      163            Then for languages which vary the first dimension
     2913      164            most rapidly (e.g., FORTRAN):
     2914      165
     2915      166                 Multiplier(1)= 1
     2916      167                 Multiplier(j)= Multiplier(j-1) * (UB(j-1) -LB(j-1) +1)
     2917      168                                2 <= j <= N
     2918      169                 Elements = Multiplier(n) * (UBn -LBn *1)
     2919      170
     2920      171            And for languages which vary the last dimension most
     2921      172            rapidly (e.g., PL1):
     2922      173
     2923      174                 Multiplier(n)= 1
     2924      175                 Multiplier(j)= Multiplier(j+1) * (UB(j+1) -LB(j-1) +1)
     2925      176                                1 <= j <= N-1
     2926      177                 Elements = Multiplier 1 * (UB1 -LB1 +1)
     2927      178
     2928      179            In either case:
     2929      180
     2930      181               Offset = The sum of (Multiplier(j) * LB(j))
     2931      182                        for j=1 to N
     2932      183
     2933      184            and the bit displacement from address to any element
PL6.E3A0      #013=XUO$VREBL_CONT_ADJ File=XUO$BUILD.:E05TSI                     WED 07/30/97 09:29 Page:346
     2934      185            A(x1, x2, ..., xn) is given by:
     2935      186
     2936      187             Bit displacement =
     2937      188
     2938      189                  The sum of (Multiplier(j)* X(j) -Offset)
     2939      190                              for j = 1 to N) * Element Size
     2940      191
     2941      192
     2942      193        OUTPUT:  none
     2943      194
     2944      195        B$OBJECT REFERENCE:  B$VREBLCA
     2945      196        */
     2946      197        /*B*
     2947      198
     2948      199        GLOBAL DATA:
     2949      200             B_VREBL_CUR$
     2950      201             B_VREBL_COUNT
     2951      202             B_VREBL_PAGE
     2952      203
     2953      204        INTERFACE:
     2954      205                 XUO$OUWRITE
     2955      206
     2956      207        */
     2957      208
     2958      209
     2959      210         /**/
     2960      211        XUO$VREBL_CONT_ADJ: PROC(P_OFFSET_ADJ_FLAG,P_OFFSET,
     2961      212               P_DATA_TYPE,
     2962      213               P_ELEMENTS_ADJ_FLAG,P_ELEMENTS,
     2963      214               P_MULTIPLIER_1_ADJ_FLAG,P_MULTIPLIER_1,
     2964      215               P_MULTIPLIER_2_ADJ_FLAG,P_MULTIPLIER_2,
     2965      216               P_MULTIPLIER_3_ADJ_FLAG,P_MULTIPLIER_3);
     2966      217         /**/
     2967      218        %INCLUDE ZVA_SYSTEM_FILE;
     2968     6469            %PAGE (ARG=INCLUDES);

              6482    1   /*******************************************************************************
PL6.E3A0      #013=XUO$VREBL_CONT_ADJ File=XUO$BUILD.:E05TSI                     WED 07/30/97 09:29 Page:347
              6483    1   *                                                                              *
              6484    1   *        INCLUDES              INCLUDES                                            *
              6485    1   *                                                                              *
              6486    1   *******************************************************************************/

     2969     6490        %INCLUDE B$OBJECT_C;
     2970     9920        %INCLUDE XUO$OBJ_C;
     2971    10330            %PAGE (ARG=SUBS);

             10343    1   /*******************************************************************************
             10344    1   *                                                                              *
             10345    1   *        SUBS              SUBS                                                  *
             10346    1   *                                                                              *
             10347    1   *******************************************************************************/

     2972    10351            %B$RECORDSUBS;
     2973    10379            %VREBLSUBS;
     2974    10387            %B$RELOCSUBS;
     2975    10417            %PAGE (ARG=PARAMETERS);

             10430    1   /*******************************************************************************
             10431    1   *                                                                              *
             10432    1   *        PARAMETERS              PARAMETERS                                        *
             10433    1   *                                                                              *
             10434    1   *******************************************************************************/

     2976    10438    1   DCL P_OFFSET_ADJ_FLAG BIT(1) UNAL;
     2977    10439    1   DCL P_OFFSET UBIN;
     2978    10440    1   DCL P_DATA_TYPE UBIN;
     2979    10441    1   DCL P_ELEMENTS_ADJ_FLAG BIT(1) UNAL;
     2980    10442    1   DCL P_ELEMENTS UBIN;
     2981    10443    1   DCL P_MULTIPLIER_1_ADJ_FLAG BIT(1) UNAL;
     2982    10444    1   DCL P_MULTIPLIER_1 UBIN;
     2983    10445    1   DCL P_MULTIPLIER_2_ADJ_FLAG BIT(1) UNAL;
     2984    10446    1   DCL P_MULTIPLIER_2 UBIN;
     2985    10447    1   DCL P_MULTIPLIER_3_ADJ_FLAG BIT(1) UNAL;
     2986    10448    1   DCL P_MULTIPLIER_3 UBIN;
PL6.E3A0      #013=XUO$VREBL_CONT_ADJ File=XUO$BUILD.:E05TSI                     WED 07/30/97 09:29 Page:348
     2987    10449        %PAGE (ARG=VREBLC DATA);

             10462    1   /*******************************************************************************
             10463    1   *                                                                              *
             10464    1   *        VREBLC DATA              VREBLC DATA                                      *
             10465    1   *                                                                              *
             10466    1   *******************************************************************************/

     2988    10470        %B$VREBLCA (STCLASS="BASED(VREBL_CUR$)");
     2989    10558        %B_VREBL_POINTERS;
     2990    10578    1   DCL VREBL_CUR$ PTR;
     2991    10579    1   DCL XUO$OUWRITE ENTRY(2);
     2992    10580        %PAGE (ARG=XUO$VREBL_CONT_ADJ);

             10593    1   /*******************************************************************************
             10594    1   *                                                                              *
             10595    1   *        XUO$VREBL_CONT_ADJ              XUO$VREBL_CONT_ADJ                        *
             10596    1   *                                                                              *
             10597    1   *******************************************************************************/

     2993    10601         /*
     2994    10602         The following section will check to see if the passed information will
     2995    10603         fit in the current record. If not, the current record will be
     2996    10604         written and the pointer reinitialized.  Then the text will be moved to
     2997    10605         the buffer.
     2998    10606         NOTE: This should not happen but better safe than sorry.
     2999    10607         */
     3000    10608    1       IF B_VREBL_CUR$>=B_VREBL_END$ THEN
     3001    10609    2       DO;
     3002    10610    2           CALL XUO$OUWRITE(%TYPVREBL);
     3003    10611    2           B_VREBL_PAGE=B_VREBL_PAGE+1;
     3004    10612    2           B_VREBL_CUR$=B_VREBL_BASE$;
     3005    10613    2           END;
     3006    10614         /*
     3007    10615         The following will build the continuation entry
     3008    10616         */
     3009    10617    1       VREBL_CUR$=B_VREBL_CUR$;
PL6.E3A0      #013=XUO$VREBL_CONT_ADJ File=XUO$BUILD.:E05TSI                     WED 07/30/97 09:29 Page:349
     3010    10618    1       B$VREBLCA='0'B;
     3011    10619    1       B$VREBLCA.IOFFSET=P_OFFSET_ADJ_FLAG;
     3012    10620    1       B$VREBLCA.OFFSET=P_OFFSET;
     3013    10621    1       B$VREBLCA.DATATYP=P_DATA_TYPE;
     3014    10622    1       B$VREBLCA.IELEMENTS=P_ELEMENTS_ADJ_FLAG;
     3015    10623    1       B$VREBLCA.ELEMENTS=P_ELEMENTS;
     3016    10624    1       B$VREBLCA.OPNDTYP=%OPERCONST;
     3017    10625    1       B$VREBLCA.MULT_A.I(0)=P_MULTIPLIER_1_ADJ_FLAG;
     3018    10626    1       B$VREBLCA.MULT_A.N(0)=P_MULTIPLIER_1;
     3019    10627    1       IF ADDR(P_MULTIPLIER_2_ADJ_FLAG)~=ADDR(NIL) THEN
     3020    10628    2       DO;
     3021    10629    2           B$VREBLCA.MULT_A.I(1)=P_MULTIPLIER_2_ADJ_FLAG;
     3022    10630    2           B$VREBLCA.MULT_A.N(1)=P_MULTIPLIER_2;
     3023    10631    2           IF ADDR(P_MULTIPLIER_3_ADJ_FLAG)~=ADDR(NIL) THEN
     3024    10632    3           DO;
     3025    10633    3               B$VREBLCA.MULT_A.I(2)=P_MULTIPLIER_3_ADJ_FLAG;
     3026    10634    3               B$VREBLCA.MULT_A.N(2)=P_MULTIPLIER_3;
     3027    10635    3               END; /*MULT_3*/
     3028    10636    2           END; /*MULT_2*/
     3029    10637    1       B_VREBL_COUNT=B_VREBL_COUNT+1;
     3030    10638    1       B_VREBL_CUR$=PINCRW(B_VREBL_CUR$,SIZEW(B$VREBLCA));
     3031    10639    1       RETURN;
     3032    10640         /**/
     3033    10641    1   END XUO$VREBL_CONT_ADJ;
     3034    10642        %EOD;

PL6.E3A0      #013=XUO$VREBL_CONT_ADJ File=XUO$BUILD.:E05TSI                     WED 07/30/97 09:29 Page:350
--  Include file information  --

   XUO$OBJ_C.:E05TOU  is referenced.
   B$OBJECT_C.:E05TOU  is referenced.
   CP_6_SUBS.:E05TOU  is referenced.
   CP_6_C.:E05TOU  is referenced.
   CP_6.:E05TOU  cannot be made into a system file and is referenced.
   ZVA_FLAGS.:TOOLE04  is referenced.
   ZVA_SYSTEM_FILE.:TOOLE04  is referenced.
      No diagnostics issued in procedure XUO$VREBL_CONT_ADJ.

   Procedure XUO$VREBL_CONT_ADJ requires 86 words for executable code.
   Procedure XUO$VREBL_CONT_ADJ requires 16 words of local(AUTO) storage.

PL6.E3A0      #013=XUO$VREBL_CONT_ADJ File=XUO$BUILD.:E05TSI                     WED 07/30/97 09:29 Page:351

 Object Unit name= XUO$VREBL_CONT_ADJ                         File name= XUO$BUILD.:E05TOU
 UTS= JUL 30 '97 09:29:57.96 WED                              Compiler= PL-6/E31         Sev=      00
 SharedLib= :SHARED_SYSTEM                                    Alt SharedLib=


    ****  Control sections  ****

 Sect   Type Bound  Init  Size OctSiz  Section name(segment info)
    0   DCB   even  none     0      0  M$UC
    1   Proc  even  none    86    126  XUO$VREBL_CONT_ADJ
    2  RoData even  none     5      5  XUO$VREBL_CONT_ADJ

    ****  Entry defs  ****

                              Check   Calling
                             calling  sequence
  Sect OctLoc Primary Altret sequence   type   Parms  Name
     1      0   yes            yes      Std       11  XUO$VREBL_CONT_ADJ

  ****  Entry refs  ****

         Check        Calling
        calling       sequence
Altret sequence SRef   type   Args  Name
         yes           Std       2 XUO$OUWRITE
                       nStd      0 X66_AUTO_N
                       Std       0 B_CONSPOOL_D
                       nStd      0 X66_ARET

  ****  Data refs  ****

  Flags:  r = read only, s = secondary
Flgs Name                             Flgs Name                             Flgs Name
     M$UC                                  B_VREBL_BASE$                         B_VREBL_CUR$
     B_VREBL_END$                          B_VREBL_COUNT                         B_VREBL_PAGE
     B_VECTNIL
PL6.E3A0      #013=XUO$VREBL_CONT_ADJ File=XUO$BUILD.:E05TSI                     WED 07/30/97 09:29 Page:352

  ****  Segment refs  ****

  Flags:  r = read only, s = secondary
Flgs Name                             Flgs Name                             Flgs Name
     ISSID
PL6.E3A0      #013=XUO$VREBL_CONT_ADJ File=XUO$BUILD.:E05TSI                     WED 07/30/97 09:29 Page:353


     2750        1        /*M*    XUO$VREBL_CONT_ADJ -- THIS MODULE WILL BUILD OBJECT UNIT VREBL CONTINUATION
                 1         RECORD*/
     2751        2        /*T***********************************************************/
     2752        3        /*T*                                                         */
     2753        4        /*T* Copyright (c) Bull HN Information Systems Inc., 1997    */
     2754        5        /*T*                                                         */
     2755        6        /*T***********************************************************/
     2756        7        /*P*
     2757        8
     2758        9
     2759       10        NAME:  XUO$VREBL_CONT_ADJ
     2760       11        XUO$VREBL_CONT_ADJ --Variable Debug Record Continuation
     2761       12                             (Record Type 14)
     2762       13
     2763       14
     2764       15        PURPOSE:  To build Variable Debug Record continuation entries
     2765       16                  (Record Type 14)
     2766       17
     2767       18        DESCRIPTION:  This routine builds continuation entries in the
     2768       19            Variable Debug Record.  It is used for dimensioned entries
     2769       20            of Array Type 5 (See XUO$VREBL - Array Type)
     2770       21            that have adjustable offsets, elements or multipliers,
     2771       22            to describe the dimension attributes of the variable.
     2772       23
     2773       24        */
     2774       25        /*D*
     2775       26
     2776       27        CALL:  CALL XUO$VREBL_CONT_ADJ (Offset Flag,
     2777       28                                 Offset,
     2778       29                                 Data Type,
     2779       30                                 Elements Flag,
     2780       31                                 Elements,
     2781       32                                 Multiplier 1 Flag,
     2782       33                                 Multiplier 1,
     2783       34                                 Multiplier 2 Flag,
     2784       35                                 Multiplier 2,
PL6.E3A0      #013=XUO$VREBL_CONT_ADJ File=XUO$BUILD.:E05TSI                     WED 07/30/97 09:29 Page:354
     2785       36                                 Multiplier 3 Flag,
     2786       37                                 Multiplier 3)
     2787       38
     2788       39        INPUT:
     2789       40            Offset Flag         BIT(1) UNALIGNED
     2790       41                                Denotes the interpretation of the
     2791       42                                Offset field.  If the Flag = '0'B
     2792       43                                then Offset contains the value to
     2793       44                                be subtracted from the composite
     2794       45                                index calculated from index values
     2795       46                                and multipliers before multiplying
     2796       47                                by Element Size.  If the Flag = '1'B
     2797       48                                then Offset contains the variable
     2798       49                                table entry number of the variable
     2799       50                                containing the value to be subtracted
     2800       51                                from the composite index calculated
     2801       52                                from index values and multipliers
     2802       53                                before multiplying by Element Size.
     2803       54            Offset              UBIN ALIGNED
     2804       55                                Either a value or an entry number
     2805       56                                determined by the Offset Flag.
     2806       57            Data Type           UBIN ALIGNED
     2807       58                                Indicates the type of data described
     2808       59                                by this entry.  The defined data type
     2809       60                                codes are as follows:
     2810       61                      0              Type not specified.
     2811       62                      1              Real binary fixed single precision
     2812       63                                     (SBIN, INTEGER, COMP-6).
     2813       64                      2              Real binary fixed double precision.
     2814       65                      3              Real binary float single precision
     2815       66                                     (REAL).
     2816       67                      4              Real binary float double precision
     2817       68                                     (DOUBLE PRECISION).
     2818       69                      5              Complex binary fixed single precision.
     2819       70                      6              Complex binary fixed double precision.
     2820       71                      7              Complex binary float single precision
     2821       72                                     (COMPLEX).
PL6.E3A0      #013=XUO$VREBL_CONT_ADJ File=XUO$BUILD.:E05TSI                     WED 07/30/97 09:29 Page:355
     2822       73                      8              Complex binary float double precision
     2823       74                                     (DOUBLE COMPLEX).
     2824       75                      9              Packed decimal fixed, lead ASCII sign
     2825       76                                     (COMP-4).
     2826       77                     10              Packed decimal float.
     2827       78                     11              Packed decimal fixed complex,
     2828       79                                     lead ASCII sign.
     2829       80                     12              Packed decimal float complex.
     2830       81                     13              Pointer
     2831       82                     14              Offset
     2832       83                     15              Label
     2833       84                     16              Entry
     2834       85                     17              Structure
     2835       86                     18              Area
     2836       87                     19              Bit string
     2837       88                     20              Varying bit string
     2838       89                     21              Character string
     2839       90                     22              Varying character string
     2840       91                     23              File
     2841       92                     24              UBIN
     2842       93                     25              Packed decimal fixed, trail ASCII sign
     2843       94                                     (COMP, COMP-4).
     2844       95                     26              Adjustable character string
     2845       96                     27              Adjustable bit string
     2846       97                     28              EPTR
     2847       98                     29              16 bit signed integer (COMP-1).
     2848       99                     30              32 bit signed integer (COMP-2).
     2849      100                     31              Packed decimal fixed, trail EBCDIC sign
     2850      101                                     (COMP-3).
     2851      102                     32              INDEX-1
     2852      103                     33              INDEX-2
     2853      104                     34              FORTRAN Every
     2854      105                     35              FORTRAN Logical
     2855      106                     36              FORTRAN Any (Never Passed)
     2856      107                     37              FORTRAN Label
     2857      108                     38              FORTRAN UCB
     2858      109                     39              Intrinsic Constant
PL6.E3A0      #013=XUO$VREBL_CONT_ADJ File=XUO$BUILD.:E05TSI                     WED 07/30/97 09:29 Page:356
     2859      110                     40              Packed decimal fixed, no sign (COMP,
     2860      111                                     COMP-3, COMP-4).
     2861      112                     41              Unpacked decimal fixed, no sign
     2862      113                     42              Unpacked decimal fixed lead sign
     2863      114                     43              Unpacked decimal fixed trail sign
     2864      115                     44              Unpacked decimal fixed lead over
     2865      116                                     punched sign
     2866      117                     45              Unpacked decimal fixed trail over
     2867      118                                     punched sign
     2868      119                     46              Adjustable structure
     2869      120                     47              Vector
     2870      121                     48              Remember
     2871      122                     49              Descriptor
     2872      123                     50              Unpacked decimal float
     2873      124                     51              Packed decimal fixed,
     2874      125                                     Lead EBCDIC sign
     2875      126                     52              Enumerated Type
     2876      127                     53              Set
     2877      128                     54 - 59         Reserved
     2878      129                     60              Null entry
     2879      130                     61              Virtual array dimension entry
     2880      131                     62              Array dimension entry
     2881      132                     63              Reserved
     2882      133             Elements Flag       BIT(1) UNALIGNED
     2883      134                                 Denotes the interpretation of the
     2884      135                                 Elements field.  If Flag = '0'B
     2885      136                                 then Elements contains the total
     2886      137                                 number of elements in the array.
     2887      138                                 If Flag = '1'B then Elements contains
     2888      139                                 the variable record entry number
     2889      140                                 of the variable containing the
     2890      141                                 total number of elements in the array.
     2891      142             Elements            UBIN ALIGNED
     2892      143                                 Contains a value or an entry number
     2893      144                                 depending on the Elements Flag.
     2894      145             Multiplier Flag n   BIT(1) UNALIGNED
     2895      146                                 Denotes the interpretation of the
PL6.E3A0      #013=XUO$VREBL_CONT_ADJ File=XUO$BUILD.:E05TSI                     WED 07/30/97 09:29 Page:357
     2896      147                                 Multiplier n field.  If Flag = '0'B
     2897      148                                 then the Multiplier field contains
     2898      149                                 the actual multiplier.  If Flag = '1'B
     2899      150                                 then the Multiplier field contains
     2900      151                                 the variable record entry number of
     2901      152                                 the variable containing the actual
     2902      153                                 multiplier.
     2903      154             Multiplier n        UBIN ALIGNED
     2904      155                                 Contains the multiplier for the array
     2905      156                                 or a variable record entry number
     2906      157                                 as determined by the Multiplier Flag.
     2907      158
     2908      159            The following example is included to clarify the use
     2909      160            of the various array parameters.
     2910      161
     2911      162            Assume an array A(LB1:UB1, LB2:UB2, ..., LBn:UBn).
     2912      163            Then for languages which vary the first dimension
     2913      164            most rapidly (e.g., FORTRAN):
     2914      165
     2915      166                 Multiplier(1)= 1
     2916      167                 Multiplier(j)= Multiplier(j-1) * (UB(j-1) -LB(j-1) +1)
     2917      168                                2 <= j <= N
     2918      169                 Elements = Multiplier(n) * (UBn -LBn *1)
     2919      170
     2920      171            And for languages which vary the last dimension most
     2921      172            rapidly (e.g., PL1):
     2922      173
     2923      174                 Multiplier(n)= 1
     2924      175                 Multiplier(j)= Multiplier(j+1) * (UB(j+1) -LB(j-1) +1)
     2925      176                                1 <= j <= N-1
     2926      177                 Elements = Multiplier 1 * (UB1 -LB1 +1)
     2927      178
     2928      179            In either case:
     2929      180
     2930      181               Offset = The sum of (Multiplier(j) * LB(j))
     2931      182                        for j=1 to N
     2932      183
PL6.E3A0      #013=XUO$VREBL_CONT_ADJ File=XUO$BUILD.:E05TSI                     WED 07/30/97 09:29 Page:358
     2933      184            and the bit displacement from address to any element
     2934      185            A(x1, x2, ..., xn) is given by:
     2935      186
     2936      187             Bit displacement =
     2937      188
     2938      189                  The sum of (Multiplier(j)* X(j) -Offset)
     2939      190                              for j = 1 to N) * Element Size
     2940      191
     2941      192
     2942      193        OUTPUT:  none
     2943      194
     2944      195        B$OBJECT REFERENCE:  B$VREBLCA
     2945      196        */
     2946      197        /*B*
     2947      198
     2948      199        GLOBAL DATA:
     2949      200             B_VREBL_CUR$
     2950      201             B_VREBL_COUNT
     2951      202             B_VREBL_PAGE
     2952      203
     2953      204        INTERFACE:
     2954      205                 XUO$OUWRITE
     2955      206
     2956      207        */
     2957      208
     2958      209
     2959      210         /**/
     2960      211        XUO$VREBL_CONT_ADJ: PROC(P_OFFSET_ADJ_FLAG,P_OFFSET,

    211  1 000000   000000 700200 xent  XUO$VREBL_C* TSX0  ! X66_AUTO_N
         1 000001   000020 000013                    ZERO    16,11

     2961      212               P_DATA_TYPE,
     2962      213               P_ELEMENTS_ADJ_FLAG,P_ELEMENTS,
     2963      214               P_MULTIPLIER_1_ADJ_FLAG,P_MULTIPLIER_1,
     2964      215               P_MULTIPLIER_2_ADJ_FLAG,P_MULTIPLIER_2,
     2965      216               P_MULTIPLIER_3_ADJ_FLAG,P_MULTIPLIER_3);
PL6.E3A0      #013=XUO$VREBL_CONT_ADJ File=XUO$BUILD.:E05TSI                     WED 07/30/97 09:29 Page:359
     2966      217         /**/
     2967      218        %INCLUDE ZVA_SYSTEM_FILE;
     2968     6469            %PAGE (ARG=INCLUDES);

              6482    1   /*******************************************************************************
              6483    1   *                                                                              *
              6484    1   *        INCLUDES              INCLUDES                                           *
              6485    1   *                                                                              *
              6486    1   *******************************************************************************/

     2969     6490        %INCLUDE B$OBJECT_C;
     2970     9920        %INCLUDE XUO$OBJ_C;
     2971    10330            %PAGE (ARG=SUBS);

             10343    1   /*******************************************************************************
             10344    1   *                                                                              *
             10345    1   *        SUBS              SUBS                                                  *
             10346    1   *                                                                              *
             10347    1   *******************************************************************************/

     2972    10351            %B$RECORDSUBS;
     2973    10379            %VREBLSUBS;
     2974    10387            %B$RELOCSUBS;
     2975    10417            %PAGE (ARG=PARAMETERS);

             10430    1   /*******************************************************************************
             10431    1   *                                                                              *
             10432    1   *        PARAMETERS              PARAMETERS                                       *
             10433    1   *                                                                              *
             10434    1   *******************************************************************************/

     2976    10438    1   DCL P_OFFSET_ADJ_FLAG BIT(1) UNAL;
     2977    10439    1   DCL P_OFFSET UBIN;
     2978    10440    1   DCL P_DATA_TYPE UBIN;
     2979    10441    1   DCL P_ELEMENTS_ADJ_FLAG BIT(1) UNAL;
     2980    10442    1   DCL P_ELEMENTS UBIN;
     2981    10443    1   DCL P_MULTIPLIER_1_ADJ_FLAG BIT(1) UNAL;
PL6.E3A0      #013=XUO$VREBL_CONT_ADJ File=XUO$BUILD.:E05TSI                     WED 07/30/97 09:29 Page:360
     2982    10444    1   DCL P_MULTIPLIER_1 UBIN;
     2983    10445    1   DCL P_MULTIPLIER_2_ADJ_FLAG BIT(1) UNAL;
     2984    10446    1   DCL P_MULTIPLIER_2 UBIN;
     2985    10447    1   DCL P_MULTIPLIER_3_ADJ_FLAG BIT(1) UNAL;
     2986    10448    1   DCL P_MULTIPLIER_3 UBIN;
     2987    10449        %PAGE (ARG=VREBLC DATA);

             10462    1   /*******************************************************************************
             10463    1   *                                                                              *
             10464    1   *        VREBLC DATA              VREBLC DATA                                     *
             10465    1   *                                                                              *
             10466    1   *******************************************************************************/

     2988    10470        %B$VREBLCA (STCLASS="BASED(VREBL_CUR$)");
     2989    10558        %B_VREBL_POINTERS;
     2990    10578    1   DCL VREBL_CUR$ PTR;
     2991    10579    1   DCL XUO$OUWRITE ENTRY(2);
     2992    10580        %PAGE (ARG=XUO$VREBL_CONT_ADJ);

             10593    1   /*******************************************************************************
             10594    1   *                                                                              *
             10595    1   *        XUO$VREBL_CONT_ADJ              XUO$VREBL_CONT_ADJ                       *
             10596    1   *                                                                              *
             10597    1   *******************************************************************************/

     2993    10601         /*
     2994    10602         The following section will check to see if the passed information will
     2995    10603         fit in the current record. If not, the current record will be
     2996    10604         written and the pointer reinitialized.  Then the text will be moved to
     2997    10605         the buffer.
     2998    10606         NOTE: This should not happen but better safe than sorry.
     2999    10607         */
     3000    10608    1       IF B_VREBL_CUR$>=B_VREBL_END$ THEN

  10608  1 000002   000000 236000 xsym               LDQ     B_VREBL_CUR$
         1 000003   000000 116000 xsym               CMPQ    B_VREBL_END$
         1 000004   000014 602000 1                  TNC     s:10617
PL6.E3A0      #013=XUO$VREBL_CONT_ADJ File=XUO$BUILD.:E05TSI                     WED 07/30/97 09:29 Page:361

     3001    10609    2       DO;

     3002    10610    2           CALL XUO$OUWRITE(%TYPVREBL);

  10610  1 000005   000001 630400 2                  EPPR0   1
         1 000006   000017 631400 xsym               EPPR1   B_VECTNIL+15
         1 000007   000000 701000 xent               TSX1    XUO$OUWRITE
         1 000010   000000 011000                    NOP     0

     3003    10611    2           B_VREBL_PAGE=B_VREBL_PAGE+1;

  10611  1 000011   000000 054000 xsym               AOS     B_VREBL_PAGE

     3004    10612    2           B_VREBL_CUR$=B_VREBL_BASE$;

  10612  1 000012   000000 236000 xsym               LDQ     B_VREBL_BASE$
         1 000013   000000 756000 xsym               STQ     B_VREBL_CUR$

     3005    10613    2           END;

     3006    10614         /*
     3007    10615         The following will build the continuation entry
     3008    10616         */
     3009    10617    1       VREBL_CUR$=B_VREBL_CUR$;

  10617  1 000014   200016 756100                    STQ     VREBL_CUR$,,AUTO

     3010    10618    1       B$VREBLCA='0'B;

  10618  1 000015   200016 470500                    LDP0    VREBL_CUR$,,AUTO
         1 000016   000100 100400                    MLR     fill='000'O
         1 000017   000002 000001 xsym               ADSC9   B_VECTNIL+2              cn=0,n=1
         1 000020   000000 000024                    ADSC9   0,,PR0                   cn=0,n=20

     3011    10619    1       B$VREBLCA.IOFFSET=P_OFFSET_ADJ_FLAG;

PL6.E3A0      #013=XUO$VREBL_CONT_ADJ File=XUO$BUILD.:E05TSI                     WED 07/30/97 09:29 Page:362
  10619  1 000021   200003 471500                    LDP1    @P_OFFSET_ADJ_FLAG,,AUTO
         1 000022   003100 060500                    CSL     bolr='003'O
         1 000023   100000 000001                    BDSC    0,,PR1                   by=0,bit=0,n=1
         1 000024   000000 000001                    BDSC    0,,PR0                   by=0,bit=0,n=1

     3012    10620    1       B$VREBLCA.OFFSET=P_OFFSET;

  10620  1 000025   200004 473500                    LDP3    @P_OFFSET,,AUTO
         1 000026   300000 236100                    LDQ     0,,PR3
         1 000027   000010 736000                    QLS     8
         1 000030   000000 676100                    ERQ     0,,PR0
         1 000031   000002 376000 2                  ANQ     2
         1 000032   000000 656100                    ERSQ    0,,PR0

     3013    10621    1       B$VREBLCA.DATATYP=P_DATA_TYPE;

  10621  1 000033   200005 474500                    LDP4    @P_DATA_TYPE,,AUTO
         1 000034   400000 236100                    LDQ     0,,PR4
         1 000035   000002 736000                    QLS     2
         1 000036   000000 676100                    ERQ     0,,PR0
         1 000037   000374 376007                    ANQ     252,DL
         1 000040   000000 656100                    ERSQ    0,,PR0

     3014    10622    1       B$VREBLCA.IELEMENTS=P_ELEMENTS_ADJ_FLAG;

  10622  1 000041   200006 475500                    LDP5    @P_ELEMENTS_ADJ_FLAG,,AUTO
         1 000042   003100 060500                    CSL     bolr='003'O
         1 000043   500000 000001                    BDSC    0,,PR5                   by=0,bit=0,n=1
         1 000044   000001 000001                    BDSC    1,,PR0                   by=0,bit=0,n=1

     3015    10623    1       B$VREBLCA.ELEMENTS=P_ELEMENTS;

  10623  1 000045   200007 476500                    LDP6    @P_ELEMENTS,,AUTO
         1 000046   600000 236100                    LDQ     0,,PR6
         1 000047   000004 736000                    QLS     4
         1 000050   000001 676100                    ERQ     1,,PR0
         1 000051   000003 376000 2                  ANQ     3
PL6.E3A0      #013=XUO$VREBL_CONT_ADJ File=XUO$BUILD.:E05TSI                     WED 07/30/97 09:29 Page:363
         1 000052   000001 656100                    ERSQ    1,,PR0

     3016    10624    1       B$VREBLCA.OPNDTYP=%OPERCONST;

  10624  1 000053   000001 236100                    LDQ     1,,PR0
         1 000054   000004 376000 2                  ANQ     4
         1 000055   000004 276007                    ORQ     4,DL
         1 000056   000001 756100                    STQ     1,,PR0

     3017    10625    1       B$VREBLCA.MULT_A.I(0)=P_MULTIPLIER_1_ADJ_FLAG;

  10625  1 000057   200010 477500                    LDP7    @P_MULTIPLIER_1_ADJ_FLAG,,AUTO
         1 000060   003100 060500                    CSL     bolr='003'O
         1 000061   700000 000001                    BDSC    0,,PR7                   by=0,bit=0,n=1
         1 000062   000002 000001                    BDSC    2,,PR0                   by=0,bit=0,n=1

     3018    10626    1       B$VREBLCA.MULT_A.N(0)=P_MULTIPLIER_1;

  10626  1 000063   200011 470500                    LDP0    @P_MULTIPLIER_1,,AUTO
         1 000064   200016 471500                    LDP1    VREBL_CUR$,,AUTO
         1 000065   000000 236100                    LDQ     0,,PR0
         1 000066   100002 676100                    ERQ     2,,PR1
         1 000067   000031 376000 xsym               ANQ     B_VECTNIL+25
         1 000070   100002 656100                    ERSQ    2,,PR1

     3019    10627    1       IF ADDR(P_MULTIPLIER_2_ADJ_FLAG)~=ADDR(NIL) THEN

  10627  1 000071   200012 236100                    LDQ     @P_MULTIPLIER_2_ADJ_FLAG,,AUTO
         1 000072   000001 116000 xsym               CMPQ    B_VECTNIL+1
         1 000073   000121 600000 1                  TZE     s:10637

     3020    10628    2       DO;

     3021    10629    2           B$VREBLCA.MULT_A.I(1)=P_MULTIPLIER_2_ADJ_FLAG;

  10629  1 000074   200012 470500                    LDP0    @P_MULTIPLIER_2_ADJ_FLAG,,AUTO
         1 000075   003100 060500                    CSL     bolr='003'O
PL6.E3A0      #013=XUO$VREBL_CONT_ADJ File=XUO$BUILD.:E05TSI                     WED 07/30/97 09:29 Page:364
         1 000076   000000 000001                    BDSC    0,,PR0                   by=0,bit=0,n=1
         1 000077   100003 000001                    BDSC    3,,PR1                   by=0,bit=0,n=1

     3022    10630    2           B$VREBLCA.MULT_A.N(1)=P_MULTIPLIER_2;

  10630  1 000100   200013 470500                    LDP0    @P_MULTIPLIER_2,,AUTO
         1 000101   000000 236100                    LDQ     0,,PR0
         1 000102   100003 676100                    ERQ     3,,PR1
         1 000103   000031 376000 xsym               ANQ     B_VECTNIL+25
         1 000104   100003 656100                    ERSQ    3,,PR1

     3023    10631    2           IF ADDR(P_MULTIPLIER_3_ADJ_FLAG)~=ADDR(NIL) THEN

  10631  1 000105   200014 236100                    LDQ     @P_MULTIPLIER_3_ADJ_FLAG,,AUTO
         1 000106   000001 116000 xsym               CMPQ    B_VECTNIL+1
         1 000107   000121 600000 1                  TZE     s:10637

     3024    10632    3           DO;

     3025    10633    3               B$VREBLCA.MULT_A.I(2)=P_MULTIPLIER_3_ADJ_FLAG;

  10633  1 000110   200014 470500                    LDP0    @P_MULTIPLIER_3_ADJ_FLAG,,AUTO
         1 000111   003100 060500                    CSL     bolr='003'O
         1 000112   000000 000001                    BDSC    0,,PR0                   by=0,bit=0,n=1
         1 000113   100004 000001                    BDSC    4,,PR1                   by=0,bit=0,n=1

     3026    10634    3               B$VREBLCA.MULT_A.N(2)=P_MULTIPLIER_3;

  10634  1 000114   200015 470500                    LDP0    @P_MULTIPLIER_3,,AUTO
         1 000115   000000 236100                    LDQ     0,,PR0
         1 000116   100004 676100                    ERQ     4,,PR1
         1 000117   000031 376000 xsym               ANQ     B_VECTNIL+25
         1 000120   100004 656100                    ERSQ    4,,PR1

     3027    10635    3               END; /*MULT_3*/

     3028    10636    2           END; /*MULT_2*/
PL6.E3A0      #013=XUO$VREBL_CONT_ADJ File=XUO$BUILD.:E05TSI                     WED 07/30/97 09:29 Page:365

     3029    10637    1       B_VREBL_COUNT=B_VREBL_COUNT+1;

  10637  1 000121   000000 054000 xsym               AOS     B_VREBL_COUNT

     3030    10638    1       B_VREBL_CUR$=PINCRW(B_VREBL_CUR$,SIZEW(B$VREBLCA));

  10638  1 000122   000000 236000 xsym               LDQ     B_VREBL_CUR$
         1 000123   000005 036003                    ADLQ    5,DU
         1 000124   000000 756000 xsym               STQ     B_VREBL_CUR$

     3031    10639    1       RETURN;

  10639  1 000125   000000 702200 xent               TSX2  ! X66_ARET
     3032    10640         /**/
     3033    10641    1   END XUO$VREBL_CONT_ADJ;
     3034    10642        %EOD;

PL6.E3A0      #013=XUO$VREBL_CONT_ADJ File=XUO$BUILD.:E05TSI                     WED 07/30/97 09:29 Page:366
--  Include file information  --

   XUO$OBJ_C.:E05TOU  is referenced.
   B$OBJECT_C.:E05TOU  is referenced.
   CP_6_SUBS.:E05TOU  is referenced.
   CP_6_C.:E05TOU  is referenced.
   CP_6.:E05TOU  cannot be made into a system file and is referenced.
   ZVA_FLAGS.:TOOLE04  is referenced.
   ZVA_SYSTEM_FILE.:TOOLE04  is referenced.
      No diagnostics issued in procedure XUO$VREBL_CONT_ADJ.
PL6.E3A0      #013=XUO$VREBL_CONT_ADJ File=XUO$BUILD.:E05TSI                     WED 07/30/97 09:29 Page:367

 **** Variables and constants ****

  ****  Auto variables  ****

  ****  Scalars and arrays  ****
OctLoc.c.b A Datatyp(siz) R M Lvl/name                 OctLoc.c.b A Datatyp(siz) R M Lvl/name

     5-0-0/w PTR         r     1 @P_DATA_TYPE               7-0-0/w PTR         r     1 @P_ELEMENTS
     6-0-0/w PTR         r     1 @P_ELEMENTS_ADJ_FLAG      11-0-0/w PTR         r     1 @P_MULTIPLIER_1
    10-0-0/w PTR         r     1 @P_MULTIPLIER_1_ADJ_FLAG
    13-0-0/w PTR         r     1 @P_MULTIPLIER_2
    12-0-0/w PTR         r     1 @P_MULTIPLIER_2_ADJ_FLAG
    15-0-0/w PTR         r     1 @P_MULTIPLIER_3
    14-0-0/w PTR         r     1 @P_MULTIPLIER_3_ADJ_FLAG
     4-0-0/w PTR         r     1 @P_OFFSET                  3-0-0/w PTR         r     1 @P_OFFSET_ADJ_FLAG
    *0-0-0/w UBIN        r     1 P_DATA_TYPE               *0-0-0/w UBIN        r     1 P_ELEMENTS
    *0-0-0/b BIT         r     1 P_ELEMENTS_ADJ_FLAG       *0-0-0/w UBIN        r     1 P_MULTIPLIER_1
    *0-0-0/b BIT         r     1 P_MULTIPLIER_1_ADJ_FLAG
    *0-0-0/w UBIN        r     1 P_MULTIPLIER_2
    *0-0-0/b BIT         r     1 P_MULTIPLIER_2_ADJ_FLAG
    *0-0-0/w UBIN        r     1 P_MULTIPLIER_3
    *0-0-0/b BIT         r     1 P_MULTIPLIER_3_ADJ_FLAG
    *0-0-0/w UBIN        r     1 P_OFFSET                  *0-0-0/b BIT         r     1 P_OFFSET_ADJ_FLAG
    16-0-0/w PTR         r     1 VREBL_CUR$

  ****  SYMREF variables  ****

  ****  Scalars and arrays  ****
OctLoc.c.b A Datatyp(siz) R M Lvl/name                 OctLoc.c.b A Datatyp(siz) R M Lvl/name

     0-0-0/w PTR         r     1 B_VREBL_BASE$              0-0-0/w SBIN        r     1 B_VREBL_COUNT
     0-0-0/w PTR         r     1 B_VREBL_CUR$               0-0-0/w PTR         r     1 B_VREBL_END$
     0-0-0/w SBIN        r     1 B_VREBL_PAGE

  ****  BASED and DCB variables  ****

  ****  Scalars and arrays  ****
PL6.E3A0      #013=XUO$VREBL_CONT_ADJ File=XUO$BUILD.:E05TSI                     WED 07/30/97 09:29 Page:368
OctLoc.c.b A Datatyp(siz) R M Lvl/name                 OctLoc.c.b A Datatyp(siz) R M Lvl/name

     0-0-0/w STRC(180)   r     1 B$VREBLCA


   Procedure XUO$VREBL_CONT_ADJ requires 86 words for executable code.
   Procedure XUO$VREBL_CONT_ADJ requires 16 words of local(AUTO) storage.
PL6.E3A0      #013=XUO$VREBL_CONT_ADJ File=XUO$BUILD.:E05TSI                     WED 07/30/97 09:29 Page:369
          *** CROSS REFERENCE LISTING ***
**     DENOTES     IDENTIFIER DEFINITION
<<                 IDENTIFIER'S VALUE SET
>>                 IDENTIFIER'S VALUE USED
<>                 IDENTIFIER SET AND/OR USED
--                 IDENTIFIER REFERENCED
PL6.E3A0      #013=XUO$VREBL_CONT_ADJ File=XUO$BUILD.:E05TSI                     WED 07/30/97 09:29 Page:370
          MINI XREF LISTING

B$VREBLCA
     10471**DCL     10618<<ASSIGN  10638--ASSIGN
B$VREBLCA.DATATYP
     10494**DCL     10621<<ASSIGN
B$VREBLCA.ELEMENTS
     10508**DCL     10511--REDEF   10623<<ASSIGN
B$VREBLCA.IELEMENTS
     10500**DCL     10622<<ASSIGN
B$VREBLCA.IOFFSET
     10472**DCL     10619<<ASSIGN
B$VREBLCA.MULT_A.I
     10547**DCL     10625<<ASSIGN  10629<<ASSIGN  10633<<ASSIGN
B$VREBLCA.MULT_A.N
     10552**DCL     10626<<ASSIGN  10630<<ASSIGN  10634<<ASSIGN
B$VREBLCA.OFFSET
     10484**DCL     10488--REDEF   10620<<ASSIGN
B$VREBLCA.OPNDTYP
     10515**DCL     10624<<ASSIGN
B_VREBL_BASE$
     10570**DCL     10612>>ASSIGN
B_VREBL_COUNT
     10573**DCL     10637<<ASSIGN  10637>>ASSIGN
B_VREBL_CUR$
     10571**DCL     10608>>IF      10612<<ASSIGN  10617>>ASSIGN  10638<<ASSIGN  10638>>ASSIGN
B_VREBL_END$
     10572**DCL     10608>>IF
B_VREBL_PAGE
     10574**DCL     10611<<ASSIGN  10611>>ASSIGN
P_DATA_TYPE
     10440**DCL       211--PROC    10621>>ASSIGN
P_ELEMENTS
     10442**DCL       211--PROC    10623>>ASSIGN
PL6.E3A0      #013=XUO$VREBL_CONT_ADJ File=XUO$BUILD.:E05TSI                     WED 07/30/97 09:29 Page:371
P_ELEMENTS_ADJ_FLAG
     10441**DCL       211--PROC    10622>>ASSIGN
P_MULTIPLIER_1
     10444**DCL       211--PROC    10626>>ASSIGN
P_MULTIPLIER_1_ADJ_FLAG
     10443**DCL       211--PROC    10625>>ASSIGN
P_MULTIPLIER_2
     10446**DCL       211--PROC    10630>>ASSIGN
P_MULTIPLIER_2_ADJ_FLAG
     10445**DCL       211--PROC    10627--IF      10629>>ASSIGN
P_MULTIPLIER_3
     10448**DCL       211--PROC    10634>>ASSIGN
P_MULTIPLIER_3_ADJ_FLAG
     10447**DCL       211--PROC    10631--IF      10633>>ASSIGN
P_OFFSET
     10439**DCL       211--PROC    10620>>ASSIGN
P_OFFSET_ADJ_FLAG
     10438**DCL       211--PROC    10619>>ASSIGN
VREBL_CUR$
     10578**DCL     10471--IMP-PTR 10617<<ASSIGN  10618>>ASSIGN  10619>>ASSIGN  10620>>ASSIGN  10621>>ASSIGN
     10622>>ASSIGN  10623>>ASSIGN  10624>>ASSIGN  10625>>ASSIGN  10626>>ASSIGN  10629>>ASSIGN  10630>>ASSIGN
     10633>>ASSIGN  10634>>ASSIGN
XUO$OUWRITE
     10579**DCL-ENT 10610--CALL

PL6.E3A0      #014=XUO$VREBL_CONT_ET File=XUO$BUILD.:E05TSI                      WED 07/30/97 09:30 Page:372
     3035        1        /*M*     XUO$VREBL_CONT_ET -- THIS MODULE WILL BUILD OBJECT UNIT
     3036        2                     VREBL CONTINUATION ENTRIES FOR ENUMERATED TYPES */
     3037        3        /*T***********************************************************/
     3038        4        /*T*                                                         */
     3039        5        /*T* Copyright (c) Bull HN Information Systems Inc., 1997    */
     3040        6        /*T*                                                         */
     3041        7        /*T***********************************************************/
     3042        8        /*P*
     3043        9
     3044       10
     3045       11
     3046       12        NAME:  XUO$VREBL_CONT_ET
     3047       13
     3048       14        PURPOSE:  To build continuation entries in Variable Debug
     3049       15                  Record (Record Type 14) for variables with
     3050       16                  Data Type = Enumerated Type.
     3051       17
     3052       18        DESCRIPTION:  This routine builds continuation entries in
     3053       19             the Variable Debug Record (Type 14).  It is used to
     3054       20             show the correspondence between the value of an
     3055       21             enumerated type variable and the text string associated
     3056       22             with that value.  The continuation entry will describe
     3057       23             the minimum and maximum values of the enumerated type.
     3058       24             If this variable is also an array, this continuation
     3059       25             entry should be the first continuation entry.
     3060       26
     3061       27        */
     3062       28        /*D*
     3063       29
     3064       30        CALL:  CALL XUO$VREBL_CONT_ET (Minimum Value,
     3065       31                                Maximum Value,
     3066       32                                Name Pointer)
     3067       33
     3068       34        INPUT:
     3069       35            Minimum Value  UBIN ALIGNED
     3070       36                           The starting value for this variable.
     3071       37            Maximum Value  UBIN ALIGNED
PL6.E3A0      #014=XUO$VREBL_CONT_ET File=XUO$BUILD.:E05TSI                      WED 07/30/97 09:30 Page:373
     3072       38                           The maximum value for this variable.
     3073       39            Name Pointer   SBIN
     3074       40                           The word offset into the debug names
     3075       41                           record locating the start of the
     3076       42                           text strings for the values of this
     3077       43                           variable.  The text strings for the
     3078       44                           values must be in order in the debug
     3079       45                           names starting at Name Pointer.
     3080       46
     3081       47        OUTPUT:  none
     3082       48
     3083       49        B$OBJECT REFERENCE:  B$VREBLCET
     3084       50        */
     3085       51        /*B*
     3086       52
     3087       53        GLOBAL DATA:
     3088       54             B_VREBL_CUR$
     3089       55             B_VREBL_COUNT
     3090       56             B_VREBL_PAGE
     3091       57
     3092       58        INTERFACE:
     3093       59             XUO$OUWRITE
     3094       60
     3095       61        */
     3096       62
     3097       63        XUO$VREBL_CONT_ET: PROC(P_MINIMUM_VALUE,P_MAXIMUM_VALUE,P_NAME_POINTER);
     3098       64
     3099       65        %INCLUDE ZVA_SYSTEM_FILE;
     3100     6316         %PAGE (ARG=INCLUDES);

              6329    1   /*******************************************************************************
              6330    1   *                                                                              *
              6331    1   *        INCLUDES              INCLUDES                                            *
              6332    1   *                                                                              *
              6333    1   *******************************************************************************/

     3101     6337        %INCLUDE B$OBJECT_C;
PL6.E3A0      #014=XUO$VREBL_CONT_ET File=XUO$BUILD.:E05TSI                      WED 07/30/97 09:30 Page:374
     3102     9767        %INCLUDE XUO$OBJ_C;
     3103    10177
     3104    10178         %PAGE (ARG=SUBS);

             10191    1   /*******************************************************************************
             10192    1   *                                                                              *
             10193    1   *        SUBS              SUBS                                                  *
             10194    1   *                                                                              *
             10195    1   *******************************************************************************/

     3105    10199        %B$RECORDSUBS;
     3106    10227
     3107    10228        %PLIST;
     3108    10229         %PAGE (ARG=PARAMETERS);

             10242    1   /*******************************************************************************
             10243    1   *                                                                              *
             10244    1   *        PARAMETERS              PARAMETERS                                        *
             10245    1   *                                                                              *
             10246    1   *******************************************************************************/

     3109    10250    1   DCL P_MINIMUM_VALUE UBIN ALIGNED;
     3110    10251    1   DCL P_MAXIMUM_VALUE UBIN ALIGNED;
     3111    10252    1   DCL P_NAME_POINTER SBIN;
     3112    10253
     3113    10254        %PAGE (ARG=VREBLC DATA);

             10267    1   /*******************************************************************************
             10268    1   *                                                                              *
             10269    1   *        VREBLC DATA              VREBLC DATA                                      *
             10270    1   *                                                                              *
             10271    1   *******************************************************************************/

     3114    10275        %B$VREBLCET (STCLASS="BASED(VREBL_CUR$)");
     3115    10298        %B_VREBL_POINTERS;
     3116    10318    1   DCL VREBL_CUR$ PTR;
     3117    10319        %PLIST;
PL6.E3A0      #014=XUO$VREBL_CONT_ET File=XUO$BUILD.:E05TSI                      WED 07/30/97 09:30 Page:375
     3118    10320
     3119    10321        %PAGE (ARG=ENTRY DCL);

             10334    1   /*******************************************************************************
             10335    1   *                                                                              *
             10336    1   *        ENTRY DCL              ENTRY DCL                                          *
             10337    1   *                                                                              *
             10338    1   *******************************************************************************/

     3120    10342    1   DCL XUO$OUWRITE ENTRY(2);
     3121    10343
     3122    10344        %PAGE (ARG=XUO$VREBL_CONT_ET);

             10357    1   /*******************************************************************************
             10358    1   *                                                                              *
             10359    1   *        XUO$VREBL_CONT_ET              XUO$VREBL_CONT_ET                          *
             10360    1   *                                                                              *
             10361    1   *******************************************************************************/

     3123    10365
     3124    10366         /* The following section will check to see if the passed
     3125    10367            information will fit in the current record.  If not the
     3126    10368         current record will be written and the pointer reinitialized
     3127    10369         then the text will be moved to the buffer.
     3128    10370         NOTE:    This should not happen but better safe than sorry.
     3129    10371         */
     3130    10372    1       IF B_VREBL_CUR$>=B_VREBL_END$ THEN
     3131    10373    2       DO;
     3132    10374    2           CALL XUO$OUWRITE(%TYPVREBL);
     3133    10375    2           B_VREBL_PAGE=B_VREBL_PAGE+1;
     3134    10376    2           B_VREBL_CUR$=B_VREBL_BASE$;
     3135    10377    2           END;
     3136    10378         /*   The following will build the continuation entry. */
     3137    10379
     3138    10380    1       VREBL_CUR$=B_VREBL_CUR$;
     3139    10381    1       B$VREBLCET='0'B;
     3140    10382    1       B$VREBLCET.MIN_VALUE = P_MINIMUM_VALUE;
PL6.E3A0      #014=XUO$VREBL_CONT_ET File=XUO$BUILD.:E05TSI                      WED 07/30/97 09:30 Page:376
     3141    10383    1       B$VREBLCET.MAX_VALUE = P_MAXIMUM_VALUE;
     3142    10384    1       B$VREBLCET.NPOINTER = P_NAME_POINTER;
     3143    10385    1       B_VREBL_COUNT=B_VREBL_COUNT+1;
     3144    10386    1       B_VREBL_CUR$=PINCRW(B_VREBL_CUR$,SIZEW(B$VREBLCET));
     3145    10387    1       RETURN;
     3146    10388
     3147    10389    1   END XUO$VREBL_CONT_ET;
     3148    10390        %EOD;

PL6.E3A0      #014=XUO$VREBL_CONT_ET File=XUO$BUILD.:E05TSI                      WED 07/30/97 09:30 Page:377
--  Include file information  --

   XUO$OBJ_C.:E05TOU  is referenced.
   B$OBJECT_C.:E05TOU  is referenced.
   CP_6_SUBS.:E05TOU  is referenced.
   CP_6_C.:E05TOU  is referenced.
   CP_6.:E05TOU  cannot be made into a system file and is referenced.
   ZVA_FLAGS.:TOOLE04  is referenced.
   ZVA_SYSTEM_FILE.:TOOLE04  is referenced.
      No diagnostics issued in procedure XUO$VREBL_CONT_ET.

   Procedure XUO$VREBL_CONT_ET requires 31 words for executable code.
   Procedure XUO$VREBL_CONT_ET requires 8 words of local(AUTO) storage.

PL6.E3A0      #014=XUO$VREBL_CONT_ET File=XUO$BUILD.:E05TSI                      WED 07/30/97 09:30 Page:378

 Object Unit name= XUO$VREBL_CONT_ET                          File name= XUO$BUILD.:E05TOU
 UTS= JUL 30 '97 09:30:56.84 WED                              Compiler= PL-6/E31         Sev=      00
 SharedLib= :SHARED_SYSTEM                                    Alt SharedLib=


    ****  Control sections  ****

 Sect   Type Bound  Init  Size OctSiz  Section name(segment info)
    0   DCB   even  none     0      0  M$UC
    1   Proc  even  none    31     37  XUO$VREBL_CONT_ET
    2  RoData even  none     2      2  XUO$VREBL_CONT_ET

    ****  Entry defs  ****

                              Check   Calling
                             calling  sequence
  Sect OctLoc Primary Altret sequence   type   Parms  Name
     1      0   yes            yes      Std        3  XUO$VREBL_CONT_ET

  ****  Entry refs  ****

         Check        Calling
        calling       sequence
Altret sequence SRef   type   Args  Name
         yes           Std       2 XUO$OUWRITE
                       nStd      0 X66_AUTO_3
                       Std       0 B_CONSPOOL_D
                       nStd      0 X66_ARET

  ****  Data refs  ****

  Flags:  r = read only, s = secondary
Flgs Name                             Flgs Name                             Flgs Name
     M$UC                                  B_VREBL_BASE$                         B_VREBL_CUR$
     B_VREBL_END$                          B_VREBL_COUNT                         B_VREBL_PAGE
     B_VECTNIL
PL6.E3A0      #014=XUO$VREBL_CONT_ET File=XUO$BUILD.:E05TSI                      WED 07/30/97 09:30 Page:379

  ****  Segment refs  ****

  Flags:  r = read only, s = secondary
Flgs Name                             Flgs Name                             Flgs Name
     ISSID
PL6.E3A0      #014=XUO$VREBL_CONT_ET File=XUO$BUILD.:E05TSI                      WED 07/30/97 09:30 Page:380


     3035        1        /*M*     XUO$VREBL_CONT_ET -- THIS MODULE WILL BUILD OBJECT UNIT
     3036        2                     VREBL CONTINUATION ENTRIES FOR ENUMERATED TYPES */
     3037        3        /*T***********************************************************/
     3038        4        /*T*                                                         */
     3039        5        /*T* Copyright (c) Bull HN Information Systems Inc., 1997    */
     3040        6        /*T*                                                         */
     3041        7        /*T***********************************************************/
     3042        8        /*P*
     3043        9
     3044       10
     3045       11
     3046       12        NAME:  XUO$VREBL_CONT_ET
     3047       13
     3048       14        PURPOSE:  To build continuation entries in Variable Debug
     3049       15                  Record (Record Type 14) for variables with
     3050       16                  Data Type = Enumerated Type.
     3051       17
     3052       18        DESCRIPTION:  This routine builds continuation entries in
     3053       19             the Variable Debug Record (Type 14).  It is used to
     3054       20             show the correspondence between the value of an
     3055       21             enumerated type variable and the text string associated
     3056       22             with that value.  The continuation entry will describe
     3057       23             the minimum and maximum values of the enumerated type.
     3058       24             If this variable is also an array, this continuation
     3059       25             entry should be the first continuation entry.
     3060       26
     3061       27        */
     3062       28        /*D*
     3063       29
     3064       30        CALL:  CALL XUO$VREBL_CONT_ET (Minimum Value,
     3065       31                                Maximum Value,
     3066       32                                Name Pointer)
     3067       33
     3068       34        INPUT:
     3069       35            Minimum Value  UBIN ALIGNED
     3070       36                           The starting value for this variable.
PL6.E3A0      #014=XUO$VREBL_CONT_ET File=XUO$BUILD.:E05TSI                      WED 07/30/97 09:30 Page:381
     3071       37            Maximum Value  UBIN ALIGNED
     3072       38                           The maximum value for this variable.
     3073       39            Name Pointer   SBIN
     3074       40                           The word offset into the debug names
     3075       41                           record locating the start of the
     3076       42                           text strings for the values of this
     3077       43                           variable.  The text strings for the
     3078       44                           values must be in order in the debug
     3079       45                           names starting at Name Pointer.
     3080       46
     3081       47        OUTPUT:  none
     3082       48
     3083       49        B$OBJECT REFERENCE:  B$VREBLCET
     3084       50        */
     3085       51        /*B*
     3086       52
     3087       53        GLOBAL DATA:
     3088       54             B_VREBL_CUR$
     3089       55             B_VREBL_COUNT
     3090       56             B_VREBL_PAGE
     3091       57
     3092       58        INTERFACE:
     3093       59             XUO$OUWRITE
     3094       60
     3095       61        */
     3096       62
     3097       63        XUO$VREBL_CONT_ET: PROC(P_MINIMUM_VALUE,P_MAXIMUM_VALUE,P_NAME_POINTER);

     63  1 000000   000000 700200 xent  XUO$VREBL_C* TSX0  ! X66_AUTO_3
         1 000001   000010 000003                    ZERO    8,3

     3098       64
     3099       65        %INCLUDE ZVA_SYSTEM_FILE;
     3100     6316         %PAGE (ARG=INCLUDES);

              6329    1   /*******************************************************************************
              6330    1   *                                                                              *
PL6.E3A0      #014=XUO$VREBL_CONT_ET File=XUO$BUILD.:E05TSI                      WED 07/30/97 09:30 Page:382
              6331    1   *        INCLUDES              INCLUDES                                           *
              6332    1   *                                                                              *
              6333    1   *******************************************************************************/

     3101     6337        %INCLUDE B$OBJECT_C;
     3102     9767        %INCLUDE XUO$OBJ_C;
     3103    10177
     3104    10178         %PAGE (ARG=SUBS);

             10191    1   /*******************************************************************************
             10192    1   *                                                                              *
             10193    1   *        SUBS              SUBS                                                  *
             10194    1   *                                                                              *
             10195    1   *******************************************************************************/

     3105    10199        %B$RECORDSUBS;
     3106    10227
     3107    10228        %PLIST;
     3108    10229         %PAGE (ARG=PARAMETERS);

             10242    1   /*******************************************************************************
             10243    1   *                                                                              *
             10244    1   *        PARAMETERS              PARAMETERS                                       *
             10245    1   *                                                                              *
             10246    1   *******************************************************************************/

     3109    10250    1   DCL P_MINIMUM_VALUE UBIN ALIGNED;
     3110    10251    1   DCL P_MAXIMUM_VALUE UBIN ALIGNED;
     3111    10252    1   DCL P_NAME_POINTER SBIN;
     3112    10253
     3113    10254        %PAGE (ARG=VREBLC DATA);

             10267    1   /*******************************************************************************
             10268    1   *                                                                              *
             10269    1   *        VREBLC DATA              VREBLC DATA                                     *
             10270    1   *                                                                              *
             10271    1   *******************************************************************************/
PL6.E3A0      #014=XUO$VREBL_CONT_ET File=XUO$BUILD.:E05TSI                      WED 07/30/97 09:30 Page:383

     3114    10275        %B$VREBLCET (STCLASS="BASED(VREBL_CUR$)");
     3115    10298        %B_VREBL_POINTERS;
     3116    10318    1   DCL VREBL_CUR$ PTR;
     3117    10319        %PLIST;
     3118    10320
     3119    10321        %PAGE (ARG=ENTRY DCL);

             10334    1   /*******************************************************************************
             10335    1   *                                                                              *
             10336    1   *        ENTRY DCL              ENTRY DCL                                         *
             10337    1   *                                                                              *
             10338    1   *******************************************************************************/

     3120    10342    1   DCL XUO$OUWRITE ENTRY(2);
     3121    10343
     3122    10344        %PAGE (ARG=XUO$VREBL_CONT_ET);

             10357    1   /*******************************************************************************
             10358    1   *                                                                              *
             10359    1   *        XUO$VREBL_CONT_ET              XUO$VREBL_CONT_ET                         *
             10360    1   *                                                                              *
             10361    1   *******************************************************************************/

     3123    10365
     3124    10366         /* The following section will check to see if the passed
     3125    10367            information will fit in the current record.  If not the
     3126    10368         current record will be written and the pointer reinitialized
     3127    10369         then the text will be moved to the buffer.
     3128    10370         NOTE:    This should not happen but better safe than sorry.
     3129    10371         */
     3130    10372    1       IF B_VREBL_CUR$>=B_VREBL_END$ THEN

  10372  1 000002   000000 236000 xsym               LDQ     B_VREBL_CUR$
         1 000003   000000 116000 xsym               CMPQ    B_VREBL_END$
         1 000004   000014 602000 1                  TNC     s:10380

PL6.E3A0      #014=XUO$VREBL_CONT_ET File=XUO$BUILD.:E05TSI                      WED 07/30/97 09:30 Page:384
     3131    10373    2       DO;

     3132    10374    2           CALL XUO$OUWRITE(%TYPVREBL);

  10374  1 000005   000001 630400 2                  EPPR0   1
         1 000006   000017 631400 xsym               EPPR1   B_VECTNIL+15
         1 000007   000000 701000 xent               TSX1    XUO$OUWRITE
         1 000010   000000 011000                    NOP     0

     3133    10375    2           B_VREBL_PAGE=B_VREBL_PAGE+1;

  10375  1 000011   000000 054000 xsym               AOS     B_VREBL_PAGE

     3134    10376    2           B_VREBL_CUR$=B_VREBL_BASE$;

  10376  1 000012   000000 236000 xsym               LDQ     B_VREBL_BASE$
         1 000013   000000 756000 xsym               STQ     B_VREBL_CUR$

     3135    10377    2           END;

     3136    10378         /*   The following will build the continuation entry. */
     3137    10379
     3138    10380    1       VREBL_CUR$=B_VREBL_CUR$;

  10380  1 000014   200006 756100                    STQ     VREBL_CUR$,,AUTO

     3139    10381    1       B$VREBLCET='0'B;

  10381  1 000015   200006 470500                    LDP0    VREBL_CUR$,,AUTO
         1 000016   000100 100400                    MLR     fill='000'O
         1 000017   000002 000001 xsym               ADSC9   B_VECTNIL+2              cn=0,n=1
         1 000020   000000 000024                    ADSC9   0,,PR0                   cn=0,n=20

     3140    10382    1       B$VREBLCET.MIN_VALUE = P_MINIMUM_VALUE;

  10382  1 000021   200003 471500                    LDP1    @P_MINIMUM_VALUE,,AUTO
         1 000022   100000 235100                    LDA     0,,PR1
PL6.E3A0      #014=XUO$VREBL_CONT_ET File=XUO$BUILD.:E05TSI                      WED 07/30/97 09:30 Page:385
         1 000023   000001 755100                    STA     1,,PR0

     3141    10383    1       B$VREBLCET.MAX_VALUE = P_MAXIMUM_VALUE;

  10383  1 000024   200004 473500                    LDP3    @P_MAXIMUM_VALUE,,AUTO
         1 000025   300000 235100                    LDA     0,,PR3
         1 000026   000002 755100                    STA     2,,PR0

     3142    10384    1       B$VREBLCET.NPOINTER = P_NAME_POINTER;

  10384  1 000027   200005 474500                    LDP4    @P_NAME_POINTER,,AUTO
         1 000030   400000 720100                    LXL0    0,,PR4
         1 000031   000003 740100                    STX0    3,,PR0

     3143    10385    1       B_VREBL_COUNT=B_VREBL_COUNT+1;

  10385  1 000032   000000 054000 xsym               AOS     B_VREBL_COUNT

     3144    10386    1       B_VREBL_CUR$=PINCRW(B_VREBL_CUR$,SIZEW(B$VREBLCET));

  10386  1 000033   000000 236000 xsym               LDQ     B_VREBL_CUR$
         1 000034   000005 036003                    ADLQ    5,DU
         1 000035   000000 756000 xsym               STQ     B_VREBL_CUR$

     3145    10387    1       RETURN;

  10387  1 000036   000000 702200 xent               TSX2  ! X66_ARET
     3146    10388
     3147    10389    1   END XUO$VREBL_CONT_ET;
     3148    10390        %EOD;

PL6.E3A0      #014=XUO$VREBL_CONT_ET File=XUO$BUILD.:E05TSI                      WED 07/30/97 09:30 Page:386
--  Include file information  --

   XUO$OBJ_C.:E05TOU  is referenced.
   B$OBJECT_C.:E05TOU  is referenced.
   CP_6_SUBS.:E05TOU  is referenced.
   CP_6_C.:E05TOU  is referenced.
   CP_6.:E05TOU  cannot be made into a system file and is referenced.
   ZVA_FLAGS.:TOOLE04  is referenced.
   ZVA_SYSTEM_FILE.:TOOLE04  is referenced.
      No diagnostics issued in procedure XUO$VREBL_CONT_ET.
PL6.E3A0      #014=XUO$VREBL_CONT_ET File=XUO$BUILD.:E05TSI                      WED 07/30/97 09:30 Page:387

 **** Variables and constants ****

  ****  Auto variables  ****

  ****  Scalars and arrays  ****
OctLoc.c.b A Datatyp(siz) R M Lvl/name                 OctLoc.c.b A Datatyp(siz) R M Lvl/name

     4-0-0/w PTR         r     1 @P_MAXIMUM_VALUE           3-0-0/w PTR         r     1 @P_MINIMUM_VALUE
     5-0-0/w PTR         r     1 @P_NAME_POINTER           *0-0-0/w UBIN        r     1 P_MAXIMUM_VALUE
    *0-0-0/w UBIN        r     1 P_MINIMUM_VALUE           *0-0-0/w SBIN        r     1 P_NAME_POINTER
     6-0-0/w PTR         r     1 VREBL_CUR$

  ****  SYMREF variables  ****

  ****  Scalars and arrays  ****
OctLoc.c.b A Datatyp(siz) R M Lvl/name                 OctLoc.c.b A Datatyp(siz) R M Lvl/name

     0-0-0/w PTR         r     1 B_VREBL_BASE$              0-0-0/w SBIN        r     1 B_VREBL_COUNT
     0-0-0/w PTR         r     1 B_VREBL_CUR$               0-0-0/w PTR         r     1 B_VREBL_END$
     0-0-0/w SBIN        r     1 B_VREBL_PAGE

  ****  BASED and DCB variables  ****

  ****  Scalars and arrays  ****
OctLoc.c.b A Datatyp(siz) R M Lvl/name                 OctLoc.c.b A Datatyp(siz) R M Lvl/name

     0-0-0/w STRC(180)   r     1 B$VREBLCET


   Procedure XUO$VREBL_CONT_ET requires 31 words for executable code.
   Procedure XUO$VREBL_CONT_ET requires 8 words of local(AUTO) storage.
PL6.E3A0      #014=XUO$VREBL_CONT_ET File=XUO$BUILD.:E05TSI                      WED 07/30/97 09:30 Page:388
          *** CROSS REFERENCE LISTING ***
**     DENOTES     IDENTIFIER DEFINITION
<<                 IDENTIFIER'S VALUE SET
>>                 IDENTIFIER'S VALUE USED
<>                 IDENTIFIER SET AND/OR USED
--                 IDENTIFIER REFERENCED
PL6.E3A0      #014=XUO$VREBL_CONT_ET File=XUO$BUILD.:E05TSI                      WED 07/30/97 09:30 Page:389
          MINI XREF LISTING

B$VREBLCET
     10276**DCL     10381<<ASSIGN  10386--ASSIGN
B$VREBLCET.MAX_VALUE
     10287**DCL     10383<<ASSIGN
B$VREBLCET.MIN_VALUE
     10284**DCL     10382<<ASSIGN
B$VREBLCET.NPOINTER
     10289**DCL     10384<<ASSIGN
B_VREBL_BASE$
     10310**DCL     10376>>ASSIGN
B_VREBL_COUNT
     10313**DCL     10385<<ASSIGN  10385>>ASSIGN
B_VREBL_CUR$
     10311**DCL     10372>>IF      10376<<ASSIGN  10380>>ASSIGN  10386<<ASSIGN  10386>>ASSIGN
B_VREBL_END$
     10312**DCL     10372>>IF
B_VREBL_PAGE
     10314**DCL     10375<<ASSIGN  10375>>ASSIGN
P_MAXIMUM_VALUE
     10251**DCL        63--PROC    10383>>ASSIGN
P_MINIMUM_VALUE
     10250**DCL        63--PROC    10382>>ASSIGN
P_NAME_POINTER
     10252**DCL        63--PROC    10384>>ASSIGN
VREBL_CUR$
     10318**DCL     10276--IMP-PTR 10380<<ASSIGN  10381>>ASSIGN  10382>>ASSIGN  10383>>ASSIGN  10384>>ASSIGN
XUO$OUWRITE
     10342**DCL-ENT 10374--CALL

PL6.E3A0      #015=XUO$VREBL_CONT_SET File=XUO$BUILD.:E05TSI                     WED 07/30/97 09:31 Page:390
     3149        1        /*M*     XUO$VREBL_CONT_SET -- THIS MODULE WILL BUILD CONTINUATION
     3150        2                    ENTRIES FOR FOR VARIABLES WITH DATA TYPE = SET.  */
     3151        3        /*T***********************************************************/
     3152        4        /*T*                                                         */
     3153        5        /*T* Copyright (c) Bull HN Information Systems Inc., 1997    */
     3154        6        /*T*                                                         */
     3155        7        /*T***********************************************************/
     3156        8        /*P*
     3157        9
     3158       10
     3159       11        NAME:  XUO$VREBL_CONT_SET
     3160       12
     3161       13        PURPOSE:  To build continuation entries in the Variable
     3162       14                  Debug Record (Record Type 14) for variables
     3163       15                  with Data Type = Set.
     3164       16
     3165       17        DESCRIPTION:  This routine builds continuation entries in
     3166       18             the Variable Debug Record.  It is used for FPL status
     3167       19             variables and for variables with Data Type = SET.  The
     3168       20             continuation entry locates the text strings associated
     3169       21             with the true and false settings of each bit.  If this
     3170       22             variable is also an array, this continuation entry
     3171       23             should be the first continuation entry.
     3172       24
     3173       25        */
     3174       26        /*D*
     3175       27
     3176       28        CALL:  CALL XUO$VREBL_CONT_SET (Significant Bits,
     3177       29                                 Data Type,
     3178       30                                 Minimum Value,
     3179       31                                 Pointer True,
     3180       32                                 Pointer False)
     3181       33
     3182       34        INPUT:
     3183       35            Significant Bits    UBIN ALIGNED
     3184       36                                The number of significant bits in
     3185       37                                the value of this data item if the
PL6.E3A0      #015=XUO$VREBL_CONT_SET File=XUO$BUILD.:E05TSI                     WED 07/30/97 09:31 Page:391
     3186       38                                data type of the set is enumerated
     3187       39                                type.  For other data types, Significant
     3188       40                                Bits contains the maximum value for the
     3189       41                                Set.
     3190       42            Data Type           UBIN ALIGNED
     3191       43                                The data type of the elements of the
     3192       44                                Set.  The defined data type codes are
     3193       45                                as follows:
     3194       46                      0              Type not specified.
     3195       47                      1              Real binary fixed single precision
     3196       48                                     (SBIN, INTEGER, COMP-6).
     3197       49                      2              Real binary fixed double precision.
     3198       50                      3              Real binary float single precision
     3199       51                                     (REAL).
     3200       52                      4              Real binary float double precision
     3201       53                                     (DOUBLE PRECISION).
     3202       54                      5              Complex binary fixed single precision.
     3203       55                      6              Complex binary fixed double precision.
     3204       56                      7              Complex binary float single precision
     3205       57                                     (COMPLEX).
     3206       58                      8              Complex binary float double precision
     3207       59                                     (DOUBLE COMPLEX).
     3208       60                      9              Packed decimal fixed, lead ASCII sign
     3209       61                                     (COMP-4).
     3210       62                     10              Packed decimal float.
     3211       63                     11              Packed decimal fixed complex,
     3212       64                                     lead ASCII sign.
     3213       65                     12              Packed decimal float complex.
     3214       66                     13              Pointer
     3215       67                     14              Offset
     3216       68                     15              Label
     3217       69                     16              Entry
     3218       70                     17              Structure
     3219       71                     18              Area
     3220       72                     19              Bit string
     3221       73                     20              Varying bit string
     3222       74                     21              Character string
PL6.E3A0      #015=XUO$VREBL_CONT_SET File=XUO$BUILD.:E05TSI                     WED 07/30/97 09:31 Page:392
     3223       75                     22              Varying character string
     3224       76                     23              File
     3225       77                     24              UBIN
     3226       78                     25              Packed decimal fixed, trail ASCII sign
     3227       79                                     (COMP, COMP-4).
     3228       80                     26              Adjustable character string
     3229       81                     27              Adjustable bit string
     3230       82                     28              EPTR
     3231       83                     29              16 bit signed integer (COMP-1).
     3232       84                     30              32 bit signed integer (COMP-2).
     3233       85                     31              Packed decimal fixed, trail EBCDIC sign
     3234       86                                     (COMP-3).
     3235       87                     32              INDEX-1
     3236       88                     33              INDEX-2
     3237       89                     34              FORTRAN Every
     3238       90                     35              FORTRAN Logical
     3239       91                     36              FORTRAN Any (Never Passed)
     3240       92                     37              FORTRAN Label
     3241       93                     38              FORTRAN UCB
     3242       94                     39              Intrinsic Constant
     3243       95                     40              Packed decimal fixed, no sign (COMP,
     3244       96                                     COMP-3, COMP-4).
     3245       97                     41              Unpacked decimal fixed, no sign
     3246       98                     42              Unpacked decimal fixed lead sign
     3247       99                     43              Unpacked decimal fixed trail sign
     3248      100                     44              Unpacked decimal fixed lead over
     3249      101                                     punched sign
     3250      102                     45              Unpacked decimal fixed trail over
     3251      103                                     punched sign
     3252      104                     46              Adjustable structure
     3253      105                     47              Vector
     3254      106                     48              Remember
     3255      107                     49              Descriptor
     3256      108                     50              Unpacked decimal float
     3257      109                     51              Packed decimal fixed,
     3258      110                                     Lead EBCDIC sign
     3259      111                     52              Enumerated Type
PL6.E3A0      #015=XUO$VREBL_CONT_SET File=XUO$BUILD.:E05TSI                     WED 07/30/97 09:31 Page:393
     3260      112                     53              Set
     3261      113                     54 - 59         Reserved
     3262      114                     60              Null entry
     3263      115                     61              Virtual array dimension entry
     3264      116                     62              Array dimension entry
     3265      117                     63              Reserved
     3266      118            Minimum Value       UBIN ALIGNED
     3267      119                                Contains the minimum value for an
     3268      120                                element of the set.
     3269      121            Pointer True        SBIN ALIGNED
     3270      122                                Word offset into the Debug Names Record
     3271      123                                (Type 15) locating the start of the
     3272      124                                text string for the true value of each
     3273      125                                bit in the Set.  The text strings for
     3274      126                                all significant bits must be in order in
     3275      127                                the debug names starting at Pointer True.
     3276      128                                A value of -1 means not to print the
     3277      129                                text for the true value of each bit.
     3278      130            Pointer False       SBIN ALIGNED
     3279      131                                Word offset into the Debug Names Record
     3280      132                                (Type 15) locating the start of the
     3281      133                                text string for the false value of
     3282      134                                each bit in the Set.  The text strings
     3283      135                                for all significant bits must be in
     3284      136                                order in the Debug names starting at
     3285      137                                Pointer False.  A value of -1 means not
     3286      138                                to print the text for the false value of
     3287      139                                each bit.
     3288      140
     3289      141        OUTPUT:  none
     3290      142
     3291      143        B$OBJECT REFERENCE:  B$VREBLCSET
     3292      144        */
     3293      145        /*B*
     3294      146
     3295      147        GLOBAL DATA:
     3296      148            B_VREBL_CUR$
PL6.E3A0      #015=XUO$VREBL_CONT_SET File=XUO$BUILD.:E05TSI                     WED 07/30/97 09:31 Page:394
     3297      149            B_VREBL_COUNT
     3298      150            B_VREBL_PAGE
     3299      151
     3300      152        INTERFACE:
     3301      153
     3302      154             XUO$OUWRITE
     3303      155        */
     3304      156
     3305      157
     3306      158        XUO$VREBL_CONT_SET: PROC(P_SIG_BITS,P_DATA_TYPE,P_MINIMUM_VALUE,
     3307      159               P_NAME_POINTER_TRUE,P_NAME_POINTER_FALSE);
     3308      160
     3309      161        %INCLUDE ZVA_SYSTEM_FILE;
     3310     6412            %PAGE (ARG=INCLUDES);

              6425    1   /*******************************************************************************
              6426    1   *                                                                              *
              6427    1   *        INCLUDES              INCLUDES                                            *
              6428    1   *                                                                              *
              6429    1   *******************************************************************************/

     3311     6433        %INCLUDE B$OBJECT_C;
     3312     9863        %INCLUDE XUO$OBJ_C;
     3313    10273            %PAGE (ARG=SUBS);

             10286    1   /*******************************************************************************
             10287    1   *                                                                              *
             10288    1   *        SUBS              SUBS                                                  *
             10289    1   *                                                                              *
             10290    1   *******************************************************************************/

     3314    10294        %B$RECORDSUBS;
     3315    10322        %PLIST;
     3316    10323
     3317    10324            %PAGE (ARG=PARAMETERS);

             10337    1   /*******************************************************************************
PL6.E3A0      #015=XUO$VREBL_CONT_SET File=XUO$BUILD.:E05TSI                     WED 07/30/97 09:31 Page:395
             10338    1   *                                                                              *
             10339    1   *        PARAMETERS              PARAMETERS                                        *
             10340    1   *                                                                              *
             10341    1   *******************************************************************************/

     3318    10345    1   DCL P_SIG_BITS UBIN;
     3319    10346    1   DCL P_DATA_TYPE UBIN;
     3320    10347    1   DCL P_MINIMUM_VALUE UBIN;
     3321    10348    1   DCL P_NAME_POINTER_TRUE SBIN;
     3322    10349    1   DCL P_NAME_POINTER_FALSE SBIN;
     3323    10350
     3324    10351        %PAGE (ARG=VREBLCSET DATA);

             10364    1   /*******************************************************************************
             10365    1   *                                                                              *
             10366    1   *        VREBLCSET DATA              VREBLCSET DATA                                *
             10367    1   *                                                                              *
             10368    1   *******************************************************************************/

     3325    10372        %B$VREBLCSET (STCLASS="BASED(VREBL_CUR$)");
     3326    10415        %B_VREBL_POINTERS;
     3327    10435    1   DCL VREBL_CUR$ PTR;
     3328    10436        %PLIST;
     3329    10437
     3330    10438        %PAGE (ARG=ENTRY DCL);

             10451    1   /*******************************************************************************
             10452    1   *                                                                              *
             10453    1   *        ENTRY DCL              ENTRY DCL                                          *
             10454    1   *                                                                              *
             10455    1   *******************************************************************************/

     3331    10459    1   DCL XUO$OUWRITE ENTRY(2);
     3332    10460        %PAGE (ARG=XUO$VREBL_CONT_SET);

             10473    1   /*******************************************************************************
             10474    1   *                                                                              *
PL6.E3A0      #015=XUO$VREBL_CONT_SET File=XUO$BUILD.:E05TSI                     WED 07/30/97 09:31 Page:396
             10475    1   *        XUO$VREBL_CONT_SET              XUO$VREBL_CONT_SET                        *
             10476    1   *                                                                              *
             10477    1   *******************************************************************************/

     3333    10481         /*   The following section will check to see if the passed
     3334    10482            information will fit in the current record.  If not, the
     3335    10483            current record will be written and the pointer reinitialized
     3336    10484            then the text will be moved to the buffer.
     3337    10485            NOTE:    This should not happen but better safe than sorry.
     3338    10486            */
     3339    10487    1       IF B_VREBL_CUR$>=B_VREBL_END$ THEN
     3340    10488    2       DO;
     3341    10489    2           CALL XUO$OUWRITE(%TYPVREBL);
     3342    10490    2           B_VREBL_PAGE=B_VREBL_PAGE+1;
     3343    10491    2           B_VREBL_CUR$=B_VREBL_BASE$;
     3344    10492    2           END;
     3345    10493
     3346    10494         /*  The following will build the continuation entry. */
     3347    10495    1       VREBL_CUR$=B_VREBL_CUR$;
     3348    10496    1       B$VREBLCSET='0'B;
     3349    10497    1       B$VREBLCSET.SIG_BITS = P_SIG_BITS;
     3350    10498    1       B$VREBLCSET.DATATYP=P_DATA_TYPE;
     3351    10499    1       B$VREBLCSET.MIN_VALUE = P_MINIMUM_VALUE;
     3352    10500    1       B$VREBLCSET.NPOINTER_TRUE = P_NAME_POINTER_TRUE;
     3353    10501    1       B$VREBLCSET.NPOINTER_FALSE = P_NAME_POINTER_FALSE;
     3354    10502    1       B_VREBL_COUNT=B_VREBL_COUNT+1;
     3355    10503    1       B_VREBL_CUR$=PINCRW(B_VREBL_CUR$,SIZEW(B$VREBLCSET));
     3356    10504    1       RETURN;
     3357    10505
     3358    10506    1   END XUO$VREBL_CONT_SET;
     3359    10507        %EOD;

PL6.E3A0      #015=XUO$VREBL_CONT_SET File=XUO$BUILD.:E05TSI                     WED 07/30/97 09:31 Page:397
--  Include file information  --

   XUO$OBJ_C.:E05TOU  is referenced.
   B$OBJECT_C.:E05TOU  is referenced.
   CP_6_SUBS.:E05TOU  is referenced.
   CP_6_C.:E05TOU  is referenced.
   CP_6.:E05TOU  cannot be made into a system file and is referenced.
   ZVA_FLAGS.:TOOLE04  is referenced.
   ZVA_SYSTEM_FILE.:TOOLE04  is referenced.
      No diagnostics issued in procedure XUO$VREBL_CONT_SET.

   Procedure XUO$VREBL_CONT_SET requires 40 words for executable code.
   Procedure XUO$VREBL_CONT_SET requires 10 words of local(AUTO) storage.

PL6.E3A0      #015=XUO$VREBL_CONT_SET File=XUO$BUILD.:E05TSI                     WED 07/30/97 09:31 Page:398

 Object Unit name= XUO$VREBL_CONT_SET                         File name= XUO$BUILD.:E05TOU
 UTS= JUL 30 '97 09:31:33.84 WED                              Compiler= PL-6/E31         Sev=      00
 SharedLib= :SHARED_SYSTEM                                    Alt SharedLib=


    ****  Control sections  ****

 Sect   Type Bound  Init  Size OctSiz  Section name(segment info)
    0   DCB   even  none     0      0  M$UC
    1   Proc  even  none    40     50  XUO$VREBL_CONT_SET
    2  RoData even  none     2      2  XUO$VREBL_CONT_SET

    ****  Entry defs  ****

                              Check   Calling
                             calling  sequence
  Sect OctLoc Primary Altret sequence   type   Parms  Name
     1      0   yes            yes      Std        5  XUO$VREBL_CONT_SET

  ****  Entry refs  ****

         Check        Calling
        calling       sequence
Altret sequence SRef   type   Args  Name
         yes           Std       2 XUO$OUWRITE
                       nStd      0 X66_AUTO_5
                       Std       0 B_CONSPOOL_D
                       nStd      0 X66_ARET

  ****  Data refs  ****

  Flags:  r = read only, s = secondary
Flgs Name                             Flgs Name                             Flgs Name
     M$UC                                  B_VREBL_BASE$                         B_VREBL_CUR$
     B_VREBL_END$                          B_VREBL_COUNT                         B_VREBL_PAGE
     B_VECTNIL
PL6.E3A0      #015=XUO$VREBL_CONT_SET File=XUO$BUILD.:E05TSI                     WED 07/30/97 09:31 Page:399

  ****  Segment refs  ****

  Flags:  r = read only, s = secondary
Flgs Name                             Flgs Name                             Flgs Name
     ISSID
PL6.E3A0      #015=XUO$VREBL_CONT_SET File=XUO$BUILD.:E05TSI                     WED 07/30/97 09:31 Page:400


     3149        1        /*M*     XUO$VREBL_CONT_SET -- THIS MODULE WILL BUILD CONTINUATION
     3150        2                    ENTRIES FOR FOR VARIABLES WITH DATA TYPE = SET.  */
     3151        3        /*T***********************************************************/
     3152        4        /*T*                                                         */
     3153        5        /*T* Copyright (c) Bull HN Information Systems Inc., 1997    */
     3154        6        /*T*                                                         */
     3155        7        /*T***********************************************************/
     3156        8        /*P*
     3157        9
     3158       10
     3159       11        NAME:  XUO$VREBL_CONT_SET
     3160       12
     3161       13        PURPOSE:  To build continuation entries in the Variable
     3162       14                  Debug Record (Record Type 14) for variables
     3163       15                  with Data Type = Set.
     3164       16
     3165       17        DESCRIPTION:  This routine builds continuation entries in
     3166       18             the Variable Debug Record.  It is used for FPL status
     3167       19             variables and for variables with Data Type = SET.  The
     3168       20             continuation entry locates the text strings associated
     3169       21             with the true and false settings of each bit.  If this
     3170       22             variable is also an array, this continuation entry
     3171       23             should be the first continuation entry.
     3172       24
     3173       25        */
     3174       26        /*D*
     3175       27
     3176       28        CALL:  CALL XUO$VREBL_CONT_SET (Significant Bits,
     3177       29                                 Data Type,
     3178       30                                 Minimum Value,
     3179       31                                 Pointer True,
     3180       32                                 Pointer False)
     3181       33
     3182       34        INPUT:
     3183       35            Significant Bits    UBIN ALIGNED
     3184       36                                The number of significant bits in
PL6.E3A0      #015=XUO$VREBL_CONT_SET File=XUO$BUILD.:E05TSI                     WED 07/30/97 09:31 Page:401
     3185       37                                the value of this data item if the
     3186       38                                data type of the set is enumerated
     3187       39                                type.  For other data types, Significant
     3188       40                                Bits contains the maximum value for the
     3189       41                                Set.
     3190       42            Data Type           UBIN ALIGNED
     3191       43                                The data type of the elements of the
     3192       44                                Set.  The defined data type codes are
     3193       45                                as follows:
     3194       46                      0              Type not specified.
     3195       47                      1              Real binary fixed single precision
     3196       48                                     (SBIN, INTEGER, COMP-6).
     3197       49                      2              Real binary fixed double precision.
     3198       50                      3              Real binary float single precision
     3199       51                                     (REAL).
     3200       52                      4              Real binary float double precision
     3201       53                                     (DOUBLE PRECISION).
     3202       54                      5              Complex binary fixed single precision.
     3203       55                      6              Complex binary fixed double precision.
     3204       56                      7              Complex binary float single precision
     3205       57                                     (COMPLEX).
     3206       58                      8              Complex binary float double precision
     3207       59                                     (DOUBLE COMPLEX).
     3208       60                      9              Packed decimal fixed, lead ASCII sign
     3209       61                                     (COMP-4).
     3210       62                     10              Packed decimal float.
     3211       63                     11              Packed decimal fixed complex,
     3212       64                                     lead ASCII sign.
     3213       65                     12              Packed decimal float complex.
     3214       66                     13              Pointer
     3215       67                     14              Offset
     3216       68                     15              Label
     3217       69                     16              Entry
     3218       70                     17              Structure
     3219       71                     18              Area
     3220       72                     19              Bit string
     3221       73                     20              Varying bit string
PL6.E3A0      #015=XUO$VREBL_CONT_SET File=XUO$BUILD.:E05TSI                     WED 07/30/97 09:31 Page:402
     3222       74                     21              Character string
     3223       75                     22              Varying character string
     3224       76                     23              File
     3225       77                     24              UBIN
     3226       78                     25              Packed decimal fixed, trail ASCII sign
     3227       79                                     (COMP, COMP-4).
     3228       80                     26              Adjustable character string
     3229       81                     27              Adjustable bit string
     3230       82                     28              EPTR
     3231       83                     29              16 bit signed integer (COMP-1).
     3232       84                     30              32 bit signed integer (COMP-2).
     3233       85                     31              Packed decimal fixed, trail EBCDIC sign
     3234       86                                     (COMP-3).
     3235       87                     32              INDEX-1
     3236       88                     33              INDEX-2
     3237       89                     34              FORTRAN Every
     3238       90                     35              FORTRAN Logical
     3239       91                     36              FORTRAN Any (Never Passed)
     3240       92                     37              FORTRAN Label
     3241       93                     38              FORTRAN UCB
     3242       94                     39              Intrinsic Constant
     3243       95                     40              Packed decimal fixed, no sign (COMP,
     3244       96                                     COMP-3, COMP-4).
     3245       97                     41              Unpacked decimal fixed, no sign
     3246       98                     42              Unpacked decimal fixed lead sign
     3247       99                     43              Unpacked decimal fixed trail sign
     3248      100                     44              Unpacked decimal fixed lead over
     3249      101                                     punched sign
     3250      102                     45              Unpacked decimal fixed trail over
     3251      103                                     punched sign
     3252      104                     46              Adjustable structure
     3253      105                     47              Vector
     3254      106                     48              Remember
     3255      107                     49              Descriptor
     3256      108                     50              Unpacked decimal float
     3257      109                     51              Packed decimal fixed,
     3258      110                                     Lead EBCDIC sign
PL6.E3A0      #015=XUO$VREBL_CONT_SET File=XUO$BUILD.:E05TSI                     WED 07/30/97 09:31 Page:403
     3259      111                     52              Enumerated Type
     3260      112                     53              Set
     3261      113                     54 - 59         Reserved
     3262      114                     60              Null entry
     3263      115                     61              Virtual array dimension entry
     3264      116                     62              Array dimension entry
     3265      117                     63              Reserved
     3266      118            Minimum Value       UBIN ALIGNED
     3267      119                                Contains the minimum value for an
     3268      120                                element of the set.
     3269      121            Pointer True        SBIN ALIGNED
     3270      122                                Word offset into the Debug Names Record
     3271      123                                (Type 15) locating the start of the
     3272      124                                text string for the true value of each
     3273      125                                bit in the Set.  The text strings for
     3274      126                                all significant bits must be in order in
     3275      127                                the debug names starting at Pointer True.
     3276      128                                A value of -1 means not to print the
     3277      129                                text for the true value of each bit.
     3278      130            Pointer False       SBIN ALIGNED
     3279      131                                Word offset into the Debug Names Record
     3280      132                                (Type 15) locating the start of the
     3281      133                                text string for the false value of
     3282      134                                each bit in the Set.  The text strings
     3283      135                                for all significant bits must be in
     3284      136                                order in the Debug names starting at
     3285      137                                Pointer False.  A value of -1 means not
     3286      138                                to print the text for the false value of
     3287      139                                each bit.
     3288      140
     3289      141        OUTPUT:  none
     3290      142
     3291      143        B$OBJECT REFERENCE:  B$VREBLCSET
     3292      144        */
     3293      145        /*B*
     3294      146
     3295      147        GLOBAL DATA:
PL6.E3A0      #015=XUO$VREBL_CONT_SET File=XUO$BUILD.:E05TSI                     WED 07/30/97 09:31 Page:404
     3296      148            B_VREBL_CUR$
     3297      149            B_VREBL_COUNT
     3298      150            B_VREBL_PAGE
     3299      151
     3300      152        INTERFACE:
     3301      153
     3302      154             XUO$OUWRITE
     3303      155        */
     3304      156
     3305      157
     3306      158        XUO$VREBL_CONT_SET: PROC(P_SIG_BITS,P_DATA_TYPE,P_MINIMUM_VALUE,

    158  1 000000   000000 700200 xent  XUO$VREBL_C* TSX0  ! X66_AUTO_5
         1 000001   000012 000005                    ZERO    10,5

     3307      159               P_NAME_POINTER_TRUE,P_NAME_POINTER_FALSE);
     3308      160
     3309      161        %INCLUDE ZVA_SYSTEM_FILE;
     3310     6412            %PAGE (ARG=INCLUDES);

              6425    1   /*******************************************************************************
              6426    1   *                                                                              *
              6427    1   *        INCLUDES              INCLUDES                                           *
              6428    1   *                                                                              *
              6429    1   *******************************************************************************/

     3311     6433        %INCLUDE B$OBJECT_C;
     3312     9863        %INCLUDE XUO$OBJ_C;
     3313    10273            %PAGE (ARG=SUBS);

             10286    1   /*******************************************************************************
             10287    1   *                                                                              *
             10288    1   *        SUBS              SUBS                                                  *
             10289    1   *                                                                              *
             10290    1   *******************************************************************************/

     3314    10294        %B$RECORDSUBS;
PL6.E3A0      #015=XUO$VREBL_CONT_SET File=XUO$BUILD.:E05TSI                     WED 07/30/97 09:31 Page:405
     3315    10322        %PLIST;
     3316    10323
     3317    10324            %PAGE (ARG=PARAMETERS);

             10337    1   /*******************************************************************************
             10338    1   *                                                                              *
             10339    1   *        PARAMETERS              PARAMETERS                                       *
             10340    1   *                                                                              *
             10341    1   *******************************************************************************/

     3318    10345    1   DCL P_SIG_BITS UBIN;
     3319    10346    1   DCL P_DATA_TYPE UBIN;
     3320    10347    1   DCL P_MINIMUM_VALUE UBIN;
     3321    10348    1   DCL P_NAME_POINTER_TRUE SBIN;
     3322    10349    1   DCL P_NAME_POINTER_FALSE SBIN;
     3323    10350
     3324    10351        %PAGE (ARG=VREBLCSET DATA);

             10364    1   /*******************************************************************************
             10365    1   *                                                                              *
             10366    1   *        VREBLCSET DATA              VREBLCSET DATA                               *
             10367    1   *                                                                              *
             10368    1   *******************************************************************************/

     3325    10372        %B$VREBLCSET (STCLASS="BASED(VREBL_CUR$)");
     3326    10415        %B_VREBL_POINTERS;
     3327    10435    1   DCL VREBL_CUR$ PTR;
     3328    10436        %PLIST;
     3329    10437
     3330    10438        %PAGE (ARG=ENTRY DCL);

             10451    1   /*******************************************************************************
             10452    1   *                                                                              *
             10453    1   *        ENTRY DCL              ENTRY DCL                                         *
             10454    1   *                                                                              *
             10455    1   *******************************************************************************/

PL6.E3A0      #015=XUO$VREBL_CONT_SET File=XUO$BUILD.:E05TSI                     WED 07/30/97 09:31 Page:406
     3331    10459    1   DCL XUO$OUWRITE ENTRY(2);
     3332    10460        %PAGE (ARG=XUO$VREBL_CONT_SET);

             10473    1   /*******************************************************************************
             10474    1   *                                                                              *
             10475    1   *        XUO$VREBL_CONT_SET              XUO$VREBL_CONT_SET                       *
             10476    1   *                                                                              *
             10477    1   *******************************************************************************/

     3333    10481         /*   The following section will check to see if the passed
     3334    10482            information will fit in the current record.  If not, the
     3335    10483            current record will be written and the pointer reinitialized
     3336    10484            then the text will be moved to the buffer.
     3337    10485            NOTE:    This should not happen but better safe than sorry.
     3338    10486            */
     3339    10487    1       IF B_VREBL_CUR$>=B_VREBL_END$ THEN

  10487  1 000002   000000 236000 xsym               LDQ     B_VREBL_CUR$
         1 000003   000000 116000 xsym               CMPQ    B_VREBL_END$
         1 000004   000014 602000 1                  TNC     s:10495

     3340    10488    2       DO;

     3341    10489    2           CALL XUO$OUWRITE(%TYPVREBL);

  10489  1 000005   000001 630400 2                  EPPR0   1
         1 000006   000017 631400 xsym               EPPR1   B_VECTNIL+15
         1 000007   000000 701000 xent               TSX1    XUO$OUWRITE
         1 000010   000000 011000                    NOP     0

     3342    10490    2           B_VREBL_PAGE=B_VREBL_PAGE+1;

  10490  1 000011   000000 054000 xsym               AOS     B_VREBL_PAGE

     3343    10491    2           B_VREBL_CUR$=B_VREBL_BASE$;

  10491  1 000012   000000 236000 xsym               LDQ     B_VREBL_BASE$
PL6.E3A0      #015=XUO$VREBL_CONT_SET File=XUO$BUILD.:E05TSI                     WED 07/30/97 09:31 Page:407
         1 000013   000000 756000 xsym               STQ     B_VREBL_CUR$

     3344    10492    2           END;

     3345    10493
     3346    10494         /*  The following will build the continuation entry. */
     3347    10495    1       VREBL_CUR$=B_VREBL_CUR$;

  10495  1 000014   200010 756100                    STQ     VREBL_CUR$,,AUTO

     3348    10496    1       B$VREBLCSET='0'B;

  10496  1 000015   200010 470500                    LDP0    VREBL_CUR$,,AUTO
         1 000016   000100 100400                    MLR     fill='000'O
         1 000017   000002 000001 xsym               ADSC9   B_VECTNIL+2              cn=0,n=1
         1 000020   000000 000024                    ADSC9   0,,PR0                   cn=0,n=20

     3349    10497    1       B$VREBLCSET.SIG_BITS = P_SIG_BITS;

  10497  1 000021   200003 471500                    LDP1    @P_SIG_BITS,,AUTO
         1 000022   100000 720100                    LXL0    0,,PR1
         1 000023   000000 740100                    STX0    0,,PR0

     3350    10498    1       B$VREBLCSET.DATATYP=P_DATA_TYPE;

  10498  1 000024   200004 473500                    LDP3    @P_DATA_TYPE,,AUTO
         1 000025   300000 236100                    LDQ     0,,PR3
         1 000026   000002 736000                    QLS     2
         1 000027   000000 676100                    ERQ     0,,PR0
         1 000030   000374 376007                    ANQ     252,DL
         1 000031   000000 656100                    ERSQ    0,,PR0

     3351    10499    1       B$VREBLCSET.MIN_VALUE = P_MINIMUM_VALUE;

  10499  1 000032   200005 474500                    LDP4    @P_MINIMUM_VALUE,,AUTO
         1 000033   400000 235100                    LDA     0,,PR4
         1 000034   000001 755100                    STA     1,,PR0
PL6.E3A0      #015=XUO$VREBL_CONT_SET File=XUO$BUILD.:E05TSI                     WED 07/30/97 09:31 Page:408

     3352    10500    1       B$VREBLCSET.NPOINTER_TRUE = P_NAME_POINTER_TRUE;

  10500  1 000035   200006 475500                    LDP5    @P_NAME_POINTER_TRUE,,AUTO
         1 000036   500000 721100                    LXL1    0,,PR5
         1 000037   000002 741100                    STX1    2,,PR0

     3353    10501    1       B$VREBLCSET.NPOINTER_FALSE = P_NAME_POINTER_FALSE;

  10501  1 000040   200007 476500                    LDP6    @P_NAME_POINTER_FALSE,,AUTO
         1 000041   600000 722100                    LXL2    0,,PR6
         1 000042   000002 442100                    SXL2    2,,PR0

     3354    10502    1       B_VREBL_COUNT=B_VREBL_COUNT+1;

  10502  1 000043   000000 054000 xsym               AOS     B_VREBL_COUNT

     3355    10503    1       B_VREBL_CUR$=PINCRW(B_VREBL_CUR$,SIZEW(B$VREBLCSET));

  10503  1 000044   000000 236000 xsym               LDQ     B_VREBL_CUR$
         1 000045   000005 036003                    ADLQ    5,DU
         1 000046   000000 756000 xsym               STQ     B_VREBL_CUR$

     3356    10504    1       RETURN;

  10504  1 000047   000000 702200 xent               TSX2  ! X66_ARET
     3357    10505
     3358    10506    1   END XUO$VREBL_CONT_SET;
     3359    10507        %EOD;

PL6.E3A0      #015=XUO$VREBL_CONT_SET File=XUO$BUILD.:E05TSI                     WED 07/30/97 09:31 Page:409
--  Include file information  --

   XUO$OBJ_C.:E05TOU  is referenced.
   B$OBJECT_C.:E05TOU  is referenced.
   CP_6_SUBS.:E05TOU  is referenced.
   CP_6_C.:E05TOU  is referenced.
   CP_6.:E05TOU  cannot be made into a system file and is referenced.
   ZVA_FLAGS.:TOOLE04  is referenced.
   ZVA_SYSTEM_FILE.:TOOLE04  is referenced.
      No diagnostics issued in procedure XUO$VREBL_CONT_SET.
PL6.E3A0      #015=XUO$VREBL_CONT_SET File=XUO$BUILD.:E05TSI                     WED 07/30/97 09:31 Page:410

 **** Variables and constants ****

  ****  Auto variables  ****

  ****  Scalars and arrays  ****
OctLoc.c.b A Datatyp(siz) R M Lvl/name                 OctLoc.c.b A Datatyp(siz) R M Lvl/name

     4-0-0/w PTR         r     1 @P_DATA_TYPE               5-0-0/w PTR         r     1 @P_MINIMUM_VALUE
     7-0-0/w PTR         r     1 @P_NAME_POINTER_FALSE
     6-0-0/w PTR         r     1 @P_NAME_POINTER_TRUE       3-0-0/w PTR         r     1 @P_SIG_BITS
    *0-0-0/w UBIN        r     1 P_DATA_TYPE               *0-0-0/w UBIN        r     1 P_MINIMUM_VALUE
    *0-0-0/w SBIN        r     1 P_NAME_POINTER_FALSE      *0-0-0/w SBIN        r     1 P_NAME_POINTER_TRUE
    *0-0-0/w UBIN        r     1 P_SIG_BITS                10-0-0/w PTR         r     1 VREBL_CUR$

  ****  SYMREF variables  ****

  ****  Scalars and arrays  ****
OctLoc.c.b A Datatyp(siz) R M Lvl/name                 OctLoc.c.b A Datatyp(siz) R M Lvl/name

     0-0-0/w PTR         r     1 B_VREBL_BASE$              0-0-0/w SBIN        r     1 B_VREBL_COUNT
     0-0-0/w PTR         r     1 B_VREBL_CUR$               0-0-0/w PTR         r     1 B_VREBL_END$
     0-0-0/w SBIN        r     1 B_VREBL_PAGE

  ****  BASED and DCB variables  ****

  ****  Scalars and arrays  ****
OctLoc.c.b A Datatyp(siz) R M Lvl/name                 OctLoc.c.b A Datatyp(siz) R M Lvl/name

     0-0-0/w STRC(180)   r     1 B$VREBLCSET


   Procedure XUO$VREBL_CONT_SET requires 40 words for executable code.
   Procedure XUO$VREBL_CONT_SET requires 10 words of local(AUTO) storage.
PL6.E3A0      #015=XUO$VREBL_CONT_SET File=XUO$BUILD.:E05TSI                     WED 07/30/97 09:31 Page:411
          *** CROSS REFERENCE LISTING ***
**     DENOTES     IDENTIFIER DEFINITION
<<                 IDENTIFIER'S VALUE SET
>>                 IDENTIFIER'S VALUE USED
<>                 IDENTIFIER SET AND/OR USED
--                 IDENTIFIER REFERENCED
PL6.E3A0      #015=XUO$VREBL_CONT_SET File=XUO$BUILD.:E05TSI                     WED 07/30/97 09:31 Page:412
          MINI XREF LISTING

B$VREBLCSET
     10373**DCL     10496<<ASSIGN  10503--ASSIGN
B$VREBLCSET.DATATYP
     10384**DCL     10498<<ASSIGN
B$VREBLCSET.MIN_VALUE
     10389**DCL     10499<<ASSIGN
B$VREBLCSET.NPOINTER_FALSE
     10402**DCL     10501<<ASSIGN
B$VREBLCSET.NPOINTER_TRUE
     10392**DCL     10500<<ASSIGN
B$VREBLCSET.SIG_BITS
     10374**DCL     10497<<ASSIGN
B_VREBL_BASE$
     10427**DCL     10491>>ASSIGN
B_VREBL_COUNT
     10430**DCL     10502<<ASSIGN  10502>>ASSIGN
B_VREBL_CUR$
     10428**DCL     10487>>IF      10491<<ASSIGN  10495>>ASSIGN  10503<<ASSIGN  10503>>ASSIGN
B_VREBL_END$
     10429**DCL     10487>>IF
B_VREBL_PAGE
     10431**DCL     10490<<ASSIGN  10490>>ASSIGN
P_DATA_TYPE
     10346**DCL       158--PROC    10498>>ASSIGN
P_MINIMUM_VALUE
     10347**DCL       158--PROC    10499>>ASSIGN
P_NAME_POINTER_FALSE
     10349**DCL       158--PROC    10501>>ASSIGN
P_NAME_POINTER_TRUE
     10348**DCL       158--PROC    10500>>ASSIGN
P_SIG_BITS
     10345**DCL       158--PROC    10497>>ASSIGN
PL6.E3A0      #015=XUO$VREBL_CONT_SET File=XUO$BUILD.:E05TSI                     WED 07/30/97 09:31 Page:413
VREBL_CUR$
     10435**DCL     10373--IMP-PTR 10495<<ASSIGN  10496>>ASSIGN  10497>>ASSIGN  10498>>ASSIGN  10499>>ASSIGN
     10500>>ASSIGN  10501>>ASSIGN
XUO$OUWRITE
     10459**DCL-ENT 10489--CALL

PL6.E3A0      #016=XUO$LOGBLK File=XUO$BUILD.:E05TSI                             WED 07/30/97 09:32 Page:414
     3360        1        /*M*     XUO$LOGBLK  - THIS MODULE CONTAINS ROUTINES THAT BUILD LOGICAL BLOCK RECORD
                 1        */
     3361        2        /*T***********************************************************/
     3362        3        /*T*                                                         */
     3363        4        /*T* Copyright (c) Bull HN Information Systems Inc., 1997    */
     3364        5        /*T*                                                         */
     3365        6        /*T***********************************************************/
     3366        7        /*P*
     3367        8
     3368        9               NAME:  XUO$LOGBLK
     3369       10               PURPOSE: This module contains the 6 entry points that are
     3370       11                        used to build a complete logical block record.
     3371       12
     3372       13                        XUO$LOGBLK is never called.
     3373       14        */
     3374       15        /*D*
     3375       16
     3376       17        XUO$LOGBLKALLOC --Logical Block Debug Records (Record Type 11)
     3377       18
     3378       19        NAME:  XUO$LOGBLKALLOC
     3379       20
     3380       21        PURPOSE:  Used in building Logical Block Debug Records
     3381       22
     3382       23        DESCRIPTION:  This routine is used in building Logical Block
     3383       24            Debug Records.  It must be called before any other of the
     3384       25            logical block creation routines are called.  It need not
     3385       26            be called before XUO$LOGBLKTERM, the termination routine.
     3386       27            This routine allocates a Logical Block entry.  If one is
     3387       28            not available it will altreturn.
     3388       29
     3389       30        CALL:  CALL XUO$LOGBLKALLOC(Logical Block Number)
     3390       31                  ALTRETURN (Label)
     3391       32
     3392       33        INPUT:
     3393       34            none
     3394       35
     3395       36        OUTPUT:
PL6.E3A0      #016=XUO$LOGBLK File=XUO$BUILD.:E05TSI                             WED 07/30/97 09:32 Page:415
     3396       37            Logical Block Number UBIN ALIGNED
     3397       38                                The entry number into the logical
     3398       39                                block debug record.
     3399       40
     3400       41        B$OBJECT REFERENCE:  B$LOGBLK
     3401       42        */
     3402       43
     3403       44        /*B*
     3404       45
     3405       46        GLOBAL DATA:
     3406       47             B_LOGBLK_COUNT
     3407       48
     3408       49        INTERFACE:  none
     3409       50
     3410       51        */
     3411       52
     3412       53        XUO$LOGBLK: PROC (P_LOGBLK_NUMBER,P_PARAM2,P_PARAM3,P_NAME_POINTER,P_LEXICAL_LEVEL)
                53            ALTRET;
     3413       54         /*
     3414       55            */
     3415       56        %INCLUDE ZVA_SYSTEM_FILE;
     3416     6307        %PAGE (ARG=INCLUDES);

              6320    1   /*******************************************************************************
              6321    1   *                                                                              *
              6322    1   *        INCLUDES              INCLUDES                                            *
              6323    1   *                                                                              *
              6324    1   *******************************************************************************/

     3417     6328        %INCLUDE B$OBJECT_C;
     3418     9758        %INCLUDE XUO$OBJ_C;
     3419    10168        %PAGE (ARG=SUBS);

             10181    1   /*******************************************************************************
             10182    1   *                                                                              *
             10183    1   *        SUBS              SUBS                                                  *
             10184    1   *                                                                              *
PL6.E3A0      #016=XUO$LOGBLK File=XUO$BUILD.:E05TSI                             WED 07/30/97 09:32 Page:416
             10185    1   *******************************************************************************/

     3420    10189        %COMPILERIDSUBS;
     3421    10205        %PAGE (ARG=PARAMETERS);

             10218    1   /*******************************************************************************
             10219    1   *                                                                              *
             10220    1   *        PARAMETERS              PARAMETERS                                        *
             10221    1   *                                                                              *
             10222    1   *******************************************************************************/

     3422    10226    1   DCL P_LOGBLK_NUMBER UBIN;
     3423    10227         /*
     3424    10228         The following definition is for logblknoauto
     3425    10229         */
     3426    10230    1   DCL P_OPNDTYP REDEF P_LOGBLK_NUMBER UBIN;
     3427    10231
     3428    10232    1   DCL P_PARAM2 UBIN;
     3429    10233         /*
     3430    10234         The following defintion is for logblkexstinit.
     3431    10235         */
     3432    10236    1   DCL P_STARTING_EXST_NUMBER REDEF P_PARAM2 UBIN;
     3433    10237         /*
     3434    10238         The following definition is for logblkexstterm.
     3435    10239         -1  -> that there are no exst entries
     3436    10240         */
     3437    10241    1   DCL P_ENDING_EXST_NUMBER REDEF P_PARAM2 SBIN;
     3438    10242         /*
     3439    10243         The following defintion is for logblkvreblinit.
     3440    10244         */
     3441    10245    1   DCL P_STARTING_VREBL_NUMBER REDEF P_PARAM2 UBIN;
     3442    10246         /*
     3443    10247         The following defintion is for logblkvreblterm.
     3444    10248         -1  -> that there are no vrebl entries
     3445    10249         */
     3446    10250    1   DCL P_ENDING_VREBL_NUMBER REDEF P_PARAM2 SBIN;
     3447    10251         /*
PL6.E3A0      #016=XUO$LOGBLK File=XUO$BUILD.:E05TSI                             WED 07/30/97 09:32 Page:417
     3448    10252         The following definition is for logblknoauto
     3449    10253         */
     3450    10254    1   DCL P_OPERAND REDEF P_PARAM2 UBIN;
     3451    10255         /*
     3452    10256            */
     3453    10257    1   DCL P_PARAM3 UBIN;
     3454    10258         /*
     3455    10259         The following defintion is for XUO$LOGBLKEXSTINIT.
     3456    10260         */
     3457    10261    1   DCL P_STARTING_LINE_NUMBER REDEF P_PARAM3 UBIN;
     3458    10262         /*
     3459    10263         The following definition is for XUO$LOGBLKEXSTTERM.
     3460    10264         */
     3461    10265    1   DCL P_ENDING_LINE_NUMBER REDEF P_PARAM3 UBIN;
     3462    10266         /*
     3463    10267         The following definition is for logblknoauto
     3464    10268         */
     3465    10269    1   DCL P_OFFSET REDEF P_PARAM3 UBIN;
     3466    10270
     3467    10271    1   DCL P_NAME_POINTER SBIN;
     3468    10272    1   DCL P_LEXICAL_LEVEL UBIN;
     3469    10273        %PAGE (ARG=LOGBLK DATA);

             10286    1   /*******************************************************************************
             10287    1   *                                                                              *
             10288    1   *        LOGBLK DATA              LOGBLK DATA                                      *
             10289    1   *                                                                              *
             10290    1   *******************************************************************************/

     3470    10294        %B$LBNTRY0 (STCLASS="BASED(B_LOGBLK_ENTRY0$)");
     3471    10330        %B$LBNTRY1 (STCLASS="BASED(B_LOGBLK_ENTRY1$)");
     3472    10357        %B$LOGBLK (STCLASS="BASED(LOGBLK_TEMP$)");
     3473    10388        %B_LOGBLK_POINTERS;
     3474    10410        %PLIST;
     3475    10411        %PAGE (ARG=DBGNAME DATA);

             10424    1   /*******************************************************************************
PL6.E3A0      #016=XUO$LOGBLK File=XUO$BUILD.:E05TSI                             WED 07/30/97 09:32 Page:418
             10425    1   *                                                                              *
             10426    1   *        DBGNAME DATA              DBGNAME DATA                                    *
             10427    1   *                                                                              *
             10428    1   *******************************************************************************/

     3476    10432        %B_DBGNAME_POINTERS;
     3477    10452        %PLIST;
     3478    10453        %PAGE (ARG=EXST DATA);

             10466    1   /*******************************************************************************
             10467    1   *                                                                              *
             10468    1   *        EXST DATA              EXST DATA                                          *
             10469    1   *                                                                              *
             10470    1   *******************************************************************************/

     3479    10474        %B$EXST;
     3480    10581        %B_EXST_POINTERS;
     3481    10601        %PLIST;
     3482    10602        %PAGE (ARG=VREBL DATA);

             10615    1   /*******************************************************************************
             10616    1   *                                                                              *
             10617    1   *        VREBL DATA              VREBL DATA                                        *
             10618    1   *                                                                              *
             10619    1   *******************************************************************************/

     3483    10623        %B$VREBL;
     3484    10787        %B_VREBL_POINTERS;
     3485    10807        %PLIST;
     3486    10808        %PAGE (ARG=INTNTRY DATA);

             10821    1   /*******************************************************************************
             10822    1   *                                                                              *
             10823    1   *        INTNTRY DATA              INTNTRY DATA                                    *
             10824    1   *                                                                              *
             10825    1   *******************************************************************************/

PL6.E3A0      #016=XUO$LOGBLK File=XUO$BUILD.:E05TSI                             WED 07/30/97 09:32 Page:419
     3487    10829        %B$INTNTRY;
     3488    10887        %B_INTNTRY_POINTERS;
     3489    10907        %PLIST;
     3490    10908        %PAGE (ARG=MISC DATA);

             10921    1   /*******************************************************************************
             10922    1   *                                                                              *
             10923    1   *        MISC DATA              MISC DATA                                          *
             10924    1   *                                                                              *
             10925    1   *******************************************************************************/

     3491    10929    1   DCL XUO_COMPILER_ID SYMREF UBIN;
     3492    10930    1   DCL 1 XUO_VERSION_NUMBER SYMREF,
     3493    10931    1         2 LETTER CHAR(1) UNAL,
     3494    10932    1         2 NUMBER UBIN(9) UNAL;
     3495    10933    1   DCL XUO_OU_UTS SYMREF UBIN;
     3496    10934    1   DCL LOGBLK_TEMP$ PTR;
     3497    10935        %PAGE (ARG=XUO$LOGBLKALLOC);

             10948    1   /*******************************************************************************
             10949    1   *                                                                              *
             10950    1   *        XUO$LOGBLKALLOC              XUO$LOGBLKALLOC                              *
             10951    1   *                                                                              *
             10952    1   *******************************************************************************/

     3498    10956    1   XUO$LOGBLKALLOC: ENTRY (P_LOGBLK_NUMBER) ALTRET;
     3499    10957         /*
     3500    10958         The following section will allocate another logical block.  If no more
     3501    10959         available and altret will be taken.  The entry number for the allocated block is
     3502    10960         returned.
     3503    10961         */
     3504    10962    1       IF B_LOGBLK_CUR$<B_LOGBLK_END$ THEN
     3505    10963    2       DO;
     3506    10964    2           B_LOGBLK_COUNT=B_LOGBLK_COUNT+1;
     3507    10965    2           P_LOGBLK_NUMBER=B_LOGBLK_COUNT;
     3508    10966    2           B_LOGBLK_CUR$=PINCRW(B_LOGBLK_CUR$,SIZEW(B$LOGBLK));
     3509    10967    2           RETURN;
PL6.E3A0      #016=XUO$LOGBLK File=XUO$BUILD.:E05TSI                             WED 07/30/97 09:32 Page:420
     3510    10968    2           END;
     3511    10969         /*
     3512    10970         The following gives an error if cant allocate any more logcial blocks.
     3513    10971         */
     3514    10972    1       ALTRETURN;
     3515    10973            %PAGE (ARG=XUO$LOGBLKEXSTINIT);

             10986    1   /*******************************************************************************
             10987    1   *                                                                              *
             10988    1   *        XUO$LOGBLKEXSTINIT              XUO$LOGBLKEXSTINIT                        *
             10989    1   *                                                                              *
             10990    1   *******************************************************************************/

     3516    10994        /*D*
     3517    10995
     3518    10996        XUO$LOGBLKEXSTINIT --Logical Block Debug Records (Record Type 11)
     3519    10997
     3520    10998        NAME:  XUO$LOGBLKEXSTINIT
     3521    10999
     3522    11000        PURPOSE:  To build Logical Block Debug Records
     3523    11001
     3524    11002        DESCRIPTION:  This routine is used in building Logical Block
     3525    11003            Debug records.  It fills in initial data that relates to
     3526    11004            the executable information.  The routine altreturns if
     3527    11005            the logical block number is invalid.
     3528    11006
     3529    11007        CALL:  CALL XUO$LOGBLKEXSTINIT (Logical Block Number,
     3530    11008                                 Starting executable statement number,
     3531    11009                                 Starting line number,
     3532    11010                                 Name Pointer,
     3533    11011                                 Lexical Level)
     3534    11012
     3535    11013        INPUT:
     3536    11014            Logical Block Number UBIN
     3537    11015                                The number returned by the call to
     3538    11016                                XUO$LOGBLKALLOC.
     3539    11017            Starting executable statement number  UBIN
PL6.E3A0      #016=XUO$LOGBLK File=XUO$BUILD.:E05TSI                             WED 07/30/97 09:32 Page:421
     3540    11018                                The word offset into the statement
     3541    11019                                record (type 13) to the statement
     3542    11020                                descriptions for this logical block.
     3543    11021                                It is the starting number of the first
     3544    11022                                executable statement of the block.
     3545    11023            Starting Line number UBIN
     3546    11024                                The beginning line number of this
     3547    11025                                logical block.
     3548    11026            Name Pointer        SBIN
     3549    11027                                The word displacement into the debug
     3550    11028                                name record (type 15) locating the
     3551    11029                                name of this logical block.
     3552    11030            Lexical Level       UBIN
     3553    11031                                The nesting level of the block.
     3554    11032                                A contained procedure has a higher
     3555    11033                                lexical level than the procedure which
     3556    11034                                contains it.
     3557    11035
     3558    11036        OUTPUT:
     3559    11037            Updated logical block record
     3560    11038
     3561    11039        B$OBJECT REFERENCE:  B$LOGBLK
     3562    11040        */
     3563    11041        /*B*
     3564    11042
     3565    11043        GLOBAL DATA:  none
     3566    11044
     3567    11045        INTERFACE:  none
     3568    11046
     3569    11047        */
     3570    11048
     3571    11049    1   XUO$LOGBLKEXSTINIT: ENTRY(P_LOGBLK_NUMBER,P_PARAM2,P_PARAM3,P_NAME_POINTER,
             11049            P_LEXICAL_LEVEL) ALTRET;
     3572    11050         /*
     3573    11051         The following section will verify the logblk number to insure that it is valid.
     3574    11052         If not, an altreturn will be taken.
     3575    11053         */
PL6.E3A0      #016=XUO$LOGBLK File=XUO$BUILD.:E05TSI                             WED 07/30/97 09:32 Page:422
     3576    11054    1       LOGBLK_TEMP$=PINCRW(B_LOGBLK_BASE$,P_LOGBLK_NUMBER*SIZEW(B$LOGBLK));
     3577    11055    1       IF LOGBLK_TEMP$>=B_LOGBLK_CUR$ THEN
     3578    11056    1           ALTRETURN;
     3579    11057         /*
     3580    11058         The following section will partially fill in the exst portion of logblk.
     3581    11059         */
     3582    11060    1       B$LOGBLK.STLINE=P_STARTING_LINE_NUMBER;
     3583    11061    1       B$LOGBLK.NPOINTER=P_NAME_POINTER;
     3584    11062    1       B$LOGBLK.LEXLVL=P_LEXICAL_LEVEL;
     3585    11063    1       B$LOGBLK.STOFFST=P_STARTING_EXST_NUMBER*SIZEW(B$EXST);
     3586    11064    1       RETURN;
     3587    11065            %PAGE (ARG=XUO$LOGBLKEXSTTERM);

             11078    1   /*******************************************************************************
             11079    1   *                                                                              *
             11080    1   *        XUO$LOGBLKEXSTTERM              XUO$LOGBLKEXSTTERM                        *
             11081    1   *                                                                              *
             11082    1   *******************************************************************************/

     3588    11086        /*D*
     3589    11087
     3590    11088        XUO$LOGBLKEXSTTERM --Logical Block Debug Record (Record Type 11)
     3591    11089
     3592    11090        NAME:  XUO$LOGBLKEXSTTERM
     3593    11091
     3594    11092        PURPOSE:  To finish building the Logical Block Debug Record
     3595    11093
     3596    11094        DESCRIPTION:  This routine finishes setting up of the executable
     3597    11095            statement information in the Logical Block entry.  If the
     3598    11096            logical block number passed to it is not invalid, this
     3599    11097            routine will altreturn.
     3600    11098
     3601    11099        CALL:  CALL XUO$LOGBLKEXSTTERM (Logical Block Number,
     3602    11100                                 Ending Executable Statement Number,
     3603    11101                                 Ending Line Number)
     3604    11102                      ALTRETURN (Label)
     3605    11103
PL6.E3A0      #016=XUO$LOGBLK File=XUO$BUILD.:E05TSI                             WED 07/30/97 09:32 Page:423
     3606    11104        INPUT:
     3607    11105            Logical Block Number UBIN
     3608    11106                                The logical block number returned from
     3609    11107                                the call to XUO$LOGBLKALLOC.
     3610    11108            Ending Executable Statement Number  SBIN
     3611    11109                                This is the size in entries of the
     3612    11110                                statement descriptions for this logical
     3613    11111                                block.  It is used to calculate the
     3614    11112                                statements offset.
     3615    11113            Ending Line Number  UBIN
     3616    11114                                The ending line number for this logical
     3617    11115                                block.
     3618    11116        OUTPUT:
     3619    11117            Updated logical block record
     3620    11118
     3621    11119        B$OBJECT REFERENCE:  B$LOGBLK
     3622    11120        */
     3623    11121        /*B*
     3624    11122
     3625    11123        GLOBAL DATA:  none
     3626    11124
     3627    11125        INTERFACE:  none
     3628    11126
     3629    11127        */
     3630    11128
     3631    11129    1   XUO$LOGBLKEXSTTERM: ENTRY (P_LOGBLK_NUMBER,P_PARAM2,P_PARAM3) ALTRET;
     3632    11130         /*
     3633    11131         The following section will verify the logblk number.  If not valid, an
     3634    11132         altreturn will be taken.
     3635    11133         */
     3636    11134    1       LOGBLK_TEMP$=PINCRW(B_LOGBLK_BASE$,P_LOGBLK_NUMBER*SIZEW(B$LOGBLK));
     3637    11135    1       IF LOGBLK_TEMP$>=B_LOGBLK_CUR$ THEN
     3638    11136    1           ALTRETURN;
     3639    11137         /*
     3640    11138         The following section will fill in the final portion of the
     3641    11139         exst part of the logcial block entry.
     3642    11140         */
PL6.E3A0      #016=XUO$LOGBLK File=XUO$BUILD.:E05TSI                             WED 07/30/97 09:32 Page:424
     3643    11141    1       B$LOGBLK.ENLINE=P_ENDING_LINE_NUMBER;
     3644    11142    1       B$LOGBLK.STSIZE=P_ENDING_EXST_NUMBER-B$LOGBLK.STOFFST/SIZEW(B$EXST);
     3645    11143    1       RETURN;
     3646    11144            %PAGE (ARG=XUO$LOGBLKVREBLINIT);

             11157    1   /*******************************************************************************
             11158    1   *                                                                              *
             11159    1   *        XUO$LOGBLKVREBLINIT              XUO$LOGBLKVREBLINIT                      *
             11160    1   *                                                                              *
             11161    1   *******************************************************************************/

     3647    11165        /*D*
     3648    11166        XUO$LOGBLKVREBLINIT --Logical Block Debug Record (Record Type 11)
     3649    11167
     3650    11168        NAME:  XUO$LOGBLKVREBLINIT
     3651    11169
     3652    11170        PURPOSE:  Used in building the Logical Block Debug Records
     3653    11171                  (Record Type 11)
     3654    11172
     3655    11173        DESCRIPTION:  This routine fills in the initial data that
     3656    11174            relates to the variable records in the Logical Block
     3657    11175            Entry.  If the logical block number passed in is
     3658    11176            invalid, this routine will altreturn.
     3659    11177
     3660    11178        CALL:  CALL XUO$LOGBLKVREBLINIT (Logical Block Number,
     3661    11179                                  Starting Variable Number)
     3662    11180                       ALTRETURN (Label)
     3663    11181
     3664    11182        INPUT:
     3665    11183            Logical Block Number UBIN
     3666    11184                                The logical block number returned from
     3667    11185                                the call to XUO$LOGBLKALLOC.
     3668    11186            Starting Variable Number  UBIN
     3669    11187                                The word offset into the variable record
     3670    11188                                (type 14) to the variable descriptions
     3671    11189                                for this logical block.
     3672    11190        OUTPUT:
PL6.E3A0      #016=XUO$LOGBLK File=XUO$BUILD.:E05TSI                             WED 07/30/97 09:32 Page:425
     3673    11191            Updated logical block record
     3674    11192
     3675    11193        B$OBJECT REFERENCE:  B$LOGBLK
     3676    11194        */
     3677    11195        /*B*
     3678    11196
     3679    11197        GLOBAL DATA:  none
     3680    11198
     3681    11199        INTERFACE:  none
     3682    11200
     3683    11201        */
     3684    11202
     3685    11203    1   XUO$LOGBLKVREBLINIT: ENTRY (P_LOGBLK_NUMBER,P_PARAM2) ALTRET;
     3686    11204         /*
     3687    11205         The following section will verify the logblk number.  If not valid, an
     3688    11206         altreturn will be taken.
     3689    11207         */
     3690    11208    1       LOGBLK_TEMP$=PINCRW(B_LOGBLK_BASE$,P_LOGBLK_NUMBER*SIZEW(B$LOGBLK));
     3691    11209    1       IF LOGBLK_TEMP$>=B_LOGBLK_CUR$ THEN
     3692    11210    1           ALTRETURN;
     3693    11211         /*
     3694    11212         The following section will partially fill in the vrebl part of the logical block
     3695    11213         entry.
     3696    11214         */
     3697    11215    1       B$LOGBLK.VAOFFST=P_STARTING_VREBL_NUMBER*SIZEW(B$VREBL);
     3698    11216    1       RETURN;
     3699    11217            %PAGE (ARG=XUO$LOGBLKVREBLTERM);

             11230    1   /*******************************************************************************
             11231    1   *                                                                              *
             11232    1   *        XUO$LOGBLKVREBLTERM              XUO$LOGBLKVREBLTERM                      *
             11233    1   *                                                                              *
             11234    1   *******************************************************************************/

     3700    11238        /*D*
     3701    11239        XUO$LOGBLKVREBLTERM --Logical Block Debug Record (Record Type 11)
     3702    11240
PL6.E3A0      #016=XUO$LOGBLK File=XUO$BUILD.:E05TSI                             WED 07/30/97 09:32 Page:426
     3703    11241        NAME:  XUO$LOGBLKVREBLTERM
     3704    11242
     3705    11243        PURPOSE:  Used in building Logical Block Debug Records
     3706    11244                  (Record type 11)
     3707    11245
     3708    11246        DESCRIPTION:  This routine is used in building Logical Block
     3709    11247            Debug Records.  It finishes setting up the variable data
     3710    11248            information in the Logical Block entry.  If the logical
     3711    11249            block number passed is invalid, this routing will altreturn.
     3712    11250
     3713    11251        CALL:  CALL XUO$LOGBLKVREBLTERM (Logical Block Number,
     3714    11252                                  Ending Variable Number)
     3715    11253                       ALTRETURN (Label)
     3716    11254
     3717    11255        INPUT:
     3718    11256            Logical Block Number UBIN
     3719    11257                                The logical block number that is
     3720    11258                                returned from the call to XUO$LOGBLKALLOC.
     3721    11259            Ending Variable Number SBIN
     3722    11260                                The index number of the last variable
     3723    11261                                (type 14) for this logical block.
     3724    11262                                It is used to calculate the variable size.
     3725    11263        OUTPUT:
     3726    11264            Updated logical block record
     3727    11265
     3728    11266        B$OBJECT REFERENCE:  B$LOGBLK
     3729    11267        */
     3730    11268        /*B*
     3731    11269
     3732    11270        GLOBAL DATA:  none
     3733    11271
     3734    11272        INTERFACE:  none
     3735    11273
     3736    11274        */
     3737    11275
     3738    11276    1   XUO$LOGBLKVREBLTERM: ENTRY (P_LOGBLK_NUMBER,P_PARAM2) ALTRET;
     3739    11277         /*
PL6.E3A0      #016=XUO$LOGBLK File=XUO$BUILD.:E05TSI                             WED 07/30/97 09:32 Page:427
     3740    11278         The following section will verify the logblk number.  If not valid, an
     3741    11279         altreturn will be taken.
     3742    11280         */
     3743    11281    1       LOGBLK_TEMP$=PINCRW(B_LOGBLK_BASE$,P_LOGBLK_NUMBER*SIZEW(B$LOGBLK));
     3744    11282    1       IF LOGBLK_TEMP$>=B_LOGBLK_CUR$ THEN
     3745    11283    1           ALTRETURN;
     3746    11284         /*
     3747    11285         The following section will partially fill in the vrebl part of the logical block
     3748    11286         entry.
     3749    11287         */
     3750    11288    1       B$LOGBLK.VASIZE=P_ENDING_VREBL_NUMBER-B$LOGBLK.VAOFFST/SIZEW(B$VREBL);
     3751    11289    1       RETURN;
     3752    11290            %PAGE (ARG=LOGBLK 0/1 CODE);

             11303    1   /*******************************************************************************
             11304    1   *                                                                              *
             11305    1   *        LOGBLK 0/1 CODE              LOGBLK 0/1 CODE                              *
             11306    1   *                                                                              *
             11307    1   *******************************************************************************/

     3753    11311        /*D*
     3754    11312
     3755    11313        XUO$LOGBLKTERM --Logical Block Debug Records (Record Type 11)
     3756    11314
     3757    11315        NAME:  XUO$LOGBLKTERM
     3758    11316
     3759    11317        PURPOSE:  Used in building Logical Block Debug Records
     3760    11318                  (Record Type 11)
     3761    11319
     3762    11320        DESCRIPTION:  This routine must only be called after all logical
     3763    11321            blocks have been filled in.  It sets up the two headers
     3764    11322            that describe the total sizes of the debug records.
     3765    11323
     3766    11324        CALL:  CALL XUO$LOGBLKTERM  ALTRET (Label)
     3767    11325
     3768    11326        INPUT:
     3769    11327            none
PL6.E3A0      #016=XUO$LOGBLK File=XUO$BUILD.:E05TSI                             WED 07/30/97 09:32 Page:428
     3770    11328
     3771    11329        OUTPUT:
     3772    11330            Updated logical block headers
     3773    11331
     3774    11332        B$OBJECT REFERENCE:  B$LBNTRY0, B$LBNTRY1
     3775    11333        */
     3776    11334        /*B*
     3777    11335
     3778    11336        GLOBAL DATA:  none
     3779    11337
     3780    11338        INTERFACE:  none
     3781    11339
     3782    11340        */
     3783    11341
     3784    11342
     3785    11343    1   XUO$LOGBLKTERM: ENTRY ALTRET;
     3786    11344         /*
     3787    11345         The following section builds logical block entry number 0.
     3788    11346         */
     3789    11347    1       B$LBNTRY0.COMPILER=XUO_COMPILER_ID;
     3790    11348    1       B$LBNTRY0.VERS=XUO_VERSION_NUMBER;
     3791    11349    1       B$LBNTRY0.UTS=XUO_OU_UTS;
     3792    11350         /*
     3793    11351         The following section builds logical block entry number 1.
     3794    11352         */
     3795    11353    1       B$LBNTRY1.NAMESIZ=B_DBGNAME_COUNT;
     3796    11354    1       B$LBNTRY1.NAMPSIZ=B_DBGNAME_PAGE_SIZE;
     3797    11355    1       B$LBNTRY1.STMNTSIZ=(B_EXST_COUNT+1)*SIZEW(B$EXST);
     3798    11356    1       B$LBNTRY1.STMNTPSIZ=B_EXST_PAGE_SIZE;
     3799    11357    1       B$LBNTRY1.VREBLSIZ=(B_VREBL_COUNT+1)*SIZEW(B$VREBL);
     3800    11358    1       B$LBNTRY1.VREBLPSIZ=B_VREBL_PAGE_SIZE;
     3801    11359    1       B$LBNTRY1.INTRYSIZ=(B_INTNTRY_COUNT+1)*SIZEW(B$INTNTRY);
     3802    11360    1       B$LBNTRY1.INTRYPSIZ=B_INTNTRY_PAGE_SIZE;
     3803    11361    1       RETURN;
     3804    11362
     3805    11363            %PAGE(ARG=LOGBLK NOAUTO);

PL6.E3A0      #016=XUO$LOGBLK File=XUO$BUILD.:E05TSI                             WED 07/30/97 09:32 Page:429
             11376    1   /*******************************************************************************
             11377    1   *                                                                              *
             11378    1   *        LOGBLK NOAUTO              LOGBLK NOAUTO                                  *
             11379    1   *                                                                              *
             11380    1   *******************************************************************************/

     3806    11384         /**/
     3807    11385    1   XUO$LOGBLKNOAUTO: ENTRY (P_LOGBLK_NUMBER,P_PARAM2,P_PARAM3) ALTRET;
     3808    11386         /*
     3809    11387         The following section fills in the static auto pointer
     3810    11388         */
     3811    11389    1       B$LBNTRY0.NO_AUTO.OPNDTYP=P_OPNDTYP;
     3812    11390    1       B$LBNTRY0.NO_AUTO.OPERAND=P_OPERAND;
     3813    11391    1       B$LBNTRY0.NO_AUTO.OFFSET=P_OFFSET;
     3814    11392    1       RETURN;
     3815    11393
     3816    11394    1   END XUO$LOGBLK;
     3817    11395        %EOD;

PL6.E3A0      #016=XUO$LOGBLK File=XUO$BUILD.:E05TSI                             WED 07/30/97 09:32 Page:430
--  Include file information  --

   XUO$OBJ_C.:E05TOU  is referenced.
   B$OBJECT_C.:E05TOU  is referenced.
   CP_6_SUBS.:E05TOU  is referenced.
   CP_6_C.:E05TOU  is referenced.
   CP_6.:E05TOU  cannot be made into a system file and is referenced.
   ZVA_FLAGS.:TOOLE04  is referenced.
   ZVA_SYSTEM_FILE.:TOOLE04  is referenced.
      No diagnostics issued in procedure XUO$LOGBLK.

   Procedure XUO$LOGBLK requires 164 words for executable code.
   Procedure XUO$LOGBLK requires 12 words of local(AUTO) storage.

PL6.E3A0      #016=XUO$LOGBLK File=XUO$BUILD.:E05TSI                             WED 07/30/97 09:32 Page:431

 Object Unit name= XUO$LOGBLK                                 File name= XUO$BUILD.:E05TOU
 UTS= JUL 30 '97 09:32:06.00 WED                              Compiler= PL-6/E31         Sev=      00
 SharedLib= :SHARED_SYSTEM                                    Alt SharedLib=


    ****  Control sections  ****

 Sect   Type Bound  Init  Size OctSiz  Section name(segment info)
    0   DCB   even  none     0      0  M$UC
    1   Proc  even  none   164    244  XUO$LOGBLK

    ****  Entry defs  ****

                              Check   Calling
                             calling  sequence
  Sect OctLoc Primary Altret sequence   type   Parms  Name
     1      0   yes    yes     yes      Std        5  XUO$LOGBLK
     1      3          yes     yes      Std        1  XUO$LOGBLKALLOC
     1     21          yes     yes      Std        5  XUO$LOGBLKEXSTINIT
     1     54          yes     yes      Std        3  XUO$LOGBLKEXSTTERM
     1    105          yes     yes      Std        2  XUO$LOGBLKVREBLINIT
     1    127          yes     yes      Std        2  XUO$LOGBLKVREBLTERM
     1    155          yes     yes      Std        0  XUO$LOGBLKTERM
     1    223          yes     yes      Std        3  XUO$LOGBLKNOAUTO

  ****  Entry refs  ****

         Check        Calling
        calling       sequence
Altret sequence SRef   type   Args  Name
                       nStd      0 X66_AUTO_5
                       Std       0 B_CONSPOOL_D
                       nStd      0 X66_ARET
                       nStd      0 X66_AALT
PL6.E3A0      #016=XUO$LOGBLK File=XUO$BUILD.:E05TSI                             WED 07/30/97 09:32 Page:432

  ****  Data refs  ****

  Flags:  r = read only, s = secondary
Flgs Name                             Flgs Name                             Flgs Name
     M$UC                                  B_LOGBLK_BASE$                        B_LOGBLK_ENTRY0$
     B_LOGBLK_ENTRY1$                      B_LOGBLK_CUR$                         B_LOGBLK_END$
     B_LOGBLK_COUNT                        B_DBGNAME_COUNT                       B_DBGNAME_PAGE_SIZE
     B_EXST_COUNT                          B_EXST_PAGE_SIZE                      B_VREBL_COUNT
     B_VREBL_PAGE_SIZE                     B_INTNTRY_COUNT                       B_INTNTRY_PAGE_SIZE
     XUO_COMPILER_ID                       XUO_VERSION_NUMBER                    XUO_OU_UTS
     B_VECTNIL
PL6.E3A0      #016=XUO$LOGBLK File=XUO$BUILD.:E05TSI                             WED 07/30/97 09:32 Page:433


     3360        1        /*M*     XUO$LOGBLK - THIS MODULE CONTAINS ROUTINES THAT BUILD LOGICAL BLOCK RECORD
                 1        */
     3361        2        /*T***********************************************************/
     3362        3        /*T*                                                         */
     3363        4        /*T* Copyright (c) Bull HN Information Systems Inc., 1997    */
     3364        5        /*T*                                                         */
     3365        6        /*T***********************************************************/
     3366        7        /*P*
     3367        8
     3368        9               NAME:  XUO$LOGBLK
     3369       10               PURPOSE: This module contains the 6 entry points that are
     3370       11                        used to build a complete logical block record.
     3371       12
     3372       13                        XUO$LOGBLK is never called.
     3373       14        */
     3374       15        /*D*
     3375       16
     3376       17        XUO$LOGBLKALLOC --Logical Block Debug Records (Record Type 11)
     3377       18
     3378       19        NAME:  XUO$LOGBLKALLOC
     3379       20
     3380       21        PURPOSE:  Used in building Logical Block Debug Records
     3381       22
     3382       23        DESCRIPTION:  This routine is used in building Logical Block
     3383       24            Debug Records.  It must be called before any other of the
     3384       25            logical block creation routines are called.  It need not
     3385       26            be called before XUO$LOGBLKTERM, the termination routine.
     3386       27            This routine allocates a Logical Block entry.  If one is
     3387       28            not available it will altreturn.
     3388       29
     3389       30        CALL:  CALL XUO$LOGBLKALLOC(Logical Block Number)
     3390       31                  ALTRETURN (Label)
     3391       32
     3392       33        INPUT:
     3393       34            none
     3394       35
PL6.E3A0      #016=XUO$LOGBLK File=XUO$BUILD.:E05TSI                             WED 07/30/97 09:32 Page:434
     3395       36        OUTPUT:
     3396       37            Logical Block Number UBIN ALIGNED
     3397       38                                The entry number into the logical
     3398       39                                block debug record.
     3399       40
     3400       41        B$OBJECT REFERENCE:  B$LOGBLK
     3401       42        */
     3402       43
     3403       44        /*B*
     3404       45
     3405       46        GLOBAL DATA:
     3406       47             B_LOGBLK_COUNT
     3407       48
     3408       49        INTERFACE:  none
     3409       50
     3410       51        */
     3411       52
     3412       53        XUO$LOGBLK: PROC (P_LOGBLK_NUMBER,P_PARAM2,P_PARAM3,P_NAME_POINTER,P_LEXICAL_LEVEL)
                53            ALTRET;

     53  1 000000   000000 700200 xent  XUO$LOGBLK   TSX0  ! X66_AUTO_5
         1 000001   000014 000005                    ZERO    12,5
         1 000002   000005 710000 1                  TRA     s:10962

     3413       54         /*
     3414       55            */
     3415       56        %INCLUDE ZVA_SYSTEM_FILE;
     3416     6307        %PAGE (ARG=INCLUDES);

              6320    1   /*******************************************************************************
              6321    1   *                                                                              *
              6322    1   *        INCLUDES              INCLUDES                                           *
              6323    1   *                                                                              *
              6324    1   *******************************************************************************/

     3417     6328        %INCLUDE B$OBJECT_C;
     3418     9758        %INCLUDE XUO$OBJ_C;
PL6.E3A0      #016=XUO$LOGBLK File=XUO$BUILD.:E05TSI                             WED 07/30/97 09:32 Page:435
     3419    10168        %PAGE (ARG=SUBS);

             10181    1   /*******************************************************************************
             10182    1   *                                                                              *
             10183    1   *        SUBS              SUBS                                                  *
             10184    1   *                                                                              *
             10185    1   *******************************************************************************/

     3420    10189        %COMPILERIDSUBS;
     3421    10205        %PAGE (ARG=PARAMETERS);

             10218    1   /*******************************************************************************
             10219    1   *                                                                              *
             10220    1   *        PARAMETERS              PARAMETERS                                       *
             10221    1   *                                                                              *
             10222    1   *******************************************************************************/

     3422    10226    1   DCL P_LOGBLK_NUMBER UBIN;
     3423    10227         /*
     3424    10228         The following definition is for logblknoauto
     3425    10229         */
     3426    10230    1   DCL P_OPNDTYP REDEF P_LOGBLK_NUMBER UBIN;
     3427    10231
     3428    10232    1   DCL P_PARAM2 UBIN;
     3429    10233         /*
     3430    10234         The following defintion is for logblkexstinit.
     3431    10235         */
     3432    10236    1   DCL P_STARTING_EXST_NUMBER REDEF P_PARAM2 UBIN;
     3433    10237         /*
     3434    10238         The following definition is for logblkexstterm.
     3435    10239         -1  -> that there are no exst entries
     3436    10240         */
     3437    10241    1   DCL P_ENDING_EXST_NUMBER REDEF P_PARAM2 SBIN;
     3438    10242         /*
     3439    10243         The following defintion is for logblkvreblinit.
     3440    10244         */
     3441    10245    1   DCL P_STARTING_VREBL_NUMBER REDEF P_PARAM2 UBIN;
PL6.E3A0      #016=XUO$LOGBLK File=XUO$BUILD.:E05TSI                             WED 07/30/97 09:32 Page:436
     3442    10246         /*
     3443    10247         The following defintion is for logblkvreblterm.
     3444    10248         -1  -> that there are no vrebl entries
     3445    10249         */
     3446    10250    1   DCL P_ENDING_VREBL_NUMBER REDEF P_PARAM2 SBIN;
     3447    10251         /*
     3448    10252         The following definition is for logblknoauto
     3449    10253         */
     3450    10254    1   DCL P_OPERAND REDEF P_PARAM2 UBIN;
     3451    10255         /*
     3452    10256            */
     3453    10257    1   DCL P_PARAM3 UBIN;
     3454    10258         /*
     3455    10259         The following defintion is for XUO$LOGBLKEXSTINIT.
     3456    10260         */
     3457    10261    1   DCL P_STARTING_LINE_NUMBER REDEF P_PARAM3 UBIN;
     3458    10262         /*
     3459    10263         The following definition is for XUO$LOGBLKEXSTTERM.
     3460    10264         */
     3461    10265    1   DCL P_ENDING_LINE_NUMBER REDEF P_PARAM3 UBIN;
     3462    10266         /*
     3463    10267         The following definition is for logblknoauto
     3464    10268         */
     3465    10269    1   DCL P_OFFSET REDEF P_PARAM3 UBIN;
     3466    10270
     3467    10271    1   DCL P_NAME_POINTER SBIN;
     3468    10272    1   DCL P_LEXICAL_LEVEL UBIN;
     3469    10273        %PAGE (ARG=LOGBLK DATA);

             10286    1   /*******************************************************************************
             10287    1   *                                                                              *
             10288    1   *        LOGBLK DATA              LOGBLK DATA                                     *
             10289    1   *                                                                              *
             10290    1   *******************************************************************************/

     3470    10294        %B$LBNTRY0 (STCLASS="BASED(B_LOGBLK_ENTRY0$)");
     3471    10330        %B$LBNTRY1 (STCLASS="BASED(B_LOGBLK_ENTRY1$)");
PL6.E3A0      #016=XUO$LOGBLK File=XUO$BUILD.:E05TSI                             WED 07/30/97 09:32 Page:437
     3472    10357        %B$LOGBLK (STCLASS="BASED(LOGBLK_TEMP$)");
     3473    10388        %B_LOGBLK_POINTERS;
     3474    10410        %PLIST;
     3475    10411        %PAGE (ARG=DBGNAME DATA);

             10424    1   /*******************************************************************************
             10425    1   *                                                                              *
             10426    1   *        DBGNAME DATA              DBGNAME DATA                                   *
             10427    1   *                                                                              *
             10428    1   *******************************************************************************/

     3476    10432        %B_DBGNAME_POINTERS;
     3477    10452        %PLIST;
     3478    10453        %PAGE (ARG=EXST DATA);

             10466    1   /*******************************************************************************
             10467    1   *                                                                              *
             10468    1   *        EXST DATA              EXST DATA                                         *
             10469    1   *                                                                              *
             10470    1   *******************************************************************************/

     3479    10474        %B$EXST;
     3480    10581        %B_EXST_POINTERS;
     3481    10601        %PLIST;
     3482    10602        %PAGE (ARG=VREBL DATA);

             10615    1   /*******************************************************************************
             10616    1   *                                                                              *
             10617    1   *        VREBL DATA              VREBL DATA                                       *
             10618    1   *                                                                              *
             10619    1   *******************************************************************************/

     3483    10623        %B$VREBL;
     3484    10787        %B_VREBL_POINTERS;
     3485    10807        %PLIST;
     3486    10808        %PAGE (ARG=INTNTRY DATA);

PL6.E3A0      #016=XUO$LOGBLK File=XUO$BUILD.:E05TSI                             WED 07/30/97 09:32 Page:438
             10821    1   /*******************************************************************************
             10822    1   *                                                                              *
             10823    1   *        INTNTRY DATA              INTNTRY DATA                                   *
             10824    1   *                                                                              *
             10825    1   *******************************************************************************/

     3487    10829        %B$INTNTRY;
     3488    10887        %B_INTNTRY_POINTERS;
     3489    10907        %PLIST;
     3490    10908        %PAGE (ARG=MISC DATA);

             10921    1   /*******************************************************************************
             10922    1   *                                                                              *
             10923    1   *        MISC DATA              MISC DATA                                         *
             10924    1   *                                                                              *
             10925    1   *******************************************************************************/

     3491    10929    1   DCL XUO_COMPILER_ID SYMREF UBIN;
     3492    10930    1   DCL 1 XUO_VERSION_NUMBER SYMREF,
     3493    10931    1         2 LETTER CHAR(1) UNAL,
     3494    10932    1         2 NUMBER UBIN(9) UNAL;
     3495    10933    1   DCL XUO_OU_UTS SYMREF UBIN;
     3496    10934    1   DCL LOGBLK_TEMP$ PTR;
     3497    10935        %PAGE (ARG=XUO$LOGBLKALLOC);

             10948    1   /*******************************************************************************
             10949    1   *                                                                              *
             10950    1   *        XUO$LOGBLKALLOC              XUO$LOGBLKALLOC                             *
             10951    1   *                                                                              *
             10952    1   *******************************************************************************/

     3498    10956    1   XUO$LOGBLKALLOC: ENTRY (P_LOGBLK_NUMBER) ALTRET;

  10956  1 000003   000000 700200 xent  XUO$LOGBLKA* TSX0  ! X66_AUTO_5
         1 000004   000014 000005                    ZERO    12,5

     3499    10957         /*
PL6.E3A0      #016=XUO$LOGBLK File=XUO$BUILD.:E05TSI                             WED 07/30/97 09:32 Page:439
     3500    10958         The following section will allocate another logical block.  If no more
     3501    10959         available and altret will be taken.  The entry number for the allocated block is
     3502    10960         returned.
     3503    10961         */
     3504    10962    1       IF B_LOGBLK_CUR$<B_LOGBLK_END$ THEN

  10962  1 000005   000000 236000 xsym               LDQ     B_LOGBLK_CUR$
         1 000006   000000 116000 xsym               CMPQ    B_LOGBLK_END$
         1 000007   000020 603000 1                  TRC     s:10972

     3505    10963    2       DO;

     3506    10964    2           B_LOGBLK_COUNT=B_LOGBLK_COUNT+1;

  10964  1 000010   000000 054000 xsym               AOS     B_LOGBLK_COUNT

     3507    10965    2           P_LOGBLK_NUMBER=B_LOGBLK_COUNT;

  10965  1 000011   000000 235000 xsym               LDA     B_LOGBLK_COUNT
         1 000012   200003 470500                    LDP0    @P_LOGBLK_NUMBER,,AUTO
         1 000013   000000 755100                    STA     0,,PR0

     3508    10966    2           B_LOGBLK_CUR$=PINCRW(B_LOGBLK_CUR$,SIZEW(B$LOGBLK));

  10966  1 000014   000000 236000 xsym               LDQ     B_LOGBLK_CUR$
         1 000015   000004 036003                    ADLQ    4,DU
         1 000016   000000 756000 xsym               STQ     B_LOGBLK_CUR$

     3509    10967    2           RETURN;

  10967  1 000017   000000 702200 xent               TSX2  ! X66_ARET

     3510    10968    2           END;
     3511    10969         /*
     3512    10970         The following gives an error if cant allocate any more logcial blocks.
     3513    10971         */
     3514    10972    1       ALTRETURN;
PL6.E3A0      #016=XUO$LOGBLK File=XUO$BUILD.:E05TSI                             WED 07/30/97 09:32 Page:440

  10972  1 000020   000000 702200 xent               TSX2  ! X66_AALT

     3515    10973            %PAGE (ARG=XUO$LOGBLKEXSTINIT);

             10986    1   /*******************************************************************************
             10987    1   *                                                                              *
             10988    1   *        XUO$LOGBLKEXSTINIT              XUO$LOGBLKEXSTINIT                       *
             10989    1   *                                                                              *
             10990    1   *******************************************************************************/

     3516    10994        /*D*
     3517    10995
     3518    10996        XUO$LOGBLKEXSTINIT --Logical Block Debug Records (Record Type 11)
     3519    10997
     3520    10998        NAME:  XUO$LOGBLKEXSTINIT
     3521    10999
     3522    11000        PURPOSE:  To build Logical Block Debug Records
     3523    11001
     3524    11002        DESCRIPTION:  This routine is used in building Logical Block
     3525    11003            Debug records.  It fills in initial data that relates to
     3526    11004            the executable information.  The routine altreturns if
     3527    11005            the logical block number is invalid.
     3528    11006
     3529    11007        CALL:  CALL XUO$LOGBLKEXSTINIT (Logical Block Number,
     3530    11008                                 Starting executable statement number,
     3531    11009                                 Starting line number,
     3532    11010                                 Name Pointer,
     3533    11011                                 Lexical Level)
     3534    11012
     3535    11013        INPUT:
     3536    11014            Logical Block Number UBIN
     3537    11015                                The number returned by the call to
     3538    11016                                XUO$LOGBLKALLOC.
     3539    11017            Starting executable statement number  UBIN
     3540    11018                                The word offset into the statement
     3541    11019                                record (type 13) to the statement
PL6.E3A0      #016=XUO$LOGBLK File=XUO$BUILD.:E05TSI                             WED 07/30/97 09:32 Page:441
     3542    11020                                descriptions for this logical block.
     3543    11021                                It is the starting number of the first
     3544    11022                                executable statement of the block.
     3545    11023            Starting Line number UBIN
     3546    11024                                The beginning line number of this
     3547    11025                                logical block.
     3548    11026            Name Pointer        SBIN
     3549    11027                                The word displacement into the debug
     3550    11028                                name record (type 15) locating the
     3551    11029                                name of this logical block.
     3552    11030            Lexical Level       UBIN
     3553    11031                                The nesting level of the block.
     3554    11032                                A contained procedure has a higher
     3555    11033                                lexical level than the procedure which
     3556    11034                                contains it.
     3557    11035
     3558    11036        OUTPUT:
     3559    11037            Updated logical block record
     3560    11038
     3561    11039        B$OBJECT REFERENCE:  B$LOGBLK
     3562    11040        */
     3563    11041        /*B*
     3564    11042
     3565    11043        GLOBAL DATA:  none
     3566    11044
     3567    11045        INTERFACE:  none
     3568    11046
     3569    11047        */
     3570    11048
     3571    11049    1   XUO$LOGBLKEXSTINIT: ENTRY(P_LOGBLK_NUMBER,P_PARAM2,P_PARAM3,P_NAME_POINTER,
             11049            P_LEXICAL_LEVEL) ALTRET;

  11049  1 000021   000000 700200 xent  XUO$LOGBLKE* TSX0  ! X66_AUTO_5
         1 000022   000014 000005                    ZERO    12,5

     3572    11050         /*
     3573    11051         The following section will verify the logblk number to insure that it is valid.
PL6.E3A0      #016=XUO$LOGBLK File=XUO$BUILD.:E05TSI                             WED 07/30/97 09:32 Page:442
     3574    11052         If not, an altreturn will be taken.
     3575    11053         */
     3576    11054    1       LOGBLK_TEMP$=PINCRW(B_LOGBLK_BASE$,P_LOGBLK_NUMBER*SIZEW(B$LOGBLK));

  11054  1 000023   200003 470500                    LDP0    @P_LOGBLK_NUMBER,,AUTO
         1 000024   000000 720100                    LXL0    0,,PR0
         1 000025   000000 636010                    EAQ     0,X0
         1 000026   000002 736000                    QLS     2
         1 000027   000000 036000 xsym               ADLQ    B_LOGBLK_BASE$
         1 000030   200010 756100                    STQ     LOGBLK_TEMP$,,AUTO

     3577    11055    1       IF LOGBLK_TEMP$>=B_LOGBLK_CUR$ THEN

  11055  1 000031   000000 116000 xsym               CMPQ    B_LOGBLK_CUR$
         1 000032   000034 602000 1                  TNC     s:11060

     3578    11056    1           ALTRETURN;

  11056  1 000033   000000 702200 xent               TSX2  ! X66_AALT

     3579    11057         /*
     3580    11058         The following section will partially fill in the exst portion of logblk.
     3581    11059         */
     3582    11060    1       B$LOGBLK.STLINE=P_STARTING_LINE_NUMBER;

  11060  1 000034   200005 471500                    LDP1    @P_PARAM3,,AUTO
         1 000035   100000 721100                    LXL1    0,,PR1
         1 000036   200010 473500                    LDP3    LOGBLK_TEMP$,,AUTO
         1 000037   300000 741100                    STX1    0,,PR3

     3583    11061    1       B$LOGBLK.NPOINTER=P_NAME_POINTER;

  11061  1 000040   200006 474500                    LDP4    @P_NAME_POINTER,,AUTO
         1 000041   400000 720100                    LXL0    0,,PR4
         1 000042   300001 740100                    STX0    1,,PR3

     3584    11062    1       B$LOGBLK.LEXLVL=P_LEXICAL_LEVEL;
PL6.E3A0      #016=XUO$LOGBLK File=XUO$BUILD.:E05TSI                             WED 07/30/97 09:32 Page:443

  11062  1 000043   200007 475500                    LDP5    @P_LEXICAL_LEVEL,,AUTO
         1 000044   500000 236100                    LDQ     0,,PR5
         1 000045   300001 552104                    STBQ    1,'04'O,PR3

     3585    11063    1       B$LOGBLK.STOFFST=P_STARTING_EXST_NUMBER*SIZEW(B$EXST);

  11063  1 000046   200004 476500                    LDP6    @P_PARAM2,,AUTO
         1 000047   600000 236100                    LDQ     0,,PR6
         1 000050   000003 402007                    MPY     3,DL
         1 000051   000000 620006                    EAX0    0,QL
         1 000052   300002 740100                    STX0    2,,PR3

     3586    11064    1       RETURN;

  11064  1 000053   000000 702200 xent               TSX2  ! X66_ARET

     3587    11065            %PAGE (ARG=XUO$LOGBLKEXSTTERM);

             11078    1   /*******************************************************************************
             11079    1   *                                                                              *
             11080    1   *        XUO$LOGBLKEXSTTERM              XUO$LOGBLKEXSTTERM                       *
             11081    1   *                                                                              *
             11082    1   *******************************************************************************/

     3588    11086        /*D*
     3589    11087
     3590    11088        XUO$LOGBLKEXSTTERM --Logical Block Debug Record (Record Type 11)
     3591    11089
     3592    11090        NAME:  XUO$LOGBLKEXSTTERM
     3593    11091
     3594    11092        PURPOSE:  To finish building the Logical Block Debug Record
     3595    11093
     3596    11094        DESCRIPTION:  This routine finishes setting up of the executable
     3597    11095            statement information in the Logical Block entry.  If the
     3598    11096            logical block number passed to it is not invalid, this
     3599    11097            routine will altreturn.
PL6.E3A0      #016=XUO$LOGBLK File=XUO$BUILD.:E05TSI                             WED 07/30/97 09:32 Page:444
     3600    11098
     3601    11099        CALL:  CALL XUO$LOGBLKEXSTTERM (Logical Block Number,
     3602    11100                                 Ending Executable Statement Number,
     3603    11101                                 Ending Line Number)
     3604    11102                      ALTRETURN (Label)
     3605    11103
     3606    11104        INPUT:
     3607    11105            Logical Block Number UBIN
     3608    11106                                The logical block number returned from
     3609    11107                                the call to XUO$LOGBLKALLOC.
     3610    11108            Ending Executable Statement Number  SBIN
     3611    11109                                This is the size in entries of the
     3612    11110                                statement descriptions for this logical
     3613    11111                                block.  It is used to calculate the
     3614    11112                                statements offset.
     3615    11113            Ending Line Number  UBIN
     3616    11114                                The ending line number for this logical
     3617    11115                                block.
     3618    11116        OUTPUT:
     3619    11117            Updated logical block record
     3620    11118
     3621    11119        B$OBJECT REFERENCE:  B$LOGBLK
     3622    11120        */
     3623    11121        /*B*
     3624    11122
     3625    11123        GLOBAL DATA:  none
     3626    11124
     3627    11125        INTERFACE:  none
     3628    11126
     3629    11127        */
     3630    11128
     3631    11129    1   XUO$LOGBLKEXSTTERM: ENTRY (P_LOGBLK_NUMBER,P_PARAM2,P_PARAM3) ALTRET;

  11129  1 000054   000000 700200 xent  XUO$LOGBLKE* TSX0  ! X66_AUTO_5
         1 000055   000014 000005                    ZERO    12,5

     3632    11130         /*
PL6.E3A0      #016=XUO$LOGBLK File=XUO$BUILD.:E05TSI                             WED 07/30/97 09:32 Page:445
     3633    11131         The following section will verify the logblk number.  If not valid, an
     3634    11132         altreturn will be taken.
     3635    11133         */
     3636    11134    1       LOGBLK_TEMP$=PINCRW(B_LOGBLK_BASE$,P_LOGBLK_NUMBER*SIZEW(B$LOGBLK));

  11134  1 000056   200003 470500                    LDP0    @P_LOGBLK_NUMBER,,AUTO
         1 000057   000000 720100                    LXL0    0,,PR0
         1 000060   000000 636010                    EAQ     0,X0
         1 000061   000002 736000                    QLS     2
         1 000062   000000 036000 xsym               ADLQ    B_LOGBLK_BASE$
         1 000063   200010 756100                    STQ     LOGBLK_TEMP$,,AUTO

     3637    11135    1       IF LOGBLK_TEMP$>=B_LOGBLK_CUR$ THEN

  11135  1 000064   000000 116000 xsym               CMPQ    B_LOGBLK_CUR$
         1 000065   000067 602000 1                  TNC     s:11141

     3638    11136    1           ALTRETURN;

  11136  1 000066   000000 702200 xent               TSX2  ! X66_AALT

     3639    11137         /*
     3640    11138         The following section will fill in the final portion of the
     3641    11139         exst part of the logcial block entry.
     3642    11140         */
     3643    11141    1       B$LOGBLK.ENLINE=P_ENDING_LINE_NUMBER;

  11141  1 000067   200005 471500                    LDP1    @P_PARAM3,,AUTO
         1 000070   100000 721100                    LXL1    0,,PR1
         1 000071   200010 473500                    LDP3    LOGBLK_TEMP$,,AUTO
         1 000072   300000 441100                    SXL1    0,,PR3

     3644    11142    1       B$LOGBLK.STSIZE=P_ENDING_EXST_NUMBER-B$LOGBLK.STOFFST/SIZEW(B$EXST);

  11142  1 000073   300002 236100                    LDQ     2,,PR3
         1 000074   000022 772000                    QRL     18
         1 000075   000003 506007                    DIV     3,DL
PL6.E3A0      #016=XUO$LOGBLK File=XUO$BUILD.:E05TSI                             WED 07/30/97 09:32 Page:446
         1 000076   200012 756100                    STQ     LOGBLK_TEMP$+2,,AUTO
         1 000077   200004 474500                    LDP4    @P_PARAM2,,AUTO
         1 000100   400000 236100                    LDQ     0,,PR4
         1 000101   200012 136100                    SBLQ    LOGBLK_TEMP$+2,,AUTO
         1 000102   000000 620006                    EAX0    0,QL
         1 000103   300002 440100                    SXL0    2,,PR3

     3645    11143    1       RETURN;

  11143  1 000104   000000 702200 xent               TSX2  ! X66_ARET

     3646    11144            %PAGE (ARG=XUO$LOGBLKVREBLINIT);

             11157    1   /*******************************************************************************
             11158    1   *                                                                              *
             11159    1   *        XUO$LOGBLKVREBLINIT              XUO$LOGBLKVREBLINIT                     *
             11160    1   *                                                                              *
             11161    1   *******************************************************************************/

     3647    11165        /*D*
     3648    11166        XUO$LOGBLKVREBLINIT --Logical Block Debug Record (Record Type 11)
     3649    11167
     3650    11168        NAME:  XUO$LOGBLKVREBLINIT
     3651    11169
     3652    11170        PURPOSE:  Used in building the Logical Block Debug Records
     3653    11171                  (Record Type 11)
     3654    11172
     3655    11173        DESCRIPTION:  This routine fills in the initial data that
     3656    11174            relates to the variable records in the Logical Block
     3657    11175            Entry.  If the logical block number passed in is
     3658    11176            invalid, this routine will altreturn.
     3659    11177
     3660    11178        CALL:  CALL XUO$LOGBLKVREBLINIT (Logical Block Number,
     3661    11179                                  Starting Variable Number)
     3662    11180                       ALTRETURN (Label)
     3663    11181
     3664    11182        INPUT:
PL6.E3A0      #016=XUO$LOGBLK File=XUO$BUILD.:E05TSI                             WED 07/30/97 09:32 Page:447
     3665    11183            Logical Block Number UBIN
     3666    11184                                The logical block number returned from
     3667    11185                                the call to XUO$LOGBLKALLOC.
     3668    11186            Starting Variable Number  UBIN
     3669    11187                                The word offset into the variable record
     3670    11188                                (type 14) to the variable descriptions
     3671    11189                                for this logical block.
     3672    11190        OUTPUT:
     3673    11191            Updated logical block record
     3674    11192
     3675    11193        B$OBJECT REFERENCE:  B$LOGBLK
     3676    11194        */
     3677    11195        /*B*
     3678    11196
     3679    11197        GLOBAL DATA:  none
     3680    11198
     3681    11199        INTERFACE:  none
     3682    11200
     3683    11201        */
     3684    11202
     3685    11203    1   XUO$LOGBLKVREBLINIT: ENTRY (P_LOGBLK_NUMBER,P_PARAM2) ALTRET;

  11203  1 000105   000000 700200 xent  XUO$LOGBLKV* TSX0  ! X66_AUTO_5
         1 000106   000014 000005                    ZERO    12,5

     3686    11204         /*
     3687    11205         The following section will verify the logblk number.  If not valid, an
     3688    11206         altreturn will be taken.
     3689    11207         */
     3690    11208    1       LOGBLK_TEMP$=PINCRW(B_LOGBLK_BASE$,P_LOGBLK_NUMBER*SIZEW(B$LOGBLK));

  11208  1 000107   200003 470500                    LDP0    @P_LOGBLK_NUMBER,,AUTO
         1 000110   000000 720100                    LXL0    0,,PR0
         1 000111   000000 636010                    EAQ     0,X0
         1 000112   000002 736000                    QLS     2
         1 000113   000000 036000 xsym               ADLQ    B_LOGBLK_BASE$
         1 000114   200010 756100                    STQ     LOGBLK_TEMP$,,AUTO
PL6.E3A0      #016=XUO$LOGBLK File=XUO$BUILD.:E05TSI                             WED 07/30/97 09:32 Page:448

     3691    11209    1       IF LOGBLK_TEMP$>=B_LOGBLK_CUR$ THEN

  11209  1 000115   000000 116000 xsym               CMPQ    B_LOGBLK_CUR$
         1 000116   000120 602000 1                  TNC     s:11215

     3692    11210    1           ALTRETURN;

  11210  1 000117   000000 702200 xent               TSX2  ! X66_AALT

     3693    11211         /*
     3694    11212         The following section will partially fill in the vrebl part of the logical block
     3695    11213         entry.
     3696    11214         */
     3697    11215    1       B$LOGBLK.VAOFFST=P_STARTING_VREBL_NUMBER*SIZEW(B$VREBL);

  11215  1 000120   200004 471500                    LDP1    @P_PARAM2,,AUTO
         1 000121   100000 236100                    LDQ     0,,PR1
         1 000122   000005 402007                    MPY     5,DL
         1 000123   000000 621006                    EAX1    0,QL
         1 000124   200010 473500                    LDP3    LOGBLK_TEMP$,,AUTO
         1 000125   300003 741100                    STX1    3,,PR3

     3698    11216    1       RETURN;

  11216  1 000126   000000 702200 xent               TSX2  ! X66_ARET

     3699    11217            %PAGE (ARG=XUO$LOGBLKVREBLTERM);

             11230    1   /*******************************************************************************
             11231    1   *                                                                              *
             11232    1   *        XUO$LOGBLKVREBLTERM              XUO$LOGBLKVREBLTERM                     *
             11233    1   *                                                                              *
             11234    1   *******************************************************************************/

     3700    11238        /*D*
     3701    11239        XUO$LOGBLKVREBLTERM --Logical Block Debug Record (Record Type 11)
PL6.E3A0      #016=XUO$LOGBLK File=XUO$BUILD.:E05TSI                             WED 07/30/97 09:32 Page:449
     3702    11240
     3703    11241        NAME:  XUO$LOGBLKVREBLTERM
     3704    11242
     3705    11243        PURPOSE:  Used in building Logical Block Debug Records
     3706    11244                  (Record type 11)
     3707    11245
     3708    11246        DESCRIPTION:  This routine is used in building Logical Block
     3709    11247            Debug Records.  It finishes setting up the variable data
     3710    11248            information in the Logical Block entry.  If the logical
     3711    11249            block number passed is invalid, this routing will altreturn.
     3712    11250
     3713    11251        CALL:  CALL XUO$LOGBLKVREBLTERM (Logical Block Number,
     3714    11252                                  Ending Variable Number)
     3715    11253                       ALTRETURN (Label)
     3716    11254
     3717    11255        INPUT:
     3718    11256            Logical Block Number UBIN
     3719    11257                                The logical block number that is
     3720    11258                                returned from the call to XUO$LOGBLKALLOC.
     3721    11259            Ending Variable Number SBIN
     3722    11260                                The index number of the last variable
     3723    11261                                (type 14) for this logical block.
     3724    11262                                It is used to calculate the variable size.
     3725    11263        OUTPUT:
     3726    11264            Updated logical block record
     3727    11265
     3728    11266        B$OBJECT REFERENCE:  B$LOGBLK
     3729    11267        */
     3730    11268        /*B*
     3731    11269
     3732    11270        GLOBAL DATA:  none
     3733    11271
     3734    11272        INTERFACE:  none
     3735    11273
     3736    11274        */
     3737    11275
     3738    11276    1   XUO$LOGBLKVREBLTERM: ENTRY (P_LOGBLK_NUMBER,P_PARAM2) ALTRET;
PL6.E3A0      #016=XUO$LOGBLK File=XUO$BUILD.:E05TSI                             WED 07/30/97 09:32 Page:450

  11276  1 000127   000000 700200 xent  XUO$LOGBLKV* TSX0  ! X66_AUTO_5
         1 000130   000014 000005                    ZERO    12,5

     3739    11277         /*
     3740    11278         The following section will verify the logblk number.  If not valid, an
     3741    11279         altreturn will be taken.
     3742    11280         */
     3743    11281    1       LOGBLK_TEMP$=PINCRW(B_LOGBLK_BASE$,P_LOGBLK_NUMBER*SIZEW(B$LOGBLK));

  11281  1 000131   200003 470500                    LDP0    @P_LOGBLK_NUMBER,,AUTO
         1 000132   000000 720100                    LXL0    0,,PR0
         1 000133   000000 636010                    EAQ     0,X0
         1 000134   000002 736000                    QLS     2
         1 000135   000000 036000 xsym               ADLQ    B_LOGBLK_BASE$
         1 000136   200010 756100                    STQ     LOGBLK_TEMP$,,AUTO

     3744    11282    1       IF LOGBLK_TEMP$>=B_LOGBLK_CUR$ THEN

  11282  1 000137   000000 116000 xsym               CMPQ    B_LOGBLK_CUR$
         1 000140   000142 602000 1                  TNC     s:11288

     3745    11283    1           ALTRETURN;

  11283  1 000141   000000 702200 xent               TSX2  ! X66_AALT

     3746    11284         /*
     3747    11285         The following section will partially fill in the vrebl part of the logical block
     3748    11286         entry.
     3749    11287         */
     3750    11288    1       B$LOGBLK.VASIZE=P_ENDING_VREBL_NUMBER-B$LOGBLK.VAOFFST/SIZEW(B$VREBL);

  11288  1 000142   200010 471500                    LDP1    LOGBLK_TEMP$,,AUTO
         1 000143   100003 236100                    LDQ     3,,PR1
         1 000144   000022 772000                    QRL     18
         1 000145   000005 506007                    DIV     5,DL
         1 000146   200012 756100                    STQ     LOGBLK_TEMP$+2,,AUTO
PL6.E3A0      #016=XUO$LOGBLK File=XUO$BUILD.:E05TSI                             WED 07/30/97 09:32 Page:451
         1 000147   200004 473500                    LDP3    @P_PARAM2,,AUTO
         1 000150   300000 236100                    LDQ     0,,PR3
         1 000151   200012 136100                    SBLQ    LOGBLK_TEMP$+2,,AUTO
         1 000152   000000 620006                    EAX0    0,QL
         1 000153   100003 440100                    SXL0    3,,PR1

     3751    11289    1       RETURN;

  11289  1 000154   000000 702200 xent               TSX2  ! X66_ARET

     3752    11290            %PAGE (ARG=LOGBLK 0/1 CODE);

             11303    1   /*******************************************************************************
             11304    1   *                                                                              *
             11305    1   *        LOGBLK 0/1 CODE              LOGBLK 0/1 CODE                             *
             11306    1   *                                                                              *
             11307    1   *******************************************************************************/

     3753    11311        /*D*
     3754    11312
     3755    11313        XUO$LOGBLKTERM --Logical Block Debug Records (Record Type 11)
     3756    11314
     3757    11315        NAME:  XUO$LOGBLKTERM
     3758    11316
     3759    11317        PURPOSE:  Used in building Logical Block Debug Records
     3760    11318                  (Record Type 11)
     3761    11319
     3762    11320        DESCRIPTION:  This routine must only be called after all logical
     3763    11321            blocks have been filled in.  It sets up the two headers
     3764    11322            that describe the total sizes of the debug records.
     3765    11323
     3766    11324        CALL:  CALL XUO$LOGBLKTERM  ALTRET (Label)
     3767    11325
     3768    11326        INPUT:
     3769    11327            none
     3770    11328
     3771    11329        OUTPUT:
PL6.E3A0      #016=XUO$LOGBLK File=XUO$BUILD.:E05TSI                             WED 07/30/97 09:32 Page:452
     3772    11330            Updated logical block headers
     3773    11331
     3774    11332        B$OBJECT REFERENCE:  B$LBNTRY0, B$LBNTRY1
     3775    11333        */
     3776    11334        /*B*
     3777    11335
     3778    11336        GLOBAL DATA:  none
     3779    11337
     3780    11338        INTERFACE:  none
     3781    11339
     3782    11340        */
     3783    11341
     3784    11342
     3785    11343    1   XUO$LOGBLKTERM: ENTRY ALTRET;

  11343  1 000155   000000 700200 xent  XUO$LOGBLKT* TSX0  ! X66_AUTO_5
         1 000156   000014 000005                    ZERO    12,5

     3786    11344         /*
     3787    11345         The following section builds logical block entry number 0.
     3788    11346         */
     3789    11347    1       B$LBNTRY0.COMPILER=XUO_COMPILER_ID;

  11347  1 000157   000000 470400 xsym               LDP0    B_LOGBLK_ENTRY0$
         1 000160   000000 236000 xsym               LDQ     XUO_COMPILER_ID
         1 000161   000022 736000                    QLS     18
         1 000162   000000 552120                    STBQ    0,'20'O,PR0

     3790    11348    1       B$LBNTRY0.VERS=XUO_VERSION_NUMBER;

  11348  1 000163   000000 220000 xsym               LDX0    XUO_VERSION_NUMBER
         1 000164   000000 470400 xsym               LDP0    B_LOGBLK_ENTRY0$
         1 000165   000000 440100                    SXL0    0,,PR0

     3791    11349    1       B$LBNTRY0.UTS=XUO_OU_UTS;

  11349  1 000166   000000 470400 xsym               LDP0    B_LOGBLK_ENTRY0$
PL6.E3A0      #016=XUO$LOGBLK File=XUO$BUILD.:E05TSI                             WED 07/30/97 09:32 Page:453
         1 000167   000000 235000 xsym               LDA     XUO_OU_UTS
         1 000170   000001 755100                    STA     1,,PR0

     3792    11350         /*
     3793    11351         The following section builds logical block entry number 1.
     3794    11352         */
     3795    11353    1       B$LBNTRY1.NAMESIZ=B_DBGNAME_COUNT;

  11353  1 000171   000000 721000 xsym               LXL1    B_DBGNAME_COUNT
         1 000172   000000 471400 xsym               LDP1    B_LOGBLK_ENTRY1$
         1 000173   100000 741100                    STX1    0,,PR1

     3796    11354    1       B$LBNTRY1.NAMPSIZ=B_DBGNAME_PAGE_SIZE;

  11354  1 000174   000000 720000 xsym               LXL0    B_DBGNAME_PAGE_SIZE
         1 000175   000000 470400 xsym               LDP0    B_LOGBLK_ENTRY1$
         1 000176   000000 440100                    SXL0    0,,PR0

     3797    11355    1       B$LBNTRY1.STMNTSIZ=(B_EXST_COUNT+1)*SIZEW(B$EXST);

  11355  1 000177   000000 236000 xsym               LDQ     B_EXST_COUNT
         1 000200   000003 402007                    MPY     3,DL
         1 000201   000003 620006                    EAX0    3,QL
         1 000202   000000 470400 xsym               LDP0    B_LOGBLK_ENTRY1$
         1 000203   000001 740100                    STX0    1,,PR0

     3798    11356    1       B$LBNTRY1.STMNTPSIZ=B_EXST_PAGE_SIZE;

  11356  1 000204   000000 721000 xsym               LXL1    B_EXST_PAGE_SIZE
         1 000205   000001 441100                    SXL1    1,,PR0

     3799    11357    1       B$LBNTRY1.VREBLSIZ=(B_VREBL_COUNT+1)*SIZEW(B$VREBL);

  11357  1 000206   000000 236000 xsym               LDQ     B_VREBL_COUNT
         1 000207   000005 402007                    MPY     5,DL
         1 000210   000005 622006                    EAX2    5,QL
         1 000211   000002 742100                    STX2    2,,PR0
PL6.E3A0      #016=XUO$LOGBLK File=XUO$BUILD.:E05TSI                             WED 07/30/97 09:32 Page:454

     3800    11358    1       B$LBNTRY1.VREBLPSIZ=B_VREBL_PAGE_SIZE;

  11358  1 000212   000000 723000 xsym               LXL3    B_VREBL_PAGE_SIZE
         1 000213   000002 443100                    SXL3    2,,PR0

     3801    11359    1       B$LBNTRY1.INTRYSIZ=(B_INTNTRY_COUNT+1)*SIZEW(B$INTNTRY);

  11359  1 000214   000000 235000 xsym               LDA     B_INTNTRY_COUNT
         1 000215   000001 735000                    ALS     1
         1 000216   000002 624005                    EAX4    2,AL
         1 000217   000003 744100                    STX4    3,,PR0

     3802    11360    1       B$LBNTRY1.INTRYPSIZ=B_INTNTRY_PAGE_SIZE;

  11360  1 000220   000000 725000 xsym               LXL5    B_INTNTRY_PAGE_SIZE
         1 000221   000003 445100                    SXL5    3,,PR0

     3803    11361    1       RETURN;

  11361  1 000222   000000 702200 xent               TSX2  ! X66_ARET

     3804    11362
     3805    11363            %PAGE(ARG=LOGBLK NOAUTO);

             11376    1   /*******************************************************************************
             11377    1   *                                                                              *
             11378    1   *        LOGBLK NOAUTO              LOGBLK NOAUTO                                 *
             11379    1   *                                                                              *
             11380    1   *******************************************************************************/

     3806    11384         /**/
     3807    11385    1   XUO$LOGBLKNOAUTO: ENTRY (P_LOGBLK_NUMBER,P_PARAM2,P_PARAM3) ALTRET;

  11385  1 000223   000000 700200 xent  XUO$LOGBLKN* TSX0  ! X66_AUTO_5
         1 000224   000014 000005                    ZERO    12,5

PL6.E3A0      #016=XUO$LOGBLK File=XUO$BUILD.:E05TSI                             WED 07/30/97 09:32 Page:455
     3808    11386         /*
     3809    11387         The following section fills in the static auto pointer
     3810    11388         */
     3811    11389    1       B$LBNTRY0.NO_AUTO.OPNDTYP=P_OPNDTYP;

  11389  1 000225   200003 470500                    LDP0    @P_LOGBLK_NUMBER,,AUTO
         1 000226   000000 471400 xsym               LDP1    B_LOGBLK_ENTRY0$
         1 000227   000000 236100                    LDQ     0,,PR0
         1 000230   000040 736000                    QLS     32
         1 000231   100002 676100                    ERQ     2,,PR1
         1 000232   740000 376003                    ANQ     -16384,DU
         1 000233   100002 656100                    ERSQ    2,,PR1

     3812    11390    1       B$LBNTRY0.NO_AUTO.OPERAND=P_OPERAND;

  11390  1 000234   200004 473500                    LDP3    @P_PARAM2,,AUTO
         1 000235   300000 236100                    LDQ     0,,PR3
         1 000236   000022 736000                    QLS     18
         1 000237   100002 552120                    STBQ    2,'20'O,PR1

     3813    11391    1       B$LBNTRY0.NO_AUTO.OFFSET=P_OFFSET;

  11391  1 000240   200005 474500                    LDP4    @P_PARAM3,,AUTO
         1 000241   400000 720100                    LXL0    0,,PR4
         1 000242   100002 440100                    SXL0    2,,PR1

     3814    11392    1       RETURN;

  11392  1 000243   000000 702200 xent               TSX2  ! X66_ARET
     3815    11393
     3816    11394    1   END XUO$LOGBLK;
     3817    11395        %EOD;

PL6.E3A0      #016=XUO$LOGBLK File=XUO$BUILD.:E05TSI                             WED 07/30/97 09:32 Page:456
--  Include file information  --

   XUO$OBJ_C.:E05TOU  is referenced.
   B$OBJECT_C.:E05TOU  is referenced.
   CP_6_SUBS.:E05TOU  is referenced.
   CP_6_C.:E05TOU  is referenced.
   CP_6.:E05TOU  cannot be made into a system file and is referenced.
   ZVA_FLAGS.:TOOLE04  is referenced.
   ZVA_SYSTEM_FILE.:TOOLE04  is referenced.
      No diagnostics issued in procedure XUO$LOGBLK.
PL6.E3A0      #016=XUO$LOGBLK File=XUO$BUILD.:E05TSI                             WED 07/30/97 09:32 Page:457

 **** Variables and constants ****

  ****  Auto variables  ****

  ****  Scalars and arrays  ****
OctLoc.c.b A Datatyp(siz) R M Lvl/name                 OctLoc.c.b A Datatyp(siz) R M Lvl/name

     7-0-0/w PTR         r     1 @P_LEXICAL_LEVEL           3-0-0/w PTR         r     1 @P_LOGBLK_NUMBER
     6-0-0/w PTR         r     1 @P_NAME_POINTER            4-0-0/w PTR         r     1 @P_PARAM2
     5-0-0/w PTR         r     1 @P_PARAM3                 10-0-0/w PTR         r     1 LOGBLK_TEMP$
    *0-0-0/w SBIN        r     1 P_ENDING_EXST_NUMBER      *0-0-0/w UBIN        r     1 P_ENDING_LINE_NUMBER
    *0-0-0/w SBIN        r     1 P_ENDING_VREBL_NUMBER
    *0-0-0/w UBIN        r     1 P_LEXICAL_LEVEL           *0-0-0/w UBIN        r     1 P_LOGBLK_NUMBER
    *0-0-0/w SBIN        r     1 P_NAME_POINTER            *0-0-0/w UBIN        r     1 P_OFFSET
    *0-0-0/w UBIN        r     1 P_OPERAND                 *0-0-0/w UBIN        r     1 P_OPNDTYP
    *0-0-0/w UBIN        r     1 P_PARAM2                  *0-0-0/w UBIN        r     1 P_PARAM3
    *0-0-0/w UBIN        r     1 P_STARTING_EXST_NUMBER
    *0-0-0/w UBIN        r     1 P_STARTING_LINE_NUMBER
    *0-0-0/w UBIN        r     1 P_STARTING_VREBL_NUMBER

  ****  SYMREF variables  ****

  ****  Scalars and arrays  ****
OctLoc.c.b A Datatyp(siz) R M Lvl/name                 OctLoc.c.b A Datatyp(siz) R M Lvl/name

     0-0-0/w SBIN        r     1 B_DBGNAME_COUNT            0-0-0/w UBIN        r     1 B_DBGNAME_PAGE_SIZE
     0-0-0/w SBIN        r     1 B_EXST_COUNT               0-0-0/w UBIN        r     1 B_EXST_PAGE_SIZE
     0-0-0/w SBIN        r     1 B_INTNTRY_COUNT            0-0-0/w UBIN        r     1 B_INTNTRY_PAGE_SIZE
     0-0-0/w PTR         r     1 B_LOGBLK_BASE$             0-0-0/w SBIN        r     1 B_LOGBLK_COUNT
     0-0-0/w PTR         r     1 B_LOGBLK_CUR$              0-0-0/w PTR         r     1 B_LOGBLK_END$
     0-0-0/w PTR         r     1 B_LOGBLK_ENTRY0$           0-0-0/w PTR         r     1 B_LOGBLK_ENTRY1$
     0-0-0/w SBIN        r     1 B_VREBL_COUNT              0-0-0/w UBIN        r     1 B_VREBL_PAGE_SIZE
     0-0-0/w UBIN        r     1 XUO_COMPILER_ID            0-0-0/w UBIN        r     1 XUO_OU_UTS
     0-0-0/c STRC(18)    r     1 XUO_VERSION_NUMBER

  ****  BASED and DCB variables  ****

PL6.E3A0      #016=XUO$LOGBLK File=XUO$BUILD.:E05TSI                             WED 07/30/97 09:32 Page:458
  ****  Scalars and arrays  ****
OctLoc.c.b A Datatyp(siz) R M Lvl/name                 OctLoc.c.b A Datatyp(siz) R M Lvl/name

     0-0-0/w STRC(108)   r     1 B$EXST                     0-0-0/w STRC(72)    r     1 B$INTNTRY
     0-0-0/w STRC(144)   r     1 B$LBNTRY0                  0-0-0/w STRC(144)   r     1 B$LBNTRY1
     0-0-0/w STRC(144)   r     1 B$LOGBLK                   0-0-0/w STRC(180)   r     1 B$VREBL


   Procedure XUO$LOGBLK requires 164 words for executable code.
   Procedure XUO$LOGBLK requires 12 words of local(AUTO) storage.
PL6.E3A0      #016=XUO$LOGBLK File=XUO$BUILD.:E05TSI                             WED 07/30/97 09:32 Page:459
          *** CROSS REFERENCE LISTING ***
**     DENOTES     IDENTIFIER DEFINITION
<<                 IDENTIFIER'S VALUE SET
>>                 IDENTIFIER'S VALUE USED
<>                 IDENTIFIER SET AND/OR USED
--                 IDENTIFIER REFERENCED
PL6.E3A0      #016=XUO$LOGBLK File=XUO$BUILD.:E05TSI                             WED 07/30/97 09:32 Page:460
          MINI XREF LISTING

B$EXST
     10475**DCL     11063--ASSIGN  11142--ASSIGN  11355--ASSIGN
B$EXST.OU
     10484**DCL     10490--REDEF
B$INTNTRY
     10830**DCL     11359--ASSIGN
B$INTNTRY.OU
     10834**DCL     10841--REDEF
B$LBNTRY0.COMPILER
     10298**DCL     11347<<ASSIGN
B$LBNTRY0.NO_AUTO
     10321**DCL     10326--REDEF
B$LBNTRY0.NO_AUTO.OFFSET
     10325**DCL     11391<<ASSIGN
B$LBNTRY0.NO_AUTO.OPERAND
     10324**DCL     11390<<ASSIGN
B$LBNTRY0.NO_AUTO.OPNDTYP
     10322**DCL     11389<<ASSIGN
B$LBNTRY0.UTS
     10318**DCL     11349<<ASSIGN
B$LBNTRY0.VERS
     10312**DCL     11348<<ASSIGN
B$LBNTRY0.VERSION
     10310**DCL     10312--REDEF
B$LBNTRY1.INTRYPSIZ
     10353**DCL     11360<<ASSIGN
B$LBNTRY1.INTRYSIZ
     10350**DCL     11359<<ASSIGN
B$LBNTRY1.NAMESIZ
     10332**DCL     11353<<ASSIGN
B$LBNTRY1.NAMPSIZ
     10335**DCL     11354<<ASSIGN
PL6.E3A0      #016=XUO$LOGBLK File=XUO$BUILD.:E05TSI                             WED 07/30/97 09:32 Page:461
B$LBNTRY1.STMNTPSIZ
     10341**DCL     11356<<ASSIGN
B$LBNTRY1.STMNTSIZ
     10338**DCL     11355<<ASSIGN
B$LBNTRY1.VREBLPSIZ
     10347**DCL     11358<<ASSIGN
B$LBNTRY1.VREBLSIZ
     10344**DCL     11357<<ASSIGN
B$LOGBLK
     10358**DCL     10966--ASSIGN  11054--ASSIGN  11134--ASSIGN  11208--ASSIGN  11281--ASSIGN
B$LOGBLK.ENLINE
     10362**DCL     11141<<ASSIGN
B$LOGBLK.LEXLVL
     10369**DCL     11062<<ASSIGN
B$LOGBLK.NPOINTER
     10364**DCL     11061<<ASSIGN
B$LOGBLK.STLINE
     10359**DCL     11060<<ASSIGN
B$LOGBLK.STOFFST
     10373**DCL     11063<<ASSIGN  11142>>ASSIGN
B$LOGBLK.STSIZE
     10377**DCL     11142<<ASSIGN
B$LOGBLK.VAOFFST
     10380**DCL     11215<<ASSIGN  11288>>ASSIGN
B$LOGBLK.VASIZE
     10384**DCL     11288<<ASSIGN
B$VREBL
     10624**DCL     11215--ASSIGN  11288--ASSIGN  11357--ASSIGN
B$VREBL.ADR
     10625**DCL     10637--REDEF
B_DBGNAME_COUNT
     10447**DCL     11353>>ASSIGN
B_DBGNAME_PAGE_SIZE
     10450**DCL     11354>>ASSIGN
B_EXST_COUNT
     10596**DCL     11355>>ASSIGN
PL6.E3A0      #016=XUO$LOGBLK File=XUO$BUILD.:E05TSI                             WED 07/30/97 09:32 Page:462
B_EXST_PAGE_SIZE
     10599**DCL     11356>>ASSIGN
B_INTNTRY_COUNT
     10902**DCL     11359>>ASSIGN
B_INTNTRY_PAGE_SIZE
     10905**DCL     11360>>ASSIGN
B_LOGBLK_BASE$
     10400**DCL     11054>>ASSIGN  11134>>ASSIGN  11208>>ASSIGN  11281>>ASSIGN
B_LOGBLK_COUNT
     10405**DCL     10964<<ASSIGN  10964>>ASSIGN  10965>>ASSIGN
B_LOGBLK_CUR$
     10403**DCL     10962>>IF      10966<<ASSIGN  10966>>ASSIGN  11055>>IF      11135>>IF      11209>>IF
     11282>>IF
B_LOGBLK_END$
     10404**DCL     10962>>IF
B_LOGBLK_ENTRY0$
     10401**DCL     10295--IMP-PTR 11347>>ASSIGN  11348>>ASSIGN  11349>>ASSIGN  11389>>ASSIGN  11390>>ASSIGN
     11391>>ASSIGN
B_LOGBLK_ENTRY1$
     10402**DCL     10331--IMP-PTR 11353>>ASSIGN  11354>>ASSIGN  11355>>ASSIGN  11356>>ASSIGN  11357>>ASSIGN
     11358>>ASSIGN  11359>>ASSIGN  11360>>ASSIGN
B_VREBL_COUNT
     10802**DCL     11357>>ASSIGN
B_VREBL_PAGE_SIZE
     10805**DCL     11358>>ASSIGN
LOGBLK_TEMP$
     10934**DCL     10358--IMP-PTR 11054<<ASSIGN  11055>>IF      11060>>ASSIGN  11061>>ASSIGN  11062>>ASSIGN
     11063>>ASSIGN  11134<<ASSIGN  11135>>IF      11141>>ASSIGN  11142>>ASSIGN  11142>>ASSIGN  11208<<ASSIGN
     11209>>IF      11215>>ASSIGN  11281<<ASSIGN  11282>>IF      11288>>ASSIGN  11288>>ASSIGN
P_ENDING_EXST_NUMBER
     10241**DCL     11142>>ASSIGN
P_ENDING_LINE_NUMBER
     10265**DCL     11141>>ASSIGN
P_ENDING_VREBL_NUMBER
     10250**DCL     11288>>ASSIGN
P_LEXICAL_LEVEL
PL6.E3A0      #016=XUO$LOGBLK File=XUO$BUILD.:E05TSI                             WED 07/30/97 09:32 Page:463
     10272**DCL        53--PROC    11049--ENTRY   11062>>ASSIGN
P_LOGBLK_NUMBER
     10226**DCL        53--PROC    10230--REDEF   10956--ENTRY   10965<<ASSIGN  11049--ENTRY   11054>>ASSIGN
     11129--ENTRY   11134>>ASSIGN  11203--ENTRY   11208>>ASSIGN  11276--ENTRY   11281>>ASSIGN  11385--ENTRY
P_NAME_POINTER
     10271**DCL        53--PROC    11049--ENTRY   11061>>ASSIGN
P_OFFSET
     10269**DCL     11391>>ASSIGN
P_OPERAND
     10254**DCL     11390>>ASSIGN
P_OPNDTYP
     10230**DCL     11389>>ASSIGN
P_PARAM2
     10232**DCL        53--PROC    10236--REDEF   10241--REDEF   10245--REDEF   10250--REDEF   10254--REDEF
     11049--ENTRY   11129--ENTRY   11203--ENTRY   11276--ENTRY   11385--ENTRY
P_PARAM3
     10257**DCL        53--PROC    10261--REDEF   10265--REDEF   10269--REDEF   11049--ENTRY   11129--ENTRY
     11385--ENTRY
P_STARTING_EXST_NUMBER
     10236**DCL     11063>>ASSIGN
P_STARTING_LINE_NUMBER
     10261**DCL     11060>>ASSIGN
P_STARTING_VREBL_NUMBER
     10245**DCL     11215>>ASSIGN
XUO_COMPILER_ID
     10929**DCL     11347>>ASSIGN
XUO_OU_UTS
     10933**DCL     11349>>ASSIGN
XUO_VERSION_NUMBER
     10930**DCL     11348>>ASSIGN

