PL6.E3A0      #022=XUO$FRWD_REF File=XUO$BUILD.:E05TSI                           WED 07/30/97 09:34 Page:725
     5590        1        /*M*     XUO$FRWD_REF   -- THIS MOUDLE WILL HANDLE FORWARD REFERENCE ITEMS*/
     5591        2        /*T***********************************************************/
     5592        3        /*T*                                                         */
     5593        4        /*T* Copyright (c) Bull HN Information Systems Inc., 1997    */
     5594        5        /*T*                                                         */
     5595        6        /*T***********************************************************/
     5596        7        /*P*
     5597        8
     5598        9        NAME:  XUO$FRWD_REF
     5599       10        XUO$FRWD_REF --Forward References
     5600       11
     5601       12        PURPOSE:  To resolve forward references.
     5602       13
     5603       14        DESCRIPTION:  This routine will position itself to the
     5604       15                  beginning of the control section indicated by
     5605       16                  the input parameter Section Number.  The control
     5606       17                  section will be read sequentially ignoring all
     5607       18                  program records.  When a relocation record is
     5608       19                  found, it will be searched for operands of type
     5609       20                  O'17'.  If no operands of that type are found,
     5610       21                  the next sequential record is read.  If an
     5611       22                  operand type of O'17' is found the routine
     5612       23                  specified by the parameter Lookup Routine will
     5613       24                  be called as follows:
     5614       25                      CALL:  CALL Lookup Routine( Old Operand    UBIN   input
     5615       26                                   Operand Type           UBIN   input
     5616       27                                   New Operand            UBIN   output
     5617       28                                   Relocation operator    SBIN   output
     5618       29                                   Starting Bit           SBIN   output
     5619       30                                   Ending Bit)            SBIN   output
     5620       31                  The called routine must return the correct operand
     5621       32                  value to be used and the correct operand type to be
     5622       33                  used.  If these fields are not modified an operand
     5623       34                  type of 6 (segref) and a value of 0 will be used.
     5624       35
     5625       36                  XUO$FRWD_REF routine will initialize the relocation
     5626       37                  operator, the starting bit and ending bit to -1.
PL6.E3A0      #022=XUO$FRWD_REF File=XUO$BUILD.:E05TSI                           WED 07/30/97 09:34 Page:726
     5627       38                  If these fields contain values greater than -1
     5628       39                  then the fields in the relocation directive will be
     5629       40                  updated with the new data.
     5630       41
     5631       42                  If any relocation directives have changed due to
     5632       43                  calling the Lookup Routine, then the relocation
     5633       44                  directive buffer will be rewritten.
     5634       45
     5635       46                  This routine will continue until all relocation
     5636       47                  records have been processed for the specified
     5637       48                  control section.
     5638       49
     5639       50                  If calls to XUO$FRWD_REF are intermixed with calls to
     5640       51                  XUO$PRGM and XUO$RELOC then a minimum of two sets of
     5641       52                  buffers must be specified on the call to XUO$BUFINIT.
     5642       53
     5643       54        */
     5644       55        /*D*
     5645       56
     5646       57        CALL:  CALL XUO$FRWD_REF(Section Number,
     5647       58                          Lookup Routine,
     5648       59                          DCB Pointer)
     5649       60
     5650       61
     5651       62        INPUT:
     5652       63            Section Number      UBIN ALIGNED
     5653       64                                The number of the control section in
     5654       65                                which to resolve forward references.
     5655       66            Lookup Routine      EPTR
     5656       67                                The entry pointer to the routine
     5657       68                                which will look up the operand.
     5658       69            DCB Pointer         PTR
     5659       70                                Pointer to the DCB through which
     5660       71                                the object unit is being written.
     5661       72
     5662       73        OUTPUT:
     5663       74            none
PL6.E3A0      #022=XUO$FRWD_REF File=XUO$BUILD.:E05TSI                           WED 07/30/97 09:34 Page:727
     5664       75
     5665       76        B$OBJECT REFERENCE:  none
     5666       77        */
     5667       78        /*B*
     5668       79        GLOBAL DATA:
     5669       80            .
     5670       81        INTERFACE:
     5671       82            XUO$PURGE_BUFFERS
     5672       83            XUO_ERROR_ROUTINE
     5673       84            Lookup Routine
     5674       85
     5675       86        */
     5676       87
     5677       88         /**/
     5678       89        XUO$FRWD_REF: PROC(P_SECTION_NUMBER,P_LOOKUP_ROUTINE,P_DCB_PTR$);
     5679       90         /**/
     5680       91        %INCLUDE ZVA_SYSTEM_FILE;
     5681     6342        %PAGE(ARG=INCLUDES);

              6355    1   /*******************************************************************************
              6356    1   *                                                                              *
              6357    1   *        INCLUDES              INCLUDES                                            *
              6358    1   *                                                                              *
              6359    1   *******************************************************************************/

     5682     6363        %INCLUDE B$OBJECT_C;
     5683     9793        %INCLUDE XUO$OBJ_C;
     5684    10203        %INCLUDE B_ERRORS_C;
     5685    11330        %INCLUDE XUM_ENTRIES_C;
     5686    11350        %XUM_ENTRIES;
     5687    11359        %PAGE(ARG=SUBS);

             11372    1   /*******************************************************************************
             11373    1   *                                                                              *
             11374    1   *        SUBS              SUBS                                                  *
             11375    1   *                                                                              *
             11376    1   *******************************************************************************/
PL6.E3A0      #022=XUO$FRWD_REF File=XUO$BUILD.:E05TSI                           WED 07/30/97 09:34 Page:728

     5688    11380        %B$RECORDSUBS;
     5689    11408        %B$RELOCSUBS;
     5690    11438    1   DCL XUO$PURGE_BUFFERS ENTRY (2) ALTRET;
     5691    11439        %B_MULTIBUF_VARS;
     5692    11466        %LOCAL_STUFF;
     5693    11472        %PAGE(ARG=PARAMETERS);

             11485    1   /*******************************************************************************
             11486    1   *                                                                              *
             11487    1   *        PARAMETERS              PARAMETERS                                        *
             11488    1   *                                                                              *
             11489    1   *******************************************************************************/

     5694    11493    1   DCL P_SECTION_NUMBER UBIN;
     5695    11494         /**/
     5696    11495    1   DCL P_LOOKUP_ROUTINE EPTR;
     5697    11496         /**/
     5698    11497    1   DCL P_DCB_PTR$ PTR;
     5699    11498         /**/
     5700    11499        %PAGE(ARG=KEYS);

             11512    1   /*******************************************************************************
             11513    1   *                                                                              *
             11514    1   *        KEYS              KEYS                                                  *
             11515    1   *                                                                              *
             11516    1   *******************************************************************************/

     5701    11520    1   DCL B$FRWDKEY$ PTR SYMREF;
     5702    11521        %B$PRGRELKEY (NAME=B$FRWDKEY,STCLASS="BASED(B$FRWDKEY$)",KEYSIZINIT=,NOTHDINIT=,
             11521            TYPEINIT=);
     5703    11552        %PAGE(ARG=PROGRAM DATA);

             11565    1   /*******************************************************************************
             11566    1   *                                                                              *
             11567    1   *        PROGRAM DATA              PROGRAM DATA                                    *
             11568    1   *                                                                              *
PL6.E3A0      #022=XUO$FRWD_REF File=XUO$BUILD.:E05TSI                           WED 07/30/97 09:34 Page:729
             11569    1   *******************************************************************************/

     5704    11573        %B_PROGRAM_POINTERS;
     5705    11588        %PAGE(ARG=RELOCATION DATA);

             11601    1   /*******************************************************************************
             11602    1   *                                                                              *
             11603    1   *        RELOCATION DATA              RELOCATION DATA                              *
             11604    1   *                                                                              *
             11605    1   *******************************************************************************/

     5706    11609        %B_RELOCATION_POINTERS;
     5707    11624        %B$RELOC1 (STCLASS="BASED(RELOCATION_CUR$)");
     5708    11655        %B$RELOC2 (STCLASS="BASED(RELOCATION_CUR$)");
     5709    11722        %PAGE(ARG=LOCAL DATA);

             11735    1   /*******************************************************************************
             11736    1   *                                                                              *
             11737    1   *        LOCAL DATA              LOCAL DATA                                        *
             11738    1   *                                                                              *
             11739    1   *******************************************************************************/

     5710    11743    1   DCL RELOCATION_BASE$ PTR;
     5711    11744         /**/
     5712    11745    1   DCL RELOCATION_CUR$ PTR;
     5713    11746         /**/
     5714    11747    1   DCL RELOCATION_END$ PTR;
     5715    11748         /**/
     5716    11749    1   DCL RELOCATION_SIZE_TIMES_FOUR UBIN;
     5717    11750         /**/
     5718    11751    1   DCL RELOCATION_SIZE UBIN;
     5719    11752         /**/
     5720    11753    1   DCL RELOCATION_WRITE_REQUIRED BIT(1);
     5721    11754         /**/
     5722    11755    1   DCL LOOKUP_ROUTINE EPTR;
     5723    11756         /**/
     5724    11757    1   DCL OLD_OPERAND UBIN;
PL6.E3A0      #022=XUO$FRWD_REF File=XUO$BUILD.:E05TSI                           WED 07/30/97 09:34 Page:730
     5725    11758         /**/
     5726    11759    1   DCL A_OPERAND_TYPE UBIN;
     5727    11760         /**/
     5728    11761    1   DCL A_NEW_OPERAND UBIN;
     5729    11762         /**/
     5730    11763    1   DCL A_RELOC_OPERATOR SBIN;
     5731    11764         /**/
     5732    11765    1   DCL A_STARTING_BIT SBIN;
     5733    11766         /**/
     5734    11767    1   DCL A_ENDING_BIT SBIN;
     5735    11768         /**/
     5736    11769    1   DCL OLD_SECOFF UBIN;
     5737    11770
     5738    11771        %PAGE(ARG=FPT/DCB DATA);

             11784    1   /*******************************************************************************
             11785    1   *                                                                              *
             11786    1   *        FPT/DCB DATA              FPT/DCB DATA                                    *
             11787    1   *                                                                              *
             11788    1   *******************************************************************************/

     5739    11792    1   DCL XUO_RELOCATION_READ$ PTR SYMREF;
     5740    11793        %FPT_READ (FPTN=XUO_RELOCATION_READ,STCLASS="BASED(XUO_RELOCATION_READ$)");
     5741    11832    1   DCL XUO_RELOCATION_REWRITE$ PTR SYMREF;
     5742    11833        %FPT_WRITE (FPTN=XUO_RELOCATION_REWRITE,STCLASS="BASED(XUO_RELOCATION_REWRITE$)");
     5743    11864    1   DCL XUO_OU_CLOSE$ PTR SYMREF;
     5744    11865        %FPT_CLOSE (FPTN=XUO_OU_CLOSE,STCLASS="BASED(XUO_OU_CLOSE$)");
     5745    11907        %F$DCB;
     5746    11964         /**/
     5747    11965        %PAGE(ARG=ERROR DATA);

             11978    1   /*******************************************************************************
             11979    1   *                                                                              *
             11980    1   *        ERROR DATA              ERROR DATA                                        *
             11981    1   *                                                                              *
             11982    1   *******************************************************************************/

PL6.E3A0      #022=XUO$FRWD_REF File=XUO$BUILD.:E05TSI                           WED 07/30/97 09:34 Page:731
     5748    11986        %B$TCB;
     5749    11989        %B$ALT;
     5750    11997         /**/
     5751    11998    1   DCL B$TCB$ PTR SYMREF;
     5752    11999         /**/
     5753    12000    1   DCL 1 ERROR_CODE,
     5754    12001    1         2 FCG_MID BIT(18),
     5755    12002    1         2 MON BIT(1),
     5756    12003    1         2 CODE UBIN(14) UNAL,
     5757    12004    1         2 SEV UBIN(3) UNAL;
     5758    12005         /**/
     5759    12006        %PAGE(ARG=BASED DATA);

             12019    1   /*******************************************************************************
             12020    1   *                                                                              *
             12021    1   *        BASED DATA              BASED DATA                                        *
             12022    1   *                                                                              *
             12023    1   *******************************************************************************/

     5760    12027    1   DCL 1 BUFFER_CLEAR BASED(RELOCATION_BASE$),
     5761    12028    1         2 * CHAR(RELOCATION_SIZE_TIMES_FOUR);
     5762    12029        %PAGE(ARG=GLOBAL DATA);

             12042    1   /*******************************************************************************
             12043    1   *                                                                              *
             12044    1   *        GLOBAL DATA              GLOBAL DATA                                      *
             12045    1   *                                                                              *
             12046    1   *******************************************************************************/

     5763    12050    1   DCL XUO_OU_UTS UBIN SYMREF;
     5764    12051    1   DCL XUO_ERROR_ROUTINE EPTR SYMREF;
     5765    12052    1   DCL XUO_CLOSE_REQUIRED BIT(1) ALIGNED SYMREF;
     5766    12053    1   DCL XUO_OU_WRITE_REQUIRED BIT(1) ALIGNED SYMREF;
     5767    12054    1   DCL XUO_MOST_RECENT_SECTION SBIN WORD SYMREF;
     5768    12055         /**/
     5769    12056        %PAGE(ARG=ENTRY DCLS);

PL6.E3A0      #022=XUO$FRWD_REF File=XUO$BUILD.:E05TSI                           WED 07/30/97 09:34 Page:732
             12069    1   /*******************************************************************************
             12070    1   *                                                                              *
             12071    1   *        ENTRY DCLS              ENTRY DCLS                                        *
             12072    1   *                                                                              *
             12073    1   *******************************************************************************/

     5770    12077    1   DCL XUO$PURGE_PRGM ENTRY;
     5771    12078    1   DCL XUO$PURGE_RELOC ENTRY;
     5772    12079        %PAGE (ARG=CODE);

             12092    1   /*******************************************************************************
             12093    1   *                                                                              *
             12094    1   *        CODE              CODE                                                  *
             12095    1   *                                                                              *
             12096    1   *******************************************************************************/

     5773    12100         /*See if we need to write.
     5774    12101            If not then just exit.
     5775    12102         */
     5776    12103    1       IF NOT XUO_OU_WRITE_REQUIRED THEN
     5777    12104    1           RETURN;
     5778    12105         /*
     5779    12106         Make sure that both the program
     5780    12107         buffer and the relocation buffer
     5781    12108         are empty before we start.
     5782    12109         */
     5783    12110    1       IF SECTION_ARRAY.PTR2_LRU$(P_SECTION_NUMBER)=ADDR(NIL)
     5784    12111    2       THEN DO;
     5785    12112    2           CALL XUM$GET_LRU_ITEM (LRU_VECTOR, PTR2_LRU$) ALTRET (ERR_LRU);
     5786    12113    2           CALL XUO$PURGE_BUFFERS (%TYPPROG,PTR2_LRU$->BUBIN)ALTRET(ERR);
     5787    12114    2           SECTION_ARRAY.PTR2_LRU$(P_SECTION_NUMBER) = SECTION_ARRAY.PTR2_LRU$
     5788    12115    2              (PTR2_LRU$->BUBIN);
     5789    12116    2           SECTION_ARRAY.PTR2_RELOCATION_BUF$ (P_SECTION_NUMBER) =
     5790    12117    2              SECTION_ARRAY.PTR2_RELOCATION_BUF$ (PTR2_LRU$->BUBIN);
     5791    12118    2           SECTION_ARRAY.PTR2_PROGRAM_BUF$ (P_SECTION_NUMBER) =
     5792    12119    2              SECTION_ARRAY.PTR2_PROGRAM_BUF$ (PTR2_LRU$->BUBIN);
     5793    12120
PL6.E3A0      #022=XUO$FRWD_REF File=XUO$BUILD.:E05TSI                           WED 07/30/97 09:34 Page:733
     5794    12121    2           SECTION_ARRAY.PROGRAM_CURS (PTR2_LRU$->BUBIN) = 0;
     5795    12122    2           SECTION_ARRAY.RELOCATION_CURS (PTR2_LRU$->BUBIN) = 0;
     5796    12123    2           SECTION_ARRAY.PTR2_PROGRAM_BUF$ (PTR2_LRU$->BUBIN) = ADDR(NIL);
     5797    12124    2           SECTION_ARRAY.PTR2_RELOCATION_BUF$(PTR2_LRU$->BUBIN) = ADDR(NIL);
     5798    12125    2           SECTION_ARRAY.PTR2_LRU$ (PTR2_LRU$->BUBIN) = ADDR(NIL);
     5799    12126    2           SECTION_ARRAY.BUF_OFFSET(PTR2_LRU$->BUBIN) = 0;
     5800    12127
     5801    12128    2           PTR2_LRU$->BUBIN = P_SECTION_NUMBER;
     5802    12129    2           END;
     5803    12130         /*
     5804    12131         This is where we see about purging the buffer because the
     5805    12132         forward ref routine needs this buffer to be empty.
     5806    12133         */
     5807    12134    1       ELSE IF SECTION_ARRAY.PROGRAM_CURS(P_SECTION_NUMBER) ~= 0
     5808    12135    2           THEN DO;
     5809    12136    2               CALL XUO$PURGE_BUFFERS (%TYPPROG, P_SECTION_NUMBER) ALTRET (ERR);
     5810    12137    2               END;
     5811    12138         /* Delete this buffer from the lru list and put it in
     5812    12139            the very last element of section array which can
     5813    12140            never be accessed since this array is of size = the
     5814    12141            number of sections plus one (I.E. 0 - # sections)
     5815    12142            this is to prevent the buffer being used in the
     5816    12143            middle of forward ref for program data.  The buffer
     5817    12144            is restored later for future use.
     5818    12145         */
     5819    12146    1       CALL XUM$DELETE_ITEM (LRU_VECTOR,SECTION_ARRAY.PTR2_LRU$(P_SECTION_NUMBER))
             12146                ALTRET (ERR_LRU);
     5820    12147
     5821    12148    1       XUO_MOST_RECENT_SECTION = -1;
     5822    12149    1       SECTION_ARRAY.PROGRAM_CURS (B_NUMBER_OF_SECTIONS) = 0;
     5823    12150    1       SECTION_ARRAY.RELOCATION_CURS (B_NUMBER_OF_SECTIONS) = 0;
     5824    12151    1       SECTION_ARRAY.PTR2_PROGRAM_BUF$ (B_NUMBER_OF_SECTIONS) = ADDR(NIL);
     5825    12152    1       SECTION_ARRAY.PTR2_RELOCATION_BUF$(B_NUMBER_OF_SECTIONS) = ADDR(NIL);
     5826    12153    1       SECTION_ARRAY.PTR2_LRU$ (B_NUMBER_OF_SECTIONS) = ADDR(NIL);
     5827    12154    1       SECTION_ARRAY.BUF_OFFSET(B_NUMBER_OF_SECTIONS) = 0;
     5828    12155
     5829    12156    1       SECTION_ARRAY.PTR2_RELOCATION_BUF$ (B_NUMBER_OF_SECTIONS) =
PL6.E3A0      #022=XUO$FRWD_REF File=XUO$BUILD.:E05TSI                           WED 07/30/97 09:34 Page:734
     5830    12157    1          SECTION_ARRAY.PTR2_RELOCATION_BUF$ (P_SECTION_NUMBER);
     5831    12158    1       SECTION_ARRAY.PTR2_PROGRAM_BUF$ (B_NUMBER_OF_SECTIONS) =
     5832    12159    1          SECTION_ARRAY.PTR2_PROGRAM_BUF$ (P_SECTION_NUMBER);
     5833    12160
     5834    12161    1       SECTION_ARRAY.PROGRAM_CURS (P_SECTION_NUMBER) = 0;
     5835    12162    1       SECTION_ARRAY.RELOCATION_CURS (P_SECTION_NUMBER) = 0;
     5836    12163    1       SECTION_ARRAY.PTR2_PROGRAM_BUF$ (P_SECTION_NUMBER) = ADDR(NIL);
     5837    12164    1       SECTION_ARRAY.PTR2_RELOCATION_BUF$(P_SECTION_NUMBER) = ADDR(NIL);
     5838    12165    1       SECTION_ARRAY.PTR2_LRU$ (P_SECTION_NUMBER) = ADDR(NIL);
     5839    12166    1       SECTION_ARRAY.BUF_OFFSET(P_SECTION_NUMBER) = 0;
     5840    12167
     5841    12168    1       LOOKUP_ROUTINE=P_LOOKUP_ROUTINE; /*Localize eptr*/
     5842    12169         /*
     5843    12170         Set up the base key
     5844    12171         */
     5845    12172    1       B$FRWDKEY.KEYSIZ=11;
     5846    12173    1       B$FRWDKEY.NOTHD='777'O;
     5847    12174    1       B$FRWDKEY.UTS=XUO_OU_UTS;
     5848    12175    1       B$FRWDKEY.SECTNUM=P_SECTION_NUMBER;
     5849    12176    1       B$FRWDKEY.OFFSET=0;
     5850    12177    1       B$FRWDKEY.TYPE=%TYPPROG;
     5851    12178    1       B$FRWDKEY.SUBTYPE=%SUBTYPPROG;
     5852    12179    1       B$FRWDKEY.SEQUENCE=0;
     5853    12180         /**/
     5854    12181    1       RELOCATION_BASE$ = SECTION_ARRAY.PTR2_RELOCATION_BUF$(B_NUMBER_OF_SECTIONS);
     5855    12182    1       RELOCATION_SIZE = B_RELOCATION_PAGE_SIZE;
     5856    12183         /**/
     5857    12184         /*
     5858    12185         Set up the fpts
     5859    12186         */
     5860    12187    1       XUO_RELOCATION_READ.BUF_.BUF$=RELOCATION_BASE$;
     5861    12188    1       RELOCATION_SIZE_TIMES_FOUR=RELOCATION_SIZE*4;
     5862    12189    1       XUO_RELOCATION_READ.BUF_.BOUND=RELOCATION_SIZE_TIMES_FOUR-1;
     5863    12190         /**/
     5864    12191    1       XUO_RELOCATION_REWRITE.BUF_.BUF$=RELOCATION_BASE$;
     5865    12192         /**/
     5866    12193         /*
PL6.E3A0      #022=XUO$FRWD_REF File=XUO$BUILD.:E05TSI                           WED 07/30/97 09:34 Page:735
     5867    12194         Now read the first record in.
     5868    12195         (using the key, of course)
     5869    12196         */
     5870    12197    1       XUO_RELOCATION_READ.V.KEYS#='1'B;
     5871    12198    1       CALL M$READ(XUO_RELOCATION_READ) ALTRET(IGNORE_ERROR);
     5872    12199    1   IGNORE_ERROR: ;
     5873    12200         /*
     5874    12201         Now we must read sequentially.
     5875    12202         */
     5876    12203    1       XUO_RELOCATION_READ.V.KEYS#='0'B;
     5877    12204         /**/
     5878    12205    2       DO WHILE(B$FRWDKEY.TYPE=%TYPPROG AND B$FRWDKEY.SECTNUM=P_SECTION_NUMBER AND
             12205                B$FRWDKEY.UTS=XUO_OU_UTS);
     5879    12206         /*
     5880    12207         Check to see if this is a program record.
     5881    12208         If not, just skip it.
     5882    12209         */
     5883    12210    2           IF B$FRWDKEY.SUBTYPE=%SUBTYPREL THEN
     5884    12211    3           DO;
     5885    12212    3               RELOCATION_WRITE_REQUIRED='0'B;
     5886    12213    3               RELOCATION_CUR$=RELOCATION_BASE$;
     5887    12214    3               RELOCATION_SIZE=P_DCB_PTR$->F$DCB.ARS#;
     5888    12215    3               RELOCATION_END$=PINCRW(RELOCATION_BASE$,(RELOCATION_SIZE+3)/4);
     5889    12216         /*
     5890    12217         Loop looking at all relocation
     5891    12218         records for an OPERAND_TYPE of
     5892    12219         O'17'.
     5893    12220         */
     5894    12221    4               DO WHILE(RELOCATION_CUR$<RELOCATION_END$);
     5895    12222         /*
     5896    12223         Only two or three word relocation
     5897    12224         directives can contain a  '17'o
     5898    12225         in the operand type.  Therefore,
     5899    12226         just skip any type one relocation
     5900    12227         directives.
     5901    12228         */
     5902    12229    4                   IF B$RELOC2.MBZ=0 THEN
PL6.E3A0      #022=XUO$FRWD_REF File=XUO$BUILD.:E05TSI                           WED 07/30/97 09:34 Page:736
     5903    12230    5                   DO; /*Two/three word*/
     5904    12231    5                       IF B$RELOC2.OPNDTYP=%OPERFREF THEN
     5905    12232    6                       DO; /*We found one*/
     5906    12233    6                           OLD_OPERAND=B$RELOC2.OPERAND;
     5907    12234         /*
     5908    12235         Initialize returned variables to a known state
     5909    12236         */
     5910    12237    6                           A_OPERAND_TYPE=%OPERCONST;
     5911    12238    6                           A_NEW_OPERAND=0;
     5912    12239    6                           A_RELOC_OPERATOR=B$RELOC2.RELOCOP;
     5913    12240    6                           A_STARTING_BIT=B$RELOC2.STBIT;
     5914    12241    6                           A_ENDING_BIT=B$RELOC2.ENDBIT;
     5915    12242    6                           OLD_SECOFF=B$RELOC2.DISP+B$FRWDKEY.OFFSET;
     5916    12243
     5917    12244         /*
     5918    12245         Now call the guy and see what he has for us
     5919    12246         */
     5920    12247    6                           CALL LOOKUP_ROUTINE(OLD_OPERAND,A_OPERAND_TYPE,A_NEW_OPERAND
             12247                                    ,
     5921    12248    6                              A_RELOC_OPERATOR,A_STARTING_BIT,A_ENDING_BIT,
     5922    12249    6                              OLD_SECOFF);
     5923    12250         /*
     5924    12251         Build new relocation directive
     5925    12252         */
     5926    12253    6                           B$RELOC2.OPNDTYP=A_OPERAND_TYPE;
     5927    12254    6                           B$RELOC2.OPERAND=A_NEW_OPERAND;
     5928    12255    6                           B$RELOC2.RELOCOP=A_RELOC_OPERATOR;
     5929    12256    6                           B$RELOC2.STBIT=A_STARTING_BIT;
     5930    12257    6                           B$RELOC2.ENDBIT=A_ENDING_BIT;
     5931    12258    6                           RELOCATION_WRITE_REQUIRED='1'B;
     5932    12259         /**/
     5933    12260    6                           END; /*Found one*/
     5934    12261         /*
     5935    12262         Check for two or three words
     5936    12263         */
     5937    12264    5                       IF B$RELOC2.EVALOP>0 THEN
     5938    12265    5                           RELOCATION_CUR$=PINCRW(RELOCATION_CUR$,3);
PL6.E3A0      #022=XUO$FRWD_REF File=XUO$BUILD.:E05TSI                           WED 07/30/97 09:34 Page:737
     5939    12266    5                       ELSE
     5940    12267    5                           RELOCATION_CUR$=PINCRW(RELOCATION_CUR$,2);
     5941    12268    5                       END; /*Two/three word*/
     5942    12269    4                   ELSE
     5943    12270         /*One word relocation directive*/
     5944    12271    4                       RELOCATION_CUR$=PINCRW(RELOCATION_CUR$,1);
     5945    12272         /**/
     5946    12273    4                   END; /*Relocation loop*/
     5947    12274         /* There might be someone building new reloc
     5948    12275         records in reloc buffer. If so, XUO$PURGE_RELOC
     5949    12276         will write the records out. If no one
     5950    12277         is building new reloc records, no harm is
     5951    12278         done. */
     5952    12279
     5953    12280    3               CALL XUO$PURGE_BUFFERS (%TYPPROG, P_SECTION_NUMBER);
     5954    12281         /**/
     5955    12282    3               IF RELOCATION_WRITE_REQUIRED THEN
     5956    12283    4               DO; /*Write out buffer*/
     5957    12284    4                   XUO_RELOCATION_REWRITE.BUF_.BOUND=RELOCATION_SIZE-1;
     5958    12285    4                   CALL M$WRITE(XUO_RELOCATION_REWRITE) ALTRET(WRITE_ERROR);
     5959    12286    4                   END;
     5960    12287         /**/
     5961    12288    3               END; /*Relocation processing*/
     5962    12289         /**/
     5963    12290    2           CALL M$READ(XUO_RELOCATION_READ) ALTRET(READ_ERROR);
     5964    12291         /**/
     5965    12292    2           END; /*Section loop*/
     5966    12293         /**/
     5967    12294    1       BUFFER_CLEAR='0'B;
     5968    12295         /**/
     5969    12296            %PAGE(ARG=ERROR_PROCESSING,PAGE=YES);

PL6.E3A0      #022=XUO$FRWD_REF File=XUO$BUILD.:E05TSI                           WED 07/30/97 09:34 Page:738
             12309    1   /*******************************************************************************
             12310    1   *                                                                              *
             12311    1   *        ERROR_PROCESSING              ERROR_PROCESSING                            *
             12312    1   *                                                                              *
             12313    1   *******************************************************************************/

     5970    12317         /*
     5971    12318         We may get a read error for several reasons.
     5972    12319         If we get an eof, that is valid. If we get
     5973    12320         other that that then we got a
     5974    12321         problem.
     5975    12322         Dont give up on this ou though!!
     5976    12323         */
     5977    12324    2   READ_ERROR_PROCESSOR: DO WHILE '0'B;
     5978    12325    2   READ_ERROR: ;
     5979    12326    2           ERROR_CODE=B$TCB$->B$TCB.ALT$->B$ALT.ERR;
     5980    12327    2           IF ERROR_CODE.CODE = %E$LD /* lost data, but on a record */
     5981    12328    2              AND B$FRWDKEY.TYPE ~= %TYPPROG /* other than a prog/reloc */
     5982    12329    3           THEN DO;
     5983    12330    3               BUFFER_CLEAR = '0'B;
     5984    12331    3               EXIT READ_ERROR_PROCESSOR;
     5985    12332    3               END;
     5986    12333    2           IF ERROR_CODE.CODE~=%E$EOF THEN
     5987    12334    3           DO;
     5988    12335    3               IF XUO_ERROR_ROUTINE~=ENTADDR(NIL) THEN
     5989    12336    3                   CALL XUO_ERROR_ROUTINE(ERROR_CODE);
     5990    12337    3               END;
     5991    12338         /**/
     5992    12339    2           BUFFER_CLEAR='0'B;
     5993    12340    2           END; /* Do while */
     5994    12341         /* Restore the buffer to active use in a section and the lru lust*/
     5995    12342    1       CALL XUM$CREATE_NEW_ITEM (LRU_VECTOR, PTR2_LRU$) ALTRET (ERR_LRU);
     5996    12343    1       SECTION_ARRAY.PROGRAM_CURS(B_NUMBER_OF_SECTIONS) = 0;
     5997    12344    1       SECTION_ARRAY.RELOCATION_CURS(B_NUMBER_OF_SECTIONS) = 0;
     5998    12345    1       SECTION_ARRAY.PTR2_LRU$(B_NUMBER_OF_SECTIONS) = PTR2_LRU$;
     5999    12346    1       PTR2_LRU$->BUBIN = B_NUMBER_OF_SECTIONS;
     6000    12347    1       SECTION_ARRAY.BUF_OFFSET(B_NUMBER_OF_SECTIONS) = 0;
PL6.E3A0      #022=XUO$FRWD_REF File=XUO$BUILD.:E05TSI                           WED 07/30/97 09:34 Page:739
     6001    12348    1       RETURN;
     6002    12349         /**/
     6003    12350         /*
     6004    12351         There is no way that we should ever
     6005    12352         get a write error. If we do then there
     6006    12353         is something drastically wrong. Therefore
     6007    12354         in this case, check the close bit and close
     6008    12355         the file and lets not write any more.
     6009    12356         */
     6010    12357    1   WRITE_ERROR: ;
     6011    12358    1       ERROR_CODE=B$TCB$->B$TCB.ALT$->B$ALT.ERR;
     6012    12359
     6013    12360    1       IF XUO_ERROR_ROUTINE~=ENTADDR(NIL) THEN
     6014    12361    1           CALL XUO_ERROR_ROUTINE(ERROR_CODE);
     6015    12362
     6016    12363    1       IF XUO_CLOSE_REQUIRED THEN
     6017    12364    1           CALL M$CLOSE (XUO_OU_CLOSE) ALTRET(IGNORE_CLOSE_ERROR);
     6018    12365    1   IGNORE_CLOSE_ERROR: ;
     6019    12366    1       XUO_OU_WRITE_REQUIRED='0'B;
     6020    12367         /**/
     6021    12368    1       BUFFER_CLEAR='0'B;
     6022    12369    1       RETURN;
     6023    12370         /**/
     6024    12371    1   ERR: ;
     6025    12372    1       RETURN;
     6026    12373    1   ERR_LRU: ;
     6027    12374    1       RETURN;
     6028    12375    1   END XUO$FRWD_REF;
     6029    12376        %EOD;

PL6.E3A0      #022=XUO$FRWD_REF File=XUO$BUILD.:E05TSI                           WED 07/30/97 09:34 Page:740
--  Include file information  --

   XUM_ENTRIES_C.:E05TOU  is referenced.
   B_ERRORS_C.:E05TOU  is referenced.
   XUO$OBJ_C.:E05TOU  is referenced.
   B$OBJECT_C.:E05TOU  is referenced.
   CP_6_SUBS.:E05TOU  is referenced.
   CP_6_C.:E05TOU  is referenced.
   CP_6.:E05TOU  cannot be made into a system file and is referenced.
   ZVA_FLAGS.:TOOLE04  is referenced.
   ZVA_SYSTEM_FILE.:TOOLE04  is referenced.
      No diagnostics issued in procedure XUO$FRWD_REF.

   Procedure XUO$FRWD_REF requires 496 words for executable code.
   Procedure XUO$FRWD_REF requires 32 words of local(AUTO) storage.

PL6.E3A0      #022=XUO$FRWD_REF File=XUO$BUILD.:E05TSI                           WED 07/30/97 09:34 Page:741

 Object Unit name= XUO$FRWD_REF                               File name= XUO$BUILD.:E05TOU
 UTS= JUL 30 '97 09:34:52.72 WED                              Compiler= PL-6/E31         Sev=      00
 SharedLib= :SHARED_SYSTEM                                    Alt SharedLib=


    ****  Control sections  ****

 Sect   Type Bound  Init  Size OctSiz  Section name(segment info)
    0   DCB   even  none     0      0  M$UC
    1   Proc  even  none   496    760  XUO$FRWD_REF
    2  RoData even  none     3      3  XUO$FRWD_REF

    ****  Entry defs  ****

                              Check   Calling
                             calling  sequence
  Sect OctLoc Primary Altret sequence   type   Parms  Name
     1      0   yes            yes      Std        3  XUO$FRWD_REF

  ****  Entry refs  ****

         Check        Calling
        calling       sequence
Altret sequence SRef   type   Args  Name
 yes     yes           Std       2 XUM$GET_LRU_ITEM
 yes     yes           Std       2 XUO$PURGE_BUFFERS
 yes     yes           Std       2 XUM$DELETE_ITEM
 yes     yes           Std       2 XUM$CREATE_NEW_ITEM
                       nStd      0 X66_AUTO_3
                       nStd      0 X66_ARET
                       Std       0 B_CONSPOOL_D
PL6.E3A0      #022=XUO$FRWD_REF File=XUO$BUILD.:E05TSI                           WED 07/30/97 09:34 Page:742

  ****  Data refs  ****

  Flags:  r = read only, s = secondary
Flgs Name                             Flgs Name                             Flgs Name
     M$UC                                  LRU_VECTOR                            PTR2_SECTION_ARRAY$
     B_NUMBER_OF_SECTIONS                  B$FRWDKEY$                            B_RELOCATION_PAGE_SIZE
     XUO_RELOCATION_READ$                  XUO_RELOCATION_REWRITE$               XUO_OU_CLOSE$
     B$TCB$                                XUO_OU_UTS                            XUO_ERROR_ROUTINE
     XUO_CLOSE_REQUIRED                    XUO_OU_WRITE_REQUIRED                 XUO_MOST_RECENT_SECTION
     B_VECTNIL

  ****  Segment refs  ****

  Flags:  r = read only, s = secondary
Flgs Name                             Flgs Name                             Flgs Name
     ISSID
PL6.E3A0      #022=XUO$FRWD_REF File=XUO$BUILD.:E05TSI                           WED 07/30/97 09:34 Page:743


     5590        1        /*M*     XUO$FRWD_REF   -- THIS MOUDLE WILL HANDLE FORWARD REFERENCE ITEMS*/
     5591        2        /*T***********************************************************/
     5592        3        /*T*                                                         */
     5593        4        /*T* Copyright (c) Bull HN Information Systems Inc., 1997    */
     5594        5        /*T*                                                         */
     5595        6        /*T***********************************************************/
     5596        7        /*P*
     5597        8
     5598        9        NAME:  XUO$FRWD_REF
     5599       10        XUO$FRWD_REF --Forward References
     5600       11
     5601       12        PURPOSE:  To resolve forward references.
     5602       13
     5603       14        DESCRIPTION:  This routine will position itself to the
     5604       15                  beginning of the control section indicated by
     5605       16                  the input parameter Section Number.  The control
     5606       17                  section will be read sequentially ignoring all
     5607       18                  program records.  When a relocation record is
     5608       19                  found, it will be searched for operands of type
     5609       20                  O'17'.  If no operands of that type are found,
     5610       21                  the next sequential record is read.  If an
     5611       22                  operand type of O'17' is found the routine
     5612       23                  specified by the parameter Lookup Routine will
     5613       24                  be called as follows:
     5614       25                      CALL:  CALL Lookup Routine( Old Operand    UBIN   input
     5615       26                                   Operand Type           UBIN   input
     5616       27                                   New Operand            UBIN   output
     5617       28                                   Relocation operator    SBIN   output
     5618       29                                   Starting Bit           SBIN   output
     5619       30                                   Ending Bit)            SBIN   output
     5620       31                  The called routine must return the correct operand
     5621       32                  value to be used and the correct operand type to be
     5622       33                  used.  If these fields are not modified an operand
     5623       34                  type of 6 (segref) and a value of 0 will be used.
     5624       35
     5625       36                  XUO$FRWD_REF routine will initialize the relocation
PL6.E3A0      #022=XUO$FRWD_REF File=XUO$BUILD.:E05TSI                           WED 07/30/97 09:34 Page:744
     5626       37                  operator, the starting bit and ending bit to -1.
     5627       38                  If these fields contain values greater than -1
     5628       39                  then the fields in the relocation directive will be
     5629       40                  updated with the new data.
     5630       41
     5631       42                  If any relocation directives have changed due to
     5632       43                  calling the Lookup Routine, then the relocation
     5633       44                  directive buffer will be rewritten.
     5634       45
     5635       46                  This routine will continue until all relocation
     5636       47                  records have been processed for the specified
     5637       48                  control section.
     5638       49
     5639       50                  If calls to XUO$FRWD_REF are intermixed with calls to
     5640       51                  XUO$PRGM and XUO$RELOC then a minimum of two sets of
     5641       52                  buffers must be specified on the call to XUO$BUFINIT.
     5642       53
     5643       54        */
     5644       55        /*D*
     5645       56
     5646       57        CALL:  CALL XUO$FRWD_REF(Section Number,
     5647       58                          Lookup Routine,
     5648       59                          DCB Pointer)
     5649       60
     5650       61
     5651       62        INPUT:
     5652       63            Section Number      UBIN ALIGNED
     5653       64                                The number of the control section in
     5654       65                                which to resolve forward references.
     5655       66            Lookup Routine      EPTR
     5656       67                                The entry pointer to the routine
     5657       68                                which will look up the operand.
     5658       69            DCB Pointer         PTR
     5659       70                                Pointer to the DCB through which
     5660       71                                the object unit is being written.
     5661       72
     5662       73        OUTPUT:
PL6.E3A0      #022=XUO$FRWD_REF File=XUO$BUILD.:E05TSI                           WED 07/30/97 09:34 Page:745
     5663       74            none
     5664       75
     5665       76        B$OBJECT REFERENCE:  none
     5666       77        */
     5667       78        /*B*
     5668       79        GLOBAL DATA:
     5669       80            .
     5670       81        INTERFACE:
     5671       82            XUO$PURGE_BUFFERS
     5672       83            XUO_ERROR_ROUTINE
     5673       84            Lookup Routine
     5674       85
     5675       86        */
     5676       87
     5677       88         /**/
     5678       89        XUO$FRWD_REF: PROC(P_SECTION_NUMBER,P_LOOKUP_ROUTINE,P_DCB_PTR$);

     89  1 000000   000000 700200 xent  XUO$FRWD_REF TSX0  ! X66_AUTO_3
         1 000001   000040 000003                    ZERO    32,3

     5679       90         /**/
     5680       91        %INCLUDE ZVA_SYSTEM_FILE;
     5681     6342        %PAGE(ARG=INCLUDES);

              6355    1   /*******************************************************************************
              6356    1   *                                                                              *
              6357    1   *        INCLUDES              INCLUDES                                           *
              6358    1   *                                                                              *
              6359    1   *******************************************************************************/

     5682     6363        %INCLUDE B$OBJECT_C;
     5683     9793        %INCLUDE XUO$OBJ_C;
     5684    10203        %INCLUDE B_ERRORS_C;
     5685    11330        %INCLUDE XUM_ENTRIES_C;
     5686    11350        %XUM_ENTRIES;
     5687    11359        %PAGE(ARG=SUBS);

PL6.E3A0      #022=XUO$FRWD_REF File=XUO$BUILD.:E05TSI                           WED 07/30/97 09:34 Page:746
             11372    1   /*******************************************************************************
             11373    1   *                                                                              *
             11374    1   *        SUBS              SUBS                                                  *
             11375    1   *                                                                              *
             11376    1   *******************************************************************************/

     5688    11380        %B$RECORDSUBS;
     5689    11408        %B$RELOCSUBS;
     5690    11438    1   DCL XUO$PURGE_BUFFERS ENTRY (2) ALTRET;
     5691    11439        %B_MULTIBUF_VARS;
     5692    11466        %LOCAL_STUFF;
     5693    11472        %PAGE(ARG=PARAMETERS);

             11485    1   /*******************************************************************************
             11486    1   *                                                                              *
             11487    1   *        PARAMETERS              PARAMETERS                                       *
             11488    1   *                                                                              *
             11489    1   *******************************************************************************/

     5694    11493    1   DCL P_SECTION_NUMBER UBIN;
     5695    11494         /**/
     5696    11495    1   DCL P_LOOKUP_ROUTINE EPTR;
     5697    11496         /**/
     5698    11497    1   DCL P_DCB_PTR$ PTR;
     5699    11498         /**/
     5700    11499        %PAGE(ARG=KEYS);

             11512    1   /*******************************************************************************
             11513    1   *                                                                              *
             11514    1   *        KEYS              KEYS                                                  *
             11515    1   *                                                                              *
             11516    1   *******************************************************************************/

     5701    11520    1   DCL B$FRWDKEY$ PTR SYMREF;
     5702    11521        %B$PRGRELKEY (NAME=B$FRWDKEY,STCLASS="BASED(B$FRWDKEY$)",KEYSIZINIT=,NOTHDINIT=,
             11521            TYPEINIT=);
     5703    11552        %PAGE(ARG=PROGRAM DATA);
PL6.E3A0      #022=XUO$FRWD_REF File=XUO$BUILD.:E05TSI                           WED 07/30/97 09:34 Page:747

             11565    1   /*******************************************************************************
             11566    1   *                                                                              *
             11567    1   *        PROGRAM DATA              PROGRAM DATA                                   *
             11568    1   *                                                                              *
             11569    1   *******************************************************************************/

     5704    11573        %B_PROGRAM_POINTERS;
     5705    11588        %PAGE(ARG=RELOCATION DATA);

             11601    1   /*******************************************************************************
             11602    1   *                                                                              *
             11603    1   *        RELOCATION DATA              RELOCATION DATA                             *
             11604    1   *                                                                              *
             11605    1   *******************************************************************************/

     5706    11609        %B_RELOCATION_POINTERS;
     5707    11624        %B$RELOC1 (STCLASS="BASED(RELOCATION_CUR$)");
     5708    11655        %B$RELOC2 (STCLASS="BASED(RELOCATION_CUR$)");
     5709    11722        %PAGE(ARG=LOCAL DATA);

             11735    1   /*******************************************************************************
             11736    1   *                                                                              *
             11737    1   *        LOCAL DATA              LOCAL DATA                                       *
             11738    1   *                                                                              *
             11739    1   *******************************************************************************/

     5710    11743    1   DCL RELOCATION_BASE$ PTR;
     5711    11744         /**/
     5712    11745    1   DCL RELOCATION_CUR$ PTR;
     5713    11746         /**/
     5714    11747    1   DCL RELOCATION_END$ PTR;
     5715    11748         /**/
     5716    11749    1   DCL RELOCATION_SIZE_TIMES_FOUR UBIN;
     5717    11750         /**/
     5718    11751    1   DCL RELOCATION_SIZE UBIN;
     5719    11752         /**/
PL6.E3A0      #022=XUO$FRWD_REF File=XUO$BUILD.:E05TSI                           WED 07/30/97 09:34 Page:748
     5720    11753    1   DCL RELOCATION_WRITE_REQUIRED BIT(1);
     5721    11754         /**/
     5722    11755    1   DCL LOOKUP_ROUTINE EPTR;
     5723    11756         /**/
     5724    11757    1   DCL OLD_OPERAND UBIN;
     5725    11758         /**/
     5726    11759    1   DCL A_OPERAND_TYPE UBIN;
     5727    11760         /**/
     5728    11761    1   DCL A_NEW_OPERAND UBIN;
     5729    11762         /**/
     5730    11763    1   DCL A_RELOC_OPERATOR SBIN;
     5731    11764         /**/
     5732    11765    1   DCL A_STARTING_BIT SBIN;
     5733    11766         /**/
     5734    11767    1   DCL A_ENDING_BIT SBIN;
     5735    11768         /**/
     5736    11769    1   DCL OLD_SECOFF UBIN;
     5737    11770
     5738    11771        %PAGE(ARG=FPT/DCB DATA);

             11784    1   /*******************************************************************************
             11785    1   *                                                                              *
             11786    1   *        FPT/DCB DATA              FPT/DCB DATA                                   *
             11787    1   *                                                                              *
             11788    1   *******************************************************************************/

     5739    11792    1   DCL XUO_RELOCATION_READ$ PTR SYMREF;
     5740    11793        %FPT_READ (FPTN=XUO_RELOCATION_READ,STCLASS="BASED(XUO_RELOCATION_READ$)");
     5741    11832    1   DCL XUO_RELOCATION_REWRITE$ PTR SYMREF;
     5742    11833        %FPT_WRITE (FPTN=XUO_RELOCATION_REWRITE,STCLASS="BASED(XUO_RELOCATION_REWRITE$)");
     5743    11864    1   DCL XUO_OU_CLOSE$ PTR SYMREF;
     5744    11865        %FPT_CLOSE (FPTN=XUO_OU_CLOSE,STCLASS="BASED(XUO_OU_CLOSE$)");
     5745    11907        %F$DCB;
     5746    11964         /**/
     5747    11965        %PAGE(ARG=ERROR DATA);

             11978    1   /*******************************************************************************
PL6.E3A0      #022=XUO$FRWD_REF File=XUO$BUILD.:E05TSI                           WED 07/30/97 09:34 Page:749
             11979    1   *                                                                              *
             11980    1   *        ERROR DATA              ERROR DATA                                       *
             11981    1   *                                                                              *
             11982    1   *******************************************************************************/

     5748    11986        %B$TCB;
     5749    11989        %B$ALT;
     5750    11997         /**/
     5751    11998    1   DCL B$TCB$ PTR SYMREF;
     5752    11999         /**/
     5753    12000    1   DCL 1 ERROR_CODE,
     5754    12001    1         2 FCG_MID BIT(18),
     5755    12002    1         2 MON BIT(1),
     5756    12003    1         2 CODE UBIN(14) UNAL,
     5757    12004    1         2 SEV UBIN(3) UNAL;
     5758    12005         /**/
     5759    12006        %PAGE(ARG=BASED DATA);

             12019    1   /*******************************************************************************
             12020    1   *                                                                              *
             12021    1   *        BASED DATA              BASED DATA                                       *
             12022    1   *                                                                              *
             12023    1   *******************************************************************************/

     5760    12027    1   DCL 1 BUFFER_CLEAR BASED(RELOCATION_BASE$),
     5761    12028    1         2 * CHAR(RELOCATION_SIZE_TIMES_FOUR);
     5762    12029        %PAGE(ARG=GLOBAL DATA);

             12042    1   /*******************************************************************************
             12043    1   *                                                                              *
             12044    1   *        GLOBAL DATA              GLOBAL DATA                                     *
             12045    1   *                                                                              *
             12046    1   *******************************************************************************/

     5763    12050    1   DCL XUO_OU_UTS UBIN SYMREF;
     5764    12051    1   DCL XUO_ERROR_ROUTINE EPTR SYMREF;
     5765    12052    1   DCL XUO_CLOSE_REQUIRED BIT(1) ALIGNED SYMREF;
PL6.E3A0      #022=XUO$FRWD_REF File=XUO$BUILD.:E05TSI                           WED 07/30/97 09:34 Page:750
     5766    12053    1   DCL XUO_OU_WRITE_REQUIRED BIT(1) ALIGNED SYMREF;
     5767    12054    1   DCL XUO_MOST_RECENT_SECTION SBIN WORD SYMREF;
     5768    12055         /**/
     5769    12056        %PAGE(ARG=ENTRY DCLS);

             12069    1   /*******************************************************************************
             12070    1   *                                                                              *
             12071    1   *        ENTRY DCLS              ENTRY DCLS                                       *
             12072    1   *                                                                              *
             12073    1   *******************************************************************************/

     5770    12077    1   DCL XUO$PURGE_PRGM ENTRY;
     5771    12078    1   DCL XUO$PURGE_RELOC ENTRY;
     5772    12079        %PAGE (ARG=CODE);

             12092    1   /*******************************************************************************
             12093    1   *                                                                              *
             12094    1   *        CODE              CODE                                                  *
             12095    1   *                                                                              *
             12096    1   *******************************************************************************/

     5773    12100         /*See if we need to write.
     5774    12101            If not then just exit.
     5775    12102         */
     5776    12103    1       IF NOT XUO_OU_WRITE_REQUIRED THEN

  12103  1 000002   000000 234000 xsym               SZN     XUO_OU_WRITE_REQUIRED
         1 000003   000005 604000 1                  TMI     s:12110

     5777    12104    1           RETURN;

  12104  1 000004   000000 702200 xent               TSX2  ! X66_ARET

     5778    12105         /*
     5779    12106         Make sure that both the program
     5780    12107         buffer and the relocation buffer
     5781    12108         are empty before we start.
PL6.E3A0      #022=XUO$FRWD_REF File=XUO$BUILD.:E05TSI                           WED 07/30/97 09:34 Page:751
     5782    12109         */
     5783    12110    1       IF SECTION_ARRAY.PTR2_LRU$(P_SECTION_NUMBER)=ADDR(NIL)

  12110  1 000005   200003 470500                    LDP0    @P_SECTION_NUMBER,,AUTO
         1 000006   000000 235100                    LDA     0,,PR0
         1 000007   000003 735000                    ALS     3
         1 000010   000000 471400 xsym               LDP1    PTR2_SECTION_ARRAY$
         1 000011   100003 236105                    LDQ     3,AL,PR1
         1 000012   000001 116000 xsym               CMPQ    B_VECTNIL+1
         1 000013   000134 601000 1                  TNZ     s:12134

     5784    12111    2       THEN DO;

     5785    12112    2           CALL XUM$GET_LRU_ITEM (LRU_VECTOR, PTR2_LRU$) ALTRET (ERR_LRU);

  12112  1 000014   200006 633500                    EPPR3   PTR2_LRU$,,AUTO
         1 000015   200031 453500                    STP3    ERROR_CODE+3,,AUTO
         1 000016   000000 236000 2                  LDQ     0
         1 000017   200030 756100                    STQ     ERROR_CODE+2,,AUTO
         1 000020   200030 630500                    EPPR0   ERROR_CODE+2,,AUTO
         1 000021   000020 631400 xsym               EPPR1   B_VECTNIL+16
         1 000022   000000 701000 xent               TSX1    XUM$GET_LRU_ITEM
         1 000023   000757 702000 1                  TSX2    ERR_LRU

     5786    12113    2           CALL XUO$PURGE_BUFFERS (%TYPPROG,PTR2_LRU$->BUBIN)ALTRET(ERR);

  12113  1 000024   200006 236100                    LDQ     PTR2_LRU$,,AUTO
         1 000025   000001 235000 2                  LDA     1
         1 000026   200030 757100                    STAQ    ERROR_CODE+2,,AUTO
         1 000027   200030 630500                    EPPR0   ERROR_CODE+2,,AUTO
         1 000030   000020 631400 xsym               EPPR1   B_VECTNIL+16
         1 000031   000000 701000 xent               TSX1    XUO$PURGE_BUFFERS
         1 000032   000756 702000 1                  TSX2    ERR

     5787    12114    2           SECTION_ARRAY.PTR2_LRU$(P_SECTION_NUMBER) = SECTION_ARRAY.PTR2_LRU$

  12114  1 000033   200003 470500                    LDP0    @P_SECTION_NUMBER,,AUTO
PL6.E3A0      #022=XUO$FRWD_REF File=XUO$BUILD.:E05TSI                           WED 07/30/97 09:34 Page:752
         1 000034   000000 235100                    LDA     0,,PR0
         1 000035   000003 735000                    ALS     3
         1 000036   200006 471500                    LDP1    PTR2_LRU$,,AUTO
         1 000037   000000 620005                    EAX0    0,AL
         1 000040   100000 235100                    LDA     0,,PR1
         1 000041   000003 735000                    ALS     3
         1 000042   000000 473400 xsym               LDP3    PTR2_SECTION_ARRAY$
         1 000043   300003 236105                    LDQ     3,AL,PR3
         1 000044   300003 756110                    STQ     3,X0,PR3

     5788    12115    2              (PTR2_LRU$->BUBIN);
     5789    12116    2           SECTION_ARRAY.PTR2_RELOCATION_BUF$ (P_SECTION_NUMBER) =

  12116  1 000045   000000 235100                    LDA     0,,PR0
         1 000046   000003 735000                    ALS     3
         1 000047   200006 471500                    LDP1    PTR2_LRU$,,AUTO
         1 000050   000000 620005                    EAX0    0,AL
         1 000051   100000 235100                    LDA     0,,PR1
         1 000052   000003 735000                    ALS     3
         1 000053   000000 473400 xsym               LDP3    PTR2_SECTION_ARRAY$
         1 000054   300005 236105                    LDQ     5,AL,PR3
         1 000055   300005 756110                    STQ     5,X0,PR3

     5790    12117    2              SECTION_ARRAY.PTR2_RELOCATION_BUF$ (PTR2_LRU$->BUBIN);
     5791    12118    2           SECTION_ARRAY.PTR2_PROGRAM_BUF$ (P_SECTION_NUMBER) =

  12118  1 000056   000000 235100                    LDA     0,,PR0
         1 000057   000003 735000                    ALS     3
         1 000060   200006 471500                    LDP1    PTR2_LRU$,,AUTO
         1 000061   000000 620005                    EAX0    0,AL
         1 000062   100000 235100                    LDA     0,,PR1
         1 000063   000003 735000                    ALS     3
         1 000064   000000 473400 xsym               LDP3    PTR2_SECTION_ARRAY$
         1 000065   300004 236105                    LDQ     4,AL,PR3
         1 000066   300004 756110                    STQ     4,X0,PR3

     5792    12119    2              SECTION_ARRAY.PTR2_PROGRAM_BUF$ (PTR2_LRU$->BUBIN);
PL6.E3A0      #022=XUO$FRWD_REF File=XUO$BUILD.:E05TSI                           WED 07/30/97 09:34 Page:753
     5793    12120
     5794    12121    2           SECTION_ARRAY.PROGRAM_CURS (PTR2_LRU$->BUBIN) = 0;

  12121  1 000067   200006 471500                    LDP1    PTR2_LRU$,,AUTO
         1 000070   100000 235100                    LDA     0,,PR1
         1 000071   000003 735000                    ALS     3
         1 000072   000000 473400 xsym               LDP3    PTR2_SECTION_ARRAY$
         1 000073   300000 450105                    STZ     0,AL,PR3

     5795    12122    2           SECTION_ARRAY.RELOCATION_CURS (PTR2_LRU$->BUBIN) = 0;

  12122  1 000074   200006 471500                    LDP1    PTR2_LRU$,,AUTO
         1 000075   100000 235100                    LDA     0,,PR1
         1 000076   000003 735000                    ALS     3
         1 000077   000000 473400 xsym               LDP3    PTR2_SECTION_ARRAY$
         1 000100   300001 450105                    STZ     1,AL,PR3

     5796    12123    2           SECTION_ARRAY.PTR2_PROGRAM_BUF$ (PTR2_LRU$->BUBIN) = ADDR(NIL);

  12123  1 000101   200006 471500                    LDP1    PTR2_LRU$,,AUTO
         1 000102   100000 235100                    LDA     0,,PR1
         1 000103   000003 735000                    ALS     3
         1 000104   000001 236000 xsym               LDQ     B_VECTNIL+1
         1 000105   000000 473400 xsym               LDP3    PTR2_SECTION_ARRAY$
         1 000106   300004 756105                    STQ     4,AL,PR3

     5797    12124    2           SECTION_ARRAY.PTR2_RELOCATION_BUF$(PTR2_LRU$->BUBIN) = ADDR(NIL);

  12124  1 000107   200006 471500                    LDP1    PTR2_LRU$,,AUTO
         1 000110   100000 235100                    LDA     0,,PR1
         1 000111   000003 735000                    ALS     3
         1 000112   000001 236000 xsym               LDQ     B_VECTNIL+1
         1 000113   000000 473400 xsym               LDP3    PTR2_SECTION_ARRAY$
         1 000114   300005 756105                    STQ     5,AL,PR3

     5798    12125    2           SECTION_ARRAY.PTR2_LRU$ (PTR2_LRU$->BUBIN) = ADDR(NIL);

PL6.E3A0      #022=XUO$FRWD_REF File=XUO$BUILD.:E05TSI                           WED 07/30/97 09:34 Page:754
  12125  1 000115   200006 471500                    LDP1    PTR2_LRU$,,AUTO
         1 000116   100000 235100                    LDA     0,,PR1
         1 000117   000003 735000                    ALS     3
         1 000120   000001 236000 xsym               LDQ     B_VECTNIL+1
         1 000121   000000 473400 xsym               LDP3    PTR2_SECTION_ARRAY$
         1 000122   300003 756105                    STQ     3,AL,PR3

     5799    12126    2           SECTION_ARRAY.BUF_OFFSET(PTR2_LRU$->BUBIN) = 0;

  12126  1 000123   200006 471500                    LDP1    PTR2_LRU$,,AUTO
         1 000124   100000 235100                    LDA     0,,PR1
         1 000125   000003 735000                    ALS     3
         1 000126   000000 473400 xsym               LDP3    PTR2_SECTION_ARRAY$
         1 000127   300006 450105                    STZ     6,AL,PR3

     5800    12127
     5801    12128    2           PTR2_LRU$->BUBIN = P_SECTION_NUMBER;

  12128  1 000130   200006 471500                    LDP1    PTR2_LRU$,,AUTO
         1 000131   000000 235100                    LDA     0,,PR0
         1 000132   100000 755100                    STA     0,,PR1

     5802    12129    2           END;

  12129  1 000133   000145 710000 1                  TRA     s:12146

     5803    12130         /*
     5804    12131         This is where we see about purging the buffer because the
     5805    12132         forward ref routine needs this buffer to be empty.
     5806    12133         */
     5807    12134    1       ELSE IF SECTION_ARRAY.PROGRAM_CURS(P_SECTION_NUMBER) ~= 0

  12134  1 000134   100000 235105                    LDA     0,AL,PR1
         1 000135   000145 600000 1                  TZE     s:12146

     5808    12135    2           THEN DO;

PL6.E3A0      #022=XUO$FRWD_REF File=XUO$BUILD.:E05TSI                           WED 07/30/97 09:34 Page:755
     5809    12136    2               CALL XUO$PURGE_BUFFERS (%TYPPROG, P_SECTION_NUMBER) ALTRET (ERR);

  12136  1 000136   200003 236100                    LDQ     @P_SECTION_NUMBER,,AUTO
         1 000137   000001 235000 2                  LDA     1
         1 000140   200030 757100                    STAQ    ERROR_CODE+2,,AUTO
         1 000141   200030 630500                    EPPR0   ERROR_CODE+2,,AUTO
         1 000142   000020 631400 xsym               EPPR1   B_VECTNIL+16
         1 000143   000000 701000 xent               TSX1    XUO$PURGE_BUFFERS
         1 000144   000756 702000 1                  TSX2    ERR

     5810    12137    2               END;

     5811    12138         /* Delete this buffer from the lru list and put it in
     5812    12139            the very last element of section array which can
     5813    12140            never be accessed since this array is of size = the
     5814    12141            number of sections plus one (I.E. 0 - # sections)
     5815    12142            this is to prevent the buffer being used in the
     5816    12143            middle of forward ref for program data.  The buffer
     5817    12144            is restored later for future use.
     5818    12145         */
     5819    12146    1       CALL XUM$DELETE_ITEM (LRU_VECTOR,SECTION_ARRAY.PTR2_LRU$(P_SECTION_NUMBER))
             12146                ALTRET (ERR_LRU);

  12146  1 000145   200003 470500                    LDP0    @P_SECTION_NUMBER,,AUTO
         1 000146   000000 235100                    LDA     0,,PR0
         1 000147   000003 735000                    ALS     3
         1 000150   000044 733000                    LRS     36
         1 000151   000022 736000                    QLS     18
         1 000152   000003 036003                    ADLQ    3,DU
         1 000153   000000 036000 xsym               ADLQ    PTR2_SECTION_ARRAY$
         1 000154   000000 235000 2                  LDA     0
         1 000155   200030 757100                    STAQ    ERROR_CODE+2,,AUTO
         1 000156   200030 630500                    EPPR0   ERROR_CODE+2,,AUTO
         1 000157   000020 631400 xsym               EPPR1   B_VECTNIL+16
         1 000160   000000 701000 xent               TSX1    XUM$DELETE_ITEM
         1 000161   000757 702000 1                  TSX2    ERR_LRU

PL6.E3A0      #022=XUO$FRWD_REF File=XUO$BUILD.:E05TSI                           WED 07/30/97 09:34 Page:756
     5820    12147
     5821    12148    1       XUO_MOST_RECENT_SECTION = -1;

  12148  1 000162   000001 335007                    LCA     1,DL
         1 000163   000000 755000 xsym               STA     XUO_MOST_RECENT_SECTION

     5822    12149    1       SECTION_ARRAY.PROGRAM_CURS (B_NUMBER_OF_SECTIONS) = 0;

  12149  1 000164   000000 236000 xsym               LDQ     B_NUMBER_OF_SECTIONS
         1 000165   000003 736000                    QLS     3
         1 000166   000000 470400 xsym               LDP0    PTR2_SECTION_ARRAY$
         1 000167   000000 450106                    STZ     0,QL,PR0

     5823    12150    1       SECTION_ARRAY.RELOCATION_CURS (B_NUMBER_OF_SECTIONS) = 0;

  12150  1 000170   000000 236000 xsym               LDQ     B_NUMBER_OF_SECTIONS
         1 000171   000003 736000                    QLS     3
         1 000172   000000 470400 xsym               LDP0    PTR2_SECTION_ARRAY$
         1 000173   000001 450106                    STZ     1,QL,PR0

     5824    12151    1       SECTION_ARRAY.PTR2_PROGRAM_BUF$ (B_NUMBER_OF_SECTIONS) = ADDR(NIL);

  12151  1 000174   000000 236000 xsym               LDQ     B_NUMBER_OF_SECTIONS
         1 000175   000003 736000                    QLS     3
         1 000176   000000 620006                    EAX0    0,QL
         1 000177   000001 236000 xsym               LDQ     B_VECTNIL+1
         1 000200   000000 470400 xsym               LDP0    PTR2_SECTION_ARRAY$
         1 000201   000004 756110                    STQ     4,X0,PR0

     5825    12152    1       SECTION_ARRAY.PTR2_RELOCATION_BUF$(B_NUMBER_OF_SECTIONS) = ADDR(NIL);

  12152  1 000202   000000 236000 xsym               LDQ     B_NUMBER_OF_SECTIONS
         1 000203   000003 736000                    QLS     3
         1 000204   000000 620006                    EAX0    0,QL
         1 000205   000001 236000 xsym               LDQ     B_VECTNIL+1
         1 000206   000000 470400 xsym               LDP0    PTR2_SECTION_ARRAY$
         1 000207   000005 756110                    STQ     5,X0,PR0
PL6.E3A0      #022=XUO$FRWD_REF File=XUO$BUILD.:E05TSI                           WED 07/30/97 09:34 Page:757

     5826    12153    1       SECTION_ARRAY.PTR2_LRU$ (B_NUMBER_OF_SECTIONS) = ADDR(NIL);

  12153  1 000210   000000 236000 xsym               LDQ     B_NUMBER_OF_SECTIONS
         1 000211   000003 736000                    QLS     3
         1 000212   000000 620006                    EAX0    0,QL
         1 000213   000001 236000 xsym               LDQ     B_VECTNIL+1
         1 000214   000000 470400 xsym               LDP0    PTR2_SECTION_ARRAY$
         1 000215   000003 756110                    STQ     3,X0,PR0

     5827    12154    1       SECTION_ARRAY.BUF_OFFSET(B_NUMBER_OF_SECTIONS) = 0;

  12154  1 000216   000000 236000 xsym               LDQ     B_NUMBER_OF_SECTIONS
         1 000217   000003 736000                    QLS     3
         1 000220   000000 470400 xsym               LDP0    PTR2_SECTION_ARRAY$
         1 000221   000006 450106                    STZ     6,QL,PR0

     5828    12155
     5829    12156    1       SECTION_ARRAY.PTR2_RELOCATION_BUF$ (B_NUMBER_OF_SECTIONS) =

  12156  1 000222   000000 236000 xsym               LDQ     B_NUMBER_OF_SECTIONS
         1 000223   000003 736000                    QLS     3
         1 000224   200003 470500                    LDP0    @P_SECTION_NUMBER,,AUTO
         1 000225   000000 235100                    LDA     0,,PR0
         1 000226   000003 735000                    ALS     3
         1 000227   000000 471400 xsym               LDP1    PTR2_SECTION_ARRAY$
         1 000230   000000 620006                    EAX0    0,QL
         1 000231   100005 236105                    LDQ     5,AL,PR1
         1 000232   100005 756110                    STQ     5,X0,PR1

     5830    12157    1          SECTION_ARRAY.PTR2_RELOCATION_BUF$ (P_SECTION_NUMBER);
     5831    12158    1       SECTION_ARRAY.PTR2_PROGRAM_BUF$ (B_NUMBER_OF_SECTIONS) =

  12158  1 000233   000000 235000 xsym               LDA     B_NUMBER_OF_SECTIONS
         1 000234   000003 735000                    ALS     3
         1 000235   000000 620005                    EAX0    0,AL
         1 000236   000000 235100                    LDA     0,,PR0
PL6.E3A0      #022=XUO$FRWD_REF File=XUO$BUILD.:E05TSI                           WED 07/30/97 09:34 Page:758
         1 000237   000003 735000                    ALS     3
         1 000240   000000 471400 xsym               LDP1    PTR2_SECTION_ARRAY$
         1 000241   100004 236105                    LDQ     4,AL,PR1
         1 000242   100004 756110                    STQ     4,X0,PR1

     5832    12159    1          SECTION_ARRAY.PTR2_PROGRAM_BUF$ (P_SECTION_NUMBER);
     5833    12160
     5834    12161    1       SECTION_ARRAY.PROGRAM_CURS (P_SECTION_NUMBER) = 0;

  12161  1 000243   000000 235100                    LDA     0,,PR0
         1 000244   000003 735000                    ALS     3
         1 000245   000000 471400 xsym               LDP1    PTR2_SECTION_ARRAY$
         1 000246   100000 450105                    STZ     0,AL,PR1

     5835    12162    1       SECTION_ARRAY.RELOCATION_CURS (P_SECTION_NUMBER) = 0;

  12162  1 000247   000000 235100                    LDA     0,,PR0
         1 000250   000003 735000                    ALS     3
         1 000251   000000 471400 xsym               LDP1    PTR2_SECTION_ARRAY$
         1 000252   100001 450105                    STZ     1,AL,PR1

     5836    12163    1       SECTION_ARRAY.PTR2_PROGRAM_BUF$ (P_SECTION_NUMBER) = ADDR(NIL);

  12163  1 000253   000000 235100                    LDA     0,,PR0
         1 000254   000003 735000                    ALS     3
         1 000255   000001 236000 xsym               LDQ     B_VECTNIL+1
         1 000256   000000 471400 xsym               LDP1    PTR2_SECTION_ARRAY$
         1 000257   100004 756105                    STQ     4,AL,PR1

     5837    12164    1       SECTION_ARRAY.PTR2_RELOCATION_BUF$(P_SECTION_NUMBER) = ADDR(NIL);

  12164  1 000260   000000 235100                    LDA     0,,PR0
         1 000261   000003 735000                    ALS     3
         1 000262   000001 236000 xsym               LDQ     B_VECTNIL+1
         1 000263   000000 471400 xsym               LDP1    PTR2_SECTION_ARRAY$
         1 000264   100005 756105                    STQ     5,AL,PR1

PL6.E3A0      #022=XUO$FRWD_REF File=XUO$BUILD.:E05TSI                           WED 07/30/97 09:34 Page:759
     5838    12165    1       SECTION_ARRAY.PTR2_LRU$ (P_SECTION_NUMBER) = ADDR(NIL);

  12165  1 000265   000000 235100                    LDA     0,,PR0
         1 000266   000003 735000                    ALS     3
         1 000267   000001 236000 xsym               LDQ     B_VECTNIL+1
         1 000270   000000 471400 xsym               LDP1    PTR2_SECTION_ARRAY$
         1 000271   100003 756105                    STQ     3,AL,PR1

     5839    12166    1       SECTION_ARRAY.BUF_OFFSET(P_SECTION_NUMBER) = 0;

  12166  1 000272   000000 235100                    LDA     0,,PR0
         1 000273   000003 735000                    ALS     3
         1 000274   000000 471400 xsym               LDP1    PTR2_SECTION_ARRAY$
         1 000275   100006 450105                    STZ     6,AL,PR1

     5840    12167
     5841    12168    1       LOOKUP_ROUTINE=P_LOOKUP_ROUTINE; /*Localize eptr*/

  12168  1 000276   200004 471500                    LDP1    @P_LOOKUP_ROUTINE,,AUTO
         1 000277   100000 236100                    LDQ     0,,PR1
         1 000300   200016 756100                    STQ     LOOKUP_ROUTINE,,AUTO

     5842    12169         /*
     5843    12170         Set up the base key
     5844    12171         */
     5845    12172    1       B$FRWDKEY.KEYSIZ=11;

  12172  1 000301   000000 473400 xsym               LDP3    B$FRWDKEY$
         1 000302   013000 236003                    LDQ     5632,DU
         1 000303   300000 552140                    STBQ    0,'40'O,PR3

     5846    12173    1       B$FRWDKEY.NOTHD='777'O;

  12173  1 000304   000000 473400 xsym               LDP3    B$FRWDKEY$
         1 000305   000777 236003                    LDQ     511,DU
         1 000306   300000 552120                    STBQ    0,'20'O,PR3

PL6.E3A0      #022=XUO$FRWD_REF File=XUO$BUILD.:E05TSI                           WED 07/30/97 09:34 Page:760
     5847    12174    1       B$FRWDKEY.UTS=XUO_OU_UTS;

  12174  1 000307   000000 473400 xsym               LDP3    B$FRWDKEY$
         1 000310   000100 100400                    MLR     fill='000'O
         1 000311   000000 000004 xsym               ADSC9   XUO_OU_UTS               cn=0,n=4
         1 000312   300000 400004                    ADSC9   0,,PR3                   cn=2,n=4

     5848    12175    1       B$FRWDKEY.SECTNUM=P_SECTION_NUMBER;

  12175  1 000313   000000 473400 xsym               LDP3    B$FRWDKEY$
         1 000314   000100 101500                    MRL     fill='000'O
         1 000315   000000 000004                    ADSC9   0,,PR0                   cn=0,n=4
         1 000316   300001 600002                    ADSC9   1,,PR3                   cn=3,n=2

     5849    12176    1       B$FRWDKEY.OFFSET=0;

  12176  1 000317   000000 236003                    LDQ     0,DU
         1 000320   300002 552130                    STBQ    2,'30'O,PR3

     5850    12177    1       B$FRWDKEY.TYPE=%TYPPROG;

  12177  1 000321   012000 236007                    LDQ     5120,DL
         1 000322   300001 552110                    STBQ    1,'10'O,PR3

     5851    12178    1       B$FRWDKEY.SUBTYPE=%SUBTYPPROG;

  12178  1 000323   000000 236003                    LDQ     0,DU
         1 000324   300002 552104                    STBQ    2,'04'O,PR3

     5852    12179    1       B$FRWDKEY.SEQUENCE=0;

  12179  1 000325   300003 450100                    STZ     3,,PR3

     5853    12180         /**/
     5854    12181    1       RELOCATION_BASE$ = SECTION_ARRAY.PTR2_RELOCATION_BUF$(B_NUMBER_OF_SECTIONS);

  12181  1 000326   000000 235000 xsym               LDA     B_NUMBER_OF_SECTIONS
PL6.E3A0      #022=XUO$FRWD_REF File=XUO$BUILD.:E05TSI                           WED 07/30/97 09:34 Page:761
         1 000327   000003 735000                    ALS     3
         1 000330   000000 474400 xsym               LDP4    PTR2_SECTION_ARRAY$
         1 000331   400005 236105                    LDQ     5,AL,PR4
         1 000332   200010 756100                    STQ     RELOCATION_BASE$,,AUTO

     5855    12182    1       RELOCATION_SIZE = B_RELOCATION_PAGE_SIZE;

  12182  1 000333   000000 235000 xsym               LDA     B_RELOCATION_PAGE_SIZE
         1 000334   200014 755100                    STA     RELOCATION_SIZE,,AUTO

     5856    12183         /**/
     5857    12184         /*
     5858    12185         Set up the fpts
     5859    12186         */
     5860    12187    1       XUO_RELOCATION_READ.BUF_.BUF$=RELOCATION_BASE$;

  12187  1 000335   000000 475400 xsym               LDP5    XUO_RELOCATION_READ$
         1 000336   500005 756100                    STQ     5,,PR5

     5861    12188    1       RELOCATION_SIZE_TIMES_FOUR=RELOCATION_SIZE*4;

  12188  1 000337   000002 735000                    ALS     2
         1 000340   200013 755100                    STA     RELOCATION_SIZE_TIMES_FOUR,,AUTO

     5862    12189    1       XUO_RELOCATION_READ.BUF_.BOUND=RELOCATION_SIZE_TIMES_FOUR-1;

  12189  1 000341   200013 236100                    LDQ     RELOCATION_SIZE_TIMES_FOUR,,AUTO
         1 000342   000001 136007                    SBLQ    1,DL
         1 000343   000020 736000                    QLS     16
         1 000344   500004 676100                    ERQ     4,,PR5
         1 000345   000034 376000 xsym               ANQ     B_VECTNIL+28
         1 000346   500004 656100                    ERSQ    4,,PR5

     5863    12190         /**/
     5864    12191    1       XUO_RELOCATION_REWRITE.BUF_.BUF$=RELOCATION_BASE$;

  12191  1 000347   200010 236100                    LDQ     RELOCATION_BASE$,,AUTO
PL6.E3A0      #022=XUO$FRWD_REF File=XUO$BUILD.:E05TSI                           WED 07/30/97 09:34 Page:762
         1 000350   000000 476400 xsym               LDP6    XUO_RELOCATION_REWRITE$
         1 000351   600005 756100                    STQ     5,,PR6

     5865    12192         /**/
     5866    12193         /*
     5867    12194         Now read the first record in.
     5868    12195         (using the key, of course)
     5869    12196         */
     5870    12197    1       XUO_RELOCATION_READ.V.KEYS#='1'B;

  12197  1 000352   200000 236007                    LDQ     65536,DL
         1 000353   500010 256100                    ORSQ    8,,PR5

     5871    12198    1       CALL M$READ(XUO_RELOCATION_READ) ALTRET(IGNORE_ERROR);

  12198  1 000354   500000 630500                    EPPR0   0,,PR5
         1 000355   440000 713400                    CLIMB   alt,read
         1 000356   401400 401760                    pmme    nvectors=4
         1 000357   000360 702000 1                  TSX2    IGNORE_ERROR

  12197  1 000360                       IGNORE_ERROR null
     5872    12199    1   IGNORE_ERROR: ;
     5873    12200         /*
     5874    12201         Now we must read sequentially.
     5875    12202         */
     5876    12203    1       XUO_RELOCATION_READ.V.KEYS#='0'B;

  12203  1 000360   000000 470400 xsym               LDP0    XUO_RELOCATION_READ$
         1 000361   000002 236000 2                  LDQ     2
         1 000362   000010 356100                    ANSQ    8,,PR0

     5877    12204         /**/
     5878    12205    2       DO WHILE(B$FRWDKEY.TYPE=%TYPPROG AND B$FRWDKEY.SECTNUM=P_SECTION_NUMBER AND
             12205                B$FRWDKEY.UTS=XUO_OU_UTS);

  12205  1 000363   000571 710000 1                  TRA     s:12292

PL6.E3A0      #022=XUO$FRWD_REF File=XUO$BUILD.:E05TSI                           WED 07/30/97 09:34 Page:763
     5879    12206         /*
     5880    12207         Check to see if this is a program record.
     5881    12208         If not, just skip it.
     5882    12209         */
     5883    12210    2           IF B$FRWDKEY.SUBTYPE=%SUBTYPREL THEN

  12210  1 000364   000000 470400 xsym               LDP0    B$FRWDKEY$
         1 000365   000002 236100                    LDQ     2,,PR0
         1 000366   000777 376007                    ANQ     511,DL
         1 000367   000001 116007                    CMPQ    1,DL
         1 000370   000565 601000 1                  TNZ     s:12290

     5884    12211    3           DO;

     5885    12212    3               RELOCATION_WRITE_REQUIRED='0'B;

  12212  1 000371   200015 450100                    STZ     RELOCATION_WRITE_REQUIRED,,AUTO

     5886    12213    3               RELOCATION_CUR$=RELOCATION_BASE$;

  12213  1 000372   200010 236100                    LDQ     RELOCATION_BASE$,,AUTO
         1 000373   200011 756100                    STQ     RELOCATION_CUR$,,AUTO

     5887    12214    3               RELOCATION_SIZE=P_DCB_PTR$->F$DCB.ARS#;

  12214  1 000374   200005 471500                    LDP1    @P_DCB_PTR$,,AUTO
         1 000375   100000 473500                    LDP3    0,,PR1
         1 000376   300000 235100                    LDA     0,,PR3
         1 000377   200014 755100                    STA     RELOCATION_SIZE,,AUTO

     5888    12215    3               RELOCATION_END$=PINCRW(RELOCATION_BASE$,(RELOCATION_SIZE+3)/4);

  12215  1 000400   200014 236100                    LDQ     RELOCATION_SIZE,,AUTO
         1 000401   000003 036007                    ADLQ    3,DL
         1 000402   000002 772000                    QRL     2
         1 000403   000022 736000                    QLS     18
         1 000404   200010 036100                    ADLQ    RELOCATION_BASE$,,AUTO
PL6.E3A0      #022=XUO$FRWD_REF File=XUO$BUILD.:E05TSI                           WED 07/30/97 09:34 Page:764
         1 000405   200012 756100                    STQ     RELOCATION_END$,,AUTO

     5889    12216         /*
     5890    12217         Loop looking at all relocation
     5891    12218         records for an OPERAND_TYPE of
     5892    12219         O'17'.
     5893    12220         */
     5894    12221    4               DO WHILE(RELOCATION_CUR$<RELOCATION_END$);

  12221  1 000406   200011 116100                    CMPQ    RELOCATION_CUR$,,AUTO
         1 000407   000542 602000 1                  TNC     s:12280
         1 000410   000542 600000 1                  TZE     s:12280

     5895    12222         /*
     5896    12223         Only two or three word relocation
     5897    12224         directives can contain a  '17'o
     5898    12225         in the operand type.  Therefore,
     5899    12226         just skip any type one relocation
     5900    12227         directives.
     5901    12228         */
     5902    12229    4                   IF B$RELOC2.MBZ=0 THEN

  12229  1 000411   200011 470500                    LDP0    RELOCATION_CUR$,,AUTO
         1 000412   000000 236100                    LDQ     0,,PR0
         1 000413   770000 316003                    CANQ    -4096,DU
         1 000414   000535 601000 1                  TNZ     s:12271

     5903    12230    5                   DO; /*Two/three word*/

     5904    12231    5                       IF B$RELOC2.OPNDTYP=%OPERFREF THEN

  12231  1 000415   000000 236100                    LDQ     0,,PR0
         1 000416   007400 376003                    ANQ     3840,DU
         1 000417   007400 116003                    CMPQ    3840,DU
         1 000420   000522 601000 1                  TNZ     s:12264

     5905    12232    6                       DO; /*We found one*/
PL6.E3A0      #022=XUO$FRWD_REF File=XUO$BUILD.:E05TSI                           WED 07/30/97 09:34 Page:765

     5906    12233    6                           OLD_OPERAND=B$RELOC2.OPERAND;

  12233  1 000421   000000 236100                    LDQ     0,,PR0
         1 000422   777777 376007                    ANQ     -1,DL
         1 000423   200017 756100                    STQ     OLD_OPERAND,,AUTO

     5907    12234         /*
     5908    12235         Initialize returned variables to a known state
     5909    12236         */
     5910    12237    6                           A_OPERAND_TYPE=%OPERCONST;

  12237  1 000424   000004 235007                    LDA     4,DL
         1 000425   200020 755100                    STA     A_OPERAND_TYPE,,AUTO

     5911    12238    6                           A_NEW_OPERAND=0;

  12238  1 000426   200021 450100                    STZ     A_NEW_OPERAND,,AUTO

     5912    12239    6                           A_RELOC_OPERATOR=B$RELOC2.RELOCOP;

  12239  1 000427   000000 236100                    LDQ     0,,PR0
         1 000430   000022 772000                    QRL     18
         1 000431   000017 376007                    ANQ     15,DL
         1 000432   200022 756100                    STQ     A_RELOC_OPERATOR,,AUTO

     5913    12240    6                           A_STARTING_BIT=B$RELOC2.STBIT;

  12240  1 000433   000001 236100                    LDQ     1,,PR0
         1 000434   000011 772000                    QRL     9
         1 000435   000777 376007                    ANQ     511,DL
         1 000436   200023 756100                    STQ     A_STARTING_BIT,,AUTO

     5914    12241    6                           A_ENDING_BIT=B$RELOC2.ENDBIT;

  12241  1 000437   000001 236100                    LDQ     1,,PR0
         1 000440   000777 376007                    ANQ     511,DL
PL6.E3A0      #022=XUO$FRWD_REF File=XUO$BUILD.:E05TSI                           WED 07/30/97 09:34 Page:766
         1 000441   200024 756100                    STQ     A_ENDING_BIT,,AUTO

     5915    12242    6                           OLD_SECOFF=B$RELOC2.DISP+B$FRWDKEY.OFFSET;

  12242  1 000442   000000 471400 xsym               LDP1    B$FRWDKEY$
         1 000443   100002 236100                    LDQ     2,,PR1
         1 000444   000011 772000                    QRL     9
         1 000445   777777 376007                    ANQ     -1,DL
         1 000446   200030 756100                    STQ     ERROR_CODE+2,,AUTO
         1 000447   000001 236100                    LDQ     1,,PR0
         1 000450   000022 772000                    QRL     18
         1 000451   200030 036100                    ADLQ    ERROR_CODE+2,,AUTO
         1 000452   200025 756100                    STQ     OLD_SECOFF,,AUTO

     5916    12243
     5917    12244         /*
     5918    12245         Now call the guy and see what he has for us
     5919    12246         */
     5920    12247    6                          CALL LOOKUP_ROUTINE(OLD_OPERAND,A_OPERAND_TYPE,A_NEW_OPERAND
             12247                                    ,

  12247  1 000453   200025 633500                    EPPR3   OLD_SECOFF,,AUTO
         1 000454   200036 453500                    STP3    ERROR_CODE+8,,AUTO
         1 000455   200024 634500                    EPPR4   A_ENDING_BIT,,AUTO
         1 000456   200035 454500                    STP4    ERROR_CODE+7,,AUTO
         1 000457   200023 635500                    EPPR5   A_STARTING_BIT,,AUTO
         1 000460   200034 455500                    STP5    ERROR_CODE+6,,AUTO
         1 000461   200022 636500                    EPPR6   A_RELOC_OPERATOR,,AUTO
         1 000462   200033 456500                    STP6    ERROR_CODE+5,,AUTO
         1 000463   200021 637500                    EPPR7   A_NEW_OPERAND,,AUTO
         1 000464   200032 457500                    STP7    ERROR_CODE+4,,AUTO
         1 000465   200020 630500                    EPPR0   A_OPERAND_TYPE,,AUTO
         1 000466   200031 450500                    STP0    ERROR_CODE+3,,AUTO
         1 000467   200017 630500                    EPPR0   OLD_OPERAND,,AUTO
         1 000470   200030 450500                    STP0    ERROR_CODE+2,,AUTO
         1 000471   200030 630500                    EPPR0   ERROR_CODE+2,,AUTO
         1 000472   200016 220100                    LDX0    LOOKUP_ROUTINE,,AUTO
PL6.E3A0      #022=XUO$FRWD_REF File=XUO$BUILD.:E05TSI                           WED 07/30/97 09:34 Page:767
         1 000473   000025 631400 xsym               EPPR1   B_VECTNIL+21
         1 000474   000000 701010                    TSX1    0,X0
         1 000475   000000 011000                    NOP     0

     5921    12248    6                              A_RELOC_OPERATOR,A_STARTING_BIT,A_ENDING_BIT,
     5922    12249    6                              OLD_SECOFF);
     5923    12250         /*
     5924    12251         Build new relocation directive
     5925    12252         */
     5926    12253    6                           B$RELOC2.OPNDTYP=A_OPERAND_TYPE;

  12253  1 000476   200011 470500                    LDP0    RELOCATION_CUR$,,AUTO
         1 000477   200020 236100                    LDQ     A_OPERAND_TYPE,,AUTO
         1 000500   000032 736000                    QLS     26
         1 000501   000000 676100                    ERQ     0,,PR0
         1 000502   007400 376003                    ANQ     3840,DU
         1 000503   000000 656100                    ERSQ    0,,PR0

     5927    12254    6                           B$RELOC2.OPERAND=A_NEW_OPERAND;

  12254  1 000504   200021 720100                    LXL0    A_NEW_OPERAND,,AUTO
         1 000505   000000 440100                    SXL0    0,,PR0

     5928    12255    6                           B$RELOC2.RELOCOP=A_RELOC_OPERATOR;

  12255  1 000506   200022 236100                    LDQ     A_RELOC_OPERATOR,,AUTO
         1 000507   000022 736000                    QLS     18
         1 000510   000000 676100                    ERQ     0,,PR0
         1 000511   000017 376003                    ANQ     15,DU
         1 000512   000000 656100                    ERSQ    0,,PR0

     5929    12256    6                           B$RELOC2.STBIT=A_STARTING_BIT;

  12256  1 000513   200023 236100                    LDQ     A_STARTING_BIT,,AUTO
         1 000514   000011 736000                    QLS     9
         1 000515   000001 552110                    STBQ    1,'10'O,PR0

PL6.E3A0      #022=XUO$FRWD_REF File=XUO$BUILD.:E05TSI                           WED 07/30/97 09:34 Page:768
     5930    12257    6                           B$RELOC2.ENDBIT=A_ENDING_BIT;

  12257  1 000516   200024 236100                    LDQ     A_ENDING_BIT,,AUTO
         1 000517   000001 552104                    STBQ    1,'04'O,PR0

     5931    12258    6                           RELOCATION_WRITE_REQUIRED='1'B;

  12258  1 000520   400000 236003                    LDQ     -131072,DU
         1 000521   200015 756100                    STQ     RELOCATION_WRITE_REQUIRED,,AUTO

     5932    12259         /**/
     5933    12260    6                           END; /*Found one*/

     5934    12261         /*
     5935    12262         Check for two or three words
     5936    12263         */
     5937    12264    5                       IF B$RELOC2.EVALOP>0 THEN

  12264  1 000522   000000 236100                    LDQ     0,,PR0
         1 000523   000360 316003                    CANQ    240,DU
         1 000524   000531 600000 1                  TZE     s:12267

     5938    12265    5                           RELOCATION_CUR$=PINCRW(RELOCATION_CUR$,3);

  12265  1 000525   200011 236100                    LDQ     RELOCATION_CUR$,,AUTO
         1 000526   000003 036003                    ADLQ    3,DU
         1 000527   200011 756100                    STQ     RELOCATION_CUR$,,AUTO
         1 000530   000540 710000 1                  TRA     s:12273

     5939    12266    5                       ELSE
     5940    12267    5                           RELOCATION_CUR$=PINCRW(RELOCATION_CUR$,2);

  12267  1 000531   200011 236100                    LDQ     RELOCATION_CUR$,,AUTO
         1 000532   000002 036003                    ADLQ    2,DU
         1 000533   200011 756100                    STQ     RELOCATION_CUR$,,AUTO

     5941    12268    5                       END; /*Two/three word*/
PL6.E3A0      #022=XUO$FRWD_REF File=XUO$BUILD.:E05TSI                           WED 07/30/97 09:34 Page:769

  12268  1 000534   000540 710000 1                  TRA     s:12273

     5942    12269    4                   ELSE
     5943    12270         /*One word relocation directive*/
     5944    12271    4                       RELOCATION_CUR$=PINCRW(RELOCATION_CUR$,1);

  12271  1 000535   200011 236100                    LDQ     RELOCATION_CUR$,,AUTO
         1 000536   000001 036003                    ADLQ    1,DU
         1 000537   200011 756100                    STQ     RELOCATION_CUR$,,AUTO

     5945    12272         /**/
     5946    12273    4                   END; /*Relocation loop*/

  12273  1 000540   200012 116100                    CMPQ    RELOCATION_END$,,AUTO
         1 000541   000411 602000 1                  TNC     s:12229

     5947    12274         /* There might be someone building new reloc
     5948    12275         records in reloc buffer. If so, XUO$PURGE_RELOC
     5949    12276         will write the records out. If no one
     5950    12277         is building new reloc records, no harm is
     5951    12278         done. */
     5952    12279
     5953    12280    3               CALL XUO$PURGE_BUFFERS (%TYPPROG, P_SECTION_NUMBER);

  12280  1 000542   200003 236100                    LDQ     @P_SECTION_NUMBER,,AUTO
         1 000543   000001 235000 2                  LDA     1
         1 000544   200030 757100                    STAQ    ERROR_CODE+2,,AUTO
         1 000545   200030 630500                    EPPR0   ERROR_CODE+2,,AUTO
         1 000546   000020 631400 xsym               EPPR1   B_VECTNIL+16
         1 000547   000000 701000 xent               TSX1    XUO$PURGE_BUFFERS
         1 000550   000000 011000                    NOP     0

     5954    12281         /**/
     5955    12282    3               IF RELOCATION_WRITE_REQUIRED THEN

  12282  1 000551   200015 234100                    SZN     RELOCATION_WRITE_REQUIRED,,AUTO
PL6.E3A0      #022=XUO$FRWD_REF File=XUO$BUILD.:E05TSI                           WED 07/30/97 09:34 Page:770
         1 000552   000565 605000 1                  TPL     s:12290

     5956    12283    4               DO; /*Write out buffer*/

     5957    12284    4                   XUO_RELOCATION_REWRITE.BUF_.BOUND=RELOCATION_SIZE-1;

  12284  1 000553   000000 470400 xsym               LDP0    XUO_RELOCATION_REWRITE$
         1 000554   200014 236100                    LDQ     RELOCATION_SIZE,,AUTO
         1 000555   000001 136007                    SBLQ    1,DL
         1 000556   000020 736000                    QLS     16
         1 000557   000004 676100                    ERQ     4,,PR0
         1 000560   000034 376000 xsym               ANQ     B_VECTNIL+28
         1 000561   000004 656100                    ERSQ    4,,PR0

     5958    12285    4                   CALL M$WRITE(XUO_RELOCATION_REWRITE) ALTRET(WRITE_ERROR);

  12285  1 000562   440001 713400                    CLIMB   alt,write
         1 000563   401400 401760                    pmme    nvectors=4
         1 000564   000723 702000 1                  TSX2    WRITE_ERROR

     5959    12286    4                   END;

     5960    12287         /**/
     5961    12288    3               END; /*Relocation processing*/

     5962    12289         /**/
     5963    12290    2           CALL M$READ(XUO_RELOCATION_READ) ALTRET(READ_ERROR);

  12290  1 000565   000000 470400 xsym               LDP0    XUO_RELOCATION_READ$
         1 000566   440000 713400                    CLIMB   alt,read
         1 000567   401400 401760                    pmme    nvectors=4
         1 000570   000620 702000 1                  TSX2    READ_ERROR

     5964    12291         /**/
     5965    12292    2           END; /*Section loop*/

  12292  1 000571   000000 470400 xsym               LDP0    B$FRWDKEY$
PL6.E3A0      #022=XUO$FRWD_REF File=XUO$BUILD.:E05TSI                           WED 07/30/97 09:34 Page:771
         1 000572   000001 236100                    LDQ     1,,PR0
         1 000573   777000 376007                    ANQ     -512,DL
         1 000574   012000 116007                    CMPQ    5120,DL
         1 000575   000612 601000 1                  TNZ     s:12294
         1 000576   200003 471500                    LDP1    @P_SECTION_NUMBER,,AUTO
         1 000577   000001 235100                    LDA     1,,PR0
         1 000600   000002 236100                    LDQ     2,,PR0
         1 000601   000033 773000                    LRL     27
         1 000602   777777 376007                    ANQ     -1,DL
         1 000603   100000 116100                    CMPQ    0,,PR1
         1 000604   000612 601000 1                  TNZ     s:12294
         1 000605   000000 235100                    LDA     0,,PR0
         1 000606   000001 236100                    LDQ     1,,PR0
         1 000607   000022 773000                    LRL     18
         1 000610   000000 116000 xsym               CMPQ    XUO_OU_UTS
         1 000611   000364 600000 1                  TZE     s:12210

     5966    12293         /**/
     5967    12294    1       BUFFER_CLEAR='0'B;

  12294  1 000612   200010 471500                    LDP1    RELOCATION_BASE$,,AUTO
         1 000613   200013 720100                    LXL0    RELOCATION_SIZE_TIMES_FOUR,,AUTO
         1 000614   000140 100400                    MLR     fill='000'O
         1 000615   000002 000001 xsym               ADSC9   B_VECTNIL+2              cn=0,n=1
         1 000616   100000 000010                    ADSC9   0,,PR1                   cn=0,n=*X0

     5968    12295         /**/
     5969    12296            %PAGE(ARG=ERROR_PROCESSING,PAGE=YES);

PL6.E3A0      #022=XUO$FRWD_REF File=XUO$BUILD.:E05TSI                           WED 07/30/97 09:34 Page:772
             12309    1   /*******************************************************************************
             12310    1   *                                                                              *
             12311    1   *        ERROR_PROCESSING              ERROR_PROCESSING                           *
             12312    1   *                                                                              *
             12313    1   *******************************************************************************/

     5970    12317         /*
     5971    12318         We may get a read error for several reasons.
     5972    12319         If we get an eof, that is valid. If we get
     5973    12320         other that that then we got a
     5974    12321         problem.
     5975    12322         Dont give up on this ou though!!
     5976    12323         */
     5977    12324    2   READ_ERROR_PROCESSOR: DO WHILE '0'B;

  12324  1 000617   000666 710000 1     READ_ERROR_* TRA     s:12342

  12290  1 000620                       READ_ERROR   null
     5978    12325    2   READ_ERROR: ;
     5979    12326    2           ERROR_CODE=B$TCB$->B$TCB.ALT$->B$ALT.ERR;

  12326  1 000620   000000 470400 xsym               LDP0    B$TCB$
         1 000621   000000 471500                    LDP1    0,,PR0
         1 000622   100102 236100                    LDQ     66,,PR1
         1 000623   200026 756100                    STQ     ERROR_CODE,,AUTO

     5980    12327    2           IF ERROR_CODE.CODE = %E$LD /* lost data, but on a record */

  12327  1 000624   200026 236100                    LDQ     ERROR_CODE,,AUTO
         1 000625   377770 376007                    ANQ     131064,DL
         1 000626   000070 116007                    CMPQ    56,DL
         1 000627   000643 601000 1                  TNZ     s:12333
         1 000630   000000 471400 xsym               LDP1    B$FRWDKEY$
         1 000631   100001 236100                    LDQ     1,,PR1
         1 000632   777000 376007                    ANQ     -512,DL
         1 000633   012000 116007                    CMPQ    5120,DL
         1 000634   000643 600000 1                  TZE     s:12333
PL6.E3A0      #022=XUO$FRWD_REF File=XUO$BUILD.:E05TSI                           WED 07/30/97 09:34 Page:773

     5981    12328    2              AND B$FRWDKEY.TYPE ~= %TYPPROG /* other than a prog/reloc */
     5982    12329    3           THEN DO;

     5983    12330    3               BUFFER_CLEAR = '0'B;

  12330  1 000635   200010 473500                    LDP3    RELOCATION_BASE$,,AUTO
         1 000636   200013 720100                    LXL0    RELOCATION_SIZE_TIMES_FOUR,,AUTO
         1 000637   000140 100400                    MLR     fill='000'O
         1 000640   000002 000001 xsym               ADSC9   B_VECTNIL+2              cn=0,n=1
         1 000641   300000 000010                    ADSC9   0,,PR3                   cn=0,n=*X0

     5984    12331    3               EXIT READ_ERROR_PROCESSOR;

  12331  1 000642   000666 710000 1                  TRA     s:12342

     5985    12332    3               END;
     5986    12333    2           IF ERROR_CODE.CODE~=%E$EOF THEN

  12333  1 000643   200026 236100                    LDQ     ERROR_CODE,,AUTO
         1 000644   377770 376007                    ANQ     131064,DL
         1 000645   000060 116007                    CMPQ    48,DL
         1 000646   000661 600000 1                  TZE     s:12339

     5987    12334    3           DO;

     5988    12335    3               IF XUO_ERROR_ROUTINE~=ENTADDR(NIL) THEN

  12335  1 000647   000000 236000 xsym               LDQ     XUO_ERROR_ROUTINE
         1 000650   000002 116000 xsym               CMPQ    B_VECTNIL+2
         1 000651   000661 600000 1                  TZE     s:12339

     5989    12336    3                   CALL XUO_ERROR_ROUTINE(ERROR_CODE);

  12336  1 000652   200026 631500                    EPPR1   ERROR_CODE,,AUTO
         1 000653   200030 451500                    STP1    ERROR_CODE+2,,AUTO
         1 000654   200030 630500                    EPPR0   ERROR_CODE+2,,AUTO
PL6.E3A0      #022=XUO$FRWD_REF File=XUO$BUILD.:E05TSI                           WED 07/30/97 09:34 Page:774
         1 000655   000000 220000 xsym               LDX0    XUO_ERROR_ROUTINE
         1 000656   000017 631400 xsym               EPPR1   B_VECTNIL+15
         1 000657   000000 701010                    TSX1    0,X0
         1 000660   000000 011000                    NOP     0

     5990    12337    3               END;

     5991    12338         /**/
     5992    12339    2           BUFFER_CLEAR='0'B;

  12339  1 000661   200010 470500                    LDP0    RELOCATION_BASE$,,AUTO
         1 000662   200013 720100                    LXL0    RELOCATION_SIZE_TIMES_FOUR,,AUTO
         1 000663   000140 100400                    MLR     fill='000'O
         1 000664   000002 000001 xsym               ADSC9   B_VECTNIL+2              cn=0,n=1
         1 000665   000000 000010                    ADSC9   0,,PR0                   cn=0,n=*X0

     5993    12340    2           END; /* Do while */

     5994    12341         /* Restore the buffer to active use in a section and the lru lust*/
     5995    12342    1       CALL XUM$CREATE_NEW_ITEM (LRU_VECTOR, PTR2_LRU$) ALTRET (ERR_LRU);

  12342  1 000666   200006 630500                    EPPR0   PTR2_LRU$,,AUTO
         1 000667   200031 450500                    STP0    ERROR_CODE+3,,AUTO
         1 000670   000000 236000 2                  LDQ     0
         1 000671   200030 756100                    STQ     ERROR_CODE+2,,AUTO
         1 000672   200030 630500                    EPPR0   ERROR_CODE+2,,AUTO
         1 000673   000020 631400 xsym               EPPR1   B_VECTNIL+16
         1 000674   000000 701000 xent               TSX1    XUM$CREATE_NEW_ITEM
         1 000675   000757 702000 1                  TSX2    ERR_LRU

     5996    12343    1       SECTION_ARRAY.PROGRAM_CURS(B_NUMBER_OF_SECTIONS) = 0;

  12343  1 000676   000000 235000 xsym               LDA     B_NUMBER_OF_SECTIONS
         1 000677   000003 735000                    ALS     3
         1 000700   000000 470400 xsym               LDP0    PTR2_SECTION_ARRAY$
         1 000701   000000 450105                    STZ     0,AL,PR0

PL6.E3A0      #022=XUO$FRWD_REF File=XUO$BUILD.:E05TSI                           WED 07/30/97 09:34 Page:775
     5997    12344    1       SECTION_ARRAY.RELOCATION_CURS(B_NUMBER_OF_SECTIONS) = 0;

  12344  1 000702   000000 235000 xsym               LDA     B_NUMBER_OF_SECTIONS
         1 000703   000003 735000                    ALS     3
         1 000704   000000 470400 xsym               LDP0    PTR2_SECTION_ARRAY$
         1 000705   000001 450105                    STZ     1,AL,PR0

     5998    12345    1       SECTION_ARRAY.PTR2_LRU$(B_NUMBER_OF_SECTIONS) = PTR2_LRU$;

  12345  1 000706   000000 235000 xsym               LDA     B_NUMBER_OF_SECTIONS
         1 000707   000003 735000                    ALS     3
         1 000710   200006 236100                    LDQ     PTR2_LRU$,,AUTO
         1 000711   000000 470400 xsym               LDP0    PTR2_SECTION_ARRAY$
         1 000712   000003 756105                    STQ     3,AL,PR0

     5999    12346    1       PTR2_LRU$->BUBIN = B_NUMBER_OF_SECTIONS;

  12346  1 000713   200006 470500                    LDP0    PTR2_LRU$,,AUTO
         1 000714   000000 235000 xsym               LDA     B_NUMBER_OF_SECTIONS
         1 000715   000000 755100                    STA     0,,PR0

     6000    12347    1       SECTION_ARRAY.BUF_OFFSET(B_NUMBER_OF_SECTIONS) = 0;

  12347  1 000716   000000 235000 xsym               LDA     B_NUMBER_OF_SECTIONS
         1 000717   000003 735000                    ALS     3
         1 000720   000000 470400 xsym               LDP0    PTR2_SECTION_ARRAY$
         1 000721   000006 450105                    STZ     6,AL,PR0

     6001    12348    1       RETURN;

  12348  1 000722   000000 702200 xent               TSX2  ! X66_ARET

  12347  1 000723                       WRITE_ERROR  null
     6002    12349         /**/
     6003    12350         /*
     6004    12351         There is no way that we should ever
     6005    12352         get a write error. If we do then there
PL6.E3A0      #022=XUO$FRWD_REF File=XUO$BUILD.:E05TSI                           WED 07/30/97 09:34 Page:776
     6006    12353         is something drastically wrong. Therefore
     6007    12354         in this case, check the close bit and close
     6008    12355         the file and lets not write any more.
     6009    12356         */
     6010    12357    1   WRITE_ERROR: ;
     6011    12358    1       ERROR_CODE=B$TCB$->B$TCB.ALT$->B$ALT.ERR;

  12358  1 000723   000000 470400 xsym               LDP0    B$TCB$
         1 000724   000000 471500                    LDP1    0,,PR0
         1 000725   100102 236100                    LDQ     66,,PR1
         1 000726   200026 756100                    STQ     ERROR_CODE,,AUTO

     6012    12359
     6013    12360    1       IF XUO_ERROR_ROUTINE~=ENTADDR(NIL) THEN

  12360  1 000727   000000 236000 xsym               LDQ     XUO_ERROR_ROUTINE
         1 000730   000002 116000 xsym               CMPQ    B_VECTNIL+2
         1 000731   000741 600000 1                  TZE     s:12363

     6014    12361    1           CALL XUO_ERROR_ROUTINE(ERROR_CODE);

  12361  1 000732   200026 631500                    EPPR1   ERROR_CODE,,AUTO
         1 000733   200030 451500                    STP1    ERROR_CODE+2,,AUTO
         1 000734   200030 630500                    EPPR0   ERROR_CODE+2,,AUTO
         1 000735   000000 220000 xsym               LDX0    XUO_ERROR_ROUTINE
         1 000736   000017 631400 xsym               EPPR1   B_VECTNIL+15
         1 000737   000000 701010                    TSX1    0,X0
         1 000740   000000 011000                    NOP     0

     6015    12362
     6016    12363    1       IF XUO_CLOSE_REQUIRED THEN

  12363  1 000741   000000 234000 xsym               SZN     XUO_CLOSE_REQUIRED
         1 000742   000747 605000 1                  TPL     IGNORE_CLOSE_ERROR

     6017    12364    1           CALL M$CLOSE (XUO_OU_CLOSE) ALTRET(IGNORE_CLOSE_ERROR);

PL6.E3A0      #022=XUO$FRWD_REF File=XUO$BUILD.:E05TSI                           WED 07/30/97 09:34 Page:777
  12364  1 000743   000000 470400 xsym               LDP0    XUO_OU_CLOSE$
         1 000744   450001 713400                    CLIMB   alt,close
         1 000745   406000 401760                    pmme    nvectors=13
         1 000746   000747 702000 1                  TSX2    IGNORE_CLOSE_ERROR

  12363  1 000747                       IGNORE_CLOS* null
     6018    12365    1   IGNORE_CLOSE_ERROR: ;
     6019    12366    1       XUO_OU_WRITE_REQUIRED='0'B;

  12366  1 000747   000000 450000 xsym               STZ     XUO_OU_WRITE_REQUIRED

     6020    12367         /**/
     6021    12368    1       BUFFER_CLEAR='0'B;

  12368  1 000750   200010 470500                    LDP0    RELOCATION_BASE$,,AUTO
         1 000751   200013 720100                    LXL0    RELOCATION_SIZE_TIMES_FOUR,,AUTO
         1 000752   000140 100400                    MLR     fill='000'O
         1 000753   000002 000001 xsym               ADSC9   B_VECTNIL+2              cn=0,n=1
         1 000754   000000 000010                    ADSC9   0,,PR0                   cn=0,n=*X0

     6022    12369    1       RETURN;

  12369  1 000755   000000 702200 xent               TSX2  ! X66_ARET

  12368  1 000756                       ERR          null
     6023    12370         /**/
     6024    12371    1   ERR: ;
     6025    12372    1       RETURN;

  12372  1 000756   000000 702200 xent               TSX2  ! X66_ARET

  12368  1 000757                       ERR_LRU      null
     6026    12373    1   ERR_LRU: ;
     6027    12374    1       RETURN;

  12374  1 000757   000000 702200 xent               TSX2  ! X66_ARET
     6028    12375    1   END XUO$FRWD_REF;
PL6.E3A0      #022=XUO$FRWD_REF File=XUO$BUILD.:E05TSI                           WED 07/30/97 09:34 Page:778
     6029    12376        %EOD;

PL6.E3A0      #022=XUO$FRWD_REF File=XUO$BUILD.:E05TSI                           WED 07/30/97 09:34 Page:779
--  Include file information  --

   XUM_ENTRIES_C.:E05TOU  is referenced.
   B_ERRORS_C.:E05TOU  is referenced.
   XUO$OBJ_C.:E05TOU  is referenced.
   B$OBJECT_C.:E05TOU  is referenced.
   CP_6_SUBS.:E05TOU  is referenced.
   CP_6_C.:E05TOU  is referenced.
   CP_6.:E05TOU  cannot be made into a system file and is referenced.
   ZVA_FLAGS.:TOOLE04  is referenced.
   ZVA_SYSTEM_FILE.:TOOLE04  is referenced.
      No diagnostics issued in procedure XUO$FRWD_REF.
PL6.E3A0      #022=XUO$FRWD_REF File=XUO$BUILD.:E05TSI                           WED 07/30/97 09:34 Page:780

 **** Variables and constants ****

  ****  Auto variables  ****

  ****  Scalars and arrays  ****
OctLoc.c.b A Datatyp(siz) R M Lvl/name                 OctLoc.c.b A Datatyp(siz) R M Lvl/name

     5-0-0/w PTR         r     1 @P_DCB_PTR$                4-0-0/w PTR         r     1 @P_LOOKUP_ROUTINE
     3-0-0/w PTR         r     1 @P_SECTION_NUMBER         24-0-0/w SBIN        r     1 A_ENDING_BIT
    21-0-0/w UBIN        r     1 A_NEW_OPERAND             20-0-0/w UBIN        r     1 A_OPERAND_TYPE
    22-0-0/w SBIN        r     1 A_RELOC_OPERATOR          23-0-0/w SBIN        r     1 A_STARTING_BIT
    26-0-0/b STRC        r     1 ERROR_CODE                16-0-0/w EPTR        r     1 LOOKUP_ROUTINE
    17-0-0/w UBIN        r     1 OLD_OPERAND               25-0-0/w UBIN        r     1 OLD_SECOFF
     6-0-0/w PTR         r     1 PTR2_LRU$                 *0-0-0/w PTR         r     1 P_DCB_PTR$
    *0-0-0/w EPTR        r     1 P_LOOKUP_ROUTINE          *0-0-0/w UBIN        r     1 P_SECTION_NUMBER
    10-0-0/w PTR         r     1 RELOCATION_BASE$          11-0-0/w PTR         r     1 RELOCATION_CUR$
    12-0-0/w PTR         r     1 RELOCATION_END$           14-0-0/w UBIN        r     1 RELOCATION_SIZE
    13-0-0/w UBIN        r     1 RELOCATION_SIZE_TIMES_FOUR
    15-0-0/b BIT         r     1 RELOCATION_WRITE_REQUIRED

  ****  SYMREF variables  ****

  ****  Scalars and arrays  ****
OctLoc.c.b A Datatyp(siz) R M Lvl/name                 OctLoc.c.b A Datatyp(siz) R M Lvl/name

     0-0-0/w PTR         r     1 B$FRWDKEY$                 0-0-0/w PTR         r     1 B$TCB$
     0-0-0/w UBIN        r     1 B_NUMBER_OF_SECTIONS
     0-0-0/w SBIN        r     1 B_RELOCATION_PAGE_SIZE
     0-0-0/d VECT        r     1 LRU_VECTOR                 0-0-0/w PTR         r     1 PTR2_SECTION_ARRAY$
     0-0-0/w BIT         r     1 XUO_CLOSE_REQUIRED         0-0-0/w EPTR        r     1 XUO_ERROR_ROUTINE
     0-0-0/w SBIN        r     1 XUO_MOST_RECENT_SECTION
     0-0-0/w PTR         r     1 XUO_OU_CLOSE$              0-0-0/w UBIN        r     1 XUO_OU_UTS
     0-0-0/w BIT         r     1 XUO_OU_WRITE_REQUIRED
     0-0-0/w PTR         r     1 XUO_RELOCATION_READ$
     0-0-0/w PTR         r     1 XUO_RELOCATION_REWRITE$

  ****  BASED and DCB variables  ****
PL6.E3A0      #022=XUO$FRWD_REF File=XUO$BUILD.:E05TSI                           WED 07/30/97 09:34 Page:781

  ****  Scalars and arrays  ****
OctLoc.c.b A Datatyp(siz) R M Lvl/name                 OctLoc.c.b A Datatyp(siz) R M Lvl/name

     0-0-0/w STRC(2448)  r     1 B$ALT                      0-0-0/w STRC(117)   r     1 B$FRWDKEY
     0-0-0/w STRC(108)   r     1 B$RELOC2                   0-0-0/w STRC(144)   r     1 B$TCB
     0-0-0/w UBIN        r     1 BUBIN                      0-0-0/c ASTR(0)     r     1 BUFFER_CLEAR
     0-0-0/d ASTR(3528)  r     1 F$DCB
     0-0-0/w STRC(288)   r     1 SECTION_ARRAY(0:0)
     0-0-0/d STRC(1080)  r     1 XUO_OU_CLOSE               0-0-0/d STRC(504)   r     1 XUO_RELOCATION_READ
     0-0-0/d STRC(432)   r     1 XUO_RELOCATION_REWRITE


   Procedure XUO$FRWD_REF requires 496 words for executable code.
   Procedure XUO$FRWD_REF requires 32 words of local(AUTO) storage.
PL6.E3A0      #022=XUO$FRWD_REF File=XUO$BUILD.:E05TSI                           WED 07/30/97 09:34 Page:782
          *** CROSS REFERENCE LISTING ***
**     DENOTES     IDENTIFIER DEFINITION
<<                 IDENTIFIER'S VALUE SET
>>                 IDENTIFIER'S VALUE USED
<>                 IDENTIFIER SET AND/OR USED
--                 IDENTIFIER REFERENCED
PL6.E3A0      #022=XUO$FRWD_REF File=XUO$BUILD.:E05TSI                           WED 07/30/97 09:34 Page:783
          MINI XREF LISTING

A_ENDING_BIT
     11767**DCL     12241<<ASSIGN  12247<>CALL    12257>>ASSIGN
A_NEW_OPERAND
     11761**DCL     12238<<ASSIGN  12247<>CALL    12254>>ASSIGN
A_OPERAND_TYPE
     11759**DCL     12237<<ASSIGN  12247<>CALL    12253>>ASSIGN
A_RELOC_OPERATOR
     11763**DCL     12239<<ASSIGN  12247<>CALL    12255>>ASSIGN
A_STARTING_BIT
     11765**DCL     12240<<ASSIGN  12247<>CALL    12256>>ASSIGN
B$ALT.CODE
     11991**DCL     11991--REDEF   11992--REDEF   11992--REDEF
B$ALT.ERR
     11992**DCL     12326>>ASSIGN  12358>>ASSIGN
B$ALT.ERR.ERR#
     11993**DCL     11993--REDEF
B$ALT.EVID
     11992**DCL     11992--REDEF   11992--REDEF
B$FRWDKEY.KEYSIZ
     11523**DCL     12172<<ASSIGN
B$FRWDKEY.NOTHD
     11527**DCL     12173<<ASSIGN
B$FRWDKEY.OFFSET
     11537**DCL     12176<<ASSIGN  12242>>ASSIGN
B$FRWDKEY.SECTNUM
     11534**DCL     12175<<ASSIGN  12205>>DOWHILE
B$FRWDKEY.SEQUENCE
     11545**DCL     12179<<ASSIGN
B$FRWDKEY.SUBTYPE
     11540**DCL     12178<<ASSIGN  12210>>IF
B$FRWDKEY.TYPE
     11532**DCL     12177<<ASSIGN  12205>>DOWHILE 12327>>IF
PL6.E3A0      #022=XUO$FRWD_REF File=XUO$BUILD.:E05TSI                           WED 07/30/97 09:34 Page:784
B$FRWDKEY.UTS
     11529**DCL     12174<<ASSIGN  12205>>DOWHILE
B$FRWDKEY$
     11520**DCL     11522--IMP-PTR 12172>>ASSIGN  12173>>ASSIGN  12174>>ASSIGN  12175>>ASSIGN  12176>>ASSIGN
     12177>>ASSIGN  12178>>ASSIGN  12179>>ASSIGN  12205>>DOWHILE 12205>>DOWHILE 12205>>DOWHILE 12210>>IF
     12242>>ASSIGN  12327>>IF
B$RELOC2.DISP
     11708**DCL     12242>>ASSIGN
B$RELOC2.ENDBIT
     11714**DCL     12241>>ASSIGN  12257<<ASSIGN
B$RELOC2.EVALOP
     11667**DCL     12264>>IF
B$RELOC2.MBZ
     11657**DCL     12229>>IF
B$RELOC2.OPERAND
     11703**DCL     12233>>ASSIGN  12254<<ASSIGN
B$RELOC2.OPNDTYP
     11659**DCL     12231>>IF      12253<<ASSIGN
B$RELOC2.RELOCOP
     11687**DCL     12239>>ASSIGN  12255<<ASSIGN
B$RELOC2.STBIT
     11711**DCL     12240>>ASSIGN  12256<<ASSIGN
B$TCB.ALT$
     11987**DCL     12326>>ASSIGN  12358>>ASSIGN
B$TCB$
     11998**DCL     12326>>ASSIGN  12358>>ASSIGN
BUBIN
     11467**DCL     12113<>CALL    12114>>ASSIGN  12116>>ASSIGN  12118>>ASSIGN  12121>>ASSIGN  12122>>ASSIGN
     12123>>ASSIGN  12124>>ASSIGN  12125>>ASSIGN  12126>>ASSIGN  12128<<ASSIGN  12346<<ASSIGN
BUFFER_CLEAR
     12027**DCL     12294<<ASSIGN  12330<<ASSIGN  12339<<ASSIGN  12368<<ASSIGN
B_NUMBER_OF_SECTIONS
     11454**DCL     12149>>ASSIGN  12150>>ASSIGN  12151>>ASSIGN  12152>>ASSIGN  12153>>ASSIGN  12154>>ASSIGN
     12156>>ASSIGN  12158>>ASSIGN  12181>>ASSIGN  12343>>ASSIGN  12344>>ASSIGN  12345>>ASSIGN  12346>>ASSIGN
     12347>>ASSIGN
B_RELOCATION_PAGE_SIZE
PL6.E3A0      #022=XUO$FRWD_REF File=XUO$BUILD.:E05TSI                           WED 07/30/97 09:34 Page:785
     11622**DCL     12182>>ASSIGN
ERR
     12368**LABEL   12113--CALLALT 12136--CALLALT
ERROR_CODE
     12000**DCL     12326<<ASSIGN  12336<>CALL    12358<<ASSIGN  12361<>CALL
ERROR_CODE.CODE
     12003**DCL     12327>>IF      12333>>IF
ERR_LRU
     12368**LABEL   12112--CALLALT 12146--CALLALT 12342--CALLALT
F$DCB.ACTPOS
     11940**DCL     11940--REDEF
F$DCB.ARS#
     11914**DCL     11914--REDEF   12214>>ASSIGN
F$DCB.ATTR
     11933**DCL     11934--REDEF
F$DCB.BORROW
     11948**DCL     11948--REDEF   11948--REDEF   11948--REDEF
F$DCB.DCBNAME.L
     11962**DCL     11962--IMP-SIZ
F$DCB.EOMCHAR#
     11918**DCL     11918--REDEF
F$DCB.FLDID
     11943**DCL     11943--REDEF
F$DCB.FORM$
     11937**DCL     11937--REDEF
F$DCB.FSECT
     11953**DCL     11953--REDEF
F$DCB.FSN#
     11930**DCL     11930--REDEF   11930--REDEF   11931--REDEF
F$DCB.HEADER$
     11936**DCL     11936--REDEF
F$DCB.IXTNSIZE#
     11934**DCL     11934--REDEF
F$DCB.LASTSTA$
     11923**DCL     11923--REDEF
F$DCB.LVL
PL6.E3A0      #022=XUO$FRWD_REF File=XUO$BUILD.:E05TSI                           WED 07/30/97 09:34 Page:786
     11949**DCL     11949--REDEF
F$DCB.NAME#.C
     11924**DCL     11924--REDEF
F$DCB.NOEOF
     11946**DCL     11946--REDEF
F$DCB.NRECS#
     11935**DCL     11935--REDEF
F$DCB.NRECX
     11954**DCL     11954--REDEF
F$DCB.OHDR
     11946**DCL     11946--REDEF
F$DCB.ORG#
     11929**DCL     11929--REDEF
F$DCB.PRECNO
     11952**DCL     11952--REDEF
F$DCB.RCSZ
     11958**DCL     11958--REDEF
F$DCB.RES#
     11925**DCL     11925--REDEF
F$DCB.SETX
     11937**DCL     11937--REDEF
F$DCB.TAB$
     11937**DCL     11937--REDEF
F$DCB.TDA
     11951**DCL     11952--REDEF
F$DCB.WSN#
     11925**DCL     11925--REDEF
IGNORE_CLOSE_ERROR
     12363**LABEL   12364--CALLALT
IGNORE_ERROR
     12197**LABEL   12198--CALLALT
LOOKUP_ROUTINE
     11755**DCL     12168<<ASSIGN  12247>>CALL
LRU_VECTOR
     11452**DCL     12112<>CALL    12146<>CALL    12342<>CALL
M$CLOSE
PL6.E3A0      #022=XUO$FRWD_REF File=XUO$BUILD.:E05TSI                           WED 07/30/97 09:34 Page:787
      5602**DCL-ENT 12364--CALL
M$READ
      5603**DCL-ENT 12198--CALL    12290--CALL
M$WRITE
      5603**DCL-ENT 12285--CALL
OLD_OPERAND
     11757**DCL     12233<<ASSIGN  12247<>CALL
OLD_SECOFF
     11769**DCL     12242<<ASSIGN  12247<>CALL
PTR2_LRU$
     11469**DCL     12112<>CALL    12113>>CALL    12114>>ASSIGN  12116>>ASSIGN  12118>>ASSIGN  12121>>ASSIGN
     12122>>ASSIGN  12123>>ASSIGN  12124>>ASSIGN  12125>>ASSIGN  12126>>ASSIGN  12128>>ASSIGN  12342<>CALL
     12345>>ASSIGN  12346>>ASSIGN
PTR2_SECTION_ARRAY$
     11453**DCL     11456--IMP-PTR 12110>>IF      12114>>ASSIGN  12114>>ASSIGN  12116>>ASSIGN  12116>>ASSIGN
     12118>>ASSIGN  12118>>ASSIGN  12121>>ASSIGN  12122>>ASSIGN  12123>>ASSIGN  12124>>ASSIGN  12125>>ASSIGN
     12126>>ASSIGN  12134>>IF      12146>>CALL    12149>>ASSIGN  12150>>ASSIGN  12151>>ASSIGN  12152>>ASSIGN
     12153>>ASSIGN  12154>>ASSIGN  12156>>ASSIGN  12156>>ASSIGN  12158>>ASSIGN  12158>>ASSIGN  12161>>ASSIGN
     12162>>ASSIGN  12163>>ASSIGN  12164>>ASSIGN  12165>>ASSIGN  12166>>ASSIGN  12181>>ASSIGN  12343>>ASSIGN
     12344>>ASSIGN  12345>>ASSIGN  12347>>ASSIGN
P_DCB_PTR$
     11497**DCL        89--PROC    12214>>ASSIGN
P_LOOKUP_ROUTINE
     11495**DCL        89--PROC    12168>>ASSIGN
P_SECTION_NUMBER
     11493**DCL        89--PROC    12110>>IF      12114>>ASSIGN  12116>>ASSIGN  12118>>ASSIGN  12128>>ASSIGN
     12134>>IF      12136<>CALL    12146>>CALL    12156>>ASSIGN  12158>>ASSIGN  12161>>ASSIGN  12162>>ASSIGN
     12163>>ASSIGN  12164>>ASSIGN  12165>>ASSIGN  12166>>ASSIGN  12175>>ASSIGN  12205>>DOWHILE 12280<>CALL
READ_ERROR
     12290**LABEL   12290--CALLALT
READ_ERROR_PROCESSOR
     12324**LABEL   12331--EXIT
RELOCATION_BASE$
     11743**DCL     12027--IMP-PTR 12181<<ASSIGN  12187>>ASSIGN  12191>>ASSIGN  12213>>ASSIGN  12215>>ASSIGN
     12294>>ASSIGN  12330>>ASSIGN  12339>>ASSIGN  12368>>ASSIGN
RELOCATION_CUR$
PL6.E3A0      #022=XUO$FRWD_REF File=XUO$BUILD.:E05TSI                           WED 07/30/97 09:34 Page:788
     11745**DCL     11625--IMP-PTR 11656--IMP-PTR 12213<<ASSIGN  12221>>DOWHILE 12229>>IF      12231>>IF
     12233>>ASSIGN  12239>>ASSIGN  12240>>ASSIGN  12241>>ASSIGN  12242>>ASSIGN  12253>>ASSIGN  12254>>ASSIGN
     12255>>ASSIGN  12256>>ASSIGN  12257>>ASSIGN  12264>>IF      12265<<ASSIGN  12265>>ASSIGN  12267<<ASSIGN
     12267>>ASSIGN  12271<<ASSIGN  12271>>ASSIGN
RELOCATION_END$
     11747**DCL     12215<<ASSIGN  12221>>DOWHILE
RELOCATION_SIZE
     11751**DCL     12182<<ASSIGN  12188>>ASSIGN  12214<<ASSIGN  12215>>ASSIGN  12284>>ASSIGN
RELOCATION_SIZE_TIMES_FOUR
     11749**DCL     12028--IMP-SIZ 12188<<ASSIGN  12189>>ASSIGN  12294>>ASSIGN  12330>>ASSIGN  12339>>ASSIGN
     12368>>ASSIGN
RELOCATION_WRITE_REQUIRED
     11753**DCL     12212<<ASSIGN  12258<<ASSIGN  12282>>IF
SECTION_ARRAY.BUF_OFFSET
     11463**DCL     12126<<ASSIGN  12154<<ASSIGN  12166<<ASSIGN  12347<<ASSIGN
SECTION_ARRAY.PROGRAM_CURS
     11457**DCL     12121<<ASSIGN  12134>>IF      12149<<ASSIGN  12161<<ASSIGN  12343<<ASSIGN
SECTION_ARRAY.PTR2_LRU$
     11460**DCL     12110>>IF      12114<<ASSIGN  12114>>ASSIGN  12125<<ASSIGN  12146<>CALL    12153<<ASSIGN
     12165<<ASSIGN  12345<<ASSIGN
SECTION_ARRAY.PTR2_PROGRAM_BUF$
     11461**DCL     12118<<ASSIGN  12118>>ASSIGN  12123<<ASSIGN  12151<<ASSIGN  12158<<ASSIGN  12158>>ASSIGN
     12163<<ASSIGN
SECTION_ARRAY.PTR2_RELOCATION_BUF$
     11462**DCL     12116<<ASSIGN  12116>>ASSIGN  12124<<ASSIGN  12152<<ASSIGN  12156<<ASSIGN  12156>>ASSIGN
     12164<<ASSIGN  12181>>ASSIGN
SECTION_ARRAY.RELOCATION_CURS
     11458**DCL     12122<<ASSIGN  12150<<ASSIGN  12162<<ASSIGN  12344<<ASSIGN
WRITE_ERROR
     12347**LABEL   12285--CALLALT
XUM$CREATE_NEW_ITEM
     11352**DCL-ENT 12342--CALL
XUM$DELETE_ITEM
     11356**DCL-ENT 12146--CALL
XUM$GET_LRU_ITEM
     11353**DCL-ENT 12112--CALL
PL6.E3A0      #022=XUO$FRWD_REF File=XUO$BUILD.:E05TSI                           WED 07/30/97 09:34 Page:789
XUO$PURGE_BUFFERS
     11438**DCL-ENT 12113--CALL    12136--CALL    12280--CALL
XUO_CLOSE_REQUIRED
     12052**DCL     12363>>IF
XUO_ERROR_ROUTINE
     12051**DCL     12335>>IF      12336>>CALL    12360>>IF      12361>>CALL
XUO_MOST_RECENT_SECTION
     12054**DCL     12148<<ASSIGN
XUO_OU_CLOSE
     11888**DCL     12364<>CALL
XUO_OU_CLOSE.SN_
     11888**DCL     11888--REDEF
XUO_OU_CLOSE.UTL_
     11889**DCL     11889--REDEF
XUO_OU_CLOSE.V.EXPIRE#
     11903**DCL     11903--REDEF
XUO_OU_CLOSE.V.TYPE#
     11901**DCL     11901--REDEF
XUO_OU_CLOSE.V.XTNSIZE#
     11898**DCL     11898--REDEF   11900--REDEF
XUO_OU_CLOSE$
     11864**DCL     11888--IMP-PTR 12364>>CALL
XUO_OU_UTS
     12050**DCL     12174>>ASSIGN  12205>>DOWHILE
XUO_OU_WRITE_REQUIRED
     12053**DCL     12103>>IF      12366<<ASSIGN
XUO_RELOCATION_READ
     11810**DCL     12198<>CALL    12290<>CALL
XUO_RELOCATION_READ.BUF_.BOUND
     11812**DCL     12189<<ASSIGN
XUO_RELOCATION_READ.BUF_.BUF$
     11813**DCL     12187<<ASSIGN
XUO_RELOCATION_READ.STATION_
     11813**DCL     11814--REDEF
XUO_RELOCATION_READ.V.DVBYTE.REREAD#
     11825**DCL     11825--REDEF
PL6.E3A0      #022=XUO$FRWD_REF File=XUO$BUILD.:E05TSI                           WED 07/30/97 09:34 Page:790
XUO_RELOCATION_READ.V.INDX#
     11823**DCL     11823--REDEF
XUO_RELOCATION_READ.V.KEYS#
     11815**DCL     12197<<ASSIGN  12203<<ASSIGN
XUO_RELOCATION_READ$
     11792**DCL     11810--IMP-PTR 12187>>ASSIGN  12189>>ASSIGN  12197>>ASSIGN  12198>>CALL    12203>>ASSIGN
     12290>>CALL
XUO_RELOCATION_REWRITE
     11850**DCL     12285<>CALL
XUO_RELOCATION_REWRITE.BUF_.BOUND
     11850**DCL     12284<<ASSIGN
XUO_RELOCATION_REWRITE.BUF_.BUF$
     11852**DCL     12191<<ASSIGN
XUO_RELOCATION_REWRITE.STATION_
     11852**DCL     11852--REDEF
XUO_RELOCATION_REWRITE.V.DVBYTE.VFC#
     11859**DCL     11859--REDEF
XUO_RELOCATION_REWRITE$
     11832**DCL     11850--IMP-PTR 12191>>ASSIGN  12284>>ASSIGN  12285>>CALL

PL6.E3A0      #023=XUO$PURGE_BUFFERS File=XUO$BUILD.:E05TSI                      WED 07/30/97 09:35 Page:791
     6030        1        /*T***********************************************************/
     6031        2        /*T*                                                         */
     6032        3        /*T* Copyright (c) Bull HN Information Systems Inc., 1997    */
     6033        4        /*T*                                                         */
     6034        5        /*T***********************************************************/
     6035        6        XUO$PURGE_BUFFERS: PROC ( BUF_TYPE,BUF_NUM) ALTRET;
     6036        7        %INCLUDE XUO$OBJ_C;
     6037      417        %INCLUDE B$OBJECT_C;
     6038     3847
     6039     3848    1   DCL BUF_TYPE UBIN;
     6040     3849    1   DCL BUF_NUM UBIN;
     6041     3850
     6042     3851        %B$RECORDSUBS;
     6043     3879        %B_MULTIBUF_VARS;
     6044     3906
     6045     3907    1   DCL XUO$OUWRITE ENTRY (2);
     6046     3908
     6047     3909    1       IF BUF_TYPE = %TYPPROG
     6048     3910    2       THEN DO;
     6049     3911    2           IF SECTION_ARRAY.PROGRAM_CURS (BUF_NUM) > 0
     6050     3912    3           THEN DO;
     6051     3913    3               CALL XUO$OUWRITE (%TYPPROG, BUF_NUM);
     6052     3914    3               SECTION_ARRAY.PROGRAM_CURS (BUF_NUM) = 0;
     6053     3915    3               END;
     6054     3916    2           IF SECTION_ARRAY.RELOCATION_CURS (BUF_NUM) > 0
     6055     3917    3           THEN DO;
     6056     3918    3               CALL XUO$OUWRITE (%TYPRELOC, BUF_NUM);
     6057     3919    3               SECTION_ARRAY.RELOCATION_CURS (BUF_NUM) = 0;
     6058     3920    3               END;
     6059     3921    2           END;
     6060     3922    1       ELSE IF BUF_TYPE = %TYPRELOC
     6061     3923    2           THEN DO;
     6062     3924    2               IF SECTION_ARRAY.RELOCATION_CURS (BUF_NUM) > 0
     6063     3925    3               THEN DO;
     6064     3926    3                   CALL XUO$OUWRITE (%TYPRELOC, BUF_NUM);
     6065     3927    3                   SECTION_ARRAY.RELOCATION_CURS (BUF_NUM) = 0;
     6066     3928    3                   END;
PL6.E3A0      #023=XUO$PURGE_BUFFERS File=XUO$BUILD.:E05TSI                      WED 07/30/97 09:35 Page:792
     6067     3929    2               END;
     6068     3930    2           ELSE DO;
     6069     3931    2               ALTRETURN;
     6070     3932    2               END;
     6071     3933    1       RETURN;
     6072     3934    1   END XUO$PURGE_BUFFERS;

PL6.E3A0      #023=XUO$PURGE_BUFFERS File=XUO$BUILD.:E05TSI                      WED 07/30/97 09:35 Page:793
--  Include file information  --

   B$OBJECT_C.:E05TOU  is referenced.
   XUO$OBJ_C.:E05TOU  is referenced.
      No diagnostics issued in procedure XUO$PURGE_BUFFERS.

   Procedure XUO$PURGE_BUFFERS requires 66 words for executable code.
   Procedure XUO$PURGE_BUFFERS requires 8 words of local(AUTO) storage.

    No errors detected in file XUO$BUILD.:E05TSI    .

PL6.E3A0      #023=XUO$PURGE_BUFFERS File=XUO$BUILD.:E05TSI                      WED 07/30/97 09:35 Page:794

 Object Unit name= XUO$PURGE_BUFFERS                          File name= XUO$BUILD.:E05TOU
 UTS= JUL 30 '97 09:35:21.80 WED                              Compiler= PL-6/E31         Sev=      00
 SharedLib= :SHARED_SYSTEM                                    Alt SharedLib=


    ****  Control sections  ****

 Sect   Type Bound  Init  Size OctSiz  Section name(segment info)
    0   Proc  even  none    66    102  XUO$PURGE_BUFFERS
    1  RoData even  none     3      3  XUO$PURGE_BUFFERS

    ****  Entry defs  ****

                              Check   Calling
                             calling  sequence
  Sect OctLoc Primary Altret sequence   type   Parms  Name
     0      0   yes    yes     yes      Std        2  XUO$PURGE_BUFFERS

  ****  Entry refs  ****

         Check        Calling
        calling       sequence
Altret sequence SRef   type   Args  Name
         yes           Std       2 XUO$OUWRITE
                       nStd      0 X66_AUTO_2
                       Std       0 B_CONSPOOL_D
                       nStd      0 X66_AALT
                       nStd      0 X66_ARET

  ****  Data refs  ****

  Flags:  r = read only, s = secondary
Flgs Name                             Flgs Name                             Flgs Name
     PTR2_SECTION_ARRAY$                   B_VECTNIL
PL6.E3A0      #023=XUO$PURGE_BUFFERS File=XUO$BUILD.:E05TSI                      WED 07/30/97 09:35 Page:795

  ****  Segment refs  ****

  Flags:  r = read only, s = secondary
Flgs Name                             Flgs Name                             Flgs Name
     ISSID
PL6.E3A0      #023=XUO$PURGE_BUFFERS File=XUO$BUILD.:E05TSI                      WED 07/30/97 09:35 Page:796


     6030        1        /*T***********************************************************/
     6031        2        /*T*                                                         */
     6032        3        /*T* Copyright (c) Bull HN Information Systems Inc., 1997    */
     6033        4        /*T*                                                         */
     6034        5        /*T***********************************************************/
     6035        6        XUO$PURGE_BUFFERS: PROC ( BUF_TYPE,BUF_NUM) ALTRET;

      6  0 000000   000000 700200 xent  XUO$PURGE_B* TSX0  ! X66_AUTO_2
         0 000001   000010 000002                    ZERO    8,2

     6036        7        %INCLUDE XUO$OBJ_C;
     6037      417        %INCLUDE B$OBJECT_C;
     6038     3847
     6039     3848    1   DCL BUF_TYPE UBIN;
     6040     3849    1   DCL BUF_NUM UBIN;
     6041     3850
     6042     3851        %B$RECORDSUBS;
     6043     3879        %B_MULTIBUF_VARS;
     6044     3906
     6045     3907    1   DCL XUO$OUWRITE ENTRY (2);
     6046     3908
     6047     3909    1       IF BUF_TYPE = %TYPPROG

   3909  0 000002   200003 470500                    LDP0    @BUF_TYPE,,AUTO
         0 000003   000000 235100                    LDA     0,,PR0
         0 000004   000012 115007                    CMPA    10,DL
         0 000005   000053 601000 0                  TNZ     s:3922

     6048     3910    2       THEN DO;

     6049     3911    2           IF SECTION_ARRAY.PROGRAM_CURS (BUF_NUM) > 0

   3911  0 000006   200004 471500                    LDP1    @BUF_NUM,,AUTO
         0 000007   100000 235100                    LDA     0,,PR1
         0 000010   000003 735000                    ALS     3
         0 000011   000000 473400 xsym               LDP3    PTR2_SECTION_ARRAY$
PL6.E3A0      #023=XUO$PURGE_BUFFERS File=XUO$BUILD.:E05TSI                      WED 07/30/97 09:35 Page:797
         0 000012   300000 235105                    LDA     0,AL,PR3
         0 000013   000030 600000 0                  TZE     s:3916

     6050     3912    3           THEN DO;

     6051     3913    3               CALL XUO$OUWRITE (%TYPPROG, BUF_NUM);

   3913  0 000014   200004 236100                    LDQ     @BUF_NUM,,AUTO
         0 000015   000000 235000 1                  LDA     0
         0 000016   200006 757100                    STAQ    @BUF_NUM+2,,AUTO
         0 000017   200006 630500                    EPPR0   @BUF_NUM+2,,AUTO
         0 000020   000020 631400 xsym               EPPR1   B_VECTNIL+16
         0 000021   000000 701000 xent               TSX1    XUO$OUWRITE
         0 000022   000000 011000                    NOP     0

     6052     3914    3               SECTION_ARRAY.PROGRAM_CURS (BUF_NUM) = 0;

   3914  0 000023   200004 470500                    LDP0    @BUF_NUM,,AUTO
         0 000024   000000 235100                    LDA     0,,PR0
         0 000025   000003 735000                    ALS     3
         0 000026   000000 471400 xsym               LDP1    PTR2_SECTION_ARRAY$
         0 000027   100000 450105                    STZ     0,AL,PR1

     6053     3915    3               END;

     6054     3916    2           IF SECTION_ARRAY.RELOCATION_CURS (BUF_NUM) > 0

   3916  0 000030   200004 470500                    LDP0    @BUF_NUM,,AUTO
         0 000031   000000 235100                    LDA     0,,PR0
         0 000032   000003 735000                    ALS     3
         0 000033   000000 471400 xsym               LDP1    PTR2_SECTION_ARRAY$
         0 000034   100001 235105                    LDA     1,AL,PR1
         0 000035   000101 600000 0                  TZE     s:3933

     6055     3917    3           THEN DO;

     6056     3918    3               CALL XUO$OUWRITE (%TYPRELOC, BUF_NUM);
PL6.E3A0      #023=XUO$PURGE_BUFFERS File=XUO$BUILD.:E05TSI                      WED 07/30/97 09:35 Page:798

   3918  0 000036   200004 236100                    LDQ     @BUF_NUM,,AUTO
         0 000037   000002 235000 1                  LDA     2
         0 000040   200006 757100                    STAQ    @BUF_NUM+2,,AUTO
         0 000041   200006 630500                    EPPR0   @BUF_NUM+2,,AUTO
         0 000042   000020 631400 xsym               EPPR1   B_VECTNIL+16
         0 000043   000000 701000 xent               TSX1    XUO$OUWRITE
         0 000044   000000 011000                    NOP     0

     6057     3919    3               SECTION_ARRAY.RELOCATION_CURS (BUF_NUM) = 0;

   3919  0 000045   200004 470500                    LDP0    @BUF_NUM,,AUTO
         0 000046   000000 235100                    LDA     0,,PR0
         0 000047   000003 735000                    ALS     3
         0 000050   000000 471400 xsym               LDP1    PTR2_SECTION_ARRAY$
         0 000051   100001 450105                    STZ     1,AL,PR1

     6058     3920    3               END;

     6059     3921    2           END;

   3921  0 000052   000101 710000 0                  TRA     s:3933

     6060     3922    1       ELSE IF BUF_TYPE = %TYPRELOC

   3922  0 000053   000020 115007                    CMPA    16,DL
         0 000054   000100 601000 0                  TNZ     s:3931

     6061     3923    2           THEN DO;

     6062     3924    2               IF SECTION_ARRAY.RELOCATION_CURS (BUF_NUM) > 0

   3924  0 000055   200004 471500                    LDP1    @BUF_NUM,,AUTO
         0 000056   100000 235100                    LDA     0,,PR1
         0 000057   000003 735000                    ALS     3
         0 000060   000000 473400 xsym               LDP3    PTR2_SECTION_ARRAY$
         0 000061   300001 235105                    LDA     1,AL,PR3
PL6.E3A0      #023=XUO$PURGE_BUFFERS File=XUO$BUILD.:E05TSI                      WED 07/30/97 09:35 Page:799
         0 000062   000101 600000 0                  TZE     s:3933

     6063     3925    3               THEN DO;

     6064     3926    3                   CALL XUO$OUWRITE (%TYPRELOC, BUF_NUM);

   3926  0 000063   200004 236100                    LDQ     @BUF_NUM,,AUTO
         0 000064   000002 235000 1                  LDA     2
         0 000065   200006 757100                    STAQ    @BUF_NUM+2,,AUTO
         0 000066   200006 630500                    EPPR0   @BUF_NUM+2,,AUTO
         0 000067   000020 631400 xsym               EPPR1   B_VECTNIL+16
         0 000070   000000 701000 xent               TSX1    XUO$OUWRITE
         0 000071   000000 011000                    NOP     0

     6065     3927    3                   SECTION_ARRAY.RELOCATION_CURS (BUF_NUM) = 0;

   3927  0 000072   200004 470500                    LDP0    @BUF_NUM,,AUTO
         0 000073   000000 235100                    LDA     0,,PR0
         0 000074   000003 735000                    ALS     3
         0 000075   000000 471400 xsym               LDP1    PTR2_SECTION_ARRAY$
         0 000076   100001 450105                    STZ     1,AL,PR1

     6066     3928    3                   END;

     6067     3929    2               END;

   3929  0 000077   000101 710000 0                  TRA     s:3933

     6068     3930    2           ELSE DO;

     6069     3931    2               ALTRETURN;

   3931  0 000100   000000 702200 xent               TSX2  ! X66_AALT

     6070     3932    2               END;
     6071     3933    1       RETURN;

PL6.E3A0      #023=XUO$PURGE_BUFFERS File=XUO$BUILD.:E05TSI                      WED 07/30/97 09:35 Page:800
   3933  0 000101   000000 702200 xent               TSX2  ! X66_ARET
     6072     3934    1   END XUO$PURGE_BUFFERS;

PL6.E3A0      #023=XUO$PURGE_BUFFERS File=XUO$BUILD.:E05TSI                      WED 07/30/97 09:35 Page:801
--  Include file information  --

   B$OBJECT_C.:E05TOU  is referenced.
   XUO$OBJ_C.:E05TOU  is referenced.
      No diagnostics issued in procedure XUO$PURGE_BUFFERS.
PL6.E3A0      #023=XUO$PURGE_BUFFERS File=XUO$BUILD.:E05TSI                      WED 07/30/97 09:35 Page:802

 **** Variables and constants ****

  ****  Auto variables  ****

  ****  Scalars and arrays  ****
OctLoc.c.b A Datatyp(siz) R M Lvl/name                 OctLoc.c.b A Datatyp(siz) R M Lvl/name

     4-0-0/w PTR         r     1 @BUF_NUM                   3-0-0/w PTR         r     1 @BUF_TYPE
    *0-0-0/w UBIN        r     1 BUF_NUM                   *0-0-0/w UBIN        r     1 BUF_TYPE

  ****  SYMREF variables  ****

  ****  Scalars and arrays  ****
OctLoc.c.b A Datatyp(siz) R M Lvl/name                 OctLoc.c.b A Datatyp(siz) R M Lvl/name

     0-0-0/w PTR         r     1 PTR2_SECTION_ARRAY$

  ****  BASED and DCB variables  ****

  ****  Scalars and arrays  ****
OctLoc.c.b A Datatyp(siz) R M Lvl/name                 OctLoc.c.b A Datatyp(siz) R M Lvl/name

     0-0-0/w STRC(288)   r     1 SECTION_ARRAY(0:0)


   Procedure XUO$PURGE_BUFFERS requires 66 words for executable code.
   Procedure XUO$PURGE_BUFFERS requires 8 words of local(AUTO) storage.

    No errors detected in file XUO$BUILD.:E05TSI    .
PL6.E3A0      #023=XUO$PURGE_BUFFERS File=XUO$BUILD.:E05TSI                      WED 07/30/97 09:35 Page:803
          *** CROSS REFERENCE LISTING ***
**     DENOTES     IDENTIFIER DEFINITION
<<                 IDENTIFIER'S VALUE SET
>>                 IDENTIFIER'S VALUE USED
<>                 IDENTIFIER SET AND/OR USED
--                 IDENTIFIER REFERENCED
PL6.E3A0      #023=XUO$PURGE_BUFFERS File=XUO$BUILD.:E05TSI                      WED 07/30/97 09:35 Page:804
          MINI XREF LISTING

BUF_NUM
      3849**DCL         6--PROC     3911>>IF       3913<>CALL     3914>>ASSIGN   3916>>IF       3918<>CALL
      3919>>ASSIGN   3924>>IF       3926<>CALL     3927>>ASSIGN
BUF_TYPE
      3848**DCL         6--PROC     3909>>IF       3922>>IF
PTR2_SECTION_ARRAY$
      3893**DCL      3896--IMP-PTR  3911>>IF       3914>>ASSIGN   3916>>IF       3919>>ASSIGN   3924>>IF
      3927>>ASSIGN
SECTION_ARRAY.PROGRAM_CURS
      3897**DCL      3911>>IF       3914<<ASSIGN
SECTION_ARRAY.RELOCATION_CURS
      3898**DCL      3916>>IF       3919<<ASSIGN   3924>>IF       3927<<ASSIGN
XUO$OUWRITE
      3907**DCL-ENT  3913--CALL     3918--CALL     3926--CALL
