PL6.E3A0      #020=XUO$PRGM File=XUO$BUILD.:E05TSI                               WED 07/30/97 09:34 Page:613
     4826        1        /*M*     XUO$PRGM - THIS MODULE WILL BUILD OBJECT UNIT PROGRAM RECORDS*/
     4827        2        /*T***********************************************************/
     4828        3        /*T*                                                         */
     4829        4        /*T* Copyright (c) Bull HN Information Systems Inc., 1997    */
     4830        5        /*T*                                                         */
     4831        6        /*T***********************************************************/
     4832        7        /*P*
     4833        8
     4834        9
     4835       10        NAME:  XUO$PRGM
     4836       11        XUO$PRGM --Program Record ( Record Type 10, Subtype 0)
     4837       12
     4838       13        PURPOSE:  To generate Program Record entries.
     4839       14
     4840       15        DESCRIPTION:  This routine generates Program record
     4841       16            entries.  The record contains pure program (no
     4842       17            control words).  This routine altreturns if the
     4843       18            Section Number is invalid.
     4844       19            The current program record is output if the
     4845       20            following conditions are met:
     4846       21              1.  The section number passed is not the
     4847       22                  same as the current record.
     4848       23              2.  The offset is not the next location in
     4849       24                  the current buffer.
     4850       25              3.  There is insufficient space to put the
     4851       26                  value in the current buffer.
     4852       27                  If the relocation buffer has any records
     4853       28                  in it, it will also be written.
     4854       29            The passed value is then added to the program
     4855       30            buffer.
     4856       31
     4857       32        */
     4858       33        /*D*
     4859       34
     4860       35        CALL:  CALL XUO$PRGM (Section Number,
     4861       36                       Offset,
     4862       37                       Value)
PL6.E3A0      #020=XUO$PRGM File=XUO$BUILD.:E05TSI                               WED 07/30/97 09:34 Page:614
     4863       38               ALTRET (Label)
     4864       39
     4865       40        INPUT:
     4866       41            Section Number      UBIN ALIGNED
     4867       42                                The section number to which the
     4868       43                                passed value is to be added.  The
     4869       44                                It is the Record Type 3 section
     4870       45                                entry number.
     4871       46             Offset              UBIN
     4872       47                                The value in words from the start
     4873       48                                of the section where the value is
     4874       49                                to be inserted
     4875       50            Value               BIT (36) ALIGNED
     4876       51                                The entity that is to be inserted
     4877       52                                into the specified section.
     4878       53
     4879       54        OUTPUT:
     4880       55            Value is stored in program record
     4881       56
     4882       57        B$OBJECT REFERENCE:  B$PRGKEY
     4883       58        */
     4884       59        /*B*
     4885       60
     4886       61        GLOBAL DATA:
     4887       62            B$PRGKEY
     4888       63
     4889       64        INTERFACE:
     4890       65            XUO$OUWRITE
     4891       66
     4892       67        */
     4893       68
     4894       69        XUO$PRGM: PROC(P_SECTION_NUMBER,P_OFFSET,P_VALUE) ALTRET;
     4895       70         /*
     4896       71            */
     4897       72        %INCLUDE ZVA_SYSTEM_FILE;
     4898     6323        %PAGE (ARG=INCLUDES);

PL6.E3A0      #020=XUO$PRGM File=XUO$BUILD.:E05TSI                               WED 07/30/97 09:34 Page:615
              6336    1   /*******************************************************************************
              6337    1   *                                                                              *
              6338    1   *        INCLUDES              INCLUDES                                            *
              6339    1   *                                                                              *
              6340    1   *******************************************************************************/

     4899     6344        %INCLUDE B$OBJECT_C;
     4900     9774        %INCLUDE XUO$OBJ_C;
     4901    10184        %INCLUDE XUM_ENTRIES_C;
     4902    10204        %INCLUDE XU_PERR_C;
     4903    10395        %XUM_ENTRIES;
     4904    10404        %PAGE (ARG=SUBS);

             10417    1   /*******************************************************************************
             10418    1   *                                                                              *
             10419    1   *        SUBS              SUBS                                                  *
             10420    1   *                                                                              *
             10421    1   *******************************************************************************/

     4905    10425        %B$RECORDSUBS;
     4906    10453        %PLIST;
     4907    10454        %PAGE (ARG=PARAMETERS);

             10467    1   /*******************************************************************************
             10468    1   *                                                                              *
             10469    1   *        PARAMETERS              PARAMETERS                                        *
             10470    1   *                                                                              *
             10471    1   *******************************************************************************/

     4908    10475    1   DCL P_SECTION_NUMBER UBIN;
     4909    10476    1   DCL P_OFFSET SBIN;
     4910    10477    1   DCL P_VALUE BIT(36) ALIGNED;
     4911    10478        %PAGE (ARG=SECTION DATA);

             10491    1   /*******************************************************************************
             10492    1   *                                                                              *
             10493    1   *        SECTION DATA              SECTION DATA                                    *
PL6.E3A0      #020=XUO$PRGM File=XUO$BUILD.:E05TSI                               WED 07/30/97 09:34 Page:616
             10494    1   *                                                                              *
             10495    1   *******************************************************************************/

     4912    10499        %B_SECTION_POINTERS;
     4913    10518        %PLIST;
     4914    10519        %PAGE (ARG=PROGRAM DATA);

             10532    1   /*******************************************************************************
             10533    1   *                                                                              *
             10534    1   *        PROGRAM DATA              PROGRAM DATA                                    *
             10535    1   *                                                                              *
             10536    1   *******************************************************************************/

     4915    10540    1   DCL B$PRGKEY$ PTR SYMREF;
     4916    10541        %B$PRGRELKEY (NAME=B$PRGKEY,STCLASS="BASED(B$PRGKEY$)",KEYSIZINIT=,NOTHDINIT=,
             10541            TYPEINIT=);
     4917    10572    1   DCL XUO$PURGE_BUFFERS ENTRY (2) ALTRET;
     4918    10573        %B_PROGRAM_POINTERS;
     4919    10588        %B_MULTIBUF_VARS;
     4920    10615        %LOCAL_STUFF;
     4921    10621        %B_TRUST_ME;
     4922    10635        %IF CP6;
     4923    10636        %VLP_ERRCODE (FPTN=OUT_OF_ORDER, STCLASS="CONSTANT SYMDEF",
     4924    10637         FCG=XU, MID=O, ERR#=%E$XUO#OUT_OF_ORDER, SEV=4);
     4925    10682        %ENDIF;
     4926    10683    1   DCL PROGRAM_WORD BIT (36) ALIGNED BASED;
     4927    10684    1   DCL 1 PROGRAM_DWORD ALIGNED BASED,
     4928    10685    1         2 FIRST BIT (36),
     4929    10686    1         2 SECOND BIT (36);
     4930    10687    1   DCL TMP_PTR$ PTR;
     4931    10688    1   DCL ROOM_LEFT UBIN;
     4932    10689        %PLIST;
     4933    10690        %PAGE (ARG=RELOCATION DATA);

             10703    1   /*******************************************************************************
             10704    1   *                                                                              *
             10705    1   *        RELOCATION DATA              RELOCATION DATA                              *
PL6.E3A0      #020=XUO$PRGM File=XUO$BUILD.:E05TSI                               WED 07/30/97 09:34 Page:617
             10706    1   *                                                                              *
             10707    1   *******************************************************************************/

     4934    10711        %B_RELOCATION_POINTERS;
     4935    10726        %PAGE (ARG=ENTRY DCLS);

             10739    1   /*******************************************************************************
             10740    1   *                                                                              *
             10741    1   *        ENTRY DCLS              ENTRY DCLS                                        *
             10742    1   *                                                                              *
             10743    1   *******************************************************************************/

     4936    10747    1   DCL XUO$OUWRITE ENTRY(2);
     4937    10748        %PAGE (ARG=LOCAL DATA);

             10761    1   /*******************************************************************************
             10762    1   *                                                                              *
             10763    1   *        LOCAL DATA              LOCAL DATA                                        *
             10764    1   *                                                                              *
             10765    1   *******************************************************************************/

     4938    10769    1   DCL NUMBER_PROGRAM_WORDS UBIN;
     4939    10770    1   DCL PROGRAM_TEMP$ PTR;
     4940    10771    1   DCL DISPLACEMENT SBIN;
     4941    10772        %PAGE (ARG=MISC DATA);

             10785    1   /*******************************************************************************
             10786    1   *                                                                              *
             10787    1   *        MISC DATA              MISC DATA                                          *
             10788    1   *                                                                              *
             10789    1   *******************************************************************************/

     4942    10793    1   DCL XUO_MOST_RECENT_SECTION SBIN WORD SYMREF;
     4943    10794    1   DCL XUO_WORDSIZE UBIN SYMREF;
     4944    10795    1   DCL XUO_ERROR_ROUTINE EPTR SYMREF;
     4945    10796    1   DCL ADJUSTABLE_BIT BIT(XUO_WORDSIZE) UNAL BASED;
     4946    10797    1   DCL 1 VALUE_1,
PL6.E3A0      #020=XUO$PRGM File=XUO$BUILD.:E05TSI                               WED 07/30/97 09:34 Page:618
     4947    10798    1         2 FIRST_8 BIT(8),
     4948    10799    1         2 SECOND_8 BIT(8),
     4949    10800    1         2 LAST_20 BIT(20);
     4950    10801
     4951    10802    1   DCL 1 VALUE_2,
     4952    10803    1         2 THIRD_8 BIT(8),
     4953    10804    1         2 FOURTH_8 BIT(8),
     4954    10805    1         2 LAST_20 BIT(20);
     4955    10806
     4956    10807    1   DCL 1 TEXT,
     4957    10808    1         2 * BIT(1),
     4958    10809    1         2 FIRST_8 BIT(8),
     4959    10810    1         2 * BIT(1),
     4960    10811    1         2 SECOND_8 BIT(8),
     4961    10812    1         2 * BIT(1),
     4962    10813    1         2 THIRD_8 BIT(8),
     4963    10814    1         2 * BIT(1),
     4964    10815    1         2 FOURTH_8 BIT(8);
     4965    10816        %PAGE (ARG=CODE);

             10829    1   /*******************************************************************************
             10830    1   *                                                                              *
             10831    1   *        CODE              CODE                                                  *
             10832    1   *                                                                              *
             10833    1   *******************************************************************************/

     4966    10837    1       VALUE_1=ADDR(P_VALUE)->ADJUSTABLE_BIT;
     4967    10838    1       NUMBER_PROGRAM_WORDS=1;
     4968    10839    1       GOTO PRGM_COMMON;
     4969    10840
     4970    10841    1   XUO$PRGM_TEXT: ENTRY(P_SECTION_NUMBER,P_OFFSET,P_VALUE) ALTRET;
     4971    10842
     4972    10843    1       TEXT=P_VALUE;
     4973    10844    1       NUMBER_PROGRAM_WORDS=1;
     4974    10845    1       GOTO TEXT_COMMON;
     4975    10846         /*
     4976    10847         The following is for 36 bits of L66 text that needs
PL6.E3A0      #020=XUO$PRGM File=XUO$BUILD.:E05TSI                               WED 07/30/97 09:34 Page:619
     4977    10848         to be converted to 32 bits of char
     4978    10849         */
     4979    10850    1   XUO$PRGMDBL_TEXT: ENTRY(P_SECTION_NUMBER,P_OFFSET,P_VALUE) ALTRET;
     4980    10851    1       IF XUO_WORDSIZE = 36 /* L66 */
     4981    10852    2       THEN DO;
     4982    10853
     4983    10854    2           TEXT = P_VALUE;
     4984    10855    2           NUMBER_PROGRAM_WORDS = 1;
     4985    10856
     4986    10857    2           END;
     4987    10858
     4988    10859    2       ELSE DO /* L6 */;
     4989    10860
     4990    10861    2           TEXT = P_VALUE;
     4991    10862    2           NUMBER_PROGRAM_WORDS = 2;
     4992    10863    2           VALUE_2.THIRD_8 = TEXT.THIRD_8;
     4993    10864    2           VALUE_2.FOURTH_8 = TEXT.FOURTH_8;
     4994    10865
     4995    10866    2           END;
     4996    10867    1   TEXT_COMMON: ;
     4997    10868    1       IF XUO_WORDSIZE~=36 THEN
     4998    10869    2       DO; /*L6*/
     4999    10870    2           VALUE_1.FIRST_8=TEXT.FIRST_8;
     5000    10871    2           VALUE_1.SECOND_8=TEXT.SECOND_8;
     5001    10872    2           END;
     5002    10873    1       ELSE
     5003    10874    1           VALUE_1=TEXT; /*L66*/
     5004    10875    1       GOTO PRGM_COMMON;
     5005    10876
     5006    10877         /*
     5007    10878         The following entry is for 32 bits of l6 code
     5008    10879         */
     5009    10880    1   XUO$PRGMDBL: ENTRY (P_SECTION_NUMBER,P_OFFSET,P_VALUE) ALTRET;
     5010    10881
     5011    10882    1       IF XUO_WORDSIZE = 36
     5012    10883    2       THEN DO /* l66 */;
     5013    10884
PL6.E3A0      #020=XUO$PRGM File=XUO$BUILD.:E05TSI                               WED 07/30/97 09:34 Page:620
     5014    10885    2           VALUE_1 = P_VALUE;
     5015    10886    2           NUMBER_PROGRAM_WORDS = 1;
     5016    10887
     5017    10888    2           END;
     5018    10889
     5019    10890    2       ELSE DO /* l6 */;
     5020    10891
     5021    10892    2           VALUE_1 = ADDR(P_VALUE) -> ADJUSTABLE_BIT;
     5022    10893    2           VALUE_2 = PINCRB(ADDR(P_VALUE), XUO_WORDSIZE) -> ADJUSTABLE_BIT;
     5023    10894    2           NUMBER_PROGRAM_WORDS = 2;
     5024    10895
     5025    10896    2           END;
     5026    10897         /*
     5027    10898            Common code
     5028    10899            */
     5029    10900    1   PRGM_COMMON: ;
     5030    10901         /*
     5031    10902            Verify section number
     5032    10903            */
     5033    10904    1       IF P_SECTION_NUMBER>B_SECTION_COUNT THEN
     5034    10905    1           ALTRETURN;
     5035    10906
     5036    10907         /* We also have to see if the offset of the program word to be
     5037    10908            written is less than the max of prog and reloc.  We dont allow
     5038    10909            any backsliding here.
     5039    10910         */
     5040    10911    1       IF (NOT B_TRUST_ME) AND
     5041    10912    1          (P_OFFSET <= SECTION_ARRAY.MAX_PROG_RELOC (P_SECTION_NUMBER))
     5042    10913    2       THEN DO;
     5043    10914        %IF CP6;
     5044    10915    2           IF XUO_ERROR_ROUTINE ~= ENTADDR(NIL)
     5045    10916    2           THEN
     5046    10917    2               CALL XUO_ERROR_ROUTINE (OUT_OF_ORDER);
     5047    10918        /*E*  ERROR:   XUO-E$XUO#OUT_OF_ORDER
     5048    10919              MESSAGE: A context error has occurred while building an object unit.
     5049    10920                       A call has been made to XUO$PRGM (program-record builder) or
     5050    10921                       XUO$RELOC (relocation-record builder) which has requested that
PL6.E3A0      #020=XUO$PRGM File=XUO$BUILD.:E05TSI                               WED 07/30/97 09:34 Page:621
     5051    10922                       a program/relocation entry be output for some location in a
     5052    10923                       control section.  The specified offset in this control section
     5053    10924                       is less than (for XUO$RELOC), or not greater than (XUO$PRGM) the
     5054    10925                       offset of some previous location which has been written into
     5055    10926                       this control section.
     5056    10927
     5057    10928                       Under normal circumstances, each control section must be written
     5058    10929                       in increasing-offset order (lowest-numbered locations first), in
     5059    10930                       order to guarantee that relocation directives are applied in the
     5060    10931                       proper order.  This requirement may be over-ridden by setting
     5061    10932                       the "trust me!" flag on the initial call to XUO$OUINIT.  Note
     5062    10933                       that improper use of the "trust me!" flag may result in the
     5063    10934                       creation of an object unit in which relocation directives are
     5064    10935                       applied in some incorrect fashion; the results are unpredictable.
     5065    10936        */
     5066    10937        %ENDIF;
     5067    10938    2           ALTRETURN;
     5068    10939    2           END;
     5069    10940
     5070    10941         /* Set up a value with the amount of room left in the buffer. */
     5071    10942    1       ROOM_LEFT = B_PROGRAM_PAGE_SIZE-SECTION_ARRAY.PROGRAM_CURS(P_SECTION_NUMBER);
     5072    10943
     5073    10944    1       IF SECTION_ARRAY.PTR2_LRU$(P_SECTION_NUMBER)=ADDR(NIL)
     5074    10945    2       THEN DO;
     5075    10946    2           CALL XUM$GET_LRU_ITEM (LRU_VECTOR, PTR2_LRU$) ALTRET (ERR_LRU);
     5076    10947    2           CALL XUO$PURGE_BUFFERS (%TYPPROG,PTR2_LRU$->BUBIN)ALTRET(ERR);
     5077    10948
     5078    10949    2           SECTION_ARRAY.PTR2_LRU$(P_SECTION_NUMBER) = SECTION_ARRAY.PTR2_LRU$
     5079    10950    2              (PTR2_LRU$->BUBIN);
     5080    10951    2           SECTION_ARRAY.PTR2_RELOCATION_BUF$ (P_SECTION_NUMBER) =
     5081    10952    2              SECTION_ARRAY.PTR2_RELOCATION_BUF$ (PTR2_LRU$->BUBIN);
     5082    10953    2           SECTION_ARRAY.PTR2_PROGRAM_BUF$ (P_SECTION_NUMBER) =
     5083    10954    2              SECTION_ARRAY.PTR2_PROGRAM_BUF$ (PTR2_LRU$->BUBIN);
     5084    10955
     5085    10956    2           SECTION_ARRAY.PROGRAM_CURS (PTR2_LRU$->BUBIN) = 0;
     5086    10957    2           SECTION_ARRAY.RELOCATION_CURS (PTR2_LRU$->BUBIN) = 0;
     5087    10958    2           SECTION_ARRAY.PTR2_PROGRAM_BUF$ (PTR2_LRU$->BUBIN) = ADDR(NIL);
PL6.E3A0      #020=XUO$PRGM File=XUO$BUILD.:E05TSI                               WED 07/30/97 09:34 Page:622
     5088    10959    2           SECTION_ARRAY.PTR2_RELOCATION_BUF$(PTR2_LRU$->BUBIN) = ADDR(NIL);
     5089    10960    2           SECTION_ARRAY.PTR2_LRU$ (PTR2_LRU$->BUBIN) = ADDR(NIL);
     5090    10961    2           SECTION_ARRAY.BUF_OFFSET(PTR2_LRU$->BUBIN) = 0;
     5091    10962
     5092    10963    2           PTR2_LRU$->BUBIN = P_SECTION_NUMBER;
     5093    10964    2           END;
     5094    10965         /*
     5095    10966         This is where we see about purging the buffer because the
     5096    10967         new data has more words than will fit in the buffer, or the
     5097    10968         offset is not more than one more than the previous max of prog
     5098    10969         or reloc.
     5099    10970         */
     5100    10971         /* If the words about to be written into the program buffer fill it
     5101    10972            up, then we look to see if we can fit 6 reloc words into the reloc
     5102    10973            buffer.  If we cant then we purge both buffers.  If we can, then
     5103    10974            we continue on and write the progam words into the buffer.
     5104    10975            This avoids (in most cases) have to write two reloc records that
     5105    10976            affect one program record.  It also avoids have very small reloc
     5106    10977            records.  The extremly rare occurences of having more then 6 reloc
     5107    10978            words on a given program word will still cause small reloc records
     5108    10979            to be written.
     5109    10980         */
     5110    10981    1       ELSE IF ((NUMBER_PROGRAM_WORDS > ROOM_LEFT)
     5111    10982    1              OR
     5112    10983    1              (P_OFFSET - SECTION_ARRAY.BUF_OFFSET (P_SECTION_NUMBER)
     5113    10984    1              ~= SECTION_ARRAY.PROGRAM_CURS (P_SECTION_NUMBER))
     5114    10985    1              OR
     5115    10986    1              (NUMBER_PROGRAM_WORDS + ROOM_LEFT = 0)
     5116    10987    1              AND
     5117    10988    1              (B_RELOCATION_PAGE_SIZE - SECTION_ARRAY.RELOCATION_CURS
     5118    10989    1              (P_SECTION_NUMBER) < 6))
     5119    10990    2           THEN DO;
     5120    10991    2               CALL XUO$PURGE_BUFFERS (%TYPPROG, P_SECTION_NUMBER) ALTRET (ERR);
     5121    10992    2               END;
     5122    10993
     5123    10994         /* If this is the first datum written to the buffer then set up min
     5124    10995            offset */
PL6.E3A0      #020=XUO$PRGM File=XUO$BUILD.:E05TSI                               WED 07/30/97 09:34 Page:623
     5125    10996    1       IF SECTION_ARRAY.PROGRAM_CURS(P_SECTION_NUMBER) = 0
     5126    10997    2       THEN DO;
     5127    10998         /* If there is an existing reloc record and the program buf is empty,
     5128    10999            then we have to purge the reloc record.  Otherwise the reloc would
     5129    11000            apply to the wrong program.
     5130    11001         */
     5131    11002    2           IF SECTION_ARRAY.RELOCATION_CURS (P_SECTION_NUMBER) > 0
     5132    11003    3           THEN DO;
     5133    11004    3               CALL XUO$PURGE_BUFFERS (%TYPPROG, P_SECTION_NUMBER) ALTRET (ERR);
     5134    11005    3               END;
     5135    11006    2           SECTION_ARRAY.BUF_OFFSET(P_SECTION_NUMBER) = P_OFFSET;
     5136    11007    2           END;
     5137    11008         /* Write data to the buffer */
     5138    11009    1       TMP_PTR$ = PINCRW(SECTION_ARRAY.PTR2_PROGRAM_BUF$(P_SECTION_NUMBER),
     5139    11010    1          SECTION_ARRAY.PROGRAM_CURS(P_SECTION_NUMBER));
     5140    11011    1       IF NUMBER_PROGRAM_WORDS = 2
     5141    11012    2       THEN DO;
     5142    11013    2           TMP_PTR$->PROGRAM_DWORD.FIRST = VALUE_1;
     5143    11014    2           TMP_PTR$->PROGRAM_DWORD.SECOND = VALUE_2;
     5144    11015    2           SECTION_ARRAY.PROGRAM_CURS(P_SECTION_NUMBER) =
     5145    11016    2              SECTION_ARRAY.PROGRAM_CURS(P_SECTION_NUMBER) + 2;
     5146    11017    2           END;
     5147    11018    2       ELSE DO;
     5148    11019    2           TMP_PTR$->PROGRAM_WORD = VALUE_1;
     5149    11020    2           SECTION_ARRAY.PROGRAM_CURS(P_SECTION_NUMBER) =
     5150    11021    2              SECTION_ARRAY.PROGRAM_CURS (P_SECTION_NUMBER) + 1;
     5151    11022    2           END;
     5152    11023         /* Update the lru_list */
     5153    11024    1       IF XUO_MOST_RECENT_SECTION ~= P_SECTION_NUMBER
     5154    11025    2       THEN DO;
     5155    11026    2           CALL XUM$MAKE_ITEM_MRU (LRU_VECTOR, SECTION_ARRAY.PTR2_LRU$(P_SECTION_NUMBER
             11026                    )) ALTRET (ERR_LRU);
     5156    11027    2           XUO_MOST_RECENT_SECTION = P_SECTION_NUMBER;
     5157    11028    2           END;
     5158    11029    1       SECTION_ARRAY.MAX_PROG_RELOC(P_SECTION_NUMBER) = MAXIMUM
     5159    11030    1          (SECTION_ARRAY.MAX_PROG_RELOC(P_SECTION_NUMBER),P_OFFSET);
     5160    11031    1       SECTION_ARRAY.PROG_WORD_COUNT(P_SECTION_NUMBER) = P_OFFSET;
PL6.E3A0      #020=XUO$PRGM File=XUO$BUILD.:E05TSI                               WED 07/30/97 09:34 Page:624
     5161    11032    1       RETURN;
     5162    11033    1   ERR_LRU: ;
     5163    11034    1       ALTRETURN;
     5164    11035    1   ERR: ;
     5165    11036    1       ALTRETURN;
     5166    11037    1   END XUO$PRGM;
     5167    11038        %EOD;

PL6.E3A0      #020=XUO$PRGM File=XUO$BUILD.:E05TSI                               WED 07/30/97 09:34 Page:625
--  Include file information  --

   XU_PERR_C.:E05TOU  is referenced.
   XUM_ENTRIES_C.:E05TOU  is referenced.
   XUO$OBJ_C.:E05TOU  is referenced.
   B$OBJECT_C.:E05TOU  is referenced.
   CP_6_SUBS.:E05TOU  is referenced.
   CP_6_C.:E05TOU  is referenced.
   CP_6.:E05TOU  cannot be made into a system file and is referenced.
   ZVA_FLAGS.:TOOLE04  is referenced.
   ZVA_SYSTEM_FILE.:TOOLE04  is referenced.
      No diagnostics issued in procedure XUO$PRGM.

   Procedure XUO$PRGM requires 312 words for executable code.
   Procedure XUO$PRGM requires 18 words of local(AUTO) storage.

PL6.E3A0      #020=XUO$PRGM File=XUO$BUILD.:E05TSI                               WED 07/30/97 09:34 Page:626

 Object Unit name= XUO$PRGM                                   File name= XUO$BUILD.:E05TOU
 UTS= JUL 30 '97 09:34:06.48 WED                              Compiler= PL-6/E31         Sev=      00
 SharedLib= :SHARED_SYSTEM                                    Alt SharedLib=


    ****  Control sections  ****

 Sect   Type Bound  Init  Size OctSiz  Section name(segment info)
    0   DCB   even  none     0      0  M$UC
    1  RoData even  UTS      1      1  XUO$PRGM
    2   Proc  even  none   312    470  XUO$PRGM
    3  RoData even  none     3      3  XUO$PRGM

    ****  Entry defs  ****

                              Check   Calling
                             calling  sequence
  Sect OctLoc Primary Altret sequence   type   Parms  Name
     2      0   yes    yes     yes      Std        3  XUO$PRGM
     2     12          yes     yes      Std        3  XUO$PRGM_TEXT
     2     22          yes     yes      Std        3  XUO$PRGMDBL_TEXT
     2     74          yes     yes      Std        3  XUO$PRGMDBL

  ****  Data defs  ****

 Sect OctLoc  Name                           Sect OctLoc  Name
    1      0  OUT_OF_ORDER
PL6.E3A0      #020=XUO$PRGM File=XUO$BUILD.:E05TSI                               WED 07/30/97 09:34 Page:627

  ****  Entry refs  ****

         Check        Calling
        calling       sequence
Altret sequence SRef   type   Args  Name
 yes     yes           Std       2 XUM$GET_LRU_ITEM
 yes     yes           Std       2 XUO$PURGE_BUFFERS
 yes     yes           Std       2 XUM$MAKE_ITEM_MRU
                       nStd      0 X66_AUTO_3
                       nStd      0 X66_AALT
                       Std       0 B_CONSPOOL_D
                       nStd      0 X66_ARET

  ****  Data refs  ****

  Flags:  r = read only, s = secondary
Flgs Name                             Flgs Name                             Flgs Name
     M$UC                                  B_SECTION_COUNT                       B$PRGKEY$
     B_PROGRAM_PAGE_SIZE                   LRU_VECTOR                            PTR2_SECTION_ARRAY$
     B_TRUST_ME                            B_RELOCATION_PAGE_SIZE                XUO_MOST_RECENT_SECTION
     XUO_WORDSIZE                          XUO_ERROR_ROUTINE                     B_VECTNIL

  ****  Segment refs  ****

  Flags:  r = read only, s = secondary
Flgs Name                             Flgs Name                             Flgs Name
     ISSID
PL6.E3A0      #020=XUO$PRGM File=XUO$BUILD.:E05TSI                               WED 07/30/97 09:34 Page:628


     4826        1        /*M*     XUO$PRGM - THIS MODULE WILL BUILD OBJECT UNIT PROGRAM RECORDS*/
     4827        2        /*T***********************************************************/
     4828        3        /*T*                                                         */
     4829        4        /*T* Copyright (c) Bull HN Information Systems Inc., 1997    */
     4830        5        /*T*                                                         */
     4831        6        /*T***********************************************************/
     4832        7        /*P*
     4833        8
     4834        9
     4835       10        NAME:  XUO$PRGM
     4836       11        XUO$PRGM --Program Record ( Record Type 10, Subtype 0)
     4837       12
     4838       13        PURPOSE:  To generate Program Record entries.
     4839       14
     4840       15        DESCRIPTION:  This routine generates Program record
     4841       16            entries.  The record contains pure program (no
     4842       17            control words).  This routine altreturns if the
     4843       18            Section Number is invalid.
     4844       19            The current program record is output if the
     4845       20            following conditions are met:
     4846       21              1.  The section number passed is not the
     4847       22                  same as the current record.
     4848       23              2.  The offset is not the next location in
     4849       24                  the current buffer.
     4850       25              3.  There is insufficient space to put the
     4851       26                  value in the current buffer.
     4852       27                  If the relocation buffer has any records
     4853       28                  in it, it will also be written.
     4854       29            The passed value is then added to the program
     4855       30            buffer.
     4856       31
     4857       32        */
     4858       33        /*D*
     4859       34
     4860       35        CALL:  CALL XUO$PRGM (Section Number,
     4861       36                       Offset,
PL6.E3A0      #020=XUO$PRGM File=XUO$BUILD.:E05TSI                               WED 07/30/97 09:34 Page:629
     4862       37                       Value)
     4863       38               ALTRET (Label)
     4864       39
     4865       40        INPUT:
     4866       41            Section Number      UBIN ALIGNED
     4867       42                                The section number to which the
     4868       43                                passed value is to be added.  The
     4869       44                                It is the Record Type 3 section
     4870       45                                entry number.
     4871       46             Offset              UBIN
     4872       47                                The value in words from the start
     4873       48                                of the section where the value is
     4874       49                                to be inserted
     4875       50            Value               BIT (36) ALIGNED
     4876       51                                The entity that is to be inserted
     4877       52                                into the specified section.
     4878       53
     4879       54        OUTPUT:
     4880       55            Value is stored in program record
     4881       56
     4882       57        B$OBJECT REFERENCE:  B$PRGKEY
     4883       58        */
     4884       59        /*B*
     4885       60
     4886       61        GLOBAL DATA:
     4887       62            B$PRGKEY
     4888       63
     4889       64        INTERFACE:
     4890       65            XUO$OUWRITE
     4891       66
     4892       67        */
     4893       68
     4894       69        XUO$PRGM: PROC(P_SECTION_NUMBER,P_OFFSET,P_VALUE) ALTRET;

     69  2 000000   000000 700200 xent  XUO$PRGM     TSX0  ! X66_AUTO_3
         2 000001   000022 000003                    ZERO    18,3

PL6.E3A0      #020=XUO$PRGM File=XUO$BUILD.:E05TSI                               WED 07/30/97 09:34 Page:630
     4895       70         /*
     4896       71            */
     4897       72        %INCLUDE ZVA_SYSTEM_FILE;
     4898     6323        %PAGE (ARG=INCLUDES);

              6336    1   /*******************************************************************************
              6337    1   *                                                                              *
              6338    1   *        INCLUDES              INCLUDES                                           *
              6339    1   *                                                                              *
              6340    1   *******************************************************************************/

     4899     6344        %INCLUDE B$OBJECT_C;
     4900     9774        %INCLUDE XUO$OBJ_C;
     4901    10184        %INCLUDE XUM_ENTRIES_C;
     4902    10204        %INCLUDE XU_PERR_C;
     4903    10395        %XUM_ENTRIES;
     4904    10404        %PAGE (ARG=SUBS);

             10417    1   /*******************************************************************************
             10418    1   *                                                                              *
             10419    1   *        SUBS              SUBS                                                  *
             10420    1   *                                                                              *
             10421    1   *******************************************************************************/

     4905    10425        %B$RECORDSUBS;
     4906    10453        %PLIST;
     4907    10454        %PAGE (ARG=PARAMETERS);

             10467    1   /*******************************************************************************
             10468    1   *                                                                              *
             10469    1   *        PARAMETERS              PARAMETERS                                       *
             10470    1   *                                                                              *
             10471    1   *******************************************************************************/

     4908    10475    1   DCL P_SECTION_NUMBER UBIN;
     4909    10476    1   DCL P_OFFSET SBIN;
     4910    10477    1   DCL P_VALUE BIT(36) ALIGNED;
PL6.E3A0      #020=XUO$PRGM File=XUO$BUILD.:E05TSI                               WED 07/30/97 09:34 Page:631
     4911    10478        %PAGE (ARG=SECTION DATA);

             10491    1   /*******************************************************************************
             10492    1   *                                                                              *
             10493    1   *        SECTION DATA              SECTION DATA                                   *
             10494    1   *                                                                              *
             10495    1   *******************************************************************************/

     4912    10499        %B_SECTION_POINTERS;
     4913    10518        %PLIST;
     4914    10519        %PAGE (ARG=PROGRAM DATA);

             10532    1   /*******************************************************************************
             10533    1   *                                                                              *
             10534    1   *        PROGRAM DATA              PROGRAM DATA                                   *
             10535    1   *                                                                              *
             10536    1   *******************************************************************************/

     4915    10540    1   DCL B$PRGKEY$ PTR SYMREF;
     4916    10541        %B$PRGRELKEY (NAME=B$PRGKEY,STCLASS="BASED(B$PRGKEY$)",KEYSIZINIT=,NOTHDINIT=,
             10541            TYPEINIT=);
     4917    10572    1   DCL XUO$PURGE_BUFFERS ENTRY (2) ALTRET;
     4918    10573        %B_PROGRAM_POINTERS;
     4919    10588        %B_MULTIBUF_VARS;
     4920    10615        %LOCAL_STUFF;
     4921    10621        %B_TRUST_ME;
     4922    10635        %IF CP6;
     4923    10636        %VLP_ERRCODE (FPTN=OUT_OF_ORDER, STCLASS="CONSTANT SYMDEF",
     4924    10637         FCG=XU, MID=O, ERR#=%E$XUO#OUT_OF_ORDER, SEV=4);
     4925    10682        %ENDIF;
     4926    10683    1   DCL PROGRAM_WORD BIT (36) ALIGNED BASED;
     4927    10684    1   DCL 1 PROGRAM_DWORD ALIGNED BASED,
     4928    10685    1         2 FIRST BIT (36),
     4929    10686    1         2 SECOND BIT (36);
     4930    10687    1   DCL TMP_PTR$ PTR;
     4931    10688    1   DCL ROOM_LEFT UBIN;
     4932    10689        %PLIST;
PL6.E3A0      #020=XUO$PRGM File=XUO$BUILD.:E05TSI                               WED 07/30/97 09:34 Page:632
     4933    10690        %PAGE (ARG=RELOCATION DATA);

             10703    1   /*******************************************************************************
             10704    1   *                                                                              *
             10705    1   *        RELOCATION DATA              RELOCATION DATA                             *
             10706    1   *                                                                              *
             10707    1   *******************************************************************************/

     4934    10711        %B_RELOCATION_POINTERS;
     4935    10726        %PAGE (ARG=ENTRY DCLS);

             10739    1   /*******************************************************************************
             10740    1   *                                                                              *
             10741    1   *        ENTRY DCLS              ENTRY DCLS                                       *
             10742    1   *                                                                              *
             10743    1   *******************************************************************************/

     4936    10747    1   DCL XUO$OUWRITE ENTRY(2);
     4937    10748        %PAGE (ARG=LOCAL DATA);

             10761    1   /*******************************************************************************
             10762    1   *                                                                              *
             10763    1   *        LOCAL DATA              LOCAL DATA                                       *
             10764    1   *                                                                              *
             10765    1   *******************************************************************************/

     4938    10769    1   DCL NUMBER_PROGRAM_WORDS UBIN;
     4939    10770    1   DCL PROGRAM_TEMP$ PTR;
     4940    10771    1   DCL DISPLACEMENT SBIN;
     4941    10772        %PAGE (ARG=MISC DATA);

             10785    1   /*******************************************************************************
             10786    1   *                                                                              *
             10787    1   *        MISC DATA              MISC DATA                                         *
             10788    1   *                                                                              *
             10789    1   *******************************************************************************/

PL6.E3A0      #020=XUO$PRGM File=XUO$BUILD.:E05TSI                               WED 07/30/97 09:34 Page:633
     4942    10793    1   DCL XUO_MOST_RECENT_SECTION SBIN WORD SYMREF;
     4943    10794    1   DCL XUO_WORDSIZE UBIN SYMREF;
     4944    10795    1   DCL XUO_ERROR_ROUTINE EPTR SYMREF;
     4945    10796    1   DCL ADJUSTABLE_BIT BIT(XUO_WORDSIZE) UNAL BASED;
     4946    10797    1   DCL 1 VALUE_1,
     4947    10798    1         2 FIRST_8 BIT(8),
     4948    10799    1         2 SECOND_8 BIT(8),
     4949    10800    1         2 LAST_20 BIT(20);
     4950    10801
     4951    10802    1   DCL 1 VALUE_2,
     4952    10803    1         2 THIRD_8 BIT(8),
     4953    10804    1         2 FOURTH_8 BIT(8),
     4954    10805    1         2 LAST_20 BIT(20);
     4955    10806
     4956    10807    1   DCL 1 TEXT,
     4957    10808    1         2 * BIT(1),
     4958    10809    1         2 FIRST_8 BIT(8),
     4959    10810    1         2 * BIT(1),
     4960    10811    1         2 SECOND_8 BIT(8),
     4961    10812    1         2 * BIT(1),
     4962    10813    1         2 THIRD_8 BIT(8),
     4963    10814    1         2 * BIT(1),
     4964    10815    1         2 FOURTH_8 BIT(8);
     4965    10816        %PAGE (ARG=CODE);

             10829    1   /*******************************************************************************
             10830    1   *                                                                              *
             10831    1   *        CODE              CODE                                                  *
             10832    1   *                                                                              *
             10833    1   *******************************************************************************/

     4966    10837    1       VALUE_1=ADDR(P_VALUE)->ADJUSTABLE_BIT;

  10837  2 000002   200005 470500                    LDP0    @P_VALUE,,AUTO
         2 000003   000000 720000 xsym               LXL0    XUO_WORDSIZE
         2 000004   003100 060540                    CSL     bolr='003'O
         2 000005   000000 000010                    BDSC    0,,PR0                   by=0,bit=0,n=*X0
PL6.E3A0      #020=XUO$PRGM File=XUO$BUILD.:E05TSI                               WED 07/30/97 09:34 Page:634
         2 000006   200015 000044                    BDSC    VALUE_1,,AUTO            by=0,bit=0,n=36

     4967    10838    1       NUMBER_PROGRAM_WORDS=1;

  10838  2 000007   000001 235007                    LDA     1,DL
         2 000010   200012 755100                    STA     NUMBER_PROGRAM_WORDS,,AUTO

     4968    10839    1       GOTO PRGM_COMMON;

  10839  2 000011   000123 710000 2                  TRA     PRGM_COMMON

     4969    10840
     4970    10841    1   XUO$PRGM_TEXT: ENTRY(P_SECTION_NUMBER,P_OFFSET,P_VALUE) ALTRET;

  10841  2 000012   000000 700200 xent  XUO$PRGM_TE* TSX0  ! X66_AUTO_3
         2 000013   000022 000003                    ZERO    18,3

     4971    10842
     4972    10843    1       TEXT=P_VALUE;

  10843  2 000014   200005 470500                    LDP0    @P_VALUE,,AUTO
         2 000015   000000 236100                    LDQ     0,,PR0
         2 000016   200017 756100                    STQ     TEXT,,AUTO

     4973    10844    1       NUMBER_PROGRAM_WORDS=1;

  10844  2 000017   000001 235007                    LDA     1,DL
         2 000020   200012 755100                    STA     NUMBER_PROGRAM_WORDS,,AUTO

     4974    10845    1       GOTO TEXT_COMMON;

  10845  2 000021   000053 710000 2                  TRA     TEXT_COMMON

     4975    10846         /*
     4976    10847         The following is for 36 bits of L66 text that needs
     4977    10848         to be converted to 32 bits of char
     4978    10849         */
PL6.E3A0      #020=XUO$PRGM File=XUO$BUILD.:E05TSI                               WED 07/30/97 09:34 Page:635
     4979    10850    1   XUO$PRGMDBL_TEXT: ENTRY(P_SECTION_NUMBER,P_OFFSET,P_VALUE) ALTRET;

  10850  2 000022   000000 700200 xent  XUO$PRGMDBL* TSX0  ! X66_AUTO_3
         2 000023   000022 000003                    ZERO    18,3

     4980    10851    1       IF XUO_WORDSIZE = 36 /* L66 */

  10851  2 000024   000000 235000 xsym               LDA     XUO_WORDSIZE
         2 000025   000044 115007                    CMPA    36,DL
         2 000026   000035 601000 2                  TNZ     s:10861

     4981    10852    2       THEN DO;

     4982    10853
     4983    10854    2           TEXT = P_VALUE;

  10854  2 000027   200005 470500                    LDP0    @P_VALUE,,AUTO
         2 000030   000000 236100                    LDQ     0,,PR0
         2 000031   200017 756100                    STQ     TEXT,,AUTO

     4984    10855    2           NUMBER_PROGRAM_WORDS = 1;

  10855  2 000032   000001 235007                    LDA     1,DL
         2 000033   200012 755100                    STA     NUMBER_PROGRAM_WORDS,,AUTO

     4985    10856
     4986    10857    2           END;

  10857  2 000034   000053 710000 2                  TRA     TEXT_COMMON

     4987    10858
     4988    10859    2       ELSE DO /* L6 */;

     4989    10860
     4990    10861    2           TEXT = P_VALUE;

  10861  2 000035   200005 470500                    LDP0    @P_VALUE,,AUTO
PL6.E3A0      #020=XUO$PRGM File=XUO$BUILD.:E05TSI                               WED 07/30/97 09:34 Page:636
         2 000036   000000 236100                    LDQ     0,,PR0
         2 000037   200017 756100                    STQ     TEXT,,AUTO

     4991    10862    2           NUMBER_PROGRAM_WORDS = 2;

  10862  2 000040   000002 235007                    LDA     2,DL
         2 000041   200012 755100                    STA     NUMBER_PROGRAM_WORDS,,AUTO

     4992    10863    2           VALUE_2.THIRD_8 = TEXT.THIRD_8;

  10863  2 000042   000023 736000                    QLS     19
         2 000043   200016 676100                    ERQ     VALUE_2,,AUTO
         2 000044   776000 376003                    ANQ     -1024,DU
         2 000045   200016 656100                    ERSQ    VALUE_2,,AUTO

     4993    10864    2           VALUE_2.FOURTH_8 = TEXT.FOURTH_8;

  10864  2 000046   200017 236100                    LDQ     TEXT,,AUTO
         2 000047   000024 736000                    QLS     20
         2 000050   200016 676100                    ERQ     VALUE_2,,AUTO
         2 000051   001774 376003                    ANQ     1020,DU
         2 000052   200016 656100                    ERSQ    VALUE_2,,AUTO

     4994    10865
     4995    10866    2           END;

  10851  2 000053                       TEXT_COMMON  null
     4996    10867    1   TEXT_COMMON: ;
     4997    10868    1       IF XUO_WORDSIZE~=36 THEN

  10868  2 000053   000000 236000 xsym               LDQ     XUO_WORDSIZE
         2 000054   000044 116007                    CMPQ    36,DL
         2 000055   000071 600000 2                  TZE     s:10874

     4998    10869    2       DO; /*L6*/

     4999    10870    2           VALUE_1.FIRST_8=TEXT.FIRST_8;
PL6.E3A0      #020=XUO$PRGM File=XUO$BUILD.:E05TSI                               WED 07/30/97 09:34 Page:637

  10870  2 000056   200017 236100                    LDQ     TEXT,,AUTO
         2 000057   000001 736000                    QLS     1
         2 000060   200015 676100                    ERQ     VALUE_1,,AUTO
         2 000061   776000 376003                    ANQ     -1024,DU
         2 000062   200015 656100                    ERSQ    VALUE_1,,AUTO

     5000    10871    2           VALUE_1.SECOND_8=TEXT.SECOND_8;

  10871  2 000063   200017 236100                    LDQ     TEXT,,AUTO
         2 000064   000002 736000                    QLS     2
         2 000065   200015 676100                    ERQ     VALUE_1,,AUTO
         2 000066   001774 376003                    ANQ     1020,DU
         2 000067   200015 656100                    ERSQ    VALUE_1,,AUTO

     5001    10872    2           END;

  10872  2 000070   000073 710000 2                  TRA     s:10875

     5002    10873    1       ELSE
     5003    10874    1           VALUE_1=TEXT; /*L66*/

  10874  2 000071   200017 236100                    LDQ     TEXT,,AUTO
         2 000072   200015 756100                    STQ     VALUE_1,,AUTO

     5004    10875    1       GOTO PRGM_COMMON;

  10875  2 000073   000123 710000 2                  TRA     PRGM_COMMON

     5005    10876
     5006    10877         /*
     5007    10878         The following entry is for 32 bits of l6 code
     5008    10879         */
     5009    10880    1   XUO$PRGMDBL: ENTRY (P_SECTION_NUMBER,P_OFFSET,P_VALUE) ALTRET;

  10880  2 000074   000000 700200 xent  XUO$PRGMDBL  TSX0  ! X66_AUTO_3
         2 000075   000022 000003                    ZERO    18,3
PL6.E3A0      #020=XUO$PRGM File=XUO$BUILD.:E05TSI                               WED 07/30/97 09:34 Page:638

     5010    10881
     5011    10882    1       IF XUO_WORDSIZE = 36

  10882  2 000076   000000 235000 xsym               LDA     XUO_WORDSIZE
         2 000077   000044 115007                    CMPA    36,DL
         2 000100   000107 601000 2                  TNZ     s:10892

     5012    10883    2       THEN DO /* l66 */;

     5013    10884
     5014    10885    2           VALUE_1 = P_VALUE;

  10885  2 000101   200005 470500                    LDP0    @P_VALUE,,AUTO
         2 000102   000000 236100                    LDQ     0,,PR0
         2 000103   200015 756100                    STQ     VALUE_1,,AUTO

     5015    10886    2           NUMBER_PROGRAM_WORDS = 1;

  10886  2 000104   000001 235007                    LDA     1,DL
         2 000105   200012 755100                    STA     NUMBER_PROGRAM_WORDS,,AUTO

     5016    10887
     5017    10888    2           END;

  10888  2 000106   000123 710000 2                  TRA     PRGM_COMMON

     5018    10889
     5019    10890    2       ELSE DO /* l6 */;

     5020    10891
     5021    10892    2           VALUE_1 = ADDR(P_VALUE) -> ADJUSTABLE_BIT;

  10892  2 000107   200005 470500                    LDP0    @P_VALUE,,AUTO
         2 000110   000000 620005                    EAX0    0,AL
         2 000111   003100 060540                    CSL     bolr='003'O
         2 000112   000000 000010                    BDSC    0,,PR0                   by=0,bit=0,n=*X0
PL6.E3A0      #020=XUO$PRGM File=XUO$BUILD.:E05TSI                               WED 07/30/97 09:34 Page:639
         2 000113   200015 000044                    BDSC    VALUE_1,,AUTO            by=0,bit=0,n=36

     5022    10893    2           VALUE_2 = PINCRB(ADDR(P_VALUE), XUO_WORDSIZE) -> ADJUSTABLE_BIT;

  10893  2 000114   000000 720000 xsym               LXL0    XUO_WORDSIZE
         2 000115   000000 235000 xsym               LDA     XUO_WORDSIZE
         2 000116   003100 060545                    CSL     bolr='003'O
         2 000117   000000 000010                    BDSC    0,A,PR0                  by=0,bit=0,n=*X0
         2 000120   200016 000044                    BDSC    VALUE_2,,AUTO            by=0,bit=0,n=36

     5023    10894    2           NUMBER_PROGRAM_WORDS = 2;

  10894  2 000121   000002 236007                    LDQ     2,DL
         2 000122   200012 756100                    STQ     NUMBER_PROGRAM_WORDS,,AUTO

     5024    10895
     5025    10896    2           END;

  10882  2 000123                       PRGM_COMMON  null
     5026    10897         /*
     5027    10898            Common code
     5028    10899            */
     5029    10900    1   PRGM_COMMON: ;
     5030    10901         /*
     5031    10902            Verify section number
     5032    10903            */
     5033    10904    1       IF P_SECTION_NUMBER>B_SECTION_COUNT THEN

  10904  2 000123   200003 471500                    LDP1    @P_SECTION_NUMBER,,AUTO
         2 000124   100000 236100                    LDQ     0,,PR1
         2 000125   000130 604000 2                  TMI     s:10905
         2 000126   000000 116000 xsym               CMPQ    B_SECTION_COUNT
         2 000127   000131 604400 2                  TMOZ    s:10911

     5034    10905    1           ALTRETURN;

  10905  2 000130   000000 702200 xent               TSX2  ! X66_AALT
PL6.E3A0      #020=XUO$PRGM File=XUO$BUILD.:E05TSI                               WED 07/30/97 09:34 Page:640

     5035    10906
     5036    10907         /* We also have to see if the offset of the program word to be
     5037    10908            written is less than the max of prog and reloc.  We dont allow
     5038    10909            any backsliding here.
     5039    10910         */
     5040    10911    1       IF (NOT B_TRUST_ME) AND

  10911  2 000131   000000 234000 xsym               SZN     B_TRUST_ME
         2 000132   000153 604000 2                  TMI     s:10942
         2 000133   100000 235100                    LDA     0,,PR1
         2 000134   000003 735000                    ALS     3
         2 000135   200004 473500                    LDP3    @P_OFFSET,,AUTO
         2 000136   000000 474400 xsym               LDP4    PTR2_SECTION_ARRAY$
         2 000137   300000 236100                    LDQ     0,,PR3
         2 000140   400002 116105                    CMPQ    2,AL,PR4
         2 000141   000153 605400 2                  TPNZ    s:10942

     5041    10912    1          (P_OFFSET <= SECTION_ARRAY.MAX_PROG_RELOC (P_SECTION_NUMBER))
     5042    10913    2       THEN DO;

     5043    10914        %IF CP6;
     5044    10915    2           IF XUO_ERROR_ROUTINE ~= ENTADDR(NIL)

  10915  2 000142   000000 236000 xsym               LDQ     XUO_ERROR_ROUTINE
         2 000143   000002 116000 xsym               CMPQ    B_VECTNIL+2
         2 000144   000152 600000 2                  TZE     s:10938

     5045    10916    2           THEN
     5046    10917    2               CALL XUO_ERROR_ROUTINE (OUT_OF_ORDER);

  10917  2 000145   000000 630400 3                  EPPR0   0
         2 000146   000000 220000 xsym               LDX0    XUO_ERROR_ROUTINE
         2 000147   000017 631400 xsym               EPPR1   B_VECTNIL+15
         2 000150   000000 701010                    TSX1    0,X0
         2 000151   000000 011000                    NOP     0

PL6.E3A0      #020=XUO$PRGM File=XUO$BUILD.:E05TSI                               WED 07/30/97 09:34 Page:641
     5047    10918        /*E*  ERROR:   XUO-E$XUO#OUT_OF_ORDER
     5048    10919              MESSAGE: A context error has occurred while building an object unit.
     5049    10920                       A call has been made to XUO$PRGM (program-record builder) or
     5050    10921                       XUO$RELOC (relocation-record builder) which has requested that
     5051    10922                       a program/relocation entry be output for some location in a
     5052    10923                       control section.  The specified offset in this control section
     5053    10924                       is less than (for XUO$RELOC), or not greater than (XUO$PRGM) the
     5054    10925                       offset of some previous location which has been written into
     5055    10926                       this control section.
     5056    10927
     5057    10928                       Under normal circumstances, each control section must be written
     5058    10929                       in increasing-offset order (lowest-numbered locations first), in
     5059    10930                       order to guarantee that relocation directives are applied in the
     5060    10931                       proper order.  This requirement may be over-ridden by setting
     5061    10932                       the "trust me!" flag on the initial call to XUO$OUINIT.  Note
     5062    10933                       that improper use of the "trust me!" flag may result in the
     5063    10934                       creation of an object unit in which relocation directives are
     5064    10935                       applied in some incorrect fashion; the results are unpredictable.
     5065    10936        */
     5066    10937        %ENDIF;
     5067    10938    2           ALTRETURN;

  10938  2 000152   000000 702200 xent               TSX2  ! X66_AALT

     5068    10939    2           END;
     5069    10940
     5070    10941         /* Set up a value with the amount of room left in the buffer. */
     5071    10942    1       ROOM_LEFT = B_PROGRAM_PAGE_SIZE-SECTION_ARRAY.PROGRAM_CURS(P_SECTION_NUMBER);

  10942  2 000153   100000 235100                    LDA     0,,PR1
         2 000154   000003 735000                    ALS     3
         2 000155   000000 473400 xsym               LDP3    PTR2_SECTION_ARRAY$
         2 000156   000000 236000 xsym               LDQ     B_PROGRAM_PAGE_SIZE
         2 000157   300000 136105                    SBLQ    0,AL,PR3
         2 000160   200011 756100                    STQ     ROOM_LEFT,,AUTO

     5072    10943
PL6.E3A0      #020=XUO$PRGM File=XUO$BUILD.:E05TSI                               WED 07/30/97 09:34 Page:642
     5073    10944    1       IF SECTION_ARRAY.PTR2_LRU$(P_SECTION_NUMBER)=ADDR(NIL)

  10944  2 000161   300003 236105                    LDQ     3,AL,PR3
         2 000162   000001 116000 xsym               CMPQ    B_VECTNIL+1
         2 000163   000304 601000 2                  TNZ     s:10981

     5074    10945    2       THEN DO;

     5075    10946    2           CALL XUM$GET_LRU_ITEM (LRU_VECTOR, PTR2_LRU$) ALTRET (ERR_LRU);

  10946  2 000164   200006 634500                    EPPR4   PTR2_LRU$,,AUTO
         2 000165   200021 454500                    STP4    TEXT+2,,AUTO
         2 000166   000001 236000 3                  LDQ     1
         2 000167   200020 756100                    STQ     TEXT+1,,AUTO
         2 000170   200020 630500                    EPPR0   TEXT+1,,AUTO
         2 000171   000020 631400 xsym               EPPR1   B_VECTNIL+16
         2 000172   000000 701000 xent               TSX1    XUM$GET_LRU_ITEM
         2 000173   000466 702000 2                  TSX2    ERR_LRU

     5076    10947    2           CALL XUO$PURGE_BUFFERS (%TYPPROG,PTR2_LRU$->BUBIN)ALTRET(ERR);

  10947  2 000174   200006 236100                    LDQ     PTR2_LRU$,,AUTO
         2 000175   000002 235000 3                  LDA     2
         2 000176   200020 757100                    STAQ    TEXT+1,,AUTO
         2 000177   200020 630500                    EPPR0   TEXT+1,,AUTO
         2 000200   000020 631400 xsym               EPPR1   B_VECTNIL+16
         2 000201   000000 701000 xent               TSX1    XUO$PURGE_BUFFERS
         2 000202   000467 702000 2                  TSX2    ERR

     5077    10948
     5078    10949    2           SECTION_ARRAY.PTR2_LRU$(P_SECTION_NUMBER) = SECTION_ARRAY.PTR2_LRU$

  10949  2 000203   200003 470500                    LDP0    @P_SECTION_NUMBER,,AUTO
         2 000204   000000 235100                    LDA     0,,PR0
         2 000205   000003 735000                    ALS     3
         2 000206   200006 471500                    LDP1    PTR2_LRU$,,AUTO
         2 000207   000000 620005                    EAX0    0,AL
PL6.E3A0      #020=XUO$PRGM File=XUO$BUILD.:E05TSI                               WED 07/30/97 09:34 Page:643
         2 000210   100000 235100                    LDA     0,,PR1
         2 000211   000003 735000                    ALS     3
         2 000212   000000 473400 xsym               LDP3    PTR2_SECTION_ARRAY$
         2 000213   300003 236105                    LDQ     3,AL,PR3
         2 000214   300003 756110                    STQ     3,X0,PR3

     5079    10950    2              (PTR2_LRU$->BUBIN);
     5080    10951    2           SECTION_ARRAY.PTR2_RELOCATION_BUF$ (P_SECTION_NUMBER) =

  10951  2 000215   000000 235100                    LDA     0,,PR0
         2 000216   000003 735000                    ALS     3
         2 000217   200006 471500                    LDP1    PTR2_LRU$,,AUTO
         2 000220   000000 620005                    EAX0    0,AL
         2 000221   100000 235100                    LDA     0,,PR1
         2 000222   000003 735000                    ALS     3
         2 000223   000000 473400 xsym               LDP3    PTR2_SECTION_ARRAY$
         2 000224   300005 236105                    LDQ     5,AL,PR3
         2 000225   300005 756110                    STQ     5,X0,PR3

     5081    10952    2              SECTION_ARRAY.PTR2_RELOCATION_BUF$ (PTR2_LRU$->BUBIN);
     5082    10953    2           SECTION_ARRAY.PTR2_PROGRAM_BUF$ (P_SECTION_NUMBER) =

  10953  2 000226   000000 235100                    LDA     0,,PR0
         2 000227   000003 735000                    ALS     3
         2 000230   200006 471500                    LDP1    PTR2_LRU$,,AUTO
         2 000231   000000 620005                    EAX0    0,AL
         2 000232   100000 235100                    LDA     0,,PR1
         2 000233   000003 735000                    ALS     3
         2 000234   000000 473400 xsym               LDP3    PTR2_SECTION_ARRAY$
         2 000235   300004 236105                    LDQ     4,AL,PR3
         2 000236   300004 756110                    STQ     4,X0,PR3

     5083    10954    2              SECTION_ARRAY.PTR2_PROGRAM_BUF$ (PTR2_LRU$->BUBIN);
     5084    10955
     5085    10956    2           SECTION_ARRAY.PROGRAM_CURS (PTR2_LRU$->BUBIN) = 0;

  10956  2 000237   200006 471500                    LDP1    PTR2_LRU$,,AUTO
PL6.E3A0      #020=XUO$PRGM File=XUO$BUILD.:E05TSI                               WED 07/30/97 09:34 Page:644
         2 000240   100000 235100                    LDA     0,,PR1
         2 000241   000003 735000                    ALS     3
         2 000242   000000 473400 xsym               LDP3    PTR2_SECTION_ARRAY$
         2 000243   300000 450105                    STZ     0,AL,PR3

     5086    10957    2           SECTION_ARRAY.RELOCATION_CURS (PTR2_LRU$->BUBIN) = 0;

  10957  2 000244   200006 471500                    LDP1    PTR2_LRU$,,AUTO
         2 000245   100000 235100                    LDA     0,,PR1
         2 000246   000003 735000                    ALS     3
         2 000247   000000 473400 xsym               LDP3    PTR2_SECTION_ARRAY$
         2 000250   300001 450105                    STZ     1,AL,PR3

     5087    10958    2           SECTION_ARRAY.PTR2_PROGRAM_BUF$ (PTR2_LRU$->BUBIN) = ADDR(NIL);

  10958  2 000251   200006 471500                    LDP1    PTR2_LRU$,,AUTO
         2 000252   100000 235100                    LDA     0,,PR1
         2 000253   000003 735000                    ALS     3
         2 000254   000001 236000 xsym               LDQ     B_VECTNIL+1
         2 000255   000000 473400 xsym               LDP3    PTR2_SECTION_ARRAY$
         2 000256   300004 756105                    STQ     4,AL,PR3

     5088    10959    2           SECTION_ARRAY.PTR2_RELOCATION_BUF$(PTR2_LRU$->BUBIN) = ADDR(NIL);

  10959  2 000257   200006 471500                    LDP1    PTR2_LRU$,,AUTO
         2 000260   100000 235100                    LDA     0,,PR1
         2 000261   000003 735000                    ALS     3
         2 000262   000001 236000 xsym               LDQ     B_VECTNIL+1
         2 000263   000000 473400 xsym               LDP3    PTR2_SECTION_ARRAY$
         2 000264   300005 756105                    STQ     5,AL,PR3

     5089    10960    2           SECTION_ARRAY.PTR2_LRU$ (PTR2_LRU$->BUBIN) = ADDR(NIL);

  10960  2 000265   200006 471500                    LDP1    PTR2_LRU$,,AUTO
         2 000266   100000 235100                    LDA     0,,PR1
         2 000267   000003 735000                    ALS     3
         2 000270   000001 236000 xsym               LDQ     B_VECTNIL+1
PL6.E3A0      #020=XUO$PRGM File=XUO$BUILD.:E05TSI                               WED 07/30/97 09:34 Page:645
         2 000271   000000 473400 xsym               LDP3    PTR2_SECTION_ARRAY$
         2 000272   300003 756105                    STQ     3,AL,PR3

     5090    10961    2           SECTION_ARRAY.BUF_OFFSET(PTR2_LRU$->BUBIN) = 0;

  10961  2 000273   200006 471500                    LDP1    PTR2_LRU$,,AUTO
         2 000274   100000 235100                    LDA     0,,PR1
         2 000275   000003 735000                    ALS     3
         2 000276   000000 473400 xsym               LDP3    PTR2_SECTION_ARRAY$
         2 000277   300006 450105                    STZ     6,AL,PR3

     5091    10962
     5092    10963    2           PTR2_LRU$->BUBIN = P_SECTION_NUMBER;

  10963  2 000300   200006 471500                    LDP1    PTR2_LRU$,,AUTO
         2 000301   000000 235100                    LDA     0,,PR0
         2 000302   100000 755100                    STA     0,,PR1

     5093    10964    2           END;

  10964  2 000303   000333 710000 2                  TRA     s:10996

     5094    10965         /*
     5095    10966         This is where we see about purging the buffer because the
     5096    10967         new data has more words than will fit in the buffer, or the
     5097    10968         offset is not more than one more than the previous max of prog
     5098    10969         or reloc.
     5099    10970         */
     5100    10971         /* If the words about to be written into the program buffer fill it
     5101    10972            up, then we look to see if we can fit 6 reloc words into the reloc
     5102    10973            buffer.  If we cant then we purge both buffers.  If we can, then
     5103    10974            we continue on and write the progam words into the buffer.
     5104    10975            This avoids (in most cases) have to write two reloc records that
     5105    10976            affect one program record.  It also avoids have very small reloc
     5106    10977            records.  The extremly rare occurences of having more then 6 reloc
     5107    10978            words on a given program word will still cause small reloc records
     5108    10979            to be written.
PL6.E3A0      #020=XUO$PRGM File=XUO$BUILD.:E05TSI                               WED 07/30/97 09:34 Page:646
     5109    10980         */
     5110    10981    1       ELSE IF ((NUMBER_PROGRAM_WORDS > ROOM_LEFT)

  10981  2 000304   200011 236100                    LDQ     ROOM_LEFT,,AUTO
         2 000305   200012 116100                    CMPQ    NUMBER_PROGRAM_WORDS,,AUTO
         2 000306   000324 602000 2                  TNC     s:10991
         2 000307   200004 474500                    LDP4    @P_OFFSET,,AUTO
         2 000310   400000 236100                    LDQ     0,,PR4
         2 000311   300006 136105                    SBLQ    6,AL,PR3
         2 000312   000324 604000 2                  TMI     s:10991
         2 000313   300000 116105                    CMPQ    0,AL,PR3
         2 000314   000324 601000 2                  TNZ     s:10991
         2 000315   200012 236100                    LDQ     NUMBER_PROGRAM_WORDS,,AUTO
         2 000316   200011 036100                    ADLQ    ROOM_LEFT,,AUTO
         2 000317   000333 601000 2                  TNZ     s:10996
         2 000320   000000 236000 xsym               LDQ     B_RELOCATION_PAGE_SIZE
         2 000321   300001 136105                    SBLQ    1,AL,PR3
         2 000322   000006 116007                    CMPQ    6,DL
         2 000323   000333 605000 2                  TPL     s:10996

     5111    10982    1              OR
     5112    10983    1              (P_OFFSET - SECTION_ARRAY.BUF_OFFSET (P_SECTION_NUMBER)
     5113    10984    1              ~= SECTION_ARRAY.PROGRAM_CURS (P_SECTION_NUMBER))
     5114    10985    1              OR
     5115    10986    1              (NUMBER_PROGRAM_WORDS + ROOM_LEFT = 0)
     5116    10987    1              AND
     5117    10988    1              (B_RELOCATION_PAGE_SIZE - SECTION_ARRAY.RELOCATION_CURS
     5118    10989    1              (P_SECTION_NUMBER) < 6))
     5119    10990    2           THEN DO;

     5120    10991    2               CALL XUO$PURGE_BUFFERS (%TYPPROG, P_SECTION_NUMBER) ALTRET (ERR);

  10991  2 000324   200003 236100                    LDQ     @P_SECTION_NUMBER,,AUTO
         2 000325   000002 235000 3                  LDA     2
         2 000326   200020 757100                    STAQ    TEXT+1,,AUTO
         2 000327   200020 630500                    EPPR0   TEXT+1,,AUTO
         2 000330   000020 631400 xsym               EPPR1   B_VECTNIL+16
PL6.E3A0      #020=XUO$PRGM File=XUO$BUILD.:E05TSI                               WED 07/30/97 09:34 Page:647
         2 000331   000000 701000 xent               TSX1    XUO$PURGE_BUFFERS
         2 000332   000467 702000 2                  TSX2    ERR

     5121    10992    2               END;

     5122    10993
     5123    10994         /* If this is the first datum written to the buffer then set up min
     5124    10995            offset */
     5125    10996    1       IF SECTION_ARRAY.PROGRAM_CURS(P_SECTION_NUMBER) = 0

  10996  2 000333   200003 470500                    LDP0    @P_SECTION_NUMBER,,AUTO
         2 000334   000000 235100                    LDA     0,,PR0
         2 000335   000003 735000                    ALS     3
         2 000336   000000 471400 xsym               LDP1    PTR2_SECTION_ARRAY$
         2 000337   100000 235105                    LDA     0,AL,PR1
         2 000340   000364 601000 2                  TNZ     s:11009

     5126    10997    2       THEN DO;

     5127    10998         /* If there is an existing reloc record and the program buf is empty,
     5128    10999            then we have to purge the reloc record.  Otherwise the reloc would
     5129    11000            apply to the wrong program.
     5130    11001         */
     5131    11002    2           IF SECTION_ARRAY.RELOCATION_CURS (P_SECTION_NUMBER) > 0

  11002  2 000341   000000 235100                    LDA     0,,PR0
         2 000342   000003 735000                    ALS     3
         2 000343   100001 235105                    LDA     1,AL,PR1
         2 000344   000354 600000 2                  TZE     s:11006

     5132    11003    3           THEN DO;

     5133    11004    3               CALL XUO$PURGE_BUFFERS (%TYPPROG, P_SECTION_NUMBER) ALTRET (ERR);

  11004  2 000345   200003 236100                    LDQ     @P_SECTION_NUMBER,,AUTO
         2 000346   000002 235000 3                  LDA     2
         2 000347   200020 757100                    STAQ    TEXT+1,,AUTO
PL6.E3A0      #020=XUO$PRGM File=XUO$BUILD.:E05TSI                               WED 07/30/97 09:34 Page:648
         2 000350   200020 630500                    EPPR0   TEXT+1,,AUTO
         2 000351   000020 631400 xsym               EPPR1   B_VECTNIL+16
         2 000352   000000 701000 xent               TSX1    XUO$PURGE_BUFFERS
         2 000353   000467 702000 2                  TSX2    ERR

     5134    11005    3               END;

     5135    11006    2           SECTION_ARRAY.BUF_OFFSET(P_SECTION_NUMBER) = P_OFFSET;

  11006  2 000354   200003 470500                    LDP0    @P_SECTION_NUMBER,,AUTO
         2 000355   000000 235100                    LDA     0,,PR0
         2 000356   000003 735000                    ALS     3
         2 000357   200004 471500                    LDP1    @P_OFFSET,,AUTO
         2 000360   000000 620005                    EAX0    0,AL
         2 000361   100000 235100                    LDA     0,,PR1
         2 000362   000000 473400 xsym               LDP3    PTR2_SECTION_ARRAY$
         2 000363   300006 755110                    STA     6,X0,PR3

     5136    11007    2           END;

     5137    11008         /* Write data to the buffer */
     5138    11009    1       TMP_PTR$ = PINCRW(SECTION_ARRAY.PTR2_PROGRAM_BUF$(P_SECTION_NUMBER),

  11009  2 000364   000000 235100                    LDA     0,,PR0
         2 000365   000003 735000                    ALS     3
         2 000366   000000 471400 xsym               LDP1    PTR2_SECTION_ARRAY$
         2 000367   100000 720105                    LXL0    0,AL,PR1
         2 000370   100004 473505                    LDP3    4,AL,PR1
         2 000371   300000 634510                    EPPR4   0,X0,PR3
         2 000372   200010 454500                    STP4    TMP_PTR$,,AUTO

     5139    11010    1          SECTION_ARRAY.PROGRAM_CURS(P_SECTION_NUMBER));
     5140    11011    1       IF NUMBER_PROGRAM_WORDS = 2

  11011  2 000373   200012 236100                    LDQ     NUMBER_PROGRAM_WORDS,,AUTO
         2 000374   000002 116007                    CMPQ    2,DL
         2 000375   000412 601000 2                  TNZ     s:11019
PL6.E3A0      #020=XUO$PRGM File=XUO$BUILD.:E05TSI                               WED 07/30/97 09:34 Page:649

     5141    11012    2       THEN DO;

     5142    11013    2           TMP_PTR$->PROGRAM_DWORD.FIRST = VALUE_1;

  11013  2 000376   200015 236100                    LDQ     VALUE_1,,AUTO
         2 000377   400000 756100                    STQ     0,,PR4

     5143    11014    2           TMP_PTR$->PROGRAM_DWORD.SECOND = VALUE_2;

  11014  2 000400   200016 236100                    LDQ     VALUE_2,,AUTO
         2 000401   400001 756100                    STQ     1,,PR4

     5144    11015    2           SECTION_ARRAY.PROGRAM_CURS(P_SECTION_NUMBER) =

  11015  2 000402   000000 235100                    LDA     0,,PR0
         2 000403   000003 735000                    ALS     3
         2 000404   000000 471400 xsym               LDP1    PTR2_SECTION_ARRAY$
         2 000405   000000 620005                    EAX0    0,AL
         2 000406   100000 235105                    LDA     0,AL,PR1
         2 000407   000002 035007                    ADLA    2,DL
         2 000410   100000 755110                    STA     0,X0,PR1

     5145    11016    2              SECTION_ARRAY.PROGRAM_CURS(P_SECTION_NUMBER) + 2;
     5146    11017    2           END;

  11017  2 000411   000423 710000 2                  TRA     s:11024

     5147    11018    2       ELSE DO;

     5148    11019    2           TMP_PTR$->PROGRAM_WORD = VALUE_1;

  11019  2 000412   200015 236100                    LDQ     VALUE_1,,AUTO
         2 000413   400000 756100                    STQ     0,,PR4

     5149    11020    2           SECTION_ARRAY.PROGRAM_CURS(P_SECTION_NUMBER) =

PL6.E3A0      #020=XUO$PRGM File=XUO$BUILD.:E05TSI                               WED 07/30/97 09:34 Page:650
  11020  2 000414   000000 235100                    LDA     0,,PR0
         2 000415   000003 735000                    ALS     3
         2 000416   000000 471400 xsym               LDP1    PTR2_SECTION_ARRAY$
         2 000417   000000 620005                    EAX0    0,AL
         2 000420   100000 235105                    LDA     0,AL,PR1
         2 000421   000001 035007                    ADLA    1,DL
         2 000422   100000 755110                    STA     0,X0,PR1

     5150    11021    2              SECTION_ARRAY.PROGRAM_CURS (P_SECTION_NUMBER) + 1;
     5151    11022    2           END;

     5152    11023         /* Update the lru_list */
     5153    11024    1       IF XUO_MOST_RECENT_SECTION ~= P_SECTION_NUMBER

  11024  2 000423   000000 236000 xsym               LDQ     XUO_MOST_RECENT_SECTION
         2 000424   000427 604000 2                  TMI     s:11026
         2 000425   000000 116100                    CMPQ    0,,PR0
         2 000426   000446 600000 2                  TZE     s:11029

     5154    11025    2       THEN DO;

     5155    11026    2          CALL XUM$MAKE_ITEM_MRU (LRU_VECTOR, SECTION_ARRAY.PTR2_LRU$(P_SECTION_NUMBER
             11026                    )) ALTRET (ERR_LRU);

  11026  2 000427   000000 235100                    LDA     0,,PR0
         2 000430   000003 735000                    ALS     3
         2 000431   000044 733000                    LRS     36
         2 000432   000022 736000                    QLS     18
         2 000433   000003 036003                    ADLQ    3,DU
         2 000434   000000 036000 xsym               ADLQ    PTR2_SECTION_ARRAY$
         2 000435   000001 235000 3                  LDA     1
         2 000436   200020 757100                    STAQ    TEXT+1,,AUTO
         2 000437   200020 630500                    EPPR0   TEXT+1,,AUTO
         2 000440   000020 631400 xsym               EPPR1   B_VECTNIL+16
         2 000441   000000 701000 xent               TSX1    XUM$MAKE_ITEM_MRU
         2 000442   000466 702000 2                  TSX2    ERR_LRU

PL6.E3A0      #020=XUO$PRGM File=XUO$BUILD.:E05TSI                               WED 07/30/97 09:34 Page:651
     5156    11027    2           XUO_MOST_RECENT_SECTION = P_SECTION_NUMBER;

  11027  2 000443   200003 470500                    LDP0    @P_SECTION_NUMBER,,AUTO
         2 000444   000000 235100                    LDA     0,,PR0
         2 000445   000000 755000 xsym               STA     XUO_MOST_RECENT_SECTION

     5157    11028    2           END;

     5158    11029    1       SECTION_ARRAY.MAX_PROG_RELOC(P_SECTION_NUMBER) = MAXIMUM

  11029  2 000446   000000 235100                    LDA     0,,PR0
         2 000447   000003 735000                    ALS     3
         2 000450   200004 471500                    LDP1    @P_OFFSET,,AUTO
         2 000451   100000 236100                    LDQ     0,,PR1
         2 000452   000000 473400 xsym               LDP3    PTR2_SECTION_ARRAY$
         2 000453   300002 116105                    CMPQ    2,AL,PR3
         2 000454   000456 605000 2                  TPL     s:11029+8
         2 000455   300002 236105                    LDQ     2,AL,PR3
         2 000456   300002 756105                    STQ     2,AL,PR3

     5159    11030    1          (SECTION_ARRAY.MAX_PROG_RELOC(P_SECTION_NUMBER),P_OFFSET);
     5160    11031    1       SECTION_ARRAY.PROG_WORD_COUNT(P_SECTION_NUMBER) = P_OFFSET;

  11031  2 000457   000000 235100                    LDA     0,,PR0
         2 000460   000003 735000                    ALS     3
         2 000461   000000 620005                    EAX0    0,AL
         2 000462   100000 235100                    LDA     0,,PR1
         2 000463   000000 473400 xsym               LDP3    PTR2_SECTION_ARRAY$
         2 000464   300007 755110                    STA     7,X0,PR3

     5161    11032    1       RETURN;

  11032  2 000465   000000 702200 xent               TSX2  ! X66_ARET

  11031  2 000466                       ERR_LRU      null
     5162    11033    1   ERR_LRU: ;
     5163    11034    1       ALTRETURN;
PL6.E3A0      #020=XUO$PRGM File=XUO$BUILD.:E05TSI                               WED 07/30/97 09:34 Page:652

  11034  2 000466   000000 702200 xent               TSX2  ! X66_AALT

  11031  2 000467                       ERR          null
     5164    11035    1   ERR: ;
     5165    11036    1       ALTRETURN;

  11036  2 000467   000000 702200 xent               TSX2  ! X66_AALT
     5166    11037    1   END XUO$PRGM;
     5167    11038        %EOD;

PL6.E3A0      #020=XUO$PRGM File=XUO$BUILD.:E05TSI                               WED 07/30/97 09:34 Page:653
--  Include file information  --

   XU_PERR_C.:E05TOU  is referenced.
   XUM_ENTRIES_C.:E05TOU  is referenced.
   XUO$OBJ_C.:E05TOU  is referenced.
   B$OBJECT_C.:E05TOU  is referenced.
   CP_6_SUBS.:E05TOU  is referenced.
   CP_6_C.:E05TOU  is referenced.
   CP_6.:E05TOU  cannot be made into a system file and is referenced.
   ZVA_FLAGS.:TOOLE04  is referenced.
   ZVA_SYSTEM_FILE.:TOOLE04  is referenced.
      No diagnostics issued in procedure XUO$PRGM.
PL6.E3A0      #020=XUO$PRGM File=XUO$BUILD.:E05TSI                               WED 07/30/97 09:34 Page:654

 **** Variables and constants ****

  ****  Section 001 RoData XUO$PRGM

  ****  Scalars and arrays  ****
OctLoc.c.b A Datatyp(siz) R M Lvl/name                 OctLoc.c.b A Datatyp(siz) R M Lvl/name

     0-0-0/w STRC        r     1 OUT_OF_ORDER

  ****  Auto variables  ****

  ****  Scalars and arrays  ****
OctLoc.c.b A Datatyp(siz) R M Lvl/name                 OctLoc.c.b A Datatyp(siz) R M Lvl/name

     4-0-0/w PTR         r     1 @P_OFFSET                  3-0-0/w PTR         r     1 @P_SECTION_NUMBER
     5-0-0/w PTR         r     1 @P_VALUE                  12-0-0/w UBIN        r     1 NUMBER_PROGRAM_WORDS
     6-0-0/w PTR         r     1 PTR2_LRU$                 *0-0-0/w SBIN        r     1 P_OFFSET
    *0-0-0/w UBIN        r     1 P_SECTION_NUMBER          *0-0-0/w BIT         r     1 P_VALUE
    11-0-0/w UBIN        r     1 ROOM_LEFT                 17-0-0/b STRC        r     1 TEXT
    10-0-0/w PTR         r     1 TMP_PTR$                  15-0-0/b STRC        r     1 VALUE_1
    16-0-0/b STRC        r     1 VALUE_2

  ****  SYMREF variables  ****

  ****  Scalars and arrays  ****
OctLoc.c.b A Datatyp(siz) R M Lvl/name                 OctLoc.c.b A Datatyp(siz) R M Lvl/name

     0-0-0/w PTR         r     1 B$PRGKEY$                  0-0-0/w SBIN        r     1 B_PROGRAM_PAGE_SIZE
     0-0-0/w SBIN        r     1 B_RELOCATION_PAGE_SIZE
     0-0-0/w SBIN        r     1 B_SECTION_COUNT            0-0-0/b BIT         r     1 B_TRUST_ME
     0-0-0/d VECT        r     1 LRU_VECTOR                 0-0-0/w PTR         r     1 PTR2_SECTION_ARRAY$
     0-0-0/w EPTR        r     1 XUO_ERROR_ROUTINE
     0-0-0/w SBIN        r     1 XUO_MOST_RECENT_SECTION
     0-0-0/w UBIN        r     1 XUO_WORDSIZE

  ****  BASED and DCB variables  ****

PL6.E3A0      #020=XUO$PRGM File=XUO$BUILD.:E05TSI                               WED 07/30/97 09:34 Page:655
  ****  Scalars and arrays  ****
OctLoc.c.b A Datatyp(siz) R M Lvl/name                 OctLoc.c.b A Datatyp(siz) R M Lvl/name

     0-0-0/b ABIT        r     1 ADJUSTABLE_BIT             0-0-0/w UBIN        r     1 BUBIN
     0-0-0/w STRC(72)    r     1 PROGRAM_DWORD              0-0-0/w BIT         r     1 PROGRAM_WORD
     0-0-0/w STRC(288)   r     1 SECTION_ARRAY(0:0)


   Procedure XUO$PRGM requires 312 words for executable code.
   Procedure XUO$PRGM requires 18 words of local(AUTO) storage.
PL6.E3A0      #020=XUO$PRGM File=XUO$BUILD.:E05TSI                               WED 07/30/97 09:34 Page:656
          *** CROSS REFERENCE LISTING ***
**     DENOTES     IDENTIFIER DEFINITION
<<                 IDENTIFIER'S VALUE SET
>>                 IDENTIFIER'S VALUE USED
<>                 IDENTIFIER SET AND/OR USED
--                 IDENTIFIER REFERENCED
PL6.E3A0      #020=XUO$PRGM File=XUO$BUILD.:E05TSI                               WED 07/30/97 09:34 Page:657
          MINI XREF LISTING

ADJUSTABLE_BIT
     10796**DCL     10837>>ASSIGN  10892>>ASSIGN  10893>>ASSIGN
B$PRGKEY$
     10540**DCL     10542--IMP-PTR
BUBIN
     10616**DCL     10947<>CALL    10949>>ASSIGN  10951>>ASSIGN  10953>>ASSIGN  10956>>ASSIGN  10957>>ASSIGN
     10958>>ASSIGN  10959>>ASSIGN  10960>>ASSIGN  10961>>ASSIGN  10963<<ASSIGN
B_PROGRAM_PAGE_SIZE
     10586**DCL     10942>>ASSIGN
B_RELOCATION_PAGE_SIZE
     10724**DCL     10981>>IF
B_SECTION_COUNT
     10514**DCL     10904>>IF
B_TRUST_ME
     10633**DCL     10911>>IF
ERR
     11031**LABEL   10947--CALLALT 10991--CALLALT 11004--CALLALT
ERR_LRU
     11031**LABEL   10946--CALLALT 11026--CALLALT
LRU_VECTOR
     10601**DCL     10946<>CALL    11026<>CALL
NUMBER_PROGRAM_WORDS
     10769**DCL     10838<<ASSIGN  10844<<ASSIGN  10855<<ASSIGN  10862<<ASSIGN  10886<<ASSIGN  10894<<ASSIGN
     10981>>IF      10981>>IF      11011>>IF
OUT_OF_ORDER
     10649**DCL     10917<>CALL
PRGM_COMMON
     10882**LABEL   10839--GOTO    10875--GOTO
PROGRAM_DWORD.FIRST
     10685**DCL     11013<<ASSIGN
PROGRAM_DWORD.SECOND
     10686**DCL     11014<<ASSIGN
PL6.E3A0      #020=XUO$PRGM File=XUO$BUILD.:E05TSI                               WED 07/30/97 09:34 Page:658
PROGRAM_WORD
     10683**DCL     11019<<ASSIGN
PTR2_LRU$
     10618**DCL     10946<>CALL    10947>>CALL    10949>>ASSIGN  10951>>ASSIGN  10953>>ASSIGN  10956>>ASSIGN
     10957>>ASSIGN  10958>>ASSIGN  10959>>ASSIGN  10960>>ASSIGN  10961>>ASSIGN  10963>>ASSIGN
PTR2_SECTION_ARRAY$
     10602**DCL     10605--IMP-PTR 10911>>IF      10942>>ASSIGN  10944>>IF      10949>>ASSIGN  10949>>ASSIGN
     10951>>ASSIGN  10951>>ASSIGN  10953>>ASSIGN  10953>>ASSIGN  10956>>ASSIGN  10957>>ASSIGN  10958>>ASSIGN
     10959>>ASSIGN  10960>>ASSIGN  10961>>ASSIGN  10981>>IF      10981>>IF      10981>>IF      10996>>IF
     11002>>IF      11006>>ASSIGN  11009>>ASSIGN  11009>>ASSIGN  11015>>ASSIGN  11015>>ASSIGN  11020>>ASSIGN
     11020>>ASSIGN  11026>>CALL    11029>>ASSIGN  11029>>ASSIGN  11031>>ASSIGN
P_OFFSET
     10476**DCL        69--PROC    10841--ENTRY   10850--ENTRY   10880--ENTRY   10911>>IF      10981>>IF
     11006>>ASSIGN  11029>>ASSIGN  11031>>ASSIGN
P_SECTION_NUMBER
     10475**DCL        69--PROC    10841--ENTRY   10850--ENTRY   10880--ENTRY   10904>>IF      10911>>IF
     10942>>ASSIGN  10944>>IF      10949>>ASSIGN  10951>>ASSIGN  10953>>ASSIGN  10963>>ASSIGN  10981>>IF
     10981>>IF      10981>>IF      10991<>CALL    10996>>IF      11002>>IF      11004<>CALL    11006>>ASSIGN
     11009>>ASSIGN  11009>>ASSIGN  11015>>ASSIGN  11015>>ASSIGN  11020>>ASSIGN  11020>>ASSIGN  11024>>IF
     11026>>CALL    11027>>ASSIGN  11029>>ASSIGN  11029>>ASSIGN  11031>>ASSIGN
P_VALUE
     10477**DCL        69--PROC    10837--ASSIGN  10841--ENTRY   10843>>ASSIGN  10850--ENTRY   10854>>ASSIGN
     10861>>ASSIGN  10880--ENTRY   10885>>ASSIGN  10892--ASSIGN  10893--ASSIGN
ROOM_LEFT
     10688**DCL     10942<<ASSIGN  10981>>IF      10981>>IF
SECTION_ARRAY.BUF_OFFSET
     10612**DCL     10961<<ASSIGN  10981>>IF      11006<<ASSIGN
SECTION_ARRAY.MAX_PROG_RELOC
     10608**DCL     10911>>IF      11029<<ASSIGN  11029>>ASSIGN
SECTION_ARRAY.PROGRAM_CURS
     10606**DCL     10942>>ASSIGN  10956<<ASSIGN  10981>>IF      10996>>IF      11009>>ASSIGN  11015<<ASSIGN
     11015>>ASSIGN  11020<<ASSIGN  11020>>ASSIGN
SECTION_ARRAY.PROG_WORD_COUNT
     10613**DCL     11031<<ASSIGN
SECTION_ARRAY.PTR2_LRU$
     10609**DCL     10944>>IF      10949<<ASSIGN  10949>>ASSIGN  10960<<ASSIGN  11026<>CALL
PL6.E3A0      #020=XUO$PRGM File=XUO$BUILD.:E05TSI                               WED 07/30/97 09:34 Page:659
SECTION_ARRAY.PTR2_PROGRAM_BUF$
     10610**DCL     10953<<ASSIGN  10953>>ASSIGN  10958<<ASSIGN  11009>>ASSIGN
SECTION_ARRAY.PTR2_RELOCATION_BUF$
     10611**DCL     10951<<ASSIGN  10951>>ASSIGN  10959<<ASSIGN
SECTION_ARRAY.RELOCATION_CURS
     10607**DCL     10957<<ASSIGN  10981>>IF      11002>>IF
TEXT
     10807**DCL     10843<<ASSIGN  10854<<ASSIGN  10861<<ASSIGN  10874>>ASSIGN
TEXT.FIRST_8
     10809**DCL     10870>>ASSIGN
TEXT.FOURTH_8
     10815**DCL     10864>>ASSIGN
TEXT.SECOND_8
     10811**DCL     10871>>ASSIGN
TEXT.THIRD_8
     10813**DCL     10863>>ASSIGN
TEXT_COMMON
     10851**LABEL   10845--GOTO
TMP_PTR$
     10687**DCL     11009<<ASSIGN  11013>>ASSIGN  11014>>ASSIGN  11019>>ASSIGN
VALUE_1
     10797**DCL     10837<<ASSIGN  10874<<ASSIGN  10885<<ASSIGN  10892<<ASSIGN  11013>>ASSIGN  11019>>ASSIGN
VALUE_1.FIRST_8
     10798**DCL     10870<<ASSIGN
VALUE_1.SECOND_8
     10799**DCL     10871<<ASSIGN
VALUE_2
     10802**DCL     10893<<ASSIGN  11014>>ASSIGN
VALUE_2.FOURTH_8
     10804**DCL     10864<<ASSIGN
VALUE_2.THIRD_8
     10803**DCL     10863<<ASSIGN
XUM$GET_LRU_ITEM
     10398**DCL-ENT 10946--CALL
XUM$MAKE_ITEM_MRU
     10400**DCL-ENT 11026--CALL
PL6.E3A0      #020=XUO$PRGM File=XUO$BUILD.:E05TSI                               WED 07/30/97 09:34 Page:660
XUO$PURGE_BUFFERS
     10572**DCL-ENT 10947--CALL    10991--CALL    11004--CALL
XUO_ERROR_ROUTINE
     10795**DCL     10915>>IF      10917>>CALL
XUO_MOST_RECENT_SECTION
     10793**DCL     11024>>IF      11027<<ASSIGN
XUO_WORDSIZE
     10794**DCL     10796--IMP-SIZ 10837>>ASSIGN  10851>>IF      10868>>IF      10882>>IF      10892>>ASSIGN
     10893>>ASSIGN  10893>>ASSIGN

PL6.E3A0      #021=XUO$RELOC File=XUO$BUILD.:E05TSI                              WED 07/30/97 09:34 Page:661
     5168        1        /*M*     XUO$RELOC  - THIS MODULE WILL BUILD A PROGRAM RELOCATION RECORD*/
     5169        2        /*T***********************************************************/
     5170        3        /*T*                                                         */
     5171        4        /*T* Copyright (c) Bull HN Information Systems Inc., 1997    */
     5172        5        /*T*                                                         */
     5173        6        /*T***********************************************************/
     5174        7        /*P*
     5175        8
     5176        9        NAME:  XUO$RELOC
     5177       10        XUO$RELOC --Relocation Directives Record
     5178       11                    (Record Type 10, Subtype 1)
     5179       12
     5180       13
     5181       14        PURPOSE:  To generate Relocation Directives record entries.
     5182       15
     5183       16        DESCRIPTION:  This routine generates entries for the
     5184       17            Relocation Directives record.  The relocation buffer
     5185       18            will be flushed if the following conditions are met:
     5186       19              1.  There is insufficient room for 3 word entry
     5187       20                  in buffer.
     5188       21              2.  Relocating a new section
     5189       22              3.  The offset is less than the current key offset.
     5190       23            The program buffer will be flushed if the relocation
     5191       24            entry does not apply to the text buffer.   In addition,
     5192       25            any relocation records currently in the relocation
     5193       26            buffer will also be flushed.
     5194       27
     5195       28            Then either 1 one word, two word, or three word entry
     5196       29            will be made in the current buffer.
     5197       30            If the Eval  operator is passed, it is assumed that a
     5198       31            three word relocation entry is required.  Therefore
     5199       32            Value must also be passed.
     5200       33
     5201       34        */
     5202       35        /*D*
     5203       36
     5204       37        CALL:  CALL XUO$RELOC (Section Number,
PL6.E3A0      #021=XUO$RELOC File=XUO$BUILD.:E05TSI                              WED 07/30/97 09:34 Page:662
     5205       38                        Offset,
     5206       39                        Operand Type,
     5207       40                        Operand,
     5208       41                        Relocation Operator,
     5209       42                        Starting Bit,
     5210       43                        Ending Bit,
     5211       44                        Evaluation Operator,
     5212       45                        Value)
     5213       46
     5214       47        INPUT:
     5215       48            Section Number      UBIN ALIGNED
     5216       49                                The value representing the section
     5217       50                                number to which the relocatable
     5218       51                                record is to be applied.
     5219       52            Offset              UBIN ALIGNED
     5220       53                                The value representing the offset
     5221       54                                within the Control Section where
     5222       55                                the relocatable item is to be
     5223       56                                applied.
     5224       57            Operand Type        UBIN ALIGNED
     5225       58                                The type of operand
     5226       59                                  1 - section
     5227       60                                  2 - ENTREF
     5228       61                                  3 - SYMREF
     5229       62                                  4 - CONSTANT
     5230       63                                  5 - SEGDEF
     5231       64                                  6 - SEGREF
     5232       65            Operand             UBIN ALIGNED
     5233       66                                If the operand type = 4, the operand
     5234       67                                field is an unsigned constant.
     5235       68                                If the operand type is not equal 4 or
     5236       69                                0, then the operand field is an entry
     5237       70                                number into the table specified by
     5238       71                                the operand type.
     5239       72            Relocation Operator  UBIN ALIGNED
     5240       73                                The operator to be applied to the
     5241       74                                intermediate result and the field
PL6.E3A0      #021=XUO$RELOC File=XUO$BUILD.:E05TSI                              WED 07/30/97 09:34 Page:663
     5242       75                                defined by Starting Bit and Ending
     5243       76                                Bit within the current program
     5244       77                                record.
     5245       78                                  0 -     Undefined
     5246       79                                  1 -     Add
     5247       80                                  2 -     Subtract
     5248       81                                  3 -     Multiply
     5249       82                                  4 -     Divide
     5250       83                                 5-O'15'  Undefined
     5251       84                                   O'16'  Store right justified
     5252       85                                   O'17'  Store left justified
     5253       86            Starting Bit        UBIN ALIGNED
     5254       87                                The starting bit offset from the
     5255       88                                word locating the relocatable item.
     5256       89            Ending Bit          UBIN ALIGNED
     5257       90                                The ending bit offset from the
     5258       91                                word locating the relocatable item.
     5259       92            Evaluation  Operator UBIN ALIGNED  optional
     5260       93                                The operator to be applied to the
     5261       94                                value and the evaluation of the
     5262       95                                operand yielding an intermediate
     5263       96                                result, R.
     5264       97                                  0 - indicates Value is not present
     5265       98                                      r = E(operand)
     5266       99                                  1 - Add: r = E(operand)+Value
     5267      100                                  2 - Subtract: r = E(operand)-Value
     5268      101                                  3 - Multiply: r = E(operand)*Value
     5269      102                                  4 - Divide: r = E(operand)/Value
     5270      103                                  5 - Shift Right
     5271      104                                      r = E(operand) shifted right by
     5272      105                                          Value
     5273      106                                  6 - Shift Left
     5274      107                                      r = E(operand) shifted left
     5275      108                                          by Value
     5276      109                                  7 - Repeat:  The operand is a repeat
     5277      110                                      count.  Repeat Value n times.
     5278      111            Value               UBIN ALIGNED  optional
PL6.E3A0      #021=XUO$RELOC File=XUO$BUILD.:E05TSI                              WED 07/30/97 09:34 Page:664
     5279      112                                A constant to be used in the
     5280      113                                intermediate result.  This word is
     5281      114                                present only if the Evaluation
     5282      115                                Operator has been passed.
     5283      116
     5284      117        OUTPUT:
     5285      118            Relocation entry
     5286      119
     5287      120        B$OBJECT REFERENCE:  B$RELOC1, B$RELOC2
     5288      121        */
     5289      122        /*B*
     5290      123
     5291      124        GLOBAL DATA:
     5292      125            XUO_WORDSIZE
     5293      126
     5294      127        INTERFACE:
     5295      128            XUO$OUWRITE
     5296      129
     5297      130        */
     5298      131
     5299      132        XUO$RELOC: PROC (P_SECTION_NUMBER,P_OFFSET,P_OPERAND_TYPE,P_OPERAND,P_RELOC_OPERATOR
               132            ,P_STARTING_BIT,
     5300      133               P_ENDING_BIT,P_EVAL_OPERATOR,P_VALUE) ALTRET;
     5301      134         /*
     5302      135            */
     5303      136        %INCLUDE ZVA_SYSTEM_FILE;
     5304     6387            %PAGE (ARG=INCLUDES);

              6400    1   /*******************************************************************************
              6401    1   *                                                                              *
              6402    1   *        INCLUDES              INCLUDES                                            *
              6403    1   *                                                                              *
              6404    1   *******************************************************************************/

     5305     6408        %INCLUDE B$OBJECT_C;
     5306     9838        %INCLUDE XUO$OBJ_C;
     5307    10248        %INCLUDE XUM_ENTRIES_C;
PL6.E3A0      #021=XUO$RELOC File=XUO$BUILD.:E05TSI                              WED 07/30/97 09:34 Page:665
     5308    10268            %XUM_ENTRIES;
     5309    10277            %PAGE (ARG=SUBS);

             10290    1   /*******************************************************************************
             10291    1   *                                                                              *
             10292    1   *        SUBS              SUBS                                                  *
             10293    1   *                                                                              *
             10294    1   *******************************************************************************/

     5310    10298            %B$RELOCSUBS;
     5311    10328            %B$RECORDSUBS;
     5312    10356            %PAGE (ARG=PARAMETERS);

             10369    1   /*******************************************************************************
             10370    1   *                                                                              *
             10371    1   *        PARAMETERS              PARAMETERS                                        *
             10372    1   *                                                                              *
             10373    1   *******************************************************************************/

     5313    10377    1   DCL P_SECTION_NUMBER UBIN;
     5314    10378    1   DCL P_OFFSET SBIN;
     5315    10379    1   DCL P_OPERAND_TYPE UBIN;
     5316    10380    1   DCL P_OPERAND UBIN;
     5317    10381    1   DCL P_RELOC_OPERATOR UBIN;
     5318    10382    1   DCL P_STARTING_BIT UBIN;
     5319    10383    1   DCL P_ENDING_BIT UBIN;
     5320    10384    1   DCL P_EVAL_OPERATOR UBIN;
     5321    10385    1   DCL P_VALUE UBIN;
     5322    10386        %PAGE (ARG=SECTION DATA);

             10399    1   /*******************************************************************************
             10400    1   *                                                                              *
             10401    1   *        SECTION DATA              SECTION DATA                                    *
             10402    1   *                                                                              *
             10403    1   *******************************************************************************/

     5323    10407        %B_SECTION_POINTERS;
PL6.E3A0      #021=XUO$RELOC File=XUO$BUILD.:E05TSI                              WED 07/30/97 09:34 Page:666
     5324    10426        %PLIST;
     5325    10427        %PAGE (ARG=RELOCATION DATA);

             10440    1   /*******************************************************************************
             10441    1   *                                                                              *
             10442    1   *        RELOCATION DATA              RELOCATION DATA                              *
             10443    1   *                                                                              *
             10444    1   *******************************************************************************/

     5326    10448        %B_RELOCATION_POINTERS;
     5327    10463        %B$RELOC1 (STCLASS="BASED (BUF_PTR$)");
     5328    10494        %B$RELOC2 (STCLASS="BASED (BUF_PTR$)");
     5329    10561        %B_TRUST_ME;
     5330    10575        %PLIST;
     5331    10576        %PAGE (ARG=PROGRAM DATA);

             10589    1   /*******************************************************************************
             10590    1   *                                                                              *
             10591    1   *        PROGRAM DATA              PROGRAM DATA                                    *
             10592    1   *                                                                              *
             10593    1   *******************************************************************************/

     5332    10597        %B_PROGRAM_POINTERS;
     5333    10612        %B_MULTIBUF_VARS;
     5334    10639        %LOCAL_STUFF;
     5335    10645        %PAGE (ARG=LOCAL DATA);

             10658    1   /*******************************************************************************
             10659    1   *                                                                              *
             10660    1   *        LOCAL DATA              LOCAL DATA                                        *
             10661    1   *                                                                              *
             10662    1   *******************************************************************************/

     5336    10666    1   DCL DISPLACEMENT UBIN;
     5337    10667    1   DCL RELOCATION_CUR$ PTR;
     5338    10668    1   DCL BUF_PTR$ PTR;
     5339    10669    1   DCL TEMP UBIN;
PL6.E3A0      #021=XUO$RELOC File=XUO$BUILD.:E05TSI                              WED 07/30/97 09:34 Page:667
     5340    10670    1   DCL EVAL_OPERATOR UBIN;
     5341    10671    1   DCL COMPRESS_9_TO_8 BIT (1);
     5342    10672    1   DCL OPERAND UBIN;
     5343    10673        %PAGE (ARG=ENTRY DCLS);

             10686    1   /*******************************************************************************
             10687    1   *                                                                              *
             10688    1   *        ENTRY DCLS              ENTRY DCLS                                        *
             10689    1   *                                                                              *
             10690    1   *******************************************************************************/

     5344    10694    1   DCL XUO$PURGE_BUFFERS ENTRY(2) ALTRET;
     5345    10695        %PAGE (ARG=MISC DATA);

             10708    1   /*******************************************************************************
             10709    1   *                                                                              *
             10710    1   *        MISC DATA              MISC DATA                                          *
             10711    1   *                                                                              *
             10712    1   *******************************************************************************/

     5346    10716    1   DCL XUO_MOST_RECENT_SECTION SBIN WORD SYMREF;
     5347    10717    1   DCL XUO_WORDSIZE SBIN SYMREF;
     5348    10718    1   DCL XUO_ERROR_ROUTINE EPTR SYMREF;
     5349    10719        %IF CP6;
     5350    10720        %VLP_ERRCODE (FPTN=OUT_OF_ORDER, STCLASS=SYMREF READONLY);
     5351    10765        %ENDIF;
     5352    10766        %PAGE (ARG=CODE);

             10779    1   /*******************************************************************************
             10780    1   *                                                                              *
             10781    1   *        CODE              CODE                                                  *
             10782    1   *                                                                              *
             10783    1   *******************************************************************************/

     5353    10787    1       COMPRESS_9_TO_8 = '0'B;
     5354    10788
     5355    10789    1       GOTO RELOC_COMMON;
PL6.E3A0      #021=XUO$RELOC File=XUO$BUILD.:E05TSI                              WED 07/30/97 09:34 Page:668
     5356    10790
     5357    10791    1   XUO$RELOC_TEXT: ENTRY (P_SECTION_NUMBER, P_OFFSET, P_OPERAND_TYPE, P_OPERAND,
     5358    10792    1          P_RELOC_OPERATOR, P_STARTING_BIT, P_ENDING_BIT,
     5359    10793    1          P_EVAL_OPERATOR, P_VALUE) ALTRET;
     5360    10794
     5361    10795    1       IF XUO_WORDSIZE = 36
     5362    10796    1       THEN
     5363    10797    1           COMPRESS_9_TO_8 = '0'B;
     5364    10798    1       ELSE
     5365    10799    1           COMPRESS_9_TO_8 = '1'B;
     5366    10800
     5367    10801    1       GOTO RELOC_COMMON;
     5368    10802
     5369    10803        %EJECT;
PL6.E3A0      #021=XUO$RELOC File=XUO$BUILD.:E05TSI                              WED 07/30/97 09:34 Page:669
     5370    10804            %PAGE (ARG=COMMON RELOCATION ROUTINE);

             10817    1   /*******************************************************************************
             10818    1   *                                                                              *
             10819    1   *        COMMON RELOCATION ROUTINE              COMMON RELOCATION ROUTINE          *
             10820    1   *                                                                              *
             10821    1   *******************************************************************************/

     5371    10825    1   RELOC_COMMON: ;
     5372    10826    1       IF (NOT B_TRUST_ME) AND
     5373    10827    1          (P_OFFSET < SECTION_ARRAY.PROG_WORD_COUNT (P_SECTION_NUMBER))
     5374    10828    2       THEN DO;
     5375    10829        %IF CP6;
     5376    10830    2           IF XUO_ERROR_ROUTINE ~= ENTADDR(NIL)
     5377    10831    2           THEN
     5378    10832    2               CALL XUO_ERROR_ROUTINE (OUT_OF_ORDER);
     5379    10833        %ENDIF;
     5380    10834    2           ALTRETURN;
     5381    10835    2           END;
     5382    10836
     5383    10837    1       IF SECTION_ARRAY.PTR2_LRU$(P_SECTION_NUMBER)=ADDR(NIL)
     5384    10838    2       THEN DO;
     5385    10839    2           CALL XUM$GET_LRU_ITEM (LRU_VECTOR, PTR2_LRU$) ALTRET (ERR_LRU);
     5386    10840    2           CALL XUO$PURGE_BUFFERS (%TYPPROG,PTR2_LRU$->BUBIN)ALTRET(ERR);
     5387    10841
     5388    10842    2           SECTION_ARRAY.PTR2_LRU$(P_SECTION_NUMBER) = SECTION_ARRAY.PTR2_LRU$
     5389    10843    2              (PTR2_LRU$->BUBIN);
     5390    10844    2           SECTION_ARRAY.PTR2_RELOCATION_BUF$ (P_SECTION_NUMBER) =
     5391    10845    2              SECTION_ARRAY.PTR2_RELOCATION_BUF$ (PTR2_LRU$->BUBIN);
     5392    10846    2           SECTION_ARRAY.PTR2_PROGRAM_BUF$ (P_SECTION_NUMBER) =
     5393    10847    2              SECTION_ARRAY.PTR2_PROGRAM_BUF$ (PTR2_LRU$->BUBIN);
     5394    10848
     5395    10849    2           SECTION_ARRAY.RELOCATION_CURS (PTR2_LRU$->BUBIN) = 0;
     5396    10850    2           SECTION_ARRAY.PROGRAM_CURS (PTR2_LRU$->BUBIN) = 0;
     5397    10851    2           SECTION_ARRAY.PTR2_RELOCATION_BUF$ (PTR2_LRU$->BUBIN) = ADDR(NIL);
     5398    10852    2           SECTION_ARRAY.PTR2_PROGRAM_BUF$(PTR2_LRU$->BUBIN) = ADDR(NIL);
     5399    10853    2           SECTION_ARRAY.PTR2_LRU$ (PTR2_LRU$->BUBIN) = ADDR(NIL);
PL6.E3A0      #021=XUO$RELOC File=XUO$BUILD.:E05TSI                              WED 07/30/97 09:34 Page:670
     5400    10854    2           SECTION_ARRAY.BUF_OFFSET(PTR2_LRU$->BUBIN) = 0;
     5401    10855
     5402    10856    2           PTR2_LRU$->BUBIN = P_SECTION_NUMBER;
     5403    10857    2           END;
     5404    10858         /*  If the offset is not greater than or equal to the offset of the
     5405    10859            current section, we must purge! */
     5406    10860    1       IF (P_OFFSET < SECTION_ARRAY.BUF_OFFSET(P_SECTION_NUMBER))
     5407    10861    2       THEN DO;
     5408    10862    2           CALL XUO$PURGE_BUFFERS (%TYPPROG, P_SECTION_NUMBER) ALTRET (ERR);
     5409    10863    2           END;
     5410    10864         /*         This is where we see about purging the buffer because
     5411    10865            new data has more words than will fit in the buffer. */
     5412    10866    1       IF (B_RELOCATION_PAGE_SIZE -
     5413    10867    1          SECTION_ARRAY.RELOCATION_CURS(P_SECTION_NUMBER) < 3)
     5414    10868    2       THEN DO;
     5415    10869         /* If we have to purge the reloc buffer, we will first see if there
     5416    10870            is lots of program buffer still available and we are generating
     5417    10871            relocs for program words which are going in that buffer. Lots is 1/64 of
     5418    10872            the program buffers size.  64 is chosen since it is a power of 2 and
     5419    10873            a shift is faster than a divide.  If lots of program buffer is not
     5420    10874            available then we will purge both reloc and program buffers.  If
     5421    10875            lots of program is available then we will purge just the reloc
     5422    10876            buffer.
     5423    10877         */
     5424    10878
     5425    10879    2           IF (B_PROGRAM_PAGE_SIZE - SECTION_ARRAY.PROGRAM_CURS(P_SECTION_NUMBER) >
     5426    10880    2              B_PROGRAM_PAGE_SIZE / 64) AND
     5427    10881    2              ( ( SECTION_ARRAY.PROGRAM_CURS(P_SECTION_NUMBER) > 0 ) AND
     5428    10882    2              ( B_PROGRAM_PAGE_SIZE > P_OFFSET - SECTION_ARRAY.BUF_OFFSET(
             10882                       P_SECTION_NUMBER) ) )
     5429    10883
     5430    10884    3           THEN DO;
     5431    10885    3               CALL XUO$PURGE_BUFFERS (%TYPRELOC, P_SECTION_NUMBER) ALTRET(ERR);
     5432    10886    3               END;
     5433    10887    3           ELSE DO;
     5434    10888    3               CALL XUO$PURGE_BUFFERS (%TYPPROG, P_SECTION_NUMBER) ALTRET(ERR);
     5435    10889    3               END;
PL6.E3A0      #021=XUO$RELOC File=XUO$BUILD.:E05TSI                              WED 07/30/97 09:34 Page:671
     5436    10890    2           END;
     5437    10891
     5438    10892         /* If this is the first datum written to the buffer then set up min
     5439    10893            offset */
     5440    10894    1       IF (SECTION_ARRAY.RELOCATION_CURS(P_SECTION_NUMBER) = 0 AND
     5441    10895    1          SECTION_ARRAY.PROGRAM_CURS(P_SECTION_NUMBER) = 0)
     5442    10896    2       THEN DO;
     5443    10897    2           SECTION_ARRAY.BUF_OFFSET(P_SECTION_NUMBER) = P_OFFSET;
     5444    10898    2           END;
     5445    10899         /* Write data to the buffer */
     5446    10900         /*
     5447    10901         The following section will determine what kind of relocation
     5448    10902         record needs to be output. Ie.
     5449    10903         1.  One word
     5450    10904         2.  Two word
     5451    10905         3.  Three word
     5452    10906         */
     5453    10907    1       BUF_PTR$=PINCRW(SECTION_ARRAY.PTR2_RELOCATION_BUF$(P_SECTION_NUMBER)
     5454    10908    1          ,SECTION_ARRAY.RELOCATION_CURS (P_SECTION_NUMBER));
     5455    10909    1       DISPLACEMENT = P_OFFSET - SECTION_ARRAY.BUF_OFFSET(P_SECTION_NUMBER);
     5456    10910    1       IF ADDR(P_EVAL_OPERATOR)=ADDR(NIL) THEN
     5457    10911    1           EVAL_OPERATOR=0;
     5458    10912    1       ELSE
     5459    10913    1           EVAL_OPERATOR=P_EVAL_OPERATOR;
     5460    10914         /**/
     5461    10915    1       IF EVAL_OPERATOR>0 OR P_RELOC_OPERATOR>2 OR P_OPERAND>BITBIN('777'O) OR
             10915                P_OPERAND_TYPE=%OPERFREF THEN
     5462    10916    2       DO;
     5463    10917    2           TEMP = 5;
     5464    10918    2           END;
     5465    10919         /*     Check for possible one word relocation */
     5466    10920    1       ELSE IF P_STARTING_BIT=0 AND P_ENDING_BIT=(XUO_WORDSIZE/2)-1
     5467    10921    2           THEN DO;
     5468    10922    2               TEMP = 0;
     5469    10923    2               END;
     5470    10924    1           ELSE
     5471    10925    1               IF P_STARTING_BIT=XUO_WORDSIZE/2 AND P_ENDING_BIT=XUO_WORDSIZE-1
PL6.E3A0      #021=XUO$RELOC File=XUO$BUILD.:E05TSI                              WED 07/30/97 09:34 Page:672
     5472    10926    2               THEN DO;
     5473    10927    2                   TEMP = 1;
     5474    10928    2                   END;
     5475    10929    1               ELSE
     5476    10930    1                   IF P_STARTING_BIT=24 AND P_ENDING_BIT=35 AND XUO_WORDSIZE=36
     5477    10931    2                   THEN DO;
     5478    10932    2                       TEMP = 2;
     5479    10933    2                       END;
     5480    10934    1                   ELSE
     5481    10935    1                       IF (P_STARTING_BIT=3 AND P_ENDING_BIT=17 AND XUO_WORDSIZE=36) OR
     5482    10936    1                          (P_STARTING_BIT=0 AND P_ENDING_BIT=31 AND XUO_WORDSIZE=16)
     5483    10937    2                       THEN DO;
     5484    10938    2                           TEMP = 3;
     5485    10939    2                           END;
     5486    10940    1                       ELSE
     5487    10941    1                           IF P_STARTING_BIT=0 AND P_ENDING_BIT=XUO_WORDSIZE-1
     5488    10942    2                           THEN DO;
     5489    10943    2                               TEMP = 4;
     5490    10944    2                               END;
     5491    10945    2                           ELSE DO;
     5492    10946    2                               TEMP = 5;
     5493    10947    2                               END; /* Of all this nonsense! */
     5494    10948    2       DO CASE (TEMP);
     5495    10949    2       CASE (0,1,2,3,4);
     5496    10950         /* The following handles the case of one word relocation. */
     5497    10951    2           B$RELOC1.FIELD = TEMP;
     5498    10952    2           B$RELOC1.OPNDTYP=P_OPERAND_TYPE;
     5499    10953    2           B$RELOC1.OP=BINBIT(P_RELOC_OPERATOR-1,1);
     5500    10954    2           IF COMPRESS_9_TO_8
     5501    10955    3           THEN DO;
     5502    10956    3               CALL COMPRESS (OPERAND, P_OPERAND);
     5503    10957    3               B$RELOC1.OPERAND = OPERAND; /* I doubt this will ever be used */
     5504    10958    3               END;
     5505    10959    3           ELSE DO;
     5506    10960    3               B$RELOC1.OPERAND = P_OPERAND;
     5507    10961    3               END;
     5508    10962    2           B$RELOC1.DISP = DISPLACEMENT;
PL6.E3A0      #021=XUO$RELOC File=XUO$BUILD.:E05TSI                              WED 07/30/97 09:34 Page:673
     5509    10963    2           SECTION_ARRAY.RELOCATION_CURS (P_SECTION_NUMBER) =
     5510    10964    2              SECTION_ARRAY.RELOCATION_CURS (P_SECTION_NUMBER) +1;
     5511    10965    2       CASE (5,ELSE);
     5512    10966         /*The following handles the case of two/three word relocation.*/
     5513    10967    2           B$RELOC2.MBZ = 0;
     5514    10968    2           B$RELOC2.OPNDTYP=P_OPERAND_TYPE;
     5515    10969    2           B$RELOC2.RELOCOP=P_RELOC_OPERATOR;
     5516    10970    2           IF COMPRESS_9_TO_8
     5517    10971    3           THEN DO;
     5518    10972    3               CALL COMPRESS (OPERAND, P_OPERAND);
     5519    10973    3               B$RELOC2.OPERAND = OPERAND;
     5520    10974    3               END;
     5521    10975    2           ELSE
     5522    10976    2               B$RELOC2.OPERAND = P_OPERAND;
     5523    10977    2           B$RELOC2.DISP = DISPLACEMENT;
     5524    10978    2           B$RELOC2.STBIT=P_STARTING_BIT;
     5525    10979    2           B$RELOC2.ENDBIT=P_ENDING_BIT;
     5526    10980    2           B$RELOC2.EVALOP=EVAL_OPERATOR;
     5527    10981    2           IF EVAL_OPERATOR=0 THEN
     5528    10982         /*
     5529    10983            Two word relocation.
     5530    10984            */
     5531    10985    3           DO;
     5532    10986    3               SECTION_ARRAY.RELOCATION_CURS (P_SECTION_NUMBER) =
     5533    10987    3                  SECTION_ARRAY.RELOCATION_CURS (P_SECTION_NUMBER) +2;
     5534    10988    3               END;
     5535    10989    2           ELSE
     5536    10990         /*      Three word relocation */
     5537    10991    3           DO;
     5538    10992    3               IF COMPRESS_9_TO_8
     5539    10993    3               THEN
     5540    10994    3                   CALL COMPRESS (B$RELOC2.VALUE, P_VALUE);
     5541    10995    3               ELSE
     5542    10996    3                   B$RELOC2.VALUE = P_VALUE;
     5543    10997    3               SECTION_ARRAY.RELOCATION_CURS (P_SECTION_NUMBER) =
     5544    10998    3                  SECTION_ARRAY.RELOCATION_CURS (P_SECTION_NUMBER) +3;
     5545    10999    3               END;
PL6.E3A0      #021=XUO$RELOC File=XUO$BUILD.:E05TSI                              WED 07/30/97 09:34 Page:674
     5546    11000    2           END; /* Do case */
     5547    11001         /* Update the lru_list */
     5548    11002    1       IF XUO_MOST_RECENT_SECTION ~= P_SECTION_NUMBER
     5549    11003    2       THEN DO;
     5550    11004    2           CALL XUM$MAKE_ITEM_MRU (LRU_VECTOR, SECTION_ARRAY.PTR2_LRU$(P_SECTION_NUMBER
             11004                    )) ALTRET (ERR_LRU);
     5551    11005    2           XUO_MOST_RECENT_SECTION = P_SECTION_NUMBER;
     5552    11006    2           END;
     5553    11007    1       SECTION_ARRAY.MAX_PROG_RELOC(P_SECTION_NUMBER) = MAXIMUM
     5554    11008    1          (SECTION_ARRAY.MAX_PROG_RELOC(P_SECTION_NUMBER),P_OFFSET);
     5555    11009    1       RETURN;
     5556    11010    1   ERR: ;
     5557    11011    1   ERR_LRU: ;
     5558    11012    1       RETURN;
     5559    11013        %EJECT;
PL6.E3A0      #021=XUO$RELOC File=XUO$BUILD.:E05TSI                              WED 07/30/97 09:34 Page:675
     5560    11014            %PAGE (ARG=COMPRESS 9 BIT TEXT TO 8 BITS);

             11027    1   /*******************************************************************************
             11028    1   *                                                                              *
             11029    1   *        COMPRESS 9 BIT TEXT TO 8 BITS              COMPRESS 9 BIT TEXT TO 8 BITS  *
             11030    1   *                                                                              *
             11031    1   *******************************************************************************/

     5561    11035    1   COMPRESS: PROC (EIGHT_BIT, NINE_BIT);
     5562    11036
     5563    11037    2   DCL 1 EIGHT_BIT ALIGNED,
     5564    11038    2         2 B1 UBIN (8) UNAL,
     5565    11039    2         2 B2 UBIN (8) UNAL,
     5566    11040    2         2 B3 UBIN (8) UNAL,
     5567    11041    2         2 B4 UBIN (8) UNAL,
     5568    11042    2         2 * BIT (4);
     5569    11043
     5570    11044    2   DCL 1 NINE_BIT ALIGNED,
     5571    11045    2         2 B1 UBIN BYTE CALIGNED,
     5572    11046    2         2 B2 UBIN BYTE CALIGNED,
     5573    11047    2         2 B3 UBIN BYTE CALIGNED,
     5574    11048    2         2 B4 UBIN BYTE CALIGNED;
     5575    11049
     5576    11050    2       EIGHT_BIT = '0'B;
     5577    11051
     5578    11052    2       EIGHT_BIT.B1 = NINE_BIT.B1;
     5579    11053    2       EIGHT_BIT.B2 = NINE_BIT.B2;
     5580    11054    2       EIGHT_BIT.B3 = NINE_BIT.B3;
     5581    11055    2       EIGHT_BIT.B4 = NINE_BIT.B4;
     5582    11056
     5583    11057    2       RETURN;
     5584    11058
     5585    11059    2   END COMPRESS;
     5586    11060
     5587    11061
     5588    11062    1   END XUO$RELOC;
     5589    11063        %EOD;
PL6.E3A0      #021=XUO$RELOC File=XUO$BUILD.:E05TSI                              WED 07/30/97 09:34 Page:676

PL6.E3A0      #021=XUO$RELOC File=XUO$BUILD.:E05TSI                              WED 07/30/97 09:34 Page:677
--  Include file information  --

   XUM_ENTRIES_C.:E05TOU  is referenced.
   XUO$OBJ_C.:E05TOU  is referenced.
   B$OBJECT_C.:E05TOU  is referenced.
   CP_6_SUBS.:E05TOU  is referenced.
   CP_6_C.:E05TOU  is referenced.
   CP_6.:E05TOU  cannot be made into a system file and is referenced.
   ZVA_FLAGS.:TOOLE04  is referenced.
   ZVA_SYSTEM_FILE.:TOOLE04  is referenced.
      No diagnostics issued in procedure XUO$RELOC.

   Procedure XUO$RELOC requires 498 words for executable code.
   Procedure XUO$RELOC requires 28 words of local(AUTO) storage.

PL6.E3A0      #021=XUO$RELOC File=XUO$BUILD.:E05TSI                              WED 07/30/97 09:34 Page:678

 Object Unit name= XUO$RELOC                                  File name= XUO$BUILD.:E05TOU
 UTS= JUL 30 '97 09:34:28.20 WED                              Compiler= PL-6/E31         Sev=      00
 SharedLib= :SHARED_SYSTEM                                    Alt SharedLib=


    ****  Control sections  ****

 Sect   Type Bound  Init  Size OctSiz  Section name(segment info)
    0   DCB   even  none     0      0  M$UC
    1   Proc  even  none   498    762  XUO$RELOC
    2  RoData even  none     6      6  XUO$RELOC

    ****  Entry defs  ****

                              Check   Calling
                             calling  sequence
  Sect OctLoc Primary Altret sequence   type   Parms  Name
     1      0   yes    yes     yes      Std        9  XUO$RELOC
     1      4          yes     yes      Std        9  XUO$RELOC_TEXT

  ****  Entry refs  ****

         Check        Calling
        calling       sequence
Altret sequence SRef   type   Args  Name
 yes     yes           Std       2 XUM$GET_LRU_ITEM
 yes     yes           Std       2 XUO$PURGE_BUFFERS
 yes     yes           Std       2 XUM$MAKE_ITEM_MRU
                       nStd      0 X66_AUTO_N
                       Std       0 B_CONSPOOL_D
                       nStd      0 X66_AALT
                       nStd      0 X66_ARET
PL6.E3A0      #021=XUO$RELOC File=XUO$BUILD.:E05TSI                              WED 07/30/97 09:34 Page:679

  ****  Data refs  ****

  Flags:  r = read only, s = secondary
Flgs Name                             Flgs Name                             Flgs Name
     M$UC                                  B_RELOCATION_PAGE_SIZE                B_TRUST_ME
     B_PROGRAM_PAGE_SIZE                   LRU_VECTOR                            PTR2_SECTION_ARRAY$
     XUO_MOST_RECENT_SECTION               XUO_WORDSIZE                          XUO_ERROR_ROUTINE
r    OUT_OF_ORDER                          B_VECTNIL

  ****  Segment refs  ****

  Flags:  r = read only, s = secondary
Flgs Name                             Flgs Name                             Flgs Name
     ISSID
PL6.E3A0      #021=XUO$RELOC File=XUO$BUILD.:E05TSI                              WED 07/30/97 09:34 Page:680


     5168        1        /*M*     XUO$RELOC  - THIS MODULE WILL BUILD A PROGRAM RELOCATION RECORD*/
     5169        2        /*T***********************************************************/
     5170        3        /*T*                                                         */
     5171        4        /*T* Copyright (c) Bull HN Information Systems Inc., 1997    */
     5172        5        /*T*                                                         */
     5173        6        /*T***********************************************************/
     5174        7        /*P*
     5175        8
     5176        9        NAME:  XUO$RELOC
     5177       10        XUO$RELOC --Relocation Directives Record
     5178       11                    (Record Type 10, Subtype 1)
     5179       12
     5180       13
     5181       14        PURPOSE:  To generate Relocation Directives record entries.
     5182       15
     5183       16        DESCRIPTION:  This routine generates entries for the
     5184       17            Relocation Directives record.  The relocation buffer
     5185       18            will be flushed if the following conditions are met:
     5186       19              1.  There is insufficient room for 3 word entry
     5187       20                  in buffer.
     5188       21              2.  Relocating a new section
     5189       22              3.  The offset is less than the current key offset.
     5190       23            The program buffer will be flushed if the relocation
     5191       24            entry does not apply to the text buffer.   In addition,
     5192       25            any relocation records currently in the relocation
     5193       26            buffer will also be flushed.
     5194       27
     5195       28            Then either 1 one word, two word, or three word entry
     5196       29            will be made in the current buffer.
     5197       30            If the Eval  operator is passed, it is assumed that a
     5198       31            three word relocation entry is required.  Therefore
     5199       32            Value must also be passed.
     5200       33
     5201       34        */
     5202       35        /*D*
     5203       36
PL6.E3A0      #021=XUO$RELOC File=XUO$BUILD.:E05TSI                              WED 07/30/97 09:34 Page:681
     5204       37        CALL:  CALL XUO$RELOC (Section Number,
     5205       38                        Offset,
     5206       39                        Operand Type,
     5207       40                        Operand,
     5208       41                        Relocation Operator,
     5209       42                        Starting Bit,
     5210       43                        Ending Bit,
     5211       44                        Evaluation Operator,
     5212       45                        Value)
     5213       46
     5214       47        INPUT:
     5215       48            Section Number      UBIN ALIGNED
     5216       49                                The value representing the section
     5217       50                                number to which the relocatable
     5218       51                                record is to be applied.
     5219       52            Offset              UBIN ALIGNED
     5220       53                                The value representing the offset
     5221       54                                within the Control Section where
     5222       55                                the relocatable item is to be
     5223       56                                applied.
     5224       57            Operand Type        UBIN ALIGNED
     5225       58                                The type of operand
     5226       59                                  1 - section
     5227       60                                  2 - ENTREF
     5228       61                                  3 - SYMREF
     5229       62                                  4 - CONSTANT
     5230       63                                  5 - SEGDEF
     5231       64                                  6 - SEGREF
     5232       65            Operand             UBIN ALIGNED
     5233       66                                If the operand type = 4, the operand
     5234       67                                field is an unsigned constant.
     5235       68                                If the operand type is not equal 4 or
     5236       69                                0, then the operand field is an entry
     5237       70                                number into the table specified by
     5238       71                                the operand type.
     5239       72            Relocation Operator  UBIN ALIGNED
     5240       73                                The operator to be applied to the
PL6.E3A0      #021=XUO$RELOC File=XUO$BUILD.:E05TSI                              WED 07/30/97 09:34 Page:682
     5241       74                                intermediate result and the field
     5242       75                                defined by Starting Bit and Ending
     5243       76                                Bit within the current program
     5244       77                                record.
     5245       78                                  0 -     Undefined
     5246       79                                  1 -     Add
     5247       80                                  2 -     Subtract
     5248       81                                  3 -     Multiply
     5249       82                                  4 -     Divide
     5250       83                                 5-O'15'  Undefined
     5251       84                                   O'16'  Store right justified
     5252       85                                   O'17'  Store left justified
     5253       86            Starting Bit        UBIN ALIGNED
     5254       87                                The starting bit offset from the
     5255       88                                word locating the relocatable item.
     5256       89            Ending Bit          UBIN ALIGNED
     5257       90                                The ending bit offset from the
     5258       91                                word locating the relocatable item.
     5259       92            Evaluation  Operator UBIN ALIGNED  optional
     5260       93                                The operator to be applied to the
     5261       94                                value and the evaluation of the
     5262       95                                operand yielding an intermediate
     5263       96                                result, R.
     5264       97                                  0 - indicates Value is not present
     5265       98                                      r = E(operand)
     5266       99                                  1 - Add: r = E(operand)+Value
     5267      100                                  2 - Subtract: r = E(operand)-Value
     5268      101                                  3 - Multiply: r = E(operand)*Value
     5269      102                                  4 - Divide: r = E(operand)/Value
     5270      103                                  5 - Shift Right
     5271      104                                      r = E(operand) shifted right by
     5272      105                                          Value
     5273      106                                  6 - Shift Left
     5274      107                                      r = E(operand) shifted left
     5275      108                                          by Value
     5276      109                                  7 - Repeat:  The operand is a repeat
     5277      110                                      count.  Repeat Value n times.
PL6.E3A0      #021=XUO$RELOC File=XUO$BUILD.:E05TSI                              WED 07/30/97 09:34 Page:683
     5278      111            Value               UBIN ALIGNED  optional
     5279      112                                A constant to be used in the
     5280      113                                intermediate result.  This word is
     5281      114                                present only if the Evaluation
     5282      115                                Operator has been passed.
     5283      116
     5284      117        OUTPUT:
     5285      118            Relocation entry
     5286      119
     5287      120        B$OBJECT REFERENCE:  B$RELOC1, B$RELOC2
     5288      121        */
     5289      122        /*B*
     5290      123
     5291      124        GLOBAL DATA:
     5292      125            XUO_WORDSIZE
     5293      126
     5294      127        INTERFACE:
     5295      128            XUO$OUWRITE
     5296      129
     5297      130        */
     5298      131
     5299      132       XUO$RELOC: PROC (P_SECTION_NUMBER,P_OFFSET,P_OPERAND_TYPE,P_OPERAND,P_RELOC_OPERATOR
               132            ,P_STARTING_BIT,

    132  1 000000   000000 700200 xent  XUO$RELOC    TSX0  ! X66_AUTO_N
         1 000001   000034 000011                    ZERO    28,9

     5300      133               P_ENDING_BIT,P_EVAL_OPERATOR,P_VALUE) ALTRET;
     5301      134         /*
     5302      135            */
     5303      136        %INCLUDE ZVA_SYSTEM_FILE;
     5304     6387            %PAGE (ARG=INCLUDES);

              6400    1   /*******************************************************************************
              6401    1   *                                                                              *
              6402    1   *        INCLUDES              INCLUDES                                           *
              6403    1   *                                                                              *
PL6.E3A0      #021=XUO$RELOC File=XUO$BUILD.:E05TSI                              WED 07/30/97 09:34 Page:684
              6404    1   *******************************************************************************/

     5305     6408        %INCLUDE B$OBJECT_C;
     5306     9838        %INCLUDE XUO$OBJ_C;
     5307    10248        %INCLUDE XUM_ENTRIES_C;
     5308    10268            %XUM_ENTRIES;
     5309    10277            %PAGE (ARG=SUBS);

             10290    1   /*******************************************************************************
             10291    1   *                                                                              *
             10292    1   *        SUBS              SUBS                                                  *
             10293    1   *                                                                              *
             10294    1   *******************************************************************************/

     5310    10298            %B$RELOCSUBS;
     5311    10328            %B$RECORDSUBS;
     5312    10356            %PAGE (ARG=PARAMETERS);

             10369    1   /*******************************************************************************
             10370    1   *                                                                              *
             10371    1   *        PARAMETERS              PARAMETERS                                       *
             10372    1   *                                                                              *
             10373    1   *******************************************************************************/

     5313    10377    1   DCL P_SECTION_NUMBER UBIN;
     5314    10378    1   DCL P_OFFSET SBIN;
     5315    10379    1   DCL P_OPERAND_TYPE UBIN;
     5316    10380    1   DCL P_OPERAND UBIN;
     5317    10381    1   DCL P_RELOC_OPERATOR UBIN;
     5318    10382    1   DCL P_STARTING_BIT UBIN;
     5319    10383    1   DCL P_ENDING_BIT UBIN;
     5320    10384    1   DCL P_EVAL_OPERATOR UBIN;
     5321    10385    1   DCL P_VALUE UBIN;
     5322    10386        %PAGE (ARG=SECTION DATA);

             10399    1   /*******************************************************************************
             10400    1   *                                                                              *
PL6.E3A0      #021=XUO$RELOC File=XUO$BUILD.:E05TSI                              WED 07/30/97 09:34 Page:685
             10401    1   *        SECTION DATA              SECTION DATA                                   *
             10402    1   *                                                                              *
             10403    1   *******************************************************************************/

     5323    10407        %B_SECTION_POINTERS;
     5324    10426        %PLIST;
     5325    10427        %PAGE (ARG=RELOCATION DATA);

             10440    1   /*******************************************************************************
             10441    1   *                                                                              *
             10442    1   *        RELOCATION DATA              RELOCATION DATA                             *
             10443    1   *                                                                              *
             10444    1   *******************************************************************************/

     5326    10448        %B_RELOCATION_POINTERS;
     5327    10463        %B$RELOC1 (STCLASS="BASED (BUF_PTR$)");
     5328    10494        %B$RELOC2 (STCLASS="BASED (BUF_PTR$)");
     5329    10561        %B_TRUST_ME;
     5330    10575        %PLIST;
     5331    10576        %PAGE (ARG=PROGRAM DATA);

             10589    1   /*******************************************************************************
             10590    1   *                                                                              *
             10591    1   *        PROGRAM DATA              PROGRAM DATA                                   *
             10592    1   *                                                                              *
             10593    1   *******************************************************************************/

     5332    10597        %B_PROGRAM_POINTERS;
     5333    10612        %B_MULTIBUF_VARS;
     5334    10639        %LOCAL_STUFF;
     5335    10645        %PAGE (ARG=LOCAL DATA);

             10658    1   /*******************************************************************************
             10659    1   *                                                                              *
             10660    1   *        LOCAL DATA              LOCAL DATA                                       *
             10661    1   *                                                                              *
             10662    1   *******************************************************************************/
PL6.E3A0      #021=XUO$RELOC File=XUO$BUILD.:E05TSI                              WED 07/30/97 09:34 Page:686

     5336    10666    1   DCL DISPLACEMENT UBIN;
     5337    10667    1   DCL RELOCATION_CUR$ PTR;
     5338    10668    1   DCL BUF_PTR$ PTR;
     5339    10669    1   DCL TEMP UBIN;
     5340    10670    1   DCL EVAL_OPERATOR UBIN;
     5341    10671    1   DCL COMPRESS_9_TO_8 BIT (1);
     5342    10672    1   DCL OPERAND UBIN;
     5343    10673        %PAGE (ARG=ENTRY DCLS);

             10686    1   /*******************************************************************************
             10687    1   *                                                                              *
             10688    1   *        ENTRY DCLS              ENTRY DCLS                                       *
             10689    1   *                                                                              *
             10690    1   *******************************************************************************/

     5344    10694    1   DCL XUO$PURGE_BUFFERS ENTRY(2) ALTRET;
     5345    10695        %PAGE (ARG=MISC DATA);

             10708    1   /*******************************************************************************
             10709    1   *                                                                              *
             10710    1   *        MISC DATA              MISC DATA                                         *
             10711    1   *                                                                              *
             10712    1   *******************************************************************************/

     5346    10716    1   DCL XUO_MOST_RECENT_SECTION SBIN WORD SYMREF;
     5347    10717    1   DCL XUO_WORDSIZE SBIN SYMREF;
     5348    10718    1   DCL XUO_ERROR_ROUTINE EPTR SYMREF;
     5349    10719        %IF CP6;
     5350    10720        %VLP_ERRCODE (FPTN=OUT_OF_ORDER, STCLASS=SYMREF READONLY);
     5351    10765        %ENDIF;
     5352    10766        %PAGE (ARG=CODE);

             10779    1   /*******************************************************************************
             10780    1   *                                                                              *
             10781    1   *        CODE              CODE                                                  *
             10782    1   *                                                                              *
PL6.E3A0      #021=XUO$RELOC File=XUO$BUILD.:E05TSI                              WED 07/30/97 09:34 Page:687
             10783    1   *******************************************************************************/

     5353    10787    1       COMPRESS_9_TO_8 = '0'B;

  10787  1 000002   200023 450100                    STZ     COMPRESS_9_TO_8,,AUTO

     5354    10788
     5355    10789    1       GOTO RELOC_COMMON;

  10789  1 000003   000016 710000 1                  TRA     RELOC_COMMON

     5356    10790
     5357    10791    1   XUO$RELOC_TEXT: ENTRY (P_SECTION_NUMBER, P_OFFSET, P_OPERAND_TYPE, P_OPERAND,

  10791  1 000004   000000 700200 xent  XUO$RELOC_T* TSX0  ! X66_AUTO_N
         1 000005   000034 000011                    ZERO    28,9

     5358    10792    1          P_RELOC_OPERATOR, P_STARTING_BIT, P_ENDING_BIT,
     5359    10793    1          P_EVAL_OPERATOR, P_VALUE) ALTRET;
     5360    10794
     5361    10795    1       IF XUO_WORDSIZE = 36

  10795  1 000006   000000 235000 xsym               LDA     XUO_WORDSIZE
         1 000007   000044 115007                    CMPA    36,DL
         1 000010   000013 601000 1                  TNZ     s:10799

     5362    10796    1       THEN
     5363    10797    1           COMPRESS_9_TO_8 = '0'B;

  10797  1 000011   200023 450100                    STZ     COMPRESS_9_TO_8,,AUTO
         1 000012   000015 710000 1                  TRA     s:10801

     5364    10798    1       ELSE
     5365    10799    1           COMPRESS_9_TO_8 = '1'B;

  10799  1 000013   400000 236003                    LDQ     -131072,DU
         1 000014   200023 756100                    STQ     COMPRESS_9_TO_8,,AUTO
PL6.E3A0      #021=XUO$RELOC File=XUO$BUILD.:E05TSI                              WED 07/30/97 09:34 Page:688

     5366    10800
     5367    10801    1       GOTO RELOC_COMMON;

  10801  1 000015   000016 710000 1                  TRA     RELOC_COMMON

  10795  1 000016                       RELOC_COMMON null
     5368    10802
     5369    10803        %EJECT;
PL6.E3A0      #021=XUO$RELOC File=XUO$BUILD.:E05TSI                              WED 07/30/97 09:34 Page:689
     5370    10804            %PAGE (ARG=COMMON RELOCATION ROUTINE);

             10817    1   /*******************************************************************************
             10818    1   *                                                                              *
             10819    1   *        COMMON RELOCATION ROUTINE              COMMON RELOCATION ROUTINE         *
             10820    1   *                                                                              *
             10821    1   *******************************************************************************/

     5371    10825    1   RELOC_COMMON: ;
     5372    10826    1       IF (NOT B_TRUST_ME) AND

  10826  1 000016   000000 234000 xsym               SZN     B_TRUST_ME
         1 000017   000042 604000 1                  TMI     s:10837
         1 000020   200003 470500                    LDP0    @P_SECTION_NUMBER,,AUTO
         1 000021   000000 235100                    LDA     0,,PR0
         1 000022   000003 735000                    ALS     3
         1 000023   200004 471500                    LDP1    @P_OFFSET,,AUTO
         1 000024   000000 473400 xsym               LDP3    PTR2_SECTION_ARRAY$
         1 000025   100000 236100                    LDQ     0,,PR1
         1 000026   000031 604000 1                  TMI     s:10830
         1 000027   300007 116105                    CMPQ    7,AL,PR3
         1 000030   000042 603000 1                  TRC     s:10837

     5373    10827    1          (P_OFFSET < SECTION_ARRAY.PROG_WORD_COUNT (P_SECTION_NUMBER))
     5374    10828    2       THEN DO;

     5375    10829        %IF CP6;
     5376    10830    2           IF XUO_ERROR_ROUTINE ~= ENTADDR(NIL)

  10830  1 000031   000000 236000 xsym               LDQ     XUO_ERROR_ROUTINE
         1 000032   000002 116000 xsym               CMPQ    B_VECTNIL+2
         1 000033   000041 600000 1                  TZE     s:10834

     5377    10831    2           THEN
     5378    10832    2               CALL XUO_ERROR_ROUTINE (OUT_OF_ORDER);

  10832  1 000034   000000 630400 2                  EPPR0   0
PL6.E3A0      #021=XUO$RELOC File=XUO$BUILD.:E05TSI                              WED 07/30/97 09:34 Page:690
         1 000035   000000 220000 xsym               LDX0    XUO_ERROR_ROUTINE
         1 000036   000017 631400 xsym               EPPR1   B_VECTNIL+15
         1 000037   000000 701010                    TSX1    0,X0
         1 000040   000000 011000                    NOP     0

     5379    10833        %ENDIF;
     5380    10834    2           ALTRETURN;

  10834  1 000041   000000 702200 xent               TSX2  ! X66_AALT

     5381    10835    2           END;
     5382    10836
     5383    10837    1       IF SECTION_ARRAY.PTR2_LRU$(P_SECTION_NUMBER)=ADDR(NIL)

  10837  1 000042   200003 470500                    LDP0    @P_SECTION_NUMBER,,AUTO
         1 000043   000000 235100                    LDA     0,,PR0
         1 000044   000003 735000                    ALS     3
         1 000045   000000 471400 xsym               LDP1    PTR2_SECTION_ARRAY$
         1 000046   100003 236105                    LDQ     3,AL,PR1
         1 000047   000001 116000 xsym               CMPQ    B_VECTNIL+1
         1 000050   000170 601000 1                  TNZ     s:10860

     5384    10838    2       THEN DO;

     5385    10839    2           CALL XUM$GET_LRU_ITEM (LRU_VECTOR, PTR2_LRU$) ALTRET (ERR_LRU);

  10839  1 000051   200014 633500                    EPPR3   PTR2_LRU$,,AUTO
         1 000052   200033 453500                    STP3    @NINE_BIT+3,,AUTO
         1 000053   000001 236000 2                  LDQ     1
         1 000054   200032 756100                    STQ     @NINE_BIT+2,,AUTO
         1 000055   200032 630500                    EPPR0   @NINE_BIT+2,,AUTO
         1 000056   000020 631400 xsym               EPPR1   B_VECTNIL+16
         1 000057   000000 701000 xent               TSX1    XUM$GET_LRU_ITEM
         1 000060   000727 702000 1                  TSX2    ERR

     5386    10840    2           CALL XUO$PURGE_BUFFERS (%TYPPROG,PTR2_LRU$->BUBIN)ALTRET(ERR);

PL6.E3A0      #021=XUO$RELOC File=XUO$BUILD.:E05TSI                              WED 07/30/97 09:34 Page:691
  10840  1 000061   200014 236100                    LDQ     PTR2_LRU$,,AUTO
         1 000062   000002 235000 2                  LDA     2
         1 000063   200032 757100                    STAQ    @NINE_BIT+2,,AUTO
         1 000064   200032 630500                    EPPR0   @NINE_BIT+2,,AUTO
         1 000065   000020 631400 xsym               EPPR1   B_VECTNIL+16
         1 000066   000000 701000 xent               TSX1    XUO$PURGE_BUFFERS
         1 000067   000727 702000 1                  TSX2    ERR

     5387    10841
     5388    10842    2           SECTION_ARRAY.PTR2_LRU$(P_SECTION_NUMBER) = SECTION_ARRAY.PTR2_LRU$

  10842  1 000070   200003 470500                    LDP0    @P_SECTION_NUMBER,,AUTO
         1 000071   000000 235100                    LDA     0,,PR0
         1 000072   000003 735000                    ALS     3
         1 000073   200014 471500                    LDP1    PTR2_LRU$,,AUTO
         1 000074   000000 620005                    EAX0    0,AL
         1 000075   100000 235100                    LDA     0,,PR1
         1 000076   000003 735000                    ALS     3
         1 000077   000000 473400 xsym               LDP3    PTR2_SECTION_ARRAY$
         1 000100   300003 236105                    LDQ     3,AL,PR3
         1 000101   300003 756110                    STQ     3,X0,PR3

     5389    10843    2              (PTR2_LRU$->BUBIN);
     5390    10844    2           SECTION_ARRAY.PTR2_RELOCATION_BUF$ (P_SECTION_NUMBER) =

  10844  1 000102   000000 235100                    LDA     0,,PR0
         1 000103   000003 735000                    ALS     3
         1 000104   200014 471500                    LDP1    PTR2_LRU$,,AUTO
         1 000105   000000 620005                    EAX0    0,AL
         1 000106   100000 235100                    LDA     0,,PR1
         1 000107   000003 735000                    ALS     3
         1 000110   000000 473400 xsym               LDP3    PTR2_SECTION_ARRAY$
         1 000111   300005 236105                    LDQ     5,AL,PR3
         1 000112   300005 756110                    STQ     5,X0,PR3

     5391    10845    2              SECTION_ARRAY.PTR2_RELOCATION_BUF$ (PTR2_LRU$->BUBIN);
     5392    10846    2           SECTION_ARRAY.PTR2_PROGRAM_BUF$ (P_SECTION_NUMBER) =
PL6.E3A0      #021=XUO$RELOC File=XUO$BUILD.:E05TSI                              WED 07/30/97 09:34 Page:692

  10846  1 000113   000000 235100                    LDA     0,,PR0
         1 000114   000003 735000                    ALS     3
         1 000115   200014 471500                    LDP1    PTR2_LRU$,,AUTO
         1 000116   000000 620005                    EAX0    0,AL
         1 000117   100000 235100                    LDA     0,,PR1
         1 000120   000003 735000                    ALS     3
         1 000121   000000 473400 xsym               LDP3    PTR2_SECTION_ARRAY$
         1 000122   300004 236105                    LDQ     4,AL,PR3
         1 000123   300004 756110                    STQ     4,X0,PR3

     5393    10847    2              SECTION_ARRAY.PTR2_PROGRAM_BUF$ (PTR2_LRU$->BUBIN);
     5394    10848
     5395    10849    2           SECTION_ARRAY.RELOCATION_CURS (PTR2_LRU$->BUBIN) = 0;

  10849  1 000124   200014 471500                    LDP1    PTR2_LRU$,,AUTO
         1 000125   100000 235100                    LDA     0,,PR1
         1 000126   000003 735000                    ALS     3
         1 000127   000000 473400 xsym               LDP3    PTR2_SECTION_ARRAY$
         1 000130   300001 450105                    STZ     1,AL,PR3

     5396    10850    2           SECTION_ARRAY.PROGRAM_CURS (PTR2_LRU$->BUBIN) = 0;

  10850  1 000131   200014 471500                    LDP1    PTR2_LRU$,,AUTO
         1 000132   100000 235100                    LDA     0,,PR1
         1 000133   000003 735000                    ALS     3
         1 000134   000000 473400 xsym               LDP3    PTR2_SECTION_ARRAY$
         1 000135   300000 450105                    STZ     0,AL,PR3

     5397    10851    2           SECTION_ARRAY.PTR2_RELOCATION_BUF$ (PTR2_LRU$->BUBIN) = ADDR(NIL);

  10851  1 000136   200014 471500                    LDP1    PTR2_LRU$,,AUTO
         1 000137   100000 235100                    LDA     0,,PR1
         1 000140   000003 735000                    ALS     3
         1 000141   000001 236000 xsym               LDQ     B_VECTNIL+1
         1 000142   000000 473400 xsym               LDP3    PTR2_SECTION_ARRAY$
         1 000143   300005 756105                    STQ     5,AL,PR3
PL6.E3A0      #021=XUO$RELOC File=XUO$BUILD.:E05TSI                              WED 07/30/97 09:34 Page:693

     5398    10852    2           SECTION_ARRAY.PTR2_PROGRAM_BUF$(PTR2_LRU$->BUBIN) = ADDR(NIL);

  10852  1 000144   200014 471500                    LDP1    PTR2_LRU$,,AUTO
         1 000145   100000 235100                    LDA     0,,PR1
         1 000146   000003 735000                    ALS     3
         1 000147   000001 236000 xsym               LDQ     B_VECTNIL+1
         1 000150   000000 473400 xsym               LDP3    PTR2_SECTION_ARRAY$
         1 000151   300004 756105                    STQ     4,AL,PR3

     5399    10853    2           SECTION_ARRAY.PTR2_LRU$ (PTR2_LRU$->BUBIN) = ADDR(NIL);

  10853  1 000152   200014 471500                    LDP1    PTR2_LRU$,,AUTO
         1 000153   100000 235100                    LDA     0,,PR1
         1 000154   000003 735000                    ALS     3
         1 000155   000001 236000 xsym               LDQ     B_VECTNIL+1
         1 000156   000000 473400 xsym               LDP3    PTR2_SECTION_ARRAY$
         1 000157   300003 756105                    STQ     3,AL,PR3

     5400    10854    2           SECTION_ARRAY.BUF_OFFSET(PTR2_LRU$->BUBIN) = 0;

  10854  1 000160   200014 471500                    LDP1    PTR2_LRU$,,AUTO
         1 000161   100000 235100                    LDA     0,,PR1
         1 000162   000003 735000                    ALS     3
         1 000163   000000 473400 xsym               LDP3    PTR2_SECTION_ARRAY$
         1 000164   300006 450105                    STZ     6,AL,PR3

     5401    10855
     5402    10856    2           PTR2_LRU$->BUBIN = P_SECTION_NUMBER;

  10856  1 000165   200014 471500                    LDP1    PTR2_LRU$,,AUTO
         1 000166   000000 235100                    LDA     0,,PR0
         1 000167   100000 755100                    STA     0,,PR1

     5403    10857    2           END;

     5404    10858         /*  If the offset is not greater than or equal to the offset of the
PL6.E3A0      #021=XUO$RELOC File=XUO$BUILD.:E05TSI                              WED 07/30/97 09:34 Page:694
     5405    10859            current section, we must purge! */
     5406    10860    1       IF (P_OFFSET < SECTION_ARRAY.BUF_OFFSET(P_SECTION_NUMBER))

  10860  1 000170   000000 235100                    LDA     0,,PR0
         1 000171   000003 735000                    ALS     3
         1 000172   200004 471500                    LDP1    @P_OFFSET,,AUTO
         1 000173   000000 473400 xsym               LDP3    PTR2_SECTION_ARRAY$
         1 000174   100000 236100                    LDQ     0,,PR1
         1 000175   000200 604000 1                  TMI     s:10862
         1 000176   300006 116105                    CMPQ    6,AL,PR3
         1 000177   000207 603000 1                  TRC     s:10866

     5407    10861    2       THEN DO;

     5408    10862    2           CALL XUO$PURGE_BUFFERS (%TYPPROG, P_SECTION_NUMBER) ALTRET (ERR);

  10862  1 000200   200003 236100                    LDQ     @P_SECTION_NUMBER,,AUTO
         1 000201   000002 235000 2                  LDA     2
         1 000202   200032 757100                    STAQ    @NINE_BIT+2,,AUTO
         1 000203   200032 630500                    EPPR0   @NINE_BIT+2,,AUTO
         1 000204   000020 631400 xsym               EPPR1   B_VECTNIL+16
         1 000205   000000 701000 xent               TSX1    XUO$PURGE_BUFFERS
         1 000206   000727 702000 1                  TSX2    ERR

     5409    10863    2           END;

     5410    10864         /*         This is where we see about purging the buffer because
     5411    10865            new data has more words than will fit in the buffer. */
     5412    10866    1       IF (B_RELOCATION_PAGE_SIZE -

  10866  1 000207   200003 470500                    LDP0    @P_SECTION_NUMBER,,AUTO
         1 000210   000000 235100                    LDA     0,,PR0
         1 000211   000003 735000                    ALS     3
         1 000212   000000 471400 xsym               LDP1    PTR2_SECTION_ARRAY$
         1 000213   000000 236000 xsym               LDQ     B_RELOCATION_PAGE_SIZE
         1 000214   100001 136105                    SBLQ    1,AL,PR1
         1 000215   000003 116007                    CMPQ    3,DL
PL6.E3A0      #021=XUO$RELOC File=XUO$BUILD.:E05TSI                              WED 07/30/97 09:34 Page:695
         1 000216   000260 605000 1                  TPL     s:10894

     5413    10867    1          SECTION_ARRAY.RELOCATION_CURS(P_SECTION_NUMBER) < 3)
     5414    10868    2       THEN DO;

     5415    10869         /* If we have to purge the reloc buffer, we will first see if there
     5416    10870            is lots of program buffer still available and we are generating
     5417    10871            relocs for program words which are going in that buffer. Lots is 1/64 of
     5418    10872            the program buffers size.  64 is chosen since it is a power of 2 and
     5419    10873            a shift is faster than a divide.  If lots of program buffer is not
     5420    10874            available then we will purge both reloc and program buffers.  If
     5421    10875            lots of program is available then we will purge just the reloc
     5422    10876            buffer.
     5423    10877         */
     5424    10878
     5425    10879    2           IF (B_PROGRAM_PAGE_SIZE - SECTION_ARRAY.PROGRAM_CURS(P_SECTION_NUMBER) >

  10879  1 000217   000000 236000 xsym               LDQ     B_PROGRAM_PAGE_SIZE
         1 000220   100000 136105                    SBLQ    0,AL,PR1
         1 000221   200032 756100                    STQ     @NINE_BIT+2,,AUTO
         1 000222   000000 236000 xsym               LDQ     B_PROGRAM_PAGE_SIZE
         1 000223   000100 506007                    DIV     64,DL
         1 000224   200032 116100                    CMPQ    @NINE_BIT+2,,AUTO
         1 000225   000251 605000 1                  TPL     s:10888
         1 000226   000000 235100                    LDA     0,,PR0
         1 000227   000003 735000                    ALS     3
         1 000230   100000 235105                    LDA     0,AL,PR1
         1 000231   000251 600000 1                  TZE     s:10888
         1 000232   000000 235100                    LDA     0,,PR0
         1 000233   000003 735000                    ALS     3
         1 000234   200004 473500                    LDP3    @P_OFFSET,,AUTO
         1 000235   300000 236100                    LDQ     0,,PR3
         1 000236   100006 136105                    SBLQ    6,AL,PR1
         1 000237   000000 116000 xsym               CMPQ    B_PROGRAM_PAGE_SIZE
         1 000240   000251 605000 1                  TPL     s:10888

     5426    10880    2              B_PROGRAM_PAGE_SIZE / 64) AND
PL6.E3A0      #021=XUO$RELOC File=XUO$BUILD.:E05TSI                              WED 07/30/97 09:34 Page:696
     5427    10881    2              ( ( SECTION_ARRAY.PROGRAM_CURS(P_SECTION_NUMBER) > 0 ) AND
     5428    10882    2              ( B_PROGRAM_PAGE_SIZE > P_OFFSET - SECTION_ARRAY.BUF_OFFSET(
             10882                       P_SECTION_NUMBER) ) )
     5429    10883
     5430    10884    3           THEN DO;

     5431    10885    3               CALL XUO$PURGE_BUFFERS (%TYPRELOC, P_SECTION_NUMBER) ALTRET(ERR);

  10885  1 000241   200003 236100                    LDQ     @P_SECTION_NUMBER,,AUTO
         1 000242   000004 235000 2                  LDA     4
         1 000243   200032 757100                    STAQ    @NINE_BIT+2,,AUTO
         1 000244   200032 630500                    EPPR0   @NINE_BIT+2,,AUTO
         1 000245   000020 631400 xsym               EPPR1   B_VECTNIL+16
         1 000246   000000 701000 xent               TSX1    XUO$PURGE_BUFFERS
         1 000247   000727 702000 1                  TSX2    ERR

     5432    10886    3               END;

  10886  1 000250   000260 710000 1                  TRA     s:10894

     5433    10887    3           ELSE DO;

     5434    10888    3               CALL XUO$PURGE_BUFFERS (%TYPPROG, P_SECTION_NUMBER) ALTRET(ERR);

  10888  1 000251   200003 236100                    LDQ     @P_SECTION_NUMBER,,AUTO
         1 000252   000002 235000 2                  LDA     2
         1 000253   200032 757100                    STAQ    @NINE_BIT+2,,AUTO
         1 000254   200032 630500                    EPPR0   @NINE_BIT+2,,AUTO
         1 000255   000020 631400 xsym               EPPR1   B_VECTNIL+16
         1 000256   000000 701000 xent               TSX1    XUO$PURGE_BUFFERS
         1 000257   000727 702000 1                  TSX2    ERR

     5435    10889    3               END;

     5436    10890    2           END;

     5437    10891
PL6.E3A0      #021=XUO$RELOC File=XUO$BUILD.:E05TSI                              WED 07/30/97 09:34 Page:697
     5438    10892         /* If this is the first datum written to the buffer then set up min
     5439    10893            offset */
     5440    10894    1       IF (SECTION_ARRAY.RELOCATION_CURS(P_SECTION_NUMBER) = 0 AND

  10894  1 000260   200003 470500                    LDP0    @P_SECTION_NUMBER,,AUTO
         1 000261   000000 235100                    LDA     0,,PR0
         1 000262   000003 735000                    ALS     3
         1 000263   000000 471400 xsym               LDP1    PTR2_SECTION_ARRAY$
         1 000264   100001 235105                    LDA     1,AL,PR1
         1 000265   000300 601000 1                  TNZ     s:10907
         1 000266   000000 235100                    LDA     0,,PR0
         1 000267   000003 735000                    ALS     3
         1 000270   100000 235105                    LDA     0,AL,PR1
         1 000271   000300 601000 1                  TNZ     s:10907

     5441    10895    1          SECTION_ARRAY.PROGRAM_CURS(P_SECTION_NUMBER) = 0)
     5442    10896    2       THEN DO;

     5443    10897    2           SECTION_ARRAY.BUF_OFFSET(P_SECTION_NUMBER) = P_OFFSET;

  10897  1 000272   000000 235100                    LDA     0,,PR0
         1 000273   000003 735000                    ALS     3
         1 000274   200004 473500                    LDP3    @P_OFFSET,,AUTO
         1 000275   000000 620005                    EAX0    0,AL
         1 000276   300000 235100                    LDA     0,,PR3
         1 000277   100006 755110                    STA     6,X0,PR1

     5444    10898    2           END;

     5445    10899         /* Write data to the buffer */
     5446    10900         /*
     5447    10901         The following section will determine what kind of relocation
     5448    10902         record needs to be output. Ie.
     5449    10903         1.  One word
     5450    10904         2.  Two word
     5451    10905         3.  Three word
     5452    10906         */
PL6.E3A0      #021=XUO$RELOC File=XUO$BUILD.:E05TSI                              WED 07/30/97 09:34 Page:698
     5453    10907    1       BUF_PTR$=PINCRW(SECTION_ARRAY.PTR2_RELOCATION_BUF$(P_SECTION_NUMBER)

  10907  1 000300   000000 235100                    LDA     0,,PR0
         1 000301   000003 735000                    ALS     3
         1 000302   000000 471400 xsym               LDP1    PTR2_SECTION_ARRAY$
         1 000303   100001 720105                    LXL0    1,AL,PR1
         1 000304   100005 473505                    LDP3    5,AL,PR1
         1 000305   300000 634510                    EPPR4   0,X0,PR3
         1 000306   200020 454500                    STP4    BUF_PTR$,,AUTO

     5454    10908    1          ,SECTION_ARRAY.RELOCATION_CURS (P_SECTION_NUMBER));
     5455    10909    1       DISPLACEMENT = P_OFFSET - SECTION_ARRAY.BUF_OFFSET(P_SECTION_NUMBER);

  10909  1 000307   200004 475500                    LDP5    @P_OFFSET,,AUTO
         1 000310   500000 236100                    LDQ     0,,PR5
         1 000311   100006 136105                    SBLQ    6,AL,PR1
         1 000312   200016 756100                    STQ     DISPLACEMENT,,AUTO

     5456    10910    1       IF ADDR(P_EVAL_OPERATOR)=ADDR(NIL) THEN

  10910  1 000313   200012 236100                    LDQ     @P_EVAL_OPERATOR,,AUTO
         1 000314   000001 116000 xsym               CMPQ    B_VECTNIL+1
         1 000315   000320 601000 1                  TNZ     s:10913

     5457    10911    1           EVAL_OPERATOR=0;

  10911  1 000316   200022 450100                    STZ     EVAL_OPERATOR,,AUTO
         1 000317   000323 710000 1                  TRA     s:10915

     5458    10912    1       ELSE
     5459    10913    1           EVAL_OPERATOR=P_EVAL_OPERATOR;

  10913  1 000320   200012 476500                    LDP6    @P_EVAL_OPERATOR,,AUTO
         1 000321   600000 235100                    LDA     0,,PR6
         1 000322   200022 755100                    STA     EVAL_OPERATOR,,AUTO

     5460    10914         /**/
PL6.E3A0      #021=XUO$RELOC File=XUO$BUILD.:E05TSI                              WED 07/30/97 09:34 Page:699
     5461    10915    1       IF EVAL_OPERATOR>0 OR P_RELOC_OPERATOR>2 OR P_OPERAND>BITBIN('777'O) OR
             10915                P_OPERAND_TYPE=%OPERFREF THEN

  10915  1 000323   200022 235100                    LDA     EVAL_OPERATOR,,AUTO
         1 000324   000341 601000 1                  TNZ     s:10917
         1 000325   200007 473500                    LDP3    @P_RELOC_OPERATOR,,AUTO
         1 000326   300000 235100                    LDA     0,,PR3
         1 000327   000003 115007                    CMPA    3,DL
         1 000330   000341 603000 1                  TRC     s:10917
         1 000331   200006 476500                    LDP6    @P_OPERAND,,AUTO
         1 000332   600000 235100                    LDA     0,,PR6
         1 000333   001000 115007                    CMPA    512,DL
         1 000334   000341 603000 1                  TRC     s:10917
         1 000335   200005 477500                    LDP7    @P_OPERAND_TYPE,,AUTO
         1 000336   700000 235100                    LDA     0,,PR7
         1 000337   000017 115007                    CMPA    15,DL
         1 000340   000344 601000 1                  TNZ     s:10920

     5462    10916    2       DO;

     5463    10917    2           TEMP = 5;

  10917  1 000341   000005 235007                    LDA     5,DL
         1 000342   200021 755100                    STA     TEMP,,AUTO

     5464    10918    2           END;

  10918  1 000343   000464 710000 1                  TRA     s:10948

     5465    10919         /*     Check for possible one word relocation */
     5466    10920    1       ELSE IF P_STARTING_BIT=0 AND P_ENDING_BIT=(XUO_WORDSIZE/2)-1

  10920  1 000344   200010 470500                    LDP0    @P_STARTING_BIT,,AUTO
         1 000345   000000 235100                    LDA     0,,PR0
         1 000346   000360 601000 1                  TNZ     s:10925
         1 000347   000000 236000 xsym               LDQ     XUO_WORDSIZE
         1 000350   000002 506007                    DIV     2,DL
PL6.E3A0      #021=XUO$RELOC File=XUO$BUILD.:E05TSI                              WED 07/30/97 09:34 Page:700
         1 000351   200011 470500                    LDP0    @P_ENDING_BIT,,AUTO
         1 000352   000001 136007                    SBLQ    1,DL
         1 000353   000360 604000 1                  TMI     s:10925
         1 000354   000000 116100                    CMPQ    0,,PR0
         1 000355   000360 601000 1                  TNZ     s:10925

     5467    10921    2           THEN DO;

     5468    10922    2               TEMP = 0;

  10922  1 000356   200021 450100                    STZ     TEMP,,AUTO

     5469    10923    2               END;

  10923  1 000357   000464 710000 1                  TRA     s:10948

     5470    10924    1           ELSE
     5471    10925    1               IF P_STARTING_BIT=XUO_WORDSIZE/2 AND P_ENDING_BIT=XUO_WORDSIZE-1

  10925  1 000360   000000 236000 xsym               LDQ     XUO_WORDSIZE
         1 000361   000002 506007                    DIV     2,DL
         1 000362   200010 470500                    LDP0    @P_STARTING_BIT,,AUTO
         1 000363   000000 116003                    CMPQ    0,DU
         1 000364   000400 604000 1                  TMI     s:10930
         1 000365   000000 116100                    CMPQ    0,,PR0
         1 000366   000400 601000 1                  TNZ     s:10930
         1 000367   200011 470500                    LDP0    @P_ENDING_BIT,,AUTO
         1 000370   000000 236000 xsym               LDQ     XUO_WORDSIZE
         1 000371   000001 136007                    SBLQ    1,DL
         1 000372   000400 604000 1                  TMI     s:10930
         1 000373   000000 116100                    CMPQ    0,,PR0
         1 000374   000400 601000 1                  TNZ     s:10930

     5472    10926    2               THEN DO;

     5473    10927    2                   TEMP = 1;

PL6.E3A0      #021=XUO$RELOC File=XUO$BUILD.:E05TSI                              WED 07/30/97 09:34 Page:701
  10927  1 000375   000001 235007                    LDA     1,DL
         1 000376   200021 755100                    STA     TEMP,,AUTO

     5474    10928    2                   END;

  10928  1 000377   000464 710000 1                  TRA     s:10948

     5475    10929    1               ELSE
     5476    10930    1                   IF P_STARTING_BIT=24 AND P_ENDING_BIT=35 AND XUO_WORDSIZE=36

  10930  1 000400   200010 470500                    LDP0    @P_STARTING_BIT,,AUTO
         1 000401   000000 235100                    LDA     0,,PR0
         1 000402   000030 115007                    CMPA    24,DL
         1 000403   000416 601000 1                  TNZ     s:10935
         1 000404   200011 470500                    LDP0    @P_ENDING_BIT,,AUTO
         1 000405   000000 235100                    LDA     0,,PR0
         1 000406   000043 115007                    CMPA    35,DL
         1 000407   000416 601000 1                  TNZ     s:10935
         1 000410   000000 236000 xsym               LDQ     XUO_WORDSIZE
         1 000411   000044 116007                    CMPQ    36,DL
         1 000412   000416 601000 1                  TNZ     s:10935

     5477    10931    2                   THEN DO;

     5478    10932    2                       TEMP = 2;

  10932  1 000413   000002 235007                    LDA     2,DL
         1 000414   200021 755100                    STA     TEMP,,AUTO

     5479    10933    2                       END;

  10933  1 000415   000464 710000 1                  TRA     s:10948

     5480    10934    1                   ELSE
     5481    10935    1                      IF (P_STARTING_BIT=3 AND P_ENDING_BIT=17 AND XUO_WORDSIZE=36) OR

  10935  1 000416   200010 470500                    LDP0    @P_STARTING_BIT,,AUTO
PL6.E3A0      #021=XUO$RELOC File=XUO$BUILD.:E05TSI                              WED 07/30/97 09:34 Page:702
         1 000417   000000 235100                    LDA     0,,PR0
         1 000420   000003 115007                    CMPA    3,DL
         1 000421   000431 601000 1                  TNZ     s:10935+11
         1 000422   200011 470500                    LDP0    @P_ENDING_BIT,,AUTO
         1 000423   000000 235100                    LDA     0,,PR0
         1 000424   000021 115007                    CMPA    17,DL
         1 000425   000431 601000 1                  TNZ     s:10935+11
         1 000426   000000 236000 xsym               LDQ     XUO_WORDSIZE
         1 000427   000044 116007                    CMPQ    36,DL
         1 000430   000443 600000 1                  TZE     s:10938
         1 000431   200010 470500                    LDP0    @P_STARTING_BIT,,AUTO
         1 000432   000000 235100                    LDA     0,,PR0
         1 000433   000446 601000 1                  TNZ     s:10941
         1 000434   200011 470500                    LDP0    @P_ENDING_BIT,,AUTO
         1 000435   000000 235100                    LDA     0,,PR0
         1 000436   000037 115007                    CMPA    31,DL
         1 000437   000446 601000 1                  TNZ     s:10941
         1 000440   000000 236000 xsym               LDQ     XUO_WORDSIZE
         1 000441   000020 116007                    CMPQ    16,DL
         1 000442   000446 601000 1                  TNZ     s:10941

     5482    10936    1                          (P_STARTING_BIT=0 AND P_ENDING_BIT=31 AND XUO_WORDSIZE=16)
     5483    10937    2                       THEN DO;

     5484    10938    2                           TEMP = 3;

  10938  1 000443   000003 235007                    LDA     3,DL
         1 000444   200021 755100                    STA     TEMP,,AUTO

     5485    10939    2                           END;

  10939  1 000445   000464 710000 1                  TRA     s:10948

     5486    10940    1                       ELSE
     5487    10941    1                           IF P_STARTING_BIT=0 AND P_ENDING_BIT=XUO_WORDSIZE-1

  10941  1 000446   200010 470500                    LDP0    @P_STARTING_BIT,,AUTO
PL6.E3A0      #021=XUO$RELOC File=XUO$BUILD.:E05TSI                              WED 07/30/97 09:34 Page:703
         1 000447   000000 235100                    LDA     0,,PR0
         1 000450   000462 601000 1                  TNZ     s:10946
         1 000451   200011 470500                    LDP0    @P_ENDING_BIT,,AUTO
         1 000452   000000 236000 xsym               LDQ     XUO_WORDSIZE
         1 000453   000001 136007                    SBLQ    1,DL
         1 000454   000462 604000 1                  TMI     s:10946
         1 000455   000000 116100                    CMPQ    0,,PR0
         1 000456   000462 601000 1                  TNZ     s:10946

     5488    10942    2                           THEN DO;

     5489    10943    2                               TEMP = 4;

  10943  1 000457   000004 235007                    LDA     4,DL
         1 000460   200021 755100                    STA     TEMP,,AUTO

     5490    10944    2                               END;

  10944  1 000461   000464 710000 1                  TRA     s:10948

     5491    10945    2                           ELSE DO;

     5492    10946    2                               TEMP = 5;

  10946  1 000462   000005 235007                    LDA     5,DL
         1 000463   200021 755100                    STA     TEMP,,AUTO

     5493    10947    2                               END; /* Of all this nonsense! */

     5494    10948    2       DO CASE (TEMP);

  10948  1 000464   200021 235100                    LDA     TEMP,,AUTO
         1 000465   000005 115007                    CMPA    5,DL
         1 000466   000470 602005 1                  TNC     s:10948+4,AL
         1 000467   000555 710000 1                  TRA     s:10967
         1 000470   000475 710000 1                  TRA     s:10951
         1 000471   000475 710000 1                  TRA     s:10951
PL6.E3A0      #021=XUO$RELOC File=XUO$BUILD.:E05TSI                              WED 07/30/97 09:34 Page:704
         1 000472   000475 710000 1                  TRA     s:10951
         1 000473   000475 710000 1                  TRA     s:10951
         1 000474   000475 710000 1                  TRA     s:10951

     5495    10949    2       CASE (0,1,2,3,4);

     5496    10950         /* The following handles the case of one word relocation. */
     5497    10951    2           B$RELOC1.FIELD = TEMP;

  10951  1 000475   200021 236100                    LDQ     TEMP,,AUTO
         1 000476   000033 736000                    QLS     27
         1 000477   400000 676100                    ERQ     0,,PR4
         1 000500   017000 376003                    ANQ     7680,DU
         1 000501   400000 656100                    ERSQ    0,,PR4

     5498    10952    2           B$RELOC1.OPNDTYP=P_OPERAND_TYPE;

  10952  1 000502   200005 470500                    LDP0    @P_OPERAND_TYPE,,AUTO
         1 000503   000000 236100                    LDQ     0,,PR0
         1 000504   000040 736000                    QLS     32
         1 000505   400000 676100                    ERQ     0,,PR4
         1 000506   740000 376003                    ANQ     -16384,DU
         1 000507   400000 656100                    ERSQ    0,,PR4

     5499    10953    2           B$RELOC1.OP=BINBIT(P_RELOC_OPERATOR-1,1);

  10953  1 000510   200007 471500                    LDP1    @P_RELOC_OPERATOR,,AUTO
         1 000511   100000 236100                    LDQ     0,,PR1
         1 000512   000001 136007                    SBLQ    1,DL
         1 000513   000043 736000                    QLS     35
         1 000514   000004 772000                    QRL     4
         1 000515   400000 676100                    ERQ     0,,PR4
         1 000516   020000 376003                    ANQ     8192,DU
         1 000517   400000 656100                    ERSQ    0,,PR4

     5500    10954    2           IF COMPRESS_9_TO_8

PL6.E3A0      #021=XUO$RELOC File=XUO$BUILD.:E05TSI                              WED 07/30/97 09:34 Page:705
  10954  1 000520   200023 234100                    SZN     COMPRESS_9_TO_8,,AUTO
         1 000521   000535 605000 1                  TPL     s:10960

     5501    10955    3           THEN DO;

     5502    10956    3               CALL COMPRESS (OPERAND, P_OPERAND);

  10956  1 000522   200006 236100                    LDQ     @P_OPERAND,,AUTO
         1 000523   200030 756100                    STQ     @EIGHT_BIT+1,,AUTO
         1 000524   200024 633500                    EPPR3   OPERAND,,AUTO
         1 000525   200027 453500                    STP3    OPERAND+3,,AUTO
         1 000526   000730 701000 1                  TSX1    COMPRESS
         1 000527   000000 011000                    NOP     0

     5503    10957    3               B$RELOC1.OPERAND = OPERAND; /* I doubt this will ever be used */

  10957  1 000530   200020 470500                    LDP0    BUF_PTR$,,AUTO
         1 000531   200024 236100                    LDQ     OPERAND,,AUTO
         1 000532   000022 736000                    QLS     18
         1 000533   000000 552120                    STBQ    0,'20'O,PR0

     5504    10958    3               END;

  10958  1 000534   000541 710000 1                  TRA     s:10962

     5505    10959    3           ELSE DO;

     5506    10960    3               B$RELOC1.OPERAND = P_OPERAND;

  10960  1 000535   200006 473500                    LDP3    @P_OPERAND,,AUTO
         1 000536   300000 236100                    LDQ     0,,PR3
         1 000537   000022 736000                    QLS     18
         1 000540   400000 552120                    STBQ    0,'20'O,PR4

     5507    10961    3               END;

     5508    10962    2           B$RELOC1.DISP = DISPLACEMENT;
PL6.E3A0      #021=XUO$RELOC File=XUO$BUILD.:E05TSI                              WED 07/30/97 09:34 Page:706

  10962  1 000541   200016 720100                    LXL0    DISPLACEMENT,,AUTO
         1 000542   200020 470500                    LDP0    BUF_PTR$,,AUTO
         1 000543   000000 440100                    SXL0    0,,PR0

     5509    10963    2           SECTION_ARRAY.RELOCATION_CURS (P_SECTION_NUMBER) =

  10963  1 000544   200003 471500                    LDP1    @P_SECTION_NUMBER,,AUTO
         1 000545   100000 235100                    LDA     0,,PR1
         1 000546   000003 735000                    ALS     3
         1 000547   000000 473400 xsym               LDP3    PTR2_SECTION_ARRAY$
         1 000550   000000 621005                    EAX1    0,AL
         1 000551   300001 235105                    LDA     1,AL,PR3
         1 000552   000001 035007                    ADLA    1,DL
         1 000553   300001 755111                    STA     1,X1,PR3
         1 000554   000671 710000 1                  TRA     s:11002

     5510    10964    2              SECTION_ARRAY.RELOCATION_CURS (P_SECTION_NUMBER) +1;
     5511    10965    2       CASE (5,ELSE);

     5512    10966         /*The following handles the case of two/three word relocation.*/
     5513    10967    2           B$RELOC2.MBZ = 0;

  10967  1 000555   000000 236003                    LDQ     0,DU
         1 000556   400000 752140                    STCQ    0,'40'O,PR4

     5514    10968    2           B$RELOC2.OPNDTYP=P_OPERAND_TYPE;

  10968  1 000557   200005 470500                    LDP0    @P_OPERAND_TYPE,,AUTO
         1 000560   000000 236100                    LDQ     0,,PR0
         1 000561   000032 736000                    QLS     26
         1 000562   400000 676100                    ERQ     0,,PR4
         1 000563   007400 376003                    ANQ     3840,DU
         1 000564   400000 656100                    ERSQ    0,,PR4

     5515    10969    2           B$RELOC2.RELOCOP=P_RELOC_OPERATOR;

PL6.E3A0      #021=XUO$RELOC File=XUO$BUILD.:E05TSI                              WED 07/30/97 09:34 Page:707
  10969  1 000565   200007 471500                    LDP1    @P_RELOC_OPERATOR,,AUTO
         1 000566   100000 236100                    LDQ     0,,PR1
         1 000567   000022 736000                    QLS     18
         1 000570   400000 676100                    ERQ     0,,PR4
         1 000571   000017 376003                    ANQ     15,DU
         1 000572   400000 656100                    ERSQ    0,,PR4

     5516    10970    2           IF COMPRESS_9_TO_8

  10970  1 000573   200023 234100                    SZN     COMPRESS_9_TO_8,,AUTO
         1 000574   000607 605000 1                  TPL     s:10976

     5517    10971    3           THEN DO;

     5518    10972    3               CALL COMPRESS (OPERAND, P_OPERAND);

  10972  1 000575   200006 236100                    LDQ     @P_OPERAND,,AUTO
         1 000576   200030 756100                    STQ     @EIGHT_BIT+1,,AUTO
         1 000577   200024 633500                    EPPR3   OPERAND,,AUTO
         1 000600   200027 453500                    STP3    OPERAND+3,,AUTO
         1 000601   000730 701000 1                  TSX1    COMPRESS
         1 000602   000000 011000                    NOP     0

     5519    10973    3               B$RELOC2.OPERAND = OPERAND;

  10973  1 000603   200024 720100                    LXL0    OPERAND,,AUTO
         1 000604   200020 470500                    LDP0    BUF_PTR$,,AUTO
         1 000605   000000 440100                    SXL0    0,,PR0

     5520    10974    3               END;

  10974  1 000606   000612 710000 1                  TRA     s:10977

     5521    10975    2           ELSE
     5522    10976    2               B$RELOC2.OPERAND = P_OPERAND;

  10976  1 000607   200006 473500                    LDP3    @P_OPERAND,,AUTO
PL6.E3A0      #021=XUO$RELOC File=XUO$BUILD.:E05TSI                              WED 07/30/97 09:34 Page:708
         1 000610   300000 720100                    LXL0    0,,PR3
         1 000611   400000 440100                    SXL0    0,,PR4

     5523    10977    2           B$RELOC2.DISP = DISPLACEMENT;

  10977  1 000612   200016 720100                    LXL0    DISPLACEMENT,,AUTO
         1 000613   200020 470500                    LDP0    BUF_PTR$,,AUTO
         1 000614   000001 740100                    STX0    1,,PR0

     5524    10978    2           B$RELOC2.STBIT=P_STARTING_BIT;

  10978  1 000615   200010 471500                    LDP1    @P_STARTING_BIT,,AUTO
         1 000616   100000 236100                    LDQ     0,,PR1
         1 000617   000011 736000                    QLS     9
         1 000620   000001 552110                    STBQ    1,'10'O,PR0

     5525    10979    2           B$RELOC2.ENDBIT=P_ENDING_BIT;

  10979  1 000621   200011 473500                    LDP3    @P_ENDING_BIT,,AUTO
         1 000622   300000 236100                    LDQ     0,,PR3
         1 000623   000001 552104                    STBQ    1,'04'O,PR0

     5526    10980    2           B$RELOC2.EVALOP=EVAL_OPERATOR;

  10980  1 000624   200022 236100                    LDQ     EVAL_OPERATOR,,AUTO
         1 000625   000026 736000                    QLS     22
         1 000626   000000 676100                    ERQ     0,,PR0
         1 000627   000360 376003                    ANQ     240,DU
         1 000630   000000 656100                    ERSQ    0,,PR0

     5527    10981    2           IF EVAL_OPERATOR=0 THEN

  10981  1 000631   200022 235100                    LDA     EVAL_OPERATOR,,AUTO
         1 000632   000644 601000 1                  TNZ     s:10992

     5528    10982         /*
     5529    10983            Two word relocation.
PL6.E3A0      #021=XUO$RELOC File=XUO$BUILD.:E05TSI                              WED 07/30/97 09:34 Page:709
     5530    10984            */
     5531    10985    3           DO;

     5532    10986    3               SECTION_ARRAY.RELOCATION_CURS (P_SECTION_NUMBER) =

  10986  1 000633   200003 474500                    LDP4    @P_SECTION_NUMBER,,AUTO
         1 000634   400000 235100                    LDA     0,,PR4
         1 000635   000003 735000                    ALS     3
         1 000636   000000 475400 xsym               LDP5    PTR2_SECTION_ARRAY$
         1 000637   000000 621005                    EAX1    0,AL
         1 000640   500001 235105                    LDA     1,AL,PR5
         1 000641   000002 035007                    ADLA    2,DL
         1 000642   500001 755111                    STA     1,X1,PR5

     5533    10987    3                  SECTION_ARRAY.RELOCATION_CURS (P_SECTION_NUMBER) +2;
     5534    10988    3               END;

  10988  1 000643   000671 710000 1                  TRA     s:11002

     5535    10989    2           ELSE
     5536    10990         /*      Three word relocation */
     5537    10991    3           DO;

     5538    10992    3               IF COMPRESS_9_TO_8

  10992  1 000644   200023 234100                    SZN     COMPRESS_9_TO_8,,AUTO
         1 000645   000656 605000 1                  TPL     s:10996

     5539    10993    3               THEN
     5540    10994    3                   CALL COMPRESS (B$RELOC2.VALUE, P_VALUE);

  10994  1 000646   200013 236100                    LDQ     @P_VALUE,,AUTO
         1 000647   200030 756100                    STQ     @EIGHT_BIT+1,,AUTO
         1 000650   200020 236100                    LDQ     BUF_PTR$,,AUTO
         1 000651   000002 036003                    ADLQ    2,DU
         1 000652   200027 756100                    STQ     OPERAND+3,,AUTO
         1 000653   000730 701000 1                  TSX1    COMPRESS
PL6.E3A0      #021=XUO$RELOC File=XUO$BUILD.:E05TSI                              WED 07/30/97 09:34 Page:710
         1 000654   000000 011000                    NOP     0
         1 000655   000661 710000 1                  TRA     s:10997

     5541    10995    3               ELSE
     5542    10996    3                   B$RELOC2.VALUE = P_VALUE;

  10996  1 000656   200013 474500                    LDP4    @P_VALUE,,AUTO
         1 000657   400000 235100                    LDA     0,,PR4
         1 000660   000002 755100                    STA     2,,PR0

     5543    10997    3               SECTION_ARRAY.RELOCATION_CURS (P_SECTION_NUMBER) =

  10997  1 000661   200003 470500                    LDP0    @P_SECTION_NUMBER,,AUTO
         1 000662   000000 235100                    LDA     0,,PR0
         1 000663   000003 735000                    ALS     3
         1 000664   000000 471400 xsym               LDP1    PTR2_SECTION_ARRAY$
         1 000665   000000 620005                    EAX0    0,AL
         1 000666   100001 235105                    LDA     1,AL,PR1
         1 000667   000003 035007                    ADLA    3,DL
         1 000670   100001 755110                    STA     1,X0,PR1

     5544    10998    3                  SECTION_ARRAY.RELOCATION_CURS (P_SECTION_NUMBER) +3;
     5545    10999    3               END;

     5546    11000    2           END; /* Do case */

     5547    11001         /* Update the lru_list */
     5548    11002    1       IF XUO_MOST_RECENT_SECTION ~= P_SECTION_NUMBER

  11002  1 000671   200003 470500                    LDP0    @P_SECTION_NUMBER,,AUTO
         1 000672   000000 236000 xsym               LDQ     XUO_MOST_RECENT_SECTION
         1 000673   000676 604000 1                  TMI     s:11004
         1 000674   000000 116100                    CMPQ    0,,PR0
         1 000675   000715 600000 1                  TZE     s:11007

     5549    11003    2       THEN DO;

PL6.E3A0      #021=XUO$RELOC File=XUO$BUILD.:E05TSI                              WED 07/30/97 09:34 Page:711
     5550    11004    2          CALL XUM$MAKE_ITEM_MRU (LRU_VECTOR, SECTION_ARRAY.PTR2_LRU$(P_SECTION_NUMBER
             11004                    )) ALTRET (ERR_LRU);

  11004  1 000676   000000 235100                    LDA     0,,PR0
         1 000677   000003 735000                    ALS     3
         1 000700   000044 733000                    LRS     36
         1 000701   000022 736000                    QLS     18
         1 000702   000003 036003                    ADLQ    3,DU
         1 000703   000000 036000 xsym               ADLQ    PTR2_SECTION_ARRAY$
         1 000704   000001 235000 2                  LDA     1
         1 000705   200032 757100                    STAQ    @NINE_BIT+2,,AUTO
         1 000706   200032 630500                    EPPR0   @NINE_BIT+2,,AUTO
         1 000707   000020 631400 xsym               EPPR1   B_VECTNIL+16
         1 000710   000000 701000 xent               TSX1    XUM$MAKE_ITEM_MRU
         1 000711   000727 702000 1                  TSX2    ERR

     5551    11005    2           XUO_MOST_RECENT_SECTION = P_SECTION_NUMBER;

  11005  1 000712   200003 470500                    LDP0    @P_SECTION_NUMBER,,AUTO
         1 000713   000000 235100                    LDA     0,,PR0
         1 000714   000000 755000 xsym               STA     XUO_MOST_RECENT_SECTION

     5552    11006    2           END;

     5553    11007    1       SECTION_ARRAY.MAX_PROG_RELOC(P_SECTION_NUMBER) = MAXIMUM

  11007  1 000715   000000 235100                    LDA     0,,PR0
         1 000716   000003 735000                    ALS     3
         1 000717   200004 471500                    LDP1    @P_OFFSET,,AUTO
         1 000720   100000 236100                    LDQ     0,,PR1
         1 000721   000000 473400 xsym               LDP3    PTR2_SECTION_ARRAY$
         1 000722   300002 116105                    CMPQ    2,AL,PR3
         1 000723   000725 605000 1                  TPL     s:11007+8
         1 000724   300002 236105                    LDQ     2,AL,PR3
         1 000725   300002 756105                    STQ     2,AL,PR3

     5554    11008    1          (SECTION_ARRAY.MAX_PROG_RELOC(P_SECTION_NUMBER),P_OFFSET);
PL6.E3A0      #021=XUO$RELOC File=XUO$BUILD.:E05TSI                              WED 07/30/97 09:34 Page:712
     5555    11009    1       RETURN;

  11009  1 000726   000000 702200 xent               TSX2  ! X66_ARET

  11007  1 000727                       ERR          null
  11007  1 000727                       ERR_LRU      null
     5556    11010    1   ERR: ;
     5557    11011    1   ERR_LRU: ;
     5558    11012    1       RETURN;

  11012  1 000727   000000 702200 xent               TSX2  ! X66_ARET

     5559    11013        %EJECT;
PL6.E3A0      #021=XUO$RELOC File=XUO$BUILD.:E05TSI                              WED 07/30/97 09:34 Page:713
     5560    11014            %PAGE (ARG=COMPRESS 9 BIT TEXT TO 8 BITS);

             11027    1   /*******************************************************************************
             11028    1   *                                                                              *
             11029    1   *        COMPRESS 9 BIT TEXT TO 8 BITS              COMPRESS 9 BIT TEXT TO 8 BITS *
             11030    1   *                                                                              *
             11031    1   *******************************************************************************/

     5561    11035    1   COMPRESS: PROC (EIGHT_BIT, NINE_BIT);

  11035  1 000730   200026 741300       COMPRESS     STX1  ! OPERAND+2,,AUTO

     5562    11036
     5563    11037    2   DCL 1 EIGHT_BIT ALIGNED,
     5564    11038    2         2 B1 UBIN (8) UNAL,
     5565    11039    2         2 B2 UBIN (8) UNAL,
     5566    11040    2         2 B3 UBIN (8) UNAL,
     5567    11041    2         2 B4 UBIN (8) UNAL,
     5568    11042    2         2 * BIT (4);
     5569    11043
     5570    11044    2   DCL 1 NINE_BIT ALIGNED,
     5571    11045    2         2 B1 UBIN BYTE CALIGNED,
     5572    11046    2         2 B2 UBIN BYTE CALIGNED,
     5573    11047    2         2 B3 UBIN BYTE CALIGNED,
     5574    11048    2         2 B4 UBIN BYTE CALIGNED;
     5575    11049
     5576    11050    2       EIGHT_BIT = '0'B;

  11050  1 000731   200027 470500                    LDP0    @EIGHT_BIT,,AUTO
         1 000732   000000 450100                    STZ     0,,PR0

     5577    11051
     5578    11052    2       EIGHT_BIT.B1 = NINE_BIT.B1;

  11052  1 000733   200030 471500                    LDP1    @NINE_BIT,,AUTO
         1 000734   100000 236100                    LDQ     0,,PR1
         1 000735   000001 736000                    QLS     1
PL6.E3A0      #021=XUO$RELOC File=XUO$BUILD.:E05TSI                              WED 07/30/97 09:34 Page:714
         1 000736   000000 676100                    ERQ     0,,PR0
         1 000737   776000 376003                    ANQ     -1024,DU
         1 000740   000000 656100                    ERSQ    0,,PR0

     5579    11053    2       EIGHT_BIT.B2 = NINE_BIT.B2;

  11053  1 000741   100000 236100                    LDQ     0,,PR1
         1 000742   000002 736000                    QLS     2
         1 000743   000000 676100                    ERQ     0,,PR0
         1 000744   001774 376003                    ANQ     1020,DU
         1 000745   000000 656100                    ERSQ    0,,PR0

     5580    11054    2       EIGHT_BIT.B3 = NINE_BIT.B3;

  11054  1 000746   100000 236100                    LDQ     0,,PR1
         1 000747   000003 736000                    QLS     3
         1 000750   000000 676100                    ERQ     0,,PR0
         1 000751   000005 376000 2                  ANQ     5
         1 000752   000000 656100                    ERSQ    0,,PR0

     5581    11055    2       EIGHT_BIT.B4 = NINE_BIT.B4;

  11055  1 000753   100000 236100                    LDQ     0,,PR1
         1 000754   000004 736000                    QLS     4
         1 000755   000000 676100                    ERQ     0,,PR0
         1 000756   007760 376007                    ANQ     4080,DL
         1 000757   000000 656100                    ERSQ    0,,PR0

     5582    11056
     5583    11057    2       RETURN;

  11057  1 000760   200026 221300                    LDX1  ! OPERAND+2,,AUTO
         1 000761   000001 702211                    TSX2  ! 1,X1
     5584    11058
     5585    11059    2   END COMPRESS;
     5586    11060
     5587    11061
PL6.E3A0      #021=XUO$RELOC File=XUO$BUILD.:E05TSI                              WED 07/30/97 09:34 Page:715
     5588    11062    1   END XUO$RELOC;
     5589    11063        %EOD;

PL6.E3A0      #021=XUO$RELOC File=XUO$BUILD.:E05TSI                              WED 07/30/97 09:34 Page:716
--  Include file information  --

   XUM_ENTRIES_C.:E05TOU  is referenced.
   XUO$OBJ_C.:E05TOU  is referenced.
   B$OBJECT_C.:E05TOU  is referenced.
   CP_6_SUBS.:E05TOU  is referenced.
   CP_6_C.:E05TOU  is referenced.
   CP_6.:E05TOU  cannot be made into a system file and is referenced.
   ZVA_FLAGS.:TOOLE04  is referenced.
   ZVA_SYSTEM_FILE.:TOOLE04  is referenced.
      No diagnostics issued in procedure XUO$RELOC.
PL6.E3A0      #021=XUO$RELOC File=XUO$BUILD.:E05TSI                              WED 07/30/97 09:34 Page:717

 **** Variables and constants ****

  ****  Auto variables  ****

  ****  Scalars and arrays  ****
OctLoc.c.b A Datatyp(siz) R M Lvl/name                 OctLoc.c.b A Datatyp(siz) R M Lvl/name

    27-0-0/w PTR         r     1 @EIGHT_BIT                30-0-0/w PTR         r     1 @NINE_BIT
    11-0-0/w PTR         r     1 @P_ENDING_BIT             12-0-0/w PTR         r     1 @P_EVAL_OPERATOR
     4-0-0/w PTR         r     1 @P_OFFSET                  6-0-0/w PTR         r     1 @P_OPERAND
     5-0-0/w PTR         r     1 @P_OPERAND_TYPE            7-0-0/w PTR         r     1 @P_RELOC_OPERATOR
     3-0-0/w PTR         r     1 @P_SECTION_NUMBER         10-0-0/w PTR         r     1 @P_STARTING_BIT
    13-0-0/w PTR         r     1 @P_VALUE                  20-0-0/w PTR         r     1 BUF_PTR$
    23-0-0/b BIT         r     1 COMPRESS_9_TO_8           16-0-0/w UBIN        r     1 DISPLACEMENT
    *0-0-0/w STRC        r     1 EIGHT_BIT                 22-0-0/w UBIN        r     1 EVAL_OPERATOR
    *0-0-0/w STRC        r     1 NINE_BIT                  24-0-0/w UBIN        r     1 OPERAND
    14-0-0/w PTR         r     1 PTR2_LRU$                 *0-0-0/w UBIN        r     1 P_ENDING_BIT
    *0-0-0/w UBIN        r     1 P_EVAL_OPERATOR           *0-0-0/w SBIN        r     1 P_OFFSET
    *0-0-0/w UBIN        r     1 P_OPERAND                 *0-0-0/w UBIN        r     1 P_OPERAND_TYPE
    *0-0-0/w UBIN        r     1 P_RELOC_OPERATOR          *0-0-0/w UBIN        r     1 P_SECTION_NUMBER
    *0-0-0/w UBIN        r     1 P_STARTING_BIT            *0-0-0/w UBIN        r     1 P_VALUE
    21-0-0/w UBIN        r     1 TEMP

  ****  SYMREF variables  ****

  ****  Scalars and arrays  ****
OctLoc.c.b A Datatyp(siz) R M Lvl/name                 OctLoc.c.b A Datatyp(siz) R M Lvl/name

     0-0-0/w SBIN        r     1 B_PROGRAM_PAGE_SIZE
     0-0-0/w SBIN        r     1 B_RELOCATION_PAGE_SIZE
     0-0-0/b BIT         r     1 B_TRUST_ME                 0-0-0/d VECT        r     1 LRU_VECTOR
     0-0-0/w STRC        r     1 OUT_OF_ORDER               0-0-0/w PTR         r     1 PTR2_SECTION_ARRAY$
     0-0-0/w EPTR        r     1 XUO_ERROR_ROUTINE
     0-0-0/w SBIN        r     1 XUO_MOST_RECENT_SECTION
     0-0-0/w SBIN        r     1 XUO_WORDSIZE

  ****  BASED and DCB variables  ****
PL6.E3A0      #021=XUO$RELOC File=XUO$BUILD.:E05TSI                              WED 07/30/97 09:34 Page:718

  ****  Scalars and arrays  ****
OctLoc.c.b A Datatyp(siz) R M Lvl/name                 OctLoc.c.b A Datatyp(siz) R M Lvl/name

     0-0-0/w STRC        r     1 B$RELOC1                   0-0-0/w STRC(108)   r     1 B$RELOC2
     0-0-0/w UBIN        r     1 BUBIN
     0-0-0/w STRC(288)   r     1 SECTION_ARRAY(0:0)


   Procedure XUO$RELOC requires 498 words for executable code.
   Procedure XUO$RELOC requires 28 words of local(AUTO) storage.
PL6.E3A0      #021=XUO$RELOC File=XUO$BUILD.:E05TSI                              WED 07/30/97 09:34 Page:719
          *** CROSS REFERENCE LISTING ***
**     DENOTES     IDENTIFIER DEFINITION
<<                 IDENTIFIER'S VALUE SET
>>                 IDENTIFIER'S VALUE USED
<>                 IDENTIFIER SET AND/OR USED
--                 IDENTIFIER REFERENCED
PL6.E3A0      #021=XUO$RELOC File=XUO$BUILD.:E05TSI                              WED 07/30/97 09:34 Page:720
          MINI XREF LISTING

B$RELOC1.DISP
     10490**DCL     10962<<ASSIGN
B$RELOC1.FIELD
     10478**DCL     10951<<ASSIGN
B$RELOC1.OP
     10473**DCL     10953<<ASSIGN
B$RELOC1.OPERAND
     10485**DCL     10957<<ASSIGN  10960<<ASSIGN
B$RELOC1.OPNDTYP
     10465**DCL     10952<<ASSIGN
B$RELOC2.DISP
     10547**DCL     10977<<ASSIGN
B$RELOC2.ENDBIT
     10553**DCL     10979<<ASSIGN
B$RELOC2.EVALOP
     10506**DCL     10980<<ASSIGN
B$RELOC2.MBZ
     10496**DCL     10967<<ASSIGN
B$RELOC2.OPERAND
     10542**DCL     10973<<ASSIGN  10976<<ASSIGN
B$RELOC2.OPNDTYP
     10498**DCL     10968<<ASSIGN
B$RELOC2.RELOCOP
     10526**DCL     10969<<ASSIGN
B$RELOC2.STBIT
     10550**DCL     10978<<ASSIGN
B$RELOC2.VALUE
     10556**DCL     10994<>CALL    10996<<ASSIGN
BUBIN
     10640**DCL     10840<>CALL    10842>>ASSIGN  10844>>ASSIGN  10846>>ASSIGN  10849>>ASSIGN  10850>>ASSIGN
     10851>>ASSIGN  10852>>ASSIGN  10853>>ASSIGN  10854>>ASSIGN  10856<<ASSIGN
BUF_PTR$
PL6.E3A0      #021=XUO$RELOC File=XUO$BUILD.:E05TSI                              WED 07/30/97 09:34 Page:721
     10668**DCL     10464--IMP-PTR 10495--IMP-PTR 10907<<ASSIGN  10951>>ASSIGN  10952>>ASSIGN  10953>>ASSIGN
     10957>>ASSIGN  10960>>ASSIGN  10962>>ASSIGN  10967>>ASSIGN  10968>>ASSIGN  10969>>ASSIGN  10973>>ASSIGN
     10976>>ASSIGN  10977>>ASSIGN  10978>>ASSIGN  10979>>ASSIGN  10980>>ASSIGN  10994>>CALL    10996>>ASSIGN
B_PROGRAM_PAGE_SIZE
     10610**DCL     10879>>IF      10879>>IF      10879>>IF
B_RELOCATION_PAGE_SIZE
     10461**DCL     10866>>IF
B_TRUST_ME
     10573**DCL     10826>>IF
COMPRESS
     11035**PROC    10956--CALL    10972--CALL    10994--CALL
COMPRESS_9_TO_8
     10671**DCL     10787<<ASSIGN  10797<<ASSIGN  10799<<ASSIGN  10954>>IF      10970>>IF      10992>>IF
DISPLACEMENT
     10666**DCL     10909<<ASSIGN  10962>>ASSIGN  10977>>ASSIGN
EIGHT_BIT IN PROCEDURE COMPRESS
     11037**DCL     11035--PROC    11050<<ASSIGN
EIGHT_BIT.B1 IN PROCEDURE COMPRESS
     11038**DCL     11052<<ASSIGN
EIGHT_BIT.B2 IN PROCEDURE COMPRESS
     11039**DCL     11053<<ASSIGN
EIGHT_BIT.B3 IN PROCEDURE COMPRESS
     11040**DCL     11054<<ASSIGN
EIGHT_BIT.B4 IN PROCEDURE COMPRESS
     11041**DCL     11055<<ASSIGN
ERR
     11007**LABEL   10840--CALLALT 10862--CALLALT 10885--CALLALT 10888--CALLALT
ERR_LRU
     11007**LABEL   10839--CALLALT 11004--CALLALT
EVAL_OPERATOR
     10670**DCL     10911<<ASSIGN  10913<<ASSIGN  10915>>IF      10980>>ASSIGN  10981>>IF
LRU_VECTOR
     10625**DCL     10839<>CALL    11004<>CALL
NINE_BIT IN PROCEDURE COMPRESS
     11044**DCL     11035--PROC
NINE_BIT.B1 IN PROCEDURE COMPRESS
PL6.E3A0      #021=XUO$RELOC File=XUO$BUILD.:E05TSI                              WED 07/30/97 09:34 Page:722
     11045**DCL     11052>>ASSIGN
NINE_BIT.B2 IN PROCEDURE COMPRESS
     11046**DCL     11053>>ASSIGN
NINE_BIT.B3 IN PROCEDURE COMPRESS
     11047**DCL     11054>>ASSIGN
NINE_BIT.B4 IN PROCEDURE COMPRESS
     11048**DCL     11055>>ASSIGN
OPERAND
     10672**DCL     10956<>CALL    10957>>ASSIGN  10972<>CALL    10973>>ASSIGN
OUT_OF_ORDER
     10732**DCL     10832<>CALL
PTR2_LRU$
     10642**DCL     10839<>CALL    10840>>CALL    10842>>ASSIGN  10844>>ASSIGN  10846>>ASSIGN  10849>>ASSIGN
     10850>>ASSIGN  10851>>ASSIGN  10852>>ASSIGN  10853>>ASSIGN  10854>>ASSIGN  10856>>ASSIGN
PTR2_SECTION_ARRAY$
     10626**DCL     10629--IMP-PTR 10826>>IF      10837>>IF      10842>>ASSIGN  10842>>ASSIGN  10844>>ASSIGN
     10844>>ASSIGN  10846>>ASSIGN  10846>>ASSIGN  10849>>ASSIGN  10850>>ASSIGN  10851>>ASSIGN  10852>>ASSIGN
     10853>>ASSIGN  10854>>ASSIGN  10860>>IF      10866>>IF      10879>>IF      10879>>IF      10879>>IF
     10894>>IF      10894>>IF      10897>>ASSIGN  10907>>ASSIGN  10907>>ASSIGN  10909>>ASSIGN  10963>>ASSIGN
     10963>>ASSIGN  10986>>ASSIGN  10986>>ASSIGN  10997>>ASSIGN  10997>>ASSIGN  11004>>CALL    11007>>ASSIGN
     11007>>ASSIGN
P_ENDING_BIT
     10383**DCL       132--PROC    10791--ENTRY   10920>>IF      10925>>IF      10930>>IF      10935>>IF
     10935>>IF      10941>>IF      10979>>ASSIGN
P_EVAL_OPERATOR
     10384**DCL       132--PROC    10791--ENTRY   10910--IF      10913>>ASSIGN
P_OFFSET
     10378**DCL       132--PROC    10791--ENTRY   10826>>IF      10860>>IF      10879>>IF      10897>>ASSIGN
     10909>>ASSIGN  11007>>ASSIGN
P_OPERAND
     10380**DCL       132--PROC    10791--ENTRY   10915>>IF      10956<>CALL    10960>>ASSIGN  10972<>CALL
     10976>>ASSIGN
P_OPERAND_TYPE
     10379**DCL       132--PROC    10791--ENTRY   10915>>IF      10952>>ASSIGN  10968>>ASSIGN
P_RELOC_OPERATOR
     10381**DCL       132--PROC    10791--ENTRY   10915>>IF      10953>>ASSIGN  10969>>ASSIGN
PL6.E3A0      #021=XUO$RELOC File=XUO$BUILD.:E05TSI                              WED 07/30/97 09:34 Page:723
P_SECTION_NUMBER
     10377**DCL       132--PROC    10791--ENTRY   10826>>IF      10837>>IF      10842>>ASSIGN  10844>>ASSIGN
     10846>>ASSIGN  10856>>ASSIGN  10860>>IF      10862<>CALL    10866>>IF      10879>>IF      10879>>IF
     10879>>IF      10885<>CALL    10888<>CALL    10894>>IF      10894>>IF      10897>>ASSIGN  10907>>ASSIGN
     10907>>ASSIGN  10909>>ASSIGN  10963>>ASSIGN  10963>>ASSIGN  10986>>ASSIGN  10986>>ASSIGN  10997>>ASSIGN
     10997>>ASSIGN  11002>>IF      11004>>CALL    11005>>ASSIGN  11007>>ASSIGN  11007>>ASSIGN
P_STARTING_BIT
     10382**DCL       132--PROC    10791--ENTRY   10920>>IF      10925>>IF      10930>>IF      10935>>IF
     10935>>IF      10941>>IF      10978>>ASSIGN
P_VALUE
     10385**DCL       132--PROC    10791--ENTRY   10994<>CALL    10996>>ASSIGN
RELOC_COMMON
     10795**LABEL   10789--GOTO    10801--GOTO
SECTION_ARRAY.BUF_OFFSET
     10636**DCL     10854<<ASSIGN  10860>>IF      10879>>IF      10897<<ASSIGN  10909>>ASSIGN
SECTION_ARRAY.MAX_PROG_RELOC
     10632**DCL     11007<<ASSIGN  11007>>ASSIGN
SECTION_ARRAY.PROGRAM_CURS
     10630**DCL     10850<<ASSIGN  10879>>IF      10879>>IF      10894>>IF
SECTION_ARRAY.PROG_WORD_COUNT
     10637**DCL     10826>>IF
SECTION_ARRAY.PTR2_LRU$
     10633**DCL     10837>>IF      10842<<ASSIGN  10842>>ASSIGN  10853<<ASSIGN  11004<>CALL
SECTION_ARRAY.PTR2_PROGRAM_BUF$
     10634**DCL     10846<<ASSIGN  10846>>ASSIGN  10852<<ASSIGN
SECTION_ARRAY.PTR2_RELOCATION_BUF$
     10635**DCL     10844<<ASSIGN  10844>>ASSIGN  10851<<ASSIGN  10907>>ASSIGN
SECTION_ARRAY.RELOCATION_CURS
     10631**DCL     10849<<ASSIGN  10866>>IF      10894>>IF      10907>>ASSIGN  10963<<ASSIGN  10963>>ASSIGN
     10986<<ASSIGN  10986>>ASSIGN  10997<<ASSIGN  10997>>ASSIGN
TEMP
     10669**DCL     10917<<ASSIGN  10922<<ASSIGN  10927<<ASSIGN  10932<<ASSIGN  10938<<ASSIGN  10943<<ASSIGN
     10946<<ASSIGN  10948>>DOCASE  10951>>ASSIGN
XUM$GET_LRU_ITEM
     10271**DCL-ENT 10839--CALL
XUM$MAKE_ITEM_MRU
PL6.E3A0      #021=XUO$RELOC File=XUO$BUILD.:E05TSI                              WED 07/30/97 09:34 Page:724
     10273**DCL-ENT 11004--CALL
XUO$PURGE_BUFFERS
     10694**DCL-ENT 10840--CALL    10862--CALL    10885--CALL    10888--CALL
XUO_ERROR_ROUTINE
     10718**DCL     10830>>IF      10832>>CALL
XUO_MOST_RECENT_SECTION
     10716**DCL     11002>>IF      11005<<ASSIGN
XUO_WORDSIZE
     10717**DCL     10795>>IF      10920>>IF      10925>>IF      10925>>IF      10930>>IF      10935>>IF
     10935>>IF      10941>>IF

