PL6.E3A0      #017=XUO$HEADSTART File=XUO$BUILD.:E05TSI                          WED 07/30/97 09:32 Page:464
     3818        1        /*M*     XUO$HEADSTART  -- THIS MODULE CONTAINS ROUTINES THAT  BUILD THE HEAD */
     3819        2        /*T***********************************************************/
     3820        3        /*T*                                                         */
     3821        4        /*T* Copyright (c) Bull HN Information Systems Inc., 1997    */
     3822        5        /*T*                                                         */
     3823        6        /*T***********************************************************/
     3824        7        /*P*
     3825        8
     3826        9        NAME:  XUO$HEADSTART
     3827       10
     3828       11
     3829       12        PURPOSE:  To build the start address field of the Head Record.
     3830       13
     3831       14        DESCRIPTION:  This routine will fill in the start address
     3832       15            of a module.  It should be called only in the case of
     3833       16            the MAIN program.  The remaining fields of the Head
     3834       17            Record are filled in by calling XUO$OUTERM after all
     3835       18            the records have been processed.
     3836       19
     3837       20        */
     3838       21        /*D*
     3839       22
     3840       23        NAME:  XUO$HEADSTART
     3841       24
     3842       25        CALL:  CALL XUO$HEADSTART(Operand Type,
     3843       26                           Operand,
     3844       27                           Offset)
     3845       28
     3846       29
     3847       30        INPUT:
     3848       31            Operand Type        UBIN
     3849       32                                An operand type of 0 indicates that
     3850       33                                the object unit is not the main
     3851       34                                program.  For the main program the
     3852       35                                fields are defined as follows:
     3853       36                                  1 - section
     3854       37                                  2 - entref
PL6.E3A0      #017=XUO$HEADSTART File=XUO$BUILD.:E05TSI                          WED 07/30/97 09:32 Page:465
     3855       38                                  3 - symref
     3856       39                                  4 - constant
     3857       40                                  5 - segdef
     3858       41                                  6 - segref
     3859       42
     3860       43            Operand             UBIN
     3861       44                                If the operand type = 4, the operand
     3862       45                                field is an unsigned constant.
     3863       46                                If the operand type is not equal 4 (or
     3864       47                                0), then the operand field is an entry
     3865       48                                number into the table specified by
     3866       49                                the operand type.
     3867       50
     3868       51            Offset              UBIN
     3869       52                                The word displacement from the offset
     3870       53                                found in the record key to the
     3871       54                                relocatable item.  (The offset found in
     3872       55                                the record key is the offset from the
     3873       56                                origin of the section.)
     3874       57
     3875       58        OUTPUT:
     3876       59            The updated head record.
     3877       60
     3878       61        B$OBJECT REFERENCE:  B$OUHEAD
     3879       62        */
     3880       63        /*B*
     3881       64
     3882       65        GLOBAL DATA:  none
     3883       66
     3884       67        INTERFACE:  none
     3885       68
     3886       69        */
     3887       70
     3888       71        XUO$HEADSTART: PROC (P_PARAM1,P_OPERAND,P_OFFSET);
     3889       72         /*
     3890       73            */
     3891       74        %INCLUDE ZVA_SYSTEM_FILE;
PL6.E3A0      #017=XUO$HEADSTART File=XUO$BUILD.:E05TSI                          WED 07/30/97 09:32 Page:466
     3892     6325        %PAGE (ARG=INCLUDES);

              6338    1   /*******************************************************************************
              6339    1   *                                                                              *
              6340    1   *        INCLUDES              INCLUDES                                            *
              6341    1   *                                                                              *
              6342    1   *******************************************************************************/

     3893     6346        %INCLUDE B$OBJECT_C;
     3894     9776        %INCLUDE XUO$OBJ_C;
     3895    10186        %PAGE (ARG=PARAMETERS);

             10199    1   /*******************************************************************************
             10200    1   *                                                                              *
             10201    1   *        PARAMETERS              PARAMETERS                                        *
             10202    1   *                                                                              *
             10203    1   *******************************************************************************/

     3896    10207    1   DCL P_PARAM1 UBIN;
     3897    10208         /*
     3898    10209         The following defintion is for XUO$HEADSTART
     3899    10210         */
     3900    10211    1   DCL P_OPERAND_TYPE REDEF P_PARAM1 UBIN;
     3901    10212         /*
     3902    10213         The following definition is for XUO$HEADNAME
     3903    10214         */
     3904    10215    1   DCL 1 P_NAME REDEF P_PARAM1 ALIGNED,
     3905    10216    1         2 SIZE UBIN HALF UNAL,
     3906    10217    1         2 TEXT CHAR(P_NAME.SIZE);
     3907    10218         /*
     3908    10219         The following definition is for XUO$HEAD_SEVERITY
     3909    10220         */
     3910    10221    1   DCL P_SEVERITY REDEF P_PARAM1 UBIN;
     3911    10222    1   DCL P_OPERAND UBIN;
     3912    10223    1   DCL P_OFFSET UBIN;
     3913    10224        %PAGE (ARG=HEAD DATA);

PL6.E3A0      #017=XUO$HEADSTART File=XUO$BUILD.:E05TSI                          WED 07/30/97 09:32 Page:467
             10237    1   /*******************************************************************************
             10238    1   *                                                                              *
             10239    1   *        HEAD DATA              HEAD DATA                                          *
             10240    1   *                                                                              *
             10241    1   *******************************************************************************/

     3914    10245        %B$HEADKEY (STCLASS=SYMREF,HFLAGINIT=);
     3915    10257    1   DCL B$OUHEAD$ PTR SYMREF;
     3916    10258    1   DCL OUHEAD$ PTR;
     3917    10259        %B$OUHEAD (STCLASS="BASED(OUHEAD$)");
     3918    10377        %PLIST;
     3919    10378        %PAGE (ARG=RECORD POINTERS/DATA);

             10391    1   /*******************************************************************************
             10392    1   *                                                                              *
             10393    1   *        RECORD POINTERS/DATA              RECORD POINTERS/DATA                    *
             10394    1   *                                                                              *
             10395    1   *******************************************************************************/

     3920    10399        %B_PROGRAM_POINTERS;
     3921    10414        %B_RELOCATION_POINTERS;
     3922    10429        %B_DNAME_POINTERS;
     3923    10449        %B_RNAME_POINTERS;
     3924    10469        %B_EDEF_POINTERS;
     3925    10489        %B$EDEF;
     3926    10559        %B_EREF_POINTERS;
     3927    10579        %B$EREF;
     3928    10622        %B_SDEF_POINTERS;
     3929    10642        %B$SDEF;
     3930    10696        %B_SREF_POINTERS;
     3931    10716        %B$SREF;
     3932    10730        %B_SEGDEF_POINTERS;
     3933    10750        %B$SEGDEF;
     3934    10805        %B_SEGREF_POINTERS;
     3935    10825        %B$SEGREF;
     3936    10842        %B_LOGBLK_POINTERS;
     3937    10864        %B$LBNTRY0;
PL6.E3A0      #017=XUO$HEADSTART File=XUO$BUILD.:E05TSI                          WED 07/30/97 09:32 Page:468
     3938    10900        %B$LBNTRY1;
     3939    10927        %B$LOGBLK;
     3940    10958        %PLIST;
     3941    10959        %PAGE (ARG=MISC DATA);

             10972    1   /*******************************************************************************
             10973    1   *                                                                              *
             10974    1   *        MISC DATA              MISC DATA                                          *
             10975    1   *                                                                              *
             10976    1   *******************************************************************************/

     3942    10980    1   DCL XUO_SCHEMA_REQUIRED BIT(1) ALIGNED SYMREF;
     3943    10981    1   DCL XUO_COMPILER_ID UBIN SYMREF;
     3944    10982    1   DCL 1 XUO_VERSION_NUMBER SYMREF,
     3945    10983    1         2 LETTER CHAR(1) UNAL,
     3946    10984    1         2 NUMBER UBIN(9) UNAL;
     3947    10985    1   DCL XUO_OU_UTS SYMREF UBIN;
     3948    10986    1   DCL XUO_MAXIMUM_SEVERITY UBIN SYMREF;
     3949    10987    1   DCL XUO_WORDSIZE SYMREF UBIN;
     3950    10988
     3951    10989        %PAGE (ARG=CODE);

             11002    1   /*******************************************************************************
             11003    1   *                                                                              *
             11004    1   *        CODE              CODE                                                  *
             11005    1   *                                                                              *
             11006    1   *******************************************************************************/

     3952    11010    1       OUHEAD$=B$OUHEAD$;
     3953    11011    1       B$OUHEAD.START.OPNDTYP=P_OPERAND_TYPE;
     3954    11012    1       B$OUHEAD.START.OPERAND=P_OPERAND;
     3955    11013    1       B$OUHEAD.START.OFFSET=P_OFFSET;
     3956    11014    1       RETURN;
     3957    11015        %PAGE (ARG=XUO$HEADNAME);

             11028    1   /*******************************************************************************
             11029    1   *                                                                              *
PL6.E3A0      #017=XUO$HEADSTART File=XUO$BUILD.:E05TSI                          WED 07/30/97 09:32 Page:469
             11030    1   *        XUO$HEADNAME              XUO$HEADNAME                                    *
             11031    1   *                                                                              *
             11032    1   *******************************************************************************/

     3958    11036        /*D*
     3959    11037
     3960    11038        XUO$HEADNAME -- Head Record Key
     3961    11039
     3962    11040        NAME:  XUO$HEADNAME
     3963    11041
     3964    11042        PURPOSE:  To build the head record key.
     3965    11043
     3966    11044        DESCRIPTION:  This routine builds the Head Record Key.
     3967    11045             Each object unit is uniquely identified by it head
     3968    11046             record key.  Byte 0 of the key contains the name
     3969    11047             size followed by the character string which is
     3970    11048             the object unit name.
     3971    11049
     3972    11050        CALL:  CALL XUO$HEADNAME(Name)
     3973    11051
     3974    11052        INPUT:
     3975    11053            Name
     3976    11054              Size              UBIN HALF UNALIGNED
     3977    11055                                The number of bytes in the object unit
     3978    11056                                name.
     3979    11057              Text              CHAR( Size )
     3980    11058                                The character string which is the name
     3981    11059                                of the object unit.  This name is equal
     3982    11060                                to the entry definition name with the
     3983    11061                                attribute 'object unit name'.
     3984    11062
     3985    11063        OUTPUT:
     3986    11064            Updated head key
     3987    11065
     3988    11066        B$OBJECT REFERENCE:  B$HEADKEY
     3989    11067        */
     3990    11068        /*B*
PL6.E3A0      #017=XUO$HEADSTART File=XUO$BUILD.:E05TSI                          WED 07/30/97 09:32 Page:470
     3991    11069
     3992    11070        GLOBAL DATA:  none
     3993    11071
     3994    11072        INTERFACE:  none
     3995    11073
     3996    11074        */
     3997    11075
     3998    11076    1   XUO$HEADNAME: ENTRY(P_PARAM1);
     3999    11077         /*
     4000    11078         The following will set the size and the name in the head  key.
     4001    11079         */
     4002    11080    1       B$HEADKEY.KEYSIZ=P_NAME.SIZE+1;
     4003    11081    1       B$HEADKEY.TEXT=P_NAME.TEXT;
     4004    11082    1       RETURN;
     4005    11083            %PAGE (ARG=XUO$HEAD_SEVERITY);

             11096    1   /*******************************************************************************
             11097    1   *                                                                              *
             11098    1   *        XUO$HEAD_SEVERITY              XUO$HEAD_SEVERITY                          *
             11099    1   *                                                                              *
             11100    1   *******************************************************************************/

     4006    11104        /*D*
     4007    11105
     4008    11106        XUO$HEAD_SEVERITY --Head Record
     4009    11107
     4010    11108        NAME:  XUO$HEAD_SEVERITY
     4011    11109
     4012    11110        PURPOSE:  To build the severity level field of the head record.
     4013    11111
     4014    11112        DESCRIPTION:  This routine builds the severity level field
     4015    11113            in the head record.  The severity level indicates the
     4016    11114            maximum severity of errors encountered during compilation.
     4017    11115
     4018    11116        CALL:  CALL XUO$HEAD_SEVERITY( Severity )
     4019    11117
     4020    11118        INPUT:
PL6.E3A0      #017=XUO$HEADSTART File=XUO$BUILD.:E05TSI                          WED 07/30/97 09:32 Page:471
     4021    11119            Severity            UBIN ALIGNED
     4022    11120                                The value that represents the severity
     4023    11121                                to be associated with the object unit.
     4024    11122                                The routine will maintain the maximum
     4025    11123                                severity received.
     4026    11124
     4027    11125        OUTPUT:
     4028    11126            Updated head record
     4029    11127
     4030    11128        B$OBJECT REFERENCE:  B$OUHEAD
     4031    11129        */
     4032    11130        /*B*
     4033    11131
     4034    11132        GLOBAL DATA:  none
     4035    11133
     4036    11134        INTERFACE:  none
     4037    11135
     4038    11136        */
     4039    11137    1   XUO$HEAD_SEVERITY: ENTRY(P_PARAM1);
     4040    11138         /*
     4041    11139         The following will maintain the highest severity
     4042    11140         encountered in the object unit.
     4043    11141         */
     4044    11142    1       IF P_SEVERITY>XUO_MAXIMUM_SEVERITY THEN
     4045    11143    1           XUO_MAXIMUM_SEVERITY=P_SEVERITY;
     4046    11144    1       RETURN;
     4047    11145            %PAGE (ARG=XUO$HEADTERM);

             11158    1   /*******************************************************************************
             11159    1   *                                                                              *
             11160    1   *        XUO$HEADTERM              XUO$HEADTERM                                    *
             11161    1   *                                                                              *
             11162    1   *******************************************************************************/

     4048    11166    1   XUO$HEADTERM: ENTRY;
     4049    11167         /*
     4050    11168         The following fills in the final values of the head record
PL6.E3A0      #017=XUO$HEADSTART File=XUO$BUILD.:E05TSI                          WED 07/30/97 09:32 Page:472
     4051    11169         */
     4052    11170    1       OUHEAD$=B$OUHEAD$;
     4053    11171    1       B$OUHEAD.UTS=XUO_OU_UTS;
     4054    11172    1       B$OUHEAD.WORDSIZE=XUO_WORDSIZE;
     4055    11173    1       B$OUHEAD.COMPILER=XUO_COMPILER_ID;
     4056    11174    1       B$OUHEAD.VERS=XUO_VERSION_NUMBER;
     4057    11175    1       B$OUHEAD.SEVLEV=XUO_MAXIMUM_SEVERITY;
     4058    11176         /*
     4059    11177            Check to see if no logical blocks
     4060    11178            were output or the no
     4061    11179            debug option was specified.
     4062    11180            */
     4063    11181    1       IF B_LOGBLK_COUNT<0 OR XUO_SCHEMA_REQUIRED='0'B THEN
     4064    11182    1           B$OUHEAD.LOGBLKSIZ=0;
     4065    11183    1       ELSE
     4066    11184    1           B$OUHEAD.LOGBLKSIZ=(B_LOGBLK_COUNT+1)*SIZEW(B$LOGBLK)+SIZEW(B$LBNTRY0)+SIZEW
             11184                    (B$LBNTRY1);
     4067    11185    1       B$OUHEAD.PROGPSIZ=B_PROGRAM_PAGE_SIZE;
     4068    11186    1       B$OUHEAD.RELPSIZ=B_RELOCATION_PAGE_SIZE;
     4069    11187    1       B$OUHEAD.DNAMSIZ=B_DNAME_COUNT;
     4070    11188    1       B$OUHEAD.DNAMPSIZ=B_DNAME_PAGE_SIZE;
     4071    11189    1       B$OUHEAD.RNAMSIZ=B_RNAME_COUNT;
     4072    11190    1       B$OUHEAD.RNAMPSIZ=B_RNAME_PAGE_SIZE;
     4073    11191    1       B$OUHEAD.EDEFSIZ=(B_EDEF_COUNT+1)*SIZEW(B$EDEF);
     4074    11192    1       B$OUHEAD.EDEFPSIZ=B_EDEF_PAGE_SIZE;
     4075    11193    1       B$OUHEAD.EREFSIZ=(B_EREF_COUNT+1)*SIZEW(B$EREF);
     4076    11194    1       B$OUHEAD.EREFPSIZ=B_EREF_PAGE_SIZE;
     4077    11195    1       B$OUHEAD.SDEFSIZ=(B_SDEF_COUNT+1)*SIZEW(B$SDEF);
     4078    11196    1       B$OUHEAD.SDEFPSIZ=B_SDEF_PAGE_SIZE;
     4079    11197    1       B$OUHEAD.SREFSIZ=(B_SREF_COUNT+1)*SIZEW(B$SREF);
     4080    11198    1       B$OUHEAD.SREFPSIZ=B_SREF_PAGE_SIZE;
     4081    11199    1       B$OUHEAD.SEGDEFSIZ=(B_SEGDEF_COUNT+1)*SIZEW(B$SEGDEF);
     4082    11200    1       B$OUHEAD.SEGDEFPSIZ=B_SEGDEF_PAGE_SIZE;
     4083    11201    1       B$OUHEAD.SEGREFSIZ=(B_SEGREF_COUNT+1)*SIZEW(B$SEGREF);
     4084    11202    1       B$OUHEAD.SEGREFPSIZ=B_SEGREF_PAGE_SIZE;
     4085    11203    1       RETURN;
     4086    11204    1   END XUO$HEADSTART;
PL6.E3A0      #017=XUO$HEADSTART File=XUO$BUILD.:E05TSI                          WED 07/30/97 09:32 Page:473
     4087    11205        %EOD;

PL6.E3A0      #017=XUO$HEADSTART File=XUO$BUILD.:E05TSI                          WED 07/30/97 09:32 Page:474
--  Include file information  --

   XUO$OBJ_C.:E05TOU  is referenced.
   B$OBJECT_C.:E05TOU  is referenced.
   CP_6_SUBS.:E05TOU  is referenced.
   CP_6_C.:E05TOU  is referenced.
   CP_6.:E05TOU  cannot be made into a system file and is referenced.
   ZVA_FLAGS.:TOOLE04  is referenced.
   ZVA_SYSTEM_FILE.:TOOLE04  is referenced.
      No diagnostics issued in procedure XUO$HEADSTART.

   Procedure XUO$HEADSTART requires 115 words for executable code.
   Procedure XUO$HEADSTART requires 8 words of local(AUTO) storage.

PL6.E3A0      #017=XUO$HEADSTART File=XUO$BUILD.:E05TSI                          WED 07/30/97 09:32 Page:475

 Object Unit name= XUO$HEADSTART                              File name= XUO$BUILD.:E05TOU
 UTS= JUL 30 '97 09:32:48.56 WED                              Compiler= PL-6/E31         Sev=      00
 SharedLib= :SHARED_SYSTEM                                    Alt SharedLib=


    ****  Control sections  ****

 Sect   Type Bound  Init  Size OctSiz  Section name(segment info)
    0   DCB   even  none     0      0  M$UC
    1   Proc  even  none   115    163  XUO$HEADSTART

    ****  Entry defs  ****

                              Check   Calling
                             calling  sequence
  Sect OctLoc Primary Altret sequence   type   Parms  Name
     1      0   yes            yes      Std        3  XUO$HEADSTART
     1     23                  yes      Std        1  XUO$HEADNAME
     1     40                  yes      Std        1  XUO$HEAD_SEVERITY
     1     51                  yes      Std        0  XUO$HEADTERM

  ****  Entry refs  ****

         Check        Calling
        calling       sequence
Altret sequence SRef   type   Args  Name
                       nStd      0 X66_AUTO_3
                       nStd      0 X66_ARET
                       Std       0 B_CONSPOOL_D
PL6.E3A0      #017=XUO$HEADSTART File=XUO$BUILD.:E05TSI                          WED 07/30/97 09:32 Page:476

  ****  Data refs  ****

  Flags:  r = read only, s = secondary
Flgs Name                             Flgs Name                             Flgs Name
     M$UC                                  B$HEADKEY                             B$OUHEAD$
     B_PROGRAM_PAGE_SIZE                   B_RELOCATION_PAGE_SIZE                B_DNAME_COUNT
     B_DNAME_PAGE_SIZE                     B_RNAME_COUNT                         B_RNAME_PAGE_SIZE
     B_EDEF_COUNT                          B_EDEF_PAGE_SIZE                      B_EREF_COUNT
     B_EREF_PAGE_SIZE                      B_SDEF_COUNT                          B_SDEF_PAGE_SIZE
     B_SREF_COUNT                          B_SREF_PAGE_SIZE                      B_SEGDEF_COUNT
     B_SEGDEF_PAGE_SIZE                    B_SEGREF_COUNT                        B_SEGREF_PAGE_SIZE
     B_LOGBLK_COUNT                        XUO_SCHEMA_REQUIRED                   XUO_COMPILER_ID
     XUO_VERSION_NUMBER                    XUO_OU_UTS                            XUO_MAXIMUM_SEVERITY
     XUO_WORDSIZE                          B_VECTNIL
PL6.E3A0      #017=XUO$HEADSTART File=XUO$BUILD.:E05TSI                          WED 07/30/97 09:32 Page:477


     3818        1        /*M*     XUO$HEADSTART  -- THIS MODULE CONTAINS ROUTINES THAT  BUILD THE HEAD */
     3819        2        /*T***********************************************************/
     3820        3        /*T*                                                         */
     3821        4        /*T* Copyright (c) Bull HN Information Systems Inc., 1997    */
     3822        5        /*T*                                                         */
     3823        6        /*T***********************************************************/
     3824        7        /*P*
     3825        8
     3826        9        NAME:  XUO$HEADSTART
     3827       10
     3828       11
     3829       12        PURPOSE:  To build the start address field of the Head Record.
     3830       13
     3831       14        DESCRIPTION:  This routine will fill in the start address
     3832       15            of a module.  It should be called only in the case of
     3833       16            the MAIN program.  The remaining fields of the Head
     3834       17            Record are filled in by calling XUO$OUTERM after all
     3835       18            the records have been processed.
     3836       19
     3837       20        */
     3838       21        /*D*
     3839       22
     3840       23        NAME:  XUO$HEADSTART
     3841       24
     3842       25        CALL:  CALL XUO$HEADSTART(Operand Type,
     3843       26                           Operand,
     3844       27                           Offset)
     3845       28
     3846       29
     3847       30        INPUT:
     3848       31            Operand Type        UBIN
     3849       32                                An operand type of 0 indicates that
     3850       33                                the object unit is not the main
     3851       34                                program.  For the main program the
     3852       35                                fields are defined as follows:
     3853       36                                  1 - section
PL6.E3A0      #017=XUO$HEADSTART File=XUO$BUILD.:E05TSI                          WED 07/30/97 09:32 Page:478
     3854       37                                  2 - entref
     3855       38                                  3 - symref
     3856       39                                  4 - constant
     3857       40                                  5 - segdef
     3858       41                                  6 - segref
     3859       42
     3860       43            Operand             UBIN
     3861       44                                If the operand type = 4, the operand
     3862       45                                field is an unsigned constant.
     3863       46                                If the operand type is not equal 4 (or
     3864       47                                0), then the operand field is an entry
     3865       48                                number into the table specified by
     3866       49                                the operand type.
     3867       50
     3868       51            Offset              UBIN
     3869       52                                The word displacement from the offset
     3870       53                                found in the record key to the
     3871       54                                relocatable item.  (The offset found in
     3872       55                                the record key is the offset from the
     3873       56                                origin of the section.)
     3874       57
     3875       58        OUTPUT:
     3876       59            The updated head record.
     3877       60
     3878       61        B$OBJECT REFERENCE:  B$OUHEAD
     3879       62        */
     3880       63        /*B*
     3881       64
     3882       65        GLOBAL DATA:  none
     3883       66
     3884       67        INTERFACE:  none
     3885       68
     3886       69        */
     3887       70
     3888       71        XUO$HEADSTART: PROC (P_PARAM1,P_OPERAND,P_OFFSET);

     71  1 000000   000000 700200 xent  XUO$HEADSTA* TSX0  ! X66_AUTO_3
PL6.E3A0      #017=XUO$HEADSTART File=XUO$BUILD.:E05TSI                          WED 07/30/97 09:32 Page:479
         1 000001   000010 000003                    ZERO    8,3

     3889       72         /*
     3890       73            */
     3891       74        %INCLUDE ZVA_SYSTEM_FILE;
     3892     6325        %PAGE (ARG=INCLUDES);

              6338    1   /*******************************************************************************
              6339    1   *                                                                              *
              6340    1   *        INCLUDES              INCLUDES                                           *
              6341    1   *                                                                              *
              6342    1   *******************************************************************************/

     3893     6346        %INCLUDE B$OBJECT_C;
     3894     9776        %INCLUDE XUO$OBJ_C;
     3895    10186        %PAGE (ARG=PARAMETERS);

             10199    1   /*******************************************************************************
             10200    1   *                                                                              *
             10201    1   *        PARAMETERS              PARAMETERS                                       *
             10202    1   *                                                                              *
             10203    1   *******************************************************************************/

     3896    10207    1   DCL P_PARAM1 UBIN;
     3897    10208         /*
     3898    10209         The following defintion is for XUO$HEADSTART
     3899    10210         */
     3900    10211    1   DCL P_OPERAND_TYPE REDEF P_PARAM1 UBIN;
     3901    10212         /*
     3902    10213         The following definition is for XUO$HEADNAME
     3903    10214         */
     3904    10215    1   DCL 1 P_NAME REDEF P_PARAM1 ALIGNED,
     3905    10216    1         2 SIZE UBIN HALF UNAL,
     3906    10217    1         2 TEXT CHAR(P_NAME.SIZE);
     3907    10218         /*
     3908    10219         The following definition is for XUO$HEAD_SEVERITY
     3909    10220         */
PL6.E3A0      #017=XUO$HEADSTART File=XUO$BUILD.:E05TSI                          WED 07/30/97 09:32 Page:480
     3910    10221    1   DCL P_SEVERITY REDEF P_PARAM1 UBIN;
     3911    10222    1   DCL P_OPERAND UBIN;
     3912    10223    1   DCL P_OFFSET UBIN;
     3913    10224        %PAGE (ARG=HEAD DATA);

             10237    1   /*******************************************************************************
             10238    1   *                                                                              *
             10239    1   *        HEAD DATA              HEAD DATA                                         *
             10240    1   *                                                                              *
             10241    1   *******************************************************************************/

     3914    10245        %B$HEADKEY (STCLASS=SYMREF,HFLAGINIT=);
     3915    10257    1   DCL B$OUHEAD$ PTR SYMREF;
     3916    10258    1   DCL OUHEAD$ PTR;
     3917    10259        %B$OUHEAD (STCLASS="BASED(OUHEAD$)");
     3918    10377        %PLIST;
     3919    10378        %PAGE (ARG=RECORD POINTERS/DATA);

             10391    1   /*******************************************************************************
             10392    1   *                                                                              *
             10393    1   *        RECORD POINTERS/DATA              RECORD POINTERS/DATA                   *
             10394    1   *                                                                              *
             10395    1   *******************************************************************************/

     3920    10399        %B_PROGRAM_POINTERS;
     3921    10414        %B_RELOCATION_POINTERS;
     3922    10429        %B_DNAME_POINTERS;
     3923    10449        %B_RNAME_POINTERS;
     3924    10469        %B_EDEF_POINTERS;
     3925    10489        %B$EDEF;
     3926    10559        %B_EREF_POINTERS;
     3927    10579        %B$EREF;
     3928    10622        %B_SDEF_POINTERS;
     3929    10642        %B$SDEF;
     3930    10696        %B_SREF_POINTERS;
     3931    10716        %B$SREF;
     3932    10730        %B_SEGDEF_POINTERS;
PL6.E3A0      #017=XUO$HEADSTART File=XUO$BUILD.:E05TSI                          WED 07/30/97 09:32 Page:481
     3933    10750        %B$SEGDEF;
     3934    10805        %B_SEGREF_POINTERS;
     3935    10825        %B$SEGREF;
     3936    10842        %B_LOGBLK_POINTERS;
     3937    10864        %B$LBNTRY0;
     3938    10900        %B$LBNTRY1;
     3939    10927        %B$LOGBLK;
     3940    10958        %PLIST;
     3941    10959        %PAGE (ARG=MISC DATA);

             10972    1   /*******************************************************************************
             10973    1   *                                                                              *
             10974    1   *        MISC DATA              MISC DATA                                         *
             10975    1   *                                                                              *
             10976    1   *******************************************************************************/

     3942    10980    1   DCL XUO_SCHEMA_REQUIRED BIT(1) ALIGNED SYMREF;
     3943    10981    1   DCL XUO_COMPILER_ID UBIN SYMREF;
     3944    10982    1   DCL 1 XUO_VERSION_NUMBER SYMREF,
     3945    10983    1         2 LETTER CHAR(1) UNAL,
     3946    10984    1         2 NUMBER UBIN(9) UNAL;
     3947    10985    1   DCL XUO_OU_UTS SYMREF UBIN;
     3948    10986    1   DCL XUO_MAXIMUM_SEVERITY UBIN SYMREF;
     3949    10987    1   DCL XUO_WORDSIZE SYMREF UBIN;
     3950    10988
     3951    10989        %PAGE (ARG=CODE);

             11002    1   /*******************************************************************************
             11003    1   *                                                                              *
             11004    1   *        CODE              CODE                                                  *
             11005    1   *                                                                              *
             11006    1   *******************************************************************************/

     3952    11010    1       OUHEAD$=B$OUHEAD$;

  11010  1 000002   000000 236000 xsym               LDQ     B$OUHEAD$
         1 000003   200006 756100                    STQ     OUHEAD$,,AUTO
PL6.E3A0      #017=XUO$HEADSTART File=XUO$BUILD.:E05TSI                          WED 07/30/97 09:32 Page:482

     3953    11011    1       B$OUHEAD.START.OPNDTYP=P_OPERAND_TYPE;

  11011  1 000004   200003 470500                    LDP0    @P_PARAM1,,AUTO
         1 000005   200006 471500                    LDP1    OUHEAD$,,AUTO
         1 000006   000000 236100                    LDQ     0,,PR0
         1 000007   000040 736000                    QLS     32
         1 000010   100002 676100                    ERQ     2,,PR1
         1 000011   740000 376003                    ANQ     -16384,DU
         1 000012   100002 656100                    ERSQ    2,,PR1

     3954    11012    1       B$OUHEAD.START.OPERAND=P_OPERAND;

  11012  1 000013   200004 473500                    LDP3    @P_OPERAND,,AUTO
         1 000014   300000 236100                    LDQ     0,,PR3
         1 000015   000022 736000                    QLS     18
         1 000016   100002 552120                    STBQ    2,'20'O,PR1

     3955    11013    1       B$OUHEAD.START.OFFSET=P_OFFSET;

  11013  1 000017   200005 474500                    LDP4    @P_OFFSET,,AUTO
         1 000020   400000 720100                    LXL0    0,,PR4
         1 000021   100002 440100                    SXL0    2,,PR1

     3956    11014    1       RETURN;

  11014  1 000022   000000 702200 xent               TSX2  ! X66_ARET

     3957    11015        %PAGE (ARG=XUO$HEADNAME);

             11028    1   /*******************************************************************************
             11029    1   *                                                                              *
             11030    1   *        XUO$HEADNAME              XUO$HEADNAME                                   *
             11031    1   *                                                                              *
             11032    1   *******************************************************************************/

     3958    11036        /*D*
PL6.E3A0      #017=XUO$HEADSTART File=XUO$BUILD.:E05TSI                          WED 07/30/97 09:32 Page:483
     3959    11037
     3960    11038        XUO$HEADNAME -- Head Record Key
     3961    11039
     3962    11040        NAME:  XUO$HEADNAME
     3963    11041
     3964    11042        PURPOSE:  To build the head record key.
     3965    11043
     3966    11044        DESCRIPTION:  This routine builds the Head Record Key.
     3967    11045             Each object unit is uniquely identified by it head
     3968    11046             record key.  Byte 0 of the key contains the name
     3969    11047             size followed by the character string which is
     3970    11048             the object unit name.
     3971    11049
     3972    11050        CALL:  CALL XUO$HEADNAME(Name)
     3973    11051
     3974    11052        INPUT:
     3975    11053            Name
     3976    11054              Size              UBIN HALF UNALIGNED
     3977    11055                                The number of bytes in the object unit
     3978    11056                                name.
     3979    11057              Text              CHAR( Size )
     3980    11058                                The character string which is the name
     3981    11059                                of the object unit.  This name is equal
     3982    11060                                to the entry definition name with the
     3983    11061                                attribute 'object unit name'.
     3984    11062
     3985    11063        OUTPUT:
     3986    11064            Updated head key
     3987    11065
     3988    11066        B$OBJECT REFERENCE:  B$HEADKEY
     3989    11067        */
     3990    11068        /*B*
     3991    11069
     3992    11070        GLOBAL DATA:  none
     3993    11071
     3994    11072        INTERFACE:  none
     3995    11073
PL6.E3A0      #017=XUO$HEADSTART File=XUO$BUILD.:E05TSI                          WED 07/30/97 09:32 Page:484
     3996    11074        */
     3997    11075
     3998    11076    1   XUO$HEADNAME: ENTRY(P_PARAM1);

  11076  1 000023   000000 700200 xent  XUO$HEADNAME TSX0  ! X66_AUTO_3
         1 000024   000010 000003                    ZERO    8,3

     3999    11077         /*
     4000    11078         The following will set the size and the name in the head  key.
     4001    11079         */
     4002    11080    1       B$HEADKEY.KEYSIZ=P_NAME.SIZE+1;

  11080  1 000025   200003 470500                    LDP0    @P_PARAM1,,AUTO
         1 000026   000000 236100                    LDQ     0,,PR0
         1 000027   000022 772000                    QRL     18
         1 000030   000001 036007                    ADLQ    1,DL
         1 000031   000033 736000                    QLS     27
         1 000032   000000 552040 xsym               STBQ    B$HEADKEY,'40'O

     4003    11081    1       B$HEADKEY.TEXT=P_NAME.TEXT;

  11081  1 000033   000000 220100                    LDX0    0,,PR0
         1 000034   040000 100540                    MLR     fill='040'O
         1 000035   000000 400010                    ADSC9   0,,PR0                   cn=2,n=*X0
         1 000036   000000 400037 xsym               ADSC9   B$HEADKEY                cn=2,n=31

     4004    11082    1       RETURN;

  11082  1 000037   000000 702200 xent               TSX2  ! X66_ARET

     4005    11083            %PAGE (ARG=XUO$HEAD_SEVERITY);

             11096    1   /*******************************************************************************
             11097    1   *                                                                              *
             11098    1   *        XUO$HEAD_SEVERITY              XUO$HEAD_SEVERITY                         *
             11099    1   *                                                                              *
             11100    1   *******************************************************************************/
PL6.E3A0      #017=XUO$HEADSTART File=XUO$BUILD.:E05TSI                          WED 07/30/97 09:32 Page:485

     4006    11104        /*D*
     4007    11105
     4008    11106        XUO$HEAD_SEVERITY --Head Record
     4009    11107
     4010    11108        NAME:  XUO$HEAD_SEVERITY
     4011    11109
     4012    11110        PURPOSE:  To build the severity level field of the head record.
     4013    11111
     4014    11112        DESCRIPTION:  This routine builds the severity level field
     4015    11113            in the head record.  The severity level indicates the
     4016    11114            maximum severity of errors encountered during compilation.
     4017    11115
     4018    11116        CALL:  CALL XUO$HEAD_SEVERITY( Severity )
     4019    11117
     4020    11118        INPUT:
     4021    11119            Severity            UBIN ALIGNED
     4022    11120                                The value that represents the severity
     4023    11121                                to be associated with the object unit.
     4024    11122                                The routine will maintain the maximum
     4025    11123                                severity received.
     4026    11124
     4027    11125        OUTPUT:
     4028    11126            Updated head record
     4029    11127
     4030    11128        B$OBJECT REFERENCE:  B$OUHEAD
     4031    11129        */
     4032    11130        /*B*
     4033    11131
     4034    11132        GLOBAL DATA:  none
     4035    11133
     4036    11134        INTERFACE:  none
     4037    11135
     4038    11136        */
     4039    11137    1   XUO$HEAD_SEVERITY: ENTRY(P_PARAM1);

  11137  1 000040   000000 700200 xent  XUO$HEAD_SE* TSX0  ! X66_AUTO_3
PL6.E3A0      #017=XUO$HEADSTART File=XUO$BUILD.:E05TSI                          WED 07/30/97 09:32 Page:486
         1 000041   000010 000003                    ZERO    8,3

     4040    11138         /*
     4041    11139         The following will maintain the highest severity
     4042    11140         encountered in the object unit.
     4043    11141         */
     4044    11142    1       IF P_SEVERITY>XUO_MAXIMUM_SEVERITY THEN

  11142  1 000042   200003 470500                    LDP0    @P_PARAM1,,AUTO
         1 000043   000000 236000 xsym               LDQ     XUO_MAXIMUM_SEVERITY
         1 000044   000000 116100                    CMPQ    0,,PR0
         1 000045   000050 603000 1                  TRC     s:11144

     4045    11143    1           XUO_MAXIMUM_SEVERITY=P_SEVERITY;

  11143  1 000046   000000 235100                    LDA     0,,PR0
         1 000047   000000 755000 xsym               STA     XUO_MAXIMUM_SEVERITY

     4046    11144    1       RETURN;

  11144  1 000050   000000 702200 xent               TSX2  ! X66_ARET

     4047    11145            %PAGE (ARG=XUO$HEADTERM);

             11158    1   /*******************************************************************************
             11159    1   *                                                                              *
             11160    1   *        XUO$HEADTERM              XUO$HEADTERM                                   *
             11161    1   *                                                                              *
             11162    1   *******************************************************************************/

     4048    11166    1   XUO$HEADTERM: ENTRY;

  11166  1 000051   000000 700200 xent  XUO$HEADTERM TSX0  ! X66_AUTO_3
         1 000052   000010 000003                    ZERO    8,3

     4049    11167         /*
     4050    11168         The following fills in the final values of the head record
PL6.E3A0      #017=XUO$HEADSTART File=XUO$BUILD.:E05TSI                          WED 07/30/97 09:32 Page:487
     4051    11169         */
     4052    11170    1       OUHEAD$=B$OUHEAD$;

  11170  1 000053   000000 236000 xsym               LDQ     B$OUHEAD$
         1 000054   200006 756100                    STQ     OUHEAD$,,AUTO

     4053    11171    1       B$OUHEAD.UTS=XUO_OU_UTS;

  11171  1 000055   200006 470500                    LDP0    OUHEAD$,,AUTO
         1 000056   000000 235000 xsym               LDA     XUO_OU_UTS
         1 000057   000000 755100                    STA     0,,PR0

     4054    11172    1       B$OUHEAD.WORDSIZE=XUO_WORDSIZE;

  11172  1 000060   000000 236000 xsym               LDQ     XUO_WORDSIZE
         1 000061   000033 736000                    QLS     27
         1 000062   000001 552140                    STBQ    1,'40'O,PR0

     4055    11173    1       B$OUHEAD.COMPILER=XUO_COMPILER_ID;

  11173  1 000063   000000 236000 xsym               LDQ     XUO_COMPILER_ID
         1 000064   000022 736000                    QLS     18
         1 000065   000001 552120                    STBQ    1,'20'O,PR0

     4056    11174    1       B$OUHEAD.VERS=XUO_VERSION_NUMBER;

  11174  1 000066   000000 220000 xsym               LDX0    XUO_VERSION_NUMBER
         1 000067   000001 440100                    SXL0    1,,PR0

     4057    11175    1       B$OUHEAD.SEVLEV=XUO_MAXIMUM_SEVERITY;

  11175  1 000070   000000 721000 xsym               LXL1    XUO_MAXIMUM_SEVERITY
         1 000071   000003 741100                    STX1    3,,PR0

     4058    11176         /*
     4059    11177            Check to see if no logical blocks
     4060    11178            were output or the no
PL6.E3A0      #017=XUO$HEADSTART File=XUO$BUILD.:E05TSI                          WED 07/30/97 09:32 Page:488
     4061    11179            debug option was specified.
     4062    11180            */
     4063    11181    1       IF B_LOGBLK_COUNT<0 OR XUO_SCHEMA_REQUIRED='0'B THEN

  11181  1 000072   000000 236000 xsym               LDQ     B_LOGBLK_COUNT
         1 000073   000076 604000 1                  TMI     s:11182
         1 000074   000000 234000 xsym               SZN     XUO_SCHEMA_REQUIRED
         1 000075   000101 604000 1                  TMI     s:11184

     4064    11182    1           B$OUHEAD.LOGBLKSIZ=0;

  11182  1 000076   000000 222003                    LDX2    0,DU
         1 000077   000003 442100                    SXL2    3,,PR0
         1 000100   000105 710000 1                  TRA     s:11185

     4065    11183    1       ELSE
     4066    11184    1          B$OUHEAD.LOGBLKSIZ=(B_LOGBLK_COUNT+1)*SIZEW(B$LOGBLK)+SIZEW(B$LBNTRY0)+SIZEW
             11184                    (B$LBNTRY1);

  11184  1 000101   000000 235000 xsym               LDA     B_LOGBLK_COUNT
         1 000102   000002 735000                    ALS     2
         1 000103   000014 622005                    EAX2    12,AL
         1 000104   000003 442100                    SXL2    3,,PR0

     4067    11185    1       B$OUHEAD.PROGPSIZ=B_PROGRAM_PAGE_SIZE;

  11185  1 000105   000000 723000 xsym               LXL3    B_PROGRAM_PAGE_SIZE
         1 000106   000004 743100                    STX3    4,,PR0

     4068    11186    1       B$OUHEAD.RELPSIZ=B_RELOCATION_PAGE_SIZE;

  11186  1 000107   000000 724000 xsym               LXL4    B_RELOCATION_PAGE_SIZE
         1 000110   000004 444100                    SXL4    4,,PR0

     4069    11187    1       B$OUHEAD.DNAMSIZ=B_DNAME_COUNT;

  11187  1 000111   000000 725000 xsym               LXL5    B_DNAME_COUNT
PL6.E3A0      #017=XUO$HEADSTART File=XUO$BUILD.:E05TSI                          WED 07/30/97 09:32 Page:489
         1 000112   000005 745100                    STX5    5,,PR0

     4070    11188    1       B$OUHEAD.DNAMPSIZ=B_DNAME_PAGE_SIZE;

  11188  1 000113   000000 726000 xsym               LXL6    B_DNAME_PAGE_SIZE
         1 000114   000005 446100                    SXL6    5,,PR0

     4071    11189    1       B$OUHEAD.RNAMSIZ=B_RNAME_COUNT;

  11189  1 000115   000000 727000 xsym               LXL7    B_RNAME_COUNT
         1 000116   000006 747100                    STX7    6,,PR0

     4072    11190    1       B$OUHEAD.RNAMPSIZ=B_RNAME_PAGE_SIZE;

  11190  1 000117   000000 720000 xsym               LXL0    B_RNAME_PAGE_SIZE
         1 000120   000006 440100                    SXL0    6,,PR0

     4073    11191    1       B$OUHEAD.EDEFSIZ=(B_EDEF_COUNT+1)*SIZEW(B$EDEF);

  11191  1 000121   000000 235000 xsym               LDA     B_EDEF_COUNT
         1 000122   000001 735000                    ALS     1
         1 000123   000002 620005                    EAX0    2,AL
         1 000124   000007 740100                    STX0    7,,PR0

     4074    11192    1       B$OUHEAD.EDEFPSIZ=B_EDEF_PAGE_SIZE;

  11192  1 000125   000000 720000 xsym               LXL0    B_EDEF_PAGE_SIZE
         1 000126   000007 440100                    SXL0    7,,PR0

     4075    11193    1       B$OUHEAD.EREFSIZ=(B_EREF_COUNT+1)*SIZEW(B$EREF);

  11193  1 000127   000000 720000 xsym               LXL0    B_EREF_COUNT
         1 000130   000001 621010                    EAX1    1,X0
         1 000131   000010 741100                    STX1    8,,PR0

     4076    11194    1       B$OUHEAD.EREFPSIZ=B_EREF_PAGE_SIZE;

PL6.E3A0      #017=XUO$HEADSTART File=XUO$BUILD.:E05TSI                          WED 07/30/97 09:32 Page:490
  11194  1 000132   000000 720000 xsym               LXL0    B_EREF_PAGE_SIZE
         1 000133   000010 440100                    SXL0    8,,PR0

     4077    11195    1       B$OUHEAD.SDEFSIZ=(B_SDEF_COUNT+1)*SIZEW(B$SDEF);

  11195  1 000134   000000 235000 xsym               LDA     B_SDEF_COUNT
         1 000135   000001 735000                    ALS     1
         1 000136   000002 620005                    EAX0    2,AL
         1 000137   000011 740100                    STX0    9,,PR0

     4078    11196    1       B$OUHEAD.SDEFPSIZ=B_SDEF_PAGE_SIZE;

  11196  1 000140   000000 720000 xsym               LXL0    B_SDEF_PAGE_SIZE
         1 000141   000011 440100                    SXL0    9,,PR0

     4079    11197    1       B$OUHEAD.SREFSIZ=(B_SREF_COUNT+1)*SIZEW(B$SREF);

  11197  1 000142   000000 720000 xsym               LXL0    B_SREF_COUNT
         1 000143   000001 621010                    EAX1    1,X0
         1 000144   000012 741100                    STX1    10,,PR0

     4080    11198    1       B$OUHEAD.SREFPSIZ=B_SREF_PAGE_SIZE;

  11198  1 000145   000000 720000 xsym               LXL0    B_SREF_PAGE_SIZE
         1 000146   000012 440100                    SXL0    10,,PR0

     4081    11199    1       B$OUHEAD.SEGDEFSIZ=(B_SEGDEF_COUNT+1)*SIZEW(B$SEGDEF);

  11199  1 000147   000000 235000 xsym               LDA     B_SEGDEF_COUNT
         1 000150   000001 735000                    ALS     1
         1 000151   000002 620005                    EAX0    2,AL
         1 000152   000013 740100                    STX0    11,,PR0

     4082    11200    1       B$OUHEAD.SEGDEFPSIZ=B_SEGDEF_PAGE_SIZE;

  11200  1 000153   000000 720000 xsym               LXL0    B_SEGDEF_PAGE_SIZE
         1 000154   000013 440100                    SXL0    11,,PR0
PL6.E3A0      #017=XUO$HEADSTART File=XUO$BUILD.:E05TSI                          WED 07/30/97 09:32 Page:491

     4083    11201    1       B$OUHEAD.SEGREFSIZ=(B_SEGREF_COUNT+1)*SIZEW(B$SEGREF);

  11201  1 000155   000000 720000 xsym               LXL0    B_SEGREF_COUNT
         1 000156   000001 621010                    EAX1    1,X0
         1 000157   000014 741100                    STX1    12,,PR0

     4084    11202    1       B$OUHEAD.SEGREFPSIZ=B_SEGREF_PAGE_SIZE;

  11202  1 000160   000000 720000 xsym               LXL0    B_SEGREF_PAGE_SIZE
         1 000161   000014 440100                    SXL0    12,,PR0

     4085    11203    1       RETURN;

  11203  1 000162   000000 702200 xent               TSX2  ! X66_ARET
     4086    11204    1   END XUO$HEADSTART;
     4087    11205        %EOD;

PL6.E3A0      #017=XUO$HEADSTART File=XUO$BUILD.:E05TSI                          WED 07/30/97 09:32 Page:492
--  Include file information  --

   XUO$OBJ_C.:E05TOU  is referenced.
   B$OBJECT_C.:E05TOU  is referenced.
   CP_6_SUBS.:E05TOU  is referenced.
   CP_6_C.:E05TOU  is referenced.
   CP_6.:E05TOU  cannot be made into a system file and is referenced.
   ZVA_FLAGS.:TOOLE04  is referenced.
   ZVA_SYSTEM_FILE.:TOOLE04  is referenced.
      No diagnostics issued in procedure XUO$HEADSTART.
PL6.E3A0      #017=XUO$HEADSTART File=XUO$BUILD.:E05TSI                          WED 07/30/97 09:32 Page:493

 **** Variables and constants ****

  ****  Auto variables  ****

  ****  Scalars and arrays  ****
OctLoc.c.b A Datatyp(siz) R M Lvl/name                 OctLoc.c.b A Datatyp(siz) R M Lvl/name

     5-0-0/w PTR         r     1 @P_OFFSET                  4-0-0/w PTR         r     1 @P_OPERAND
     3-0-0/w PTR         r     1 @P_PARAM1                  6-0-0/w PTR         r     1 OUHEAD$
    *0-0-0/w ASTR(18)    r     1 P_NAME                    *0-0-0/w UBIN        r     1 P_OFFSET
    *0-0-0/w UBIN        r     1 P_OPERAND                 *0-0-0/w UBIN        r     1 P_OPERAND_TYPE
    *0-0-0/w UBIN        r     1 P_PARAM1                  *0-0-0/w UBIN        r     1 P_SEVERITY

  ****  SYMREF variables  ****

  ****  Scalars and arrays  ****
OctLoc.c.b A Datatyp(siz) R M Lvl/name                 OctLoc.c.b A Datatyp(siz) R M Lvl/name

     0-0-0/w STRC(297)   r     1 B$HEADKEY                  0-0-0/w PTR         r     1 B$OUHEAD$
     0-0-0/w SBIN        r     1 B_DNAME_COUNT              0-0-0/w UBIN        r     1 B_DNAME_PAGE_SIZE
     0-0-0/w SBIN        r     1 B_EDEF_COUNT               0-0-0/w UBIN        r     1 B_EDEF_PAGE_SIZE
     0-0-0/w SBIN        r     1 B_EREF_COUNT               0-0-0/w UBIN        r     1 B_EREF_PAGE_SIZE
     0-0-0/w SBIN        r     1 B_LOGBLK_COUNT             0-0-0/w SBIN        r     1 B_PROGRAM_PAGE_SIZE
     0-0-0/w SBIN        r     1 B_RELOCATION_PAGE_SIZE
     0-0-0/w SBIN        r     1 B_RNAME_COUNT              0-0-0/w UBIN        r     1 B_RNAME_PAGE_SIZE
     0-0-0/w SBIN        r     1 B_SDEF_COUNT               0-0-0/w UBIN        r     1 B_SDEF_PAGE_SIZE
     0-0-0/w SBIN        r     1 B_SEGDEF_COUNT             0-0-0/w UBIN        r     1 B_SEGDEF_PAGE_SIZE
     0-0-0/w SBIN        r     1 B_SEGREF_COUNT             0-0-0/w UBIN        r     1 B_SEGREF_PAGE_SIZE
     0-0-0/w SBIN        r     1 B_SREF_COUNT               0-0-0/w UBIN        r     1 B_SREF_PAGE_SIZE
     0-0-0/w UBIN        r     1 XUO_COMPILER_ID            0-0-0/w UBIN        r     1 XUO_MAXIMUM_SEVERITY
     0-0-0/w UBIN        r     1 XUO_OU_UTS                 0-0-0/w BIT         r     1 XUO_SCHEMA_REQUIRED
     0-0-0/c STRC(18)    r     1 XUO_VERSION_NUMBER         0-0-0/w UBIN        r     1 XUO_WORDSIZE

  ****  BASED and DCB variables  ****

  ****  Scalars and arrays  ****
OctLoc.c.b A Datatyp(siz) R M Lvl/name                 OctLoc.c.b A Datatyp(siz) R M Lvl/name
PL6.E3A0      #017=XUO$HEADSTART File=XUO$BUILD.:E05TSI                          WED 07/30/97 09:32 Page:494

     0-0-0/w STRC(72)    r     1 B$EDEF                     0-0-0/w STRC        r     1 B$EREF
     0-0-0/w STRC(144)   r     1 B$LBNTRY0                  0-0-0/w STRC(144)   r     1 B$LBNTRY1
     0-0-0/w STRC(144)   r     1 B$LOGBLK                   0-0-0/w STRC(1044)  r     1 B$OUHEAD
     0-0-0/w STRC(72)    r     1 B$SDEF                     0-0-0/w STRC(72)    r     1 B$SEGDEF
     0-0-0/w STRC(24)    r     1 B$SEGREF                   0-0-0/w STRC        r     1 B$SREF


   Procedure XUO$HEADSTART requires 115 words for executable code.
   Procedure XUO$HEADSTART requires 8 words of local(AUTO) storage.
PL6.E3A0      #017=XUO$HEADSTART File=XUO$BUILD.:E05TSI                          WED 07/30/97 09:32 Page:495
          *** CROSS REFERENCE LISTING ***
**     DENOTES     IDENTIFIER DEFINITION
<<                 IDENTIFIER'S VALUE SET
>>                 IDENTIFIER'S VALUE USED
<>                 IDENTIFIER SET AND/OR USED
--                 IDENTIFIER REFERENCED
PL6.E3A0      #017=XUO$HEADSTART File=XUO$BUILD.:E05TSI                          WED 07/30/97 09:32 Page:496
          MINI XREF LISTING

B$EDEF
     10490**DCL     11191--ASSIGN
B$EDEF.OU
     10507**DCL     10513--REDEF
B$EREF
     10580**DCL     11193--ASSIGN
B$HEADKEY.KEYSIZ
     10247**DCL     11080<<ASSIGN
B$HEADKEY.TEXT
     10252**DCL     11081<<ASSIGN
B$LBNTRY0
     10865**DCL     11184--ASSIGN
B$LBNTRY0.NO_AUTO
     10891**DCL     10896--REDEF
B$LBNTRY0.VERSION
     10880**DCL     10882--REDEF
B$LBNTRY1
     10901**DCL     11184--ASSIGN
B$LOGBLK
     10928**DCL     11184--ASSIGN
B$OUHEAD.COMPILER
     10266**DCL     11173<<ASSIGN
B$OUHEAD.DNAMPSIZ
     10322**DCL     11188<<ASSIGN
B$OUHEAD.DNAMSIZ
     10319**DCL     11187<<ASSIGN
B$OUHEAD.EDEFPSIZ
     10333**DCL     11192<<ASSIGN
B$OUHEAD.EDEFSIZ
     10331**DCL     11191<<ASSIGN
B$OUHEAD.EREFPSIZ
     10338**DCL     11194<<ASSIGN
PL6.E3A0      #017=XUO$HEADSTART File=XUO$BUILD.:E05TSI                          WED 07/30/97 09:32 Page:497
B$OUHEAD.EREFSIZ
     10335**DCL     11193<<ASSIGN
B$OUHEAD.LOGBLKSIZ
     10312**DCL     11182<<ASSIGN  11184<<ASSIGN
B$OUHEAD.PROGPSIZ
     10315**DCL     11185<<ASSIGN
B$OUHEAD.RELPSIZ
     10317**DCL     11186<<ASSIGN
B$OUHEAD.RNAMPSIZ
     10328**DCL     11190<<ASSIGN
B$OUHEAD.RNAMSIZ
     10325**DCL     11189<<ASSIGN
B$OUHEAD.SDEFPSIZ
     10344**DCL     11196<<ASSIGN
B$OUHEAD.SDEFSIZ
     10341**DCL     11195<<ASSIGN
B$OUHEAD.SEGDEFPSIZ
     10356**DCL     11200<<ASSIGN
B$OUHEAD.SEGDEFSIZ
     10353**DCL     11199<<ASSIGN
B$OUHEAD.SEGREFPSIZ
     10362**DCL     11202<<ASSIGN
B$OUHEAD.SEGREFSIZ
     10359**DCL     11201<<ASSIGN
B$OUHEAD.SEVLEV
     10309**DCL     11175<<ASSIGN
B$OUHEAD.SREFPSIZ
     10350**DCL     11198<<ASSIGN
B$OUHEAD.SREFSIZ
     10347**DCL     11197<<ASSIGN
B$OUHEAD.START.OFFSET
     10306**DCL     11013<<ASSIGN
B$OUHEAD.START.OPERAND
     10300**DCL     11012<<ASSIGN
B$OUHEAD.START.OPNDTYP
     10290**DCL     11011<<ASSIGN
PL6.E3A0      #017=XUO$HEADSTART File=XUO$BUILD.:E05TSI                          WED 07/30/97 09:32 Page:498
B$OUHEAD.UTS
     10261**DCL     11171<<ASSIGN
B$OUHEAD.VERS
     10280**DCL     11174<<ASSIGN
B$OUHEAD.VERSION
     10278**DCL     10280--REDEF
B$OUHEAD.WORDSIZE
     10264**DCL     11172<<ASSIGN
B$OUHEAD$
     10257**DCL     11010>>ASSIGN  11170>>ASSIGN
B$SDEF
     10643**DCL     11195--ASSIGN
B$SDEF.AD.OU
     10663**DCL     10669--REDEF
B$SDEF.VALUE
     10644**DCL     10647--REDEF
B$SEGDEF
     10751**DCL     11199--ASSIGN
B$SEGDEF.AD.OU
     10775**DCL     10780--REDEF
B$SEGDEF.LFLAGS
     10790**DCL     10801--REDEF
B$SEGDEF.VALUE
     10752**DCL     10755--REDEF   10759--REDEF
B$SEGREF
     10826**DCL     11201--ASSIGN
B$SREF
     10717**DCL     11197--ASSIGN
B_DNAME_COUNT
     10444**DCL     11187>>ASSIGN
B_DNAME_PAGE_SIZE
     10447**DCL     11188>>ASSIGN
B_EDEF_COUNT
     10484**DCL     11191>>ASSIGN
B_EDEF_PAGE_SIZE
     10487**DCL     11192>>ASSIGN
PL6.E3A0      #017=XUO$HEADSTART File=XUO$BUILD.:E05TSI                          WED 07/30/97 09:32 Page:499
B_EREF_COUNT
     10574**DCL     11193>>ASSIGN
B_EREF_PAGE_SIZE
     10577**DCL     11194>>ASSIGN
B_LOGBLK_COUNT
     10859**DCL     11181>>IF      11184>>ASSIGN
B_PROGRAM_PAGE_SIZE
     10412**DCL     11185>>ASSIGN
B_RELOCATION_PAGE_SIZE
     10427**DCL     11186>>ASSIGN
B_RNAME_COUNT
     10464**DCL     11189>>ASSIGN
B_RNAME_PAGE_SIZE
     10467**DCL     11190>>ASSIGN
B_SDEF_COUNT
     10637**DCL     11195>>ASSIGN
B_SDEF_PAGE_SIZE
     10640**DCL     11196>>ASSIGN
B_SEGDEF_COUNT
     10745**DCL     11199>>ASSIGN
B_SEGDEF_PAGE_SIZE
     10748**DCL     11200>>ASSIGN
B_SEGREF_COUNT
     10820**DCL     11201>>ASSIGN
B_SEGREF_PAGE_SIZE
     10823**DCL     11202>>ASSIGN
B_SREF_COUNT
     10711**DCL     11197>>ASSIGN
B_SREF_PAGE_SIZE
     10714**DCL     11198>>ASSIGN
OUHEAD$
     10258**DCL     10260--IMP-PTR 11010<<ASSIGN  11011>>ASSIGN  11012>>ASSIGN  11013>>ASSIGN  11170<<ASSIGN
     11171>>ASSIGN  11172>>ASSIGN  11173>>ASSIGN  11174>>ASSIGN  11175>>ASSIGN  11182>>ASSIGN  11184>>ASSIGN
     11185>>ASSIGN  11186>>ASSIGN  11187>>ASSIGN  11188>>ASSIGN  11189>>ASSIGN  11190>>ASSIGN  11191>>ASSIGN
     11192>>ASSIGN  11193>>ASSIGN  11194>>ASSIGN  11195>>ASSIGN  11196>>ASSIGN  11197>>ASSIGN  11198>>ASSIGN
     11199>>ASSIGN  11200>>ASSIGN  11201>>ASSIGN  11202>>ASSIGN
PL6.E3A0      #017=XUO$HEADSTART File=XUO$BUILD.:E05TSI                          WED 07/30/97 09:32 Page:500
P_NAME.SIZE
     10216**DCL     10217--IMP-SIZ 11080>>ASSIGN  11081>>ASSIGN
P_NAME.TEXT
     10217**DCL     11081>>ASSIGN
P_OFFSET
     10223**DCL        71--PROC    11013>>ASSIGN
P_OPERAND
     10222**DCL        71--PROC    11012>>ASSIGN
P_OPERAND_TYPE
     10211**DCL     11011>>ASSIGN
P_PARAM1
     10207**DCL        71--PROC    10211--REDEF   10215--REDEF   10221--REDEF   11076--ENTRY   11137--ENTRY
P_SEVERITY
     10221**DCL     11142>>IF      11143>>ASSIGN
XUO_COMPILER_ID
     10981**DCL     11173>>ASSIGN
XUO_MAXIMUM_SEVERITY
     10986**DCL     11142>>IF      11143<<ASSIGN  11175>>ASSIGN
XUO_OU_UTS
     10985**DCL     11171>>ASSIGN
XUO_SCHEMA_REQUIRED
     10980**DCL     11181>>IF
XUO_VERSION_NUMBER
     10982**DCL     11174>>ASSIGN
XUO_WORDSIZE
     10987**DCL     11172>>ASSIGN

PL6.E3A0      #018=XUO$OUTERM File=XUO$BUILD.:E05TSI                             WED 07/30/97 09:33 Page:501
     4088        1        /*M*     XUO$OUTERM -- THIS MODULE WILL FINISH WRITING OUT THE OBJECT UNIT*/
     4089        2        /*T***********************************************************/
     4090        3        /*T*                                                         */
     4091        4        /*T* Copyright (c) Bull HN Information Systems Inc., 1997    */
     4092        5        /*T*                                                         */
     4093        6        /*T***********************************************************/
     4094        7        /*P*
     4095        8
     4096        9        NAME:  XUO$OUTERM
     4097       10        XUO$OUTERM --Terminate object unit building
     4098       11
     4099       12        PURPOSE:  To terminate object unit generation.
     4100       13
     4101       14        DESCRIPTION:  This routine terminates object unit generation.
     4102       15            Any partially filled records will be written.  This
     4103       16            routine will call XUO$LOGBLKTERM to fill in the
     4104       17            Logical Block Record and write it out.  It will
     4105       18            then call XUO$HEADTERM to fill in the head record
     4106       19            and write it out.  The object unit is now complete.
     4107       20            XUO$OUCLOSE is called to close the current object
     4108       21            unit file if the OU Close Required Flag was set
     4109       22            in the initial call to XUO$INIT.  At this time
     4110       23            all the space for object unit buffers is released
     4111       24            back to the system.
     4112       25
     4113       26        */
     4114       27        /*D*
     4115       28
     4116       29        CALL:  CALL XUO$OUTERM    ALTRET (Label)
     4117       30
     4118       31        INPUT:  none
     4119       32
     4120       33        OUTPUT:  completed object unit
     4121       34
     4122       35        B$OBJECT REFERENCE:
     4123       36            B$DNAME
     4124       37            B$EDEF
PL6.E3A0      #018=XUO$OUTERM File=XUO$BUILD.:E05TSI                             WED 07/30/97 09:33 Page:502
     4125       38            B$EREF
     4126       39            B$SDEF
     4127       40            B$SREF
     4128       41            B$SEGDEF
     4129       42            B$SEGREF
     4130       43            B$INTNTRY
     4131       44            B$EXST
     4132       45            B$VREBL
     4133       46        */
     4134       47        /*B*
     4135       48
     4136       49        GLOBAL DATA:
     4137       50            B_DNAME_BASE$
     4138       51            B_DNAME_CUR$
     4139       52            B_RNAME_BASE$
     4140       53            B_RNAME_CUR$
     4141       54            B_DBGNAME_BASE$
     4142       55            B_DBGNAME_CUR$
     4143       56            B_EDEF_BASE$
     4144       57            B_EDEF_CUR$
     4145       58            B_EREF_BASE$
     4146       59            B_EREF_CUR$
     4147       60            B_SDEF_BASE$
     4148       61            B_SDEF_CUR$
     4149       62            B_SREF_BASE$
     4150       63            B_SREF_CUR$
     4151       64            B_SEGDEF_BASE$
     4152       65            B_SEGDEF_CUR$
     4153       66            B_SEGREF_BASE$
     4154       67            B_SEGREF_CUR$
     4155       68            B_PROGRAM_BASE$
     4156       69            B_INTNTRY_BASE$
     4157       70            B_INTNTRY_CUR$
     4158       71            B_EXST_BASE$
     4159       72            B_EXST_CUR$
     4160       73            B_VREBL_BASE$
     4161       74            B_VREBL_CUR$
PL6.E3A0      #018=XUO$OUTERM File=XUO$BUILD.:E05TSI                             WED 07/30/97 09:33 Page:503
     4162       75
     4163       76        INTERFACE:
     4164       77            XUO$OUWRITE
     4165       78            XUO$LOGBLKTERM
     4166       79            XUO$HEADTERM
     4167       80            XUO$PURGE_BUFFERS
     4168       81
     4169       82        */
     4170       83
     4171       84        XUO$OUTERM: PROC;
     4172       85         /*
     4173       86            */
     4174       87        %INCLUDE ZVA_SYSTEM_FILE;
     4175     6338        %PAGE (ARG=INCLUDES);

              6351    1   /*******************************************************************************
              6352    1   *                                                                              *
              6353    1   *        INCLUDES              INCLUDES                                            *
              6354    1   *                                                                              *
              6355    1   *******************************************************************************/

     4176     6359        %INCLUDE B$OBJECT_C;
     4177     9789        %INCLUDE XUO$OBJ_C;
     4178    10199        %PAGE (ARG=SUBS);

             10212    1   /*******************************************************************************
             10213    1   *                                                                              *
             10214    1   *        SUBS              SUBS                                                  *
             10215    1   *                                                                              *
             10216    1   *******************************************************************************/

     4179    10220        %B$RECORDSUBS;
     4180    10248        %B_MULTIBUF_VARS;
     4181    10275        %PLIST;
     4182    10276        %PAGE (ARG=RECORD POINTERS);

             10289    1   /*******************************************************************************
PL6.E3A0      #018=XUO$OUTERM File=XUO$BUILD.:E05TSI                             WED 07/30/97 09:33 Page:504
             10290    1   *                                                                              *
             10291    1   *        RECORD POINTERS              RECORD POINTERS                              *
             10292    1   *                                                                              *
             10293    1   *******************************************************************************/

     4183    10297        %B_DNAME_POINTERS;
     4184    10317        %B_RNAME_POINTERS;
     4185    10337        %B_DBGNAME_POINTERS;
     4186    10357        %B_SECTION_POINTERS;
     4187    10376        %B_EDEF_POINTERS;
     4188    10396        %B_EREF_POINTERS;
     4189    10416        %B_SDEF_POINTERS;
     4190    10436        %B_SREF_POINTERS;
     4191    10456        %B_SEGDEF_POINTERS;
     4192    10476        %B_SEGREF_POINTERS;
     4193    10496        %B_PROGRAM_POINTERS;
     4194    10511        %B_RELOCATION_POINTERS;
     4195    10526        %B_LOGBLK_POINTERS;
     4196    10548        %B_INTNTRY_POINTERS;
     4197    10568        %B_EXST_POINTERS;
     4198    10588        %B_VREBL_POINTERS;
     4199    10608        %PLIST;
     4200    10609        %PAGE (ARG=ENTRY DCLS);

             10622    1   /*******************************************************************************
             10623    1   *                                                                              *
             10624    1   *        ENTRY DCLS              ENTRY DCLS                                        *
             10625    1   *                                                                              *
             10626    1   *******************************************************************************/

     4201    10630    1   DCL XUO$OUWRITE ENTRY(2);
     4202    10631    1   DCL XUO$OUCLOSE ENTRY;
     4203    10632    1   DCL XUO$LOGBLKTERM ENTRY ALTRET;
     4204    10633    1   DCL XUO$HEADTERM ENTRY;
     4205    10634    1   DCL XUO$PURGE_BUFFERS ENTRY (2) ALTRET;
     4206    10635    1   DCL I UBIN;
     4207    10636        %PAGE (ARG=FPTS);
PL6.E3A0      #018=XUO$OUTERM File=XUO$BUILD.:E05TSI                             WED 07/30/97 09:33 Page:505

             10649    1   /*******************************************************************************
             10650    1   *                                                                              *
             10651    1   *        FPTS              FPTS                                                  *
             10652    1   *                                                                              *
             10653    1   *******************************************************************************/

     4208    10657        %FPT_FDS (FPTN=XUO_OU_GDS_FDS,STCLASS=SYMREF);
     4209    10672        %PAGE(ARG=ERROR_DATA);

             10685    1   /*******************************************************************************
             10686    1   *                                                                              *
             10687    1   *        ERROR_DATA              ERROR_DATA                                        *
             10688    1   *                                                                              *
             10689    1   *******************************************************************************/

     4210    10693        %B$TCB;
     4211    10696        %B$ALT;
     4212    10704
     4213    10705    1   DCL B$TCB$ PTR SYMREF;
     4214    10706
     4215    10707    1   DCL ERROR BIT(36);
     4216    10708
     4217    10709    1   DCL XUO_ERROR_ROUTINE EPTR SYMREF;
     4218    10710
     4219    10711        %PAGE (ARG=CODE);

             10724    1   /*******************************************************************************
             10725    1   *                                                                              *
             10726    1   *        CODE              CODE                                                  *
             10727    1   *                                                                              *
             10728    1   *******************************************************************************/

     4220    10732         /*
     4221    10733         The following code checks to determine if there are any partial records
     4222    10734         that need to be dumped.  If so, they are written out.  In addition,
     4223    10735         the section and logical block and head records are written.
PL6.E3A0      #018=XUO$OUTERM File=XUO$BUILD.:E05TSI                             WED 07/30/97 09:33 Page:506
     4224    10736         */
     4225    10737    1       IF B_DNAME_CUR$>B_DNAME_BASE$ THEN
     4226    10738    1           CALL XUO$OUWRITE(%TYPDNAM);
     4227    10739    1       IF B_RNAME_CUR$>B_RNAME_BASE$ THEN
     4228    10740    1           CALL XUO$OUWRITE (%TYPRNAM);
     4229    10741    1       IF B_SECTION_CUR$>B_SECTION_BASE$ THEN
     4230    10742    1           CALL XUO$OUWRITE(%TYPSECT);
     4231    10743    1       IF B_EDEF_CUR$>B_EDEF_BASE$ THEN
     4232    10744    1           CALL XUO$OUWRITE(%TYPEDEF);
     4233    10745    1       IF B_EREF_CUR$>B_EREF_BASE$ THEN
     4234    10746    1           CALL XUO$OUWRITE(%TYPEREF);
     4235    10747    1       IF B_SDEF_CUR$>B_SDEF_BASE$ THEN
     4236    10748    1           CALL XUO$OUWRITE(%TYPSDEF);
     4237    10749    1       IF B_SREF_CUR$>B_SREF_BASE$ THEN
     4238    10750    1           CALL XUO$OUWRITE(%TYPSREF);
     4239    10751    1       IF B_SEGDEF_CUR$>B_SEGDEF_BASE$ THEN
     4240    10752    1           CALL XUO$OUWRITE(%TYPSEGDEF);
     4241    10753    1       IF B_SEGREF_CUR$>B_SEGREF_BASE$ THEN
     4242    10754    1           CALL XUO$OUWRITE(%TYPSEGREF);
     4243    10755    2       DO I = 0 TO B_NUMBER_OF_SECTIONS;
     4244    10756    2           CALL XUO$PURGE_BUFFERS (%TYPPROG, I);
     4245    10757    2           END;
     4246    10758    1       IF B_INTNTRY_CUR$>B_INTNTRY_BASE$ THEN
     4247    10759    1           CALL XUO$OUWRITE(%TYPINTNTRY);
     4248    10760    1       IF B_EXST_CUR$>B_EXST_BASE$ THEN
     4249    10761    1           CALL XUO$OUWRITE(%TYPEXST);
     4250    10762    1       IF B_VREBL_CUR$>B_VREBL_BASE$ THEN
     4251    10763    1           CALL XUO$OUWRITE(%TYPVREBL);
     4252    10764    1       IF B_DBGNAME_CUR$>B_DBGNAME_BASE$ THEN
     4253    10765    1           CALL XUO$OUWRITE(%TYPDBGNAM);
     4254    10766         /*
     4255    10767         Must make sure that the logical block has all the
     4256    10768         sizes filled in, therefore call XUO$LOGBLKTERM.
     4257    10769         Only if we have added an entry.
     4258    10770         */
     4259    10771    1       IF B_LOGBLK_COUNT>=0 THEN
     4260    10772    2       DO;
PL6.E3A0      #018=XUO$OUTERM File=XUO$BUILD.:E05TSI                             WED 07/30/97 09:33 Page:507
     4261    10773    2           CALL XUO$LOGBLKTERM;
     4262    10774    2           CALL XUO$OUWRITE(%TYPLOGBLK);
     4263    10775    2           END;
     4264    10776         /*
     4265    10777            */
     4266    10778         /*
     4267    10779         We now have everything written out except the head record.
     4268    10780         Treat the head record as type 0.
     4269    10781         */
     4270    10782    1       CALL XUO$HEADTERM;
     4271    10783    1       CALL XUO$OUWRITE(0);
     4272    10784         /*
     4273    10785         Make the object unit complete by closing it
     4274    10786         */
     4275    10787    1       CALL XUO$OUCLOSE;
     4276    10788         /*
     4277    10789         Now free up all the space reserved for the ou
     4278    10790         */
     4279    10791    1       CALL M$FDS (XUO_OU_GDS_FDS) ALTRET(SPACE_ERROR);
     4280    10792    1       RETURN;
     4281    10793
     4282    10794            %PAGE(ARG=ERRORS);

             10807    1   /*******************************************************************************
             10808    1   *                                                                              *
             10809    1   *        ERRORS              ERRORS                                                *
             10810    1   *                                                                              *
             10811    1   *******************************************************************************/

     4283    10815
     4284    10816    1   SPACE_ERROR: ;
     4285    10817    1       IF XUO_ERROR_ROUTINE~=ENTADDR(NIL) THEN
     4286    10818    2       DO;
     4287    10819    2           ERROR=B$TCB$->B$TCB.ALT$->B$ALT.ERR;
     4288    10820    2           CALL XUO_ERROR_ROUTINE(ERROR);
     4289    10821    2           END;
     4290    10822
PL6.E3A0      #018=XUO$OUTERM File=XUO$BUILD.:E05TSI                             WED 07/30/97 09:33 Page:508
     4291    10823    1       RETURN;
     4292    10824
     4293    10825    1   END XUO$OUTERM;
     4294    10826        %EOD;

PL6.E3A0      #018=XUO$OUTERM File=XUO$BUILD.:E05TSI                             WED 07/30/97 09:33 Page:509
--  Include file information  --

   XUO$OBJ_C.:E05TOU  is referenced.
   B$OBJECT_C.:E05TOU  is referenced.
   CP_6_SUBS.:E05TOU  is referenced.
   CP_6_C.:E05TOU  is referenced.
   CP_6.:E05TOU  cannot be made into a system file and is referenced.
   ZVA_FLAGS.:TOOLE04  is referenced.
   ZVA_SYSTEM_FILE.:TOOLE04  is referenced.
      No diagnostics issued in procedure XUO$OUTERM.

   Procedure XUO$OUTERM requires 148 words for executable code.
   Procedure XUO$OUTERM requires 8 words of local(AUTO) storage.

PL6.E3A0      #018=XUO$OUTERM File=XUO$BUILD.:E05TSI                             WED 07/30/97 09:33 Page:510

 Object Unit name= XUO$OUTERM                                 File name= XUO$BUILD.:E05TOU
 UTS= JUL 30 '97 09:33:09.20 WED                              Compiler= PL-6/E31         Sev=      00
 SharedLib= :SHARED_SYSTEM                                    Alt SharedLib=


    ****  Control sections  ****

 Sect   Type Bound  Init  Size OctSiz  Section name(segment info)
    0   DCB   even  none     0      0  M$UC
    1   Proc  even  none   148    224  XUO$OUTERM
    2  RoData even  none    20     24  XUO$OUTERM

    ****  Entry defs  ****

                              Check   Calling
                             calling  sequence
  Sect OctLoc Primary Altret sequence   type   Parms  Name
     1      0   yes            yes      Std        0  XUO$OUTERM

  ****  Entry refs  ****

         Check        Calling
        calling       sequence
Altret sequence SRef   type   Args  Name
         yes           Std       2 XUO$OUWRITE
 yes     yes           Std       0 XUO$LOGBLKTERM
         yes           Std       0 XUO$OUCLOSE
 yes     yes           Std       2 XUO$PURGE_BUFFERS
         yes           Std       0 XUO$HEADTERM
                       nStd      0 X66_AUTO_0
                       Std       0 B_CONSPOOL_D
                       nStd      0 X66_ARET
PL6.E3A0      #018=XUO$OUTERM File=XUO$BUILD.:E05TSI                             WED 07/30/97 09:33 Page:511

  ****  Data refs  ****

  Flags:  r = read only, s = secondary
Flgs Name                             Flgs Name                             Flgs Name
     M$UC                                  PTR2_SECTION_ARRAY$                   B_NUMBER_OF_SECTIONS
     B_DNAME_BASE$                         B_DNAME_CUR$                          B_RNAME_BASE$
     B_RNAME_CUR$                          B_DBGNAME_BASE$                       B_DBGNAME_CUR$
     B_SECTION_BASE$                       B_SECTION_CUR$                        B_EDEF_BASE$
     B_EDEF_CUR$                           B_EREF_BASE$                          B_EREF_CUR$
     B_SDEF_BASE$                          B_SDEF_CUR$                           B_SREF_BASE$
     B_SREF_CUR$                           B_SEGDEF_BASE$                        B_SEGDEF_CUR$
     B_SEGREF_BASE$                        B_SEGREF_CUR$                         B_LOGBLK_COUNT
     B_INTNTRY_BASE$                       B_INTNTRY_CUR$                        B_EXST_BASE$
     B_EXST_CUR$                           B_VREBL_BASE$                         B_VREBL_CUR$
     XUO_OU_GDS_FDS                        B$TCB$                                XUO_ERROR_ROUTINE
     B_VECTNIL

  ****  Segment refs  ****

  Flags:  r = read only, s = secondary
Flgs Name                             Flgs Name                             Flgs Name
     ISSID
PL6.E3A0      #018=XUO$OUTERM File=XUO$BUILD.:E05TSI                             WED 07/30/97 09:33 Page:512


     4088        1        /*M*     XUO$OUTERM -- THIS MODULE WILL FINISH WRITING OUT THE OBJECT UNIT*/
     4089        2        /*T***********************************************************/
     4090        3        /*T*                                                         */
     4091        4        /*T* Copyright (c) Bull HN Information Systems Inc., 1997    */
     4092        5        /*T*                                                         */
     4093        6        /*T***********************************************************/
     4094        7        /*P*
     4095        8
     4096        9        NAME:  XUO$OUTERM
     4097       10        XUO$OUTERM --Terminate object unit building
     4098       11
     4099       12        PURPOSE:  To terminate object unit generation.
     4100       13
     4101       14        DESCRIPTION:  This routine terminates object unit generation.
     4102       15            Any partially filled records will be written.  This
     4103       16            routine will call XUO$LOGBLKTERM to fill in the
     4104       17            Logical Block Record and write it out.  It will
     4105       18            then call XUO$HEADTERM to fill in the head record
     4106       19            and write it out.  The object unit is now complete.
     4107       20            XUO$OUCLOSE is called to close the current object
     4108       21            unit file if the OU Close Required Flag was set
     4109       22            in the initial call to XUO$INIT.  At this time
     4110       23            all the space for object unit buffers is released
     4111       24            back to the system.
     4112       25
     4113       26        */
     4114       27        /*D*
     4115       28
     4116       29        CALL:  CALL XUO$OUTERM    ALTRET (Label)
     4117       30
     4118       31        INPUT:  none
     4119       32
     4120       33        OUTPUT:  completed object unit
     4121       34
     4122       35        B$OBJECT REFERENCE:
     4123       36            B$DNAME
PL6.E3A0      #018=XUO$OUTERM File=XUO$BUILD.:E05TSI                             WED 07/30/97 09:33 Page:513
     4124       37            B$EDEF
     4125       38            B$EREF
     4126       39            B$SDEF
     4127       40            B$SREF
     4128       41            B$SEGDEF
     4129       42            B$SEGREF
     4130       43            B$INTNTRY
     4131       44            B$EXST
     4132       45            B$VREBL
     4133       46        */
     4134       47        /*B*
     4135       48
     4136       49        GLOBAL DATA:
     4137       50            B_DNAME_BASE$
     4138       51            B_DNAME_CUR$
     4139       52            B_RNAME_BASE$
     4140       53            B_RNAME_CUR$
     4141       54            B_DBGNAME_BASE$
     4142       55            B_DBGNAME_CUR$
     4143       56            B_EDEF_BASE$
     4144       57            B_EDEF_CUR$
     4145       58            B_EREF_BASE$
     4146       59            B_EREF_CUR$
     4147       60            B_SDEF_BASE$
     4148       61            B_SDEF_CUR$
     4149       62            B_SREF_BASE$
     4150       63            B_SREF_CUR$
     4151       64            B_SEGDEF_BASE$
     4152       65            B_SEGDEF_CUR$
     4153       66            B_SEGREF_BASE$
     4154       67            B_SEGREF_CUR$
     4155       68            B_PROGRAM_BASE$
     4156       69            B_INTNTRY_BASE$
     4157       70            B_INTNTRY_CUR$
     4158       71            B_EXST_BASE$
     4159       72            B_EXST_CUR$
     4160       73            B_VREBL_BASE$
PL6.E3A0      #018=XUO$OUTERM File=XUO$BUILD.:E05TSI                             WED 07/30/97 09:33 Page:514
     4161       74            B_VREBL_CUR$
     4162       75
     4163       76        INTERFACE:
     4164       77            XUO$OUWRITE
     4165       78            XUO$LOGBLKTERM
     4166       79            XUO$HEADTERM
     4167       80            XUO$PURGE_BUFFERS
     4168       81
     4169       82        */
     4170       83
     4171       84        XUO$OUTERM: PROC;

     84  1 000000   000000 700200 xent  XUO$OUTERM   TSX0  ! X66_AUTO_0
         1 000001   000010 000000                    ZERO    8,0

     4172       85         /*
     4173       86            */
     4174       87        %INCLUDE ZVA_SYSTEM_FILE;
     4175     6338        %PAGE (ARG=INCLUDES);

              6351    1   /*******************************************************************************
              6352    1   *                                                                              *
              6353    1   *        INCLUDES              INCLUDES                                           *
              6354    1   *                                                                              *
              6355    1   *******************************************************************************/

     4176     6359        %INCLUDE B$OBJECT_C;
     4177     9789        %INCLUDE XUO$OBJ_C;
     4178    10199        %PAGE (ARG=SUBS);

             10212    1   /*******************************************************************************
             10213    1   *                                                                              *
             10214    1   *        SUBS              SUBS                                                  *
             10215    1   *                                                                              *
             10216    1   *******************************************************************************/

     4179    10220        %B$RECORDSUBS;
PL6.E3A0      #018=XUO$OUTERM File=XUO$BUILD.:E05TSI                             WED 07/30/97 09:33 Page:515
     4180    10248        %B_MULTIBUF_VARS;
     4181    10275        %PLIST;
     4182    10276        %PAGE (ARG=RECORD POINTERS);

             10289    1   /*******************************************************************************
             10290    1   *                                                                              *
             10291    1   *        RECORD POINTERS              RECORD POINTERS                             *
             10292    1   *                                                                              *
             10293    1   *******************************************************************************/

     4183    10297        %B_DNAME_POINTERS;
     4184    10317        %B_RNAME_POINTERS;
     4185    10337        %B_DBGNAME_POINTERS;
     4186    10357        %B_SECTION_POINTERS;
     4187    10376        %B_EDEF_POINTERS;
     4188    10396        %B_EREF_POINTERS;
     4189    10416        %B_SDEF_POINTERS;
     4190    10436        %B_SREF_POINTERS;
     4191    10456        %B_SEGDEF_POINTERS;
     4192    10476        %B_SEGREF_POINTERS;
     4193    10496        %B_PROGRAM_POINTERS;
     4194    10511        %B_RELOCATION_POINTERS;
     4195    10526        %B_LOGBLK_POINTERS;
     4196    10548        %B_INTNTRY_POINTERS;
     4197    10568        %B_EXST_POINTERS;
     4198    10588        %B_VREBL_POINTERS;
     4199    10608        %PLIST;
     4200    10609        %PAGE (ARG=ENTRY DCLS);

             10622    1   /*******************************************************************************
             10623    1   *                                                                              *
             10624    1   *        ENTRY DCLS              ENTRY DCLS                                       *
             10625    1   *                                                                              *
             10626    1   *******************************************************************************/

     4201    10630    1   DCL XUO$OUWRITE ENTRY(2);
     4202    10631    1   DCL XUO$OUCLOSE ENTRY;
PL6.E3A0      #018=XUO$OUTERM File=XUO$BUILD.:E05TSI                             WED 07/30/97 09:33 Page:516
     4203    10632    1   DCL XUO$LOGBLKTERM ENTRY ALTRET;
     4204    10633    1   DCL XUO$HEADTERM ENTRY;
     4205    10634    1   DCL XUO$PURGE_BUFFERS ENTRY (2) ALTRET;
     4206    10635    1   DCL I UBIN;
     4207    10636        %PAGE (ARG=FPTS);

             10649    1   /*******************************************************************************
             10650    1   *                                                                              *
             10651    1   *        FPTS              FPTS                                                  *
             10652    1   *                                                                              *
             10653    1   *******************************************************************************/

     4208    10657        %FPT_FDS (FPTN=XUO_OU_GDS_FDS,STCLASS=SYMREF);
     4209    10672        %PAGE(ARG=ERROR_DATA);

             10685    1   /*******************************************************************************
             10686    1   *                                                                              *
             10687    1   *        ERROR_DATA              ERROR_DATA                                       *
             10688    1   *                                                                              *
             10689    1   *******************************************************************************/

     4210    10693        %B$TCB;
     4211    10696        %B$ALT;
     4212    10704
     4213    10705    1   DCL B$TCB$ PTR SYMREF;
     4214    10706
     4215    10707    1   DCL ERROR BIT(36);
     4216    10708
     4217    10709    1   DCL XUO_ERROR_ROUTINE EPTR SYMREF;
     4218    10710
     4219    10711        %PAGE (ARG=CODE);

             10724    1   /*******************************************************************************
             10725    1   *                                                                              *
             10726    1   *        CODE              CODE                                                  *
             10727    1   *                                                                              *
             10728    1   *******************************************************************************/
PL6.E3A0      #018=XUO$OUTERM File=XUO$BUILD.:E05TSI                             WED 07/30/97 09:33 Page:517

     4220    10732         /*
     4221    10733         The following code checks to determine if there are any partial records
     4222    10734         that need to be dumped.  If so, they are written out.  In addition,
     4223    10735         the section and logical block and head records are written.
     4224    10736         */
     4225    10737    1       IF B_DNAME_CUR$>B_DNAME_BASE$ THEN

  10737  1 000002   000000 236000 xsym               LDQ     B_DNAME_BASE$
         1 000003   000000 116000 xsym               CMPQ    B_DNAME_CUR$
         1 000004   000011 603000 1                  TRC     s:10739

     4226    10738    1           CALL XUO$OUWRITE(%TYPDNAM);

  10738  1 000005   000000 630400 2                  EPPR0   0
         1 000006   000017 631400 xsym               EPPR1   B_VECTNIL+15
         1 000007   000000 701000 xent               TSX1    XUO$OUWRITE
         1 000010   000000 011000                    NOP     0

     4227    10739    1       IF B_RNAME_CUR$>B_RNAME_BASE$ THEN

  10739  1 000011   000000 236000 xsym               LDQ     B_RNAME_BASE$
         1 000012   000000 116000 xsym               CMPQ    B_RNAME_CUR$
         1 000013   000020 603000 1                  TRC     s:10741

     4228    10740    1           CALL XUO$OUWRITE (%TYPRNAM);

  10740  1 000014   000001 630400 2                  EPPR0   1
         1 000015   000017 631400 xsym               EPPR1   B_VECTNIL+15
         1 000016   000000 701000 xent               TSX1    XUO$OUWRITE
         1 000017   000000 011000                    NOP     0

     4229    10741    1       IF B_SECTION_CUR$>B_SECTION_BASE$ THEN

  10741  1 000020   000000 236000 xsym               LDQ     B_SECTION_BASE$
         1 000021   000000 116000 xsym               CMPQ    B_SECTION_CUR$
         1 000022   000027 603000 1                  TRC     s:10743
PL6.E3A0      #018=XUO$OUTERM File=XUO$BUILD.:E05TSI                             WED 07/30/97 09:33 Page:518

     4230    10742    1           CALL XUO$OUWRITE(%TYPSECT);

  10742  1 000023   000002 630400 2                  EPPR0   2
         1 000024   000017 631400 xsym               EPPR1   B_VECTNIL+15
         1 000025   000000 701000 xent               TSX1    XUO$OUWRITE
         1 000026   000000 011000                    NOP     0

     4231    10743    1       IF B_EDEF_CUR$>B_EDEF_BASE$ THEN

  10743  1 000027   000000 236000 xsym               LDQ     B_EDEF_BASE$
         1 000030   000000 116000 xsym               CMPQ    B_EDEF_CUR$
         1 000031   000036 603000 1                  TRC     s:10745

     4232    10744    1           CALL XUO$OUWRITE(%TYPEDEF);

  10744  1 000032   000003 630400 2                  EPPR0   3
         1 000033   000017 631400 xsym               EPPR1   B_VECTNIL+15
         1 000034   000000 701000 xent               TSX1    XUO$OUWRITE
         1 000035   000000 011000                    NOP     0

     4233    10745    1       IF B_EREF_CUR$>B_EREF_BASE$ THEN

  10745  1 000036   000000 236000 xsym               LDQ     B_EREF_BASE$
         1 000037   000000 116000 xsym               CMPQ    B_EREF_CUR$
         1 000040   000045 603000 1                  TRC     s:10747

     4234    10746    1           CALL XUO$OUWRITE(%TYPEREF);

  10746  1 000041   000004 630400 2                  EPPR0   4
         1 000042   000017 631400 xsym               EPPR1   B_VECTNIL+15
         1 000043   000000 701000 xent               TSX1    XUO$OUWRITE
         1 000044   000000 011000                    NOP     0

     4235    10747    1       IF B_SDEF_CUR$>B_SDEF_BASE$ THEN

  10747  1 000045   000000 236000 xsym               LDQ     B_SDEF_BASE$
PL6.E3A0      #018=XUO$OUTERM File=XUO$BUILD.:E05TSI                             WED 07/30/97 09:33 Page:519
         1 000046   000000 116000 xsym               CMPQ    B_SDEF_CUR$
         1 000047   000054 603000 1                  TRC     s:10749

     4236    10748    1           CALL XUO$OUWRITE(%TYPSDEF);

  10748  1 000050   000005 630400 2                  EPPR0   5
         1 000051   000017 631400 xsym               EPPR1   B_VECTNIL+15
         1 000052   000000 701000 xent               TSX1    XUO$OUWRITE
         1 000053   000000 011000                    NOP     0

     4237    10749    1       IF B_SREF_CUR$>B_SREF_BASE$ THEN

  10749  1 000054   000000 236000 xsym               LDQ     B_SREF_BASE$
         1 000055   000000 116000 xsym               CMPQ    B_SREF_CUR$
         1 000056   000063 603000 1                  TRC     s:10751

     4238    10750    1           CALL XUO$OUWRITE(%TYPSREF);

  10750  1 000057   000006 630400 2                  EPPR0   6
         1 000060   000017 631400 xsym               EPPR1   B_VECTNIL+15
         1 000061   000000 701000 xent               TSX1    XUO$OUWRITE
         1 000062   000000 011000                    NOP     0

     4239    10751    1       IF B_SEGDEF_CUR$>B_SEGDEF_BASE$ THEN

  10751  1 000063   000000 236000 xsym               LDQ     B_SEGDEF_BASE$
         1 000064   000000 116000 xsym               CMPQ    B_SEGDEF_CUR$
         1 000065   000072 603000 1                  TRC     s:10753

     4240    10752    1           CALL XUO$OUWRITE(%TYPSEGDEF);

  10752  1 000066   000007 630400 2                  EPPR0   7
         1 000067   000017 631400 xsym               EPPR1   B_VECTNIL+15
         1 000070   000000 701000 xent               TSX1    XUO$OUWRITE
         1 000071   000000 011000                    NOP     0

     4241    10753    1       IF B_SEGREF_CUR$>B_SEGREF_BASE$ THEN
PL6.E3A0      #018=XUO$OUTERM File=XUO$BUILD.:E05TSI                             WED 07/30/97 09:33 Page:520

  10753  1 000072   000000 236000 xsym               LDQ     B_SEGREF_BASE$
         1 000073   000000 116000 xsym               CMPQ    B_SEGREF_CUR$
         1 000074   000101 603000 1                  TRC     s:10755

     4242    10754    1           CALL XUO$OUWRITE(%TYPSEGREF);

  10754  1 000075   000010 630400 2                  EPPR0   8
         1 000076   000017 631400 xsym               EPPR1   B_VECTNIL+15
         1 000077   000000 701000 xent               TSX1    XUO$OUWRITE
         1 000100   000000 011000                    NOP     0

     4243    10755    2       DO I = 0 TO B_NUMBER_OF_SECTIONS;

  10755  1 000101   200003 450100                    STZ     I,,AUTO
         1 000102   000116 710000 1                  TRA     s:10757+3

     4244    10756    2           CALL XUO$PURGE_BUFFERS (%TYPPROG, I);

  10756  1 000103   200003 630500                    EPPR0   I,,AUTO
         1 000104   200007 450500                    STP0    ERROR+3,,AUTO
         1 000105   000011 236000 2                  LDQ     9
         1 000106   200006 756100                    STQ     ERROR+2,,AUTO
         1 000107   200006 630500                    EPPR0   ERROR+2,,AUTO
         1 000110   000020 631400 xsym               EPPR1   B_VECTNIL+16
         1 000111   000000 701000 xent               TSX1    XUO$PURGE_BUFFERS
         1 000112   000000 011000                    NOP     0

     4245    10757    2           END;

  10757  1 000113   200003 235100                    LDA     I,,AUTO
         1 000114   000001 035007                    ADLA    1,DL
         1 000115   200003 755100                    STA     I,,AUTO
         1 000116   000000 236000 xsym               LDQ     B_NUMBER_OF_SECTIONS
         1 000117   200003 116100                    CMPQ    I,,AUTO
         1 000120   000103 603000 1                  TRC     s:10756

PL6.E3A0      #018=XUO$OUTERM File=XUO$BUILD.:E05TSI                             WED 07/30/97 09:33 Page:521
     4246    10758    1       IF B_INTNTRY_CUR$>B_INTNTRY_BASE$ THEN

  10758  1 000121   000000 236000 xsym               LDQ     B_INTNTRY_BASE$
         1 000122   000000 116000 xsym               CMPQ    B_INTNTRY_CUR$
         1 000123   000130 603000 1                  TRC     s:10760

     4247    10759    1           CALL XUO$OUWRITE(%TYPINTNTRY);

  10759  1 000124   000013 630400 2                  EPPR0   11
         1 000125   000017 631400 xsym               EPPR1   B_VECTNIL+15
         1 000126   000000 701000 xent               TSX1    XUO$OUWRITE
         1 000127   000000 011000                    NOP     0

     4248    10760    1       IF B_EXST_CUR$>B_EXST_BASE$ THEN

  10760  1 000130   000000 236000 xsym               LDQ     B_EXST_BASE$
         1 000131   000000 116000 xsym               CMPQ    B_EXST_CUR$
         1 000132   000137 603000 1                  TRC     s:10762

     4249    10761    1           CALL XUO$OUWRITE(%TYPEXST);

  10761  1 000133   000015 630400 2                  EPPR0   13
         1 000134   000017 631400 xsym               EPPR1   B_VECTNIL+15
         1 000135   000000 701000 xent               TSX1    XUO$OUWRITE
         1 000136   000000 011000                    NOP     0

     4250    10762    1       IF B_VREBL_CUR$>B_VREBL_BASE$ THEN

  10762  1 000137   000000 236000 xsym               LDQ     B_VREBL_BASE$
         1 000140   000000 116000 xsym               CMPQ    B_VREBL_CUR$
         1 000141   000146 603000 1                  TRC     s:10764

     4251    10763    1           CALL XUO$OUWRITE(%TYPVREBL);

  10763  1 000142   000017 630400 2                  EPPR0   15
         1 000143   000017 631400 xsym               EPPR1   B_VECTNIL+15
         1 000144   000000 701000 xent               TSX1    XUO$OUWRITE
PL6.E3A0      #018=XUO$OUTERM File=XUO$BUILD.:E05TSI                             WED 07/30/97 09:33 Page:522
         1 000145   000000 011000                    NOP     0

     4252    10764    1       IF B_DBGNAME_CUR$>B_DBGNAME_BASE$ THEN

  10764  1 000146   000000 236000 xsym               LDQ     B_DBGNAME_BASE$
         1 000147   000000 116000 xsym               CMPQ    B_DBGNAME_CUR$
         1 000150   000155 603000 1                  TRC     s:10771

     4253    10765    1           CALL XUO$OUWRITE(%TYPDBGNAM);

  10765  1 000151   000021 630400 2                  EPPR0   17
         1 000152   000017 631400 xsym               EPPR1   B_VECTNIL+15
         1 000153   000000 701000 xent               TSX1    XUO$OUWRITE
         1 000154   000000 011000                    NOP     0

     4254    10766         /*
     4255    10767         Must make sure that the logical block has all the
     4256    10768         sizes filled in, therefore call XUO$LOGBLKTERM.
     4257    10769         Only if we have added an entry.
     4258    10770         */
     4259    10771    1       IF B_LOGBLK_COUNT>=0 THEN

  10771  1 000155   000000 235000 xsym               LDA     B_LOGBLK_COUNT
         1 000156   000166 604000 1                  TMI     s:10782

     4260    10772    2       DO;

     4261    10773    2           CALL XUO$LOGBLKTERM;

  10773  1 000157   000002 631400 xsym               EPPR1   B_VECTNIL+2
         1 000160   000000 701000 xent               TSX1    XUO$LOGBLKTERM
         1 000161   000000 011000                    NOP     0

     4262    10774    2           CALL XUO$OUWRITE(%TYPLOGBLK);

  10774  1 000162   000022 630400 2                  EPPR0   18
         1 000163   000017 631400 xsym               EPPR1   B_VECTNIL+15
PL6.E3A0      #018=XUO$OUTERM File=XUO$BUILD.:E05TSI                             WED 07/30/97 09:33 Page:523
         1 000164   000000 701000 xent               TSX1    XUO$OUWRITE
         1 000165   000000 011000                    NOP     0

     4263    10775    2           END;

     4264    10776         /*
     4265    10777            */
     4266    10778         /*
     4267    10779         We now have everything written out except the head record.
     4268    10780         Treat the head record as type 0.
     4269    10781         */
     4270    10782    1       CALL XUO$HEADTERM;

  10782  1 000166   000002 631400 xsym               EPPR1   B_VECTNIL+2
         1 000167   000000 701000 xent               TSX1    XUO$HEADTERM
         1 000170   000000 011000                    NOP     0

     4271    10783    1       CALL XUO$OUWRITE(0);

  10783  1 000171   000023 630400 2                  EPPR0   19
         1 000172   000017 631400 xsym               EPPR1   B_VECTNIL+15
         1 000173   000000 701000 xent               TSX1    XUO$OUWRITE
         1 000174   000000 011000                    NOP     0

     4272    10784         /*
     4273    10785         Make the object unit complete by closing it
     4274    10786         */
     4275    10787    1       CALL XUO$OUCLOSE;

  10787  1 000175   000002 631400 xsym               EPPR1   B_VECTNIL+2
         1 000176   000000 701000 xent               TSX1    XUO$OUCLOSE
         1 000177   000000 011000                    NOP     0

     4276    10788         /*
     4277    10789         Now free up all the space reserved for the ou
     4278    10790         */
     4279    10791    1       CALL M$FDS (XUO_OU_GDS_FDS) ALTRET(SPACE_ERROR);
PL6.E3A0      #018=XUO$OUTERM File=XUO$BUILD.:E05TSI                             WED 07/30/97 09:33 Page:524

  10791  1 000200   000000 630400 xsym               EPPR0   XUO_OU_GDS_FDS
         1 000201   430002 713400                    CLIMB   alt,fds
         1 000202   400400 401760                    pmme    nvectors=2
         1 000203   000205 702000 1                  TSX2    SPACE_ERROR

     4280    10792    1       RETURN;

  10792  1 000204   000000 702200 xent               TSX2  ! X66_ARET

  10771  1 000205                       SPACE_ERROR  null
     4281    10793
     4282    10794            %PAGE(ARG=ERRORS);

             10807    1   /*******************************************************************************
             10808    1   *                                                                              *
             10809    1   *        ERRORS              ERRORS                                               *
             10810    1   *                                                                              *
             10811    1   *******************************************************************************/

     4283    10815
     4284    10816    1   SPACE_ERROR: ;
     4285    10817    1       IF XUO_ERROR_ROUTINE~=ENTADDR(NIL) THEN

  10817  1 000205   000000 236000 xsym               LDQ     XUO_ERROR_ROUTINE
         1 000206   000002 116000 xsym               CMPQ    B_VECTNIL+2
         1 000207   000223 600000 1                  TZE     s:10823

     4286    10818    2       DO;

     4287    10819    2           ERROR=B$TCB$->B$TCB.ALT$->B$ALT.ERR;

  10819  1 000210   000000 470400 xsym               LDP0    B$TCB$
         1 000211   000000 471500                    LDP1    0,,PR0
         1 000212   100102 236100                    LDQ     66,,PR1
         1 000213   200004 756100                    STQ     ERROR,,AUTO

PL6.E3A0      #018=XUO$OUTERM File=XUO$BUILD.:E05TSI                             WED 07/30/97 09:33 Page:525
     4288    10820    2           CALL XUO_ERROR_ROUTINE(ERROR);

  10820  1 000214   200004 631500                    EPPR1   ERROR,,AUTO
         1 000215   200006 451500                    STP1    ERROR+2,,AUTO
         1 000216   200006 630500                    EPPR0   ERROR+2,,AUTO
         1 000217   000000 220000 xsym               LDX0    XUO_ERROR_ROUTINE
         1 000220   000017 631400 xsym               EPPR1   B_VECTNIL+15
         1 000221   000000 701010                    TSX1    0,X0
         1 000222   000000 011000                    NOP     0

     4289    10821    2           END;

     4290    10822
     4291    10823    1       RETURN;

  10823  1 000223   000000 702200 xent               TSX2  ! X66_ARET
     4292    10824
     4293    10825    1   END XUO$OUTERM;
     4294    10826        %EOD;

PL6.E3A0      #018=XUO$OUTERM File=XUO$BUILD.:E05TSI                             WED 07/30/97 09:33 Page:526
--  Include file information  --

   XUO$OBJ_C.:E05TOU  is referenced.
   B$OBJECT_C.:E05TOU  is referenced.
   CP_6_SUBS.:E05TOU  is referenced.
   CP_6_C.:E05TOU  is referenced.
   CP_6.:E05TOU  cannot be made into a system file and is referenced.
   ZVA_FLAGS.:TOOLE04  is referenced.
   ZVA_SYSTEM_FILE.:TOOLE04  is referenced.
      No diagnostics issued in procedure XUO$OUTERM.
PL6.E3A0      #018=XUO$OUTERM File=XUO$BUILD.:E05TSI                             WED 07/30/97 09:33 Page:527

 **** Variables and constants ****

  ****  Auto variables  ****

  ****  Scalars and arrays  ****
OctLoc.c.b A Datatyp(siz) R M Lvl/name                 OctLoc.c.b A Datatyp(siz) R M Lvl/name

     4-0-0/b BIT         r     1 ERROR                      3-0-0/w UBIN        r     1 I

  ****  SYMREF variables  ****

  ****  Scalars and arrays  ****
OctLoc.c.b A Datatyp(siz) R M Lvl/name                 OctLoc.c.b A Datatyp(siz) R M Lvl/name

     0-0-0/w PTR         r     1 B$TCB$                     0-0-0/w PTR         r     1 B_DBGNAME_BASE$
     0-0-0/w PTR         r     1 B_DBGNAME_CUR$             0-0-0/w PTR         r     1 B_DNAME_BASE$
     0-0-0/w PTR         r     1 B_DNAME_CUR$               0-0-0/w PTR         r     1 B_EDEF_BASE$
     0-0-0/w PTR         r     1 B_EDEF_CUR$                0-0-0/w PTR         r     1 B_EREF_BASE$
     0-0-0/w PTR         r     1 B_EREF_CUR$                0-0-0/w PTR         r     1 B_EXST_BASE$
     0-0-0/w PTR         r     1 B_EXST_CUR$                0-0-0/w PTR         r     1 B_INTNTRY_BASE$
     0-0-0/w PTR         r     1 B_INTNTRY_CUR$             0-0-0/w SBIN        r     1 B_LOGBLK_COUNT
     0-0-0/w UBIN        r     1 B_NUMBER_OF_SECTIONS       0-0-0/w PTR         r     1 B_RNAME_BASE$
     0-0-0/w PTR         r     1 B_RNAME_CUR$               0-0-0/w PTR         r     1 B_SDEF_BASE$
     0-0-0/w PTR         r     1 B_SDEF_CUR$                0-0-0/w PTR         r     1 B_SECTION_BASE$
     0-0-0/w PTR         r     1 B_SECTION_CUR$             0-0-0/w PTR         r     1 B_SEGDEF_BASE$
     0-0-0/w PTR         r     1 B_SEGDEF_CUR$              0-0-0/w PTR         r     1 B_SEGREF_BASE$
     0-0-0/w PTR         r     1 B_SEGREF_CUR$              0-0-0/w PTR         r     1 B_SREF_BASE$
     0-0-0/w PTR         r     1 B_SREF_CUR$                0-0-0/w PTR         r     1 B_VREBL_BASE$
     0-0-0/w PTR         r     1 B_VREBL_CUR$               0-0-0/w PTR         r     1 PTR2_SECTION_ARRAY$
     0-0-0/w EPTR        r     1 XUO_ERROR_ROUTINE          0-0-0/d STRC(216)   r     1 XUO_OU_GDS_FDS

  ****  BASED and DCB variables  ****

  ****  Scalars and arrays  ****
OctLoc.c.b A Datatyp(siz) R M Lvl/name                 OctLoc.c.b A Datatyp(siz) R M Lvl/name

     0-0-0/w STRC(2448)  r     1 B$ALT                      0-0-0/w STRC(144)   r     1 B$TCB
PL6.E3A0      #018=XUO$OUTERM File=XUO$BUILD.:E05TSI                             WED 07/30/97 09:33 Page:528


   Procedure XUO$OUTERM requires 148 words for executable code.
   Procedure XUO$OUTERM requires 8 words of local(AUTO) storage.
PL6.E3A0      #018=XUO$OUTERM File=XUO$BUILD.:E05TSI                             WED 07/30/97 09:33 Page:529
          *** CROSS REFERENCE LISTING ***
**     DENOTES     IDENTIFIER DEFINITION
<<                 IDENTIFIER'S VALUE SET
>>                 IDENTIFIER'S VALUE USED
<>                 IDENTIFIER SET AND/OR USED
--                 IDENTIFIER REFERENCED
PL6.E3A0      #018=XUO$OUTERM File=XUO$BUILD.:E05TSI                             WED 07/30/97 09:33 Page:530
          MINI XREF LISTING

B$ALT.CODE
     10698**DCL     10698--REDEF   10699--REDEF   10699--REDEF
B$ALT.ERR
     10699**DCL     10819>>ASSIGN
B$ALT.ERR.ERR#
     10700**DCL     10700--REDEF
B$ALT.EVID
     10699**DCL     10699--REDEF   10699--REDEF
B$TCB.ALT$
     10694**DCL     10819>>ASSIGN
B$TCB$
     10705**DCL     10819>>ASSIGN
B_DBGNAME_BASE$
     10349**DCL     10764>>IF
B_DBGNAME_CUR$
     10350**DCL     10764>>IF
B_DNAME_BASE$
     10309**DCL     10737>>IF
B_DNAME_CUR$
     10310**DCL     10737>>IF
B_EDEF_BASE$
     10388**DCL     10743>>IF
B_EDEF_CUR$
     10389**DCL     10743>>IF
B_EREF_BASE$
     10408**DCL     10745>>IF
B_EREF_CUR$
     10409**DCL     10745>>IF
B_EXST_BASE$
     10580**DCL     10760>>IF
B_EXST_CUR$
     10581**DCL     10760>>IF
PL6.E3A0      #018=XUO$OUTERM File=XUO$BUILD.:E05TSI                             WED 07/30/97 09:33 Page:531
B_INTNTRY_BASE$
     10560**DCL     10758>>IF
B_INTNTRY_CUR$
     10561**DCL     10758>>IF
B_LOGBLK_COUNT
     10543**DCL     10771>>IF
B_NUMBER_OF_SECTIONS
     10263**DCL     10755>>DOINDEX
B_RNAME_BASE$
     10329**DCL     10739>>IF
B_RNAME_CUR$
     10330**DCL     10739>>IF
B_SDEF_BASE$
     10428**DCL     10747>>IF
B_SDEF_CUR$
     10429**DCL     10747>>IF
B_SECTION_BASE$
     10369**DCL     10741>>IF
B_SECTION_CUR$
     10370**DCL     10741>>IF
B_SEGDEF_BASE$
     10468**DCL     10751>>IF
B_SEGDEF_CUR$
     10469**DCL     10751>>IF
B_SEGREF_BASE$
     10488**DCL     10753>>IF
B_SEGREF_CUR$
     10489**DCL     10753>>IF
B_SREF_BASE$
     10448**DCL     10749>>IF
B_SREF_CUR$
     10449**DCL     10749>>IF
B_VREBL_BASE$
     10600**DCL     10762>>IF
B_VREBL_CUR$
     10601**DCL     10762>>IF
PL6.E3A0      #018=XUO$OUTERM File=XUO$BUILD.:E05TSI                             WED 07/30/97 09:33 Page:532
ERROR
     10707**DCL     10819<<ASSIGN  10820<>CALL
I
     10635**DCL     10755<<DOINDEX 10756<>CALL
M$FDS
      5633**DCL-ENT 10791--CALL
PTR2_SECTION_ARRAY$
     10262**DCL     10265--IMP-PTR
SPACE_ERROR
     10771**LABEL   10791--CALLALT
XUO$HEADTERM
     10633**DCL-ENT 10782--CALL
XUO$LOGBLKTERM
     10632**DCL-ENT 10773--CALL
XUO$OUCLOSE
     10631**DCL-ENT 10787--CALL
XUO$OUWRITE
     10630**DCL-ENT 10738--CALL    10740--CALL    10742--CALL    10744--CALL    10746--CALL    10748--CALL
     10750--CALL    10752--CALL    10754--CALL    10759--CALL    10761--CALL    10763--CALL    10765--CALL
     10774--CALL    10783--CALL
XUO$PURGE_BUFFERS
     10634**DCL-ENT 10756--CALL
XUO_ERROR_ROUTINE
     10709**DCL     10817>>IF      10820>>CALL
XUO_OU_GDS_FDS
     10668**DCL     10791<>CALL

PL6.E3A0      #019=XUO$OUWRITE File=XUO$BUILD.:E05TSI                            WED 07/30/97 09:33 Page:533
     4295        1        /*M*     XUO$OUWRITE - THIS MODULE OPENS, WRITES, AND CLOSES THE OBJECT UNIT*/
     4296        2        /*T***********************************************************/
     4297        3        /*T*                                                         */
     4298        4        /*T* Copyright (c) Bull HN Information Systems Inc., 1997    */
     4299        5        /*T*                                                         */
     4300        6        /*T***********************************************************/
     4301        7        /*P*     NAME:     XUO$OUWRITE
     4302        8                 PURPOSE:  THIS MODULE WILL PERFORM THE OPEN OF THE OBJECT UNIT
     4303        9                      FILE, WRITE OUT ALL RECORDS AND CLOSE THE OBJECT UNIT
     4304       10                      FILE.  IF A LO LISTING/DATA MAP IS REQUIRED AND NO
     4305       11                      GO FILE IS SPECIFIED AN OBJECT UNIT WILL BE WRITTEN TO
     4306       12                      A DUMMY FILE.
     4307       13                 DESCRIPTION:   THIS MODULE HAS THREE ENTRY POINTS WHICH ARE:
     4308       14                      1.   XUO$OUOPEN
     4309       15                      2.   XUO$OUWRITE
     4310       16                      3.   XUO$CLOSE
     4311       17                           IF AN I/O ERROR IS ENCOUNTERED, THE OU,LO,DMAP OPTIONS
     4312       18                      WILL BE TURNED OFF.
     4313       19        */
     4314       20        /*D*     NAME:     XUO$OUWRITE
     4315       21                 ENTRY POINT:   XUO$OUOPEN
     4316       22                      INPUT:
     4317       23                           NONE
     4318       24                      OUTPUT:
     4319       25                           OPEN DCB
     4320       26                 ENTRY POINT:   XUO$OUWRITE
     4321       27                      INPUT:
     4322       28                           P_RECORD_TYPE
     4323       29                           P_SECTION_NUMBER
     4324       30                           B_DNAME_BASE$
     4325       31                           B_DNAME_CUR$
     4326       32                           B_DNAME_PAGE
     4327       33                           B_RNAME_BASE$
     4328       34                           B_RNAME_CUR$
     4329       35                           B_RNAME_PAGE
     4330       36                           B_DBGNAME_BASE$
     4331       37                           B_DBGNAME_CUR$
PL6.E3A0      #019=XUO$OUWRITE File=XUO$BUILD.:E05TSI                            WED 07/30/97 09:33 Page:534
     4332       38                           B_DBGNAME_PAGE
     4333       39                           B_SECTION_BASE$
     4334       40                           B_SECTION_CUR$
     4335       41                           B_EDEF_BASE$
     4336       42                           B_EDEF_CUR$
     4337       43                           B_EDEF_PAGE
     4338       44                           B_EREF_BASE$
     4339       45                           B_EREF_CUR$
     4340       46                           B_EREF_PAGE
     4341       47                           B_SDEF_BASE$
     4342       48                           B_SDEF_CUR$
     4343       49                           B_SDEF_PAGE
     4344       50                           B_SREF_BASE$
     4345       51                           B_SREF_CUR$
     4346       52                           B_SREF_PAGE
     4347       53                           B_SEGDEF_BASE$
     4348       54                           B_SEGDEF_CUR$
     4349       55                           B_SEGREF_BASE$
     4350       56                           B_SEGREF_CUR$
     4351       57                           B_SEGREF_PAGE
     4352       58                           B_LOGBLK_BASE$
     4353       59                           B_LOGBLK_CUR$
     4354       60                           B_LOGBLK_PAGE
     4355       61                           B_INTNTRY_BASE$
     4356       62                           B_INTNTRY_CUR$
     4357       63                           B_INTNTRY_PAGE
     4358       64                           B_EXST_BASE$
     4359       65                           B_EXST_CUR$
     4360       66                           B_EXST_PAGE
     4361       67                           B_VREBL_BASE$
     4362       68                           B_VREBL_CUR$
     4363       69                           B_VREBL_PAGE
     4364       70                      OUTPUT:
     4365       71                           WRITTEN RECORD
     4366       72                 ENTRY POINT:   XUO$OUCLOSE
     4367       73                      INPUT:
     4368       74                           NONE
PL6.E3A0      #019=XUO$OUWRITE File=XUO$BUILD.:E05TSI                            WED 07/30/97 09:33 Page:535
     4369       75                      OUTPUT:
     4370       76                           CLOSED DCB
     4371       77                 DESCRIPTION:
     4372       78                           THE XUO$OUOPEN ROUTINE WILL DETERMINE IF THE
     4373       79                      OBJECT UNIT IS TO BE OPENED.  IF A DCB NUMBER
     4374       80                      WAS SPECIFIED, THE IT IS ASSUMED THAT THE CALLER
     4375       81                      WANTED TO WRITE AN OU.  IF ANY ERRORS OCCUR WHILE
     4376       82                      TRYING TO OPEN THE DCB OR NOT-HANDLED BY THE WRITE
     4377       83                      ROUTINE, THE OU DCB WILL BE CLOSED IF SPECIFIED
     4378       84                      BY THE CALLER.
     4379       85                           IF THE NO DEBUG OPTION IS SPECIFIED THEN
     4380       86                      ALL RECORDS WITH A RECORD TYPE GREATER THAN
     4381       87                      PROGRAM/RELOCATION (10) WILL NOT BE WRITTEN.
     4382       88                           THE XUO$OUWRITE ROUTINE WILL CHECK TO SEE IF
     4383       89                      A WRITE IS REQUIRED.  IF NOT A RETURN WILL BE MADE IMMEDIATELY.
     4384       90                      THE APPROPRIATE RECORD WILL THEN BE WRITTEN.  THE ONLY
     4385       91                      I/O ERROR THAT CAN OCCUR IS ON A RELOCATION RECORD WHERE
     4386       92                      A DUPLICATE KEY EXISTS.  IN THAT CASE THE SEQUENTIAL
     4387       93                      PART OF THE KEY IS UPDATED AND THE RECORD WRITTEN UNTIL
     4388       94                      A VALID WRITE OCCURS.  THEN THE APPROPRIATE BUFFER
     4389       95                      IS ZEROED OUT WITH THE EXCEPTION OF PROGRAM RECORDS WHICH
     4390       96                      ARE SET TO THE UTS VALUE.
     4391       97                           THE XUO$OUCLOSE ROUTINE WILL CLOSE THE OBJECT UNIT,
     4392       98                      IF REQUIRED.
     4393       99                           IF ANY ERRORS ARE ENCOUNTED THAT ARE NOT HANDLELED
     4394      100                      BY THE ROUTINE, AN ATTEMPT WILL BE MADE TO CALL THE
     4395      101                      CALLERS ERROR ROUTINE, IF SPECIFIED.
     4396      102        */
     4397      103        XUO$OUWRITE: PROC(P_RECORD_TYPE,P_SECTION_NUMBER);
     4398      104         /*
     4399      105            */
     4400      106        %INCLUDE ZVA_SYSTEM_FILE;
     4401     6357        %PAGE (ARG=INCLUDES);

              6370    1   /*******************************************************************************
              6371    1   *                                                                              *
              6372    1   *        INCLUDES              INCLUDES                                            *
PL6.E3A0      #019=XUO$OUWRITE File=XUO$BUILD.:E05TSI                            WED 07/30/97 09:33 Page:536
              6373    1   *                                                                              *
              6374    1   *******************************************************************************/

     4402     6378        %INCLUDE B$OBJECT_C;
     4403     9808        %INCLUDE XUO$OBJ_C;
     4404    10218        %INCLUDE XU_PERR_C;
     4405    10409        %INCLUDE B_ERRORS_C;
     4406    11536        %INCLUDE XUM_ENTRIES_C;
     4407    11556        %XUM_ENTRIES;
     4408    11565        %PAGE (ARG=SUBS);

             11578    1   /*******************************************************************************
             11579    1   *                                                                              *
             11580    1   *        SUBS              SUBS                                                  *
             11581    1   *                                                                              *
             11582    1   *******************************************************************************/

     4409    11586        %B$RECORDSUBS;
     4410    11614        %PLIST;
     4411    11615        %PAGE (ARG=RECORD POINTERS);

             11628    1   /*******************************************************************************
             11629    1   *                                                                              *
             11630    1   *        RECORD POINTERS              RECORD POINTERS                              *
             11631    1   *                                                                              *
             11632    1   *******************************************************************************/

     4412    11636        %B_DNAME_POINTERS;
     4413    11656        %B_RNAME_POINTERS;
     4414    11676        %B_DBGNAME_POINTERS;
     4415    11696        %B_SECTION_POINTERS;
     4416    11715        %B_EDEF_POINTERS;
     4417    11735        %B_EREF_POINTERS;
     4418    11755        %B_SDEF_POINTERS;
     4419    11775        %B_SREF_POINTERS;
     4420    11795        %B_SEGDEF_POINTERS;
     4421    11815        %B_SEGREF_POINTERS;
PL6.E3A0      #019=XUO$OUWRITE File=XUO$BUILD.:E05TSI                            WED 07/30/97 09:33 Page:537
     4422    11835        %B_PROGRAM_POINTERS;
     4423    11850        %B_RELOCATION_POINTERS;
     4424    11865        %B_LOGBLK_POINTERS;
     4425    11887        %B_INTNTRY_POINTERS;
     4426    11907        %B_EXST_POINTERS;
     4427    11927        %B_VREBL_POINTERS;
     4428    11947        %PLIST;
     4429    11948        %PAGE (ARG=KEY DEFINTIONS);

             11961    1   /*******************************************************************************
             11962    1   *                                                                              *
             11963    1   *        KEY DEFINTIONS              KEY DEFINTIONS                                *
             11964    1   *                                                                              *
             11965    1   *******************************************************************************/

     4430    11969        %B$OUKEY (STCLASS=SYMREF,KEYSIZINIT=,NOTHDINIT=);
     4431    12005        %B$PRGRELKEY (NAME=B$RELKEY,STCLASS="BASED(B$RELKEY$)",KEYSIZINIT=,NOTHDINIT=,
             12005            TYPEINIT=);
     4432    12036    1   DCL B$RELKEY$ PTR SYMREF;
     4433    12037    1   DCL B$PRGKEY$ PTR SYMREF;
     4434    12038        %B$PRGRELKEY (NAME=B$PRGKEY,STCLASS="BASED(B$PRGKEY$)",KEYSIZINIT=,NOTHDINIT=,
             12038            TYPEINIT=);
     4435    12069    1   DCL RELKEY$ PTR;
     4436    12070        %PLIST;
     4437    12071        %PAGE (ARG=HEAD DATA);

             12084    1   /*******************************************************************************
             12085    1   *                                                                              *
             12086    1   *        HEAD DATA              HEAD DATA                                          *
             12087    1   *                                                                              *
             12088    1   *******************************************************************************/

     4438    12092    1   DCL B$OUHEAD$ PTR SYMREF;
     4439    12093        %B$OUHEAD (STCLASS="BASED(B$OUHEAD$)");
     4440    12211        %IF ~GCOS;
     4441    12212        %B$OUHEAD (NAME=OLD_HEAD_RECORD, STCLASS=AUTO);
     4442    12330        %B$OUKEY (NAME=FIRST_RECORD, STCLASS=AUTO, KEYSIZINIT=" ", NOTHDINIT=" ");
PL6.E3A0      #019=XUO$OUWRITE File=XUO$BUILD.:E05TSI                            WED 07/30/97 09:33 Page:538
     4443    12366        %B$OUKEY (NAME=LAST_RECORD, STCLASS=AUTO, KEYSIZINIT=" ", NOTHDINIT=" ");
     4444    12402        %VLP_ERRCODE (FPTN=PRGM_RECORD_CONFLICT, STCLASS=CONSTANT,
     4445    12403         FCG=XU,MID=O,ERR#=%E$XUO#PRGM_RECORD_CONFLICT, SEV=4);
     4446    12448        %VLP_ERRCODE (FPTN=RELOC_RECORD_CONFLICT, STCLASS=CONSTANT,
     4447    12449         FCG=XU,MID=O,ERR#=%E$XUO#RELOC_RECORD_CONFLICT, SEV=4);
     4448    12494        %VLP_ERRCODE (FPTN=ILLEGAL_OU_ASSIGNMENT, STCLASS=CONSTANT,
     4449    12495         FCG=XU,MID=O,ERR#=%E$XUO#ILLEGAL_OU_ASSIGNMENT, SEV=4);
     4450    12540        %ENDIF;
     4451    12541        %PLIST;
     4452    12542        %PAGE (ARG=FPTS);

             12555    1   /*******************************************************************************
             12556    1   *                                                                              *
             12557    1   *        FPTS              FPTS                                                  *
             12558    1   *                                                                              *
             12559    1   *******************************************************************************/

     4453    12563         /*
     4454    12564            The following fpt is to open the file
     4455    12565            */
     4456    12566    1   DCL XUO_OU_OPEN$ PTR SYMREF;
     4457    12567        %FPT_OPEN (FPTN=XUO_OU_OPEN,STCLASS="BASED(XUO_OU_OPEN$)");
     4458    12676         /*
     4459    12677         The following fpts are to write the file
     4460    12678            */
     4461    12679    1   DCL XUO_HEAD_WRITE$ PTR SYMREF;
     4462    12680        %FPT_WRITE (FPTN=XUO_HEAD_WRITE,STCLASS="BASED(XUO_HEAD_WRITE$)");
     4463    12711    1   DCL XUO_OU_WRITE$ PTR SYMREF;
     4464    12712        %FPT_WRITE (FPTN=XUO_OU_WRITE,STCLASS="BASED(XUO_OU_WRITE$)");
     4465    12743        %FPT_WRITE (FPTN=XUO_PROGRAM_WRITE,STCLASS="BASED(XUO_PROGRAM_WRITE$)");
     4466    12774        %FPT_READ (FPTN=CLEAN_READ, STCLASS=CONSTANT, KEYS=YES);
     4467    12813        %FPT_READ (FPTN=READ_OLD_HEAD, STCLASS=AUTO);
     4468    12852        %FPT_DELREC (FPTN=CLEAN_DELETE, STCLASS=CONSTANT);
     4469    12871        %FPT_DELREC (FPTN=DELETE_OLD, STCLASS=AUTO);
     4470    12890        %IF ~GCOS;
     4471    12891        %ENDIF;
     4472    12892    1   DCL XUO_PROGRAM_WRITE$ PTR SYMREF;
PL6.E3A0      #019=XUO$OUWRITE File=XUO$BUILD.:E05TSI                            WED 07/30/97 09:33 Page:539
     4473    12893        %FPT_WRITE (FPTN=XUO_RELOCATION_WRITE,STCLASS="BASED(XUO_RELOCATION_WRITE$)");
     4474    12924    1   DCL XUO_RELOCATION_WRITE$ PTR SYMREF;
     4475    12925         /*
     4476    12926            The following fpt is to cose the file
     4477    12927            */
     4478    12928    1   DCL XUO_OU_CLOSE$ PTR SYMREF;
     4479    12929        %FPT_CLOSE (FPTN=XUO_OU_CLOSE,STCLASS="BASED(XUO_OU_CLOSE$)");
     4480    12971        %PAGE (ARG=PARAMETERS);

             12984    1   /*******************************************************************************
             12985    1   *                                                                              *
             12986    1   *        PARAMETERS              PARAMETERS                                        *
             12987    1   *                                                                              *
             12988    1   *******************************************************************************/

     4481    12992    1   DCL P_RECORD_TYPE UBIN;
     4482    12993    1   DCL P_SECTION_NUMBER UBIN;
     4483    12994        %PAGE (ARG=LOCAL DATA);

             13007    1   /*******************************************************************************
             13008    1   *                                                                              *
             13009    1   *        LOCAL DATA              LOCAL DATA                                        *
             13010    1   *                                                                              *
             13011    1   *******************************************************************************/

     4484    13015    1   DCL SECTION_NUMBER UBIN;
     4485    13016    1   DCL BOUND_TEMP UBIN;
     4486    13017    1   DCL BUF_TEMP$ PTR;
     4487    13018    1   DCL PAGE_TEMP UBIN;
     4488    13019    1   DCL RELOCATION_ERROR_FLAG BIT(1);
     4489    13020        %PAGE (ARG=TCB);

             13033    1   /*******************************************************************************
             13034    1   *                                                                              *
             13035    1   *        TCB              TCB                                                  *
             13036    1   *                                                                              *
             13037    1   *******************************************************************************/
PL6.E3A0      #019=XUO$OUWRITE File=XUO$BUILD.:E05TSI                            WED 07/30/97 09:33 Page:540

     4490    13041        %B$TCB;
     4491    13044        %B$ALT;
     4492    13052    1   DCL B$TCB$ PTR SYMREF;
     4493    13053         /**/
     4494    13054    1   DCL 1 ERROR,
     4495    13055    1         2 FCG_MID BIT(18),
     4496    13056    1         2 MON BIT(1),
     4497    13057    1         2 CODE UBIN(14) UNAL,
     4498    13058    1         2 SEV UBIN(3) UNAL;
     4499    13059         /**/
     4500    13060        %PAGE (ARG=BASED DATA);

             13073    1   /*******************************************************************************
             13074    1   *                                                                              *
             13075    1   *        BASED DATA              BASED DATA                                        *
             13076    1   *                                                                              *
             13077    1   *******************************************************************************/

     4501    13081    1   DCL 1 OU_CLEAR BASED(BUF_TEMP$),
     4502    13082    1         2 * CHAR(BOUND_TEMP);
     4503    13083        %F$DCB;
     4504    13140        %B_MULTIBUF_VARS;
     4505    13167        %PAGE (ARG=MISC DATA);

             13180    1   /*******************************************************************************
             13181    1   *                                                                              *
             13182    1   *        MISC DATA              MISC DATA                                          *
             13183    1   *                                                                              *
             13184    1   *******************************************************************************/

     4506    13188    1   DCL XUO_OU_DCB_NUMBER SBIN SYMREF;
     4507    13189    1   DCL XUO_OU_UTS UBIN SYMREF;
     4508    13190    1   DCL XUO_OU_WRITE_REQUIRED BIT(1) SYMREF;
     4509    13191    1   DCL XUO_SCHEMA_REQUIRED BIT(1) ALIGNED SYMREF;
     4510    13192    1   DCL XUO_ERROR_ROUTINE EPTR SYMREF;
     4511    13193    1   DCL XUO_CLOSE_REQUIRED BIT(1) ALIGNED SYMREF;
PL6.E3A0      #019=XUO$OUWRITE File=XUO$BUILD.:E05TSI                            WED 07/30/97 09:33 Page:541
     4512    13194        %PAGE (ARG=CODE);

             13207    1   /*******************************************************************************
             13208    1   *                                                                              *
             13209    1   *        CODE              CODE                                                  *
             13210    1   *                                                                              *
             13211    1   *******************************************************************************/

     4513    13215         /*
     4514    13216            Check to see if we need to do a write
     4515    13217            */
     4516    13218    1       IF XUO_OU_WRITE_REQUIRED='0'B THEN
     4517    13219    1           RETURN;
     4518    13220         /**/
     4519    13221    1       IF ADDR(P_SECTION_NUMBER)=ADDR(NIL) THEN
     4520    13222    1           SECTION_NUMBER=0;
     4521    13223    1       ELSE
     4522    13224    1           SECTION_NUMBER=P_SECTION_NUMBER;
     4523    13225    2       DO CASE(P_RECORD_TYPE);
     4524    13226    2       CASE(0);
     4525    13227         /*
     4526    13228         The following handles the case of the head record
     4527    13229         */
     4528    13230    2           XUO_HEAD_WRITE.V.NEWKEY# = '1'B;
     4529    13231    2           XUO_HEAD_WRITE.V.ONEWKEY# = '0'B;
     4530    13232        %IF GCOS;
     4531    13233 C              CALL M$WRITE (XUO_HEAD_WRITE) ALTRET (WRITE_ERROR);
     4532    13234        %ELSE;
     4533    13235    2   WRITE_HEAD: CALL M$WRITE (XUO_HEAD_WRITE) ALTRET (HEAD_WRITE_ALTRET);
     4534    13236    2           RETURN;
     4535    13237    2   HEAD_WRITE_ALTRET: IF B$TCB$ -> B$TCB.ALT$ -> B$ALT.ERR.CODE ~= %E$OLDREC
     4536    13238    2           THEN GOTO WRITE_ERROR;
     4537    13239    2           XUO_HEAD_WRITE.V.NEWKEY# = '0'B;
     4538    13240    2           XUO_HEAD_WRITE.V.ONEWKEY# = '1'B;
     4539    13241    2           READ_OLD_HEAD = CLEAN_READ;
     4540    13242    2           READ_OLD_HEAD.V_ = VECTOR(READ_OLD_HEAD.V);
     4541    13243    2           READ_OLD_HEAD.V.DCB# = XUO_OU_DCB_NUMBER;
PL6.E3A0      #019=XUO$OUWRITE File=XUO$BUILD.:E05TSI                            WED 07/30/97 09:33 Page:542
     4542    13244    2           READ_OLD_HEAD.BUF_ = VECTOR (OLD_HEAD_RECORD);
     4543    13245    2           READ_OLD_HEAD.KEY_ = XUO_HEAD_WRITE.KEY_;
     4544    13246    2           OLD_HEAD_RECORD.UTS = B$OUHEAD.UTS /* just in case */;
     4545    13247    2           CALL M$READ (READ_OLD_HEAD) ALTRET (WRITE_HEAD);
     4546    13248    2           CALL M$WRITE (XUO_HEAD_WRITE) ALTRET (WRITE_ERROR);
     4547    13249    2           IF B$OUHEAD.UTS ~= OLD_HEAD_RECORD.UTS
     4548    13250    3           THEN DO;
     4549    13251    3               FIRST_RECORD.KEYSIZ = 5;
     4550    13252    3               FIRST_RECORD.NOTHD = '777'O;
     4551    13253    3               FIRST_RECORD.UTS = OLD_HEAD_RECORD.UTS;
     4552    13254    3               LAST_RECORD.KEYSIZ = 7;
     4553    13255    3               LAST_RECORD.NOTHD = '777'O;
     4554    13256    3               LAST_RECORD.UTS = OLD_HEAD_RECORD.UTS;
     4555    13257    3               LAST_RECORD.TYPE = 255;
     4556    13258    3               LAST_RECORD.PAGE = 255;
     4557    13259    3               DELETE_OLD = CLEAN_DELETE;
     4558    13260    3               DELETE_OLD.V_ = VECTOR(DELETE_OLD.V);
     4559    13261    3               DELETE_OLD.V.DCB# = XUO_OU_DCB_NUMBER;
     4560    13262    3               DELETE_OLD.KEY_ = VECTOR(FIRST_RECORD);
     4561    13263    3               DELETE_OLD.LKEY_ = VECTOR(LAST_RECORD);
     4562    13264    3               CALL M$DELREC (DELETE_OLD) ALTRET (IGNORE_DELREC_ALTRET);
     4563    13265    3   IGNORE_DELREC_ALTRET: END;
     4564    13266        %ENDIF;
     4565    13267    2           RETURN;
     4566    13268    2       CASE(%TYPDNAM);
     4567    13269    2           BOUND_TEMP=POFFC(B_DNAME_CUR$,B_DNAME_BASE$);
     4568    13270    2           BUF_TEMP$=B_DNAME_BASE$;
     4569    13271    2           PAGE_TEMP=B_DNAME_PAGE;
     4570    13272    2       CASE(%TYPRNAM);
     4571    13273    2           BOUND_TEMP=POFFC(B_RNAME_CUR$,B_RNAME_BASE$);
     4572    13274    2           BUF_TEMP$=B_RNAME_BASE$;
     4573    13275    2           PAGE_TEMP=B_RNAME_PAGE;
     4574    13276    2       CASE(%TYPSECT);
     4575    13277    2           BOUND_TEMP=POFFC(B_SECTION_CUR$,B_SECTION_BASE$);
     4576    13278    2           BUF_TEMP$=B_SECTION_BASE$;
     4577    13279    2           PAGE_TEMP=0;
     4578    13280    2       CASE(%TYPEDEF);
PL6.E3A0      #019=XUO$OUWRITE File=XUO$BUILD.:E05TSI                            WED 07/30/97 09:33 Page:543
     4579    13281    2           BOUND_TEMP=POFFC(B_EDEF_CUR$,B_EDEF_BASE$);
     4580    13282    2           BUF_TEMP$=B_EDEF_BASE$;
     4581    13283    2           PAGE_TEMP=B_EDEF_PAGE;
     4582    13284    2       CASE(%TYPEREF);
     4583    13285    2           BOUND_TEMP=POFFC(B_EREF_CUR$,B_EREF_BASE$);
     4584    13286    2           BUF_TEMP$=B_EREF_BASE$;
     4585    13287    2           PAGE_TEMP=B_EREF_PAGE;
     4586    13288    2       CASE(%TYPSDEF);
     4587    13289    2           BOUND_TEMP=POFFC(B_SDEF_CUR$,B_SDEF_BASE$);
     4588    13290    2           BUF_TEMP$=B_SDEF_BASE$;
     4589    13291    2           PAGE_TEMP=B_SDEF_PAGE;
     4590    13292    2       CASE(%TYPSREF);
     4591    13293    2           BOUND_TEMP=POFFC(B_SREF_CUR$,B_SREF_BASE$);
     4592    13294    2           BUF_TEMP$=B_SREF_BASE$;
     4593    13295    2           PAGE_TEMP=B_SREF_PAGE;
     4594    13296    2       CASE(%TYPSEGDEF);
     4595    13297    2           BOUND_TEMP=POFFC(B_SEGDEF_CUR$,B_SEGDEF_BASE$);
     4596    13298    2           BUF_TEMP$=B_SEGDEF_BASE$;
     4597    13299    2           PAGE_TEMP=B_SEGDEF_PAGE;
     4598    13300    2       CASE(%TYPSEGREF);
     4599    13301    2           BOUND_TEMP=POFFC(B_SEGREF_CUR$,B_SEGREF_BASE$);
     4600    13302    2           BUF_TEMP$=B_SEGREF_BASE$;
     4601    13303    2           PAGE_TEMP=B_SEGREF_PAGE;
     4602    13304    2       CASE(%TYPPROG);
     4603    13305
     4604    13306    2           B$PRGKEY.OFFSET = SECTION_ARRAY.BUF_OFFSET (SECTION_NUMBER);
     4605    13307    2           B$PRGKEY.SECTNUM = SECTION_NUMBER;
     4606    13308
     4607    13309    2           BOUND_TEMP = SECTION_ARRAY.PROGRAM_CURS(SECTION_NUMBER) *4;
     4608    13310    2           BUF_TEMP$ =SECTION_ARRAY.PTR2_PROGRAM_BUF$(SECTION_NUMBER);
     4609    13311    2           XUO_PROGRAM_WRITE.BUF_.BOUND = BOUND_TEMP - 1;
     4610    13312    2           XUO_PROGRAM_WRITE.BUF_.BUF$ = BUF_TEMP$;
     4611    13313    2           CALL M$WRITE (XUO_PROGRAM_WRITE) ALTRET(WRITE_ERROR);
     4612    13314    2           OU_CLEAR='0'B;
     4613    13315
     4614    13316    2           RETURN;
     4615    13317    2       CASE(%TYPLOGBLK);
PL6.E3A0      #019=XUO$OUWRITE File=XUO$BUILD.:E05TSI                            WED 07/30/97 09:33 Page:544
     4616    13318    2           BOUND_TEMP=POFFC(B_LOGBLK_CUR$,B_LOGBLK_ENTRY0$);
     4617    13319    2           BUF_TEMP$=B_LOGBLK_ENTRY0$;
     4618    13320    2           PAGE_TEMP=B_LOGBLK_PAGE;
     4619    13321    2       CASE(%TYPINTNTRY);
     4620    13322    2           BOUND_TEMP=POFFC(B_INTNTRY_CUR$,B_INTNTRY_BASE$);
     4621    13323    2           BUF_TEMP$=B_INTNTRY_BASE$;
     4622    13324    2           PAGE_TEMP=B_INTNTRY_PAGE;
     4623    13325    2       CASE(%TYPEXST);
     4624    13326    2           BOUND_TEMP=POFFC(B_EXST_CUR$,B_EXST_BASE$);
     4625    13327    2           BUF_TEMP$=B_EXST_BASE$;
     4626    13328    2           PAGE_TEMP=B_EXST_PAGE;
     4627    13329    2       CASE(%TYPVREBL);
     4628    13330    2           BOUND_TEMP=POFFC(B_VREBL_CUR$,B_VREBL_BASE$);
     4629    13331    2           BUF_TEMP$=B_VREBL_BASE$;
     4630    13332    2           PAGE_TEMP=B_VREBL_PAGE;
     4631    13333    2       CASE(%TYPDBGNAM);
     4632    13334    2           BOUND_TEMP=POFFC(B_DBGNAME_CUR$,B_DBGNAME_BASE$);
     4633    13335    2           BUF_TEMP$=B_DBGNAME_BASE$;
     4634    13336    2           PAGE_TEMP=B_DBGNAME_PAGE;
     4635    13337    2       CASE(16);
     4636    13338         /*
     4637    13339            Handles relocation records
     4638    13340            */
     4639    13341    2           B$RELKEY.OFFSET = SECTION_ARRAY.BUF_OFFSET (SECTION_NUMBER);
     4640    13342    2           B$RELKEY.SECTNUM = SECTION_NUMBER;
     4641    13343
     4642    13344    2           BOUND_TEMP = SECTION_ARRAY.RELOCATION_CURS(SECTION_NUMBER)
     4643    13345    2              * 4;
     4644    13346    2           BUF_TEMP$ = SECTION_ARRAY.PTR2_RELOCATION_BUF$(SECTION_NUMBER);
     4645    13347    2           XUO_RELOCATION_WRITE.BUF_.BOUND = BOUND_TEMP - 1;
     4646    13348    2           XUO_RELOCATION_WRITE.BUF_.BUF$ = BUF_TEMP$;
     4647    13349         /*
     4648    13350         May get altret which is valid due to two keys the same.  If that
     4649    13351         happens  must use sequence field and bump key size.
     4650    13352         */
     4651    13353    2           CALL M$WRITE (XUO_RELOCATION_WRITE) ALTRET(XUO_RELOCATION_WRITE_ERROR);
     4652    13354    2           OU_CLEAR='0'B;
PL6.E3A0      #019=XUO$OUWRITE File=XUO$BUILD.:E05TSI                            WED 07/30/97 09:33 Page:545
     4653    13355    2           RETURN;
     4654    13356    2           END;
     4655    13357         /*
     4656    13358         The following handles all records except head,program and relocation records.
     4657    13359         NOTE: The record area is zeroed after the write.
     4658    13360         */
     4659    13361    1       XUO_OU_WRITE.BUF_.BOUND=BOUND_TEMP-1;
     4660    13362    1       XUO_OU_WRITE.BUF_.BUF$=BUF_TEMP$;
     4661    13363    1       B$OUKEY.TYPE=P_RECORD_TYPE;
     4662    13364    1       B$OUKEY.PAGE=PAGE_TEMP;
     4663    13365         /*
     4664    13366            If no debug was specified dont
     4665    13367            output any debug records.
     4666    13368            NOTE:  It is not the most
     4667    13369            efficient place to check but is
     4668    13370            is the most reliable.  The overhead
     4669    13371            to build the debug records should
     4670    13372            be minimal.  If not, the person
     4671    13373            calling the routines that build them
     4672    13374            need not call them.
     4673    13375            */
     4674    13376    1       IF NOT (XUO_SCHEMA_REQUIRED='0'B AND P_RECORD_TYPE>10) THEN
     4675    13377    1           CALL M$WRITE (XUO_OU_WRITE) ALTRET(WRITE_ERROR);
     4676    13378    1       OU_CLEAR='0'B;
     4677    13379    1       RETURN;
     4678    13380            %PAGE (ARG=ERRORS);

             13393    1   /*******************************************************************************
             13394    1   *                                                                              *
             13395    1   *        ERRORS              ERRORS                                                *
             13396    1   *                                                                              *
             13397    1   *******************************************************************************/

     4679    13401         /*
     4680    13402         The following handles the case of an error on writeing ou
     4681    13403         */
     4682    13404    1   WRITE_ERROR: ;
PL6.E3A0      #019=XUO$OUWRITE File=XUO$BUILD.:E05TSI                            WED 07/30/97 09:33 Page:546
     4683    13405         /*
     4684    13406         The following will return the error code
     4685    13407         to the appropriate routine.
     4686    13408         Further i/o will be inhibited;  if
     4687    13409         the "close DCB" flag is set, a default
     4688    13410         close will be performed.
     4689    13411            */
     4690    13412    1       XUO_OU_WRITE_REQUIRED='0'B;
     4691    13413    1       IF XUO_ERROR_ROUTINE~=ENTADDR(NIL) THEN
     4692    13414    2       DO;
     4693    13415    2           ERROR=B$TCB$->B$TCB.ALT$->B$ALT.ERR;
     4694    13416        %IF CP6;
     4695    13417    2           IF P_RECORD_TYPE = %TYPPROG
     4696    13418    2              AND B$TCB$ -> B$TCB.ALT$ -> B$ALT.ERR.CODE = %E$OLDREC
     4697    13419    2           THEN
     4698    13420    2               CALL XUO_ERROR_ROUTINE (PRGM_RECORD_CONFLICT);
     4699    13421    2           ELSE
     4700    13422         %ENDIF;
     4701    13423    2               CALL XUO_ERROR_ROUTINE (ERROR);
     4702    13424        /*E*  ERROR:   XUO-E$XUO#PRGM_RECORD_CONFLICT
     4703    13425              MESSAGE:A fatal error has occurred while building an object unit.  An attempt
     4704    13426                      has been made to output two "program record" values for the
     4705    13427                      same location in some control section.  This is not permitted,
     4706    13428                      and has resulted in a file-management error.
     4707    13429
     4708    13430                      Note that this error can occur only if the "trust me!" flag was
     4709    13431                      set on the call to XUO$INIT;  otherwise, a "locations are being
     4710    13432                      written in nonascending order" error would have been reported
     4711    13433                      at some earlier time.  Trust is such a fragile thing...
     4712    13434        */
     4713    13435    2           END;
     4714    13436    1       IF XUO_CLOSE_REQUIRED THEN
     4715    13437    1           CALL M$CLOSE (XUO_OU_CLOSE) ALTRET(IGNORE_CLOSE_ERROR);
     4716    13438    1   IGNORE_CLOSE_ERROR: ;
     4717    13439    1       RETURN;
     4718    13440         /*
     4719    13441            */
PL6.E3A0      #019=XUO$OUWRITE File=XUO$BUILD.:E05TSI                            WED 07/30/97 09:33 Page:547
     4720    13442    1   XUO_RELOCATION_WRITE_ERROR: ;
     4721    13443         /*
     4722    13444         Check to see if relocation record with the same key exists. If so,
     4723    13445         it is not an error.
     4724    13446         NOTE: Flag is zero on entry.
     4725    13447         */
     4726    13448    1       IF B$TCB$->B$TCB.ALT$->B$ALT.ERR.CODE=%E$OLDREC THEN
     4727    13449         /*
     4728    13450         Handle the case of the error being a record exists
     4729    13451         */
     4730    13452    2       DO;
     4731    13453    2           IF B$RELKEY.KEYSIZ=11 THEN
     4732    13454    2               B$RELKEY.KEYSIZ=12;
     4733    13455        %IF CP6;
     4734    13456    2           IF B$RELKEY.SEQUENCE = 511
     4735    13457    3           THEN DO;
     4736    13458    3               IF XUO_ERROR_ROUTINE ~= ENTADDR(NIL)
     4737    13459    3               THEN
     4738    13460    3                   CALL XUO_ERROR_ROUTINE (RELOC_RECORD_CONFLICT);
     4739    13461        /*E*  ERROR:   XUO-E$XUO#RELOC_RECORD_CONFLICT
     4740    13462              MESSAGE:A fatal error has occurred while building an object unit.  An
     4741    13463                      attempt has been made to write more than 512 relocation records at
     4742    13464                      one location within a control section.  This error suggests that
     4743    13465                      an error may exist in the compiler/translator being used.
     4744    13466        */
     4745    13467    3               XUO_OU_WRITE_REQUIRED = '0'B;
     4746    13468    3               IF XUO_CLOSE_REQUIRED
     4747    13469    3               THEN
     4748    13470    3                   CALL M$CLOSE (XUO_OU_CLOSE) ALTRET (IGNORE_CLOSE_ERROR);
     4749    13471    3               RETURN;
     4750    13472    3               END;
     4751    13473        %ENDIF;
     4752    13474    2           B$RELKEY.SEQUENCE=B$RELKEY.SEQUENCE+1;
     4753    13475    2           CALL M$WRITE (XUO_RELOCATION_WRITE) ALTRET(XUO_RELOCATION_WRITE_ERROR);
     4754    13476    2           B$RELKEY.KEYSIZ=11;
     4755    13477    2           B$RELKEY.SEQUENCE=0;
     4756    13478    2           OU_CLEAR='0'B;
PL6.E3A0      #019=XUO$OUWRITE File=XUO$BUILD.:E05TSI                            WED 07/30/97 09:33 Page:548
     4757    13479    2           RETURN;
     4758    13480    2           END;
     4759    13481    1       ELSE
     4760    13482         /*
     4761    13483         Indicate an error other than duplicate key.
     4762    13484         */
     4763    13485    1           GOTO WRITE_ERROR;
     4764    13486            %PAGE (ARG=XUO$OUOPEN);

             13499    1   /*******************************************************************************
             13500    1   *                                                                              *
             13501    1   *        XUO$OUOPEN              XUO$OUOPEN                                        *
             13502    1   *                                                                              *
             13503    1   *******************************************************************************/

     4765    13507    1   XUO$OUOPEN: ENTRY;
     4766    13508         /*
     4767    13509            The following sees if the
     4768    13510            ou file is to be output.  If not
     4769    13511            the file is not opened.
     4770    13512            */
     4771    13513    1       IF XUO_OU_DCB_NUMBER=DCBNUMNIL THEN
     4772    13514    1           RETURN;
     4773    13515        %IF CP6;
     4774    13516    1       IF DCBADDR(XUO_OU_DCB_NUMBER) -> F$DCB.ASN# ~= %FILE#
     4775    13517    1          AND (DCBADDR(XUO_OU_DCB_NUMBER) -> F$DCB.ASN# ~= %DEVICE# OR
     4776    13518    1          DCBADDR(XUO_OU_DCB_NUMBER) -> F$DCB.RES# ~= 'NO')
     4777    13519    2       THEN DO;
     4778    13520    2           IF XUO_ERROR_ROUTINE ~= ENTADDR(NIL)
     4779    13521    2           THEN
     4780    13522    2               CALL XUO_ERROR_ROUTINE (ILLEGAL_OU_ASSIGNMENT);
     4781    13523        /*E*  ERROR:   XUO-E$XUO#ILLEGAL_OU_ASSIGNMENT
     4782    13524              MESSAGE: An attempt has been made to create an object unit on some device
     4783    13525                       or medium that cannot be used in this way.  While it is possible
     4784    13526                       to store object units on tape once they have been created, all
     4785    13527                       object units must be initially built as CP-6 keyed disk files.
     4786    13528                       The only other "device" to which your object-unit DCB may be
PL6.E3A0      #019=XUO$OUWRITE File=XUO$BUILD.:E05TSI                            WED 07/30/97 09:33 Page:549
     4787    13529                       assigned is the "NO" device (the trashcan).
     4788    13530        */
     4789    13531    2           XUO_OU_WRITE_REQUIRED = %NO#;
     4790    13532    2           XUO_CLOSE_REQUIRED = %NO#;
     4791    13533    2           RETURN;
     4792    13534    2           END;
     4793    13535        %ENDIF;
     4794    13536    1       IF XUO_CLOSE_REQUIRED
     4795    13537         %IF ~GCOS;
     4796    13538    1          OR NOT DCBADDR(XUO_OU_DCB_NUMBER) -> F$DCB.FCD#
     4797    13539         %ENDIF;
     4798    13540    1       THEN
     4799    13541    1           CALL M$OPEN(XUO_OU_OPEN) ALTRET(XUO_OU_OPEN_ERROR);
     4800    13542    1       XUO_OU_WRITE_REQUIRED='1'B;
     4801    13543    1       RETURN;
     4802    13544         /*
     4803    13545         The following handles the case of an error on the open of
     4804    13546         the ou/oulo file.
     4805    13547         XUO_OU_OPEN_ERROR* ;
     4806    13548         */
     4807    13549    1   XUO_OU_OPEN_ERROR: ;
     4808    13550    1       IF XUO_ERROR_ROUTINE~=ENTADDR(NIL) THEN
     4809    13551    2       DO;
     4810    13552    2           ERROR=B$TCB$->B$TCB.ALT$->B$ALT.ERR;
     4811    13553    2           CALL XUO_ERROR_ROUTINE(ERROR);
     4812    13554    2           END;
     4813    13555    1       RETURN;
     4814    13556            %PAGE (ARG=XUO$OUCLOSE);

             13569    1   /*******************************************************************************
             13570    1   *                                                                              *
             13571    1   *        XUO$OUCLOSE              XUO$OUCLOSE                                      *
             13572    1   *                                                                              *
             13573    1   *******************************************************************************/

     4815    13577    1   XUO$OUCLOSE: ENTRY;
     4816    13578         /*
PL6.E3A0      #019=XUO$OUWRITE File=XUO$BUILD.:E05TSI                            WED 07/30/97 09:33 Page:550
     4817    13579            See if need to do anything
     4818    13580         NOTE: Do not close lo FILE...IT will be closed later
     4819    13581         */
     4820    13582    1       IF XUO_OU_WRITE_REQUIRED='1'B AND XUO_CLOSE_REQUIRED='1'B THEN
     4821    13583    1           CALL M$CLOSE (XUO_OU_CLOSE) ALTRET(IGNORE_CLOSE_ERROR_1);
     4822    13584    1   IGNORE_CLOSE_ERROR_1: ;
     4823    13585    1       RETURN;
     4824    13586    1   END XUO$OUWRITE;
     4825    13587        %EOD;

PL6.E3A0      #019=XUO$OUWRITE File=XUO$BUILD.:E05TSI                            WED 07/30/97 09:33 Page:551
--  Include file information  --

   XUM_ENTRIES_C.:E05TOU  is referenced.
   B_ERRORS_C.:E05TOU  is referenced.
   XU_PERR_C.:E05TOU  is referenced.
   XUO$OBJ_C.:E05TOU  is referenced.
   B$OBJECT_C.:E05TOU  is referenced.
   CP_6_SUBS.:E05TOU  is referenced.
   CP_6_C.:E05TOU  is referenced.
   CP_6.:E05TOU  cannot be made into a system file and is referenced.
   ZVA_FLAGS.:TOOLE04  is referenced.
   ZVA_SYSTEM_FILE.:TOOLE04  is referenced.
      No diagnostics issued in procedure XUO$OUWRITE.

   Procedure XUO$OUWRITE requires 561 words for executable code.
   Procedure XUO$OUWRITE requires 72 words of local(AUTO) storage.

PL6.E3A0      #019=XUO$OUWRITE File=XUO$BUILD.:E05TSI                            WED 07/30/97 09:33 Page:552

 Object Unit name= XUO$OUWRITE                                File name= XUO$BUILD.:E05TOU
 UTS= JUL 30 '97 09:33:28.12 WED                              Compiler= PL-6/E31         Sev=      00
 SharedLib= :SHARED_SYSTEM                                    Alt SharedLib=


    ****  Control sections  ****

 Sect   Type Bound  Init  Size OctSiz  Section name(segment info)
    0   DCB   even  none     0      0  M$UC
    1  RoData even  UTS     29     35  XUO$OUWRITE
    2   Proc  even  none   561   1061  XUO$OUWRITE
    3  RoData even  none     9     11  XUO$OUWRITE

    ****  Entry defs  ****

                              Check   Calling
                             calling  sequence
  Sect OctLoc Primary Altret sequence   type   Parms  Name
     2      0   yes            yes      Std        2  XUO$OUWRITE
     2    750                  yes      Std        0  XUO$OUOPEN
     2   1046                  yes      Std        0  XUO$OUCLOSE

  ****  Entry refs  ****

         Check        Calling
        calling       sequence
Altret sequence SRef   type   Args  Name
                       nStd      0 X66_AUTO_2
                       nStd      0 X66_ARET
                       Std       0 B_CONSPOOL_D
PL6.E3A0      #019=XUO$OUWRITE File=XUO$BUILD.:E05TSI                            WED 07/30/97 09:33 Page:553

  ****  Data refs  ****

  Flags:  r = read only, s = secondary
Flgs Name                             Flgs Name                             Flgs Name
     M$UC                                  B_DNAME_BASE$                         B_DNAME_CUR$
     B_DNAME_PAGE                          B_RNAME_BASE$                         B_RNAME_CUR$
     B_RNAME_PAGE                          B_DBGNAME_BASE$                       B_DBGNAME_CUR$
     B_DBGNAME_PAGE                        B_SECTION_BASE$                       B_SECTION_CUR$
     B_EDEF_BASE$                          B_EDEF_CUR$                           B_EDEF_PAGE
     B_EREF_BASE$                          B_EREF_CUR$                           B_EREF_PAGE
     B_SDEF_BASE$                          B_SDEF_CUR$                           B_SDEF_PAGE
     B_SREF_BASE$                          B_SREF_CUR$                           B_SREF_PAGE
     B_SEGDEF_BASE$                        B_SEGDEF_CUR$                         B_SEGDEF_PAGE
     B_SEGREF_BASE$                        B_SEGREF_CUR$                         B_SEGREF_PAGE
     B_LOGBLK_ENTRY0$                      B_LOGBLK_CUR$                         B_LOGBLK_PAGE
     B_INTNTRY_BASE$                       B_INTNTRY_CUR$                        B_INTNTRY_PAGE
     B_EXST_BASE$                          B_EXST_CUR$                           B_EXST_PAGE
     B_VREBL_BASE$                         B_VREBL_CUR$                          B_VREBL_PAGE
     B$OUKEY                               B$RELKEY$                             B$PRGKEY$
     B$OUHEAD$                             XUO_OU_OPEN$                          XUO_HEAD_WRITE$
     XUO_OU_WRITE$                         XUO_PROGRAM_WRITE$                    XUO_RELOCATION_WRITE$
     XUO_OU_CLOSE$                         B$TCB$                                PTR2_SECTION_ARRAY$
     XUO_OU_DCB_NUMBER                     XUO_OU_WRITE_REQUIRED                 XUO_SCHEMA_REQUIRED
     XUO_ERROR_ROUTINE                     XUO_CLOSE_REQUIRED                    B_VECTNIL

  ****  Segment refs  ****

  Flags:  r = read only, s = secondary
Flgs Name                             Flgs Name                             Flgs Name
     ISSID                                 NULLSID                               ROSID
PL6.E3A0      #019=XUO$OUWRITE File=XUO$BUILD.:E05TSI                            WED 07/30/97 09:33 Page:554


     4295        1        /*M*     XUO$OUWRITE - THIS MODULE OPENS, WRITES, AND CLOSES THE OBJECT UNIT*/
     4296        2        /*T***********************************************************/
     4297        3        /*T*                                                         */
     4298        4        /*T* Copyright (c) Bull HN Information Systems Inc., 1997    */
     4299        5        /*T*                                                         */
     4300        6        /*T***********************************************************/
     4301        7        /*P*     NAME:     XUO$OUWRITE
     4302        8                 PURPOSE:  THIS MODULE WILL PERFORM THE OPEN OF THE OBJECT UNIT
     4303        9                      FILE, WRITE OUT ALL RECORDS AND CLOSE THE OBJECT UNIT
     4304       10                      FILE.  IF A LO LISTING/DATA MAP IS REQUIRED AND NO
     4305       11                      GO FILE IS SPECIFIED AN OBJECT UNIT WILL BE WRITTEN TO
     4306       12                      A DUMMY FILE.
     4307       13                 DESCRIPTION:   THIS MODULE HAS THREE ENTRY POINTS WHICH ARE:
     4308       14                      1.   XUO$OUOPEN
     4309       15                      2.   XUO$OUWRITE
     4310       16                      3.   XUO$CLOSE
     4311       17                           IF AN I/O ERROR IS ENCOUNTERED, THE OU,LO,DMAP OPTIONS
     4312       18                      WILL BE TURNED OFF.
     4313       19        */
     4314       20        /*D*     NAME:     XUO$OUWRITE
     4315       21                 ENTRY POINT:   XUO$OUOPEN
     4316       22                      INPUT:
     4317       23                           NONE
     4318       24                      OUTPUT:
     4319       25                           OPEN DCB
     4320       26                 ENTRY POINT:   XUO$OUWRITE
     4321       27                      INPUT:
     4322       28                           P_RECORD_TYPE
     4323       29                           P_SECTION_NUMBER
     4324       30                           B_DNAME_BASE$
     4325       31                           B_DNAME_CUR$
     4326       32                           B_DNAME_PAGE
     4327       33                           B_RNAME_BASE$
     4328       34                           B_RNAME_CUR$
     4329       35                           B_RNAME_PAGE
     4330       36                           B_DBGNAME_BASE$
PL6.E3A0      #019=XUO$OUWRITE File=XUO$BUILD.:E05TSI                            WED 07/30/97 09:33 Page:555
     4331       37                           B_DBGNAME_CUR$
     4332       38                           B_DBGNAME_PAGE
     4333       39                           B_SECTION_BASE$
     4334       40                           B_SECTION_CUR$
     4335       41                           B_EDEF_BASE$
     4336       42                           B_EDEF_CUR$
     4337       43                           B_EDEF_PAGE
     4338       44                           B_EREF_BASE$
     4339       45                           B_EREF_CUR$
     4340       46                           B_EREF_PAGE
     4341       47                           B_SDEF_BASE$
     4342       48                           B_SDEF_CUR$
     4343       49                           B_SDEF_PAGE
     4344       50                           B_SREF_BASE$
     4345       51                           B_SREF_CUR$
     4346       52                           B_SREF_PAGE
     4347       53                           B_SEGDEF_BASE$
     4348       54                           B_SEGDEF_CUR$
     4349       55                           B_SEGREF_BASE$
     4350       56                           B_SEGREF_CUR$
     4351       57                           B_SEGREF_PAGE
     4352       58                           B_LOGBLK_BASE$
     4353       59                           B_LOGBLK_CUR$
     4354       60                           B_LOGBLK_PAGE
     4355       61                           B_INTNTRY_BASE$
     4356       62                           B_INTNTRY_CUR$
     4357       63                           B_INTNTRY_PAGE
     4358       64                           B_EXST_BASE$
     4359       65                           B_EXST_CUR$
     4360       66                           B_EXST_PAGE
     4361       67                           B_VREBL_BASE$
     4362       68                           B_VREBL_CUR$
     4363       69                           B_VREBL_PAGE
     4364       70                      OUTPUT:
     4365       71                           WRITTEN RECORD
     4366       72                 ENTRY POINT:   XUO$OUCLOSE
     4367       73                      INPUT:
PL6.E3A0      #019=XUO$OUWRITE File=XUO$BUILD.:E05TSI                            WED 07/30/97 09:33 Page:556
     4368       74                           NONE
     4369       75                      OUTPUT:
     4370       76                           CLOSED DCB
     4371       77                 DESCRIPTION:
     4372       78                           THE XUO$OUOPEN ROUTINE WILL DETERMINE IF THE
     4373       79                      OBJECT UNIT IS TO BE OPENED.  IF A DCB NUMBER
     4374       80                      WAS SPECIFIED, THE IT IS ASSUMED THAT THE CALLER
     4375       81                      WANTED TO WRITE AN OU.  IF ANY ERRORS OCCUR WHILE
     4376       82                      TRYING TO OPEN THE DCB OR NOT-HANDLED BY THE WRITE
     4377       83                      ROUTINE, THE OU DCB WILL BE CLOSED IF SPECIFIED
     4378       84                      BY THE CALLER.
     4379       85                           IF THE NO DEBUG OPTION IS SPECIFIED THEN
     4380       86                      ALL RECORDS WITH A RECORD TYPE GREATER THAN
     4381       87                      PROGRAM/RELOCATION (10) WILL NOT BE WRITTEN.
     4382       88                           THE XUO$OUWRITE ROUTINE WILL CHECK TO SEE IF
     4383       89                      A WRITE IS REQUIRED.  IF NOT A RETURN WILL BE MADE IMMEDIATELY.
     4384       90                      THE APPROPRIATE RECORD WILL THEN BE WRITTEN.  THE ONLY
     4385       91                      I/O ERROR THAT CAN OCCUR IS ON A RELOCATION RECORD WHERE
     4386       92                      A DUPLICATE KEY EXISTS.  IN THAT CASE THE SEQUENTIAL
     4387       93                      PART OF THE KEY IS UPDATED AND THE RECORD WRITTEN UNTIL
     4388       94                      A VALID WRITE OCCURS.  THEN THE APPROPRIATE BUFFER
     4389       95                      IS ZEROED OUT WITH THE EXCEPTION OF PROGRAM RECORDS WHICH
     4390       96                      ARE SET TO THE UTS VALUE.
     4391       97                           THE XUO$OUCLOSE ROUTINE WILL CLOSE THE OBJECT UNIT,
     4392       98                      IF REQUIRED.
     4393       99                           IF ANY ERRORS ARE ENCOUNTED THAT ARE NOT HANDLELED
     4394      100                      BY THE ROUTINE, AN ATTEMPT WILL BE MADE TO CALL THE
     4395      101                      CALLERS ERROR ROUTINE, IF SPECIFIED.
     4396      102        */
     4397      103        XUO$OUWRITE: PROC(P_RECORD_TYPE,P_SECTION_NUMBER);

    103  2 000000   000000 700200 xent  XUO$OUWRITE  TSX0  ! X66_AUTO_2
         2 000001   000110 000002                    ZERO    72,2

     4398      104         /*
     4399      105            */
     4400      106        %INCLUDE ZVA_SYSTEM_FILE;
PL6.E3A0      #019=XUO$OUWRITE File=XUO$BUILD.:E05TSI                            WED 07/30/97 09:33 Page:557
     4401     6357        %PAGE (ARG=INCLUDES);

              6370    1   /*******************************************************************************
              6371    1   *                                                                              *
              6372    1   *        INCLUDES              INCLUDES                                           *
              6373    1   *                                                                              *
              6374    1   *******************************************************************************/

     4402     6378        %INCLUDE B$OBJECT_C;
     4403     9808        %INCLUDE XUO$OBJ_C;
     4404    10218        %INCLUDE XU_PERR_C;
     4405    10409        %INCLUDE B_ERRORS_C;
     4406    11536        %INCLUDE XUM_ENTRIES_C;
     4407    11556        %XUM_ENTRIES;
     4408    11565        %PAGE (ARG=SUBS);

             11578    1   /*******************************************************************************
             11579    1   *                                                                              *
             11580    1   *        SUBS              SUBS                                                  *
             11581    1   *                                                                              *
             11582    1   *******************************************************************************/

     4409    11586        %B$RECORDSUBS;
     4410    11614        %PLIST;
     4411    11615        %PAGE (ARG=RECORD POINTERS);

             11628    1   /*******************************************************************************
             11629    1   *                                                                              *
             11630    1   *        RECORD POINTERS              RECORD POINTERS                             *
             11631    1   *                                                                              *
             11632    1   *******************************************************************************/

     4412    11636        %B_DNAME_POINTERS;
     4413    11656        %B_RNAME_POINTERS;
     4414    11676        %B_DBGNAME_POINTERS;
     4415    11696        %B_SECTION_POINTERS;
     4416    11715        %B_EDEF_POINTERS;
PL6.E3A0      #019=XUO$OUWRITE File=XUO$BUILD.:E05TSI                            WED 07/30/97 09:33 Page:558
     4417    11735        %B_EREF_POINTERS;
     4418    11755        %B_SDEF_POINTERS;
     4419    11775        %B_SREF_POINTERS;
     4420    11795        %B_SEGDEF_POINTERS;
     4421    11815        %B_SEGREF_POINTERS;
     4422    11835        %B_PROGRAM_POINTERS;
     4423    11850        %B_RELOCATION_POINTERS;
     4424    11865        %B_LOGBLK_POINTERS;
     4425    11887        %B_INTNTRY_POINTERS;
     4426    11907        %B_EXST_POINTERS;
     4427    11927        %B_VREBL_POINTERS;
     4428    11947        %PLIST;
     4429    11948        %PAGE (ARG=KEY DEFINTIONS);

             11961    1   /*******************************************************************************
             11962    1   *                                                                              *
             11963    1   *        KEY DEFINTIONS              KEY DEFINTIONS                               *
             11964    1   *                                                                              *
             11965    1   *******************************************************************************/

     4430    11969        %B$OUKEY (STCLASS=SYMREF,KEYSIZINIT=,NOTHDINIT=);
     4431    12005        %B$PRGRELKEY (NAME=B$RELKEY,STCLASS="BASED(B$RELKEY$)",KEYSIZINIT=,NOTHDINIT=,
             12005            TYPEINIT=);
     4432    12036    1   DCL B$RELKEY$ PTR SYMREF;
     4433    12037    1   DCL B$PRGKEY$ PTR SYMREF;
     4434    12038        %B$PRGRELKEY (NAME=B$PRGKEY,STCLASS="BASED(B$PRGKEY$)",KEYSIZINIT=,NOTHDINIT=,
             12038            TYPEINIT=);
     4435    12069    1   DCL RELKEY$ PTR;
     4436    12070        %PLIST;
     4437    12071        %PAGE (ARG=HEAD DATA);

             12084    1   /*******************************************************************************
             12085    1   *                                                                              *
             12086    1   *        HEAD DATA              HEAD DATA                                         *
             12087    1   *                                                                              *
             12088    1   *******************************************************************************/

PL6.E3A0      #019=XUO$OUWRITE File=XUO$BUILD.:E05TSI                            WED 07/30/97 09:33 Page:559
     4438    12092    1   DCL B$OUHEAD$ PTR SYMREF;
     4439    12093        %B$OUHEAD (STCLASS="BASED(B$OUHEAD$)");
     4440    12211        %IF ~GCOS;
     4441    12212        %B$OUHEAD (NAME=OLD_HEAD_RECORD, STCLASS=AUTO);
     4442    12330        %B$OUKEY (NAME=FIRST_RECORD, STCLASS=AUTO, KEYSIZINIT=" ", NOTHDINIT=" ");
     4443    12366        %B$OUKEY (NAME=LAST_RECORD, STCLASS=AUTO, KEYSIZINIT=" ", NOTHDINIT=" ");
     4444    12402        %VLP_ERRCODE (FPTN=PRGM_RECORD_CONFLICT, STCLASS=CONSTANT,
     4445    12403         FCG=XU,MID=O,ERR#=%E$XUO#PRGM_RECORD_CONFLICT, SEV=4);
     4446    12448        %VLP_ERRCODE (FPTN=RELOC_RECORD_CONFLICT, STCLASS=CONSTANT,
     4447    12449         FCG=XU,MID=O,ERR#=%E$XUO#RELOC_RECORD_CONFLICT, SEV=4);
     4448    12494        %VLP_ERRCODE (FPTN=ILLEGAL_OU_ASSIGNMENT, STCLASS=CONSTANT,
     4449    12495         FCG=XU,MID=O,ERR#=%E$XUO#ILLEGAL_OU_ASSIGNMENT, SEV=4);
     4450    12540        %ENDIF;
     4451    12541        %PLIST;
     4452    12542        %PAGE (ARG=FPTS);

             12555    1   /*******************************************************************************
             12556    1   *                                                                              *
             12557    1   *        FPTS              FPTS                                                  *
             12558    1   *                                                                              *
             12559    1   *******************************************************************************/

     4453    12563         /*
     4454    12564            The following fpt is to open the file
     4455    12565            */
     4456    12566    1   DCL XUO_OU_OPEN$ PTR SYMREF;
     4457    12567        %FPT_OPEN (FPTN=XUO_OU_OPEN,STCLASS="BASED(XUO_OU_OPEN$)");
     4458    12676         /*
     4459    12677         The following fpts are to write the file
     4460    12678            */
     4461    12679    1   DCL XUO_HEAD_WRITE$ PTR SYMREF;
     4462    12680        %FPT_WRITE (FPTN=XUO_HEAD_WRITE,STCLASS="BASED(XUO_HEAD_WRITE$)");
     4463    12711    1   DCL XUO_OU_WRITE$ PTR SYMREF;
     4464    12712        %FPT_WRITE (FPTN=XUO_OU_WRITE,STCLASS="BASED(XUO_OU_WRITE$)");
     4465    12743        %FPT_WRITE (FPTN=XUO_PROGRAM_WRITE,STCLASS="BASED(XUO_PROGRAM_WRITE$)");
     4466    12774        %FPT_READ (FPTN=CLEAN_READ, STCLASS=CONSTANT, KEYS=YES);
     4467    12813        %FPT_READ (FPTN=READ_OLD_HEAD, STCLASS=AUTO);
PL6.E3A0      #019=XUO$OUWRITE File=XUO$BUILD.:E05TSI                            WED 07/30/97 09:33 Page:560
     4468    12852        %FPT_DELREC (FPTN=CLEAN_DELETE, STCLASS=CONSTANT);
     4469    12871        %FPT_DELREC (FPTN=DELETE_OLD, STCLASS=AUTO);
     4470    12890        %IF ~GCOS;
     4471    12891        %ENDIF;
     4472    12892    1   DCL XUO_PROGRAM_WRITE$ PTR SYMREF;
     4473    12893        %FPT_WRITE (FPTN=XUO_RELOCATION_WRITE,STCLASS="BASED(XUO_RELOCATION_WRITE$)");
     4474    12924    1   DCL XUO_RELOCATION_WRITE$ PTR SYMREF;
     4475    12925         /*
     4476    12926            The following fpt is to cose the file
     4477    12927            */
     4478    12928    1   DCL XUO_OU_CLOSE$ PTR SYMREF;
     4479    12929        %FPT_CLOSE (FPTN=XUO_OU_CLOSE,STCLASS="BASED(XUO_OU_CLOSE$)");
     4480    12971        %PAGE (ARG=PARAMETERS);

             12984    1   /*******************************************************************************
             12985    1   *                                                                              *
             12986    1   *        PARAMETERS              PARAMETERS                                       *
             12987    1   *                                                                              *
             12988    1   *******************************************************************************/

     4481    12992    1   DCL P_RECORD_TYPE UBIN;
     4482    12993    1   DCL P_SECTION_NUMBER UBIN;
     4483    12994        %PAGE (ARG=LOCAL DATA);

             13007    1   /*******************************************************************************
             13008    1   *                                                                              *
             13009    1   *        LOCAL DATA              LOCAL DATA                                       *
             13010    1   *                                                                              *
             13011    1   *******************************************************************************/

     4484    13015    1   DCL SECTION_NUMBER UBIN;
     4485    13016    1   DCL BOUND_TEMP UBIN;
     4486    13017    1   DCL BUF_TEMP$ PTR;
     4487    13018    1   DCL PAGE_TEMP UBIN;
     4488    13019    1   DCL RELOCATION_ERROR_FLAG BIT(1);
     4489    13020        %PAGE (ARG=TCB);

PL6.E3A0      #019=XUO$OUWRITE File=XUO$BUILD.:E05TSI                            WED 07/30/97 09:33 Page:561
             13033    1   /*******************************************************************************
             13034    1   *                                                                              *
             13035    1   *        TCB              TCB                                                  *
             13036    1   *                                                                              *
             13037    1   *******************************************************************************/

     4490    13041        %B$TCB;
     4491    13044        %B$ALT;
     4492    13052    1   DCL B$TCB$ PTR SYMREF;
     4493    13053         /**/
     4494    13054    1   DCL 1 ERROR,
     4495    13055    1         2 FCG_MID BIT(18),
     4496    13056    1         2 MON BIT(1),
     4497    13057    1         2 CODE UBIN(14) UNAL,
     4498    13058    1         2 SEV UBIN(3) UNAL;
     4499    13059         /**/
     4500    13060        %PAGE (ARG=BASED DATA);

             13073    1   /*******************************************************************************
             13074    1   *                                                                              *
             13075    1   *        BASED DATA              BASED DATA                                       *
             13076    1   *                                                                              *
             13077    1   *******************************************************************************/

     4501    13081    1   DCL 1 OU_CLEAR BASED(BUF_TEMP$),
     4502    13082    1         2 * CHAR(BOUND_TEMP);
     4503    13083        %F$DCB;
     4504    13140        %B_MULTIBUF_VARS;
     4505    13167        %PAGE (ARG=MISC DATA);

             13180    1   /*******************************************************************************
             13181    1   *                                                                              *
             13182    1   *        MISC DATA              MISC DATA                                         *
             13183    1   *                                                                              *
             13184    1   *******************************************************************************/

     4506    13188    1   DCL XUO_OU_DCB_NUMBER SBIN SYMREF;
PL6.E3A0      #019=XUO$OUWRITE File=XUO$BUILD.:E05TSI                            WED 07/30/97 09:33 Page:562
     4507    13189    1   DCL XUO_OU_UTS UBIN SYMREF;
     4508    13190    1   DCL XUO_OU_WRITE_REQUIRED BIT(1) SYMREF;
     4509    13191    1   DCL XUO_SCHEMA_REQUIRED BIT(1) ALIGNED SYMREF;
     4510    13192    1   DCL XUO_ERROR_ROUTINE EPTR SYMREF;
     4511    13193    1   DCL XUO_CLOSE_REQUIRED BIT(1) ALIGNED SYMREF;
     4512    13194        %PAGE (ARG=CODE);

             13207    1   /*******************************************************************************
             13208    1   *                                                                              *
             13209    1   *        CODE              CODE                                                  *
             13210    1   *                                                                              *
             13211    1   *******************************************************************************/

     4513    13215         /*
     4514    13216            Check to see if we need to do a write
     4515    13217            */
     4516    13218    1       IF XUO_OU_WRITE_REQUIRED='0'B THEN

  13218  2 000002   000000 234000 xsym               SZN     XUO_OU_WRITE_REQUIRED
         2 000003   000005 604000 2                  TMI     s:13221

     4517    13219    1           RETURN;

  13219  2 000004   000000 702200 xent               TSX2  ! X66_ARET

     4518    13220         /**/
     4519    13221    1       IF ADDR(P_SECTION_NUMBER)=ADDR(NIL) THEN

  13221  2 000005   200004 236100                    LDQ     @P_SECTION_NUMBER,,AUTO
         2 000006   000001 116000 xsym               CMPQ    B_VECTNIL+1
         2 000007   000012 601000 2                  TNZ     s:13224

     4520    13222    1           SECTION_NUMBER=0;

  13222  2 000010   200100 450100                    STZ     SECTION_NUMBER,,AUTO
         2 000011   000015 710000 2                  TRA     s:13225

PL6.E3A0      #019=XUO$OUWRITE File=XUO$BUILD.:E05TSI                            WED 07/30/97 09:33 Page:563
     4521    13223    1       ELSE
     4522    13224    1           SECTION_NUMBER=P_SECTION_NUMBER;

  13224  2 000012   200004 470500                    LDP0    @P_SECTION_NUMBER,,AUTO
         2 000013   000000 235100                    LDA     0,,PR0
         2 000014   200100 755100                    STA     SECTION_NUMBER,,AUTO

     4523    13225    2       DO CASE(P_RECORD_TYPE);

  13225  2 000015   200003 470500                    LDP0    @P_RECORD_TYPE,,AUTO
         2 000016   000000 235100                    LDA     0,,PR0
         2 000017   000021 115007                    CMPA    17,DL
         2 000020   000022 602005 2                  TNC     s:13225+5,AL
         2 000021   000562 710000 2                  TRA     s:13361
         2 000022   000043 710000 2                  TRA     s:13230
         2 000023   000203 710000 2                  TRA     s:13269
         2 000024   000217 710000 2                  TRA     s:13273
         2 000025   000233 710000 2                  TRA     s:13277
         2 000026   000246 710000 2                  TRA     s:13281
         2 000027   000262 710000 2                  TRA     s:13285
         2 000030   000276 710000 2                  TRA     s:13289
         2 000031   000312 710000 2                  TRA     s:13293
         2 000032   000326 710000 2                  TRA     s:13297
         2 000033   000342 710000 2                  TRA     s:13301
         2 000034   000356 710000 2                  TRA     s:13306
         2 000035   000422 710000 2                  TRA     s:13318
         2 000036   000436 710000 2                  TRA     s:13322
         2 000037   000452 710000 2                  TRA     s:13326
         2 000040   000466 710000 2                  TRA     s:13330
         2 000041   000502 710000 2                  TRA     s:13334
         2 000042   000516 710000 2                  TRA     s:13341

     4524    13226    2       CASE(0);

     4525    13227         /*
     4526    13228         The following handles the case of the head record
     4527    13229         */
PL6.E3A0      #019=XUO$OUWRITE File=XUO$BUILD.:E05TSI                            WED 07/30/97 09:33 Page:564
     4528    13230    2           XUO_HEAD_WRITE.V.NEWKEY# = '1'B;

  13230  2 000043   000000 471400 xsym               LDP1    XUO_HEAD_WRITE$
         2 000044   000200 236007                    LDQ     128,DL
         2 000045   100010 256100                    ORSQ    8,,PR1

     4529    13231    2           XUO_HEAD_WRITE.V.ONEWKEY# = '0'B;

  13231  2 000046   000000 236000 3                  LDQ     0
         2 000047   100010 356100                    ANSQ    8,,PR1

     4530    13232        %IF GCOS;
     4531    13233 C              CALL M$WRITE (XUO_HEAD_WRITE) ALTRET (WRITE_ERROR);
     4532    13234        %ELSE;
     4533    13235    2   WRITE_HEAD: CALL M$WRITE (XUO_HEAD_WRITE) ALTRET (HEAD_WRITE_ALTRET);

  13235  2 000050   000000 470400 xsym  WRITE_HEAD   LDP0    XUO_HEAD_WRITE$
         2 000051   440001 713400                    CLIMB   alt,write
         2 000052   401400 401760                    pmme    nvectors=4
         2 000053   000055 702000 2                  TSX2    HEAD_WRITE_ALTRET

     4534    13236    2           RETURN;

  13236  2 000054   000000 702200 xent               TSX2  ! X66_ARET

     4535    13237    2   HEAD_WRITE_ALTRET: IF B$TCB$ -> B$TCB.ALT$ -> B$ALT.ERR.CODE ~= %E$OLDREC

  13237  2 000055   000000 470400 xsym  HEAD_WRITE_* LDP0    B$TCB$
         2 000056   000000 471500                    LDP1    0,,PR0
         2 000057   100102 236100                    LDQ     66,,PR1
         2 000060   377770 376007                    ANQ     131064,DL
         2 000061   000750 116007                    CMPQ    488,DL
         2 000062   000617 601000 2                  TNZ     WRITE_ERROR

     4536    13238    2           THEN GOTO WRITE_ERROR;
     4537    13239    2           XUO_HEAD_WRITE.V.NEWKEY# = '0'B;

PL6.E3A0      #019=XUO$OUWRITE File=XUO$BUILD.:E05TSI                            WED 07/30/97 09:33 Page:565
  13239  2 000063   000000 473400 xsym               LDP3    XUO_HEAD_WRITE$
         2 000064   000001 236000 3                  LDQ     1
         2 000065   300010 356100                    ANSQ    8,,PR3

     4538    13240    2           XUO_HEAD_WRITE.V.ONEWKEY# = '1'B;

  13240  2 000066   000400 236007                    LDQ     256,DL
         2 000067   300010 256100                    ORSQ    8,,PR3

     4539    13241    2           READ_OLD_HEAD = CLEAN_READ;

  13241  2 000070   000100 100400                    MLR     fill='000'O
         2 000071   000004 000070 1                  ADSC9   CLEAN_READ               cn=0,n=56
         2 000072   200050 000070                    ADSC9   READ_OLD_HEAD,,AUTO      cn=0,n=56

     4540    13242    2           READ_OLD_HEAD.V_ = VECTOR(READ_OLD_HEAD.V);

  13242  2 000073   000002 235000 3                  LDA     2
         2 000074   200106 452500                    STP2    ERROR+1,,AUTO
         2 000075   200106 236100                    LDQ     ERROR+1,,AUTO
         2 000076   000060 036003                    ADLQ    48,DU
         2 000077   200050 757100                    STAQ    READ_OLD_HEAD,,AUTO

     4541    13243    2           READ_OLD_HEAD.V.DCB# = XUO_OU_DCB_NUMBER;

  13243  2 000100   000000 720000 xsym               LXL0    XUO_OU_DCB_NUMBER
         2 000101   200060 740100                    STX0    READ_OLD_HEAD+8,,AUTO

     4542    13244    2           READ_OLD_HEAD.BUF_ = VECTOR (OLD_HEAD_RECORD);

  13244  2 000102   000003 235000 3                  LDA     3
         2 000103   200106 452500                    STP2    ERROR+1,,AUTO
         2 000104   200106 236100                    LDQ     ERROR+1,,AUTO
         2 000105   000006 036003                    ADLQ    6,DU
         2 000106   200054 757100                    STAQ    READ_OLD_HEAD+4,,AUTO

     4543    13245    2           READ_OLD_HEAD.KEY_ = XUO_HEAD_WRITE.KEY_;
PL6.E3A0      #019=XUO$OUWRITE File=XUO$BUILD.:E05TSI                            WED 07/30/97 09:33 Page:566

  13245  2 000107   300002 237100                    LDAQ    2,,PR3
         2 000110   200052 757100                    STAQ    READ_OLD_HEAD+2,,AUTO

     4544    13246    2           OLD_HEAD_RECORD.UTS = B$OUHEAD.UTS /* just in case */;

  13246  2 000111   000000 471400 xsym               LDP1    B$OUHEAD$
         2 000112   100000 235100                    LDA     0,,PR1
         2 000113   200006 755100                    STA     OLD_HEAD_RECORD,,AUTO

     4545    13247    2           CALL M$READ (READ_OLD_HEAD) ALTRET (WRITE_HEAD);

  13247  2 000114   200050 630500                    EPPR0   READ_OLD_HEAD,,AUTO
         2 000115   440000 713400                    CLIMB   alt,read
         2 000116   401400 401760                    pmme    nvectors=4
         2 000117   000050 702000 2                  TSX2    WRITE_HEAD

     4546    13248    2           CALL M$WRITE (XUO_HEAD_WRITE) ALTRET (WRITE_ERROR);

  13248  2 000120   000000 470400 xsym               LDP0    XUO_HEAD_WRITE$
         2 000121   440001 713400                    CLIMB   alt,write
         2 000122   401400 401760                    pmme    nvectors=4
         2 000123   000617 702000 2                  TSX2    WRITE_ERROR

     4547    13249    2           IF B$OUHEAD.UTS ~= OLD_HEAD_RECORD.UTS

  13249  2 000124   000000 470400 xsym               LDP0    B$OUHEAD$
         2 000125   000000 236100                    LDQ     0,,PR0
         2 000126   200006 116100                    CMPQ    OLD_HEAD_RECORD,,AUTO
         2 000127   000202 600000 2                  TZE     IGNORE_DELREC_ALTRET

     4548    13250    3           THEN DO;

     4549    13251    3               FIRST_RECORD.KEYSIZ = 5;

  13251  2 000130   005000 236003                    LDQ     2560,DU
         2 000131   200043 552140                    STBQ    FIRST_RECORD,'40'O,AUTO
PL6.E3A0      #019=XUO$OUWRITE File=XUO$BUILD.:E05TSI                            WED 07/30/97 09:33 Page:567

     4550    13252    3               FIRST_RECORD.NOTHD = '777'O;

  13252  2 000132   000777 236003                    LDQ     511,DU
         2 000133   200043 552120                    STBQ    FIRST_RECORD,'20'O,AUTO

     4551    13253    3               FIRST_RECORD.UTS = OLD_HEAD_RECORD.UTS;

  13253  2 000134   000100 100500                    MLR     fill='000'O
         2 000135   200006 000004                    ADSC9   OLD_HEAD_RECORD,,AUTO    cn=0,n=4
         2 000136   200043 400004                    ADSC9   FIRST_RECORD,,AUTO       cn=2,n=4

     4552    13254    3               LAST_RECORD.KEYSIZ = 7;

  13254  2 000137   007000 236003                    LDQ     3584,DU
         2 000140   200045 552140                    STBQ    LAST_RECORD,'40'O,AUTO

     4553    13255    3               LAST_RECORD.NOTHD = '777'O;

  13255  2 000141   000777 236003                    LDQ     511,DU
         2 000142   200045 552120                    STBQ    LAST_RECORD,'20'O,AUTO

     4554    13256    3               LAST_RECORD.UTS = OLD_HEAD_RECORD.UTS;

  13256  2 000143   000100 100500                    MLR     fill='000'O
         2 000144   200006 000004                    ADSC9   OLD_HEAD_RECORD,,AUTO    cn=0,n=4
         2 000145   200045 400004                    ADSC9   LAST_RECORD,,AUTO        cn=2,n=4

     4555    13257    3               LAST_RECORD.TYPE = 255;

  13257  2 000146   377000 236007                    LDQ     130560,DL
         2 000147   200046 552110                    STBQ    LAST_RECORD+1,'10'O,AUTO

     4556    13258    3               LAST_RECORD.PAGE = 255;

  13258  2 000150   000377 236007                    LDQ     255,DL
         2 000151   200046 552104                    STBQ    LAST_RECORD+1,'04'O,AUTO
PL6.E3A0      #019=XUO$OUWRITE File=XUO$BUILD.:E05TSI                            WED 07/30/97 09:33 Page:568

     4557    13259    3               DELETE_OLD = CLEAN_DELETE;

  13259  2 000152   000100 100400                    MLR     fill='000'O
         2 000153   000022 000050 1                  ADSC9   CLEAN_DELETE             cn=0,n=40
         2 000154   200066 000050                    ADSC9   DELETE_OLD,,AUTO         cn=0,n=40

     4558    13260    3               DELETE_OLD.V_ = VECTOR(DELETE_OLD.V);

  13260  2 000155   000004 235000 3                  LDA     4
         2 000156   200106 452500                    STP2    ERROR+1,,AUTO
         2 000157   200106 236100                    LDQ     ERROR+1,,AUTO
         2 000160   000076 036003                    ADLQ    62,DU
         2 000161   200066 757100                    STAQ    DELETE_OLD,,AUTO

     4559    13261    3               DELETE_OLD.V.DCB# = XUO_OU_DCB_NUMBER;

  13261  2 000162   000000 720000 xsym               LXL0    XUO_OU_DCB_NUMBER
         2 000163   200076 740100                    STX0    DELETE_OLD+8,,AUTO

     4560    13262    3               DELETE_OLD.KEY_ = VECTOR(FIRST_RECORD);

  13262  2 000164   000004 235000 3                  LDA     4
         2 000165   200106 452500                    STP2    ERROR+1,,AUTO
         2 000166   200106 236100                    LDQ     ERROR+1,,AUTO
         2 000167   000043 036003                    ADLQ    35,DU
         2 000170   200070 757100                    STAQ    DELETE_OLD+2,,AUTO

     4561    13263    3               DELETE_OLD.LKEY_ = VECTOR(LAST_RECORD);

  13263  2 000171   000004 235000 3                  LDA     4
         2 000172   200106 452500                    STP2    ERROR+1,,AUTO
         2 000173   200106 236100                    LDQ     ERROR+1,,AUTO
         2 000174   000045 036003                    ADLQ    37,DU
         2 000175   200072 757100                    STAQ    DELETE_OLD+4,,AUTO

     4562    13264    3               CALL M$DELREC (DELETE_OLD) ALTRET (IGNORE_DELREC_ALTRET);
PL6.E3A0      #019=XUO$OUWRITE File=XUO$BUILD.:E05TSI                            WED 07/30/97 09:33 Page:569

  13264  2 000176   200066 630500                    EPPR0   DELETE_OLD,,AUTO
         2 000177   440002 713400                    CLIMB   alt,+16386
         2 000200   401400 401760                    pmme    nvectors=4
         2 000201   000202 702000 2                  TSX2    IGNORE_DELREC_ALTRET

     4563    13265    3   IGNORE_DELREC_ALTRET: END;

  13265  2 000202                       IGNORE_DELR* null
     4564    13266        %ENDIF;
     4565    13267    2           RETURN;

  13267  2 000202   000000 702200 xent               TSX2  ! X66_ARET

     4566    13268    2       CASE(%TYPDNAM);

     4567    13269    2           BOUND_TEMP=POFFC(B_DNAME_CUR$,B_DNAME_BASE$);

  13269  2 000203   000000 236000 xsym               LDQ     B_DNAME_BASE$
         2 000204   000020 772000                    QRL     16
         2 000205   200106 756100                    STQ     ERROR+1,,AUTO
         2 000206   000000 236000 xsym               LDQ     B_DNAME_CUR$
         2 000207   000020 772000                    QRL     16
         2 000210   200106 136100                    SBLQ    ERROR+1,,AUTO
         2 000211   200101 756100                    STQ     BOUND_TEMP,,AUTO

     4568    13270    2           BUF_TEMP$=B_DNAME_BASE$;

  13270  2 000212   000000 236000 xsym               LDQ     B_DNAME_BASE$
         2 000213   200102 756100                    STQ     BUF_TEMP$,,AUTO

     4569    13271    2           PAGE_TEMP=B_DNAME_PAGE;

  13271  2 000214   000000 235000 xsym               LDA     B_DNAME_PAGE
         2 000215   200103 755100                    STA     PAGE_TEMP,,AUTO
         2 000216   000562 710000 2                  TRA     s:13361

PL6.E3A0      #019=XUO$OUWRITE File=XUO$BUILD.:E05TSI                            WED 07/30/97 09:33 Page:570
     4570    13272    2       CASE(%TYPRNAM);

     4571    13273    2           BOUND_TEMP=POFFC(B_RNAME_CUR$,B_RNAME_BASE$);

  13273  2 000217   000000 236000 xsym               LDQ     B_RNAME_BASE$
         2 000220   000020 772000                    QRL     16
         2 000221   200106 756100                    STQ     ERROR+1,,AUTO
         2 000222   000000 236000 xsym               LDQ     B_RNAME_CUR$
         2 000223   000020 772000                    QRL     16
         2 000224   200106 136100                    SBLQ    ERROR+1,,AUTO
         2 000225   200101 756100                    STQ     BOUND_TEMP,,AUTO

     4572    13274    2           BUF_TEMP$=B_RNAME_BASE$;

  13274  2 000226   000000 236000 xsym               LDQ     B_RNAME_BASE$
         2 000227   200102 756100                    STQ     BUF_TEMP$,,AUTO

     4573    13275    2           PAGE_TEMP=B_RNAME_PAGE;

  13275  2 000230   000000 235000 xsym               LDA     B_RNAME_PAGE
         2 000231   200103 755100                    STA     PAGE_TEMP,,AUTO
         2 000232   000562 710000 2                  TRA     s:13361

     4574    13276    2       CASE(%TYPSECT);

     4575    13277    2           BOUND_TEMP=POFFC(B_SECTION_CUR$,B_SECTION_BASE$);

  13277  2 000233   000000 236000 xsym               LDQ     B_SECTION_BASE$
         2 000234   000020 772000                    QRL     16
         2 000235   200106 756100                    STQ     ERROR+1,,AUTO
         2 000236   000000 236000 xsym               LDQ     B_SECTION_CUR$
         2 000237   000020 772000                    QRL     16
         2 000240   200106 136100                    SBLQ    ERROR+1,,AUTO
         2 000241   200101 756100                    STQ     BOUND_TEMP,,AUTO

     4576    13278    2           BUF_TEMP$=B_SECTION_BASE$;

PL6.E3A0      #019=XUO$OUWRITE File=XUO$BUILD.:E05TSI                            WED 07/30/97 09:33 Page:571
  13278  2 000242   000000 236000 xsym               LDQ     B_SECTION_BASE$
         2 000243   200102 756100                    STQ     BUF_TEMP$,,AUTO

     4577    13279    2           PAGE_TEMP=0;

  13279  2 000244   200103 450100                    STZ     PAGE_TEMP,,AUTO
         2 000245   000562 710000 2                  TRA     s:13361

     4578    13280    2       CASE(%TYPEDEF);

     4579    13281    2           BOUND_TEMP=POFFC(B_EDEF_CUR$,B_EDEF_BASE$);

  13281  2 000246   000000 236000 xsym               LDQ     B_EDEF_BASE$
         2 000247   000020 772000                    QRL     16
         2 000250   200106 756100                    STQ     ERROR+1,,AUTO
         2 000251   000000 236000 xsym               LDQ     B_EDEF_CUR$
         2 000252   000020 772000                    QRL     16
         2 000253   200106 136100                    SBLQ    ERROR+1,,AUTO
         2 000254   200101 756100                    STQ     BOUND_TEMP,,AUTO

     4580    13282    2           BUF_TEMP$=B_EDEF_BASE$;

  13282  2 000255   000000 236000 xsym               LDQ     B_EDEF_BASE$
         2 000256   200102 756100                    STQ     BUF_TEMP$,,AUTO

     4581    13283    2           PAGE_TEMP=B_EDEF_PAGE;

  13283  2 000257   000000 235000 xsym               LDA     B_EDEF_PAGE
         2 000260   200103 755100                    STA     PAGE_TEMP,,AUTO
         2 000261   000562 710000 2                  TRA     s:13361

     4582    13284    2       CASE(%TYPEREF);

     4583    13285    2           BOUND_TEMP=POFFC(B_EREF_CUR$,B_EREF_BASE$);

  13285  2 000262   000000 236000 xsym               LDQ     B_EREF_BASE$
         2 000263   000020 772000                    QRL     16
PL6.E3A0      #019=XUO$OUWRITE File=XUO$BUILD.:E05TSI                            WED 07/30/97 09:33 Page:572
         2 000264   200106 756100                    STQ     ERROR+1,,AUTO
         2 000265   000000 236000 xsym               LDQ     B_EREF_CUR$
         2 000266   000020 772000                    QRL     16
         2 000267   200106 136100                    SBLQ    ERROR+1,,AUTO
         2 000270   200101 756100                    STQ     BOUND_TEMP,,AUTO

     4584    13286    2           BUF_TEMP$=B_EREF_BASE$;

  13286  2 000271   000000 236000 xsym               LDQ     B_EREF_BASE$
         2 000272   200102 756100                    STQ     BUF_TEMP$,,AUTO

     4585    13287    2           PAGE_TEMP=B_EREF_PAGE;

  13287  2 000273   000000 235000 xsym               LDA     B_EREF_PAGE
         2 000274   200103 755100                    STA     PAGE_TEMP,,AUTO
         2 000275   000562 710000 2                  TRA     s:13361

     4586    13288    2       CASE(%TYPSDEF);

     4587    13289    2           BOUND_TEMP=POFFC(B_SDEF_CUR$,B_SDEF_BASE$);

  13289  2 000276   000000 236000 xsym               LDQ     B_SDEF_BASE$
         2 000277   000020 772000                    QRL     16
         2 000300   200106 756100                    STQ     ERROR+1,,AUTO
         2 000301   000000 236000 xsym               LDQ     B_SDEF_CUR$
         2 000302   000020 772000                    QRL     16
         2 000303   200106 136100                    SBLQ    ERROR+1,,AUTO
         2 000304   200101 756100                    STQ     BOUND_TEMP,,AUTO

     4588    13290    2           BUF_TEMP$=B_SDEF_BASE$;

  13290  2 000305   000000 236000 xsym               LDQ     B_SDEF_BASE$
         2 000306   200102 756100                    STQ     BUF_TEMP$,,AUTO

     4589    13291    2           PAGE_TEMP=B_SDEF_PAGE;

  13291  2 000307   000000 235000 xsym               LDA     B_SDEF_PAGE
PL6.E3A0      #019=XUO$OUWRITE File=XUO$BUILD.:E05TSI                            WED 07/30/97 09:33 Page:573
         2 000310   200103 755100                    STA     PAGE_TEMP,,AUTO
         2 000311   000562 710000 2                  TRA     s:13361

     4590    13292    2       CASE(%TYPSREF);

     4591    13293    2           BOUND_TEMP=POFFC(B_SREF_CUR$,B_SREF_BASE$);

  13293  2 000312   000000 236000 xsym               LDQ     B_SREF_BASE$
         2 000313   000020 772000                    QRL     16
         2 000314   200106 756100                    STQ     ERROR+1,,AUTO
         2 000315   000000 236000 xsym               LDQ     B_SREF_CUR$
         2 000316   000020 772000                    QRL     16
         2 000317   200106 136100                    SBLQ    ERROR+1,,AUTO
         2 000320   200101 756100                    STQ     BOUND_TEMP,,AUTO

     4592    13294    2           BUF_TEMP$=B_SREF_BASE$;

  13294  2 000321   000000 236000 xsym               LDQ     B_SREF_BASE$
         2 000322   200102 756100                    STQ     BUF_TEMP$,,AUTO

     4593    13295    2           PAGE_TEMP=B_SREF_PAGE;

  13295  2 000323   000000 235000 xsym               LDA     B_SREF_PAGE
         2 000324   200103 755100                    STA     PAGE_TEMP,,AUTO
         2 000325   000562 710000 2                  TRA     s:13361

     4594    13296    2       CASE(%TYPSEGDEF);

     4595    13297    2           BOUND_TEMP=POFFC(B_SEGDEF_CUR$,B_SEGDEF_BASE$);

  13297  2 000326   000000 236000 xsym               LDQ     B_SEGDEF_BASE$
         2 000327   000020 772000                    QRL     16
         2 000330   200106 756100                    STQ     ERROR+1,,AUTO
         2 000331   000000 236000 xsym               LDQ     B_SEGDEF_CUR$
         2 000332   000020 772000                    QRL     16
         2 000333   200106 136100                    SBLQ    ERROR+1,,AUTO
         2 000334   200101 756100                    STQ     BOUND_TEMP,,AUTO
PL6.E3A0      #019=XUO$OUWRITE File=XUO$BUILD.:E05TSI                            WED 07/30/97 09:33 Page:574

     4596    13298    2           BUF_TEMP$=B_SEGDEF_BASE$;

  13298  2 000335   000000 236000 xsym               LDQ     B_SEGDEF_BASE$
         2 000336   200102 756100                    STQ     BUF_TEMP$,,AUTO

     4597    13299    2           PAGE_TEMP=B_SEGDEF_PAGE;

  13299  2 000337   000000 235000 xsym               LDA     B_SEGDEF_PAGE
         2 000340   200103 755100                    STA     PAGE_TEMP,,AUTO
         2 000341   000562 710000 2                  TRA     s:13361

     4598    13300    2       CASE(%TYPSEGREF);

     4599    13301    2           BOUND_TEMP=POFFC(B_SEGREF_CUR$,B_SEGREF_BASE$);

  13301  2 000342   000000 236000 xsym               LDQ     B_SEGREF_BASE$
         2 000343   000020 772000                    QRL     16
         2 000344   200106 756100                    STQ     ERROR+1,,AUTO
         2 000345   000000 236000 xsym               LDQ     B_SEGREF_CUR$
         2 000346   000020 772000                    QRL     16
         2 000347   200106 136100                    SBLQ    ERROR+1,,AUTO
         2 000350   200101 756100                    STQ     BOUND_TEMP,,AUTO

     4600    13302    2           BUF_TEMP$=B_SEGREF_BASE$;

  13302  2 000351   000000 236000 xsym               LDQ     B_SEGREF_BASE$
         2 000352   200102 756100                    STQ     BUF_TEMP$,,AUTO

     4601    13303    2           PAGE_TEMP=B_SEGREF_PAGE;

  13303  2 000353   000000 235000 xsym               LDA     B_SEGREF_PAGE
         2 000354   200103 755100                    STA     PAGE_TEMP,,AUTO
         2 000355   000562 710000 2                  TRA     s:13361

     4602    13304    2       CASE(%TYPPROG);

PL6.E3A0      #019=XUO$OUWRITE File=XUO$BUILD.:E05TSI                            WED 07/30/97 09:33 Page:575
     4603    13305
     4604    13306    2           B$PRGKEY.OFFSET = SECTION_ARRAY.BUF_OFFSET (SECTION_NUMBER);

  13306  2 000356   200100 235100                    LDA     SECTION_NUMBER,,AUTO
         2 000357   000003 735000                    ALS     3
         2 000360   000000 471400 xsym               LDP1    PTR2_SECTION_ARRAY$
         2 000361   000000 473400 xsym               LDP3    B$PRGKEY$
         2 000362   100006 236105                    LDQ     6,AL,PR1
         2 000363   000011 736000                    QLS     9
         2 000364   300002 552130                    STBQ    2,'30'O,PR3

     4605    13307    2           B$PRGKEY.SECTNUM = SECTION_NUMBER;

  13307  2 000365   000100 101500                    MRL     fill='000'O
         2 000366   200100 000004                    ADSC9   SECTION_NUMBER,,AUTO     cn=0,n=4
         2 000367   300001 600002                    ADSC9   1,,PR3                   cn=3,n=2

     4606    13308
     4607    13309    2           BOUND_TEMP = SECTION_ARRAY.PROGRAM_CURS(SECTION_NUMBER) *4;

  13309  2 000370   100000 235105                    LDA     0,AL,PR1
         2 000371   000002 735000                    ALS     2
         2 000372   200101 755100                    STA     BOUND_TEMP,,AUTO

     4608    13310    2           BUF_TEMP$ =SECTION_ARRAY.PTR2_PROGRAM_BUF$(SECTION_NUMBER);

  13310  2 000373   200100 236100                    LDQ     SECTION_NUMBER,,AUTO
         2 000374   000003 736000                    QLS     3
         2 000375   100004 236106                    LDQ     4,QL,PR1
         2 000376   200102 756100                    STQ     BUF_TEMP$,,AUTO

     4609    13311    2           XUO_PROGRAM_WRITE.BUF_.BOUND = BOUND_TEMP - 1;

  13311  2 000377   000000 474400 xsym               LDP4    XUO_PROGRAM_WRITE$
         2 000400   200101 236100                    LDQ     BOUND_TEMP,,AUTO
         2 000401   000001 136007                    SBLQ    1,DL
         2 000402   000020 736000                    QLS     16
PL6.E3A0      #019=XUO$OUWRITE File=XUO$BUILD.:E05TSI                            WED 07/30/97 09:33 Page:576
         2 000403   400004 676100                    ERQ     4,,PR4
         2 000404   000034 376000 xsym               ANQ     B_VECTNIL+28
         2 000405   400004 656100                    ERSQ    4,,PR4

     4610    13312    2           XUO_PROGRAM_WRITE.BUF_.BUF$ = BUF_TEMP$;

  13312  2 000406   200102 236100                    LDQ     BUF_TEMP$,,AUTO
         2 000407   400005 756100                    STQ     5,,PR4

     4611    13313    2           CALL M$WRITE (XUO_PROGRAM_WRITE) ALTRET(WRITE_ERROR);

  13313  2 000410   400000 630500                    EPPR0   0,,PR4
         2 000411   440001 713400                    CLIMB   alt,write
         2 000412   401400 401760                    pmme    nvectors=4
         2 000413   000617 702000 2                  TSX2    WRITE_ERROR

     4612    13314    2           OU_CLEAR='0'B;

  13314  2 000414   200102 470500                    LDP0    BUF_TEMP$,,AUTO
         2 000415   200101 720100                    LXL0    BOUND_TEMP,,AUTO
         2 000416   000140 100400                    MLR     fill='000'O
         2 000417   000002 000001 xsym               ADSC9   B_VECTNIL+2              cn=0,n=1
         2 000420   000000 000010                    ADSC9   0,,PR0                   cn=0,n=*X0

     4613    13315
     4614    13316    2           RETURN;

  13316  2 000421   000000 702200 xent               TSX2  ! X66_ARET

     4615    13317    2       CASE(%TYPLOGBLK);

     4616    13318    2           BOUND_TEMP=POFFC(B_LOGBLK_CUR$,B_LOGBLK_ENTRY0$);

  13318  2 000422   000000 236000 xsym               LDQ     B_LOGBLK_ENTRY0$
         2 000423   000020 772000                    QRL     16
         2 000424   200106 756100                    STQ     ERROR+1,,AUTO
         2 000425   000000 236000 xsym               LDQ     B_LOGBLK_CUR$
PL6.E3A0      #019=XUO$OUWRITE File=XUO$BUILD.:E05TSI                            WED 07/30/97 09:33 Page:577
         2 000426   000020 772000                    QRL     16
         2 000427   200106 136100                    SBLQ    ERROR+1,,AUTO
         2 000430   200101 756100                    STQ     BOUND_TEMP,,AUTO

     4617    13319    2           BUF_TEMP$=B_LOGBLK_ENTRY0$;

  13319  2 000431   000000 236000 xsym               LDQ     B_LOGBLK_ENTRY0$
         2 000432   200102 756100                    STQ     BUF_TEMP$,,AUTO

     4618    13320    2           PAGE_TEMP=B_LOGBLK_PAGE;

  13320  2 000433   000000 235000 xsym               LDA     B_LOGBLK_PAGE
         2 000434   200103 755100                    STA     PAGE_TEMP,,AUTO
         2 000435   000562 710000 2                  TRA     s:13361

     4619    13321    2       CASE(%TYPINTNTRY);

     4620    13322    2           BOUND_TEMP=POFFC(B_INTNTRY_CUR$,B_INTNTRY_BASE$);

  13322  2 000436   000000 236000 xsym               LDQ     B_INTNTRY_BASE$
         2 000437   000020 772000                    QRL     16
         2 000440   200106 756100                    STQ     ERROR+1,,AUTO
         2 000441   000000 236000 xsym               LDQ     B_INTNTRY_CUR$
         2 000442   000020 772000                    QRL     16
         2 000443   200106 136100                    SBLQ    ERROR+1,,AUTO
         2 000444   200101 756100                    STQ     BOUND_TEMP,,AUTO

     4621    13323    2           BUF_TEMP$=B_INTNTRY_BASE$;

  13323  2 000445   000000 236000 xsym               LDQ     B_INTNTRY_BASE$
         2 000446   200102 756100                    STQ     BUF_TEMP$,,AUTO

     4622    13324    2           PAGE_TEMP=B_INTNTRY_PAGE;

  13324  2 000447   000000 235000 xsym               LDA     B_INTNTRY_PAGE
         2 000450   200103 755100                    STA     PAGE_TEMP,,AUTO
         2 000451   000562 710000 2                  TRA     s:13361
PL6.E3A0      #019=XUO$OUWRITE File=XUO$BUILD.:E05TSI                            WED 07/30/97 09:33 Page:578

     4623    13325    2       CASE(%TYPEXST);

     4624    13326    2           BOUND_TEMP=POFFC(B_EXST_CUR$,B_EXST_BASE$);

  13326  2 000452   000000 236000 xsym               LDQ     B_EXST_BASE$
         2 000453   000020 772000                    QRL     16
         2 000454   200106 756100                    STQ     ERROR+1,,AUTO
         2 000455   000000 236000 xsym               LDQ     B_EXST_CUR$
         2 000456   000020 772000                    QRL     16
         2 000457   200106 136100                    SBLQ    ERROR+1,,AUTO
         2 000460   200101 756100                    STQ     BOUND_TEMP,,AUTO

     4625    13327    2           BUF_TEMP$=B_EXST_BASE$;

  13327  2 000461   000000 236000 xsym               LDQ     B_EXST_BASE$
         2 000462   200102 756100                    STQ     BUF_TEMP$,,AUTO

     4626    13328    2           PAGE_TEMP=B_EXST_PAGE;

  13328  2 000463   000000 235000 xsym               LDA     B_EXST_PAGE
         2 000464   200103 755100                    STA     PAGE_TEMP,,AUTO
         2 000465   000562 710000 2                  TRA     s:13361

     4627    13329    2       CASE(%TYPVREBL);

     4628    13330    2           BOUND_TEMP=POFFC(B_VREBL_CUR$,B_VREBL_BASE$);

  13330  2 000466   000000 236000 xsym               LDQ     B_VREBL_BASE$
         2 000467   000020 772000                    QRL     16
         2 000470   200106 756100                    STQ     ERROR+1,,AUTO
         2 000471   000000 236000 xsym               LDQ     B_VREBL_CUR$
         2 000472   000020 772000                    QRL     16
         2 000473   200106 136100                    SBLQ    ERROR+1,,AUTO
         2 000474   200101 756100                    STQ     BOUND_TEMP,,AUTO

     4629    13331    2           BUF_TEMP$=B_VREBL_BASE$;
PL6.E3A0      #019=XUO$OUWRITE File=XUO$BUILD.:E05TSI                            WED 07/30/97 09:33 Page:579

  13331  2 000475   000000 236000 xsym               LDQ     B_VREBL_BASE$
         2 000476   200102 756100                    STQ     BUF_TEMP$,,AUTO

     4630    13332    2           PAGE_TEMP=B_VREBL_PAGE;

  13332  2 000477   000000 235000 xsym               LDA     B_VREBL_PAGE
         2 000500   200103 755100                    STA     PAGE_TEMP,,AUTO
         2 000501   000562 710000 2                  TRA     s:13361

     4631    13333    2       CASE(%TYPDBGNAM);

     4632    13334    2           BOUND_TEMP=POFFC(B_DBGNAME_CUR$,B_DBGNAME_BASE$);

  13334  2 000502   000000 236000 xsym               LDQ     B_DBGNAME_BASE$
         2 000503   000020 772000                    QRL     16
         2 000504   200106 756100                    STQ     ERROR+1,,AUTO
         2 000505   000000 236000 xsym               LDQ     B_DBGNAME_CUR$
         2 000506   000020 772000                    QRL     16
         2 000507   200106 136100                    SBLQ    ERROR+1,,AUTO
         2 000510   200101 756100                    STQ     BOUND_TEMP,,AUTO

     4633    13335    2           BUF_TEMP$=B_DBGNAME_BASE$;

  13335  2 000511   000000 236000 xsym               LDQ     B_DBGNAME_BASE$
         2 000512   200102 756100                    STQ     BUF_TEMP$,,AUTO

     4634    13336    2           PAGE_TEMP=B_DBGNAME_PAGE;

  13336  2 000513   000000 235000 xsym               LDA     B_DBGNAME_PAGE
         2 000514   200103 755100                    STA     PAGE_TEMP,,AUTO
         2 000515   000562 710000 2                  TRA     s:13361

     4635    13337    2       CASE(16);

     4636    13338         /*
     4637    13339            Handles relocation records
PL6.E3A0      #019=XUO$OUWRITE File=XUO$BUILD.:E05TSI                            WED 07/30/97 09:33 Page:580
     4638    13340            */
     4639    13341    2           B$RELKEY.OFFSET = SECTION_ARRAY.BUF_OFFSET (SECTION_NUMBER);

  13341  2 000516   200100 235100                    LDA     SECTION_NUMBER,,AUTO
         2 000517   000003 735000                    ALS     3
         2 000520   000000 471400 xsym               LDP1    PTR2_SECTION_ARRAY$
         2 000521   000000 473400 xsym               LDP3    B$RELKEY$
         2 000522   100006 236105                    LDQ     6,AL,PR1
         2 000523   000011 736000                    QLS     9
         2 000524   300002 552130                    STBQ    2,'30'O,PR3

     4640    13342    2           B$RELKEY.SECTNUM = SECTION_NUMBER;

  13342  2 000525   000100 101500                    MRL     fill='000'O
         2 000526   200100 000004                    ADSC9   SECTION_NUMBER,,AUTO     cn=0,n=4
         2 000527   300001 600002                    ADSC9   1,,PR3                   cn=3,n=2

     4641    13343
     4642    13344    2           BOUND_TEMP = SECTION_ARRAY.RELOCATION_CURS(SECTION_NUMBER)

  13344  2 000530   100001 235105                    LDA     1,AL,PR1
         2 000531   000002 735000                    ALS     2
         2 000532   200101 755100                    STA     BOUND_TEMP,,AUTO

     4643    13345    2              * 4;
     4644    13346    2           BUF_TEMP$ = SECTION_ARRAY.PTR2_RELOCATION_BUF$(SECTION_NUMBER);

  13346  2 000533   200100 236100                    LDQ     SECTION_NUMBER,,AUTO
         2 000534   000003 736000                    QLS     3
         2 000535   100005 236106                    LDQ     5,QL,PR1
         2 000536   200102 756100                    STQ     BUF_TEMP$,,AUTO

     4645    13347    2           XUO_RELOCATION_WRITE.BUF_.BOUND = BOUND_TEMP - 1;

  13347  2 000537   000000 474400 xsym               LDP4    XUO_RELOCATION_WRITE$
         2 000540   200101 236100                    LDQ     BOUND_TEMP,,AUTO
         2 000541   000001 136007                    SBLQ    1,DL
PL6.E3A0      #019=XUO$OUWRITE File=XUO$BUILD.:E05TSI                            WED 07/30/97 09:33 Page:581
         2 000542   000020 736000                    QLS     16
         2 000543   400004 676100                    ERQ     4,,PR4
         2 000544   000034 376000 xsym               ANQ     B_VECTNIL+28
         2 000545   400004 656100                    ERSQ    4,,PR4

     4646    13348    2           XUO_RELOCATION_WRITE.BUF_.BUF$ = BUF_TEMP$;

  13348  2 000546   200102 236100                    LDQ     BUF_TEMP$,,AUTO
         2 000547   400005 756100                    STQ     5,,PR4

     4647    13349         /*
     4648    13350         May get altret which is valid due to two keys the same.  If that
     4649    13351         happens  must use sequence field and bump key size.
     4650    13352         */
     4651    13353    2           CALL M$WRITE (XUO_RELOCATION_WRITE) ALTRET(XUO_RELOCATION_WRITE_ERROR);

  13353  2 000550   400000 630500                    EPPR0   0,,PR4
         2 000551   440001 713400                    CLIMB   alt,write
         2 000552   401400 401760                    pmme    nvectors=4
         2 000553   000664 702000 2                  TSX2    XUO_RELOCATION_WRITE_ERROR

     4652    13354    2           OU_CLEAR='0'B;

  13354  2 000554   200102 470500                    LDP0    BUF_TEMP$,,AUTO
         2 000555   200101 720100                    LXL0    BOUND_TEMP,,AUTO
         2 000556   000140 100400                    MLR     fill='000'O
         2 000557   000002 000001 xsym               ADSC9   B_VECTNIL+2              cn=0,n=1
         2 000560   000000 000010                    ADSC9   0,,PR0                   cn=0,n=*X0

     4653    13355    2           RETURN;

  13355  2 000561   000000 702200 xent               TSX2  ! X66_ARET

     4654    13356    2           END;

     4655    13357         /*
     4656    13358         The following handles all records except head,program and relocation records.
PL6.E3A0      #019=XUO$OUWRITE File=XUO$BUILD.:E05TSI                            WED 07/30/97 09:33 Page:582
     4657    13359         NOTE: The record area is zeroed after the write.
     4658    13360         */
     4659    13361    1       XUO_OU_WRITE.BUF_.BOUND=BOUND_TEMP-1;

  13361  2 000562   000000 471400 xsym               LDP1    XUO_OU_WRITE$
         2 000563   200101 236100                    LDQ     BOUND_TEMP,,AUTO
         2 000564   000001 136007                    SBLQ    1,DL
         2 000565   000020 736000                    QLS     16
         2 000566   100004 676100                    ERQ     4,,PR1
         2 000567   000034 376000 xsym               ANQ     B_VECTNIL+28
         2 000570   100004 656100                    ERSQ    4,,PR1

     4660    13362    1       XUO_OU_WRITE.BUF_.BUF$=BUF_TEMP$;

  13362  2 000571   200102 236100                    LDQ     BUF_TEMP$,,AUTO
         2 000572   100005 756100                    STQ     5,,PR1

     4661    13363    1       B$OUKEY.TYPE=P_RECORD_TYPE;

  13363  2 000573   000000 236100                    LDQ     0,,PR0
         2 000574   000011 736000                    QLS     9
         2 000575   000001 552010 xsym               STBQ    B$OUKEY+1,'10'O

     4662    13364    1       B$OUKEY.PAGE=PAGE_TEMP;

  13364  2 000576   200103 236100                    LDQ     PAGE_TEMP,,AUTO
         2 000577   000001 552004 xsym               STBQ    B$OUKEY+1,'04'O

     4663    13365         /*
     4664    13366            If no debug was specified dont
     4665    13367            output any debug records.
     4666    13368            NOTE:  It is not the most
     4667    13369            efficient place to check but is
     4668    13370            is the most reliable.  The overhead
     4669    13371            to build the debug records should
     4670    13372            be minimal.  If not, the person
     4671    13373            calling the routines that build them
PL6.E3A0      #019=XUO$OUWRITE File=XUO$BUILD.:E05TSI                            WED 07/30/97 09:33 Page:583
     4672    13374            need not call them.
     4673    13375            */
     4674    13376    1       IF NOT (XUO_SCHEMA_REQUIRED='0'B AND P_RECORD_TYPE>10) THEN

  13376  2 000600   000000 234000 xsym               SZN     XUO_SCHEMA_REQUIRED
         2 000601   000605 604000 2                  TMI     s:13377
         2 000602   000000 235100                    LDA     0,,PR0
         2 000603   000013 115007                    CMPA    11,DL
         2 000604   000611 603000 2                  TRC     s:13378

     4675    13377    1           CALL M$WRITE (XUO_OU_WRITE) ALTRET(WRITE_ERROR);

  13377  2 000605   100000 630500                    EPPR0   0,,PR1
         2 000606   440001 713400                    CLIMB   alt,write
         2 000607   401400 401760                    pmme    nvectors=4
         2 000610   000617 702000 2                  TSX2    WRITE_ERROR

     4676    13378    1       OU_CLEAR='0'B;

  13378  2 000611   200102 470500                    LDP0    BUF_TEMP$,,AUTO
         2 000612   200101 720100                    LXL0    BOUND_TEMP,,AUTO
         2 000613   000140 100400                    MLR     fill='000'O
         2 000614   000002 000001 xsym               ADSC9   B_VECTNIL+2              cn=0,n=1
         2 000615   000000 000010                    ADSC9   0,,PR0                   cn=0,n=*X0

     4677    13379    1       RETURN;

  13379  2 000616   000000 702200 xent               TSX2  ! X66_ARET

  13378  2 000617                       WRITE_ERROR  null
     4678    13380            %PAGE (ARG=ERRORS);

             13393    1   /*******************************************************************************
             13394    1   *                                                                              *
             13395    1   *        ERRORS              ERRORS                                               *
             13396    1   *                                                                              *
             13397    1   *******************************************************************************/
PL6.E3A0      #019=XUO$OUWRITE File=XUO$BUILD.:E05TSI                            WED 07/30/97 09:33 Page:584

     4679    13401         /*
     4680    13402         The following handles the case of an error on writeing ou
     4681    13403         */
     4682    13404    1   WRITE_ERROR: ;
     4683    13405         /*
     4684    13406         The following will return the error code
     4685    13407         to the appropriate routine.
     4686    13408         Further i/o will be inhibited;  if
     4687    13409         the "close DCB" flag is set, a default
     4688    13410         close will be performed.
     4689    13411            */
     4690    13412    1       XUO_OU_WRITE_REQUIRED='0'B;

  13412  2 000617   000000 450000 xsym               STZ     XUO_OU_WRITE_REQUIRED

     4691    13413    1       IF XUO_ERROR_ROUTINE~=ENTADDR(NIL) THEN

  13413  2 000620   000000 236000 xsym               LDQ     XUO_ERROR_ROUTINE
         2 000621   000002 116000 xsym               CMPQ    B_VECTNIL+2
         2 000622   000655 600000 2                  TZE     s:13436

     4692    13414    2       DO;

     4693    13415    2           ERROR=B$TCB$->B$TCB.ALT$->B$ALT.ERR;

  13415  2 000623   000000 470400 xsym               LDP0    B$TCB$
         2 000624   000000 471500                    LDP1    0,,PR0
         2 000625   100102 236100                    LDQ     66,,PR1
         2 000626   200105 756100                    STQ     ERROR,,AUTO

     4694    13416        %IF CP6;
     4695    13417    2           IF P_RECORD_TYPE = %TYPPROG

  13417  2 000627   200003 471500                    LDP1    @P_RECORD_TYPE,,AUTO
         2 000630   100000 235100                    LDA     0,,PR1
         2 000631   000012 115007                    CMPA    10,DL
PL6.E3A0      #019=XUO$OUWRITE File=XUO$BUILD.:E05TSI                            WED 07/30/97 09:33 Page:585
         2 000632   000646 601000 2                  TNZ     s:13423
         2 000633   000000 473500                    LDP3    0,,PR0
         2 000634   300102 236100                    LDQ     66,,PR3
         2 000635   377770 376007                    ANQ     131064,DL
         2 000636   000750 116007                    CMPQ    488,DL
         2 000637   000646 601000 2                  TNZ     s:13423

     4696    13418    2              AND B$TCB$ -> B$TCB.ALT$ -> B$ALT.ERR.CODE = %E$OLDREC
     4697    13419    2           THEN
     4698    13420    2               CALL XUO_ERROR_ROUTINE (PRGM_RECORD_CONFLICT);

  13420  2 000640   000005 630400 3                  EPPR0   5
         2 000641   000000 220000 xsym               LDX0    XUO_ERROR_ROUTINE
         2 000642   000017 631400 xsym               EPPR1   B_VECTNIL+15
         2 000643   000000 701010                    TSX1    0,X0
         2 000644   000000 011000                    NOP     0
         2 000645   000655 710000 2                  TRA     s:13436

     4699    13421    2           ELSE
     4700    13422         %ENDIF;
     4701    13423    2               CALL XUO_ERROR_ROUTINE (ERROR);

  13423  2 000646   200105 633500                    EPPR3   ERROR,,AUTO
         2 000647   200106 453500                    STP3    ERROR+1,,AUTO
         2 000650   200106 630500                    EPPR0   ERROR+1,,AUTO
         2 000651   000000 220000 xsym               LDX0    XUO_ERROR_ROUTINE
         2 000652   000017 631400 xsym               EPPR1   B_VECTNIL+15
         2 000653   000000 701010                    TSX1    0,X0
         2 000654   000000 011000                    NOP     0

     4702    13424        /*E*  ERROR:   XUO-E$XUO#PRGM_RECORD_CONFLICT
     4703    13425              MESSAGE:A fatal error has occurred while building an object unit.  An attempt
     4704    13426                      has been made to output two "program record" values for the
     4705    13427                      same location in some control section.  This is not permitted,
     4706    13428                      and has resulted in a file-management error.
     4707    13429
     4708    13430                      Note that this error can occur only if the "trust me!" flag was
PL6.E3A0      #019=XUO$OUWRITE File=XUO$BUILD.:E05TSI                            WED 07/30/97 09:33 Page:586
     4709    13431                      set on the call to XUO$INIT;  otherwise, a "locations are being
     4710    13432                      written in nonascending order" error would have been reported
     4711    13433                      at some earlier time.  Trust is such a fragile thing...
     4712    13434        */
     4713    13435    2           END;

     4714    13436    1       IF XUO_CLOSE_REQUIRED THEN

  13436  2 000655   000000 234000 xsym               SZN     XUO_CLOSE_REQUIRED
         2 000656   000663 605000 2                  TPL     IGNORE_CLOSE_ERROR

     4715    13437    1           CALL M$CLOSE (XUO_OU_CLOSE) ALTRET(IGNORE_CLOSE_ERROR);

  13437  2 000657   000000 470400 xsym               LDP0    XUO_OU_CLOSE$
         2 000660   450001 713400                    CLIMB   alt,close
         2 000661   406000 401760                    pmme    nvectors=13
         2 000662   000663 702000 2                  TSX2    IGNORE_CLOSE_ERROR

  13436  2 000663                       IGNORE_CLOS* null
     4716    13438    1   IGNORE_CLOSE_ERROR: ;
     4717    13439    1       RETURN;

  13439  2 000663   000000 702200 xent               TSX2  ! X66_ARET

  13436  2 000664                       XUO_RELOCAT* null
     4718    13440         /*
     4719    13441            */
     4720    13442    1   XUO_RELOCATION_WRITE_ERROR: ;
     4721    13443         /*
     4722    13444         Check to see if relocation record with the same key exists. If so,
     4723    13445         it is not an error.
     4724    13446         NOTE: Flag is zero on entry.
     4725    13447         */
     4726    13448    1       IF B$TCB$->B$TCB.ALT$->B$ALT.ERR.CODE=%E$OLDREC THEN

  13448  2 000664   000000 470400 xsym               LDP0    B$TCB$
         2 000665   000000 471500                    LDP1    0,,PR0
PL6.E3A0      #019=XUO$OUWRITE File=XUO$BUILD.:E05TSI                            WED 07/30/97 09:33 Page:587
         2 000666   100102 236100                    LDQ     66,,PR1
         2 000667   377770 376007                    ANQ     131064,DL
         2 000670   000750 116007                    CMPQ    488,DL
         2 000671   000617 601000 2                  TNZ     WRITE_ERROR

     4727    13449         /*
     4728    13450         Handle the case of the error being a record exists
     4729    13451         */
     4730    13452    2       DO;

     4731    13453    2           IF B$RELKEY.KEYSIZ=11 THEN

  13453  2 000672   000000 473400 xsym               LDP3    B$RELKEY$
         2 000673   300000 236100                    LDQ     0,,PR3
         2 000674   777000 376003                    ANQ     -512,DU
         2 000675   013000 116003                    CMPQ    5632,DU
         2 000676   000701 601000 2                  TNZ     s:13456

     4732    13454    2               B$RELKEY.KEYSIZ=12;

  13454  2 000677   014000 236003                    LDQ     6144,DU
         2 000700   300000 552140                    STBQ    0,'40'O,PR3

     4733    13455        %IF CP6;
     4734    13456    2           IF B$RELKEY.SEQUENCE = 511

  13456  2 000701   000000 470400 xsym               LDP0    B$RELKEY$
         2 000702   000003 236100                    LDQ     3,,PR0
         2 000703   777000 376003                    ANQ     -512,DU
         2 000704   777000 116003                    CMPQ    -512,DU
         2 000705   000726 601000 2                  TNZ     s:13474

     4735    13457    3           THEN DO;

     4736    13458    3               IF XUO_ERROR_ROUTINE ~= ENTADDR(NIL)

  13458  2 000706   000000 236000 xsym               LDQ     XUO_ERROR_ROUTINE
PL6.E3A0      #019=XUO$OUWRITE File=XUO$BUILD.:E05TSI                            WED 07/30/97 09:33 Page:588
         2 000707   000002 116000 xsym               CMPQ    B_VECTNIL+2
         2 000710   000716 600000 2                  TZE     s:13467

     4737    13459    3               THEN
     4738    13460    3                   CALL XUO_ERROR_ROUTINE (RELOC_RECORD_CONFLICT);

  13460  2 000711   000006 630400 3                  EPPR0   6
         2 000712   000000 220000 xsym               LDX0    XUO_ERROR_ROUTINE
         2 000713   000017 631400 xsym               EPPR1   B_VECTNIL+15
         2 000714   000000 701010                    TSX1    0,X0
         2 000715   000000 011000                    NOP     0

     4739    13461        /*E*  ERROR:   XUO-E$XUO#RELOC_RECORD_CONFLICT
     4740    13462              MESSAGE:A fatal error has occurred while building an object unit.  An
     4741    13463                      attempt has been made to write more than 512 relocation records at
     4742    13464                      one location within a control section.  This error suggests that
     4743    13465                      an error may exist in the compiler/translator being used.
     4744    13466        */
     4745    13467    3               XUO_OU_WRITE_REQUIRED = '0'B;

  13467  2 000716   000000 450000 xsym               STZ     XUO_OU_WRITE_REQUIRED

     4746    13468    3               IF XUO_CLOSE_REQUIRED

  13468  2 000717   000000 234000 xsym               SZN     XUO_CLOSE_REQUIRED
         2 000720   000725 605000 2                  TPL     s:13471

     4747    13469    3               THEN
     4748    13470    3                   CALL M$CLOSE (XUO_OU_CLOSE) ALTRET (IGNORE_CLOSE_ERROR);

  13470  2 000721   000000 470400 xsym               LDP0    XUO_OU_CLOSE$
         2 000722   450001 713400                    CLIMB   alt,close
         2 000723   406000 401760                    pmme    nvectors=13
         2 000724   000663 702000 2                  TSX2    IGNORE_CLOSE_ERROR

     4749    13471    3               RETURN;

PL6.E3A0      #019=XUO$OUWRITE File=XUO$BUILD.:E05TSI                            WED 07/30/97 09:33 Page:589
  13471  2 000725   000000 702200 xent               TSX2  ! X66_ARET

     4750    13472    3               END;
     4751    13473        %ENDIF;
     4752    13474    2           B$RELKEY.SEQUENCE=B$RELKEY.SEQUENCE+1;

  13474  2 000726   000003 236100                    LDQ     3,,PR0
         2 000727   001000 036003                    ADLQ    512,DU
         2 000730   000003 552140                    STBQ    3,'40'O,PR0

     4753    13475    2           CALL M$WRITE (XUO_RELOCATION_WRITE) ALTRET(XUO_RELOCATION_WRITE_ERROR);

  13475  2 000731   000000 470400 xsym               LDP0    XUO_RELOCATION_WRITE$
         2 000732   440001 713400                    CLIMB   alt,write
         2 000733   401400 401760                    pmme    nvectors=4
         2 000734   000664 702000 2                  TSX2    XUO_RELOCATION_WRITE_ERROR

     4754    13476    2           B$RELKEY.KEYSIZ=11;

  13476  2 000735   000000 470400 xsym               LDP0    B$RELKEY$
         2 000736   013000 236003                    LDQ     5632,DU
         2 000737   000000 552140                    STBQ    0,'40'O,PR0

     4755    13477    2           B$RELKEY.SEQUENCE=0;

  13477  2 000740   000000 470400 xsym               LDP0    B$RELKEY$
         2 000741   000003 450100                    STZ     3,,PR0

     4756    13478    2           OU_CLEAR='0'B;

  13478  2 000742   200102 471500                    LDP1    BUF_TEMP$,,AUTO
         2 000743   200101 720100                    LXL0    BOUND_TEMP,,AUTO
         2 000744   000140 100400                    MLR     fill='000'O
         2 000745   000002 000001 xsym               ADSC9   B_VECTNIL+2              cn=0,n=1
         2 000746   100000 000010                    ADSC9   0,,PR1                   cn=0,n=*X0

     4757    13479    2           RETURN;
PL6.E3A0      #019=XUO$OUWRITE File=XUO$BUILD.:E05TSI                            WED 07/30/97 09:33 Page:590

  13479  2 000747   000000 702200 xent               TSX2  ! X66_ARET

     4758    13480    2           END;
     4759    13481    1       ELSE
     4760    13482         /*
     4761    13483         Indicate an error other than duplicate key.
     4762    13484         */
     4763    13485    1           GOTO WRITE_ERROR;
     4764    13486            %PAGE (ARG=XUO$OUOPEN);

             13499    1   /*******************************************************************************
             13500    1   *                                                                              *
             13501    1   *        XUO$OUOPEN              XUO$OUOPEN                                       *
             13502    1   *                                                                              *
             13503    1   *******************************************************************************/

     4765    13507    1   XUO$OUOPEN: ENTRY;

  13507  2 000750   000000 700200 xent  XUO$OUOPEN   TSX0  ! X66_AUTO_2
         2 000751   000110 000002                    ZERO    72,2

     4766    13508         /*
     4767    13509            The following sees if the
     4768    13510            ou file is to be output.  If not
     4769    13511            the file is not opened.
     4770    13512            */
     4771    13513    1       IF XUO_OU_DCB_NUMBER=DCBNUMNIL THEN

  13513  2 000752   000000 235000 xsym               LDA     XUO_OU_DCB_NUMBER
         2 000753   000755 601000 2                  TNZ     s:13516

     4772    13514    1           RETURN;

  13514  2 000754   000000 702200 xent               TSX2  ! X66_ARET

     4773    13515        %IF CP6;
PL6.E3A0      #019=XUO$OUWRITE File=XUO$BUILD.:E05TSI                            WED 07/30/97 09:33 Page:591
     4774    13516    1       IF DCBADDR(XUO_OU_DCB_NUMBER) -> F$DCB.ASN# ~= %FILE#

  13516  2 000755   000007 470400 3                  LDP0    7
         2 000756   000000 471500                    LDP1    0,,PR0
         2 000757   100000 473505                    LDP3    0,AL,PR1
         2 000760   300032 236100                    LDQ     26,,PR3
         2 000761   777000 376007                    ANQ     -512,DL
         2 000762   001000 116007                    CMPQ    512,DL
         2 000763   001011 600000 2                  TZE     s:13536
         2 000764   000000 720000 xsym               LXL0    XUO_OU_DCB_NUMBER
         2 000765   100000 473510                    LDP3    0,X0,PR1
         2 000766   300032 236100                    LDQ     26,,PR3
         2 000767   777000 376007                    ANQ     -512,DL
         2 000770   003000 116007                    CMPQ    1536,DL
         2 000771   000776 601000 2                  TNZ     s:13520
         2 000772   040000 106500                    CMPC    fill='040'O
         2 000773   300026 000004                    ADSC9   22,,PR3                  cn=0,n=4
         2 000774   000034 000002 1                  ADSC9   CLEAN_DELETE+10          cn=0,n=2
         2 000775   001011 600000 2                  TZE     s:13536

     4775    13517    1          AND (DCBADDR(XUO_OU_DCB_NUMBER) -> F$DCB.ASN# ~= %DEVICE# OR
     4776    13518    1          DCBADDR(XUO_OU_DCB_NUMBER) -> F$DCB.RES# ~= 'NO')
     4777    13519    2       THEN DO;

     4778    13520    2           IF XUO_ERROR_ROUTINE ~= ENTADDR(NIL)

  13520  2 000776   000000 236000 xsym               LDQ     XUO_ERROR_ROUTINE
         2 000777   000002 116000 xsym               CMPQ    B_VECTNIL+2
         2 001000   001006 600000 2                  TZE     s:13531

     4779    13521    2           THEN
     4780    13522    2               CALL XUO_ERROR_ROUTINE (ILLEGAL_OU_ASSIGNMENT);

  13522  2 001001   000010 630400 3                  EPPR0   8
         2 001002   000000 221000 xsym               LDX1    XUO_ERROR_ROUTINE
         2 001003   000017 631400 xsym               EPPR1   B_VECTNIL+15
         2 001004   000000 701011                    TSX1    0,X1
PL6.E3A0      #019=XUO$OUWRITE File=XUO$BUILD.:E05TSI                            WED 07/30/97 09:33 Page:592
         2 001005   000000 011000                    NOP     0

     4781    13523        /*E*  ERROR:   XUO-E$XUO#ILLEGAL_OU_ASSIGNMENT
     4782    13524              MESSAGE: An attempt has been made to create an object unit on some device
     4783    13525                       or medium that cannot be used in this way.  While it is possible
     4784    13526                       to store object units on tape once they have been created, all
     4785    13527                       object units must be initially built as CP-6 keyed disk files.
     4786    13528                       The only other "device" to which your object-unit DCB may be
     4787    13529                       assigned is the "NO" device (the trashcan).
     4788    13530        */
     4789    13531    2           XUO_OU_WRITE_REQUIRED = %NO#;

  13531  2 001006   000000 450000 xsym               STZ     XUO_OU_WRITE_REQUIRED

     4790    13532    2           XUO_CLOSE_REQUIRED = %NO#;

  13532  2 001007   000000 450000 xsym               STZ     XUO_CLOSE_REQUIRED

     4791    13533    2           RETURN;

  13533  2 001010   000000 702200 xent               TSX2  ! X66_ARET

     4792    13534    2           END;
     4793    13535        %ENDIF;
     4794    13536    1       IF XUO_CLOSE_REQUIRED

  13536  2 001011   000000 234000 xsym               SZN     XUO_CLOSE_REQUIRED
         2 001012   001020 604000 2                  TMI     s:13541
         2 001013   000000 720000 xsym               LXL0    XUO_OU_DCB_NUMBER
         2 001014   100000 473510                    LDP3    0,X0,PR1
         2 001015   300031 236100                    LDQ     25,,PR3
         2 001016   020000 316007                    CANQ    8192,DL
         2 001017   001024 601000 2                  TNZ     s:13542

     4795    13537         %IF ~GCOS;
     4796    13538    1          OR NOT DCBADDR(XUO_OU_DCB_NUMBER) -> F$DCB.FCD#
     4797    13539         %ENDIF;
PL6.E3A0      #019=XUO$OUWRITE File=XUO$BUILD.:E05TSI                            WED 07/30/97 09:33 Page:593
     4798    13540    1       THEN
     4799    13541    1           CALL M$OPEN(XUO_OU_OPEN) ALTRET(XUO_OU_OPEN_ERROR);

  13541  2 001020   000000 470400 xsym               LDP0    XUO_OU_OPEN$
         2 001021   450000 713400                    CLIMB   alt,open
         2 001022   410400 401760                    pmme    nvectors=18
         2 001023   001027 702000 2                  TSX2    XUO_OU_OPEN_ERROR

     4800    13542    1       XUO_OU_WRITE_REQUIRED='1'B;

  13542  2 001024   400000 236003                    LDQ     -131072,DU
         2 001025   000000 756000 xsym               STQ     XUO_OU_WRITE_REQUIRED

     4801    13543    1       RETURN;

  13543  2 001026   000000 702200 xent               TSX2  ! X66_ARET

  13542  2 001027                       XUO_OU_OPEN* null
     4802    13544         /*
     4803    13545         The following handles the case of an error on the open of
     4804    13546         the ou/oulo file.
     4805    13547         XUO_OU_OPEN_ERROR* ;
     4806    13548         */
     4807    13549    1   XUO_OU_OPEN_ERROR: ;
     4808    13550    1       IF XUO_ERROR_ROUTINE~=ENTADDR(NIL) THEN

  13550  2 001027   000000 236000 xsym               LDQ     XUO_ERROR_ROUTINE
         2 001030   000002 116000 xsym               CMPQ    B_VECTNIL+2
         2 001031   001045 600000 2                  TZE     s:13555

     4809    13551    2       DO;

     4810    13552    2           ERROR=B$TCB$->B$TCB.ALT$->B$ALT.ERR;

  13552  2 001032   000000 470400 xsym               LDP0    B$TCB$
         2 001033   000000 471500                    LDP1    0,,PR0
         2 001034   100102 236100                    LDQ     66,,PR1
PL6.E3A0      #019=XUO$OUWRITE File=XUO$BUILD.:E05TSI                            WED 07/30/97 09:33 Page:594
         2 001035   200105 756100                    STQ     ERROR,,AUTO

     4811    13553    2           CALL XUO_ERROR_ROUTINE(ERROR);

  13553  2 001036   200105 631500                    EPPR1   ERROR,,AUTO
         2 001037   200106 451500                    STP1    ERROR+1,,AUTO
         2 001040   200106 630500                    EPPR0   ERROR+1,,AUTO
         2 001041   000000 220000 xsym               LDX0    XUO_ERROR_ROUTINE
         2 001042   000017 631400 xsym               EPPR1   B_VECTNIL+15
         2 001043   000000 701010                    TSX1    0,X0
         2 001044   000000 011000                    NOP     0

     4812    13554    2           END;

     4813    13555    1       RETURN;

  13555  2 001045   000000 702200 xent               TSX2  ! X66_ARET

     4814    13556            %PAGE (ARG=XUO$OUCLOSE);

             13569    1   /*******************************************************************************
             13570    1   *                                                                              *
             13571    1   *        XUO$OUCLOSE              XUO$OUCLOSE                                     *
             13572    1   *                                                                              *
             13573    1   *******************************************************************************/

     4815    13577    1   XUO$OUCLOSE: ENTRY;

  13577  2 001046   000000 700200 xent  XUO$OUCLOSE  TSX0  ! X66_AUTO_2
         2 001047   000110 000002                    ZERO    72,2

     4816    13578         /*
     4817    13579            See if need to do anything
     4818    13580         NOTE: Do not close lo FILE...IT will be closed later
     4819    13581         */
     4820    13582    1       IF XUO_OU_WRITE_REQUIRED='1'B AND XUO_CLOSE_REQUIRED='1'B THEN

PL6.E3A0      #019=XUO$OUWRITE File=XUO$BUILD.:E05TSI                            WED 07/30/97 09:33 Page:595
  13582  2 001050   000000 234000 xsym               SZN     XUO_OU_WRITE_REQUIRED
         2 001051   001060 605000 2                  TPL     IGNORE_CLOSE_ERROR_1
         2 001052   000000 234000 xsym               SZN     XUO_CLOSE_REQUIRED
         2 001053   001060 605000 2                  TPL     IGNORE_CLOSE_ERROR_1

     4821    13583    1           CALL M$CLOSE (XUO_OU_CLOSE) ALTRET(IGNORE_CLOSE_ERROR_1);

  13583  2 001054   000000 470400 xsym               LDP0    XUO_OU_CLOSE$
         2 001055   450001 713400                    CLIMB   alt,close
         2 001056   406000 401760                    pmme    nvectors=13
         2 001057   001060 702000 2                  TSX2    IGNORE_CLOSE_ERROR_1

  13582  2 001060                       IGNORE_CLOS* null
     4822    13584    1   IGNORE_CLOSE_ERROR_1: ;
     4823    13585    1       RETURN;

  13585  2 001060   000000 702200 xent               TSX2  ! X66_ARET
     4824    13586    1   END XUO$OUWRITE;
     4825    13587        %EOD;

PL6.E3A0      #019=XUO$OUWRITE File=XUO$BUILD.:E05TSI                            WED 07/30/97 09:33 Page:596
--  Include file information  --

   XUM_ENTRIES_C.:E05TOU  is referenced.
   B_ERRORS_C.:E05TOU  is referenced.
   XU_PERR_C.:E05TOU  is referenced.
   XUO$OBJ_C.:E05TOU  is referenced.
   B$OBJECT_C.:E05TOU  is referenced.
   CP_6_SUBS.:E05TOU  is referenced.
   CP_6_C.:E05TOU  is referenced.
   CP_6.:E05TOU  cannot be made into a system file and is referenced.
   ZVA_FLAGS.:TOOLE04  is referenced.
   ZVA_SYSTEM_FILE.:TOOLE04  is referenced.
      No diagnostics issued in procedure XUO$OUWRITE.
PL6.E3A0      #019=XUO$OUWRITE File=XUO$BUILD.:E05TSI                            WED 07/30/97 09:33 Page:597

 **** Variables and constants ****

  ****  Section 001 RoData XUO$OUWRITE

  ****  Scalars and arrays  ****
OctLoc.c.b A Datatyp(siz) R M Lvl/name                 OctLoc.c.b A Datatyp(siz) R M Lvl/name

    22-0-0/d STRC(360)   r     1 CLEAN_DELETE               4-0-0/d STRC(504)   r     1 CLEAN_READ
     2-0-0/w STRC        r     1 ILLEGAL_OU_ASSIGNMENT
     0-0-0/w STRC        r     1 PRGM_RECORD_CONFLICT
     1-0-0/w STRC        r     1 RELOC_RECORD_CONFLICT

  ****  Auto variables  ****

  ****  Scalars and arrays  ****
OctLoc.c.b A Datatyp(siz) R M Lvl/name                 OctLoc.c.b A Datatyp(siz) R M Lvl/name

     3-0-0/w PTR         r     1 @P_RECORD_TYPE             4-0-0/w PTR         r     1 @P_SECTION_NUMBER
   101-0-0/w UBIN        r     1 BOUND_TEMP               102-0-0/w PTR         r     1 BUF_TEMP$
    66-0-0/d STRC(360)   r     1 DELETE_OLD               105-0-0/b STRC        r     1 ERROR
    43-0-0/w STRC(72)    r     1 FIRST_RECORD              45-0-0/w STRC(72)    r     1 LAST_RECORD
     6-0-0/w STRC(1044)  r     1 OLD_HEAD_RECORD          103-0-0/w UBIN        r     1 PAGE_TEMP
    *0-0-0/w UBIN        r     1 P_RECORD_TYPE             *0-0-0/w UBIN        r     1 P_SECTION_NUMBER
    50-0-0/d STRC(504)   r     1 READ_OLD_HEAD            100-0-0/w UBIN        r     1 SECTION_NUMBER

  ****  SYMREF variables  ****

  ****  Scalars and arrays  ****
OctLoc.c.b A Datatyp(siz) R M Lvl/name                 OctLoc.c.b A Datatyp(siz) R M Lvl/name

     0-0-0/w PTR         r     1 B$OUHEAD$                  0-0-0/w STRC(72)    r     1 B$OUKEY
     0-0-0/w PTR         r     1 B$PRGKEY$                  0-0-0/w PTR         r     1 B$RELKEY$
     0-0-0/w PTR         r     1 B$TCB$                     0-0-0/w PTR         r     1 B_DBGNAME_BASE$
     0-0-0/w PTR         r     1 B_DBGNAME_CUR$             0-0-0/w SBIN        r     1 B_DBGNAME_PAGE
     0-0-0/w PTR         r     1 B_DNAME_BASE$              0-0-0/w PTR         r     1 B_DNAME_CUR$
     0-0-0/w SBIN        r     1 B_DNAME_PAGE               0-0-0/w PTR         r     1 B_EDEF_BASE$
     0-0-0/w PTR         r     1 B_EDEF_CUR$                0-0-0/w SBIN        r     1 B_EDEF_PAGE
PL6.E3A0      #019=XUO$OUWRITE File=XUO$BUILD.:E05TSI                            WED 07/30/97 09:33 Page:598
     0-0-0/w PTR         r     1 B_EREF_BASE$               0-0-0/w PTR         r     1 B_EREF_CUR$
     0-0-0/w SBIN        r     1 B_EREF_PAGE                0-0-0/w PTR         r     1 B_EXST_BASE$
     0-0-0/w PTR         r     1 B_EXST_CUR$                0-0-0/w SBIN        r     1 B_EXST_PAGE
     0-0-0/w PTR         r     1 B_INTNTRY_BASE$            0-0-0/w PTR         r     1 B_INTNTRY_CUR$
     0-0-0/w SBIN        r     1 B_INTNTRY_PAGE             0-0-0/w PTR         r     1 B_LOGBLK_CUR$
     0-0-0/w PTR         r     1 B_LOGBLK_ENTRY0$           0-0-0/w SBIN        r     1 B_LOGBLK_PAGE
     0-0-0/w PTR         r     1 B_RNAME_BASE$              0-0-0/w PTR         r     1 B_RNAME_CUR$
     0-0-0/w SBIN        r     1 B_RNAME_PAGE               0-0-0/w PTR         r     1 B_SDEF_BASE$
     0-0-0/w PTR         r     1 B_SDEF_CUR$                0-0-0/w SBIN        r     1 B_SDEF_PAGE
     0-0-0/w PTR         r     1 B_SECTION_BASE$            0-0-0/w PTR         r     1 B_SECTION_CUR$
     0-0-0/w PTR         r     1 B_SEGDEF_BASE$             0-0-0/w PTR         r     1 B_SEGDEF_CUR$
     0-0-0/w SBIN        r     1 B_SEGDEF_PAGE              0-0-0/w PTR         r     1 B_SEGREF_BASE$
     0-0-0/w PTR         r     1 B_SEGREF_CUR$              0-0-0/w SBIN        r     1 B_SEGREF_PAGE
     0-0-0/w PTR         r     1 B_SREF_BASE$               0-0-0/w PTR         r     1 B_SREF_CUR$
     0-0-0/w SBIN        r     1 B_SREF_PAGE                0-0-0/w PTR         r     1 B_VREBL_BASE$
     0-0-0/w PTR         r     1 B_VREBL_CUR$               0-0-0/w SBIN        r     1 B_VREBL_PAGE
     0-0-0/w PTR         r     1 PTR2_SECTION_ARRAY$        0-0-0/w BIT         r     1 XUO_CLOSE_REQUIRED
     0-0-0/w EPTR        r     1 XUO_ERROR_ROUTINE          0-0-0/w PTR         r     1 XUO_HEAD_WRITE$
     0-0-0/w PTR         r     1 XUO_OU_CLOSE$              0-0-0/w SBIN        r     1 XUO_OU_DCB_NUMBER
     0-0-0/w PTR         r     1 XUO_OU_OPEN$               0-0-0/w PTR         r     1 XUO_OU_WRITE$
     0-0-0/b BIT         r     1 XUO_OU_WRITE_REQUIRED
     0-0-0/w PTR         r     1 XUO_PROGRAM_WRITE$
     0-0-0/w PTR         r     1 XUO_RELOCATION_WRITE$
     0-0-0/w BIT         r     1 XUO_SCHEMA_REQUIRED

  ****  BASED and DCB variables  ****

  ****  Scalars and arrays  ****
OctLoc.c.b A Datatyp(siz) R M Lvl/name                 OctLoc.c.b A Datatyp(siz) R M Lvl/name

     0-0-0/w STRC(2448)  r     1 B$ALT                      0-0-0/w STRC(1044)  r     1 B$OUHEAD
     0-0-0/w STRC(117)   r     1 B$PRGKEY                   0-0-0/w STRC(117)   r     1 B$RELKEY
     0-0-0/w STRC(144)   r     1 B$TCB                      0-0-0/d ASTR(3528)  r     1 F$DCB
     0-0-0/c ASTR(0)     r     1 OU_CLEAR
     0-0-0/w STRC(288)   r     1 SECTION_ARRAY(0:0)
     0-0-0/d STRC(432)   r     1 XUO_HEAD_WRITE             0-0-0/d STRC(1080)  r     1 XUO_OU_CLOSE
     0-0-0/d STRC(2088)  r     1 XUO_OU_OPEN                0-0-0/d STRC(432)   r     1 XUO_OU_WRITE
PL6.E3A0      #019=XUO$OUWRITE File=XUO$BUILD.:E05TSI                            WED 07/30/97 09:33 Page:599
     0-0-0/d STRC(432)   r     1 XUO_PROGRAM_WRITE          0-0-0/d STRC(432)   r     1 XUO_RELOCATION_WRITE


   Procedure XUO$OUWRITE requires 561 words for executable code.
   Procedure XUO$OUWRITE requires 72 words of local(AUTO) storage.
PL6.E3A0      #019=XUO$OUWRITE File=XUO$BUILD.:E05TSI                            WED 07/30/97 09:33 Page:600
          *** CROSS REFERENCE LISTING ***
**     DENOTES     IDENTIFIER DEFINITION
<<                 IDENTIFIER'S VALUE SET
>>                 IDENTIFIER'S VALUE USED
<>                 IDENTIFIER SET AND/OR USED
--                 IDENTIFIER REFERENCED
PL6.E3A0      #019=XUO$OUWRITE File=XUO$BUILD.:E05TSI                            WED 07/30/97 09:33 Page:601
          MINI XREF LISTING

B$ALT.CODE
     13046**DCL     13046--REDEF   13047--REDEF   13047--REDEF
B$ALT.ERR
     13047**DCL     13415>>ASSIGN  13552>>ASSIGN
B$ALT.ERR.CODE
     13048**DCL     13237>>IF      13417>>IF      13448>>IF
B$ALT.ERR.ERR#
     13048**DCL     13048--REDEF
B$ALT.EVID
     13047**DCL     13047--REDEF   13047--REDEF
B$OUHEAD.UTS
     12095**DCL     13246>>ASSIGN  13249>>IF
B$OUHEAD.VERSION
     12112**DCL     12114--REDEF
B$OUHEAD$
     12092**DCL     12094--IMP-PTR 13246>>ASSIGN  13249>>IF
B$OUKEY.PAGE
     11997**DCL     13364<<ASSIGN
B$OUKEY.TYPE
     11979**DCL     13363<<ASSIGN
B$PRGKEY.OFFSET
     12054**DCL     13306<<ASSIGN
B$PRGKEY.SECTNUM
     12051**DCL     13307<<ASSIGN
B$PRGKEY$
     12037**DCL     12039--IMP-PTR 13306>>ASSIGN  13307>>ASSIGN
B$RELKEY.KEYSIZ
     12007**DCL     13453>>IF      13454<<ASSIGN  13476<<ASSIGN
B$RELKEY.OFFSET
     12021**DCL     13341<<ASSIGN
B$RELKEY.SECTNUM
     12018**DCL     13342<<ASSIGN
PL6.E3A0      #019=XUO$OUWRITE File=XUO$BUILD.:E05TSI                            WED 07/30/97 09:33 Page:602
B$RELKEY.SEQUENCE
     12029**DCL     13456>>IF      13474<<ASSIGN  13474>>ASSIGN  13477<<ASSIGN
B$RELKEY$
     12036**DCL     12006--IMP-PTR 13341>>ASSIGN  13342>>ASSIGN  13453>>IF      13454>>ASSIGN  13456>>IF
     13474>>ASSIGN  13474>>ASSIGN  13476>>ASSIGN  13477>>ASSIGN
B$TCB.ALT$
     13042**DCL     13237>>IF      13415>>ASSIGN  13417>>IF      13448>>IF      13552>>ASSIGN
B$TCB$
     13052**DCL     13237>>IF      13415>>ASSIGN  13417>>IF      13448>>IF      13552>>ASSIGN
BOUND_TEMP
     13016**DCL     13082--IMP-SIZ 13269<<ASSIGN  13273<<ASSIGN  13277<<ASSIGN  13281<<ASSIGN  13285<<ASSIGN
     13289<<ASSIGN  13293<<ASSIGN  13297<<ASSIGN  13301<<ASSIGN  13309<<ASSIGN  13311>>ASSIGN  13314>>ASSIGN
     13318<<ASSIGN  13322<<ASSIGN  13326<<ASSIGN  13330<<ASSIGN  13334<<ASSIGN  13344<<ASSIGN  13347>>ASSIGN
     13354>>ASSIGN  13361>>ASSIGN  13378>>ASSIGN  13478>>ASSIGN
BUF_TEMP$
     13017**DCL     13081--IMP-PTR 13270<<ASSIGN  13274<<ASSIGN  13278<<ASSIGN  13282<<ASSIGN  13286<<ASSIGN
     13290<<ASSIGN  13294<<ASSIGN  13298<<ASSIGN  13302<<ASSIGN  13310<<ASSIGN  13312>>ASSIGN  13314>>ASSIGN
     13319<<ASSIGN  13323<<ASSIGN  13327<<ASSIGN  13331<<ASSIGN  13335<<ASSIGN  13346<<ASSIGN  13348>>ASSIGN
     13354>>ASSIGN  13362>>ASSIGN  13378>>ASSIGN  13478>>ASSIGN
B_DBGNAME_BASE$
     11688**DCL     13334>>ASSIGN  13335>>ASSIGN
B_DBGNAME_CUR$
     11689**DCL     13334>>ASSIGN
B_DBGNAME_PAGE
     11692**DCL     13336>>ASSIGN
B_DNAME_BASE$
     11648**DCL     13269>>ASSIGN  13270>>ASSIGN
B_DNAME_CUR$
     11649**DCL     13269>>ASSIGN
B_DNAME_PAGE
     11652**DCL     13271>>ASSIGN
B_EDEF_BASE$
     11727**DCL     13281>>ASSIGN  13282>>ASSIGN
B_EDEF_CUR$
     11728**DCL     13281>>ASSIGN
B_EDEF_PAGE
PL6.E3A0      #019=XUO$OUWRITE File=XUO$BUILD.:E05TSI                            WED 07/30/97 09:33 Page:603
     11731**DCL     13283>>ASSIGN
B_EREF_BASE$
     11747**DCL     13285>>ASSIGN  13286>>ASSIGN
B_EREF_CUR$
     11748**DCL     13285>>ASSIGN
B_EREF_PAGE
     11751**DCL     13287>>ASSIGN
B_EXST_BASE$
     11919**DCL     13326>>ASSIGN  13327>>ASSIGN
B_EXST_CUR$
     11920**DCL     13326>>ASSIGN
B_EXST_PAGE
     11923**DCL     13328>>ASSIGN
B_INTNTRY_BASE$
     11899**DCL     13322>>ASSIGN  13323>>ASSIGN
B_INTNTRY_CUR$
     11900**DCL     13322>>ASSIGN
B_INTNTRY_PAGE
     11903**DCL     13324>>ASSIGN
B_LOGBLK_CUR$
     11880**DCL     13318>>ASSIGN
B_LOGBLK_ENTRY0$
     11878**DCL     13318>>ASSIGN  13319>>ASSIGN
B_LOGBLK_PAGE
     11883**DCL     13320>>ASSIGN
B_RNAME_BASE$
     11668**DCL     13273>>ASSIGN  13274>>ASSIGN
B_RNAME_CUR$
     11669**DCL     13273>>ASSIGN
B_RNAME_PAGE
     11672**DCL     13275>>ASSIGN
B_SDEF_BASE$
     11767**DCL     13289>>ASSIGN  13290>>ASSIGN
B_SDEF_CUR$
     11768**DCL     13289>>ASSIGN
B_SDEF_PAGE
PL6.E3A0      #019=XUO$OUWRITE File=XUO$BUILD.:E05TSI                            WED 07/30/97 09:33 Page:604
     11771**DCL     13291>>ASSIGN
B_SECTION_BASE$
     11708**DCL     13277>>ASSIGN  13278>>ASSIGN
B_SECTION_CUR$
     11709**DCL     13277>>ASSIGN
B_SEGDEF_BASE$
     11807**DCL     13297>>ASSIGN  13298>>ASSIGN
B_SEGDEF_CUR$
     11808**DCL     13297>>ASSIGN
B_SEGDEF_PAGE
     11811**DCL     13299>>ASSIGN
B_SEGREF_BASE$
     11827**DCL     13301>>ASSIGN  13302>>ASSIGN
B_SEGREF_CUR$
     11828**DCL     13301>>ASSIGN
B_SEGREF_PAGE
     11831**DCL     13303>>ASSIGN
B_SREF_BASE$
     11787**DCL     13293>>ASSIGN  13294>>ASSIGN
B_SREF_CUR$
     11788**DCL     13293>>ASSIGN
B_SREF_PAGE
     11791**DCL     13295>>ASSIGN
B_VREBL_BASE$
     11939**DCL     13330>>ASSIGN  13331>>ASSIGN
B_VREBL_CUR$
     11940**DCL     13330>>ASSIGN
B_VREBL_PAGE
     11943**DCL     13332>>ASSIGN
CLEAN_DELETE
     12863**DCL     13259>>ASSIGN
CLEAN_DELETE.V
     12866**DCL     12863--DCLINIT
CLEAN_READ
     12791**DCL     13241>>ASSIGN
CLEAN_READ.STATION_
PL6.E3A0      #019=XUO$OUWRITE File=XUO$BUILD.:E05TSI                            WED 07/30/97 09:33 Page:605
     12794**DCL     12795--REDEF
CLEAN_READ.V
     12795**DCL     12791--DCLINIT
CLEAN_READ.V.DVBYTE.REREAD#
     12806**DCL     12806--REDEF
CLEAN_READ.V.INDX#
     12804**DCL     12804--REDEF
DELETE_OLD
     12882**DCL     13259<<ASSIGN  13264<>CALL
DELETE_OLD.KEY_
     12882**DCL     13262<<ASSIGN
DELETE_OLD.LKEY_
     12884**DCL     13263<<ASSIGN
DELETE_OLD.V
     12885**DCL     13260--ASSIGN
DELETE_OLD.V.DCB#
     12886**DCL     13261<<ASSIGN
DELETE_OLD.V_
     12882**DCL     13260<<ASSIGN
ERROR
     13054**DCL     13415<<ASSIGN  13423<>CALL    13552<<ASSIGN  13553<>CALL
F$DCB.ACTPOS
     13116**DCL     13116--REDEF
F$DCB.ARS#
     13090**DCL     13090--REDEF
F$DCB.ASN#
     13105**DCL     13516>>IF      13516>>IF
F$DCB.ATTR
     13109**DCL     13110--REDEF
F$DCB.BORROW
     13124**DCL     13124--REDEF   13124--REDEF   13124--REDEF
F$DCB.DCBNAME.L
     13138**DCL     13138--IMP-SIZ
F$DCB.EOMCHAR#
     13094**DCL     13094--REDEF
F$DCB.FCD#
PL6.E3A0      #019=XUO$OUWRITE File=XUO$BUILD.:E05TSI                            WED 07/30/97 09:33 Page:606
     13103**DCL     13536>>IF
F$DCB.FLDID
     13119**DCL     13119--REDEF
F$DCB.FORM$
     13113**DCL     13113--REDEF
F$DCB.FSECT
     13129**DCL     13129--REDEF
F$DCB.FSN#
     13106**DCL     13106--REDEF   13106--REDEF   13107--REDEF
F$DCB.HEADER$
     13112**DCL     13112--REDEF
F$DCB.IXTNSIZE#
     13110**DCL     13110--REDEF
F$DCB.LASTSTA$
     13099**DCL     13099--REDEF
F$DCB.LVL
     13125**DCL     13125--REDEF
F$DCB.NAME#.C
     13100**DCL     13100--REDEF
F$DCB.NOEOF
     13122**DCL     13122--REDEF
F$DCB.NRECS#
     13111**DCL     13111--REDEF
F$DCB.NRECX
     13130**DCL     13130--REDEF
F$DCB.OHDR
     13122**DCL     13122--REDEF
F$DCB.ORG#
     13105**DCL     13105--REDEF
F$DCB.PRECNO
     13128**DCL     13128--REDEF
F$DCB.RCSZ
     13134**DCL     13134--REDEF
F$DCB.RES#
     13101**DCL     13101--REDEF   13516>>IF
F$DCB.SETX
PL6.E3A0      #019=XUO$OUWRITE File=XUO$BUILD.:E05TSI                            WED 07/30/97 09:33 Page:607
     13113**DCL     13113--REDEF
F$DCB.TAB$
     13113**DCL     13113--REDEF
F$DCB.TDA
     13127**DCL     13128--REDEF
F$DCB.WSN#
     13101**DCL     13101--REDEF
FIRST_RECORD
     12331**DCL     13262--ASSIGN
FIRST_RECORD.KEYSIZ
     12332**DCL     13251<<ASSIGN
FIRST_RECORD.NOTHD
     12335**DCL     13252<<ASSIGN
FIRST_RECORD.UTS
     12337**DCL     13253<<ASSIGN
HEAD_WRITE_ALTRET
     13237**LABEL   13235--CALLALT
IGNORE_CLOSE_ERROR
     13436**LABEL   13437--CALLALT 13470--CALLALT
IGNORE_CLOSE_ERROR_1
     13582**LABEL   13583--CALLALT
IGNORE_DELREC_ALTRET
     13265**LABEL   13264--CALLALT
ILLEGAL_OU_ASSIGNMENT
     12507**DCL     13522<>CALL
LAST_RECORD
     12367**DCL     13263--ASSIGN
LAST_RECORD.KEYSIZ
     12368**DCL     13254<<ASSIGN
LAST_RECORD.NOTHD
     12371**DCL     13255<<ASSIGN
LAST_RECORD.PAGE
     12394**DCL     13258<<ASSIGN
LAST_RECORD.TYPE
     12376**DCL     13257<<ASSIGN
LAST_RECORD.UTS
PL6.E3A0      #019=XUO$OUWRITE File=XUO$BUILD.:E05TSI                            WED 07/30/97 09:33 Page:608
     12373**DCL     13256<<ASSIGN
M$CLOSE
      5617**DCL-ENT 13437--CALL    13470--CALL    13583--CALL
M$DELREC
      5619**DCL-ENT 13264--CALL
M$OPEN
      5617**DCL-ENT 13541--CALL
M$READ
      5618**DCL-ENT 13247--CALL
M$WRITE
      5618**DCL-ENT 13235--CALL    13248--CALL    13313--CALL    13353--CALL    13377--CALL    13475--CALL
OLD_HEAD_RECORD
     12213**DCL     13244--ASSIGN
OLD_HEAD_RECORD.UTS
     12214**DCL     13246<<ASSIGN  13249>>IF      13253>>ASSIGN  13256>>ASSIGN
OLD_HEAD_RECORD.VERSION
     12231**DCL     12233--REDEF
OU_CLEAR
     13081**DCL     13314<<ASSIGN  13354<<ASSIGN  13378<<ASSIGN  13478<<ASSIGN
PAGE_TEMP
     13018**DCL     13271<<ASSIGN  13275<<ASSIGN  13279<<ASSIGN  13283<<ASSIGN  13287<<ASSIGN  13291<<ASSIGN
     13295<<ASSIGN  13299<<ASSIGN  13303<<ASSIGN  13320<<ASSIGN  13324<<ASSIGN  13328<<ASSIGN  13332<<ASSIGN
     13336<<ASSIGN  13364>>ASSIGN
PRGM_RECORD_CONFLICT
     12415**DCL     13420<>CALL
PTR2_SECTION_ARRAY$
     13154**DCL     13157--IMP-PTR 13306>>ASSIGN  13309>>ASSIGN  13310>>ASSIGN  13341>>ASSIGN  13344>>ASSIGN
     13346>>ASSIGN
P_RECORD_TYPE
     12992**DCL       103--PROC    13225>>DOCASE  13363>>ASSIGN  13376>>IF      13417>>IF
P_SECTION_NUMBER
     12993**DCL       103--PROC    13221--IF      13224>>ASSIGN
READ_OLD_HEAD
     12830**DCL     13241<<ASSIGN  13247<>CALL
READ_OLD_HEAD.BUF_
     12832**DCL     13244<<ASSIGN
PL6.E3A0      #019=XUO$OUWRITE File=XUO$BUILD.:E05TSI                            WED 07/30/97 09:33 Page:609
READ_OLD_HEAD.KEY_
     12830**DCL     13245<<ASSIGN
READ_OLD_HEAD.STATION_
     12833**DCL     12834--REDEF
READ_OLD_HEAD.V
     12834**DCL     13242--ASSIGN
READ_OLD_HEAD.V.DCB#
     12834**DCL     13243<<ASSIGN
READ_OLD_HEAD.V.DVBYTE.REREAD#
     12845**DCL     12845--REDEF
READ_OLD_HEAD.V.INDX#
     12843**DCL     12843--REDEF
READ_OLD_HEAD.V_
     12830**DCL     13242<<ASSIGN
RELOC_RECORD_CONFLICT
     12461**DCL     13460<>CALL
SECTION_ARRAY.BUF_OFFSET
     13164**DCL     13306>>ASSIGN  13341>>ASSIGN
SECTION_ARRAY.PROGRAM_CURS
     13158**DCL     13309>>ASSIGN
SECTION_ARRAY.PTR2_PROGRAM_BUF$
     13162**DCL     13310>>ASSIGN
SECTION_ARRAY.PTR2_RELOCATION_BUF$
     13163**DCL     13346>>ASSIGN
SECTION_ARRAY.RELOCATION_CURS
     13159**DCL     13344>>ASSIGN
SECTION_NUMBER
     13015**DCL     13222<<ASSIGN  13224<<ASSIGN  13306>>ASSIGN  13307>>ASSIGN  13309>>ASSIGN  13310>>ASSIGN
     13341>>ASSIGN  13342>>ASSIGN  13344>>ASSIGN  13346>>ASSIGN
WRITE_ERROR
     13378**LABEL   13238--GOTO    13248--CALLALT 13313--CALLALT 13377--CALLALT 13485--GOTO
WRITE_HEAD
     13235**LABEL   13247--CALLALT
XUO_CLOSE_REQUIRED
     13193**DCL     13436>>IF      13468>>IF      13532<<ASSIGN  13536>>IF      13582>>IF
XUO_ERROR_ROUTINE
PL6.E3A0      #019=XUO$OUWRITE File=XUO$BUILD.:E05TSI                            WED 07/30/97 09:33 Page:610
     13192**DCL     13413>>IF      13420>>CALL    13423>>CALL    13458>>IF      13460>>CALL    13520>>IF
     13522>>CALL    13550>>IF      13553>>CALL
XUO_HEAD_WRITE
     12697**DCL     13235<>CALL    13248<>CALL
XUO_HEAD_WRITE.KEY_
     12697**DCL     13245>>ASSIGN
XUO_HEAD_WRITE.STATION_
     12699**DCL     12699--REDEF
XUO_HEAD_WRITE.V.DVBYTE.VFC#
     12706**DCL     12706--REDEF
XUO_HEAD_WRITE.V.NEWKEY#
     12703**DCL     13230<<ASSIGN  13239<<ASSIGN
XUO_HEAD_WRITE.V.ONEWKEY#
     12702**DCL     13231<<ASSIGN  13240<<ASSIGN
XUO_HEAD_WRITE$
     12679**DCL     12697--IMP-PTR 13230>>ASSIGN  13231>>ASSIGN  13235>>CALL    13239>>ASSIGN  13240>>ASSIGN
     13245>>ASSIGN  13248>>CALL
XUO_OU_CLOSE
     12952**DCL     13437<>CALL    13470<>CALL    13583<>CALL
XUO_OU_CLOSE.SN_
     12952**DCL     12952--REDEF
XUO_OU_CLOSE.UTL_
     12953**DCL     12953--REDEF
XUO_OU_CLOSE.V.EXPIRE#
     12967**DCL     12967--REDEF
XUO_OU_CLOSE.V.TYPE#
     12965**DCL     12965--REDEF
XUO_OU_CLOSE.V.XTNSIZE#
     12962**DCL     12962--REDEF   12964--REDEF
XUO_OU_CLOSE$
     12928**DCL     12952--IMP-PTR 13437>>CALL    13470>>CALL    13583>>CALL
XUO_OU_DCB_NUMBER
     13188**DCL     13243>>ASSIGN  13261>>ASSIGN  13513>>IF      13516--IF      13516--IF      13516--IF
     13536--IF
XUO_OU_OPEN
     12632**DCL     13541<>CALL
PL6.E3A0      #019=XUO$OUWRITE File=XUO$BUILD.:E05TSI                            WED 07/30/97 09:33 Page:611
XUO_OU_OPEN.ACSVEH_
     12634**DCL     12635--REDEF
XUO_OU_OPEN.ALTKEYS_
     12640**DCL     12641--REDEF   12641--REDEF
XUO_OU_OPEN.HDR_
     12639**DCL     12640--REDEF
XUO_OU_OPEN.TAB_
     12638**DCL     12639--REDEF
XUO_OU_OPEN.UHL_
     12632**DCL     12633--REDEF   12633--REDEF
XUO_OU_OPEN.V.FSN#
     12672**DCL     12672--REDEF   12672--REDEF
XUO_OU_OPEN.WSN_
     12638**DCL     12638--REDEF
XUO_OU_OPEN$
     12566**DCL     12632--IMP-PTR 13541>>CALL
XUO_OU_OPEN_ERROR
     13542**LABEL   13541--CALLALT
XUO_OU_WRITE
     12729**DCL     13377<>CALL
XUO_OU_WRITE.BUF_.BOUND
     12729**DCL     13361<<ASSIGN
XUO_OU_WRITE.BUF_.BUF$
     12731**DCL     13362<<ASSIGN
XUO_OU_WRITE.STATION_
     12731**DCL     12731--REDEF
XUO_OU_WRITE.V.DVBYTE.VFC#
     12738**DCL     12738--REDEF
XUO_OU_WRITE$
     12711**DCL     12729--IMP-PTR 13361>>ASSIGN  13362>>ASSIGN  13377>>CALL
XUO_OU_WRITE_REQUIRED
     13190**DCL     13218>>IF      13412<<ASSIGN  13467<<ASSIGN  13531<<ASSIGN  13542<<ASSIGN  13582>>IF
XUO_PROGRAM_WRITE
     12760**DCL     13313<>CALL
XUO_PROGRAM_WRITE.BUF_.BOUND
     12760**DCL     13311<<ASSIGN
PL6.E3A0      #019=XUO$OUWRITE File=XUO$BUILD.:E05TSI                            WED 07/30/97 09:33 Page:612
XUO_PROGRAM_WRITE.BUF_.BUF$
     12762**DCL     13312<<ASSIGN
XUO_PROGRAM_WRITE.STATION_
     12762**DCL     12762--REDEF
XUO_PROGRAM_WRITE.V.DVBYTE.VFC#
     12769**DCL     12769--REDEF
XUO_PROGRAM_WRITE$
     12892**DCL     12760--IMP-PTR 13311>>ASSIGN  13312>>ASSIGN  13313>>CALL
XUO_RELOCATION_WRITE
     12910**DCL     13353<>CALL    13475<>CALL
XUO_RELOCATION_WRITE.BUF_.BOUND
     12910**DCL     13347<<ASSIGN
XUO_RELOCATION_WRITE.BUF_.BUF$
     12912**DCL     13348<<ASSIGN
XUO_RELOCATION_WRITE.STATION_
     12912**DCL     12912--REDEF
XUO_RELOCATION_WRITE.V.DVBYTE.VFC#
     12919**DCL     12919--REDEF
XUO_RELOCATION_WRITE$
     12924**DCL     12910--IMP-PTR 13347>>ASSIGN  13348>>ASSIGN  13353>>CALL    13475>>CALL
XUO_RELOCATION_WRITE_ERROR
     13436**LABEL   13353--CALLALT 13475--CALLALT
XUO_SCHEMA_REQUIRED
     13191**DCL     13376>>IF

