PL6.E3A0      #007=XUO$SEGDEF File=XUO$BUILD.:E05TSI                             WED 07/30/97 09:26 Page:161
     1231        1        /*M*     XUO$SEGDEF -- THIS MODULE WILL BUILD OBJECT UNIT SEGDEF RECORDS*/
     1232        2        /*T***********************************************************/
     1233        3        /*T*                                                         */
     1234        4        /*T* Copyright (c) Bull HN Information Systems Inc., 1997    */
     1235        5        /*T*                                                         */
     1236        6        /*T***********************************************************/
     1237        7        /*P*
     1238        8
     1239        9
     1240       10        NAME:  XUO$SEGDEF
     1241       11               XUO$SEGDEF --External Segment Definition (Record Type 8)
     1242       12
     1243       13        PURPOSE:  To build an entry in the External Segment Definition
     1244       14            Record (Record Type 8)
     1245       15
     1246       16        DESCRIPTION:  This routine builds a NON-constant entry
     1247       17            in the External Segment Definition Record (type 8).
     1248       18            There is one record per object unit for Initialized
     1249       19            Segment Definitions.
     1250       20
     1251       21        */
     1252       22        /*D*
     1253       23
     1254       24        CALL:  CALL XUO$SEGDEF (Name Pointer,
     1255       25                         Section Number,
     1256       26                         Section Offset)
     1257       27
     1258       28        INPUT:
     1259       29            Name Pointer        UBIN ALIGNED
     1260       30                                The word offset into the Externally
     1261       31                                Defined Names Record (type 1).
     1262       32            Section Number      UBIN ALIGNED
     1263       33                                The control Section number.
     1264       34            Section Offset      UBIN ALIGNED
     1265       35                                Offset from the origin of the section.
     1266       36
     1267       37        OUTPUT:  none
PL6.E3A0      #007=XUO$SEGDEF File=XUO$BUILD.:E05TSI                             WED 07/30/97 09:26 Page:162
     1268       38
     1269       39        B$OBJECT REFERENCE:  B$SEGDEF
     1270       40        */
     1271       41        /*B*
     1272       42
     1273       43        GLOBAL DATA:
     1274       44            B_SEGDEF_CUR$
     1275       45            B_SEGDEF_COUNT
     1276       46            B_SEGDEF_PAGE
     1277       47
     1278       48        INTERFACE:
     1279       49            XUO$OUWRITE
     1280       50
     1281       51        */
     1282       52
     1283       53        XUO$SEGDEF: PROC(P_NAME_POINTER,P_PARAM2,P_SECTION_OFFSET);
     1284       54         /*
     1285       55            */
     1286       56        %INCLUDE ZVA_SYSTEM_FILE;
     1287     6307        %PAGE (ARG=INCLUDES);

              6320    1   /*******************************************************************************
              6321    1   *                                                                              *
              6322    1   *        INCLUDES              INCLUDES                                            *
              6323    1   *                                                                              *
              6324    1   *******************************************************************************/

     1288     6328        %INCLUDE B$OBJECT_C;
     1289     9758        %INCLUDE XUO$OBJ_C;
     1290    10168        %PAGE (ARG=SUBS);

             10181    1   /*******************************************************************************
             10182    1   *                                                                              *
             10183    1   *        SUBS              SUBS                                                  *
             10184    1   *                                                                              *
             10185    1   *******************************************************************************/

PL6.E3A0      #007=XUO$SEGDEF File=XUO$BUILD.:E05TSI                             WED 07/30/97 09:26 Page:163
     1291    10189        %B$RECORDSUBS;
     1292    10217        %PLIST;
     1293    10218        %PAGE (ARG=PARAMTERS);

             10231    1   /*******************************************************************************
             10232    1   *                                                                              *
             10233    1   *        PARAMTERS              PARAMTERS                                          *
             10234    1   *                                                                              *
             10235    1   *******************************************************************************/

     1294    10239    1   DCL P_NAME_POINTER SBIN;
     1295    10240    1   DCL P_PARAM2 UBIN;
     1296    10241         /*
     1297    10242         The following definition is for XUO$SEGDEF
     1298    10243         */
     1299    10244    1   DCL P_SECTION_NUMBER REDEF P_PARAM2 UBIN;
     1300    10245         /*
     1301    10246         The following definition is for XUO$SEGDEF_CONST
     1302    10247         */
     1303    10248    1   DCL P_CONST_VALUE REDEF P_PARAM2 UBIN;
     1304    10249         /**/
     1305    10250    1   DCL P_SECTION_OFFSET UBIN;
     1306    10251         /*
     1307    10252            */
     1308    10253        %PAGE (ARG=SEGDEF DATA);

             10266    1   /*******************************************************************************
             10267    1   *                                                                              *
             10268    1   *        SEGDEF DATA              SEGDEF DATA                                      *
             10269    1   *                                                                              *
             10270    1   *******************************************************************************/

     1309    10274        %B$SEGDEF (STCLASS="BASED(B_SEGDEF_CUR$)");
     1310    10329        %B_SEGDEF_POINTERS;
     1311    10349        %PLIST;
     1312    10350        %PAGE (ARG=ENTRY DCLS);

PL6.E3A0      #007=XUO$SEGDEF File=XUO$BUILD.:E05TSI                             WED 07/30/97 09:26 Page:164
             10363    1   /*******************************************************************************
             10364    1   *                                                                              *
             10365    1   *        ENTRY DCLS              ENTRY DCLS                                        *
             10366    1   *                                                                              *
             10367    1   *******************************************************************************/

     1313    10371    1   DCL XUO$OUWRITE ENTRY(2);
     1314    10372        %PAGE (ARG=LOCAL DATA);

             10385    1   /*******************************************************************************
             10386    1   *                                                                              *
             10387    1   *        LOCAL DATA              LOCAL DATA                                        *
             10388    1   *                                                                              *
             10389    1   *******************************************************************************/

     1315    10393    1   DCL SEGDEF_CONSTANT_FLAG BIT(1); /*0->XUO$SEGDEF*/
     1316    10394         /*1->XUO$SEGDEF_CONST*/
     1317    10395        %PAGE (ARG=CODE);

             10408    1   /*******************************************************************************
             10409    1   *                                                                              *
             10410    1   *        CODE              CODE                                                  *
             10411    1   *                                                                              *
             10412    1   *******************************************************************************/

     1318    10416    1       SEGDEF_CONSTANT_FLAG='0'B;
     1319    10417    1       GOTO SEGDEF_COMMON;
     1320    10418        /*P*
     1321    10419
     1322    10420
     1323    10421        NAME:  XUO$SEGDEF_CONST
     1324    10422        XUO$SEGDEF_CONST --External Segment Definition Record (Record Type 8)
     1325    10423
     1326    10424        PURPOSE:  To build an entry in the External Segment
     1327    10425            Definition Record (Type 8)
     1328    10426
     1329    10427        DESCRIPTION:  This routine builds a constant entry in the
PL6.E3A0      #007=XUO$SEGDEF File=XUO$BUILD.:E05TSI                             WED 07/30/97 09:26 Page:165
     1330    10428            External Segment Definition Record (Record Type 8).
     1331    10429            There is one record per object unit for Initialized
     1332    10430            Segment Definitions.
     1333    10431
     1334    10432        */
     1335    10433        /*D*
     1336    10434
     1337    10435        CALL:  CALL XUO$SEGDEF_CONST (Name Pointer,
     1338    10436                               Constant Value)
     1339    10437
     1340    10438        INPUT:
     1341    10439            Name Pointer        UBIN ALIGNED
     1342    10440                                The word displacement into the
     1343    10441                                Externally Defined Names Record
     1344    10442                                (type 1).
     1345    10443            Constant Value      UBIN ALIGNED
     1346    10444                                The value of the constant segment
     1347    10445                                definition pointer.
     1348    10446
     1349    10447        OUTPUT:  none
     1350    10448
     1351    10449        B$OBJECT REFERENCE:  B$SEGDEF
     1352    10450        */
     1353    10451        /*B*
     1354    10452        GLOBAL DATA:
     1355    10453            B_SEGDEF_CUR$
     1356    10454            B_SEGDEF_COUNT
     1357    10455            B_SEGDEF_PAGE
     1358    10456
     1359    10457        INTERFACE:
     1360    10458            XUO$OUWRITE
     1361    10459
     1362    10460        */
     1363    10461
     1364    10462    1   XUO$SEGDEF_CONST: ENTRY(P_NAME_POINTER,P_PARAM2);
     1365    10463         /*
     1366    10464            */
PL6.E3A0      #007=XUO$SEGDEF File=XUO$BUILD.:E05TSI                             WED 07/30/97 09:26 Page:166
     1367    10465    1       SEGDEF_CONSTANT_FLAG='1'B;
     1368    10466         /*
     1369    10467            */
     1370    10468    1   SEGDEF_COMMON: ;
     1371    10469         /*
     1372    10470         The following will check to see if the passed information will
     1373    10471         fit in the current record. If not, the current record will be
     1374    10472         written and pointer re-initialized. Then the text will be moved
     1375    10473         to the buffer.
     1376    10474         */
     1377    10475    1       IF B_SEGDEF_CUR$>=B_SEGDEF_END$ THEN
     1378    10476    2       DO;
     1379    10477    2           CALL XUO$OUWRITE(%TYPSEGDEF);
     1380    10478    2           B_SEGDEF_PAGE=B_SEGDEF_PAGE+1;
     1381    10479    2           B_SEGDEF_CUR$=B_SEGDEF_BASE$;
     1382    10480    2           END;
     1383    10481         /*
     1384    10482         The following will build the segdef data table.
     1385    10483         */
     1386    10484    1       IF SEGDEF_CONSTANT_FLAG THEN
     1387    10485    2       DO;
     1388    10486    2           B$SEGDEF.VALUE=P_CONST_VALUE;
     1389    10487    2           B$SEGDEF.CONSTNT='1'B;
     1390    10488    2           END;
     1391    10489    1       ELSE
     1392    10490    2       DO;
     1393    10491    2           B$SEGDEF.AD.OU.SECTNUM=P_SECTION_NUMBER;
     1394    10492    2           B$SEGDEF.AD.OU.OFFSET=P_SECTION_OFFSET;
     1395    10493    2           END;
     1396    10494    1       B$SEGDEF.NPOINTER=P_NAME_POINTER;
     1397    10495    1       B_SEGDEF_COUNT=B_SEGDEF_COUNT+1;
     1398    10496    1       B_SEGDEF_CUR$=PINCRW(B_SEGDEF_CUR$,SIZEW(B$SEGDEF));
     1399    10497    1       RETURN;
     1400    10498    1   END XUO$SEGDEF;
     1401    10499        %EOD;

PL6.E3A0      #007=XUO$SEGDEF File=XUO$BUILD.:E05TSI                             WED 07/30/97 09:26 Page:167
--  Include file information  --

   XUO$OBJ_C.:E05TOU  is referenced.
   B$OBJECT_C.:E05TOU  is referenced.
   CP_6_SUBS.:E05TOU  is referenced.
   CP_6_C.:E05TOU  is referenced.
   CP_6.:E05TOU  cannot be made into a system file and is referenced.
   ZVA_FLAGS.:TOOLE04  is referenced.
   ZVA_SYSTEM_FILE.:TOOLE04  is referenced.
      No diagnostics issued in procedure XUO$SEGDEF.

   Procedure XUO$SEGDEF requires 46 words for executable code.
   Procedure XUO$SEGDEF requires 8 words of local(AUTO) storage.

PL6.E3A0      #007=XUO$SEGDEF File=XUO$BUILD.:E05TSI                             WED 07/30/97 09:26 Page:168

 Object Unit name= XUO$SEGDEF                                 File name= XUO$BUILD.:E05TOU
 UTS= JUL 30 '97 09:26:46.28 WED                              Compiler= PL-6/E31         Sev=      00
 SharedLib= :SHARED_SYSTEM                                    Alt SharedLib=


    ****  Control sections  ****

 Sect   Type Bound  Init  Size OctSiz  Section name(segment info)
    0   DCB   even  none     0      0  M$UC
    1   Proc  even  none    46     56  XUO$SEGDEF
    2  RoData even  none     1      1  XUO$SEGDEF

    ****  Entry defs  ****

                              Check   Calling
                             calling  sequence
  Sect OctLoc Primary Altret sequence   type   Parms  Name
     1      0   yes            yes      Std        3  XUO$SEGDEF
     1      4                  yes      Std        2  XUO$SEGDEF_CONST

  ****  Entry refs  ****

         Check        Calling
        calling       sequence
Altret sequence SRef   type   Args  Name
         yes           Std       2 XUO$OUWRITE
                       nStd      0 X66_AUTO_3
                       Std       0 B_CONSPOOL_D
                       nStd      0 X66_ARET
PL6.E3A0      #007=XUO$SEGDEF File=XUO$BUILD.:E05TSI                             WED 07/30/97 09:26 Page:169

  ****  Data refs  ****

  Flags:  r = read only, s = secondary
Flgs Name                             Flgs Name                             Flgs Name
     M$UC                                  B_SEGDEF_BASE$                        B_SEGDEF_CUR$
     B_SEGDEF_END$                         B_SEGDEF_COUNT                        B_SEGDEF_PAGE
     B_VECTNIL

  ****  Segment refs  ****

  Flags:  r = read only, s = secondary
Flgs Name                             Flgs Name                             Flgs Name
     ISSID
PL6.E3A0      #007=XUO$SEGDEF File=XUO$BUILD.:E05TSI                             WED 07/30/97 09:26 Page:170


     1231        1        /*M*     XUO$SEGDEF -- THIS MODULE WILL BUILD OBJECT UNIT SEGDEF RECORDS*/
     1232        2        /*T***********************************************************/
     1233        3        /*T*                                                         */
     1234        4        /*T* Copyright (c) Bull HN Information Systems Inc., 1997    */
     1235        5        /*T*                                                         */
     1236        6        /*T***********************************************************/
     1237        7        /*P*
     1238        8
     1239        9
     1240       10        NAME:  XUO$SEGDEF
     1241       11               XUO$SEGDEF --External Segment Definition (Record Type 8)
     1242       12
     1243       13        PURPOSE:  To build an entry in the External Segment Definition
     1244       14            Record (Record Type 8)
     1245       15
     1246       16        DESCRIPTION:  This routine builds a NON-constant entry
     1247       17            in the External Segment Definition Record (type 8).
     1248       18            There is one record per object unit for Initialized
     1249       19            Segment Definitions.
     1250       20
     1251       21        */
     1252       22        /*D*
     1253       23
     1254       24        CALL:  CALL XUO$SEGDEF (Name Pointer,
     1255       25                         Section Number,
     1256       26                         Section Offset)
     1257       27
     1258       28        INPUT:
     1259       29            Name Pointer        UBIN ALIGNED
     1260       30                                The word offset into the Externally
     1261       31                                Defined Names Record (type 1).
     1262       32            Section Number      UBIN ALIGNED
     1263       33                                The control Section number.
     1264       34            Section Offset      UBIN ALIGNED
     1265       35                                Offset from the origin of the section.
     1266       36
PL6.E3A0      #007=XUO$SEGDEF File=XUO$BUILD.:E05TSI                             WED 07/30/97 09:26 Page:171
     1267       37        OUTPUT:  none
     1268       38
     1269       39        B$OBJECT REFERENCE:  B$SEGDEF
     1270       40        */
     1271       41        /*B*
     1272       42
     1273       43        GLOBAL DATA:
     1274       44            B_SEGDEF_CUR$
     1275       45            B_SEGDEF_COUNT
     1276       46            B_SEGDEF_PAGE
     1277       47
     1278       48        INTERFACE:
     1279       49            XUO$OUWRITE
     1280       50
     1281       51        */
     1282       52
     1283       53        XUO$SEGDEF: PROC(P_NAME_POINTER,P_PARAM2,P_SECTION_OFFSET);

     53  1 000000   000000 700200 xent  XUO$SEGDEF   TSX0  ! X66_AUTO_3
         1 000001   000010 000003                    ZERO    8,3

     1284       54         /*
     1285       55            */
     1286       56        %INCLUDE ZVA_SYSTEM_FILE;
     1287     6307        %PAGE (ARG=INCLUDES);

              6320    1   /*******************************************************************************
              6321    1   *                                                                              *
              6322    1   *        INCLUDES              INCLUDES                                           *
              6323    1   *                                                                              *
              6324    1   *******************************************************************************/

     1288     6328        %INCLUDE B$OBJECT_C;
     1289     9758        %INCLUDE XUO$OBJ_C;
     1290    10168        %PAGE (ARG=SUBS);

             10181    1   /*******************************************************************************
PL6.E3A0      #007=XUO$SEGDEF File=XUO$BUILD.:E05TSI                             WED 07/30/97 09:26 Page:172
             10182    1   *                                                                              *
             10183    1   *        SUBS              SUBS                                                  *
             10184    1   *                                                                              *
             10185    1   *******************************************************************************/

     1291    10189        %B$RECORDSUBS;
     1292    10217        %PLIST;
     1293    10218        %PAGE (ARG=PARAMTERS);

             10231    1   /*******************************************************************************
             10232    1   *                                                                              *
             10233    1   *        PARAMTERS              PARAMTERS                                         *
             10234    1   *                                                                              *
             10235    1   *******************************************************************************/

     1294    10239    1   DCL P_NAME_POINTER SBIN;
     1295    10240    1   DCL P_PARAM2 UBIN;
     1296    10241         /*
     1297    10242         The following definition is for XUO$SEGDEF
     1298    10243         */
     1299    10244    1   DCL P_SECTION_NUMBER REDEF P_PARAM2 UBIN;
     1300    10245         /*
     1301    10246         The following definition is for XUO$SEGDEF_CONST
     1302    10247         */
     1303    10248    1   DCL P_CONST_VALUE REDEF P_PARAM2 UBIN;
     1304    10249         /**/
     1305    10250    1   DCL P_SECTION_OFFSET UBIN;
     1306    10251         /*
     1307    10252            */
     1308    10253        %PAGE (ARG=SEGDEF DATA);

             10266    1   /*******************************************************************************
             10267    1   *                                                                              *
             10268    1   *        SEGDEF DATA              SEGDEF DATA                                     *
             10269    1   *                                                                              *
             10270    1   *******************************************************************************/

PL6.E3A0      #007=XUO$SEGDEF File=XUO$BUILD.:E05TSI                             WED 07/30/97 09:26 Page:173
     1309    10274        %B$SEGDEF (STCLASS="BASED(B_SEGDEF_CUR$)");
     1310    10329        %B_SEGDEF_POINTERS;
     1311    10349        %PLIST;
     1312    10350        %PAGE (ARG=ENTRY DCLS);

             10363    1   /*******************************************************************************
             10364    1   *                                                                              *
             10365    1   *        ENTRY DCLS              ENTRY DCLS                                       *
             10366    1   *                                                                              *
             10367    1   *******************************************************************************/

     1313    10371    1   DCL XUO$OUWRITE ENTRY(2);
     1314    10372        %PAGE (ARG=LOCAL DATA);

             10385    1   /*******************************************************************************
             10386    1   *                                                                              *
             10387    1   *        LOCAL DATA              LOCAL DATA                                       *
             10388    1   *                                                                              *
             10389    1   *******************************************************************************/

     1315    10393    1   DCL SEGDEF_CONSTANT_FLAG BIT(1); /*0->XUO$SEGDEF*/
     1316    10394         /*1->XUO$SEGDEF_CONST*/
     1317    10395        %PAGE (ARG=CODE);

             10408    1   /*******************************************************************************
             10409    1   *                                                                              *
             10410    1   *        CODE              CODE                                                  *
             10411    1   *                                                                              *
             10412    1   *******************************************************************************/

     1318    10416    1       SEGDEF_CONSTANT_FLAG='0'B;

  10416  1 000002   200006 450100                    STZ     SEGDEF_CONSTANT_FLAG,,AUTO

     1319    10417    1       GOTO SEGDEF_COMMON;

  10417  1 000003   000010 710000 1                  TRA     SEGDEF_COMMON
PL6.E3A0      #007=XUO$SEGDEF File=XUO$BUILD.:E05TSI                             WED 07/30/97 09:26 Page:174

     1320    10418        /*P*
     1321    10419
     1322    10420
     1323    10421        NAME:  XUO$SEGDEF_CONST
     1324    10422        XUO$SEGDEF_CONST --External Segment Definition Record (Record Type 8)
     1325    10423
     1326    10424        PURPOSE:  To build an entry in the External Segment
     1327    10425            Definition Record (Type 8)
     1328    10426
     1329    10427        DESCRIPTION:  This routine builds a constant entry in the
     1330    10428            External Segment Definition Record (Record Type 8).
     1331    10429            There is one record per object unit for Initialized
     1332    10430            Segment Definitions.
     1333    10431
     1334    10432        */
     1335    10433        /*D*
     1336    10434
     1337    10435        CALL:  CALL XUO$SEGDEF_CONST (Name Pointer,
     1338    10436                               Constant Value)
     1339    10437
     1340    10438        INPUT:
     1341    10439            Name Pointer        UBIN ALIGNED
     1342    10440                                The word displacement into the
     1343    10441                                Externally Defined Names Record
     1344    10442                                (type 1).
     1345    10443            Constant Value      UBIN ALIGNED
     1346    10444                                The value of the constant segment
     1347    10445                                definition pointer.
     1348    10446
     1349    10447        OUTPUT:  none
     1350    10448
     1351    10449        B$OBJECT REFERENCE:  B$SEGDEF
     1352    10450        */
     1353    10451        /*B*
     1354    10452        GLOBAL DATA:
     1355    10453            B_SEGDEF_CUR$
PL6.E3A0      #007=XUO$SEGDEF File=XUO$BUILD.:E05TSI                             WED 07/30/97 09:26 Page:175
     1356    10454            B_SEGDEF_COUNT
     1357    10455            B_SEGDEF_PAGE
     1358    10456
     1359    10457        INTERFACE:
     1360    10458            XUO$OUWRITE
     1361    10459
     1362    10460        */
     1363    10461
     1364    10462    1   XUO$SEGDEF_CONST: ENTRY(P_NAME_POINTER,P_PARAM2);

  10462  1 000004   000000 700200 xent  XUO$SEGDEF_* TSX0  ! X66_AUTO_3
         1 000005   000010 000003                    ZERO    8,3

     1365    10463         /*
     1366    10464            */
     1367    10465    1       SEGDEF_CONSTANT_FLAG='1'B;

  10465  1 000006   400000 236003                    LDQ     -131072,DU
         1 000007   200006 756100                    STQ     SEGDEF_CONSTANT_FLAG,,AUTO

  10465  1 000010                       SEGDEF_COMM* null
     1368    10466         /*
     1369    10467            */
     1370    10468    1   SEGDEF_COMMON: ;
     1371    10469         /*
     1372    10470         The following will check to see if the passed information will
     1373    10471         fit in the current record. If not, the current record will be
     1374    10472         written and pointer re-initialized. Then the text will be moved
     1375    10473         to the buffer.
     1376    10474         */
     1377    10475    1       IF B_SEGDEF_CUR$>=B_SEGDEF_END$ THEN

  10475  1 000010   000000 236000 xsym               LDQ     B_SEGDEF_CUR$
         1 000011   000000 116000 xsym               CMPQ    B_SEGDEF_END$
         1 000012   000022 602000 1                  TNC     s:10484

     1378    10476    2       DO;
PL6.E3A0      #007=XUO$SEGDEF File=XUO$BUILD.:E05TSI                             WED 07/30/97 09:26 Page:176

     1379    10477    2           CALL XUO$OUWRITE(%TYPSEGDEF);

  10477  1 000013   000000 630400 2                  EPPR0   0
         1 000014   000017 631400 xsym               EPPR1   B_VECTNIL+15
         1 000015   000000 701000 xent               TSX1    XUO$OUWRITE
         1 000016   000000 011000                    NOP     0

     1380    10478    2           B_SEGDEF_PAGE=B_SEGDEF_PAGE+1;

  10478  1 000017   000000 054000 xsym               AOS     B_SEGDEF_PAGE

     1381    10479    2           B_SEGDEF_CUR$=B_SEGDEF_BASE$;

  10479  1 000020   000000 236000 xsym               LDQ     B_SEGDEF_BASE$
         1 000021   000000 756000 xsym               STQ     B_SEGDEF_CUR$

     1382    10480    2           END;

     1383    10481         /*
     1384    10482         The following will build the segdef data table.
     1385    10483         */
     1386    10484    1       IF SEGDEF_CONSTANT_FLAG THEN

  10484  1 000022   200006 234100                    SZN     SEGDEF_CONSTANT_FLAG,,AUTO
         1 000023   000034 605000 1                  TPL     s:10491

     1387    10485    2       DO;

     1388    10486    2           B$SEGDEF.VALUE=P_CONST_VALUE;

  10486  1 000024   200004 470500                    LDP0    @P_PARAM2,,AUTO
         1 000025   000000 235100                    LDA     0,,PR0
         1 000026   000000 471400 xsym               LDP1    B_SEGDEF_CUR$
         1 000027   100000 755100                    STA     0,,PR1

     1389    10487    2           B$SEGDEF.CONSTNT='1'B;
PL6.E3A0      #007=XUO$SEGDEF File=XUO$BUILD.:E05TSI                             WED 07/30/97 09:26 Page:177

  10487  1 000030   000000 471400 xsym               LDP1    B_SEGDEF_CUR$
         1 000031   400000 236007                    LDQ     -131072,DL
         1 000032   100001 256100                    ORSQ    1,,PR1

     1390    10488    2           END;

  10488  1 000033   000045 710000 1                  TRA     s:10494

     1391    10489    1       ELSE
     1392    10490    2       DO;

     1393    10491    2           B$SEGDEF.AD.OU.SECTNUM=P_SECTION_NUMBER;

  10491  1 000034   200004 470500                    LDP0    @P_PARAM2,,AUTO
         1 000035   000000 471400 xsym               LDP1    B_SEGDEF_CUR$
         1 000036   000000 236100                    LDQ     0,,PR0
         1 000037   000022 736000                    QLS     18
         1 000040   100000 552120                    STBQ    0,'20'O,PR1

     1394    10492    2           B$SEGDEF.AD.OU.OFFSET=P_SECTION_OFFSET;

  10492  1 000041   200005 471500                    LDP1    @P_SECTION_OFFSET,,AUTO
         1 000042   100000 720100                    LXL0    0,,PR1
         1 000043   000000 473400 xsym               LDP3    B_SEGDEF_CUR$
         1 000044   300000 440100                    SXL0    0,,PR3

     1395    10493    2           END;

     1396    10494    1       B$SEGDEF.NPOINTER=P_NAME_POINTER;

  10494  1 000045   200003 471500                    LDP1    @P_NAME_POINTER,,AUTO
         1 000046   100000 720100                    LXL0    0,,PR1
         1 000047   000000 473400 xsym               LDP3    B_SEGDEF_CUR$
         1 000050   300001 740100                    STX0    1,,PR3

     1397    10495    1       B_SEGDEF_COUNT=B_SEGDEF_COUNT+1;
PL6.E3A0      #007=XUO$SEGDEF File=XUO$BUILD.:E05TSI                             WED 07/30/97 09:26 Page:178

  10495  1 000051   000000 054000 xsym               AOS     B_SEGDEF_COUNT

     1398    10496    1       B_SEGDEF_CUR$=PINCRW(B_SEGDEF_CUR$,SIZEW(B$SEGDEF));

  10496  1 000052   000000 236000 xsym               LDQ     B_SEGDEF_CUR$
         1 000053   000002 036003                    ADLQ    2,DU
         1 000054   000000 756000 xsym               STQ     B_SEGDEF_CUR$

     1399    10497    1       RETURN;

  10497  1 000055   000000 702200 xent               TSX2  ! X66_ARET
     1400    10498    1   END XUO$SEGDEF;
     1401    10499        %EOD;

PL6.E3A0      #007=XUO$SEGDEF File=XUO$BUILD.:E05TSI                             WED 07/30/97 09:26 Page:179
--  Include file information  --

   XUO$OBJ_C.:E05TOU  is referenced.
   B$OBJECT_C.:E05TOU  is referenced.
   CP_6_SUBS.:E05TOU  is referenced.
   CP_6_C.:E05TOU  is referenced.
   CP_6.:E05TOU  cannot be made into a system file and is referenced.
   ZVA_FLAGS.:TOOLE04  is referenced.
   ZVA_SYSTEM_FILE.:TOOLE04  is referenced.
      No diagnostics issued in procedure XUO$SEGDEF.
PL6.E3A0      #007=XUO$SEGDEF File=XUO$BUILD.:E05TSI                             WED 07/30/97 09:26 Page:180

 **** Variables and constants ****

  ****  Auto variables  ****

  ****  Scalars and arrays  ****
OctLoc.c.b A Datatyp(siz) R M Lvl/name                 OctLoc.c.b A Datatyp(siz) R M Lvl/name

     3-0-0/w PTR         r     1 @P_NAME_POINTER            4-0-0/w PTR         r     1 @P_PARAM2
     5-0-0/w PTR         r     1 @P_SECTION_OFFSET         *0-0-0/w UBIN        r     1 P_CONST_VALUE
    *0-0-0/w SBIN        r     1 P_NAME_POINTER            *0-0-0/w UBIN        r     1 P_PARAM2
    *0-0-0/w UBIN        r     1 P_SECTION_NUMBER          *0-0-0/w UBIN        r     1 P_SECTION_OFFSET
     6-0-0/b BIT         r     1 SEGDEF_CONSTANT_FLAG

  ****  SYMREF variables  ****

  ****  Scalars and arrays  ****
OctLoc.c.b A Datatyp(siz) R M Lvl/name                 OctLoc.c.b A Datatyp(siz) R M Lvl/name

     0-0-0/w PTR         r     1 B_SEGDEF_BASE$             0-0-0/w SBIN        r     1 B_SEGDEF_COUNT
     0-0-0/w PTR         r     1 B_SEGDEF_CUR$              0-0-0/w PTR         r     1 B_SEGDEF_END$
     0-0-0/w SBIN        r     1 B_SEGDEF_PAGE

  ****  BASED and DCB variables  ****

  ****  Scalars and arrays  ****
OctLoc.c.b A Datatyp(siz) R M Lvl/name                 OctLoc.c.b A Datatyp(siz) R M Lvl/name

     0-0-0/w STRC(72)    r     1 B$SEGDEF


   Procedure XUO$SEGDEF requires 46 words for executable code.
   Procedure XUO$SEGDEF requires 8 words of local(AUTO) storage.
PL6.E3A0      #007=XUO$SEGDEF File=XUO$BUILD.:E05TSI                             WED 07/30/97 09:26 Page:181
          *** CROSS REFERENCE LISTING ***
**     DENOTES     IDENTIFIER DEFINITION
<<                 IDENTIFIER'S VALUE SET
>>                 IDENTIFIER'S VALUE USED
<>                 IDENTIFIER SET AND/OR USED
--                 IDENTIFIER REFERENCED
PL6.E3A0      #007=XUO$SEGDEF File=XUO$BUILD.:E05TSI                             WED 07/30/97 09:26 Page:182
          MINI XREF LISTING

B$SEGDEF
     10275**DCL     10496--ASSIGN
B$SEGDEF.AD.OU
     10299**DCL     10304--REDEF
B$SEGDEF.AD.OU.OFFSET
     10302**DCL     10492<<ASSIGN
B$SEGDEF.AD.OU.SECTNUM
     10300**DCL     10491<<ASSIGN
B$SEGDEF.CONSTNT
     10308**DCL     10487<<ASSIGN
B$SEGDEF.LFLAGS
     10314**DCL     10325--REDEF
B$SEGDEF.NPOINTER
     10306**DCL     10494<<ASSIGN
B$SEGDEF.VALUE
     10276**DCL     10279--REDEF   10283--REDEF   10486<<ASSIGN
B_SEGDEF_BASE$
     10341**DCL     10479>>ASSIGN
B_SEGDEF_COUNT
     10344**DCL     10495<<ASSIGN  10495>>ASSIGN
B_SEGDEF_CUR$
     10342**DCL     10275--IMP-PTR 10475>>IF      10479<<ASSIGN  10486>>ASSIGN  10487>>ASSIGN  10491>>ASSIGN
     10492>>ASSIGN  10494>>ASSIGN  10496<<ASSIGN  10496>>ASSIGN
B_SEGDEF_END$
     10343**DCL     10475>>IF
B_SEGDEF_PAGE
     10345**DCL     10478<<ASSIGN  10478>>ASSIGN
P_CONST_VALUE
     10248**DCL     10486>>ASSIGN
P_NAME_POINTER
     10239**DCL        53--PROC    10462--ENTRY   10494>>ASSIGN
P_PARAM2
PL6.E3A0      #007=XUO$SEGDEF File=XUO$BUILD.:E05TSI                             WED 07/30/97 09:26 Page:183
     10240**DCL        53--PROC    10244--REDEF   10248--REDEF   10462--ENTRY
P_SECTION_NUMBER
     10244**DCL     10491>>ASSIGN
P_SECTION_OFFSET
     10250**DCL        53--PROC    10492>>ASSIGN
SEGDEF_COMMON
     10465**LABEL   10417--GOTO
SEGDEF_CONSTANT_FLAG
     10393**DCL     10416<<ASSIGN  10465<<ASSIGN  10484>>IF
XUO$OUWRITE
     10371**DCL-ENT 10477--CALL

PL6.E3A0      #008=XUO$SEGREF File=XUO$BUILD.:E05TSI                             WED 07/30/97 09:27 Page:184
     1402        1        /*M*     XUO$SEGREF -- THIS MODULE WILL BUILD OBJECT UNIT SEGREF RECORDS*/
     1403        2        /*T***********************************************************/
     1404        3        /*T*                                                         */
     1405        4        /*T* Copyright (c) Bull HN Information Systems Inc., 1997    */
     1406        5        /*T*                                                         */
     1407        6        /*T***********************************************************/
     1408        7        /*P*
     1409        8
     1410        9
     1411       10        NAME:  XUO$SEGREF
     1412       11        XUO$SEGREF --External Segment Reference Record (Record Type 9)
     1413       12
     1414       13        PURPOSE:  To build an entry in the External Segment Reference
     1415       14            Record (Record Type 9).
     1416       15
     1417       16        DESCRIPTION:  This routine adds an entry to the External
     1418       17            Segment Reference Record.  There is one record per object
     1419       18            unit for external references to segment names.  The value
     1420       19            of a segment name is a segment id.  The definitions of all
     1421       20            referenced segment ids will be provided by the linker.  A
     1422       21            set of conventional, non-conflicting segment names will
     1423       22            be established for such things as dcb segment, automatic
     1424       23            segment, instruction segment, JIT segment, etc.
     1425       24
     1426       25        */
     1427       26        /*D*
     1428       27
     1429       28        CALL:  CALL XUO$SEGREF (Name Pointer,
     1430       29                         Segment Reference Number,
     1431       30                         Nsab,
     1432       31                         Segment Reference Flag,
     1433       32                         Read Only Flag)
     1434       33
     1435       34        INPUT:
     1436       35            Name Pointer        SBIN
     1437       36                                The word displacement into the
     1438       37                                Externally Referenced Names Record
PL6.E3A0      #008=XUO$SEGREF File=XUO$BUILD.:E05TSI                             WED 07/30/97 09:27 Page:185
     1439       38                                (type 2) locating the segment
     1440       39                                reference name.
     1441       40            Nsab                BIT(4) UNALIGNED  optional
     1442       41                                Not used for CP6
     1443       42            Segment Reference Flag  BIT(1) UNALIGNED
     1444       43                                Indicates that the reference is a
     1445       44                                secondary reference and should not
     1446       45                                cause loading of a library routine.
     1447       46            Read Only Flag      BIT(1) UNALIGNED
     1448       47                                Specifies that the corresponding
     1449       48                                SEGDEF must be in a constant section.
     1450       49                                If the section that the Segment
     1451       50                                Definition applies to is not of
     1452       51                                type 1 (procedure) or type 6 (read
     1453       52                                only data) the linker will issue a
     1454       53                                warning diagnostic.
     1455       54
     1456       55
     1457       56        OUTPUT:
     1458       57            Segment Reference Number  UBIN ALIGNED
     1459       58                                It is the number of the entry that
     1460       59                                was just added to the External
     1461       60                                Segment Reference Record.
     1462       61
     1463       62        B$OBJECT REFERENCE:  B$SEGREF
     1464       63        */
     1465       64        /*B*
     1466       65
     1467       66        GLOBAL DATA:
     1468       67            B_SEGREF_CUR$
     1469       68            B_SEGREF_COUNT
     1470       69            B_SEGREF_PAGE
     1471       70
     1472       71        INTERFACE:
     1473       72            XUO$OUWRITE
     1474       73
     1475       74        */
PL6.E3A0      #008=XUO$SEGREF File=XUO$BUILD.:E05TSI                             WED 07/30/97 09:27 Page:186
     1476       75
     1477       76        XUO$SEGREF: PROC (P_NAME_POINTER,P_SEGREF_NUMBER,P_NSAB,P_SREF_FLAG,P_READ_ONLY_FLAG
                76            );
     1478       77         /*
     1479       78            */
     1480       79        %INCLUDE ZVA_SYSTEM_FILE;
     1481     6330        %PAGE (ARG=INCLUDES);

              6343    1   /*******************************************************************************
              6344    1   *                                                                              *
              6345    1   *        INCLUDES              INCLUDES                                            *
              6346    1   *                                                                              *
              6347    1   *******************************************************************************/

     1482     6351        %INCLUDE B$OBJECT_C;
     1483     9781        %INCLUDE XUO$OBJ_C;
     1484    10191        %PAGE (ARG=SUBS);

             10204    1   /*******************************************************************************
             10205    1   *                                                                              *
             10206    1   *        SUBS              SUBS                                                  *
             10207    1   *                                                                              *
             10208    1   *******************************************************************************/

     1485    10212        %B$RECORDSUBS;
     1486    10240        %PLIST;
     1487    10241        %PAGE (ARG=PARAMETERS);

             10254    1   /*******************************************************************************
             10255    1   *                                                                              *
             10256    1   *        PARAMETERS              PARAMETERS                                        *
             10257    1   *                                                                              *
             10258    1   *******************************************************************************/

     1488    10262    1   DCL P_NAME_POINTER SBIN;
     1489    10263    1   DCL P_NSAB BIT(4) UNAL;
     1490    10264         /**/
PL6.E3A0      #008=XUO$SEGREF File=XUO$BUILD.:E05TSI                             WED 07/30/97 09:27 Page:187
     1491    10265    1   DCL P_SREF_FLAG BIT(1) UNAL;
     1492    10266         /**/
     1493    10267    1   DCL P_READ_ONLY_FLAG BIT(1) UNAL PARAM;
     1494    10268    1   DCL P_SEGREF_NUMBER UBIN;
     1495    10269         /*
     1496    10270            */
     1497    10271        %PAGE (ARG=SEGREF DATA);

             10284    1   /*******************************************************************************
             10285    1   *                                                                              *
             10286    1   *        SEGREF DATA              SEGREF DATA                                      *
             10287    1   *                                                                              *
             10288    1   *******************************************************************************/

     1498    10292        %B$SEGREF (STCLASS="BASED(B_SEGREF_CUR$)");
     1499    10309        %B_SEGREF_POINTERS;
     1500    10329        %PLIST;
     1501    10330        %PAGE (ARG=ENTRY DCLS);

             10343    1   /*******************************************************************************
             10344    1   *                                                                              *
             10345    1   *        ENTRY DCLS              ENTRY DCLS                                        *
             10346    1   *                                                                              *
             10347    1   *******************************************************************************/

     1502    10351    1   DCL XUO$OUWRITE ENTRY(2);
     1503    10352        %PAGE (ARG=CODE);

             10365    1   /*******************************************************************************
             10366    1   *                                                                              *
             10367    1   *        CODE              CODE                                                  *
             10368    1   *                                                                              *
             10369    1   *******************************************************************************/

     1504    10373         /*
     1505    10374         The following code will check to see if the passed information will fit
     1506    10375         in the current record. If not, the current record will be
PL6.E3A0      #008=XUO$SEGREF File=XUO$BUILD.:E05TSI                             WED 07/30/97 09:27 Page:188
     1507    10376         written and the pointer to it re-initialized. Then the text will
     1508    10377         be moved to the buffer.
     1509    10378         */
     1510    10379    1       IF B_SEGREF_CUR$>=B_SEGREF_END$ THEN
     1511    10380    2       DO;
     1512    10381    2           CALL XUO$OUWRITE(%TYPSEGREF);
     1513    10382    2           B_SEGREF_PAGE=B_SEGREF_PAGE+1;
     1514    10383    2           B_SEGREF_CUR$=B_SEGREF_BASE$;
     1515    10384    2           END;
     1516    10385         /*
     1517    10386         The following will build the symref data entry.
     1518    10387         */
     1519    10388    1       B$SEGREF.NPOINTER=P_NAME_POINTER;
     1520    10389    1       IF ADDR(P_NSAB)~=ADDR(NIL) THEN
     1521    10390    1           B$SEGREF.G66_NSAB=P_NSAB;
     1522    10391    1       IF ADDR(P_SREF_FLAG)~=ADDR(NIL) THEN
     1523    10392    1           B$SEGREF.SREF=P_SREF_FLAG;
     1524    10393    1       IF ADDR(P_READ_ONLY_FLAG)~=ADDR(NIL) THEN
     1525    10394    1           B$SEGREF.READ_ONLY=P_READ_ONLY_FLAG;
     1526    10395    1       B_SEGREF_COUNT=B_SEGREF_COUNT+1;
     1527    10396    1       P_SEGREF_NUMBER=B_SEGREF_COUNT;
     1528    10397    1       B_SEGREF_CUR$=PINCRW(B_SEGREF_CUR$,SIZEW(B$SEGREF));
     1529    10398    1       RETURN;
     1530    10399    1   END XUO$SEGREF;
     1531    10400        %EOD;

PL6.E3A0      #008=XUO$SEGREF File=XUO$BUILD.:E05TSI                             WED 07/30/97 09:27 Page:189
--  Include file information  --

   XUO$OBJ_C.:E05TOU  is referenced.
   B$OBJECT_C.:E05TOU  is referenced.
   CP_6_SUBS.:E05TOU  is referenced.
   CP_6_C.:E05TOU  is referenced.
   CP_6.:E05TOU  cannot be made into a system file and is referenced.
   ZVA_FLAGS.:TOOLE04  is referenced.
   ZVA_SYSTEM_FILE.:TOOLE04  is referenced.
      No diagnostics issued in procedure XUO$SEGREF.

   Procedure XUO$SEGREF requires 48 words for executable code.
   Procedure XUO$SEGREF requires 8 words of local(AUTO) storage.

PL6.E3A0      #008=XUO$SEGREF File=XUO$BUILD.:E05TSI                             WED 07/30/97 09:27 Page:190

 Object Unit name= XUO$SEGREF                                 File name= XUO$BUILD.:E05TOU
 UTS= JUL 30 '97 09:27:16.68 WED                              Compiler= PL-6/E31         Sev=      00
 SharedLib= :SHARED_SYSTEM                                    Alt SharedLib=


    ****  Control sections  ****

 Sect   Type Bound  Init  Size OctSiz  Section name(segment info)
    0   DCB   even  none     0      0  M$UC
    1   Proc  even  none    48     60  XUO$SEGREF
    2  RoData even  none     1      1  XUO$SEGREF

    ****  Entry defs  ****

                              Check   Calling
                             calling  sequence
  Sect OctLoc Primary Altret sequence   type   Parms  Name
     1      0   yes            yes      Std        5  XUO$SEGREF

  ****  Entry refs  ****

         Check        Calling
        calling       sequence
Altret sequence SRef   type   Args  Name
         yes           Std       2 XUO$OUWRITE
                       nStd      0 X66_AUTO_5
                       Std       0 B_CONSPOOL_D
                       nStd      0 X66_ARET

  ****  Data refs  ****

  Flags:  r = read only, s = secondary
Flgs Name                             Flgs Name                             Flgs Name
     M$UC                                  B_SEGREF_BASE$                        B_SEGREF_CUR$
     B_SEGREF_END$                         B_SEGREF_COUNT                        B_SEGREF_PAGE
     B_VECTNIL
PL6.E3A0      #008=XUO$SEGREF File=XUO$BUILD.:E05TSI                             WED 07/30/97 09:27 Page:191

  ****  Segment refs  ****

  Flags:  r = read only, s = secondary
Flgs Name                             Flgs Name                             Flgs Name
     ISSID
PL6.E3A0      #008=XUO$SEGREF File=XUO$BUILD.:E05TSI                             WED 07/30/97 09:27 Page:192


     1402        1        /*M*     XUO$SEGREF -- THIS MODULE WILL BUILD OBJECT UNIT SEGREF RECORDS*/
     1403        2        /*T***********************************************************/
     1404        3        /*T*                                                         */
     1405        4        /*T* Copyright (c) Bull HN Information Systems Inc., 1997    */
     1406        5        /*T*                                                         */
     1407        6        /*T***********************************************************/
     1408        7        /*P*
     1409        8
     1410        9
     1411       10        NAME:  XUO$SEGREF
     1412       11        XUO$SEGREF --External Segment Reference Record (Record Type 9)
     1413       12
     1414       13        PURPOSE:  To build an entry in the External Segment Reference
     1415       14            Record (Record Type 9).
     1416       15
     1417       16        DESCRIPTION:  This routine adds an entry to the External
     1418       17            Segment Reference Record.  There is one record per object
     1419       18            unit for external references to segment names.  The value
     1420       19            of a segment name is a segment id.  The definitions of all
     1421       20            referenced segment ids will be provided by the linker.  A
     1422       21            set of conventional, non-conflicting segment names will
     1423       22            be established for such things as dcb segment, automatic
     1424       23            segment, instruction segment, JIT segment, etc.
     1425       24
     1426       25        */
     1427       26        /*D*
     1428       27
     1429       28        CALL:  CALL XUO$SEGREF (Name Pointer,
     1430       29                         Segment Reference Number,
     1431       30                         Nsab,
     1432       31                         Segment Reference Flag,
     1433       32                         Read Only Flag)
     1434       33
     1435       34        INPUT:
     1436       35            Name Pointer        SBIN
     1437       36                                The word displacement into the
PL6.E3A0      #008=XUO$SEGREF File=XUO$BUILD.:E05TSI                             WED 07/30/97 09:27 Page:193
     1438       37                                Externally Referenced Names Record
     1439       38                                (type 2) locating the segment
     1440       39                                reference name.
     1441       40            Nsab                BIT(4) UNALIGNED  optional
     1442       41                                Not used for CP6
     1443       42            Segment Reference Flag  BIT(1) UNALIGNED
     1444       43                                Indicates that the reference is a
     1445       44                                secondary reference and should not
     1446       45                                cause loading of a library routine.
     1447       46            Read Only Flag      BIT(1) UNALIGNED
     1448       47                                Specifies that the corresponding
     1449       48                                SEGDEF must be in a constant section.
     1450       49                                If the section that the Segment
     1451       50                                Definition applies to is not of
     1452       51                                type 1 (procedure) or type 6 (read
     1453       52                                only data) the linker will issue a
     1454       53                                warning diagnostic.
     1455       54
     1456       55
     1457       56        OUTPUT:
     1458       57            Segment Reference Number  UBIN ALIGNED
     1459       58                                It is the number of the entry that
     1460       59                                was just added to the External
     1461       60                                Segment Reference Record.
     1462       61
     1463       62        B$OBJECT REFERENCE:  B$SEGREF
     1464       63        */
     1465       64        /*B*
     1466       65
     1467       66        GLOBAL DATA:
     1468       67            B_SEGREF_CUR$
     1469       68            B_SEGREF_COUNT
     1470       69            B_SEGREF_PAGE
     1471       70
     1472       71        INTERFACE:
     1473       72            XUO$OUWRITE
     1474       73
PL6.E3A0      #008=XUO$SEGREF File=XUO$BUILD.:E05TSI                             WED 07/30/97 09:27 Page:194
     1475       74        */
     1476       75
     1477       76       XUO$SEGREF: PROC (P_NAME_POINTER,P_SEGREF_NUMBER,P_NSAB,P_SREF_FLAG,P_READ_ONLY_FLAG
                76            );

     76  1 000000   000000 700200 xent  XUO$SEGREF   TSX0  ! X66_AUTO_5
         1 000001   000010 000005                    ZERO    8,5

     1478       77         /*
     1479       78            */
     1480       79        %INCLUDE ZVA_SYSTEM_FILE;
     1481     6330        %PAGE (ARG=INCLUDES);

              6343    1   /*******************************************************************************
              6344    1   *                                                                              *
              6345    1   *        INCLUDES              INCLUDES                                           *
              6346    1   *                                                                              *
              6347    1   *******************************************************************************/

     1482     6351        %INCLUDE B$OBJECT_C;
     1483     9781        %INCLUDE XUO$OBJ_C;
     1484    10191        %PAGE (ARG=SUBS);

             10204    1   /*******************************************************************************
             10205    1   *                                                                              *
             10206    1   *        SUBS              SUBS                                                  *
             10207    1   *                                                                              *
             10208    1   *******************************************************************************/

     1485    10212        %B$RECORDSUBS;
     1486    10240        %PLIST;
     1487    10241        %PAGE (ARG=PARAMETERS);

             10254    1   /*******************************************************************************
             10255    1   *                                                                              *
             10256    1   *        PARAMETERS              PARAMETERS                                       *
             10257    1   *                                                                              *
PL6.E3A0      #008=XUO$SEGREF File=XUO$BUILD.:E05TSI                             WED 07/30/97 09:27 Page:195
             10258    1   *******************************************************************************/

     1488    10262    1   DCL P_NAME_POINTER SBIN;
     1489    10263    1   DCL P_NSAB BIT(4) UNAL;
     1490    10264         /**/
     1491    10265    1   DCL P_SREF_FLAG BIT(1) UNAL;
     1492    10266         /**/
     1493    10267    1   DCL P_READ_ONLY_FLAG BIT(1) UNAL PARAM;
     1494    10268    1   DCL P_SEGREF_NUMBER UBIN;
     1495    10269         /*
     1496    10270            */
     1497    10271        %PAGE (ARG=SEGREF DATA);

             10284    1   /*******************************************************************************
             10285    1   *                                                                              *
             10286    1   *        SEGREF DATA              SEGREF DATA                                     *
             10287    1   *                                                                              *
             10288    1   *******************************************************************************/

     1498    10292        %B$SEGREF (STCLASS="BASED(B_SEGREF_CUR$)");
     1499    10309        %B_SEGREF_POINTERS;
     1500    10329        %PLIST;
     1501    10330        %PAGE (ARG=ENTRY DCLS);

             10343    1   /*******************************************************************************
             10344    1   *                                                                              *
             10345    1   *        ENTRY DCLS              ENTRY DCLS                                       *
             10346    1   *                                                                              *
             10347    1   *******************************************************************************/

     1502    10351    1   DCL XUO$OUWRITE ENTRY(2);
     1503    10352        %PAGE (ARG=CODE);

             10365    1   /*******************************************************************************
             10366    1   *                                                                              *
             10367    1   *        CODE              CODE                                                  *
             10368    1   *                                                                              *
PL6.E3A0      #008=XUO$SEGREF File=XUO$BUILD.:E05TSI                             WED 07/30/97 09:27 Page:196
             10369    1   *******************************************************************************/

     1504    10373         /*
     1505    10374         The following code will check to see if the passed information will fit
     1506    10375         in the current record. If not, the current record will be
     1507    10376         written and the pointer to it re-initialized. Then the text will
     1508    10377         be moved to the buffer.
     1509    10378         */
     1510    10379    1       IF B_SEGREF_CUR$>=B_SEGREF_END$ THEN

  10379  1 000002   000000 236000 xsym               LDQ     B_SEGREF_CUR$
         1 000003   000000 116000 xsym               CMPQ    B_SEGREF_END$
         1 000004   000014 602000 1                  TNC     s:10388

     1511    10380    2       DO;

     1512    10381    2           CALL XUO$OUWRITE(%TYPSEGREF);

  10381  1 000005   000000 630400 2                  EPPR0   0
         1 000006   000017 631400 xsym               EPPR1   B_VECTNIL+15
         1 000007   000000 701000 xent               TSX1    XUO$OUWRITE
         1 000010   000000 011000                    NOP     0

     1513    10382    2           B_SEGREF_PAGE=B_SEGREF_PAGE+1;

  10382  1 000011   000000 054000 xsym               AOS     B_SEGREF_PAGE

     1514    10383    2           B_SEGREF_CUR$=B_SEGREF_BASE$;

  10383  1 000012   000000 236000 xsym               LDQ     B_SEGREF_BASE$
         1 000013   000000 756000 xsym               STQ     B_SEGREF_CUR$

     1515    10384    2           END;

     1516    10385         /*
     1517    10386         The following will build the symref data entry.
     1518    10387         */
PL6.E3A0      #008=XUO$SEGREF File=XUO$BUILD.:E05TSI                             WED 07/30/97 09:27 Page:197
     1519    10388    1       B$SEGREF.NPOINTER=P_NAME_POINTER;

  10388  1 000014   200003 470500                    LDP0    @P_NAME_POINTER,,AUTO
         1 000015   000000 720100                    LXL0    0,,PR0
         1 000016   000000 471400 xsym               LDP1    B_SEGREF_CUR$
         1 000017   100000 740100                    STX0    0,,PR1

     1520    10389    1       IF ADDR(P_NSAB)~=ADDR(NIL) THEN

  10389  1 000020   200005 236100                    LDQ     @P_NSAB,,AUTO
         1 000021   000001 116000 xsym               CMPQ    B_VECTNIL+1
         1 000022   000030 600000 1                  TZE     s:10391

     1521    10390    1           B$SEGREF.G66_NSAB=P_NSAB;

  10390  1 000023   200005 471500                    LDP1    @P_NSAB,,AUTO
         1 000024   000000 473400 xsym               LDP3    B_SEGREF_CUR$
         1 000025   003100 060500                    CSL     bolr='003'O
         1 000026   100000 000004                    BDSC    0,,PR1                   by=0,bit=0,n=4
         1 000027   300000 420004                    BDSC    0,,PR3                   by=2,bit=2,n=4

     1522    10391    1       IF ADDR(P_SREF_FLAG)~=ADDR(NIL) THEN

  10391  1 000030   200006 236100                    LDQ     @P_SREF_FLAG,,AUTO
         1 000031   000001 116000 xsym               CMPQ    B_VECTNIL+1
         1 000032   000040 600000 1                  TZE     s:10393

     1523    10392    1           B$SEGREF.SREF=P_SREF_FLAG;

  10392  1 000033   200006 471500                    LDP1    @P_SREF_FLAG,,AUTO
         1 000034   000000 473400 xsym               LDP3    B_SEGREF_CUR$
         1 000035   003100 060500                    CSL     bolr='003'O
         1 000036   100000 000001                    BDSC    0,,PR1                   by=0,bit=0,n=1
         1 000037   300000 400001                    BDSC    0,,PR3                   by=2,bit=0,n=1

     1524    10393    1       IF ADDR(P_READ_ONLY_FLAG)~=ADDR(NIL) THEN

PL6.E3A0      #008=XUO$SEGREF File=XUO$BUILD.:E05TSI                             WED 07/30/97 09:27 Page:198
  10393  1 000040   200007 236100                    LDQ     @P_READ_ONLY_FLAG,,AUTO
         1 000041   000001 116000 xsym               CMPQ    B_VECTNIL+1
         1 000042   000050 600000 1                  TZE     s:10395

     1525    10394    1           B$SEGREF.READ_ONLY=P_READ_ONLY_FLAG;

  10394  1 000043   200007 471500                    LDP1    @P_READ_ONLY_FLAG,,AUTO
         1 000044   000000 473400 xsym               LDP3    B_SEGREF_CUR$
         1 000045   003100 060500                    CSL     bolr='003'O
         1 000046   100000 000001                    BDSC    0,,PR1                   by=0,bit=0,n=1
         1 000047   300000 410001                    BDSC    0,,PR3                   by=2,bit=1,n=1

     1526    10395    1       B_SEGREF_COUNT=B_SEGREF_COUNT+1;

  10395  1 000050   000000 054000 xsym               AOS     B_SEGREF_COUNT

     1527    10396    1       P_SEGREF_NUMBER=B_SEGREF_COUNT;

  10396  1 000051   000000 235000 xsym               LDA     B_SEGREF_COUNT
         1 000052   200004 471500                    LDP1    @P_SEGREF_NUMBER,,AUTO
         1 000053   100000 755100                    STA     0,,PR1

     1528    10397    1       B_SEGREF_CUR$=PINCRW(B_SEGREF_CUR$,SIZEW(B$SEGREF));

  10397  1 000054   000000 236000 xsym               LDQ     B_SEGREF_CUR$
         1 000055   000001 036003                    ADLQ    1,DU
         1 000056   000000 756000 xsym               STQ     B_SEGREF_CUR$

     1529    10398    1       RETURN;

  10398  1 000057   000000 702200 xent               TSX2  ! X66_ARET
     1530    10399    1   END XUO$SEGREF;
     1531    10400        %EOD;

PL6.E3A0      #008=XUO$SEGREF File=XUO$BUILD.:E05TSI                             WED 07/30/97 09:27 Page:199
--  Include file information  --

   XUO$OBJ_C.:E05TOU  is referenced.
   B$OBJECT_C.:E05TOU  is referenced.
   CP_6_SUBS.:E05TOU  is referenced.
   CP_6_C.:E05TOU  is referenced.
   CP_6.:E05TOU  cannot be made into a system file and is referenced.
   ZVA_FLAGS.:TOOLE04  is referenced.
   ZVA_SYSTEM_FILE.:TOOLE04  is referenced.
      No diagnostics issued in procedure XUO$SEGREF.
PL6.E3A0      #008=XUO$SEGREF File=XUO$BUILD.:E05TSI                             WED 07/30/97 09:27 Page:200

 **** Variables and constants ****

  ****  Auto variables  ****

  ****  Scalars and arrays  ****
OctLoc.c.b A Datatyp(siz) R M Lvl/name                 OctLoc.c.b A Datatyp(siz) R M Lvl/name

     3-0-0/w PTR         r     1 @P_NAME_POINTER            5-0-0/w PTR         r     1 @P_NSAB
     7-0-0/w PTR         r     1 @P_READ_ONLY_FLAG          4-0-0/w PTR         r     1 @P_SEGREF_NUMBER
     6-0-0/w PTR         r     1 @P_SREF_FLAG              *0-0-0/w SBIN        r     1 P_NAME_POINTER
    *0-0-0/b BIT (4)     r     1 P_NSAB                    *0-0-0/b BIT         r     1 P_READ_ONLY_FLAG
    *0-0-0/w UBIN        r     1 P_SEGREF_NUMBER           *0-0-0/b BIT         r     1 P_SREF_FLAG

  ****  SYMREF variables  ****

  ****  Scalars and arrays  ****
OctLoc.c.b A Datatyp(siz) R M Lvl/name                 OctLoc.c.b A Datatyp(siz) R M Lvl/name

     0-0-0/w PTR         r     1 B_SEGREF_BASE$             0-0-0/w SBIN        r     1 B_SEGREF_COUNT
     0-0-0/w PTR         r     1 B_SEGREF_CUR$              0-0-0/w PTR         r     1 B_SEGREF_END$
     0-0-0/w SBIN        r     1 B_SEGREF_PAGE

  ****  BASED and DCB variables  ****

  ****  Scalars and arrays  ****
OctLoc.c.b A Datatyp(siz) R M Lvl/name                 OctLoc.c.b A Datatyp(siz) R M Lvl/name

     0-0-0/w STRC(24)    r     1 B$SEGREF


   Procedure XUO$SEGREF requires 48 words for executable code.
   Procedure XUO$SEGREF requires 8 words of local(AUTO) storage.
PL6.E3A0      #008=XUO$SEGREF File=XUO$BUILD.:E05TSI                             WED 07/30/97 09:27 Page:201
          *** CROSS REFERENCE LISTING ***
**     DENOTES     IDENTIFIER DEFINITION
<<                 IDENTIFIER'S VALUE SET
>>                 IDENTIFIER'S VALUE USED
<>                 IDENTIFIER SET AND/OR USED
--                 IDENTIFIER REFERENCED
PL6.E3A0      #008=XUO$SEGREF File=XUO$BUILD.:E05TSI                             WED 07/30/97 09:27 Page:202
          MINI XREF LISTING

B$SEGREF
     10293**DCL     10397--ASSIGN
B$SEGREF.G66_NSAB
     10304**DCL     10390<<ASSIGN
B$SEGREF.NPOINTER
     10294**DCL     10388<<ASSIGN
B$SEGREF.READ_ONLY
     10301**DCL     10394<<ASSIGN
B$SEGREF.SREF
     10297**DCL     10392<<ASSIGN
B_SEGREF_BASE$
     10321**DCL     10383>>ASSIGN
B_SEGREF_COUNT
     10324**DCL     10395<<ASSIGN  10395>>ASSIGN  10396>>ASSIGN
B_SEGREF_CUR$
     10322**DCL     10293--IMP-PTR 10379>>IF      10383<<ASSIGN  10388>>ASSIGN  10390>>ASSIGN  10392>>ASSIGN
     10394>>ASSIGN  10397<<ASSIGN  10397>>ASSIGN
B_SEGREF_END$
     10323**DCL     10379>>IF
B_SEGREF_PAGE
     10325**DCL     10382<<ASSIGN  10382>>ASSIGN
P_NAME_POINTER
     10262**DCL        76--PROC    10388>>ASSIGN
P_NSAB
     10263**DCL        76--PROC    10389--IF      10390>>ASSIGN
P_READ_ONLY_FLAG
     10267**DCL        76--PROC    10393--IF      10394>>ASSIGN
P_SEGREF_NUMBER
     10268**DCL        76--PROC    10396<<ASSIGN
P_SREF_FLAG
     10265**DCL        76--PROC    10391--IF      10392>>ASSIGN
XUO$OUWRITE
PL6.E3A0      #008=XUO$SEGREF File=XUO$BUILD.:E05TSI                             WED 07/30/97 09:27 Page:203
     10351**DCL-ENT 10381--CALL

PL6.E3A0      #009=XUO$INTNTRY File=XUO$BUILD.:E05TSI                            WED 07/30/97 09:27 Page:204
     1532        1        /*M*     XUO$INTNTRY -- THIS MODULE WILL BUILD OBJECT UNIT INTNTRY RECORDS*/
     1533        2        /*T***********************************************************/
     1534        3        /*T*                                                         */
     1535        4        /*T* Copyright (c) Bull HN Information Systems Inc., 1997    */
     1536        5        /*T*                                                         */
     1537        6        /*T***********************************************************/
     1538        7        /*P*
     1539        8
     1540        9
     1541       10        NAME:  XUO$INTNTRY
     1542       11        XUO$INTNTRY --Internal Entry Debug Record (Record Type 12)
     1543       12
     1544       13        PURPOSE:  To add entries to the Internal Entry Debug Record
     1545       14
     1546       15        DESCRIPTION:  This routine adds entries to the Internal
     1547       16            Entry Debug Record.  There is one entry for every
     1548       17            internal procedure entry point within the program.
     1549       18            In PL6 these are generated by PROC and ENTRY statements.
     1550       19            Entries are ordered such that the internal logical
     1551       20            block structure of the module is reflected.
     1552       21
     1553       22        */
     1554       23        /*D*
     1555       24
     1556       25        CALL:  CALL XUO$INTNTRY(Logical Block Number,
     1557       26                         Section Number,
     1558       27                         Section Offset,
     1559       28                         Name Pointer,
     1560       29                         Entry Flag,
     1561       30                         Altreturn Flag,
     1562       31                         Argument Check Flag,
     1563       32                         Call Type,
     1564       33                         Number of Arguments)
     1565       34
     1566       35
     1567       36        INPUT:
     1568       37            Logical Block Number UBIN
PL6.E3A0      #009=XUO$INTNTRY File=XUO$BUILD.:E05TSI                            WED 07/30/97 09:27 Page:205
     1569       38                                The entry number of the logical block
     1570       39                                table entry which describes this
     1571       40                                procedure.
     1572       41            Section Number      UBIN
     1573       42                                The entry number into the control
     1574       43                                section table (type 3) (OU only).
     1575       44            Section Offset      UBIN
     1576       45                                The word offset from the origin of
     1577       46                                the section.
     1578       47            Name Pointer        SBIN
     1579       48                                The word displacement into the debug
     1580       49                                name record (type 15) locating the
     1581       50                                name of this entry.
     1582       51            Entry Flag          BIT (1) UNALIGNED
     1583       52                                A flag denoting primary entry definition.
     1584       53                                   0 = not a primary name
     1585       54                                   1 = a primary name (object unit name)
     1586       55            Altreturn Flag      BIT (1) UNALIGNED
     1587       56                                A flag denoting permissible alternate
     1588       57                                return.
     1589       58                                   0 = alternate return not allowed
     1590       59                                   1 = alternate return allowed
     1591       60            Argument Check Flag BIT (1) UNALIGNED
     1592       61                                CHECK is a one-bit flag denoting
     1593       62                                arguments/parameters check and alternate
     1594       63                                return specification check.
     1595       64                                   0 = do not check for matching
     1596       65                                       arguments/parameters and alternate
     1597       66                                       return specification check.
     1598       67                                   1 = check for matching arguments/parameters
     1599       68            Call Type           UBIN
     1600       69                                Denotes the calling sequence type
     1601       70                                   0 = Standard CP-6 Callable Procedure
     1602       71                                   1 = Nonstandard Call Type
     1603       72                                   2 = Standard CP-6 Procedure with
     1604       73                                       MAIN attribute
     1605       74                                   3 = Standard CP-6 Procedure with
PL6.E3A0      #009=XUO$INTNTRY File=XUO$BUILD.:E05TSI                            WED 07/30/97 09:27 Page:206
     1606       75                                        ASYNC attribute
     1607       76                                   4 = Standard CP-6 Function Procedure;
     1608       77                                        a variable table entry will be
     1609       78                                        present to define the attributes
     1610       79                                        of the function.
     1611       80                                   5 = Same as 0, except USE, AVOID, or
     1612       81                                       MATERIALIZE attributes specified
     1613       82                                   7 = Same as 2, except USE, AVOID, or
     1614       83                                       MATERIALIZE attributes specified
     1615       84                                   8 = Same as 3, except USE, AVOID, or
     1616       85                                       MATERIALIZE attributes specified
     1617       86                                   9 = Same as 4, except USE, AVOID, or
     1618       87                                       MATERIALIZE attributes specified
     1619       88                                  13 = GCOS domain, save
     1620       89                                  14 = GCOS domain, no save
     1621       90                                  15 = Non-Callable Procedure.
     1622       91            Number Arguments    UBIN
     1623       92                                Denotes the number of parameters.
     1624       93        OUTPUT:
     1625       94            none
     1626       95
     1627       96        B$OBJECT REFERENCE:  B$INTNTRY
     1628       97        */
     1629       98        /*B*
     1630       99
     1631      100        GLOBAL DATA:
     1632      101            B_INTNTRY_CUR$
     1633      102            B_INTNTRY_COUNT
     1634      103            B_INTNTRY_PAGE
     1635      104
     1636      105        INTERFACE:
     1637      106            XUO$OUWRITE
     1638      107
     1639      108        */
     1640      109
     1641      110
     1642      111        XUO$INTNTRY: PROC(P_LOGICAL_BLOCK_NUMBER,P_SECTION_NUMBER,P_SECTION_OFFSET,
PL6.E3A0      #009=XUO$INTNTRY File=XUO$BUILD.:E05TSI                            WED 07/30/97 09:27 Page:207
               111            P_NAME_POINTER,
     1643      112               P_ENTRY_FLAG,P_ALTRETURN_FLAG,P_ARGUMENT_CHECK_FLAG,P_CALL_TYPE,
               112                   P_NUMBER_ARGUMENTS);
     1644      113         /*
     1645      114            */
     1646      115        %INCLUDE ZVA_SYSTEM_FILE;
     1647     6366            %PAGE (ARG=INCLUDES);

              6379    1   /*******************************************************************************
              6380    1   *                                                                              *
              6381    1   *        INCLUDES              INCLUDES                                            *
              6382    1   *                                                                              *
              6383    1   *******************************************************************************/

     1648     6387        %INCLUDE B$OBJECT_C;
     1649     9817        %INCLUDE XUO$OBJ_C;
     1650    10227            %PAGE (ARG=SUBS);

             10240    1   /*******************************************************************************
             10241    1   *                                                                              *
             10242    1   *        SUBS              SUBS                                                  *
             10243    1   *                                                                              *
             10244    1   *******************************************************************************/

     1651    10248            %B$RECORDSUBS;
     1652    10276        %PLIST;
     1653    10277            %PAGE (ARG=PARAMTERS);

             10290    1   /*******************************************************************************
             10291    1   *                                                                              *
             10292    1   *        PARAMTERS              PARAMTERS                                          *
             10293    1   *                                                                              *
             10294    1   *******************************************************************************/

     1654    10298    1   DCL P_LOGICAL_BLOCK_NUMBER UBIN;
     1655    10299    1   DCL P_SECTION_NUMBER UBIN;
     1656    10300    1   DCL P_SECTION_OFFSET UBIN;
PL6.E3A0      #009=XUO$INTNTRY File=XUO$BUILD.:E05TSI                            WED 07/30/97 09:27 Page:208
     1657    10301    1   DCL P_NAME_POINTER SBIN;
     1658    10302    1   DCL P_ENTRY_FLAG BIT(1) UNAL;
     1659    10303    1   DCL P_ALTRETURN_FLAG BIT(1) UNAL;
     1660    10304    1   DCL P_ARGUMENT_CHECK_FLAG BIT(1) UNAL;
     1661    10305    1   DCL P_CALL_TYPE UBIN;
     1662    10306    1   DCL P_NUMBER_ARGUMENTS UBIN;
     1663    10307        %PAGE (ARG=INTNTRY DATA);

             10320    1   /*******************************************************************************
             10321    1   *                                                                              *
             10322    1   *        INTNTRY DATA              INTNTRY DATA                                    *
             10323    1   *                                                                              *
             10324    1   *******************************************************************************/

     1664    10328        %B$INTNTRY (STCLASS="BASED(INTNTRY_CUR$)");
     1665    10386        %B_INTNTRY_POINTERS;
     1666    10406    1   DCL INTNTRY_CUR$ PTR;
     1667    10407        %PLIST;
     1668    10408        %PAGE (ARG=ENTRY DCLS);

             10421    1   /*******************************************************************************
             10422    1   *                                                                              *
             10423    1   *        ENTRY DCLS              ENTRY DCLS                                        *
             10424    1   *                                                                              *
             10425    1   *******************************************************************************/

     1669    10429    1   DCL XUO$OUWRITE ENTRY(2);
     1670    10430        %PAGE (ARG=CODE);

             10443    1   /*******************************************************************************
             10444    1   *                                                                              *
             10445    1   *        CODE              CODE                                                  *
             10446    1   *                                                                              *
             10447    1   *******************************************************************************/

     1671    10451         /*
     1672    10452         The following will check to see if the passed information will
PL6.E3A0      #009=XUO$INTNTRY File=XUO$BUILD.:E05TSI                            WED 07/30/97 09:27 Page:209
     1673    10453         fit in the current record.  If not, the current record will be
     1674    10454         written and the pointer re-initialized.  Then the text will be moved to
     1675    10455         the buffer.
     1676    10456         */
     1677    10457    1       IF B_INTNTRY_CUR$>=B_INTNTRY_END$ THEN
     1678    10458    2       DO;
     1679    10459    2           CALL XUO$OUWRITE(%TYPINTNTRY);
     1680    10460    2           B_INTNTRY_PAGE=B_INTNTRY_PAGE+1;
     1681    10461    2           B_INTNTRY_CUR$=B_INTNTRY_BASE$;
     1682    10462    2           END;
     1683    10463         /*
     1684    10464         The following will build the procedure entry definition.
     1685    10465         */
     1686    10466    1       INTNTRY_CUR$=B_INTNTRY_CUR$;
     1687    10467    1       B$INTNTRY.LBE=P_LOGICAL_BLOCK_NUMBER;
     1688    10468    1       B$INTNTRY.OU.SECTNUM=P_SECTION_NUMBER;
     1689    10469    1       B$INTNTRY.OU.OFFSET=P_SECTION_OFFSET;
     1690    10470    1       B$INTNTRY.NPOINTER=P_NAME_POINTER;
     1691    10471    1       B$INTNTRY.PRI=P_ENTRY_FLAG;
     1692    10472    1       B$INTNTRY.ALT=P_ALTRETURN_FLAG;
     1693    10473    1       B$INTNTRY.CHECK=P_ARGUMENT_CHECK_FLAG;
     1694    10474    1       B$INTNTRY.CST=P_CALL_TYPE;
     1695    10475    1       B$INTNTRY.NPARAM=P_NUMBER_ARGUMENTS;
     1696    10476    1       B_INTNTRY_COUNT=B_INTNTRY_COUNT+1;
     1697    10477    1       B_INTNTRY_CUR$=PINCRW(B_INTNTRY_CUR$,SIZEW(B$INTNTRY));
     1698    10478    1       RETURN;
     1699    10479    1   END XUO$INTNTRY;
     1700    10480        %EOD;

PL6.E3A0      #009=XUO$INTNTRY File=XUO$BUILD.:E05TSI                            WED 07/30/97 09:27 Page:210
--  Include file information  --

   XUO$OBJ_C.:E05TOU  is referenced.
   B$OBJECT_C.:E05TOU  is referenced.
   CP_6_SUBS.:E05TOU  is referenced.
   CP_6_C.:E05TOU  is referenced.
   CP_6.:E05TOU  cannot be made into a system file and is referenced.
   ZVA_FLAGS.:TOOLE04  is referenced.
   ZVA_SYSTEM_FILE.:TOOLE04  is referenced.
      No diagnostics issued in procedure XUO$INTNTRY.

   Procedure XUO$INTNTRY requires 54 words for executable code.
   Procedure XUO$INTNTRY requires 14 words of local(AUTO) storage.

PL6.E3A0      #009=XUO$INTNTRY File=XUO$BUILD.:E05TSI                            WED 07/30/97 09:27 Page:211

 Object Unit name= XUO$INTNTRY                                File name= XUO$BUILD.:E05TOU
 UTS= JUL 30 '97 09:27:44.12 WED                              Compiler= PL-6/E31         Sev=      00
 SharedLib= :SHARED_SYSTEM                                    Alt SharedLib=


    ****  Control sections  ****

 Sect   Type Bound  Init  Size OctSiz  Section name(segment info)
    0   DCB   even  none     0      0  M$UC
    1   Proc  even  none    54     66  XUO$INTNTRY
    2  RoData even  none     2      2  XUO$INTNTRY

    ****  Entry defs  ****

                              Check   Calling
                             calling  sequence
  Sect OctLoc Primary Altret sequence   type   Parms  Name
     1      0   yes            yes      Std        9  XUO$INTNTRY

  ****  Entry refs  ****

         Check        Calling
        calling       sequence
Altret sequence SRef   type   Args  Name
         yes           Std       2 XUO$OUWRITE
                       nStd      0 X66_AUTO_N
                       Std       0 B_CONSPOOL_D
                       nStd      0 X66_ARET

  ****  Data refs  ****

  Flags:  r = read only, s = secondary
Flgs Name                             Flgs Name                             Flgs Name
     M$UC                                  B_INTNTRY_BASE$                       B_INTNTRY_CUR$
     B_INTNTRY_END$                        B_INTNTRY_COUNT                       B_INTNTRY_PAGE
     B_VECTNIL
PL6.E3A0      #009=XUO$INTNTRY File=XUO$BUILD.:E05TSI                            WED 07/30/97 09:27 Page:212

  ****  Segment refs  ****

  Flags:  r = read only, s = secondary
Flgs Name                             Flgs Name                             Flgs Name
     ISSID
PL6.E3A0      #009=XUO$INTNTRY File=XUO$BUILD.:E05TSI                            WED 07/30/97 09:27 Page:213


     1532        1        /*M*     XUO$INTNTRY -- THIS MODULE WILL BUILD OBJECT UNIT INTNTRY RECORDS*/
     1533        2        /*T***********************************************************/
     1534        3        /*T*                                                         */
     1535        4        /*T* Copyright (c) Bull HN Information Systems Inc., 1997    */
     1536        5        /*T*                                                         */
     1537        6        /*T***********************************************************/
     1538        7        /*P*
     1539        8
     1540        9
     1541       10        NAME:  XUO$INTNTRY
     1542       11        XUO$INTNTRY --Internal Entry Debug Record (Record Type 12)
     1543       12
     1544       13        PURPOSE:  To add entries to the Internal Entry Debug Record
     1545       14
     1546       15        DESCRIPTION:  This routine adds entries to the Internal
     1547       16            Entry Debug Record.  There is one entry for every
     1548       17            internal procedure entry point within the program.
     1549       18            In PL6 these are generated by PROC and ENTRY statements.
     1550       19            Entries are ordered such that the internal logical
     1551       20            block structure of the module is reflected.
     1552       21
     1553       22        */
     1554       23        /*D*
     1555       24
     1556       25        CALL:  CALL XUO$INTNTRY(Logical Block Number,
     1557       26                         Section Number,
     1558       27                         Section Offset,
     1559       28                         Name Pointer,
     1560       29                         Entry Flag,
     1561       30                         Altreturn Flag,
     1562       31                         Argument Check Flag,
     1563       32                         Call Type,
     1564       33                         Number of Arguments)
     1565       34
     1566       35
     1567       36        INPUT:
PL6.E3A0      #009=XUO$INTNTRY File=XUO$BUILD.:E05TSI                            WED 07/30/97 09:27 Page:214
     1568       37            Logical Block Number UBIN
     1569       38                                The entry number of the logical block
     1570       39                                table entry which describes this
     1571       40                                procedure.
     1572       41            Section Number      UBIN
     1573       42                                The entry number into the control
     1574       43                                section table (type 3) (OU only).
     1575       44            Section Offset      UBIN
     1576       45                                The word offset from the origin of
     1577       46                                the section.
     1578       47            Name Pointer        SBIN
     1579       48                                The word displacement into the debug
     1580       49                                name record (type 15) locating the
     1581       50                                name of this entry.
     1582       51            Entry Flag          BIT (1) UNALIGNED
     1583       52                                A flag denoting primary entry definition.
     1584       53                                   0 = not a primary name
     1585       54                                   1 = a primary name (object unit name)
     1586       55            Altreturn Flag      BIT (1) UNALIGNED
     1587       56                                A flag denoting permissible alternate
     1588       57                                return.
     1589       58                                   0 = alternate return not allowed
     1590       59                                   1 = alternate return allowed
     1591       60            Argument Check Flag BIT (1) UNALIGNED
     1592       61                                CHECK is a one-bit flag denoting
     1593       62                                arguments/parameters check and alternate
     1594       63                                return specification check.
     1595       64                                   0 = do not check for matching
     1596       65                                       arguments/parameters and alternate
     1597       66                                       return specification check.
     1598       67                                   1 = check for matching arguments/parameters
     1599       68            Call Type           UBIN
     1600       69                                Denotes the calling sequence type
     1601       70                                   0 = Standard CP-6 Callable Procedure
     1602       71                                   1 = Nonstandard Call Type
     1603       72                                   2 = Standard CP-6 Procedure with
     1604       73                                       MAIN attribute
PL6.E3A0      #009=XUO$INTNTRY File=XUO$BUILD.:E05TSI                            WED 07/30/97 09:27 Page:215
     1605       74                                   3 = Standard CP-6 Procedure with
     1606       75                                        ASYNC attribute
     1607       76                                   4 = Standard CP-6 Function Procedure;
     1608       77                                        a variable table entry will be
     1609       78                                        present to define the attributes
     1610       79                                        of the function.
     1611       80                                   5 = Same as 0, except USE, AVOID, or
     1612       81                                       MATERIALIZE attributes specified
     1613       82                                   7 = Same as 2, except USE, AVOID, or
     1614       83                                       MATERIALIZE attributes specified
     1615       84                                   8 = Same as 3, except USE, AVOID, or
     1616       85                                       MATERIALIZE attributes specified
     1617       86                                   9 = Same as 4, except USE, AVOID, or
     1618       87                                       MATERIALIZE attributes specified
     1619       88                                  13 = GCOS domain, save
     1620       89                                  14 = GCOS domain, no save
     1621       90                                  15 = Non-Callable Procedure.
     1622       91            Number Arguments    UBIN
     1623       92                                Denotes the number of parameters.
     1624       93        OUTPUT:
     1625       94            none
     1626       95
     1627       96        B$OBJECT REFERENCE:  B$INTNTRY
     1628       97        */
     1629       98        /*B*
     1630       99
     1631      100        GLOBAL DATA:
     1632      101            B_INTNTRY_CUR$
     1633      102            B_INTNTRY_COUNT
     1634      103            B_INTNTRY_PAGE
     1635      104
     1636      105        INTERFACE:
     1637      106            XUO$OUWRITE
     1638      107
     1639      108        */
     1640      109
     1641      110
PL6.E3A0      #009=XUO$INTNTRY File=XUO$BUILD.:E05TSI                            WED 07/30/97 09:27 Page:216
     1642      111        XUO$INTNTRY: PROC(P_LOGICAL_BLOCK_NUMBER,P_SECTION_NUMBER,P_SECTION_OFFSET,
               111            P_NAME_POINTER,

    111  1 000000   000000 700200 xent  XUO$INTNTRY  TSX0  ! X66_AUTO_N
         1 000001   000016 000011                    ZERO    14,9

     1643      112               P_ENTRY_FLAG,P_ALTRETURN_FLAG,P_ARGUMENT_CHECK_FLAG,P_CALL_TYPE,
               112                   P_NUMBER_ARGUMENTS);
     1644      113         /*
     1645      114            */
     1646      115        %INCLUDE ZVA_SYSTEM_FILE;
     1647     6366            %PAGE (ARG=INCLUDES);

              6379    1   /*******************************************************************************
              6380    1   *                                                                              *
              6381    1   *        INCLUDES              INCLUDES                                           *
              6382    1   *                                                                              *
              6383    1   *******************************************************************************/

     1648     6387        %INCLUDE B$OBJECT_C;
     1649     9817        %INCLUDE XUO$OBJ_C;
     1650    10227            %PAGE (ARG=SUBS);

             10240    1   /*******************************************************************************
             10241    1   *                                                                              *
             10242    1   *        SUBS              SUBS                                                  *
             10243    1   *                                                                              *
             10244    1   *******************************************************************************/

     1651    10248            %B$RECORDSUBS;
     1652    10276        %PLIST;
     1653    10277            %PAGE (ARG=PARAMTERS);

             10290    1   /*******************************************************************************
             10291    1   *                                                                              *
             10292    1   *        PARAMTERS              PARAMTERS                                         *
             10293    1   *                                                                              *
PL6.E3A0      #009=XUO$INTNTRY File=XUO$BUILD.:E05TSI                            WED 07/30/97 09:27 Page:217
             10294    1   *******************************************************************************/

     1654    10298    1   DCL P_LOGICAL_BLOCK_NUMBER UBIN;
     1655    10299    1   DCL P_SECTION_NUMBER UBIN;
     1656    10300    1   DCL P_SECTION_OFFSET UBIN;
     1657    10301    1   DCL P_NAME_POINTER SBIN;
     1658    10302    1   DCL P_ENTRY_FLAG BIT(1) UNAL;
     1659    10303    1   DCL P_ALTRETURN_FLAG BIT(1) UNAL;
     1660    10304    1   DCL P_ARGUMENT_CHECK_FLAG BIT(1) UNAL;
     1661    10305    1   DCL P_CALL_TYPE UBIN;
     1662    10306    1   DCL P_NUMBER_ARGUMENTS UBIN;
     1663    10307        %PAGE (ARG=INTNTRY DATA);

             10320    1   /*******************************************************************************
             10321    1   *                                                                              *
             10322    1   *        INTNTRY DATA              INTNTRY DATA                                   *
             10323    1   *                                                                              *
             10324    1   *******************************************************************************/

     1664    10328        %B$INTNTRY (STCLASS="BASED(INTNTRY_CUR$)");
     1665    10386        %B_INTNTRY_POINTERS;
     1666    10406    1   DCL INTNTRY_CUR$ PTR;
     1667    10407        %PLIST;
     1668    10408        %PAGE (ARG=ENTRY DCLS);

             10421    1   /*******************************************************************************
             10422    1   *                                                                              *
             10423    1   *        ENTRY DCLS              ENTRY DCLS                                       *
             10424    1   *                                                                              *
             10425    1   *******************************************************************************/

     1669    10429    1   DCL XUO$OUWRITE ENTRY(2);
     1670    10430        %PAGE (ARG=CODE);

             10443    1   /*******************************************************************************
             10444    1   *                                                                              *
             10445    1   *        CODE              CODE                                                  *
PL6.E3A0      #009=XUO$INTNTRY File=XUO$BUILD.:E05TSI                            WED 07/30/97 09:27 Page:218
             10446    1   *                                                                              *
             10447    1   *******************************************************************************/

     1671    10451         /*
     1672    10452         The following will check to see if the passed information will
     1673    10453         fit in the current record.  If not, the current record will be
     1674    10454         written and the pointer re-initialized.  Then the text will be moved to
     1675    10455         the buffer.
     1676    10456         */
     1677    10457    1       IF B_INTNTRY_CUR$>=B_INTNTRY_END$ THEN

  10457  1 000002   000000 236000 xsym               LDQ     B_INTNTRY_CUR$
         1 000003   000000 116000 xsym               CMPQ    B_INTNTRY_END$
         1 000004   000014 602000 1                  TNC     s:10466

     1678    10458    2       DO;

     1679    10459    2           CALL XUO$OUWRITE(%TYPINTNTRY);

  10459  1 000005   000001 630400 2                  EPPR0   1
         1 000006   000017 631400 xsym               EPPR1   B_VECTNIL+15
         1 000007   000000 701000 xent               TSX1    XUO$OUWRITE
         1 000010   000000 011000                    NOP     0

     1680    10460    2           B_INTNTRY_PAGE=B_INTNTRY_PAGE+1;

  10460  1 000011   000000 054000 xsym               AOS     B_INTNTRY_PAGE

     1681    10461    2           B_INTNTRY_CUR$=B_INTNTRY_BASE$;

  10461  1 000012   000000 236000 xsym               LDQ     B_INTNTRY_BASE$
         1 000013   000000 756000 xsym               STQ     B_INTNTRY_CUR$

     1682    10462    2           END;

     1683    10463         /*
     1684    10464         The following will build the procedure entry definition.
PL6.E3A0      #009=XUO$INTNTRY File=XUO$BUILD.:E05TSI                            WED 07/30/97 09:27 Page:219
     1685    10465         */
     1686    10466    1       INTNTRY_CUR$=B_INTNTRY_CUR$;

  10466  1 000014   200014 756100                    STQ     INTNTRY_CUR$,,AUTO

     1687    10467    1       B$INTNTRY.LBE=P_LOGICAL_BLOCK_NUMBER;

  10467  1 000015   200003 470500                    LDP0    @P_LOGICAL_BLOCK_NUMBER,,AUTO
         1 000016   200014 471500                    LDP1    INTNTRY_CUR$,,AUTO
         1 000017   000000 236100                    LDQ     0,,PR0
         1 000020   000033 736000                    QLS     27
         1 000021   100000 552140                    STBQ    0,'40'O,PR1

     1688    10468    1       B$INTNTRY.OU.SECTNUM=P_SECTION_NUMBER;

  10468  1 000022   200004 473500                    LDP3    @P_SECTION_NUMBER,,AUTO
         1 000023   300000 236100                    LDQ     0,,PR3
         1 000024   000022 736000                    QLS     18
         1 000025   100000 552120                    STBQ    0,'20'O,PR1

     1689    10469    1       B$INTNTRY.OU.OFFSET=P_SECTION_OFFSET;

  10469  1 000026   200005 474500                    LDP4    @P_SECTION_OFFSET,,AUTO
         1 000027   400000 720100                    LXL0    0,,PR4
         1 000030   100000 440100                    SXL0    0,,PR1

     1690    10470    1       B$INTNTRY.NPOINTER=P_NAME_POINTER;

  10470  1 000031   200006 475500                    LDP5    @P_NAME_POINTER,,AUTO
         1 000032   500000 721100                    LXL1    0,,PR5
         1 000033   100001 741100                    STX1    1,,PR1

     1691    10471    1       B$INTNTRY.PRI=P_ENTRY_FLAG;

  10471  1 000034   200007 476500                    LDP6    @P_ENTRY_FLAG,,AUTO
         1 000035   003100 060500                    CSL     bolr='003'O
         1 000036   600000 000001                    BDSC    0,,PR6                   by=0,bit=0,n=1
PL6.E3A0      #009=XUO$INTNTRY File=XUO$BUILD.:E05TSI                            WED 07/30/97 09:27 Page:220
         1 000037   100001 400001                    BDSC    1,,PR1                   by=2,bit=0,n=1

     1692    10472    1       B$INTNTRY.ALT=P_ALTRETURN_FLAG;

  10472  1 000040   200010 477500                    LDP7    @P_ALTRETURN_FLAG,,AUTO
         1 000041   003100 060500                    CSL     bolr='003'O
         1 000042   700000 000001                    BDSC    0,,PR7                   by=0,bit=0,n=1
         1 000043   100001 410001                    BDSC    1,,PR1                   by=2,bit=1,n=1

     1693    10473    1       B$INTNTRY.CHECK=P_ARGUMENT_CHECK_FLAG;

  10473  1 000044   200011 470500                    LDP0    @P_ARGUMENT_CHECK_FLAG,,AUTO
         1 000045   003100 060500                    CSL     bolr='003'O
         1 000046   000000 000001                    BDSC    0,,PR0                   by=0,bit=0,n=1
         1 000047   100001 420001                    BDSC    1,,PR1                   by=2,bit=2,n=1

     1694    10474    1       B$INTNTRY.CST=P_CALL_TYPE;

  10474  1 000050   200012 470500                    LDP0    @P_CALL_TYPE,,AUTO
         1 000051   000000 236100                    LDQ     0,,PR0
         1 000052   000011 736000                    QLS     9
         1 000053   100001 676100                    ERQ     1,,PR1
         1 000054   077000 376007                    ANQ     32256,DL
         1 000055   100001 656100                    ERSQ    1,,PR1

     1695    10475    1       B$INTNTRY.NPARAM=P_NUMBER_ARGUMENTS;

  10475  1 000056   200013 470500                    LDP0    @P_NUMBER_ARGUMENTS,,AUTO
         1 000057   000000 236100                    LDQ     0,,PR0
         1 000060   100001 552104                    STBQ    1,'04'O,PR1

     1696    10476    1       B_INTNTRY_COUNT=B_INTNTRY_COUNT+1;

  10476  1 000061   000000 054000 xsym               AOS     B_INTNTRY_COUNT

     1697    10477    1       B_INTNTRY_CUR$=PINCRW(B_INTNTRY_CUR$,SIZEW(B$INTNTRY));

PL6.E3A0      #009=XUO$INTNTRY File=XUO$BUILD.:E05TSI                            WED 07/30/97 09:27 Page:221
  10477  1 000062   000000 236000 xsym               LDQ     B_INTNTRY_CUR$
         1 000063   000002 036003                    ADLQ    2,DU
         1 000064   000000 756000 xsym               STQ     B_INTNTRY_CUR$

     1698    10478    1       RETURN;

  10478  1 000065   000000 702200 xent               TSX2  ! X66_ARET
     1699    10479    1   END XUO$INTNTRY;
     1700    10480        %EOD;

PL6.E3A0      #009=XUO$INTNTRY File=XUO$BUILD.:E05TSI                            WED 07/30/97 09:27 Page:222
--  Include file information  --

   XUO$OBJ_C.:E05TOU  is referenced.
   B$OBJECT_C.:E05TOU  is referenced.
   CP_6_SUBS.:E05TOU  is referenced.
   CP_6_C.:E05TOU  is referenced.
   CP_6.:E05TOU  cannot be made into a system file and is referenced.
   ZVA_FLAGS.:TOOLE04  is referenced.
   ZVA_SYSTEM_FILE.:TOOLE04  is referenced.
      No diagnostics issued in procedure XUO$INTNTRY.
PL6.E3A0      #009=XUO$INTNTRY File=XUO$BUILD.:E05TSI                            WED 07/30/97 09:27 Page:223

 **** Variables and constants ****

  ****  Auto variables  ****

  ****  Scalars and arrays  ****
OctLoc.c.b A Datatyp(siz) R M Lvl/name                 OctLoc.c.b A Datatyp(siz) R M Lvl/name

    10-0-0/w PTR         r     1 @P_ALTRETURN_FLAG
    11-0-0/w PTR         r     1 @P_ARGUMENT_CHECK_FLAG
    12-0-0/w PTR         r     1 @P_CALL_TYPE               7-0-0/w PTR         r     1 @P_ENTRY_FLAG
     3-0-0/w PTR         r     1 @P_LOGICAL_BLOCK_NUMBER
     6-0-0/w PTR         r     1 @P_NAME_POINTER           13-0-0/w PTR         r     1 @P_NUMBER_ARGUMENTS
     4-0-0/w PTR         r     1 @P_SECTION_NUMBER          5-0-0/w PTR         r     1 @P_SECTION_OFFSET
    14-0-0/w PTR         r     1 INTNTRY_CUR$              *0-0-0/b BIT         r     1 P_ALTRETURN_FLAG
    *0-0-0/b BIT         r     1 P_ARGUMENT_CHECK_FLAG
    *0-0-0/w UBIN        r     1 P_CALL_TYPE               *0-0-0/b BIT         r     1 P_ENTRY_FLAG
    *0-0-0/w UBIN        r     1 P_LOGICAL_BLOCK_NUMBER
    *0-0-0/w SBIN        r     1 P_NAME_POINTER            *0-0-0/w UBIN        r     1 P_NUMBER_ARGUMENTS
    *0-0-0/w UBIN        r     1 P_SECTION_NUMBER          *0-0-0/w UBIN        r     1 P_SECTION_OFFSET

  ****  SYMREF variables  ****

  ****  Scalars and arrays  ****
OctLoc.c.b A Datatyp(siz) R M Lvl/name                 OctLoc.c.b A Datatyp(siz) R M Lvl/name

     0-0-0/w PTR         r     1 B_INTNTRY_BASE$            0-0-0/w SBIN        r     1 B_INTNTRY_COUNT
     0-0-0/w PTR         r     1 B_INTNTRY_CUR$             0-0-0/w PTR         r     1 B_INTNTRY_END$
     0-0-0/w SBIN        r     1 B_INTNTRY_PAGE

  ****  BASED and DCB variables  ****

  ****  Scalars and arrays  ****
OctLoc.c.b A Datatyp(siz) R M Lvl/name                 OctLoc.c.b A Datatyp(siz) R M Lvl/name

     0-0-0/w STRC(72)    r     1 B$INTNTRY

PL6.E3A0      #009=XUO$INTNTRY File=XUO$BUILD.:E05TSI                            WED 07/30/97 09:27 Page:224

   Procedure XUO$INTNTRY requires 54 words for executable code.
   Procedure XUO$INTNTRY requires 14 words of local(AUTO) storage.
PL6.E3A0      #009=XUO$INTNTRY File=XUO$BUILD.:E05TSI                            WED 07/30/97 09:27 Page:225
          *** CROSS REFERENCE LISTING ***
**     DENOTES     IDENTIFIER DEFINITION
<<                 IDENTIFIER'S VALUE SET
>>                 IDENTIFIER'S VALUE USED
<>                 IDENTIFIER SET AND/OR USED
--                 IDENTIFIER REFERENCED
PL6.E3A0      #009=XUO$INTNTRY File=XUO$BUILD.:E05TSI                            WED 07/30/97 09:27 Page:226
          MINI XREF LISTING

B$INTNTRY
     10329**DCL     10477--ASSIGN
B$INTNTRY.ALT
     10351**DCL     10472<<ASSIGN
B$INTNTRY.CHECK
     10355**DCL     10473<<ASSIGN
B$INTNTRY.CST
     10363**DCL     10474<<ASSIGN
B$INTNTRY.LBE
     10330**DCL     10467<<ASSIGN
B$INTNTRY.NPARAM
     10383**DCL     10475<<ASSIGN
B$INTNTRY.NPOINTER
     10343**DCL     10470<<ASSIGN
B$INTNTRY.OU
     10333**DCL     10340--REDEF
B$INTNTRY.OU.OFFSET
     10337**DCL     10469<<ASSIGN
B$INTNTRY.OU.SECTNUM
     10334**DCL     10468<<ASSIGN
B$INTNTRY.PRI
     10346**DCL     10471<<ASSIGN
B_INTNTRY_BASE$
     10398**DCL     10461>>ASSIGN
B_INTNTRY_COUNT
     10401**DCL     10476<<ASSIGN  10476>>ASSIGN
B_INTNTRY_CUR$
     10399**DCL     10457>>IF      10461<<ASSIGN  10466>>ASSIGN  10477<<ASSIGN  10477>>ASSIGN
B_INTNTRY_END$
     10400**DCL     10457>>IF
B_INTNTRY_PAGE
     10402**DCL     10460<<ASSIGN  10460>>ASSIGN
PL6.E3A0      #009=XUO$INTNTRY File=XUO$BUILD.:E05TSI                            WED 07/30/97 09:27 Page:227
INTNTRY_CUR$
     10406**DCL     10329--IMP-PTR 10466<<ASSIGN  10467>>ASSIGN  10468>>ASSIGN  10469>>ASSIGN  10470>>ASSIGN
     10471>>ASSIGN  10472>>ASSIGN  10473>>ASSIGN  10474>>ASSIGN  10475>>ASSIGN
P_ALTRETURN_FLAG
     10303**DCL       111--PROC    10472>>ASSIGN
P_ARGUMENT_CHECK_FLAG
     10304**DCL       111--PROC    10473>>ASSIGN
P_CALL_TYPE
     10305**DCL       111--PROC    10474>>ASSIGN
P_ENTRY_FLAG
     10302**DCL       111--PROC    10471>>ASSIGN
P_LOGICAL_BLOCK_NUMBER
     10298**DCL       111--PROC    10467>>ASSIGN
P_NAME_POINTER
     10301**DCL       111--PROC    10470>>ASSIGN
P_NUMBER_ARGUMENTS
     10306**DCL       111--PROC    10475>>ASSIGN
P_SECTION_NUMBER
     10299**DCL       111--PROC    10468>>ASSIGN
P_SECTION_OFFSET
     10300**DCL       111--PROC    10469>>ASSIGN
XUO$OUWRITE
     10429**DCL-ENT 10459--CALL

PL6.E3A0      #010=XUO$EXST File=XUO$BUILD.:E05TSI                               WED 07/30/97 09:28 Page:228
     1701        1        /*M*     XUO$EXST -- THIS MODULE WILL BUILD OBJECT UNIT EXST RECORDS*/
     1702        2        /*T***********************************************************/
     1703        3        /*T*                                                         */
     1704        4        /*T* Copyright (c) Bull HN Information Systems Inc., 1997    */
     1705        5        /*T*                                                         */
     1706        6        /*T***********************************************************/
     1707        7        /*P*
     1708        8
     1709        9
     1710       10        NAME:  XUO$EXST
     1711       11        XUO$EXST --Executable Statement Debug Record (Record Type 13)
     1712       12
     1713       13        PURPOSE:  To build an entry in the Executable Statements
     1714       14                  Debug record.
     1715       15
     1716       16        DESCRIPTION:  The record contains one entry for every executable
     1717       17              statement and substatement in the module.  Note that the
     1718       18              logical block table scopes the statement set for every
     1719       19              logical block.  The statement table must be in order of
     1720       20              ascending line numbers, and includes all labeled statements
     1721       21              that can be branched to.
     1722       22
     1723       23        */
     1724       24        /*D*
     1725       25
     1726       26        CALL:  CALL XUO$EXST(Section Number,
     1727       27                      Offset,
     1728       28                      Name Pointer,
     1729       29                      Logical Block Entry Number,
     1730       30                      Compiler Optimized Flag,
     1731       31                      Statement Type,
     1732       32                      Line Number,
     1733       33                      Label Array Flag,
     1734       34                      Label Index)
     1735       35
     1736       36        INPUT:
     1737       37            Section Number      UBIN
PL6.E3A0      #010=XUO$EXST File=XUO$BUILD.:E05TSI                               WED 07/30/97 09:28 Page:229
     1738       38                                Contains an entry number into the
     1739       39                                  control section table (type 3)
     1740       40                                (OU only).
     1741       41            Offset              UBIN
     1742       42                                Word offset from the origin of the
     1743       43                                section. (OU)
     1744       44            Name Pointer        SBIN
     1745       45                                The word displacement into the debug
     1746       46                                name record (type 15) locating the
     1747       47                                statement label.  A value of -1
     1748       48                                indicates no label.
     1749       49            Logical Block Entry Number  UBIN
     1750       50                                This is the entry number in the logical
     1751       51                                block table of the logical block of the
     1752       52                                highest lexical level containing this
     1753       53                                statement.
     1754       54            Compiler Optimized Flag  BIT (1) UNALIGNED
     1755       55                                This flag indicates a compiler optimized
     1756       56                                statement;  when set, it indicates this
     1757       57                                statement may not produce correct results
     1758       58                                if the compiled in program flow has been
     1759       59                                altered.
     1760       60            Statement Type      UBIN
     1761       61                    This is the code which indicates the
     1762       62                      generic class of statement for use by the dubugger.
     1763       63
     1764       64                      The statement types and their value for STTYPE are:
     1765       65
     1766       66                       0 - Null Statement
     1767       67                       1 - Assignments
     1768       68                       2 - Call
     1769       69                       3 - Monitor Call
     1770       70                       4 - Alternate Shared Library Call
     1771       71                       5 - If
     1772       72                       6 - Else
     1773       73                       7 - Case
     1774       74                       8 - GOTO
PL6.E3A0      #010=XUO$EXST File=XUO$BUILD.:E05TSI                               WED 07/30/97 09:28 Page:230
     1775       75                       9 - Return
     1776       76                      10 - Altreturn
     1777       77                      11 - Remember
     1778       78                      12 - Unwind
     1779       79                      13 - Report Writer
     1780       80                      14 - Alter
     1781       81                      15 - Evaluate
     1782       82                      16 - Intrinsic Call
     1783       83                      17 - Spoil
     1784       84                      18 - GOTO Subscripted
     1785       85                      19 - Assigned GOTO
     1786       86                      20 - If Logical
     1787       87                      21 - If Arithmetic
     1788       88                      22 - Pause
     1789       89                      23 - Perform
     1790       90                      24 - Stop Program
     1791       91                      25 - I/O Statement
     1792       92                      26 - Else If
     1793       93                      27 - Assigned
     1794       94                      28 - Do Select
     1795       95                      29 - Do Select End
     1796       96                      30 - Select
     1797       97                      31 - Do Uninhibit
     1798       98                      32 - Inspect
     1799       99                      33 - Do Until
     1800      100                      34 - Do Index
     1801      101                      35 - Do While
     1802      102                      36 - Do Case
     1803      103                      37 - DO
     1804      104                      38 - DO INHIBIT
     1805      105                      39 - Set
     1806      106                      40 - Exit
     1807      107                      41 - Do Uninhibit End
     1808      108                      42 - Purge
     1809      109                      43 - Do Until End
     1810      110                      44 - Do Index End
     1811      111                      45 - Do While End
PL6.E3A0      #010=XUO$EXST File=XUO$BUILD.:E05TSI                               WED 07/30/97 09:28 Page:231
     1812      112                      46 - Do Case End
     1813      113                      47 - DO END
     1814      114                      48 - DO INHIBIT END
     1815      115                      49 - Release
     1816      116                      50 - Send
     1817      117                      51 - Data Base
     1818      118                      52 - Cancel
     1819      119                      53 - Initialize
     1820      120                      54 - Merge
     1821      121                      55 - Receive
     1822      122                      56 - Search
     1823      123                      57 - Sort
     1824      124                      58 - String
     1825      125                      59 - Unstring
     1826      126                      60 - Use
     1827      127                      61 - 100 Reserved for future use
     1828      128                     101 - Proc
     1829      129                     102 - Proc End
     1830      130                     103 - Entry
     1831      131                     104 - Compiler Miscellaneous
     1832      132            Line Number         UBIN
     1833      133                                The line number of this executable
     1834      134                                statement.
     1835      135            Label Array Flag    UBIN
     1836      136                                This flag is the label array indicator.
     1837      137                                When it is set to 1 the Subscript field
     1838      138                                contains the associated subscript value,
     1839      139                                otherwise the Subscript field contains
     1840      140                                all zeros.
     1841      141            Label Index         UBIN
     1842      142                                When the Label Array Flag is 1, this
     1843      143                                field contains the associated subscript
     1844      144                                value; otherwise, it contains all zeros.
     1845      145
     1846      146        OUTPUT:
     1847      147           none
     1848      148
PL6.E3A0      #010=XUO$EXST File=XUO$BUILD.:E05TSI                               WED 07/30/97 09:28 Page:232
     1849      149        B$OBJECT REFERENCE:  B$EXST
     1850      150        */
     1851      151        /*B*
     1852      152
     1853      153        GLOBAL DATA:
     1854      154           B_EXST_CUR$
     1855      155           B_EXST_COUNT
     1856      156           B_EXST_PAGE
     1857      157
     1858      158        INTERFACE:
     1859      159            XUO$OUWRITE
     1860      160
     1861      161        */
     1862      162
     1863      163        XUO$EXST: PROC(P_PARAM1,P_OFFSET,P_NAME_POINTER,P_LOGICAL_BLOCK_ENTRY_NUMBER,
     1864      164               P_COMPILER_OPTIMIZED_FLAG,P_STATEMENT_TYPE,P_LINE_NUMBER,P_LABEL_ARRAY_FLAG,
               164                   P_LABEL_INDEX);
     1865      165         /*
     1866      166            */
     1867      167        %INCLUDE ZVA_SYSTEM_FILE;
     1868     6418            %PAGE (ARG=INCLUDES);

              6431    1   /*******************************************************************************
              6432    1   *                                                                              *
              6433    1   *        INCLUDES              INCLUDES                                            *
              6434    1   *                                                                              *
              6435    1   *******************************************************************************/

     1869     6439        %INCLUDE B$OBJECT_C;
     1870     9869        %INCLUDE XUO$OBJ_C;
     1871    10279            %PAGE (ARG=SUBS);

             10292    1   /*******************************************************************************
             10293    1   *                                                                              *
             10294    1   *        SUBS              SUBS                                                  *
             10295    1   *                                                                              *
             10296    1   *******************************************************************************/
PL6.E3A0      #010=XUO$EXST File=XUO$BUILD.:E05TSI                               WED 07/30/97 09:28 Page:233

     1872    10300            %B$RECORDSUBS;
     1873    10328        %PLIST;
     1874    10329            %PAGE (ARG=PARAMETERS);

             10342    1   /*******************************************************************************
             10343    1   *                                                                              *
             10344    1   *        PARAMETERS              PARAMETERS                                        *
             10345    1   *                                                                              *
             10346    1   *******************************************************************************/

     1875    10350    1   DCL P_PARAM1 UBIN;
     1876    10351         /*
     1877    10352         The following definition is for XUO$EXST.
     1878    10353         */
     1879    10354    1   DCL P_SECTION_NUMBER REDEF P_PARAM1 UBIN;
     1880    10355         /*
     1881    10356         The following definition if for XUO$EXSTNUM.
     1882    10357         */
     1883    10358    1   DCL P_EXST_NUMBER REDEF P_PARAM1 UBIN;
     1884    10359    1   DCL P_OFFSET UBIN;
     1885    10360    1   DCL P_NAME_POINTER SBIN;
     1886    10361    1   DCL P_LOGICAL_BLOCK_ENTRY_NUMBER UBIN;
     1887    10362    1   DCL P_COMPILER_OPTIMIZED_FLAG BIT(1) UNAL;
     1888    10363    1   DCL P_STATEMENT_TYPE UBIN;
     1889    10364    1   DCL P_LINE_NUMBER UBIN;
     1890    10365    1   DCL P_LABEL_ARRAY_FLAG BIT(1) ALIGNED;
     1891    10366    1   DCL P_LABEL_INDEX UBIN;
     1892    10367         /*
     1893    10368            */
     1894    10369        %PAGE (ARG=EXST DATA);

             10382    1   /*******************************************************************************
             10383    1   *                                                                              *
             10384    1   *        EXST DATA              EXST DATA                                          *
             10385    1   *                                                                              *
             10386    1   *******************************************************************************/
PL6.E3A0      #010=XUO$EXST File=XUO$BUILD.:E05TSI                               WED 07/30/97 09:28 Page:234

     1895    10390        %B$EXST (STCLASS="BASED(EXST_CUR$)");
     1896    10497        %B_EXST_POINTERS;
     1897    10517    1   DCL EXST_CUR$ PTR;
     1898    10518        %PLIST;
     1899    10519        %PAGE (ARG=ENTRY DCLS);

             10532    1   /*******************************************************************************
             10533    1   *                                                                              *
             10534    1   *        ENTRY DCLS              ENTRY DCLS                                        *
             10535    1   *                                                                              *
             10536    1   *******************************************************************************/

     1900    10540    1   DCL XUO$OUWRITE ENTRY(2);
     1901    10541        %PAGE (ARG=XUO$EXST);

             10554    1   /*******************************************************************************
             10555    1   *                                                                              *
             10556    1   *        XUO$EXST              XUO$EXST                                            *
             10557    1   *                                                                              *
             10558    1   *******************************************************************************/

     1902    10562         /*
     1903    10563         The following will check to see if the passed information will
     1904    10564         fit in the current record.  If not, the current record will be
     1905    10565         written and the pointer re-initialized.  Then the text will be moved
     1906    10566         to the buffer.
     1907    10567         */
     1908    10568    1       IF B_EXST_CUR$>=B_EXST_END$ THEN
     1909    10569    2       DO;
     1910    10570    2           CALL XUO$OUWRITE(%TYPEXST);
     1911    10571    2           B_EXST_PAGE=B_EXST_PAGE+1;
     1912    10572    2           B_EXST_CUR$=B_EXST_BASE$;
     1913    10573    2           END;
     1914    10574         /*
     1915    10575         The following will build the executable statement entry.
     1916    10576         */
PL6.E3A0      #010=XUO$EXST File=XUO$BUILD.:E05TSI                               WED 07/30/97 09:28 Page:235
     1917    10577    1       EXST_CUR$=B_EXST_CUR$;
     1918    10578    1       IF ADDR(P_LABEL_ARRAY_FLAG)~=ADDR(NIL) THEN
     1919    10579    2       DO;
     1920    10580    2           B$EXST.LA=P_LABEL_ARRAY_FLAG;
     1921    10581    2           B$EXST.SUBSCRIPT=P_LABEL_INDEX;
     1922    10582    2           END;
     1923    10583    1       B$EXST.OU.SECTNUM=P_SECTION_NUMBER;
     1924    10584    1       B$EXST.OU.OFFSET=P_OFFSET;
     1925    10585    1       B$EXST.NPOINTER=P_NAME_POINTER;
     1926    10586    1       B$EXST.LBE=P_LOGICAL_BLOCK_ENTRY_NUMBER;
     1927    10587    1       B$EXST.COS=P_COMPILER_OPTIMIZED_FLAG;
     1928    10588    1       B$EXST.STTYPE=P_STATEMENT_TYPE;
     1929    10589    1       B$EXST.LINENUM=P_LINE_NUMBER;
     1930    10590    1       B_EXST_COUNT=B_EXST_COUNT+1;
     1931    10591    1       B_EXST_CUR$=PINCRW(B_EXST_CUR$,SIZEW(B$EXST));
     1932    10592    1       RETURN;
     1933    10593            %PAGE (ARG=XUO$EXSTNUM);

             10606    1   /*******************************************************************************
             10607    1   *                                                                              *
             10608    1   *        XUO$EXSTNUM              XUO$EXSTNUM                                      *
             10609    1   *                                                                              *
             10610    1   *******************************************************************************/

     1934    10614        /*P*
     1935    10615
     1936    10616
     1937    10617        NAME:  XUO$EXSTNUM
     1938    10618        XUO$EXSTNUM --Executable Statement Debug Record (Record Type 13)
     1939    10619
     1940    10620        PURPOSE:  To return the number of the next executable
     1941    10621                  statement debug entry.
     1942    10622
     1943    10623        DESCRIPTION:  This routine returns the number of the next
     1944    10624                  Executable Statement Debug entry to be allocated.
     1945    10625                  The returned value is used as input in the calls
     1946    10626                  to XUO$LOGBLKEXSTINIT and XUO$LOGBLKEXSTTERM
PL6.E3A0      #010=XUO$EXST File=XUO$BUILD.:E05TSI                               WED 07/30/97 09:28 Page:236
     1947    10627                  where starting and ending Executable Statement
     1948    10628                  debug entry number is required.
     1949    10629
     1950    10630        */
     1951    10631        /*D*
     1952    10632
     1953    10633        CALL:  CALL XUO$EXSTNUM (Executable Statement Number)
     1954    10634
     1955    10635        INPUT:
     1956    10636           none
     1957    10637
     1958    10638        OUTPUT:
     1959    10639           Executable Statement number  UBIN
     1960    10640                                The number of the next executable
     1961    10641                                statement entry to be allocated.
     1962    10642
     1963    10643        B$OBJECT REFERENCE:  none
     1964    10644        */
     1965    10645        /*B*
     1966    10646
     1967    10647        GLOBAL DATA:  none
     1968    10648
     1969    10649        INTERFACE:  none
     1970    10650
     1971    10651
     1972    10652        */
     1973    10653
     1974    10654    1   XUO$EXSTNUM: ENTRY(P_PARAM1);
     1975    10655         /*
     1976    10656            */
     1977    10657    1       P_EXST_NUMBER=B_EXST_COUNT+1;
     1978    10658    1       RETURN;
     1979    10659    1   END XUO$EXST;
     1980    10660        %EOD;

PL6.E3A0      #010=XUO$EXST File=XUO$BUILD.:E05TSI                               WED 07/30/97 09:28 Page:237
--  Include file information  --

   XUO$OBJ_C.:E05TOU  is referenced.
   B$OBJECT_C.:E05TOU  is referenced.
   CP_6_SUBS.:E05TOU  is referenced.
   CP_6_C.:E05TOU  is referenced.
   CP_6.:E05TOU  cannot be made into a system file and is referenced.
   ZVA_FLAGS.:TOOLE04  is referenced.
   ZVA_SYSTEM_FILE.:TOOLE04  is referenced.
      No diagnostics issued in procedure XUO$EXST.

   Procedure XUO$EXST requires 67 words for executable code.
   Procedure XUO$EXST requires 14 words of local(AUTO) storage.

PL6.E3A0      #010=XUO$EXST File=XUO$BUILD.:E05TSI                               WED 07/30/97 09:28 Page:238

 Object Unit name= XUO$EXST                                   File name= XUO$BUILD.:E05TOU
 UTS= JUL 30 '97 09:28:13.80 WED                              Compiler= PL-6/E31         Sev=      00
 SharedLib= :SHARED_SYSTEM                                    Alt SharedLib=


    ****  Control sections  ****

 Sect   Type Bound  Init  Size OctSiz  Section name(segment info)
    0   DCB   even  none     0      0  M$UC
    1   Proc  even  none    67    103  XUO$EXST
    2  RoData even  none     2      2  XUO$EXST

    ****  Entry defs  ****

                              Check   Calling
                             calling  sequence
  Sect OctLoc Primary Altret sequence   type   Parms  Name
     1      0   yes            yes      Std        9  XUO$EXST
     1     74                  yes      Std        1  XUO$EXSTNUM

  ****  Entry refs  ****

         Check        Calling
        calling       sequence
Altret sequence SRef   type   Args  Name
         yes           Std       2 XUO$OUWRITE
                       nStd      0 X66_AUTO_N
                       Std       0 B_CONSPOOL_D
                       nStd      0 X66_ARET
PL6.E3A0      #010=XUO$EXST File=XUO$BUILD.:E05TSI                               WED 07/30/97 09:28 Page:239

  ****  Data refs  ****

  Flags:  r = read only, s = secondary
Flgs Name                             Flgs Name                             Flgs Name
     M$UC                                  B_EXST_BASE$                          B_EXST_CUR$
     B_EXST_END$                           B_EXST_COUNT                          B_EXST_PAGE
     B_VECTNIL

  ****  Segment refs  ****

  Flags:  r = read only, s = secondary
Flgs Name                             Flgs Name                             Flgs Name
     ISSID
PL6.E3A0      #010=XUO$EXST File=XUO$BUILD.:E05TSI                               WED 07/30/97 09:28 Page:240


     1701        1        /*M*     XUO$EXST -- THIS MODULE WILL BUILD OBJECT UNIT EXST RECORDS*/
     1702        2        /*T***********************************************************/
     1703        3        /*T*                                                         */
     1704        4        /*T* Copyright (c) Bull HN Information Systems Inc., 1997    */
     1705        5        /*T*                                                         */
     1706        6        /*T***********************************************************/
     1707        7        /*P*
     1708        8
     1709        9
     1710       10        NAME:  XUO$EXST
     1711       11        XUO$EXST --Executable Statement Debug Record (Record Type 13)
     1712       12
     1713       13        PURPOSE:  To build an entry in the Executable Statements
     1714       14                  Debug record.
     1715       15
     1716       16        DESCRIPTION:  The record contains one entry for every executable
     1717       17              statement and substatement in the module.  Note that the
     1718       18              logical block table scopes the statement set for every
     1719       19              logical block.  The statement table must be in order of
     1720       20              ascending line numbers, and includes all labeled statements
     1721       21              that can be branched to.
     1722       22
     1723       23        */
     1724       24        /*D*
     1725       25
     1726       26        CALL:  CALL XUO$EXST(Section Number,
     1727       27                      Offset,
     1728       28                      Name Pointer,
     1729       29                      Logical Block Entry Number,
     1730       30                      Compiler Optimized Flag,
     1731       31                      Statement Type,
     1732       32                      Line Number,
     1733       33                      Label Array Flag,
     1734       34                      Label Index)
     1735       35
     1736       36        INPUT:
PL6.E3A0      #010=XUO$EXST File=XUO$BUILD.:E05TSI                               WED 07/30/97 09:28 Page:241
     1737       37            Section Number      UBIN
     1738       38                                Contains an entry number into the
     1739       39                                  control section table (type 3)
     1740       40                                (OU only).
     1741       41            Offset              UBIN
     1742       42                                Word offset from the origin of the
     1743       43                                section. (OU)
     1744       44            Name Pointer        SBIN
     1745       45                                The word displacement into the debug
     1746       46                                name record (type 15) locating the
     1747       47                                statement label.  A value of -1
     1748       48                                indicates no label.
     1749       49            Logical Block Entry Number  UBIN
     1750       50                                This is the entry number in the logical
     1751       51                                block table of the logical block of the
     1752       52                                highest lexical level containing this
     1753       53                                statement.
     1754       54            Compiler Optimized Flag  BIT (1) UNALIGNED
     1755       55                                This flag indicates a compiler optimized
     1756       56                                statement;  when set, it indicates this
     1757       57                                statement may not produce correct results
     1758       58                                if the compiled in program flow has been
     1759       59                                altered.
     1760       60            Statement Type      UBIN
     1761       61                    This is the code which indicates the
     1762       62                      generic class of statement for use by the dubugger.
     1763       63
     1764       64                      The statement types and their value for STTYPE are:
     1765       65
     1766       66                       0 - Null Statement
     1767       67                       1 - Assignments
     1768       68                       2 - Call
     1769       69                       3 - Monitor Call
     1770       70                       4 - Alternate Shared Library Call
     1771       71                       5 - If
     1772       72                       6 - Else
     1773       73                       7 - Case
PL6.E3A0      #010=XUO$EXST File=XUO$BUILD.:E05TSI                               WED 07/30/97 09:28 Page:242
     1774       74                       8 - GOTO
     1775       75                       9 - Return
     1776       76                      10 - Altreturn
     1777       77                      11 - Remember
     1778       78                      12 - Unwind
     1779       79                      13 - Report Writer
     1780       80                      14 - Alter
     1781       81                      15 - Evaluate
     1782       82                      16 - Intrinsic Call
     1783       83                      17 - Spoil
     1784       84                      18 - GOTO Subscripted
     1785       85                      19 - Assigned GOTO
     1786       86                      20 - If Logical
     1787       87                      21 - If Arithmetic
     1788       88                      22 - Pause
     1789       89                      23 - Perform
     1790       90                      24 - Stop Program
     1791       91                      25 - I/O Statement
     1792       92                      26 - Else If
     1793       93                      27 - Assigned
     1794       94                      28 - Do Select
     1795       95                      29 - Do Select End
     1796       96                      30 - Select
     1797       97                      31 - Do Uninhibit
     1798       98                      32 - Inspect
     1799       99                      33 - Do Until
     1800      100                      34 - Do Index
     1801      101                      35 - Do While
     1802      102                      36 - Do Case
     1803      103                      37 - DO
     1804      104                      38 - DO INHIBIT
     1805      105                      39 - Set
     1806      106                      40 - Exit
     1807      107                      41 - Do Uninhibit End
     1808      108                      42 - Purge
     1809      109                      43 - Do Until End
     1810      110                      44 - Do Index End
PL6.E3A0      #010=XUO$EXST File=XUO$BUILD.:E05TSI                               WED 07/30/97 09:28 Page:243
     1811      111                      45 - Do While End
     1812      112                      46 - Do Case End
     1813      113                      47 - DO END
     1814      114                      48 - DO INHIBIT END
     1815      115                      49 - Release
     1816      116                      50 - Send
     1817      117                      51 - Data Base
     1818      118                      52 - Cancel
     1819      119                      53 - Initialize
     1820      120                      54 - Merge
     1821      121                      55 - Receive
     1822      122                      56 - Search
     1823      123                      57 - Sort
     1824      124                      58 - String
     1825      125                      59 - Unstring
     1826      126                      60 - Use
     1827      127                      61 - 100 Reserved for future use
     1828      128                     101 - Proc
     1829      129                     102 - Proc End
     1830      130                     103 - Entry
     1831      131                     104 - Compiler Miscellaneous
     1832      132            Line Number         UBIN
     1833      133                                The line number of this executable
     1834      134                                statement.
     1835      135            Label Array Flag    UBIN
     1836      136                                This flag is the label array indicator.
     1837      137                                When it is set to 1 the Subscript field
     1838      138                                contains the associated subscript value,
     1839      139                                otherwise the Subscript field contains
     1840      140                                all zeros.
     1841      141            Label Index         UBIN
     1842      142                                When the Label Array Flag is 1, this
     1843      143                                field contains the associated subscript
     1844      144                                value; otherwise, it contains all zeros.
     1845      145
     1846      146        OUTPUT:
     1847      147           none
PL6.E3A0      #010=XUO$EXST File=XUO$BUILD.:E05TSI                               WED 07/30/97 09:28 Page:244
     1848      148
     1849      149        B$OBJECT REFERENCE:  B$EXST
     1850      150        */
     1851      151        /*B*
     1852      152
     1853      153        GLOBAL DATA:
     1854      154           B_EXST_CUR$
     1855      155           B_EXST_COUNT
     1856      156           B_EXST_PAGE
     1857      157
     1858      158        INTERFACE:
     1859      159            XUO$OUWRITE
     1860      160
     1861      161        */
     1862      162
     1863      163        XUO$EXST: PROC(P_PARAM1,P_OFFSET,P_NAME_POINTER,P_LOGICAL_BLOCK_ENTRY_NUMBER,

    163  1 000000   000000 700200 xent  XUO$EXST     TSX0  ! X66_AUTO_N
         1 000001   000016 000011                    ZERO    14,9

     1864      164               P_COMPILER_OPTIMIZED_FLAG,P_STATEMENT_TYPE,P_LINE_NUMBER,P_LABEL_ARRAY_FLAG,
               164                   P_LABEL_INDEX);
     1865      165         /*
     1866      166            */
     1867      167        %INCLUDE ZVA_SYSTEM_FILE;
     1868     6418            %PAGE (ARG=INCLUDES);

              6431    1   /*******************************************************************************
              6432    1   *                                                                              *
              6433    1   *        INCLUDES              INCLUDES                                           *
              6434    1   *                                                                              *
              6435    1   *******************************************************************************/

     1869     6439        %INCLUDE B$OBJECT_C;
     1870     9869        %INCLUDE XUO$OBJ_C;
     1871    10279            %PAGE (ARG=SUBS);

PL6.E3A0      #010=XUO$EXST File=XUO$BUILD.:E05TSI                               WED 07/30/97 09:28 Page:245
             10292    1   /*******************************************************************************
             10293    1   *                                                                              *
             10294    1   *        SUBS              SUBS                                                  *
             10295    1   *                                                                              *
             10296    1   *******************************************************************************/

     1872    10300            %B$RECORDSUBS;
     1873    10328        %PLIST;
     1874    10329            %PAGE (ARG=PARAMETERS);

             10342    1   /*******************************************************************************
             10343    1   *                                                                              *
             10344    1   *        PARAMETERS              PARAMETERS                                       *
             10345    1   *                                                                              *
             10346    1   *******************************************************************************/

     1875    10350    1   DCL P_PARAM1 UBIN;
     1876    10351         /*
     1877    10352         The following definition is for XUO$EXST.
     1878    10353         */
     1879    10354    1   DCL P_SECTION_NUMBER REDEF P_PARAM1 UBIN;
     1880    10355         /*
     1881    10356         The following definition if for XUO$EXSTNUM.
     1882    10357         */
     1883    10358    1   DCL P_EXST_NUMBER REDEF P_PARAM1 UBIN;
     1884    10359    1   DCL P_OFFSET UBIN;
     1885    10360    1   DCL P_NAME_POINTER SBIN;
     1886    10361    1   DCL P_LOGICAL_BLOCK_ENTRY_NUMBER UBIN;
     1887    10362    1   DCL P_COMPILER_OPTIMIZED_FLAG BIT(1) UNAL;
     1888    10363    1   DCL P_STATEMENT_TYPE UBIN;
     1889    10364    1   DCL P_LINE_NUMBER UBIN;
     1890    10365    1   DCL P_LABEL_ARRAY_FLAG BIT(1) ALIGNED;
     1891    10366    1   DCL P_LABEL_INDEX UBIN;
     1892    10367         /*
     1893    10368            */
     1894    10369        %PAGE (ARG=EXST DATA);

PL6.E3A0      #010=XUO$EXST File=XUO$BUILD.:E05TSI                               WED 07/30/97 09:28 Page:246
             10382    1   /*******************************************************************************
             10383    1   *                                                                              *
             10384    1   *        EXST DATA              EXST DATA                                         *
             10385    1   *                                                                              *
             10386    1   *******************************************************************************/

     1895    10390        %B$EXST (STCLASS="BASED(EXST_CUR$)");
     1896    10497        %B_EXST_POINTERS;
     1897    10517    1   DCL EXST_CUR$ PTR;
     1898    10518        %PLIST;
     1899    10519        %PAGE (ARG=ENTRY DCLS);

             10532    1   /*******************************************************************************
             10533    1   *                                                                              *
             10534    1   *        ENTRY DCLS              ENTRY DCLS                                       *
             10535    1   *                                                                              *
             10536    1   *******************************************************************************/

     1900    10540    1   DCL XUO$OUWRITE ENTRY(2);
     1901    10541        %PAGE (ARG=XUO$EXST);

             10554    1   /*******************************************************************************
             10555    1   *                                                                              *
             10556    1   *        XUO$EXST              XUO$EXST                                           *
             10557    1   *                                                                              *
             10558    1   *******************************************************************************/

     1902    10562         /*
     1903    10563         The following will check to see if the passed information will
     1904    10564         fit in the current record.  If not, the current record will be
     1905    10565         written and the pointer re-initialized.  Then the text will be moved
     1906    10566         to the buffer.
     1907    10567         */
     1908    10568    1       IF B_EXST_CUR$>=B_EXST_END$ THEN

  10568  1 000002   000000 236000 xsym               LDQ     B_EXST_CUR$
         1 000003   000000 116000 xsym               CMPQ    B_EXST_END$
PL6.E3A0      #010=XUO$EXST File=XUO$BUILD.:E05TSI                               WED 07/30/97 09:28 Page:247
         1 000004   000014 602000 1                  TNC     s:10577

     1909    10569    2       DO;

     1910    10570    2           CALL XUO$OUWRITE(%TYPEXST);

  10570  1 000005   000001 630400 2                  EPPR0   1
         1 000006   000017 631400 xsym               EPPR1   B_VECTNIL+15
         1 000007   000000 701000 xent               TSX1    XUO$OUWRITE
         1 000010   000000 011000                    NOP     0

     1911    10571    2           B_EXST_PAGE=B_EXST_PAGE+1;

  10571  1 000011   000000 054000 xsym               AOS     B_EXST_PAGE

     1912    10572    2           B_EXST_CUR$=B_EXST_BASE$;

  10572  1 000012   000000 236000 xsym               LDQ     B_EXST_BASE$
         1 000013   000000 756000 xsym               STQ     B_EXST_CUR$

     1913    10573    2           END;

     1914    10574         /*
     1915    10575         The following will build the executable statement entry.
     1916    10576         */
     1917    10577    1       EXST_CUR$=B_EXST_CUR$;

  10577  1 000014   200014 756100                    STQ     EXST_CUR$,,AUTO

     1918    10578    1       IF ADDR(P_LABEL_ARRAY_FLAG)~=ADDR(NIL) THEN

  10578  1 000015   200012 236100                    LDQ     @P_LABEL_ARRAY_FLAG,,AUTO
         1 000016   000001 116000 xsym               CMPQ    B_VECTNIL+1
         1 000017   000034 600000 1                  TZE     s:10583

     1919    10579    2       DO;

PL6.E3A0      #010=XUO$EXST File=XUO$BUILD.:E05TSI                               WED 07/30/97 09:28 Page:248
     1920    10580    2           B$EXST.LA=P_LABEL_ARRAY_FLAG;

  10580  1 000020   200014 470500                    LDP0    EXST_CUR$,,AUTO
         1 000021   200012 471500                    LDP1    @P_LABEL_ARRAY_FLAG,,AUTO
         1 000022   100000 236100                    LDQ     0,,PR1
         1 000023   000000 676100                    ERQ     0,,PR0
         1 000024   400000 376003                    ANQ     -131072,DU
         1 000025   000000 656100                    ERSQ    0,,PR0

     1921    10581    2           B$EXST.SUBSCRIPT=P_LABEL_INDEX;

  10581  1 000026   200013 473500                    LDP3    @P_LABEL_INDEX,,AUTO
         1 000027   300000 236100                    LDQ     0,,PR3
         1 000030   000033 736000                    QLS     27
         1 000031   000000 676100                    ERQ     0,,PR0
         1 000032   377000 376003                    ANQ     130560,DU
         1 000033   000000 656100                    ERSQ    0,,PR0

     1922    10582    2           END;

     1923    10583    1       B$EXST.OU.SECTNUM=P_SECTION_NUMBER;

  10583  1 000034   200003 470500                    LDP0    @P_PARAM1,,AUTO
         1 000035   200014 471500                    LDP1    EXST_CUR$,,AUTO
         1 000036   000000 236100                    LDQ     0,,PR0
         1 000037   000022 736000                    QLS     18
         1 000040   100000 552120                    STBQ    0,'20'O,PR1

     1924    10584    1       B$EXST.OU.OFFSET=P_OFFSET;

  10584  1 000041   200004 473500                    LDP3    @P_OFFSET,,AUTO
         1 000042   300000 720100                    LXL0    0,,PR3
         1 000043   100000 440100                    SXL0    0,,PR1

     1925    10585    1       B$EXST.NPOINTER=P_NAME_POINTER;

  10585  1 000044   200005 474500                    LDP4    @P_NAME_POINTER,,AUTO
PL6.E3A0      #010=XUO$EXST File=XUO$BUILD.:E05TSI                               WED 07/30/97 09:28 Page:249
         1 000045   400000 721100                    LXL1    0,,PR4
         1 000046   100001 741100                    STX1    1,,PR1

     1926    10586    1       B$EXST.LBE=P_LOGICAL_BLOCK_ENTRY_NUMBER;

  10586  1 000047   200006 475500                    LDP5    @P_LOGICAL_BLOCK_ENTRY_NUMBER,,AUTO
         1 000050   500000 722100                    LXL2    0,,PR5
         1 000051   100001 442100                    SXL2    1,,PR1

     1927    10587    1       B$EXST.COS=P_COMPILER_OPTIMIZED_FLAG;

  10587  1 000052   200007 476500                    LDP6    @P_COMPILER_OPTIMIZED_FLAG,,AUTO
         1 000053   003100 060500                    CSL     bolr='003'O
         1 000054   600000 000001                    BDSC    0,,PR6                   by=0,bit=0,n=1
         1 000055   100002 000001                    BDSC    2,,PR1                   by=0,bit=0,n=1

     1928    10588    1       B$EXST.STTYPE=P_STATEMENT_TYPE;

  10588  1 000056   200010 477500                    LDP7    @P_STATEMENT_TYPE,,AUTO
         1 000057   700000 236100                    LDQ     0,,PR7
         1 000060   000022 736000                    QLS     18
         1 000061   100002 676100                    ERQ     2,,PR1
         1 000062   000177 376003                    ANQ     127,DU
         1 000063   100002 656100                    ERSQ    2,,PR1

     1929    10589    1       B$EXST.LINENUM=P_LINE_NUMBER;

  10589  1 000064   200011 470500                    LDP0    @P_LINE_NUMBER,,AUTO
         1 000065   000000 723100                    LXL3    0,,PR0
         1 000066   100002 443100                    SXL3    2,,PR1

     1930    10590    1       B_EXST_COUNT=B_EXST_COUNT+1;

  10590  1 000067   000000 054000 xsym               AOS     B_EXST_COUNT

     1931    10591    1       B_EXST_CUR$=PINCRW(B_EXST_CUR$,SIZEW(B$EXST));

PL6.E3A0      #010=XUO$EXST File=XUO$BUILD.:E05TSI                               WED 07/30/97 09:28 Page:250
  10591  1 000070   000000 236000 xsym               LDQ     B_EXST_CUR$
         1 000071   000003 036003                    ADLQ    3,DU
         1 000072   000000 756000 xsym               STQ     B_EXST_CUR$

     1932    10592    1       RETURN;

  10592  1 000073   000000 702200 xent               TSX2  ! X66_ARET

     1933    10593            %PAGE (ARG=XUO$EXSTNUM);

             10606    1   /*******************************************************************************
             10607    1   *                                                                              *
             10608    1   *        XUO$EXSTNUM              XUO$EXSTNUM                                     *
             10609    1   *                                                                              *
             10610    1   *******************************************************************************/

     1934    10614        /*P*
     1935    10615
     1936    10616
     1937    10617        NAME:  XUO$EXSTNUM
     1938    10618        XUO$EXSTNUM --Executable Statement Debug Record (Record Type 13)
     1939    10619
     1940    10620        PURPOSE:  To return the number of the next executable
     1941    10621                  statement debug entry.
     1942    10622
     1943    10623        DESCRIPTION:  This routine returns the number of the next
     1944    10624                  Executable Statement Debug entry to be allocated.
     1945    10625                  The returned value is used as input in the calls
     1946    10626                  to XUO$LOGBLKEXSTINIT and XUO$LOGBLKEXSTTERM
     1947    10627                  where starting and ending Executable Statement
     1948    10628                  debug entry number is required.
     1949    10629
     1950    10630        */
     1951    10631        /*D*
     1952    10632
     1953    10633        CALL:  CALL XUO$EXSTNUM (Executable Statement Number)
     1954    10634
PL6.E3A0      #010=XUO$EXST File=XUO$BUILD.:E05TSI                               WED 07/30/97 09:28 Page:251
     1955    10635        INPUT:
     1956    10636           none
     1957    10637
     1958    10638        OUTPUT:
     1959    10639           Executable Statement number  UBIN
     1960    10640                                The number of the next executable
     1961    10641                                statement entry to be allocated.
     1962    10642
     1963    10643        B$OBJECT REFERENCE:  none
     1964    10644        */
     1965    10645        /*B*
     1966    10646
     1967    10647        GLOBAL DATA:  none
     1968    10648
     1969    10649        INTERFACE:  none
     1970    10650
     1971    10651
     1972    10652        */
     1973    10653
     1974    10654    1   XUO$EXSTNUM: ENTRY(P_PARAM1);

  10654  1 000074   000000 700200 xent  XUO$EXSTNUM  TSX0  ! X66_AUTO_N
         1 000075   000016 000011                    ZERO    14,9

     1975    10655         /*
     1976    10656            */
     1977    10657    1       P_EXST_NUMBER=B_EXST_COUNT+1;

  10657  1 000076   000000 235000 xsym               LDA     B_EXST_COUNT
         1 000077   000001 035007                    ADLA    1,DL
         1 000100   200003 470500                    LDP0    @P_PARAM1,,AUTO
         1 000101   000000 755100                    STA     0,,PR0

     1978    10658    1       RETURN;

  10658  1 000102   000000 702200 xent               TSX2  ! X66_ARET
     1979    10659    1   END XUO$EXST;
PL6.E3A0      #010=XUO$EXST File=XUO$BUILD.:E05TSI                               WED 07/30/97 09:28 Page:252
     1980    10660        %EOD;

PL6.E3A0      #010=XUO$EXST File=XUO$BUILD.:E05TSI                               WED 07/30/97 09:28 Page:253
--  Include file information  --

   XUO$OBJ_C.:E05TOU  is referenced.
   B$OBJECT_C.:E05TOU  is referenced.
   CP_6_SUBS.:E05TOU  is referenced.
   CP_6_C.:E05TOU  is referenced.
   CP_6.:E05TOU  cannot be made into a system file and is referenced.
   ZVA_FLAGS.:TOOLE04  is referenced.
   ZVA_SYSTEM_FILE.:TOOLE04  is referenced.
      No diagnostics issued in procedure XUO$EXST.
PL6.E3A0      #010=XUO$EXST File=XUO$BUILD.:E05TSI                               WED 07/30/97 09:28 Page:254

 **** Variables and constants ****

  ****  Auto variables  ****

  ****  Scalars and arrays  ****
OctLoc.c.b A Datatyp(siz) R M Lvl/name                 OctLoc.c.b A Datatyp(siz) R M Lvl/name

     7-0-0/w PTR         r     1 @P_COMPILER_OPTIMIZED_FLAG
    12-0-0/w PTR         r     1 @P_LABEL_ARRAY_FLAG       13-0-0/w PTR         r     1 @P_LABEL_INDEX
    11-0-0/w PTR         r     1 @P_LINE_NUMBER
     6-0-0/w PTR         r     1 @P_LOGICAL_BLOCK_ENTRY_NUMBER
     5-0-0/w PTR         r     1 @P_NAME_POINTER            4-0-0/w PTR         r     1 @P_OFFSET
     3-0-0/w PTR         r     1 @P_PARAM1                 10-0-0/w PTR         r     1 @P_STATEMENT_TYPE
    14-0-0/w PTR         r     1 EXST_CUR$
    *0-0-0/b BIT         r     1 P_COMPILER_OPTIMIZED_FLAG
    *0-0-0/w UBIN        r     1 P_EXST_NUMBER             *0-0-0/w BIT         r     1 P_LABEL_ARRAY_FLAG
    *0-0-0/w UBIN        r     1 P_LABEL_INDEX             *0-0-0/w UBIN        r     1 P_LINE_NUMBER
    *0-0-0/w UBIN        r     1 P_LOGICAL_BLOCK_ENTRY_NUMBER
    *0-0-0/w SBIN        r     1 P_NAME_POINTER            *0-0-0/w UBIN        r     1 P_OFFSET
    *0-0-0/w UBIN        r     1 P_PARAM1                  *0-0-0/w UBIN        r     1 P_SECTION_NUMBER
    *0-0-0/w UBIN        r     1 P_STATEMENT_TYPE

  ****  SYMREF variables  ****

  ****  Scalars and arrays  ****
OctLoc.c.b A Datatyp(siz) R M Lvl/name                 OctLoc.c.b A Datatyp(siz) R M Lvl/name

     0-0-0/w PTR         r     1 B_EXST_BASE$               0-0-0/w SBIN        r     1 B_EXST_COUNT
     0-0-0/w PTR         r     1 B_EXST_CUR$                0-0-0/w PTR         r     1 B_EXST_END$
     0-0-0/w SBIN        r     1 B_EXST_PAGE

  ****  BASED and DCB variables  ****

  ****  Scalars and arrays  ****
OctLoc.c.b A Datatyp(siz) R M Lvl/name                 OctLoc.c.b A Datatyp(siz) R M Lvl/name

     0-0-0/w STRC(108)   r     1 B$EXST
PL6.E3A0      #010=XUO$EXST File=XUO$BUILD.:E05TSI                               WED 07/30/97 09:28 Page:255


   Procedure XUO$EXST requires 67 words for executable code.
   Procedure XUO$EXST requires 14 words of local(AUTO) storage.
PL6.E3A0      #010=XUO$EXST File=XUO$BUILD.:E05TSI                               WED 07/30/97 09:28 Page:256
          *** CROSS REFERENCE LISTING ***
**     DENOTES     IDENTIFIER DEFINITION
<<                 IDENTIFIER'S VALUE SET
>>                 IDENTIFIER'S VALUE USED
<>                 IDENTIFIER SET AND/OR USED
--                 IDENTIFIER REFERENCED
PL6.E3A0      #010=XUO$EXST File=XUO$BUILD.:E05TSI                               WED 07/30/97 09:28 Page:257
          MINI XREF LISTING

B$EXST
     10391**DCL     10591--ASSIGN
B$EXST.COS
     10416**DCL     10587<<ASSIGN
B$EXST.LA
     10392**DCL     10580<<ASSIGN
B$EXST.LBE
     10412**DCL     10586<<ASSIGN
B$EXST.LINENUM
     10494**DCL     10589<<ASSIGN
B$EXST.NPOINTER
     10408**DCL     10585<<ASSIGN
B$EXST.OU
     10400**DCL     10406--REDEF
B$EXST.OU.OFFSET
     10404**DCL     10584<<ASSIGN
B$EXST.OU.SECTNUM
     10401**DCL     10583<<ASSIGN
B$EXST.STTYPE
     10424**DCL     10588<<ASSIGN
B$EXST.SUBSCRIPT
     10396**DCL     10581<<ASSIGN
B_EXST_BASE$
     10509**DCL     10572>>ASSIGN
B_EXST_COUNT
     10512**DCL     10590<<ASSIGN  10590>>ASSIGN  10657>>ASSIGN
B_EXST_CUR$
     10510**DCL     10568>>IF      10572<<ASSIGN  10577>>ASSIGN  10591<<ASSIGN  10591>>ASSIGN
B_EXST_END$
     10511**DCL     10568>>IF
B_EXST_PAGE
     10513**DCL     10571<<ASSIGN  10571>>ASSIGN
PL6.E3A0      #010=XUO$EXST File=XUO$BUILD.:E05TSI                               WED 07/30/97 09:28 Page:258
EXST_CUR$
     10517**DCL     10391--IMP-PTR 10577<<ASSIGN  10580>>ASSIGN  10581>>ASSIGN  10583>>ASSIGN  10584>>ASSIGN
     10585>>ASSIGN  10586>>ASSIGN  10587>>ASSIGN  10588>>ASSIGN  10589>>ASSIGN
P_COMPILER_OPTIMIZED_FLAG
     10362**DCL       163--PROC    10587>>ASSIGN
P_EXST_NUMBER
     10358**DCL     10657<<ASSIGN
P_LABEL_ARRAY_FLAG
     10365**DCL       163--PROC    10578--IF      10580>>ASSIGN
P_LABEL_INDEX
     10366**DCL       163--PROC    10581>>ASSIGN
P_LINE_NUMBER
     10364**DCL       163--PROC    10589>>ASSIGN
P_LOGICAL_BLOCK_ENTRY_NUMBER
     10361**DCL       163--PROC    10586>>ASSIGN
P_NAME_POINTER
     10360**DCL       163--PROC    10585>>ASSIGN
P_OFFSET
     10359**DCL       163--PROC    10584>>ASSIGN
P_PARAM1
     10350**DCL       163--PROC    10354--REDEF   10358--REDEF   10654--ENTRY
P_SECTION_NUMBER
     10354**DCL     10583>>ASSIGN
P_STATEMENT_TYPE
     10363**DCL       163--PROC    10588>>ASSIGN
XUO$OUWRITE
     10540**DCL-ENT 10570--CALL

PL6.E3A0      #011=XUO$VREBL File=XUO$BUILD.:E05TSI                              WED 07/30/97 09:28 Page:259
     1981        1        /*M*     XUO$VREBL -- THIS MODULE WILL BUILD OBJECT UNIT VREBL RECORDS*/
     1982        2        /*T***********************************************************/
     1983        3        /*T*                                                         */
     1984        4        /*T* Copyright (c) Bull HN Information Systems Inc., 1997    */
     1985        5        /*T*                                                         */
     1986        6        /*T***********************************************************/
     1987        7        /*P*
     1988        8
     1989        9
     1990       10        NAME:  XUO$VREBL
     1991       11        XUO$VREBL --Variable Debug Record (Record Type 14)
     1992       12
     1993       13        PURPOSE:  To build entries in the Variable Debug Record
     1994       14            (Record Type 14).
     1995       15
     1996       16        DESCRIPTION:  This routine builds an entry into the Variable
     1997       17            Debug Record (type 14).  The record contains descriptions
     1998       18            for every variable in the module.  Note that the logical
     1999       19            block table scopes the variable set for each logical
     2000       20            block.  A complete variable description may require more
     2001       21            than one entry.
     2002       22
     2003       23        */
     2004       24        /*D*
     2005       25
     2006       26        CALL:  CALL XUO$VREBL (Address,
     2007       27                        Address Type,
     2008       28                        Data Type,
     2009       29                        Reference Flag,
     2010       30                        Modified Flag,
     2011       31                        Logical Size,
     2012       32                        Level Number,
     2013       33                        Alignment Type,
     2014       34                        Size Type Flag,
     2015       35                        Array Type,
     2016       36                        Operand Type,
     2017       37                        Implied Pointer,
PL6.E3A0      #011=XUO$VREBL File=XUO$BUILD.:E05TSI                              WED 07/30/97 09:28 Page:260
     2018       38                        Operand,
     2019       39                        Element Size,
     2020       40                        Scale Factor,
     2021       41                        Dimensions,
     2022       42                        Name Pointer,
     2023       43                        Entry Number,
     2024       44                       *Status Exists)
     2025       45
     2026       46        INPUT:
     2027       47            Address             UBIN ALIGNED
     2028       48                                Address of the variable.
     2029       49            Address Type        UBIN ALIGNED
     2030       50                                The address type determines how to
     2031       51                                use the address and possible other
     2032       52                                information to locate the data described
     2033       53                                by the entry.  Address type can have
     2034       54                                the following values:
     2035       55                                  1 - Static data - address is an offset
     2036       56                                      within ISR.
     2037       57                                  2 - Automatic Data - address is an offset
     2038       58                                      within the current
     2039       59                                      AUTO frame located by PR2.
     2040       60                                  3 - Based data - address is an offset
     2041       61                                      from user pointer
     2042       62                                      (possibly defined by implied pointer).
     2043       63                                  4 - DCB - address is an offset from the
     2044       64                                      beginning of the DCB
     2045       65                                      (which is located by implied pointer).
     2046       66                                  5 - Parameter - address is an offset
     2047       67                                      from the data located
     2048       68                                      by the Implied Pointer into
     2049       69                                      Automatic Storage.
     2050       70                                  6 - Constant - address is an 18 bit constant.
     2051       71                                  7 - Parameter in static - address is an
     2052       72                                      offset from the data located by
     2053       73                                      the Implied Pointer into Static
     2054       74                                      Storage.  In this case relocation
PL6.E3A0      #011=XUO$VREBL File=XUO$BUILD.:E05TSI                              WED 07/30/97 09:28 Page:261
     2055       75                                      information applies to implied pointer.
     2056       76                                  8 - AREADEF - address is the offset into
     2057       77                                      the segment for this item.
     2058       78                                  9 - Virtual array - address is the IS
     2059       79                                      IS offset in static of the descriptor
     2060       80                                      block for this virtual array.
     2061       81                                 10 - 15 - Reserved for future use.
     2062       82            Data Type           UBIN ALIGNED
     2063       83                                Indicates the type of data described
     2064       84                                by this entry.  The defined data type
     2065       85                                codes are as follows:
     2066       86                      0              Type not specified.
     2067       87                      1              Real binary fixed single precision
     2068       88                                     (SBIN, INTEGER, COMP-6).
     2069       89                      2              Real binary fixed double precision.
     2070       90                      3              Real binary float single precision
     2071       91                                     (REAL).
     2072       92                      4              Real binary float double precision
     2073       93                                     (DOUBLE PRECISION).
     2074       94                      5              Complex binary fixed single precision.
     2075       95                      6              Complex binary fixed double precision.
     2076       96                      7              Complex binary float single precision
     2077       97                                     (COMPLEX).
     2078       98                      8              Complex binary float double precision
     2079       99                                     (DOUBLE COMPLEX).
     2080      100                      9              Packed decimal fixed, lead ASCII sign
     2081      101                                     (COMP-4).
     2082      102                     10              Packed decimal float.
     2083      103                     11              Packed decimal fixed complex,
     2084      104                                     lead ASCII sign.
     2085      105                     12              Packed decimal float complex.
     2086      106                     13              Pointer
     2087      107                     14              Offset
     2088      108                     15              Label
     2089      109                     16              Entry
     2090      110                     17              Structure
     2091      111                     18              Area
PL6.E3A0      #011=XUO$VREBL File=XUO$BUILD.:E05TSI                              WED 07/30/97 09:28 Page:262
     2092      112                     19              Bit string
     2093      113                     20              Varying bit string
     2094      114                     21              Character string
     2095      115                     22              Varying character string
     2096      116                     23              File
     2097      117                     24              UBIN
     2098      118                     25              Packed decimal fixed, trail ASCII sign
     2099      119                                     (COMP, COMP-4).
     2100      120                     26              Adjustable character string
     2101      121                     27              Adjustable bit string
     2102      122                     28              EPTR
     2103      123                     29              16 bit signed integer (COMP-1).
     2104      124                     30              32 bit signed integer (COMP-2).
     2105      125                     31              Packed decimal fixed, trail EBCDIC sign
     2106      126                                     (COMP-3).
     2107      127                     32              INDEX-1
     2108      128                     33              INDEX-2
     2109      129                     34              FORTRAN Every
     2110      130                     35              FORTRAN Logical
     2111      131                     36              FORTRAN Any (Never Passed)
     2112      132                     37              FORTRAN Label
     2113      133                     38              FORTRAN UCB
     2114      134                     39              Intrinsic Constant
     2115      135                     40              Packed decimal fixed, no sign (COMP,
     2116      136                                     COMP-3, COMP-4).
     2117      137                     41              Unpacked decimal fixed, no sign
     2118      138                     42              Unpacked decimal fixed lead sign
     2119      139                     43              Unpacked decimal fixed trail sign
     2120      140                     44              Unpacked decimal fixed lead over
     2121      141                                     punched sign
     2122      142                     45              Unpacked decimal fixed trail over
     2123      143                                     punched sign
     2124      144                     46              Adjustable structure
     2125      145                     47              Vector
     2126      146                     48              Remember
     2127      147                     49              Descriptor
     2128      148                     50              Unpacked decimal float
PL6.E3A0      #011=XUO$VREBL File=XUO$BUILD.:E05TSI                              WED 07/30/97 09:28 Page:263
     2129      149                     51              Packed decimal fixed,
     2130      150                                     Lead EBCDIC sign
     2131      151                     52              Enumerated Type
     2132      152                     53              Set
     2133      153                     54 - 59         Reserved
     2134      154                     60              Null entry
     2135      155                     61              Virtual array dimension entry
     2136      156                     62              Array dimension entry
     2137      157                     63              Reserved
     2138      158            Reference Flag      BIT(1) UNALIGNED
     2139      159                                Indicates whether the variable is
     2140      160                                referenced or is not referenced by
     2141      161                                this module.
     2142      162            Modified Flag       BIT(1) UNALIGNED
     2143      163                                Indicates whether the variable is
     2144      164                                explicitly modified or not modified
     2145      165                                by this module.
     2146      166            Logical Size        UBIN ALIGNED
     2147      167                                Contains the size of the data item or
     2148      168                                a locator of the variable containing the
     2149      169                                size.  If the Size Type Flag = '0'B, this
     2150      170                                field contains the number of basic
     2151      171                                elements of this data type contained in
     2152      172                                the variable, e.g., the field contains
     2153      173                                five for a CHAR(5) variable.  If the Size
     2154      174                                Type Flag = '1'B this field contains the
     2155      175                                entry number of the variable which
     2156      176                                contains the size.
     2157      177            Level Number        UBIN ALIGNED
     2158      178                                Contains the level number of the data
     2159      179                                item (for structures).
     2160      180            Alignment Type      UBIN ALIGNED
     2161      181                                Defines the explicit alignment of the
     2162      182                                data item.  The possible alignment type
     2163      183                                values are:
     2164      184                                   0 = Double Word Aligned
     2165      185                                   1 = Word Aligned
PL6.E3A0      #011=XUO$VREBL File=XUO$BUILD.:E05TSI                              WED 07/30/97 09:28 Page:264
     2166      186                                   2 = Half Word Aligned
     2167      187                                   3 = Byte Aligned
     2168      188                                   4 = Bit Aligned
     2169      189                                   5 = Digit Aligned
     2170      190            Size Type Flag      BIT(1) UNALIGNED
     2171      191                                If Size Type Flag = '0'B then Logical
     2172      192                                Size contains the number of basic elements
     2173      193                                of this data type contained in the variable,
     2174      194                                e.g., the field contains five for a CHAR(5)
     2175      195                                variable.  If Size Type Flag = '1'B
     2176      196                                then Logical Size contains the entry
     2177      197                                number of the variable which contains
     2178      198                                the size.
     2179      199            Array Type          UBIN ALIGNED
     2180      200                                Determines the array characteristics
     2181      201                                of this variable and thus determines
     2182      202                                whether continuation entry(ies) exist
     2183      203                                for this item.  The defined array
     2184      204                                types are:
     2185      205                                  0 - The item is not dimensioned.
     2186      206                                  1 - The item is a single dimensional
     2187      207                                      array with offset=0.  Dimensions
     2188      208                                      contains the number of elements.
     2189      209                                      No continuation entry exists.
     2190      210                                  2 - Same as type 1 except the offset
     2191      211                                      (to be subtracted) is 1.
     2192      212                                  3 - All other arrays except virtual
     2193      213                                      arrays.  Dimensions, Elements,
     2194      214                                      Element Size, and Offset must be
     2195      215                                      defined.  As many continuation
     2196      216                                      entries as required will be present
     2197      217                                      to accommodate the number of dimensions
     2198      218                                      of the array with indeterminate number
     2199      219                                      of elements, the Elements field will
     2200      220                                      contain 0.
     2201      221                                  4 - Virtual Array.  Dimensions, Elements,
     2202      222                                      Element Size, and Offset must be
PL6.E3A0      #011=XUO$VREBL File=XUO$BUILD.:E05TSI                              WED 07/30/97 09:28 Page:265
     2203      223                                      defined.  As many continuation entries
     2204      224                                      as required will be present to
     2205      225                                      accommodate the number of dimensions
     2206      226                                      of the array.
     2207      227                                  5 - Adjustable dimensioned array.
     2208      228
     2209      229            Operand Type        UBIN ALIGNED
     2210      230                                The type of operand defined as follows:
     2211      231                                     1 = section
     2212      232                                     2 = ENTREF
     2213      233                                     3 = SYMREF
     2214      234                                     4 = CONSTANT
     2215      235                                     5 = SEGDEF
     2216      236                                     6 = SEGREF
     2217      237            Implied Pointer     SBIN ALILGNED
     2218      238                                This is unused for Address Types 1, 2,
     2219      239                                and 6.
     2220      240                                If Address Type is 3 (Based) and bit 0
     2221      241                                = 1, this based variable has no implied
     2222      242                                pointer.  If Address Type is 3 (Based)
     2223      243                                and bit 0 = 0, then the remaining bits
     2224      244                                contain the entry number of the variable
     2225      245                                table entry for the implied pointer
     2226      246                                to this variable.
     2227      247                                If Address Type is 4 (DCB) then this field
     2228      248                                contains the SYMREF number of the DCB.
     2229      249                                If Address Type is 5 this field contains
     2230      250                                the offset in the current automatic frame
     2231      251                                of the pointer to this parameter.
     2232      252                                If Address Type is 7, this field contains
     2233      253                                the address in the Instruction Segment
     2234      254                                of the pointer to this parameter.
     2235      255            Operand             UBIN ALIGNED
     2236      256                                If Operand Type is 4, the Operand is
     2237      257                                an unsigned constant.
     2238      258                                If Operand Type is not 4 (or 0) the
     2239      259                                Operand is an entry number in the table
PL6.E3A0      #011=XUO$VREBL File=XUO$BUILD.:E05TSI                              WED 07/30/97 09:28 Page:266
     2240      260                                specified by type.
     2241      261            Element Size        UBIN ALIGNED
     2242      262                                This defines the physical size (in bits)
     2243      263                                of the item or of an element of the item,
     2244      264                                if an array.  This includes all slack bits.
     2245      265                                This is the multiplier needed to determine
     2246      266                                the bit offset in an array given the
     2247      267                                element offset.
     2248      268            Scale Factor        SBIN ALIGNED
     2249      269                                The number of units by which this data
     2250      270                                is assumed to be scaled.  The units depend
     2251      271                                on the data type.  If this is a binary
     2252      272                                data type, the units are binary digits.
     2253      273                                If this is a decimal data type, the units
     2254      274                                are decimal digits.  The field is meaningless
     2255      275                                for other data types.
     2256      276            Dimensions          UBIN ALIGNED
     2257      277                                Contains the number of dimensions for an
     2258      278                                array if Array Type is either 3 or 4.  If
     2259      279                                Array Type is 1 or 2, this contains the
     2260      280                                number of elements in the array.
     2261      281            Name Pointer        UBIN ALIGNED
     2262      282                                Contains the word offset into the
     2263      283                                Procedure Names Debug Record (type 15)
     2264      284                                locating the name of this variable.
     2265      285            Status Exists       BIT (1) UNALIGNED
     2266      286                                Status Exists = '1'B indicates this variable
     2267      287                                has a Status Variable associated with it.
     2268      288
     2269      289        OUTPUT:
     2270      290            Entry Number        UBIN ALIGNED  optional
     2271      291                                The entry number of the Variable
     2272      292                                Debug entry just created.  This value
     2273      293                                must be used to determine the entry
     2274      294                                number of variables that have dimension
     2275      295                                greater than 1 and an array type other
     2276      296                                than 1 or 2.  In other cases the entry
PL6.E3A0      #011=XUO$VREBL File=XUO$BUILD.:E05TSI                              WED 07/30/97 09:28 Page:267
     2277      297                                number of the next Variable Debug Record
     2278      298                                to be allocated can be determined by
     2279      299                                calling XUO$VREBLNUM.
     2280      300
     2281      301        B$OBJECT REFERENCE:  B$VREBL
     2282      302        */
     2283      303        /*B*
     2284      304
     2285      305        GLOBAL DATA:
     2286      306            B_VREBL_CUR$
     2287      307            B_VREBL_COUNT
     2288      308            B_VREBL_PAGE
     2289      309
     2290      310        INTERFACE:
     2291      311            XUO$OUWRITE
     2292      312
     2293      313        */
     2294      314
     2295      315        XUO$VREBL: PROC (P_PARAM1,P_ADDRESS_TYPE,P_DATA_TYPE,P_REFERENCED_FLAG,
               315            P_MODIFIED_FLAG,
     2296      316               P_LOGICAL_SIZE,P_LEVEL_NUMBER,P_ALIGNMENT_TYPE,P_SIZE_TYPE_FLAG,P_ARRAY_TYPE,
     2297      317               P_OPERAND_TYPE,P_IMPLIED_POINTER,P_OPERAND,P_ELEMENT_SIZE,
     2298      318               P_SCALE_FACTOR,P_DIMENSIONS,P_NAME_POINTER,
     2299      319               P_ENTRY_NUMBER,P_STATUS_EXISTS);
     2300      320         /*
     2301      321            */
     2302      322        %INCLUDE ZVA_SYSTEM_FILE;
     2303     6573            %PAGE (ARG=INCLUDES);

              6586    1   /*******************************************************************************
              6587    1   *                                                                              *
              6588    1   *        INCLUDES              INCLUDES                                            *
              6589    1   *                                                                              *
              6590    1   *******************************************************************************/

     2304     6594        %INCLUDE B$OBJECT_C;
     2305    10024        %INCLUDE XUO$OBJ_C;
PL6.E3A0      #011=XUO$VREBL File=XUO$BUILD.:E05TSI                              WED 07/30/97 09:28 Page:268
     2306    10434            %PAGE (ARG=SUBS);

             10447    1   /*******************************************************************************
             10448    1   *                                                                              *
             10449    1   *        SUBS              SUBS                                                  *
             10450    1   *                                                                              *
             10451    1   *******************************************************************************/

     2307    10455            %B$RECORDSUBS;
     2308    10483            %VREBLSUBS;
     2309    10491            %VREBL_DATATYPES;
     2310    10566        %PLIST;
     2311    10567            %PAGE (ARG=PARAMETERS);

             10580    1   /*******************************************************************************
             10581    1   *                                                                              *
             10582    1   *        PARAMETERS              PARAMETERS                                        *
             10583    1   *                                                                              *
             10584    1   *******************************************************************************/

     2312    10588    1   DCL P_PARAM1 UBIN;
     2313    10589         /*
     2314    10590         The following definition is for XUO$VREBL.
     2315    10591         */
     2316    10592    1   DCL P_ADDRESS REDEF P_PARAM1 SBIN;
     2317    10593         /*
     2318    10594         The following definition is for XUO$VREBLNUM.
     2319    10595         */
     2320    10596    1   DCL P_VREBL_NUMBER REDEF P_PARAM1 UBIN;
     2321    10597    1   DCL P_ADDRESS_TYPE UBIN;
     2322    10598    1   DCL P_DATA_TYPE UBIN;
     2323    10599    1   DCL P_REFERENCED_FLAG BIT(1) UNAL PARAM;
     2324    10600    1   DCL P_MODIFIED_FLAG BIT(1) UNAL;
     2325    10601    1   DCL P_LOGICAL_SIZE UBIN;
     2326    10602    1   DCL P_LEVEL_NUMBER UBIN;
     2327    10603    1   DCL P_ALIGNMENT_TYPE UBIN;
     2328    10604    1   DCL P_SIZE_TYPE_FLAG BIT(1) UNAL PARAM;
PL6.E3A0      #011=XUO$VREBL File=XUO$BUILD.:E05TSI                              WED 07/30/97 09:28 Page:269
     2329    10605    1   DCL P_ARRAY_TYPE UBIN;
     2330    10606    1   DCL P_OPERAND_TYPE UBIN;
     2331    10607    1   DCL P_IMPLIED_POINTER SBIN;
     2332    10608    1   DCL P_OPERAND UBIN;
     2333    10609    1   DCL P_ELEMENT_SIZE UBIN;
     2334    10610    1   DCL P_SCALE_FACTOR UBIN;
     2335    10611    1   DCL P_DIMENSIONS SBIN PARAM;
     2336    10612    1   DCL P_NAME_POINTER SBIN;
     2337    10613    1   DCL P_ENTRY_NUMBER UBIN;
     2338    10614    1   DCL P_STATUS_EXISTS BIT(1) UNAL PARAM;
     2339    10615        %PAGE (ARG=VREBL DATA);

             10628    1   /*******************************************************************************
             10629    1   *                                                                              *
             10630    1   *        VREBL DATA              VREBL DATA                                        *
             10631    1   *                                                                              *
             10632    1   *******************************************************************************/

     2340    10636        %B$VREBL (STCLASS="BASED(VREBL_CUR$)");
     2341    10800        %B_VREBL_POINTERS;
     2342    10820    1   DCL VREBL_CUR$ PTR;
     2343    10821        %PLIST;
     2344    10822        %PAGE (ARG=MISC DATA);

             10835    1   /*******************************************************************************
             10836    1   *                                                                              *
             10837    1   *        MISC DATA              MISC DATA                                          *
             10838    1   *                                                                              *
             10839    1   *******************************************************************************/

     2345    10843    1   DCL XUO_WORDSIZE SYMREF SBIN;
     2346    10844    1   DCL XUO_CHARSIZE SYMREF SBIN;
     2347    10845    1   DCL TEMP SBIN;
     2348    10846        %PAGE (ARG=ENTRY DCLS);

             10859    1   /*******************************************************************************
             10860    1   *                                                                              *
PL6.E3A0      #011=XUO$VREBL File=XUO$BUILD.:E05TSI                              WED 07/30/97 09:28 Page:270
             10861    1   *        ENTRY DCLS              ENTRY DCLS                                        *
             10862    1   *                                                                              *
             10863    1   *******************************************************************************/

     2349    10867    1   DCL XUO$OUWRITE ENTRY(2);
     2350    10868        %PAGE (ARG=XUO$VREBL);

             10881    1   /*******************************************************************************
             10882    1   *                                                                              *
             10883    1   *        XUO$VREBL              XUO$VREBL                                          *
             10884    1   *                                                                              *
             10885    1   *******************************************************************************/

     2351    10889         /*
     2352    10890         Always allow for only 3 entries per continuation record
     2353    10891         */
     2354    10892    1       IF P_ARRAY_TYPE=%REAL_ARRAY OR P_ARRAY_TYPE=%VIRTUAL_ARRAY OR
     2355    10893    1          P_ARRAY_TYPE=5 /*Adjustable*/ THEN
     2356    10894    1           TEMP=(P_DIMENSIONS+2)/3;
     2357    10895    1       ELSE
     2358    10896    1           TEMP=0;
     2359    10897         /* If this variable has a status variable associated with
     2360    10898            it, ensure room for the vrebl entry and continuation
     2361    10899            entry.
     2362    10900         */
     2363    10901    1       IF ADDR(P_STATUS_EXISTS) ~= ADDR(NIL) THEN
     2364    10902    2       DO;
     2365    10903    2           IF P_STATUS_EXISTS
     2366    10904    2           THEN TEMP = TEMP + 2;
     2367    10905    2           END;
     2368    10906         /* If this variable has a data type set or data type
     2369    10907            enumerated type, ensure room for the continuation
     2370    10908            entry.
     2371    10909         */
     2372    10910    1       IF (P_DATA_TYPE = %SET_DATATYPE) OR
     2373    10911    1          (P_DATA_TYPE = %ENUMTYPE_DATATYPE) THEN
     2374    10912    2       DO;
PL6.E3A0      #011=XUO$VREBL File=XUO$BUILD.:E05TSI                              WED 07/30/97 09:28 Page:271
     2375    10913    2           TEMP = TEMP + 1;
     2376    10914    2           END;
     2377    10915         /*
     2378    10916         The following section will check to see if the passed information will
     2379    10917         fit in the current record. If not, the current record will be
     2380    10918         written and pointer re-initialized.  Then the text will be moved to
     2381    10919         the buffer.
     2382    10920         */
     2383    10921    1       IF PINCRW(B_VREBL_CUR$,SIZEW(B$VREBL)*TEMP)>=B_VREBL_END$ THEN
     2384    10922    2       DO;
     2385    10923         /*
     2386    10924            Generate null entires to
     2387    10925            fill up to the end of
     2388    10926            the page
     2389    10927            */
     2390    10928    3           DO WHILE(B_VREBL_CUR$<B_VREBL_END$);
     2391    10929    3               B_VREBL_CUR$ -> B$VREBL.DATATYP=%NULL_DATATYPE;
     2392    10930    3               B_VREBL_COUNT=B_VREBL_COUNT+1;
     2393    10931    3               B_VREBL_CUR$=PINCRW(B_VREBL_CUR$,SIZEW(B$VREBL));
     2394    10932    3               END;
     2395    10933    2           CALL XUO$OUWRITE(%TYPVREBL);
     2396    10934    2           B_VREBL_PAGE=B_VREBL_PAGE+1;
     2397    10935    2           B_VREBL_CUR$=B_VREBL_BASE$;
     2398    10936    2           END;
     2399    10937         /*
     2400    10938         The following will build the vrebl data table.
     2401    10939         */
     2402    10940    1       VREBL_CUR$=B_VREBL_CUR$;
     2403    10941    1       B$VREBL.ADR.W=P_ADDRESS/XUO_WORDSIZE;
     2404    10942    1       TEMP=MOD(P_ADDRESS,XUO_WORDSIZE);
     2405    10943    1       B$VREBL.ADR.C=TEMP/XUO_CHARSIZE;
     2406    10944    1       B$VREBL.ADR.B=MOD(TEMP,XUO_CHARSIZE);
     2407    10945    1       B$VREBL.ADDRTYP=P_ADDRESS_TYPE;
     2408    10946    1       B$VREBL.DATATYP=P_DATA_TYPE;
     2409    10947    1       B$VREBL.REF=P_REFERENCED_FLAG;
     2410    10948    1       B$VREBL.MODF=P_MODIFIED_FLAG;
     2411    10949    1       B$VREBL.LOGSIZ=P_LOGICAL_SIZE;
PL6.E3A0      #011=XUO$VREBL File=XUO$BUILD.:E05TSI                              WED 07/30/97 09:28 Page:272
     2412    10950    1       B$VREBL.LEVEL=P_LEVEL_NUMBER;
     2413    10951    1       B$VREBL.ALIGNTYP=P_ALIGNMENT_TYPE;
     2414    10952    1       B$VREBL.SZTYP=P_SIZE_TYPE_FLAG;
     2415    10953    1       B$VREBL.ARRAYTYP=P_ARRAY_TYPE;
     2416    10954    1       B$VREBL.OPNDTYP=P_OPERAND_TYPE;
     2417    10955    1       B$VREBL.IMPTR=P_IMPLIED_POINTER;
     2418    10956    1       B$VREBL.OPERAND=P_OPERAND;
     2419    10957    1       B$VREBL.ELMNTSIZ=P_ELEMENT_SIZE;
     2420    10958    1       B$VREBL.SCALE=P_SCALE_FACTOR;
     2421    10959    1       B$VREBL.DIMS=P_DIMENSIONS;
     2422    10960    1       B$VREBL.NPOINTER=P_NAME_POINTER;
     2423    10961    1       B_VREBL_COUNT=B_VREBL_COUNT+1;
     2424    10962    1       IF ADDR(P_ENTRY_NUMBER)~=ADDR(NIL) THEN
     2425    10963    1           P_ENTRY_NUMBER=B_VREBL_COUNT;
     2426    10964    1       IF ADDR(P_STATUS_EXISTS) ~= ADDR(NIL)
     2427    10965    2       THEN DO;
     2428    10966    2           B$VREBL.STATUS_EXISTS = P_STATUS_EXISTS;
     2429    10967    2           END;
     2430    10968    1       B_VREBL_CUR$=PINCRW(B_VREBL_CUR$,SIZEW(B$VREBL));
     2431    10969    1       RETURN;
     2432    10970            %PAGE (ARG=XUO$VREBLNUM);

             10983    1   /*******************************************************************************
             10984    1   *                                                                              *
             10985    1   *        XUO$VREBLNUM              XUO$VREBLNUM                                    *
             10986    1   *                                                                              *
             10987    1   *******************************************************************************/

     2433    10991        /*D*
     2434    10992
     2435    10993        XUO$VREBLNUM --Variable Debug Records (Record Type 14)
     2436    10994
     2437    10995        NAME:  XUO$VREBLNUM
     2438    10996
     2439    10997        PURPOSE:  To return the number of the next entry in the
     2440    10998                  Variable Debug Record
     2441    10999
PL6.E3A0      #011=XUO$VREBL File=XUO$BUILD.:E05TSI                              WED 07/30/97 09:28 Page:273
     2442    11000        DESCRIPTION:  This routine returns the number of the next
     2443    11001            Variable Debug Record entry.  The returned value is used
     2444    11002            in the calls to XUO$LOGBLKVREBLINIT and
     2445    11003            XUO$LOGBLKVREBLTERM where starting and ending Variable
     2446    11004            Debug Record entry numbers are required.  This routine
     2447    11005            is used only in the case of getting the next number
     2448    11006            for the logical block calls.  In all other cases, the
     2449    11007            entry number should be obtained by use of the parameter
     2450    11008            Entry Number returned by the call to XUO$VREBL.
     2451    11009
     2452    11010        CALL:  CALL XUO$VREBLNUM (Variable Debug Record entry number)
     2453    11011
     2454    11012        INPUT:  none
     2455    11013
     2456    11014        OUTPUT:
     2457    11015
     2458    11016            Variable Debug Record entry number  UBIN ALIGNED
     2459    11017                                The number of the next entry in
     2460    11018                                the Variable Debug Record.
     2461    11019
     2462    11020        B$OBJECT REFERENCE:  B$VREBL
     2463    11021        */
     2464    11022        /*B*
     2465    11023
     2466    11024        GLOBAL DATA:
     2467    11025            B_VREBL_COUNT
     2468    11026
     2469    11027        INTERFACE:
     2470    11028            XUO$OUWRITE
     2471    11029
     2472    11030        */
     2473    11031
     2474    11032    1   XUO$VREBLNUM: ENTRY(P_PARAM1);
     2475    11033         /*
     2476    11034            */
     2477    11035    1       P_VREBL_NUMBER=B_VREBL_COUNT+1;
     2478    11036    1       RETURN;
PL6.E3A0      #011=XUO$VREBL File=XUO$BUILD.:E05TSI                              WED 07/30/97 09:28 Page:274
     2479    11037    1   END XUO$VREBL;
     2480    11038        %EOD;

PL6.E3A0      #011=XUO$VREBL File=XUO$BUILD.:E05TSI                              WED 07/30/97 09:28 Page:275
--  Include file information  --

   XUO$OBJ_C.:E05TOU  is referenced.
   B$OBJECT_C.:E05TOU  is referenced.
   CP_6_SUBS.:E05TOU  is referenced.
   CP_6_C.:E05TOU  is referenced.
   CP_6.:E05TOU  cannot be made into a system file and is referenced.
   ZVA_FLAGS.:TOOLE04  is referenced.
   ZVA_SYSTEM_FILE.:TOOLE04  is referenced.
      No diagnostics issued in procedure XUO$VREBL.

   Procedure XUO$VREBL requires 178 words for executable code.
   Procedure XUO$VREBL requires 24 words of local(AUTO) storage.

PL6.E3A0      #011=XUO$VREBL File=XUO$BUILD.:E05TSI                              WED 07/30/97 09:28 Page:276

 Object Unit name= XUO$VREBL                                  File name= XUO$BUILD.:E05TOU
 UTS= JUL 30 '97 09:28:45.08 WED                              Compiler= PL-6/E31         Sev=      00
 SharedLib= :SHARED_SYSTEM                                    Alt SharedLib=


    ****  Control sections  ****

 Sect   Type Bound  Init  Size OctSiz  Section name(segment info)
    0   DCB   even  none     0      0  M$UC
    1   Proc  even  none   178    262  XUO$VREBL
    2  RoData even  none     3      3  XUO$VREBL

    ****  Entry defs  ****

                              Check   Calling
                             calling  sequence
  Sect OctLoc Primary Altret sequence   type   Parms  Name
     1      0   yes            yes      Std       19  XUO$VREBL
     1    253                  yes      Std        1  XUO$VREBLNUM

  ****  Entry refs  ****

         Check        Calling
        calling       sequence
Altret sequence SRef   type   Args  Name
         yes           Std       2 XUO$OUWRITE
                       nStd      0 X66_AUTO_N
                       Std       0 B_CONSPOOL_D
                       nStd      0 X66_ARET
PL6.E3A0      #011=XUO$VREBL File=XUO$BUILD.:E05TSI                              WED 07/30/97 09:28 Page:277

  ****  Data refs  ****

  Flags:  r = read only, s = secondary
Flgs Name                             Flgs Name                             Flgs Name
     M$UC                                  B_VREBL_BASE$                         B_VREBL_CUR$
     B_VREBL_END$                          B_VREBL_COUNT                         B_VREBL_PAGE
     XUO_WORDSIZE                          XUO_CHARSIZE                          B_VECTNIL

  ****  Segment refs  ****

  Flags:  r = read only, s = secondary
Flgs Name                             Flgs Name                             Flgs Name
     ISSID
PL6.E3A0      #011=XUO$VREBL File=XUO$BUILD.:E05TSI                              WED 07/30/97 09:28 Page:278


     1981        1        /*M*     XUO$VREBL -- THIS MODULE WILL BUILD OBJECT UNIT VREBL RECORDS*/
     1982        2        /*T***********************************************************/
     1983        3        /*T*                                                         */
     1984        4        /*T* Copyright (c) Bull HN Information Systems Inc., 1997    */
     1985        5        /*T*                                                         */
     1986        6        /*T***********************************************************/
     1987        7        /*P*
     1988        8
     1989        9
     1990       10        NAME:  XUO$VREBL
     1991       11        XUO$VREBL --Variable Debug Record (Record Type 14)
     1992       12
     1993       13        PURPOSE:  To build entries in the Variable Debug Record
     1994       14            (Record Type 14).
     1995       15
     1996       16        DESCRIPTION:  This routine builds an entry into the Variable
     1997       17            Debug Record (type 14).  The record contains descriptions
     1998       18            for every variable in the module.  Note that the logical
     1999       19            block table scopes the variable set for each logical
     2000       20            block.  A complete variable description may require more
     2001       21            than one entry.
     2002       22
     2003       23        */
     2004       24        /*D*
     2005       25
     2006       26        CALL:  CALL XUO$VREBL (Address,
     2007       27                        Address Type,
     2008       28                        Data Type,
     2009       29                        Reference Flag,
     2010       30                        Modified Flag,
     2011       31                        Logical Size,
     2012       32                        Level Number,
     2013       33                        Alignment Type,
     2014       34                        Size Type Flag,
     2015       35                        Array Type,
     2016       36                        Operand Type,
PL6.E3A0      #011=XUO$VREBL File=XUO$BUILD.:E05TSI                              WED 07/30/97 09:28 Page:279
     2017       37                        Implied Pointer,
     2018       38                        Operand,
     2019       39                        Element Size,
     2020       40                        Scale Factor,
     2021       41                        Dimensions,
     2022       42                        Name Pointer,
     2023       43                        Entry Number,
     2024       44                       *Status Exists)
     2025       45
     2026       46        INPUT:
     2027       47            Address             UBIN ALIGNED
     2028       48                                Address of the variable.
     2029       49            Address Type        UBIN ALIGNED
     2030       50                                The address type determines how to
     2031       51                                use the address and possible other
     2032       52                                information to locate the data described
     2033       53                                by the entry.  Address type can have
     2034       54                                the following values:
     2035       55                                  1 - Static data - address is an offset
     2036       56                                      within ISR.
     2037       57                                  2 - Automatic Data - address is an offset
     2038       58                                      within the current
     2039       59                                      AUTO frame located by PR2.
     2040       60                                  3 - Based data - address is an offset
     2041       61                                      from user pointer
     2042       62                                      (possibly defined by implied pointer).
     2043       63                                  4 - DCB - address is an offset from the
     2044       64                                      beginning of the DCB
     2045       65                                      (which is located by implied pointer).
     2046       66                                  5 - Parameter - address is an offset
     2047       67                                      from the data located
     2048       68                                      by the Implied Pointer into
     2049       69                                      Automatic Storage.
     2050       70                                  6 - Constant - address is an 18 bit constant.
     2051       71                                  7 - Parameter in static - address is an
     2052       72                                      offset from the data located by
     2053       73                                      the Implied Pointer into Static
PL6.E3A0      #011=XUO$VREBL File=XUO$BUILD.:E05TSI                              WED 07/30/97 09:28 Page:280
     2054       74                                      Storage.  In this case relocation
     2055       75                                      information applies to implied pointer.
     2056       76                                  8 - AREADEF - address is the offset into
     2057       77                                      the segment for this item.
     2058       78                                  9 - Virtual array - address is the IS
     2059       79                                      IS offset in static of the descriptor
     2060       80                                      block for this virtual array.
     2061       81                                 10 - 15 - Reserved for future use.
     2062       82            Data Type           UBIN ALIGNED
     2063       83                                Indicates the type of data described
     2064       84                                by this entry.  The defined data type
     2065       85                                codes are as follows:
     2066       86                      0              Type not specified.
     2067       87                      1              Real binary fixed single precision
     2068       88                                     (SBIN, INTEGER, COMP-6).
     2069       89                      2              Real binary fixed double precision.
     2070       90                      3              Real binary float single precision
     2071       91                                     (REAL).
     2072       92                      4              Real binary float double precision
     2073       93                                     (DOUBLE PRECISION).
     2074       94                      5              Complex binary fixed single precision.
     2075       95                      6              Complex binary fixed double precision.
     2076       96                      7              Complex binary float single precision
     2077       97                                     (COMPLEX).
     2078       98                      8              Complex binary float double precision
     2079       99                                     (DOUBLE COMPLEX).
     2080      100                      9              Packed decimal fixed, lead ASCII sign
     2081      101                                     (COMP-4).
     2082      102                     10              Packed decimal float.
     2083      103                     11              Packed decimal fixed complex,
     2084      104                                     lead ASCII sign.
     2085      105                     12              Packed decimal float complex.
     2086      106                     13              Pointer
     2087      107                     14              Offset
     2088      108                     15              Label
     2089      109                     16              Entry
     2090      110                     17              Structure
PL6.E3A0      #011=XUO$VREBL File=XUO$BUILD.:E05TSI                              WED 07/30/97 09:28 Page:281
     2091      111                     18              Area
     2092      112                     19              Bit string
     2093      113                     20              Varying bit string
     2094      114                     21              Character string
     2095      115                     22              Varying character string
     2096      116                     23              File
     2097      117                     24              UBIN
     2098      118                     25              Packed decimal fixed, trail ASCII sign
     2099      119                                     (COMP, COMP-4).
     2100      120                     26              Adjustable character string
     2101      121                     27              Adjustable bit string
     2102      122                     28              EPTR
     2103      123                     29              16 bit signed integer (COMP-1).
     2104      124                     30              32 bit signed integer (COMP-2).
     2105      125                     31              Packed decimal fixed, trail EBCDIC sign
     2106      126                                     (COMP-3).
     2107      127                     32              INDEX-1
     2108      128                     33              INDEX-2
     2109      129                     34              FORTRAN Every
     2110      130                     35              FORTRAN Logical
     2111      131                     36              FORTRAN Any (Never Passed)
     2112      132                     37              FORTRAN Label
     2113      133                     38              FORTRAN UCB
     2114      134                     39              Intrinsic Constant
     2115      135                     40              Packed decimal fixed, no sign (COMP,
     2116      136                                     COMP-3, COMP-4).
     2117      137                     41              Unpacked decimal fixed, no sign
     2118      138                     42              Unpacked decimal fixed lead sign
     2119      139                     43              Unpacked decimal fixed trail sign
     2120      140                     44              Unpacked decimal fixed lead over
     2121      141                                     punched sign
     2122      142                     45              Unpacked decimal fixed trail over
     2123      143                                     punched sign
     2124      144                     46              Adjustable structure
     2125      145                     47              Vector
     2126      146                     48              Remember
     2127      147                     49              Descriptor
PL6.E3A0      #011=XUO$VREBL File=XUO$BUILD.:E05TSI                              WED 07/30/97 09:28 Page:282
     2128      148                     50              Unpacked decimal float
     2129      149                     51              Packed decimal fixed,
     2130      150                                     Lead EBCDIC sign
     2131      151                     52              Enumerated Type
     2132      152                     53              Set
     2133      153                     54 - 59         Reserved
     2134      154                     60              Null entry
     2135      155                     61              Virtual array dimension entry
     2136      156                     62              Array dimension entry
     2137      157                     63              Reserved
     2138      158            Reference Flag      BIT(1) UNALIGNED
     2139      159                                Indicates whether the variable is
     2140      160                                referenced or is not referenced by
     2141      161                                this module.
     2142      162            Modified Flag       BIT(1) UNALIGNED
     2143      163                                Indicates whether the variable is
     2144      164                                explicitly modified or not modified
     2145      165                                by this module.
     2146      166            Logical Size        UBIN ALIGNED
     2147      167                                Contains the size of the data item or
     2148      168                                a locator of the variable containing the
     2149      169                                size.  If the Size Type Flag = '0'B, this
     2150      170                                field contains the number of basic
     2151      171                                elements of this data type contained in
     2152      172                                the variable, e.g., the field contains
     2153      173                                five for a CHAR(5) variable.  If the Size
     2154      174                                Type Flag = '1'B this field contains the
     2155      175                                entry number of the variable which
     2156      176                                contains the size.
     2157      177            Level Number        UBIN ALIGNED
     2158      178                                Contains the level number of the data
     2159      179                                item (for structures).
     2160      180            Alignment Type      UBIN ALIGNED
     2161      181                                Defines the explicit alignment of the
     2162      182                                data item.  The possible alignment type
     2163      183                                values are:
     2164      184                                   0 = Double Word Aligned
PL6.E3A0      #011=XUO$VREBL File=XUO$BUILD.:E05TSI                              WED 07/30/97 09:28 Page:283
     2165      185                                   1 = Word Aligned
     2166      186                                   2 = Half Word Aligned
     2167      187                                   3 = Byte Aligned
     2168      188                                   4 = Bit Aligned
     2169      189                                   5 = Digit Aligned
     2170      190            Size Type Flag      BIT(1) UNALIGNED
     2171      191                                If Size Type Flag = '0'B then Logical
     2172      192                                Size contains the number of basic elements
     2173      193                                of this data type contained in the variable,
     2174      194                                e.g., the field contains five for a CHAR(5)
     2175      195                                variable.  If Size Type Flag = '1'B
     2176      196                                then Logical Size contains the entry
     2177      197                                number of the variable which contains
     2178      198                                the size.
     2179      199            Array Type          UBIN ALIGNED
     2180      200                                Determines the array characteristics
     2181      201                                of this variable and thus determines
     2182      202                                whether continuation entry(ies) exist
     2183      203                                for this item.  The defined array
     2184      204                                types are:
     2185      205                                  0 - The item is not dimensioned.
     2186      206                                  1 - The item is a single dimensional
     2187      207                                      array with offset=0.  Dimensions
     2188      208                                      contains the number of elements.
     2189      209                                      No continuation entry exists.
     2190      210                                  2 - Same as type 1 except the offset
     2191      211                                      (to be subtracted) is 1.
     2192      212                                  3 - All other arrays except virtual
     2193      213                                      arrays.  Dimensions, Elements,
     2194      214                                      Element Size, and Offset must be
     2195      215                                      defined.  As many continuation
     2196      216                                      entries as required will be present
     2197      217                                      to accommodate the number of dimensions
     2198      218                                      of the array with indeterminate number
     2199      219                                      of elements, the Elements field will
     2200      220                                      contain 0.
     2201      221                                  4 - Virtual Array.  Dimensions, Elements,
PL6.E3A0      #011=XUO$VREBL File=XUO$BUILD.:E05TSI                              WED 07/30/97 09:28 Page:284
     2202      222                                      Element Size, and Offset must be
     2203      223                                      defined.  As many continuation entries
     2204      224                                      as required will be present to
     2205      225                                      accommodate the number of dimensions
     2206      226                                      of the array.
     2207      227                                  5 - Adjustable dimensioned array.
     2208      228
     2209      229            Operand Type        UBIN ALIGNED
     2210      230                                The type of operand defined as follows:
     2211      231                                     1 = section
     2212      232                                     2 = ENTREF
     2213      233                                     3 = SYMREF
     2214      234                                     4 = CONSTANT
     2215      235                                     5 = SEGDEF
     2216      236                                     6 = SEGREF
     2217      237            Implied Pointer     SBIN ALILGNED
     2218      238                                This is unused for Address Types 1, 2,
     2219      239                                and 6.
     2220      240                                If Address Type is 3 (Based) and bit 0
     2221      241                                = 1, this based variable has no implied
     2222      242                                pointer.  If Address Type is 3 (Based)
     2223      243                                and bit 0 = 0, then the remaining bits
     2224      244                                contain the entry number of the variable
     2225      245                                table entry for the implied pointer
     2226      246                                to this variable.
     2227      247                                If Address Type is 4 (DCB) then this field
     2228      248                                contains the SYMREF number of the DCB.
     2229      249                                If Address Type is 5 this field contains
     2230      250                                the offset in the current automatic frame
     2231      251                                of the pointer to this parameter.
     2232      252                                If Address Type is 7, this field contains
     2233      253                                the address in the Instruction Segment
     2234      254                                of the pointer to this parameter.
     2235      255            Operand             UBIN ALIGNED
     2236      256                                If Operand Type is 4, the Operand is
     2237      257                                an unsigned constant.
     2238      258                                If Operand Type is not 4 (or 0) the
PL6.E3A0      #011=XUO$VREBL File=XUO$BUILD.:E05TSI                              WED 07/30/97 09:28 Page:285
     2239      259                                Operand is an entry number in the table
     2240      260                                specified by type.
     2241      261            Element Size        UBIN ALIGNED
     2242      262                                This defines the physical size (in bits)
     2243      263                                of the item or of an element of the item,
     2244      264                                if an array.  This includes all slack bits.
     2245      265                                This is the multiplier needed to determine
     2246      266                                the bit offset in an array given the
     2247      267                                element offset.
     2248      268            Scale Factor        SBIN ALIGNED
     2249      269                                The number of units by which this data
     2250      270                                is assumed to be scaled.  The units depend
     2251      271                                on the data type.  If this is a binary
     2252      272                                data type, the units are binary digits.
     2253      273                                If this is a decimal data type, the units
     2254      274                                are decimal digits.  The field is meaningless
     2255      275                                for other data types.
     2256      276            Dimensions          UBIN ALIGNED
     2257      277                                Contains the number of dimensions for an
     2258      278                                array if Array Type is either 3 or 4.  If
     2259      279                                Array Type is 1 or 2, this contains the
     2260      280                                number of elements in the array.
     2261      281            Name Pointer        UBIN ALIGNED
     2262      282                                Contains the word offset into the
     2263      283                                Procedure Names Debug Record (type 15)
     2264      284                                locating the name of this variable.
     2265      285            Status Exists       BIT (1) UNALIGNED
     2266      286                                Status Exists = '1'B indicates this variable
     2267      287                                has a Status Variable associated with it.
     2268      288
     2269      289        OUTPUT:
     2270      290            Entry Number        UBIN ALIGNED  optional
     2271      291                                The entry number of the Variable
     2272      292                                Debug entry just created.  This value
     2273      293                                must be used to determine the entry
     2274      294                                number of variables that have dimension
     2275      295                                greater than 1 and an array type other
PL6.E3A0      #011=XUO$VREBL File=XUO$BUILD.:E05TSI                              WED 07/30/97 09:28 Page:286
     2276      296                                than 1 or 2.  In other cases the entry
     2277      297                                number of the next Variable Debug Record
     2278      298                                to be allocated can be determined by
     2279      299                                calling XUO$VREBLNUM.
     2280      300
     2281      301        B$OBJECT REFERENCE:  B$VREBL
     2282      302        */
     2283      303        /*B*
     2284      304
     2285      305        GLOBAL DATA:
     2286      306            B_VREBL_CUR$
     2287      307            B_VREBL_COUNT
     2288      308            B_VREBL_PAGE
     2289      309
     2290      310        INTERFACE:
     2291      311            XUO$OUWRITE
     2292      312
     2293      313        */
     2294      314
     2295      315        XUO$VREBL: PROC (P_PARAM1,P_ADDRESS_TYPE,P_DATA_TYPE,P_REFERENCED_FLAG,
               315            P_MODIFIED_FLAG,

    315  1 000000   000000 700200 xent  XUO$VREBL    TSX0  ! X66_AUTO_N
         1 000001   000030 000023                    ZERO    24,19

     2296      316              P_LOGICAL_SIZE,P_LEVEL_NUMBER,P_ALIGNMENT_TYPE,P_SIZE_TYPE_FLAG,P_ARRAY_TYPE,
     2297      317               P_OPERAND_TYPE,P_IMPLIED_POINTER,P_OPERAND,P_ELEMENT_SIZE,
     2298      318               P_SCALE_FACTOR,P_DIMENSIONS,P_NAME_POINTER,
     2299      319               P_ENTRY_NUMBER,P_STATUS_EXISTS);
     2300      320         /*
     2301      321            */
     2302      322        %INCLUDE ZVA_SYSTEM_FILE;
     2303     6573            %PAGE (ARG=INCLUDES);

              6586    1   /*******************************************************************************
              6587    1   *                                                                              *
              6588    1   *        INCLUDES              INCLUDES                                           *
PL6.E3A0      #011=XUO$VREBL File=XUO$BUILD.:E05TSI                              WED 07/30/97 09:28 Page:287
              6589    1   *                                                                              *
              6590    1   *******************************************************************************/

     2304     6594        %INCLUDE B$OBJECT_C;
     2305    10024        %INCLUDE XUO$OBJ_C;
     2306    10434            %PAGE (ARG=SUBS);

             10447    1   /*******************************************************************************
             10448    1   *                                                                              *
             10449    1   *        SUBS              SUBS                                                  *
             10450    1   *                                                                              *
             10451    1   *******************************************************************************/

     2307    10455            %B$RECORDSUBS;
     2308    10483            %VREBLSUBS;
     2309    10491            %VREBL_DATATYPES;
     2310    10566        %PLIST;
     2311    10567            %PAGE (ARG=PARAMETERS);

             10580    1   /*******************************************************************************
             10581    1   *                                                                              *
             10582    1   *        PARAMETERS              PARAMETERS                                       *
             10583    1   *                                                                              *
             10584    1   *******************************************************************************/

     2312    10588    1   DCL P_PARAM1 UBIN;
     2313    10589         /*
     2314    10590         The following definition is for XUO$VREBL.
     2315    10591         */
     2316    10592    1   DCL P_ADDRESS REDEF P_PARAM1 SBIN;
     2317    10593         /*
     2318    10594         The following definition is for XUO$VREBLNUM.
     2319    10595         */
     2320    10596    1   DCL P_VREBL_NUMBER REDEF P_PARAM1 UBIN;
     2321    10597    1   DCL P_ADDRESS_TYPE UBIN;
     2322    10598    1   DCL P_DATA_TYPE UBIN;
     2323    10599    1   DCL P_REFERENCED_FLAG BIT(1) UNAL PARAM;
PL6.E3A0      #011=XUO$VREBL File=XUO$BUILD.:E05TSI                              WED 07/30/97 09:28 Page:288
     2324    10600    1   DCL P_MODIFIED_FLAG BIT(1) UNAL;
     2325    10601    1   DCL P_LOGICAL_SIZE UBIN;
     2326    10602    1   DCL P_LEVEL_NUMBER UBIN;
     2327    10603    1   DCL P_ALIGNMENT_TYPE UBIN;
     2328    10604    1   DCL P_SIZE_TYPE_FLAG BIT(1) UNAL PARAM;
     2329    10605    1   DCL P_ARRAY_TYPE UBIN;
     2330    10606    1   DCL P_OPERAND_TYPE UBIN;
     2331    10607    1   DCL P_IMPLIED_POINTER SBIN;
     2332    10608    1   DCL P_OPERAND UBIN;
     2333    10609    1   DCL P_ELEMENT_SIZE UBIN;
     2334    10610    1   DCL P_SCALE_FACTOR UBIN;
     2335    10611    1   DCL P_DIMENSIONS SBIN PARAM;
     2336    10612    1   DCL P_NAME_POINTER SBIN;
     2337    10613    1   DCL P_ENTRY_NUMBER UBIN;
     2338    10614    1   DCL P_STATUS_EXISTS BIT(1) UNAL PARAM;
     2339    10615        %PAGE (ARG=VREBL DATA);

             10628    1   /*******************************************************************************
             10629    1   *                                                                              *
             10630    1   *        VREBL DATA              VREBL DATA                                       *
             10631    1   *                                                                              *
             10632    1   *******************************************************************************/

     2340    10636        %B$VREBL (STCLASS="BASED(VREBL_CUR$)");
     2341    10800        %B_VREBL_POINTERS;
     2342    10820    1   DCL VREBL_CUR$ PTR;
     2343    10821        %PLIST;
     2344    10822        %PAGE (ARG=MISC DATA);

             10835    1   /*******************************************************************************
             10836    1   *                                                                              *
             10837    1   *        MISC DATA              MISC DATA                                         *
             10838    1   *                                                                              *
             10839    1   *******************************************************************************/

     2345    10843    1   DCL XUO_WORDSIZE SYMREF SBIN;
     2346    10844    1   DCL XUO_CHARSIZE SYMREF SBIN;
PL6.E3A0      #011=XUO$VREBL File=XUO$BUILD.:E05TSI                              WED 07/30/97 09:28 Page:289
     2347    10845    1   DCL TEMP SBIN;
     2348    10846        %PAGE (ARG=ENTRY DCLS);

             10859    1   /*******************************************************************************
             10860    1   *                                                                              *
             10861    1   *        ENTRY DCLS              ENTRY DCLS                                       *
             10862    1   *                                                                              *
             10863    1   *******************************************************************************/

     2349    10867    1   DCL XUO$OUWRITE ENTRY(2);
     2350    10868        %PAGE (ARG=XUO$VREBL);

             10881    1   /*******************************************************************************
             10882    1   *                                                                              *
             10883    1   *        XUO$VREBL              XUO$VREBL                                         *
             10884    1   *                                                                              *
             10885    1   *******************************************************************************/

     2351    10889         /*
     2352    10890         Always allow for only 3 entries per continuation record
     2353    10891         */
     2354    10892    1       IF P_ARRAY_TYPE=%REAL_ARRAY OR P_ARRAY_TYPE=%VIRTUAL_ARRAY OR

  10892  1 000002   200014 470500                    LDP0    @P_ARRAY_TYPE,,AUTO
         1 000003   000000 235100                    LDA     0,,PR0
         1 000004   000003 115007                    CMPA    3,DL
         1 000005   000012 600000 1                  TZE     s:10894
         1 000006   000004 115007                    CMPA    4,DL
         1 000007   000012 600000 1                  TZE     s:10894
         1 000010   000005 115007                    CMPA    5,DL
         1 000011   000020 601000 1                  TNZ     s:10896

     2355    10893    1          P_ARRAY_TYPE=5 /*Adjustable*/ THEN
     2356    10894    1           TEMP=(P_DIMENSIONS+2)/3;

  10894  1 000012   200022 471500                    LDP1    @P_DIMENSIONS,,AUTO
         1 000013   100000 236100                    LDQ     0,,PR1
PL6.E3A0      #011=XUO$VREBL File=XUO$BUILD.:E05TSI                              WED 07/30/97 09:28 Page:290
         1 000014   000002 036007                    ADLQ    2,DL
         1 000015   000003 506007                    DIV     3,DL
         1 000016   200027 756100                    STQ     TEMP,,AUTO
         1 000017   000021 710000 1                  TRA     s:10901

     2357    10895    1       ELSE
     2358    10896    1           TEMP=0;

  10896  1 000020   200027 450100                    STZ     TEMP,,AUTO

     2359    10897         /* If this variable has a status variable associated with
     2360    10898            it, ensure room for the vrebl entry and continuation
     2361    10899            entry.
     2362    10900         */
     2363    10901    1       IF ADDR(P_STATUS_EXISTS) ~= ADDR(NIL) THEN

  10901  1 000021   200025 236100                    LDQ     @P_STATUS_EXISTS,,AUTO
         1 000022   000001 116000 xsym               CMPQ    B_VECTNIL+1
         1 000023   000033 600000 1                  TZE     s:10910

     2364    10902    2       DO;

     2365    10903    2           IF P_STATUS_EXISTS

  10903  1 000024   200025 471500                    LDP1    @P_STATUS_EXISTS,,AUTO
         1 000025   000000 066500                    CMPB    filb='0'B
         1 000026   100000 000001                    BDSC    0,,PR1                   by=0,bit=0,n=1
         1 000027   000002 000022 xsym               BDSC    B_VECTNIL+2              by=0,bit=0,n=18
         1 000030   000033 600000 1                  TZE     s:10910

     2366    10904    2           THEN TEMP = TEMP + 2;

  10904  1 000031   000002 236007                    LDQ     2,DL
         1 000032   200027 056100                    ASQ     TEMP,,AUTO

     2367    10905    2           END;

PL6.E3A0      #011=XUO$VREBL File=XUO$BUILD.:E05TSI                              WED 07/30/97 09:28 Page:291
     2368    10906         /* If this variable has a data type set or data type
     2369    10907            enumerated type, ensure room for the continuation
     2370    10908            entry.
     2371    10909         */
     2372    10910    1       IF (P_DATA_TYPE = %SET_DATATYPE) OR

  10910  1 000033   200005 471500                    LDP1    @P_DATA_TYPE,,AUTO
         1 000034   100000 235100                    LDA     0,,PR1
         1 000035   000065 115007                    CMPA    53,DL
         1 000036   000041 600000 1                  TZE     s:10913
         1 000037   000064 115007                    CMPA    52,DL
         1 000040   000042 601000 1                  TNZ     s:10921

     2373    10911    1          (P_DATA_TYPE = %ENUMTYPE_DATATYPE) THEN
     2374    10912    2       DO;

     2375    10913    2           TEMP = TEMP + 1;

  10913  1 000041   200027 054100                    AOS     TEMP,,AUTO

     2376    10914    2           END;

     2377    10915         /*
     2378    10916         The following section will check to see if the passed information will
     2379    10917         fit in the current record. If not, the current record will be
     2380    10918         written and pointer re-initialized.  Then the text will be moved to
     2381    10919         the buffer.
     2382    10920         */
     2383    10921    1       IF PINCRW(B_VREBL_CUR$,SIZEW(B$VREBL)*TEMP)>=B_VREBL_END$ THEN

  10921  1 000042   200027 236100                    LDQ     TEMP,,AUTO
         1 000043   000005 402003                    MPY     5,DU
         1 000044   000000 036000 xsym               ADLQ    B_VREBL_CUR$
         1 000045   000000 116000 xsym               CMPQ    B_VREBL_END$
         1 000046   000074 602000 1                  TNC     s:10940

     2384    10922    2       DO;
PL6.E3A0      #011=XUO$VREBL File=XUO$BUILD.:E05TSI                              WED 07/30/97 09:28 Page:292

     2385    10923         /*
     2386    10924            Generate null entires to
     2387    10925            fill up to the end of
     2388    10926            the page
     2389    10927            */
     2390    10928    3           DO WHILE(B_VREBL_CUR$<B_VREBL_END$);

  10928  1 000047   000000 236000 xsym               LDQ     B_VREBL_CUR$
         1 000050   000000 116000 xsym               CMPQ    B_VREBL_END$
         1 000051   000065 603000 1                  TRC     s:10933

     2391    10929    3               B_VREBL_CUR$ -> B$VREBL.DATATYP=%NULL_DATATYPE;

  10929  1 000052   000000 470400 xsym               LDP0    B_VREBL_CUR$
         1 000053   000000 236100                    LDQ     0,,PR0
         1 000054   000000 376000 2                  ANQ     0
         1 000055   000360 276007                    ORQ     240,DL
         1 000056   000000 756100                    STQ     0,,PR0

     2392    10930    3               B_VREBL_COUNT=B_VREBL_COUNT+1;

  10930  1 000057   000000 054000 xsym               AOS     B_VREBL_COUNT

     2393    10931    3               B_VREBL_CUR$=PINCRW(B_VREBL_CUR$,SIZEW(B$VREBL));

  10931  1 000060   000000 236000 xsym               LDQ     B_VREBL_CUR$
         1 000061   000005 036003                    ADLQ    5,DU
         1 000062   000000 756000 xsym               STQ     B_VREBL_CUR$

     2394    10932    3               END;

  10932  1 000063   000000 116000 xsym               CMPQ    B_VREBL_END$
         1 000064   000052 602000 1                  TNC     s:10929

     2395    10933    2           CALL XUO$OUWRITE(%TYPVREBL);

PL6.E3A0      #011=XUO$VREBL File=XUO$BUILD.:E05TSI                              WED 07/30/97 09:28 Page:293
  10933  1 000065   000002 630400 2                  EPPR0   2
         1 000066   000017 631400 xsym               EPPR1   B_VECTNIL+15
         1 000067   000000 701000 xent               TSX1    XUO$OUWRITE
         1 000070   000000 011000                    NOP     0

     2396    10934    2           B_VREBL_PAGE=B_VREBL_PAGE+1;

  10934  1 000071   000000 054000 xsym               AOS     B_VREBL_PAGE

     2397    10935    2           B_VREBL_CUR$=B_VREBL_BASE$;

  10935  1 000072   000000 236000 xsym               LDQ     B_VREBL_BASE$
         1 000073   000000 756000 xsym               STQ     B_VREBL_CUR$

     2398    10936    2           END;

     2399    10937         /*
     2400    10938         The following will build the vrebl data table.
     2401    10939         */
     2402    10940    1       VREBL_CUR$=B_VREBL_CUR$;

  10940  1 000074   000000 236000 xsym               LDQ     B_VREBL_CUR$
         1 000075   200026 756100                    STQ     VREBL_CUR$,,AUTO

     2403    10941    1       B$VREBL.ADR.W=P_ADDRESS/XUO_WORDSIZE;

  10941  1 000076   200003 470500                    LDP0    @P_PARAM1,,AUTO
         1 000077   000000 236100                    LDQ     0,,PR0
         1 000100   000000 506000 xsym               DIV     XUO_WORDSIZE
         1 000101   000000 620006                    EAX0    0,QL
         1 000102   200026 471500                    LDP1    VREBL_CUR$,,AUTO
         1 000103   100000 740100                    STX0    0,,PR1

     2404    10942    1       TEMP=MOD(P_ADDRESS,XUO_WORDSIZE);

  10942  1 000104   000000 236100                    LDQ     0,,PR0
         1 000105   000000 506000 xsym               DIV     XUO_WORDSIZE
PL6.E3A0      #011=XUO$VREBL File=XUO$BUILD.:E05TSI                              WED 07/30/97 09:28 Page:294
         1 000106   200027 755100                    STA     TEMP,,AUTO

     2405    10943    1       B$VREBL.ADR.C=TEMP/XUO_CHARSIZE;

  10943  1 000107   200027 236100                    LDQ     TEMP,,AUTO
         1 000110   000000 506000 xsym               DIV     XUO_CHARSIZE
         1 000111   000020 736000                    QLS     16
         1 000112   100000 676100                    ERQ     0,,PR1
         1 000113   600000 376007                    ANQ     -65536,DL
         1 000114   100000 656100                    ERSQ    0,,PR1

     2406    10944    1       B$VREBL.ADR.B=MOD(TEMP,XUO_CHARSIZE);

  10944  1 000115   200027 236100                    LDQ     TEMP,,AUTO
         1 000116   000000 506000 xsym               DIV     XUO_CHARSIZE
         1 000117   000044 733000                    LRS     36
         1 000120   000014 736000                    QLS     12
         1 000121   100000 676100                    ERQ     0,,PR1
         1 000122   170000 376007                    ANQ     61440,DL
         1 000123   100000 656100                    ERSQ    0,,PR1

     2407    10945    1       B$VREBL.ADDRTYP=P_ADDRESS_TYPE;

  10945  1 000124   200004 473500                    LDP3    @P_ADDRESS_TYPE,,AUTO
         1 000125   300000 236100                    LDQ     0,,PR3
         1 000126   000010 736000                    QLS     8
         1 000127   100000 676100                    ERQ     0,,PR1
         1 000130   007400 376007                    ANQ     3840,DL
         1 000131   100000 656100                    ERSQ    0,,PR1

     2408    10946    1       B$VREBL.DATATYP=P_DATA_TYPE;

  10946  1 000132   200005 474500                    LDP4    @P_DATA_TYPE,,AUTO
         1 000133   400000 236100                    LDQ     0,,PR4
         1 000134   000002 736000                    QLS     2
         1 000135   100000 676100                    ERQ     0,,PR1
         1 000136   000374 376007                    ANQ     252,DL
PL6.E3A0      #011=XUO$VREBL File=XUO$BUILD.:E05TSI                              WED 07/30/97 09:28 Page:295
         1 000137   100000 656100                    ERSQ    0,,PR1

     2409    10947    1       B$VREBL.REF=P_REFERENCED_FLAG;

  10947  1 000140   200006 475500                    LDP5    @P_REFERENCED_FLAG,,AUTO
         1 000141   003100 060500                    CSL     bolr='003'O
         1 000142   500000 000001                    BDSC    0,,PR5                   by=0,bit=0,n=1
         1 000143   100000 670001                    BDSC    0,,PR1                   by=3,bit=7,n=1

     2410    10948    1       B$VREBL.MODF=P_MODIFIED_FLAG;

  10948  1 000144   200007 476500                    LDP6    @P_MODIFIED_FLAG,,AUTO
         1 000145   003100 060500                    CSL     bolr='003'O
         1 000146   600000 000001                    BDSC    0,,PR6                   by=0,bit=0,n=1
         1 000147   100000 700001                    BDSC    0,,PR1                   by=3,bit=8,n=1

     2411    10949    1       B$VREBL.LOGSIZ=P_LOGICAL_SIZE;

  10949  1 000150   200010 477500                    LDP7    @P_LOGICAL_SIZE,,AUTO
         1 000151   700000 721100                    LXL1    0,,PR7
         1 000152   100001 741100                    STX1    1,,PR1

     2412    10950    1       B$VREBL.LEVEL=P_LEVEL_NUMBER;

  10950  1 000153   200011 470500                    LDP0    @P_LEVEL_NUMBER,,AUTO
         1 000154   000000 236100                    LDQ     0,,PR0
         1 000155   000014 736000                    QLS     12
         1 000156   100001 752104                    STCQ    1,'04'O,PR1

     2413    10951    1       B$VREBL.ALIGNTYP=P_ALIGNMENT_TYPE;

  10951  1 000157   200012 470500                    LDP0    @P_ALIGNMENT_TYPE,,AUTO
         1 000160   000000 236100                    LDQ     0,,PR0
         1 000161   000011 736000                    QLS     9
         1 000162   100001 676100                    ERQ     1,,PR1
         1 000163   007000 376007                    ANQ     3584,DL
         1 000164   100001 656100                    ERSQ    1,,PR1
PL6.E3A0      #011=XUO$VREBL File=XUO$BUILD.:E05TSI                              WED 07/30/97 09:28 Page:296

     2414    10952    1       B$VREBL.SZTYP=P_SIZE_TYPE_FLAG;

  10952  1 000165   200013 470500                    LDP0    @P_SIZE_TYPE_FLAG,,AUTO
         1 000166   003100 060500                    CSL     bolr='003'O
         1 000167   000000 000001                    BDSC    0,,PR0                   by=0,bit=0,n=1
         1 000170   100001 600001                    BDSC    1,,PR1                   by=3,bit=0,n=1

     2415    10953    1       B$VREBL.ARRAYTYP=P_ARRAY_TYPE;

  10953  1 000171   200014 470500                    LDP0    @P_ARRAY_TYPE,,AUTO
         1 000172   000000 236100                    LDQ     0,,PR0
         1 000173   000004 736000                    QLS     4
         1 000174   100001 676100                    ERQ     1,,PR1
         1 000175   000360 376007                    ANQ     240,DL
         1 000176   100001 656100                    ERSQ    1,,PR1

     2416    10954    1       B$VREBL.OPNDTYP=P_OPERAND_TYPE;

  10954  1 000177   200015 470500                    LDP0    @P_OPERAND_TYPE,,AUTO
         1 000200   000000 236100                    LDQ     0,,PR0
         1 000201   100001 676100                    ERQ     1,,PR1
         1 000202   000017 376007                    ANQ     15,DL
         1 000203   100001 656100                    ERSQ    1,,PR1

     2417    10955    1       B$VREBL.IMPTR=P_IMPLIED_POINTER;

  10955  1 000204   200016 470500                    LDP0    @P_IMPLIED_POINTER,,AUTO
         1 000205   000000 721100                    LXL1    0,,PR0
         1 000206   100002 741100                    STX1    2,,PR1

     2418    10956    1       B$VREBL.OPERAND=P_OPERAND;

  10956  1 000207   200017 470500                    LDP0    @P_OPERAND,,AUTO
         1 000210   000000 722100                    LXL2    0,,PR0
         1 000211   100002 442100                    SXL2    2,,PR1

PL6.E3A0      #011=XUO$VREBL File=XUO$BUILD.:E05TSI                              WED 07/30/97 09:28 Page:297
     2419    10957    1       B$VREBL.ELMNTSIZ=P_ELEMENT_SIZE;

  10957  1 000212   200020 470500                    LDP0    @P_ELEMENT_SIZE,,AUTO
         1 000213   000000 236100                    LDQ     0,,PR0
         1 000214   000014 736000                    QLS     12
         1 000215   100003 752174                    STCQ    3,'74'O,PR1

     2420    10958    1       B$VREBL.SCALE=P_SCALE_FACTOR;

  10958  1 000216   200021 470500                    LDP0    @P_SCALE_FACTOR,,AUTO
         1 000217   000000 236100                    LDQ     0,,PR0
         1 000220   100003 676100                    ERQ     3,,PR1
         1 000221   000377 376007                    ANQ     255,DL
         1 000222   100003 656100                    ERSQ    3,,PR1

     2421    10959    1       B$VREBL.DIMS=P_DIMENSIONS;

  10959  1 000223   200022 470500                    LDP0    @P_DIMENSIONS,,AUTO
         1 000224   000000 723100                    LXL3    0,,PR0
         1 000225   100004 743100                    STX3    4,,PR1

     2422    10960    1       B$VREBL.NPOINTER=P_NAME_POINTER;

  10960  1 000226   200023 470500                    LDP0    @P_NAME_POINTER,,AUTO
         1 000227   000000 724100                    LXL4    0,,PR0
         1 000230   100004 444100                    SXL4    4,,PR1

     2423    10961    1       B_VREBL_COUNT=B_VREBL_COUNT+1;

  10961  1 000231   000000 054000 xsym               AOS     B_VREBL_COUNT

     2424    10962    1       IF ADDR(P_ENTRY_NUMBER)~=ADDR(NIL) THEN

  10962  1 000232   200024 236100                    LDQ     @P_ENTRY_NUMBER,,AUTO
         1 000233   000001 116000 xsym               CMPQ    B_VECTNIL+1
         1 000234   000240 600000 1                  TZE     s:10964

PL6.E3A0      #011=XUO$VREBL File=XUO$BUILD.:E05TSI                              WED 07/30/97 09:28 Page:298
     2425    10963    1           P_ENTRY_NUMBER=B_VREBL_COUNT;

  10963  1 000235   000000 235000 xsym               LDA     B_VREBL_COUNT
         1 000236   200024 470500                    LDP0    @P_ENTRY_NUMBER,,AUTO
         1 000237   000000 755100                    STA     0,,PR0

     2426    10964    1       IF ADDR(P_STATUS_EXISTS) ~= ADDR(NIL)

  10964  1 000240   200025 236100                    LDQ     @P_STATUS_EXISTS,,AUTO
         1 000241   000001 116000 xsym               CMPQ    B_VECTNIL+1
         1 000242   000247 600000 1                  TZE     s:10968

     2427    10965    2       THEN DO;

     2428    10966    2           B$VREBL.STATUS_EXISTS = P_STATUS_EXISTS;

  10966  1 000243   200025 470500                    LDP0    @P_STATUS_EXISTS,,AUTO
         1 000244   003100 060500                    CSL     bolr='003'O
         1 000245   000000 000001                    BDSC    0,,PR0                   by=0,bit=0,n=1
         1 000246   100003 460001                    BDSC    3,,PR1                   by=2,bit=6,n=1

     2429    10967    2           END;

     2430    10968    1       B_VREBL_CUR$=PINCRW(B_VREBL_CUR$,SIZEW(B$VREBL));

  10968  1 000247   000000 236000 xsym               LDQ     B_VREBL_CUR$
         1 000250   000005 036003                    ADLQ    5,DU
         1 000251   000000 756000 xsym               STQ     B_VREBL_CUR$

     2431    10969    1       RETURN;

  10969  1 000252   000000 702200 xent               TSX2  ! X66_ARET

     2432    10970            %PAGE (ARG=XUO$VREBLNUM);

             10983    1   /*******************************************************************************
             10984    1   *                                                                              *
PL6.E3A0      #011=XUO$VREBL File=XUO$BUILD.:E05TSI                              WED 07/30/97 09:28 Page:299
             10985    1   *        XUO$VREBLNUM              XUO$VREBLNUM                                   *
             10986    1   *                                                                              *
             10987    1   *******************************************************************************/

     2433    10991        /*D*
     2434    10992
     2435    10993        XUO$VREBLNUM --Variable Debug Records (Record Type 14)
     2436    10994
     2437    10995        NAME:  XUO$VREBLNUM
     2438    10996
     2439    10997        PURPOSE:  To return the number of the next entry in the
     2440    10998                  Variable Debug Record
     2441    10999
     2442    11000        DESCRIPTION:  This routine returns the number of the next
     2443    11001            Variable Debug Record entry.  The returned value is used
     2444    11002            in the calls to XUO$LOGBLKVREBLINIT and
     2445    11003            XUO$LOGBLKVREBLTERM where starting and ending Variable
     2446    11004            Debug Record entry numbers are required.  This routine
     2447    11005            is used only in the case of getting the next number
     2448    11006            for the logical block calls.  In all other cases, the
     2449    11007            entry number should be obtained by use of the parameter
     2450    11008            Entry Number returned by the call to XUO$VREBL.
     2451    11009
     2452    11010        CALL:  CALL XUO$VREBLNUM (Variable Debug Record entry number)
     2453    11011
     2454    11012        INPUT:  none
     2455    11013
     2456    11014        OUTPUT:
     2457    11015
     2458    11016            Variable Debug Record entry number  UBIN ALIGNED
     2459    11017                                The number of the next entry in
     2460    11018                                the Variable Debug Record.
     2461    11019
     2462    11020        B$OBJECT REFERENCE:  B$VREBL
     2463    11021        */
     2464    11022        /*B*
     2465    11023
PL6.E3A0      #011=XUO$VREBL File=XUO$BUILD.:E05TSI                              WED 07/30/97 09:28 Page:300
     2466    11024        GLOBAL DATA:
     2467    11025            B_VREBL_COUNT
     2468    11026
     2469    11027        INTERFACE:
     2470    11028            XUO$OUWRITE
     2471    11029
     2472    11030        */
     2473    11031
     2474    11032    1   XUO$VREBLNUM: ENTRY(P_PARAM1);

  11032  1 000253   000000 700200 xent  XUO$VREBLNUM TSX0  ! X66_AUTO_N
         1 000254   000030 000023                    ZERO    24,19

     2475    11033         /*
     2476    11034            */
     2477    11035    1       P_VREBL_NUMBER=B_VREBL_COUNT+1;

  11035  1 000255   000000 235000 xsym               LDA     B_VREBL_COUNT
         1 000256   000001 035007                    ADLA    1,DL
         1 000257   200003 470500                    LDP0    @P_PARAM1,,AUTO
         1 000260   000000 755100                    STA     0,,PR0

     2478    11036    1       RETURN;

  11036  1 000261   000000 702200 xent               TSX2  ! X66_ARET
     2479    11037    1   END XUO$VREBL;
     2480    11038        %EOD;

PL6.E3A0      #011=XUO$VREBL File=XUO$BUILD.:E05TSI                              WED 07/30/97 09:28 Page:301
--  Include file information  --

   XUO$OBJ_C.:E05TOU  is referenced.
   B$OBJECT_C.:E05TOU  is referenced.
   CP_6_SUBS.:E05TOU  is referenced.
   CP_6_C.:E05TOU  is referenced.
   CP_6.:E05TOU  cannot be made into a system file and is referenced.
   ZVA_FLAGS.:TOOLE04  is referenced.
   ZVA_SYSTEM_FILE.:TOOLE04  is referenced.
      No diagnostics issued in procedure XUO$VREBL.
PL6.E3A0      #011=XUO$VREBL File=XUO$BUILD.:E05TSI                              WED 07/30/97 09:28 Page:302

 **** Variables and constants ****

  ****  Auto variables  ****

  ****  Scalars and arrays  ****
OctLoc.c.b A Datatyp(siz) R M Lvl/name                 OctLoc.c.b A Datatyp(siz) R M Lvl/name

     4-0-0/w PTR         r     1 @P_ADDRESS_TYPE           12-0-0/w PTR         r     1 @P_ALIGNMENT_TYPE
    14-0-0/w PTR         r     1 @P_ARRAY_TYPE              5-0-0/w PTR         r     1 @P_DATA_TYPE
    22-0-0/w PTR         r     1 @P_DIMENSIONS             20-0-0/w PTR         r     1 @P_ELEMENT_SIZE
    24-0-0/w PTR         r     1 @P_ENTRY_NUMBER           16-0-0/w PTR         r     1 @P_IMPLIED_POINTER
    11-0-0/w PTR         r     1 @P_LEVEL_NUMBER           10-0-0/w PTR         r     1 @P_LOGICAL_SIZE
     7-0-0/w PTR         r     1 @P_MODIFIED_FLAG          23-0-0/w PTR         r     1 @P_NAME_POINTER
    17-0-0/w PTR         r     1 @P_OPERAND                15-0-0/w PTR         r     1 @P_OPERAND_TYPE
     3-0-0/w PTR         r     1 @P_PARAM1                  6-0-0/w PTR         r     1 @P_REFERENCED_FLAG
    21-0-0/w PTR         r     1 @P_SCALE_FACTOR           13-0-0/w PTR         r     1 @P_SIZE_TYPE_FLAG
    25-0-0/w PTR         r     1 @P_STATUS_EXISTS          *0-0-0/w SBIN        r     1 P_ADDRESS
    *0-0-0/w UBIN        r     1 P_ADDRESS_TYPE            *0-0-0/w UBIN        r     1 P_ALIGNMENT_TYPE
    *0-0-0/w UBIN        r     1 P_ARRAY_TYPE              *0-0-0/w UBIN        r     1 P_DATA_TYPE
    *0-0-0/w SBIN        r     1 P_DIMENSIONS              *0-0-0/w UBIN        r     1 P_ELEMENT_SIZE
    *0-0-0/w UBIN        r     1 P_ENTRY_NUMBER            *0-0-0/w SBIN        r     1 P_IMPLIED_POINTER
    *0-0-0/w UBIN        r     1 P_LEVEL_NUMBER            *0-0-0/w UBIN        r     1 P_LOGICAL_SIZE
    *0-0-0/b BIT         r     1 P_MODIFIED_FLAG           *0-0-0/w SBIN        r     1 P_NAME_POINTER
    *0-0-0/w UBIN        r     1 P_OPERAND                 *0-0-0/w UBIN        r     1 P_OPERAND_TYPE
    *0-0-0/w UBIN        r     1 P_PARAM1                  *0-0-0/b BIT         r     1 P_REFERENCED_FLAG
    *0-0-0/w UBIN        r     1 P_SCALE_FACTOR            *0-0-0/b BIT         r     1 P_SIZE_TYPE_FLAG
    *0-0-0/b BIT         r     1 P_STATUS_EXISTS           *0-0-0/w UBIN        r     1 P_VREBL_NUMBER
    27-0-0/w SBIN        r     1 TEMP                      26-0-0/w PTR         r     1 VREBL_CUR$

  ****  SYMREF variables  ****

  ****  Scalars and arrays  ****
OctLoc.c.b A Datatyp(siz) R M Lvl/name                 OctLoc.c.b A Datatyp(siz) R M Lvl/name

     0-0-0/w PTR         r     1 B_VREBL_BASE$              0-0-0/w SBIN        r     1 B_VREBL_COUNT
     0-0-0/w PTR         r     1 B_VREBL_CUR$               0-0-0/w PTR         r     1 B_VREBL_END$
     0-0-0/w SBIN        r     1 B_VREBL_PAGE               0-0-0/w SBIN        r     1 XUO_CHARSIZE
PL6.E3A0      #011=XUO$VREBL File=XUO$BUILD.:E05TSI                              WED 07/30/97 09:28 Page:303
     0-0-0/w SBIN        r     1 XUO_WORDSIZE

  ****  BASED and DCB variables  ****

  ****  Scalars and arrays  ****
OctLoc.c.b A Datatyp(siz) R M Lvl/name                 OctLoc.c.b A Datatyp(siz) R M Lvl/name

     0-0-0/w STRC(180)   r     1 B$VREBL


   Procedure XUO$VREBL requires 178 words for executable code.
   Procedure XUO$VREBL requires 24 words of local(AUTO) storage.
PL6.E3A0      #011=XUO$VREBL File=XUO$BUILD.:E05TSI                              WED 07/30/97 09:28 Page:304
          *** CROSS REFERENCE LISTING ***
**     DENOTES     IDENTIFIER DEFINITION
<<                 IDENTIFIER'S VALUE SET
>>                 IDENTIFIER'S VALUE USED
<>                 IDENTIFIER SET AND/OR USED
--                 IDENTIFIER REFERENCED
PL6.E3A0      #011=XUO$VREBL File=XUO$BUILD.:E05TSI                              WED 07/30/97 09:28 Page:305
          MINI XREF LISTING

B$VREBL
     10637**DCL     10921--IF      10931--ASSIGN  10968--ASSIGN
B$VREBL.ADDRTYP
     10664**DCL     10945<<ASSIGN
B$VREBL.ADR
     10638**DCL     10650--REDEF
B$VREBL.ADR.B
     10648**DCL     10944<<ASSIGN
B$VREBL.ADR.C
     10646**DCL     10943<<ASSIGN
B$VREBL.ADR.W
     10644**DCL     10941<<ASSIGN
B$VREBL.ALIGNTYP
     10710**DCL     10951<<ASSIGN
B$VREBL.ARRAYTYP
     10725**DCL     10953<<ASSIGN
B$VREBL.DATATYP
     10688**DCL     10929<<ASSIGN  10946<<ASSIGN
B$VREBL.DIMS
     10791**DCL     10959<<ASSIGN
B$VREBL.ELMNTSIZ
     10773**DCL     10957<<ASSIGN
B$VREBL.IMPTR
     10755**DCL     10955<<ASSIGN
B$VREBL.LEVEL
     10707**DCL     10950<<ASSIGN
B$VREBL.LOGSIZ
     10699**DCL     10949<<ASSIGN
B$VREBL.MODF
     10695**DCL     10948<<ASSIGN
B$VREBL.NPOINTER
     10795**DCL     10960<<ASSIGN
PL6.E3A0      #011=XUO$VREBL File=XUO$BUILD.:E05TSI                              WED 07/30/97 09:28 Page:306
B$VREBL.OPERAND
     10768**DCL     10956<<ASSIGN
B$VREBL.OPNDTYP
     10747**DCL     10954<<ASSIGN
B$VREBL.REF
     10692**DCL     10947<<ASSIGN
B$VREBL.SCALE
     10783**DCL     10958<<ASSIGN
B$VREBL.STATUS_EXISTS
     10779**DCL     10966<<ASSIGN
B$VREBL.SZTYP
     10719**DCL     10952<<ASSIGN
B_VREBL_BASE$
     10812**DCL     10935>>ASSIGN
B_VREBL_COUNT
     10815**DCL     10930<<ASSIGN  10930>>ASSIGN  10961<<ASSIGN  10961>>ASSIGN  10963>>ASSIGN  11035>>ASSIGN
B_VREBL_CUR$
     10813**DCL     10921>>IF      10928>>DOWHILE 10929>>ASSIGN  10931<<ASSIGN  10931>>ASSIGN  10935<<ASSIGN
     10940>>ASSIGN  10968<<ASSIGN  10968>>ASSIGN
B_VREBL_END$
     10814**DCL     10921>>IF      10928>>DOWHILE
B_VREBL_PAGE
     10816**DCL     10934<<ASSIGN  10934>>ASSIGN
P_ADDRESS
     10592**DCL     10941>>ASSIGN  10942>>ASSIGN
P_ADDRESS_TYPE
     10597**DCL       315--PROC    10945>>ASSIGN
P_ALIGNMENT_TYPE
     10603**DCL       315--PROC    10951>>ASSIGN
P_ARRAY_TYPE
     10605**DCL       315--PROC    10892>>IF      10892>>IF      10892>>IF      10953>>ASSIGN
P_DATA_TYPE
     10598**DCL       315--PROC    10910>>IF      10910>>IF      10946>>ASSIGN
P_DIMENSIONS
     10611**DCL       315--PROC    10894>>ASSIGN  10959>>ASSIGN
P_ELEMENT_SIZE
PL6.E3A0      #011=XUO$VREBL File=XUO$BUILD.:E05TSI                              WED 07/30/97 09:28 Page:307
     10609**DCL       315--PROC    10957>>ASSIGN
P_ENTRY_NUMBER
     10613**DCL       315--PROC    10962--IF      10963<<ASSIGN
P_IMPLIED_POINTER
     10607**DCL       315--PROC    10955>>ASSIGN
P_LEVEL_NUMBER
     10602**DCL       315--PROC    10950>>ASSIGN
P_LOGICAL_SIZE
     10601**DCL       315--PROC    10949>>ASSIGN
P_MODIFIED_FLAG
     10600**DCL       315--PROC    10948>>ASSIGN
P_NAME_POINTER
     10612**DCL       315--PROC    10960>>ASSIGN
P_OPERAND
     10608**DCL       315--PROC    10956>>ASSIGN
P_OPERAND_TYPE
     10606**DCL       315--PROC    10954>>ASSIGN
P_PARAM1
     10588**DCL       315--PROC    10592--REDEF   10596--REDEF   11032--ENTRY
P_REFERENCED_FLAG
     10599**DCL       315--PROC    10947>>ASSIGN
P_SCALE_FACTOR
     10610**DCL       315--PROC    10958>>ASSIGN
P_SIZE_TYPE_FLAG
     10604**DCL       315--PROC    10952>>ASSIGN
P_STATUS_EXISTS
     10614**DCL       315--PROC    10901--IF      10903>>IF      10964--IF      10966>>ASSIGN
P_VREBL_NUMBER
     10596**DCL     11035<<ASSIGN
TEMP
     10845**DCL     10894<<ASSIGN  10896<<ASSIGN  10904<<ASSIGN  10904>>ASSIGN  10913<<ASSIGN  10913>>ASSIGN
     10921>>IF      10942<<ASSIGN  10943>>ASSIGN  10944>>ASSIGN
VREBL_CUR$
     10820**DCL     10637--IMP-PTR 10940<<ASSIGN  10941>>ASSIGN  10943>>ASSIGN  10944>>ASSIGN  10945>>ASSIGN
     10946>>ASSIGN  10947>>ASSIGN  10948>>ASSIGN  10949>>ASSIGN  10950>>ASSIGN  10951>>ASSIGN  10952>>ASSIGN
     10953>>ASSIGN  10954>>ASSIGN  10955>>ASSIGN  10956>>ASSIGN  10957>>ASSIGN  10958>>ASSIGN  10959>>ASSIGN
PL6.E3A0      #011=XUO$VREBL File=XUO$BUILD.:E05TSI                              WED 07/30/97 09:28 Page:308
     10960>>ASSIGN  10966>>ASSIGN
XUO$OUWRITE
     10867**DCL-ENT 10933--CALL
XUO_CHARSIZE
     10844**DCL     10943>>ASSIGN  10944>>ASSIGN
XUO_WORDSIZE
     10843**DCL     10941>>ASSIGN  10942>>ASSIGN

