VERSION E05

PL6.E3A0      #001=XUP$DMPNXT File=XUP$DMPNXT_STUB.:E05TSI                       WED 07/30/97 09:36 Page:1
        1        1        /*M* XUP$DMPNXT_STUB - DMPNXT stub for TIGR */
        2        2        /*T***********************************************************/
        3        3        /*T*                                                         */
        4        4        /*T* Copyright (c) Bull HN Information Systems Inc., 1997    */
        5        5        /*T*                                                         */
        6        6        /*T***********************************************************/
        7        7        XUP$DMPNXT: PROC (G$D);
        8        8
        9        9        /*X* DMC, PLM=3, CTI=1, CSI=2, ECI=2, MCI=YES, SDI=6, THI=2 */
       10       10
       11       11    1   DCL G$D BIT(1) ALIGNED;
       12       12
       13       13    1      RETURN;
       14       14
       15       15    1   END XUP$DMPNXT;

PL6.E3A0      #001=XUP$DMPNXT File=XUP$DMPNXT_STUB.:E05TSI                       WED 07/30/97 09:36 Page:2
      No diagnostics issued in procedure XUP$DMPNXT.

   Procedure XUP$DMPNXT requires 3 words for executable code.
   Procedure XUP$DMPNXT requires 4 words of local(AUTO) storage.

    No errors detected in file XUP$DMPNXT_STUB.:E05TSI    .

PL6.E3A0      #001=XUP$DMPNXT File=XUP$DMPNXT_STUB.:E05TSI                       WED 07/30/97 09:36 Page:3

 Object Unit name= XUP$DMPNXT                                 File name= XUP$DMPNXT_STUB.:E05TOU
 UTS= JUL 30 '97 09:36:56.72 WED                              Compiler= PL-6/E31         Sev=      00
 SharedLib= :SHARED_SYSTEM                                    Alt SharedLib=


    ****  Control sections  ****

 Sect   Type Bound  Init  Size OctSiz  Section name(segment info)
    0   Proc  even  none     3      3  XUP$DMPNXT

    ****  Entry defs  ****

                              Check   Calling
                             calling  sequence
  Sect OctLoc Primary Altret sequence   type   Parms  Name
     0      0   yes            yes      Std        1  XUP$DMPNXT

  ****  Entry refs  ****

         Check        Calling
        calling       sequence
Altret sequence SRef   type   Args  Name
                       nStd      0 X66_AUTO_1
                       nStd      0 X66_ARET
PL6.E3A0      #001=XUP$DMPNXT File=XUP$DMPNXT_STUB.:E05TSI                       WED 07/30/97 09:36 Page:4


        1        1        /*M* XUP$DMPNXT_STUB - DMPNXT stub for TIGR */
        2        2        /*T***********************************************************/
        3        3        /*T*                                                         */
        4        4        /*T* Copyright (c) Bull HN Information Systems Inc., 1997    */
        5        5        /*T*                                                         */
        6        6        /*T***********************************************************/
        7        7        XUP$DMPNXT: PROC (G$D);

      7  0 000000   000000 700200 xent  XUP$DMPNXT   TSX0  ! X66_AUTO_1
         0 000001   000004 000001                    ZERO    4,1

        8        8
        9        9        /*X* DMC, PLM=3, CTI=1, CSI=2, ECI=2, MCI=YES, SDI=6, THI=2 */
       10       10
       11       11    1   DCL G$D BIT(1) ALIGNED;
       12       12
       13       13    1      RETURN;

     13  0 000002   000000 702200 xent               TSX2  ! X66_ARET
       14       14
       15       15    1   END XUP$DMPNXT;

PL6.E3A0      #001=XUP$DMPNXT File=XUP$DMPNXT_STUB.:E05TSI                       WED 07/30/97 09:36 Page:5
      No diagnostics issued in procedure XUP$DMPNXT.
PL6.E3A0      #001=XUP$DMPNXT File=XUP$DMPNXT_STUB.:E05TSI                       WED 07/30/97 09:36 Page:6

 **** Variables and constants ****

  ****  Auto variables  ****

  ****  Scalars and arrays  ****
OctLoc.c.b A Datatyp(siz) R M Lvl/name                 OctLoc.c.b A Datatyp(siz) R M Lvl/name

     3-0-0/w PTR         r     1 @G$D                      *0-0-0/w BIT         r     1 G$D


   Procedure XUP$DMPNXT requires 3 words for executable code.
   Procedure XUP$DMPNXT requires 4 words of local(AUTO) storage.

    No errors detected in file XUP$DMPNXT_STUB.:E05TSI    .
PL6.E3A0      #001=XUP$DMPNXT File=XUP$DMPNXT_STUB.:E05TSI                       WED 07/30/97 09:36 Page:7
          *** CROSS REFERENCE LISTING ***
**     DENOTES     IDENTIFIER DEFINITION
<<                 IDENTIFIER'S VALUE SET
>>                 IDENTIFIER'S VALUE USED
<>                 IDENTIFIER SET AND/OR USED
--                 IDENTIFIER REFERENCED
PL6.E3A0      #001=XUP$DMPNXT File=XUP$DMPNXT_STUB.:E05TSI                       WED 07/30/97 09:36 Page:8
          MINI XREF LISTING

G$D
        11**DCL         7--PROC
