PL6.E3A0      #003=XUP$GETSPACE File=XUP$PARSE.:E05TSI                           WED 07/30/97 09:38 Page:344
     2889        1        /*T***********************************************************/
     2890        2        /*T*                                                         */
     2891        3        /*T* Copyright (c) Bull HN Information Systems Inc., 1997    */
     2892        4        /*T*                                                         */
     2893        5        /*T***********************************************************/
     2894        6        XUP$GETSPACE:
     2895        7            PROC(COUNT,OUTBLK$,G$D);
     2896        8
     2897        9        /*X* DMC,PLM=4,IND=4,CTI=2,DTI=0,ENI=0,ECI=0,CSI=0,MCI,DCI=4 */
     2898       10        /*D*
     2899       11            NAME: XUP$GETSPACE
     2900       12            CALL:
     2901       13                CALL XUP$GETSPACE (COUNT, OUTBLK$, G$D);
     2902       14            PARAMETERS:
     2903       15                COUNT -- the number of words needed for the new block
     2904       16                OUTBLK$ -- returns a pointer to the block allocated
     2905       17                G$D -- the parser global data structure
     2906       18            INTERFACE:
     2907       19                XUP$EXPAND_WORKAREA
     2908       20            OUTPUT:
     2909       21                A new block of the requested size is allocated in the parse
     2910       22                work area.
     2911       23            DESCRIPTION:
     2912       24                This routine allocates blocks in the parse work area.
     2913       25        */
     2914       26        %INCLUDE      XU_MACRO_C;
     2915     3132        %INCLUDE      XU_SUBS_C;
     2916     3224        /*
     2917     3225            ***       PARAMETERS
     2918     3226        */
     2919     3227    1   DCL       COUNT    SBIN;
     2920     3228    1   DCL       OUTBLK$  PTR;
     2921     3229            %G$D;
     2922     3325        /*
     2923     3326            ***       LOCAL VARIABLES
     2924     3327        */
     2925     3328    1   DCL       ICOUNT   SBIN;
PL6.E3A0      #003=XUP$GETSPACE File=XUP$PARSE.:E05TSI                           WED 07/30/97 09:38 Page:345
     2926     3329    1   DCL       BLK$     PTR;
     2927     3330    1   DCL       BLK$INIT(0:0)  UBIN  WORD  BASED  ALIGNED;
     2928     3331        /*
     2929     3332            ***        Entry references
     2930     3333        */
     2931     3334    1   DCL       XUP$EXPAND_WORKAREA ENTRY (1) ALTRET;
     2932     3335        /*
     2933     3336            ***       Parser data structures
     2934     3337        */
     2935     3338            %XUP$CHAIN;
     2936     3344            %P$PCB(STCLASS=BASED);
     2937     3545        %EJECT;
PL6.E3A0      #003=XUP$GETSPACE File=XUP$PARSE.:E05TSI                           WED 07/30/97 09:38 Page:346
     2938     3546        /*
     2939     3547        ***           BEGIN PROCEDURE
     2940     3548        */
     2941     3549        /*D*
     2942     3550            Make sure the block will be large enough to be a free chain block.
     2943     3551        */
     2944     3552    1   X$GETSPACE: ENTRY(COUNT,OUTBLK$,G$D);
     2945     3553    1       ICOUNT = MAXIMUM (COUNT+1, 3);
     2946     3554        /*D*
     2947     3555            Scan the free space chain for a block of at least the requested size.
     2948     3556        */
     2949     3557    1       BLK$ = G$D.FREEANCHOR$->FREE$HDR.NEXT$;
     2950     3558    2       DO WHILE(BLK$ ~= G$D.LASTFREE$
     2951     3559    2         AND BLK$->FREE$HDR.NWORDS < ICOUNT);
     2952     3560    2           BLK$ = BLK$->FREE$HDR.NEXT$;
     2953     3561    2       END;
     2954     3562        /*D*
     2955     3563            If no suitable free block is found ...
     2956     3564        */
     2957     3565    1       IF BLK$ = G$D.LASTFREE$ THEN
     2958     3566    2       DO;
     2959     3567        /*D*
     2960     3568            o   Expand the output block area by the size of the new block.
     2961     3569        */
     2962     3570    2           G$D.HISPACE$ = PINCRW( G$D.HISPACE$,ICOUNT);
     2963     3571        /*D*
     2964     3572            o   If there is not enough room in the work area to hold the new
     2965     3573                block, try to expand the work area.
     2966     3574        */
     2967     3575    3           DO WHILE G$D.HISPACE$ >= G$D.STACKTOP$;
     2968     3576    3               CALL XUP$EXPAND_WORKAREA (G$D);
     2969     3577    3           END;
     2970     3578        /*D*
     2971     3579            o   Rebuild the free chain trailer block following the new block.
     2972     3580        */
     2973     3581
     2974     3582    2           G$D.LASTFREE$ = PINCRW(G$D.HISPACE$,-2);
PL6.E3A0      #003=XUP$GETSPACE File=XUP$PARSE.:E05TSI                           WED 07/30/97 09:38 Page:347
     2975     3583    2           G$D.LASTFREE$->FREE$HDR.NEXT$ = ADDR(NIL);
     2976     3584    2           G$D.LASTFREE$->FREE$HDR.PREV$ =
     2977     3585    2             BLK$->FREE$HDR.PREV$;
     2978     3586    2           G$D.LASTFREE$->FREE$HDR.NWORDS = 3;
     2979     3587    2           BLK$->FREE$HDR.NWORDS = ICOUNT;
     2980     3588    2           BLK$->FREE$HDR.PREV$ ->FREE$HDR.NEXT$ =
     2981     3589    2             G$D.LASTFREE$;
     2982     3590    2       END;
     2983     3591        /*D*
     2984     3592            If a free block large enough to hold the new block is found ...
     2985     3593        */
     2986     3594    1       ELSE
     2987     3595    2       DO;
     2988     3596        /*D*
     2989     3597            o   If the block found is too small to create a new free chain
     2990     3598                block after the block being allocated, reuse the whole block.
     2991     3599        */
     2992     3600    2           IF BLK$->FREE$HDR.NWORDS - ICOUNT < 3 THEN
     2993     3601    3           DO;
     2994     3602    3               BLK$->FREE$HDR.PREV$->FREE$HDR.NEXT$ =
     2995     3603    3                 BLK$->FREE$HDR.NEXT$;
     2996     3604    3               BLK$->FREE$HDR.NEXT$->FREE$HDR.PREV$ =
     2997     3605    3                 BLK$->FREE$HDR.PREV$;
     2998     3606    3           END;
     2999     3607        /*D*
     3000     3608            o   Otherwise, build a new free chain block at the end of the block
     3001     3609                being allocated, and reduce its size accordingly.  Links don't
     3002     3610                change in this case.
     3003     3611        */
     3004     3612    2           ELSE
     3005     3613    3           DO;
     3006     3614    3               BLK$->FREE$HDR.NWORDS =
     3007     3615    3                 BLK$->FREE$HDR.NWORDS - ICOUNT ;
     3008     3616    3               BLK$ = PINCRW(BLK$,BLK$->FREE$HDR.NWORDS);
     3009     3617    3               BLK$->FREE$HDR.NWORDS = ICOUNT;
     3010     3618    3           END;
     3011     3619    2       END;
PL6.E3A0      #003=XUP$GETSPACE File=XUP$PARSE.:E05TSI                           WED 07/30/97 09:38 Page:348
     3012     3620        /*D*
     3013     3621            Clear the new block to zeros.
     3014     3622        */
     3015     3623    1       ICOUNT = ICOUNT - 1;
     3016     3624    2       DO WHILE(ICOUNT > 0);
     3017     3625    2           BLK$->BLK$INIT(ICOUNT) = 0;
     3018     3626    2           ICOUNT = ICOUNT - 1;
     3019     3627    2       END;
     3020     3628        /*D*
     3021     3629            Bump the block address returned to the caller past the block size
     3022     3630            word, so that this word will remain intact for use by XUP$FREESPACE.
     3023     3631        */
     3024     3632    1       OUTBLK$ = PINCRW(BLK$, 1);
     3025     3633    1   END XUP$GETSPACE;
     3026     3634        %EOD;

PL6.E3A0      #003=XUP$GETSPACE File=XUP$PARSE.:E05TSI                           WED 07/30/97 09:38 Page:349
--  Include file information  --

   XU_SUBS_C.:E05TOU  is referenced.
   XU_MACRO_C.:E05TOU  is referenced.
      No diagnostics issued in procedure XUP$GETSPACE.

   Procedure XUP$GETSPACE requires 98 words for executable code.
   Procedure XUP$GETSPACE requires 8 words of local(AUTO) storage.

PL6.E3A0      #003=XUP$GETSPACE File=XUP$PARSE.:E05TSI                           WED 07/30/97 09:38 Page:350

 Object Unit name= XUP$GETSPACE                               File name= XUP$PARSE.:E05TOU
 UTS= JUL 30 '97 09:38:41.84 WED                              Compiler= PL-6/E31         Sev=      00
 SharedLib= :SHARED_SYSTEM                                    Alt SharedLib=


    ****  Control sections  ****

 Sect   Type Bound  Init  Size OctSiz  Section name(segment info)
    0   Proc  even  none    98    142  XUP$GETSPACE

    ****  Entry defs  ****

                              Check   Calling
                             calling  sequence
  Sect OctLoc Primary Altret sequence   type   Parms  Name
     0      0   yes            yes      Std        3  XUP$GETSPACE
     0      3                  yes      Std        3  X$GETSPACE

  ****  Entry refs  ****

         Check        Calling
        calling       sequence
Altret sequence SRef   type   Args  Name
 yes     yes           Std       1 XUP$EXPAND_WORKAREA
                       nStd      0 X66_AUTO_3
                       Std       0 B_CONSPOOL_D
                       nStd      0 X66_ARET

  ****  Data refs  ****

  Flags:  r = read only, s = secondary
Flgs Name                             Flgs Name                             Flgs Name
     B_VECTNIL
PL6.E3A0      #003=XUP$GETSPACE File=XUP$PARSE.:E05TSI                           WED 07/30/97 09:38 Page:351


     2889        1        /*T***********************************************************/
     2890        2        /*T*                                                         */
     2891        3        /*T* Copyright (c) Bull HN Information Systems Inc., 1997    */
     2892        4        /*T*                                                         */
     2893        5        /*T***********************************************************/
     2894        6        XUP$GETSPACE:
     2895        7            PROC(COUNT,OUTBLK$,G$D);

      7  0 000000   000000 700200 xent  XUP$GETSPACE TSX0  ! X66_AUTO_3
         0 000001   000010 000003                    ZERO    8,3
         0 000002   000005 710000 0                  TRA     s:3553

     2896        8
     2897        9        /*X* DMC,PLM=4,IND=4,CTI=2,DTI=0,ENI=0,ECI=0,CSI=0,MCI,DCI=4 */
     2898       10        /*D*
     2899       11            NAME: XUP$GETSPACE
     2900       12            CALL:
     2901       13                CALL XUP$GETSPACE (COUNT, OUTBLK$, G$D);
     2902       14            PARAMETERS:
     2903       15                COUNT -- the number of words needed for the new block
     2904       16                OUTBLK$ -- returns a pointer to the block allocated
     2905       17                G$D -- the parser global data structure
     2906       18            INTERFACE:
     2907       19                XUP$EXPAND_WORKAREA
     2908       20            OUTPUT:
     2909       21                A new block of the requested size is allocated in the parse
     2910       22                work area.
     2911       23            DESCRIPTION:
     2912       24                This routine allocates blocks in the parse work area.
     2913       25        */
     2914       26        %INCLUDE      XU_MACRO_C;
     2915     3132        %INCLUDE      XU_SUBS_C;
     2916     3224        /*
     2917     3225            ***       PARAMETERS
     2918     3226        */
     2919     3227    1   DCL       COUNT    SBIN;
PL6.E3A0      #003=XUP$GETSPACE File=XUP$PARSE.:E05TSI                           WED 07/30/97 09:38 Page:352
     2920     3228    1   DCL       OUTBLK$  PTR;
     2921     3229            %G$D;
     2922     3325        /*
     2923     3326            ***       LOCAL VARIABLES
     2924     3327        */
     2925     3328    1   DCL       ICOUNT   SBIN;
     2926     3329    1   DCL       BLK$     PTR;
     2927     3330    1   DCL       BLK$INIT(0:0)  UBIN  WORD  BASED  ALIGNED;
     2928     3331        /*
     2929     3332            ***        Entry references
     2930     3333        */
     2931     3334    1   DCL       XUP$EXPAND_WORKAREA ENTRY (1) ALTRET;
     2932     3335        /*
     2933     3336            ***       Parser data structures
     2934     3337        */
     2935     3338            %XUP$CHAIN;
     2936     3344            %P$PCB(STCLASS=BASED);
     2937     3545        %EJECT;
PL6.E3A0      #003=XUP$GETSPACE File=XUP$PARSE.:E05TSI                           WED 07/30/97 09:38 Page:353
     2938     3546        /*
     2939     3547        ***           BEGIN PROCEDURE
     2940     3548        */
     2941     3549        /*D*
     2942     3550            Make sure the block will be large enough to be a free chain block.
     2943     3551        */
     2944     3552    1   X$GETSPACE: ENTRY(COUNT,OUTBLK$,G$D);

   3552  0 000003   000000 700200 xent  X$GETSPACE   TSX0  ! X66_AUTO_3
         0 000004   000010 000003                    ZERO    8,3

     2945     3553    1       ICOUNT = MAXIMUM (COUNT+1, 3);

   3553  0 000005   200003 470500                    LDP0    @COUNT,,AUTO
         0 000006   000000 236100                    LDQ     0,,PR0
         0 000007   000001 036007                    ADLQ    1,DL
         0 000010   000003 116007                    CMPQ    3,DL
         0 000011   000013 605000 0                  TPL     s:3553+6
         0 000012   000003 236007                    LDQ     3,DL
         0 000013   200006 756100                    STQ     ICOUNT,,AUTO

     2946     3554        /*D*
     2947     3555            Scan the free space chain for a block of at least the requested size.
     2948     3556        */
     2949     3557    1       BLK$ = G$D.FREEANCHOR$->FREE$HDR.NEXT$;

   3557  0 000014   200005 471500                    LDP1    @G$D,,AUTO
         0 000015   100005 473500                    LDP3    5,,PR1
         0 000016   300001 236100                    LDQ     1,,PR3
         0 000017   200007 756100                    STQ     BLK$,,AUTO

     2950     3558    2       DO WHILE(BLK$ ~= G$D.LASTFREE$

   3558  0 000020   000024 710000 0                  TRA     s:3561

     2951     3559    2         AND BLK$->FREE$HDR.NWORDS < ICOUNT);
     2952     3560    2           BLK$ = BLK$->FREE$HDR.NEXT$;
PL6.E3A0      #003=XUP$GETSPACE File=XUP$PARSE.:E05TSI                           WED 07/30/97 09:38 Page:354

   3560  0 000021   200007 470500                    LDP0    BLK$,,AUTO
         0 000022   000001 236100                    LDQ     1,,PR0
         0 000023   200007 756100                    STQ     BLK$,,AUTO

     2953     3561    2       END;

   3561  0 000024   200005 470500                    LDP0    @G$D,,AUTO
         0 000025   000006 116100                    CMPQ    6,,PR0
         0 000026   000033 600000 0                  TZE     s:3565
         0 000027   200007 471500                    LDP1    BLK$,,AUTO
         0 000030   100000 236100                    LDQ     0,,PR1
         0 000031   200006 116100                    CMPQ    ICOUNT,,AUTO
         0 000032   000021 604000 0                  TMI     s:3560

     2954     3562        /*D*
     2955     3563            If no suitable free block is found ...
     2956     3564        */
     2957     3565    1       IF BLK$ = G$D.LASTFREE$ THEN

   3565  0 000033   200007 236100                    LDQ     BLK$,,AUTO
         0 000034   000006 116100                    CMPQ    6,,PR0
         0 000035   000077 601000 0                  TNZ     s:3600

     2958     3566    2       DO;

     2959     3567        /*D*
     2960     3568            o   Expand the output block area by the size of the new block.
     2961     3569        */
     2962     3570    2           G$D.HISPACE$ = PINCRW( G$D.HISPACE$,ICOUNT);

   3570  0 000036   000007 471500                    LDP1    7,,PR0
         0 000037   200006 720100                    LXL0    ICOUNT,,AUTO
         0 000040   100000 633510                    EPPR3   0,X0,PR1
         0 000041   000007 453500                    STP3    7,,PR0

     2963     3571        /*D*
PL6.E3A0      #003=XUP$GETSPACE File=XUP$PARSE.:E05TSI                           WED 07/30/97 09:38 Page:355
     2964     3572            o   If there is not enough room in the work area to hold the new
     2965     3573                block, try to expand the work area.
     2966     3574        */
     2967     3575    3           DO WHILE G$D.HISPACE$ >= G$D.STACKTOP$;

   3575  0 000042   000007 236100                    LDQ     7,,PR0
         0 000043   000010 116100                    CMPQ    8,,PR0
         0 000044   000055 602000 0                  TNC     s:3582

     2968     3576    3               CALL XUP$EXPAND_WORKAREA (G$D);

   3576  0 000045   200005 630500                    EPPR0   @G$D,,AUTO
         0 000046   000017 631400 xsym               EPPR1   B_VECTNIL+15
         0 000047   000000 701000 xent               TSX1    XUP$EXPAND_WORKAREA
         0 000050   000000 011000                    NOP     0

     2969     3577    3           END;

   3577  0 000051   200005 470500                    LDP0    @G$D,,AUTO
         0 000052   000007 236100                    LDQ     7,,PR0
         0 000053   000010 116100                    CMPQ    8,,PR0
         0 000054   000045 603000 0                  TRC     s:3576

     2970     3578        /*D*
     2971     3579            o   Rebuild the free chain trailer block following the new block.
     2972     3580        */
     2973     3581
     2974     3582    2           G$D.LASTFREE$ = PINCRW(G$D.HISPACE$,-2);

   3582  0 000055   777776 036003                    ADLQ    -2,DU
         0 000056   000006 756100                    STQ     6,,PR0

     2975     3583    2           G$D.LASTFREE$->FREE$HDR.NEXT$ = ADDR(NIL);

   3583  0 000057   000006 471500                    LDP1    6,,PR0
         0 000060   000001 236000 xsym               LDQ     B_VECTNIL+1
         0 000061   100001 756100                    STQ     1,,PR1
PL6.E3A0      #003=XUP$GETSPACE File=XUP$PARSE.:E05TSI                           WED 07/30/97 09:38 Page:356

     2976     3584    2           G$D.LASTFREE$->FREE$HDR.PREV$ =

   3584  0 000062   000006 471500                    LDP1    6,,PR0
         0 000063   200007 473500                    LDP3    BLK$,,AUTO
         0 000064   300002 236100                    LDQ     2,,PR3
         0 000065   100002 756100                    STQ     2,,PR1

     2977     3585    2             BLK$->FREE$HDR.PREV$;
     2978     3586    2           G$D.LASTFREE$->FREE$HDR.NWORDS = 3;

   3586  0 000066   000006 471500                    LDP1    6,,PR0
         0 000067   000003 235007                    LDA     3,DL
         0 000070   100000 755100                    STA     0,,PR1

     2979     3587    2           BLK$->FREE$HDR.NWORDS = ICOUNT;

   3587  0 000071   200006 236100                    LDQ     ICOUNT,,AUTO
         0 000072   300000 756100                    STQ     0,,PR3

     2980     3588    2           BLK$->FREE$HDR.PREV$ ->FREE$HDR.NEXT$ =

   3588  0 000073   300002 471500                    LDP1    2,,PR3
         0 000074   000006 236100                    LDQ     6,,PR0
         0 000075   100001 756100                    STQ     1,,PR1

     2981     3589    2             G$D.LASTFREE$;
     2982     3590    2       END;

   3590  0 000076   000124 710000 0                  TRA     s:3623

     2983     3591        /*D*
     2984     3592            If a free block large enough to hold the new block is found ...
     2985     3593        */
     2986     3594    1       ELSE
     2987     3595    2       DO;

PL6.E3A0      #003=XUP$GETSPACE File=XUP$PARSE.:E05TSI                           WED 07/30/97 09:38 Page:357
     2988     3596        /*D*
     2989     3597            o   If the block found is too small to create a new free chain
     2990     3598                block after the block being allocated, reuse the whole block.
     2991     3599        */
     2992     3600    2           IF BLK$->FREE$HDR.NWORDS - ICOUNT < 3 THEN

   3600  0 000077   200007 471500                    LDP1    BLK$,,AUTO
         0 000100   100000 236100                    LDQ     0,,PR1
         0 000101   200006 136100                    SBLQ    ICOUNT,,AUTO
         0 000102   000003 116007                    CMPQ    3,DL
         0 000103   000113 605000 0                  TPL     s:3614

     2993     3601    3           DO;

     2994     3602    3               BLK$->FREE$HDR.PREV$->FREE$HDR.NEXT$ =

   3602  0 000104   100002 473500                    LDP3    2,,PR1
         0 000105   100001 236100                    LDQ     1,,PR1
         0 000106   300001 756100                    STQ     1,,PR3

     2995     3603    3                 BLK$->FREE$HDR.NEXT$;
     2996     3604    3               BLK$->FREE$HDR.NEXT$->FREE$HDR.PREV$ =

   3604  0 000107   100001 473500                    LDP3    1,,PR1
         0 000110   100002 236100                    LDQ     2,,PR1
         0 000111   300002 756100                    STQ     2,,PR3

     2997     3605    3                 BLK$->FREE$HDR.PREV$;
     2998     3606    3           END;

   3606  0 000112   000124 710000 0                  TRA     s:3623

     2999     3607        /*D*
     3000     3608            o   Otherwise, build a new free chain block at the end of the block
     3001     3609                being allocated, and reduce its size accordingly.  Links don't
     3002     3610                change in this case.
     3003     3611        */
PL6.E3A0      #003=XUP$GETSPACE File=XUP$PARSE.:E05TSI                           WED 07/30/97 09:38 Page:358
     3004     3612    2           ELSE
     3005     3613    3           DO;

     3006     3614    3               BLK$->FREE$HDR.NWORDS =

   3614  0 000113   100000 236100                    LDQ     0,,PR1
         0 000114   200006 136100                    SBLQ    ICOUNT,,AUTO
         0 000115   100000 756100                    STQ     0,,PR1

     3007     3615    3                 BLK$->FREE$HDR.NWORDS - ICOUNT ;
     3008     3616    3               BLK$ = PINCRW(BLK$,BLK$->FREE$HDR.NWORDS);

   3616  0 000116   000022 736000                    QLS     18
         0 000117   200007 036100                    ADLQ    BLK$,,AUTO
         0 000120   200007 756100                    STQ     BLK$,,AUTO

     3009     3617    3               BLK$->FREE$HDR.NWORDS = ICOUNT;

   3617  0 000121   200007 471500                    LDP1    BLK$,,AUTO
         0 000122   200006 235100                    LDA     ICOUNT,,AUTO
         0 000123   100000 755100                    STA     0,,PR1

     3010     3618    3           END;

     3011     3619    2       END;

     3012     3620        /*D*
     3013     3621            Clear the new block to zeros.
     3014     3622        */
     3015     3623    1       ICOUNT = ICOUNT - 1;

   3623  0 000124   000001 336007                    LCQ     1,DL
         0 000125   200006 056100                    ASQ     ICOUNT,,AUTO

     3016     3624    2       DO WHILE(ICOUNT > 0);

   3624  0 000126   000135 604400 0                  TMOZ    s:3632
PL6.E3A0      #003=XUP$GETSPACE File=XUP$PARSE.:E05TSI                           WED 07/30/97 09:38 Page:359

     3017     3625    2           BLK$->BLK$INIT(ICOUNT) = 0;

   3625  0 000127   200007 470500                    LDP0    BLK$,,AUTO
         0 000130   200006 720100                    LXL0    ICOUNT,,AUTO
         0 000131   000000 450110                    STZ     0,X0,PR0

     3018     3626    2           ICOUNT = ICOUNT - 1;

   3626  0 000132   000001 336007                    LCQ     1,DL
         0 000133   200006 056100                    ASQ     ICOUNT,,AUTO

     3019     3627    2       END;

   3627  0 000134   000127 605400 0                  TPNZ    s:3625

     3020     3628        /*D*
     3021     3629            Bump the block address returned to the caller past the block size
     3022     3630            word, so that this word will remain intact for use by XUP$FREESPACE.
     3023     3631        */
     3024     3632    1       OUTBLK$ = PINCRW(BLK$, 1);

   3632  0 000135   200007 236100                    LDQ     BLK$,,AUTO
         0 000136   000001 036003                    ADLQ    1,DU
         0 000137   200004 470500                    LDP0    @OUTBLK$,,AUTO
         0 000140   000000 756100                    STQ     0,,PR0

     3025     3633    1   END XUP$GETSPACE;

   3633  0 000141   000000 702200 xent               TSX2  ! X66_ARET
     3026     3634        %EOD;

PL6.E3A0      #003=XUP$GETSPACE File=XUP$PARSE.:E05TSI                           WED 07/30/97 09:38 Page:360
--  Include file information  --

   XU_SUBS_C.:E05TOU  is referenced.
   XU_MACRO_C.:E05TOU  is referenced.
      No diagnostics issued in procedure XUP$GETSPACE.
PL6.E3A0      #003=XUP$GETSPACE File=XUP$PARSE.:E05TSI                           WED 07/30/97 09:38 Page:361

 **** Variables and constants ****

  ****  Auto variables  ****

  ****  Scalars and arrays  ****
OctLoc.c.b A Datatyp(siz) R M Lvl/name                 OctLoc.c.b A Datatyp(siz) R M Lvl/name

     3-0-0/w PTR         r     1 @COUNT                     5-0-0/w PTR         r     1 @G$D
     4-0-0/w PTR         r     1 @OUTBLK$                   7-0-0/w PTR         r     1 BLK$
    *0-0-0/w SBIN        r     1 COUNT                     *0-0-0/d STRC(5175)  r     1 G$D
     6-0-0/w SBIN        r     1 ICOUNT                    *0-0-0/w PTR         r     1 OUTBLK$

  ****  BASED and DCB variables  ****

  ****  Scalars and arrays  ****
OctLoc.c.b A Datatyp(siz) R M Lvl/name                 OctLoc.c.b A Datatyp(siz) R M Lvl/name

     0-0-0/w UBIN        r     1 BLK$INIT(0:0)
     0-0-0/w STRC(108)   r     1 FREE$HDR


   Procedure XUP$GETSPACE requires 98 words for executable code.
   Procedure XUP$GETSPACE requires 8 words of local(AUTO) storage.
PL6.E3A0      #003=XUP$GETSPACE File=XUP$PARSE.:E05TSI                           WED 07/30/97 09:38 Page:362
          *** CROSS REFERENCE LISTING ***
**     DENOTES     IDENTIFIER DEFINITION
<<                 IDENTIFIER'S VALUE SET
>>                 IDENTIFIER'S VALUE USED
<>                 IDENTIFIER SET AND/OR USED
--                 IDENTIFIER REFERENCED
PL6.E3A0      #003=XUP$GETSPACE File=XUP$PARSE.:E05TSI                           WED 07/30/97 09:38 Page:363
          MINI XREF LISTING

BLK$
      3329**DCL      3557<<ASSIGN   3558>>DOWHILE  3558>>DOWHILE  3560<<ASSIGN   3560>>ASSIGN   3565>>IF
      3584>>ASSIGN   3587>>ASSIGN   3588>>ASSIGN   3600>>IF       3602>>ASSIGN   3602>>ASSIGN   3604>>ASSIGN
      3604>>ASSIGN   3614>>ASSIGN   3614>>ASSIGN   3616<<ASSIGN   3616>>ASSIGN   3616>>ASSIGN   3617>>ASSIGN
      3625>>ASSIGN   3632>>ASSIGN
BLK$INIT
      3330**DCL      3625<<ASSIGN
COUNT
      3227**DCL         6--PROC     3552--ENTRY    3553>>ASSIGN
FREE$HDR.NEXT$
      3341**DCL      3557>>ASSIGN   3560>>ASSIGN   3583<<ASSIGN   3588<<ASSIGN   3602<<ASSIGN   3602>>ASSIGN
      3604>>ASSIGN
FREE$HDR.NWORDS
      3340**DCL      3558>>DOWHILE  3586<<ASSIGN   3587<<ASSIGN   3600>>IF       3614<<ASSIGN   3614>>ASSIGN
      3616>>ASSIGN   3617<<ASSIGN
FREE$HDR.PREV$
      3342**DCL      3584<<ASSIGN   3584>>ASSIGN   3588>>ASSIGN   3602>>ASSIGN   3604<<ASSIGN   3604>>ASSIGN
G$D
      3238**DCL         6--PROC     3552--ENTRY    3576<>CALL
G$D.FREEANCHOR$
      3256**DCL      3557>>ASSIGN
G$D.HISPACE$
      3264**DCL      3570<<ASSIGN   3570>>ASSIGN   3575>>DOWHILE  3582>>ASSIGN
G$D.LASTFREE$
      3260**DCL      3558>>DOWHILE  3565>>IF       3582<<ASSIGN   3583>>ASSIGN   3584>>ASSIGN   3586>>ASSIGN
      3588>>ASSIGN
G$D.LDCMNT.TX
      3308**DCL      3309--REDEF
G$D.SCRATCH
      3275**DCL      3278--REDEF
G$D.STACKTOP$
      3267**DCL      3575>>DOWHILE
PL6.E3A0      #003=XUP$GETSPACE File=XUP$PARSE.:E05TSI                           WED 07/30/97 09:38 Page:364
G$D.TRCMNT.TX
      3316**DCL      3317--REDEF
ICOUNT
      3328**DCL      3553<<ASSIGN   3558>>DOWHILE  3570>>ASSIGN   3587>>ASSIGN   3600>>IF       3614>>ASSIGN
      3617>>ASSIGN   3623<<ASSIGN   3623>>ASSIGN   3624>>DOWHILE  3625>>ASSIGN   3626<<ASSIGN   3626>>ASSIGN
OUTBLK$
      3228**DCL         6--PROC     3552--ENTRY    3632<<ASSIGN
XUP$EXPAND_WORKAREA
      3334**DCL-ENT  3576--CALL

PL6.E3A0      #004=XUP$FREESPACE File=XUP$PARSE.:E05TSI                          WED 07/30/97 09:38 Page:365
     3027        1        /*T***********************************************************/
     3028        2        /*T*                                                         */
     3029        3        /*T* Copyright (c) Bull HN Information Systems Inc., 1997    */
     3030        4        /*T*                                                         */
     3031        5        /*T***********************************************************/
     3032        6        XUP$FREESPACE:
     3033        7            PROC(INBLK$,G$D);
     3034        8
     3035        9        /*X* DMC,PLM=4,IND=4,CTI=2,DTI=0,ENI=0,ECI=0,CSI=0,MCI,DCI=4 */
     3036       10        /*D*
     3037       11            NAME: XUP$FREESPACE
     3038       12            CALL:
     3039       13                CALL XUP$FREESPACE (INBLK$, G$D);
     3040       14            PARAMETERS:
     3041       15                INBLK$ -- address of block to be freed
     3042       16                G$D -- the parser global data structure
     3043       17            OUTPUT:
     3044       18                Space occupied by the block has been put on the parse work
     3045       19                area's free space chain.
     3046       20            DESCRIPTION:
     3047       21                This routine frees a block in the parse work area by adding
     3048       22                it to the free space chain.
     3049       23        */
     3050       24        %INCLUDE      XU_MACRO_C;
     3051     3130        %INCLUDE      XU_SUBS_C;
     3052     3222        /*
     3053     3223            ***       PARAMETERS
     3054     3224        */
     3055     3225    1   DCL       INBLK$   PTR;
     3056     3226            %G$D;
     3057     3322        /*
     3058     3323            ***       LOCAL VARIABLES
     3059     3324        */
     3060     3325    1   DCL       BLK$     PTR;
     3061     3326    1   DCL       P$       PTR;
     3062     3327             %XUP$CHAIN;
     3063     3333            %P$PCB(STCLASS=BASED);
PL6.E3A0      #004=XUP$FREESPACE File=XUP$PARSE.:E05TSI                          WED 07/30/97 09:38 Page:366
     3064     3534        %EJECT;
PL6.E3A0      #004=XUP$FREESPACE File=XUP$PARSE.:E05TSI                          WED 07/30/97 09:38 Page:367
     3065     3535        /*
     3066     3536            ***       BEGIN PROCEDURE
     3067     3537        */
     3068     3538        /*D*
     3069     3539            Every block is preceded with a word containing its size, so start
     3070     3540            by backing up the block pointer to that word (which makes it the
     3071     3541            base address for a free chain header structure).
     3072     3542        */
     3073     3543    1       INBLK$ = PINCRW (INBLK$, -1);
     3074     3544    1       BLK$ = INBLK$;
     3075     3545        /*D*
     3076     3546            Scan the free space chain to find the last free block that physically
     3077     3547            precedes the one being freed.
     3078     3548        */
     3079     3549    1       P$ = G$D.FREEANCHOR$->FREE$HDR.NEXT$;
     3080     3550    2       DO WHILE (P$ < BLK$ AND P$ ~= G$D.LASTFREE$);
     3081     3551    2           P$ = P$->FREE$HDR.NEXT$;
     3082     3552    2       END;
     3083     3553        /*D*
     3084     3554            Link this block into the free chain at that point.
     3085     3555        */
     3086     3556    1       BLK$->FREE$HDR.NEXT$ = P$;
     3087     3557    1       BLK$->FREE$HDR.PREV$ = P$->FREE$HDR.PREV$;
     3088     3558        /*D*
     3089     3559            If this block is contiguous with the next free block, merge that
     3090     3560            block into this one.
     3091     3561        */
     3092     3562    1       IF P$ ~= G$D.LASTFREE$ THEN
     3093     3563    2       DO;
     3094     3564    2           IF PINCRW(BLK$,BLK$->FREE$HDR.NWORDS) = P$ THEN
     3095     3565    3           DO;
     3096     3566    3               BLK$->FREE$HDR.PREV$ = P$->FREE$HDR.PREV$;
     3097     3567    3               BLK$->FREE$HDR.NEXT$ = P$->FREE$HDR.NEXT$;
     3098     3568    3               BLK$->FREE$HDR.NWORDS = BLK$->FREE$HDR.NWORDS
     3099     3569    3                 + P$->FREE$HDR.NWORDS;
     3100     3570    3           END;
     3101     3571    2       END;
PL6.E3A0      #004=XUP$FREESPACE File=XUP$PARSE.:E05TSI                          WED 07/30/97 09:38 Page:368
     3102     3572        /*D*
     3103     3573            If this block is contiguous with the prior free block, merge this
     3104     3574            block into that one.
     3105     3575        */
     3106     3576    1       IF BLK$->FREE$HDR.PREV$ ~= G$D.FREEANCHOR$ THEN
     3107     3577    2       DO;
     3108     3578    2           IF PINCRW(P$->FREE$HDR.PREV$,P$->FREE$HDR.PREV$->
     3109     3579    2             FREE$HDR.NWORDS) = BLK$ THEN
     3110     3580    3           DO;
     3111     3581    3               P$ = P$->FREE$HDR.PREV$;
     3112     3582    3               P$->FREE$HDR.NWORDS = P$->FREE$HDR.NWORDS
     3113     3583    3                 +BLK$->FREE$HDR.NWORDS;
     3114     3584    3               P$->FREE$HDR.NEXT$ = BLK$->FREE$HDR.NEXT$;
     3115     3585    3               BLK$ = P$;
     3116     3586    3           END;
     3117     3587    2       END;
     3118     3588        /*D*
     3119     3589            Reset pointers to next and prior free blocks to reflect any merging we did.
     3120     3590        */
     3121     3591    1       BLK$->FREE$HDR.PREV$->FREE$HDR.NEXT$ = BLK$;
     3122     3592    1       BLK$->FREE$HDR.NEXT$->FREE$HDR.PREV$ = BLK$;
     3123     3593    1   END XUP$FREESPACE;
     3124     3594        %EOD;

PL6.E3A0      #004=XUP$FREESPACE File=XUP$PARSE.:E05TSI                          WED 07/30/97 09:38 Page:369
--  Include file information  --

   XU_SUBS_C.:E05TOU  is referenced.
   XU_MACRO_C.:E05TOU  is referenced.
      No diagnostics issued in procedure XUP$FREESPACE.

   Procedure XUP$FREESPACE requires 68 words for executable code.
   Procedure XUP$FREESPACE requires 10 words of local(AUTO) storage.

PL6.E3A0      #004=XUP$FREESPACE File=XUP$PARSE.:E05TSI                          WED 07/30/97 09:38 Page:370

 Object Unit name= XUP$FREESPACE                              File name= XUP$PARSE.:E05TOU
 UTS= JUL 30 '97 09:38:47.84 WED                              Compiler= PL-6/E31         Sev=      00
 SharedLib= :SHARED_SYSTEM                                    Alt SharedLib=


    ****  Control sections  ****

 Sect   Type Bound  Init  Size OctSiz  Section name(segment info)
    0   Proc  even  none    68    104  XUP$FREESPACE

    ****  Entry defs  ****

                              Check   Calling
                             calling  sequence
  Sect OctLoc Primary Altret sequence   type   Parms  Name
     0      0   yes            yes      Std        2  XUP$FREESPACE

  ****  Entry refs  ****

         Check        Calling
        calling       sequence
Altret sequence SRef   type   Args  Name
                       nStd      0 X66_AUTO_2
                       nStd      0 X66_ARET
PL6.E3A0      #004=XUP$FREESPACE File=XUP$PARSE.:E05TSI                          WED 07/30/97 09:38 Page:371


     3027        1        /*T***********************************************************/
     3028        2        /*T*                                                         */
     3029        3        /*T* Copyright (c) Bull HN Information Systems Inc., 1997    */
     3030        4        /*T*                                                         */
     3031        5        /*T***********************************************************/
     3032        6        XUP$FREESPACE:
     3033        7            PROC(INBLK$,G$D);

      7  0 000000   000000 700200 xent  XUP$FREESPA* TSX0  ! X66_AUTO_2
         0 000001   000012 000002                    ZERO    10,2

     3034        8
     3035        9        /*X* DMC,PLM=4,IND=4,CTI=2,DTI=0,ENI=0,ECI=0,CSI=0,MCI,DCI=4 */
     3036       10        /*D*
     3037       11            NAME: XUP$FREESPACE
     3038       12            CALL:
     3039       13                CALL XUP$FREESPACE (INBLK$, G$D);
     3040       14            PARAMETERS:
     3041       15                INBLK$ -- address of block to be freed
     3042       16                G$D -- the parser global data structure
     3043       17            OUTPUT:
     3044       18                Space occupied by the block has been put on the parse work
     3045       19                area's free space chain.
     3046       20            DESCRIPTION:
     3047       21                This routine frees a block in the parse work area by adding
     3048       22                it to the free space chain.
     3049       23        */
     3050       24        %INCLUDE      XU_MACRO_C;
     3051     3130        %INCLUDE      XU_SUBS_C;
     3052     3222        /*
     3053     3223            ***       PARAMETERS
     3054     3224        */
     3055     3225    1   DCL       INBLK$   PTR;
     3056     3226            %G$D;
     3057     3322        /*
     3058     3323            ***       LOCAL VARIABLES
PL6.E3A0      #004=XUP$FREESPACE File=XUP$PARSE.:E05TSI                          WED 07/30/97 09:38 Page:372
     3059     3324        */
     3060     3325    1   DCL       BLK$     PTR;
     3061     3326    1   DCL       P$       PTR;
     3062     3327             %XUP$CHAIN;
     3063     3333            %P$PCB(STCLASS=BASED);
     3064     3534        %EJECT;
PL6.E3A0      #004=XUP$FREESPACE File=XUP$PARSE.:E05TSI                          WED 07/30/97 09:38 Page:373
     3065     3535        /*
     3066     3536            ***       BEGIN PROCEDURE
     3067     3537        */
     3068     3538        /*D*
     3069     3539            Every block is preceded with a word containing its size, so start
     3070     3540            by backing up the block pointer to that word (which makes it the
     3071     3541            base address for a free chain header structure).
     3072     3542        */
     3073     3543    1       INBLK$ = PINCRW (INBLK$, -1);

   3543  0 000002   200003 470500                    LDP0    @INBLK$,,AUTO
         0 000003   000000 236100                    LDQ     0,,PR0
         0 000004   777777 036003                    ADLQ    -1,DU
         0 000005   000000 756100                    STQ     0,,PR0

     3074     3544    1       BLK$ = INBLK$;

   3544  0 000006   200005 756100                    STQ     BLK$,,AUTO

     3075     3545        /*D*
     3076     3546            Scan the free space chain to find the last free block that physically
     3077     3547            precedes the one being freed.
     3078     3548        */
     3079     3549    1       P$ = G$D.FREEANCHOR$->FREE$HDR.NEXT$;

   3549  0 000007   200004 471500                    LDP1    @G$D,,AUTO
         0 000010   100005 473500                    LDP3    5,,PR1
         0 000011   300001 236100                    LDQ     1,,PR3
         0 000012   200006 756100                    STQ     P$,,AUTO

     3080     3550    2       DO WHILE (P$ < BLK$ AND P$ ~= G$D.LASTFREE$);

   3550  0 000013   000017 710000 0                  TRA     s:3552

     3081     3551    2           P$ = P$->FREE$HDR.NEXT$;

   3551  0 000014   200006 470500                    LDP0    P$,,AUTO
PL6.E3A0      #004=XUP$FREESPACE File=XUP$PARSE.:E05TSI                          WED 07/30/97 09:38 Page:374
         0 000015   000001 236100                    LDQ     1,,PR0
         0 000016   200006 756100                    STQ     P$,,AUTO

     3082     3552    2       END;

   3552  0 000017   200005 116100                    CMPQ    BLK$,,AUTO
         0 000020   000024 603000 0                  TRC     s:3556
         0 000021   200004 470500                    LDP0    @G$D,,AUTO
         0 000022   000006 116100                    CMPQ    6,,PR0
         0 000023   000014 601000 0                  TNZ     s:3551

     3083     3553        /*D*
     3084     3554            Link this block into the free chain at that point.
     3085     3555        */
     3086     3556    1       BLK$->FREE$HDR.NEXT$ = P$;

   3556  0 000024   200005 470500                    LDP0    BLK$,,AUTO
         0 000025   000001 756100                    STQ     1,,PR0

     3087     3557    1       BLK$->FREE$HDR.PREV$ = P$->FREE$HDR.PREV$;

   3557  0 000026   200006 471500                    LDP1    P$,,AUTO
         0 000027   100002 236100                    LDQ     2,,PR1
         0 000030   000002 756100                    STQ     2,,PR0

     3088     3558        /*D*
     3089     3559            If this block is contiguous with the next free block, merge that
     3090     3560            block into this one.
     3091     3561        */
     3092     3562    1       IF P$ ~= G$D.LASTFREE$ THEN

   3562  0 000031   200004 473500                    LDP3    @G$D,,AUTO
         0 000032   200006 236100                    LDQ     P$,,AUTO
         0 000033   300006 116100                    CMPQ    6,,PR3
         0 000034   000051 600000 0                  TZE     s:3576

     3093     3563    2       DO;
PL6.E3A0      #004=XUP$FREESPACE File=XUP$PARSE.:E05TSI                          WED 07/30/97 09:38 Page:375

     3094     3564    2           IF PINCRW(BLK$,BLK$->FREE$HDR.NWORDS) = P$ THEN

   3564  0 000035   000000 236100                    LDQ     0,,PR0
         0 000036   000022 736000                    QLS     18
         0 000037   200005 036100                    ADLQ    BLK$,,AUTO
         0 000040   200006 116100                    CMPQ    P$,,AUTO
         0 000041   000051 601000 0                  TNZ     s:3576

     3095     3565    3           DO;

     3096     3566    3               BLK$->FREE$HDR.PREV$ = P$->FREE$HDR.PREV$;

   3566  0 000042   100002 236100                    LDQ     2,,PR1
         0 000043   000002 756100                    STQ     2,,PR0

     3097     3567    3               BLK$->FREE$HDR.NEXT$ = P$->FREE$HDR.NEXT$;

   3567  0 000044   100001 236100                    LDQ     1,,PR1
         0 000045   000001 756100                    STQ     1,,PR0

     3098     3568    3               BLK$->FREE$HDR.NWORDS = BLK$->FREE$HDR.NWORDS

   3568  0 000046   000000 236100                    LDQ     0,,PR0
         0 000047   100000 036100                    ADLQ    0,,PR1
         0 000050   000000 756100                    STQ     0,,PR0

     3099     3569    3                 + P$->FREE$HDR.NWORDS;
     3100     3570    3           END;

     3101     3571    2       END;

     3102     3572        /*D*
     3103     3573            If this block is contiguous with the prior free block, merge this
     3104     3574            block into that one.
     3105     3575        */
     3106     3576    1       IF BLK$->FREE$HDR.PREV$ ~= G$D.FREEANCHOR$ THEN
PL6.E3A0      #004=XUP$FREESPACE File=XUP$PARSE.:E05TSI                          WED 07/30/97 09:38 Page:376

   3576  0 000051   000002 236100                    LDQ     2,,PR0
         0 000052   300005 116100                    CMPQ    5,,PR3
         0 000053   000075 600000 0                  TZE     s:3591

     3107     3577    2       DO;

     3108     3578    2           IF PINCRW(P$->FREE$HDR.PREV$,P$->FREE$HDR.PREV$->

   3578  0 000054   100002 474500                    LDP4    2,,PR1
         0 000055   400000 236100                    LDQ     0,,PR4
         0 000056   400000 635506                    EPPR5   0,QL,PR4
         0 000057   200010 455500                    STP5    P$+2,,AUTO
         0 000060   200010 236100                    LDQ     P$+2,,AUTO
         0 000061   200005 116100                    CMPQ    BLK$,,AUTO
         0 000062   000075 601000 0                  TNZ     s:3591

     3109     3579    2             FREE$HDR.NWORDS) = BLK$ THEN
     3110     3580    3           DO;

     3111     3581    3               P$ = P$->FREE$HDR.PREV$;

   3581  0 000063   100002 236100                    LDQ     2,,PR1
         0 000064   200006 756100                    STQ     P$,,AUTO

     3112     3582    3               P$->FREE$HDR.NWORDS = P$->FREE$HDR.NWORDS

   3582  0 000065   200006 471500                    LDP1    P$,,AUTO
         0 000066   100000 236100                    LDQ     0,,PR1
         0 000067   000000 036100                    ADLQ    0,,PR0
         0 000070   100000 756100                    STQ     0,,PR1

     3113     3583    3                 +BLK$->FREE$HDR.NWORDS;
     3114     3584    3               P$->FREE$HDR.NEXT$ = BLK$->FREE$HDR.NEXT$;

   3584  0 000071   000001 236100                    LDQ     1,,PR0
         0 000072   100001 756100                    STQ     1,,PR1
PL6.E3A0      #004=XUP$FREESPACE File=XUP$PARSE.:E05TSI                          WED 07/30/97 09:38 Page:377

     3115     3585    3               BLK$ = P$;

   3585  0 000073   200006 236100                    LDQ     P$,,AUTO
         0 000074   200005 756100                    STQ     BLK$,,AUTO

     3116     3586    3           END;

     3117     3587    2       END;

     3118     3588        /*D*
     3119     3589            Reset pointers to next and prior free blocks to reflect any merging we did.
     3120     3590        */
     3121     3591    1       BLK$->FREE$HDR.PREV$->FREE$HDR.NEXT$ = BLK$;

   3591  0 000075   200005 470500                    LDP0    BLK$,,AUTO
         0 000076   000002 474500                    LDP4    2,,PR0
         0 000077   200005 236100                    LDQ     BLK$,,AUTO
         0 000100   400001 756100                    STQ     1,,PR4

     3122     3592    1       BLK$->FREE$HDR.NEXT$->FREE$HDR.PREV$ = BLK$;

   3592  0 000101   000001 474500                    LDP4    1,,PR0
         0 000102   400002 756100                    STQ     2,,PR4

     3123     3593    1   END XUP$FREESPACE;

   3593  0 000103   000000 702200 xent               TSX2  ! X66_ARET
     3124     3594        %EOD;

PL6.E3A0      #004=XUP$FREESPACE File=XUP$PARSE.:E05TSI                          WED 07/30/97 09:38 Page:378
--  Include file information  --

   XU_SUBS_C.:E05TOU  is referenced.
   XU_MACRO_C.:E05TOU  is referenced.
      No diagnostics issued in procedure XUP$FREESPACE.
PL6.E3A0      #004=XUP$FREESPACE File=XUP$PARSE.:E05TSI                          WED 07/30/97 09:38 Page:379

 **** Variables and constants ****

  ****  Auto variables  ****

  ****  Scalars and arrays  ****
OctLoc.c.b A Datatyp(siz) R M Lvl/name                 OctLoc.c.b A Datatyp(siz) R M Lvl/name

     4-0-0/w PTR         r     1 @G$D                       3-0-0/w PTR         r     1 @INBLK$
     5-0-0/w PTR         r     1 BLK$                      *0-0-0/d STRC(5175)  r     1 G$D
    *0-0-0/w PTR         r     1 INBLK$                     6-0-0/w PTR         r     1 P$

  ****  BASED and DCB variables  ****

  ****  Scalars and arrays  ****
OctLoc.c.b A Datatyp(siz) R M Lvl/name                 OctLoc.c.b A Datatyp(siz) R M Lvl/name

     0-0-0/w STRC(108)   r     1 FREE$HDR


   Procedure XUP$FREESPACE requires 68 words for executable code.
   Procedure XUP$FREESPACE requires 10 words of local(AUTO) storage.
PL6.E3A0      #004=XUP$FREESPACE File=XUP$PARSE.:E05TSI                          WED 07/30/97 09:38 Page:380
          *** CROSS REFERENCE LISTING ***
**     DENOTES     IDENTIFIER DEFINITION
<<                 IDENTIFIER'S VALUE SET
>>                 IDENTIFIER'S VALUE USED
<>                 IDENTIFIER SET AND/OR USED
--                 IDENTIFIER REFERENCED
PL6.E3A0      #004=XUP$FREESPACE File=XUP$PARSE.:E05TSI                          WED 07/30/97 09:38 Page:381
          MINI XREF LISTING

BLK$
      3325**DCL      3544<<ASSIGN   3550>>DOWHILE  3556>>ASSIGN   3557>>ASSIGN   3564>>IF       3564>>IF
      3566>>ASSIGN   3567>>ASSIGN   3568>>ASSIGN   3568>>ASSIGN   3576>>IF       3578>>IF       3582>>ASSIGN
      3584>>ASSIGN   3585<<ASSIGN   3591>>ASSIGN   3591>>ASSIGN   3592>>ASSIGN   3592>>ASSIGN
FREE$HDR.NEXT$
      3330**DCL      3549>>ASSIGN   3551>>ASSIGN   3556<<ASSIGN   3567<<ASSIGN   3567>>ASSIGN   3584<<ASSIGN
      3584>>ASSIGN   3591<<ASSIGN   3592>>ASSIGN
FREE$HDR.NWORDS
      3329**DCL      3564>>IF       3568<<ASSIGN   3568>>ASSIGN   3568>>ASSIGN   3578>>IF       3582<<ASSIGN
      3582>>ASSIGN   3582>>ASSIGN
FREE$HDR.PREV$
      3331**DCL      3557<<ASSIGN   3557>>ASSIGN   3566<<ASSIGN   3566>>ASSIGN   3576>>IF       3578>>IF
      3578>>IF       3581>>ASSIGN   3591>>ASSIGN   3592<<ASSIGN
G$D
      3235**DCL         6--PROC
G$D.FREEANCHOR$
      3253**DCL      3549>>ASSIGN   3576>>IF
G$D.LASTFREE$
      3257**DCL      3550>>DOWHILE  3562>>IF
G$D.LDCMNT.TX
      3305**DCL      3306--REDEF
G$D.SCRATCH
      3272**DCL      3275--REDEF
G$D.TRCMNT.TX
      3313**DCL      3314--REDEF
INBLK$
      3225**DCL         6--PROC     3543<<ASSIGN   3543>>ASSIGN   3544>>ASSIGN
P$
      3326**DCL      3549<<ASSIGN   3550>>DOWHILE  3550>>DOWHILE  3551<<ASSIGN   3551>>ASSIGN   3556>>ASSIGN
      3557>>ASSIGN   3562>>IF       3564>>IF       3566>>ASSIGN   3567>>ASSIGN   3568>>ASSIGN   3578>>IF
      3578>>IF       3581<<ASSIGN   3581>>ASSIGN   3582>>ASSIGN   3582>>ASSIGN   3584>>ASSIGN   3585>>ASSIGN

PL6.E3A0      #005=XUP$FREEOUT File=XUP$PARSE.:E05TSI                            WED 07/30/97 09:38 Page:382
     3125        1        /*T***********************************************************/
     3126        2        /*T*                                                         */
     3127        3        /*T* Copyright (c) Bull HN Information Systems Inc., 1997    */
     3128        4        /*T*                                                         */
     3129        5        /*T***********************************************************/
     3130        6        XUP$FREEOUT:
     3131        7            PROC (BLK$,G$D);
     3132        8
     3133        9        /*X* DMC,PLM=4,IND=4,CTI=2,DTI=0,ENI=0,ECI=0,CSI=0,MCI,DCI=4 */
     3134       10        /*D*
     3135       11            NAME: XUP$FREEOUT
     3136       12            CALL:
     3137       13                CALL XUP$FREEOUT (BLK$, G$D);
     3138       14            PARAMETERS:
     3139       15                BLK$ -- pointer to the output block to be freed
     3140       16                G$D -- the parser global data structure
     3141       17            OUTPUT:
     3142       18                The entire output block subtree rooted in the specified block
     3143       19                has been freed.
     3144       20            INTERFACE:
     3145       21                XUP$FREEOUT (recursively)
     3146       22                XUP$FREESPACE
     3147       23            DESCRIPTION:
     3148       24                If the block passed is one that could have subblocks, first free
     3149       25                all subblocks by recursive calls.  Then, free the block itself.
     3150       26        */
     3151       27        %INCLUDE      XU_MACRO_C;
     3152     3133        %INCLUDE      XU_SUBS_C;
     3153     3225        /*
     3154     3226            ***       PARAMETERS
     3155     3227        */
     3156     3228    1   DCL       BLK$     PTR;     /* ADDR OF ROOT OUT$BLK TO FREE */
     3157     3229            %G$D;
     3158     3325        /*
     3159     3326            ***       LOCAL DATA
     3160     3327        */
     3161     3328    1   DCL       I        SBIN;
PL6.E3A0      #005=XUP$FREEOUT File=XUP$PARSE.:E05TSI                            WED 07/30/97 09:38 Page:383
     3162     3329        /*
     3163     3330            ***       EXTERNAL ENTRY DEFINITIONS
     3164     3331        */
     3165     3332    1   DCL       XUP$FREESPACE ENTRY(2);
     3166     3333
     3167     3334            %PARSE$OUT (STCLASS="BASED(BLK$)");
     3168     3379        %EJECT;
PL6.E3A0      #005=XUP$FREEOUT File=XUP$PARSE.:E05TSI                            WED 07/30/97 09:38 Page:384
     3169     3380        /*
     3170     3381        ***           BEGIN PROCEDURE
     3171     3382        */
     3172     3383    2       DO CASE (OUT$BLK.NDTYPE);
     3173     3384    2       CASE(%ALTERN#,
     3174     3385    2         %RALTERN#,
     3175     3386    2         %LIST#,
     3176     3387    2         %KONCAT#);
     3177     3388    3           DO I = OUT$BLK.NSUBLKS-1 DOWNTO 0;
     3178     3389    3               CALL XUP$FREEOUT (OUT$BLK.SUBLK$(I), G$D);
     3179     3390    3           END;
     3180     3391    2       END;
     3181     3392    1       CALL XUP$FREESPACE (BLK$, G$D);
     3182     3393    1   END XUP$FREEOUT;

PL6.E3A0      #005=XUP$FREEOUT File=XUP$PARSE.:E05TSI                            WED 07/30/97 09:38 Page:385
--  Include file information  --

   XU_SUBS_C.:E05TOU  is referenced.
   XU_MACRO_C.:E05TOU  is referenced.
      No diagnostics issued in procedure XUP$FREEOUT.

   Procedure XUP$FREEOUT requires 43 words for executable code.
   Procedure XUP$FREEOUT requires 8 words of local(AUTO) storage.

    No errors detected in file XUP$PARSE.:E05TSI    .

PL6.E3A0      #005=XUP$FREEOUT File=XUP$PARSE.:E05TSI                            WED 07/30/97 09:38 Page:386

 Object Unit name= XUP$FREEOUT                                File name= XUP$PARSE.:E05TOU
 UTS= JUL 30 '97 09:38:53.00 WED                              Compiler= PL-6/E31         Sev=      00
 SharedLib= :SHARED_SYSTEM                                    Alt SharedLib=


    ****  Control sections  ****

 Sect   Type Bound  Init  Size OctSiz  Section name(segment info)
    0   Proc  even  none    43     53  XUP$FREEOUT

    ****  Entry defs  ****

                              Check   Calling
                             calling  sequence
  Sect OctLoc Primary Altret sequence   type   Parms  Name
     0      0   yes            yes      Std        2  XUP$FREEOUT

  ****  Entry refs  ****

         Check        Calling
        calling       sequence
Altret sequence SRef   type   Args  Name
         yes           Std       2 XUP$FREESPACE
                       nStd      0 X66_AUTO_2
                       Std       0 B_CONSPOOL_D
                       nStd      0 X66_ARET

  ****  Data refs  ****

  Flags:  r = read only, s = secondary
Flgs Name                             Flgs Name                             Flgs Name
     B_VECTNIL
PL6.E3A0      #005=XUP$FREEOUT File=XUP$PARSE.:E05TSI                            WED 07/30/97 09:38 Page:387


     3125        1        /*T***********************************************************/
     3126        2        /*T*                                                         */
     3127        3        /*T* Copyright (c) Bull HN Information Systems Inc., 1997    */
     3128        4        /*T*                                                         */
     3129        5        /*T***********************************************************/
     3130        6        XUP$FREEOUT:
     3131        7            PROC (BLK$,G$D);

      7  0 000000   000000 700200 xent  XUP$FREEOUT  TSX0  ! X66_AUTO_2
         0 000001   000010 000002                    ZERO    8,2

     3132        8
     3133        9        /*X* DMC,PLM=4,IND=4,CTI=2,DTI=0,ENI=0,ECI=0,CSI=0,MCI,DCI=4 */
     3134       10        /*D*
     3135       11            NAME: XUP$FREEOUT
     3136       12            CALL:
     3137       13                CALL XUP$FREEOUT (BLK$, G$D);
     3138       14            PARAMETERS:
     3139       15                BLK$ -- pointer to the output block to be freed
     3140       16                G$D -- the parser global data structure
     3141       17            OUTPUT:
     3142       18                The entire output block subtree rooted in the specified block
     3143       19                has been freed.
     3144       20            INTERFACE:
     3145       21                XUP$FREEOUT (recursively)
     3146       22                XUP$FREESPACE
     3147       23            DESCRIPTION:
     3148       24                If the block passed is one that could have subblocks, first free
     3149       25                all subblocks by recursive calls.  Then, free the block itself.
     3150       26        */
     3151       27        %INCLUDE      XU_MACRO_C;
     3152     3133        %INCLUDE      XU_SUBS_C;
     3153     3225        /*
     3154     3226            ***       PARAMETERS
     3155     3227        */
     3156     3228    1   DCL       BLK$     PTR;     /* ADDR OF ROOT OUT$BLK TO FREE */
PL6.E3A0      #005=XUP$FREEOUT File=XUP$PARSE.:E05TSI                            WED 07/30/97 09:38 Page:388
     3157     3229            %G$D;
     3158     3325        /*
     3159     3326            ***       LOCAL DATA
     3160     3327        */
     3161     3328    1   DCL       I        SBIN;
     3162     3329        /*
     3163     3330            ***       EXTERNAL ENTRY DEFINITIONS
     3164     3331        */
     3165     3332    1   DCL       XUP$FREESPACE ENTRY(2);
     3166     3333
     3167     3334            %PARSE$OUT (STCLASS="BASED(BLK$)");
     3168     3379        %EJECT;
PL6.E3A0      #005=XUP$FREEOUT File=XUP$PARSE.:E05TSI                            WED 07/30/97 09:38 Page:389
     3169     3380        /*
     3170     3381        ***           BEGIN PROCEDURE
     3171     3382        */
     3172     3383    2       DO CASE (OUT$BLK.NDTYPE);

   3383  0 000002   200003 470500                    LDP0    @BLK$,,AUTO
         0 000003   000000 471500                    LDP1    0,,PR0
         0 000004   100000 220100                    LDX0    0,,PR1
         0 000005   000077 360003                    ANX0    63,DU
         0 000006   000011 100003                    CMPX0   9,DU
         0 000007   000011 602010 0                  TNC     s:3383+7,X0
         0 000010   000046 710000 0                  TRA     s:3392
         0 000011   000046 710000 0                  TRA     s:3392
         0 000012   000022 710000 0                  TRA     s:3388
         0 000013   000022 710000 0                  TRA     s:3388
         0 000014   000022 710000 0                  TRA     s:3388
         0 000015   000046 710000 0                  TRA     s:3392
         0 000016   000046 710000 0                  TRA     s:3392
         0 000017   000046 710000 0                  TRA     s:3392
         0 000020   000046 710000 0                  TRA     s:3392
         0 000021   000022 710000 0                  TRA     s:3388

     3173     3384    2       CASE(%ALTERN#,

     3174     3385    2         %RALTERN#,
     3175     3386    2         %LIST#,
     3176     3387    2         %KONCAT#);
     3177     3388    3           DO I = OUT$BLK.NSUBLKS-1 DOWNTO 0;

   3388  0 000022   100001 236100                    LDQ     1,,PR1
         0 000023   000022 772000                    QRL     18
         0 000024   000001 136007                    SBLQ    1,DL
         0 000025   200005 756100                    STQ     I,,AUTO
         0 000026   000044 710000 0                  TRA     s:3390+2

     3178     3389    3               CALL XUP$FREEOUT (OUT$BLK.SUBLK$(I), G$D);

PL6.E3A0      #005=XUP$FREEOUT File=XUP$PARSE.:E05TSI                            WED 07/30/97 09:38 Page:390
   3389  0 000027   200003 470500                    LDP0    @BLK$,,AUTO
         0 000030   000000 471500                    LDP1    0,,PR0
         0 000031   200004 236100                    LDQ     @G$D,,AUTO
         0 000032   200007 756100                    STQ     I+2,,AUTO
         0 000033   200005 720100                    LXL0    I,,AUTO
         0 000034   100003 633510                    EPPR3   3,X0,PR1
         0 000035   200006 453500                    STP3    I+1,,AUTO
         0 000036   200006 630500                    EPPR0   I+1,,AUTO
         0 000037   000020 631400 xsym               EPPR1   B_VECTNIL+16
         0 000040   000000 701000 0                  TSX1    s:7
         0 000041   000000 011000                    NOP     0

     3179     3390    3           END;

   3390  0 000042   000001 336007                    LCQ     1,DL
         0 000043   200005 056100                    ASQ     I,,AUTO
         0 000044   200005 235100                    LDA     I,,AUTO
         0 000045   000027 605000 0                  TPL     s:3389

     3180     3391    2       END;

     3181     3392    1       CALL XUP$FREESPACE (BLK$, G$D);

   3392  0 000046   200003 630500                    EPPR0   @BLK$,,AUTO
         0 000047   000020 631400 xsym               EPPR1   B_VECTNIL+16
         0 000050   000000 701000 xent               TSX1    XUP$FREESPACE
         0 000051   000000 011000                    NOP     0

     3182     3393    1   END XUP$FREEOUT;

   3393  0 000052   000000 702200 xent               TSX2  ! X66_ARET

PL6.E3A0      #005=XUP$FREEOUT File=XUP$PARSE.:E05TSI                            WED 07/30/97 09:38 Page:391
--  Include file information  --

   XU_SUBS_C.:E05TOU  is referenced.
   XU_MACRO_C.:E05TOU  is referenced.
      No diagnostics issued in procedure XUP$FREEOUT.
PL6.E3A0      #005=XUP$FREEOUT File=XUP$PARSE.:E05TSI                            WED 07/30/97 09:38 Page:392

 **** Variables and constants ****

  ****  Auto variables  ****

  ****  Scalars and arrays  ****
OctLoc.c.b A Datatyp(siz) R M Lvl/name                 OctLoc.c.b A Datatyp(siz) R M Lvl/name

     3-0-0/w PTR         r     1 @BLK$                      4-0-0/w PTR         r     1 @G$D
    *0-0-0/w PTR         r     1 BLK$                      *0-0-0/d STRC(5175)  r     1 G$D
     5-0-0/w SBIN        r     1 I

  ****  BASED and DCB variables  ****

  ****  Scalars and arrays  ****
OctLoc.c.b A Datatyp(siz) R M Lvl/name                 OctLoc.c.b A Datatyp(siz) R M Lvl/name

     0-0-0/w STRC(144)   r     1 OUT$BLK


   Procedure XUP$FREEOUT requires 43 words for executable code.
   Procedure XUP$FREEOUT requires 8 words of local(AUTO) storage.

    No errors detected in file XUP$PARSE.:E05TSI    .
PL6.E3A0      #005=XUP$FREEOUT File=XUP$PARSE.:E05TSI                            WED 07/30/97 09:38 Page:393
          *** CROSS REFERENCE LISTING ***
**     DENOTES     IDENTIFIER DEFINITION
<<                 IDENTIFIER'S VALUE SET
>>                 IDENTIFIER'S VALUE USED
<>                 IDENTIFIER SET AND/OR USED
--                 IDENTIFIER REFERENCED
PL6.E3A0      #005=XUP$FREEOUT File=XUP$PARSE.:E05TSI                            WED 07/30/97 09:38 Page:394
          MINI XREF LISTING

BLK$
      3228**DCL         6--PROC     3340--IMP-PTR  3383>>DOCASE   3388>>DOINDEX  3389>>CALL     3392<>CALL
G$D
      3238**DCL         6--PROC     3389<>CALL     3392<>CALL
G$D.LDCMNT.TX
      3308**DCL      3309--REDEF
G$D.SCRATCH
      3275**DCL      3278--REDEF
G$D.TRCMNT.TX
      3316**DCL      3317--REDEF
I
      3328**DCL      3388<<DOINDEX  3389>>CALL
OUT$BLK.NDTYPE
      3343**DCL      3383>>DOCASE
OUT$BLK.NSUBLKS
      3352**DCL      3388>>DOINDEX
OUT$BLK.SUBLK$
      3373**DCL      3389<>CALL
XUP$FREEOUT
         6**PROC     3389--CALL
XUP$FREESPACE
      3332**DCL-ENT  3392--CALL
