VERSION E05

PL6.E3A0      #001=XUP$PARSE File=XUP$PARSE.:E05TSI                              WED 07/30/97 09:37 Page:1
        1        1        /*M*          XUP$PARSE    GENERAL PURPOSE PARSING ROUTINE                    */
        2        2        /*T***********************************************************/
        3        3        /*T*                                                         */
        4        4        /*T* Copyright (c) Bull HN Information Systems Inc., 1997    */
        5        5        /*T*                                                         */
        6        6        /*T***********************************************************/
        7        7
        8        8        /*X* DMC,PLM=4,IND=4,CTI=2,DTI=0,ENI=0,ECI=0,CSI=0,MCI,DCI=4 */
        9        9        /*P*          NAME:    XUP$PARSE
       10       10        *
       11       11                      PURPOSE:    This file contains eight external procedures
       12       12                                  which, acting together, will perform a top-down
       13       13                                  recursive parse of an arbitrary input text line
       14       14                                  based on a user-input syntax tree.  The output
       15       15                                  is generated in a user-supplied work area.
       16       16                      DESCRIPTION:   The parser attempts to match character strings
       17       17                                  in the input text line with elements of the syntax
       18       18                                  graph which was provided by the caller.  The
       19       19                                  process continues until a match is made or no
       20       20                                  match is possible with the syntax graph.  The
       21       21                                  former case represents a successful parse, with
       22       22                                  meaningful output; the latter case is, by definition,
       23       23                                  a syntax error which will cause the parser to
       24       24                                  take the ALTRETURN exit from the routine.  Other
       25       25                                  ALTRETURNs include detection of null input text,
       26       26                                  null syntax graph, and insufficient size of the
       27       27                                  work area provided by the caller.
       28       28        */
       29       29        %EJECT;
PL6.E3A0      #001=XUP$PARSE File=XUP$PARSE.:E05TSI                              WED 07/30/97 09:37 Page:2
       30       30        /*F*
       31       31            NAME: X$PARSE
       32       32            PURPOSE:
       33       33                To parse a command and return a tree of output blocks that
       34       34                represent its structure.
       35       35            DESCRIPTION:
       36       36                The X$PARSE routine is the external entry point to the parser.
       37       37                It sets up internal working storage, skips past any leading
       38       38                leading blanks and comments from the command to be parsed, and
       39       39                calls XUP$PARS, which is invoked recursively to perform the
       40       40                actual parse.  On return, X$PARSE sets up final information
       41       41                to be returned to the caller and exits.
       42       42
       43       43
       44       44                PARSER DATA STRUCTURES
       45       45
       46       46                The following data structures are used by the parser:
       47       47
       48       48                Global Data (G$D) -- contains all internal data items that are
       49       49                    passed across levels as nodes are parsed.  This structure
       50       50                    is alocated in the AUTO frame for X$PARSE, and is passed
       51       51                    as a parameter to all XUP$PARS calls.
       52       52
       53       53                Parse Control Block (PCB) -- contains data items passed to the
       54       54                    parser by the calling routine, or that are to be returned
       55       55                    to the caller.  This structure is provided by the caller,
       56       56                    passed as a parameter to X$PARSE, and passed to XUP$PARS
       57       57                    via G$D.PCB$ in the global data block.
       58       58
       59       59                Parse Nodes -- generated by PARTRGE from parse node source
       60       60                    definitions which specify the legal syntax for the command
       61       61                    being parsed.  The node for the root of the parse tree is
       62       62                    passed to X$PARSE by the caller in the PCB.  The address
       63       63                    of the node to be parsed by each invocation of XUP$PARS
       64       64                    is in G$D on entry to that routine.
       65       65
       66       66                Local Data -- values that pertain to a given invocation of
PL6.E3A0      #001=XUP$PARSE File=XUP$PARSE.:E05TSI                              WED 07/30/97 09:37 Page:3
       67       67                    XUP$PARS are kept in the AUTO stack for that invocation.
       68       68                    Since values in the blocks defined above are passed from
       69       69                    level to level, and can be changed at each level, a local
       70       70                    copy of any data that must be remembered at a given level
       71       71                    must be kept (e.g., G$D.NODE$ points to the node to parse
       72       72                    on entry, but may be changed for recursive calls to parse
       73       73                    subnodes, so the pointer for the node being parsed is kept
       74       74                    in a local copy, and that copy is always used to access
       75       75                    the node.)
       76       76
       77       77                Parse Work Area -- is a block of contiguous memory provided by
       78       78                    the caller which is used to hold output blocks, the parse
       79       79                    stack, and other dynamically allocated data.  The staring
       80       80                    address of the work area, and its size, are passed to the
       81       81                    parser in the PCB.
       82       82
       83       83
       84       84                PARSE WORK AREA LAYOUT
       85       85
       86       86                The parser builds several different dynamically allocated
       87       87                structures, so some clever memory management is needed to
       88       88                pack them all into a single block of memory.  There are two
       89       89                major parts to the work area, one growing up from the start
       90       90                of the work area, the other growing down from the top.  If
       91       91                the two collide, the work area is too small to complete the
       92       92                parse.  The caller can provide an exit routine to expand the
       93       93                work area if this happens.  If no such routine is available,
       94       94                the parse aborts if the work area fills up.
       95       95
       96       96                Output blocks are built starting at the beginning of the work
       97       97                area, and expanding up as necessary.  Since blocks created by
       98       98                attempts to parse a node that ultimately fails are released,
       99       99                this part of the work area is maintained using a free space
      100      100                chain, so that the space occupied by blocks that are released
      101      101                can be reused.  Other temporary structures, such as reducing
      102      102                alternative list flag blocks, are also kept in this part of
      103      103                the work area.
PL6.E3A0      #001=XUP$PARSE File=XUP$PARSE.:E05TSI                              WED 07/30/97 09:37 Page:4
      104      104
      105      105                The parse stack is built starting at the end of the work area.
      106      106                It grows down as output block pointers are added to the stack,
      107      107                and back up as they are popped off the stack.
      108      108
      109      109                Pointers that delimit the parts of the work area are kept in
      110      110                the G$D block.  The work area layout is shown schematically
      111      111                as follows:
      112      112
      113      113                +--------------------+ <-- G$D.FREEANCHOR$ = PCB.WORK$
      114      114                | free chain header  |
      115      115                |--------------------|
      116      116                |                    |
      117      117                |       used         |
      118      118                |     workspace      |
      119      119                |                    |
      120      120                |--------------------| <-- G$D.LASTFREE$
      121      121                | free chain trailer |
      122      122                |--------------------| <-- G$D.HISPACE$
      123      123                |                    |
      124      124                |       unused       |
      125      125                |     workspace      |
      126      126                |                    |
      127      127                |--------------------| <-- G$D.STACKTOP$
      128      128                |                    |
      129      129                |     parse stack    |
      130      130                |                    |
      131      131                +--------------------+ <-- PCB.WORK$ + PCB.WKSZ
      132      132
      133      133
      134      134                REPARSING FOR LEGAL POSSIBILITIES
      135      135
      136      136                The parser can also be called to display a list of valid
      137      137                next nodes at a given point in a command.  This is normally
      138      138                done just after the command has failed to parse; information
      139      139                needed to do the reparse is taken from values returned in the
      140      140                PCB from the original parse.  In particular:
PL6.E3A0      #001=XUP$PARSE File=XUP$PARSE.:E05TSI                              WED 07/30/97 09:37 Page:5
      141      141
      142      142                PCB.HI_CHAR -- denotes the position in the command at which
      143      143                    legal possibilities are to be reported.
      144      144                PCB.WK_USED -- gives the offset into the work area where the
      145      145                    list of possible next nodes is to be built.  This field
      146      146                    is set to the high-water mark of G$D.HISPACE$ from the
      147      147                    original parse; since the reparse should duplicate (or be
      148      148                    a subset of) the original one, work space above this point
      149      149                    will not be used by the reparse.  The possibility list is
      150      150                    thus built in the unused workspace between the output area
      151      151                    and parse stack from the orginal parse.
      152      152
      153      153                When reparsing, XUP$PARS acts just as it did for the original
      154      154                parse up to the point of PCB.HI_CHAR, but any attempt to parse
      155      155                a node for a lexeme at that point is forced to fail, and the
      156      156                address of that node is added to the possibility list.  Thus
      157      157                a list of all possible nodes at that point is accumulated, and
      158      158                the parse always fails.  The syntax error logic in X$PARSE
      159      159                then calls XUP$DMPNXT to write out the list of accumulated
      160      160                possible nodes.
      161      161
      162      162            REFERENCE:
      163      163                User documentation for the parser, and descriptions of all
      164      164                externally visible data structures, can be found in the XUP
      165      165                section of Host Library Services Reference (CE71).
      166      166
      167      167                Parse nodes and PARTRGE are described in Appendix A of CE71.
      168      168        */
      169      169        /*F*
      170      170            NAME: XUP$PARS
      171      171            PURPOSE:
      172      172                To attempt to parse a node.
      173      173            DESCRIPTION:
      174      174                A command is parsed by recursive calls to this routine.  On
      175      175                each invocation, it attempts to match the command source text
      176      176                to the pattern specified by a given node.  If successful, it
      177      177                builds the output block (if any) for the node, and puts the
PL6.E3A0      #001=XUP$PARSE File=XUP$PARSE.:E05TSI                              WED 07/30/97 09:37 Page:6
      178      178                address of that block on the top of the parse stack.  If the
      179      179                attempted parse fails, it releases any output blocks that had
      180      180                been created during the attempted parse, and altreturns to
      181      181                indicate failure.
      182      182
      183      183                This routine is first called from X$PARSE to parse the root
      184      184                node for the command.  An altreturn from that call indicates
      185      185                a syntax error; no path through the nodes matches the command.
      186      186
      187      187                The root node typically defines a number of subnodes; XUP$PARS
      188      188                is called recursively to try to parse each subnode.  If those
      189      189                nodes also have subnodes, XUP$PARS is called again, and so on,
      190      190                for as many levels as there are subnodes.  An altreturn from
      191      191                an inner level call may or may not indicate a syntax error;
      192      192                if the node is optional, or one of a list of alternatives,
      193      193                the attempted parse of the calling node can continue with the
      194      194                next node or alternative.
      195      195
      196      196                Each invocation of XUP$PARS normally builds a single output
      197      197                block.  But, if the node for that call has subnodes, any
      198      198                number of output blocks can be built by lower level recursive
      199      199                calls.  If the parse at a given level succeeds, the output
      200      200                block for that level will contain pointers to the blocks for
      201      201                the next lower level.  The parse stack keeps track of blocks
      202      202                built at various levels.  When any block is created, a pointer
      203      203                to it is put on the top of the stack.  At each level, the
      204      204                current top-of-stack position is saved on entry; on exit, any
      205      205                stack entries above that point are either used in the block
      206      206                built for that call (on successful parse) or the blocks they
      207      207                point to are released (on failure).  On successful return from
      208      208                the top level call, the stack will contain the output block(s)
      209      209                for the root node.
      210      210
      211      211                (Note: Users of X$PARSE commonly call the tree it builds the
      212      212                "parse nodes" for a command.  Here, "nodes" refers to the blocks
      213      213                PARTRGE builds to define the command syntax; blocks built by
      214      214                X$PARSE are called "output blocks".)
PL6.E3A0      #001=XUP$PARSE File=XUP$PARSE.:E05TSI                              WED 07/30/97 09:37 Page:7
      215      215        */
      216      216        /*F*
      217      217            NAME: XUP$COMCHK
      218      218            PURPOSE:
      219      219                To check for leading blanks and comments.
      220      220            DESCRIPTION:
      221      221                This entry point into XUP$PARS is used by X$PARSE to take
      222      222                advantage of common subroutines for scanning past blanks and
      223      223                comments.
      224      224        */
      225      225        /*F*
      226      226            NAME: XUP$EXPAND_WORKAREA
      227      227            PURPOSE:
      228      228                To attempt to expand the work area.
      229      229            DESCRIPTION:
      230      230                This entry point into XUP$PARS is used by XUP$GETSPACE to take
      231      231                advantage of common logic for attempting to expand the parse
      232      232                work area.
      233      233        */
      234      234        /*F*
      235      235            NAME: XUP$GETSPACE
      236      236            PURPOSE:
      237      237                To allocate a block in the parse work area.
      238      238            DESCRIPTION:
      239      239                This routine is called to allocate space in the parse work
      240      240                area.  It first checks the free space chain to see if a block
      241      241                of the required size is available.  If so, the requested block
      242      242                is allocated out of the free space, otherwise it increased the
      243      243                amount of used work space and allocates the new block at the
      244      244                end.  If expanding the used space would collide with the parse
      245      245                stack, the routine tries to expand the work area by calling
      246      246                XUP$EXPAND_WORKAREA.
      247      247        */
      248      248        /*F*
      249      249            NAME: XUP$FREESPACE
      250      250            PURPOSE:
      251      251                To free a block in the parse work area.
PL6.E3A0      #001=XUP$PARSE File=XUP$PARSE.:E05TSI                              WED 07/30/97 09:37 Page:8
      252      252            DESCRIPTION:
      253      253                This routine is called to release blocks in the parse work
      254      254                area, and add them to the free space chain.  If the block
      255      255                just freed is adjacent to a block already on the free chain,
      256      256                the blocks are combined to avoid unnecessary fragmentation.
      257      257        */
      258      258        /*F*
      259      259            NAME: XUP$FREEOUT
      260      260            PURPOSE:
      261      261                To free all blocks associated with a given parse output block.
      262      262            DESCRIPTION:
      263      263                This routine calls itself recursively to free any sub-blocks
      264      264                of the output block it is given, the calls XUP$FREESPACE to
      265      265                free the block itself.
      266      266        */
      267      267        %EJECT;
PL6.E3A0      #001=XUP$PARSE File=XUP$PARSE.:E05TSI                              WED 07/30/97 09:37 Page:9
      268      268        XUP$PARSE:
      269      269            PROC(PCB)  ALTRET;
      270      270
      271      271        %INCLUDE      XU_MACRO_C;
      272     3377        %INCLUDE      XU_SUBS_C;
      273     3469        %INCLUDE      XU_PERR_C;
      274     3660        /*
      275     3661            ***       INPUT PARAMETER
      276     3662        */
      277     3663            %P$PCB(NAME=PCB,STCLASS=" ");
      278     3864
      279     3865        /*
      280     3866            ***       EXTERNAL ENTRY DEFINITION
      281     3867        */
      282     3868    1   DCL XUP$COMCHK ENTRY(1) ALTRET;
      283     3869    1   DCL XUP$DMPNXT ENTRY(1);
      284     3870    1   DCL XUP$PARS ENTRY(1) ALTRET;
      285     3871    1   DCL       XUP$GETSPACE   ENTRY(3);
      286     3872        /*
      287     3873            ***       LOCAL DATA
      288     3874        */
      289     3875    1   DCL     C$BUF    CHAR(PCB.NCHARS) BASED;
      290     3876    1   DCL       C$BUFA(0:0)    CHAR(1)     BASED;
      291     3877    1   DCL       BLK$     PTR   BASED;
      292     3878    1   DCL  WORDS(0:0)BASED ALIGNED UBIN;
      293     3879        %EJECT;
PL6.E3A0      #001=XUP$PARSE File=XUP$PARSE.:E05TSI                              WED 07/30/97 09:37 Page:10
      294     3880        %LIST;
      295     3881        /*
      296     3882            ***       DEFINE ALL DATA WHICH IS TO BE GLOBAL TO X$PARSE ROUTINES
      297     3883            ***       IN THE DRIVER (X$PARSE) ROUTINE; THIS DATA STRUCTURE WILL
      298     3884            ***       THEN BE PASSED AS A PARAMETER TO ALL ROUTINES USING THE DATA.
      299     3885        */
      300     3886            %G$D(STCLASS=AUTO);
              3887        /*F*  NAME:     G$D
              3888              FUNCTION: a data structure owned and managed by X$PARSE, used to
              3889                  retain and pass useful information throughout the lifetime
              3890                  of a parsing operation.  Tampering with this structure's
              3891                  contents by a user-supplied routine will void the warranty,
              3892                  and may expose the programmer to high-voltage screams of
              3893                  anguish from the software-support staff.
              3894        */
              3895    1   DCL 1 NAME ALIGNED STCLASS,
              3896    1         2 PCB$ PTR,
              3897        /*K* PCB$ - pointer to Parse Control Block.
              3898        */
              3899    1         2 ERROR REMEMBER,
              3900        /*K* ERROR - error return point.  Any error other than a syntax error
              3901                    that is detected during parsing unwinds to G$D.ERROR
              3902                    after setting the error code and other error return
              3903                    information in the PCB; this results in an altreturn
              3904                    from X$PARSE.
              3905        */
              3906    1         2 NODE$ PTR,
              3907        /*K* NODE$ - pointer to node to attempt to parse.  This is reset for
              3908                    each call to XUP$PARS to pass it the node it is to try to
              3909                    parse.  Within XUP$PARS, a local copy of this pointer is
              3910                    used to access the node, since this field will be reset by
              3911                    subsequent recursive calls to attempt to parse subnodes.
              3912        */
              3913    1         2 FREEANCHOR$ PTR,
              3914        /*K* FREEANCHOR$ - pointer to the first block in the free space chain
              3915                    for the parse work area.
              3916        */
PL6.E3A0      #001=XUP$PARSE File=XUP$PARSE.:E05TSI                              WED 07/30/97 09:37 Page:11
              3917    1         2 LASTFREE$ PTR,
              3918        /*K* LASTFREE$ - pointer to the last block in the free space chain
              3919                    for the parse work area.
              3920        */
              3921    1         2 HISPACE$ PTR,
              3922        /*K* HISPACE$ - pointer to the next available word in the parse work area.
              3923        */
              3924    1         2 STACKTOP$ PTR,
              3925        /*K* STACKTOP$ - pointer to the top element in the parse stack at the
              3926                    end of the parse work area.
              3927        */
              3928    1         2 REDUCE$ PTR,
              3929        /*K* REDUCE$ - root address for the current reducing alternative flag
              3930                    block list; NIL if the list is empty.
              3931        */
              3932    1         2 SCRATCH SBIN WORD,
              3933        /*K* SCRATCH - scratch word for use by X$PARSE (redefinition of CNTUPOS).
              3934        */
              3935    1         2 CNTUPOS REDEF SCRATCH SBIN WORD,
              3936        /*K* CNTUPOS - offset of the start of the command text from the current
              3937                command text pointer (PCB.TEXT$).  If continuation lines are
              3938                appended to command text for previous lines, this will always
              3939                be zero.  If continuation lines overlay the previous lines,
              3940                this will be a negative number equal to the number of characters
              3941                in prior lines that have been lost in overlaid lines.
              3942        */
              3943    1         2 CCPOS SBIN WORD,
              3944        /*K* CCPOS - the current position in the command text.
              3945        */
              3946    1         2 CLEXPOS SBIN WORD,
              3947        /*K* CLEXPOS - the current lexical position in the command text; used
              3948                to determine if part of the text to be returned by an RTEXT
              3949                node has been overlaid by a continuation line.
              3950        */
              3951    1         2 CCHAR CHAR(1) CALIGNED,
              3952        /*K* CCHAR - the character at the current position in the command text.
              3953        */
PL6.E3A0      #001=XUP$PARSE File=XUP$PARSE.:E05TSI                              WED 07/30/97 09:37 Page:12
              3954    1         2 BLSKIP BIT(1) UNAL,
              3955        /*K* BLKSIP - blank skip flag; set if some whitespace has been skipped
              3956                at the end of the last lexeme parsed.
              3957        */
              3958    1         2 *       BIT(26) UNAL,
              3959    1         2 LDCMNT,
              3960        /*K* LDCMNT - the length (.CT) and text (.TX) of the leading comment delimiter.
              3961                    This is derived from PCB.COMMENT.LEAD when X$PARSE is first
              3962                    entered.
              3963        */
              3964    1           3 CT UBIN HALF HALIGNED,
              3965    1           3 TX CHAR(2) CALIGNED,
              3966    1           3 TXA(0:1) REDEF TX CHAR(1) CALIGNED,
              3967    1         2 TRCMNT,
              3968        /*K* TRCMNT - the length (.CT) and text (.TX) of the trailing comment delimiter.
              3969                    This is derived from PCB.COMMENT.LEAD when X$PARSE is first
              3970                    entered.
              3971        */
              3972    1           3 CT UBIN HALF HALIGNED,
              3973    1           3 TX CHAR(2) CALIGNED,
              3974    1           3 TXA(0:1) REDEF TX CHAR(1) CALIGNED,
              3975    1         2 TBUF CHAR(511);
              3976        /*K* TBUF - temporary buffer for various uses within XUP$PARS.
              3977                    (Defining it here rather than in local auto saves 128 words
              3978                    per invocation, which can become quite significant for such
              3979                    a highly recursive routine.)
              3980        */
      301     3982        %EJECT;
PL6.E3A0      #001=XUP$PARSE File=XUP$PARSE.:E05TSI                              WED 07/30/97 09:37 Page:13
      302     3983        /*
      303     3984            ***       GENERATE THE BASED STRUCTURE USED TO BUILD AND UTILIZE
      304     3985            ***       THE SPACE-CHAIN IN THE USER-SUPPLIED WORK BUFFER.
      305     3986        */
      306     3987             %XUP$CHAIN;
              3988    1   DCL 1 FREE$HDR BASED ALIGNED,           /* FREE CHAIN BLOCK HEADER            */
              3989    1         2 NWORDS SBIN UNAL,               /* COUNT OF WORDS IN BLOCK            */
              3990    1         2 NEXT$ PTR UNAL,                 /* FORWARD LINK TO NEXT FREE BLOCK    */
              3991    1         2 PREV$ PTR;                 /* BACKWARD LINK TP PREVIOUS FREE BLOCK    */
      307     3993        %EJECT;
PL6.E3A0      #001=XUP$PARSE File=XUP$PARSE.:E05TSI                              WED 07/30/97 09:37 Page:14
      308     3994        /*
      309     3995            ***       GENERATE THE BASED STRUCTURE USED TO DEFINE POSSIBLE
      310     3996            ***       ALTERNATIVE NODES AT THE POINT OF ERROR IN A COMMAND.
      311     3997        */
      312     3998            %XUP$POSS (NAME=POSS);
              3999    1   DCL 1 NAME STCLASS ALIGNED,     /* LEGAL POSSIBILITY LIST STRUCTURE */
              4000    1         2 COUNT SBIN,             /* NUMBER OF NODES IN LIST          */
              4001    1         2 NODES$ (0:0) PTR;       /* POSSIBLE NEXT NODE ARRAY         */
      313     4003        %EJECT;
PL6.E3A0      #001=XUP$PARSE File=XUP$PARSE.:E05TSI                              WED 07/30/97 09:37 Page:15
      314     4004        %PLIST;
      315     4005        /*
      316     4006            ***       GENERATE THE BASED STRUCTURE USED TO GENERATE THE OUTPUT
      317     4007            ***       BLOCKS RETURNED TO THE USER IN HIS WORK BUFFER.
      318     4008        */
      319     4009            %PARSE$OUT(STCLASS=BASED);
      320     4054        /*
      321     4055            ***       MACRO TO GENERATE XUP ERROR CODES
      322     4056        */
      323     4057        %MACRO ERRCODE(NAME=' ',STCLASS="CONSTANT SYMDEF",CODE=0,SEV=0);
      324     4058        DCL 1 NAME ALIGNED STCLASS,
      325     4059              2 * BIT(12) UNAL INIT('3025'O), /*'XU'*/
      326     4060              2 * BIT(6) UNAL INIT('20'O),  /*'P'*/
      327     4061              2 * BIT(1) UNAL INIT('0'B),
      328     4062              2 * UBIN(14) UNAL INIT(CODE),
      329     4063              2 * UBIN(3) UNAL INIT(0);
      330     4064        %MEND;
      331     4065        /*
      332     4066            ***       GENERATE ERROR CODES RETURNED BY X$PARSE
      333     4067        */
      334     4068            %ERRCODE(NAME=SYN_ERR,CODE=%E$SYNERR);
      335     4076            %ERRCODE(NAME=NULL_ROOT,CODE=%E$NULLROOT);
      336     4084            %ERRCODE(NAME=BAD_NODE,CODE=%E$BADNODE);
      337     4092            %ERRCODE(NAME=OVER_FLOW,CODE=%E$WKOVERFLOW);
      338     4100            %ERRCODE(NAME=SMALL_WORK,CODE=%E$SMALLWORK);
      339     4108            %ERRCODE(NAME=NULL_U$$,CODE=%E$NULLU$$);
      340     4116            %ERRCODE(NAME=PRE_C00,CODE=%E$PCB_PRE_C00);
      341     4124            %ERRCODE(NAME=CANT_RTEXT,CODE=%E$CANT_RTEXT);
      342     4132            %ERRCODE(NAME=RTEXT_GT_511,CODE=%E$RTEXT_GT_511);
      343     4140            %ERRCODE(NAME=ILLEGAL_DYNAMIC_EXPANSION,CODE=%E$EXPAND_ERROR);
      344     4148        %EJECT;
PL6.E3A0      #001=XUP$PARSE File=XUP$PARSE.:E05TSI                              WED 07/30/97 09:37 Page:16
      345     4149        /*D*          NAME:    X$PARSE
      346     4150        *
      347     4151                      CALL:    CALL X$PARSE(PCB) ALTRET(PARSE_ERR);
      348     4152        *
      349     4153                      INTERFACE:  XUP$PARS
      350     4154                                  XUP$COMCHK, XUP$GETSPACE
      351     4155                                  XUP$DMPNXT
      352     4156        *
      353     4157                      ENVIRONMENT:   Mapped, slave, caller's ISR.
      354     4158        *
      355     4159                      INPUT:   Parse Control Block(PCB), a user-generated table
      356     4160                               containing the information necessary to perform the
      357     4161                               parse.
      358     4162                      OUTPUT:  A pointer is established in the caller's PCB which
      359     4163                               defines the beginning of the output generated as a
      360     4164                               result of a successful parse; the content of the output
      361     4165                               is dependent on information (the syntax graph) which
      362     4166                               was contained in the PCB.
      363     4167        */
      364     4168    1   X$PARSE:
      365     4169    1       ENTRY(PCB) ALTRET;
      366     4170        /*
      367     4171            ***       BEGIN PROCEDURE          ***
      368     4172        */
      369     4173    1       G$D='0'B;
      370     4174    1       G$D.PCB$ = ADDR(PCB);
      371     4175        /*
      372     4176            ***       ESTABLISH THE ERROR HANDLER
      373     4177        */
      374     4178    1       REMEMBER ERROR IN G$D.ERROR;
      375     4179        /*
      376     4180                Check for obvious errors in parameters.
      377     4181        */
      378     4182    1       IF PCB.VERSION_CODE = 0
      379     4183    2       THEN DO;
      380     4184
      381     4185        /*E*     ERROR:   XUP-E$PCB_PRE_C00
PL6.E3A0      #001=XUP$PARSE File=XUP$PARSE.:E05TSI                              WED 07/30/97 09:37 Page:17
      382     4186                 MESSAGE: Parse control block is pre-C00;  cannot parse.
      383     4187                 MESSAGE1: The parse control block (PCB) passed to X$PARSE appears
      384     4188                          to be of pre-C00 vintage.  The format of X$PARSE nodes
      385     4189                          (produced by PARTRGE) was changed substantially for the
      386     4190                          C00 version of CP-6, and pre-C00 nodes/PCBs/PARSE$BLKs
      387     4191                          (etc.) are not compatible with this parser.  Your program
      388     4192                          must be updated if you wish to run it on a D00 (or later)
      389     4193                          version of CP-6.  This will require:
      390     4194
      391     4195                          1) Recompiling all PL-6 routines that use any of the parser's
      392     4196                             data structures;
      393     4197
      394     4198                          2) Re-PARTRGEing all of the program's parse nodes;  and
      395     4199
      396     4200                          3) Re-LINKing the run unit.
      397     4201
      398     4202                          Please see the "CP-6 C00 System Release Bulletin", or the
      399     4203                          Host Library Services manual (CE71) for the necessary
      400     4204                          information and procedures.
      401     4205        */
      402     4206    2           PCB.ERROR = PRE_C00;
      403     4207    2           ALTRETURN;
      404     4208
      405     4209    2       END;
      406     4210
      407     4211    1       IF PCB.WKSZ < (PCB.NCHARS + 4)/4 + 10 THEN
      408     4212    2       DO;
      409     4213
      410     4214        /*E*          ERROR:   XUP-E$SMALLWORK-C
      411     4215                      MESSAGE:    Work area too small for X$PARSE
      412     4216                      MESSAGE1:   Minimum size of work area required for X$PARSE
      413     4217                               must at least equal the size of the string to be
      414     4218                               parsed plus 10 words.
      415     4219        */
      416     4220
      417     4221    2           PCB.ERROR = SMALL_WORK;
      418     4222    2           ALTRETURN;
PL6.E3A0      #001=XUP$PARSE File=XUP$PARSE.:E05TSI                              WED 07/30/97 09:37 Page:18
      419     4223    2       END;
      420     4224
      421     4225    1       IF PCB.ROOT$ = ADDR(NIL) THEN
      422     4226    2       DO;
      423     4227
      424     4228        /*E*          ERROR:   XUP-E$NULLROOT-C
      425     4229                      MESSAGE:    Null syntax tree passed to X$PARSE
      426     4230                      MESSAGE1:   Pointer to the syntax tree, which was passed in
      427     4231                               the Parse Control Block, is null.
      428     4232        */
      429     4233
      430     4234    2           PCB.ERROR = NULL_ROOT;
      431     4235    2           ALTRETURN;
      432     4236    2       END;
      433     4237        /*
      434     4238           *****   Initialize the free-space chain in the WORK area beginning
      435     4239           *****   at its beginning.  Establish the stack at the
      436     4240           *****   end of the WORK area (grows down from the end).
      437     4241        */
      438     4242    1       G$D.FREEANCHOR$ = PCB.WORK$;
      439     4243    1       G$D.FREEANCHOR$->FREE$HDR.PREV$ = ADDR(NIL);
      440     4244    1       G$D.FREEANCHOR$->FREE$HDR.NWORDS = 3;
      441     4245    1       G$D.LASTFREE$ = PINCRW(G$D.FREEANCHOR$,3);
      442     4246    1       G$D.FREEANCHOR$->FREE$HDR.NEXT$ = G$D.LASTFREE$;
      443     4247    1       G$D.LASTFREE$->FREE$HDR.NWORDS = 3;
      444     4248    1       G$D.LASTFREE$->FREE$HDR.PREV$ = G$D.FREEANCHOR$;
      445     4249    1       G$D.LASTFREE$->FREE$HDR.NEXT$ = ADDR(NIL);
      446     4250    1       G$D.HISPACE$ = PINCRW(G$D.LASTFREE$,2);
      447     4251    1       G$D.STACKTOP$ = PINCRW(PCB.WORK$,PCB.WKSZ);
      448     4252    1       G$D.REDUCE$ = ADDR(NIL);
      449     4253        /*
      450     4254            *****   Set up comment delimiters in a form more convenient for
      451     4255            *****   internal use.
      452     4256        */
      453     4257    1       IF SUBSTR(PCB.COMMENT.LEAD,0,1) = ' ' THEN
      454     4258    2       DO;
      455     4259    2           IF SUBSTR(PCB.COMMENT.LEAD,1,1) = ' ' THEN
PL6.E3A0      #001=XUP$PARSE File=XUP$PARSE.:E05TSI                              WED 07/30/97 09:37 Page:19
      456     4260    3           DO;
      457     4261    3               G$D.LDCMNT.CT = 0;
      458     4262    3               G$D.LDCMNT.TX = BINASC(0);
      459     4263    3           END;
      460     4264    2           ELSE
      461     4265    3           DO;
      462     4266    3               G$D.LDCMNT.CT = 1;
      463     4267    3               G$D.LDCMNT.TX = SUBSTR(PCB.COMMENT.LEAD,1,1);
      464     4268    3           END;
      465     4269    2       END;
      466     4270    1       ELSE
      467     4271    2       DO;
      468     4272    2           G$D.LDCMNT.CT = 2;
      469     4273    2           G$D.LDCMNT.TX = PCB.COMMENT.LEAD;
      470     4274    2       END;
      471     4275    1       IF SUBSTR(PCB.COMMENT.TRAIL,0,1) = ' ' THEN
      472     4276    2       DO;
      473     4277    2           IF SUBSTR(PCB.COMMENT.TRAIL,1,1) = ' ' THEN
      474     4278    2               G$D.TRCMNT.CT = 0;
      475     4279    2           ELSE
      476     4280    3           DO;
      477     4281    3               G$D.TRCMNT.CT = 1;
      478     4282    3               G$D.TRCMNT.TX = SUBSTR(PCB.COMMENT.TRAIL,1,1);
      479     4283    3           END;
      480     4284    2       END;
      481     4285    1       ELSE
      482     4286    2       DO;
      483     4287    2           G$D.TRCMNT.CT = 2;
      484     4288    2           G$D.TRCMNT.TX = PCB.COMMENT.TRAIL;
      485     4289    2       END;
      486     4290        /*
      487     4291        *****   Check for leading comment or comment only and adjust character
      488     4292        *****   position accordingly.
      489     4293        */
      490     4294    1       IF PCB.NOLEADBLANKS
      491     4295    1       THEN
      492     4296    1           IF PCB.NCHARS ~= 0
PL6.E3A0      #001=XUP$PARSE File=XUP$PARSE.:E05TSI                              WED 07/30/97 09:37 Page:20
      493     4297    1           THEN
      494     4298    1               G$D.CCHAR = PCB.TEXT$ -> C$BUFA(0);
      495     4299    1           ELSE
      496     4300    1               ;
      497     4301    1       ELSE
      498     4302    1           CALL XUP$COMCHK(G$D);
      499     4303        /*
      500     4304        ***           ATTEMPT THE PARSE
      501     4305        */
      502     4306    1       IF PCB.NXT
      503     4307    1       THEN
      504     4308    1           PINCRW(PCB.WORK$,PCB.WK_USED) -> POSS = '0'B;
      505     4309    2       ELSE DO;
      506     4310    2           PCB.HI_CHAR=G$D.CCPOS;
      507     4311    2           PCB.HINODE$ = ADDR(NIL);
      508     4312    2           PCB.WK_USED = 0;
      509     4313    2           PCB.ERROR = '0'B; /*CLEAR THE ERROR CODE */
      510     4314    2       END;
      511     4315    1       G$D.NODE$=PCB.ROOT$;
      512     4316    1       CALL XUP$PARS(G$D) ALTRET(SYNERR);
      513     4317        /*
      514     4318            *****   Clear out the node stack:
      515     4319                    If there is only one unassigned output node, it becomes
      516     4320                    the top level node.
      517     4321                    Otherwise, create a dummy output block to be the top level
      518     4322                    output node, containing all remaining unassigned nodes.
      519     4323        */
      520     4324    1       G$D.SCRATCH = PCB.WKSZ - POFFW(G$D.STACKTOP$, PCB.WORK$);
      521     4325    1       IF G$D.SCRATCH = 1 THEN
      522     4326    1           PCB.OUT$ = G$D.STACKTOP$->BLK$;
      523     4327    1       ELSE
      524     4328    2       DO;
      525     4329    2           CALL XUP$GETSPACE(G$D.SCRATCH + 3,PCB.OUT$,G$D);
      526     4330    2           PCB.OUT$->OUT$BLK.NSUBLKS = G$D.SCRATCH;
      527     4331    2           PCB.OUT$->OUT$BLK.TEMP = '1'B;
      528     4332    3           DO WHILE(G$D.SCRATCH > 0);
      529     4333    3               G$D.SCRATCH = G$D.SCRATCH - 1;
PL6.E3A0      #001=XUP$PARSE File=XUP$PARSE.:E05TSI                              WED 07/30/97 09:37 Page:21
      530     4334    3               PCB.OUT$->OUT$BLK.SUBLK$(G$D.SCRATCH) =
      531     4335    3                 G$D.STACKTOP$->BLK$;
      532     4336    3               G$D.STACKTOP$ = PINCRW(G$D.STACKTOP$,1);
      533     4337    3           END;
      534     4338    2       END;
      535     4339    1       PCB.WK_USED = POFFW(G$D.HISPACE$,PCB.WORK$) + 3;
      536     4340    1       RETURN;
      537     4341        /*
      538     4342            *****   SYNTAX ERROR HANDLER
      539     4343        */
      540     4344    1   SYNERR:
      541     4345
      542     4346        /*E*          ERROR:   XUP-E$SYNERR-C
      543     4347                      MESSAGE:    Syntax error
      544     4348                      MESSAGE1:   X$PARSE failed to match the input text string with
      545     4349                               any branch of the syntax tree.
      546     4350        */
      547     4351
      548     4352    1       PCB.ERROR = SYN_ERR;
      549     4353    1       IF PCB.NXT AND NOT PCB.NXT_SZONLY
      550     4354    1       THEN
      551     4355    1           CALL XUP$DMPNXT (G$D);
      552     4356
      553     4357    1       PCB.WK_USED = POFFW(G$D.HISPACE$,PCB.WORK$) + 6;
      554     4358        /*
      555     4359            ***       ERROR HANDLER
      556     4360                      (Any error other than a syntax error unwinds to here)
      557     4361        */
      558     4362    1   ERROR:
      559     4363    1       ALTRETURN;
      560     4364    1   END   XUP$PARSE;
      561     4365        %EOD;

PL6.E3A0      #001=XUP$PARSE File=XUP$PARSE.:E05TSI                              WED 07/30/97 09:37 Page:22
--  Include file information  --

   XU_PERR_C.:E05TOU  is referenced.
   XU_SUBS_C.:E05TOU  is referenced.
   XU_MACRO_C.:E05TOU  is referenced.
      No diagnostics issued in procedure XUP$PARSE.

   Procedure XUP$PARSE requires 242 words for executable code.
   Procedure XUP$PARSE requires 152 words of local(AUTO) storage.

PL6.E3A0      #001=XUP$PARSE File=XUP$PARSE.:E05TSI                              WED 07/30/97 09:37 Page:23

 Object Unit name= XUP$PARSE                                  File name= XUP$PARSE.:E05TOU
 UTS= JUL 30 '97 09:37:12.36 WED                              Compiler= PL-6/E31         Sev=      00
 SharedLib= :SHARED_SYSTEM                                    Alt SharedLib=


    ****  Control sections  ****

 Sect   Type Bound  Init  Size OctSiz  Section name(segment info)
    0  RoData even  UTS     10     12  XUP$PARSE
    1   Proc  even  none   242    362  XUP$PARSE

    ****  Entry defs  ****

                              Check   Calling
                             calling  sequence
  Sect OctLoc Primary Altret sequence   type   Parms  Name
     1      0   yes    yes     yes      Std        1  XUP$PARSE
     1      3          yes     yes      Std        1  X$PARSE

  ****  Data defs  ****

 Sect OctLoc  Name                           Sect OctLoc  Name
    0      0  SYN_ERR                            0      1  NULL_ROOT
    0      2  BAD_NODE                           0      3  OVER_FLOW
    0      4  SMALL_WORK                         0      5  NULL_U$$
    0      6  PRE_C00                            0      7  CANT_RTEXT
    0     10  RTEXT_GT_511                       0     11  ILLEGAL_DYNAMIC_EXPANSION
PL6.E3A0      #001=XUP$PARSE File=XUP$PARSE.:E05TSI                              WED 07/30/97 09:37 Page:24

  ****  Entry refs  ****

         Check        Calling
        calling       sequence
Altret sequence SRef   type   Args  Name
 yes     yes           Std       1 XUP$COMCHK
 yes     yes           Std       1 XUP$PARS
         yes           Std       3 XUP$GETSPACE
         yes           Std       1 XUP$DMPNXT
                       nStd      0 X66_AUTO_1
                       Std       0 B_CONSPOOL_D
                       nStd      0 X66_AALT
                       nStd      0 X66_ARET

  ****  Data refs  ****

  Flags:  r = read only, s = secondary
Flgs Name                             Flgs Name                             Flgs Name
     B_VECTNIL
PL6.E3A0      #001=XUP$PARSE File=XUP$PARSE.:E05TSI                              WED 07/30/97 09:37 Page:25


        1        1        /*M*          XUP$PARSE    GENERAL PURPOSE PARSING ROUTINE                    */
        2        2        /*T***********************************************************/
        3        3        /*T*                                                         */
        4        4        /*T* Copyright (c) Bull HN Information Systems Inc., 1997    */
        5        5        /*T*                                                         */
        6        6        /*T***********************************************************/
        7        7
        8        8        /*X* DMC,PLM=4,IND=4,CTI=2,DTI=0,ENI=0,ECI=0,CSI=0,MCI,DCI=4 */
        9        9        /*P*          NAME:    XUP$PARSE
       10       10        *
       11       11                      PURPOSE:    This file contains eight external procedures
       12       12                                  which, acting together, will perform a top-down
       13       13                                  recursive parse of an arbitrary input text line
       14       14                                  based on a user-input syntax tree.  The output
       15       15                                  is generated in a user-supplied work area.
       16       16                      DESCRIPTION:   The parser attempts to match character strings
       17       17                                  in the input text line with elements of the syntax
       18       18                                  graph which was provided by the caller.  The
       19       19                                  process continues until a match is made or no
       20       20                                  match is possible with the syntax graph.  The
       21       21                                  former case represents a successful parse, with
       22       22                                  meaningful output; the latter case is, by definition,
       23       23                                  a syntax error which will cause the parser to
       24       24                                  take the ALTRETURN exit from the routine.  Other
       25       25                                  ALTRETURNs include detection of null input text,
       26       26                                  null syntax graph, and insufficient size of the
       27       27                                  work area provided by the caller.
       28       28        */
       29       29        %EJECT;
PL6.E3A0      #001=XUP$PARSE File=XUP$PARSE.:E05TSI                              WED 07/30/97 09:37 Page:26
       30       30        /*F*
       31       31            NAME: X$PARSE
       32       32            PURPOSE:
       33       33                To parse a command and return a tree of output blocks that
       34       34                represent its structure.
       35       35            DESCRIPTION:
       36       36                The X$PARSE routine is the external entry point to the parser.
       37       37                It sets up internal working storage, skips past any leading
       38       38                leading blanks and comments from the command to be parsed, and
       39       39                calls XUP$PARS, which is invoked recursively to perform the
       40       40                actual parse.  On return, X$PARSE sets up final information
       41       41                to be returned to the caller and exits.
       42       42
       43       43
       44       44                PARSER DATA STRUCTURES
       45       45
       46       46                The following data structures are used by the parser:
       47       47
       48       48                Global Data (G$D) -- contains all internal data items that are
       49       49                    passed across levels as nodes are parsed.  This structure
       50       50                    is alocated in the AUTO frame for X$PARSE, and is passed
       51       51                    as a parameter to all XUP$PARS calls.
       52       52
       53       53                Parse Control Block (PCB) -- contains data items passed to the
       54       54                    parser by the calling routine, or that are to be returned
       55       55                    to the caller.  This structure is provided by the caller,
       56       56                    passed as a parameter to X$PARSE, and passed to XUP$PARS
       57       57                    via G$D.PCB$ in the global data block.
       58       58
       59       59                Parse Nodes -- generated by PARTRGE from parse node source
       60       60                    definitions which specify the legal syntax for the command
       61       61                    being parsed.  The node for the root of the parse tree is
       62       62                    passed to X$PARSE by the caller in the PCB.  The address
       63       63                    of the node to be parsed by each invocation of XUP$PARS
       64       64                    is in G$D on entry to that routine.
       65       65
       66       66                Local Data -- values that pertain to a given invocation of
PL6.E3A0      #001=XUP$PARSE File=XUP$PARSE.:E05TSI                              WED 07/30/97 09:37 Page:27
       67       67                    XUP$PARS are kept in the AUTO stack for that invocation.
       68       68                    Since values in the blocks defined above are passed from
       69       69                    level to level, and can be changed at each level, a local
       70       70                    copy of any data that must be remembered at a given level
       71       71                    must be kept (e.g., G$D.NODE$ points to the node to parse
       72       72                    on entry, but may be changed for recursive calls to parse
       73       73                    subnodes, so the pointer for the node being parsed is kept
       74       74                    in a local copy, and that copy is always used to access
       75       75                    the node.)
       76       76
       77       77                Parse Work Area -- is a block of contiguous memory provided by
       78       78                    the caller which is used to hold output blocks, the parse
       79       79                    stack, and other dynamically allocated data.  The staring
       80       80                    address of the work area, and its size, are passed to the
       81       81                    parser in the PCB.
       82       82
       83       83
       84       84                PARSE WORK AREA LAYOUT
       85       85
       86       86                The parser builds several different dynamically allocated
       87       87                structures, so some clever memory management is needed to
       88       88                pack them all into a single block of memory.  There are two
       89       89                major parts to the work area, one growing up from the start
       90       90                of the work area, the other growing down from the top.  If
       91       91                the two collide, the work area is too small to complete the
       92       92                parse.  The caller can provide an exit routine to expand the
       93       93                work area if this happens.  If no such routine is available,
       94       94                the parse aborts if the work area fills up.
       95       95
       96       96                Output blocks are built starting at the beginning of the work
       97       97                area, and expanding up as necessary.  Since blocks created by
       98       98                attempts to parse a node that ultimately fails are released,
       99       99                this part of the work area is maintained using a free space
      100      100                chain, so that the space occupied by blocks that are released
      101      101                can be reused.  Other temporary structures, such as reducing
      102      102                alternative list flag blocks, are also kept in this part of
      103      103                the work area.
PL6.E3A0      #001=XUP$PARSE File=XUP$PARSE.:E05TSI                              WED 07/30/97 09:37 Page:28
      104      104
      105      105                The parse stack is built starting at the end of the work area.
      106      106                It grows down as output block pointers are added to the stack,
      107      107                and back up as they are popped off the stack.
      108      108
      109      109                Pointers that delimit the parts of the work area are kept in
      110      110                the G$D block.  The work area layout is shown schematically
      111      111                as follows:
      112      112
      113      113                +--------------------+ <-- G$D.FREEANCHOR$ = PCB.WORK$
      114      114                | free chain header  |
      115      115                |--------------------|
      116      116                |                    |
      117      117                |       used         |
      118      118                |     workspace      |
      119      119                |                    |
      120      120                |--------------------| <-- G$D.LASTFREE$
      121      121                | free chain trailer |
      122      122                |--------------------| <-- G$D.HISPACE$
      123      123                |                    |
      124      124                |       unused       |
      125      125                |     workspace      |
      126      126                |                    |
      127      127                |--------------------| <-- G$D.STACKTOP$
      128      128                |                    |
      129      129                |     parse stack    |
      130      130                |                    |
      131      131                +--------------------+ <-- PCB.WORK$ + PCB.WKSZ
      132      132
      133      133
      134      134                REPARSING FOR LEGAL POSSIBILITIES
      135      135
      136      136                The parser can also be called to display a list of valid
      137      137                next nodes at a given point in a command.  This is normally
      138      138                done just after the command has failed to parse; information
      139      139                needed to do the reparse is taken from values returned in the
      140      140                PCB from the original parse.  In particular:
PL6.E3A0      #001=XUP$PARSE File=XUP$PARSE.:E05TSI                              WED 07/30/97 09:37 Page:29
      141      141
      142      142                PCB.HI_CHAR -- denotes the position in the command at which
      143      143                    legal possibilities are to be reported.
      144      144                PCB.WK_USED -- gives the offset into the work area where the
      145      145                    list of possible next nodes is to be built.  This field
      146      146                    is set to the high-water mark of G$D.HISPACE$ from the
      147      147                    original parse; since the reparse should duplicate (or be
      148      148                    a subset of) the original one, work space above this point
      149      149                    will not be used by the reparse.  The possibility list is
      150      150                    thus built in the unused workspace between the output area
      151      151                    and parse stack from the orginal parse.
      152      152
      153      153                When reparsing, XUP$PARS acts just as it did for the original
      154      154                parse up to the point of PCB.HI_CHAR, but any attempt to parse
      155      155                a node for a lexeme at that point is forced to fail, and the
      156      156                address of that node is added to the possibility list.  Thus
      157      157                a list of all possible nodes at that point is accumulated, and
      158      158                the parse always fails.  The syntax error logic in X$PARSE
      159      159                then calls XUP$DMPNXT to write out the list of accumulated
      160      160                possible nodes.
      161      161
      162      162            REFERENCE:
      163      163                User documentation for the parser, and descriptions of all
      164      164                externally visible data structures, can be found in the XUP
      165      165                section of Host Library Services Reference (CE71).
      166      166
      167      167                Parse nodes and PARTRGE are described in Appendix A of CE71.
      168      168        */
      169      169        /*F*
      170      170            NAME: XUP$PARS
      171      171            PURPOSE:
      172      172                To attempt to parse a node.
      173      173            DESCRIPTION:
      174      174                A command is parsed by recursive calls to this routine.  On
      175      175                each invocation, it attempts to match the command source text
      176      176                to the pattern specified by a given node.  If successful, it
      177      177                builds the output block (if any) for the node, and puts the
PL6.E3A0      #001=XUP$PARSE File=XUP$PARSE.:E05TSI                              WED 07/30/97 09:37 Page:30
      178      178                address of that block on the top of the parse stack.  If the
      179      179                attempted parse fails, it releases any output blocks that had
      180      180                been created during the attempted parse, and altreturns to
      181      181                indicate failure.
      182      182
      183      183                This routine is first called from X$PARSE to parse the root
      184      184                node for the command.  An altreturn from that call indicates
      185      185                a syntax error; no path through the nodes matches the command.
      186      186
      187      187                The root node typically defines a number of subnodes; XUP$PARS
      188      188                is called recursively to try to parse each subnode.  If those
      189      189                nodes also have subnodes, XUP$PARS is called again, and so on,
      190      190                for as many levels as there are subnodes.  An altreturn from
      191      191                an inner level call may or may not indicate a syntax error;
      192      192                if the node is optional, or one of a list of alternatives,
      193      193                the attempted parse of the calling node can continue with the
      194      194                next node or alternative.
      195      195
      196      196                Each invocation of XUP$PARS normally builds a single output
      197      197                block.  But, if the node for that call has subnodes, any
      198      198                number of output blocks can be built by lower level recursive
      199      199                calls.  If the parse at a given level succeeds, the output
      200      200                block for that level will contain pointers to the blocks for
      201      201                the next lower level.  The parse stack keeps track of blocks
      202      202                built at various levels.  When any block is created, a pointer
      203      203                to it is put on the top of the stack.  At each level, the
      204      204                current top-of-stack position is saved on entry; on exit, any
      205      205                stack entries above that point are either used in the block
      206      206                built for that call (on successful parse) or the blocks they
      207      207                point to are released (on failure).  On successful return from
      208      208                the top level call, the stack will contain the output block(s)
      209      209                for the root node.
      210      210
      211      211                (Note: Users of X$PARSE commonly call the tree it builds the
      212      212                "parse nodes" for a command.  Here, "nodes" refers to the blocks
      213      213                PARTRGE builds to define the command syntax; blocks built by
      214      214                X$PARSE are called "output blocks".)
PL6.E3A0      #001=XUP$PARSE File=XUP$PARSE.:E05TSI                              WED 07/30/97 09:37 Page:31
      215      215        */
      216      216        /*F*
      217      217            NAME: XUP$COMCHK
      218      218            PURPOSE:
      219      219                To check for leading blanks and comments.
      220      220            DESCRIPTION:
      221      221                This entry point into XUP$PARS is used by X$PARSE to take
      222      222                advantage of common subroutines for scanning past blanks and
      223      223                comments.
      224      224        */
      225      225        /*F*
      226      226            NAME: XUP$EXPAND_WORKAREA
      227      227            PURPOSE:
      228      228                To attempt to expand the work area.
      229      229            DESCRIPTION:
      230      230                This entry point into XUP$PARS is used by XUP$GETSPACE to take
      231      231                advantage of common logic for attempting to expand the parse
      232      232                work area.
      233      233        */
      234      234        /*F*
      235      235            NAME: XUP$GETSPACE
      236      236            PURPOSE:
      237      237                To allocate a block in the parse work area.
      238      238            DESCRIPTION:
      239      239                This routine is called to allocate space in the parse work
      240      240                area.  It first checks the free space chain to see if a block
      241      241                of the required size is available.  If so, the requested block
      242      242                is allocated out of the free space, otherwise it increased the
      243      243                amount of used work space and allocates the new block at the
      244      244                end.  If expanding the used space would collide with the parse
      245      245                stack, the routine tries to expand the work area by calling
      246      246                XUP$EXPAND_WORKAREA.
      247      247        */
      248      248        /*F*
      249      249            NAME: XUP$FREESPACE
      250      250            PURPOSE:
      251      251                To free a block in the parse work area.
PL6.E3A0      #001=XUP$PARSE File=XUP$PARSE.:E05TSI                              WED 07/30/97 09:37 Page:32
      252      252            DESCRIPTION:
      253      253                This routine is called to release blocks in the parse work
      254      254                area, and add them to the free space chain.  If the block
      255      255                just freed is adjacent to a block already on the free chain,
      256      256                the blocks are combined to avoid unnecessary fragmentation.
      257      257        */
      258      258        /*F*
      259      259            NAME: XUP$FREEOUT
      260      260            PURPOSE:
      261      261                To free all blocks associated with a given parse output block.
      262      262            DESCRIPTION:
      263      263                This routine calls itself recursively to free any sub-blocks
      264      264                of the output block it is given, the calls XUP$FREESPACE to
      265      265                free the block itself.
      266      266        */
      267      267        %EJECT;
PL6.E3A0      #001=XUP$PARSE File=XUP$PARSE.:E05TSI                              WED 07/30/97 09:37 Page:33
      268      268        XUP$PARSE:
      269      269            PROC(PCB)  ALTRET;

    269  1 000000   000000 700200 xent  XUP$PARSE    TSX0  ! X66_AUTO_1
         1 000001   000230 000001                    ZERO    152,1
         1 000002   000005 710000 1                  TRA     s:4173

      270      270
      271      271        %INCLUDE      XU_MACRO_C;
      272     3377        %INCLUDE      XU_SUBS_C;
      273     3469        %INCLUDE      XU_PERR_C;
      274     3660        /*
      275     3661            ***       INPUT PARAMETER
      276     3662        */
      277     3663            %P$PCB(NAME=PCB,STCLASS=" ");
      278     3864
      279     3865        /*
      280     3866            ***       EXTERNAL ENTRY DEFINITION
      281     3867        */
      282     3868    1   DCL XUP$COMCHK ENTRY(1) ALTRET;
      283     3869    1   DCL XUP$DMPNXT ENTRY(1);
      284     3870    1   DCL XUP$PARS ENTRY(1) ALTRET;
      285     3871    1   DCL       XUP$GETSPACE   ENTRY(3);
      286     3872        /*
      287     3873            ***       LOCAL DATA
      288     3874        */
      289     3875    1   DCL     C$BUF    CHAR(PCB.NCHARS) BASED;
      290     3876    1   DCL       C$BUFA(0:0)    CHAR(1)     BASED;
      291     3877    1   DCL       BLK$     PTR   BASED;
      292     3878    1   DCL  WORDS(0:0)BASED ALIGNED UBIN;
      293     3879        %EJECT;
PL6.E3A0      #001=XUP$PARSE File=XUP$PARSE.:E05TSI                              WED 07/30/97 09:37 Page:34
      294     3880        %LIST;
      295     3881        /*
      296     3882            ***       DEFINE ALL DATA WHICH IS TO BE GLOBAL TO X$PARSE ROUTINES
      297     3883            ***       IN THE DRIVER (X$PARSE) ROUTINE; THIS DATA STRUCTURE WILL
      298     3884            ***       THEN BE PASSED AS A PARAMETER TO ALL ROUTINES USING THE DATA.
      299     3885        */
      300     3886            %G$D(STCLASS=AUTO);
              3887        /*F*  NAME:     G$D
              3888              FUNCTION: a data structure owned and managed by X$PARSE, used to
              3889                  retain and pass useful information throughout the lifetime
              3890                  of a parsing operation.  Tampering with this structure's
              3891                  contents by a user-supplied routine will void the warranty,
              3892                  and may expose the programmer to high-voltage screams of
              3893                  anguish from the software-support staff.
              3894        */
              3895    1   DCL 1 NAME ALIGNED STCLASS,
              3896    1         2 PCB$ PTR,
              3897        /*K* PCB$ - pointer to Parse Control Block.
              3898        */
              3899    1         2 ERROR REMEMBER,
              3900        /*K* ERROR - error return point.  Any error other than a syntax error
              3901                    that is detected during parsing unwinds to G$D.ERROR
              3902                    after setting the error code and other error return
              3903                    information in the PCB; this results in an altreturn
              3904                    from X$PARSE.
              3905        */
              3906    1         2 NODE$ PTR,
              3907        /*K* NODE$ - pointer to node to attempt to parse.  This is reset for
              3908                    each call to XUP$PARS to pass it the node it is to try to
              3909                    parse.  Within XUP$PARS, a local copy of this pointer is
              3910                    used to access the node, since this field will be reset by
              3911                    subsequent recursive calls to attempt to parse subnodes.
              3912        */
              3913    1         2 FREEANCHOR$ PTR,
              3914        /*K* FREEANCHOR$ - pointer to the first block in the free space chain
              3915                    for the parse work area.
              3916        */
PL6.E3A0      #001=XUP$PARSE File=XUP$PARSE.:E05TSI                              WED 07/30/97 09:37 Page:35
              3917    1         2 LASTFREE$ PTR,
              3918        /*K* LASTFREE$ - pointer to the last block in the free space chain
              3919                    for the parse work area.
              3920        */
              3921    1         2 HISPACE$ PTR,
              3922        /*K* HISPACE$ - pointer to the next available word in the parse work area.
              3923        */
              3924    1         2 STACKTOP$ PTR,
              3925        /*K* STACKTOP$ - pointer to the top element in the parse stack at the
              3926                    end of the parse work area.
              3927        */
              3928    1         2 REDUCE$ PTR,
              3929        /*K* REDUCE$ - root address for the current reducing alternative flag
              3930                    block list; NIL if the list is empty.
              3931        */
              3932    1         2 SCRATCH SBIN WORD,
              3933        /*K* SCRATCH - scratch word for use by X$PARSE (redefinition of CNTUPOS).
              3934        */
              3935    1         2 CNTUPOS REDEF SCRATCH SBIN WORD,
              3936        /*K* CNTUPOS - offset of the start of the command text from the current
              3937                command text pointer (PCB.TEXT$).  If continuation lines are
              3938                appended to command text for previous lines, this will always
              3939                be zero.  If continuation lines overlay the previous lines,
              3940                this will be a negative number equal to the number of characters
              3941                in prior lines that have been lost in overlaid lines.
              3942        */
              3943    1         2 CCPOS SBIN WORD,
              3944        /*K* CCPOS - the current position in the command text.
              3945        */
              3946    1         2 CLEXPOS SBIN WORD,
              3947        /*K* CLEXPOS - the current lexical position in the command text; used
              3948                to determine if part of the text to be returned by an RTEXT
              3949                node has been overlaid by a continuation line.
              3950        */
              3951    1         2 CCHAR CHAR(1) CALIGNED,
              3952        /*K* CCHAR - the character at the current position in the command text.
              3953        */
PL6.E3A0      #001=XUP$PARSE File=XUP$PARSE.:E05TSI                              WED 07/30/97 09:37 Page:36
              3954    1         2 BLSKIP BIT(1) UNAL,
              3955        /*K* BLKSIP - blank skip flag; set if some whitespace has been skipped
              3956                at the end of the last lexeme parsed.
              3957        */
              3958    1         2 *       BIT(26) UNAL,
              3959    1         2 LDCMNT,
              3960        /*K* LDCMNT - the length (.CT) and text (.TX) of the leading comment delimiter.
              3961                    This is derived from PCB.COMMENT.LEAD when X$PARSE is first
              3962                    entered.
              3963        */
              3964    1           3 CT UBIN HALF HALIGNED,
              3965    1           3 TX CHAR(2) CALIGNED,
              3966    1           3 TXA(0:1) REDEF TX CHAR(1) CALIGNED,
              3967    1         2 TRCMNT,
              3968        /*K* TRCMNT - the length (.CT) and text (.TX) of the trailing comment delimiter.
              3969                    This is derived from PCB.COMMENT.LEAD when X$PARSE is first
              3970                    entered.
              3971        */
              3972    1           3 CT UBIN HALF HALIGNED,
              3973    1           3 TX CHAR(2) CALIGNED,
              3974    1           3 TXA(0:1) REDEF TX CHAR(1) CALIGNED,
              3975    1         2 TBUF CHAR(511);
              3976        /*K* TBUF - temporary buffer for various uses within XUP$PARS.
              3977                    (Defining it here rather than in local auto saves 128 words
              3978                    per invocation, which can become quite significant for such
              3979                    a highly recursive routine.)
              3980        */
      301     3982        %EJECT;
PL6.E3A0      #001=XUP$PARSE File=XUP$PARSE.:E05TSI                              WED 07/30/97 09:37 Page:37
      302     3983        /*
      303     3984            ***       GENERATE THE BASED STRUCTURE USED TO BUILD AND UTILIZE
      304     3985            ***       THE SPACE-CHAIN IN THE USER-SUPPLIED WORK BUFFER.
      305     3986        */
      306     3987             %XUP$CHAIN;
              3988    1   DCL 1 FREE$HDR BASED ALIGNED,           /* FREE CHAIN BLOCK HEADER            */
              3989    1         2 NWORDS SBIN UNAL,               /* COUNT OF WORDS IN BLOCK            */
              3990    1         2 NEXT$ PTR UNAL,                 /* FORWARD LINK TO NEXT FREE BLOCK    */
              3991    1         2 PREV$ PTR;                 /* BACKWARD LINK TP PREVIOUS FREE BLOCK    */
      307     3993        %EJECT;
PL6.E3A0      #001=XUP$PARSE File=XUP$PARSE.:E05TSI                              WED 07/30/97 09:37 Page:38
      308     3994        /*
      309     3995            ***       GENERATE THE BASED STRUCTURE USED TO DEFINE POSSIBLE
      310     3996            ***       ALTERNATIVE NODES AT THE POINT OF ERROR IN A COMMAND.
      311     3997        */
      312     3998            %XUP$POSS (NAME=POSS);
              3999    1   DCL 1 NAME STCLASS ALIGNED,     /* LEGAL POSSIBILITY LIST STRUCTURE */
              4000    1         2 COUNT SBIN,             /* NUMBER OF NODES IN LIST          */
              4001    1         2 NODES$ (0:0) PTR;       /* POSSIBLE NEXT NODE ARRAY         */
      313     4003        %EJECT;
PL6.E3A0      #001=XUP$PARSE File=XUP$PARSE.:E05TSI                              WED 07/30/97 09:37 Page:39
      314     4004        %PLIST;
      315     4005        /*
      316     4006            ***       GENERATE THE BASED STRUCTURE USED TO GENERATE THE OUTPUT
      317     4007            ***       BLOCKS RETURNED TO THE USER IN HIS WORK BUFFER.
      318     4008        */
      319     4009            %PARSE$OUT(STCLASS=BASED);
      320     4054        /*
      321     4055            ***       MACRO TO GENERATE XUP ERROR CODES
      322     4056        */
      323     4057        %MACRO ERRCODE(NAME=' ',STCLASS="CONSTANT SYMDEF",CODE=0,SEV=0);
      324     4058        DCL 1 NAME ALIGNED STCLASS,
      325     4059              2 * BIT(12) UNAL INIT('3025'O), /*'XU'*/
      326     4060              2 * BIT(6) UNAL INIT('20'O),  /*'P'*/
      327     4061              2 * BIT(1) UNAL INIT('0'B),
      328     4062              2 * UBIN(14) UNAL INIT(CODE),
      329     4063              2 * UBIN(3) UNAL INIT(0);
      330     4064        %MEND;
      331     4065        /*
      332     4066            ***       GENERATE ERROR CODES RETURNED BY X$PARSE
      333     4067        */
      334     4068            %ERRCODE(NAME=SYN_ERR,CODE=%E$SYNERR);
      335     4076            %ERRCODE(NAME=NULL_ROOT,CODE=%E$NULLROOT);
      336     4084            %ERRCODE(NAME=BAD_NODE,CODE=%E$BADNODE);
      337     4092            %ERRCODE(NAME=OVER_FLOW,CODE=%E$WKOVERFLOW);
      338     4100            %ERRCODE(NAME=SMALL_WORK,CODE=%E$SMALLWORK);
      339     4108            %ERRCODE(NAME=NULL_U$$,CODE=%E$NULLU$$);
      340     4116            %ERRCODE(NAME=PRE_C00,CODE=%E$PCB_PRE_C00);
      341     4124            %ERRCODE(NAME=CANT_RTEXT,CODE=%E$CANT_RTEXT);
      342     4132            %ERRCODE(NAME=RTEXT_GT_511,CODE=%E$RTEXT_GT_511);
      343     4140            %ERRCODE(NAME=ILLEGAL_DYNAMIC_EXPANSION,CODE=%E$EXPAND_ERROR);
      344     4148        %EJECT;
PL6.E3A0      #001=XUP$PARSE File=XUP$PARSE.:E05TSI                              WED 07/30/97 09:37 Page:40
      345     4149        /*D*          NAME:    X$PARSE
      346     4150        *
      347     4151                      CALL:    CALL X$PARSE(PCB) ALTRET(PARSE_ERR);
      348     4152        *
      349     4153                      INTERFACE:  XUP$PARS
      350     4154                                  XUP$COMCHK, XUP$GETSPACE
      351     4155                                  XUP$DMPNXT
      352     4156        *
      353     4157                      ENVIRONMENT:   Mapped, slave, caller's ISR.
      354     4158        *
      355     4159                      INPUT:   Parse Control Block(PCB), a user-generated table
      356     4160                               containing the information necessary to perform the
      357     4161                               parse.
      358     4162                      OUTPUT:  A pointer is established in the caller's PCB which
      359     4163                               defines the beginning of the output generated as a
      360     4164                               result of a successful parse; the content of the output
      361     4165                               is dependent on information (the syntax graph) which
      362     4166                               was contained in the PCB.
      363     4167        */
      364     4168    1   X$PARSE:
      365     4169    1       ENTRY(PCB) ALTRET;

   4169  1 000003   000000 700200 xent  X$PARSE      TSX0  ! X66_AUTO_1
         1 000004   000230 000001                    ZERO    152,1

      366     4170        /*
      367     4171            ***       BEGIN PROCEDURE          ***
      368     4172        */
      369     4173    1       G$D='0'B;

   4173  1 000005   000100 100400                    MLR     fill='000'O
         1 000006   000002 000001 xsym               ADSC9   B_VECTNIL+2              cn=0,n=1
         1 000007   200004 001077                    ADSC9   G$D,,AUTO                cn=0,n=575

      370     4174    1       G$D.PCB$ = ADDR(PCB);

   4174  1 000010   200003 236100                    LDQ     @PCB,,AUTO
PL6.E3A0      #001=XUP$PARSE File=XUP$PARSE.:E05TSI                              WED 07/30/97 09:37 Page:41
         1 000011   200004 756100                    STQ     G$D,,AUTO

      371     4175        /*
      372     4176            ***       ESTABLISH THE ERROR HANDLER
      373     4177        */
      374     4178    1       REMEMBER ERROR IN G$D.ERROR;

   4178  1 000012   000361 635000 1                  EAA     ERROR
         1 000013   200006 452500                    STP2    G$D+2,,AUTO
         1 000014   200007 755100                    STA     G$D+3,,AUTO

      375     4179        /*
      376     4180                Check for obvious errors in parameters.
      377     4181        */
      378     4182    1       IF PCB.VERSION_CODE = 0

   4182  1 000015   200003 470500                    LDP0    @PCB,,AUTO
         1 000016   000010 236100                    LDQ     8,,PR0
         1 000017   740000 316007                    CANQ    -16384,DL
         1 000020   000024 601000 1                  TNZ     s:4211

      379     4183    2       THEN DO;

      380     4184
      381     4185        /*E*     ERROR:   XUP-E$PCB_PRE_C00
      382     4186                 MESSAGE: Parse control block is pre-C00;  cannot parse.
      383     4187                 MESSAGE1: The parse control block (PCB) passed to X$PARSE appears
      384     4188                          to be of pre-C00 vintage.  The format of X$PARSE nodes
      385     4189                          (produced by PARTRGE) was changed substantially for the
      386     4190                          C00 version of CP-6, and pre-C00 nodes/PCBs/PARSE$BLKs
      387     4191                          (etc.) are not compatible with this parser.  Your program
      388     4192                          must be updated if you wish to run it on a D00 (or later)
      389     4193                          version of CP-6.  This will require:
      390     4194
      391     4195                          1) Recompiling all PL-6 routines that use any of the parser's
      392     4196                             data structures;
      393     4197
PL6.E3A0      #001=XUP$PARSE File=XUP$PARSE.:E05TSI                              WED 07/30/97 09:37 Page:42
      394     4198                          2) Re-PARTRGEing all of the program's parse nodes;  and
      395     4199
      396     4200                          3) Re-LINKing the run unit.
      397     4201
      398     4202                          Please see the "CP-6 C00 System Release Bulletin", or the
      399     4203                          Host Library Services manual (CE71) for the necessary
      400     4204                          information and procedures.
      401     4205        */
      402     4206    2           PCB.ERROR = PRE_C00;

   4206  1 000021   000006 236000 0                  LDQ     PRE_C00
         1 000022   000006 756100                    STQ     6,,PR0

      403     4207    2           ALTRETURN;

   4207  1 000023   000000 702200 xent               TSX2  ! X66_AALT

      404     4208
      405     4209    2       END;
      406     4210
      407     4211    1       IF PCB.WKSZ < (PCB.NCHARS + 4)/4 + 10 THEN

   4211  1 000024   000011 236100                    LDQ     9,,PR0
         1 000025   000004 036007                    ADLQ    4,DL
         1 000026   000002 772000                    QRL     2
         1 000027   000012 036007                    ADLQ    10,DL
         1 000030   200224 756100                    STQ     G$D+144,,AUTO
         1 000031   000005 236100                    LDQ     5,,PR0
         1 000032   000022 772000                    QRL     18
         1 000033   200224 116100                    CMPQ    G$D+144,,AUTO
         1 000034   000040 603000 1                  TRC     s:4225

      408     4212    2       DO;

      409     4213
      410     4214        /*E*          ERROR:   XUP-E$SMALLWORK-C
      411     4215                      MESSAGE:    Work area too small for X$PARSE
PL6.E3A0      #001=XUP$PARSE File=XUP$PARSE.:E05TSI                              WED 07/30/97 09:37 Page:43
      412     4216                      MESSAGE1:   Minimum size of work area required for X$PARSE
      413     4217                               must at least equal the size of the string to be
      414     4218                               parsed plus 10 words.
      415     4219        */
      416     4220
      417     4221    2           PCB.ERROR = SMALL_WORK;

   4221  1 000035   000004 236000 0                  LDQ     SMALL_WORK
         1 000036   000006 756100                    STQ     6,,PR0

      418     4222    2           ALTRETURN;

   4222  1 000037   000000 702200 xent               TSX2  ! X66_AALT

      419     4223    2       END;
      420     4224
      421     4225    1       IF PCB.ROOT$ = ADDR(NIL) THEN

   4225  1 000040   000001 236100                    LDQ     1,,PR0
         1 000041   000001 116000 xsym               CMPQ    B_VECTNIL+1
         1 000042   000046 601000 1                  TNZ     s:4242

      422     4226    2       DO;

      423     4227
      424     4228        /*E*          ERROR:   XUP-E$NULLROOT-C
      425     4229                      MESSAGE:    Null syntax tree passed to X$PARSE
      426     4230                      MESSAGE1:   Pointer to the syntax tree, which was passed in
      427     4231                               the Parse Control Block, is null.
      428     4232        */
      429     4233
      430     4234    2           PCB.ERROR = NULL_ROOT;

   4234  1 000043   000001 236000 0                  LDQ     NULL_ROOT
         1 000044   000006 756100                    STQ     6,,PR0

      431     4235    2           ALTRETURN;
PL6.E3A0      #001=XUP$PARSE File=XUP$PARSE.:E05TSI                              WED 07/30/97 09:37 Page:44

   4235  1 000045   000000 702200 xent               TSX2  ! X66_AALT

      432     4236    2       END;
      433     4237        /*
      434     4238           *****   Initialize the free-space chain in the WORK area beginning
      435     4239           *****   at its beginning.  Establish the stack at the
      436     4240           *****   end of the WORK area (grows down from the end).
      437     4241        */
      438     4242    1       G$D.FREEANCHOR$ = PCB.WORK$;

   4242  1 000046   000002 236100                    LDQ     2,,PR0
         1 000047   200011 756100                    STQ     G$D+5,,AUTO

      439     4243    1       G$D.FREEANCHOR$->FREE$HDR.PREV$ = ADDR(NIL);

   4243  1 000050   000001 236000 xsym               LDQ     B_VECTNIL+1
         1 000051   200011 471500                    LDP1    G$D+5,,AUTO
         1 000052   100002 756100                    STQ     2,,PR1

      440     4244    1       G$D.FREEANCHOR$->FREE$HDR.NWORDS = 3;

   4244  1 000053   000003 235007                    LDA     3,DL
         1 000054   200011 471500                    LDP1    G$D+5,,AUTO
         1 000055   100000 755100                    STA     0,,PR1

      441     4245    1       G$D.LASTFREE$ = PINCRW(G$D.FREEANCHOR$,3);

   4245  1 000056   200011 236100                    LDQ     G$D+5,,AUTO
         1 000057   000003 036003                    ADLQ    3,DU
         1 000060   200012 756100                    STQ     G$D+6,,AUTO

      442     4246    1       G$D.FREEANCHOR$->FREE$HDR.NEXT$ = G$D.LASTFREE$;

   4246  1 000061   200011 471500                    LDP1    G$D+5,,AUTO
         1 000062   100001 756100                    STQ     1,,PR1

PL6.E3A0      #001=XUP$PARSE File=XUP$PARSE.:E05TSI                              WED 07/30/97 09:37 Page:45
      443     4247    1       G$D.LASTFREE$->FREE$HDR.NWORDS = 3;

   4247  1 000063   200012 471500                    LDP1    G$D+6,,AUTO
         1 000064   100000 755100                    STA     0,,PR1

      444     4248    1       G$D.LASTFREE$->FREE$HDR.PREV$ = G$D.FREEANCHOR$;

   4248  1 000065   200011 236100                    LDQ     G$D+5,,AUTO
         1 000066   200012 471500                    LDP1    G$D+6,,AUTO
         1 000067   100002 756100                    STQ     2,,PR1

      445     4249    1       G$D.LASTFREE$->FREE$HDR.NEXT$ = ADDR(NIL);

   4249  1 000070   000001 236000 xsym               LDQ     B_VECTNIL+1
         1 000071   200012 471500                    LDP1    G$D+6,,AUTO
         1 000072   100001 756100                    STQ     1,,PR1

      446     4250    1       G$D.HISPACE$ = PINCRW(G$D.LASTFREE$,2);

   4250  1 000073   200012 236100                    LDQ     G$D+6,,AUTO
         1 000074   000002 036003                    ADLQ    2,DU
         1 000075   200013 756100                    STQ     G$D+7,,AUTO

      447     4251    1       G$D.STACKTOP$ = PINCRW(PCB.WORK$,PCB.WKSZ);

   4251  1 000076   000005 220100                    LDX0    5,,PR0
         1 000077   000002 471500                    LDP1    2,,PR0
         1 000100   100000 633510                    EPPR3   0,X0,PR1
         1 000101   200014 453500                    STP3    G$D+8,,AUTO

      448     4252    1       G$D.REDUCE$ = ADDR(NIL);

   4252  1 000102   000001 236000 xsym               LDQ     B_VECTNIL+1
         1 000103   200015 756100                    STQ     G$D+9,,AUTO

      449     4253        /*
      450     4254            *****   Set up comment delimiters in a form more convenient for
PL6.E3A0      #001=XUP$PARSE File=XUP$PARSE.:E05TSI                              WED 07/30/97 09:37 Page:46
      451     4255            *****   internal use.
      452     4256        */
      453     4257    1       IF SUBSTR(PCB.COMMENT.LEAD,0,1) = ' ' THEN

   4257  1 000104   000007 236100                    LDQ     7,,PR0
         1 000105   777000 376003                    ANQ     -512,DU
         1 000106   040000 116003                    CMPQ    16384,DU
         1 000107   000131 601000 1                  TNZ     s:4272

      454     4258    2       DO;

      455     4259    2           IF SUBSTR(PCB.COMMENT.LEAD,1,1) = ' ' THEN

   4259  1 000110   000007 236100                    LDQ     7,,PR0
         1 000111   000777 376003                    ANQ     511,DU
         1 000112   000040 116003                    CMPQ    32,DU
         1 000113   000121 601000 1                  TNZ     s:4266

      456     4260    3           DO;

      457     4261    3               G$D.LDCMNT.CT = 0;

   4261  1 000114   000000 220003                    LDX0    0,DU
         1 000115   200022 740100                    STX0    G$D+14,,AUTO

      458     4262    3               G$D.LDCMNT.TX = BINASC(0);

   4262  1 000116   000040 221003                    LDX1    32,DU
         1 000117   200022 441100                    SXL1    G$D+14,,AUTO

      459     4263    3           END;

   4263  1 000120   000135 710000 1                  TRA     s:4275

      460     4264    2           ELSE
      461     4265    3           DO;

PL6.E3A0      #001=XUP$PARSE File=XUP$PARSE.:E05TSI                              WED 07/30/97 09:37 Page:47
      462     4266    3               G$D.LDCMNT.CT = 1;

   4266  1 000121   000001 220003                    LDX0    1,DU
         1 000122   200022 740100                    STX0    G$D+14,,AUTO

      463     4267    3               G$D.LDCMNT.TX = SUBSTR(PCB.COMMENT.LEAD,1,1);

   4267  1 000123   040100 100500                    MLR     fill='040'O
         1 000124   000007 200001                    ADSC9   7,,PR0                   cn=1,n=1
         1 000125   200224 000004                    ADSC9   G$D+144,,AUTO            cn=0,n=4
         1 000126   200224 221100                    LDX1    G$D+144,,AUTO
         1 000127   200022 441100                    SXL1    G$D+14,,AUTO

      464     4268    3           END;

      465     4269    2       END;

   4269  1 000130   000135 710000 1                  TRA     s:4275

      466     4270    1       ELSE
      467     4271    2       DO;

      468     4272    2           G$D.LDCMNT.CT = 2;

   4272  1 000131   000002 220003                    LDX0    2,DU
         1 000132   200022 740100                    STX0    G$D+14,,AUTO

      469     4273    2           G$D.LDCMNT.TX = PCB.COMMENT.LEAD;

   4273  1 000133   000007 221100                    LDX1    7,,PR0
         1 000134   200022 441100                    SXL1    G$D+14,,AUTO

      470     4274    2       END;

      471     4275    1       IF SUBSTR(PCB.COMMENT.TRAIL,0,1) = ' ' THEN

   4275  1 000135   000007 236100                    LDQ     7,,PR0
PL6.E3A0      #001=XUP$PARSE File=XUP$PARSE.:E05TSI                              WED 07/30/97 09:37 Page:48
         1 000136   777000 376007                    ANQ     -512,DL
         1 000137   040000 116007                    CMPQ    16384,DL
         1 000140   000160 601000 1                  TNZ     s:4287

      472     4276    2       DO;

      473     4277    2           IF SUBSTR(PCB.COMMENT.TRAIL,1,1) = ' ' THEN

   4277  1 000141   000007 236100                    LDQ     7,,PR0
         1 000142   000777 376007                    ANQ     511,DL
         1 000143   000040 116007                    CMPQ    32,DL
         1 000144   000150 601000 1                  TNZ     s:4281

      474     4278    2               G$D.TRCMNT.CT = 0;

   4278  1 000145   000000 222003                    LDX2    0,DU
         1 000146   200023 742100                    STX2    G$D+15,,AUTO
         1 000147   000164 710000 1                  TRA     s:4294

      475     4279    2           ELSE
      476     4280    3           DO;

      477     4281    3               G$D.TRCMNT.CT = 1;

   4281  1 000150   000001 222003                    LDX2    1,DU
         1 000151   200023 742100                    STX2    G$D+15,,AUTO

      478     4282    3               G$D.TRCMNT.TX = SUBSTR(PCB.COMMENT.TRAIL,1,1);

   4282  1 000152   040100 100500                    MLR     fill='040'O
         1 000153   000007 600001                    ADSC9   7,,PR0                   cn=3,n=1
         1 000154   200224 000004                    ADSC9   G$D+144,,AUTO            cn=0,n=4
         1 000155   200224 223100                    LDX3    G$D+144,,AUTO
         1 000156   200023 443100                    SXL3    G$D+15,,AUTO

      479     4283    3           END;

PL6.E3A0      #001=XUP$PARSE File=XUP$PARSE.:E05TSI                              WED 07/30/97 09:37 Page:49
      480     4284    2       END;

   4284  1 000157   000164 710000 1                  TRA     s:4294

      481     4285    1       ELSE
      482     4286    2       DO;

      483     4287    2           G$D.TRCMNT.CT = 2;

   4287  1 000160   000002 222003                    LDX2    2,DU
         1 000161   200023 742100                    STX2    G$D+15,,AUTO

      484     4288    2           G$D.TRCMNT.TX = PCB.COMMENT.TRAIL;

   4288  1 000162   000007 723100                    LXL3    7,,PR0
         1 000163   200023 443100                    SXL3    G$D+15,,AUTO

      485     4289    2       END;

      486     4290        /*
      487     4291        *****   Check for leading comment or comment only and adjust character
      488     4292        *****   position accordingly.
      489     4293        */
      490     4294    1       IF PCB.NOLEADBLANKS

   4294  1 000164   000005 236100                    LDQ     5,,PR0
         1 000165   100000 316007                    CANQ    32768,DL
         1 000166   000176 600000 1                  TZE     s:4302

      491     4295    1       THEN
      492     4296    1           IF PCB.NCHARS ~= 0

   4296  1 000167   000011 235100                    LDA     9,,PR0
         1 000170   000204 600000 1                  TZE     s:4306

      493     4297    1           THEN
      494     4298    1               G$D.CCHAR = PCB.TEXT$ -> C$BUFA(0);
PL6.E3A0      #001=XUP$PARSE File=XUP$PARSE.:E05TSI                              WED 07/30/97 09:37 Page:50

   4298  1 000171   000000 471500                    LDP1    0,,PR0
         1 000172   040100 100500                    MLR     fill='040'O
         1 000173   100000 000001                    ADSC9   0,,PR1                   cn=0,n=1
         1 000174   200021 000001                    ADSC9   G$D+13,,AUTO             cn=0,n=1
         1 000175   000204 710000 1                  TRA     s:4306

      495     4299    1           ELSE
      496     4300    1               ;
      497     4301    1       ELSE
      498     4302    1           CALL XUP$COMCHK(G$D);

   4302  1 000176   200004 631500                    EPPR1   G$D,,AUTO
         1 000177   200224 451500                    STP1    G$D+144,,AUTO
         1 000200   200224 630500                    EPPR0   G$D+144,,AUTO
         1 000201   000017 631400 xsym               EPPR1   B_VECTNIL+15
         1 000202   000000 701000 xent               TSX1    XUP$COMCHK
         1 000203   000000 011000                    NOP     0

      499     4303        /*
      500     4304        ***           ATTEMPT THE PARSE
      501     4305        */
      502     4306    1       IF PCB.NXT

   4306  1 000204   200003 470500                    LDP0    @PCB,,AUTO
         1 000205   000005 236100                    LDQ     5,,PR0
         1 000206   040000 316007                    CANQ    16384,DL
         1 000207   000215 600000 1                  TZE     s:4310

      503     4307    1       THEN
      504     4308    1           PINCRW(PCB.WORK$,PCB.WK_USED) -> POSS = '0'B;

   4308  1 000210   000010 220100                    LDX0    8,,PR0
         1 000211   000002 471500                    LDP1    2,,PR0
         1 000212   100000 450110                    STZ     0,X0,PR1
         1 000213   100001 450110                    STZ     1,X0,PR1
         1 000214   000224 710000 1                  TRA     s:4315
PL6.E3A0      #001=XUP$PARSE File=XUP$PARSE.:E05TSI                              WED 07/30/97 09:37 Page:51

      505     4309    2       ELSE DO;

      506     4310    2           PCB.HI_CHAR=G$D.CCPOS;

   4310  1 000215   200017 235100                    LDA     G$D+11,,AUTO
         1 000216   000012 755100                    STA     10,,PR0

      507     4311    2           PCB.HINODE$ = ADDR(NIL);

   4311  1 000217   000001 236000 xsym               LDQ     B_VECTNIL+1
         1 000220   000013 756100                    STQ     11,,PR0

      508     4312    2           PCB.WK_USED = 0;

   4312  1 000221   000000 220003                    LDX0    0,DU
         1 000222   000010 740100                    STX0    8,,PR0

      509     4313    2           PCB.ERROR = '0'B; /*CLEAR THE ERROR CODE */

   4313  1 000223   000006 450100                    STZ     6,,PR0

      510     4314    2       END;

      511     4315    1       G$D.NODE$=PCB.ROOT$;

   4315  1 000224   000001 236100                    LDQ     1,,PR0
         1 000225   200010 756100                    STQ     G$D+4,,AUTO

      512     4316    1       CALL XUP$PARS(G$D) ALTRET(SYNERR);

   4316  1 000226   200004 631500                    EPPR1   G$D,,AUTO
         1 000227   200224 451500                    STP1    G$D+144,,AUTO
         1 000230   200224 630500                    EPPR0   G$D+144,,AUTO
         1 000231   000017 631400 xsym               EPPR1   B_VECTNIL+15
         1 000232   000000 701000 xent               TSX1    XUP$PARS
         1 000233   000332 702000 1                  TSX2    SYNERR
PL6.E3A0      #001=XUP$PARSE File=XUP$PARSE.:E05TSI                              WED 07/30/97 09:37 Page:52

      513     4317        /*
      514     4318            *****   Clear out the node stack:
      515     4319                    If there is only one unassigned output node, it becomes
      516     4320                    the top level node.
      517     4321                    Otherwise, create a dummy output block to be the top level
      518     4322                    output node, containing all remaining unassigned nodes.
      519     4323        */
      520     4324    1       G$D.SCRATCH = PCB.WKSZ - POFFW(G$D.STACKTOP$, PCB.WORK$);

   4324  1 000234   200003 470500                    LDP0    @PCB,,AUTO
         1 000235   000002 236100                    LDQ     2,,PR0
         1 000236   000022 772000                    QRL     18
         1 000237   200224 756100                    STQ     G$D+144,,AUTO
         1 000240   200014 236100                    LDQ     G$D+8,,AUTO
         1 000241   000022 772000                    QRL     18
         1 000242   200224 136100                    SBLQ    G$D+144,,AUTO
         1 000243   200225 756100                    STQ     G$D+145,,AUTO
         1 000244   000005 236100                    LDQ     5,,PR0
         1 000245   000022 772000                    QRL     18
         1 000246   200225 136100                    SBLQ    G$D+145,,AUTO
         1 000247   200016 756100                    STQ     G$D+10,,AUTO

      521     4325    1       IF G$D.SCRATCH = 1 THEN

   4325  1 000250   000001 116007                    CMPQ    1,DL
         1 000251   000256 601000 1                  TNZ     s:4329

      522     4326    1           PCB.OUT$ = G$D.STACKTOP$->BLK$;

   4326  1 000252   200014 471500                    LDP1    G$D+8,,AUTO
         1 000253   100000 236100                    LDQ     0,,PR1
         1 000254   000003 756100                    STQ     3,,PR0
         1 000255   000321 710000 1                  TRA     s:4339

      523     4327    1       ELSE
      524     4328    2       DO;
PL6.E3A0      #001=XUP$PARSE File=XUP$PARSE.:E05TSI                              WED 07/30/97 09:37 Page:53

      525     4329    2           CALL XUP$GETSPACE(G$D.SCRATCH + 3,PCB.OUT$,G$D);

   4329  1 000256   000003 036007                    ADLQ    3,DL
         1 000257   200224 756100                    STQ     G$D+144,,AUTO
         1 000260   200004 631500                    EPPR1   G$D,,AUTO
         1 000261   200227 451500                    STP1    G$D+147,,AUTO
         1 000262   200003 236100                    LDQ     @PCB,,AUTO
         1 000263   000003 036003                    ADLQ    3,DU
         1 000264   200226 756100                    STQ     G$D+146,,AUTO
         1 000265   200224 633500                    EPPR3   G$D+144,,AUTO
         1 000266   200225 453500                    STP3    G$D+145,,AUTO
         1 000267   200225 630500                    EPPR0   G$D+145,,AUTO
         1 000270   000021 631400 xsym               EPPR1   B_VECTNIL+17
         1 000271   000000 701000 xent               TSX1    XUP$GETSPACE
         1 000272   000000 011000                    NOP     0

      526     4330    2           PCB.OUT$->OUT$BLK.NSUBLKS = G$D.SCRATCH;

   4330  1 000273   200003 470500                    LDP0    @PCB,,AUTO
         1 000274   000003 471500                    LDP1    3,,PR0
         1 000275   200016 720100                    LXL0    G$D+10,,AUTO
         1 000276   100001 740100                    STX0    1,,PR1

      527     4331    2           PCB.OUT$->OUT$BLK.TEMP = '1'B;

   4331  1 000277   000003 471500                    LDP1    3,,PR0
         1 000300   400000 236003                    LDQ     -131072,DU
         1 000301   100000 256100                    ORSQ    0,,PR1

      528     4332    3           DO WHILE(G$D.SCRATCH > 0);

   4332  1 000302   200016 235100                    LDA     G$D+10,,AUTO
         1 000303   000321 604400 1                  TMOZ    s:4339

      529     4333    3               G$D.SCRATCH = G$D.SCRATCH - 1;

PL6.E3A0      #001=XUP$PARSE File=XUP$PARSE.:E05TSI                              WED 07/30/97 09:37 Page:54
   4333  1 000304   000001 336007                    LCQ     1,DL
         1 000305   200016 056100                    ASQ     G$D+10,,AUTO

      530     4334    3               PCB.OUT$->OUT$BLK.SUBLK$(G$D.SCRATCH) =

   4334  1 000306   200003 470500                    LDP0    @PCB,,AUTO
         1 000307   000003 471500                    LDP1    3,,PR0
         1 000310   200014 473500                    LDP3    G$D+8,,AUTO
         1 000311   300000 236100                    LDQ     0,,PR3
         1 000312   200016 720100                    LXL0    G$D+10,,AUTO
         1 000313   100003 756110                    STQ     3,X0,PR1

      531     4335    3                 G$D.STACKTOP$->BLK$;
      532     4336    3               G$D.STACKTOP$ = PINCRW(G$D.STACKTOP$,1);

   4336  1 000314   200014 236100                    LDQ     G$D+8,,AUTO
         1 000315   000001 036003                    ADLQ    1,DU
         1 000316   200014 756100                    STQ     G$D+8,,AUTO

      533     4337    3           END;

   4337  1 000317   200016 235100                    LDA     G$D+10,,AUTO
         1 000320   000304 605400 1                  TPNZ    s:4333

      534     4338    2       END;

      535     4339    1       PCB.WK_USED = POFFW(G$D.HISPACE$,PCB.WORK$) + 3;

   4339  1 000321   000002 236100                    LDQ     2,,PR0
         1 000322   000022 772000                    QRL     18
         1 000323   200224 756100                    STQ     G$D+144,,AUTO
         1 000324   200013 236100                    LDQ     G$D+7,,AUTO
         1 000325   000022 772000                    QRL     18
         1 000326   200224 136100                    SBLQ    G$D+144,,AUTO
         1 000327   000003 620006                    EAX0    3,QL
         1 000330   000010 740100                    STX0    8,,PR0

PL6.E3A0      #001=XUP$PARSE File=XUP$PARSE.:E05TSI                              WED 07/30/97 09:37 Page:55
      536     4340    1       RETURN;

   4340  1 000331   000000 702200 xent               TSX2  ! X66_ARET

      537     4341        /*
      538     4342            *****   SYNTAX ERROR HANDLER
      539     4343        */
      540     4344    1   SYNERR:
      541     4345
      542     4346        /*E*          ERROR:   XUP-E$SYNERR-C
      543     4347                      MESSAGE:    Syntax error
      544     4348                      MESSAGE1:   X$PARSE failed to match the input text string with
      545     4349                               any branch of the syntax tree.
      546     4350        */
      547     4351
      548     4352    1       PCB.ERROR = SYN_ERR;

   4352  1 000332   000000 236000 0     SYNERR       LDQ     SYN_ERR
         1 000333   200003 470500                    LDP0    @PCB,,AUTO
         1 000334   000006 756100                    STQ     6,,PR0

      549     4353    1       IF PCB.NXT AND NOT PCB.NXT_SZONLY

   4353  1 000335   000005 236100                    LDQ     5,,PR0
         1 000336   040000 316007                    CANQ    16384,DL
         1 000337   000350 600000 1                  TZE     s:4357
         1 000340   002000 316007                    CANQ    1024,DL
         1 000341   000350 601000 1                  TNZ     s:4357

      550     4354    1       THEN
      551     4355    1           CALL XUP$DMPNXT (G$D);

   4355  1 000342   200004 631500                    EPPR1   G$D,,AUTO
         1 000343   200224 451500                    STP1    G$D+144,,AUTO
         1 000344   200224 630500                    EPPR0   G$D+144,,AUTO
         1 000345   000017 631400 xsym               EPPR1   B_VECTNIL+15
         1 000346   000000 701000 xent               TSX1    XUP$DMPNXT
PL6.E3A0      #001=XUP$PARSE File=XUP$PARSE.:E05TSI                              WED 07/30/97 09:37 Page:56
         1 000347   000000 011000                    NOP     0

      552     4356
      553     4357    1       PCB.WK_USED = POFFW(G$D.HISPACE$,PCB.WORK$) + 6;

   4357  1 000350   200003 470500                    LDP0    @PCB,,AUTO
         1 000351   000002 236100                    LDQ     2,,PR0
         1 000352   000022 772000                    QRL     18
         1 000353   200224 756100                    STQ     G$D+144,,AUTO
         1 000354   200013 236100                    LDQ     G$D+7,,AUTO
         1 000355   000022 772000                    QRL     18
         1 000356   200224 136100                    SBLQ    G$D+144,,AUTO
         1 000357   000006 620006                    EAX0    6,QL
         1 000360   000010 740100                    STX0    8,,PR0

      554     4358        /*
      555     4359            ***       ERROR HANDLER
      556     4360                      (Any error other than a syntax error unwinds to here)
      557     4361        */
      558     4362    1   ERROR:
      559     4363    1       ALTRETURN;

   4363  1 000361   000000 702200 xent  ERROR        TSX2  ! X66_AALT
      560     4364    1   END   XUP$PARSE;
      561     4365        %EOD;

PL6.E3A0      #001=XUP$PARSE File=XUP$PARSE.:E05TSI                              WED 07/30/97 09:37 Page:57
--  Include file information  --

   XU_PERR_C.:E05TOU  is referenced.
   XU_SUBS_C.:E05TOU  is referenced.
   XU_MACRO_C.:E05TOU  is referenced.
      No diagnostics issued in procedure XUP$PARSE.
PL6.E3A0      #001=XUP$PARSE File=XUP$PARSE.:E05TSI                              WED 07/30/97 09:37 Page:58

 **** Variables and constants ****

  ****  Section 000 RoData XUP$PARSE

  ****  Scalars and arrays  ****
OctLoc.c.b A Datatyp(siz) R M Lvl/name                 OctLoc.c.b A Datatyp(siz) R M Lvl/name

     1-0-0/w STRC        r     1 NULL_ROOT                  6-0-0/w STRC        r     1 PRE_C00
     4-0-0/w STRC        r     1 SMALL_WORK                 0-0-0/w STRC        r     1 SYN_ERR

  ****  Auto variables  ****

  ****  Scalars and arrays  ****
OctLoc.c.b A Datatyp(siz) R M Lvl/name                 OctLoc.c.b A Datatyp(siz) R M Lvl/name

     3-0-0/w PTR         r     1 @PCB                       4-0-0/d STRC(5175)  r     1 G$D
    *0-0-0/w STRC(504)   r     1 PCB

  ****  BASED and DCB variables  ****

  ****  Scalars and arrays  ****
OctLoc.c.b A Datatyp(siz) R M Lvl/name                 OctLoc.c.b A Datatyp(siz) R M Lvl/name

     0-0-0/w PTR         r     1 BLK$                       0-0-0/c CHAR        r     1 C$BUFA(0:0)
     0-0-0/w STRC(108)   r     1 FREE$HDR                   0-0-0/w STRC(144)   r     1 OUT$BLK
     0-0-0/w STRC(72)    r     1 POSS


   Procedure XUP$PARSE requires 242 words for executable code.
   Procedure XUP$PARSE requires 152 words of local(AUTO) storage.
PL6.E3A0      #001=XUP$PARSE File=XUP$PARSE.:E05TSI                              WED 07/30/97 09:37 Page:59
          *** CROSS REFERENCE LISTING ***
**     DENOTES     IDENTIFIER DEFINITION
<<                 IDENTIFIER'S VALUE SET
>>                 IDENTIFIER'S VALUE USED
<>                 IDENTIFIER SET AND/OR USED
--                 IDENTIFIER REFERENCED
PL6.E3A0      #001=XUP$PARSE File=XUP$PARSE.:E05TSI                              WED 07/30/97 09:37 Page:60
          MINI XREF LISTING

BLK$
      3877**DCL      4326>>ASSIGN   4334>>ASSIGN
C$BUFA
      3876**DCL      4298>>ASSIGN
ERROR
      4363**LABEL    4178--REMEMBR
FREE$HDR.NEXT$
      3990**DCL      4246<<ASSIGN   4249<<ASSIGN
FREE$HDR.NWORDS
      3989**DCL      4244<<ASSIGN   4247<<ASSIGN
FREE$HDR.PREV$
      3991**DCL      4243<<ASSIGN   4248<<ASSIGN
G$D
      3895**DCL      4173<<ASSIGN   4302<>CALL     4316<>CALL     4329<>CALL     4355<>CALL
G$D.CCHAR
      3951**DCL      4298<<ASSIGN
G$D.CCPOS
      3943**DCL      4310>>ASSIGN
G$D.ERROR
      3899**DCL      4178<<REMEMBR
G$D.FREEANCHOR$
      3913**DCL      4242<<ASSIGN   4243>>ASSIGN   4244>>ASSIGN   4245>>ASSIGN   4246>>ASSIGN   4248>>ASSIGN
G$D.HISPACE$
      3921**DCL      4250<<ASSIGN   4339>>ASSIGN   4357>>ASSIGN
G$D.LASTFREE$
      3917**DCL      4245<<ASSIGN   4246>>ASSIGN   4247>>ASSIGN   4248>>ASSIGN   4249>>ASSIGN   4250>>ASSIGN
G$D.LDCMNT.CT
      3964**DCL      4261<<ASSIGN   4266<<ASSIGN   4272<<ASSIGN
G$D.LDCMNT.TX
      3965**DCL      3966--REDEF    4262<<ASSIGN   4267<<ASSIGN   4273<<ASSIGN
G$D.NODE$
      3906**DCL      4315<<ASSIGN
PL6.E3A0      #001=XUP$PARSE File=XUP$PARSE.:E05TSI                              WED 07/30/97 09:37 Page:61
G$D.PCB$
      3896**DCL      4174<<ASSIGN
G$D.REDUCE$
      3928**DCL      4252<<ASSIGN
G$D.SCRATCH
      3932**DCL      3935--REDEF    4324<<ASSIGN   4325>>IF       4329>>CALL     4330>>ASSIGN   4332>>DOWHILE
      4333<<ASSIGN   4333>>ASSIGN   4334>>ASSIGN
G$D.STACKTOP$
      3924**DCL      4251<<ASSIGN   4324>>ASSIGN   4326>>ASSIGN   4334>>ASSIGN   4336<<ASSIGN   4336>>ASSIGN
G$D.TRCMNT.CT
      3972**DCL      4278<<ASSIGN   4281<<ASSIGN   4287<<ASSIGN
G$D.TRCMNT.TX
      3973**DCL      3974--REDEF    4282<<ASSIGN   4288<<ASSIGN
NULL_ROOT
      4077**DCL      4234>>ASSIGN
OUT$BLK.NSUBLKS
      4027**DCL      4330<<ASSIGN
OUT$BLK.SUBLK$
      4048**DCL      4334<<ASSIGN
OUT$BLK.TEMP
      4016**DCL      4331<<ASSIGN
PCB
      3682**DCL       268--PROC     4168--ENTRY    4174--ASSIGN
PCB.COMMENT.LEAD
      3800**DCL      4257>>IF       4259>>IF       4267>>ASSIGN   4273>>ASSIGN
PCB.COMMENT.TRAIL
      3808**DCL      4275>>IF       4277>>IF       4282>>ASSIGN   4288>>ASSIGN
PCB.ERROR
      3786**DCL      4206<<ASSIGN   4221<<ASSIGN   4234<<ASSIGN   4313<<ASSIGN   4352<<ASSIGN
PCB.HINODE$
      3840**DCL      4311<<ASSIGN
PCB.HI_CHAR
      3833**DCL      4310<<ASSIGN
PCB.NCHARS
      3829**DCL      3875--IMP-SIZ  4211>>IF       4296>>IF
PCB.NOLEADBLANKS
PL6.E3A0      #001=XUP$PARSE File=XUP$PARSE.:E05TSI                              WED 07/30/97 09:37 Page:62
      3727**DCL      4294>>IF
PCB.NXT
      3732**DCL      4306>>IF       4353>>IF
PCB.NXT_SZONLY
      3777**DCL      4353>>IF
PCB.OUT$
      3695**DCL      4326<<ASSIGN   4329<>CALL     4330>>ASSIGN   4331>>ASSIGN   4334>>ASSIGN
PCB.ROOT$
      3687**DCL      4225>>IF       4315>>ASSIGN
PCB.TEXT$
      3683**DCL      4298>>ASSIGN
PCB.VERSION_CODE
      3819**DCL      4182>>IF
PCB.WKSZ
      3712**DCL      4211>>IF       4251>>ASSIGN   4324>>ASSIGN
PCB.WK_USED
      3815**DCL      4308>>ASSIGN   4312<<ASSIGN   4339<<ASSIGN   4357<<ASSIGN
PCB.WORK$
      3691**DCL      4242>>ASSIGN   4251>>ASSIGN   4308>>ASSIGN   4324>>ASSIGN   4339>>ASSIGN   4357>>ASSIGN
POSS
      3999**DCL      4308<<ASSIGN
PRE_C00
      4117**DCL      4206>>ASSIGN
SMALL_WORK
      4101**DCL      4221>>ASSIGN
SYNERR
      4352**LABEL    4316--CALLALT
SYN_ERR
      4069**DCL      4352>>ASSIGN
XUP$COMCHK
      3868**DCL-ENT  4302--CALL
XUP$DMPNXT
      3869**DCL-ENT  4355--CALL
XUP$GETSPACE
      3871**DCL-ENT  4329--CALL
XUP$PARS
PL6.E3A0      #001=XUP$PARSE File=XUP$PARSE.:E05TSI                              WED 07/30/97 09:37 Page:63
      3870**DCL-ENT  4316--CALL

