PL6.E3A0      #002=XUP$BLDNODE File=XUP$PARTRGE.:E05TSI                          WED 07/30/97 09:40 Page:288
     1451        1        /*T***********************************************************/
     1452        2        /*T*                                                         */
     1453        3        /*T* Copyright (c) Bull HN Information Systems Inc., 1997    */
     1454        4        /*T*                                                         */
     1455        5        /*T***********************************************************/
     1456        6        XUP$BLDNODE:PROC(OUT$BLK,OUT$) ALTRET;
     1457        7        %INCLUDE CP_6;
     1458     5566    1   DCL NOCORERR REMEMBER SYMREF;
     1459     5567    1   DCL SYNTAXERR REMEMBER SYMREF;
     1460     5568    1   DCL XUP$BLDSYM ENTRY(2) ALTRET;
     1461     5569                    /* INCLUDES:*/
     1462     5570        %INCLUDE XU_MACRO_C;
     1463     8676        %INCLUDE XU_SUBS_C;
     1464     8768                    /* STATIC DATA */
     1465     8769        %PARSE$OUT(STCLASS=BASED,NAME=OUT_BLK);
     1466     8814        %PARSE$OUT(STCLASS=" ");
     1467     8859        %PARSE$OUT(NAME=OPTBLK, STCLASS=AUTO);
     1468     8904        %PARSE$SYM(STCLASS=BASED);
     1469     8942        %P$PCB(NAME=P_PCB,STCLASS=SYMREF);
     1470     9143        %FPT_GDS (FPTN=NODEFPT, STCLASS=SYMREF);
     1471     9159    1   DCL LEXES$(0:29) PTR SYMREF;
     1472     9160    1   DCL 1 TMPLIT STATIC, /* SPACE FOR NAMED LITERAL TEXT */
     1473     9161    1         2 C SBIN,
     1474     9162    1         2 T (0:510) CHAR (1) CALIGNED,
     1475     9163    1         2 TXT REDEF T CHAR (511);
     1476     9164    1   DCL LITCODE SBIN SYMREF;
     1477     9165    1   DCL LIT_PRESENT BIT(1) SYMREF;
     1478     9166        %MACRO REC(NAME=);
     1479     9167        DCL 1 NAME DALIGNED SYMREF,
     1480     9168              2 SIZE UBIN(18),
     1481     9169              2 FIRST$ PTR,
     1482     9170              2 SEG REDEF FIRST$,
     1483     9171                3 * BIT(18),
     1484     9172                3 SEG UBIN(18) UNAL,
     1485     9173              2 F$SBIN REDEF FIRST$ UBIN,
     1486     9174              2 P$ PTR,
     1487     9175              2 NEXT$ PTR;
PL6.E3A0      #002=XUP$BLDNODE File=XUP$PARTRGE.:E05TSI                          WED 07/30/97 09:40 Page:289
     1488     9176        %MEND;
     1489     9177        %REC(NAME=SYM_);
     1490     9188        %REC(NAME=NODE_);
     1491     9199    1   DCL OUT$ PTR;
     1492     9200    1   DCL FLAG SBIN;
     1493     9201    1   DCL C SBIN;
     1494     9202    1   DCL P$ PTR;
     1495     9203    1   DCL J REDEF P$ SBIN;
     1496     9204    1   DCL I SBIN;
     1497     9205    1   DCL 1 CHC STATIC,
     1498     9206    1         2 U00 BIT(3),
     1499     9207    1         2 U01 BIT(3),
     1500     9208    1         2 U02 BIT(3),
     1501     9209    1         2 U1,
     1502     9210    1           3 H UBIN(6) UNAL,
     1503     9211    1           3 L BIT(3),
     1504     9212    1         2 U2,
     1505     9213    1           3 H UBIN(6) UNAL,
     1506     9214    1           3 L BIT(3),
     1507     9215    1         2 U3,
     1508     9216    1           3 H UBIN(6) UNAL,
     1509     9217    1           3 L BIT(3);
     1510     9218    1   DCL CH REDEF CHC CHAR(4);
     1511     9219    1   DCL DATA UBIN BASED;
     1512     9220    1   DCL DATA_LENGTH UBIN WORD;
     1513     9221    1   DCL DATA_FIELD BIT(DATA_LENGTH) BASED ALIGNED;
     1514     9222    1   DCL 1 TC BASED ALIGNED,
     1515     9223    1         2 C UBIN(9) UNAL,
     1516     9224    1         2 T CHAR(TC.C);
     1517     9225    1   DCL 1 SEG BASED ALIGNED,
     1518     9226    1         2 * BIT(18),
     1519     9227    1         2 SEG UBIN(18) UNAL;
     1520     9228        %P$LIT(NAME=LIT,STCLASS="BASED(NODE_.NEXT$)",LEN=LIT.COUNT);
     1521     9281        %P$SYM(NAME=NODES,STCLASS="BASED(NODE_.NEXT$)",LEN=NODES.COUNT);
     1522     9360        %P$DSTR(NAME=NODED,STCLASS="BASED(NODE_.NEXT$)");
     1523     9404    1   DCL NODEC BASED CHAR(C);
     1524     9405        %P$NODE(NAME=NODE,STCLASS="BASED(NODE_.NEXT$)");
PL6.E3A0      #002=XUP$BLDNODE File=XUP$PARTRGE.:E05TSI                          WED 07/30/97 09:40 Page:290
     1525     9499        %SUB OPTION=1/*OPTION*/;
     1526     9500        %SUB ALTERN=2/*ALTERN*/;
     1527     9501        %SUB REPEAT=3/*REPEAT*/;
     1528     9502        %SUB KONCAT=4/*KONCAT*/;
     1529     9503        %SUB LIST=5/*LIST*/;
     1530     9504        %SUB REDUCE=6/*REDUCE*/;
     1531     9505        %SUB LITERAL=7/*LITERAL*/;
     1532     9506        %SUB GENERIC_DSTRING=8/*Generic DSTRING*/;
     1533     9507        %SUB BLANK=9/*BLANK*/;
     1534     9508        %SUB XTERN=10/*XTERN*/;
     1535     9509        %SUB EOL=11/*EOL*/;
     1536     9510        %SUB FID=12/*FID*/;
     1537     9511        %SUB QUOTE=13/*QUOTE*/;
     1538     9512        %SUB SLASH=14/*SLASH*/;
     1539     9513        %SUB CONNECT=45/*CONNECT*/;
     1540     9514        %SUB XTRASYM=30/*XTRASYM*/;
     1541     9515        %SUB SYMSIZ=31/*SYMSIZ*/;
     1542     9516        %SUB NAMENUM=40/*NAMENUM*/;
     1543     9517        %EJECT;
PL6.E3A0      #002=XUP$BLDNODE File=XUP$PARTRGE.:E05TSI                          WED 07/30/97 09:40 Page:291
     1544     9518    1   DCL CTRAN(0:30) CONSTANT SBIN INIT(0,0,%TYPE_ALTERN#,0,%TYPE_KONCAT#,
     1545     9519    1      %TYPE_LIST#,%TYPE_RALTERN#,%TYPE_LITERAL#,%TYPE_LEXEME#*18,0*0);
     1546     9520    1   DCL LEXTRAN (0:30) CONSTANT SBIN INIT(0*8, %LEX_DSTRING#, %LEX_BLANK#, 0, %LEX_END#,
     1547     9521    1      %LEX_FID#, %LEX_DSTRING#*2, %LEX_DECIMAL#, %LEX_OCTAL#, %LEX_SYMBOL#,
     1548     9522    1      %LEX_ALPHA#, %LEX_ASYM#, %LEX_ACCOUNT#, %LEX_ANUMERIC#, %LEX_PL6SYM#,
     1549     9523    1      %LEX_HEX#, %LEX_JOBNAME#, %LEX_NULL#, 0*0);
     1550     9524              /* NOTE: THE ENTRIES IN THIS TABLE MUST BE ORDERED AS IN THE NODES.*/
     1551     9525                    /*  BEGIN PROCEDURE  **/
     1552     9526    1      C=OUT$BLK.CODE;
     1553     9527    1      FLAG=-1;
     1554     9528    1      OUT$=ADDR(OUT$);
     1555     9529    1      IF NODE_.SEG.SEG=ADDR(OUT$)->SEG.SEG THEN FLAG=1;/*0=NAME,1=NOT*/
     1556     9530    1      IF SYM_.SEG.SEG=ADDR(OUT$)->SEG.SEG THEN FLAG=0;/*0=NAME,1=NOT*/
     1557     9531    1      IF C<=0 THEN C=KONCAT;
     1558     9532    1      IF C=OPTION OR C=REPEAT OR C=XTRASYM OR (OUT$BLK.NSUBLKS=2
     1559     9533    1        AND (OUT$BLK.SUBLK$(1)->OUT_BLK.CODE=CONNECT
     1560     9534    2        OR OUT$BLK.SUBLK$(1)->OUT_BLK.CODE=SYMSIZ)) THEN DO;
     1561     9535    2         IF FLAG=0 THEN P$=ADDR(OUT$);
     1562     9536    2         ELSE P$=ADDR(P$);
     1563     9537    2         IF OUT$BLK.NSUBLKS=1 OR C>=KONCAT
     1564     9538    2         THEN CALL XUP$BLDNODE(OUT$BLK.SUBLK$(0)->DATA,P$->DATA);
     1565     9539    3         ELSE DO;
     1566     9540    3            OUT$BLK.CODE=KONCAT;
     1567     9541    3            CALL XUP$BLDNODE(OUT$BLK,P$->DATA);
     1568     9542    3            END;
     1569     9543    2         IF FLAG~=0 THEN OUT$=P$;
     1570     9544    2         ELSE P$=OUT$;
     1571     9545    3         DO SELECT(C);
     1572     9546    3            SELECT(OPTION);
     1573     9547    3            P$->NODE.OPT='1'B;
     1574     9548    3            SELECT(REPEAT);
     1575     9549    3            P$->NODE.RPEAT='1'B;
     1576     9550    3            SELECT(KONCAT);
     1577     9551    3            IF OUT$BLK.SUBLK$(1)->OUT_BLK.CODE=CONNECT THEN P$->NODES.SKBL='0'B;
     1578     9552    4            ELSE DO;
     1579     9553    4               CALL CHARBIN(C,OUT$BLK.SUBLK$(1)->OUT$SYM.TEXT);
     1580     9554    4               P_PCB.HI_CHAR=OUT$BLK.SUBLK$(1)->OUT_BLK.CPOS;
PL6.E3A0      #002=XUP$BLDNODE File=XUP$PARTRGE.:E05TSI                          WED 07/30/97 09:40 Page:292
     1581     9555    4               IF C>511 THEN UNWIND TO SYNTAXERR;
     1582     9556    4               P$->NODES.MAXL=C;
     1583     9557    4               IF P$ -> NODES.LEXTYPE ~= %LEX_DSTRING# AND NOT P$ -> NODES.XTRA
     1584     9558    5               THEN DO;
     1585     9559    5                  P$ -> NODES.XTRA = '1'B;
     1586     9560    5                  P$ -> NODES.COUNT = 0;
     1587     9561    5                  NODE_.NEXT$ = PINCRW(P$, SIZEW(P$ -> NODES));
     1588     9562    5                  END;
     1589     9563    4               END;
     1590     9564    3            SELECT(XTRASYM);
     1591     9565    3            P$=OUT$BLK.SUBLK$(1)->OUT_BLK.SUBLK$(0);
     1592     9566    3            TMPLIT.C=0;
     1593     9567    3            I=0;
     1594     9568    4            DO WHILE (I<P$->TC.C);
     1595     9569    4               CH=SUBSTR(P$->TC.T,I,1);
     1596     9570    5               IF CH='#' AND I+3<P$->TC.C THEN DO;
     1597     9571    5                  CH=SUBSTR(P$->TC.T,I,4);
     1598     9572    6                  IF CHC.U1.H=6 AND CHC.U2.H=6 AND CHC.U3.H=6 THEN DO;
     1599     9573    6                     CHC.U00=CHC.U1.L;
     1600     9574    6                     CHC.U01=CHC.U2.L;
     1601     9575    6                     CHC.U02=CHC.U3.L;
     1602     9576    6                     I=I+3;
     1603     9577    6                     END;
     1604     9578    5                  END;
     1605     9579    4               TMPLIT.T(TMPLIT.C)=CH;
     1606     9580    4               TMPLIT.C=TMPLIT.C+1;
     1607     9581    4               I=I+1;
     1608     9582    4               END;
     1609     9583    4            IF (OUT$->NODE.TYPE=%TYPE_LEXEME# AND OUT$->NODES.LEXTYPE = %LEX_DSTRING#)
              9583                     OR TMPLIT.C=0 THEN DO;
     1610     9584    4               OUT$->NODED.DLIM=CH;
     1611     9585    4               P_PCB.HI_CHAR=OUT$BLK.SUBLK$(1)->OUT_BLK.CPOS;
     1612     9586    4               IF TMPLIT.C~=1 THEN UNWIND TO SYNTAXERR;
     1613     9587    4               END;
     1614     9588    4            ELSE DO;
     1615     9589    4               IF POFFW(OUT$,NODE_.FIRST$)+TMPLIT.C/4>=NODE_.SIZE
     1616     9590    4               THEN CALL M$GDS(NODEFPT) ALTRET(NOCORE);
PL6.E3A0      #002=XUP$BLDNODE File=XUP$PARTRGE.:E05TSI                          WED 07/30/97 09:40 Page:293
     1617     9591    4               IF NOT OUT$ -> NODES.XTRA
     1618     9592    4               THEN
     1619     9593    4                  OUT$ -> NODES.MAXL = 0;
     1620     9594    4               OUT$->NODES.XTRA='1'B;
     1621     9595    4               OUT$->NODES.COUNT=TMPLIT.C;
     1622     9596    4               OUT$->NODES.TEXT=TMPLIT.TXT;
     1623     9597    4               NODE_.NEXT$=PINCRW(OUT$,SIZEW(OUT$ -> NODES));
     1624     9598    4               END;
     1625     9599    3            END;
     1626     9600    2         GOTO DUPCHK;
     1627     9601    2         END;
     1628     9602    2      IF C=NAMENUM THEN DO;
     1629     9603    3         IF FLAG<=0 THEN DO;/* NAME=NAME*/
     1630     9604    3            OPTBLK.CODE = KONCAT;
     1631     9605    3            OPTBLK.NSUBLKS = 1;
     1632     9606    3            OPTBLK.SUBLK$(0) = ADDR(OUT$BLK);
     1633     9607    3            CALL XUP$BLDNODE(OPTBLK,OUT$);
     1634     9608    3            END;
     1635     9609    2         ELSE CALL XUP$BLDSYM(OUT$BLK,OUT$);
     1636     9610    2         RETURN;
     1637     9611    2         END;
     1638     9612    1      ELSE IF C*FLAG>LITERAL THEN
     1639     9613    2            IF LEXES$(C)~=ADDR(NIL) THEN DO;
     1640     9614    2               OUT$=LEXES$(C);
     1641     9615    2               RETURN;
     1642     9616    2               END;
     1643     9617    1            ELSE LEXES$(C)=NODE_.NEXT$;
     1644     9618    2      DO CASE(C);
     1645     9619    2      CASE(ALTERN,KONCAT,LIST,REDUCE);
     1646     9620    2         I=OUT$BLK.NSUBLKS;
     1647     9621    2      CASE(LITERAL);
     1648     9622    2         I=(OUT$BLK.SUBLK$(0)->TC.C)/4+1;
     1649     9623    2      CASE(QUOTE,SLASH,GENERIC_DSTRING);
     1650     9624    2         I=1;
     1651     9625    2      CASE(XTERN);
     1652     9626    2         IF ADDR(OUT$BLK) ~= P_PCB.OUT$->OUT_BLK.SUBLK$(1)
     1653     9627    3         THEN DO;
PL6.E3A0      #002=XUP$BLDNODE File=XUP$PARTRGE.:E05TSI                          WED 07/30/97 09:40 Page:294
     1654     9628    3            P_PCB.HI_CHAR = OUT$BLK.CPOS-1;
     1655     9629    3            UNWIND TO SYNTAXERR;
     1656     9630    3            END;
     1657     9631    2         ALTRETURN;
     1658     9632    2      CASE(ELSE);
     1659     9633    2         I=0;
     1660     9634    2      END;
     1661     9635    2      IF I=1 AND (C=KONCAT OR C=ALTERN) AND FLAG>0 THEN DO;/* UNNEEDED KONCAT */
     1662     9636    2         CALL XUP$BLDNODE(OUT$BLK.SUBLK$(0)->DATA,OUT$);
     1663     9637    2         RETURN;
     1664     9638    2         END;
     1665     9639    1      IF POFFW(NODE_.NEXT$,NODE_.FIRST$)+I>=NODE_.SIZE
     1666     9640    1      THEN CALL M$GDS(NODEFPT) ALTRET(NOCORE);
     1667     9641    1      DATA_LENGTH = (I+1) * 36;
     1668     9642    1      NODE_.NEXT$ -> DATA_FIELD = '0'B;
     1669     9643    1      NODE.TYPE=CTRAN(C);
     1670     9644    1      IF NODE.TYPE = %TYPE_LEXEME#
     1671     9645    1      THEN
     1672     9646    1         NODES.LEXTYPE = LEXTRAN(C);
     1673     9647    1      NODES.SKBL='1'B;
     1674     9648    1      IF C>=FID THEN NODE.O_F='1'B;
     1675     9649    1      OUT$=NODE_.NEXT$;
     1676     9650    1      IF C~=LITERAL THEN GOTO NOTALITERAL;
     1677     9651    1      LIT.ABREV=0;
     1678     9652    1      LIT.COUNT=OUT$BLK.SUBLK$(0)->TC.C;
     1679     9653    1      LIT.TEXT=OUT$BLK.SUBLK$(0)->TC.T;
     1680     9654    2      DO I=0 TO LIT.COUNT-1;
     1681     9655    2         IF SUBSTR(LIT.TEXT,I,1)<='Z'
     1682     9656    2           AND SUBSTR(LIT.TEXT,I,1)>='A'
     1683     9657    2         THEN LIT.UPRLOWR='1'B;
     1684     9658    2         END;
     1685     9659    1      I=0;
     1686     9660    2      IF LIT.COUNT>1 THEN DO;
     1687     9661    3         IF SUBSTR(LIT.TEXT,0,1)='=' THEN DO; /* UC ONLY */
     1688     9662    3            LIT.UPRLOWR='0'B;
     1689     9663    3            CALL INSERT1;
     1690     9664    3            END;
PL6.E3A0      #002=XUP$BLDNODE File=XUP$PARTRGE.:E05TSI                          WED 07/30/97 09:40 Page:295
     1691     9665    3         DO WHILE (I<LIT.COUNT);
     1692     9666    4            IF SUBSTR(LIT.TEXT,I,1)='/' THEN DO;
     1693     9667    4               CALL INSERT1; /* SLASH - CHECK FOR ABBREVIATION */
     1694     9668    5               IF SUBSTR(LIT.TEXT,I,1)~='/' THEN DO;
     1695     9669    5                  LIT.ABREV=I;
     1696     9670    5                  I=I-1;
     1697     9671    5                  END;
     1698     9672    4               END;
     1699     9673    4            ELSE IF SUBSTR(LIT.TEXT,I,1)='#' AND I+3<LIT.COUNT THEN DO; /* OCTAL */
     1700     9674    4                  CH=SUBSTR(LIT.TEXT,I,4);
     1701     9675    5                  IF CHC.U1.H=6 AND CHC.U2.H=6 AND CHC.U3.H=6 THEN DO;
     1702     9676    5                     CHC.U00=CHC.U1.L;
     1703     9677    5                     CHC.U01=CHC.U2.L;
     1704     9678    5                     CHC.U02=CHC.U3.L;
     1705     9679    5                     CALL INSERT1;
     1706     9680    5                     CALL INSERT1;
     1707     9681    5                     CALL INSERT1;
     1708     9682    5                     CALL INSERT(LIT.TEXT,I,1,SUBSTR(CH,0,1));
     1709     9683    5                     END;
     1710     9684    4                  END;
     1711     9685    3            I=I+1;
     1712     9686    3            END;
     1713     9687    3         IF FLAG ~= 0 AND LIT_PRESENT THEN DO;
     1714     9688    3            NODE.CODE=LITCODE;
     1715     9689    3            NODE.O_F='1'B;
     1716     9690    3            LITCODE=LITCODE+1;
     1717     9691    3            END;
     1718     9692    2         END;
     1719     9693    2      IF LIT.COUNT=0 THEN DO;
     1720     9694    2         P_PCB.HI_CHAR=OUT$BLK.CPOS;
     1721     9695    2         UNWIND TO SYNTAXERR;
     1722     9696    2         END;
     1723     9697    1      NODE_.NEXT$=PINCRW(NODE_.NEXT$,SIZEW(LIT));
     1724     9698    1      GOTO DUPCHK;
     1725     9699    1   INSERT1:PROC;
     1726     9700    2      CALL INSERT(LIT.TEXT,I,LIT.COUNT-I,SUBSTR(LIT.TEXT,I+1));
     1727     9701    2      LIT.COUNT=LIT.COUNT-1;
PL6.E3A0      #002=XUP$BLDNODE File=XUP$PARTRGE.:E05TSI                          WED 07/30/97 09:40 Page:296
     1728     9702    2   END INSERT1;
     1729     9703        %EJECT;
PL6.E3A0      #002=XUP$BLDNODE File=XUP$PARTRGE.:E05TSI                          WED 07/30/97 09:40 Page:297
     1730     9704    1   NOTALITERAL:;
     1731     9705                    /* THE NODE IS NOT A LITERAL SO GENERATE ITS SUBNODES */
     1732     9706    1      NODE_.NEXT$=PINCRW(NODE_.NEXT$,I+1);
     1733     9707    2      DO CASE(C);
     1734     9708    2      CASE(KONCAT,LIST,ALTERN,REDUCE);
     1735     9709    2         J=0;
     1736     9710    2         OUT$->NODE.NSUBNDS=I;
     1737     9711    3         DO WHILE (J<I);
     1738     9712    3            CALL XUP$BLDNODE(OUT$BLK.SUBLK$(J)->DATA,OUT$->NODE.SUBNDS$(J));
     1739     9713    3            J=J+1;
     1740     9714    3            END;
     1741     9715    2      CASE(QUOTE);
     1742     9716    2         OUT$->NODED.DLIM='''';
     1743     9717    2      CASE(SLASH);
     1744     9718    2         OUT$->NODED.DLIM='/';
     1745     9719    2      CASE(GENERIC_DSTRING);
     1746     9720    2         OUT$->NODED.DLIM=BINASC(0);
     1747     9721    2      END;
     1748     9722    1      IF C>=LITERAL THEN RETURN;
     1749     9723        %EJECT;
PL6.E3A0      #002=XUP$BLDNODE File=XUP$PARTRGE.:E05TSI                          WED 07/30/97 09:40 Page:298
     1750     9724    1   DUPCHK:;
     1751     9725    2      DO CASE(OUT$->NODE.TYPE);
     1752     9726    2      CASE(%TYPE_LITERAL#);
     1753     9727    2         C=LENGTHC(OUT$ -> LIT);
     1754     9728    2      CASE(%TYPE_ALTERN#,%TYPE_KONCAT#,%TYPE_LIST#,%TYPE_RALTERN#);
     1755     9729    2         C=OUT$->NODE.NSUBNDS*4+4;
     1756     9730    2      CASE(%TYPE_LEXEME#);
     1757     9731    3         DO CASE (OUT$ -> NODES.LEXTYPE);
     1758     9732    3         CASE (%LEX_BLANK#, %LEX_END#);
     1759     9733    3            C = 4;
     1760     9734    3         CASE (%LEX_DSTRING#);
     1761     9735    3            C = LENGTHC(OUT$ -> NODED);
     1762     9736    3         CASE (ELSE);
     1763     9737    3            IF OUT$->NODES.XTRA THEN C=LENGTHC(OUT$ -> NODES);
     1764     9738    3            ELSE C=4;
     1765     9739    3         END;
     1766     9740    2      END;
     1767     9741    1      J=(C+3)/4;
     1768     9742              /* IF NO SUBNODES WERE GENERATED, MAYBE THERE IS ALREADY THIS NODE */
     1769     9743    1      IF POFFW(NODE_.NEXT$,OUT$)~=J*FLAG THEN RETURN;
     1770     9744    1      P$=NODE_.FIRST$;
     1771     9745    2      DO WHILE (P$<OUT$);
     1772     9746    3         IF OUT$->NODEC=P$->NODEC THEN DO; /* FOUND IT */
     1773     9747    3            NODE_.NEXT$=OUT$;
     1774     9748    3            OUT$=P$;
     1775     9749    3            RETURN;
     1776     9750    3            END;
     1777     9751    3         DO CASE (P$ -> NODE.TYPE);
     1778     9752    3         CASE (%TYPE_LITERAL#);
     1779     9753    3            P$ = PINCRW(P$, (LENGTHC(P$ -> LIT)+3)/4);
     1780     9754    3         CASE (%TYPE_LEXEME#);
     1781     9755    4            DO CASE (P$ -> NODES.LEXTYPE);
     1782     9756    4            CASE (%LEX_BLANK#, %LEX_END#);
     1783     9757    4               P$ = PINCRW(P$, 1);
     1784     9758    4            CASE (%LEX_DSTRING#);
     1785     9759    4               P$ = PINCRW(P$, 2);
     1786     9760    4            CASE (ELSE);
PL6.E3A0      #002=XUP$BLDNODE File=XUP$PARTRGE.:E05TSI                          WED 07/30/97 09:40 Page:299
     1787     9761    4               IF P$ -> NODES.XTRA
     1788     9762    4               THEN
     1789     9763    4                  P$ = PINCRW(P$, (LENGTHC(P$ -> NODES)+3)/4);
     1790     9764    4               ELSE
     1791     9765    4                  P$ = PINCRW(P$, 1);
     1792     9766
     1793     9767    4            END;
     1794     9768    3         CASE (ELSE);
     1795     9769    3            P$ = PINCRW(P$, P$ -> NODE.NSUBNDS + 1);
     1796     9770
     1797     9771    3         END;
     1798     9772    2         END;
     1799     9773    1      RETURN;
     1800     9774    1   NOCORE:UNWIND TO NOCORERR;
     1801     9775    1   END XUP$BLDNODE;
     1802     9776        %EOD;

PL6.E3A0      #002=XUP$BLDNODE File=XUP$PARTRGE.:E05TSI                          WED 07/30/97 09:40 Page:300
--  Include file information  --

   XU_SUBS_C.:E05TOU  is referenced.
   XU_MACRO_C.:E05TOU  is referenced.
   CP_6_C.:E05TOU  is referenced.
   CP_6.:E05TOU  cannot be made into a system file and is referenced.
      No diagnostics issued in procedure XUP$BLDNODE.

   Procedure XUP$BLDNODE requires 898 words for executable code.
   Procedure XUP$BLDNODE requires 20 words of local(AUTO) storage.

PL6.E3A0      #002=XUP$BLDNODE File=XUP$PARTRGE.:E05TSI                          WED 07/30/97 09:40 Page:301

 Object Unit name= XUP$BLDNODE                                File name= XUP$PARTRGE.:E05TOU
 UTS= JUL 30 '97 09:40:52.28 WED                              Compiler= PL-6/E31         Sev=      00
 SharedLib= :SHARED_SYSTEM                                    Alt SharedLib=


    ****  Control sections  ****

 Sect   Type Bound  Init  Size OctSiz  Section name(segment info)
    0   DCB   even  none     0      0  M$UC
    1   Data  even  none   130    202  XUP$BLDNODE
    2  RoData even  UTS     62     76  XUP$BLDNODE
    3   Proc  even  none   898   1602  XUP$BLDNODE
    4  RoData even  none    10     12  XUP$BLDNODE

    ****  Entry defs  ****

                              Check   Calling
                             calling  sequence
  Sect OctLoc Primary Altret sequence   type   Parms  Name
     3      0   yes    yes     yes      Std        2  XUP$BLDNODE

  ****  Entry refs  ****

         Check        Calling
        calling       sequence
Altret sequence SRef   type   Args  Name
 yes     yes           Std       2 XUP$BLDSYM
                       nStd      0 X66_AUTO_2
                       Std       0 B_CONSPOOL_D
                       nStd      0 X66_AUNWIND
                       nStd      0 X66_ARET
                       nStd      0 X66_AALT
PL6.E3A0      #002=XUP$BLDNODE File=XUP$PARTRGE.:E05TSI                          WED 07/30/97 09:40 Page:302

  ****  Data refs  ****

  Flags:  r = read only, s = secondary
Flgs Name                             Flgs Name                             Flgs Name
     M$UC                                  NOCORERR                              SYNTAXERR
     P_PCB                                 NODEFPT                               LEXES$
     LITCODE                               LIT_PRESENT                           SYM_
     NODE_                                 B_VECTNIL
PL6.E3A0      #002=XUP$BLDNODE File=XUP$PARTRGE.:E05TSI                          WED 07/30/97 09:40 Page:303


     1451        1        /*T***********************************************************/
     1452        2        /*T*                                                         */
     1453        3        /*T* Copyright (c) Bull HN Information Systems Inc., 1997    */
     1454        4        /*T*                                                         */
     1455        5        /*T***********************************************************/
     1456        6        XUP$BLDNODE:PROC(OUT$BLK,OUT$) ALTRET;

      6  3 000000   000000 700200 xent  XUP$BLDNODE  TSX0  ! X66_AUTO_2
         3 000001   000024 000002                    ZERO    20,2

     1457        7        %INCLUDE CP_6;
     1458     5566    1   DCL NOCORERR REMEMBER SYMREF;
     1459     5567    1   DCL SYNTAXERR REMEMBER SYMREF;
     1460     5568    1   DCL XUP$BLDSYM ENTRY(2) ALTRET;
     1461     5569                    /* INCLUDES:*/
     1462     5570        %INCLUDE XU_MACRO_C;
     1463     8676        %INCLUDE XU_SUBS_C;
     1464     8768                    /* STATIC DATA */
     1465     8769        %PARSE$OUT(STCLASS=BASED,NAME=OUT_BLK);
     1466     8814        %PARSE$OUT(STCLASS=" ");
     1467     8859        %PARSE$OUT(NAME=OPTBLK, STCLASS=AUTO);
     1468     8904        %PARSE$SYM(STCLASS=BASED);
     1469     8942        %P$PCB(NAME=P_PCB,STCLASS=SYMREF);
     1470     9143        %FPT_GDS (FPTN=NODEFPT, STCLASS=SYMREF);
     1471     9159    1   DCL LEXES$(0:29) PTR SYMREF;
     1472     9160    1   DCL 1 TMPLIT STATIC, /* SPACE FOR NAMED LITERAL TEXT */
     1473     9161    1         2 C SBIN,
     1474     9162    1         2 T (0:510) CHAR (1) CALIGNED,
     1475     9163    1         2 TXT REDEF T CHAR (511);
     1476     9164    1   DCL LITCODE SBIN SYMREF;
     1477     9165    1   DCL LIT_PRESENT BIT(1) SYMREF;
     1478     9166        %MACRO REC(NAME=);
     1479     9167        DCL 1 NAME DALIGNED SYMREF,
     1480     9168              2 SIZE UBIN(18),
     1481     9169              2 FIRST$ PTR,
     1482     9170              2 SEG REDEF FIRST$,
PL6.E3A0      #002=XUP$BLDNODE File=XUP$PARTRGE.:E05TSI                          WED 07/30/97 09:40 Page:304
     1483     9171                3 * BIT(18),
     1484     9172                3 SEG UBIN(18) UNAL,
     1485     9173              2 F$SBIN REDEF FIRST$ UBIN,
     1486     9174              2 P$ PTR,
     1487     9175              2 NEXT$ PTR;
     1488     9176        %MEND;
     1489     9177        %REC(NAME=SYM_);
     1490     9188        %REC(NAME=NODE_);
     1491     9199    1   DCL OUT$ PTR;
     1492     9200    1   DCL FLAG SBIN;
     1493     9201    1   DCL C SBIN;
     1494     9202    1   DCL P$ PTR;
     1495     9203    1   DCL J REDEF P$ SBIN;
     1496     9204    1   DCL I SBIN;
     1497     9205    1   DCL 1 CHC STATIC,
     1498     9206    1         2 U00 BIT(3),
     1499     9207    1         2 U01 BIT(3),
     1500     9208    1         2 U02 BIT(3),
     1501     9209    1         2 U1,
     1502     9210    1           3 H UBIN(6) UNAL,
     1503     9211    1           3 L BIT(3),
     1504     9212    1         2 U2,
     1505     9213    1           3 H UBIN(6) UNAL,
     1506     9214    1           3 L BIT(3),
     1507     9215    1         2 U3,
     1508     9216    1           3 H UBIN(6) UNAL,
     1509     9217    1           3 L BIT(3);
     1510     9218    1   DCL CH REDEF CHC CHAR(4);
     1511     9219    1   DCL DATA UBIN BASED;
     1512     9220    1   DCL DATA_LENGTH UBIN WORD;
     1513     9221    1   DCL DATA_FIELD BIT(DATA_LENGTH) BASED ALIGNED;
     1514     9222    1   DCL 1 TC BASED ALIGNED,
     1515     9223    1         2 C UBIN(9) UNAL,
     1516     9224    1         2 T CHAR(TC.C);
     1517     9225    1   DCL 1 SEG BASED ALIGNED,
     1518     9226    1         2 * BIT(18),
     1519     9227    1         2 SEG UBIN(18) UNAL;
PL6.E3A0      #002=XUP$BLDNODE File=XUP$PARTRGE.:E05TSI                          WED 07/30/97 09:40 Page:305
     1520     9228        %P$LIT(NAME=LIT,STCLASS="BASED(NODE_.NEXT$)",LEN=LIT.COUNT);
     1521     9281        %P$SYM(NAME=NODES,STCLASS="BASED(NODE_.NEXT$)",LEN=NODES.COUNT);
     1522     9360        %P$DSTR(NAME=NODED,STCLASS="BASED(NODE_.NEXT$)");
     1523     9404    1   DCL NODEC BASED CHAR(C);
     1524     9405        %P$NODE(NAME=NODE,STCLASS="BASED(NODE_.NEXT$)");
     1525     9499        %SUB OPTION=1/*OPTION*/;
     1526     9500        %SUB ALTERN=2/*ALTERN*/;
     1527     9501        %SUB REPEAT=3/*REPEAT*/;
     1528     9502        %SUB KONCAT=4/*KONCAT*/;
     1529     9503        %SUB LIST=5/*LIST*/;
     1530     9504        %SUB REDUCE=6/*REDUCE*/;
     1531     9505        %SUB LITERAL=7/*LITERAL*/;
     1532     9506        %SUB GENERIC_DSTRING=8/*Generic DSTRING*/;
     1533     9507        %SUB BLANK=9/*BLANK*/;
     1534     9508        %SUB XTERN=10/*XTERN*/;
     1535     9509        %SUB EOL=11/*EOL*/;
     1536     9510        %SUB FID=12/*FID*/;
     1537     9511        %SUB QUOTE=13/*QUOTE*/;
     1538     9512        %SUB SLASH=14/*SLASH*/;
     1539     9513        %SUB CONNECT=45/*CONNECT*/;
     1540     9514        %SUB XTRASYM=30/*XTRASYM*/;
     1541     9515        %SUB SYMSIZ=31/*SYMSIZ*/;
     1542     9516        %SUB NAMENUM=40/*NAMENUM*/;
     1543     9517        %EJECT;
PL6.E3A0      #002=XUP$BLDNODE File=XUP$PARTRGE.:E05TSI                          WED 07/30/97 09:40 Page:306
     1544     9518    1   DCL CTRAN(0:30) CONSTANT SBIN INIT(0,0,%TYPE_ALTERN#,0,%TYPE_KONCAT#,
     1545     9519    1      %TYPE_LIST#,%TYPE_RALTERN#,%TYPE_LITERAL#,%TYPE_LEXEME#*18,0*0);
     1546     9520    1  DCL LEXTRAN (0:30) CONSTANT SBIN INIT(0*8, %LEX_DSTRING#, %LEX_BLANK#, 0, %LEX_END#,
     1547     9521    1      %LEX_FID#, %LEX_DSTRING#*2, %LEX_DECIMAL#, %LEX_OCTAL#, %LEX_SYMBOL#,
     1548     9522    1      %LEX_ALPHA#, %LEX_ASYM#, %LEX_ACCOUNT#, %LEX_ANUMERIC#, %LEX_PL6SYM#,
     1549     9523    1      %LEX_HEX#, %LEX_JOBNAME#, %LEX_NULL#, 0*0);
     1550     9524              /* NOTE: THE ENTRIES IN THIS TABLE MUST BE ORDERED AS IN THE NODES.*/
     1551     9525                    /*  BEGIN PROCEDURE  **/
     1552     9526    1      C=OUT$BLK.CODE;

   9526  3 000002   200003 470500                    LDP0    @OUT$BLK,,AUTO
         3 000003   000000 236100                    LDQ     0,,PR0
         3 000004   777777 376007                    ANQ     -1,DL
         3 000005   200012 756100                    STQ     C,,AUTO

     1553     9527    1      FLAG=-1;

   9527  3 000006   000001 335007                    LCA     1,DL
         3 000007   200011 755100                    STA     FLAG,,AUTO

     1554     9528    1      OUT$=ADDR(OUT$);

   9528  3 000010   200004 236100                    LDQ     @OUT$,,AUTO
         3 000011   200004 471500                    LDP1    @OUT$,,AUTO
         3 000012   100000 756100                    STQ     0,,PR1

     1555     9529    1      IF NODE_.SEG.SEG=ADDR(OUT$)->SEG.SEG THEN FLAG=1;/*0=NAME,1=NOT*/

   9529  3 000013   000001 236000 xsym               LDQ     NODE_+1
         3 000014   100000 676100                    ERQ     0,,PR1
         3 000015   777777 376007                    ANQ     -1,DL
         3 000016   000021 601000 3                  TNZ     s:9530

   9529  3 000017   000001 236007                    LDQ     1,DL
         3 000020   200011 756100                    STQ     FLAG,,AUTO

     1556     9530    1      IF SYM_.SEG.SEG=ADDR(OUT$)->SEG.SEG THEN FLAG=0;/*0=NAME,1=NOT*/
PL6.E3A0      #002=XUP$BLDNODE File=XUP$PARTRGE.:E05TSI                          WED 07/30/97 09:40 Page:307

   9530  3 000021   000001 236000 xsym               LDQ     SYM_+1
         3 000022   100000 676100                    ERQ     0,,PR1
         3 000023   777777 376007                    ANQ     -1,DL
         3 000024   000026 601000 3                  TNZ     s:9531

   9530  3 000025   200011 450100                    STZ     FLAG,,AUTO

     1557     9531    1      IF C<=0 THEN C=KONCAT;

   9531  3 000026   200012 236100                    LDQ     C,,AUTO
         3 000027   000032 605400 3                  TPNZ    s:9532

   9531  3 000030   000004 235007                    LDA     4,DL
         3 000031   200012 755100                    STA     C,,AUTO

     1558     9532    1      IF C=OPTION OR C=REPEAT OR C=XTRASYM OR (OUT$BLK.NSUBLKS=2

   9532  3 000032   200012 235100                    LDA     C,,AUTO
         3 000033   000001 115007                    CMPA    1,DL
         3 000034   000052 600000 3                  TZE     s:9535
         3 000035   000003 115007                    CMPA    3,DL
         3 000036   000052 600000 3                  TZE     s:9535
         3 000037   000036 115007                    CMPA    30,DL
         3 000040   000052 600000 3                  TZE     s:9535
         3 000041   000001 220100                    LDX0    1,,PR0
         3 000042   000002 100003                    CMPX0   2,DU
         3 000043   000456 601000 3                  TNZ     s:9602
         3 000044   000004 473500                    LDP3    4,,PR0
         3 000045   300000 721100                    LXL1    0,,PR3
         3 000046   000055 101003                    CMPX1   45,DU
         3 000047   000052 600000 3                  TZE     s:9535
         3 000050   000037 101003                    CMPX1   31,DU
         3 000051   000456 601000 3                  TNZ     s:9602

     1559     9533    1        AND (OUT$BLK.SUBLK$(1)->OUT_BLK.CODE=CONNECT
     1560     9534    2        OR OUT$BLK.SUBLK$(1)->OUT_BLK.CODE=SYMSIZ)) THEN DO;
PL6.E3A0      #002=XUP$BLDNODE File=XUP$PARTRGE.:E05TSI                          WED 07/30/97 09:40 Page:308

     1561     9535    2         IF FLAG=0 THEN P$=ADDR(OUT$);

   9535  3 000052   200011 236100                    LDQ     FLAG,,AUTO
         3 000053   000057 601000 3                  TNZ     s:9536

   9535  3 000054   200004 236100                    LDQ     @OUT$,,AUTO
         3 000055   200013 756100                    STQ     P$,,AUTO
         3 000056   000061 710000 3                  TRA     s:9537

     1562     9536    2         ELSE P$=ADDR(P$);

   9536  3 000057   200013 633500                    EPPR3   P$,,AUTO
         3 000060   200013 453500                    STP3    P$,,AUTO

     1563     9537    2         IF OUT$BLK.NSUBLKS=1 OR C>=KONCAT

   9537  3 000061   000001 220100                    LDX0    1,,PR0
         3 000062   000001 100003                    CMPX0   1,DU
         3 000063   000066 600000 3                  TZE     s:9538
         3 000064   000004 115007                    CMPA    4,DL
         3 000065   000077 604000 3                  TMI     s:9540

     1564     9538    2         THEN CALL XUP$BLDNODE(OUT$BLK.SUBLK$(0)->DATA,P$->DATA);

   9538  3 000066   000003 473500                    LDP3    3,,PR0
         3 000067   200013 236100                    LDQ     P$,,AUTO
         3 000070   200021 756100                    STQ     DATA_LENGTH+4,,AUTO
         3 000071   200020 453500                    STP3    DATA_LENGTH+3,,AUTO
         3 000072   200020 630500                    EPPR0   DATA_LENGTH+3,,AUTO
         3 000073   000020 631400 xsym               EPPR1   B_VECTNIL+16
         3 000074   000000 701000 3                  TSX1    s:6
         3 000075   000000 011000                    NOP     0
         3 000076   000110 710000 3                  TRA     s:9543

     1565     9539    3         ELSE DO;

PL6.E3A0      #002=XUP$BLDNODE File=XUP$PARTRGE.:E05TSI                          WED 07/30/97 09:40 Page:309
     1566     9540    3            OUT$BLK.CODE=KONCAT;

   9540  3 000077   000004 221003                    LDX1    4,DU
         3 000100   000000 441100                    SXL1    0,,PR0

     1567     9541    3            CALL XUP$BLDNODE(OUT$BLK,P$->DATA);

   9541  3 000101   200013 236100                    LDQ     P$,,AUTO
         3 000102   200003 235100                    LDA     @OUT$BLK,,AUTO
         3 000103   200020 757100                    STAQ    DATA_LENGTH+3,,AUTO
         3 000104   200020 630500                    EPPR0   DATA_LENGTH+3,,AUTO
         3 000105   000020 631400 xsym               EPPR1   B_VECTNIL+16
         3 000106   000000 701000 3                  TSX1    s:6
         3 000107   000000 011000                    NOP     0

     1568     9542    3            END;

     1569     9543    2         IF FLAG~=0 THEN OUT$=P$;

   9543  3 000110   200011 235100                    LDA     FLAG,,AUTO
         3 000111   000116 600000 3                  TZE     s:9544

   9543  3 000112   200013 236100                    LDQ     P$,,AUTO
         3 000113   200004 470500                    LDP0    @OUT$,,AUTO
         3 000114   000000 756100                    STQ     0,,PR0
         3 000115   000121 710000 3                  TRA     s:9545

     1570     9544    2         ELSE P$=OUT$;

   9544  3 000116   200004 470500                    LDP0    @OUT$,,AUTO
         3 000117   000000 236100                    LDQ     0,,PR0
         3 000120   200013 756100                    STQ     P$,,AUTO

     1571     9545    3         DO SELECT(C);

   9545  3 000121   200012 236100                    LDQ     C,,AUTO
         3 000122   000003 116007                    CMPQ    3,DL
PL6.E3A0      #002=XUP$BLDNODE File=XUP$PARTRGE.:E05TSI                          WED 07/30/97 09:40 Page:310
         3 000123   000133 604000 3                  TMI     s:9545+10
         3 000124   000142 600000 3                  TZE     s:9549
         3 000125   000004 116007                    CMPQ    4,DL
         3 000126   000455 604000 3                  TMI     s:9600
         3 000127   000146 600000 3                  TZE     s:9551
         3 000130   000036 116007                    CMPQ    30,DL
         3 000131   000455 601000 3                  TNZ     s:9600
         3 000132   000232 710000 3                  TRA     s:9565
         3 000133   000001 116007                    CMPQ    1,DL
         3 000134   000455 601000 3                  TNZ     s:9600
         3 000135   000136 710000 3                  TRA     s:9547

     1572     9546    3            SELECT(OPTION);

     1573     9547    3            P$->NODE.OPT='1'B;

   9547  3 000136   200013 471500                    LDP1    P$,,AUTO
         3 000137   002000 236003                    LDQ     1024,DU
         3 000140   100000 256100                    ORSQ    0,,PR1
         3 000141   000455 710000 3                  TRA     s:9600

     1574     9548    3            SELECT(REPEAT);

     1575     9549    3            P$->NODE.RPEAT='1'B;

   9549  3 000142   200013 471500                    LDP1    P$,,AUTO
         3 000143   001000 236003                    LDQ     512,DU
         3 000144   100000 256100                    ORSQ    0,,PR1
         3 000145   000455 710000 3                  TRA     s:9600

     1576     9550    3            SELECT(KONCAT);

     1577     9551    3            IF OUT$BLK.SUBLK$(1)->OUT_BLK.CODE=CONNECT THEN P$->NODES.SKBL='0'B;

   9551  3 000146   200003 471500                    LDP1    @OUT$BLK,,AUTO
         3 000147   100004 473500                    LDP3    4,,PR1
         3 000150   300000 720100                    LXL0    0,,PR3
PL6.E3A0      #002=XUP$BLDNODE File=XUP$PARTRGE.:E05TSI                          WED 07/30/97 09:40 Page:311
         3 000151   000055 100003                    CMPX0   45,DU
         3 000152   000157 601000 3                  TNZ     s:9553

   9551  3 000153   200013 474500                    LDP4    P$,,AUTO
         3 000154   000000 236000 4                  LDQ     0
         3 000155   400000 356100                    ANSQ    0,,PR4
         3 000156   000455 710000 3                  TRA     s:9600

     1578     9552    4            ELSE DO;

     1579     9553    4               CALL CHARBIN(C,OUT$BLK.SUBLK$(1)->OUT$SYM.TEXT);

   9553  3 000157   300004 236100                    LDQ     4,,PR3
         3 000160   000033 772000                    QRL     27
         3 000161   000000 621006                    EAX1    0,QL
         3 000162   000100 305540                    DTB
         3 000163   300004 230011                    NDSC9   4,,PR3                   cn=1,s=nosgn,sf=0,n=*X1
         3 000164   200012 000004                    NDSC9   C,,AUTO                  cn=0,s=lsgnf,sf=0,n=4

     1580     9554    4               P_PCB.HI_CHAR=OUT$BLK.SUBLK$(1)->OUT_BLK.CPOS;

   9554  3 000165   300002 235100                    LDA     2,,PR3
         3 000166   000012 755000 xsym               STA     P_PCB+10

     1581     9555    4               IF C>511 THEN UNWIND TO SYNTAXERR;

   9555  3 000167   200012 236100                    LDQ     C,,AUTO
         3 000170   000777 116007                    CMPQ    511,DL
         3 000171   000175 604400 3                  TMOZ    s:9556

   9555  3 000172   000000 237200 xsym               LDAQ  ! SYNTAXERR
         3 000173   000000 700200 xent               TSX0  ! X66_AUNWIND
         3 000174   000000 000200                    ZERO    0,128

     1582     9556    4               P$->NODES.MAXL=C;

   9556  3 000175   200013 473500                    LDP3    P$,,AUTO
PL6.E3A0      #002=XUP$BLDNODE File=XUP$PARTRGE.:E05TSI                          WED 07/30/97 09:40 Page:312
         3 000176   000033 736000                    QLS     27
         3 000177   300001 552140                    STBQ    1,'40'O,PR3

     1583     9557    4               IF P$ -> NODES.LEXTYPE ~= %LEX_DSTRING# AND NOT P$ -> NODES.XTRA

   9557  3 000200   200013 473500                    LDP3    P$,,AUTO
         3 000201   300000 236100                    LDQ     0,,PR3
         3 000202   000001 376000 4                  ANQ     1
         3 000203   000001 116000 4                  CMPQ    1
         3 000204   000455 600000 3                  TZE     s:9600
         3 000205   300000 236100                    LDQ     0,,PR3
         3 000206   000040 316003                    CANQ    32,DU
         3 000207   000455 601000 3                  TNZ     s:9600

     1584     9558    5               THEN DO;

     1585     9559    5                  P$ -> NODES.XTRA = '1'B;

   9559  3 000210   000040 236003                    LDQ     32,DU
         3 000211   300000 256100                    ORSQ    0,,PR3

     1586     9560    5                  P$ -> NODES.COUNT = 0;

   9560  3 000212   200013 473500                    LDP3    P$,,AUTO
         3 000213   000000 236003                    LDQ     0,DU
         3 000214   300001 552120                    STBQ    1,'20'O,PR3

     1587     9561    5                  NODE_.NEXT$ = PINCRW(P$, SIZEW(P$ -> NODES));

   9561  3 000215   200013 473500                    LDP3    P$,,AUTO
         3 000216   300001 220100                    LDX0    1,,PR3
         3 000217   000777 360003                    ANX0    511,DU
         3 000220   000006 621010                    EAX1    6,X0
         3 000221   000000 636011                    EAQ     0,X1
         3 000222   000022 772000                    QRL     18
         3 000223   000011 402007                    MPY     9,DL
         3 000224   000043 036007                    ADLQ    35,DL
PL6.E3A0      #002=XUP$BLDNODE File=XUP$PARTRGE.:E05TSI                          WED 07/30/97 09:40 Page:313
         3 000225   000044 506007                    DIV     36,DL
         3 000226   000022 736000                    QLS     18
         3 000227   200013 036100                    ADLQ    P$,,AUTO
         3 000230   000003 756000 xsym               STQ     NODE_+3

     1588     9562    5                  END;

     1589     9563    4               END;

   9563  3 000231   000455 710000 3                  TRA     s:9600

     1590     9564    3            SELECT(XTRASYM);

     1591     9565    3            P$=OUT$BLK.SUBLK$(1)->OUT_BLK.SUBLK$(0);

   9565  3 000232   200003 471500                    LDP1    @OUT$BLK,,AUTO
         3 000233   100004 473500                    LDP3    4,,PR1
         3 000234   300003 236100                    LDQ     3,,PR3
         3 000235   200013 756100                    STQ     P$,,AUTO

     1592     9566    3            TMPLIT.C=0;

   9566  3 000236   000000 450000 1                  STZ     TMPLIT

     1593     9567    3            I=0;

   9567  3 000237   200014 450100                    STZ     I,,AUTO

     1594     9568    4            DO WHILE (I<P$->TC.C);

   9568  3 000240   200013 473500                    LDP3    P$,,AUTO
         3 000241   300000 236100                    LDQ     0,,PR3
         3 000242   000033 772000                    QRL     27
         3 000243   200014 116100                    CMPQ    I,,AUTO
         3 000244   000342 604400 3                  TMOZ    s:9583

     1595     9569    4               CH=SUBSTR(P$->TC.T,I,1);
PL6.E3A0      #002=XUP$BLDNODE File=XUP$PARTRGE.:E05TSI                          WED 07/30/97 09:40 Page:314

   9569  3 000245   200013 470500                    LDP0    P$,,AUTO
         3 000246   000000 236100                    LDQ     0,,PR0
         3 000247   000033 772000                    QRL     27
         3 000250   200014 235100                    LDA     I,,AUTO
         3 000251   040000 100505                    MLR     fill='040'O
         3 000252   000000 200001                    ADSC9   0,A,PR0                  cn=1,n=1
         3 000253   000201 000004 1                  ADSC9   CHC                      cn=0,n=4

     1596     9570    5               IF CH='#' AND I+3<P$->TC.C THEN DO;

   9570  3 000254   000201 236000 1                  LDQ     CHC
         3 000255   000002 116000 4                  CMPQ    2
         3 000256   000330 601000 3                  TNZ     s:9579
         3 000257   000000 236100                    LDQ     0,,PR0
         3 000260   000033 772000                    QRL     27
         3 000261   200020 756100                    STQ     DATA_LENGTH+3,,AUTO
         3 000262   200014 236100                    LDQ     I,,AUTO
         3 000263   000003 036007                    ADLQ    3,DL
         3 000264   200020 116100                    CMPQ    DATA_LENGTH+3,,AUTO
         3 000265   000330 605000 3                  TPL     s:9579

     1597     9571    5                  CH=SUBSTR(P$->TC.T,I,4);

   9571  3 000266   000000 236100                    LDQ     0,,PR0
         3 000267   000033 772000                    QRL     27
         3 000270   040000 100505                    MLR     fill='040'O
         3 000271   000000 200004                    ADSC9   0,A,PR0                  cn=1,n=4
         3 000272   000201 000004 1                  ADSC9   CHC                      cn=0,n=4

     1598     9572    6                  IF CHC.U1.H=6 AND CHC.U2.H=6 AND CHC.U3.H=6 THEN DO;

   9572  3 000273   000201 236000 1                  LDQ     CHC
         3 000274   000770 376003                    ANQ     504,DU
         3 000275   000060 116003                    CMPQ    48,DU
         3 000276   000330 601000 3                  TNZ     s:9579
         3 000277   000201 236000 1                  LDQ     CHC
PL6.E3A0      #002=XUP$BLDNODE File=XUP$PARTRGE.:E05TSI                          WED 07/30/97 09:40 Page:315
         3 000300   770000 376007                    ANQ     -4096,DL
         3 000301   060000 116007                    CMPQ    24576,DL
         3 000302   000330 601000 3                  TNZ     s:9579
         3 000303   000201 236000 1                  LDQ     CHC
         3 000304   000770 376007                    ANQ     504,DL
         3 000305   000060 116007                    CMPQ    48,DL
         3 000306   000330 601000 3                  TNZ     s:9579

     1599     9573    6                     CHC.U00=CHC.U1.L;

   9573  3 000307   000201 236000 1                  LDQ     CHC
         3 000310   000017 736000                    QLS     15
         3 000311   000201 676000 1                  ERQ     CHC
         3 000312   700000 376003                    ANQ     -32768,DU
         3 000313   000201 656000 1                  ERSQ    CHC

     1600     9574    6                     CHC.U01=CHC.U2.L;

   9574  3 000314   000201 236000 1                  LDQ     CHC
         3 000315   000025 736000                    QLS     21
         3 000316   000201 676000 1                  ERQ     CHC
         3 000317   070000 376003                    ANQ     28672,DU
         3 000320   000201 656000 1                  ERSQ    CHC

     1601     9575    6                     CHC.U02=CHC.U3.L;

   9575  3 000321   000201 236000 1                  LDQ     CHC
         3 000322   000033 736000                    QLS     27
         3 000323   000201 676000 1                  ERQ     CHC
         3 000324   007000 376003                    ANQ     3584,DU
         3 000325   000201 656000 1                  ERSQ    CHC

     1602     9576    6                     I=I+3;

   9576  3 000326   000003 236007                    LDQ     3,DL
         3 000327   200014 056100                    ASQ     I,,AUTO

PL6.E3A0      #002=XUP$BLDNODE File=XUP$PARTRGE.:E05TSI                          WED 07/30/97 09:40 Page:316
     1603     9577    6                     END;

     1604     9578    5                  END;

     1605     9579    4               TMPLIT.T(TMPLIT.C)=CH;

   9579  3 000330   000000 235000 1                  LDA     TMPLIT
         3 000331   040005 100400                    MLR     fill='040'O
         3 000332   000201 000001 1                  ADSC9   CHC                      cn=0,n=1
         3 000333   000001 000001 1                  ADSC9   TMPLIT+1,A               cn=0,n=1

     1606     9580    4               TMPLIT.C=TMPLIT.C+1;

   9580  3 000334   000000 054000 1                  AOS     TMPLIT

     1607     9581    4               I=I+1;

   9581  3 000335   200014 054100                    AOS     I,,AUTO

     1608     9582    4               END;

   9582  3 000336   000000 236100                    LDQ     0,,PR0
         3 000337   000033 772000                    QRL     27
         3 000340   200014 116100                    CMPQ    I,,AUTO
         3 000341   000245 605400 3                  TPNZ    s:9569

     1609     9583    4            IF (OUT$->NODE.TYPE=%TYPE_LEXEME# AND OUT$->NODES.LEXTYPE = %LEX_DSTRING#)
              9583                     OR TMPLIT.C=0 THEN DO;

   9583  3 000342   200004 470500                    LDP0    @OUT$,,AUTO
         3 000343   000000 471500                    LDP1    0,,PR0
         3 000344   100000 236100                    LDQ     0,,PR1
         3 000345   700000 376003                    ANQ     -32768,DU
         3 000346   600000 116003                    CMPQ    -65536,DU
         3 000347   000354 601000 3                  TNZ     s:9583+10
         3 000350   100000 236100                    LDQ     0,,PR1
         3 000351   000001 376000 4                  ANQ     1
PL6.E3A0      #002=XUP$BLDNODE File=XUP$PARTRGE.:E05TSI                          WED 07/30/97 09:40 Page:317
         3 000352   000001 116000 4                  CMPQ    1
         3 000353   000356 600000 3                  TZE     s:9584
         3 000354   000000 235000 1                  LDA     TMPLIT
         3 000355   000373 601000 3                  TNZ     s:9589

     1610     9584    4               OUT$->NODED.DLIM=CH;

   9584  3 000356   000201 236000 1                  LDQ     CHC
         3 000357   000011 772000                    QRL     9
         3 000360   100001 552120                    STBQ    1,'20'O,PR1

     1611     9585    4               P_PCB.HI_CHAR=OUT$BLK.SUBLK$(1)->OUT_BLK.CPOS;

   9585  3 000361   200003 471500                    LDP1    @OUT$BLK,,AUTO
         3 000362   100004 473500                    LDP3    4,,PR1
         3 000363   300002 235100                    LDA     2,,PR3
         3 000364   000012 755000 xsym               STA     P_PCB+10

     1612     9586    4               IF TMPLIT.C~=1 THEN UNWIND TO SYNTAXERR;

   9586  3 000365   000000 236000 1                  LDQ     TMPLIT
         3 000366   000001 116007                    CMPQ    1,DL
         3 000367   000455 600000 3                  TZE     s:9600

   9586  3 000370   000000 237200 xsym               LDAQ  ! SYNTAXERR
         3 000371   000000 700200 xent               TSX0  ! X66_AUNWIND
         3 000372   000000 000200                    ZERO    0,128

     1613     9587    4               END;
     1614     9588    4            ELSE DO;

     1615     9589    4               IF POFFW(OUT$,NODE_.FIRST$)+TMPLIT.C/4>=NODE_.SIZE

   9589  3 000373   000001 236000 xsym               LDQ     NODE_+1
         3 000374   000022 772000                    QRL     18
         3 000375   200020 756100                    STQ     DATA_LENGTH+3,,AUTO
         3 000376   000000 236100                    LDQ     0,,PR0
PL6.E3A0      #002=XUP$BLDNODE File=XUP$PARTRGE.:E05TSI                          WED 07/30/97 09:40 Page:318
         3 000377   000022 772000                    QRL     18
         3 000400   200020 136100                    SBLQ    DATA_LENGTH+3,,AUTO
         3 000401   200021 756100                    STQ     DATA_LENGTH+4,,AUTO
         3 000402   000000 236000 1                  LDQ     TMPLIT
         3 000403   000004 506007                    DIV     4,DL
         3 000404   200021 036100                    ADLQ    DATA_LENGTH+4,,AUTO
         3 000405   000000 235000 xsym               LDA     NODE_
         3 000406   000022 771000                    ARL     18
         3 000407   200022 755100                    STA     DATA_LENGTH+5,,AUTO
         3 000410   200022 116100                    CMPQ    DATA_LENGTH+5,,AUTO
         3 000411   000416 604000 3                  TMI     s:9591

     1616     9590    4               THEN CALL M$GDS(NODEFPT) ALTRET(NOCORE);

   9590  3 000412   000000 630400 xsym               EPPR0   NODEFPT
         3 000413   430001 713400                    CLIMB   alt,gds
         3 000414   400400 401760                    pmme    nvectors=2
         3 000415   001577 702000 3                  TSX2    NOCORE

     1617     9591    4               IF NOT OUT$ -> NODES.XTRA

   9591  3 000416   200004 470500                    LDP0    @OUT$,,AUTO
         3 000417   000000 471500                    LDP1    0,,PR0
         3 000420   100000 236100                    LDQ     0,,PR1
         3 000421   000040 316003                    CANQ    32,DU
         3 000422   000425 601000 3                  TNZ     s:9594

     1618     9592    4               THEN
     1619     9593    4                  OUT$ -> NODES.MAXL = 0;

   9593  3 000423   000000 236003                    LDQ     0,DU
         3 000424   100001 552140                    STBQ    1,'40'O,PR1

     1620     9594    4               OUT$->NODES.XTRA='1'B;

   9594  3 000425   000000 471500                    LDP1    0,,PR0
         3 000426   000040 236003                    LDQ     32,DU
PL6.E3A0      #002=XUP$BLDNODE File=XUP$PARTRGE.:E05TSI                          WED 07/30/97 09:40 Page:319
         3 000427   100000 256100                    ORSQ    0,,PR1

     1621     9595    4               OUT$->NODES.COUNT=TMPLIT.C;

   9595  3 000430   000000 471500                    LDP1    0,,PR0
         3 000431   000000 236000 1                  LDQ     TMPLIT
         3 000432   000022 736000                    QLS     18
         3 000433   100001 552120                    STBQ    1,'20'O,PR1

     1622     9596    4               OUT$->NODES.TEXT=TMPLIT.TXT;

   9596  3 000434   000000 471500                    LDP1    0,,PR0
         3 000435   100001 220100                    LDX0    1,,PR1
         3 000436   000777 360003                    ANX0    511,DU
         3 000437   040140 100400                    MLR     fill='040'O
         3 000440   000001 000777 1                  ADSC9   TMPLIT+1                 cn=0,n=511
         3 000441   100001 400010                    ADSC9   1,,PR1                   cn=2,n=*X0

     1623     9597    4               NODE_.NEXT$=PINCRW(OUT$,SIZEW(OUT$ -> NODES));

   9597  3 000442   000000 471500                    LDP1    0,,PR0
         3 000443   100001 220100                    LDX0    1,,PR1
         3 000444   000777 360003                    ANX0    511,DU
         3 000445   000006 621010                    EAX1    6,X0
         3 000446   000000 636011                    EAQ     0,X1
         3 000447   000022 772000                    QRL     18
         3 000450   000011 402007                    MPY     9,DL
         3 000451   000043 036007                    ADLQ    35,DL
         3 000452   000044 506007                    DIV     36,DL
         3 000453   100000 633506                    EPPR3   0,QL,PR1
         3 000454   000003 453400 xsym               STP3    NODE_+3

     1624     9598    4               END;

     1625     9599    3            END;

     1626     9600    2         GOTO DUPCHK;
PL6.E3A0      #002=XUP$BLDNODE File=XUP$PARTRGE.:E05TSI                          WED 07/30/97 09:40 Page:320

   9600  3 000455   001324 710000 3                  TRA     DUPCHK

     1627     9601    2         END;
     1628     9602    2      IF C=NAMENUM THEN DO;

   9602  3 000456   000050 115007                    CMPA    40,DL
         3 000457   000506 601000 3                  TNZ     s:9612

     1629     9603    3         IF FLAG<=0 THEN DO;/* NAME=NAME*/

   9603  3 000460   200011 236100                    LDQ     FLAG,,AUTO
         3 000461   000501 605400 3                  TPNZ    s:9609

     1630     9604    3            OPTBLK.CODE = KONCAT;

   9604  3 000462   000004 221003                    LDX1    4,DU
         3 000463   200005 441100                    SXL1    OPTBLK,,AUTO

     1631     9605    3            OPTBLK.NSUBLKS = 1;

   9605  3 000464   000001 220003                    LDX0    1,DU
         3 000465   200006 740100                    STX0    OPTBLK+1,,AUTO

     1632     9606    3            OPTBLK.SUBLK$(0) = ADDR(OUT$BLK);

   9606  3 000466   200003 236100                    LDQ     @OUT$BLK,,AUTO
         3 000467   200010 756100                    STQ     OPTBLK+3,,AUTO

     1633     9607    3            CALL XUP$BLDNODE(OPTBLK,OUT$);

   9607  3 000470   200004 236100                    LDQ     @OUT$,,AUTO
         3 000471   200021 756100                    STQ     DATA_LENGTH+4,,AUTO
         3 000472   200005 633500                    EPPR3   OPTBLK,,AUTO
         3 000473   200020 453500                    STP3    DATA_LENGTH+3,,AUTO
         3 000474   200020 630500                    EPPR0   DATA_LENGTH+3,,AUTO
         3 000475   000020 631400 xsym               EPPR1   B_VECTNIL+16
PL6.E3A0      #002=XUP$BLDNODE File=XUP$PARTRGE.:E05TSI                          WED 07/30/97 09:40 Page:321
         3 000476   000000 701000 3                  TSX1    s:6
         3 000477   000000 011000                    NOP     0

     1634     9608    3            END;

   9608  3 000500   000505 710000 3                  TRA     s:9610

     1635     9609    2         ELSE CALL XUP$BLDSYM(OUT$BLK,OUT$);

   9609  3 000501   200003 630500                    EPPR0   @OUT$BLK,,AUTO
         3 000502   000020 631400 xsym               EPPR1   B_VECTNIL+16
         3 000503   000000 701000 xent               TSX1    XUP$BLDSYM
         3 000504   000000 011000                    NOP     0

     1636     9610    2         RETURN;

   9610  3 000505   000000 702200 xent               TSX2  ! X66_ARET

     1637     9611    2         END;
     1638     9612    1      ELSE IF C*FLAG>LITERAL THEN

   9612  3 000506   200012 236100                    LDQ     C,,AUTO
         3 000507   200011 402100                    MPY     FLAG,,AUTO
         3 000510   000007 116007                    CMPQ    7,DL
         3 000511   000522 604400 3                  TMOZ    s:9618

     1639     9613    2            IF LEXES$(C)~=ADDR(NIL) THEN DO;

   9613  3 000512   200012 721100                    LXL1    C,,AUTO
         3 000513   000000 236011 xsym               LDQ     LEXES$,X1
         3 000514   000001 116000 xsym               CMPQ    B_VECTNIL+1
         3 000515   000520 600000 3                  TZE     s:9617

     1640     9614    2               OUT$=LEXES$(C);

   9614  3 000516   100000 756100                    STQ     0,,PR1

PL6.E3A0      #002=XUP$BLDNODE File=XUP$PARTRGE.:E05TSI                          WED 07/30/97 09:40 Page:322
     1641     9615    2               RETURN;

   9615  3 000517   000000 702200 xent               TSX2  ! X66_ARET

     1642     9616    2               END;
     1643     9617    1            ELSE LEXES$(C)=NODE_.NEXT$;

   9617  3 000520   000003 236000 xsym               LDQ     NODE_+3
         3 000521   000000 756011 xsym               STQ     LEXES$,X1

     1644     9618    2      DO CASE(C);

   9618  3 000522   200012 235100                    LDA     C,,AUTO
         3 000523   000017 115007                    CMPA    15,DL
         3 000524   000526 602005 3                  TNC     s:9618+4,AL
         3 000525   000576 710000 3                  TRA     s:9633
         3 000526   000576 710000 3                  TRA     s:9633
         3 000527   000576 710000 3                  TRA     s:9633
         3 000530   000545 710000 3                  TRA     s:9620
         3 000531   000576 710000 3                  TRA     s:9633
         3 000532   000545 710000 3                  TRA     s:9620
         3 000533   000545 710000 3                  TRA     s:9620
         3 000534   000545 710000 3                  TRA     s:9620
         3 000535   000551 710000 3                  TRA     s:9622
         3 000536   000560 710000 3                  TRA     s:9624
         3 000537   000576 710000 3                  TRA     s:9633
         3 000540   000563 710000 3                  TRA     s:9626
         3 000541   000576 710000 3                  TRA     s:9633
         3 000542   000576 710000 3                  TRA     s:9633
         3 000543   000560 710000 3                  TRA     s:9624
         3 000544   000560 710000 3                  TRA     s:9624

     1645     9619    2      CASE(ALTERN,KONCAT,LIST,REDUCE);

     1646     9620    2         I=OUT$BLK.NSUBLKS;

   9620  3 000545   000001 236100                    LDQ     1,,PR0
PL6.E3A0      #002=XUP$BLDNODE File=XUP$PARTRGE.:E05TSI                          WED 07/30/97 09:40 Page:323
         3 000546   000022 772000                    QRL     18
         3 000547   200014 756100                    STQ     I,,AUTO
         3 000550   000577 710000 3                  TRA     s:9635

     1647     9621    2      CASE(LITERAL);

     1648     9622    2         I=(OUT$BLK.SUBLK$(0)->TC.C)/4+1;

   9622  3 000551   000003 473500                    LDP3    3,,PR0
         3 000552   300000 236100                    LDQ     0,,PR3
         3 000553   000033 772000                    QRL     27
         3 000554   000002 772000                    QRL     2
         3 000555   000001 036007                    ADLQ    1,DL
         3 000556   200014 756100                    STQ     I,,AUTO
         3 000557   000577 710000 3                  TRA     s:9635

     1649     9623    2      CASE(QUOTE,SLASH,GENERIC_DSTRING);

     1650     9624    2         I=1;

   9624  3 000560   000001 236007                    LDQ     1,DL
         3 000561   200014 756100                    STQ     I,,AUTO
         3 000562   000577 710000 3                  TRA     s:9635

     1651     9625    2      CASE(XTERN);

     1652     9626    2         IF ADDR(OUT$BLK) ~= P_PCB.OUT$->OUT_BLK.SUBLK$(1)

   9626  3 000563   000003 473400 xsym               LDP3    P_PCB+3
         3 000564   200003 236100                    LDQ     @OUT$BLK,,AUTO
         3 000565   300004 116100                    CMPQ    4,,PR3
         3 000566   000575 600000 3                  TZE     s:9631

     1653     9627    3         THEN DO;

     1654     9628    3            P_PCB.HI_CHAR = OUT$BLK.CPOS-1;

PL6.E3A0      #002=XUP$BLDNODE File=XUP$PARTRGE.:E05TSI                          WED 07/30/97 09:40 Page:324
   9628  3 000567   000002 235100                    LDA     2,,PR0
         3 000570   000001 135007                    SBLA    1,DL
         3 000571   000012 755000 xsym               STA     P_PCB+10

     1655     9629    3            UNWIND TO SYNTAXERR;

   9629  3 000572   000000 237200 xsym               LDAQ  ! SYNTAXERR
         3 000573   000000 700200 xent               TSX0  ! X66_AUNWIND
         3 000574   000000 000200                    ZERO    0,128

     1656     9630    3            END;
     1657     9631    2         ALTRETURN;

   9631  3 000575   000000 702200 xent               TSX2  ! X66_AALT

     1658     9632    2      CASE(ELSE);

     1659     9633    2         I=0;

   9633  3 000576   200014 450100                    STZ     I,,AUTO

     1660     9634    2      END;

     1661     9635    2      IF I=1 AND (C=KONCAT OR C=ALTERN) AND FLAG>0 THEN DO;/* UNNEEDED KONCAT */

   9635  3 000577   200014 236100                    LDQ     I,,AUTO
         3 000600   000001 116007                    CMPQ    1,DL
         3 000601   000621 601000 3                  TNZ     s:9639
         3 000602   000004 115007                    CMPA    4,DL
         3 000603   000606 600000 3                  TZE     s:9635+7
         3 000604   000002 115007                    CMPA    2,DL
         3 000605   000621 601000 3                  TNZ     s:9639
         3 000606   200011 235100                    LDA     FLAG,,AUTO
         3 000607   000621 604400 3                  TMOZ    s:9639

     1662     9636    2         CALL XUP$BLDNODE(OUT$BLK.SUBLK$(0)->DATA,OUT$);

PL6.E3A0      #002=XUP$BLDNODE File=XUP$PARTRGE.:E05TSI                          WED 07/30/97 09:40 Page:325
   9636  3 000610   000003 473500                    LDP3    3,,PR0
         3 000611   200004 236100                    LDQ     @OUT$,,AUTO
         3 000612   200021 756100                    STQ     DATA_LENGTH+4,,AUTO
         3 000613   200020 453500                    STP3    DATA_LENGTH+3,,AUTO
         3 000614   200020 630500                    EPPR0   DATA_LENGTH+3,,AUTO
         3 000615   000020 631400 xsym               EPPR1   B_VECTNIL+16
         3 000616   000000 701000 3                  TSX1    s:6
         3 000617   000000 011000                    NOP     0

     1663     9637    2         RETURN;

   9637  3 000620   000000 702200 xent               TSX2  ! X66_ARET

     1664     9638    2         END;
     1665     9639    1      IF POFFW(NODE_.NEXT$,NODE_.FIRST$)+I>=NODE_.SIZE

   9639  3 000621   000001 235000 xsym               LDA     NODE_+1
         3 000622   000022 771000                    ARL     18
         3 000623   200020 755100                    STA     DATA_LENGTH+3,,AUTO
         3 000624   000003 236000 xsym               LDQ     NODE_+3
         3 000625   000022 772000                    QRL     18
         3 000626   200020 136100                    SBLQ    DATA_LENGTH+3,,AUTO
         3 000627   200014 036100                    ADLQ    I,,AUTO
         3 000630   000000 235000 xsym               LDA     NODE_
         3 000631   000022 771000                    ARL     18
         3 000632   200021 755100                    STA     DATA_LENGTH+4,,AUTO
         3 000633   200021 116100                    CMPQ    DATA_LENGTH+4,,AUTO
         3 000634   000641 604000 3                  TMI     s:9641

     1666     9640    1      THEN CALL M$GDS(NODEFPT) ALTRET(NOCORE);

   9640  3 000635   000000 630400 xsym               EPPR0   NODEFPT
         3 000636   430001 713400                    CLIMB   alt,gds
         3 000637   400400 401760                    pmme    nvectors=2
         3 000640   001577 702000 3                  TSX2    NOCORE

     1667     9641    1      DATA_LENGTH = (I+1) * 36;
PL6.E3A0      #002=XUP$BLDNODE File=XUP$PARTRGE.:E05TSI                          WED 07/30/97 09:40 Page:326

   9641  3 000641   200014 236100                    LDQ     I,,AUTO
         3 000642   000044 402007                    MPY     36,DL
         3 000643   000044 036007                    ADLQ    36,DL
         3 000644   200015 756100                    STQ     DATA_LENGTH,,AUTO

     1668     9642    1      NODE_.NEXT$ -> DATA_FIELD = '0'B;

   9642  3 000645   000003 470400 xsym               LDP0    NODE_+3
         3 000646   000000 620006                    EAX0    0,QL
         3 000647   003140 060400                    CSL     bolr='003'O
         3 000650   000002 000001 xsym               BDSC    B_VECTNIL+2              by=0,bit=0,n=1
         3 000651   000000 000010                    BDSC    0,,PR0                   by=0,bit=0,n=*X0

     1669     9643    1      NODE.TYPE=CTRAN(C);

   9643  3 000652   000003 470400 xsym               LDP0    NODE_+3
         3 000653   200012 720100                    LXL0    C,,AUTO
         3 000654   000000 236010 2                  LDQ     CTRAN,X0
         3 000655   000041 736000                    QLS     33
         3 000656   000000 676100                    ERQ     0,,PR0
         3 000657   700000 376003                    ANQ     -32768,DU
         3 000660   000000 656100                    ERSQ    0,,PR0

     1670     9644    1      IF NODE.TYPE = %TYPE_LEXEME#

   9644  3 000661   000003 470400 xsym               LDP0    NODE_+3
         3 000662   000000 236100                    LDQ     0,,PR0
         3 000663   700000 376003                    ANQ     -32768,DU
         3 000664   600000 116003                    CMPQ    -65536,DU
         3 000665   000673 601000 3                  TNZ     s:9647

     1671     9645    1      THEN
     1672     9646    1         NODES.LEXTYPE = LEXTRAN(C);

   9646  3 000666   000037 236010 2                  LDQ     LEXTRAN,X0
         3 000667   000020 736000                    QLS     16
PL6.E3A0      #002=XUP$BLDNODE File=XUP$PARTRGE.:E05TSI                          WED 07/30/97 09:40 Page:327
         3 000670   000000 676100                    ERQ     0,,PR0
         3 000671   000001 376000 4                  ANQ     1
         3 000672   000000 656100                    ERSQ    0,,PR0

     1673     9647    1      NODES.SKBL='1'B;

   9647  3 000673   000003 470400 xsym               LDP0    NODE_+3
         3 000674   000400 236003                    LDQ     256,DU
         3 000675   000000 256100                    ORSQ    0,,PR0

     1674     9648    1      IF C>=FID THEN NODE.O_F='1'B;

   9648  3 000676   200012 235100                    LDA     C,,AUTO
         3 000677   000014 115007                    CMPA    12,DL
         3 000700   000704 604000 3                  TMI     s:9649

   9648  3 000701   000003 470400 xsym               LDP0    NODE_+3
         3 000702   004000 236003                    LDQ     2048,DU
         3 000703   000000 256100                    ORSQ    0,,PR0

     1675     9649    1      OUT$=NODE_.NEXT$;

   9649  3 000704   000003 236000 xsym               LDQ     NODE_+3
         3 000705   200004 470500                    LDP0    @OUT$,,AUTO
         3 000706   000000 756100                    STQ     0,,PR0

     1676     9650    1      IF C~=LITERAL THEN GOTO NOTALITERAL;

   9650  3 000707   000007 115007                    CMPA    7,DL
         3 000710   001223 601000 3                  TNZ     NOTALITERAL

     1677     9651    1      LIT.ABREV=0;

   9651  3 000711   000003 471400 xsym               LDP1    NODE_+3
         3 000712   000003 236000 4                  LDQ     3
         3 000713   100000 356100                    ANSQ    0,,PR1

PL6.E3A0      #002=XUP$BLDNODE File=XUP$PARTRGE.:E05TSI                          WED 07/30/97 09:40 Page:328
     1678     9652    1      LIT.COUNT=OUT$BLK.SUBLK$(0)->TC.C;

   9652  3 000714   200003 471500                    LDP1    @OUT$BLK,,AUTO
         3 000715   100003 473500                    LDP3    3,,PR1
         3 000716   000003 474400 xsym               LDP4    NODE_+3
         3 000717   300000 236100                    LDQ     0,,PR3
         3 000720   400001 552140                    STBQ    1,'40'O,PR4

     1679     9653    1      LIT.TEXT=OUT$BLK.SUBLK$(0)->TC.T;

   9653  3 000721   000003 473400 xsym               LDP3    NODE_+3
         3 000722   300001 236100                    LDQ     1,,PR3
         3 000723   000033 772000                    QRL     27
         3 000724   100003 474500                    LDP4    3,,PR1
         3 000725   000000 621006                    EAX1    0,QL
         3 000726   400000 236100                    LDQ     0,,PR4
         3 000727   000033 772000                    QRL     27
         3 000730   000000 622006                    EAX2    0,QL
         3 000731   040140 100540                    MLR     fill='040'O
         3 000732   400000 200012                    ADSC9   0,,PR4                   cn=1,n=*X2
         3 000733   300001 200011                    ADSC9   1,,PR3                   cn=1,n=*X1

     1680     9654    2      DO I=0 TO LIT.COUNT-1;

   9654  3 000734   200014 450100                    STZ     I,,AUTO
         3 000735   000755 710000 3                  TRA     s:9658+1

     1681     9655    2         IF SUBSTR(LIT.TEXT,I,1)<='Z'

   9655  3 000736   000003 470400 xsym               LDP0    NODE_+3
         3 000737   000001 236100                    LDQ     1,,PR0
         3 000740   000033 772000                    QRL     27
         3 000741   200014 235100                    LDA     I,,AUTO
         3 000742   040105 106400                    CMPC    fill='040'O
         3 000743   000004 000001 4                  ADSC9   4                        cn=0,n=1
         3 000744   000001 200001                    ADSC9   1,A,PR0                  cn=1,n=1
         3 000745   000754 602000 3                  TNC     s:9658
PL6.E3A0      #002=XUP$BLDNODE File=XUP$PARTRGE.:E05TSI                          WED 07/30/97 09:40 Page:329
         3 000746   040000 106505                    CMPC    fill='040'O
         3 000747   000001 200001                    ADSC9   1,A,PR0                  cn=1,n=1
         3 000750   000005 000001 4                  ADSC9   5                        cn=0,n=1
         3 000751   000754 602000 3                  TNC     s:9658

     1682     9656    2           AND SUBSTR(LIT.TEXT,I,1)>='A'
     1683     9657    2         THEN LIT.UPRLOWR='1'B;

   9657  3 000752   000100 236003                    LDQ     64,DU
         3 000753   000000 256100                    ORSQ    0,,PR0

     1684     9658    2         END;

   9658  3 000754   200014 054100                    AOS     I,,AUTO
         3 000755   000003 470400 xsym               LDP0    NODE_+3
         3 000756   000001 236100                    LDQ     1,,PR0
         3 000757   000033 772000                    QRL     27
         3 000760   200014 116100                    CMPQ    I,,AUTO
         3 000761   000736 605400 3                  TPNZ    s:9655

     1685     9659    1      I=0;

   9659  3 000762   200014 450100                    STZ     I,,AUTO

     1686     9660    2      IF LIT.COUNT>1 THEN DO;

   9660  3 000763   000033 736000                    QLS     27
         3 000764   002000 116003                    CMPQ    1024,DU
         3 000765   001147 602000 3                  TNC     s:9693

     1687     9661    3         IF SUBSTR(LIT.TEXT,0,1)='=' THEN DO; /* UC ONLY */

   9661  3 000766   000001 236100                    LDQ     1,,PR0
         3 000767   000033 772000                    QRL     27
         3 000770   000001 236100                    LDQ     1,,PR0
         3 000771   000777 376003                    ANQ     511,DU
         3 000772   000075 116003                    CMPQ    61,DU
PL6.E3A0      #002=XUP$BLDNODE File=XUP$PARTRGE.:E05TSI                          WED 07/30/97 09:40 Page:330
         3 000773   001000 601000 3                  TNZ     s:9665

     1688     9662    3            LIT.UPRLOWR='0'B;

   9662  3 000774   000006 236000 4                  LDQ     6
         3 000775   000000 356100                    ANSQ    0,,PR0

     1689     9663    3            CALL INSERT1;

   9663  3 000776   001175 701000 3                  TSX1    INSERT1
         3 000777   000000 011000                    NOP     0

     1690     9664    3            END;

     1691     9665    3         DO WHILE (I<LIT.COUNT);

   9665  3 001000   000003 470400 xsym               LDP0    NODE_+3
         3 001001   000001 236100                    LDQ     1,,PR0
         3 001002   000033 772000                    QRL     27
         3 001003   200014 116100                    CMPQ    I,,AUTO
         3 001004   001133 604400 3                  TMOZ    s:9687

     1692     9666    4            IF SUBSTR(LIT.TEXT,I,1)='/' THEN DO;

   9666  3 001005   000003 470400 xsym               LDP0    NODE_+3
         3 001006   000001 236100                    LDQ     1,,PR0
         3 001007   000033 772000                    QRL     27
         3 001010   200014 235100                    LDA     I,,AUTO
         3 001011   040000 106505                    CMPC    fill='040'O
         3 001012   000001 200001                    ADSC9   1,A,PR0                  cn=1,n=1
         3 001013   000007 000001 4                  ADSC9   7                        cn=0,n=1
         3 001014   001037 601000 3                  TNZ     s:9673

     1693     9667    4               CALL INSERT1; /* SLASH - CHECK FOR ABBREVIATION */

   9667  3 001015   001175 701000 3                  TSX1    INSERT1
         3 001016   000000 011000                    NOP     0
PL6.E3A0      #002=XUP$BLDNODE File=XUP$PARTRGE.:E05TSI                          WED 07/30/97 09:40 Page:331

     1694     9668    5               IF SUBSTR(LIT.TEXT,I,1)~='/' THEN DO;

   9668  3 001017   000003 470400 xsym               LDP0    NODE_+3
         3 001020   000001 236100                    LDQ     1,,PR0
         3 001021   000033 772000                    QRL     27
         3 001022   200014 235100                    LDA     I,,AUTO
         3 001023   040000 106505                    CMPC    fill='040'O
         3 001024   000001 200001                    ADSC9   1,A,PR0                  cn=1,n=1
         3 001025   000007 000001 4                  ADSC9   7                        cn=0,n=1
         3 001026   001125 600000 3                  TZE     s:9685

     1695     9669    5                  LIT.ABREV=I;

   9669  3 001027   200014 236100                    LDQ     I,,AUTO
         3 001030   000020 736000                    QLS     16
         3 001031   000000 676100                    ERQ     0,,PR0
         3 001032   000010 376000 4                  ANQ     8
         3 001033   000000 656100                    ERSQ    0,,PR0

     1696     9670    5                  I=I-1;

   9670  3 001034   000001 336007                    LCQ     1,DL
         3 001035   200014 056100                    ASQ     I,,AUTO

     1697     9671    5                  END;

     1698     9672    4               END;

   9672  3 001036   001125 710000 3                  TRA     s:9685

     1699     9673    4            ELSE IF SUBSTR(LIT.TEXT,I,1)='#' AND I+3<LIT.COUNT THEN DO; /* OCTAL */

   9673  3 001037   040000 106505                    CMPC    fill='040'O
         3 001040   000001 200001                    ADSC9   1,A,PR0                  cn=1,n=1
         3 001041   000002 000001 4                  ADSC9   2                        cn=0,n=1
         3 001042   001125 601000 3                  TNZ     s:9685
PL6.E3A0      #002=XUP$BLDNODE File=XUP$PARTRGE.:E05TSI                          WED 07/30/97 09:40 Page:332
         3 001043   200020 756100                    STQ     DATA_LENGTH+3,,AUTO
         3 001044   200014 236100                    LDQ     I,,AUTO
         3 001045   000003 036007                    ADLQ    3,DL
         3 001046   200020 116100                    CMPQ    DATA_LENGTH+3,,AUTO
         3 001047   001125 605000 3                  TPL     s:9685

     1700     9674    4                  CH=SUBSTR(LIT.TEXT,I,4);

   9674  3 001050   000001 236100                    LDQ     1,,PR0
         3 001051   000033 772000                    QRL     27
         3 001052   040000 100505                    MLR     fill='040'O
         3 001053   000001 200004                    ADSC9   1,A,PR0                  cn=1,n=4
         3 001054   000201 000004 1                  ADSC9   CHC                      cn=0,n=4

     1701     9675    5                  IF CHC.U1.H=6 AND CHC.U2.H=6 AND CHC.U3.H=6 THEN DO;

   9675  3 001055   000201 236000 1                  LDQ     CHC
         3 001056   000770 376003                    ANQ     504,DU
         3 001057   000060 116003                    CMPQ    48,DU
         3 001060   001125 601000 3                  TNZ     s:9685
         3 001061   000201 236000 1                  LDQ     CHC
         3 001062   770000 376007                    ANQ     -4096,DL
         3 001063   060000 116007                    CMPQ    24576,DL
         3 001064   001125 601000 3                  TNZ     s:9685
         3 001065   000201 236000 1                  LDQ     CHC
         3 001066   000770 376007                    ANQ     504,DL
         3 001067   000060 116007                    CMPQ    48,DL
         3 001070   001125 601000 3                  TNZ     s:9685

     1702     9676    5                     CHC.U00=CHC.U1.L;

   9676  3 001071   000201 236000 1                  LDQ     CHC
         3 001072   000017 736000                    QLS     15
         3 001073   000201 676000 1                  ERQ     CHC
         3 001074   700000 376003                    ANQ     -32768,DU
         3 001075   000201 656000 1                  ERSQ    CHC

PL6.E3A0      #002=XUP$BLDNODE File=XUP$PARTRGE.:E05TSI                          WED 07/30/97 09:40 Page:333
     1703     9677    5                     CHC.U01=CHC.U2.L;

   9677  3 001076   000201 236000 1                  LDQ     CHC
         3 001077   000025 736000                    QLS     21
         3 001100   000201 676000 1                  ERQ     CHC
         3 001101   070000 376003                    ANQ     28672,DU
         3 001102   000201 656000 1                  ERSQ    CHC

     1704     9678    5                     CHC.U02=CHC.U3.L;

   9678  3 001103   000201 236000 1                  LDQ     CHC
         3 001104   000033 736000                    QLS     27
         3 001105   000201 676000 1                  ERQ     CHC
         3 001106   007000 376003                    ANQ     3584,DU
         3 001107   000201 656000 1                  ERSQ    CHC

     1705     9679    5                     CALL INSERT1;

   9679  3 001110   001175 701000 3                  TSX1    INSERT1
         3 001111   000000 011000                    NOP     0

     1706     9680    5                     CALL INSERT1;

   9680  3 001112   001175 701000 3                  TSX1    INSERT1
         3 001113   000000 011000                    NOP     0

     1707     9681    5                     CALL INSERT1;

   9681  3 001114   001175 701000 3                  TSX1    INSERT1
         3 001115   000000 011000                    NOP     0

     1708     9682    5                     CALL INSERT(LIT.TEXT,I,1,SUBSTR(CH,0,1));

   9682  3 001116   000003 470400 xsym               LDP0    NODE_+3
         3 001117   000001 236100                    LDQ     1,,PR0
         3 001120   000033 772000                    QRL     27
         3 001121   200014 235100                    LDA     I,,AUTO
PL6.E3A0      #002=XUP$BLDNODE File=XUP$PARTRGE.:E05TSI                          WED 07/30/97 09:40 Page:334
         3 001122   040105 100400                    MLR     fill='040'O
         3 001123   000201 000001 1                  ADSC9   CHC                      cn=0,n=1
         3 001124   000001 200001                    ADSC9   1,A,PR0                  cn=1,n=1

     1709     9683    5                     END;

     1710     9684    4                  END;

     1711     9685    3            I=I+1;

   9685  3 001125   200014 054100                    AOS     I,,AUTO

     1712     9686    3            END;

   9686  3 001126   000003 470400 xsym               LDP0    NODE_+3
         3 001127   000001 236100                    LDQ     1,,PR0
         3 001130   000033 772000                    QRL     27
         3 001131   200014 116100                    CMPQ    I,,AUTO
         3 001132   001005 605400 3                  TPNZ    s:9666

     1713     9687    3         IF FLAG ~= 0 AND LIT_PRESENT THEN DO;

   9687  3 001133   200011 235100                    LDA     FLAG,,AUTO
         3 001134   001147 600000 3                  TZE     s:9693
         3 001135   000000 234000 xsym               SZN     LIT_PRESENT
         3 001136   001147 605000 3                  TPL     s:9693

     1714     9688    3            NODE.CODE=LITCODE;

   9688  3 001137   000000 236000 xsym               LDQ     LITCODE
         3 001140   000000 676100                    ERQ     0,,PR0
         3 001141   177777 376007                    ANQ     65535,DL
         3 001142   000000 656100                    ERSQ    0,,PR0

     1715     9689    3            NODE.O_F='1'B;

   9689  3 001143   000003 470400 xsym               LDP0    NODE_+3
PL6.E3A0      #002=XUP$BLDNODE File=XUP$PARTRGE.:E05TSI                          WED 07/30/97 09:40 Page:335
         3 001144   004000 236003                    LDQ     2048,DU
         3 001145   000000 256100                    ORSQ    0,,PR0

     1716     9690    3            LITCODE=LITCODE+1;

   9690  3 001146   000000 054000 xsym               AOS     LITCODE

     1717     9691    3            END;

     1718     9692    2         END;

     1719     9693    2      IF LIT.COUNT=0 THEN DO;

   9693  3 001147   000003 470400 xsym               LDP0    NODE_+3
         3 001150   000001 236100                    LDQ     1,,PR0
         3 001151   777000 316003                    CANQ    -512,DU
         3 001152   001161 601000 3                  TNZ     s:9697

     1720     9694    2         P_PCB.HI_CHAR=OUT$BLK.CPOS;

   9694  3 001153   200003 471500                    LDP1    @OUT$BLK,,AUTO
         3 001154   100002 235100                    LDA     2,,PR1
         3 001155   000012 755000 xsym               STA     P_PCB+10

     1721     9695    2         UNWIND TO SYNTAXERR;

   9695  3 001156   000000 237200 xsym               LDAQ  ! SYNTAXERR
         3 001157   000000 700200 xent               TSX0  ! X66_AUNWIND
         3 001160   000000 000200                    ZERO    0,128

     1722     9696    2         END;
     1723     9697    1      NODE_.NEXT$=PINCRW(NODE_.NEXT$,SIZEW(LIT));

   9697  3 001161   000001 236100                    LDQ     1,,PR0
         3 001162   000033 772000                    QRL     27
         3 001163   000005 620006                    EAX0    5,QL
         3 001164   000000 636010                    EAQ     0,X0
PL6.E3A0      #002=XUP$BLDNODE File=XUP$PARTRGE.:E05TSI                          WED 07/30/97 09:40 Page:336
         3 001165   000022 772000                    QRL     18
         3 001166   000011 402007                    MPY     9,DL
         3 001167   000043 036007                    ADLQ    35,DL
         3 001170   000044 506007                    DIV     36,DL
         3 001171   000022 736000                    QLS     18
         3 001172   000003 036000 xsym               ADLQ    NODE_+3
         3 001173   000003 756000 xsym               STQ     NODE_+3

     1724     9698    1      GOTO DUPCHK;

   9698  3 001174   001324 710000 3                  TRA     DUPCHK

     1725     9699    1   INSERT1:PROC;

   9699  3 001175   200016 741300       INSERT1      STX1  ! DATA_LENGTH+1,,AUTO

     1726     9700    2      CALL INSERT(LIT.TEXT,I,LIT.COUNT-I,SUBSTR(LIT.TEXT,I+1));

   9700  3 001176   000003 470400 xsym               LDP0    NODE_+3
         3 001177   000001 236100                    LDQ     1,,PR0
         3 001200   000033 772000                    QRL     27
         3 001201   000000 620006                    EAX0    0,QL
         3 001202   200014 136100                    SBLQ    I,,AUTO
         3 001203   200020 756100                    STQ     DATA_LENGTH+3,,AUTO
         3 001204   000000 636010                    EAQ     0,X0
         3 001205   000022 772000                    QRL     18
         3 001206   200014 136100                    SBLQ    I,,AUTO
         3 001207   777777 620006                    EAX0    -1,QL
         3 001210   200014 235100                    LDA     I,,AUTO
         3 001211   200020 722100                    LXL2    DATA_LENGTH+3,,AUTO
         3 001212   040145 100545                    MLR     fill='040'O
         3 001213   000001 400010                    ADSC9   1,A,PR0                  cn=2,n=*X0
         3 001214   000001 200012                    ADSC9   1,A,PR0                  cn=1,n=*X2

     1727     9701    2      LIT.COUNT=LIT.COUNT-1;

   9701  3 001215   000003 470400 xsym               LDP0    NODE_+3
PL6.E3A0      #002=XUP$BLDNODE File=XUP$PARTRGE.:E05TSI                          WED 07/30/97 09:40 Page:337
         3 001216   000001 236100                    LDQ     1,,PR0
         3 001217   777000 036003                    ADLQ    -512,DU
         3 001220   000001 552140                    STBQ    1,'40'O,PR0

     1728     9702    2   END INSERT1;

   9702  3 001221   200016 221300                    LDX1  ! DATA_LENGTH+1,,AUTO
         3 001222   000001 702211                    TSX2  ! 1,X1

   9701  3 001223                       NOTALITERAL  null
     1729     9703        %EJECT;
PL6.E3A0      #002=XUP$BLDNODE File=XUP$PARTRGE.:E05TSI                          WED 07/30/97 09:40 Page:338
     1730     9704    1   NOTALITERAL:;
     1731     9705                    /* THE NODE IS NOT A LITERAL SO GENERATE ITS SUBNODES */
     1732     9706    1      NODE_.NEXT$=PINCRW(NODE_.NEXT$,I+1);

   9706  3 001223   200014 236100                    LDQ     I,,AUTO
         3 001224   000022 736000                    QLS     18
         3 001225   000001 036003                    ADLQ    1,DU
         3 001226   000003 036000 xsym               ADLQ    NODE_+3
         3 001227   000003 756000 xsym               STQ     NODE_+3

     1733     9707    2      DO CASE(C);

   9707  3 001230   000017 115007                    CMPA    15,DL
         3 001231   001233 602005 3                  TNC     s:9707+3,AL
         3 001232   001320 710000 3                  TRA     s:9722
         3 001233   001320 710000 3                  TRA     s:9722
         3 001234   001320 710000 3                  TRA     s:9722
         3 001235   001252 710000 3                  TRA     s:9709
         3 001236   001320 710000 3                  TRA     s:9722
         3 001237   001252 710000 3                  TRA     s:9709
         3 001240   001252 710000 3                  TRA     s:9709
         3 001241   001252 710000 3                  TRA     s:9709
         3 001242   001320 710000 3                  TRA     s:9722
         3 001243   001315 710000 3                  TRA     s:9720
         3 001244   001320 710000 3                  TRA     s:9722
         3 001245   001320 710000 3                  TRA     s:9722
         3 001246   001320 710000 3                  TRA     s:9722
         3 001247   001320 710000 3                  TRA     s:9722
         3 001250   001305 710000 3                  TRA     s:9716
         3 001251   001311 710000 3                  TRA     s:9718

     1734     9708    2      CASE(KONCAT,LIST,ALTERN,REDUCE);

     1735     9709    2         J=0;

   9709  3 001252   200013 450100                    STZ     P$,,AUTO

PL6.E3A0      #002=XUP$BLDNODE File=XUP$PARTRGE.:E05TSI                          WED 07/30/97 09:40 Page:339
     1736     9710    2         OUT$->NODE.NSUBNDS=I;

   9710  3 001253   000000 471500                    LDP1    0,,PR0
         3 001254   200014 236100                    LDQ     I,,AUTO
         3 001255   000020 736000                    QLS     16
         3 001256   100000 676100                    ERQ     0,,PR1
         3 001257   000011 376000 4                  ANQ     9
         3 001260   100000 656100                    ERSQ    0,,PR1

     1737     9711    3         DO WHILE (J<I);

   9711  3 001261   200013 236100                    LDQ     P$,,AUTO
         3 001262   200014 116100                    CMPQ    I,,AUTO
         3 001263   001320 605000 3                  TPL     s:9722

     1738     9712    3            CALL XUP$BLDNODE(OUT$BLK.SUBLK$(J)->DATA,OUT$->NODE.SUBNDS$(J));

   9712  3 001264   200003 470500                    LDP0    @OUT$BLK,,AUTO
         3 001265   200013 720100                    LXL0    P$,,AUTO
         3 001266   000003 471510                    LDP1    3,X0,PR0
         3 001267   200004 473500                    LDP3    @OUT$,,AUTO
         3 001270   300000 474500                    LDP4    0,,PR3
         3 001271   400001 635510                    EPPR5   1,X0,PR4
         3 001272   200021 455500                    STP5    DATA_LENGTH+4,,AUTO
         3 001273   200020 451500                    STP1    DATA_LENGTH+3,,AUTO
         3 001274   200020 630500                    EPPR0   DATA_LENGTH+3,,AUTO
         3 001275   000020 631400 xsym               EPPR1   B_VECTNIL+16
         3 001276   000000 701000 3                  TSX1    s:6
         3 001277   000000 011000                    NOP     0

     1739     9713    3            J=J+1;

   9713  3 001300   200013 054100                    AOS     P$,,AUTO

     1740     9714    3            END;

   9714  3 001301   200013 236100                    LDQ     P$,,AUTO
PL6.E3A0      #002=XUP$BLDNODE File=XUP$PARTRGE.:E05TSI                          WED 07/30/97 09:40 Page:340
         3 001302   200014 116100                    CMPQ    I,,AUTO
         3 001303   001264 604000 3                  TMI     s:9712
         3 001304   001320 710000 3                  TRA     s:9722

     1741     9715    2      CASE(QUOTE);

     1742     9716    2         OUT$->NODED.DLIM='''';

   9716  3 001305   000000 471500                    LDP1    0,,PR0
         3 001306   000047 236003                    LDQ     39,DU
         3 001307   100001 552120                    STBQ    1,'20'O,PR1
         3 001310   001320 710000 3                  TRA     s:9722

     1743     9717    2      CASE(SLASH);

     1744     9718    2         OUT$->NODED.DLIM='/';

   9718  3 001311   000000 471500                    LDP1    0,,PR0
         3 001312   000057 236003                    LDQ     47,DU
         3 001313   100001 552120                    STBQ    1,'20'O,PR1
         3 001314   001320 710000 3                  TRA     s:9722

     1745     9719    2      CASE(GENERIC_DSTRING);

     1746     9720    2         OUT$->NODED.DLIM=BINASC(0);

   9720  3 001315   000000 471500                    LDP1    0,,PR0
         3 001316   000000 236003                    LDQ     0,DU
         3 001317   100001 552120                    STBQ    1,'20'O,PR1

     1747     9721    2      END;

     1748     9722    1      IF C>=LITERAL THEN RETURN;

   9722  3 001320   200012 235100                    LDA     C,,AUTO
         3 001321   000007 115007                    CMPA    7,DL
         3 001322   001324 604000 3                  TMI     DUPCHK
PL6.E3A0      #002=XUP$BLDNODE File=XUP$PARTRGE.:E05TSI                          WED 07/30/97 09:40 Page:341

   9722  3 001323   000000 702200 xent               TSX2  ! X66_ARET

   9722  3 001324                       DUPCHK       null
     1749     9723        %EJECT;
PL6.E3A0      #002=XUP$BLDNODE File=XUP$PARTRGE.:E05TSI                          WED 07/30/97 09:40 Page:342
     1750     9724    1   DUPCHK:;
     1751     9725    2      DO CASE(OUT$->NODE.TYPE);

   9725  3 001324   200004 470500                    LDP0    @OUT$,,AUTO
         3 001325   000000 471500                    LDP1    0,,PR0
         3 001326   100000 236100                    LDQ     0,,PR1
         3 001327   000041 772000                    QRL     33
         3 001330   000007 116007                    CMPQ    7,DL
         3 001331   001333 602006 3                  TNC     DUPCHK+7,QL
         3 001332   001424 710000 3                  TRA     s:9741
         3 001333   001424 710000 3                  TRA     s:9741
         3 001334   001351 710000 3                  TRA     s:9729
         3 001335   001351 710000 3                  TRA     s:9729
         3 001336   001351 710000 3                  TRA     s:9729
         3 001337   001351 710000 3                  TRA     s:9729
         3 001340   001342 710000 3                  TRA     s:9727
         3 001341   001357 710000 3                  TRA     s:9731

     1752     9726    2      CASE(%TYPE_LITERAL#);

     1753     9727    2         C=LENGTHC(OUT$ -> LIT);

   9727  3 001342   100001 236100                    LDQ     1,,PR1
         3 001343   000033 772000                    QRL     27
         3 001344   000005 620006                    EAX0    5,QL
         3 001345   000000 635010                    EAA     0,X0
         3 001346   000022 771000                    ARL     18
         3 001347   200012 755100                    STA     C,,AUTO
         3 001350   001424 710000 3                  TRA     s:9741

     1754     9728    2      CASE(%TYPE_ALTERN#,%TYPE_KONCAT#,%TYPE_LIST#,%TYPE_RALTERN#);

     1755     9729    2         C=OUT$->NODE.NSUBNDS*4+4;

   9729  3 001351   100000 236100                    LDQ     0,,PR1
         3 001352   000016 772000                    QRL     14
         3 001353   003774 376007                    ANQ     2044,DL
PL6.E3A0      #002=XUP$BLDNODE File=XUP$PARTRGE.:E05TSI                          WED 07/30/97 09:40 Page:343
         3 001354   000004 036007                    ADLQ    4,DL
         3 001355   200012 756100                    STQ     C,,AUTO
         3 001356   001424 710000 3                  TRA     s:9741

     1756     9730    2      CASE(%TYPE_LEXEME#);

     1757     9731    3         DO CASE (OUT$ -> NODES.LEXTYPE);

   9731  3 001357   100000 236100                    LDQ     0,,PR1
         3 001360   000020 772000                    QRL     16
         3 001361   000037 376007                    ANQ     31,DL
         3 001362   000024 136007                    SBLQ    20,DL
         3 001363   000014 116007                    CMPQ    12,DL
         3 001364   001366 602006 3                  TNC     s:9731+7,QL
         3 001365   001410 710000 3                  TRA     s:9737
         3 001366   001402 710000 3                  TRA     s:9733
         3 001367   001402 710000 3                  TRA     s:9733
         3 001370   001410 710000 3                  TRA     s:9737
         3 001371   001410 710000 3                  TRA     s:9737
         3 001372   001410 710000 3                  TRA     s:9737
         3 001373   001410 710000 3                  TRA     s:9737
         3 001374   001410 710000 3                  TRA     s:9737
         3 001375   001410 710000 3                  TRA     s:9737
         3 001376   001410 710000 3                  TRA     s:9737
         3 001377   001410 710000 3                  TRA     s:9737
         3 001400   001410 710000 3                  TRA     s:9737
         3 001401   001405 710000 3                  TRA     s:9735

     1758     9732    3         CASE (%LEX_BLANK#, %LEX_END#);

     1759     9733    3            C = 4;

   9733  3 001402   000004 235007                    LDA     4,DL
         3 001403   200012 755100                    STA     C,,AUTO
         3 001404   001424 710000 3                  TRA     s:9741

     1760     9734    3         CASE (%LEX_DSTRING#);
PL6.E3A0      #002=XUP$BLDNODE File=XUP$PARTRGE.:E05TSI                          WED 07/30/97 09:40 Page:344

     1761     9735    3            C = LENGTHC(OUT$ -> NODED);

   9735  3 001405   000006 235007                    LDA     6,DL
         3 001406   200012 755100                    STA     C,,AUTO
         3 001407   001424 710000 3                  TRA     s:9741

     1762     9736    3         CASE (ELSE);

     1763     9737    3            IF OUT$->NODES.XTRA THEN C=LENGTHC(OUT$ -> NODES);

   9737  3 001410   100000 236100                    LDQ     0,,PR1
         3 001411   000040 316003                    CANQ    32,DU
         3 001412   001422 600000 3                  TZE     s:9738

   9737  3 001413   100001 220100                    LDX0    1,,PR1
         3 001414   000777 360003                    ANX0    511,DU
         3 001415   000006 621010                    EAX1    6,X0
         3 001416   000000 635011                    EAA     0,X1
         3 001417   000022 771000                    ARL     18
         3 001420   200012 755100                    STA     C,,AUTO
         3 001421   001424 710000 3                  TRA     s:9741

     1764     9738    3            ELSE C=4;

   9738  3 001422   000004 235007                    LDA     4,DL
         3 001423   200012 755100                    STA     C,,AUTO

     1765     9739    3         END;

     1766     9740    2      END;

     1767     9741    1      J=(C+3)/4;

   9741  3 001424   200012 236100                    LDQ     C,,AUTO
         3 001425   000003 036007                    ADLQ    3,DL
         3 001426   000004 506007                    DIV     4,DL
PL6.E3A0      #002=XUP$BLDNODE File=XUP$PARTRGE.:E05TSI                          WED 07/30/97 09:40 Page:345
         3 001427   200013 756100                    STQ     P$,,AUTO

     1768     9742              /* IF NO SUBNODES WERE GENERATED, MAYBE THERE IS ALREADY THIS NODE */
     1769     9743    1      IF POFFW(NODE_.NEXT$,OUT$)~=J*FLAG THEN RETURN;

   9743  3 001430   000000 236100                    LDQ     0,,PR0
         3 001431   000022 772000                    QRL     18
         3 001432   200020 756100                    STQ     DATA_LENGTH+3,,AUTO
         3 001433   000003 236000 xsym               LDQ     NODE_+3
         3 001434   000022 772000                    QRL     18
         3 001435   200020 136100                    SBLQ    DATA_LENGTH+3,,AUTO
         3 001436   200021 756100                    STQ     DATA_LENGTH+4,,AUTO
         3 001437   200013 236100                    LDQ     P$,,AUTO
         3 001440   200011 402100                    MPY     FLAG,,AUTO
         3 001441   200021 116100                    CMPQ    DATA_LENGTH+4,,AUTO
         3 001442   001444 600000 3                  TZE     s:9744

   9743  3 001443   000000 702200 xent               TSX2  ! X66_ARET

     1770     9744    1      P$=NODE_.FIRST$;

   9744  3 001444   000001 236000 xsym               LDQ     NODE_+1
         3 001445   200013 756100                    STQ     P$,,AUTO

     1771     9745    2      DO WHILE (P$<OUT$);

   9745  3 001446   000000 116100                    CMPQ    0,,PR0
         3 001447   001576 603000 3                  TRC     s:9773

     1772     9746    3         IF OUT$->NODEC=P$->NODEC THEN DO; /* FOUND IT */

   9746  3 001450   200004 470500                    LDP0    @OUT$,,AUTO
         3 001451   000000 471500                    LDP1    0,,PR0
         3 001452   200012 720100                    LXL0    C,,AUTO
         3 001453   200013 473500                    LDP3    P$,,AUTO
         3 001454   040140 106540                    CMPC    fill='040'O
         3 001455   100000 000010                    ADSC9   0,,PR1                   cn=0,n=*X0
PL6.E3A0      #002=XUP$BLDNODE File=XUP$PARTRGE.:E05TSI                          WED 07/30/97 09:40 Page:346
         3 001456   300000 000010                    ADSC9   0,,PR3                   cn=0,n=*X0
         3 001457   001465 601000 3                  TNZ     s:9751

     1773     9747    3            NODE_.NEXT$=OUT$;

   9747  3 001460   000000 236100                    LDQ     0,,PR0
         3 001461   000003 756000 xsym               STQ     NODE_+3

     1774     9748    3            OUT$=P$;

   9748  3 001462   200013 236100                    LDQ     P$,,AUTO
         3 001463   000000 756100                    STQ     0,,PR0

     1775     9749    3            RETURN;

   9749  3 001464   000000 702200 xent               TSX2  ! X66_ARET

     1776     9750    3            END;
     1777     9751    3         DO CASE (P$ -> NODE.TYPE);

   9751  3 001465   300000 236100                    LDQ     0,,PR3
         3 001466   000041 772000                    QRL     33
         3 001467   000005 136007                    SBLQ    5,DL
         3 001470   000002 116007                    CMPQ    2,DL
         3 001471   001473 602006 3                  TNC     s:9751+6,QL
         3 001472   001565 710000 3                  TRA     s:9769
         3 001473   001475 710000 3                  TRA     s:9753
         3 001474   001510 710000 3                  TRA     s:9755

     1778     9752    3         CASE (%TYPE_LITERAL#);

     1779     9753    3            P$ = PINCRW(P$, (LENGTHC(P$ -> LIT)+3)/4);

   9753  3 001475   300001 236100                    LDQ     1,,PR3
         3 001476   000033 772000                    QRL     27
         3 001477   000005 621006                    EAX1    5,QL
         3 001500   000000 636011                    EAQ     0,X1
PL6.E3A0      #002=XUP$BLDNODE File=XUP$PARTRGE.:E05TSI                          WED 07/30/97 09:40 Page:347
         3 001501   000022 772000                    QRL     18
         3 001502   000003 036007                    ADLQ    3,DL
         3 001503   000002 772000                    QRL     2
         3 001504   000022 736000                    QLS     18
         3 001505   200013 036100                    ADLQ    P$,,AUTO
         3 001506   200013 756100                    STQ     P$,,AUTO
         3 001507   001574 710000 3                  TRA     s:9772

     1780     9754    3         CASE (%TYPE_LEXEME#);

     1781     9755    4            DO CASE (P$ -> NODES.LEXTYPE);

   9755  3 001510   300000 236100                    LDQ     0,,PR3
         3 001511   000020 772000                    QRL     16
         3 001512   000037 376007                    ANQ     31,DL
         3 001513   000024 136007                    SBLQ    20,DL
         3 001514   000014 116007                    CMPQ    12,DL
         3 001515   001517 602006 3                  TNC     s:9755+7,QL
         3 001516   001543 710000 3                  TRA     s:9761
         3 001517   001533 710000 3                  TRA     s:9757
         3 001520   001533 710000 3                  TRA     s:9757
         3 001521   001543 710000 3                  TRA     s:9761
         3 001522   001543 710000 3                  TRA     s:9761
         3 001523   001543 710000 3                  TRA     s:9761
         3 001524   001543 710000 3                  TRA     s:9761
         3 001525   001543 710000 3                  TRA     s:9761
         3 001526   001543 710000 3                  TRA     s:9761
         3 001527   001543 710000 3                  TRA     s:9761
         3 001530   001543 710000 3                  TRA     s:9761
         3 001531   001543 710000 3                  TRA     s:9761
         3 001532   001537 710000 3                  TRA     s:9759

     1782     9756    4            CASE (%LEX_BLANK#, %LEX_END#);

     1783     9757    4               P$ = PINCRW(P$, 1);

   9757  3 001533   200013 236100                    LDQ     P$,,AUTO
PL6.E3A0      #002=XUP$BLDNODE File=XUP$PARTRGE.:E05TSI                          WED 07/30/97 09:40 Page:348
         3 001534   000001 036003                    ADLQ    1,DU
         3 001535   200013 756100                    STQ     P$,,AUTO
         3 001536   001574 710000 3                  TRA     s:9772

     1784     9758    4            CASE (%LEX_DSTRING#);

     1785     9759    4               P$ = PINCRW(P$, 2);

   9759  3 001537   200013 236100                    LDQ     P$,,AUTO
         3 001540   000002 036003                    ADLQ    2,DU
         3 001541   200013 756100                    STQ     P$,,AUTO
         3 001542   001574 710000 3                  TRA     s:9772

     1786     9760    4            CASE (ELSE);

     1787     9761    4               IF P$ -> NODES.XTRA

   9761  3 001543   300000 236100                    LDQ     0,,PR3
         3 001544   000040 316003                    CANQ    32,DU
         3 001545   001561 600000 3                  TZE     s:9765

     1788     9762    4               THEN
     1789     9763    4                  P$ = PINCRW(P$, (LENGTHC(P$ -> NODES)+3)/4);

   9763  3 001546   300001 221100                    LDX1    1,,PR3
         3 001547   000777 361003                    ANX1    511,DU
         3 001550   000006 622011                    EAX2    6,X1
         3 001551   000000 636012                    EAQ     0,X2
         3 001552   000022 772000                    QRL     18
         3 001553   000003 036007                    ADLQ    3,DL
         3 001554   000002 772000                    QRL     2
         3 001555   000022 736000                    QLS     18
         3 001556   200013 036100                    ADLQ    P$,,AUTO
         3 001557   200013 756100                    STQ     P$,,AUTO
         3 001560   001574 710000 3                  TRA     s:9772

     1790     9764    4               ELSE
PL6.E3A0      #002=XUP$BLDNODE File=XUP$PARTRGE.:E05TSI                          WED 07/30/97 09:40 Page:349
     1791     9765    4                  P$ = PINCRW(P$, 1);

   9765  3 001561   200013 236100                    LDQ     P$,,AUTO
         3 001562   000001 036003                    ADLQ    1,DU
         3 001563   200013 756100                    STQ     P$,,AUTO

     1792     9766
     1793     9767    4            END;

   9767  3 001564   001574 710000 3                  TRA     s:9772

     1794     9768    3         CASE (ELSE);

     1795     9769    3            P$ = PINCRW(P$, P$ -> NODE.NSUBNDS + 1);

   9769  3 001565   300000 236100                    LDQ     0,,PR3
         3 001566   000020 772000                    QRL     16
         3 001567   000777 376007                    ANQ     511,DL
         3 001570   000022 736000                    QLS     18
         3 001571   000001 036003                    ADLQ    1,DU
         3 001572   200013 036100                    ADLQ    P$,,AUTO
         3 001573   200013 756100                    STQ     P$,,AUTO

     1796     9770
     1797     9771    3         END;

     1798     9772    2         END;

   9772  3 001574   000000 116100                    CMPQ    0,,PR0
         3 001575   001450 602000 3                  TNC     s:9746

     1799     9773    1      RETURN;

   9773  3 001576   000000 702200 xent               TSX2  ! X66_ARET

     1800     9774    1   NOCORE:UNWIND TO NOCORERR;

PL6.E3A0      #002=XUP$BLDNODE File=XUP$PARTRGE.:E05TSI                          WED 07/30/97 09:40 Page:350
   9774  3 001577   000000 237200 xsym  NOCORE       LDAQ  ! NOCORERR
         3 001600   000000 700200 xent               TSX0  ! X66_AUNWIND
         3 001601   000000 000200                    ZERO    0,128
     1801     9775    1   END XUP$BLDNODE;
     1802     9776        %EOD;

PL6.E3A0      #002=XUP$BLDNODE File=XUP$PARTRGE.:E05TSI                          WED 07/30/97 09:40 Page:351
--  Include file information  --

   XU_SUBS_C.:E05TOU  is referenced.
   XU_MACRO_C.:E05TOU  is referenced.
   CP_6_C.:E05TOU  is referenced.
   CP_6.:E05TOU  cannot be made into a system file and is referenced.
      No diagnostics issued in procedure XUP$BLDNODE.
PL6.E3A0      #002=XUP$BLDNODE File=XUP$PARTRGE.:E05TSI                          WED 07/30/97 09:40 Page:352

 **** Variables and constants ****

  ****  Section 001  Data  XUP$BLDNODE

  ****  Scalars and arrays  ****
OctLoc.c.b A Datatyp(siz) R M Lvl/name                 OctLoc.c.b A Datatyp(siz) R M Lvl/name

   201-0-0/c CHAR(4)     r     1 CH                       201-0-0/b STRC        r     1 CHC
     0-0-0/w STRC(4635)  r     1 TMPLIT

  ****  Section 002 RoData XUP$BLDNODE

  ****  Scalars and arrays  ****
OctLoc.c.b A Datatyp(siz) R M Lvl/name                 OctLoc.c.b A Datatyp(siz) R M Lvl/name

     0-0-0/w SBIN        r     1 CTRAN(0:30)               37-0-0/w SBIN        r     1 LEXTRAN(0:30)

  ****  Auto variables  ****

  ****  Scalars and arrays  ****
OctLoc.c.b A Datatyp(siz) R M Lvl/name                 OctLoc.c.b A Datatyp(siz) R M Lvl/name

     4-0-0/w PTR         r     1 @OUT$                      3-0-0/w PTR         r     1 @OUT$BLK
    12-0-0/w SBIN        r     1 C                         15-0-0/w UBIN        r     1 DATA_LENGTH
    11-0-0/w SBIN        r     1 FLAG                      14-0-0/w SBIN        r     1 I
    13-0-0/w SBIN        r     1 J                          5-0-0/w STRC(144)   r     1 OPTBLK
    *0-0-0/w PTR         r     1 OUT$                      *0-0-0/w STRC(144)   r     1 OUT$BLK
    13-0-0/w PTR         r     1 P$

  ****  SYMREF variables  ****

  ****  Scalars and arrays  ****
OctLoc.c.b A Datatyp(siz) R M Lvl/name                 OctLoc.c.b A Datatyp(siz) R M Lvl/name

     0-0-0/w PTR         r     1 LEXES$(0:29)               0-0-0/w SBIN        r     1 LITCODE
     0-0-0/b BIT         r     1 LIT_PRESENT                0-0-0/d REMB        r     1 NOCORERR
     0-0-0/d STRC(216)   r     1 NODEFPT                    0-0-0/d STRC(144)   r     1 NODE_
PL6.E3A0      #002=XUP$BLDNODE File=XUP$PARTRGE.:E05TSI                          WED 07/30/97 09:40 Page:353
     0-0-0/w STRC(504)   r     1 P_PCB                      0-0-0/d STRC(144)   r     1 SYM_
     0-0-0/d REMB        r     1 SYNTAXERR

  ****  BASED and DCB variables  ****

  ****  Scalars and arrays  ****
OctLoc.c.b A Datatyp(siz) R M Lvl/name                 OctLoc.c.b A Datatyp(siz) R M Lvl/name

     0-0-0/w UBIN        r     1 DATA                       0-0-0/w ABIT        r     1 DATA_FIELD
     0-0-0/w ASTR(45)    r     1 LIT                        0-0-0/w STRC(72)    r     1 NODE
     0-0-0/c ACHR        r     1 NODEC                      0-0-0/w STRC(54)    r     1 NODED
     0-0-0/w ASTR(54)    r     1 NODES                      0-0-0/w ASTR(153)   r     1 OUT$SYM
     0-0-0/w STRC(144)   r     1 OUT_BLK                    0-0-0/w STRC        r     1 SEG
     0-0-0/w ASTR(9)     r     1 TC


   Procedure XUP$BLDNODE requires 898 words for executable code.
   Procedure XUP$BLDNODE requires 20 words of local(AUTO) storage.
PL6.E3A0      #002=XUP$BLDNODE File=XUP$PARTRGE.:E05TSI                          WED 07/30/97 09:40 Page:354
          *** CROSS REFERENCE LISTING ***
**     DENOTES     IDENTIFIER DEFINITION
<<                 IDENTIFIER'S VALUE SET
>>                 IDENTIFIER'S VALUE USED
<>                 IDENTIFIER SET AND/OR USED
--                 IDENTIFIER REFERENCED
PL6.E3A0      #002=XUP$BLDNODE File=XUP$PARTRGE.:E05TSI                          WED 07/30/97 09:40 Page:355
          MINI XREF LISTING

C
      9201**DCL      9404--IMP-SIZ  9526<<ASSIGN   9531>>IF       9531<<ASSIGN   9532>>IF       9532>>IF
      9532>>IF       9537>>IF       9545>>DOSELCT  9553<<CALLBLT  9555>>IF       9556>>ASSIGN   9602>>IF
      9612>>IF       9613>>IF       9614>>ASSIGN   9617>>ASSIGN   9618>>DOCASE   9635>>IF       9635>>IF
      9643>>ASSIGN   9646>>ASSIGN   9648>>IF       9650>>IF       9707>>DOCASE   9722>>IF       9727<<ASSIGN
      9729<<ASSIGN   9733<<ASSIGN   9735<<ASSIGN   9737<<ASSIGN   9738<<ASSIGN   9741>>ASSIGN   9746>>IF
      9746>>IF
CH
      9218**DCL      9569<<ASSIGN   9570>>IF       9571<<ASSIGN   9579>>ASSIGN   9584>>ASSIGN   9674<<ASSIGN
      9682>>CALLBLT
CHC
      9205**DCL      9218--REDEF
CHC.U00
      9206**DCL      9573<<ASSIGN   9676<<ASSIGN
CHC.U01
      9207**DCL      9574<<ASSIGN   9677<<ASSIGN
CHC.U02
      9208**DCL      9575<<ASSIGN   9678<<ASSIGN
CHC.U1.H
      9210**DCL      9572>>IF       9675>>IF
CHC.U1.L
      9211**DCL      9573>>ASSIGN   9676>>ASSIGN
CHC.U2.H
      9213**DCL      9572>>IF       9675>>IF
CHC.U2.L
      9214**DCL      9574>>ASSIGN   9677>>ASSIGN
CHC.U3.H
      9216**DCL      9572>>IF       9675>>IF
CHC.U3.L
      9217**DCL      9575>>ASSIGN   9678>>ASSIGN
CTRAN
      9518**DCL      9643>>ASSIGN
PL6.E3A0      #002=XUP$BLDNODE File=XUP$PARTRGE.:E05TSI                          WED 07/30/97 09:40 Page:356
DATA
      9219**DCL      9538<>CALL     9538<>CALL     9541<>CALL     9636<>CALL     9712<>CALL
DATA_FIELD
      9221**DCL      9642<<ASSIGN
DATA_LENGTH
      9220**DCL      9221--IMP-SIZ  9641<<ASSIGN   9642>>ASSIGN
DUPCHK
      9722**LABEL    9600--GOTO     9698--GOTO
FLAG
      9200**DCL      9527<<ASSIGN   9529<<ASSIGN   9530<<ASSIGN   9535>>IF       9543>>IF       9603>>IF
      9612>>IF       9635>>IF       9687>>IF       9743>>IF
I
      9204**DCL      9567<<ASSIGN   9568>>DOWHILE  9569>>ASSIGN   9570>>IF       9571>>ASSIGN   9576<<ASSIGN
      9576>>ASSIGN   9581<<ASSIGN   9581>>ASSIGN   9620<<ASSIGN   9622<<ASSIGN   9624<<ASSIGN   9633<<ASSIGN
      9635>>IF       9639>>IF       9641>>ASSIGN   9654<<DOINDEX  9655>>IF       9655>>IF       9659<<ASSIGN
      9665>>DOWHILE  9666>>IF       9668>>IF       9669>>ASSIGN   9670<<ASSIGN   9670>>ASSIGN   9673>>IF
      9673>>IF       9674>>ASSIGN   9682>>CALLBLT  9685<<ASSIGN   9685>>ASSIGN   9700>>CALLBLT  9700>>CALLBLT
      9700>>CALLBLT  9706>>ASSIGN   9710>>ASSIGN   9711>>DOWHILE
INSERT1
      9699**PROC     9663--CALL     9667--CALL     9679--CALL     9680--CALL     9681--CALL
J
      9203**DCL      9709<<ASSIGN   9711>>DOWHILE  9712>>CALL     9712>>CALL     9713<<ASSIGN   9713>>ASSIGN
      9741<<ASSIGN   9743>>IF
LEXES$
      9159**DCL      9613>>IF       9614>>ASSIGN   9617<<ASSIGN
LEXTRAN
      9520**DCL      9646>>ASSIGN
LIT
      9238**DCL      9697--ASSIGN   9727--ASSIGN   9753--ASSIGN
LIT.ABREV
      9262**DCL      9651<<ASSIGN   9669<<ASSIGN
LIT.COUNT
      9269**DCL      9272--IMP-SIZ  9652<<ASSIGN   9653>>ASSIGN   9654>>DOINDEX  9655>>IF       9655>>IF
      9660>>IF       9661>>IF       9665>>DOWHILE  9666>>IF       9668>>IF       9673>>IF       9673>>IF
      9674>>ASSIGN   9682>>CALLBLT  9693>>IF       9697>>ASSIGN   9700>>CALLBLT  9700>>CALLBLT  9700>>CALLBLT
      9701<<ASSIGN   9701>>ASSIGN   9727>>ASSIGN   9753>>ASSIGN
PL6.E3A0      #002=XUP$BLDNODE File=XUP$PARTRGE.:E05TSI                          WED 07/30/97 09:40 Page:357
LIT.TEXT
      9272**DCL      9653<<ASSIGN   9655>>IF       9655>>IF       9661>>IF       9666>>IF       9668>>IF
      9673>>IF       9674>>ASSIGN   9682<<CALLBLT  9700<<CALLBLT  9700>>CALLBLT
LIT.UPRLOWR
      9254**DCL      9657<<ASSIGN   9662<<ASSIGN
LITCODE
      9164**DCL      9688>>ASSIGN   9690<<ASSIGN   9690>>ASSIGN
LIT_PRESENT
      9165**DCL      9687>>IF
M$GDS
      5529**DCL-ENT  9590--CALL     9640--CALL
NOCORE
      9774**LABEL    9590--CALLALT  9640--CALLALT
NOCORERR
      5566**DCL      9774>>UNWIND
NODE.CODE
      9484**DCL      9688<<ASSIGN
NODE.NSUBNDS
      9481**DCL      9710<<ASSIGN   9729>>ASSIGN   9769>>ASSIGN
NODE.OPT
      9459**DCL      9547<<ASSIGN
NODE.O_F
      9448**DCL      9648<<ASSIGN   9689<<ASSIGN
NODE.RPEAT
      9464**DCL      9549<<ASSIGN
NODE.SUBNDS$
      9489**DCL      9712<>CALL
NODE.TYPE
      9427**DCL      9583>>IF       9643<<ASSIGN   9644>>IF       9725>>DOCASE   9751>>DOCASE
NODEC
      9404**DCL      9746>>IF       9746>>IF
NODED
      9367**DCL      9735--ASSIGN
NODED.DLIM
      9391**DCL      9584<<ASSIGN   9716<<ASSIGN   9718<<ASSIGN   9720<<ASSIGN
NODEFPT
PL6.E3A0      #002=XUP$BLDNODE File=XUP$PARTRGE.:E05TSI                          WED 07/30/97 09:40 Page:358
      9154**DCL      9590<>CALL     9640<>CALL
NODES
      9291**DCL      9561--ASSIGN   9597--ASSIGN   9737--ASSIGN   9763--ASSIGN
NODES.COUNT
      9341**DCL      9345--IMP-SIZ  9560<<ASSIGN   9561>>ASSIGN   9595<<ASSIGN   9596>>ASSIGN   9597>>ASSIGN
      9737>>ASSIGN   9763>>ASSIGN
NODES.LEXTYPE
      9322**DCL      9557>>IF       9583>>IF       9646<<ASSIGN   9731>>DOCASE   9755>>DOCASE
NODES.MAXL
      9335**DCL      9556<<ASSIGN   9593<<ASSIGN
NODES.SKBL
      9305**DCL      9551<<ASSIGN   9647<<ASSIGN
NODES.TEXT
      9345**DCL      9596<<ASSIGN
NODES.XTRA
      9313**DCL      9557>>IF       9559<<ASSIGN   9591>>IF       9594<<ASSIGN   9737>>IF       9761>>IF
NODE_.FIRST$
      9191**DCL      9192--REDEF    9195--REDEF    9589>>IF       9639>>IF       9744>>ASSIGN
NODE_.NEXT$
      9197**DCL      9238--IMP-PTR  9291--IMP-PTR  9367--IMP-PTR  9423--IMP-PTR  9561<<ASSIGN   9597<<ASSIGN
      9617>>ASSIGN   9639>>IF       9642>>ASSIGN   9643>>ASSIGN   9644>>IF       9646>>ASSIGN   9647>>ASSIGN
      9648>>ASSIGN   9649>>ASSIGN   9651>>ASSIGN   9652>>ASSIGN   9653>>ASSIGN   9653>>ASSIGN   9654>>DOINDEX
      9655>>IF       9655>>IF       9655>>IF       9655>>IF       9657>>ASSIGN   9660>>IF       9661>>IF
      9661>>IF       9662>>ASSIGN   9665>>DOWHILE  9666>>IF       9666>>IF       9668>>IF       9668>>IF
      9669>>ASSIGN   9673>>IF       9673>>IF       9673>>IF       9674>>ASSIGN   9674>>ASSIGN   9682>>CALLBLT
      9682>>CALLBLT  9688>>ASSIGN   9689>>ASSIGN   9693>>IF       9697<<ASSIGN   9697>>ASSIGN   9697>>ASSIGN
      9697>>ASSIGN   9700>>CALLBLT  9700>>CALLBLT  9700>>CALLBLT  9700>>CALLBLT  9700>>CALLBLT  9701>>ASSIGN
      9701>>ASSIGN   9706<<ASSIGN   9706>>ASSIGN   9743>>IF       9747<<ASSIGN
NODE_.SEG.SEG
      9194**DCL      9529>>IF
NODE_.SIZE
      9190**DCL      9589>>IF       9639>>IF
NOTALITERAL
      9701**LABEL    9650--GOTO
OPTBLK
      8865**DCL      9607<>CALL
PL6.E3A0      #002=XUP$BLDNODE File=XUP$PARTRGE.:E05TSI                          WED 07/30/97 09:40 Page:359
OPTBLK.CODE
      8873**DCL      9604<<ASSIGN
OPTBLK.NSUBLKS
      8877**DCL      9605<<ASSIGN
OPTBLK.SUBLK$
      8898**DCL      9606<<ASSIGN
OUT$
      9199**DCL         6--PROC     9528<<ASSIGN   9528--ASSIGN   9529--IF       9530--IF       9535--ASSIGN
      9543<<ASSIGN   9544>>ASSIGN   9583>>IF       9583>>IF       9584>>ASSIGN   9589>>IF       9591>>IF
      9593>>ASSIGN   9594>>ASSIGN   9595>>ASSIGN   9596>>ASSIGN   9596>>ASSIGN   9597>>ASSIGN   9597>>ASSIGN
      9597>>ASSIGN   9607<>CALL     9609<>CALL     9614<<ASSIGN   9636<>CALL     9649<<ASSIGN   9710>>ASSIGN
      9712>>CALL     9716>>ASSIGN   9718>>ASSIGN   9720>>ASSIGN   9725>>DOCASE   9727>>ASSIGN   9727>>ASSIGN
      9729>>ASSIGN   9731>>DOCASE   9735>>ASSIGN   9737>>IF       9737>>ASSIGN   9737>>ASSIGN   9743>>IF
      9745>>DOWHILE  9746>>IF       9747>>ASSIGN   9748<<ASSIGN
OUT$BLK
      8820**DCL         6--PROC     9541<>CALL     9606--ASSIGN   9609<>CALL     9626--IF
OUT$BLK.CODE
      8828**DCL      9526>>ASSIGN   9540<<ASSIGN
OUT$BLK.CPOS
      8846**DCL      9628>>ASSIGN   9694>>ASSIGN
OUT$BLK.NSUBLKS
      8832**DCL      9532>>IF       9537>>IF       9620>>ASSIGN
OUT$BLK.SUBLK$
      8853**DCL      9532>>IF       9532>>IF       9538>>CALL     9551>>IF       9553>>CALLBLT  9553>>CALLBLT
      9554>>ASSIGN   9565>>ASSIGN   9585>>ASSIGN   9622>>ASSIGN   9636>>CALL     9652>>ASSIGN   9653>>ASSIGN
      9653>>ASSIGN   9712>>CALL
OUT$SYM.COUNT
      8934**DCL      8937--IMP-SIZ  9553>>CALLBLT
OUT$SYM.TEXT
      8937**DCL      9553>>CALLBLT
OUT_BLK.CODE
      8783**DCL      9532>>IF       9532>>IF       9551>>IF
OUT_BLK.CPOS
      8801**DCL      9554>>ASSIGN   9585>>ASSIGN
OUT_BLK.SUBLK$
      8808**DCL      9565>>ASSIGN   9626>>IF
PL6.E3A0      #002=XUP$BLDNODE File=XUP$PARTRGE.:E05TSI                          WED 07/30/97 09:40 Page:360
P$
      9202**DCL      9203--REDEF    9535<<ASSIGN   9536<<ASSIGN   9536--ASSIGN   9538>>CALL     9541>>CALL
      9543>>ASSIGN   9544<<ASSIGN   9547>>ASSIGN   9549>>ASSIGN   9551>>ASSIGN   9556>>ASSIGN   9557>>IF
      9557>>IF       9559>>ASSIGN   9560>>ASSIGN   9561>>ASSIGN   9561>>ASSIGN   9561>>ASSIGN   9565<<ASSIGN
      9568>>DOWHILE  9569>>ASSIGN   9569>>ASSIGN   9570>>IF       9571>>ASSIGN   9571>>ASSIGN   9744<<ASSIGN
      9745>>DOWHILE  9746>>IF       9748>>ASSIGN   9751>>DOCASE   9753<<ASSIGN   9753>>ASSIGN   9753>>ASSIGN
      9753>>ASSIGN   9755>>DOCASE   9757<<ASSIGN   9757>>ASSIGN   9759<<ASSIGN   9759>>ASSIGN   9761>>IF
      9763<<ASSIGN   9763>>ASSIGN   9763>>ASSIGN   9763>>ASSIGN   9765<<ASSIGN   9765>>ASSIGN   9769<<ASSIGN
      9769>>ASSIGN   9769>>ASSIGN
P_PCB.HI_CHAR
      9112**DCL      9554<<ASSIGN   9585<<ASSIGN   9628<<ASSIGN   9694<<ASSIGN
P_PCB.OUT$
      8974**DCL      9626>>IF
SEG.SEG
      9227**DCL      9529>>IF       9530>>IF
SYM_.FIRST$
      9180**DCL      9181--REDEF    9184--REDEF
SYM_.SEG.SEG
      9183**DCL      9530>>IF
SYNTAXERR
      5567**DCL      9555>>UNWIND   9586>>UNWIND   9629>>UNWIND   9695>>UNWIND
TC.C
      9223**DCL      9224--IMP-SIZ  9568>>DOWHILE  9569>>ASSIGN   9570>>IF       9571>>ASSIGN   9622>>ASSIGN
      9652>>ASSIGN   9653>>ASSIGN
TC.T
      9224**DCL      9569>>ASSIGN   9571>>ASSIGN   9653>>ASSIGN
TMPLIT.C
      9161**DCL      9566<<ASSIGN   9579>>ASSIGN   9580<<ASSIGN   9580>>ASSIGN   9583>>IF       9586>>IF
      9589>>IF       9595>>ASSIGN
TMPLIT.T
      9162**DCL      9163--REDEF    9579<<ASSIGN
TMPLIT.TXT
      9163**DCL      9596>>ASSIGN
XUP$BLDNODE
         6**PROC     9538--CALL     9541--CALL     9607--CALL     9636--CALL     9712--CALL
XUP$BLDSYM
PL6.E3A0      #002=XUP$BLDNODE File=XUP$PARTRGE.:E05TSI                          WED 07/30/97 09:40 Page:361
      5568**DCL-ENT  9609--CALL

PL6.E3A0      #003=XUP$BLDSYM File=XUP$PARTRGE.:E05TSI                           WED 07/30/97 09:41 Page:362
     1803        1        /*T***********************************************************/
     1804        2        /*T*                                                         */
     1805        3        /*T* Copyright (c) Bull HN Information Systems Inc., 1997    */
     1806        4        /*T*                                                         */
     1807        5        /*T***********************************************************/
     1808        6        XUP$BLDSYM: PROC(PSYM,RET$) ALTRET;
     1809        7        %INCLUDE CP_6;
     1810     5566        %INCLUDE XU_MACRO_C;
     1811     8672        %SUB LITERAL=7/*LITERAL*/;
     1812     8673        %PARSE$SYM(NAME=PSYM,STCLASS=" ");
     1813     8711    1   DCL RET$ PTR;
     1814     8712    1   DCL NOCORERR REMEMBER SYMREF;
     1815     8713        %FPT_GDS (FPTN=SYMFPT, STCLASS=SYMREF);
     1816     8729    1   DCL 1 WORK_ DALIGNED SYMREF,
     1817     8730    1         2 SIZE UBIN(18),
     1818     8731    1         2 FIRST$ PTR,
     1819     8732    1         2 P$ PTR,
     1820     8733    1         2 NEXT$ PTR;
     1821     8734    1   DCL 1 LINES(0:0)BASED(WORK_.P$)ALIGNED,
     1822     8735    1         2 CPOS UBIN(18)UNAL,
     1823     8736    1         2 L# UBIN(18)UNAL,
     1824     8737    1         2 S# SBIN(27)UNAL,
     1825     8738    1         2 UPC CHAR(1);
     1826     8739    1   DCL 1 SYM_ DALIGNED SYMREF,
     1827     8740    1         2 SIZE UBIN(18),
     1828     8741    1         2 FIRST$ PTR,
     1829     8742    1         2 P$ PTR,
     1830     8743    1         2 NEXT$ PTR;
     1831     8744    1   DCL P$ PTR;
     1832     8745    1   DCL C UBIN;
     1833     8746    1   DCL 1 SYM BASED(P$),
     1834     8747    1         2 NODE$ PTR,
     1835     8748    1         2 VAL REDEF NODE$ SBIN,
     1836     8749    1         2 DEF BIT(1),
     1837     8750    1         2 USED BIT(1),
     1838     8751    1         2 X BIT (1),
     1839     8752    1         2 * BIT (6),
PL6.E3A0      #003=XUP$BLDSYM File=XUP$PARTRGE.:E05TSI                           WED 07/30/97 09:41 Page:363
     1840     8753    1         2 PRF UBIN HALF CALIGNED,
     1841     8754    1         2 C UBIN BYTE CALIGNED,
     1842     8755    1         2 T CHAR(SYM.C);
     1843     8756    1   DCL 1 XR BASED(SYM_.NEXT$)ALIGNED,
     1844     8757    1         2 L# SBIN(18)UNAL,
     1845     8758    1         2 D BIT(1),
     1846     8759    1         2 LNK UBIN(17)UNAL;
     1847     8760    1   DCL 1 SYMF BASED(P$),
     1848     8761    1         2 * PTR,
     1849     8762    1         2 C UBIN WORD;
     1850     8763    1   DCL SYMSZS(0:31)SBIN SYMREF;
     1851     8764    1      P$=SYM_.FIRST$;
     1852     8765    2      DO WHILE (P$<SYM_.NEXT$);
     1853     8766    3         IF SYM.VAL>=0 THEN DO;
     1854     8767    4            IF SYM.T=PSYM.TEXT THEN DO;
     1855     8768    4               SYM.USED='1'B;
     1856     8769    4               RET$=P$;
     1857     8770    4               P$=PINCRW(P$,SIZEW(SYM));
     1858     8771    5               DO WHILE(P$->XR.LNK~=0);
     1859     8772    5                  P$=PINCRW(SYM_.FIRST$,P$->XR.LNK);
     1860     8773    5                  END;
     1861     8774    4               P$->XR.LNK=POFFW(SYM_.NEXT$,SYM_.FIRST$);
     1862     8775    4               CALL XREF;
     1863     8776    4               ALTRETURN;
     1864     8777    4               END;
     1865     8778    3            P$=PINCRW(P$,SIZEW(SYM));
     1866     8779    3            END;
     1867     8780    2         ELSE P$=PINCRW(P$,1);
     1868     8781    2         END;
     1869     8782    1      C = (PSYM.COUNT + 11) / 4;
     1870     8783    1      IF POFFW(SYM_.NEXT$,SYM_.FIRST$)+C-1>SYM_.SIZE
     1871     8784    1      THEN CALL M$GDS(SYMFPT) ALTRET(ERROR);
     1872     8785    1      SYMF.C=PSYM.COUNT;
     1873     8786    1      SYMSZS(SYMF.C)=SYMSZS(SYMF.C)+1;
     1874     8787    1      SYMSZS(0)=SYMSZS(0)+1;
     1875     8788    1      SYM.T=PSYM.TEXT;
     1876     8789    1      SYM.NODE$=ADDR(NIL);
PL6.E3A0      #003=XUP$BLDSYM File=XUP$PARTRGE.:E05TSI                           WED 07/30/97 09:41 Page:364
     1877     8790    1      SYM_.NEXT$=PINCRW(P$,C);
     1878     8791    1      RET$=P$;
     1879     8792    1      CALL XREF;
     1880     8793    1      RETURN;
     1881     8794    1   XREF: PROC;
     1882     8795    2      IF POFFW(SYM_.NEXT$,SYM_.FIRST$)>SYM_.SIZE
     1883     8796    2      THEN CALL M$GDS(SYMFPT)ALTRET(ERROR);
     1884     8797    2      C=0;
     1885     8798    3      DO WHILE(LINES.CPOS(C)<=PSYM.CPOS);
     1886     8799    3         C=C+1;
     1887     8800    3         END;
     1888     8801    2      XR='0'B;
     1889     8802    2      XR.L#=-LINES.L#(C);
     1890     8803    2      SYM_.NEXT$=PINCRW(SYM_.NEXT$,1);
     1891     8804    2      RETURN;
     1892     8805    2   ERROR: UNWIND TO NOCORERR;
     1893     8806    2   END XREF;
     1894     8807    1   ERROR: UNWIND TO NOCORERR;
     1895     8808    1   END XUP$BLDSYM;
     1896     8809        %EOD;

PL6.E3A0      #003=XUP$BLDSYM File=XUP$PARTRGE.:E05TSI                           WED 07/30/97 09:41 Page:365
--  Include file information  --

   XU_MACRO_C.:E05TOU  is referenced.
   CP_6_C.:E05TOU  is referenced.
   CP_6.:E05TOU  cannot be made into a system file and is referenced.
      No diagnostics issued in procedure XUP$BLDSYM.

   Procedure XUP$BLDSYM requires 183 words for executable code.
   Procedure XUP$BLDSYM requires 12 words of local(AUTO) storage.

PL6.E3A0      #003=XUP$BLDSYM File=XUP$PARTRGE.:E05TSI                           WED 07/30/97 09:41 Page:366

 Object Unit name= XUP$BLDSYM                                 File name= XUP$PARTRGE.:E05TOU
 UTS= JUL 30 '97 09:41:17.96 WED                              Compiler= PL-6/E31         Sev=      00
 SharedLib= :SHARED_SYSTEM                                    Alt SharedLib=


    ****  Control sections  ****

 Sect   Type Bound  Init  Size OctSiz  Section name(segment info)
    0   DCB   even  none     0      0  M$UC
    1   Proc  even  none   183    267  XUP$BLDSYM

    ****  Entry defs  ****

                              Check   Calling
                             calling  sequence
  Sect OctLoc Primary Altret sequence   type   Parms  Name
     1      0   yes    yes     yes      Std        2  XUP$BLDSYM

  ****  Entry refs  ****

         Check        Calling
        calling       sequence
Altret sequence SRef   type   Args  Name
                       nStd      0 X66_AUTO_2
                       nStd      0 X66_AALT
                       Std       0 B_CONSPOOL_D
                       nStd      0 X66_ARET
                       nStd      0 X66_AUNWIND

  ****  Data refs  ****

  Flags:  r = read only, s = secondary
Flgs Name                             Flgs Name                             Flgs Name
     M$UC                                  NOCORERR                              SYMFPT
     WORK_                                 SYM_                                  SYMSZS
     B_VECTNIL
PL6.E3A0      #003=XUP$BLDSYM File=XUP$PARTRGE.:E05TSI                           WED 07/30/97 09:41 Page:367


     1803        1        /*T***********************************************************/
     1804        2        /*T*                                                         */
     1805        3        /*T* Copyright (c) Bull HN Information Systems Inc., 1997    */
     1806        4        /*T*                                                         */
     1807        5        /*T***********************************************************/
     1808        6        XUP$BLDSYM: PROC(PSYM,RET$) ALTRET;

      6  1 000000   000000 700200 xent  XUP$BLDSYM   TSX0  ! X66_AUTO_2
         1 000001   000014 000002                    ZERO    12,2

     1809        7        %INCLUDE CP_6;
     1810     5566        %INCLUDE XU_MACRO_C;
     1811     8672        %SUB LITERAL=7/*LITERAL*/;
     1812     8673        %PARSE$SYM(NAME=PSYM,STCLASS=" ");
     1813     8711    1   DCL RET$ PTR;
     1814     8712    1   DCL NOCORERR REMEMBER SYMREF;
     1815     8713        %FPT_GDS (FPTN=SYMFPT, STCLASS=SYMREF);
     1816     8729    1   DCL 1 WORK_ DALIGNED SYMREF,
     1817     8730    1         2 SIZE UBIN(18),
     1818     8731    1         2 FIRST$ PTR,
     1819     8732    1         2 P$ PTR,
     1820     8733    1         2 NEXT$ PTR;
     1821     8734    1   DCL 1 LINES(0:0)BASED(WORK_.P$)ALIGNED,
     1822     8735    1         2 CPOS UBIN(18)UNAL,
     1823     8736    1         2 L# UBIN(18)UNAL,
     1824     8737    1         2 S# SBIN(27)UNAL,
     1825     8738    1         2 UPC CHAR(1);
     1826     8739    1   DCL 1 SYM_ DALIGNED SYMREF,
     1827     8740    1         2 SIZE UBIN(18),
     1828     8741    1         2 FIRST$ PTR,
     1829     8742    1         2 P$ PTR,
     1830     8743    1         2 NEXT$ PTR;
     1831     8744    1   DCL P$ PTR;
     1832     8745    1   DCL C UBIN;
     1833     8746    1   DCL 1 SYM BASED(P$),
     1834     8747    1         2 NODE$ PTR,
PL6.E3A0      #003=XUP$BLDSYM File=XUP$PARTRGE.:E05TSI                           WED 07/30/97 09:41 Page:368
     1835     8748    1         2 VAL REDEF NODE$ SBIN,
     1836     8749    1         2 DEF BIT(1),
     1837     8750    1         2 USED BIT(1),
     1838     8751    1         2 X BIT (1),
     1839     8752    1         2 * BIT (6),
     1840     8753    1         2 PRF UBIN HALF CALIGNED,
     1841     8754    1         2 C UBIN BYTE CALIGNED,
     1842     8755    1         2 T CHAR(SYM.C);
     1843     8756    1   DCL 1 XR BASED(SYM_.NEXT$)ALIGNED,
     1844     8757    1         2 L# SBIN(18)UNAL,
     1845     8758    1         2 D BIT(1),
     1846     8759    1         2 LNK UBIN(17)UNAL;
     1847     8760    1   DCL 1 SYMF BASED(P$),
     1848     8761    1         2 * PTR,
     1849     8762    1         2 C UBIN WORD;
     1850     8763    1   DCL SYMSZS(0:31)SBIN SYMREF;
     1851     8764    1      P$=SYM_.FIRST$;

   8764  1 000002   000001 236000 xsym               LDQ     SYM_+1
         1 000003   200005 756100                    STQ     P$,,AUTO

     1852     8765    2      DO WHILE (P$<SYM_.NEXT$);

   8765  1 000004   000003 116000 xsym               CMPQ    SYM_+3
         1 000005   000114 603000 1                  TRC     s:8782

     1853     8766    3         IF SYM.VAL>=0 THEN DO;

   8766  1 000006   200005 470500                    LDP0    P$,,AUTO
         1 000007   000000 235100                    LDA     0,,PR0
         1 000010   000107 604000 1                  TMI     s:8780

     1854     8767    4            IF SYM.T=PSYM.TEXT THEN DO;

   8767  1 000011   000001 720100                    LXL0    1,,PR0
         1 000012   000777 360003                    ANX0    511,DU
         1 000013   200003 471500                    LDP1    @PSYM,,AUTO
PL6.E3A0      #003=XUP$BLDSYM File=XUP$PARTRGE.:E05TSI                           WED 07/30/97 09:41 Page:369
         1 000014   100004 236100                    LDQ     4,,PR1
         1 000015   000033 772000                    QRL     27
         1 000016   000000 621006                    EAX1    0,QL
         1 000017   040140 106540                    CMPC    fill='040'O
         1 000020   000002 000010                    ADSC9   2,,PR0                   cn=0,n=*X0
         1 000021   100004 200011                    ADSC9   4,,PR1                   cn=1,n=*X1
         1 000022   000075 601000 1                  TNZ     s:8778

     1855     8768    4               SYM.USED='1'B;

   8768  1 000023   200000 236003                    LDQ     65536,DU
         1 000024   000001 256100                    ORSQ    1,,PR0

     1856     8769    4               RET$=P$;

   8769  1 000025   200005 236100                    LDQ     P$,,AUTO
         1 000026   200004 473500                    LDP3    @RET$,,AUTO
         1 000027   300000 756100                    STQ     0,,PR3

     1857     8770    4               P$=PINCRW(P$,SIZEW(SYM));

   8770  1 000030   000001 720100                    LXL0    1,,PR0
         1 000031   000777 360003                    ANX0    511,DU
         1 000032   000010 621010                    EAX1    8,X0
         1 000033   000000 636011                    EAQ     0,X1
         1 000034   000022 772000                    QRL     18
         1 000035   000011 402007                    MPY     9,DL
         1 000036   000043 036007                    ADLQ    35,DL
         1 000037   000044 506007                    DIV     36,DL
         1 000040   000022 736000                    QLS     18
         1 000041   200005 036100                    ADLQ    P$,,AUTO
         1 000042   200005 756100                    STQ     P$,,AUTO

     1858     8771    5               DO WHILE(P$->XR.LNK~=0);

   8771  1 000043   200005 470500                    LDP0    P$,,AUTO
         1 000044   000000 236100                    LDQ     0,,PR0
PL6.E3A0      #003=XUP$BLDSYM File=XUP$PARTRGE.:E05TSI                           WED 07/30/97 09:41 Page:370
         1 000045   377777 316007                    CANQ    131071,DL
         1 000046   000061 600000 1                  TZE     s:8774

     1859     8772    5                  P$=PINCRW(SYM_.FIRST$,P$->XR.LNK);

   8772  1 000047   200005 470500                    LDP0    P$,,AUTO
         1 000050   000000 720100                    LXL0    0,,PR0
         1 000051   377777 360003                    ANX0    131071,DU
         1 000052   000000 636010                    EAQ     0,X0
         1 000053   000001 036000 xsym               ADLQ    SYM_+1
         1 000054   200005 756100                    STQ     P$,,AUTO

     1860     8773    5                  END;

   8773  1 000055   200005 470500                    LDP0    P$,,AUTO
         1 000056   000000 236100                    LDQ     0,,PR0
         1 000057   377777 316007                    CANQ    131071,DL
         1 000060   000047 601000 1                  TNZ     s:8772

     1861     8774    4               P$->XR.LNK=POFFW(SYM_.NEXT$,SYM_.FIRST$);

   8774  1 000061   000001 235000 xsym               LDA     SYM_+1
         1 000062   000022 771000                    ARL     18
         1 000063   200012 755100                    STA     C+4,,AUTO
         1 000064   000003 236000 xsym               LDQ     SYM_+3
         1 000065   000022 772000                    QRL     18
         1 000066   200012 136100                    SBLQ    C+4,,AUTO
         1 000067   000000 676100                    ERQ     0,,PR0
         1 000070   377777 376007                    ANQ     131071,DL
         1 000071   000000 656100                    ERSQ    0,,PR0

     1862     8775    4               CALL XREF;

   8775  1 000072   000177 701000 1                  TSX1    XREF
         1 000073   000000 011000                    NOP     0

     1863     8776    4               ALTRETURN;
PL6.E3A0      #003=XUP$BLDSYM File=XUP$PARTRGE.:E05TSI                           WED 07/30/97 09:41 Page:371

   8776  1 000074   000000 702200 xent               TSX2  ! X66_AALT

     1864     8777    4               END;
     1865     8778    3            P$=PINCRW(P$,SIZEW(SYM));

   8778  1 000075   000010 622010                    EAX2    8,X0
         1 000076   000000 636012                    EAQ     0,X2
         1 000077   000022 772000                    QRL     18
         1 000100   000011 402007                    MPY     9,DL
         1 000101   000043 036007                    ADLQ    35,DL
         1 000102   000044 506007                    DIV     36,DL
         1 000103   000022 736000                    QLS     18
         1 000104   200005 036100                    ADLQ    P$,,AUTO
         1 000105   200005 756100                    STQ     P$,,AUTO

     1866     8779    3            END;

   8779  1 000106   000112 710000 1                  TRA     s:8781

     1867     8780    2         ELSE P$=PINCRW(P$,1);

   8780  1 000107   200005 236100                    LDQ     P$,,AUTO
         1 000110   000001 036003                    ADLQ    1,DU
         1 000111   200005 756100                    STQ     P$,,AUTO

     1868     8781    2         END;

   8781  1 000112   000003 116000 xsym               CMPQ    SYM_+3
         1 000113   000006 602000 1                  TNC     s:8766

     1869     8782    1      C = (PSYM.COUNT + 11) / 4;

   8782  1 000114   200003 470500                    LDP0    @PSYM,,AUTO
         1 000115   000004 236100                    LDQ     4,,PR0
         1 000116   000033 772000                    QRL     27
         1 000117   000013 036007                    ADLQ    11,DL
PL6.E3A0      #003=XUP$BLDSYM File=XUP$PARTRGE.:E05TSI                           WED 07/30/97 09:41 Page:372
         1 000120   000002 772000                    QRL     2
         1 000121   200006 756100                    STQ     C,,AUTO

     1870     8783    1      IF POFFW(SYM_.NEXT$,SYM_.FIRST$)+C-1>SYM_.SIZE

   8783  1 000122   000001 235000 xsym               LDA     SYM_+1
         1 000123   000022 771000                    ARL     18
         1 000124   200012 755100                    STA     C+4,,AUTO
         1 000125   000003 236000 xsym               LDQ     SYM_+3
         1 000126   000022 772000                    QRL     18
         1 000127   200012 136100                    SBLQ    C+4,,AUTO
         1 000130   200006 036100                    ADLQ    C,,AUTO
         1 000131   000001 136007                    SBLQ    1,DL
         1 000132   200013 756100                    STQ     C+5,,AUTO
         1 000133   000000 236000 xsym               LDQ     SYM_
         1 000134   000022 772000                    QRL     18
         1 000135   200013 116100                    CMPQ    C+5,,AUTO
         1 000136   000143 605000 1                  TPL     s:8785

     1871     8784    1      THEN CALL M$GDS(SYMFPT) ALTRET(ERROR);

   8784  1 000137   000000 630400 xsym               EPPR0   SYMFPT
         1 000140   430001 713400                    CLIMB   alt,gds
         1 000141   400400 401760                    pmme    nvectors=2
         1 000142   000264 702000 1                  TSX2    ERROR

     1872     8785    1      SYMF.C=PSYM.COUNT;

   8785  1 000143   200003 470500                    LDP0    @PSYM,,AUTO
         1 000144   200005 471500                    LDP1    P$,,AUTO
         1 000145   000004 236100                    LDQ     4,,PR0
         1 000146   000033 772000                    QRL     27
         1 000147   100001 756100                    STQ     1,,PR1

     1873     8786    1      SYMSZS(SYMF.C)=SYMSZS(SYMF.C)+1;

   8786  1 000150   100001 720100                    LXL0    1,,PR1
PL6.E3A0      #003=XUP$BLDSYM File=XUP$PARTRGE.:E05TSI                           WED 07/30/97 09:41 Page:373
         1 000151   000000 054010 xsym               AOS     SYMSZS,X0

     1874     8787    1      SYMSZS(0)=SYMSZS(0)+1;

   8787  1 000152   000000 054000 xsym               AOS     SYMSZS

     1875     8788    1      SYM.T=PSYM.TEXT;

   8788  1 000153   100001 720100                    LXL0    1,,PR1
         1 000154   000777 360003                    ANX0    511,DU
         1 000155   000004 236100                    LDQ     4,,PR0
         1 000156   000033 772000                    QRL     27
         1 000157   000000 621006                    EAX1    0,QL
         1 000160   040140 100540                    MLR     fill='040'O
         1 000161   000004 200011                    ADSC9   4,,PR0                   cn=1,n=*X1
         1 000162   100002 000010                    ADSC9   2,,PR1                   cn=0,n=*X0

     1876     8789    1      SYM.NODE$=ADDR(NIL);

   8789  1 000163   000001 236000 xsym               LDQ     B_VECTNIL+1
         1 000164   100000 756100                    STQ     0,,PR1

     1877     8790    1      SYM_.NEXT$=PINCRW(P$,C);

   8790  1 000165   200006 236100                    LDQ     C,,AUTO
         1 000166   000022 736000                    QLS     18
         1 000167   200005 036100                    ADLQ    P$,,AUTO
         1 000170   000003 756000 xsym               STQ     SYM_+3

     1878     8791    1      RET$=P$;

   8791  1 000171   200005 236100                    LDQ     P$,,AUTO
         1 000172   200004 473500                    LDP3    @RET$,,AUTO
         1 000173   300000 756100                    STQ     0,,PR3

     1879     8792    1      CALL XREF;

PL6.E3A0      #003=XUP$BLDSYM File=XUP$PARTRGE.:E05TSI                           WED 07/30/97 09:41 Page:374
   8792  1 000174   000177 701000 1                  TSX1    XREF
         1 000175   000000 011000                    NOP     0

     1880     8793    1      RETURN;

   8793  1 000176   000000 702200 xent               TSX2  ! X66_ARET

     1881     8794    1   XREF: PROC;

   8794  1 000177   200010 741300       XREF         STX1  ! C+2,,AUTO

     1882     8795    2      IF POFFW(SYM_.NEXT$,SYM_.FIRST$)>SYM_.SIZE

   8795  1 000200   000001 235000 xsym               LDA     SYM_+1
         1 000201   000022 771000                    ARL     18
         1 000202   200012 755100                    STA     C+4,,AUTO
         1 000203   000003 236000 xsym               LDQ     SYM_+3
         1 000204   000022 772000                    QRL     18
         1 000205   200012 136100                    SBLQ    C+4,,AUTO
         1 000206   200013 756100                    STQ     C+5,,AUTO
         1 000207   000000 236000 xsym               LDQ     SYM_
         1 000210   000022 772000                    QRL     18
         1 000211   200013 116100                    CMPQ    C+5,,AUTO
         1 000212   000217 605000 1                  TPL     s:8797

     1883     8796    2      THEN CALL M$GDS(SYMFPT)ALTRET(ERROR);

   8796  1 000213   000000 630400 xsym               EPPR0   SYMFPT
         1 000214   430001 713400                    CLIMB   alt,gds
         1 000215   400400 401760                    pmme    nvectors=2
         1 000216   000261 702000 1                  TSX2    ERROR

     1884     8797    2      C=0;

   8797  1 000217   200006 450100                    STZ     C,,AUTO

     1885     8798    3      DO WHILE(LINES.CPOS(C)<=PSYM.CPOS);
PL6.E3A0      #003=XUP$BLDSYM File=XUP$PARTRGE.:E05TSI                           WED 07/30/97 09:41 Page:375

   8798  1 000220   200003 470500                    LDP0    @PSYM,,AUTO
         1 000221   200006 235100                    LDA     C,,AUTO
         1 000222   000001 735000                    ALS     1
         1 000223   000002 471400 xsym               LDP1    WORK_+2
         1 000224   100000 236105                    LDQ     0,AL,PR1
         1 000225   000022 772000                    QRL     18
         1 000226   000002 116100                    CMPQ    2,,PR0
         1 000227   000231 600000 1                  TZE     s:8799
         1 000230   000244 603000 1                  TRC     s:8801

     1886     8799    3         C=C+1;

   8799  1 000231   200006 235100                    LDA     C,,AUTO
         1 000232   000001 035007                    ADLA    1,DL
         1 000233   200006 755100                    STA     C,,AUTO

     1887     8800    3         END;

   8800  1 000234   200003 470500                    LDP0    @PSYM,,AUTO
         1 000235   000001 735000                    ALS     1
         1 000236   000002 471400 xsym               LDP1    WORK_+2
         1 000237   100000 236105                    LDQ     0,AL,PR1
         1 000240   000022 772000                    QRL     18
         1 000241   000002 116100                    CMPQ    2,,PR0
         1 000242   000231 602000 1                  TNC     s:8799
         1 000243   000231 600000 1                  TZE     s:8799

     1888     8801    2      XR='0'B;

   8801  1 000244   000003 473400 xsym               LDP3    SYM_+3
         1 000245   300000 450100                    STZ     0,,PR3

     1889     8802    2      XR.L#=-LINES.L#(C);

   8802  1 000246   000002 471400 xsym               LDP1    WORK_+2
         1 000247   100000 720105                    LXL0    0,AL,PR1
PL6.E3A0      #003=XUP$BLDSYM File=XUP$PARTRGE.:E05TSI                           WED 07/30/97 09:41 Page:376
         1 000250   777777 620010                    EAX0    -1,X0
         1 000251   777777 660003                    ERX0    -1,DU
         1 000252   000003 473400 xsym               LDP3    SYM_+3
         1 000253   300000 740100                    STX0    0,,PR3

     1890     8803    2      SYM_.NEXT$=PINCRW(SYM_.NEXT$,1);

   8803  1 000254   000003 236000 xsym               LDQ     SYM_+3
         1 000255   000001 036003                    ADLQ    1,DU
         1 000256   000003 756000 xsym               STQ     SYM_+3

     1891     8804    2      RETURN;

   8804  1 000257   200010 221300                    LDX1  ! C+2,,AUTO
         1 000260   000001 702211                    TSX2  ! 1,X1

     1892     8805    2   ERROR: UNWIND TO NOCORERR;

   8805  1 000261   000000 237200 xsym  ERROR        LDAQ  ! NOCORERR
         1 000262   000000 700200 xent               TSX0  ! X66_AUNWIND
         1 000263   000000 000200                    ZERO    0,128

     1893     8806    2   END XREF;
     1894     8807    1   ERROR: UNWIND TO NOCORERR;

   8807  1 000264   000000 237200 xsym  ERROR        LDAQ  ! NOCORERR
         1 000265   000000 700200 xent               TSX0  ! X66_AUNWIND
         1 000266   000000 000200                    ZERO    0,128
     1895     8808    1   END XUP$BLDSYM;
     1896     8809        %EOD;

PL6.E3A0      #003=XUP$BLDSYM File=XUP$PARTRGE.:E05TSI                           WED 07/30/97 09:41 Page:377
--  Include file information  --

   XU_MACRO_C.:E05TOU  is referenced.
   CP_6_C.:E05TOU  is referenced.
   CP_6.:E05TOU  cannot be made into a system file and is referenced.
      No diagnostics issued in procedure XUP$BLDSYM.
PL6.E3A0      #003=XUP$BLDSYM File=XUP$PARTRGE.:E05TSI                           WED 07/30/97 09:41 Page:378

 **** Variables and constants ****

  ****  Auto variables  ****

  ****  Scalars and arrays  ****
OctLoc.c.b A Datatyp(siz) R M Lvl/name                 OctLoc.c.b A Datatyp(siz) R M Lvl/name

     3-0-0/w PTR         r     1 @PSYM                      4-0-0/w PTR         r     1 @RET$
     6-0-0/w UBIN        r     1 C                          5-0-0/w PTR         r     1 P$
    *0-0-0/w ASTR(153)   r     1 PSYM                      *0-0-0/w PTR         r     1 RET$

  ****  SYMREF variables  ****

  ****  Scalars and arrays  ****
OctLoc.c.b A Datatyp(siz) R M Lvl/name                 OctLoc.c.b A Datatyp(siz) R M Lvl/name

     0-0-0/d REMB        r     1 NOCORERR                   0-0-0/d STRC(216)   r     1 SYMFPT
     0-0-0/w SBIN        r     1 SYMSZS(0:31)               0-0-0/d STRC(144)   r     1 SYM_
     0-0-0/d STRC(144)   r     1 WORK_

  ****  BASED and DCB variables  ****

  ****  Scalars and arrays  ****
OctLoc.c.b A Datatyp(siz) R M Lvl/name                 OctLoc.c.b A Datatyp(siz) R M Lvl/name

     0-0-0/w STRC(72)    r     1 LINES(0:0)                 0-0-0/w ASTR(72)    r     1 SYM
     0-0-0/w STRC(72)    r     1 SYMF                       0-0-0/w STRC        r     1 XR


   Procedure XUP$BLDSYM requires 183 words for executable code.
   Procedure XUP$BLDSYM requires 12 words of local(AUTO) storage.
PL6.E3A0      #003=XUP$BLDSYM File=XUP$PARTRGE.:E05TSI                           WED 07/30/97 09:41 Page:379
          *** CROSS REFERENCE LISTING ***
**     DENOTES     IDENTIFIER DEFINITION
<<                 IDENTIFIER'S VALUE SET
>>                 IDENTIFIER'S VALUE USED
<>                 IDENTIFIER SET AND/OR USED
--                 IDENTIFIER REFERENCED
PL6.E3A0      #003=XUP$BLDSYM File=XUP$PARTRGE.:E05TSI                           WED 07/30/97 09:41 Page:380
          MINI XREF LISTING

C
      8745**DCL      8782<<ASSIGN   8783>>IF       8790>>ASSIGN   8797<<ASSIGN   8798>>DOWHILE  8799<<ASSIGN
      8799>>ASSIGN   8802>>ASSIGN
ERROR
      8807**LABEL    8784--CALLALT
ERROR IN PROCEDURE XREF
      8805**LABEL    8796--CALLALT
LINES.CPOS
      8735**DCL      8798>>DOWHILE
LINES.L#
      8736**DCL      8802>>ASSIGN
M$GDS
      5529**DCL-ENT  8784--CALL     8796--CALL
NOCORERR
      8712**DCL      8805>>UNWIND   8807>>UNWIND
P$
      8744**DCL      8746--IMP-PTR  8760--IMP-PTR  8764<<ASSIGN   8765>>DOWHILE  8766>>IF       8767>>IF
      8767>>IF       8768>>ASSIGN   8769>>ASSIGN   8770<<ASSIGN   8770>>ASSIGN   8770>>ASSIGN   8770>>ASSIGN
      8771>>DOWHILE  8772<<ASSIGN   8772>>ASSIGN   8774>>ASSIGN   8778<<ASSIGN   8778>>ASSIGN   8778>>ASSIGN
      8778>>ASSIGN   8780<<ASSIGN   8780>>ASSIGN   8785>>ASSIGN   8786>>ASSIGN   8786>>ASSIGN   8788>>ASSIGN
      8788>>ASSIGN   8789>>ASSIGN   8790>>ASSIGN   8791>>ASSIGN
PSYM
      8680**DCL         6--PROC
PSYM.COUNT
      8703**DCL      8706--IMP-SIZ  8767>>IF       8782>>ASSIGN   8785>>ASSIGN   8788>>ASSIGN
PSYM.CPOS
      8695**DCL      8798>>DOWHILE
PSYM.TEXT
      8706**DCL      8767>>IF       8788>>ASSIGN
RET$
      8711**DCL         6--PROC     8769<<ASSIGN   8791<<ASSIGN
SYM
PL6.E3A0      #003=XUP$BLDSYM File=XUP$PARTRGE.:E05TSI                           WED 07/30/97 09:41 Page:381
      8746**DCL      8770--ASSIGN   8778--ASSIGN
SYM.C
      8754**DCL      8755--IMP-SIZ  8767>>IF       8770>>ASSIGN   8778>>ASSIGN   8788>>ASSIGN
SYM.NODE$
      8747**DCL      8748--REDEF    8789<<ASSIGN
SYM.T
      8755**DCL      8767>>IF       8788<<ASSIGN
SYM.USED
      8750**DCL      8768<<ASSIGN
SYM.VAL
      8748**DCL      8766>>IF
SYMF.C
      8762**DCL      8785<<ASSIGN   8786>>ASSIGN   8786>>ASSIGN
SYMFPT
      8724**DCL      8784<>CALL     8796<>CALL
SYMSZS
      8763**DCL      8786<<ASSIGN   8786>>ASSIGN   8787<<ASSIGN   8787>>ASSIGN
SYM_.FIRST$
      8741**DCL      8764>>ASSIGN   8772>>ASSIGN   8774>>ASSIGN   8783>>IF       8795>>IF
SYM_.NEXT$
      8743**DCL      8756--IMP-PTR  8765>>DOWHILE  8774>>ASSIGN   8783>>IF       8790<<ASSIGN   8795>>IF
      8801>>ASSIGN   8802>>ASSIGN   8803<<ASSIGN   8803>>ASSIGN
SYM_.SIZE
      8740**DCL      8783>>IF       8795>>IF
WORK_.P$
      8732**DCL      8734--IMP-PTR  8798>>DOWHILE  8802>>ASSIGN
XR
      8756**DCL      8801<<ASSIGN
XR.L#
      8757**DCL      8802<<ASSIGN
XR.LNK
      8759**DCL      8771>>DOWHILE  8772>>ASSIGN   8774<<ASSIGN
XREF
      8794**PROC     8775--CALL     8792--CALL

PL6.E3A0      #004=XUP$BLDOPT File=XUP$PARTRGE.:E05TSI                           WED 07/30/97 09:41 Page:382
     1897        1        /*T***********************************************************/
     1898        2        /*T*                                                         */
     1899        3        /*T* Copyright (c) Bull HN Information Systems Inc., 1997    */
     1900        4        /*T*                                                         */
     1901        5        /*T***********************************************************/
     1902        6        XUP$BLDOPT: PROC(OUT_BLK);
     1903        7        %INCLUDE XU_MACRO_C;
     1904     3113        %PARSE$OUT (NAME=OUT_BLK, STCLASS=" ");
     1905     3158        %PARSE$SYM(STCLASS=BASED);
     1906     3196        %P$PCB(NAME=P_PCB,STCLASS=SYMREF);
     1907     3397    1   DCL SYNTAXERR REMEMBER SYMREF;
     1908     3398        %SUB XDEF=2/* XDEF */;
     1909     3399        %SUB NCODE=9/* NCODE */;
     1910     3400        %SUB LCODE=1/* LCODE */;
     1911     3401        %SUB OUT=3/* OUT */;
     1912     3402        %SUB PRE=4/* PRE */;
     1913     3403        %SUB SUCC=5/* SUCC */;
     1914     3404        %SUB FAIL=6/* FAIL */;
     1915     3405        %SUB NOOUT=7/* NOOUT */;
     1916     3406        %SUB RTEXT=8/* RTEXT */;
     1917     3407        %SUB MAKEUC=9/* MAKEUC */;
     1918     3408        %MACRO REC(NAME=);
     1919     3409        DCL 1 NAME DALIGNED SYMREF,
     1920     3410              2 SIZE UBIN(18),
     1921     3411              2 FIRST$ PTR,
     1922     3412              2 SEG REDEF FIRST$,
     1923     3413                3 * BIT(18),
     1924     3414                3 SEG UBIN(18) UNAL,
     1925     3415              2 F$SBIN REDEF FIRST$ SBIN,
     1926     3416              2 P$ PTR,
     1927     3417              2 NEXT$ PTR;
     1928     3418        %MEND;
     1929     3419        %REC(NAME=SYM_);
     1930     3430    1   DCL LITCODE UBIN SYMREF;
     1931     3431    1   DCL LIT_PRESENT BIT(1) SYMREF;
     1932     3432    1   DCL 1 NODECODE SYMREF,
     1933     3433    1         2 TYPE UBIN (3) UNAL,
PL6.E3A0      #004=XUP$BLDOPT File=XUP$PARTRGE.:E05TSI                           WED 07/30/97 09:41 Page:383
     1934     3434    1         2 PRE_F BIT(1),
     1935     3435    1         2 SUCC_F BIT(1),
     1936     3436    1         2 FAIL_F BIT(1),
     1937     3437    1         2 OUT_F  BIT(1),
     1938     3438    1         2 OPT BIT(1) UNAL,
     1939     3439    1         2 RPEAT BIT(1),
     1940     3440    1         2 SKBL BIT(1),
     1941     3441    1         2 RTEXT_F BIT(1),
     1942     3442    1         2 UPRLOWR BIT(1),
     1943     3443    1         2 MAKEUC_F REDEF UPRLOWR BIT(1),
     1944     3444    1         2 ABBREV UBIN(8) UNAL,
     1945     3445    1         2 CODE UBIN(16) UNAL,
     1946     3446    1         2 NOUT_F BIT(1);
     1947     3447    1   DCL I UBIN;
     1948     3448    1   DCL 1 SYM BASED(SYM_.P$),
     1949     3449    1         2 NODE$ PTR,
     1950     3450    1         2 VAL REDEF NODE$ SBIN,
     1951     3451    1         2 DEF BIT(1),
     1952     3452    1         2 USED BIT(1),
     1953     3453    1         2 X BIT(1),
     1954     3454    1         2 * BIT(6),
     1955     3455    1         2 PRF UBIN HALF CALIGNED,
     1956     3456    1         2 C UBIN BYTE CALIGNED,
     1957     3457    1         2 T CHAR(SYM.C);
     1958     3458        %EJECT;     /* BEIGIN PROCEDURE */
PL6.E3A0      #004=XUP$BLDOPT File=XUP$PARTRGE.:E05TSI                           WED 07/30/97 09:41 Page:384
     1959     3459    2      DO CASE(OUT_BLK.CODE);
     1960     3460    2      CASE(XDEF);
     1961     3461    2         SYM.X='1'B;
     1962     3462    2      CASE(OUT);
     1963     3463    2         NODECODE.OUT_F='1'B;
     1964     3464    2      CASE(PRE);
     1965     3465    2         NODECODE.PRE_F='1'B;
     1966     3466    2      CASE(SUCC);
     1967     3467    2         NODECODE.SUCC_F='1'B;
     1968     3468    2      CASE(FAIL);
     1969     3469    2         NODECODE.FAIL_F='1'B;
     1970     3470    2      CASE(NOOUT);
     1971     3471    2         NODECODE.NOUT_F='1'B;
     1972     3472    2      CASE(RTEXT);
     1973     3473    2         NODECODE.RTEXT_F='1'B;
     1974     3474    2         NODECODE.OUT_F='1'B;
     1975     3475    2      CASE(MAKEUC);
     1976     3476    2         NODECODE.MAKEUC_F='1'B;
     1977     3477    2      CASE(ELSE); /* SUBSTRUCTURE, LITCODE=N */
     1978     3478    3         IF OUT_BLK.NSUBLKS=1 THEN DO; /* CODE ALONE */
     1979     3479    3            CALL CHARBIN(I,ADDR(OUT_BLK) -> OUT$SYM.TEXT);
     1980     3480    4            IF I>65535 THEN DO;
     1981     3481    4               P_PCB.HI_CHAR=OUT_BLK.CPOS;
     1982     3482    4               UNWIND TO SYNTAXERR;
     1983     3483    4               END;
     1984     3484    3            NODECODE.CODE=I;
     1985     3485    3            NODECODE.OUT_F='1'B;
     1986     3486    3            END;
     1987     3487    3         ELSE DO CASE(OUT_BLK.SUBLK$(0)->OUT$SYM.CODE);
     1988     3488    3         CASE(LCODE);
     1989     3489    3            CALL CHARBIN(LITCODE,OUT_BLK.SUBLK$(1)->OUT$SYM.TEXT);
     1990     3490    3            LIT_PRESENT = '1'B;
     1991     3491    3         CASE(ELSE); /* MORE OF OTHER STUFF */
     1992     3492    3            I=0;
     1993     3493    4            DO WHILE(I<OUT_BLK.NSUBLKS);
     1994     3494    4               CALL XUP$BLDOPT(OUT_BLK.SUBLK$(I)->OUT$SYM);
     1995     3495    4               I=I+1;
PL6.E3A0      #004=XUP$BLDOPT File=XUP$PARTRGE.:E05TSI                           WED 07/30/97 09:41 Page:385
     1996     3496    4               END;
     1997     3497    3         END;
     1998     3498    2      END;
     1999     3499    1   END;
     2000     3500        %EOD;

PL6.E3A0      #004=XUP$BLDOPT File=XUP$PARTRGE.:E05TSI                           WED 07/30/97 09:41 Page:386
--  Include file information  --

   XU_MACRO_C.:E05TOU  is referenced.
      No diagnostics issued in procedure XUP$BLDOPT.

   Procedure XUP$BLDOPT requires 112 words for executable code.
   Procedure XUP$BLDOPT requires 8 words of local(AUTO) storage.

PL6.E3A0      #004=XUP$BLDOPT File=XUP$PARTRGE.:E05TSI                           WED 07/30/97 09:41 Page:387

 Object Unit name= XUP$BLDOPT                                 File name= XUP$PARTRGE.:E05TOU
 UTS= JUL 30 '97 09:41:32.32 WED                              Compiler= PL-6/E31         Sev=      00
 SharedLib= :SHARED_SYSTEM                                    Alt SharedLib=


    ****  Control sections  ****

 Sect   Type Bound  Init  Size OctSiz  Section name(segment info)
    0   Proc  even  none   112    160  XUP$BLDOPT

    ****  Entry defs  ****

                              Check   Calling
                             calling  sequence
  Sect OctLoc Primary Altret sequence   type   Parms  Name
     0      0   yes            yes      Std        1  XUP$BLDOPT

  ****  Entry refs  ****

         Check        Calling
        calling       sequence
Altret sequence SRef   type   Args  Name
                       nStd      0 X66_AUTO_1
                       nStd      0 X66_AUNWIND
                       Std       0 B_CONSPOOL_D
                       nStd      0 X66_ARET

  ****  Data refs  ****

  Flags:  r = read only, s = secondary
Flgs Name                             Flgs Name                             Flgs Name
     P_PCB                                 SYNTAXERR                             SYM_
     LITCODE                               LIT_PRESENT                           NODECODE
     B_VECTNIL
PL6.E3A0      #004=XUP$BLDOPT File=XUP$PARTRGE.:E05TSI                           WED 07/30/97 09:41 Page:388


     1897        1        /*T***********************************************************/
     1898        2        /*T*                                                         */
     1899        3        /*T* Copyright (c) Bull HN Information Systems Inc., 1997    */
     1900        4        /*T*                                                         */
     1901        5        /*T***********************************************************/
     1902        6        XUP$BLDOPT: PROC(OUT_BLK);

      6  0 000000   000000 700200 xent  XUP$BLDOPT   TSX0  ! X66_AUTO_1
         0 000001   000010 000001                    ZERO    8,1

     1903        7        %INCLUDE XU_MACRO_C;
     1904     3113        %PARSE$OUT (NAME=OUT_BLK, STCLASS=" ");
     1905     3158        %PARSE$SYM(STCLASS=BASED);
     1906     3196        %P$PCB(NAME=P_PCB,STCLASS=SYMREF);
     1907     3397    1   DCL SYNTAXERR REMEMBER SYMREF;
     1908     3398        %SUB XDEF=2/* XDEF */;
     1909     3399        %SUB NCODE=9/* NCODE */;
     1910     3400        %SUB LCODE=1/* LCODE */;
     1911     3401        %SUB OUT=3/* OUT */;
     1912     3402        %SUB PRE=4/* PRE */;
     1913     3403        %SUB SUCC=5/* SUCC */;
     1914     3404        %SUB FAIL=6/* FAIL */;
     1915     3405        %SUB NOOUT=7/* NOOUT */;
     1916     3406        %SUB RTEXT=8/* RTEXT */;
     1917     3407        %SUB MAKEUC=9/* MAKEUC */;
     1918     3408        %MACRO REC(NAME=);
     1919     3409        DCL 1 NAME DALIGNED SYMREF,
     1920     3410              2 SIZE UBIN(18),
     1921     3411              2 FIRST$ PTR,
     1922     3412              2 SEG REDEF FIRST$,
     1923     3413                3 * BIT(18),
     1924     3414                3 SEG UBIN(18) UNAL,
     1925     3415              2 F$SBIN REDEF FIRST$ SBIN,
     1926     3416              2 P$ PTR,
     1927     3417              2 NEXT$ PTR;
     1928     3418        %MEND;
PL6.E3A0      #004=XUP$BLDOPT File=XUP$PARTRGE.:E05TSI                           WED 07/30/97 09:41 Page:389
     1929     3419        %REC(NAME=SYM_);
     1930     3430    1   DCL LITCODE UBIN SYMREF;
     1931     3431    1   DCL LIT_PRESENT BIT(1) SYMREF;
     1932     3432    1   DCL 1 NODECODE SYMREF,
     1933     3433    1         2 TYPE UBIN (3) UNAL,
     1934     3434    1         2 PRE_F BIT(1),
     1935     3435    1         2 SUCC_F BIT(1),
     1936     3436    1         2 FAIL_F BIT(1),
     1937     3437    1         2 OUT_F  BIT(1),
     1938     3438    1         2 OPT BIT(1) UNAL,
     1939     3439    1         2 RPEAT BIT(1),
     1940     3440    1         2 SKBL BIT(1),
     1941     3441    1         2 RTEXT_F BIT(1),
     1942     3442    1         2 UPRLOWR BIT(1),
     1943     3443    1         2 MAKEUC_F REDEF UPRLOWR BIT(1),
     1944     3444    1         2 ABBREV UBIN(8) UNAL,
     1945     3445    1         2 CODE UBIN(16) UNAL,
     1946     3446    1         2 NOUT_F BIT(1);
     1947     3447    1   DCL I UBIN;
     1948     3448    1   DCL 1 SYM BASED(SYM_.P$),
     1949     3449    1         2 NODE$ PTR,
     1950     3450    1         2 VAL REDEF NODE$ SBIN,
     1951     3451    1         2 DEF BIT(1),
     1952     3452    1         2 USED BIT(1),
     1953     3453    1         2 X BIT(1),
     1954     3454    1         2 * BIT(6),
     1955     3455    1         2 PRF UBIN HALF CALIGNED,
     1956     3456    1         2 C UBIN BYTE CALIGNED,
     1957     3457    1         2 T CHAR(SYM.C);
     1958     3458        %EJECT;     /* BEIGIN PROCEDURE */
PL6.E3A0      #004=XUP$BLDOPT File=XUP$PARTRGE.:E05TSI                           WED 07/30/97 09:41 Page:390
     1959     3459    2      DO CASE(OUT_BLK.CODE);

   3459  0 000002   200003 470500                    LDP0    @OUT_BLK,,AUTO
         0 000003   000000 720100                    LXL0    0,,PR0
         0 000004   000012 100003                    CMPX0   10,DU
         0 000005   000007 602010 0                  TNC     s:3459+5,X0
         0 000006   000054 710000 0                  TRA     s:3478
         0 000007   000054 710000 0                  TRA     s:3478
         0 000010   000054 710000 0                  TRA     s:3478
         0 000011   000021 710000 0                  TRA     s:3461
         0 000012   000025 710000 0                  TRA     s:3463
         0 000013   000030 710000 0                  TRA     s:3465
         0 000014   000033 710000 0                  TRA     s:3467
         0 000015   000036 710000 0                  TRA     s:3469
         0 000016   000041 710000 0                  TRA     s:3471
         0 000017   000044 710000 0                  TRA     s:3473
         0 000020   000051 710000 0                  TRA     s:3476

     1960     3460    2      CASE(XDEF);

     1961     3461    2         SYM.X='1'B;

   3461  0 000021   000002 471400 xsym               LDP1    SYM_+2
         0 000022   100000 236003                    LDQ     32768,DU
         0 000023   100001 256100                    ORSQ    1,,PR1
         0 000024   000157 710000 0                  TRA     s:3499

     1962     3462    2      CASE(OUT);

     1963     3463    2         NODECODE.OUT_F='1'B;

   3463  0 000025   004000 236003                    LDQ     2048,DU
         0 000026   000000 256000 xsym               ORSQ    NODECODE
         0 000027   000157 710000 0                  TRA     s:3499

     1964     3464    2      CASE(PRE);

PL6.E3A0      #004=XUP$BLDOPT File=XUP$PARTRGE.:E05TSI                           WED 07/30/97 09:41 Page:391
     1965     3465    2         NODECODE.PRE_F='1'B;

   3465  0 000030   040000 236003                    LDQ     16384,DU
         0 000031   000000 256000 xsym               ORSQ    NODECODE
         0 000032   000157 710000 0                  TRA     s:3499

     1966     3466    2      CASE(SUCC);

     1967     3467    2         NODECODE.SUCC_F='1'B;

   3467  0 000033   020000 236003                    LDQ     8192,DU
         0 000034   000000 256000 xsym               ORSQ    NODECODE
         0 000035   000157 710000 0                  TRA     s:3499

     1968     3468    2      CASE(FAIL);

     1969     3469    2         NODECODE.FAIL_F='1'B;

   3469  0 000036   010000 236003                    LDQ     4096,DU
         0 000037   000000 256000 xsym               ORSQ    NODECODE
         0 000040   000157 710000 0                  TRA     s:3499

     1970     3470    2      CASE(NOOUT);

     1971     3471    2         NODECODE.NOUT_F='1'B;

   3471  0 000041   400000 236003                    LDQ     -131072,DU
         0 000042   000001 256000 xsym               ORSQ    NODECODE+1
         0 000043   000157 710000 0                  TRA     s:3499

     1972     3472    2      CASE(RTEXT);

     1973     3473    2         NODECODE.RTEXT_F='1'B;

   3473  0 000044   000200 236003                    LDQ     128,DU
         0 000045   000000 256000 xsym               ORSQ    NODECODE

PL6.E3A0      #004=XUP$BLDOPT File=XUP$PARTRGE.:E05TSI                           WED 07/30/97 09:41 Page:392
     1974     3474    2         NODECODE.OUT_F='1'B;

   3474  0 000046   004000 236003                    LDQ     2048,DU
         0 000047   000000 256000 xsym               ORSQ    NODECODE
         0 000050   000157 710000 0                  TRA     s:3499

     1975     3475    2      CASE(MAKEUC);

     1976     3476    2         NODECODE.MAKEUC_F='1'B;

   3476  0 000051   000100 236003                    LDQ     64,DU
         0 000052   000000 256000 xsym               ORSQ    NODECODE
         0 000053   000157 710000 0                  TRA     s:3499

     1977     3477    2      CASE(ELSE); /* SUBSTRUCTURE, LITCODE=N */

     1978     3478    3         IF OUT_BLK.NSUBLKS=1 THEN DO; /* CODE ALONE */

   3478  0 000054   000001 221100                    LDX1    1,,PR0
         0 000055   000001 101003                    CMPX1   1,DU
         0 000056   000105 601000 0                  TNZ     s:3487

     1979     3479    3            CALL CHARBIN(I,ADDR(OUT_BLK) -> OUT$SYM.TEXT);

   3479  0 000057   000004 236100                    LDQ     4,,PR0
         0 000060   000033 772000                    QRL     27
         0 000061   000000 622006                    EAX2    0,QL
         0 000062   000100 305540                    DTB
         0 000063   000004 230012                    NDSC9   4,,PR0                   cn=1,s=nosgn,sf=0,n=*X2
         0 000064   200006 000010                    NDSC9   I+2,,AUTO                cn=0,s=lsgnf,sf=0,n=8
         0 000065   200007 235100                    LDA     I+3,,AUTO
         0 000066   200004 755100                    STA     I,,AUTO

     1980     3480    4            IF I>65535 THEN DO;

   3480  0 000067   200000 115007                    CMPA    65536,DL
         0 000070   000076 602000 0                  TNC     s:3484
PL6.E3A0      #004=XUP$BLDOPT File=XUP$PARTRGE.:E05TSI                           WED 07/30/97 09:41 Page:393

     1981     3481    4               P_PCB.HI_CHAR=OUT_BLK.CPOS;

   3481  0 000071   000002 235100                    LDA     2,,PR0
         0 000072   000012 755000 xsym               STA     P_PCB+10

     1982     3482    4               UNWIND TO SYNTAXERR;

   3482  0 000073   000000 237200 xsym               LDAQ  ! SYNTAXERR
         0 000074   000000 700200 xent               TSX0  ! X66_AUNWIND
         0 000075   000000 000200                    ZERO    0,128

     1983     3483    4               END;
     1984     3484    3            NODECODE.CODE=I;

   3484  0 000076   200004 236100                    LDQ     I,,AUTO
         0 000077   000000 676000 xsym               ERQ     NODECODE
         0 000100   177777 376007                    ANQ     65535,DL
         0 000101   000000 656000 xsym               ERSQ    NODECODE

     1985     3485    3            NODECODE.OUT_F='1'B;

   3485  0 000102   004000 236003                    LDQ     2048,DU
         0 000103   000000 256000 xsym               ORSQ    NODECODE

     1986     3486    3            END;

   3486  0 000104   000157 710000 0                  TRA     s:3499

     1987     3487    3         ELSE DO CASE(OUT_BLK.SUBLK$(0)->OUT$SYM.CODE);

   3487  0 000105   000003 471500                    LDP1    3,,PR0
         0 000106   100000 722100                    LXL2    0,,PR1
         0 000107   000002 102003                    CMPX2   2,DU
         0 000110   000112 602012 0                  TNC     s:3487+5,X2
         0 000111   000130 710000 0                  TRA     s:3492
         0 000112   000130 710000 0                  TRA     s:3492
PL6.E3A0      #004=XUP$BLDOPT File=XUP$PARTRGE.:E05TSI                           WED 07/30/97 09:41 Page:394
         0 000113   000114 710000 0                  TRA     s:3489

     1988     3488    3         CASE(LCODE);

     1989     3489    3            CALL CHARBIN(LITCODE,OUT_BLK.SUBLK$(1)->OUT$SYM.TEXT);

   3489  0 000114   000004 473500                    LDP3    4,,PR0
         0 000115   300004 236100                    LDQ     4,,PR3
         0 000116   000033 772000                    QRL     27
         0 000117   000000 623006                    EAX3    0,QL
         0 000120   000100 305540                    DTB
         0 000121   300004 230013                    NDSC9   4,,PR3                   cn=1,s=nosgn,sf=0,n=*X3
         0 000122   200006 000010                    NDSC9   I+2,,AUTO                cn=0,s=lsgnf,sf=0,n=8
         0 000123   200007 235100                    LDA     I+3,,AUTO
         0 000124   000000 755000 xsym               STA     LITCODE

     1990     3490    3            LIT_PRESENT = '1'B;

   3490  0 000125   400000 236003                    LDQ     -131072,DU
         0 000126   000000 756000 xsym               STQ     LIT_PRESENT
         0 000127   000157 710000 0                  TRA     s:3499

     1991     3491    3         CASE(ELSE); /* MORE OF OTHER STUFF */

     1992     3492    3            I=0;

   3492  0 000130   200004 450100                    STZ     I,,AUTO

     1993     3493    4            DO WHILE(I<OUT_BLK.NSUBLKS);

   3493  0 000131   000001 236100                    LDQ     1,,PR0
         0 000132   000022 772000                    QRL     18
         0 000133   200004 116100                    CMPQ    I,,AUTO
         0 000134   000157 602000 0                  TNC     s:3499
         0 000135   000157 600000 0                  TZE     s:3499

     1994     3494    4               CALL XUP$BLDOPT(OUT_BLK.SUBLK$(I)->OUT$SYM);
PL6.E3A0      #004=XUP$BLDOPT File=XUP$PARTRGE.:E05TSI                           WED 07/30/97 09:41 Page:395

   3494  0 000136   200003 470500                    LDP0    @OUT_BLK,,AUTO
         0 000137   200004 720100                    LXL0    I,,AUTO
         0 000140   000003 471510                    LDP1    3,X0,PR0
         0 000141   200006 451500                    STP1    I+2,,AUTO
         0 000142   200006 630500                    EPPR0   I+2,,AUTO
         0 000143   000017 631400 xsym               EPPR1   B_VECTNIL+15
         0 000144   000000 701000 0                  TSX1    s:6
         0 000145   000000 011000                    NOP     0

     1995     3495    4               I=I+1;

   3495  0 000146   200004 235100                    LDA     I,,AUTO
         0 000147   000001 035007                    ADLA    1,DL
         0 000150   200004 755100                    STA     I,,AUTO

     1996     3496    4               END;

   3496  0 000151   200003 470500                    LDP0    @OUT_BLK,,AUTO
         0 000152   000001 236100                    LDQ     1,,PR0
         0 000153   000022 772000                    QRL     18
         0 000154   200004 116100                    CMPQ    I,,AUTO
         0 000155   000157 600000 0                  TZE     s:3499
         0 000156   000136 603000 0                  TRC     s:3494

     1997     3497    3         END;

     1998     3498    2      END;

     1999     3499    1   END;

   3499  0 000157   000000 702200 xent               TSX2  ! X66_ARET
     2000     3500        %EOD;

PL6.E3A0      #004=XUP$BLDOPT File=XUP$PARTRGE.:E05TSI                           WED 07/30/97 09:41 Page:396
--  Include file information  --

   XU_MACRO_C.:E05TOU  is referenced.
      No diagnostics issued in procedure XUP$BLDOPT.
PL6.E3A0      #004=XUP$BLDOPT File=XUP$PARTRGE.:E05TSI                           WED 07/30/97 09:41 Page:397

 **** Variables and constants ****

  ****  Auto variables  ****

  ****  Scalars and arrays  ****
OctLoc.c.b A Datatyp(siz) R M Lvl/name                 OctLoc.c.b A Datatyp(siz) R M Lvl/name

     3-0-0/w PTR         r     1 @OUT_BLK                   4-0-0/w UBIN        r     1 I
    *0-0-0/w STRC(144)   r     1 OUT_BLK

  ****  SYMREF variables  ****

  ****  Scalars and arrays  ****
OctLoc.c.b A Datatyp(siz) R M Lvl/name                 OctLoc.c.b A Datatyp(siz) R M Lvl/name

     0-0-0/w UBIN        r     1 LITCODE                    0-0-0/b BIT         r     1 LIT_PRESENT
     0-0-0/b STRC(37)    r     1 NODECODE                   0-0-0/w STRC(504)   r     1 P_PCB
     0-0-0/d STRC(144)   r     1 SYM_                       0-0-0/d REMB        r     1 SYNTAXERR

  ****  BASED and DCB variables  ****

  ****  Scalars and arrays  ****
OctLoc.c.b A Datatyp(siz) R M Lvl/name                 OctLoc.c.b A Datatyp(siz) R M Lvl/name

     0-0-0/w ASTR(153)   r     1 OUT$SYM                    0-0-0/w ASTR(72)    r     1 SYM


   Procedure XUP$BLDOPT requires 112 words for executable code.
   Procedure XUP$BLDOPT requires 8 words of local(AUTO) storage.
PL6.E3A0      #004=XUP$BLDOPT File=XUP$PARTRGE.:E05TSI                           WED 07/30/97 09:41 Page:398
          *** CROSS REFERENCE LISTING ***
**     DENOTES     IDENTIFIER DEFINITION
<<                 IDENTIFIER'S VALUE SET
>>                 IDENTIFIER'S VALUE USED
<>                 IDENTIFIER SET AND/OR USED
--                 IDENTIFIER REFERENCED
PL6.E3A0      #004=XUP$BLDOPT File=XUP$PARTRGE.:E05TSI                           WED 07/30/97 09:41 Page:399
          MINI XREF LISTING

I
      3447**DCL      3479<<CALLBLT  3480>>IF       3484>>ASSIGN   3492<<ASSIGN   3493>>DOWHILE  3494>>CALL
      3494>>CALL     3495<<ASSIGN   3495>>ASSIGN
LITCODE
      3430**DCL      3489<<CALLBLT
LIT_PRESENT
      3431**DCL      3490<<ASSIGN
NODECODE.CODE
      3445**DCL      3484<<ASSIGN
NODECODE.FAIL_F
      3436**DCL      3469<<ASSIGN
NODECODE.MAKEUC_F
      3443**DCL      3476<<ASSIGN
NODECODE.NOUT_F
      3446**DCL      3471<<ASSIGN
NODECODE.OUT_F
      3437**DCL      3463<<ASSIGN   3474<<ASSIGN   3485<<ASSIGN
NODECODE.PRE_F
      3434**DCL      3465<<ASSIGN
NODECODE.RTEXT_F
      3441**DCL      3473<<ASSIGN
NODECODE.SUCC_F
      3435**DCL      3467<<ASSIGN
NODECODE.UPRLOWR
      3442**DCL      3443--REDEF
OUT$SYM
      3165**DCL      3494<>CALL
OUT$SYM.CODE
      3171**DCL      3487>>DOCASE
OUT$SYM.COUNT
      3188**DCL      3191--IMP-SIZ  3479>>CALLBLT  3489>>CALLBLT  3494>>CALL
OUT$SYM.TEXT
PL6.E3A0      #004=XUP$BLDOPT File=XUP$PARTRGE.:E05TSI                           WED 07/30/97 09:41 Page:400
      3191**DCL      3479>>CALLBLT  3489>>CALLBLT
OUT_BLK
      3119**DCL         6--PROC     3479--CALLBLT  3479--CALLBLT
OUT_BLK.CODE
      3127**DCL      3459>>DOCASE
OUT_BLK.CPOS
      3145**DCL      3481>>ASSIGN
OUT_BLK.NSUBLKS
      3131**DCL      3478>>IF       3493>>DOWHILE
OUT_BLK.SUBLK$
      3152**DCL      3487>>DOCASE   3489>>CALLBLT  3489>>CALLBLT  3494>>CALL     3494>>CALL
P_PCB.HI_CHAR
      3366**DCL      3481<<ASSIGN
SYM.C
      3456**DCL      3457--IMP-SIZ
SYM.NODE$
      3449**DCL      3450--REDEF
SYM.X
      3453**DCL      3461<<ASSIGN
SYM_.FIRST$
      3422**DCL      3423--REDEF    3426--REDEF
SYM_.P$
      3427**DCL      3448--IMP-PTR  3461>>ASSIGN
SYNTAXERR
      3397**DCL      3482>>UNWIND
XUP$BLDOPT
         6**PROC     3494--CALL

PL6.E3A0      #005=XUP$PARTRGE_PREPROC_ERROR File=XUP$PARTRGE.:E05TSI            WED 07/30/97 09:41 Page:401
     2001        1        /*T***********************************************************/
     2002        2        /*T*                                                         */
     2003        3        /*T* Copyright (c) Bull HN Information Systems Inc., 1997    */
     2004        4        /*T*                                                         */
     2005        5        /*T***********************************************************/
     2006        6        XUP$PARTRGE_PREPROC_ERROR: PROC (P_RECNO, P_INPUT_KEY,
     2007        7             P_FCG_MID_STUFF, P_ERROR_CODE,
     2008        8             P_SEVERITY_LEVEL,
     2009        9             P_TEXT1_LEN, P_TEXT1,
     2010       10             P_TEXT2_LEN, P_TEXT2,
     2011       11             P_TEXT3_LEN, P_TEXT3);
     2012       12
     2013       13    1   DCL P_RECNO UBIN;
     2014       14    1   DCL 1 P_INPUT_KEY ALIGNED,
     2015       15    1         2 TYPE_CHAR UBIN (8) UNAL,
     2016       16    1         2 EDIT_KEY UBIN (28) UNAL;
     2017       17    1   DCL 1 P_FCG_MID_STUFF ALIGNED,
     2018       18    1         2 FCG_MID BIT (18),
     2019       19    1         2 * BIT (18);
     2020       20    1   DCL P_ERROR_CODE UBIN ALIGNED;
     2021       21    1   DCL P_SEVERITY_LEVEL UBIN ALIGNED;
     2022       22    1   DCL P_TEXT1_LEN SBIN ALIGNED; DCL P_TEXT1 CHAR (P_TEXT1_LEN);
     2023       23    1   DCL P_TEXT2_LEN SBIN ALIGNED; DCL P_TEXT2 CHAR (P_TEXT2_LEN);
     2024       24    1   DCL P_TEXT3_LEN SBIN ALIGNED; DCL P_TEXT3 CHAR (P_TEXT3_LEN);
     2025       25
     2026       26        %INCLUDE B_MICROPS_C;
     2027      198        %INCLUDE CP_6;
     2028     5757        %INCLUDE CP_6_SUBS;
     2029     6297        %INCLUDE ZQ$INTERFACE_M;
     2030     6845
     2031     6846        %ZQ$LS_BUFFER (STCLASS=STATIC);
     2032     6904        %FPT_ERRMSG (STCLASS=STATIC, CODE=VLP_ERRCODE, RESULTS=VLR_ERRMSG);
     2033     6931        %VLP_ERRCODE (STCLASS=STATIC);
     2034     6976        %VLR_ERRMSG (STCLASS=STATIC);
     2035     6998        %FPT_WRITE (FPTN=WRITE_DIAG, DCB=M$DIAG, BUF=ZQ$LS_BUFFER);
     2036     7029
     2037     7030    1   DCL M$DIAG DCB;
PL6.E3A0      #005=XUP$PARTRGE_PREPROC_ERROR File=XUP$PARTRGE.:E05TSI            WED 07/30/97 09:41 Page:402
     2038     7031    1   DCL ERRMSG_BUF (0:10) CHAR (120);
     2039     7032    1   DCL ERROR_COUNT UBIN SYMREF;
     2040     7033    1   DCL I UBIN;
     2041     7034    1   DCL MOPS (0:1) BIT (9) CALIGNED CONSTANT INIT (%MVZB9, %MVC1);
     2042     7035
     2043     7036    1      VLP_ERRCODE = P_FCG_MID_STUFF;
     2044     7037    1      VLP_ERRCODE.ERR# = P_ERROR_CODE;
     2045     7038    1      VLP_ERRCODE.SEV = P_SEVERITY_LEVEL;
     2046     7039
     2047     7040    1      CALL SETUP_VLP (FPT_ERRMSG.FIELD1_, P_TEXT1_LEN, P_TEXT1, 0);
     2048     7041    1      CALL SETUP_VLP (FPT_ERRMSG.FIELD2_, P_TEXT2_LEN, P_TEXT2, 1);
     2049     7042    1      CALL SETUP_VLP (FPT_ERRMSG.FIELD3_, P_TEXT3_LEN, P_TEXT3, 2);
     2050     7043
     2051     7044    1      FPT_ERRMSG.V.DCB# = DCBNUM(NIL);
     2052     7045
     2053     7046    1      CALL EMIT_ERROR_LINES;
     2054     7047
     2055     7048    1      RETURN;
     2056     7049        %EJECT;
PL6.E3A0      #005=XUP$PARTRGE_PREPROC_ERROR File=XUP$PARTRGE.:E05TSI            WED 07/30/97 09:41 Page:403
     2057     7050    1   PARTRGE_MON_ERROR: ENTRY (P_RECNO, P_INPUT_KEY, P_FCG_MID_STUFF,
     2058     7051    1        P_ERROR_CODE);
     2059     7052
     2060     7053    1      VLP_ERRCODE = P_FCG_MID_STUFF;
     2061     7054
     2062     7055    1      FPT_ERRMSG.FIELD1_ = VECTOR (NIL);
     2063     7056    1      FPT_ERRMSG.FIELD2_ = VECTOR (NIL);
     2064     7057    1      FPT_ERRMSG.FIELD3_ = VECTOR (NIL);
     2065     7058
     2066     7059    1      IF ADDR(P_ERROR_CODE) = ADDR(NIL)
     2067     7060    1      THEN
     2068     7061    1         FPT_ERRMSG.V.DCB# = DCBNUM(NIL);
     2069     7062    1      ELSE
     2070     7063    1         FPT_ERRMSG.V.DCB# = P_ERROR_CODE;
     2071     7064
     2072     7065    1      CALL EMIT_ERROR_LINES;
     2073     7066
     2074     7067    1      RETURN;
     2075     7068        %EJECT;
PL6.E3A0      #005=XUP$PARTRGE_PREPROC_ERROR File=XUP$PARTRGE.:E05TSI            WED 07/30/97 09:41 Page:404
     2076     7069    1   SETUP_VLP: PROC (FIELD_, LEN, TEXT, TEMP_NUMBER);
     2077     7070
     2078     7071    2   DCL FIELD_ VECTOR;
     2079     7072    2   DCL LEN UBIN WORD;
     2080     7073    2   DCL TEXT CHAR (LEN);
     2081     7074    2   DCL TEMP_NUMBER UBIN;
     2082     7075    2   DCL 1 TEMP_TEXTC (0:2),
     2083     7076    2         2 LEN UBIN BYTE CALIGNED,
     2084     7077    2         2 TEXT CHAR (31) CALIGNED;
     2085     7078
     2086     7079    2   DCL STEMP CHAR (10);
     2087     7080    2   DCL ST1 CHAR (10);
     2088     7081    2   DCL IX UBIN;
     2089     7082
     2090     7083    2      IF ADDR(LEN) = ADDR(NIL)
     2091     7084    3      THEN DO;
     2092     7085
     2093     7086    3         FIELD_ = VECTOR (NIL);
     2094     7087    3         RETURN;
     2095     7088
     2096     7089    3         END;
     2097     7090
     2098     7091    2      IF ADDR(TEXT) = ADDR(NIL)
     2099     7092    3      THEN DO;
     2100     7093
     2101     7094    3         CALL BINCHAR (STEMP, LEN);
     2102     7095    3         CALL EDITCHAR (ST1, , , MOPS, STEMP);
     2103     7096    3         CALL INDEX1R (IX, ' ', ST1)
     2104     7097    4         WHENRETURN DO;
     2105     7098
     2106     7099    4            TEMP_TEXTC.LEN(TEMP_NUMBER) = LENGTHC(ST1) - IX + 1;
     2107     7100    4            TEMP_TEXTC.TEXT(TEMP_NUMBER) = SUBSTR(ST1, IX+1);
     2108     7101
     2109     7102    4            END;
     2110     7103
     2111     7104    4         WHENALTRETURN DO;
     2112     7105
PL6.E3A0      #005=XUP$PARTRGE_PREPROC_ERROR File=XUP$PARTRGE.:E05TSI            WED 07/30/97 09:41 Page:405
     2113     7106    4            TEMP_TEXTC.LEN(TEMP_NUMBER) = LENGTHC(ST1);
     2114     7107    4            TEMP_TEXTC.TEXT(TEMP_NUMBER) = ST1;
     2115     7108
     2116     7109    4            END;
     2117     7110
     2118     7111    3         FIELD_ = VECTOR (TEMP_TEXTC(TEMP_NUMBER));
     2119     7112
     2120     7113    3         RETURN;
     2121     7114
     2122     7115    3         END;
     2123     7116
     2124     7117    2      TEMP_TEXTC.LEN(TEMP_NUMBER) = LEN;
     2125     7118    2      TEMP_TEXTC.TEXT(TEMP_NUMBER) = TEXT;
     2126     7119
     2127     7120    2      FIELD_ = VECTOR (TEMP_TEXTC(TEMP_NUMBER));
     2128     7121
     2129     7122    2      RETURN;
     2130     7123
     2131     7124    2   END SETUP_VLP;
     2132     7125        %EJECT;
PL6.E3A0      #005=XUP$PARTRGE_PREPROC_ERROR File=XUP$PARTRGE.:E05TSI            WED 07/30/97 09:41 Page:406
     2133     7126    1   EMIT_ERROR_LINES: PROC;
     2134     7127
     2135     7128    2      ZQ$LS_BUFFER.RECNO = P_RECNO;
     2136     7129    2      ZQ$LS_BUFFER.VFC = ASCBIT('A');
     2137     7130
     2138     7131    2      FPT_ERRMSG.BUF_ = VECTOR(ERRMSG_BUF);
     2139     7132
     2140     7133    2      VLR_ERRMSG.RECCNT = 1;
     2141     7134    2      ERRMSG_BUF(0) = '??? M$ERRMSG altreturned strangely ???';
     2142     7135
     2143     7136    2      CALL M$ERRMSG (FPT_ERRMSG) ALTRET (IGNORE_ALTRET);
     2144     7137
     2145     7138    2   IGNORE_ALTRET:
     2146     7139
     2147     7140    3      DO I = 0 TO VLR_ERRMSG.RECCNT - 1;
     2148     7141
     2149     7142    3         ZQ$LS_BUFFER.PRINT_BUFFER = ERRMSG_BUF(I);
     2150     7143
     2151     7144    3         CALL M$WRITE (WRITE_DIAG) ALTRET (ABANDON_ERRMSG);
     2152     7145
     2153     7146    3         END;
     2154     7147
     2155     7148    2   ABANDON_ERRMSG:
     2156     7149
     2157     7150    2      ERROR_COUNT = ERROR_COUNT + 1;
     2158     7151
     2159     7152    2      RETURN;
     2160     7153
     2161     7154    2   END EMIT_ERROR_LINES;
     2162     7155
     2163     7156    1   END XUP$PARTRGE_PREPROC_ERROR;
     2164     7157        %EOD;

PL6.E3A0      #005=XUP$PARTRGE_PREPROC_ERROR File=XUP$PARTRGE.:E05TSI            WED 07/30/97 09:41 Page:407
--  Include file information  --

   ZQ$INTERFACE_M.:TOOLE04  is referenced.
   CP_6_SUBS.:E05TOU  is referenced.
   CP_6_C.:E05TOU  is referenced.
   CP_6.:E05TOU  cannot be made into a system file and is referenced.
   B_MICROPS_C.:E05TOU  is referenced.
      No diagnostics issued in procedure XUP$PARTRGE_PREPROC_ERROR.

   Procedure XUP$PARTRGE_PREPROC_ERROR requires 222 words for executable code.
   Procedure XUP$PARTRGE_PREPROC_ERROR requires 384 words of local(AUTO) storage.

PL6.E3A0      #005=XUP$PARTRGE_PREPROC_ERROR File=XUP$PARTRGE.:E05TSI            WED 07/30/97 09:41 Page:408

 Object Unit name= XUP$PARTRGE_PREPROC_ERROR                  File name= XUP$PARTRGE.:E05TOU
 UTS= JUL 30 '97 09:41:38.84 WED                              Compiler= PL-6/E31         Sev=      00
 SharedLib= :SHARED_SYSTEM                                    Alt SharedLib=


    ****  Control sections  ****

 Sect   Type Bound  Init  Size OctSiz  Section name(segment info)
    0   DCB   even  none     0      0  M$UC
    1   Data  even  none    80    120  XUP$PARTRGE_PREPROC_ERROR
    2   DCB   even  none     0      0  M$DIAG
    3  RoData even  UTS     11     13  XUP$PARTRGE_PREPROC_ERROR
    4   Proc  even  none   222    336  XUP$PARTRGE_PREPROC_ERROR
    5  RoData even  none    10     12  XUP$PARTRGE_PREPROC_ERROR

    ****  Entry defs  ****

                              Check   Calling
                             calling  sequence
  Sect OctLoc Primary Altret sequence   type   Parms  Name
     4      0   yes            yes      Std       11  XUP$PARTRGE_PREPROC_ERROR
     4     55                  yes      Std        4  PARTRGE_MON_ERROR

  ****  Entry refs  ****

         Check        Calling
        calling       sequence
Altret sequence SRef   type   Args  Name
                       nStd      0 X66_AUTO_N
                       Std       0 B_CONSPOOL_D
                       nStd      0 X66_ARET
PL6.E3A0      #005=XUP$PARTRGE_PREPROC_ERROR File=XUP$PARTRGE.:E05TSI            WED 07/30/97 09:41 Page:409

  ****  Data refs  ****

  Flags:  r = read only, s = secondary
Flgs Name                             Flgs Name                             Flgs Name
     M$UC                                  M$DIAG                                ERROR_COUNT
     B_VECTNIL

  ****  Segment refs  ****

  Flags:  r = read only, s = secondary
Flgs Name                             Flgs Name                             Flgs Name
     ISSID                                 NULLSID
PL6.E3A0      #005=XUP$PARTRGE_PREPROC_ERROR File=XUP$PARTRGE.:E05TSI            WED 07/30/97 09:41 Page:410


     2001        1        /*T***********************************************************/
     2002        2        /*T*                                                         */
     2003        3        /*T* Copyright (c) Bull HN Information Systems Inc., 1997    */
     2004        4        /*T*                                                         */
     2005        5        /*T***********************************************************/
     2006        6        XUP$PARTRGE_PREPROC_ERROR: PROC (P_RECNO, P_INPUT_KEY,

      6  4 000000   000000 700200 xent  XUP$PARTRGE* TSX0  ! X66_AUTO_N
         4 000001   000600 000013                    ZERO    384,11

     2007        7             P_FCG_MID_STUFF, P_ERROR_CODE,
     2008        8             P_SEVERITY_LEVEL,
     2009        9             P_TEXT1_LEN, P_TEXT1,
     2010       10             P_TEXT2_LEN, P_TEXT2,
     2011       11             P_TEXT3_LEN, P_TEXT3);
     2012       12
     2013       13    1   DCL P_RECNO UBIN;
     2014       14    1   DCL 1 P_INPUT_KEY ALIGNED,
     2015       15    1         2 TYPE_CHAR UBIN (8) UNAL,
     2016       16    1         2 EDIT_KEY UBIN (28) UNAL;
     2017       17    1   DCL 1 P_FCG_MID_STUFF ALIGNED,
     2018       18    1         2 FCG_MID BIT (18),
     2019       19    1         2 * BIT (18);
     2020       20    1   DCL P_ERROR_CODE UBIN ALIGNED;
     2021       21    1   DCL P_SEVERITY_LEVEL UBIN ALIGNED;
     2022       22    1   DCL P_TEXT1_LEN SBIN ALIGNED; DCL P_TEXT1 CHAR (P_TEXT1_LEN);
     2023       23    1   DCL P_TEXT2_LEN SBIN ALIGNED; DCL P_TEXT2 CHAR (P_TEXT2_LEN);
     2024       24    1   DCL P_TEXT3_LEN SBIN ALIGNED; DCL P_TEXT3 CHAR (P_TEXT3_LEN);
     2025       25
     2026       26        %INCLUDE B_MICROPS_C;
     2027      198        %INCLUDE CP_6;
     2028     5757        %INCLUDE CP_6_SUBS;
     2029     6297        %INCLUDE ZQ$INTERFACE_M;
     2030     6845
     2031     6846        %ZQ$LS_BUFFER (STCLASS=STATIC);
     2032     6904        %FPT_ERRMSG (STCLASS=STATIC, CODE=VLP_ERRCODE, RESULTS=VLR_ERRMSG);
PL6.E3A0      #005=XUP$PARTRGE_PREPROC_ERROR File=XUP$PARTRGE.:E05TSI            WED 07/30/97 09:41 Page:411
     2033     6931        %VLP_ERRCODE (STCLASS=STATIC);
     2034     6976        %VLR_ERRMSG (STCLASS=STATIC);
     2035     6998        %FPT_WRITE (FPTN=WRITE_DIAG, DCB=M$DIAG, BUF=ZQ$LS_BUFFER);
     2036     7029
     2037     7030    1   DCL M$DIAG DCB;
     2038     7031    1   DCL ERRMSG_BUF (0:10) CHAR (120);
     2039     7032    1   DCL ERROR_COUNT UBIN SYMREF;
     2040     7033    1   DCL I UBIN;
     2041     7034    1   DCL MOPS (0:1) BIT (9) CALIGNED CONSTANT INIT (%MVZB9, %MVC1);
     2042     7035
     2043     7036    1      VLP_ERRCODE = P_FCG_MID_STUFF;

   7036  4 000002   200005 470500                    LDP0    @P_FCG_MID_STUFF,,AUTO
         4 000003   000000 236100                    LDQ     0,,PR0
         4 000004   000076 756000 1                  STQ     VLP_ERRCODE

     2044     7037    1      VLP_ERRCODE.ERR# = P_ERROR_CODE;

   7037  4 000005   200006 471500                    LDP1    @P_ERROR_CODE,,AUTO
         4 000006   100000 236100                    LDQ     0,,PR1
         4 000007   000003 736000                    QLS     3
         4 000010   000076 676000 1                  ERQ     VLP_ERRCODE
         4 000011   377770 376007                    ANQ     131064,DL
         4 000012   000076 656000 1                  ERSQ    VLP_ERRCODE

     2045     7038    1      VLP_ERRCODE.SEV = P_SEVERITY_LEVEL;

   7038  4 000013   200007 473500                    LDP3    @P_SEVERITY_LEVEL,,AUTO
         4 000014   300000 236100                    LDQ     0,,PR3
         4 000015   000076 676000 1                  ERQ     VLP_ERRCODE
         4 000016   000007 376007                    ANQ     7,DL
         4 000017   000076 656000 1                  ERSQ    VLP_ERRCODE

     2046     7039
     2047     7040    1      CALL SETUP_VLP (FPT_ERRMSG.FIELD1_, P_TEXT1_LEN, P_TEXT1, 0);

   7040  4 000020   000000 236000 5                  LDQ     0
PL6.E3A0      #005=XUP$PARTRGE_PREPROC_ERROR File=XUP$PARTRGE.:E05TSI            WED 07/30/97 09:41 Page:412
         4 000021   200536 756100                    STQ     @TEXT+1,,AUTO
         4 000022   200010 237100                    LDAQ    @P_TEXT1_LEN,,AUTO
         4 000023   200534 757100                    STAQ    @FIELD_+1,,AUTO
         4 000024   000001 236000 5                  LDQ     1
         4 000025   200533 756100                    STQ     I+3,,AUTO
         4 000026   000104 701000 4                  TSX1    SETUP_VLP
         4 000027   000000 011000                    NOP     0

     2048     7041    1      CALL SETUP_VLP (FPT_ERRMSG.FIELD2_, P_TEXT2_LEN, P_TEXT2, 1);

   7041  4 000030   000002 236000 5                  LDQ     2
         4 000031   200536 756100                    STQ     @TEXT+1,,AUTO
         4 000032   200012 237100                    LDAQ    @P_TEXT2_LEN,,AUTO
         4 000033   200534 757100                    STAQ    @FIELD_+1,,AUTO
         4 000034   000003 236000 5                  LDQ     3
         4 000035   200533 756100                    STQ     I+3,,AUTO
         4 000036   000104 701000 4                  TSX1    SETUP_VLP
         4 000037   000000 011000                    NOP     0

     2049     7042    1      CALL SETUP_VLP (FPT_ERRMSG.FIELD3_, P_TEXT3_LEN, P_TEXT3, 2);

   7042  4 000040   000004 236000 5                  LDQ     4
         4 000041   200536 756100                    STQ     @TEXT+1,,AUTO
         4 000042   200014 237100                    LDAQ    @P_TEXT3_LEN,,AUTO
         4 000043   200534 757100                    STAQ    @FIELD_+1,,AUTO
         4 000044   000005 236000 5                  LDQ     5
         4 000045   200533 756100                    STQ     I+3,,AUTO
         4 000046   000104 701000 4                  TSX1    SETUP_VLP
         4 000047   000000 011000                    NOP     0

     2050     7043
     2051     7044    1      FPT_ERRMSG.V.DCB# = DCBNUM(NIL);

   7044  4 000050   000000 220003                    LDX0    0,DU
         4 000051   000072 740000 1                  STX0    FPT_ERRMSG+22

     2052     7045
PL6.E3A0      #005=XUP$PARTRGE_PREPROC_ERROR File=XUP$PARTRGE.:E05TSI            WED 07/30/97 09:41 Page:413
     2053     7046    1      CALL EMIT_ERROR_LINES;

   7046  4 000052   000262 701000 4                  TSX1    EMIT_ERROR_LINES
         4 000053   000000 011000                    NOP     0

     2054     7047
     2055     7048    1      RETURN;

   7048  4 000054   000000 702200 xent               TSX2  ! X66_ARET

     2056     7049        %EJECT;
PL6.E3A0      #005=XUP$PARTRGE_PREPROC_ERROR File=XUP$PARTRGE.:E05TSI            WED 07/30/97 09:41 Page:414
     2057     7050    1   PARTRGE_MON_ERROR: ENTRY (P_RECNO, P_INPUT_KEY, P_FCG_MID_STUFF,

   7050  4 000055   000000 700200 xent  PARTRGE_MON* TSX0  ! X66_AUTO_N
         4 000056   000600 000013                    ZERO    384,11

     2058     7051    1        P_ERROR_CODE);
     2059     7052
     2060     7053    1      VLP_ERRCODE = P_FCG_MID_STUFF;

   7053  4 000057   200005 470500                    LDP0    @P_FCG_MID_STUFF,,AUTO
         4 000060   000000 236100                    LDQ     0,,PR0
         4 000061   000076 756000 1                  STQ     VLP_ERRCODE

     2061     7054
     2062     7055    1      FPT_ERRMSG.FIELD1_ = VECTOR (NIL);

   7055  4 000062   000006 237000 5                  LDAQ    6
         4 000063   000060 757000 1                  STAQ    FPT_ERRMSG+12

     2063     7056    1      FPT_ERRMSG.FIELD2_ = VECTOR (NIL);

   7056  4 000064   000006 237000 5                  LDAQ    6
         4 000065   000062 757000 1                  STAQ    FPT_ERRMSG+14

     2064     7057    1      FPT_ERRMSG.FIELD3_ = VECTOR (NIL);

   7057  4 000066   000006 237000 5                  LDAQ    6
         4 000067   000064 757000 1                  STAQ    FPT_ERRMSG+16

     2065     7058
     2066     7059    1      IF ADDR(P_ERROR_CODE) = ADDR(NIL)

   7059  4 000070   200006 236100                    LDQ     @P_ERROR_CODE,,AUTO
         4 000071   000001 116000 xsym               CMPQ    B_VECTNIL+1
         4 000072   000076 601000 4                  TNZ     s:7063

     2067     7060    1      THEN
PL6.E3A0      #005=XUP$PARTRGE_PREPROC_ERROR File=XUP$PARTRGE.:E05TSI            WED 07/30/97 09:41 Page:415
     2068     7061    1         FPT_ERRMSG.V.DCB# = DCBNUM(NIL);

   7061  4 000073   000000 220003                    LDX0    0,DU
         4 000074   000072 740000 1                  STX0    FPT_ERRMSG+22
         4 000075   000101 710000 4                  TRA     s:7065

     2069     7062    1      ELSE
     2070     7063    1         FPT_ERRMSG.V.DCB# = P_ERROR_CODE;

   7063  4 000076   200006 471500                    LDP1    @P_ERROR_CODE,,AUTO
         4 000077   100000 720100                    LXL0    0,,PR1
         4 000100   000072 740000 1                  STX0    FPT_ERRMSG+22

     2071     7064
     2072     7065    1      CALL EMIT_ERROR_LINES;

   7065  4 000101   000262 701000 4                  TSX1    EMIT_ERROR_LINES
         4 000102   000000 011000                    NOP     0

     2073     7066
     2074     7067    1      RETURN;

   7067  4 000103   000000 702200 xent               TSX2  ! X66_ARET

     2075     7068        %EJECT;
PL6.E3A0      #005=XUP$PARTRGE_PREPROC_ERROR File=XUP$PARTRGE.:E05TSI            WED 07/30/97 09:41 Page:416
     2076     7069    1   SETUP_VLP: PROC (FIELD_, LEN, TEXT, TEMP_NUMBER);

   7069  4 000104   200532 741300       SETUP_VLP    STX1  ! I+2,,AUTO

     2077     7070
     2078     7071    2   DCL FIELD_ VECTOR;
     2079     7072    2   DCL LEN UBIN WORD;
     2080     7073    2   DCL TEXT CHAR (LEN);
     2081     7074    2   DCL TEMP_NUMBER UBIN;
     2082     7075    2   DCL 1 TEMP_TEXTC (0:2),
     2083     7076    2         2 LEN UBIN BYTE CALIGNED,
     2084     7077    2         2 TEXT CHAR (31) CALIGNED;
     2085     7078
     2086     7079    2   DCL STEMP CHAR (10);
     2087     7080    2   DCL ST1 CHAR (10);
     2088     7081    2   DCL IX UBIN;
     2089     7082
     2090     7083    2      IF ADDR(LEN) = ADDR(NIL)

   7083  4 000105   200534 236100                    LDQ     @LEN,,AUTO
         4 000106   000001 116000 xsym               CMPQ    B_VECTNIL+1
         4 000107   000115 601000 4                  TNZ     s:7091

     2091     7084    3      THEN DO;

     2092     7085
     2093     7086    3         FIELD_ = VECTOR (NIL);

   7086  4 000110   000006 237000 5                  LDAQ    6
         4 000111   200533 470500                    LDP0    @FIELD_,,AUTO
         4 000112   000000 757100                    STAQ    0,,PR0

     2094     7087    3         RETURN;

   7087  4 000113   200532 221300                    LDX1  ! I+2,,AUTO
         4 000114   000001 702211                    TSX2  ! 1,X1

PL6.E3A0      #005=XUP$PARTRGE_PREPROC_ERROR File=XUP$PARTRGE.:E05TSI            WED 07/30/97 09:41 Page:417
     2095     7088
     2096     7089    3         END;
     2097     7090
     2098     7091    2      IF ADDR(TEXT) = ADDR(NIL)

   7091  4 000115   200535 236100                    LDQ     @TEXT,,AUTO
         4 000116   000001 116000 xsym               CMPQ    B_VECTNIL+1
         4 000117   000223 601000 4                  TNZ     s:7117

     2099     7092    3      THEN DO;

     2100     7093
     2101     7094    3         CALL BINCHAR (STEMP, LEN);

   7094  4 000120   200534 470500                    LDP0    @LEN,,AUTO
         4 000121   000000 235100                    LDA     0,,PR0
         4 000122   000044 773000                    LRL     36
         4 000123   200576 757100                    STAQ    IX+1,,AUTO
         4 000124   000100 301500                    BTD
         4 000125   200576 000010                    NDSC9   IX+1,,AUTO               cn=0,s=lsgnf,sf=0,n=8
         4 000126   200567 030012                    NDSC9   STEMP,,AUTO              cn=0,s=nosgn,sf=0,n=10

     2102     7095    3         CALL EDITCHAR (ST1, , , MOPS, STEMP);

   7095  4 000127   100000 024500                    MVNE
         4 000130   200567 030012                    NDSC9   STEMP,,AUTO              cn=0,s=nosgn,sf=0,n=10
         4 000131   000000 000002 3                  ADSC9   MOPS                     cn=0,n=2
         4 000132   200572 000012                    ADSC9   ST1,,AUTO                cn=0,n=10

     2103     7096    3         CALL INDEX1R (IX, ' ', ST1)

   7096  4 000133   000000 125500                    SCMR    mask='000'O
         4 000134   200572 000012                    ADSC9   ST1,,AUTO                cn=0,n=10
         4 000135   000035 000001 xsym               ADSC9   B_VECTNIL+29             cn=0,n=1
         4 000136   200575 000100                    ARG     IX,,AUTO
         4 000137   000167 606400 4                  TTN     s:7106
         4 000140   000011 236007                    LDQ     9,DL
PL6.E3A0      #005=XUP$PARTRGE_PREPROC_ERROR File=XUP$PARTRGE.:E05TSI            WED 07/30/97 09:41 Page:418
         4 000141   200575 156100                    SSQ     IX,,AUTO

     2104     7097    4         WHENRETURN DO;

     2105     7098
     2106     7099    4            TEMP_TEXTC.LEN(TEMP_NUMBER) = LENGTHC(ST1) - IX + 1;

   7099  4 000142   200536 471500                    LDP1    @TEMP_NUMBER,,AUTO
         4 000143   100000 235100                    LDA     0,,PR1
         4 000144   000002 735000                    ALS     2
         4 000145   000001 735000                    ALS     1
         4 000146   000013 236007                    LDQ     11,DL
         4 000147   200575 136100                    SBLQ    IX,,AUTO
         4 000150   000033 736000                    QLS     27
         4 000151   200537 676105                    ERQ     TEMP_TEXTC,AL,AUTO
         4 000152   777000 376003                    ANQ     -512,DU
         4 000153   200537 656105                    ERSQ    TEMP_TEXTC,AL,AUTO

     2107     7100    4            TEMP_TEXTC.TEXT(TEMP_NUMBER) = SUBSTR(ST1, IX+1);

   7100  4 000154   100000 235100                    LDA     0,,PR1
         4 000155   000002 735000                    ALS     2
         4 000156   200575 720100                    LXL0    IX,,AUTO
         4 000157   777766 620010                    EAX0    -10,X0
         4 000160   777777 660003                    ERX0    -1,DU
         4 000161   000003 735000                    ALS     3
         4 000162   200575 236100                    LDQ     IX,,AUTO
         4 000163   040105 100546                    MLR     fill='040'O
         4 000164   200572 200010                    ADSC9   ST1,Q,AUTO               cn=1,n=*X0
         4 000165   200537 200037                    ADSC9   TEMP_TEXTC,A,AUTO        cn=1,n=31

     2108     7101
     2109     7102    4            END;

   7102  4 000166   000205 710000 4                  TRA     s:7111

     2110     7103
PL6.E3A0      #005=XUP$PARTRGE_PREPROC_ERROR File=XUP$PARTRGE.:E05TSI            WED 07/30/97 09:41 Page:419
     2111     7104    4         WHENALTRETURN DO;

     2112     7105
     2113     7106    4            TEMP_TEXTC.LEN(TEMP_NUMBER) = LENGTHC(ST1);

   7106  4 000167   200536 470500                    LDP0    @TEMP_NUMBER,,AUTO
         4 000170   000000 235100                    LDA     0,,PR0
         4 000171   000002 735000                    ALS     2
         4 000172   000001 735000                    ALS     1
         4 000173   200537 236105                    LDQ     TEMP_TEXTC,AL,AUTO
         4 000174   000032 376000 xsym               ANQ     B_VECTNIL+26
         4 000175   012000 276003                    ORQ     5120,DU
         4 000176   200537 756105                    STQ     TEMP_TEXTC,AL,AUTO

     2114     7107    4            TEMP_TEXTC.TEXT(TEMP_NUMBER) = ST1;

   7107  4 000177   000000 235100                    LDA     0,,PR0
         4 000200   000002 735000                    ALS     2
         4 000201   000003 735000                    ALS     3
         4 000202   040105 100500                    MLR     fill='040'O
         4 000203   200572 000012                    ADSC9   ST1,,AUTO                cn=0,n=10
         4 000204   200537 200037                    ADSC9   TEMP_TEXTC,A,AUTO        cn=1,n=31

     2115     7108
     2116     7109    4            END;

     2117     7110
     2118     7111    3         FIELD_ = VECTOR (TEMP_TEXTC(TEMP_NUMBER));

   7111  4 000205   200536 470500                    LDP0    @TEMP_NUMBER,,AUTO
         4 000206   000000 235100                    LDA     0,,PR0
         4 000207   000002 735000                    ALS     2
         4 000210   000000 620005                    EAX0    0,AL
         4 000211   000010 235000 5                  LDA     8
         4 000212   200576 452500                    STP2    IX+1,,AUTO
         4 000213   000000 636010                    EAQ     0,X0
         4 000214   000001 736000                    QLS     1
PL6.E3A0      #005=XUP$PARTRGE_PREPROC_ERROR File=XUP$PARTRGE.:E05TSI            WED 07/30/97 09:41 Page:420
         4 000215   000537 036003                    ADLQ    351,DU
         4 000216   200576 036100                    ADLQ    IX+1,,AUTO
         4 000217   200533 471500                    LDP1    @FIELD_,,AUTO
         4 000220   100000 757100                    STAQ    0,,PR1

     2119     7112
     2120     7113    3         RETURN;

   7113  4 000221   200532 221300                    LDX1  ! I+2,,AUTO
         4 000222   000001 702211                    TSX2  ! 1,X1

     2121     7114
     2122     7115    3         END;
     2123     7116
     2124     7117    2      TEMP_TEXTC.LEN(TEMP_NUMBER) = LEN;

   7117  4 000223   200536 470500                    LDP0    @TEMP_NUMBER,,AUTO
         4 000224   000000 235100                    LDA     0,,PR0
         4 000225   000002 735000                    ALS     2
         4 000226   000001 735000                    ALS     1
         4 000227   200534 471500                    LDP1    @LEN,,AUTO
         4 000230   100000 236100                    LDQ     0,,PR1
         4 000231   000033 736000                    QLS     27
         4 000232   200537 676105                    ERQ     TEMP_TEXTC,AL,AUTO
         4 000233   777000 376003                    ANQ     -512,DU
         4 000234   200537 656105                    ERSQ    TEMP_TEXTC,AL,AUTO

     2125     7118    2      TEMP_TEXTC.TEXT(TEMP_NUMBER) = TEXT;

   7118  4 000235   000000 235100                    LDA     0,,PR0
         4 000236   000002 735000                    ALS     2
         4 000237   100000 720100                    LXL0    0,,PR1
         4 000240   000003 735000                    ALS     3
         4 000241   200535 473500                    LDP3    @TEXT,,AUTO
         4 000242   040105 100540                    MLR     fill='040'O
         4 000243   300000 000010                    ADSC9   0,,PR3                   cn=0,n=*X0
         4 000244   200537 200037                    ADSC9   TEMP_TEXTC,A,AUTO        cn=1,n=31
PL6.E3A0      #005=XUP$PARTRGE_PREPROC_ERROR File=XUP$PARTRGE.:E05TSI            WED 07/30/97 09:41 Page:421

     2126     7119
     2127     7120    2      FIELD_ = VECTOR (TEMP_TEXTC(TEMP_NUMBER));

   7120  4 000245   000000 235100                    LDA     0,,PR0
         4 000246   000002 735000                    ALS     2
         4 000247   000000 620005                    EAX0    0,AL
         4 000250   000010 235000 5                  LDA     8
         4 000251   200576 452500                    STP2    IX+1,,AUTO
         4 000252   000000 636010                    EAQ     0,X0
         4 000253   000001 736000                    QLS     1
         4 000254   000537 036003                    ADLQ    351,DU
         4 000255   200576 036100                    ADLQ    IX+1,,AUTO
         4 000256   200533 474500                    LDP4    @FIELD_,,AUTO
         4 000257   400000 757100                    STAQ    0,,PR4

     2128     7121
     2129     7122    2      RETURN;

   7122  4 000260   200532 221300                    LDX1  ! I+2,,AUTO
         4 000261   000001 702211                    TSX2  ! 1,X1

     2130     7123
     2131     7124    2   END SETUP_VLP;
     2132     7125        %EJECT;
PL6.E3A0      #005=XUP$PARTRGE_PREPROC_ERROR File=XUP$PARTRGE.:E05TSI            WED 07/30/97 09:41 Page:422
     2133     7126    1   EMIT_ERROR_LINES: PROC;

   7126  4 000262   200532 741300       EMIT_ERROR_* STX1  ! I+2,,AUTO

     2134     7127
     2135     7128    2      ZQ$LS_BUFFER.RECNO = P_RECNO;

   7128  4 000263   200003 470500                    LDP0    @P_RECNO,,AUTO
         4 000264   000000 235100                    LDA     0,,PR0
         4 000265   000000 755000 1                  STA     ZQ$LS_BUFFER

     2136     7129    2      ZQ$LS_BUFFER.VFC = ASCBIT('A');

   7129  4 000266   101000 236003                    LDQ     33280,DU
         4 000267   000001 552040 1                  STBQ    ZQ$LS_BUFFER+1,'40'O

     2137     7130
     2138     7131    2      FPT_ERRMSG.BUF_ = VECTOR(ERRMSG_BUF);

   7131  4 000270   000011 235000 5                  LDA     9
         4 000271   200576 452500                    STP2    IX+1,,AUTO
         4 000272   200576 236100                    LDQ     IX+1,,AUTO
         4 000273   000016 036003                    ADLQ    14,DU
         4 000274   000050 757000 1                  STAQ    FPT_ERRMSG+4

     2139     7132
     2140     7133    2      VLR_ERRMSG.RECCNT = 1;

   7133  4 000275   000001 236007                    LDQ     1,DL
         4 000276   000100 552004 1                  STBQ    VLR_ERRMSG,'04'O

     2141     7134    2      ERRMSG_BUF(0) = '??? M$ERRMSG altreturned strangely ???';

   7134  4 000277   040100 100400                    MLR     fill='040'O
         4 000300   000001 000046 3                  ADSC9   MOPS+1                   cn=0,n=38
         4 000301   200016 000170                    ADSC9   ERRMSG_BUF,,AUTO         cn=0,n=120

PL6.E3A0      #005=XUP$PARTRGE_PREPROC_ERROR File=XUP$PARTRGE.:E05TSI            WED 07/30/97 09:41 Page:423
     2142     7135
     2143     7136    2      CALL M$ERRMSG (FPT_ERRMSG) ALTRET (IGNORE_ALTRET);

   7136  4 000302   000044 630400 1                  EPPR0   FPT_ERRMSG
         4 000303   420000 713400                    CLIMB   alt,+8192
         4 000304   405000 401760                    pmme    nvectors=11
         4 000305   000306 702000 4                  TSX2    IGNORE_ALTRET

     2144     7137
     2145     7138    2   IGNORE_ALTRET:
     2146     7139
     2147     7140    3      DO I = 0 TO VLR_ERRMSG.RECCNT - 1;

   7140  4 000306   200530 450100       IGNORE_ALTR* STZ     I,,AUTO
         4 000307   000324 710000 4                  TRA     s:7146+3

     2148     7141
     2149     7142    3         ZQ$LS_BUFFER.PRINT_BUFFER = ERRMSG_BUF(I);

   7142  4 000310   200530 236100                    LDQ     I,,AUTO
         4 000311   000170 402007                    MPY     120,DL
         4 000312   040000 100506                    MLR     fill='040'O
         4 000313   200016 000170                    ADSC9   ERRMSG_BUF,Q,AUTO        cn=0,n=120
         4 000314   000001 200204 1                  ADSC9   ZQ$LS_BUFFER+1           cn=1,n=132

     2150     7143
     2151     7144    3         CALL M$WRITE (WRITE_DIAG) ALTRET (ABANDON_ERRMSG);

   7144  4 000315   000104 630400 1                  EPPR0   WRITE_DIAG
         4 000316   440001 713400                    CLIMB   alt,write
         4 000317   401400 401760                    pmme    nvectors=4
         4 000320   000331 702000 4                  TSX2    ABANDON_ERRMSG

     2152     7145
     2153     7146    3         END;

   7146  4 000321   200530 235100                    LDA     I,,AUTO
PL6.E3A0      #005=XUP$PARTRGE_PREPROC_ERROR File=XUP$PARTRGE.:E05TSI            WED 07/30/97 09:41 Page:424
         4 000322   000001 035007                    ADLA    1,DL
         4 000323   200530 755100                    STA     I,,AUTO
         4 000324   000100 236000 1                  LDQ     VLR_ERRMSG
         4 000325   000777 376007                    ANQ     511,DL
         4 000326   200530 116100                    CMPQ    I,,AUTO
         4 000327   000331 600000 4                  TZE     ABANDON_ERRMSG
         4 000330   000310 603000 4                  TRC     s:7142

     2154     7147
     2155     7148    2   ABANDON_ERRMSG:
     2156     7149
     2157     7150    2      ERROR_COUNT = ERROR_COUNT + 1;

   7150  4 000331   000000 235000 xsym  ABANDON_ERR* LDA     ERROR_COUNT
         4 000332   000001 035007                    ADLA    1,DL
         4 000333   000000 755000 xsym               STA     ERROR_COUNT

     2158     7151
     2159     7152    2      RETURN;

   7152  4 000334   200532 221300                    LDX1  ! I+2,,AUTO
         4 000335   000001 702211                    TSX2  ! 1,X1
     2160     7153
     2161     7154    2   END EMIT_ERROR_LINES;
     2162     7155
     2163     7156    1   END XUP$PARTRGE_PREPROC_ERROR;
     2164     7157        %EOD;

PL6.E3A0      #005=XUP$PARTRGE_PREPROC_ERROR File=XUP$PARTRGE.:E05TSI            WED 07/30/97 09:41 Page:425
--  Include file information  --

   ZQ$INTERFACE_M.:TOOLE04  is referenced.
   CP_6_SUBS.:E05TOU  is referenced.
   CP_6_C.:E05TOU  is referenced.
   CP_6.:E05TOU  cannot be made into a system file and is referenced.
   B_MICROPS_C.:E05TOU  is referenced.
      No diagnostics issued in procedure XUP$PARTRGE_PREPROC_ERROR.
PL6.E3A0      #005=XUP$PARTRGE_PREPROC_ERROR File=XUP$PARTRGE.:E05TSI            WED 07/30/97 09:41 Page:426

 **** Variables and constants ****

  ****  Section 001  Data  XUP$PARTRGE_PREPROC_ERROR

  ****  Scalars and arrays  ****
OctLoc.c.b A Datatyp(siz) R M Lvl/name                 OctLoc.c.b A Datatyp(siz) R M Lvl/name

    44-0-0/d STRC(936)   r     1 FPT_ERRMSG                76-0-0/w STRC        r     1 VLP_ERRCODE
   100-0-0/d STRC(144)   r     1 VLR_ERRMSG               104-0-0/d STRC(432)   r     1 WRITE_DIAG
     0-0-0/w STRC(1233)  r     1 ZQ$LS_BUFFER

  ****  Section 003 RoData XUP$PARTRGE_PREPROC_ERROR

  ****  Scalars and arrays  ****
OctLoc.c.b A Datatyp(siz) R M Lvl/name                 OctLoc.c.b A Datatyp(siz) R M Lvl/name

     0-0-0/c BIT (9)     r     1 MOPS(0:1)

  ****  Auto variables  ****

  ****  Scalars and arrays  ****
OctLoc.c.b A Datatyp(siz) R M Lvl/name                 OctLoc.c.b A Datatyp(siz) R M Lvl/name

   533-0-0/w PTR         r     1 @FIELD_                  534-0-0/w PTR         r     1 @LEN
     6-0-0/w PTR         r     1 @P_ERROR_CODE              5-0-0/w PTR         r     1 @P_FCG_MID_STUFF
     4-0-0/w PTR         r     1 @P_INPUT_KEY               3-0-0/w PTR         r     1 @P_RECNO
     7-0-0/w PTR         r     1 @P_SEVERITY_LEVEL         11-0-0/w PTR         r     1 @P_TEXT1
    10-0-0/w PTR         r     1 @P_TEXT1_LEN              13-0-0/w PTR         r     1 @P_TEXT2
    12-0-0/w PTR         r     1 @P_TEXT2_LEN              15-0-0/w PTR         r     1 @P_TEXT3
    14-0-0/w PTR         r     1 @P_TEXT3_LEN             536-0-0/w PTR         r     1 @TEMP_NUMBER
   535-0-0/w PTR         r     1 @TEXT
    16-0-0/c CHAR(120)   r     1 ERRMSG_BUF(0:10)
    *0-0-0/d VECT        r     1 FIELD_                   530-0-0/w UBIN        r     1 I
   575-0-0/w UBIN        r     1 IX                        *0-0-0/w UBIN        r     1 LEN
    *0-0-0/w UBIN        r     1 P_ERROR_CODE              *0-0-0/w STRC        r     1 P_FCG_MID_STUFF
    *0-0-0/w STRC        r     1 P_INPUT_KEY               *0-0-0/w UBIN        r     1 P_RECNO
    *0-0-0/w UBIN        r     1 P_SEVERITY_LEVEL          *0-0-0/c ACHR        r     1 P_TEXT1
PL6.E3A0      #005=XUP$PARTRGE_PREPROC_ERROR File=XUP$PARTRGE.:E05TSI            WED 07/30/97 09:41 Page:427
    *0-0-0/w SBIN        r     1 P_TEXT1_LEN               *0-0-0/c ACHR        r     1 P_TEXT2
    *0-0-0/w SBIN        r     1 P_TEXT2_LEN               *0-0-0/c ACHR        r     1 P_TEXT3
    *0-0-0/w SBIN        r     1 P_TEXT3_LEN              572-0-0/c CHAR(10)    r     1 ST1
   567-0-0/c CHAR(10)    r     1 STEMP                     *0-0-0/w UBIN        r     1 TEMP_NUMBER
   537-0-0/c STRC(288)   r     1 TEMP_TEXTC(0:2)
    *0-0-0/c ACHR        r     1 TEXT

  ****  SYMREF variables  ****

  ****  Scalars and arrays  ****
OctLoc.c.b A Datatyp(siz) R M Lvl/name                 OctLoc.c.b A Datatyp(siz) R M Lvl/name

     0-0-0/w UBIN        r     1 ERROR_COUNT

  ****  BASED and DCB variables  ****

  ****  Scalars and arrays  ****
OctLoc.c.b A Datatyp(siz) R M Lvl/name                 OctLoc.c.b A Datatyp(siz) R M Lvl/name

     0-0-0N  NULL        r     1 M$DIAG


   Procedure XUP$PARTRGE_PREPROC_ERROR requires 222 words for executable code.
   Procedure XUP$PARTRGE_PREPROC_ERROR requires 384 words of local(AUTO) storage.
PL6.E3A0      #005=XUP$PARTRGE_PREPROC_ERROR File=XUP$PARTRGE.:E05TSI            WED 07/30/97 09:41 Page:428
          *** CROSS REFERENCE LISTING ***
**     DENOTES     IDENTIFIER DEFINITION
<<                 IDENTIFIER'S VALUE SET
>>                 IDENTIFIER'S VALUE USED
<>                 IDENTIFIER SET AND/OR USED
--                 IDENTIFIER REFERENCED
PL6.E3A0      #005=XUP$PARTRGE_PREPROC_ERROR File=XUP$PARTRGE.:E05TSI            WED 07/30/97 09:41 Page:429
          MINI XREF LISTING

ABANDON_ERRMSG IN PROCEDURE EMIT_ERROR_LINES
      7150**LABEL    7144--CALLALT
EMIT_ERROR_LINES
      7126**PROC     7046--CALL     7065--CALL
ERRMSG_BUF
      7031**DCL      7131--ASSIGN   7134<<ASSIGN   7142>>ASSIGN
ERROR_COUNT
      7032**DCL      7150<<ASSIGN   7150>>ASSIGN
FIELD_ IN PROCEDURE SETUP_VLP
      7071**DCL      7069--PROC     7086<<ASSIGN   7111<<ASSIGN   7120<<ASSIGN
FPT_ERRMSG
      6915**DCL      7136<>CALL
FPT_ERRMSG.BUF_
      6915**DCL      7131<<ASSIGN
FPT_ERRMSG.FIELD1_
      6917**DCL      7040<>CALL     7055<<ASSIGN
FPT_ERRMSG.FIELD2_
      6918**DCL      7041<>CALL     7056<<ASSIGN
FPT_ERRMSG.FIELD3_
      6918**DCL      7042<>CALL     7057<<ASSIGN
FPT_ERRMSG.V
      6919**DCL      6915--DCLINIT
FPT_ERRMSG.V.DCB#
      6919**DCL      7044<<ASSIGN   7061<<ASSIGN   7063<<ASSIGN
I
      7033**DCL      7140<<DOINDEX  7142>>ASSIGN
IGNORE_ALTRET IN PROCEDURE EMIT_ERROR_LINES
      7140**LABEL    7136--CALLALT
IX IN PROCEDURE SETUP_VLP
      7081**DCL      7096<<CALLBLT  7099>>ASSIGN   7100>>ASSIGN
LEN IN PROCEDURE SETUP_VLP
      7072**DCL      7069--PROC     7073--IMP-SIZ  7083--IF       7094>>CALLBLT  7117>>ASSIGN   7118>>ASSIGN
PL6.E3A0      #005=XUP$PARTRGE_PREPROC_ERROR File=XUP$PARTRGE.:E05TSI            WED 07/30/97 09:41 Page:430
M$ERRMSG
      5748**DCL-ENT  7136--CALL
M$WRITE
      5686**DCL-ENT  7144--CALL
MOPS
      7034**DCL      7095>>CALLBLT
P_ERROR_CODE
        20**DCL         6--PROC     7037>>ASSIGN   7050--ENTRY    7059--IF       7063>>ASSIGN
P_FCG_MID_STUFF
        17**DCL         6--PROC     7036>>ASSIGN   7050--ENTRY    7053>>ASSIGN
P_INPUT_KEY
        14**DCL         6--PROC     7050--ENTRY
P_RECNO
        13**DCL         6--PROC     7050--ENTRY    7128>>ASSIGN
P_SEVERITY_LEVEL
        21**DCL         6--PROC     7038>>ASSIGN
P_TEXT1
        22**DCL         6--PROC     7040<>CALL
P_TEXT1_LEN
        22**DCL         6--PROC       22--IMP-SIZ  7040<>CALL     7040>>CALL
P_TEXT2
        23**DCL         6--PROC     7041<>CALL
P_TEXT2_LEN
        23**DCL         6--PROC       23--IMP-SIZ  7041<>CALL     7041>>CALL
P_TEXT3
        24**DCL         6--PROC     7042<>CALL
P_TEXT3_LEN
        24**DCL         6--PROC       24--IMP-SIZ  7042<>CALL     7042>>CALL
SETUP_VLP
      7069**PROC     7040--CALL     7041--CALL     7042--CALL
ST1 IN PROCEDURE SETUP_VLP
      7080**DCL      7095<<CALLBLT  7096>>CALLBLT  7099--ASSIGN   7100>>ASSIGN   7106--ASSIGN   7107>>ASSIGN
STEMP IN PROCEDURE SETUP_VLP
      7079**DCL      7094<<CALLBLT  7095>>CALLBLT
TEMP_NUMBER IN PROCEDURE SETUP_VLP
      7074**DCL      7069--PROC     7099>>ASSIGN   7100>>ASSIGN   7106>>ASSIGN   7107>>ASSIGN   7111>>ASSIGN
PL6.E3A0      #005=XUP$PARTRGE_PREPROC_ERROR File=XUP$PARTRGE.:E05TSI            WED 07/30/97 09:41 Page:431
      7117>>ASSIGN   7118>>ASSIGN   7120>>ASSIGN
TEMP_TEXTC IN PROCEDURE SETUP_VLP
      7075**DCL      7111--ASSIGN   7120--ASSIGN
TEMP_TEXTC.LEN IN PROCEDURE SETUP_VLP
      7076**DCL      7099<<ASSIGN   7106<<ASSIGN   7117<<ASSIGN
TEMP_TEXTC.TEXT IN PROCEDURE SETUP_VLP
      7077**DCL      7100<<ASSIGN   7107<<ASSIGN   7118<<ASSIGN
TEXT IN PROCEDURE SETUP_VLP
      7073**DCL      7069--PROC     7091--IF       7118>>ASSIGN
VLP_ERRCODE
      6943**DCL      6915--DCLINIT  7036<<ASSIGN   7053<<ASSIGN
VLP_ERRCODE.ERR#
      6973**DCL      7037<<ASSIGN
VLP_ERRCODE.SEV
      6973**DCL      7038<<ASSIGN
VLR_ERRMSG
      6987**DCL      6919--DCLINIT
VLR_ERRMSG.RECCNT
      6991**DCL      7133<<ASSIGN   7140>>DOINDEX
WRITE_DIAG
      7015**DCL      7144<>CALL
WRITE_DIAG.STATION_
      7017**DCL      7017--REDEF
WRITE_DIAG.V
      7018**DCL      7015--DCLINIT
WRITE_DIAG.V.DVBYTE.VFC#
      7024**DCL      7024--REDEF
ZQ$LS_BUFFER
      6847**DCL      7016--DCLINIT  7017--DCLINIT
ZQ$LS_BUFFER.PRINT_BUFFER
      6861**DCL      6865--REDEF    7142<<ASSIGN
ZQ$LS_BUFFER.RECNO
      6848**DCL      7128<<ASSIGN
ZQ$LS_BUFFER.VFC
      6852**DCL      7129<<ASSIGN

PL6.E3A0      #006=XUP$PARTRGE_XUO_ERROR File=XUP$PARTRGE.:E05TSI                WED 07/30/97 09:41 Page:432
     2165        1        /*T***********************************************************/
     2166        2        /*T*                                                         */
     2167        3        /*T* Copyright (c) Bull HN Information Systems Inc., 1997    */
     2168        4        /*T*                                                         */
     2169        5        /*T***********************************************************/
     2170        6        XUP$PARTRGE_XUO_ERROR: PROC (ERROR_CODE);
     2171        7
     2172        8    1   DCL ERROR_CODE BIT (36) ALIGNED;
     2173        9    1   DCL ERROR_COUNT UBIN SYMREF;
     2174       10    1   DCL XUOERROR REMEMBER SYMREF;
     2175       11
     2176       12    1   DCL XUO_ERROR_CODE BIT (36) ALIGNED SYMREF;
     2177       13
     2178       14    1      XUO_ERROR_CODE = ERROR_CODE;
     2179       15    1      ERROR_COUNT = ERROR_COUNT + 1;
     2180       16
     2181       17    1      UNWIND TO XUOERROR;
     2182       18
     2183       19    1   END XUP$PARTRGE_XUO_ERROR;

PL6.E3A0      #006=XUP$PARTRGE_XUO_ERROR File=XUP$PARTRGE.:E05TSI                WED 07/30/97 09:41 Page:433
      No diagnostics issued in procedure XUP$PARTRGE_XUO_ERROR.

   Procedure XUP$PARTRGE_XUO_ERROR requires 11 words for executable code.
   Procedure XUP$PARTRGE_XUO_ERROR requires 4 words of local(AUTO) storage.

    No errors detected in file XUP$PARTRGE.:E05TSI    .

PL6.E3A0      #006=XUP$PARTRGE_XUO_ERROR File=XUP$PARTRGE.:E05TSI                WED 07/30/97 09:41 Page:434

 Object Unit name= XUP$PARTRGE_XUO_ERROR                      File name= XUP$PARTRGE.:E05TOU
 UTS= JUL 30 '97 09:41:57.96 WED                              Compiler= PL-6/E31         Sev=      00
 SharedLib= :SHARED_SYSTEM                                    Alt SharedLib=


    ****  Control sections  ****

 Sect   Type Bound  Init  Size OctSiz  Section name(segment info)
    0   Proc  even  none    11     13  XUP$PARTRGE_XUO_ERROR

    ****  Entry defs  ****

                              Check   Calling
                             calling  sequence
  Sect OctLoc Primary Altret sequence   type   Parms  Name
     0      0   yes            yes      Std        1  XUP$PARTRGE_XUO_ERROR

  ****  Entry refs  ****

         Check        Calling
        calling       sequence
Altret sequence SRef   type   Args  Name
                       nStd      0 X66_AUTO_1
                       nStd      0 X66_AUNWIND

  ****  Data refs  ****

  Flags:  r = read only, s = secondary
Flgs Name                             Flgs Name                             Flgs Name
     ERROR_COUNT                           XUOERROR                              XUO_ERROR_CODE
PL6.E3A0      #006=XUP$PARTRGE_XUO_ERROR File=XUP$PARTRGE.:E05TSI                WED 07/30/97 09:41 Page:435


     2165        1        /*T***********************************************************/
     2166        2        /*T*                                                         */
     2167        3        /*T* Copyright (c) Bull HN Information Systems Inc., 1997    */
     2168        4        /*T*                                                         */
     2169        5        /*T***********************************************************/
     2170        6        XUP$PARTRGE_XUO_ERROR: PROC (ERROR_CODE);

      6  0 000000   000000 700200 xent  XUP$PARTRGE* TSX0  ! X66_AUTO_1
         0 000001   000004 000001                    ZERO    4,1

     2171        7
     2172        8    1   DCL ERROR_CODE BIT (36) ALIGNED;
     2173        9    1   DCL ERROR_COUNT UBIN SYMREF;
     2174       10    1   DCL XUOERROR REMEMBER SYMREF;
     2175       11
     2176       12    1   DCL XUO_ERROR_CODE BIT (36) ALIGNED SYMREF;
     2177       13
     2178       14    1      XUO_ERROR_CODE = ERROR_CODE;

     14  0 000002   200003 470500                    LDP0    @ERROR_CODE,,AUTO
         0 000003   000000 236100                    LDQ     0,,PR0
         0 000004   000000 756000 xsym               STQ     XUO_ERROR_CODE

     2179       15    1      ERROR_COUNT = ERROR_COUNT + 1;

     15  0 000005   000000 235000 xsym               LDA     ERROR_COUNT
         0 000006   000001 035007                    ADLA    1,DL
         0 000007   000000 755000 xsym               STA     ERROR_COUNT

     2180       16
     2181       17    1      UNWIND TO XUOERROR;

     17  0 000010   000000 237200 xsym               LDAQ  ! XUOERROR
         0 000011   000000 700200 xent               TSX0  ! X66_AUNWIND
         0 000012   000000 000200                    ZERO    0,128
     2182       18
PL6.E3A0      #006=XUP$PARTRGE_XUO_ERROR File=XUP$PARTRGE.:E05TSI                WED 07/30/97 09:41 Page:436
     2183       19    1   END XUP$PARTRGE_XUO_ERROR;

PL6.E3A0      #006=XUP$PARTRGE_XUO_ERROR File=XUP$PARTRGE.:E05TSI                WED 07/30/97 09:41 Page:437
      No diagnostics issued in procedure XUP$PARTRGE_XUO_ERROR.
PL6.E3A0      #006=XUP$PARTRGE_XUO_ERROR File=XUP$PARTRGE.:E05TSI                WED 07/30/97 09:41 Page:438

 **** Variables and constants ****

  ****  Auto variables  ****

  ****  Scalars and arrays  ****
OctLoc.c.b A Datatyp(siz) R M Lvl/name                 OctLoc.c.b A Datatyp(siz) R M Lvl/name

     3-0-0/w PTR         r     1 @ERROR_CODE               *0-0-0/w BIT         r     1 ERROR_CODE

  ****  SYMREF variables  ****

  ****  Scalars and arrays  ****
OctLoc.c.b A Datatyp(siz) R M Lvl/name                 OctLoc.c.b A Datatyp(siz) R M Lvl/name

     0-0-0/w UBIN        r     1 ERROR_COUNT                0-0-0/d REMB        r     1 XUOERROR
     0-0-0/w BIT         r     1 XUO_ERROR_CODE


   Procedure XUP$PARTRGE_XUO_ERROR requires 11 words for executable code.
   Procedure XUP$PARTRGE_XUO_ERROR requires 4 words of local(AUTO) storage.

    No errors detected in file XUP$PARTRGE.:E05TSI    .
PL6.E3A0      #006=XUP$PARTRGE_XUO_ERROR File=XUP$PARTRGE.:E05TSI                WED 07/30/97 09:41 Page:439
          *** CROSS REFERENCE LISTING ***
**     DENOTES     IDENTIFIER DEFINITION
<<                 IDENTIFIER'S VALUE SET
>>                 IDENTIFIER'S VALUE USED
<>                 IDENTIFIER SET AND/OR USED
--                 IDENTIFIER REFERENCED
PL6.E3A0      #006=XUP$PARTRGE_XUO_ERROR File=XUP$PARTRGE.:E05TSI                WED 07/30/97 09:41 Page:440
          MINI XREF LISTING

ERROR_CODE
         8**DCL         6--PROC       14>>ASSIGN
ERROR_COUNT
         9**DCL        15<<ASSIGN     15>>ASSIGN
XUOERROR
        10**DCL        17>>UNWIND
XUO_ERROR_CODE
        12**DCL        14<<ASSIGN
